{
	"Test/contract A.sol": {
		"A": {
			"abi": [
				{
					"inputs": [
						{
							"internalType": "uint256",
							"name": "u",
							"type": "uint256"
						}
					],
					"name": "SetAnswer",
					"outputs": [],
					"stateMutability": "nonpayable",
					"type": "function"
				},
				{
					"inputs": [
						{
							"internalType": "uint256",
							"name": "param4",
							"type": "uint256"
						}
					],
					"name": "SetParam",
					"outputs": [],
					"stateMutability": "nonpayable",
					"type": "function"
				},
				{
					"inputs": [
						{
							"internalType": "uint256",
							"name": "param5",
							"type": "uint256"
						}
					],
					"name": "SetTest",
					"outputs": [],
					"stateMutability": "nonpayable",
					"type": "function"
				},
				{
					"inputs": [
						{
							"internalType": "uint256",
							"name": "",
							"type": "uint256"
						}
					],
					"name": "answer",
					"outputs": [
						{
							"internalType": "bool",
							"name": "",
							"type": "bool"
						}
					],
					"stateMutability": "view",
					"type": "function"
				},
				{
					"inputs": [
						{
							"internalType": "uint256",
							"name": "",
							"type": "uint256"
						},
						{
							"internalType": "bool",
							"name": "",
							"type": "bool"
						}
					],
					"name": "debt_index",
					"outputs": [
						{
							"internalType": "address",
							"name": "user_ID",
							"type": "address"
						},
						{
							"internalType": "bool",
							"name": "token_ID",
							"type": "bool"
						},
						{
							"internalType": "uint256",
							"name": "debttoken_amount",
							"type": "uint256"
						},
						{
							"internalType": "uint256",
							"name": "position_amount",
							"type": "uint256"
						}
					],
					"stateMutability": "view",
					"type": "function"
				},
				{
					"inputs": [
						{
							"internalType": "uint256",
							"name": "x",
							"type": "uint256"
						},
						{
							"internalType": "uint256",
							"name": "y",
							"type": "uint256"
						},
						{
							"internalType": "uint256",
							"name": "z",
							"type": "uint256"
						}
					],
					"name": "min3",
					"outputs": [
						{
							"internalType": "uint256",
							"name": "u",
							"type": "uint256"
						}
					],
					"stateMutability": "pure",
					"type": "function"
				},
				{
					"inputs": [],
					"name": "param1",
					"outputs": [
						{
							"internalType": "uint256",
							"name": "",
							"type": "uint256"
						}
					],
					"stateMutability": "view",
					"type": "function"
				},
				{
					"inputs": [],
					"name": "param2",
					"outputs": [
						{
							"internalType": "uint256",
							"name": "",
							"type": "uint256"
						}
					],
					"stateMutability": "view",
					"type": "function"
				},
				{
					"inputs": [],
					"name": "param3",
					"outputs": [
						{
							"internalType": "uint256",
							"name": "",
							"type": "uint256"
						}
					],
					"stateMutability": "view",
					"type": "function"
				},
				{
					"inputs": [
						{
							"internalType": "uint256",
							"name": "",
							"type": "uint256"
						}
					],
					"name": "test",
					"outputs": [
						{
							"internalType": "uint256",
							"name": "",
							"type": "uint256"
						}
					],
					"stateMutability": "view",
					"type": "function"
				},
				{
					"inputs": [],
					"name": "uni",
					"outputs": [],
					"stateMutability": "nonpayable",
					"type": "function"
				}
			],
			"devdoc": {
				"kind": "dev",
				"methods": {},
				"version": 1
			},
			"evm": {
				"assembly": "    /* \"Test/contract A.sol\":27:1171  contract A {\r... */\n  mstore(0x40, 0x80)\n    /* \"Test/contract A.sol\":69:70  7 */\n  0x07\n    /* \"Test/contract A.sol\":45:70  uint256 public param1 = 7 */\n  0x00\n  sstore\n    /* \"Test/contract A.sol\":101:102  8 */\n  0x08\n    /* \"Test/contract A.sol\":77:102  uint256 public param2 = 8 */\n  0x01\n  sstore\n    /* \"Test/contract A.sol\":133:134  9 */\n  0x09\n    /* \"Test/contract A.sol\":109:134  uint256 public param3 = 9 */\n  0x02\n  sstore\n    /* \"Test/contract A.sol\":222:223  1 */\n  0x01\n    /* \"Test/contract A.sol\":211:224  new uint[](1) */\n  0xffffffffffffffff\n  dup2\n  gt\n  iszero\n  tag_1\n  jumpi\n  tag_2\n  tag_3\n  jump\t// in\ntag_2:\ntag_1:\n  mload(0x40)\n  swap1\n  dup1\n  dup3\n  mstore\n  dup1\n  0x20\n  mul\n  0x20\n  add\n  dup3\n  add\n  0x40\n  mstore\n  dup1\n  iszero\n  tag_4\n  jumpi\n  dup2\n  0x20\n  add\n  0x20\n  dup3\n  mul\n  dup1\n  calldatasize\n  dup4\n  calldatacopy\n  dup1\n  dup3\n  add\n  swap2\n  pop\n  pop\n  swap1\n  pop\ntag_4:\n  pop\n    /* \"Test/contract A.sol\":187:224  uint256[] public test = new uint[](1) */\n  0x04\n  swap1\n  dup1\n  mload\n  swap1\n  0x20\n  add\n  swap1\n  tag_5\n  swap3\n  swap2\n  swap1\n  tag_6\n  jump\t// in\ntag_5:\n  pop\n    /* \"Test/contract A.sol\":27:1171  contract A {\r... */\n  callvalue\n  dup1\n  iszero\n  tag_7\n  jumpi\n  0x00\n  dup1\n  revert\ntag_7:\n  pop\n  jump(tag_8)\ntag_6:\n  dup3\n  dup1\n  sload\n  dup3\n  dup3\n  sstore\n  swap1\n  0x00\n  mstore\n  keccak256(0x00, 0x20)\n  swap1\n  dup2\n  add\n  swap3\n  dup3\n  iszero\n  tag_9\n  jumpi\n  swap2\n  0x20\n  mul\n  dup3\n  add\ntag_10:\n  dup3\n  dup2\n  gt\n  iszero\n  tag_11\n  jumpi\n  dup3\n  mload\n  dup3\n  sstore\n  swap2\n  0x20\n  add\n  swap2\n  swap1\n  0x01\n  add\n  swap1\n  jump(tag_10)\ntag_11:\ntag_9:\n  pop\n  swap1\n  pop\n  tag_12\n  swap2\n  swap1\n  tag_13\n  jump\t// in\ntag_12:\n  pop\n  swap1\n  jump\t// out\ntag_13:\ntag_14:\n  dup1\n  dup3\n  gt\n  iszero\n  tag_15\n  jumpi\n  0x00\n  dup2\n  0x00\n  swap1\n  sstore\n  pop\n  0x01\n  add\n  jump(tag_14)\ntag_15:\n  pop\n  swap1\n  jump\t// out\n    /* \"#utility.yul\":7:187   */\ntag_3:\n    /* \"#utility.yul\":55:132   */\n  0x4e487b7100000000000000000000000000000000000000000000000000000000\n    /* \"#utility.yul\":52:53   */\n  0x00\n    /* \"#utility.yul\":45:133   */\n  mstore\n    /* \"#utility.yul\":152:156   */\n  0x41\n    /* \"#utility.yul\":149:150   */\n  0x04\n    /* \"#utility.yul\":142:157   */\n  mstore\n    /* \"#utility.yul\":176:180   */\n  0x24\n    /* \"#utility.yul\":173:174   */\n  0x00\n    /* \"#utility.yul\":166:181   */\n  revert\n    /* \"Test/contract A.sol\":27:1171  contract A {\r... */\ntag_8:\n  dataSize(sub_0)\n  dup1\n  dataOffset(sub_0)\n  0x00\n  codecopy\n  0x00\n  return\nstop\n\nsub_0: assembly {\n        /* \"Test/contract A.sol\":27:1171  contract A {\r... */\n      mstore(0x40, 0x80)\n      callvalue\n      dup1\n      iszero\n      tag_1\n      jumpi\n      0x00\n      dup1\n      revert\n    tag_1:\n      pop\n      jumpi(tag_2, lt(calldatasize, 0x04))\n      shr(0xe0, calldataload(0x00))\n      dup1\n      0x418ba5d1\n      gt\n      tag_14\n      jumpi\n      dup1\n      0x418ba5d1\n      eq\n      tag_8\n      jumpi\n      dup1\n      0x5ccea9a5\n      eq\n      tag_9\n      jumpi\n      dup1\n      0x7706c9e6\n      eq\n      tag_10\n      jumpi\n      dup1\n      0xedc9af95\n      eq\n      tag_11\n      jumpi\n      dup1\n      0xef47db83\n      eq\n      tag_12\n      jumpi\n      dup1\n      0xf072df06\n      eq\n      tag_13\n      jumpi\n      jump(tag_2)\n    tag_14:\n      dup1\n      0x02d91518\n      eq\n      tag_3\n      jumpi\n      dup1\n      0x06f70295\n      eq\n      tag_4\n      jumpi\n      dup1\n      0x1f049b68\n      eq\n      tag_5\n      jumpi\n      dup1\n      0x29e99f07\n      eq\n      tag_6\n      jumpi\n      dup1\n      0x305ccc28\n      eq\n      tag_7\n      jumpi\n    tag_2:\n      0x00\n      dup1\n      revert\n        /* \"Test/contract A.sol\":45:70  uint256 public param1 = 7 */\n    tag_3:\n      tag_15\n      tag_16\n      jump\t// in\n    tag_15:\n      mload(0x40)\n      tag_17\n      swap2\n      swap1\n      tag_18\n      jump\t// in\n    tag_17:\n      mload(0x40)\n      dup1\n      swap2\n      sub\n      swap1\n      return\n        /* \"Test/contract A.sol\":141:180  mapping(uint256 => bool ) public answer */\n    tag_4:\n      tag_19\n      0x04\n      dup1\n      calldatasize\n      sub\n      dup2\n      add\n      swap1\n      tag_20\n      swap2\n      swap1\n      tag_21\n      jump\t// in\n    tag_20:\n      tag_22\n      jump\t// in\n    tag_19:\n      mload(0x40)\n      tag_23\n      swap2\n      swap1\n      tag_24\n      jump\t// in\n    tag_23:\n      mload(0x40)\n      dup1\n      swap2\n      sub\n      swap1\n      return\n        /* \"Test/contract A.sol\":77:102  uint256 public param2 = 8 */\n    tag_5:\n      tag_25\n      tag_26\n      jump\t// in\n    tag_25:\n      mload(0x40)\n      tag_27\n      swap2\n      swap1\n      tag_18\n      jump\t// in\n    tag_27:\n      mload(0x40)\n      dup1\n      swap2\n      sub\n      swap1\n      return\n        /* \"Test/contract A.sol\":187:224  uint256[] public test = new uint[](1) */\n    tag_6:\n      tag_28\n      0x04\n      dup1\n      calldatasize\n      sub\n      dup2\n      add\n      swap1\n      tag_29\n      swap2\n      swap1\n      tag_21\n      jump\t// in\n    tag_29:\n      tag_30\n      jump\t// in\n    tag_28:\n      mload(0x40)\n      tag_31\n      swap2\n      swap1\n      tag_18\n      jump\t// in\n    tag_31:\n      mload(0x40)\n      dup1\n      swap2\n      sub\n      swap1\n      return\n        /* \"Test/contract A.sol\":446:576  function min3(uint x, uint y,uint z) public pure returns (uint u) {\r... */\n    tag_7:\n      tag_32\n      0x04\n      dup1\n      calldatasize\n      sub\n      dup2\n      add\n      swap1\n      tag_33\n      swap2\n      swap1\n      tag_34\n      jump\t// in\n    tag_33:\n      tag_35\n      jump\t// in\n    tag_32:\n      mload(0x40)\n      tag_36\n      swap2\n      swap1\n      tag_18\n      jump\t// in\n    tag_36:\n      mload(0x40)\n      dup1\n      swap2\n      sub\n      swap1\n      return\n        /* \"Test/contract A.sol\":883:1029  function SetParam(uint256 param4) public {\r... */\n    tag_8:\n      tag_37\n      0x04\n      dup1\n      calldatasize\n      sub\n      dup2\n      add\n      swap1\n      tag_38\n      swap2\n      swap1\n      tag_21\n      jump\t// in\n    tag_38:\n      tag_39\n      jump\t// in\n    tag_37:\n      stop\n        /* \"Test/contract A.sol\":109:134  uint256 public param3 = 9 */\n    tag_9:\n      tag_40\n      tag_41\n      jump\t// in\n    tag_40:\n      mload(0x40)\n      tag_42\n      swap2\n      swap1\n      tag_18\n      jump\t// in\n    tag_42:\n      mload(0x40)\n      dup1\n      swap2\n      sub\n      swap1\n      return\n        /* \"Test/contract A.sol\":733:873  function SetAnswer (uint256 u) public{\r... */\n    tag_10:\n      tag_43\n      0x04\n      dup1\n      calldatasize\n      sub\n      dup2\n      add\n      swap1\n      tag_44\n      swap2\n      swap1\n      tag_21\n      jump\t// in\n    tag_44:\n      tag_45\n      jump\t// in\n    tag_43:\n      stop\n        /* \"Test/contract A.sol\":584:725  function uni () public {\r... */\n    tag_11:\n      tag_46\n      tag_47\n      jump\t// in\n    tag_46:\n      stop\n        /* \"Test/contract A.sol\":1037:1162  function SetTest(uint256 param5) public {\r... */\n    tag_12:\n      tag_48\n      0x04\n      dup1\n      calldatasize\n      sub\n      dup2\n      add\n      swap1\n      tag_49\n      swap2\n      swap1\n      tag_21\n      jump\t// in\n    tag_49:\n      tag_50\n      jump\t// in\n    tag_48:\n      stop\n        /* \"Test/contract A.sol\":376:436  mapping(uint => mapping(bool => debtbook)) public debt_index */\n    tag_13:\n      tag_51\n      0x04\n      dup1\n      calldatasize\n      sub\n      dup2\n      add\n      swap1\n      tag_52\n      swap2\n      swap1\n      tag_53\n      jump\t// in\n    tag_52:\n      tag_54\n      jump\t// in\n    tag_51:\n      mload(0x40)\n      tag_55\n      swap5\n      swap4\n      swap3\n      swap2\n      swap1\n      tag_56\n      jump\t// in\n    tag_55:\n      mload(0x40)\n      dup1\n      swap2\n      sub\n      swap1\n      return\n        /* \"Test/contract A.sol\":45:70  uint256 public param1 = 7 */\n    tag_16:\n      sload(0x00)\n      dup2\n      jump\t// out\n        /* \"Test/contract A.sol\":141:180  mapping(uint256 => bool ) public answer */\n    tag_22:\n      mstore(0x20, 0x03)\n      dup1\n      0x00\n      mstore\n      keccak256(0x00, 0x40)\n      0x00\n      swap2\n      pop\n      sload\n      swap1\n      0x0100\n      exp\n      swap1\n      div\n      0xff\n      and\n      dup2\n      jump\t// out\n        /* \"Test/contract A.sol\":77:102  uint256 public param2 = 8 */\n    tag_26:\n      sload(0x01)\n      dup2\n      jump\t// out\n        /* \"Test/contract A.sol\":187:224  uint256[] public test = new uint[](1) */\n    tag_30:\n      0x04\n      dup2\n      dup2\n      sload\n      dup2\n      lt\n      tag_57\n      jumpi\n      0x00\n      dup1\n      revert\n    tag_57:\n      swap1\n      0x00\n      mstore\n      keccak256(0x00, 0x20)\n      add\n      0x00\n      swap2\n      pop\n      swap1\n      pop\n      sload\n      dup2\n      jump\t// out\n        /* \"Test/contract A.sol\":446:576  function min3(uint x, uint y,uint z) public pure returns (uint u) {\r... */\n    tag_35:\n        /* \"Test/contract A.sol\":504:510  uint u */\n      0x00\n        /* \"Test/contract A.sol\":531:532  y */\n      dup3\n        /* \"Test/contract A.sol\":527:528  x */\n      dup5\n        /* \"Test/contract A.sol\":527:532  x < y */\n      lt\n        /* \"Test/contract A.sol\":527:540  x < y ? x : y */\n      tag_60\n      jumpi\n        /* \"Test/contract A.sol\":539:540  y */\n      dup3\n        /* \"Test/contract A.sol\":527:540  x < y ? x : y */\n      jump(tag_61)\n    tag_60:\n        /* \"Test/contract A.sol\":535:536  x */\n      dup4\n        /* \"Test/contract A.sol\":527:540  x < y ? x : y */\n    tag_61:\n        /* \"Test/contract A.sol\":523:540  x = x < y ? x : y */\n      swap4\n      pop\n        /* \"Test/contract A.sol\":559:560  z */\n      dup2\n        /* \"Test/contract A.sol\":555:556  x */\n      dup5\n        /* \"Test/contract A.sol\":555:560  x < z */\n      lt\n        /* \"Test/contract A.sol\":555:568  x < z ? x : z */\n      tag_62\n      jumpi\n        /* \"Test/contract A.sol\":567:568  z */\n      dup2\n        /* \"Test/contract A.sol\":555:568  x < z ? x : z */\n      jump(tag_63)\n    tag_62:\n        /* \"Test/contract A.sol\":563:564  x */\n      dup4\n        /* \"Test/contract A.sol\":555:568  x < z ? x : z */\n    tag_63:\n        /* \"Test/contract A.sol\":551:568  u = x < z ? x : z */\n      swap1\n      pop\n        /* \"Test/contract A.sol\":446:576  function min3(uint x, uint y,uint z) public pure returns (uint u) {\r... */\n      swap4\n      swap3\n      pop\n      pop\n      pop\n      jump\t// out\n        /* \"Test/contract A.sol\":883:1029  function SetParam(uint256 param4) public {\r... */\n    tag_39:\n        /* \"Test/contract A.sol\":945:951  param4 */\n      dup1\n        /* \"Test/contract A.sol\":935:941  param1 */\n      0x00\n      dup1\n        /* \"Test/contract A.sol\":935:951  param1 *= param4 */\n      dup3\n      dup3\n      sload\n      tag_65\n      swap2\n      swap1\n      tag_66\n      jump\t// in\n    tag_65:\n      swap3\n      pop\n      pop\n      dup2\n      swap1\n      sstore\n      pop\n        /* \"Test/contract A.sol\":972:978  param4 */\n      dup1\n        /* \"Test/contract A.sol\":962:968  param2 */\n      0x01\n      0x00\n        /* \"Test/contract A.sol\":962:978  param2 *= param4 */\n      dup3\n      dup3\n      sload\n      tag_67\n      swap2\n      swap1\n      tag_66\n      jump\t// in\n    tag_67:\n      swap3\n      pop\n      pop\n      dup2\n      swap1\n      sstore\n      pop\n        /* \"Test/contract A.sol\":999:1005  param4 */\n      dup1\n        /* \"Test/contract A.sol\":989:995  param3 */\n      0x02\n      0x00\n        /* \"Test/contract A.sol\":989:1005  param3 *= param4 */\n      dup3\n      dup3\n      sload\n      tag_68\n      swap2\n      swap1\n      tag_66\n      jump\t// in\n    tag_68:\n      swap3\n      pop\n      pop\n      dup2\n      swap1\n      sstore\n      pop\n        /* \"Test/contract A.sol\":1016:1021  uni() */\n      tag_69\n        /* \"Test/contract A.sol\":1016:1019  uni */\n      tag_47\n        /* \"Test/contract A.sol\":1016:1021  uni() */\n      jump\t// in\n    tag_69:\n        /* \"Test/contract A.sol\":883:1029  function SetParam(uint256 param4) public {\r... */\n      pop\n      jump\t// out\n        /* \"Test/contract A.sol\":109:134  uint256 public param3 = 9 */\n    tag_41:\n      sload(0x02)\n      dup2\n      jump\t// out\n        /* \"Test/contract A.sol\":733:873  function SetAnswer (uint256 u) public{\r... */\n    tag_45:\n        /* \"Test/contract A.sol\":785:791  uint i */\n      0x00\n        /* \"Test/contract A.sol\":781:866  for(uint i = 0; i < u; i++){\r... */\n    tag_71:\n        /* \"Test/contract A.sol\":801:802  u */\n      dup2\n        /* \"Test/contract A.sol\":797:798  i */\n      dup2\n        /* \"Test/contract A.sol\":797:802  i < u */\n      lt\n        /* \"Test/contract A.sol\":781:866  for(uint i = 0; i < u; i++){\r... */\n      iszero\n      tag_72\n      jumpi\n        /* \"Test/contract A.sol\":850:854  true */\n      0x01\n        /* \"Test/contract A.sol\":819:829  debt_index */\n      0x05\n        /* \"Test/contract A.sol\":819:832  debt_index[i] */\n      0x00\n        /* \"Test/contract A.sol\":830:831  i */\n      dup4\n        /* \"Test/contract A.sol\":819:832  debt_index[i] */\n      dup2\n      mstore\n      0x20\n      add\n      swap1\n      dup2\n      mstore\n      0x20\n      add\n      0x00\n      keccak256\n        /* \"Test/contract A.sol\":819:838  debt_index[i][true] */\n      0x00\n        /* \"Test/contract A.sol\":833:837  true */\n      0x01\n        /* \"Test/contract A.sol\":819:838  debt_index[i][true] */\n      iszero\n      iszero\n      iszero\n      iszero\n      dup2\n      mstore\n      0x20\n      add\n      swap1\n      dup2\n      mstore\n      0x20\n      add\n      0x00\n      keccak256\n        /* \"Test/contract A.sol\":819:847  debt_index[i][true].token_ID */\n      0x00\n      add\n      0x14\n        /* \"Test/contract A.sol\":819:854  debt_index[i][true].token_ID = true */\n      0x0100\n      exp\n      dup2\n      sload\n      dup2\n      0xff\n      mul\n      not\n      and\n      swap1\n      dup4\n      iszero\n      iszero\n      mul\n      or\n      swap1\n      sstore\n      pop\n        /* \"Test/contract A.sol\":804:807  i++ */\n      dup1\n      dup1\n      tag_74\n      swap1\n      tag_75\n      jump\t// in\n    tag_74:\n      swap2\n      pop\n      pop\n        /* \"Test/contract A.sol\":781:866  for(uint i = 0; i < u; i++){\r... */\n      jump(tag_71)\n    tag_72:\n      pop\n        /* \"Test/contract A.sol\":733:873  function SetAnswer (uint256 u) public{\r... */\n      pop\n      jump\t// out\n        /* \"Test/contract A.sol\":584:725  function uni () public {\r... */\n    tag_47:\n        /* \"Test/contract A.sol\":627:657  min3(param1 , param2 , param3) */\n      tag_77\n        /* \"Test/contract A.sol\":632:638  param1 */\n      sload(0x00)\n        /* \"Test/contract A.sol\":641:647  param2 */\n      sload(0x01)\n        /* \"Test/contract A.sol\":650:656  param3 */\n      sload(0x02)\n        /* \"Test/contract A.sol\":627:631  min3 */\n      tag_35\n        /* \"Test/contract A.sol\":627:657  min3(param1 , param2 , param3) */\n      jump\t// in\n    tag_77:\n        /* \"Test/contract A.sol\":618:624  param1 */\n      0x00\n        /* \"Test/contract A.sol\":618:657  param1 = min3(param1 , param2 , param3) */\n      dup2\n      swap1\n      sstore\n      pop\n        /* \"Test/contract A.sol\":686:687  1 */\n      0x01\n        /* \"Test/contract A.sol\":677:683  param1 */\n      sload(0x00)\n        /* \"Test/contract A.sol\":677:687  param1 + 1 */\n      tag_78\n      swap2\n      swap1\n      tag_79\n      jump\t// in\n    tag_78:\n        /* \"Test/contract A.sol\":668:674  param2 */\n      0x01\n        /* \"Test/contract A.sol\":668:687  param2 = param1 + 1 */\n      dup2\n      swap1\n      sstore\n      pop\n        /* \"Test/contract A.sol\":716:717  1 */\n      0x01\n        /* \"Test/contract A.sol\":707:713  param2 */\n      dup1\n      sload\n        /* \"Test/contract A.sol\":707:717  param2 + 1 */\n      tag_80\n      swap2\n      swap1\n      tag_79\n      jump\t// in\n    tag_80:\n        /* \"Test/contract A.sol\":698:704  param3 */\n      0x02\n        /* \"Test/contract A.sol\":698:717  param3 = param2 + 1 */\n      dup2\n      swap1\n      sstore\n      pop\n        /* \"Test/contract A.sol\":584:725  function uni () public {\r... */\n      jump\t// out\n        /* \"Test/contract A.sol\":1037:1162  function SetTest(uint256 param5) public {\r... */\n    tag_50:\n        /* \"Test/contract A.sol\":1098:1104  param5 */\n      dup1\n        /* \"Test/contract A.sol\":1088:1092  test */\n      0x04\n        /* \"Test/contract A.sol\":1093:1094  0 */\n      0x00\n        /* \"Test/contract A.sol\":1088:1095  test[0] */\n      dup2\n      sload\n      dup2\n      lt\n      tag_82\n      jumpi\n      tag_83\n      tag_84\n      jump\t// in\n    tag_83:\n    tag_82:\n      swap1\n      0x00\n      mstore\n      keccak256(0x00, 0x20)\n      add\n        /* \"Test/contract A.sol\":1088:1104  test[0] = param5 */\n      dup2\n      swap1\n      sstore\n      pop\n        /* \"Test/contract A.sol\":1115:1119  test */\n      0x04\n        /* \"Test/contract A.sol\":1125:1126  2 */\n      0x02\n        /* \"Test/contract A.sol\":1115:1127  test.push(2) */\n      swap1\n      dup1\n      0x01\n      dup2\n      sload\n      add\n      dup1\n      dup3\n      sstore\n      dup1\n      swap2\n      pop\n      pop\n      0x01\n      swap1\n      sub\n      swap1\n      0x00\n      mstore\n      keccak256(0x00, 0x20)\n      add\n      0x00\n      swap1\n      swap2\n      swap1\n      swap2\n      swap1\n      swap2\n      pop\n      sstore\n        /* \"Test/contract A.sol\":1148:1154  param5 */\n      dup1\n        /* \"Test/contract A.sol\":1138:1142  test */\n      0x04\n        /* \"Test/contract A.sol\":1143:1144  1 */\n      0x01\n        /* \"Test/contract A.sol\":1138:1145  test[1] */\n      dup2\n      sload\n      dup2\n      lt\n      tag_87\n      jumpi\n      tag_88\n      tag_84\n      jump\t// in\n    tag_88:\n    tag_87:\n      swap1\n      0x00\n      mstore\n      keccak256(0x00, 0x20)\n      add\n        /* \"Test/contract A.sol\":1138:1154  test[1] = param5 */\n      dup2\n      swap1\n      sstore\n      pop\n        /* \"Test/contract A.sol\":1037:1162  function SetTest(uint256 param5) public {\r... */\n      pop\n      jump\t// out\n        /* \"Test/contract A.sol\":376:436  mapping(uint => mapping(bool => debtbook)) public debt_index */\n    tag_54:\n      mstore(0x20, 0x05)\n      dup2\n      0x00\n      mstore\n      mstore(0x20, keccak256(0x00, 0x40))\n      dup1\n      0x00\n      mstore\n      keccak256(0x00, 0x40)\n      0x00\n      swap2\n      pop\n      swap2\n      pop\n      pop\n      dup1\n      0x00\n      add\n      0x00\n      swap1\n      sload\n      swap1\n      0x0100\n      exp\n      swap1\n      div\n      0xffffffffffffffffffffffffffffffffffffffff\n      and\n      swap1\n      dup1\n      0x00\n      add\n      0x14\n      swap1\n      sload\n      swap1\n      0x0100\n      exp\n      swap1\n      div\n      0xff\n      and\n      swap1\n      dup1\n      0x01\n      add\n      sload\n      swap1\n      dup1\n      0x02\n      add\n      sload\n      swap1\n      pop\n      dup5\n      jump\t// out\n        /* \"#utility.yul\":7:140   */\n    tag_91:\n        /* \"#utility.yul\":50:55   */\n      0x00\n        /* \"#utility.yul\":88:94   */\n      dup2\n        /* \"#utility.yul\":75:95   */\n      calldataload\n        /* \"#utility.yul\":66:95   */\n      swap1\n      pop\n        /* \"#utility.yul\":104:134   */\n      tag_93\n        /* \"#utility.yul\":128:133   */\n      dup2\n        /* \"#utility.yul\":104:134   */\n      tag_94\n      jump\t// in\n    tag_93:\n        /* \"#utility.yul\":7:140   */\n      swap3\n      swap2\n      pop\n      pop\n      jump\t// out\n        /* \"#utility.yul\":146:285   */\n    tag_95:\n        /* \"#utility.yul\":192:197   */\n      0x00\n        /* \"#utility.yul\":230:236   */\n      dup2\n        /* \"#utility.yul\":217:237   */\n      calldataload\n        /* \"#utility.yul\":208:237   */\n      swap1\n      pop\n        /* \"#utility.yul\":246:279   */\n      tag_97\n        /* \"#utility.yul\":273:278   */\n      dup2\n        /* \"#utility.yul\":246:279   */\n      tag_98\n      jump\t// in\n    tag_97:\n        /* \"#utility.yul\":146:285   */\n      swap3\n      swap2\n      pop\n      pop\n      jump\t// out\n        /* \"#utility.yul\":291:620   */\n    tag_21:\n        /* \"#utility.yul\":350:356   */\n      0x00\n        /* \"#utility.yul\":399:401   */\n      0x20\n        /* \"#utility.yul\":387:396   */\n      dup3\n        /* \"#utility.yul\":378:385   */\n      dup5\n        /* \"#utility.yul\":374:397   */\n      sub\n        /* \"#utility.yul\":370:402   */\n      slt\n        /* \"#utility.yul\":367:486   */\n      iszero\n      tag_100\n      jumpi\n        /* \"#utility.yul\":405:484   */\n      tag_101\n      tag_102\n      jump\t// in\n    tag_101:\n        /* \"#utility.yul\":367:486   */\n    tag_100:\n        /* \"#utility.yul\":525:526   */\n      0x00\n        /* \"#utility.yul\":550:603   */\n      tag_103\n        /* \"#utility.yul\":595:602   */\n      dup5\n        /* \"#utility.yul\":586:592   */\n      dup3\n        /* \"#utility.yul\":575:584   */\n      dup6\n        /* \"#utility.yul\":571:593   */\n      add\n        /* \"#utility.yul\":550:603   */\n      tag_95\n      jump\t// in\n    tag_103:\n        /* \"#utility.yul\":540:603   */\n      swap2\n      pop\n        /* \"#utility.yul\":496:613   */\n      pop\n        /* \"#utility.yul\":291:620   */\n      swap3\n      swap2\n      pop\n      pop\n      jump\t// out\n        /* \"#utility.yul\":626:1094   */\n    tag_53:\n        /* \"#utility.yul\":691:697   */\n      0x00\n        /* \"#utility.yul\":699:705   */\n      dup1\n        /* \"#utility.yul\":748:750   */\n      0x40\n        /* \"#utility.yul\":736:745   */\n      dup4\n        /* \"#utility.yul\":727:734   */\n      dup6\n        /* \"#utility.yul\":723:746   */\n      sub\n        /* \"#utility.yul\":719:751   */\n      slt\n        /* \"#utility.yul\":716:835   */\n      iszero\n      tag_105\n      jumpi\n        /* \"#utility.yul\":754:833   */\n      tag_106\n      tag_102\n      jump\t// in\n    tag_106:\n        /* \"#utility.yul\":716:835   */\n    tag_105:\n        /* \"#utility.yul\":874:875   */\n      0x00\n        /* \"#utility.yul\":899:952   */\n      tag_107\n        /* \"#utility.yul\":944:951   */\n      dup6\n        /* \"#utility.yul\":935:941   */\n      dup3\n        /* \"#utility.yul\":924:933   */\n      dup7\n        /* \"#utility.yul\":920:942   */\n      add\n        /* \"#utility.yul\":899:952   */\n      tag_95\n      jump\t// in\n    tag_107:\n        /* \"#utility.yul\":889:952   */\n      swap3\n      pop\n        /* \"#utility.yul\":845:962   */\n      pop\n        /* \"#utility.yul\":1001:1003   */\n      0x20\n        /* \"#utility.yul\":1027:1077   */\n      tag_108\n        /* \"#utility.yul\":1069:1076   */\n      dup6\n        /* \"#utility.yul\":1060:1066   */\n      dup3\n        /* \"#utility.yul\":1049:1058   */\n      dup7\n        /* \"#utility.yul\":1045:1067   */\n      add\n        /* \"#utility.yul\":1027:1077   */\n      tag_91\n      jump\t// in\n    tag_108:\n        /* \"#utility.yul\":1017:1077   */\n      swap2\n      pop\n        /* \"#utility.yul\":972:1087   */\n      pop\n        /* \"#utility.yul\":626:1094   */\n      swap3\n      pop\n      swap3\n      swap1\n      pop\n      jump\t// out\n        /* \"#utility.yul\":1100:1719   */\n    tag_34:\n        /* \"#utility.yul\":1177:1183   */\n      0x00\n        /* \"#utility.yul\":1185:1191   */\n      dup1\n        /* \"#utility.yul\":1193:1199   */\n      0x00\n        /* \"#utility.yul\":1242:1244   */\n      0x60\n        /* \"#utility.yul\":1230:1239   */\n      dup5\n        /* \"#utility.yul\":1221:1228   */\n      dup7\n        /* \"#utility.yul\":1217:1240   */\n      sub\n        /* \"#utility.yul\":1213:1245   */\n      slt\n        /* \"#utility.yul\":1210:1329   */\n      iszero\n      tag_110\n      jumpi\n        /* \"#utility.yul\":1248:1327   */\n      tag_111\n      tag_102\n      jump\t// in\n    tag_111:\n        /* \"#utility.yul\":1210:1329   */\n    tag_110:\n        /* \"#utility.yul\":1368:1369   */\n      0x00\n        /* \"#utility.yul\":1393:1446   */\n      tag_112\n        /* \"#utility.yul\":1438:1445   */\n      dup7\n        /* \"#utility.yul\":1429:1435   */\n      dup3\n        /* \"#utility.yul\":1418:1427   */\n      dup8\n        /* \"#utility.yul\":1414:1436   */\n      add\n        /* \"#utility.yul\":1393:1446   */\n      tag_95\n      jump\t// in\n    tag_112:\n        /* \"#utility.yul\":1383:1446   */\n      swap4\n      pop\n        /* \"#utility.yul\":1339:1456   */\n      pop\n        /* \"#utility.yul\":1495:1497   */\n      0x20\n        /* \"#utility.yul\":1521:1574   */\n      tag_113\n        /* \"#utility.yul\":1566:1573   */\n      dup7\n        /* \"#utility.yul\":1557:1563   */\n      dup3\n        /* \"#utility.yul\":1546:1555   */\n      dup8\n        /* \"#utility.yul\":1542:1564   */\n      add\n        /* \"#utility.yul\":1521:1574   */\n      tag_95\n      jump\t// in\n    tag_113:\n        /* \"#utility.yul\":1511:1574   */\n      swap3\n      pop\n        /* \"#utility.yul\":1466:1584   */\n      pop\n        /* \"#utility.yul\":1623:1625   */\n      0x40\n        /* \"#utility.yul\":1649:1702   */\n      tag_114\n        /* \"#utility.yul\":1694:1701   */\n      dup7\n        /* \"#utility.yul\":1685:1691   */\n      dup3\n        /* \"#utility.yul\":1674:1683   */\n      dup8\n        /* \"#utility.yul\":1670:1692   */\n      add\n        /* \"#utility.yul\":1649:1702   */\n      tag_95\n      jump\t// in\n    tag_114:\n        /* \"#utility.yul\":1639:1702   */\n      swap2\n      pop\n        /* \"#utility.yul\":1594:1712   */\n      pop\n        /* \"#utility.yul\":1100:1719   */\n      swap3\n      pop\n      swap3\n      pop\n      swap3\n      jump\t// out\n        /* \"#utility.yul\":1725:1843   */\n    tag_115:\n        /* \"#utility.yul\":1812:1836   */\n      tag_117\n        /* \"#utility.yul\":1830:1835   */\n      dup2\n        /* \"#utility.yul\":1812:1836   */\n      tag_118\n      jump\t// in\n    tag_117:\n        /* \"#utility.yul\":1807:1810   */\n      dup3\n        /* \"#utility.yul\":1800:1837   */\n      mstore\n        /* \"#utility.yul\":1725:1843   */\n      pop\n      pop\n      jump\t// out\n        /* \"#utility.yul\":1849:1958   */\n    tag_119:\n        /* \"#utility.yul\":1930:1951   */\n      tag_121\n        /* \"#utility.yul\":1945:1950   */\n      dup2\n        /* \"#utility.yul\":1930:1951   */\n      tag_122\n      jump\t// in\n    tag_121:\n        /* \"#utility.yul\":1925:1928   */\n      dup3\n        /* \"#utility.yul\":1918:1952   */\n      mstore\n        /* \"#utility.yul\":1849:1958   */\n      pop\n      pop\n      jump\t// out\n        /* \"#utility.yul\":1964:2082   */\n    tag_123:\n        /* \"#utility.yul\":2051:2075   */\n      tag_125\n        /* \"#utility.yul\":2069:2074   */\n      dup2\n        /* \"#utility.yul\":2051:2075   */\n      tag_126\n      jump\t// in\n    tag_125:\n        /* \"#utility.yul\":2046:2049   */\n      dup3\n        /* \"#utility.yul\":2039:2076   */\n      mstore\n        /* \"#utility.yul\":1964:2082   */\n      pop\n      pop\n      jump\t// out\n        /* \"#utility.yul\":2088:2629   */\n    tag_56:\n        /* \"#utility.yul\":2259:2263   */\n      0x00\n        /* \"#utility.yul\":2297:2300   */\n      0x80\n        /* \"#utility.yul\":2286:2295   */\n      dup3\n        /* \"#utility.yul\":2282:2301   */\n      add\n        /* \"#utility.yul\":2274:2301   */\n      swap1\n      pop\n        /* \"#utility.yul\":2311:2382   */\n      tag_128\n        /* \"#utility.yul\":2379:2380   */\n      0x00\n        /* \"#utility.yul\":2368:2377   */\n      dup4\n        /* \"#utility.yul\":2364:2381   */\n      add\n        /* \"#utility.yul\":2355:2361   */\n      dup8\n        /* \"#utility.yul\":2311:2382   */\n      tag_115\n      jump\t// in\n    tag_128:\n        /* \"#utility.yul\":2392:2458   */\n      tag_129\n        /* \"#utility.yul\":2454:2456   */\n      0x20\n        /* \"#utility.yul\":2443:2452   */\n      dup4\n        /* \"#utility.yul\":2439:2457   */\n      add\n        /* \"#utility.yul\":2430:2436   */\n      dup7\n        /* \"#utility.yul\":2392:2458   */\n      tag_119\n      jump\t// in\n    tag_129:\n        /* \"#utility.yul\":2468:2540   */\n      tag_130\n        /* \"#utility.yul\":2536:2538   */\n      0x40\n        /* \"#utility.yul\":2525:2534   */\n      dup4\n        /* \"#utility.yul\":2521:2539   */\n      add\n        /* \"#utility.yul\":2512:2518   */\n      dup6\n        /* \"#utility.yul\":2468:2540   */\n      tag_123\n      jump\t// in\n    tag_130:\n        /* \"#utility.yul\":2550:2622   */\n      tag_131\n        /* \"#utility.yul\":2618:2620   */\n      0x60\n        /* \"#utility.yul\":2607:2616   */\n      dup4\n        /* \"#utility.yul\":2603:2621   */\n      add\n        /* \"#utility.yul\":2594:2600   */\n      dup5\n        /* \"#utility.yul\":2550:2622   */\n      tag_123\n      jump\t// in\n    tag_131:\n        /* \"#utility.yul\":2088:2629   */\n      swap6\n      swap5\n      pop\n      pop\n      pop\n      pop\n      pop\n      jump\t// out\n        /* \"#utility.yul\":2635:2845   */\n    tag_24:\n        /* \"#utility.yul\":2722:2726   */\n      0x00\n        /* \"#utility.yul\":2760:2762   */\n      0x20\n        /* \"#utility.yul\":2749:2758   */\n      dup3\n        /* \"#utility.yul\":2745:2763   */\n      add\n        /* \"#utility.yul\":2737:2763   */\n      swap1\n      pop\n        /* \"#utility.yul\":2773:2838   */\n      tag_133\n        /* \"#utility.yul\":2835:2836   */\n      0x00\n        /* \"#utility.yul\":2824:2833   */\n      dup4\n        /* \"#utility.yul\":2820:2837   */\n      add\n        /* \"#utility.yul\":2811:2817   */\n      dup5\n        /* \"#utility.yul\":2773:2838   */\n      tag_119\n      jump\t// in\n    tag_133:\n        /* \"#utility.yul\":2635:2845   */\n      swap3\n      swap2\n      pop\n      pop\n      jump\t// out\n        /* \"#utility.yul\":2851:3073   */\n    tag_18:\n        /* \"#utility.yul\":2944:2948   */\n      0x00\n        /* \"#utility.yul\":2982:2984   */\n      0x20\n        /* \"#utility.yul\":2971:2980   */\n      dup3\n        /* \"#utility.yul\":2967:2985   */\n      add\n        /* \"#utility.yul\":2959:2985   */\n      swap1\n      pop\n        /* \"#utility.yul\":2995:3066   */\n      tag_135\n        /* \"#utility.yul\":3063:3064   */\n      0x00\n        /* \"#utility.yul\":3052:3061   */\n      dup4\n        /* \"#utility.yul\":3048:3065   */\n      add\n        /* \"#utility.yul\":3039:3045   */\n      dup5\n        /* \"#utility.yul\":2995:3066   */\n      tag_123\n      jump\t// in\n    tag_135:\n        /* \"#utility.yul\":2851:3073   */\n      swap3\n      swap2\n      pop\n      pop\n      jump\t// out\n        /* \"#utility.yul\":3160:3465   */\n    tag_79:\n        /* \"#utility.yul\":3200:3203   */\n      0x00\n        /* \"#utility.yul\":3219:3239   */\n      tag_139\n        /* \"#utility.yul\":3237:3238   */\n      dup3\n        /* \"#utility.yul\":3219:3239   */\n      tag_126\n      jump\t// in\n    tag_139:\n        /* \"#utility.yul\":3214:3239   */\n      swap2\n      pop\n        /* \"#utility.yul\":3253:3273   */\n      tag_140\n        /* \"#utility.yul\":3271:3272   */\n      dup4\n        /* \"#utility.yul\":3253:3273   */\n      tag_126\n      jump\t// in\n    tag_140:\n        /* \"#utility.yul\":3248:3273   */\n      swap3\n      pop\n        /* \"#utility.yul\":3407:3408   */\n      dup3\n        /* \"#utility.yul\":3339:3405   */\n      0xffffffffffffffffffffffffffffffffffffffffffffffffffffffffffffffff\n        /* \"#utility.yul\":3335:3409   */\n      sub\n        /* \"#utility.yul\":3332:3333   */\n      dup3\n        /* \"#utility.yul\":3329:3410   */\n      gt\n        /* \"#utility.yul\":3326:3433   */\n      iszero\n      tag_141\n      jumpi\n        /* \"#utility.yul\":3413:3431   */\n      tag_142\n      tag_143\n      jump\t// in\n    tag_142:\n        /* \"#utility.yul\":3326:3433   */\n    tag_141:\n        /* \"#utility.yul\":3457:3458   */\n      dup3\n        /* \"#utility.yul\":3454:3455   */\n      dup3\n        /* \"#utility.yul\":3450:3459   */\n      add\n        /* \"#utility.yul\":3443:3459   */\n      swap1\n      pop\n        /* \"#utility.yul\":3160:3465   */\n      swap3\n      swap2\n      pop\n      pop\n      jump\t// out\n        /* \"#utility.yul\":3471:3819   */\n    tag_66:\n        /* \"#utility.yul\":3511:3518   */\n      0x00\n        /* \"#utility.yul\":3534:3554   */\n      tag_145\n        /* \"#utility.yul\":3552:3553   */\n      dup3\n        /* \"#utility.yul\":3534:3554   */\n      tag_126\n      jump\t// in\n    tag_145:\n        /* \"#utility.yul\":3529:3554   */\n      swap2\n      pop\n        /* \"#utility.yul\":3568:3588   */\n      tag_146\n        /* \"#utility.yul\":3586:3587   */\n      dup4\n        /* \"#utility.yul\":3568:3588   */\n      tag_126\n      jump\t// in\n    tag_146:\n        /* \"#utility.yul\":3563:3588   */\n      swap3\n      pop\n        /* \"#utility.yul\":3756:3757   */\n      dup2\n        /* \"#utility.yul\":3688:3754   */\n      0xffffffffffffffffffffffffffffffffffffffffffffffffffffffffffffffff\n        /* \"#utility.yul\":3684:3758   */\n      div\n        /* \"#utility.yul\":3681:3682   */\n      dup4\n        /* \"#utility.yul\":3678:3759   */\n      gt\n        /* \"#utility.yul\":3673:3674   */\n      dup3\n        /* \"#utility.yul\":3666:3675   */\n      iszero\n        /* \"#utility.yul\":3659:3676   */\n      iszero\n        /* \"#utility.yul\":3655:3760   */\n      and\n        /* \"#utility.yul\":3652:3783   */\n      iszero\n      tag_147\n      jumpi\n        /* \"#utility.yul\":3763:3781   */\n      tag_148\n      tag_143\n      jump\t// in\n    tag_148:\n        /* \"#utility.yul\":3652:3783   */\n    tag_147:\n        /* \"#utility.yul\":3811:3812   */\n      dup3\n        /* \"#utility.yul\":3808:3809   */\n      dup3\n        /* \"#utility.yul\":3804:3813   */\n      mul\n        /* \"#utility.yul\":3793:3813   */\n      swap1\n      pop\n        /* \"#utility.yul\":3471:3819   */\n      swap3\n      swap2\n      pop\n      pop\n      jump\t// out\n        /* \"#utility.yul\":3825:3921   */\n    tag_118:\n        /* \"#utility.yul\":3862:3869   */\n      0x00\n        /* \"#utility.yul\":3891:3915   */\n      tag_150\n        /* \"#utility.yul\":3909:3914   */\n      dup3\n        /* \"#utility.yul\":3891:3915   */\n      tag_151\n      jump\t// in\n    tag_150:\n        /* \"#utility.yul\":3880:3915   */\n      swap1\n      pop\n        /* \"#utility.yul\":3825:3921   */\n      swap2\n      swap1\n      pop\n      jump\t// out\n        /* \"#utility.yul\":3927:4017   */\n    tag_122:\n        /* \"#utility.yul\":3961:3968   */\n      0x00\n        /* \"#utility.yul\":4004:4009   */\n      dup2\n        /* \"#utility.yul\":3997:4010   */\n      iszero\n        /* \"#utility.yul\":3990:4011   */\n      iszero\n        /* \"#utility.yul\":3979:4011   */\n      swap1\n      pop\n        /* \"#utility.yul\":3927:4017   */\n      swap2\n      swap1\n      pop\n      jump\t// out\n        /* \"#utility.yul\":4023:4149   */\n    tag_151:\n        /* \"#utility.yul\":4060:4067   */\n      0x00\n        /* \"#utility.yul\":4100:4142   */\n      0xffffffffffffffffffffffffffffffffffffffff\n        /* \"#utility.yul\":4093:4098   */\n      dup3\n        /* \"#utility.yul\":4089:4143   */\n      and\n        /* \"#utility.yul\":4078:4143   */\n      swap1\n      pop\n        /* \"#utility.yul\":4023:4149   */\n      swap2\n      swap1\n      pop\n      jump\t// out\n        /* \"#utility.yul\":4155:4232   */\n    tag_126:\n        /* \"#utility.yul\":4192:4199   */\n      0x00\n        /* \"#utility.yul\":4221:4226   */\n      dup2\n        /* \"#utility.yul\":4210:4226   */\n      swap1\n      pop\n        /* \"#utility.yul\":4155:4232   */\n      swap2\n      swap1\n      pop\n      jump\t// out\n        /* \"#utility.yul\":4238:4471   */\n    tag_75:\n        /* \"#utility.yul\":4277:4280   */\n      0x00\n        /* \"#utility.yul\":4300:4324   */\n      tag_156\n        /* \"#utility.yul\":4318:4323   */\n      dup3\n        /* \"#utility.yul\":4300:4324   */\n      tag_126\n      jump\t// in\n    tag_156:\n        /* \"#utility.yul\":4291:4324   */\n      swap2\n      pop\n        /* \"#utility.yul\":4346:4412   */\n      0xffffffffffffffffffffffffffffffffffffffffffffffffffffffffffffffff\n        /* \"#utility.yul\":4339:4344   */\n      dup3\n        /* \"#utility.yul\":4336:4413   */\n      eq\n        /* \"#utility.yul\":4333:4436   */\n      iszero\n      tag_157\n      jumpi\n        /* \"#utility.yul\":4416:4434   */\n      tag_158\n      tag_143\n      jump\t// in\n    tag_158:\n        /* \"#utility.yul\":4333:4436   */\n    tag_157:\n        /* \"#utility.yul\":4463:4464   */\n      0x01\n        /* \"#utility.yul\":4456:4461   */\n      dup3\n        /* \"#utility.yul\":4452:4465   */\n      add\n        /* \"#utility.yul\":4445:4465   */\n      swap1\n      pop\n        /* \"#utility.yul\":4238:4471   */\n      swap2\n      swap1\n      pop\n      jump\t// out\n        /* \"#utility.yul\":4477:4657   */\n    tag_143:\n        /* \"#utility.yul\":4525:4602   */\n      0x4e487b7100000000000000000000000000000000000000000000000000000000\n        /* \"#utility.yul\":4522:4523   */\n      0x00\n        /* \"#utility.yul\":4515:4603   */\n      mstore\n        /* \"#utility.yul\":4622:4626   */\n      0x11\n        /* \"#utility.yul\":4619:4620   */\n      0x04\n        /* \"#utility.yul\":4612:4627   */\n      mstore\n        /* \"#utility.yul\":4646:4650   */\n      0x24\n        /* \"#utility.yul\":4643:4644   */\n      0x00\n        /* \"#utility.yul\":4636:4651   */\n      revert\n        /* \"#utility.yul\":4663:4843   */\n    tag_84:\n        /* \"#utility.yul\":4711:4788   */\n      0x4e487b7100000000000000000000000000000000000000000000000000000000\n        /* \"#utility.yul\":4708:4709   */\n      0x00\n        /* \"#utility.yul\":4701:4789   */\n      mstore\n        /* \"#utility.yul\":4808:4812   */\n      0x32\n        /* \"#utility.yul\":4805:4806   */\n      0x04\n        /* \"#utility.yul\":4798:4813   */\n      mstore\n        /* \"#utility.yul\":4832:4836   */\n      0x24\n        /* \"#utility.yul\":4829:4830   */\n      0x00\n        /* \"#utility.yul\":4822:4837   */\n      revert\n        /* \"#utility.yul\":4972:5089   */\n    tag_102:\n        /* \"#utility.yul\":5081:5082   */\n      0x00\n        /* \"#utility.yul\":5078:5079   */\n      dup1\n        /* \"#utility.yul\":5071:5083   */\n      revert\n        /* \"#utility.yul\":5095:5211   */\n    tag_94:\n        /* \"#utility.yul\":5165:5186   */\n      tag_165\n        /* \"#utility.yul\":5180:5185   */\n      dup2\n        /* \"#utility.yul\":5165:5186   */\n      tag_122\n      jump\t// in\n    tag_165:\n        /* \"#utility.yul\":5158:5163   */\n      dup2\n        /* \"#utility.yul\":5155:5187   */\n      eq\n        /* \"#utility.yul\":5145:5205   */\n      tag_166\n      jumpi\n        /* \"#utility.yul\":5201:5202   */\n      0x00\n        /* \"#utility.yul\":5198:5199   */\n      dup1\n        /* \"#utility.yul\":5191:5203   */\n      revert\n        /* \"#utility.yul\":5145:5205   */\n    tag_166:\n        /* \"#utility.yul\":5095:5211   */\n      pop\n      jump\t// out\n        /* \"#utility.yul\":5217:5339   */\n    tag_98:\n        /* \"#utility.yul\":5290:5314   */\n      tag_168\n        /* \"#utility.yul\":5308:5313   */\n      dup2\n        /* \"#utility.yul\":5290:5314   */\n      tag_126\n      jump\t// in\n    tag_168:\n        /* \"#utility.yul\":5283:5288   */\n      dup2\n        /* \"#utility.yul\":5280:5315   */\n      eq\n        /* \"#utility.yul\":5270:5333   */\n      tag_169\n      jumpi\n        /* \"#utility.yul\":5329:5330   */\n      0x00\n        /* \"#utility.yul\":5326:5327   */\n      dup1\n        /* \"#utility.yul\":5319:5331   */\n      revert\n        /* \"#utility.yul\":5270:5333   */\n    tag_169:\n        /* \"#utility.yul\":5217:5339   */\n      pop\n      jump\t// out\n\n    auxdata: 0xa2646970667358221220de3e468badda11579cbde7b40a1f62f161ff16892b1a0407200ddc1960067b0f64736f6c63430008070033\n}\n",
				"bytecode": {
					"linkReferences": {},
					"object": "6080604052600760005560086001556009600255600167ffffffffffffffff81111561002e5761002d6100ef565b5b60405190808252806020026020018201604052801561005c5781602001602082028036833780820191505090505b5060049080519060200190610072929190610085565b5034801561007f57600080fd5b5061011e565b8280548282559060005260206000209081019282156100c1579160200282015b828111156100c05782518255916020019190600101906100a5565b5b5090506100ce91906100d2565b5090565b5b808211156100eb5760008160009055506001016100d3565b5090565b7f4e487b7100000000000000000000000000000000000000000000000000000000600052604160045260246000fd5b6108218061012d6000396000f3fe608060405234801561001057600080fd5b50600436106100a95760003560e01c8063418ba5d111610071578063418ba5d11461017a5780635ccea9a5146101965780637706c9e6146101b4578063edc9af95146101d0578063ef47db83146101da578063f072df06146101f6576100a9565b806302d91518146100ae57806306f70295146100cc5780631f049b68146100fc57806329e99f071461011a578063305ccc281461014a575b600080fd5b6100b6610229565b6040516100c391906105fe565b60405180910390f35b6100e660048036038101906100e191906104b1565b61022f565b6040516100f391906105e3565b60405180910390f35b61010461024f565b60405161011191906105fe565b60405180910390f35b610134600480360381019061012f91906104b1565b610255565b60405161014191906105fe565b60405180910390f35b610164600480360381019061015f919061051e565b610279565b60405161017191906105fe565b60405180910390f35b610194600480360381019061018f91906104b1565b6102a4565b005b61019e6102f9565b6040516101ab91906105fe565b60405180910390f35b6101ce60048036038101906101c991906104b1565b6102ff565b005b6101d8610366565b005b6101f460048036038101906101ef91906104b1565b6103a8565b005b610210600480360381019061020b91906104de565b61041d565b604051610220949392919061059e565b60405180910390f35b60005481565b60036020528060005260406000206000915054906101000a900460ff1681565b60015481565b6004818154811061026557600080fd5b906000526020600020016000915090505481565b6000828410610288578261028a565b835b9350818410610299578161029b565b835b90509392505050565b806000808282546102b5919061066f565b9250508190555080600160008282546102ce919061066f565b9250508190555080600260008282546102e7919061066f565b925050819055506102f6610366565b50565b60025481565b60005b81811015610362576001600560008381526020019081526020016000206000600115151515815260200190815260200160002060000160146101000a81548160ff021916908315150217905550808061035a90610711565b915050610302565b5050565b610377600054600154600254610279565b600081905550600160005461038c9190610619565b600181905550600180546103a09190610619565b600281905550565b8060046000815481106103be576103bd610789565b5b906000526020600020018190555060046002908060018154018082558091505060019003906000526020600020016000909190919091505580600460018154811061040c5761040b610789565b5b906000526020600020018190555050565b6005602052816000526040600020602052806000526040600020600091509150508060000160009054906101000a900473ffffffffffffffffffffffffffffffffffffffff16908060000160149054906101000a900460ff16908060010154908060020154905084565b600081359050610496816107bd565b92915050565b6000813590506104ab816107d4565b92915050565b6000602082840312156104c7576104c66107b8565b5b60006104d58482850161049c565b91505092915050565b600080604083850312156104f5576104f46107b8565b5b60006105038582860161049c565b925050602061051485828601610487565b9150509250929050565b600080600060608486031215610537576105366107b8565b5b60006105458682870161049c565b93505060206105568682870161049c565b92505060406105678682870161049c565b9150509250925092565b61057a816106c9565b82525050565b610589816106db565b82525050565b61059881610707565b82525050565b60006080820190506105b36000830187610571565b6105c06020830186610580565b6105cd604083018561058f565b6105da606083018461058f565b95945050505050565b60006020820190506105f86000830184610580565b92915050565b6000602082019050610613600083018461058f565b92915050565b600061062482610707565b915061062f83610707565b9250827fffffffffffffffffffffffffffffffffffffffffffffffffffffffffffffffff038211156106645761066361075a565b5b828201905092915050565b600061067a82610707565b915061068583610707565b9250817fffffffffffffffffffffffffffffffffffffffffffffffffffffffffffffffff04831182151516156106be576106bd61075a565b5b828202905092915050565b60006106d4826106e7565b9050919050565b60008115159050919050565b600073ffffffffffffffffffffffffffffffffffffffff82169050919050565b6000819050919050565b600061071c82610707565b91507fffffffffffffffffffffffffffffffffffffffffffffffffffffffffffffffff82141561074f5761074e61075a565b5b600182019050919050565b7f4e487b7100000000000000000000000000000000000000000000000000000000600052601160045260246000fd5b7f4e487b7100000000000000000000000000000000000000000000000000000000600052603260045260246000fd5b600080fd5b6107c6816106db565b81146107d157600080fd5b50565b6107dd81610707565b81146107e857600080fd5b5056fea2646970667358221220de3e468badda11579cbde7b40a1f62f161ff16892b1a0407200ddc1960067b0f64736f6c63430008070033",
					"opcodes": "PUSH1 0x80 PUSH1 0x40 MSTORE PUSH1 0x7 PUSH1 0x0 SSTORE PUSH1 0x8 PUSH1 0x1 SSTORE PUSH1 0x9 PUSH1 0x2 SSTORE PUSH1 0x1 PUSH8 0xFFFFFFFFFFFFFFFF DUP2 GT ISZERO PUSH2 0x2E JUMPI PUSH2 0x2D PUSH2 0xEF JUMP JUMPDEST JUMPDEST PUSH1 0x40 MLOAD SWAP1 DUP1 DUP3 MSTORE DUP1 PUSH1 0x20 MUL PUSH1 0x20 ADD DUP3 ADD PUSH1 0x40 MSTORE DUP1 ISZERO PUSH2 0x5C JUMPI DUP2 PUSH1 0x20 ADD PUSH1 0x20 DUP3 MUL DUP1 CALLDATASIZE DUP4 CALLDATACOPY DUP1 DUP3 ADD SWAP2 POP POP SWAP1 POP JUMPDEST POP PUSH1 0x4 SWAP1 DUP1 MLOAD SWAP1 PUSH1 0x20 ADD SWAP1 PUSH2 0x72 SWAP3 SWAP2 SWAP1 PUSH2 0x85 JUMP JUMPDEST POP CALLVALUE DUP1 ISZERO PUSH2 0x7F JUMPI PUSH1 0x0 DUP1 REVERT JUMPDEST POP PUSH2 0x11E JUMP JUMPDEST DUP3 DUP1 SLOAD DUP3 DUP3 SSTORE SWAP1 PUSH1 0x0 MSTORE PUSH1 0x20 PUSH1 0x0 KECCAK256 SWAP1 DUP2 ADD SWAP3 DUP3 ISZERO PUSH2 0xC1 JUMPI SWAP2 PUSH1 0x20 MUL DUP3 ADD JUMPDEST DUP3 DUP2 GT ISZERO PUSH2 0xC0 JUMPI DUP3 MLOAD DUP3 SSTORE SWAP2 PUSH1 0x20 ADD SWAP2 SWAP1 PUSH1 0x1 ADD SWAP1 PUSH2 0xA5 JUMP JUMPDEST JUMPDEST POP SWAP1 POP PUSH2 0xCE SWAP2 SWAP1 PUSH2 0xD2 JUMP JUMPDEST POP SWAP1 JUMP JUMPDEST JUMPDEST DUP1 DUP3 GT ISZERO PUSH2 0xEB JUMPI PUSH1 0x0 DUP2 PUSH1 0x0 SWAP1 SSTORE POP PUSH1 0x1 ADD PUSH2 0xD3 JUMP JUMPDEST POP SWAP1 JUMP JUMPDEST PUSH32 0x4E487B7100000000000000000000000000000000000000000000000000000000 PUSH1 0x0 MSTORE PUSH1 0x41 PUSH1 0x4 MSTORE PUSH1 0x24 PUSH1 0x0 REVERT JUMPDEST PUSH2 0x821 DUP1 PUSH2 0x12D PUSH1 0x0 CODECOPY PUSH1 0x0 RETURN INVALID PUSH1 0x80 PUSH1 0x40 MSTORE CALLVALUE DUP1 ISZERO PUSH2 0x10 JUMPI PUSH1 0x0 DUP1 REVERT JUMPDEST POP PUSH1 0x4 CALLDATASIZE LT PUSH2 0xA9 JUMPI PUSH1 0x0 CALLDATALOAD PUSH1 0xE0 SHR DUP1 PUSH4 0x418BA5D1 GT PUSH2 0x71 JUMPI DUP1 PUSH4 0x418BA5D1 EQ PUSH2 0x17A JUMPI DUP1 PUSH4 0x5CCEA9A5 EQ PUSH2 0x196 JUMPI DUP1 PUSH4 0x7706C9E6 EQ PUSH2 0x1B4 JUMPI DUP1 PUSH4 0xEDC9AF95 EQ PUSH2 0x1D0 JUMPI DUP1 PUSH4 0xEF47DB83 EQ PUSH2 0x1DA JUMPI DUP1 PUSH4 0xF072DF06 EQ PUSH2 0x1F6 JUMPI PUSH2 0xA9 JUMP JUMPDEST DUP1 PUSH4 0x2D91518 EQ PUSH2 0xAE JUMPI DUP1 PUSH4 0x6F70295 EQ PUSH2 0xCC JUMPI DUP1 PUSH4 0x1F049B68 EQ PUSH2 0xFC JUMPI DUP1 PUSH4 0x29E99F07 EQ PUSH2 0x11A JUMPI DUP1 PUSH4 0x305CCC28 EQ PUSH2 0x14A JUMPI JUMPDEST PUSH1 0x0 DUP1 REVERT JUMPDEST PUSH2 0xB6 PUSH2 0x229 JUMP JUMPDEST PUSH1 0x40 MLOAD PUSH2 0xC3 SWAP2 SWAP1 PUSH2 0x5FE JUMP JUMPDEST PUSH1 0x40 MLOAD DUP1 SWAP2 SUB SWAP1 RETURN JUMPDEST PUSH2 0xE6 PUSH1 0x4 DUP1 CALLDATASIZE SUB DUP2 ADD SWAP1 PUSH2 0xE1 SWAP2 SWAP1 PUSH2 0x4B1 JUMP JUMPDEST PUSH2 0x22F JUMP JUMPDEST PUSH1 0x40 MLOAD PUSH2 0xF3 SWAP2 SWAP1 PUSH2 0x5E3 JUMP JUMPDEST PUSH1 0x40 MLOAD DUP1 SWAP2 SUB SWAP1 RETURN JUMPDEST PUSH2 0x104 PUSH2 0x24F JUMP JUMPDEST PUSH1 0x40 MLOAD PUSH2 0x111 SWAP2 SWAP1 PUSH2 0x5FE JUMP JUMPDEST PUSH1 0x40 MLOAD DUP1 SWAP2 SUB SWAP1 RETURN JUMPDEST PUSH2 0x134 PUSH1 0x4 DUP1 CALLDATASIZE SUB DUP2 ADD SWAP1 PUSH2 0x12F SWAP2 SWAP1 PUSH2 0x4B1 JUMP JUMPDEST PUSH2 0x255 JUMP JUMPDEST PUSH1 0x40 MLOAD PUSH2 0x141 SWAP2 SWAP1 PUSH2 0x5FE JUMP JUMPDEST PUSH1 0x40 MLOAD DUP1 SWAP2 SUB SWAP1 RETURN JUMPDEST PUSH2 0x164 PUSH1 0x4 DUP1 CALLDATASIZE SUB DUP2 ADD SWAP1 PUSH2 0x15F SWAP2 SWAP1 PUSH2 0x51E JUMP JUMPDEST PUSH2 0x279 JUMP JUMPDEST PUSH1 0x40 MLOAD PUSH2 0x171 SWAP2 SWAP1 PUSH2 0x5FE JUMP JUMPDEST PUSH1 0x40 MLOAD DUP1 SWAP2 SUB SWAP1 RETURN JUMPDEST PUSH2 0x194 PUSH1 0x4 DUP1 CALLDATASIZE SUB DUP2 ADD SWAP1 PUSH2 0x18F SWAP2 SWAP1 PUSH2 0x4B1 JUMP JUMPDEST PUSH2 0x2A4 JUMP JUMPDEST STOP JUMPDEST PUSH2 0x19E PUSH2 0x2F9 JUMP JUMPDEST PUSH1 0x40 MLOAD PUSH2 0x1AB SWAP2 SWAP1 PUSH2 0x5FE JUMP JUMPDEST PUSH1 0x40 MLOAD DUP1 SWAP2 SUB SWAP1 RETURN JUMPDEST PUSH2 0x1CE PUSH1 0x4 DUP1 CALLDATASIZE SUB DUP2 ADD SWAP1 PUSH2 0x1C9 SWAP2 SWAP1 PUSH2 0x4B1 JUMP JUMPDEST PUSH2 0x2FF JUMP JUMPDEST STOP JUMPDEST PUSH2 0x1D8 PUSH2 0x366 JUMP JUMPDEST STOP JUMPDEST PUSH2 0x1F4 PUSH1 0x4 DUP1 CALLDATASIZE SUB DUP2 ADD SWAP1 PUSH2 0x1EF SWAP2 SWAP1 PUSH2 0x4B1 JUMP JUMPDEST PUSH2 0x3A8 JUMP JUMPDEST STOP JUMPDEST PUSH2 0x210 PUSH1 0x4 DUP1 CALLDATASIZE SUB DUP2 ADD SWAP1 PUSH2 0x20B SWAP2 SWAP1 PUSH2 0x4DE JUMP JUMPDEST PUSH2 0x41D JUMP JUMPDEST PUSH1 0x40 MLOAD PUSH2 0x220 SWAP5 SWAP4 SWAP3 SWAP2 SWAP1 PUSH2 0x59E JUMP JUMPDEST PUSH1 0x40 MLOAD DUP1 SWAP2 SUB SWAP1 RETURN JUMPDEST PUSH1 0x0 SLOAD DUP2 JUMP JUMPDEST PUSH1 0x3 PUSH1 0x20 MSTORE DUP1 PUSH1 0x0 MSTORE PUSH1 0x40 PUSH1 0x0 KECCAK256 PUSH1 0x0 SWAP2 POP SLOAD SWAP1 PUSH2 0x100 EXP SWAP1 DIV PUSH1 0xFF AND DUP2 JUMP JUMPDEST PUSH1 0x1 SLOAD DUP2 JUMP JUMPDEST PUSH1 0x4 DUP2 DUP2 SLOAD DUP2 LT PUSH2 0x265 JUMPI PUSH1 0x0 DUP1 REVERT JUMPDEST SWAP1 PUSH1 0x0 MSTORE PUSH1 0x20 PUSH1 0x0 KECCAK256 ADD PUSH1 0x0 SWAP2 POP SWAP1 POP SLOAD DUP2 JUMP JUMPDEST PUSH1 0x0 DUP3 DUP5 LT PUSH2 0x288 JUMPI DUP3 PUSH2 0x28A JUMP JUMPDEST DUP4 JUMPDEST SWAP4 POP DUP2 DUP5 LT PUSH2 0x299 JUMPI DUP2 PUSH2 0x29B JUMP JUMPDEST DUP4 JUMPDEST SWAP1 POP SWAP4 SWAP3 POP POP POP JUMP JUMPDEST DUP1 PUSH1 0x0 DUP1 DUP3 DUP3 SLOAD PUSH2 0x2B5 SWAP2 SWAP1 PUSH2 0x66F JUMP JUMPDEST SWAP3 POP POP DUP2 SWAP1 SSTORE POP DUP1 PUSH1 0x1 PUSH1 0x0 DUP3 DUP3 SLOAD PUSH2 0x2CE SWAP2 SWAP1 PUSH2 0x66F JUMP JUMPDEST SWAP3 POP POP DUP2 SWAP1 SSTORE POP DUP1 PUSH1 0x2 PUSH1 0x0 DUP3 DUP3 SLOAD PUSH2 0x2E7 SWAP2 SWAP1 PUSH2 0x66F JUMP JUMPDEST SWAP3 POP POP DUP2 SWAP1 SSTORE POP PUSH2 0x2F6 PUSH2 0x366 JUMP JUMPDEST POP JUMP JUMPDEST PUSH1 0x2 SLOAD DUP2 JUMP JUMPDEST PUSH1 0x0 JUMPDEST DUP2 DUP2 LT ISZERO PUSH2 0x362 JUMPI PUSH1 0x1 PUSH1 0x5 PUSH1 0x0 DUP4 DUP2 MSTORE PUSH1 0x20 ADD SWAP1 DUP2 MSTORE PUSH1 0x20 ADD PUSH1 0x0 KECCAK256 PUSH1 0x0 PUSH1 0x1 ISZERO ISZERO ISZERO ISZERO DUP2 MSTORE PUSH1 0x20 ADD SWAP1 DUP2 MSTORE PUSH1 0x20 ADD PUSH1 0x0 KECCAK256 PUSH1 0x0 ADD PUSH1 0x14 PUSH2 0x100 EXP DUP2 SLOAD DUP2 PUSH1 0xFF MUL NOT AND SWAP1 DUP4 ISZERO ISZERO MUL OR SWAP1 SSTORE POP DUP1 DUP1 PUSH2 0x35A SWAP1 PUSH2 0x711 JUMP JUMPDEST SWAP2 POP POP PUSH2 0x302 JUMP JUMPDEST POP POP JUMP JUMPDEST PUSH2 0x377 PUSH1 0x0 SLOAD PUSH1 0x1 SLOAD PUSH1 0x2 SLOAD PUSH2 0x279 JUMP JUMPDEST PUSH1 0x0 DUP2 SWAP1 SSTORE POP PUSH1 0x1 PUSH1 0x0 SLOAD PUSH2 0x38C SWAP2 SWAP1 PUSH2 0x619 JUMP JUMPDEST PUSH1 0x1 DUP2 SWAP1 SSTORE POP PUSH1 0x1 DUP1 SLOAD PUSH2 0x3A0 SWAP2 SWAP1 PUSH2 0x619 JUMP JUMPDEST PUSH1 0x2 DUP2 SWAP1 SSTORE POP JUMP JUMPDEST DUP1 PUSH1 0x4 PUSH1 0x0 DUP2 SLOAD DUP2 LT PUSH2 0x3BE JUMPI PUSH2 0x3BD PUSH2 0x789 JUMP JUMPDEST JUMPDEST SWAP1 PUSH1 0x0 MSTORE PUSH1 0x20 PUSH1 0x0 KECCAK256 ADD DUP2 SWAP1 SSTORE POP PUSH1 0x4 PUSH1 0x2 SWAP1 DUP1 PUSH1 0x1 DUP2 SLOAD ADD DUP1 DUP3 SSTORE DUP1 SWAP2 POP POP PUSH1 0x1 SWAP1 SUB SWAP1 PUSH1 0x0 MSTORE PUSH1 0x20 PUSH1 0x0 KECCAK256 ADD PUSH1 0x0 SWAP1 SWAP2 SWAP1 SWAP2 SWAP1 SWAP2 POP SSTORE DUP1 PUSH1 0x4 PUSH1 0x1 DUP2 SLOAD DUP2 LT PUSH2 0x40C JUMPI PUSH2 0x40B PUSH2 0x789 JUMP JUMPDEST JUMPDEST SWAP1 PUSH1 0x0 MSTORE PUSH1 0x20 PUSH1 0x0 KECCAK256 ADD DUP2 SWAP1 SSTORE POP POP JUMP JUMPDEST PUSH1 0x5 PUSH1 0x20 MSTORE DUP2 PUSH1 0x0 MSTORE PUSH1 0x40 PUSH1 0x0 KECCAK256 PUSH1 0x20 MSTORE DUP1 PUSH1 0x0 MSTORE PUSH1 0x40 PUSH1 0x0 KECCAK256 PUSH1 0x0 SWAP2 POP SWAP2 POP POP DUP1 PUSH1 0x0 ADD PUSH1 0x0 SWAP1 SLOAD SWAP1 PUSH2 0x100 EXP SWAP1 DIV PUSH20 0xFFFFFFFFFFFFFFFFFFFFFFFFFFFFFFFFFFFFFFFF AND SWAP1 DUP1 PUSH1 0x0 ADD PUSH1 0x14 SWAP1 SLOAD SWAP1 PUSH2 0x100 EXP SWAP1 DIV PUSH1 0xFF AND SWAP1 DUP1 PUSH1 0x1 ADD SLOAD SWAP1 DUP1 PUSH1 0x2 ADD SLOAD SWAP1 POP DUP5 JUMP JUMPDEST PUSH1 0x0 DUP2 CALLDATALOAD SWAP1 POP PUSH2 0x496 DUP2 PUSH2 0x7BD JUMP JUMPDEST SWAP3 SWAP2 POP POP JUMP JUMPDEST PUSH1 0x0 DUP2 CALLDATALOAD SWAP1 POP PUSH2 0x4AB DUP2 PUSH2 0x7D4 JUMP JUMPDEST SWAP3 SWAP2 POP POP JUMP JUMPDEST PUSH1 0x0 PUSH1 0x20 DUP3 DUP5 SUB SLT ISZERO PUSH2 0x4C7 JUMPI PUSH2 0x4C6 PUSH2 0x7B8 JUMP JUMPDEST JUMPDEST PUSH1 0x0 PUSH2 0x4D5 DUP5 DUP3 DUP6 ADD PUSH2 0x49C JUMP JUMPDEST SWAP2 POP POP SWAP3 SWAP2 POP POP JUMP JUMPDEST PUSH1 0x0 DUP1 PUSH1 0x40 DUP4 DUP6 SUB SLT ISZERO PUSH2 0x4F5 JUMPI PUSH2 0x4F4 PUSH2 0x7B8 JUMP JUMPDEST JUMPDEST PUSH1 0x0 PUSH2 0x503 DUP6 DUP3 DUP7 ADD PUSH2 0x49C JUMP JUMPDEST SWAP3 POP POP PUSH1 0x20 PUSH2 0x514 DUP6 DUP3 DUP7 ADD PUSH2 0x487 JUMP JUMPDEST SWAP2 POP POP SWAP3 POP SWAP3 SWAP1 POP JUMP JUMPDEST PUSH1 0x0 DUP1 PUSH1 0x0 PUSH1 0x60 DUP5 DUP7 SUB SLT ISZERO PUSH2 0x537 JUMPI PUSH2 0x536 PUSH2 0x7B8 JUMP JUMPDEST JUMPDEST PUSH1 0x0 PUSH2 0x545 DUP7 DUP3 DUP8 ADD PUSH2 0x49C JUMP JUMPDEST SWAP4 POP POP PUSH1 0x20 PUSH2 0x556 DUP7 DUP3 DUP8 ADD PUSH2 0x49C JUMP JUMPDEST SWAP3 POP POP PUSH1 0x40 PUSH2 0x567 DUP7 DUP3 DUP8 ADD PUSH2 0x49C JUMP JUMPDEST SWAP2 POP POP SWAP3 POP SWAP3 POP SWAP3 JUMP JUMPDEST PUSH2 0x57A DUP2 PUSH2 0x6C9 JUMP JUMPDEST DUP3 MSTORE POP POP JUMP JUMPDEST PUSH2 0x589 DUP2 PUSH2 0x6DB JUMP JUMPDEST DUP3 MSTORE POP POP JUMP JUMPDEST PUSH2 0x598 DUP2 PUSH2 0x707 JUMP JUMPDEST DUP3 MSTORE POP POP JUMP JUMPDEST PUSH1 0x0 PUSH1 0x80 DUP3 ADD SWAP1 POP PUSH2 0x5B3 PUSH1 0x0 DUP4 ADD DUP8 PUSH2 0x571 JUMP JUMPDEST PUSH2 0x5C0 PUSH1 0x20 DUP4 ADD DUP7 PUSH2 0x580 JUMP JUMPDEST PUSH2 0x5CD PUSH1 0x40 DUP4 ADD DUP6 PUSH2 0x58F JUMP JUMPDEST PUSH2 0x5DA PUSH1 0x60 DUP4 ADD DUP5 PUSH2 0x58F JUMP JUMPDEST SWAP6 SWAP5 POP POP POP POP POP JUMP JUMPDEST PUSH1 0x0 PUSH1 0x20 DUP3 ADD SWAP1 POP PUSH2 0x5F8 PUSH1 0x0 DUP4 ADD DUP5 PUSH2 0x580 JUMP JUMPDEST SWAP3 SWAP2 POP POP JUMP JUMPDEST PUSH1 0x0 PUSH1 0x20 DUP3 ADD SWAP1 POP PUSH2 0x613 PUSH1 0x0 DUP4 ADD DUP5 PUSH2 0x58F JUMP JUMPDEST SWAP3 SWAP2 POP POP JUMP JUMPDEST PUSH1 0x0 PUSH2 0x624 DUP3 PUSH2 0x707 JUMP JUMPDEST SWAP2 POP PUSH2 0x62F DUP4 PUSH2 0x707 JUMP JUMPDEST SWAP3 POP DUP3 PUSH32 0xFFFFFFFFFFFFFFFFFFFFFFFFFFFFFFFFFFFFFFFFFFFFFFFFFFFFFFFFFFFFFFFF SUB DUP3 GT ISZERO PUSH2 0x664 JUMPI PUSH2 0x663 PUSH2 0x75A JUMP JUMPDEST JUMPDEST DUP3 DUP3 ADD SWAP1 POP SWAP3 SWAP2 POP POP JUMP JUMPDEST PUSH1 0x0 PUSH2 0x67A DUP3 PUSH2 0x707 JUMP JUMPDEST SWAP2 POP PUSH2 0x685 DUP4 PUSH2 0x707 JUMP JUMPDEST SWAP3 POP DUP2 PUSH32 0xFFFFFFFFFFFFFFFFFFFFFFFFFFFFFFFFFFFFFFFFFFFFFFFFFFFFFFFFFFFFFFFF DIV DUP4 GT DUP3 ISZERO ISZERO AND ISZERO PUSH2 0x6BE JUMPI PUSH2 0x6BD PUSH2 0x75A JUMP JUMPDEST JUMPDEST DUP3 DUP3 MUL SWAP1 POP SWAP3 SWAP2 POP POP JUMP JUMPDEST PUSH1 0x0 PUSH2 0x6D4 DUP3 PUSH2 0x6E7 JUMP JUMPDEST SWAP1 POP SWAP2 SWAP1 POP JUMP JUMPDEST PUSH1 0x0 DUP2 ISZERO ISZERO SWAP1 POP SWAP2 SWAP1 POP JUMP JUMPDEST PUSH1 0x0 PUSH20 0xFFFFFFFFFFFFFFFFFFFFFFFFFFFFFFFFFFFFFFFF DUP3 AND SWAP1 POP SWAP2 SWAP1 POP JUMP JUMPDEST PUSH1 0x0 DUP2 SWAP1 POP SWAP2 SWAP1 POP JUMP JUMPDEST PUSH1 0x0 PUSH2 0x71C DUP3 PUSH2 0x707 JUMP JUMPDEST SWAP2 POP PUSH32 0xFFFFFFFFFFFFFFFFFFFFFFFFFFFFFFFFFFFFFFFFFFFFFFFFFFFFFFFFFFFFFFFF DUP3 EQ ISZERO PUSH2 0x74F JUMPI PUSH2 0x74E PUSH2 0x75A JUMP JUMPDEST JUMPDEST PUSH1 0x1 DUP3 ADD SWAP1 POP SWAP2 SWAP1 POP JUMP JUMPDEST PUSH32 0x4E487B7100000000000000000000000000000000000000000000000000000000 PUSH1 0x0 MSTORE PUSH1 0x11 PUSH1 0x4 MSTORE PUSH1 0x24 PUSH1 0x0 REVERT JUMPDEST PUSH32 0x4E487B7100000000000000000000000000000000000000000000000000000000 PUSH1 0x0 MSTORE PUSH1 0x32 PUSH1 0x4 MSTORE PUSH1 0x24 PUSH1 0x0 REVERT JUMPDEST PUSH1 0x0 DUP1 REVERT JUMPDEST PUSH2 0x7C6 DUP2 PUSH2 0x6DB JUMP JUMPDEST DUP2 EQ PUSH2 0x7D1 JUMPI PUSH1 0x0 DUP1 REVERT JUMPDEST POP JUMP JUMPDEST PUSH2 0x7DD DUP2 PUSH2 0x707 JUMP JUMPDEST DUP2 EQ PUSH2 0x7E8 JUMPI PUSH1 0x0 DUP1 REVERT JUMPDEST POP JUMP INVALID LOG2 PUSH5 0x6970667358 0x22 SLT KECCAK256 0xDE RETURNDATACOPY CHAINID DUP12 0xAD 0xDA GT JUMPI SWAP13 0xBD 0xE7 0xB4 EXP 0x1F PUSH3 0xF161FF AND DUP10 0x2B BYTE DIV SMOD KECCAK256 0xD 0xDC NOT PUSH1 0x6 PUSH28 0xF64736F6C6343000807003300000000000000000000000000000000 "
				},
				"gasEstimates": {
					"creation": {
						"codeDepositCost": "416200",
						"executionCost": "infinite",
						"totalCost": "infinite"
					},
					"external": {
						"SetAnswer(uint256)": "infinite",
						"SetParam(uint256)": "infinite",
						"SetTest(uint256)": "95505",
						"answer(uint256)": "2819",
						"debt_index(uint256,bool)": "infinite",
						"min3(uint256,uint256,uint256)": "infinite",
						"param1()": "2430",
						"param2()": "2474",
						"param3()": "2451",
						"test(uint256)": "infinite",
						"uni()": "infinite"
					}
				},
				"methodIdentifiers": {
					"SetAnswer(uint256)": "7706c9e6",
					"SetParam(uint256)": "418ba5d1",
					"SetTest(uint256)": "ef47db83",
					"answer(uint256)": "06f70295",
					"debt_index(uint256,bool)": "f072df06",
					"min3(uint256,uint256,uint256)": "305ccc28",
					"param1()": "02d91518",
					"param2()": "1f049b68",
					"param3()": "5ccea9a5",
					"test(uint256)": "29e99f07",
					"uni()": "edc9af95"
				}
			},
			"storageLayout": {
				"storage": [
					{
						"astId": 4,
						"contract": "Test/contract A.sol:A",
						"label": "param1",
						"offset": 0,
						"slot": "0",
						"type": "t_uint256"
					},
					{
						"astId": 7,
						"contract": "Test/contract A.sol:A",
						"label": "param2",
						"offset": 0,
						"slot": "1",
						"type": "t_uint256"
					},
					{
						"astId": 10,
						"contract": "Test/contract A.sol:A",
						"label": "param3",
						"offset": 0,
						"slot": "2",
						"type": "t_uint256"
					},
					{
						"astId": 14,
						"contract": "Test/contract A.sol:A",
						"label": "answer",
						"offset": 0,
						"slot": "3",
						"type": "t_mapping(t_uint256,t_bool)"
					},
					{
						"astId": 22,
						"contract": "Test/contract A.sol:A",
						"label": "test",
						"offset": 0,
						"slot": "4",
						"type": "t_array(t_uint256)dyn_storage"
					},
					{
						"astId": 38,
						"contract": "Test/contract A.sol:A",
						"label": "debt_index",
						"offset": 0,
						"slot": "5",
						"type": "t_mapping(t_uint256,t_mapping(t_bool,t_struct(debtbook)31_storage))"
					}
				],
				"types": {
					"t_address": {
						"encoding": "inplace",
						"label": "address",
						"numberOfBytes": "20"
					},
					"t_array(t_uint256)dyn_storage": {
						"base": "t_uint256",
						"encoding": "dynamic_array",
						"label": "uint256[]",
						"numberOfBytes": "32"
					},
					"t_bool": {
						"encoding": "inplace",
						"label": "bool",
						"numberOfBytes": "1"
					},
					"t_mapping(t_bool,t_struct(debtbook)31_storage)": {
						"encoding": "mapping",
						"key": "t_bool",
						"label": "mapping(bool => struct A.debtbook)",
						"numberOfBytes": "32",
						"value": "t_struct(debtbook)31_storage"
					},
					"t_mapping(t_uint256,t_bool)": {
						"encoding": "mapping",
						"key": "t_uint256",
						"label": "mapping(uint256 => bool)",
						"numberOfBytes": "32",
						"value": "t_bool"
					},
					"t_mapping(t_uint256,t_mapping(t_bool,t_struct(debtbook)31_storage))": {
						"encoding": "mapping",
						"key": "t_uint256",
						"label": "mapping(uint256 => mapping(bool => struct A.debtbook))",
						"numberOfBytes": "32",
						"value": "t_mapping(t_bool,t_struct(debtbook)31_storage)"
					},
					"t_struct(debtbook)31_storage": {
						"encoding": "inplace",
						"label": "struct A.debtbook",
						"members": [
							{
								"astId": 24,
								"contract": "Test/contract A.sol:A",
								"label": "user_ID",
								"offset": 0,
								"slot": "0",
								"type": "t_address"
							},
							{
								"astId": 26,
								"contract": "Test/contract A.sol:A",
								"label": "token_ID",
								"offset": 20,
								"slot": "0",
								"type": "t_bool"
							},
							{
								"astId": 28,
								"contract": "Test/contract A.sol:A",
								"label": "debttoken_amount",
								"offset": 0,
								"slot": "1",
								"type": "t_uint256"
							},
							{
								"astId": 30,
								"contract": "Test/contract A.sol:A",
								"label": "position_amount",
								"offset": 0,
								"slot": "2",
								"type": "t_uint256"
							}
						],
						"numberOfBytes": "96"
					},
					"t_uint256": {
						"encoding": "inplace",
						"label": "uint256",
						"numberOfBytes": "32"
					}
				}
			},
			"userdoc": {
				"kind": "user",
				"methods": {},
				"version": 1
			}
		}
	}
}