{
	"Qilin/Qilin_global_parameters.sol": {
		"global": {
			"abi": [
				{
					"inputs": [],
					"stateMutability": "nonpayable",
					"type": "constructor"
				},
				{
					"inputs": [],
					"name": "Base_rate",
					"outputs": [
						{
							"internalType": "uint256",
							"name": "",
							"type": "uint256"
						}
					],
					"stateMutability": "view",
					"type": "function"
				},
				{
					"inputs": [],
					"name": "Get_Liquidation_bonus",
					"outputs": [
						{
							"internalType": "uint256",
							"name": "rate",
							"type": "uint256"
						}
					],
					"stateMutability": "view",
					"type": "function"
				},
				{
					"inputs": [],
					"name": "Get_baserate",
					"outputs": [
						{
							"internalType": "uint256",
							"name": "baserate",
							"type": "uint256"
						}
					],
					"stateMutability": "view",
					"type": "function"
				},
				{
					"inputs": [],
					"name": "Get_margintypes",
					"outputs": [
						{
							"internalType": "bool",
							"name": "two_white",
							"type": "bool"
						}
					],
					"stateMutability": "view",
					"type": "function"
				},
				{
					"inputs": [],
					"name": "Get_perpfee",
					"outputs": [
						{
							"internalType": "uint256",
							"name": "perpfee",
							"type": "uint256"
						}
					],
					"stateMutability": "view",
					"type": "function"
				},
				{
					"inputs": [],
					"name": "Get_swapfee",
					"outputs": [
						{
							"internalType": "uint256",
							"name": "swapfee",
							"type": "uint256"
						}
					],
					"stateMutability": "view",
					"type": "function"
				},
				{
					"inputs": [],
					"name": "Get_tickrange",
					"outputs": [
						{
							"internalType": "uint256",
							"name": "tickrange",
							"type": "uint256"
						}
					],
					"stateMutability": "view",
					"type": "function"
				},
				{
					"inputs": [],
					"name": "Liquidation_bonus",
					"outputs": [
						{
							"internalType": "uint256",
							"name": "",
							"type": "uint256"
						}
					],
					"stateMutability": "view",
					"type": "function"
				},
				{
					"inputs": [
						{
							"internalType": "uint256",
							"name": "rate",
							"type": "uint256"
						}
					],
					"name": "Set_Liquidation_bonus",
					"outputs": [],
					"stateMutability": "nonpayable",
					"type": "function"
				},
				{
					"inputs": [
						{
							"internalType": "uint256",
							"name": "baserate",
							"type": "uint256"
						}
					],
					"name": "Set_baserate",
					"outputs": [],
					"stateMutability": "nonpayable",
					"type": "function"
				},
				{
					"inputs": [
						{
							"internalType": "uint256",
							"name": "perpfee",
							"type": "uint256"
						}
					],
					"name": "Set_perpfee",
					"outputs": [],
					"stateMutability": "nonpayable",
					"type": "function"
				},
				{
					"inputs": [
						{
							"internalType": "uint256",
							"name": "swapfee",
							"type": "uint256"
						}
					],
					"name": "Set_swapfee",
					"outputs": [],
					"stateMutability": "nonpayable",
					"type": "function"
				},
				{
					"inputs": [
						{
							"internalType": "uint256",
							"name": "tickrange",
							"type": "uint256"
						}
					],
					"name": "Set_tickrange",
					"outputs": [],
					"stateMutability": "nonpayable",
					"type": "function"
				},
				{
					"inputs": [],
					"name": "Tick_range",
					"outputs": [
						{
							"internalType": "uint256",
							"name": "",
							"type": "uint256"
						}
					],
					"stateMutability": "view",
					"type": "function"
				},
				{
					"inputs": [],
					"name": "Two_white",
					"outputs": [
						{
							"internalType": "bool",
							"name": "",
							"type": "bool"
						}
					],
					"stateMutability": "view",
					"type": "function"
				},
				{
					"inputs": [],
					"name": "factory",
					"outputs": [
						{
							"internalType": "address",
							"name": "",
							"type": "address"
						}
					],
					"stateMutability": "view",
					"type": "function"
				},
				{
					"inputs": [],
					"name": "perp_fee",
					"outputs": [
						{
							"internalType": "uint256",
							"name": "",
							"type": "uint256"
						}
					],
					"stateMutability": "view",
					"type": "function"
				},
				{
					"inputs": [],
					"name": "swap_fee",
					"outputs": [
						{
							"internalType": "uint256",
							"name": "",
							"type": "uint256"
						}
					],
					"stateMutability": "view",
					"type": "function"
				},
				{
					"inputs": [
						{
							"internalType": "bool",
							"name": "two_white",
							"type": "bool"
						}
					],
					"name": "update_margintypes",
					"outputs": [],
					"stateMutability": "nonpayable",
					"type": "function"
				}
			],
			"devdoc": {
				"kind": "dev",
				"methods": {},
				"version": 1
			},
			"evm": {
				"assembly": "    /* \"Qilin/Qilin_global_parameters.sol\":25:2365  contract global{\r... */\n  mstore(0x40, 0x80)\n    /* \"Qilin/Qilin_global_parameters.sol\":286:346  constructor() public {\r... */\n  callvalue\n  dup1\n  iszero\n  tag_1\n  jumpi\n  0x00\n  dup1\n  revert\ntag_1:\n  pop\n    /* \"Qilin/Qilin_global_parameters.sol\":328:338  msg.sender */\n  caller\n    /* \"Qilin/Qilin_global_parameters.sol\":318:325  factory */\n  0x05\n  0x00\n    /* \"Qilin/Qilin_global_parameters.sol\":318:338  factory = msg.sender */\n  0x0100\n  exp\n  dup2\n  sload\n  dup2\n  0xffffffffffffffffffffffffffffffffffffffff\n  mul\n  not\n  and\n  swap1\n  dup4\n  0xffffffffffffffffffffffffffffffffffffffff\n  and\n  mul\n  or\n  swap1\n  sstore\n  pop\n    /* \"Qilin/Qilin_global_parameters.sol\":25:2365  contract global{\r... */\n  dataSize(sub_0)\n  dup1\n  dataOffset(sub_0)\n  0x00\n  codecopy\n  0x00\n  return\nstop\n\nsub_0: assembly {\n        /* \"Qilin/Qilin_global_parameters.sol\":25:2365  contract global{\r... */\n      mstore(0x40, 0x80)\n      callvalue\n      dup1\n      iszero\n      tag_1\n      jumpi\n      0x00\n      dup1\n      revert\n    tag_1:\n      pop\n      jumpi(tag_2, lt(calldatasize, 0x04))\n      shr(0xe0, calldataload(0x00))\n      dup1\n      0x7ed6281b\n      gt\n      tag_22\n      jumpi\n      dup1\n      0xccb34a59\n      gt\n      tag_23\n      jumpi\n      dup1\n      0xccb34a59\n      eq\n      tag_17\n      jumpi\n      dup1\n      0xd44022db\n      eq\n      tag_18\n      jumpi\n      dup1\n      0xd9c84e45\n      eq\n      tag_19\n      jumpi\n      dup1\n      0xdb183623\n      eq\n      tag_20\n      jumpi\n      dup1\n      0xf70f4394\n      eq\n      tag_21\n      jumpi\n      jump(tag_2)\n    tag_23:\n      dup1\n      0x7ed6281b\n      eq\n      tag_12\n      jumpi\n      dup1\n      0x9b16dbf4\n      eq\n      tag_13\n      jumpi\n      dup1\n      0xacaf7b5c\n      eq\n      tag_14\n      jumpi\n      dup1\n      0xc45a0155\n      eq\n      tag_15\n      jumpi\n      dup1\n      0xc75bc076\n      eq\n      tag_16\n      jumpi\n      jump(tag_2)\n    tag_22:\n      dup1\n      0x52687589\n      gt\n      tag_24\n      jumpi\n      dup1\n      0x52687589\n      eq\n      tag_7\n      jumpi\n      dup1\n      0x55a202bb\n      eq\n      tag_8\n      jumpi\n      dup1\n      0x6565c7b7\n      eq\n      tag_9\n      jumpi\n      dup1\n      0x75395f0c\n      eq\n      tag_10\n      jumpi\n      dup1\n      0x7a09df06\n      eq\n      tag_11\n      jumpi\n      jump(tag_2)\n    tag_24:\n      dup1\n      0x0651ab0e\n      eq\n      tag_3\n      jumpi\n      dup1\n      0x1a45b74c\n      eq\n      tag_4\n      jumpi\n      dup1\n      0x20b6c796\n      eq\n      tag_5\n      jumpi\n      dup1\n      0x342d70db\n      eq\n      tag_6\n      jumpi\n    tag_2:\n      0x00\n      dup1\n      revert\n        /* \"Qilin/Qilin_global_parameters.sol\":1825:1932  function Get_margintypes() external view returns (bool two_white){\r... */\n    tag_3:\n      tag_25\n      tag_26\n      jump\t// in\n    tag_25:\n      mload(0x40)\n      tag_27\n      swap2\n      swap1\n      tag_28\n      jump\t// in\n    tag_27:\n      mload(0x40)\n      dup1\n      swap2\n      sub\n      swap1\n      return\n        /* \"Qilin/Qilin_global_parameters.sol\":2250:2348  function Get_perpfee() external view returns (uint perpfee){\r... */\n    tag_4:\n      tag_29\n      tag_30\n      jump\t// in\n    tag_29:\n      mload(0x40)\n      tag_31\n      swap2\n      swap1\n      tag_32\n      jump\t// in\n    tag_31:\n      mload(0x40)\n      dup1\n      swap2\n      sub\n      swap1\n      return\n        /* \"Qilin/Qilin_global_parameters.sol\":181:204  uint256 public perp_fee */\n    tag_5:\n      tag_33\n      tag_34\n      jump\t// in\n    tag_33:\n      mload(0x40)\n      tag_35\n      swap2\n      swap1\n      tag_32\n      jump\t// in\n    tag_35:\n      mload(0x40)\n      dup1\n      swap2\n      sub\n      swap1\n      return\n        /* \"Qilin/Qilin_global_parameters.sol\":777:931  function update_margintypes(bool two_white) external {\r... */\n    tag_6:\n      tag_36\n      0x04\n      dup1\n      calldatasize\n      sub\n      dup2\n      add\n      swap1\n      tag_37\n      swap2\n      swap1\n      tag_38\n      jump\t// in\n    tag_37:\n      tag_39\n      jump\t// in\n    tag_36:\n      stop\n        /* \"Qilin/Qilin_global_parameters.sol\":151:174  uint256 public swap_fee */\n    tag_7:\n      tag_40\n      tag_41\n      jump\t// in\n    tag_40:\n      mload(0x40)\n      tag_42\n      swap2\n      swap1\n      tag_32\n      jump\t// in\n    tag_42:\n      mload(0x40)\n      dup1\n      swap2\n      sub\n      swap1\n      return\n        /* \"Qilin/Qilin_global_parameters.sol\":1682:1788  function Get_tickrange() external view returns (uint tickrange){\r... */\n    tag_8:\n      tag_43\n      tag_44\n      jump\t// in\n    tag_43:\n      mload(0x40)\n      tag_45\n      swap2\n      swap1\n      tag_32\n      jump\t// in\n    tag_45:\n      mload(0x40)\n      dup1\n      swap2\n      sub\n      swap1\n      return\n        /* \"Qilin/Qilin_global_parameters.sol\":1337:1479  function Set_perpfee(uint perpfee) external {\r... */\n    tag_9:\n      tag_46\n      0x04\n      dup1\n      calldatasize\n      sub\n      dup2\n      add\n      swap1\n      tag_47\n      swap2\n      swap1\n      tag_48\n      jump\t// in\n    tag_47:\n      tag_49\n      jump\t// in\n    tag_46:\n      stop\n        /* \"Qilin/Qilin_global_parameters.sol\":1529:1640  function Get_Liquidation_bonus() external view returns (uint rate){\r... */\n    tag_10:\n      tag_50\n      tag_51\n      jump\t// in\n    tag_50:\n      mload(0x40)\n      tag_52\n      swap2\n      swap1\n      tag_32\n      jump\t// in\n    tag_52:\n      mload(0x40)\n      dup1\n      swap2\n      sub\n      swap1\n      return\n        /* \"Qilin/Qilin_global_parameters.sol\":240:261  bool public Two_white */\n    tag_11:\n      tag_53\n      tag_54\n      jump\t// in\n    tag_53:\n      mload(0x40)\n      tag_55\n      swap2\n      swap1\n      tag_28\n      jump\t// in\n    tag_55:\n      mload(0x40)\n      dup1\n      swap2\n      sub\n      swap1\n      return\n        /* \"Qilin/Qilin_global_parameters.sol\":120:144  uint256 public Base_rate */\n    tag_12:\n      tag_56\n      tag_57\n      jump\t// in\n    tag_56:\n      mload(0x40)\n      tag_58\n      swap2\n      swap1\n      tag_32\n      jump\t// in\n    tag_58:\n      mload(0x40)\n      dup1\n      swap2\n      sub\n      swap1\n      return\n        /* \"Qilin/Qilin_global_parameters.sol\":2113:2211  function Get_swapfee() external view returns (uint swapfee){\r... */\n    tag_13:\n      tag_59\n      tag_60\n      jump\t// in\n    tag_59:\n      mload(0x40)\n      tag_61\n      swap2\n      swap1\n      tag_32\n      jump\t// in\n    tag_61:\n      mload(0x40)\n      dup1\n      swap2\n      sub\n      swap1\n      return\n        /* \"Qilin/Qilin_global_parameters.sol\":971:1117  function Set_baserate(uint baserate) external {\r... */\n    tag_14:\n      tag_62\n      0x04\n      dup1\n      calldatasize\n      sub\n      dup2\n      add\n      swap1\n      tag_63\n      swap2\n      swap1\n      tag_48\n      jump\t// in\n    tag_63:\n      tag_64\n      jump\t// in\n    tag_62:\n      stop\n        /* \"Qilin/Qilin_global_parameters.sol\":211:233  address public factory */\n    tag_15:\n      tag_65\n      tag_66\n      jump\t// in\n    tag_65:\n      mload(0x40)\n      tag_67\n      swap2\n      swap1\n      tag_68\n      jump\t// in\n    tag_67:\n      mload(0x40)\n      dup1\n      swap2\n      sub\n      swap1\n      return\n        /* \"Qilin/Qilin_global_parameters.sol\":590:740  function Set_tickrange(uint tickrange) external {\r... */\n    tag_16:\n      tag_69\n      0x04\n      dup1\n      calldatasize\n      sub\n      dup2\n      add\n      swap1\n      tag_70\n      swap2\n      swap1\n      tag_48\n      jump\t// in\n    tag_70:\n      tag_71\n      jump\t// in\n    tag_69:\n      stop\n        /* \"Qilin/Qilin_global_parameters.sol\":1156:1298  function Set_swapfee(uint swapfee) external {\r... */\n    tag_17:\n      tag_72\n      0x04\n      dup1\n      calldatasize\n      sub\n      dup2\n      add\n      swap1\n      tag_73\n      swap2\n      swap1\n      tag_48\n      jump\t// in\n    tag_73:\n      tag_74\n      jump\t// in\n    tag_72:\n      stop\n        /* \"Qilin/Qilin_global_parameters.sol\":88:113  uint256 public Tick_range */\n    tag_18:\n      tag_75\n      tag_76\n      jump\t// in\n    tag_75:\n      mload(0x40)\n      tag_77\n      swap2\n      swap1\n      tag_32\n      jump\t// in\n    tag_77:\n      mload(0x40)\n      dup1\n      swap2\n      sub\n      swap1\n      return\n        /* \"Qilin/Qilin_global_parameters.sol\":394:548  function Set_Liquidation_bonus(uint rate) external{\r... */\n    tag_19:\n      tag_78\n      0x04\n      dup1\n      calldatasize\n      sub\n      dup2\n      add\n      swap1\n      tag_79\n      swap2\n      swap1\n      tag_48\n      jump\t// in\n    tag_79:\n      tag_80\n      jump\t// in\n    tag_78:\n      stop\n        /* \"Qilin/Qilin_global_parameters.sol\":1972:2074  function Get_baserate() external view returns (uint baserate){\r... */\n    tag_20:\n      tag_81\n      tag_82\n      jump\t// in\n    tag_81:\n      mload(0x40)\n      tag_83\n      swap2\n      swap1\n      tag_32\n      jump\t// in\n    tag_83:\n      mload(0x40)\n      dup1\n      swap2\n      sub\n      swap1\n      return\n        /* \"Qilin/Qilin_global_parameters.sol\":49:81  uint256 public Liquidation_bonus */\n    tag_21:\n      tag_84\n      tag_85\n      jump\t// in\n    tag_84:\n      mload(0x40)\n      tag_86\n      swap2\n      swap1\n      tag_32\n      jump\t// in\n    tag_86:\n      mload(0x40)\n      dup1\n      swap2\n      sub\n      swap1\n      return\n        /* \"Qilin/Qilin_global_parameters.sol\":1825:1932  function Get_margintypes() external view returns (bool two_white){\r... */\n    tag_26:\n        /* \"Qilin/Qilin_global_parameters.sol\":1875:1889  bool two_white */\n      0x00\n        /* \"Qilin/Qilin_global_parameters.sol\":1915:1924  Two_white */\n      0x05\n      0x14\n      swap1\n      sload\n      swap1\n      0x0100\n      exp\n      swap1\n      div\n      0xff\n      and\n        /* \"Qilin/Qilin_global_parameters.sol\":1903:1924  two_white = Two_white */\n      swap1\n      pop\n        /* \"Qilin/Qilin_global_parameters.sol\":1825:1932  function Get_margintypes() external view returns (bool two_white){\r... */\n      swap1\n      jump\t// out\n        /* \"Qilin/Qilin_global_parameters.sol\":2250:2348  function Get_perpfee() external view returns (uint perpfee){\r... */\n    tag_30:\n        /* \"Qilin/Qilin_global_parameters.sol\":2296:2308  uint perpfee */\n      0x00\n        /* \"Qilin/Qilin_global_parameters.sol\":2332:2340  perp_fee */\n      sload(0x04)\n        /* \"Qilin/Qilin_global_parameters.sol\":2322:2340  perpfee = perp_fee */\n      swap1\n      pop\n        /* \"Qilin/Qilin_global_parameters.sol\":2250:2348  function Get_perpfee() external view returns (uint perpfee){\r... */\n      swap1\n      jump\t// out\n        /* \"Qilin/Qilin_global_parameters.sol\":181:204  uint256 public perp_fee */\n    tag_34:\n      sload(0x04)\n      dup2\n      jump\t// out\n        /* \"Qilin/Qilin_global_parameters.sol\":777:931  function update_margintypes(bool two_white) external {\r... */\n    tag_39:\n        /* \"Qilin/Qilin_global_parameters.sol\":863:870  factory */\n      0x05\n      0x00\n      swap1\n      sload\n      swap1\n      0x0100\n      exp\n      swap1\n      div\n      0xffffffffffffffffffffffffffffffffffffffff\n      and\n        /* \"Qilin/Qilin_global_parameters.sol\":849:870  msg.sender == factory */\n      0xffffffffffffffffffffffffffffffffffffffff\n      and\n        /* \"Qilin/Qilin_global_parameters.sol\":849:859  msg.sender */\n      caller\n        /* \"Qilin/Qilin_global_parameters.sol\":849:870  msg.sender == factory */\n      0xffffffffffffffffffffffffffffffffffffffff\n      and\n      eq\n        /* \"Qilin/Qilin_global_parameters.sol\":841:891  require(msg.sender == factory, 'Qilin: FORBIDDEN') */\n      tag_90\n      jumpi\n      mload(0x40)\n      0x08c379a000000000000000000000000000000000000000000000000000000000\n      dup2\n      mstore\n      0x04\n      add\n      tag_91\n      swap1\n      tag_92\n      jump\t// in\n    tag_91:\n      mload(0x40)\n      dup1\n      swap2\n      sub\n      swap1\n      revert\n    tag_90:\n        /* \"Qilin/Qilin_global_parameters.sol\":914:923  two_white */\n      dup1\n        /* \"Qilin/Qilin_global_parameters.sol\":902:911  Two_white */\n      0x05\n      0x14\n        /* \"Qilin/Qilin_global_parameters.sol\":902:923  Two_white = two_white */\n      0x0100\n      exp\n      dup2\n      sload\n      dup2\n      0xff\n      mul\n      not\n      and\n      swap1\n      dup4\n      iszero\n      iszero\n      mul\n      or\n      swap1\n      sstore\n      pop\n        /* \"Qilin/Qilin_global_parameters.sol\":777:931  function update_margintypes(bool two_white) external {\r... */\n      pop\n      jump\t// out\n        /* \"Qilin/Qilin_global_parameters.sol\":151:174  uint256 public swap_fee */\n    tag_41:\n      sload(0x03)\n      dup2\n      jump\t// out\n        /* \"Qilin/Qilin_global_parameters.sol\":1682:1788  function Get_tickrange() external view returns (uint tickrange){\r... */\n    tag_44:\n        /* \"Qilin/Qilin_global_parameters.sol\":1730:1744  uint tickrange */\n      0x00\n        /* \"Qilin/Qilin_global_parameters.sol\":1770:1780  Tick_range */\n      sload(0x01)\n        /* \"Qilin/Qilin_global_parameters.sol\":1758:1780  tickrange = Tick_range */\n      swap1\n      pop\n        /* \"Qilin/Qilin_global_parameters.sol\":1682:1788  function Get_tickrange() external view returns (uint tickrange){\r... */\n      swap1\n      jump\t// out\n        /* \"Qilin/Qilin_global_parameters.sol\":1337:1479  function Set_perpfee(uint perpfee) external {\r... */\n    tag_49:\n        /* \"Qilin/Qilin_global_parameters.sol\":1414:1421  factory */\n      0x05\n      0x00\n      swap1\n      sload\n      swap1\n      0x0100\n      exp\n      swap1\n      div\n      0xffffffffffffffffffffffffffffffffffffffff\n      and\n        /* \"Qilin/Qilin_global_parameters.sol\":1400:1421  msg.sender == factory */\n      0xffffffffffffffffffffffffffffffffffffffff\n      and\n        /* \"Qilin/Qilin_global_parameters.sol\":1400:1410  msg.sender */\n      caller\n        /* \"Qilin/Qilin_global_parameters.sol\":1400:1421  msg.sender == factory */\n      0xffffffffffffffffffffffffffffffffffffffff\n      and\n      eq\n        /* \"Qilin/Qilin_global_parameters.sol\":1392:1442  require(msg.sender == factory, 'Qilin: FORBIDDEN') */\n      tag_95\n      jumpi\n      mload(0x40)\n      0x08c379a000000000000000000000000000000000000000000000000000000000\n      dup2\n      mstore\n      0x04\n      add\n      tag_96\n      swap1\n      tag_92\n      jump\t// in\n    tag_96:\n      mload(0x40)\n      dup1\n      swap2\n      sub\n      swap1\n      revert\n    tag_95:\n        /* \"Qilin/Qilin_global_parameters.sol\":1464:1471  perpfee */\n      dup1\n        /* \"Qilin/Qilin_global_parameters.sol\":1453:1461  perp_fee */\n      0x04\n        /* \"Qilin/Qilin_global_parameters.sol\":1453:1471  perp_fee = perpfee */\n      dup2\n      swap1\n      sstore\n      pop\n        /* \"Qilin/Qilin_global_parameters.sol\":1337:1479  function Set_perpfee(uint perpfee) external {\r... */\n      pop\n      jump\t// out\n        /* \"Qilin/Qilin_global_parameters.sol\":1529:1640  function Get_Liquidation_bonus() external view returns (uint rate){\r... */\n    tag_51:\n        /* \"Qilin/Qilin_global_parameters.sol\":1585:1594  uint rate */\n      0x00\n        /* \"Qilin/Qilin_global_parameters.sol\":1615:1632  Liquidation_bonus */\n      dup1\n      sload\n        /* \"Qilin/Qilin_global_parameters.sol\":1608:1632  rate = Liquidation_bonus */\n      swap1\n      pop\n        /* \"Qilin/Qilin_global_parameters.sol\":1529:1640  function Get_Liquidation_bonus() external view returns (uint rate){\r... */\n      swap1\n      jump\t// out\n        /* \"Qilin/Qilin_global_parameters.sol\":240:261  bool public Two_white */\n    tag_54:\n      0x05\n      0x14\n      swap1\n      sload\n      swap1\n      0x0100\n      exp\n      swap1\n      div\n      0xff\n      and\n      dup2\n      jump\t// out\n        /* \"Qilin/Qilin_global_parameters.sol\":120:144  uint256 public Base_rate */\n    tag_57:\n      sload(0x02)\n      dup2\n      jump\t// out\n        /* \"Qilin/Qilin_global_parameters.sol\":2113:2211  function Get_swapfee() external view returns (uint swapfee){\r... */\n    tag_60:\n        /* \"Qilin/Qilin_global_parameters.sol\":2159:2171  uint swapfee */\n      0x00\n        /* \"Qilin/Qilin_global_parameters.sol\":2195:2203  swap_fee */\n      sload(0x03)\n        /* \"Qilin/Qilin_global_parameters.sol\":2185:2203  swapfee = swap_fee */\n      swap1\n      pop\n        /* \"Qilin/Qilin_global_parameters.sol\":2113:2211  function Get_swapfee() external view returns (uint swapfee){\r... */\n      swap1\n      jump\t// out\n        /* \"Qilin/Qilin_global_parameters.sol\":971:1117  function Set_baserate(uint baserate) external {\r... */\n    tag_64:\n        /* \"Qilin/Qilin_global_parameters.sol\":1050:1057  factory */\n      0x05\n      0x00\n      swap1\n      sload\n      swap1\n      0x0100\n      exp\n      swap1\n      div\n      0xffffffffffffffffffffffffffffffffffffffff\n      and\n        /* \"Qilin/Qilin_global_parameters.sol\":1036:1057  msg.sender == factory */\n      0xffffffffffffffffffffffffffffffffffffffff\n      and\n        /* \"Qilin/Qilin_global_parameters.sol\":1036:1046  msg.sender */\n      caller\n        /* \"Qilin/Qilin_global_parameters.sol\":1036:1057  msg.sender == factory */\n      0xffffffffffffffffffffffffffffffffffffffff\n      and\n      eq\n        /* \"Qilin/Qilin_global_parameters.sol\":1028:1078  require(msg.sender == factory, 'Qilin: FORBIDDEN') */\n      tag_100\n      jumpi\n      mload(0x40)\n      0x08c379a000000000000000000000000000000000000000000000000000000000\n      dup2\n      mstore\n      0x04\n      add\n      tag_101\n      swap1\n      tag_92\n      jump\t// in\n    tag_101:\n      mload(0x40)\n      dup1\n      swap2\n      sub\n      swap1\n      revert\n    tag_100:\n        /* \"Qilin/Qilin_global_parameters.sol\":1101:1109  baserate */\n      dup1\n        /* \"Qilin/Qilin_global_parameters.sol\":1089:1098  Base_rate */\n      0x02\n        /* \"Qilin/Qilin_global_parameters.sol\":1089:1109  Base_rate = baserate */\n      dup2\n      swap1\n      sstore\n      pop\n        /* \"Qilin/Qilin_global_parameters.sol\":971:1117  function Set_baserate(uint baserate) external {\r... */\n      pop\n      jump\t// out\n        /* \"Qilin/Qilin_global_parameters.sol\":211:233  address public factory */\n    tag_66:\n      0x05\n      0x00\n      swap1\n      sload\n      swap1\n      0x0100\n      exp\n      swap1\n      div\n      0xffffffffffffffffffffffffffffffffffffffff\n      and\n      dup2\n      jump\t// out\n        /* \"Qilin/Qilin_global_parameters.sol\":590:740  function Set_tickrange(uint tickrange) external {\r... */\n    tag_71:\n        /* \"Qilin/Qilin_global_parameters.sol\":671:678  factory */\n      0x05\n      0x00\n      swap1\n      sload\n      swap1\n      0x0100\n      exp\n      swap1\n      div\n      0xffffffffffffffffffffffffffffffffffffffff\n      and\n        /* \"Qilin/Qilin_global_parameters.sol\":657:678  msg.sender == factory */\n      0xffffffffffffffffffffffffffffffffffffffff\n      and\n        /* \"Qilin/Qilin_global_parameters.sol\":657:667  msg.sender */\n      caller\n        /* \"Qilin/Qilin_global_parameters.sol\":657:678  msg.sender == factory */\n      0xffffffffffffffffffffffffffffffffffffffff\n      and\n      eq\n        /* \"Qilin/Qilin_global_parameters.sol\":649:699  require(msg.sender == factory, 'Qilin: FORBIDDEN') */\n      tag_103\n      jumpi\n      mload(0x40)\n      0x08c379a000000000000000000000000000000000000000000000000000000000\n      dup2\n      mstore\n      0x04\n      add\n      tag_104\n      swap1\n      tag_92\n      jump\t// in\n    tag_104:\n      mload(0x40)\n      dup1\n      swap2\n      sub\n      swap1\n      revert\n    tag_103:\n        /* \"Qilin/Qilin_global_parameters.sol\":723:732  tickrange */\n      dup1\n        /* \"Qilin/Qilin_global_parameters.sol\":710:720  Tick_range */\n      0x01\n        /* \"Qilin/Qilin_global_parameters.sol\":710:732  Tick_range = tickrange */\n      dup2\n      swap1\n      sstore\n      pop\n        /* \"Qilin/Qilin_global_parameters.sol\":590:740  function Set_tickrange(uint tickrange) external {\r... */\n      pop\n      jump\t// out\n        /* \"Qilin/Qilin_global_parameters.sol\":1156:1298  function Set_swapfee(uint swapfee) external {\r... */\n    tag_74:\n        /* \"Qilin/Qilin_global_parameters.sol\":1233:1240  factory */\n      0x05\n      0x00\n      swap1\n      sload\n      swap1\n      0x0100\n      exp\n      swap1\n      div\n      0xffffffffffffffffffffffffffffffffffffffff\n      and\n        /* \"Qilin/Qilin_global_parameters.sol\":1219:1240  msg.sender == factory */\n      0xffffffffffffffffffffffffffffffffffffffff\n      and\n        /* \"Qilin/Qilin_global_parameters.sol\":1219:1229  msg.sender */\n      caller\n        /* \"Qilin/Qilin_global_parameters.sol\":1219:1240  msg.sender == factory */\n      0xffffffffffffffffffffffffffffffffffffffff\n      and\n      eq\n        /* \"Qilin/Qilin_global_parameters.sol\":1211:1261  require(msg.sender == factory, 'Qilin: FORBIDDEN') */\n      tag_106\n      jumpi\n      mload(0x40)\n      0x08c379a000000000000000000000000000000000000000000000000000000000\n      dup2\n      mstore\n      0x04\n      add\n      tag_107\n      swap1\n      tag_92\n      jump\t// in\n    tag_107:\n      mload(0x40)\n      dup1\n      swap2\n      sub\n      swap1\n      revert\n    tag_106:\n        /* \"Qilin/Qilin_global_parameters.sol\":1283:1290  swapfee */\n      dup1\n        /* \"Qilin/Qilin_global_parameters.sol\":1272:1280  swap_fee */\n      0x03\n        /* \"Qilin/Qilin_global_parameters.sol\":1272:1290  swap_fee = swapfee */\n      dup2\n      swap1\n      sstore\n      pop\n        /* \"Qilin/Qilin_global_parameters.sol\":1156:1298  function Set_swapfee(uint swapfee) external {\r... */\n      pop\n      jump\t// out\n        /* \"Qilin/Qilin_global_parameters.sol\":88:113  uint256 public Tick_range */\n    tag_76:\n      sload(0x01)\n      dup2\n      jump\t// out\n        /* \"Qilin/Qilin_global_parameters.sol\":394:548  function Set_Liquidation_bonus(uint rate) external{\r... */\n    tag_80:\n        /* \"Qilin/Qilin_global_parameters.sol\":477:484  factory */\n      0x05\n      0x00\n      swap1\n      sload\n      swap1\n      0x0100\n      exp\n      swap1\n      div\n      0xffffffffffffffffffffffffffffffffffffffff\n      and\n        /* \"Qilin/Qilin_global_parameters.sol\":463:484  msg.sender == factory */\n      0xffffffffffffffffffffffffffffffffffffffff\n      and\n        /* \"Qilin/Qilin_global_parameters.sol\":463:473  msg.sender */\n      caller\n        /* \"Qilin/Qilin_global_parameters.sol\":463:484  msg.sender == factory */\n      0xffffffffffffffffffffffffffffffffffffffff\n      and\n      eq\n        /* \"Qilin/Qilin_global_parameters.sol\":455:505  require(msg.sender == factory, 'Qilin: FORBIDDEN') */\n      tag_109\n      jumpi\n      mload(0x40)\n      0x08c379a000000000000000000000000000000000000000000000000000000000\n      dup2\n      mstore\n      0x04\n      add\n      tag_110\n      swap1\n      tag_92\n      jump\t// in\n    tag_110:\n      mload(0x40)\n      dup1\n      swap2\n      sub\n      swap1\n      revert\n    tag_109:\n        /* \"Qilin/Qilin_global_parameters.sol\":536:540  rate */\n      dup1\n        /* \"Qilin/Qilin_global_parameters.sol\":516:533  Liquidation_bonus */\n      0x00\n        /* \"Qilin/Qilin_global_parameters.sol\":516:540  Liquidation_bonus = rate */\n      dup2\n      swap1\n      sstore\n      pop\n        /* \"Qilin/Qilin_global_parameters.sol\":394:548  function Set_Liquidation_bonus(uint rate) external{\r... */\n      pop\n      jump\t// out\n        /* \"Qilin/Qilin_global_parameters.sol\":1972:2074  function Get_baserate() external view returns (uint baserate){\r... */\n    tag_82:\n        /* \"Qilin/Qilin_global_parameters.sol\":2019:2032  uint baserate */\n      0x00\n        /* \"Qilin/Qilin_global_parameters.sol\":2057:2066  Base_rate */\n      sload(0x02)\n        /* \"Qilin/Qilin_global_parameters.sol\":2046:2066  baserate = Base_rate */\n      swap1\n      pop\n        /* \"Qilin/Qilin_global_parameters.sol\":1972:2074  function Get_baserate() external view returns (uint baserate){\r... */\n      swap1\n      jump\t// out\n        /* \"Qilin/Qilin_global_parameters.sol\":49:81  uint256 public Liquidation_bonus */\n    tag_85:\n      sload(0x00)\n      dup2\n      jump\t// out\n        /* \"#utility.yul\":7:140   */\n    tag_113:\n        /* \"#utility.yul\":50:55   */\n      0x00\n        /* \"#utility.yul\":88:94   */\n      dup2\n        /* \"#utility.yul\":75:95   */\n      calldataload\n        /* \"#utility.yul\":66:95   */\n      swap1\n      pop\n        /* \"#utility.yul\":104:134   */\n      tag_115\n        /* \"#utility.yul\":128:133   */\n      dup2\n        /* \"#utility.yul\":104:134   */\n      tag_116\n      jump\t// in\n    tag_115:\n        /* \"#utility.yul\":7:140   */\n      swap3\n      swap2\n      pop\n      pop\n      jump\t// out\n        /* \"#utility.yul\":146:285   */\n    tag_117:\n        /* \"#utility.yul\":192:197   */\n      0x00\n        /* \"#utility.yul\":230:236   */\n      dup2\n        /* \"#utility.yul\":217:237   */\n      calldataload\n        /* \"#utility.yul\":208:237   */\n      swap1\n      pop\n        /* \"#utility.yul\":246:279   */\n      tag_119\n        /* \"#utility.yul\":273:278   */\n      dup2\n        /* \"#utility.yul\":246:279   */\n      tag_120\n      jump\t// in\n    tag_119:\n        /* \"#utility.yul\":146:285   */\n      swap3\n      swap2\n      pop\n      pop\n      jump\t// out\n        /* \"#utility.yul\":291:614   */\n    tag_38:\n        /* \"#utility.yul\":347:353   */\n      0x00\n        /* \"#utility.yul\":396:398   */\n      0x20\n        /* \"#utility.yul\":384:393   */\n      dup3\n        /* \"#utility.yul\":375:382   */\n      dup5\n        /* \"#utility.yul\":371:394   */\n      sub\n        /* \"#utility.yul\":367:399   */\n      slt\n        /* \"#utility.yul\":364:483   */\n      iszero\n      tag_122\n      jumpi\n        /* \"#utility.yul\":402:481   */\n      tag_123\n      tag_124\n      jump\t// in\n    tag_123:\n        /* \"#utility.yul\":364:483   */\n    tag_122:\n        /* \"#utility.yul\":522:523   */\n      0x00\n        /* \"#utility.yul\":547:597   */\n      tag_125\n        /* \"#utility.yul\":589:596   */\n      dup5\n        /* \"#utility.yul\":580:586   */\n      dup3\n        /* \"#utility.yul\":569:578   */\n      dup6\n        /* \"#utility.yul\":565:587   */\n      add\n        /* \"#utility.yul\":547:597   */\n      tag_113\n      jump\t// in\n    tag_125:\n        /* \"#utility.yul\":537:597   */\n      swap2\n      pop\n        /* \"#utility.yul\":493:607   */\n      pop\n        /* \"#utility.yul\":291:614   */\n      swap3\n      swap2\n      pop\n      pop\n      jump\t// out\n        /* \"#utility.yul\":620:949   */\n    tag_48:\n        /* \"#utility.yul\":679:685   */\n      0x00\n        /* \"#utility.yul\":728:730   */\n      0x20\n        /* \"#utility.yul\":716:725   */\n      dup3\n        /* \"#utility.yul\":707:714   */\n      dup5\n        /* \"#utility.yul\":703:726   */\n      sub\n        /* \"#utility.yul\":699:731   */\n      slt\n        /* \"#utility.yul\":696:815   */\n      iszero\n      tag_127\n      jumpi\n        /* \"#utility.yul\":734:813   */\n      tag_128\n      tag_124\n      jump\t// in\n    tag_128:\n        /* \"#utility.yul\":696:815   */\n    tag_127:\n        /* \"#utility.yul\":854:855   */\n      0x00\n        /* \"#utility.yul\":879:932   */\n      tag_129\n        /* \"#utility.yul\":924:931   */\n      dup5\n        /* \"#utility.yul\":915:921   */\n      dup3\n        /* \"#utility.yul\":904:913   */\n      dup6\n        /* \"#utility.yul\":900:922   */\n      add\n        /* \"#utility.yul\":879:932   */\n      tag_117\n      jump\t// in\n    tag_129:\n        /* \"#utility.yul\":869:932   */\n      swap2\n      pop\n        /* \"#utility.yul\":825:942   */\n      pop\n        /* \"#utility.yul\":620:949   */\n      swap3\n      swap2\n      pop\n      pop\n      jump\t// out\n        /* \"#utility.yul\":955:1073   */\n    tag_130:\n        /* \"#utility.yul\":1042:1066   */\n      tag_132\n        /* \"#utility.yul\":1060:1065   */\n      dup2\n        /* \"#utility.yul\":1042:1066   */\n      tag_133\n      jump\t// in\n    tag_132:\n        /* \"#utility.yul\":1037:1040   */\n      dup3\n        /* \"#utility.yul\":1030:1067   */\n      mstore\n        /* \"#utility.yul\":955:1073   */\n      pop\n      pop\n      jump\t// out\n        /* \"#utility.yul\":1079:1188   */\n    tag_134:\n        /* \"#utility.yul\":1160:1181   */\n      tag_136\n        /* \"#utility.yul\":1175:1180   */\n      dup2\n        /* \"#utility.yul\":1160:1181   */\n      tag_137\n      jump\t// in\n    tag_136:\n        /* \"#utility.yul\":1155:1158   */\n      dup3\n        /* \"#utility.yul\":1148:1182   */\n      mstore\n        /* \"#utility.yul\":1079:1188   */\n      pop\n      pop\n      jump\t// out\n        /* \"#utility.yul\":1194:1560   */\n    tag_138:\n        /* \"#utility.yul\":1336:1339   */\n      0x00\n        /* \"#utility.yul\":1357:1424   */\n      tag_140\n        /* \"#utility.yul\":1421:1423   */\n      0x10\n        /* \"#utility.yul\":1416:1419   */\n      dup4\n        /* \"#utility.yul\":1357:1424   */\n      tag_141\n      jump\t// in\n    tag_140:\n        /* \"#utility.yul\":1350:1424   */\n      swap2\n      pop\n        /* \"#utility.yul\":1433:1526   */\n      tag_142\n        /* \"#utility.yul\":1522:1525   */\n      dup3\n        /* \"#utility.yul\":1433:1526   */\n      tag_143\n      jump\t// in\n    tag_142:\n        /* \"#utility.yul\":1551:1553   */\n      0x20\n        /* \"#utility.yul\":1546:1549   */\n      dup3\n        /* \"#utility.yul\":1542:1554   */\n      add\n        /* \"#utility.yul\":1535:1554   */\n      swap1\n      pop\n        /* \"#utility.yul\":1194:1560   */\n      swap2\n      swap1\n      pop\n      jump\t// out\n        /* \"#utility.yul\":1566:1684   */\n    tag_144:\n        /* \"#utility.yul\":1653:1677   */\n      tag_146\n        /* \"#utility.yul\":1671:1676   */\n      dup2\n        /* \"#utility.yul\":1653:1677   */\n      tag_147\n      jump\t// in\n    tag_146:\n        /* \"#utility.yul\":1648:1651   */\n      dup3\n        /* \"#utility.yul\":1641:1678   */\n      mstore\n        /* \"#utility.yul\":1566:1684   */\n      pop\n      pop\n      jump\t// out\n        /* \"#utility.yul\":1690:1912   */\n    tag_68:\n        /* \"#utility.yul\":1783:1787   */\n      0x00\n        /* \"#utility.yul\":1821:1823   */\n      0x20\n        /* \"#utility.yul\":1810:1819   */\n      dup3\n        /* \"#utility.yul\":1806:1824   */\n      add\n        /* \"#utility.yul\":1798:1824   */\n      swap1\n      pop\n        /* \"#utility.yul\":1834:1905   */\n      tag_149\n        /* \"#utility.yul\":1902:1903   */\n      0x00\n        /* \"#utility.yul\":1891:1900   */\n      dup4\n        /* \"#utility.yul\":1887:1904   */\n      add\n        /* \"#utility.yul\":1878:1884   */\n      dup5\n        /* \"#utility.yul\":1834:1905   */\n      tag_130\n      jump\t// in\n    tag_149:\n        /* \"#utility.yul\":1690:1912   */\n      swap3\n      swap2\n      pop\n      pop\n      jump\t// out\n        /* \"#utility.yul\":1918:2128   */\n    tag_28:\n        /* \"#utility.yul\":2005:2009   */\n      0x00\n        /* \"#utility.yul\":2043:2045   */\n      0x20\n        /* \"#utility.yul\":2032:2041   */\n      dup3\n        /* \"#utility.yul\":2028:2046   */\n      add\n        /* \"#utility.yul\":2020:2046   */\n      swap1\n      pop\n        /* \"#utility.yul\":2056:2121   */\n      tag_151\n        /* \"#utility.yul\":2118:2119   */\n      0x00\n        /* \"#utility.yul\":2107:2116   */\n      dup4\n        /* \"#utility.yul\":2103:2120   */\n      add\n        /* \"#utility.yul\":2094:2100   */\n      dup5\n        /* \"#utility.yul\":2056:2121   */\n      tag_134\n      jump\t// in\n    tag_151:\n        /* \"#utility.yul\":1918:2128   */\n      swap3\n      swap2\n      pop\n      pop\n      jump\t// out\n        /* \"#utility.yul\":2134:2553   */\n    tag_92:\n        /* \"#utility.yul\":2300:2304   */\n      0x00\n        /* \"#utility.yul\":2338:2340   */\n      0x20\n        /* \"#utility.yul\":2327:2336   */\n      dup3\n        /* \"#utility.yul\":2323:2341   */\n      add\n        /* \"#utility.yul\":2315:2341   */\n      swap1\n      pop\n        /* \"#utility.yul\":2387:2396   */\n      dup2\n        /* \"#utility.yul\":2381:2385   */\n      dup2\n        /* \"#utility.yul\":2377:2397   */\n      sub\n        /* \"#utility.yul\":2373:2374   */\n      0x00\n        /* \"#utility.yul\":2362:2371   */\n      dup4\n        /* \"#utility.yul\":2358:2375   */\n      add\n        /* \"#utility.yul\":2351:2398   */\n      mstore\n        /* \"#utility.yul\":2415:2546   */\n      tag_153\n        /* \"#utility.yul\":2541:2545   */\n      dup2\n        /* \"#utility.yul\":2415:2546   */\n      tag_138\n      jump\t// in\n    tag_153:\n        /* \"#utility.yul\":2407:2546   */\n      swap1\n      pop\n        /* \"#utility.yul\":2134:2553   */\n      swap2\n      swap1\n      pop\n      jump\t// out\n        /* \"#utility.yul\":2559:2781   */\n    tag_32:\n        /* \"#utility.yul\":2652:2656   */\n      0x00\n        /* \"#utility.yul\":2690:2692   */\n      0x20\n        /* \"#utility.yul\":2679:2688   */\n      dup3\n        /* \"#utility.yul\":2675:2693   */\n      add\n        /* \"#utility.yul\":2667:2693   */\n      swap1\n      pop\n        /* \"#utility.yul\":2703:2774   */\n      tag_155\n        /* \"#utility.yul\":2771:2772   */\n      0x00\n        /* \"#utility.yul\":2760:2769   */\n      dup4\n        /* \"#utility.yul\":2756:2773   */\n      add\n        /* \"#utility.yul\":2747:2753   */\n      dup5\n        /* \"#utility.yul\":2703:2774   */\n      tag_144\n      jump\t// in\n    tag_155:\n        /* \"#utility.yul\":2559:2781   */\n      swap3\n      swap2\n      pop\n      pop\n      jump\t// out\n        /* \"#utility.yul\":2868:3037   */\n    tag_141:\n        /* \"#utility.yul\":2952:2963   */\n      0x00\n        /* \"#utility.yul\":2986:2992   */\n      dup3\n        /* \"#utility.yul\":2981:2984   */\n      dup3\n        /* \"#utility.yul\":2974:2993   */\n      mstore\n        /* \"#utility.yul\":3026:3030   */\n      0x20\n        /* \"#utility.yul\":3021:3024   */\n      dup3\n        /* \"#utility.yul\":3017:3031   */\n      add\n        /* \"#utility.yul\":3002:3031   */\n      swap1\n      pop\n        /* \"#utility.yul\":2868:3037   */\n      swap3\n      swap2\n      pop\n      pop\n      jump\t// out\n        /* \"#utility.yul\":3043:3139   */\n    tag_133:\n        /* \"#utility.yul\":3080:3087   */\n      0x00\n        /* \"#utility.yul\":3109:3133   */\n      tag_160\n        /* \"#utility.yul\":3127:3132   */\n      dup3\n        /* \"#utility.yul\":3109:3133   */\n      tag_161\n      jump\t// in\n    tag_160:\n        /* \"#utility.yul\":3098:3133   */\n      swap1\n      pop\n        /* \"#utility.yul\":3043:3139   */\n      swap2\n      swap1\n      pop\n      jump\t// out\n        /* \"#utility.yul\":3145:3235   */\n    tag_137:\n        /* \"#utility.yul\":3179:3186   */\n      0x00\n        /* \"#utility.yul\":3222:3227   */\n      dup2\n        /* \"#utility.yul\":3215:3228   */\n      iszero\n        /* \"#utility.yul\":3208:3229   */\n      iszero\n        /* \"#utility.yul\":3197:3229   */\n      swap1\n      pop\n        /* \"#utility.yul\":3145:3235   */\n      swap2\n      swap1\n      pop\n      jump\t// out\n        /* \"#utility.yul\":3241:3367   */\n    tag_161:\n        /* \"#utility.yul\":3278:3285   */\n      0x00\n        /* \"#utility.yul\":3318:3360   */\n      0xffffffffffffffffffffffffffffffffffffffff\n        /* \"#utility.yul\":3311:3316   */\n      dup3\n        /* \"#utility.yul\":3307:3361   */\n      and\n        /* \"#utility.yul\":3296:3361   */\n      swap1\n      pop\n        /* \"#utility.yul\":3241:3367   */\n      swap2\n      swap1\n      pop\n      jump\t// out\n        /* \"#utility.yul\":3373:3450   */\n    tag_147:\n        /* \"#utility.yul\":3410:3417   */\n      0x00\n        /* \"#utility.yul\":3439:3444   */\n      dup2\n        /* \"#utility.yul\":3428:3444   */\n      swap1\n      pop\n        /* \"#utility.yul\":3373:3450   */\n      swap2\n      swap1\n      pop\n      jump\t// out\n        /* \"#utility.yul\":3579:3696   */\n    tag_124:\n        /* \"#utility.yul\":3688:3689   */\n      0x00\n        /* \"#utility.yul\":3685:3686   */\n      dup1\n        /* \"#utility.yul\":3678:3690   */\n      revert\n        /* \"#utility.yul\":3702:3868   */\n    tag_143:\n        /* \"#utility.yul\":3842:3860   */\n      0x51696c696e3a20464f5242494444454e00000000000000000000000000000000\n        /* \"#utility.yul\":3838:3839   */\n      0x00\n        /* \"#utility.yul\":3830:3836   */\n      dup3\n        /* \"#utility.yul\":3826:3840   */\n      add\n        /* \"#utility.yul\":3819:3861   */\n      mstore\n        /* \"#utility.yul\":3702:3868   */\n      pop\n      jump\t// out\n        /* \"#utility.yul\":3874:3990   */\n    tag_116:\n        /* \"#utility.yul\":3944:3965   */\n      tag_170\n        /* \"#utility.yul\":3959:3964   */\n      dup2\n        /* \"#utility.yul\":3944:3965   */\n      tag_137\n      jump\t// in\n    tag_170:\n        /* \"#utility.yul\":3937:3942   */\n      dup2\n        /* \"#utility.yul\":3934:3966   */\n      eq\n        /* \"#utility.yul\":3924:3984   */\n      tag_171\n      jumpi\n        /* \"#utility.yul\":3980:3981   */\n      0x00\n        /* \"#utility.yul\":3977:3978   */\n      dup1\n        /* \"#utility.yul\":3970:3982   */\n      revert\n        /* \"#utility.yul\":3924:3984   */\n    tag_171:\n        /* \"#utility.yul\":3874:3990   */\n      pop\n      jump\t// out\n        /* \"#utility.yul\":3996:4118   */\n    tag_120:\n        /* \"#utility.yul\":4069:4093   */\n      tag_173\n        /* \"#utility.yul\":4087:4092   */\n      dup2\n        /* \"#utility.yul\":4069:4093   */\n      tag_147\n      jump\t// in\n    tag_173:\n        /* \"#utility.yul\":4062:4067   */\n      dup2\n        /* \"#utility.yul\":4059:4094   */\n      eq\n        /* \"#utility.yul\":4049:4112   */\n      tag_174\n      jumpi\n        /* \"#utility.yul\":4108:4109   */\n      0x00\n        /* \"#utility.yul\":4105:4106   */\n      dup1\n        /* \"#utility.yul\":4098:4110   */\n      revert\n        /* \"#utility.yul\":4049:4112   */\n    tag_174:\n        /* \"#utility.yul\":3996:4118   */\n      pop\n      jump\t// out\n\n    auxdata: 0xa264697066735822122039dbb52fd5a6f26707a5377f3c4f90e976ffcc0e972b9bc270c19f5ec9cd804064736f6c63430008070033\n}\n",
				"bytecode": {
					"linkReferences": {},
					"object": "608060405234801561001057600080fd5b5033600560006101000a81548173ffffffffffffffffffffffffffffffffffffffff021916908373ffffffffffffffffffffffffffffffffffffffff1602179055506109d2806100616000396000f3fe608060405234801561001057600080fd5b50600436106101215760003560e01c80637ed6281b116100ad578063ccb34a5911610071578063ccb34a59146102c2578063d44022db146102de578063d9c84e45146102fc578063db18362314610318578063f70f43941461033657610121565b80637ed6281b146102305780639b16dbf41461024e578063acaf7b5c1461026c578063c45a015514610288578063c75bc076146102a657610121565b806352687589116100f4578063526875891461019c57806355a202bb146101ba5780636565c7b7146101d857806375395f0c146101f45780637a09df061461021257610121565b80630651ab0e146101265780631a45b74c1461014457806320b6c79614610162578063342d70db14610180575b600080fd5b61012e610354565b60405161013b9190610891565b60405180910390f35b61014c61036b565b60405161015991906108cc565b60405180910390f35b61016a610375565b60405161017791906108cc565b60405180910390f35b61019a600480360381019061019591906107cc565b61037b565b005b6101a4610428565b6040516101b191906108cc565b60405180910390f35b6101c261042e565b6040516101cf91906108cc565b60405180910390f35b6101f260048036038101906101ed91906107f9565b610438565b005b6101fc6104d2565b60405161020991906108cc565b60405180910390f35b61021a6104db565b6040516102279190610891565b60405180910390f35b6102386104ee565b60405161024591906108cc565b60405180910390f35b6102566104f4565b60405161026391906108cc565b60405180910390f35b610286600480360381019061028191906107f9565b6104fe565b005b610290610598565b60405161029d9190610876565b60405180910390f35b6102c060048036038101906102bb91906107f9565b6105be565b005b6102dc60048036038101906102d791906107f9565b610658565b005b6102e66106f2565b6040516102f391906108cc565b60405180910390f35b610316600480360381019061031191906107f9565b6106f8565b005b610320610792565b60405161032d91906108cc565b60405180910390f35b61033e61079c565b60405161034b91906108cc565b60405180910390f35b6000600560149054906101000a900460ff16905090565b6000600454905090565b60045481565b600560009054906101000a900473ffffffffffffffffffffffffffffffffffffffff1673ffffffffffffffffffffffffffffffffffffffff163373ffffffffffffffffffffffffffffffffffffffff161461040b576040517f08c379a0000000000000000000000000000000000000000000000000000000008152600401610402906108ac565b60405180910390fd5b80600560146101000a81548160ff02191690831515021790555050565b60035481565b6000600154905090565b600560009054906101000a900473ffffffffffffffffffffffffffffffffffffffff1673ffffffffffffffffffffffffffffffffffffffff163373ffffffffffffffffffffffffffffffffffffffff16146104c8576040517f08c379a00000000000000000000000000000000000000000000000000000000081526004016104bf906108ac565b60405180910390fd5b8060048190555050565b60008054905090565b600560149054906101000a900460ff1681565b60025481565b6000600354905090565b600560009054906101000a900473ffffffffffffffffffffffffffffffffffffffff1673ffffffffffffffffffffffffffffffffffffffff163373ffffffffffffffffffffffffffffffffffffffff161461058e576040517f08c379a0000000000000000000000000000000000000000000000000000000008152600401610585906108ac565b60405180910390fd5b8060028190555050565b600560009054906101000a900473ffffffffffffffffffffffffffffffffffffffff1681565b600560009054906101000a900473ffffffffffffffffffffffffffffffffffffffff1673ffffffffffffffffffffffffffffffffffffffff163373ffffffffffffffffffffffffffffffffffffffff161461064e576040517f08c379a0000000000000000000000000000000000000000000000000000000008152600401610645906108ac565b60405180910390fd5b8060018190555050565b600560009054906101000a900473ffffffffffffffffffffffffffffffffffffffff1673ffffffffffffffffffffffffffffffffffffffff163373ffffffffffffffffffffffffffffffffffffffff16146106e8576040517f08c379a00000000000000000000000000000000000000000000000000000000081526004016106df906108ac565b60405180910390fd5b8060038190555050565b60015481565b600560009054906101000a900473ffffffffffffffffffffffffffffffffffffffff1673ffffffffffffffffffffffffffffffffffffffff163373ffffffffffffffffffffffffffffffffffffffff1614610788576040517f08c379a000000000000000000000000000000000000000000000000000000000815260040161077f906108ac565b60405180910390fd5b8060008190555050565b6000600254905090565b60005481565b6000813590506107b18161096e565b92915050565b6000813590506107c681610985565b92915050565b6000602082840312156107e2576107e1610940565b5b60006107f0848285016107a2565b91505092915050565b60006020828403121561080f5761080e610940565b5b600061081d848285016107b7565b91505092915050565b61082f816108f8565b82525050565b61083e8161090a565b82525050565b60006108516010836108e7565b915061085c82610945565b602082019050919050565b61087081610936565b82525050565b600060208201905061088b6000830184610826565b92915050565b60006020820190506108a66000830184610835565b92915050565b600060208201905081810360008301526108c581610844565b9050919050565b60006020820190506108e16000830184610867565b92915050565b600082825260208201905092915050565b600061090382610916565b9050919050565b60008115159050919050565b600073ffffffffffffffffffffffffffffffffffffffff82169050919050565b6000819050919050565b600080fd5b7f51696c696e3a20464f5242494444454e00000000000000000000000000000000600082015250565b6109778161090a565b811461098257600080fd5b50565b61098e81610936565b811461099957600080fd5b5056fea264697066735822122039dbb52fd5a6f26707a5377f3c4f90e976ffcc0e972b9bc270c19f5ec9cd804064736f6c63430008070033",
					"opcodes": "PUSH1 0x80 PUSH1 0x40 MSTORE CALLVALUE DUP1 ISZERO PUSH2 0x10 JUMPI PUSH1 0x0 DUP1 REVERT JUMPDEST POP CALLER PUSH1 0x5 PUSH1 0x0 PUSH2 0x100 EXP DUP2 SLOAD DUP2 PUSH20 0xFFFFFFFFFFFFFFFFFFFFFFFFFFFFFFFFFFFFFFFF MUL NOT AND SWAP1 DUP4 PUSH20 0xFFFFFFFFFFFFFFFFFFFFFFFFFFFFFFFFFFFFFFFF AND MUL OR SWAP1 SSTORE POP PUSH2 0x9D2 DUP1 PUSH2 0x61 PUSH1 0x0 CODECOPY PUSH1 0x0 RETURN INVALID PUSH1 0x80 PUSH1 0x40 MSTORE CALLVALUE DUP1 ISZERO PUSH2 0x10 JUMPI PUSH1 0x0 DUP1 REVERT JUMPDEST POP PUSH1 0x4 CALLDATASIZE LT PUSH2 0x121 JUMPI PUSH1 0x0 CALLDATALOAD PUSH1 0xE0 SHR DUP1 PUSH4 0x7ED6281B GT PUSH2 0xAD JUMPI DUP1 PUSH4 0xCCB34A59 GT PUSH2 0x71 JUMPI DUP1 PUSH4 0xCCB34A59 EQ PUSH2 0x2C2 JUMPI DUP1 PUSH4 0xD44022DB EQ PUSH2 0x2DE JUMPI DUP1 PUSH4 0xD9C84E45 EQ PUSH2 0x2FC JUMPI DUP1 PUSH4 0xDB183623 EQ PUSH2 0x318 JUMPI DUP1 PUSH4 0xF70F4394 EQ PUSH2 0x336 JUMPI PUSH2 0x121 JUMP JUMPDEST DUP1 PUSH4 0x7ED6281B EQ PUSH2 0x230 JUMPI DUP1 PUSH4 0x9B16DBF4 EQ PUSH2 0x24E JUMPI DUP1 PUSH4 0xACAF7B5C EQ PUSH2 0x26C JUMPI DUP1 PUSH4 0xC45A0155 EQ PUSH2 0x288 JUMPI DUP1 PUSH4 0xC75BC076 EQ PUSH2 0x2A6 JUMPI PUSH2 0x121 JUMP JUMPDEST DUP1 PUSH4 0x52687589 GT PUSH2 0xF4 JUMPI DUP1 PUSH4 0x52687589 EQ PUSH2 0x19C JUMPI DUP1 PUSH4 0x55A202BB EQ PUSH2 0x1BA JUMPI DUP1 PUSH4 0x6565C7B7 EQ PUSH2 0x1D8 JUMPI DUP1 PUSH4 0x75395F0C EQ PUSH2 0x1F4 JUMPI DUP1 PUSH4 0x7A09DF06 EQ PUSH2 0x212 JUMPI PUSH2 0x121 JUMP JUMPDEST DUP1 PUSH4 0x651AB0E EQ PUSH2 0x126 JUMPI DUP1 PUSH4 0x1A45B74C EQ PUSH2 0x144 JUMPI DUP1 PUSH4 0x20B6C796 EQ PUSH2 0x162 JUMPI DUP1 PUSH4 0x342D70DB EQ PUSH2 0x180 JUMPI JUMPDEST PUSH1 0x0 DUP1 REVERT JUMPDEST PUSH2 0x12E PUSH2 0x354 JUMP JUMPDEST PUSH1 0x40 MLOAD PUSH2 0x13B SWAP2 SWAP1 PUSH2 0x891 JUMP JUMPDEST PUSH1 0x40 MLOAD DUP1 SWAP2 SUB SWAP1 RETURN JUMPDEST PUSH2 0x14C PUSH2 0x36B JUMP JUMPDEST PUSH1 0x40 MLOAD PUSH2 0x159 SWAP2 SWAP1 PUSH2 0x8CC JUMP JUMPDEST PUSH1 0x40 MLOAD DUP1 SWAP2 SUB SWAP1 RETURN JUMPDEST PUSH2 0x16A PUSH2 0x375 JUMP JUMPDEST PUSH1 0x40 MLOAD PUSH2 0x177 SWAP2 SWAP1 PUSH2 0x8CC JUMP JUMPDEST PUSH1 0x40 MLOAD DUP1 SWAP2 SUB SWAP1 RETURN JUMPDEST PUSH2 0x19A PUSH1 0x4 DUP1 CALLDATASIZE SUB DUP2 ADD SWAP1 PUSH2 0x195 SWAP2 SWAP1 PUSH2 0x7CC JUMP JUMPDEST PUSH2 0x37B JUMP JUMPDEST STOP JUMPDEST PUSH2 0x1A4 PUSH2 0x428 JUMP JUMPDEST PUSH1 0x40 MLOAD PUSH2 0x1B1 SWAP2 SWAP1 PUSH2 0x8CC JUMP JUMPDEST PUSH1 0x40 MLOAD DUP1 SWAP2 SUB SWAP1 RETURN JUMPDEST PUSH2 0x1C2 PUSH2 0x42E JUMP JUMPDEST PUSH1 0x40 MLOAD PUSH2 0x1CF SWAP2 SWAP1 PUSH2 0x8CC JUMP JUMPDEST PUSH1 0x40 MLOAD DUP1 SWAP2 SUB SWAP1 RETURN JUMPDEST PUSH2 0x1F2 PUSH1 0x4 DUP1 CALLDATASIZE SUB DUP2 ADD SWAP1 PUSH2 0x1ED SWAP2 SWAP1 PUSH2 0x7F9 JUMP JUMPDEST PUSH2 0x438 JUMP JUMPDEST STOP JUMPDEST PUSH2 0x1FC PUSH2 0x4D2 JUMP JUMPDEST PUSH1 0x40 MLOAD PUSH2 0x209 SWAP2 SWAP1 PUSH2 0x8CC JUMP JUMPDEST PUSH1 0x40 MLOAD DUP1 SWAP2 SUB SWAP1 RETURN JUMPDEST PUSH2 0x21A PUSH2 0x4DB JUMP JUMPDEST PUSH1 0x40 MLOAD PUSH2 0x227 SWAP2 SWAP1 PUSH2 0x891 JUMP JUMPDEST PUSH1 0x40 MLOAD DUP1 SWAP2 SUB SWAP1 RETURN JUMPDEST PUSH2 0x238 PUSH2 0x4EE JUMP JUMPDEST PUSH1 0x40 MLOAD PUSH2 0x245 SWAP2 SWAP1 PUSH2 0x8CC JUMP JUMPDEST PUSH1 0x40 MLOAD DUP1 SWAP2 SUB SWAP1 RETURN JUMPDEST PUSH2 0x256 PUSH2 0x4F4 JUMP JUMPDEST PUSH1 0x40 MLOAD PUSH2 0x263 SWAP2 SWAP1 PUSH2 0x8CC JUMP JUMPDEST PUSH1 0x40 MLOAD DUP1 SWAP2 SUB SWAP1 RETURN JUMPDEST PUSH2 0x286 PUSH1 0x4 DUP1 CALLDATASIZE SUB DUP2 ADD SWAP1 PUSH2 0x281 SWAP2 SWAP1 PUSH2 0x7F9 JUMP JUMPDEST PUSH2 0x4FE JUMP JUMPDEST STOP JUMPDEST PUSH2 0x290 PUSH2 0x598 JUMP JUMPDEST PUSH1 0x40 MLOAD PUSH2 0x29D SWAP2 SWAP1 PUSH2 0x876 JUMP JUMPDEST PUSH1 0x40 MLOAD DUP1 SWAP2 SUB SWAP1 RETURN JUMPDEST PUSH2 0x2C0 PUSH1 0x4 DUP1 CALLDATASIZE SUB DUP2 ADD SWAP1 PUSH2 0x2BB SWAP2 SWAP1 PUSH2 0x7F9 JUMP JUMPDEST PUSH2 0x5BE JUMP JUMPDEST STOP JUMPDEST PUSH2 0x2DC PUSH1 0x4 DUP1 CALLDATASIZE SUB DUP2 ADD SWAP1 PUSH2 0x2D7 SWAP2 SWAP1 PUSH2 0x7F9 JUMP JUMPDEST PUSH2 0x658 JUMP JUMPDEST STOP JUMPDEST PUSH2 0x2E6 PUSH2 0x6F2 JUMP JUMPDEST PUSH1 0x40 MLOAD PUSH2 0x2F3 SWAP2 SWAP1 PUSH2 0x8CC JUMP JUMPDEST PUSH1 0x40 MLOAD DUP1 SWAP2 SUB SWAP1 RETURN JUMPDEST PUSH2 0x316 PUSH1 0x4 DUP1 CALLDATASIZE SUB DUP2 ADD SWAP1 PUSH2 0x311 SWAP2 SWAP1 PUSH2 0x7F9 JUMP JUMPDEST PUSH2 0x6F8 JUMP JUMPDEST STOP JUMPDEST PUSH2 0x320 PUSH2 0x792 JUMP JUMPDEST PUSH1 0x40 MLOAD PUSH2 0x32D SWAP2 SWAP1 PUSH2 0x8CC JUMP JUMPDEST PUSH1 0x40 MLOAD DUP1 SWAP2 SUB SWAP1 RETURN JUMPDEST PUSH2 0x33E PUSH2 0x79C JUMP JUMPDEST PUSH1 0x40 MLOAD PUSH2 0x34B SWAP2 SWAP1 PUSH2 0x8CC JUMP JUMPDEST PUSH1 0x40 MLOAD DUP1 SWAP2 SUB SWAP1 RETURN JUMPDEST PUSH1 0x0 PUSH1 0x5 PUSH1 0x14 SWAP1 SLOAD SWAP1 PUSH2 0x100 EXP SWAP1 DIV PUSH1 0xFF AND SWAP1 POP SWAP1 JUMP JUMPDEST PUSH1 0x0 PUSH1 0x4 SLOAD SWAP1 POP SWAP1 JUMP JUMPDEST PUSH1 0x4 SLOAD DUP2 JUMP JUMPDEST PUSH1 0x5 PUSH1 0x0 SWAP1 SLOAD SWAP1 PUSH2 0x100 EXP SWAP1 DIV PUSH20 0xFFFFFFFFFFFFFFFFFFFFFFFFFFFFFFFFFFFFFFFF AND PUSH20 0xFFFFFFFFFFFFFFFFFFFFFFFFFFFFFFFFFFFFFFFF AND CALLER PUSH20 0xFFFFFFFFFFFFFFFFFFFFFFFFFFFFFFFFFFFFFFFF AND EQ PUSH2 0x40B JUMPI PUSH1 0x40 MLOAD PUSH32 0x8C379A000000000000000000000000000000000000000000000000000000000 DUP2 MSTORE PUSH1 0x4 ADD PUSH2 0x402 SWAP1 PUSH2 0x8AC JUMP JUMPDEST PUSH1 0x40 MLOAD DUP1 SWAP2 SUB SWAP1 REVERT JUMPDEST DUP1 PUSH1 0x5 PUSH1 0x14 PUSH2 0x100 EXP DUP2 SLOAD DUP2 PUSH1 0xFF MUL NOT AND SWAP1 DUP4 ISZERO ISZERO MUL OR SWAP1 SSTORE POP POP JUMP JUMPDEST PUSH1 0x3 SLOAD DUP2 JUMP JUMPDEST PUSH1 0x0 PUSH1 0x1 SLOAD SWAP1 POP SWAP1 JUMP JUMPDEST PUSH1 0x5 PUSH1 0x0 SWAP1 SLOAD SWAP1 PUSH2 0x100 EXP SWAP1 DIV PUSH20 0xFFFFFFFFFFFFFFFFFFFFFFFFFFFFFFFFFFFFFFFF AND PUSH20 0xFFFFFFFFFFFFFFFFFFFFFFFFFFFFFFFFFFFFFFFF AND CALLER PUSH20 0xFFFFFFFFFFFFFFFFFFFFFFFFFFFFFFFFFFFFFFFF AND EQ PUSH2 0x4C8 JUMPI PUSH1 0x40 MLOAD PUSH32 0x8C379A000000000000000000000000000000000000000000000000000000000 DUP2 MSTORE PUSH1 0x4 ADD PUSH2 0x4BF SWAP1 PUSH2 0x8AC JUMP JUMPDEST PUSH1 0x40 MLOAD DUP1 SWAP2 SUB SWAP1 REVERT JUMPDEST DUP1 PUSH1 0x4 DUP2 SWAP1 SSTORE POP POP JUMP JUMPDEST PUSH1 0x0 DUP1 SLOAD SWAP1 POP SWAP1 JUMP JUMPDEST PUSH1 0x5 PUSH1 0x14 SWAP1 SLOAD SWAP1 PUSH2 0x100 EXP SWAP1 DIV PUSH1 0xFF AND DUP2 JUMP JUMPDEST PUSH1 0x2 SLOAD DUP2 JUMP JUMPDEST PUSH1 0x0 PUSH1 0x3 SLOAD SWAP1 POP SWAP1 JUMP JUMPDEST PUSH1 0x5 PUSH1 0x0 SWAP1 SLOAD SWAP1 PUSH2 0x100 EXP SWAP1 DIV PUSH20 0xFFFFFFFFFFFFFFFFFFFFFFFFFFFFFFFFFFFFFFFF AND PUSH20 0xFFFFFFFFFFFFFFFFFFFFFFFFFFFFFFFFFFFFFFFF AND CALLER PUSH20 0xFFFFFFFFFFFFFFFFFFFFFFFFFFFFFFFFFFFFFFFF AND EQ PUSH2 0x58E JUMPI PUSH1 0x40 MLOAD PUSH32 0x8C379A000000000000000000000000000000000000000000000000000000000 DUP2 MSTORE PUSH1 0x4 ADD PUSH2 0x585 SWAP1 PUSH2 0x8AC JUMP JUMPDEST PUSH1 0x40 MLOAD DUP1 SWAP2 SUB SWAP1 REVERT JUMPDEST DUP1 PUSH1 0x2 DUP2 SWAP1 SSTORE POP POP JUMP JUMPDEST PUSH1 0x5 PUSH1 0x0 SWAP1 SLOAD SWAP1 PUSH2 0x100 EXP SWAP1 DIV PUSH20 0xFFFFFFFFFFFFFFFFFFFFFFFFFFFFFFFFFFFFFFFF AND DUP2 JUMP JUMPDEST PUSH1 0x5 PUSH1 0x0 SWAP1 SLOAD SWAP1 PUSH2 0x100 EXP SWAP1 DIV PUSH20 0xFFFFFFFFFFFFFFFFFFFFFFFFFFFFFFFFFFFFFFFF AND PUSH20 0xFFFFFFFFFFFFFFFFFFFFFFFFFFFFFFFFFFFFFFFF AND CALLER PUSH20 0xFFFFFFFFFFFFFFFFFFFFFFFFFFFFFFFFFFFFFFFF AND EQ PUSH2 0x64E JUMPI PUSH1 0x40 MLOAD PUSH32 0x8C379A000000000000000000000000000000000000000000000000000000000 DUP2 MSTORE PUSH1 0x4 ADD PUSH2 0x645 SWAP1 PUSH2 0x8AC JUMP JUMPDEST PUSH1 0x40 MLOAD DUP1 SWAP2 SUB SWAP1 REVERT JUMPDEST DUP1 PUSH1 0x1 DUP2 SWAP1 SSTORE POP POP JUMP JUMPDEST PUSH1 0x5 PUSH1 0x0 SWAP1 SLOAD SWAP1 PUSH2 0x100 EXP SWAP1 DIV PUSH20 0xFFFFFFFFFFFFFFFFFFFFFFFFFFFFFFFFFFFFFFFF AND PUSH20 0xFFFFFFFFFFFFFFFFFFFFFFFFFFFFFFFFFFFFFFFF AND CALLER PUSH20 0xFFFFFFFFFFFFFFFFFFFFFFFFFFFFFFFFFFFFFFFF AND EQ PUSH2 0x6E8 JUMPI PUSH1 0x40 MLOAD PUSH32 0x8C379A000000000000000000000000000000000000000000000000000000000 DUP2 MSTORE PUSH1 0x4 ADD PUSH2 0x6DF SWAP1 PUSH2 0x8AC JUMP JUMPDEST PUSH1 0x40 MLOAD DUP1 SWAP2 SUB SWAP1 REVERT JUMPDEST DUP1 PUSH1 0x3 DUP2 SWAP1 SSTORE POP POP JUMP JUMPDEST PUSH1 0x1 SLOAD DUP2 JUMP JUMPDEST PUSH1 0x5 PUSH1 0x0 SWAP1 SLOAD SWAP1 PUSH2 0x100 EXP SWAP1 DIV PUSH20 0xFFFFFFFFFFFFFFFFFFFFFFFFFFFFFFFFFFFFFFFF AND PUSH20 0xFFFFFFFFFFFFFFFFFFFFFFFFFFFFFFFFFFFFFFFF AND CALLER PUSH20 0xFFFFFFFFFFFFFFFFFFFFFFFFFFFFFFFFFFFFFFFF AND EQ PUSH2 0x788 JUMPI PUSH1 0x40 MLOAD PUSH32 0x8C379A000000000000000000000000000000000000000000000000000000000 DUP2 MSTORE PUSH1 0x4 ADD PUSH2 0x77F SWAP1 PUSH2 0x8AC JUMP JUMPDEST PUSH1 0x40 MLOAD DUP1 SWAP2 SUB SWAP1 REVERT JUMPDEST DUP1 PUSH1 0x0 DUP2 SWAP1 SSTORE POP POP JUMP JUMPDEST PUSH1 0x0 PUSH1 0x2 SLOAD SWAP1 POP SWAP1 JUMP JUMPDEST PUSH1 0x0 SLOAD DUP2 JUMP JUMPDEST PUSH1 0x0 DUP2 CALLDATALOAD SWAP1 POP PUSH2 0x7B1 DUP2 PUSH2 0x96E JUMP JUMPDEST SWAP3 SWAP2 POP POP JUMP JUMPDEST PUSH1 0x0 DUP2 CALLDATALOAD SWAP1 POP PUSH2 0x7C6 DUP2 PUSH2 0x985 JUMP JUMPDEST SWAP3 SWAP2 POP POP JUMP JUMPDEST PUSH1 0x0 PUSH1 0x20 DUP3 DUP5 SUB SLT ISZERO PUSH2 0x7E2 JUMPI PUSH2 0x7E1 PUSH2 0x940 JUMP JUMPDEST JUMPDEST PUSH1 0x0 PUSH2 0x7F0 DUP5 DUP3 DUP6 ADD PUSH2 0x7A2 JUMP JUMPDEST SWAP2 POP POP SWAP3 SWAP2 POP POP JUMP JUMPDEST PUSH1 0x0 PUSH1 0x20 DUP3 DUP5 SUB SLT ISZERO PUSH2 0x80F JUMPI PUSH2 0x80E PUSH2 0x940 JUMP JUMPDEST JUMPDEST PUSH1 0x0 PUSH2 0x81D DUP5 DUP3 DUP6 ADD PUSH2 0x7B7 JUMP JUMPDEST SWAP2 POP POP SWAP3 SWAP2 POP POP JUMP JUMPDEST PUSH2 0x82F DUP2 PUSH2 0x8F8 JUMP JUMPDEST DUP3 MSTORE POP POP JUMP JUMPDEST PUSH2 0x83E DUP2 PUSH2 0x90A JUMP JUMPDEST DUP3 MSTORE POP POP JUMP JUMPDEST PUSH1 0x0 PUSH2 0x851 PUSH1 0x10 DUP4 PUSH2 0x8E7 JUMP JUMPDEST SWAP2 POP PUSH2 0x85C DUP3 PUSH2 0x945 JUMP JUMPDEST PUSH1 0x20 DUP3 ADD SWAP1 POP SWAP2 SWAP1 POP JUMP JUMPDEST PUSH2 0x870 DUP2 PUSH2 0x936 JUMP JUMPDEST DUP3 MSTORE POP POP JUMP JUMPDEST PUSH1 0x0 PUSH1 0x20 DUP3 ADD SWAP1 POP PUSH2 0x88B PUSH1 0x0 DUP4 ADD DUP5 PUSH2 0x826 JUMP JUMPDEST SWAP3 SWAP2 POP POP JUMP JUMPDEST PUSH1 0x0 PUSH1 0x20 DUP3 ADD SWAP1 POP PUSH2 0x8A6 PUSH1 0x0 DUP4 ADD DUP5 PUSH2 0x835 JUMP JUMPDEST SWAP3 SWAP2 POP POP JUMP JUMPDEST PUSH1 0x0 PUSH1 0x20 DUP3 ADD SWAP1 POP DUP2 DUP2 SUB PUSH1 0x0 DUP4 ADD MSTORE PUSH2 0x8C5 DUP2 PUSH2 0x844 JUMP JUMPDEST SWAP1 POP SWAP2 SWAP1 POP JUMP JUMPDEST PUSH1 0x0 PUSH1 0x20 DUP3 ADD SWAP1 POP PUSH2 0x8E1 PUSH1 0x0 DUP4 ADD DUP5 PUSH2 0x867 JUMP JUMPDEST SWAP3 SWAP2 POP POP JUMP JUMPDEST PUSH1 0x0 DUP3 DUP3 MSTORE PUSH1 0x20 DUP3 ADD SWAP1 POP SWAP3 SWAP2 POP POP JUMP JUMPDEST PUSH1 0x0 PUSH2 0x903 DUP3 PUSH2 0x916 JUMP JUMPDEST SWAP1 POP SWAP2 SWAP1 POP JUMP JUMPDEST PUSH1 0x0 DUP2 ISZERO ISZERO SWAP1 POP SWAP2 SWAP1 POP JUMP JUMPDEST PUSH1 0x0 PUSH20 0xFFFFFFFFFFFFFFFFFFFFFFFFFFFFFFFFFFFFFFFF DUP3 AND SWAP1 POP SWAP2 SWAP1 POP JUMP JUMPDEST PUSH1 0x0 DUP2 SWAP1 POP SWAP2 SWAP1 POP JUMP JUMPDEST PUSH1 0x0 DUP1 REVERT JUMPDEST PUSH32 0x51696C696E3A20464F5242494444454E00000000000000000000000000000000 PUSH1 0x0 DUP3 ADD MSTORE POP JUMP JUMPDEST PUSH2 0x977 DUP2 PUSH2 0x90A JUMP JUMPDEST DUP2 EQ PUSH2 0x982 JUMPI PUSH1 0x0 DUP1 REVERT JUMPDEST POP JUMP JUMPDEST PUSH2 0x98E DUP2 PUSH2 0x936 JUMP JUMPDEST DUP2 EQ PUSH2 0x999 JUMPI PUSH1 0x0 DUP1 REVERT JUMPDEST POP JUMP INVALID LOG2 PUSH5 0x6970667358 0x22 SLT KECCAK256 CODECOPY 0xDB 0xB5 0x2F 0xD5 0xA6 CALLCODE PUSH8 0x7A5377F3C4F90E9 PUSH23 0xFFCC0E972B9BC270C19F5EC9CD804064736F6C63430008 SMOD STOP CALLER "
				},
				"gasEstimates": {
					"creation": {
						"codeDepositCost": "502800",
						"executionCost": "24803",
						"totalCost": "527603"
					},
					"external": {
						"Base_rate()": "2452",
						"Get_Liquidation_bonus()": "2526",
						"Get_baserate()": "2525",
						"Get_margintypes()": "2553",
						"Get_perpfee()": "2483",
						"Get_swapfee()": "2482",
						"Get_tickrange()": "2482",
						"Liquidation_bonus()": "2539",
						"Set_Liquidation_bonus(uint256)": "24756",
						"Set_baserate(uint256)": "24757",
						"Set_perpfee(uint256)": "24757",
						"Set_swapfee(uint256)": "24712",
						"Set_tickrange(uint256)": "24801",
						"Tick_range()": "2473",
						"Two_white()": "2632",
						"factory()": "2603",
						"perp_fee()": "2497",
						"swap_fee()": "2452",
						"update_margintypes(bool)": "26989"
					}
				},
				"methodIdentifiers": {
					"Base_rate()": "7ed6281b",
					"Get_Liquidation_bonus()": "75395f0c",
					"Get_baserate()": "db183623",
					"Get_margintypes()": "0651ab0e",
					"Get_perpfee()": "1a45b74c",
					"Get_swapfee()": "9b16dbf4",
					"Get_tickrange()": "55a202bb",
					"Liquidation_bonus()": "f70f4394",
					"Set_Liquidation_bonus(uint256)": "d9c84e45",
					"Set_baserate(uint256)": "acaf7b5c",
					"Set_perpfee(uint256)": "6565c7b7",
					"Set_swapfee(uint256)": "ccb34a59",
					"Set_tickrange(uint256)": "c75bc076",
					"Tick_range()": "d44022db",
					"Two_white()": "7a09df06",
					"factory()": "c45a0155",
					"perp_fee()": "20b6c796",
					"swap_fee()": "52687589",
					"update_margintypes(bool)": "342d70db"
				}
			},
			"storageLayout": {
				"storage": [
					{
						"astId": 3,
						"contract": "Qilin/Qilin_global_parameters.sol:global",
						"label": "Liquidation_bonus",
						"offset": 0,
						"slot": "0",
						"type": "t_uint256"
					},
					{
						"astId": 5,
						"contract": "Qilin/Qilin_global_parameters.sol:global",
						"label": "Tick_range",
						"offset": 0,
						"slot": "1",
						"type": "t_uint256"
					},
					{
						"astId": 7,
						"contract": "Qilin/Qilin_global_parameters.sol:global",
						"label": "Base_rate",
						"offset": 0,
						"slot": "2",
						"type": "t_uint256"
					},
					{
						"astId": 9,
						"contract": "Qilin/Qilin_global_parameters.sol:global",
						"label": "swap_fee",
						"offset": 0,
						"slot": "3",
						"type": "t_uint256"
					},
					{
						"astId": 11,
						"contract": "Qilin/Qilin_global_parameters.sol:global",
						"label": "perp_fee",
						"offset": 0,
						"slot": "4",
						"type": "t_uint256"
					},
					{
						"astId": 13,
						"contract": "Qilin/Qilin_global_parameters.sol:global",
						"label": "factory",
						"offset": 0,
						"slot": "5",
						"type": "t_address"
					},
					{
						"astId": 15,
						"contract": "Qilin/Qilin_global_parameters.sol:global",
						"label": "Two_white",
						"offset": 20,
						"slot": "5",
						"type": "t_bool"
					}
				],
				"types": {
					"t_address": {
						"encoding": "inplace",
						"label": "address",
						"numberOfBytes": "20"
					},
					"t_bool": {
						"encoding": "inplace",
						"label": "bool",
						"numberOfBytes": "1"
					},
					"t_uint256": {
						"encoding": "inplace",
						"label": "uint256",
						"numberOfBytes": "32"
					}
				}
			},
			"userdoc": {
				"kind": "user",
				"methods": {},
				"version": 1
			}
		}
	}
}