{
	"Qilin/Qilin_Allstate_parameters.sol": {
		"allstate_parameters": {
			"abi": [
				{
					"inputs": [],
					"stateMutability": "nonpayable",
					"type": "constructor"
				},
				{
					"inputs": [],
					"name": "Base_rate",
					"outputs": [
						{
							"internalType": "uint256",
							"name": "",
							"type": "uint256"
						}
					],
					"stateMutability": "view",
					"type": "function"
				},
				{
					"inputs": [],
					"name": "Liquidation_bonus",
					"outputs": [
						{
							"internalType": "uint256",
							"name": "",
							"type": "uint256"
						}
					],
					"stateMutability": "view",
					"type": "function"
				},
				{
					"inputs": [
						{
							"internalType": "uint256",
							"name": "",
							"type": "uint256"
						}
					],
					"name": "Margin_tpyes",
					"outputs": [
						{
							"internalType": "address",
							"name": "",
							"type": "address"
						}
					],
					"stateMutability": "view",
					"type": "function"
				},
				{
					"inputs": [
						{
							"internalType": "uint256",
							"name": "rate",
							"type": "uint256"
						}
					],
					"name": "Set_Liquidation_bonus",
					"outputs": [],
					"stateMutability": "nonpayable",
					"type": "function"
				},
				{
					"inputs": [
						{
							"internalType": "uint256",
							"name": "baserate",
							"type": "uint256"
						}
					],
					"name": "Set_baserate",
					"outputs": [],
					"stateMutability": "nonpayable",
					"type": "function"
				},
				{
					"inputs": [
						{
							"internalType": "uint256",
							"name": "perpfee",
							"type": "uint256"
						}
					],
					"name": "Set_perpfee",
					"outputs": [],
					"stateMutability": "nonpayable",
					"type": "function"
				},
				{
					"inputs": [
						{
							"internalType": "uint256",
							"name": "swapfee",
							"type": "uint256"
						}
					],
					"name": "Set_swapfee",
					"outputs": [],
					"stateMutability": "nonpayable",
					"type": "function"
				},
				{
					"inputs": [
						{
							"internalType": "uint256",
							"name": "tickrange",
							"type": "uint256"
						}
					],
					"name": "Set_tickrange",
					"outputs": [],
					"stateMutability": "nonpayable",
					"type": "function"
				},
				{
					"inputs": [],
					"name": "Tick_range",
					"outputs": [
						{
							"internalType": "uint256",
							"name": "",
							"type": "uint256"
						}
					],
					"stateMutability": "view",
					"type": "function"
				},
				{
					"inputs": [],
					"name": "factory",
					"outputs": [
						{
							"internalType": "address",
							"name": "",
							"type": "address"
						}
					],
					"stateMutability": "view",
					"type": "function"
				},
				{
					"inputs": [],
					"name": "perp_fee",
					"outputs": [
						{
							"internalType": "uint256",
							"name": "",
							"type": "uint256"
						}
					],
					"stateMutability": "view",
					"type": "function"
				},
				{
					"inputs": [],
					"name": "swap_fee",
					"outputs": [
						{
							"internalType": "uint256",
							"name": "",
							"type": "uint256"
						}
					],
					"stateMutability": "view",
					"type": "function"
				},
				{
					"inputs": [
						{
							"internalType": "address[]",
							"name": "token",
							"type": "address[]"
						}
					],
					"name": "update_margintypes",
					"outputs": [],
					"stateMutability": "nonpayable",
					"type": "function"
				}
			],
			"devdoc": {
				"kind": "dev",
				"methods": {},
				"version": 1
			},
			"evm": {
				"assembly": "    /* \"Qilin/Qilin_Allstate_parameters.sol\":25:1524  contract allstate_parameters{\r... */\n  mstore(0x40, 0x80)\n    /* \"Qilin/Qilin_Allstate_parameters.sol\":307:367  constructor() public {\r... */\n  callvalue\n  dup1\n  iszero\n  tag_1\n  jumpi\n  0x00\n  dup1\n  revert\ntag_1:\n  pop\n    /* \"Qilin/Qilin_Allstate_parameters.sol\":349:359  msg.sender */\n  caller\n    /* \"Qilin/Qilin_Allstate_parameters.sol\":339:346  factory */\n  0x06\n  0x00\n    /* \"Qilin/Qilin_Allstate_parameters.sol\":339:359  factory = msg.sender */\n  0x0100\n  exp\n  dup2\n  sload\n  dup2\n  0xffffffffffffffffffffffffffffffffffffffff\n  mul\n  not\n  and\n  swap1\n  dup4\n  0xffffffffffffffffffffffffffffffffffffffff\n  and\n  mul\n  or\n  swap1\n  sstore\n  pop\n    /* \"Qilin/Qilin_Allstate_parameters.sol\":25:1524  contract allstate_parameters{\r... */\n  dataSize(sub_0)\n  dup1\n  dataOffset(sub_0)\n  0x00\n  codecopy\n  0x00\n  return\nstop\n\nsub_0: assembly {\n        /* \"Qilin/Qilin_Allstate_parameters.sol\":25:1524  contract allstate_parameters{\r... */\n      mstore(0x40, 0x80)\n      callvalue\n      dup1\n      iszero\n      tag_1\n      jumpi\n      0x00\n      dup1\n      revert\n    tag_1:\n      pop\n      jumpi(tag_2, lt(calldatasize, 0x04))\n      shr(0xe0, calldataload(0x00))\n      dup1\n      0xc45a0155\n      gt\n      tag_16\n      jumpi\n      dup1\n      0xd44022db\n      gt\n      tag_17\n      jumpi\n      dup1\n      0xd44022db\n      eq\n      tag_12\n      jumpi\n      dup1\n      0xd9c84e45\n      eq\n      tag_13\n      jumpi\n      dup1\n      0xda5604ce\n      eq\n      tag_14\n      jumpi\n      dup1\n      0xf70f4394\n      eq\n      tag_15\n      jumpi\n      jump(tag_2)\n    tag_17:\n      dup1\n      0xc45a0155\n      eq\n      tag_9\n      jumpi\n      dup1\n      0xc75bc076\n      eq\n      tag_10\n      jumpi\n      dup1\n      0xccb34a59\n      eq\n      tag_11\n      jumpi\n      jump(tag_2)\n    tag_16:\n      dup1\n      0x20b6c796\n      eq\n      tag_3\n      jumpi\n      dup1\n      0x52687589\n      eq\n      tag_4\n      jumpi\n      dup1\n      0x6565c7b7\n      eq\n      tag_5\n      jumpi\n      dup1\n      0x75929b96\n      eq\n      tag_6\n      jumpi\n      dup1\n      0x7ed6281b\n      eq\n      tag_7\n      jumpi\n      dup1\n      0xacaf7b5c\n      eq\n      tag_8\n      jumpi\n    tag_2:\n      0x00\n      dup1\n      revert\n        /* \"Qilin/Qilin_Allstate_parameters.sol\":194:217  uint256 public perp_fee */\n    tag_3:\n      tag_18\n      tag_19\n      jump\t// in\n    tag_18:\n      mload(0x40)\n      tag_20\n      swap2\n      swap1\n      tag_21\n      jump\t// in\n    tag_20:\n      mload(0x40)\n      dup1\n      swap2\n      sub\n      swap1\n      return\n        /* \"Qilin/Qilin_Allstate_parameters.sol\":164:187  uint256 public swap_fee */\n    tag_4:\n      tag_22\n      tag_23\n      jump\t// in\n    tag_22:\n      mload(0x40)\n      tag_24\n      swap2\n      swap1\n      tag_21\n      jump\t// in\n    tag_24:\n      mload(0x40)\n      dup1\n      swap2\n      sub\n      swap1\n      return\n        /* \"Qilin/Qilin_Allstate_parameters.sol\":1365:1507  function Set_perpfee(uint perpfee) external {\r... */\n    tag_5:\n      tag_25\n      0x04\n      dup1\n      calldatasize\n      sub\n      dup2\n      add\n      swap1\n      tag_26\n      swap2\n      swap1\n      tag_27\n      jump\t// in\n    tag_26:\n      tag_28\n      jump\t// in\n    tag_25:\n      stop\n        /* \"Qilin/Qilin_Allstate_parameters.sol\":798:959  function update_margintypes(address[] memory token) external {\r... */\n    tag_6:\n      tag_29\n      0x04\n      dup1\n      calldatasize\n      sub\n      dup2\n      add\n      swap1\n      tag_30\n      swap2\n      swap1\n      tag_31\n      jump\t// in\n    tag_30:\n      tag_32\n      jump\t// in\n    tag_29:\n      stop\n        /* \"Qilin/Qilin_Allstate_parameters.sol\":133:157  uint256 public Base_rate */\n    tag_7:\n      tag_33\n      tag_34\n      jump\t// in\n    tag_33:\n      mload(0x40)\n      tag_35\n      swap2\n      swap1\n      tag_21\n      jump\t// in\n    tag_35:\n      mload(0x40)\n      dup1\n      swap2\n      sub\n      swap1\n      return\n        /* \"Qilin/Qilin_Allstate_parameters.sol\":999:1145  function Set_baserate(uint baserate) external {\r... */\n    tag_8:\n      tag_36\n      0x04\n      dup1\n      calldatasize\n      sub\n      dup2\n      add\n      swap1\n      tag_37\n      swap2\n      swap1\n      tag_27\n      jump\t// in\n    tag_37:\n      tag_38\n      jump\t// in\n    tag_36:\n      stop\n        /* \"Qilin/Qilin_Allstate_parameters.sol\":260:282  address public factory */\n    tag_9:\n      tag_39\n      tag_40\n      jump\t// in\n    tag_39:\n      mload(0x40)\n      tag_41\n      swap2\n      swap1\n      tag_42\n      jump\t// in\n    tag_41:\n      mload(0x40)\n      dup1\n      swap2\n      sub\n      swap1\n      return\n        /* \"Qilin/Qilin_Allstate_parameters.sol\":611:761  function Set_tickrange(uint tickrange) external {\r... */\n    tag_10:\n      tag_43\n      0x04\n      dup1\n      calldatasize\n      sub\n      dup2\n      add\n      swap1\n      tag_44\n      swap2\n      swap1\n      tag_27\n      jump\t// in\n    tag_44:\n      tag_45\n      jump\t// in\n    tag_43:\n      stop\n        /* \"Qilin/Qilin_Allstate_parameters.sol\":1184:1326  function Set_swapfee(uint swapfee) external {\r... */\n    tag_11:\n      tag_46\n      0x04\n      dup1\n      calldatasize\n      sub\n      dup2\n      add\n      swap1\n      tag_47\n      swap2\n      swap1\n      tag_27\n      jump\t// in\n    tag_47:\n      tag_48\n      jump\t// in\n    tag_46:\n      stop\n        /* \"Qilin/Qilin_Allstate_parameters.sol\":101:126  uint256 public Tick_range */\n    tag_12:\n      tag_49\n      tag_50\n      jump\t// in\n    tag_49:\n      mload(0x40)\n      tag_51\n      swap2\n      swap1\n      tag_21\n      jump\t// in\n    tag_51:\n      mload(0x40)\n      dup1\n      swap2\n      sub\n      swap1\n      return\n        /* \"Qilin/Qilin_Allstate_parameters.sol\":415:569  function Set_Liquidation_bonus(uint rate) external{\r... */\n    tag_13:\n      tag_52\n      0x04\n      dup1\n      calldatasize\n      sub\n      dup2\n      add\n      swap1\n      tag_53\n      swap2\n      swap1\n      tag_27\n      jump\t// in\n    tag_53:\n      tag_54\n      jump\t// in\n    tag_52:\n      stop\n        /* \"Qilin/Qilin_Allstate_parameters.sol\":224:253  address[] public Margin_tpyes */\n    tag_14:\n      tag_55\n      0x04\n      dup1\n      calldatasize\n      sub\n      dup2\n      add\n      swap1\n      tag_56\n      swap2\n      swap1\n      tag_27\n      jump\t// in\n    tag_56:\n      tag_57\n      jump\t// in\n    tag_55:\n      mload(0x40)\n      tag_58\n      swap2\n      swap1\n      tag_42\n      jump\t// in\n    tag_58:\n      mload(0x40)\n      dup1\n      swap2\n      sub\n      swap1\n      return\n        /* \"Qilin/Qilin_Allstate_parameters.sol\":62:94  uint256 public Liquidation_bonus */\n    tag_15:\n      tag_59\n      tag_60\n      jump\t// in\n    tag_59:\n      mload(0x40)\n      tag_61\n      swap2\n      swap1\n      tag_21\n      jump\t// in\n    tag_61:\n      mload(0x40)\n      dup1\n      swap2\n      sub\n      swap1\n      return\n        /* \"Qilin/Qilin_Allstate_parameters.sol\":194:217  uint256 public perp_fee */\n    tag_19:\n      sload(0x04)\n      dup2\n      jump\t// out\n        /* \"Qilin/Qilin_Allstate_parameters.sol\":164:187  uint256 public swap_fee */\n    tag_23:\n      sload(0x03)\n      dup2\n      jump\t// out\n        /* \"Qilin/Qilin_Allstate_parameters.sol\":1365:1507  function Set_perpfee(uint perpfee) external {\r... */\n    tag_28:\n        /* \"Qilin/Qilin_Allstate_parameters.sol\":1442:1449  factory */\n      0x06\n      0x00\n      swap1\n      sload\n      swap1\n      0x0100\n      exp\n      swap1\n      div\n      0xffffffffffffffffffffffffffffffffffffffff\n      and\n        /* \"Qilin/Qilin_Allstate_parameters.sol\":1428:1449  msg.sender == factory */\n      0xffffffffffffffffffffffffffffffffffffffff\n      and\n        /* \"Qilin/Qilin_Allstate_parameters.sol\":1428:1438  msg.sender */\n      caller\n        /* \"Qilin/Qilin_Allstate_parameters.sol\":1428:1449  msg.sender == factory */\n      0xffffffffffffffffffffffffffffffffffffffff\n      and\n      eq\n        /* \"Qilin/Qilin_Allstate_parameters.sol\":1420:1470  require(msg.sender == factory, 'Qilin: FORBIDDEN') */\n      tag_63\n      jumpi\n      mload(0x40)\n      0x08c379a000000000000000000000000000000000000000000000000000000000\n      dup2\n      mstore\n      0x04\n      add\n      tag_64\n      swap1\n      tag_65\n      jump\t// in\n    tag_64:\n      mload(0x40)\n      dup1\n      swap2\n      sub\n      swap1\n      revert\n    tag_63:\n        /* \"Qilin/Qilin_Allstate_parameters.sol\":1492:1499  perpfee */\n      dup1\n        /* \"Qilin/Qilin_Allstate_parameters.sol\":1481:1489  perp_fee */\n      0x04\n        /* \"Qilin/Qilin_Allstate_parameters.sol\":1481:1499  perp_fee = perpfee */\n      dup2\n      swap1\n      sstore\n      pop\n        /* \"Qilin/Qilin_Allstate_parameters.sol\":1365:1507  function Set_perpfee(uint perpfee) external {\r... */\n      pop\n      jump\t// out\n        /* \"Qilin/Qilin_Allstate_parameters.sol\":798:959  function update_margintypes(address[] memory token) external {\r... */\n    tag_32:\n        /* \"Qilin/Qilin_Allstate_parameters.sol\":892:899  factory */\n      0x06\n      0x00\n      swap1\n      sload\n      swap1\n      0x0100\n      exp\n      swap1\n      div\n      0xffffffffffffffffffffffffffffffffffffffff\n      and\n        /* \"Qilin/Qilin_Allstate_parameters.sol\":878:899  msg.sender == factory */\n      0xffffffffffffffffffffffffffffffffffffffff\n      and\n        /* \"Qilin/Qilin_Allstate_parameters.sol\":878:888  msg.sender */\n      caller\n        /* \"Qilin/Qilin_Allstate_parameters.sol\":878:899  msg.sender == factory */\n      0xffffffffffffffffffffffffffffffffffffffff\n      and\n      eq\n        /* \"Qilin/Qilin_Allstate_parameters.sol\":870:920  require(msg.sender == factory, 'Qilin: FORBIDDEN') */\n      tag_67\n      jumpi\n      mload(0x40)\n      0x08c379a000000000000000000000000000000000000000000000000000000000\n      dup2\n      mstore\n      0x04\n      add\n      tag_68\n      swap1\n      tag_65\n      jump\t// in\n    tag_68:\n      mload(0x40)\n      dup1\n      swap2\n      sub\n      swap1\n      revert\n    tag_67:\n        /* \"Qilin/Qilin_Allstate_parameters.sol\":946:951  token */\n      dup1\n        /* \"Qilin/Qilin_Allstate_parameters.sol\":931:943  Margin_tpyes */\n      0x05\n        /* \"Qilin/Qilin_Allstate_parameters.sol\":931:951  Margin_tpyes = token */\n      swap1\n      dup1\n      mload\n      swap1\n      0x20\n      add\n      swap1\n      tag_69\n      swap3\n      swap2\n      swap1\n      tag_70\n      jump\t// in\n    tag_69:\n      pop\n        /* \"Qilin/Qilin_Allstate_parameters.sol\":798:959  function update_margintypes(address[] memory token) external {\r... */\n      pop\n      jump\t// out\n        /* \"Qilin/Qilin_Allstate_parameters.sol\":133:157  uint256 public Base_rate */\n    tag_34:\n      sload(0x02)\n      dup2\n      jump\t// out\n        /* \"Qilin/Qilin_Allstate_parameters.sol\":999:1145  function Set_baserate(uint baserate) external {\r... */\n    tag_38:\n        /* \"Qilin/Qilin_Allstate_parameters.sol\":1078:1085  factory */\n      0x06\n      0x00\n      swap1\n      sload\n      swap1\n      0x0100\n      exp\n      swap1\n      div\n      0xffffffffffffffffffffffffffffffffffffffff\n      and\n        /* \"Qilin/Qilin_Allstate_parameters.sol\":1064:1085  msg.sender == factory */\n      0xffffffffffffffffffffffffffffffffffffffff\n      and\n        /* \"Qilin/Qilin_Allstate_parameters.sol\":1064:1074  msg.sender */\n      caller\n        /* \"Qilin/Qilin_Allstate_parameters.sol\":1064:1085  msg.sender == factory */\n      0xffffffffffffffffffffffffffffffffffffffff\n      and\n      eq\n        /* \"Qilin/Qilin_Allstate_parameters.sol\":1056:1106  require(msg.sender == factory, 'Qilin: FORBIDDEN') */\n      tag_72\n      jumpi\n      mload(0x40)\n      0x08c379a000000000000000000000000000000000000000000000000000000000\n      dup2\n      mstore\n      0x04\n      add\n      tag_73\n      swap1\n      tag_65\n      jump\t// in\n    tag_73:\n      mload(0x40)\n      dup1\n      swap2\n      sub\n      swap1\n      revert\n    tag_72:\n        /* \"Qilin/Qilin_Allstate_parameters.sol\":1129:1137  baserate */\n      dup1\n        /* \"Qilin/Qilin_Allstate_parameters.sol\":1117:1126  Base_rate */\n      0x02\n        /* \"Qilin/Qilin_Allstate_parameters.sol\":1117:1137  Base_rate = baserate */\n      dup2\n      swap1\n      sstore\n      pop\n        /* \"Qilin/Qilin_Allstate_parameters.sol\":999:1145  function Set_baserate(uint baserate) external {\r... */\n      pop\n      jump\t// out\n        /* \"Qilin/Qilin_Allstate_parameters.sol\":260:282  address public factory */\n    tag_40:\n      0x06\n      0x00\n      swap1\n      sload\n      swap1\n      0x0100\n      exp\n      swap1\n      div\n      0xffffffffffffffffffffffffffffffffffffffff\n      and\n      dup2\n      jump\t// out\n        /* \"Qilin/Qilin_Allstate_parameters.sol\":611:761  function Set_tickrange(uint tickrange) external {\r... */\n    tag_45:\n        /* \"Qilin/Qilin_Allstate_parameters.sol\":692:699  factory */\n      0x06\n      0x00\n      swap1\n      sload\n      swap1\n      0x0100\n      exp\n      swap1\n      div\n      0xffffffffffffffffffffffffffffffffffffffff\n      and\n        /* \"Qilin/Qilin_Allstate_parameters.sol\":678:699  msg.sender == factory */\n      0xffffffffffffffffffffffffffffffffffffffff\n      and\n        /* \"Qilin/Qilin_Allstate_parameters.sol\":678:688  msg.sender */\n      caller\n        /* \"Qilin/Qilin_Allstate_parameters.sol\":678:699  msg.sender == factory */\n      0xffffffffffffffffffffffffffffffffffffffff\n      and\n      eq\n        /* \"Qilin/Qilin_Allstate_parameters.sol\":670:720  require(msg.sender == factory, 'Qilin: FORBIDDEN') */\n      tag_75\n      jumpi\n      mload(0x40)\n      0x08c379a000000000000000000000000000000000000000000000000000000000\n      dup2\n      mstore\n      0x04\n      add\n      tag_76\n      swap1\n      tag_65\n      jump\t// in\n    tag_76:\n      mload(0x40)\n      dup1\n      swap2\n      sub\n      swap1\n      revert\n    tag_75:\n        /* \"Qilin/Qilin_Allstate_parameters.sol\":744:753  tickrange */\n      dup1\n        /* \"Qilin/Qilin_Allstate_parameters.sol\":731:741  Tick_range */\n      0x01\n        /* \"Qilin/Qilin_Allstate_parameters.sol\":731:753  Tick_range = tickrange */\n      dup2\n      swap1\n      sstore\n      pop\n        /* \"Qilin/Qilin_Allstate_parameters.sol\":611:761  function Set_tickrange(uint tickrange) external {\r... */\n      pop\n      jump\t// out\n        /* \"Qilin/Qilin_Allstate_parameters.sol\":1184:1326  function Set_swapfee(uint swapfee) external {\r... */\n    tag_48:\n        /* \"Qilin/Qilin_Allstate_parameters.sol\":1261:1268  factory */\n      0x06\n      0x00\n      swap1\n      sload\n      swap1\n      0x0100\n      exp\n      swap1\n      div\n      0xffffffffffffffffffffffffffffffffffffffff\n      and\n        /* \"Qilin/Qilin_Allstate_parameters.sol\":1247:1268  msg.sender == factory */\n      0xffffffffffffffffffffffffffffffffffffffff\n      and\n        /* \"Qilin/Qilin_Allstate_parameters.sol\":1247:1257  msg.sender */\n      caller\n        /* \"Qilin/Qilin_Allstate_parameters.sol\":1247:1268  msg.sender == factory */\n      0xffffffffffffffffffffffffffffffffffffffff\n      and\n      eq\n        /* \"Qilin/Qilin_Allstate_parameters.sol\":1239:1289  require(msg.sender == factory, 'Qilin: FORBIDDEN') */\n      tag_78\n      jumpi\n      mload(0x40)\n      0x08c379a000000000000000000000000000000000000000000000000000000000\n      dup2\n      mstore\n      0x04\n      add\n      tag_79\n      swap1\n      tag_65\n      jump\t// in\n    tag_79:\n      mload(0x40)\n      dup1\n      swap2\n      sub\n      swap1\n      revert\n    tag_78:\n        /* \"Qilin/Qilin_Allstate_parameters.sol\":1311:1318  swapfee */\n      dup1\n        /* \"Qilin/Qilin_Allstate_parameters.sol\":1300:1308  swap_fee */\n      0x03\n        /* \"Qilin/Qilin_Allstate_parameters.sol\":1300:1318  swap_fee = swapfee */\n      dup2\n      swap1\n      sstore\n      pop\n        /* \"Qilin/Qilin_Allstate_parameters.sol\":1184:1326  function Set_swapfee(uint swapfee) external {\r... */\n      pop\n      jump\t// out\n        /* \"Qilin/Qilin_Allstate_parameters.sol\":101:126  uint256 public Tick_range */\n    tag_50:\n      sload(0x01)\n      dup2\n      jump\t// out\n        /* \"Qilin/Qilin_Allstate_parameters.sol\":415:569  function Set_Liquidation_bonus(uint rate) external{\r... */\n    tag_54:\n        /* \"Qilin/Qilin_Allstate_parameters.sol\":498:505  factory */\n      0x06\n      0x00\n      swap1\n      sload\n      swap1\n      0x0100\n      exp\n      swap1\n      div\n      0xffffffffffffffffffffffffffffffffffffffff\n      and\n        /* \"Qilin/Qilin_Allstate_parameters.sol\":484:505  msg.sender == factory */\n      0xffffffffffffffffffffffffffffffffffffffff\n      and\n        /* \"Qilin/Qilin_Allstate_parameters.sol\":484:494  msg.sender */\n      caller\n        /* \"Qilin/Qilin_Allstate_parameters.sol\":484:505  msg.sender == factory */\n      0xffffffffffffffffffffffffffffffffffffffff\n      and\n      eq\n        /* \"Qilin/Qilin_Allstate_parameters.sol\":476:526  require(msg.sender == factory, 'Qilin: FORBIDDEN') */\n      tag_81\n      jumpi\n      mload(0x40)\n      0x08c379a000000000000000000000000000000000000000000000000000000000\n      dup2\n      mstore\n      0x04\n      add\n      tag_82\n      swap1\n      tag_65\n      jump\t// in\n    tag_82:\n      mload(0x40)\n      dup1\n      swap2\n      sub\n      swap1\n      revert\n    tag_81:\n        /* \"Qilin/Qilin_Allstate_parameters.sol\":557:561  rate */\n      dup1\n        /* \"Qilin/Qilin_Allstate_parameters.sol\":537:554  Liquidation_bonus */\n      0x00\n        /* \"Qilin/Qilin_Allstate_parameters.sol\":537:561  Liquidation_bonus = rate */\n      dup2\n      swap1\n      sstore\n      pop\n        /* \"Qilin/Qilin_Allstate_parameters.sol\":415:569  function Set_Liquidation_bonus(uint rate) external{\r... */\n      pop\n      jump\t// out\n        /* \"Qilin/Qilin_Allstate_parameters.sol\":224:253  address[] public Margin_tpyes */\n    tag_57:\n      0x05\n      dup2\n      dup2\n      sload\n      dup2\n      lt\n      tag_83\n      jumpi\n      0x00\n      dup1\n      revert\n    tag_83:\n      swap1\n      0x00\n      mstore\n      keccak256(0x00, 0x20)\n      add\n      0x00\n      swap2\n      pop\n      sload\n      swap1\n      0x0100\n      exp\n      swap1\n      div\n      0xffffffffffffffffffffffffffffffffffffffff\n      and\n      dup2\n      jump\t// out\n        /* \"Qilin/Qilin_Allstate_parameters.sol\":62:94  uint256 public Liquidation_bonus */\n    tag_60:\n      sload(0x00)\n      dup2\n      jump\t// out\n    tag_70:\n      dup3\n      dup1\n      sload\n      dup3\n      dup3\n      sstore\n      swap1\n      0x00\n      mstore\n      keccak256(0x00, 0x20)\n      swap1\n      dup2\n      add\n      swap3\n      dup3\n      iszero\n      tag_85\n      jumpi\n      swap2\n      0x20\n      mul\n      dup3\n      add\n    tag_86:\n      dup3\n      dup2\n      gt\n      iszero\n      tag_87\n      jumpi\n      dup3\n      mload\n      dup3\n      exp(0x0100, 0x00)\n      dup2\n      sload\n      dup2\n      0xffffffffffffffffffffffffffffffffffffffff\n      mul\n      not\n      and\n      swap1\n      dup4\n      0xffffffffffffffffffffffffffffffffffffffff\n      and\n      mul\n      or\n      swap1\n      sstore\n      pop\n      swap2\n      0x20\n      add\n      swap2\n      swap1\n      0x01\n      add\n      swap1\n      jump(tag_86)\n    tag_87:\n    tag_85:\n      pop\n      swap1\n      pop\n      tag_88\n      swap2\n      swap1\n      tag_89\n      jump\t// in\n    tag_88:\n      pop\n      swap1\n      jump\t// out\n    tag_89:\n    tag_90:\n      dup1\n      dup3\n      gt\n      iszero\n      tag_91\n      jumpi\n      0x00\n      dup2\n      0x00\n      swap1\n      sstore\n      pop\n      0x01\n      add\n      jump(tag_90)\n    tag_91:\n      pop\n      swap1\n      jump\t// out\n        /* \"#utility.yul\":24:746   */\n    tag_93:\n        /* \"#utility.yul\":120:125   */\n      0x00\n        /* \"#utility.yul\":145:226   */\n      tag_95\n        /* \"#utility.yul\":161:225   */\n      tag_96\n        /* \"#utility.yul\":218:224   */\n      dup5\n        /* \"#utility.yul\":161:225   */\n      tag_97\n      jump\t// in\n    tag_96:\n        /* \"#utility.yul\":145:226   */\n      tag_98\n      jump\t// in\n    tag_95:\n        /* \"#utility.yul\":136:226   */\n      swap1\n      pop\n        /* \"#utility.yul\":246:251   */\n      dup1\n        /* \"#utility.yul\":275:281   */\n      dup4\n        /* \"#utility.yul\":268:273   */\n      dup3\n        /* \"#utility.yul\":261:282   */\n      mstore\n        /* \"#utility.yul\":309:313   */\n      0x20\n        /* \"#utility.yul\":302:307   */\n      dup3\n        /* \"#utility.yul\":298:314   */\n      add\n        /* \"#utility.yul\":291:314   */\n      swap1\n      pop\n        /* \"#utility.yul\":335:341   */\n      dup3\n        /* \"#utility.yul\":385:388   */\n      dup6\n        /* \"#utility.yul\":377:381   */\n      0x20\n        /* \"#utility.yul\":369:375   */\n      dup7\n        /* \"#utility.yul\":365:382   */\n      mul\n        /* \"#utility.yul\":360:363   */\n      dup3\n        /* \"#utility.yul\":356:383   */\n      add\n        /* \"#utility.yul\":353:389   */\n      gt\n        /* \"#utility.yul\":350:493   */\n      iszero\n      tag_99\n      jumpi\n        /* \"#utility.yul\":404:483   */\n      tag_100\n      tag_101\n      jump\t// in\n    tag_100:\n        /* \"#utility.yul\":350:493   */\n    tag_99:\n        /* \"#utility.yul\":517:518   */\n      0x00\n        /* \"#utility.yul\":502:740   */\n    tag_102:\n        /* \"#utility.yul\":527:533   */\n      dup6\n        /* \"#utility.yul\":524:525   */\n      dup2\n        /* \"#utility.yul\":521:534   */\n      lt\n        /* \"#utility.yul\":502:740   */\n      iszero\n      tag_104\n      jumpi\n        /* \"#utility.yul\":595:598   */\n      dup2\n        /* \"#utility.yul\":624:661   */\n      tag_105\n        /* \"#utility.yul\":657:660   */\n      dup9\n        /* \"#utility.yul\":645:655   */\n      dup3\n        /* \"#utility.yul\":624:661   */\n      tag_106\n      jump\t// in\n    tag_105:\n        /* \"#utility.yul\":619:622   */\n      dup5\n        /* \"#utility.yul\":612:662   */\n      mstore\n        /* \"#utility.yul\":691:695   */\n      0x20\n        /* \"#utility.yul\":686:689   */\n      dup5\n        /* \"#utility.yul\":682:696   */\n      add\n        /* \"#utility.yul\":675:696   */\n      swap4\n      pop\n        /* \"#utility.yul\":725:729   */\n      0x20\n        /* \"#utility.yul\":720:723   */\n      dup4\n        /* \"#utility.yul\":716:730   */\n      add\n        /* \"#utility.yul\":709:730   */\n      swap3\n      pop\n        /* \"#utility.yul\":562:740   */\n      pop\n        /* \"#utility.yul\":549:550   */\n      0x01\n        /* \"#utility.yul\":546:547   */\n      dup2\n        /* \"#utility.yul\":542:551   */\n      add\n        /* \"#utility.yul\":537:551   */\n      swap1\n      pop\n        /* \"#utility.yul\":502:740   */\n      jump(tag_102)\n    tag_104:\n        /* \"#utility.yul\":506:520   */\n      pop\n        /* \"#utility.yul\":126:746   */\n      pop\n      pop\n        /* \"#utility.yul\":24:746   */\n      swap4\n      swap3\n      pop\n      pop\n      pop\n      jump\t// out\n        /* \"#utility.yul\":752:891   */\n    tag_106:\n        /* \"#utility.yul\":798:803   */\n      0x00\n        /* \"#utility.yul\":836:842   */\n      dup2\n        /* \"#utility.yul\":823:843   */\n      calldataload\n        /* \"#utility.yul\":814:843   */\n      swap1\n      pop\n        /* \"#utility.yul\":852:885   */\n      tag_108\n        /* \"#utility.yul\":879:884   */\n      dup2\n        /* \"#utility.yul\":852:885   */\n      tag_109\n      jump\t// in\n    tag_108:\n        /* \"#utility.yul\":752:891   */\n      swap3\n      swap2\n      pop\n      pop\n      jump\t// out\n        /* \"#utility.yul\":914:1284   */\n    tag_110:\n        /* \"#utility.yul\":985:990   */\n      0x00\n        /* \"#utility.yul\":1034:1037   */\n      dup3\n        /* \"#utility.yul\":1027:1031   */\n      0x1f\n        /* \"#utility.yul\":1019:1025   */\n      dup4\n        /* \"#utility.yul\":1015:1032   */\n      add\n        /* \"#utility.yul\":1011:1038   */\n      slt\n        /* \"#utility.yul\":1001:1123   */\n      tag_112\n      jumpi\n        /* \"#utility.yul\":1042:1121   */\n      tag_113\n      tag_114\n      jump\t// in\n    tag_113:\n        /* \"#utility.yul\":1001:1123   */\n    tag_112:\n        /* \"#utility.yul\":1159:1165   */\n      dup2\n        /* \"#utility.yul\":1146:1166   */\n      calldataload\n        /* \"#utility.yul\":1184:1278   */\n      tag_115\n        /* \"#utility.yul\":1274:1277   */\n      dup5\n        /* \"#utility.yul\":1266:1272   */\n      dup3\n        /* \"#utility.yul\":1259:1263   */\n      0x20\n        /* \"#utility.yul\":1251:1257   */\n      dup7\n        /* \"#utility.yul\":1247:1264   */\n      add\n        /* \"#utility.yul\":1184:1278   */\n      tag_93\n      jump\t// in\n    tag_115:\n        /* \"#utility.yul\":1175:1278   */\n      swap2\n      pop\n        /* \"#utility.yul\":991:1284   */\n      pop\n        /* \"#utility.yul\":914:1284   */\n      swap3\n      swap2\n      pop\n      pop\n      jump\t// out\n        /* \"#utility.yul\":1290:1429   */\n    tag_116:\n        /* \"#utility.yul\":1336:1341   */\n      0x00\n        /* \"#utility.yul\":1374:1380   */\n      dup2\n        /* \"#utility.yul\":1361:1381   */\n      calldataload\n        /* \"#utility.yul\":1352:1381   */\n      swap1\n      pop\n        /* \"#utility.yul\":1390:1423   */\n      tag_118\n        /* \"#utility.yul\":1417:1422   */\n      dup2\n        /* \"#utility.yul\":1390:1423   */\n      tag_119\n      jump\t// in\n    tag_118:\n        /* \"#utility.yul\":1290:1429   */\n      swap3\n      swap2\n      pop\n      pop\n      jump\t// out\n        /* \"#utility.yul\":1435:1974   */\n    tag_31:\n        /* \"#utility.yul\":1519:1525   */\n      0x00\n        /* \"#utility.yul\":1568:1570   */\n      0x20\n        /* \"#utility.yul\":1556:1565   */\n      dup3\n        /* \"#utility.yul\":1547:1554   */\n      dup5\n        /* \"#utility.yul\":1543:1566   */\n      sub\n        /* \"#utility.yul\":1539:1571   */\n      slt\n        /* \"#utility.yul\":1536:1655   */\n      iszero\n      tag_121\n      jumpi\n        /* \"#utility.yul\":1574:1653   */\n      tag_122\n      tag_123\n      jump\t// in\n    tag_122:\n        /* \"#utility.yul\":1536:1655   */\n    tag_121:\n        /* \"#utility.yul\":1722:1723   */\n      0x00\n        /* \"#utility.yul\":1711:1720   */\n      dup3\n        /* \"#utility.yul\":1707:1724   */\n      add\n        /* \"#utility.yul\":1694:1725   */\n      calldataload\n        /* \"#utility.yul\":1752:1770   */\n      0xffffffffffffffff\n        /* \"#utility.yul\":1744:1750   */\n      dup2\n        /* \"#utility.yul\":1741:1771   */\n      gt\n        /* \"#utility.yul\":1738:1855   */\n      iszero\n      tag_124\n      jumpi\n        /* \"#utility.yul\":1774:1853   */\n      tag_125\n      tag_126\n      jump\t// in\n    tag_125:\n        /* \"#utility.yul\":1738:1855   */\n    tag_124:\n        /* \"#utility.yul\":1879:1957   */\n      tag_127\n        /* \"#utility.yul\":1949:1956   */\n      dup5\n        /* \"#utility.yul\":1940:1946   */\n      dup3\n        /* \"#utility.yul\":1929:1938   */\n      dup6\n        /* \"#utility.yul\":1925:1947   */\n      add\n        /* \"#utility.yul\":1879:1957   */\n      tag_110\n      jump\t// in\n    tag_127:\n        /* \"#utility.yul\":1869:1957   */\n      swap2\n      pop\n        /* \"#utility.yul\":1665:1967   */\n      pop\n        /* \"#utility.yul\":1435:1974   */\n      swap3\n      swap2\n      pop\n      pop\n      jump\t// out\n        /* \"#utility.yul\":1980:2309   */\n    tag_27:\n        /* \"#utility.yul\":2039:2045   */\n      0x00\n        /* \"#utility.yul\":2088:2090   */\n      0x20\n        /* \"#utility.yul\":2076:2085   */\n      dup3\n        /* \"#utility.yul\":2067:2074   */\n      dup5\n        /* \"#utility.yul\":2063:2086   */\n      sub\n        /* \"#utility.yul\":2059:2091   */\n      slt\n        /* \"#utility.yul\":2056:2175   */\n      iszero\n      tag_129\n      jumpi\n        /* \"#utility.yul\":2094:2173   */\n      tag_130\n      tag_123\n      jump\t// in\n    tag_130:\n        /* \"#utility.yul\":2056:2175   */\n    tag_129:\n        /* \"#utility.yul\":2214:2215   */\n      0x00\n        /* \"#utility.yul\":2239:2292   */\n      tag_131\n        /* \"#utility.yul\":2284:2291   */\n      dup5\n        /* \"#utility.yul\":2275:2281   */\n      dup3\n        /* \"#utility.yul\":2264:2273   */\n      dup6\n        /* \"#utility.yul\":2260:2282   */\n      add\n        /* \"#utility.yul\":2239:2292   */\n      tag_116\n      jump\t// in\n    tag_131:\n        /* \"#utility.yul\":2229:2292   */\n      swap2\n      pop\n        /* \"#utility.yul\":2185:2302   */\n      pop\n        /* \"#utility.yul\":1980:2309   */\n      swap3\n      swap2\n      pop\n      pop\n      jump\t// out\n        /* \"#utility.yul\":2315:2433   */\n    tag_132:\n        /* \"#utility.yul\":2402:2426   */\n      tag_134\n        /* \"#utility.yul\":2420:2425   */\n      dup2\n        /* \"#utility.yul\":2402:2426   */\n      tag_135\n      jump\t// in\n    tag_134:\n        /* \"#utility.yul\":2397:2400   */\n      dup3\n        /* \"#utility.yul\":2390:2427   */\n      mstore\n        /* \"#utility.yul\":2315:2433   */\n      pop\n      pop\n      jump\t// out\n        /* \"#utility.yul\":2439:2805   */\n    tag_136:\n        /* \"#utility.yul\":2581:2584   */\n      0x00\n        /* \"#utility.yul\":2602:2669   */\n      tag_138\n        /* \"#utility.yul\":2666:2668   */\n      0x10\n        /* \"#utility.yul\":2661:2664   */\n      dup4\n        /* \"#utility.yul\":2602:2669   */\n      tag_139\n      jump\t// in\n    tag_138:\n        /* \"#utility.yul\":2595:2669   */\n      swap2\n      pop\n        /* \"#utility.yul\":2678:2771   */\n      tag_140\n        /* \"#utility.yul\":2767:2770   */\n      dup3\n        /* \"#utility.yul\":2678:2771   */\n      tag_141\n      jump\t// in\n    tag_140:\n        /* \"#utility.yul\":2796:2798   */\n      0x20\n        /* \"#utility.yul\":2791:2794   */\n      dup3\n        /* \"#utility.yul\":2787:2799   */\n      add\n        /* \"#utility.yul\":2780:2799   */\n      swap1\n      pop\n        /* \"#utility.yul\":2439:2805   */\n      swap2\n      swap1\n      pop\n      jump\t// out\n        /* \"#utility.yul\":2811:2929   */\n    tag_142:\n        /* \"#utility.yul\":2898:2922   */\n      tag_144\n        /* \"#utility.yul\":2916:2921   */\n      dup2\n        /* \"#utility.yul\":2898:2922   */\n      tag_145\n      jump\t// in\n    tag_144:\n        /* \"#utility.yul\":2893:2896   */\n      dup3\n        /* \"#utility.yul\":2886:2923   */\n      mstore\n        /* \"#utility.yul\":2811:2929   */\n      pop\n      pop\n      jump\t// out\n        /* \"#utility.yul\":2935:3157   */\n    tag_42:\n        /* \"#utility.yul\":3028:3032   */\n      0x00\n        /* \"#utility.yul\":3066:3068   */\n      0x20\n        /* \"#utility.yul\":3055:3064   */\n      dup3\n        /* \"#utility.yul\":3051:3069   */\n      add\n        /* \"#utility.yul\":3043:3069   */\n      swap1\n      pop\n        /* \"#utility.yul\":3079:3150   */\n      tag_147\n        /* \"#utility.yul\":3147:3148   */\n      0x00\n        /* \"#utility.yul\":3136:3145   */\n      dup4\n        /* \"#utility.yul\":3132:3149   */\n      add\n        /* \"#utility.yul\":3123:3129   */\n      dup5\n        /* \"#utility.yul\":3079:3150   */\n      tag_132\n      jump\t// in\n    tag_147:\n        /* \"#utility.yul\":2935:3157   */\n      swap3\n      swap2\n      pop\n      pop\n      jump\t// out\n        /* \"#utility.yul\":3163:3582   */\n    tag_65:\n        /* \"#utility.yul\":3329:3333   */\n      0x00\n        /* \"#utility.yul\":3367:3369   */\n      0x20\n        /* \"#utility.yul\":3356:3365   */\n      dup3\n        /* \"#utility.yul\":3352:3370   */\n      add\n        /* \"#utility.yul\":3344:3370   */\n      swap1\n      pop\n        /* \"#utility.yul\":3416:3425   */\n      dup2\n        /* \"#utility.yul\":3410:3414   */\n      dup2\n        /* \"#utility.yul\":3406:3426   */\n      sub\n        /* \"#utility.yul\":3402:3403   */\n      0x00\n        /* \"#utility.yul\":3391:3400   */\n      dup4\n        /* \"#utility.yul\":3387:3404   */\n      add\n        /* \"#utility.yul\":3380:3427   */\n      mstore\n        /* \"#utility.yul\":3444:3575   */\n      tag_149\n        /* \"#utility.yul\":3570:3574   */\n      dup2\n        /* \"#utility.yul\":3444:3575   */\n      tag_136\n      jump\t// in\n    tag_149:\n        /* \"#utility.yul\":3436:3575   */\n      swap1\n      pop\n        /* \"#utility.yul\":3163:3582   */\n      swap2\n      swap1\n      pop\n      jump\t// out\n        /* \"#utility.yul\":3588:3810   */\n    tag_21:\n        /* \"#utility.yul\":3681:3685   */\n      0x00\n        /* \"#utility.yul\":3719:3721   */\n      0x20\n        /* \"#utility.yul\":3708:3717   */\n      dup3\n        /* \"#utility.yul\":3704:3722   */\n      add\n        /* \"#utility.yul\":3696:3722   */\n      swap1\n      pop\n        /* \"#utility.yul\":3732:3803   */\n      tag_151\n        /* \"#utility.yul\":3800:3801   */\n      0x00\n        /* \"#utility.yul\":3789:3798   */\n      dup4\n        /* \"#utility.yul\":3785:3802   */\n      add\n        /* \"#utility.yul\":3776:3782   */\n      dup5\n        /* \"#utility.yul\":3732:3803   */\n      tag_142\n      jump\t// in\n    tag_151:\n        /* \"#utility.yul\":3588:3810   */\n      swap3\n      swap2\n      pop\n      pop\n      jump\t// out\n        /* \"#utility.yul\":3816:3945   */\n    tag_98:\n        /* \"#utility.yul\":3850:3856   */\n      0x00\n        /* \"#utility.yul\":3877:3897   */\n      tag_153\n      tag_154\n      jump\t// in\n    tag_153:\n        /* \"#utility.yul\":3867:3897   */\n      swap1\n      pop\n        /* \"#utility.yul\":3906:3939   */\n      tag_155\n        /* \"#utility.yul\":3934:3938   */\n      dup3\n        /* \"#utility.yul\":3926:3932   */\n      dup3\n        /* \"#utility.yul\":3906:3939   */\n      tag_156\n      jump\t// in\n    tag_155:\n        /* \"#utility.yul\":3816:3945   */\n      swap2\n      swap1\n      pop\n      jump\t// out\n        /* \"#utility.yul\":3951:4026   */\n    tag_154:\n        /* \"#utility.yul\":3984:3990   */\n      0x00\n        /* \"#utility.yul\":4017:4019   */\n      0x40\n        /* \"#utility.yul\":4011:4020   */\n      mload\n        /* \"#utility.yul\":4001:4020   */\n      swap1\n      pop\n        /* \"#utility.yul\":3951:4026   */\n      swap1\n      jump\t// out\n        /* \"#utility.yul\":4032:4343   */\n    tag_97:\n        /* \"#utility.yul\":4109:4113   */\n      0x00\n        /* \"#utility.yul\":4199:4217   */\n      0xffffffffffffffff\n        /* \"#utility.yul\":4191:4197   */\n      dup3\n        /* \"#utility.yul\":4188:4218   */\n      gt\n        /* \"#utility.yul\":4185:4241   */\n      iszero\n      tag_159\n      jumpi\n        /* \"#utility.yul\":4221:4239   */\n      tag_160\n      tag_161\n      jump\t// in\n    tag_160:\n        /* \"#utility.yul\":4185:4241   */\n    tag_159:\n        /* \"#utility.yul\":4271:4275   */\n      0x20\n        /* \"#utility.yul\":4263:4269   */\n      dup3\n        /* \"#utility.yul\":4259:4276   */\n      mul\n        /* \"#utility.yul\":4251:4276   */\n      swap1\n      pop\n        /* \"#utility.yul\":4331:4335   */\n      0x20\n        /* \"#utility.yul\":4325:4329   */\n      dup2\n        /* \"#utility.yul\":4321:4336   */\n      add\n        /* \"#utility.yul\":4313:4336   */\n      swap1\n      pop\n        /* \"#utility.yul\":4032:4343   */\n      swap2\n      swap1\n      pop\n      jump\t// out\n        /* \"#utility.yul\":4349:4518   */\n    tag_139:\n        /* \"#utility.yul\":4433:4444   */\n      0x00\n        /* \"#utility.yul\":4467:4473   */\n      dup3\n        /* \"#utility.yul\":4462:4465   */\n      dup3\n        /* \"#utility.yul\":4455:4474   */\n      mstore\n        /* \"#utility.yul\":4507:4511   */\n      0x20\n        /* \"#utility.yul\":4502:4505   */\n      dup3\n        /* \"#utility.yul\":4498:4512   */\n      add\n        /* \"#utility.yul\":4483:4512   */\n      swap1\n      pop\n        /* \"#utility.yul\":4349:4518   */\n      swap3\n      swap2\n      pop\n      pop\n      jump\t// out\n        /* \"#utility.yul\":4524:4620   */\n    tag_135:\n        /* \"#utility.yul\":4561:4568   */\n      0x00\n        /* \"#utility.yul\":4590:4614   */\n      tag_164\n        /* \"#utility.yul\":4608:4613   */\n      dup3\n        /* \"#utility.yul\":4590:4614   */\n      tag_165\n      jump\t// in\n    tag_164:\n        /* \"#utility.yul\":4579:4614   */\n      swap1\n      pop\n        /* \"#utility.yul\":4524:4620   */\n      swap2\n      swap1\n      pop\n      jump\t// out\n        /* \"#utility.yul\":4626:4752   */\n    tag_165:\n        /* \"#utility.yul\":4663:4670   */\n      0x00\n        /* \"#utility.yul\":4703:4745   */\n      0xffffffffffffffffffffffffffffffffffffffff\n        /* \"#utility.yul\":4696:4701   */\n      dup3\n        /* \"#utility.yul\":4692:4746   */\n      and\n        /* \"#utility.yul\":4681:4746   */\n      swap1\n      pop\n        /* \"#utility.yul\":4626:4752   */\n      swap2\n      swap1\n      pop\n      jump\t// out\n        /* \"#utility.yul\":4758:4835   */\n    tag_145:\n        /* \"#utility.yul\":4795:4802   */\n      0x00\n        /* \"#utility.yul\":4824:4829   */\n      dup2\n        /* \"#utility.yul\":4813:4829   */\n      swap1\n      pop\n        /* \"#utility.yul\":4758:4835   */\n      swap2\n      swap1\n      pop\n      jump\t// out\n        /* \"#utility.yul\":4841:5122   */\n    tag_156:\n        /* \"#utility.yul\":4924:4951   */\n      tag_169\n        /* \"#utility.yul\":4946:4950   */\n      dup3\n        /* \"#utility.yul\":4924:4951   */\n      tag_170\n      jump\t// in\n    tag_169:\n        /* \"#utility.yul\":4916:4922   */\n      dup2\n        /* \"#utility.yul\":4912:4952   */\n      add\n        /* \"#utility.yul\":5054:5060   */\n      dup2\n        /* \"#utility.yul\":5042:5052   */\n      dup2\n        /* \"#utility.yul\":5039:5061   */\n      lt\n        /* \"#utility.yul\":5018:5036   */\n      0xffffffffffffffff\n        /* \"#utility.yul\":5006:5016   */\n      dup3\n        /* \"#utility.yul\":5003:5037   */\n      gt\n        /* \"#utility.yul\":5000:5062   */\n      or\n        /* \"#utility.yul\":4997:5085   */\n      iszero\n      tag_171\n      jumpi\n        /* \"#utility.yul\":5065:5083   */\n      tag_172\n      tag_161\n      jump\t// in\n    tag_172:\n        /* \"#utility.yul\":4997:5085   */\n    tag_171:\n        /* \"#utility.yul\":5105:5115   */\n      dup1\n        /* \"#utility.yul\":5101:5103   */\n      0x40\n        /* \"#utility.yul\":5094:5116   */\n      mstore\n        /* \"#utility.yul\":4884:5122   */\n      pop\n        /* \"#utility.yul\":4841:5122   */\n      pop\n      pop\n      jump\t// out\n        /* \"#utility.yul\":5128:5308   */\n    tag_161:\n        /* \"#utility.yul\":5176:5253   */\n      0x4e487b7100000000000000000000000000000000000000000000000000000000\n        /* \"#utility.yul\":5173:5174   */\n      0x00\n        /* \"#utility.yul\":5166:5254   */\n      mstore\n        /* \"#utility.yul\":5273:5277   */\n      0x41\n        /* \"#utility.yul\":5270:5271   */\n      0x04\n        /* \"#utility.yul\":5263:5278   */\n      mstore\n        /* \"#utility.yul\":5297:5301   */\n      0x24\n        /* \"#utility.yul\":5294:5295   */\n      0x00\n        /* \"#utility.yul\":5287:5302   */\n      revert\n        /* \"#utility.yul\":5314:5431   */\n    tag_114:\n        /* \"#utility.yul\":5423:5424   */\n      0x00\n        /* \"#utility.yul\":5420:5421   */\n      dup1\n        /* \"#utility.yul\":5413:5425   */\n      revert\n        /* \"#utility.yul\":5437:5554   */\n    tag_101:\n        /* \"#utility.yul\":5546:5547   */\n      0x00\n        /* \"#utility.yul\":5543:5544   */\n      dup1\n        /* \"#utility.yul\":5536:5548   */\n      revert\n        /* \"#utility.yul\":5560:5677   */\n    tag_126:\n        /* \"#utility.yul\":5669:5670   */\n      0x00\n        /* \"#utility.yul\":5666:5667   */\n      dup1\n        /* \"#utility.yul\":5659:5671   */\n      revert\n        /* \"#utility.yul\":5683:5800   */\n    tag_123:\n        /* \"#utility.yul\":5792:5793   */\n      0x00\n        /* \"#utility.yul\":5789:5790   */\n      dup1\n        /* \"#utility.yul\":5782:5794   */\n      revert\n        /* \"#utility.yul\":5806:5908   */\n    tag_170:\n        /* \"#utility.yul\":5847:5853   */\n      0x00\n        /* \"#utility.yul\":5898:5900   */\n      0x1f\n        /* \"#utility.yul\":5894:5901   */\n      not\n        /* \"#utility.yul\":5889:5891   */\n      0x1f\n        /* \"#utility.yul\":5882:5887   */\n      dup4\n        /* \"#utility.yul\":5878:5892   */\n      add\n        /* \"#utility.yul\":5874:5902   */\n      and\n        /* \"#utility.yul\":5864:5902   */\n      swap1\n      pop\n        /* \"#utility.yul\":5806:5908   */\n      swap2\n      swap1\n      pop\n      jump\t// out\n        /* \"#utility.yul\":5914:6080   */\n    tag_141:\n        /* \"#utility.yul\":6054:6072   */\n      0x51696c696e3a20464f5242494444454e00000000000000000000000000000000\n        /* \"#utility.yul\":6050:6051   */\n      0x00\n        /* \"#utility.yul\":6042:6048   */\n      dup3\n        /* \"#utility.yul\":6038:6052   */\n      add\n        /* \"#utility.yul\":6031:6073   */\n      mstore\n        /* \"#utility.yul\":5914:6080   */\n      pop\n      jump\t// out\n        /* \"#utility.yul\":6086:6208   */\n    tag_109:\n        /* \"#utility.yul\":6159:6183   */\n      tag_181\n        /* \"#utility.yul\":6177:6182   */\n      dup2\n        /* \"#utility.yul\":6159:6183   */\n      tag_135\n      jump\t// in\n    tag_181:\n        /* \"#utility.yul\":6152:6157   */\n      dup2\n        /* \"#utility.yul\":6149:6184   */\n      eq\n        /* \"#utility.yul\":6139:6202   */\n      tag_182\n      jumpi\n        /* \"#utility.yul\":6198:6199   */\n      0x00\n        /* \"#utility.yul\":6195:6196   */\n      dup1\n        /* \"#utility.yul\":6188:6200   */\n      revert\n        /* \"#utility.yul\":6139:6202   */\n    tag_182:\n        /* \"#utility.yul\":6086:6208   */\n      pop\n      jump\t// out\n        /* \"#utility.yul\":6214:6336   */\n    tag_119:\n        /* \"#utility.yul\":6287:6311   */\n      tag_184\n        /* \"#utility.yul\":6305:6310   */\n      dup2\n        /* \"#utility.yul\":6287:6311   */\n      tag_145\n      jump\t// in\n    tag_184:\n        /* \"#utility.yul\":6280:6285   */\n      dup2\n        /* \"#utility.yul\":6277:6312   */\n      eq\n        /* \"#utility.yul\":6267:6330   */\n      tag_185\n      jumpi\n        /* \"#utility.yul\":6326:6327   */\n      0x00\n        /* \"#utility.yul\":6323:6324   */\n      dup1\n        /* \"#utility.yul\":6316:6328   */\n      revert\n        /* \"#utility.yul\":6267:6330   */\n    tag_185:\n        /* \"#utility.yul\":6214:6336   */\n      pop\n      jump\t// out\n\n    auxdata: 0xa2646970667358221220f52ae3b095c0e940825c442917ba260c8326b16eb5504c05a1feddfa1a60ef3364736f6c63430008070033\n}\n",
				"bytecode": {
					"linkReferences": {},
					"object": "608060405234801561001057600080fd5b5033600660006101000a81548173ffffffffffffffffffffffffffffffffffffffff021916908373ffffffffffffffffffffffffffffffffffffffff160217905550610abb806100616000396000f3fe608060405234801561001057600080fd5b50600436106100cf5760003560e01c8063c45a01551161008c578063d44022db11610066578063d44022db146101d8578063d9c84e45146101f6578063da5604ce14610212578063f70f439414610242576100cf565b8063c45a015514610182578063c75bc076146101a0578063ccb34a59146101bc576100cf565b806320b6c796146100d457806352687589146100f25780636565c7b71461011057806375929b961461012c5780637ed6281b14610148578063acaf7b5c14610166575b600080fd5b6100dc610260565b6040516100e991906108f0565b60405180910390f35b6100fa610266565b60405161010791906108f0565b60405180910390f35b61012a60048036038101906101259190610847565b61026c565b005b610146600480360381019061014191906107fe565b610306565b005b6101506103b0565b60405161015d91906108f0565b60405180910390f35b610180600480360381019061017b9190610847565b6103b6565b005b61018a610450565b60405161019791906108b5565b60405180910390f35b6101ba60048036038101906101b59190610847565b610476565b005b6101d660048036038101906101d19190610847565b610510565b005b6101e06105aa565b6040516101ed91906108f0565b60405180910390f35b610210600480360381019061020b9190610847565b6105b0565b005b61022c60048036038101906102279190610847565b61064a565b60405161023991906108b5565b60405180910390f35b61024a610689565b60405161025791906108f0565b60405180910390f35b60045481565b60035481565b600660009054906101000a900473ffffffffffffffffffffffffffffffffffffffff1673ffffffffffffffffffffffffffffffffffffffff163373ffffffffffffffffffffffffffffffffffffffff16146102fc576040517f08c379a00000000000000000000000000000000000000000000000000000000081526004016102f3906108d0565b60405180910390fd5b8060048190555050565b600660009054906101000a900473ffffffffffffffffffffffffffffffffffffffff1673ffffffffffffffffffffffffffffffffffffffff163373ffffffffffffffffffffffffffffffffffffffff1614610396576040517f08c379a000000000000000000000000000000000000000000000000000000000815260040161038d906108d0565b60405180910390fd5b80600590805190602001906103ac92919061068f565b5050565b60025481565b600660009054906101000a900473ffffffffffffffffffffffffffffffffffffffff1673ffffffffffffffffffffffffffffffffffffffff163373ffffffffffffffffffffffffffffffffffffffff1614610446576040517f08c379a000000000000000000000000000000000000000000000000000000000815260040161043d906108d0565b60405180910390fd5b8060028190555050565b600660009054906101000a900473ffffffffffffffffffffffffffffffffffffffff1681565b600660009054906101000a900473ffffffffffffffffffffffffffffffffffffffff1673ffffffffffffffffffffffffffffffffffffffff163373ffffffffffffffffffffffffffffffffffffffff1614610506576040517f08c379a00000000000000000000000000000000000000000000000000000000081526004016104fd906108d0565b60405180910390fd5b8060018190555050565b600660009054906101000a900473ffffffffffffffffffffffffffffffffffffffff1673ffffffffffffffffffffffffffffffffffffffff163373ffffffffffffffffffffffffffffffffffffffff16146105a0576040517f08c379a0000000000000000000000000000000000000000000000000000000008152600401610597906108d0565b60405180910390fd5b8060038190555050565b60015481565b600660009054906101000a900473ffffffffffffffffffffffffffffffffffffffff1673ffffffffffffffffffffffffffffffffffffffff163373ffffffffffffffffffffffffffffffffffffffff1614610640576040517f08c379a0000000000000000000000000000000000000000000000000000000008152600401610637906108d0565b60405180910390fd5b8060008190555050565b6005818154811061065a57600080fd5b906000526020600020016000915054906101000a900473ffffffffffffffffffffffffffffffffffffffff1681565b60005481565b828054828255906000526020600020908101928215610708579160200282015b828111156107075782518260006101000a81548173ffffffffffffffffffffffffffffffffffffffff021916908373ffffffffffffffffffffffffffffffffffffffff160217905550916020019190600101906106af565b5b5090506107159190610719565b5090565b5b8082111561073257600081600090555060010161071a565b5090565b600061074961074484610930565b61090b565b9050808382526020820190508285602086028201111561076c5761076b610a0e565b5b60005b8581101561079c578161078288826107a6565b84526020840193506020830192505060018101905061076f565b5050509392505050565b6000813590506107b581610a57565b92915050565b600082601f8301126107d0576107cf610a09565b5b81356107e0848260208601610736565b91505092915050565b6000813590506107f881610a6e565b92915050565b60006020828403121561081457610813610a18565b5b600082013567ffffffffffffffff81111561083257610831610a13565b5b61083e848285016107bb565b91505092915050565b60006020828403121561085d5761085c610a18565b5b600061086b848285016107e9565b91505092915050565b61087d8161096d565b82525050565b600061089060108361095c565b915061089b82610a2e565b602082019050919050565b6108af8161099f565b82525050565b60006020820190506108ca6000830184610874565b92915050565b600060208201905081810360008301526108e981610883565b9050919050565b600060208201905061090560008301846108a6565b92915050565b6000610915610926565b905061092182826109a9565b919050565b6000604051905090565b600067ffffffffffffffff82111561094b5761094a6109da565b5b602082029050602081019050919050565b600082825260208201905092915050565b60006109788261097f565b9050919050565b600073ffffffffffffffffffffffffffffffffffffffff82169050919050565b6000819050919050565b6109b282610a1d565b810181811067ffffffffffffffff821117156109d1576109d06109da565b5b80604052505050565b7f4e487b7100000000000000000000000000000000000000000000000000000000600052604160045260246000fd5b600080fd5b600080fd5b600080fd5b600080fd5b6000601f19601f8301169050919050565b7f51696c696e3a20464f5242494444454e00000000000000000000000000000000600082015250565b610a608161096d565b8114610a6b57600080fd5b50565b610a778161099f565b8114610a8257600080fd5b5056fea2646970667358221220f52ae3b095c0e940825c442917ba260c8326b16eb5504c05a1feddfa1a60ef3364736f6c63430008070033",
					"opcodes": "PUSH1 0x80 PUSH1 0x40 MSTORE CALLVALUE DUP1 ISZERO PUSH2 0x10 JUMPI PUSH1 0x0 DUP1 REVERT JUMPDEST POP CALLER PUSH1 0x6 PUSH1 0x0 PUSH2 0x100 EXP DUP2 SLOAD DUP2 PUSH20 0xFFFFFFFFFFFFFFFFFFFFFFFFFFFFFFFFFFFFFFFF MUL NOT AND SWAP1 DUP4 PUSH20 0xFFFFFFFFFFFFFFFFFFFFFFFFFFFFFFFFFFFFFFFF AND MUL OR SWAP1 SSTORE POP PUSH2 0xABB DUP1 PUSH2 0x61 PUSH1 0x0 CODECOPY PUSH1 0x0 RETURN INVALID PUSH1 0x80 PUSH1 0x40 MSTORE CALLVALUE DUP1 ISZERO PUSH2 0x10 JUMPI PUSH1 0x0 DUP1 REVERT JUMPDEST POP PUSH1 0x4 CALLDATASIZE LT PUSH2 0xCF JUMPI PUSH1 0x0 CALLDATALOAD PUSH1 0xE0 SHR DUP1 PUSH4 0xC45A0155 GT PUSH2 0x8C JUMPI DUP1 PUSH4 0xD44022DB GT PUSH2 0x66 JUMPI DUP1 PUSH4 0xD44022DB EQ PUSH2 0x1D8 JUMPI DUP1 PUSH4 0xD9C84E45 EQ PUSH2 0x1F6 JUMPI DUP1 PUSH4 0xDA5604CE EQ PUSH2 0x212 JUMPI DUP1 PUSH4 0xF70F4394 EQ PUSH2 0x242 JUMPI PUSH2 0xCF JUMP JUMPDEST DUP1 PUSH4 0xC45A0155 EQ PUSH2 0x182 JUMPI DUP1 PUSH4 0xC75BC076 EQ PUSH2 0x1A0 JUMPI DUP1 PUSH4 0xCCB34A59 EQ PUSH2 0x1BC JUMPI PUSH2 0xCF JUMP JUMPDEST DUP1 PUSH4 0x20B6C796 EQ PUSH2 0xD4 JUMPI DUP1 PUSH4 0x52687589 EQ PUSH2 0xF2 JUMPI DUP1 PUSH4 0x6565C7B7 EQ PUSH2 0x110 JUMPI DUP1 PUSH4 0x75929B96 EQ PUSH2 0x12C JUMPI DUP1 PUSH4 0x7ED6281B EQ PUSH2 0x148 JUMPI DUP1 PUSH4 0xACAF7B5C EQ PUSH2 0x166 JUMPI JUMPDEST PUSH1 0x0 DUP1 REVERT JUMPDEST PUSH2 0xDC PUSH2 0x260 JUMP JUMPDEST PUSH1 0x40 MLOAD PUSH2 0xE9 SWAP2 SWAP1 PUSH2 0x8F0 JUMP JUMPDEST PUSH1 0x40 MLOAD DUP1 SWAP2 SUB SWAP1 RETURN JUMPDEST PUSH2 0xFA PUSH2 0x266 JUMP JUMPDEST PUSH1 0x40 MLOAD PUSH2 0x107 SWAP2 SWAP1 PUSH2 0x8F0 JUMP JUMPDEST PUSH1 0x40 MLOAD DUP1 SWAP2 SUB SWAP1 RETURN JUMPDEST PUSH2 0x12A PUSH1 0x4 DUP1 CALLDATASIZE SUB DUP2 ADD SWAP1 PUSH2 0x125 SWAP2 SWAP1 PUSH2 0x847 JUMP JUMPDEST PUSH2 0x26C JUMP JUMPDEST STOP JUMPDEST PUSH2 0x146 PUSH1 0x4 DUP1 CALLDATASIZE SUB DUP2 ADD SWAP1 PUSH2 0x141 SWAP2 SWAP1 PUSH2 0x7FE JUMP JUMPDEST PUSH2 0x306 JUMP JUMPDEST STOP JUMPDEST PUSH2 0x150 PUSH2 0x3B0 JUMP JUMPDEST PUSH1 0x40 MLOAD PUSH2 0x15D SWAP2 SWAP1 PUSH2 0x8F0 JUMP JUMPDEST PUSH1 0x40 MLOAD DUP1 SWAP2 SUB SWAP1 RETURN JUMPDEST PUSH2 0x180 PUSH1 0x4 DUP1 CALLDATASIZE SUB DUP2 ADD SWAP1 PUSH2 0x17B SWAP2 SWAP1 PUSH2 0x847 JUMP JUMPDEST PUSH2 0x3B6 JUMP JUMPDEST STOP JUMPDEST PUSH2 0x18A PUSH2 0x450 JUMP JUMPDEST PUSH1 0x40 MLOAD PUSH2 0x197 SWAP2 SWAP1 PUSH2 0x8B5 JUMP JUMPDEST PUSH1 0x40 MLOAD DUP1 SWAP2 SUB SWAP1 RETURN JUMPDEST PUSH2 0x1BA PUSH1 0x4 DUP1 CALLDATASIZE SUB DUP2 ADD SWAP1 PUSH2 0x1B5 SWAP2 SWAP1 PUSH2 0x847 JUMP JUMPDEST PUSH2 0x476 JUMP JUMPDEST STOP JUMPDEST PUSH2 0x1D6 PUSH1 0x4 DUP1 CALLDATASIZE SUB DUP2 ADD SWAP1 PUSH2 0x1D1 SWAP2 SWAP1 PUSH2 0x847 JUMP JUMPDEST PUSH2 0x510 JUMP JUMPDEST STOP JUMPDEST PUSH2 0x1E0 PUSH2 0x5AA JUMP JUMPDEST PUSH1 0x40 MLOAD PUSH2 0x1ED SWAP2 SWAP1 PUSH2 0x8F0 JUMP JUMPDEST PUSH1 0x40 MLOAD DUP1 SWAP2 SUB SWAP1 RETURN JUMPDEST PUSH2 0x210 PUSH1 0x4 DUP1 CALLDATASIZE SUB DUP2 ADD SWAP1 PUSH2 0x20B SWAP2 SWAP1 PUSH2 0x847 JUMP JUMPDEST PUSH2 0x5B0 JUMP JUMPDEST STOP JUMPDEST PUSH2 0x22C PUSH1 0x4 DUP1 CALLDATASIZE SUB DUP2 ADD SWAP1 PUSH2 0x227 SWAP2 SWAP1 PUSH2 0x847 JUMP JUMPDEST PUSH2 0x64A JUMP JUMPDEST PUSH1 0x40 MLOAD PUSH2 0x239 SWAP2 SWAP1 PUSH2 0x8B5 JUMP JUMPDEST PUSH1 0x40 MLOAD DUP1 SWAP2 SUB SWAP1 RETURN JUMPDEST PUSH2 0x24A PUSH2 0x689 JUMP JUMPDEST PUSH1 0x40 MLOAD PUSH2 0x257 SWAP2 SWAP1 PUSH2 0x8F0 JUMP JUMPDEST PUSH1 0x40 MLOAD DUP1 SWAP2 SUB SWAP1 RETURN JUMPDEST PUSH1 0x4 SLOAD DUP2 JUMP JUMPDEST PUSH1 0x3 SLOAD DUP2 JUMP JUMPDEST PUSH1 0x6 PUSH1 0x0 SWAP1 SLOAD SWAP1 PUSH2 0x100 EXP SWAP1 DIV PUSH20 0xFFFFFFFFFFFFFFFFFFFFFFFFFFFFFFFFFFFFFFFF AND PUSH20 0xFFFFFFFFFFFFFFFFFFFFFFFFFFFFFFFFFFFFFFFF AND CALLER PUSH20 0xFFFFFFFFFFFFFFFFFFFFFFFFFFFFFFFFFFFFFFFF AND EQ PUSH2 0x2FC JUMPI PUSH1 0x40 MLOAD PUSH32 0x8C379A000000000000000000000000000000000000000000000000000000000 DUP2 MSTORE PUSH1 0x4 ADD PUSH2 0x2F3 SWAP1 PUSH2 0x8D0 JUMP JUMPDEST PUSH1 0x40 MLOAD DUP1 SWAP2 SUB SWAP1 REVERT JUMPDEST DUP1 PUSH1 0x4 DUP2 SWAP1 SSTORE POP POP JUMP JUMPDEST PUSH1 0x6 PUSH1 0x0 SWAP1 SLOAD SWAP1 PUSH2 0x100 EXP SWAP1 DIV PUSH20 0xFFFFFFFFFFFFFFFFFFFFFFFFFFFFFFFFFFFFFFFF AND PUSH20 0xFFFFFFFFFFFFFFFFFFFFFFFFFFFFFFFFFFFFFFFF AND CALLER PUSH20 0xFFFFFFFFFFFFFFFFFFFFFFFFFFFFFFFFFFFFFFFF AND EQ PUSH2 0x396 JUMPI PUSH1 0x40 MLOAD PUSH32 0x8C379A000000000000000000000000000000000000000000000000000000000 DUP2 MSTORE PUSH1 0x4 ADD PUSH2 0x38D SWAP1 PUSH2 0x8D0 JUMP JUMPDEST PUSH1 0x40 MLOAD DUP1 SWAP2 SUB SWAP1 REVERT JUMPDEST DUP1 PUSH1 0x5 SWAP1 DUP1 MLOAD SWAP1 PUSH1 0x20 ADD SWAP1 PUSH2 0x3AC SWAP3 SWAP2 SWAP1 PUSH2 0x68F JUMP JUMPDEST POP POP JUMP JUMPDEST PUSH1 0x2 SLOAD DUP2 JUMP JUMPDEST PUSH1 0x6 PUSH1 0x0 SWAP1 SLOAD SWAP1 PUSH2 0x100 EXP SWAP1 DIV PUSH20 0xFFFFFFFFFFFFFFFFFFFFFFFFFFFFFFFFFFFFFFFF AND PUSH20 0xFFFFFFFFFFFFFFFFFFFFFFFFFFFFFFFFFFFFFFFF AND CALLER PUSH20 0xFFFFFFFFFFFFFFFFFFFFFFFFFFFFFFFFFFFFFFFF AND EQ PUSH2 0x446 JUMPI PUSH1 0x40 MLOAD PUSH32 0x8C379A000000000000000000000000000000000000000000000000000000000 DUP2 MSTORE PUSH1 0x4 ADD PUSH2 0x43D SWAP1 PUSH2 0x8D0 JUMP JUMPDEST PUSH1 0x40 MLOAD DUP1 SWAP2 SUB SWAP1 REVERT JUMPDEST DUP1 PUSH1 0x2 DUP2 SWAP1 SSTORE POP POP JUMP JUMPDEST PUSH1 0x6 PUSH1 0x0 SWAP1 SLOAD SWAP1 PUSH2 0x100 EXP SWAP1 DIV PUSH20 0xFFFFFFFFFFFFFFFFFFFFFFFFFFFFFFFFFFFFFFFF AND DUP2 JUMP JUMPDEST PUSH1 0x6 PUSH1 0x0 SWAP1 SLOAD SWAP1 PUSH2 0x100 EXP SWAP1 DIV PUSH20 0xFFFFFFFFFFFFFFFFFFFFFFFFFFFFFFFFFFFFFFFF AND PUSH20 0xFFFFFFFFFFFFFFFFFFFFFFFFFFFFFFFFFFFFFFFF AND CALLER PUSH20 0xFFFFFFFFFFFFFFFFFFFFFFFFFFFFFFFFFFFFFFFF AND EQ PUSH2 0x506 JUMPI PUSH1 0x40 MLOAD PUSH32 0x8C379A000000000000000000000000000000000000000000000000000000000 DUP2 MSTORE PUSH1 0x4 ADD PUSH2 0x4FD SWAP1 PUSH2 0x8D0 JUMP JUMPDEST PUSH1 0x40 MLOAD DUP1 SWAP2 SUB SWAP1 REVERT JUMPDEST DUP1 PUSH1 0x1 DUP2 SWAP1 SSTORE POP POP JUMP JUMPDEST PUSH1 0x6 PUSH1 0x0 SWAP1 SLOAD SWAP1 PUSH2 0x100 EXP SWAP1 DIV PUSH20 0xFFFFFFFFFFFFFFFFFFFFFFFFFFFFFFFFFFFFFFFF AND PUSH20 0xFFFFFFFFFFFFFFFFFFFFFFFFFFFFFFFFFFFFFFFF AND CALLER PUSH20 0xFFFFFFFFFFFFFFFFFFFFFFFFFFFFFFFFFFFFFFFF AND EQ PUSH2 0x5A0 JUMPI PUSH1 0x40 MLOAD PUSH32 0x8C379A000000000000000000000000000000000000000000000000000000000 DUP2 MSTORE PUSH1 0x4 ADD PUSH2 0x597 SWAP1 PUSH2 0x8D0 JUMP JUMPDEST PUSH1 0x40 MLOAD DUP1 SWAP2 SUB SWAP1 REVERT JUMPDEST DUP1 PUSH1 0x3 DUP2 SWAP1 SSTORE POP POP JUMP JUMPDEST PUSH1 0x1 SLOAD DUP2 JUMP JUMPDEST PUSH1 0x6 PUSH1 0x0 SWAP1 SLOAD SWAP1 PUSH2 0x100 EXP SWAP1 DIV PUSH20 0xFFFFFFFFFFFFFFFFFFFFFFFFFFFFFFFFFFFFFFFF AND PUSH20 0xFFFFFFFFFFFFFFFFFFFFFFFFFFFFFFFFFFFFFFFF AND CALLER PUSH20 0xFFFFFFFFFFFFFFFFFFFFFFFFFFFFFFFFFFFFFFFF AND EQ PUSH2 0x640 JUMPI PUSH1 0x40 MLOAD PUSH32 0x8C379A000000000000000000000000000000000000000000000000000000000 DUP2 MSTORE PUSH1 0x4 ADD PUSH2 0x637 SWAP1 PUSH2 0x8D0 JUMP JUMPDEST PUSH1 0x40 MLOAD DUP1 SWAP2 SUB SWAP1 REVERT JUMPDEST DUP1 PUSH1 0x0 DUP2 SWAP1 SSTORE POP POP JUMP JUMPDEST PUSH1 0x5 DUP2 DUP2 SLOAD DUP2 LT PUSH2 0x65A JUMPI PUSH1 0x0 DUP1 REVERT JUMPDEST SWAP1 PUSH1 0x0 MSTORE PUSH1 0x20 PUSH1 0x0 KECCAK256 ADD PUSH1 0x0 SWAP2 POP SLOAD SWAP1 PUSH2 0x100 EXP SWAP1 DIV PUSH20 0xFFFFFFFFFFFFFFFFFFFFFFFFFFFFFFFFFFFFFFFF AND DUP2 JUMP JUMPDEST PUSH1 0x0 SLOAD DUP2 JUMP JUMPDEST DUP3 DUP1 SLOAD DUP3 DUP3 SSTORE SWAP1 PUSH1 0x0 MSTORE PUSH1 0x20 PUSH1 0x0 KECCAK256 SWAP1 DUP2 ADD SWAP3 DUP3 ISZERO PUSH2 0x708 JUMPI SWAP2 PUSH1 0x20 MUL DUP3 ADD JUMPDEST DUP3 DUP2 GT ISZERO PUSH2 0x707 JUMPI DUP3 MLOAD DUP3 PUSH1 0x0 PUSH2 0x100 EXP DUP2 SLOAD DUP2 PUSH20 0xFFFFFFFFFFFFFFFFFFFFFFFFFFFFFFFFFFFFFFFF MUL NOT AND SWAP1 DUP4 PUSH20 0xFFFFFFFFFFFFFFFFFFFFFFFFFFFFFFFFFFFFFFFF AND MUL OR SWAP1 SSTORE POP SWAP2 PUSH1 0x20 ADD SWAP2 SWAP1 PUSH1 0x1 ADD SWAP1 PUSH2 0x6AF JUMP JUMPDEST JUMPDEST POP SWAP1 POP PUSH2 0x715 SWAP2 SWAP1 PUSH2 0x719 JUMP JUMPDEST POP SWAP1 JUMP JUMPDEST JUMPDEST DUP1 DUP3 GT ISZERO PUSH2 0x732 JUMPI PUSH1 0x0 DUP2 PUSH1 0x0 SWAP1 SSTORE POP PUSH1 0x1 ADD PUSH2 0x71A JUMP JUMPDEST POP SWAP1 JUMP JUMPDEST PUSH1 0x0 PUSH2 0x749 PUSH2 0x744 DUP5 PUSH2 0x930 JUMP JUMPDEST PUSH2 0x90B JUMP JUMPDEST SWAP1 POP DUP1 DUP4 DUP3 MSTORE PUSH1 0x20 DUP3 ADD SWAP1 POP DUP3 DUP6 PUSH1 0x20 DUP7 MUL DUP3 ADD GT ISZERO PUSH2 0x76C JUMPI PUSH2 0x76B PUSH2 0xA0E JUMP JUMPDEST JUMPDEST PUSH1 0x0 JUMPDEST DUP6 DUP2 LT ISZERO PUSH2 0x79C JUMPI DUP2 PUSH2 0x782 DUP9 DUP3 PUSH2 0x7A6 JUMP JUMPDEST DUP5 MSTORE PUSH1 0x20 DUP5 ADD SWAP4 POP PUSH1 0x20 DUP4 ADD SWAP3 POP POP PUSH1 0x1 DUP2 ADD SWAP1 POP PUSH2 0x76F JUMP JUMPDEST POP POP POP SWAP4 SWAP3 POP POP POP JUMP JUMPDEST PUSH1 0x0 DUP2 CALLDATALOAD SWAP1 POP PUSH2 0x7B5 DUP2 PUSH2 0xA57 JUMP JUMPDEST SWAP3 SWAP2 POP POP JUMP JUMPDEST PUSH1 0x0 DUP3 PUSH1 0x1F DUP4 ADD SLT PUSH2 0x7D0 JUMPI PUSH2 0x7CF PUSH2 0xA09 JUMP JUMPDEST JUMPDEST DUP2 CALLDATALOAD PUSH2 0x7E0 DUP5 DUP3 PUSH1 0x20 DUP7 ADD PUSH2 0x736 JUMP JUMPDEST SWAP2 POP POP SWAP3 SWAP2 POP POP JUMP JUMPDEST PUSH1 0x0 DUP2 CALLDATALOAD SWAP1 POP PUSH2 0x7F8 DUP2 PUSH2 0xA6E JUMP JUMPDEST SWAP3 SWAP2 POP POP JUMP JUMPDEST PUSH1 0x0 PUSH1 0x20 DUP3 DUP5 SUB SLT ISZERO PUSH2 0x814 JUMPI PUSH2 0x813 PUSH2 0xA18 JUMP JUMPDEST JUMPDEST PUSH1 0x0 DUP3 ADD CALLDATALOAD PUSH8 0xFFFFFFFFFFFFFFFF DUP2 GT ISZERO PUSH2 0x832 JUMPI PUSH2 0x831 PUSH2 0xA13 JUMP JUMPDEST JUMPDEST PUSH2 0x83E DUP5 DUP3 DUP6 ADD PUSH2 0x7BB JUMP JUMPDEST SWAP2 POP POP SWAP3 SWAP2 POP POP JUMP JUMPDEST PUSH1 0x0 PUSH1 0x20 DUP3 DUP5 SUB SLT ISZERO PUSH2 0x85D JUMPI PUSH2 0x85C PUSH2 0xA18 JUMP JUMPDEST JUMPDEST PUSH1 0x0 PUSH2 0x86B DUP5 DUP3 DUP6 ADD PUSH2 0x7E9 JUMP JUMPDEST SWAP2 POP POP SWAP3 SWAP2 POP POP JUMP JUMPDEST PUSH2 0x87D DUP2 PUSH2 0x96D JUMP JUMPDEST DUP3 MSTORE POP POP JUMP JUMPDEST PUSH1 0x0 PUSH2 0x890 PUSH1 0x10 DUP4 PUSH2 0x95C JUMP JUMPDEST SWAP2 POP PUSH2 0x89B DUP3 PUSH2 0xA2E JUMP JUMPDEST PUSH1 0x20 DUP3 ADD SWAP1 POP SWAP2 SWAP1 POP JUMP JUMPDEST PUSH2 0x8AF DUP2 PUSH2 0x99F JUMP JUMPDEST DUP3 MSTORE POP POP JUMP JUMPDEST PUSH1 0x0 PUSH1 0x20 DUP3 ADD SWAP1 POP PUSH2 0x8CA PUSH1 0x0 DUP4 ADD DUP5 PUSH2 0x874 JUMP JUMPDEST SWAP3 SWAP2 POP POP JUMP JUMPDEST PUSH1 0x0 PUSH1 0x20 DUP3 ADD SWAP1 POP DUP2 DUP2 SUB PUSH1 0x0 DUP4 ADD MSTORE PUSH2 0x8E9 DUP2 PUSH2 0x883 JUMP JUMPDEST SWAP1 POP SWAP2 SWAP1 POP JUMP JUMPDEST PUSH1 0x0 PUSH1 0x20 DUP3 ADD SWAP1 POP PUSH2 0x905 PUSH1 0x0 DUP4 ADD DUP5 PUSH2 0x8A6 JUMP JUMPDEST SWAP3 SWAP2 POP POP JUMP JUMPDEST PUSH1 0x0 PUSH2 0x915 PUSH2 0x926 JUMP JUMPDEST SWAP1 POP PUSH2 0x921 DUP3 DUP3 PUSH2 0x9A9 JUMP JUMPDEST SWAP2 SWAP1 POP JUMP JUMPDEST PUSH1 0x0 PUSH1 0x40 MLOAD SWAP1 POP SWAP1 JUMP JUMPDEST PUSH1 0x0 PUSH8 0xFFFFFFFFFFFFFFFF DUP3 GT ISZERO PUSH2 0x94B JUMPI PUSH2 0x94A PUSH2 0x9DA JUMP JUMPDEST JUMPDEST PUSH1 0x20 DUP3 MUL SWAP1 POP PUSH1 0x20 DUP2 ADD SWAP1 POP SWAP2 SWAP1 POP JUMP JUMPDEST PUSH1 0x0 DUP3 DUP3 MSTORE PUSH1 0x20 DUP3 ADD SWAP1 POP SWAP3 SWAP2 POP POP JUMP JUMPDEST PUSH1 0x0 PUSH2 0x978 DUP3 PUSH2 0x97F JUMP JUMPDEST SWAP1 POP SWAP2 SWAP1 POP JUMP JUMPDEST PUSH1 0x0 PUSH20 0xFFFFFFFFFFFFFFFFFFFFFFFFFFFFFFFFFFFFFFFF DUP3 AND SWAP1 POP SWAP2 SWAP1 POP JUMP JUMPDEST PUSH1 0x0 DUP2 SWAP1 POP SWAP2 SWAP1 POP JUMP JUMPDEST PUSH2 0x9B2 DUP3 PUSH2 0xA1D JUMP JUMPDEST DUP2 ADD DUP2 DUP2 LT PUSH8 0xFFFFFFFFFFFFFFFF DUP3 GT OR ISZERO PUSH2 0x9D1 JUMPI PUSH2 0x9D0 PUSH2 0x9DA JUMP JUMPDEST JUMPDEST DUP1 PUSH1 0x40 MSTORE POP POP POP JUMP JUMPDEST PUSH32 0x4E487B7100000000000000000000000000000000000000000000000000000000 PUSH1 0x0 MSTORE PUSH1 0x41 PUSH1 0x4 MSTORE PUSH1 0x24 PUSH1 0x0 REVERT JUMPDEST PUSH1 0x0 DUP1 REVERT JUMPDEST PUSH1 0x0 DUP1 REVERT JUMPDEST PUSH1 0x0 DUP1 REVERT JUMPDEST PUSH1 0x0 DUP1 REVERT JUMPDEST PUSH1 0x0 PUSH1 0x1F NOT PUSH1 0x1F DUP4 ADD AND SWAP1 POP SWAP2 SWAP1 POP JUMP JUMPDEST PUSH32 0x51696C696E3A20464F5242494444454E00000000000000000000000000000000 PUSH1 0x0 DUP3 ADD MSTORE POP JUMP JUMPDEST PUSH2 0xA60 DUP2 PUSH2 0x96D JUMP JUMPDEST DUP2 EQ PUSH2 0xA6B JUMPI PUSH1 0x0 DUP1 REVERT JUMPDEST POP JUMP JUMPDEST PUSH2 0xA77 DUP2 PUSH2 0x99F JUMP JUMPDEST DUP2 EQ PUSH2 0xA82 JUMPI PUSH1 0x0 DUP1 REVERT JUMPDEST POP JUMP INVALID LOG2 PUSH5 0x6970667358 0x22 SLT KECCAK256 CREATE2 0x2A 0xE3 0xB0 SWAP6 0xC0 0xE9 BLOCKHASH DUP3 0x5C DIFFICULTY 0x29 OR 0xBA 0x26 0xC DUP4 0x26 0xB1 PUSH15 0xB5504C05A1FEDDFA1A60EF3364736F PUSH13 0x63430008070033000000000000 "
				},
				"gasEstimates": {
					"creation": {
						"codeDepositCost": "549400",
						"executionCost": "24847",
						"totalCost": "574247"
					},
					"external": {
						"Base_rate()": "2518",
						"Liquidation_bonus()": "2517",
						"Margin_tpyes(uint256)": "5022",
						"Set_Liquidation_bonus(uint256)": "24734",
						"Set_baserate(uint256)": "24801",
						"Set_perpfee(uint256)": "24735",
						"Set_swapfee(uint256)": "24757",
						"Set_tickrange(uint256)": "24735",
						"Tick_range()": "2451",
						"factory()": "2537",
						"perp_fee()": "2430",
						"swap_fee()": "2452",
						"update_margintypes(address[])": "infinite"
					}
				},
				"methodIdentifiers": {
					"Base_rate()": "7ed6281b",
					"Liquidation_bonus()": "f70f4394",
					"Margin_tpyes(uint256)": "da5604ce",
					"Set_Liquidation_bonus(uint256)": "d9c84e45",
					"Set_baserate(uint256)": "acaf7b5c",
					"Set_perpfee(uint256)": "6565c7b7",
					"Set_swapfee(uint256)": "ccb34a59",
					"Set_tickrange(uint256)": "c75bc076",
					"Tick_range()": "d44022db",
					"factory()": "c45a0155",
					"perp_fee()": "20b6c796",
					"swap_fee()": "52687589",
					"update_margintypes(address[])": "75929b96"
				}
			},
			"storageLayout": {
				"storage": [
					{
						"astId": 3,
						"contract": "Qilin/Qilin_Allstate_parameters.sol:allstate_parameters",
						"label": "Liquidation_bonus",
						"offset": 0,
						"slot": "0",
						"type": "t_uint256"
					},
					{
						"astId": 5,
						"contract": "Qilin/Qilin_Allstate_parameters.sol:allstate_parameters",
						"label": "Tick_range",
						"offset": 0,
						"slot": "1",
						"type": "t_uint256"
					},
					{
						"astId": 7,
						"contract": "Qilin/Qilin_Allstate_parameters.sol:allstate_parameters",
						"label": "Base_rate",
						"offset": 0,
						"slot": "2",
						"type": "t_uint256"
					},
					{
						"astId": 9,
						"contract": "Qilin/Qilin_Allstate_parameters.sol:allstate_parameters",
						"label": "swap_fee",
						"offset": 0,
						"slot": "3",
						"type": "t_uint256"
					},
					{
						"astId": 11,
						"contract": "Qilin/Qilin_Allstate_parameters.sol:allstate_parameters",
						"label": "perp_fee",
						"offset": 0,
						"slot": "4",
						"type": "t_uint256"
					},
					{
						"astId": 14,
						"contract": "Qilin/Qilin_Allstate_parameters.sol:allstate_parameters",
						"label": "Margin_tpyes",
						"offset": 0,
						"slot": "5",
						"type": "t_array(t_address)dyn_storage"
					},
					{
						"astId": 16,
						"contract": "Qilin/Qilin_Allstate_parameters.sol:allstate_parameters",
						"label": "factory",
						"offset": 0,
						"slot": "6",
						"type": "t_address"
					}
				],
				"types": {
					"t_address": {
						"encoding": "inplace",
						"label": "address",
						"numberOfBytes": "20"
					},
					"t_array(t_address)dyn_storage": {
						"base": "t_address",
						"encoding": "dynamic_array",
						"label": "address[]",
						"numberOfBytes": "32"
					},
					"t_uint256": {
						"encoding": "inplace",
						"label": "uint256",
						"numberOfBytes": "32"
					}
				}
			},
			"userdoc": {
				"kind": "user",
				"methods": {},
				"version": 1
			}
		}
	}
}