{
	"Qilin/libraries/Math.sol": {
		"Math": {
			"abi": [
				{
					"inputs": [
						{
							"internalType": "uint256",
							"name": "B",
							"type": "uint256"
						},
						{
							"internalType": "uint256",
							"name": "C",
							"type": "uint256"
						},
						{
							"internalType": "uint256",
							"name": "D",
							"type": "uint256"
						},
						{
							"internalType": "uint256",
							"name": "X",
							"type": "uint256"
						},
						{
							"internalType": "uint256",
							"name": "Y",
							"type": "uint256"
						}
					],
					"name": "cal_price",
					"outputs": [
						{
							"internalType": "uint256",
							"name": "P",
							"type": "uint256"
						}
					],
					"stateMutability": "pure",
					"type": "function"
				}
			],
			"devdoc": {
				"kind": "dev",
				"methods": {},
				"version": 1
			},
			"evm": {
				"assembly": "    /* \"Qilin/libraries/Math.sol\":82:2372  library Math {\r... */\n  dataSize(sub_0)\n  dataOffset(sub_0)\n  0x0b\n  dup3\n  dup3\n  dup3\n  codecopy\n  dup1\n  mload\n  0x00\n  byte\n  0x73\n  eq\n  tag_1\n  jumpi\n  mstore(0x00, 0x4e487b7100000000000000000000000000000000000000000000000000000000)\n  mstore(0x04, 0x00)\n  revert(0x00, 0x24)\ntag_1:\n  mstore(0x00, address)\n  0x73\n  dup2\n  mstore8\n  dup3\n  dup2\n  return\nstop\n\nsub_0: assembly {\n        /* \"Qilin/libraries/Math.sol\":82:2372  library Math {\r... */\n      eq(address, deployTimeAddress())\n      mstore(0x40, 0x80)\n      jumpi(tag_1, lt(calldatasize, 0x04))\n      shr(0xe0, calldataload(0x00))\n      dup1\n      0xf0034a93\n      eq\n      tag_2\n      jumpi\n    tag_1:\n      0x00\n      dup1\n      revert\n        /* \"Qilin/libraries/Math.sol\":1277:1473  function cal_price(uint B,uint C, uint D, uint X, uint Y) public pure returns(uint P){\r... */\n    tag_2:\n      tag_3\n      0x04\n      dup1\n      calldatasize\n      sub\n      dup2\n      add\n      swap1\n      tag_4\n      swap2\n      swap1\n      tag_5\n      jump\t// in\n    tag_4:\n      tag_6\n      jump\t// in\n    tag_3:\n      mload(0x40)\n      tag_7\n      swap2\n      swap1\n      tag_8\n      jump\t// in\n    tag_7:\n      mload(0x40)\n      dup1\n      swap2\n      sub\n      swap1\n      return\n    tag_6:\n        /* \"Qilin/libraries/Math.sol\":1355:1361  uint P */\n      0x00\n        /* \"Qilin/libraries/Math.sol\":1463:1464  Y */\n      dup2\n        /* \"Qilin/libraries/Math.sol\":1459:1460  D */\n      dup5\n        /* \"Qilin/libraries/Math.sol\":1455:1456  D */\n      dup6\n        /* \"Qilin/libraries/Math.sol\":1451:1452  D */\n      dup7\n        /* \"Qilin/libraries/Math.sol\":1451:1456  D * D */\n      tag_10\n      swap2\n      swap1\n      tag_11\n      jump\t// in\n    tag_10:\n        /* \"Qilin/libraries/Math.sol\":1451:1460  D * D * D */\n      tag_12\n      swap2\n      swap1\n      tag_11\n      jump\t// in\n    tag_12:\n        /* \"Qilin/libraries/Math.sol\":1451:1464  D * D * D * Y */\n      tag_13\n      swap2\n      swap1\n      tag_11\n      jump\t// in\n    tag_13:\n        /* \"Qilin/libraries/Math.sol\":1447:1448  Y */\n      dup3\n        /* \"Qilin/libraries/Math.sol\":1443:1444  Y */\n      dup4\n        /* \"Qilin/libraries/Math.sol\":1439:1440  X */\n      dup6\n        /* \"Qilin/libraries/Math.sol\":1435:1436  X */\n      dup7\n        /* \"Qilin/libraries/Math.sol\":1431:1432  B */\n      dup11\n        /* \"Qilin/libraries/Math.sol\":1427:1428  4 */\n      0x04\n        /* \"Qilin/libraries/Math.sol\":1427:1432  4 * B */\n      tag_14\n      swap2\n      swap1\n      tag_11\n      jump\t// in\n    tag_14:\n        /* \"Qilin/libraries/Math.sol\":1427:1436  4 * B * X */\n      tag_15\n      swap2\n      swap1\n      tag_11\n      jump\t// in\n    tag_15:\n        /* \"Qilin/libraries/Math.sol\":1427:1440  4 * B * X * X */\n      tag_16\n      swap2\n      swap1\n      tag_11\n      jump\t// in\n    tag_16:\n        /* \"Qilin/libraries/Math.sol\":1427:1444  4 * B * X * X * Y */\n      tag_17\n      swap2\n      swap1\n      tag_11\n      jump\t// in\n    tag_17:\n        /* \"Qilin/libraries/Math.sol\":1427:1448  4 * B * X * X * Y * Y */\n      tag_18\n      swap2\n      swap1\n      tag_11\n      jump\t// in\n    tag_18:\n        /* \"Qilin/libraries/Math.sol\":1427:1464  4 * B * X * X * Y * Y + D * D * D * Y */\n      tag_19\n      swap2\n      swap1\n      tag_20\n      jump\t// in\n    tag_19:\n        /* \"Qilin/libraries/Math.sol\":1419:1423  1e18 */\n      0x0de0b6b3a7640000\n        /* \"Qilin/libraries/Math.sol\":1414:1415  X */\n      dup5\n        /* \"Qilin/libraries/Math.sol\":1410:1411  D */\n      dup7\n        /* \"Qilin/libraries/Math.sol\":1406:1407  D */\n      dup8\n        /* \"Qilin/libraries/Math.sol\":1402:1403  D */\n      dup9\n        /* \"Qilin/libraries/Math.sol\":1402:1407  D * D */\n      tag_21\n      swap2\n      swap1\n      tag_11\n      jump\t// in\n    tag_21:\n        /* \"Qilin/libraries/Math.sol\":1402:1411  D * D * D */\n      tag_22\n      swap2\n      swap1\n      tag_11\n      jump\t// in\n    tag_22:\n        /* \"Qilin/libraries/Math.sol\":1402:1415  D * D * D * X */\n      tag_23\n      swap2\n      swap1\n      tag_11\n      jump\t// in\n    tag_23:\n        /* \"Qilin/libraries/Math.sol\":1398:1399  Y */\n      dup5\n        /* \"Qilin/libraries/Math.sol\":1394:1395  Y */\n      dup6\n        /* \"Qilin/libraries/Math.sol\":1390:1391  X */\n      dup8\n        /* \"Qilin/libraries/Math.sol\":1386:1387  X */\n      dup9\n        /* \"Qilin/libraries/Math.sol\":1382:1383  C */\n      dup12\n        /* \"Qilin/libraries/Math.sol\":1378:1379  4 */\n      0x04\n        /* \"Qilin/libraries/Math.sol\":1378:1383  4 * C */\n      tag_24\n      swap2\n      swap1\n      tag_11\n      jump\t// in\n    tag_24:\n        /* \"Qilin/libraries/Math.sol\":1378:1387  4 * C * X */\n      tag_25\n      swap2\n      swap1\n      tag_11\n      jump\t// in\n    tag_25:\n        /* \"Qilin/libraries/Math.sol\":1378:1391  4 * C * X * X */\n      tag_26\n      swap2\n      swap1\n      tag_11\n      jump\t// in\n    tag_26:\n        /* \"Qilin/libraries/Math.sol\":1378:1395  4 * C * X * X * Y */\n      tag_27\n      swap2\n      swap1\n      tag_11\n      jump\t// in\n    tag_27:\n        /* \"Qilin/libraries/Math.sol\":1378:1399  4 * C * X * X * Y * Y */\n      tag_28\n      swap2\n      swap1\n      tag_11\n      jump\t// in\n    tag_28:\n        /* \"Qilin/libraries/Math.sol\":1378:1415  4 * C * X * X * Y * Y + D * D * D * X */\n      tag_29\n      swap2\n      swap1\n      tag_20\n      jump\t// in\n    tag_29:\n        /* \"Qilin/libraries/Math.sol\":1377:1423  (4 * C * X * X * Y * Y + D * D * D * X) * 1e18 */\n      tag_30\n      swap2\n      swap1\n      tag_11\n      jump\t// in\n    tag_30:\n        /* \"Qilin/libraries/Math.sol\":1377:1465  (4 * C * X * X * Y * Y + D * D * D * X) * 1e18 / (4 * B * X * X * Y * Y + D * D * D * Y) */\n      tag_31\n      swap2\n      swap1\n      tag_32\n      jump\t// in\n    tag_31:\n        /* \"Qilin/libraries/Math.sol\":1373:1465  P = (4 * C * X * X * Y * Y + D * D * D * X) * 1e18 / (4 * B * X * X * Y * Y + D * D * D * Y) */\n      swap1\n      pop\n        /* \"Qilin/libraries/Math.sol\":1277:1473  function cal_price(uint B,uint C, uint D, uint X, uint Y) public pure returns(uint P){\r... */\n      swap6\n      swap5\n      pop\n      pop\n      pop\n      pop\n      pop\n      jump\t// out\n        /* \"#utility.yul\":7:146   */\n    tag_34:\n        /* \"#utility.yul\":53:58   */\n      0x00\n        /* \"#utility.yul\":91:97   */\n      dup2\n        /* \"#utility.yul\":78:98   */\n      calldataload\n        /* \"#utility.yul\":69:98   */\n      swap1\n      pop\n        /* \"#utility.yul\":107:140   */\n      tag_36\n        /* \"#utility.yul\":134:139   */\n      dup2\n        /* \"#utility.yul\":107:140   */\n      tag_37\n      jump\t// in\n    tag_36:\n        /* \"#utility.yul\":7:146   */\n      swap3\n      swap2\n      pop\n      pop\n      jump\t// out\n        /* \"#utility.yul\":152:1063   */\n    tag_5:\n        /* \"#utility.yul\":247:253   */\n      0x00\n        /* \"#utility.yul\":255:261   */\n      dup1\n        /* \"#utility.yul\":263:269   */\n      0x00\n        /* \"#utility.yul\":271:277   */\n      dup1\n        /* \"#utility.yul\":279:285   */\n      0x00\n        /* \"#utility.yul\":328:331   */\n      0xa0\n        /* \"#utility.yul\":316:325   */\n      dup7\n        /* \"#utility.yul\":307:314   */\n      dup9\n        /* \"#utility.yul\":303:326   */\n      sub\n        /* \"#utility.yul\":299:332   */\n      slt\n        /* \"#utility.yul\":296:416   */\n      iszero\n      tag_39\n      jumpi\n        /* \"#utility.yul\":335:414   */\n      tag_40\n      tag_41\n      jump\t// in\n    tag_40:\n        /* \"#utility.yul\":296:416   */\n    tag_39:\n        /* \"#utility.yul\":455:456   */\n      0x00\n        /* \"#utility.yul\":480:533   */\n      tag_42\n        /* \"#utility.yul\":525:532   */\n      dup9\n        /* \"#utility.yul\":516:522   */\n      dup3\n        /* \"#utility.yul\":505:514   */\n      dup10\n        /* \"#utility.yul\":501:523   */\n      add\n        /* \"#utility.yul\":480:533   */\n      tag_34\n      jump\t// in\n    tag_42:\n        /* \"#utility.yul\":470:533   */\n      swap6\n      pop\n        /* \"#utility.yul\":426:543   */\n      pop\n        /* \"#utility.yul\":582:584   */\n      0x20\n        /* \"#utility.yul\":608:661   */\n      tag_43\n        /* \"#utility.yul\":653:660   */\n      dup9\n        /* \"#utility.yul\":644:650   */\n      dup3\n        /* \"#utility.yul\":633:642   */\n      dup10\n        /* \"#utility.yul\":629:651   */\n      add\n        /* \"#utility.yul\":608:661   */\n      tag_34\n      jump\t// in\n    tag_43:\n        /* \"#utility.yul\":598:661   */\n      swap5\n      pop\n        /* \"#utility.yul\":553:671   */\n      pop\n        /* \"#utility.yul\":710:712   */\n      0x40\n        /* \"#utility.yul\":736:789   */\n      tag_44\n        /* \"#utility.yul\":781:788   */\n      dup9\n        /* \"#utility.yul\":772:778   */\n      dup3\n        /* \"#utility.yul\":761:770   */\n      dup10\n        /* \"#utility.yul\":757:779   */\n      add\n        /* \"#utility.yul\":736:789   */\n      tag_34\n      jump\t// in\n    tag_44:\n        /* \"#utility.yul\":726:789   */\n      swap4\n      pop\n        /* \"#utility.yul\":681:799   */\n      pop\n        /* \"#utility.yul\":838:840   */\n      0x60\n        /* \"#utility.yul\":864:917   */\n      tag_45\n        /* \"#utility.yul\":909:916   */\n      dup9\n        /* \"#utility.yul\":900:906   */\n      dup3\n        /* \"#utility.yul\":889:898   */\n      dup10\n        /* \"#utility.yul\":885:907   */\n      add\n        /* \"#utility.yul\":864:917   */\n      tag_34\n      jump\t// in\n    tag_45:\n        /* \"#utility.yul\":854:917   */\n      swap3\n      pop\n        /* \"#utility.yul\":809:927   */\n      pop\n        /* \"#utility.yul\":966:969   */\n      0x80\n        /* \"#utility.yul\":993:1046   */\n      tag_46\n        /* \"#utility.yul\":1038:1045   */\n      dup9\n        /* \"#utility.yul\":1029:1035   */\n      dup3\n        /* \"#utility.yul\":1018:1027   */\n      dup10\n        /* \"#utility.yul\":1014:1036   */\n      add\n        /* \"#utility.yul\":993:1046   */\n      tag_34\n      jump\t// in\n    tag_46:\n        /* \"#utility.yul\":983:1046   */\n      swap2\n      pop\n        /* \"#utility.yul\":937:1056   */\n      pop\n        /* \"#utility.yul\":152:1063   */\n      swap3\n      swap6\n      pop\n      swap3\n      swap6\n      swap1\n      swap4\n      pop\n      jump\t// out\n        /* \"#utility.yul\":1069:1195   */\n    tag_47:\n        /* \"#utility.yul\":1164:1188   */\n      tag_49\n        /* \"#utility.yul\":1182:1187   */\n      dup2\n        /* \"#utility.yul\":1164:1188   */\n      tag_50\n      jump\t// in\n    tag_49:\n        /* \"#utility.yul\":1159:1162   */\n      dup3\n        /* \"#utility.yul\":1152:1189   */\n      mstore\n        /* \"#utility.yul\":1069:1195   */\n      pop\n      pop\n      jump\t// out\n        /* \"#utility.yul\":1201:1439   */\n    tag_8:\n        /* \"#utility.yul\":1302:1306   */\n      0x00\n        /* \"#utility.yul\":1340:1342   */\n      0x20\n        /* \"#utility.yul\":1329:1338   */\n      dup3\n        /* \"#utility.yul\":1325:1343   */\n      add\n        /* \"#utility.yul\":1317:1343   */\n      swap1\n      pop\n        /* \"#utility.yul\":1353:1432   */\n      tag_52\n        /* \"#utility.yul\":1429:1430   */\n      0x00\n        /* \"#utility.yul\":1418:1427   */\n      dup4\n        /* \"#utility.yul\":1414:1431   */\n      add\n        /* \"#utility.yul\":1405:1411   */\n      dup5\n        /* \"#utility.yul\":1353:1432   */\n      tag_47\n      jump\t// in\n    tag_52:\n        /* \"#utility.yul\":1201:1439   */\n      swap3\n      swap2\n      pop\n      pop\n      jump\t// out\n        /* \"#utility.yul\":1526:1831   */\n    tag_20:\n        /* \"#utility.yul\":1566:1569   */\n      0x00\n        /* \"#utility.yul\":1585:1605   */\n      tag_56\n        /* \"#utility.yul\":1603:1604   */\n      dup3\n        /* \"#utility.yul\":1585:1605   */\n      tag_50\n      jump\t// in\n    tag_56:\n        /* \"#utility.yul\":1580:1605   */\n      swap2\n      pop\n        /* \"#utility.yul\":1619:1639   */\n      tag_57\n        /* \"#utility.yul\":1637:1638   */\n      dup4\n        /* \"#utility.yul\":1619:1639   */\n      tag_50\n      jump\t// in\n    tag_57:\n        /* \"#utility.yul\":1614:1639   */\n      swap3\n      pop\n        /* \"#utility.yul\":1773:1774   */\n      dup3\n        /* \"#utility.yul\":1705:1771   */\n      0xffffffffffffffffffffffffffffffffffffffffffffffffffffffffffffffff\n        /* \"#utility.yul\":1701:1775   */\n      sub\n        /* \"#utility.yul\":1698:1699   */\n      dup3\n        /* \"#utility.yul\":1695:1776   */\n      gt\n        /* \"#utility.yul\":1692:1799   */\n      iszero\n      tag_58\n      jumpi\n        /* \"#utility.yul\":1779:1797   */\n      tag_59\n      tag_60\n      jump\t// in\n    tag_59:\n        /* \"#utility.yul\":1692:1799   */\n    tag_58:\n        /* \"#utility.yul\":1823:1824   */\n      dup3\n        /* \"#utility.yul\":1820:1821   */\n      dup3\n        /* \"#utility.yul\":1816:1825   */\n      add\n        /* \"#utility.yul\":1809:1825   */\n      swap1\n      pop\n        /* \"#utility.yul\":1526:1831   */\n      swap3\n      swap2\n      pop\n      pop\n      jump\t// out\n        /* \"#utility.yul\":1837:2022   */\n    tag_32:\n        /* \"#utility.yul\":1877:1878   */\n      0x00\n        /* \"#utility.yul\":1894:1914   */\n      tag_62\n        /* \"#utility.yul\":1912:1913   */\n      dup3\n        /* \"#utility.yul\":1894:1914   */\n      tag_50\n      jump\t// in\n    tag_62:\n        /* \"#utility.yul\":1889:1914   */\n      swap2\n      pop\n        /* \"#utility.yul\":1928:1948   */\n      tag_63\n        /* \"#utility.yul\":1946:1947   */\n      dup4\n        /* \"#utility.yul\":1928:1948   */\n      tag_50\n      jump\t// in\n    tag_63:\n        /* \"#utility.yul\":1923:1948   */\n      swap3\n      pop\n        /* \"#utility.yul\":1967:1968   */\n      dup3\n        /* \"#utility.yul\":1957:1992   */\n      tag_64\n      jumpi\n        /* \"#utility.yul\":1972:1990   */\n      tag_65\n      tag_66\n      jump\t// in\n    tag_65:\n        /* \"#utility.yul\":1957:1992   */\n    tag_64:\n        /* \"#utility.yul\":2014:2015   */\n      dup3\n        /* \"#utility.yul\":2011:2012   */\n      dup3\n        /* \"#utility.yul\":2007:2016   */\n      div\n        /* \"#utility.yul\":2002:2016   */\n      swap1\n      pop\n        /* \"#utility.yul\":1837:2022   */\n      swap3\n      swap2\n      pop\n      pop\n      jump\t// out\n        /* \"#utility.yul\":2028:2376   */\n    tag_11:\n        /* \"#utility.yul\":2068:2075   */\n      0x00\n        /* \"#utility.yul\":2091:2111   */\n      tag_68\n        /* \"#utility.yul\":2109:2110   */\n      dup3\n        /* \"#utility.yul\":2091:2111   */\n      tag_50\n      jump\t// in\n    tag_68:\n        /* \"#utility.yul\":2086:2111   */\n      swap2\n      pop\n        /* \"#utility.yul\":2125:2145   */\n      tag_69\n        /* \"#utility.yul\":2143:2144   */\n      dup4\n        /* \"#utility.yul\":2125:2145   */\n      tag_50\n      jump\t// in\n    tag_69:\n        /* \"#utility.yul\":2120:2145   */\n      swap3\n      pop\n        /* \"#utility.yul\":2313:2314   */\n      dup2\n        /* \"#utility.yul\":2245:2311   */\n      0xffffffffffffffffffffffffffffffffffffffffffffffffffffffffffffffff\n        /* \"#utility.yul\":2241:2315   */\n      div\n        /* \"#utility.yul\":2238:2239   */\n      dup4\n        /* \"#utility.yul\":2235:2316   */\n      gt\n        /* \"#utility.yul\":2230:2231   */\n      dup3\n        /* \"#utility.yul\":2223:2232   */\n      iszero\n        /* \"#utility.yul\":2216:2233   */\n      iszero\n        /* \"#utility.yul\":2212:2317   */\n      and\n        /* \"#utility.yul\":2209:2340   */\n      iszero\n      tag_70\n      jumpi\n        /* \"#utility.yul\":2320:2338   */\n      tag_71\n      tag_60\n      jump\t// in\n    tag_71:\n        /* \"#utility.yul\":2209:2340   */\n    tag_70:\n        /* \"#utility.yul\":2368:2369   */\n      dup3\n        /* \"#utility.yul\":2365:2366   */\n      dup3\n        /* \"#utility.yul\":2361:2370   */\n      mul\n        /* \"#utility.yul\":2350:2370   */\n      swap1\n      pop\n        /* \"#utility.yul\":2028:2376   */\n      swap3\n      swap2\n      pop\n      pop\n      jump\t// out\n        /* \"#utility.yul\":2382:2459   */\n    tag_50:\n        /* \"#utility.yul\":2419:2426   */\n      0x00\n        /* \"#utility.yul\":2448:2453   */\n      dup2\n        /* \"#utility.yul\":2437:2453   */\n      swap1\n      pop\n        /* \"#utility.yul\":2382:2459   */\n      swap2\n      swap1\n      pop\n      jump\t// out\n        /* \"#utility.yul\":2465:2645   */\n    tag_60:\n        /* \"#utility.yul\":2513:2590   */\n      0x4e487b7100000000000000000000000000000000000000000000000000000000\n        /* \"#utility.yul\":2510:2511   */\n      0x00\n        /* \"#utility.yul\":2503:2591   */\n      mstore\n        /* \"#utility.yul\":2610:2614   */\n      0x11\n        /* \"#utility.yul\":2607:2608   */\n      0x04\n        /* \"#utility.yul\":2600:2615   */\n      mstore\n        /* \"#utility.yul\":2634:2638   */\n      0x24\n        /* \"#utility.yul\":2631:2632   */\n      0x00\n        /* \"#utility.yul\":2624:2639   */\n      revert\n        /* \"#utility.yul\":2651:2831   */\n    tag_66:\n        /* \"#utility.yul\":2699:2776   */\n      0x4e487b7100000000000000000000000000000000000000000000000000000000\n        /* \"#utility.yul\":2696:2697   */\n      0x00\n        /* \"#utility.yul\":2689:2777   */\n      mstore\n        /* \"#utility.yul\":2796:2800   */\n      0x12\n        /* \"#utility.yul\":2793:2794   */\n      0x04\n        /* \"#utility.yul\":2786:2801   */\n      mstore\n        /* \"#utility.yul\":2820:2824   */\n      0x24\n        /* \"#utility.yul\":2817:2818   */\n      0x00\n        /* \"#utility.yul\":2810:2825   */\n      revert\n        /* \"#utility.yul\":2960:3077   */\n    tag_41:\n        /* \"#utility.yul\":3069:3070   */\n      0x00\n        /* \"#utility.yul\":3066:3067   */\n      dup1\n        /* \"#utility.yul\":3059:3071   */\n      revert\n        /* \"#utility.yul\":3083:3205   */\n    tag_37:\n        /* \"#utility.yul\":3156:3180   */\n      tag_79\n        /* \"#utility.yul\":3174:3179   */\n      dup2\n        /* \"#utility.yul\":3156:3180   */\n      tag_50\n      jump\t// in\n    tag_79:\n        /* \"#utility.yul\":3149:3154   */\n      dup2\n        /* \"#utility.yul\":3146:3181   */\n      eq\n        /* \"#utility.yul\":3136:3199   */\n      tag_80\n      jumpi\n        /* \"#utility.yul\":3195:3196   */\n      0x00\n        /* \"#utility.yul\":3192:3193   */\n      dup1\n        /* \"#utility.yul\":3185:3197   */\n      revert\n        /* \"#utility.yul\":3136:3199   */\n    tag_80:\n        /* \"#utility.yul\":3083:3205   */\n      pop\n      jump\t// out\n\n    auxdata: 0xa2646970667358221220dcc8abdf068988a90d2f0e13b553e21ee37fce2c2d9edca2f880364735eced6464736f6c63430008070033\n}\n",
				"bytecode": {
					"linkReferences": {},
					"object": "6103b3610053600b82828239805160001a607314610046577f4e487b7100000000000000000000000000000000000000000000000000000000600052600060045260246000fd5b30600052607381538281f3fe73000000000000000000000000000000000000000030146080604052600436106100355760003560e01c8063f0034a931461003a575b600080fd5b610054600480360381019061004f9190610173565b61006a565b60405161006191906101fd565b60405180910390f35b60008184858661007a919061029f565b610084919061029f565b61008e919061029f565b828385868a600461009f919061029f565b6100a9919061029f565b6100b3919061029f565b6100bd919061029f565b6100c7919061029f565b6100d19190610218565b670de0b6b3a7640000848687886100e8919061029f565b6100f2919061029f565b6100fc919061029f565b848587888b600461010d919061029f565b610117919061029f565b610121919061029f565b61012b919061029f565b610135919061029f565b61013f9190610218565b610149919061029f565b610153919061026e565b905095945050505050565b60008135905061016d81610366565b92915050565b600080600080600060a0868803121561018f5761018e610361565b5b600061019d8882890161015e565b95505060206101ae8882890161015e565b94505060406101bf8882890161015e565b93505060606101d08882890161015e565b92505060806101e18882890161015e565b9150509295509295909350565b6101f7816102f9565b82525050565b600060208201905061021260008301846101ee565b92915050565b6000610223826102f9565b915061022e836102f9565b9250827fffffffffffffffffffffffffffffffffffffffffffffffffffffffffffffffff0382111561026357610262610303565b5b828201905092915050565b6000610279826102f9565b9150610284836102f9565b92508261029457610293610332565b5b828204905092915050565b60006102aa826102f9565b91506102b5836102f9565b9250817fffffffffffffffffffffffffffffffffffffffffffffffffffffffffffffffff04831182151516156102ee576102ed610303565b5b828202905092915050565b6000819050919050565b7f4e487b7100000000000000000000000000000000000000000000000000000000600052601160045260246000fd5b7f4e487b7100000000000000000000000000000000000000000000000000000000600052601260045260246000fd5b600080fd5b61036f816102f9565b811461037a57600080fd5b5056fea2646970667358221220dcc8abdf068988a90d2f0e13b553e21ee37fce2c2d9edca2f880364735eced6464736f6c63430008070033",
					"opcodes": "PUSH2 0x3B3 PUSH2 0x53 PUSH1 0xB DUP3 DUP3 DUP3 CODECOPY DUP1 MLOAD PUSH1 0x0 BYTE PUSH1 0x73 EQ PUSH2 0x46 JUMPI PUSH32 0x4E487B7100000000000000000000000000000000000000000000000000000000 PUSH1 0x0 MSTORE PUSH1 0x0 PUSH1 0x4 MSTORE PUSH1 0x24 PUSH1 0x0 REVERT JUMPDEST ADDRESS PUSH1 0x0 MSTORE PUSH1 0x73 DUP2 MSTORE8 DUP3 DUP2 RETURN INVALID PUSH20 0x0 ADDRESS EQ PUSH1 0x80 PUSH1 0x40 MSTORE PUSH1 0x4 CALLDATASIZE LT PUSH2 0x35 JUMPI PUSH1 0x0 CALLDATALOAD PUSH1 0xE0 SHR DUP1 PUSH4 0xF0034A93 EQ PUSH2 0x3A JUMPI JUMPDEST PUSH1 0x0 DUP1 REVERT JUMPDEST PUSH2 0x54 PUSH1 0x4 DUP1 CALLDATASIZE SUB DUP2 ADD SWAP1 PUSH2 0x4F SWAP2 SWAP1 PUSH2 0x173 JUMP JUMPDEST PUSH2 0x6A JUMP JUMPDEST PUSH1 0x40 MLOAD PUSH2 0x61 SWAP2 SWAP1 PUSH2 0x1FD JUMP JUMPDEST PUSH1 0x40 MLOAD DUP1 SWAP2 SUB SWAP1 RETURN JUMPDEST PUSH1 0x0 DUP2 DUP5 DUP6 DUP7 PUSH2 0x7A SWAP2 SWAP1 PUSH2 0x29F JUMP JUMPDEST PUSH2 0x84 SWAP2 SWAP1 PUSH2 0x29F JUMP JUMPDEST PUSH2 0x8E SWAP2 SWAP1 PUSH2 0x29F JUMP JUMPDEST DUP3 DUP4 DUP6 DUP7 DUP11 PUSH1 0x4 PUSH2 0x9F SWAP2 SWAP1 PUSH2 0x29F JUMP JUMPDEST PUSH2 0xA9 SWAP2 SWAP1 PUSH2 0x29F JUMP JUMPDEST PUSH2 0xB3 SWAP2 SWAP1 PUSH2 0x29F JUMP JUMPDEST PUSH2 0xBD SWAP2 SWAP1 PUSH2 0x29F JUMP JUMPDEST PUSH2 0xC7 SWAP2 SWAP1 PUSH2 0x29F JUMP JUMPDEST PUSH2 0xD1 SWAP2 SWAP1 PUSH2 0x218 JUMP JUMPDEST PUSH8 0xDE0B6B3A7640000 DUP5 DUP7 DUP8 DUP9 PUSH2 0xE8 SWAP2 SWAP1 PUSH2 0x29F JUMP JUMPDEST PUSH2 0xF2 SWAP2 SWAP1 PUSH2 0x29F JUMP JUMPDEST PUSH2 0xFC SWAP2 SWAP1 PUSH2 0x29F JUMP JUMPDEST DUP5 DUP6 DUP8 DUP9 DUP12 PUSH1 0x4 PUSH2 0x10D SWAP2 SWAP1 PUSH2 0x29F JUMP JUMPDEST PUSH2 0x117 SWAP2 SWAP1 PUSH2 0x29F JUMP JUMPDEST PUSH2 0x121 SWAP2 SWAP1 PUSH2 0x29F JUMP JUMPDEST PUSH2 0x12B SWAP2 SWAP1 PUSH2 0x29F JUMP JUMPDEST PUSH2 0x135 SWAP2 SWAP1 PUSH2 0x29F JUMP JUMPDEST PUSH2 0x13F SWAP2 SWAP1 PUSH2 0x218 JUMP JUMPDEST PUSH2 0x149 SWAP2 SWAP1 PUSH2 0x29F JUMP JUMPDEST PUSH2 0x153 SWAP2 SWAP1 PUSH2 0x26E JUMP JUMPDEST SWAP1 POP SWAP6 SWAP5 POP POP POP POP POP JUMP JUMPDEST PUSH1 0x0 DUP2 CALLDATALOAD SWAP1 POP PUSH2 0x16D DUP2 PUSH2 0x366 JUMP JUMPDEST SWAP3 SWAP2 POP POP JUMP JUMPDEST PUSH1 0x0 DUP1 PUSH1 0x0 DUP1 PUSH1 0x0 PUSH1 0xA0 DUP7 DUP9 SUB SLT ISZERO PUSH2 0x18F JUMPI PUSH2 0x18E PUSH2 0x361 JUMP JUMPDEST JUMPDEST PUSH1 0x0 PUSH2 0x19D DUP9 DUP3 DUP10 ADD PUSH2 0x15E JUMP JUMPDEST SWAP6 POP POP PUSH1 0x20 PUSH2 0x1AE DUP9 DUP3 DUP10 ADD PUSH2 0x15E JUMP JUMPDEST SWAP5 POP POP PUSH1 0x40 PUSH2 0x1BF DUP9 DUP3 DUP10 ADD PUSH2 0x15E JUMP JUMPDEST SWAP4 POP POP PUSH1 0x60 PUSH2 0x1D0 DUP9 DUP3 DUP10 ADD PUSH2 0x15E JUMP JUMPDEST SWAP3 POP POP PUSH1 0x80 PUSH2 0x1E1 DUP9 DUP3 DUP10 ADD PUSH2 0x15E JUMP JUMPDEST SWAP2 POP POP SWAP3 SWAP6 POP SWAP3 SWAP6 SWAP1 SWAP4 POP JUMP JUMPDEST PUSH2 0x1F7 DUP2 PUSH2 0x2F9 JUMP JUMPDEST DUP3 MSTORE POP POP JUMP JUMPDEST PUSH1 0x0 PUSH1 0x20 DUP3 ADD SWAP1 POP PUSH2 0x212 PUSH1 0x0 DUP4 ADD DUP5 PUSH2 0x1EE JUMP JUMPDEST SWAP3 SWAP2 POP POP JUMP JUMPDEST PUSH1 0x0 PUSH2 0x223 DUP3 PUSH2 0x2F9 JUMP JUMPDEST SWAP2 POP PUSH2 0x22E DUP4 PUSH2 0x2F9 JUMP JUMPDEST SWAP3 POP DUP3 PUSH32 0xFFFFFFFFFFFFFFFFFFFFFFFFFFFFFFFFFFFFFFFFFFFFFFFFFFFFFFFFFFFFFFFF SUB DUP3 GT ISZERO PUSH2 0x263 JUMPI PUSH2 0x262 PUSH2 0x303 JUMP JUMPDEST JUMPDEST DUP3 DUP3 ADD SWAP1 POP SWAP3 SWAP2 POP POP JUMP JUMPDEST PUSH1 0x0 PUSH2 0x279 DUP3 PUSH2 0x2F9 JUMP JUMPDEST SWAP2 POP PUSH2 0x284 DUP4 PUSH2 0x2F9 JUMP JUMPDEST SWAP3 POP DUP3 PUSH2 0x294 JUMPI PUSH2 0x293 PUSH2 0x332 JUMP JUMPDEST JUMPDEST DUP3 DUP3 DIV SWAP1 POP SWAP3 SWAP2 POP POP JUMP JUMPDEST PUSH1 0x0 PUSH2 0x2AA DUP3 PUSH2 0x2F9 JUMP JUMPDEST SWAP2 POP PUSH2 0x2B5 DUP4 PUSH2 0x2F9 JUMP JUMPDEST SWAP3 POP DUP2 PUSH32 0xFFFFFFFFFFFFFFFFFFFFFFFFFFFFFFFFFFFFFFFFFFFFFFFFFFFFFFFFFFFFFFFF DIV DUP4 GT DUP3 ISZERO ISZERO AND ISZERO PUSH2 0x2EE JUMPI PUSH2 0x2ED PUSH2 0x303 JUMP JUMPDEST JUMPDEST DUP3 DUP3 MUL SWAP1 POP SWAP3 SWAP2 POP POP JUMP JUMPDEST PUSH1 0x0 DUP2 SWAP1 POP SWAP2 SWAP1 POP JUMP JUMPDEST PUSH32 0x4E487B7100000000000000000000000000000000000000000000000000000000 PUSH1 0x0 MSTORE PUSH1 0x11 PUSH1 0x4 MSTORE PUSH1 0x24 PUSH1 0x0 REVERT JUMPDEST PUSH32 0x4E487B7100000000000000000000000000000000000000000000000000000000 PUSH1 0x0 MSTORE PUSH1 0x12 PUSH1 0x4 MSTORE PUSH1 0x24 PUSH1 0x0 REVERT JUMPDEST PUSH1 0x0 DUP1 REVERT JUMPDEST PUSH2 0x36F DUP2 PUSH2 0x2F9 JUMP JUMPDEST DUP2 EQ PUSH2 0x37A JUMPI PUSH1 0x0 DUP1 REVERT JUMPDEST POP JUMP INVALID LOG2 PUSH5 0x6970667358 0x22 SLT KECCAK256 0xDC 0xC8 0xAB 0xDF MOD DUP10 DUP9 0xA9 0xD 0x2F 0xE SGT 0xB5 MSTORE8 0xE2 0x1E 0xE3 PUSH32 0xCE2C2D9EDCA2F880364735ECED6464736F6C6343000807003300000000000000 "
				},
				"gasEstimates": {
					"creation": {
						"codeDepositCost": "189400",
						"executionCost": "257",
						"totalCost": "189657"
					},
					"external": {
						"cal_price(uint256,uint256,uint256,uint256,uint256)": "infinite"
					},
					"internal": {
						"cal_B(uint256,uint256,uint256,uint256)": "infinite",
						"cal_B_f(uint256,uint256,uint256)": "infinite",
						"cal_X(uint256,uint256,uint256,uint256)": "infinite",
						"cal_Y(uint256,uint256,uint256,uint256)": "infinite",
						"cbrt(uint256)": "infinite",
						"max(uint256,uint256)": "infinite",
						"min3(uint256,uint256,uint256)": "infinite",
						"sqrt(uint256)": "infinite"
					}
				},
				"methodIdentifiers": {
					"cal_price(uint256,uint256,uint256,uint256,uint256)": "f0034a93"
				}
			},
			"storageLayout": {
				"storage": [],
				"types": null
			},
			"userdoc": {
				"kind": "user",
				"methods": {},
				"version": 1
			}
		}
	}
}