{
	"data": {
		"bytecode": {
			"linkReferences": {},
			"object": "6080604052670de0b6b3a7640000602a556001602d553480156200002257600080fd5b5060004690507f8b73c3c69bb8fe3d512ecc4cf759cc79239f7b179b0ffacaa9a75d522b39400f6040518060400160405280600a81526020017f556e697377617020563200000000000000000000000000000000000000000000815250805190602001206040518060400160405280600181526020017f3100000000000000000000000000000000000000000000000000000000000000815250805190602001208330604051602001620000db95949392919062000172565b604051602081830303815290604052805190602001206003819055505033602360006101000a81548173ffffffffffffffffffffffffffffffffffffffff021916908373ffffffffffffffffffffffffffffffffffffffff16021790555062000217565b6200014a81620001cf565b82525050565b6200015b81620001e3565b82525050565b6200016c816200020d565b82525050565b600060a08201905062000189600083018862000150565b62000198602083018762000150565b620001a7604083018662000150565b620001b6606083018562000161565b620001c560808301846200013f565b9695505050505050565b6000620001dc82620001ed565b9050919050565b6000819050919050565b600073ffffffffffffffffffffffffffffffffffffffff82169050919050565b6000819050919050565b61656c80620002276000396000f3fe608060405234801561001057600080fd5b50600436106103f05760003560e01c80637e1431be11610215578063c3d81b2111610125578063ddca3f43116100b8578063f70f439411610087578063f70f439414610be0578063f738c74e14610bfe578063fc69b80f14610c1c578063fe18f26114610c4c578063ff2f169e14610c6a576103f0565b8063ddca3f4314610b68578063df0ab2c214610b86578063e19a147414610ba4578063ea1797b014610bc2576103f0565b8063cfe38a5e116100f4578063cfe38a5e14610ae2578063d44022db14610afe578063d505accf14610b1c578063dd62ed3e14610b38576103f0565b8063c3d81b2114610a6c578063c45a015514610a88578063c7d4493214610aa6578063c9e525df14610ac4576103f0565b80638e361389116101a8578063a5aa65b911610177578063a5aa65b9146109c6578063a9059cbb146109e4578063acd4a7c214610a14578063b7d19fc414610a32578063bc25cf7714610a50576103f0565b80638e361389146109505780639076ae861461096e57806395d89b411461098a5780639a36e122146109a8576103f0565b806383dfe5fd116101e457806383dfe5fd146108da57806384009686146108f85780638bc1a32f146109165780638cf825e714610934576103f0565b80637e1431be1461083b5780637ecebe001461086e5780637ed6281b1461089e57806380416c02146108bc576103f0565b806330adf81f116103105780634c324e6a116102a35780636665ff11116102725780636665ff11146107805780636b3545aa146107b157806370a08231146107cf57806379dbf8ea146107ff5780637e11939a1461081d576103f0565b80634c324e6a146106f85780635595d459146107145780635e287d86146107325780636126deef14610750576103f0565b806336af2f9b116102df57806336af2f9b146106825780633c6fe2f4146106a0578063480c4f7e146106be578063485cc955146106dc576103f0565b806330adf81f1461060a578063313ce5671461062857806332e7c5bf146106465780633644e51514610664576103f0565b806318db96811161038857806323b872dd1161035757806323b872dd1461057f57806323ed16b6146105af5780632dd6c254146105cd57806330688ab8146105eb576103f0565b806318db9681146104f55780631cbdffd1146105135780632190219e14610543578063225c2c5014610561576103f0565b80630f529ba2116103c45780630f529ba21461047d578063139860ee1461049b57806316dc165b146104b957806318160ddd146104d7576103f0565b8062b52645146103f557806306fdde0314610413578063095ea7b3146104315780630bfa68d814610461575b600080fd5b6103fd610c86565b60405161040a9190615eed565b60405180910390f35b61041b610c8c565b6040516104289190615e0b565b60405180910390f35b61044b600480360381019061044691906158d6565b610cc5565b6040516104589190615d2f565b60405180910390f35b61047b60048036038101906104769190615943565b610cdc565b005b610485610d40565b6040516104929190615eed565b60405180910390f35b6104a3610d46565b6040516104b09190615eed565b60405180910390f35b6104c1610d4c565b6040516104ce9190615ca6565b60405180910390f35b6104df610d72565b6040516104ec9190615eed565b60405180910390f35b6104fd610d78565b60405161050a9190615eed565b60405180910390f35b61052d60048036038101906105289190615943565b610d7e565b60405161053a9190615eed565b60405180910390f35b61054b610d99565b6040516105589190615eed565b60405180910390f35b610569610d9f565b6040516105769190615eed565b60405180910390f35b610599600480360381019061059491906157a1565b610da5565b6040516105a69190615d2f565b60405180910390f35b6105b7610f52565b6040516105c49190615eed565b60405180910390f35b6105d5610f58565b6040516105e29190615eed565b60405180910390f35b6105f3610f5e565b604051610601929190615f08565b60405180910390f35b6106126110f1565b60405161061f9190615d4a565b60405180910390f35b610630611118565b60405161063d9190615f31565b60405180910390f35b61064e61111d565b60405161065b9190615eed565b60405180910390f35b61066c611123565b6040516106799190615d4a565b60405180910390f35b61068a611129565b6040516106979190615eed565b60405180910390f35b6106a861112f565b6040516106b59190615eed565b60405180910390f35b6106c6611135565b6040516106d39190615eed565b60405180910390f35b6106f660048036038101906106f19190615761565b61113b565b005b610712600480360381019061070d91906159dd565b61125d565b005b61071c61216f565b6040516107299190615eed565b60405180910390f35b61073a612175565b6040516107479190615eed565b60405180910390f35b61076a600480360381019061076591906159dd565b61217b565b6040516107779190615eed565b60405180910390f35b61079a6004803603810190610795919061599d565b61227c565b6040516107a8929190615f08565b60405180910390f35b6107b96123e9565b6040516107c69190615eed565b60405180910390f35b6107e960048036038101906107e49190615734565b6123ef565b6040516107f69190615eed565b60405180910390f35b610807612407565b6040516108149190615eed565b60405180910390f35b61082561240d565b6040516108329190615eed565b60405180910390f35b61085560048036038101906108509190615896565b612413565b6040516108659493929190615cc1565b60405180910390f35b61088860048036038101906108839190615734565b61247d565b6040516108959190615eed565b60405180910390f35b6108a6612495565b6040516108b39190615eed565b60405180910390f35b6108c461249b565b6040516108d19190615eed565b60405180910390f35b6108e26124a1565b6040516108ef9190615eed565b60405180910390f35b6109006124a7565b60405161090d9190615eed565b60405180910390f35b61091e6124ad565b60405161092b9190615eed565b60405180910390f35b61094e60048036038101906109499190615761565b6124b3565b005b6109586127d5565b6040516109659190615eed565b60405180910390f35b61098860048036038101906109839190615a30565b6127db565b005b610992612bc9565b60405161099f9190615e0b565b60405180910390f35b6109b0612c02565b6040516109bd9190615eed565b60405180910390f35b6109ce612c08565b6040516109db9190615eed565b60405180910390f35b6109fe60048036038101906109f991906158d6565b612c0e565b604051610a0b9190615d2f565b60405180910390f35b610a1c612c25565b604051610a299190615eed565b60405180910390f35b610a3a612c2b565b604051610a479190615ca6565b60405180910390f35b610a6a6004803603810190610a659190615734565b612c51565b005b610a866004803603810190610a819190615761565b612ec1565b005b610a90613272565b604051610a9d9190615ca6565b60405180910390f35b610aae613298565b604051610abb9190615d2f565b60405180910390f35b610acc6132ab565b604051610ad99190615eed565b60405180910390f35b610afc6004803603810190610af79190615943565b6132b1565b005b610b06613315565b604051610b139190615eed565b60405180910390f35b610b366004803603810190610b3191906157f4565b61331b565b005b610b526004803603810190610b4d9190615761565b613543565b604051610b5f9190615eed565b60405180910390f35b610b70613568565b604051610b7d9190615eed565b60405180910390f35b610b8e61356e565b604051610b9b9190615eed565b60405180910390f35b610bac613574565b604051610bb99190615eed565b60405180910390f35b610bca61357a565b604051610bd79190615eed565b60405180910390f35b610be8613580565b604051610bf59190615eed565b60405180910390f35b610c06613586565b604051610c139190615eed565b60405180910390f35b610c366004803603810190610c3191906158d6565b61358c565b604051610c439190615eed565b60405180910390f35b610c546135b4565b604051610c619190615eed565b60405180910390f35b610c846004803603810190610c7f9190615943565b6135ba565b005b600e5481565b6040518060400160405280600a81526020017f556e69737761702056320000000000000000000000000000000000000000000081525081565b6000610cd233848461361e565b6001905092915050565b602360009054906101000a900473ffffffffffffffffffffffffffffffffffffffff1673ffffffffffffffffffffffffffffffffffffffff163373ffffffffffffffffffffffffffffffffffffffff1614610d3657600080fd5b80601f8190555050565b60075481565b601a5481565b602460009054906101000a900473ffffffffffffffffffffffffffffffffffffffff1681565b60005481565b601b5481565b602e8160028110610d8e57600080fd5b016000915090505481565b60175481565b60185481565b6000610101600260008673ffffffffffffffffffffffffffffffffffffffff1673ffffffffffffffffffffffffffffffffffffffff16815260200190815260200160002060003373ffffffffffffffffffffffffffffffffffffffff1673ffffffffffffffffffffffffffffffffffffffff1681526020019081526020016000205414610f3c57610ebb82600260008773ffffffffffffffffffffffffffffffffffffffff1673ffffffffffffffffffffffffffffffffffffffff16815260200190815260200160002060003373ffffffffffffffffffffffffffffffffffffffff1673ffffffffffffffffffffffffffffffffffffffff1681526020019081526020016000205461370990919063ffffffff16565b600260008673ffffffffffffffffffffffffffffffffffffffff1673ffffffffffffffffffffffffffffffffffffffff16815260200190815260200160002060003373ffffffffffffffffffffffffffffffffffffffff1673ffffffffffffffffffffffffffffffffffffffff168152602001908152602001600020819055505b610f47848484613762565b600190509392505050565b601c5481565b60275481565b600080601454602460009054906101000a900473ffffffffffffffffffffffffffffffffffffffff1673ffffffffffffffffffffffffffffffffffffffff166370a08231306040518263ffffffff1660e01b8152600401610fbf9190615ca6565b60206040518083038186803b158015610fd757600080fd5b505afa158015610feb573d6000803e3d6000fd5b505050506040513d601f19601f8201168201806040525081019061100f9190615970565b61101991906161db565b9150601354602560009054906101000a900473ffffffffffffffffffffffffffffffffffffffff1673ffffffffffffffffffffffffffffffffffffffff166370a08231306040518263ffffffff1660e01b81526004016110799190615ca6565b60206040518083038186803b15801561109157600080fd5b505afa1580156110a5573d6000803e3d6000fd5b505050506040513d601f19601f820116820180604052508101906110c99190615970565b6110d391906161db565b905060008211806110e45750600081115b6110ed57600080fd5b9091565b7f6e71edae12b1b97f4d1f60370fef10105fa2faae0126114a169c64845d6126c960001b81565b601281565b60055481565b60035481565b600c5481565b60135481565b60155481565b602360009054906101000a900473ffffffffffffffffffffffffffffffffffffffff1673ffffffffffffffffffffffffffffffffffffffff163373ffffffffffffffffffffffffffffffffffffffff161461119557600080fd5b81602460006101000a81548173ffffffffffffffffffffffffffffffffffffffff021916908373ffffffffffffffffffffffffffffffffffffffff16021790555080602560006101000a81548173ffffffffffffffffffffffffffffffffffffffff021916908373ffffffffffffffffffffffffffffffffffffffff160217905550602a54600581905550602a54600681905550602a54600781905550600754600881905550600260075461124a9190615fdf565b600981905550600954600a819055505050565b6001602d54146112a2576040517f08c379a000000000000000000000000000000000000000000000000000000000815260040161129990615ecd565b60405180910390fd5b6000602d81905550600082846112b89190616181565b1480156112d05750600082846112ce9190615f89565b115b80156112fe57506112e0816138f6565b6112e9826139ea565b6112f283613acf565b6112fc9190615f89565b115b80156113615750603060008273ffffffffffffffffffffffffffffffffffffffff1673ffffffffffffffffffffffffffffffffffffffff168152602001908152602001600020600080151515158152602001908152602001600020600201548311155b80156113c55750603060008273ffffffffffffffffffffffffffffffffffffffff1673ffffffffffffffffffffffffffffffffffffffff16815260200190815260200160002060006001151515158152602001908152602001600020600201548211155b6113ce57600080fd5b6113d6613b9e565b6000831115611b085760006113ec846001613d0a565b905060006114b085603060008673ffffffffffffffffffffffffffffffffffffffff1673ffffffffffffffffffffffffffffffffffffffff1681526020019081526020016000206000600115151515815260200190815260200160002060010154601854601a54603060008973ffffffffffffffffffffffffffffffffffffffff1673ffffffffffffffffffffffffffffffffffffffff16815260200190815260200160002060008015151515815260200190815260200160002060020154614016565b905084603060008573ffffffffffffffffffffffffffffffffffffffff1673ffffffffffffffffffffffffffffffffffffffff168152602001908152602001600020600080151515158152602001908152602001600020600201600082825461151991906161db565b92505081905550806018600082825461153291906161db565b925050819055506115f3603060008573ffffffffffffffffffffffffffffffffffffffff1673ffffffffffffffffffffffffffffffffffffffff168152602001908152602001600020600060011515151581526020019081526020016000206001015486603060008773ffffffffffffffffffffffffffffffffffffffff1673ffffffffffffffffffffffffffffffffffffffff16815260200190815260200160002060008015151515815260200190815260200160002060020154614050565b601a600082825461160491906161db565b925050819055506116c5603060008573ffffffffffffffffffffffffffffffffffffffff1673ffffffffffffffffffffffffffffffffffffffff168152602001908152602001600020600060011515151581526020019081526020016000206001015486603060008773ffffffffffffffffffffffffffffffffffffffff1673ffffffffffffffffffffffffffffffffffffffff16815260200190815260200160002060008015151515815260200190815260200160002060020154614050565b603060008573ffffffffffffffffffffffffffffffffffffffff1673ffffffffffffffffffffffffffffffffffffffff16815260200190815260200160002060006001151515158152602001908152602001600020600101600082825461172c91906161db565b925050819055508082118015611755575060001515602b60009054906101000a900460ff161515145b156117de57611770818361176991906161db565b6000614072565b603160008573ffffffffffffffffffffffffffffffffffffffff1673ffffffffffffffffffffffffffffffffffffffff1681526020019081526020016000206000600281106117c2576117c1616352565b5b0160008282546117d29190615f89565b92505081905550611b01565b8082603160008673ffffffffffffffffffffffffffffffffffffffff1673ffffffffffffffffffffffffffffffffffffffff16815260200190815260200160002060016002811061183257611831616352565b5b015461183e9190615f89565b11801561185e575060011515602b60009054906101000a900460ff161515145b15611929578082603160008673ffffffffffffffffffffffffffffffffffffffff1673ffffffffffffffffffffffffffffffffffffffff1681526020019081526020016000206001600281106118b7576118b6616352565b5b01546118c39190615f89565b6118cd91906161db565b603160008573ffffffffffffffffffffffffffffffffffffffff1673ffffffffffffffffffffffffffffffffffffffff16815260200190815260200160002060016002811061191f5761191e616352565b5b0181905550611b00565b6119f1603160008573ffffffffffffffffffffffffffffffffffffffff1673ffffffffffffffffffffffffffffffffffffffff16815260200190815260200160002060016002811061197e5761197d616352565b5b0154838361198c91906161db565b61199691906161db565b603160008673ffffffffffffffffffffffffffffffffffffffff1673ffffffffffffffffffffffffffffffffffffffff1681526020019081526020016000206000600281106119e8576119e7616352565b5b0154600061437e565b603160008573ffffffffffffffffffffffffffffffffffffffff1673ffffffffffffffffffffffffffffffffffffffff168152602001908152602001600020600060028110611a4357611a42616352565b5b0154611a4f91906161db565b603160008573ffffffffffffffffffffffffffffffffffffffff1673ffffffffffffffffffffffffffffffffffffffff168152602001908152602001600020600060028110611aa157611aa0616352565b5b01819055506000603160008573ffffffffffffffffffffffffffffffffffffffff1673ffffffffffffffffffffffffffffffffffffffff168152602001908152602001600020600160028110611afa57611af9616352565b5b01819055505b5b5050612162565b6000611b15836001614072565b90506000611bd984603060008673ffffffffffffffffffffffffffffffffffffffff1673ffffffffffffffffffffffffffffffffffffffff16815260200190815260200160002060008015151515815260200190815260200160002060010154601754601954603060008973ffffffffffffffffffffffffffffffffffffffff1673ffffffffffffffffffffffffffffffffffffffff1681526020019081526020016000206000600115151515815260200190815260200160002060020154614016565b905083603060008573ffffffffffffffffffffffffffffffffffffffff1673ffffffffffffffffffffffffffffffffffffffff168152602001908152602001600020600060011515151581526020019081526020016000206002016000828254611c4391906161db565b925050819055508060176000828254611c5c91906161db565b92505081905550611d1d603060008573ffffffffffffffffffffffffffffffffffffffff1673ffffffffffffffffffffffffffffffffffffffff1681526020019081526020016000206000801515151581526020019081526020016000206001015485603060008773ffffffffffffffffffffffffffffffffffffffff1673ffffffffffffffffffffffffffffffffffffffff1681526020019081526020016000206000600115151515815260200190815260200160002060020154614050565b60196000828254611d2e91906161db565b92505081905550611def603060008573ffffffffffffffffffffffffffffffffffffffff1673ffffffffffffffffffffffffffffffffffffffff1681526020019081526020016000206000801515151581526020019081526020016000206001015485603060008773ffffffffffffffffffffffffffffffffffffffff1673ffffffffffffffffffffffffffffffffffffffff1681526020019081526020016000206000600115151515815260200190815260200160002060020154614050565b603060008573ffffffffffffffffffffffffffffffffffffffff1673ffffffffffffffffffffffffffffffffffffffff1681526020019081526020016000206000801515151581526020019081526020016000206001016000828254611e5591906161db565b925050819055508082603160008673ffffffffffffffffffffffffffffffffffffffff1673ffffffffffffffffffffffffffffffffffffffff168152602001908152602001600020600060028110611eb057611eaf616352565b5b0154611ebc9190615f89565b1115611f88578082603160008673ffffffffffffffffffffffffffffffffffffffff1673ffffffffffffffffffffffffffffffffffffffff168152602001908152602001600020600060028110611f1657611f15616352565b5b0154611f229190615f89565b611f2c91906161db565b603160008573ffffffffffffffffffffffffffffffffffffffff1673ffffffffffffffffffffffffffffffffffffffff168152602001908152602001600020600060028110611f7e57611f7d616352565b5b018190555061215f565b612050603160008573ffffffffffffffffffffffffffffffffffffffff1673ffffffffffffffffffffffffffffffffffffffff168152602001908152602001600020600060028110611fdd57611fdc616352565b5b01548383611feb91906161db565b611ff591906161db565b603160008673ffffffffffffffffffffffffffffffffffffffff1673ffffffffffffffffffffffffffffffffffffffff16815260200190815260200160002060016002811061204757612046616352565b5b01546000614697565b603160008573ffffffffffffffffffffffffffffffffffffffff1673ffffffffffffffffffffffffffffffffffffffff1681526020019081526020016000206001600281106120a2576120a1616352565b5b01546120ae91906161db565b603160008573ffffffffffffffffffffffffffffffffffffffff1673ffffffffffffffffffffffffffffffffffffffff168152602001908152602001600020600160028110612100576120ff616352565b5b01819055506000603160008573ffffffffffffffffffffffffffffffffffffffff1673ffffffffffffffffffffffffffffffffffffffff16815260200190815260200160002060006002811061215957612158616352565b5b01819055505b50505b6001602d81905550505050565b60145481565b601d5481565b60006001602d54146121c2576040517f08c379a00000000000000000000000000000000000000000000000000000000081526004016121b990615ecd565b60405180910390fd5b6000602d819055506121e6600b54856014546121de9190615f89565b601454614050565b600b81905550612208600c54846013546122009190615f89565b601354614050565b600c8190555061221d60275485601454614050565b90508060275461222d9190615f89565b602781905550836014546122419190615f89565b601481905550826013546122559190615f89565b60138190555061226582826149b0565b61226d614aca565b6001602d819055509392505050565b6000806001602d54146122c4576040517f08c379a00000000000000000000000000000000000000000000000000000000081526004016122bb90615ecd565b60405180910390fd5b6000602d819055506122db84601454602754614050565b91506122ec84601354602754614050565b905061230a600b548360145461230291906161db565b601454614050565b600b8190555061232c600c548260135461232491906161db565b601354614050565b600c819055508160145461234091906161db565b6014819055508060135461235491906161db565b6013819055508360275461236891906161db565b6027819055506123783085614b3c565b6123a5602460009054906101000a900473ffffffffffffffffffffffffffffffffffffffff168484614c56565b6123d2602560009054906101000a900473ffffffffffffffffffffffffffffffffffffffff168483614c56565b6123da614aca565b6001602d819055509250929050565b60195481565b60016020528060005260406000206000915090505481565b60125481565b602a5481565b6030602052816000526040600020602052806000526040600020600091509150508060000160009054906101000a900473ffffffffffffffffffffffffffffffffffffffff16908060000160149054906101000a900460ff16908060010154908060020154905084565b60046020528060005260406000206000915090505481565b60205481565b600a5481565b60065481565b600b5481565b60285481565b6000602560009054906101000a900473ffffffffffffffffffffffffffffffffffffffff1673ffffffffffffffffffffffffffffffffffffffff168373ffffffffffffffffffffffffffffffffffffffff16148015612525575060011515602b60009054906101000a900460ff161515145b1561267f57602e60016002811061253f5761253e616352565b5b01546013548473ffffffffffffffffffffffffffffffffffffffff166370a08231306040518263ffffffff1660e01b815260040161257d9190615ca6565b60206040518083038186803b15801561259557600080fd5b505afa1580156125a9573d6000803e3d6000fd5b505050506040513d601f19601f820116820180604052508101906125cd9190615970565b6125d791906161db565b6125e191906161db565b905080603160008473ffffffffffffffffffffffffffffffffffffffff1673ffffffffffffffffffffffffffffffffffffffff16815260200190815260200160002060016002811061263657612635616352565b5b0160008282546126469190615f89565b9250508190555080602e60016002811061266357612662616352565b5b0160008282546126739190615f89565b925050819055506127d0565b602e60006002811061269457612693616352565b5b01546014548473ffffffffffffffffffffffffffffffffffffffff166370a08231306040518263ffffffff1660e01b81526004016126d29190615ca6565b60206040518083038186803b1580156126ea57600080fd5b505afa1580156126fe573d6000803e3d6000fd5b505050506040513d601f19601f820116820180604052508101906127229190615970565b61272c91906161db565b61273691906161db565b905080603160008473ffffffffffffffffffffffffffffffffffffffff1673ffffffffffffffffffffffffffffffffffffffff16815260200190815260200160002060006002811061278b5761278a616352565b5b01600082825461279b9190615f89565b9250508190555080602e6000600281106127b8576127b7616352565b5b0160008282546127c89190615f89565b925050819055505b505050565b60095481565b6001602d5414612820576040517f08c379a000000000000000000000000000000000000000000000000000000000815260040161281790615ecd565b60405180910390fd5b6000602d81905550600083856128369190616181565b14801561284e57506000838561284c9190615f89565b115b61285757600080fd5b61285f613b9e565b6128af61286b826139ea565b602a54866128799190616181565b6128839190615f89565b61288c836139ea565b6128a086601554600d54600e546001614016565b6128aa9190615f89565b614de0565b6026546128bb836138f6565b6128c4846139ea565b6128cd85613acf565b6128d79190615f89565b6128e191906161db565b6128eb9190615fdf565b116128f557600080fd5b600080600115158415151415612a6157600086111561292357612919866001613d0a565b9150859050612936565b849150612933856000600161437e565b90505b61294581601954601754614050565b603060008573ffffffffffffffffffffffffffffffffffffffff1673ffffffffffffffffffffffffffffffffffffffff16815260200190815260200160002060008015151515815260200190815260200160002060010160008282546129ab9190615f89565b9250508190555081603060008573ffffffffffffffffffffffffffffffffffffffff1673ffffffffffffffffffffffffffffffffffffffff168152602001908152602001600020600060011515151581526020019081526020016000206002016000828254612a1a9190615f89565b92505081905550601954612a3382601954601754614050565b612a3d9190615f89565b6019819055508060176000828254612a559190615f89565b92505081905550612bb9565b6000861115612a8157859150612a7a8660006001614697565b9050612a92565b612a8c856001614072565b91508490505b612aa181601a54601854614050565b603060008573ffffffffffffffffffffffffffffffffffffffff1673ffffffffffffffffffffffffffffffffffffffff168152602001908152602001600020600060011515151581526020019081526020016000206001016000828254612b089190615f89565b9250508190555081603060008573ffffffffffffffffffffffffffffffffffffffff1673ffffffffffffffffffffffffffffffffffffffff1681526020019081526020016000206000801515151581526020019081526020016000206002016000828254612b769190615f89565b92505081905550601a54612b8f82601a54601854614050565b612b999190615f89565b601a819055508060186000828254612bb19190615f89565b925050819055505b50506001602d8190555050505050565b6040518060400160405280600681526020017f554e492d5632000000000000000000000000000000000000000000000000000081525081565b60265481565b60105481565b6000612c1b338484613762565b6001905092915050565b60225481565b602560009054906101000a900473ffffffffffffffffffffffffffffffffffffffff1681565b6001602d5414612c96576040517f08c379a0000000000000000000000000000000000000000000000000000000008152600401612c8d90615ecd565b60405180910390fd5b6000602d81905550612daa602460009054906101000a900473ffffffffffffffffffffffffffffffffffffffff1682612da5602e600060028110612cdd57612cdc616352565b5b0154601454612cec9190615f89565b602460009054906101000a900473ffffffffffffffffffffffffffffffffffffffff1673ffffffffffffffffffffffffffffffffffffffff166370a08231306040518263ffffffff1660e01b8152600401612d479190615ca6565b60206040518083038186803b158015612d5f57600080fd5b505afa158015612d73573d6000803e3d6000fd5b505050506040513d601f19601f82011682018060405250810190612d979190615970565b61370990919063ffffffff16565b614c56565b612eb6602560009054906101000a900473ffffffffffffffffffffffffffffffffffffffff1682612eb1602e600160028110612de957612de8616352565b5b0154601354612df89190615f89565b602560009054906101000a900473ffffffffffffffffffffffffffffffffffffffff1673ffffffffffffffffffffffffffffffffffffffff166370a08231306040518263ffffffff1660e01b8152600401612e539190615ca6565b60206040518083038186803b158015612e6b57600080fd5b505afa158015612e7f573d6000803e3d6000fd5b505050506040513d601f19601f82011682018060405250810190612ea39190615970565b61370990919063ffffffff16565b614c56565b6001602d8190555050565b6001602d5414612f06576040517f08c379a0000000000000000000000000000000000000000000000000000000008152600401612efd90615ecd565b60405180910390fd5b6000602d81905550612f17826138f6565b612f20836139ea565b612f2984613acf565b612f339190615f89565b111580612f835750602854612f47836139ea565b612f519190616181565b612f5a836138f6565b612f63846139ea565b612f6c85613acf565b612f769190615f89565b612f8091906161db565b11155b612f8c57600080fd5b613019602460009054906101000a900473ffffffffffffffffffffffffffffffffffffffff1682602954603160008773ffffffffffffffffffffffffffffffffffffffff1673ffffffffffffffffffffffffffffffffffffffff16815260200190815260200160002060006002811061300857613007616352565b5b01546130149190616181565b614c56565b6130a6602560009054906101000a900473ffffffffffffffffffffffffffffffffffffffff1682602954603160008773ffffffffffffffffffffffffffffffffffffffff1673ffffffffffffffffffffffffffffffffffffffff16815260200190815260200160002060016002811061309557613094616352565b5b01546130a19190616181565b614c56565b603160008373ffffffffffffffffffffffffffffffffffffffff1673ffffffffffffffffffffffffffffffffffffffff16815260200190815260200160002060006130f19190615693565b6000603060008473ffffffffffffffffffffffffffffffffffffffff1673ffffffffffffffffffffffffffffffffffffffff168152602001908152602001600020600080151515158152602001908152602001600020600101819055506000603060008473ffffffffffffffffffffffffffffffffffffffff1673ffffffffffffffffffffffffffffffffffffffff1681526020019081526020016000206000600115151515815260200190815260200160002060010181905550613266603060008473ffffffffffffffffffffffffffffffffffffffff1673ffffffffffffffffffffffffffffffffffffffff16815260200190815260200160002060008015151515815260200190815260200160002060020154603060008573ffffffffffffffffffffffffffffffffffffffff1673ffffffffffffffffffffffffffffffffffffffff16815260200190815260200160002060006001151515158152602001908152602001600020600201548461125d565b6001602d819055505050565b602360009054906101000a900473ffffffffffffffffffffffffffffffffffffffff1681565b601e60009054906101000a900460ff1681565b60215481565b602360009054906101000a900473ffffffffffffffffffffffffffffffffffffffff1673ffffffffffffffffffffffffffffffffffffffff163373ffffffffffffffffffffffffffffffffffffffff161461330b57600080fd5b8060268190555050565b60165481565b4284101561335e576040517f08c379a000000000000000000000000000000000000000000000000000000000815260040161335590615e8d565b60405180910390fd5b60006003547f6e71edae12b1b97f4d1f60370fef10105fa2faae0126114a169c64845d6126c960001b898989600460008e73ffffffffffffffffffffffffffffffffffffffff1673ffffffffffffffffffffffffffffffffffffffff16815260200190815260200160002060008154809291906133da906162a1565b919050558a6040516020016133f496959493929190615d65565b6040516020818303038152906040528051906020012060405160200161341b929190615c6f565b6040516020818303038152906040528051906020012090506000600182868686604051600081526020016040526040516134589493929190615dc6565b6020604051602081039080840390855afa15801561347a573d6000803e3d6000fd5b505050602060405103519050600073ffffffffffffffffffffffffffffffffffffffff168173ffffffffffffffffffffffffffffffffffffffff16141580156134ee57508873ffffffffffffffffffffffffffffffffffffffff168173ffffffffffffffffffffffffffffffffffffffff16145b61352d576040517f08c379a000000000000000000000000000000000000000000000000000000000815260040161352490615e4d565b60405180910390fd5b61353889898961361e565b505050505050505050565b6002602052816000526040600020602052806000526040600020600091509150505481565b602c5481565b600f5481565b601f5481565b60115481565b60295481565b60085481565b603160205281600052604060002081600281106135a857600080fd5b01600091509150505481565b600d5481565b602360009054906101000a900473ffffffffffffffffffffffffffffffffffffffff1673ffffffffffffffffffffffffffffffffffffffff163373ffffffffffffffffffffffffffffffffffffffff161461361457600080fd5b8060288190555050565b80600260008573ffffffffffffffffffffffffffffffffffffffff1673ffffffffffffffffffffffffffffffffffffffff16815260200190815260200160002060008473ffffffffffffffffffffffffffffffffffffffff1673ffffffffffffffffffffffffffffffffffffffff168152602001908152602001600020819055508173ffffffffffffffffffffffffffffffffffffffff168373ffffffffffffffffffffffffffffffffffffffff167f8c5be1e5ebec7d5bd14f71427d1e84f3dd0314c0f7b2291e5b200ac8c7c3b925836040516136fc9190615eed565b60405180910390a3505050565b600082828461371891906161db565b915081111561375c576040517f08c379a000000000000000000000000000000000000000000000000000000000815260040161375390615e2d565b60405180910390fd5b92915050565b6137b481600160008673ffffffffffffffffffffffffffffffffffffffff1673ffffffffffffffffffffffffffffffffffffffff1681526020019081526020016000205461370990919063ffffffff16565b600160008573ffffffffffffffffffffffffffffffffffffffff1673ffffffffffffffffffffffffffffffffffffffff1681526020019081526020016000208190555061384981600160008573ffffffffffffffffffffffffffffffffffffffff1673ffffffffffffffffffffffffffffffffffffffff16815260200190815260200160002054614df990919063ffffffff16565b600160008473ffffffffffffffffffffffffffffffffffffffff1673ffffffffffffffffffffffffffffffffffffffff168152602001908152602001600020819055508173ffffffffffffffffffffffffffffffffffffffff168373ffffffffffffffffffffffffffffffffffffffff167fddf252ad1be2c89b69c2b068fc378daa952ba7f163c4a11628f55a4df523b3ef836040516138e99190615eed565b60405180910390a3505050565b6000613972613967603060008573ffffffffffffffffffffffffffffffffffffffff1673ffffffffffffffffffffffffffffffffffffffff16815260200190815260200160002060008015151515815260200190815260200160002060010154601754601554601954602a54614016565b600d54600e54614050565b6139d9603060008573ffffffffffffffffffffffffffffffffffffffff1673ffffffffffffffffffffffffffffffffffffffff1681526020019081526020016000206000600115151515815260200190815260200160002060010154601854601a54614050565b6139e39190615f89565b9050919050565b6000613a59603060008473ffffffffffffffffffffffffffffffffffffffff1673ffffffffffffffffffffffffffffffffffffffff1681526020019081526020016000206000600115151515815260200190815260200160002060020154601554600d54600e54602a54614016565b602a54603060008573ffffffffffffffffffffffffffffffffffffffff1673ffffffffffffffffffffffffffffffffffffffff16815260200190815260200160002060008015151515815260200190815260200160002060020154613abe9190616181565b613ac89190615f89565b9050919050565b6000613b39603160008473ffffffffffffffffffffffffffffffffffffffff1673ffffffffffffffffffffffffffffffffffffffff168152602001908152602001600020600160028110613b2657613b25616352565b5b0154601554600d54600e54602a54614016565b603160008473ffffffffffffffffffffffffffffffffffffffff1673ffffffffffffffffffffffffffffffffffffffff168152602001908152602001600020600060028110613b8b57613b8a616352565b5b0154613b979190615f89565b9050919050565b600080613bc4601454601354600e54600d54600b54600c54600554600654600754614e52565b91509150600080613be78484601054600f54602054601f54601454601354614eee565b915091506000601d5443613bfb91906161db565b905043601d819055506000613c17601554600d54600e54614050565b905060001515601e60009054906101000a900460ff1615151415613c9457613c49601754601c5484602a546001614016565b601754613c569190615f89565b60178190555081613c72601c5460175484602a54602a54614016565b613c7c9190616181565b601854613c8991906161db565b601881905550613ce1565b613ca8601854601c5484602a546001614016565b601854613cb59190615f89565b601881905550613ccd601c5460185484846001614016565b601754613cda91906161db565b6017819055505b83601c8190555082601e60006101000a81548160ff021916908315150217905550505050505050565b60006001602d5414613d51576040517f08c379a0000000000000000000000000000000000000000000000000000000008152600401613d4890615ecd565b60405180910390fd5b6000602d819055506000600190505b600115158115151415614007576000613d80600954601654602a54614050565b90506000613d9660055460065460075485614f98565b9050613da782600b54600e54615098565b861115613f1c57613dbd600c5482600d54615098565b84613dc89190615f89565b9350613dd982600b54600e54615098565b86613de491906161db565b9550600115158515151415613e1f57613e02600c5482600d54615098565b600f6000828254613e139190615f89565b92505081905550613e6e565b613e2e82600b54600e54615098565b60146000828254613e3f9190615f89565b92505081905550613e55600c5482600d54615098565b60136000828254613e6691906161db565b925050819055505b613e7d600d54600a5483614050565b600d81905550613e92600e5460095484614050565b600e81905550613ebb613eae60055460065460075486866150cd565b8260095485600a54614016565b601581905550613ed5600954600a546007546015546151c1565b600581905550600554602a546002613eed9190616181565b613ef791906161db565b600681905550613f05614aca565b600954600b81905550600a54600c81905550614000565b6000600c549050613f3287600e54602a54614050565b600b6000828254613f439190615f89565b92505081905550613f5e600554600654600754600b54614f98565b600c81905550613f7381600c54600d54615098565b85613f7e9190615f89565b9450600115158615151415613fb957613f9c81600c54600d54615098565b600f6000828254613fad9190615f89565b92505081905550613ffa565b8660146000828254613fcb9190615f89565b92505081905550613fe181600c54600d54615098565b60136000828254613ff291906161db565b925050819055505b60009350505b5050613d60565b506001602d8190555092915050565b600081838587896140279190616181565b6140319190616181565b61403b9190615fdf565b6140459190615fdf565b905095945050505050565b600081838561405f9190616181565b6140699190615fdf565b90509392505050565b60006001602d54146140b9576040517f08c379a00000000000000000000000000000000000000000000000000000000081526004016140b090615ecd565b60405180910390fd5b6000602d819055506000600190505b60011515811515141561436f5760006140e8600a54601654602a54614050565b905060006140fe600554600654600754856152fb565b905061410f82600c54600d54615098565b86111561428457614125600b5482600e54615098565b846141309190615f89565b935061414182600c54600d54615098565b8661414c91906161db565b95506001151585151514156141875761416a600b5482600e54615098565b6010600082825461417b9190615f89565b925050819055506141d6565b614196600b5482600e54615098565b601460008282546141a791906161db565b925050819055506141bd82600c54600d54615098565b601360008282546141ce9190615f89565b925050819055505b6141e5600d54600a5484614050565b600d819055506141fa600e5460095483614050565b600e8190555061422361421660055460065460075485876150cd565b8360095484600a54614016565b60158190555061423d600954600a546007546015546151c1565b600581905550600554602a5460026142559190616181565b61425f91906161db565b60068190555061426d614aca565b600954600b81905550600a54600c81905550614368565b6000600b54905061429a87600d54602a54614050565b600c60008282546142ab9190615f89565b925050819055506142c6600554600654600754600c546152fb565b600b819055506142db81600b54600e54615098565b856142e69190615f89565b94506001151586151514156143215761430481600b54600e54615098565b601060008282546143159190615f89565b92505081905550614362565b86601360008282546143339190615f89565b9250508190555061434981600b54600e54615098565b6014600082825461435a91906161db565b925050819055505b60009350505b50506140c8565b506001602d8190555092915050565b60006001602d54146143c5576040517f08c379a00000000000000000000000000000000000000000000000000000000081526004016143bc90615ecd565b60405180910390fd5b6000602d819055506000600190505b60011515811515141561466d5760006143f4600954601654602a54614050565b9050600061440a60055460065460075485614f98565b905061441b600c5482600d54615098565b8711156145905761443182600b54600e54615098565b8461443c9190615f89565b935061444d600c5482600d54615098565b8761445891906161db565b965060011515851515141561449357614476600c5482600d54615098565b600f60008282546144879190615f89565b925050819055506144e2565b6144a282600b54600e54615098565b601460008282546144b39190615f89565b925050819055506144c9600c5482600d54615098565b601360008282546144da91906161db565b925050819055505b6144f1600d54600a5483614050565b600d81905550614506600e5460095484614050565b600e8190555061452f61452260055460065460075486866150cd565b8260095485600a54614016565b601581905550614549600954600a546007546015546151c1565b600581905550600554602a5460026145619190616181565b61456b91906161db565b600681905550614579614aca565b600954600b81905550600a54600c81905550614666565b6000600b5490506145a688600d54602a54614050565b600c60008282546145b791906161db565b925050819055506145d2600554600654600754600c546152fb565b600b819055506145e7600b5482600e54615098565b856145f29190615f89565b945060011515861515141561461f5787600f60008282546146139190615f89565b92505081905550614660565b61462e600b5482600e54615098565b6014600082825461463f9190615f89565b92505081905550876013600082825461465891906161db565b925050819055505b60009350505b50506143d4565b6000151583151514156146875781841161468657600080fd5b5b506001602d819055509392505050565b60006001602d54146146de576040517f08c379a00000000000000000000000000000000000000000000000000000000081526004016146d590615ecd565b60405180910390fd5b6000602d819055506000600190505b60011515811515141561498657600061470d600a54601654602a54614050565b90506000614723600554600654600754856152fb565b9050614734600b5482600e54615098565b8711156148a95761474a82600c54600d54615098565b846147559190615f89565b9350614766600b5482600e54615098565b8761477191906161db565b96506001151585151514156147ac5761478f600b5482600e54615098565b601060008282546147a09190615f89565b925050819055506147fb565b6147bb82600c54600d54615098565b601360008282546147cc9190615f89565b925050819055506147e2600b5482600e54615098565b601460008282546147f391906161db565b925050819055505b61480a600d54600a5484614050565b600d8190555061481f600e5460095483614050565b600e8190555061484861483b60055460065460075485876150cd565b8360095484600a54614016565b601581905550614862600954600a546007546015546151c1565b600581905550600554602a54600261487a9190616181565b61488491906161db565b600681905550614892614aca565b600954600b81905550600a54600c8190555061497f565b6000600c5490506148bf88600e54602a54614050565b600b60008282546148d091906161db565b925050819055506148eb600554600654600754600b54614f98565b600c81905550614900600c5482600d54615098565b8561490b9190615f89565b945060011515861515141561493857876010600082825461492c9190615f89565b92505081905550614979565b614947600c5482600d54615098565b601360008282546149589190615f89565b92505081905550876014600082825461497191906161db565b925050819055505b60009350505b50506146ed565b6000151583151514156149a05781841161499f57600080fd5b5b506001602d819055509392505050565b6149c581600054614df990919063ffffffff16565b600081905550614a1d81600160008573ffffffffffffffffffffffffffffffffffffffff1673ffffffffffffffffffffffffffffffffffffffff16815260200190815260200160002054614df990919063ffffffff16565b600160008473ffffffffffffffffffffffffffffffffffffffff1673ffffffffffffffffffffffffffffffffffffffff168152602001908152602001600020819055508173ffffffffffffffffffffffffffffffffffffffff16600073ffffffffffffffffffffffffffffffffffffffff167fddf252ad1be2c89b69c2b068fc378daa952ba7f163c4a11628f55a4df523b3ef83604051614abe9190615eed565b60405180910390a35050565b614aea601454600554600e54601354600654600d546012546011546153fb565b602181905550602a54602154600854614b039190616181565b614b0d9190615fdf565b6007819055506002600754614b229190615fdf565b600981905550600954600a81905550602154602281905550565b614b8e81600160008573ffffffffffffffffffffffffffffffffffffffff1673ffffffffffffffffffffffffffffffffffffffff1681526020019081526020016000205461370990919063ffffffff16565b600160008473ffffffffffffffffffffffffffffffffffffffff1673ffffffffffffffffffffffffffffffffffffffff16815260200190815260200160002081905550614be68160005461370990919063ffffffff16565b600081905550600073ffffffffffffffffffffffffffffffffffffffff168273ffffffffffffffffffffffffffffffffffffffff167fddf252ad1be2c89b69c2b068fc378daa952ba7f163c4a11628f55a4df523b3ef83604051614c4a9190615eed565b60405180910390a35050565b6000808473ffffffffffffffffffffffffffffffffffffffff166040518060400160405280601981526020017f7472616e7366657228616464726573732c75696e743235362900000000000000815250805190602001208585604051602401614cc0929190615d06565b604051602081830303815290604052907bffffffffffffffffffffffffffffffffffffffffffffffffffffffff19166020820180517bffffffffffffffffffffffffffffffffffffffffffffffffffffffff8381831617835250505050604051614d2a9190615c58565b6000604051808303816000865af19150503d8060008114614d67576040519150601f19603f3d011682016040523d82523d6000602084013e614d6c565b606091505b5091509150818015614d9a5750600081511480614d99575080806020019051810190614d989190615916565b5b5b614dd9576040517f08c379a0000000000000000000000000000000000000000000000000000000008152600401614dd090615ead565b60405180910390fd5b5050505050565b6000818311614def5781614df1565b825b905092915050565b6000828284614e089190615f89565b9150811015614e4c576040517f08c379a0000000000000000000000000000000000000000000000000000000008152600401614e4390615e6d565b60405180910390fd5b92915050565b6000806000614e6a8c8b670de0b6b3a7640000614050565b90506000614e818c8b670de0b6b3a7640000614050565b90506000614e9083838861545b565b9050600081671bc16d674ec80000614ea891906161db565b9050614ec1614eba83838a88886150cd565b8d8f614050565b9550614eda614ed38a8a8a8f8f6150cd565b8d8f614050565b945050505050995099975050505050505050565b60008089891115614f3157614f048784886154df565b611680614f128b8d8e615098565b614f1c9190615fdf565b614f269190615f89565b915060009050614f65565b614f3c8885886154df565b611680614f4a8c8c8e615098565b614f549190615fdf565b614f5e9190615f89565b9150600190505b8461078083614f749190616181565b1115614f8b5761078085614f889190615fdf565b91505b9850989650505050505050565b600081846008614fa89190616181565b614fb29190616181565b61504b670de0b6b3a7640000858687614fcb9190616181565b614fd59190616181565b6000614fe191906161db565b85886010614fef9190616181565b614ff99190616181565b6150039190616181565b61500d9190616181565b600285868a600461501e9190616181565b6150289190616181565b6150329190616181565b61503c9190616063565b61504691906161db565b61552c565b838488600461505a9190616181565b6150649190616181565b61506e9190616181565b600061507a91906161db565b6150849190615f89565b61508e9190615fdf565b9050949350505050565b600081670de0b6b3a764000084866150b091906161db565b6150ba9190616181565b6150c49190615fdf565b90509392505050565b6000818485866150dd9190616181565b6150e79190616181565b6150f19190616181565b828385868a60046151029190616181565b61510c9190616181565b6151169190616181565b6151209190616181565b61512a9190616181565b6151349190615f89565b670de0b6b3a76400008486878861514b9190616181565b6151559190616181565b61515f9190616181565b848587888b60046151709190616181565b61517a9190616181565b6151849190616181565b61518e9190616181565b6151989190616181565b6151a29190615f89565b6151ac9190616181565b6151b69190615fdf565b905095945050505050565b600081670de0b6b3a76400006151d79190615f89565b8485878860046151e79190616181565b6151f19190616181565b6151fb9190616181565b6152059190616181565b61520f9190616181565b670de0b6b3a764000083868687886152279190616181565b6152319190616181565b61523b9190616181565b6152459190616181565b61524f9190616181565b6ec097ce7bc90715b34b9f10000000008786878861526d9190616181565b6152779190616181565b6152819190616181565b61528b9190616181565b6ec097ce7bc90715b34b9f100000000087888a8b60086152ab9190616181565b6152b59190616181565b6152bf9190616181565b6152c99190616181565b6152d39190616181565b6152dd9190615f89565b6152e791906161db565b6152f19190615fdf565b9050949350505050565b60008185600861530b9190616181565b6153159190616181565b6153ae670de0b6b3a764000085868761532e9190616181565b6153389190616181565b600061534491906161db565b858960106153529190616181565b61535c9190616181565b6153669190616181565b6153709190616181565b600285868960046153819190616181565b61538b9190616181565b6153959190616181565b61539f9190616063565b6153a991906161db565b61552c565b83848760046153bd9190616181565b6153c79190616181565b6153d19190616181565b60006153dd91906161db565b6153e79190615f89565b6153f19190615fdf565b9050949350505050565b600061544d61540e848a8a868a8a6155a6565b760a70c3c40a64e6c51999090b65f67d92400000000000006154348c8c8c8c8c8c6155a6565b61543e9190616181565b6154489190615fdf565b615602565b905098975050505050505050565b6000828461546991906161db565b670de0b6b3a764000084600261547f9190616181565b858760048788896154909190616181565b61549a9190616181565b6154a49190615fdf565b6154ae9190615fdf565b6154b89190615fdf565b6154c291906161db565b6154cc9190616181565b6154d69190615fdf565b90509392505050565b60008161e10085856154f19190615f89565b670de0b6b3a7640000876155059190616181565b61550f9190615fdf565b6155199190615fdf565b6155239190615f89565b90509392505050565b60006003821115615593578190506000600160028461554b9190615fdf565b6155559190615f89565b90505b8181101561558d5780915060028182856155729190615fdf565b61557c9190615f89565b6155869190615fdf565b9050615558565b506155a1565b600082146155a057600190505b5b919050565b600083878385876155b79190616181565b6155c19190616181565b87898b6155ce9190616181565b6155d89190616181565b6155e29190615f89565b6155ec9190616181565b6155f69190616181565b90509695505050505050565b6000600882111561568057819050600060016003846156219190615fdf565b61562b9190615f89565b90505b8181101561567a5780915060038160026156489190616181565b82836156549190616181565b8561565f9190615fdf565b6156699190615f89565b6156739190615fdf565b905061562e565b5061568e565b6000821461568d57600190505b5b919050565b506000815560010160009055565b6000813590506156b0816164c3565b92915050565b6000813590506156c5816164da565b92915050565b6000815190506156da816164da565b92915050565b6000813590506156ef816164f1565b92915050565b60008135905061570481616508565b92915050565b60008151905061571981616508565b92915050565b60008135905061572e8161651f565b92915050565b60006020828403121561574a57615749616381565b5b6000615758848285016156a1565b91505092915050565b6000806040838503121561577857615777616381565b5b6000615786858286016156a1565b9250506020615797858286016156a1565b9150509250929050565b6000806000606084860312156157ba576157b9616381565b5b60006157c8868287016156a1565b93505060206157d9868287016156a1565b92505060406157ea868287016156f5565b9150509250925092565b600080600080600080600060e0888a03121561581357615812616381565b5b60006158218a828b016156a1565b97505060206158328a828b016156a1565b96505060406158438a828b016156f5565b95505060606158548a828b016156f5565b94505060806158658a828b0161571f565b93505060a06158768a828b016156e0565b92505060c06158878a828b016156e0565b91505092959891949750929550565b600080604083850312156158ad576158ac616381565b5b60006158bb858286016156a1565b92505060206158cc858286016156b6565b9150509250929050565b600080604083850312156158ed576158ec616381565b5b60006158fb858286016156a1565b925050602061590c858286016156f5565b9150509250929050565b60006020828403121561592c5761592b616381565b5b600061593a848285016156cb565b91505092915050565b60006020828403121561595957615958616381565b5b6000615967848285016156f5565b91505092915050565b60006020828403121561598657615985616381565b5b60006159948482850161570a565b91505092915050565b600080604083850312156159b4576159b3616381565b5b60006159c2858286016156f5565b92505060206159d3858286016156a1565b9150509250929050565b6000806000606084860312156159f6576159f5616381565b5b6000615a04868287016156f5565b9350506020615a15868287016156f5565b9250506040615a26868287016156a1565b9150509250925092565b60008060008060808587031215615a4a57615a49616381565b5b6000615a58878288016156f5565b9450506020615a69878288016156f5565b9350506040615a7a878288016156b6565b9250506060615a8b878288016156a1565b91505092959194509250565b615aa08161620f565b82525050565b615aaf81616221565b82525050565b615abe8161622d565b82525050565b615ad5615ad08261622d565b6162ea565b82525050565b6000615ae682615f4c565b615af08185615f62565b9350615b0081856020860161626e565b80840191505092915050565b6000615b1782615f57565b615b218185615f6d565b9350615b3181856020860161626e565b615b3a81616386565b840191505092915050565b6000615b52601583615f6d565b9150615b5d826163a4565b602082019050919050565b6000615b75601c83615f6d565b9150615b80826163cd565b602082019050919050565b6000615b98600283615f7e565b9150615ba3826163f6565b600282019050919050565b6000615bbb601483615f6d565b9150615bc68261641f565b602082019050919050565b6000615bde601283615f6d565b9150615be982616448565b602082019050919050565b6000615c01600f83615f6d565b9150615c0c82616471565b602082019050919050565b6000615c24600683615f6d565b9150615c2f8261649a565b602082019050919050565b615c4381616257565b82525050565b615c5281616261565b82525050565b6000615c648284615adb565b915081905092915050565b6000615c7a82615b8b565b9150615c868285615ac4565b602082019150615c968284615ac4565b6020820191508190509392505050565b6000602082019050615cbb6000830184615a97565b92915050565b6000608082019050615cd66000830187615a97565b615ce36020830186615aa6565b615cf06040830185615c3a565b615cfd6060830184615c3a565b95945050505050565b6000604082019050615d1b6000830185615a97565b615d286020830184615c3a565b9392505050565b6000602082019050615d446000830184615aa6565b92915050565b6000602082019050615d5f6000830184615ab5565b92915050565b600060c082019050615d7a6000830189615ab5565b615d876020830188615a97565b615d946040830187615a97565b615da16060830186615c3a565b615dae6080830185615c3a565b615dbb60a0830184615c3a565b979650505050505050565b6000608082019050615ddb6000830187615ab5565b615de86020830186615c49565b615df56040830185615ab5565b615e026060830184615ab5565b95945050505050565b60006020820190508181036000830152615e258184615b0c565b905092915050565b60006020820190508181036000830152615e4681615b45565b9050919050565b60006020820190508181036000830152615e6681615b68565b9050919050565b60006020820190508181036000830152615e8681615bae565b9050919050565b60006020820190508181036000830152615ea681615bd1565b9050919050565b60006020820190508181036000830152615ec681615bf4565b9050919050565b60006020820190508181036000830152615ee681615c17565b9050919050565b6000602082019050615f026000830184615c3a565b92915050565b6000604082019050615f1d6000830185615c3a565b615f2a6020830184615c3a565b9392505050565b6000602082019050615f466000830184615c49565b92915050565b600081519050919050565b600081519050919050565b600081905092915050565b600082825260208201905092915050565b600081905092915050565b6000615f9482616257565b9150615f9f83616257565b9250827fffffffffffffffffffffffffffffffffffffffffffffffffffffffffffffffff03821115615fd457615fd36162f4565b5b828201905092915050565b6000615fea82616257565b9150615ff583616257565b92508261600557616004616323565b5b828204905092915050565b6000808291508390505b600185111561605a57808604811115616036576160356162f4565b5b60018516156160455780820291505b808102905061605385616397565b945061601a565b94509492505050565b600061606e82616257565b915061607983616261565b92506160a67fffffffffffffffffffffffffffffffffffffffffffffffffffffffffffffffff84846160ae565b905092915050565b6000826160be576001905061617a565b816160cc576000905061617a565b81600181146160e257600281146160ec5761611b565b600191505061617a565b60ff8411156160fe576160fd6162f4565b5b8360020a915084821115616115576161146162f4565b5b5061617a565b5060208310610133831016604e8410600b84101617156161505782820a90508381111561614b5761614a6162f4565b5b61617a565b61615d8484846001616010565b92509050818404811115616174576161736162f4565b5b81810290505b9392505050565b600061618c82616257565b915061619783616257565b9250817fffffffffffffffffffffffffffffffffffffffffffffffffffffffffffffffff04831182151516156161d0576161cf6162f4565b5b828202905092915050565b60006161e682616257565b91506161f183616257565b925082821015616204576162036162f4565b5b828203905092915050565b600061621a82616237565b9050919050565b60008115159050919050565b6000819050919050565b600073ffffffffffffffffffffffffffffffffffffffff82169050919050565b6000819050919050565b600060ff82169050919050565b60005b8381101561628c578082015181840152602081019050616271565b8381111561629b576000848401525b50505050565b60006162ac82616257565b91507fffffffffffffffffffffffffffffffffffffffffffffffffffffffffffffffff8214156162df576162de6162f4565b5b600182019050919050565b6000819050919050565b7f4e487b7100000000000000000000000000000000000000000000000000000000600052601160045260246000fd5b7f4e487b7100000000000000000000000000000000000000000000000000000000600052601260045260246000fd5b7f4e487b7100000000000000000000000000000000000000000000000000000000600052603260045260246000fd5b600080fd5b6000601f19601f8301169050919050565b60008160011c9050919050565b7f64732d6d6174682d7375622d756e646572666c6f770000000000000000000000600082015250565b7f556e697377617056323a20494e56414c49445f5349474e415455524500000000600082015250565b7f1901000000000000000000000000000000000000000000000000000000000000600082015250565b7f64732d6d6174682d6164642d6f766572666c6f77000000000000000000000000600082015250565b7f556e697377617056323a20455850495245440000000000000000000000000000600082015250565b7f5452414e534645525f4641494c45440000000000000000000000000000000000600082015250565b7f4c4f434b45440000000000000000000000000000000000000000000000000000600082015250565b6164cc8161620f565b81146164d757600080fd5b50565b6164e381616221565b81146164ee57600080fd5b50565b6164fa8161622d565b811461650557600080fd5b50565b61651181616257565b811461651c57600080fd5b50565b61652881616261565b811461653357600080fd5b5056fea26469706673582212209cc5ecebad54a7ef6e3a300b18b8b37ee981d5bb505c8919c984dcd708d0e60e64736f6c63430008070033",
			"opcodes": "PUSH1 0x80 PUSH1 0x40 MSTORE PUSH8 0xDE0B6B3A7640000 PUSH1 0x2A SSTORE PUSH1 0x1 PUSH1 0x2D SSTORE CALLVALUE DUP1 ISZERO PUSH3 0x22 JUMPI PUSH1 0x0 DUP1 REVERT JUMPDEST POP PUSH1 0x0 CHAINID SWAP1 POP PUSH32 0x8B73C3C69BB8FE3D512ECC4CF759CC79239F7B179B0FFACAA9A75D522B39400F PUSH1 0x40 MLOAD DUP1 PUSH1 0x40 ADD PUSH1 0x40 MSTORE DUP1 PUSH1 0xA DUP2 MSTORE PUSH1 0x20 ADD PUSH32 0x556E697377617020563200000000000000000000000000000000000000000000 DUP2 MSTORE POP DUP1 MLOAD SWAP1 PUSH1 0x20 ADD KECCAK256 PUSH1 0x40 MLOAD DUP1 PUSH1 0x40 ADD PUSH1 0x40 MSTORE DUP1 PUSH1 0x1 DUP2 MSTORE PUSH1 0x20 ADD PUSH32 0x3100000000000000000000000000000000000000000000000000000000000000 DUP2 MSTORE POP DUP1 MLOAD SWAP1 PUSH1 0x20 ADD KECCAK256 DUP4 ADDRESS PUSH1 0x40 MLOAD PUSH1 0x20 ADD PUSH3 0xDB SWAP6 SWAP5 SWAP4 SWAP3 SWAP2 SWAP1 PUSH3 0x172 JUMP JUMPDEST PUSH1 0x40 MLOAD PUSH1 0x20 DUP2 DUP4 SUB SUB DUP2 MSTORE SWAP1 PUSH1 0x40 MSTORE DUP1 MLOAD SWAP1 PUSH1 0x20 ADD KECCAK256 PUSH1 0x3 DUP2 SWAP1 SSTORE POP POP CALLER PUSH1 0x23 PUSH1 0x0 PUSH2 0x100 EXP DUP2 SLOAD DUP2 PUSH20 0xFFFFFFFFFFFFFFFFFFFFFFFFFFFFFFFFFFFFFFFF MUL NOT AND SWAP1 DUP4 PUSH20 0xFFFFFFFFFFFFFFFFFFFFFFFFFFFFFFFFFFFFFFFF AND MUL OR SWAP1 SSTORE POP PUSH3 0x217 JUMP JUMPDEST PUSH3 0x14A DUP2 PUSH3 0x1CF JUMP JUMPDEST DUP3 MSTORE POP POP JUMP JUMPDEST PUSH3 0x15B DUP2 PUSH3 0x1E3 JUMP JUMPDEST DUP3 MSTORE POP POP JUMP JUMPDEST PUSH3 0x16C DUP2 PUSH3 0x20D JUMP JUMPDEST DUP3 MSTORE POP POP JUMP JUMPDEST PUSH1 0x0 PUSH1 0xA0 DUP3 ADD SWAP1 POP PUSH3 0x189 PUSH1 0x0 DUP4 ADD DUP9 PUSH3 0x150 JUMP JUMPDEST PUSH3 0x198 PUSH1 0x20 DUP4 ADD DUP8 PUSH3 0x150 JUMP JUMPDEST PUSH3 0x1A7 PUSH1 0x40 DUP4 ADD DUP7 PUSH3 0x150 JUMP JUMPDEST PUSH3 0x1B6 PUSH1 0x60 DUP4 ADD DUP6 PUSH3 0x161 JUMP JUMPDEST PUSH3 0x1C5 PUSH1 0x80 DUP4 ADD DUP5 PUSH3 0x13F JUMP JUMPDEST SWAP7 SWAP6 POP POP POP POP POP POP JUMP JUMPDEST PUSH1 0x0 PUSH3 0x1DC DUP3 PUSH3 0x1ED JUMP JUMPDEST SWAP1 POP SWAP2 SWAP1 POP JUMP JUMPDEST PUSH1 0x0 DUP2 SWAP1 POP SWAP2 SWAP1 POP JUMP JUMPDEST PUSH1 0x0 PUSH20 0xFFFFFFFFFFFFFFFFFFFFFFFFFFFFFFFFFFFFFFFF DUP3 AND SWAP1 POP SWAP2 SWAP1 POP JUMP JUMPDEST PUSH1 0x0 DUP2 SWAP1 POP SWAP2 SWAP1 POP JUMP JUMPDEST PUSH2 0x656C DUP1 PUSH3 0x227 PUSH1 0x0 CODECOPY PUSH1 0x0 RETURN INVALID PUSH1 0x80 PUSH1 0x40 MSTORE CALLVALUE DUP1 ISZERO PUSH2 0x10 JUMPI PUSH1 0x0 DUP1 REVERT JUMPDEST POP PUSH1 0x4 CALLDATASIZE LT PUSH2 0x3F0 JUMPI PUSH1 0x0 CALLDATALOAD PUSH1 0xE0 SHR DUP1 PUSH4 0x7E1431BE GT PUSH2 0x215 JUMPI DUP1 PUSH4 0xC3D81B21 GT PUSH2 0x125 JUMPI DUP1 PUSH4 0xDDCA3F43 GT PUSH2 0xB8 JUMPI DUP1 PUSH4 0xF70F4394 GT PUSH2 0x87 JUMPI DUP1 PUSH4 0xF70F4394 EQ PUSH2 0xBE0 JUMPI DUP1 PUSH4 0xF738C74E EQ PUSH2 0xBFE JUMPI DUP1 PUSH4 0xFC69B80F EQ PUSH2 0xC1C JUMPI DUP1 PUSH4 0xFE18F261 EQ PUSH2 0xC4C JUMPI DUP1 PUSH4 0xFF2F169E EQ PUSH2 0xC6A JUMPI PUSH2 0x3F0 JUMP JUMPDEST DUP1 PUSH4 0xDDCA3F43 EQ PUSH2 0xB68 JUMPI DUP1 PUSH4 0xDF0AB2C2 EQ PUSH2 0xB86 JUMPI DUP1 PUSH4 0xE19A1474 EQ PUSH2 0xBA4 JUMPI DUP1 PUSH4 0xEA1797B0 EQ PUSH2 0xBC2 JUMPI PUSH2 0x3F0 JUMP JUMPDEST DUP1 PUSH4 0xCFE38A5E GT PUSH2 0xF4 JUMPI DUP1 PUSH4 0xCFE38A5E EQ PUSH2 0xAE2 JUMPI DUP1 PUSH4 0xD44022DB EQ PUSH2 0xAFE JUMPI DUP1 PUSH4 0xD505ACCF EQ PUSH2 0xB1C JUMPI DUP1 PUSH4 0xDD62ED3E EQ PUSH2 0xB38 JUMPI PUSH2 0x3F0 JUMP JUMPDEST DUP1 PUSH4 0xC3D81B21 EQ PUSH2 0xA6C JUMPI DUP1 PUSH4 0xC45A0155 EQ PUSH2 0xA88 JUMPI DUP1 PUSH4 0xC7D44932 EQ PUSH2 0xAA6 JUMPI DUP1 PUSH4 0xC9E525DF EQ PUSH2 0xAC4 JUMPI PUSH2 0x3F0 JUMP JUMPDEST DUP1 PUSH4 0x8E361389 GT PUSH2 0x1A8 JUMPI DUP1 PUSH4 0xA5AA65B9 GT PUSH2 0x177 JUMPI DUP1 PUSH4 0xA5AA65B9 EQ PUSH2 0x9C6 JUMPI DUP1 PUSH4 0xA9059CBB EQ PUSH2 0x9E4 JUMPI DUP1 PUSH4 0xACD4A7C2 EQ PUSH2 0xA14 JUMPI DUP1 PUSH4 0xB7D19FC4 EQ PUSH2 0xA32 JUMPI DUP1 PUSH4 0xBC25CF77 EQ PUSH2 0xA50 JUMPI PUSH2 0x3F0 JUMP JUMPDEST DUP1 PUSH4 0x8E361389 EQ PUSH2 0x950 JUMPI DUP1 PUSH4 0x9076AE86 EQ PUSH2 0x96E JUMPI DUP1 PUSH4 0x95D89B41 EQ PUSH2 0x98A JUMPI DUP1 PUSH4 0x9A36E122 EQ PUSH2 0x9A8 JUMPI PUSH2 0x3F0 JUMP JUMPDEST DUP1 PUSH4 0x83DFE5FD GT PUSH2 0x1E4 JUMPI DUP1 PUSH4 0x83DFE5FD EQ PUSH2 0x8DA JUMPI DUP1 PUSH4 0x84009686 EQ PUSH2 0x8F8 JUMPI DUP1 PUSH4 0x8BC1A32F EQ PUSH2 0x916 JUMPI DUP1 PUSH4 0x8CF825E7 EQ PUSH2 0x934 JUMPI PUSH2 0x3F0 JUMP JUMPDEST DUP1 PUSH4 0x7E1431BE EQ PUSH2 0x83B JUMPI DUP1 PUSH4 0x7ECEBE00 EQ PUSH2 0x86E JUMPI DUP1 PUSH4 0x7ED6281B EQ PUSH2 0x89E JUMPI DUP1 PUSH4 0x80416C02 EQ PUSH2 0x8BC JUMPI PUSH2 0x3F0 JUMP JUMPDEST DUP1 PUSH4 0x30ADF81F GT PUSH2 0x310 JUMPI DUP1 PUSH4 0x4C324E6A GT PUSH2 0x2A3 JUMPI DUP1 PUSH4 0x6665FF11 GT PUSH2 0x272 JUMPI DUP1 PUSH4 0x6665FF11 EQ PUSH2 0x780 JUMPI DUP1 PUSH4 0x6B3545AA EQ PUSH2 0x7B1 JUMPI DUP1 PUSH4 0x70A08231 EQ PUSH2 0x7CF JUMPI DUP1 PUSH4 0x79DBF8EA EQ PUSH2 0x7FF JUMPI DUP1 PUSH4 0x7E11939A EQ PUSH2 0x81D JUMPI PUSH2 0x3F0 JUMP JUMPDEST DUP1 PUSH4 0x4C324E6A EQ PUSH2 0x6F8 JUMPI DUP1 PUSH4 0x5595D459 EQ PUSH2 0x714 JUMPI DUP1 PUSH4 0x5E287D86 EQ PUSH2 0x732 JUMPI DUP1 PUSH4 0x6126DEEF EQ PUSH2 0x750 JUMPI PUSH2 0x3F0 JUMP JUMPDEST DUP1 PUSH4 0x36AF2F9B GT PUSH2 0x2DF JUMPI DUP1 PUSH4 0x36AF2F9B EQ PUSH2 0x682 JUMPI DUP1 PUSH4 0x3C6FE2F4 EQ PUSH2 0x6A0 JUMPI DUP1 PUSH4 0x480C4F7E EQ PUSH2 0x6BE JUMPI DUP1 PUSH4 0x485CC955 EQ PUSH2 0x6DC JUMPI PUSH2 0x3F0 JUMP JUMPDEST DUP1 PUSH4 0x30ADF81F EQ PUSH2 0x60A JUMPI DUP1 PUSH4 0x313CE567 EQ PUSH2 0x628 JUMPI DUP1 PUSH4 0x32E7C5BF EQ PUSH2 0x646 JUMPI DUP1 PUSH4 0x3644E515 EQ PUSH2 0x664 JUMPI PUSH2 0x3F0 JUMP JUMPDEST DUP1 PUSH4 0x18DB9681 GT PUSH2 0x388 JUMPI DUP1 PUSH4 0x23B872DD GT PUSH2 0x357 JUMPI DUP1 PUSH4 0x23B872DD EQ PUSH2 0x57F JUMPI DUP1 PUSH4 0x23ED16B6 EQ PUSH2 0x5AF JUMPI DUP1 PUSH4 0x2DD6C254 EQ PUSH2 0x5CD JUMPI DUP1 PUSH4 0x30688AB8 EQ PUSH2 0x5EB JUMPI PUSH2 0x3F0 JUMP JUMPDEST DUP1 PUSH4 0x18DB9681 EQ PUSH2 0x4F5 JUMPI DUP1 PUSH4 0x1CBDFFD1 EQ PUSH2 0x513 JUMPI DUP1 PUSH4 0x2190219E EQ PUSH2 0x543 JUMPI DUP1 PUSH4 0x225C2C50 EQ PUSH2 0x561 JUMPI PUSH2 0x3F0 JUMP JUMPDEST DUP1 PUSH4 0xF529BA2 GT PUSH2 0x3C4 JUMPI DUP1 PUSH4 0xF529BA2 EQ PUSH2 0x47D JUMPI DUP1 PUSH4 0x139860EE EQ PUSH2 0x49B JUMPI DUP1 PUSH4 0x16DC165B EQ PUSH2 0x4B9 JUMPI DUP1 PUSH4 0x18160DDD EQ PUSH2 0x4D7 JUMPI PUSH2 0x3F0 JUMP JUMPDEST DUP1 PUSH3 0xB52645 EQ PUSH2 0x3F5 JUMPI DUP1 PUSH4 0x6FDDE03 EQ PUSH2 0x413 JUMPI DUP1 PUSH4 0x95EA7B3 EQ PUSH2 0x431 JUMPI DUP1 PUSH4 0xBFA68D8 EQ PUSH2 0x461 JUMPI JUMPDEST PUSH1 0x0 DUP1 REVERT JUMPDEST PUSH2 0x3FD PUSH2 0xC86 JUMP JUMPDEST PUSH1 0x40 MLOAD PUSH2 0x40A SWAP2 SWAP1 PUSH2 0x5EED JUMP JUMPDEST PUSH1 0x40 MLOAD DUP1 SWAP2 SUB SWAP1 RETURN JUMPDEST PUSH2 0x41B PUSH2 0xC8C JUMP JUMPDEST PUSH1 0x40 MLOAD PUSH2 0x428 SWAP2 SWAP1 PUSH2 0x5E0B JUMP JUMPDEST PUSH1 0x40 MLOAD DUP1 SWAP2 SUB SWAP1 RETURN JUMPDEST PUSH2 0x44B PUSH1 0x4 DUP1 CALLDATASIZE SUB DUP2 ADD SWAP1 PUSH2 0x446 SWAP2 SWAP1 PUSH2 0x58D6 JUMP JUMPDEST PUSH2 0xCC5 JUMP JUMPDEST PUSH1 0x40 MLOAD PUSH2 0x458 SWAP2 SWAP1 PUSH2 0x5D2F JUMP JUMPDEST PUSH1 0x40 MLOAD DUP1 SWAP2 SUB SWAP1 RETURN JUMPDEST PUSH2 0x47B PUSH1 0x4 DUP1 CALLDATASIZE SUB DUP2 ADD SWAP1 PUSH2 0x476 SWAP2 SWAP1 PUSH2 0x5943 JUMP JUMPDEST PUSH2 0xCDC JUMP JUMPDEST STOP JUMPDEST PUSH2 0x485 PUSH2 0xD40 JUMP JUMPDEST PUSH1 0x40 MLOAD PUSH2 0x492 SWAP2 SWAP1 PUSH2 0x5EED JUMP JUMPDEST PUSH1 0x40 MLOAD DUP1 SWAP2 SUB SWAP1 RETURN JUMPDEST PUSH2 0x4A3 PUSH2 0xD46 JUMP JUMPDEST PUSH1 0x40 MLOAD PUSH2 0x4B0 SWAP2 SWAP1 PUSH2 0x5EED JUMP JUMPDEST PUSH1 0x40 MLOAD DUP1 SWAP2 SUB SWAP1 RETURN JUMPDEST PUSH2 0x4C1 PUSH2 0xD4C JUMP JUMPDEST PUSH1 0x40 MLOAD PUSH2 0x4CE SWAP2 SWAP1 PUSH2 0x5CA6 JUMP JUMPDEST PUSH1 0x40 MLOAD DUP1 SWAP2 SUB SWAP1 RETURN JUMPDEST PUSH2 0x4DF PUSH2 0xD72 JUMP JUMPDEST PUSH1 0x40 MLOAD PUSH2 0x4EC SWAP2 SWAP1 PUSH2 0x5EED JUMP JUMPDEST PUSH1 0x40 MLOAD DUP1 SWAP2 SUB SWAP1 RETURN JUMPDEST PUSH2 0x4FD PUSH2 0xD78 JUMP JUMPDEST PUSH1 0x40 MLOAD PUSH2 0x50A SWAP2 SWAP1 PUSH2 0x5EED JUMP JUMPDEST PUSH1 0x40 MLOAD DUP1 SWAP2 SUB SWAP1 RETURN JUMPDEST PUSH2 0x52D PUSH1 0x4 DUP1 CALLDATASIZE SUB DUP2 ADD SWAP1 PUSH2 0x528 SWAP2 SWAP1 PUSH2 0x5943 JUMP JUMPDEST PUSH2 0xD7E JUMP JUMPDEST PUSH1 0x40 MLOAD PUSH2 0x53A SWAP2 SWAP1 PUSH2 0x5EED JUMP JUMPDEST PUSH1 0x40 MLOAD DUP1 SWAP2 SUB SWAP1 RETURN JUMPDEST PUSH2 0x54B PUSH2 0xD99 JUMP JUMPDEST PUSH1 0x40 MLOAD PUSH2 0x558 SWAP2 SWAP1 PUSH2 0x5EED JUMP JUMPDEST PUSH1 0x40 MLOAD DUP1 SWAP2 SUB SWAP1 RETURN JUMPDEST PUSH2 0x569 PUSH2 0xD9F JUMP JUMPDEST PUSH1 0x40 MLOAD PUSH2 0x576 SWAP2 SWAP1 PUSH2 0x5EED JUMP JUMPDEST PUSH1 0x40 MLOAD DUP1 SWAP2 SUB SWAP1 RETURN JUMPDEST PUSH2 0x599 PUSH1 0x4 DUP1 CALLDATASIZE SUB DUP2 ADD SWAP1 PUSH2 0x594 SWAP2 SWAP1 PUSH2 0x57A1 JUMP JUMPDEST PUSH2 0xDA5 JUMP JUMPDEST PUSH1 0x40 MLOAD PUSH2 0x5A6 SWAP2 SWAP1 PUSH2 0x5D2F JUMP JUMPDEST PUSH1 0x40 MLOAD DUP1 SWAP2 SUB SWAP1 RETURN JUMPDEST PUSH2 0x5B7 PUSH2 0xF52 JUMP JUMPDEST PUSH1 0x40 MLOAD PUSH2 0x5C4 SWAP2 SWAP1 PUSH2 0x5EED JUMP JUMPDEST PUSH1 0x40 MLOAD DUP1 SWAP2 SUB SWAP1 RETURN JUMPDEST PUSH2 0x5D5 PUSH2 0xF58 JUMP JUMPDEST PUSH1 0x40 MLOAD PUSH2 0x5E2 SWAP2 SWAP1 PUSH2 0x5EED JUMP JUMPDEST PUSH1 0x40 MLOAD DUP1 SWAP2 SUB SWAP1 RETURN JUMPDEST PUSH2 0x5F3 PUSH2 0xF5E JUMP JUMPDEST PUSH1 0x40 MLOAD PUSH2 0x601 SWAP3 SWAP2 SWAP1 PUSH2 0x5F08 JUMP JUMPDEST PUSH1 0x40 MLOAD DUP1 SWAP2 SUB SWAP1 RETURN JUMPDEST PUSH2 0x612 PUSH2 0x10F1 JUMP JUMPDEST PUSH1 0x40 MLOAD PUSH2 0x61F SWAP2 SWAP1 PUSH2 0x5D4A JUMP JUMPDEST PUSH1 0x40 MLOAD DUP1 SWAP2 SUB SWAP1 RETURN JUMPDEST PUSH2 0x630 PUSH2 0x1118 JUMP JUMPDEST PUSH1 0x40 MLOAD PUSH2 0x63D SWAP2 SWAP1 PUSH2 0x5F31 JUMP JUMPDEST PUSH1 0x40 MLOAD DUP1 SWAP2 SUB SWAP1 RETURN JUMPDEST PUSH2 0x64E PUSH2 0x111D JUMP JUMPDEST PUSH1 0x40 MLOAD PUSH2 0x65B SWAP2 SWAP1 PUSH2 0x5EED JUMP JUMPDEST PUSH1 0x40 MLOAD DUP1 SWAP2 SUB SWAP1 RETURN JUMPDEST PUSH2 0x66C PUSH2 0x1123 JUMP JUMPDEST PUSH1 0x40 MLOAD PUSH2 0x679 SWAP2 SWAP1 PUSH2 0x5D4A JUMP JUMPDEST PUSH1 0x40 MLOAD DUP1 SWAP2 SUB SWAP1 RETURN JUMPDEST PUSH2 0x68A PUSH2 0x1129 JUMP JUMPDEST PUSH1 0x40 MLOAD PUSH2 0x697 SWAP2 SWAP1 PUSH2 0x5EED JUMP JUMPDEST PUSH1 0x40 MLOAD DUP1 SWAP2 SUB SWAP1 RETURN JUMPDEST PUSH2 0x6A8 PUSH2 0x112F JUMP JUMPDEST PUSH1 0x40 MLOAD PUSH2 0x6B5 SWAP2 SWAP1 PUSH2 0x5EED JUMP JUMPDEST PUSH1 0x40 MLOAD DUP1 SWAP2 SUB SWAP1 RETURN JUMPDEST PUSH2 0x6C6 PUSH2 0x1135 JUMP JUMPDEST PUSH1 0x40 MLOAD PUSH2 0x6D3 SWAP2 SWAP1 PUSH2 0x5EED JUMP JUMPDEST PUSH1 0x40 MLOAD DUP1 SWAP2 SUB SWAP1 RETURN JUMPDEST PUSH2 0x6F6 PUSH1 0x4 DUP1 CALLDATASIZE SUB DUP2 ADD SWAP1 PUSH2 0x6F1 SWAP2 SWAP1 PUSH2 0x5761 JUMP JUMPDEST PUSH2 0x113B JUMP JUMPDEST STOP JUMPDEST PUSH2 0x712 PUSH1 0x4 DUP1 CALLDATASIZE SUB DUP2 ADD SWAP1 PUSH2 0x70D SWAP2 SWAP1 PUSH2 0x59DD JUMP JUMPDEST PUSH2 0x125D JUMP JUMPDEST STOP JUMPDEST PUSH2 0x71C PUSH2 0x216F JUMP JUMPDEST PUSH1 0x40 MLOAD PUSH2 0x729 SWAP2 SWAP1 PUSH2 0x5EED JUMP JUMPDEST PUSH1 0x40 MLOAD DUP1 SWAP2 SUB SWAP1 RETURN JUMPDEST PUSH2 0x73A PUSH2 0x2175 JUMP JUMPDEST PUSH1 0x40 MLOAD PUSH2 0x747 SWAP2 SWAP1 PUSH2 0x5EED JUMP JUMPDEST PUSH1 0x40 MLOAD DUP1 SWAP2 SUB SWAP1 RETURN JUMPDEST PUSH2 0x76A PUSH1 0x4 DUP1 CALLDATASIZE SUB DUP2 ADD SWAP1 PUSH2 0x765 SWAP2 SWAP1 PUSH2 0x59DD JUMP JUMPDEST PUSH2 0x217B JUMP JUMPDEST PUSH1 0x40 MLOAD PUSH2 0x777 SWAP2 SWAP1 PUSH2 0x5EED JUMP JUMPDEST PUSH1 0x40 MLOAD DUP1 SWAP2 SUB SWAP1 RETURN JUMPDEST PUSH2 0x79A PUSH1 0x4 DUP1 CALLDATASIZE SUB DUP2 ADD SWAP1 PUSH2 0x795 SWAP2 SWAP1 PUSH2 0x599D JUMP JUMPDEST PUSH2 0x227C JUMP JUMPDEST PUSH1 0x40 MLOAD PUSH2 0x7A8 SWAP3 SWAP2 SWAP1 PUSH2 0x5F08 JUMP JUMPDEST PUSH1 0x40 MLOAD DUP1 SWAP2 SUB SWAP1 RETURN JUMPDEST PUSH2 0x7B9 PUSH2 0x23E9 JUMP JUMPDEST PUSH1 0x40 MLOAD PUSH2 0x7C6 SWAP2 SWAP1 PUSH2 0x5EED JUMP JUMPDEST PUSH1 0x40 MLOAD DUP1 SWAP2 SUB SWAP1 RETURN JUMPDEST PUSH2 0x7E9 PUSH1 0x4 DUP1 CALLDATASIZE SUB DUP2 ADD SWAP1 PUSH2 0x7E4 SWAP2 SWAP1 PUSH2 0x5734 JUMP JUMPDEST PUSH2 0x23EF JUMP JUMPDEST PUSH1 0x40 MLOAD PUSH2 0x7F6 SWAP2 SWAP1 PUSH2 0x5EED JUMP JUMPDEST PUSH1 0x40 MLOAD DUP1 SWAP2 SUB SWAP1 RETURN JUMPDEST PUSH2 0x807 PUSH2 0x2407 JUMP JUMPDEST PUSH1 0x40 MLOAD PUSH2 0x814 SWAP2 SWAP1 PUSH2 0x5EED JUMP JUMPDEST PUSH1 0x40 MLOAD DUP1 SWAP2 SUB SWAP1 RETURN JUMPDEST PUSH2 0x825 PUSH2 0x240D JUMP JUMPDEST PUSH1 0x40 MLOAD PUSH2 0x832 SWAP2 SWAP1 PUSH2 0x5EED JUMP JUMPDEST PUSH1 0x40 MLOAD DUP1 SWAP2 SUB SWAP1 RETURN JUMPDEST PUSH2 0x855 PUSH1 0x4 DUP1 CALLDATASIZE SUB DUP2 ADD SWAP1 PUSH2 0x850 SWAP2 SWAP1 PUSH2 0x5896 JUMP JUMPDEST PUSH2 0x2413 JUMP JUMPDEST PUSH1 0x40 MLOAD PUSH2 0x865 SWAP5 SWAP4 SWAP3 SWAP2 SWAP1 PUSH2 0x5CC1 JUMP JUMPDEST PUSH1 0x40 MLOAD DUP1 SWAP2 SUB SWAP1 RETURN JUMPDEST PUSH2 0x888 PUSH1 0x4 DUP1 CALLDATASIZE SUB DUP2 ADD SWAP1 PUSH2 0x883 SWAP2 SWAP1 PUSH2 0x5734 JUMP JUMPDEST PUSH2 0x247D JUMP JUMPDEST PUSH1 0x40 MLOAD PUSH2 0x895 SWAP2 SWAP1 PUSH2 0x5EED JUMP JUMPDEST PUSH1 0x40 MLOAD DUP1 SWAP2 SUB SWAP1 RETURN JUMPDEST PUSH2 0x8A6 PUSH2 0x2495 JUMP JUMPDEST PUSH1 0x40 MLOAD PUSH2 0x8B3 SWAP2 SWAP1 PUSH2 0x5EED JUMP JUMPDEST PUSH1 0x40 MLOAD DUP1 SWAP2 SUB SWAP1 RETURN JUMPDEST PUSH2 0x8C4 PUSH2 0x249B JUMP JUMPDEST PUSH1 0x40 MLOAD PUSH2 0x8D1 SWAP2 SWAP1 PUSH2 0x5EED JUMP JUMPDEST PUSH1 0x40 MLOAD DUP1 SWAP2 SUB SWAP1 RETURN JUMPDEST PUSH2 0x8E2 PUSH2 0x24A1 JUMP JUMPDEST PUSH1 0x40 MLOAD PUSH2 0x8EF SWAP2 SWAP1 PUSH2 0x5EED JUMP JUMPDEST PUSH1 0x40 MLOAD DUP1 SWAP2 SUB SWAP1 RETURN JUMPDEST PUSH2 0x900 PUSH2 0x24A7 JUMP JUMPDEST PUSH1 0x40 MLOAD PUSH2 0x90D SWAP2 SWAP1 PUSH2 0x5EED JUMP JUMPDEST PUSH1 0x40 MLOAD DUP1 SWAP2 SUB SWAP1 RETURN JUMPDEST PUSH2 0x91E PUSH2 0x24AD JUMP JUMPDEST PUSH1 0x40 MLOAD PUSH2 0x92B SWAP2 SWAP1 PUSH2 0x5EED JUMP JUMPDEST PUSH1 0x40 MLOAD DUP1 SWAP2 SUB SWAP1 RETURN JUMPDEST PUSH2 0x94E PUSH1 0x4 DUP1 CALLDATASIZE SUB DUP2 ADD SWAP1 PUSH2 0x949 SWAP2 SWAP1 PUSH2 0x5761 JUMP JUMPDEST PUSH2 0x24B3 JUMP JUMPDEST STOP JUMPDEST PUSH2 0x958 PUSH2 0x27D5 JUMP JUMPDEST PUSH1 0x40 MLOAD PUSH2 0x965 SWAP2 SWAP1 PUSH2 0x5EED JUMP JUMPDEST PUSH1 0x40 MLOAD DUP1 SWAP2 SUB SWAP1 RETURN JUMPDEST PUSH2 0x988 PUSH1 0x4 DUP1 CALLDATASIZE SUB DUP2 ADD SWAP1 PUSH2 0x983 SWAP2 SWAP1 PUSH2 0x5A30 JUMP JUMPDEST PUSH2 0x27DB JUMP JUMPDEST STOP JUMPDEST PUSH2 0x992 PUSH2 0x2BC9 JUMP JUMPDEST PUSH1 0x40 MLOAD PUSH2 0x99F SWAP2 SWAP1 PUSH2 0x5E0B JUMP JUMPDEST PUSH1 0x40 MLOAD DUP1 SWAP2 SUB SWAP1 RETURN JUMPDEST PUSH2 0x9B0 PUSH2 0x2C02 JUMP JUMPDEST PUSH1 0x40 MLOAD PUSH2 0x9BD SWAP2 SWAP1 PUSH2 0x5EED JUMP JUMPDEST PUSH1 0x40 MLOAD DUP1 SWAP2 SUB SWAP1 RETURN JUMPDEST PUSH2 0x9CE PUSH2 0x2C08 JUMP JUMPDEST PUSH1 0x40 MLOAD PUSH2 0x9DB SWAP2 SWAP1 PUSH2 0x5EED JUMP JUMPDEST PUSH1 0x40 MLOAD DUP1 SWAP2 SUB SWAP1 RETURN JUMPDEST PUSH2 0x9FE PUSH1 0x4 DUP1 CALLDATASIZE SUB DUP2 ADD SWAP1 PUSH2 0x9F9 SWAP2 SWAP1 PUSH2 0x58D6 JUMP JUMPDEST PUSH2 0x2C0E JUMP JUMPDEST PUSH1 0x40 MLOAD PUSH2 0xA0B SWAP2 SWAP1 PUSH2 0x5D2F JUMP JUMPDEST PUSH1 0x40 MLOAD DUP1 SWAP2 SUB SWAP1 RETURN JUMPDEST PUSH2 0xA1C PUSH2 0x2C25 JUMP JUMPDEST PUSH1 0x40 MLOAD PUSH2 0xA29 SWAP2 SWAP1 PUSH2 0x5EED JUMP JUMPDEST PUSH1 0x40 MLOAD DUP1 SWAP2 SUB SWAP1 RETURN JUMPDEST PUSH2 0xA3A PUSH2 0x2C2B JUMP JUMPDEST PUSH1 0x40 MLOAD PUSH2 0xA47 SWAP2 SWAP1 PUSH2 0x5CA6 JUMP JUMPDEST PUSH1 0x40 MLOAD DUP1 SWAP2 SUB SWAP1 RETURN JUMPDEST PUSH2 0xA6A PUSH1 0x4 DUP1 CALLDATASIZE SUB DUP2 ADD SWAP1 PUSH2 0xA65 SWAP2 SWAP1 PUSH2 0x5734 JUMP JUMPDEST PUSH2 0x2C51 JUMP JUMPDEST STOP JUMPDEST PUSH2 0xA86 PUSH1 0x4 DUP1 CALLDATASIZE SUB DUP2 ADD SWAP1 PUSH2 0xA81 SWAP2 SWAP1 PUSH2 0x5761 JUMP JUMPDEST PUSH2 0x2EC1 JUMP JUMPDEST STOP JUMPDEST PUSH2 0xA90 PUSH2 0x3272 JUMP JUMPDEST PUSH1 0x40 MLOAD PUSH2 0xA9D SWAP2 SWAP1 PUSH2 0x5CA6 JUMP JUMPDEST PUSH1 0x40 MLOAD DUP1 SWAP2 SUB SWAP1 RETURN JUMPDEST PUSH2 0xAAE PUSH2 0x3298 JUMP JUMPDEST PUSH1 0x40 MLOAD PUSH2 0xABB SWAP2 SWAP1 PUSH2 0x5D2F JUMP JUMPDEST PUSH1 0x40 MLOAD DUP1 SWAP2 SUB SWAP1 RETURN JUMPDEST PUSH2 0xACC PUSH2 0x32AB JUMP JUMPDEST PUSH1 0x40 MLOAD PUSH2 0xAD9 SWAP2 SWAP1 PUSH2 0x5EED JUMP JUMPDEST PUSH1 0x40 MLOAD DUP1 SWAP2 SUB SWAP1 RETURN JUMPDEST PUSH2 0xAFC PUSH1 0x4 DUP1 CALLDATASIZE SUB DUP2 ADD SWAP1 PUSH2 0xAF7 SWAP2 SWAP1 PUSH2 0x5943 JUMP JUMPDEST PUSH2 0x32B1 JUMP JUMPDEST STOP JUMPDEST PUSH2 0xB06 PUSH2 0x3315 JUMP JUMPDEST PUSH1 0x40 MLOAD PUSH2 0xB13 SWAP2 SWAP1 PUSH2 0x5EED JUMP JUMPDEST PUSH1 0x40 MLOAD DUP1 SWAP2 SUB SWAP1 RETURN JUMPDEST PUSH2 0xB36 PUSH1 0x4 DUP1 CALLDATASIZE SUB DUP2 ADD SWAP1 PUSH2 0xB31 SWAP2 SWAP1 PUSH2 0x57F4 JUMP JUMPDEST PUSH2 0x331B JUMP JUMPDEST STOP JUMPDEST PUSH2 0xB52 PUSH1 0x4 DUP1 CALLDATASIZE SUB DUP2 ADD SWAP1 PUSH2 0xB4D SWAP2 SWAP1 PUSH2 0x5761 JUMP JUMPDEST PUSH2 0x3543 JUMP JUMPDEST PUSH1 0x40 MLOAD PUSH2 0xB5F SWAP2 SWAP1 PUSH2 0x5EED JUMP JUMPDEST PUSH1 0x40 MLOAD DUP1 SWAP2 SUB SWAP1 RETURN JUMPDEST PUSH2 0xB70 PUSH2 0x3568 JUMP JUMPDEST PUSH1 0x40 MLOAD PUSH2 0xB7D SWAP2 SWAP1 PUSH2 0x5EED JUMP JUMPDEST PUSH1 0x40 MLOAD DUP1 SWAP2 SUB SWAP1 RETURN JUMPDEST PUSH2 0xB8E PUSH2 0x356E JUMP JUMPDEST PUSH1 0x40 MLOAD PUSH2 0xB9B SWAP2 SWAP1 PUSH2 0x5EED JUMP JUMPDEST PUSH1 0x40 MLOAD DUP1 SWAP2 SUB SWAP1 RETURN JUMPDEST PUSH2 0xBAC PUSH2 0x3574 JUMP JUMPDEST PUSH1 0x40 MLOAD PUSH2 0xBB9 SWAP2 SWAP1 PUSH2 0x5EED JUMP JUMPDEST PUSH1 0x40 MLOAD DUP1 SWAP2 SUB SWAP1 RETURN JUMPDEST PUSH2 0xBCA PUSH2 0x357A JUMP JUMPDEST PUSH1 0x40 MLOAD PUSH2 0xBD7 SWAP2 SWAP1 PUSH2 0x5EED JUMP JUMPDEST PUSH1 0x40 MLOAD DUP1 SWAP2 SUB SWAP1 RETURN JUMPDEST PUSH2 0xBE8 PUSH2 0x3580 JUMP JUMPDEST PUSH1 0x40 MLOAD PUSH2 0xBF5 SWAP2 SWAP1 PUSH2 0x5EED JUMP JUMPDEST PUSH1 0x40 MLOAD DUP1 SWAP2 SUB SWAP1 RETURN JUMPDEST PUSH2 0xC06 PUSH2 0x3586 JUMP JUMPDEST PUSH1 0x40 MLOAD PUSH2 0xC13 SWAP2 SWAP1 PUSH2 0x5EED JUMP JUMPDEST PUSH1 0x40 MLOAD DUP1 SWAP2 SUB SWAP1 RETURN JUMPDEST PUSH2 0xC36 PUSH1 0x4 DUP1 CALLDATASIZE SUB DUP2 ADD SWAP1 PUSH2 0xC31 SWAP2 SWAP1 PUSH2 0x58D6 JUMP JUMPDEST PUSH2 0x358C JUMP JUMPDEST PUSH1 0x40 MLOAD PUSH2 0xC43 SWAP2 SWAP1 PUSH2 0x5EED JUMP JUMPDEST PUSH1 0x40 MLOAD DUP1 SWAP2 SUB SWAP1 RETURN JUMPDEST PUSH2 0xC54 PUSH2 0x35B4 JUMP JUMPDEST PUSH1 0x40 MLOAD PUSH2 0xC61 SWAP2 SWAP1 PUSH2 0x5EED JUMP JUMPDEST PUSH1 0x40 MLOAD DUP1 SWAP2 SUB SWAP1 RETURN JUMPDEST PUSH2 0xC84 PUSH1 0x4 DUP1 CALLDATASIZE SUB DUP2 ADD SWAP1 PUSH2 0xC7F SWAP2 SWAP1 PUSH2 0x5943 JUMP JUMPDEST PUSH2 0x35BA JUMP JUMPDEST STOP JUMPDEST PUSH1 0xE SLOAD DUP2 JUMP JUMPDEST PUSH1 0x40 MLOAD DUP1 PUSH1 0x40 ADD PUSH1 0x40 MSTORE DUP1 PUSH1 0xA DUP2 MSTORE PUSH1 0x20 ADD PUSH32 0x556E697377617020563200000000000000000000000000000000000000000000 DUP2 MSTORE POP DUP2 JUMP JUMPDEST PUSH1 0x0 PUSH2 0xCD2 CALLER DUP5 DUP5 PUSH2 0x361E JUMP JUMPDEST PUSH1 0x1 SWAP1 POP SWAP3 SWAP2 POP POP JUMP JUMPDEST PUSH1 0x23 PUSH1 0x0 SWAP1 SLOAD SWAP1 PUSH2 0x100 EXP SWAP1 DIV PUSH20 0xFFFFFFFFFFFFFFFFFFFFFFFFFFFFFFFFFFFFFFFF AND PUSH20 0xFFFFFFFFFFFFFFFFFFFFFFFFFFFFFFFFFFFFFFFF AND CALLER PUSH20 0xFFFFFFFFFFFFFFFFFFFFFFFFFFFFFFFFFFFFFFFF AND EQ PUSH2 0xD36 JUMPI PUSH1 0x0 DUP1 REVERT JUMPDEST DUP1 PUSH1 0x1F DUP2 SWAP1 SSTORE POP POP JUMP JUMPDEST PUSH1 0x7 SLOAD DUP2 JUMP JUMPDEST PUSH1 0x1A SLOAD DUP2 JUMP JUMPDEST PUSH1 0x24 PUSH1 0x0 SWAP1 SLOAD SWAP1 PUSH2 0x100 EXP SWAP1 DIV PUSH20 0xFFFFFFFFFFFFFFFFFFFFFFFFFFFFFFFFFFFFFFFF AND DUP2 JUMP JUMPDEST PUSH1 0x0 SLOAD DUP2 JUMP JUMPDEST PUSH1 0x1B SLOAD DUP2 JUMP JUMPDEST PUSH1 0x2E DUP2 PUSH1 0x2 DUP2 LT PUSH2 0xD8E JUMPI PUSH1 0x0 DUP1 REVERT JUMPDEST ADD PUSH1 0x0 SWAP2 POP SWAP1 POP SLOAD DUP2 JUMP JUMPDEST PUSH1 0x17 SLOAD DUP2 JUMP JUMPDEST PUSH1 0x18 SLOAD DUP2 JUMP JUMPDEST PUSH1 0x0 PUSH2 0x101 PUSH1 0x2 PUSH1 0x0 DUP7 PUSH20 0xFFFFFFFFFFFFFFFFFFFFFFFFFFFFFFFFFFFFFFFF AND PUSH20 0xFFFFFFFFFFFFFFFFFFFFFFFFFFFFFFFFFFFFFFFF AND DUP2 MSTORE PUSH1 0x20 ADD SWAP1 DUP2 MSTORE PUSH1 0x20 ADD PUSH1 0x0 KECCAK256 PUSH1 0x0 CALLER PUSH20 0xFFFFFFFFFFFFFFFFFFFFFFFFFFFFFFFFFFFFFFFF AND PUSH20 0xFFFFFFFFFFFFFFFFFFFFFFFFFFFFFFFFFFFFFFFF AND DUP2 MSTORE PUSH1 0x20 ADD SWAP1 DUP2 MSTORE PUSH1 0x20 ADD PUSH1 0x0 KECCAK256 SLOAD EQ PUSH2 0xF3C JUMPI PUSH2 0xEBB DUP3 PUSH1 0x2 PUSH1 0x0 DUP8 PUSH20 0xFFFFFFFFFFFFFFFFFFFFFFFFFFFFFFFFFFFFFFFF AND PUSH20 0xFFFFFFFFFFFFFFFFFFFFFFFFFFFFFFFFFFFFFFFF AND DUP2 MSTORE PUSH1 0x20 ADD SWAP1 DUP2 MSTORE PUSH1 0x20 ADD PUSH1 0x0 KECCAK256 PUSH1 0x0 CALLER PUSH20 0xFFFFFFFFFFFFFFFFFFFFFFFFFFFFFFFFFFFFFFFF AND PUSH20 0xFFFFFFFFFFFFFFFFFFFFFFFFFFFFFFFFFFFFFFFF AND DUP2 MSTORE PUSH1 0x20 ADD SWAP1 DUP2 MSTORE PUSH1 0x20 ADD PUSH1 0x0 KECCAK256 SLOAD PUSH2 0x3709 SWAP1 SWAP2 SWAP1 PUSH4 0xFFFFFFFF AND JUMP JUMPDEST PUSH1 0x2 PUSH1 0x0 DUP7 PUSH20 0xFFFFFFFFFFFFFFFFFFFFFFFFFFFFFFFFFFFFFFFF AND PUSH20 0xFFFFFFFFFFFFFFFFFFFFFFFFFFFFFFFFFFFFFFFF AND DUP2 MSTORE PUSH1 0x20 ADD SWAP1 DUP2 MSTORE PUSH1 0x20 ADD PUSH1 0x0 KECCAK256 PUSH1 0x0 CALLER PUSH20 0xFFFFFFFFFFFFFFFFFFFFFFFFFFFFFFFFFFFFFFFF AND PUSH20 0xFFFFFFFFFFFFFFFFFFFFFFFFFFFFFFFFFFFFFFFF AND DUP2 MSTORE PUSH1 0x20 ADD SWAP1 DUP2 MSTORE PUSH1 0x20 ADD PUSH1 0x0 KECCAK256 DUP2 SWAP1 SSTORE POP JUMPDEST PUSH2 0xF47 DUP5 DUP5 DUP5 PUSH2 0x3762 JUMP JUMPDEST PUSH1 0x1 SWAP1 POP SWAP4 SWAP3 POP POP POP JUMP JUMPDEST PUSH1 0x1C SLOAD DUP2 JUMP JUMPDEST PUSH1 0x27 SLOAD DUP2 JUMP JUMPDEST PUSH1 0x0 DUP1 PUSH1 0x14 SLOAD PUSH1 0x24 PUSH1 0x0 SWAP1 SLOAD SWAP1 PUSH2 0x100 EXP SWAP1 DIV PUSH20 0xFFFFFFFFFFFFFFFFFFFFFFFFFFFFFFFFFFFFFFFF AND PUSH20 0xFFFFFFFFFFFFFFFFFFFFFFFFFFFFFFFFFFFFFFFF AND PUSH4 0x70A08231 ADDRESS PUSH1 0x40 MLOAD DUP3 PUSH4 0xFFFFFFFF AND PUSH1 0xE0 SHL DUP2 MSTORE PUSH1 0x4 ADD PUSH2 0xFBF SWAP2 SWAP1 PUSH2 0x5CA6 JUMP JUMPDEST PUSH1 0x20 PUSH1 0x40 MLOAD DUP1 DUP4 SUB DUP2 DUP7 DUP1 EXTCODESIZE ISZERO DUP1 ISZERO PUSH2 0xFD7 JUMPI PUSH1 0x0 DUP1 REVERT JUMPDEST POP GAS STATICCALL ISZERO DUP1 ISZERO PUSH2 0xFEB JUMPI RETURNDATASIZE PUSH1 0x0 DUP1 RETURNDATACOPY RETURNDATASIZE PUSH1 0x0 REVERT JUMPDEST POP POP POP POP PUSH1 0x40 MLOAD RETURNDATASIZE PUSH1 0x1F NOT PUSH1 0x1F DUP3 ADD AND DUP3 ADD DUP1 PUSH1 0x40 MSTORE POP DUP2 ADD SWAP1 PUSH2 0x100F SWAP2 SWAP1 PUSH2 0x5970 JUMP JUMPDEST PUSH2 0x1019 SWAP2 SWAP1 PUSH2 0x61DB JUMP JUMPDEST SWAP2 POP PUSH1 0x13 SLOAD PUSH1 0x25 PUSH1 0x0 SWAP1 SLOAD SWAP1 PUSH2 0x100 EXP SWAP1 DIV PUSH20 0xFFFFFFFFFFFFFFFFFFFFFFFFFFFFFFFFFFFFFFFF AND PUSH20 0xFFFFFFFFFFFFFFFFFFFFFFFFFFFFFFFFFFFFFFFF AND PUSH4 0x70A08231 ADDRESS PUSH1 0x40 MLOAD DUP3 PUSH4 0xFFFFFFFF AND PUSH1 0xE0 SHL DUP2 MSTORE PUSH1 0x4 ADD PUSH2 0x1079 SWAP2 SWAP1 PUSH2 0x5CA6 JUMP JUMPDEST PUSH1 0x20 PUSH1 0x40 MLOAD DUP1 DUP4 SUB DUP2 DUP7 DUP1 EXTCODESIZE ISZERO DUP1 ISZERO PUSH2 0x1091 JUMPI PUSH1 0x0 DUP1 REVERT JUMPDEST POP GAS STATICCALL ISZERO DUP1 ISZERO PUSH2 0x10A5 JUMPI RETURNDATASIZE PUSH1 0x0 DUP1 RETURNDATACOPY RETURNDATASIZE PUSH1 0x0 REVERT JUMPDEST POP POP POP POP PUSH1 0x40 MLOAD RETURNDATASIZE PUSH1 0x1F NOT PUSH1 0x1F DUP3 ADD AND DUP3 ADD DUP1 PUSH1 0x40 MSTORE POP DUP2 ADD SWAP1 PUSH2 0x10C9 SWAP2 SWAP1 PUSH2 0x5970 JUMP JUMPDEST PUSH2 0x10D3 SWAP2 SWAP1 PUSH2 0x61DB JUMP JUMPDEST SWAP1 POP PUSH1 0x0 DUP3 GT DUP1 PUSH2 0x10E4 JUMPI POP PUSH1 0x0 DUP2 GT JUMPDEST PUSH2 0x10ED JUMPI PUSH1 0x0 DUP1 REVERT JUMPDEST SWAP1 SWAP2 JUMP JUMPDEST PUSH32 0x6E71EDAE12B1B97F4D1F60370FEF10105FA2FAAE0126114A169C64845D6126C9 PUSH1 0x0 SHL DUP2 JUMP JUMPDEST PUSH1 0x12 DUP2 JUMP JUMPDEST PUSH1 0x5 SLOAD DUP2 JUMP JUMPDEST PUSH1 0x3 SLOAD DUP2 JUMP JUMPDEST PUSH1 0xC SLOAD DUP2 JUMP JUMPDEST PUSH1 0x13 SLOAD DUP2 JUMP JUMPDEST PUSH1 0x15 SLOAD DUP2 JUMP JUMPDEST PUSH1 0x23 PUSH1 0x0 SWAP1 SLOAD SWAP1 PUSH2 0x100 EXP SWAP1 DIV PUSH20 0xFFFFFFFFFFFFFFFFFFFFFFFFFFFFFFFFFFFFFFFF AND PUSH20 0xFFFFFFFFFFFFFFFFFFFFFFFFFFFFFFFFFFFFFFFF AND CALLER PUSH20 0xFFFFFFFFFFFFFFFFFFFFFFFFFFFFFFFFFFFFFFFF AND EQ PUSH2 0x1195 JUMPI PUSH1 0x0 DUP1 REVERT JUMPDEST DUP2 PUSH1 0x24 PUSH1 0x0 PUSH2 0x100 EXP DUP2 SLOAD DUP2 PUSH20 0xFFFFFFFFFFFFFFFFFFFFFFFFFFFFFFFFFFFFFFFF MUL NOT AND SWAP1 DUP4 PUSH20 0xFFFFFFFFFFFFFFFFFFFFFFFFFFFFFFFFFFFFFFFF AND MUL OR SWAP1 SSTORE POP DUP1 PUSH1 0x25 PUSH1 0x0 PUSH2 0x100 EXP DUP2 SLOAD DUP2 PUSH20 0xFFFFFFFFFFFFFFFFFFFFFFFFFFFFFFFFFFFFFFFF MUL NOT AND SWAP1 DUP4 PUSH20 0xFFFFFFFFFFFFFFFFFFFFFFFFFFFFFFFFFFFFFFFF AND MUL OR SWAP1 SSTORE POP PUSH1 0x2A SLOAD PUSH1 0x5 DUP2 SWAP1 SSTORE POP PUSH1 0x2A SLOAD PUSH1 0x6 DUP2 SWAP1 SSTORE POP PUSH1 0x2A SLOAD PUSH1 0x7 DUP2 SWAP1 SSTORE POP PUSH1 0x7 SLOAD PUSH1 0x8 DUP2 SWAP1 SSTORE POP PUSH1 0x2 PUSH1 0x7 SLOAD PUSH2 0x124A SWAP2 SWAP1 PUSH2 0x5FDF JUMP JUMPDEST PUSH1 0x9 DUP2 SWAP1 SSTORE POP PUSH1 0x9 SLOAD PUSH1 0xA DUP2 SWAP1 SSTORE POP POP POP JUMP JUMPDEST PUSH1 0x1 PUSH1 0x2D SLOAD EQ PUSH2 0x12A2 JUMPI PUSH1 0x40 MLOAD PUSH32 0x8C379A000000000000000000000000000000000000000000000000000000000 DUP2 MSTORE PUSH1 0x4 ADD PUSH2 0x1299 SWAP1 PUSH2 0x5ECD JUMP JUMPDEST PUSH1 0x40 MLOAD DUP1 SWAP2 SUB SWAP1 REVERT JUMPDEST PUSH1 0x0 PUSH1 0x2D DUP2 SWAP1 SSTORE POP PUSH1 0x0 DUP3 DUP5 PUSH2 0x12B8 SWAP2 SWAP1 PUSH2 0x6181 JUMP JUMPDEST EQ DUP1 ISZERO PUSH2 0x12D0 JUMPI POP PUSH1 0x0 DUP3 DUP5 PUSH2 0x12CE SWAP2 SWAP1 PUSH2 0x5F89 JUMP JUMPDEST GT JUMPDEST DUP1 ISZERO PUSH2 0x12FE JUMPI POP PUSH2 0x12E0 DUP2 PUSH2 0x38F6 JUMP JUMPDEST PUSH2 0x12E9 DUP3 PUSH2 0x39EA JUMP JUMPDEST PUSH2 0x12F2 DUP4 PUSH2 0x3ACF JUMP JUMPDEST PUSH2 0x12FC SWAP2 SWAP1 PUSH2 0x5F89 JUMP JUMPDEST GT JUMPDEST DUP1 ISZERO PUSH2 0x1361 JUMPI POP PUSH1 0x30 PUSH1 0x0 DUP3 PUSH20 0xFFFFFFFFFFFFFFFFFFFFFFFFFFFFFFFFFFFFFFFF AND PUSH20 0xFFFFFFFFFFFFFFFFFFFFFFFFFFFFFFFFFFFFFFFF AND DUP2 MSTORE PUSH1 0x20 ADD SWAP1 DUP2 MSTORE PUSH1 0x20 ADD PUSH1 0x0 KECCAK256 PUSH1 0x0 DUP1 ISZERO ISZERO ISZERO ISZERO DUP2 MSTORE PUSH1 0x20 ADD SWAP1 DUP2 MSTORE PUSH1 0x20 ADD PUSH1 0x0 KECCAK256 PUSH1 0x2 ADD SLOAD DUP4 GT ISZERO JUMPDEST DUP1 ISZERO PUSH2 0x13C5 JUMPI POP PUSH1 0x30 PUSH1 0x0 DUP3 PUSH20 0xFFFFFFFFFFFFFFFFFFFFFFFFFFFFFFFFFFFFFFFF AND PUSH20 0xFFFFFFFFFFFFFFFFFFFFFFFFFFFFFFFFFFFFFFFF AND DUP2 MSTORE PUSH1 0x20 ADD SWAP1 DUP2 MSTORE PUSH1 0x20 ADD PUSH1 0x0 KECCAK256 PUSH1 0x0 PUSH1 0x1 ISZERO ISZERO ISZERO ISZERO DUP2 MSTORE PUSH1 0x20 ADD SWAP1 DUP2 MSTORE PUSH1 0x20 ADD PUSH1 0x0 KECCAK256 PUSH1 0x2 ADD SLOAD DUP3 GT ISZERO JUMPDEST PUSH2 0x13CE JUMPI PUSH1 0x0 DUP1 REVERT JUMPDEST PUSH2 0x13D6 PUSH2 0x3B9E JUMP JUMPDEST PUSH1 0x0 DUP4 GT ISZERO PUSH2 0x1B08 JUMPI PUSH1 0x0 PUSH2 0x13EC DUP5 PUSH1 0x1 PUSH2 0x3D0A JUMP JUMPDEST SWAP1 POP PUSH1 0x0 PUSH2 0x14B0 DUP6 PUSH1 0x30 PUSH1 0x0 DUP7 PUSH20 0xFFFFFFFFFFFFFFFFFFFFFFFFFFFFFFFFFFFFFFFF AND PUSH20 0xFFFFFFFFFFFFFFFFFFFFFFFFFFFFFFFFFFFFFFFF AND DUP2 MSTORE PUSH1 0x20 ADD SWAP1 DUP2 MSTORE PUSH1 0x20 ADD PUSH1 0x0 KECCAK256 PUSH1 0x0 PUSH1 0x1 ISZERO ISZERO ISZERO ISZERO DUP2 MSTORE PUSH1 0x20 ADD SWAP1 DUP2 MSTORE PUSH1 0x20 ADD PUSH1 0x0 KECCAK256 PUSH1 0x1 ADD SLOAD PUSH1 0x18 SLOAD PUSH1 0x1A SLOAD PUSH1 0x30 PUSH1 0x0 DUP10 PUSH20 0xFFFFFFFFFFFFFFFFFFFFFFFFFFFFFFFFFFFFFFFF AND PUSH20 0xFFFFFFFFFFFFFFFFFFFFFFFFFFFFFFFFFFFFFFFF AND DUP2 MSTORE PUSH1 0x20 ADD SWAP1 DUP2 MSTORE PUSH1 0x20 ADD PUSH1 0x0 KECCAK256 PUSH1 0x0 DUP1 ISZERO ISZERO ISZERO ISZERO DUP2 MSTORE PUSH1 0x20 ADD SWAP1 DUP2 MSTORE PUSH1 0x20 ADD PUSH1 0x0 KECCAK256 PUSH1 0x2 ADD SLOAD PUSH2 0x4016 JUMP JUMPDEST SWAP1 POP DUP5 PUSH1 0x30 PUSH1 0x0 DUP6 PUSH20 0xFFFFFFFFFFFFFFFFFFFFFFFFFFFFFFFFFFFFFFFF AND PUSH20 0xFFFFFFFFFFFFFFFFFFFFFFFFFFFFFFFFFFFFFFFF AND DUP2 MSTORE PUSH1 0x20 ADD SWAP1 DUP2 MSTORE PUSH1 0x20 ADD PUSH1 0x0 KECCAK256 PUSH1 0x0 DUP1 ISZERO ISZERO ISZERO ISZERO DUP2 MSTORE PUSH1 0x20 ADD SWAP1 DUP2 MSTORE PUSH1 0x20 ADD PUSH1 0x0 KECCAK256 PUSH1 0x2 ADD PUSH1 0x0 DUP3 DUP3 SLOAD PUSH2 0x1519 SWAP2 SWAP1 PUSH2 0x61DB JUMP JUMPDEST SWAP3 POP POP DUP2 SWAP1 SSTORE POP DUP1 PUSH1 0x18 PUSH1 0x0 DUP3 DUP3 SLOAD PUSH2 0x1532 SWAP2 SWAP1 PUSH2 0x61DB JUMP JUMPDEST SWAP3 POP POP DUP2 SWAP1 SSTORE POP PUSH2 0x15F3 PUSH1 0x30 PUSH1 0x0 DUP6 PUSH20 0xFFFFFFFFFFFFFFFFFFFFFFFFFFFFFFFFFFFFFFFF AND PUSH20 0xFFFFFFFFFFFFFFFFFFFFFFFFFFFFFFFFFFFFFFFF AND DUP2 MSTORE PUSH1 0x20 ADD SWAP1 DUP2 MSTORE PUSH1 0x20 ADD PUSH1 0x0 KECCAK256 PUSH1 0x0 PUSH1 0x1 ISZERO ISZERO ISZERO ISZERO DUP2 MSTORE PUSH1 0x20 ADD SWAP1 DUP2 MSTORE PUSH1 0x20 ADD PUSH1 0x0 KECCAK256 PUSH1 0x1 ADD SLOAD DUP7 PUSH1 0x30 PUSH1 0x0 DUP8 PUSH20 0xFFFFFFFFFFFFFFFFFFFFFFFFFFFFFFFFFFFFFFFF AND PUSH20 0xFFFFFFFFFFFFFFFFFFFFFFFFFFFFFFFFFFFFFFFF AND DUP2 MSTORE PUSH1 0x20 ADD SWAP1 DUP2 MSTORE PUSH1 0x20 ADD PUSH1 0x0 KECCAK256 PUSH1 0x0 DUP1 ISZERO ISZERO ISZERO ISZERO DUP2 MSTORE PUSH1 0x20 ADD SWAP1 DUP2 MSTORE PUSH1 0x20 ADD PUSH1 0x0 KECCAK256 PUSH1 0x2 ADD SLOAD PUSH2 0x4050 JUMP JUMPDEST PUSH1 0x1A PUSH1 0x0 DUP3 DUP3 SLOAD PUSH2 0x1604 SWAP2 SWAP1 PUSH2 0x61DB JUMP JUMPDEST SWAP3 POP POP DUP2 SWAP1 SSTORE POP PUSH2 0x16C5 PUSH1 0x30 PUSH1 0x0 DUP6 PUSH20 0xFFFFFFFFFFFFFFFFFFFFFFFFFFFFFFFFFFFFFFFF AND PUSH20 0xFFFFFFFFFFFFFFFFFFFFFFFFFFFFFFFFFFFFFFFF AND DUP2 MSTORE PUSH1 0x20 ADD SWAP1 DUP2 MSTORE PUSH1 0x20 ADD PUSH1 0x0 KECCAK256 PUSH1 0x0 PUSH1 0x1 ISZERO ISZERO ISZERO ISZERO DUP2 MSTORE PUSH1 0x20 ADD SWAP1 DUP2 MSTORE PUSH1 0x20 ADD PUSH1 0x0 KECCAK256 PUSH1 0x1 ADD SLOAD DUP7 PUSH1 0x30 PUSH1 0x0 DUP8 PUSH20 0xFFFFFFFFFFFFFFFFFFFFFFFFFFFFFFFFFFFFFFFF AND PUSH20 0xFFFFFFFFFFFFFFFFFFFFFFFFFFFFFFFFFFFFFFFF AND DUP2 MSTORE PUSH1 0x20 ADD SWAP1 DUP2 MSTORE PUSH1 0x20 ADD PUSH1 0x0 KECCAK256 PUSH1 0x0 DUP1 ISZERO ISZERO ISZERO ISZERO DUP2 MSTORE PUSH1 0x20 ADD SWAP1 DUP2 MSTORE PUSH1 0x20 ADD PUSH1 0x0 KECCAK256 PUSH1 0x2 ADD SLOAD PUSH2 0x4050 JUMP JUMPDEST PUSH1 0x30 PUSH1 0x0 DUP6 PUSH20 0xFFFFFFFFFFFFFFFFFFFFFFFFFFFFFFFFFFFFFFFF AND PUSH20 0xFFFFFFFFFFFFFFFFFFFFFFFFFFFFFFFFFFFFFFFF AND DUP2 MSTORE PUSH1 0x20 ADD SWAP1 DUP2 MSTORE PUSH1 0x20 ADD PUSH1 0x0 KECCAK256 PUSH1 0x0 PUSH1 0x1 ISZERO ISZERO ISZERO ISZERO DUP2 MSTORE PUSH1 0x20 ADD SWAP1 DUP2 MSTORE PUSH1 0x20 ADD PUSH1 0x0 KECCAK256 PUSH1 0x1 ADD PUSH1 0x0 DUP3 DUP3 SLOAD PUSH2 0x172C SWAP2 SWAP1 PUSH2 0x61DB JUMP JUMPDEST SWAP3 POP POP DUP2 SWAP1 SSTORE POP DUP1 DUP3 GT DUP1 ISZERO PUSH2 0x1755 JUMPI POP PUSH1 0x0 ISZERO ISZERO PUSH1 0x2B PUSH1 0x0 SWAP1 SLOAD SWAP1 PUSH2 0x100 EXP SWAP1 DIV PUSH1 0xFF AND ISZERO ISZERO EQ JUMPDEST ISZERO PUSH2 0x17DE JUMPI PUSH2 0x1770 DUP2 DUP4 PUSH2 0x1769 SWAP2 SWAP1 PUSH2 0x61DB JUMP JUMPDEST PUSH1 0x0 PUSH2 0x4072 JUMP JUMPDEST PUSH1 0x31 PUSH1 0x0 DUP6 PUSH20 0xFFFFFFFFFFFFFFFFFFFFFFFFFFFFFFFFFFFFFFFF AND PUSH20 0xFFFFFFFFFFFFFFFFFFFFFFFFFFFFFFFFFFFFFFFF AND DUP2 MSTORE PUSH1 0x20 ADD SWAP1 DUP2 MSTORE PUSH1 0x20 ADD PUSH1 0x0 KECCAK256 PUSH1 0x0 PUSH1 0x2 DUP2 LT PUSH2 0x17C2 JUMPI PUSH2 0x17C1 PUSH2 0x6352 JUMP JUMPDEST JUMPDEST ADD PUSH1 0x0 DUP3 DUP3 SLOAD PUSH2 0x17D2 SWAP2 SWAP1 PUSH2 0x5F89 JUMP JUMPDEST SWAP3 POP POP DUP2 SWAP1 SSTORE POP PUSH2 0x1B01 JUMP JUMPDEST DUP1 DUP3 PUSH1 0x31 PUSH1 0x0 DUP7 PUSH20 0xFFFFFFFFFFFFFFFFFFFFFFFFFFFFFFFFFFFFFFFF AND PUSH20 0xFFFFFFFFFFFFFFFFFFFFFFFFFFFFFFFFFFFFFFFF AND DUP2 MSTORE PUSH1 0x20 ADD SWAP1 DUP2 MSTORE PUSH1 0x20 ADD PUSH1 0x0 KECCAK256 PUSH1 0x1 PUSH1 0x2 DUP2 LT PUSH2 0x1832 JUMPI PUSH2 0x1831 PUSH2 0x6352 JUMP JUMPDEST JUMPDEST ADD SLOAD PUSH2 0x183E SWAP2 SWAP1 PUSH2 0x5F89 JUMP JUMPDEST GT DUP1 ISZERO PUSH2 0x185E JUMPI POP PUSH1 0x1 ISZERO ISZERO PUSH1 0x2B PUSH1 0x0 SWAP1 SLOAD SWAP1 PUSH2 0x100 EXP SWAP1 DIV PUSH1 0xFF AND ISZERO ISZERO EQ JUMPDEST ISZERO PUSH2 0x1929 JUMPI DUP1 DUP3 PUSH1 0x31 PUSH1 0x0 DUP7 PUSH20 0xFFFFFFFFFFFFFFFFFFFFFFFFFFFFFFFFFFFFFFFF AND PUSH20 0xFFFFFFFFFFFFFFFFFFFFFFFFFFFFFFFFFFFFFFFF AND DUP2 MSTORE PUSH1 0x20 ADD SWAP1 DUP2 MSTORE PUSH1 0x20 ADD PUSH1 0x0 KECCAK256 PUSH1 0x1 PUSH1 0x2 DUP2 LT PUSH2 0x18B7 JUMPI PUSH2 0x18B6 PUSH2 0x6352 JUMP JUMPDEST JUMPDEST ADD SLOAD PUSH2 0x18C3 SWAP2 SWAP1 PUSH2 0x5F89 JUMP JUMPDEST PUSH2 0x18CD SWAP2 SWAP1 PUSH2 0x61DB JUMP JUMPDEST PUSH1 0x31 PUSH1 0x0 DUP6 PUSH20 0xFFFFFFFFFFFFFFFFFFFFFFFFFFFFFFFFFFFFFFFF AND PUSH20 0xFFFFFFFFFFFFFFFFFFFFFFFFFFFFFFFFFFFFFFFF AND DUP2 MSTORE PUSH1 0x20 ADD SWAP1 DUP2 MSTORE PUSH1 0x20 ADD PUSH1 0x0 KECCAK256 PUSH1 0x1 PUSH1 0x2 DUP2 LT PUSH2 0x191F JUMPI PUSH2 0x191E PUSH2 0x6352 JUMP JUMPDEST JUMPDEST ADD DUP2 SWAP1 SSTORE POP PUSH2 0x1B00 JUMP JUMPDEST PUSH2 0x19F1 PUSH1 0x31 PUSH1 0x0 DUP6 PUSH20 0xFFFFFFFFFFFFFFFFFFFFFFFFFFFFFFFFFFFFFFFF AND PUSH20 0xFFFFFFFFFFFFFFFFFFFFFFFFFFFFFFFFFFFFFFFF AND DUP2 MSTORE PUSH1 0x20 ADD SWAP1 DUP2 MSTORE PUSH1 0x20 ADD PUSH1 0x0 KECCAK256 PUSH1 0x1 PUSH1 0x2 DUP2 LT PUSH2 0x197E JUMPI PUSH2 0x197D PUSH2 0x6352 JUMP JUMPDEST JUMPDEST ADD SLOAD DUP4 DUP4 PUSH2 0x198C SWAP2 SWAP1 PUSH2 0x61DB JUMP JUMPDEST PUSH2 0x1996 SWAP2 SWAP1 PUSH2 0x61DB JUMP JUMPDEST PUSH1 0x31 PUSH1 0x0 DUP7 PUSH20 0xFFFFFFFFFFFFFFFFFFFFFFFFFFFFFFFFFFFFFFFF AND PUSH20 0xFFFFFFFFFFFFFFFFFFFFFFFFFFFFFFFFFFFFFFFF AND DUP2 MSTORE PUSH1 0x20 ADD SWAP1 DUP2 MSTORE PUSH1 0x20 ADD PUSH1 0x0 KECCAK256 PUSH1 0x0 PUSH1 0x2 DUP2 LT PUSH2 0x19E8 JUMPI PUSH2 0x19E7 PUSH2 0x6352 JUMP JUMPDEST JUMPDEST ADD SLOAD PUSH1 0x0 PUSH2 0x437E JUMP JUMPDEST PUSH1 0x31 PUSH1 0x0 DUP6 PUSH20 0xFFFFFFFFFFFFFFFFFFFFFFFFFFFFFFFFFFFFFFFF AND PUSH20 0xFFFFFFFFFFFFFFFFFFFFFFFFFFFFFFFFFFFFFFFF AND DUP2 MSTORE PUSH1 0x20 ADD SWAP1 DUP2 MSTORE PUSH1 0x20 ADD PUSH1 0x0 KECCAK256 PUSH1 0x0 PUSH1 0x2 DUP2 LT PUSH2 0x1A43 JUMPI PUSH2 0x1A42 PUSH2 0x6352 JUMP JUMPDEST JUMPDEST ADD SLOAD PUSH2 0x1A4F SWAP2 SWAP1 PUSH2 0x61DB JUMP JUMPDEST PUSH1 0x31 PUSH1 0x0 DUP6 PUSH20 0xFFFFFFFFFFFFFFFFFFFFFFFFFFFFFFFFFFFFFFFF AND PUSH20 0xFFFFFFFFFFFFFFFFFFFFFFFFFFFFFFFFFFFFFFFF AND DUP2 MSTORE PUSH1 0x20 ADD SWAP1 DUP2 MSTORE PUSH1 0x20 ADD PUSH1 0x0 KECCAK256 PUSH1 0x0 PUSH1 0x2 DUP2 LT PUSH2 0x1AA1 JUMPI PUSH2 0x1AA0 PUSH2 0x6352 JUMP JUMPDEST JUMPDEST ADD DUP2 SWAP1 SSTORE POP PUSH1 0x0 PUSH1 0x31 PUSH1 0x0 DUP6 PUSH20 0xFFFFFFFFFFFFFFFFFFFFFFFFFFFFFFFFFFFFFFFF AND PUSH20 0xFFFFFFFFFFFFFFFFFFFFFFFFFFFFFFFFFFFFFFFF AND DUP2 MSTORE PUSH1 0x20 ADD SWAP1 DUP2 MSTORE PUSH1 0x20 ADD PUSH1 0x0 KECCAK256 PUSH1 0x1 PUSH1 0x2 DUP2 LT PUSH2 0x1AFA JUMPI PUSH2 0x1AF9 PUSH2 0x6352 JUMP JUMPDEST JUMPDEST ADD DUP2 SWAP1 SSTORE POP JUMPDEST JUMPDEST POP POP PUSH2 0x2162 JUMP JUMPDEST PUSH1 0x0 PUSH2 0x1B15 DUP4 PUSH1 0x1 PUSH2 0x4072 JUMP JUMPDEST SWAP1 POP PUSH1 0x0 PUSH2 0x1BD9 DUP5 PUSH1 0x30 PUSH1 0x0 DUP7 PUSH20 0xFFFFFFFFFFFFFFFFFFFFFFFFFFFFFFFFFFFFFFFF AND PUSH20 0xFFFFFFFFFFFFFFFFFFFFFFFFFFFFFFFFFFFFFFFF AND DUP2 MSTORE PUSH1 0x20 ADD SWAP1 DUP2 MSTORE PUSH1 0x20 ADD PUSH1 0x0 KECCAK256 PUSH1 0x0 DUP1 ISZERO ISZERO ISZERO ISZERO DUP2 MSTORE PUSH1 0x20 ADD SWAP1 DUP2 MSTORE PUSH1 0x20 ADD PUSH1 0x0 KECCAK256 PUSH1 0x1 ADD SLOAD PUSH1 0x17 SLOAD PUSH1 0x19 SLOAD PUSH1 0x30 PUSH1 0x0 DUP10 PUSH20 0xFFFFFFFFFFFFFFFFFFFFFFFFFFFFFFFFFFFFFFFF AND PUSH20 0xFFFFFFFFFFFFFFFFFFFFFFFFFFFFFFFFFFFFFFFF AND DUP2 MSTORE PUSH1 0x20 ADD SWAP1 DUP2 MSTORE PUSH1 0x20 ADD PUSH1 0x0 KECCAK256 PUSH1 0x0 PUSH1 0x1 ISZERO ISZERO ISZERO ISZERO DUP2 MSTORE PUSH1 0x20 ADD SWAP1 DUP2 MSTORE PUSH1 0x20 ADD PUSH1 0x0 KECCAK256 PUSH1 0x2 ADD SLOAD PUSH2 0x4016 JUMP JUMPDEST SWAP1 POP DUP4 PUSH1 0x30 PUSH1 0x0 DUP6 PUSH20 0xFFFFFFFFFFFFFFFFFFFFFFFFFFFFFFFFFFFFFFFF AND PUSH20 0xFFFFFFFFFFFFFFFFFFFFFFFFFFFFFFFFFFFFFFFF AND DUP2 MSTORE PUSH1 0x20 ADD SWAP1 DUP2 MSTORE PUSH1 0x20 ADD PUSH1 0x0 KECCAK256 PUSH1 0x0 PUSH1 0x1 ISZERO ISZERO ISZERO ISZERO DUP2 MSTORE PUSH1 0x20 ADD SWAP1 DUP2 MSTORE PUSH1 0x20 ADD PUSH1 0x0 KECCAK256 PUSH1 0x2 ADD PUSH1 0x0 DUP3 DUP3 SLOAD PUSH2 0x1C43 SWAP2 SWAP1 PUSH2 0x61DB JUMP JUMPDEST SWAP3 POP POP DUP2 SWAP1 SSTORE POP DUP1 PUSH1 0x17 PUSH1 0x0 DUP3 DUP3 SLOAD PUSH2 0x1C5C SWAP2 SWAP1 PUSH2 0x61DB JUMP JUMPDEST SWAP3 POP POP DUP2 SWAP1 SSTORE POP PUSH2 0x1D1D PUSH1 0x30 PUSH1 0x0 DUP6 PUSH20 0xFFFFFFFFFFFFFFFFFFFFFFFFFFFFFFFFFFFFFFFF AND PUSH20 0xFFFFFFFFFFFFFFFFFFFFFFFFFFFFFFFFFFFFFFFF AND DUP2 MSTORE PUSH1 0x20 ADD SWAP1 DUP2 MSTORE PUSH1 0x20 ADD PUSH1 0x0 KECCAK256 PUSH1 0x0 DUP1 ISZERO ISZERO ISZERO ISZERO DUP2 MSTORE PUSH1 0x20 ADD SWAP1 DUP2 MSTORE PUSH1 0x20 ADD PUSH1 0x0 KECCAK256 PUSH1 0x1 ADD SLOAD DUP6 PUSH1 0x30 PUSH1 0x0 DUP8 PUSH20 0xFFFFFFFFFFFFFFFFFFFFFFFFFFFFFFFFFFFFFFFF AND PUSH20 0xFFFFFFFFFFFFFFFFFFFFFFFFFFFFFFFFFFFFFFFF AND DUP2 MSTORE PUSH1 0x20 ADD SWAP1 DUP2 MSTORE PUSH1 0x20 ADD PUSH1 0x0 KECCAK256 PUSH1 0x0 PUSH1 0x1 ISZERO ISZERO ISZERO ISZERO DUP2 MSTORE PUSH1 0x20 ADD SWAP1 DUP2 MSTORE PUSH1 0x20 ADD PUSH1 0x0 KECCAK256 PUSH1 0x2 ADD SLOAD PUSH2 0x4050 JUMP JUMPDEST PUSH1 0x19 PUSH1 0x0 DUP3 DUP3 SLOAD PUSH2 0x1D2E SWAP2 SWAP1 PUSH2 0x61DB JUMP JUMPDEST SWAP3 POP POP DUP2 SWAP1 SSTORE POP PUSH2 0x1DEF PUSH1 0x30 PUSH1 0x0 DUP6 PUSH20 0xFFFFFFFFFFFFFFFFFFFFFFFFFFFFFFFFFFFFFFFF AND PUSH20 0xFFFFFFFFFFFFFFFFFFFFFFFFFFFFFFFFFFFFFFFF AND DUP2 MSTORE PUSH1 0x20 ADD SWAP1 DUP2 MSTORE PUSH1 0x20 ADD PUSH1 0x0 KECCAK256 PUSH1 0x0 DUP1 ISZERO ISZERO ISZERO ISZERO DUP2 MSTORE PUSH1 0x20 ADD SWAP1 DUP2 MSTORE PUSH1 0x20 ADD PUSH1 0x0 KECCAK256 PUSH1 0x1 ADD SLOAD DUP6 PUSH1 0x30 PUSH1 0x0 DUP8 PUSH20 0xFFFFFFFFFFFFFFFFFFFFFFFFFFFFFFFFFFFFFFFF AND PUSH20 0xFFFFFFFFFFFFFFFFFFFFFFFFFFFFFFFFFFFFFFFF AND DUP2 MSTORE PUSH1 0x20 ADD SWAP1 DUP2 MSTORE PUSH1 0x20 ADD PUSH1 0x0 KECCAK256 PUSH1 0x0 PUSH1 0x1 ISZERO ISZERO ISZERO ISZERO DUP2 MSTORE PUSH1 0x20 ADD SWAP1 DUP2 MSTORE PUSH1 0x20 ADD PUSH1 0x0 KECCAK256 PUSH1 0x2 ADD SLOAD PUSH2 0x4050 JUMP JUMPDEST PUSH1 0x30 PUSH1 0x0 DUP6 PUSH20 0xFFFFFFFFFFFFFFFFFFFFFFFFFFFFFFFFFFFFFFFF AND PUSH20 0xFFFFFFFFFFFFFFFFFFFFFFFFFFFFFFFFFFFFFFFF AND DUP2 MSTORE PUSH1 0x20 ADD SWAP1 DUP2 MSTORE PUSH1 0x20 ADD PUSH1 0x0 KECCAK256 PUSH1 0x0 DUP1 ISZERO ISZERO ISZERO ISZERO DUP2 MSTORE PUSH1 0x20 ADD SWAP1 DUP2 MSTORE PUSH1 0x20 ADD PUSH1 0x0 KECCAK256 PUSH1 0x1 ADD PUSH1 0x0 DUP3 DUP3 SLOAD PUSH2 0x1E55 SWAP2 SWAP1 PUSH2 0x61DB JUMP JUMPDEST SWAP3 POP POP DUP2 SWAP1 SSTORE POP DUP1 DUP3 PUSH1 0x31 PUSH1 0x0 DUP7 PUSH20 0xFFFFFFFFFFFFFFFFFFFFFFFFFFFFFFFFFFFFFFFF AND PUSH20 0xFFFFFFFFFFFFFFFFFFFFFFFFFFFFFFFFFFFFFFFF AND DUP2 MSTORE PUSH1 0x20 ADD SWAP1 DUP2 MSTORE PUSH1 0x20 ADD PUSH1 0x0 KECCAK256 PUSH1 0x0 PUSH1 0x2 DUP2 LT PUSH2 0x1EB0 JUMPI PUSH2 0x1EAF PUSH2 0x6352 JUMP JUMPDEST JUMPDEST ADD SLOAD PUSH2 0x1EBC SWAP2 SWAP1 PUSH2 0x5F89 JUMP JUMPDEST GT ISZERO PUSH2 0x1F88 JUMPI DUP1 DUP3 PUSH1 0x31 PUSH1 0x0 DUP7 PUSH20 0xFFFFFFFFFFFFFFFFFFFFFFFFFFFFFFFFFFFFFFFF AND PUSH20 0xFFFFFFFFFFFFFFFFFFFFFFFFFFFFFFFFFFFFFFFF AND DUP2 MSTORE PUSH1 0x20 ADD SWAP1 DUP2 MSTORE PUSH1 0x20 ADD PUSH1 0x0 KECCAK256 PUSH1 0x0 PUSH1 0x2 DUP2 LT PUSH2 0x1F16 JUMPI PUSH2 0x1F15 PUSH2 0x6352 JUMP JUMPDEST JUMPDEST ADD SLOAD PUSH2 0x1F22 SWAP2 SWAP1 PUSH2 0x5F89 JUMP JUMPDEST PUSH2 0x1F2C SWAP2 SWAP1 PUSH2 0x61DB JUMP JUMPDEST PUSH1 0x31 PUSH1 0x0 DUP6 PUSH20 0xFFFFFFFFFFFFFFFFFFFFFFFFFFFFFFFFFFFFFFFF AND PUSH20 0xFFFFFFFFFFFFFFFFFFFFFFFFFFFFFFFFFFFFFFFF AND DUP2 MSTORE PUSH1 0x20 ADD SWAP1 DUP2 MSTORE PUSH1 0x20 ADD PUSH1 0x0 KECCAK256 PUSH1 0x0 PUSH1 0x2 DUP2 LT PUSH2 0x1F7E JUMPI PUSH2 0x1F7D PUSH2 0x6352 JUMP JUMPDEST JUMPDEST ADD DUP2 SWAP1 SSTORE POP PUSH2 0x215F JUMP JUMPDEST PUSH2 0x2050 PUSH1 0x31 PUSH1 0x0 DUP6 PUSH20 0xFFFFFFFFFFFFFFFFFFFFFFFFFFFFFFFFFFFFFFFF AND PUSH20 0xFFFFFFFFFFFFFFFFFFFFFFFFFFFFFFFFFFFFFFFF AND DUP2 MSTORE PUSH1 0x20 ADD SWAP1 DUP2 MSTORE PUSH1 0x20 ADD PUSH1 0x0 KECCAK256 PUSH1 0x0 PUSH1 0x2 DUP2 LT PUSH2 0x1FDD JUMPI PUSH2 0x1FDC PUSH2 0x6352 JUMP JUMPDEST JUMPDEST ADD SLOAD DUP4 DUP4 PUSH2 0x1FEB SWAP2 SWAP1 PUSH2 0x61DB JUMP JUMPDEST PUSH2 0x1FF5 SWAP2 SWAP1 PUSH2 0x61DB JUMP JUMPDEST PUSH1 0x31 PUSH1 0x0 DUP7 PUSH20 0xFFFFFFFFFFFFFFFFFFFFFFFFFFFFFFFFFFFFFFFF AND PUSH20 0xFFFFFFFFFFFFFFFFFFFFFFFFFFFFFFFFFFFFFFFF AND DUP2 MSTORE PUSH1 0x20 ADD SWAP1 DUP2 MSTORE PUSH1 0x20 ADD PUSH1 0x0 KECCAK256 PUSH1 0x1 PUSH1 0x2 DUP2 LT PUSH2 0x2047 JUMPI PUSH2 0x2046 PUSH2 0x6352 JUMP JUMPDEST JUMPDEST ADD SLOAD PUSH1 0x0 PUSH2 0x4697 JUMP JUMPDEST PUSH1 0x31 PUSH1 0x0 DUP6 PUSH20 0xFFFFFFFFFFFFFFFFFFFFFFFFFFFFFFFFFFFFFFFF AND PUSH20 0xFFFFFFFFFFFFFFFFFFFFFFFFFFFFFFFFFFFFFFFF AND DUP2 MSTORE PUSH1 0x20 ADD SWAP1 DUP2 MSTORE PUSH1 0x20 ADD PUSH1 0x0 KECCAK256 PUSH1 0x1 PUSH1 0x2 DUP2 LT PUSH2 0x20A2 JUMPI PUSH2 0x20A1 PUSH2 0x6352 JUMP JUMPDEST JUMPDEST ADD SLOAD PUSH2 0x20AE SWAP2 SWAP1 PUSH2 0x61DB JUMP JUMPDEST PUSH1 0x31 PUSH1 0x0 DUP6 PUSH20 0xFFFFFFFFFFFFFFFFFFFFFFFFFFFFFFFFFFFFFFFF AND PUSH20 0xFFFFFFFFFFFFFFFFFFFFFFFFFFFFFFFFFFFFFFFF AND DUP2 MSTORE PUSH1 0x20 ADD SWAP1 DUP2 MSTORE PUSH1 0x20 ADD PUSH1 0x0 KECCAK256 PUSH1 0x1 PUSH1 0x2 DUP2 LT PUSH2 0x2100 JUMPI PUSH2 0x20FF PUSH2 0x6352 JUMP JUMPDEST JUMPDEST ADD DUP2 SWAP1 SSTORE POP PUSH1 0x0 PUSH1 0x31 PUSH1 0x0 DUP6 PUSH20 0xFFFFFFFFFFFFFFFFFFFFFFFFFFFFFFFFFFFFFFFF AND PUSH20 0xFFFFFFFFFFFFFFFFFFFFFFFFFFFFFFFFFFFFFFFF AND DUP2 MSTORE PUSH1 0x20 ADD SWAP1 DUP2 MSTORE PUSH1 0x20 ADD PUSH1 0x0 KECCAK256 PUSH1 0x0 PUSH1 0x2 DUP2 LT PUSH2 0x2159 JUMPI PUSH2 0x2158 PUSH2 0x6352 JUMP JUMPDEST JUMPDEST ADD DUP2 SWAP1 SSTORE POP JUMPDEST POP POP JUMPDEST PUSH1 0x1 PUSH1 0x2D DUP2 SWAP1 SSTORE POP POP POP POP JUMP JUMPDEST PUSH1 0x14 SLOAD DUP2 JUMP JUMPDEST PUSH1 0x1D SLOAD DUP2 JUMP JUMPDEST PUSH1 0x0 PUSH1 0x1 PUSH1 0x2D SLOAD EQ PUSH2 0x21C2 JUMPI PUSH1 0x40 MLOAD PUSH32 0x8C379A000000000000000000000000000000000000000000000000000000000 DUP2 MSTORE PUSH1 0x4 ADD PUSH2 0x21B9 SWAP1 PUSH2 0x5ECD JUMP JUMPDEST PUSH1 0x40 MLOAD DUP1 SWAP2 SUB SWAP1 REVERT JUMPDEST PUSH1 0x0 PUSH1 0x2D DUP2 SWAP1 SSTORE POP PUSH2 0x21E6 PUSH1 0xB SLOAD DUP6 PUSH1 0x14 SLOAD PUSH2 0x21DE SWAP2 SWAP1 PUSH2 0x5F89 JUMP JUMPDEST PUSH1 0x14 SLOAD PUSH2 0x4050 JUMP JUMPDEST PUSH1 0xB DUP2 SWAP1 SSTORE POP PUSH2 0x2208 PUSH1 0xC SLOAD DUP5 PUSH1 0x13 SLOAD PUSH2 0x2200 SWAP2 SWAP1 PUSH2 0x5F89 JUMP JUMPDEST PUSH1 0x13 SLOAD PUSH2 0x4050 JUMP JUMPDEST PUSH1 0xC DUP2 SWAP1 SSTORE POP PUSH2 0x221D PUSH1 0x27 SLOAD DUP6 PUSH1 0x14 SLOAD PUSH2 0x4050 JUMP JUMPDEST SWAP1 POP DUP1 PUSH1 0x27 SLOAD PUSH2 0x222D SWAP2 SWAP1 PUSH2 0x5F89 JUMP JUMPDEST PUSH1 0x27 DUP2 SWAP1 SSTORE POP DUP4 PUSH1 0x14 SLOAD PUSH2 0x2241 SWAP2 SWAP1 PUSH2 0x5F89 JUMP JUMPDEST PUSH1 0x14 DUP2 SWAP1 SSTORE POP DUP3 PUSH1 0x13 SLOAD PUSH2 0x2255 SWAP2 SWAP1 PUSH2 0x5F89 JUMP JUMPDEST PUSH1 0x13 DUP2 SWAP1 SSTORE POP PUSH2 0x2265 DUP3 DUP3 PUSH2 0x49B0 JUMP JUMPDEST PUSH2 0x226D PUSH2 0x4ACA JUMP JUMPDEST PUSH1 0x1 PUSH1 0x2D DUP2 SWAP1 SSTORE POP SWAP4 SWAP3 POP POP POP JUMP JUMPDEST PUSH1 0x0 DUP1 PUSH1 0x1 PUSH1 0x2D SLOAD EQ PUSH2 0x22C4 JUMPI PUSH1 0x40 MLOAD PUSH32 0x8C379A000000000000000000000000000000000000000000000000000000000 DUP2 MSTORE PUSH1 0x4 ADD PUSH2 0x22BB SWAP1 PUSH2 0x5ECD JUMP JUMPDEST PUSH1 0x40 MLOAD DUP1 SWAP2 SUB SWAP1 REVERT JUMPDEST PUSH1 0x0 PUSH1 0x2D DUP2 SWAP1 SSTORE POP PUSH2 0x22DB DUP5 PUSH1 0x14 SLOAD PUSH1 0x27 SLOAD PUSH2 0x4050 JUMP JUMPDEST SWAP2 POP PUSH2 0x22EC DUP5 PUSH1 0x13 SLOAD PUSH1 0x27 SLOAD PUSH2 0x4050 JUMP JUMPDEST SWAP1 POP PUSH2 0x230A PUSH1 0xB SLOAD DUP4 PUSH1 0x14 SLOAD PUSH2 0x2302 SWAP2 SWAP1 PUSH2 0x61DB JUMP JUMPDEST PUSH1 0x14 SLOAD PUSH2 0x4050 JUMP JUMPDEST PUSH1 0xB DUP2 SWAP1 SSTORE POP PUSH2 0x232C PUSH1 0xC SLOAD DUP3 PUSH1 0x13 SLOAD PUSH2 0x2324 SWAP2 SWAP1 PUSH2 0x61DB JUMP JUMPDEST PUSH1 0x13 SLOAD PUSH2 0x4050 JUMP JUMPDEST PUSH1 0xC DUP2 SWAP1 SSTORE POP DUP2 PUSH1 0x14 SLOAD PUSH2 0x2340 SWAP2 SWAP1 PUSH2 0x61DB JUMP JUMPDEST PUSH1 0x14 DUP2 SWAP1 SSTORE POP DUP1 PUSH1 0x13 SLOAD PUSH2 0x2354 SWAP2 SWAP1 PUSH2 0x61DB JUMP JUMPDEST PUSH1 0x13 DUP2 SWAP1 SSTORE POP DUP4 PUSH1 0x27 SLOAD PUSH2 0x2368 SWAP2 SWAP1 PUSH2 0x61DB JUMP JUMPDEST PUSH1 0x27 DUP2 SWAP1 SSTORE POP PUSH2 0x2378 ADDRESS DUP6 PUSH2 0x4B3C JUMP JUMPDEST PUSH2 0x23A5 PUSH1 0x24 PUSH1 0x0 SWAP1 SLOAD SWAP1 PUSH2 0x100 EXP SWAP1 DIV PUSH20 0xFFFFFFFFFFFFFFFFFFFFFFFFFFFFFFFFFFFFFFFF AND DUP5 DUP5 PUSH2 0x4C56 JUMP JUMPDEST PUSH2 0x23D2 PUSH1 0x25 PUSH1 0x0 SWAP1 SLOAD SWAP1 PUSH2 0x100 EXP SWAP1 DIV PUSH20 0xFFFFFFFFFFFFFFFFFFFFFFFFFFFFFFFFFFFFFFFF AND DUP5 DUP4 PUSH2 0x4C56 JUMP JUMPDEST PUSH2 0x23DA PUSH2 0x4ACA JUMP JUMPDEST PUSH1 0x1 PUSH1 0x2D DUP2 SWAP1 SSTORE POP SWAP3 POP SWAP3 SWAP1 POP JUMP JUMPDEST PUSH1 0x19 SLOAD DUP2 JUMP JUMPDEST PUSH1 0x1 PUSH1 0x20 MSTORE DUP1 PUSH1 0x0 MSTORE PUSH1 0x40 PUSH1 0x0 KECCAK256 PUSH1 0x0 SWAP2 POP SWAP1 POP SLOAD DUP2 JUMP JUMPDEST PUSH1 0x12 SLOAD DUP2 JUMP JUMPDEST PUSH1 0x2A SLOAD DUP2 JUMP JUMPDEST PUSH1 0x30 PUSH1 0x20 MSTORE DUP2 PUSH1 0x0 MSTORE PUSH1 0x40 PUSH1 0x0 KECCAK256 PUSH1 0x20 MSTORE DUP1 PUSH1 0x0 MSTORE PUSH1 0x40 PUSH1 0x0 KECCAK256 PUSH1 0x0 SWAP2 POP SWAP2 POP POP DUP1 PUSH1 0x0 ADD PUSH1 0x0 SWAP1 SLOAD SWAP1 PUSH2 0x100 EXP SWAP1 DIV PUSH20 0xFFFFFFFFFFFFFFFFFFFFFFFFFFFFFFFFFFFFFFFF AND SWAP1 DUP1 PUSH1 0x0 ADD PUSH1 0x14 SWAP1 SLOAD SWAP1 PUSH2 0x100 EXP SWAP1 DIV PUSH1 0xFF AND SWAP1 DUP1 PUSH1 0x1 ADD SLOAD SWAP1 DUP1 PUSH1 0x2 ADD SLOAD SWAP1 POP DUP5 JUMP JUMPDEST PUSH1 0x4 PUSH1 0x20 MSTORE DUP1 PUSH1 0x0 MSTORE PUSH1 0x40 PUSH1 0x0 KECCAK256 PUSH1 0x0 SWAP2 POP SWAP1 POP SLOAD DUP2 JUMP JUMPDEST PUSH1 0x20 SLOAD DUP2 JUMP JUMPDEST PUSH1 0xA SLOAD DUP2 JUMP JUMPDEST PUSH1 0x6 SLOAD DUP2 JUMP JUMPDEST PUSH1 0xB SLOAD DUP2 JUMP JUMPDEST PUSH1 0x28 SLOAD DUP2 JUMP JUMPDEST PUSH1 0x0 PUSH1 0x25 PUSH1 0x0 SWAP1 SLOAD SWAP1 PUSH2 0x100 EXP SWAP1 DIV PUSH20 0xFFFFFFFFFFFFFFFFFFFFFFFFFFFFFFFFFFFFFFFF AND PUSH20 0xFFFFFFFFFFFFFFFFFFFFFFFFFFFFFFFFFFFFFFFF AND DUP4 PUSH20 0xFFFFFFFFFFFFFFFFFFFFFFFFFFFFFFFFFFFFFFFF AND EQ DUP1 ISZERO PUSH2 0x2525 JUMPI POP PUSH1 0x1 ISZERO ISZERO PUSH1 0x2B PUSH1 0x0 SWAP1 SLOAD SWAP1 PUSH2 0x100 EXP SWAP1 DIV PUSH1 0xFF AND ISZERO ISZERO EQ JUMPDEST ISZERO PUSH2 0x267F JUMPI PUSH1 0x2E PUSH1 0x1 PUSH1 0x2 DUP2 LT PUSH2 0x253F JUMPI PUSH2 0x253E PUSH2 0x6352 JUMP JUMPDEST JUMPDEST ADD SLOAD PUSH1 0x13 SLOAD DUP5 PUSH20 0xFFFFFFFFFFFFFFFFFFFFFFFFFFFFFFFFFFFFFFFF AND PUSH4 0x70A08231 ADDRESS PUSH1 0x40 MLOAD DUP3 PUSH4 0xFFFFFFFF AND PUSH1 0xE0 SHL DUP2 MSTORE PUSH1 0x4 ADD PUSH2 0x257D SWAP2 SWAP1 PUSH2 0x5CA6 JUMP JUMPDEST PUSH1 0x20 PUSH1 0x40 MLOAD DUP1 DUP4 SUB DUP2 DUP7 DUP1 EXTCODESIZE ISZERO DUP1 ISZERO PUSH2 0x2595 JUMPI PUSH1 0x0 DUP1 REVERT JUMPDEST POP GAS STATICCALL ISZERO DUP1 ISZERO PUSH2 0x25A9 JUMPI RETURNDATASIZE PUSH1 0x0 DUP1 RETURNDATACOPY RETURNDATASIZE PUSH1 0x0 REVERT JUMPDEST POP POP POP POP PUSH1 0x40 MLOAD RETURNDATASIZE PUSH1 0x1F NOT PUSH1 0x1F DUP3 ADD AND DUP3 ADD DUP1 PUSH1 0x40 MSTORE POP DUP2 ADD SWAP1 PUSH2 0x25CD SWAP2 SWAP1 PUSH2 0x5970 JUMP JUMPDEST PUSH2 0x25D7 SWAP2 SWAP1 PUSH2 0x61DB JUMP JUMPDEST PUSH2 0x25E1 SWAP2 SWAP1 PUSH2 0x61DB JUMP JUMPDEST SWAP1 POP DUP1 PUSH1 0x31 PUSH1 0x0 DUP5 PUSH20 0xFFFFFFFFFFFFFFFFFFFFFFFFFFFFFFFFFFFFFFFF AND PUSH20 0xFFFFFFFFFFFFFFFFFFFFFFFFFFFFFFFFFFFFFFFF AND DUP2 MSTORE PUSH1 0x20 ADD SWAP1 DUP2 MSTORE PUSH1 0x20 ADD PUSH1 0x0 KECCAK256 PUSH1 0x1 PUSH1 0x2 DUP2 LT PUSH2 0x2636 JUMPI PUSH2 0x2635 PUSH2 0x6352 JUMP JUMPDEST JUMPDEST ADD PUSH1 0x0 DUP3 DUP3 SLOAD PUSH2 0x2646 SWAP2 SWAP1 PUSH2 0x5F89 JUMP JUMPDEST SWAP3 POP POP DUP2 SWAP1 SSTORE POP DUP1 PUSH1 0x2E PUSH1 0x1 PUSH1 0x2 DUP2 LT PUSH2 0x2663 JUMPI PUSH2 0x2662 PUSH2 0x6352 JUMP JUMPDEST JUMPDEST ADD PUSH1 0x0 DUP3 DUP3 SLOAD PUSH2 0x2673 SWAP2 SWAP1 PUSH2 0x5F89 JUMP JUMPDEST SWAP3 POP POP DUP2 SWAP1 SSTORE POP PUSH2 0x27D0 JUMP JUMPDEST PUSH1 0x2E PUSH1 0x0 PUSH1 0x2 DUP2 LT PUSH2 0x2694 JUMPI PUSH2 0x2693 PUSH2 0x6352 JUMP JUMPDEST JUMPDEST ADD SLOAD PUSH1 0x14 SLOAD DUP5 PUSH20 0xFFFFFFFFFFFFFFFFFFFFFFFFFFFFFFFFFFFFFFFF AND PUSH4 0x70A08231 ADDRESS PUSH1 0x40 MLOAD DUP3 PUSH4 0xFFFFFFFF AND PUSH1 0xE0 SHL DUP2 MSTORE PUSH1 0x4 ADD PUSH2 0x26D2 SWAP2 SWAP1 PUSH2 0x5CA6 JUMP JUMPDEST PUSH1 0x20 PUSH1 0x40 MLOAD DUP1 DUP4 SUB DUP2 DUP7 DUP1 EXTCODESIZE ISZERO DUP1 ISZERO PUSH2 0x26EA JUMPI PUSH1 0x0 DUP1 REVERT JUMPDEST POP GAS STATICCALL ISZERO DUP1 ISZERO PUSH2 0x26FE JUMPI RETURNDATASIZE PUSH1 0x0 DUP1 RETURNDATACOPY RETURNDATASIZE PUSH1 0x0 REVERT JUMPDEST POP POP POP POP PUSH1 0x40 MLOAD RETURNDATASIZE PUSH1 0x1F NOT PUSH1 0x1F DUP3 ADD AND DUP3 ADD DUP1 PUSH1 0x40 MSTORE POP DUP2 ADD SWAP1 PUSH2 0x2722 SWAP2 SWAP1 PUSH2 0x5970 JUMP JUMPDEST PUSH2 0x272C SWAP2 SWAP1 PUSH2 0x61DB JUMP JUMPDEST PUSH2 0x2736 SWAP2 SWAP1 PUSH2 0x61DB JUMP JUMPDEST SWAP1 POP DUP1 PUSH1 0x31 PUSH1 0x0 DUP5 PUSH20 0xFFFFFFFFFFFFFFFFFFFFFFFFFFFFFFFFFFFFFFFF AND PUSH20 0xFFFFFFFFFFFFFFFFFFFFFFFFFFFFFFFFFFFFFFFF AND DUP2 MSTORE PUSH1 0x20 ADD SWAP1 DUP2 MSTORE PUSH1 0x20 ADD PUSH1 0x0 KECCAK256 PUSH1 0x0 PUSH1 0x2 DUP2 LT PUSH2 0x278B JUMPI PUSH2 0x278A PUSH2 0x6352 JUMP JUMPDEST JUMPDEST ADD PUSH1 0x0 DUP3 DUP3 SLOAD PUSH2 0x279B SWAP2 SWAP1 PUSH2 0x5F89 JUMP JUMPDEST SWAP3 POP POP DUP2 SWAP1 SSTORE POP DUP1 PUSH1 0x2E PUSH1 0x0 PUSH1 0x2 DUP2 LT PUSH2 0x27B8 JUMPI PUSH2 0x27B7 PUSH2 0x6352 JUMP JUMPDEST JUMPDEST ADD PUSH1 0x0 DUP3 DUP3 SLOAD PUSH2 0x27C8 SWAP2 SWAP1 PUSH2 0x5F89 JUMP JUMPDEST SWAP3 POP POP DUP2 SWAP1 SSTORE POP JUMPDEST POP POP POP JUMP JUMPDEST PUSH1 0x9 SLOAD DUP2 JUMP JUMPDEST PUSH1 0x1 PUSH1 0x2D SLOAD EQ PUSH2 0x2820 JUMPI PUSH1 0x40 MLOAD PUSH32 0x8C379A000000000000000000000000000000000000000000000000000000000 DUP2 MSTORE PUSH1 0x4 ADD PUSH2 0x2817 SWAP1 PUSH2 0x5ECD JUMP JUMPDEST PUSH1 0x40 MLOAD DUP1 SWAP2 SUB SWAP1 REVERT JUMPDEST PUSH1 0x0 PUSH1 0x2D DUP2 SWAP1 SSTORE POP PUSH1 0x0 DUP4 DUP6 PUSH2 0x2836 SWAP2 SWAP1 PUSH2 0x6181 JUMP JUMPDEST EQ DUP1 ISZERO PUSH2 0x284E JUMPI POP PUSH1 0x0 DUP4 DUP6 PUSH2 0x284C SWAP2 SWAP1 PUSH2 0x5F89 JUMP JUMPDEST GT JUMPDEST PUSH2 0x2857 JUMPI PUSH1 0x0 DUP1 REVERT JUMPDEST PUSH2 0x285F PUSH2 0x3B9E JUMP JUMPDEST PUSH2 0x28AF PUSH2 0x286B DUP3 PUSH2 0x39EA JUMP JUMPDEST PUSH1 0x2A SLOAD DUP7 PUSH2 0x2879 SWAP2 SWAP1 PUSH2 0x6181 JUMP JUMPDEST PUSH2 0x2883 SWAP2 SWAP1 PUSH2 0x5F89 JUMP JUMPDEST PUSH2 0x288C DUP4 PUSH2 0x39EA JUMP JUMPDEST PUSH2 0x28A0 DUP7 PUSH1 0x15 SLOAD PUSH1 0xD SLOAD PUSH1 0xE SLOAD PUSH1 0x1 PUSH2 0x4016 JUMP JUMPDEST PUSH2 0x28AA SWAP2 SWAP1 PUSH2 0x5F89 JUMP JUMPDEST PUSH2 0x4DE0 JUMP JUMPDEST PUSH1 0x26 SLOAD PUSH2 0x28BB DUP4 PUSH2 0x38F6 JUMP JUMPDEST PUSH2 0x28C4 DUP5 PUSH2 0x39EA JUMP JUMPDEST PUSH2 0x28CD DUP6 PUSH2 0x3ACF JUMP JUMPDEST PUSH2 0x28D7 SWAP2 SWAP1 PUSH2 0x5F89 JUMP JUMPDEST PUSH2 0x28E1 SWAP2 SWAP1 PUSH2 0x61DB JUMP JUMPDEST PUSH2 0x28EB SWAP2 SWAP1 PUSH2 0x5FDF JUMP JUMPDEST GT PUSH2 0x28F5 JUMPI PUSH1 0x0 DUP1 REVERT JUMPDEST PUSH1 0x0 DUP1 PUSH1 0x1 ISZERO ISZERO DUP5 ISZERO ISZERO EQ ISZERO PUSH2 0x2A61 JUMPI PUSH1 0x0 DUP7 GT ISZERO PUSH2 0x2923 JUMPI PUSH2 0x2919 DUP7 PUSH1 0x1 PUSH2 0x3D0A JUMP JUMPDEST SWAP2 POP DUP6 SWAP1 POP PUSH2 0x2936 JUMP JUMPDEST DUP5 SWAP2 POP PUSH2 0x2933 DUP6 PUSH1 0x0 PUSH1 0x1 PUSH2 0x437E JUMP JUMPDEST SWAP1 POP JUMPDEST PUSH2 0x2945 DUP2 PUSH1 0x19 SLOAD PUSH1 0x17 SLOAD PUSH2 0x4050 JUMP JUMPDEST PUSH1 0x30 PUSH1 0x0 DUP6 PUSH20 0xFFFFFFFFFFFFFFFFFFFFFFFFFFFFFFFFFFFFFFFF AND PUSH20 0xFFFFFFFFFFFFFFFFFFFFFFFFFFFFFFFFFFFFFFFF AND DUP2 MSTORE PUSH1 0x20 ADD SWAP1 DUP2 MSTORE PUSH1 0x20 ADD PUSH1 0x0 KECCAK256 PUSH1 0x0 DUP1 ISZERO ISZERO ISZERO ISZERO DUP2 MSTORE PUSH1 0x20 ADD SWAP1 DUP2 MSTORE PUSH1 0x20 ADD PUSH1 0x0 KECCAK256 PUSH1 0x1 ADD PUSH1 0x0 DUP3 DUP3 SLOAD PUSH2 0x29AB SWAP2 SWAP1 PUSH2 0x5F89 JUMP JUMPDEST SWAP3 POP POP DUP2 SWAP1 SSTORE POP DUP2 PUSH1 0x30 PUSH1 0x0 DUP6 PUSH20 0xFFFFFFFFFFFFFFFFFFFFFFFFFFFFFFFFFFFFFFFF AND PUSH20 0xFFFFFFFFFFFFFFFFFFFFFFFFFFFFFFFFFFFFFFFF AND DUP2 MSTORE PUSH1 0x20 ADD SWAP1 DUP2 MSTORE PUSH1 0x20 ADD PUSH1 0x0 KECCAK256 PUSH1 0x0 PUSH1 0x1 ISZERO ISZERO ISZERO ISZERO DUP2 MSTORE PUSH1 0x20 ADD SWAP1 DUP2 MSTORE PUSH1 0x20 ADD PUSH1 0x0 KECCAK256 PUSH1 0x2 ADD PUSH1 0x0 DUP3 DUP3 SLOAD PUSH2 0x2A1A SWAP2 SWAP1 PUSH2 0x5F89 JUMP JUMPDEST SWAP3 POP POP DUP2 SWAP1 SSTORE POP PUSH1 0x19 SLOAD PUSH2 0x2A33 DUP3 PUSH1 0x19 SLOAD PUSH1 0x17 SLOAD PUSH2 0x4050 JUMP JUMPDEST PUSH2 0x2A3D SWAP2 SWAP1 PUSH2 0x5F89 JUMP JUMPDEST PUSH1 0x19 DUP2 SWAP1 SSTORE POP DUP1 PUSH1 0x17 PUSH1 0x0 DUP3 DUP3 SLOAD PUSH2 0x2A55 SWAP2 SWAP1 PUSH2 0x5F89 JUMP JUMPDEST SWAP3 POP POP DUP2 SWAP1 SSTORE POP PUSH2 0x2BB9 JUMP JUMPDEST PUSH1 0x0 DUP7 GT ISZERO PUSH2 0x2A81 JUMPI DUP6 SWAP2 POP PUSH2 0x2A7A DUP7 PUSH1 0x0 PUSH1 0x1 PUSH2 0x4697 JUMP JUMPDEST SWAP1 POP PUSH2 0x2A92 JUMP JUMPDEST PUSH2 0x2A8C DUP6 PUSH1 0x1 PUSH2 0x4072 JUMP JUMPDEST SWAP2 POP DUP5 SWAP1 POP JUMPDEST PUSH2 0x2AA1 DUP2 PUSH1 0x1A SLOAD PUSH1 0x18 SLOAD PUSH2 0x4050 JUMP JUMPDEST PUSH1 0x30 PUSH1 0x0 DUP6 PUSH20 0xFFFFFFFFFFFFFFFFFFFFFFFFFFFFFFFFFFFFFFFF AND PUSH20 0xFFFFFFFFFFFFFFFFFFFFFFFFFFFFFFFFFFFFFFFF AND DUP2 MSTORE PUSH1 0x20 ADD SWAP1 DUP2 MSTORE PUSH1 0x20 ADD PUSH1 0x0 KECCAK256 PUSH1 0x0 PUSH1 0x1 ISZERO ISZERO ISZERO ISZERO DUP2 MSTORE PUSH1 0x20 ADD SWAP1 DUP2 MSTORE PUSH1 0x20 ADD PUSH1 0x0 KECCAK256 PUSH1 0x1 ADD PUSH1 0x0 DUP3 DUP3 SLOAD PUSH2 0x2B08 SWAP2 SWAP1 PUSH2 0x5F89 JUMP JUMPDEST SWAP3 POP POP DUP2 SWAP1 SSTORE POP DUP2 PUSH1 0x30 PUSH1 0x0 DUP6 PUSH20 0xFFFFFFFFFFFFFFFFFFFFFFFFFFFFFFFFFFFFFFFF AND PUSH20 0xFFFFFFFFFFFFFFFFFFFFFFFFFFFFFFFFFFFFFFFF AND DUP2 MSTORE PUSH1 0x20 ADD SWAP1 DUP2 MSTORE PUSH1 0x20 ADD PUSH1 0x0 KECCAK256 PUSH1 0x0 DUP1 ISZERO ISZERO ISZERO ISZERO DUP2 MSTORE PUSH1 0x20 ADD SWAP1 DUP2 MSTORE PUSH1 0x20 ADD PUSH1 0x0 KECCAK256 PUSH1 0x2 ADD PUSH1 0x0 DUP3 DUP3 SLOAD PUSH2 0x2B76 SWAP2 SWAP1 PUSH2 0x5F89 JUMP JUMPDEST SWAP3 POP POP DUP2 SWAP1 SSTORE POP PUSH1 0x1A SLOAD PUSH2 0x2B8F DUP3 PUSH1 0x1A SLOAD PUSH1 0x18 SLOAD PUSH2 0x4050 JUMP JUMPDEST PUSH2 0x2B99 SWAP2 SWAP1 PUSH2 0x5F89 JUMP JUMPDEST PUSH1 0x1A DUP2 SWAP1 SSTORE POP DUP1 PUSH1 0x18 PUSH1 0x0 DUP3 DUP3 SLOAD PUSH2 0x2BB1 SWAP2 SWAP1 PUSH2 0x5F89 JUMP JUMPDEST SWAP3 POP POP DUP2 SWAP1 SSTORE POP JUMPDEST POP POP PUSH1 0x1 PUSH1 0x2D DUP2 SWAP1 SSTORE POP POP POP POP POP JUMP JUMPDEST PUSH1 0x40 MLOAD DUP1 PUSH1 0x40 ADD PUSH1 0x40 MSTORE DUP1 PUSH1 0x6 DUP2 MSTORE PUSH1 0x20 ADD PUSH32 0x554E492D56320000000000000000000000000000000000000000000000000000 DUP2 MSTORE POP DUP2 JUMP JUMPDEST PUSH1 0x26 SLOAD DUP2 JUMP JUMPDEST PUSH1 0x10 SLOAD DUP2 JUMP JUMPDEST PUSH1 0x0 PUSH2 0x2C1B CALLER DUP5 DUP5 PUSH2 0x3762 JUMP JUMPDEST PUSH1 0x1 SWAP1 POP SWAP3 SWAP2 POP POP JUMP JUMPDEST PUSH1 0x22 SLOAD DUP2 JUMP JUMPDEST PUSH1 0x25 PUSH1 0x0 SWAP1 SLOAD SWAP1 PUSH2 0x100 EXP SWAP1 DIV PUSH20 0xFFFFFFFFFFFFFFFFFFFFFFFFFFFFFFFFFFFFFFFF AND DUP2 JUMP JUMPDEST PUSH1 0x1 PUSH1 0x2D SLOAD EQ PUSH2 0x2C96 JUMPI PUSH1 0x40 MLOAD PUSH32 0x8C379A000000000000000000000000000000000000000000000000000000000 DUP2 MSTORE PUSH1 0x4 ADD PUSH2 0x2C8D SWAP1 PUSH2 0x5ECD JUMP JUMPDEST PUSH1 0x40 MLOAD DUP1 SWAP2 SUB SWAP1 REVERT JUMPDEST PUSH1 0x0 PUSH1 0x2D DUP2 SWAP1 SSTORE POP PUSH2 0x2DAA PUSH1 0x24 PUSH1 0x0 SWAP1 SLOAD SWAP1 PUSH2 0x100 EXP SWAP1 DIV PUSH20 0xFFFFFFFFFFFFFFFFFFFFFFFFFFFFFFFFFFFFFFFF AND DUP3 PUSH2 0x2DA5 PUSH1 0x2E PUSH1 0x0 PUSH1 0x2 DUP2 LT PUSH2 0x2CDD JUMPI PUSH2 0x2CDC PUSH2 0x6352 JUMP JUMPDEST JUMPDEST ADD SLOAD PUSH1 0x14 SLOAD PUSH2 0x2CEC SWAP2 SWAP1 PUSH2 0x5F89 JUMP JUMPDEST PUSH1 0x24 PUSH1 0x0 SWAP1 SLOAD SWAP1 PUSH2 0x100 EXP SWAP1 DIV PUSH20 0xFFFFFFFFFFFFFFFFFFFFFFFFFFFFFFFFFFFFFFFF AND PUSH20 0xFFFFFFFFFFFFFFFFFFFFFFFFFFFFFFFFFFFFFFFF AND PUSH4 0x70A08231 ADDRESS PUSH1 0x40 MLOAD DUP3 PUSH4 0xFFFFFFFF AND PUSH1 0xE0 SHL DUP2 MSTORE PUSH1 0x4 ADD PUSH2 0x2D47 SWAP2 SWAP1 PUSH2 0x5CA6 JUMP JUMPDEST PUSH1 0x20 PUSH1 0x40 MLOAD DUP1 DUP4 SUB DUP2 DUP7 DUP1 EXTCODESIZE ISZERO DUP1 ISZERO PUSH2 0x2D5F JUMPI PUSH1 0x0 DUP1 REVERT JUMPDEST POP GAS STATICCALL ISZERO DUP1 ISZERO PUSH2 0x2D73 JUMPI RETURNDATASIZE PUSH1 0x0 DUP1 RETURNDATACOPY RETURNDATASIZE PUSH1 0x0 REVERT JUMPDEST POP POP POP POP PUSH1 0x40 MLOAD RETURNDATASIZE PUSH1 0x1F NOT PUSH1 0x1F DUP3 ADD AND DUP3 ADD DUP1 PUSH1 0x40 MSTORE POP DUP2 ADD SWAP1 PUSH2 0x2D97 SWAP2 SWAP1 PUSH2 0x5970 JUMP JUMPDEST PUSH2 0x3709 SWAP1 SWAP2 SWAP1 PUSH4 0xFFFFFFFF AND JUMP JUMPDEST PUSH2 0x4C56 JUMP JUMPDEST PUSH2 0x2EB6 PUSH1 0x25 PUSH1 0x0 SWAP1 SLOAD SWAP1 PUSH2 0x100 EXP SWAP1 DIV PUSH20 0xFFFFFFFFFFFFFFFFFFFFFFFFFFFFFFFFFFFFFFFF AND DUP3 PUSH2 0x2EB1 PUSH1 0x2E PUSH1 0x1 PUSH1 0x2 DUP2 LT PUSH2 0x2DE9 JUMPI PUSH2 0x2DE8 PUSH2 0x6352 JUMP JUMPDEST JUMPDEST ADD SLOAD PUSH1 0x13 SLOAD PUSH2 0x2DF8 SWAP2 SWAP1 PUSH2 0x5F89 JUMP JUMPDEST PUSH1 0x25 PUSH1 0x0 SWAP1 SLOAD SWAP1 PUSH2 0x100 EXP SWAP1 DIV PUSH20 0xFFFFFFFFFFFFFFFFFFFFFFFFFFFFFFFFFFFFFFFF AND PUSH20 0xFFFFFFFFFFFFFFFFFFFFFFFFFFFFFFFFFFFFFFFF AND PUSH4 0x70A08231 ADDRESS PUSH1 0x40 MLOAD DUP3 PUSH4 0xFFFFFFFF AND PUSH1 0xE0 SHL DUP2 MSTORE PUSH1 0x4 ADD PUSH2 0x2E53 SWAP2 SWAP1 PUSH2 0x5CA6 JUMP JUMPDEST PUSH1 0x20 PUSH1 0x40 MLOAD DUP1 DUP4 SUB DUP2 DUP7 DUP1 EXTCODESIZE ISZERO DUP1 ISZERO PUSH2 0x2E6B JUMPI PUSH1 0x0 DUP1 REVERT JUMPDEST POP GAS STATICCALL ISZERO DUP1 ISZERO PUSH2 0x2E7F JUMPI RETURNDATASIZE PUSH1 0x0 DUP1 RETURNDATACOPY RETURNDATASIZE PUSH1 0x0 REVERT JUMPDEST POP POP POP POP PUSH1 0x40 MLOAD RETURNDATASIZE PUSH1 0x1F NOT PUSH1 0x1F DUP3 ADD AND DUP3 ADD DUP1 PUSH1 0x40 MSTORE POP DUP2 ADD SWAP1 PUSH2 0x2EA3 SWAP2 SWAP1 PUSH2 0x5970 JUMP JUMPDEST PUSH2 0x3709 SWAP1 SWAP2 SWAP1 PUSH4 0xFFFFFFFF AND JUMP JUMPDEST PUSH2 0x4C56 JUMP JUMPDEST PUSH1 0x1 PUSH1 0x2D DUP2 SWAP1 SSTORE POP POP JUMP JUMPDEST PUSH1 0x1 PUSH1 0x2D SLOAD EQ PUSH2 0x2F06 JUMPI PUSH1 0x40 MLOAD PUSH32 0x8C379A000000000000000000000000000000000000000000000000000000000 DUP2 MSTORE PUSH1 0x4 ADD PUSH2 0x2EFD SWAP1 PUSH2 0x5ECD JUMP JUMPDEST PUSH1 0x40 MLOAD DUP1 SWAP2 SUB SWAP1 REVERT JUMPDEST PUSH1 0x0 PUSH1 0x2D DUP2 SWAP1 SSTORE POP PUSH2 0x2F17 DUP3 PUSH2 0x38F6 JUMP JUMPDEST PUSH2 0x2F20 DUP4 PUSH2 0x39EA JUMP JUMPDEST PUSH2 0x2F29 DUP5 PUSH2 0x3ACF JUMP JUMPDEST PUSH2 0x2F33 SWAP2 SWAP1 PUSH2 0x5F89 JUMP JUMPDEST GT ISZERO DUP1 PUSH2 0x2F83 JUMPI POP PUSH1 0x28 SLOAD PUSH2 0x2F47 DUP4 PUSH2 0x39EA JUMP JUMPDEST PUSH2 0x2F51 SWAP2 SWAP1 PUSH2 0x6181 JUMP JUMPDEST PUSH2 0x2F5A DUP4 PUSH2 0x38F6 JUMP JUMPDEST PUSH2 0x2F63 DUP5 PUSH2 0x39EA JUMP JUMPDEST PUSH2 0x2F6C DUP6 PUSH2 0x3ACF JUMP JUMPDEST PUSH2 0x2F76 SWAP2 SWAP1 PUSH2 0x5F89 JUMP JUMPDEST PUSH2 0x2F80 SWAP2 SWAP1 PUSH2 0x61DB JUMP JUMPDEST GT ISZERO JUMPDEST PUSH2 0x2F8C JUMPI PUSH1 0x0 DUP1 REVERT JUMPDEST PUSH2 0x3019 PUSH1 0x24 PUSH1 0x0 SWAP1 SLOAD SWAP1 PUSH2 0x100 EXP SWAP1 DIV PUSH20 0xFFFFFFFFFFFFFFFFFFFFFFFFFFFFFFFFFFFFFFFF AND DUP3 PUSH1 0x29 SLOAD PUSH1 0x31 PUSH1 0x0 DUP8 PUSH20 0xFFFFFFFFFFFFFFFFFFFFFFFFFFFFFFFFFFFFFFFF AND PUSH20 0xFFFFFFFFFFFFFFFFFFFFFFFFFFFFFFFFFFFFFFFF AND DUP2 MSTORE PUSH1 0x20 ADD SWAP1 DUP2 MSTORE PUSH1 0x20 ADD PUSH1 0x0 KECCAK256 PUSH1 0x0 PUSH1 0x2 DUP2 LT PUSH2 0x3008 JUMPI PUSH2 0x3007 PUSH2 0x6352 JUMP JUMPDEST JUMPDEST ADD SLOAD PUSH2 0x3014 SWAP2 SWAP1 PUSH2 0x6181 JUMP JUMPDEST PUSH2 0x4C56 JUMP JUMPDEST PUSH2 0x30A6 PUSH1 0x25 PUSH1 0x0 SWAP1 SLOAD SWAP1 PUSH2 0x100 EXP SWAP1 DIV PUSH20 0xFFFFFFFFFFFFFFFFFFFFFFFFFFFFFFFFFFFFFFFF AND DUP3 PUSH1 0x29 SLOAD PUSH1 0x31 PUSH1 0x0 DUP8 PUSH20 0xFFFFFFFFFFFFFFFFFFFFFFFFFFFFFFFFFFFFFFFF AND PUSH20 0xFFFFFFFFFFFFFFFFFFFFFFFFFFFFFFFFFFFFFFFF AND DUP2 MSTORE PUSH1 0x20 ADD SWAP1 DUP2 MSTORE PUSH1 0x20 ADD PUSH1 0x0 KECCAK256 PUSH1 0x1 PUSH1 0x2 DUP2 LT PUSH2 0x3095 JUMPI PUSH2 0x3094 PUSH2 0x6352 JUMP JUMPDEST JUMPDEST ADD SLOAD PUSH2 0x30A1 SWAP2 SWAP1 PUSH2 0x6181 JUMP JUMPDEST PUSH2 0x4C56 JUMP JUMPDEST PUSH1 0x31 PUSH1 0x0 DUP4 PUSH20 0xFFFFFFFFFFFFFFFFFFFFFFFFFFFFFFFFFFFFFFFF AND PUSH20 0xFFFFFFFFFFFFFFFFFFFFFFFFFFFFFFFFFFFFFFFF AND DUP2 MSTORE PUSH1 0x20 ADD SWAP1 DUP2 MSTORE PUSH1 0x20 ADD PUSH1 0x0 KECCAK256 PUSH1 0x0 PUSH2 0x30F1 SWAP2 SWAP1 PUSH2 0x5693 JUMP JUMPDEST PUSH1 0x0 PUSH1 0x30 PUSH1 0x0 DUP5 PUSH20 0xFFFFFFFFFFFFFFFFFFFFFFFFFFFFFFFFFFFFFFFF AND PUSH20 0xFFFFFFFFFFFFFFFFFFFFFFFFFFFFFFFFFFFFFFFF AND DUP2 MSTORE PUSH1 0x20 ADD SWAP1 DUP2 MSTORE PUSH1 0x20 ADD PUSH1 0x0 KECCAK256 PUSH1 0x0 DUP1 ISZERO ISZERO ISZERO ISZERO DUP2 MSTORE PUSH1 0x20 ADD SWAP1 DUP2 MSTORE PUSH1 0x20 ADD PUSH1 0x0 KECCAK256 PUSH1 0x1 ADD DUP2 SWAP1 SSTORE POP PUSH1 0x0 PUSH1 0x30 PUSH1 0x0 DUP5 PUSH20 0xFFFFFFFFFFFFFFFFFFFFFFFFFFFFFFFFFFFFFFFF AND PUSH20 0xFFFFFFFFFFFFFFFFFFFFFFFFFFFFFFFFFFFFFFFF AND DUP2 MSTORE PUSH1 0x20 ADD SWAP1 DUP2 MSTORE PUSH1 0x20 ADD PUSH1 0x0 KECCAK256 PUSH1 0x0 PUSH1 0x1 ISZERO ISZERO ISZERO ISZERO DUP2 MSTORE PUSH1 0x20 ADD SWAP1 DUP2 MSTORE PUSH1 0x20 ADD PUSH1 0x0 KECCAK256 PUSH1 0x1 ADD DUP2 SWAP1 SSTORE POP PUSH2 0x3266 PUSH1 0x30 PUSH1 0x0 DUP5 PUSH20 0xFFFFFFFFFFFFFFFFFFFFFFFFFFFFFFFFFFFFFFFF AND PUSH20 0xFFFFFFFFFFFFFFFFFFFFFFFFFFFFFFFFFFFFFFFF AND DUP2 MSTORE PUSH1 0x20 ADD SWAP1 DUP2 MSTORE PUSH1 0x20 ADD PUSH1 0x0 KECCAK256 PUSH1 0x0 DUP1 ISZERO ISZERO ISZERO ISZERO DUP2 MSTORE PUSH1 0x20 ADD SWAP1 DUP2 MSTORE PUSH1 0x20 ADD PUSH1 0x0 KECCAK256 PUSH1 0x2 ADD SLOAD PUSH1 0x30 PUSH1 0x0 DUP6 PUSH20 0xFFFFFFFFFFFFFFFFFFFFFFFFFFFFFFFFFFFFFFFF AND PUSH20 0xFFFFFFFFFFFFFFFFFFFFFFFFFFFFFFFFFFFFFFFF AND DUP2 MSTORE PUSH1 0x20 ADD SWAP1 DUP2 MSTORE PUSH1 0x20 ADD PUSH1 0x0 KECCAK256 PUSH1 0x0 PUSH1 0x1 ISZERO ISZERO ISZERO ISZERO DUP2 MSTORE PUSH1 0x20 ADD SWAP1 DUP2 MSTORE PUSH1 0x20 ADD PUSH1 0x0 KECCAK256 PUSH1 0x2 ADD SLOAD DUP5 PUSH2 0x125D JUMP JUMPDEST PUSH1 0x1 PUSH1 0x2D DUP2 SWAP1 SSTORE POP POP POP JUMP JUMPDEST PUSH1 0x23 PUSH1 0x0 SWAP1 SLOAD SWAP1 PUSH2 0x100 EXP SWAP1 DIV PUSH20 0xFFFFFFFFFFFFFFFFFFFFFFFFFFFFFFFFFFFFFFFF AND DUP2 JUMP JUMPDEST PUSH1 0x1E PUSH1 0x0 SWAP1 SLOAD SWAP1 PUSH2 0x100 EXP SWAP1 DIV PUSH1 0xFF AND DUP2 JUMP JUMPDEST PUSH1 0x21 SLOAD DUP2 JUMP JUMPDEST PUSH1 0x23 PUSH1 0x0 SWAP1 SLOAD SWAP1 PUSH2 0x100 EXP SWAP1 DIV PUSH20 0xFFFFFFFFFFFFFFFFFFFFFFFFFFFFFFFFFFFFFFFF AND PUSH20 0xFFFFFFFFFFFFFFFFFFFFFFFFFFFFFFFFFFFFFFFF AND CALLER PUSH20 0xFFFFFFFFFFFFFFFFFFFFFFFFFFFFFFFFFFFFFFFF AND EQ PUSH2 0x330B JUMPI PUSH1 0x0 DUP1 REVERT JUMPDEST DUP1 PUSH1 0x26 DUP2 SWAP1 SSTORE POP POP JUMP JUMPDEST PUSH1 0x16 SLOAD DUP2 JUMP JUMPDEST TIMESTAMP DUP5 LT ISZERO PUSH2 0x335E JUMPI PUSH1 0x40 MLOAD PUSH32 0x8C379A000000000000000000000000000000000000000000000000000000000 DUP2 MSTORE PUSH1 0x4 ADD PUSH2 0x3355 SWAP1 PUSH2 0x5E8D JUMP JUMPDEST PUSH1 0x40 MLOAD DUP1 SWAP2 SUB SWAP1 REVERT JUMPDEST PUSH1 0x0 PUSH1 0x3 SLOAD PUSH32 0x6E71EDAE12B1B97F4D1F60370FEF10105FA2FAAE0126114A169C64845D6126C9 PUSH1 0x0 SHL DUP10 DUP10 DUP10 PUSH1 0x4 PUSH1 0x0 DUP15 PUSH20 0xFFFFFFFFFFFFFFFFFFFFFFFFFFFFFFFFFFFFFFFF AND PUSH20 0xFFFFFFFFFFFFFFFFFFFFFFFFFFFFFFFFFFFFFFFF AND DUP2 MSTORE PUSH1 0x20 ADD SWAP1 DUP2 MSTORE PUSH1 0x20 ADD PUSH1 0x0 KECCAK256 PUSH1 0x0 DUP2 SLOAD DUP1 SWAP3 SWAP2 SWAP1 PUSH2 0x33DA SWAP1 PUSH2 0x62A1 JUMP JUMPDEST SWAP2 SWAP1 POP SSTORE DUP11 PUSH1 0x40 MLOAD PUSH1 0x20 ADD PUSH2 0x33F4 SWAP7 SWAP6 SWAP5 SWAP4 SWAP3 SWAP2 SWAP1 PUSH2 0x5D65 JUMP JUMPDEST PUSH1 0x40 MLOAD PUSH1 0x20 DUP2 DUP4 SUB SUB DUP2 MSTORE SWAP1 PUSH1 0x40 MSTORE DUP1 MLOAD SWAP1 PUSH1 0x20 ADD KECCAK256 PUSH1 0x40 MLOAD PUSH1 0x20 ADD PUSH2 0x341B SWAP3 SWAP2 SWAP1 PUSH2 0x5C6F JUMP JUMPDEST PUSH1 0x40 MLOAD PUSH1 0x20 DUP2 DUP4 SUB SUB DUP2 MSTORE SWAP1 PUSH1 0x40 MSTORE DUP1 MLOAD SWAP1 PUSH1 0x20 ADD KECCAK256 SWAP1 POP PUSH1 0x0 PUSH1 0x1 DUP3 DUP7 DUP7 DUP7 PUSH1 0x40 MLOAD PUSH1 0x0 DUP2 MSTORE PUSH1 0x20 ADD PUSH1 0x40 MSTORE PUSH1 0x40 MLOAD PUSH2 0x3458 SWAP5 SWAP4 SWAP3 SWAP2 SWAP1 PUSH2 0x5DC6 JUMP JUMPDEST PUSH1 0x20 PUSH1 0x40 MLOAD PUSH1 0x20 DUP2 SUB SWAP1 DUP1 DUP5 SUB SWAP1 DUP6 GAS STATICCALL ISZERO DUP1 ISZERO PUSH2 0x347A JUMPI RETURNDATASIZE PUSH1 0x0 DUP1 RETURNDATACOPY RETURNDATASIZE PUSH1 0x0 REVERT JUMPDEST POP POP POP PUSH1 0x20 PUSH1 0x40 MLOAD SUB MLOAD SWAP1 POP PUSH1 0x0 PUSH20 0xFFFFFFFFFFFFFFFFFFFFFFFFFFFFFFFFFFFFFFFF AND DUP2 PUSH20 0xFFFFFFFFFFFFFFFFFFFFFFFFFFFFFFFFFFFFFFFF AND EQ ISZERO DUP1 ISZERO PUSH2 0x34EE JUMPI POP DUP9 PUSH20 0xFFFFFFFFFFFFFFFFFFFFFFFFFFFFFFFFFFFFFFFF AND DUP2 PUSH20 0xFFFFFFFFFFFFFFFFFFFFFFFFFFFFFFFFFFFFFFFF AND EQ JUMPDEST PUSH2 0x352D JUMPI PUSH1 0x40 MLOAD PUSH32 0x8C379A000000000000000000000000000000000000000000000000000000000 DUP2 MSTORE PUSH1 0x4 ADD PUSH2 0x3524 SWAP1 PUSH2 0x5E4D JUMP JUMPDEST PUSH1 0x40 MLOAD DUP1 SWAP2 SUB SWAP1 REVERT JUMPDEST PUSH2 0x3538 DUP10 DUP10 DUP10 PUSH2 0x361E JUMP JUMPDEST POP POP POP POP POP POP POP POP POP JUMP JUMPDEST PUSH1 0x2 PUSH1 0x20 MSTORE DUP2 PUSH1 0x0 MSTORE PUSH1 0x40 PUSH1 0x0 KECCAK256 PUSH1 0x20 MSTORE DUP1 PUSH1 0x0 MSTORE PUSH1 0x40 PUSH1 0x0 KECCAK256 PUSH1 0x0 SWAP2 POP SWAP2 POP POP SLOAD DUP2 JUMP JUMPDEST PUSH1 0x2C SLOAD DUP2 JUMP JUMPDEST PUSH1 0xF SLOAD DUP2 JUMP JUMPDEST PUSH1 0x1F SLOAD DUP2 JUMP JUMPDEST PUSH1 0x11 SLOAD DUP2 JUMP JUMPDEST PUSH1 0x29 SLOAD DUP2 JUMP JUMPDEST PUSH1 0x8 SLOAD DUP2 JUMP JUMPDEST PUSH1 0x31 PUSH1 0x20 MSTORE DUP2 PUSH1 0x0 MSTORE PUSH1 0x40 PUSH1 0x0 KECCAK256 DUP2 PUSH1 0x2 DUP2 LT PUSH2 0x35A8 JUMPI PUSH1 0x0 DUP1 REVERT JUMPDEST ADD PUSH1 0x0 SWAP2 POP SWAP2 POP POP SLOAD DUP2 JUMP JUMPDEST PUSH1 0xD SLOAD DUP2 JUMP JUMPDEST PUSH1 0x23 PUSH1 0x0 SWAP1 SLOAD SWAP1 PUSH2 0x100 EXP SWAP1 DIV PUSH20 0xFFFFFFFFFFFFFFFFFFFFFFFFFFFFFFFFFFFFFFFF AND PUSH20 0xFFFFFFFFFFFFFFFFFFFFFFFFFFFFFFFFFFFFFFFF AND CALLER PUSH20 0xFFFFFFFFFFFFFFFFFFFFFFFFFFFFFFFFFFFFFFFF AND EQ PUSH2 0x3614 JUMPI PUSH1 0x0 DUP1 REVERT JUMPDEST DUP1 PUSH1 0x28 DUP2 SWAP1 SSTORE POP POP JUMP JUMPDEST DUP1 PUSH1 0x2 PUSH1 0x0 DUP6 PUSH20 0xFFFFFFFFFFFFFFFFFFFFFFFFFFFFFFFFFFFFFFFF AND PUSH20 0xFFFFFFFFFFFFFFFFFFFFFFFFFFFFFFFFFFFFFFFF AND DUP2 MSTORE PUSH1 0x20 ADD SWAP1 DUP2 MSTORE PUSH1 0x20 ADD PUSH1 0x0 KECCAK256 PUSH1 0x0 DUP5 PUSH20 0xFFFFFFFFFFFFFFFFFFFFFFFFFFFFFFFFFFFFFFFF AND PUSH20 0xFFFFFFFFFFFFFFFFFFFFFFFFFFFFFFFFFFFFFFFF AND DUP2 MSTORE PUSH1 0x20 ADD SWAP1 DUP2 MSTORE PUSH1 0x20 ADD PUSH1 0x0 KECCAK256 DUP2 SWAP1 SSTORE POP DUP2 PUSH20 0xFFFFFFFFFFFFFFFFFFFFFFFFFFFFFFFFFFFFFFFF AND DUP4 PUSH20 0xFFFFFFFFFFFFFFFFFFFFFFFFFFFFFFFFFFFFFFFF AND PUSH32 0x8C5BE1E5EBEC7D5BD14F71427D1E84F3DD0314C0F7B2291E5B200AC8C7C3B925 DUP4 PUSH1 0x40 MLOAD PUSH2 0x36FC SWAP2 SWAP1 PUSH2 0x5EED JUMP JUMPDEST PUSH1 0x40 MLOAD DUP1 SWAP2 SUB SWAP1 LOG3 POP POP POP JUMP JUMPDEST PUSH1 0x0 DUP3 DUP3 DUP5 PUSH2 0x3718 SWAP2 SWAP1 PUSH2 0x61DB JUMP JUMPDEST SWAP2 POP DUP2 GT ISZERO PUSH2 0x375C JUMPI PUSH1 0x40 MLOAD PUSH32 0x8C379A000000000000000000000000000000000000000000000000000000000 DUP2 MSTORE PUSH1 0x4 ADD PUSH2 0x3753 SWAP1 PUSH2 0x5E2D JUMP JUMPDEST PUSH1 0x40 MLOAD DUP1 SWAP2 SUB SWAP1 REVERT JUMPDEST SWAP3 SWAP2 POP POP JUMP JUMPDEST PUSH2 0x37B4 DUP2 PUSH1 0x1 PUSH1 0x0 DUP7 PUSH20 0xFFFFFFFFFFFFFFFFFFFFFFFFFFFFFFFFFFFFFFFF AND PUSH20 0xFFFFFFFFFFFFFFFFFFFFFFFFFFFFFFFFFFFFFFFF AND DUP2 MSTORE PUSH1 0x20 ADD SWAP1 DUP2 MSTORE PUSH1 0x20 ADD PUSH1 0x0 KECCAK256 SLOAD PUSH2 0x3709 SWAP1 SWAP2 SWAP1 PUSH4 0xFFFFFFFF AND JUMP JUMPDEST PUSH1 0x1 PUSH1 0x0 DUP6 PUSH20 0xFFFFFFFFFFFFFFFFFFFFFFFFFFFFFFFFFFFFFFFF AND PUSH20 0xFFFFFFFFFFFFFFFFFFFFFFFFFFFFFFFFFFFFFFFF AND DUP2 MSTORE PUSH1 0x20 ADD SWAP1 DUP2 MSTORE PUSH1 0x20 ADD PUSH1 0x0 KECCAK256 DUP2 SWAP1 SSTORE POP PUSH2 0x3849 DUP2 PUSH1 0x1 PUSH1 0x0 DUP6 PUSH20 0xFFFFFFFFFFFFFFFFFFFFFFFFFFFFFFFFFFFFFFFF AND PUSH20 0xFFFFFFFFFFFFFFFFFFFFFFFFFFFFFFFFFFFFFFFF AND DUP2 MSTORE PUSH1 0x20 ADD SWAP1 DUP2 MSTORE PUSH1 0x20 ADD PUSH1 0x0 KECCAK256 SLOAD PUSH2 0x4DF9 SWAP1 SWAP2 SWAP1 PUSH4 0xFFFFFFFF AND JUMP JUMPDEST PUSH1 0x1 PUSH1 0x0 DUP5 PUSH20 0xFFFFFFFFFFFFFFFFFFFFFFFFFFFFFFFFFFFFFFFF AND PUSH20 0xFFFFFFFFFFFFFFFFFFFFFFFFFFFFFFFFFFFFFFFF AND DUP2 MSTORE PUSH1 0x20 ADD SWAP1 DUP2 MSTORE PUSH1 0x20 ADD PUSH1 0x0 KECCAK256 DUP2 SWAP1 SSTORE POP DUP2 PUSH20 0xFFFFFFFFFFFFFFFFFFFFFFFFFFFFFFFFFFFFFFFF AND DUP4 PUSH20 0xFFFFFFFFFFFFFFFFFFFFFFFFFFFFFFFFFFFFFFFF AND PUSH32 0xDDF252AD1BE2C89B69C2B068FC378DAA952BA7F163C4A11628F55A4DF523B3EF DUP4 PUSH1 0x40 MLOAD PUSH2 0x38E9 SWAP2 SWAP1 PUSH2 0x5EED JUMP JUMPDEST PUSH1 0x40 MLOAD DUP1 SWAP2 SUB SWAP1 LOG3 POP POP POP JUMP JUMPDEST PUSH1 0x0 PUSH2 0x3972 PUSH2 0x3967 PUSH1 0x30 PUSH1 0x0 DUP6 PUSH20 0xFFFFFFFFFFFFFFFFFFFFFFFFFFFFFFFFFFFFFFFF AND PUSH20 0xFFFFFFFFFFFFFFFFFFFFFFFFFFFFFFFFFFFFFFFF AND DUP2 MSTORE PUSH1 0x20 ADD SWAP1 DUP2 MSTORE PUSH1 0x20 ADD PUSH1 0x0 KECCAK256 PUSH1 0x0 DUP1 ISZERO ISZERO ISZERO ISZERO DUP2 MSTORE PUSH1 0x20 ADD SWAP1 DUP2 MSTORE PUSH1 0x20 ADD PUSH1 0x0 KECCAK256 PUSH1 0x1 ADD SLOAD PUSH1 0x17 SLOAD PUSH1 0x15 SLOAD PUSH1 0x19 SLOAD PUSH1 0x2A SLOAD PUSH2 0x4016 JUMP JUMPDEST PUSH1 0xD SLOAD PUSH1 0xE SLOAD PUSH2 0x4050 JUMP JUMPDEST PUSH2 0x39D9 PUSH1 0x30 PUSH1 0x0 DUP6 PUSH20 0xFFFFFFFFFFFFFFFFFFFFFFFFFFFFFFFFFFFFFFFF AND PUSH20 0xFFFFFFFFFFFFFFFFFFFFFFFFFFFFFFFFFFFFFFFF AND DUP2 MSTORE PUSH1 0x20 ADD SWAP1 DUP2 MSTORE PUSH1 0x20 ADD PUSH1 0x0 KECCAK256 PUSH1 0x0 PUSH1 0x1 ISZERO ISZERO ISZERO ISZERO DUP2 MSTORE PUSH1 0x20 ADD SWAP1 DUP2 MSTORE PUSH1 0x20 ADD PUSH1 0x0 KECCAK256 PUSH1 0x1 ADD SLOAD PUSH1 0x18 SLOAD PUSH1 0x1A SLOAD PUSH2 0x4050 JUMP JUMPDEST PUSH2 0x39E3 SWAP2 SWAP1 PUSH2 0x5F89 JUMP JUMPDEST SWAP1 POP SWAP2 SWAP1 POP JUMP JUMPDEST PUSH1 0x0 PUSH2 0x3A59 PUSH1 0x30 PUSH1 0x0 DUP5 PUSH20 0xFFFFFFFFFFFFFFFFFFFFFFFFFFFFFFFFFFFFFFFF AND PUSH20 0xFFFFFFFFFFFFFFFFFFFFFFFFFFFFFFFFFFFFFFFF AND DUP2 MSTORE PUSH1 0x20 ADD SWAP1 DUP2 MSTORE PUSH1 0x20 ADD PUSH1 0x0 KECCAK256 PUSH1 0x0 PUSH1 0x1 ISZERO ISZERO ISZERO ISZERO DUP2 MSTORE PUSH1 0x20 ADD SWAP1 DUP2 MSTORE PUSH1 0x20 ADD PUSH1 0x0 KECCAK256 PUSH1 0x2 ADD SLOAD PUSH1 0x15 SLOAD PUSH1 0xD SLOAD PUSH1 0xE SLOAD PUSH1 0x2A SLOAD PUSH2 0x4016 JUMP JUMPDEST PUSH1 0x2A SLOAD PUSH1 0x30 PUSH1 0x0 DUP6 PUSH20 0xFFFFFFFFFFFFFFFFFFFFFFFFFFFFFFFFFFFFFFFF AND PUSH20 0xFFFFFFFFFFFFFFFFFFFFFFFFFFFFFFFFFFFFFFFF AND DUP2 MSTORE PUSH1 0x20 ADD SWAP1 DUP2 MSTORE PUSH1 0x20 ADD PUSH1 0x0 KECCAK256 PUSH1 0x0 DUP1 ISZERO ISZERO ISZERO ISZERO DUP2 MSTORE PUSH1 0x20 ADD SWAP1 DUP2 MSTORE PUSH1 0x20 ADD PUSH1 0x0 KECCAK256 PUSH1 0x2 ADD SLOAD PUSH2 0x3ABE SWAP2 SWAP1 PUSH2 0x6181 JUMP JUMPDEST PUSH2 0x3AC8 SWAP2 SWAP1 PUSH2 0x5F89 JUMP JUMPDEST SWAP1 POP SWAP2 SWAP1 POP JUMP JUMPDEST PUSH1 0x0 PUSH2 0x3B39 PUSH1 0x31 PUSH1 0x0 DUP5 PUSH20 0xFFFFFFFFFFFFFFFFFFFFFFFFFFFFFFFFFFFFFFFF AND PUSH20 0xFFFFFFFFFFFFFFFFFFFFFFFFFFFFFFFFFFFFFFFF AND DUP2 MSTORE PUSH1 0x20 ADD SWAP1 DUP2 MSTORE PUSH1 0x20 ADD PUSH1 0x0 KECCAK256 PUSH1 0x1 PUSH1 0x2 DUP2 LT PUSH2 0x3B26 JUMPI PUSH2 0x3B25 PUSH2 0x6352 JUMP JUMPDEST JUMPDEST ADD SLOAD PUSH1 0x15 SLOAD PUSH1 0xD SLOAD PUSH1 0xE SLOAD PUSH1 0x2A SLOAD PUSH2 0x4016 JUMP JUMPDEST PUSH1 0x31 PUSH1 0x0 DUP5 PUSH20 0xFFFFFFFFFFFFFFFFFFFFFFFFFFFFFFFFFFFFFFFF AND PUSH20 0xFFFFFFFFFFFFFFFFFFFFFFFFFFFFFFFFFFFFFFFF AND DUP2 MSTORE PUSH1 0x20 ADD SWAP1 DUP2 MSTORE PUSH1 0x20 ADD PUSH1 0x0 KECCAK256 PUSH1 0x0 PUSH1 0x2 DUP2 LT PUSH2 0x3B8B JUMPI PUSH2 0x3B8A PUSH2 0x6352 JUMP JUMPDEST JUMPDEST ADD SLOAD PUSH2 0x3B97 SWAP2 SWAP1 PUSH2 0x5F89 JUMP JUMPDEST SWAP1 POP SWAP2 SWAP1 POP JUMP JUMPDEST PUSH1 0x0 DUP1 PUSH2 0x3BC4 PUSH1 0x14 SLOAD PUSH1 0x13 SLOAD PUSH1 0xE SLOAD PUSH1 0xD SLOAD PUSH1 0xB SLOAD PUSH1 0xC SLOAD PUSH1 0x5 SLOAD PUSH1 0x6 SLOAD PUSH1 0x7 SLOAD PUSH2 0x4E52 JUMP JUMPDEST SWAP2 POP SWAP2 POP PUSH1 0x0 DUP1 PUSH2 0x3BE7 DUP5 DUP5 PUSH1 0x10 SLOAD PUSH1 0xF SLOAD PUSH1 0x20 SLOAD PUSH1 0x1F SLOAD PUSH1 0x14 SLOAD PUSH1 0x13 SLOAD PUSH2 0x4EEE JUMP JUMPDEST SWAP2 POP SWAP2 POP PUSH1 0x0 PUSH1 0x1D SLOAD NUMBER PUSH2 0x3BFB SWAP2 SWAP1 PUSH2 0x61DB JUMP JUMPDEST SWAP1 POP NUMBER PUSH1 0x1D DUP2 SWAP1 SSTORE POP PUSH1 0x0 PUSH2 0x3C17 PUSH1 0x15 SLOAD PUSH1 0xD SLOAD PUSH1 0xE SLOAD PUSH2 0x4050 JUMP JUMPDEST SWAP1 POP PUSH1 0x0 ISZERO ISZERO PUSH1 0x1E PUSH1 0x0 SWAP1 SLOAD SWAP1 PUSH2 0x100 EXP SWAP1 DIV PUSH1 0xFF AND ISZERO ISZERO EQ ISZERO PUSH2 0x3C94 JUMPI PUSH2 0x3C49 PUSH1 0x17 SLOAD PUSH1 0x1C SLOAD DUP5 PUSH1 0x2A SLOAD PUSH1 0x1 PUSH2 0x4016 JUMP JUMPDEST PUSH1 0x17 SLOAD PUSH2 0x3C56 SWAP2 SWAP1 PUSH2 0x5F89 JUMP JUMPDEST PUSH1 0x17 DUP2 SWAP1 SSTORE POP DUP2 PUSH2 0x3C72 PUSH1 0x1C SLOAD PUSH1 0x17 SLOAD DUP5 PUSH1 0x2A SLOAD PUSH1 0x2A SLOAD PUSH2 0x4016 JUMP JUMPDEST PUSH2 0x3C7C SWAP2 SWAP1 PUSH2 0x6181 JUMP JUMPDEST PUSH1 0x18 SLOAD PUSH2 0x3C89 SWAP2 SWAP1 PUSH2 0x61DB JUMP JUMPDEST PUSH1 0x18 DUP2 SWAP1 SSTORE POP PUSH2 0x3CE1 JUMP JUMPDEST PUSH2 0x3CA8 PUSH1 0x18 SLOAD PUSH1 0x1C SLOAD DUP5 PUSH1 0x2A SLOAD PUSH1 0x1 PUSH2 0x4016 JUMP JUMPDEST PUSH1 0x18 SLOAD PUSH2 0x3CB5 SWAP2 SWAP1 PUSH2 0x5F89 JUMP JUMPDEST PUSH1 0x18 DUP2 SWAP1 SSTORE POP PUSH2 0x3CCD PUSH1 0x1C SLOAD PUSH1 0x18 SLOAD DUP5 DUP5 PUSH1 0x1 PUSH2 0x4016 JUMP JUMPDEST PUSH1 0x17 SLOAD PUSH2 0x3CDA SWAP2 SWAP1 PUSH2 0x61DB JUMP JUMPDEST PUSH1 0x17 DUP2 SWAP1 SSTORE POP JUMPDEST DUP4 PUSH1 0x1C DUP2 SWAP1 SSTORE POP DUP3 PUSH1 0x1E PUSH1 0x0 PUSH2 0x100 EXP DUP2 SLOAD DUP2 PUSH1 0xFF MUL NOT AND SWAP1 DUP4 ISZERO ISZERO MUL OR SWAP1 SSTORE POP POP POP POP POP POP POP JUMP JUMPDEST PUSH1 0x0 PUSH1 0x1 PUSH1 0x2D SLOAD EQ PUSH2 0x3D51 JUMPI PUSH1 0x40 MLOAD PUSH32 0x8C379A000000000000000000000000000000000000000000000000000000000 DUP2 MSTORE PUSH1 0x4 ADD PUSH2 0x3D48 SWAP1 PUSH2 0x5ECD JUMP JUMPDEST PUSH1 0x40 MLOAD DUP1 SWAP2 SUB SWAP1 REVERT JUMPDEST PUSH1 0x0 PUSH1 0x2D DUP2 SWAP1 SSTORE POP PUSH1 0x0 PUSH1 0x1 SWAP1 POP JUMPDEST PUSH1 0x1 ISZERO ISZERO DUP2 ISZERO ISZERO EQ ISZERO PUSH2 0x4007 JUMPI PUSH1 0x0 PUSH2 0x3D80 PUSH1 0x9 SLOAD PUSH1 0x16 SLOAD PUSH1 0x2A SLOAD PUSH2 0x4050 JUMP JUMPDEST SWAP1 POP PUSH1 0x0 PUSH2 0x3D96 PUSH1 0x5 SLOAD PUSH1 0x6 SLOAD PUSH1 0x7 SLOAD DUP6 PUSH2 0x4F98 JUMP JUMPDEST SWAP1 POP PUSH2 0x3DA7 DUP3 PUSH1 0xB SLOAD PUSH1 0xE SLOAD PUSH2 0x5098 JUMP JUMPDEST DUP7 GT ISZERO PUSH2 0x3F1C JUMPI PUSH2 0x3DBD PUSH1 0xC SLOAD DUP3 PUSH1 0xD SLOAD PUSH2 0x5098 JUMP JUMPDEST DUP5 PUSH2 0x3DC8 SWAP2 SWAP1 PUSH2 0x5F89 JUMP JUMPDEST SWAP4 POP PUSH2 0x3DD9 DUP3 PUSH1 0xB SLOAD PUSH1 0xE SLOAD PUSH2 0x5098 JUMP JUMPDEST DUP7 PUSH2 0x3DE4 SWAP2 SWAP1 PUSH2 0x61DB JUMP JUMPDEST SWAP6 POP PUSH1 0x1 ISZERO ISZERO DUP6 ISZERO ISZERO EQ ISZERO PUSH2 0x3E1F JUMPI PUSH2 0x3E02 PUSH1 0xC SLOAD DUP3 PUSH1 0xD SLOAD PUSH2 0x5098 JUMP JUMPDEST PUSH1 0xF PUSH1 0x0 DUP3 DUP3 SLOAD PUSH2 0x3E13 SWAP2 SWAP1 PUSH2 0x5F89 JUMP JUMPDEST SWAP3 POP POP DUP2 SWAP1 SSTORE POP PUSH2 0x3E6E JUMP JUMPDEST PUSH2 0x3E2E DUP3 PUSH1 0xB SLOAD PUSH1 0xE SLOAD PUSH2 0x5098 JUMP JUMPDEST PUSH1 0x14 PUSH1 0x0 DUP3 DUP3 SLOAD PUSH2 0x3E3F SWAP2 SWAP1 PUSH2 0x5F89 JUMP JUMPDEST SWAP3 POP POP DUP2 SWAP1 SSTORE POP PUSH2 0x3E55 PUSH1 0xC SLOAD DUP3 PUSH1 0xD SLOAD PUSH2 0x5098 JUMP JUMPDEST PUSH1 0x13 PUSH1 0x0 DUP3 DUP3 SLOAD PUSH2 0x3E66 SWAP2 SWAP1 PUSH2 0x61DB JUMP JUMPDEST SWAP3 POP POP DUP2 SWAP1 SSTORE POP JUMPDEST PUSH2 0x3E7D PUSH1 0xD SLOAD PUSH1 0xA SLOAD DUP4 PUSH2 0x4050 JUMP JUMPDEST PUSH1 0xD DUP2 SWAP1 SSTORE POP PUSH2 0x3E92 PUSH1 0xE SLOAD PUSH1 0x9 SLOAD DUP5 PUSH2 0x4050 JUMP JUMPDEST PUSH1 0xE DUP2 SWAP1 SSTORE POP PUSH2 0x3EBB PUSH2 0x3EAE PUSH1 0x5 SLOAD PUSH1 0x6 SLOAD PUSH1 0x7 SLOAD DUP7 DUP7 PUSH2 0x50CD JUMP JUMPDEST DUP3 PUSH1 0x9 SLOAD DUP6 PUSH1 0xA SLOAD PUSH2 0x4016 JUMP JUMPDEST PUSH1 0x15 DUP2 SWAP1 SSTORE POP PUSH2 0x3ED5 PUSH1 0x9 SLOAD PUSH1 0xA SLOAD PUSH1 0x7 SLOAD PUSH1 0x15 SLOAD PUSH2 0x51C1 JUMP JUMPDEST PUSH1 0x5 DUP2 SWAP1 SSTORE POP PUSH1 0x5 SLOAD PUSH1 0x2A SLOAD PUSH1 0x2 PUSH2 0x3EED SWAP2 SWAP1 PUSH2 0x6181 JUMP JUMPDEST PUSH2 0x3EF7 SWAP2 SWAP1 PUSH2 0x61DB JUMP JUMPDEST PUSH1 0x6 DUP2 SWAP1 SSTORE POP PUSH2 0x3F05 PUSH2 0x4ACA JUMP JUMPDEST PUSH1 0x9 SLOAD PUSH1 0xB DUP2 SWAP1 SSTORE POP PUSH1 0xA SLOAD PUSH1 0xC DUP2 SWAP1 SSTORE POP PUSH2 0x4000 JUMP JUMPDEST PUSH1 0x0 PUSH1 0xC SLOAD SWAP1 POP PUSH2 0x3F32 DUP8 PUSH1 0xE SLOAD PUSH1 0x2A SLOAD PUSH2 0x4050 JUMP JUMPDEST PUSH1 0xB PUSH1 0x0 DUP3 DUP3 SLOAD PUSH2 0x3F43 SWAP2 SWAP1 PUSH2 0x5F89 JUMP JUMPDEST SWAP3 POP POP DUP2 SWAP1 SSTORE POP PUSH2 0x3F5E PUSH1 0x5 SLOAD PUSH1 0x6 SLOAD PUSH1 0x7 SLOAD PUSH1 0xB SLOAD PUSH2 0x4F98 JUMP JUMPDEST PUSH1 0xC DUP2 SWAP1 SSTORE POP PUSH2 0x3F73 DUP2 PUSH1 0xC SLOAD PUSH1 0xD SLOAD PUSH2 0x5098 JUMP JUMPDEST DUP6 PUSH2 0x3F7E SWAP2 SWAP1 PUSH2 0x5F89 JUMP JUMPDEST SWAP5 POP PUSH1 0x1 ISZERO ISZERO DUP7 ISZERO ISZERO EQ ISZERO PUSH2 0x3FB9 JUMPI PUSH2 0x3F9C DUP2 PUSH1 0xC SLOAD PUSH1 0xD SLOAD PUSH2 0x5098 JUMP JUMPDEST PUSH1 0xF PUSH1 0x0 DUP3 DUP3 SLOAD PUSH2 0x3FAD SWAP2 SWAP1 PUSH2 0x5F89 JUMP JUMPDEST SWAP3 POP POP DUP2 SWAP1 SSTORE POP PUSH2 0x3FFA JUMP JUMPDEST DUP7 PUSH1 0x14 PUSH1 0x0 DUP3 DUP3 SLOAD PUSH2 0x3FCB SWAP2 SWAP1 PUSH2 0x5F89 JUMP JUMPDEST SWAP3 POP POP DUP2 SWAP1 SSTORE POP PUSH2 0x3FE1 DUP2 PUSH1 0xC SLOAD PUSH1 0xD SLOAD PUSH2 0x5098 JUMP JUMPDEST PUSH1 0x13 PUSH1 0x0 DUP3 DUP3 SLOAD PUSH2 0x3FF2 SWAP2 SWAP1 PUSH2 0x61DB JUMP JUMPDEST SWAP3 POP POP DUP2 SWAP1 SSTORE POP JUMPDEST PUSH1 0x0 SWAP4 POP POP JUMPDEST POP POP PUSH2 0x3D60 JUMP JUMPDEST POP PUSH1 0x1 PUSH1 0x2D DUP2 SWAP1 SSTORE POP SWAP3 SWAP2 POP POP JUMP JUMPDEST PUSH1 0x0 DUP2 DUP4 DUP6 DUP8 DUP10 PUSH2 0x4027 SWAP2 SWAP1 PUSH2 0x6181 JUMP JUMPDEST PUSH2 0x4031 SWAP2 SWAP1 PUSH2 0x6181 JUMP JUMPDEST PUSH2 0x403B SWAP2 SWAP1 PUSH2 0x5FDF JUMP JUMPDEST PUSH2 0x4045 SWAP2 SWAP1 PUSH2 0x5FDF JUMP JUMPDEST SWAP1 POP SWAP6 SWAP5 POP POP POP POP POP JUMP JUMPDEST PUSH1 0x0 DUP2 DUP4 DUP6 PUSH2 0x405F SWAP2 SWAP1 PUSH2 0x6181 JUMP JUMPDEST PUSH2 0x4069 SWAP2 SWAP1 PUSH2 0x5FDF JUMP JUMPDEST SWAP1 POP SWAP4 SWAP3 POP POP POP JUMP JUMPDEST PUSH1 0x0 PUSH1 0x1 PUSH1 0x2D SLOAD EQ PUSH2 0x40B9 JUMPI PUSH1 0x40 MLOAD PUSH32 0x8C379A000000000000000000000000000000000000000000000000000000000 DUP2 MSTORE PUSH1 0x4 ADD PUSH2 0x40B0 SWAP1 PUSH2 0x5ECD JUMP JUMPDEST PUSH1 0x40 MLOAD DUP1 SWAP2 SUB SWAP1 REVERT JUMPDEST PUSH1 0x0 PUSH1 0x2D DUP2 SWAP1 SSTORE POP PUSH1 0x0 PUSH1 0x1 SWAP1 POP JUMPDEST PUSH1 0x1 ISZERO ISZERO DUP2 ISZERO ISZERO EQ ISZERO PUSH2 0x436F JUMPI PUSH1 0x0 PUSH2 0x40E8 PUSH1 0xA SLOAD PUSH1 0x16 SLOAD PUSH1 0x2A SLOAD PUSH2 0x4050 JUMP JUMPDEST SWAP1 POP PUSH1 0x0 PUSH2 0x40FE PUSH1 0x5 SLOAD PUSH1 0x6 SLOAD PUSH1 0x7 SLOAD DUP6 PUSH2 0x52FB JUMP JUMPDEST SWAP1 POP PUSH2 0x410F DUP3 PUSH1 0xC SLOAD PUSH1 0xD SLOAD PUSH2 0x5098 JUMP JUMPDEST DUP7 GT ISZERO PUSH2 0x4284 JUMPI PUSH2 0x4125 PUSH1 0xB SLOAD DUP3 PUSH1 0xE SLOAD PUSH2 0x5098 JUMP JUMPDEST DUP5 PUSH2 0x4130 SWAP2 SWAP1 PUSH2 0x5F89 JUMP JUMPDEST SWAP4 POP PUSH2 0x4141 DUP3 PUSH1 0xC SLOAD PUSH1 0xD SLOAD PUSH2 0x5098 JUMP JUMPDEST DUP7 PUSH2 0x414C SWAP2 SWAP1 PUSH2 0x61DB JUMP JUMPDEST SWAP6 POP PUSH1 0x1 ISZERO ISZERO DUP6 ISZERO ISZERO EQ ISZERO PUSH2 0x4187 JUMPI PUSH2 0x416A PUSH1 0xB SLOAD DUP3 PUSH1 0xE SLOAD PUSH2 0x5098 JUMP JUMPDEST PUSH1 0x10 PUSH1 0x0 DUP3 DUP3 SLOAD PUSH2 0x417B SWAP2 SWAP1 PUSH2 0x5F89 JUMP JUMPDEST SWAP3 POP POP DUP2 SWAP1 SSTORE POP PUSH2 0x41D6 JUMP JUMPDEST PUSH2 0x4196 PUSH1 0xB SLOAD DUP3 PUSH1 0xE SLOAD PUSH2 0x5098 JUMP JUMPDEST PUSH1 0x14 PUSH1 0x0 DUP3 DUP3 SLOAD PUSH2 0x41A7 SWAP2 SWAP1 PUSH2 0x61DB JUMP JUMPDEST SWAP3 POP POP DUP2 SWAP1 SSTORE POP PUSH2 0x41BD DUP3 PUSH1 0xC SLOAD PUSH1 0xD SLOAD PUSH2 0x5098 JUMP JUMPDEST PUSH1 0x13 PUSH1 0x0 DUP3 DUP3 SLOAD PUSH2 0x41CE SWAP2 SWAP1 PUSH2 0x5F89 JUMP JUMPDEST SWAP3 POP POP DUP2 SWAP1 SSTORE POP JUMPDEST PUSH2 0x41E5 PUSH1 0xD SLOAD PUSH1 0xA SLOAD DUP5 PUSH2 0x4050 JUMP JUMPDEST PUSH1 0xD DUP2 SWAP1 SSTORE POP PUSH2 0x41FA PUSH1 0xE SLOAD PUSH1 0x9 SLOAD DUP4 PUSH2 0x4050 JUMP JUMPDEST PUSH1 0xE DUP2 SWAP1 SSTORE POP PUSH2 0x4223 PUSH2 0x4216 PUSH1 0x5 SLOAD PUSH1 0x6 SLOAD PUSH1 0x7 SLOAD DUP6 DUP8 PUSH2 0x50CD JUMP JUMPDEST DUP4 PUSH1 0x9 SLOAD DUP5 PUSH1 0xA SLOAD PUSH2 0x4016 JUMP JUMPDEST PUSH1 0x15 DUP2 SWAP1 SSTORE POP PUSH2 0x423D PUSH1 0x9 SLOAD PUSH1 0xA SLOAD PUSH1 0x7 SLOAD PUSH1 0x15 SLOAD PUSH2 0x51C1 JUMP JUMPDEST PUSH1 0x5 DUP2 SWAP1 SSTORE POP PUSH1 0x5 SLOAD PUSH1 0x2A SLOAD PUSH1 0x2 PUSH2 0x4255 SWAP2 SWAP1 PUSH2 0x6181 JUMP JUMPDEST PUSH2 0x425F SWAP2 SWAP1 PUSH2 0x61DB JUMP JUMPDEST PUSH1 0x6 DUP2 SWAP1 SSTORE POP PUSH2 0x426D PUSH2 0x4ACA JUMP JUMPDEST PUSH1 0x9 SLOAD PUSH1 0xB DUP2 SWAP1 SSTORE POP PUSH1 0xA SLOAD PUSH1 0xC DUP2 SWAP1 SSTORE POP PUSH2 0x4368 JUMP JUMPDEST PUSH1 0x0 PUSH1 0xB SLOAD SWAP1 POP PUSH2 0x429A DUP8 PUSH1 0xD SLOAD PUSH1 0x2A SLOAD PUSH2 0x4050 JUMP JUMPDEST PUSH1 0xC PUSH1 0x0 DUP3 DUP3 SLOAD PUSH2 0x42AB SWAP2 SWAP1 PUSH2 0x5F89 JUMP JUMPDEST SWAP3 POP POP DUP2 SWAP1 SSTORE POP PUSH2 0x42C6 PUSH1 0x5 SLOAD PUSH1 0x6 SLOAD PUSH1 0x7 SLOAD PUSH1 0xC SLOAD PUSH2 0x52FB JUMP JUMPDEST PUSH1 0xB DUP2 SWAP1 SSTORE POP PUSH2 0x42DB DUP2 PUSH1 0xB SLOAD PUSH1 0xE SLOAD PUSH2 0x5098 JUMP JUMPDEST DUP6 PUSH2 0x42E6 SWAP2 SWAP1 PUSH2 0x5F89 JUMP JUMPDEST SWAP5 POP PUSH1 0x1 ISZERO ISZERO DUP7 ISZERO ISZERO EQ ISZERO PUSH2 0x4321 JUMPI PUSH2 0x4304 DUP2 PUSH1 0xB SLOAD PUSH1 0xE SLOAD PUSH2 0x5098 JUMP JUMPDEST PUSH1 0x10 PUSH1 0x0 DUP3 DUP3 SLOAD PUSH2 0x4315 SWAP2 SWAP1 PUSH2 0x5F89 JUMP JUMPDEST SWAP3 POP POP DUP2 SWAP1 SSTORE POP PUSH2 0x4362 JUMP JUMPDEST DUP7 PUSH1 0x13 PUSH1 0x0 DUP3 DUP3 SLOAD PUSH2 0x4333 SWAP2 SWAP1 PUSH2 0x5F89 JUMP JUMPDEST SWAP3 POP POP DUP2 SWAP1 SSTORE POP PUSH2 0x4349 DUP2 PUSH1 0xB SLOAD PUSH1 0xE SLOAD PUSH2 0x5098 JUMP JUMPDEST PUSH1 0x14 PUSH1 0x0 DUP3 DUP3 SLOAD PUSH2 0x435A SWAP2 SWAP1 PUSH2 0x61DB JUMP JUMPDEST SWAP3 POP POP DUP2 SWAP1 SSTORE POP JUMPDEST PUSH1 0x0 SWAP4 POP POP JUMPDEST POP POP PUSH2 0x40C8 JUMP JUMPDEST POP PUSH1 0x1 PUSH1 0x2D DUP2 SWAP1 SSTORE POP SWAP3 SWAP2 POP POP JUMP JUMPDEST PUSH1 0x0 PUSH1 0x1 PUSH1 0x2D SLOAD EQ PUSH2 0x43C5 JUMPI PUSH1 0x40 MLOAD PUSH32 0x8C379A000000000000000000000000000000000000000000000000000000000 DUP2 MSTORE PUSH1 0x4 ADD PUSH2 0x43BC SWAP1 PUSH2 0x5ECD JUMP JUMPDEST PUSH1 0x40 MLOAD DUP1 SWAP2 SUB SWAP1 REVERT JUMPDEST PUSH1 0x0 PUSH1 0x2D DUP2 SWAP1 SSTORE POP PUSH1 0x0 PUSH1 0x1 SWAP1 POP JUMPDEST PUSH1 0x1 ISZERO ISZERO DUP2 ISZERO ISZERO EQ ISZERO PUSH2 0x466D JUMPI PUSH1 0x0 PUSH2 0x43F4 PUSH1 0x9 SLOAD PUSH1 0x16 SLOAD PUSH1 0x2A SLOAD PUSH2 0x4050 JUMP JUMPDEST SWAP1 POP PUSH1 0x0 PUSH2 0x440A PUSH1 0x5 SLOAD PUSH1 0x6 SLOAD PUSH1 0x7 SLOAD DUP6 PUSH2 0x4F98 JUMP JUMPDEST SWAP1 POP PUSH2 0x441B PUSH1 0xC SLOAD DUP3 PUSH1 0xD SLOAD PUSH2 0x5098 JUMP JUMPDEST DUP8 GT ISZERO PUSH2 0x4590 JUMPI PUSH2 0x4431 DUP3 PUSH1 0xB SLOAD PUSH1 0xE SLOAD PUSH2 0x5098 JUMP JUMPDEST DUP5 PUSH2 0x443C SWAP2 SWAP1 PUSH2 0x5F89 JUMP JUMPDEST SWAP4 POP PUSH2 0x444D PUSH1 0xC SLOAD DUP3 PUSH1 0xD SLOAD PUSH2 0x5098 JUMP JUMPDEST DUP8 PUSH2 0x4458 SWAP2 SWAP1 PUSH2 0x61DB JUMP JUMPDEST SWAP7 POP PUSH1 0x1 ISZERO ISZERO DUP6 ISZERO ISZERO EQ ISZERO PUSH2 0x4493 JUMPI PUSH2 0x4476 PUSH1 0xC SLOAD DUP3 PUSH1 0xD SLOAD PUSH2 0x5098 JUMP JUMPDEST PUSH1 0xF PUSH1 0x0 DUP3 DUP3 SLOAD PUSH2 0x4487 SWAP2 SWAP1 PUSH2 0x5F89 JUMP JUMPDEST SWAP3 POP POP DUP2 SWAP1 SSTORE POP PUSH2 0x44E2 JUMP JUMPDEST PUSH2 0x44A2 DUP3 PUSH1 0xB SLOAD PUSH1 0xE SLOAD PUSH2 0x5098 JUMP JUMPDEST PUSH1 0x14 PUSH1 0x0 DUP3 DUP3 SLOAD PUSH2 0x44B3 SWAP2 SWAP1 PUSH2 0x5F89 JUMP JUMPDEST SWAP3 POP POP DUP2 SWAP1 SSTORE POP PUSH2 0x44C9 PUSH1 0xC SLOAD DUP3 PUSH1 0xD SLOAD PUSH2 0x5098 JUMP JUMPDEST PUSH1 0x13 PUSH1 0x0 DUP3 DUP3 SLOAD PUSH2 0x44DA SWAP2 SWAP1 PUSH2 0x61DB JUMP JUMPDEST SWAP3 POP POP DUP2 SWAP1 SSTORE POP JUMPDEST PUSH2 0x44F1 PUSH1 0xD SLOAD PUSH1 0xA SLOAD DUP4 PUSH2 0x4050 JUMP JUMPDEST PUSH1 0xD DUP2 SWAP1 SSTORE POP PUSH2 0x4506 PUSH1 0xE SLOAD PUSH1 0x9 SLOAD DUP5 PUSH2 0x4050 JUMP JUMPDEST PUSH1 0xE DUP2 SWAP1 SSTORE POP PUSH2 0x452F PUSH2 0x4522 PUSH1 0x5 SLOAD PUSH1 0x6 SLOAD PUSH1 0x7 SLOAD DUP7 DUP7 PUSH2 0x50CD JUMP JUMPDEST DUP3 PUSH1 0x9 SLOAD DUP6 PUSH1 0xA SLOAD PUSH2 0x4016 JUMP JUMPDEST PUSH1 0x15 DUP2 SWAP1 SSTORE POP PUSH2 0x4549 PUSH1 0x9 SLOAD PUSH1 0xA SLOAD PUSH1 0x7 SLOAD PUSH1 0x15 SLOAD PUSH2 0x51C1 JUMP JUMPDEST PUSH1 0x5 DUP2 SWAP1 SSTORE POP PUSH1 0x5 SLOAD PUSH1 0x2A SLOAD PUSH1 0x2 PUSH2 0x4561 SWAP2 SWAP1 PUSH2 0x6181 JUMP JUMPDEST PUSH2 0x456B SWAP2 SWAP1 PUSH2 0x61DB JUMP JUMPDEST PUSH1 0x6 DUP2 SWAP1 SSTORE POP PUSH2 0x4579 PUSH2 0x4ACA JUMP JUMPDEST PUSH1 0x9 SLOAD PUSH1 0xB DUP2 SWAP1 SSTORE POP PUSH1 0xA SLOAD PUSH1 0xC DUP2 SWAP1 SSTORE POP PUSH2 0x4666 JUMP JUMPDEST PUSH1 0x0 PUSH1 0xB SLOAD SWAP1 POP PUSH2 0x45A6 DUP9 PUSH1 0xD SLOAD PUSH1 0x2A SLOAD PUSH2 0x4050 JUMP JUMPDEST PUSH1 0xC PUSH1 0x0 DUP3 DUP3 SLOAD PUSH2 0x45B7 SWAP2 SWAP1 PUSH2 0x61DB JUMP JUMPDEST SWAP3 POP POP DUP2 SWAP1 SSTORE POP PUSH2 0x45D2 PUSH1 0x5 SLOAD PUSH1 0x6 SLOAD PUSH1 0x7 SLOAD PUSH1 0xC SLOAD PUSH2 0x52FB JUMP JUMPDEST PUSH1 0xB DUP2 SWAP1 SSTORE POP PUSH2 0x45E7 PUSH1 0xB SLOAD DUP3 PUSH1 0xE SLOAD PUSH2 0x5098 JUMP JUMPDEST DUP6 PUSH2 0x45F2 SWAP2 SWAP1 PUSH2 0x5F89 JUMP JUMPDEST SWAP5 POP PUSH1 0x1 ISZERO ISZERO DUP7 ISZERO ISZERO EQ ISZERO PUSH2 0x461F JUMPI DUP8 PUSH1 0xF PUSH1 0x0 DUP3 DUP3 SLOAD PUSH2 0x4613 SWAP2 SWAP1 PUSH2 0x5F89 JUMP JUMPDEST SWAP3 POP POP DUP2 SWAP1 SSTORE POP PUSH2 0x4660 JUMP JUMPDEST PUSH2 0x462E PUSH1 0xB SLOAD DUP3 PUSH1 0xE SLOAD PUSH2 0x5098 JUMP JUMPDEST PUSH1 0x14 PUSH1 0x0 DUP3 DUP3 SLOAD PUSH2 0x463F SWAP2 SWAP1 PUSH2 0x5F89 JUMP JUMPDEST SWAP3 POP POP DUP2 SWAP1 SSTORE POP DUP8 PUSH1 0x13 PUSH1 0x0 DUP3 DUP3 SLOAD PUSH2 0x4658 SWAP2 SWAP1 PUSH2 0x61DB JUMP JUMPDEST SWAP3 POP POP DUP2 SWAP1 SSTORE POP JUMPDEST PUSH1 0x0 SWAP4 POP POP JUMPDEST POP POP PUSH2 0x43D4 JUMP JUMPDEST PUSH1 0x0 ISZERO ISZERO DUP4 ISZERO ISZERO EQ ISZERO PUSH2 0x4687 JUMPI DUP2 DUP5 GT PUSH2 0x4686 JUMPI PUSH1 0x0 DUP1 REVERT JUMPDEST JUMPDEST POP PUSH1 0x1 PUSH1 0x2D DUP2 SWAP1 SSTORE POP SWAP4 SWAP3 POP POP POP JUMP JUMPDEST PUSH1 0x0 PUSH1 0x1 PUSH1 0x2D SLOAD EQ PUSH2 0x46DE JUMPI PUSH1 0x40 MLOAD PUSH32 0x8C379A000000000000000000000000000000000000000000000000000000000 DUP2 MSTORE PUSH1 0x4 ADD PUSH2 0x46D5 SWAP1 PUSH2 0x5ECD JUMP JUMPDEST PUSH1 0x40 MLOAD DUP1 SWAP2 SUB SWAP1 REVERT JUMPDEST PUSH1 0x0 PUSH1 0x2D DUP2 SWAP1 SSTORE POP PUSH1 0x0 PUSH1 0x1 SWAP1 POP JUMPDEST PUSH1 0x1 ISZERO ISZERO DUP2 ISZERO ISZERO EQ ISZERO PUSH2 0x4986 JUMPI PUSH1 0x0 PUSH2 0x470D PUSH1 0xA SLOAD PUSH1 0x16 SLOAD PUSH1 0x2A SLOAD PUSH2 0x4050 JUMP JUMPDEST SWAP1 POP PUSH1 0x0 PUSH2 0x4723 PUSH1 0x5 SLOAD PUSH1 0x6 SLOAD PUSH1 0x7 SLOAD DUP6 PUSH2 0x52FB JUMP JUMPDEST SWAP1 POP PUSH2 0x4734 PUSH1 0xB SLOAD DUP3 PUSH1 0xE SLOAD PUSH2 0x5098 JUMP JUMPDEST DUP8 GT ISZERO PUSH2 0x48A9 JUMPI PUSH2 0x474A DUP3 PUSH1 0xC SLOAD PUSH1 0xD SLOAD PUSH2 0x5098 JUMP JUMPDEST DUP5 PUSH2 0x4755 SWAP2 SWAP1 PUSH2 0x5F89 JUMP JUMPDEST SWAP4 POP PUSH2 0x4766 PUSH1 0xB SLOAD DUP3 PUSH1 0xE SLOAD PUSH2 0x5098 JUMP JUMPDEST DUP8 PUSH2 0x4771 SWAP2 SWAP1 PUSH2 0x61DB JUMP JUMPDEST SWAP7 POP PUSH1 0x1 ISZERO ISZERO DUP6 ISZERO ISZERO EQ ISZERO PUSH2 0x47AC JUMPI PUSH2 0x478F PUSH1 0xB SLOAD DUP3 PUSH1 0xE SLOAD PUSH2 0x5098 JUMP JUMPDEST PUSH1 0x10 PUSH1 0x0 DUP3 DUP3 SLOAD PUSH2 0x47A0 SWAP2 SWAP1 PUSH2 0x5F89 JUMP JUMPDEST SWAP3 POP POP DUP2 SWAP1 SSTORE POP PUSH2 0x47FB JUMP JUMPDEST PUSH2 0x47BB DUP3 PUSH1 0xC SLOAD PUSH1 0xD SLOAD PUSH2 0x5098 JUMP JUMPDEST PUSH1 0x13 PUSH1 0x0 DUP3 DUP3 SLOAD PUSH2 0x47CC SWAP2 SWAP1 PUSH2 0x5F89 JUMP JUMPDEST SWAP3 POP POP DUP2 SWAP1 SSTORE POP PUSH2 0x47E2 PUSH1 0xB SLOAD DUP3 PUSH1 0xE SLOAD PUSH2 0x5098 JUMP JUMPDEST PUSH1 0x14 PUSH1 0x0 DUP3 DUP3 SLOAD PUSH2 0x47F3 SWAP2 SWAP1 PUSH2 0x61DB JUMP JUMPDEST SWAP3 POP POP DUP2 SWAP1 SSTORE POP JUMPDEST PUSH2 0x480A PUSH1 0xD SLOAD PUSH1 0xA SLOAD DUP5 PUSH2 0x4050 JUMP JUMPDEST PUSH1 0xD DUP2 SWAP1 SSTORE POP PUSH2 0x481F PUSH1 0xE SLOAD PUSH1 0x9 SLOAD DUP4 PUSH2 0x4050 JUMP JUMPDEST PUSH1 0xE DUP2 SWAP1 SSTORE POP PUSH2 0x4848 PUSH2 0x483B PUSH1 0x5 SLOAD PUSH1 0x6 SLOAD PUSH1 0x7 SLOAD DUP6 DUP8 PUSH2 0x50CD JUMP JUMPDEST DUP4 PUSH1 0x9 SLOAD DUP5 PUSH1 0xA SLOAD PUSH2 0x4016 JUMP JUMPDEST PUSH1 0x15 DUP2 SWAP1 SSTORE POP PUSH2 0x4862 PUSH1 0x9 SLOAD PUSH1 0xA SLOAD PUSH1 0x7 SLOAD PUSH1 0x15 SLOAD PUSH2 0x51C1 JUMP JUMPDEST PUSH1 0x5 DUP2 SWAP1 SSTORE POP PUSH1 0x5 SLOAD PUSH1 0x2A SLOAD PUSH1 0x2 PUSH2 0x487A SWAP2 SWAP1 PUSH2 0x6181 JUMP JUMPDEST PUSH2 0x4884 SWAP2 SWAP1 PUSH2 0x61DB JUMP JUMPDEST PUSH1 0x6 DUP2 SWAP1 SSTORE POP PUSH2 0x4892 PUSH2 0x4ACA JUMP JUMPDEST PUSH1 0x9 SLOAD PUSH1 0xB DUP2 SWAP1 SSTORE POP PUSH1 0xA SLOAD PUSH1 0xC DUP2 SWAP1 SSTORE POP PUSH2 0x497F JUMP JUMPDEST PUSH1 0x0 PUSH1 0xC SLOAD SWAP1 POP PUSH2 0x48BF DUP9 PUSH1 0xE SLOAD PUSH1 0x2A SLOAD PUSH2 0x4050 JUMP JUMPDEST PUSH1 0xB PUSH1 0x0 DUP3 DUP3 SLOAD PUSH2 0x48D0 SWAP2 SWAP1 PUSH2 0x61DB JUMP JUMPDEST SWAP3 POP POP DUP2 SWAP1 SSTORE POP PUSH2 0x48EB PUSH1 0x5 SLOAD PUSH1 0x6 SLOAD PUSH1 0x7 SLOAD PUSH1 0xB SLOAD PUSH2 0x4F98 JUMP JUMPDEST PUSH1 0xC DUP2 SWAP1 SSTORE POP PUSH2 0x4900 PUSH1 0xC SLOAD DUP3 PUSH1 0xD SLOAD PUSH2 0x5098 JUMP JUMPDEST DUP6 PUSH2 0x490B SWAP2 SWAP1 PUSH2 0x5F89 JUMP JUMPDEST SWAP5 POP PUSH1 0x1 ISZERO ISZERO DUP7 ISZERO ISZERO EQ ISZERO PUSH2 0x4938 JUMPI DUP8 PUSH1 0x10 PUSH1 0x0 DUP3 DUP3 SLOAD PUSH2 0x492C SWAP2 SWAP1 PUSH2 0x5F89 JUMP JUMPDEST SWAP3 POP POP DUP2 SWAP1 SSTORE POP PUSH2 0x4979 JUMP JUMPDEST PUSH2 0x4947 PUSH1 0xC SLOAD DUP3 PUSH1 0xD SLOAD PUSH2 0x5098 JUMP JUMPDEST PUSH1 0x13 PUSH1 0x0 DUP3 DUP3 SLOAD PUSH2 0x4958 SWAP2 SWAP1 PUSH2 0x5F89 JUMP JUMPDEST SWAP3 POP POP DUP2 SWAP1 SSTORE POP DUP8 PUSH1 0x14 PUSH1 0x0 DUP3 DUP3 SLOAD PUSH2 0x4971 SWAP2 SWAP1 PUSH2 0x61DB JUMP JUMPDEST SWAP3 POP POP DUP2 SWAP1 SSTORE POP JUMPDEST PUSH1 0x0 SWAP4 POP POP JUMPDEST POP POP PUSH2 0x46ED JUMP JUMPDEST PUSH1 0x0 ISZERO ISZERO DUP4 ISZERO ISZERO EQ ISZERO PUSH2 0x49A0 JUMPI DUP2 DUP5 GT PUSH2 0x499F JUMPI PUSH1 0x0 DUP1 REVERT JUMPDEST JUMPDEST POP PUSH1 0x1 PUSH1 0x2D DUP2 SWAP1 SSTORE POP SWAP4 SWAP3 POP POP POP JUMP JUMPDEST PUSH2 0x49C5 DUP2 PUSH1 0x0 SLOAD PUSH2 0x4DF9 SWAP1 SWAP2 SWAP1 PUSH4 0xFFFFFFFF AND JUMP JUMPDEST PUSH1 0x0 DUP2 SWAP1 SSTORE POP PUSH2 0x4A1D DUP2 PUSH1 0x1 PUSH1 0x0 DUP6 PUSH20 0xFFFFFFFFFFFFFFFFFFFFFFFFFFFFFFFFFFFFFFFF AND PUSH20 0xFFFFFFFFFFFFFFFFFFFFFFFFFFFFFFFFFFFFFFFF AND DUP2 MSTORE PUSH1 0x20 ADD SWAP1 DUP2 MSTORE PUSH1 0x20 ADD PUSH1 0x0 KECCAK256 SLOAD PUSH2 0x4DF9 SWAP1 SWAP2 SWAP1 PUSH4 0xFFFFFFFF AND JUMP JUMPDEST PUSH1 0x1 PUSH1 0x0 DUP5 PUSH20 0xFFFFFFFFFFFFFFFFFFFFFFFFFFFFFFFFFFFFFFFF AND PUSH20 0xFFFFFFFFFFFFFFFFFFFFFFFFFFFFFFFFFFFFFFFF AND DUP2 MSTORE PUSH1 0x20 ADD SWAP1 DUP2 MSTORE PUSH1 0x20 ADD PUSH1 0x0 KECCAK256 DUP2 SWAP1 SSTORE POP DUP2 PUSH20 0xFFFFFFFFFFFFFFFFFFFFFFFFFFFFFFFFFFFFFFFF AND PUSH1 0x0 PUSH20 0xFFFFFFFFFFFFFFFFFFFFFFFFFFFFFFFFFFFFFFFF AND PUSH32 0xDDF252AD1BE2C89B69C2B068FC378DAA952BA7F163C4A11628F55A4DF523B3EF DUP4 PUSH1 0x40 MLOAD PUSH2 0x4ABE SWAP2 SWAP1 PUSH2 0x5EED JUMP JUMPDEST PUSH1 0x40 MLOAD DUP1 SWAP2 SUB SWAP1 LOG3 POP POP JUMP JUMPDEST PUSH2 0x4AEA PUSH1 0x14 SLOAD PUSH1 0x5 SLOAD PUSH1 0xE SLOAD PUSH1 0x13 SLOAD PUSH1 0x6 SLOAD PUSH1 0xD SLOAD PUSH1 0x12 SLOAD PUSH1 0x11 SLOAD PUSH2 0x53FB JUMP JUMPDEST PUSH1 0x21 DUP2 SWAP1 SSTORE POP PUSH1 0x2A SLOAD PUSH1 0x21 SLOAD PUSH1 0x8 SLOAD PUSH2 0x4B03 SWAP2 SWAP1 PUSH2 0x6181 JUMP JUMPDEST PUSH2 0x4B0D SWAP2 SWAP1 PUSH2 0x5FDF JUMP JUMPDEST PUSH1 0x7 DUP2 SWAP1 SSTORE POP PUSH1 0x2 PUSH1 0x7 SLOAD PUSH2 0x4B22 SWAP2 SWAP1 PUSH2 0x5FDF JUMP JUMPDEST PUSH1 0x9 DUP2 SWAP1 SSTORE POP PUSH1 0x9 SLOAD PUSH1 0xA DUP2 SWAP1 SSTORE POP PUSH1 0x21 SLOAD PUSH1 0x22 DUP2 SWAP1 SSTORE POP JUMP JUMPDEST PUSH2 0x4B8E DUP2 PUSH1 0x1 PUSH1 0x0 DUP6 PUSH20 0xFFFFFFFFFFFFFFFFFFFFFFFFFFFFFFFFFFFFFFFF AND PUSH20 0xFFFFFFFFFFFFFFFFFFFFFFFFFFFFFFFFFFFFFFFF AND DUP2 MSTORE PUSH1 0x20 ADD SWAP1 DUP2 MSTORE PUSH1 0x20 ADD PUSH1 0x0 KECCAK256 SLOAD PUSH2 0x3709 SWAP1 SWAP2 SWAP1 PUSH4 0xFFFFFFFF AND JUMP JUMPDEST PUSH1 0x1 PUSH1 0x0 DUP5 PUSH20 0xFFFFFFFFFFFFFFFFFFFFFFFFFFFFFFFFFFFFFFFF AND PUSH20 0xFFFFFFFFFFFFFFFFFFFFFFFFFFFFFFFFFFFFFFFF AND DUP2 MSTORE PUSH1 0x20 ADD SWAP1 DUP2 MSTORE PUSH1 0x20 ADD PUSH1 0x0 KECCAK256 DUP2 SWAP1 SSTORE POP PUSH2 0x4BE6 DUP2 PUSH1 0x0 SLOAD PUSH2 0x3709 SWAP1 SWAP2 SWAP1 PUSH4 0xFFFFFFFF AND JUMP JUMPDEST PUSH1 0x0 DUP2 SWAP1 SSTORE POP PUSH1 0x0 PUSH20 0xFFFFFFFFFFFFFFFFFFFFFFFFFFFFFFFFFFFFFFFF AND DUP3 PUSH20 0xFFFFFFFFFFFFFFFFFFFFFFFFFFFFFFFFFFFFFFFF AND PUSH32 0xDDF252AD1BE2C89B69C2B068FC378DAA952BA7F163C4A11628F55A4DF523B3EF DUP4 PUSH1 0x40 MLOAD PUSH2 0x4C4A SWAP2 SWAP1 PUSH2 0x5EED JUMP JUMPDEST PUSH1 0x40 MLOAD DUP1 SWAP2 SUB SWAP1 LOG3 POP POP JUMP JUMPDEST PUSH1 0x0 DUP1 DUP5 PUSH20 0xFFFFFFFFFFFFFFFFFFFFFFFFFFFFFFFFFFFFFFFF AND PUSH1 0x40 MLOAD DUP1 PUSH1 0x40 ADD PUSH1 0x40 MSTORE DUP1 PUSH1 0x19 DUP2 MSTORE PUSH1 0x20 ADD PUSH32 0x7472616E7366657228616464726573732C75696E743235362900000000000000 DUP2 MSTORE POP DUP1 MLOAD SWAP1 PUSH1 0x20 ADD KECCAK256 DUP6 DUP6 PUSH1 0x40 MLOAD PUSH1 0x24 ADD PUSH2 0x4CC0 SWAP3 SWAP2 SWAP1 PUSH2 0x5D06 JUMP JUMPDEST PUSH1 0x40 MLOAD PUSH1 0x20 DUP2 DUP4 SUB SUB DUP2 MSTORE SWAP1 PUSH1 0x40 MSTORE SWAP1 PUSH28 0xFFFFFFFFFFFFFFFFFFFFFFFFFFFFFFFFFFFFFFFFFFFFFFFFFFFFFFFF NOT AND PUSH1 0x20 DUP3 ADD DUP1 MLOAD PUSH28 0xFFFFFFFFFFFFFFFFFFFFFFFFFFFFFFFFFFFFFFFFFFFFFFFFFFFFFFFF DUP4 DUP2 DUP4 AND OR DUP4 MSTORE POP POP POP POP PUSH1 0x40 MLOAD PUSH2 0x4D2A SWAP2 SWAP1 PUSH2 0x5C58 JUMP JUMPDEST PUSH1 0x0 PUSH1 0x40 MLOAD DUP1 DUP4 SUB DUP2 PUSH1 0x0 DUP7 GAS CALL SWAP2 POP POP RETURNDATASIZE DUP1 PUSH1 0x0 DUP2 EQ PUSH2 0x4D67 JUMPI PUSH1 0x40 MLOAD SWAP2 POP PUSH1 0x1F NOT PUSH1 0x3F RETURNDATASIZE ADD AND DUP3 ADD PUSH1 0x40 MSTORE RETURNDATASIZE DUP3 MSTORE RETURNDATASIZE PUSH1 0x0 PUSH1 0x20 DUP5 ADD RETURNDATACOPY PUSH2 0x4D6C JUMP JUMPDEST PUSH1 0x60 SWAP2 POP JUMPDEST POP SWAP2 POP SWAP2 POP DUP2 DUP1 ISZERO PUSH2 0x4D9A JUMPI POP PUSH1 0x0 DUP2 MLOAD EQ DUP1 PUSH2 0x4D99 JUMPI POP DUP1 DUP1 PUSH1 0x20 ADD SWAP1 MLOAD DUP2 ADD SWAP1 PUSH2 0x4D98 SWAP2 SWAP1 PUSH2 0x5916 JUMP JUMPDEST JUMPDEST JUMPDEST PUSH2 0x4DD9 JUMPI PUSH1 0x40 MLOAD PUSH32 0x8C379A000000000000000000000000000000000000000000000000000000000 DUP2 MSTORE PUSH1 0x4 ADD PUSH2 0x4DD0 SWAP1 PUSH2 0x5EAD JUMP JUMPDEST PUSH1 0x40 MLOAD DUP1 SWAP2 SUB SWAP1 REVERT JUMPDEST POP POP POP POP POP JUMP JUMPDEST PUSH1 0x0 DUP2 DUP4 GT PUSH2 0x4DEF JUMPI DUP2 PUSH2 0x4DF1 JUMP JUMPDEST DUP3 JUMPDEST SWAP1 POP SWAP3 SWAP2 POP POP JUMP JUMPDEST PUSH1 0x0 DUP3 DUP3 DUP5 PUSH2 0x4E08 SWAP2 SWAP1 PUSH2 0x5F89 JUMP JUMPDEST SWAP2 POP DUP2 LT ISZERO PUSH2 0x4E4C JUMPI PUSH1 0x40 MLOAD PUSH32 0x8C379A000000000000000000000000000000000000000000000000000000000 DUP2 MSTORE PUSH1 0x4 ADD PUSH2 0x4E43 SWAP1 PUSH2 0x5E6D JUMP JUMPDEST PUSH1 0x40 MLOAD DUP1 SWAP2 SUB SWAP1 REVERT JUMPDEST SWAP3 SWAP2 POP POP JUMP JUMPDEST PUSH1 0x0 DUP1 PUSH1 0x0 PUSH2 0x4E6A DUP13 DUP12 PUSH8 0xDE0B6B3A7640000 PUSH2 0x4050 JUMP JUMPDEST SWAP1 POP PUSH1 0x0 PUSH2 0x4E81 DUP13 DUP12 PUSH8 0xDE0B6B3A7640000 PUSH2 0x4050 JUMP JUMPDEST SWAP1 POP PUSH1 0x0 PUSH2 0x4E90 DUP4 DUP4 DUP9 PUSH2 0x545B JUMP JUMPDEST SWAP1 POP PUSH1 0x0 DUP2 PUSH8 0x1BC16D674EC80000 PUSH2 0x4EA8 SWAP2 SWAP1 PUSH2 0x61DB JUMP JUMPDEST SWAP1 POP PUSH2 0x4EC1 PUSH2 0x4EBA DUP4 DUP4 DUP11 DUP9 DUP9 PUSH2 0x50CD JUMP JUMPDEST DUP14 DUP16 PUSH2 0x4050 JUMP JUMPDEST SWAP6 POP PUSH2 0x4EDA PUSH2 0x4ED3 DUP11 DUP11 DUP11 DUP16 DUP16 PUSH2 0x50CD JUMP JUMPDEST DUP14 DUP16 PUSH2 0x4050 JUMP JUMPDEST SWAP5 POP POP POP POP POP SWAP10 POP SWAP10 SWAP8 POP POP POP POP POP POP POP POP JUMP JUMPDEST PUSH1 0x0 DUP1 DUP10 DUP10 GT ISZERO PUSH2 0x4F31 JUMPI PUSH2 0x4F04 DUP8 DUP5 DUP9 PUSH2 0x54DF JUMP JUMPDEST PUSH2 0x1680 PUSH2 0x4F12 DUP12 DUP14 DUP15 PUSH2 0x5098 JUMP JUMPDEST PUSH2 0x4F1C SWAP2 SWAP1 PUSH2 0x5FDF JUMP JUMPDEST PUSH2 0x4F26 SWAP2 SWAP1 PUSH2 0x5F89 JUMP JUMPDEST SWAP2 POP PUSH1 0x0 SWAP1 POP PUSH2 0x4F65 JUMP JUMPDEST PUSH2 0x4F3C DUP9 DUP6 DUP9 PUSH2 0x54DF JUMP JUMPDEST PUSH2 0x1680 PUSH2 0x4F4A DUP13 DUP13 DUP15 PUSH2 0x5098 JUMP JUMPDEST PUSH2 0x4F54 SWAP2 SWAP1 PUSH2 0x5FDF JUMP JUMPDEST PUSH2 0x4F5E SWAP2 SWAP1 PUSH2 0x5F89 JUMP JUMPDEST SWAP2 POP PUSH1 0x1 SWAP1 POP JUMPDEST DUP5 PUSH2 0x780 DUP4 PUSH2 0x4F74 SWAP2 SWAP1 PUSH2 0x6181 JUMP JUMPDEST GT ISZERO PUSH2 0x4F8B JUMPI PUSH2 0x780 DUP6 PUSH2 0x4F88 SWAP2 SWAP1 PUSH2 0x5FDF JUMP JUMPDEST SWAP2 POP JUMPDEST SWAP9 POP SWAP9 SWAP7 POP POP POP POP POP POP POP JUMP JUMPDEST PUSH1 0x0 DUP2 DUP5 PUSH1 0x8 PUSH2 0x4FA8 SWAP2 SWAP1 PUSH2 0x6181 JUMP JUMPDEST PUSH2 0x4FB2 SWAP2 SWAP1 PUSH2 0x6181 JUMP JUMPDEST PUSH2 0x504B PUSH8 0xDE0B6B3A7640000 DUP6 DUP7 DUP8 PUSH2 0x4FCB SWAP2 SWAP1 PUSH2 0x6181 JUMP JUMPDEST PUSH2 0x4FD5 SWAP2 SWAP1 PUSH2 0x6181 JUMP JUMPDEST PUSH1 0x0 PUSH2 0x4FE1 SWAP2 SWAP1 PUSH2 0x61DB JUMP JUMPDEST DUP6 DUP9 PUSH1 0x10 PUSH2 0x4FEF SWAP2 SWAP1 PUSH2 0x6181 JUMP JUMPDEST PUSH2 0x4FF9 SWAP2 SWAP1 PUSH2 0x6181 JUMP JUMPDEST PUSH2 0x5003 SWAP2 SWAP1 PUSH2 0x6181 JUMP JUMPDEST PUSH2 0x500D SWAP2 SWAP1 PUSH2 0x6181 JUMP JUMPDEST PUSH1 0x2 DUP6 DUP7 DUP11 PUSH1 0x4 PUSH2 0x501E SWAP2 SWAP1 PUSH2 0x6181 JUMP JUMPDEST PUSH2 0x5028 SWAP2 SWAP1 PUSH2 0x6181 JUMP JUMPDEST PUSH2 0x5032 SWAP2 SWAP1 PUSH2 0x6181 JUMP JUMPDEST PUSH2 0x503C SWAP2 SWAP1 PUSH2 0x6063 JUMP JUMPDEST PUSH2 0x5046 SWAP2 SWAP1 PUSH2 0x61DB JUMP JUMPDEST PUSH2 0x552C JUMP JUMPDEST DUP4 DUP5 DUP9 PUSH1 0x4 PUSH2 0x505A SWAP2 SWAP1 PUSH2 0x6181 JUMP JUMPDEST PUSH2 0x5064 SWAP2 SWAP1 PUSH2 0x6181 JUMP JUMPDEST PUSH2 0x506E SWAP2 SWAP1 PUSH2 0x6181 JUMP JUMPDEST PUSH1 0x0 PUSH2 0x507A SWAP2 SWAP1 PUSH2 0x61DB JUMP JUMPDEST PUSH2 0x5084 SWAP2 SWAP1 PUSH2 0x5F89 JUMP JUMPDEST PUSH2 0x508E SWAP2 SWAP1 PUSH2 0x5FDF JUMP JUMPDEST SWAP1 POP SWAP5 SWAP4 POP POP POP POP JUMP JUMPDEST PUSH1 0x0 DUP2 PUSH8 0xDE0B6B3A7640000 DUP5 DUP7 PUSH2 0x50B0 SWAP2 SWAP1 PUSH2 0x61DB JUMP JUMPDEST PUSH2 0x50BA SWAP2 SWAP1 PUSH2 0x6181 JUMP JUMPDEST PUSH2 0x50C4 SWAP2 SWAP1 PUSH2 0x5FDF JUMP JUMPDEST SWAP1 POP SWAP4 SWAP3 POP POP POP JUMP JUMPDEST PUSH1 0x0 DUP2 DUP5 DUP6 DUP7 PUSH2 0x50DD SWAP2 SWAP1 PUSH2 0x6181 JUMP JUMPDEST PUSH2 0x50E7 SWAP2 SWAP1 PUSH2 0x6181 JUMP JUMPDEST PUSH2 0x50F1 SWAP2 SWAP1 PUSH2 0x6181 JUMP JUMPDEST DUP3 DUP4 DUP6 DUP7 DUP11 PUSH1 0x4 PUSH2 0x5102 SWAP2 SWAP1 PUSH2 0x6181 JUMP JUMPDEST PUSH2 0x510C SWAP2 SWAP1 PUSH2 0x6181 JUMP JUMPDEST PUSH2 0x5116 SWAP2 SWAP1 PUSH2 0x6181 JUMP JUMPDEST PUSH2 0x5120 SWAP2 SWAP1 PUSH2 0x6181 JUMP JUMPDEST PUSH2 0x512A SWAP2 SWAP1 PUSH2 0x6181 JUMP JUMPDEST PUSH2 0x5134 SWAP2 SWAP1 PUSH2 0x5F89 JUMP JUMPDEST PUSH8 0xDE0B6B3A7640000 DUP5 DUP7 DUP8 DUP9 PUSH2 0x514B SWAP2 SWAP1 PUSH2 0x6181 JUMP JUMPDEST PUSH2 0x5155 SWAP2 SWAP1 PUSH2 0x6181 JUMP JUMPDEST PUSH2 0x515F SWAP2 SWAP1 PUSH2 0x6181 JUMP JUMPDEST DUP5 DUP6 DUP8 DUP9 DUP12 PUSH1 0x4 PUSH2 0x5170 SWAP2 SWAP1 PUSH2 0x6181 JUMP JUMPDEST PUSH2 0x517A SWAP2 SWAP1 PUSH2 0x6181 JUMP JUMPDEST PUSH2 0x5184 SWAP2 SWAP1 PUSH2 0x6181 JUMP JUMPDEST PUSH2 0x518E SWAP2 SWAP1 PUSH2 0x6181 JUMP JUMPDEST PUSH2 0x5198 SWAP2 SWAP1 PUSH2 0x6181 JUMP JUMPDEST PUSH2 0x51A2 SWAP2 SWAP1 PUSH2 0x5F89 JUMP JUMPDEST PUSH2 0x51AC SWAP2 SWAP1 PUSH2 0x6181 JUMP JUMPDEST PUSH2 0x51B6 SWAP2 SWAP1 PUSH2 0x5FDF JUMP JUMPDEST SWAP1 POP SWAP6 SWAP5 POP POP POP POP POP JUMP JUMPDEST PUSH1 0x0 DUP2 PUSH8 0xDE0B6B3A7640000 PUSH2 0x51D7 SWAP2 SWAP1 PUSH2 0x5F89 JUMP JUMPDEST DUP5 DUP6 DUP8 DUP9 PUSH1 0x4 PUSH2 0x51E7 SWAP2 SWAP1 PUSH2 0x6181 JUMP JUMPDEST PUSH2 0x51F1 SWAP2 SWAP1 PUSH2 0x6181 JUMP JUMPDEST PUSH2 0x51FB SWAP2 SWAP1 PUSH2 0x6181 JUMP JUMPDEST PUSH2 0x5205 SWAP2 SWAP1 PUSH2 0x6181 JUMP JUMPDEST PUSH2 0x520F SWAP2 SWAP1 PUSH2 0x6181 JUMP JUMPDEST PUSH8 0xDE0B6B3A7640000 DUP4 DUP7 DUP7 DUP8 DUP9 PUSH2 0x5227 SWAP2 SWAP1 PUSH2 0x6181 JUMP JUMPDEST PUSH2 0x5231 SWAP2 SWAP1 PUSH2 0x6181 JUMP JUMPDEST PUSH2 0x523B SWAP2 SWAP1 PUSH2 0x6181 JUMP JUMPDEST PUSH2 0x5245 SWAP2 SWAP1 PUSH2 0x6181 JUMP JUMPDEST PUSH2 0x524F SWAP2 SWAP1 PUSH2 0x6181 JUMP JUMPDEST PUSH15 0xC097CE7BC90715B34B9F1000000000 DUP8 DUP7 DUP8 DUP9 PUSH2 0x526D SWAP2 SWAP1 PUSH2 0x6181 JUMP JUMPDEST PUSH2 0x5277 SWAP2 SWAP1 PUSH2 0x6181 JUMP JUMPDEST PUSH2 0x5281 SWAP2 SWAP1 PUSH2 0x6181 JUMP JUMPDEST PUSH2 0x528B SWAP2 SWAP1 PUSH2 0x6181 JUMP JUMPDEST PUSH15 0xC097CE7BC90715B34B9F1000000000 DUP8 DUP9 DUP11 DUP12 PUSH1 0x8 PUSH2 0x52AB SWAP2 SWAP1 PUSH2 0x6181 JUMP JUMPDEST PUSH2 0x52B5 SWAP2 SWAP1 PUSH2 0x6181 JUMP JUMPDEST PUSH2 0x52BF SWAP2 SWAP1 PUSH2 0x6181 JUMP JUMPDEST PUSH2 0x52C9 SWAP2 SWAP1 PUSH2 0x6181 JUMP JUMPDEST PUSH2 0x52D3 SWAP2 SWAP1 PUSH2 0x6181 JUMP JUMPDEST PUSH2 0x52DD SWAP2 SWAP1 PUSH2 0x5F89 JUMP JUMPDEST PUSH2 0x52E7 SWAP2 SWAP1 PUSH2 0x61DB JUMP JUMPDEST PUSH2 0x52F1 SWAP2 SWAP1 PUSH2 0x5FDF JUMP JUMPDEST SWAP1 POP SWAP5 SWAP4 POP POP POP POP JUMP JUMPDEST PUSH1 0x0 DUP2 DUP6 PUSH1 0x8 PUSH2 0x530B SWAP2 SWAP1 PUSH2 0x6181 JUMP JUMPDEST PUSH2 0x5315 SWAP2 SWAP1 PUSH2 0x6181 JUMP JUMPDEST PUSH2 0x53AE PUSH8 0xDE0B6B3A7640000 DUP6 DUP7 DUP8 PUSH2 0x532E SWAP2 SWAP1 PUSH2 0x6181 JUMP JUMPDEST PUSH2 0x5338 SWAP2 SWAP1 PUSH2 0x6181 JUMP JUMPDEST PUSH1 0x0 PUSH2 0x5344 SWAP2 SWAP1 PUSH2 0x61DB JUMP JUMPDEST DUP6 DUP10 PUSH1 0x10 PUSH2 0x5352 SWAP2 SWAP1 PUSH2 0x6181 JUMP JUMPDEST PUSH2 0x535C SWAP2 SWAP1 PUSH2 0x6181 JUMP JUMPDEST PUSH2 0x5366 SWAP2 SWAP1 PUSH2 0x6181 JUMP JUMPDEST PUSH2 0x5370 SWAP2 SWAP1 PUSH2 0x6181 JUMP JUMPDEST PUSH1 0x2 DUP6 DUP7 DUP10 PUSH1 0x4 PUSH2 0x5381 SWAP2 SWAP1 PUSH2 0x6181 JUMP JUMPDEST PUSH2 0x538B SWAP2 SWAP1 PUSH2 0x6181 JUMP JUMPDEST PUSH2 0x5395 SWAP2 SWAP1 PUSH2 0x6181 JUMP JUMPDEST PUSH2 0x539F SWAP2 SWAP1 PUSH2 0x6063 JUMP JUMPDEST PUSH2 0x53A9 SWAP2 SWAP1 PUSH2 0x61DB JUMP JUMPDEST PUSH2 0x552C JUMP JUMPDEST DUP4 DUP5 DUP8 PUSH1 0x4 PUSH2 0x53BD SWAP2 SWAP1 PUSH2 0x6181 JUMP JUMPDEST PUSH2 0x53C7 SWAP2 SWAP1 PUSH2 0x6181 JUMP JUMPDEST PUSH2 0x53D1 SWAP2 SWAP1 PUSH2 0x6181 JUMP JUMPDEST PUSH1 0x0 PUSH2 0x53DD SWAP2 SWAP1 PUSH2 0x61DB JUMP JUMPDEST PUSH2 0x53E7 SWAP2 SWAP1 PUSH2 0x5F89 JUMP JUMPDEST PUSH2 0x53F1 SWAP2 SWAP1 PUSH2 0x5FDF JUMP JUMPDEST SWAP1 POP SWAP5 SWAP4 POP POP POP POP JUMP JUMPDEST PUSH1 0x0 PUSH2 0x544D PUSH2 0x540E DUP5 DUP11 DUP11 DUP7 DUP11 DUP11 PUSH2 0x55A6 JUMP JUMPDEST PUSH23 0xA70C3C40A64E6C51999090B65F67D9240000000000000 PUSH2 0x5434 DUP13 DUP13 DUP13 DUP13 DUP13 DUP13 PUSH2 0x55A6 JUMP JUMPDEST PUSH2 0x543E SWAP2 SWAP1 PUSH2 0x6181 JUMP JUMPDEST PUSH2 0x5448 SWAP2 SWAP1 PUSH2 0x5FDF JUMP JUMPDEST PUSH2 0x5602 JUMP JUMPDEST SWAP1 POP SWAP9 SWAP8 POP POP POP POP POP POP POP POP JUMP JUMPDEST PUSH1 0x0 DUP3 DUP5 PUSH2 0x5469 SWAP2 SWAP1 PUSH2 0x61DB JUMP JUMPDEST PUSH8 0xDE0B6B3A7640000 DUP5 PUSH1 0x2 PUSH2 0x547F SWAP2 SWAP1 PUSH2 0x6181 JUMP JUMPDEST DUP6 DUP8 PUSH1 0x4 DUP8 DUP9 DUP10 PUSH2 0x5490 SWAP2 SWAP1 PUSH2 0x6181 JUMP JUMPDEST PUSH2 0x549A SWAP2 SWAP1 PUSH2 0x6181 JUMP JUMPDEST PUSH2 0x54A4 SWAP2 SWAP1 PUSH2 0x5FDF JUMP JUMPDEST PUSH2 0x54AE SWAP2 SWAP1 PUSH2 0x5FDF JUMP JUMPDEST PUSH2 0x54B8 SWAP2 SWAP1 PUSH2 0x5FDF JUMP JUMPDEST PUSH2 0x54C2 SWAP2 SWAP1 PUSH2 0x61DB JUMP JUMPDEST PUSH2 0x54CC SWAP2 SWAP1 PUSH2 0x6181 JUMP JUMPDEST PUSH2 0x54D6 SWAP2 SWAP1 PUSH2 0x5FDF JUMP JUMPDEST SWAP1 POP SWAP4 SWAP3 POP POP POP JUMP JUMPDEST PUSH1 0x0 DUP2 PUSH2 0xE100 DUP6 DUP6 PUSH2 0x54F1 SWAP2 SWAP1 PUSH2 0x5F89 JUMP JUMPDEST PUSH8 0xDE0B6B3A7640000 DUP8 PUSH2 0x5505 SWAP2 SWAP1 PUSH2 0x6181 JUMP JUMPDEST PUSH2 0x550F SWAP2 SWAP1 PUSH2 0x5FDF JUMP JUMPDEST PUSH2 0x5519 SWAP2 SWAP1 PUSH2 0x5FDF JUMP JUMPDEST PUSH2 0x5523 SWAP2 SWAP1 PUSH2 0x5F89 JUMP JUMPDEST SWAP1 POP SWAP4 SWAP3 POP POP POP JUMP JUMPDEST PUSH1 0x0 PUSH1 0x3 DUP3 GT ISZERO PUSH2 0x5593 JUMPI DUP2 SWAP1 POP PUSH1 0x0 PUSH1 0x1 PUSH1 0x2 DUP5 PUSH2 0x554B SWAP2 SWAP1 PUSH2 0x5FDF JUMP JUMPDEST PUSH2 0x5555 SWAP2 SWAP1 PUSH2 0x5F89 JUMP JUMPDEST SWAP1 POP JUMPDEST DUP2 DUP2 LT ISZERO PUSH2 0x558D JUMPI DUP1 SWAP2 POP PUSH1 0x2 DUP2 DUP3 DUP6 PUSH2 0x5572 SWAP2 SWAP1 PUSH2 0x5FDF JUMP JUMPDEST PUSH2 0x557C SWAP2 SWAP1 PUSH2 0x5F89 JUMP JUMPDEST PUSH2 0x5586 SWAP2 SWAP1 PUSH2 0x5FDF JUMP JUMPDEST SWAP1 POP PUSH2 0x5558 JUMP JUMPDEST POP PUSH2 0x55A1 JUMP JUMPDEST PUSH1 0x0 DUP3 EQ PUSH2 0x55A0 JUMPI PUSH1 0x1 SWAP1 POP JUMPDEST JUMPDEST SWAP2 SWAP1 POP JUMP JUMPDEST PUSH1 0x0 DUP4 DUP8 DUP4 DUP6 DUP8 PUSH2 0x55B7 SWAP2 SWAP1 PUSH2 0x6181 JUMP JUMPDEST PUSH2 0x55C1 SWAP2 SWAP1 PUSH2 0x6181 JUMP JUMPDEST DUP8 DUP10 DUP12 PUSH2 0x55CE SWAP2 SWAP1 PUSH2 0x6181 JUMP JUMPDEST PUSH2 0x55D8 SWAP2 SWAP1 PUSH2 0x6181 JUMP JUMPDEST PUSH2 0x55E2 SWAP2 SWAP1 PUSH2 0x5F89 JUMP JUMPDEST PUSH2 0x55EC SWAP2 SWAP1 PUSH2 0x6181 JUMP JUMPDEST PUSH2 0x55F6 SWAP2 SWAP1 PUSH2 0x6181 JUMP JUMPDEST SWAP1 POP SWAP7 SWAP6 POP POP POP POP POP POP JUMP JUMPDEST PUSH1 0x0 PUSH1 0x8 DUP3 GT ISZERO PUSH2 0x5680 JUMPI DUP2 SWAP1 POP PUSH1 0x0 PUSH1 0x1 PUSH1 0x3 DUP5 PUSH2 0x5621 SWAP2 SWAP1 PUSH2 0x5FDF JUMP JUMPDEST PUSH2 0x562B SWAP2 SWAP1 PUSH2 0x5F89 JUMP JUMPDEST SWAP1 POP JUMPDEST DUP2 DUP2 LT ISZERO PUSH2 0x567A JUMPI DUP1 SWAP2 POP PUSH1 0x3 DUP2 PUSH1 0x2 PUSH2 0x5648 SWAP2 SWAP1 PUSH2 0x6181 JUMP JUMPDEST DUP3 DUP4 PUSH2 0x5654 SWAP2 SWAP1 PUSH2 0x6181 JUMP JUMPDEST DUP6 PUSH2 0x565F SWAP2 SWAP1 PUSH2 0x5FDF JUMP JUMPDEST PUSH2 0x5669 SWAP2 SWAP1 PUSH2 0x5F89 JUMP JUMPDEST PUSH2 0x5673 SWAP2 SWAP1 PUSH2 0x5FDF JUMP JUMPDEST SWAP1 POP PUSH2 0x562E JUMP JUMPDEST POP PUSH2 0x568E JUMP JUMPDEST PUSH1 0x0 DUP3 EQ PUSH2 0x568D JUMPI PUSH1 0x1 SWAP1 POP JUMPDEST JUMPDEST SWAP2 SWAP1 POP JUMP JUMPDEST POP PUSH1 0x0 DUP2 SSTORE PUSH1 0x1 ADD PUSH1 0x0 SWAP1 SSTORE JUMP JUMPDEST PUSH1 0x0 DUP2 CALLDATALOAD SWAP1 POP PUSH2 0x56B0 DUP2 PUSH2 0x64C3 JUMP JUMPDEST SWAP3 SWAP2 POP POP JUMP JUMPDEST PUSH1 0x0 DUP2 CALLDATALOAD SWAP1 POP PUSH2 0x56C5 DUP2 PUSH2 0x64DA JUMP JUMPDEST SWAP3 SWAP2 POP POP JUMP JUMPDEST PUSH1 0x0 DUP2 MLOAD SWAP1 POP PUSH2 0x56DA DUP2 PUSH2 0x64DA JUMP JUMPDEST SWAP3 SWAP2 POP POP JUMP JUMPDEST PUSH1 0x0 DUP2 CALLDATALOAD SWAP1 POP PUSH2 0x56EF DUP2 PUSH2 0x64F1 JUMP JUMPDEST SWAP3 SWAP2 POP POP JUMP JUMPDEST PUSH1 0x0 DUP2 CALLDATALOAD SWAP1 POP PUSH2 0x5704 DUP2 PUSH2 0x6508 JUMP JUMPDEST SWAP3 SWAP2 POP POP JUMP JUMPDEST PUSH1 0x0 DUP2 MLOAD SWAP1 POP PUSH2 0x5719 DUP2 PUSH2 0x6508 JUMP JUMPDEST SWAP3 SWAP2 POP POP JUMP JUMPDEST PUSH1 0x0 DUP2 CALLDATALOAD SWAP1 POP PUSH2 0x572E DUP2 PUSH2 0x651F JUMP JUMPDEST SWAP3 SWAP2 POP POP JUMP JUMPDEST PUSH1 0x0 PUSH1 0x20 DUP3 DUP5 SUB SLT ISZERO PUSH2 0x574A JUMPI PUSH2 0x5749 PUSH2 0x6381 JUMP JUMPDEST JUMPDEST PUSH1 0x0 PUSH2 0x5758 DUP5 DUP3 DUP6 ADD PUSH2 0x56A1 JUMP JUMPDEST SWAP2 POP POP SWAP3 SWAP2 POP POP JUMP JUMPDEST PUSH1 0x0 DUP1 PUSH1 0x40 DUP4 DUP6 SUB SLT ISZERO PUSH2 0x5778 JUMPI PUSH2 0x5777 PUSH2 0x6381 JUMP JUMPDEST JUMPDEST PUSH1 0x0 PUSH2 0x5786 DUP6 DUP3 DUP7 ADD PUSH2 0x56A1 JUMP JUMPDEST SWAP3 POP POP PUSH1 0x20 PUSH2 0x5797 DUP6 DUP3 DUP7 ADD PUSH2 0x56A1 JUMP JUMPDEST SWAP2 POP POP SWAP3 POP SWAP3 SWAP1 POP JUMP JUMPDEST PUSH1 0x0 DUP1 PUSH1 0x0 PUSH1 0x60 DUP5 DUP7 SUB SLT ISZERO PUSH2 0x57BA JUMPI PUSH2 0x57B9 PUSH2 0x6381 JUMP JUMPDEST JUMPDEST PUSH1 0x0 PUSH2 0x57C8 DUP7 DUP3 DUP8 ADD PUSH2 0x56A1 JUMP JUMPDEST SWAP4 POP POP PUSH1 0x20 PUSH2 0x57D9 DUP7 DUP3 DUP8 ADD PUSH2 0x56A1 JUMP JUMPDEST SWAP3 POP POP PUSH1 0x40 PUSH2 0x57EA DUP7 DUP3 DUP8 ADD PUSH2 0x56F5 JUMP JUMPDEST SWAP2 POP POP SWAP3 POP SWAP3 POP SWAP3 JUMP JUMPDEST PUSH1 0x0 DUP1 PUSH1 0x0 DUP1 PUSH1 0x0 DUP1 PUSH1 0x0 PUSH1 0xE0 DUP9 DUP11 SUB SLT ISZERO PUSH2 0x5813 JUMPI PUSH2 0x5812 PUSH2 0x6381 JUMP JUMPDEST JUMPDEST PUSH1 0x0 PUSH2 0x5821 DUP11 DUP3 DUP12 ADD PUSH2 0x56A1 JUMP JUMPDEST SWAP8 POP POP PUSH1 0x20 PUSH2 0x5832 DUP11 DUP3 DUP12 ADD PUSH2 0x56A1 JUMP JUMPDEST SWAP7 POP POP PUSH1 0x40 PUSH2 0x5843 DUP11 DUP3 DUP12 ADD PUSH2 0x56F5 JUMP JUMPDEST SWAP6 POP POP PUSH1 0x60 PUSH2 0x5854 DUP11 DUP3 DUP12 ADD PUSH2 0x56F5 JUMP JUMPDEST SWAP5 POP POP PUSH1 0x80 PUSH2 0x5865 DUP11 DUP3 DUP12 ADD PUSH2 0x571F JUMP JUMPDEST SWAP4 POP POP PUSH1 0xA0 PUSH2 0x5876 DUP11 DUP3 DUP12 ADD PUSH2 0x56E0 JUMP JUMPDEST SWAP3 POP POP PUSH1 0xC0 PUSH2 0x5887 DUP11 DUP3 DUP12 ADD PUSH2 0x56E0 JUMP JUMPDEST SWAP2 POP POP SWAP3 SWAP6 SWAP9 SWAP2 SWAP5 SWAP8 POP SWAP3 SWAP6 POP JUMP JUMPDEST PUSH1 0x0 DUP1 PUSH1 0x40 DUP4 DUP6 SUB SLT ISZERO PUSH2 0x58AD JUMPI PUSH2 0x58AC PUSH2 0x6381 JUMP JUMPDEST JUMPDEST PUSH1 0x0 PUSH2 0x58BB DUP6 DUP3 DUP7 ADD PUSH2 0x56A1 JUMP JUMPDEST SWAP3 POP POP PUSH1 0x20 PUSH2 0x58CC DUP6 DUP3 DUP7 ADD PUSH2 0x56B6 JUMP JUMPDEST SWAP2 POP POP SWAP3 POP SWAP3 SWAP1 POP JUMP JUMPDEST PUSH1 0x0 DUP1 PUSH1 0x40 DUP4 DUP6 SUB SLT ISZERO PUSH2 0x58ED JUMPI PUSH2 0x58EC PUSH2 0x6381 JUMP JUMPDEST JUMPDEST PUSH1 0x0 PUSH2 0x58FB DUP6 DUP3 DUP7 ADD PUSH2 0x56A1 JUMP JUMPDEST SWAP3 POP POP PUSH1 0x20 PUSH2 0x590C DUP6 DUP3 DUP7 ADD PUSH2 0x56F5 JUMP JUMPDEST SWAP2 POP POP SWAP3 POP SWAP3 SWAP1 POP JUMP JUMPDEST PUSH1 0x0 PUSH1 0x20 DUP3 DUP5 SUB SLT ISZERO PUSH2 0x592C JUMPI PUSH2 0x592B PUSH2 0x6381 JUMP JUMPDEST JUMPDEST PUSH1 0x0 PUSH2 0x593A DUP5 DUP3 DUP6 ADD PUSH2 0x56CB JUMP JUMPDEST SWAP2 POP POP SWAP3 SWAP2 POP POP JUMP JUMPDEST PUSH1 0x0 PUSH1 0x20 DUP3 DUP5 SUB SLT ISZERO PUSH2 0x5959 JUMPI PUSH2 0x5958 PUSH2 0x6381 JUMP JUMPDEST JUMPDEST PUSH1 0x0 PUSH2 0x5967 DUP5 DUP3 DUP6 ADD PUSH2 0x56F5 JUMP JUMPDEST SWAP2 POP POP SWAP3 SWAP2 POP POP JUMP JUMPDEST PUSH1 0x0 PUSH1 0x20 DUP3 DUP5 SUB SLT ISZERO PUSH2 0x5986 JUMPI PUSH2 0x5985 PUSH2 0x6381 JUMP JUMPDEST JUMPDEST PUSH1 0x0 PUSH2 0x5994 DUP5 DUP3 DUP6 ADD PUSH2 0x570A JUMP JUMPDEST SWAP2 POP POP SWAP3 SWAP2 POP POP JUMP JUMPDEST PUSH1 0x0 DUP1 PUSH1 0x40 DUP4 DUP6 SUB SLT ISZERO PUSH2 0x59B4 JUMPI PUSH2 0x59B3 PUSH2 0x6381 JUMP JUMPDEST JUMPDEST PUSH1 0x0 PUSH2 0x59C2 DUP6 DUP3 DUP7 ADD PUSH2 0x56F5 JUMP JUMPDEST SWAP3 POP POP PUSH1 0x20 PUSH2 0x59D3 DUP6 DUP3 DUP7 ADD PUSH2 0x56A1 JUMP JUMPDEST SWAP2 POP POP SWAP3 POP SWAP3 SWAP1 POP JUMP JUMPDEST PUSH1 0x0 DUP1 PUSH1 0x0 PUSH1 0x60 DUP5 DUP7 SUB SLT ISZERO PUSH2 0x59F6 JUMPI PUSH2 0x59F5 PUSH2 0x6381 JUMP JUMPDEST JUMPDEST PUSH1 0x0 PUSH2 0x5A04 DUP7 DUP3 DUP8 ADD PUSH2 0x56F5 JUMP JUMPDEST SWAP4 POP POP PUSH1 0x20 PUSH2 0x5A15 DUP7 DUP3 DUP8 ADD PUSH2 0x56F5 JUMP JUMPDEST SWAP3 POP POP PUSH1 0x40 PUSH2 0x5A26 DUP7 DUP3 DUP8 ADD PUSH2 0x56A1 JUMP JUMPDEST SWAP2 POP POP SWAP3 POP SWAP3 POP SWAP3 JUMP JUMPDEST PUSH1 0x0 DUP1 PUSH1 0x0 DUP1 PUSH1 0x80 DUP6 DUP8 SUB SLT ISZERO PUSH2 0x5A4A JUMPI PUSH2 0x5A49 PUSH2 0x6381 JUMP JUMPDEST JUMPDEST PUSH1 0x0 PUSH2 0x5A58 DUP8 DUP3 DUP9 ADD PUSH2 0x56F5 JUMP JUMPDEST SWAP5 POP POP PUSH1 0x20 PUSH2 0x5A69 DUP8 DUP3 DUP9 ADD PUSH2 0x56F5 JUMP JUMPDEST SWAP4 POP POP PUSH1 0x40 PUSH2 0x5A7A DUP8 DUP3 DUP9 ADD PUSH2 0x56B6 JUMP JUMPDEST SWAP3 POP POP PUSH1 0x60 PUSH2 0x5A8B DUP8 DUP3 DUP9 ADD PUSH2 0x56A1 JUMP JUMPDEST SWAP2 POP POP SWAP3 SWAP6 SWAP2 SWAP5 POP SWAP3 POP JUMP JUMPDEST PUSH2 0x5AA0 DUP2 PUSH2 0x620F JUMP JUMPDEST DUP3 MSTORE POP POP JUMP JUMPDEST PUSH2 0x5AAF DUP2 PUSH2 0x6221 JUMP JUMPDEST DUP3 MSTORE POP POP JUMP JUMPDEST PUSH2 0x5ABE DUP2 PUSH2 0x622D JUMP JUMPDEST DUP3 MSTORE POP POP JUMP JUMPDEST PUSH2 0x5AD5 PUSH2 0x5AD0 DUP3 PUSH2 0x622D JUMP JUMPDEST PUSH2 0x62EA JUMP JUMPDEST DUP3 MSTORE POP POP JUMP JUMPDEST PUSH1 0x0 PUSH2 0x5AE6 DUP3 PUSH2 0x5F4C JUMP JUMPDEST PUSH2 0x5AF0 DUP2 DUP6 PUSH2 0x5F62 JUMP JUMPDEST SWAP4 POP PUSH2 0x5B00 DUP2 DUP6 PUSH1 0x20 DUP7 ADD PUSH2 0x626E JUMP JUMPDEST DUP1 DUP5 ADD SWAP2 POP POP SWAP3 SWAP2 POP POP JUMP JUMPDEST PUSH1 0x0 PUSH2 0x5B17 DUP3 PUSH2 0x5F57 JUMP JUMPDEST PUSH2 0x5B21 DUP2 DUP6 PUSH2 0x5F6D JUMP JUMPDEST SWAP4 POP PUSH2 0x5B31 DUP2 DUP6 PUSH1 0x20 DUP7 ADD PUSH2 0x626E JUMP JUMPDEST PUSH2 0x5B3A DUP2 PUSH2 0x6386 JUMP JUMPDEST DUP5 ADD SWAP2 POP POP SWAP3 SWAP2 POP POP JUMP JUMPDEST PUSH1 0x0 PUSH2 0x5B52 PUSH1 0x15 DUP4 PUSH2 0x5F6D JUMP JUMPDEST SWAP2 POP PUSH2 0x5B5D DUP3 PUSH2 0x63A4 JUMP JUMPDEST PUSH1 0x20 DUP3 ADD SWAP1 POP SWAP2 SWAP1 POP JUMP JUMPDEST PUSH1 0x0 PUSH2 0x5B75 PUSH1 0x1C DUP4 PUSH2 0x5F6D JUMP JUMPDEST SWAP2 POP PUSH2 0x5B80 DUP3 PUSH2 0x63CD JUMP JUMPDEST PUSH1 0x20 DUP3 ADD SWAP1 POP SWAP2 SWAP1 POP JUMP JUMPDEST PUSH1 0x0 PUSH2 0x5B98 PUSH1 0x2 DUP4 PUSH2 0x5F7E JUMP JUMPDEST SWAP2 POP PUSH2 0x5BA3 DUP3 PUSH2 0x63F6 JUMP JUMPDEST PUSH1 0x2 DUP3 ADD SWAP1 POP SWAP2 SWAP1 POP JUMP JUMPDEST PUSH1 0x0 PUSH2 0x5BBB PUSH1 0x14 DUP4 PUSH2 0x5F6D JUMP JUMPDEST SWAP2 POP PUSH2 0x5BC6 DUP3 PUSH2 0x641F JUMP JUMPDEST PUSH1 0x20 DUP3 ADD SWAP1 POP SWAP2 SWAP1 POP JUMP JUMPDEST PUSH1 0x0 PUSH2 0x5BDE PUSH1 0x12 DUP4 PUSH2 0x5F6D JUMP JUMPDEST SWAP2 POP PUSH2 0x5BE9 DUP3 PUSH2 0x6448 JUMP JUMPDEST PUSH1 0x20 DUP3 ADD SWAP1 POP SWAP2 SWAP1 POP JUMP JUMPDEST PUSH1 0x0 PUSH2 0x5C01 PUSH1 0xF DUP4 PUSH2 0x5F6D JUMP JUMPDEST SWAP2 POP PUSH2 0x5C0C DUP3 PUSH2 0x6471 JUMP JUMPDEST PUSH1 0x20 DUP3 ADD SWAP1 POP SWAP2 SWAP1 POP JUMP JUMPDEST PUSH1 0x0 PUSH2 0x5C24 PUSH1 0x6 DUP4 PUSH2 0x5F6D JUMP JUMPDEST SWAP2 POP PUSH2 0x5C2F DUP3 PUSH2 0x649A JUMP JUMPDEST PUSH1 0x20 DUP3 ADD SWAP1 POP SWAP2 SWAP1 POP JUMP JUMPDEST PUSH2 0x5C43 DUP2 PUSH2 0x6257 JUMP JUMPDEST DUP3 MSTORE POP POP JUMP JUMPDEST PUSH2 0x5C52 DUP2 PUSH2 0x6261 JUMP JUMPDEST DUP3 MSTORE POP POP JUMP JUMPDEST PUSH1 0x0 PUSH2 0x5C64 DUP3 DUP5 PUSH2 0x5ADB JUMP JUMPDEST SWAP2 POP DUP2 SWAP1 POP SWAP3 SWAP2 POP POP JUMP JUMPDEST PUSH1 0x0 PUSH2 0x5C7A DUP3 PUSH2 0x5B8B JUMP JUMPDEST SWAP2 POP PUSH2 0x5C86 DUP3 DUP6 PUSH2 0x5AC4 JUMP JUMPDEST PUSH1 0x20 DUP3 ADD SWAP2 POP PUSH2 0x5C96 DUP3 DUP5 PUSH2 0x5AC4 JUMP JUMPDEST PUSH1 0x20 DUP3 ADD SWAP2 POP DUP2 SWAP1 POP SWAP4 SWAP3 POP POP POP JUMP JUMPDEST PUSH1 0x0 PUSH1 0x20 DUP3 ADD SWAP1 POP PUSH2 0x5CBB PUSH1 0x0 DUP4 ADD DUP5 PUSH2 0x5A97 JUMP JUMPDEST SWAP3 SWAP2 POP POP JUMP JUMPDEST PUSH1 0x0 PUSH1 0x80 DUP3 ADD SWAP1 POP PUSH2 0x5CD6 PUSH1 0x0 DUP4 ADD DUP8 PUSH2 0x5A97 JUMP JUMPDEST PUSH2 0x5CE3 PUSH1 0x20 DUP4 ADD DUP7 PUSH2 0x5AA6 JUMP JUMPDEST PUSH2 0x5CF0 PUSH1 0x40 DUP4 ADD DUP6 PUSH2 0x5C3A JUMP JUMPDEST PUSH2 0x5CFD PUSH1 0x60 DUP4 ADD DUP5 PUSH2 0x5C3A JUMP JUMPDEST SWAP6 SWAP5 POP POP POP POP POP JUMP JUMPDEST PUSH1 0x0 PUSH1 0x40 DUP3 ADD SWAP1 POP PUSH2 0x5D1B PUSH1 0x0 DUP4 ADD DUP6 PUSH2 0x5A97 JUMP JUMPDEST PUSH2 0x5D28 PUSH1 0x20 DUP4 ADD DUP5 PUSH2 0x5C3A JUMP JUMPDEST SWAP4 SWAP3 POP POP POP JUMP JUMPDEST PUSH1 0x0 PUSH1 0x20 DUP3 ADD SWAP1 POP PUSH2 0x5D44 PUSH1 0x0 DUP4 ADD DUP5 PUSH2 0x5AA6 JUMP JUMPDEST SWAP3 SWAP2 POP POP JUMP JUMPDEST PUSH1 0x0 PUSH1 0x20 DUP3 ADD SWAP1 POP PUSH2 0x5D5F PUSH1 0x0 DUP4 ADD DUP5 PUSH2 0x5AB5 JUMP JUMPDEST SWAP3 SWAP2 POP POP JUMP JUMPDEST PUSH1 0x0 PUSH1 0xC0 DUP3 ADD SWAP1 POP PUSH2 0x5D7A PUSH1 0x0 DUP4 ADD DUP10 PUSH2 0x5AB5 JUMP JUMPDEST PUSH2 0x5D87 PUSH1 0x20 DUP4 ADD DUP9 PUSH2 0x5A97 JUMP JUMPDEST PUSH2 0x5D94 PUSH1 0x40 DUP4 ADD DUP8 PUSH2 0x5A97 JUMP JUMPDEST PUSH2 0x5DA1 PUSH1 0x60 DUP4 ADD DUP7 PUSH2 0x5C3A JUMP JUMPDEST PUSH2 0x5DAE PUSH1 0x80 DUP4 ADD DUP6 PUSH2 0x5C3A JUMP JUMPDEST PUSH2 0x5DBB PUSH1 0xA0 DUP4 ADD DUP5 PUSH2 0x5C3A JUMP JUMPDEST SWAP8 SWAP7 POP POP POP POP POP POP POP JUMP JUMPDEST PUSH1 0x0 PUSH1 0x80 DUP3 ADD SWAP1 POP PUSH2 0x5DDB PUSH1 0x0 DUP4 ADD DUP8 PUSH2 0x5AB5 JUMP JUMPDEST PUSH2 0x5DE8 PUSH1 0x20 DUP4 ADD DUP7 PUSH2 0x5C49 JUMP JUMPDEST PUSH2 0x5DF5 PUSH1 0x40 DUP4 ADD DUP6 PUSH2 0x5AB5 JUMP JUMPDEST PUSH2 0x5E02 PUSH1 0x60 DUP4 ADD DUP5 PUSH2 0x5AB5 JUMP JUMPDEST SWAP6 SWAP5 POP POP POP POP POP JUMP JUMPDEST PUSH1 0x0 PUSH1 0x20 DUP3 ADD SWAP1 POP DUP2 DUP2 SUB PUSH1 0x0 DUP4 ADD MSTORE PUSH2 0x5E25 DUP2 DUP5 PUSH2 0x5B0C JUMP JUMPDEST SWAP1 POP SWAP3 SWAP2 POP POP JUMP JUMPDEST PUSH1 0x0 PUSH1 0x20 DUP3 ADD SWAP1 POP DUP2 DUP2 SUB PUSH1 0x0 DUP4 ADD MSTORE PUSH2 0x5E46 DUP2 PUSH2 0x5B45 JUMP JUMPDEST SWAP1 POP SWAP2 SWAP1 POP JUMP JUMPDEST PUSH1 0x0 PUSH1 0x20 DUP3 ADD SWAP1 POP DUP2 DUP2 SUB PUSH1 0x0 DUP4 ADD MSTORE PUSH2 0x5E66 DUP2 PUSH2 0x5B68 JUMP JUMPDEST SWAP1 POP SWAP2 SWAP1 POP JUMP JUMPDEST PUSH1 0x0 PUSH1 0x20 DUP3 ADD SWAP1 POP DUP2 DUP2 SUB PUSH1 0x0 DUP4 ADD MSTORE PUSH2 0x5E86 DUP2 PUSH2 0x5BAE JUMP JUMPDEST SWAP1 POP SWAP2 SWAP1 POP JUMP JUMPDEST PUSH1 0x0 PUSH1 0x20 DUP3 ADD SWAP1 POP DUP2 DUP2 SUB PUSH1 0x0 DUP4 ADD MSTORE PUSH2 0x5EA6 DUP2 PUSH2 0x5BD1 JUMP JUMPDEST SWAP1 POP SWAP2 SWAP1 POP JUMP JUMPDEST PUSH1 0x0 PUSH1 0x20 DUP3 ADD SWAP1 POP DUP2 DUP2 SUB PUSH1 0x0 DUP4 ADD MSTORE PUSH2 0x5EC6 DUP2 PUSH2 0x5BF4 JUMP JUMPDEST SWAP1 POP SWAP2 SWAP1 POP JUMP JUMPDEST PUSH1 0x0 PUSH1 0x20 DUP3 ADD SWAP1 POP DUP2 DUP2 SUB PUSH1 0x0 DUP4 ADD MSTORE PUSH2 0x5EE6 DUP2 PUSH2 0x5C17 JUMP JUMPDEST SWAP1 POP SWAP2 SWAP1 POP JUMP JUMPDEST PUSH1 0x0 PUSH1 0x20 DUP3 ADD SWAP1 POP PUSH2 0x5F02 PUSH1 0x0 DUP4 ADD DUP5 PUSH2 0x5C3A JUMP JUMPDEST SWAP3 SWAP2 POP POP JUMP JUMPDEST PUSH1 0x0 PUSH1 0x40 DUP3 ADD SWAP1 POP PUSH2 0x5F1D PUSH1 0x0 DUP4 ADD DUP6 PUSH2 0x5C3A JUMP JUMPDEST PUSH2 0x5F2A PUSH1 0x20 DUP4 ADD DUP5 PUSH2 0x5C3A JUMP JUMPDEST SWAP4 SWAP3 POP POP POP JUMP JUMPDEST PUSH1 0x0 PUSH1 0x20 DUP3 ADD SWAP1 POP PUSH2 0x5F46 PUSH1 0x0 DUP4 ADD DUP5 PUSH2 0x5C49 JUMP JUMPDEST SWAP3 SWAP2 POP POP JUMP JUMPDEST PUSH1 0x0 DUP2 MLOAD SWAP1 POP SWAP2 SWAP1 POP JUMP JUMPDEST PUSH1 0x0 DUP2 MLOAD SWAP1 POP SWAP2 SWAP1 POP JUMP JUMPDEST PUSH1 0x0 DUP2 SWAP1 POP SWAP3 SWAP2 POP POP JUMP JUMPDEST PUSH1 0x0 DUP3 DUP3 MSTORE PUSH1 0x20 DUP3 ADD SWAP1 POP SWAP3 SWAP2 POP POP JUMP JUMPDEST PUSH1 0x0 DUP2 SWAP1 POP SWAP3 SWAP2 POP POP JUMP JUMPDEST PUSH1 0x0 PUSH2 0x5F94 DUP3 PUSH2 0x6257 JUMP JUMPDEST SWAP2 POP PUSH2 0x5F9F DUP4 PUSH2 0x6257 JUMP JUMPDEST SWAP3 POP DUP3 PUSH32 0xFFFFFFFFFFFFFFFFFFFFFFFFFFFFFFFFFFFFFFFFFFFFFFFFFFFFFFFFFFFFFFFF SUB DUP3 GT ISZERO PUSH2 0x5FD4 JUMPI PUSH2 0x5FD3 PUSH2 0x62F4 JUMP JUMPDEST JUMPDEST DUP3 DUP3 ADD SWAP1 POP SWAP3 SWAP2 POP POP JUMP JUMPDEST PUSH1 0x0 PUSH2 0x5FEA DUP3 PUSH2 0x6257 JUMP JUMPDEST SWAP2 POP PUSH2 0x5FF5 DUP4 PUSH2 0x6257 JUMP JUMPDEST SWAP3 POP DUP3 PUSH2 0x6005 JUMPI PUSH2 0x6004 PUSH2 0x6323 JUMP JUMPDEST JUMPDEST DUP3 DUP3 DIV SWAP1 POP SWAP3 SWAP2 POP POP JUMP JUMPDEST PUSH1 0x0 DUP1 DUP3 SWAP2 POP DUP4 SWAP1 POP JUMPDEST PUSH1 0x1 DUP6 GT ISZERO PUSH2 0x605A JUMPI DUP1 DUP7 DIV DUP2 GT ISZERO PUSH2 0x6036 JUMPI PUSH2 0x6035 PUSH2 0x62F4 JUMP JUMPDEST JUMPDEST PUSH1 0x1 DUP6 AND ISZERO PUSH2 0x6045 JUMPI DUP1 DUP3 MUL SWAP2 POP JUMPDEST DUP1 DUP2 MUL SWAP1 POP PUSH2 0x6053 DUP6 PUSH2 0x6397 JUMP JUMPDEST SWAP5 POP PUSH2 0x601A JUMP JUMPDEST SWAP5 POP SWAP5 SWAP3 POP POP POP JUMP JUMPDEST PUSH1 0x0 PUSH2 0x606E DUP3 PUSH2 0x6257 JUMP JUMPDEST SWAP2 POP PUSH2 0x6079 DUP4 PUSH2 0x6261 JUMP JUMPDEST SWAP3 POP PUSH2 0x60A6 PUSH32 0xFFFFFFFFFFFFFFFFFFFFFFFFFFFFFFFFFFFFFFFFFFFFFFFFFFFFFFFFFFFFFFFF DUP5 DUP5 PUSH2 0x60AE JUMP JUMPDEST SWAP1 POP SWAP3 SWAP2 POP POP JUMP JUMPDEST PUSH1 0x0 DUP3 PUSH2 0x60BE JUMPI PUSH1 0x1 SWAP1 POP PUSH2 0x617A JUMP JUMPDEST DUP2 PUSH2 0x60CC JUMPI PUSH1 0x0 SWAP1 POP PUSH2 0x617A JUMP JUMPDEST DUP2 PUSH1 0x1 DUP2 EQ PUSH2 0x60E2 JUMPI PUSH1 0x2 DUP2 EQ PUSH2 0x60EC JUMPI PUSH2 0x611B JUMP JUMPDEST PUSH1 0x1 SWAP2 POP POP PUSH2 0x617A JUMP JUMPDEST PUSH1 0xFF DUP5 GT ISZERO PUSH2 0x60FE JUMPI PUSH2 0x60FD PUSH2 0x62F4 JUMP JUMPDEST JUMPDEST DUP4 PUSH1 0x2 EXP SWAP2 POP DUP5 DUP3 GT ISZERO PUSH2 0x6115 JUMPI PUSH2 0x6114 PUSH2 0x62F4 JUMP JUMPDEST JUMPDEST POP PUSH2 0x617A JUMP JUMPDEST POP PUSH1 0x20 DUP4 LT PUSH2 0x133 DUP4 LT AND PUSH1 0x4E DUP5 LT PUSH1 0xB DUP5 LT AND OR ISZERO PUSH2 0x6150 JUMPI DUP3 DUP3 EXP SWAP1 POP DUP4 DUP2 GT ISZERO PUSH2 0x614B JUMPI PUSH2 0x614A PUSH2 0x62F4 JUMP JUMPDEST JUMPDEST PUSH2 0x617A JUMP JUMPDEST PUSH2 0x615D DUP5 DUP5 DUP5 PUSH1 0x1 PUSH2 0x6010 JUMP JUMPDEST SWAP3 POP SWAP1 POP DUP2 DUP5 DIV DUP2 GT ISZERO PUSH2 0x6174 JUMPI PUSH2 0x6173 PUSH2 0x62F4 JUMP JUMPDEST JUMPDEST DUP2 DUP2 MUL SWAP1 POP JUMPDEST SWAP4 SWAP3 POP POP POP JUMP JUMPDEST PUSH1 0x0 PUSH2 0x618C DUP3 PUSH2 0x6257 JUMP JUMPDEST SWAP2 POP PUSH2 0x6197 DUP4 PUSH2 0x6257 JUMP JUMPDEST SWAP3 POP DUP2 PUSH32 0xFFFFFFFFFFFFFFFFFFFFFFFFFFFFFFFFFFFFFFFFFFFFFFFFFFFFFFFFFFFFFFFF DIV DUP4 GT DUP3 ISZERO ISZERO AND ISZERO PUSH2 0x61D0 JUMPI PUSH2 0x61CF PUSH2 0x62F4 JUMP JUMPDEST JUMPDEST DUP3 DUP3 MUL SWAP1 POP SWAP3 SWAP2 POP POP JUMP JUMPDEST PUSH1 0x0 PUSH2 0x61E6 DUP3 PUSH2 0x6257 JUMP JUMPDEST SWAP2 POP PUSH2 0x61F1 DUP4 PUSH2 0x6257 JUMP JUMPDEST SWAP3 POP DUP3 DUP3 LT ISZERO PUSH2 0x6204 JUMPI PUSH2 0x6203 PUSH2 0x62F4 JUMP JUMPDEST JUMPDEST DUP3 DUP3 SUB SWAP1 POP SWAP3 SWAP2 POP POP JUMP JUMPDEST PUSH1 0x0 PUSH2 0x621A DUP3 PUSH2 0x6237 JUMP JUMPDEST SWAP1 POP SWAP2 SWAP1 POP JUMP JUMPDEST PUSH1 0x0 DUP2 ISZERO ISZERO SWAP1 POP SWAP2 SWAP1 POP JUMP JUMPDEST PUSH1 0x0 DUP2 SWAP1 POP SWAP2 SWAP1 POP JUMP JUMPDEST PUSH1 0x0 PUSH20 0xFFFFFFFFFFFFFFFFFFFFFFFFFFFFFFFFFFFFFFFF DUP3 AND SWAP1 POP SWAP2 SWAP1 POP JUMP JUMPDEST PUSH1 0x0 DUP2 SWAP1 POP SWAP2 SWAP1 POP JUMP JUMPDEST PUSH1 0x0 PUSH1 0xFF DUP3 AND SWAP1 POP SWAP2 SWAP1 POP JUMP JUMPDEST PUSH1 0x0 JUMPDEST DUP4 DUP2 LT ISZERO PUSH2 0x628C JUMPI DUP1 DUP3 ADD MLOAD DUP2 DUP5 ADD MSTORE PUSH1 0x20 DUP2 ADD SWAP1 POP PUSH2 0x6271 JUMP JUMPDEST DUP4 DUP2 GT ISZERO PUSH2 0x629B JUMPI PUSH1 0x0 DUP5 DUP5 ADD MSTORE JUMPDEST POP POP POP POP JUMP JUMPDEST PUSH1 0x0 PUSH2 0x62AC DUP3 PUSH2 0x6257 JUMP JUMPDEST SWAP2 POP PUSH32 0xFFFFFFFFFFFFFFFFFFFFFFFFFFFFFFFFFFFFFFFFFFFFFFFFFFFFFFFFFFFFFFFF DUP3 EQ ISZERO PUSH2 0x62DF JUMPI PUSH2 0x62DE PUSH2 0x62F4 JUMP JUMPDEST JUMPDEST PUSH1 0x1 DUP3 ADD SWAP1 POP SWAP2 SWAP1 POP JUMP JUMPDEST PUSH1 0x0 DUP2 SWAP1 POP SWAP2 SWAP1 POP JUMP JUMPDEST PUSH32 0x4E487B7100000000000000000000000000000000000000000000000000000000 PUSH1 0x0 MSTORE PUSH1 0x11 PUSH1 0x4 MSTORE PUSH1 0x24 PUSH1 0x0 REVERT JUMPDEST PUSH32 0x4E487B7100000000000000000000000000000000000000000000000000000000 PUSH1 0x0 MSTORE PUSH1 0x12 PUSH1 0x4 MSTORE PUSH1 0x24 PUSH1 0x0 REVERT JUMPDEST PUSH32 0x4E487B7100000000000000000000000000000000000000000000000000000000 PUSH1 0x0 MSTORE PUSH1 0x32 PUSH1 0x4 MSTORE PUSH1 0x24 PUSH1 0x0 REVERT JUMPDEST PUSH1 0x0 DUP1 REVERT JUMPDEST PUSH1 0x0 PUSH1 0x1F NOT PUSH1 0x1F DUP4 ADD AND SWAP1 POP SWAP2 SWAP1 POP JUMP JUMPDEST PUSH1 0x0 DUP2 PUSH1 0x1 SHR SWAP1 POP SWAP2 SWAP1 POP JUMP JUMPDEST PUSH32 0x64732D6D6174682D7375622D756E646572666C6F770000000000000000000000 PUSH1 0x0 DUP3 ADD MSTORE POP JUMP JUMPDEST PUSH32 0x556E697377617056323A20494E56414C49445F5349474E415455524500000000 PUSH1 0x0 DUP3 ADD MSTORE POP JUMP JUMPDEST PUSH32 0x1901000000000000000000000000000000000000000000000000000000000000 PUSH1 0x0 DUP3 ADD MSTORE POP JUMP JUMPDEST PUSH32 0x64732D6D6174682D6164642D6F766572666C6F77000000000000000000000000 PUSH1 0x0 DUP3 ADD MSTORE POP JUMP JUMPDEST PUSH32 0x556E697377617056323A20455850495245440000000000000000000000000000 PUSH1 0x0 DUP3 ADD MSTORE POP JUMP JUMPDEST PUSH32 0x5452414E534645525F4641494C45440000000000000000000000000000000000 PUSH1 0x0 DUP3 ADD MSTORE POP JUMP JUMPDEST PUSH32 0x4C4F434B45440000000000000000000000000000000000000000000000000000 PUSH1 0x0 DUP3 ADD MSTORE POP JUMP JUMPDEST PUSH2 0x64CC DUP2 PUSH2 0x620F JUMP JUMPDEST DUP2 EQ PUSH2 0x64D7 JUMPI PUSH1 0x0 DUP1 REVERT JUMPDEST POP JUMP JUMPDEST PUSH2 0x64E3 DUP2 PUSH2 0x6221 JUMP JUMPDEST DUP2 EQ PUSH2 0x64EE JUMPI PUSH1 0x0 DUP1 REVERT JUMPDEST POP JUMP JUMPDEST PUSH2 0x64FA DUP2 PUSH2 0x622D JUMP JUMPDEST DUP2 EQ PUSH2 0x6505 JUMPI PUSH1 0x0 DUP1 REVERT JUMPDEST POP JUMP JUMPDEST PUSH2 0x6511 DUP2 PUSH2 0x6257 JUMP JUMPDEST DUP2 EQ PUSH2 0x651C JUMPI PUSH1 0x0 DUP1 REVERT JUMPDEST POP JUMP JUMPDEST PUSH2 0x6528 DUP2 PUSH2 0x6261 JUMP JUMPDEST DUP2 EQ PUSH2 0x6533 JUMPI PUSH1 0x0 DUP1 REVERT JUMPDEST POP JUMP INVALID LOG2 PUSH5 0x6970667358 0x22 SLT KECCAK256 SWAP13 0xC5 0xEC 0xEB 0xAD SLOAD 0xA7 0xEF PUSH15 0x3A300B18B8B37EE981D5BB505C8919 0xC9 DUP5 0xDC 0xD7 ADDMOD 0xD0 0xE6 0xE PUSH5 0x736F6C6343 STOP ADDMOD SMOD STOP CALLER "
		},
		"gasEstimates": {
			"creation": {
				"codeDepositCost": "5192800",
				"executionCost": "infinite",
				"totalCost": "infinite"
			},
			"external": {
				"Add_Liquidity(uint256,uint256,address)": "infinite",
				"Add_Margin(address,address)": "infinite",
				"B()": "2542",
				"Base_rate()": "2542",
				"Burn_Liquidity(uint256,address)": "infinite",
				"C()": "2497",
				"D()": "2498",
				"D0()": "2517",
				"DOMAIN_SEPARATOR()": "2564",
				"Leverage_Margin()": "2563",
				"Leverage_Max()": "2498",
				"Liquidate(address,address)": "infinite",
				"Liquidation_bonus()": "2495",
				"Liquidation_rate()": "2541",
				"Margin_reserve(uint256)": "infinite",
				"N()": "2563",
				"N_Last()": "2540",
				"PERMIT_TYPEHASH()": "404",
				"Peqx()": "2499",
				"Peqy()": "2561",
				"Perp_close(uint256,uint256,address)": "infinite",
				"Perp_open(uint256,uint256,bool,address)": "infinite",
				"Price_local()": "2541",
				"Set_LeverageMargin(uint256)": "24757",
				"Set_Liquidation_rate(uint256)": "24844",
				"Set_fundingrate_upper(uint256)": "24826",
				"Tick_range()": "2518",
				"Total_Liquidity()": "2541",
				"Total_debt_X()": "2542",
				"Total_debt_Y()": "2564",
				"Total_debttoken_X()": "2518",
				"Total_debttoken_Y()": "2520",
				"True_Liquid_X()": "2519",
				"True_Liquid_X0()": "2562",
				"True_Liquid_Y()": "2519",
				"True_Liquid_Y0()": "2562",
				"X_Coord()": "2519",
				"Xeq()": "2497",
				"Xgetp()": "2496",
				"Y_Coord()": "2497",
				"Yeq()": "2564",
				"Ygetp()": "2518",
				"_swap()": "infinite",
				"allowance(address,address)": "infinite",
				"approve(address,uint256)": "infinite",
				"balanceOf(address)": "2925",
				"const18()": "2584",
				"debt_index(address,bool)": "infinite",
				"decimals()": "426",
				"factory()": "2604",
				"fee()": "2496",
				"funding_Last()": "2519",
				"funding_x_8h_upper()": "2540",
				"fundingtime_Last()": "2541",
				"initialize(address,address)": "infinite",
				"margin_index(address,uint256)": "infinite",
				"name()": "infinite",
				"nonces(address)": "2905",
				"paying_side_Last()": "2583",
				"permit(address,address,uint256,uint256,uint8,bytes32,bytes32)": "infinite",
				"skim(address)": "infinite",
				"symbol()": "infinite",
				"tokenX()": "2627",
				"tokenY()": "2647",
				"totalSupply()": "2564",
				"transfer(address,uint256)": "infinite",
				"transferFrom(address,address,uint256)": "infinite"
			},
			"internal": {
				"Net_Margin(address)": "infinite",
				"Net_Position(address)": "infinite",
				"Net_debt(address)": "infinite",
				"TradeXToExactY(uint256,uint256,bool)": "infinite",
				"TradeYToExactX(uint256,uint256,bool)": "infinite",
				"Trade_XtoY(uint256,bool)": "infinite",
				"Trade_YtoX(uint256,bool)": "infinite",
				"Virtual_Liquidity_Update()": "infinite",
				"WithdrawMargin(address,address,address,uint256)": "infinite",
				"_safeTransfer(address,address,uint256)": "infinite",
				"refresh_totalbook()": "infinite"
			}
		},
		"methodIdentifiers": {
			"Add_Liquidity(uint256,uint256,address)": "6126deef",
			"Add_Margin(address,address)": "8cf825e7",
			"B()": "32e7c5bf",
			"Base_rate()": "7ed6281b",
			"Burn_Liquidity(uint256,address)": "6665ff11",
			"C()": "83dfe5fd",
			"D()": "0f529ba2",
			"D0()": "f738c74e",
			"DOMAIN_SEPARATOR()": "3644e515",
			"Leverage_Margin()": "9a36e122",
			"Leverage_Max()": "18db9681",
			"Liquidate(address,address)": "c3d81b21",
			"Liquidation_bonus()": "f70f4394",
			"Liquidation_rate()": "8bc1a32f",
			"Margin_reserve(uint256)": "1cbdffd1",
			"N()": "c9e525df",
			"N_Last()": "acd4a7c2",
			"PERMIT_TYPEHASH()": "30adf81f",
			"Peqx()": "00b52645",
			"Peqy()": "fe18f261",
			"Perp_close(uint256,uint256,address)": "4c324e6a",
			"Perp_open(uint256,uint256,bool,address)": "9076ae86",
			"Price_local()": "480c4f7e",
			"Set_LeverageMargin(uint256)": "cfe38a5e",
			"Set_Liquidation_rate(uint256)": "ff2f169e",
			"Set_fundingrate_upper(uint256)": "0bfa68d8",
			"Tick_range()": "d44022db",
			"Total_Liquidity()": "2dd6c254",
			"Total_debt_X()": "2190219e",
			"Total_debt_Y()": "225c2c50",
			"Total_debttoken_X()": "6b3545aa",
			"Total_debttoken_Y()": "139860ee",
			"True_Liquid_X()": "5595d459",
			"True_Liquid_X0()": "79dbf8ea",
			"True_Liquid_Y()": "3c6fe2f4",
			"True_Liquid_Y0()": "ea1797b0",
			"X_Coord()": "84009686",
			"Xeq()": "8e361389",
			"Xgetp()": "a5aa65b9",
			"Y_Coord()": "36af2f9b",
			"Yeq()": "80416c02",
			"Ygetp()": "df0ab2c2",
			"_swap()": "30688ab8",
			"allowance(address,address)": "dd62ed3e",
			"approve(address,uint256)": "095ea7b3",
			"balanceOf(address)": "70a08231",
			"const18()": "7e11939a",
			"debt_index(address,bool)": "7e1431be",
			"decimals()": "313ce567",
			"factory()": "c45a0155",
			"fee()": "ddca3f43",
			"funding_Last()": "23ed16b6",
			"funding_x_8h_upper()": "e19a1474",
			"fundingtime_Last()": "5e287d86",
			"initialize(address,address)": "485cc955",
			"margin_index(address,uint256)": "fc69b80f",
			"name()": "06fdde03",
			"nonces(address)": "7ecebe00",
			"paying_side_Last()": "c7d44932",
			"permit(address,address,uint256,uint256,uint8,bytes32,bytes32)": "d505accf",
			"skim(address)": "bc25cf77",
			"symbol()": "95d89b41",
			"tokenX()": "16dc165b",
			"tokenY()": "b7d19fc4",
			"totalSupply()": "18160ddd",
			"transfer(address,uint256)": "a9059cbb",
			"transferFrom(address,address,uint256)": "23b872dd"
		}
	},
	"abi": [
		{
			"inputs": [],
			"stateMutability": "nonpayable",
			"type": "constructor"
		},
		{
			"anonymous": false,
			"inputs": [
				{
					"indexed": true,
					"internalType": "address",
					"name": "owner",
					"type": "address"
				},
				{
					"indexed": true,
					"internalType": "address",
					"name": "spender",
					"type": "address"
				},
				{
					"indexed": false,
					"internalType": "uint256",
					"name": "value",
					"type": "uint256"
				}
			],
			"name": "Approval",
			"type": "event"
		},
		{
			"anonymous": false,
			"inputs": [
				{
					"indexed": true,
					"internalType": "address",
					"name": "from",
					"type": "address"
				},
				{
					"indexed": true,
					"internalType": "address",
					"name": "to",
					"type": "address"
				},
				{
					"indexed": false,
					"internalType": "uint256",
					"name": "value",
					"type": "uint256"
				}
			],
			"name": "Transfer",
			"type": "event"
		},
		{
			"inputs": [
				{
					"internalType": "uint256",
					"name": "AddX",
					"type": "uint256"
				},
				{
					"internalType": "uint256",
					"name": "AddY",
					"type": "uint256"
				},
				{
					"internalType": "address",
					"name": "to",
					"type": "address"
				}
			],
			"name": "Add_Liquidity",
			"outputs": [
				{
					"internalType": "uint256",
					"name": "Liquidity",
					"type": "uint256"
				}
			],
			"stateMutability": "nonpayable",
			"type": "function"
		},
		{
			"inputs": [
				{
					"internalType": "address",
					"name": "tokenID",
					"type": "address"
				},
				{
					"internalType": "address",
					"name": "userID",
					"type": "address"
				}
			],
			"name": "Add_Margin",
			"outputs": [],
			"stateMutability": "nonpayable",
			"type": "function"
		},
		{
			"inputs": [],
			"name": "B",
			"outputs": [
				{
					"internalType": "uint256",
					"name": "",
					"type": "uint256"
				}
			],
			"stateMutability": "view",
			"type": "function"
		},
		{
			"inputs": [],
			"name": "Base_rate",
			"outputs": [
				{
					"internalType": "uint256",
					"name": "",
					"type": "uint256"
				}
			],
			"stateMutability": "view",
			"type": "function"
		},
		{
			"inputs": [
				{
					"internalType": "uint256",
					"name": "Liquidity",
					"type": "uint256"
				},
				{
					"internalType": "address",
					"name": "to",
					"type": "address"
				}
			],
			"name": "Burn_Liquidity",
			"outputs": [
				{
					"internalType": "uint256",
					"name": "BurX",
					"type": "uint256"
				},
				{
					"internalType": "uint256",
					"name": "BurY",
					"type": "uint256"
				}
			],
			"stateMutability": "nonpayable",
			"type": "function"
		},
		{
			"inputs": [],
			"name": "C",
			"outputs": [
				{
					"internalType": "uint256",
					"name": "",
					"type": "uint256"
				}
			],
			"stateMutability": "view",
			"type": "function"
		},
		{
			"inputs": [],
			"name": "D",
			"outputs": [
				{
					"internalType": "uint256",
					"name": "",
					"type": "uint256"
				}
			],
			"stateMutability": "view",
			"type": "function"
		},
		{
			"inputs": [],
			"name": "D0",
			"outputs": [
				{
					"internalType": "uint256",
					"name": "",
					"type": "uint256"
				}
			],
			"stateMutability": "view",
			"type": "function"
		},
		{
			"inputs": [],
			"name": "DOMAIN_SEPARATOR",
			"outputs": [
				{
					"internalType": "bytes32",
					"name": "",
					"type": "bytes32"
				}
			],
			"stateMutability": "view",
			"type": "function"
		},
		{
			"inputs": [],
			"name": "Leverage_Margin",
			"outputs": [
				{
					"internalType": "uint256",
					"name": "",
					"type": "uint256"
				}
			],
			"stateMutability": "view",
			"type": "function"
		},
		{
			"inputs": [],
			"name": "Leverage_Max",
			"outputs": [
				{
					"internalType": "uint256",
					"name": "",
					"type": "uint256"
				}
			],
			"stateMutability": "view",
			"type": "function"
		},
		{
			"inputs": [
				{
					"internalType": "address",
					"name": "userID",
					"type": "address"
				},
				{
					"internalType": "address",
					"name": "_to",
					"type": "address"
				}
			],
			"name": "Liquidate",
			"outputs": [],
			"stateMutability": "nonpayable",
			"type": "function"
		},
		{
			"inputs": [],
			"name": "Liquidation_bonus",
			"outputs": [
				{
					"internalType": "uint256",
					"name": "",
					"type": "uint256"
				}
			],
			"stateMutability": "view",
			"type": "function"
		},
		{
			"inputs": [],
			"name": "Liquidation_rate",
			"outputs": [
				{
					"internalType": "uint256",
					"name": "",
					"type": "uint256"
				}
			],
			"stateMutability": "view",
			"type": "function"
		},
		{
			"inputs": [
				{
					"internalType": "uint256",
					"name": "",
					"type": "uint256"
				}
			],
			"name": "Margin_reserve",
			"outputs": [
				{
					"internalType": "uint256",
					"name": "",
					"type": "uint256"
				}
			],
			"stateMutability": "view",
			"type": "function"
		},
		{
			"inputs": [],
			"name": "N",
			"outputs": [
				{
					"internalType": "uint256",
					"name": "",
					"type": "uint256"
				}
			],
			"stateMutability": "view",
			"type": "function"
		},
		{
			"inputs": [],
			"name": "N_Last",
			"outputs": [
				{
					"internalType": "uint256",
					"name": "",
					"type": "uint256"
				}
			],
			"stateMutability": "view",
			"type": "function"
		},
		{
			"inputs": [],
			"name": "PERMIT_TYPEHASH",
			"outputs": [
				{
					"internalType": "bytes32",
					"name": "",
					"type": "bytes32"
				}
			],
			"stateMutability": "view",
			"type": "function"
		},
		{
			"inputs": [],
			"name": "Peqx",
			"outputs": [
				{
					"internalType": "uint256",
					"name": "",
					"type": "uint256"
				}
			],
			"stateMutability": "view",
			"type": "function"
		},
		{
			"inputs": [],
			"name": "Peqy",
			"outputs": [
				{
					"internalType": "uint256",
					"name": "",
					"type": "uint256"
				}
			],
			"stateMutability": "view",
			"type": "function"
		},
		{
			"inputs": [
				{
					"internalType": "uint256",
					"name": "delta_X",
					"type": "uint256"
				},
				{
					"internalType": "uint256",
					"name": "delta_Y",
					"type": "uint256"
				},
				{
					"internalType": "address",
					"name": "userID",
					"type": "address"
				}
			],
			"name": "Perp_close",
			"outputs": [],
			"stateMutability": "nonpayable",
			"type": "function"
		},
		{
			"inputs": [
				{
					"internalType": "uint256",
					"name": "delta_X",
					"type": "uint256"
				},
				{
					"internalType": "uint256",
					"name": "delta_Y",
					"type": "uint256"
				},
				{
					"internalType": "bool",
					"name": "XtoY",
					"type": "bool"
				},
				{
					"internalType": "address",
					"name": "userID",
					"type": "address"
				}
			],
			"name": "Perp_open",
			"outputs": [],
			"stateMutability": "nonpayable",
			"type": "function"
		},
		{
			"inputs": [],
			"name": "Price_local",
			"outputs": [
				{
					"internalType": "uint256",
					"name": "",
					"type": "uint256"
				}
			],
			"stateMutability": "view",
			"type": "function"
		},
		{
			"inputs": [
				{
					"internalType": "uint256",
					"name": "L",
					"type": "uint256"
				}
			],
			"name": "Set_LeverageMargin",
			"outputs": [],
			"stateMutability": "nonpayable",
			"type": "function"
		},
		{
			"inputs": [
				{
					"internalType": "uint256",
					"name": "rate",
					"type": "uint256"
				}
			],
			"name": "Set_Liquidation_rate",
			"outputs": [],
			"stateMutability": "nonpayable",
			"type": "function"
		},
		{
			"inputs": [
				{
					"internalType": "uint256",
					"name": "f",
					"type": "uint256"
				}
			],
			"name": "Set_fundingrate_upper",
			"outputs": [],
			"stateMutability": "nonpayable",
			"type": "function"
		},
		{
			"inputs": [],
			"name": "Tick_range",
			"outputs": [
				{
					"internalType": "uint256",
					"name": "",
					"type": "uint256"
				}
			],
			"stateMutability": "view",
			"type": "function"
		},
		{
			"inputs": [],
			"name": "Total_Liquidity",
			"outputs": [
				{
					"internalType": "uint256",
					"name": "",
					"type": "uint256"
				}
			],
			"stateMutability": "view",
			"type": "function"
		},
		{
			"inputs": [],
			"name": "Total_debt_X",
			"outputs": [
				{
					"internalType": "uint256",
					"name": "",
					"type": "uint256"
				}
			],
			"stateMutability": "view",
			"type": "function"
		},
		{
			"inputs": [],
			"name": "Total_debt_Y",
			"outputs": [
				{
					"internalType": "uint256",
					"name": "",
					"type": "uint256"
				}
			],
			"stateMutability": "view",
			"type": "function"
		},
		{
			"inputs": [],
			"name": "Total_debttoken_X",
			"outputs": [
				{
					"internalType": "uint256",
					"name": "",
					"type": "uint256"
				}
			],
			"stateMutability": "view",
			"type": "function"
		},
		{
			"inputs": [],
			"name": "Total_debttoken_Y",
			"outputs": [
				{
					"internalType": "uint256",
					"name": "",
					"type": "uint256"
				}
			],
			"stateMutability": "view",
			"type": "function"
		},
		{
			"inputs": [],
			"name": "True_Liquid_X",
			"outputs": [
				{
					"internalType": "uint256",
					"name": "",
					"type": "uint256"
				}
			],
			"stateMutability": "view",
			"type": "function"
		},
		{
			"inputs": [],
			"name": "True_Liquid_X0",
			"outputs": [
				{
					"internalType": "uint256",
					"name": "",
					"type": "uint256"
				}
			],
			"stateMutability": "view",
			"type": "function"
		},
		{
			"inputs": [],
			"name": "True_Liquid_Y",
			"outputs": [
				{
					"internalType": "uint256",
					"name": "",
					"type": "uint256"
				}
			],
			"stateMutability": "view",
			"type": "function"
		},
		{
			"inputs": [],
			"name": "True_Liquid_Y0",
			"outputs": [
				{
					"internalType": "uint256",
					"name": "",
					"type": "uint256"
				}
			],
			"stateMutability": "view",
			"type": "function"
		},
		{
			"inputs": [],
			"name": "X_Coord",
			"outputs": [
				{
					"internalType": "uint256",
					"name": "",
					"type": "uint256"
				}
			],
			"stateMutability": "view",
			"type": "function"
		},
		{
			"inputs": [],
			"name": "Xeq",
			"outputs": [
				{
					"internalType": "uint256",
					"name": "",
					"type": "uint256"
				}
			],
			"stateMutability": "view",
			"type": "function"
		},
		{
			"inputs": [],
			"name": "Xgetp",
			"outputs": [
				{
					"internalType": "uint256",
					"name": "",
					"type": "uint256"
				}
			],
			"stateMutability": "view",
			"type": "function"
		},
		{
			"inputs": [],
			"name": "Y_Coord",
			"outputs": [
				{
					"internalType": "uint256",
					"name": "",
					"type": "uint256"
				}
			],
			"stateMutability": "view",
			"type": "function"
		},
		{
			"inputs": [],
			"name": "Yeq",
			"outputs": [
				{
					"internalType": "uint256",
					"name": "",
					"type": "uint256"
				}
			],
			"stateMutability": "view",
			"type": "function"
		},
		{
			"inputs": [],
			"name": "Ygetp",
			"outputs": [
				{
					"internalType": "uint256",
					"name": "",
					"type": "uint256"
				}
			],
			"stateMutability": "view",
			"type": "function"
		},
		{
			"inputs": [],
			"name": "_swap",
			"outputs": [
				{
					"internalType": "uint256",
					"name": "amountXIn",
					"type": "uint256"
				},
				{
					"internalType": "uint256",
					"name": "amountYIn",
					"type": "uint256"
				}
			],
			"stateMutability": "view",
			"type": "function"
		},
		{
			"inputs": [
				{
					"internalType": "address",
					"name": "",
					"type": "address"
				},
				{
					"internalType": "address",
					"name": "",
					"type": "address"
				}
			],
			"name": "allowance",
			"outputs": [
				{
					"internalType": "uint256",
					"name": "",
					"type": "uint256"
				}
			],
			"stateMutability": "view",
			"type": "function"
		},
		{
			"inputs": [
				{
					"internalType": "address",
					"name": "spender",
					"type": "address"
				},
				{
					"internalType": "uint256",
					"name": "value",
					"type": "uint256"
				}
			],
			"name": "approve",
			"outputs": [
				{
					"internalType": "bool",
					"name": "",
					"type": "bool"
				}
			],
			"stateMutability": "nonpayable",
			"type": "function"
		},
		{
			"inputs": [
				{
					"internalType": "address",
					"name": "",
					"type": "address"
				}
			],
			"name": "balanceOf",
			"outputs": [
				{
					"internalType": "uint256",
					"name": "",
					"type": "uint256"
				}
			],
			"stateMutability": "view",
			"type": "function"
		},
		{
			"inputs": [],
			"name": "const18",
			"outputs": [
				{
					"internalType": "uint256",
					"name": "",
					"type": "uint256"
				}
			],
			"stateMutability": "view",
			"type": "function"
		},
		{
			"inputs": [
				{
					"internalType": "address",
					"name": "",
					"type": "address"
				},
				{
					"internalType": "bool",
					"name": "",
					"type": "bool"
				}
			],
			"name": "debt_index",
			"outputs": [
				{
					"internalType": "address",
					"name": "user_ID",
					"type": "address"
				},
				{
					"internalType": "bool",
					"name": "token_ID",
					"type": "bool"
				},
				{
					"internalType": "uint256",
					"name": "debttoken_amount",
					"type": "uint256"
				},
				{
					"internalType": "uint256",
					"name": "position_amount",
					"type": "uint256"
				}
			],
			"stateMutability": "view",
			"type": "function"
		},
		{
			"inputs": [],
			"name": "decimals",
			"outputs": [
				{
					"internalType": "uint8",
					"name": "",
					"type": "uint8"
				}
			],
			"stateMutability": "view",
			"type": "function"
		},
		{
			"inputs": [],
			"name": "factory",
			"outputs": [
				{
					"internalType": "address",
					"name": "",
					"type": "address"
				}
			],
			"stateMutability": "view",
			"type": "function"
		},
		{
			"inputs": [],
			"name": "fee",
			"outputs": [
				{
					"internalType": "uint256",
					"name": "",
					"type": "uint256"
				}
			],
			"stateMutability": "view",
			"type": "function"
		},
		{
			"inputs": [],
			"name": "funding_Last",
			"outputs": [
				{
					"internalType": "uint256",
					"name": "",
					"type": "uint256"
				}
			],
			"stateMutability": "view",
			"type": "function"
		},
		{
			"inputs": [],
			"name": "funding_x_8h_upper",
			"outputs": [
				{
					"internalType": "uint256",
					"name": "",
					"type": "uint256"
				}
			],
			"stateMutability": "view",
			"type": "function"
		},
		{
			"inputs": [],
			"name": "fundingtime_Last",
			"outputs": [
				{
					"internalType": "uint256",
					"name": "",
					"type": "uint256"
				}
			],
			"stateMutability": "view",
			"type": "function"
		},
		{
			"inputs": [
				{
					"internalType": "address",
					"name": "_tokenX",
					"type": "address"
				},
				{
					"internalType": "address",
					"name": "_tokenY",
					"type": "address"
				}
			],
			"name": "initialize",
			"outputs": [],
			"stateMutability": "nonpayable",
			"type": "function"
		},
		{
			"inputs": [
				{
					"internalType": "address",
					"name": "",
					"type": "address"
				},
				{
					"internalType": "uint256",
					"name": "",
					"type": "uint256"
				}
			],
			"name": "margin_index",
			"outputs": [
				{
					"internalType": "uint256",
					"name": "",
					"type": "uint256"
				}
			],
			"stateMutability": "view",
			"type": "function"
		},
		{
			"inputs": [],
			"name": "name",
			"outputs": [
				{
					"internalType": "string",
					"name": "",
					"type": "string"
				}
			],
			"stateMutability": "view",
			"type": "function"
		},
		{
			"inputs": [
				{
					"internalType": "address",
					"name": "",
					"type": "address"
				}
			],
			"name": "nonces",
			"outputs": [
				{
					"internalType": "uint256",
					"name": "",
					"type": "uint256"
				}
			],
			"stateMutability": "view",
			"type": "function"
		},
		{
			"inputs": [],
			"name": "paying_side_Last",
			"outputs": [
				{
					"internalType": "bool",
					"name": "",
					"type": "bool"
				}
			],
			"stateMutability": "view",
			"type": "function"
		},
		{
			"inputs": [
				{
					"internalType": "address",
					"name": "owner",
					"type": "address"
				},
				{
					"internalType": "address",
					"name": "spender",
					"type": "address"
				},
				{
					"internalType": "uint256",
					"name": "value",
					"type": "uint256"
				},
				{
					"internalType": "uint256",
					"name": "deadline",
					"type": "uint256"
				},
				{
					"internalType": "uint8",
					"name": "v",
					"type": "uint8"
				},
				{
					"internalType": "bytes32",
					"name": "r",
					"type": "bytes32"
				},
				{
					"internalType": "bytes32",
					"name": "s",
					"type": "bytes32"
				}
			],
			"name": "permit",
			"outputs": [],
			"stateMutability": "nonpayable",
			"type": "function"
		},
		{
			"inputs": [
				{
					"internalType": "address",
					"name": "to",
					"type": "address"
				}
			],
			"name": "skim",
			"outputs": [],
			"stateMutability": "nonpayable",
			"type": "function"
		},
		{
			"inputs": [],
			"name": "symbol",
			"outputs": [
				{
					"internalType": "string",
					"name": "",
					"type": "string"
				}
			],
			"stateMutability": "view",
			"type": "function"
		},
		{
			"inputs": [],
			"name": "tokenX",
			"outputs": [
				{
					"internalType": "address",
					"name": "",
					"type": "address"
				}
			],
			"stateMutability": "view",
			"type": "function"
		},
		{
			"inputs": [],
			"name": "tokenY",
			"outputs": [
				{
					"internalType": "address",
					"name": "",
					"type": "address"
				}
			],
			"stateMutability": "view",
			"type": "function"
		},
		{
			"inputs": [],
			"name": "totalSupply",
			"outputs": [
				{
					"internalType": "uint256",
					"name": "",
					"type": "uint256"
				}
			],
			"stateMutability": "view",
			"type": "function"
		},
		{
			"inputs": [
				{
					"internalType": "address",
					"name": "to",
					"type": "address"
				},
				{
					"internalType": "uint256",
					"name": "value",
					"type": "uint256"
				}
			],
			"name": "transfer",
			"outputs": [
				{
					"internalType": "bool",
					"name": "",
					"type": "bool"
				}
			],
			"stateMutability": "nonpayable",
			"type": "function"
		},
		{
			"inputs": [
				{
					"internalType": "address",
					"name": "from",
					"type": "address"
				},
				{
					"internalType": "address",
					"name": "to",
					"type": "address"
				},
				{
					"internalType": "uint256",
					"name": "value",
					"type": "uint256"
				}
			],
			"name": "transferFrom",
			"outputs": [
				{
					"internalType": "bool",
					"name": "",
					"type": "bool"
				}
			],
			"stateMutability": "nonpayable",
			"type": "function"
		}
	]
}