{
	"data": {
		"bytecode": {
			"linkReferences": {},
			"object": "6080604052670de0b6b3a7640000601d5560016025556000602660006101000a81548160ff021916908360ff16021790555034801561003d57600080fd5b50614af18061004d6000396000f3fe608060405234801561001057600080fd5b506004361061027f5760003560e01c80637e11939a1161015c578063be6571aa116100ce578063ef0348fd11610087578063ef0348fd14610747578063f13c7aed14610765578063f738c74e14610783578063f8bcf560146107a1578063f92e82b0146107bd578063fcbc49a0146107db5761027f565b8063be6571aa14610693578063c45a0155146106b1578063c556c363146106cf578063d873fa7b146106ed578063e07b877a1461070b578063e159394f146107295761027f565b8063a01fbbf511610120578063a01fbbf5146105df578063a37b1918146105fd578063a71e86441461061b578063a79e6f9c14610639578063b7d19fc414610657578063b868504b146106755761027f565b80637e11939a1461054b578063803042ac1461056957806386b9d81f146105875780638c4008e9146105a35780638ca63e6f146105c15761027f565b80635091fadd116101f55780636bf8be75116101b95780636bf8be751461049b578063713370fc146104b7578063748f00dc146104d557806377fef068146104f15780637b7c1f4c1461050f5780637bb624501461052d5761027f565b80635091fadd1461040757806354cf2aeb146104255780635784c8c414610443578063617d3b901461046157806362ab1a771461047d5761027f565b806329baf8d91161024757806329baf8d91461032c5780632c4426ad1461034a57806331fa66b21461037d578063321d7fa91461039b57806332e7c5bf146103b9578063367401db146103d75761027f565b80630751a6c8146102845780630e449559146102a25780630f529ba2146102d257806315770f92146102f057806316dc165b1461030e575b600080fd5b61028c6107f9565b6040516102999190614635565b60405180910390f35b6102bc60048036038101906102b791906143af565b6107ff565b6040516102c99190614635565b60405180910390f35b6102da61081a565b6040516102e79190614635565b60405180910390f35b6102f8610820565b6040516103059190614635565b60405180910390f35b610316610826565b6040516103239190614551565b60405180910390f35b61033461084c565b6040516103419190614635565b60405180910390f35b610364600480360381019061035f9190614302565b610852565b604051610374949392919061456c565b60405180910390f35b6103856108bc565b60405161039291906145da565b60405180910390f35b6103a36108cf565b6040516103b09190614635565b60405180910390f35b6103c16108d5565b6040516103ce9190614635565b60405180910390f35b6103f160048036038101906103ec9190614342565b6108db565b6040516103fe9190614635565b60405180910390f35b61040f610903565b60405161041c9190614635565b60405180910390f35b61042d610909565b60405161043a9190614635565b60405180910390f35b61044b61090f565b6040516104589190614635565b60405180910390f35b61047b600480360381019061047691906143dc565b610915565b005b61048561182c565b6040516104929190614551565b60405180910390f35b6104b560048036038101906104b0919061429b565b611852565b005b6104bf611b23565b6040516104cc9190614635565b60405180910390f35b6104ef60048036038101906104ea919061442f565b611b29565b005b6104f96125b2565b6040516105069190614635565b60405180910390f35b6105176125b8565b6040516105249190614635565b60405180910390f35b6105356125be565b6040516105429190614635565b60405180910390f35b6105536125c4565b6040516105609190614635565b60405180910390f35b6105716125ca565b60405161057e9190614635565b60405180910390f35b6105a1600480360381019061059c919061425b565b6125d0565b005b6105ab612981565b6040516105b89190614635565b60405180910390f35b6105c9612987565b6040516105d69190614635565b60405180910390f35b6105e761298d565b6040516105f49190614635565b60405180910390f35b610605612993565b6040516106129190614635565b60405180910390f35b610623612999565b6040516106309190614635565b60405180910390f35b61064161299f565b60405161064e91906145da565b60405180910390f35b61065f6129b2565b60405161066c9190614551565b60405180910390f35b61067d6129d8565b60405161068a9190614635565b60405180910390f35b61069b6129de565b6040516106a89190614635565b60405180910390f35b6106b96129e4565b6040516106c69190614551565b60405180910390f35b6106d7612a0a565b6040516106e49190614635565b60405180910390f35b6106f5612a10565b6040516107029190614635565b60405180910390f35b610713612a16565b6040516107209190614635565b60405180910390f35b610731612a1c565b60405161073e9190614635565b60405180910390f35b61074f612a22565b60405161075c9190614635565b60405180910390f35b61076d612a28565b60405161077a9190614635565b60405180910390f35b61078b612a2e565b6040516107989190614635565b60405180910390f35b6107bb60048036038101906107b691906143dc565b612a34565b005b6107c5612b03565b6040516107d29190614635565b60405180910390f35b6107e3612b09565b6040516107f09190614635565b60405180910390f35b60115481565b6027816002811061080f57600080fd5b016000915090505481565b60015481565b601b5481565b601860009054906101000a900473ffffffffffffffffffffffffffffffffffffffff1681565b600d5481565b6029602052816000526040600020602052806000526040600020600091509150508060000160009054906101000a900473ffffffffffffffffffffffffffffffffffffffff16908060000160149054906101000a900460ff16908060010154908060020154905084565b602460009054906101000a900460ff1681565b60145481565b60005481565b602a60205281600052604060002081600281106108f757600080fd5b01600091509150505481565b600c5481565b60225481565b60235481565b60016025541461095a576040517f08c379a000000000000000000000000000000000000000000000000000000000815260040161095190614615565b60405180910390fd5b600060258190555060008284610970919061486f565b1480156109885750600082846109869190614677565b115b80156109b6575061099881612b0f565b6109a182612c03565b6109aa83612cdb565b6109b49190614677565b115b8015610a195750602960008273ffffffffffffffffffffffffffffffffffffffff1673ffffffffffffffffffffffffffffffffffffffff168152602001908152602001600020600080151515158152602001908152602001600020600201548311155b8015610a7d5750602960008273ffffffffffffffffffffffffffffffffffffffff1673ffffffffffffffffffffffffffffffffffffffff16815260200190815260200160002060006001151515158152602001908152602001600020600201548211155b610a8657600080fd5b610a8e612daa565b60008311156111c3576000610aa68460016000612f28565b90506000610b6a85602960008673ffffffffffffffffffffffffffffffffffffffff1673ffffffffffffffffffffffffffffffffffffffff1681526020019081526020016000206000600115151515815260200190815260200160002060010154600f54601154602960008973ffffffffffffffffffffffffffffffffffffffff1673ffffffffffffffffffffffffffffffffffffffff16815260200190815260200160002060008015151515815260200190815260200160002060020154613325565b905084602960008573ffffffffffffffffffffffffffffffffffffffff1673ffffffffffffffffffffffffffffffffffffffff1681526020019081526020016000206000801515151581526020019081526020016000206002016000828254610bd391906148c9565b9250508190555080600f6000828254610bec91906148c9565b92505081905550610cad602960008573ffffffffffffffffffffffffffffffffffffffff1673ffffffffffffffffffffffffffffffffffffffff168152602001908152602001600020600060011515151581526020019081526020016000206001015486602960008773ffffffffffffffffffffffffffffffffffffffff1673ffffffffffffffffffffffffffffffffffffffff1681526020019081526020016000206000801515151581526020019081526020016000206002015461335f565b60116000828254610cbe91906148c9565b92505081905550610d7f602960008573ffffffffffffffffffffffffffffffffffffffff1673ffffffffffffffffffffffffffffffffffffffff168152602001908152602001600020600060011515151581526020019081526020016000206001015486602960008773ffffffffffffffffffffffffffffffffffffffff1673ffffffffffffffffffffffffffffffffffffffff1681526020019081526020016000206000801515151581526020019081526020016000206002015461335f565b602960008573ffffffffffffffffffffffffffffffffffffffff1673ffffffffffffffffffffffffffffffffffffffff168152602001908152602001600020600060011515151581526020019081526020016000206001016000828254610de691906148c9565b925050819055508082118015610e0f575060001515602460009054906101000a900460ff161515145b15610e9957610e2b8183610e2391906148c9565b600080613381565b602a60008573ffffffffffffffffffffffffffffffffffffffff1673ffffffffffffffffffffffffffffffffffffffff168152602001908152602001600020600060028110610e7d57610e7c6149e3565b5b016000828254610e8d9190614677565b925050819055506111bc565b8082602a60008673ffffffffffffffffffffffffffffffffffffffff1673ffffffffffffffffffffffffffffffffffffffff168152602001908152602001600020600160028110610eed57610eec6149e3565b5b0154610ef99190614677565b118015610f19575060011515602460009054906101000a900460ff161515145b15610fe4578082602a60008673ffffffffffffffffffffffffffffffffffffffff1673ffffffffffffffffffffffffffffffffffffffff168152602001908152602001600020600160028110610f7257610f716149e3565b5b0154610f7e9190614677565b610f8891906148c9565b602a60008573ffffffffffffffffffffffffffffffffffffffff1673ffffffffffffffffffffffffffffffffffffffff168152602001908152602001600020600160028110610fda57610fd96149e3565b5b01819055506111bb565b6110ac602a60008573ffffffffffffffffffffffffffffffffffffffff1673ffffffffffffffffffffffffffffffffffffffff168152602001908152602001600020600060028110611039576110386149e3565b5b01546000602a60008773ffffffffffffffffffffffffffffffffffffffff1673ffffffffffffffffffffffffffffffffffffffff16815260200190815260200160002060016002811061108f5761108e6149e3565b5b0154858561109d91906148c9565b6110a791906148c9565b612f28565b602a60008573ffffffffffffffffffffffffffffffffffffffff1673ffffffffffffffffffffffffffffffffffffffff1681526020019081526020016000206000600281106110fe576110fd6149e3565b5b015461110a91906148c9565b602a60008573ffffffffffffffffffffffffffffffffffffffff1673ffffffffffffffffffffffffffffffffffffffff16815260200190815260200160002060006002811061115c5761115b6149e3565b5b01819055506000602a60008573ffffffffffffffffffffffffffffffffffffffff1673ffffffffffffffffffffffffffffffffffffffff1681526020019081526020016000206001600281106111b5576111b46149e3565b5b01819055505b5b505061181f565b60006111d28360016000613381565b9050600061129684602960008673ffffffffffffffffffffffffffffffffffffffff1673ffffffffffffffffffffffffffffffffffffffff16815260200190815260200160002060008015151515815260200190815260200160002060010154600e54601054602960008973ffffffffffffffffffffffffffffffffffffffff1673ffffffffffffffffffffffffffffffffffffffff1681526020019081526020016000206000600115151515815260200190815260200160002060020154613325565b905083602960008573ffffffffffffffffffffffffffffffffffffffff1673ffffffffffffffffffffffffffffffffffffffff16815260200190815260200160002060006001151515158152602001908152602001600020600201600082825461130091906148c9565b9250508190555080600e600082825461131991906148c9565b925050819055506113da602960008573ffffffffffffffffffffffffffffffffffffffff1673ffffffffffffffffffffffffffffffffffffffff1681526020019081526020016000206000801515151581526020019081526020016000206001015485602960008773ffffffffffffffffffffffffffffffffffffffff1673ffffffffffffffffffffffffffffffffffffffff168152602001908152602001600020600060011515151581526020019081526020016000206002015461335f565b601060008282546113eb91906148c9565b925050819055506114ac602960008573ffffffffffffffffffffffffffffffffffffffff1673ffffffffffffffffffffffffffffffffffffffff1681526020019081526020016000206000801515151581526020019081526020016000206001015485602960008773ffffffffffffffffffffffffffffffffffffffff1673ffffffffffffffffffffffffffffffffffffffff168152602001908152602001600020600060011515151581526020019081526020016000206002015461335f565b602960008573ffffffffffffffffffffffffffffffffffffffff1673ffffffffffffffffffffffffffffffffffffffff168152602001908152602001600020600080151515158152602001908152602001600020600101600082825461151291906148c9565b925050819055508082602a60008673ffffffffffffffffffffffffffffffffffffffff1673ffffffffffffffffffffffffffffffffffffffff16815260200190815260200160002060006002811061156d5761156c6149e3565b5b01546115799190614677565b1115611645578082602a60008673ffffffffffffffffffffffffffffffffffffffff1673ffffffffffffffffffffffffffffffffffffffff1681526020019081526020016000206000600281106115d3576115d26149e3565b5b01546115df9190614677565b6115e991906148c9565b602a60008573ffffffffffffffffffffffffffffffffffffffff1673ffffffffffffffffffffffffffffffffffffffff16815260200190815260200160002060006002811061163b5761163a6149e3565b5b018190555061181c565b61170d602a60008573ffffffffffffffffffffffffffffffffffffffff1673ffffffffffffffffffffffffffffffffffffffff16815260200190815260200160002060016002811061169a576116996149e3565b5b01546000602a60008773ffffffffffffffffffffffffffffffffffffffff1673ffffffffffffffffffffffffffffffffffffffff1681526020019081526020016000206000600281106116f0576116ef6149e3565b5b015485856116fe91906148c9565b61170891906148c9565b613381565b602a60008573ffffffffffffffffffffffffffffffffffffffff1673ffffffffffffffffffffffffffffffffffffffff16815260200190815260200160002060016002811061175f5761175e6149e3565b5b015461176b91906148c9565b602a60008573ffffffffffffffffffffffffffffffffffffffff1673ffffffffffffffffffffffffffffffffffffffff1681526020019081526020016000206001600281106117bd576117bc6149e3565b5b01819055506000602a60008573ffffffffffffffffffffffffffffffffffffffff1673ffffffffffffffffffffffffffffffffffffffff168152602001908152602001600020600060028110611816576118156149e3565b5b01819055505b50505b6001602581905550505050565b601e60009054906101000a900473ffffffffffffffffffffffffffffffffffffffff1681565b600160255414611897576040517f08c379a000000000000000000000000000000000000000000000000000000000815260040161188e90614615565b60405180910390fd5b6000602581905550601860009054906101000a900473ffffffffffffffffffffffffffffffffffffffff1673ffffffffffffffffffffffffffffffffffffffff168373ffffffffffffffffffffffffffffffffffffffff1614156119c35780602a60008673ffffffffffffffffffffffffffffffffffffffff1673ffffffffffffffffffffffffffffffffffffffff168152602001908152602001600020600060028110611948576119476149e3565b5b01541161195457600080fd5b80602a60008673ffffffffffffffffffffffffffffffffffffffff1673ffffffffffffffffffffffffffffffffffffffff1681526020019081526020016000206000600281106119a7576119a66149e3565b5b0160008282546119b791906148c9565b92505081905550611a8d565b80602a60008673ffffffffffffffffffffffffffffffffffffffff1673ffffffffffffffffffffffffffffffffffffffff168152602001908152602001600020600160028110611a1657611a156149e3565b5b015411611a2257600080fd5b80602a60008673ffffffffffffffffffffffffffffffffffffffff1673ffffffffffffffffffffffffffffffffffffffff168152602001908152602001600020600160028110611a7557611a746149e3565b5b016000828254611a8591906148c9565b925050819055505b611a9684612b0f565b611a9f85612c03565b611aa886612cdb565b611ab29190614677565b118015611b015750601c54611ac685612c03565b611ad0919061486f565b611ad985612b0f565b611ae286612c03565b611aeb87612cdb565b611af59190614677565b611aff91906148c9565b115b611b0a57600080fd5b611b1583838361377e565b600160258190555050505050565b60095481565b600160255414611b6e576040517f08c379a0000000000000000000000000000000000000000000000000000000008152600401611b6590614615565b60405180910390fd5b600060258190555060008385611b84919061486f565b148015611b9c575060008385611b9a9190614677565b115b611ba557600080fd5b611bad612daa565b611bf1611bb982612c03565b85611bc49190614677565b611bcd83612c03565b611be286600d54600654600554601d54613325565b611bec9190614677565b613908565b601a54601d54611c0084612b0f565b611c0985612c03565b611c1286612cdb565b611c1c9190614677565b611c2691906148c9565b611c30919061486f565b611c3a91906146cd565b11611c4457600080fd5b6000806001151584151514156120fd576000602660009054906101000a900460ff1660ff1611611c7357600080fd5b6000861115611c9357611c898660016000612f28565b9150859050611ccd565b849150611cca611caa600d5460065460055461335f565b601d5487611cb8919061486f565b611cc291906146cd565b600187612f28565b90505b611cdc81601054600e5461335f565b602960008573ffffffffffffffffffffffffffffffffffffffff1673ffffffffffffffffffffffffffffffffffffffff1681526020019081526020016000206000801515151581526020019081526020016000206001016000828254611d429190614677565b9250508190555081602960008573ffffffffffffffffffffffffffffffffffffffff1673ffffffffffffffffffffffffffffffffffffffff168152602001908152602001600020600060011515151581526020019081526020016000206002016000828254611db19190614677565b92505081905550601054611dca82601054600e5461335f565b611dd49190614677565b60108190555080600e6000828254611dec9190614677565b92505081905550670de0b6b3a764000060235482611e0a919061486f565b611e1491906146cd565b602a60008573ffffffffffffffffffffffffffffffffffffffff1673ffffffffffffffffffffffffffffffffffffffff168152602001908152602001600020600060028110611e6657611e656149e3565b5b01541115611f3657670de0b6b3a764000060235482611e85919061486f565b611e8f91906146cd565b602a60008573ffffffffffffffffffffffffffffffffffffffff1673ffffffffffffffffffffffffffffffffffffffff168152602001908152602001600020600060028110611ee157611ee06149e3565b5b016000828254611ef191906148c9565b92505081905550670de0b6b3a764000060235482611f0f919061486f565b611f1991906146cd565b600b6000828254611f2a9190614677565b925050819055506120f8565b6000602a60008573ffffffffffffffffffffffffffffffffffffffff1673ffffffffffffffffffffffffffffffffffffffff168152602001908152602001600020600060028110611f8a57611f896149e3565b5b0154670de0b6b3a764000060235484611fa3919061486f565b611fad91906146cd565b611fb791906148c9565b90506000602a60008673ffffffffffffffffffffffffffffffffffffffff1673ffffffffffffffffffffffffffffffffffffffff16815260200190815260200160002060006002811061200d5761200c6149e3565b5b0181905550612071602a60008673ffffffffffffffffffffffffffffffffffffffff1673ffffffffffffffffffffffffffffffffffffffff168152602001908152602001600020600160028110612067576120666149e3565b5b0154600083613381565b905080602a60008673ffffffffffffffffffffffffffffffffffffffff1673ffffffffffffffffffffffffffffffffffffffff1681526020019081526020016000206001600281106120c6576120c56149e3565b5b0160008282546120d691906148c9565b9250508190555080600c60008282546120ef9190614677565b92505081905550505b6125a2565b6001602660009054906101000a900460ff1660ff161161211c57600080fd5b60008611156121635785915061215c601d5461213f600d5460065460055461335f565b8861214a919061486f565b61215491906146cd565b600188613381565b9050612176565b6121708560016000613381565b91508490505b61218581601154600f5461335f565b602960008573ffffffffffffffffffffffffffffffffffffffff1673ffffffffffffffffffffffffffffffffffffffff1681526020019081526020016000206000600115151515815260200190815260200160002060010160008282546121ec9190614677565b9250508190555081602960008573ffffffffffffffffffffffffffffffffffffffff1673ffffffffffffffffffffffffffffffffffffffff168152602001908152602001600020600080151515158152602001908152602001600020600201600082825461225a9190614677565b9250508190555060115461227382601154600f5461335f565b61227d9190614677565b60118190555080600f60008282546122959190614677565b92505081905550670de0b6b3a7640000602354826122b3919061486f565b6122bd91906146cd565b602a60008573ffffffffffffffffffffffffffffffffffffffff1673ffffffffffffffffffffffffffffffffffffffff16815260200190815260200160002060016002811061230f5761230e6149e3565b5b015411156123df57670de0b6b3a76400006023548261232e919061486f565b61233891906146cd565b602a60008573ffffffffffffffffffffffffffffffffffffffff1673ffffffffffffffffffffffffffffffffffffffff16815260200190815260200160002060016002811061238a576123896149e3565b5b01600082825461239a91906148c9565b92505081905550670de0b6b3a7640000602354826123b8919061486f565b6123c291906146cd565b600c60008282546123d39190614677565b925050819055506125a1565b6000602a60008573ffffffffffffffffffffffffffffffffffffffff1673ffffffffffffffffffffffffffffffffffffffff168152602001908152602001600020600160028110612433576124326149e3565b5b0154670de0b6b3a76400006023548461244c919061486f565b61245691906146cd565b61246091906148c9565b90506000602a60008673ffffffffffffffffffffffffffffffffffffffff1673ffffffffffffffffffffffffffffffffffffffff1681526020019081526020016000206001600281106124b6576124b56149e3565b5b018190555061251a602a60008673ffffffffffffffffffffffffffffffffffffffff1673ffffffffffffffffffffffffffffffffffffffff1681526020019081526020016000206000600281106125105761250f6149e3565b5b0154600083612f28565b905080602a60008673ffffffffffffffffffffffffffffffffffffffff1673ffffffffffffffffffffffffffffffffffffffff16815260200190815260200160002060006002811061256f5761256e6149e3565b5b01600082825461257f91906148c9565b9250508190555080600b60008282546125989190614677565b92505081905550505b5b5050600160258190555050505050565b60075481565b601f5481565b600e5481565b601d5481565b60105481565b600160255414612615576040517f08c379a000000000000000000000000000000000000000000000000000000000815260040161260c90614615565b60405180910390fd5b600060258190555061262682612b0f565b61262f83612c03565b61263884612cdb565b6126429190614677565b1115806126925750601c5461265683612c03565b612660919061486f565b61266983612b0f565b61267284612c03565b61267b85612cdb565b6126859190614677565b61268f91906148c9565b11155b61269b57600080fd5b612728601860009054906101000a900473ffffffffffffffffffffffffffffffffffffffff1682601f54602a60008773ffffffffffffffffffffffffffffffffffffffff1673ffffffffffffffffffffffffffffffffffffffff168152602001908152602001600020600060028110612717576127166149e3565b5b0154612723919061486f565b61377e565b6127b5601960009054906101000a900473ffffffffffffffffffffffffffffffffffffffff1682601f54602a60008773ffffffffffffffffffffffffffffffffffffffff1673ffffffffffffffffffffffffffffffffffffffff1681526020019081526020016000206001600281106127a4576127a36149e3565b5b01546127b0919061486f565b61377e565b602a60008373ffffffffffffffffffffffffffffffffffffffff1673ffffffffffffffffffffffffffffffffffffffff168152602001908152602001600020600061280091906141f9565b6000602960008473ffffffffffffffffffffffffffffffffffffffff1673ffffffffffffffffffffffffffffffffffffffff168152602001908152602001600020600080151515158152602001908152602001600020600101819055506000602960008473ffffffffffffffffffffffffffffffffffffffff1673ffffffffffffffffffffffffffffffffffffffff1681526020019081526020016000206000600115151515815260200190815260200160002060010181905550612975602960008473ffffffffffffffffffffffffffffffffffffffff1673ffffffffffffffffffffffffffffffffffffffff16815260200190815260200160002060008015151515815260200190815260200160002060020154602960008573ffffffffffffffffffffffffffffffffffffffff1673ffffffffffffffffffffffffffffffffffffffff168152602001908152602001600020600060011515151581526020019081526020016000206002015484610915565b60016025819055505050565b60045481565b60035481565b600f5481565b60065481565b601c5481565b601560009054906101000a900460ff1681565b601960009054906101000a900473ffffffffffffffffffffffffffffffffffffffff1681565b600b5481565b60055481565b601760009054906101000a900473ffffffffffffffffffffffffffffffffffffffff1681565b60165481565b60085481565b60125481565b600a5481565b60215481565b601a5481565b60025481565b600160255414612a79576040517f08c379a0000000000000000000000000000000000000000000000000000000008152600401612a7090614615565b60405180910390fd5b600060258190555060008284612a8f919061486f565b148015612aa7575060008284612aa59190614677565b115b612ab057600080fd5b6000831115612ad957612ac7836000600184611b29565b612ad48360008084611b29565b612af6565b612ae7600083600184611b29565b612af5600083600084611b29565b5b6001602581905550505050565b60205481565b60135481565b6000612b8b612b80602960008573ffffffffffffffffffffffffffffffffffffffff1673ffffffffffffffffffffffffffffffffffffffff16815260200190815260200160002060008015151515815260200190815260200160002060010154600e54600d54601054601d54613325565b60065460055461335f565b612bf2602960008573ffffffffffffffffffffffffffffffffffffffff1673ffffffffffffffffffffffffffffffffffffffff1681526020019081526020016000206000600115151515815260200190815260200160002060010154600f5460115461335f565b612bfc9190614677565b9050919050565b6000612c72602960008473ffffffffffffffffffffffffffffffffffffffff1673ffffffffffffffffffffffffffffffffffffffff1681526020019081526020016000206000600115151515815260200190815260200160002060020154600d54600654600554601d54613325565b602960008473ffffffffffffffffffffffffffffffffffffffff1673ffffffffffffffffffffffffffffffffffffffff16815260200190815260200160002060008015151515815260200190815260200160002060020154612cd49190614677565b9050919050565b6000612d45602a60008473ffffffffffffffffffffffffffffffffffffffff1673ffffffffffffffffffffffffffffffffffffffff168152602001908152602001600020600160028110612d3257612d316149e3565b5b0154600d54600654600554601d54613325565b602a60008473ffffffffffffffffffffffffffffffffffffffff1673ffffffffffffffffffffffffffffffffffffffff168152602001908152602001600020600060028110612d9757612d966149e3565b5b0154612da39190614677565b9050919050565b600080612dd8600b54600c54600554600654600354600454600054612dd0600054613921565b60015461393e565b91509150600080612dfb8484600754600854602154601654600b54600c546139da565b91509150600060145443612e0f91906148c9565b90504360148190555060001515601560009054906101000a900460ff1615151415612ea357612e48600e5460135483601d546001613325565b600e54612e559190614677565b600e8190555080612e81601354600e54612e76600d5460065460055461335f565b601d54601d54613325565b612e8b919061486f565b600f54612e9891906148c9565b600f81905550612f00565b612eb7600f5460135483601d546001613325565b600f54612ec49190614677565b600f81905550612eec601354600f5483612ee5600d5460065460055461335f565b6001613325565b600e54612ef991906148c9565b600e819055505b8260138190555081601560006101000a81548160ff0219169083151502179055505050505050565b6000600160255414612f6f576040517f08c379a0000000000000000000000000000000000000000000000000000000008152600401612f6690614615565b60405180910390fd5b600060258190555060005b612fa5612f9a6002600154612f8f91906146cd565b602054601d5461335f565b600354600554613a84565b8186612fb191906148c9565b111561319c576000612fd66002600154612fcb91906146cd565b602054601d5461335f565b90506000612ff4600054612feb600054613921565b60015485613ab9565b905060008511801561301e57508461301160045483600654613a84565b8561301c9190614677565b115b1561302a57505061319c565b61303960045482600654613a84565b846130449190614677565b935061305582600354600554613a84565b836130609190614677565b92506000151586151514156130be5761307e82600354600554613a84565b600b600082825461308f9190614677565b925050819055506130a560045482600654613a84565b600c60008282546130b691906148c9565b925050819055505b6130d960065460026001546130d391906146cd565b8361335f565b6006819055506130fa60055460026001546130f491906146cd565b8461335f565b60058190555061314361311e600054613114600054613921565b6001548686613bb9565b82600260015461312e91906146cd565b85600260015461313e91906146cd565b613325565b600d81905550613157600154600d54613cad565b600081905550613165613e08565b600181905550600260015461317a91906146cd565b600381905550600260015461318f91906146cd565b6004819055505050612f7a565b6000600354905060006004549050600085141561320c576131cd83886131c291906148c9565b600554601d5461335f565b600360008282546131de9190614677565b925050819055506132016000546131f6600054613921565b600154600354613ab9565b600481905550613261565b613226848661321b91906148c9565b600654601d5461335f565b6004600082825461323791906148c9565b9250508190555061325a60005461324f600054613921565b600154600454613e61565b6003819055505b61327081600454600654613a84565b8461327b9190614677565b935061328c60035483600554613a84565b836132979190614677565b92506001151586151514156132c45783600860008282546132b89190614677565b92505081905550613313565b6132d360035483600554613a84565b600b60008282546132e49190614677565b925050819055506132fa81600454600654613a84565b600c600082825461330b91906148c9565b925050819055505b50505060016025819055509392505050565b60008183858789613336919061486f565b613340919061486f565b61334a91906146cd565b61335491906146cd565b905095945050505050565b600081838561336e919061486f565b61337891906146cd565b90509392505050565b60006001602554146133c8576040517f08c379a00000000000000000000000000000000000000000000000000000000081526004016133bf90614615565b60405180910390fd5b600060258190555060005b6133fe6133f360026001546133e891906146cd565b602054601d5461335f565b600454600654613a84565b818661340a91906148c9565b11156135f557600061342f600260015461342491906146cd565b602054601d5461335f565b9050600061344d600054613444600054613921565b60015485613e61565b905060008511801561347757508461346a60035483600554613a84565b856134759190614677565b115b156134835750506135f5565b61349260035482600554613a84565b8461349d9190614677565b93506134ae82600454600654613a84565b836134b99190614677565b9250600015158615151415613517576134d760035482600554613a84565b600b60008282546134e891906148c9565b925050819055506134fe82600454600654613a84565b600c600082825461350f9190614677565b925050819055505b613532600654600260015461352c91906146cd565b8461335f565b600681905550613553600554600260015461354d91906146cd565b8361335f565b60058190555061359c61357760005461356d600054613921565b6001548587613bb9565b83600260015461358791906146cd565b84600260015461359791906146cd565b613325565b600d819055506135b0600154600d54613cad565b6000819055506135be613e08565b60018190555060026001546135d391906146cd565b60038190555060026001546135e891906146cd565b60048190555050506133d3565b6000600354905060006004549050600085141561366557613626838861361b91906148c9565b600654601d5461335f565b600460008282546136379190614677565b9250508190555061365a60005461364f600054613921565b600154600454613e61565b6003819055506136ba565b61367f848661367491906148c9565b600554601d5461335f565b6003600082825461369091906148c9565b925050819055506136b36000546136a8600054613921565b600154600354613ab9565b6004819055505b6136c982600354600554613a84565b846136d49190614677565b93506136e560045482600654613a84565b836136f09190614677565b925060011515861515141561371d5783600760008282546137119190614677565b9250508190555061376c565b61372c60045482600654613a84565b600c600082825461373d9190614677565b9250508190555061375382600354600554613a84565b600b600082825461376491906148c9565b925050819055505b50505060016025819055509392505050565b6000808473ffffffffffffffffffffffffffffffffffffffff166040518060400160405280601981526020017f7472616e7366657228616464726573732c75696e7432353629000000000000008152508051906020012085856040516024016137e89291906145b1565b604051602081830303815290604052907bffffffffffffffffffffffffffffffffffffffffffffffffffffffff19166020820180517bffffffffffffffffffffffffffffffffffffffffffffffffffffffff8381831617835250505050604051613852919061453a565b6000604051808303816000865af19150503d806000811461388f576040519150601f19603f3d011682016040523d82523d6000602084013e613894565b606091505b50915091508180156138c257506000815114806138c15750808060200190518101906138c09190614382565b5b5b613901576040517f08c379a00000000000000000000000000000000000000000000000000000000081526004016138f8906145f5565b60405180910390fd5b5050505050565b60008183116139175781613919565b825b905092915050565b600081671bc16d674ec8000061393791906148c9565b9050919050565b60008060006139568c8b670de0b6b3a764000061335f565b9050600061396d8c8b670de0b6b3a764000061335f565b9050600061397c838388613f61565b9050600081671bc16d674ec8000061399491906148c9565b90506139ad6139a683838a8888613bb9565b8d8f61335f565b95506139c66139bf8a8a8a8f8f613bb9565b8d8f61335f565b945050505050995099975050505050505050565b60008089891115613a1d576139f0878488613fe5565b6116806139fe8b8d8e613a84565b613a0891906146cd565b613a129190614677565b915060009050613a51565b613a28888588613fe5565b611680613a368c8c8e613a84565b613a4091906146cd565b613a4a9190614677565b9150600190505b8461078083613a60919061486f565b1115613a775761078085613a7491906146cd565b91505b9850989650505050505050565b600081670de0b6b3a76400008486613a9c91906148c9565b613aa6919061486f565b613ab091906146cd565b90509392505050565b600081846008613ac9919061486f565b613ad3919061486f565b613b6c670de0b6b3a7640000858687613aec919061486f565b613af6919061486f565b6000613b0291906148c9565b85886010613b10919061486f565b613b1a919061486f565b613b24919061486f565b613b2e919061486f565b600285868a6004613b3f919061486f565b613b49919061486f565b613b53919061486f565b613b5d9190614751565b613b6791906148c9565b614032565b8384886004613b7b919061486f565b613b85919061486f565b613b8f919061486f565b6000613b9b91906148c9565b613ba59190614677565b613baf91906146cd565b9050949350505050565b600081848586613bc9919061486f565b613bd3919061486f565b613bdd919061486f565b828385868a6004613bee919061486f565b613bf8919061486f565b613c02919061486f565b613c0c919061486f565b613c16919061486f565b613c209190614677565b670de0b6b3a764000084868788613c37919061486f565b613c41919061486f565b613c4b919061486f565b848587888b6004613c5c919061486f565b613c66919061486f565b613c70919061486f565b613c7a919061486f565b613c84919061486f565b613c8e9190614677565b613c98919061486f565b613ca291906146cd565b905095945050505050565b600080600284613cbd91906146cd565b90506000600285613cce91906146cd565b905083670de0b6b3a7640000613ce49190614677565b818284856004613cf4919061486f565b613cfe919061486f565b613d08919061486f565b613d12919061486f565b613d1c919061486f565b670de0b6b3a7640000858388898a613d34919061486f565b613d3e919061486f565b613d48919061486f565b613d52919061486f565b613d5c919061486f565b6ec097ce7bc90715b34b9f10000000008488898a613d7a919061486f565b613d84919061486f565b613d8e919061486f565b613d98919061486f565b6ec097ce7bc90715b34b9f1000000000848587886008613db8919061486f565b613dc2919061486f565b613dcc919061486f565b613dd6919061486f565b613de0919061486f565b613dea9190614677565b613df491906148c9565b613dfe91906146cd565b9250505092915050565b600080613e3e600b54600054600554600c54600054671bc16d674ec80000613e3091906148c9565b600654600954600a546140ac565b9050601d5481600254613e51919061486f565b613e5b91906146cd565b91505090565b600081856008613e71919061486f565b613e7b919061486f565b613f14670de0b6b3a7640000858687613e94919061486f565b613e9e919061486f565b6000613eaa91906148c9565b85896010613eb8919061486f565b613ec2919061486f565b613ecc919061486f565b613ed6919061486f565b60028586896004613ee7919061486f565b613ef1919061486f565b613efb919061486f565b613f059190614751565b613f0f91906148c9565b614032565b8384876004613f23919061486f565b613f2d919061486f565b613f37919061486f565b6000613f4391906148c9565b613f4d9190614677565b613f5791906146cd565b9050949350505050565b60008284613f6f91906148c9565b670de0b6b3a7640000846002613f85919061486f565b85876004878889613f96919061486f565b613fa0919061486f565b613faa91906146cd565b613fb491906146cd565b613fbe91906146cd565b613fc891906148c9565b613fd2919061486f565b613fdc91906146cd565b90509392505050565b60008161e1008585613ff79190614677565b670de0b6b3a76400008761400b919061486f565b61401591906146cd565b61401f91906146cd565b6140299190614677565b90509392505050565b60006003821115614099578190506000600160028461405191906146cd565b61405b9190614677565b90505b8181101561409357809150600281828561407891906146cd565b6140829190614677565b61408c91906146cd565b905061405e565b506140a7565b600082146140a657600190505b5b919050565b60006140fe6140bf848a8a868a8a61410c565b760a70c3c40a64e6c51999090b65f67d92400000000000006140e58c8c8c8c8c8c61410c565b6140ef919061486f565b6140f991906146cd565b614168565b905098975050505050505050565b6000838783858761411d919061486f565b614127919061486f565b87898b614134919061486f565b61413e919061486f565b6141489190614677565b614152919061486f565b61415c919061486f565b90509695505050505050565b600060088211156141e6578190506000600160038461418791906146cd565b6141919190614677565b90505b818110156141e05780915060038160026141ae919061486f565b82836141ba919061486f565b856141c591906146cd565b6141cf9190614677565b6141d991906146cd565b9050614194565b506141f4565b600082146141f357600190505b5b919050565b506000815560010160009055565b60008135905061421681614a76565b92915050565b60008135905061422b81614a8d565b92915050565b60008151905061424081614a8d565b92915050565b60008135905061425581614aa4565b92915050565b6000806040838503121561427257614271614a12565b5b600061428085828601614207565b925050602061429185828601614207565b9150509250929050565b600080600080608085870312156142b5576142b4614a12565b5b60006142c387828801614207565b94505060206142d487828801614207565b93505060406142e587828801614207565b92505060606142f687828801614246565b91505092959194509250565b6000806040838503121561431957614318614a12565b5b600061432785828601614207565b92505060206143388582860161421c565b9150509250929050565b6000806040838503121561435957614358614a12565b5b600061436785828601614207565b925050602061437885828601614246565b9150509250929050565b60006020828403121561439857614397614a12565b5b60006143a684828501614231565b91505092915050565b6000602082840312156143c5576143c4614a12565b5b60006143d384828501614246565b91505092915050565b6000806000606084860312156143f5576143f4614a12565b5b600061440386828701614246565b935050602061441486828701614246565b925050604061442586828701614207565b9150509250925092565b6000806000806080858703121561444957614448614a12565b5b600061445787828801614246565b945050602061446887828801614246565b93505060406144798782880161421c565b925050606061448a87828801614207565b91505092959194509250565b61449f816148fd565b82525050565b6144ae8161490f565b82525050565b60006144bf82614650565b6144c9818561465b565b93506144d9818560208601614952565b80840191505092915050565b60006144f2600f83614666565b91506144fd82614a24565b602082019050919050565b6000614515600683614666565b915061452082614a4d565b602082019050919050565b6145348161493b565b82525050565b600061454682846144b4565b915081905092915050565b60006020820190506145666000830184614496565b92915050565b60006080820190506145816000830187614496565b61458e60208301866144a5565b61459b604083018561452b565b6145a8606083018461452b565b95945050505050565b60006040820190506145c66000830185614496565b6145d3602083018461452b565b9392505050565b60006020820190506145ef60008301846144a5565b92915050565b6000602082019050818103600083015261460e816144e5565b9050919050565b6000602082019050818103600083015261462e81614508565b9050919050565b600060208201905061464a600083018461452b565b92915050565b600081519050919050565b600081905092915050565b600082825260208201905092915050565b60006146828261493b565b915061468d8361493b565b9250827fffffffffffffffffffffffffffffffffffffffffffffffffffffffffffffffff038211156146c2576146c1614985565b5b828201905092915050565b60006146d88261493b565b91506146e38361493b565b9250826146f3576146f26149b4565b5b828204905092915050565b6000808291508390505b60018511156147485780860481111561472457614723614985565b5b60018516156147335780820291505b808102905061474185614a17565b9450614708565b94509492505050565b600061475c8261493b565b915061476783614945565b92506147947fffffffffffffffffffffffffffffffffffffffffffffffffffffffffffffffff848461479c565b905092915050565b6000826147ac5760019050614868565b816147ba5760009050614868565b81600181146147d057600281146147da57614809565b6001915050614868565b60ff8411156147ec576147eb614985565b5b8360020a91508482111561480357614802614985565b5b50614868565b5060208310610133831016604e8410600b841016171561483e5782820a90508381111561483957614838614985565b5b614868565b61484b84848460016146fe565b9250905081840481111561486257614861614985565b5b81810290505b9392505050565b600061487a8261493b565b91506148858361493b565b9250817fffffffffffffffffffffffffffffffffffffffffffffffffffffffffffffffff04831182151516156148be576148bd614985565b5b828202905092915050565b60006148d48261493b565b91506148df8361493b565b9250828210156148f2576148f1614985565b5b828203905092915050565b60006149088261491b565b9050919050565b60008115159050919050565b600073ffffffffffffffffffffffffffffffffffffffff82169050919050565b6000819050919050565b600060ff82169050919050565b60005b83811015614970578082015181840152602081019050614955565b8381111561497f576000848401525b50505050565b7f4e487b7100000000000000000000000000000000000000000000000000000000600052601160045260246000fd5b7f4e487b7100000000000000000000000000000000000000000000000000000000600052601260045260246000fd5b7f4e487b7100000000000000000000000000000000000000000000000000000000600052603260045260246000fd5b600080fd5b60008160011c9050919050565b7f5452414e534645525f4641494c45440000000000000000000000000000000000600082015250565b7f4c4f434b45440000000000000000000000000000000000000000000000000000600082015250565b614a7f816148fd565b8114614a8a57600080fd5b50565b614a968161490f565b8114614aa157600080fd5b50565b614aad8161493b565b8114614ab857600080fd5b5056fea2646970667358221220da3a13dadbbd874e622802df278d2ebfaf60e62f6f9284b70de20352a17c0c0a64736f6c63430008070033",
			"opcodes": "PUSH1 0x80 PUSH1 0x40 MSTORE PUSH8 0xDE0B6B3A7640000 PUSH1 0x1D SSTORE PUSH1 0x1 PUSH1 0x25 SSTORE PUSH1 0x0 PUSH1 0x26 PUSH1 0x0 PUSH2 0x100 EXP DUP2 SLOAD DUP2 PUSH1 0xFF MUL NOT AND SWAP1 DUP4 PUSH1 0xFF AND MUL OR SWAP1 SSTORE POP CALLVALUE DUP1 ISZERO PUSH2 0x3D JUMPI PUSH1 0x0 DUP1 REVERT JUMPDEST POP PUSH2 0x4AF1 DUP1 PUSH2 0x4D PUSH1 0x0 CODECOPY PUSH1 0x0 RETURN INVALID PUSH1 0x80 PUSH1 0x40 MSTORE CALLVALUE DUP1 ISZERO PUSH2 0x10 JUMPI PUSH1 0x0 DUP1 REVERT JUMPDEST POP PUSH1 0x4 CALLDATASIZE LT PUSH2 0x27F JUMPI PUSH1 0x0 CALLDATALOAD PUSH1 0xE0 SHR DUP1 PUSH4 0x7E11939A GT PUSH2 0x15C JUMPI DUP1 PUSH4 0xBE6571AA GT PUSH2 0xCE JUMPI DUP1 PUSH4 0xEF0348FD GT PUSH2 0x87 JUMPI DUP1 PUSH4 0xEF0348FD EQ PUSH2 0x747 JUMPI DUP1 PUSH4 0xF13C7AED EQ PUSH2 0x765 JUMPI DUP1 PUSH4 0xF738C74E EQ PUSH2 0x783 JUMPI DUP1 PUSH4 0xF8BCF560 EQ PUSH2 0x7A1 JUMPI DUP1 PUSH4 0xF92E82B0 EQ PUSH2 0x7BD JUMPI DUP1 PUSH4 0xFCBC49A0 EQ PUSH2 0x7DB JUMPI PUSH2 0x27F JUMP JUMPDEST DUP1 PUSH4 0xBE6571AA EQ PUSH2 0x693 JUMPI DUP1 PUSH4 0xC45A0155 EQ PUSH2 0x6B1 JUMPI DUP1 PUSH4 0xC556C363 EQ PUSH2 0x6CF JUMPI DUP1 PUSH4 0xD873FA7B EQ PUSH2 0x6ED JUMPI DUP1 PUSH4 0xE07B877A EQ PUSH2 0x70B JUMPI DUP1 PUSH4 0xE159394F EQ PUSH2 0x729 JUMPI PUSH2 0x27F JUMP JUMPDEST DUP1 PUSH4 0xA01FBBF5 GT PUSH2 0x120 JUMPI DUP1 PUSH4 0xA01FBBF5 EQ PUSH2 0x5DF JUMPI DUP1 PUSH4 0xA37B1918 EQ PUSH2 0x5FD JUMPI DUP1 PUSH4 0xA71E8644 EQ PUSH2 0x61B JUMPI DUP1 PUSH4 0xA79E6F9C EQ PUSH2 0x639 JUMPI DUP1 PUSH4 0xB7D19FC4 EQ PUSH2 0x657 JUMPI DUP1 PUSH4 0xB868504B EQ PUSH2 0x675 JUMPI PUSH2 0x27F JUMP JUMPDEST DUP1 PUSH4 0x7E11939A EQ PUSH2 0x54B JUMPI DUP1 PUSH4 0x803042AC EQ PUSH2 0x569 JUMPI DUP1 PUSH4 0x86B9D81F EQ PUSH2 0x587 JUMPI DUP1 PUSH4 0x8C4008E9 EQ PUSH2 0x5A3 JUMPI DUP1 PUSH4 0x8CA63E6F EQ PUSH2 0x5C1 JUMPI PUSH2 0x27F JUMP JUMPDEST DUP1 PUSH4 0x5091FADD GT PUSH2 0x1F5 JUMPI DUP1 PUSH4 0x6BF8BE75 GT PUSH2 0x1B9 JUMPI DUP1 PUSH4 0x6BF8BE75 EQ PUSH2 0x49B JUMPI DUP1 PUSH4 0x713370FC EQ PUSH2 0x4B7 JUMPI DUP1 PUSH4 0x748F00DC EQ PUSH2 0x4D5 JUMPI DUP1 PUSH4 0x77FEF068 EQ PUSH2 0x4F1 JUMPI DUP1 PUSH4 0x7B7C1F4C EQ PUSH2 0x50F JUMPI DUP1 PUSH4 0x7BB62450 EQ PUSH2 0x52D JUMPI PUSH2 0x27F JUMP JUMPDEST DUP1 PUSH4 0x5091FADD EQ PUSH2 0x407 JUMPI DUP1 PUSH4 0x54CF2AEB EQ PUSH2 0x425 JUMPI DUP1 PUSH4 0x5784C8C4 EQ PUSH2 0x443 JUMPI DUP1 PUSH4 0x617D3B90 EQ PUSH2 0x461 JUMPI DUP1 PUSH4 0x62AB1A77 EQ PUSH2 0x47D JUMPI PUSH2 0x27F JUMP JUMPDEST DUP1 PUSH4 0x29BAF8D9 GT PUSH2 0x247 JUMPI DUP1 PUSH4 0x29BAF8D9 EQ PUSH2 0x32C JUMPI DUP1 PUSH4 0x2C4426AD EQ PUSH2 0x34A JUMPI DUP1 PUSH4 0x31FA66B2 EQ PUSH2 0x37D JUMPI DUP1 PUSH4 0x321D7FA9 EQ PUSH2 0x39B JUMPI DUP1 PUSH4 0x32E7C5BF EQ PUSH2 0x3B9 JUMPI DUP1 PUSH4 0x367401DB EQ PUSH2 0x3D7 JUMPI PUSH2 0x27F JUMP JUMPDEST DUP1 PUSH4 0x751A6C8 EQ PUSH2 0x284 JUMPI DUP1 PUSH4 0xE449559 EQ PUSH2 0x2A2 JUMPI DUP1 PUSH4 0xF529BA2 EQ PUSH2 0x2D2 JUMPI DUP1 PUSH4 0x15770F92 EQ PUSH2 0x2F0 JUMPI DUP1 PUSH4 0x16DC165B EQ PUSH2 0x30E JUMPI JUMPDEST PUSH1 0x0 DUP1 REVERT JUMPDEST PUSH2 0x28C PUSH2 0x7F9 JUMP JUMPDEST PUSH1 0x40 MLOAD PUSH2 0x299 SWAP2 SWAP1 PUSH2 0x4635 JUMP JUMPDEST PUSH1 0x40 MLOAD DUP1 SWAP2 SUB SWAP1 RETURN JUMPDEST PUSH2 0x2BC PUSH1 0x4 DUP1 CALLDATASIZE SUB DUP2 ADD SWAP1 PUSH2 0x2B7 SWAP2 SWAP1 PUSH2 0x43AF JUMP JUMPDEST PUSH2 0x7FF JUMP JUMPDEST PUSH1 0x40 MLOAD PUSH2 0x2C9 SWAP2 SWAP1 PUSH2 0x4635 JUMP JUMPDEST PUSH1 0x40 MLOAD DUP1 SWAP2 SUB SWAP1 RETURN JUMPDEST PUSH2 0x2DA PUSH2 0x81A JUMP JUMPDEST PUSH1 0x40 MLOAD PUSH2 0x2E7 SWAP2 SWAP1 PUSH2 0x4635 JUMP JUMPDEST PUSH1 0x40 MLOAD DUP1 SWAP2 SUB SWAP1 RETURN JUMPDEST PUSH2 0x2F8 PUSH2 0x820 JUMP JUMPDEST PUSH1 0x40 MLOAD PUSH2 0x305 SWAP2 SWAP1 PUSH2 0x4635 JUMP JUMPDEST PUSH1 0x40 MLOAD DUP1 SWAP2 SUB SWAP1 RETURN JUMPDEST PUSH2 0x316 PUSH2 0x826 JUMP JUMPDEST PUSH1 0x40 MLOAD PUSH2 0x323 SWAP2 SWAP1 PUSH2 0x4551 JUMP JUMPDEST PUSH1 0x40 MLOAD DUP1 SWAP2 SUB SWAP1 RETURN JUMPDEST PUSH2 0x334 PUSH2 0x84C JUMP JUMPDEST PUSH1 0x40 MLOAD PUSH2 0x341 SWAP2 SWAP1 PUSH2 0x4635 JUMP JUMPDEST PUSH1 0x40 MLOAD DUP1 SWAP2 SUB SWAP1 RETURN JUMPDEST PUSH2 0x364 PUSH1 0x4 DUP1 CALLDATASIZE SUB DUP2 ADD SWAP1 PUSH2 0x35F SWAP2 SWAP1 PUSH2 0x4302 JUMP JUMPDEST PUSH2 0x852 JUMP JUMPDEST PUSH1 0x40 MLOAD PUSH2 0x374 SWAP5 SWAP4 SWAP3 SWAP2 SWAP1 PUSH2 0x456C JUMP JUMPDEST PUSH1 0x40 MLOAD DUP1 SWAP2 SUB SWAP1 RETURN JUMPDEST PUSH2 0x385 PUSH2 0x8BC JUMP JUMPDEST PUSH1 0x40 MLOAD PUSH2 0x392 SWAP2 SWAP1 PUSH2 0x45DA JUMP JUMPDEST PUSH1 0x40 MLOAD DUP1 SWAP2 SUB SWAP1 RETURN JUMPDEST PUSH2 0x3A3 PUSH2 0x8CF JUMP JUMPDEST PUSH1 0x40 MLOAD PUSH2 0x3B0 SWAP2 SWAP1 PUSH2 0x4635 JUMP JUMPDEST PUSH1 0x40 MLOAD DUP1 SWAP2 SUB SWAP1 RETURN JUMPDEST PUSH2 0x3C1 PUSH2 0x8D5 JUMP JUMPDEST PUSH1 0x40 MLOAD PUSH2 0x3CE SWAP2 SWAP1 PUSH2 0x4635 JUMP JUMPDEST PUSH1 0x40 MLOAD DUP1 SWAP2 SUB SWAP1 RETURN JUMPDEST PUSH2 0x3F1 PUSH1 0x4 DUP1 CALLDATASIZE SUB DUP2 ADD SWAP1 PUSH2 0x3EC SWAP2 SWAP1 PUSH2 0x4342 JUMP JUMPDEST PUSH2 0x8DB JUMP JUMPDEST PUSH1 0x40 MLOAD PUSH2 0x3FE SWAP2 SWAP1 PUSH2 0x4635 JUMP JUMPDEST PUSH1 0x40 MLOAD DUP1 SWAP2 SUB SWAP1 RETURN JUMPDEST PUSH2 0x40F PUSH2 0x903 JUMP JUMPDEST PUSH1 0x40 MLOAD PUSH2 0x41C SWAP2 SWAP1 PUSH2 0x4635 JUMP JUMPDEST PUSH1 0x40 MLOAD DUP1 SWAP2 SUB SWAP1 RETURN JUMPDEST PUSH2 0x42D PUSH2 0x909 JUMP JUMPDEST PUSH1 0x40 MLOAD PUSH2 0x43A SWAP2 SWAP1 PUSH2 0x4635 JUMP JUMPDEST PUSH1 0x40 MLOAD DUP1 SWAP2 SUB SWAP1 RETURN JUMPDEST PUSH2 0x44B PUSH2 0x90F JUMP JUMPDEST PUSH1 0x40 MLOAD PUSH2 0x458 SWAP2 SWAP1 PUSH2 0x4635 JUMP JUMPDEST PUSH1 0x40 MLOAD DUP1 SWAP2 SUB SWAP1 RETURN JUMPDEST PUSH2 0x47B PUSH1 0x4 DUP1 CALLDATASIZE SUB DUP2 ADD SWAP1 PUSH2 0x476 SWAP2 SWAP1 PUSH2 0x43DC JUMP JUMPDEST PUSH2 0x915 JUMP JUMPDEST STOP JUMPDEST PUSH2 0x485 PUSH2 0x182C JUMP JUMPDEST PUSH1 0x40 MLOAD PUSH2 0x492 SWAP2 SWAP1 PUSH2 0x4551 JUMP JUMPDEST PUSH1 0x40 MLOAD DUP1 SWAP2 SUB SWAP1 RETURN JUMPDEST PUSH2 0x4B5 PUSH1 0x4 DUP1 CALLDATASIZE SUB DUP2 ADD SWAP1 PUSH2 0x4B0 SWAP2 SWAP1 PUSH2 0x429B JUMP JUMPDEST PUSH2 0x1852 JUMP JUMPDEST STOP JUMPDEST PUSH2 0x4BF PUSH2 0x1B23 JUMP JUMPDEST PUSH1 0x40 MLOAD PUSH2 0x4CC SWAP2 SWAP1 PUSH2 0x4635 JUMP JUMPDEST PUSH1 0x40 MLOAD DUP1 SWAP2 SUB SWAP1 RETURN JUMPDEST PUSH2 0x4EF PUSH1 0x4 DUP1 CALLDATASIZE SUB DUP2 ADD SWAP1 PUSH2 0x4EA SWAP2 SWAP1 PUSH2 0x442F JUMP JUMPDEST PUSH2 0x1B29 JUMP JUMPDEST STOP JUMPDEST PUSH2 0x4F9 PUSH2 0x25B2 JUMP JUMPDEST PUSH1 0x40 MLOAD PUSH2 0x506 SWAP2 SWAP1 PUSH2 0x4635 JUMP JUMPDEST PUSH1 0x40 MLOAD DUP1 SWAP2 SUB SWAP1 RETURN JUMPDEST PUSH2 0x517 PUSH2 0x25B8 JUMP JUMPDEST PUSH1 0x40 MLOAD PUSH2 0x524 SWAP2 SWAP1 PUSH2 0x4635 JUMP JUMPDEST PUSH1 0x40 MLOAD DUP1 SWAP2 SUB SWAP1 RETURN JUMPDEST PUSH2 0x535 PUSH2 0x25BE JUMP JUMPDEST PUSH1 0x40 MLOAD PUSH2 0x542 SWAP2 SWAP1 PUSH2 0x4635 JUMP JUMPDEST PUSH1 0x40 MLOAD DUP1 SWAP2 SUB SWAP1 RETURN JUMPDEST PUSH2 0x553 PUSH2 0x25C4 JUMP JUMPDEST PUSH1 0x40 MLOAD PUSH2 0x560 SWAP2 SWAP1 PUSH2 0x4635 JUMP JUMPDEST PUSH1 0x40 MLOAD DUP1 SWAP2 SUB SWAP1 RETURN JUMPDEST PUSH2 0x571 PUSH2 0x25CA JUMP JUMPDEST PUSH1 0x40 MLOAD PUSH2 0x57E SWAP2 SWAP1 PUSH2 0x4635 JUMP JUMPDEST PUSH1 0x40 MLOAD DUP1 SWAP2 SUB SWAP1 RETURN JUMPDEST PUSH2 0x5A1 PUSH1 0x4 DUP1 CALLDATASIZE SUB DUP2 ADD SWAP1 PUSH2 0x59C SWAP2 SWAP1 PUSH2 0x425B JUMP JUMPDEST PUSH2 0x25D0 JUMP JUMPDEST STOP JUMPDEST PUSH2 0x5AB PUSH2 0x2981 JUMP JUMPDEST PUSH1 0x40 MLOAD PUSH2 0x5B8 SWAP2 SWAP1 PUSH2 0x4635 JUMP JUMPDEST PUSH1 0x40 MLOAD DUP1 SWAP2 SUB SWAP1 RETURN JUMPDEST PUSH2 0x5C9 PUSH2 0x2987 JUMP JUMPDEST PUSH1 0x40 MLOAD PUSH2 0x5D6 SWAP2 SWAP1 PUSH2 0x4635 JUMP JUMPDEST PUSH1 0x40 MLOAD DUP1 SWAP2 SUB SWAP1 RETURN JUMPDEST PUSH2 0x5E7 PUSH2 0x298D JUMP JUMPDEST PUSH1 0x40 MLOAD PUSH2 0x5F4 SWAP2 SWAP1 PUSH2 0x4635 JUMP JUMPDEST PUSH1 0x40 MLOAD DUP1 SWAP2 SUB SWAP1 RETURN JUMPDEST PUSH2 0x605 PUSH2 0x2993 JUMP JUMPDEST PUSH1 0x40 MLOAD PUSH2 0x612 SWAP2 SWAP1 PUSH2 0x4635 JUMP JUMPDEST PUSH1 0x40 MLOAD DUP1 SWAP2 SUB SWAP1 RETURN JUMPDEST PUSH2 0x623 PUSH2 0x2999 JUMP JUMPDEST PUSH1 0x40 MLOAD PUSH2 0x630 SWAP2 SWAP1 PUSH2 0x4635 JUMP JUMPDEST PUSH1 0x40 MLOAD DUP1 SWAP2 SUB SWAP1 RETURN JUMPDEST PUSH2 0x641 PUSH2 0x299F JUMP JUMPDEST PUSH1 0x40 MLOAD PUSH2 0x64E SWAP2 SWAP1 PUSH2 0x45DA JUMP JUMPDEST PUSH1 0x40 MLOAD DUP1 SWAP2 SUB SWAP1 RETURN JUMPDEST PUSH2 0x65F PUSH2 0x29B2 JUMP JUMPDEST PUSH1 0x40 MLOAD PUSH2 0x66C SWAP2 SWAP1 PUSH2 0x4551 JUMP JUMPDEST PUSH1 0x40 MLOAD DUP1 SWAP2 SUB SWAP1 RETURN JUMPDEST PUSH2 0x67D PUSH2 0x29D8 JUMP JUMPDEST PUSH1 0x40 MLOAD PUSH2 0x68A SWAP2 SWAP1 PUSH2 0x4635 JUMP JUMPDEST PUSH1 0x40 MLOAD DUP1 SWAP2 SUB SWAP1 RETURN JUMPDEST PUSH2 0x69B PUSH2 0x29DE JUMP JUMPDEST PUSH1 0x40 MLOAD PUSH2 0x6A8 SWAP2 SWAP1 PUSH2 0x4635 JUMP JUMPDEST PUSH1 0x40 MLOAD DUP1 SWAP2 SUB SWAP1 RETURN JUMPDEST PUSH2 0x6B9 PUSH2 0x29E4 JUMP JUMPDEST PUSH1 0x40 MLOAD PUSH2 0x6C6 SWAP2 SWAP1 PUSH2 0x4551 JUMP JUMPDEST PUSH1 0x40 MLOAD DUP1 SWAP2 SUB SWAP1 RETURN JUMPDEST PUSH2 0x6D7 PUSH2 0x2A0A JUMP JUMPDEST PUSH1 0x40 MLOAD PUSH2 0x6E4 SWAP2 SWAP1 PUSH2 0x4635 JUMP JUMPDEST PUSH1 0x40 MLOAD DUP1 SWAP2 SUB SWAP1 RETURN JUMPDEST PUSH2 0x6F5 PUSH2 0x2A10 JUMP JUMPDEST PUSH1 0x40 MLOAD PUSH2 0x702 SWAP2 SWAP1 PUSH2 0x4635 JUMP JUMPDEST PUSH1 0x40 MLOAD DUP1 SWAP2 SUB SWAP1 RETURN JUMPDEST PUSH2 0x713 PUSH2 0x2A16 JUMP JUMPDEST PUSH1 0x40 MLOAD PUSH2 0x720 SWAP2 SWAP1 PUSH2 0x4635 JUMP JUMPDEST PUSH1 0x40 MLOAD DUP1 SWAP2 SUB SWAP1 RETURN JUMPDEST PUSH2 0x731 PUSH2 0x2A1C JUMP JUMPDEST PUSH1 0x40 MLOAD PUSH2 0x73E SWAP2 SWAP1 PUSH2 0x4635 JUMP JUMPDEST PUSH1 0x40 MLOAD DUP1 SWAP2 SUB SWAP1 RETURN JUMPDEST PUSH2 0x74F PUSH2 0x2A22 JUMP JUMPDEST PUSH1 0x40 MLOAD PUSH2 0x75C SWAP2 SWAP1 PUSH2 0x4635 JUMP JUMPDEST PUSH1 0x40 MLOAD DUP1 SWAP2 SUB SWAP1 RETURN JUMPDEST PUSH2 0x76D PUSH2 0x2A28 JUMP JUMPDEST PUSH1 0x40 MLOAD PUSH2 0x77A SWAP2 SWAP1 PUSH2 0x4635 JUMP JUMPDEST PUSH1 0x40 MLOAD DUP1 SWAP2 SUB SWAP1 RETURN JUMPDEST PUSH2 0x78B PUSH2 0x2A2E JUMP JUMPDEST PUSH1 0x40 MLOAD PUSH2 0x798 SWAP2 SWAP1 PUSH2 0x4635 JUMP JUMPDEST PUSH1 0x40 MLOAD DUP1 SWAP2 SUB SWAP1 RETURN JUMPDEST PUSH2 0x7BB PUSH1 0x4 DUP1 CALLDATASIZE SUB DUP2 ADD SWAP1 PUSH2 0x7B6 SWAP2 SWAP1 PUSH2 0x43DC JUMP JUMPDEST PUSH2 0x2A34 JUMP JUMPDEST STOP JUMPDEST PUSH2 0x7C5 PUSH2 0x2B03 JUMP JUMPDEST PUSH1 0x40 MLOAD PUSH2 0x7D2 SWAP2 SWAP1 PUSH2 0x4635 JUMP JUMPDEST PUSH1 0x40 MLOAD DUP1 SWAP2 SUB SWAP1 RETURN JUMPDEST PUSH2 0x7E3 PUSH2 0x2B09 JUMP JUMPDEST PUSH1 0x40 MLOAD PUSH2 0x7F0 SWAP2 SWAP1 PUSH2 0x4635 JUMP JUMPDEST PUSH1 0x40 MLOAD DUP1 SWAP2 SUB SWAP1 RETURN JUMPDEST PUSH1 0x11 SLOAD DUP2 JUMP JUMPDEST PUSH1 0x27 DUP2 PUSH1 0x2 DUP2 LT PUSH2 0x80F JUMPI PUSH1 0x0 DUP1 REVERT JUMPDEST ADD PUSH1 0x0 SWAP2 POP SWAP1 POP SLOAD DUP2 JUMP JUMPDEST PUSH1 0x1 SLOAD DUP2 JUMP JUMPDEST PUSH1 0x1B SLOAD DUP2 JUMP JUMPDEST PUSH1 0x18 PUSH1 0x0 SWAP1 SLOAD SWAP1 PUSH2 0x100 EXP SWAP1 DIV PUSH20 0xFFFFFFFFFFFFFFFFFFFFFFFFFFFFFFFFFFFFFFFF AND DUP2 JUMP JUMPDEST PUSH1 0xD SLOAD DUP2 JUMP JUMPDEST PUSH1 0x29 PUSH1 0x20 MSTORE DUP2 PUSH1 0x0 MSTORE PUSH1 0x40 PUSH1 0x0 KECCAK256 PUSH1 0x20 MSTORE DUP1 PUSH1 0x0 MSTORE PUSH1 0x40 PUSH1 0x0 KECCAK256 PUSH1 0x0 SWAP2 POP SWAP2 POP POP DUP1 PUSH1 0x0 ADD PUSH1 0x0 SWAP1 SLOAD SWAP1 PUSH2 0x100 EXP SWAP1 DIV PUSH20 0xFFFFFFFFFFFFFFFFFFFFFFFFFFFFFFFFFFFFFFFF AND SWAP1 DUP1 PUSH1 0x0 ADD PUSH1 0x14 SWAP1 SLOAD SWAP1 PUSH2 0x100 EXP SWAP1 DIV PUSH1 0xFF AND SWAP1 DUP1 PUSH1 0x1 ADD SLOAD SWAP1 DUP1 PUSH1 0x2 ADD SLOAD SWAP1 POP DUP5 JUMP JUMPDEST PUSH1 0x24 PUSH1 0x0 SWAP1 SLOAD SWAP1 PUSH2 0x100 EXP SWAP1 DIV PUSH1 0xFF AND DUP2 JUMP JUMPDEST PUSH1 0x14 SLOAD DUP2 JUMP JUMPDEST PUSH1 0x0 SLOAD DUP2 JUMP JUMPDEST PUSH1 0x2A PUSH1 0x20 MSTORE DUP2 PUSH1 0x0 MSTORE PUSH1 0x40 PUSH1 0x0 KECCAK256 DUP2 PUSH1 0x2 DUP2 LT PUSH2 0x8F7 JUMPI PUSH1 0x0 DUP1 REVERT JUMPDEST ADD PUSH1 0x0 SWAP2 POP SWAP2 POP POP SLOAD DUP2 JUMP JUMPDEST PUSH1 0xC SLOAD DUP2 JUMP JUMPDEST PUSH1 0x22 SLOAD DUP2 JUMP JUMPDEST PUSH1 0x23 SLOAD DUP2 JUMP JUMPDEST PUSH1 0x1 PUSH1 0x25 SLOAD EQ PUSH2 0x95A JUMPI PUSH1 0x40 MLOAD PUSH32 0x8C379A000000000000000000000000000000000000000000000000000000000 DUP2 MSTORE PUSH1 0x4 ADD PUSH2 0x951 SWAP1 PUSH2 0x4615 JUMP JUMPDEST PUSH1 0x40 MLOAD DUP1 SWAP2 SUB SWAP1 REVERT JUMPDEST PUSH1 0x0 PUSH1 0x25 DUP2 SWAP1 SSTORE POP PUSH1 0x0 DUP3 DUP5 PUSH2 0x970 SWAP2 SWAP1 PUSH2 0x486F JUMP JUMPDEST EQ DUP1 ISZERO PUSH2 0x988 JUMPI POP PUSH1 0x0 DUP3 DUP5 PUSH2 0x986 SWAP2 SWAP1 PUSH2 0x4677 JUMP JUMPDEST GT JUMPDEST DUP1 ISZERO PUSH2 0x9B6 JUMPI POP PUSH2 0x998 DUP2 PUSH2 0x2B0F JUMP JUMPDEST PUSH2 0x9A1 DUP3 PUSH2 0x2C03 JUMP JUMPDEST PUSH2 0x9AA DUP4 PUSH2 0x2CDB JUMP JUMPDEST PUSH2 0x9B4 SWAP2 SWAP1 PUSH2 0x4677 JUMP JUMPDEST GT JUMPDEST DUP1 ISZERO PUSH2 0xA19 JUMPI POP PUSH1 0x29 PUSH1 0x0 DUP3 PUSH20 0xFFFFFFFFFFFFFFFFFFFFFFFFFFFFFFFFFFFFFFFF AND PUSH20 0xFFFFFFFFFFFFFFFFFFFFFFFFFFFFFFFFFFFFFFFF AND DUP2 MSTORE PUSH1 0x20 ADD SWAP1 DUP2 MSTORE PUSH1 0x20 ADD PUSH1 0x0 KECCAK256 PUSH1 0x0 DUP1 ISZERO ISZERO ISZERO ISZERO DUP2 MSTORE PUSH1 0x20 ADD SWAP1 DUP2 MSTORE PUSH1 0x20 ADD PUSH1 0x0 KECCAK256 PUSH1 0x2 ADD SLOAD DUP4 GT ISZERO JUMPDEST DUP1 ISZERO PUSH2 0xA7D JUMPI POP PUSH1 0x29 PUSH1 0x0 DUP3 PUSH20 0xFFFFFFFFFFFFFFFFFFFFFFFFFFFFFFFFFFFFFFFF AND PUSH20 0xFFFFFFFFFFFFFFFFFFFFFFFFFFFFFFFFFFFFFFFF AND DUP2 MSTORE PUSH1 0x20 ADD SWAP1 DUP2 MSTORE PUSH1 0x20 ADD PUSH1 0x0 KECCAK256 PUSH1 0x0 PUSH1 0x1 ISZERO ISZERO ISZERO ISZERO DUP2 MSTORE PUSH1 0x20 ADD SWAP1 DUP2 MSTORE PUSH1 0x20 ADD PUSH1 0x0 KECCAK256 PUSH1 0x2 ADD SLOAD DUP3 GT ISZERO JUMPDEST PUSH2 0xA86 JUMPI PUSH1 0x0 DUP1 REVERT JUMPDEST PUSH2 0xA8E PUSH2 0x2DAA JUMP JUMPDEST PUSH1 0x0 DUP4 GT ISZERO PUSH2 0x11C3 JUMPI PUSH1 0x0 PUSH2 0xAA6 DUP5 PUSH1 0x1 PUSH1 0x0 PUSH2 0x2F28 JUMP JUMPDEST SWAP1 POP PUSH1 0x0 PUSH2 0xB6A DUP6 PUSH1 0x29 PUSH1 0x0 DUP7 PUSH20 0xFFFFFFFFFFFFFFFFFFFFFFFFFFFFFFFFFFFFFFFF AND PUSH20 0xFFFFFFFFFFFFFFFFFFFFFFFFFFFFFFFFFFFFFFFF AND DUP2 MSTORE PUSH1 0x20 ADD SWAP1 DUP2 MSTORE PUSH1 0x20 ADD PUSH1 0x0 KECCAK256 PUSH1 0x0 PUSH1 0x1 ISZERO ISZERO ISZERO ISZERO DUP2 MSTORE PUSH1 0x20 ADD SWAP1 DUP2 MSTORE PUSH1 0x20 ADD PUSH1 0x0 KECCAK256 PUSH1 0x1 ADD SLOAD PUSH1 0xF SLOAD PUSH1 0x11 SLOAD PUSH1 0x29 PUSH1 0x0 DUP10 PUSH20 0xFFFFFFFFFFFFFFFFFFFFFFFFFFFFFFFFFFFFFFFF AND PUSH20 0xFFFFFFFFFFFFFFFFFFFFFFFFFFFFFFFFFFFFFFFF AND DUP2 MSTORE PUSH1 0x20 ADD SWAP1 DUP2 MSTORE PUSH1 0x20 ADD PUSH1 0x0 KECCAK256 PUSH1 0x0 DUP1 ISZERO ISZERO ISZERO ISZERO DUP2 MSTORE PUSH1 0x20 ADD SWAP1 DUP2 MSTORE PUSH1 0x20 ADD PUSH1 0x0 KECCAK256 PUSH1 0x2 ADD SLOAD PUSH2 0x3325 JUMP JUMPDEST SWAP1 POP DUP5 PUSH1 0x29 PUSH1 0x0 DUP6 PUSH20 0xFFFFFFFFFFFFFFFFFFFFFFFFFFFFFFFFFFFFFFFF AND PUSH20 0xFFFFFFFFFFFFFFFFFFFFFFFFFFFFFFFFFFFFFFFF AND DUP2 MSTORE PUSH1 0x20 ADD SWAP1 DUP2 MSTORE PUSH1 0x20 ADD PUSH1 0x0 KECCAK256 PUSH1 0x0 DUP1 ISZERO ISZERO ISZERO ISZERO DUP2 MSTORE PUSH1 0x20 ADD SWAP1 DUP2 MSTORE PUSH1 0x20 ADD PUSH1 0x0 KECCAK256 PUSH1 0x2 ADD PUSH1 0x0 DUP3 DUP3 SLOAD PUSH2 0xBD3 SWAP2 SWAP1 PUSH2 0x48C9 JUMP JUMPDEST SWAP3 POP POP DUP2 SWAP1 SSTORE POP DUP1 PUSH1 0xF PUSH1 0x0 DUP3 DUP3 SLOAD PUSH2 0xBEC SWAP2 SWAP1 PUSH2 0x48C9 JUMP JUMPDEST SWAP3 POP POP DUP2 SWAP1 SSTORE POP PUSH2 0xCAD PUSH1 0x29 PUSH1 0x0 DUP6 PUSH20 0xFFFFFFFFFFFFFFFFFFFFFFFFFFFFFFFFFFFFFFFF AND PUSH20 0xFFFFFFFFFFFFFFFFFFFFFFFFFFFFFFFFFFFFFFFF AND DUP2 MSTORE PUSH1 0x20 ADD SWAP1 DUP2 MSTORE PUSH1 0x20 ADD PUSH1 0x0 KECCAK256 PUSH1 0x0 PUSH1 0x1 ISZERO ISZERO ISZERO ISZERO DUP2 MSTORE PUSH1 0x20 ADD SWAP1 DUP2 MSTORE PUSH1 0x20 ADD PUSH1 0x0 KECCAK256 PUSH1 0x1 ADD SLOAD DUP7 PUSH1 0x29 PUSH1 0x0 DUP8 PUSH20 0xFFFFFFFFFFFFFFFFFFFFFFFFFFFFFFFFFFFFFFFF AND PUSH20 0xFFFFFFFFFFFFFFFFFFFFFFFFFFFFFFFFFFFFFFFF AND DUP2 MSTORE PUSH1 0x20 ADD SWAP1 DUP2 MSTORE PUSH1 0x20 ADD PUSH1 0x0 KECCAK256 PUSH1 0x0 DUP1 ISZERO ISZERO ISZERO ISZERO DUP2 MSTORE PUSH1 0x20 ADD SWAP1 DUP2 MSTORE PUSH1 0x20 ADD PUSH1 0x0 KECCAK256 PUSH1 0x2 ADD SLOAD PUSH2 0x335F JUMP JUMPDEST PUSH1 0x11 PUSH1 0x0 DUP3 DUP3 SLOAD PUSH2 0xCBE SWAP2 SWAP1 PUSH2 0x48C9 JUMP JUMPDEST SWAP3 POP POP DUP2 SWAP1 SSTORE POP PUSH2 0xD7F PUSH1 0x29 PUSH1 0x0 DUP6 PUSH20 0xFFFFFFFFFFFFFFFFFFFFFFFFFFFFFFFFFFFFFFFF AND PUSH20 0xFFFFFFFFFFFFFFFFFFFFFFFFFFFFFFFFFFFFFFFF AND DUP2 MSTORE PUSH1 0x20 ADD SWAP1 DUP2 MSTORE PUSH1 0x20 ADD PUSH1 0x0 KECCAK256 PUSH1 0x0 PUSH1 0x1 ISZERO ISZERO ISZERO ISZERO DUP2 MSTORE PUSH1 0x20 ADD SWAP1 DUP2 MSTORE PUSH1 0x20 ADD PUSH1 0x0 KECCAK256 PUSH1 0x1 ADD SLOAD DUP7 PUSH1 0x29 PUSH1 0x0 DUP8 PUSH20 0xFFFFFFFFFFFFFFFFFFFFFFFFFFFFFFFFFFFFFFFF AND PUSH20 0xFFFFFFFFFFFFFFFFFFFFFFFFFFFFFFFFFFFFFFFF AND DUP2 MSTORE PUSH1 0x20 ADD SWAP1 DUP2 MSTORE PUSH1 0x20 ADD PUSH1 0x0 KECCAK256 PUSH1 0x0 DUP1 ISZERO ISZERO ISZERO ISZERO DUP2 MSTORE PUSH1 0x20 ADD SWAP1 DUP2 MSTORE PUSH1 0x20 ADD PUSH1 0x0 KECCAK256 PUSH1 0x2 ADD SLOAD PUSH2 0x335F JUMP JUMPDEST PUSH1 0x29 PUSH1 0x0 DUP6 PUSH20 0xFFFFFFFFFFFFFFFFFFFFFFFFFFFFFFFFFFFFFFFF AND PUSH20 0xFFFFFFFFFFFFFFFFFFFFFFFFFFFFFFFFFFFFFFFF AND DUP2 MSTORE PUSH1 0x20 ADD SWAP1 DUP2 MSTORE PUSH1 0x20 ADD PUSH1 0x0 KECCAK256 PUSH1 0x0 PUSH1 0x1 ISZERO ISZERO ISZERO ISZERO DUP2 MSTORE PUSH1 0x20 ADD SWAP1 DUP2 MSTORE PUSH1 0x20 ADD PUSH1 0x0 KECCAK256 PUSH1 0x1 ADD PUSH1 0x0 DUP3 DUP3 SLOAD PUSH2 0xDE6 SWAP2 SWAP1 PUSH2 0x48C9 JUMP JUMPDEST SWAP3 POP POP DUP2 SWAP1 SSTORE POP DUP1 DUP3 GT DUP1 ISZERO PUSH2 0xE0F JUMPI POP PUSH1 0x0 ISZERO ISZERO PUSH1 0x24 PUSH1 0x0 SWAP1 SLOAD SWAP1 PUSH2 0x100 EXP SWAP1 DIV PUSH1 0xFF AND ISZERO ISZERO EQ JUMPDEST ISZERO PUSH2 0xE99 JUMPI PUSH2 0xE2B DUP2 DUP4 PUSH2 0xE23 SWAP2 SWAP1 PUSH2 0x48C9 JUMP JUMPDEST PUSH1 0x0 DUP1 PUSH2 0x3381 JUMP JUMPDEST PUSH1 0x2A PUSH1 0x0 DUP6 PUSH20 0xFFFFFFFFFFFFFFFFFFFFFFFFFFFFFFFFFFFFFFFF AND PUSH20 0xFFFFFFFFFFFFFFFFFFFFFFFFFFFFFFFFFFFFFFFF AND DUP2 MSTORE PUSH1 0x20 ADD SWAP1 DUP2 MSTORE PUSH1 0x20 ADD PUSH1 0x0 KECCAK256 PUSH1 0x0 PUSH1 0x2 DUP2 LT PUSH2 0xE7D JUMPI PUSH2 0xE7C PUSH2 0x49E3 JUMP JUMPDEST JUMPDEST ADD PUSH1 0x0 DUP3 DUP3 SLOAD PUSH2 0xE8D SWAP2 SWAP1 PUSH2 0x4677 JUMP JUMPDEST SWAP3 POP POP DUP2 SWAP1 SSTORE POP PUSH2 0x11BC JUMP JUMPDEST DUP1 DUP3 PUSH1 0x2A PUSH1 0x0 DUP7 PUSH20 0xFFFFFFFFFFFFFFFFFFFFFFFFFFFFFFFFFFFFFFFF AND PUSH20 0xFFFFFFFFFFFFFFFFFFFFFFFFFFFFFFFFFFFFFFFF AND DUP2 MSTORE PUSH1 0x20 ADD SWAP1 DUP2 MSTORE PUSH1 0x20 ADD PUSH1 0x0 KECCAK256 PUSH1 0x1 PUSH1 0x2 DUP2 LT PUSH2 0xEED JUMPI PUSH2 0xEEC PUSH2 0x49E3 JUMP JUMPDEST JUMPDEST ADD SLOAD PUSH2 0xEF9 SWAP2 SWAP1 PUSH2 0x4677 JUMP JUMPDEST GT DUP1 ISZERO PUSH2 0xF19 JUMPI POP PUSH1 0x1 ISZERO ISZERO PUSH1 0x24 PUSH1 0x0 SWAP1 SLOAD SWAP1 PUSH2 0x100 EXP SWAP1 DIV PUSH1 0xFF AND ISZERO ISZERO EQ JUMPDEST ISZERO PUSH2 0xFE4 JUMPI DUP1 DUP3 PUSH1 0x2A PUSH1 0x0 DUP7 PUSH20 0xFFFFFFFFFFFFFFFFFFFFFFFFFFFFFFFFFFFFFFFF AND PUSH20 0xFFFFFFFFFFFFFFFFFFFFFFFFFFFFFFFFFFFFFFFF AND DUP2 MSTORE PUSH1 0x20 ADD SWAP1 DUP2 MSTORE PUSH1 0x20 ADD PUSH1 0x0 KECCAK256 PUSH1 0x1 PUSH1 0x2 DUP2 LT PUSH2 0xF72 JUMPI PUSH2 0xF71 PUSH2 0x49E3 JUMP JUMPDEST JUMPDEST ADD SLOAD PUSH2 0xF7E SWAP2 SWAP1 PUSH2 0x4677 JUMP JUMPDEST PUSH2 0xF88 SWAP2 SWAP1 PUSH2 0x48C9 JUMP JUMPDEST PUSH1 0x2A PUSH1 0x0 DUP6 PUSH20 0xFFFFFFFFFFFFFFFFFFFFFFFFFFFFFFFFFFFFFFFF AND PUSH20 0xFFFFFFFFFFFFFFFFFFFFFFFFFFFFFFFFFFFFFFFF AND DUP2 MSTORE PUSH1 0x20 ADD SWAP1 DUP2 MSTORE PUSH1 0x20 ADD PUSH1 0x0 KECCAK256 PUSH1 0x1 PUSH1 0x2 DUP2 LT PUSH2 0xFDA JUMPI PUSH2 0xFD9 PUSH2 0x49E3 JUMP JUMPDEST JUMPDEST ADD DUP2 SWAP1 SSTORE POP PUSH2 0x11BB JUMP JUMPDEST PUSH2 0x10AC PUSH1 0x2A PUSH1 0x0 DUP6 PUSH20 0xFFFFFFFFFFFFFFFFFFFFFFFFFFFFFFFFFFFFFFFF AND PUSH20 0xFFFFFFFFFFFFFFFFFFFFFFFFFFFFFFFFFFFFFFFF AND DUP2 MSTORE PUSH1 0x20 ADD SWAP1 DUP2 MSTORE PUSH1 0x20 ADD PUSH1 0x0 KECCAK256 PUSH1 0x0 PUSH1 0x2 DUP2 LT PUSH2 0x1039 JUMPI PUSH2 0x1038 PUSH2 0x49E3 JUMP JUMPDEST JUMPDEST ADD SLOAD PUSH1 0x0 PUSH1 0x2A PUSH1 0x0 DUP8 PUSH20 0xFFFFFFFFFFFFFFFFFFFFFFFFFFFFFFFFFFFFFFFF AND PUSH20 0xFFFFFFFFFFFFFFFFFFFFFFFFFFFFFFFFFFFFFFFF AND DUP2 MSTORE PUSH1 0x20 ADD SWAP1 DUP2 MSTORE PUSH1 0x20 ADD PUSH1 0x0 KECCAK256 PUSH1 0x1 PUSH1 0x2 DUP2 LT PUSH2 0x108F JUMPI PUSH2 0x108E PUSH2 0x49E3 JUMP JUMPDEST JUMPDEST ADD SLOAD DUP6 DUP6 PUSH2 0x109D SWAP2 SWAP1 PUSH2 0x48C9 JUMP JUMPDEST PUSH2 0x10A7 SWAP2 SWAP1 PUSH2 0x48C9 JUMP JUMPDEST PUSH2 0x2F28 JUMP JUMPDEST PUSH1 0x2A PUSH1 0x0 DUP6 PUSH20 0xFFFFFFFFFFFFFFFFFFFFFFFFFFFFFFFFFFFFFFFF AND PUSH20 0xFFFFFFFFFFFFFFFFFFFFFFFFFFFFFFFFFFFFFFFF AND DUP2 MSTORE PUSH1 0x20 ADD SWAP1 DUP2 MSTORE PUSH1 0x20 ADD PUSH1 0x0 KECCAK256 PUSH1 0x0 PUSH1 0x2 DUP2 LT PUSH2 0x10FE JUMPI PUSH2 0x10FD PUSH2 0x49E3 JUMP JUMPDEST JUMPDEST ADD SLOAD PUSH2 0x110A SWAP2 SWAP1 PUSH2 0x48C9 JUMP JUMPDEST PUSH1 0x2A PUSH1 0x0 DUP6 PUSH20 0xFFFFFFFFFFFFFFFFFFFFFFFFFFFFFFFFFFFFFFFF AND PUSH20 0xFFFFFFFFFFFFFFFFFFFFFFFFFFFFFFFFFFFFFFFF AND DUP2 MSTORE PUSH1 0x20 ADD SWAP1 DUP2 MSTORE PUSH1 0x20 ADD PUSH1 0x0 KECCAK256 PUSH1 0x0 PUSH1 0x2 DUP2 LT PUSH2 0x115C JUMPI PUSH2 0x115B PUSH2 0x49E3 JUMP JUMPDEST JUMPDEST ADD DUP2 SWAP1 SSTORE POP PUSH1 0x0 PUSH1 0x2A PUSH1 0x0 DUP6 PUSH20 0xFFFFFFFFFFFFFFFFFFFFFFFFFFFFFFFFFFFFFFFF AND PUSH20 0xFFFFFFFFFFFFFFFFFFFFFFFFFFFFFFFFFFFFFFFF AND DUP2 MSTORE PUSH1 0x20 ADD SWAP1 DUP2 MSTORE PUSH1 0x20 ADD PUSH1 0x0 KECCAK256 PUSH1 0x1 PUSH1 0x2 DUP2 LT PUSH2 0x11B5 JUMPI PUSH2 0x11B4 PUSH2 0x49E3 JUMP JUMPDEST JUMPDEST ADD DUP2 SWAP1 SSTORE POP JUMPDEST JUMPDEST POP POP PUSH2 0x181F JUMP JUMPDEST PUSH1 0x0 PUSH2 0x11D2 DUP4 PUSH1 0x1 PUSH1 0x0 PUSH2 0x3381 JUMP JUMPDEST SWAP1 POP PUSH1 0x0 PUSH2 0x1296 DUP5 PUSH1 0x29 PUSH1 0x0 DUP7 PUSH20 0xFFFFFFFFFFFFFFFFFFFFFFFFFFFFFFFFFFFFFFFF AND PUSH20 0xFFFFFFFFFFFFFFFFFFFFFFFFFFFFFFFFFFFFFFFF AND DUP2 MSTORE PUSH1 0x20 ADD SWAP1 DUP2 MSTORE PUSH1 0x20 ADD PUSH1 0x0 KECCAK256 PUSH1 0x0 DUP1 ISZERO ISZERO ISZERO ISZERO DUP2 MSTORE PUSH1 0x20 ADD SWAP1 DUP2 MSTORE PUSH1 0x20 ADD PUSH1 0x0 KECCAK256 PUSH1 0x1 ADD SLOAD PUSH1 0xE SLOAD PUSH1 0x10 SLOAD PUSH1 0x29 PUSH1 0x0 DUP10 PUSH20 0xFFFFFFFFFFFFFFFFFFFFFFFFFFFFFFFFFFFFFFFF AND PUSH20 0xFFFFFFFFFFFFFFFFFFFFFFFFFFFFFFFFFFFFFFFF AND DUP2 MSTORE PUSH1 0x20 ADD SWAP1 DUP2 MSTORE PUSH1 0x20 ADD PUSH1 0x0 KECCAK256 PUSH1 0x0 PUSH1 0x1 ISZERO ISZERO ISZERO ISZERO DUP2 MSTORE PUSH1 0x20 ADD SWAP1 DUP2 MSTORE PUSH1 0x20 ADD PUSH1 0x0 KECCAK256 PUSH1 0x2 ADD SLOAD PUSH2 0x3325 JUMP JUMPDEST SWAP1 POP DUP4 PUSH1 0x29 PUSH1 0x0 DUP6 PUSH20 0xFFFFFFFFFFFFFFFFFFFFFFFFFFFFFFFFFFFFFFFF AND PUSH20 0xFFFFFFFFFFFFFFFFFFFFFFFFFFFFFFFFFFFFFFFF AND DUP2 MSTORE PUSH1 0x20 ADD SWAP1 DUP2 MSTORE PUSH1 0x20 ADD PUSH1 0x0 KECCAK256 PUSH1 0x0 PUSH1 0x1 ISZERO ISZERO ISZERO ISZERO DUP2 MSTORE PUSH1 0x20 ADD SWAP1 DUP2 MSTORE PUSH1 0x20 ADD PUSH1 0x0 KECCAK256 PUSH1 0x2 ADD PUSH1 0x0 DUP3 DUP3 SLOAD PUSH2 0x1300 SWAP2 SWAP1 PUSH2 0x48C9 JUMP JUMPDEST SWAP3 POP POP DUP2 SWAP1 SSTORE POP DUP1 PUSH1 0xE PUSH1 0x0 DUP3 DUP3 SLOAD PUSH2 0x1319 SWAP2 SWAP1 PUSH2 0x48C9 JUMP JUMPDEST SWAP3 POP POP DUP2 SWAP1 SSTORE POP PUSH2 0x13DA PUSH1 0x29 PUSH1 0x0 DUP6 PUSH20 0xFFFFFFFFFFFFFFFFFFFFFFFFFFFFFFFFFFFFFFFF AND PUSH20 0xFFFFFFFFFFFFFFFFFFFFFFFFFFFFFFFFFFFFFFFF AND DUP2 MSTORE PUSH1 0x20 ADD SWAP1 DUP2 MSTORE PUSH1 0x20 ADD PUSH1 0x0 KECCAK256 PUSH1 0x0 DUP1 ISZERO ISZERO ISZERO ISZERO DUP2 MSTORE PUSH1 0x20 ADD SWAP1 DUP2 MSTORE PUSH1 0x20 ADD PUSH1 0x0 KECCAK256 PUSH1 0x1 ADD SLOAD DUP6 PUSH1 0x29 PUSH1 0x0 DUP8 PUSH20 0xFFFFFFFFFFFFFFFFFFFFFFFFFFFFFFFFFFFFFFFF AND PUSH20 0xFFFFFFFFFFFFFFFFFFFFFFFFFFFFFFFFFFFFFFFF AND DUP2 MSTORE PUSH1 0x20 ADD SWAP1 DUP2 MSTORE PUSH1 0x20 ADD PUSH1 0x0 KECCAK256 PUSH1 0x0 PUSH1 0x1 ISZERO ISZERO ISZERO ISZERO DUP2 MSTORE PUSH1 0x20 ADD SWAP1 DUP2 MSTORE PUSH1 0x20 ADD PUSH1 0x0 KECCAK256 PUSH1 0x2 ADD SLOAD PUSH2 0x335F JUMP JUMPDEST PUSH1 0x10 PUSH1 0x0 DUP3 DUP3 SLOAD PUSH2 0x13EB SWAP2 SWAP1 PUSH2 0x48C9 JUMP JUMPDEST SWAP3 POP POP DUP2 SWAP1 SSTORE POP PUSH2 0x14AC PUSH1 0x29 PUSH1 0x0 DUP6 PUSH20 0xFFFFFFFFFFFFFFFFFFFFFFFFFFFFFFFFFFFFFFFF AND PUSH20 0xFFFFFFFFFFFFFFFFFFFFFFFFFFFFFFFFFFFFFFFF AND DUP2 MSTORE PUSH1 0x20 ADD SWAP1 DUP2 MSTORE PUSH1 0x20 ADD PUSH1 0x0 KECCAK256 PUSH1 0x0 DUP1 ISZERO ISZERO ISZERO ISZERO DUP2 MSTORE PUSH1 0x20 ADD SWAP1 DUP2 MSTORE PUSH1 0x20 ADD PUSH1 0x0 KECCAK256 PUSH1 0x1 ADD SLOAD DUP6 PUSH1 0x29 PUSH1 0x0 DUP8 PUSH20 0xFFFFFFFFFFFFFFFFFFFFFFFFFFFFFFFFFFFFFFFF AND PUSH20 0xFFFFFFFFFFFFFFFFFFFFFFFFFFFFFFFFFFFFFFFF AND DUP2 MSTORE PUSH1 0x20 ADD SWAP1 DUP2 MSTORE PUSH1 0x20 ADD PUSH1 0x0 KECCAK256 PUSH1 0x0 PUSH1 0x1 ISZERO ISZERO ISZERO ISZERO DUP2 MSTORE PUSH1 0x20 ADD SWAP1 DUP2 MSTORE PUSH1 0x20 ADD PUSH1 0x0 KECCAK256 PUSH1 0x2 ADD SLOAD PUSH2 0x335F JUMP JUMPDEST PUSH1 0x29 PUSH1 0x0 DUP6 PUSH20 0xFFFFFFFFFFFFFFFFFFFFFFFFFFFFFFFFFFFFFFFF AND PUSH20 0xFFFFFFFFFFFFFFFFFFFFFFFFFFFFFFFFFFFFFFFF AND DUP2 MSTORE PUSH1 0x20 ADD SWAP1 DUP2 MSTORE PUSH1 0x20 ADD PUSH1 0x0 KECCAK256 PUSH1 0x0 DUP1 ISZERO ISZERO ISZERO ISZERO DUP2 MSTORE PUSH1 0x20 ADD SWAP1 DUP2 MSTORE PUSH1 0x20 ADD PUSH1 0x0 KECCAK256 PUSH1 0x1 ADD PUSH1 0x0 DUP3 DUP3 SLOAD PUSH2 0x1512 SWAP2 SWAP1 PUSH2 0x48C9 JUMP JUMPDEST SWAP3 POP POP DUP2 SWAP1 SSTORE POP DUP1 DUP3 PUSH1 0x2A PUSH1 0x0 DUP7 PUSH20 0xFFFFFFFFFFFFFFFFFFFFFFFFFFFFFFFFFFFFFFFF AND PUSH20 0xFFFFFFFFFFFFFFFFFFFFFFFFFFFFFFFFFFFFFFFF AND DUP2 MSTORE PUSH1 0x20 ADD SWAP1 DUP2 MSTORE PUSH1 0x20 ADD PUSH1 0x0 KECCAK256 PUSH1 0x0 PUSH1 0x2 DUP2 LT PUSH2 0x156D JUMPI PUSH2 0x156C PUSH2 0x49E3 JUMP JUMPDEST JUMPDEST ADD SLOAD PUSH2 0x1579 SWAP2 SWAP1 PUSH2 0x4677 JUMP JUMPDEST GT ISZERO PUSH2 0x1645 JUMPI DUP1 DUP3 PUSH1 0x2A PUSH1 0x0 DUP7 PUSH20 0xFFFFFFFFFFFFFFFFFFFFFFFFFFFFFFFFFFFFFFFF AND PUSH20 0xFFFFFFFFFFFFFFFFFFFFFFFFFFFFFFFFFFFFFFFF AND DUP2 MSTORE PUSH1 0x20 ADD SWAP1 DUP2 MSTORE PUSH1 0x20 ADD PUSH1 0x0 KECCAK256 PUSH1 0x0 PUSH1 0x2 DUP2 LT PUSH2 0x15D3 JUMPI PUSH2 0x15D2 PUSH2 0x49E3 JUMP JUMPDEST JUMPDEST ADD SLOAD PUSH2 0x15DF SWAP2 SWAP1 PUSH2 0x4677 JUMP JUMPDEST PUSH2 0x15E9 SWAP2 SWAP1 PUSH2 0x48C9 JUMP JUMPDEST PUSH1 0x2A PUSH1 0x0 DUP6 PUSH20 0xFFFFFFFFFFFFFFFFFFFFFFFFFFFFFFFFFFFFFFFF AND PUSH20 0xFFFFFFFFFFFFFFFFFFFFFFFFFFFFFFFFFFFFFFFF AND DUP2 MSTORE PUSH1 0x20 ADD SWAP1 DUP2 MSTORE PUSH1 0x20 ADD PUSH1 0x0 KECCAK256 PUSH1 0x0 PUSH1 0x2 DUP2 LT PUSH2 0x163B JUMPI PUSH2 0x163A PUSH2 0x49E3 JUMP JUMPDEST JUMPDEST ADD DUP2 SWAP1 SSTORE POP PUSH2 0x181C JUMP JUMPDEST PUSH2 0x170D PUSH1 0x2A PUSH1 0x0 DUP6 PUSH20 0xFFFFFFFFFFFFFFFFFFFFFFFFFFFFFFFFFFFFFFFF AND PUSH20 0xFFFFFFFFFFFFFFFFFFFFFFFFFFFFFFFFFFFFFFFF AND DUP2 MSTORE PUSH1 0x20 ADD SWAP1 DUP2 MSTORE PUSH1 0x20 ADD PUSH1 0x0 KECCAK256 PUSH1 0x1 PUSH1 0x2 DUP2 LT PUSH2 0x169A JUMPI PUSH2 0x1699 PUSH2 0x49E3 JUMP JUMPDEST JUMPDEST ADD SLOAD PUSH1 0x0 PUSH1 0x2A PUSH1 0x0 DUP8 PUSH20 0xFFFFFFFFFFFFFFFFFFFFFFFFFFFFFFFFFFFFFFFF AND PUSH20 0xFFFFFFFFFFFFFFFFFFFFFFFFFFFFFFFFFFFFFFFF AND DUP2 MSTORE PUSH1 0x20 ADD SWAP1 DUP2 MSTORE PUSH1 0x20 ADD PUSH1 0x0 KECCAK256 PUSH1 0x0 PUSH1 0x2 DUP2 LT PUSH2 0x16F0 JUMPI PUSH2 0x16EF PUSH2 0x49E3 JUMP JUMPDEST JUMPDEST ADD SLOAD DUP6 DUP6 PUSH2 0x16FE SWAP2 SWAP1 PUSH2 0x48C9 JUMP JUMPDEST PUSH2 0x1708 SWAP2 SWAP1 PUSH2 0x48C9 JUMP JUMPDEST PUSH2 0x3381 JUMP JUMPDEST PUSH1 0x2A PUSH1 0x0 DUP6 PUSH20 0xFFFFFFFFFFFFFFFFFFFFFFFFFFFFFFFFFFFFFFFF AND PUSH20 0xFFFFFFFFFFFFFFFFFFFFFFFFFFFFFFFFFFFFFFFF AND DUP2 MSTORE PUSH1 0x20 ADD SWAP1 DUP2 MSTORE PUSH1 0x20 ADD PUSH1 0x0 KECCAK256 PUSH1 0x1 PUSH1 0x2 DUP2 LT PUSH2 0x175F JUMPI PUSH2 0x175E PUSH2 0x49E3 JUMP JUMPDEST JUMPDEST ADD SLOAD PUSH2 0x176B SWAP2 SWAP1 PUSH2 0x48C9 JUMP JUMPDEST PUSH1 0x2A PUSH1 0x0 DUP6 PUSH20 0xFFFFFFFFFFFFFFFFFFFFFFFFFFFFFFFFFFFFFFFF AND PUSH20 0xFFFFFFFFFFFFFFFFFFFFFFFFFFFFFFFFFFFFFFFF AND DUP2 MSTORE PUSH1 0x20 ADD SWAP1 DUP2 MSTORE PUSH1 0x20 ADD PUSH1 0x0 KECCAK256 PUSH1 0x1 PUSH1 0x2 DUP2 LT PUSH2 0x17BD JUMPI PUSH2 0x17BC PUSH2 0x49E3 JUMP JUMPDEST JUMPDEST ADD DUP2 SWAP1 SSTORE POP PUSH1 0x0 PUSH1 0x2A PUSH1 0x0 DUP6 PUSH20 0xFFFFFFFFFFFFFFFFFFFFFFFFFFFFFFFFFFFFFFFF AND PUSH20 0xFFFFFFFFFFFFFFFFFFFFFFFFFFFFFFFFFFFFFFFF AND DUP2 MSTORE PUSH1 0x20 ADD SWAP1 DUP2 MSTORE PUSH1 0x20 ADD PUSH1 0x0 KECCAK256 PUSH1 0x0 PUSH1 0x2 DUP2 LT PUSH2 0x1816 JUMPI PUSH2 0x1815 PUSH2 0x49E3 JUMP JUMPDEST JUMPDEST ADD DUP2 SWAP1 SSTORE POP JUMPDEST POP POP JUMPDEST PUSH1 0x1 PUSH1 0x25 DUP2 SWAP1 SSTORE POP POP POP POP JUMP JUMPDEST PUSH1 0x1E PUSH1 0x0 SWAP1 SLOAD SWAP1 PUSH2 0x100 EXP SWAP1 DIV PUSH20 0xFFFFFFFFFFFFFFFFFFFFFFFFFFFFFFFFFFFFFFFF AND DUP2 JUMP JUMPDEST PUSH1 0x1 PUSH1 0x25 SLOAD EQ PUSH2 0x1897 JUMPI PUSH1 0x40 MLOAD PUSH32 0x8C379A000000000000000000000000000000000000000000000000000000000 DUP2 MSTORE PUSH1 0x4 ADD PUSH2 0x188E SWAP1 PUSH2 0x4615 JUMP JUMPDEST PUSH1 0x40 MLOAD DUP1 SWAP2 SUB SWAP1 REVERT JUMPDEST PUSH1 0x0 PUSH1 0x25 DUP2 SWAP1 SSTORE POP PUSH1 0x18 PUSH1 0x0 SWAP1 SLOAD SWAP1 PUSH2 0x100 EXP SWAP1 DIV PUSH20 0xFFFFFFFFFFFFFFFFFFFFFFFFFFFFFFFFFFFFFFFF AND PUSH20 0xFFFFFFFFFFFFFFFFFFFFFFFFFFFFFFFFFFFFFFFF AND DUP4 PUSH20 0xFFFFFFFFFFFFFFFFFFFFFFFFFFFFFFFFFFFFFFFF AND EQ ISZERO PUSH2 0x19C3 JUMPI DUP1 PUSH1 0x2A PUSH1 0x0 DUP7 PUSH20 0xFFFFFFFFFFFFFFFFFFFFFFFFFFFFFFFFFFFFFFFF AND PUSH20 0xFFFFFFFFFFFFFFFFFFFFFFFFFFFFFFFFFFFFFFFF AND DUP2 MSTORE PUSH1 0x20 ADD SWAP1 DUP2 MSTORE PUSH1 0x20 ADD PUSH1 0x0 KECCAK256 PUSH1 0x0 PUSH1 0x2 DUP2 LT PUSH2 0x1948 JUMPI PUSH2 0x1947 PUSH2 0x49E3 JUMP JUMPDEST JUMPDEST ADD SLOAD GT PUSH2 0x1954 JUMPI PUSH1 0x0 DUP1 REVERT JUMPDEST DUP1 PUSH1 0x2A PUSH1 0x0 DUP7 PUSH20 0xFFFFFFFFFFFFFFFFFFFFFFFFFFFFFFFFFFFFFFFF AND PUSH20 0xFFFFFFFFFFFFFFFFFFFFFFFFFFFFFFFFFFFFFFFF AND DUP2 MSTORE PUSH1 0x20 ADD SWAP1 DUP2 MSTORE PUSH1 0x20 ADD PUSH1 0x0 KECCAK256 PUSH1 0x0 PUSH1 0x2 DUP2 LT PUSH2 0x19A7 JUMPI PUSH2 0x19A6 PUSH2 0x49E3 JUMP JUMPDEST JUMPDEST ADD PUSH1 0x0 DUP3 DUP3 SLOAD PUSH2 0x19B7 SWAP2 SWAP1 PUSH2 0x48C9 JUMP JUMPDEST SWAP3 POP POP DUP2 SWAP1 SSTORE POP PUSH2 0x1A8D JUMP JUMPDEST DUP1 PUSH1 0x2A PUSH1 0x0 DUP7 PUSH20 0xFFFFFFFFFFFFFFFFFFFFFFFFFFFFFFFFFFFFFFFF AND PUSH20 0xFFFFFFFFFFFFFFFFFFFFFFFFFFFFFFFFFFFFFFFF AND DUP2 MSTORE PUSH1 0x20 ADD SWAP1 DUP2 MSTORE PUSH1 0x20 ADD PUSH1 0x0 KECCAK256 PUSH1 0x1 PUSH1 0x2 DUP2 LT PUSH2 0x1A16 JUMPI PUSH2 0x1A15 PUSH2 0x49E3 JUMP JUMPDEST JUMPDEST ADD SLOAD GT PUSH2 0x1A22 JUMPI PUSH1 0x0 DUP1 REVERT JUMPDEST DUP1 PUSH1 0x2A PUSH1 0x0 DUP7 PUSH20 0xFFFFFFFFFFFFFFFFFFFFFFFFFFFFFFFFFFFFFFFF AND PUSH20 0xFFFFFFFFFFFFFFFFFFFFFFFFFFFFFFFFFFFFFFFF AND DUP2 MSTORE PUSH1 0x20 ADD SWAP1 DUP2 MSTORE PUSH1 0x20 ADD PUSH1 0x0 KECCAK256 PUSH1 0x1 PUSH1 0x2 DUP2 LT PUSH2 0x1A75 JUMPI PUSH2 0x1A74 PUSH2 0x49E3 JUMP JUMPDEST JUMPDEST ADD PUSH1 0x0 DUP3 DUP3 SLOAD PUSH2 0x1A85 SWAP2 SWAP1 PUSH2 0x48C9 JUMP JUMPDEST SWAP3 POP POP DUP2 SWAP1 SSTORE POP JUMPDEST PUSH2 0x1A96 DUP5 PUSH2 0x2B0F JUMP JUMPDEST PUSH2 0x1A9F DUP6 PUSH2 0x2C03 JUMP JUMPDEST PUSH2 0x1AA8 DUP7 PUSH2 0x2CDB JUMP JUMPDEST PUSH2 0x1AB2 SWAP2 SWAP1 PUSH2 0x4677 JUMP JUMPDEST GT DUP1 ISZERO PUSH2 0x1B01 JUMPI POP PUSH1 0x1C SLOAD PUSH2 0x1AC6 DUP6 PUSH2 0x2C03 JUMP JUMPDEST PUSH2 0x1AD0 SWAP2 SWAP1 PUSH2 0x486F JUMP JUMPDEST PUSH2 0x1AD9 DUP6 PUSH2 0x2B0F JUMP JUMPDEST PUSH2 0x1AE2 DUP7 PUSH2 0x2C03 JUMP JUMPDEST PUSH2 0x1AEB DUP8 PUSH2 0x2CDB JUMP JUMPDEST PUSH2 0x1AF5 SWAP2 SWAP1 PUSH2 0x4677 JUMP JUMPDEST PUSH2 0x1AFF SWAP2 SWAP1 PUSH2 0x48C9 JUMP JUMPDEST GT JUMPDEST PUSH2 0x1B0A JUMPI PUSH1 0x0 DUP1 REVERT JUMPDEST PUSH2 0x1B15 DUP4 DUP4 DUP4 PUSH2 0x377E JUMP JUMPDEST PUSH1 0x1 PUSH1 0x25 DUP2 SWAP1 SSTORE POP POP POP POP POP JUMP JUMPDEST PUSH1 0x9 SLOAD DUP2 JUMP JUMPDEST PUSH1 0x1 PUSH1 0x25 SLOAD EQ PUSH2 0x1B6E JUMPI PUSH1 0x40 MLOAD PUSH32 0x8C379A000000000000000000000000000000000000000000000000000000000 DUP2 MSTORE PUSH1 0x4 ADD PUSH2 0x1B65 SWAP1 PUSH2 0x4615 JUMP JUMPDEST PUSH1 0x40 MLOAD DUP1 SWAP2 SUB SWAP1 REVERT JUMPDEST PUSH1 0x0 PUSH1 0x25 DUP2 SWAP1 SSTORE POP PUSH1 0x0 DUP4 DUP6 PUSH2 0x1B84 SWAP2 SWAP1 PUSH2 0x486F JUMP JUMPDEST EQ DUP1 ISZERO PUSH2 0x1B9C JUMPI POP PUSH1 0x0 DUP4 DUP6 PUSH2 0x1B9A SWAP2 SWAP1 PUSH2 0x4677 JUMP JUMPDEST GT JUMPDEST PUSH2 0x1BA5 JUMPI PUSH1 0x0 DUP1 REVERT JUMPDEST PUSH2 0x1BAD PUSH2 0x2DAA JUMP JUMPDEST PUSH2 0x1BF1 PUSH2 0x1BB9 DUP3 PUSH2 0x2C03 JUMP JUMPDEST DUP6 PUSH2 0x1BC4 SWAP2 SWAP1 PUSH2 0x4677 JUMP JUMPDEST PUSH2 0x1BCD DUP4 PUSH2 0x2C03 JUMP JUMPDEST PUSH2 0x1BE2 DUP7 PUSH1 0xD SLOAD PUSH1 0x6 SLOAD PUSH1 0x5 SLOAD PUSH1 0x1D SLOAD PUSH2 0x3325 JUMP JUMPDEST PUSH2 0x1BEC SWAP2 SWAP1 PUSH2 0x4677 JUMP JUMPDEST PUSH2 0x3908 JUMP JUMPDEST PUSH1 0x1A SLOAD PUSH1 0x1D SLOAD PUSH2 0x1C00 DUP5 PUSH2 0x2B0F JUMP JUMPDEST PUSH2 0x1C09 DUP6 PUSH2 0x2C03 JUMP JUMPDEST PUSH2 0x1C12 DUP7 PUSH2 0x2CDB JUMP JUMPDEST PUSH2 0x1C1C SWAP2 SWAP1 PUSH2 0x4677 JUMP JUMPDEST PUSH2 0x1C26 SWAP2 SWAP1 PUSH2 0x48C9 JUMP JUMPDEST PUSH2 0x1C30 SWAP2 SWAP1 PUSH2 0x486F JUMP JUMPDEST PUSH2 0x1C3A SWAP2 SWAP1 PUSH2 0x46CD JUMP JUMPDEST GT PUSH2 0x1C44 JUMPI PUSH1 0x0 DUP1 REVERT JUMPDEST PUSH1 0x0 DUP1 PUSH1 0x1 ISZERO ISZERO DUP5 ISZERO ISZERO EQ ISZERO PUSH2 0x20FD JUMPI PUSH1 0x0 PUSH1 0x26 PUSH1 0x0 SWAP1 SLOAD SWAP1 PUSH2 0x100 EXP SWAP1 DIV PUSH1 0xFF AND PUSH1 0xFF AND GT PUSH2 0x1C73 JUMPI PUSH1 0x0 DUP1 REVERT JUMPDEST PUSH1 0x0 DUP7 GT ISZERO PUSH2 0x1C93 JUMPI PUSH2 0x1C89 DUP7 PUSH1 0x1 PUSH1 0x0 PUSH2 0x2F28 JUMP JUMPDEST SWAP2 POP DUP6 SWAP1 POP PUSH2 0x1CCD JUMP JUMPDEST DUP5 SWAP2 POP PUSH2 0x1CCA PUSH2 0x1CAA PUSH1 0xD SLOAD PUSH1 0x6 SLOAD PUSH1 0x5 SLOAD PUSH2 0x335F JUMP JUMPDEST PUSH1 0x1D SLOAD DUP8 PUSH2 0x1CB8 SWAP2 SWAP1 PUSH2 0x486F JUMP JUMPDEST PUSH2 0x1CC2 SWAP2 SWAP1 PUSH2 0x46CD JUMP JUMPDEST PUSH1 0x1 DUP8 PUSH2 0x2F28 JUMP JUMPDEST SWAP1 POP JUMPDEST PUSH2 0x1CDC DUP2 PUSH1 0x10 SLOAD PUSH1 0xE SLOAD PUSH2 0x335F JUMP JUMPDEST PUSH1 0x29 PUSH1 0x0 DUP6 PUSH20 0xFFFFFFFFFFFFFFFFFFFFFFFFFFFFFFFFFFFFFFFF AND PUSH20 0xFFFFFFFFFFFFFFFFFFFFFFFFFFFFFFFFFFFFFFFF AND DUP2 MSTORE PUSH1 0x20 ADD SWAP1 DUP2 MSTORE PUSH1 0x20 ADD PUSH1 0x0 KECCAK256 PUSH1 0x0 DUP1 ISZERO ISZERO ISZERO ISZERO DUP2 MSTORE PUSH1 0x20 ADD SWAP1 DUP2 MSTORE PUSH1 0x20 ADD PUSH1 0x0 KECCAK256 PUSH1 0x1 ADD PUSH1 0x0 DUP3 DUP3 SLOAD PUSH2 0x1D42 SWAP2 SWAP1 PUSH2 0x4677 JUMP JUMPDEST SWAP3 POP POP DUP2 SWAP1 SSTORE POP DUP2 PUSH1 0x29 PUSH1 0x0 DUP6 PUSH20 0xFFFFFFFFFFFFFFFFFFFFFFFFFFFFFFFFFFFFFFFF AND PUSH20 0xFFFFFFFFFFFFFFFFFFFFFFFFFFFFFFFFFFFFFFFF AND DUP2 MSTORE PUSH1 0x20 ADD SWAP1 DUP2 MSTORE PUSH1 0x20 ADD PUSH1 0x0 KECCAK256 PUSH1 0x0 PUSH1 0x1 ISZERO ISZERO ISZERO ISZERO DUP2 MSTORE PUSH1 0x20 ADD SWAP1 DUP2 MSTORE PUSH1 0x20 ADD PUSH1 0x0 KECCAK256 PUSH1 0x2 ADD PUSH1 0x0 DUP3 DUP3 SLOAD PUSH2 0x1DB1 SWAP2 SWAP1 PUSH2 0x4677 JUMP JUMPDEST SWAP3 POP POP DUP2 SWAP1 SSTORE POP PUSH1 0x10 SLOAD PUSH2 0x1DCA DUP3 PUSH1 0x10 SLOAD PUSH1 0xE SLOAD PUSH2 0x335F JUMP JUMPDEST PUSH2 0x1DD4 SWAP2 SWAP1 PUSH2 0x4677 JUMP JUMPDEST PUSH1 0x10 DUP2 SWAP1 SSTORE POP DUP1 PUSH1 0xE PUSH1 0x0 DUP3 DUP3 SLOAD PUSH2 0x1DEC SWAP2 SWAP1 PUSH2 0x4677 JUMP JUMPDEST SWAP3 POP POP DUP2 SWAP1 SSTORE POP PUSH8 0xDE0B6B3A7640000 PUSH1 0x23 SLOAD DUP3 PUSH2 0x1E0A SWAP2 SWAP1 PUSH2 0x486F JUMP JUMPDEST PUSH2 0x1E14 SWAP2 SWAP1 PUSH2 0x46CD JUMP JUMPDEST PUSH1 0x2A PUSH1 0x0 DUP6 PUSH20 0xFFFFFFFFFFFFFFFFFFFFFFFFFFFFFFFFFFFFFFFF AND PUSH20 0xFFFFFFFFFFFFFFFFFFFFFFFFFFFFFFFFFFFFFFFF AND DUP2 MSTORE PUSH1 0x20 ADD SWAP1 DUP2 MSTORE PUSH1 0x20 ADD PUSH1 0x0 KECCAK256 PUSH1 0x0 PUSH1 0x2 DUP2 LT PUSH2 0x1E66 JUMPI PUSH2 0x1E65 PUSH2 0x49E3 JUMP JUMPDEST JUMPDEST ADD SLOAD GT ISZERO PUSH2 0x1F36 JUMPI PUSH8 0xDE0B6B3A7640000 PUSH1 0x23 SLOAD DUP3 PUSH2 0x1E85 SWAP2 SWAP1 PUSH2 0x486F JUMP JUMPDEST PUSH2 0x1E8F SWAP2 SWAP1 PUSH2 0x46CD JUMP JUMPDEST PUSH1 0x2A PUSH1 0x0 DUP6 PUSH20 0xFFFFFFFFFFFFFFFFFFFFFFFFFFFFFFFFFFFFFFFF AND PUSH20 0xFFFFFFFFFFFFFFFFFFFFFFFFFFFFFFFFFFFFFFFF AND DUP2 MSTORE PUSH1 0x20 ADD SWAP1 DUP2 MSTORE PUSH1 0x20 ADD PUSH1 0x0 KECCAK256 PUSH1 0x0 PUSH1 0x2 DUP2 LT PUSH2 0x1EE1 JUMPI PUSH2 0x1EE0 PUSH2 0x49E3 JUMP JUMPDEST JUMPDEST ADD PUSH1 0x0 DUP3 DUP3 SLOAD PUSH2 0x1EF1 SWAP2 SWAP1 PUSH2 0x48C9 JUMP JUMPDEST SWAP3 POP POP DUP2 SWAP1 SSTORE POP PUSH8 0xDE0B6B3A7640000 PUSH1 0x23 SLOAD DUP3 PUSH2 0x1F0F SWAP2 SWAP1 PUSH2 0x486F JUMP JUMPDEST PUSH2 0x1F19 SWAP2 SWAP1 PUSH2 0x46CD JUMP JUMPDEST PUSH1 0xB PUSH1 0x0 DUP3 DUP3 SLOAD PUSH2 0x1F2A SWAP2 SWAP1 PUSH2 0x4677 JUMP JUMPDEST SWAP3 POP POP DUP2 SWAP1 SSTORE POP PUSH2 0x20F8 JUMP JUMPDEST PUSH1 0x0 PUSH1 0x2A PUSH1 0x0 DUP6 PUSH20 0xFFFFFFFFFFFFFFFFFFFFFFFFFFFFFFFFFFFFFFFF AND PUSH20 0xFFFFFFFFFFFFFFFFFFFFFFFFFFFFFFFFFFFFFFFF AND DUP2 MSTORE PUSH1 0x20 ADD SWAP1 DUP2 MSTORE PUSH1 0x20 ADD PUSH1 0x0 KECCAK256 PUSH1 0x0 PUSH1 0x2 DUP2 LT PUSH2 0x1F8A JUMPI PUSH2 0x1F89 PUSH2 0x49E3 JUMP JUMPDEST JUMPDEST ADD SLOAD PUSH8 0xDE0B6B3A7640000 PUSH1 0x23 SLOAD DUP5 PUSH2 0x1FA3 SWAP2 SWAP1 PUSH2 0x486F JUMP JUMPDEST PUSH2 0x1FAD SWAP2 SWAP1 PUSH2 0x46CD JUMP JUMPDEST PUSH2 0x1FB7 SWAP2 SWAP1 PUSH2 0x48C9 JUMP JUMPDEST SWAP1 POP PUSH1 0x0 PUSH1 0x2A PUSH1 0x0 DUP7 PUSH20 0xFFFFFFFFFFFFFFFFFFFFFFFFFFFFFFFFFFFFFFFF AND PUSH20 0xFFFFFFFFFFFFFFFFFFFFFFFFFFFFFFFFFFFFFFFF AND DUP2 MSTORE PUSH1 0x20 ADD SWAP1 DUP2 MSTORE PUSH1 0x20 ADD PUSH1 0x0 KECCAK256 PUSH1 0x0 PUSH1 0x2 DUP2 LT PUSH2 0x200D JUMPI PUSH2 0x200C PUSH2 0x49E3 JUMP JUMPDEST JUMPDEST ADD DUP2 SWAP1 SSTORE POP PUSH2 0x2071 PUSH1 0x2A PUSH1 0x0 DUP7 PUSH20 0xFFFFFFFFFFFFFFFFFFFFFFFFFFFFFFFFFFFFFFFF AND PUSH20 0xFFFFFFFFFFFFFFFFFFFFFFFFFFFFFFFFFFFFFFFF AND DUP2 MSTORE PUSH1 0x20 ADD SWAP1 DUP2 MSTORE PUSH1 0x20 ADD PUSH1 0x0 KECCAK256 PUSH1 0x1 PUSH1 0x2 DUP2 LT PUSH2 0x2067 JUMPI PUSH2 0x2066 PUSH2 0x49E3 JUMP JUMPDEST JUMPDEST ADD SLOAD PUSH1 0x0 DUP4 PUSH2 0x3381 JUMP JUMPDEST SWAP1 POP DUP1 PUSH1 0x2A PUSH1 0x0 DUP7 PUSH20 0xFFFFFFFFFFFFFFFFFFFFFFFFFFFFFFFFFFFFFFFF AND PUSH20 0xFFFFFFFFFFFFFFFFFFFFFFFFFFFFFFFFFFFFFFFF AND DUP2 MSTORE PUSH1 0x20 ADD SWAP1 DUP2 MSTORE PUSH1 0x20 ADD PUSH1 0x0 KECCAK256 PUSH1 0x1 PUSH1 0x2 DUP2 LT PUSH2 0x20C6 JUMPI PUSH2 0x20C5 PUSH2 0x49E3 JUMP JUMPDEST JUMPDEST ADD PUSH1 0x0 DUP3 DUP3 SLOAD PUSH2 0x20D6 SWAP2 SWAP1 PUSH2 0x48C9 JUMP JUMPDEST SWAP3 POP POP DUP2 SWAP1 SSTORE POP DUP1 PUSH1 0xC PUSH1 0x0 DUP3 DUP3 SLOAD PUSH2 0x20EF SWAP2 SWAP1 PUSH2 0x4677 JUMP JUMPDEST SWAP3 POP POP DUP2 SWAP1 SSTORE POP POP JUMPDEST PUSH2 0x25A2 JUMP JUMPDEST PUSH1 0x1 PUSH1 0x26 PUSH1 0x0 SWAP1 SLOAD SWAP1 PUSH2 0x100 EXP SWAP1 DIV PUSH1 0xFF AND PUSH1 0xFF AND GT PUSH2 0x211C JUMPI PUSH1 0x0 DUP1 REVERT JUMPDEST PUSH1 0x0 DUP7 GT ISZERO PUSH2 0x2163 JUMPI DUP6 SWAP2 POP PUSH2 0x215C PUSH1 0x1D SLOAD PUSH2 0x213F PUSH1 0xD SLOAD PUSH1 0x6 SLOAD PUSH1 0x5 SLOAD PUSH2 0x335F JUMP JUMPDEST DUP9 PUSH2 0x214A SWAP2 SWAP1 PUSH2 0x486F JUMP JUMPDEST PUSH2 0x2154 SWAP2 SWAP1 PUSH2 0x46CD JUMP JUMPDEST PUSH1 0x1 DUP9 PUSH2 0x3381 JUMP JUMPDEST SWAP1 POP PUSH2 0x2176 JUMP JUMPDEST PUSH2 0x2170 DUP6 PUSH1 0x1 PUSH1 0x0 PUSH2 0x3381 JUMP JUMPDEST SWAP2 POP DUP5 SWAP1 POP JUMPDEST PUSH2 0x2185 DUP2 PUSH1 0x11 SLOAD PUSH1 0xF SLOAD PUSH2 0x335F JUMP JUMPDEST PUSH1 0x29 PUSH1 0x0 DUP6 PUSH20 0xFFFFFFFFFFFFFFFFFFFFFFFFFFFFFFFFFFFFFFFF AND PUSH20 0xFFFFFFFFFFFFFFFFFFFFFFFFFFFFFFFFFFFFFFFF AND DUP2 MSTORE PUSH1 0x20 ADD SWAP1 DUP2 MSTORE PUSH1 0x20 ADD PUSH1 0x0 KECCAK256 PUSH1 0x0 PUSH1 0x1 ISZERO ISZERO ISZERO ISZERO DUP2 MSTORE PUSH1 0x20 ADD SWAP1 DUP2 MSTORE PUSH1 0x20 ADD PUSH1 0x0 KECCAK256 PUSH1 0x1 ADD PUSH1 0x0 DUP3 DUP3 SLOAD PUSH2 0x21EC SWAP2 SWAP1 PUSH2 0x4677 JUMP JUMPDEST SWAP3 POP POP DUP2 SWAP1 SSTORE POP DUP2 PUSH1 0x29 PUSH1 0x0 DUP6 PUSH20 0xFFFFFFFFFFFFFFFFFFFFFFFFFFFFFFFFFFFFFFFF AND PUSH20 0xFFFFFFFFFFFFFFFFFFFFFFFFFFFFFFFFFFFFFFFF AND DUP2 MSTORE PUSH1 0x20 ADD SWAP1 DUP2 MSTORE PUSH1 0x20 ADD PUSH1 0x0 KECCAK256 PUSH1 0x0 DUP1 ISZERO ISZERO ISZERO ISZERO DUP2 MSTORE PUSH1 0x20 ADD SWAP1 DUP2 MSTORE PUSH1 0x20 ADD PUSH1 0x0 KECCAK256 PUSH1 0x2 ADD PUSH1 0x0 DUP3 DUP3 SLOAD PUSH2 0x225A SWAP2 SWAP1 PUSH2 0x4677 JUMP JUMPDEST SWAP3 POP POP DUP2 SWAP1 SSTORE POP PUSH1 0x11 SLOAD PUSH2 0x2273 DUP3 PUSH1 0x11 SLOAD PUSH1 0xF SLOAD PUSH2 0x335F JUMP JUMPDEST PUSH2 0x227D SWAP2 SWAP1 PUSH2 0x4677 JUMP JUMPDEST PUSH1 0x11 DUP2 SWAP1 SSTORE POP DUP1 PUSH1 0xF PUSH1 0x0 DUP3 DUP3 SLOAD PUSH2 0x2295 SWAP2 SWAP1 PUSH2 0x4677 JUMP JUMPDEST SWAP3 POP POP DUP2 SWAP1 SSTORE POP PUSH8 0xDE0B6B3A7640000 PUSH1 0x23 SLOAD DUP3 PUSH2 0x22B3 SWAP2 SWAP1 PUSH2 0x486F JUMP JUMPDEST PUSH2 0x22BD SWAP2 SWAP1 PUSH2 0x46CD JUMP JUMPDEST PUSH1 0x2A PUSH1 0x0 DUP6 PUSH20 0xFFFFFFFFFFFFFFFFFFFFFFFFFFFFFFFFFFFFFFFF AND PUSH20 0xFFFFFFFFFFFFFFFFFFFFFFFFFFFFFFFFFFFFFFFF AND DUP2 MSTORE PUSH1 0x20 ADD SWAP1 DUP2 MSTORE PUSH1 0x20 ADD PUSH1 0x0 KECCAK256 PUSH1 0x1 PUSH1 0x2 DUP2 LT PUSH2 0x230F JUMPI PUSH2 0x230E PUSH2 0x49E3 JUMP JUMPDEST JUMPDEST ADD SLOAD GT ISZERO PUSH2 0x23DF JUMPI PUSH8 0xDE0B6B3A7640000 PUSH1 0x23 SLOAD DUP3 PUSH2 0x232E SWAP2 SWAP1 PUSH2 0x486F JUMP JUMPDEST PUSH2 0x2338 SWAP2 SWAP1 PUSH2 0x46CD JUMP JUMPDEST PUSH1 0x2A PUSH1 0x0 DUP6 PUSH20 0xFFFFFFFFFFFFFFFFFFFFFFFFFFFFFFFFFFFFFFFF AND PUSH20 0xFFFFFFFFFFFFFFFFFFFFFFFFFFFFFFFFFFFFFFFF AND DUP2 MSTORE PUSH1 0x20 ADD SWAP1 DUP2 MSTORE PUSH1 0x20 ADD PUSH1 0x0 KECCAK256 PUSH1 0x1 PUSH1 0x2 DUP2 LT PUSH2 0x238A JUMPI PUSH2 0x2389 PUSH2 0x49E3 JUMP JUMPDEST JUMPDEST ADD PUSH1 0x0 DUP3 DUP3 SLOAD PUSH2 0x239A SWAP2 SWAP1 PUSH2 0x48C9 JUMP JUMPDEST SWAP3 POP POP DUP2 SWAP1 SSTORE POP PUSH8 0xDE0B6B3A7640000 PUSH1 0x23 SLOAD DUP3 PUSH2 0x23B8 SWAP2 SWAP1 PUSH2 0x486F JUMP JUMPDEST PUSH2 0x23C2 SWAP2 SWAP1 PUSH2 0x46CD JUMP JUMPDEST PUSH1 0xC PUSH1 0x0 DUP3 DUP3 SLOAD PUSH2 0x23D3 SWAP2 SWAP1 PUSH2 0x4677 JUMP JUMPDEST SWAP3 POP POP DUP2 SWAP1 SSTORE POP PUSH2 0x25A1 JUMP JUMPDEST PUSH1 0x0 PUSH1 0x2A PUSH1 0x0 DUP6 PUSH20 0xFFFFFFFFFFFFFFFFFFFFFFFFFFFFFFFFFFFFFFFF AND PUSH20 0xFFFFFFFFFFFFFFFFFFFFFFFFFFFFFFFFFFFFFFFF AND DUP2 MSTORE PUSH1 0x20 ADD SWAP1 DUP2 MSTORE PUSH1 0x20 ADD PUSH1 0x0 KECCAK256 PUSH1 0x1 PUSH1 0x2 DUP2 LT PUSH2 0x2433 JUMPI PUSH2 0x2432 PUSH2 0x49E3 JUMP JUMPDEST JUMPDEST ADD SLOAD PUSH8 0xDE0B6B3A7640000 PUSH1 0x23 SLOAD DUP5 PUSH2 0x244C SWAP2 SWAP1 PUSH2 0x486F JUMP JUMPDEST PUSH2 0x2456 SWAP2 SWAP1 PUSH2 0x46CD JUMP JUMPDEST PUSH2 0x2460 SWAP2 SWAP1 PUSH2 0x48C9 JUMP JUMPDEST SWAP1 POP PUSH1 0x0 PUSH1 0x2A PUSH1 0x0 DUP7 PUSH20 0xFFFFFFFFFFFFFFFFFFFFFFFFFFFFFFFFFFFFFFFF AND PUSH20 0xFFFFFFFFFFFFFFFFFFFFFFFFFFFFFFFFFFFFFFFF AND DUP2 MSTORE PUSH1 0x20 ADD SWAP1 DUP2 MSTORE PUSH1 0x20 ADD PUSH1 0x0 KECCAK256 PUSH1 0x1 PUSH1 0x2 DUP2 LT PUSH2 0x24B6 JUMPI PUSH2 0x24B5 PUSH2 0x49E3 JUMP JUMPDEST JUMPDEST ADD DUP2 SWAP1 SSTORE POP PUSH2 0x251A PUSH1 0x2A PUSH1 0x0 DUP7 PUSH20 0xFFFFFFFFFFFFFFFFFFFFFFFFFFFFFFFFFFFFFFFF AND PUSH20 0xFFFFFFFFFFFFFFFFFFFFFFFFFFFFFFFFFFFFFFFF AND DUP2 MSTORE PUSH1 0x20 ADD SWAP1 DUP2 MSTORE PUSH1 0x20 ADD PUSH1 0x0 KECCAK256 PUSH1 0x0 PUSH1 0x2 DUP2 LT PUSH2 0x2510 JUMPI PUSH2 0x250F PUSH2 0x49E3 JUMP JUMPDEST JUMPDEST ADD SLOAD PUSH1 0x0 DUP4 PUSH2 0x2F28 JUMP JUMPDEST SWAP1 POP DUP1 PUSH1 0x2A PUSH1 0x0 DUP7 PUSH20 0xFFFFFFFFFFFFFFFFFFFFFFFFFFFFFFFFFFFFFFFF AND PUSH20 0xFFFFFFFFFFFFFFFFFFFFFFFFFFFFFFFFFFFFFFFF AND DUP2 MSTORE PUSH1 0x20 ADD SWAP1 DUP2 MSTORE PUSH1 0x20 ADD PUSH1 0x0 KECCAK256 PUSH1 0x0 PUSH1 0x2 DUP2 LT PUSH2 0x256F JUMPI PUSH2 0x256E PUSH2 0x49E3 JUMP JUMPDEST JUMPDEST ADD PUSH1 0x0 DUP3 DUP3 SLOAD PUSH2 0x257F SWAP2 SWAP1 PUSH2 0x48C9 JUMP JUMPDEST SWAP3 POP POP DUP2 SWAP1 SSTORE POP DUP1 PUSH1 0xB PUSH1 0x0 DUP3 DUP3 SLOAD PUSH2 0x2598 SWAP2 SWAP1 PUSH2 0x4677 JUMP JUMPDEST SWAP3 POP POP DUP2 SWAP1 SSTORE POP POP JUMPDEST JUMPDEST POP POP PUSH1 0x1 PUSH1 0x25 DUP2 SWAP1 SSTORE POP POP POP POP POP JUMP JUMPDEST PUSH1 0x7 SLOAD DUP2 JUMP JUMPDEST PUSH1 0x1F SLOAD DUP2 JUMP JUMPDEST PUSH1 0xE SLOAD DUP2 JUMP JUMPDEST PUSH1 0x1D SLOAD DUP2 JUMP JUMPDEST PUSH1 0x10 SLOAD DUP2 JUMP JUMPDEST PUSH1 0x1 PUSH1 0x25 SLOAD EQ PUSH2 0x2615 JUMPI PUSH1 0x40 MLOAD PUSH32 0x8C379A000000000000000000000000000000000000000000000000000000000 DUP2 MSTORE PUSH1 0x4 ADD PUSH2 0x260C SWAP1 PUSH2 0x4615 JUMP JUMPDEST PUSH1 0x40 MLOAD DUP1 SWAP2 SUB SWAP1 REVERT JUMPDEST PUSH1 0x0 PUSH1 0x25 DUP2 SWAP1 SSTORE POP PUSH2 0x2626 DUP3 PUSH2 0x2B0F JUMP JUMPDEST PUSH2 0x262F DUP4 PUSH2 0x2C03 JUMP JUMPDEST PUSH2 0x2638 DUP5 PUSH2 0x2CDB JUMP JUMPDEST PUSH2 0x2642 SWAP2 SWAP1 PUSH2 0x4677 JUMP JUMPDEST GT ISZERO DUP1 PUSH2 0x2692 JUMPI POP PUSH1 0x1C SLOAD PUSH2 0x2656 DUP4 PUSH2 0x2C03 JUMP JUMPDEST PUSH2 0x2660 SWAP2 SWAP1 PUSH2 0x486F JUMP JUMPDEST PUSH2 0x2669 DUP4 PUSH2 0x2B0F JUMP JUMPDEST PUSH2 0x2672 DUP5 PUSH2 0x2C03 JUMP JUMPDEST PUSH2 0x267B DUP6 PUSH2 0x2CDB JUMP JUMPDEST PUSH2 0x2685 SWAP2 SWAP1 PUSH2 0x4677 JUMP JUMPDEST PUSH2 0x268F SWAP2 SWAP1 PUSH2 0x48C9 JUMP JUMPDEST GT ISZERO JUMPDEST PUSH2 0x269B JUMPI PUSH1 0x0 DUP1 REVERT JUMPDEST PUSH2 0x2728 PUSH1 0x18 PUSH1 0x0 SWAP1 SLOAD SWAP1 PUSH2 0x100 EXP SWAP1 DIV PUSH20 0xFFFFFFFFFFFFFFFFFFFFFFFFFFFFFFFFFFFFFFFF AND DUP3 PUSH1 0x1F SLOAD PUSH1 0x2A PUSH1 0x0 DUP8 PUSH20 0xFFFFFFFFFFFFFFFFFFFFFFFFFFFFFFFFFFFFFFFF AND PUSH20 0xFFFFFFFFFFFFFFFFFFFFFFFFFFFFFFFFFFFFFFFF AND DUP2 MSTORE PUSH1 0x20 ADD SWAP1 DUP2 MSTORE PUSH1 0x20 ADD PUSH1 0x0 KECCAK256 PUSH1 0x0 PUSH1 0x2 DUP2 LT PUSH2 0x2717 JUMPI PUSH2 0x2716 PUSH2 0x49E3 JUMP JUMPDEST JUMPDEST ADD SLOAD PUSH2 0x2723 SWAP2 SWAP1 PUSH2 0x486F JUMP JUMPDEST PUSH2 0x377E JUMP JUMPDEST PUSH2 0x27B5 PUSH1 0x19 PUSH1 0x0 SWAP1 SLOAD SWAP1 PUSH2 0x100 EXP SWAP1 DIV PUSH20 0xFFFFFFFFFFFFFFFFFFFFFFFFFFFFFFFFFFFFFFFF AND DUP3 PUSH1 0x1F SLOAD PUSH1 0x2A PUSH1 0x0 DUP8 PUSH20 0xFFFFFFFFFFFFFFFFFFFFFFFFFFFFFFFFFFFFFFFF AND PUSH20 0xFFFFFFFFFFFFFFFFFFFFFFFFFFFFFFFFFFFFFFFF AND DUP2 MSTORE PUSH1 0x20 ADD SWAP1 DUP2 MSTORE PUSH1 0x20 ADD PUSH1 0x0 KECCAK256 PUSH1 0x1 PUSH1 0x2 DUP2 LT PUSH2 0x27A4 JUMPI PUSH2 0x27A3 PUSH2 0x49E3 JUMP JUMPDEST JUMPDEST ADD SLOAD PUSH2 0x27B0 SWAP2 SWAP1 PUSH2 0x486F JUMP JUMPDEST PUSH2 0x377E JUMP JUMPDEST PUSH1 0x2A PUSH1 0x0 DUP4 PUSH20 0xFFFFFFFFFFFFFFFFFFFFFFFFFFFFFFFFFFFFFFFF AND PUSH20 0xFFFFFFFFFFFFFFFFFFFFFFFFFFFFFFFFFFFFFFFF AND DUP2 MSTORE PUSH1 0x20 ADD SWAP1 DUP2 MSTORE PUSH1 0x20 ADD PUSH1 0x0 KECCAK256 PUSH1 0x0 PUSH2 0x2800 SWAP2 SWAP1 PUSH2 0x41F9 JUMP JUMPDEST PUSH1 0x0 PUSH1 0x29 PUSH1 0x0 DUP5 PUSH20 0xFFFFFFFFFFFFFFFFFFFFFFFFFFFFFFFFFFFFFFFF AND PUSH20 0xFFFFFFFFFFFFFFFFFFFFFFFFFFFFFFFFFFFFFFFF AND DUP2 MSTORE PUSH1 0x20 ADD SWAP1 DUP2 MSTORE PUSH1 0x20 ADD PUSH1 0x0 KECCAK256 PUSH1 0x0 DUP1 ISZERO ISZERO ISZERO ISZERO DUP2 MSTORE PUSH1 0x20 ADD SWAP1 DUP2 MSTORE PUSH1 0x20 ADD PUSH1 0x0 KECCAK256 PUSH1 0x1 ADD DUP2 SWAP1 SSTORE POP PUSH1 0x0 PUSH1 0x29 PUSH1 0x0 DUP5 PUSH20 0xFFFFFFFFFFFFFFFFFFFFFFFFFFFFFFFFFFFFFFFF AND PUSH20 0xFFFFFFFFFFFFFFFFFFFFFFFFFFFFFFFFFFFFFFFF AND DUP2 MSTORE PUSH1 0x20 ADD SWAP1 DUP2 MSTORE PUSH1 0x20 ADD PUSH1 0x0 KECCAK256 PUSH1 0x0 PUSH1 0x1 ISZERO ISZERO ISZERO ISZERO DUP2 MSTORE PUSH1 0x20 ADD SWAP1 DUP2 MSTORE PUSH1 0x20 ADD PUSH1 0x0 KECCAK256 PUSH1 0x1 ADD DUP2 SWAP1 SSTORE POP PUSH2 0x2975 PUSH1 0x29 PUSH1 0x0 DUP5 PUSH20 0xFFFFFFFFFFFFFFFFFFFFFFFFFFFFFFFFFFFFFFFF AND PUSH20 0xFFFFFFFFFFFFFFFFFFFFFFFFFFFFFFFFFFFFFFFF AND DUP2 MSTORE PUSH1 0x20 ADD SWAP1 DUP2 MSTORE PUSH1 0x20 ADD PUSH1 0x0 KECCAK256 PUSH1 0x0 DUP1 ISZERO ISZERO ISZERO ISZERO DUP2 MSTORE PUSH1 0x20 ADD SWAP1 DUP2 MSTORE PUSH1 0x20 ADD PUSH1 0x0 KECCAK256 PUSH1 0x2 ADD SLOAD PUSH1 0x29 PUSH1 0x0 DUP6 PUSH20 0xFFFFFFFFFFFFFFFFFFFFFFFFFFFFFFFFFFFFFFFF AND PUSH20 0xFFFFFFFFFFFFFFFFFFFFFFFFFFFFFFFFFFFFFFFF AND DUP2 MSTORE PUSH1 0x20 ADD SWAP1 DUP2 MSTORE PUSH1 0x20 ADD PUSH1 0x0 KECCAK256 PUSH1 0x0 PUSH1 0x1 ISZERO ISZERO ISZERO ISZERO DUP2 MSTORE PUSH1 0x20 ADD SWAP1 DUP2 MSTORE PUSH1 0x20 ADD PUSH1 0x0 KECCAK256 PUSH1 0x2 ADD SLOAD DUP5 PUSH2 0x915 JUMP JUMPDEST PUSH1 0x1 PUSH1 0x25 DUP2 SWAP1 SSTORE POP POP POP JUMP JUMPDEST PUSH1 0x4 SLOAD DUP2 JUMP JUMPDEST PUSH1 0x3 SLOAD DUP2 JUMP JUMPDEST PUSH1 0xF SLOAD DUP2 JUMP JUMPDEST PUSH1 0x6 SLOAD DUP2 JUMP JUMPDEST PUSH1 0x1C SLOAD DUP2 JUMP JUMPDEST PUSH1 0x15 PUSH1 0x0 SWAP1 SLOAD SWAP1 PUSH2 0x100 EXP SWAP1 DIV PUSH1 0xFF AND DUP2 JUMP JUMPDEST PUSH1 0x19 PUSH1 0x0 SWAP1 SLOAD SWAP1 PUSH2 0x100 EXP SWAP1 DIV PUSH20 0xFFFFFFFFFFFFFFFFFFFFFFFFFFFFFFFFFFFFFFFF AND DUP2 JUMP JUMPDEST PUSH1 0xB SLOAD DUP2 JUMP JUMPDEST PUSH1 0x5 SLOAD DUP2 JUMP JUMPDEST PUSH1 0x17 PUSH1 0x0 SWAP1 SLOAD SWAP1 PUSH2 0x100 EXP SWAP1 DIV PUSH20 0xFFFFFFFFFFFFFFFFFFFFFFFFFFFFFFFFFFFFFFFF AND DUP2 JUMP JUMPDEST PUSH1 0x16 SLOAD DUP2 JUMP JUMPDEST PUSH1 0x8 SLOAD DUP2 JUMP JUMPDEST PUSH1 0x12 SLOAD DUP2 JUMP JUMPDEST PUSH1 0xA SLOAD DUP2 JUMP JUMPDEST PUSH1 0x21 SLOAD DUP2 JUMP JUMPDEST PUSH1 0x1A SLOAD DUP2 JUMP JUMPDEST PUSH1 0x2 SLOAD DUP2 JUMP JUMPDEST PUSH1 0x1 PUSH1 0x25 SLOAD EQ PUSH2 0x2A79 JUMPI PUSH1 0x40 MLOAD PUSH32 0x8C379A000000000000000000000000000000000000000000000000000000000 DUP2 MSTORE PUSH1 0x4 ADD PUSH2 0x2A70 SWAP1 PUSH2 0x4615 JUMP JUMPDEST PUSH1 0x40 MLOAD DUP1 SWAP2 SUB SWAP1 REVERT JUMPDEST PUSH1 0x0 PUSH1 0x25 DUP2 SWAP1 SSTORE POP PUSH1 0x0 DUP3 DUP5 PUSH2 0x2A8F SWAP2 SWAP1 PUSH2 0x486F JUMP JUMPDEST EQ DUP1 ISZERO PUSH2 0x2AA7 JUMPI POP PUSH1 0x0 DUP3 DUP5 PUSH2 0x2AA5 SWAP2 SWAP1 PUSH2 0x4677 JUMP JUMPDEST GT JUMPDEST PUSH2 0x2AB0 JUMPI PUSH1 0x0 DUP1 REVERT JUMPDEST PUSH1 0x0 DUP4 GT ISZERO PUSH2 0x2AD9 JUMPI PUSH2 0x2AC7 DUP4 PUSH1 0x0 PUSH1 0x1 DUP5 PUSH2 0x1B29 JUMP JUMPDEST PUSH2 0x2AD4 DUP4 PUSH1 0x0 DUP1 DUP5 PUSH2 0x1B29 JUMP JUMPDEST PUSH2 0x2AF6 JUMP JUMPDEST PUSH2 0x2AE7 PUSH1 0x0 DUP4 PUSH1 0x1 DUP5 PUSH2 0x1B29 JUMP JUMPDEST PUSH2 0x2AF5 PUSH1 0x0 DUP4 PUSH1 0x0 DUP5 PUSH2 0x1B29 JUMP JUMPDEST JUMPDEST PUSH1 0x1 PUSH1 0x25 DUP2 SWAP1 SSTORE POP POP POP POP JUMP JUMPDEST PUSH1 0x20 SLOAD DUP2 JUMP JUMPDEST PUSH1 0x13 SLOAD DUP2 JUMP JUMPDEST PUSH1 0x0 PUSH2 0x2B8B PUSH2 0x2B80 PUSH1 0x29 PUSH1 0x0 DUP6 PUSH20 0xFFFFFFFFFFFFFFFFFFFFFFFFFFFFFFFFFFFFFFFF AND PUSH20 0xFFFFFFFFFFFFFFFFFFFFFFFFFFFFFFFFFFFFFFFF AND DUP2 MSTORE PUSH1 0x20 ADD SWAP1 DUP2 MSTORE PUSH1 0x20 ADD PUSH1 0x0 KECCAK256 PUSH1 0x0 DUP1 ISZERO ISZERO ISZERO ISZERO DUP2 MSTORE PUSH1 0x20 ADD SWAP1 DUP2 MSTORE PUSH1 0x20 ADD PUSH1 0x0 KECCAK256 PUSH1 0x1 ADD SLOAD PUSH1 0xE SLOAD PUSH1 0xD SLOAD PUSH1 0x10 SLOAD PUSH1 0x1D SLOAD PUSH2 0x3325 JUMP JUMPDEST PUSH1 0x6 SLOAD PUSH1 0x5 SLOAD PUSH2 0x335F JUMP JUMPDEST PUSH2 0x2BF2 PUSH1 0x29 PUSH1 0x0 DUP6 PUSH20 0xFFFFFFFFFFFFFFFFFFFFFFFFFFFFFFFFFFFFFFFF AND PUSH20 0xFFFFFFFFFFFFFFFFFFFFFFFFFFFFFFFFFFFFFFFF AND DUP2 MSTORE PUSH1 0x20 ADD SWAP1 DUP2 MSTORE PUSH1 0x20 ADD PUSH1 0x0 KECCAK256 PUSH1 0x0 PUSH1 0x1 ISZERO ISZERO ISZERO ISZERO DUP2 MSTORE PUSH1 0x20 ADD SWAP1 DUP2 MSTORE PUSH1 0x20 ADD PUSH1 0x0 KECCAK256 PUSH1 0x1 ADD SLOAD PUSH1 0xF SLOAD PUSH1 0x11 SLOAD PUSH2 0x335F JUMP JUMPDEST PUSH2 0x2BFC SWAP2 SWAP1 PUSH2 0x4677 JUMP JUMPDEST SWAP1 POP SWAP2 SWAP1 POP JUMP JUMPDEST PUSH1 0x0 PUSH2 0x2C72 PUSH1 0x29 PUSH1 0x0 DUP5 PUSH20 0xFFFFFFFFFFFFFFFFFFFFFFFFFFFFFFFFFFFFFFFF AND PUSH20 0xFFFFFFFFFFFFFFFFFFFFFFFFFFFFFFFFFFFFFFFF AND DUP2 MSTORE PUSH1 0x20 ADD SWAP1 DUP2 MSTORE PUSH1 0x20 ADD PUSH1 0x0 KECCAK256 PUSH1 0x0 PUSH1 0x1 ISZERO ISZERO ISZERO ISZERO DUP2 MSTORE PUSH1 0x20 ADD SWAP1 DUP2 MSTORE PUSH1 0x20 ADD PUSH1 0x0 KECCAK256 PUSH1 0x2 ADD SLOAD PUSH1 0xD SLOAD PUSH1 0x6 SLOAD PUSH1 0x5 SLOAD PUSH1 0x1D SLOAD PUSH2 0x3325 JUMP JUMPDEST PUSH1 0x29 PUSH1 0x0 DUP5 PUSH20 0xFFFFFFFFFFFFFFFFFFFFFFFFFFFFFFFFFFFFFFFF AND PUSH20 0xFFFFFFFFFFFFFFFFFFFFFFFFFFFFFFFFFFFFFFFF AND DUP2 MSTORE PUSH1 0x20 ADD SWAP1 DUP2 MSTORE PUSH1 0x20 ADD PUSH1 0x0 KECCAK256 PUSH1 0x0 DUP1 ISZERO ISZERO ISZERO ISZERO DUP2 MSTORE PUSH1 0x20 ADD SWAP1 DUP2 MSTORE PUSH1 0x20 ADD PUSH1 0x0 KECCAK256 PUSH1 0x2 ADD SLOAD PUSH2 0x2CD4 SWAP2 SWAP1 PUSH2 0x4677 JUMP JUMPDEST SWAP1 POP SWAP2 SWAP1 POP JUMP JUMPDEST PUSH1 0x0 PUSH2 0x2D45 PUSH1 0x2A PUSH1 0x0 DUP5 PUSH20 0xFFFFFFFFFFFFFFFFFFFFFFFFFFFFFFFFFFFFFFFF AND PUSH20 0xFFFFFFFFFFFFFFFFFFFFFFFFFFFFFFFFFFFFFFFF AND DUP2 MSTORE PUSH1 0x20 ADD SWAP1 DUP2 MSTORE PUSH1 0x20 ADD PUSH1 0x0 KECCAK256 PUSH1 0x1 PUSH1 0x2 DUP2 LT PUSH2 0x2D32 JUMPI PUSH2 0x2D31 PUSH2 0x49E3 JUMP JUMPDEST JUMPDEST ADD SLOAD PUSH1 0xD SLOAD PUSH1 0x6 SLOAD PUSH1 0x5 SLOAD PUSH1 0x1D SLOAD PUSH2 0x3325 JUMP JUMPDEST PUSH1 0x2A PUSH1 0x0 DUP5 PUSH20 0xFFFFFFFFFFFFFFFFFFFFFFFFFFFFFFFFFFFFFFFF AND PUSH20 0xFFFFFFFFFFFFFFFFFFFFFFFFFFFFFFFFFFFFFFFF AND DUP2 MSTORE PUSH1 0x20 ADD SWAP1 DUP2 MSTORE PUSH1 0x20 ADD PUSH1 0x0 KECCAK256 PUSH1 0x0 PUSH1 0x2 DUP2 LT PUSH2 0x2D97 JUMPI PUSH2 0x2D96 PUSH2 0x49E3 JUMP JUMPDEST JUMPDEST ADD SLOAD PUSH2 0x2DA3 SWAP2 SWAP1 PUSH2 0x4677 JUMP JUMPDEST SWAP1 POP SWAP2 SWAP1 POP JUMP JUMPDEST PUSH1 0x0 DUP1 PUSH2 0x2DD8 PUSH1 0xB SLOAD PUSH1 0xC SLOAD PUSH1 0x5 SLOAD PUSH1 0x6 SLOAD PUSH1 0x3 SLOAD PUSH1 0x4 SLOAD PUSH1 0x0 SLOAD PUSH2 0x2DD0 PUSH1 0x0 SLOAD PUSH2 0x3921 JUMP JUMPDEST PUSH1 0x1 SLOAD PUSH2 0x393E JUMP JUMPDEST SWAP2 POP SWAP2 POP PUSH1 0x0 DUP1 PUSH2 0x2DFB DUP5 DUP5 PUSH1 0x7 SLOAD PUSH1 0x8 SLOAD PUSH1 0x21 SLOAD PUSH1 0x16 SLOAD PUSH1 0xB SLOAD PUSH1 0xC SLOAD PUSH2 0x39DA JUMP JUMPDEST SWAP2 POP SWAP2 POP PUSH1 0x0 PUSH1 0x14 SLOAD NUMBER PUSH2 0x2E0F SWAP2 SWAP1 PUSH2 0x48C9 JUMP JUMPDEST SWAP1 POP NUMBER PUSH1 0x14 DUP2 SWAP1 SSTORE POP PUSH1 0x0 ISZERO ISZERO PUSH1 0x15 PUSH1 0x0 SWAP1 SLOAD SWAP1 PUSH2 0x100 EXP SWAP1 DIV PUSH1 0xFF AND ISZERO ISZERO EQ ISZERO PUSH2 0x2EA3 JUMPI PUSH2 0x2E48 PUSH1 0xE SLOAD PUSH1 0x13 SLOAD DUP4 PUSH1 0x1D SLOAD PUSH1 0x1 PUSH2 0x3325 JUMP JUMPDEST PUSH1 0xE SLOAD PUSH2 0x2E55 SWAP2 SWAP1 PUSH2 0x4677 JUMP JUMPDEST PUSH1 0xE DUP2 SWAP1 SSTORE POP DUP1 PUSH2 0x2E81 PUSH1 0x13 SLOAD PUSH1 0xE SLOAD PUSH2 0x2E76 PUSH1 0xD SLOAD PUSH1 0x6 SLOAD PUSH1 0x5 SLOAD PUSH2 0x335F JUMP JUMPDEST PUSH1 0x1D SLOAD PUSH1 0x1D SLOAD PUSH2 0x3325 JUMP JUMPDEST PUSH2 0x2E8B SWAP2 SWAP1 PUSH2 0x486F JUMP JUMPDEST PUSH1 0xF SLOAD PUSH2 0x2E98 SWAP2 SWAP1 PUSH2 0x48C9 JUMP JUMPDEST PUSH1 0xF DUP2 SWAP1 SSTORE POP PUSH2 0x2F00 JUMP JUMPDEST PUSH2 0x2EB7 PUSH1 0xF SLOAD PUSH1 0x13 SLOAD DUP4 PUSH1 0x1D SLOAD PUSH1 0x1 PUSH2 0x3325 JUMP JUMPDEST PUSH1 0xF SLOAD PUSH2 0x2EC4 SWAP2 SWAP1 PUSH2 0x4677 JUMP JUMPDEST PUSH1 0xF DUP2 SWAP1 SSTORE POP PUSH2 0x2EEC PUSH1 0x13 SLOAD PUSH1 0xF SLOAD DUP4 PUSH2 0x2EE5 PUSH1 0xD SLOAD PUSH1 0x6 SLOAD PUSH1 0x5 SLOAD PUSH2 0x335F JUMP JUMPDEST PUSH1 0x1 PUSH2 0x3325 JUMP JUMPDEST PUSH1 0xE SLOAD PUSH2 0x2EF9 SWAP2 SWAP1 PUSH2 0x48C9 JUMP JUMPDEST PUSH1 0xE DUP2 SWAP1 SSTORE POP JUMPDEST DUP3 PUSH1 0x13 DUP2 SWAP1 SSTORE POP DUP2 PUSH1 0x15 PUSH1 0x0 PUSH2 0x100 EXP DUP2 SLOAD DUP2 PUSH1 0xFF MUL NOT AND SWAP1 DUP4 ISZERO ISZERO MUL OR SWAP1 SSTORE POP POP POP POP POP POP JUMP JUMPDEST PUSH1 0x0 PUSH1 0x1 PUSH1 0x25 SLOAD EQ PUSH2 0x2F6F JUMPI PUSH1 0x40 MLOAD PUSH32 0x8C379A000000000000000000000000000000000000000000000000000000000 DUP2 MSTORE PUSH1 0x4 ADD PUSH2 0x2F66 SWAP1 PUSH2 0x4615 JUMP JUMPDEST PUSH1 0x40 MLOAD DUP1 SWAP2 SUB SWAP1 REVERT JUMPDEST PUSH1 0x0 PUSH1 0x25 DUP2 SWAP1 SSTORE POP PUSH1 0x0 JUMPDEST PUSH2 0x2FA5 PUSH2 0x2F9A PUSH1 0x2 PUSH1 0x1 SLOAD PUSH2 0x2F8F SWAP2 SWAP1 PUSH2 0x46CD JUMP JUMPDEST PUSH1 0x20 SLOAD PUSH1 0x1D SLOAD PUSH2 0x335F JUMP JUMPDEST PUSH1 0x3 SLOAD PUSH1 0x5 SLOAD PUSH2 0x3A84 JUMP JUMPDEST DUP2 DUP7 PUSH2 0x2FB1 SWAP2 SWAP1 PUSH2 0x48C9 JUMP JUMPDEST GT ISZERO PUSH2 0x319C JUMPI PUSH1 0x0 PUSH2 0x2FD6 PUSH1 0x2 PUSH1 0x1 SLOAD PUSH2 0x2FCB SWAP2 SWAP1 PUSH2 0x46CD JUMP JUMPDEST PUSH1 0x20 SLOAD PUSH1 0x1D SLOAD PUSH2 0x335F JUMP JUMPDEST SWAP1 POP PUSH1 0x0 PUSH2 0x2FF4 PUSH1 0x0 SLOAD PUSH2 0x2FEB PUSH1 0x0 SLOAD PUSH2 0x3921 JUMP JUMPDEST PUSH1 0x1 SLOAD DUP6 PUSH2 0x3AB9 JUMP JUMPDEST SWAP1 POP PUSH1 0x0 DUP6 GT DUP1 ISZERO PUSH2 0x301E JUMPI POP DUP5 PUSH2 0x3011 PUSH1 0x4 SLOAD DUP4 PUSH1 0x6 SLOAD PUSH2 0x3A84 JUMP JUMPDEST DUP6 PUSH2 0x301C SWAP2 SWAP1 PUSH2 0x4677 JUMP JUMPDEST GT JUMPDEST ISZERO PUSH2 0x302A JUMPI POP POP PUSH2 0x319C JUMP JUMPDEST PUSH2 0x3039 PUSH1 0x4 SLOAD DUP3 PUSH1 0x6 SLOAD PUSH2 0x3A84 JUMP JUMPDEST DUP5 PUSH2 0x3044 SWAP2 SWAP1 PUSH2 0x4677 JUMP JUMPDEST SWAP4 POP PUSH2 0x3055 DUP3 PUSH1 0x3 SLOAD PUSH1 0x5 SLOAD PUSH2 0x3A84 JUMP JUMPDEST DUP4 PUSH2 0x3060 SWAP2 SWAP1 PUSH2 0x4677 JUMP JUMPDEST SWAP3 POP PUSH1 0x0 ISZERO ISZERO DUP7 ISZERO ISZERO EQ ISZERO PUSH2 0x30BE JUMPI PUSH2 0x307E DUP3 PUSH1 0x3 SLOAD PUSH1 0x5 SLOAD PUSH2 0x3A84 JUMP JUMPDEST PUSH1 0xB PUSH1 0x0 DUP3 DUP3 SLOAD PUSH2 0x308F SWAP2 SWAP1 PUSH2 0x4677 JUMP JUMPDEST SWAP3 POP POP DUP2 SWAP1 SSTORE POP PUSH2 0x30A5 PUSH1 0x4 SLOAD DUP3 PUSH1 0x6 SLOAD PUSH2 0x3A84 JUMP JUMPDEST PUSH1 0xC PUSH1 0x0 DUP3 DUP3 SLOAD PUSH2 0x30B6 SWAP2 SWAP1 PUSH2 0x48C9 JUMP JUMPDEST SWAP3 POP POP DUP2 SWAP1 SSTORE POP JUMPDEST PUSH2 0x30D9 PUSH1 0x6 SLOAD PUSH1 0x2 PUSH1 0x1 SLOAD PUSH2 0x30D3 SWAP2 SWAP1 PUSH2 0x46CD JUMP JUMPDEST DUP4 PUSH2 0x335F JUMP JUMPDEST PUSH1 0x6 DUP2 SWAP1 SSTORE POP PUSH2 0x30FA PUSH1 0x5 SLOAD PUSH1 0x2 PUSH1 0x1 SLOAD PUSH2 0x30F4 SWAP2 SWAP1 PUSH2 0x46CD JUMP JUMPDEST DUP5 PUSH2 0x335F JUMP JUMPDEST PUSH1 0x5 DUP2 SWAP1 SSTORE POP PUSH2 0x3143 PUSH2 0x311E PUSH1 0x0 SLOAD PUSH2 0x3114 PUSH1 0x0 SLOAD PUSH2 0x3921 JUMP JUMPDEST PUSH1 0x1 SLOAD DUP7 DUP7 PUSH2 0x3BB9 JUMP JUMPDEST DUP3 PUSH1 0x2 PUSH1 0x1 SLOAD PUSH2 0x312E SWAP2 SWAP1 PUSH2 0x46CD JUMP JUMPDEST DUP6 PUSH1 0x2 PUSH1 0x1 SLOAD PUSH2 0x313E SWAP2 SWAP1 PUSH2 0x46CD JUMP JUMPDEST PUSH2 0x3325 JUMP JUMPDEST PUSH1 0xD DUP2 SWAP1 SSTORE POP PUSH2 0x3157 PUSH1 0x1 SLOAD PUSH1 0xD SLOAD PUSH2 0x3CAD JUMP JUMPDEST PUSH1 0x0 DUP2 SWAP1 SSTORE POP PUSH2 0x3165 PUSH2 0x3E08 JUMP JUMPDEST PUSH1 0x1 DUP2 SWAP1 SSTORE POP PUSH1 0x2 PUSH1 0x1 SLOAD PUSH2 0x317A SWAP2 SWAP1 PUSH2 0x46CD JUMP JUMPDEST PUSH1 0x3 DUP2 SWAP1 SSTORE POP PUSH1 0x2 PUSH1 0x1 SLOAD PUSH2 0x318F SWAP2 SWAP1 PUSH2 0x46CD JUMP JUMPDEST PUSH1 0x4 DUP2 SWAP1 SSTORE POP POP POP PUSH2 0x2F7A JUMP JUMPDEST PUSH1 0x0 PUSH1 0x3 SLOAD SWAP1 POP PUSH1 0x0 PUSH1 0x4 SLOAD SWAP1 POP PUSH1 0x0 DUP6 EQ ISZERO PUSH2 0x320C JUMPI PUSH2 0x31CD DUP4 DUP9 PUSH2 0x31C2 SWAP2 SWAP1 PUSH2 0x48C9 JUMP JUMPDEST PUSH1 0x5 SLOAD PUSH1 0x1D SLOAD PUSH2 0x335F JUMP JUMPDEST PUSH1 0x3 PUSH1 0x0 DUP3 DUP3 SLOAD PUSH2 0x31DE SWAP2 SWAP1 PUSH2 0x4677 JUMP JUMPDEST SWAP3 POP POP DUP2 SWAP1 SSTORE POP PUSH2 0x3201 PUSH1 0x0 SLOAD PUSH2 0x31F6 PUSH1 0x0 SLOAD PUSH2 0x3921 JUMP JUMPDEST PUSH1 0x1 SLOAD PUSH1 0x3 SLOAD PUSH2 0x3AB9 JUMP JUMPDEST PUSH1 0x4 DUP2 SWAP1 SSTORE POP PUSH2 0x3261 JUMP JUMPDEST PUSH2 0x3226 DUP5 DUP7 PUSH2 0x321B SWAP2 SWAP1 PUSH2 0x48C9 JUMP JUMPDEST PUSH1 0x6 SLOAD PUSH1 0x1D SLOAD PUSH2 0x335F JUMP JUMPDEST PUSH1 0x4 PUSH1 0x0 DUP3 DUP3 SLOAD PUSH2 0x3237 SWAP2 SWAP1 PUSH2 0x48C9 JUMP JUMPDEST SWAP3 POP POP DUP2 SWAP1 SSTORE POP PUSH2 0x325A PUSH1 0x0 SLOAD PUSH2 0x324F PUSH1 0x0 SLOAD PUSH2 0x3921 JUMP JUMPDEST PUSH1 0x1 SLOAD PUSH1 0x4 SLOAD PUSH2 0x3E61 JUMP JUMPDEST PUSH1 0x3 DUP2 SWAP1 SSTORE POP JUMPDEST PUSH2 0x3270 DUP2 PUSH1 0x4 SLOAD PUSH1 0x6 SLOAD PUSH2 0x3A84 JUMP JUMPDEST DUP5 PUSH2 0x327B SWAP2 SWAP1 PUSH2 0x4677 JUMP JUMPDEST SWAP4 POP PUSH2 0x328C PUSH1 0x3 SLOAD DUP4 PUSH1 0x5 SLOAD PUSH2 0x3A84 JUMP JUMPDEST DUP4 PUSH2 0x3297 SWAP2 SWAP1 PUSH2 0x4677 JUMP JUMPDEST SWAP3 POP PUSH1 0x1 ISZERO ISZERO DUP7 ISZERO ISZERO EQ ISZERO PUSH2 0x32C4 JUMPI DUP4 PUSH1 0x8 PUSH1 0x0 DUP3 DUP3 SLOAD PUSH2 0x32B8 SWAP2 SWAP1 PUSH2 0x4677 JUMP JUMPDEST SWAP3 POP POP DUP2 SWAP1 SSTORE POP PUSH2 0x3313 JUMP JUMPDEST PUSH2 0x32D3 PUSH1 0x3 SLOAD DUP4 PUSH1 0x5 SLOAD PUSH2 0x3A84 JUMP JUMPDEST PUSH1 0xB PUSH1 0x0 DUP3 DUP3 SLOAD PUSH2 0x32E4 SWAP2 SWAP1 PUSH2 0x4677 JUMP JUMPDEST SWAP3 POP POP DUP2 SWAP1 SSTORE POP PUSH2 0x32FA DUP2 PUSH1 0x4 SLOAD PUSH1 0x6 SLOAD PUSH2 0x3A84 JUMP JUMPDEST PUSH1 0xC PUSH1 0x0 DUP3 DUP3 SLOAD PUSH2 0x330B SWAP2 SWAP1 PUSH2 0x48C9 JUMP JUMPDEST SWAP3 POP POP DUP2 SWAP1 SSTORE POP JUMPDEST POP POP POP PUSH1 0x1 PUSH1 0x25 DUP2 SWAP1 SSTORE POP SWAP4 SWAP3 POP POP POP JUMP JUMPDEST PUSH1 0x0 DUP2 DUP4 DUP6 DUP8 DUP10 PUSH2 0x3336 SWAP2 SWAP1 PUSH2 0x486F JUMP JUMPDEST PUSH2 0x3340 SWAP2 SWAP1 PUSH2 0x486F JUMP JUMPDEST PUSH2 0x334A SWAP2 SWAP1 PUSH2 0x46CD JUMP JUMPDEST PUSH2 0x3354 SWAP2 SWAP1 PUSH2 0x46CD JUMP JUMPDEST SWAP1 POP SWAP6 SWAP5 POP POP POP POP POP JUMP JUMPDEST PUSH1 0x0 DUP2 DUP4 DUP6 PUSH2 0x336E SWAP2 SWAP1 PUSH2 0x486F JUMP JUMPDEST PUSH2 0x3378 SWAP2 SWAP1 PUSH2 0x46CD JUMP JUMPDEST SWAP1 POP SWAP4 SWAP3 POP POP POP JUMP JUMPDEST PUSH1 0x0 PUSH1 0x1 PUSH1 0x25 SLOAD EQ PUSH2 0x33C8 JUMPI PUSH1 0x40 MLOAD PUSH32 0x8C379A000000000000000000000000000000000000000000000000000000000 DUP2 MSTORE PUSH1 0x4 ADD PUSH2 0x33BF SWAP1 PUSH2 0x4615 JUMP JUMPDEST PUSH1 0x40 MLOAD DUP1 SWAP2 SUB SWAP1 REVERT JUMPDEST PUSH1 0x0 PUSH1 0x25 DUP2 SWAP1 SSTORE POP PUSH1 0x0 JUMPDEST PUSH2 0x33FE PUSH2 0x33F3 PUSH1 0x2 PUSH1 0x1 SLOAD PUSH2 0x33E8 SWAP2 SWAP1 PUSH2 0x46CD JUMP JUMPDEST PUSH1 0x20 SLOAD PUSH1 0x1D SLOAD PUSH2 0x335F JUMP JUMPDEST PUSH1 0x4 SLOAD PUSH1 0x6 SLOAD PUSH2 0x3A84 JUMP JUMPDEST DUP2 DUP7 PUSH2 0x340A SWAP2 SWAP1 PUSH2 0x48C9 JUMP JUMPDEST GT ISZERO PUSH2 0x35F5 JUMPI PUSH1 0x0 PUSH2 0x342F PUSH1 0x2 PUSH1 0x1 SLOAD PUSH2 0x3424 SWAP2 SWAP1 PUSH2 0x46CD JUMP JUMPDEST PUSH1 0x20 SLOAD PUSH1 0x1D SLOAD PUSH2 0x335F JUMP JUMPDEST SWAP1 POP PUSH1 0x0 PUSH2 0x344D PUSH1 0x0 SLOAD PUSH2 0x3444 PUSH1 0x0 SLOAD PUSH2 0x3921 JUMP JUMPDEST PUSH1 0x1 SLOAD DUP6 PUSH2 0x3E61 JUMP JUMPDEST SWAP1 POP PUSH1 0x0 DUP6 GT DUP1 ISZERO PUSH2 0x3477 JUMPI POP DUP5 PUSH2 0x346A PUSH1 0x3 SLOAD DUP4 PUSH1 0x5 SLOAD PUSH2 0x3A84 JUMP JUMPDEST DUP6 PUSH2 0x3475 SWAP2 SWAP1 PUSH2 0x4677 JUMP JUMPDEST GT JUMPDEST ISZERO PUSH2 0x3483 JUMPI POP POP PUSH2 0x35F5 JUMP JUMPDEST PUSH2 0x3492 PUSH1 0x3 SLOAD DUP3 PUSH1 0x5 SLOAD PUSH2 0x3A84 JUMP JUMPDEST DUP5 PUSH2 0x349D SWAP2 SWAP1 PUSH2 0x4677 JUMP JUMPDEST SWAP4 POP PUSH2 0x34AE DUP3 PUSH1 0x4 SLOAD PUSH1 0x6 SLOAD PUSH2 0x3A84 JUMP JUMPDEST DUP4 PUSH2 0x34B9 SWAP2 SWAP1 PUSH2 0x4677 JUMP JUMPDEST SWAP3 POP PUSH1 0x0 ISZERO ISZERO DUP7 ISZERO ISZERO EQ ISZERO PUSH2 0x3517 JUMPI PUSH2 0x34D7 PUSH1 0x3 SLOAD DUP3 PUSH1 0x5 SLOAD PUSH2 0x3A84 JUMP JUMPDEST PUSH1 0xB PUSH1 0x0 DUP3 DUP3 SLOAD PUSH2 0x34E8 SWAP2 SWAP1 PUSH2 0x48C9 JUMP JUMPDEST SWAP3 POP POP DUP2 SWAP1 SSTORE POP PUSH2 0x34FE DUP3 PUSH1 0x4 SLOAD PUSH1 0x6 SLOAD PUSH2 0x3A84 JUMP JUMPDEST PUSH1 0xC PUSH1 0x0 DUP3 DUP3 SLOAD PUSH2 0x350F SWAP2 SWAP1 PUSH2 0x4677 JUMP JUMPDEST SWAP3 POP POP DUP2 SWAP1 SSTORE POP JUMPDEST PUSH2 0x3532 PUSH1 0x6 SLOAD PUSH1 0x2 PUSH1 0x1 SLOAD PUSH2 0x352C SWAP2 SWAP1 PUSH2 0x46CD JUMP JUMPDEST DUP5 PUSH2 0x335F JUMP JUMPDEST PUSH1 0x6 DUP2 SWAP1 SSTORE POP PUSH2 0x3553 PUSH1 0x5 SLOAD PUSH1 0x2 PUSH1 0x1 SLOAD PUSH2 0x354D SWAP2 SWAP1 PUSH2 0x46CD JUMP JUMPDEST DUP4 PUSH2 0x335F JUMP JUMPDEST PUSH1 0x5 DUP2 SWAP1 SSTORE POP PUSH2 0x359C PUSH2 0x3577 PUSH1 0x0 SLOAD PUSH2 0x356D PUSH1 0x0 SLOAD PUSH2 0x3921 JUMP JUMPDEST PUSH1 0x1 SLOAD DUP6 DUP8 PUSH2 0x3BB9 JUMP JUMPDEST DUP4 PUSH1 0x2 PUSH1 0x1 SLOAD PUSH2 0x3587 SWAP2 SWAP1 PUSH2 0x46CD JUMP JUMPDEST DUP5 PUSH1 0x2 PUSH1 0x1 SLOAD PUSH2 0x3597 SWAP2 SWAP1 PUSH2 0x46CD JUMP JUMPDEST PUSH2 0x3325 JUMP JUMPDEST PUSH1 0xD DUP2 SWAP1 SSTORE POP PUSH2 0x35B0 PUSH1 0x1 SLOAD PUSH1 0xD SLOAD PUSH2 0x3CAD JUMP JUMPDEST PUSH1 0x0 DUP2 SWAP1 SSTORE POP PUSH2 0x35BE PUSH2 0x3E08 JUMP JUMPDEST PUSH1 0x1 DUP2 SWAP1 SSTORE POP PUSH1 0x2 PUSH1 0x1 SLOAD PUSH2 0x35D3 SWAP2 SWAP1 PUSH2 0x46CD JUMP JUMPDEST PUSH1 0x3 DUP2 SWAP1 SSTORE POP PUSH1 0x2 PUSH1 0x1 SLOAD PUSH2 0x35E8 SWAP2 SWAP1 PUSH2 0x46CD JUMP JUMPDEST PUSH1 0x4 DUP2 SWAP1 SSTORE POP POP POP PUSH2 0x33D3 JUMP JUMPDEST PUSH1 0x0 PUSH1 0x3 SLOAD SWAP1 POP PUSH1 0x0 PUSH1 0x4 SLOAD SWAP1 POP PUSH1 0x0 DUP6 EQ ISZERO PUSH2 0x3665 JUMPI PUSH2 0x3626 DUP4 DUP9 PUSH2 0x361B SWAP2 SWAP1 PUSH2 0x48C9 JUMP JUMPDEST PUSH1 0x6 SLOAD PUSH1 0x1D SLOAD PUSH2 0x335F JUMP JUMPDEST PUSH1 0x4 PUSH1 0x0 DUP3 DUP3 SLOAD PUSH2 0x3637 SWAP2 SWAP1 PUSH2 0x4677 JUMP JUMPDEST SWAP3 POP POP DUP2 SWAP1 SSTORE POP PUSH2 0x365A PUSH1 0x0 SLOAD PUSH2 0x364F PUSH1 0x0 SLOAD PUSH2 0x3921 JUMP JUMPDEST PUSH1 0x1 SLOAD PUSH1 0x4 SLOAD PUSH2 0x3E61 JUMP JUMPDEST PUSH1 0x3 DUP2 SWAP1 SSTORE POP PUSH2 0x36BA JUMP JUMPDEST PUSH2 0x367F DUP5 DUP7 PUSH2 0x3674 SWAP2 SWAP1 PUSH2 0x48C9 JUMP JUMPDEST PUSH1 0x5 SLOAD PUSH1 0x1D SLOAD PUSH2 0x335F JUMP JUMPDEST PUSH1 0x3 PUSH1 0x0 DUP3 DUP3 SLOAD PUSH2 0x3690 SWAP2 SWAP1 PUSH2 0x48C9 JUMP JUMPDEST SWAP3 POP POP DUP2 SWAP1 SSTORE POP PUSH2 0x36B3 PUSH1 0x0 SLOAD PUSH2 0x36A8 PUSH1 0x0 SLOAD PUSH2 0x3921 JUMP JUMPDEST PUSH1 0x1 SLOAD PUSH1 0x3 SLOAD PUSH2 0x3AB9 JUMP JUMPDEST PUSH1 0x4 DUP2 SWAP1 SSTORE POP JUMPDEST PUSH2 0x36C9 DUP3 PUSH1 0x3 SLOAD PUSH1 0x5 SLOAD PUSH2 0x3A84 JUMP JUMPDEST DUP5 PUSH2 0x36D4 SWAP2 SWAP1 PUSH2 0x4677 JUMP JUMPDEST SWAP4 POP PUSH2 0x36E5 PUSH1 0x4 SLOAD DUP3 PUSH1 0x6 SLOAD PUSH2 0x3A84 JUMP JUMPDEST DUP4 PUSH2 0x36F0 SWAP2 SWAP1 PUSH2 0x4677 JUMP JUMPDEST SWAP3 POP PUSH1 0x1 ISZERO ISZERO DUP7 ISZERO ISZERO EQ ISZERO PUSH2 0x371D JUMPI DUP4 PUSH1 0x7 PUSH1 0x0 DUP3 DUP3 SLOAD PUSH2 0x3711 SWAP2 SWAP1 PUSH2 0x4677 JUMP JUMPDEST SWAP3 POP POP DUP2 SWAP1 SSTORE POP PUSH2 0x376C JUMP JUMPDEST PUSH2 0x372C PUSH1 0x4 SLOAD DUP3 PUSH1 0x6 SLOAD PUSH2 0x3A84 JUMP JUMPDEST PUSH1 0xC PUSH1 0x0 DUP3 DUP3 SLOAD PUSH2 0x373D SWAP2 SWAP1 PUSH2 0x4677 JUMP JUMPDEST SWAP3 POP POP DUP2 SWAP1 SSTORE POP PUSH2 0x3753 DUP3 PUSH1 0x3 SLOAD PUSH1 0x5 SLOAD PUSH2 0x3A84 JUMP JUMPDEST PUSH1 0xB PUSH1 0x0 DUP3 DUP3 SLOAD PUSH2 0x3764 SWAP2 SWAP1 PUSH2 0x48C9 JUMP JUMPDEST SWAP3 POP POP DUP2 SWAP1 SSTORE POP JUMPDEST POP POP POP PUSH1 0x1 PUSH1 0x25 DUP2 SWAP1 SSTORE POP SWAP4 SWAP3 POP POP POP JUMP JUMPDEST PUSH1 0x0 DUP1 DUP5 PUSH20 0xFFFFFFFFFFFFFFFFFFFFFFFFFFFFFFFFFFFFFFFF AND PUSH1 0x40 MLOAD DUP1 PUSH1 0x40 ADD PUSH1 0x40 MSTORE DUP1 PUSH1 0x19 DUP2 MSTORE PUSH1 0x20 ADD PUSH32 0x7472616E7366657228616464726573732C75696E743235362900000000000000 DUP2 MSTORE POP DUP1 MLOAD SWAP1 PUSH1 0x20 ADD KECCAK256 DUP6 DUP6 PUSH1 0x40 MLOAD PUSH1 0x24 ADD PUSH2 0x37E8 SWAP3 SWAP2 SWAP1 PUSH2 0x45B1 JUMP JUMPDEST PUSH1 0x40 MLOAD PUSH1 0x20 DUP2 DUP4 SUB SUB DUP2 MSTORE SWAP1 PUSH1 0x40 MSTORE SWAP1 PUSH28 0xFFFFFFFFFFFFFFFFFFFFFFFFFFFFFFFFFFFFFFFFFFFFFFFFFFFFFFFF NOT AND PUSH1 0x20 DUP3 ADD DUP1 MLOAD PUSH28 0xFFFFFFFFFFFFFFFFFFFFFFFFFFFFFFFFFFFFFFFFFFFFFFFFFFFFFFFF DUP4 DUP2 DUP4 AND OR DUP4 MSTORE POP POP POP POP PUSH1 0x40 MLOAD PUSH2 0x3852 SWAP2 SWAP1 PUSH2 0x453A JUMP JUMPDEST PUSH1 0x0 PUSH1 0x40 MLOAD DUP1 DUP4 SUB DUP2 PUSH1 0x0 DUP7 GAS CALL SWAP2 POP POP RETURNDATASIZE DUP1 PUSH1 0x0 DUP2 EQ PUSH2 0x388F JUMPI PUSH1 0x40 MLOAD SWAP2 POP PUSH1 0x1F NOT PUSH1 0x3F RETURNDATASIZE ADD AND DUP3 ADD PUSH1 0x40 MSTORE RETURNDATASIZE DUP3 MSTORE RETURNDATASIZE PUSH1 0x0 PUSH1 0x20 DUP5 ADD RETURNDATACOPY PUSH2 0x3894 JUMP JUMPDEST PUSH1 0x60 SWAP2 POP JUMPDEST POP SWAP2 POP SWAP2 POP DUP2 DUP1 ISZERO PUSH2 0x38C2 JUMPI POP PUSH1 0x0 DUP2 MLOAD EQ DUP1 PUSH2 0x38C1 JUMPI POP DUP1 DUP1 PUSH1 0x20 ADD SWAP1 MLOAD DUP2 ADD SWAP1 PUSH2 0x38C0 SWAP2 SWAP1 PUSH2 0x4382 JUMP JUMPDEST JUMPDEST JUMPDEST PUSH2 0x3901 JUMPI PUSH1 0x40 MLOAD PUSH32 0x8C379A000000000000000000000000000000000000000000000000000000000 DUP2 MSTORE PUSH1 0x4 ADD PUSH2 0x38F8 SWAP1 PUSH2 0x45F5 JUMP JUMPDEST PUSH1 0x40 MLOAD DUP1 SWAP2 SUB SWAP1 REVERT JUMPDEST POP POP POP POP POP JUMP JUMPDEST PUSH1 0x0 DUP2 DUP4 GT PUSH2 0x3917 JUMPI DUP2 PUSH2 0x3919 JUMP JUMPDEST DUP3 JUMPDEST SWAP1 POP SWAP3 SWAP2 POP POP JUMP JUMPDEST PUSH1 0x0 DUP2 PUSH8 0x1BC16D674EC80000 PUSH2 0x3937 SWAP2 SWAP1 PUSH2 0x48C9 JUMP JUMPDEST SWAP1 POP SWAP2 SWAP1 POP JUMP JUMPDEST PUSH1 0x0 DUP1 PUSH1 0x0 PUSH2 0x3956 DUP13 DUP12 PUSH8 0xDE0B6B3A7640000 PUSH2 0x335F JUMP JUMPDEST SWAP1 POP PUSH1 0x0 PUSH2 0x396D DUP13 DUP12 PUSH8 0xDE0B6B3A7640000 PUSH2 0x335F JUMP JUMPDEST SWAP1 POP PUSH1 0x0 PUSH2 0x397C DUP4 DUP4 DUP9 PUSH2 0x3F61 JUMP JUMPDEST SWAP1 POP PUSH1 0x0 DUP2 PUSH8 0x1BC16D674EC80000 PUSH2 0x3994 SWAP2 SWAP1 PUSH2 0x48C9 JUMP JUMPDEST SWAP1 POP PUSH2 0x39AD PUSH2 0x39A6 DUP4 DUP4 DUP11 DUP9 DUP9 PUSH2 0x3BB9 JUMP JUMPDEST DUP14 DUP16 PUSH2 0x335F JUMP JUMPDEST SWAP6 POP PUSH2 0x39C6 PUSH2 0x39BF DUP11 DUP11 DUP11 DUP16 DUP16 PUSH2 0x3BB9 JUMP JUMPDEST DUP14 DUP16 PUSH2 0x335F JUMP JUMPDEST SWAP5 POP POP POP POP POP SWAP10 POP SWAP10 SWAP8 POP POP POP POP POP POP POP POP JUMP JUMPDEST PUSH1 0x0 DUP1 DUP10 DUP10 GT ISZERO PUSH2 0x3A1D JUMPI PUSH2 0x39F0 DUP8 DUP5 DUP9 PUSH2 0x3FE5 JUMP JUMPDEST PUSH2 0x1680 PUSH2 0x39FE DUP12 DUP14 DUP15 PUSH2 0x3A84 JUMP JUMPDEST PUSH2 0x3A08 SWAP2 SWAP1 PUSH2 0x46CD JUMP JUMPDEST PUSH2 0x3A12 SWAP2 SWAP1 PUSH2 0x4677 JUMP JUMPDEST SWAP2 POP PUSH1 0x0 SWAP1 POP PUSH2 0x3A51 JUMP JUMPDEST PUSH2 0x3A28 DUP9 DUP6 DUP9 PUSH2 0x3FE5 JUMP JUMPDEST PUSH2 0x1680 PUSH2 0x3A36 DUP13 DUP13 DUP15 PUSH2 0x3A84 JUMP JUMPDEST PUSH2 0x3A40 SWAP2 SWAP1 PUSH2 0x46CD JUMP JUMPDEST PUSH2 0x3A4A SWAP2 SWAP1 PUSH2 0x4677 JUMP JUMPDEST SWAP2 POP PUSH1 0x1 SWAP1 POP JUMPDEST DUP5 PUSH2 0x780 DUP4 PUSH2 0x3A60 SWAP2 SWAP1 PUSH2 0x486F JUMP JUMPDEST GT ISZERO PUSH2 0x3A77 JUMPI PUSH2 0x780 DUP6 PUSH2 0x3A74 SWAP2 SWAP1 PUSH2 0x46CD JUMP JUMPDEST SWAP2 POP JUMPDEST SWAP9 POP SWAP9 SWAP7 POP POP POP POP POP POP POP JUMP JUMPDEST PUSH1 0x0 DUP2 PUSH8 0xDE0B6B3A7640000 DUP5 DUP7 PUSH2 0x3A9C SWAP2 SWAP1 PUSH2 0x48C9 JUMP JUMPDEST PUSH2 0x3AA6 SWAP2 SWAP1 PUSH2 0x486F JUMP JUMPDEST PUSH2 0x3AB0 SWAP2 SWAP1 PUSH2 0x46CD JUMP JUMPDEST SWAP1 POP SWAP4 SWAP3 POP POP POP JUMP JUMPDEST PUSH1 0x0 DUP2 DUP5 PUSH1 0x8 PUSH2 0x3AC9 SWAP2 SWAP1 PUSH2 0x486F JUMP JUMPDEST PUSH2 0x3AD3 SWAP2 SWAP1 PUSH2 0x486F JUMP JUMPDEST PUSH2 0x3B6C PUSH8 0xDE0B6B3A7640000 DUP6 DUP7 DUP8 PUSH2 0x3AEC SWAP2 SWAP1 PUSH2 0x486F JUMP JUMPDEST PUSH2 0x3AF6 SWAP2 SWAP1 PUSH2 0x486F JUMP JUMPDEST PUSH1 0x0 PUSH2 0x3B02 SWAP2 SWAP1 PUSH2 0x48C9 JUMP JUMPDEST DUP6 DUP9 PUSH1 0x10 PUSH2 0x3B10 SWAP2 SWAP1 PUSH2 0x486F JUMP JUMPDEST PUSH2 0x3B1A SWAP2 SWAP1 PUSH2 0x486F JUMP JUMPDEST PUSH2 0x3B24 SWAP2 SWAP1 PUSH2 0x486F JUMP JUMPDEST PUSH2 0x3B2E SWAP2 SWAP1 PUSH2 0x486F JUMP JUMPDEST PUSH1 0x2 DUP6 DUP7 DUP11 PUSH1 0x4 PUSH2 0x3B3F SWAP2 SWAP1 PUSH2 0x486F JUMP JUMPDEST PUSH2 0x3B49 SWAP2 SWAP1 PUSH2 0x486F JUMP JUMPDEST PUSH2 0x3B53 SWAP2 SWAP1 PUSH2 0x486F JUMP JUMPDEST PUSH2 0x3B5D SWAP2 SWAP1 PUSH2 0x4751 JUMP JUMPDEST PUSH2 0x3B67 SWAP2 SWAP1 PUSH2 0x48C9 JUMP JUMPDEST PUSH2 0x4032 JUMP JUMPDEST DUP4 DUP5 DUP9 PUSH1 0x4 PUSH2 0x3B7B SWAP2 SWAP1 PUSH2 0x486F JUMP JUMPDEST PUSH2 0x3B85 SWAP2 SWAP1 PUSH2 0x486F JUMP JUMPDEST PUSH2 0x3B8F SWAP2 SWAP1 PUSH2 0x486F JUMP JUMPDEST PUSH1 0x0 PUSH2 0x3B9B SWAP2 SWAP1 PUSH2 0x48C9 JUMP JUMPDEST PUSH2 0x3BA5 SWAP2 SWAP1 PUSH2 0x4677 JUMP JUMPDEST PUSH2 0x3BAF SWAP2 SWAP1 PUSH2 0x46CD JUMP JUMPDEST SWAP1 POP SWAP5 SWAP4 POP POP POP POP JUMP JUMPDEST PUSH1 0x0 DUP2 DUP5 DUP6 DUP7 PUSH2 0x3BC9 SWAP2 SWAP1 PUSH2 0x486F JUMP JUMPDEST PUSH2 0x3BD3 SWAP2 SWAP1 PUSH2 0x486F JUMP JUMPDEST PUSH2 0x3BDD SWAP2 SWAP1 PUSH2 0x486F JUMP JUMPDEST DUP3 DUP4 DUP6 DUP7 DUP11 PUSH1 0x4 PUSH2 0x3BEE SWAP2 SWAP1 PUSH2 0x486F JUMP JUMPDEST PUSH2 0x3BF8 SWAP2 SWAP1 PUSH2 0x486F JUMP JUMPDEST PUSH2 0x3C02 SWAP2 SWAP1 PUSH2 0x486F JUMP JUMPDEST PUSH2 0x3C0C SWAP2 SWAP1 PUSH2 0x486F JUMP JUMPDEST PUSH2 0x3C16 SWAP2 SWAP1 PUSH2 0x486F JUMP JUMPDEST PUSH2 0x3C20 SWAP2 SWAP1 PUSH2 0x4677 JUMP JUMPDEST PUSH8 0xDE0B6B3A7640000 DUP5 DUP7 DUP8 DUP9 PUSH2 0x3C37 SWAP2 SWAP1 PUSH2 0x486F JUMP JUMPDEST PUSH2 0x3C41 SWAP2 SWAP1 PUSH2 0x486F JUMP JUMPDEST PUSH2 0x3C4B SWAP2 SWAP1 PUSH2 0x486F JUMP JUMPDEST DUP5 DUP6 DUP8 DUP9 DUP12 PUSH1 0x4 PUSH2 0x3C5C SWAP2 SWAP1 PUSH2 0x486F JUMP JUMPDEST PUSH2 0x3C66 SWAP2 SWAP1 PUSH2 0x486F JUMP JUMPDEST PUSH2 0x3C70 SWAP2 SWAP1 PUSH2 0x486F JUMP JUMPDEST PUSH2 0x3C7A SWAP2 SWAP1 PUSH2 0x486F JUMP JUMPDEST PUSH2 0x3C84 SWAP2 SWAP1 PUSH2 0x486F JUMP JUMPDEST PUSH2 0x3C8E SWAP2 SWAP1 PUSH2 0x4677 JUMP JUMPDEST PUSH2 0x3C98 SWAP2 SWAP1 PUSH2 0x486F JUMP JUMPDEST PUSH2 0x3CA2 SWAP2 SWAP1 PUSH2 0x46CD JUMP JUMPDEST SWAP1 POP SWAP6 SWAP5 POP POP POP POP POP JUMP JUMPDEST PUSH1 0x0 DUP1 PUSH1 0x2 DUP5 PUSH2 0x3CBD SWAP2 SWAP1 PUSH2 0x46CD JUMP JUMPDEST SWAP1 POP PUSH1 0x0 PUSH1 0x2 DUP6 PUSH2 0x3CCE SWAP2 SWAP1 PUSH2 0x46CD JUMP JUMPDEST SWAP1 POP DUP4 PUSH8 0xDE0B6B3A7640000 PUSH2 0x3CE4 SWAP2 SWAP1 PUSH2 0x4677 JUMP JUMPDEST DUP2 DUP3 DUP5 DUP6 PUSH1 0x4 PUSH2 0x3CF4 SWAP2 SWAP1 PUSH2 0x486F JUMP JUMPDEST PUSH2 0x3CFE SWAP2 SWAP1 PUSH2 0x486F JUMP JUMPDEST PUSH2 0x3D08 SWAP2 SWAP1 PUSH2 0x486F JUMP JUMPDEST PUSH2 0x3D12 SWAP2 SWAP1 PUSH2 0x486F JUMP JUMPDEST PUSH2 0x3D1C SWAP2 SWAP1 PUSH2 0x486F JUMP JUMPDEST PUSH8 0xDE0B6B3A7640000 DUP6 DUP4 DUP9 DUP10 DUP11 PUSH2 0x3D34 SWAP2 SWAP1 PUSH2 0x486F JUMP JUMPDEST PUSH2 0x3D3E SWAP2 SWAP1 PUSH2 0x486F JUMP JUMPDEST PUSH2 0x3D48 SWAP2 SWAP1 PUSH2 0x486F JUMP JUMPDEST PUSH2 0x3D52 SWAP2 SWAP1 PUSH2 0x486F JUMP JUMPDEST PUSH2 0x3D5C SWAP2 SWAP1 PUSH2 0x486F JUMP JUMPDEST PUSH15 0xC097CE7BC90715B34B9F1000000000 DUP5 DUP9 DUP10 DUP11 PUSH2 0x3D7A SWAP2 SWAP1 PUSH2 0x486F JUMP JUMPDEST PUSH2 0x3D84 SWAP2 SWAP1 PUSH2 0x486F JUMP JUMPDEST PUSH2 0x3D8E SWAP2 SWAP1 PUSH2 0x486F JUMP JUMPDEST PUSH2 0x3D98 SWAP2 SWAP1 PUSH2 0x486F JUMP JUMPDEST PUSH15 0xC097CE7BC90715B34B9F1000000000 DUP5 DUP6 DUP8 DUP9 PUSH1 0x8 PUSH2 0x3DB8 SWAP2 SWAP1 PUSH2 0x486F JUMP JUMPDEST PUSH2 0x3DC2 SWAP2 SWAP1 PUSH2 0x486F JUMP JUMPDEST PUSH2 0x3DCC SWAP2 SWAP1 PUSH2 0x486F JUMP JUMPDEST PUSH2 0x3DD6 SWAP2 SWAP1 PUSH2 0x486F JUMP JUMPDEST PUSH2 0x3DE0 SWAP2 SWAP1 PUSH2 0x486F JUMP JUMPDEST PUSH2 0x3DEA SWAP2 SWAP1 PUSH2 0x4677 JUMP JUMPDEST PUSH2 0x3DF4 SWAP2 SWAP1 PUSH2 0x48C9 JUMP JUMPDEST PUSH2 0x3DFE SWAP2 SWAP1 PUSH2 0x46CD JUMP JUMPDEST SWAP3 POP POP POP SWAP3 SWAP2 POP POP JUMP JUMPDEST PUSH1 0x0 DUP1 PUSH2 0x3E3E PUSH1 0xB SLOAD PUSH1 0x0 SLOAD PUSH1 0x5 SLOAD PUSH1 0xC SLOAD PUSH1 0x0 SLOAD PUSH8 0x1BC16D674EC80000 PUSH2 0x3E30 SWAP2 SWAP1 PUSH2 0x48C9 JUMP JUMPDEST PUSH1 0x6 SLOAD PUSH1 0x9 SLOAD PUSH1 0xA SLOAD PUSH2 0x40AC JUMP JUMPDEST SWAP1 POP PUSH1 0x1D SLOAD DUP2 PUSH1 0x2 SLOAD PUSH2 0x3E51 SWAP2 SWAP1 PUSH2 0x486F JUMP JUMPDEST PUSH2 0x3E5B SWAP2 SWAP1 PUSH2 0x46CD JUMP JUMPDEST SWAP2 POP POP SWAP1 JUMP JUMPDEST PUSH1 0x0 DUP2 DUP6 PUSH1 0x8 PUSH2 0x3E71 SWAP2 SWAP1 PUSH2 0x486F JUMP JUMPDEST PUSH2 0x3E7B SWAP2 SWAP1 PUSH2 0x486F JUMP JUMPDEST PUSH2 0x3F14 PUSH8 0xDE0B6B3A7640000 DUP6 DUP7 DUP8 PUSH2 0x3E94 SWAP2 SWAP1 PUSH2 0x486F JUMP JUMPDEST PUSH2 0x3E9E SWAP2 SWAP1 PUSH2 0x486F JUMP JUMPDEST PUSH1 0x0 PUSH2 0x3EAA SWAP2 SWAP1 PUSH2 0x48C9 JUMP JUMPDEST DUP6 DUP10 PUSH1 0x10 PUSH2 0x3EB8 SWAP2 SWAP1 PUSH2 0x486F JUMP JUMPDEST PUSH2 0x3EC2 SWAP2 SWAP1 PUSH2 0x486F JUMP JUMPDEST PUSH2 0x3ECC SWAP2 SWAP1 PUSH2 0x486F JUMP JUMPDEST PUSH2 0x3ED6 SWAP2 SWAP1 PUSH2 0x486F JUMP JUMPDEST PUSH1 0x2 DUP6 DUP7 DUP10 PUSH1 0x4 PUSH2 0x3EE7 SWAP2 SWAP1 PUSH2 0x486F JUMP JUMPDEST PUSH2 0x3EF1 SWAP2 SWAP1 PUSH2 0x486F JUMP JUMPDEST PUSH2 0x3EFB SWAP2 SWAP1 PUSH2 0x486F JUMP JUMPDEST PUSH2 0x3F05 SWAP2 SWAP1 PUSH2 0x4751 JUMP JUMPDEST PUSH2 0x3F0F SWAP2 SWAP1 PUSH2 0x48C9 JUMP JUMPDEST PUSH2 0x4032 JUMP JUMPDEST DUP4 DUP5 DUP8 PUSH1 0x4 PUSH2 0x3F23 SWAP2 SWAP1 PUSH2 0x486F JUMP JUMPDEST PUSH2 0x3F2D SWAP2 SWAP1 PUSH2 0x486F JUMP JUMPDEST PUSH2 0x3F37 SWAP2 SWAP1 PUSH2 0x486F JUMP JUMPDEST PUSH1 0x0 PUSH2 0x3F43 SWAP2 SWAP1 PUSH2 0x48C9 JUMP JUMPDEST PUSH2 0x3F4D SWAP2 SWAP1 PUSH2 0x4677 JUMP JUMPDEST PUSH2 0x3F57 SWAP2 SWAP1 PUSH2 0x46CD JUMP JUMPDEST SWAP1 POP SWAP5 SWAP4 POP POP POP POP JUMP JUMPDEST PUSH1 0x0 DUP3 DUP5 PUSH2 0x3F6F SWAP2 SWAP1 PUSH2 0x48C9 JUMP JUMPDEST PUSH8 0xDE0B6B3A7640000 DUP5 PUSH1 0x2 PUSH2 0x3F85 SWAP2 SWAP1 PUSH2 0x486F JUMP JUMPDEST DUP6 DUP8 PUSH1 0x4 DUP8 DUP9 DUP10 PUSH2 0x3F96 SWAP2 SWAP1 PUSH2 0x486F JUMP JUMPDEST PUSH2 0x3FA0 SWAP2 SWAP1 PUSH2 0x486F JUMP JUMPDEST PUSH2 0x3FAA SWAP2 SWAP1 PUSH2 0x46CD JUMP JUMPDEST PUSH2 0x3FB4 SWAP2 SWAP1 PUSH2 0x46CD JUMP JUMPDEST PUSH2 0x3FBE SWAP2 SWAP1 PUSH2 0x46CD JUMP JUMPDEST PUSH2 0x3FC8 SWAP2 SWAP1 PUSH2 0x48C9 JUMP JUMPDEST PUSH2 0x3FD2 SWAP2 SWAP1 PUSH2 0x486F JUMP JUMPDEST PUSH2 0x3FDC SWAP2 SWAP1 PUSH2 0x46CD JUMP JUMPDEST SWAP1 POP SWAP4 SWAP3 POP POP POP JUMP JUMPDEST PUSH1 0x0 DUP2 PUSH2 0xE100 DUP6 DUP6 PUSH2 0x3FF7 SWAP2 SWAP1 PUSH2 0x4677 JUMP JUMPDEST PUSH8 0xDE0B6B3A7640000 DUP8 PUSH2 0x400B SWAP2 SWAP1 PUSH2 0x486F JUMP JUMPDEST PUSH2 0x4015 SWAP2 SWAP1 PUSH2 0x46CD JUMP JUMPDEST PUSH2 0x401F SWAP2 SWAP1 PUSH2 0x46CD JUMP JUMPDEST PUSH2 0x4029 SWAP2 SWAP1 PUSH2 0x4677 JUMP JUMPDEST SWAP1 POP SWAP4 SWAP3 POP POP POP JUMP JUMPDEST PUSH1 0x0 PUSH1 0x3 DUP3 GT ISZERO PUSH2 0x4099 JUMPI DUP2 SWAP1 POP PUSH1 0x0 PUSH1 0x1 PUSH1 0x2 DUP5 PUSH2 0x4051 SWAP2 SWAP1 PUSH2 0x46CD JUMP JUMPDEST PUSH2 0x405B SWAP2 SWAP1 PUSH2 0x4677 JUMP JUMPDEST SWAP1 POP JUMPDEST DUP2 DUP2 LT ISZERO PUSH2 0x4093 JUMPI DUP1 SWAP2 POP PUSH1 0x2 DUP2 DUP3 DUP6 PUSH2 0x4078 SWAP2 SWAP1 PUSH2 0x46CD JUMP JUMPDEST PUSH2 0x4082 SWAP2 SWAP1 PUSH2 0x4677 JUMP JUMPDEST PUSH2 0x408C SWAP2 SWAP1 PUSH2 0x46CD JUMP JUMPDEST SWAP1 POP PUSH2 0x405E JUMP JUMPDEST POP PUSH2 0x40A7 JUMP JUMPDEST PUSH1 0x0 DUP3 EQ PUSH2 0x40A6 JUMPI PUSH1 0x1 SWAP1 POP JUMPDEST JUMPDEST SWAP2 SWAP1 POP JUMP JUMPDEST PUSH1 0x0 PUSH2 0x40FE PUSH2 0x40BF DUP5 DUP11 DUP11 DUP7 DUP11 DUP11 PUSH2 0x410C JUMP JUMPDEST PUSH23 0xA70C3C40A64E6C51999090B65F67D9240000000000000 PUSH2 0x40E5 DUP13 DUP13 DUP13 DUP13 DUP13 DUP13 PUSH2 0x410C JUMP JUMPDEST PUSH2 0x40EF SWAP2 SWAP1 PUSH2 0x486F JUMP JUMPDEST PUSH2 0x40F9 SWAP2 SWAP1 PUSH2 0x46CD JUMP JUMPDEST PUSH2 0x4168 JUMP JUMPDEST SWAP1 POP SWAP9 SWAP8 POP POP POP POP POP POP POP POP JUMP JUMPDEST PUSH1 0x0 DUP4 DUP8 DUP4 DUP6 DUP8 PUSH2 0x411D SWAP2 SWAP1 PUSH2 0x486F JUMP JUMPDEST PUSH2 0x4127 SWAP2 SWAP1 PUSH2 0x486F JUMP JUMPDEST DUP8 DUP10 DUP12 PUSH2 0x4134 SWAP2 SWAP1 PUSH2 0x486F JUMP JUMPDEST PUSH2 0x413E SWAP2 SWAP1 PUSH2 0x486F JUMP JUMPDEST PUSH2 0x4148 SWAP2 SWAP1 PUSH2 0x4677 JUMP JUMPDEST PUSH2 0x4152 SWAP2 SWAP1 PUSH2 0x486F JUMP JUMPDEST PUSH2 0x415C SWAP2 SWAP1 PUSH2 0x486F JUMP JUMPDEST SWAP1 POP SWAP7 SWAP6 POP POP POP POP POP POP JUMP JUMPDEST PUSH1 0x0 PUSH1 0x8 DUP3 GT ISZERO PUSH2 0x41E6 JUMPI DUP2 SWAP1 POP PUSH1 0x0 PUSH1 0x1 PUSH1 0x3 DUP5 PUSH2 0x4187 SWAP2 SWAP1 PUSH2 0x46CD JUMP JUMPDEST PUSH2 0x4191 SWAP2 SWAP1 PUSH2 0x4677 JUMP JUMPDEST SWAP1 POP JUMPDEST DUP2 DUP2 LT ISZERO PUSH2 0x41E0 JUMPI DUP1 SWAP2 POP PUSH1 0x3 DUP2 PUSH1 0x2 PUSH2 0x41AE SWAP2 SWAP1 PUSH2 0x486F JUMP JUMPDEST DUP3 DUP4 PUSH2 0x41BA SWAP2 SWAP1 PUSH2 0x486F JUMP JUMPDEST DUP6 PUSH2 0x41C5 SWAP2 SWAP1 PUSH2 0x46CD JUMP JUMPDEST PUSH2 0x41CF SWAP2 SWAP1 PUSH2 0x4677 JUMP JUMPDEST PUSH2 0x41D9 SWAP2 SWAP1 PUSH2 0x46CD JUMP JUMPDEST SWAP1 POP PUSH2 0x4194 JUMP JUMPDEST POP PUSH2 0x41F4 JUMP JUMPDEST PUSH1 0x0 DUP3 EQ PUSH2 0x41F3 JUMPI PUSH1 0x1 SWAP1 POP JUMPDEST JUMPDEST SWAP2 SWAP1 POP JUMP JUMPDEST POP PUSH1 0x0 DUP2 SSTORE PUSH1 0x1 ADD PUSH1 0x0 SWAP1 SSTORE JUMP JUMPDEST PUSH1 0x0 DUP2 CALLDATALOAD SWAP1 POP PUSH2 0x4216 DUP2 PUSH2 0x4A76 JUMP JUMPDEST SWAP3 SWAP2 POP POP JUMP JUMPDEST PUSH1 0x0 DUP2 CALLDATALOAD SWAP1 POP PUSH2 0x422B DUP2 PUSH2 0x4A8D JUMP JUMPDEST SWAP3 SWAP2 POP POP JUMP JUMPDEST PUSH1 0x0 DUP2 MLOAD SWAP1 POP PUSH2 0x4240 DUP2 PUSH2 0x4A8D JUMP JUMPDEST SWAP3 SWAP2 POP POP JUMP JUMPDEST PUSH1 0x0 DUP2 CALLDATALOAD SWAP1 POP PUSH2 0x4255 DUP2 PUSH2 0x4AA4 JUMP JUMPDEST SWAP3 SWAP2 POP POP JUMP JUMPDEST PUSH1 0x0 DUP1 PUSH1 0x40 DUP4 DUP6 SUB SLT ISZERO PUSH2 0x4272 JUMPI PUSH2 0x4271 PUSH2 0x4A12 JUMP JUMPDEST JUMPDEST PUSH1 0x0 PUSH2 0x4280 DUP6 DUP3 DUP7 ADD PUSH2 0x4207 JUMP JUMPDEST SWAP3 POP POP PUSH1 0x20 PUSH2 0x4291 DUP6 DUP3 DUP7 ADD PUSH2 0x4207 JUMP JUMPDEST SWAP2 POP POP SWAP3 POP SWAP3 SWAP1 POP JUMP JUMPDEST PUSH1 0x0 DUP1 PUSH1 0x0 DUP1 PUSH1 0x80 DUP6 DUP8 SUB SLT ISZERO PUSH2 0x42B5 JUMPI PUSH2 0x42B4 PUSH2 0x4A12 JUMP JUMPDEST JUMPDEST PUSH1 0x0 PUSH2 0x42C3 DUP8 DUP3 DUP9 ADD PUSH2 0x4207 JUMP JUMPDEST SWAP5 POP POP PUSH1 0x20 PUSH2 0x42D4 DUP8 DUP3 DUP9 ADD PUSH2 0x4207 JUMP JUMPDEST SWAP4 POP POP PUSH1 0x40 PUSH2 0x42E5 DUP8 DUP3 DUP9 ADD PUSH2 0x4207 JUMP JUMPDEST SWAP3 POP POP PUSH1 0x60 PUSH2 0x42F6 DUP8 DUP3 DUP9 ADD PUSH2 0x4246 JUMP JUMPDEST SWAP2 POP POP SWAP3 SWAP6 SWAP2 SWAP5 POP SWAP3 POP JUMP JUMPDEST PUSH1 0x0 DUP1 PUSH1 0x40 DUP4 DUP6 SUB SLT ISZERO PUSH2 0x4319 JUMPI PUSH2 0x4318 PUSH2 0x4A12 JUMP JUMPDEST JUMPDEST PUSH1 0x0 PUSH2 0x4327 DUP6 DUP3 DUP7 ADD PUSH2 0x4207 JUMP JUMPDEST SWAP3 POP POP PUSH1 0x20 PUSH2 0x4338 DUP6 DUP3 DUP7 ADD PUSH2 0x421C JUMP JUMPDEST SWAP2 POP POP SWAP3 POP SWAP3 SWAP1 POP JUMP JUMPDEST PUSH1 0x0 DUP1 PUSH1 0x40 DUP4 DUP6 SUB SLT ISZERO PUSH2 0x4359 JUMPI PUSH2 0x4358 PUSH2 0x4A12 JUMP JUMPDEST JUMPDEST PUSH1 0x0 PUSH2 0x4367 DUP6 DUP3 DUP7 ADD PUSH2 0x4207 JUMP JUMPDEST SWAP3 POP POP PUSH1 0x20 PUSH2 0x4378 DUP6 DUP3 DUP7 ADD PUSH2 0x4246 JUMP JUMPDEST SWAP2 POP POP SWAP3 POP SWAP3 SWAP1 POP JUMP JUMPDEST PUSH1 0x0 PUSH1 0x20 DUP3 DUP5 SUB SLT ISZERO PUSH2 0x4398 JUMPI PUSH2 0x4397 PUSH2 0x4A12 JUMP JUMPDEST JUMPDEST PUSH1 0x0 PUSH2 0x43A6 DUP5 DUP3 DUP6 ADD PUSH2 0x4231 JUMP JUMPDEST SWAP2 POP POP SWAP3 SWAP2 POP POP JUMP JUMPDEST PUSH1 0x0 PUSH1 0x20 DUP3 DUP5 SUB SLT ISZERO PUSH2 0x43C5 JUMPI PUSH2 0x43C4 PUSH2 0x4A12 JUMP JUMPDEST JUMPDEST PUSH1 0x0 PUSH2 0x43D3 DUP5 DUP3 DUP6 ADD PUSH2 0x4246 JUMP JUMPDEST SWAP2 POP POP SWAP3 SWAP2 POP POP JUMP JUMPDEST PUSH1 0x0 DUP1 PUSH1 0x0 PUSH1 0x60 DUP5 DUP7 SUB SLT ISZERO PUSH2 0x43F5 JUMPI PUSH2 0x43F4 PUSH2 0x4A12 JUMP JUMPDEST JUMPDEST PUSH1 0x0 PUSH2 0x4403 DUP7 DUP3 DUP8 ADD PUSH2 0x4246 JUMP JUMPDEST SWAP4 POP POP PUSH1 0x20 PUSH2 0x4414 DUP7 DUP3 DUP8 ADD PUSH2 0x4246 JUMP JUMPDEST SWAP3 POP POP PUSH1 0x40 PUSH2 0x4425 DUP7 DUP3 DUP8 ADD PUSH2 0x4207 JUMP JUMPDEST SWAP2 POP POP SWAP3 POP SWAP3 POP SWAP3 JUMP JUMPDEST PUSH1 0x0 DUP1 PUSH1 0x0 DUP1 PUSH1 0x80 DUP6 DUP8 SUB SLT ISZERO PUSH2 0x4449 JUMPI PUSH2 0x4448 PUSH2 0x4A12 JUMP JUMPDEST JUMPDEST PUSH1 0x0 PUSH2 0x4457 DUP8 DUP3 DUP9 ADD PUSH2 0x4246 JUMP JUMPDEST SWAP5 POP POP PUSH1 0x20 PUSH2 0x4468 DUP8 DUP3 DUP9 ADD PUSH2 0x4246 JUMP JUMPDEST SWAP4 POP POP PUSH1 0x40 PUSH2 0x4479 DUP8 DUP3 DUP9 ADD PUSH2 0x421C JUMP JUMPDEST SWAP3 POP POP PUSH1 0x60 PUSH2 0x448A DUP8 DUP3 DUP9 ADD PUSH2 0x4207 JUMP JUMPDEST SWAP2 POP POP SWAP3 SWAP6 SWAP2 SWAP5 POP SWAP3 POP JUMP JUMPDEST PUSH2 0x449F DUP2 PUSH2 0x48FD JUMP JUMPDEST DUP3 MSTORE POP POP JUMP JUMPDEST PUSH2 0x44AE DUP2 PUSH2 0x490F JUMP JUMPDEST DUP3 MSTORE POP POP JUMP JUMPDEST PUSH1 0x0 PUSH2 0x44BF DUP3 PUSH2 0x4650 JUMP JUMPDEST PUSH2 0x44C9 DUP2 DUP6 PUSH2 0x465B JUMP JUMPDEST SWAP4 POP PUSH2 0x44D9 DUP2 DUP6 PUSH1 0x20 DUP7 ADD PUSH2 0x4952 JUMP JUMPDEST DUP1 DUP5 ADD SWAP2 POP POP SWAP3 SWAP2 POP POP JUMP JUMPDEST PUSH1 0x0 PUSH2 0x44F2 PUSH1 0xF DUP4 PUSH2 0x4666 JUMP JUMPDEST SWAP2 POP PUSH2 0x44FD DUP3 PUSH2 0x4A24 JUMP JUMPDEST PUSH1 0x20 DUP3 ADD SWAP1 POP SWAP2 SWAP1 POP JUMP JUMPDEST PUSH1 0x0 PUSH2 0x4515 PUSH1 0x6 DUP4 PUSH2 0x4666 JUMP JUMPDEST SWAP2 POP PUSH2 0x4520 DUP3 PUSH2 0x4A4D JUMP JUMPDEST PUSH1 0x20 DUP3 ADD SWAP1 POP SWAP2 SWAP1 POP JUMP JUMPDEST PUSH2 0x4534 DUP2 PUSH2 0x493B JUMP JUMPDEST DUP3 MSTORE POP POP JUMP JUMPDEST PUSH1 0x0 PUSH2 0x4546 DUP3 DUP5 PUSH2 0x44B4 JUMP JUMPDEST SWAP2 POP DUP2 SWAP1 POP SWAP3 SWAP2 POP POP JUMP JUMPDEST PUSH1 0x0 PUSH1 0x20 DUP3 ADD SWAP1 POP PUSH2 0x4566 PUSH1 0x0 DUP4 ADD DUP5 PUSH2 0x4496 JUMP JUMPDEST SWAP3 SWAP2 POP POP JUMP JUMPDEST PUSH1 0x0 PUSH1 0x80 DUP3 ADD SWAP1 POP PUSH2 0x4581 PUSH1 0x0 DUP4 ADD DUP8 PUSH2 0x4496 JUMP JUMPDEST PUSH2 0x458E PUSH1 0x20 DUP4 ADD DUP7 PUSH2 0x44A5 JUMP JUMPDEST PUSH2 0x459B PUSH1 0x40 DUP4 ADD DUP6 PUSH2 0x452B JUMP JUMPDEST PUSH2 0x45A8 PUSH1 0x60 DUP4 ADD DUP5 PUSH2 0x452B JUMP JUMPDEST SWAP6 SWAP5 POP POP POP POP POP JUMP JUMPDEST PUSH1 0x0 PUSH1 0x40 DUP3 ADD SWAP1 POP PUSH2 0x45C6 PUSH1 0x0 DUP4 ADD DUP6 PUSH2 0x4496 JUMP JUMPDEST PUSH2 0x45D3 PUSH1 0x20 DUP4 ADD DUP5 PUSH2 0x452B JUMP JUMPDEST SWAP4 SWAP3 POP POP POP JUMP JUMPDEST PUSH1 0x0 PUSH1 0x20 DUP3 ADD SWAP1 POP PUSH2 0x45EF PUSH1 0x0 DUP4 ADD DUP5 PUSH2 0x44A5 JUMP JUMPDEST SWAP3 SWAP2 POP POP JUMP JUMPDEST PUSH1 0x0 PUSH1 0x20 DUP3 ADD SWAP1 POP DUP2 DUP2 SUB PUSH1 0x0 DUP4 ADD MSTORE PUSH2 0x460E DUP2 PUSH2 0x44E5 JUMP JUMPDEST SWAP1 POP SWAP2 SWAP1 POP JUMP JUMPDEST PUSH1 0x0 PUSH1 0x20 DUP3 ADD SWAP1 POP DUP2 DUP2 SUB PUSH1 0x0 DUP4 ADD MSTORE PUSH2 0x462E DUP2 PUSH2 0x4508 JUMP JUMPDEST SWAP1 POP SWAP2 SWAP1 POP JUMP JUMPDEST PUSH1 0x0 PUSH1 0x20 DUP3 ADD SWAP1 POP PUSH2 0x464A PUSH1 0x0 DUP4 ADD DUP5 PUSH2 0x452B JUMP JUMPDEST SWAP3 SWAP2 POP POP JUMP JUMPDEST PUSH1 0x0 DUP2 MLOAD SWAP1 POP SWAP2 SWAP1 POP JUMP JUMPDEST PUSH1 0x0 DUP2 SWAP1 POP SWAP3 SWAP2 POP POP JUMP JUMPDEST PUSH1 0x0 DUP3 DUP3 MSTORE PUSH1 0x20 DUP3 ADD SWAP1 POP SWAP3 SWAP2 POP POP JUMP JUMPDEST PUSH1 0x0 PUSH2 0x4682 DUP3 PUSH2 0x493B JUMP JUMPDEST SWAP2 POP PUSH2 0x468D DUP4 PUSH2 0x493B JUMP JUMPDEST SWAP3 POP DUP3 PUSH32 0xFFFFFFFFFFFFFFFFFFFFFFFFFFFFFFFFFFFFFFFFFFFFFFFFFFFFFFFFFFFFFFFF SUB DUP3 GT ISZERO PUSH2 0x46C2 JUMPI PUSH2 0x46C1 PUSH2 0x4985 JUMP JUMPDEST JUMPDEST DUP3 DUP3 ADD SWAP1 POP SWAP3 SWAP2 POP POP JUMP JUMPDEST PUSH1 0x0 PUSH2 0x46D8 DUP3 PUSH2 0x493B JUMP JUMPDEST SWAP2 POP PUSH2 0x46E3 DUP4 PUSH2 0x493B JUMP JUMPDEST SWAP3 POP DUP3 PUSH2 0x46F3 JUMPI PUSH2 0x46F2 PUSH2 0x49B4 JUMP JUMPDEST JUMPDEST DUP3 DUP3 DIV SWAP1 POP SWAP3 SWAP2 POP POP JUMP JUMPDEST PUSH1 0x0 DUP1 DUP3 SWAP2 POP DUP4 SWAP1 POP JUMPDEST PUSH1 0x1 DUP6 GT ISZERO PUSH2 0x4748 JUMPI DUP1 DUP7 DIV DUP2 GT ISZERO PUSH2 0x4724 JUMPI PUSH2 0x4723 PUSH2 0x4985 JUMP JUMPDEST JUMPDEST PUSH1 0x1 DUP6 AND ISZERO PUSH2 0x4733 JUMPI DUP1 DUP3 MUL SWAP2 POP JUMPDEST DUP1 DUP2 MUL SWAP1 POP PUSH2 0x4741 DUP6 PUSH2 0x4A17 JUMP JUMPDEST SWAP5 POP PUSH2 0x4708 JUMP JUMPDEST SWAP5 POP SWAP5 SWAP3 POP POP POP JUMP JUMPDEST PUSH1 0x0 PUSH2 0x475C DUP3 PUSH2 0x493B JUMP JUMPDEST SWAP2 POP PUSH2 0x4767 DUP4 PUSH2 0x4945 JUMP JUMPDEST SWAP3 POP PUSH2 0x4794 PUSH32 0xFFFFFFFFFFFFFFFFFFFFFFFFFFFFFFFFFFFFFFFFFFFFFFFFFFFFFFFFFFFFFFFF DUP5 DUP5 PUSH2 0x479C JUMP JUMPDEST SWAP1 POP SWAP3 SWAP2 POP POP JUMP JUMPDEST PUSH1 0x0 DUP3 PUSH2 0x47AC JUMPI PUSH1 0x1 SWAP1 POP PUSH2 0x4868 JUMP JUMPDEST DUP2 PUSH2 0x47BA JUMPI PUSH1 0x0 SWAP1 POP PUSH2 0x4868 JUMP JUMPDEST DUP2 PUSH1 0x1 DUP2 EQ PUSH2 0x47D0 JUMPI PUSH1 0x2 DUP2 EQ PUSH2 0x47DA JUMPI PUSH2 0x4809 JUMP JUMPDEST PUSH1 0x1 SWAP2 POP POP PUSH2 0x4868 JUMP JUMPDEST PUSH1 0xFF DUP5 GT ISZERO PUSH2 0x47EC JUMPI PUSH2 0x47EB PUSH2 0x4985 JUMP JUMPDEST JUMPDEST DUP4 PUSH1 0x2 EXP SWAP2 POP DUP5 DUP3 GT ISZERO PUSH2 0x4803 JUMPI PUSH2 0x4802 PUSH2 0x4985 JUMP JUMPDEST JUMPDEST POP PUSH2 0x4868 JUMP JUMPDEST POP PUSH1 0x20 DUP4 LT PUSH2 0x133 DUP4 LT AND PUSH1 0x4E DUP5 LT PUSH1 0xB DUP5 LT AND OR ISZERO PUSH2 0x483E JUMPI DUP3 DUP3 EXP SWAP1 POP DUP4 DUP2 GT ISZERO PUSH2 0x4839 JUMPI PUSH2 0x4838 PUSH2 0x4985 JUMP JUMPDEST JUMPDEST PUSH2 0x4868 JUMP JUMPDEST PUSH2 0x484B DUP5 DUP5 DUP5 PUSH1 0x1 PUSH2 0x46FE JUMP JUMPDEST SWAP3 POP SWAP1 POP DUP2 DUP5 DIV DUP2 GT ISZERO PUSH2 0x4862 JUMPI PUSH2 0x4861 PUSH2 0x4985 JUMP JUMPDEST JUMPDEST DUP2 DUP2 MUL SWAP1 POP JUMPDEST SWAP4 SWAP3 POP POP POP JUMP JUMPDEST PUSH1 0x0 PUSH2 0x487A DUP3 PUSH2 0x493B JUMP JUMPDEST SWAP2 POP PUSH2 0x4885 DUP4 PUSH2 0x493B JUMP JUMPDEST SWAP3 POP DUP2 PUSH32 0xFFFFFFFFFFFFFFFFFFFFFFFFFFFFFFFFFFFFFFFFFFFFFFFFFFFFFFFFFFFFFFFF DIV DUP4 GT DUP3 ISZERO ISZERO AND ISZERO PUSH2 0x48BE JUMPI PUSH2 0x48BD PUSH2 0x4985 JUMP JUMPDEST JUMPDEST DUP3 DUP3 MUL SWAP1 POP SWAP3 SWAP2 POP POP JUMP JUMPDEST PUSH1 0x0 PUSH2 0x48D4 DUP3 PUSH2 0x493B JUMP JUMPDEST SWAP2 POP PUSH2 0x48DF DUP4 PUSH2 0x493B JUMP JUMPDEST SWAP3 POP DUP3 DUP3 LT ISZERO PUSH2 0x48F2 JUMPI PUSH2 0x48F1 PUSH2 0x4985 JUMP JUMPDEST JUMPDEST DUP3 DUP3 SUB SWAP1 POP SWAP3 SWAP2 POP POP JUMP JUMPDEST PUSH1 0x0 PUSH2 0x4908 DUP3 PUSH2 0x491B JUMP JUMPDEST SWAP1 POP SWAP2 SWAP1 POP JUMP JUMPDEST PUSH1 0x0 DUP2 ISZERO ISZERO SWAP1 POP SWAP2 SWAP1 POP JUMP JUMPDEST PUSH1 0x0 PUSH20 0xFFFFFFFFFFFFFFFFFFFFFFFFFFFFFFFFFFFFFFFF DUP3 AND SWAP1 POP SWAP2 SWAP1 POP JUMP JUMPDEST PUSH1 0x0 DUP2 SWAP1 POP SWAP2 SWAP1 POP JUMP JUMPDEST PUSH1 0x0 PUSH1 0xFF DUP3 AND SWAP1 POP SWAP2 SWAP1 POP JUMP JUMPDEST PUSH1 0x0 JUMPDEST DUP4 DUP2 LT ISZERO PUSH2 0x4970 JUMPI DUP1 DUP3 ADD MLOAD DUP2 DUP5 ADD MSTORE PUSH1 0x20 DUP2 ADD SWAP1 POP PUSH2 0x4955 JUMP JUMPDEST DUP4 DUP2 GT ISZERO PUSH2 0x497F JUMPI PUSH1 0x0 DUP5 DUP5 ADD MSTORE JUMPDEST POP POP POP POP JUMP JUMPDEST PUSH32 0x4E487B7100000000000000000000000000000000000000000000000000000000 PUSH1 0x0 MSTORE PUSH1 0x11 PUSH1 0x4 MSTORE PUSH1 0x24 PUSH1 0x0 REVERT JUMPDEST PUSH32 0x4E487B7100000000000000000000000000000000000000000000000000000000 PUSH1 0x0 MSTORE PUSH1 0x12 PUSH1 0x4 MSTORE PUSH1 0x24 PUSH1 0x0 REVERT JUMPDEST PUSH32 0x4E487B7100000000000000000000000000000000000000000000000000000000 PUSH1 0x0 MSTORE PUSH1 0x32 PUSH1 0x4 MSTORE PUSH1 0x24 PUSH1 0x0 REVERT JUMPDEST PUSH1 0x0 DUP1 REVERT JUMPDEST PUSH1 0x0 DUP2 PUSH1 0x1 SHR SWAP1 POP SWAP2 SWAP1 POP JUMP JUMPDEST PUSH32 0x5452414E534645525F4641494C45440000000000000000000000000000000000 PUSH1 0x0 DUP3 ADD MSTORE POP JUMP JUMPDEST PUSH32 0x4C4F434B45440000000000000000000000000000000000000000000000000000 PUSH1 0x0 DUP3 ADD MSTORE POP JUMP JUMPDEST PUSH2 0x4A7F DUP2 PUSH2 0x48FD JUMP JUMPDEST DUP2 EQ PUSH2 0x4A8A JUMPI PUSH1 0x0 DUP1 REVERT JUMPDEST POP JUMP JUMPDEST PUSH2 0x4A96 DUP2 PUSH2 0x490F JUMP JUMPDEST DUP2 EQ PUSH2 0x4AA1 JUMPI PUSH1 0x0 DUP1 REVERT JUMPDEST POP JUMP JUMPDEST PUSH2 0x4AAD DUP2 PUSH2 0x493B JUMP JUMPDEST DUP2 EQ PUSH2 0x4AB8 JUMPI PUSH1 0x0 DUP1 REVERT JUMPDEST POP JUMP INVALID LOG2 PUSH5 0x6970667358 0x22 SLT KECCAK256 0xDA GASPRICE SGT 0xDA 0xDB 0xBD DUP8 0x4E PUSH3 0x2802DF 0x27 DUP14 0x2E 0xBF 0xAF PUSH1 0xE6 0x2F PUSH16 0x9284B70DE20352A17C0C0A64736F6C63 NUMBER STOP ADDMOD SMOD STOP CALLER "
		},
		"gasEstimates": {
			"creation": {
				"codeDepositCost": "3837000",
				"executionCost": "72833",
				"totalCost": "3909833"
			},
			"external": {
				"B()": "2563",
				"D()": "2520",
				"D0()": "2517",
				"_addr()": "2648",
				"baserate()": "2473",
				"const18()": "2475",
				"coordX()": "2563",
				"coordY()": "2541",
				"debtIndex(address,bool)": "infinite",
				"factory()": "2581",
				"getpX()": "2540",
				"getpY()": "2540",
				"lastFunding()": "2583",
				"lastFundingTime()": "2541",
				"lastPayingSide()": "2582",
				"leverageMax()": "2562",
				"liquidate(address,address)": "infinite",
				"liquidationBonus()": "2562",
				"liquidationRate()": "2518",
				"marginIndex(address,uint256)": "infinite",
				"marginLeverage()": "2495",
				"marginReserve(uint256)": "infinite",
				"peqX()": "2474",
				"peqY()": "2496",
				"perpBiopen(uint256,uint256,address)": "infinite",
				"perpClose(uint256,uint256,address)": "infinite",
				"perpFee()": "2519",
				"perpOpen(uint256,uint256,bool,address)": "infinite",
				"priceLocal()": "2475",
				"swapFee()": "2497",
				"tickrange()": "2561",
				"tokenX()": "2649",
				"tokenY()": "2647",
				"totalDebtX()": "2584",
				"totalDebtY()": "2474",
				"totalDebttokenX()": "2497",
				"totalDebttokenY()": "2476",
				"totalLiquidity()": "2542",
				"trueLiquidX()": "2584",
				"trueLiquidX0()": "2496",
				"trueLiquidY()": "2475",
				"trueLiquidY0()": "2584",
				"twoWhite()": "2561",
				"upperFunding8H()": "2518",
				"withdrawMargin(address,address,address,uint256)": "infinite"
			},
			"internal": {
				"_refreshTotalbook()": "infinite",
				"_safeTransfer(address,address,uint256)": "infinite",
				"_tradeXToY(uint256,bool,uint256)": "infinite",
				"_tradeYToX(uint256,bool,uint256)": "infinite",
				"_virtualLiquidityUpdate()": "infinite",
				"netDebt(address)": "infinite",
				"netMargin(address)": "infinite",
				"netPosition(address)": "infinite"
			}
		},
		"methodIdentifiers": {
			"B()": "32e7c5bf",
			"D()": "0f529ba2",
			"D0()": "f738c74e",
			"_addr()": "62ab1a77",
			"baserate()": "ef0348fd",
			"const18()": "7e11939a",
			"coordX()": "8ca63e6f",
			"coordY()": "8c4008e9",
			"debtIndex(address,bool)": "2c4426ad",
			"factory()": "c45a0155",
			"getpX()": "77fef068",
			"getpY()": "d873fa7b",
			"lastFunding()": "fcbc49a0",
			"lastFundingTime()": "321d7fa9",
			"lastPayingSide()": "a79e6f9c",
			"leverageMax()": "e07b877a",
			"liquidate(address,address)": "86b9d81f",
			"liquidationBonus()": "7b7c1f4c",
			"liquidationRate()": "a71e8644",
			"marginIndex(address,uint256)": "367401db",
			"marginLeverage()": "f13c7aed",
			"marginReserve(uint256)": "0e449559",
			"peqX()": "be6571aa",
			"peqY()": "a37b1918",
			"perpBiopen(uint256,uint256,address)": "f8bcf560",
			"perpClose(uint256,uint256,address)": "617d3b90",
			"perpFee()": "5784c8c4",
			"perpOpen(uint256,uint256,bool,address)": "748f00dc",
			"priceLocal()": "29baf8d9",
			"swapFee()": "54cf2aeb",
			"tickrange()": "f92e82b0",
			"tokenX()": "16dc165b",
			"tokenY()": "b7d19fc4",
			"totalDebtX()": "7bb62450",
			"totalDebtY()": "a01fbbf5",
			"totalDebttokenX()": "803042ac",
			"totalDebttokenY()": "0751a6c8",
			"totalLiquidity()": "15770f92",
			"trueLiquidX()": "b868504b",
			"trueLiquidX0()": "713370fc",
			"trueLiquidY()": "5091fadd",
			"trueLiquidY0()": "e159394f",
			"twoWhite()": "31fa66b2",
			"upperFunding8H()": "c556c363",
			"withdrawMargin(address,address,address,uint256)": "6bf8be75"
		}
	},
	"abi": [
		{
			"inputs": [],
			"name": "B",
			"outputs": [
				{
					"internalType": "uint256",
					"name": "",
					"type": "uint256"
				}
			],
			"stateMutability": "view",
			"type": "function"
		},
		{
			"inputs": [],
			"name": "D",
			"outputs": [
				{
					"internalType": "uint256",
					"name": "",
					"type": "uint256"
				}
			],
			"stateMutability": "view",
			"type": "function"
		},
		{
			"inputs": [],
			"name": "D0",
			"outputs": [
				{
					"internalType": "uint256",
					"name": "",
					"type": "uint256"
				}
			],
			"stateMutability": "view",
			"type": "function"
		},
		{
			"inputs": [],
			"name": "_addr",
			"outputs": [
				{
					"internalType": "address",
					"name": "",
					"type": "address"
				}
			],
			"stateMutability": "view",
			"type": "function"
		},
		{
			"inputs": [],
			"name": "baserate",
			"outputs": [
				{
					"internalType": "uint256",
					"name": "",
					"type": "uint256"
				}
			],
			"stateMutability": "view",
			"type": "function"
		},
		{
			"inputs": [],
			"name": "const18",
			"outputs": [
				{
					"internalType": "uint256",
					"name": "",
					"type": "uint256"
				}
			],
			"stateMutability": "view",
			"type": "function"
		},
		{
			"inputs": [],
			"name": "coordX",
			"outputs": [
				{
					"internalType": "uint256",
					"name": "",
					"type": "uint256"
				}
			],
			"stateMutability": "view",
			"type": "function"
		},
		{
			"inputs": [],
			"name": "coordY",
			"outputs": [
				{
					"internalType": "uint256",
					"name": "",
					"type": "uint256"
				}
			],
			"stateMutability": "view",
			"type": "function"
		},
		{
			"inputs": [
				{
					"internalType": "address",
					"name": "",
					"type": "address"
				},
				{
					"internalType": "bool",
					"name": "",
					"type": "bool"
				}
			],
			"name": "debtIndex",
			"outputs": [
				{
					"internalType": "address",
					"name": "user_ID",
					"type": "address"
				},
				{
					"internalType": "bool",
					"name": "token_ID",
					"type": "bool"
				},
				{
					"internalType": "uint256",
					"name": "debttokenAmount",
					"type": "uint256"
				},
				{
					"internalType": "uint256",
					"name": "positionAmount",
					"type": "uint256"
				}
			],
			"stateMutability": "view",
			"type": "function"
		},
		{
			"inputs": [],
			"name": "factory",
			"outputs": [
				{
					"internalType": "address",
					"name": "",
					"type": "address"
				}
			],
			"stateMutability": "view",
			"type": "function"
		},
		{
			"inputs": [],
			"name": "getpX",
			"outputs": [
				{
					"internalType": "uint256",
					"name": "",
					"type": "uint256"
				}
			],
			"stateMutability": "view",
			"type": "function"
		},
		{
			"inputs": [],
			"name": "getpY",
			"outputs": [
				{
					"internalType": "uint256",
					"name": "",
					"type": "uint256"
				}
			],
			"stateMutability": "view",
			"type": "function"
		},
		{
			"inputs": [],
			"name": "lastFunding",
			"outputs": [
				{
					"internalType": "uint256",
					"name": "",
					"type": "uint256"
				}
			],
			"stateMutability": "view",
			"type": "function"
		},
		{
			"inputs": [],
			"name": "lastFundingTime",
			"outputs": [
				{
					"internalType": "uint256",
					"name": "",
					"type": "uint256"
				}
			],
			"stateMutability": "view",
			"type": "function"
		},
		{
			"inputs": [],
			"name": "lastPayingSide",
			"outputs": [
				{
					"internalType": "bool",
					"name": "",
					"type": "bool"
				}
			],
			"stateMutability": "view",
			"type": "function"
		},
		{
			"inputs": [],
			"name": "leverageMax",
			"outputs": [
				{
					"internalType": "uint256",
					"name": "",
					"type": "uint256"
				}
			],
			"stateMutability": "view",
			"type": "function"
		},
		{
			"inputs": [
				{
					"internalType": "address",
					"name": "userID",
					"type": "address"
				},
				{
					"internalType": "address",
					"name": "_to",
					"type": "address"
				}
			],
			"name": "liquidate",
			"outputs": [],
			"stateMutability": "nonpayable",
			"type": "function"
		},
		{
			"inputs": [],
			"name": "liquidationBonus",
			"outputs": [
				{
					"internalType": "uint256",
					"name": "",
					"type": "uint256"
				}
			],
			"stateMutability": "view",
			"type": "function"
		},
		{
			"inputs": [],
			"name": "liquidationRate",
			"outputs": [
				{
					"internalType": "uint256",
					"name": "",
					"type": "uint256"
				}
			],
			"stateMutability": "view",
			"type": "function"
		},
		{
			"inputs": [
				{
					"internalType": "address",
					"name": "",
					"type": "address"
				},
				{
					"internalType": "uint256",
					"name": "",
					"type": "uint256"
				}
			],
			"name": "marginIndex",
			"outputs": [
				{
					"internalType": "uint256",
					"name": "",
					"type": "uint256"
				}
			],
			"stateMutability": "view",
			"type": "function"
		},
		{
			"inputs": [],
			"name": "marginLeverage",
			"outputs": [
				{
					"internalType": "uint256",
					"name": "",
					"type": "uint256"
				}
			],
			"stateMutability": "view",
			"type": "function"
		},
		{
			"inputs": [
				{
					"internalType": "uint256",
					"name": "",
					"type": "uint256"
				}
			],
			"name": "marginReserve",
			"outputs": [
				{
					"internalType": "uint256",
					"name": "",
					"type": "uint256"
				}
			],
			"stateMutability": "view",
			"type": "function"
		},
		{
			"inputs": [],
			"name": "peqX",
			"outputs": [
				{
					"internalType": "uint256",
					"name": "",
					"type": "uint256"
				}
			],
			"stateMutability": "view",
			"type": "function"
		},
		{
			"inputs": [],
			"name": "peqY",
			"outputs": [
				{
					"internalType": "uint256",
					"name": "",
					"type": "uint256"
				}
			],
			"stateMutability": "view",
			"type": "function"
		},
		{
			"inputs": [
				{
					"internalType": "uint256",
					"name": "deltaX",
					"type": "uint256"
				},
				{
					"internalType": "uint256",
					"name": "deltaY",
					"type": "uint256"
				},
				{
					"internalType": "address",
					"name": "userID",
					"type": "address"
				}
			],
			"name": "perpBiopen",
			"outputs": [],
			"stateMutability": "nonpayable",
			"type": "function"
		},
		{
			"inputs": [
				{
					"internalType": "uint256",
					"name": "deltaX",
					"type": "uint256"
				},
				{
					"internalType": "uint256",
					"name": "deltaY",
					"type": "uint256"
				},
				{
					"internalType": "address",
					"name": "userID",
					"type": "address"
				}
			],
			"name": "perpClose",
			"outputs": [],
			"stateMutability": "nonpayable",
			"type": "function"
		},
		{
			"inputs": [],
			"name": "perpFee",
			"outputs": [
				{
					"internalType": "uint256",
					"name": "",
					"type": "uint256"
				}
			],
			"stateMutability": "view",
			"type": "function"
		},
		{
			"inputs": [
				{
					"internalType": "uint256",
					"name": "deltaX",
					"type": "uint256"
				},
				{
					"internalType": "uint256",
					"name": "deltaY",
					"type": "uint256"
				},
				{
					"internalType": "bool",
					"name": "XtoY",
					"type": "bool"
				},
				{
					"internalType": "address",
					"name": "userID",
					"type": "address"
				}
			],
			"name": "perpOpen",
			"outputs": [],
			"stateMutability": "nonpayable",
			"type": "function"
		},
		{
			"inputs": [],
			"name": "priceLocal",
			"outputs": [
				{
					"internalType": "uint256",
					"name": "",
					"type": "uint256"
				}
			],
			"stateMutability": "view",
			"type": "function"
		},
		{
			"inputs": [],
			"name": "swapFee",
			"outputs": [
				{
					"internalType": "uint256",
					"name": "",
					"type": "uint256"
				}
			],
			"stateMutability": "view",
			"type": "function"
		},
		{
			"inputs": [],
			"name": "tickrange",
			"outputs": [
				{
					"internalType": "uint256",
					"name": "",
					"type": "uint256"
				}
			],
			"stateMutability": "view",
			"type": "function"
		},
		{
			"inputs": [],
			"name": "tokenX",
			"outputs": [
				{
					"internalType": "address",
					"name": "",
					"type": "address"
				}
			],
			"stateMutability": "view",
			"type": "function"
		},
		{
			"inputs": [],
			"name": "tokenY",
			"outputs": [
				{
					"internalType": "address",
					"name": "",
					"type": "address"
				}
			],
			"stateMutability": "view",
			"type": "function"
		},
		{
			"inputs": [],
			"name": "totalDebtX",
			"outputs": [
				{
					"internalType": "uint256",
					"name": "",
					"type": "uint256"
				}
			],
			"stateMutability": "view",
			"type": "function"
		},
		{
			"inputs": [],
			"name": "totalDebtY",
			"outputs": [
				{
					"internalType": "uint256",
					"name": "",
					"type": "uint256"
				}
			],
			"stateMutability": "view",
			"type": "function"
		},
		{
			"inputs": [],
			"name": "totalDebttokenX",
			"outputs": [
				{
					"internalType": "uint256",
					"name": "",
					"type": "uint256"
				}
			],
			"stateMutability": "view",
			"type": "function"
		},
		{
			"inputs": [],
			"name": "totalDebttokenY",
			"outputs": [
				{
					"internalType": "uint256",
					"name": "",
					"type": "uint256"
				}
			],
			"stateMutability": "view",
			"type": "function"
		},
		{
			"inputs": [],
			"name": "totalLiquidity",
			"outputs": [
				{
					"internalType": "uint256",
					"name": "",
					"type": "uint256"
				}
			],
			"stateMutability": "view",
			"type": "function"
		},
		{
			"inputs": [],
			"name": "trueLiquidX",
			"outputs": [
				{
					"internalType": "uint256",
					"name": "",
					"type": "uint256"
				}
			],
			"stateMutability": "view",
			"type": "function"
		},
		{
			"inputs": [],
			"name": "trueLiquidX0",
			"outputs": [
				{
					"internalType": "uint256",
					"name": "",
					"type": "uint256"
				}
			],
			"stateMutability": "view",
			"type": "function"
		},
		{
			"inputs": [],
			"name": "trueLiquidY",
			"outputs": [
				{
					"internalType": "uint256",
					"name": "",
					"type": "uint256"
				}
			],
			"stateMutability": "view",
			"type": "function"
		},
		{
			"inputs": [],
			"name": "trueLiquidY0",
			"outputs": [
				{
					"internalType": "uint256",
					"name": "",
					"type": "uint256"
				}
			],
			"stateMutability": "view",
			"type": "function"
		},
		{
			"inputs": [],
			"name": "twoWhite",
			"outputs": [
				{
					"internalType": "bool",
					"name": "",
					"type": "bool"
				}
			],
			"stateMutability": "view",
			"type": "function"
		},
		{
			"inputs": [],
			"name": "upperFunding8H",
			"outputs": [
				{
					"internalType": "uint256",
					"name": "",
					"type": "uint256"
				}
			],
			"stateMutability": "view",
			"type": "function"
		},
		{
			"inputs": [
				{
					"internalType": "address",
					"name": "userID",
					"type": "address"
				},
				{
					"internalType": "address",
					"name": "tokenID",
					"type": "address"
				},
				{
					"internalType": "address",
					"name": "to",
					"type": "address"
				},
				{
					"internalType": "uint256",
					"name": "amount",
					"type": "uint256"
				}
			],
			"name": "withdrawMargin",
			"outputs": [],
			"stateMutability": "nonpayable",
			"type": "function"
		}
	]
}