{
	"data": {
		"bytecode": {
			"linkReferences": {},
			"object": "6080604052670de0b6b3a76400006022556001602a553480156200002257600080fd5b5060004690507f8b73c3c69bb8fe3d512ecc4cf759cc79239f7b179b0ffacaa9a75d522b39400f6040518060400160405280600a81526020017f556e697377617020563200000000000000000000000000000000000000000000815250805190602001206040518060400160405280600181526020017f3100000000000000000000000000000000000000000000000000000000000000815250805190602001208330604051602001620000db95949392919062000172565b604051602081830303815290604052805190602001206003819055505033601c60006101000a81548173ffffffffffffffffffffffffffffffffffffffff021916908373ffffffffffffffffffffffffffffffffffffffff16021790555062000217565b6200014a81620001cf565b82525050565b6200015b81620001e3565b82525050565b6200016c816200020d565b82525050565b600060a08201905062000189600083018862000150565b62000198602083018762000150565b620001a7604083018662000150565b620001b6606083018562000161565b620001c560808301846200013f565b9695505050505050565b6000620001dc82620001ed565b9050919050565b6000819050919050565b600073ffffffffffffffffffffffffffffffffffffffff82169050919050565b6000819050919050565b61491680620002276000396000f3fe608060405234801561001057600080fd5b50600436106104335760003560e01c80637e11939a11610236578063b868504b1161013b578063e07b877a116100c3578063f13c7aed11610087578063f13c7aed14610cd6578063f738c74e14610cf4578063f92e82b014610d12578063fcbc49a014610d30578063fdcfc3ef14610d4e57610433565b8063e07b877a14610c44578063e0ba722314610c62578063e159394f14610c7e578063eeea909f14610c9c578063ef0348fd14610cb857610433565b8063c556c3631161010a578063c556c36314610ba0578063d505accf14610bbe578063d873fa7b14610bda578063db35944f14610bf8578063dd62ed3e14610c1457610433565b8063b868504b14610b2a578063bc25cf7714610b48578063be6571aa14610b64578063c45a015514610b8257610433565b80639f1d0f59116101be578063a79e6f9c1161018d578063a79e6f9c14610a86578063a9059cbb14610aa4578063ade446d214610ad4578063b66179de14610af0578063b7d19fc414610b0c57610433565b80639f1d0f5914610a10578063a01fbbf514610a2c578063a37b191814610a4a578063a71e864414610a6857610433565b806387b21efc1161020557806387b21efc1461096a5780638c4008e91461099a5780638ca63e6f146109b857806395d89b41146109d65780639cc8df77146109f457610433565b80637e11939a146108cd5780637e401aca146108eb5780637ecebe001461091c578063803042ac1461094c57610433565b806332e7c5bf1161033c5780635784c8c4116102c4578063713370fc11610293578063713370fc1461083957806377fef068146108575780637b7c1f4c146108755780637bb1128a146108935780637bb62450146108af57610433565b80635784c8c4146107b157806357fb25cc146107cf57806362ab1a77146107eb57806370a082311461080957610433565b80633fbb0e9b1161030b5780633fbb0e9b146107215780634582b9881461073d5780634bac6c47146107595780635091fadd1461077557806354cf2aeb1461079357610433565b806332e7c5bf1461069957806334e19907146106b75780633644e515146106d3578063367401db146106f157610433565b806328842d4f116103bf5780632f1d98421161038e5780632f1d98421461060557806330adf81f14610621578063313ce5671461063f57806331fa66b21461065d578063321d7fa91461067b57610433565b806328842d4f1461057c57806329baf8d9146105985780632c4426ad146105b65780632dafca56146105e957610433565b80630f529ba2116104065780630f529ba2146104d457806315770f92146104f257806316dc165b1461051057806318160ddd1461052e57806323b872dd1461054c57610433565b806306fdde03146104385780630751a6c814610456578063095ea7b3146104745780630e449559146104a4575b600080fd5b610440610d6a565b60405161044d91906140cb565b60405180910390f35b61045e610da3565b60405161046b91906141ad565b60405180910390f35b61048e60048036038101906104899190613aa8565b610da9565b60405161049b9190613fef565b60405180910390f35b6104be60048036038101906104b99190613b95565b610dc0565b6040516104cb91906141ad565b60405180910390f35b6104dc610ddb565b6040516104e991906141ad565b60405180910390f35b6104fa610de1565b60405161050791906141ad565b60405180910390f35b610518610de7565b6040516105259190613ef8565b60405180910390f35b610536610e0d565b60405161054391906141ad565b60405180910390f35b610566600480360381019061056191906138f8565b610e13565b6040516105739190613fef565b60405180910390f35b61059660048036038101906105919190613b95565b610fc0565b005b6105a0611024565b6040516105ad91906141ad565b60405180910390f35b6105d060048036038101906105cb9190613a68565b61102a565b6040516105e09493929190613f81565b60405180910390f35b61060360048036038101906105fe9190613b3b565b611094565b005b61061f600480360381019061061a9190613b95565b61110b565b005b61062961116f565b604051610636919061400a565b60405180910390f35b610647611196565b60405161065491906142db565b60405180910390f35b61066561119b565b6040516106729190613fef565b60405180910390f35b6106836111ae565b60405161069091906141ad565b60405180910390f35b6106a16111b4565b6040516106ae91906141ad565b60405180910390f35b6106d160048036038101906106cc9190613b95565b6111ba565b005b6106db61121e565b6040516106e8919061400a565b60405180910390f35b61070b60048036038101906107069190613aa8565b611224565b60405161071891906141ad565b60405180910390f35b61073b60048036038101906107369190613851565b61124c565b005b61075760048036038101906107529190613b95565b611400565b005b610773600480360381019061076e9190613c82565b611464565b005b61077d6115e3565b60405161078a91906141ad565b60405180910390f35b61079b6115e9565b6040516107a891906141ad565b60405180910390f35b6107b96115ef565b6040516107c691906141ad565b60405180910390f35b6107e960048036038101906107e4919061394b565b6115f5565b005b6107f3611780565b6040516108009190613ef8565b60405180910390f35b610823600480360381019061081e9190613824565b6117a6565b60405161083091906141ad565b60405180910390f35b6108416117be565b60405161084e91906141ad565b60405180910390f35b61085f6117c4565b60405161086c91906141ad565b60405180910390f35b61087d6117ca565b60405161088a91906141ad565b60405180910390f35b6108ad60048036038101906108a89190613b95565b6117d0565b005b6108b7611834565b6040516108c491906141ad565b60405180910390f35b6108d561183a565b6040516108e291906141ad565b60405180910390f35b61090560048036038101906109009190613bef565b611840565b604051610913929190614236565b60405180910390f35b61093660048036038101906109319190613824565b6119b3565b60405161094391906141ad565b60405180910390f35b6109546119cb565b60405161096191906141ad565b60405180910390f35b610984600480360381019061097f9190613c2f565b6119d1565b60405161099191906141ad565b60405180910390f35b6109a2611ad8565b6040516109af91906141ad565b60405180910390f35b6109c0611ade565b6040516109cd91906141ad565b60405180910390f35b6109de611ae4565b6040516109eb91906140cb565b60405180910390f35b610a0e6004803603810190610a099190613b95565b611b1d565b005b610a2a6004803603810190610a259190613ae8565b611b81565b005b610a3461205b565b604051610a4191906141ad565b60405180910390f35b610a52612061565b604051610a5f91906141ad565b60405180910390f35b610a70612067565b604051610a7d91906141ad565b60405180910390f35b610a8e61206d565b604051610a9b9190613fef565b60405180910390f35b610abe6004803603810190610ab99190613aa8565b612080565b604051610acb9190613fef565b60405180910390f35b610aee6004803603810190610ae99190613b95565b612097565b005b610b0a6004803603810190610b059190613b95565b6120fb565b005b610b1461215f565b604051610b219190613ef8565b60405180910390f35b610b32612185565b604051610b3f91906141ad565b60405180910390f35b610b626004803603810190610b5d9190613824565b61218b565b005b610b6c6123ed565b604051610b7991906141ad565b60405180910390f35b610b8a6123f3565b604051610b979190613ef8565b60405180910390f35b610ba8612419565b604051610bb591906141ad565b60405180910390f35b610bd86004803603810190610bd391906139c6565b61241f565b005b610be2612647565b604051610bef91906141ad565b60405180910390f35b610c126004803603810190610c0d9190613851565b61264d565b005b610c2e6004803603810190610c299190613851565b6127c6565b604051610c3b91906141ad565b60405180910390f35b610c4c6127eb565b604051610c5991906141ad565b60405180910390f35b610c7c6004803603810190610c779190613891565b6127f1565b005b610c86612970565b604051610c9391906141ad565b60405180910390f35b610cb66004803603810190610cb19190613c2f565b612976565b005b610cc0612af2565b604051610ccd91906141ad565b60405180910390f35b610cde612af8565b604051610ceb91906141ad565b60405180910390f35b610cfc612afe565b604051610d0991906141ad565b60405180910390f35b610d1a612b04565b604051610d2791906141ad565b60405180910390f35b610d38612b0a565b604051610d4591906141ad565b60405180910390f35b610d686004803603810190610d639190613824565b612b10565b005b6040518060400160405280600a81526020017f556e69737761702056320000000000000000000000000000000000000000000081525081565b60165481565b6000610db6338484612bae565b6001905092915050565b602b8160028110610dd057600080fd5b016000915090505481565b60065481565b60205481565b601d60009054906101000a900473ffffffffffffffffffffffffffffffffffffffff1681565b60005481565b6000610101600260008673ffffffffffffffffffffffffffffffffffffffff1673ffffffffffffffffffffffffffffffffffffffff16815260200190815260200160002060003373ffffffffffffffffffffffffffffffffffffffff1673ffffffffffffffffffffffffffffffffffffffff1681526020019081526020016000205414610faa57610f2982600260008773ffffffffffffffffffffffffffffffffffffffff1673ffffffffffffffffffffffffffffffffffffffff16815260200190815260200160002060003373ffffffffffffffffffffffffffffffffffffffff1673ffffffffffffffffffffffffffffffffffffffff16815260200190815260200160002054612c9990919063ffffffff16565b600260008673ffffffffffffffffffffffffffffffffffffffff1673ffffffffffffffffffffffffffffffffffffffff16815260200190815260200160002060003373ffffffffffffffffffffffffffffffffffffffff1673ffffffffffffffffffffffffffffffffffffffff168152602001908152602001600020819055505b610fb5848484612cf2565b600190509392505050565b601c60009054906101000a900473ffffffffffffffffffffffffffffffffffffffff1673ffffffffffffffffffffffffffffffffffffffff163373ffffffffffffffffffffffffffffffffffffffff161461101a57600080fd5b8060248190555050565b60125481565b602d602052816000526040600020602052806000526040600020600091509150508060000160009054906101000a900473ffffffffffffffffffffffffffffffffffffffff16908060000160149054906101000a900460ff16908060010154908060020154905084565b601c60009054906101000a900473ffffffffffffffffffffffffffffffffffffffff1673ffffffffffffffffffffffffffffffffffffffff163373ffffffffffffffffffffffffffffffffffffffff16146110ee57600080fd5b80602960006101000a81548160ff02191690831515021790555050565b601c60009054906101000a900473ffffffffffffffffffffffffffffffffffffffff1673ffffffffffffffffffffffffffffffffffffffff163373ffffffffffffffffffffffffffffffffffffffff161461116557600080fd5b80601f8190555050565b7f6e71edae12b1b97f4d1f60370fef10105fa2faae0126114a169c64845d6126c960001b81565b601281565b602960009054906101000a900460ff1681565b60195481565b60055481565b601c60009054906101000a900473ffffffffffffffffffffffffffffffffffffffff1673ffffffffffffffffffffffffffffffffffffffff163373ffffffffffffffffffffffffffffffffffffffff161461121457600080fd5b8060278190555050565b60035481565b602e602052816000526040600020816002811061124057600080fd5b01600091509150505481565b60008273ffffffffffffffffffffffffffffffffffffffff166370a08231306040518263ffffffff1660e01b81526004016112879190613ef8565b60206040518083038186803b15801561129f57600080fd5b505afa1580156112b3573d6000803e3d6000fd5b505050506040513d601f19601f820116820180604052508101906112d79190613bc2565b9050600080602360009054906101000a900473ffffffffffffffffffffffffffffffffffffffff1673ffffffffffffffffffffffffffffffffffffffff1683858660405160240161132a939291906141c8565b6040516020818303038152906040527f3b24c6a0000000000000000000000000000000000000000000000000000000007bffffffffffffffffffffffffffffffffffffffffffffffffffffffff19166020820180517bffffffffffffffffffffffffffffffffffffffffffffffffffffffff83818316178352505050506040516113b49190613eaa565b600060405180830381855af49150503d80600081146113ef576040519150601f19603f3d011682016040523d82523d6000602084013e6113f4565b606091505b50915091505050505050565b601c60009054906101000a900473ffffffffffffffffffffffffffffffffffffffff1673ffffffffffffffffffffffffffffffffffffffff163373ffffffffffffffffffffffffffffffffffffffff161461145a57600080fd5b8060288190555050565b6001602a54146114a9576040517f08c379a00000000000000000000000000000000000000000000000000000000081526004016114a09061418d565b60405180910390fd5b6000602a81905550600080602360009054906101000a900473ffffffffffffffffffffffffffffffffffffffff1673ffffffffffffffffffffffffffffffffffffffff16868686866040516024016115049493929190614296565b6040516020818303038152906040527f17dc42ab000000000000000000000000000000000000000000000000000000007bffffffffffffffffffffffffffffffffffffffffffffffffffffffff19166020820180517bffffffffffffffffffffffffffffffffffffffffffffffffffffffff838183161783525050505060405161158e9190613eaa565b600060405180830381855af49150503d80600081146115c9576040519150601f19603f3d011682016040523d82523d6000602084013e6115ce565b606091505b509150915050506001602a8190555050505050565b60115481565b60275481565b60285481565b601c60009054906101000a900473ffffffffffffffffffffffffffffffffffffffff1673ffffffffffffffffffffffffffffffffffffffff163373ffffffffffffffffffffffffffffffffffffffff161461164f57600080fd5b6000828461165d919061452b565b1161166757600080fd5b84601d60006101000a81548173ffffffffffffffffffffffffffffffffffffffff021916908373ffffffffffffffffffffffffffffffffffffffff16021790555083601e60006101000a81548173ffffffffffffffffffffffffffffffffffffffff021916908373ffffffffffffffffffffffffffffffffffffffff160217905550602254600581905550602254600681905550600654600781905550602254602081905550602254600881905550602254600981905550826010819055508160118190555082600260225461173d919061440d565b6117479190614389565b600a8190555081600260225461175d919061440d565b6117679190614389565b600b8190555061177981602254612e86565b5050505050565b602360009054906101000a900473ffffffffffffffffffffffffffffffffffffffff1681565b60016020528060005260406000206000915090505481565b600e5481565b600c5481565b60245481565b601c60009054906101000a900473ffffffffffffffffffffffffffffffffffffffff1673ffffffffffffffffffffffffffffffffffffffff163373ffffffffffffffffffffffffffffffffffffffff161461182a57600080fd5b8060258190555050565b60135481565b60225481565b6000806001602a5414611888576040517f08c379a000000000000000000000000000000000000000000000000000000000815260040161187f9061418d565b60405180910390fd5b6000602a8190555061189f84601054602054612fa0565b91506118b084601154602054612fa0565b90506118ce600854836010546118c69190614585565b601054612fa0565b6008819055506118f0600954826011546118e89190614585565b601154612fa0565b600981905550816010546119049190614585565b601081905550806011546119189190614585565b6011819055508360205461192c9190614585565b60208190555061193c3085612fc2565b611969601d60009054906101000a900473ffffffffffffffffffffffffffffffffffffffff1684846130dc565b611996601e60009054906101000a900473ffffffffffffffffffffffffffffffffffffffff1684836130dc565b61199e613266565b6006819055506001602a819055509250929050565b60046020528060005260406000206000915090505481565b60155481565b60006001602a5414611a18576040517f08c379a0000000000000000000000000000000000000000000000000000000008152600401611a0f9061418d565b60405180910390fd5b6000602a81905550611a3c60085485601054611a349190614333565b601054612fa0565b600881905550611a5e60095484601154611a569190614333565b601154612fa0565b600981905550611a7360205485601054612fa0565b905080602054611a839190614333565b60208190555083601054611a979190614333565b60108190555082601154611aab9190614333565b601181905550611abb8282612e86565b611ac3613266565b6006819055506001602a819055509392505050565b60095481565b60085481565b6040518060400160405280600681526020017f554e492d5632000000000000000000000000000000000000000000000000000081525081565b601c60009054906101000a900473ffffffffffffffffffffffffffffffffffffffff1673ffffffffffffffffffffffffffffffffffffffff163373ffffffffffffffffffffffffffffffffffffffff1614611b7757600080fd5b8060218190555050565b6001602a5414611bc6576040517f08c379a0000000000000000000000000000000000000000000000000000000008152600401611bbd9061418d565b60405180910390fd5b6000602a81905550600082148015611bdf575060115481105b80611bf75750600081148015611bf6575060115482105b5b611c0057600080fd5b6000602b600060028110611c1757611c166146fc565b5b0154601054611c269190614333565b601d60009054906101000a900473ffffffffffffffffffffffffffffffffffffffff1673ffffffffffffffffffffffffffffffffffffffff166370a08231306040518263ffffffff1660e01b8152600401611c819190613ef8565b60206040518083038186803b158015611c9957600080fd5b505afa158015611cad573d6000803e3d6000fd5b505050506040513d601f19601f82011682018060405250810190611cd19190613bc2565b611cdb9190614585565b90506000602b600160028110611cf457611cf36146fc565b5b0154601154611d039190614333565b601e60009054906101000a900473ffffffffffffffffffffffffffffffffffffffff1673ffffffffffffffffffffffffffffffffffffffff166370a08231306040518263ffffffff1660e01b8152600401611d5e9190613ef8565b60206040518083038186803b158015611d7657600080fd5b505afa158015611d8a573d6000803e3d6000fd5b505050506040513d601f19601f82011682018060405250810190611dae9190613bc2565b611db89190614585565b90506000821180611dc95750600081115b611dd257600080fd5b670de0b6b3a7640000602754670de0b6b3a7640000611df19190614585565b611dfb9190614389565b82611e06919061452b565b9150670de0b6b3a7640000602754670de0b6b3a7640000611e279190614585565b611e319190614389565b81611e3c919061452b565b90506000841115611ebc57611e8a601e60009054906101000a900473ffffffffffffffffffffffffffffffffffffffff1686611e7a846000896132bf565b84611e859190614585565b6130dc565b611eb7601d60009054906101000a900473ffffffffffffffffffffffffffffffffffffffff1686866130dc565b611fc0565b6000831115611f3a57611f08601d60009054906101000a900473ffffffffffffffffffffffffffffffffffffffff1686611ef885600088613455565b85611f039190614585565b6130dc565b611f35601e60009054906101000a900473ffffffffffffffffffffffffffffffffffffffff1686856130dc565b611fbf565b6000821115611f7c57611f7b601e60009054906101000a900473ffffffffffffffffffffffffffffffffffffffff1686611f7685600080613455565b6130dc565b5b6000811115611fbe57611fbd601d60009054906101000a900473ffffffffffffffffffffffffffffffffffffffff1686611fb8846000806132bf565b6130dc565b5b5b5b602754670de0b6b3a7640000611fd69190614585565b60275483611fe4919061452b565b611fee9190614389565b60106000828254611fff9190614333565b92505081905550602754670de0b6b3a764000061201c9190614585565b6027548261202a919061452b565b6120349190614389565b601160008282546120459190614333565b9250508190555050506001602a81905550505050565b60145481565b600b5481565b60215481565b601a60009054906101000a900460ff1681565b600061208d338484612cf2565b6001905092915050565b601c60009054906101000a900473ffffffffffffffffffffffffffffffffffffffff1673ffffffffffffffffffffffffffffffffffffffff163373ffffffffffffffffffffffffffffffffffffffff16146120f157600080fd5b80601b8190555050565b601c60009054906101000a900473ffffffffffffffffffffffffffffffffffffffff1673ffffffffffffffffffffffffffffffffffffffff163373ffffffffffffffffffffffffffffffffffffffff161461215557600080fd5b8060268190555050565b601e60009054906101000a900473ffffffffffffffffffffffffffffffffffffffff1681565b60105481565b6001602a54146121d0576040517f08c379a00000000000000000000000000000000000000000000000000000000081526004016121c79061418d565b60405180910390fd5b6000602a819055506122dd601d60009054906101000a900473ffffffffffffffffffffffffffffffffffffffff1682602b600060028110612214576122136146fc565b5b01546010546122239190614333565b601d60009054906101000a900473ffffffffffffffffffffffffffffffffffffffff1673ffffffffffffffffffffffffffffffffffffffff166370a08231306040518263ffffffff1660e01b815260040161227e9190613ef8565b60206040518083038186803b15801561229657600080fd5b505afa1580156122aa573d6000803e3d6000fd5b505050506040513d601f19601f820116820180604052508101906122ce9190613bc2565b6122d89190614585565b6130dc565b6123e2601e60009054906101000a900473ffffffffffffffffffffffffffffffffffffffff1682602b600160028110612319576123186146fc565b5b01546011546123289190614333565b601e60009054906101000a900473ffffffffffffffffffffffffffffffffffffffff1673ffffffffffffffffffffffffffffffffffffffff166370a08231306040518263ffffffff1660e01b81526004016123839190613ef8565b60206040518083038186803b15801561239b57600080fd5b505afa1580156123af573d6000803e3d6000fd5b505050506040513d601f19601f820116820180604052508101906123d39190613bc2565b6123dd9190614585565b6130dc565b6001602a8190555050565b600a5481565b601c60009054906101000a900473ffffffffffffffffffffffffffffffffffffffff1681565b601b5481565b42841015612462576040517f08c379a00000000000000000000000000000000000000000000000000000000081526004016124599061414d565b60405180910390fd5b60006003547f6e71edae12b1b97f4d1f60370fef10105fa2faae0126114a169c64845d6126c960001b898989600460008e73ffffffffffffffffffffffffffffffffffffffff1673ffffffffffffffffffffffffffffffffffffffff16815260200190815260200160002060008154809291906124de9061464b565b919050558a6040516020016124f896959493929190614025565b6040516020818303038152906040528051906020012060405160200161251f929190613ec1565b60405160208183030381529060405280519060200120905060006001828686866040516000815260200160405260405161255c9493929190614086565b6020604051602081039080840390855afa15801561257e573d6000803e3d6000fd5b505050602060405103519050600073ffffffffffffffffffffffffffffffffffffffff168173ffffffffffffffffffffffffffffffffffffffff16141580156125f257508873ffffffffffffffffffffffffffffffffffffffff168173ffffffffffffffffffffffffffffffffffffffff16145b612631576040517f08c379a00000000000000000000000000000000000000000000000000000000081526004016126289061410d565b60405180910390fd5b61263c898989612bae565b505050505050505050565b600d5481565b6001602a5414612692576040517f08c379a00000000000000000000000000000000000000000000000000000000081526004016126899061418d565b60405180910390fd5b6000602a81905550600080602360009054906101000a900473ffffffffffffffffffffffffffffffffffffffff1673ffffffffffffffffffffffffffffffffffffffff1684846040516024016126e9929190613f13565b6040516020818303038152906040527fbf3e6a6f000000000000000000000000000000000000000000000000000000007bffffffffffffffffffffffffffffffffffffffffffffffffffffffff19166020820180517bffffffffffffffffffffffffffffffffffffffffffffffffffffffff83818316178352505050506040516127739190613eaa565b600060405180830381855af49150503d80600081146127ae576040519150601f19603f3d011682016040523d82523d6000602084013e6127b3565b606091505b509150915050506001602a819055505050565b6002602052816000526040600020602052806000526040600020600091509150505481565b60175481565b6001602a5414612836576040517f08c379a000000000000000000000000000000000000000000000000000000000815260040161282d9061418d565b60405180910390fd5b6000602a81905550600080602360009054906101000a900473ffffffffffffffffffffffffffffffffffffffff1673ffffffffffffffffffffffffffffffffffffffff16868686866040516024016128919493929190613f3c565b6040516020818303038152906040527f2f0ddf43000000000000000000000000000000000000000000000000000000007bffffffffffffffffffffffffffffffffffffffffffffffffffffffff19166020820180517bffffffffffffffffffffffffffffffffffffffffffffffffffffffff838183161783525050505060405161291b9190613eaa565b600060405180830381855af49150503d8060008114612956576040519150601f19603f3d011682016040523d82523d6000602084013e61295b565b606091505b509150915050506001602a8190555050505050565b600f5481565b6001602a54146129bb576040517f08c379a00000000000000000000000000000000000000000000000000000000081526004016129b29061418d565b60405180910390fd5b6000602a81905550600080602360009054906101000a900473ffffffffffffffffffffffffffffffffffffffff1673ffffffffffffffffffffffffffffffffffffffff16858585604051602401612a149392919061425f565b6040516020818303038152906040527f2e411dca000000000000000000000000000000000000000000000000000000007bffffffffffffffffffffffffffffffffffffffffffffffffffffffff19166020820180517bffffffffffffffffffffffffffffffffffffffffffffffffffffffff8381831617835250505050604051612a9e9190613eaa565b600060405180830381855af49150503d8060008114612ad9576040519150601f19603f3d011682016040523d82523d6000602084013e612ade565b606091505b509150915050506001602a81905550505050565b60265481565b601f5481565b60075481565b60255481565b60185481565b601c60009054906101000a900473ffffffffffffffffffffffffffffffffffffffff1673ffffffffffffffffffffffffffffffffffffffff163373ffffffffffffffffffffffffffffffffffffffff1614612b6a57600080fd5b80602360006101000a81548173ffffffffffffffffffffffffffffffffffffffff021916908373ffffffffffffffffffffffffffffffffffffffff16021790555050565b80600260008573ffffffffffffffffffffffffffffffffffffffff1673ffffffffffffffffffffffffffffffffffffffff16815260200190815260200160002060008473ffffffffffffffffffffffffffffffffffffffff1673ffffffffffffffffffffffffffffffffffffffff168152602001908152602001600020819055508173ffffffffffffffffffffffffffffffffffffffff168373ffffffffffffffffffffffffffffffffffffffff167f8c5be1e5ebec7d5bd14f71427d1e84f3dd0314c0f7b2291e5b200ac8c7c3b92583604051612c8c91906141ad565b60405180910390a3505050565b6000828284612ca89190614585565b9150811115612cec576040517f08c379a0000000000000000000000000000000000000000000000000000000008152600401612ce3906140ed565b60405180910390fd5b92915050565b612d4481600160008673ffffffffffffffffffffffffffffffffffffffff1673ffffffffffffffffffffffffffffffffffffffff16815260200190815260200160002054612c9990919063ffffffff16565b600160008573ffffffffffffffffffffffffffffffffffffffff1673ffffffffffffffffffffffffffffffffffffffff16815260200190815260200160002081905550612dd981600160008573ffffffffffffffffffffffffffffffffffffffff1673ffffffffffffffffffffffffffffffffffffffff168152602001908152602001600020546135eb90919063ffffffff16565b600160008473ffffffffffffffffffffffffffffffffffffffff1673ffffffffffffffffffffffffffffffffffffffff168152602001908152602001600020819055508173ffffffffffffffffffffffffffffffffffffffff168373ffffffffffffffffffffffffffffffffffffffff167fddf252ad1be2c89b69c2b068fc378daa952ba7f163c4a11628f55a4df523b3ef83604051612e7991906141ad565b60405180910390a3505050565b612e9b816000546135eb90919063ffffffff16565b600081905550612ef381600160008573ffffffffffffffffffffffffffffffffffffffff1673ffffffffffffffffffffffffffffffffffffffff168152602001908152602001600020546135eb90919063ffffffff16565b600160008473ffffffffffffffffffffffffffffffffffffffff1673ffffffffffffffffffffffffffffffffffffffff168152602001908152602001600020819055508173ffffffffffffffffffffffffffffffffffffffff16600073ffffffffffffffffffffffffffffffffffffffff167fddf252ad1be2c89b69c2b068fc378daa952ba7f163c4a11628f55a4df523b3ef83604051612f9491906141ad565b60405180910390a35050565b6000818385612faf919061452b565b612fb99190614389565b90509392505050565b61301481600160008573ffffffffffffffffffffffffffffffffffffffff1673ffffffffffffffffffffffffffffffffffffffff16815260200190815260200160002054612c9990919063ffffffff16565b600160008473ffffffffffffffffffffffffffffffffffffffff1673ffffffffffffffffffffffffffffffffffffffff1681526020019081526020016000208190555061306c81600054612c9990919063ffffffff16565b600081905550600073ffffffffffffffffffffffffffffffffffffffff168273ffffffffffffffffffffffffffffffffffffffff167fddf252ad1be2c89b69c2b068fc378daa952ba7f163c4a11628f55a4df523b3ef836040516130d091906141ad565b60405180910390a35050565b6000808473ffffffffffffffffffffffffffffffffffffffff166040518060400160405280601981526020017f7472616e7366657228616464726573732c75696e743235362900000000000000815250805190602001208585604051602401613146929190613fc6565b604051602081830303815290604052907bffffffffffffffffffffffffffffffffffffffffffffffffffffffff19166020820180517bffffffffffffffffffffffffffffffffffffffffffffffffffffffff83818316178352505050506040516131b09190613eaa565b6000604051808303816000865af19150503d80600081146131ed576040519150601f19603f3d011682016040523d82523d6000602084013e6131f2565b606091505b5091509150818015613220575060008151148061321f57508080602001905181019061321e9190613b68565b5b5b61325f576040517f08c379a00000000000000000000000000000000000000000000000000000000081526004016132569061416d565b60405180910390fd5b5050505050565b60008061329c601054600554600a54601154600554671bc16d674ec8000061328e9190614585565b600b54600e54600f54613644565b9050602254816007546132af919061452b565b6132b99190614389565b91505090565b60006001602a5414613306576040517f08c379a00000000000000000000000000000000000000000000000000000000081526004016132fd9061418d565b60405180910390fd5b6000602a81905550600080602360009054906101000a900473ffffffffffffffffffffffffffffffffffffffff1673ffffffffffffffffffffffffffffffffffffffff1686868660405160240161335f939291906141ff565b6040516020818303038152906040527f2618c20e000000000000000000000000000000000000000000000000000000007bffffffffffffffffffffffffffffffffffffffffffffffffffffffff19166020820180517bffffffffffffffffffffffffffffffffffffffffffffffffffffffff83818316178352505050506040516133e99190613eaa565b600060405180830381855af49150503d8060008114613424576040519150601f19603f3d011682016040523d82523d6000602084013e613429565b606091505b5091509150808060200190518101906134429190613bc2565b925050506001602a819055509392505050565b60006001602a541461349c576040517f08c379a00000000000000000000000000000000000000000000000000000000081526004016134939061418d565b60405180910390fd5b6000602a81905550600080602360009054906101000a900473ffffffffffffffffffffffffffffffffffffffff1673ffffffffffffffffffffffffffffffffffffffff168686866040516024016134f5939291906141ff565b6040516020818303038152906040527fda889aaa000000000000000000000000000000000000000000000000000000007bffffffffffffffffffffffffffffffffffffffffffffffffffffffff19166020820180517bffffffffffffffffffffffffffffffffffffffffffffffffffffffff838183161783525050505060405161357f9190613eaa565b600060405180830381855af49150503d80600081146135ba576040519150601f19603f3d011682016040523d82523d6000602084013e6135bf565b606091505b5091509150808060200190518101906135d89190613bc2565b925050506001602a819055509392505050565b60008282846135fa9190614333565b915081101561363e576040517f08c379a00000000000000000000000000000000000000000000000000000000081526004016136359061412d565b60405180910390fd5b92915050565b6000613696613657848a8a868a8a6136a4565b760a70c3c40a64e6c51999090b65f67d924000000000000061367d8c8c8c8c8c8c6136a4565b613687919061452b565b6136919190614389565b613700565b905098975050505050505050565b600083878385876136b5919061452b565b6136bf919061452b565b87898b6136cc919061452b565b6136d6919061452b565b6136e09190614333565b6136ea919061452b565b6136f4919061452b565b90509695505050505050565b6000600882111561377e578190506000600160038461371f9190614389565b6137299190614333565b90505b81811015613778578091506003816002613746919061452b565b8283613752919061452b565b8561375d9190614389565b6137679190614333565b6137719190614389565b905061372c565b5061378c565b6000821461378b57600190505b5b919050565b6000813590506137a08161486d565b92915050565b6000813590506137b581614884565b92915050565b6000815190506137ca81614884565b92915050565b6000813590506137df8161489b565b92915050565b6000813590506137f4816148b2565b92915050565b600081519050613809816148b2565b92915050565b60008135905061381e816148c9565b92915050565b60006020828403121561383a5761383961472b565b5b600061384884828501613791565b91505092915050565b600080604083850312156138685761386761472b565b5b600061387685828601613791565b925050602061388785828601613791565b9150509250929050565b600080600080608085870312156138ab576138aa61472b565b5b60006138b987828801613791565b94505060206138ca87828801613791565b93505060406138db87828801613791565b92505060606138ec878288016137e5565b91505092959194509250565b6000806000606084860312156139115761391061472b565b5b600061391f86828701613791565b935050602061393086828701613791565b9250506040613941868287016137e5565b9150509250925092565b600080600080600060a086880312156139675761396661472b565b5b600061397588828901613791565b955050602061398688828901613791565b9450506040613997888289016137e5565b93505060606139a8888289016137e5565b92505060806139b988828901613791565b9150509295509295909350565b600080600080600080600060e0888a0312156139e5576139e461472b565b5b60006139f38a828b01613791565b9750506020613a048a828b01613791565b9650506040613a158a828b016137e5565b9550506060613a268a828b016137e5565b9450506080613a378a828b0161380f565b93505060a0613a488a828b016137d0565b92505060c0613a598a828b016137d0565b91505092959891949750929550565b60008060408385031215613a7f57613a7e61472b565b5b6000613a8d85828601613791565b9250506020613a9e858286016137a6565b9150509250929050565b60008060408385031215613abf57613abe61472b565b5b6000613acd85828601613791565b9250506020613ade858286016137e5565b9150509250929050565b600080600060608486031215613b0157613b0061472b565b5b6000613b0f86828701613791565b9350506020613b20868287016137e5565b9250506040613b31868287016137e5565b9150509250925092565b600060208284031215613b5157613b5061472b565b5b6000613b5f848285016137a6565b91505092915050565b600060208284031215613b7e57613b7d61472b565b5b6000613b8c848285016137bb565b91505092915050565b600060208284031215613bab57613baa61472b565b5b6000613bb9848285016137e5565b91505092915050565b600060208284031215613bd857613bd761472b565b5b6000613be6848285016137fa565b91505092915050565b60008060408385031215613c0657613c0561472b565b5b6000613c14858286016137e5565b9250506020613c2585828601613791565b9150509250929050565b600080600060608486031215613c4857613c4761472b565b5b6000613c56868287016137e5565b9350506020613c67868287016137e5565b9250506040613c7886828701613791565b9150509250925092565b60008060008060808587031215613c9c57613c9b61472b565b5b6000613caa878288016137e5565b9450506020613cbb878288016137e5565b9350506040613ccc878288016137a6565b9250506060613cdd87828801613791565b91505092959194509250565b613cf2816145b9565b82525050565b613d01816145cb565b82525050565b613d10816145d7565b82525050565b613d27613d22826145d7565b614694565b82525050565b6000613d38826142f6565b613d42818561430c565b9350613d52818560208601614618565b80840191505092915050565b6000613d6982614301565b613d738185614317565b9350613d83818560208601614618565b613d8c81614730565b840191505092915050565b6000613da4601583614317565b9150613daf8261474e565b602082019050919050565b6000613dc7601c83614317565b9150613dd282614777565b602082019050919050565b6000613dea600283614328565b9150613df5826147a0565b600282019050919050565b6000613e0d601483614317565b9150613e18826147c9565b602082019050919050565b6000613e30601283614317565b9150613e3b826147f2565b602082019050919050565b6000613e53600f83614317565b9150613e5e8261481b565b602082019050919050565b6000613e76600683614317565b9150613e8182614844565b602082019050919050565b613e9581614601565b82525050565b613ea48161460b565b82525050565b6000613eb68284613d2d565b915081905092915050565b6000613ecc82613ddd565b9150613ed88285613d16565b602082019150613ee88284613d16565b6020820191508190509392505050565b6000602082019050613f0d6000830184613ce9565b92915050565b6000604082019050613f286000830185613ce9565b613f356020830184613ce9565b9392505050565b6000608082019050613f516000830187613ce9565b613f5e6020830186613ce9565b613f6b6040830185613ce9565b613f786060830184613e8c565b95945050505050565b6000608082019050613f966000830187613ce9565b613fa36020830186613cf8565b613fb06040830185613e8c565b613fbd6060830184613e8c565b95945050505050565b6000604082019050613fdb6000830185613ce9565b613fe86020830184613e8c565b9392505050565b60006020820190506140046000830184613cf8565b92915050565b600060208201905061401f6000830184613d07565b92915050565b600060c08201905061403a6000830189613d07565b6140476020830188613ce9565b6140546040830187613ce9565b6140616060830186613e8c565b61406e6080830185613e8c565b61407b60a0830184613e8c565b979650505050505050565b600060808201905061409b6000830187613d07565b6140a86020830186613e9b565b6140b56040830185613d07565b6140c26060830184613d07565b95945050505050565b600060208201905081810360008301526140e58184613d5e565b905092915050565b6000602082019050818103600083015261410681613d97565b9050919050565b6000602082019050818103600083015261412681613dba565b9050919050565b6000602082019050818103600083015261414681613e00565b9050919050565b6000602082019050818103600083015261416681613e23565b9050919050565b6000602082019050818103600083015261418681613e46565b9050919050565b600060208201905081810360008301526141a681613e69565b9050919050565b60006020820190506141c26000830184613e8c565b92915050565b60006060820190506141dd6000830186613e8c565b6141ea6020830185613ce9565b6141f76040830184613ce9565b949350505050565b60006060820190506142146000830186613e8c565b6142216020830185613cf8565b61422e6040830184613e8c565b949350505050565b600060408201905061424b6000830185613e8c565b6142586020830184613e8c565b9392505050565b60006060820190506142746000830186613e8c565b6142816020830185613e8c565b61428e6040830184613ce9565b949350505050565b60006080820190506142ab6000830187613e8c565b6142b86020830186613e8c565b6142c56040830185613cf8565b6142d26060830184613ce9565b95945050505050565b60006020820190506142f06000830184613e9b565b92915050565b600081519050919050565b600081519050919050565b600081905092915050565b600082825260208201905092915050565b600081905092915050565b600061433e82614601565b915061434983614601565b9250827fffffffffffffffffffffffffffffffffffffffffffffffffffffffffffffffff0382111561437e5761437d61469e565b5b828201905092915050565b600061439482614601565b915061439f83614601565b9250826143af576143ae6146cd565b5b828204905092915050565b6000808291508390505b6001851115614404578086048111156143e0576143df61469e565b5b60018516156143ef5780820291505b80810290506143fd85614741565b94506143c4565b94509492505050565b600061441882614601565b91506144238361460b565b92506144507fffffffffffffffffffffffffffffffffffffffffffffffffffffffffffffffff8484614458565b905092915050565b6000826144685760019050614524565b816144765760009050614524565b816001811461448c5760028114614496576144c5565b6001915050614524565b60ff8411156144a8576144a761469e565b5b8360020a9150848211156144bf576144be61469e565b5b50614524565b5060208310610133831016604e8410600b84101617156144fa5782820a9050838111156144f5576144f461469e565b5b614524565b61450784848460016143ba565b9250905081840481111561451e5761451d61469e565b5b81810290505b9392505050565b600061453682614601565b915061454183614601565b9250817fffffffffffffffffffffffffffffffffffffffffffffffffffffffffffffffff048311821515161561457a5761457961469e565b5b828202905092915050565b600061459082614601565b915061459b83614601565b9250828210156145ae576145ad61469e565b5b828203905092915050565b60006145c4826145e1565b9050919050565b60008115159050919050565b6000819050919050565b600073ffffffffffffffffffffffffffffffffffffffff82169050919050565b6000819050919050565b600060ff82169050919050565b60005b8381101561463657808201518184015260208101905061461b565b83811115614645576000848401525b50505050565b600061465682614601565b91507fffffffffffffffffffffffffffffffffffffffffffffffffffffffffffffffff8214156146895761468861469e565b5b600182019050919050565b6000819050919050565b7f4e487b7100000000000000000000000000000000000000000000000000000000600052601160045260246000fd5b7f4e487b7100000000000000000000000000000000000000000000000000000000600052601260045260246000fd5b7f4e487b7100000000000000000000000000000000000000000000000000000000600052603260045260246000fd5b600080fd5b6000601f19601f8301169050919050565b60008160011c9050919050565b7f64732d6d6174682d7375622d756e646572666c6f770000000000000000000000600082015250565b7f556e697377617056323a20494e56414c49445f5349474e415455524500000000600082015250565b7f1901000000000000000000000000000000000000000000000000000000000000600082015250565b7f64732d6d6174682d6164642d6f766572666c6f77000000000000000000000000600082015250565b7f556e697377617056323a20455850495245440000000000000000000000000000600082015250565b7f5452414e534645525f4641494c45440000000000000000000000000000000000600082015250565b7f4c4f434b45440000000000000000000000000000000000000000000000000000600082015250565b614876816145b9565b811461488157600080fd5b50565b61488d816145cb565b811461489857600080fd5b50565b6148a4816145d7565b81146148af57600080fd5b50565b6148bb81614601565b81146148c657600080fd5b50565b6148d28161460b565b81146148dd57600080fd5b5056fea26469706673582212208e76876362d6ff326f01ff23bc8b4abf77e7ba3d04842c13a33725807aa7508b64736f6c63430008070033",
			"opcodes": "PUSH1 0x80 PUSH1 0x40 MSTORE PUSH8 0xDE0B6B3A7640000 PUSH1 0x22 SSTORE PUSH1 0x1 PUSH1 0x2A SSTORE CALLVALUE DUP1 ISZERO PUSH3 0x22 JUMPI PUSH1 0x0 DUP1 REVERT JUMPDEST POP PUSH1 0x0 CHAINID SWAP1 POP PUSH32 0x8B73C3C69BB8FE3D512ECC4CF759CC79239F7B179B0FFACAA9A75D522B39400F PUSH1 0x40 MLOAD DUP1 PUSH1 0x40 ADD PUSH1 0x40 MSTORE DUP1 PUSH1 0xA DUP2 MSTORE PUSH1 0x20 ADD PUSH32 0x556E697377617020563200000000000000000000000000000000000000000000 DUP2 MSTORE POP DUP1 MLOAD SWAP1 PUSH1 0x20 ADD KECCAK256 PUSH1 0x40 MLOAD DUP1 PUSH1 0x40 ADD PUSH1 0x40 MSTORE DUP1 PUSH1 0x1 DUP2 MSTORE PUSH1 0x20 ADD PUSH32 0x3100000000000000000000000000000000000000000000000000000000000000 DUP2 MSTORE POP DUP1 MLOAD SWAP1 PUSH1 0x20 ADD KECCAK256 DUP4 ADDRESS PUSH1 0x40 MLOAD PUSH1 0x20 ADD PUSH3 0xDB SWAP6 SWAP5 SWAP4 SWAP3 SWAP2 SWAP1 PUSH3 0x172 JUMP JUMPDEST PUSH1 0x40 MLOAD PUSH1 0x20 DUP2 DUP4 SUB SUB DUP2 MSTORE SWAP1 PUSH1 0x40 MSTORE DUP1 MLOAD SWAP1 PUSH1 0x20 ADD KECCAK256 PUSH1 0x3 DUP2 SWAP1 SSTORE POP POP CALLER PUSH1 0x1C PUSH1 0x0 PUSH2 0x100 EXP DUP2 SLOAD DUP2 PUSH20 0xFFFFFFFFFFFFFFFFFFFFFFFFFFFFFFFFFFFFFFFF MUL NOT AND SWAP1 DUP4 PUSH20 0xFFFFFFFFFFFFFFFFFFFFFFFFFFFFFFFFFFFFFFFF AND MUL OR SWAP1 SSTORE POP PUSH3 0x217 JUMP JUMPDEST PUSH3 0x14A DUP2 PUSH3 0x1CF JUMP JUMPDEST DUP3 MSTORE POP POP JUMP JUMPDEST PUSH3 0x15B DUP2 PUSH3 0x1E3 JUMP JUMPDEST DUP3 MSTORE POP POP JUMP JUMPDEST PUSH3 0x16C DUP2 PUSH3 0x20D JUMP JUMPDEST DUP3 MSTORE POP POP JUMP JUMPDEST PUSH1 0x0 PUSH1 0xA0 DUP3 ADD SWAP1 POP PUSH3 0x189 PUSH1 0x0 DUP4 ADD DUP9 PUSH3 0x150 JUMP JUMPDEST PUSH3 0x198 PUSH1 0x20 DUP4 ADD DUP8 PUSH3 0x150 JUMP JUMPDEST PUSH3 0x1A7 PUSH1 0x40 DUP4 ADD DUP7 PUSH3 0x150 JUMP JUMPDEST PUSH3 0x1B6 PUSH1 0x60 DUP4 ADD DUP6 PUSH3 0x161 JUMP JUMPDEST PUSH3 0x1C5 PUSH1 0x80 DUP4 ADD DUP5 PUSH3 0x13F JUMP JUMPDEST SWAP7 SWAP6 POP POP POP POP POP POP JUMP JUMPDEST PUSH1 0x0 PUSH3 0x1DC DUP3 PUSH3 0x1ED JUMP JUMPDEST SWAP1 POP SWAP2 SWAP1 POP JUMP JUMPDEST PUSH1 0x0 DUP2 SWAP1 POP SWAP2 SWAP1 POP JUMP JUMPDEST PUSH1 0x0 PUSH20 0xFFFFFFFFFFFFFFFFFFFFFFFFFFFFFFFFFFFFFFFF DUP3 AND SWAP1 POP SWAP2 SWAP1 POP JUMP JUMPDEST PUSH1 0x0 DUP2 SWAP1 POP SWAP2 SWAP1 POP JUMP JUMPDEST PUSH2 0x4916 DUP1 PUSH3 0x227 PUSH1 0x0 CODECOPY PUSH1 0x0 RETURN INVALID PUSH1 0x80 PUSH1 0x40 MSTORE CALLVALUE DUP1 ISZERO PUSH2 0x10 JUMPI PUSH1 0x0 DUP1 REVERT JUMPDEST POP PUSH1 0x4 CALLDATASIZE LT PUSH2 0x433 JUMPI PUSH1 0x0 CALLDATALOAD PUSH1 0xE0 SHR DUP1 PUSH4 0x7E11939A GT PUSH2 0x236 JUMPI DUP1 PUSH4 0xB868504B GT PUSH2 0x13B JUMPI DUP1 PUSH4 0xE07B877A GT PUSH2 0xC3 JUMPI DUP1 PUSH4 0xF13C7AED GT PUSH2 0x87 JUMPI DUP1 PUSH4 0xF13C7AED EQ PUSH2 0xCD6 JUMPI DUP1 PUSH4 0xF738C74E EQ PUSH2 0xCF4 JUMPI DUP1 PUSH4 0xF92E82B0 EQ PUSH2 0xD12 JUMPI DUP1 PUSH4 0xFCBC49A0 EQ PUSH2 0xD30 JUMPI DUP1 PUSH4 0xFDCFC3EF EQ PUSH2 0xD4E JUMPI PUSH2 0x433 JUMP JUMPDEST DUP1 PUSH4 0xE07B877A EQ PUSH2 0xC44 JUMPI DUP1 PUSH4 0xE0BA7223 EQ PUSH2 0xC62 JUMPI DUP1 PUSH4 0xE159394F EQ PUSH2 0xC7E JUMPI DUP1 PUSH4 0xEEEA909F EQ PUSH2 0xC9C JUMPI DUP1 PUSH4 0xEF0348FD EQ PUSH2 0xCB8 JUMPI PUSH2 0x433 JUMP JUMPDEST DUP1 PUSH4 0xC556C363 GT PUSH2 0x10A JUMPI DUP1 PUSH4 0xC556C363 EQ PUSH2 0xBA0 JUMPI DUP1 PUSH4 0xD505ACCF EQ PUSH2 0xBBE JUMPI DUP1 PUSH4 0xD873FA7B EQ PUSH2 0xBDA JUMPI DUP1 PUSH4 0xDB35944F EQ PUSH2 0xBF8 JUMPI DUP1 PUSH4 0xDD62ED3E EQ PUSH2 0xC14 JUMPI PUSH2 0x433 JUMP JUMPDEST DUP1 PUSH4 0xB868504B EQ PUSH2 0xB2A JUMPI DUP1 PUSH4 0xBC25CF77 EQ PUSH2 0xB48 JUMPI DUP1 PUSH4 0xBE6571AA EQ PUSH2 0xB64 JUMPI DUP1 PUSH4 0xC45A0155 EQ PUSH2 0xB82 JUMPI PUSH2 0x433 JUMP JUMPDEST DUP1 PUSH4 0x9F1D0F59 GT PUSH2 0x1BE JUMPI DUP1 PUSH4 0xA79E6F9C GT PUSH2 0x18D JUMPI DUP1 PUSH4 0xA79E6F9C EQ PUSH2 0xA86 JUMPI DUP1 PUSH4 0xA9059CBB EQ PUSH2 0xAA4 JUMPI DUP1 PUSH4 0xADE446D2 EQ PUSH2 0xAD4 JUMPI DUP1 PUSH4 0xB66179DE EQ PUSH2 0xAF0 JUMPI DUP1 PUSH4 0xB7D19FC4 EQ PUSH2 0xB0C JUMPI PUSH2 0x433 JUMP JUMPDEST DUP1 PUSH4 0x9F1D0F59 EQ PUSH2 0xA10 JUMPI DUP1 PUSH4 0xA01FBBF5 EQ PUSH2 0xA2C JUMPI DUP1 PUSH4 0xA37B1918 EQ PUSH2 0xA4A JUMPI DUP1 PUSH4 0xA71E8644 EQ PUSH2 0xA68 JUMPI PUSH2 0x433 JUMP JUMPDEST DUP1 PUSH4 0x87B21EFC GT PUSH2 0x205 JUMPI DUP1 PUSH4 0x87B21EFC EQ PUSH2 0x96A JUMPI DUP1 PUSH4 0x8C4008E9 EQ PUSH2 0x99A JUMPI DUP1 PUSH4 0x8CA63E6F EQ PUSH2 0x9B8 JUMPI DUP1 PUSH4 0x95D89B41 EQ PUSH2 0x9D6 JUMPI DUP1 PUSH4 0x9CC8DF77 EQ PUSH2 0x9F4 JUMPI PUSH2 0x433 JUMP JUMPDEST DUP1 PUSH4 0x7E11939A EQ PUSH2 0x8CD JUMPI DUP1 PUSH4 0x7E401ACA EQ PUSH2 0x8EB JUMPI DUP1 PUSH4 0x7ECEBE00 EQ PUSH2 0x91C JUMPI DUP1 PUSH4 0x803042AC EQ PUSH2 0x94C JUMPI PUSH2 0x433 JUMP JUMPDEST DUP1 PUSH4 0x32E7C5BF GT PUSH2 0x33C JUMPI DUP1 PUSH4 0x5784C8C4 GT PUSH2 0x2C4 JUMPI DUP1 PUSH4 0x713370FC GT PUSH2 0x293 JUMPI DUP1 PUSH4 0x713370FC EQ PUSH2 0x839 JUMPI DUP1 PUSH4 0x77FEF068 EQ PUSH2 0x857 JUMPI DUP1 PUSH4 0x7B7C1F4C EQ PUSH2 0x875 JUMPI DUP1 PUSH4 0x7BB1128A EQ PUSH2 0x893 JUMPI DUP1 PUSH4 0x7BB62450 EQ PUSH2 0x8AF JUMPI PUSH2 0x433 JUMP JUMPDEST DUP1 PUSH4 0x5784C8C4 EQ PUSH2 0x7B1 JUMPI DUP1 PUSH4 0x57FB25CC EQ PUSH2 0x7CF JUMPI DUP1 PUSH4 0x62AB1A77 EQ PUSH2 0x7EB JUMPI DUP1 PUSH4 0x70A08231 EQ PUSH2 0x809 JUMPI PUSH2 0x433 JUMP JUMPDEST DUP1 PUSH4 0x3FBB0E9B GT PUSH2 0x30B JUMPI DUP1 PUSH4 0x3FBB0E9B EQ PUSH2 0x721 JUMPI DUP1 PUSH4 0x4582B988 EQ PUSH2 0x73D JUMPI DUP1 PUSH4 0x4BAC6C47 EQ PUSH2 0x759 JUMPI DUP1 PUSH4 0x5091FADD EQ PUSH2 0x775 JUMPI DUP1 PUSH4 0x54CF2AEB EQ PUSH2 0x793 JUMPI PUSH2 0x433 JUMP JUMPDEST DUP1 PUSH4 0x32E7C5BF EQ PUSH2 0x699 JUMPI DUP1 PUSH4 0x34E19907 EQ PUSH2 0x6B7 JUMPI DUP1 PUSH4 0x3644E515 EQ PUSH2 0x6D3 JUMPI DUP1 PUSH4 0x367401DB EQ PUSH2 0x6F1 JUMPI PUSH2 0x433 JUMP JUMPDEST DUP1 PUSH4 0x28842D4F GT PUSH2 0x3BF JUMPI DUP1 PUSH4 0x2F1D9842 GT PUSH2 0x38E JUMPI DUP1 PUSH4 0x2F1D9842 EQ PUSH2 0x605 JUMPI DUP1 PUSH4 0x30ADF81F EQ PUSH2 0x621 JUMPI DUP1 PUSH4 0x313CE567 EQ PUSH2 0x63F JUMPI DUP1 PUSH4 0x31FA66B2 EQ PUSH2 0x65D JUMPI DUP1 PUSH4 0x321D7FA9 EQ PUSH2 0x67B JUMPI PUSH2 0x433 JUMP JUMPDEST DUP1 PUSH4 0x28842D4F EQ PUSH2 0x57C JUMPI DUP1 PUSH4 0x29BAF8D9 EQ PUSH2 0x598 JUMPI DUP1 PUSH4 0x2C4426AD EQ PUSH2 0x5B6 JUMPI DUP1 PUSH4 0x2DAFCA56 EQ PUSH2 0x5E9 JUMPI PUSH2 0x433 JUMP JUMPDEST DUP1 PUSH4 0xF529BA2 GT PUSH2 0x406 JUMPI DUP1 PUSH4 0xF529BA2 EQ PUSH2 0x4D4 JUMPI DUP1 PUSH4 0x15770F92 EQ PUSH2 0x4F2 JUMPI DUP1 PUSH4 0x16DC165B EQ PUSH2 0x510 JUMPI DUP1 PUSH4 0x18160DDD EQ PUSH2 0x52E JUMPI DUP1 PUSH4 0x23B872DD EQ PUSH2 0x54C JUMPI PUSH2 0x433 JUMP JUMPDEST DUP1 PUSH4 0x6FDDE03 EQ PUSH2 0x438 JUMPI DUP1 PUSH4 0x751A6C8 EQ PUSH2 0x456 JUMPI DUP1 PUSH4 0x95EA7B3 EQ PUSH2 0x474 JUMPI DUP1 PUSH4 0xE449559 EQ PUSH2 0x4A4 JUMPI JUMPDEST PUSH1 0x0 DUP1 REVERT JUMPDEST PUSH2 0x440 PUSH2 0xD6A JUMP JUMPDEST PUSH1 0x40 MLOAD PUSH2 0x44D SWAP2 SWAP1 PUSH2 0x40CB JUMP JUMPDEST PUSH1 0x40 MLOAD DUP1 SWAP2 SUB SWAP1 RETURN JUMPDEST PUSH2 0x45E PUSH2 0xDA3 JUMP JUMPDEST PUSH1 0x40 MLOAD PUSH2 0x46B SWAP2 SWAP1 PUSH2 0x41AD JUMP JUMPDEST PUSH1 0x40 MLOAD DUP1 SWAP2 SUB SWAP1 RETURN JUMPDEST PUSH2 0x48E PUSH1 0x4 DUP1 CALLDATASIZE SUB DUP2 ADD SWAP1 PUSH2 0x489 SWAP2 SWAP1 PUSH2 0x3AA8 JUMP JUMPDEST PUSH2 0xDA9 JUMP JUMPDEST PUSH1 0x40 MLOAD PUSH2 0x49B SWAP2 SWAP1 PUSH2 0x3FEF JUMP JUMPDEST PUSH1 0x40 MLOAD DUP1 SWAP2 SUB SWAP1 RETURN JUMPDEST PUSH2 0x4BE PUSH1 0x4 DUP1 CALLDATASIZE SUB DUP2 ADD SWAP1 PUSH2 0x4B9 SWAP2 SWAP1 PUSH2 0x3B95 JUMP JUMPDEST PUSH2 0xDC0 JUMP JUMPDEST PUSH1 0x40 MLOAD PUSH2 0x4CB SWAP2 SWAP1 PUSH2 0x41AD JUMP JUMPDEST PUSH1 0x40 MLOAD DUP1 SWAP2 SUB SWAP1 RETURN JUMPDEST PUSH2 0x4DC PUSH2 0xDDB JUMP JUMPDEST PUSH1 0x40 MLOAD PUSH2 0x4E9 SWAP2 SWAP1 PUSH2 0x41AD JUMP JUMPDEST PUSH1 0x40 MLOAD DUP1 SWAP2 SUB SWAP1 RETURN JUMPDEST PUSH2 0x4FA PUSH2 0xDE1 JUMP JUMPDEST PUSH1 0x40 MLOAD PUSH2 0x507 SWAP2 SWAP1 PUSH2 0x41AD JUMP JUMPDEST PUSH1 0x40 MLOAD DUP1 SWAP2 SUB SWAP1 RETURN JUMPDEST PUSH2 0x518 PUSH2 0xDE7 JUMP JUMPDEST PUSH1 0x40 MLOAD PUSH2 0x525 SWAP2 SWAP1 PUSH2 0x3EF8 JUMP JUMPDEST PUSH1 0x40 MLOAD DUP1 SWAP2 SUB SWAP1 RETURN JUMPDEST PUSH2 0x536 PUSH2 0xE0D JUMP JUMPDEST PUSH1 0x40 MLOAD PUSH2 0x543 SWAP2 SWAP1 PUSH2 0x41AD JUMP JUMPDEST PUSH1 0x40 MLOAD DUP1 SWAP2 SUB SWAP1 RETURN JUMPDEST PUSH2 0x566 PUSH1 0x4 DUP1 CALLDATASIZE SUB DUP2 ADD SWAP1 PUSH2 0x561 SWAP2 SWAP1 PUSH2 0x38F8 JUMP JUMPDEST PUSH2 0xE13 JUMP JUMPDEST PUSH1 0x40 MLOAD PUSH2 0x573 SWAP2 SWAP1 PUSH2 0x3FEF JUMP JUMPDEST PUSH1 0x40 MLOAD DUP1 SWAP2 SUB SWAP1 RETURN JUMPDEST PUSH2 0x596 PUSH1 0x4 DUP1 CALLDATASIZE SUB DUP2 ADD SWAP1 PUSH2 0x591 SWAP2 SWAP1 PUSH2 0x3B95 JUMP JUMPDEST PUSH2 0xFC0 JUMP JUMPDEST STOP JUMPDEST PUSH2 0x5A0 PUSH2 0x1024 JUMP JUMPDEST PUSH1 0x40 MLOAD PUSH2 0x5AD SWAP2 SWAP1 PUSH2 0x41AD JUMP JUMPDEST PUSH1 0x40 MLOAD DUP1 SWAP2 SUB SWAP1 RETURN JUMPDEST PUSH2 0x5D0 PUSH1 0x4 DUP1 CALLDATASIZE SUB DUP2 ADD SWAP1 PUSH2 0x5CB SWAP2 SWAP1 PUSH2 0x3A68 JUMP JUMPDEST PUSH2 0x102A JUMP JUMPDEST PUSH1 0x40 MLOAD PUSH2 0x5E0 SWAP5 SWAP4 SWAP3 SWAP2 SWAP1 PUSH2 0x3F81 JUMP JUMPDEST PUSH1 0x40 MLOAD DUP1 SWAP2 SUB SWAP1 RETURN JUMPDEST PUSH2 0x603 PUSH1 0x4 DUP1 CALLDATASIZE SUB DUP2 ADD SWAP1 PUSH2 0x5FE SWAP2 SWAP1 PUSH2 0x3B3B JUMP JUMPDEST PUSH2 0x1094 JUMP JUMPDEST STOP JUMPDEST PUSH2 0x61F PUSH1 0x4 DUP1 CALLDATASIZE SUB DUP2 ADD SWAP1 PUSH2 0x61A SWAP2 SWAP1 PUSH2 0x3B95 JUMP JUMPDEST PUSH2 0x110B JUMP JUMPDEST STOP JUMPDEST PUSH2 0x629 PUSH2 0x116F JUMP JUMPDEST PUSH1 0x40 MLOAD PUSH2 0x636 SWAP2 SWAP1 PUSH2 0x400A JUMP JUMPDEST PUSH1 0x40 MLOAD DUP1 SWAP2 SUB SWAP1 RETURN JUMPDEST PUSH2 0x647 PUSH2 0x1196 JUMP JUMPDEST PUSH1 0x40 MLOAD PUSH2 0x654 SWAP2 SWAP1 PUSH2 0x42DB JUMP JUMPDEST PUSH1 0x40 MLOAD DUP1 SWAP2 SUB SWAP1 RETURN JUMPDEST PUSH2 0x665 PUSH2 0x119B JUMP JUMPDEST PUSH1 0x40 MLOAD PUSH2 0x672 SWAP2 SWAP1 PUSH2 0x3FEF JUMP JUMPDEST PUSH1 0x40 MLOAD DUP1 SWAP2 SUB SWAP1 RETURN JUMPDEST PUSH2 0x683 PUSH2 0x11AE JUMP JUMPDEST PUSH1 0x40 MLOAD PUSH2 0x690 SWAP2 SWAP1 PUSH2 0x41AD JUMP JUMPDEST PUSH1 0x40 MLOAD DUP1 SWAP2 SUB SWAP1 RETURN JUMPDEST PUSH2 0x6A1 PUSH2 0x11B4 JUMP JUMPDEST PUSH1 0x40 MLOAD PUSH2 0x6AE SWAP2 SWAP1 PUSH2 0x41AD JUMP JUMPDEST PUSH1 0x40 MLOAD DUP1 SWAP2 SUB SWAP1 RETURN JUMPDEST PUSH2 0x6D1 PUSH1 0x4 DUP1 CALLDATASIZE SUB DUP2 ADD SWAP1 PUSH2 0x6CC SWAP2 SWAP1 PUSH2 0x3B95 JUMP JUMPDEST PUSH2 0x11BA JUMP JUMPDEST STOP JUMPDEST PUSH2 0x6DB PUSH2 0x121E JUMP JUMPDEST PUSH1 0x40 MLOAD PUSH2 0x6E8 SWAP2 SWAP1 PUSH2 0x400A JUMP JUMPDEST PUSH1 0x40 MLOAD DUP1 SWAP2 SUB SWAP1 RETURN JUMPDEST PUSH2 0x70B PUSH1 0x4 DUP1 CALLDATASIZE SUB DUP2 ADD SWAP1 PUSH2 0x706 SWAP2 SWAP1 PUSH2 0x3AA8 JUMP JUMPDEST PUSH2 0x1224 JUMP JUMPDEST PUSH1 0x40 MLOAD PUSH2 0x718 SWAP2 SWAP1 PUSH2 0x41AD JUMP JUMPDEST PUSH1 0x40 MLOAD DUP1 SWAP2 SUB SWAP1 RETURN JUMPDEST PUSH2 0x73B PUSH1 0x4 DUP1 CALLDATASIZE SUB DUP2 ADD SWAP1 PUSH2 0x736 SWAP2 SWAP1 PUSH2 0x3851 JUMP JUMPDEST PUSH2 0x124C JUMP JUMPDEST STOP JUMPDEST PUSH2 0x757 PUSH1 0x4 DUP1 CALLDATASIZE SUB DUP2 ADD SWAP1 PUSH2 0x752 SWAP2 SWAP1 PUSH2 0x3B95 JUMP JUMPDEST PUSH2 0x1400 JUMP JUMPDEST STOP JUMPDEST PUSH2 0x773 PUSH1 0x4 DUP1 CALLDATASIZE SUB DUP2 ADD SWAP1 PUSH2 0x76E SWAP2 SWAP1 PUSH2 0x3C82 JUMP JUMPDEST PUSH2 0x1464 JUMP JUMPDEST STOP JUMPDEST PUSH2 0x77D PUSH2 0x15E3 JUMP JUMPDEST PUSH1 0x40 MLOAD PUSH2 0x78A SWAP2 SWAP1 PUSH2 0x41AD JUMP JUMPDEST PUSH1 0x40 MLOAD DUP1 SWAP2 SUB SWAP1 RETURN JUMPDEST PUSH2 0x79B PUSH2 0x15E9 JUMP JUMPDEST PUSH1 0x40 MLOAD PUSH2 0x7A8 SWAP2 SWAP1 PUSH2 0x41AD JUMP JUMPDEST PUSH1 0x40 MLOAD DUP1 SWAP2 SUB SWAP1 RETURN JUMPDEST PUSH2 0x7B9 PUSH2 0x15EF JUMP JUMPDEST PUSH1 0x40 MLOAD PUSH2 0x7C6 SWAP2 SWAP1 PUSH2 0x41AD JUMP JUMPDEST PUSH1 0x40 MLOAD DUP1 SWAP2 SUB SWAP1 RETURN JUMPDEST PUSH2 0x7E9 PUSH1 0x4 DUP1 CALLDATASIZE SUB DUP2 ADD SWAP1 PUSH2 0x7E4 SWAP2 SWAP1 PUSH2 0x394B JUMP JUMPDEST PUSH2 0x15F5 JUMP JUMPDEST STOP JUMPDEST PUSH2 0x7F3 PUSH2 0x1780 JUMP JUMPDEST PUSH1 0x40 MLOAD PUSH2 0x800 SWAP2 SWAP1 PUSH2 0x3EF8 JUMP JUMPDEST PUSH1 0x40 MLOAD DUP1 SWAP2 SUB SWAP1 RETURN JUMPDEST PUSH2 0x823 PUSH1 0x4 DUP1 CALLDATASIZE SUB DUP2 ADD SWAP1 PUSH2 0x81E SWAP2 SWAP1 PUSH2 0x3824 JUMP JUMPDEST PUSH2 0x17A6 JUMP JUMPDEST PUSH1 0x40 MLOAD PUSH2 0x830 SWAP2 SWAP1 PUSH2 0x41AD JUMP JUMPDEST PUSH1 0x40 MLOAD DUP1 SWAP2 SUB SWAP1 RETURN JUMPDEST PUSH2 0x841 PUSH2 0x17BE JUMP JUMPDEST PUSH1 0x40 MLOAD PUSH2 0x84E SWAP2 SWAP1 PUSH2 0x41AD JUMP JUMPDEST PUSH1 0x40 MLOAD DUP1 SWAP2 SUB SWAP1 RETURN JUMPDEST PUSH2 0x85F PUSH2 0x17C4 JUMP JUMPDEST PUSH1 0x40 MLOAD PUSH2 0x86C SWAP2 SWAP1 PUSH2 0x41AD JUMP JUMPDEST PUSH1 0x40 MLOAD DUP1 SWAP2 SUB SWAP1 RETURN JUMPDEST PUSH2 0x87D PUSH2 0x17CA JUMP JUMPDEST PUSH1 0x40 MLOAD PUSH2 0x88A SWAP2 SWAP1 PUSH2 0x41AD JUMP JUMPDEST PUSH1 0x40 MLOAD DUP1 SWAP2 SUB SWAP1 RETURN JUMPDEST PUSH2 0x8AD PUSH1 0x4 DUP1 CALLDATASIZE SUB DUP2 ADD SWAP1 PUSH2 0x8A8 SWAP2 SWAP1 PUSH2 0x3B95 JUMP JUMPDEST PUSH2 0x17D0 JUMP JUMPDEST STOP JUMPDEST PUSH2 0x8B7 PUSH2 0x1834 JUMP JUMPDEST PUSH1 0x40 MLOAD PUSH2 0x8C4 SWAP2 SWAP1 PUSH2 0x41AD JUMP JUMPDEST PUSH1 0x40 MLOAD DUP1 SWAP2 SUB SWAP1 RETURN JUMPDEST PUSH2 0x8D5 PUSH2 0x183A JUMP JUMPDEST PUSH1 0x40 MLOAD PUSH2 0x8E2 SWAP2 SWAP1 PUSH2 0x41AD JUMP JUMPDEST PUSH1 0x40 MLOAD DUP1 SWAP2 SUB SWAP1 RETURN JUMPDEST PUSH2 0x905 PUSH1 0x4 DUP1 CALLDATASIZE SUB DUP2 ADD SWAP1 PUSH2 0x900 SWAP2 SWAP1 PUSH2 0x3BEF JUMP JUMPDEST PUSH2 0x1840 JUMP JUMPDEST PUSH1 0x40 MLOAD PUSH2 0x913 SWAP3 SWAP2 SWAP1 PUSH2 0x4236 JUMP JUMPDEST PUSH1 0x40 MLOAD DUP1 SWAP2 SUB SWAP1 RETURN JUMPDEST PUSH2 0x936 PUSH1 0x4 DUP1 CALLDATASIZE SUB DUP2 ADD SWAP1 PUSH2 0x931 SWAP2 SWAP1 PUSH2 0x3824 JUMP JUMPDEST PUSH2 0x19B3 JUMP JUMPDEST PUSH1 0x40 MLOAD PUSH2 0x943 SWAP2 SWAP1 PUSH2 0x41AD JUMP JUMPDEST PUSH1 0x40 MLOAD DUP1 SWAP2 SUB SWAP1 RETURN JUMPDEST PUSH2 0x954 PUSH2 0x19CB JUMP JUMPDEST PUSH1 0x40 MLOAD PUSH2 0x961 SWAP2 SWAP1 PUSH2 0x41AD JUMP JUMPDEST PUSH1 0x40 MLOAD DUP1 SWAP2 SUB SWAP1 RETURN JUMPDEST PUSH2 0x984 PUSH1 0x4 DUP1 CALLDATASIZE SUB DUP2 ADD SWAP1 PUSH2 0x97F SWAP2 SWAP1 PUSH2 0x3C2F JUMP JUMPDEST PUSH2 0x19D1 JUMP JUMPDEST PUSH1 0x40 MLOAD PUSH2 0x991 SWAP2 SWAP1 PUSH2 0x41AD JUMP JUMPDEST PUSH1 0x40 MLOAD DUP1 SWAP2 SUB SWAP1 RETURN JUMPDEST PUSH2 0x9A2 PUSH2 0x1AD8 JUMP JUMPDEST PUSH1 0x40 MLOAD PUSH2 0x9AF SWAP2 SWAP1 PUSH2 0x41AD JUMP JUMPDEST PUSH1 0x40 MLOAD DUP1 SWAP2 SUB SWAP1 RETURN JUMPDEST PUSH2 0x9C0 PUSH2 0x1ADE JUMP JUMPDEST PUSH1 0x40 MLOAD PUSH2 0x9CD SWAP2 SWAP1 PUSH2 0x41AD JUMP JUMPDEST PUSH1 0x40 MLOAD DUP1 SWAP2 SUB SWAP1 RETURN JUMPDEST PUSH2 0x9DE PUSH2 0x1AE4 JUMP JUMPDEST PUSH1 0x40 MLOAD PUSH2 0x9EB SWAP2 SWAP1 PUSH2 0x40CB JUMP JUMPDEST PUSH1 0x40 MLOAD DUP1 SWAP2 SUB SWAP1 RETURN JUMPDEST PUSH2 0xA0E PUSH1 0x4 DUP1 CALLDATASIZE SUB DUP2 ADD SWAP1 PUSH2 0xA09 SWAP2 SWAP1 PUSH2 0x3B95 JUMP JUMPDEST PUSH2 0x1B1D JUMP JUMPDEST STOP JUMPDEST PUSH2 0xA2A PUSH1 0x4 DUP1 CALLDATASIZE SUB DUP2 ADD SWAP1 PUSH2 0xA25 SWAP2 SWAP1 PUSH2 0x3AE8 JUMP JUMPDEST PUSH2 0x1B81 JUMP JUMPDEST STOP JUMPDEST PUSH2 0xA34 PUSH2 0x205B JUMP JUMPDEST PUSH1 0x40 MLOAD PUSH2 0xA41 SWAP2 SWAP1 PUSH2 0x41AD JUMP JUMPDEST PUSH1 0x40 MLOAD DUP1 SWAP2 SUB SWAP1 RETURN JUMPDEST PUSH2 0xA52 PUSH2 0x2061 JUMP JUMPDEST PUSH1 0x40 MLOAD PUSH2 0xA5F SWAP2 SWAP1 PUSH2 0x41AD JUMP JUMPDEST PUSH1 0x40 MLOAD DUP1 SWAP2 SUB SWAP1 RETURN JUMPDEST PUSH2 0xA70 PUSH2 0x2067 JUMP JUMPDEST PUSH1 0x40 MLOAD PUSH2 0xA7D SWAP2 SWAP1 PUSH2 0x41AD JUMP JUMPDEST PUSH1 0x40 MLOAD DUP1 SWAP2 SUB SWAP1 RETURN JUMPDEST PUSH2 0xA8E PUSH2 0x206D JUMP JUMPDEST PUSH1 0x40 MLOAD PUSH2 0xA9B SWAP2 SWAP1 PUSH2 0x3FEF JUMP JUMPDEST PUSH1 0x40 MLOAD DUP1 SWAP2 SUB SWAP1 RETURN JUMPDEST PUSH2 0xABE PUSH1 0x4 DUP1 CALLDATASIZE SUB DUP2 ADD SWAP1 PUSH2 0xAB9 SWAP2 SWAP1 PUSH2 0x3AA8 JUMP JUMPDEST PUSH2 0x2080 JUMP JUMPDEST PUSH1 0x40 MLOAD PUSH2 0xACB SWAP2 SWAP1 PUSH2 0x3FEF JUMP JUMPDEST PUSH1 0x40 MLOAD DUP1 SWAP2 SUB SWAP1 RETURN JUMPDEST PUSH2 0xAEE PUSH1 0x4 DUP1 CALLDATASIZE SUB DUP2 ADD SWAP1 PUSH2 0xAE9 SWAP2 SWAP1 PUSH2 0x3B95 JUMP JUMPDEST PUSH2 0x2097 JUMP JUMPDEST STOP JUMPDEST PUSH2 0xB0A PUSH1 0x4 DUP1 CALLDATASIZE SUB DUP2 ADD SWAP1 PUSH2 0xB05 SWAP2 SWAP1 PUSH2 0x3B95 JUMP JUMPDEST PUSH2 0x20FB JUMP JUMPDEST STOP JUMPDEST PUSH2 0xB14 PUSH2 0x215F JUMP JUMPDEST PUSH1 0x40 MLOAD PUSH2 0xB21 SWAP2 SWAP1 PUSH2 0x3EF8 JUMP JUMPDEST PUSH1 0x40 MLOAD DUP1 SWAP2 SUB SWAP1 RETURN JUMPDEST PUSH2 0xB32 PUSH2 0x2185 JUMP JUMPDEST PUSH1 0x40 MLOAD PUSH2 0xB3F SWAP2 SWAP1 PUSH2 0x41AD JUMP JUMPDEST PUSH1 0x40 MLOAD DUP1 SWAP2 SUB SWAP1 RETURN JUMPDEST PUSH2 0xB62 PUSH1 0x4 DUP1 CALLDATASIZE SUB DUP2 ADD SWAP1 PUSH2 0xB5D SWAP2 SWAP1 PUSH2 0x3824 JUMP JUMPDEST PUSH2 0x218B JUMP JUMPDEST STOP JUMPDEST PUSH2 0xB6C PUSH2 0x23ED JUMP JUMPDEST PUSH1 0x40 MLOAD PUSH2 0xB79 SWAP2 SWAP1 PUSH2 0x41AD JUMP JUMPDEST PUSH1 0x40 MLOAD DUP1 SWAP2 SUB SWAP1 RETURN JUMPDEST PUSH2 0xB8A PUSH2 0x23F3 JUMP JUMPDEST PUSH1 0x40 MLOAD PUSH2 0xB97 SWAP2 SWAP1 PUSH2 0x3EF8 JUMP JUMPDEST PUSH1 0x40 MLOAD DUP1 SWAP2 SUB SWAP1 RETURN JUMPDEST PUSH2 0xBA8 PUSH2 0x2419 JUMP JUMPDEST PUSH1 0x40 MLOAD PUSH2 0xBB5 SWAP2 SWAP1 PUSH2 0x41AD JUMP JUMPDEST PUSH1 0x40 MLOAD DUP1 SWAP2 SUB SWAP1 RETURN JUMPDEST PUSH2 0xBD8 PUSH1 0x4 DUP1 CALLDATASIZE SUB DUP2 ADD SWAP1 PUSH2 0xBD3 SWAP2 SWAP1 PUSH2 0x39C6 JUMP JUMPDEST PUSH2 0x241F JUMP JUMPDEST STOP JUMPDEST PUSH2 0xBE2 PUSH2 0x2647 JUMP JUMPDEST PUSH1 0x40 MLOAD PUSH2 0xBEF SWAP2 SWAP1 PUSH2 0x41AD JUMP JUMPDEST PUSH1 0x40 MLOAD DUP1 SWAP2 SUB SWAP1 RETURN JUMPDEST PUSH2 0xC12 PUSH1 0x4 DUP1 CALLDATASIZE SUB DUP2 ADD SWAP1 PUSH2 0xC0D SWAP2 SWAP1 PUSH2 0x3851 JUMP JUMPDEST PUSH2 0x264D JUMP JUMPDEST STOP JUMPDEST PUSH2 0xC2E PUSH1 0x4 DUP1 CALLDATASIZE SUB DUP2 ADD SWAP1 PUSH2 0xC29 SWAP2 SWAP1 PUSH2 0x3851 JUMP JUMPDEST PUSH2 0x27C6 JUMP JUMPDEST PUSH1 0x40 MLOAD PUSH2 0xC3B SWAP2 SWAP1 PUSH2 0x41AD JUMP JUMPDEST PUSH1 0x40 MLOAD DUP1 SWAP2 SUB SWAP1 RETURN JUMPDEST PUSH2 0xC4C PUSH2 0x27EB JUMP JUMPDEST PUSH1 0x40 MLOAD PUSH2 0xC59 SWAP2 SWAP1 PUSH2 0x41AD JUMP JUMPDEST PUSH1 0x40 MLOAD DUP1 SWAP2 SUB SWAP1 RETURN JUMPDEST PUSH2 0xC7C PUSH1 0x4 DUP1 CALLDATASIZE SUB DUP2 ADD SWAP1 PUSH2 0xC77 SWAP2 SWAP1 PUSH2 0x3891 JUMP JUMPDEST PUSH2 0x27F1 JUMP JUMPDEST STOP JUMPDEST PUSH2 0xC86 PUSH2 0x2970 JUMP JUMPDEST PUSH1 0x40 MLOAD PUSH2 0xC93 SWAP2 SWAP1 PUSH2 0x41AD JUMP JUMPDEST PUSH1 0x40 MLOAD DUP1 SWAP2 SUB SWAP1 RETURN JUMPDEST PUSH2 0xCB6 PUSH1 0x4 DUP1 CALLDATASIZE SUB DUP2 ADD SWAP1 PUSH2 0xCB1 SWAP2 SWAP1 PUSH2 0x3C2F JUMP JUMPDEST PUSH2 0x2976 JUMP JUMPDEST STOP JUMPDEST PUSH2 0xCC0 PUSH2 0x2AF2 JUMP JUMPDEST PUSH1 0x40 MLOAD PUSH2 0xCCD SWAP2 SWAP1 PUSH2 0x41AD JUMP JUMPDEST PUSH1 0x40 MLOAD DUP1 SWAP2 SUB SWAP1 RETURN JUMPDEST PUSH2 0xCDE PUSH2 0x2AF8 JUMP JUMPDEST PUSH1 0x40 MLOAD PUSH2 0xCEB SWAP2 SWAP1 PUSH2 0x41AD JUMP JUMPDEST PUSH1 0x40 MLOAD DUP1 SWAP2 SUB SWAP1 RETURN JUMPDEST PUSH2 0xCFC PUSH2 0x2AFE JUMP JUMPDEST PUSH1 0x40 MLOAD PUSH2 0xD09 SWAP2 SWAP1 PUSH2 0x41AD JUMP JUMPDEST PUSH1 0x40 MLOAD DUP1 SWAP2 SUB SWAP1 RETURN JUMPDEST PUSH2 0xD1A PUSH2 0x2B04 JUMP JUMPDEST PUSH1 0x40 MLOAD PUSH2 0xD27 SWAP2 SWAP1 PUSH2 0x41AD JUMP JUMPDEST PUSH1 0x40 MLOAD DUP1 SWAP2 SUB SWAP1 RETURN JUMPDEST PUSH2 0xD38 PUSH2 0x2B0A JUMP JUMPDEST PUSH1 0x40 MLOAD PUSH2 0xD45 SWAP2 SWAP1 PUSH2 0x41AD JUMP JUMPDEST PUSH1 0x40 MLOAD DUP1 SWAP2 SUB SWAP1 RETURN JUMPDEST PUSH2 0xD68 PUSH1 0x4 DUP1 CALLDATASIZE SUB DUP2 ADD SWAP1 PUSH2 0xD63 SWAP2 SWAP1 PUSH2 0x3824 JUMP JUMPDEST PUSH2 0x2B10 JUMP JUMPDEST STOP JUMPDEST PUSH1 0x40 MLOAD DUP1 PUSH1 0x40 ADD PUSH1 0x40 MSTORE DUP1 PUSH1 0xA DUP2 MSTORE PUSH1 0x20 ADD PUSH32 0x556E697377617020563200000000000000000000000000000000000000000000 DUP2 MSTORE POP DUP2 JUMP JUMPDEST PUSH1 0x16 SLOAD DUP2 JUMP JUMPDEST PUSH1 0x0 PUSH2 0xDB6 CALLER DUP5 DUP5 PUSH2 0x2BAE JUMP JUMPDEST PUSH1 0x1 SWAP1 POP SWAP3 SWAP2 POP POP JUMP JUMPDEST PUSH1 0x2B DUP2 PUSH1 0x2 DUP2 LT PUSH2 0xDD0 JUMPI PUSH1 0x0 DUP1 REVERT JUMPDEST ADD PUSH1 0x0 SWAP2 POP SWAP1 POP SLOAD DUP2 JUMP JUMPDEST PUSH1 0x6 SLOAD DUP2 JUMP JUMPDEST PUSH1 0x20 SLOAD DUP2 JUMP JUMPDEST PUSH1 0x1D PUSH1 0x0 SWAP1 SLOAD SWAP1 PUSH2 0x100 EXP SWAP1 DIV PUSH20 0xFFFFFFFFFFFFFFFFFFFFFFFFFFFFFFFFFFFFFFFF AND DUP2 JUMP JUMPDEST PUSH1 0x0 SLOAD DUP2 JUMP JUMPDEST PUSH1 0x0 PUSH2 0x101 PUSH1 0x2 PUSH1 0x0 DUP7 PUSH20 0xFFFFFFFFFFFFFFFFFFFFFFFFFFFFFFFFFFFFFFFF AND PUSH20 0xFFFFFFFFFFFFFFFFFFFFFFFFFFFFFFFFFFFFFFFF AND DUP2 MSTORE PUSH1 0x20 ADD SWAP1 DUP2 MSTORE PUSH1 0x20 ADD PUSH1 0x0 KECCAK256 PUSH1 0x0 CALLER PUSH20 0xFFFFFFFFFFFFFFFFFFFFFFFFFFFFFFFFFFFFFFFF AND PUSH20 0xFFFFFFFFFFFFFFFFFFFFFFFFFFFFFFFFFFFFFFFF AND DUP2 MSTORE PUSH1 0x20 ADD SWAP1 DUP2 MSTORE PUSH1 0x20 ADD PUSH1 0x0 KECCAK256 SLOAD EQ PUSH2 0xFAA JUMPI PUSH2 0xF29 DUP3 PUSH1 0x2 PUSH1 0x0 DUP8 PUSH20 0xFFFFFFFFFFFFFFFFFFFFFFFFFFFFFFFFFFFFFFFF AND PUSH20 0xFFFFFFFFFFFFFFFFFFFFFFFFFFFFFFFFFFFFFFFF AND DUP2 MSTORE PUSH1 0x20 ADD SWAP1 DUP2 MSTORE PUSH1 0x20 ADD PUSH1 0x0 KECCAK256 PUSH1 0x0 CALLER PUSH20 0xFFFFFFFFFFFFFFFFFFFFFFFFFFFFFFFFFFFFFFFF AND PUSH20 0xFFFFFFFFFFFFFFFFFFFFFFFFFFFFFFFFFFFFFFFF AND DUP2 MSTORE PUSH1 0x20 ADD SWAP1 DUP2 MSTORE PUSH1 0x20 ADD PUSH1 0x0 KECCAK256 SLOAD PUSH2 0x2C99 SWAP1 SWAP2 SWAP1 PUSH4 0xFFFFFFFF AND JUMP JUMPDEST PUSH1 0x2 PUSH1 0x0 DUP7 PUSH20 0xFFFFFFFFFFFFFFFFFFFFFFFFFFFFFFFFFFFFFFFF AND PUSH20 0xFFFFFFFFFFFFFFFFFFFFFFFFFFFFFFFFFFFFFFFF AND DUP2 MSTORE PUSH1 0x20 ADD SWAP1 DUP2 MSTORE PUSH1 0x20 ADD PUSH1 0x0 KECCAK256 PUSH1 0x0 CALLER PUSH20 0xFFFFFFFFFFFFFFFFFFFFFFFFFFFFFFFFFFFFFFFF AND PUSH20 0xFFFFFFFFFFFFFFFFFFFFFFFFFFFFFFFFFFFFFFFF AND DUP2 MSTORE PUSH1 0x20 ADD SWAP1 DUP2 MSTORE PUSH1 0x20 ADD PUSH1 0x0 KECCAK256 DUP2 SWAP1 SSTORE POP JUMPDEST PUSH2 0xFB5 DUP5 DUP5 DUP5 PUSH2 0x2CF2 JUMP JUMPDEST PUSH1 0x1 SWAP1 POP SWAP4 SWAP3 POP POP POP JUMP JUMPDEST PUSH1 0x1C PUSH1 0x0 SWAP1 SLOAD SWAP1 PUSH2 0x100 EXP SWAP1 DIV PUSH20 0xFFFFFFFFFFFFFFFFFFFFFFFFFFFFFFFFFFFFFFFF AND PUSH20 0xFFFFFFFFFFFFFFFFFFFFFFFFFFFFFFFFFFFFFFFF AND CALLER PUSH20 0xFFFFFFFFFFFFFFFFFFFFFFFFFFFFFFFFFFFFFFFF AND EQ PUSH2 0x101A JUMPI PUSH1 0x0 DUP1 REVERT JUMPDEST DUP1 PUSH1 0x24 DUP2 SWAP1 SSTORE POP POP JUMP JUMPDEST PUSH1 0x12 SLOAD DUP2 JUMP JUMPDEST PUSH1 0x2D PUSH1 0x20 MSTORE DUP2 PUSH1 0x0 MSTORE PUSH1 0x40 PUSH1 0x0 KECCAK256 PUSH1 0x20 MSTORE DUP1 PUSH1 0x0 MSTORE PUSH1 0x40 PUSH1 0x0 KECCAK256 PUSH1 0x0 SWAP2 POP SWAP2 POP POP DUP1 PUSH1 0x0 ADD PUSH1 0x0 SWAP1 SLOAD SWAP1 PUSH2 0x100 EXP SWAP1 DIV PUSH20 0xFFFFFFFFFFFFFFFFFFFFFFFFFFFFFFFFFFFFFFFF AND SWAP1 DUP1 PUSH1 0x0 ADD PUSH1 0x14 SWAP1 SLOAD SWAP1 PUSH2 0x100 EXP SWAP1 DIV PUSH1 0xFF AND SWAP1 DUP1 PUSH1 0x1 ADD SLOAD SWAP1 DUP1 PUSH1 0x2 ADD SLOAD SWAP1 POP DUP5 JUMP JUMPDEST PUSH1 0x1C PUSH1 0x0 SWAP1 SLOAD SWAP1 PUSH2 0x100 EXP SWAP1 DIV PUSH20 0xFFFFFFFFFFFFFFFFFFFFFFFFFFFFFFFFFFFFFFFF AND PUSH20 0xFFFFFFFFFFFFFFFFFFFFFFFFFFFFFFFFFFFFFFFF AND CALLER PUSH20 0xFFFFFFFFFFFFFFFFFFFFFFFFFFFFFFFFFFFFFFFF AND EQ PUSH2 0x10EE JUMPI PUSH1 0x0 DUP1 REVERT JUMPDEST DUP1 PUSH1 0x29 PUSH1 0x0 PUSH2 0x100 EXP DUP2 SLOAD DUP2 PUSH1 0xFF MUL NOT AND SWAP1 DUP4 ISZERO ISZERO MUL OR SWAP1 SSTORE POP POP JUMP JUMPDEST PUSH1 0x1C PUSH1 0x0 SWAP1 SLOAD SWAP1 PUSH2 0x100 EXP SWAP1 DIV PUSH20 0xFFFFFFFFFFFFFFFFFFFFFFFFFFFFFFFFFFFFFFFF AND PUSH20 0xFFFFFFFFFFFFFFFFFFFFFFFFFFFFFFFFFFFFFFFF AND CALLER PUSH20 0xFFFFFFFFFFFFFFFFFFFFFFFFFFFFFFFFFFFFFFFF AND EQ PUSH2 0x1165 JUMPI PUSH1 0x0 DUP1 REVERT JUMPDEST DUP1 PUSH1 0x1F DUP2 SWAP1 SSTORE POP POP JUMP JUMPDEST PUSH32 0x6E71EDAE12B1B97F4D1F60370FEF10105FA2FAAE0126114A169C64845D6126C9 PUSH1 0x0 SHL DUP2 JUMP JUMPDEST PUSH1 0x12 DUP2 JUMP JUMPDEST PUSH1 0x29 PUSH1 0x0 SWAP1 SLOAD SWAP1 PUSH2 0x100 EXP SWAP1 DIV PUSH1 0xFF AND DUP2 JUMP JUMPDEST PUSH1 0x19 SLOAD DUP2 JUMP JUMPDEST PUSH1 0x5 SLOAD DUP2 JUMP JUMPDEST PUSH1 0x1C PUSH1 0x0 SWAP1 SLOAD SWAP1 PUSH2 0x100 EXP SWAP1 DIV PUSH20 0xFFFFFFFFFFFFFFFFFFFFFFFFFFFFFFFFFFFFFFFF AND PUSH20 0xFFFFFFFFFFFFFFFFFFFFFFFFFFFFFFFFFFFFFFFF AND CALLER PUSH20 0xFFFFFFFFFFFFFFFFFFFFFFFFFFFFFFFFFFFFFFFF AND EQ PUSH2 0x1214 JUMPI PUSH1 0x0 DUP1 REVERT JUMPDEST DUP1 PUSH1 0x27 DUP2 SWAP1 SSTORE POP POP JUMP JUMPDEST PUSH1 0x3 SLOAD DUP2 JUMP JUMPDEST PUSH1 0x2E PUSH1 0x20 MSTORE DUP2 PUSH1 0x0 MSTORE PUSH1 0x40 PUSH1 0x0 KECCAK256 DUP2 PUSH1 0x2 DUP2 LT PUSH2 0x1240 JUMPI PUSH1 0x0 DUP1 REVERT JUMPDEST ADD PUSH1 0x0 SWAP2 POP SWAP2 POP POP SLOAD DUP2 JUMP JUMPDEST PUSH1 0x0 DUP3 PUSH20 0xFFFFFFFFFFFFFFFFFFFFFFFFFFFFFFFFFFFFFFFF AND PUSH4 0x70A08231 ADDRESS PUSH1 0x40 MLOAD DUP3 PUSH4 0xFFFFFFFF AND PUSH1 0xE0 SHL DUP2 MSTORE PUSH1 0x4 ADD PUSH2 0x1287 SWAP2 SWAP1 PUSH2 0x3EF8 JUMP JUMPDEST PUSH1 0x20 PUSH1 0x40 MLOAD DUP1 DUP4 SUB DUP2 DUP7 DUP1 EXTCODESIZE ISZERO DUP1 ISZERO PUSH2 0x129F JUMPI PUSH1 0x0 DUP1 REVERT JUMPDEST POP GAS STATICCALL ISZERO DUP1 ISZERO PUSH2 0x12B3 JUMPI RETURNDATASIZE PUSH1 0x0 DUP1 RETURNDATACOPY RETURNDATASIZE PUSH1 0x0 REVERT JUMPDEST POP POP POP POP PUSH1 0x40 MLOAD RETURNDATASIZE PUSH1 0x1F NOT PUSH1 0x1F DUP3 ADD AND DUP3 ADD DUP1 PUSH1 0x40 MSTORE POP DUP2 ADD SWAP1 PUSH2 0x12D7 SWAP2 SWAP1 PUSH2 0x3BC2 JUMP JUMPDEST SWAP1 POP PUSH1 0x0 DUP1 PUSH1 0x23 PUSH1 0x0 SWAP1 SLOAD SWAP1 PUSH2 0x100 EXP SWAP1 DIV PUSH20 0xFFFFFFFFFFFFFFFFFFFFFFFFFFFFFFFFFFFFFFFF AND PUSH20 0xFFFFFFFFFFFFFFFFFFFFFFFFFFFFFFFFFFFFFFFF AND DUP4 DUP6 DUP7 PUSH1 0x40 MLOAD PUSH1 0x24 ADD PUSH2 0x132A SWAP4 SWAP3 SWAP2 SWAP1 PUSH2 0x41C8 JUMP JUMPDEST PUSH1 0x40 MLOAD PUSH1 0x20 DUP2 DUP4 SUB SUB DUP2 MSTORE SWAP1 PUSH1 0x40 MSTORE PUSH32 0x3B24C6A000000000000000000000000000000000000000000000000000000000 PUSH28 0xFFFFFFFFFFFFFFFFFFFFFFFFFFFFFFFFFFFFFFFFFFFFFFFFFFFFFFFF NOT AND PUSH1 0x20 DUP3 ADD DUP1 MLOAD PUSH28 0xFFFFFFFFFFFFFFFFFFFFFFFFFFFFFFFFFFFFFFFFFFFFFFFFFFFFFFFF DUP4 DUP2 DUP4 AND OR DUP4 MSTORE POP POP POP POP PUSH1 0x40 MLOAD PUSH2 0x13B4 SWAP2 SWAP1 PUSH2 0x3EAA JUMP JUMPDEST PUSH1 0x0 PUSH1 0x40 MLOAD DUP1 DUP4 SUB DUP2 DUP6 GAS DELEGATECALL SWAP2 POP POP RETURNDATASIZE DUP1 PUSH1 0x0 DUP2 EQ PUSH2 0x13EF JUMPI PUSH1 0x40 MLOAD SWAP2 POP PUSH1 0x1F NOT PUSH1 0x3F RETURNDATASIZE ADD AND DUP3 ADD PUSH1 0x40 MSTORE RETURNDATASIZE DUP3 MSTORE RETURNDATASIZE PUSH1 0x0 PUSH1 0x20 DUP5 ADD RETURNDATACOPY PUSH2 0x13F4 JUMP JUMPDEST PUSH1 0x60 SWAP2 POP JUMPDEST POP SWAP2 POP SWAP2 POP POP POP POP POP POP JUMP JUMPDEST PUSH1 0x1C PUSH1 0x0 SWAP1 SLOAD SWAP1 PUSH2 0x100 EXP SWAP1 DIV PUSH20 0xFFFFFFFFFFFFFFFFFFFFFFFFFFFFFFFFFFFFFFFF AND PUSH20 0xFFFFFFFFFFFFFFFFFFFFFFFFFFFFFFFFFFFFFFFF AND CALLER PUSH20 0xFFFFFFFFFFFFFFFFFFFFFFFFFFFFFFFFFFFFFFFF AND EQ PUSH2 0x145A JUMPI PUSH1 0x0 DUP1 REVERT JUMPDEST DUP1 PUSH1 0x28 DUP2 SWAP1 SSTORE POP POP JUMP JUMPDEST PUSH1 0x1 PUSH1 0x2A SLOAD EQ PUSH2 0x14A9 JUMPI PUSH1 0x40 MLOAD PUSH32 0x8C379A000000000000000000000000000000000000000000000000000000000 DUP2 MSTORE PUSH1 0x4 ADD PUSH2 0x14A0 SWAP1 PUSH2 0x418D JUMP JUMPDEST PUSH1 0x40 MLOAD DUP1 SWAP2 SUB SWAP1 REVERT JUMPDEST PUSH1 0x0 PUSH1 0x2A DUP2 SWAP1 SSTORE POP PUSH1 0x0 DUP1 PUSH1 0x23 PUSH1 0x0 SWAP1 SLOAD SWAP1 PUSH2 0x100 EXP SWAP1 DIV PUSH20 0xFFFFFFFFFFFFFFFFFFFFFFFFFFFFFFFFFFFFFFFF AND PUSH20 0xFFFFFFFFFFFFFFFFFFFFFFFFFFFFFFFFFFFFFFFF AND DUP7 DUP7 DUP7 DUP7 PUSH1 0x40 MLOAD PUSH1 0x24 ADD PUSH2 0x1504 SWAP5 SWAP4 SWAP3 SWAP2 SWAP1 PUSH2 0x4296 JUMP JUMPDEST PUSH1 0x40 MLOAD PUSH1 0x20 DUP2 DUP4 SUB SUB DUP2 MSTORE SWAP1 PUSH1 0x40 MSTORE PUSH32 0x17DC42AB00000000000000000000000000000000000000000000000000000000 PUSH28 0xFFFFFFFFFFFFFFFFFFFFFFFFFFFFFFFFFFFFFFFFFFFFFFFFFFFFFFFF NOT AND PUSH1 0x20 DUP3 ADD DUP1 MLOAD PUSH28 0xFFFFFFFFFFFFFFFFFFFFFFFFFFFFFFFFFFFFFFFFFFFFFFFFFFFFFFFF DUP4 DUP2 DUP4 AND OR DUP4 MSTORE POP POP POP POP PUSH1 0x40 MLOAD PUSH2 0x158E SWAP2 SWAP1 PUSH2 0x3EAA JUMP JUMPDEST PUSH1 0x0 PUSH1 0x40 MLOAD DUP1 DUP4 SUB DUP2 DUP6 GAS DELEGATECALL SWAP2 POP POP RETURNDATASIZE DUP1 PUSH1 0x0 DUP2 EQ PUSH2 0x15C9 JUMPI PUSH1 0x40 MLOAD SWAP2 POP PUSH1 0x1F NOT PUSH1 0x3F RETURNDATASIZE ADD AND DUP3 ADD PUSH1 0x40 MSTORE RETURNDATASIZE DUP3 MSTORE RETURNDATASIZE PUSH1 0x0 PUSH1 0x20 DUP5 ADD RETURNDATACOPY PUSH2 0x15CE JUMP JUMPDEST PUSH1 0x60 SWAP2 POP JUMPDEST POP SWAP2 POP SWAP2 POP POP POP PUSH1 0x1 PUSH1 0x2A DUP2 SWAP1 SSTORE POP POP POP POP POP JUMP JUMPDEST PUSH1 0x11 SLOAD DUP2 JUMP JUMPDEST PUSH1 0x27 SLOAD DUP2 JUMP JUMPDEST PUSH1 0x28 SLOAD DUP2 JUMP JUMPDEST PUSH1 0x1C PUSH1 0x0 SWAP1 SLOAD SWAP1 PUSH2 0x100 EXP SWAP1 DIV PUSH20 0xFFFFFFFFFFFFFFFFFFFFFFFFFFFFFFFFFFFFFFFF AND PUSH20 0xFFFFFFFFFFFFFFFFFFFFFFFFFFFFFFFFFFFFFFFF AND CALLER PUSH20 0xFFFFFFFFFFFFFFFFFFFFFFFFFFFFFFFFFFFFFFFF AND EQ PUSH2 0x164F JUMPI PUSH1 0x0 DUP1 REVERT JUMPDEST PUSH1 0x0 DUP3 DUP5 PUSH2 0x165D SWAP2 SWAP1 PUSH2 0x452B JUMP JUMPDEST GT PUSH2 0x1667 JUMPI PUSH1 0x0 DUP1 REVERT JUMPDEST DUP5 PUSH1 0x1D PUSH1 0x0 PUSH2 0x100 EXP DUP2 SLOAD DUP2 PUSH20 0xFFFFFFFFFFFFFFFFFFFFFFFFFFFFFFFFFFFFFFFF MUL NOT AND SWAP1 DUP4 PUSH20 0xFFFFFFFFFFFFFFFFFFFFFFFFFFFFFFFFFFFFFFFF AND MUL OR SWAP1 SSTORE POP DUP4 PUSH1 0x1E PUSH1 0x0 PUSH2 0x100 EXP DUP2 SLOAD DUP2 PUSH20 0xFFFFFFFFFFFFFFFFFFFFFFFFFFFFFFFFFFFFFFFF MUL NOT AND SWAP1 DUP4 PUSH20 0xFFFFFFFFFFFFFFFFFFFFFFFFFFFFFFFFFFFFFFFF AND MUL OR SWAP1 SSTORE POP PUSH1 0x22 SLOAD PUSH1 0x5 DUP2 SWAP1 SSTORE POP PUSH1 0x22 SLOAD PUSH1 0x6 DUP2 SWAP1 SSTORE POP PUSH1 0x6 SLOAD PUSH1 0x7 DUP2 SWAP1 SSTORE POP PUSH1 0x22 SLOAD PUSH1 0x20 DUP2 SWAP1 SSTORE POP PUSH1 0x22 SLOAD PUSH1 0x8 DUP2 SWAP1 SSTORE POP PUSH1 0x22 SLOAD PUSH1 0x9 DUP2 SWAP1 SSTORE POP DUP3 PUSH1 0x10 DUP2 SWAP1 SSTORE POP DUP2 PUSH1 0x11 DUP2 SWAP1 SSTORE POP DUP3 PUSH1 0x2 PUSH1 0x22 SLOAD PUSH2 0x173D SWAP2 SWAP1 PUSH2 0x440D JUMP JUMPDEST PUSH2 0x1747 SWAP2 SWAP1 PUSH2 0x4389 JUMP JUMPDEST PUSH1 0xA DUP2 SWAP1 SSTORE POP DUP2 PUSH1 0x2 PUSH1 0x22 SLOAD PUSH2 0x175D SWAP2 SWAP1 PUSH2 0x440D JUMP JUMPDEST PUSH2 0x1767 SWAP2 SWAP1 PUSH2 0x4389 JUMP JUMPDEST PUSH1 0xB DUP2 SWAP1 SSTORE POP PUSH2 0x1779 DUP2 PUSH1 0x22 SLOAD PUSH2 0x2E86 JUMP JUMPDEST POP POP POP POP POP JUMP JUMPDEST PUSH1 0x23 PUSH1 0x0 SWAP1 SLOAD SWAP1 PUSH2 0x100 EXP SWAP1 DIV PUSH20 0xFFFFFFFFFFFFFFFFFFFFFFFFFFFFFFFFFFFFFFFF AND DUP2 JUMP JUMPDEST PUSH1 0x1 PUSH1 0x20 MSTORE DUP1 PUSH1 0x0 MSTORE PUSH1 0x40 PUSH1 0x0 KECCAK256 PUSH1 0x0 SWAP2 POP SWAP1 POP SLOAD DUP2 JUMP JUMPDEST PUSH1 0xE SLOAD DUP2 JUMP JUMPDEST PUSH1 0xC SLOAD DUP2 JUMP JUMPDEST PUSH1 0x24 SLOAD DUP2 JUMP JUMPDEST PUSH1 0x1C PUSH1 0x0 SWAP1 SLOAD SWAP1 PUSH2 0x100 EXP SWAP1 DIV PUSH20 0xFFFFFFFFFFFFFFFFFFFFFFFFFFFFFFFFFFFFFFFF AND PUSH20 0xFFFFFFFFFFFFFFFFFFFFFFFFFFFFFFFFFFFFFFFF AND CALLER PUSH20 0xFFFFFFFFFFFFFFFFFFFFFFFFFFFFFFFFFFFFFFFF AND EQ PUSH2 0x182A JUMPI PUSH1 0x0 DUP1 REVERT JUMPDEST DUP1 PUSH1 0x25 DUP2 SWAP1 SSTORE POP POP JUMP JUMPDEST PUSH1 0x13 SLOAD DUP2 JUMP JUMPDEST PUSH1 0x22 SLOAD DUP2 JUMP JUMPDEST PUSH1 0x0 DUP1 PUSH1 0x1 PUSH1 0x2A SLOAD EQ PUSH2 0x1888 JUMPI PUSH1 0x40 MLOAD PUSH32 0x8C379A000000000000000000000000000000000000000000000000000000000 DUP2 MSTORE PUSH1 0x4 ADD PUSH2 0x187F SWAP1 PUSH2 0x418D JUMP JUMPDEST PUSH1 0x40 MLOAD DUP1 SWAP2 SUB SWAP1 REVERT JUMPDEST PUSH1 0x0 PUSH1 0x2A DUP2 SWAP1 SSTORE POP PUSH2 0x189F DUP5 PUSH1 0x10 SLOAD PUSH1 0x20 SLOAD PUSH2 0x2FA0 JUMP JUMPDEST SWAP2 POP PUSH2 0x18B0 DUP5 PUSH1 0x11 SLOAD PUSH1 0x20 SLOAD PUSH2 0x2FA0 JUMP JUMPDEST SWAP1 POP PUSH2 0x18CE PUSH1 0x8 SLOAD DUP4 PUSH1 0x10 SLOAD PUSH2 0x18C6 SWAP2 SWAP1 PUSH2 0x4585 JUMP JUMPDEST PUSH1 0x10 SLOAD PUSH2 0x2FA0 JUMP JUMPDEST PUSH1 0x8 DUP2 SWAP1 SSTORE POP PUSH2 0x18F0 PUSH1 0x9 SLOAD DUP3 PUSH1 0x11 SLOAD PUSH2 0x18E8 SWAP2 SWAP1 PUSH2 0x4585 JUMP JUMPDEST PUSH1 0x11 SLOAD PUSH2 0x2FA0 JUMP JUMPDEST PUSH1 0x9 DUP2 SWAP1 SSTORE POP DUP2 PUSH1 0x10 SLOAD PUSH2 0x1904 SWAP2 SWAP1 PUSH2 0x4585 JUMP JUMPDEST PUSH1 0x10 DUP2 SWAP1 SSTORE POP DUP1 PUSH1 0x11 SLOAD PUSH2 0x1918 SWAP2 SWAP1 PUSH2 0x4585 JUMP JUMPDEST PUSH1 0x11 DUP2 SWAP1 SSTORE POP DUP4 PUSH1 0x20 SLOAD PUSH2 0x192C SWAP2 SWAP1 PUSH2 0x4585 JUMP JUMPDEST PUSH1 0x20 DUP2 SWAP1 SSTORE POP PUSH2 0x193C ADDRESS DUP6 PUSH2 0x2FC2 JUMP JUMPDEST PUSH2 0x1969 PUSH1 0x1D PUSH1 0x0 SWAP1 SLOAD SWAP1 PUSH2 0x100 EXP SWAP1 DIV PUSH20 0xFFFFFFFFFFFFFFFFFFFFFFFFFFFFFFFFFFFFFFFF AND DUP5 DUP5 PUSH2 0x30DC JUMP JUMPDEST PUSH2 0x1996 PUSH1 0x1E PUSH1 0x0 SWAP1 SLOAD SWAP1 PUSH2 0x100 EXP SWAP1 DIV PUSH20 0xFFFFFFFFFFFFFFFFFFFFFFFFFFFFFFFFFFFFFFFF AND DUP5 DUP4 PUSH2 0x30DC JUMP JUMPDEST PUSH2 0x199E PUSH2 0x3266 JUMP JUMPDEST PUSH1 0x6 DUP2 SWAP1 SSTORE POP PUSH1 0x1 PUSH1 0x2A DUP2 SWAP1 SSTORE POP SWAP3 POP SWAP3 SWAP1 POP JUMP JUMPDEST PUSH1 0x4 PUSH1 0x20 MSTORE DUP1 PUSH1 0x0 MSTORE PUSH1 0x40 PUSH1 0x0 KECCAK256 PUSH1 0x0 SWAP2 POP SWAP1 POP SLOAD DUP2 JUMP JUMPDEST PUSH1 0x15 SLOAD DUP2 JUMP JUMPDEST PUSH1 0x0 PUSH1 0x1 PUSH1 0x2A SLOAD EQ PUSH2 0x1A18 JUMPI PUSH1 0x40 MLOAD PUSH32 0x8C379A000000000000000000000000000000000000000000000000000000000 DUP2 MSTORE PUSH1 0x4 ADD PUSH2 0x1A0F SWAP1 PUSH2 0x418D JUMP JUMPDEST PUSH1 0x40 MLOAD DUP1 SWAP2 SUB SWAP1 REVERT JUMPDEST PUSH1 0x0 PUSH1 0x2A DUP2 SWAP1 SSTORE POP PUSH2 0x1A3C PUSH1 0x8 SLOAD DUP6 PUSH1 0x10 SLOAD PUSH2 0x1A34 SWAP2 SWAP1 PUSH2 0x4333 JUMP JUMPDEST PUSH1 0x10 SLOAD PUSH2 0x2FA0 JUMP JUMPDEST PUSH1 0x8 DUP2 SWAP1 SSTORE POP PUSH2 0x1A5E PUSH1 0x9 SLOAD DUP5 PUSH1 0x11 SLOAD PUSH2 0x1A56 SWAP2 SWAP1 PUSH2 0x4333 JUMP JUMPDEST PUSH1 0x11 SLOAD PUSH2 0x2FA0 JUMP JUMPDEST PUSH1 0x9 DUP2 SWAP1 SSTORE POP PUSH2 0x1A73 PUSH1 0x20 SLOAD DUP6 PUSH1 0x10 SLOAD PUSH2 0x2FA0 JUMP JUMPDEST SWAP1 POP DUP1 PUSH1 0x20 SLOAD PUSH2 0x1A83 SWAP2 SWAP1 PUSH2 0x4333 JUMP JUMPDEST PUSH1 0x20 DUP2 SWAP1 SSTORE POP DUP4 PUSH1 0x10 SLOAD PUSH2 0x1A97 SWAP2 SWAP1 PUSH2 0x4333 JUMP JUMPDEST PUSH1 0x10 DUP2 SWAP1 SSTORE POP DUP3 PUSH1 0x11 SLOAD PUSH2 0x1AAB SWAP2 SWAP1 PUSH2 0x4333 JUMP JUMPDEST PUSH1 0x11 DUP2 SWAP1 SSTORE POP PUSH2 0x1ABB DUP3 DUP3 PUSH2 0x2E86 JUMP JUMPDEST PUSH2 0x1AC3 PUSH2 0x3266 JUMP JUMPDEST PUSH1 0x6 DUP2 SWAP1 SSTORE POP PUSH1 0x1 PUSH1 0x2A DUP2 SWAP1 SSTORE POP SWAP4 SWAP3 POP POP POP JUMP JUMPDEST PUSH1 0x9 SLOAD DUP2 JUMP JUMPDEST PUSH1 0x8 SLOAD DUP2 JUMP JUMPDEST PUSH1 0x40 MLOAD DUP1 PUSH1 0x40 ADD PUSH1 0x40 MSTORE DUP1 PUSH1 0x6 DUP2 MSTORE PUSH1 0x20 ADD PUSH32 0x554E492D56320000000000000000000000000000000000000000000000000000 DUP2 MSTORE POP DUP2 JUMP JUMPDEST PUSH1 0x1C PUSH1 0x0 SWAP1 SLOAD SWAP1 PUSH2 0x100 EXP SWAP1 DIV PUSH20 0xFFFFFFFFFFFFFFFFFFFFFFFFFFFFFFFFFFFFFFFF AND PUSH20 0xFFFFFFFFFFFFFFFFFFFFFFFFFFFFFFFFFFFFFFFF AND CALLER PUSH20 0xFFFFFFFFFFFFFFFFFFFFFFFFFFFFFFFFFFFFFFFF AND EQ PUSH2 0x1B77 JUMPI PUSH1 0x0 DUP1 REVERT JUMPDEST DUP1 PUSH1 0x21 DUP2 SWAP1 SSTORE POP POP JUMP JUMPDEST PUSH1 0x1 PUSH1 0x2A SLOAD EQ PUSH2 0x1BC6 JUMPI PUSH1 0x40 MLOAD PUSH32 0x8C379A000000000000000000000000000000000000000000000000000000000 DUP2 MSTORE PUSH1 0x4 ADD PUSH2 0x1BBD SWAP1 PUSH2 0x418D JUMP JUMPDEST PUSH1 0x40 MLOAD DUP1 SWAP2 SUB SWAP1 REVERT JUMPDEST PUSH1 0x0 PUSH1 0x2A DUP2 SWAP1 SSTORE POP PUSH1 0x0 DUP3 EQ DUP1 ISZERO PUSH2 0x1BDF JUMPI POP PUSH1 0x11 SLOAD DUP2 LT JUMPDEST DUP1 PUSH2 0x1BF7 JUMPI POP PUSH1 0x0 DUP2 EQ DUP1 ISZERO PUSH2 0x1BF6 JUMPI POP PUSH1 0x11 SLOAD DUP3 LT JUMPDEST JUMPDEST PUSH2 0x1C00 JUMPI PUSH1 0x0 DUP1 REVERT JUMPDEST PUSH1 0x0 PUSH1 0x2B PUSH1 0x0 PUSH1 0x2 DUP2 LT PUSH2 0x1C17 JUMPI PUSH2 0x1C16 PUSH2 0x46FC JUMP JUMPDEST JUMPDEST ADD SLOAD PUSH1 0x10 SLOAD PUSH2 0x1C26 SWAP2 SWAP1 PUSH2 0x4333 JUMP JUMPDEST PUSH1 0x1D PUSH1 0x0 SWAP1 SLOAD SWAP1 PUSH2 0x100 EXP SWAP1 DIV PUSH20 0xFFFFFFFFFFFFFFFFFFFFFFFFFFFFFFFFFFFFFFFF AND PUSH20 0xFFFFFFFFFFFFFFFFFFFFFFFFFFFFFFFFFFFFFFFF AND PUSH4 0x70A08231 ADDRESS PUSH1 0x40 MLOAD DUP3 PUSH4 0xFFFFFFFF AND PUSH1 0xE0 SHL DUP2 MSTORE PUSH1 0x4 ADD PUSH2 0x1C81 SWAP2 SWAP1 PUSH2 0x3EF8 JUMP JUMPDEST PUSH1 0x20 PUSH1 0x40 MLOAD DUP1 DUP4 SUB DUP2 DUP7 DUP1 EXTCODESIZE ISZERO DUP1 ISZERO PUSH2 0x1C99 JUMPI PUSH1 0x0 DUP1 REVERT JUMPDEST POP GAS STATICCALL ISZERO DUP1 ISZERO PUSH2 0x1CAD JUMPI RETURNDATASIZE PUSH1 0x0 DUP1 RETURNDATACOPY RETURNDATASIZE PUSH1 0x0 REVERT JUMPDEST POP POP POP POP PUSH1 0x40 MLOAD RETURNDATASIZE PUSH1 0x1F NOT PUSH1 0x1F DUP3 ADD AND DUP3 ADD DUP1 PUSH1 0x40 MSTORE POP DUP2 ADD SWAP1 PUSH2 0x1CD1 SWAP2 SWAP1 PUSH2 0x3BC2 JUMP JUMPDEST PUSH2 0x1CDB SWAP2 SWAP1 PUSH2 0x4585 JUMP JUMPDEST SWAP1 POP PUSH1 0x0 PUSH1 0x2B PUSH1 0x1 PUSH1 0x2 DUP2 LT PUSH2 0x1CF4 JUMPI PUSH2 0x1CF3 PUSH2 0x46FC JUMP JUMPDEST JUMPDEST ADD SLOAD PUSH1 0x11 SLOAD PUSH2 0x1D03 SWAP2 SWAP1 PUSH2 0x4333 JUMP JUMPDEST PUSH1 0x1E PUSH1 0x0 SWAP1 SLOAD SWAP1 PUSH2 0x100 EXP SWAP1 DIV PUSH20 0xFFFFFFFFFFFFFFFFFFFFFFFFFFFFFFFFFFFFFFFF AND PUSH20 0xFFFFFFFFFFFFFFFFFFFFFFFFFFFFFFFFFFFFFFFF AND PUSH4 0x70A08231 ADDRESS PUSH1 0x40 MLOAD DUP3 PUSH4 0xFFFFFFFF AND PUSH1 0xE0 SHL DUP2 MSTORE PUSH1 0x4 ADD PUSH2 0x1D5E SWAP2 SWAP1 PUSH2 0x3EF8 JUMP JUMPDEST PUSH1 0x20 PUSH1 0x40 MLOAD DUP1 DUP4 SUB DUP2 DUP7 DUP1 EXTCODESIZE ISZERO DUP1 ISZERO PUSH2 0x1D76 JUMPI PUSH1 0x0 DUP1 REVERT JUMPDEST POP GAS STATICCALL ISZERO DUP1 ISZERO PUSH2 0x1D8A JUMPI RETURNDATASIZE PUSH1 0x0 DUP1 RETURNDATACOPY RETURNDATASIZE PUSH1 0x0 REVERT JUMPDEST POP POP POP POP PUSH1 0x40 MLOAD RETURNDATASIZE PUSH1 0x1F NOT PUSH1 0x1F DUP3 ADD AND DUP3 ADD DUP1 PUSH1 0x40 MSTORE POP DUP2 ADD SWAP1 PUSH2 0x1DAE SWAP2 SWAP1 PUSH2 0x3BC2 JUMP JUMPDEST PUSH2 0x1DB8 SWAP2 SWAP1 PUSH2 0x4585 JUMP JUMPDEST SWAP1 POP PUSH1 0x0 DUP3 GT DUP1 PUSH2 0x1DC9 JUMPI POP PUSH1 0x0 DUP2 GT JUMPDEST PUSH2 0x1DD2 JUMPI PUSH1 0x0 DUP1 REVERT JUMPDEST PUSH8 0xDE0B6B3A7640000 PUSH1 0x27 SLOAD PUSH8 0xDE0B6B3A7640000 PUSH2 0x1DF1 SWAP2 SWAP1 PUSH2 0x4585 JUMP JUMPDEST PUSH2 0x1DFB SWAP2 SWAP1 PUSH2 0x4389 JUMP JUMPDEST DUP3 PUSH2 0x1E06 SWAP2 SWAP1 PUSH2 0x452B JUMP JUMPDEST SWAP2 POP PUSH8 0xDE0B6B3A7640000 PUSH1 0x27 SLOAD PUSH8 0xDE0B6B3A7640000 PUSH2 0x1E27 SWAP2 SWAP1 PUSH2 0x4585 JUMP JUMPDEST PUSH2 0x1E31 SWAP2 SWAP1 PUSH2 0x4389 JUMP JUMPDEST DUP2 PUSH2 0x1E3C SWAP2 SWAP1 PUSH2 0x452B JUMP JUMPDEST SWAP1 POP PUSH1 0x0 DUP5 GT ISZERO PUSH2 0x1EBC JUMPI PUSH2 0x1E8A PUSH1 0x1E PUSH1 0x0 SWAP1 SLOAD SWAP1 PUSH2 0x100 EXP SWAP1 DIV PUSH20 0xFFFFFFFFFFFFFFFFFFFFFFFFFFFFFFFFFFFFFFFF AND DUP7 PUSH2 0x1E7A DUP5 PUSH1 0x0 DUP10 PUSH2 0x32BF JUMP JUMPDEST DUP5 PUSH2 0x1E85 SWAP2 SWAP1 PUSH2 0x4585 JUMP JUMPDEST PUSH2 0x30DC JUMP JUMPDEST PUSH2 0x1EB7 PUSH1 0x1D PUSH1 0x0 SWAP1 SLOAD SWAP1 PUSH2 0x100 EXP SWAP1 DIV PUSH20 0xFFFFFFFFFFFFFFFFFFFFFFFFFFFFFFFFFFFFFFFF AND DUP7 DUP7 PUSH2 0x30DC JUMP JUMPDEST PUSH2 0x1FC0 JUMP JUMPDEST PUSH1 0x0 DUP4 GT ISZERO PUSH2 0x1F3A JUMPI PUSH2 0x1F08 PUSH1 0x1D PUSH1 0x0 SWAP1 SLOAD SWAP1 PUSH2 0x100 EXP SWAP1 DIV PUSH20 0xFFFFFFFFFFFFFFFFFFFFFFFFFFFFFFFFFFFFFFFF AND DUP7 PUSH2 0x1EF8 DUP6 PUSH1 0x0 DUP9 PUSH2 0x3455 JUMP JUMPDEST DUP6 PUSH2 0x1F03 SWAP2 SWAP1 PUSH2 0x4585 JUMP JUMPDEST PUSH2 0x30DC JUMP JUMPDEST PUSH2 0x1F35 PUSH1 0x1E PUSH1 0x0 SWAP1 SLOAD SWAP1 PUSH2 0x100 EXP SWAP1 DIV PUSH20 0xFFFFFFFFFFFFFFFFFFFFFFFFFFFFFFFFFFFFFFFF AND DUP7 DUP6 PUSH2 0x30DC JUMP JUMPDEST PUSH2 0x1FBF JUMP JUMPDEST PUSH1 0x0 DUP3 GT ISZERO PUSH2 0x1F7C JUMPI PUSH2 0x1F7B PUSH1 0x1E PUSH1 0x0 SWAP1 SLOAD SWAP1 PUSH2 0x100 EXP SWAP1 DIV PUSH20 0xFFFFFFFFFFFFFFFFFFFFFFFFFFFFFFFFFFFFFFFF AND DUP7 PUSH2 0x1F76 DUP6 PUSH1 0x0 DUP1 PUSH2 0x3455 JUMP JUMPDEST PUSH2 0x30DC JUMP JUMPDEST JUMPDEST PUSH1 0x0 DUP2 GT ISZERO PUSH2 0x1FBE JUMPI PUSH2 0x1FBD PUSH1 0x1D PUSH1 0x0 SWAP1 SLOAD SWAP1 PUSH2 0x100 EXP SWAP1 DIV PUSH20 0xFFFFFFFFFFFFFFFFFFFFFFFFFFFFFFFFFFFFFFFF AND DUP7 PUSH2 0x1FB8 DUP5 PUSH1 0x0 DUP1 PUSH2 0x32BF JUMP JUMPDEST PUSH2 0x30DC JUMP JUMPDEST JUMPDEST JUMPDEST JUMPDEST PUSH1 0x27 SLOAD PUSH8 0xDE0B6B3A7640000 PUSH2 0x1FD6 SWAP2 SWAP1 PUSH2 0x4585 JUMP JUMPDEST PUSH1 0x27 SLOAD DUP4 PUSH2 0x1FE4 SWAP2 SWAP1 PUSH2 0x452B JUMP JUMPDEST PUSH2 0x1FEE SWAP2 SWAP1 PUSH2 0x4389 JUMP JUMPDEST PUSH1 0x10 PUSH1 0x0 DUP3 DUP3 SLOAD PUSH2 0x1FFF SWAP2 SWAP1 PUSH2 0x4333 JUMP JUMPDEST SWAP3 POP POP DUP2 SWAP1 SSTORE POP PUSH1 0x27 SLOAD PUSH8 0xDE0B6B3A7640000 PUSH2 0x201C SWAP2 SWAP1 PUSH2 0x4585 JUMP JUMPDEST PUSH1 0x27 SLOAD DUP3 PUSH2 0x202A SWAP2 SWAP1 PUSH2 0x452B JUMP JUMPDEST PUSH2 0x2034 SWAP2 SWAP1 PUSH2 0x4389 JUMP JUMPDEST PUSH1 0x11 PUSH1 0x0 DUP3 DUP3 SLOAD PUSH2 0x2045 SWAP2 SWAP1 PUSH2 0x4333 JUMP JUMPDEST SWAP3 POP POP DUP2 SWAP1 SSTORE POP POP POP PUSH1 0x1 PUSH1 0x2A DUP2 SWAP1 SSTORE POP POP POP POP JUMP JUMPDEST PUSH1 0x14 SLOAD DUP2 JUMP JUMPDEST PUSH1 0xB SLOAD DUP2 JUMP JUMPDEST PUSH1 0x21 SLOAD DUP2 JUMP JUMPDEST PUSH1 0x1A PUSH1 0x0 SWAP1 SLOAD SWAP1 PUSH2 0x100 EXP SWAP1 DIV PUSH1 0xFF AND DUP2 JUMP JUMPDEST PUSH1 0x0 PUSH2 0x208D CALLER DUP5 DUP5 PUSH2 0x2CF2 JUMP JUMPDEST PUSH1 0x1 SWAP1 POP SWAP3 SWAP2 POP POP JUMP JUMPDEST PUSH1 0x1C PUSH1 0x0 SWAP1 SLOAD SWAP1 PUSH2 0x100 EXP SWAP1 DIV PUSH20 0xFFFFFFFFFFFFFFFFFFFFFFFFFFFFFFFFFFFFFFFF AND PUSH20 0xFFFFFFFFFFFFFFFFFFFFFFFFFFFFFFFFFFFFFFFF AND CALLER PUSH20 0xFFFFFFFFFFFFFFFFFFFFFFFFFFFFFFFFFFFFFFFF AND EQ PUSH2 0x20F1 JUMPI PUSH1 0x0 DUP1 REVERT JUMPDEST DUP1 PUSH1 0x1B DUP2 SWAP1 SSTORE POP POP JUMP JUMPDEST PUSH1 0x1C PUSH1 0x0 SWAP1 SLOAD SWAP1 PUSH2 0x100 EXP SWAP1 DIV PUSH20 0xFFFFFFFFFFFFFFFFFFFFFFFFFFFFFFFFFFFFFFFF AND PUSH20 0xFFFFFFFFFFFFFFFFFFFFFFFFFFFFFFFFFFFFFFFF AND CALLER PUSH20 0xFFFFFFFFFFFFFFFFFFFFFFFFFFFFFFFFFFFFFFFF AND EQ PUSH2 0x2155 JUMPI PUSH1 0x0 DUP1 REVERT JUMPDEST DUP1 PUSH1 0x26 DUP2 SWAP1 SSTORE POP POP JUMP JUMPDEST PUSH1 0x1E PUSH1 0x0 SWAP1 SLOAD SWAP1 PUSH2 0x100 EXP SWAP1 DIV PUSH20 0xFFFFFFFFFFFFFFFFFFFFFFFFFFFFFFFFFFFFFFFF AND DUP2 JUMP JUMPDEST PUSH1 0x10 SLOAD DUP2 JUMP JUMPDEST PUSH1 0x1 PUSH1 0x2A SLOAD EQ PUSH2 0x21D0 JUMPI PUSH1 0x40 MLOAD PUSH32 0x8C379A000000000000000000000000000000000000000000000000000000000 DUP2 MSTORE PUSH1 0x4 ADD PUSH2 0x21C7 SWAP1 PUSH2 0x418D JUMP JUMPDEST PUSH1 0x40 MLOAD DUP1 SWAP2 SUB SWAP1 REVERT JUMPDEST PUSH1 0x0 PUSH1 0x2A DUP2 SWAP1 SSTORE POP PUSH2 0x22DD PUSH1 0x1D PUSH1 0x0 SWAP1 SLOAD SWAP1 PUSH2 0x100 EXP SWAP1 DIV PUSH20 0xFFFFFFFFFFFFFFFFFFFFFFFFFFFFFFFFFFFFFFFF AND DUP3 PUSH1 0x2B PUSH1 0x0 PUSH1 0x2 DUP2 LT PUSH2 0x2214 JUMPI PUSH2 0x2213 PUSH2 0x46FC JUMP JUMPDEST JUMPDEST ADD SLOAD PUSH1 0x10 SLOAD PUSH2 0x2223 SWAP2 SWAP1 PUSH2 0x4333 JUMP JUMPDEST PUSH1 0x1D PUSH1 0x0 SWAP1 SLOAD SWAP1 PUSH2 0x100 EXP SWAP1 DIV PUSH20 0xFFFFFFFFFFFFFFFFFFFFFFFFFFFFFFFFFFFFFFFF AND PUSH20 0xFFFFFFFFFFFFFFFFFFFFFFFFFFFFFFFFFFFFFFFF AND PUSH4 0x70A08231 ADDRESS PUSH1 0x40 MLOAD DUP3 PUSH4 0xFFFFFFFF AND PUSH1 0xE0 SHL DUP2 MSTORE PUSH1 0x4 ADD PUSH2 0x227E SWAP2 SWAP1 PUSH2 0x3EF8 JUMP JUMPDEST PUSH1 0x20 PUSH1 0x40 MLOAD DUP1 DUP4 SUB DUP2 DUP7 DUP1 EXTCODESIZE ISZERO DUP1 ISZERO PUSH2 0x2296 JUMPI PUSH1 0x0 DUP1 REVERT JUMPDEST POP GAS STATICCALL ISZERO DUP1 ISZERO PUSH2 0x22AA JUMPI RETURNDATASIZE PUSH1 0x0 DUP1 RETURNDATACOPY RETURNDATASIZE PUSH1 0x0 REVERT JUMPDEST POP POP POP POP PUSH1 0x40 MLOAD RETURNDATASIZE PUSH1 0x1F NOT PUSH1 0x1F DUP3 ADD AND DUP3 ADD DUP1 PUSH1 0x40 MSTORE POP DUP2 ADD SWAP1 PUSH2 0x22CE SWAP2 SWAP1 PUSH2 0x3BC2 JUMP JUMPDEST PUSH2 0x22D8 SWAP2 SWAP1 PUSH2 0x4585 JUMP JUMPDEST PUSH2 0x30DC JUMP JUMPDEST PUSH2 0x23E2 PUSH1 0x1E PUSH1 0x0 SWAP1 SLOAD SWAP1 PUSH2 0x100 EXP SWAP1 DIV PUSH20 0xFFFFFFFFFFFFFFFFFFFFFFFFFFFFFFFFFFFFFFFF AND DUP3 PUSH1 0x2B PUSH1 0x1 PUSH1 0x2 DUP2 LT PUSH2 0x2319 JUMPI PUSH2 0x2318 PUSH2 0x46FC JUMP JUMPDEST JUMPDEST ADD SLOAD PUSH1 0x11 SLOAD PUSH2 0x2328 SWAP2 SWAP1 PUSH2 0x4333 JUMP JUMPDEST PUSH1 0x1E PUSH1 0x0 SWAP1 SLOAD SWAP1 PUSH2 0x100 EXP SWAP1 DIV PUSH20 0xFFFFFFFFFFFFFFFFFFFFFFFFFFFFFFFFFFFFFFFF AND PUSH20 0xFFFFFFFFFFFFFFFFFFFFFFFFFFFFFFFFFFFFFFFF AND PUSH4 0x70A08231 ADDRESS PUSH1 0x40 MLOAD DUP3 PUSH4 0xFFFFFFFF AND PUSH1 0xE0 SHL DUP2 MSTORE PUSH1 0x4 ADD PUSH2 0x2383 SWAP2 SWAP1 PUSH2 0x3EF8 JUMP JUMPDEST PUSH1 0x20 PUSH1 0x40 MLOAD DUP1 DUP4 SUB DUP2 DUP7 DUP1 EXTCODESIZE ISZERO DUP1 ISZERO PUSH2 0x239B JUMPI PUSH1 0x0 DUP1 REVERT JUMPDEST POP GAS STATICCALL ISZERO DUP1 ISZERO PUSH2 0x23AF JUMPI RETURNDATASIZE PUSH1 0x0 DUP1 RETURNDATACOPY RETURNDATASIZE PUSH1 0x0 REVERT JUMPDEST POP POP POP POP PUSH1 0x40 MLOAD RETURNDATASIZE PUSH1 0x1F NOT PUSH1 0x1F DUP3 ADD AND DUP3 ADD DUP1 PUSH1 0x40 MSTORE POP DUP2 ADD SWAP1 PUSH2 0x23D3 SWAP2 SWAP1 PUSH2 0x3BC2 JUMP JUMPDEST PUSH2 0x23DD SWAP2 SWAP1 PUSH2 0x4585 JUMP JUMPDEST PUSH2 0x30DC JUMP JUMPDEST PUSH1 0x1 PUSH1 0x2A DUP2 SWAP1 SSTORE POP POP JUMP JUMPDEST PUSH1 0xA SLOAD DUP2 JUMP JUMPDEST PUSH1 0x1C PUSH1 0x0 SWAP1 SLOAD SWAP1 PUSH2 0x100 EXP SWAP1 DIV PUSH20 0xFFFFFFFFFFFFFFFFFFFFFFFFFFFFFFFFFFFFFFFF AND DUP2 JUMP JUMPDEST PUSH1 0x1B SLOAD DUP2 JUMP JUMPDEST TIMESTAMP DUP5 LT ISZERO PUSH2 0x2462 JUMPI PUSH1 0x40 MLOAD PUSH32 0x8C379A000000000000000000000000000000000000000000000000000000000 DUP2 MSTORE PUSH1 0x4 ADD PUSH2 0x2459 SWAP1 PUSH2 0x414D JUMP JUMPDEST PUSH1 0x40 MLOAD DUP1 SWAP2 SUB SWAP1 REVERT JUMPDEST PUSH1 0x0 PUSH1 0x3 SLOAD PUSH32 0x6E71EDAE12B1B97F4D1F60370FEF10105FA2FAAE0126114A169C64845D6126C9 PUSH1 0x0 SHL DUP10 DUP10 DUP10 PUSH1 0x4 PUSH1 0x0 DUP15 PUSH20 0xFFFFFFFFFFFFFFFFFFFFFFFFFFFFFFFFFFFFFFFF AND PUSH20 0xFFFFFFFFFFFFFFFFFFFFFFFFFFFFFFFFFFFFFFFF AND DUP2 MSTORE PUSH1 0x20 ADD SWAP1 DUP2 MSTORE PUSH1 0x20 ADD PUSH1 0x0 KECCAK256 PUSH1 0x0 DUP2 SLOAD DUP1 SWAP3 SWAP2 SWAP1 PUSH2 0x24DE SWAP1 PUSH2 0x464B JUMP JUMPDEST SWAP2 SWAP1 POP SSTORE DUP11 PUSH1 0x40 MLOAD PUSH1 0x20 ADD PUSH2 0x24F8 SWAP7 SWAP6 SWAP5 SWAP4 SWAP3 SWAP2 SWAP1 PUSH2 0x4025 JUMP JUMPDEST PUSH1 0x40 MLOAD PUSH1 0x20 DUP2 DUP4 SUB SUB DUP2 MSTORE SWAP1 PUSH1 0x40 MSTORE DUP1 MLOAD SWAP1 PUSH1 0x20 ADD KECCAK256 PUSH1 0x40 MLOAD PUSH1 0x20 ADD PUSH2 0x251F SWAP3 SWAP2 SWAP1 PUSH2 0x3EC1 JUMP JUMPDEST PUSH1 0x40 MLOAD PUSH1 0x20 DUP2 DUP4 SUB SUB DUP2 MSTORE SWAP1 PUSH1 0x40 MSTORE DUP1 MLOAD SWAP1 PUSH1 0x20 ADD KECCAK256 SWAP1 POP PUSH1 0x0 PUSH1 0x1 DUP3 DUP7 DUP7 DUP7 PUSH1 0x40 MLOAD PUSH1 0x0 DUP2 MSTORE PUSH1 0x20 ADD PUSH1 0x40 MSTORE PUSH1 0x40 MLOAD PUSH2 0x255C SWAP5 SWAP4 SWAP3 SWAP2 SWAP1 PUSH2 0x4086 JUMP JUMPDEST PUSH1 0x20 PUSH1 0x40 MLOAD PUSH1 0x20 DUP2 SUB SWAP1 DUP1 DUP5 SUB SWAP1 DUP6 GAS STATICCALL ISZERO DUP1 ISZERO PUSH2 0x257E JUMPI RETURNDATASIZE PUSH1 0x0 DUP1 RETURNDATACOPY RETURNDATASIZE PUSH1 0x0 REVERT JUMPDEST POP POP POP PUSH1 0x20 PUSH1 0x40 MLOAD SUB MLOAD SWAP1 POP PUSH1 0x0 PUSH20 0xFFFFFFFFFFFFFFFFFFFFFFFFFFFFFFFFFFFFFFFF AND DUP2 PUSH20 0xFFFFFFFFFFFFFFFFFFFFFFFFFFFFFFFFFFFFFFFF AND EQ ISZERO DUP1 ISZERO PUSH2 0x25F2 JUMPI POP DUP9 PUSH20 0xFFFFFFFFFFFFFFFFFFFFFFFFFFFFFFFFFFFFFFFF AND DUP2 PUSH20 0xFFFFFFFFFFFFFFFFFFFFFFFFFFFFFFFFFFFFFFFF AND EQ JUMPDEST PUSH2 0x2631 JUMPI PUSH1 0x40 MLOAD PUSH32 0x8C379A000000000000000000000000000000000000000000000000000000000 DUP2 MSTORE PUSH1 0x4 ADD PUSH2 0x2628 SWAP1 PUSH2 0x410D JUMP JUMPDEST PUSH1 0x40 MLOAD DUP1 SWAP2 SUB SWAP1 REVERT JUMPDEST PUSH2 0x263C DUP10 DUP10 DUP10 PUSH2 0x2BAE JUMP JUMPDEST POP POP POP POP POP POP POP POP POP JUMP JUMPDEST PUSH1 0xD SLOAD DUP2 JUMP JUMPDEST PUSH1 0x1 PUSH1 0x2A SLOAD EQ PUSH2 0x2692 JUMPI PUSH1 0x40 MLOAD PUSH32 0x8C379A000000000000000000000000000000000000000000000000000000000 DUP2 MSTORE PUSH1 0x4 ADD PUSH2 0x2689 SWAP1 PUSH2 0x418D JUMP JUMPDEST PUSH1 0x40 MLOAD DUP1 SWAP2 SUB SWAP1 REVERT JUMPDEST PUSH1 0x0 PUSH1 0x2A DUP2 SWAP1 SSTORE POP PUSH1 0x0 DUP1 PUSH1 0x23 PUSH1 0x0 SWAP1 SLOAD SWAP1 PUSH2 0x100 EXP SWAP1 DIV PUSH20 0xFFFFFFFFFFFFFFFFFFFFFFFFFFFFFFFFFFFFFFFF AND PUSH20 0xFFFFFFFFFFFFFFFFFFFFFFFFFFFFFFFFFFFFFFFF AND DUP5 DUP5 PUSH1 0x40 MLOAD PUSH1 0x24 ADD PUSH2 0x26E9 SWAP3 SWAP2 SWAP1 PUSH2 0x3F13 JUMP JUMPDEST PUSH1 0x40 MLOAD PUSH1 0x20 DUP2 DUP4 SUB SUB DUP2 MSTORE SWAP1 PUSH1 0x40 MSTORE PUSH32 0xBF3E6A6F00000000000000000000000000000000000000000000000000000000 PUSH28 0xFFFFFFFFFFFFFFFFFFFFFFFFFFFFFFFFFFFFFFFFFFFFFFFFFFFFFFFF NOT AND PUSH1 0x20 DUP3 ADD DUP1 MLOAD PUSH28 0xFFFFFFFFFFFFFFFFFFFFFFFFFFFFFFFFFFFFFFFFFFFFFFFFFFFFFFFF DUP4 DUP2 DUP4 AND OR DUP4 MSTORE POP POP POP POP PUSH1 0x40 MLOAD PUSH2 0x2773 SWAP2 SWAP1 PUSH2 0x3EAA JUMP JUMPDEST PUSH1 0x0 PUSH1 0x40 MLOAD DUP1 DUP4 SUB DUP2 DUP6 GAS DELEGATECALL SWAP2 POP POP RETURNDATASIZE DUP1 PUSH1 0x0 DUP2 EQ PUSH2 0x27AE JUMPI PUSH1 0x40 MLOAD SWAP2 POP PUSH1 0x1F NOT PUSH1 0x3F RETURNDATASIZE ADD AND DUP3 ADD PUSH1 0x40 MSTORE RETURNDATASIZE DUP3 MSTORE RETURNDATASIZE PUSH1 0x0 PUSH1 0x20 DUP5 ADD RETURNDATACOPY PUSH2 0x27B3 JUMP JUMPDEST PUSH1 0x60 SWAP2 POP JUMPDEST POP SWAP2 POP SWAP2 POP POP POP PUSH1 0x1 PUSH1 0x2A DUP2 SWAP1 SSTORE POP POP POP JUMP JUMPDEST PUSH1 0x2 PUSH1 0x20 MSTORE DUP2 PUSH1 0x0 MSTORE PUSH1 0x40 PUSH1 0x0 KECCAK256 PUSH1 0x20 MSTORE DUP1 PUSH1 0x0 MSTORE PUSH1 0x40 PUSH1 0x0 KECCAK256 PUSH1 0x0 SWAP2 POP SWAP2 POP POP SLOAD DUP2 JUMP JUMPDEST PUSH1 0x17 SLOAD DUP2 JUMP JUMPDEST PUSH1 0x1 PUSH1 0x2A SLOAD EQ PUSH2 0x2836 JUMPI PUSH1 0x40 MLOAD PUSH32 0x8C379A000000000000000000000000000000000000000000000000000000000 DUP2 MSTORE PUSH1 0x4 ADD PUSH2 0x282D SWAP1 PUSH2 0x418D JUMP JUMPDEST PUSH1 0x40 MLOAD DUP1 SWAP2 SUB SWAP1 REVERT JUMPDEST PUSH1 0x0 PUSH1 0x2A DUP2 SWAP1 SSTORE POP PUSH1 0x0 DUP1 PUSH1 0x23 PUSH1 0x0 SWAP1 SLOAD SWAP1 PUSH2 0x100 EXP SWAP1 DIV PUSH20 0xFFFFFFFFFFFFFFFFFFFFFFFFFFFFFFFFFFFFFFFF AND PUSH20 0xFFFFFFFFFFFFFFFFFFFFFFFFFFFFFFFFFFFFFFFF AND DUP7 DUP7 DUP7 DUP7 PUSH1 0x40 MLOAD PUSH1 0x24 ADD PUSH2 0x2891 SWAP5 SWAP4 SWAP3 SWAP2 SWAP1 PUSH2 0x3F3C JUMP JUMPDEST PUSH1 0x40 MLOAD PUSH1 0x20 DUP2 DUP4 SUB SUB DUP2 MSTORE SWAP1 PUSH1 0x40 MSTORE PUSH32 0x2F0DDF4300000000000000000000000000000000000000000000000000000000 PUSH28 0xFFFFFFFFFFFFFFFFFFFFFFFFFFFFFFFFFFFFFFFFFFFFFFFFFFFFFFFF NOT AND PUSH1 0x20 DUP3 ADD DUP1 MLOAD PUSH28 0xFFFFFFFFFFFFFFFFFFFFFFFFFFFFFFFFFFFFFFFFFFFFFFFFFFFFFFFF DUP4 DUP2 DUP4 AND OR DUP4 MSTORE POP POP POP POP PUSH1 0x40 MLOAD PUSH2 0x291B SWAP2 SWAP1 PUSH2 0x3EAA JUMP JUMPDEST PUSH1 0x0 PUSH1 0x40 MLOAD DUP1 DUP4 SUB DUP2 DUP6 GAS DELEGATECALL SWAP2 POP POP RETURNDATASIZE DUP1 PUSH1 0x0 DUP2 EQ PUSH2 0x2956 JUMPI PUSH1 0x40 MLOAD SWAP2 POP PUSH1 0x1F NOT PUSH1 0x3F RETURNDATASIZE ADD AND DUP3 ADD PUSH1 0x40 MSTORE RETURNDATASIZE DUP3 MSTORE RETURNDATASIZE PUSH1 0x0 PUSH1 0x20 DUP5 ADD RETURNDATACOPY PUSH2 0x295B JUMP JUMPDEST PUSH1 0x60 SWAP2 POP JUMPDEST POP SWAP2 POP SWAP2 POP POP POP PUSH1 0x1 PUSH1 0x2A DUP2 SWAP1 SSTORE POP POP POP POP POP JUMP JUMPDEST PUSH1 0xF SLOAD DUP2 JUMP JUMPDEST PUSH1 0x1 PUSH1 0x2A SLOAD EQ PUSH2 0x29BB JUMPI PUSH1 0x40 MLOAD PUSH32 0x8C379A000000000000000000000000000000000000000000000000000000000 DUP2 MSTORE PUSH1 0x4 ADD PUSH2 0x29B2 SWAP1 PUSH2 0x418D JUMP JUMPDEST PUSH1 0x40 MLOAD DUP1 SWAP2 SUB SWAP1 REVERT JUMPDEST PUSH1 0x0 PUSH1 0x2A DUP2 SWAP1 SSTORE POP PUSH1 0x0 DUP1 PUSH1 0x23 PUSH1 0x0 SWAP1 SLOAD SWAP1 PUSH2 0x100 EXP SWAP1 DIV PUSH20 0xFFFFFFFFFFFFFFFFFFFFFFFFFFFFFFFFFFFFFFFF AND PUSH20 0xFFFFFFFFFFFFFFFFFFFFFFFFFFFFFFFFFFFFFFFF AND DUP6 DUP6 DUP6 PUSH1 0x40 MLOAD PUSH1 0x24 ADD PUSH2 0x2A14 SWAP4 SWAP3 SWAP2 SWAP1 PUSH2 0x425F JUMP JUMPDEST PUSH1 0x40 MLOAD PUSH1 0x20 DUP2 DUP4 SUB SUB DUP2 MSTORE SWAP1 PUSH1 0x40 MSTORE PUSH32 0x2E411DCA00000000000000000000000000000000000000000000000000000000 PUSH28 0xFFFFFFFFFFFFFFFFFFFFFFFFFFFFFFFFFFFFFFFFFFFFFFFFFFFFFFFF NOT AND PUSH1 0x20 DUP3 ADD DUP1 MLOAD PUSH28 0xFFFFFFFFFFFFFFFFFFFFFFFFFFFFFFFFFFFFFFFFFFFFFFFFFFFFFFFF DUP4 DUP2 DUP4 AND OR DUP4 MSTORE POP POP POP POP PUSH1 0x40 MLOAD PUSH2 0x2A9E SWAP2 SWAP1 PUSH2 0x3EAA JUMP JUMPDEST PUSH1 0x0 PUSH1 0x40 MLOAD DUP1 DUP4 SUB DUP2 DUP6 GAS DELEGATECALL SWAP2 POP POP RETURNDATASIZE DUP1 PUSH1 0x0 DUP2 EQ PUSH2 0x2AD9 JUMPI PUSH1 0x40 MLOAD SWAP2 POP PUSH1 0x1F NOT PUSH1 0x3F RETURNDATASIZE ADD AND DUP3 ADD PUSH1 0x40 MSTORE RETURNDATASIZE DUP3 MSTORE RETURNDATASIZE PUSH1 0x0 PUSH1 0x20 DUP5 ADD RETURNDATACOPY PUSH2 0x2ADE JUMP JUMPDEST PUSH1 0x60 SWAP2 POP JUMPDEST POP SWAP2 POP SWAP2 POP POP POP PUSH1 0x1 PUSH1 0x2A DUP2 SWAP1 SSTORE POP POP POP POP JUMP JUMPDEST PUSH1 0x26 SLOAD DUP2 JUMP JUMPDEST PUSH1 0x1F SLOAD DUP2 JUMP JUMPDEST PUSH1 0x7 SLOAD DUP2 JUMP JUMPDEST PUSH1 0x25 SLOAD DUP2 JUMP JUMPDEST PUSH1 0x18 SLOAD DUP2 JUMP JUMPDEST PUSH1 0x1C PUSH1 0x0 SWAP1 SLOAD SWAP1 PUSH2 0x100 EXP SWAP1 DIV PUSH20 0xFFFFFFFFFFFFFFFFFFFFFFFFFFFFFFFFFFFFFFFF AND PUSH20 0xFFFFFFFFFFFFFFFFFFFFFFFFFFFFFFFFFFFFFFFF AND CALLER PUSH20 0xFFFFFFFFFFFFFFFFFFFFFFFFFFFFFFFFFFFFFFFF AND EQ PUSH2 0x2B6A JUMPI PUSH1 0x0 DUP1 REVERT JUMPDEST DUP1 PUSH1 0x23 PUSH1 0x0 PUSH2 0x100 EXP DUP2 SLOAD DUP2 PUSH20 0xFFFFFFFFFFFFFFFFFFFFFFFFFFFFFFFFFFFFFFFF MUL NOT AND SWAP1 DUP4 PUSH20 0xFFFFFFFFFFFFFFFFFFFFFFFFFFFFFFFFFFFFFFFF AND MUL OR SWAP1 SSTORE POP POP JUMP JUMPDEST DUP1 PUSH1 0x2 PUSH1 0x0 DUP6 PUSH20 0xFFFFFFFFFFFFFFFFFFFFFFFFFFFFFFFFFFFFFFFF AND PUSH20 0xFFFFFFFFFFFFFFFFFFFFFFFFFFFFFFFFFFFFFFFF AND DUP2 MSTORE PUSH1 0x20 ADD SWAP1 DUP2 MSTORE PUSH1 0x20 ADD PUSH1 0x0 KECCAK256 PUSH1 0x0 DUP5 PUSH20 0xFFFFFFFFFFFFFFFFFFFFFFFFFFFFFFFFFFFFFFFF AND PUSH20 0xFFFFFFFFFFFFFFFFFFFFFFFFFFFFFFFFFFFFFFFF AND DUP2 MSTORE PUSH1 0x20 ADD SWAP1 DUP2 MSTORE PUSH1 0x20 ADD PUSH1 0x0 KECCAK256 DUP2 SWAP1 SSTORE POP DUP2 PUSH20 0xFFFFFFFFFFFFFFFFFFFFFFFFFFFFFFFFFFFFFFFF AND DUP4 PUSH20 0xFFFFFFFFFFFFFFFFFFFFFFFFFFFFFFFFFFFFFFFF AND PUSH32 0x8C5BE1E5EBEC7D5BD14F71427D1E84F3DD0314C0F7B2291E5B200AC8C7C3B925 DUP4 PUSH1 0x40 MLOAD PUSH2 0x2C8C SWAP2 SWAP1 PUSH2 0x41AD JUMP JUMPDEST PUSH1 0x40 MLOAD DUP1 SWAP2 SUB SWAP1 LOG3 POP POP POP JUMP JUMPDEST PUSH1 0x0 DUP3 DUP3 DUP5 PUSH2 0x2CA8 SWAP2 SWAP1 PUSH2 0x4585 JUMP JUMPDEST SWAP2 POP DUP2 GT ISZERO PUSH2 0x2CEC JUMPI PUSH1 0x40 MLOAD PUSH32 0x8C379A000000000000000000000000000000000000000000000000000000000 DUP2 MSTORE PUSH1 0x4 ADD PUSH2 0x2CE3 SWAP1 PUSH2 0x40ED JUMP JUMPDEST PUSH1 0x40 MLOAD DUP1 SWAP2 SUB SWAP1 REVERT JUMPDEST SWAP3 SWAP2 POP POP JUMP JUMPDEST PUSH2 0x2D44 DUP2 PUSH1 0x1 PUSH1 0x0 DUP7 PUSH20 0xFFFFFFFFFFFFFFFFFFFFFFFFFFFFFFFFFFFFFFFF AND PUSH20 0xFFFFFFFFFFFFFFFFFFFFFFFFFFFFFFFFFFFFFFFF AND DUP2 MSTORE PUSH1 0x20 ADD SWAP1 DUP2 MSTORE PUSH1 0x20 ADD PUSH1 0x0 KECCAK256 SLOAD PUSH2 0x2C99 SWAP1 SWAP2 SWAP1 PUSH4 0xFFFFFFFF AND JUMP JUMPDEST PUSH1 0x1 PUSH1 0x0 DUP6 PUSH20 0xFFFFFFFFFFFFFFFFFFFFFFFFFFFFFFFFFFFFFFFF AND PUSH20 0xFFFFFFFFFFFFFFFFFFFFFFFFFFFFFFFFFFFFFFFF AND DUP2 MSTORE PUSH1 0x20 ADD SWAP1 DUP2 MSTORE PUSH1 0x20 ADD PUSH1 0x0 KECCAK256 DUP2 SWAP1 SSTORE POP PUSH2 0x2DD9 DUP2 PUSH1 0x1 PUSH1 0x0 DUP6 PUSH20 0xFFFFFFFFFFFFFFFFFFFFFFFFFFFFFFFFFFFFFFFF AND PUSH20 0xFFFFFFFFFFFFFFFFFFFFFFFFFFFFFFFFFFFFFFFF AND DUP2 MSTORE PUSH1 0x20 ADD SWAP1 DUP2 MSTORE PUSH1 0x20 ADD PUSH1 0x0 KECCAK256 SLOAD PUSH2 0x35EB SWAP1 SWAP2 SWAP1 PUSH4 0xFFFFFFFF AND JUMP JUMPDEST PUSH1 0x1 PUSH1 0x0 DUP5 PUSH20 0xFFFFFFFFFFFFFFFFFFFFFFFFFFFFFFFFFFFFFFFF AND PUSH20 0xFFFFFFFFFFFFFFFFFFFFFFFFFFFFFFFFFFFFFFFF AND DUP2 MSTORE PUSH1 0x20 ADD SWAP1 DUP2 MSTORE PUSH1 0x20 ADD PUSH1 0x0 KECCAK256 DUP2 SWAP1 SSTORE POP DUP2 PUSH20 0xFFFFFFFFFFFFFFFFFFFFFFFFFFFFFFFFFFFFFFFF AND DUP4 PUSH20 0xFFFFFFFFFFFFFFFFFFFFFFFFFFFFFFFFFFFFFFFF AND PUSH32 0xDDF252AD1BE2C89B69C2B068FC378DAA952BA7F163C4A11628F55A4DF523B3EF DUP4 PUSH1 0x40 MLOAD PUSH2 0x2E79 SWAP2 SWAP1 PUSH2 0x41AD JUMP JUMPDEST PUSH1 0x40 MLOAD DUP1 SWAP2 SUB SWAP1 LOG3 POP POP POP JUMP JUMPDEST PUSH2 0x2E9B DUP2 PUSH1 0x0 SLOAD PUSH2 0x35EB SWAP1 SWAP2 SWAP1 PUSH4 0xFFFFFFFF AND JUMP JUMPDEST PUSH1 0x0 DUP2 SWAP1 SSTORE POP PUSH2 0x2EF3 DUP2 PUSH1 0x1 PUSH1 0x0 DUP6 PUSH20 0xFFFFFFFFFFFFFFFFFFFFFFFFFFFFFFFFFFFFFFFF AND PUSH20 0xFFFFFFFFFFFFFFFFFFFFFFFFFFFFFFFFFFFFFFFF AND DUP2 MSTORE PUSH1 0x20 ADD SWAP1 DUP2 MSTORE PUSH1 0x20 ADD PUSH1 0x0 KECCAK256 SLOAD PUSH2 0x35EB SWAP1 SWAP2 SWAP1 PUSH4 0xFFFFFFFF AND JUMP JUMPDEST PUSH1 0x1 PUSH1 0x0 DUP5 PUSH20 0xFFFFFFFFFFFFFFFFFFFFFFFFFFFFFFFFFFFFFFFF AND PUSH20 0xFFFFFFFFFFFFFFFFFFFFFFFFFFFFFFFFFFFFFFFF AND DUP2 MSTORE PUSH1 0x20 ADD SWAP1 DUP2 MSTORE PUSH1 0x20 ADD PUSH1 0x0 KECCAK256 DUP2 SWAP1 SSTORE POP DUP2 PUSH20 0xFFFFFFFFFFFFFFFFFFFFFFFFFFFFFFFFFFFFFFFF AND PUSH1 0x0 PUSH20 0xFFFFFFFFFFFFFFFFFFFFFFFFFFFFFFFFFFFFFFFF AND PUSH32 0xDDF252AD1BE2C89B69C2B068FC378DAA952BA7F163C4A11628F55A4DF523B3EF DUP4 PUSH1 0x40 MLOAD PUSH2 0x2F94 SWAP2 SWAP1 PUSH2 0x41AD JUMP JUMPDEST PUSH1 0x40 MLOAD DUP1 SWAP2 SUB SWAP1 LOG3 POP POP JUMP JUMPDEST PUSH1 0x0 DUP2 DUP4 DUP6 PUSH2 0x2FAF SWAP2 SWAP1 PUSH2 0x452B JUMP JUMPDEST PUSH2 0x2FB9 SWAP2 SWAP1 PUSH2 0x4389 JUMP JUMPDEST SWAP1 POP SWAP4 SWAP3 POP POP POP JUMP JUMPDEST PUSH2 0x3014 DUP2 PUSH1 0x1 PUSH1 0x0 DUP6 PUSH20 0xFFFFFFFFFFFFFFFFFFFFFFFFFFFFFFFFFFFFFFFF AND PUSH20 0xFFFFFFFFFFFFFFFFFFFFFFFFFFFFFFFFFFFFFFFF AND DUP2 MSTORE PUSH1 0x20 ADD SWAP1 DUP2 MSTORE PUSH1 0x20 ADD PUSH1 0x0 KECCAK256 SLOAD PUSH2 0x2C99 SWAP1 SWAP2 SWAP1 PUSH4 0xFFFFFFFF AND JUMP JUMPDEST PUSH1 0x1 PUSH1 0x0 DUP5 PUSH20 0xFFFFFFFFFFFFFFFFFFFFFFFFFFFFFFFFFFFFFFFF AND PUSH20 0xFFFFFFFFFFFFFFFFFFFFFFFFFFFFFFFFFFFFFFFF AND DUP2 MSTORE PUSH1 0x20 ADD SWAP1 DUP2 MSTORE PUSH1 0x20 ADD PUSH1 0x0 KECCAK256 DUP2 SWAP1 SSTORE POP PUSH2 0x306C DUP2 PUSH1 0x0 SLOAD PUSH2 0x2C99 SWAP1 SWAP2 SWAP1 PUSH4 0xFFFFFFFF AND JUMP JUMPDEST PUSH1 0x0 DUP2 SWAP1 SSTORE POP PUSH1 0x0 PUSH20 0xFFFFFFFFFFFFFFFFFFFFFFFFFFFFFFFFFFFFFFFF AND DUP3 PUSH20 0xFFFFFFFFFFFFFFFFFFFFFFFFFFFFFFFFFFFFFFFF AND PUSH32 0xDDF252AD1BE2C89B69C2B068FC378DAA952BA7F163C4A11628F55A4DF523B3EF DUP4 PUSH1 0x40 MLOAD PUSH2 0x30D0 SWAP2 SWAP1 PUSH2 0x41AD JUMP JUMPDEST PUSH1 0x40 MLOAD DUP1 SWAP2 SUB SWAP1 LOG3 POP POP JUMP JUMPDEST PUSH1 0x0 DUP1 DUP5 PUSH20 0xFFFFFFFFFFFFFFFFFFFFFFFFFFFFFFFFFFFFFFFF AND PUSH1 0x40 MLOAD DUP1 PUSH1 0x40 ADD PUSH1 0x40 MSTORE DUP1 PUSH1 0x19 DUP2 MSTORE PUSH1 0x20 ADD PUSH32 0x7472616E7366657228616464726573732C75696E743235362900000000000000 DUP2 MSTORE POP DUP1 MLOAD SWAP1 PUSH1 0x20 ADD KECCAK256 DUP6 DUP6 PUSH1 0x40 MLOAD PUSH1 0x24 ADD PUSH2 0x3146 SWAP3 SWAP2 SWAP1 PUSH2 0x3FC6 JUMP JUMPDEST PUSH1 0x40 MLOAD PUSH1 0x20 DUP2 DUP4 SUB SUB DUP2 MSTORE SWAP1 PUSH1 0x40 MSTORE SWAP1 PUSH28 0xFFFFFFFFFFFFFFFFFFFFFFFFFFFFFFFFFFFFFFFFFFFFFFFFFFFFFFFF NOT AND PUSH1 0x20 DUP3 ADD DUP1 MLOAD PUSH28 0xFFFFFFFFFFFFFFFFFFFFFFFFFFFFFFFFFFFFFFFFFFFFFFFFFFFFFFFF DUP4 DUP2 DUP4 AND OR DUP4 MSTORE POP POP POP POP PUSH1 0x40 MLOAD PUSH2 0x31B0 SWAP2 SWAP1 PUSH2 0x3EAA JUMP JUMPDEST PUSH1 0x0 PUSH1 0x40 MLOAD DUP1 DUP4 SUB DUP2 PUSH1 0x0 DUP7 GAS CALL SWAP2 POP POP RETURNDATASIZE DUP1 PUSH1 0x0 DUP2 EQ PUSH2 0x31ED JUMPI PUSH1 0x40 MLOAD SWAP2 POP PUSH1 0x1F NOT PUSH1 0x3F RETURNDATASIZE ADD AND DUP3 ADD PUSH1 0x40 MSTORE RETURNDATASIZE DUP3 MSTORE RETURNDATASIZE PUSH1 0x0 PUSH1 0x20 DUP5 ADD RETURNDATACOPY PUSH2 0x31F2 JUMP JUMPDEST PUSH1 0x60 SWAP2 POP JUMPDEST POP SWAP2 POP SWAP2 POP DUP2 DUP1 ISZERO PUSH2 0x3220 JUMPI POP PUSH1 0x0 DUP2 MLOAD EQ DUP1 PUSH2 0x321F JUMPI POP DUP1 DUP1 PUSH1 0x20 ADD SWAP1 MLOAD DUP2 ADD SWAP1 PUSH2 0x321E SWAP2 SWAP1 PUSH2 0x3B68 JUMP JUMPDEST JUMPDEST JUMPDEST PUSH2 0x325F JUMPI PUSH1 0x40 MLOAD PUSH32 0x8C379A000000000000000000000000000000000000000000000000000000000 DUP2 MSTORE PUSH1 0x4 ADD PUSH2 0x3256 SWAP1 PUSH2 0x416D JUMP JUMPDEST PUSH1 0x40 MLOAD DUP1 SWAP2 SUB SWAP1 REVERT JUMPDEST POP POP POP POP POP JUMP JUMPDEST PUSH1 0x0 DUP1 PUSH2 0x329C PUSH1 0x10 SLOAD PUSH1 0x5 SLOAD PUSH1 0xA SLOAD PUSH1 0x11 SLOAD PUSH1 0x5 SLOAD PUSH8 0x1BC16D674EC80000 PUSH2 0x328E SWAP2 SWAP1 PUSH2 0x4585 JUMP JUMPDEST PUSH1 0xB SLOAD PUSH1 0xE SLOAD PUSH1 0xF SLOAD PUSH2 0x3644 JUMP JUMPDEST SWAP1 POP PUSH1 0x22 SLOAD DUP2 PUSH1 0x7 SLOAD PUSH2 0x32AF SWAP2 SWAP1 PUSH2 0x452B JUMP JUMPDEST PUSH2 0x32B9 SWAP2 SWAP1 PUSH2 0x4389 JUMP JUMPDEST SWAP2 POP POP SWAP1 JUMP JUMPDEST PUSH1 0x0 PUSH1 0x1 PUSH1 0x2A SLOAD EQ PUSH2 0x3306 JUMPI PUSH1 0x40 MLOAD PUSH32 0x8C379A000000000000000000000000000000000000000000000000000000000 DUP2 MSTORE PUSH1 0x4 ADD PUSH2 0x32FD SWAP1 PUSH2 0x418D JUMP JUMPDEST PUSH1 0x40 MLOAD DUP1 SWAP2 SUB SWAP1 REVERT JUMPDEST PUSH1 0x0 PUSH1 0x2A DUP2 SWAP1 SSTORE POP PUSH1 0x0 DUP1 PUSH1 0x23 PUSH1 0x0 SWAP1 SLOAD SWAP1 PUSH2 0x100 EXP SWAP1 DIV PUSH20 0xFFFFFFFFFFFFFFFFFFFFFFFFFFFFFFFFFFFFFFFF AND PUSH20 0xFFFFFFFFFFFFFFFFFFFFFFFFFFFFFFFFFFFFFFFF AND DUP7 DUP7 DUP7 PUSH1 0x40 MLOAD PUSH1 0x24 ADD PUSH2 0x335F SWAP4 SWAP3 SWAP2 SWAP1 PUSH2 0x41FF JUMP JUMPDEST PUSH1 0x40 MLOAD PUSH1 0x20 DUP2 DUP4 SUB SUB DUP2 MSTORE SWAP1 PUSH1 0x40 MSTORE PUSH32 0x2618C20E00000000000000000000000000000000000000000000000000000000 PUSH28 0xFFFFFFFFFFFFFFFFFFFFFFFFFFFFFFFFFFFFFFFFFFFFFFFFFFFFFFFF NOT AND PUSH1 0x20 DUP3 ADD DUP1 MLOAD PUSH28 0xFFFFFFFFFFFFFFFFFFFFFFFFFFFFFFFFFFFFFFFFFFFFFFFFFFFFFFFF DUP4 DUP2 DUP4 AND OR DUP4 MSTORE POP POP POP POP PUSH1 0x40 MLOAD PUSH2 0x33E9 SWAP2 SWAP1 PUSH2 0x3EAA JUMP JUMPDEST PUSH1 0x0 PUSH1 0x40 MLOAD DUP1 DUP4 SUB DUP2 DUP6 GAS DELEGATECALL SWAP2 POP POP RETURNDATASIZE DUP1 PUSH1 0x0 DUP2 EQ PUSH2 0x3424 JUMPI PUSH1 0x40 MLOAD SWAP2 POP PUSH1 0x1F NOT PUSH1 0x3F RETURNDATASIZE ADD AND DUP3 ADD PUSH1 0x40 MSTORE RETURNDATASIZE DUP3 MSTORE RETURNDATASIZE PUSH1 0x0 PUSH1 0x20 DUP5 ADD RETURNDATACOPY PUSH2 0x3429 JUMP JUMPDEST PUSH1 0x60 SWAP2 POP JUMPDEST POP SWAP2 POP SWAP2 POP DUP1 DUP1 PUSH1 0x20 ADD SWAP1 MLOAD DUP2 ADD SWAP1 PUSH2 0x3442 SWAP2 SWAP1 PUSH2 0x3BC2 JUMP JUMPDEST SWAP3 POP POP POP PUSH1 0x1 PUSH1 0x2A DUP2 SWAP1 SSTORE POP SWAP4 SWAP3 POP POP POP JUMP JUMPDEST PUSH1 0x0 PUSH1 0x1 PUSH1 0x2A SLOAD EQ PUSH2 0x349C JUMPI PUSH1 0x40 MLOAD PUSH32 0x8C379A000000000000000000000000000000000000000000000000000000000 DUP2 MSTORE PUSH1 0x4 ADD PUSH2 0x3493 SWAP1 PUSH2 0x418D JUMP JUMPDEST PUSH1 0x40 MLOAD DUP1 SWAP2 SUB SWAP1 REVERT JUMPDEST PUSH1 0x0 PUSH1 0x2A DUP2 SWAP1 SSTORE POP PUSH1 0x0 DUP1 PUSH1 0x23 PUSH1 0x0 SWAP1 SLOAD SWAP1 PUSH2 0x100 EXP SWAP1 DIV PUSH20 0xFFFFFFFFFFFFFFFFFFFFFFFFFFFFFFFFFFFFFFFF AND PUSH20 0xFFFFFFFFFFFFFFFFFFFFFFFFFFFFFFFFFFFFFFFF AND DUP7 DUP7 DUP7 PUSH1 0x40 MLOAD PUSH1 0x24 ADD PUSH2 0x34F5 SWAP4 SWAP3 SWAP2 SWAP1 PUSH2 0x41FF JUMP JUMPDEST PUSH1 0x40 MLOAD PUSH1 0x20 DUP2 DUP4 SUB SUB DUP2 MSTORE SWAP1 PUSH1 0x40 MSTORE PUSH32 0xDA889AAA00000000000000000000000000000000000000000000000000000000 PUSH28 0xFFFFFFFFFFFFFFFFFFFFFFFFFFFFFFFFFFFFFFFFFFFFFFFFFFFFFFFF NOT AND PUSH1 0x20 DUP3 ADD DUP1 MLOAD PUSH28 0xFFFFFFFFFFFFFFFFFFFFFFFFFFFFFFFFFFFFFFFFFFFFFFFFFFFFFFFF DUP4 DUP2 DUP4 AND OR DUP4 MSTORE POP POP POP POP PUSH1 0x40 MLOAD PUSH2 0x357F SWAP2 SWAP1 PUSH2 0x3EAA JUMP JUMPDEST PUSH1 0x0 PUSH1 0x40 MLOAD DUP1 DUP4 SUB DUP2 DUP6 GAS DELEGATECALL SWAP2 POP POP RETURNDATASIZE DUP1 PUSH1 0x0 DUP2 EQ PUSH2 0x35BA JUMPI PUSH1 0x40 MLOAD SWAP2 POP PUSH1 0x1F NOT PUSH1 0x3F RETURNDATASIZE ADD AND DUP3 ADD PUSH1 0x40 MSTORE RETURNDATASIZE DUP3 MSTORE RETURNDATASIZE PUSH1 0x0 PUSH1 0x20 DUP5 ADD RETURNDATACOPY PUSH2 0x35BF JUMP JUMPDEST PUSH1 0x60 SWAP2 POP JUMPDEST POP SWAP2 POP SWAP2 POP DUP1 DUP1 PUSH1 0x20 ADD SWAP1 MLOAD DUP2 ADD SWAP1 PUSH2 0x35D8 SWAP2 SWAP1 PUSH2 0x3BC2 JUMP JUMPDEST SWAP3 POP POP POP PUSH1 0x1 PUSH1 0x2A DUP2 SWAP1 SSTORE POP SWAP4 SWAP3 POP POP POP JUMP JUMPDEST PUSH1 0x0 DUP3 DUP3 DUP5 PUSH2 0x35FA SWAP2 SWAP1 PUSH2 0x4333 JUMP JUMPDEST SWAP2 POP DUP2 LT ISZERO PUSH2 0x363E JUMPI PUSH1 0x40 MLOAD PUSH32 0x8C379A000000000000000000000000000000000000000000000000000000000 DUP2 MSTORE PUSH1 0x4 ADD PUSH2 0x3635 SWAP1 PUSH2 0x412D JUMP JUMPDEST PUSH1 0x40 MLOAD DUP1 SWAP2 SUB SWAP1 REVERT JUMPDEST SWAP3 SWAP2 POP POP JUMP JUMPDEST PUSH1 0x0 PUSH2 0x3696 PUSH2 0x3657 DUP5 DUP11 DUP11 DUP7 DUP11 DUP11 PUSH2 0x36A4 JUMP JUMPDEST PUSH23 0xA70C3C40A64E6C51999090B65F67D9240000000000000 PUSH2 0x367D DUP13 DUP13 DUP13 DUP13 DUP13 DUP13 PUSH2 0x36A4 JUMP JUMPDEST PUSH2 0x3687 SWAP2 SWAP1 PUSH2 0x452B JUMP JUMPDEST PUSH2 0x3691 SWAP2 SWAP1 PUSH2 0x4389 JUMP JUMPDEST PUSH2 0x3700 JUMP JUMPDEST SWAP1 POP SWAP9 SWAP8 POP POP POP POP POP POP POP POP JUMP JUMPDEST PUSH1 0x0 DUP4 DUP8 DUP4 DUP6 DUP8 PUSH2 0x36B5 SWAP2 SWAP1 PUSH2 0x452B JUMP JUMPDEST PUSH2 0x36BF SWAP2 SWAP1 PUSH2 0x452B JUMP JUMPDEST DUP8 DUP10 DUP12 PUSH2 0x36CC SWAP2 SWAP1 PUSH2 0x452B JUMP JUMPDEST PUSH2 0x36D6 SWAP2 SWAP1 PUSH2 0x452B JUMP JUMPDEST PUSH2 0x36E0 SWAP2 SWAP1 PUSH2 0x4333 JUMP JUMPDEST PUSH2 0x36EA SWAP2 SWAP1 PUSH2 0x452B JUMP JUMPDEST PUSH2 0x36F4 SWAP2 SWAP1 PUSH2 0x452B JUMP JUMPDEST SWAP1 POP SWAP7 SWAP6 POP POP POP POP POP POP JUMP JUMPDEST PUSH1 0x0 PUSH1 0x8 DUP3 GT ISZERO PUSH2 0x377E JUMPI DUP2 SWAP1 POP PUSH1 0x0 PUSH1 0x1 PUSH1 0x3 DUP5 PUSH2 0x371F SWAP2 SWAP1 PUSH2 0x4389 JUMP JUMPDEST PUSH2 0x3729 SWAP2 SWAP1 PUSH2 0x4333 JUMP JUMPDEST SWAP1 POP JUMPDEST DUP2 DUP2 LT ISZERO PUSH2 0x3778 JUMPI DUP1 SWAP2 POP PUSH1 0x3 DUP2 PUSH1 0x2 PUSH2 0x3746 SWAP2 SWAP1 PUSH2 0x452B JUMP JUMPDEST DUP3 DUP4 PUSH2 0x3752 SWAP2 SWAP1 PUSH2 0x452B JUMP JUMPDEST DUP6 PUSH2 0x375D SWAP2 SWAP1 PUSH2 0x4389 JUMP JUMPDEST PUSH2 0x3767 SWAP2 SWAP1 PUSH2 0x4333 JUMP JUMPDEST PUSH2 0x3771 SWAP2 SWAP1 PUSH2 0x4389 JUMP JUMPDEST SWAP1 POP PUSH2 0x372C JUMP JUMPDEST POP PUSH2 0x378C JUMP JUMPDEST PUSH1 0x0 DUP3 EQ PUSH2 0x378B JUMPI PUSH1 0x1 SWAP1 POP JUMPDEST JUMPDEST SWAP2 SWAP1 POP JUMP JUMPDEST PUSH1 0x0 DUP2 CALLDATALOAD SWAP1 POP PUSH2 0x37A0 DUP2 PUSH2 0x486D JUMP JUMPDEST SWAP3 SWAP2 POP POP JUMP JUMPDEST PUSH1 0x0 DUP2 CALLDATALOAD SWAP1 POP PUSH2 0x37B5 DUP2 PUSH2 0x4884 JUMP JUMPDEST SWAP3 SWAP2 POP POP JUMP JUMPDEST PUSH1 0x0 DUP2 MLOAD SWAP1 POP PUSH2 0x37CA DUP2 PUSH2 0x4884 JUMP JUMPDEST SWAP3 SWAP2 POP POP JUMP JUMPDEST PUSH1 0x0 DUP2 CALLDATALOAD SWAP1 POP PUSH2 0x37DF DUP2 PUSH2 0x489B JUMP JUMPDEST SWAP3 SWAP2 POP POP JUMP JUMPDEST PUSH1 0x0 DUP2 CALLDATALOAD SWAP1 POP PUSH2 0x37F4 DUP2 PUSH2 0x48B2 JUMP JUMPDEST SWAP3 SWAP2 POP POP JUMP JUMPDEST PUSH1 0x0 DUP2 MLOAD SWAP1 POP PUSH2 0x3809 DUP2 PUSH2 0x48B2 JUMP JUMPDEST SWAP3 SWAP2 POP POP JUMP JUMPDEST PUSH1 0x0 DUP2 CALLDATALOAD SWAP1 POP PUSH2 0x381E DUP2 PUSH2 0x48C9 JUMP JUMPDEST SWAP3 SWAP2 POP POP JUMP JUMPDEST PUSH1 0x0 PUSH1 0x20 DUP3 DUP5 SUB SLT ISZERO PUSH2 0x383A JUMPI PUSH2 0x3839 PUSH2 0x472B JUMP JUMPDEST JUMPDEST PUSH1 0x0 PUSH2 0x3848 DUP5 DUP3 DUP6 ADD PUSH2 0x3791 JUMP JUMPDEST SWAP2 POP POP SWAP3 SWAP2 POP POP JUMP JUMPDEST PUSH1 0x0 DUP1 PUSH1 0x40 DUP4 DUP6 SUB SLT ISZERO PUSH2 0x3868 JUMPI PUSH2 0x3867 PUSH2 0x472B JUMP JUMPDEST JUMPDEST PUSH1 0x0 PUSH2 0x3876 DUP6 DUP3 DUP7 ADD PUSH2 0x3791 JUMP JUMPDEST SWAP3 POP POP PUSH1 0x20 PUSH2 0x3887 DUP6 DUP3 DUP7 ADD PUSH2 0x3791 JUMP JUMPDEST SWAP2 POP POP SWAP3 POP SWAP3 SWAP1 POP JUMP JUMPDEST PUSH1 0x0 DUP1 PUSH1 0x0 DUP1 PUSH1 0x80 DUP6 DUP8 SUB SLT ISZERO PUSH2 0x38AB JUMPI PUSH2 0x38AA PUSH2 0x472B JUMP JUMPDEST JUMPDEST PUSH1 0x0 PUSH2 0x38B9 DUP8 DUP3 DUP9 ADD PUSH2 0x3791 JUMP JUMPDEST SWAP5 POP POP PUSH1 0x20 PUSH2 0x38CA DUP8 DUP3 DUP9 ADD PUSH2 0x3791 JUMP JUMPDEST SWAP4 POP POP PUSH1 0x40 PUSH2 0x38DB DUP8 DUP3 DUP9 ADD PUSH2 0x3791 JUMP JUMPDEST SWAP3 POP POP PUSH1 0x60 PUSH2 0x38EC DUP8 DUP3 DUP9 ADD PUSH2 0x37E5 JUMP JUMPDEST SWAP2 POP POP SWAP3 SWAP6 SWAP2 SWAP5 POP SWAP3 POP JUMP JUMPDEST PUSH1 0x0 DUP1 PUSH1 0x0 PUSH1 0x60 DUP5 DUP7 SUB SLT ISZERO PUSH2 0x3911 JUMPI PUSH2 0x3910 PUSH2 0x472B JUMP JUMPDEST JUMPDEST PUSH1 0x0 PUSH2 0x391F DUP7 DUP3 DUP8 ADD PUSH2 0x3791 JUMP JUMPDEST SWAP4 POP POP PUSH1 0x20 PUSH2 0x3930 DUP7 DUP3 DUP8 ADD PUSH2 0x3791 JUMP JUMPDEST SWAP3 POP POP PUSH1 0x40 PUSH2 0x3941 DUP7 DUP3 DUP8 ADD PUSH2 0x37E5 JUMP JUMPDEST SWAP2 POP POP SWAP3 POP SWAP3 POP SWAP3 JUMP JUMPDEST PUSH1 0x0 DUP1 PUSH1 0x0 DUP1 PUSH1 0x0 PUSH1 0xA0 DUP7 DUP9 SUB SLT ISZERO PUSH2 0x3967 JUMPI PUSH2 0x3966 PUSH2 0x472B JUMP JUMPDEST JUMPDEST PUSH1 0x0 PUSH2 0x3975 DUP9 DUP3 DUP10 ADD PUSH2 0x3791 JUMP JUMPDEST SWAP6 POP POP PUSH1 0x20 PUSH2 0x3986 DUP9 DUP3 DUP10 ADD PUSH2 0x3791 JUMP JUMPDEST SWAP5 POP POP PUSH1 0x40 PUSH2 0x3997 DUP9 DUP3 DUP10 ADD PUSH2 0x37E5 JUMP JUMPDEST SWAP4 POP POP PUSH1 0x60 PUSH2 0x39A8 DUP9 DUP3 DUP10 ADD PUSH2 0x37E5 JUMP JUMPDEST SWAP3 POP POP PUSH1 0x80 PUSH2 0x39B9 DUP9 DUP3 DUP10 ADD PUSH2 0x3791 JUMP JUMPDEST SWAP2 POP POP SWAP3 SWAP6 POP SWAP3 SWAP6 SWAP1 SWAP4 POP JUMP JUMPDEST PUSH1 0x0 DUP1 PUSH1 0x0 DUP1 PUSH1 0x0 DUP1 PUSH1 0x0 PUSH1 0xE0 DUP9 DUP11 SUB SLT ISZERO PUSH2 0x39E5 JUMPI PUSH2 0x39E4 PUSH2 0x472B JUMP JUMPDEST JUMPDEST PUSH1 0x0 PUSH2 0x39F3 DUP11 DUP3 DUP12 ADD PUSH2 0x3791 JUMP JUMPDEST SWAP8 POP POP PUSH1 0x20 PUSH2 0x3A04 DUP11 DUP3 DUP12 ADD PUSH2 0x3791 JUMP JUMPDEST SWAP7 POP POP PUSH1 0x40 PUSH2 0x3A15 DUP11 DUP3 DUP12 ADD PUSH2 0x37E5 JUMP JUMPDEST SWAP6 POP POP PUSH1 0x60 PUSH2 0x3A26 DUP11 DUP3 DUP12 ADD PUSH2 0x37E5 JUMP JUMPDEST SWAP5 POP POP PUSH1 0x80 PUSH2 0x3A37 DUP11 DUP3 DUP12 ADD PUSH2 0x380F JUMP JUMPDEST SWAP4 POP POP PUSH1 0xA0 PUSH2 0x3A48 DUP11 DUP3 DUP12 ADD PUSH2 0x37D0 JUMP JUMPDEST SWAP3 POP POP PUSH1 0xC0 PUSH2 0x3A59 DUP11 DUP3 DUP12 ADD PUSH2 0x37D0 JUMP JUMPDEST SWAP2 POP POP SWAP3 SWAP6 SWAP9 SWAP2 SWAP5 SWAP8 POP SWAP3 SWAP6 POP JUMP JUMPDEST PUSH1 0x0 DUP1 PUSH1 0x40 DUP4 DUP6 SUB SLT ISZERO PUSH2 0x3A7F JUMPI PUSH2 0x3A7E PUSH2 0x472B JUMP JUMPDEST JUMPDEST PUSH1 0x0 PUSH2 0x3A8D DUP6 DUP3 DUP7 ADD PUSH2 0x3791 JUMP JUMPDEST SWAP3 POP POP PUSH1 0x20 PUSH2 0x3A9E DUP6 DUP3 DUP7 ADD PUSH2 0x37A6 JUMP JUMPDEST SWAP2 POP POP SWAP3 POP SWAP3 SWAP1 POP JUMP JUMPDEST PUSH1 0x0 DUP1 PUSH1 0x40 DUP4 DUP6 SUB SLT ISZERO PUSH2 0x3ABF JUMPI PUSH2 0x3ABE PUSH2 0x472B JUMP JUMPDEST JUMPDEST PUSH1 0x0 PUSH2 0x3ACD DUP6 DUP3 DUP7 ADD PUSH2 0x3791 JUMP JUMPDEST SWAP3 POP POP PUSH1 0x20 PUSH2 0x3ADE DUP6 DUP3 DUP7 ADD PUSH2 0x37E5 JUMP JUMPDEST SWAP2 POP POP SWAP3 POP SWAP3 SWAP1 POP JUMP JUMPDEST PUSH1 0x0 DUP1 PUSH1 0x0 PUSH1 0x60 DUP5 DUP7 SUB SLT ISZERO PUSH2 0x3B01 JUMPI PUSH2 0x3B00 PUSH2 0x472B JUMP JUMPDEST JUMPDEST PUSH1 0x0 PUSH2 0x3B0F DUP7 DUP3 DUP8 ADD PUSH2 0x3791 JUMP JUMPDEST SWAP4 POP POP PUSH1 0x20 PUSH2 0x3B20 DUP7 DUP3 DUP8 ADD PUSH2 0x37E5 JUMP JUMPDEST SWAP3 POP POP PUSH1 0x40 PUSH2 0x3B31 DUP7 DUP3 DUP8 ADD PUSH2 0x37E5 JUMP JUMPDEST SWAP2 POP POP SWAP3 POP SWAP3 POP SWAP3 JUMP JUMPDEST PUSH1 0x0 PUSH1 0x20 DUP3 DUP5 SUB SLT ISZERO PUSH2 0x3B51 JUMPI PUSH2 0x3B50 PUSH2 0x472B JUMP JUMPDEST JUMPDEST PUSH1 0x0 PUSH2 0x3B5F DUP5 DUP3 DUP6 ADD PUSH2 0x37A6 JUMP JUMPDEST SWAP2 POP POP SWAP3 SWAP2 POP POP JUMP JUMPDEST PUSH1 0x0 PUSH1 0x20 DUP3 DUP5 SUB SLT ISZERO PUSH2 0x3B7E JUMPI PUSH2 0x3B7D PUSH2 0x472B JUMP JUMPDEST JUMPDEST PUSH1 0x0 PUSH2 0x3B8C DUP5 DUP3 DUP6 ADD PUSH2 0x37BB JUMP JUMPDEST SWAP2 POP POP SWAP3 SWAP2 POP POP JUMP JUMPDEST PUSH1 0x0 PUSH1 0x20 DUP3 DUP5 SUB SLT ISZERO PUSH2 0x3BAB JUMPI PUSH2 0x3BAA PUSH2 0x472B JUMP JUMPDEST JUMPDEST PUSH1 0x0 PUSH2 0x3BB9 DUP5 DUP3 DUP6 ADD PUSH2 0x37E5 JUMP JUMPDEST SWAP2 POP POP SWAP3 SWAP2 POP POP JUMP JUMPDEST PUSH1 0x0 PUSH1 0x20 DUP3 DUP5 SUB SLT ISZERO PUSH2 0x3BD8 JUMPI PUSH2 0x3BD7 PUSH2 0x472B JUMP JUMPDEST JUMPDEST PUSH1 0x0 PUSH2 0x3BE6 DUP5 DUP3 DUP6 ADD PUSH2 0x37FA JUMP JUMPDEST SWAP2 POP POP SWAP3 SWAP2 POP POP JUMP JUMPDEST PUSH1 0x0 DUP1 PUSH1 0x40 DUP4 DUP6 SUB SLT ISZERO PUSH2 0x3C06 JUMPI PUSH2 0x3C05 PUSH2 0x472B JUMP JUMPDEST JUMPDEST PUSH1 0x0 PUSH2 0x3C14 DUP6 DUP3 DUP7 ADD PUSH2 0x37E5 JUMP JUMPDEST SWAP3 POP POP PUSH1 0x20 PUSH2 0x3C25 DUP6 DUP3 DUP7 ADD PUSH2 0x3791 JUMP JUMPDEST SWAP2 POP POP SWAP3 POP SWAP3 SWAP1 POP JUMP JUMPDEST PUSH1 0x0 DUP1 PUSH1 0x0 PUSH1 0x60 DUP5 DUP7 SUB SLT ISZERO PUSH2 0x3C48 JUMPI PUSH2 0x3C47 PUSH2 0x472B JUMP JUMPDEST JUMPDEST PUSH1 0x0 PUSH2 0x3C56 DUP7 DUP3 DUP8 ADD PUSH2 0x37E5 JUMP JUMPDEST SWAP4 POP POP PUSH1 0x20 PUSH2 0x3C67 DUP7 DUP3 DUP8 ADD PUSH2 0x37E5 JUMP JUMPDEST SWAP3 POP POP PUSH1 0x40 PUSH2 0x3C78 DUP7 DUP3 DUP8 ADD PUSH2 0x3791 JUMP JUMPDEST SWAP2 POP POP SWAP3 POP SWAP3 POP SWAP3 JUMP JUMPDEST PUSH1 0x0 DUP1 PUSH1 0x0 DUP1 PUSH1 0x80 DUP6 DUP8 SUB SLT ISZERO PUSH2 0x3C9C JUMPI PUSH2 0x3C9B PUSH2 0x472B JUMP JUMPDEST JUMPDEST PUSH1 0x0 PUSH2 0x3CAA DUP8 DUP3 DUP9 ADD PUSH2 0x37E5 JUMP JUMPDEST SWAP5 POP POP PUSH1 0x20 PUSH2 0x3CBB DUP8 DUP3 DUP9 ADD PUSH2 0x37E5 JUMP JUMPDEST SWAP4 POP POP PUSH1 0x40 PUSH2 0x3CCC DUP8 DUP3 DUP9 ADD PUSH2 0x37A6 JUMP JUMPDEST SWAP3 POP POP PUSH1 0x60 PUSH2 0x3CDD DUP8 DUP3 DUP9 ADD PUSH2 0x3791 JUMP JUMPDEST SWAP2 POP POP SWAP3 SWAP6 SWAP2 SWAP5 POP SWAP3 POP JUMP JUMPDEST PUSH2 0x3CF2 DUP2 PUSH2 0x45B9 JUMP JUMPDEST DUP3 MSTORE POP POP JUMP JUMPDEST PUSH2 0x3D01 DUP2 PUSH2 0x45CB JUMP JUMPDEST DUP3 MSTORE POP POP JUMP JUMPDEST PUSH2 0x3D10 DUP2 PUSH2 0x45D7 JUMP JUMPDEST DUP3 MSTORE POP POP JUMP JUMPDEST PUSH2 0x3D27 PUSH2 0x3D22 DUP3 PUSH2 0x45D7 JUMP JUMPDEST PUSH2 0x4694 JUMP JUMPDEST DUP3 MSTORE POP POP JUMP JUMPDEST PUSH1 0x0 PUSH2 0x3D38 DUP3 PUSH2 0x42F6 JUMP JUMPDEST PUSH2 0x3D42 DUP2 DUP6 PUSH2 0x430C JUMP JUMPDEST SWAP4 POP PUSH2 0x3D52 DUP2 DUP6 PUSH1 0x20 DUP7 ADD PUSH2 0x4618 JUMP JUMPDEST DUP1 DUP5 ADD SWAP2 POP POP SWAP3 SWAP2 POP POP JUMP JUMPDEST PUSH1 0x0 PUSH2 0x3D69 DUP3 PUSH2 0x4301 JUMP JUMPDEST PUSH2 0x3D73 DUP2 DUP6 PUSH2 0x4317 JUMP JUMPDEST SWAP4 POP PUSH2 0x3D83 DUP2 DUP6 PUSH1 0x20 DUP7 ADD PUSH2 0x4618 JUMP JUMPDEST PUSH2 0x3D8C DUP2 PUSH2 0x4730 JUMP JUMPDEST DUP5 ADD SWAP2 POP POP SWAP3 SWAP2 POP POP JUMP JUMPDEST PUSH1 0x0 PUSH2 0x3DA4 PUSH1 0x15 DUP4 PUSH2 0x4317 JUMP JUMPDEST SWAP2 POP PUSH2 0x3DAF DUP3 PUSH2 0x474E JUMP JUMPDEST PUSH1 0x20 DUP3 ADD SWAP1 POP SWAP2 SWAP1 POP JUMP JUMPDEST PUSH1 0x0 PUSH2 0x3DC7 PUSH1 0x1C DUP4 PUSH2 0x4317 JUMP JUMPDEST SWAP2 POP PUSH2 0x3DD2 DUP3 PUSH2 0x4777 JUMP JUMPDEST PUSH1 0x20 DUP3 ADD SWAP1 POP SWAP2 SWAP1 POP JUMP JUMPDEST PUSH1 0x0 PUSH2 0x3DEA PUSH1 0x2 DUP4 PUSH2 0x4328 JUMP JUMPDEST SWAP2 POP PUSH2 0x3DF5 DUP3 PUSH2 0x47A0 JUMP JUMPDEST PUSH1 0x2 DUP3 ADD SWAP1 POP SWAP2 SWAP1 POP JUMP JUMPDEST PUSH1 0x0 PUSH2 0x3E0D PUSH1 0x14 DUP4 PUSH2 0x4317 JUMP JUMPDEST SWAP2 POP PUSH2 0x3E18 DUP3 PUSH2 0x47C9 JUMP JUMPDEST PUSH1 0x20 DUP3 ADD SWAP1 POP SWAP2 SWAP1 POP JUMP JUMPDEST PUSH1 0x0 PUSH2 0x3E30 PUSH1 0x12 DUP4 PUSH2 0x4317 JUMP JUMPDEST SWAP2 POP PUSH2 0x3E3B DUP3 PUSH2 0x47F2 JUMP JUMPDEST PUSH1 0x20 DUP3 ADD SWAP1 POP SWAP2 SWAP1 POP JUMP JUMPDEST PUSH1 0x0 PUSH2 0x3E53 PUSH1 0xF DUP4 PUSH2 0x4317 JUMP JUMPDEST SWAP2 POP PUSH2 0x3E5E DUP3 PUSH2 0x481B JUMP JUMPDEST PUSH1 0x20 DUP3 ADD SWAP1 POP SWAP2 SWAP1 POP JUMP JUMPDEST PUSH1 0x0 PUSH2 0x3E76 PUSH1 0x6 DUP4 PUSH2 0x4317 JUMP JUMPDEST SWAP2 POP PUSH2 0x3E81 DUP3 PUSH2 0x4844 JUMP JUMPDEST PUSH1 0x20 DUP3 ADD SWAP1 POP SWAP2 SWAP1 POP JUMP JUMPDEST PUSH2 0x3E95 DUP2 PUSH2 0x4601 JUMP JUMPDEST DUP3 MSTORE POP POP JUMP JUMPDEST PUSH2 0x3EA4 DUP2 PUSH2 0x460B JUMP JUMPDEST DUP3 MSTORE POP POP JUMP JUMPDEST PUSH1 0x0 PUSH2 0x3EB6 DUP3 DUP5 PUSH2 0x3D2D JUMP JUMPDEST SWAP2 POP DUP2 SWAP1 POP SWAP3 SWAP2 POP POP JUMP JUMPDEST PUSH1 0x0 PUSH2 0x3ECC DUP3 PUSH2 0x3DDD JUMP JUMPDEST SWAP2 POP PUSH2 0x3ED8 DUP3 DUP6 PUSH2 0x3D16 JUMP JUMPDEST PUSH1 0x20 DUP3 ADD SWAP2 POP PUSH2 0x3EE8 DUP3 DUP5 PUSH2 0x3D16 JUMP JUMPDEST PUSH1 0x20 DUP3 ADD SWAP2 POP DUP2 SWAP1 POP SWAP4 SWAP3 POP POP POP JUMP JUMPDEST PUSH1 0x0 PUSH1 0x20 DUP3 ADD SWAP1 POP PUSH2 0x3F0D PUSH1 0x0 DUP4 ADD DUP5 PUSH2 0x3CE9 JUMP JUMPDEST SWAP3 SWAP2 POP POP JUMP JUMPDEST PUSH1 0x0 PUSH1 0x40 DUP3 ADD SWAP1 POP PUSH2 0x3F28 PUSH1 0x0 DUP4 ADD DUP6 PUSH2 0x3CE9 JUMP JUMPDEST PUSH2 0x3F35 PUSH1 0x20 DUP4 ADD DUP5 PUSH2 0x3CE9 JUMP JUMPDEST SWAP4 SWAP3 POP POP POP JUMP JUMPDEST PUSH1 0x0 PUSH1 0x80 DUP3 ADD SWAP1 POP PUSH2 0x3F51 PUSH1 0x0 DUP4 ADD DUP8 PUSH2 0x3CE9 JUMP JUMPDEST PUSH2 0x3F5E PUSH1 0x20 DUP4 ADD DUP7 PUSH2 0x3CE9 JUMP JUMPDEST PUSH2 0x3F6B PUSH1 0x40 DUP4 ADD DUP6 PUSH2 0x3CE9 JUMP JUMPDEST PUSH2 0x3F78 PUSH1 0x60 DUP4 ADD DUP5 PUSH2 0x3E8C JUMP JUMPDEST SWAP6 SWAP5 POP POP POP POP POP JUMP JUMPDEST PUSH1 0x0 PUSH1 0x80 DUP3 ADD SWAP1 POP PUSH2 0x3F96 PUSH1 0x0 DUP4 ADD DUP8 PUSH2 0x3CE9 JUMP JUMPDEST PUSH2 0x3FA3 PUSH1 0x20 DUP4 ADD DUP7 PUSH2 0x3CF8 JUMP JUMPDEST PUSH2 0x3FB0 PUSH1 0x40 DUP4 ADD DUP6 PUSH2 0x3E8C JUMP JUMPDEST PUSH2 0x3FBD PUSH1 0x60 DUP4 ADD DUP5 PUSH2 0x3E8C JUMP JUMPDEST SWAP6 SWAP5 POP POP POP POP POP JUMP JUMPDEST PUSH1 0x0 PUSH1 0x40 DUP3 ADD SWAP1 POP PUSH2 0x3FDB PUSH1 0x0 DUP4 ADD DUP6 PUSH2 0x3CE9 JUMP JUMPDEST PUSH2 0x3FE8 PUSH1 0x20 DUP4 ADD DUP5 PUSH2 0x3E8C JUMP JUMPDEST SWAP4 SWAP3 POP POP POP JUMP JUMPDEST PUSH1 0x0 PUSH1 0x20 DUP3 ADD SWAP1 POP PUSH2 0x4004 PUSH1 0x0 DUP4 ADD DUP5 PUSH2 0x3CF8 JUMP JUMPDEST SWAP3 SWAP2 POP POP JUMP JUMPDEST PUSH1 0x0 PUSH1 0x20 DUP3 ADD SWAP1 POP PUSH2 0x401F PUSH1 0x0 DUP4 ADD DUP5 PUSH2 0x3D07 JUMP JUMPDEST SWAP3 SWAP2 POP POP JUMP JUMPDEST PUSH1 0x0 PUSH1 0xC0 DUP3 ADD SWAP1 POP PUSH2 0x403A PUSH1 0x0 DUP4 ADD DUP10 PUSH2 0x3D07 JUMP JUMPDEST PUSH2 0x4047 PUSH1 0x20 DUP4 ADD DUP9 PUSH2 0x3CE9 JUMP JUMPDEST PUSH2 0x4054 PUSH1 0x40 DUP4 ADD DUP8 PUSH2 0x3CE9 JUMP JUMPDEST PUSH2 0x4061 PUSH1 0x60 DUP4 ADD DUP7 PUSH2 0x3E8C JUMP JUMPDEST PUSH2 0x406E PUSH1 0x80 DUP4 ADD DUP6 PUSH2 0x3E8C JUMP JUMPDEST PUSH2 0x407B PUSH1 0xA0 DUP4 ADD DUP5 PUSH2 0x3E8C JUMP JUMPDEST SWAP8 SWAP7 POP POP POP POP POP POP POP JUMP JUMPDEST PUSH1 0x0 PUSH1 0x80 DUP3 ADD SWAP1 POP PUSH2 0x409B PUSH1 0x0 DUP4 ADD DUP8 PUSH2 0x3D07 JUMP JUMPDEST PUSH2 0x40A8 PUSH1 0x20 DUP4 ADD DUP7 PUSH2 0x3E9B JUMP JUMPDEST PUSH2 0x40B5 PUSH1 0x40 DUP4 ADD DUP6 PUSH2 0x3D07 JUMP JUMPDEST PUSH2 0x40C2 PUSH1 0x60 DUP4 ADD DUP5 PUSH2 0x3D07 JUMP JUMPDEST SWAP6 SWAP5 POP POP POP POP POP JUMP JUMPDEST PUSH1 0x0 PUSH1 0x20 DUP3 ADD SWAP1 POP DUP2 DUP2 SUB PUSH1 0x0 DUP4 ADD MSTORE PUSH2 0x40E5 DUP2 DUP5 PUSH2 0x3D5E JUMP JUMPDEST SWAP1 POP SWAP3 SWAP2 POP POP JUMP JUMPDEST PUSH1 0x0 PUSH1 0x20 DUP3 ADD SWAP1 POP DUP2 DUP2 SUB PUSH1 0x0 DUP4 ADD MSTORE PUSH2 0x4106 DUP2 PUSH2 0x3D97 JUMP JUMPDEST SWAP1 POP SWAP2 SWAP1 POP JUMP JUMPDEST PUSH1 0x0 PUSH1 0x20 DUP3 ADD SWAP1 POP DUP2 DUP2 SUB PUSH1 0x0 DUP4 ADD MSTORE PUSH2 0x4126 DUP2 PUSH2 0x3DBA JUMP JUMPDEST SWAP1 POP SWAP2 SWAP1 POP JUMP JUMPDEST PUSH1 0x0 PUSH1 0x20 DUP3 ADD SWAP1 POP DUP2 DUP2 SUB PUSH1 0x0 DUP4 ADD MSTORE PUSH2 0x4146 DUP2 PUSH2 0x3E00 JUMP JUMPDEST SWAP1 POP SWAP2 SWAP1 POP JUMP JUMPDEST PUSH1 0x0 PUSH1 0x20 DUP3 ADD SWAP1 POP DUP2 DUP2 SUB PUSH1 0x0 DUP4 ADD MSTORE PUSH2 0x4166 DUP2 PUSH2 0x3E23 JUMP JUMPDEST SWAP1 POP SWAP2 SWAP1 POP JUMP JUMPDEST PUSH1 0x0 PUSH1 0x20 DUP3 ADD SWAP1 POP DUP2 DUP2 SUB PUSH1 0x0 DUP4 ADD MSTORE PUSH2 0x4186 DUP2 PUSH2 0x3E46 JUMP JUMPDEST SWAP1 POP SWAP2 SWAP1 POP JUMP JUMPDEST PUSH1 0x0 PUSH1 0x20 DUP3 ADD SWAP1 POP DUP2 DUP2 SUB PUSH1 0x0 DUP4 ADD MSTORE PUSH2 0x41A6 DUP2 PUSH2 0x3E69 JUMP JUMPDEST SWAP1 POP SWAP2 SWAP1 POP JUMP JUMPDEST PUSH1 0x0 PUSH1 0x20 DUP3 ADD SWAP1 POP PUSH2 0x41C2 PUSH1 0x0 DUP4 ADD DUP5 PUSH2 0x3E8C JUMP JUMPDEST SWAP3 SWAP2 POP POP JUMP JUMPDEST PUSH1 0x0 PUSH1 0x60 DUP3 ADD SWAP1 POP PUSH2 0x41DD PUSH1 0x0 DUP4 ADD DUP7 PUSH2 0x3E8C JUMP JUMPDEST PUSH2 0x41EA PUSH1 0x20 DUP4 ADD DUP6 PUSH2 0x3CE9 JUMP JUMPDEST PUSH2 0x41F7 PUSH1 0x40 DUP4 ADD DUP5 PUSH2 0x3CE9 JUMP JUMPDEST SWAP5 SWAP4 POP POP POP POP JUMP JUMPDEST PUSH1 0x0 PUSH1 0x60 DUP3 ADD SWAP1 POP PUSH2 0x4214 PUSH1 0x0 DUP4 ADD DUP7 PUSH2 0x3E8C JUMP JUMPDEST PUSH2 0x4221 PUSH1 0x20 DUP4 ADD DUP6 PUSH2 0x3CF8 JUMP JUMPDEST PUSH2 0x422E PUSH1 0x40 DUP4 ADD DUP5 PUSH2 0x3E8C JUMP JUMPDEST SWAP5 SWAP4 POP POP POP POP JUMP JUMPDEST PUSH1 0x0 PUSH1 0x40 DUP3 ADD SWAP1 POP PUSH2 0x424B PUSH1 0x0 DUP4 ADD DUP6 PUSH2 0x3E8C JUMP JUMPDEST PUSH2 0x4258 PUSH1 0x20 DUP4 ADD DUP5 PUSH2 0x3E8C JUMP JUMPDEST SWAP4 SWAP3 POP POP POP JUMP JUMPDEST PUSH1 0x0 PUSH1 0x60 DUP3 ADD SWAP1 POP PUSH2 0x4274 PUSH1 0x0 DUP4 ADD DUP7 PUSH2 0x3E8C JUMP JUMPDEST PUSH2 0x4281 PUSH1 0x20 DUP4 ADD DUP6 PUSH2 0x3E8C JUMP JUMPDEST PUSH2 0x428E PUSH1 0x40 DUP4 ADD DUP5 PUSH2 0x3CE9 JUMP JUMPDEST SWAP5 SWAP4 POP POP POP POP JUMP JUMPDEST PUSH1 0x0 PUSH1 0x80 DUP3 ADD SWAP1 POP PUSH2 0x42AB PUSH1 0x0 DUP4 ADD DUP8 PUSH2 0x3E8C JUMP JUMPDEST PUSH2 0x42B8 PUSH1 0x20 DUP4 ADD DUP7 PUSH2 0x3E8C JUMP JUMPDEST PUSH2 0x42C5 PUSH1 0x40 DUP4 ADD DUP6 PUSH2 0x3CF8 JUMP JUMPDEST PUSH2 0x42D2 PUSH1 0x60 DUP4 ADD DUP5 PUSH2 0x3CE9 JUMP JUMPDEST SWAP6 SWAP5 POP POP POP POP POP JUMP JUMPDEST PUSH1 0x0 PUSH1 0x20 DUP3 ADD SWAP1 POP PUSH2 0x42F0 PUSH1 0x0 DUP4 ADD DUP5 PUSH2 0x3E9B JUMP JUMPDEST SWAP3 SWAP2 POP POP JUMP JUMPDEST PUSH1 0x0 DUP2 MLOAD SWAP1 POP SWAP2 SWAP1 POP JUMP JUMPDEST PUSH1 0x0 DUP2 MLOAD SWAP1 POP SWAP2 SWAP1 POP JUMP JUMPDEST PUSH1 0x0 DUP2 SWAP1 POP SWAP3 SWAP2 POP POP JUMP JUMPDEST PUSH1 0x0 DUP3 DUP3 MSTORE PUSH1 0x20 DUP3 ADD SWAP1 POP SWAP3 SWAP2 POP POP JUMP JUMPDEST PUSH1 0x0 DUP2 SWAP1 POP SWAP3 SWAP2 POP POP JUMP JUMPDEST PUSH1 0x0 PUSH2 0x433E DUP3 PUSH2 0x4601 JUMP JUMPDEST SWAP2 POP PUSH2 0x4349 DUP4 PUSH2 0x4601 JUMP JUMPDEST SWAP3 POP DUP3 PUSH32 0xFFFFFFFFFFFFFFFFFFFFFFFFFFFFFFFFFFFFFFFFFFFFFFFFFFFFFFFFFFFFFFFF SUB DUP3 GT ISZERO PUSH2 0x437E JUMPI PUSH2 0x437D PUSH2 0x469E JUMP JUMPDEST JUMPDEST DUP3 DUP3 ADD SWAP1 POP SWAP3 SWAP2 POP POP JUMP JUMPDEST PUSH1 0x0 PUSH2 0x4394 DUP3 PUSH2 0x4601 JUMP JUMPDEST SWAP2 POP PUSH2 0x439F DUP4 PUSH2 0x4601 JUMP JUMPDEST SWAP3 POP DUP3 PUSH2 0x43AF JUMPI PUSH2 0x43AE PUSH2 0x46CD JUMP JUMPDEST JUMPDEST DUP3 DUP3 DIV SWAP1 POP SWAP3 SWAP2 POP POP JUMP JUMPDEST PUSH1 0x0 DUP1 DUP3 SWAP2 POP DUP4 SWAP1 POP JUMPDEST PUSH1 0x1 DUP6 GT ISZERO PUSH2 0x4404 JUMPI DUP1 DUP7 DIV DUP2 GT ISZERO PUSH2 0x43E0 JUMPI PUSH2 0x43DF PUSH2 0x469E JUMP JUMPDEST JUMPDEST PUSH1 0x1 DUP6 AND ISZERO PUSH2 0x43EF JUMPI DUP1 DUP3 MUL SWAP2 POP JUMPDEST DUP1 DUP2 MUL SWAP1 POP PUSH2 0x43FD DUP6 PUSH2 0x4741 JUMP JUMPDEST SWAP5 POP PUSH2 0x43C4 JUMP JUMPDEST SWAP5 POP SWAP5 SWAP3 POP POP POP JUMP JUMPDEST PUSH1 0x0 PUSH2 0x4418 DUP3 PUSH2 0x4601 JUMP JUMPDEST SWAP2 POP PUSH2 0x4423 DUP4 PUSH2 0x460B JUMP JUMPDEST SWAP3 POP PUSH2 0x4450 PUSH32 0xFFFFFFFFFFFFFFFFFFFFFFFFFFFFFFFFFFFFFFFFFFFFFFFFFFFFFFFFFFFFFFFF DUP5 DUP5 PUSH2 0x4458 JUMP JUMPDEST SWAP1 POP SWAP3 SWAP2 POP POP JUMP JUMPDEST PUSH1 0x0 DUP3 PUSH2 0x4468 JUMPI PUSH1 0x1 SWAP1 POP PUSH2 0x4524 JUMP JUMPDEST DUP2 PUSH2 0x4476 JUMPI PUSH1 0x0 SWAP1 POP PUSH2 0x4524 JUMP JUMPDEST DUP2 PUSH1 0x1 DUP2 EQ PUSH2 0x448C JUMPI PUSH1 0x2 DUP2 EQ PUSH2 0x4496 JUMPI PUSH2 0x44C5 JUMP JUMPDEST PUSH1 0x1 SWAP2 POP POP PUSH2 0x4524 JUMP JUMPDEST PUSH1 0xFF DUP5 GT ISZERO PUSH2 0x44A8 JUMPI PUSH2 0x44A7 PUSH2 0x469E JUMP JUMPDEST JUMPDEST DUP4 PUSH1 0x2 EXP SWAP2 POP DUP5 DUP3 GT ISZERO PUSH2 0x44BF JUMPI PUSH2 0x44BE PUSH2 0x469E JUMP JUMPDEST JUMPDEST POP PUSH2 0x4524 JUMP JUMPDEST POP PUSH1 0x20 DUP4 LT PUSH2 0x133 DUP4 LT AND PUSH1 0x4E DUP5 LT PUSH1 0xB DUP5 LT AND OR ISZERO PUSH2 0x44FA JUMPI DUP3 DUP3 EXP SWAP1 POP DUP4 DUP2 GT ISZERO PUSH2 0x44F5 JUMPI PUSH2 0x44F4 PUSH2 0x469E JUMP JUMPDEST JUMPDEST PUSH2 0x4524 JUMP JUMPDEST PUSH2 0x4507 DUP5 DUP5 DUP5 PUSH1 0x1 PUSH2 0x43BA JUMP JUMPDEST SWAP3 POP SWAP1 POP DUP2 DUP5 DIV DUP2 GT ISZERO PUSH2 0x451E JUMPI PUSH2 0x451D PUSH2 0x469E JUMP JUMPDEST JUMPDEST DUP2 DUP2 MUL SWAP1 POP JUMPDEST SWAP4 SWAP3 POP POP POP JUMP JUMPDEST PUSH1 0x0 PUSH2 0x4536 DUP3 PUSH2 0x4601 JUMP JUMPDEST SWAP2 POP PUSH2 0x4541 DUP4 PUSH2 0x4601 JUMP JUMPDEST SWAP3 POP DUP2 PUSH32 0xFFFFFFFFFFFFFFFFFFFFFFFFFFFFFFFFFFFFFFFFFFFFFFFFFFFFFFFFFFFFFFFF DIV DUP4 GT DUP3 ISZERO ISZERO AND ISZERO PUSH2 0x457A JUMPI PUSH2 0x4579 PUSH2 0x469E JUMP JUMPDEST JUMPDEST DUP3 DUP3 MUL SWAP1 POP SWAP3 SWAP2 POP POP JUMP JUMPDEST PUSH1 0x0 PUSH2 0x4590 DUP3 PUSH2 0x4601 JUMP JUMPDEST SWAP2 POP PUSH2 0x459B DUP4 PUSH2 0x4601 JUMP JUMPDEST SWAP3 POP DUP3 DUP3 LT ISZERO PUSH2 0x45AE JUMPI PUSH2 0x45AD PUSH2 0x469E JUMP JUMPDEST JUMPDEST DUP3 DUP3 SUB SWAP1 POP SWAP3 SWAP2 POP POP JUMP JUMPDEST PUSH1 0x0 PUSH2 0x45C4 DUP3 PUSH2 0x45E1 JUMP JUMPDEST SWAP1 POP SWAP2 SWAP1 POP JUMP JUMPDEST PUSH1 0x0 DUP2 ISZERO ISZERO SWAP1 POP SWAP2 SWAP1 POP JUMP JUMPDEST PUSH1 0x0 DUP2 SWAP1 POP SWAP2 SWAP1 POP JUMP JUMPDEST PUSH1 0x0 PUSH20 0xFFFFFFFFFFFFFFFFFFFFFFFFFFFFFFFFFFFFFFFF DUP3 AND SWAP1 POP SWAP2 SWAP1 POP JUMP JUMPDEST PUSH1 0x0 DUP2 SWAP1 POP SWAP2 SWAP1 POP JUMP JUMPDEST PUSH1 0x0 PUSH1 0xFF DUP3 AND SWAP1 POP SWAP2 SWAP1 POP JUMP JUMPDEST PUSH1 0x0 JUMPDEST DUP4 DUP2 LT ISZERO PUSH2 0x4636 JUMPI DUP1 DUP3 ADD MLOAD DUP2 DUP5 ADD MSTORE PUSH1 0x20 DUP2 ADD SWAP1 POP PUSH2 0x461B JUMP JUMPDEST DUP4 DUP2 GT ISZERO PUSH2 0x4645 JUMPI PUSH1 0x0 DUP5 DUP5 ADD MSTORE JUMPDEST POP POP POP POP JUMP JUMPDEST PUSH1 0x0 PUSH2 0x4656 DUP3 PUSH2 0x4601 JUMP JUMPDEST SWAP2 POP PUSH32 0xFFFFFFFFFFFFFFFFFFFFFFFFFFFFFFFFFFFFFFFFFFFFFFFFFFFFFFFFFFFFFFFF DUP3 EQ ISZERO PUSH2 0x4689 JUMPI PUSH2 0x4688 PUSH2 0x469E JUMP JUMPDEST JUMPDEST PUSH1 0x1 DUP3 ADD SWAP1 POP SWAP2 SWAP1 POP JUMP JUMPDEST PUSH1 0x0 DUP2 SWAP1 POP SWAP2 SWAP1 POP JUMP JUMPDEST PUSH32 0x4E487B7100000000000000000000000000000000000000000000000000000000 PUSH1 0x0 MSTORE PUSH1 0x11 PUSH1 0x4 MSTORE PUSH1 0x24 PUSH1 0x0 REVERT JUMPDEST PUSH32 0x4E487B7100000000000000000000000000000000000000000000000000000000 PUSH1 0x0 MSTORE PUSH1 0x12 PUSH1 0x4 MSTORE PUSH1 0x24 PUSH1 0x0 REVERT JUMPDEST PUSH32 0x4E487B7100000000000000000000000000000000000000000000000000000000 PUSH1 0x0 MSTORE PUSH1 0x32 PUSH1 0x4 MSTORE PUSH1 0x24 PUSH1 0x0 REVERT JUMPDEST PUSH1 0x0 DUP1 REVERT JUMPDEST PUSH1 0x0 PUSH1 0x1F NOT PUSH1 0x1F DUP4 ADD AND SWAP1 POP SWAP2 SWAP1 POP JUMP JUMPDEST PUSH1 0x0 DUP2 PUSH1 0x1 SHR SWAP1 POP SWAP2 SWAP1 POP JUMP JUMPDEST PUSH32 0x64732D6D6174682D7375622D756E646572666C6F770000000000000000000000 PUSH1 0x0 DUP3 ADD MSTORE POP JUMP JUMPDEST PUSH32 0x556E697377617056323A20494E56414C49445F5349474E415455524500000000 PUSH1 0x0 DUP3 ADD MSTORE POP JUMP JUMPDEST PUSH32 0x1901000000000000000000000000000000000000000000000000000000000000 PUSH1 0x0 DUP3 ADD MSTORE POP JUMP JUMPDEST PUSH32 0x64732D6D6174682D6164642D6F766572666C6F77000000000000000000000000 PUSH1 0x0 DUP3 ADD MSTORE POP JUMP JUMPDEST PUSH32 0x556E697377617056323A20455850495245440000000000000000000000000000 PUSH1 0x0 DUP3 ADD MSTORE POP JUMP JUMPDEST PUSH32 0x5452414E534645525F4641494C45440000000000000000000000000000000000 PUSH1 0x0 DUP3 ADD MSTORE POP JUMP JUMPDEST PUSH32 0x4C4F434B45440000000000000000000000000000000000000000000000000000 PUSH1 0x0 DUP3 ADD MSTORE POP JUMP JUMPDEST PUSH2 0x4876 DUP2 PUSH2 0x45B9 JUMP JUMPDEST DUP2 EQ PUSH2 0x4881 JUMPI PUSH1 0x0 DUP1 REVERT JUMPDEST POP JUMP JUMPDEST PUSH2 0x488D DUP2 PUSH2 0x45CB JUMP JUMPDEST DUP2 EQ PUSH2 0x4898 JUMPI PUSH1 0x0 DUP1 REVERT JUMPDEST POP JUMP JUMPDEST PUSH2 0x48A4 DUP2 PUSH2 0x45D7 JUMP JUMPDEST DUP2 EQ PUSH2 0x48AF JUMPI PUSH1 0x0 DUP1 REVERT JUMPDEST POP JUMP JUMPDEST PUSH2 0x48BB DUP2 PUSH2 0x4601 JUMP JUMPDEST DUP2 EQ PUSH2 0x48C6 JUMPI PUSH1 0x0 DUP1 REVERT JUMPDEST POP JUMP JUMPDEST PUSH2 0x48D2 DUP2 PUSH2 0x460B JUMP JUMPDEST DUP2 EQ PUSH2 0x48DD JUMPI PUSH1 0x0 DUP1 REVERT JUMPDEST POP JUMP INVALID LOG2 PUSH5 0x6970667358 0x22 SLT KECCAK256 DUP15 PUSH23 0x876362D6FF326F01FF23BC8B4ABF77E7BA3D04842C13A3 CALLDATACOPY 0x25 DUP1 PUSH27 0xA7508B64736F6C6343000807003300000000000000000000000000 "
		},
		"gasEstimates": {
			"creation": {
				"codeDepositCost": "3742000",
				"executionCost": "infinite",
				"totalCost": "infinite"
			},
			"external": {
				"B()": "2498",
				"D()": "2498",
				"D0()": "2517",
				"DOMAIN_SEPARATOR()": "2542",
				"PERMIT_TYPEHASH()": "425",
				"_addr()": "2626",
				"addLiquidity(uint256,uint256,address)": "infinite",
				"allowance(address,address)": "infinite",
				"approve(address,uint256)": "infinite",
				"balanceOf(address)": "2948",
				"baserate()": "2584",
				"burnLiquidity(uint256,address)": "infinite",
				"const18()": "2498",
				"coordX()": "2541",
				"coordY()": "2519",
				"debtIndex(address,bool)": "infinite",
				"decimals()": "447",
				"delegateAddMargin(address,address)": "infinite",
				"delegateLiquidate(address,address)": "infinite",
				"delegatePerpClose(uint256,uint256,address)": "infinite",
				"delegatePerpOpen(uint256,uint256,bool,address)": "infinite",
				"delegateWithdrawMargin(address,address,address,uint256)": "infinite",
				"factory()": "2648",
				"getpX()": "2518",
				"getpY()": "2540",
				"initialize(address,address,uint256,uint256,address)": "infinite",
				"lastFunding()": "2561",
				"lastFundingTime()": "2585",
				"lastPayingSide()": "2538",
				"leverageMax()": "2496",
				"liquidationBonus()": "2540",
				"liquidationRate()": "2563",
				"marginIndex(address,uint256)": "infinite",
				"marginLeverage()": "2495",
				"marginReserve(uint256)": "infinite",
				"name()": "infinite",
				"nonces(address)": "2927",
				"peqX()": "2541",
				"peqY()": "2541",
				"permit(address,address,uint256,uint256,uint8,bytes32,bytes32)": "infinite",
				"perpFee()": "2497",
				"priceLocal()": "2520",
				"setBaserate(uint256)": "24823",
				"setFundingrateUpper(uint256)": "24801",
				"setLeverageMargin(uint256)": "24758",
				"setLiquidationBonus(uint256)": "24759",
				"setLiquidationRate(uint256)": "24846",
				"setLogicAddress(address)": "27046",
				"setPerpFee(uint256)": "24780",
				"setSwapFee(uint256)": "24781",
				"setTickrange(uint256)": "24823",
				"skim(address)": "infinite",
				"swap(address,uint256,uint256)": "infinite",
				"swapFee()": "2585",
				"symbol()": "infinite",
				"tickrange()": "2539",
				"tokenX()": "2627",
				"tokenY()": "2669",
				"totalDebtX()": "2584",
				"totalDebtY()": "2519",
				"totalDebttokenX()": "2564",
				"totalDebttokenY()": "2521",
				"totalLiquidity()": "2520",
				"totalSupply()": "2564",
				"transfer(address,uint256)": "infinite",
				"transferFrom(address,address,uint256)": "infinite",
				"trueLiquidX()": "2497",
				"trueLiquidX0()": "2496",
				"trueLiquidY()": "2563",
				"trueLiquidY0()": "2540",
				"twoWhite()": "2605",
				"updateMargintypes(bool)": "26984",
				"upperFunding8H()": "2496"
			},
			"internal": {
				"_delegateTradeXtoY(uint256,bool,uint256)": "infinite",
				"_delegateTradeYtoX(uint256,bool,uint256)": "infinite",
				"_safeTransfer(address,address,uint256)": "infinite",
				"_virtualLiquidityUpdate()": "infinite"
			}
		},
		"methodIdentifiers": {
			"B()": "32e7c5bf",
			"D()": "0f529ba2",
			"D0()": "f738c74e",
			"DOMAIN_SEPARATOR()": "3644e515",
			"PERMIT_TYPEHASH()": "30adf81f",
			"_addr()": "62ab1a77",
			"addLiquidity(uint256,uint256,address)": "87b21efc",
			"allowance(address,address)": "dd62ed3e",
			"approve(address,uint256)": "095ea7b3",
			"balanceOf(address)": "70a08231",
			"baserate()": "ef0348fd",
			"burnLiquidity(uint256,address)": "7e401aca",
			"const18()": "7e11939a",
			"coordX()": "8ca63e6f",
			"coordY()": "8c4008e9",
			"debtIndex(address,bool)": "2c4426ad",
			"decimals()": "313ce567",
			"delegateAddMargin(address,address)": "3fbb0e9b",
			"delegateLiquidate(address,address)": "db35944f",
			"delegatePerpClose(uint256,uint256,address)": "eeea909f",
			"delegatePerpOpen(uint256,uint256,bool,address)": "4bac6c47",
			"delegateWithdrawMargin(address,address,address,uint256)": "e0ba7223",
			"factory()": "c45a0155",
			"getpX()": "77fef068",
			"getpY()": "d873fa7b",
			"initialize(address,address,uint256,uint256,address)": "57fb25cc",
			"lastFunding()": "fcbc49a0",
			"lastFundingTime()": "321d7fa9",
			"lastPayingSide()": "a79e6f9c",
			"leverageMax()": "e07b877a",
			"liquidationBonus()": "7b7c1f4c",
			"liquidationRate()": "a71e8644",
			"marginIndex(address,uint256)": "367401db",
			"marginLeverage()": "f13c7aed",
			"marginReserve(uint256)": "0e449559",
			"name()": "06fdde03",
			"nonces(address)": "7ecebe00",
			"peqX()": "be6571aa",
			"peqY()": "a37b1918",
			"permit(address,address,uint256,uint256,uint8,bytes32,bytes32)": "d505accf",
			"perpFee()": "5784c8c4",
			"priceLocal()": "29baf8d9",
			"setBaserate(uint256)": "b66179de",
			"setFundingrateUpper(uint256)": "ade446d2",
			"setLeverageMargin(uint256)": "2f1d9842",
			"setLiquidationBonus(uint256)": "28842d4f",
			"setLiquidationRate(uint256)": "9cc8df77",
			"setLogicAddress(address)": "fdcfc3ef",
			"setPerpFee(uint256)": "4582b988",
			"setSwapFee(uint256)": "34e19907",
			"setTickrange(uint256)": "7bb1128a",
			"skim(address)": "bc25cf77",
			"swap(address,uint256,uint256)": "9f1d0f59",
			"swapFee()": "54cf2aeb",
			"symbol()": "95d89b41",
			"tickrange()": "f92e82b0",
			"tokenX()": "16dc165b",
			"tokenY()": "b7d19fc4",
			"totalDebtX()": "7bb62450",
			"totalDebtY()": "a01fbbf5",
			"totalDebttokenX()": "803042ac",
			"totalDebttokenY()": "0751a6c8",
			"totalLiquidity()": "15770f92",
			"totalSupply()": "18160ddd",
			"transfer(address,uint256)": "a9059cbb",
			"transferFrom(address,address,uint256)": "23b872dd",
			"trueLiquidX()": "b868504b",
			"trueLiquidX0()": "713370fc",
			"trueLiquidY()": "5091fadd",
			"trueLiquidY0()": "e159394f",
			"twoWhite()": "31fa66b2",
			"updateMargintypes(bool)": "2dafca56",
			"upperFunding8H()": "c556c363"
		}
	},
	"abi": [
		{
			"inputs": [],
			"stateMutability": "nonpayable",
			"type": "constructor"
		},
		{
			"anonymous": false,
			"inputs": [
				{
					"indexed": true,
					"internalType": "address",
					"name": "owner",
					"type": "address"
				},
				{
					"indexed": true,
					"internalType": "address",
					"name": "spender",
					"type": "address"
				},
				{
					"indexed": false,
					"internalType": "uint256",
					"name": "value",
					"type": "uint256"
				}
			],
			"name": "Approval",
			"type": "event"
		},
		{
			"anonymous": false,
			"inputs": [
				{
					"indexed": true,
					"internalType": "address",
					"name": "sender",
					"type": "address"
				},
				{
					"indexed": false,
					"internalType": "uint256",
					"name": "amountX",
					"type": "uint256"
				},
				{
					"indexed": false,
					"internalType": "uint256",
					"name": "amountY",
					"type": "uint256"
				},
				{
					"indexed": true,
					"internalType": "address",
					"name": "to",
					"type": "address"
				}
			],
			"name": "Burn",
			"type": "event"
		},
		{
			"anonymous": false,
			"inputs": [
				{
					"indexed": true,
					"internalType": "address",
					"name": "sender",
					"type": "address"
				},
				{
					"indexed": false,
					"internalType": "uint256",
					"name": "amountX",
					"type": "uint256"
				},
				{
					"indexed": false,
					"internalType": "uint256",
					"name": "amountY",
					"type": "uint256"
				}
			],
			"name": "Mint",
			"type": "event"
		},
		{
			"anonymous": false,
			"inputs": [
				{
					"indexed": true,
					"internalType": "address",
					"name": "sender",
					"type": "address"
				},
				{
					"indexed": false,
					"internalType": "uint256",
					"name": "amountXIn",
					"type": "uint256"
				},
				{
					"indexed": false,
					"internalType": "uint256",
					"name": "amountYIn",
					"type": "uint256"
				},
				{
					"indexed": false,
					"internalType": "uint256",
					"name": "amountXOut",
					"type": "uint256"
				},
				{
					"indexed": false,
					"internalType": "uint256",
					"name": "amountYOut",
					"type": "uint256"
				},
				{
					"indexed": true,
					"internalType": "address",
					"name": "to",
					"type": "address"
				}
			],
			"name": "Swap",
			"type": "event"
		},
		{
			"anonymous": false,
			"inputs": [
				{
					"indexed": true,
					"internalType": "address",
					"name": "from",
					"type": "address"
				},
				{
					"indexed": true,
					"internalType": "address",
					"name": "to",
					"type": "address"
				},
				{
					"indexed": false,
					"internalType": "uint256",
					"name": "value",
					"type": "uint256"
				}
			],
			"name": "Transfer",
			"type": "event"
		},
		{
			"inputs": [],
			"name": "B",
			"outputs": [
				{
					"internalType": "uint256",
					"name": "",
					"type": "uint256"
				}
			],
			"stateMutability": "view",
			"type": "function"
		},
		{
			"inputs": [],
			"name": "D",
			"outputs": [
				{
					"internalType": "uint256",
					"name": "",
					"type": "uint256"
				}
			],
			"stateMutability": "view",
			"type": "function"
		},
		{
			"inputs": [],
			"name": "D0",
			"outputs": [
				{
					"internalType": "uint256",
					"name": "",
					"type": "uint256"
				}
			],
			"stateMutability": "view",
			"type": "function"
		},
		{
			"inputs": [],
			"name": "DOMAIN_SEPARATOR",
			"outputs": [
				{
					"internalType": "bytes32",
					"name": "",
					"type": "bytes32"
				}
			],
			"stateMutability": "view",
			"type": "function"
		},
		{
			"inputs": [],
			"name": "PERMIT_TYPEHASH",
			"outputs": [
				{
					"internalType": "bytes32",
					"name": "",
					"type": "bytes32"
				}
			],
			"stateMutability": "view",
			"type": "function"
		},
		{
			"inputs": [],
			"name": "_addr",
			"outputs": [
				{
					"internalType": "address",
					"name": "",
					"type": "address"
				}
			],
			"stateMutability": "view",
			"type": "function"
		},
		{
			"inputs": [
				{
					"internalType": "uint256",
					"name": "addX",
					"type": "uint256"
				},
				{
					"internalType": "uint256",
					"name": "addY",
					"type": "uint256"
				},
				{
					"internalType": "address",
					"name": "to",
					"type": "address"
				}
			],
			"name": "addLiquidity",
			"outputs": [
				{
					"internalType": "uint256",
					"name": "liquidity",
					"type": "uint256"
				}
			],
			"stateMutability": "nonpayable",
			"type": "function"
		},
		{
			"inputs": [
				{
					"internalType": "address",
					"name": "",
					"type": "address"
				},
				{
					"internalType": "address",
					"name": "",
					"type": "address"
				}
			],
			"name": "allowance",
			"outputs": [
				{
					"internalType": "uint256",
					"name": "",
					"type": "uint256"
				}
			],
			"stateMutability": "view",
			"type": "function"
		},
		{
			"inputs": [
				{
					"internalType": "address",
					"name": "spender",
					"type": "address"
				},
				{
					"internalType": "uint256",
					"name": "value",
					"type": "uint256"
				}
			],
			"name": "approve",
			"outputs": [
				{
					"internalType": "bool",
					"name": "",
					"type": "bool"
				}
			],
			"stateMutability": "nonpayable",
			"type": "function"
		},
		{
			"inputs": [
				{
					"internalType": "address",
					"name": "",
					"type": "address"
				}
			],
			"name": "balanceOf",
			"outputs": [
				{
					"internalType": "uint256",
					"name": "",
					"type": "uint256"
				}
			],
			"stateMutability": "view",
			"type": "function"
		},
		{
			"inputs": [],
			"name": "baserate",
			"outputs": [
				{
					"internalType": "uint256",
					"name": "",
					"type": "uint256"
				}
			],
			"stateMutability": "view",
			"type": "function"
		},
		{
			"inputs": [
				{
					"internalType": "uint256",
					"name": "liquidity",
					"type": "uint256"
				},
				{
					"internalType": "address",
					"name": "to",
					"type": "address"
				}
			],
			"name": "burnLiquidity",
			"outputs": [
				{
					"internalType": "uint256",
					"name": "burnX",
					"type": "uint256"
				},
				{
					"internalType": "uint256",
					"name": "burnY",
					"type": "uint256"
				}
			],
			"stateMutability": "nonpayable",
			"type": "function"
		},
		{
			"inputs": [],
			"name": "const18",
			"outputs": [
				{
					"internalType": "uint256",
					"name": "",
					"type": "uint256"
				}
			],
			"stateMutability": "view",
			"type": "function"
		},
		{
			"inputs": [],
			"name": "coordX",
			"outputs": [
				{
					"internalType": "uint256",
					"name": "",
					"type": "uint256"
				}
			],
			"stateMutability": "view",
			"type": "function"
		},
		{
			"inputs": [],
			"name": "coordY",
			"outputs": [
				{
					"internalType": "uint256",
					"name": "",
					"type": "uint256"
				}
			],
			"stateMutability": "view",
			"type": "function"
		},
		{
			"inputs": [
				{
					"internalType": "address",
					"name": "",
					"type": "address"
				},
				{
					"internalType": "bool",
					"name": "",
					"type": "bool"
				}
			],
			"name": "debtIndex",
			"outputs": [
				{
					"internalType": "address",
					"name": "user_ID",
					"type": "address"
				},
				{
					"internalType": "bool",
					"name": "token_ID",
					"type": "bool"
				},
				{
					"internalType": "uint256",
					"name": "debttokenAmount",
					"type": "uint256"
				},
				{
					"internalType": "uint256",
					"name": "positionAmount",
					"type": "uint256"
				}
			],
			"stateMutability": "view",
			"type": "function"
		},
		{
			"inputs": [],
			"name": "decimals",
			"outputs": [
				{
					"internalType": "uint8",
					"name": "",
					"type": "uint8"
				}
			],
			"stateMutability": "view",
			"type": "function"
		},
		{
			"inputs": [
				{
					"internalType": "address",
					"name": "tokenID",
					"type": "address"
				},
				{
					"internalType": "address",
					"name": "userID",
					"type": "address"
				}
			],
			"name": "delegateAddMargin",
			"outputs": [],
			"stateMutability": "nonpayable",
			"type": "function"
		},
		{
			"inputs": [
				{
					"internalType": "address",
					"name": "userID",
					"type": "address"
				},
				{
					"internalType": "address",
					"name": "_to",
					"type": "address"
				}
			],
			"name": "delegateLiquidate",
			"outputs": [],
			"stateMutability": "nonpayable",
			"type": "function"
		},
		{
			"inputs": [
				{
					"internalType": "uint256",
					"name": "deltaX",
					"type": "uint256"
				},
				{
					"internalType": "uint256",
					"name": "deltaY",
					"type": "uint256"
				},
				{
					"internalType": "address",
					"name": "userID",
					"type": "address"
				}
			],
			"name": "delegatePerpClose",
			"outputs": [],
			"stateMutability": "nonpayable",
			"type": "function"
		},
		{
			"inputs": [
				{
					"internalType": "uint256",
					"name": "deltaX",
					"type": "uint256"
				},
				{
					"internalType": "uint256",
					"name": "deltaY",
					"type": "uint256"
				},
				{
					"internalType": "bool",
					"name": "XtoY",
					"type": "bool"
				},
				{
					"internalType": "address",
					"name": "userID",
					"type": "address"
				}
			],
			"name": "delegatePerpOpen",
			"outputs": [],
			"stateMutability": "nonpayable",
			"type": "function"
		},
		{
			"inputs": [
				{
					"internalType": "address",
					"name": "userID",
					"type": "address"
				},
				{
					"internalType": "address",
					"name": "tokenID",
					"type": "address"
				},
				{
					"internalType": "address",
					"name": "to",
					"type": "address"
				},
				{
					"internalType": "uint256",
					"name": "amount",
					"type": "uint256"
				}
			],
			"name": "delegateWithdrawMargin",
			"outputs": [],
			"stateMutability": "nonpayable",
			"type": "function"
		},
		{
			"inputs": [],
			"name": "factory",
			"outputs": [
				{
					"internalType": "address",
					"name": "",
					"type": "address"
				}
			],
			"stateMutability": "view",
			"type": "function"
		},
		{
			"inputs": [],
			"name": "getpX",
			"outputs": [
				{
					"internalType": "uint256",
					"name": "",
					"type": "uint256"
				}
			],
			"stateMutability": "view",
			"type": "function"
		},
		{
			"inputs": [],
			"name": "getpY",
			"outputs": [
				{
					"internalType": "uint256",
					"name": "",
					"type": "uint256"
				}
			],
			"stateMutability": "view",
			"type": "function"
		},
		{
			"inputs": [
				{
					"internalType": "address",
					"name": "_tokenX",
					"type": "address"
				},
				{
					"internalType": "address",
					"name": "_tokenY",
					"type": "address"
				},
				{
					"internalType": "uint256",
					"name": "addX",
					"type": "uint256"
				},
				{
					"internalType": "uint256",
					"name": "addY",
					"type": "uint256"
				},
				{
					"internalType": "address",
					"name": "to",
					"type": "address"
				}
			],
			"name": "initialize",
			"outputs": [],
			"stateMutability": "nonpayable",
			"type": "function"
		},
		{
			"inputs": [],
			"name": "lastFunding",
			"outputs": [
				{
					"internalType": "uint256",
					"name": "",
					"type": "uint256"
				}
			],
			"stateMutability": "view",
			"type": "function"
		},
		{
			"inputs": [],
			"name": "lastFundingTime",
			"outputs": [
				{
					"internalType": "uint256",
					"name": "",
					"type": "uint256"
				}
			],
			"stateMutability": "view",
			"type": "function"
		},
		{
			"inputs": [],
			"name": "lastPayingSide",
			"outputs": [
				{
					"internalType": "bool",
					"name": "",
					"type": "bool"
				}
			],
			"stateMutability": "view",
			"type": "function"
		},
		{
			"inputs": [],
			"name": "leverageMax",
			"outputs": [
				{
					"internalType": "uint256",
					"name": "",
					"type": "uint256"
				}
			],
			"stateMutability": "view",
			"type": "function"
		},
		{
			"inputs": [],
			"name": "liquidationBonus",
			"outputs": [
				{
					"internalType": "uint256",
					"name": "",
					"type": "uint256"
				}
			],
			"stateMutability": "view",
			"type": "function"
		},
		{
			"inputs": [],
			"name": "liquidationRate",
			"outputs": [
				{
					"internalType": "uint256",
					"name": "",
					"type": "uint256"
				}
			],
			"stateMutability": "view",
			"type": "function"
		},
		{
			"inputs": [
				{
					"internalType": "address",
					"name": "",
					"type": "address"
				},
				{
					"internalType": "uint256",
					"name": "",
					"type": "uint256"
				}
			],
			"name": "marginIndex",
			"outputs": [
				{
					"internalType": "uint256",
					"name": "",
					"type": "uint256"
				}
			],
			"stateMutability": "view",
			"type": "function"
		},
		{
			"inputs": [],
			"name": "marginLeverage",
			"outputs": [
				{
					"internalType": "uint256",
					"name": "",
					"type": "uint256"
				}
			],
			"stateMutability": "view",
			"type": "function"
		},
		{
			"inputs": [
				{
					"internalType": "uint256",
					"name": "",
					"type": "uint256"
				}
			],
			"name": "marginReserve",
			"outputs": [
				{
					"internalType": "uint256",
					"name": "",
					"type": "uint256"
				}
			],
			"stateMutability": "view",
			"type": "function"
		},
		{
			"inputs": [],
			"name": "name",
			"outputs": [
				{
					"internalType": "string",
					"name": "",
					"type": "string"
				}
			],
			"stateMutability": "view",
			"type": "function"
		},
		{
			"inputs": [
				{
					"internalType": "address",
					"name": "",
					"type": "address"
				}
			],
			"name": "nonces",
			"outputs": [
				{
					"internalType": "uint256",
					"name": "",
					"type": "uint256"
				}
			],
			"stateMutability": "view",
			"type": "function"
		},
		{
			"inputs": [],
			"name": "peqX",
			"outputs": [
				{
					"internalType": "uint256",
					"name": "",
					"type": "uint256"
				}
			],
			"stateMutability": "view",
			"type": "function"
		},
		{
			"inputs": [],
			"name": "peqY",
			"outputs": [
				{
					"internalType": "uint256",
					"name": "",
					"type": "uint256"
				}
			],
			"stateMutability": "view",
			"type": "function"
		},
		{
			"inputs": [
				{
					"internalType": "address",
					"name": "owner",
					"type": "address"
				},
				{
					"internalType": "address",
					"name": "spender",
					"type": "address"
				},
				{
					"internalType": "uint256",
					"name": "value",
					"type": "uint256"
				},
				{
					"internalType": "uint256",
					"name": "deadline",
					"type": "uint256"
				},
				{
					"internalType": "uint8",
					"name": "v",
					"type": "uint8"
				},
				{
					"internalType": "bytes32",
					"name": "r",
					"type": "bytes32"
				},
				{
					"internalType": "bytes32",
					"name": "s",
					"type": "bytes32"
				}
			],
			"name": "permit",
			"outputs": [],
			"stateMutability": "nonpayable",
			"type": "function"
		},
		{
			"inputs": [],
			"name": "perpFee",
			"outputs": [
				{
					"internalType": "uint256",
					"name": "",
					"type": "uint256"
				}
			],
			"stateMutability": "view",
			"type": "function"
		},
		{
			"inputs": [],
			"name": "priceLocal",
			"outputs": [
				{
					"internalType": "uint256",
					"name": "",
					"type": "uint256"
				}
			],
			"stateMutability": "view",
			"type": "function"
		},
		{
			"inputs": [
				{
					"internalType": "uint256",
					"name": "_baserate",
					"type": "uint256"
				}
			],
			"name": "setBaserate",
			"outputs": [],
			"stateMutability": "nonpayable",
			"type": "function"
		},
		{
			"inputs": [
				{
					"internalType": "uint256",
					"name": "f",
					"type": "uint256"
				}
			],
			"name": "setFundingrateUpper",
			"outputs": [],
			"stateMutability": "nonpayable",
			"type": "function"
		},
		{
			"inputs": [
				{
					"internalType": "uint256",
					"name": "L",
					"type": "uint256"
				}
			],
			"name": "setLeverageMargin",
			"outputs": [],
			"stateMutability": "nonpayable",
			"type": "function"
		},
		{
			"inputs": [
				{
					"internalType": "uint256",
					"name": "_rate",
					"type": "uint256"
				}
			],
			"name": "setLiquidationBonus",
			"outputs": [],
			"stateMutability": "nonpayable",
			"type": "function"
		},
		{
			"inputs": [
				{
					"internalType": "uint256",
					"name": "rate",
					"type": "uint256"
				}
			],
			"name": "setLiquidationRate",
			"outputs": [],
			"stateMutability": "nonpayable",
			"type": "function"
		},
		{
			"inputs": [
				{
					"internalType": "address",
					"name": "addr",
					"type": "address"
				}
			],
			"name": "setLogicAddress",
			"outputs": [],
			"stateMutability": "nonpayable",
			"type": "function"
		},
		{
			"inputs": [
				{
					"internalType": "uint256",
					"name": "_perpFee",
					"type": "uint256"
				}
			],
			"name": "setPerpFee",
			"outputs": [],
			"stateMutability": "nonpayable",
			"type": "function"
		},
		{
			"inputs": [
				{
					"internalType": "uint256",
					"name": "_swapFee",
					"type": "uint256"
				}
			],
			"name": "setSwapFee",
			"outputs": [],
			"stateMutability": "nonpayable",
			"type": "function"
		},
		{
			"inputs": [
				{
					"internalType": "uint256",
					"name": "_tickrange",
					"type": "uint256"
				}
			],
			"name": "setTickrange",
			"outputs": [],
			"stateMutability": "nonpayable",
			"type": "function"
		},
		{
			"inputs": [
				{
					"internalType": "address",
					"name": "to",
					"type": "address"
				}
			],
			"name": "skim",
			"outputs": [],
			"stateMutability": "nonpayable",
			"type": "function"
		},
		{
			"inputs": [
				{
					"internalType": "address",
					"name": "to",
					"type": "address"
				},
				{
					"internalType": "uint256",
					"name": "Xout",
					"type": "uint256"
				},
				{
					"internalType": "uint256",
					"name": "Yout",
					"type": "uint256"
				}
			],
			"name": "swap",
			"outputs": [],
			"stateMutability": "nonpayable",
			"type": "function"
		},
		{
			"inputs": [],
			"name": "swapFee",
			"outputs": [
				{
					"internalType": "uint256",
					"name": "",
					"type": "uint256"
				}
			],
			"stateMutability": "view",
			"type": "function"
		},
		{
			"inputs": [],
			"name": "symbol",
			"outputs": [
				{
					"internalType": "string",
					"name": "",
					"type": "string"
				}
			],
			"stateMutability": "view",
			"type": "function"
		},
		{
			"inputs": [],
			"name": "tickrange",
			"outputs": [
				{
					"internalType": "uint256",
					"name": "",
					"type": "uint256"
				}
			],
			"stateMutability": "view",
			"type": "function"
		},
		{
			"inputs": [],
			"name": "tokenX",
			"outputs": [
				{
					"internalType": "address",
					"name": "",
					"type": "address"
				}
			],
			"stateMutability": "view",
			"type": "function"
		},
		{
			"inputs": [],
			"name": "tokenY",
			"outputs": [
				{
					"internalType": "address",
					"name": "",
					"type": "address"
				}
			],
			"stateMutability": "view",
			"type": "function"
		},
		{
			"inputs": [],
			"name": "totalDebtX",
			"outputs": [
				{
					"internalType": "uint256",
					"name": "",
					"type": "uint256"
				}
			],
			"stateMutability": "view",
			"type": "function"
		},
		{
			"inputs": [],
			"name": "totalDebtY",
			"outputs": [
				{
					"internalType": "uint256",
					"name": "",
					"type": "uint256"
				}
			],
			"stateMutability": "view",
			"type": "function"
		},
		{
			"inputs": [],
			"name": "totalDebttokenX",
			"outputs": [
				{
					"internalType": "uint256",
					"name": "",
					"type": "uint256"
				}
			],
			"stateMutability": "view",
			"type": "function"
		},
		{
			"inputs": [],
			"name": "totalDebttokenY",
			"outputs": [
				{
					"internalType": "uint256",
					"name": "",
					"type": "uint256"
				}
			],
			"stateMutability": "view",
			"type": "function"
		},
		{
			"inputs": [],
			"name": "totalLiquidity",
			"outputs": [
				{
					"internalType": "uint256",
					"name": "",
					"type": "uint256"
				}
			],
			"stateMutability": "view",
			"type": "function"
		},
		{
			"inputs": [],
			"name": "totalSupply",
			"outputs": [
				{
					"internalType": "uint256",
					"name": "",
					"type": "uint256"
				}
			],
			"stateMutability": "view",
			"type": "function"
		},
		{
			"inputs": [
				{
					"internalType": "address",
					"name": "to",
					"type": "address"
				},
				{
					"internalType": "uint256",
					"name": "value",
					"type": "uint256"
				}
			],
			"name": "transfer",
			"outputs": [
				{
					"internalType": "bool",
					"name": "",
					"type": "bool"
				}
			],
			"stateMutability": "nonpayable",
			"type": "function"
		},
		{
			"inputs": [
				{
					"internalType": "address",
					"name": "from",
					"type": "address"
				},
				{
					"internalType": "address",
					"name": "to",
					"type": "address"
				},
				{
					"internalType": "uint256",
					"name": "value",
					"type": "uint256"
				}
			],
			"name": "transferFrom",
			"outputs": [
				{
					"internalType": "bool",
					"name": "",
					"type": "bool"
				}
			],
			"stateMutability": "nonpayable",
			"type": "function"
		},
		{
			"inputs": [],
			"name": "trueLiquidX",
			"outputs": [
				{
					"internalType": "uint256",
					"name": "",
					"type": "uint256"
				}
			],
			"stateMutability": "view",
			"type": "function"
		},
		{
			"inputs": [],
			"name": "trueLiquidX0",
			"outputs": [
				{
					"internalType": "uint256",
					"name": "",
					"type": "uint256"
				}
			],
			"stateMutability": "view",
			"type": "function"
		},
		{
			"inputs": [],
			"name": "trueLiquidY",
			"outputs": [
				{
					"internalType": "uint256",
					"name": "",
					"type": "uint256"
				}
			],
			"stateMutability": "view",
			"type": "function"
		},
		{
			"inputs": [],
			"name": "trueLiquidY0",
			"outputs": [
				{
					"internalType": "uint256",
					"name": "",
					"type": "uint256"
				}
			],
			"stateMutability": "view",
			"type": "function"
		},
		{
			"inputs": [],
			"name": "twoWhite",
			"outputs": [
				{
					"internalType": "bool",
					"name": "",
					"type": "bool"
				}
			],
			"stateMutability": "view",
			"type": "function"
		},
		{
			"inputs": [
				{
					"internalType": "bool",
					"name": "_twoWhite",
					"type": "bool"
				}
			],
			"name": "updateMargintypes",
			"outputs": [],
			"stateMutability": "nonpayable",
			"type": "function"
		},
		{
			"inputs": [],
			"name": "upperFunding8H",
			"outputs": [
				{
					"internalType": "uint256",
					"name": "",
					"type": "uint256"
				}
			],
			"stateMutability": "view",
			"type": "function"
		}
	]
}