{
	"data": {
		"bytecode": {
			"linkReferences": {},
			"object": "6080604052670de0b6b3a7640000601d55600160255534801561002157600080fd5b50614911806100316000396000f3fe608060405234801561001057600080fd5b506004361061027f5760003560e01c80637e11939a1161015c578063b868504b116100ce578063e159394f11610087578063e159394f14610747578063ef0348fd14610765578063f13c7aed14610783578063f738c74e146107a1578063f92e82b0146107bf578063fcbc49a0146107dd5761027f565b8063b868504b14610693578063be6571aa146106b1578063c45a0155146106cf578063c556c363146106ed578063d873fa7b1461070b578063e07b877a146107295761027f565b8063a01fbbf511610120578063a01fbbf5146105e1578063a37b1918146105ff578063a71e86441461061d578063a79e6f9c1461063b578063b340286914610659578063b7d19fc4146106755761027f565b80637e11939a1461054d578063803042ac1461056b57806386b9d81f146105895780638c4008e9146105a55780638ca63e6f146105c35761027f565b80635091fadd116101f557806362ab1a77116101b957806362ab1a771461049b578063713370fc146104b9578063748f00dc146104d757806377fef068146104f35780637b7c1f4c146105115780637bb624501461052f5761027f565b80635091fadd1461040757806354cf2aeb146104255780635784c8c41461044357806360d95a0314610461578063617d3b901461047f5761027f565b806329baf8d91161024757806329baf8d91461032c5780632c4426ad1461034a57806331fa66b21461037d578063321d7fa91461039b57806332e7c5bf146103b9578063367401db146103d75761027f565b80630751a6c8146102845780630e449559146102a25780630f529ba2146102d257806315770f92146102f057806316dc165b1461030e575b600080fd5b61028c6107fb565b6040516102999190614455565b60405180910390f35b6102bc60048036038101906102b7919061417c565b610801565b6040516102c99190614455565b60405180910390f35b6102da61081c565b6040516102e79190614455565b60405180910390f35b6102f8610822565b6040516103059190614455565b60405180910390f35b610316610828565b6040516103239190614371565b60405180910390f35b61033461084e565b6040516103419190614455565b60405180910390f35b610364600480360381019061035f91906140cf565b610854565b604051610374949392919061438c565b60405180910390f35b6103856108be565b60405161039291906143fa565b60405180910390f35b6103a36108d1565b6040516103b09190614455565b60405180910390f35b6103c16108d7565b6040516103ce9190614455565b60405180910390f35b6103f160048036038101906103ec919061410f565b6108dd565b6040516103fe9190614455565b60405180910390f35b61040f610905565b60405161041c9190614455565b60405180910390f35b61042d61090b565b60405161043a9190614455565b60405180910390f35b61044b610911565b6040516104589190614455565b60405180910390f35b610469610917565b6040516104769190614455565b60405180910390f35b610499600480360381019061049491906141fc565b610970565b005b6104a3611887565b6040516104b09190614371565b60405180910390f35b6104c16118ad565b6040516104ce9190614455565b60405180910390f35b6104f160048036038101906104ec919061424f565b6118b3565b005b6104fb6122fe565b6040516105089190614455565b60405180910390f35b610519612304565b6040516105269190614455565b60405180910390f35b61053761230a565b6040516105449190614455565b60405180910390f35b610555612310565b6040516105629190614455565b60405180910390f35b610573612316565b6040516105809190614455565b60405180910390f35b6105a3600480360381019061059e919061408f565b61231c565b005b6105ad6126cd565b6040516105ba9190614455565b60405180910390f35b6105cb6126d3565b6040516105d89190614455565b60405180910390f35b6105e96126d9565b6040516105f69190614455565b60405180910390f35b6106076126df565b6040516106149190614455565b60405180910390f35b6106256126e5565b6040516106329190614455565b60405180910390f35b6106436126eb565b60405161065091906143fa565b60405180910390f35b610673600480360381019061066e91906141a9565b6126fe565b005b61067d61290e565b60405161068a9190614371565b60405180910390f35b61069b612934565b6040516106a89190614455565b60405180910390f35b6106b961293a565b6040516106c69190614455565b60405180910390f35b6106d7612940565b6040516106e49190614371565b60405180910390f35b6106f5612966565b6040516107029190614455565b60405180910390f35b61071361296c565b6040516107209190614455565b60405180910390f35b610731612972565b60405161073e9190614455565b60405180910390f35b61074f612978565b60405161075c9190614455565b60405180910390f35b61076d61297e565b60405161077a9190614455565b60405180910390f35b61078b612984565b6040516107989190614455565b60405180910390f35b6107a961298a565b6040516107b69190614455565b60405180910390f35b6107c7612990565b6040516107d49190614455565b60405180910390f35b6107e5612996565b6040516107f29190614455565b60405180910390f35b60115481565b6026816002811061081157600080fd5b016000915090505481565b60015481565b601b5481565b601860009054906101000a900473ffffffffffffffffffffffffffffffffffffffff1681565b600d5481565b6028602052816000526040600020602052806000526040600020600091509150508060000160009054906101000a900473ffffffffffffffffffffffffffffffffffffffff16908060000160149054906101000a900460ff16908060010154908060020154905084565b602460009054906101000a900460ff1681565b60145481565b60005481565b602960205281600052604060002081600281106108f957600080fd5b01600091509150505481565b600c5481565b60225481565b60235481565b60008061094d600b54600054600554600c54600054671bc16d674ec8000061093f91906146e9565b600654600954600a5461299c565b9050601d5481600254610960919061468f565b61096a91906144ed565b91505090565b6001602554146109b5576040517f08c379a00000000000000000000000000000000000000000000000000000000081526004016109ac90614435565b60405180910390fd5b6000602581905550600082846109cb919061468f565b1480156109e35750600082846109e19190614497565b115b8015610a1157506109f3816129fc565b6109fc82612af0565b610a0583612bc8565b610a0f9190614497565b115b8015610a745750602860008273ffffffffffffffffffffffffffffffffffffffff1673ffffffffffffffffffffffffffffffffffffffff168152602001908152602001600020600080151515158152602001908152602001600020600201548311155b8015610ad85750602860008273ffffffffffffffffffffffffffffffffffffffff1673ffffffffffffffffffffffffffffffffffffffff16815260200190815260200160002060006001151515158152602001908152602001600020600201548211155b610ae157600080fd5b610ae9612c97565b600083111561121e576000610b018460016000612e15565b90506000610bc585602860008673ffffffffffffffffffffffffffffffffffffffff1673ffffffffffffffffffffffffffffffffffffffff1681526020019081526020016000206000600115151515815260200190815260200160002060010154600f54601154602860008973ffffffffffffffffffffffffffffffffffffffff1673ffffffffffffffffffffffffffffffffffffffff16815260200190815260200160002060008015151515815260200190815260200160002060020154613212565b905084602860008573ffffffffffffffffffffffffffffffffffffffff1673ffffffffffffffffffffffffffffffffffffffff1681526020019081526020016000206000801515151581526020019081526020016000206002016000828254610c2e91906146e9565b9250508190555080600f6000828254610c4791906146e9565b92505081905550610d08602860008573ffffffffffffffffffffffffffffffffffffffff1673ffffffffffffffffffffffffffffffffffffffff168152602001908152602001600020600060011515151581526020019081526020016000206001015486602860008773ffffffffffffffffffffffffffffffffffffffff1673ffffffffffffffffffffffffffffffffffffffff1681526020019081526020016000206000801515151581526020019081526020016000206002015461324c565b60116000828254610d1991906146e9565b92505081905550610dda602860008573ffffffffffffffffffffffffffffffffffffffff1673ffffffffffffffffffffffffffffffffffffffff168152602001908152602001600020600060011515151581526020019081526020016000206001015486602860008773ffffffffffffffffffffffffffffffffffffffff1673ffffffffffffffffffffffffffffffffffffffff1681526020019081526020016000206000801515151581526020019081526020016000206002015461324c565b602860008573ffffffffffffffffffffffffffffffffffffffff1673ffffffffffffffffffffffffffffffffffffffff168152602001908152602001600020600060011515151581526020019081526020016000206001016000828254610e4191906146e9565b925050819055508082118015610e6a575060001515602460009054906101000a900460ff161515145b15610ef457610e868183610e7e91906146e9565b60008061326e565b602960008573ffffffffffffffffffffffffffffffffffffffff1673ffffffffffffffffffffffffffffffffffffffff168152602001908152602001600020600060028110610ed857610ed7614803565b5b016000828254610ee89190614497565b92505081905550611217565b8082602960008673ffffffffffffffffffffffffffffffffffffffff1673ffffffffffffffffffffffffffffffffffffffff168152602001908152602001600020600160028110610f4857610f47614803565b5b0154610f549190614497565b118015610f74575060011515602460009054906101000a900460ff161515145b1561103f578082602960008673ffffffffffffffffffffffffffffffffffffffff1673ffffffffffffffffffffffffffffffffffffffff168152602001908152602001600020600160028110610fcd57610fcc614803565b5b0154610fd99190614497565b610fe391906146e9565b602960008573ffffffffffffffffffffffffffffffffffffffff1673ffffffffffffffffffffffffffffffffffffffff16815260200190815260200160002060016002811061103557611034614803565b5b0181905550611216565b611107602960008573ffffffffffffffffffffffffffffffffffffffff1673ffffffffffffffffffffffffffffffffffffffff16815260200190815260200160002060006002811061109457611093614803565b5b01546000602960008773ffffffffffffffffffffffffffffffffffffffff1673ffffffffffffffffffffffffffffffffffffffff1681526020019081526020016000206001600281106110ea576110e9614803565b5b015485856110f891906146e9565b61110291906146e9565b612e15565b602960008573ffffffffffffffffffffffffffffffffffffffff1673ffffffffffffffffffffffffffffffffffffffff16815260200190815260200160002060006002811061115957611158614803565b5b015461116591906146e9565b602960008573ffffffffffffffffffffffffffffffffffffffff1673ffffffffffffffffffffffffffffffffffffffff1681526020019081526020016000206000600281106111b7576111b6614803565b5b01819055506000602960008573ffffffffffffffffffffffffffffffffffffffff1673ffffffffffffffffffffffffffffffffffffffff1681526020019081526020016000206001600281106112105761120f614803565b5b01819055505b5b505061187a565b600061122d836001600061326e565b905060006112f184602860008673ffffffffffffffffffffffffffffffffffffffff1673ffffffffffffffffffffffffffffffffffffffff16815260200190815260200160002060008015151515815260200190815260200160002060010154600e54601054602860008973ffffffffffffffffffffffffffffffffffffffff1673ffffffffffffffffffffffffffffffffffffffff1681526020019081526020016000206000600115151515815260200190815260200160002060020154613212565b905083602860008573ffffffffffffffffffffffffffffffffffffffff1673ffffffffffffffffffffffffffffffffffffffff16815260200190815260200160002060006001151515158152602001908152602001600020600201600082825461135b91906146e9565b9250508190555080600e600082825461137491906146e9565b92505081905550611435602860008573ffffffffffffffffffffffffffffffffffffffff1673ffffffffffffffffffffffffffffffffffffffff1681526020019081526020016000206000801515151581526020019081526020016000206001015485602860008773ffffffffffffffffffffffffffffffffffffffff1673ffffffffffffffffffffffffffffffffffffffff168152602001908152602001600020600060011515151581526020019081526020016000206002015461324c565b6010600082825461144691906146e9565b92505081905550611507602860008573ffffffffffffffffffffffffffffffffffffffff1673ffffffffffffffffffffffffffffffffffffffff1681526020019081526020016000206000801515151581526020019081526020016000206001015485602860008773ffffffffffffffffffffffffffffffffffffffff1673ffffffffffffffffffffffffffffffffffffffff168152602001908152602001600020600060011515151581526020019081526020016000206002015461324c565b602860008573ffffffffffffffffffffffffffffffffffffffff1673ffffffffffffffffffffffffffffffffffffffff168152602001908152602001600020600080151515158152602001908152602001600020600101600082825461156d91906146e9565b925050819055508082602960008673ffffffffffffffffffffffffffffffffffffffff1673ffffffffffffffffffffffffffffffffffffffff1681526020019081526020016000206000600281106115c8576115c7614803565b5b01546115d49190614497565b11156116a0578082602960008673ffffffffffffffffffffffffffffffffffffffff1673ffffffffffffffffffffffffffffffffffffffff16815260200190815260200160002060006002811061162e5761162d614803565b5b015461163a9190614497565b61164491906146e9565b602960008573ffffffffffffffffffffffffffffffffffffffff1673ffffffffffffffffffffffffffffffffffffffff16815260200190815260200160002060006002811061169657611695614803565b5b0181905550611877565b611768602960008573ffffffffffffffffffffffffffffffffffffffff1673ffffffffffffffffffffffffffffffffffffffff1681526020019081526020016000206001600281106116f5576116f4614803565b5b01546000602960008773ffffffffffffffffffffffffffffffffffffffff1673ffffffffffffffffffffffffffffffffffffffff16815260200190815260200160002060006002811061174b5761174a614803565b5b0154858561175991906146e9565b61176391906146e9565b61326e565b602960008573ffffffffffffffffffffffffffffffffffffffff1673ffffffffffffffffffffffffffffffffffffffff1681526020019081526020016000206001600281106117ba576117b9614803565b5b01546117c691906146e9565b602960008573ffffffffffffffffffffffffffffffffffffffff1673ffffffffffffffffffffffffffffffffffffffff16815260200190815260200160002060016002811061181857611817614803565b5b01819055506000602960008573ffffffffffffffffffffffffffffffffffffffff1673ffffffffffffffffffffffffffffffffffffffff16815260200190815260200160002060006002811061187157611870614803565b5b01819055505b50505b6001602581905550505050565b601e60009054906101000a900473ffffffffffffffffffffffffffffffffffffffff1681565b60095481565b6001602554146118f8576040517f08c379a00000000000000000000000000000000000000000000000000000000081526004016118ef90614435565b60405180910390fd5b60006025819055506000838561190e919061468f565b1480156119265750600083856119249190614497565b115b61192f57600080fd5b611937612c97565b61197b61194382612af0565b8561194e9190614497565b61195783612af0565b61196c86600d54600654600554601d54613212565b6119769190614497565b61366b565b601a54601d5461198a846129fc565b61199385612af0565b61199c86612bc8565b6119a69190614497565b6119b091906146e9565b6119ba919061468f565b6119c491906144ed565b116119ce57600080fd5b600080600115158415151415611e685760008611156119fe576119f48660016000612e15565b9150859050611a38565b849150611a35611a15600d5460065460055461324c565b601d5487611a23919061468f565b611a2d91906144ed565b600187612e15565b90505b611a4781601054600e5461324c565b602860008573ffffffffffffffffffffffffffffffffffffffff1673ffffffffffffffffffffffffffffffffffffffff1681526020019081526020016000206000801515151581526020019081526020016000206001016000828254611aad9190614497565b9250508190555081602860008573ffffffffffffffffffffffffffffffffffffffff1673ffffffffffffffffffffffffffffffffffffffff168152602001908152602001600020600060011515151581526020019081526020016000206002016000828254611b1c9190614497565b92505081905550601054611b3582601054600e5461324c565b611b3f9190614497565b60108190555080600e6000828254611b579190614497565b92505081905550670de0b6b3a764000060235482611b75919061468f565b611b7f91906144ed565b602960008573ffffffffffffffffffffffffffffffffffffffff1673ffffffffffffffffffffffffffffffffffffffff168152602001908152602001600020600060028110611bd157611bd0614803565b5b01541115611ca157670de0b6b3a764000060235482611bf0919061468f565b611bfa91906144ed565b602960008573ffffffffffffffffffffffffffffffffffffffff1673ffffffffffffffffffffffffffffffffffffffff168152602001908152602001600020600060028110611c4c57611c4b614803565b5b016000828254611c5c91906146e9565b92505081905550670de0b6b3a764000060235482611c7a919061468f565b611c8491906144ed565b600b6000828254611c959190614497565b92505081905550611e63565b6000602960008573ffffffffffffffffffffffffffffffffffffffff1673ffffffffffffffffffffffffffffffffffffffff168152602001908152602001600020600060028110611cf557611cf4614803565b5b0154670de0b6b3a764000060235484611d0e919061468f565b611d1891906144ed565b611d2291906146e9565b90506000602960008673ffffffffffffffffffffffffffffffffffffffff1673ffffffffffffffffffffffffffffffffffffffff168152602001908152602001600020600060028110611d7857611d77614803565b5b0181905550611ddc602960008673ffffffffffffffffffffffffffffffffffffffff1673ffffffffffffffffffffffffffffffffffffffff168152602001908152602001600020600160028110611dd257611dd1614803565b5b015460008361326e565b905080602960008673ffffffffffffffffffffffffffffffffffffffff1673ffffffffffffffffffffffffffffffffffffffff168152602001908152602001600020600160028110611e3157611e30614803565b5b016000828254611e4191906146e9565b9250508190555080600c6000828254611e5a9190614497565b92505081905550505b6122ee565b6000861115611eaf57859150611ea8601d54611e8b600d5460065460055461324c565b88611e96919061468f565b611ea091906144ed565b60018861326e565b9050611ec2565b611ebc856001600061326e565b91508490505b611ed181601154600f5461324c565b602860008573ffffffffffffffffffffffffffffffffffffffff1673ffffffffffffffffffffffffffffffffffffffff168152602001908152602001600020600060011515151581526020019081526020016000206001016000828254611f389190614497565b9250508190555081602860008573ffffffffffffffffffffffffffffffffffffffff1673ffffffffffffffffffffffffffffffffffffffff1681526020019081526020016000206000801515151581526020019081526020016000206002016000828254611fa69190614497565b92505081905550601154611fbf82601154600f5461324c565b611fc99190614497565b60118190555080600f6000828254611fe19190614497565b92505081905550670de0b6b3a764000060235482611fff919061468f565b61200991906144ed565b602960008573ffffffffffffffffffffffffffffffffffffffff1673ffffffffffffffffffffffffffffffffffffffff16815260200190815260200160002060016002811061205b5761205a614803565b5b0154111561212b57670de0b6b3a76400006023548261207a919061468f565b61208491906144ed565b602960008573ffffffffffffffffffffffffffffffffffffffff1673ffffffffffffffffffffffffffffffffffffffff1681526020019081526020016000206001600281106120d6576120d5614803565b5b0160008282546120e691906146e9565b92505081905550670de0b6b3a764000060235482612104919061468f565b61210e91906144ed565b600c600082825461211f9190614497565b925050819055506122ed565b6000602960008573ffffffffffffffffffffffffffffffffffffffff1673ffffffffffffffffffffffffffffffffffffffff16815260200190815260200160002060016002811061217f5761217e614803565b5b0154670de0b6b3a764000060235484612198919061468f565b6121a291906144ed565b6121ac91906146e9565b90506000602960008673ffffffffffffffffffffffffffffffffffffffff1673ffffffffffffffffffffffffffffffffffffffff16815260200190815260200160002060016002811061220257612201614803565b5b0181905550612266602960008673ffffffffffffffffffffffffffffffffffffffff1673ffffffffffffffffffffffffffffffffffffffff16815260200190815260200160002060006002811061225c5761225b614803565b5b0154600083612e15565b905080602960008673ffffffffffffffffffffffffffffffffffffffff1673ffffffffffffffffffffffffffffffffffffffff1681526020019081526020016000206000600281106122bb576122ba614803565b5b0160008282546122cb91906146e9565b9250508190555080600b60008282546122e49190614497565b92505081905550505b5b5050600160258190555050505050565b60075481565b601f5481565b600e5481565b601d5481565b60105481565b600160255414612361576040517f08c379a000000000000000000000000000000000000000000000000000000000815260040161235890614435565b60405180910390fd5b6000602581905550612372826129fc565b61237b83612af0565b61238484612bc8565b61238e9190614497565b1115806123de5750601c546123a283612af0565b6123ac919061468f565b6123b5836129fc565b6123be84612af0565b6123c785612bc8565b6123d19190614497565b6123db91906146e9565b11155b6123e757600080fd5b612474601860009054906101000a900473ffffffffffffffffffffffffffffffffffffffff1682601f54602960008773ffffffffffffffffffffffffffffffffffffffff1673ffffffffffffffffffffffffffffffffffffffff16815260200190815260200160002060006002811061246357612462614803565b5b015461246f919061468f565b613684565b612501601960009054906101000a900473ffffffffffffffffffffffffffffffffffffffff1682601f54602960008773ffffffffffffffffffffffffffffffffffffffff1673ffffffffffffffffffffffffffffffffffffffff1681526020019081526020016000206001600281106124f0576124ef614803565b5b01546124fc919061468f565b613684565b602960008373ffffffffffffffffffffffffffffffffffffffff1673ffffffffffffffffffffffffffffffffffffffff168152602001908152602001600020600061254c919061402d565b6000602860008473ffffffffffffffffffffffffffffffffffffffff1673ffffffffffffffffffffffffffffffffffffffff168152602001908152602001600020600080151515158152602001908152602001600020600101819055506000602860008473ffffffffffffffffffffffffffffffffffffffff1673ffffffffffffffffffffffffffffffffffffffff16815260200190815260200160002060006001151515158152602001908152602001600020600101819055506126c1602860008473ffffffffffffffffffffffffffffffffffffffff1673ffffffffffffffffffffffffffffffffffffffff16815260200190815260200160002060008015151515815260200190815260200160002060020154602860008573ffffffffffffffffffffffffffffffffffffffff1673ffffffffffffffffffffffffffffffffffffffff168152602001908152602001600020600060011515151581526020019081526020016000206002015484610970565b60016025819055505050565b60045481565b60035481565b600f5481565b60065481565b601c5481565b601560009054906101000a900460ff1681565b601960009054906101000a900473ffffffffffffffffffffffffffffffffffffffff1673ffffffffffffffffffffffffffffffffffffffff168273ffffffffffffffffffffffffffffffffffffffff1614801561276e575060011515602460009054906101000a900460ff161515145b1561284057602660016002811061278857612787614803565b5b0154600c548461279891906146e9565b6127a291906146e9565b925082602960008373ffffffffffffffffffffffffffffffffffffffff1673ffffffffffffffffffffffffffffffffffffffff1681526020019081526020016000206001600281106127f7576127f6614803565b5b0160008282546128079190614497565b9250508190555082602660016002811061282457612823614803565b5b0160008282546128349190614497565b92505081905550612909565b602660006002811061285557612854614803565b5b0154600b548461286591906146e9565b61286f91906146e9565b925082602960008373ffffffffffffffffffffffffffffffffffffffff1673ffffffffffffffffffffffffffffffffffffffff1681526020019081526020016000206000600281106128c4576128c3614803565b5b0160008282546128d49190614497565b925050819055508260266000600281106128f1576128f0614803565b5b0160008282546129019190614497565b925050819055505b505050565b601960009054906101000a900473ffffffffffffffffffffffffffffffffffffffff1681565b600b5481565b60055481565b601760009054906101000a900473ffffffffffffffffffffffffffffffffffffffff1681565b60165481565b60085481565b60125481565b600a5481565b60215481565b601a5481565b60025481565b60205481565b60135481565b60006129ee6129af848a8a868a8a61380e565b760a70c3c40a64e6c51999090b65f67d92400000000000006129d58c8c8c8c8c8c61380e565b6129df919061468f565b6129e991906144ed565b61386a565b905098975050505050505050565b6000612a78612a6d602860008573ffffffffffffffffffffffffffffffffffffffff1673ffffffffffffffffffffffffffffffffffffffff16815260200190815260200160002060008015151515815260200190815260200160002060010154600e54600d54601054601d54613212565b60065460055461324c565b612adf602860008573ffffffffffffffffffffffffffffffffffffffff1673ffffffffffffffffffffffffffffffffffffffff1681526020019081526020016000206000600115151515815260200190815260200160002060010154600f5460115461324c565b612ae99190614497565b9050919050565b6000612b5f602860008473ffffffffffffffffffffffffffffffffffffffff1673ffffffffffffffffffffffffffffffffffffffff1681526020019081526020016000206000600115151515815260200190815260200160002060020154600d54600654600554601d54613212565b602860008473ffffffffffffffffffffffffffffffffffffffff1673ffffffffffffffffffffffffffffffffffffffff16815260200190815260200160002060008015151515815260200190815260200160002060020154612bc19190614497565b9050919050565b6000612c32602960008473ffffffffffffffffffffffffffffffffffffffff1673ffffffffffffffffffffffffffffffffffffffff168152602001908152602001600020600160028110612c1f57612c1e614803565b5b0154600d54600654600554601d54613212565b602960008473ffffffffffffffffffffffffffffffffffffffff1673ffffffffffffffffffffffffffffffffffffffff168152602001908152602001600020600060028110612c8457612c83614803565b5b0154612c909190614497565b9050919050565b600080612cc5600b54600c54600554600654600354600454600054612cbd6000546138fb565b600154613918565b91509150600080612ce88484600754600854602154601654600b54600c546139b4565b91509150600060145443612cfc91906146e9565b90504360148190555060001515601560009054906101000a900460ff1615151415612d9057612d35600e5460135483601d546001613212565b600e54612d429190614497565b600e8190555080612d6e601354600e54612d63600d5460065460055461324c565b601d54601d54613212565b612d78919061468f565b600f54612d8591906146e9565b600f81905550612ded565b612da4600f5460135483601d546001613212565b600f54612db19190614497565b600f81905550612dd9601354600f5483612dd2600d5460065460055461324c565b6001613212565b600e54612de691906146e9565b600e819055505b8260138190555081601560006101000a81548160ff0219169083151502179055505050505050565b6000600160255414612e5c576040517f08c379a0000000000000000000000000000000000000000000000000000000008152600401612e5390614435565b60405180910390fd5b600060258190555060005b612e92612e876002600154612e7c91906144ed565b602054601d5461324c565b600354600554613a5e565b8186612e9e91906146e9565b1115613089576000612ec36002600154612eb891906144ed565b602054601d5461324c565b90506000612ee1600054612ed86000546138fb565b60015485613a93565b9050600085118015612f0b575084612efe60045483600654613a5e565b85612f099190614497565b115b15612f17575050613089565b612f2660045482600654613a5e565b84612f319190614497565b9350612f4282600354600554613a5e565b83612f4d9190614497565b9250600015158615151415612fab57612f6b82600354600554613a5e565b600b6000828254612f7c9190614497565b92505081905550612f9260045482600654613a5e565b600c6000828254612fa391906146e9565b925050819055505b612fc66006546002600154612fc091906144ed565b8361324c565b600681905550612fe76005546002600154612fe191906144ed565b8461324c565b60058190555061303061300b6000546130016000546138fb565b6001548686613b93565b82600260015461301b91906144ed565b85600260015461302b91906144ed565b613212565b600d81905550613044600154600d54613c87565b600081905550613052610917565b600181905550600260015461306791906144ed565b600381905550600260015461307c91906144ed565b6004819055505050612e67565b600060035490506000600454905060008514156130f9576130ba83886130af91906146e9565b600554601d5461324c565b600360008282546130cb9190614497565b925050819055506130ee6000546130e36000546138fb565b600154600354613a93565b60048190555061314e565b613113848661310891906146e9565b600654601d5461324c565b6004600082825461312491906146e9565b9250508190555061314760005461313c6000546138fb565b600154600454613de2565b6003819055505b61315d81600454600654613a5e565b846131689190614497565b935061317960035483600554613a5e565b836131849190614497565b92506001151586151514156131b15783600860008282546131a59190614497565b92505081905550613200565b6131c060035483600554613a5e565b600b60008282546131d19190614497565b925050819055506131e781600454600654613a5e565b600c60008282546131f891906146e9565b925050819055505b50505060016025819055509392505050565b60008183858789613223919061468f565b61322d919061468f565b61323791906144ed565b61324191906144ed565b905095945050505050565b600081838561325b919061468f565b61326591906144ed565b90509392505050565b60006001602554146132b5576040517f08c379a00000000000000000000000000000000000000000000000000000000081526004016132ac90614435565b60405180910390fd5b600060258190555060005b6132eb6132e060026001546132d591906144ed565b602054601d5461324c565b600454600654613a5e565b81866132f791906146e9565b11156134e257600061331c600260015461331191906144ed565b602054601d5461324c565b9050600061333a6000546133316000546138fb565b60015485613de2565b905060008511801561336457508461335760035483600554613a5e565b856133629190614497565b115b156133705750506134e2565b61337f60035482600554613a5e565b8461338a9190614497565b935061339b82600454600654613a5e565b836133a69190614497565b9250600015158615151415613404576133c460035482600554613a5e565b600b60008282546133d591906146e9565b925050819055506133eb82600454600654613a5e565b600c60008282546133fc9190614497565b925050819055505b61341f600654600260015461341991906144ed565b8461324c565b600681905550613440600554600260015461343a91906144ed565b8361324c565b60058190555061348961346460005461345a6000546138fb565b6001548587613b93565b83600260015461347491906144ed565b84600260015461348491906144ed565b613212565b600d8190555061349d600154600d54613c87565b6000819055506134ab610917565b60018190555060026001546134c091906144ed565b60038190555060026001546134d591906144ed565b60048190555050506132c0565b6000600354905060006004549050600085141561355257613513838861350891906146e9565b600654601d5461324c565b600460008282546135249190614497565b9250508190555061354760005461353c6000546138fb565b600154600454613de2565b6003819055506135a7565b61356c848661356191906146e9565b600554601d5461324c565b6003600082825461357d91906146e9565b925050819055506135a06000546135956000546138fb565b600154600354613a93565b6004819055505b6135b682600354600554613a5e565b846135c19190614497565b93506135d260045482600654613a5e565b836135dd9190614497565b925060011515861515141561360a5783600760008282546135fe9190614497565b92505081905550613659565b61361960045482600654613a5e565b600c600082825461362a9190614497565b9250508190555061364082600354600554613a5e565b600b600082825461365191906146e9565b925050819055505b50505060016025819055509392505050565b600081831161367a578161367c565b825b905092915050565b6000808473ffffffffffffffffffffffffffffffffffffffff166040518060400160405280601981526020017f7472616e7366657228616464726573732c75696e7432353629000000000000008152508051906020012085856040516024016136ee9291906143d1565b604051602081830303815290604052907bffffffffffffffffffffffffffffffffffffffffffffffffffffffff19166020820180517bffffffffffffffffffffffffffffffffffffffffffffffffffffffff8381831617835250505050604051613758919061435a565b6000604051808303816000865af19150503d8060008114613795576040519150601f19603f3d011682016040523d82523d6000602084013e61379a565b606091505b50915091508180156137c857506000815114806137c75750808060200190518101906137c6919061414f565b5b5b613807576040517f08c379a00000000000000000000000000000000000000000000000000000000081526004016137fe90614415565b60405180910390fd5b5050505050565b6000838783858761381f919061468f565b613829919061468f565b87898b613836919061468f565b613840919061468f565b61384a9190614497565b613854919061468f565b61385e919061468f565b90509695505050505050565b600060088211156138e8578190506000600160038461388991906144ed565b6138939190614497565b90505b818110156138e25780915060038160026138b0919061468f565b82836138bc919061468f565b856138c791906144ed565b6138d19190614497565b6138db91906144ed565b9050613896565b506138f6565b600082146138f557600190505b5b919050565b600081671bc16d674ec8000061391191906146e9565b9050919050565b60008060006139308c8b670de0b6b3a764000061324c565b905060006139478c8b670de0b6b3a764000061324c565b90506000613956838388613ee2565b9050600081671bc16d674ec8000061396e91906146e9565b905061398761398083838a8888613b93565b8d8f61324c565b95506139a06139998a8a8a8f8f613b93565b8d8f61324c565b945050505050995099975050505050505050565b600080898911156139f7576139ca878488613f66565b6116806139d88b8d8e613a5e565b6139e291906144ed565b6139ec9190614497565b915060009050613a2b565b613a02888588613f66565b611680613a108c8c8e613a5e565b613a1a91906144ed565b613a249190614497565b9150600190505b8461078083613a3a919061468f565b1115613a515761078085613a4e91906144ed565b91505b9850989650505050505050565b600081670de0b6b3a76400008486613a7691906146e9565b613a80919061468f565b613a8a91906144ed565b90509392505050565b600081846008613aa3919061468f565b613aad919061468f565b613b46670de0b6b3a7640000858687613ac6919061468f565b613ad0919061468f565b6000613adc91906146e9565b85886010613aea919061468f565b613af4919061468f565b613afe919061468f565b613b08919061468f565b600285868a6004613b19919061468f565b613b23919061468f565b613b2d919061468f565b613b379190614571565b613b4191906146e9565b613fb3565b8384886004613b55919061468f565b613b5f919061468f565b613b69919061468f565b6000613b7591906146e9565b613b7f9190614497565b613b8991906144ed565b9050949350505050565b600081848586613ba3919061468f565b613bad919061468f565b613bb7919061468f565b828385868a6004613bc8919061468f565b613bd2919061468f565b613bdc919061468f565b613be6919061468f565b613bf0919061468f565b613bfa9190614497565b670de0b6b3a764000084868788613c11919061468f565b613c1b919061468f565b613c25919061468f565b848587888b6004613c36919061468f565b613c40919061468f565b613c4a919061468f565b613c54919061468f565b613c5e919061468f565b613c689190614497565b613c72919061468f565b613c7c91906144ed565b905095945050505050565b600080600284613c9791906144ed565b90506000600285613ca891906144ed565b905083670de0b6b3a7640000613cbe9190614497565b818284856004613cce919061468f565b613cd8919061468f565b613ce2919061468f565b613cec919061468f565b613cf6919061468f565b670de0b6b3a7640000858388898a613d0e919061468f565b613d18919061468f565b613d22919061468f565b613d2c919061468f565b613d36919061468f565b6ec097ce7bc90715b34b9f10000000008488898a613d54919061468f565b613d5e919061468f565b613d68919061468f565b613d72919061468f565b6ec097ce7bc90715b34b9f1000000000848587886008613d92919061468f565b613d9c919061468f565b613da6919061468f565b613db0919061468f565b613dba919061468f565b613dc49190614497565b613dce91906146e9565b613dd891906144ed565b9250505092915050565b600081856008613df2919061468f565b613dfc919061468f565b613e95670de0b6b3a7640000858687613e15919061468f565b613e1f919061468f565b6000613e2b91906146e9565b85896010613e39919061468f565b613e43919061468f565b613e4d919061468f565b613e57919061468f565b60028586896004613e68919061468f565b613e72919061468f565b613e7c919061468f565b613e869190614571565b613e9091906146e9565b613fb3565b8384876004613ea4919061468f565b613eae919061468f565b613eb8919061468f565b6000613ec491906146e9565b613ece9190614497565b613ed891906144ed565b9050949350505050565b60008284613ef091906146e9565b670de0b6b3a7640000846002613f06919061468f565b85876004878889613f17919061468f565b613f21919061468f565b613f2b91906144ed565b613f3591906144ed565b613f3f91906144ed565b613f4991906146e9565b613f53919061468f565b613f5d91906144ed565b90509392505050565b60008161e1008585613f789190614497565b670de0b6b3a764000087613f8c919061468f565b613f9691906144ed565b613fa091906144ed565b613faa9190614497565b90509392505050565b6000600382111561401a5781905060006001600284613fd291906144ed565b613fdc9190614497565b90505b81811015614014578091506002818285613ff991906144ed565b6140039190614497565b61400d91906144ed565b9050613fdf565b50614028565b6000821461402757600190505b5b919050565b506000815560010160009055565b60008135905061404a81614896565b92915050565b60008135905061405f816148ad565b92915050565b600081519050614074816148ad565b92915050565b600081359050614089816148c4565b92915050565b600080604083850312156140a6576140a5614832565b5b60006140b48582860161403b565b92505060206140c58582860161403b565b9150509250929050565b600080604083850312156140e6576140e5614832565b5b60006140f48582860161403b565b925050602061410585828601614050565b9150509250929050565b6000806040838503121561412657614125614832565b5b60006141348582860161403b565b92505060206141458582860161407a565b9150509250929050565b60006020828403121561416557614164614832565b5b600061417384828501614065565b91505092915050565b60006020828403121561419257614191614832565b5b60006141a08482850161407a565b91505092915050565b6000806000606084860312156141c2576141c1614832565b5b60006141d08682870161407a565b93505060206141e18682870161403b565b92505060406141f28682870161403b565b9150509250925092565b60008060006060848603121561421557614214614832565b5b60006142238682870161407a565b93505060206142348682870161407a565b92505060406142458682870161403b565b9150509250925092565b6000806000806080858703121561426957614268614832565b5b60006142778782880161407a565b94505060206142888782880161407a565b935050604061429987828801614050565b92505060606142aa8782880161403b565b91505092959194509250565b6142bf8161471d565b82525050565b6142ce8161472f565b82525050565b60006142df82614470565b6142e9818561447b565b93506142f9818560208601614772565b80840191505092915050565b6000614312600f83614486565b915061431d82614844565b602082019050919050565b6000614335600683614486565b91506143408261486d565b602082019050919050565b6143548161475b565b82525050565b600061436682846142d4565b915081905092915050565b600060208201905061438660008301846142b6565b92915050565b60006080820190506143a160008301876142b6565b6143ae60208301866142c5565b6143bb604083018561434b565b6143c8606083018461434b565b95945050505050565b60006040820190506143e660008301856142b6565b6143f3602083018461434b565b9392505050565b600060208201905061440f60008301846142c5565b92915050565b6000602082019050818103600083015261442e81614305565b9050919050565b6000602082019050818103600083015261444e81614328565b9050919050565b600060208201905061446a600083018461434b565b92915050565b600081519050919050565b600081905092915050565b600082825260208201905092915050565b60006144a28261475b565b91506144ad8361475b565b9250827fffffffffffffffffffffffffffffffffffffffffffffffffffffffffffffffff038211156144e2576144e16147a5565b5b828201905092915050565b60006144f88261475b565b91506145038361475b565b925082614513576145126147d4565b5b828204905092915050565b6000808291508390505b600185111561456857808604811115614544576145436147a5565b5b60018516156145535780820291505b808102905061456185614837565b9450614528565b94509492505050565b600061457c8261475b565b915061458783614765565b92506145b47fffffffffffffffffffffffffffffffffffffffffffffffffffffffffffffffff84846145bc565b905092915050565b6000826145cc5760019050614688565b816145da5760009050614688565b81600181146145f057600281146145fa57614629565b6001915050614688565b60ff84111561460c5761460b6147a5565b5b8360020a915084821115614623576146226147a5565b5b50614688565b5060208310610133831016604e8410600b841016171561465e5782820a905083811115614659576146586147a5565b5b614688565b61466b848484600161451e565b92509050818404811115614682576146816147a5565b5b81810290505b9392505050565b600061469a8261475b565b91506146a58361475b565b9250817fffffffffffffffffffffffffffffffffffffffffffffffffffffffffffffffff04831182151516156146de576146dd6147a5565b5b828202905092915050565b60006146f48261475b565b91506146ff8361475b565b925082821015614712576147116147a5565b5b828203905092915050565b60006147288261473b565b9050919050565b60008115159050919050565b600073ffffffffffffffffffffffffffffffffffffffff82169050919050565b6000819050919050565b600060ff82169050919050565b60005b83811015614790578082015181840152602081019050614775565b8381111561479f576000848401525b50505050565b7f4e487b7100000000000000000000000000000000000000000000000000000000600052601160045260246000fd5b7f4e487b7100000000000000000000000000000000000000000000000000000000600052601260045260246000fd5b7f4e487b7100000000000000000000000000000000000000000000000000000000600052603260045260246000fd5b600080fd5b60008160011c9050919050565b7f5452414e534645525f4641494c45440000000000000000000000000000000000600082015250565b7f4c4f434b45440000000000000000000000000000000000000000000000000000600082015250565b61489f8161471d565b81146148aa57600080fd5b50565b6148b68161472f565b81146148c157600080fd5b50565b6148cd8161475b565b81146148d857600080fd5b5056fea26469706673582212209b2a023fdba9cdaec198e2d93bee6ad886dcb87a373ef10ca402240c5ad4535064736f6c63430008070033",
			"opcodes": "PUSH1 0x80 PUSH1 0x40 MSTORE PUSH8 0xDE0B6B3A7640000 PUSH1 0x1D SSTORE PUSH1 0x1 PUSH1 0x25 SSTORE CALLVALUE DUP1 ISZERO PUSH2 0x21 JUMPI PUSH1 0x0 DUP1 REVERT JUMPDEST POP PUSH2 0x4911 DUP1 PUSH2 0x31 PUSH1 0x0 CODECOPY PUSH1 0x0 RETURN INVALID PUSH1 0x80 PUSH1 0x40 MSTORE CALLVALUE DUP1 ISZERO PUSH2 0x10 JUMPI PUSH1 0x0 DUP1 REVERT JUMPDEST POP PUSH1 0x4 CALLDATASIZE LT PUSH2 0x27F JUMPI PUSH1 0x0 CALLDATALOAD PUSH1 0xE0 SHR DUP1 PUSH4 0x7E11939A GT PUSH2 0x15C JUMPI DUP1 PUSH4 0xB868504B GT PUSH2 0xCE JUMPI DUP1 PUSH4 0xE159394F GT PUSH2 0x87 JUMPI DUP1 PUSH4 0xE159394F EQ PUSH2 0x747 JUMPI DUP1 PUSH4 0xEF0348FD EQ PUSH2 0x765 JUMPI DUP1 PUSH4 0xF13C7AED EQ PUSH2 0x783 JUMPI DUP1 PUSH4 0xF738C74E EQ PUSH2 0x7A1 JUMPI DUP1 PUSH4 0xF92E82B0 EQ PUSH2 0x7BF JUMPI DUP1 PUSH4 0xFCBC49A0 EQ PUSH2 0x7DD JUMPI PUSH2 0x27F JUMP JUMPDEST DUP1 PUSH4 0xB868504B EQ PUSH2 0x693 JUMPI DUP1 PUSH4 0xBE6571AA EQ PUSH2 0x6B1 JUMPI DUP1 PUSH4 0xC45A0155 EQ PUSH2 0x6CF JUMPI DUP1 PUSH4 0xC556C363 EQ PUSH2 0x6ED JUMPI DUP1 PUSH4 0xD873FA7B EQ PUSH2 0x70B JUMPI DUP1 PUSH4 0xE07B877A EQ PUSH2 0x729 JUMPI PUSH2 0x27F JUMP JUMPDEST DUP1 PUSH4 0xA01FBBF5 GT PUSH2 0x120 JUMPI DUP1 PUSH4 0xA01FBBF5 EQ PUSH2 0x5E1 JUMPI DUP1 PUSH4 0xA37B1918 EQ PUSH2 0x5FF JUMPI DUP1 PUSH4 0xA71E8644 EQ PUSH2 0x61D JUMPI DUP1 PUSH4 0xA79E6F9C EQ PUSH2 0x63B JUMPI DUP1 PUSH4 0xB3402869 EQ PUSH2 0x659 JUMPI DUP1 PUSH4 0xB7D19FC4 EQ PUSH2 0x675 JUMPI PUSH2 0x27F JUMP JUMPDEST DUP1 PUSH4 0x7E11939A EQ PUSH2 0x54D JUMPI DUP1 PUSH4 0x803042AC EQ PUSH2 0x56B JUMPI DUP1 PUSH4 0x86B9D81F EQ PUSH2 0x589 JUMPI DUP1 PUSH4 0x8C4008E9 EQ PUSH2 0x5A5 JUMPI DUP1 PUSH4 0x8CA63E6F EQ PUSH2 0x5C3 JUMPI PUSH2 0x27F JUMP JUMPDEST DUP1 PUSH4 0x5091FADD GT PUSH2 0x1F5 JUMPI DUP1 PUSH4 0x62AB1A77 GT PUSH2 0x1B9 JUMPI DUP1 PUSH4 0x62AB1A77 EQ PUSH2 0x49B JUMPI DUP1 PUSH4 0x713370FC EQ PUSH2 0x4B9 JUMPI DUP1 PUSH4 0x748F00DC EQ PUSH2 0x4D7 JUMPI DUP1 PUSH4 0x77FEF068 EQ PUSH2 0x4F3 JUMPI DUP1 PUSH4 0x7B7C1F4C EQ PUSH2 0x511 JUMPI DUP1 PUSH4 0x7BB62450 EQ PUSH2 0x52F JUMPI PUSH2 0x27F JUMP JUMPDEST DUP1 PUSH4 0x5091FADD EQ PUSH2 0x407 JUMPI DUP1 PUSH4 0x54CF2AEB EQ PUSH2 0x425 JUMPI DUP1 PUSH4 0x5784C8C4 EQ PUSH2 0x443 JUMPI DUP1 PUSH4 0x60D95A03 EQ PUSH2 0x461 JUMPI DUP1 PUSH4 0x617D3B90 EQ PUSH2 0x47F JUMPI PUSH2 0x27F JUMP JUMPDEST DUP1 PUSH4 0x29BAF8D9 GT PUSH2 0x247 JUMPI DUP1 PUSH4 0x29BAF8D9 EQ PUSH2 0x32C JUMPI DUP1 PUSH4 0x2C4426AD EQ PUSH2 0x34A JUMPI DUP1 PUSH4 0x31FA66B2 EQ PUSH2 0x37D JUMPI DUP1 PUSH4 0x321D7FA9 EQ PUSH2 0x39B JUMPI DUP1 PUSH4 0x32E7C5BF EQ PUSH2 0x3B9 JUMPI DUP1 PUSH4 0x367401DB EQ PUSH2 0x3D7 JUMPI PUSH2 0x27F JUMP JUMPDEST DUP1 PUSH4 0x751A6C8 EQ PUSH2 0x284 JUMPI DUP1 PUSH4 0xE449559 EQ PUSH2 0x2A2 JUMPI DUP1 PUSH4 0xF529BA2 EQ PUSH2 0x2D2 JUMPI DUP1 PUSH4 0x15770F92 EQ PUSH2 0x2F0 JUMPI DUP1 PUSH4 0x16DC165B EQ PUSH2 0x30E JUMPI JUMPDEST PUSH1 0x0 DUP1 REVERT JUMPDEST PUSH2 0x28C PUSH2 0x7FB JUMP JUMPDEST PUSH1 0x40 MLOAD PUSH2 0x299 SWAP2 SWAP1 PUSH2 0x4455 JUMP JUMPDEST PUSH1 0x40 MLOAD DUP1 SWAP2 SUB SWAP1 RETURN JUMPDEST PUSH2 0x2BC PUSH1 0x4 DUP1 CALLDATASIZE SUB DUP2 ADD SWAP1 PUSH2 0x2B7 SWAP2 SWAP1 PUSH2 0x417C JUMP JUMPDEST PUSH2 0x801 JUMP JUMPDEST PUSH1 0x40 MLOAD PUSH2 0x2C9 SWAP2 SWAP1 PUSH2 0x4455 JUMP JUMPDEST PUSH1 0x40 MLOAD DUP1 SWAP2 SUB SWAP1 RETURN JUMPDEST PUSH2 0x2DA PUSH2 0x81C JUMP JUMPDEST PUSH1 0x40 MLOAD PUSH2 0x2E7 SWAP2 SWAP1 PUSH2 0x4455 JUMP JUMPDEST PUSH1 0x40 MLOAD DUP1 SWAP2 SUB SWAP1 RETURN JUMPDEST PUSH2 0x2F8 PUSH2 0x822 JUMP JUMPDEST PUSH1 0x40 MLOAD PUSH2 0x305 SWAP2 SWAP1 PUSH2 0x4455 JUMP JUMPDEST PUSH1 0x40 MLOAD DUP1 SWAP2 SUB SWAP1 RETURN JUMPDEST PUSH2 0x316 PUSH2 0x828 JUMP JUMPDEST PUSH1 0x40 MLOAD PUSH2 0x323 SWAP2 SWAP1 PUSH2 0x4371 JUMP JUMPDEST PUSH1 0x40 MLOAD DUP1 SWAP2 SUB SWAP1 RETURN JUMPDEST PUSH2 0x334 PUSH2 0x84E JUMP JUMPDEST PUSH1 0x40 MLOAD PUSH2 0x341 SWAP2 SWAP1 PUSH2 0x4455 JUMP JUMPDEST PUSH1 0x40 MLOAD DUP1 SWAP2 SUB SWAP1 RETURN JUMPDEST PUSH2 0x364 PUSH1 0x4 DUP1 CALLDATASIZE SUB DUP2 ADD SWAP1 PUSH2 0x35F SWAP2 SWAP1 PUSH2 0x40CF JUMP JUMPDEST PUSH2 0x854 JUMP JUMPDEST PUSH1 0x40 MLOAD PUSH2 0x374 SWAP5 SWAP4 SWAP3 SWAP2 SWAP1 PUSH2 0x438C JUMP JUMPDEST PUSH1 0x40 MLOAD DUP1 SWAP2 SUB SWAP1 RETURN JUMPDEST PUSH2 0x385 PUSH2 0x8BE JUMP JUMPDEST PUSH1 0x40 MLOAD PUSH2 0x392 SWAP2 SWAP1 PUSH2 0x43FA JUMP JUMPDEST PUSH1 0x40 MLOAD DUP1 SWAP2 SUB SWAP1 RETURN JUMPDEST PUSH2 0x3A3 PUSH2 0x8D1 JUMP JUMPDEST PUSH1 0x40 MLOAD PUSH2 0x3B0 SWAP2 SWAP1 PUSH2 0x4455 JUMP JUMPDEST PUSH1 0x40 MLOAD DUP1 SWAP2 SUB SWAP1 RETURN JUMPDEST PUSH2 0x3C1 PUSH2 0x8D7 JUMP JUMPDEST PUSH1 0x40 MLOAD PUSH2 0x3CE SWAP2 SWAP1 PUSH2 0x4455 JUMP JUMPDEST PUSH1 0x40 MLOAD DUP1 SWAP2 SUB SWAP1 RETURN JUMPDEST PUSH2 0x3F1 PUSH1 0x4 DUP1 CALLDATASIZE SUB DUP2 ADD SWAP1 PUSH2 0x3EC SWAP2 SWAP1 PUSH2 0x410F JUMP JUMPDEST PUSH2 0x8DD JUMP JUMPDEST PUSH1 0x40 MLOAD PUSH2 0x3FE SWAP2 SWAP1 PUSH2 0x4455 JUMP JUMPDEST PUSH1 0x40 MLOAD DUP1 SWAP2 SUB SWAP1 RETURN JUMPDEST PUSH2 0x40F PUSH2 0x905 JUMP JUMPDEST PUSH1 0x40 MLOAD PUSH2 0x41C SWAP2 SWAP1 PUSH2 0x4455 JUMP JUMPDEST PUSH1 0x40 MLOAD DUP1 SWAP2 SUB SWAP1 RETURN JUMPDEST PUSH2 0x42D PUSH2 0x90B JUMP JUMPDEST PUSH1 0x40 MLOAD PUSH2 0x43A SWAP2 SWAP1 PUSH2 0x4455 JUMP JUMPDEST PUSH1 0x40 MLOAD DUP1 SWAP2 SUB SWAP1 RETURN JUMPDEST PUSH2 0x44B PUSH2 0x911 JUMP JUMPDEST PUSH1 0x40 MLOAD PUSH2 0x458 SWAP2 SWAP1 PUSH2 0x4455 JUMP JUMPDEST PUSH1 0x40 MLOAD DUP1 SWAP2 SUB SWAP1 RETURN JUMPDEST PUSH2 0x469 PUSH2 0x917 JUMP JUMPDEST PUSH1 0x40 MLOAD PUSH2 0x476 SWAP2 SWAP1 PUSH2 0x4455 JUMP JUMPDEST PUSH1 0x40 MLOAD DUP1 SWAP2 SUB SWAP1 RETURN JUMPDEST PUSH2 0x499 PUSH1 0x4 DUP1 CALLDATASIZE SUB DUP2 ADD SWAP1 PUSH2 0x494 SWAP2 SWAP1 PUSH2 0x41FC JUMP JUMPDEST PUSH2 0x970 JUMP JUMPDEST STOP JUMPDEST PUSH2 0x4A3 PUSH2 0x1887 JUMP JUMPDEST PUSH1 0x40 MLOAD PUSH2 0x4B0 SWAP2 SWAP1 PUSH2 0x4371 JUMP JUMPDEST PUSH1 0x40 MLOAD DUP1 SWAP2 SUB SWAP1 RETURN JUMPDEST PUSH2 0x4C1 PUSH2 0x18AD JUMP JUMPDEST PUSH1 0x40 MLOAD PUSH2 0x4CE SWAP2 SWAP1 PUSH2 0x4455 JUMP JUMPDEST PUSH1 0x40 MLOAD DUP1 SWAP2 SUB SWAP1 RETURN JUMPDEST PUSH2 0x4F1 PUSH1 0x4 DUP1 CALLDATASIZE SUB DUP2 ADD SWAP1 PUSH2 0x4EC SWAP2 SWAP1 PUSH2 0x424F JUMP JUMPDEST PUSH2 0x18B3 JUMP JUMPDEST STOP JUMPDEST PUSH2 0x4FB PUSH2 0x22FE JUMP JUMPDEST PUSH1 0x40 MLOAD PUSH2 0x508 SWAP2 SWAP1 PUSH2 0x4455 JUMP JUMPDEST PUSH1 0x40 MLOAD DUP1 SWAP2 SUB SWAP1 RETURN JUMPDEST PUSH2 0x519 PUSH2 0x2304 JUMP JUMPDEST PUSH1 0x40 MLOAD PUSH2 0x526 SWAP2 SWAP1 PUSH2 0x4455 JUMP JUMPDEST PUSH1 0x40 MLOAD DUP1 SWAP2 SUB SWAP1 RETURN JUMPDEST PUSH2 0x537 PUSH2 0x230A JUMP JUMPDEST PUSH1 0x40 MLOAD PUSH2 0x544 SWAP2 SWAP1 PUSH2 0x4455 JUMP JUMPDEST PUSH1 0x40 MLOAD DUP1 SWAP2 SUB SWAP1 RETURN JUMPDEST PUSH2 0x555 PUSH2 0x2310 JUMP JUMPDEST PUSH1 0x40 MLOAD PUSH2 0x562 SWAP2 SWAP1 PUSH2 0x4455 JUMP JUMPDEST PUSH1 0x40 MLOAD DUP1 SWAP2 SUB SWAP1 RETURN JUMPDEST PUSH2 0x573 PUSH2 0x2316 JUMP JUMPDEST PUSH1 0x40 MLOAD PUSH2 0x580 SWAP2 SWAP1 PUSH2 0x4455 JUMP JUMPDEST PUSH1 0x40 MLOAD DUP1 SWAP2 SUB SWAP1 RETURN JUMPDEST PUSH2 0x5A3 PUSH1 0x4 DUP1 CALLDATASIZE SUB DUP2 ADD SWAP1 PUSH2 0x59E SWAP2 SWAP1 PUSH2 0x408F JUMP JUMPDEST PUSH2 0x231C JUMP JUMPDEST STOP JUMPDEST PUSH2 0x5AD PUSH2 0x26CD JUMP JUMPDEST PUSH1 0x40 MLOAD PUSH2 0x5BA SWAP2 SWAP1 PUSH2 0x4455 JUMP JUMPDEST PUSH1 0x40 MLOAD DUP1 SWAP2 SUB SWAP1 RETURN JUMPDEST PUSH2 0x5CB PUSH2 0x26D3 JUMP JUMPDEST PUSH1 0x40 MLOAD PUSH2 0x5D8 SWAP2 SWAP1 PUSH2 0x4455 JUMP JUMPDEST PUSH1 0x40 MLOAD DUP1 SWAP2 SUB SWAP1 RETURN JUMPDEST PUSH2 0x5E9 PUSH2 0x26D9 JUMP JUMPDEST PUSH1 0x40 MLOAD PUSH2 0x5F6 SWAP2 SWAP1 PUSH2 0x4455 JUMP JUMPDEST PUSH1 0x40 MLOAD DUP1 SWAP2 SUB SWAP1 RETURN JUMPDEST PUSH2 0x607 PUSH2 0x26DF JUMP JUMPDEST PUSH1 0x40 MLOAD PUSH2 0x614 SWAP2 SWAP1 PUSH2 0x4455 JUMP JUMPDEST PUSH1 0x40 MLOAD DUP1 SWAP2 SUB SWAP1 RETURN JUMPDEST PUSH2 0x625 PUSH2 0x26E5 JUMP JUMPDEST PUSH1 0x40 MLOAD PUSH2 0x632 SWAP2 SWAP1 PUSH2 0x4455 JUMP JUMPDEST PUSH1 0x40 MLOAD DUP1 SWAP2 SUB SWAP1 RETURN JUMPDEST PUSH2 0x643 PUSH2 0x26EB JUMP JUMPDEST PUSH1 0x40 MLOAD PUSH2 0x650 SWAP2 SWAP1 PUSH2 0x43FA JUMP JUMPDEST PUSH1 0x40 MLOAD DUP1 SWAP2 SUB SWAP1 RETURN JUMPDEST PUSH2 0x673 PUSH1 0x4 DUP1 CALLDATASIZE SUB DUP2 ADD SWAP1 PUSH2 0x66E SWAP2 SWAP1 PUSH2 0x41A9 JUMP JUMPDEST PUSH2 0x26FE JUMP JUMPDEST STOP JUMPDEST PUSH2 0x67D PUSH2 0x290E JUMP JUMPDEST PUSH1 0x40 MLOAD PUSH2 0x68A SWAP2 SWAP1 PUSH2 0x4371 JUMP JUMPDEST PUSH1 0x40 MLOAD DUP1 SWAP2 SUB SWAP1 RETURN JUMPDEST PUSH2 0x69B PUSH2 0x2934 JUMP JUMPDEST PUSH1 0x40 MLOAD PUSH2 0x6A8 SWAP2 SWAP1 PUSH2 0x4455 JUMP JUMPDEST PUSH1 0x40 MLOAD DUP1 SWAP2 SUB SWAP1 RETURN JUMPDEST PUSH2 0x6B9 PUSH2 0x293A JUMP JUMPDEST PUSH1 0x40 MLOAD PUSH2 0x6C6 SWAP2 SWAP1 PUSH2 0x4455 JUMP JUMPDEST PUSH1 0x40 MLOAD DUP1 SWAP2 SUB SWAP1 RETURN JUMPDEST PUSH2 0x6D7 PUSH2 0x2940 JUMP JUMPDEST PUSH1 0x40 MLOAD PUSH2 0x6E4 SWAP2 SWAP1 PUSH2 0x4371 JUMP JUMPDEST PUSH1 0x40 MLOAD DUP1 SWAP2 SUB SWAP1 RETURN JUMPDEST PUSH2 0x6F5 PUSH2 0x2966 JUMP JUMPDEST PUSH1 0x40 MLOAD PUSH2 0x702 SWAP2 SWAP1 PUSH2 0x4455 JUMP JUMPDEST PUSH1 0x40 MLOAD DUP1 SWAP2 SUB SWAP1 RETURN JUMPDEST PUSH2 0x713 PUSH2 0x296C JUMP JUMPDEST PUSH1 0x40 MLOAD PUSH2 0x720 SWAP2 SWAP1 PUSH2 0x4455 JUMP JUMPDEST PUSH1 0x40 MLOAD DUP1 SWAP2 SUB SWAP1 RETURN JUMPDEST PUSH2 0x731 PUSH2 0x2972 JUMP JUMPDEST PUSH1 0x40 MLOAD PUSH2 0x73E SWAP2 SWAP1 PUSH2 0x4455 JUMP JUMPDEST PUSH1 0x40 MLOAD DUP1 SWAP2 SUB SWAP1 RETURN JUMPDEST PUSH2 0x74F PUSH2 0x2978 JUMP JUMPDEST PUSH1 0x40 MLOAD PUSH2 0x75C SWAP2 SWAP1 PUSH2 0x4455 JUMP JUMPDEST PUSH1 0x40 MLOAD DUP1 SWAP2 SUB SWAP1 RETURN JUMPDEST PUSH2 0x76D PUSH2 0x297E JUMP JUMPDEST PUSH1 0x40 MLOAD PUSH2 0x77A SWAP2 SWAP1 PUSH2 0x4455 JUMP JUMPDEST PUSH1 0x40 MLOAD DUP1 SWAP2 SUB SWAP1 RETURN JUMPDEST PUSH2 0x78B PUSH2 0x2984 JUMP JUMPDEST PUSH1 0x40 MLOAD PUSH2 0x798 SWAP2 SWAP1 PUSH2 0x4455 JUMP JUMPDEST PUSH1 0x40 MLOAD DUP1 SWAP2 SUB SWAP1 RETURN JUMPDEST PUSH2 0x7A9 PUSH2 0x298A JUMP JUMPDEST PUSH1 0x40 MLOAD PUSH2 0x7B6 SWAP2 SWAP1 PUSH2 0x4455 JUMP JUMPDEST PUSH1 0x40 MLOAD DUP1 SWAP2 SUB SWAP1 RETURN JUMPDEST PUSH2 0x7C7 PUSH2 0x2990 JUMP JUMPDEST PUSH1 0x40 MLOAD PUSH2 0x7D4 SWAP2 SWAP1 PUSH2 0x4455 JUMP JUMPDEST PUSH1 0x40 MLOAD DUP1 SWAP2 SUB SWAP1 RETURN JUMPDEST PUSH2 0x7E5 PUSH2 0x2996 JUMP JUMPDEST PUSH1 0x40 MLOAD PUSH2 0x7F2 SWAP2 SWAP1 PUSH2 0x4455 JUMP JUMPDEST PUSH1 0x40 MLOAD DUP1 SWAP2 SUB SWAP1 RETURN JUMPDEST PUSH1 0x11 SLOAD DUP2 JUMP JUMPDEST PUSH1 0x26 DUP2 PUSH1 0x2 DUP2 LT PUSH2 0x811 JUMPI PUSH1 0x0 DUP1 REVERT JUMPDEST ADD PUSH1 0x0 SWAP2 POP SWAP1 POP SLOAD DUP2 JUMP JUMPDEST PUSH1 0x1 SLOAD DUP2 JUMP JUMPDEST PUSH1 0x1B SLOAD DUP2 JUMP JUMPDEST PUSH1 0x18 PUSH1 0x0 SWAP1 SLOAD SWAP1 PUSH2 0x100 EXP SWAP1 DIV PUSH20 0xFFFFFFFFFFFFFFFFFFFFFFFFFFFFFFFFFFFFFFFF AND DUP2 JUMP JUMPDEST PUSH1 0xD SLOAD DUP2 JUMP JUMPDEST PUSH1 0x28 PUSH1 0x20 MSTORE DUP2 PUSH1 0x0 MSTORE PUSH1 0x40 PUSH1 0x0 KECCAK256 PUSH1 0x20 MSTORE DUP1 PUSH1 0x0 MSTORE PUSH1 0x40 PUSH1 0x0 KECCAK256 PUSH1 0x0 SWAP2 POP SWAP2 POP POP DUP1 PUSH1 0x0 ADD PUSH1 0x0 SWAP1 SLOAD SWAP1 PUSH2 0x100 EXP SWAP1 DIV PUSH20 0xFFFFFFFFFFFFFFFFFFFFFFFFFFFFFFFFFFFFFFFF AND SWAP1 DUP1 PUSH1 0x0 ADD PUSH1 0x14 SWAP1 SLOAD SWAP1 PUSH2 0x100 EXP SWAP1 DIV PUSH1 0xFF AND SWAP1 DUP1 PUSH1 0x1 ADD SLOAD SWAP1 DUP1 PUSH1 0x2 ADD SLOAD SWAP1 POP DUP5 JUMP JUMPDEST PUSH1 0x24 PUSH1 0x0 SWAP1 SLOAD SWAP1 PUSH2 0x100 EXP SWAP1 DIV PUSH1 0xFF AND DUP2 JUMP JUMPDEST PUSH1 0x14 SLOAD DUP2 JUMP JUMPDEST PUSH1 0x0 SLOAD DUP2 JUMP JUMPDEST PUSH1 0x29 PUSH1 0x20 MSTORE DUP2 PUSH1 0x0 MSTORE PUSH1 0x40 PUSH1 0x0 KECCAK256 DUP2 PUSH1 0x2 DUP2 LT PUSH2 0x8F9 JUMPI PUSH1 0x0 DUP1 REVERT JUMPDEST ADD PUSH1 0x0 SWAP2 POP SWAP2 POP POP SLOAD DUP2 JUMP JUMPDEST PUSH1 0xC SLOAD DUP2 JUMP JUMPDEST PUSH1 0x22 SLOAD DUP2 JUMP JUMPDEST PUSH1 0x23 SLOAD DUP2 JUMP JUMPDEST PUSH1 0x0 DUP1 PUSH2 0x94D PUSH1 0xB SLOAD PUSH1 0x0 SLOAD PUSH1 0x5 SLOAD PUSH1 0xC SLOAD PUSH1 0x0 SLOAD PUSH8 0x1BC16D674EC80000 PUSH2 0x93F SWAP2 SWAP1 PUSH2 0x46E9 JUMP JUMPDEST PUSH1 0x6 SLOAD PUSH1 0x9 SLOAD PUSH1 0xA SLOAD PUSH2 0x299C JUMP JUMPDEST SWAP1 POP PUSH1 0x1D SLOAD DUP2 PUSH1 0x2 SLOAD PUSH2 0x960 SWAP2 SWAP1 PUSH2 0x468F JUMP JUMPDEST PUSH2 0x96A SWAP2 SWAP1 PUSH2 0x44ED JUMP JUMPDEST SWAP2 POP POP SWAP1 JUMP JUMPDEST PUSH1 0x1 PUSH1 0x25 SLOAD EQ PUSH2 0x9B5 JUMPI PUSH1 0x40 MLOAD PUSH32 0x8C379A000000000000000000000000000000000000000000000000000000000 DUP2 MSTORE PUSH1 0x4 ADD PUSH2 0x9AC SWAP1 PUSH2 0x4435 JUMP JUMPDEST PUSH1 0x40 MLOAD DUP1 SWAP2 SUB SWAP1 REVERT JUMPDEST PUSH1 0x0 PUSH1 0x25 DUP2 SWAP1 SSTORE POP PUSH1 0x0 DUP3 DUP5 PUSH2 0x9CB SWAP2 SWAP1 PUSH2 0x468F JUMP JUMPDEST EQ DUP1 ISZERO PUSH2 0x9E3 JUMPI POP PUSH1 0x0 DUP3 DUP5 PUSH2 0x9E1 SWAP2 SWAP1 PUSH2 0x4497 JUMP JUMPDEST GT JUMPDEST DUP1 ISZERO PUSH2 0xA11 JUMPI POP PUSH2 0x9F3 DUP2 PUSH2 0x29FC JUMP JUMPDEST PUSH2 0x9FC DUP3 PUSH2 0x2AF0 JUMP JUMPDEST PUSH2 0xA05 DUP4 PUSH2 0x2BC8 JUMP JUMPDEST PUSH2 0xA0F SWAP2 SWAP1 PUSH2 0x4497 JUMP JUMPDEST GT JUMPDEST DUP1 ISZERO PUSH2 0xA74 JUMPI POP PUSH1 0x28 PUSH1 0x0 DUP3 PUSH20 0xFFFFFFFFFFFFFFFFFFFFFFFFFFFFFFFFFFFFFFFF AND PUSH20 0xFFFFFFFFFFFFFFFFFFFFFFFFFFFFFFFFFFFFFFFF AND DUP2 MSTORE PUSH1 0x20 ADD SWAP1 DUP2 MSTORE PUSH1 0x20 ADD PUSH1 0x0 KECCAK256 PUSH1 0x0 DUP1 ISZERO ISZERO ISZERO ISZERO DUP2 MSTORE PUSH1 0x20 ADD SWAP1 DUP2 MSTORE PUSH1 0x20 ADD PUSH1 0x0 KECCAK256 PUSH1 0x2 ADD SLOAD DUP4 GT ISZERO JUMPDEST DUP1 ISZERO PUSH2 0xAD8 JUMPI POP PUSH1 0x28 PUSH1 0x0 DUP3 PUSH20 0xFFFFFFFFFFFFFFFFFFFFFFFFFFFFFFFFFFFFFFFF AND PUSH20 0xFFFFFFFFFFFFFFFFFFFFFFFFFFFFFFFFFFFFFFFF AND DUP2 MSTORE PUSH1 0x20 ADD SWAP1 DUP2 MSTORE PUSH1 0x20 ADD PUSH1 0x0 KECCAK256 PUSH1 0x0 PUSH1 0x1 ISZERO ISZERO ISZERO ISZERO DUP2 MSTORE PUSH1 0x20 ADD SWAP1 DUP2 MSTORE PUSH1 0x20 ADD PUSH1 0x0 KECCAK256 PUSH1 0x2 ADD SLOAD DUP3 GT ISZERO JUMPDEST PUSH2 0xAE1 JUMPI PUSH1 0x0 DUP1 REVERT JUMPDEST PUSH2 0xAE9 PUSH2 0x2C97 JUMP JUMPDEST PUSH1 0x0 DUP4 GT ISZERO PUSH2 0x121E JUMPI PUSH1 0x0 PUSH2 0xB01 DUP5 PUSH1 0x1 PUSH1 0x0 PUSH2 0x2E15 JUMP JUMPDEST SWAP1 POP PUSH1 0x0 PUSH2 0xBC5 DUP6 PUSH1 0x28 PUSH1 0x0 DUP7 PUSH20 0xFFFFFFFFFFFFFFFFFFFFFFFFFFFFFFFFFFFFFFFF AND PUSH20 0xFFFFFFFFFFFFFFFFFFFFFFFFFFFFFFFFFFFFFFFF AND DUP2 MSTORE PUSH1 0x20 ADD SWAP1 DUP2 MSTORE PUSH1 0x20 ADD PUSH1 0x0 KECCAK256 PUSH1 0x0 PUSH1 0x1 ISZERO ISZERO ISZERO ISZERO DUP2 MSTORE PUSH1 0x20 ADD SWAP1 DUP2 MSTORE PUSH1 0x20 ADD PUSH1 0x0 KECCAK256 PUSH1 0x1 ADD SLOAD PUSH1 0xF SLOAD PUSH1 0x11 SLOAD PUSH1 0x28 PUSH1 0x0 DUP10 PUSH20 0xFFFFFFFFFFFFFFFFFFFFFFFFFFFFFFFFFFFFFFFF AND PUSH20 0xFFFFFFFFFFFFFFFFFFFFFFFFFFFFFFFFFFFFFFFF AND DUP2 MSTORE PUSH1 0x20 ADD SWAP1 DUP2 MSTORE PUSH1 0x20 ADD PUSH1 0x0 KECCAK256 PUSH1 0x0 DUP1 ISZERO ISZERO ISZERO ISZERO DUP2 MSTORE PUSH1 0x20 ADD SWAP1 DUP2 MSTORE PUSH1 0x20 ADD PUSH1 0x0 KECCAK256 PUSH1 0x2 ADD SLOAD PUSH2 0x3212 JUMP JUMPDEST SWAP1 POP DUP5 PUSH1 0x28 PUSH1 0x0 DUP6 PUSH20 0xFFFFFFFFFFFFFFFFFFFFFFFFFFFFFFFFFFFFFFFF AND PUSH20 0xFFFFFFFFFFFFFFFFFFFFFFFFFFFFFFFFFFFFFFFF AND DUP2 MSTORE PUSH1 0x20 ADD SWAP1 DUP2 MSTORE PUSH1 0x20 ADD PUSH1 0x0 KECCAK256 PUSH1 0x0 DUP1 ISZERO ISZERO ISZERO ISZERO DUP2 MSTORE PUSH1 0x20 ADD SWAP1 DUP2 MSTORE PUSH1 0x20 ADD PUSH1 0x0 KECCAK256 PUSH1 0x2 ADD PUSH1 0x0 DUP3 DUP3 SLOAD PUSH2 0xC2E SWAP2 SWAP1 PUSH2 0x46E9 JUMP JUMPDEST SWAP3 POP POP DUP2 SWAP1 SSTORE POP DUP1 PUSH1 0xF PUSH1 0x0 DUP3 DUP3 SLOAD PUSH2 0xC47 SWAP2 SWAP1 PUSH2 0x46E9 JUMP JUMPDEST SWAP3 POP POP DUP2 SWAP1 SSTORE POP PUSH2 0xD08 PUSH1 0x28 PUSH1 0x0 DUP6 PUSH20 0xFFFFFFFFFFFFFFFFFFFFFFFFFFFFFFFFFFFFFFFF AND PUSH20 0xFFFFFFFFFFFFFFFFFFFFFFFFFFFFFFFFFFFFFFFF AND DUP2 MSTORE PUSH1 0x20 ADD SWAP1 DUP2 MSTORE PUSH1 0x20 ADD PUSH1 0x0 KECCAK256 PUSH1 0x0 PUSH1 0x1 ISZERO ISZERO ISZERO ISZERO DUP2 MSTORE PUSH1 0x20 ADD SWAP1 DUP2 MSTORE PUSH1 0x20 ADD PUSH1 0x0 KECCAK256 PUSH1 0x1 ADD SLOAD DUP7 PUSH1 0x28 PUSH1 0x0 DUP8 PUSH20 0xFFFFFFFFFFFFFFFFFFFFFFFFFFFFFFFFFFFFFFFF AND PUSH20 0xFFFFFFFFFFFFFFFFFFFFFFFFFFFFFFFFFFFFFFFF AND DUP2 MSTORE PUSH1 0x20 ADD SWAP1 DUP2 MSTORE PUSH1 0x20 ADD PUSH1 0x0 KECCAK256 PUSH1 0x0 DUP1 ISZERO ISZERO ISZERO ISZERO DUP2 MSTORE PUSH1 0x20 ADD SWAP1 DUP2 MSTORE PUSH1 0x20 ADD PUSH1 0x0 KECCAK256 PUSH1 0x2 ADD SLOAD PUSH2 0x324C JUMP JUMPDEST PUSH1 0x11 PUSH1 0x0 DUP3 DUP3 SLOAD PUSH2 0xD19 SWAP2 SWAP1 PUSH2 0x46E9 JUMP JUMPDEST SWAP3 POP POP DUP2 SWAP1 SSTORE POP PUSH2 0xDDA PUSH1 0x28 PUSH1 0x0 DUP6 PUSH20 0xFFFFFFFFFFFFFFFFFFFFFFFFFFFFFFFFFFFFFFFF AND PUSH20 0xFFFFFFFFFFFFFFFFFFFFFFFFFFFFFFFFFFFFFFFF AND DUP2 MSTORE PUSH1 0x20 ADD SWAP1 DUP2 MSTORE PUSH1 0x20 ADD PUSH1 0x0 KECCAK256 PUSH1 0x0 PUSH1 0x1 ISZERO ISZERO ISZERO ISZERO DUP2 MSTORE PUSH1 0x20 ADD SWAP1 DUP2 MSTORE PUSH1 0x20 ADD PUSH1 0x0 KECCAK256 PUSH1 0x1 ADD SLOAD DUP7 PUSH1 0x28 PUSH1 0x0 DUP8 PUSH20 0xFFFFFFFFFFFFFFFFFFFFFFFFFFFFFFFFFFFFFFFF AND PUSH20 0xFFFFFFFFFFFFFFFFFFFFFFFFFFFFFFFFFFFFFFFF AND DUP2 MSTORE PUSH1 0x20 ADD SWAP1 DUP2 MSTORE PUSH1 0x20 ADD PUSH1 0x0 KECCAK256 PUSH1 0x0 DUP1 ISZERO ISZERO ISZERO ISZERO DUP2 MSTORE PUSH1 0x20 ADD SWAP1 DUP2 MSTORE PUSH1 0x20 ADD PUSH1 0x0 KECCAK256 PUSH1 0x2 ADD SLOAD PUSH2 0x324C JUMP JUMPDEST PUSH1 0x28 PUSH1 0x0 DUP6 PUSH20 0xFFFFFFFFFFFFFFFFFFFFFFFFFFFFFFFFFFFFFFFF AND PUSH20 0xFFFFFFFFFFFFFFFFFFFFFFFFFFFFFFFFFFFFFFFF AND DUP2 MSTORE PUSH1 0x20 ADD SWAP1 DUP2 MSTORE PUSH1 0x20 ADD PUSH1 0x0 KECCAK256 PUSH1 0x0 PUSH1 0x1 ISZERO ISZERO ISZERO ISZERO DUP2 MSTORE PUSH1 0x20 ADD SWAP1 DUP2 MSTORE PUSH1 0x20 ADD PUSH1 0x0 KECCAK256 PUSH1 0x1 ADD PUSH1 0x0 DUP3 DUP3 SLOAD PUSH2 0xE41 SWAP2 SWAP1 PUSH2 0x46E9 JUMP JUMPDEST SWAP3 POP POP DUP2 SWAP1 SSTORE POP DUP1 DUP3 GT DUP1 ISZERO PUSH2 0xE6A JUMPI POP PUSH1 0x0 ISZERO ISZERO PUSH1 0x24 PUSH1 0x0 SWAP1 SLOAD SWAP1 PUSH2 0x100 EXP SWAP1 DIV PUSH1 0xFF AND ISZERO ISZERO EQ JUMPDEST ISZERO PUSH2 0xEF4 JUMPI PUSH2 0xE86 DUP2 DUP4 PUSH2 0xE7E SWAP2 SWAP1 PUSH2 0x46E9 JUMP JUMPDEST PUSH1 0x0 DUP1 PUSH2 0x326E JUMP JUMPDEST PUSH1 0x29 PUSH1 0x0 DUP6 PUSH20 0xFFFFFFFFFFFFFFFFFFFFFFFFFFFFFFFFFFFFFFFF AND PUSH20 0xFFFFFFFFFFFFFFFFFFFFFFFFFFFFFFFFFFFFFFFF AND DUP2 MSTORE PUSH1 0x20 ADD SWAP1 DUP2 MSTORE PUSH1 0x20 ADD PUSH1 0x0 KECCAK256 PUSH1 0x0 PUSH1 0x2 DUP2 LT PUSH2 0xED8 JUMPI PUSH2 0xED7 PUSH2 0x4803 JUMP JUMPDEST JUMPDEST ADD PUSH1 0x0 DUP3 DUP3 SLOAD PUSH2 0xEE8 SWAP2 SWAP1 PUSH2 0x4497 JUMP JUMPDEST SWAP3 POP POP DUP2 SWAP1 SSTORE POP PUSH2 0x1217 JUMP JUMPDEST DUP1 DUP3 PUSH1 0x29 PUSH1 0x0 DUP7 PUSH20 0xFFFFFFFFFFFFFFFFFFFFFFFFFFFFFFFFFFFFFFFF AND PUSH20 0xFFFFFFFFFFFFFFFFFFFFFFFFFFFFFFFFFFFFFFFF AND DUP2 MSTORE PUSH1 0x20 ADD SWAP1 DUP2 MSTORE PUSH1 0x20 ADD PUSH1 0x0 KECCAK256 PUSH1 0x1 PUSH1 0x2 DUP2 LT PUSH2 0xF48 JUMPI PUSH2 0xF47 PUSH2 0x4803 JUMP JUMPDEST JUMPDEST ADD SLOAD PUSH2 0xF54 SWAP2 SWAP1 PUSH2 0x4497 JUMP JUMPDEST GT DUP1 ISZERO PUSH2 0xF74 JUMPI POP PUSH1 0x1 ISZERO ISZERO PUSH1 0x24 PUSH1 0x0 SWAP1 SLOAD SWAP1 PUSH2 0x100 EXP SWAP1 DIV PUSH1 0xFF AND ISZERO ISZERO EQ JUMPDEST ISZERO PUSH2 0x103F JUMPI DUP1 DUP3 PUSH1 0x29 PUSH1 0x0 DUP7 PUSH20 0xFFFFFFFFFFFFFFFFFFFFFFFFFFFFFFFFFFFFFFFF AND PUSH20 0xFFFFFFFFFFFFFFFFFFFFFFFFFFFFFFFFFFFFFFFF AND DUP2 MSTORE PUSH1 0x20 ADD SWAP1 DUP2 MSTORE PUSH1 0x20 ADD PUSH1 0x0 KECCAK256 PUSH1 0x1 PUSH1 0x2 DUP2 LT PUSH2 0xFCD JUMPI PUSH2 0xFCC PUSH2 0x4803 JUMP JUMPDEST JUMPDEST ADD SLOAD PUSH2 0xFD9 SWAP2 SWAP1 PUSH2 0x4497 JUMP JUMPDEST PUSH2 0xFE3 SWAP2 SWAP1 PUSH2 0x46E9 JUMP JUMPDEST PUSH1 0x29 PUSH1 0x0 DUP6 PUSH20 0xFFFFFFFFFFFFFFFFFFFFFFFFFFFFFFFFFFFFFFFF AND PUSH20 0xFFFFFFFFFFFFFFFFFFFFFFFFFFFFFFFFFFFFFFFF AND DUP2 MSTORE PUSH1 0x20 ADD SWAP1 DUP2 MSTORE PUSH1 0x20 ADD PUSH1 0x0 KECCAK256 PUSH1 0x1 PUSH1 0x2 DUP2 LT PUSH2 0x1035 JUMPI PUSH2 0x1034 PUSH2 0x4803 JUMP JUMPDEST JUMPDEST ADD DUP2 SWAP1 SSTORE POP PUSH2 0x1216 JUMP JUMPDEST PUSH2 0x1107 PUSH1 0x29 PUSH1 0x0 DUP6 PUSH20 0xFFFFFFFFFFFFFFFFFFFFFFFFFFFFFFFFFFFFFFFF AND PUSH20 0xFFFFFFFFFFFFFFFFFFFFFFFFFFFFFFFFFFFFFFFF AND DUP2 MSTORE PUSH1 0x20 ADD SWAP1 DUP2 MSTORE PUSH1 0x20 ADD PUSH1 0x0 KECCAK256 PUSH1 0x0 PUSH1 0x2 DUP2 LT PUSH2 0x1094 JUMPI PUSH2 0x1093 PUSH2 0x4803 JUMP JUMPDEST JUMPDEST ADD SLOAD PUSH1 0x0 PUSH1 0x29 PUSH1 0x0 DUP8 PUSH20 0xFFFFFFFFFFFFFFFFFFFFFFFFFFFFFFFFFFFFFFFF AND PUSH20 0xFFFFFFFFFFFFFFFFFFFFFFFFFFFFFFFFFFFFFFFF AND DUP2 MSTORE PUSH1 0x20 ADD SWAP1 DUP2 MSTORE PUSH1 0x20 ADD PUSH1 0x0 KECCAK256 PUSH1 0x1 PUSH1 0x2 DUP2 LT PUSH2 0x10EA JUMPI PUSH2 0x10E9 PUSH2 0x4803 JUMP JUMPDEST JUMPDEST ADD SLOAD DUP6 DUP6 PUSH2 0x10F8 SWAP2 SWAP1 PUSH2 0x46E9 JUMP JUMPDEST PUSH2 0x1102 SWAP2 SWAP1 PUSH2 0x46E9 JUMP JUMPDEST PUSH2 0x2E15 JUMP JUMPDEST PUSH1 0x29 PUSH1 0x0 DUP6 PUSH20 0xFFFFFFFFFFFFFFFFFFFFFFFFFFFFFFFFFFFFFFFF AND PUSH20 0xFFFFFFFFFFFFFFFFFFFFFFFFFFFFFFFFFFFFFFFF AND DUP2 MSTORE PUSH1 0x20 ADD SWAP1 DUP2 MSTORE PUSH1 0x20 ADD PUSH1 0x0 KECCAK256 PUSH1 0x0 PUSH1 0x2 DUP2 LT PUSH2 0x1159 JUMPI PUSH2 0x1158 PUSH2 0x4803 JUMP JUMPDEST JUMPDEST ADD SLOAD PUSH2 0x1165 SWAP2 SWAP1 PUSH2 0x46E9 JUMP JUMPDEST PUSH1 0x29 PUSH1 0x0 DUP6 PUSH20 0xFFFFFFFFFFFFFFFFFFFFFFFFFFFFFFFFFFFFFFFF AND PUSH20 0xFFFFFFFFFFFFFFFFFFFFFFFFFFFFFFFFFFFFFFFF AND DUP2 MSTORE PUSH1 0x20 ADD SWAP1 DUP2 MSTORE PUSH1 0x20 ADD PUSH1 0x0 KECCAK256 PUSH1 0x0 PUSH1 0x2 DUP2 LT PUSH2 0x11B7 JUMPI PUSH2 0x11B6 PUSH2 0x4803 JUMP JUMPDEST JUMPDEST ADD DUP2 SWAP1 SSTORE POP PUSH1 0x0 PUSH1 0x29 PUSH1 0x0 DUP6 PUSH20 0xFFFFFFFFFFFFFFFFFFFFFFFFFFFFFFFFFFFFFFFF AND PUSH20 0xFFFFFFFFFFFFFFFFFFFFFFFFFFFFFFFFFFFFFFFF AND DUP2 MSTORE PUSH1 0x20 ADD SWAP1 DUP2 MSTORE PUSH1 0x20 ADD PUSH1 0x0 KECCAK256 PUSH1 0x1 PUSH1 0x2 DUP2 LT PUSH2 0x1210 JUMPI PUSH2 0x120F PUSH2 0x4803 JUMP JUMPDEST JUMPDEST ADD DUP2 SWAP1 SSTORE POP JUMPDEST JUMPDEST POP POP PUSH2 0x187A JUMP JUMPDEST PUSH1 0x0 PUSH2 0x122D DUP4 PUSH1 0x1 PUSH1 0x0 PUSH2 0x326E JUMP JUMPDEST SWAP1 POP PUSH1 0x0 PUSH2 0x12F1 DUP5 PUSH1 0x28 PUSH1 0x0 DUP7 PUSH20 0xFFFFFFFFFFFFFFFFFFFFFFFFFFFFFFFFFFFFFFFF AND PUSH20 0xFFFFFFFFFFFFFFFFFFFFFFFFFFFFFFFFFFFFFFFF AND DUP2 MSTORE PUSH1 0x20 ADD SWAP1 DUP2 MSTORE PUSH1 0x20 ADD PUSH1 0x0 KECCAK256 PUSH1 0x0 DUP1 ISZERO ISZERO ISZERO ISZERO DUP2 MSTORE PUSH1 0x20 ADD SWAP1 DUP2 MSTORE PUSH1 0x20 ADD PUSH1 0x0 KECCAK256 PUSH1 0x1 ADD SLOAD PUSH1 0xE SLOAD PUSH1 0x10 SLOAD PUSH1 0x28 PUSH1 0x0 DUP10 PUSH20 0xFFFFFFFFFFFFFFFFFFFFFFFFFFFFFFFFFFFFFFFF AND PUSH20 0xFFFFFFFFFFFFFFFFFFFFFFFFFFFFFFFFFFFFFFFF AND DUP2 MSTORE PUSH1 0x20 ADD SWAP1 DUP2 MSTORE PUSH1 0x20 ADD PUSH1 0x0 KECCAK256 PUSH1 0x0 PUSH1 0x1 ISZERO ISZERO ISZERO ISZERO DUP2 MSTORE PUSH1 0x20 ADD SWAP1 DUP2 MSTORE PUSH1 0x20 ADD PUSH1 0x0 KECCAK256 PUSH1 0x2 ADD SLOAD PUSH2 0x3212 JUMP JUMPDEST SWAP1 POP DUP4 PUSH1 0x28 PUSH1 0x0 DUP6 PUSH20 0xFFFFFFFFFFFFFFFFFFFFFFFFFFFFFFFFFFFFFFFF AND PUSH20 0xFFFFFFFFFFFFFFFFFFFFFFFFFFFFFFFFFFFFFFFF AND DUP2 MSTORE PUSH1 0x20 ADD SWAP1 DUP2 MSTORE PUSH1 0x20 ADD PUSH1 0x0 KECCAK256 PUSH1 0x0 PUSH1 0x1 ISZERO ISZERO ISZERO ISZERO DUP2 MSTORE PUSH1 0x20 ADD SWAP1 DUP2 MSTORE PUSH1 0x20 ADD PUSH1 0x0 KECCAK256 PUSH1 0x2 ADD PUSH1 0x0 DUP3 DUP3 SLOAD PUSH2 0x135B SWAP2 SWAP1 PUSH2 0x46E9 JUMP JUMPDEST SWAP3 POP POP DUP2 SWAP1 SSTORE POP DUP1 PUSH1 0xE PUSH1 0x0 DUP3 DUP3 SLOAD PUSH2 0x1374 SWAP2 SWAP1 PUSH2 0x46E9 JUMP JUMPDEST SWAP3 POP POP DUP2 SWAP1 SSTORE POP PUSH2 0x1435 PUSH1 0x28 PUSH1 0x0 DUP6 PUSH20 0xFFFFFFFFFFFFFFFFFFFFFFFFFFFFFFFFFFFFFFFF AND PUSH20 0xFFFFFFFFFFFFFFFFFFFFFFFFFFFFFFFFFFFFFFFF AND DUP2 MSTORE PUSH1 0x20 ADD SWAP1 DUP2 MSTORE PUSH1 0x20 ADD PUSH1 0x0 KECCAK256 PUSH1 0x0 DUP1 ISZERO ISZERO ISZERO ISZERO DUP2 MSTORE PUSH1 0x20 ADD SWAP1 DUP2 MSTORE PUSH1 0x20 ADD PUSH1 0x0 KECCAK256 PUSH1 0x1 ADD SLOAD DUP6 PUSH1 0x28 PUSH1 0x0 DUP8 PUSH20 0xFFFFFFFFFFFFFFFFFFFFFFFFFFFFFFFFFFFFFFFF AND PUSH20 0xFFFFFFFFFFFFFFFFFFFFFFFFFFFFFFFFFFFFFFFF AND DUP2 MSTORE PUSH1 0x20 ADD SWAP1 DUP2 MSTORE PUSH1 0x20 ADD PUSH1 0x0 KECCAK256 PUSH1 0x0 PUSH1 0x1 ISZERO ISZERO ISZERO ISZERO DUP2 MSTORE PUSH1 0x20 ADD SWAP1 DUP2 MSTORE PUSH1 0x20 ADD PUSH1 0x0 KECCAK256 PUSH1 0x2 ADD SLOAD PUSH2 0x324C JUMP JUMPDEST PUSH1 0x10 PUSH1 0x0 DUP3 DUP3 SLOAD PUSH2 0x1446 SWAP2 SWAP1 PUSH2 0x46E9 JUMP JUMPDEST SWAP3 POP POP DUP2 SWAP1 SSTORE POP PUSH2 0x1507 PUSH1 0x28 PUSH1 0x0 DUP6 PUSH20 0xFFFFFFFFFFFFFFFFFFFFFFFFFFFFFFFFFFFFFFFF AND PUSH20 0xFFFFFFFFFFFFFFFFFFFFFFFFFFFFFFFFFFFFFFFF AND DUP2 MSTORE PUSH1 0x20 ADD SWAP1 DUP2 MSTORE PUSH1 0x20 ADD PUSH1 0x0 KECCAK256 PUSH1 0x0 DUP1 ISZERO ISZERO ISZERO ISZERO DUP2 MSTORE PUSH1 0x20 ADD SWAP1 DUP2 MSTORE PUSH1 0x20 ADD PUSH1 0x0 KECCAK256 PUSH1 0x1 ADD SLOAD DUP6 PUSH1 0x28 PUSH1 0x0 DUP8 PUSH20 0xFFFFFFFFFFFFFFFFFFFFFFFFFFFFFFFFFFFFFFFF AND PUSH20 0xFFFFFFFFFFFFFFFFFFFFFFFFFFFFFFFFFFFFFFFF AND DUP2 MSTORE PUSH1 0x20 ADD SWAP1 DUP2 MSTORE PUSH1 0x20 ADD PUSH1 0x0 KECCAK256 PUSH1 0x0 PUSH1 0x1 ISZERO ISZERO ISZERO ISZERO DUP2 MSTORE PUSH1 0x20 ADD SWAP1 DUP2 MSTORE PUSH1 0x20 ADD PUSH1 0x0 KECCAK256 PUSH1 0x2 ADD SLOAD PUSH2 0x324C JUMP JUMPDEST PUSH1 0x28 PUSH1 0x0 DUP6 PUSH20 0xFFFFFFFFFFFFFFFFFFFFFFFFFFFFFFFFFFFFFFFF AND PUSH20 0xFFFFFFFFFFFFFFFFFFFFFFFFFFFFFFFFFFFFFFFF AND DUP2 MSTORE PUSH1 0x20 ADD SWAP1 DUP2 MSTORE PUSH1 0x20 ADD PUSH1 0x0 KECCAK256 PUSH1 0x0 DUP1 ISZERO ISZERO ISZERO ISZERO DUP2 MSTORE PUSH1 0x20 ADD SWAP1 DUP2 MSTORE PUSH1 0x20 ADD PUSH1 0x0 KECCAK256 PUSH1 0x1 ADD PUSH1 0x0 DUP3 DUP3 SLOAD PUSH2 0x156D SWAP2 SWAP1 PUSH2 0x46E9 JUMP JUMPDEST SWAP3 POP POP DUP2 SWAP1 SSTORE POP DUP1 DUP3 PUSH1 0x29 PUSH1 0x0 DUP7 PUSH20 0xFFFFFFFFFFFFFFFFFFFFFFFFFFFFFFFFFFFFFFFF AND PUSH20 0xFFFFFFFFFFFFFFFFFFFFFFFFFFFFFFFFFFFFFFFF AND DUP2 MSTORE PUSH1 0x20 ADD SWAP1 DUP2 MSTORE PUSH1 0x20 ADD PUSH1 0x0 KECCAK256 PUSH1 0x0 PUSH1 0x2 DUP2 LT PUSH2 0x15C8 JUMPI PUSH2 0x15C7 PUSH2 0x4803 JUMP JUMPDEST JUMPDEST ADD SLOAD PUSH2 0x15D4 SWAP2 SWAP1 PUSH2 0x4497 JUMP JUMPDEST GT ISZERO PUSH2 0x16A0 JUMPI DUP1 DUP3 PUSH1 0x29 PUSH1 0x0 DUP7 PUSH20 0xFFFFFFFFFFFFFFFFFFFFFFFFFFFFFFFFFFFFFFFF AND PUSH20 0xFFFFFFFFFFFFFFFFFFFFFFFFFFFFFFFFFFFFFFFF AND DUP2 MSTORE PUSH1 0x20 ADD SWAP1 DUP2 MSTORE PUSH1 0x20 ADD PUSH1 0x0 KECCAK256 PUSH1 0x0 PUSH1 0x2 DUP2 LT PUSH2 0x162E JUMPI PUSH2 0x162D PUSH2 0x4803 JUMP JUMPDEST JUMPDEST ADD SLOAD PUSH2 0x163A SWAP2 SWAP1 PUSH2 0x4497 JUMP JUMPDEST PUSH2 0x1644 SWAP2 SWAP1 PUSH2 0x46E9 JUMP JUMPDEST PUSH1 0x29 PUSH1 0x0 DUP6 PUSH20 0xFFFFFFFFFFFFFFFFFFFFFFFFFFFFFFFFFFFFFFFF AND PUSH20 0xFFFFFFFFFFFFFFFFFFFFFFFFFFFFFFFFFFFFFFFF AND DUP2 MSTORE PUSH1 0x20 ADD SWAP1 DUP2 MSTORE PUSH1 0x20 ADD PUSH1 0x0 KECCAK256 PUSH1 0x0 PUSH1 0x2 DUP2 LT PUSH2 0x1696 JUMPI PUSH2 0x1695 PUSH2 0x4803 JUMP JUMPDEST JUMPDEST ADD DUP2 SWAP1 SSTORE POP PUSH2 0x1877 JUMP JUMPDEST PUSH2 0x1768 PUSH1 0x29 PUSH1 0x0 DUP6 PUSH20 0xFFFFFFFFFFFFFFFFFFFFFFFFFFFFFFFFFFFFFFFF AND PUSH20 0xFFFFFFFFFFFFFFFFFFFFFFFFFFFFFFFFFFFFFFFF AND DUP2 MSTORE PUSH1 0x20 ADD SWAP1 DUP2 MSTORE PUSH1 0x20 ADD PUSH1 0x0 KECCAK256 PUSH1 0x1 PUSH1 0x2 DUP2 LT PUSH2 0x16F5 JUMPI PUSH2 0x16F4 PUSH2 0x4803 JUMP JUMPDEST JUMPDEST ADD SLOAD PUSH1 0x0 PUSH1 0x29 PUSH1 0x0 DUP8 PUSH20 0xFFFFFFFFFFFFFFFFFFFFFFFFFFFFFFFFFFFFFFFF AND PUSH20 0xFFFFFFFFFFFFFFFFFFFFFFFFFFFFFFFFFFFFFFFF AND DUP2 MSTORE PUSH1 0x20 ADD SWAP1 DUP2 MSTORE PUSH1 0x20 ADD PUSH1 0x0 KECCAK256 PUSH1 0x0 PUSH1 0x2 DUP2 LT PUSH2 0x174B JUMPI PUSH2 0x174A PUSH2 0x4803 JUMP JUMPDEST JUMPDEST ADD SLOAD DUP6 DUP6 PUSH2 0x1759 SWAP2 SWAP1 PUSH2 0x46E9 JUMP JUMPDEST PUSH2 0x1763 SWAP2 SWAP1 PUSH2 0x46E9 JUMP JUMPDEST PUSH2 0x326E JUMP JUMPDEST PUSH1 0x29 PUSH1 0x0 DUP6 PUSH20 0xFFFFFFFFFFFFFFFFFFFFFFFFFFFFFFFFFFFFFFFF AND PUSH20 0xFFFFFFFFFFFFFFFFFFFFFFFFFFFFFFFFFFFFFFFF AND DUP2 MSTORE PUSH1 0x20 ADD SWAP1 DUP2 MSTORE PUSH1 0x20 ADD PUSH1 0x0 KECCAK256 PUSH1 0x1 PUSH1 0x2 DUP2 LT PUSH2 0x17BA JUMPI PUSH2 0x17B9 PUSH2 0x4803 JUMP JUMPDEST JUMPDEST ADD SLOAD PUSH2 0x17C6 SWAP2 SWAP1 PUSH2 0x46E9 JUMP JUMPDEST PUSH1 0x29 PUSH1 0x0 DUP6 PUSH20 0xFFFFFFFFFFFFFFFFFFFFFFFFFFFFFFFFFFFFFFFF AND PUSH20 0xFFFFFFFFFFFFFFFFFFFFFFFFFFFFFFFFFFFFFFFF AND DUP2 MSTORE PUSH1 0x20 ADD SWAP1 DUP2 MSTORE PUSH1 0x20 ADD PUSH1 0x0 KECCAK256 PUSH1 0x1 PUSH1 0x2 DUP2 LT PUSH2 0x1818 JUMPI PUSH2 0x1817 PUSH2 0x4803 JUMP JUMPDEST JUMPDEST ADD DUP2 SWAP1 SSTORE POP PUSH1 0x0 PUSH1 0x29 PUSH1 0x0 DUP6 PUSH20 0xFFFFFFFFFFFFFFFFFFFFFFFFFFFFFFFFFFFFFFFF AND PUSH20 0xFFFFFFFFFFFFFFFFFFFFFFFFFFFFFFFFFFFFFFFF AND DUP2 MSTORE PUSH1 0x20 ADD SWAP1 DUP2 MSTORE PUSH1 0x20 ADD PUSH1 0x0 KECCAK256 PUSH1 0x0 PUSH1 0x2 DUP2 LT PUSH2 0x1871 JUMPI PUSH2 0x1870 PUSH2 0x4803 JUMP JUMPDEST JUMPDEST ADD DUP2 SWAP1 SSTORE POP JUMPDEST POP POP JUMPDEST PUSH1 0x1 PUSH1 0x25 DUP2 SWAP1 SSTORE POP POP POP POP JUMP JUMPDEST PUSH1 0x1E PUSH1 0x0 SWAP1 SLOAD SWAP1 PUSH2 0x100 EXP SWAP1 DIV PUSH20 0xFFFFFFFFFFFFFFFFFFFFFFFFFFFFFFFFFFFFFFFF AND DUP2 JUMP JUMPDEST PUSH1 0x9 SLOAD DUP2 JUMP JUMPDEST PUSH1 0x1 PUSH1 0x25 SLOAD EQ PUSH2 0x18F8 JUMPI PUSH1 0x40 MLOAD PUSH32 0x8C379A000000000000000000000000000000000000000000000000000000000 DUP2 MSTORE PUSH1 0x4 ADD PUSH2 0x18EF SWAP1 PUSH2 0x4435 JUMP JUMPDEST PUSH1 0x40 MLOAD DUP1 SWAP2 SUB SWAP1 REVERT JUMPDEST PUSH1 0x0 PUSH1 0x25 DUP2 SWAP1 SSTORE POP PUSH1 0x0 DUP4 DUP6 PUSH2 0x190E SWAP2 SWAP1 PUSH2 0x468F JUMP JUMPDEST EQ DUP1 ISZERO PUSH2 0x1926 JUMPI POP PUSH1 0x0 DUP4 DUP6 PUSH2 0x1924 SWAP2 SWAP1 PUSH2 0x4497 JUMP JUMPDEST GT JUMPDEST PUSH2 0x192F JUMPI PUSH1 0x0 DUP1 REVERT JUMPDEST PUSH2 0x1937 PUSH2 0x2C97 JUMP JUMPDEST PUSH2 0x197B PUSH2 0x1943 DUP3 PUSH2 0x2AF0 JUMP JUMPDEST DUP6 PUSH2 0x194E SWAP2 SWAP1 PUSH2 0x4497 JUMP JUMPDEST PUSH2 0x1957 DUP4 PUSH2 0x2AF0 JUMP JUMPDEST PUSH2 0x196C DUP7 PUSH1 0xD SLOAD PUSH1 0x6 SLOAD PUSH1 0x5 SLOAD PUSH1 0x1D SLOAD PUSH2 0x3212 JUMP JUMPDEST PUSH2 0x1976 SWAP2 SWAP1 PUSH2 0x4497 JUMP JUMPDEST PUSH2 0x366B JUMP JUMPDEST PUSH1 0x1A SLOAD PUSH1 0x1D SLOAD PUSH2 0x198A DUP5 PUSH2 0x29FC JUMP JUMPDEST PUSH2 0x1993 DUP6 PUSH2 0x2AF0 JUMP JUMPDEST PUSH2 0x199C DUP7 PUSH2 0x2BC8 JUMP JUMPDEST PUSH2 0x19A6 SWAP2 SWAP1 PUSH2 0x4497 JUMP JUMPDEST PUSH2 0x19B0 SWAP2 SWAP1 PUSH2 0x46E9 JUMP JUMPDEST PUSH2 0x19BA SWAP2 SWAP1 PUSH2 0x468F JUMP JUMPDEST PUSH2 0x19C4 SWAP2 SWAP1 PUSH2 0x44ED JUMP JUMPDEST GT PUSH2 0x19CE JUMPI PUSH1 0x0 DUP1 REVERT JUMPDEST PUSH1 0x0 DUP1 PUSH1 0x1 ISZERO ISZERO DUP5 ISZERO ISZERO EQ ISZERO PUSH2 0x1E68 JUMPI PUSH1 0x0 DUP7 GT ISZERO PUSH2 0x19FE JUMPI PUSH2 0x19F4 DUP7 PUSH1 0x1 PUSH1 0x0 PUSH2 0x2E15 JUMP JUMPDEST SWAP2 POP DUP6 SWAP1 POP PUSH2 0x1A38 JUMP JUMPDEST DUP5 SWAP2 POP PUSH2 0x1A35 PUSH2 0x1A15 PUSH1 0xD SLOAD PUSH1 0x6 SLOAD PUSH1 0x5 SLOAD PUSH2 0x324C JUMP JUMPDEST PUSH1 0x1D SLOAD DUP8 PUSH2 0x1A23 SWAP2 SWAP1 PUSH2 0x468F JUMP JUMPDEST PUSH2 0x1A2D SWAP2 SWAP1 PUSH2 0x44ED JUMP JUMPDEST PUSH1 0x1 DUP8 PUSH2 0x2E15 JUMP JUMPDEST SWAP1 POP JUMPDEST PUSH2 0x1A47 DUP2 PUSH1 0x10 SLOAD PUSH1 0xE SLOAD PUSH2 0x324C JUMP JUMPDEST PUSH1 0x28 PUSH1 0x0 DUP6 PUSH20 0xFFFFFFFFFFFFFFFFFFFFFFFFFFFFFFFFFFFFFFFF AND PUSH20 0xFFFFFFFFFFFFFFFFFFFFFFFFFFFFFFFFFFFFFFFF AND DUP2 MSTORE PUSH1 0x20 ADD SWAP1 DUP2 MSTORE PUSH1 0x20 ADD PUSH1 0x0 KECCAK256 PUSH1 0x0 DUP1 ISZERO ISZERO ISZERO ISZERO DUP2 MSTORE PUSH1 0x20 ADD SWAP1 DUP2 MSTORE PUSH1 0x20 ADD PUSH1 0x0 KECCAK256 PUSH1 0x1 ADD PUSH1 0x0 DUP3 DUP3 SLOAD PUSH2 0x1AAD SWAP2 SWAP1 PUSH2 0x4497 JUMP JUMPDEST SWAP3 POP POP DUP2 SWAP1 SSTORE POP DUP2 PUSH1 0x28 PUSH1 0x0 DUP6 PUSH20 0xFFFFFFFFFFFFFFFFFFFFFFFFFFFFFFFFFFFFFFFF AND PUSH20 0xFFFFFFFFFFFFFFFFFFFFFFFFFFFFFFFFFFFFFFFF AND DUP2 MSTORE PUSH1 0x20 ADD SWAP1 DUP2 MSTORE PUSH1 0x20 ADD PUSH1 0x0 KECCAK256 PUSH1 0x0 PUSH1 0x1 ISZERO ISZERO ISZERO ISZERO DUP2 MSTORE PUSH1 0x20 ADD SWAP1 DUP2 MSTORE PUSH1 0x20 ADD PUSH1 0x0 KECCAK256 PUSH1 0x2 ADD PUSH1 0x0 DUP3 DUP3 SLOAD PUSH2 0x1B1C SWAP2 SWAP1 PUSH2 0x4497 JUMP JUMPDEST SWAP3 POP POP DUP2 SWAP1 SSTORE POP PUSH1 0x10 SLOAD PUSH2 0x1B35 DUP3 PUSH1 0x10 SLOAD PUSH1 0xE SLOAD PUSH2 0x324C JUMP JUMPDEST PUSH2 0x1B3F SWAP2 SWAP1 PUSH2 0x4497 JUMP JUMPDEST PUSH1 0x10 DUP2 SWAP1 SSTORE POP DUP1 PUSH1 0xE PUSH1 0x0 DUP3 DUP3 SLOAD PUSH2 0x1B57 SWAP2 SWAP1 PUSH2 0x4497 JUMP JUMPDEST SWAP3 POP POP DUP2 SWAP1 SSTORE POP PUSH8 0xDE0B6B3A7640000 PUSH1 0x23 SLOAD DUP3 PUSH2 0x1B75 SWAP2 SWAP1 PUSH2 0x468F JUMP JUMPDEST PUSH2 0x1B7F SWAP2 SWAP1 PUSH2 0x44ED JUMP JUMPDEST PUSH1 0x29 PUSH1 0x0 DUP6 PUSH20 0xFFFFFFFFFFFFFFFFFFFFFFFFFFFFFFFFFFFFFFFF AND PUSH20 0xFFFFFFFFFFFFFFFFFFFFFFFFFFFFFFFFFFFFFFFF AND DUP2 MSTORE PUSH1 0x20 ADD SWAP1 DUP2 MSTORE PUSH1 0x20 ADD PUSH1 0x0 KECCAK256 PUSH1 0x0 PUSH1 0x2 DUP2 LT PUSH2 0x1BD1 JUMPI PUSH2 0x1BD0 PUSH2 0x4803 JUMP JUMPDEST JUMPDEST ADD SLOAD GT ISZERO PUSH2 0x1CA1 JUMPI PUSH8 0xDE0B6B3A7640000 PUSH1 0x23 SLOAD DUP3 PUSH2 0x1BF0 SWAP2 SWAP1 PUSH2 0x468F JUMP JUMPDEST PUSH2 0x1BFA SWAP2 SWAP1 PUSH2 0x44ED JUMP JUMPDEST PUSH1 0x29 PUSH1 0x0 DUP6 PUSH20 0xFFFFFFFFFFFFFFFFFFFFFFFFFFFFFFFFFFFFFFFF AND PUSH20 0xFFFFFFFFFFFFFFFFFFFFFFFFFFFFFFFFFFFFFFFF AND DUP2 MSTORE PUSH1 0x20 ADD SWAP1 DUP2 MSTORE PUSH1 0x20 ADD PUSH1 0x0 KECCAK256 PUSH1 0x0 PUSH1 0x2 DUP2 LT PUSH2 0x1C4C JUMPI PUSH2 0x1C4B PUSH2 0x4803 JUMP JUMPDEST JUMPDEST ADD PUSH1 0x0 DUP3 DUP3 SLOAD PUSH2 0x1C5C SWAP2 SWAP1 PUSH2 0x46E9 JUMP JUMPDEST SWAP3 POP POP DUP2 SWAP1 SSTORE POP PUSH8 0xDE0B6B3A7640000 PUSH1 0x23 SLOAD DUP3 PUSH2 0x1C7A SWAP2 SWAP1 PUSH2 0x468F JUMP JUMPDEST PUSH2 0x1C84 SWAP2 SWAP1 PUSH2 0x44ED JUMP JUMPDEST PUSH1 0xB PUSH1 0x0 DUP3 DUP3 SLOAD PUSH2 0x1C95 SWAP2 SWAP1 PUSH2 0x4497 JUMP JUMPDEST SWAP3 POP POP DUP2 SWAP1 SSTORE POP PUSH2 0x1E63 JUMP JUMPDEST PUSH1 0x0 PUSH1 0x29 PUSH1 0x0 DUP6 PUSH20 0xFFFFFFFFFFFFFFFFFFFFFFFFFFFFFFFFFFFFFFFF AND PUSH20 0xFFFFFFFFFFFFFFFFFFFFFFFFFFFFFFFFFFFFFFFF AND DUP2 MSTORE PUSH1 0x20 ADD SWAP1 DUP2 MSTORE PUSH1 0x20 ADD PUSH1 0x0 KECCAK256 PUSH1 0x0 PUSH1 0x2 DUP2 LT PUSH2 0x1CF5 JUMPI PUSH2 0x1CF4 PUSH2 0x4803 JUMP JUMPDEST JUMPDEST ADD SLOAD PUSH8 0xDE0B6B3A7640000 PUSH1 0x23 SLOAD DUP5 PUSH2 0x1D0E SWAP2 SWAP1 PUSH2 0x468F JUMP JUMPDEST PUSH2 0x1D18 SWAP2 SWAP1 PUSH2 0x44ED JUMP JUMPDEST PUSH2 0x1D22 SWAP2 SWAP1 PUSH2 0x46E9 JUMP JUMPDEST SWAP1 POP PUSH1 0x0 PUSH1 0x29 PUSH1 0x0 DUP7 PUSH20 0xFFFFFFFFFFFFFFFFFFFFFFFFFFFFFFFFFFFFFFFF AND PUSH20 0xFFFFFFFFFFFFFFFFFFFFFFFFFFFFFFFFFFFFFFFF AND DUP2 MSTORE PUSH1 0x20 ADD SWAP1 DUP2 MSTORE PUSH1 0x20 ADD PUSH1 0x0 KECCAK256 PUSH1 0x0 PUSH1 0x2 DUP2 LT PUSH2 0x1D78 JUMPI PUSH2 0x1D77 PUSH2 0x4803 JUMP JUMPDEST JUMPDEST ADD DUP2 SWAP1 SSTORE POP PUSH2 0x1DDC PUSH1 0x29 PUSH1 0x0 DUP7 PUSH20 0xFFFFFFFFFFFFFFFFFFFFFFFFFFFFFFFFFFFFFFFF AND PUSH20 0xFFFFFFFFFFFFFFFFFFFFFFFFFFFFFFFFFFFFFFFF AND DUP2 MSTORE PUSH1 0x20 ADD SWAP1 DUP2 MSTORE PUSH1 0x20 ADD PUSH1 0x0 KECCAK256 PUSH1 0x1 PUSH1 0x2 DUP2 LT PUSH2 0x1DD2 JUMPI PUSH2 0x1DD1 PUSH2 0x4803 JUMP JUMPDEST JUMPDEST ADD SLOAD PUSH1 0x0 DUP4 PUSH2 0x326E JUMP JUMPDEST SWAP1 POP DUP1 PUSH1 0x29 PUSH1 0x0 DUP7 PUSH20 0xFFFFFFFFFFFFFFFFFFFFFFFFFFFFFFFFFFFFFFFF AND PUSH20 0xFFFFFFFFFFFFFFFFFFFFFFFFFFFFFFFFFFFFFFFF AND DUP2 MSTORE PUSH1 0x20 ADD SWAP1 DUP2 MSTORE PUSH1 0x20 ADD PUSH1 0x0 KECCAK256 PUSH1 0x1 PUSH1 0x2 DUP2 LT PUSH2 0x1E31 JUMPI PUSH2 0x1E30 PUSH2 0x4803 JUMP JUMPDEST JUMPDEST ADD PUSH1 0x0 DUP3 DUP3 SLOAD PUSH2 0x1E41 SWAP2 SWAP1 PUSH2 0x46E9 JUMP JUMPDEST SWAP3 POP POP DUP2 SWAP1 SSTORE POP DUP1 PUSH1 0xC PUSH1 0x0 DUP3 DUP3 SLOAD PUSH2 0x1E5A SWAP2 SWAP1 PUSH2 0x4497 JUMP JUMPDEST SWAP3 POP POP DUP2 SWAP1 SSTORE POP POP JUMPDEST PUSH2 0x22EE JUMP JUMPDEST PUSH1 0x0 DUP7 GT ISZERO PUSH2 0x1EAF JUMPI DUP6 SWAP2 POP PUSH2 0x1EA8 PUSH1 0x1D SLOAD PUSH2 0x1E8B PUSH1 0xD SLOAD PUSH1 0x6 SLOAD PUSH1 0x5 SLOAD PUSH2 0x324C JUMP JUMPDEST DUP9 PUSH2 0x1E96 SWAP2 SWAP1 PUSH2 0x468F JUMP JUMPDEST PUSH2 0x1EA0 SWAP2 SWAP1 PUSH2 0x44ED JUMP JUMPDEST PUSH1 0x1 DUP9 PUSH2 0x326E JUMP JUMPDEST SWAP1 POP PUSH2 0x1EC2 JUMP JUMPDEST PUSH2 0x1EBC DUP6 PUSH1 0x1 PUSH1 0x0 PUSH2 0x326E JUMP JUMPDEST SWAP2 POP DUP5 SWAP1 POP JUMPDEST PUSH2 0x1ED1 DUP2 PUSH1 0x11 SLOAD PUSH1 0xF SLOAD PUSH2 0x324C JUMP JUMPDEST PUSH1 0x28 PUSH1 0x0 DUP6 PUSH20 0xFFFFFFFFFFFFFFFFFFFFFFFFFFFFFFFFFFFFFFFF AND PUSH20 0xFFFFFFFFFFFFFFFFFFFFFFFFFFFFFFFFFFFFFFFF AND DUP2 MSTORE PUSH1 0x20 ADD SWAP1 DUP2 MSTORE PUSH1 0x20 ADD PUSH1 0x0 KECCAK256 PUSH1 0x0 PUSH1 0x1 ISZERO ISZERO ISZERO ISZERO DUP2 MSTORE PUSH1 0x20 ADD SWAP1 DUP2 MSTORE PUSH1 0x20 ADD PUSH1 0x0 KECCAK256 PUSH1 0x1 ADD PUSH1 0x0 DUP3 DUP3 SLOAD PUSH2 0x1F38 SWAP2 SWAP1 PUSH2 0x4497 JUMP JUMPDEST SWAP3 POP POP DUP2 SWAP1 SSTORE POP DUP2 PUSH1 0x28 PUSH1 0x0 DUP6 PUSH20 0xFFFFFFFFFFFFFFFFFFFFFFFFFFFFFFFFFFFFFFFF AND PUSH20 0xFFFFFFFFFFFFFFFFFFFFFFFFFFFFFFFFFFFFFFFF AND DUP2 MSTORE PUSH1 0x20 ADD SWAP1 DUP2 MSTORE PUSH1 0x20 ADD PUSH1 0x0 KECCAK256 PUSH1 0x0 DUP1 ISZERO ISZERO ISZERO ISZERO DUP2 MSTORE PUSH1 0x20 ADD SWAP1 DUP2 MSTORE PUSH1 0x20 ADD PUSH1 0x0 KECCAK256 PUSH1 0x2 ADD PUSH1 0x0 DUP3 DUP3 SLOAD PUSH2 0x1FA6 SWAP2 SWAP1 PUSH2 0x4497 JUMP JUMPDEST SWAP3 POP POP DUP2 SWAP1 SSTORE POP PUSH1 0x11 SLOAD PUSH2 0x1FBF DUP3 PUSH1 0x11 SLOAD PUSH1 0xF SLOAD PUSH2 0x324C JUMP JUMPDEST PUSH2 0x1FC9 SWAP2 SWAP1 PUSH2 0x4497 JUMP JUMPDEST PUSH1 0x11 DUP2 SWAP1 SSTORE POP DUP1 PUSH1 0xF PUSH1 0x0 DUP3 DUP3 SLOAD PUSH2 0x1FE1 SWAP2 SWAP1 PUSH2 0x4497 JUMP JUMPDEST SWAP3 POP POP DUP2 SWAP1 SSTORE POP PUSH8 0xDE0B6B3A7640000 PUSH1 0x23 SLOAD DUP3 PUSH2 0x1FFF SWAP2 SWAP1 PUSH2 0x468F JUMP JUMPDEST PUSH2 0x2009 SWAP2 SWAP1 PUSH2 0x44ED JUMP JUMPDEST PUSH1 0x29 PUSH1 0x0 DUP6 PUSH20 0xFFFFFFFFFFFFFFFFFFFFFFFFFFFFFFFFFFFFFFFF AND PUSH20 0xFFFFFFFFFFFFFFFFFFFFFFFFFFFFFFFFFFFFFFFF AND DUP2 MSTORE PUSH1 0x20 ADD SWAP1 DUP2 MSTORE PUSH1 0x20 ADD PUSH1 0x0 KECCAK256 PUSH1 0x1 PUSH1 0x2 DUP2 LT PUSH2 0x205B JUMPI PUSH2 0x205A PUSH2 0x4803 JUMP JUMPDEST JUMPDEST ADD SLOAD GT ISZERO PUSH2 0x212B JUMPI PUSH8 0xDE0B6B3A7640000 PUSH1 0x23 SLOAD DUP3 PUSH2 0x207A SWAP2 SWAP1 PUSH2 0x468F JUMP JUMPDEST PUSH2 0x2084 SWAP2 SWAP1 PUSH2 0x44ED JUMP JUMPDEST PUSH1 0x29 PUSH1 0x0 DUP6 PUSH20 0xFFFFFFFFFFFFFFFFFFFFFFFFFFFFFFFFFFFFFFFF AND PUSH20 0xFFFFFFFFFFFFFFFFFFFFFFFFFFFFFFFFFFFFFFFF AND DUP2 MSTORE PUSH1 0x20 ADD SWAP1 DUP2 MSTORE PUSH1 0x20 ADD PUSH1 0x0 KECCAK256 PUSH1 0x1 PUSH1 0x2 DUP2 LT PUSH2 0x20D6 JUMPI PUSH2 0x20D5 PUSH2 0x4803 JUMP JUMPDEST JUMPDEST ADD PUSH1 0x0 DUP3 DUP3 SLOAD PUSH2 0x20E6 SWAP2 SWAP1 PUSH2 0x46E9 JUMP JUMPDEST SWAP3 POP POP DUP2 SWAP1 SSTORE POP PUSH8 0xDE0B6B3A7640000 PUSH1 0x23 SLOAD DUP3 PUSH2 0x2104 SWAP2 SWAP1 PUSH2 0x468F JUMP JUMPDEST PUSH2 0x210E SWAP2 SWAP1 PUSH2 0x44ED JUMP JUMPDEST PUSH1 0xC PUSH1 0x0 DUP3 DUP3 SLOAD PUSH2 0x211F SWAP2 SWAP1 PUSH2 0x4497 JUMP JUMPDEST SWAP3 POP POP DUP2 SWAP1 SSTORE POP PUSH2 0x22ED JUMP JUMPDEST PUSH1 0x0 PUSH1 0x29 PUSH1 0x0 DUP6 PUSH20 0xFFFFFFFFFFFFFFFFFFFFFFFFFFFFFFFFFFFFFFFF AND PUSH20 0xFFFFFFFFFFFFFFFFFFFFFFFFFFFFFFFFFFFFFFFF AND DUP2 MSTORE PUSH1 0x20 ADD SWAP1 DUP2 MSTORE PUSH1 0x20 ADD PUSH1 0x0 KECCAK256 PUSH1 0x1 PUSH1 0x2 DUP2 LT PUSH2 0x217F JUMPI PUSH2 0x217E PUSH2 0x4803 JUMP JUMPDEST JUMPDEST ADD SLOAD PUSH8 0xDE0B6B3A7640000 PUSH1 0x23 SLOAD DUP5 PUSH2 0x2198 SWAP2 SWAP1 PUSH2 0x468F JUMP JUMPDEST PUSH2 0x21A2 SWAP2 SWAP1 PUSH2 0x44ED JUMP JUMPDEST PUSH2 0x21AC SWAP2 SWAP1 PUSH2 0x46E9 JUMP JUMPDEST SWAP1 POP PUSH1 0x0 PUSH1 0x29 PUSH1 0x0 DUP7 PUSH20 0xFFFFFFFFFFFFFFFFFFFFFFFFFFFFFFFFFFFFFFFF AND PUSH20 0xFFFFFFFFFFFFFFFFFFFFFFFFFFFFFFFFFFFFFFFF AND DUP2 MSTORE PUSH1 0x20 ADD SWAP1 DUP2 MSTORE PUSH1 0x20 ADD PUSH1 0x0 KECCAK256 PUSH1 0x1 PUSH1 0x2 DUP2 LT PUSH2 0x2202 JUMPI PUSH2 0x2201 PUSH2 0x4803 JUMP JUMPDEST JUMPDEST ADD DUP2 SWAP1 SSTORE POP PUSH2 0x2266 PUSH1 0x29 PUSH1 0x0 DUP7 PUSH20 0xFFFFFFFFFFFFFFFFFFFFFFFFFFFFFFFFFFFFFFFF AND PUSH20 0xFFFFFFFFFFFFFFFFFFFFFFFFFFFFFFFFFFFFFFFF AND DUP2 MSTORE PUSH1 0x20 ADD SWAP1 DUP2 MSTORE PUSH1 0x20 ADD PUSH1 0x0 KECCAK256 PUSH1 0x0 PUSH1 0x2 DUP2 LT PUSH2 0x225C JUMPI PUSH2 0x225B PUSH2 0x4803 JUMP JUMPDEST JUMPDEST ADD SLOAD PUSH1 0x0 DUP4 PUSH2 0x2E15 JUMP JUMPDEST SWAP1 POP DUP1 PUSH1 0x29 PUSH1 0x0 DUP7 PUSH20 0xFFFFFFFFFFFFFFFFFFFFFFFFFFFFFFFFFFFFFFFF AND PUSH20 0xFFFFFFFFFFFFFFFFFFFFFFFFFFFFFFFFFFFFFFFF AND DUP2 MSTORE PUSH1 0x20 ADD SWAP1 DUP2 MSTORE PUSH1 0x20 ADD PUSH1 0x0 KECCAK256 PUSH1 0x0 PUSH1 0x2 DUP2 LT PUSH2 0x22BB JUMPI PUSH2 0x22BA PUSH2 0x4803 JUMP JUMPDEST JUMPDEST ADD PUSH1 0x0 DUP3 DUP3 SLOAD PUSH2 0x22CB SWAP2 SWAP1 PUSH2 0x46E9 JUMP JUMPDEST SWAP3 POP POP DUP2 SWAP1 SSTORE POP DUP1 PUSH1 0xB PUSH1 0x0 DUP3 DUP3 SLOAD PUSH2 0x22E4 SWAP2 SWAP1 PUSH2 0x4497 JUMP JUMPDEST SWAP3 POP POP DUP2 SWAP1 SSTORE POP POP JUMPDEST JUMPDEST POP POP PUSH1 0x1 PUSH1 0x25 DUP2 SWAP1 SSTORE POP POP POP POP POP JUMP JUMPDEST PUSH1 0x7 SLOAD DUP2 JUMP JUMPDEST PUSH1 0x1F SLOAD DUP2 JUMP JUMPDEST PUSH1 0xE SLOAD DUP2 JUMP JUMPDEST PUSH1 0x1D SLOAD DUP2 JUMP JUMPDEST PUSH1 0x10 SLOAD DUP2 JUMP JUMPDEST PUSH1 0x1 PUSH1 0x25 SLOAD EQ PUSH2 0x2361 JUMPI PUSH1 0x40 MLOAD PUSH32 0x8C379A000000000000000000000000000000000000000000000000000000000 DUP2 MSTORE PUSH1 0x4 ADD PUSH2 0x2358 SWAP1 PUSH2 0x4435 JUMP JUMPDEST PUSH1 0x40 MLOAD DUP1 SWAP2 SUB SWAP1 REVERT JUMPDEST PUSH1 0x0 PUSH1 0x25 DUP2 SWAP1 SSTORE POP PUSH2 0x2372 DUP3 PUSH2 0x29FC JUMP JUMPDEST PUSH2 0x237B DUP4 PUSH2 0x2AF0 JUMP JUMPDEST PUSH2 0x2384 DUP5 PUSH2 0x2BC8 JUMP JUMPDEST PUSH2 0x238E SWAP2 SWAP1 PUSH2 0x4497 JUMP JUMPDEST GT ISZERO DUP1 PUSH2 0x23DE JUMPI POP PUSH1 0x1C SLOAD PUSH2 0x23A2 DUP4 PUSH2 0x2AF0 JUMP JUMPDEST PUSH2 0x23AC SWAP2 SWAP1 PUSH2 0x468F JUMP JUMPDEST PUSH2 0x23B5 DUP4 PUSH2 0x29FC JUMP JUMPDEST PUSH2 0x23BE DUP5 PUSH2 0x2AF0 JUMP JUMPDEST PUSH2 0x23C7 DUP6 PUSH2 0x2BC8 JUMP JUMPDEST PUSH2 0x23D1 SWAP2 SWAP1 PUSH2 0x4497 JUMP JUMPDEST PUSH2 0x23DB SWAP2 SWAP1 PUSH2 0x46E9 JUMP JUMPDEST GT ISZERO JUMPDEST PUSH2 0x23E7 JUMPI PUSH1 0x0 DUP1 REVERT JUMPDEST PUSH2 0x2474 PUSH1 0x18 PUSH1 0x0 SWAP1 SLOAD SWAP1 PUSH2 0x100 EXP SWAP1 DIV PUSH20 0xFFFFFFFFFFFFFFFFFFFFFFFFFFFFFFFFFFFFFFFF AND DUP3 PUSH1 0x1F SLOAD PUSH1 0x29 PUSH1 0x0 DUP8 PUSH20 0xFFFFFFFFFFFFFFFFFFFFFFFFFFFFFFFFFFFFFFFF AND PUSH20 0xFFFFFFFFFFFFFFFFFFFFFFFFFFFFFFFFFFFFFFFF AND DUP2 MSTORE PUSH1 0x20 ADD SWAP1 DUP2 MSTORE PUSH1 0x20 ADD PUSH1 0x0 KECCAK256 PUSH1 0x0 PUSH1 0x2 DUP2 LT PUSH2 0x2463 JUMPI PUSH2 0x2462 PUSH2 0x4803 JUMP JUMPDEST JUMPDEST ADD SLOAD PUSH2 0x246F SWAP2 SWAP1 PUSH2 0x468F JUMP JUMPDEST PUSH2 0x3684 JUMP JUMPDEST PUSH2 0x2501 PUSH1 0x19 PUSH1 0x0 SWAP1 SLOAD SWAP1 PUSH2 0x100 EXP SWAP1 DIV PUSH20 0xFFFFFFFFFFFFFFFFFFFFFFFFFFFFFFFFFFFFFFFF AND DUP3 PUSH1 0x1F SLOAD PUSH1 0x29 PUSH1 0x0 DUP8 PUSH20 0xFFFFFFFFFFFFFFFFFFFFFFFFFFFFFFFFFFFFFFFF AND PUSH20 0xFFFFFFFFFFFFFFFFFFFFFFFFFFFFFFFFFFFFFFFF AND DUP2 MSTORE PUSH1 0x20 ADD SWAP1 DUP2 MSTORE PUSH1 0x20 ADD PUSH1 0x0 KECCAK256 PUSH1 0x1 PUSH1 0x2 DUP2 LT PUSH2 0x24F0 JUMPI PUSH2 0x24EF PUSH2 0x4803 JUMP JUMPDEST JUMPDEST ADD SLOAD PUSH2 0x24FC SWAP2 SWAP1 PUSH2 0x468F JUMP JUMPDEST PUSH2 0x3684 JUMP JUMPDEST PUSH1 0x29 PUSH1 0x0 DUP4 PUSH20 0xFFFFFFFFFFFFFFFFFFFFFFFFFFFFFFFFFFFFFFFF AND PUSH20 0xFFFFFFFFFFFFFFFFFFFFFFFFFFFFFFFFFFFFFFFF AND DUP2 MSTORE PUSH1 0x20 ADD SWAP1 DUP2 MSTORE PUSH1 0x20 ADD PUSH1 0x0 KECCAK256 PUSH1 0x0 PUSH2 0x254C SWAP2 SWAP1 PUSH2 0x402D JUMP JUMPDEST PUSH1 0x0 PUSH1 0x28 PUSH1 0x0 DUP5 PUSH20 0xFFFFFFFFFFFFFFFFFFFFFFFFFFFFFFFFFFFFFFFF AND PUSH20 0xFFFFFFFFFFFFFFFFFFFFFFFFFFFFFFFFFFFFFFFF AND DUP2 MSTORE PUSH1 0x20 ADD SWAP1 DUP2 MSTORE PUSH1 0x20 ADD PUSH1 0x0 KECCAK256 PUSH1 0x0 DUP1 ISZERO ISZERO ISZERO ISZERO DUP2 MSTORE PUSH1 0x20 ADD SWAP1 DUP2 MSTORE PUSH1 0x20 ADD PUSH1 0x0 KECCAK256 PUSH1 0x1 ADD DUP2 SWAP1 SSTORE POP PUSH1 0x0 PUSH1 0x28 PUSH1 0x0 DUP5 PUSH20 0xFFFFFFFFFFFFFFFFFFFFFFFFFFFFFFFFFFFFFFFF AND PUSH20 0xFFFFFFFFFFFFFFFFFFFFFFFFFFFFFFFFFFFFFFFF AND DUP2 MSTORE PUSH1 0x20 ADD SWAP1 DUP2 MSTORE PUSH1 0x20 ADD PUSH1 0x0 KECCAK256 PUSH1 0x0 PUSH1 0x1 ISZERO ISZERO ISZERO ISZERO DUP2 MSTORE PUSH1 0x20 ADD SWAP1 DUP2 MSTORE PUSH1 0x20 ADD PUSH1 0x0 KECCAK256 PUSH1 0x1 ADD DUP2 SWAP1 SSTORE POP PUSH2 0x26C1 PUSH1 0x28 PUSH1 0x0 DUP5 PUSH20 0xFFFFFFFFFFFFFFFFFFFFFFFFFFFFFFFFFFFFFFFF AND PUSH20 0xFFFFFFFFFFFFFFFFFFFFFFFFFFFFFFFFFFFFFFFF AND DUP2 MSTORE PUSH1 0x20 ADD SWAP1 DUP2 MSTORE PUSH1 0x20 ADD PUSH1 0x0 KECCAK256 PUSH1 0x0 DUP1 ISZERO ISZERO ISZERO ISZERO DUP2 MSTORE PUSH1 0x20 ADD SWAP1 DUP2 MSTORE PUSH1 0x20 ADD PUSH1 0x0 KECCAK256 PUSH1 0x2 ADD SLOAD PUSH1 0x28 PUSH1 0x0 DUP6 PUSH20 0xFFFFFFFFFFFFFFFFFFFFFFFFFFFFFFFFFFFFFFFF AND PUSH20 0xFFFFFFFFFFFFFFFFFFFFFFFFFFFFFFFFFFFFFFFF AND DUP2 MSTORE PUSH1 0x20 ADD SWAP1 DUP2 MSTORE PUSH1 0x20 ADD PUSH1 0x0 KECCAK256 PUSH1 0x0 PUSH1 0x1 ISZERO ISZERO ISZERO ISZERO DUP2 MSTORE PUSH1 0x20 ADD SWAP1 DUP2 MSTORE PUSH1 0x20 ADD PUSH1 0x0 KECCAK256 PUSH1 0x2 ADD SLOAD DUP5 PUSH2 0x970 JUMP JUMPDEST PUSH1 0x1 PUSH1 0x25 DUP2 SWAP1 SSTORE POP POP POP JUMP JUMPDEST PUSH1 0x4 SLOAD DUP2 JUMP JUMPDEST PUSH1 0x3 SLOAD DUP2 JUMP JUMPDEST PUSH1 0xF SLOAD DUP2 JUMP JUMPDEST PUSH1 0x6 SLOAD DUP2 JUMP JUMPDEST PUSH1 0x1C SLOAD DUP2 JUMP JUMPDEST PUSH1 0x15 PUSH1 0x0 SWAP1 SLOAD SWAP1 PUSH2 0x100 EXP SWAP1 DIV PUSH1 0xFF AND DUP2 JUMP JUMPDEST PUSH1 0x19 PUSH1 0x0 SWAP1 SLOAD SWAP1 PUSH2 0x100 EXP SWAP1 DIV PUSH20 0xFFFFFFFFFFFFFFFFFFFFFFFFFFFFFFFFFFFFFFFF AND PUSH20 0xFFFFFFFFFFFFFFFFFFFFFFFFFFFFFFFFFFFFFFFF AND DUP3 PUSH20 0xFFFFFFFFFFFFFFFFFFFFFFFFFFFFFFFFFFFFFFFF AND EQ DUP1 ISZERO PUSH2 0x276E JUMPI POP PUSH1 0x1 ISZERO ISZERO PUSH1 0x24 PUSH1 0x0 SWAP1 SLOAD SWAP1 PUSH2 0x100 EXP SWAP1 DIV PUSH1 0xFF AND ISZERO ISZERO EQ JUMPDEST ISZERO PUSH2 0x2840 JUMPI PUSH1 0x26 PUSH1 0x1 PUSH1 0x2 DUP2 LT PUSH2 0x2788 JUMPI PUSH2 0x2787 PUSH2 0x4803 JUMP JUMPDEST JUMPDEST ADD SLOAD PUSH1 0xC SLOAD DUP5 PUSH2 0x2798 SWAP2 SWAP1 PUSH2 0x46E9 JUMP JUMPDEST PUSH2 0x27A2 SWAP2 SWAP1 PUSH2 0x46E9 JUMP JUMPDEST SWAP3 POP DUP3 PUSH1 0x29 PUSH1 0x0 DUP4 PUSH20 0xFFFFFFFFFFFFFFFFFFFFFFFFFFFFFFFFFFFFFFFF AND PUSH20 0xFFFFFFFFFFFFFFFFFFFFFFFFFFFFFFFFFFFFFFFF AND DUP2 MSTORE PUSH1 0x20 ADD SWAP1 DUP2 MSTORE PUSH1 0x20 ADD PUSH1 0x0 KECCAK256 PUSH1 0x1 PUSH1 0x2 DUP2 LT PUSH2 0x27F7 JUMPI PUSH2 0x27F6 PUSH2 0x4803 JUMP JUMPDEST JUMPDEST ADD PUSH1 0x0 DUP3 DUP3 SLOAD PUSH2 0x2807 SWAP2 SWAP1 PUSH2 0x4497 JUMP JUMPDEST SWAP3 POP POP DUP2 SWAP1 SSTORE POP DUP3 PUSH1 0x26 PUSH1 0x1 PUSH1 0x2 DUP2 LT PUSH2 0x2824 JUMPI PUSH2 0x2823 PUSH2 0x4803 JUMP JUMPDEST JUMPDEST ADD PUSH1 0x0 DUP3 DUP3 SLOAD PUSH2 0x2834 SWAP2 SWAP1 PUSH2 0x4497 JUMP JUMPDEST SWAP3 POP POP DUP2 SWAP1 SSTORE POP PUSH2 0x2909 JUMP JUMPDEST PUSH1 0x26 PUSH1 0x0 PUSH1 0x2 DUP2 LT PUSH2 0x2855 JUMPI PUSH2 0x2854 PUSH2 0x4803 JUMP JUMPDEST JUMPDEST ADD SLOAD PUSH1 0xB SLOAD DUP5 PUSH2 0x2865 SWAP2 SWAP1 PUSH2 0x46E9 JUMP JUMPDEST PUSH2 0x286F SWAP2 SWAP1 PUSH2 0x46E9 JUMP JUMPDEST SWAP3 POP DUP3 PUSH1 0x29 PUSH1 0x0 DUP4 PUSH20 0xFFFFFFFFFFFFFFFFFFFFFFFFFFFFFFFFFFFFFFFF AND PUSH20 0xFFFFFFFFFFFFFFFFFFFFFFFFFFFFFFFFFFFFFFFF AND DUP2 MSTORE PUSH1 0x20 ADD SWAP1 DUP2 MSTORE PUSH1 0x20 ADD PUSH1 0x0 KECCAK256 PUSH1 0x0 PUSH1 0x2 DUP2 LT PUSH2 0x28C4 JUMPI PUSH2 0x28C3 PUSH2 0x4803 JUMP JUMPDEST JUMPDEST ADD PUSH1 0x0 DUP3 DUP3 SLOAD PUSH2 0x28D4 SWAP2 SWAP1 PUSH2 0x4497 JUMP JUMPDEST SWAP3 POP POP DUP2 SWAP1 SSTORE POP DUP3 PUSH1 0x26 PUSH1 0x0 PUSH1 0x2 DUP2 LT PUSH2 0x28F1 JUMPI PUSH2 0x28F0 PUSH2 0x4803 JUMP JUMPDEST JUMPDEST ADD PUSH1 0x0 DUP3 DUP3 SLOAD PUSH2 0x2901 SWAP2 SWAP1 PUSH2 0x4497 JUMP JUMPDEST SWAP3 POP POP DUP2 SWAP1 SSTORE POP JUMPDEST POP POP POP JUMP JUMPDEST PUSH1 0x19 PUSH1 0x0 SWAP1 SLOAD SWAP1 PUSH2 0x100 EXP SWAP1 DIV PUSH20 0xFFFFFFFFFFFFFFFFFFFFFFFFFFFFFFFFFFFFFFFF AND DUP2 JUMP JUMPDEST PUSH1 0xB SLOAD DUP2 JUMP JUMPDEST PUSH1 0x5 SLOAD DUP2 JUMP JUMPDEST PUSH1 0x17 PUSH1 0x0 SWAP1 SLOAD SWAP1 PUSH2 0x100 EXP SWAP1 DIV PUSH20 0xFFFFFFFFFFFFFFFFFFFFFFFFFFFFFFFFFFFFFFFF AND DUP2 JUMP JUMPDEST PUSH1 0x16 SLOAD DUP2 JUMP JUMPDEST PUSH1 0x8 SLOAD DUP2 JUMP JUMPDEST PUSH1 0x12 SLOAD DUP2 JUMP JUMPDEST PUSH1 0xA SLOAD DUP2 JUMP JUMPDEST PUSH1 0x21 SLOAD DUP2 JUMP JUMPDEST PUSH1 0x1A SLOAD DUP2 JUMP JUMPDEST PUSH1 0x2 SLOAD DUP2 JUMP JUMPDEST PUSH1 0x20 SLOAD DUP2 JUMP JUMPDEST PUSH1 0x13 SLOAD DUP2 JUMP JUMPDEST PUSH1 0x0 PUSH2 0x29EE PUSH2 0x29AF DUP5 DUP11 DUP11 DUP7 DUP11 DUP11 PUSH2 0x380E JUMP JUMPDEST PUSH23 0xA70C3C40A64E6C51999090B65F67D9240000000000000 PUSH2 0x29D5 DUP13 DUP13 DUP13 DUP13 DUP13 DUP13 PUSH2 0x380E JUMP JUMPDEST PUSH2 0x29DF SWAP2 SWAP1 PUSH2 0x468F JUMP JUMPDEST PUSH2 0x29E9 SWAP2 SWAP1 PUSH2 0x44ED JUMP JUMPDEST PUSH2 0x386A JUMP JUMPDEST SWAP1 POP SWAP9 SWAP8 POP POP POP POP POP POP POP POP JUMP JUMPDEST PUSH1 0x0 PUSH2 0x2A78 PUSH2 0x2A6D PUSH1 0x28 PUSH1 0x0 DUP6 PUSH20 0xFFFFFFFFFFFFFFFFFFFFFFFFFFFFFFFFFFFFFFFF AND PUSH20 0xFFFFFFFFFFFFFFFFFFFFFFFFFFFFFFFFFFFFFFFF AND DUP2 MSTORE PUSH1 0x20 ADD SWAP1 DUP2 MSTORE PUSH1 0x20 ADD PUSH1 0x0 KECCAK256 PUSH1 0x0 DUP1 ISZERO ISZERO ISZERO ISZERO DUP2 MSTORE PUSH1 0x20 ADD SWAP1 DUP2 MSTORE PUSH1 0x20 ADD PUSH1 0x0 KECCAK256 PUSH1 0x1 ADD SLOAD PUSH1 0xE SLOAD PUSH1 0xD SLOAD PUSH1 0x10 SLOAD PUSH1 0x1D SLOAD PUSH2 0x3212 JUMP JUMPDEST PUSH1 0x6 SLOAD PUSH1 0x5 SLOAD PUSH2 0x324C JUMP JUMPDEST PUSH2 0x2ADF PUSH1 0x28 PUSH1 0x0 DUP6 PUSH20 0xFFFFFFFFFFFFFFFFFFFFFFFFFFFFFFFFFFFFFFFF AND PUSH20 0xFFFFFFFFFFFFFFFFFFFFFFFFFFFFFFFFFFFFFFFF AND DUP2 MSTORE PUSH1 0x20 ADD SWAP1 DUP2 MSTORE PUSH1 0x20 ADD PUSH1 0x0 KECCAK256 PUSH1 0x0 PUSH1 0x1 ISZERO ISZERO ISZERO ISZERO DUP2 MSTORE PUSH1 0x20 ADD SWAP1 DUP2 MSTORE PUSH1 0x20 ADD PUSH1 0x0 KECCAK256 PUSH1 0x1 ADD SLOAD PUSH1 0xF SLOAD PUSH1 0x11 SLOAD PUSH2 0x324C JUMP JUMPDEST PUSH2 0x2AE9 SWAP2 SWAP1 PUSH2 0x4497 JUMP JUMPDEST SWAP1 POP SWAP2 SWAP1 POP JUMP JUMPDEST PUSH1 0x0 PUSH2 0x2B5F PUSH1 0x28 PUSH1 0x0 DUP5 PUSH20 0xFFFFFFFFFFFFFFFFFFFFFFFFFFFFFFFFFFFFFFFF AND PUSH20 0xFFFFFFFFFFFFFFFFFFFFFFFFFFFFFFFFFFFFFFFF AND DUP2 MSTORE PUSH1 0x20 ADD SWAP1 DUP2 MSTORE PUSH1 0x20 ADD PUSH1 0x0 KECCAK256 PUSH1 0x0 PUSH1 0x1 ISZERO ISZERO ISZERO ISZERO DUP2 MSTORE PUSH1 0x20 ADD SWAP1 DUP2 MSTORE PUSH1 0x20 ADD PUSH1 0x0 KECCAK256 PUSH1 0x2 ADD SLOAD PUSH1 0xD SLOAD PUSH1 0x6 SLOAD PUSH1 0x5 SLOAD PUSH1 0x1D SLOAD PUSH2 0x3212 JUMP JUMPDEST PUSH1 0x28 PUSH1 0x0 DUP5 PUSH20 0xFFFFFFFFFFFFFFFFFFFFFFFFFFFFFFFFFFFFFFFF AND PUSH20 0xFFFFFFFFFFFFFFFFFFFFFFFFFFFFFFFFFFFFFFFF AND DUP2 MSTORE PUSH1 0x20 ADD SWAP1 DUP2 MSTORE PUSH1 0x20 ADD PUSH1 0x0 KECCAK256 PUSH1 0x0 DUP1 ISZERO ISZERO ISZERO ISZERO DUP2 MSTORE PUSH1 0x20 ADD SWAP1 DUP2 MSTORE PUSH1 0x20 ADD PUSH1 0x0 KECCAK256 PUSH1 0x2 ADD SLOAD PUSH2 0x2BC1 SWAP2 SWAP1 PUSH2 0x4497 JUMP JUMPDEST SWAP1 POP SWAP2 SWAP1 POP JUMP JUMPDEST PUSH1 0x0 PUSH2 0x2C32 PUSH1 0x29 PUSH1 0x0 DUP5 PUSH20 0xFFFFFFFFFFFFFFFFFFFFFFFFFFFFFFFFFFFFFFFF AND PUSH20 0xFFFFFFFFFFFFFFFFFFFFFFFFFFFFFFFFFFFFFFFF AND DUP2 MSTORE PUSH1 0x20 ADD SWAP1 DUP2 MSTORE PUSH1 0x20 ADD PUSH1 0x0 KECCAK256 PUSH1 0x1 PUSH1 0x2 DUP2 LT PUSH2 0x2C1F JUMPI PUSH2 0x2C1E PUSH2 0x4803 JUMP JUMPDEST JUMPDEST ADD SLOAD PUSH1 0xD SLOAD PUSH1 0x6 SLOAD PUSH1 0x5 SLOAD PUSH1 0x1D SLOAD PUSH2 0x3212 JUMP JUMPDEST PUSH1 0x29 PUSH1 0x0 DUP5 PUSH20 0xFFFFFFFFFFFFFFFFFFFFFFFFFFFFFFFFFFFFFFFF AND PUSH20 0xFFFFFFFFFFFFFFFFFFFFFFFFFFFFFFFFFFFFFFFF AND DUP2 MSTORE PUSH1 0x20 ADD SWAP1 DUP2 MSTORE PUSH1 0x20 ADD PUSH1 0x0 KECCAK256 PUSH1 0x0 PUSH1 0x2 DUP2 LT PUSH2 0x2C84 JUMPI PUSH2 0x2C83 PUSH2 0x4803 JUMP JUMPDEST JUMPDEST ADD SLOAD PUSH2 0x2C90 SWAP2 SWAP1 PUSH2 0x4497 JUMP JUMPDEST SWAP1 POP SWAP2 SWAP1 POP JUMP JUMPDEST PUSH1 0x0 DUP1 PUSH2 0x2CC5 PUSH1 0xB SLOAD PUSH1 0xC SLOAD PUSH1 0x5 SLOAD PUSH1 0x6 SLOAD PUSH1 0x3 SLOAD PUSH1 0x4 SLOAD PUSH1 0x0 SLOAD PUSH2 0x2CBD PUSH1 0x0 SLOAD PUSH2 0x38FB JUMP JUMPDEST PUSH1 0x1 SLOAD PUSH2 0x3918 JUMP JUMPDEST SWAP2 POP SWAP2 POP PUSH1 0x0 DUP1 PUSH2 0x2CE8 DUP5 DUP5 PUSH1 0x7 SLOAD PUSH1 0x8 SLOAD PUSH1 0x21 SLOAD PUSH1 0x16 SLOAD PUSH1 0xB SLOAD PUSH1 0xC SLOAD PUSH2 0x39B4 JUMP JUMPDEST SWAP2 POP SWAP2 POP PUSH1 0x0 PUSH1 0x14 SLOAD NUMBER PUSH2 0x2CFC SWAP2 SWAP1 PUSH2 0x46E9 JUMP JUMPDEST SWAP1 POP NUMBER PUSH1 0x14 DUP2 SWAP1 SSTORE POP PUSH1 0x0 ISZERO ISZERO PUSH1 0x15 PUSH1 0x0 SWAP1 SLOAD SWAP1 PUSH2 0x100 EXP SWAP1 DIV PUSH1 0xFF AND ISZERO ISZERO EQ ISZERO PUSH2 0x2D90 JUMPI PUSH2 0x2D35 PUSH1 0xE SLOAD PUSH1 0x13 SLOAD DUP4 PUSH1 0x1D SLOAD PUSH1 0x1 PUSH2 0x3212 JUMP JUMPDEST PUSH1 0xE SLOAD PUSH2 0x2D42 SWAP2 SWAP1 PUSH2 0x4497 JUMP JUMPDEST PUSH1 0xE DUP2 SWAP1 SSTORE POP DUP1 PUSH2 0x2D6E PUSH1 0x13 SLOAD PUSH1 0xE SLOAD PUSH2 0x2D63 PUSH1 0xD SLOAD PUSH1 0x6 SLOAD PUSH1 0x5 SLOAD PUSH2 0x324C JUMP JUMPDEST PUSH1 0x1D SLOAD PUSH1 0x1D SLOAD PUSH2 0x3212 JUMP JUMPDEST PUSH2 0x2D78 SWAP2 SWAP1 PUSH2 0x468F JUMP JUMPDEST PUSH1 0xF SLOAD PUSH2 0x2D85 SWAP2 SWAP1 PUSH2 0x46E9 JUMP JUMPDEST PUSH1 0xF DUP2 SWAP1 SSTORE POP PUSH2 0x2DED JUMP JUMPDEST PUSH2 0x2DA4 PUSH1 0xF SLOAD PUSH1 0x13 SLOAD DUP4 PUSH1 0x1D SLOAD PUSH1 0x1 PUSH2 0x3212 JUMP JUMPDEST PUSH1 0xF SLOAD PUSH2 0x2DB1 SWAP2 SWAP1 PUSH2 0x4497 JUMP JUMPDEST PUSH1 0xF DUP2 SWAP1 SSTORE POP PUSH2 0x2DD9 PUSH1 0x13 SLOAD PUSH1 0xF SLOAD DUP4 PUSH2 0x2DD2 PUSH1 0xD SLOAD PUSH1 0x6 SLOAD PUSH1 0x5 SLOAD PUSH2 0x324C JUMP JUMPDEST PUSH1 0x1 PUSH2 0x3212 JUMP JUMPDEST PUSH1 0xE SLOAD PUSH2 0x2DE6 SWAP2 SWAP1 PUSH2 0x46E9 JUMP JUMPDEST PUSH1 0xE DUP2 SWAP1 SSTORE POP JUMPDEST DUP3 PUSH1 0x13 DUP2 SWAP1 SSTORE POP DUP2 PUSH1 0x15 PUSH1 0x0 PUSH2 0x100 EXP DUP2 SLOAD DUP2 PUSH1 0xFF MUL NOT AND SWAP1 DUP4 ISZERO ISZERO MUL OR SWAP1 SSTORE POP POP POP POP POP POP JUMP JUMPDEST PUSH1 0x0 PUSH1 0x1 PUSH1 0x25 SLOAD EQ PUSH2 0x2E5C JUMPI PUSH1 0x40 MLOAD PUSH32 0x8C379A000000000000000000000000000000000000000000000000000000000 DUP2 MSTORE PUSH1 0x4 ADD PUSH2 0x2E53 SWAP1 PUSH2 0x4435 JUMP JUMPDEST PUSH1 0x40 MLOAD DUP1 SWAP2 SUB SWAP1 REVERT JUMPDEST PUSH1 0x0 PUSH1 0x25 DUP2 SWAP1 SSTORE POP PUSH1 0x0 JUMPDEST PUSH2 0x2E92 PUSH2 0x2E87 PUSH1 0x2 PUSH1 0x1 SLOAD PUSH2 0x2E7C SWAP2 SWAP1 PUSH2 0x44ED JUMP JUMPDEST PUSH1 0x20 SLOAD PUSH1 0x1D SLOAD PUSH2 0x324C JUMP JUMPDEST PUSH1 0x3 SLOAD PUSH1 0x5 SLOAD PUSH2 0x3A5E JUMP JUMPDEST DUP2 DUP7 PUSH2 0x2E9E SWAP2 SWAP1 PUSH2 0x46E9 JUMP JUMPDEST GT ISZERO PUSH2 0x3089 JUMPI PUSH1 0x0 PUSH2 0x2EC3 PUSH1 0x2 PUSH1 0x1 SLOAD PUSH2 0x2EB8 SWAP2 SWAP1 PUSH2 0x44ED JUMP JUMPDEST PUSH1 0x20 SLOAD PUSH1 0x1D SLOAD PUSH2 0x324C JUMP JUMPDEST SWAP1 POP PUSH1 0x0 PUSH2 0x2EE1 PUSH1 0x0 SLOAD PUSH2 0x2ED8 PUSH1 0x0 SLOAD PUSH2 0x38FB JUMP JUMPDEST PUSH1 0x1 SLOAD DUP6 PUSH2 0x3A93 JUMP JUMPDEST SWAP1 POP PUSH1 0x0 DUP6 GT DUP1 ISZERO PUSH2 0x2F0B JUMPI POP DUP5 PUSH2 0x2EFE PUSH1 0x4 SLOAD DUP4 PUSH1 0x6 SLOAD PUSH2 0x3A5E JUMP JUMPDEST DUP6 PUSH2 0x2F09 SWAP2 SWAP1 PUSH2 0x4497 JUMP JUMPDEST GT JUMPDEST ISZERO PUSH2 0x2F17 JUMPI POP POP PUSH2 0x3089 JUMP JUMPDEST PUSH2 0x2F26 PUSH1 0x4 SLOAD DUP3 PUSH1 0x6 SLOAD PUSH2 0x3A5E JUMP JUMPDEST DUP5 PUSH2 0x2F31 SWAP2 SWAP1 PUSH2 0x4497 JUMP JUMPDEST SWAP4 POP PUSH2 0x2F42 DUP3 PUSH1 0x3 SLOAD PUSH1 0x5 SLOAD PUSH2 0x3A5E JUMP JUMPDEST DUP4 PUSH2 0x2F4D SWAP2 SWAP1 PUSH2 0x4497 JUMP JUMPDEST SWAP3 POP PUSH1 0x0 ISZERO ISZERO DUP7 ISZERO ISZERO EQ ISZERO PUSH2 0x2FAB JUMPI PUSH2 0x2F6B DUP3 PUSH1 0x3 SLOAD PUSH1 0x5 SLOAD PUSH2 0x3A5E JUMP JUMPDEST PUSH1 0xB PUSH1 0x0 DUP3 DUP3 SLOAD PUSH2 0x2F7C SWAP2 SWAP1 PUSH2 0x4497 JUMP JUMPDEST SWAP3 POP POP DUP2 SWAP1 SSTORE POP PUSH2 0x2F92 PUSH1 0x4 SLOAD DUP3 PUSH1 0x6 SLOAD PUSH2 0x3A5E JUMP JUMPDEST PUSH1 0xC PUSH1 0x0 DUP3 DUP3 SLOAD PUSH2 0x2FA3 SWAP2 SWAP1 PUSH2 0x46E9 JUMP JUMPDEST SWAP3 POP POP DUP2 SWAP1 SSTORE POP JUMPDEST PUSH2 0x2FC6 PUSH1 0x6 SLOAD PUSH1 0x2 PUSH1 0x1 SLOAD PUSH2 0x2FC0 SWAP2 SWAP1 PUSH2 0x44ED JUMP JUMPDEST DUP4 PUSH2 0x324C JUMP JUMPDEST PUSH1 0x6 DUP2 SWAP1 SSTORE POP PUSH2 0x2FE7 PUSH1 0x5 SLOAD PUSH1 0x2 PUSH1 0x1 SLOAD PUSH2 0x2FE1 SWAP2 SWAP1 PUSH2 0x44ED JUMP JUMPDEST DUP5 PUSH2 0x324C JUMP JUMPDEST PUSH1 0x5 DUP2 SWAP1 SSTORE POP PUSH2 0x3030 PUSH2 0x300B PUSH1 0x0 SLOAD PUSH2 0x3001 PUSH1 0x0 SLOAD PUSH2 0x38FB JUMP JUMPDEST PUSH1 0x1 SLOAD DUP7 DUP7 PUSH2 0x3B93 JUMP JUMPDEST DUP3 PUSH1 0x2 PUSH1 0x1 SLOAD PUSH2 0x301B SWAP2 SWAP1 PUSH2 0x44ED JUMP JUMPDEST DUP6 PUSH1 0x2 PUSH1 0x1 SLOAD PUSH2 0x302B SWAP2 SWAP1 PUSH2 0x44ED JUMP JUMPDEST PUSH2 0x3212 JUMP JUMPDEST PUSH1 0xD DUP2 SWAP1 SSTORE POP PUSH2 0x3044 PUSH1 0x1 SLOAD PUSH1 0xD SLOAD PUSH2 0x3C87 JUMP JUMPDEST PUSH1 0x0 DUP2 SWAP1 SSTORE POP PUSH2 0x3052 PUSH2 0x917 JUMP JUMPDEST PUSH1 0x1 DUP2 SWAP1 SSTORE POP PUSH1 0x2 PUSH1 0x1 SLOAD PUSH2 0x3067 SWAP2 SWAP1 PUSH2 0x44ED JUMP JUMPDEST PUSH1 0x3 DUP2 SWAP1 SSTORE POP PUSH1 0x2 PUSH1 0x1 SLOAD PUSH2 0x307C SWAP2 SWAP1 PUSH2 0x44ED JUMP JUMPDEST PUSH1 0x4 DUP2 SWAP1 SSTORE POP POP POP PUSH2 0x2E67 JUMP JUMPDEST PUSH1 0x0 PUSH1 0x3 SLOAD SWAP1 POP PUSH1 0x0 PUSH1 0x4 SLOAD SWAP1 POP PUSH1 0x0 DUP6 EQ ISZERO PUSH2 0x30F9 JUMPI PUSH2 0x30BA DUP4 DUP9 PUSH2 0x30AF SWAP2 SWAP1 PUSH2 0x46E9 JUMP JUMPDEST PUSH1 0x5 SLOAD PUSH1 0x1D SLOAD PUSH2 0x324C JUMP JUMPDEST PUSH1 0x3 PUSH1 0x0 DUP3 DUP3 SLOAD PUSH2 0x30CB SWAP2 SWAP1 PUSH2 0x4497 JUMP JUMPDEST SWAP3 POP POP DUP2 SWAP1 SSTORE POP PUSH2 0x30EE PUSH1 0x0 SLOAD PUSH2 0x30E3 PUSH1 0x0 SLOAD PUSH2 0x38FB JUMP JUMPDEST PUSH1 0x1 SLOAD PUSH1 0x3 SLOAD PUSH2 0x3A93 JUMP JUMPDEST PUSH1 0x4 DUP2 SWAP1 SSTORE POP PUSH2 0x314E JUMP JUMPDEST PUSH2 0x3113 DUP5 DUP7 PUSH2 0x3108 SWAP2 SWAP1 PUSH2 0x46E9 JUMP JUMPDEST PUSH1 0x6 SLOAD PUSH1 0x1D SLOAD PUSH2 0x324C JUMP JUMPDEST PUSH1 0x4 PUSH1 0x0 DUP3 DUP3 SLOAD PUSH2 0x3124 SWAP2 SWAP1 PUSH2 0x46E9 JUMP JUMPDEST SWAP3 POP POP DUP2 SWAP1 SSTORE POP PUSH2 0x3147 PUSH1 0x0 SLOAD PUSH2 0x313C PUSH1 0x0 SLOAD PUSH2 0x38FB JUMP JUMPDEST PUSH1 0x1 SLOAD PUSH1 0x4 SLOAD PUSH2 0x3DE2 JUMP JUMPDEST PUSH1 0x3 DUP2 SWAP1 SSTORE POP JUMPDEST PUSH2 0x315D DUP2 PUSH1 0x4 SLOAD PUSH1 0x6 SLOAD PUSH2 0x3A5E JUMP JUMPDEST DUP5 PUSH2 0x3168 SWAP2 SWAP1 PUSH2 0x4497 JUMP JUMPDEST SWAP4 POP PUSH2 0x3179 PUSH1 0x3 SLOAD DUP4 PUSH1 0x5 SLOAD PUSH2 0x3A5E JUMP JUMPDEST DUP4 PUSH2 0x3184 SWAP2 SWAP1 PUSH2 0x4497 JUMP JUMPDEST SWAP3 POP PUSH1 0x1 ISZERO ISZERO DUP7 ISZERO ISZERO EQ ISZERO PUSH2 0x31B1 JUMPI DUP4 PUSH1 0x8 PUSH1 0x0 DUP3 DUP3 SLOAD PUSH2 0x31A5 SWAP2 SWAP1 PUSH2 0x4497 JUMP JUMPDEST SWAP3 POP POP DUP2 SWAP1 SSTORE POP PUSH2 0x3200 JUMP JUMPDEST PUSH2 0x31C0 PUSH1 0x3 SLOAD DUP4 PUSH1 0x5 SLOAD PUSH2 0x3A5E JUMP JUMPDEST PUSH1 0xB PUSH1 0x0 DUP3 DUP3 SLOAD PUSH2 0x31D1 SWAP2 SWAP1 PUSH2 0x4497 JUMP JUMPDEST SWAP3 POP POP DUP2 SWAP1 SSTORE POP PUSH2 0x31E7 DUP2 PUSH1 0x4 SLOAD PUSH1 0x6 SLOAD PUSH2 0x3A5E JUMP JUMPDEST PUSH1 0xC PUSH1 0x0 DUP3 DUP3 SLOAD PUSH2 0x31F8 SWAP2 SWAP1 PUSH2 0x46E9 JUMP JUMPDEST SWAP3 POP POP DUP2 SWAP1 SSTORE POP JUMPDEST POP POP POP PUSH1 0x1 PUSH1 0x25 DUP2 SWAP1 SSTORE POP SWAP4 SWAP3 POP POP POP JUMP JUMPDEST PUSH1 0x0 DUP2 DUP4 DUP6 DUP8 DUP10 PUSH2 0x3223 SWAP2 SWAP1 PUSH2 0x468F JUMP JUMPDEST PUSH2 0x322D SWAP2 SWAP1 PUSH2 0x468F JUMP JUMPDEST PUSH2 0x3237 SWAP2 SWAP1 PUSH2 0x44ED JUMP JUMPDEST PUSH2 0x3241 SWAP2 SWAP1 PUSH2 0x44ED JUMP JUMPDEST SWAP1 POP SWAP6 SWAP5 POP POP POP POP POP JUMP JUMPDEST PUSH1 0x0 DUP2 DUP4 DUP6 PUSH2 0x325B SWAP2 SWAP1 PUSH2 0x468F JUMP JUMPDEST PUSH2 0x3265 SWAP2 SWAP1 PUSH2 0x44ED JUMP JUMPDEST SWAP1 POP SWAP4 SWAP3 POP POP POP JUMP JUMPDEST PUSH1 0x0 PUSH1 0x1 PUSH1 0x25 SLOAD EQ PUSH2 0x32B5 JUMPI PUSH1 0x40 MLOAD PUSH32 0x8C379A000000000000000000000000000000000000000000000000000000000 DUP2 MSTORE PUSH1 0x4 ADD PUSH2 0x32AC SWAP1 PUSH2 0x4435 JUMP JUMPDEST PUSH1 0x40 MLOAD DUP1 SWAP2 SUB SWAP1 REVERT JUMPDEST PUSH1 0x0 PUSH1 0x25 DUP2 SWAP1 SSTORE POP PUSH1 0x0 JUMPDEST PUSH2 0x32EB PUSH2 0x32E0 PUSH1 0x2 PUSH1 0x1 SLOAD PUSH2 0x32D5 SWAP2 SWAP1 PUSH2 0x44ED JUMP JUMPDEST PUSH1 0x20 SLOAD PUSH1 0x1D SLOAD PUSH2 0x324C JUMP JUMPDEST PUSH1 0x4 SLOAD PUSH1 0x6 SLOAD PUSH2 0x3A5E JUMP JUMPDEST DUP2 DUP7 PUSH2 0x32F7 SWAP2 SWAP1 PUSH2 0x46E9 JUMP JUMPDEST GT ISZERO PUSH2 0x34E2 JUMPI PUSH1 0x0 PUSH2 0x331C PUSH1 0x2 PUSH1 0x1 SLOAD PUSH2 0x3311 SWAP2 SWAP1 PUSH2 0x44ED JUMP JUMPDEST PUSH1 0x20 SLOAD PUSH1 0x1D SLOAD PUSH2 0x324C JUMP JUMPDEST SWAP1 POP PUSH1 0x0 PUSH2 0x333A PUSH1 0x0 SLOAD PUSH2 0x3331 PUSH1 0x0 SLOAD PUSH2 0x38FB JUMP JUMPDEST PUSH1 0x1 SLOAD DUP6 PUSH2 0x3DE2 JUMP JUMPDEST SWAP1 POP PUSH1 0x0 DUP6 GT DUP1 ISZERO PUSH2 0x3364 JUMPI POP DUP5 PUSH2 0x3357 PUSH1 0x3 SLOAD DUP4 PUSH1 0x5 SLOAD PUSH2 0x3A5E JUMP JUMPDEST DUP6 PUSH2 0x3362 SWAP2 SWAP1 PUSH2 0x4497 JUMP JUMPDEST GT JUMPDEST ISZERO PUSH2 0x3370 JUMPI POP POP PUSH2 0x34E2 JUMP JUMPDEST PUSH2 0x337F PUSH1 0x3 SLOAD DUP3 PUSH1 0x5 SLOAD PUSH2 0x3A5E JUMP JUMPDEST DUP5 PUSH2 0x338A SWAP2 SWAP1 PUSH2 0x4497 JUMP JUMPDEST SWAP4 POP PUSH2 0x339B DUP3 PUSH1 0x4 SLOAD PUSH1 0x6 SLOAD PUSH2 0x3A5E JUMP JUMPDEST DUP4 PUSH2 0x33A6 SWAP2 SWAP1 PUSH2 0x4497 JUMP JUMPDEST SWAP3 POP PUSH1 0x0 ISZERO ISZERO DUP7 ISZERO ISZERO EQ ISZERO PUSH2 0x3404 JUMPI PUSH2 0x33C4 PUSH1 0x3 SLOAD DUP3 PUSH1 0x5 SLOAD PUSH2 0x3A5E JUMP JUMPDEST PUSH1 0xB PUSH1 0x0 DUP3 DUP3 SLOAD PUSH2 0x33D5 SWAP2 SWAP1 PUSH2 0x46E9 JUMP JUMPDEST SWAP3 POP POP DUP2 SWAP1 SSTORE POP PUSH2 0x33EB DUP3 PUSH1 0x4 SLOAD PUSH1 0x6 SLOAD PUSH2 0x3A5E JUMP JUMPDEST PUSH1 0xC PUSH1 0x0 DUP3 DUP3 SLOAD PUSH2 0x33FC SWAP2 SWAP1 PUSH2 0x4497 JUMP JUMPDEST SWAP3 POP POP DUP2 SWAP1 SSTORE POP JUMPDEST PUSH2 0x341F PUSH1 0x6 SLOAD PUSH1 0x2 PUSH1 0x1 SLOAD PUSH2 0x3419 SWAP2 SWAP1 PUSH2 0x44ED JUMP JUMPDEST DUP5 PUSH2 0x324C JUMP JUMPDEST PUSH1 0x6 DUP2 SWAP1 SSTORE POP PUSH2 0x3440 PUSH1 0x5 SLOAD PUSH1 0x2 PUSH1 0x1 SLOAD PUSH2 0x343A SWAP2 SWAP1 PUSH2 0x44ED JUMP JUMPDEST DUP4 PUSH2 0x324C JUMP JUMPDEST PUSH1 0x5 DUP2 SWAP1 SSTORE POP PUSH2 0x3489 PUSH2 0x3464 PUSH1 0x0 SLOAD PUSH2 0x345A PUSH1 0x0 SLOAD PUSH2 0x38FB JUMP JUMPDEST PUSH1 0x1 SLOAD DUP6 DUP8 PUSH2 0x3B93 JUMP JUMPDEST DUP4 PUSH1 0x2 PUSH1 0x1 SLOAD PUSH2 0x3474 SWAP2 SWAP1 PUSH2 0x44ED JUMP JUMPDEST DUP5 PUSH1 0x2 PUSH1 0x1 SLOAD PUSH2 0x3484 SWAP2 SWAP1 PUSH2 0x44ED JUMP JUMPDEST PUSH2 0x3212 JUMP JUMPDEST PUSH1 0xD DUP2 SWAP1 SSTORE POP PUSH2 0x349D PUSH1 0x1 SLOAD PUSH1 0xD SLOAD PUSH2 0x3C87 JUMP JUMPDEST PUSH1 0x0 DUP2 SWAP1 SSTORE POP PUSH2 0x34AB PUSH2 0x917 JUMP JUMPDEST PUSH1 0x1 DUP2 SWAP1 SSTORE POP PUSH1 0x2 PUSH1 0x1 SLOAD PUSH2 0x34C0 SWAP2 SWAP1 PUSH2 0x44ED JUMP JUMPDEST PUSH1 0x3 DUP2 SWAP1 SSTORE POP PUSH1 0x2 PUSH1 0x1 SLOAD PUSH2 0x34D5 SWAP2 SWAP1 PUSH2 0x44ED JUMP JUMPDEST PUSH1 0x4 DUP2 SWAP1 SSTORE POP POP POP PUSH2 0x32C0 JUMP JUMPDEST PUSH1 0x0 PUSH1 0x3 SLOAD SWAP1 POP PUSH1 0x0 PUSH1 0x4 SLOAD SWAP1 POP PUSH1 0x0 DUP6 EQ ISZERO PUSH2 0x3552 JUMPI PUSH2 0x3513 DUP4 DUP9 PUSH2 0x3508 SWAP2 SWAP1 PUSH2 0x46E9 JUMP JUMPDEST PUSH1 0x6 SLOAD PUSH1 0x1D SLOAD PUSH2 0x324C JUMP JUMPDEST PUSH1 0x4 PUSH1 0x0 DUP3 DUP3 SLOAD PUSH2 0x3524 SWAP2 SWAP1 PUSH2 0x4497 JUMP JUMPDEST SWAP3 POP POP DUP2 SWAP1 SSTORE POP PUSH2 0x3547 PUSH1 0x0 SLOAD PUSH2 0x353C PUSH1 0x0 SLOAD PUSH2 0x38FB JUMP JUMPDEST PUSH1 0x1 SLOAD PUSH1 0x4 SLOAD PUSH2 0x3DE2 JUMP JUMPDEST PUSH1 0x3 DUP2 SWAP1 SSTORE POP PUSH2 0x35A7 JUMP JUMPDEST PUSH2 0x356C DUP5 DUP7 PUSH2 0x3561 SWAP2 SWAP1 PUSH2 0x46E9 JUMP JUMPDEST PUSH1 0x5 SLOAD PUSH1 0x1D SLOAD PUSH2 0x324C JUMP JUMPDEST PUSH1 0x3 PUSH1 0x0 DUP3 DUP3 SLOAD PUSH2 0x357D SWAP2 SWAP1 PUSH2 0x46E9 JUMP JUMPDEST SWAP3 POP POP DUP2 SWAP1 SSTORE POP PUSH2 0x35A0 PUSH1 0x0 SLOAD PUSH2 0x3595 PUSH1 0x0 SLOAD PUSH2 0x38FB JUMP JUMPDEST PUSH1 0x1 SLOAD PUSH1 0x3 SLOAD PUSH2 0x3A93 JUMP JUMPDEST PUSH1 0x4 DUP2 SWAP1 SSTORE POP JUMPDEST PUSH2 0x35B6 DUP3 PUSH1 0x3 SLOAD PUSH1 0x5 SLOAD PUSH2 0x3A5E JUMP JUMPDEST DUP5 PUSH2 0x35C1 SWAP2 SWAP1 PUSH2 0x4497 JUMP JUMPDEST SWAP4 POP PUSH2 0x35D2 PUSH1 0x4 SLOAD DUP3 PUSH1 0x6 SLOAD PUSH2 0x3A5E JUMP JUMPDEST DUP4 PUSH2 0x35DD SWAP2 SWAP1 PUSH2 0x4497 JUMP JUMPDEST SWAP3 POP PUSH1 0x1 ISZERO ISZERO DUP7 ISZERO ISZERO EQ ISZERO PUSH2 0x360A JUMPI DUP4 PUSH1 0x7 PUSH1 0x0 DUP3 DUP3 SLOAD PUSH2 0x35FE SWAP2 SWAP1 PUSH2 0x4497 JUMP JUMPDEST SWAP3 POP POP DUP2 SWAP1 SSTORE POP PUSH2 0x3659 JUMP JUMPDEST PUSH2 0x3619 PUSH1 0x4 SLOAD DUP3 PUSH1 0x6 SLOAD PUSH2 0x3A5E JUMP JUMPDEST PUSH1 0xC PUSH1 0x0 DUP3 DUP3 SLOAD PUSH2 0x362A SWAP2 SWAP1 PUSH2 0x4497 JUMP JUMPDEST SWAP3 POP POP DUP2 SWAP1 SSTORE POP PUSH2 0x3640 DUP3 PUSH1 0x3 SLOAD PUSH1 0x5 SLOAD PUSH2 0x3A5E JUMP JUMPDEST PUSH1 0xB PUSH1 0x0 DUP3 DUP3 SLOAD PUSH2 0x3651 SWAP2 SWAP1 PUSH2 0x46E9 JUMP JUMPDEST SWAP3 POP POP DUP2 SWAP1 SSTORE POP JUMPDEST POP POP POP PUSH1 0x1 PUSH1 0x25 DUP2 SWAP1 SSTORE POP SWAP4 SWAP3 POP POP POP JUMP JUMPDEST PUSH1 0x0 DUP2 DUP4 GT PUSH2 0x367A JUMPI DUP2 PUSH2 0x367C JUMP JUMPDEST DUP3 JUMPDEST SWAP1 POP SWAP3 SWAP2 POP POP JUMP JUMPDEST PUSH1 0x0 DUP1 DUP5 PUSH20 0xFFFFFFFFFFFFFFFFFFFFFFFFFFFFFFFFFFFFFFFF AND PUSH1 0x40 MLOAD DUP1 PUSH1 0x40 ADD PUSH1 0x40 MSTORE DUP1 PUSH1 0x19 DUP2 MSTORE PUSH1 0x20 ADD PUSH32 0x7472616E7366657228616464726573732C75696E743235362900000000000000 DUP2 MSTORE POP DUP1 MLOAD SWAP1 PUSH1 0x20 ADD KECCAK256 DUP6 DUP6 PUSH1 0x40 MLOAD PUSH1 0x24 ADD PUSH2 0x36EE SWAP3 SWAP2 SWAP1 PUSH2 0x43D1 JUMP JUMPDEST PUSH1 0x40 MLOAD PUSH1 0x20 DUP2 DUP4 SUB SUB DUP2 MSTORE SWAP1 PUSH1 0x40 MSTORE SWAP1 PUSH28 0xFFFFFFFFFFFFFFFFFFFFFFFFFFFFFFFFFFFFFFFFFFFFFFFFFFFFFFFF NOT AND PUSH1 0x20 DUP3 ADD DUP1 MLOAD PUSH28 0xFFFFFFFFFFFFFFFFFFFFFFFFFFFFFFFFFFFFFFFFFFFFFFFFFFFFFFFF DUP4 DUP2 DUP4 AND OR DUP4 MSTORE POP POP POP POP PUSH1 0x40 MLOAD PUSH2 0x3758 SWAP2 SWAP1 PUSH2 0x435A JUMP JUMPDEST PUSH1 0x0 PUSH1 0x40 MLOAD DUP1 DUP4 SUB DUP2 PUSH1 0x0 DUP7 GAS CALL SWAP2 POP POP RETURNDATASIZE DUP1 PUSH1 0x0 DUP2 EQ PUSH2 0x3795 JUMPI PUSH1 0x40 MLOAD SWAP2 POP PUSH1 0x1F NOT PUSH1 0x3F RETURNDATASIZE ADD AND DUP3 ADD PUSH1 0x40 MSTORE RETURNDATASIZE DUP3 MSTORE RETURNDATASIZE PUSH1 0x0 PUSH1 0x20 DUP5 ADD RETURNDATACOPY PUSH2 0x379A JUMP JUMPDEST PUSH1 0x60 SWAP2 POP JUMPDEST POP SWAP2 POP SWAP2 POP DUP2 DUP1 ISZERO PUSH2 0x37C8 JUMPI POP PUSH1 0x0 DUP2 MLOAD EQ DUP1 PUSH2 0x37C7 JUMPI POP DUP1 DUP1 PUSH1 0x20 ADD SWAP1 MLOAD DUP2 ADD SWAP1 PUSH2 0x37C6 SWAP2 SWAP1 PUSH2 0x414F JUMP JUMPDEST JUMPDEST JUMPDEST PUSH2 0x3807 JUMPI PUSH1 0x40 MLOAD PUSH32 0x8C379A000000000000000000000000000000000000000000000000000000000 DUP2 MSTORE PUSH1 0x4 ADD PUSH2 0x37FE SWAP1 PUSH2 0x4415 JUMP JUMPDEST PUSH1 0x40 MLOAD DUP1 SWAP2 SUB SWAP1 REVERT JUMPDEST POP POP POP POP POP JUMP JUMPDEST PUSH1 0x0 DUP4 DUP8 DUP4 DUP6 DUP8 PUSH2 0x381F SWAP2 SWAP1 PUSH2 0x468F JUMP JUMPDEST PUSH2 0x3829 SWAP2 SWAP1 PUSH2 0x468F JUMP JUMPDEST DUP8 DUP10 DUP12 PUSH2 0x3836 SWAP2 SWAP1 PUSH2 0x468F JUMP JUMPDEST PUSH2 0x3840 SWAP2 SWAP1 PUSH2 0x468F JUMP JUMPDEST PUSH2 0x384A SWAP2 SWAP1 PUSH2 0x4497 JUMP JUMPDEST PUSH2 0x3854 SWAP2 SWAP1 PUSH2 0x468F JUMP JUMPDEST PUSH2 0x385E SWAP2 SWAP1 PUSH2 0x468F JUMP JUMPDEST SWAP1 POP SWAP7 SWAP6 POP POP POP POP POP POP JUMP JUMPDEST PUSH1 0x0 PUSH1 0x8 DUP3 GT ISZERO PUSH2 0x38E8 JUMPI DUP2 SWAP1 POP PUSH1 0x0 PUSH1 0x1 PUSH1 0x3 DUP5 PUSH2 0x3889 SWAP2 SWAP1 PUSH2 0x44ED JUMP JUMPDEST PUSH2 0x3893 SWAP2 SWAP1 PUSH2 0x4497 JUMP JUMPDEST SWAP1 POP JUMPDEST DUP2 DUP2 LT ISZERO PUSH2 0x38E2 JUMPI DUP1 SWAP2 POP PUSH1 0x3 DUP2 PUSH1 0x2 PUSH2 0x38B0 SWAP2 SWAP1 PUSH2 0x468F JUMP JUMPDEST DUP3 DUP4 PUSH2 0x38BC SWAP2 SWAP1 PUSH2 0x468F JUMP JUMPDEST DUP6 PUSH2 0x38C7 SWAP2 SWAP1 PUSH2 0x44ED JUMP JUMPDEST PUSH2 0x38D1 SWAP2 SWAP1 PUSH2 0x4497 JUMP JUMPDEST PUSH2 0x38DB SWAP2 SWAP1 PUSH2 0x44ED JUMP JUMPDEST SWAP1 POP PUSH2 0x3896 JUMP JUMPDEST POP PUSH2 0x38F6 JUMP JUMPDEST PUSH1 0x0 DUP3 EQ PUSH2 0x38F5 JUMPI PUSH1 0x1 SWAP1 POP JUMPDEST JUMPDEST SWAP2 SWAP1 POP JUMP JUMPDEST PUSH1 0x0 DUP2 PUSH8 0x1BC16D674EC80000 PUSH2 0x3911 SWAP2 SWAP1 PUSH2 0x46E9 JUMP JUMPDEST SWAP1 POP SWAP2 SWAP1 POP JUMP JUMPDEST PUSH1 0x0 DUP1 PUSH1 0x0 PUSH2 0x3930 DUP13 DUP12 PUSH8 0xDE0B6B3A7640000 PUSH2 0x324C JUMP JUMPDEST SWAP1 POP PUSH1 0x0 PUSH2 0x3947 DUP13 DUP12 PUSH8 0xDE0B6B3A7640000 PUSH2 0x324C JUMP JUMPDEST SWAP1 POP PUSH1 0x0 PUSH2 0x3956 DUP4 DUP4 DUP9 PUSH2 0x3EE2 JUMP JUMPDEST SWAP1 POP PUSH1 0x0 DUP2 PUSH8 0x1BC16D674EC80000 PUSH2 0x396E SWAP2 SWAP1 PUSH2 0x46E9 JUMP JUMPDEST SWAP1 POP PUSH2 0x3987 PUSH2 0x3980 DUP4 DUP4 DUP11 DUP9 DUP9 PUSH2 0x3B93 JUMP JUMPDEST DUP14 DUP16 PUSH2 0x324C JUMP JUMPDEST SWAP6 POP PUSH2 0x39A0 PUSH2 0x3999 DUP11 DUP11 DUP11 DUP16 DUP16 PUSH2 0x3B93 JUMP JUMPDEST DUP14 DUP16 PUSH2 0x324C JUMP JUMPDEST SWAP5 POP POP POP POP POP SWAP10 POP SWAP10 SWAP8 POP POP POP POP POP POP POP POP JUMP JUMPDEST PUSH1 0x0 DUP1 DUP10 DUP10 GT ISZERO PUSH2 0x39F7 JUMPI PUSH2 0x39CA DUP8 DUP5 DUP9 PUSH2 0x3F66 JUMP JUMPDEST PUSH2 0x1680 PUSH2 0x39D8 DUP12 DUP14 DUP15 PUSH2 0x3A5E JUMP JUMPDEST PUSH2 0x39E2 SWAP2 SWAP1 PUSH2 0x44ED JUMP JUMPDEST PUSH2 0x39EC SWAP2 SWAP1 PUSH2 0x4497 JUMP JUMPDEST SWAP2 POP PUSH1 0x0 SWAP1 POP PUSH2 0x3A2B JUMP JUMPDEST PUSH2 0x3A02 DUP9 DUP6 DUP9 PUSH2 0x3F66 JUMP JUMPDEST PUSH2 0x1680 PUSH2 0x3A10 DUP13 DUP13 DUP15 PUSH2 0x3A5E JUMP JUMPDEST PUSH2 0x3A1A SWAP2 SWAP1 PUSH2 0x44ED JUMP JUMPDEST PUSH2 0x3A24 SWAP2 SWAP1 PUSH2 0x4497 JUMP JUMPDEST SWAP2 POP PUSH1 0x1 SWAP1 POP JUMPDEST DUP5 PUSH2 0x780 DUP4 PUSH2 0x3A3A SWAP2 SWAP1 PUSH2 0x468F JUMP JUMPDEST GT ISZERO PUSH2 0x3A51 JUMPI PUSH2 0x780 DUP6 PUSH2 0x3A4E SWAP2 SWAP1 PUSH2 0x44ED JUMP JUMPDEST SWAP2 POP JUMPDEST SWAP9 POP SWAP9 SWAP7 POP POP POP POP POP POP POP JUMP JUMPDEST PUSH1 0x0 DUP2 PUSH8 0xDE0B6B3A7640000 DUP5 DUP7 PUSH2 0x3A76 SWAP2 SWAP1 PUSH2 0x46E9 JUMP JUMPDEST PUSH2 0x3A80 SWAP2 SWAP1 PUSH2 0x468F JUMP JUMPDEST PUSH2 0x3A8A SWAP2 SWAP1 PUSH2 0x44ED JUMP JUMPDEST SWAP1 POP SWAP4 SWAP3 POP POP POP JUMP JUMPDEST PUSH1 0x0 DUP2 DUP5 PUSH1 0x8 PUSH2 0x3AA3 SWAP2 SWAP1 PUSH2 0x468F JUMP JUMPDEST PUSH2 0x3AAD SWAP2 SWAP1 PUSH2 0x468F JUMP JUMPDEST PUSH2 0x3B46 PUSH8 0xDE0B6B3A7640000 DUP6 DUP7 DUP8 PUSH2 0x3AC6 SWAP2 SWAP1 PUSH2 0x468F JUMP JUMPDEST PUSH2 0x3AD0 SWAP2 SWAP1 PUSH2 0x468F JUMP JUMPDEST PUSH1 0x0 PUSH2 0x3ADC SWAP2 SWAP1 PUSH2 0x46E9 JUMP JUMPDEST DUP6 DUP9 PUSH1 0x10 PUSH2 0x3AEA SWAP2 SWAP1 PUSH2 0x468F JUMP JUMPDEST PUSH2 0x3AF4 SWAP2 SWAP1 PUSH2 0x468F JUMP JUMPDEST PUSH2 0x3AFE SWAP2 SWAP1 PUSH2 0x468F JUMP JUMPDEST PUSH2 0x3B08 SWAP2 SWAP1 PUSH2 0x468F JUMP JUMPDEST PUSH1 0x2 DUP6 DUP7 DUP11 PUSH1 0x4 PUSH2 0x3B19 SWAP2 SWAP1 PUSH2 0x468F JUMP JUMPDEST PUSH2 0x3B23 SWAP2 SWAP1 PUSH2 0x468F JUMP JUMPDEST PUSH2 0x3B2D SWAP2 SWAP1 PUSH2 0x468F JUMP JUMPDEST PUSH2 0x3B37 SWAP2 SWAP1 PUSH2 0x4571 JUMP JUMPDEST PUSH2 0x3B41 SWAP2 SWAP1 PUSH2 0x46E9 JUMP JUMPDEST PUSH2 0x3FB3 JUMP JUMPDEST DUP4 DUP5 DUP9 PUSH1 0x4 PUSH2 0x3B55 SWAP2 SWAP1 PUSH2 0x468F JUMP JUMPDEST PUSH2 0x3B5F SWAP2 SWAP1 PUSH2 0x468F JUMP JUMPDEST PUSH2 0x3B69 SWAP2 SWAP1 PUSH2 0x468F JUMP JUMPDEST PUSH1 0x0 PUSH2 0x3B75 SWAP2 SWAP1 PUSH2 0x46E9 JUMP JUMPDEST PUSH2 0x3B7F SWAP2 SWAP1 PUSH2 0x4497 JUMP JUMPDEST PUSH2 0x3B89 SWAP2 SWAP1 PUSH2 0x44ED JUMP JUMPDEST SWAP1 POP SWAP5 SWAP4 POP POP POP POP JUMP JUMPDEST PUSH1 0x0 DUP2 DUP5 DUP6 DUP7 PUSH2 0x3BA3 SWAP2 SWAP1 PUSH2 0x468F JUMP JUMPDEST PUSH2 0x3BAD SWAP2 SWAP1 PUSH2 0x468F JUMP JUMPDEST PUSH2 0x3BB7 SWAP2 SWAP1 PUSH2 0x468F JUMP JUMPDEST DUP3 DUP4 DUP6 DUP7 DUP11 PUSH1 0x4 PUSH2 0x3BC8 SWAP2 SWAP1 PUSH2 0x468F JUMP JUMPDEST PUSH2 0x3BD2 SWAP2 SWAP1 PUSH2 0x468F JUMP JUMPDEST PUSH2 0x3BDC SWAP2 SWAP1 PUSH2 0x468F JUMP JUMPDEST PUSH2 0x3BE6 SWAP2 SWAP1 PUSH2 0x468F JUMP JUMPDEST PUSH2 0x3BF0 SWAP2 SWAP1 PUSH2 0x468F JUMP JUMPDEST PUSH2 0x3BFA SWAP2 SWAP1 PUSH2 0x4497 JUMP JUMPDEST PUSH8 0xDE0B6B3A7640000 DUP5 DUP7 DUP8 DUP9 PUSH2 0x3C11 SWAP2 SWAP1 PUSH2 0x468F JUMP JUMPDEST PUSH2 0x3C1B SWAP2 SWAP1 PUSH2 0x468F JUMP JUMPDEST PUSH2 0x3C25 SWAP2 SWAP1 PUSH2 0x468F JUMP JUMPDEST DUP5 DUP6 DUP8 DUP9 DUP12 PUSH1 0x4 PUSH2 0x3C36 SWAP2 SWAP1 PUSH2 0x468F JUMP JUMPDEST PUSH2 0x3C40 SWAP2 SWAP1 PUSH2 0x468F JUMP JUMPDEST PUSH2 0x3C4A SWAP2 SWAP1 PUSH2 0x468F JUMP JUMPDEST PUSH2 0x3C54 SWAP2 SWAP1 PUSH2 0x468F JUMP JUMPDEST PUSH2 0x3C5E SWAP2 SWAP1 PUSH2 0x468F JUMP JUMPDEST PUSH2 0x3C68 SWAP2 SWAP1 PUSH2 0x4497 JUMP JUMPDEST PUSH2 0x3C72 SWAP2 SWAP1 PUSH2 0x468F JUMP JUMPDEST PUSH2 0x3C7C SWAP2 SWAP1 PUSH2 0x44ED JUMP JUMPDEST SWAP1 POP SWAP6 SWAP5 POP POP POP POP POP JUMP JUMPDEST PUSH1 0x0 DUP1 PUSH1 0x2 DUP5 PUSH2 0x3C97 SWAP2 SWAP1 PUSH2 0x44ED JUMP JUMPDEST SWAP1 POP PUSH1 0x0 PUSH1 0x2 DUP6 PUSH2 0x3CA8 SWAP2 SWAP1 PUSH2 0x44ED JUMP JUMPDEST SWAP1 POP DUP4 PUSH8 0xDE0B6B3A7640000 PUSH2 0x3CBE SWAP2 SWAP1 PUSH2 0x4497 JUMP JUMPDEST DUP2 DUP3 DUP5 DUP6 PUSH1 0x4 PUSH2 0x3CCE SWAP2 SWAP1 PUSH2 0x468F JUMP JUMPDEST PUSH2 0x3CD8 SWAP2 SWAP1 PUSH2 0x468F JUMP JUMPDEST PUSH2 0x3CE2 SWAP2 SWAP1 PUSH2 0x468F JUMP JUMPDEST PUSH2 0x3CEC SWAP2 SWAP1 PUSH2 0x468F JUMP JUMPDEST PUSH2 0x3CF6 SWAP2 SWAP1 PUSH2 0x468F JUMP JUMPDEST PUSH8 0xDE0B6B3A7640000 DUP6 DUP4 DUP9 DUP10 DUP11 PUSH2 0x3D0E SWAP2 SWAP1 PUSH2 0x468F JUMP JUMPDEST PUSH2 0x3D18 SWAP2 SWAP1 PUSH2 0x468F JUMP JUMPDEST PUSH2 0x3D22 SWAP2 SWAP1 PUSH2 0x468F JUMP JUMPDEST PUSH2 0x3D2C SWAP2 SWAP1 PUSH2 0x468F JUMP JUMPDEST PUSH2 0x3D36 SWAP2 SWAP1 PUSH2 0x468F JUMP JUMPDEST PUSH15 0xC097CE7BC90715B34B9F1000000000 DUP5 DUP9 DUP10 DUP11 PUSH2 0x3D54 SWAP2 SWAP1 PUSH2 0x468F JUMP JUMPDEST PUSH2 0x3D5E SWAP2 SWAP1 PUSH2 0x468F JUMP JUMPDEST PUSH2 0x3D68 SWAP2 SWAP1 PUSH2 0x468F JUMP JUMPDEST PUSH2 0x3D72 SWAP2 SWAP1 PUSH2 0x468F JUMP JUMPDEST PUSH15 0xC097CE7BC90715B34B9F1000000000 DUP5 DUP6 DUP8 DUP9 PUSH1 0x8 PUSH2 0x3D92 SWAP2 SWAP1 PUSH2 0x468F JUMP JUMPDEST PUSH2 0x3D9C SWAP2 SWAP1 PUSH2 0x468F JUMP JUMPDEST PUSH2 0x3DA6 SWAP2 SWAP1 PUSH2 0x468F JUMP JUMPDEST PUSH2 0x3DB0 SWAP2 SWAP1 PUSH2 0x468F JUMP JUMPDEST PUSH2 0x3DBA SWAP2 SWAP1 PUSH2 0x468F JUMP JUMPDEST PUSH2 0x3DC4 SWAP2 SWAP1 PUSH2 0x4497 JUMP JUMPDEST PUSH2 0x3DCE SWAP2 SWAP1 PUSH2 0x46E9 JUMP JUMPDEST PUSH2 0x3DD8 SWAP2 SWAP1 PUSH2 0x44ED JUMP JUMPDEST SWAP3 POP POP POP SWAP3 SWAP2 POP POP JUMP JUMPDEST PUSH1 0x0 DUP2 DUP6 PUSH1 0x8 PUSH2 0x3DF2 SWAP2 SWAP1 PUSH2 0x468F JUMP JUMPDEST PUSH2 0x3DFC SWAP2 SWAP1 PUSH2 0x468F JUMP JUMPDEST PUSH2 0x3E95 PUSH8 0xDE0B6B3A7640000 DUP6 DUP7 DUP8 PUSH2 0x3E15 SWAP2 SWAP1 PUSH2 0x468F JUMP JUMPDEST PUSH2 0x3E1F SWAP2 SWAP1 PUSH2 0x468F JUMP JUMPDEST PUSH1 0x0 PUSH2 0x3E2B SWAP2 SWAP1 PUSH2 0x46E9 JUMP JUMPDEST DUP6 DUP10 PUSH1 0x10 PUSH2 0x3E39 SWAP2 SWAP1 PUSH2 0x468F JUMP JUMPDEST PUSH2 0x3E43 SWAP2 SWAP1 PUSH2 0x468F JUMP JUMPDEST PUSH2 0x3E4D SWAP2 SWAP1 PUSH2 0x468F JUMP JUMPDEST PUSH2 0x3E57 SWAP2 SWAP1 PUSH2 0x468F JUMP JUMPDEST PUSH1 0x2 DUP6 DUP7 DUP10 PUSH1 0x4 PUSH2 0x3E68 SWAP2 SWAP1 PUSH2 0x468F JUMP JUMPDEST PUSH2 0x3E72 SWAP2 SWAP1 PUSH2 0x468F JUMP JUMPDEST PUSH2 0x3E7C SWAP2 SWAP1 PUSH2 0x468F JUMP JUMPDEST PUSH2 0x3E86 SWAP2 SWAP1 PUSH2 0x4571 JUMP JUMPDEST PUSH2 0x3E90 SWAP2 SWAP1 PUSH2 0x46E9 JUMP JUMPDEST PUSH2 0x3FB3 JUMP JUMPDEST DUP4 DUP5 DUP8 PUSH1 0x4 PUSH2 0x3EA4 SWAP2 SWAP1 PUSH2 0x468F JUMP JUMPDEST PUSH2 0x3EAE SWAP2 SWAP1 PUSH2 0x468F JUMP JUMPDEST PUSH2 0x3EB8 SWAP2 SWAP1 PUSH2 0x468F JUMP JUMPDEST PUSH1 0x0 PUSH2 0x3EC4 SWAP2 SWAP1 PUSH2 0x46E9 JUMP JUMPDEST PUSH2 0x3ECE SWAP2 SWAP1 PUSH2 0x4497 JUMP JUMPDEST PUSH2 0x3ED8 SWAP2 SWAP1 PUSH2 0x44ED JUMP JUMPDEST SWAP1 POP SWAP5 SWAP4 POP POP POP POP JUMP JUMPDEST PUSH1 0x0 DUP3 DUP5 PUSH2 0x3EF0 SWAP2 SWAP1 PUSH2 0x46E9 JUMP JUMPDEST PUSH8 0xDE0B6B3A7640000 DUP5 PUSH1 0x2 PUSH2 0x3F06 SWAP2 SWAP1 PUSH2 0x468F JUMP JUMPDEST DUP6 DUP8 PUSH1 0x4 DUP8 DUP9 DUP10 PUSH2 0x3F17 SWAP2 SWAP1 PUSH2 0x468F JUMP JUMPDEST PUSH2 0x3F21 SWAP2 SWAP1 PUSH2 0x468F JUMP JUMPDEST PUSH2 0x3F2B SWAP2 SWAP1 PUSH2 0x44ED JUMP JUMPDEST PUSH2 0x3F35 SWAP2 SWAP1 PUSH2 0x44ED JUMP JUMPDEST PUSH2 0x3F3F SWAP2 SWAP1 PUSH2 0x44ED JUMP JUMPDEST PUSH2 0x3F49 SWAP2 SWAP1 PUSH2 0x46E9 JUMP JUMPDEST PUSH2 0x3F53 SWAP2 SWAP1 PUSH2 0x468F JUMP JUMPDEST PUSH2 0x3F5D SWAP2 SWAP1 PUSH2 0x44ED JUMP JUMPDEST SWAP1 POP SWAP4 SWAP3 POP POP POP JUMP JUMPDEST PUSH1 0x0 DUP2 PUSH2 0xE100 DUP6 DUP6 PUSH2 0x3F78 SWAP2 SWAP1 PUSH2 0x4497 JUMP JUMPDEST PUSH8 0xDE0B6B3A7640000 DUP8 PUSH2 0x3F8C SWAP2 SWAP1 PUSH2 0x468F JUMP JUMPDEST PUSH2 0x3F96 SWAP2 SWAP1 PUSH2 0x44ED JUMP JUMPDEST PUSH2 0x3FA0 SWAP2 SWAP1 PUSH2 0x44ED JUMP JUMPDEST PUSH2 0x3FAA SWAP2 SWAP1 PUSH2 0x4497 JUMP JUMPDEST SWAP1 POP SWAP4 SWAP3 POP POP POP JUMP JUMPDEST PUSH1 0x0 PUSH1 0x3 DUP3 GT ISZERO PUSH2 0x401A JUMPI DUP2 SWAP1 POP PUSH1 0x0 PUSH1 0x1 PUSH1 0x2 DUP5 PUSH2 0x3FD2 SWAP2 SWAP1 PUSH2 0x44ED JUMP JUMPDEST PUSH2 0x3FDC SWAP2 SWAP1 PUSH2 0x4497 JUMP JUMPDEST SWAP1 POP JUMPDEST DUP2 DUP2 LT ISZERO PUSH2 0x4014 JUMPI DUP1 SWAP2 POP PUSH1 0x2 DUP2 DUP3 DUP6 PUSH2 0x3FF9 SWAP2 SWAP1 PUSH2 0x44ED JUMP JUMPDEST PUSH2 0x4003 SWAP2 SWAP1 PUSH2 0x4497 JUMP JUMPDEST PUSH2 0x400D SWAP2 SWAP1 PUSH2 0x44ED JUMP JUMPDEST SWAP1 POP PUSH2 0x3FDF JUMP JUMPDEST POP PUSH2 0x4028 JUMP JUMPDEST PUSH1 0x0 DUP3 EQ PUSH2 0x4027 JUMPI PUSH1 0x1 SWAP1 POP JUMPDEST JUMPDEST SWAP2 SWAP1 POP JUMP JUMPDEST POP PUSH1 0x0 DUP2 SSTORE PUSH1 0x1 ADD PUSH1 0x0 SWAP1 SSTORE JUMP JUMPDEST PUSH1 0x0 DUP2 CALLDATALOAD SWAP1 POP PUSH2 0x404A DUP2 PUSH2 0x4896 JUMP JUMPDEST SWAP3 SWAP2 POP POP JUMP JUMPDEST PUSH1 0x0 DUP2 CALLDATALOAD SWAP1 POP PUSH2 0x405F DUP2 PUSH2 0x48AD JUMP JUMPDEST SWAP3 SWAP2 POP POP JUMP JUMPDEST PUSH1 0x0 DUP2 MLOAD SWAP1 POP PUSH2 0x4074 DUP2 PUSH2 0x48AD JUMP JUMPDEST SWAP3 SWAP2 POP POP JUMP JUMPDEST PUSH1 0x0 DUP2 CALLDATALOAD SWAP1 POP PUSH2 0x4089 DUP2 PUSH2 0x48C4 JUMP JUMPDEST SWAP3 SWAP2 POP POP JUMP JUMPDEST PUSH1 0x0 DUP1 PUSH1 0x40 DUP4 DUP6 SUB SLT ISZERO PUSH2 0x40A6 JUMPI PUSH2 0x40A5 PUSH2 0x4832 JUMP JUMPDEST JUMPDEST PUSH1 0x0 PUSH2 0x40B4 DUP6 DUP3 DUP7 ADD PUSH2 0x403B JUMP JUMPDEST SWAP3 POP POP PUSH1 0x20 PUSH2 0x40C5 DUP6 DUP3 DUP7 ADD PUSH2 0x403B JUMP JUMPDEST SWAP2 POP POP SWAP3 POP SWAP3 SWAP1 POP JUMP JUMPDEST PUSH1 0x0 DUP1 PUSH1 0x40 DUP4 DUP6 SUB SLT ISZERO PUSH2 0x40E6 JUMPI PUSH2 0x40E5 PUSH2 0x4832 JUMP JUMPDEST JUMPDEST PUSH1 0x0 PUSH2 0x40F4 DUP6 DUP3 DUP7 ADD PUSH2 0x403B JUMP JUMPDEST SWAP3 POP POP PUSH1 0x20 PUSH2 0x4105 DUP6 DUP3 DUP7 ADD PUSH2 0x4050 JUMP JUMPDEST SWAP2 POP POP SWAP3 POP SWAP3 SWAP1 POP JUMP JUMPDEST PUSH1 0x0 DUP1 PUSH1 0x40 DUP4 DUP6 SUB SLT ISZERO PUSH2 0x4126 JUMPI PUSH2 0x4125 PUSH2 0x4832 JUMP JUMPDEST JUMPDEST PUSH1 0x0 PUSH2 0x4134 DUP6 DUP3 DUP7 ADD PUSH2 0x403B JUMP JUMPDEST SWAP3 POP POP PUSH1 0x20 PUSH2 0x4145 DUP6 DUP3 DUP7 ADD PUSH2 0x407A JUMP JUMPDEST SWAP2 POP POP SWAP3 POP SWAP3 SWAP1 POP JUMP JUMPDEST PUSH1 0x0 PUSH1 0x20 DUP3 DUP5 SUB SLT ISZERO PUSH2 0x4165 JUMPI PUSH2 0x4164 PUSH2 0x4832 JUMP JUMPDEST JUMPDEST PUSH1 0x0 PUSH2 0x4173 DUP5 DUP3 DUP6 ADD PUSH2 0x4065 JUMP JUMPDEST SWAP2 POP POP SWAP3 SWAP2 POP POP JUMP JUMPDEST PUSH1 0x0 PUSH1 0x20 DUP3 DUP5 SUB SLT ISZERO PUSH2 0x4192 JUMPI PUSH2 0x4191 PUSH2 0x4832 JUMP JUMPDEST JUMPDEST PUSH1 0x0 PUSH2 0x41A0 DUP5 DUP3 DUP6 ADD PUSH2 0x407A JUMP JUMPDEST SWAP2 POP POP SWAP3 SWAP2 POP POP JUMP JUMPDEST PUSH1 0x0 DUP1 PUSH1 0x0 PUSH1 0x60 DUP5 DUP7 SUB SLT ISZERO PUSH2 0x41C2 JUMPI PUSH2 0x41C1 PUSH2 0x4832 JUMP JUMPDEST JUMPDEST PUSH1 0x0 PUSH2 0x41D0 DUP7 DUP3 DUP8 ADD PUSH2 0x407A JUMP JUMPDEST SWAP4 POP POP PUSH1 0x20 PUSH2 0x41E1 DUP7 DUP3 DUP8 ADD PUSH2 0x403B JUMP JUMPDEST SWAP3 POP POP PUSH1 0x40 PUSH2 0x41F2 DUP7 DUP3 DUP8 ADD PUSH2 0x403B JUMP JUMPDEST SWAP2 POP POP SWAP3 POP SWAP3 POP SWAP3 JUMP JUMPDEST PUSH1 0x0 DUP1 PUSH1 0x0 PUSH1 0x60 DUP5 DUP7 SUB SLT ISZERO PUSH2 0x4215 JUMPI PUSH2 0x4214 PUSH2 0x4832 JUMP JUMPDEST JUMPDEST PUSH1 0x0 PUSH2 0x4223 DUP7 DUP3 DUP8 ADD PUSH2 0x407A JUMP JUMPDEST SWAP4 POP POP PUSH1 0x20 PUSH2 0x4234 DUP7 DUP3 DUP8 ADD PUSH2 0x407A JUMP JUMPDEST SWAP3 POP POP PUSH1 0x40 PUSH2 0x4245 DUP7 DUP3 DUP8 ADD PUSH2 0x403B JUMP JUMPDEST SWAP2 POP POP SWAP3 POP SWAP3 POP SWAP3 JUMP JUMPDEST PUSH1 0x0 DUP1 PUSH1 0x0 DUP1 PUSH1 0x80 DUP6 DUP8 SUB SLT ISZERO PUSH2 0x4269 JUMPI PUSH2 0x4268 PUSH2 0x4832 JUMP JUMPDEST JUMPDEST PUSH1 0x0 PUSH2 0x4277 DUP8 DUP3 DUP9 ADD PUSH2 0x407A JUMP JUMPDEST SWAP5 POP POP PUSH1 0x20 PUSH2 0x4288 DUP8 DUP3 DUP9 ADD PUSH2 0x407A JUMP JUMPDEST SWAP4 POP POP PUSH1 0x40 PUSH2 0x4299 DUP8 DUP3 DUP9 ADD PUSH2 0x4050 JUMP JUMPDEST SWAP3 POP POP PUSH1 0x60 PUSH2 0x42AA DUP8 DUP3 DUP9 ADD PUSH2 0x403B JUMP JUMPDEST SWAP2 POP POP SWAP3 SWAP6 SWAP2 SWAP5 POP SWAP3 POP JUMP JUMPDEST PUSH2 0x42BF DUP2 PUSH2 0x471D JUMP JUMPDEST DUP3 MSTORE POP POP JUMP JUMPDEST PUSH2 0x42CE DUP2 PUSH2 0x472F JUMP JUMPDEST DUP3 MSTORE POP POP JUMP JUMPDEST PUSH1 0x0 PUSH2 0x42DF DUP3 PUSH2 0x4470 JUMP JUMPDEST PUSH2 0x42E9 DUP2 DUP6 PUSH2 0x447B JUMP JUMPDEST SWAP4 POP PUSH2 0x42F9 DUP2 DUP6 PUSH1 0x20 DUP7 ADD PUSH2 0x4772 JUMP JUMPDEST DUP1 DUP5 ADD SWAP2 POP POP SWAP3 SWAP2 POP POP JUMP JUMPDEST PUSH1 0x0 PUSH2 0x4312 PUSH1 0xF DUP4 PUSH2 0x4486 JUMP JUMPDEST SWAP2 POP PUSH2 0x431D DUP3 PUSH2 0x4844 JUMP JUMPDEST PUSH1 0x20 DUP3 ADD SWAP1 POP SWAP2 SWAP1 POP JUMP JUMPDEST PUSH1 0x0 PUSH2 0x4335 PUSH1 0x6 DUP4 PUSH2 0x4486 JUMP JUMPDEST SWAP2 POP PUSH2 0x4340 DUP3 PUSH2 0x486D JUMP JUMPDEST PUSH1 0x20 DUP3 ADD SWAP1 POP SWAP2 SWAP1 POP JUMP JUMPDEST PUSH2 0x4354 DUP2 PUSH2 0x475B JUMP JUMPDEST DUP3 MSTORE POP POP JUMP JUMPDEST PUSH1 0x0 PUSH2 0x4366 DUP3 DUP5 PUSH2 0x42D4 JUMP JUMPDEST SWAP2 POP DUP2 SWAP1 POP SWAP3 SWAP2 POP POP JUMP JUMPDEST PUSH1 0x0 PUSH1 0x20 DUP3 ADD SWAP1 POP PUSH2 0x4386 PUSH1 0x0 DUP4 ADD DUP5 PUSH2 0x42B6 JUMP JUMPDEST SWAP3 SWAP2 POP POP JUMP JUMPDEST PUSH1 0x0 PUSH1 0x80 DUP3 ADD SWAP1 POP PUSH2 0x43A1 PUSH1 0x0 DUP4 ADD DUP8 PUSH2 0x42B6 JUMP JUMPDEST PUSH2 0x43AE PUSH1 0x20 DUP4 ADD DUP7 PUSH2 0x42C5 JUMP JUMPDEST PUSH2 0x43BB PUSH1 0x40 DUP4 ADD DUP6 PUSH2 0x434B JUMP JUMPDEST PUSH2 0x43C8 PUSH1 0x60 DUP4 ADD DUP5 PUSH2 0x434B JUMP JUMPDEST SWAP6 SWAP5 POP POP POP POP POP JUMP JUMPDEST PUSH1 0x0 PUSH1 0x40 DUP3 ADD SWAP1 POP PUSH2 0x43E6 PUSH1 0x0 DUP4 ADD DUP6 PUSH2 0x42B6 JUMP JUMPDEST PUSH2 0x43F3 PUSH1 0x20 DUP4 ADD DUP5 PUSH2 0x434B JUMP JUMPDEST SWAP4 SWAP3 POP POP POP JUMP JUMPDEST PUSH1 0x0 PUSH1 0x20 DUP3 ADD SWAP1 POP PUSH2 0x440F PUSH1 0x0 DUP4 ADD DUP5 PUSH2 0x42C5 JUMP JUMPDEST SWAP3 SWAP2 POP POP JUMP JUMPDEST PUSH1 0x0 PUSH1 0x20 DUP3 ADD SWAP1 POP DUP2 DUP2 SUB PUSH1 0x0 DUP4 ADD MSTORE PUSH2 0x442E DUP2 PUSH2 0x4305 JUMP JUMPDEST SWAP1 POP SWAP2 SWAP1 POP JUMP JUMPDEST PUSH1 0x0 PUSH1 0x20 DUP3 ADD SWAP1 POP DUP2 DUP2 SUB PUSH1 0x0 DUP4 ADD MSTORE PUSH2 0x444E DUP2 PUSH2 0x4328 JUMP JUMPDEST SWAP1 POP SWAP2 SWAP1 POP JUMP JUMPDEST PUSH1 0x0 PUSH1 0x20 DUP3 ADD SWAP1 POP PUSH2 0x446A PUSH1 0x0 DUP4 ADD DUP5 PUSH2 0x434B JUMP JUMPDEST SWAP3 SWAP2 POP POP JUMP JUMPDEST PUSH1 0x0 DUP2 MLOAD SWAP1 POP SWAP2 SWAP1 POP JUMP JUMPDEST PUSH1 0x0 DUP2 SWAP1 POP SWAP3 SWAP2 POP POP JUMP JUMPDEST PUSH1 0x0 DUP3 DUP3 MSTORE PUSH1 0x20 DUP3 ADD SWAP1 POP SWAP3 SWAP2 POP POP JUMP JUMPDEST PUSH1 0x0 PUSH2 0x44A2 DUP3 PUSH2 0x475B JUMP JUMPDEST SWAP2 POP PUSH2 0x44AD DUP4 PUSH2 0x475B JUMP JUMPDEST SWAP3 POP DUP3 PUSH32 0xFFFFFFFFFFFFFFFFFFFFFFFFFFFFFFFFFFFFFFFFFFFFFFFFFFFFFFFFFFFFFFFF SUB DUP3 GT ISZERO PUSH2 0x44E2 JUMPI PUSH2 0x44E1 PUSH2 0x47A5 JUMP JUMPDEST JUMPDEST DUP3 DUP3 ADD SWAP1 POP SWAP3 SWAP2 POP POP JUMP JUMPDEST PUSH1 0x0 PUSH2 0x44F8 DUP3 PUSH2 0x475B JUMP JUMPDEST SWAP2 POP PUSH2 0x4503 DUP4 PUSH2 0x475B JUMP JUMPDEST SWAP3 POP DUP3 PUSH2 0x4513 JUMPI PUSH2 0x4512 PUSH2 0x47D4 JUMP JUMPDEST JUMPDEST DUP3 DUP3 DIV SWAP1 POP SWAP3 SWAP2 POP POP JUMP JUMPDEST PUSH1 0x0 DUP1 DUP3 SWAP2 POP DUP4 SWAP1 POP JUMPDEST PUSH1 0x1 DUP6 GT ISZERO PUSH2 0x4568 JUMPI DUP1 DUP7 DIV DUP2 GT ISZERO PUSH2 0x4544 JUMPI PUSH2 0x4543 PUSH2 0x47A5 JUMP JUMPDEST JUMPDEST PUSH1 0x1 DUP6 AND ISZERO PUSH2 0x4553 JUMPI DUP1 DUP3 MUL SWAP2 POP JUMPDEST DUP1 DUP2 MUL SWAP1 POP PUSH2 0x4561 DUP6 PUSH2 0x4837 JUMP JUMPDEST SWAP5 POP PUSH2 0x4528 JUMP JUMPDEST SWAP5 POP SWAP5 SWAP3 POP POP POP JUMP JUMPDEST PUSH1 0x0 PUSH2 0x457C DUP3 PUSH2 0x475B JUMP JUMPDEST SWAP2 POP PUSH2 0x4587 DUP4 PUSH2 0x4765 JUMP JUMPDEST SWAP3 POP PUSH2 0x45B4 PUSH32 0xFFFFFFFFFFFFFFFFFFFFFFFFFFFFFFFFFFFFFFFFFFFFFFFFFFFFFFFFFFFFFFFF DUP5 DUP5 PUSH2 0x45BC JUMP JUMPDEST SWAP1 POP SWAP3 SWAP2 POP POP JUMP JUMPDEST PUSH1 0x0 DUP3 PUSH2 0x45CC JUMPI PUSH1 0x1 SWAP1 POP PUSH2 0x4688 JUMP JUMPDEST DUP2 PUSH2 0x45DA JUMPI PUSH1 0x0 SWAP1 POP PUSH2 0x4688 JUMP JUMPDEST DUP2 PUSH1 0x1 DUP2 EQ PUSH2 0x45F0 JUMPI PUSH1 0x2 DUP2 EQ PUSH2 0x45FA JUMPI PUSH2 0x4629 JUMP JUMPDEST PUSH1 0x1 SWAP2 POP POP PUSH2 0x4688 JUMP JUMPDEST PUSH1 0xFF DUP5 GT ISZERO PUSH2 0x460C JUMPI PUSH2 0x460B PUSH2 0x47A5 JUMP JUMPDEST JUMPDEST DUP4 PUSH1 0x2 EXP SWAP2 POP DUP5 DUP3 GT ISZERO PUSH2 0x4623 JUMPI PUSH2 0x4622 PUSH2 0x47A5 JUMP JUMPDEST JUMPDEST POP PUSH2 0x4688 JUMP JUMPDEST POP PUSH1 0x20 DUP4 LT PUSH2 0x133 DUP4 LT AND PUSH1 0x4E DUP5 LT PUSH1 0xB DUP5 LT AND OR ISZERO PUSH2 0x465E JUMPI DUP3 DUP3 EXP SWAP1 POP DUP4 DUP2 GT ISZERO PUSH2 0x4659 JUMPI PUSH2 0x4658 PUSH2 0x47A5 JUMP JUMPDEST JUMPDEST PUSH2 0x4688 JUMP JUMPDEST PUSH2 0x466B DUP5 DUP5 DUP5 PUSH1 0x1 PUSH2 0x451E JUMP JUMPDEST SWAP3 POP SWAP1 POP DUP2 DUP5 DIV DUP2 GT ISZERO PUSH2 0x4682 JUMPI PUSH2 0x4681 PUSH2 0x47A5 JUMP JUMPDEST JUMPDEST DUP2 DUP2 MUL SWAP1 POP JUMPDEST SWAP4 SWAP3 POP POP POP JUMP JUMPDEST PUSH1 0x0 PUSH2 0x469A DUP3 PUSH2 0x475B JUMP JUMPDEST SWAP2 POP PUSH2 0x46A5 DUP4 PUSH2 0x475B JUMP JUMPDEST SWAP3 POP DUP2 PUSH32 0xFFFFFFFFFFFFFFFFFFFFFFFFFFFFFFFFFFFFFFFFFFFFFFFFFFFFFFFFFFFFFFFF DIV DUP4 GT DUP3 ISZERO ISZERO AND ISZERO PUSH2 0x46DE JUMPI PUSH2 0x46DD PUSH2 0x47A5 JUMP JUMPDEST JUMPDEST DUP3 DUP3 MUL SWAP1 POP SWAP3 SWAP2 POP POP JUMP JUMPDEST PUSH1 0x0 PUSH2 0x46F4 DUP3 PUSH2 0x475B JUMP JUMPDEST SWAP2 POP PUSH2 0x46FF DUP4 PUSH2 0x475B JUMP JUMPDEST SWAP3 POP DUP3 DUP3 LT ISZERO PUSH2 0x4712 JUMPI PUSH2 0x4711 PUSH2 0x47A5 JUMP JUMPDEST JUMPDEST DUP3 DUP3 SUB SWAP1 POP SWAP3 SWAP2 POP POP JUMP JUMPDEST PUSH1 0x0 PUSH2 0x4728 DUP3 PUSH2 0x473B JUMP JUMPDEST SWAP1 POP SWAP2 SWAP1 POP JUMP JUMPDEST PUSH1 0x0 DUP2 ISZERO ISZERO SWAP1 POP SWAP2 SWAP1 POP JUMP JUMPDEST PUSH1 0x0 PUSH20 0xFFFFFFFFFFFFFFFFFFFFFFFFFFFFFFFFFFFFFFFF DUP3 AND SWAP1 POP SWAP2 SWAP1 POP JUMP JUMPDEST PUSH1 0x0 DUP2 SWAP1 POP SWAP2 SWAP1 POP JUMP JUMPDEST PUSH1 0x0 PUSH1 0xFF DUP3 AND SWAP1 POP SWAP2 SWAP1 POP JUMP JUMPDEST PUSH1 0x0 JUMPDEST DUP4 DUP2 LT ISZERO PUSH2 0x4790 JUMPI DUP1 DUP3 ADD MLOAD DUP2 DUP5 ADD MSTORE PUSH1 0x20 DUP2 ADD SWAP1 POP PUSH2 0x4775 JUMP JUMPDEST DUP4 DUP2 GT ISZERO PUSH2 0x479F JUMPI PUSH1 0x0 DUP5 DUP5 ADD MSTORE JUMPDEST POP POP POP POP JUMP JUMPDEST PUSH32 0x4E487B7100000000000000000000000000000000000000000000000000000000 PUSH1 0x0 MSTORE PUSH1 0x11 PUSH1 0x4 MSTORE PUSH1 0x24 PUSH1 0x0 REVERT JUMPDEST PUSH32 0x4E487B7100000000000000000000000000000000000000000000000000000000 PUSH1 0x0 MSTORE PUSH1 0x12 PUSH1 0x4 MSTORE PUSH1 0x24 PUSH1 0x0 REVERT JUMPDEST PUSH32 0x4E487B7100000000000000000000000000000000000000000000000000000000 PUSH1 0x0 MSTORE PUSH1 0x32 PUSH1 0x4 MSTORE PUSH1 0x24 PUSH1 0x0 REVERT JUMPDEST PUSH1 0x0 DUP1 REVERT JUMPDEST PUSH1 0x0 DUP2 PUSH1 0x1 SHR SWAP1 POP SWAP2 SWAP1 POP JUMP JUMPDEST PUSH32 0x5452414E534645525F4641494C45440000000000000000000000000000000000 PUSH1 0x0 DUP3 ADD MSTORE POP JUMP JUMPDEST PUSH32 0x4C4F434B45440000000000000000000000000000000000000000000000000000 PUSH1 0x0 DUP3 ADD MSTORE POP JUMP JUMPDEST PUSH2 0x489F DUP2 PUSH2 0x471D JUMP JUMPDEST DUP2 EQ PUSH2 0x48AA JUMPI PUSH1 0x0 DUP1 REVERT JUMPDEST POP JUMP JUMPDEST PUSH2 0x48B6 DUP2 PUSH2 0x472F JUMP JUMPDEST DUP2 EQ PUSH2 0x48C1 JUMPI PUSH1 0x0 DUP1 REVERT JUMPDEST POP JUMP JUMPDEST PUSH2 0x48CD DUP2 PUSH2 0x475B JUMP JUMPDEST DUP2 EQ PUSH2 0x48D8 JUMPI PUSH1 0x0 DUP1 REVERT JUMPDEST POP JUMP INVALID LOG2 PUSH5 0x6970667358 0x22 SLT KECCAK256 SWAP12 0x2A MUL EXTCODEHASH 0xDB 0xA9 0xCD 0xAE 0xC1 SWAP9 0xE2 0xD9 EXTCODESIZE 0xEE PUSH11 0xD886DCB87A373EF10CA402 0x24 0xC GAS 0xD4 MSTORE8 POP PUSH5 0x736F6C6343 STOP ADDMOD SMOD STOP CALLER "
		},
		"gasEstimates": {
			"creation": {
				"codeDepositCost": "3741000",
				"executionCost": "48441",
				"totalCost": "3789441"
			},
			"external": {
				"B()": "2563",
				"D()": "2520",
				"D0()": "2539",
				"_addr()": "2559",
				"_virtualLiquidityUpdate()": "infinite",
				"addMargin(uint256,address,address)": "infinite",
				"baserate()": "2495",
				"const18()": "2475",
				"coordX()": "2563",
				"coordY()": "2541",
				"debtIndex(address,bool)": "infinite",
				"factory()": "2603",
				"getpX()": "2540",
				"getpY()": "2562",
				"lastFunding()": "2583",
				"lastFundingTime()": "2541",
				"lastPayingSide()": "2582",
				"leverageMax()": "2584",
				"liquidate(address,address)": "infinite",
				"liquidationBonus()": "2562",
				"liquidationRate()": "2518",
				"marginIndex(address,uint256)": "infinite",
				"marginLeverage()": "2517",
				"marginReserve(uint256)": "infinite",
				"peqX()": "2496",
				"peqY()": "2496",
				"perpClose(uint256,uint256,address)": "infinite",
				"perpFee()": "2519",
				"perpOpen(uint256,uint256,bool,address)": "infinite",
				"priceLocal()": "2475",
				"swapFee()": "2497",
				"tickrange()": "2561",
				"tokenX()": "2649",
				"tokenY()": "2669",
				"totalDebtX()": "2584",
				"totalDebtY()": "2474",
				"totalDebttokenX()": "2497",
				"totalDebttokenY()": "2476",
				"totalLiquidity()": "2542",
				"trueLiquidX()": "2474",
				"trueLiquidX0()": "2496",
				"trueLiquidY()": "2475",
				"trueLiquidY0()": "2473",
				"twoWhite()": "2561",
				"upperFunding8H()": "2540"
			},
			"internal": {
				"_refreshTotalbook()": "infinite",
				"_safeTransfer(address,address,uint256)": "infinite",
				"netDebt(address)": "infinite",
				"netMargin(address)": "infinite",
				"netPosition(address)": "infinite",
				"tradeXToY(uint256,bool,uint256)": "infinite",
				"tradeYToX(uint256,bool,uint256)": "infinite",
				"withdrawMargin(address,address,address,uint256)": "infinite"
			}
		},
		"methodIdentifiers": {
			"B()": "32e7c5bf",
			"D()": "0f529ba2",
			"D0()": "f738c74e",
			"_addr()": "62ab1a77",
			"_virtualLiquidityUpdate()": "60d95a03",
			"addMargin(uint256,address,address)": "b3402869",
			"baserate()": "ef0348fd",
			"const18()": "7e11939a",
			"coordX()": "8ca63e6f",
			"coordY()": "8c4008e9",
			"debtIndex(address,bool)": "2c4426ad",
			"factory()": "c45a0155",
			"getpX()": "77fef068",
			"getpY()": "d873fa7b",
			"lastFunding()": "fcbc49a0",
			"lastFundingTime()": "321d7fa9",
			"lastPayingSide()": "a79e6f9c",
			"leverageMax()": "e07b877a",
			"liquidate(address,address)": "86b9d81f",
			"liquidationBonus()": "7b7c1f4c",
			"liquidationRate()": "a71e8644",
			"marginIndex(address,uint256)": "367401db",
			"marginLeverage()": "f13c7aed",
			"marginReserve(uint256)": "0e449559",
			"peqX()": "be6571aa",
			"peqY()": "a37b1918",
			"perpClose(uint256,uint256,address)": "617d3b90",
			"perpFee()": "5784c8c4",
			"perpOpen(uint256,uint256,bool,address)": "748f00dc",
			"priceLocal()": "29baf8d9",
			"swapFee()": "54cf2aeb",
			"tickrange()": "f92e82b0",
			"tokenX()": "16dc165b",
			"tokenY()": "b7d19fc4",
			"totalDebtX()": "7bb62450",
			"totalDebtY()": "a01fbbf5",
			"totalDebttokenX()": "803042ac",
			"totalDebttokenY()": "0751a6c8",
			"totalLiquidity()": "15770f92",
			"trueLiquidX()": "b868504b",
			"trueLiquidX0()": "713370fc",
			"trueLiquidY()": "5091fadd",
			"trueLiquidY0()": "e159394f",
			"twoWhite()": "31fa66b2",
			"upperFunding8H()": "c556c363"
		}
	},
	"abi": [
		{
			"inputs": [],
			"name": "B",
			"outputs": [
				{
					"internalType": "uint256",
					"name": "",
					"type": "uint256"
				}
			],
			"stateMutability": "view",
			"type": "function"
		},
		{
			"inputs": [],
			"name": "D",
			"outputs": [
				{
					"internalType": "uint256",
					"name": "",
					"type": "uint256"
				}
			],
			"stateMutability": "view",
			"type": "function"
		},
		{
			"inputs": [],
			"name": "D0",
			"outputs": [
				{
					"internalType": "uint256",
					"name": "",
					"type": "uint256"
				}
			],
			"stateMutability": "view",
			"type": "function"
		},
		{
			"inputs": [],
			"name": "_addr",
			"outputs": [
				{
					"internalType": "address",
					"name": "",
					"type": "address"
				}
			],
			"stateMutability": "view",
			"type": "function"
		},
		{
			"inputs": [],
			"name": "_virtualLiquidityUpdate",
			"outputs": [
				{
					"internalType": "uint256",
					"name": "_D",
					"type": "uint256"
				}
			],
			"stateMutability": "view",
			"type": "function"
		},
		{
			"inputs": [
				{
					"internalType": "uint256",
					"name": "newMargin",
					"type": "uint256"
				},
				{
					"internalType": "address",
					"name": "tokenID",
					"type": "address"
				},
				{
					"internalType": "address",
					"name": "userID",
					"type": "address"
				}
			],
			"name": "addMargin",
			"outputs": [],
			"stateMutability": "nonpayable",
			"type": "function"
		},
		{
			"inputs": [],
			"name": "baserate",
			"outputs": [
				{
					"internalType": "uint256",
					"name": "",
					"type": "uint256"
				}
			],
			"stateMutability": "view",
			"type": "function"
		},
		{
			"inputs": [],
			"name": "const18",
			"outputs": [
				{
					"internalType": "uint256",
					"name": "",
					"type": "uint256"
				}
			],
			"stateMutability": "view",
			"type": "function"
		},
		{
			"inputs": [],
			"name": "coordX",
			"outputs": [
				{
					"internalType": "uint256",
					"name": "",
					"type": "uint256"
				}
			],
			"stateMutability": "view",
			"type": "function"
		},
		{
			"inputs": [],
			"name": "coordY",
			"outputs": [
				{
					"internalType": "uint256",
					"name": "",
					"type": "uint256"
				}
			],
			"stateMutability": "view",
			"type": "function"
		},
		{
			"inputs": [
				{
					"internalType": "address",
					"name": "",
					"type": "address"
				},
				{
					"internalType": "bool",
					"name": "",
					"type": "bool"
				}
			],
			"name": "debtIndex",
			"outputs": [
				{
					"internalType": "address",
					"name": "user_ID",
					"type": "address"
				},
				{
					"internalType": "bool",
					"name": "token_ID",
					"type": "bool"
				},
				{
					"internalType": "uint256",
					"name": "debttokenAmount",
					"type": "uint256"
				},
				{
					"internalType": "uint256",
					"name": "positionAmount",
					"type": "uint256"
				}
			],
			"stateMutability": "view",
			"type": "function"
		},
		{
			"inputs": [],
			"name": "factory",
			"outputs": [
				{
					"internalType": "address",
					"name": "",
					"type": "address"
				}
			],
			"stateMutability": "view",
			"type": "function"
		},
		{
			"inputs": [],
			"name": "getpX",
			"outputs": [
				{
					"internalType": "uint256",
					"name": "",
					"type": "uint256"
				}
			],
			"stateMutability": "view",
			"type": "function"
		},
		{
			"inputs": [],
			"name": "getpY",
			"outputs": [
				{
					"internalType": "uint256",
					"name": "",
					"type": "uint256"
				}
			],
			"stateMutability": "view",
			"type": "function"
		},
		{
			"inputs": [],
			"name": "lastFunding",
			"outputs": [
				{
					"internalType": "uint256",
					"name": "",
					"type": "uint256"
				}
			],
			"stateMutability": "view",
			"type": "function"
		},
		{
			"inputs": [],
			"name": "lastFundingTime",
			"outputs": [
				{
					"internalType": "uint256",
					"name": "",
					"type": "uint256"
				}
			],
			"stateMutability": "view",
			"type": "function"
		},
		{
			"inputs": [],
			"name": "lastPayingSide",
			"outputs": [
				{
					"internalType": "bool",
					"name": "",
					"type": "bool"
				}
			],
			"stateMutability": "view",
			"type": "function"
		},
		{
			"inputs": [],
			"name": "leverageMax",
			"outputs": [
				{
					"internalType": "uint256",
					"name": "",
					"type": "uint256"
				}
			],
			"stateMutability": "view",
			"type": "function"
		},
		{
			"inputs": [
				{
					"internalType": "address",
					"name": "userID",
					"type": "address"
				},
				{
					"internalType": "address",
					"name": "_to",
					"type": "address"
				}
			],
			"name": "liquidate",
			"outputs": [],
			"stateMutability": "nonpayable",
			"type": "function"
		},
		{
			"inputs": [],
			"name": "liquidationBonus",
			"outputs": [
				{
					"internalType": "uint256",
					"name": "",
					"type": "uint256"
				}
			],
			"stateMutability": "view",
			"type": "function"
		},
		{
			"inputs": [],
			"name": "liquidationRate",
			"outputs": [
				{
					"internalType": "uint256",
					"name": "",
					"type": "uint256"
				}
			],
			"stateMutability": "view",
			"type": "function"
		},
		{
			"inputs": [
				{
					"internalType": "address",
					"name": "",
					"type": "address"
				},
				{
					"internalType": "uint256",
					"name": "",
					"type": "uint256"
				}
			],
			"name": "marginIndex",
			"outputs": [
				{
					"internalType": "uint256",
					"name": "",
					"type": "uint256"
				}
			],
			"stateMutability": "view",
			"type": "function"
		},
		{
			"inputs": [],
			"name": "marginLeverage",
			"outputs": [
				{
					"internalType": "uint256",
					"name": "",
					"type": "uint256"
				}
			],
			"stateMutability": "view",
			"type": "function"
		},
		{
			"inputs": [
				{
					"internalType": "uint256",
					"name": "",
					"type": "uint256"
				}
			],
			"name": "marginReserve",
			"outputs": [
				{
					"internalType": "uint256",
					"name": "",
					"type": "uint256"
				}
			],
			"stateMutability": "view",
			"type": "function"
		},
		{
			"inputs": [],
			"name": "peqX",
			"outputs": [
				{
					"internalType": "uint256",
					"name": "",
					"type": "uint256"
				}
			],
			"stateMutability": "view",
			"type": "function"
		},
		{
			"inputs": [],
			"name": "peqY",
			"outputs": [
				{
					"internalType": "uint256",
					"name": "",
					"type": "uint256"
				}
			],
			"stateMutability": "view",
			"type": "function"
		},
		{
			"inputs": [
				{
					"internalType": "uint256",
					"name": "deltaX",
					"type": "uint256"
				},
				{
					"internalType": "uint256",
					"name": "deltaY",
					"type": "uint256"
				},
				{
					"internalType": "address",
					"name": "userID",
					"type": "address"
				}
			],
			"name": "perpClose",
			"outputs": [],
			"stateMutability": "nonpayable",
			"type": "function"
		},
		{
			"inputs": [],
			"name": "perpFee",
			"outputs": [
				{
					"internalType": "uint256",
					"name": "",
					"type": "uint256"
				}
			],
			"stateMutability": "view",
			"type": "function"
		},
		{
			"inputs": [
				{
					"internalType": "uint256",
					"name": "deltaX",
					"type": "uint256"
				},
				{
					"internalType": "uint256",
					"name": "deltaY",
					"type": "uint256"
				},
				{
					"internalType": "bool",
					"name": "XtoY",
					"type": "bool"
				},
				{
					"internalType": "address",
					"name": "userID",
					"type": "address"
				}
			],
			"name": "perpOpen",
			"outputs": [],
			"stateMutability": "nonpayable",
			"type": "function"
		},
		{
			"inputs": [],
			"name": "priceLocal",
			"outputs": [
				{
					"internalType": "uint256",
					"name": "",
					"type": "uint256"
				}
			],
			"stateMutability": "view",
			"type": "function"
		},
		{
			"inputs": [],
			"name": "swapFee",
			"outputs": [
				{
					"internalType": "uint256",
					"name": "",
					"type": "uint256"
				}
			],
			"stateMutability": "view",
			"type": "function"
		},
		{
			"inputs": [],
			"name": "tickrange",
			"outputs": [
				{
					"internalType": "uint256",
					"name": "",
					"type": "uint256"
				}
			],
			"stateMutability": "view",
			"type": "function"
		},
		{
			"inputs": [],
			"name": "tokenX",
			"outputs": [
				{
					"internalType": "address",
					"name": "",
					"type": "address"
				}
			],
			"stateMutability": "view",
			"type": "function"
		},
		{
			"inputs": [],
			"name": "tokenY",
			"outputs": [
				{
					"internalType": "address",
					"name": "",
					"type": "address"
				}
			],
			"stateMutability": "view",
			"type": "function"
		},
		{
			"inputs": [],
			"name": "totalDebtX",
			"outputs": [
				{
					"internalType": "uint256",
					"name": "",
					"type": "uint256"
				}
			],
			"stateMutability": "view",
			"type": "function"
		},
		{
			"inputs": [],
			"name": "totalDebtY",
			"outputs": [
				{
					"internalType": "uint256",
					"name": "",
					"type": "uint256"
				}
			],
			"stateMutability": "view",
			"type": "function"
		},
		{
			"inputs": [],
			"name": "totalDebttokenX",
			"outputs": [
				{
					"internalType": "uint256",
					"name": "",
					"type": "uint256"
				}
			],
			"stateMutability": "view",
			"type": "function"
		},
		{
			"inputs": [],
			"name": "totalDebttokenY",
			"outputs": [
				{
					"internalType": "uint256",
					"name": "",
					"type": "uint256"
				}
			],
			"stateMutability": "view",
			"type": "function"
		},
		{
			"inputs": [],
			"name": "totalLiquidity",
			"outputs": [
				{
					"internalType": "uint256",
					"name": "",
					"type": "uint256"
				}
			],
			"stateMutability": "view",
			"type": "function"
		},
		{
			"inputs": [],
			"name": "trueLiquidX",
			"outputs": [
				{
					"internalType": "uint256",
					"name": "",
					"type": "uint256"
				}
			],
			"stateMutability": "view",
			"type": "function"
		},
		{
			"inputs": [],
			"name": "trueLiquidX0",
			"outputs": [
				{
					"internalType": "uint256",
					"name": "",
					"type": "uint256"
				}
			],
			"stateMutability": "view",
			"type": "function"
		},
		{
			"inputs": [],
			"name": "trueLiquidY",
			"outputs": [
				{
					"internalType": "uint256",
					"name": "",
					"type": "uint256"
				}
			],
			"stateMutability": "view",
			"type": "function"
		},
		{
			"inputs": [],
			"name": "trueLiquidY0",
			"outputs": [
				{
					"internalType": "uint256",
					"name": "",
					"type": "uint256"
				}
			],
			"stateMutability": "view",
			"type": "function"
		},
		{
			"inputs": [],
			"name": "twoWhite",
			"outputs": [
				{
					"internalType": "bool",
					"name": "",
					"type": "bool"
				}
			],
			"stateMutability": "view",
			"type": "function"
		},
		{
			"inputs": [],
			"name": "upperFunding8H",
			"outputs": [
				{
					"internalType": "uint256",
					"name": "",
					"type": "uint256"
				}
			],
			"stateMutability": "view",
			"type": "function"
		}
	]
}