{
	"data": {
		"bytecode": {
			"linkReferences": {},
			"object": "6080604052670de0b6b3a7640000602c556001602f553480156200002257600080fd5b5060004690507f8b73c3c69bb8fe3d512ecc4cf759cc79239f7b179b0ffacaa9a75d522b39400f6040518060400160405280600a81526020017f556e697377617020563200000000000000000000000000000000000000000000815250805190602001206040518060400160405280600181526020017f3100000000000000000000000000000000000000000000000000000000000000815250805190602001208330604051602001620000db95949392919062000172565b604051602081830303815290604052805190602001206003819055505033602560006101000a81548173ffffffffffffffffffffffffffffffffffffffff021916908373ffffffffffffffffffffffffffffffffffffffff16021790555062000217565b6200014a81620001cf565b82525050565b6200015b81620001e3565b82525050565b6200016c816200020d565b82525050565b600060a08201905062000189600083018862000150565b62000198602083018762000150565b620001a7604083018662000150565b620001b6606083018562000161565b620001c560808301846200013f565b9695505050505050565b6000620001dc82620001ed565b9050919050565b6000819050919050565b600073ffffffffffffffffffffffffffffffffffffffff82169050919050565b6000819050919050565b616cc580620002276000396000f3fe608060405234801561001057600080fd5b50600436106104115760003560e01c80637e1431be11610220578063bc25cf7711610130578063ddca3f43116100b8578063f70f439411610087578063f70f439414610c56578063f738c74e14610c74578063fc69b80f14610c92578063fe18f26114610cc2578063ff2f169e14610ce057610411565b8063ddca3f4314610bde578063df0ab2c214610bfc578063e19a147414610c1a578063ea1797b014610c3857610411565b8063c9e525df116100ff578063c9e525df14610b3a578063cfe38a5e14610b58578063d44022db14610b74578063d505accf14610b92578063dd62ed3e14610bae57610411565b8063bc25cf7714610ac6578063c3d81b2114610ae2578063c45a015514610afe578063c7d4493214610b1c57610411565b80638e361389116101b35780639f1d0f59116101825780639f1d0f5914610a20578063a5aa65b914610a3c578063a9059cbb14610a5a578063acd4a7c214610a8a578063b7d19fc414610aa857610411565b80638e361389146109aa5780639076ae86146109c857806395d89b41146109e45780639a36e12214610a0257610411565b806383dfe5fd116101ef57806383dfe5fd1461093457806384009686146109525780638bc1a32f146109705780638cf825e71461098e57610411565b80637e1431be146108955780637ecebe00146108c85780637ed6281b146108f857806380416c021461091657610411565b8063313ce567116103265780635595d459116102ae5780636665ff111161027d5780636665ff11146107da5780636b3545aa1461080b57806370a082311461082957806379dbf8ea146108595780637e11939a1461087757610411565b80635595d459146107505780635e287d861461076e5780636126deef1461078c5780636607e7e8146107bc57610411565b806336af2f9b116102f557806336af2f9b146106be5780633c6fe2f4146106dc578063480c4f7e146106fa578063485cc955146107185780634c324e6a1461073457610411565b8063313ce5671461064857806332e7c5bf1461066657806335714521146106845780633644e515146106a057610411565b806318160ddd116103a9578063225c2c5011610378578063225c2c50146105a057806323b872dd146105be57806323ed16b6146105ee5780632dd6c2541461060c57806330adf81f1461062a57610411565b806318160ddd1461051657806318db9681146105345780631cbdffd1146105525780632190219e1461058257610411565b80630bfa68d8116103e55780630bfa68d8146104a05780630f529ba2146104bc578063139860ee146104da57806316dc165b146104f857610411565b8062b526451461041657806306fdde0314610434578063095ea7b3146104525780630b19761514610482575b600080fd5b61041e610cfc565b60405161042b9190616579565b60405180910390f35b61043c610d02565b60405161044991906163f7565b60405180910390f35b61046c60048036038101906104679190615dc0565b610d3b565b604051610479919061631b565b60405180910390f35b61048a610d52565b6040516104979190616579565b60405180910390f35b6104ba60048036038101906104b59190615e80565b610d58565b005b6104c4610df2565b6040516104d19190616579565b60405180910390f35b6104e2610df8565b6040516104ef9190616579565b60405180910390f35b610500610dfe565b60405161050d9190616292565b60405180910390f35b61051e610e24565b60405161052b9190616579565b60405180910390f35b61053c610e2a565b6040516105499190616579565b60405180910390f35b61056c60048036038101906105679190615e80565b610e30565b6040516105799190616579565b60405180910390f35b61058a610e4b565b6040516105979190616579565b60405180910390f35b6105a8610e51565b6040516105b59190616579565b60405180910390f35b6105d860048036038101906105d39190615c8b565b610e57565b6040516105e5919061631b565b60405180910390f35b6105f6611004565b6040516106039190616579565b60405180910390f35b61061461100a565b6040516106219190616579565b60405180910390f35b610632611010565b60405161063f9190616336565b60405180910390f35b610650611037565b60405161065d91906165bd565b60405180910390f35b61066e61103c565b60405161067b9190616579565b60405180910390f35b61069e60048036038101906106999190615e80565b611042565b005b6106a86110dc565b6040516106b59190616336565b60405180910390f35b6106c66110e2565b6040516106d39190616579565b60405180910390f35b6106e46110e8565b6040516106f19190616579565b60405180910390f35b6107026110ee565b60405161070f9190616579565b60405180910390f35b610732600480360381019061072d9190615c4b565b6110f4565b005b61074e60048036038101906107499190615f1a565b61120a565b005b61075861211c565b6040516107659190616579565b60405180910390f35b610776612122565b6040516107839190616579565b60405180910390f35b6107a660048036038101906107a19190615f1a565b612128565b6040516107b39190616579565b60405180910390f35b6107c4612229565b6040516107d19190616579565b60405180910390f35b6107f460048036038101906107ef9190615eda565b61222f565b604051610802929190616594565b60405180910390f35b61081361239c565b6040516108209190616579565b60405180910390f35b610843600480360381019061083e9190615c1e565b6123a2565b6040516108509190616579565b60405180910390f35b6108616123ba565b60405161086e9190616579565b60405180910390f35b61087f6123c0565b60405161088c9190616579565b60405180910390f35b6108af60048036038101906108aa9190615d80565b6123c6565b6040516108bf94939291906162ad565b60405180910390f35b6108e260048036038101906108dd9190615c1e565b612430565b6040516108ef9190616579565b60405180910390f35b610900612448565b60405161090d9190616579565b60405180910390f35b61091e61244e565b60405161092b9190616579565b60405180910390f35b61093c612454565b6040516109499190616579565b60405180910390f35b61095a61245a565b6040516109679190616579565b60405180910390f35b610978612460565b6040516109859190616579565b60405180910390f35b6109a860048036038101906109a39190615c4b565b612466565b005b6109b2612769565b6040516109bf9190616579565b60405180910390f35b6109e260048036038101906109dd9190615f6d565b61276f565b005b6109ec612b93565b6040516109f991906163f7565b60405180910390f35b610a0a612bcc565b604051610a179190616579565b60405180910390f35b610a3a6004803603810190610a359190615e00565b612bd2565b005b610a44612fce565b604051610a519190616579565b60405180910390f35b610a746004803603810190610a6f9190615dc0565b612fd4565b604051610a81919061631b565b60405180910390f35b610a92612feb565b604051610a9f9190616579565b60405180910390f35b610ab0612ff1565b604051610abd9190616292565b60405180910390f35b610ae06004803603810190610adb9190615c1e565b613017565b005b610afc6004803603810190610af79190615c4b565b613245565b005b610b0661362c565b604051610b139190616292565b60405180910390f35b610b24613652565b604051610b31919061631b565b60405180910390f35b610b42613665565b604051610b4f9190616579565b60405180910390f35b610b726004803603810190610b6d9190615e80565b61366b565b005b610b7c613705565b604051610b899190616579565b60405180910390f35b610bac6004803603810190610ba79190615cde565b61370b565b005b610bc86004803603810190610bc39190615c4b565b613933565b604051610bd59190616579565b60405180910390f35b610be6613958565b604051610bf39190616579565b60405180910390f35b610c0461395e565b604051610c119190616579565b60405180910390f35b610c22613964565b604051610c2f9190616579565b60405180910390f35b610c4061396a565b604051610c4d9190616579565b60405180910390f35b610c5e613970565b604051610c6b9190616579565b60405180910390f35b610c7c613976565b604051610c899190616579565b60405180910390f35b610cac6004803603810190610ca79190615dc0565b61397c565b604051610cb99190616579565b60405180910390f35b610cca6139a4565b604051610cd79190616579565b60405180910390f35b610cfa6004803603810190610cf59190615e80565b6139aa565b005b600e5481565b6040518060400160405280600a81526020017f556e69737761702056320000000000000000000000000000000000000000000081525081565b6000610d48338484613a44565b6001905092915050565b60155481565b602560009054906101000a900473ffffffffffffffffffffffffffffffffffffffff1673ffffffffffffffffffffffffffffffffffffffff163373ffffffffffffffffffffffffffffffffffffffff1614610de8576040517f08c379a0000000000000000000000000000000000000000000000000000000008152600401610ddf90616479565b60405180910390fd5b8060218190555050565b60075481565b601c5481565b602660009054906101000a900473ffffffffffffffffffffffffffffffffffffffff1681565b60005481565b601d5481565b60308160028110610e4057600080fd5b016000915090505481565b60195481565b601a5481565b6000610101600260008673ffffffffffffffffffffffffffffffffffffffff1673ffffffffffffffffffffffffffffffffffffffff16815260200190815260200160002060003373ffffffffffffffffffffffffffffffffffffffff1673ffffffffffffffffffffffffffffffffffffffff1681526020019081526020016000205414610fee57610f6d82600260008773ffffffffffffffffffffffffffffffffffffffff1673ffffffffffffffffffffffffffffffffffffffff16815260200190815260200160002060003373ffffffffffffffffffffffffffffffffffffffff1673ffffffffffffffffffffffffffffffffffffffff16815260200190815260200160002054613b2f90919063ffffffff16565b600260008673ffffffffffffffffffffffffffffffffffffffff1673ffffffffffffffffffffffffffffffffffffffff16815260200190815260200160002060003373ffffffffffffffffffffffffffffffffffffffff1673ffffffffffffffffffffffffffffffffffffffff168152602001908152602001600020819055505b610ff9848484613b88565b600190509392505050565b601e5481565b60295481565b7f6e71edae12b1b97f4d1f60370fef10105fa2faae0126114a169c64845d6126c960001b81565b601281565b60055481565b602560009054906101000a900473ffffffffffffffffffffffffffffffffffffffff1673ffffffffffffffffffffffffffffffffffffffff163373ffffffffffffffffffffffffffffffffffffffff16146110d2576040517f08c379a00000000000000000000000000000000000000000000000000000000081526004016110c990616479565b60405180910390fd5b80601d8190555050565b60035481565b600c5481565b60135481565b60175481565b602560009054906101000a900473ffffffffffffffffffffffffffffffffffffffff1673ffffffffffffffffffffffffffffffffffffffff163373ffffffffffffffffffffffffffffffffffffffff1614611184576040517f08c379a000000000000000000000000000000000000000000000000000000000815260040161117b906164f9565b60405180910390fd5b81602660006101000a81548173ffffffffffffffffffffffffffffffffffffffff021916908373ffffffffffffffffffffffffffffffffffffffff16021790555080602760006101000a81548173ffffffffffffffffffffffffffffffffffffffff021916908373ffffffffffffffffffffffffffffffffffffffff1602179055505050565b6001602f541461124f576040517f08c379a000000000000000000000000000000000000000000000000000000000815260040161124690616559565b60405180910390fd5b6000602f8190555060008284611265919061680d565b14801561127d57506000828461127b9190616615565b115b80156112ab575061128d81613d1c565b61129682613e10565b61129f83613ef5565b6112a99190616615565b115b801561130e5750603260008273ffffffffffffffffffffffffffffffffffffffff1673ffffffffffffffffffffffffffffffffffffffff168152602001908152602001600020600080151515158152602001908152602001600020600201548311155b80156113725750603260008273ffffffffffffffffffffffffffffffffffffffff1673ffffffffffffffffffffffffffffffffffffffff16815260200190815260200160002060006001151515158152602001908152602001600020600201548211155b61137b57600080fd5b611383613fc4565b6000831115611ab55760006113998460016140f0565b9050600061145d85603260008673ffffffffffffffffffffffffffffffffffffffff1673ffffffffffffffffffffffffffffffffffffffff1681526020019081526020016000206000600115151515815260200190815260200160002060010154601a54601c54603260008973ffffffffffffffffffffffffffffffffffffffff1673ffffffffffffffffffffffffffffffffffffffff16815260200190815260200160002060008015151515815260200190815260200160002060020154614424565b905084603260008573ffffffffffffffffffffffffffffffffffffffff1673ffffffffffffffffffffffffffffffffffffffff16815260200190815260200160002060008015151515815260200190815260200160002060020160008282546114c69190616867565b9250508190555080601a60008282546114df9190616867565b925050819055506115a0603260008573ffffffffffffffffffffffffffffffffffffffff1673ffffffffffffffffffffffffffffffffffffffff168152602001908152602001600020600060011515151581526020019081526020016000206001015486603260008773ffffffffffffffffffffffffffffffffffffffff1673ffffffffffffffffffffffffffffffffffffffff1681526020019081526020016000206000801515151581526020019081526020016000206002015461445e565b601c60008282546115b19190616867565b92505081905550611672603260008573ffffffffffffffffffffffffffffffffffffffff1673ffffffffffffffffffffffffffffffffffffffff168152602001908152602001600020600060011515151581526020019081526020016000206001015486603260008773ffffffffffffffffffffffffffffffffffffffff1673ffffffffffffffffffffffffffffffffffffffff1681526020019081526020016000206000801515151581526020019081526020016000206002015461445e565b603260008573ffffffffffffffffffffffffffffffffffffffff1673ffffffffffffffffffffffffffffffffffffffff1681526020019081526020016000206000600115151515815260200190815260200160002060010160008282546116d99190616867565b925050819055508082118015611702575060001515602d60009054906101000a900460ff161515145b1561178b5761171d81836117169190616867565b6000614480565b603360008573ffffffffffffffffffffffffffffffffffffffff1673ffffffffffffffffffffffffffffffffffffffff16815260200190815260200160002060006002811061176f5761176e6169de565b5b01600082825461177f9190616615565b92505081905550611aae565b8082603360008673ffffffffffffffffffffffffffffffffffffffff1673ffffffffffffffffffffffffffffffffffffffff1681526020019081526020016000206001600281106117df576117de6169de565b5b01546117eb9190616615565b11801561180b575060011515602d60009054906101000a900460ff161515145b156118d6578082603360008673ffffffffffffffffffffffffffffffffffffffff1673ffffffffffffffffffffffffffffffffffffffff168152602001908152602001600020600160028110611864576118636169de565b5b01546118709190616615565b61187a9190616867565b603360008573ffffffffffffffffffffffffffffffffffffffff1673ffffffffffffffffffffffffffffffffffffffff1681526020019081526020016000206001600281106118cc576118cb6169de565b5b0181905550611aad565b61199e603360008573ffffffffffffffffffffffffffffffffffffffff1673ffffffffffffffffffffffffffffffffffffffff16815260200190815260200160002060016002811061192b5761192a6169de565b5b015483836119399190616867565b6119439190616867565b603360008673ffffffffffffffffffffffffffffffffffffffff1673ffffffffffffffffffffffffffffffffffffffff168152602001908152602001600020600060028110611995576119946169de565b5b015460006147cc565b603360008573ffffffffffffffffffffffffffffffffffffffff1673ffffffffffffffffffffffffffffffffffffffff1681526020019081526020016000206000600281106119f0576119ef6169de565b5b01546119fc9190616867565b603360008573ffffffffffffffffffffffffffffffffffffffff1673ffffffffffffffffffffffffffffffffffffffff168152602001908152602001600020600060028110611a4e57611a4d6169de565b5b01819055506000603360008573ffffffffffffffffffffffffffffffffffffffff1673ffffffffffffffffffffffffffffffffffffffff168152602001908152602001600020600160028110611aa757611aa66169de565b5b01819055505b5b505061210f565b6000611ac2836001614480565b90506000611b8684603260008673ffffffffffffffffffffffffffffffffffffffff1673ffffffffffffffffffffffffffffffffffffffff16815260200190815260200160002060008015151515815260200190815260200160002060010154601954601b54603260008973ffffffffffffffffffffffffffffffffffffffff1673ffffffffffffffffffffffffffffffffffffffff1681526020019081526020016000206000600115151515815260200190815260200160002060020154614424565b905083603260008573ffffffffffffffffffffffffffffffffffffffff1673ffffffffffffffffffffffffffffffffffffffff168152602001908152602001600020600060011515151581526020019081526020016000206002016000828254611bf09190616867565b925050819055508060196000828254611c099190616867565b92505081905550611cca603260008573ffffffffffffffffffffffffffffffffffffffff1673ffffffffffffffffffffffffffffffffffffffff1681526020019081526020016000206000801515151581526020019081526020016000206001015485603260008773ffffffffffffffffffffffffffffffffffffffff1673ffffffffffffffffffffffffffffffffffffffff168152602001908152602001600020600060011515151581526020019081526020016000206002015461445e565b601b6000828254611cdb9190616867565b92505081905550611d9c603260008573ffffffffffffffffffffffffffffffffffffffff1673ffffffffffffffffffffffffffffffffffffffff1681526020019081526020016000206000801515151581526020019081526020016000206001015485603260008773ffffffffffffffffffffffffffffffffffffffff1673ffffffffffffffffffffffffffffffffffffffff168152602001908152602001600020600060011515151581526020019081526020016000206002015461445e565b603260008573ffffffffffffffffffffffffffffffffffffffff1673ffffffffffffffffffffffffffffffffffffffff1681526020019081526020016000206000801515151581526020019081526020016000206001016000828254611e029190616867565b925050819055508082603360008673ffffffffffffffffffffffffffffffffffffffff1673ffffffffffffffffffffffffffffffffffffffff168152602001908152602001600020600060028110611e5d57611e5c6169de565b5b0154611e699190616615565b1115611f35578082603360008673ffffffffffffffffffffffffffffffffffffffff1673ffffffffffffffffffffffffffffffffffffffff168152602001908152602001600020600060028110611ec357611ec26169de565b5b0154611ecf9190616615565b611ed99190616867565b603360008573ffffffffffffffffffffffffffffffffffffffff1673ffffffffffffffffffffffffffffffffffffffff168152602001908152602001600020600060028110611f2b57611f2a6169de565b5b018190555061210c565b611ffd603360008573ffffffffffffffffffffffffffffffffffffffff1673ffffffffffffffffffffffffffffffffffffffff168152602001908152602001600020600060028110611f8a57611f896169de565b5b01548383611f989190616867565b611fa29190616867565b603360008673ffffffffffffffffffffffffffffffffffffffff1673ffffffffffffffffffffffffffffffffffffffff168152602001908152602001600020600160028110611ff457611ff36169de565b5b01546000614b23565b603360008573ffffffffffffffffffffffffffffffffffffffff1673ffffffffffffffffffffffffffffffffffffffff16815260200190815260200160002060016002811061204f5761204e6169de565b5b015461205b9190616867565b603360008573ffffffffffffffffffffffffffffffffffffffff1673ffffffffffffffffffffffffffffffffffffffff1681526020019081526020016000206001600281106120ad576120ac6169de565b5b01819055506000603360008573ffffffffffffffffffffffffffffffffffffffff1673ffffffffffffffffffffffffffffffffffffffff168152602001908152602001600020600060028110612106576121056169de565b5b01819055505b50505b6001602f81905550505050565b60145481565b601f5481565b60006001602f541461216f576040517f08c379a000000000000000000000000000000000000000000000000000000000815260040161216690616559565b60405180910390fd5b6000602f81905550612193600b548560145461218b9190616615565b60145461445e565b600b819055506121b5600c54846013546121ad9190616615565b60135461445e565b600c819055506121ca6029548560145461445e565b9050806029546121da9190616615565b602981905550836014546121ee9190616615565b601481905550826013546122029190616615565b6013819055506122128282614e7a565b61221a614f94565b6001602f819055509392505050565b60165481565b6000806001602f5414612277576040517f08c379a000000000000000000000000000000000000000000000000000000000815260040161226e90616559565b60405180910390fd5b6000602f8190555061228e8460145460295461445e565b915061229f8460135460295461445e565b90506122bd600b54836014546122b59190616867565b60145461445e565b600b819055506122df600c54826013546122d79190616867565b60135461445e565b600c81905550816014546122f39190616867565b601481905550806013546123079190616867565b6013819055508360295461231b9190616867565b60298190555061232b3085615006565b612358602660009054906101000a900473ffffffffffffffffffffffffffffffffffffffff168484615120565b612385602760009054906101000a900473ffffffffffffffffffffffffffffffffffffffff168483615120565b61238d614f94565b6001602f819055509250929050565b601b5481565b60016020528060005260406000206000915090505481565b60125481565b602c5481565b6032602052816000526040600020602052806000526040600020600091509150508060000160009054906101000a900473ffffffffffffffffffffffffffffffffffffffff16908060000160149054906101000a900460ff16908060010154908060020154905084565b60046020528060005260406000206000915090505481565b60225481565b600a5481565b60065481565b600b5481565b602a5481565b6000602660009054906101000a900473ffffffffffffffffffffffffffffffffffffffff1673ffffffffffffffffffffffffffffffffffffffff168373ffffffffffffffffffffffffffffffffffffffff1614156126135760306000600281106124d3576124d26169de565b5b01546014548473ffffffffffffffffffffffffffffffffffffffff166370a08231306040518263ffffffff1660e01b81526004016125119190616292565b60206040518083038186803b15801561252957600080fd5b505afa15801561253d573d6000803e3d6000fd5b505050506040513d601f19601f820116820180604052508101906125619190615ead565b61256b9190616867565b6125759190616867565b905080603360008473ffffffffffffffffffffffffffffffffffffffff1673ffffffffffffffffffffffffffffffffffffffff1681526020019081526020016000206000600281106125ca576125c96169de565b5b0160008282546125da9190616615565b925050819055508060306000600281106125f7576125f66169de565b5b0160008282546126079190616615565b92505081905550612764565b6030600160028110612628576126276169de565b5b01546013548473ffffffffffffffffffffffffffffffffffffffff166370a08231306040518263ffffffff1660e01b81526004016126669190616292565b60206040518083038186803b15801561267e57600080fd5b505afa158015612692573d6000803e3d6000fd5b505050506040513d601f19601f820116820180604052508101906126b69190615ead565b6126c09190616867565b6126ca9190616867565b905080603360008473ffffffffffffffffffffffffffffffffffffffff1673ffffffffffffffffffffffffffffffffffffffff16815260200190815260200160002060016002811061271f5761271e6169de565b5b01600082825461272f9190616615565b9250508190555080603060016002811061274c5761274b6169de565b5b01600082825461275c9190616615565b925050819055505b505050565b60095481565b6001602f54146127b4576040517f08c379a00000000000000000000000000000000000000000000000000000000081526004016127ab90616559565b60405180910390fd5b6000602f81905550600083856127ca919061680d565b1480156127e25750600083856127e09190616615565b115b6127eb57600080fd5b6127f3613fc4565b6128436127ff82613e10565b602c548661280d919061680d565b6128179190616615565b61282083613e10565b61283486601754600d54600e546001614424565b61283e9190616615565b6152aa565b60285461284f83613d1c565b61285884613e10565b61286185613ef5565b61286b9190616615565b6128759190616867565b61287f919061666b565b116128bf576040517f08c379a00000000000000000000000000000000000000000000000000000000081526004016128b690616539565b60405180910390fd5b600080600115158415151415612a2b5760008611156128ed576128e38660016140f0565b9150859050612900565b8491506128fd85600060016147cc565b90505b61290f81601b5460195461445e565b603260008573ffffffffffffffffffffffffffffffffffffffff1673ffffffffffffffffffffffffffffffffffffffff16815260200190815260200160002060008015151515815260200190815260200160002060010160008282546129759190616615565b9250508190555081603260008573ffffffffffffffffffffffffffffffffffffffff1673ffffffffffffffffffffffffffffffffffffffff1681526020019081526020016000206000600115151515815260200190815260200160002060020160008282546129e49190616615565b92505081905550601b546129fd82601b5460195461445e565b612a079190616615565b601b819055508060196000828254612a1f9190616615565b92505081905550612b83565b6000861115612a4b57859150612a448660006001614b23565b9050612a5c565b612a56856001614480565b91508490505b612a6b81601c54601a5461445e565b603260008573ffffffffffffffffffffffffffffffffffffffff1673ffffffffffffffffffffffffffffffffffffffff168152602001908152602001600020600060011515151581526020019081526020016000206001016000828254612ad29190616615565b9250508190555081603260008573ffffffffffffffffffffffffffffffffffffffff1673ffffffffffffffffffffffffffffffffffffffff1681526020019081526020016000206000801515151581526020019081526020016000206002016000828254612b409190616615565b92505081905550601c54612b5982601c54601a5461445e565b612b639190616615565b601c8190555080601a6000828254612b7b9190616615565b925050819055505b50506001602f8190555050505050565b6040518060400160405280600681526020017f554e492d5632000000000000000000000000000000000000000000000000000081525081565b60285481565b6001602f5414612c17576040517f08c379a0000000000000000000000000000000000000000000000000000000008152600401612c0e90616559565b60405180910390fd5b6000602f819055506000821480612c2e5750600081145b612c6d576040517f08c379a0000000000000000000000000000000000000000000000000000000008152600401612c6490616459565b60405180910390fd5b6000602660009054906101000a900473ffffffffffffffffffffffffffffffffffffffff1673ffffffffffffffffffffffffffffffffffffffff166370a08231306040518263ffffffff1660e01b8152600401612cca9190616292565b60206040518083038186803b158015612ce257600080fd5b505afa158015612cf6573d6000803e3d6000fd5b505050506040513d601f19601f82011682018060405250810190612d1a9190615ead565b90506000602760009054906101000a900473ffffffffffffffffffffffffffffffffffffffff1673ffffffffffffffffffffffffffffffffffffffff166370a08231306040518263ffffffff1660e01b8152600401612d799190616292565b60206040518083038186803b158015612d9157600080fd5b505afa158015612da5573d6000803e3d6000fd5b505050506040513d601f19601f82011682018060405250810190612dc99190615ead565b9050600060145483612ddb9190616867565b9050600060135483612ded9190616867565b90506000821180612dfe5750600081115b612e3d576040517f08c379a0000000000000000000000000000000000000000000000000000000008152600401612e3490616439565b60405180910390fd5b6000861115612ebb57612e89602760009054906101000a900473ffffffffffffffffffffffffffffffffffffffff1688612e7989856000614b23565b84612e849190616867565b615120565b612eb6602660009054906101000a900473ffffffffffffffffffffffffffffffffffffffff168888615120565b612fbd565b6000851115612f3957612f07602660009054906101000a900473ffffffffffffffffffffffffffffffffffffffff1688612ef7888660006147cc565b85612f029190616867565b615120565b612f34602760009054906101000a900473ffffffffffffffffffffffffffffffffffffffff168887615120565b612fbc565b6000821115612f7a57612f79602760009054906101000a900473ffffffffffffffffffffffffffffffffffffffff1688612f748560006140f0565b615120565b5b6000811115612fbb57612fba602660009054906101000a900473ffffffffffffffffffffffffffffffffffffffff1688612fb5846000614480565b615120565b5b5b5b505050506001602f81905550505050565b60105481565b6000612fe1338484613b88565b6001905092915050565b60245481565b602760009054906101000a900473ffffffffffffffffffffffffffffffffffffffff1681565b6001602f541461305c576040517f08c379a000000000000000000000000000000000000000000000000000000000815260040161305390616559565b60405180910390fd5b6000602f8190555061314f602660009054906101000a900473ffffffffffffffffffffffffffffffffffffffff168261314a601454602660009054906101000a900473ffffffffffffffffffffffffffffffffffffffff1673ffffffffffffffffffffffffffffffffffffffff166370a08231306040518263ffffffff1660e01b81526004016130ec9190616292565b60206040518083038186803b15801561310457600080fd5b505afa158015613118573d6000803e3d6000fd5b505050506040513d601f19601f8201168201806040525081019061313c9190615ead565b613b2f90919063ffffffff16565b615120565b61323a602760009054906101000a900473ffffffffffffffffffffffffffffffffffffffff1682613235601354602760009054906101000a900473ffffffffffffffffffffffffffffffffffffffff1673ffffffffffffffffffffffffffffffffffffffff166370a08231306040518263ffffffff1660e01b81526004016131d79190616292565b60206040518083038186803b1580156131ef57600080fd5b505afa158015613203573d6000803e3d6000fd5b505050506040513d601f19601f820116820180604052508101906132279190615ead565b613b2f90919063ffffffff16565b615120565b6001602f8190555050565b6001602f541461328a576040517f08c379a000000000000000000000000000000000000000000000000000000000815260040161328190616559565b60405180910390fd5b6000602f8190555061329b82613d1c565b6132a483613e10565b6132ad84613ef5565b6132b79190616615565b1115806133075750602a546132cb83613e10565b6132d5919061680d565b6132de83613d1c565b6132e784613e10565b6132f085613ef5565b6132fa9190616615565b6133049190616867565b11155b613346576040517f08c379a000000000000000000000000000000000000000000000000000000000815260040161333d90616479565b60405180910390fd5b6133d3602660009054906101000a900473ffffffffffffffffffffffffffffffffffffffff1682602b54603360008773ffffffffffffffffffffffffffffffffffffffff1673ffffffffffffffffffffffffffffffffffffffff1681526020019081526020016000206000600281106133c2576133c16169de565b5b01546133ce919061680d565b615120565b613460602760009054906101000a900473ffffffffffffffffffffffffffffffffffffffff1682602b54603360008773ffffffffffffffffffffffffffffffffffffffff1673ffffffffffffffffffffffffffffffffffffffff16815260200190815260200160002060016002811061344f5761344e6169de565b5b015461345b919061680d565b615120565b603360008373ffffffffffffffffffffffffffffffffffffffff1673ffffffffffffffffffffffffffffffffffffffff16815260200190815260200160002060006134ab9190615b7d565b6000603260008473ffffffffffffffffffffffffffffffffffffffff1673ffffffffffffffffffffffffffffffffffffffff168152602001908152602001600020600080151515158152602001908152602001600020600101819055506000603260008473ffffffffffffffffffffffffffffffffffffffff1673ffffffffffffffffffffffffffffffffffffffff1681526020019081526020016000206000600115151515815260200190815260200160002060010181905550613620603260008473ffffffffffffffffffffffffffffffffffffffff1673ffffffffffffffffffffffffffffffffffffffff16815260200190815260200160002060008015151515815260200190815260200160002060020154603260008573ffffffffffffffffffffffffffffffffffffffff1673ffffffffffffffffffffffffffffffffffffffff16815260200190815260200160002060006001151515158152602001908152602001600020600201548461120a565b6001602f819055505050565b602560009054906101000a900473ffffffffffffffffffffffffffffffffffffffff1681565b602060009054906101000a900460ff1681565b60235481565b602560009054906101000a900473ffffffffffffffffffffffffffffffffffffffff1673ffffffffffffffffffffffffffffffffffffffff163373ffffffffffffffffffffffffffffffffffffffff16146136fb576040517f08c379a00000000000000000000000000000000000000000000000000000000081526004016136f290616479565b60405180910390fd5b8060288190555050565b60185481565b4284101561374e576040517f08c379a0000000000000000000000000000000000000000000000000000000008152600401613745906164d9565b60405180910390fd5b60006003547f6e71edae12b1b97f4d1f60370fef10105fa2faae0126114a169c64845d6126c960001b898989600460008e73ffffffffffffffffffffffffffffffffffffffff1673ffffffffffffffffffffffffffffffffffffffff16815260200190815260200160002060008154809291906137ca9061692d565b919050558a6040516020016137e496959493929190616351565b6040516020818303038152906040528051906020012060405160200161380b92919061625b565b60405160208183030381529060405280519060200120905060006001828686866040516000815260200160405260405161384894939291906163b2565b6020604051602081039080840390855afa15801561386a573d6000803e3d6000fd5b505050602060405103519050600073ffffffffffffffffffffffffffffffffffffffff168173ffffffffffffffffffffffffffffffffffffffff16141580156138de57508873ffffffffffffffffffffffffffffffffffffffff168173ffffffffffffffffffffffffffffffffffffffff16145b61391d576040517f08c379a000000000000000000000000000000000000000000000000000000000815260040161391490616499565b60405180910390fd5b613928898989613a44565b505050505050505050565b6002602052816000526040600020602052806000526040600020600091509150505481565b602e5481565b600f5481565b60215481565b60115481565b602b5481565b60085481565b6033602052816000526040600020816002811061399857600080fd5b01600091509150505481565b600d5481565b602560009054906101000a900473ffffffffffffffffffffffffffffffffffffffff1673ffffffffffffffffffffffffffffffffffffffff163373ffffffffffffffffffffffffffffffffffffffff1614613a3a576040517f08c379a0000000000000000000000000000000000000000000000000000000008152600401613a3190616479565b60405180910390fd5b80602a8190555050565b80600260008573ffffffffffffffffffffffffffffffffffffffff1673ffffffffffffffffffffffffffffffffffffffff16815260200190815260200160002060008473ffffffffffffffffffffffffffffffffffffffff1673ffffffffffffffffffffffffffffffffffffffff168152602001908152602001600020819055508173ffffffffffffffffffffffffffffffffffffffff168373ffffffffffffffffffffffffffffffffffffffff167f8c5be1e5ebec7d5bd14f71427d1e84f3dd0314c0f7b2291e5b200ac8c7c3b92583604051613b229190616579565b60405180910390a3505050565b6000828284613b3e9190616867565b9150811115613b82576040517f08c379a0000000000000000000000000000000000000000000000000000000008152600401613b7990616419565b60405180910390fd5b92915050565b613bda81600160008673ffffffffffffffffffffffffffffffffffffffff1673ffffffffffffffffffffffffffffffffffffffff16815260200190815260200160002054613b2f90919063ffffffff16565b600160008573ffffffffffffffffffffffffffffffffffffffff1673ffffffffffffffffffffffffffffffffffffffff16815260200190815260200160002081905550613c6f81600160008573ffffffffffffffffffffffffffffffffffffffff1673ffffffffffffffffffffffffffffffffffffffff168152602001908152602001600020546152c390919063ffffffff16565b600160008473ffffffffffffffffffffffffffffffffffffffff1673ffffffffffffffffffffffffffffffffffffffff168152602001908152602001600020819055508173ffffffffffffffffffffffffffffffffffffffff168373ffffffffffffffffffffffffffffffffffffffff167fddf252ad1be2c89b69c2b068fc378daa952ba7f163c4a11628f55a4df523b3ef83604051613d0f9190616579565b60405180910390a3505050565b6000613d98613d8d603260008573ffffffffffffffffffffffffffffffffffffffff1673ffffffffffffffffffffffffffffffffffffffff16815260200190815260200160002060008015151515815260200190815260200160002060010154601954601754601b54602c54614424565b600d54600e5461445e565b613dff603260008573ffffffffffffffffffffffffffffffffffffffff1673ffffffffffffffffffffffffffffffffffffffff1681526020019081526020016000206000600115151515815260200190815260200160002060010154601a54601c5461445e565b613e099190616615565b9050919050565b6000613e7f603260008473ffffffffffffffffffffffffffffffffffffffff1673ffffffffffffffffffffffffffffffffffffffff1681526020019081526020016000206000600115151515815260200190815260200160002060020154601754600d54600e54602c54614424565b602c54603260008573ffffffffffffffffffffffffffffffffffffffff1673ffffffffffffffffffffffffffffffffffffffff16815260200190815260200160002060008015151515815260200190815260200160002060020154613ee4919061680d565b613eee9190616615565b9050919050565b6000613f5f603360008473ffffffffffffffffffffffffffffffffffffffff1673ffffffffffffffffffffffffffffffffffffffff168152602001908152602001600020600160028110613f4c57613f4b6169de565b5b0154601754600d54600e54602c54614424565b603360008473ffffffffffffffffffffffffffffffffffffffff1673ffffffffffffffffffffffffffffffffffffffff168152602001908152602001600020600060028110613fb157613fb06169de565b5b0154613fbd9190616615565b9050919050565b600080613fcf61531c565b915091506000601f5443613fe39190616867565b905043601f819055506000613fff601754600d54600e5461445e565b905060001515602060009054906101000a900460ff161515141561407c5761403e601954601e54602c546140339190616615565b84602c546001614424565b6019819055508161405a601e5460195484602c54602c54614424565b614064919061680d565b601a546140719190616867565b601a819055506140c9565b61409d601a54601e54602c546140929190616615565b84602c546001614424565b601a819055506140b5601e54601a5484846001614424565b6019546140c29190616867565b6019819055505b83601e8190555082602060006101000a81548160ff02191690831515021790555050505050565b60006001602f5414614137576040517f08c379a000000000000000000000000000000000000000000000000000000000815260040161412e90616559565b60405180910390fd5b6000602f8190555060008390506000600190505b60011515811515141561441457600061416b600954601854602c5461445e565b9050600061418160055460065460075485615482565b905061419282600b54600e54615582565b841115614319576141a8600c5482600d54615582565b856141b39190616615565b94506141c482600b54600e54615582565b846141cf9190616867565b935060011515861515141561420a576141ed600c5482600d54615582565b600f60008282546141fe9190616615565b92505081905550614259565b61421982600b54600e54615582565b6014600082825461422a9190616615565b92505081905550614240600c5482600d54615582565b601360008282546142519190616867565b925050819055505b614268600d54600a548361445e565b600d8190555061427d600e546009548461445e565b600e819055506142a661429960055460065460075486866155b7565b8260095485600a54614424565b601781905550600954600b81905550600a54600c819055506142d2600b54600c546007546017546156ab565b600581905550600554602c5460026142ea919061680d565b6142f49190616867565b600681905550614302614f94565b600954600b81905550600a54600c8190555061440d565b600b54601581905550600c5460168190555061433a84600e54602c5461445e565b600b600082825461434b9190616615565b92505081905550614366600554600654600754600b54615482565b600c8190555061437d601654600c54600d54615582565b856143889190616615565b94506001151586151514156143c5576143a8601654600c54600d54615582565b600f60008282546143b99190616615565b92505081905550614408565b83601460008282546143d79190616615565b925050819055506143ef601654600c54600d54615582565b601360008282546144009190616867565b925050819055505b600092505b505061414b565b50506001602f8190555092915050565b60008183858789614435919061680d565b61443f919061680d565b614449919061666b565b614453919061666b565b905095945050505050565b600081838561446d919061680d565b614477919061666b565b90509392505050565b60006001602f54146144c7576040517f08c379a00000000000000000000000000000000000000000000000000000000081526004016144be90616559565b60405180910390fd5b6000602f8190555060008390506000600190505b6001151581151514156147bc5760006144fb600a54601854602c5461445e565b90506000614511600554600654600754856157e5565b905061452282600c54600d54615582565b8411156146c157600061453e60055460065460075485876155b7565b905061454f600b5483600e54615582565b8661455a9190616615565b955061456b83600c54600d54615582565b856145769190616867565b94506001151587151514156145b157614594600b5483600e54615582565b601060008282546145a59190616615565b92505081905550614600565b6145c0600b5483600e54615582565b601460008282546145d19190616867565b925050819055506145e783600c54600d54615582565b601360008282546145f89190616615565b925050819055505b61460f600d54600a548561445e565b600d81905550614624600e546009548461445e565b600e8190555061464d61464060055460065460075486886155b7565b8460095485600a54614424565b601781905550600954600b81905550600a54600c81905550614679600b54600c546007546017546156ab565b600581905550600554602c546002614691919061680d565b61469b9190616867565b6006819055506146a9614f94565b600954600b81905550600a54600c81905550506147b5565b600b54601581905550600c546016819055506146e284600d54602c5461445e565b600c60008282546146f39190616615565b9250508190555061470e600554600654600754600c546157e5565b600b81905550614725601554600b54600e54615582565b856147309190616615565b945060011515861515141561476d57614750601554600b54600e54615582565b601060008282546147619190616615565b925050819055506147b0565b836013600082825461477f9190616615565b92505081905550614797601554600b54600e54615582565b601460008282546147a89190616867565b925050819055505b600092505b50506144db565b50506001602f8190555092915050565b60006001602f5414614813576040517f08c379a000000000000000000000000000000000000000000000000000000000815260040161480a90616559565b60405180910390fd5b6000602f8190555060008490506000600190505b600115158115151415614af8576000614847600954601854602c5461445e565b9050600061485d60055460065460075485615482565b905061486e600c5482600d54615582565b841115614a0d57600061488a60055460065460075486866155b7565b905061489b83600b54600e54615582565b866148a69190616615565b95506148b7600c5483600d54615582565b856148c29190616867565b94506001151587151514156148fd576148e0600c5483600d54615582565b600f60008282546148f19190616615565b9250508190555061494c565b61490c83600b54600e54615582565b6014600082825461491d9190616615565b92505081905550614933600c5483600d54615582565b601360008282546149449190616867565b925050819055505b61495b600d54600a548461445e565b600d81905550614970600e546009548561445e565b600e8190555061499961498c60055460065460075487876155b7565b8360095486600a54614424565b601781905550600954600b81905550600a54600c819055506149c5600b54600c546007546017546156ab565b600581905550600554602c5460026149dd919061680d565b6149e79190616867565b6006819055506149f5614f94565b600954600b81905550600a54600c8190555050614af1565b600b54601581905550600c54601681905550614a2e84600d54602c5461445e565b600c6000828254614a3f9190616867565b92505081905550614a5a600554600654600754600c546157e5565b600b81905550614a71600b54601554600e54615582565b85614a7c9190616615565b9450600115158615151415614aa95783600f6000828254614a9d9190616615565b92505081905550614aec565b614aba600b54601554600e54615582565b60146000828254614acb9190616615565b925050819055508360136000828254614ae49190616867565b925050819055505b600092505b5050614827565b600015158415151415614b1257828511614b1157600080fd5b5b50506001602f819055509392505050565b60006001602f5414614b6a576040517f08c379a0000000000000000000000000000000000000000000000000000000008152600401614b6190616559565b60405180910390fd5b6000602f8190555060008490506000600190505b600115158115151415614e4f576000614b9e600a54601854602c5461445e565b90506000614bb4600554600654600754856157e5565b9050614bc5600b5482600e54615582565b841115614d64576000614be160055460065460075485876155b7565b9050614bf283600c54600d54615582565b86614bfd9190616615565b9550614c0e600b5483600e54615582565b85614c199190616867565b9450600115158715151415614c5457614c37600b5483600e54615582565b60106000828254614c489190616615565b92505081905550614ca3565b614c6383600c54600d54615582565b60136000828254614c749190616615565b92505081905550614c8a600b5483600e54615582565b60146000828254614c9b9190616867565b925050819055505b614cb2600d54600a548561445e565b600d81905550614cc7600e546009548461445e565b600e81905550614cf0614ce360055460065460075486886155b7565b8460095485600a54614424565b601781905550600954600b81905550600a54600c81905550614d1c600b54600c546007546017546156ab565b600581905550600554602c546002614d34919061680d565b614d3e9190616867565b600681905550614d4c614f94565b600954600b81905550600a54600c8190555050614e48565b600b54601581905550600c54601681905550614d8584600e54602c5461445e565b600b6000828254614d969190616867565b92505081905550614db1600554600654600754600b54615482565b600c81905550614dc8600c54601654600d54615582565b85614dd39190616615565b9450600115158615151415614e00578360106000828254614df49190616615565b92505081905550614e43565b614e11600c54601654600d54615582565b60136000828254614e229190616615565b925050819055508360146000828254614e3b9190616867565b925050819055505b600092505b5050614b7e565b600015158415151415614e6957828511614e6857600080fd5b5b50506001602f819055509392505050565b614e8f816000546152c390919063ffffffff16565b600081905550614ee781600160008573ffffffffffffffffffffffffffffffffffffffff1673ffffffffffffffffffffffffffffffffffffffff168152602001908152602001600020546152c390919063ffffffff16565b600160008473ffffffffffffffffffffffffffffffffffffffff1673ffffffffffffffffffffffffffffffffffffffff168152602001908152602001600020819055508173ffffffffffffffffffffffffffffffffffffffff16600073ffffffffffffffffffffffffffffffffffffffff167fddf252ad1be2c89b69c2b068fc378daa952ba7f163c4a11628f55a4df523b3ef83604051614f889190616579565b60405180910390a35050565b614fb4601454600554600e54601354600654600d546012546011546158e5565b602381905550602c54602354600854614fcd919061680d565b614fd7919061666b565b6007819055506002600754614fec919061666b565b600981905550600954600a81905550602354602481905550565b61505881600160008573ffffffffffffffffffffffffffffffffffffffff1673ffffffffffffffffffffffffffffffffffffffff16815260200190815260200160002054613b2f90919063ffffffff16565b600160008473ffffffffffffffffffffffffffffffffffffffff1673ffffffffffffffffffffffffffffffffffffffff168152602001908152602001600020819055506150b081600054613b2f90919063ffffffff16565b600081905550600073ffffffffffffffffffffffffffffffffffffffff168273ffffffffffffffffffffffffffffffffffffffff167fddf252ad1be2c89b69c2b068fc378daa952ba7f163c4a11628f55a4df523b3ef836040516151149190616579565b60405180910390a35050565b6000808473ffffffffffffffffffffffffffffffffffffffff166040518060400160405280601981526020017f7472616e7366657228616464726573732c75696e74323536290000000000000081525080519060200120858560405160240161518a9291906162f2565b604051602081830303815290604052907bffffffffffffffffffffffffffffffffffffffffffffffffffffffff19166020820180517bffffffffffffffffffffffffffffffffffffffffffffffffffffffff83818316178352505050506040516151f49190616244565b6000604051808303816000865af19150503d8060008114615231576040519150601f19603f3d011682016040523d82523d6000602084013e615236565b606091505b509150915081801561526457506000815114806152635750808060200190518101906152629190615e53565b5b5b6152a3576040517f08c379a000000000000000000000000000000000000000000000000000000000815260040161529a90616519565b60405180910390fd5b5050505050565b60008183116152b957816152bb565b825b905092915050565b60008282846152d29190616615565b9150811015615316576040517f08c379a000000000000000000000000000000000000000000000000000000000815260040161530d906164b9565b60405180910390fd5b92915050565b6000806000615332601454600e54602c5461445e565b90506000615347601354600d54602c5461445e565b905060006153588383600754615945565b9050600081602c54600261536c919061680d565b6153769190616867565b9050600061539761538c848460075489896155b7565b600d54600e5461445e565b905060006153c06153b5600554600654600754600b54600c546155b7565b600d54600e5461445e565b90508181111561540e5760006153dd600f546013546022546159c9565b9050806116806153ee848687615582565b6153f8919061666b565b6154029190616615565b9850600097505061544e565b60006154216010546014546022546159c9565b905080611680615432858587615582565b61543c919061666b565b6154469190616615565b985060019750505b6021546107808961545f919061680d565b111561547857610780602154615475919061666b565b97505b5050505050509091565b600081846008615492919061680d565b61549c919061680d565b615535670de0b6b3a76400008586876154b5919061680d565b6154bf919061680d565b60006154cb9190616867565b858860106154d9919061680d565b6154e3919061680d565b6154ed919061680d565b6154f7919061680d565b600285868a6004615508919061680d565b615512919061680d565b61551c919061680d565b61552691906166ef565b6155309190616867565b615a16565b8384886004615544919061680d565b61554e919061680d565b615558919061680d565b60006155649190616867565b61556e9190616615565b615578919061666b565b9050949350505050565b600081670de0b6b3a7640000848661559a9190616867565b6155a4919061680d565b6155ae919061666b565b90509392505050565b6000818485866155c7919061680d565b6155d1919061680d565b6155db919061680d565b828385868a60046155ec919061680d565b6155f6919061680d565b615600919061680d565b61560a919061680d565b615614919061680d565b61561e9190616615565b670de0b6b3a764000084868788615635919061680d565b61563f919061680d565b615649919061680d565b848587888b600461565a919061680d565b615664919061680d565b61566e919061680d565b615678919061680d565b615682919061680d565b61568c9190616615565b615696919061680d565b6156a0919061666b565b905095945050505050565b600081670de0b6b3a76400006156c19190616615565b8485878860046156d1919061680d565b6156db919061680d565b6156e5919061680d565b6156ef919061680d565b6156f9919061680d565b670de0b6b3a76400008386868788615711919061680d565b61571b919061680d565b615725919061680d565b61572f919061680d565b615739919061680d565b6ec097ce7bc90715b34b9f100000000087868788615757919061680d565b615761919061680d565b61576b919061680d565b615775919061680d565b6ec097ce7bc90715b34b9f100000000087888a8b6008615795919061680d565b61579f919061680d565b6157a9919061680d565b6157b3919061680d565b6157bd919061680d565b6157c79190616615565b6157d19190616867565b6157db919061666b565b9050949350505050565b6000818560086157f5919061680d565b6157ff919061680d565b615898670de0b6b3a7640000858687615818919061680d565b615822919061680d565b600061582e9190616867565b8589601061583c919061680d565b615846919061680d565b615850919061680d565b61585a919061680d565b6002858689600461586b919061680d565b615875919061680d565b61587f919061680d565b61588991906166ef565b6158939190616867565b615a16565b83848760046158a7919061680d565b6158b1919061680d565b6158bb919061680d565b60006158c79190616867565b6158d19190616615565b6158db919061666b565b9050949350505050565b60006159376158f8848a8a868a8a615a90565b760a70c3c40a64e6c51999090b65f67d924000000000000061591e8c8c8c8c8c8c615a90565b615928919061680d565b615932919061666b565b615aec565b905098975050505050505050565b600082846159539190616867565b670de0b6b3a7640000846002615969919061680d565b8587600487888961597a919061680d565b615984919061680d565b61598e919061666b565b615998919061666b565b6159a2919061666b565b6159ac9190616867565b6159b6919061680d565b6159c0919061666b565b90509392505050565b60008161e10085856159db9190616615565b670de0b6b3a7640000876159ef919061680d565b6159f9919061666b565b615a03919061666b565b615a0d9190616615565b90509392505050565b60006003821115615a7d5781905060006001600284615a35919061666b565b615a3f9190616615565b90505b81811015615a77578091506002818285615a5c919061666b565b615a669190616615565b615a70919061666b565b9050615a42565b50615a8b565b60008214615a8a57600190505b5b919050565b60008387838587615aa1919061680d565b615aab919061680d565b87898b615ab8919061680d565b615ac2919061680d565b615acc9190616615565b615ad6919061680d565b615ae0919061680d565b90509695505050505050565b60006008821115615b6a5781905060006001600384615b0b919061666b565b615b159190616615565b90505b81811015615b64578091506003816002615b32919061680d565b8283615b3e919061680d565b85615b49919061666b565b615b539190616615565b615b5d919061666b565b9050615b18565b50615b78565b60008214615b7757600190505b5b919050565b506000815560010160009055565b600081359050615b9a81616c1c565b92915050565b600081359050615baf81616c33565b92915050565b600081519050615bc481616c33565b92915050565b600081359050615bd981616c4a565b92915050565b600081359050615bee81616c61565b92915050565b600081519050615c0381616c61565b92915050565b600081359050615c1881616c78565b92915050565b600060208284031215615c3457615c33616a0d565b5b6000615c4284828501615b8b565b91505092915050565b60008060408385031215615c6257615c61616a0d565b5b6000615c7085828601615b8b565b9250506020615c8185828601615b8b565b9150509250929050565b600080600060608486031215615ca457615ca3616a0d565b5b6000615cb286828701615b8b565b9350506020615cc386828701615b8b565b9250506040615cd486828701615bdf565b9150509250925092565b600080600080600080600060e0888a031215615cfd57615cfc616a0d565b5b6000615d0b8a828b01615b8b565b9750506020615d1c8a828b01615b8b565b9650506040615d2d8a828b01615bdf565b9550506060615d3e8a828b01615bdf565b9450506080615d4f8a828b01615c09565b93505060a0615d608a828b01615bca565b92505060c0615d718a828b01615bca565b91505092959891949750929550565b60008060408385031215615d9757615d96616a0d565b5b6000615da585828601615b8b565b9250506020615db685828601615ba0565b9150509250929050565b60008060408385031215615dd757615dd6616a0d565b5b6000615de585828601615b8b565b9250506020615df685828601615bdf565b9150509250929050565b600080600060608486031215615e1957615e18616a0d565b5b6000615e2786828701615b8b565b9350506020615e3886828701615bdf565b9250506040615e4986828701615bdf565b9150509250925092565b600060208284031215615e6957615e68616a0d565b5b6000615e7784828501615bb5565b91505092915050565b600060208284031215615e9657615e95616a0d565b5b6000615ea484828501615bdf565b91505092915050565b600060208284031215615ec357615ec2616a0d565b5b6000615ed184828501615bf4565b91505092915050565b60008060408385031215615ef157615ef0616a0d565b5b6000615eff85828601615bdf565b9250506020615f1085828601615b8b565b9150509250929050565b600080600060608486031215615f3357615f32616a0d565b5b6000615f4186828701615bdf565b9350506020615f5286828701615bdf565b9250506040615f6386828701615b8b565b9150509250925092565b60008060008060808587031215615f8757615f86616a0d565b5b6000615f9587828801615bdf565b9450506020615fa687828801615bdf565b9350506040615fb787828801615ba0565b9250506060615fc887828801615b8b565b91505092959194509250565b615fdd8161689b565b82525050565b615fec816168ad565b82525050565b615ffb816168b9565b82525050565b61601261600d826168b9565b616976565b82525050565b6000616023826165d8565b61602d81856165ee565b935061603d8185602086016168fa565b80840191505092915050565b6000616054826165e3565b61605e81856165f9565b935061606e8185602086016168fa565b61607781616a12565b840191505092915050565b600061608f6015836165f9565b915061609a82616a30565b602082019050919050565b60006160b26020836165f9565b91506160bd82616a59565b602082019050919050565b60006160d56012836165f9565b91506160e082616a82565b602082019050919050565b60006160f86010836165f9565b915061610382616aab565b602082019050919050565b600061611b601c836165f9565b915061612682616ad4565b602082019050919050565b600061613e60028361660a565b915061614982616afd565b600282019050919050565b60006161616014836165f9565b915061616c82616b26565b602082019050919050565b60006161846012836165f9565b915061618f82616b4f565b602082019050919050565b60006161a76009836165f9565b91506161b282616b78565b602082019050919050565b60006161ca600f836165f9565b91506161d582616ba1565b602082019050919050565b60006161ed6018836165f9565b91506161f882616bca565b602082019050919050565b60006162106006836165f9565b915061621b82616bf3565b602082019050919050565b61622f816168e3565b82525050565b61623e816168ed565b82525050565b60006162508284616018565b915081905092915050565b600061626682616131565b91506162728285616001565b6020820191506162828284616001565b6020820191508190509392505050565b60006020820190506162a76000830184615fd4565b92915050565b60006080820190506162c26000830187615fd4565b6162cf6020830186615fe3565b6162dc6040830185616226565b6162e96060830184616226565b95945050505050565b60006040820190506163076000830185615fd4565b6163146020830184616226565b9392505050565b60006020820190506163306000830184615fe3565b92915050565b600060208201905061634b6000830184615ff2565b92915050565b600060c0820190506163666000830189615ff2565b6163736020830188615fd4565b6163806040830187615fd4565b61638d6060830186616226565b61639a6080830185616226565b6163a760a0830184616226565b979650505050505050565b60006080820190506163c76000830187615ff2565b6163d46020830186616235565b6163e16040830185615ff2565b6163ee6060830184615ff2565b95945050505050565b600060208201905081810360008301526164118184616049565b905092915050565b6000602082019050818103600083015261643281616082565b9050919050565b60006020820190508181036000830152616452816160a5565b9050919050565b60006020820190508181036000830152616472816160c8565b9050919050565b60006020820190508181036000830152616492816160eb565b9050919050565b600060208201905081810360008301526164b28161610e565b9050919050565b600060208201905081810360008301526164d281616154565b9050919050565b600060208201905081810360008301526164f281616177565b9050919050565b600060208201905081810360008301526165128161619a565b9050919050565b60006020820190508181036000830152616532816161bd565b9050919050565b60006020820190508181036000830152616552816161e0565b9050919050565b6000602082019050818103600083015261657281616203565b9050919050565b600060208201905061658e6000830184616226565b92915050565b60006040820190506165a96000830185616226565b6165b66020830184616226565b9392505050565b60006020820190506165d26000830184616235565b92915050565b600081519050919050565b600081519050919050565b600081905092915050565b600082825260208201905092915050565b600081905092915050565b6000616620826168e3565b915061662b836168e3565b9250827fffffffffffffffffffffffffffffffffffffffffffffffffffffffffffffffff038211156166605761665f616980565b5b828201905092915050565b6000616676826168e3565b9150616681836168e3565b925082616691576166906169af565b5b828204905092915050565b6000808291508390505b60018511156166e6578086048111156166c2576166c1616980565b5b60018516156166d15780820291505b80810290506166df85616a23565b94506166a6565b94509492505050565b60006166fa826168e3565b9150616705836168ed565b92506167327fffffffffffffffffffffffffffffffffffffffffffffffffffffffffffffffff848461673a565b905092915050565b60008261674a5760019050616806565b816167585760009050616806565b816001811461676e5760028114616778576167a7565b6001915050616806565b60ff84111561678a57616789616980565b5b8360020a9150848211156167a1576167a0616980565b5b50616806565b5060208310610133831016604e8410600b84101617156167dc5782820a9050838111156167d7576167d6616980565b5b616806565b6167e9848484600161669c565b92509050818404811115616800576167ff616980565b5b81810290505b9392505050565b6000616818826168e3565b9150616823836168e3565b9250817fffffffffffffffffffffffffffffffffffffffffffffffffffffffffffffffff048311821515161561685c5761685b616980565b5b828202905092915050565b6000616872826168e3565b915061687d836168e3565b9250828210156168905761688f616980565b5b828203905092915050565b60006168a6826168c3565b9050919050565b60008115159050919050565b6000819050919050565b600073ffffffffffffffffffffffffffffffffffffffff82169050919050565b6000819050919050565b600060ff82169050919050565b60005b838110156169185780820151818401526020810190506168fd565b83811115616927576000848401525b50505050565b6000616938826168e3565b91507fffffffffffffffffffffffffffffffffffffffffffffffffffffffffffffffff82141561696b5761696a616980565b5b600182019050919050565b6000819050919050565b7f4e487b7100000000000000000000000000000000000000000000000000000000600052601160045260246000fd5b7f4e487b7100000000000000000000000000000000000000000000000000000000600052601260045260246000fd5b7f4e487b7100000000000000000000000000000000000000000000000000000000600052603260045260246000fd5b600080fd5b6000601f19601f8301169050919050565b60008160011c9050919050565b7f64732d6d6174682d7375622d756e646572666c6f770000000000000000000000600082015250565b7f51696c696e3a20494e53554646494349454e545f494e5055545f414d4f554e54600082015250565b7f51496c696e3a20494e56414c49445f4f55540000000000000000000000000000600082015250565b7f51696c696e3a20464f5242494444454e00000000000000000000000000000000600082015250565b7f556e697377617056323a20494e56414c49445f5349474e415455524500000000600082015250565b7f1901000000000000000000000000000000000000000000000000000000000000600082015250565b7f64732d6d6174682d6164642d6f766572666c6f77000000000000000000000000600082015250565b7f556e697377617056323a20455850495245440000000000000000000000000000600082015250565b7f464f5242494444454e0000000000000000000000000000000000000000000000600082015250565b7f5452414e534645525f4641494c45440000000000000000000000000000000000600082015250565b7f51696c696e3a204e4f5420454e4f554748204d415247494e0000000000000000600082015250565b7f4c4f434b45440000000000000000000000000000000000000000000000000000600082015250565b616c258161689b565b8114616c3057600080fd5b50565b616c3c816168ad565b8114616c4757600080fd5b50565b616c53816168b9565b8114616c5e57600080fd5b50565b616c6a816168e3565b8114616c7557600080fd5b50565b616c81816168ed565b8114616c8c57600080fd5b5056fea26469706673582212209f397ffbc29e70b8602398df953ca44bd8ee20b89007f175f2d1d7984e3641a264736f6c63430008070033",
			"opcodes": "PUSH1 0x80 PUSH1 0x40 MSTORE PUSH8 0xDE0B6B3A7640000 PUSH1 0x2C SSTORE PUSH1 0x1 PUSH1 0x2F SSTORE CALLVALUE DUP1 ISZERO PUSH3 0x22 JUMPI PUSH1 0x0 DUP1 REVERT JUMPDEST POP PUSH1 0x0 CHAINID SWAP1 POP PUSH32 0x8B73C3C69BB8FE3D512ECC4CF759CC79239F7B179B0FFACAA9A75D522B39400F PUSH1 0x40 MLOAD DUP1 PUSH1 0x40 ADD PUSH1 0x40 MSTORE DUP1 PUSH1 0xA DUP2 MSTORE PUSH1 0x20 ADD PUSH32 0x556E697377617020563200000000000000000000000000000000000000000000 DUP2 MSTORE POP DUP1 MLOAD SWAP1 PUSH1 0x20 ADD KECCAK256 PUSH1 0x40 MLOAD DUP1 PUSH1 0x40 ADD PUSH1 0x40 MSTORE DUP1 PUSH1 0x1 DUP2 MSTORE PUSH1 0x20 ADD PUSH32 0x3100000000000000000000000000000000000000000000000000000000000000 DUP2 MSTORE POP DUP1 MLOAD SWAP1 PUSH1 0x20 ADD KECCAK256 DUP4 ADDRESS PUSH1 0x40 MLOAD PUSH1 0x20 ADD PUSH3 0xDB SWAP6 SWAP5 SWAP4 SWAP3 SWAP2 SWAP1 PUSH3 0x172 JUMP JUMPDEST PUSH1 0x40 MLOAD PUSH1 0x20 DUP2 DUP4 SUB SUB DUP2 MSTORE SWAP1 PUSH1 0x40 MSTORE DUP1 MLOAD SWAP1 PUSH1 0x20 ADD KECCAK256 PUSH1 0x3 DUP2 SWAP1 SSTORE POP POP CALLER PUSH1 0x25 PUSH1 0x0 PUSH2 0x100 EXP DUP2 SLOAD DUP2 PUSH20 0xFFFFFFFFFFFFFFFFFFFFFFFFFFFFFFFFFFFFFFFF MUL NOT AND SWAP1 DUP4 PUSH20 0xFFFFFFFFFFFFFFFFFFFFFFFFFFFFFFFFFFFFFFFF AND MUL OR SWAP1 SSTORE POP PUSH3 0x217 JUMP JUMPDEST PUSH3 0x14A DUP2 PUSH3 0x1CF JUMP JUMPDEST DUP3 MSTORE POP POP JUMP JUMPDEST PUSH3 0x15B DUP2 PUSH3 0x1E3 JUMP JUMPDEST DUP3 MSTORE POP POP JUMP JUMPDEST PUSH3 0x16C DUP2 PUSH3 0x20D JUMP JUMPDEST DUP3 MSTORE POP POP JUMP JUMPDEST PUSH1 0x0 PUSH1 0xA0 DUP3 ADD SWAP1 POP PUSH3 0x189 PUSH1 0x0 DUP4 ADD DUP9 PUSH3 0x150 JUMP JUMPDEST PUSH3 0x198 PUSH1 0x20 DUP4 ADD DUP8 PUSH3 0x150 JUMP JUMPDEST PUSH3 0x1A7 PUSH1 0x40 DUP4 ADD DUP7 PUSH3 0x150 JUMP JUMPDEST PUSH3 0x1B6 PUSH1 0x60 DUP4 ADD DUP6 PUSH3 0x161 JUMP JUMPDEST PUSH3 0x1C5 PUSH1 0x80 DUP4 ADD DUP5 PUSH3 0x13F JUMP JUMPDEST SWAP7 SWAP6 POP POP POP POP POP POP JUMP JUMPDEST PUSH1 0x0 PUSH3 0x1DC DUP3 PUSH3 0x1ED JUMP JUMPDEST SWAP1 POP SWAP2 SWAP1 POP JUMP JUMPDEST PUSH1 0x0 DUP2 SWAP1 POP SWAP2 SWAP1 POP JUMP JUMPDEST PUSH1 0x0 PUSH20 0xFFFFFFFFFFFFFFFFFFFFFFFFFFFFFFFFFFFFFFFF DUP3 AND SWAP1 POP SWAP2 SWAP1 POP JUMP JUMPDEST PUSH1 0x0 DUP2 SWAP1 POP SWAP2 SWAP1 POP JUMP JUMPDEST PUSH2 0x6CC5 DUP1 PUSH3 0x227 PUSH1 0x0 CODECOPY PUSH1 0x0 RETURN INVALID PUSH1 0x80 PUSH1 0x40 MSTORE CALLVALUE DUP1 ISZERO PUSH2 0x10 JUMPI PUSH1 0x0 DUP1 REVERT JUMPDEST POP PUSH1 0x4 CALLDATASIZE LT PUSH2 0x411 JUMPI PUSH1 0x0 CALLDATALOAD PUSH1 0xE0 SHR DUP1 PUSH4 0x7E1431BE GT PUSH2 0x220 JUMPI DUP1 PUSH4 0xBC25CF77 GT PUSH2 0x130 JUMPI DUP1 PUSH4 0xDDCA3F43 GT PUSH2 0xB8 JUMPI DUP1 PUSH4 0xF70F4394 GT PUSH2 0x87 JUMPI DUP1 PUSH4 0xF70F4394 EQ PUSH2 0xC56 JUMPI DUP1 PUSH4 0xF738C74E EQ PUSH2 0xC74 JUMPI DUP1 PUSH4 0xFC69B80F EQ PUSH2 0xC92 JUMPI DUP1 PUSH4 0xFE18F261 EQ PUSH2 0xCC2 JUMPI DUP1 PUSH4 0xFF2F169E EQ PUSH2 0xCE0 JUMPI PUSH2 0x411 JUMP JUMPDEST DUP1 PUSH4 0xDDCA3F43 EQ PUSH2 0xBDE JUMPI DUP1 PUSH4 0xDF0AB2C2 EQ PUSH2 0xBFC JUMPI DUP1 PUSH4 0xE19A1474 EQ PUSH2 0xC1A JUMPI DUP1 PUSH4 0xEA1797B0 EQ PUSH2 0xC38 JUMPI PUSH2 0x411 JUMP JUMPDEST DUP1 PUSH4 0xC9E525DF GT PUSH2 0xFF JUMPI DUP1 PUSH4 0xC9E525DF EQ PUSH2 0xB3A JUMPI DUP1 PUSH4 0xCFE38A5E EQ PUSH2 0xB58 JUMPI DUP1 PUSH4 0xD44022DB EQ PUSH2 0xB74 JUMPI DUP1 PUSH4 0xD505ACCF EQ PUSH2 0xB92 JUMPI DUP1 PUSH4 0xDD62ED3E EQ PUSH2 0xBAE JUMPI PUSH2 0x411 JUMP JUMPDEST DUP1 PUSH4 0xBC25CF77 EQ PUSH2 0xAC6 JUMPI DUP1 PUSH4 0xC3D81B21 EQ PUSH2 0xAE2 JUMPI DUP1 PUSH4 0xC45A0155 EQ PUSH2 0xAFE JUMPI DUP1 PUSH4 0xC7D44932 EQ PUSH2 0xB1C JUMPI PUSH2 0x411 JUMP JUMPDEST DUP1 PUSH4 0x8E361389 GT PUSH2 0x1B3 JUMPI DUP1 PUSH4 0x9F1D0F59 GT PUSH2 0x182 JUMPI DUP1 PUSH4 0x9F1D0F59 EQ PUSH2 0xA20 JUMPI DUP1 PUSH4 0xA5AA65B9 EQ PUSH2 0xA3C JUMPI DUP1 PUSH4 0xA9059CBB EQ PUSH2 0xA5A JUMPI DUP1 PUSH4 0xACD4A7C2 EQ PUSH2 0xA8A JUMPI DUP1 PUSH4 0xB7D19FC4 EQ PUSH2 0xAA8 JUMPI PUSH2 0x411 JUMP JUMPDEST DUP1 PUSH4 0x8E361389 EQ PUSH2 0x9AA JUMPI DUP1 PUSH4 0x9076AE86 EQ PUSH2 0x9C8 JUMPI DUP1 PUSH4 0x95D89B41 EQ PUSH2 0x9E4 JUMPI DUP1 PUSH4 0x9A36E122 EQ PUSH2 0xA02 JUMPI PUSH2 0x411 JUMP JUMPDEST DUP1 PUSH4 0x83DFE5FD GT PUSH2 0x1EF JUMPI DUP1 PUSH4 0x83DFE5FD EQ PUSH2 0x934 JUMPI DUP1 PUSH4 0x84009686 EQ PUSH2 0x952 JUMPI DUP1 PUSH4 0x8BC1A32F EQ PUSH2 0x970 JUMPI DUP1 PUSH4 0x8CF825E7 EQ PUSH2 0x98E JUMPI PUSH2 0x411 JUMP JUMPDEST DUP1 PUSH4 0x7E1431BE EQ PUSH2 0x895 JUMPI DUP1 PUSH4 0x7ECEBE00 EQ PUSH2 0x8C8 JUMPI DUP1 PUSH4 0x7ED6281B EQ PUSH2 0x8F8 JUMPI DUP1 PUSH4 0x80416C02 EQ PUSH2 0x916 JUMPI PUSH2 0x411 JUMP JUMPDEST DUP1 PUSH4 0x313CE567 GT PUSH2 0x326 JUMPI DUP1 PUSH4 0x5595D459 GT PUSH2 0x2AE JUMPI DUP1 PUSH4 0x6665FF11 GT PUSH2 0x27D JUMPI DUP1 PUSH4 0x6665FF11 EQ PUSH2 0x7DA JUMPI DUP1 PUSH4 0x6B3545AA EQ PUSH2 0x80B JUMPI DUP1 PUSH4 0x70A08231 EQ PUSH2 0x829 JUMPI DUP1 PUSH4 0x79DBF8EA EQ PUSH2 0x859 JUMPI DUP1 PUSH4 0x7E11939A EQ PUSH2 0x877 JUMPI PUSH2 0x411 JUMP JUMPDEST DUP1 PUSH4 0x5595D459 EQ PUSH2 0x750 JUMPI DUP1 PUSH4 0x5E287D86 EQ PUSH2 0x76E JUMPI DUP1 PUSH4 0x6126DEEF EQ PUSH2 0x78C JUMPI DUP1 PUSH4 0x6607E7E8 EQ PUSH2 0x7BC JUMPI PUSH2 0x411 JUMP JUMPDEST DUP1 PUSH4 0x36AF2F9B GT PUSH2 0x2F5 JUMPI DUP1 PUSH4 0x36AF2F9B EQ PUSH2 0x6BE JUMPI DUP1 PUSH4 0x3C6FE2F4 EQ PUSH2 0x6DC JUMPI DUP1 PUSH4 0x480C4F7E EQ PUSH2 0x6FA JUMPI DUP1 PUSH4 0x485CC955 EQ PUSH2 0x718 JUMPI DUP1 PUSH4 0x4C324E6A EQ PUSH2 0x734 JUMPI PUSH2 0x411 JUMP JUMPDEST DUP1 PUSH4 0x313CE567 EQ PUSH2 0x648 JUMPI DUP1 PUSH4 0x32E7C5BF EQ PUSH2 0x666 JUMPI DUP1 PUSH4 0x35714521 EQ PUSH2 0x684 JUMPI DUP1 PUSH4 0x3644E515 EQ PUSH2 0x6A0 JUMPI PUSH2 0x411 JUMP JUMPDEST DUP1 PUSH4 0x18160DDD GT PUSH2 0x3A9 JUMPI DUP1 PUSH4 0x225C2C50 GT PUSH2 0x378 JUMPI DUP1 PUSH4 0x225C2C50 EQ PUSH2 0x5A0 JUMPI DUP1 PUSH4 0x23B872DD EQ PUSH2 0x5BE JUMPI DUP1 PUSH4 0x23ED16B6 EQ PUSH2 0x5EE JUMPI DUP1 PUSH4 0x2DD6C254 EQ PUSH2 0x60C JUMPI DUP1 PUSH4 0x30ADF81F EQ PUSH2 0x62A JUMPI PUSH2 0x411 JUMP JUMPDEST DUP1 PUSH4 0x18160DDD EQ PUSH2 0x516 JUMPI DUP1 PUSH4 0x18DB9681 EQ PUSH2 0x534 JUMPI DUP1 PUSH4 0x1CBDFFD1 EQ PUSH2 0x552 JUMPI DUP1 PUSH4 0x2190219E EQ PUSH2 0x582 JUMPI PUSH2 0x411 JUMP JUMPDEST DUP1 PUSH4 0xBFA68D8 GT PUSH2 0x3E5 JUMPI DUP1 PUSH4 0xBFA68D8 EQ PUSH2 0x4A0 JUMPI DUP1 PUSH4 0xF529BA2 EQ PUSH2 0x4BC JUMPI DUP1 PUSH4 0x139860EE EQ PUSH2 0x4DA JUMPI DUP1 PUSH4 0x16DC165B EQ PUSH2 0x4F8 JUMPI PUSH2 0x411 JUMP JUMPDEST DUP1 PUSH3 0xB52645 EQ PUSH2 0x416 JUMPI DUP1 PUSH4 0x6FDDE03 EQ PUSH2 0x434 JUMPI DUP1 PUSH4 0x95EA7B3 EQ PUSH2 0x452 JUMPI DUP1 PUSH4 0xB197615 EQ PUSH2 0x482 JUMPI JUMPDEST PUSH1 0x0 DUP1 REVERT JUMPDEST PUSH2 0x41E PUSH2 0xCFC JUMP JUMPDEST PUSH1 0x40 MLOAD PUSH2 0x42B SWAP2 SWAP1 PUSH2 0x6579 JUMP JUMPDEST PUSH1 0x40 MLOAD DUP1 SWAP2 SUB SWAP1 RETURN JUMPDEST PUSH2 0x43C PUSH2 0xD02 JUMP JUMPDEST PUSH1 0x40 MLOAD PUSH2 0x449 SWAP2 SWAP1 PUSH2 0x63F7 JUMP JUMPDEST PUSH1 0x40 MLOAD DUP1 SWAP2 SUB SWAP1 RETURN JUMPDEST PUSH2 0x46C PUSH1 0x4 DUP1 CALLDATASIZE SUB DUP2 ADD SWAP1 PUSH2 0x467 SWAP2 SWAP1 PUSH2 0x5DC0 JUMP JUMPDEST PUSH2 0xD3B JUMP JUMPDEST PUSH1 0x40 MLOAD PUSH2 0x479 SWAP2 SWAP1 PUSH2 0x631B JUMP JUMPDEST PUSH1 0x40 MLOAD DUP1 SWAP2 SUB SWAP1 RETURN JUMPDEST PUSH2 0x48A PUSH2 0xD52 JUMP JUMPDEST PUSH1 0x40 MLOAD PUSH2 0x497 SWAP2 SWAP1 PUSH2 0x6579 JUMP JUMPDEST PUSH1 0x40 MLOAD DUP1 SWAP2 SUB SWAP1 RETURN JUMPDEST PUSH2 0x4BA PUSH1 0x4 DUP1 CALLDATASIZE SUB DUP2 ADD SWAP1 PUSH2 0x4B5 SWAP2 SWAP1 PUSH2 0x5E80 JUMP JUMPDEST PUSH2 0xD58 JUMP JUMPDEST STOP JUMPDEST PUSH2 0x4C4 PUSH2 0xDF2 JUMP JUMPDEST PUSH1 0x40 MLOAD PUSH2 0x4D1 SWAP2 SWAP1 PUSH2 0x6579 JUMP JUMPDEST PUSH1 0x40 MLOAD DUP1 SWAP2 SUB SWAP1 RETURN JUMPDEST PUSH2 0x4E2 PUSH2 0xDF8 JUMP JUMPDEST PUSH1 0x40 MLOAD PUSH2 0x4EF SWAP2 SWAP1 PUSH2 0x6579 JUMP JUMPDEST PUSH1 0x40 MLOAD DUP1 SWAP2 SUB SWAP1 RETURN JUMPDEST PUSH2 0x500 PUSH2 0xDFE JUMP JUMPDEST PUSH1 0x40 MLOAD PUSH2 0x50D SWAP2 SWAP1 PUSH2 0x6292 JUMP JUMPDEST PUSH1 0x40 MLOAD DUP1 SWAP2 SUB SWAP1 RETURN JUMPDEST PUSH2 0x51E PUSH2 0xE24 JUMP JUMPDEST PUSH1 0x40 MLOAD PUSH2 0x52B SWAP2 SWAP1 PUSH2 0x6579 JUMP JUMPDEST PUSH1 0x40 MLOAD DUP1 SWAP2 SUB SWAP1 RETURN JUMPDEST PUSH2 0x53C PUSH2 0xE2A JUMP JUMPDEST PUSH1 0x40 MLOAD PUSH2 0x549 SWAP2 SWAP1 PUSH2 0x6579 JUMP JUMPDEST PUSH1 0x40 MLOAD DUP1 SWAP2 SUB SWAP1 RETURN JUMPDEST PUSH2 0x56C PUSH1 0x4 DUP1 CALLDATASIZE SUB DUP2 ADD SWAP1 PUSH2 0x567 SWAP2 SWAP1 PUSH2 0x5E80 JUMP JUMPDEST PUSH2 0xE30 JUMP JUMPDEST PUSH1 0x40 MLOAD PUSH2 0x579 SWAP2 SWAP1 PUSH2 0x6579 JUMP JUMPDEST PUSH1 0x40 MLOAD DUP1 SWAP2 SUB SWAP1 RETURN JUMPDEST PUSH2 0x58A PUSH2 0xE4B JUMP JUMPDEST PUSH1 0x40 MLOAD PUSH2 0x597 SWAP2 SWAP1 PUSH2 0x6579 JUMP JUMPDEST PUSH1 0x40 MLOAD DUP1 SWAP2 SUB SWAP1 RETURN JUMPDEST PUSH2 0x5A8 PUSH2 0xE51 JUMP JUMPDEST PUSH1 0x40 MLOAD PUSH2 0x5B5 SWAP2 SWAP1 PUSH2 0x6579 JUMP JUMPDEST PUSH1 0x40 MLOAD DUP1 SWAP2 SUB SWAP1 RETURN JUMPDEST PUSH2 0x5D8 PUSH1 0x4 DUP1 CALLDATASIZE SUB DUP2 ADD SWAP1 PUSH2 0x5D3 SWAP2 SWAP1 PUSH2 0x5C8B JUMP JUMPDEST PUSH2 0xE57 JUMP JUMPDEST PUSH1 0x40 MLOAD PUSH2 0x5E5 SWAP2 SWAP1 PUSH2 0x631B JUMP JUMPDEST PUSH1 0x40 MLOAD DUP1 SWAP2 SUB SWAP1 RETURN JUMPDEST PUSH2 0x5F6 PUSH2 0x1004 JUMP JUMPDEST PUSH1 0x40 MLOAD PUSH2 0x603 SWAP2 SWAP1 PUSH2 0x6579 JUMP JUMPDEST PUSH1 0x40 MLOAD DUP1 SWAP2 SUB SWAP1 RETURN JUMPDEST PUSH2 0x614 PUSH2 0x100A JUMP JUMPDEST PUSH1 0x40 MLOAD PUSH2 0x621 SWAP2 SWAP1 PUSH2 0x6579 JUMP JUMPDEST PUSH1 0x40 MLOAD DUP1 SWAP2 SUB SWAP1 RETURN JUMPDEST PUSH2 0x632 PUSH2 0x1010 JUMP JUMPDEST PUSH1 0x40 MLOAD PUSH2 0x63F SWAP2 SWAP1 PUSH2 0x6336 JUMP JUMPDEST PUSH1 0x40 MLOAD DUP1 SWAP2 SUB SWAP1 RETURN JUMPDEST PUSH2 0x650 PUSH2 0x1037 JUMP JUMPDEST PUSH1 0x40 MLOAD PUSH2 0x65D SWAP2 SWAP1 PUSH2 0x65BD JUMP JUMPDEST PUSH1 0x40 MLOAD DUP1 SWAP2 SUB SWAP1 RETURN JUMPDEST PUSH2 0x66E PUSH2 0x103C JUMP JUMPDEST PUSH1 0x40 MLOAD PUSH2 0x67B SWAP2 SWAP1 PUSH2 0x6579 JUMP JUMPDEST PUSH1 0x40 MLOAD DUP1 SWAP2 SUB SWAP1 RETURN JUMPDEST PUSH2 0x69E PUSH1 0x4 DUP1 CALLDATASIZE SUB DUP2 ADD SWAP1 PUSH2 0x699 SWAP2 SWAP1 PUSH2 0x5E80 JUMP JUMPDEST PUSH2 0x1042 JUMP JUMPDEST STOP JUMPDEST PUSH2 0x6A8 PUSH2 0x10DC JUMP JUMPDEST PUSH1 0x40 MLOAD PUSH2 0x6B5 SWAP2 SWAP1 PUSH2 0x6336 JUMP JUMPDEST PUSH1 0x40 MLOAD DUP1 SWAP2 SUB SWAP1 RETURN JUMPDEST PUSH2 0x6C6 PUSH2 0x10E2 JUMP JUMPDEST PUSH1 0x40 MLOAD PUSH2 0x6D3 SWAP2 SWAP1 PUSH2 0x6579 JUMP JUMPDEST PUSH1 0x40 MLOAD DUP1 SWAP2 SUB SWAP1 RETURN JUMPDEST PUSH2 0x6E4 PUSH2 0x10E8 JUMP JUMPDEST PUSH1 0x40 MLOAD PUSH2 0x6F1 SWAP2 SWAP1 PUSH2 0x6579 JUMP JUMPDEST PUSH1 0x40 MLOAD DUP1 SWAP2 SUB SWAP1 RETURN JUMPDEST PUSH2 0x702 PUSH2 0x10EE JUMP JUMPDEST PUSH1 0x40 MLOAD PUSH2 0x70F SWAP2 SWAP1 PUSH2 0x6579 JUMP JUMPDEST PUSH1 0x40 MLOAD DUP1 SWAP2 SUB SWAP1 RETURN JUMPDEST PUSH2 0x732 PUSH1 0x4 DUP1 CALLDATASIZE SUB DUP2 ADD SWAP1 PUSH2 0x72D SWAP2 SWAP1 PUSH2 0x5C4B JUMP JUMPDEST PUSH2 0x10F4 JUMP JUMPDEST STOP JUMPDEST PUSH2 0x74E PUSH1 0x4 DUP1 CALLDATASIZE SUB DUP2 ADD SWAP1 PUSH2 0x749 SWAP2 SWAP1 PUSH2 0x5F1A JUMP JUMPDEST PUSH2 0x120A JUMP JUMPDEST STOP JUMPDEST PUSH2 0x758 PUSH2 0x211C JUMP JUMPDEST PUSH1 0x40 MLOAD PUSH2 0x765 SWAP2 SWAP1 PUSH2 0x6579 JUMP JUMPDEST PUSH1 0x40 MLOAD DUP1 SWAP2 SUB SWAP1 RETURN JUMPDEST PUSH2 0x776 PUSH2 0x2122 JUMP JUMPDEST PUSH1 0x40 MLOAD PUSH2 0x783 SWAP2 SWAP1 PUSH2 0x6579 JUMP JUMPDEST PUSH1 0x40 MLOAD DUP1 SWAP2 SUB SWAP1 RETURN JUMPDEST PUSH2 0x7A6 PUSH1 0x4 DUP1 CALLDATASIZE SUB DUP2 ADD SWAP1 PUSH2 0x7A1 SWAP2 SWAP1 PUSH2 0x5F1A JUMP JUMPDEST PUSH2 0x2128 JUMP JUMPDEST PUSH1 0x40 MLOAD PUSH2 0x7B3 SWAP2 SWAP1 PUSH2 0x6579 JUMP JUMPDEST PUSH1 0x40 MLOAD DUP1 SWAP2 SUB SWAP1 RETURN JUMPDEST PUSH2 0x7C4 PUSH2 0x2229 JUMP JUMPDEST PUSH1 0x40 MLOAD PUSH2 0x7D1 SWAP2 SWAP1 PUSH2 0x6579 JUMP JUMPDEST PUSH1 0x40 MLOAD DUP1 SWAP2 SUB SWAP1 RETURN JUMPDEST PUSH2 0x7F4 PUSH1 0x4 DUP1 CALLDATASIZE SUB DUP2 ADD SWAP1 PUSH2 0x7EF SWAP2 SWAP1 PUSH2 0x5EDA JUMP JUMPDEST PUSH2 0x222F JUMP JUMPDEST PUSH1 0x40 MLOAD PUSH2 0x802 SWAP3 SWAP2 SWAP1 PUSH2 0x6594 JUMP JUMPDEST PUSH1 0x40 MLOAD DUP1 SWAP2 SUB SWAP1 RETURN JUMPDEST PUSH2 0x813 PUSH2 0x239C JUMP JUMPDEST PUSH1 0x40 MLOAD PUSH2 0x820 SWAP2 SWAP1 PUSH2 0x6579 JUMP JUMPDEST PUSH1 0x40 MLOAD DUP1 SWAP2 SUB SWAP1 RETURN JUMPDEST PUSH2 0x843 PUSH1 0x4 DUP1 CALLDATASIZE SUB DUP2 ADD SWAP1 PUSH2 0x83E SWAP2 SWAP1 PUSH2 0x5C1E JUMP JUMPDEST PUSH2 0x23A2 JUMP JUMPDEST PUSH1 0x40 MLOAD PUSH2 0x850 SWAP2 SWAP1 PUSH2 0x6579 JUMP JUMPDEST PUSH1 0x40 MLOAD DUP1 SWAP2 SUB SWAP1 RETURN JUMPDEST PUSH2 0x861 PUSH2 0x23BA JUMP JUMPDEST PUSH1 0x40 MLOAD PUSH2 0x86E SWAP2 SWAP1 PUSH2 0x6579 JUMP JUMPDEST PUSH1 0x40 MLOAD DUP1 SWAP2 SUB SWAP1 RETURN JUMPDEST PUSH2 0x87F PUSH2 0x23C0 JUMP JUMPDEST PUSH1 0x40 MLOAD PUSH2 0x88C SWAP2 SWAP1 PUSH2 0x6579 JUMP JUMPDEST PUSH1 0x40 MLOAD DUP1 SWAP2 SUB SWAP1 RETURN JUMPDEST PUSH2 0x8AF PUSH1 0x4 DUP1 CALLDATASIZE SUB DUP2 ADD SWAP1 PUSH2 0x8AA SWAP2 SWAP1 PUSH2 0x5D80 JUMP JUMPDEST PUSH2 0x23C6 JUMP JUMPDEST PUSH1 0x40 MLOAD PUSH2 0x8BF SWAP5 SWAP4 SWAP3 SWAP2 SWAP1 PUSH2 0x62AD JUMP JUMPDEST PUSH1 0x40 MLOAD DUP1 SWAP2 SUB SWAP1 RETURN JUMPDEST PUSH2 0x8E2 PUSH1 0x4 DUP1 CALLDATASIZE SUB DUP2 ADD SWAP1 PUSH2 0x8DD SWAP2 SWAP1 PUSH2 0x5C1E JUMP JUMPDEST PUSH2 0x2430 JUMP JUMPDEST PUSH1 0x40 MLOAD PUSH2 0x8EF SWAP2 SWAP1 PUSH2 0x6579 JUMP JUMPDEST PUSH1 0x40 MLOAD DUP1 SWAP2 SUB SWAP1 RETURN JUMPDEST PUSH2 0x900 PUSH2 0x2448 JUMP JUMPDEST PUSH1 0x40 MLOAD PUSH2 0x90D SWAP2 SWAP1 PUSH2 0x6579 JUMP JUMPDEST PUSH1 0x40 MLOAD DUP1 SWAP2 SUB SWAP1 RETURN JUMPDEST PUSH2 0x91E PUSH2 0x244E JUMP JUMPDEST PUSH1 0x40 MLOAD PUSH2 0x92B SWAP2 SWAP1 PUSH2 0x6579 JUMP JUMPDEST PUSH1 0x40 MLOAD DUP1 SWAP2 SUB SWAP1 RETURN JUMPDEST PUSH2 0x93C PUSH2 0x2454 JUMP JUMPDEST PUSH1 0x40 MLOAD PUSH2 0x949 SWAP2 SWAP1 PUSH2 0x6579 JUMP JUMPDEST PUSH1 0x40 MLOAD DUP1 SWAP2 SUB SWAP1 RETURN JUMPDEST PUSH2 0x95A PUSH2 0x245A JUMP JUMPDEST PUSH1 0x40 MLOAD PUSH2 0x967 SWAP2 SWAP1 PUSH2 0x6579 JUMP JUMPDEST PUSH1 0x40 MLOAD DUP1 SWAP2 SUB SWAP1 RETURN JUMPDEST PUSH2 0x978 PUSH2 0x2460 JUMP JUMPDEST PUSH1 0x40 MLOAD PUSH2 0x985 SWAP2 SWAP1 PUSH2 0x6579 JUMP JUMPDEST PUSH1 0x40 MLOAD DUP1 SWAP2 SUB SWAP1 RETURN JUMPDEST PUSH2 0x9A8 PUSH1 0x4 DUP1 CALLDATASIZE SUB DUP2 ADD SWAP1 PUSH2 0x9A3 SWAP2 SWAP1 PUSH2 0x5C4B JUMP JUMPDEST PUSH2 0x2466 JUMP JUMPDEST STOP JUMPDEST PUSH2 0x9B2 PUSH2 0x2769 JUMP JUMPDEST PUSH1 0x40 MLOAD PUSH2 0x9BF SWAP2 SWAP1 PUSH2 0x6579 JUMP JUMPDEST PUSH1 0x40 MLOAD DUP1 SWAP2 SUB SWAP1 RETURN JUMPDEST PUSH2 0x9E2 PUSH1 0x4 DUP1 CALLDATASIZE SUB DUP2 ADD SWAP1 PUSH2 0x9DD SWAP2 SWAP1 PUSH2 0x5F6D JUMP JUMPDEST PUSH2 0x276F JUMP JUMPDEST STOP JUMPDEST PUSH2 0x9EC PUSH2 0x2B93 JUMP JUMPDEST PUSH1 0x40 MLOAD PUSH2 0x9F9 SWAP2 SWAP1 PUSH2 0x63F7 JUMP JUMPDEST PUSH1 0x40 MLOAD DUP1 SWAP2 SUB SWAP1 RETURN JUMPDEST PUSH2 0xA0A PUSH2 0x2BCC JUMP JUMPDEST PUSH1 0x40 MLOAD PUSH2 0xA17 SWAP2 SWAP1 PUSH2 0x6579 JUMP JUMPDEST PUSH1 0x40 MLOAD DUP1 SWAP2 SUB SWAP1 RETURN JUMPDEST PUSH2 0xA3A PUSH1 0x4 DUP1 CALLDATASIZE SUB DUP2 ADD SWAP1 PUSH2 0xA35 SWAP2 SWAP1 PUSH2 0x5E00 JUMP JUMPDEST PUSH2 0x2BD2 JUMP JUMPDEST STOP JUMPDEST PUSH2 0xA44 PUSH2 0x2FCE JUMP JUMPDEST PUSH1 0x40 MLOAD PUSH2 0xA51 SWAP2 SWAP1 PUSH2 0x6579 JUMP JUMPDEST PUSH1 0x40 MLOAD DUP1 SWAP2 SUB SWAP1 RETURN JUMPDEST PUSH2 0xA74 PUSH1 0x4 DUP1 CALLDATASIZE SUB DUP2 ADD SWAP1 PUSH2 0xA6F SWAP2 SWAP1 PUSH2 0x5DC0 JUMP JUMPDEST PUSH2 0x2FD4 JUMP JUMPDEST PUSH1 0x40 MLOAD PUSH2 0xA81 SWAP2 SWAP1 PUSH2 0x631B JUMP JUMPDEST PUSH1 0x40 MLOAD DUP1 SWAP2 SUB SWAP1 RETURN JUMPDEST PUSH2 0xA92 PUSH2 0x2FEB JUMP JUMPDEST PUSH1 0x40 MLOAD PUSH2 0xA9F SWAP2 SWAP1 PUSH2 0x6579 JUMP JUMPDEST PUSH1 0x40 MLOAD DUP1 SWAP2 SUB SWAP1 RETURN JUMPDEST PUSH2 0xAB0 PUSH2 0x2FF1 JUMP JUMPDEST PUSH1 0x40 MLOAD PUSH2 0xABD SWAP2 SWAP1 PUSH2 0x6292 JUMP JUMPDEST PUSH1 0x40 MLOAD DUP1 SWAP2 SUB SWAP1 RETURN JUMPDEST PUSH2 0xAE0 PUSH1 0x4 DUP1 CALLDATASIZE SUB DUP2 ADD SWAP1 PUSH2 0xADB SWAP2 SWAP1 PUSH2 0x5C1E JUMP JUMPDEST PUSH2 0x3017 JUMP JUMPDEST STOP JUMPDEST PUSH2 0xAFC PUSH1 0x4 DUP1 CALLDATASIZE SUB DUP2 ADD SWAP1 PUSH2 0xAF7 SWAP2 SWAP1 PUSH2 0x5C4B JUMP JUMPDEST PUSH2 0x3245 JUMP JUMPDEST STOP JUMPDEST PUSH2 0xB06 PUSH2 0x362C JUMP JUMPDEST PUSH1 0x40 MLOAD PUSH2 0xB13 SWAP2 SWAP1 PUSH2 0x6292 JUMP JUMPDEST PUSH1 0x40 MLOAD DUP1 SWAP2 SUB SWAP1 RETURN JUMPDEST PUSH2 0xB24 PUSH2 0x3652 JUMP JUMPDEST PUSH1 0x40 MLOAD PUSH2 0xB31 SWAP2 SWAP1 PUSH2 0x631B JUMP JUMPDEST PUSH1 0x40 MLOAD DUP1 SWAP2 SUB SWAP1 RETURN JUMPDEST PUSH2 0xB42 PUSH2 0x3665 JUMP JUMPDEST PUSH1 0x40 MLOAD PUSH2 0xB4F SWAP2 SWAP1 PUSH2 0x6579 JUMP JUMPDEST PUSH1 0x40 MLOAD DUP1 SWAP2 SUB SWAP1 RETURN JUMPDEST PUSH2 0xB72 PUSH1 0x4 DUP1 CALLDATASIZE SUB DUP2 ADD SWAP1 PUSH2 0xB6D SWAP2 SWAP1 PUSH2 0x5E80 JUMP JUMPDEST PUSH2 0x366B JUMP JUMPDEST STOP JUMPDEST PUSH2 0xB7C PUSH2 0x3705 JUMP JUMPDEST PUSH1 0x40 MLOAD PUSH2 0xB89 SWAP2 SWAP1 PUSH2 0x6579 JUMP JUMPDEST PUSH1 0x40 MLOAD DUP1 SWAP2 SUB SWAP1 RETURN JUMPDEST PUSH2 0xBAC PUSH1 0x4 DUP1 CALLDATASIZE SUB DUP2 ADD SWAP1 PUSH2 0xBA7 SWAP2 SWAP1 PUSH2 0x5CDE JUMP JUMPDEST PUSH2 0x370B JUMP JUMPDEST STOP JUMPDEST PUSH2 0xBC8 PUSH1 0x4 DUP1 CALLDATASIZE SUB DUP2 ADD SWAP1 PUSH2 0xBC3 SWAP2 SWAP1 PUSH2 0x5C4B JUMP JUMPDEST PUSH2 0x3933 JUMP JUMPDEST PUSH1 0x40 MLOAD PUSH2 0xBD5 SWAP2 SWAP1 PUSH2 0x6579 JUMP JUMPDEST PUSH1 0x40 MLOAD DUP1 SWAP2 SUB SWAP1 RETURN JUMPDEST PUSH2 0xBE6 PUSH2 0x3958 JUMP JUMPDEST PUSH1 0x40 MLOAD PUSH2 0xBF3 SWAP2 SWAP1 PUSH2 0x6579 JUMP JUMPDEST PUSH1 0x40 MLOAD DUP1 SWAP2 SUB SWAP1 RETURN JUMPDEST PUSH2 0xC04 PUSH2 0x395E JUMP JUMPDEST PUSH1 0x40 MLOAD PUSH2 0xC11 SWAP2 SWAP1 PUSH2 0x6579 JUMP JUMPDEST PUSH1 0x40 MLOAD DUP1 SWAP2 SUB SWAP1 RETURN JUMPDEST PUSH2 0xC22 PUSH2 0x3964 JUMP JUMPDEST PUSH1 0x40 MLOAD PUSH2 0xC2F SWAP2 SWAP1 PUSH2 0x6579 JUMP JUMPDEST PUSH1 0x40 MLOAD DUP1 SWAP2 SUB SWAP1 RETURN JUMPDEST PUSH2 0xC40 PUSH2 0x396A JUMP JUMPDEST PUSH1 0x40 MLOAD PUSH2 0xC4D SWAP2 SWAP1 PUSH2 0x6579 JUMP JUMPDEST PUSH1 0x40 MLOAD DUP1 SWAP2 SUB SWAP1 RETURN JUMPDEST PUSH2 0xC5E PUSH2 0x3970 JUMP JUMPDEST PUSH1 0x40 MLOAD PUSH2 0xC6B SWAP2 SWAP1 PUSH2 0x6579 JUMP JUMPDEST PUSH1 0x40 MLOAD DUP1 SWAP2 SUB SWAP1 RETURN JUMPDEST PUSH2 0xC7C PUSH2 0x3976 JUMP JUMPDEST PUSH1 0x40 MLOAD PUSH2 0xC89 SWAP2 SWAP1 PUSH2 0x6579 JUMP JUMPDEST PUSH1 0x40 MLOAD DUP1 SWAP2 SUB SWAP1 RETURN JUMPDEST PUSH2 0xCAC PUSH1 0x4 DUP1 CALLDATASIZE SUB DUP2 ADD SWAP1 PUSH2 0xCA7 SWAP2 SWAP1 PUSH2 0x5DC0 JUMP JUMPDEST PUSH2 0x397C JUMP JUMPDEST PUSH1 0x40 MLOAD PUSH2 0xCB9 SWAP2 SWAP1 PUSH2 0x6579 JUMP JUMPDEST PUSH1 0x40 MLOAD DUP1 SWAP2 SUB SWAP1 RETURN JUMPDEST PUSH2 0xCCA PUSH2 0x39A4 JUMP JUMPDEST PUSH1 0x40 MLOAD PUSH2 0xCD7 SWAP2 SWAP1 PUSH2 0x6579 JUMP JUMPDEST PUSH1 0x40 MLOAD DUP1 SWAP2 SUB SWAP1 RETURN JUMPDEST PUSH2 0xCFA PUSH1 0x4 DUP1 CALLDATASIZE SUB DUP2 ADD SWAP1 PUSH2 0xCF5 SWAP2 SWAP1 PUSH2 0x5E80 JUMP JUMPDEST PUSH2 0x39AA JUMP JUMPDEST STOP JUMPDEST PUSH1 0xE SLOAD DUP2 JUMP JUMPDEST PUSH1 0x40 MLOAD DUP1 PUSH1 0x40 ADD PUSH1 0x40 MSTORE DUP1 PUSH1 0xA DUP2 MSTORE PUSH1 0x20 ADD PUSH32 0x556E697377617020563200000000000000000000000000000000000000000000 DUP2 MSTORE POP DUP2 JUMP JUMPDEST PUSH1 0x0 PUSH2 0xD48 CALLER DUP5 DUP5 PUSH2 0x3A44 JUMP JUMPDEST PUSH1 0x1 SWAP1 POP SWAP3 SWAP2 POP POP JUMP JUMPDEST PUSH1 0x15 SLOAD DUP2 JUMP JUMPDEST PUSH1 0x25 PUSH1 0x0 SWAP1 SLOAD SWAP1 PUSH2 0x100 EXP SWAP1 DIV PUSH20 0xFFFFFFFFFFFFFFFFFFFFFFFFFFFFFFFFFFFFFFFF AND PUSH20 0xFFFFFFFFFFFFFFFFFFFFFFFFFFFFFFFFFFFFFFFF AND CALLER PUSH20 0xFFFFFFFFFFFFFFFFFFFFFFFFFFFFFFFFFFFFFFFF AND EQ PUSH2 0xDE8 JUMPI PUSH1 0x40 MLOAD PUSH32 0x8C379A000000000000000000000000000000000000000000000000000000000 DUP2 MSTORE PUSH1 0x4 ADD PUSH2 0xDDF SWAP1 PUSH2 0x6479 JUMP JUMPDEST PUSH1 0x40 MLOAD DUP1 SWAP2 SUB SWAP1 REVERT JUMPDEST DUP1 PUSH1 0x21 DUP2 SWAP1 SSTORE POP POP JUMP JUMPDEST PUSH1 0x7 SLOAD DUP2 JUMP JUMPDEST PUSH1 0x1C SLOAD DUP2 JUMP JUMPDEST PUSH1 0x26 PUSH1 0x0 SWAP1 SLOAD SWAP1 PUSH2 0x100 EXP SWAP1 DIV PUSH20 0xFFFFFFFFFFFFFFFFFFFFFFFFFFFFFFFFFFFFFFFF AND DUP2 JUMP JUMPDEST PUSH1 0x0 SLOAD DUP2 JUMP JUMPDEST PUSH1 0x1D SLOAD DUP2 JUMP JUMPDEST PUSH1 0x30 DUP2 PUSH1 0x2 DUP2 LT PUSH2 0xE40 JUMPI PUSH1 0x0 DUP1 REVERT JUMPDEST ADD PUSH1 0x0 SWAP2 POP SWAP1 POP SLOAD DUP2 JUMP JUMPDEST PUSH1 0x19 SLOAD DUP2 JUMP JUMPDEST PUSH1 0x1A SLOAD DUP2 JUMP JUMPDEST PUSH1 0x0 PUSH2 0x101 PUSH1 0x2 PUSH1 0x0 DUP7 PUSH20 0xFFFFFFFFFFFFFFFFFFFFFFFFFFFFFFFFFFFFFFFF AND PUSH20 0xFFFFFFFFFFFFFFFFFFFFFFFFFFFFFFFFFFFFFFFF AND DUP2 MSTORE PUSH1 0x20 ADD SWAP1 DUP2 MSTORE PUSH1 0x20 ADD PUSH1 0x0 KECCAK256 PUSH1 0x0 CALLER PUSH20 0xFFFFFFFFFFFFFFFFFFFFFFFFFFFFFFFFFFFFFFFF AND PUSH20 0xFFFFFFFFFFFFFFFFFFFFFFFFFFFFFFFFFFFFFFFF AND DUP2 MSTORE PUSH1 0x20 ADD SWAP1 DUP2 MSTORE PUSH1 0x20 ADD PUSH1 0x0 KECCAK256 SLOAD EQ PUSH2 0xFEE JUMPI PUSH2 0xF6D DUP3 PUSH1 0x2 PUSH1 0x0 DUP8 PUSH20 0xFFFFFFFFFFFFFFFFFFFFFFFFFFFFFFFFFFFFFFFF AND PUSH20 0xFFFFFFFFFFFFFFFFFFFFFFFFFFFFFFFFFFFFFFFF AND DUP2 MSTORE PUSH1 0x20 ADD SWAP1 DUP2 MSTORE PUSH1 0x20 ADD PUSH1 0x0 KECCAK256 PUSH1 0x0 CALLER PUSH20 0xFFFFFFFFFFFFFFFFFFFFFFFFFFFFFFFFFFFFFFFF AND PUSH20 0xFFFFFFFFFFFFFFFFFFFFFFFFFFFFFFFFFFFFFFFF AND DUP2 MSTORE PUSH1 0x20 ADD SWAP1 DUP2 MSTORE PUSH1 0x20 ADD PUSH1 0x0 KECCAK256 SLOAD PUSH2 0x3B2F SWAP1 SWAP2 SWAP1 PUSH4 0xFFFFFFFF AND JUMP JUMPDEST PUSH1 0x2 PUSH1 0x0 DUP7 PUSH20 0xFFFFFFFFFFFFFFFFFFFFFFFFFFFFFFFFFFFFFFFF AND PUSH20 0xFFFFFFFFFFFFFFFFFFFFFFFFFFFFFFFFFFFFFFFF AND DUP2 MSTORE PUSH1 0x20 ADD SWAP1 DUP2 MSTORE PUSH1 0x20 ADD PUSH1 0x0 KECCAK256 PUSH1 0x0 CALLER PUSH20 0xFFFFFFFFFFFFFFFFFFFFFFFFFFFFFFFFFFFFFFFF AND PUSH20 0xFFFFFFFFFFFFFFFFFFFFFFFFFFFFFFFFFFFFFFFF AND DUP2 MSTORE PUSH1 0x20 ADD SWAP1 DUP2 MSTORE PUSH1 0x20 ADD PUSH1 0x0 KECCAK256 DUP2 SWAP1 SSTORE POP JUMPDEST PUSH2 0xFF9 DUP5 DUP5 DUP5 PUSH2 0x3B88 JUMP JUMPDEST PUSH1 0x1 SWAP1 POP SWAP4 SWAP3 POP POP POP JUMP JUMPDEST PUSH1 0x1E SLOAD DUP2 JUMP JUMPDEST PUSH1 0x29 SLOAD DUP2 JUMP JUMPDEST PUSH32 0x6E71EDAE12B1B97F4D1F60370FEF10105FA2FAAE0126114A169C64845D6126C9 PUSH1 0x0 SHL DUP2 JUMP JUMPDEST PUSH1 0x12 DUP2 JUMP JUMPDEST PUSH1 0x5 SLOAD DUP2 JUMP JUMPDEST PUSH1 0x25 PUSH1 0x0 SWAP1 SLOAD SWAP1 PUSH2 0x100 EXP SWAP1 DIV PUSH20 0xFFFFFFFFFFFFFFFFFFFFFFFFFFFFFFFFFFFFFFFF AND PUSH20 0xFFFFFFFFFFFFFFFFFFFFFFFFFFFFFFFFFFFFFFFF AND CALLER PUSH20 0xFFFFFFFFFFFFFFFFFFFFFFFFFFFFFFFFFFFFFFFF AND EQ PUSH2 0x10D2 JUMPI PUSH1 0x40 MLOAD PUSH32 0x8C379A000000000000000000000000000000000000000000000000000000000 DUP2 MSTORE PUSH1 0x4 ADD PUSH2 0x10C9 SWAP1 PUSH2 0x6479 JUMP JUMPDEST PUSH1 0x40 MLOAD DUP1 SWAP2 SUB SWAP1 REVERT JUMPDEST DUP1 PUSH1 0x1D DUP2 SWAP1 SSTORE POP POP JUMP JUMPDEST PUSH1 0x3 SLOAD DUP2 JUMP JUMPDEST PUSH1 0xC SLOAD DUP2 JUMP JUMPDEST PUSH1 0x13 SLOAD DUP2 JUMP JUMPDEST PUSH1 0x17 SLOAD DUP2 JUMP JUMPDEST PUSH1 0x25 PUSH1 0x0 SWAP1 SLOAD SWAP1 PUSH2 0x100 EXP SWAP1 DIV PUSH20 0xFFFFFFFFFFFFFFFFFFFFFFFFFFFFFFFFFFFFFFFF AND PUSH20 0xFFFFFFFFFFFFFFFFFFFFFFFFFFFFFFFFFFFFFFFF AND CALLER PUSH20 0xFFFFFFFFFFFFFFFFFFFFFFFFFFFFFFFFFFFFFFFF AND EQ PUSH2 0x1184 JUMPI PUSH1 0x40 MLOAD PUSH32 0x8C379A000000000000000000000000000000000000000000000000000000000 DUP2 MSTORE PUSH1 0x4 ADD PUSH2 0x117B SWAP1 PUSH2 0x64F9 JUMP JUMPDEST PUSH1 0x40 MLOAD DUP1 SWAP2 SUB SWAP1 REVERT JUMPDEST DUP2 PUSH1 0x26 PUSH1 0x0 PUSH2 0x100 EXP DUP2 SLOAD DUP2 PUSH20 0xFFFFFFFFFFFFFFFFFFFFFFFFFFFFFFFFFFFFFFFF MUL NOT AND SWAP1 DUP4 PUSH20 0xFFFFFFFFFFFFFFFFFFFFFFFFFFFFFFFFFFFFFFFF AND MUL OR SWAP1 SSTORE POP DUP1 PUSH1 0x27 PUSH1 0x0 PUSH2 0x100 EXP DUP2 SLOAD DUP2 PUSH20 0xFFFFFFFFFFFFFFFFFFFFFFFFFFFFFFFFFFFFFFFF MUL NOT AND SWAP1 DUP4 PUSH20 0xFFFFFFFFFFFFFFFFFFFFFFFFFFFFFFFFFFFFFFFF AND MUL OR SWAP1 SSTORE POP POP POP JUMP JUMPDEST PUSH1 0x1 PUSH1 0x2F SLOAD EQ PUSH2 0x124F JUMPI PUSH1 0x40 MLOAD PUSH32 0x8C379A000000000000000000000000000000000000000000000000000000000 DUP2 MSTORE PUSH1 0x4 ADD PUSH2 0x1246 SWAP1 PUSH2 0x6559 JUMP JUMPDEST PUSH1 0x40 MLOAD DUP1 SWAP2 SUB SWAP1 REVERT JUMPDEST PUSH1 0x0 PUSH1 0x2F DUP2 SWAP1 SSTORE POP PUSH1 0x0 DUP3 DUP5 PUSH2 0x1265 SWAP2 SWAP1 PUSH2 0x680D JUMP JUMPDEST EQ DUP1 ISZERO PUSH2 0x127D JUMPI POP PUSH1 0x0 DUP3 DUP5 PUSH2 0x127B SWAP2 SWAP1 PUSH2 0x6615 JUMP JUMPDEST GT JUMPDEST DUP1 ISZERO PUSH2 0x12AB JUMPI POP PUSH2 0x128D DUP2 PUSH2 0x3D1C JUMP JUMPDEST PUSH2 0x1296 DUP3 PUSH2 0x3E10 JUMP JUMPDEST PUSH2 0x129F DUP4 PUSH2 0x3EF5 JUMP JUMPDEST PUSH2 0x12A9 SWAP2 SWAP1 PUSH2 0x6615 JUMP JUMPDEST GT JUMPDEST DUP1 ISZERO PUSH2 0x130E JUMPI POP PUSH1 0x32 PUSH1 0x0 DUP3 PUSH20 0xFFFFFFFFFFFFFFFFFFFFFFFFFFFFFFFFFFFFFFFF AND PUSH20 0xFFFFFFFFFFFFFFFFFFFFFFFFFFFFFFFFFFFFFFFF AND DUP2 MSTORE PUSH1 0x20 ADD SWAP1 DUP2 MSTORE PUSH1 0x20 ADD PUSH1 0x0 KECCAK256 PUSH1 0x0 DUP1 ISZERO ISZERO ISZERO ISZERO DUP2 MSTORE PUSH1 0x20 ADD SWAP1 DUP2 MSTORE PUSH1 0x20 ADD PUSH1 0x0 KECCAK256 PUSH1 0x2 ADD SLOAD DUP4 GT ISZERO JUMPDEST DUP1 ISZERO PUSH2 0x1372 JUMPI POP PUSH1 0x32 PUSH1 0x0 DUP3 PUSH20 0xFFFFFFFFFFFFFFFFFFFFFFFFFFFFFFFFFFFFFFFF AND PUSH20 0xFFFFFFFFFFFFFFFFFFFFFFFFFFFFFFFFFFFFFFFF AND DUP2 MSTORE PUSH1 0x20 ADD SWAP1 DUP2 MSTORE PUSH1 0x20 ADD PUSH1 0x0 KECCAK256 PUSH1 0x0 PUSH1 0x1 ISZERO ISZERO ISZERO ISZERO DUP2 MSTORE PUSH1 0x20 ADD SWAP1 DUP2 MSTORE PUSH1 0x20 ADD PUSH1 0x0 KECCAK256 PUSH1 0x2 ADD SLOAD DUP3 GT ISZERO JUMPDEST PUSH2 0x137B JUMPI PUSH1 0x0 DUP1 REVERT JUMPDEST PUSH2 0x1383 PUSH2 0x3FC4 JUMP JUMPDEST PUSH1 0x0 DUP4 GT ISZERO PUSH2 0x1AB5 JUMPI PUSH1 0x0 PUSH2 0x1399 DUP5 PUSH1 0x1 PUSH2 0x40F0 JUMP JUMPDEST SWAP1 POP PUSH1 0x0 PUSH2 0x145D DUP6 PUSH1 0x32 PUSH1 0x0 DUP7 PUSH20 0xFFFFFFFFFFFFFFFFFFFFFFFFFFFFFFFFFFFFFFFF AND PUSH20 0xFFFFFFFFFFFFFFFFFFFFFFFFFFFFFFFFFFFFFFFF AND DUP2 MSTORE PUSH1 0x20 ADD SWAP1 DUP2 MSTORE PUSH1 0x20 ADD PUSH1 0x0 KECCAK256 PUSH1 0x0 PUSH1 0x1 ISZERO ISZERO ISZERO ISZERO DUP2 MSTORE PUSH1 0x20 ADD SWAP1 DUP2 MSTORE PUSH1 0x20 ADD PUSH1 0x0 KECCAK256 PUSH1 0x1 ADD SLOAD PUSH1 0x1A SLOAD PUSH1 0x1C SLOAD PUSH1 0x32 PUSH1 0x0 DUP10 PUSH20 0xFFFFFFFFFFFFFFFFFFFFFFFFFFFFFFFFFFFFFFFF AND PUSH20 0xFFFFFFFFFFFFFFFFFFFFFFFFFFFFFFFFFFFFFFFF AND DUP2 MSTORE PUSH1 0x20 ADD SWAP1 DUP2 MSTORE PUSH1 0x20 ADD PUSH1 0x0 KECCAK256 PUSH1 0x0 DUP1 ISZERO ISZERO ISZERO ISZERO DUP2 MSTORE PUSH1 0x20 ADD SWAP1 DUP2 MSTORE PUSH1 0x20 ADD PUSH1 0x0 KECCAK256 PUSH1 0x2 ADD SLOAD PUSH2 0x4424 JUMP JUMPDEST SWAP1 POP DUP5 PUSH1 0x32 PUSH1 0x0 DUP6 PUSH20 0xFFFFFFFFFFFFFFFFFFFFFFFFFFFFFFFFFFFFFFFF AND PUSH20 0xFFFFFFFFFFFFFFFFFFFFFFFFFFFFFFFFFFFFFFFF AND DUP2 MSTORE PUSH1 0x20 ADD SWAP1 DUP2 MSTORE PUSH1 0x20 ADD PUSH1 0x0 KECCAK256 PUSH1 0x0 DUP1 ISZERO ISZERO ISZERO ISZERO DUP2 MSTORE PUSH1 0x20 ADD SWAP1 DUP2 MSTORE PUSH1 0x20 ADD PUSH1 0x0 KECCAK256 PUSH1 0x2 ADD PUSH1 0x0 DUP3 DUP3 SLOAD PUSH2 0x14C6 SWAP2 SWAP1 PUSH2 0x6867 JUMP JUMPDEST SWAP3 POP POP DUP2 SWAP1 SSTORE POP DUP1 PUSH1 0x1A PUSH1 0x0 DUP3 DUP3 SLOAD PUSH2 0x14DF SWAP2 SWAP1 PUSH2 0x6867 JUMP JUMPDEST SWAP3 POP POP DUP2 SWAP1 SSTORE POP PUSH2 0x15A0 PUSH1 0x32 PUSH1 0x0 DUP6 PUSH20 0xFFFFFFFFFFFFFFFFFFFFFFFFFFFFFFFFFFFFFFFF AND PUSH20 0xFFFFFFFFFFFFFFFFFFFFFFFFFFFFFFFFFFFFFFFF AND DUP2 MSTORE PUSH1 0x20 ADD SWAP1 DUP2 MSTORE PUSH1 0x20 ADD PUSH1 0x0 KECCAK256 PUSH1 0x0 PUSH1 0x1 ISZERO ISZERO ISZERO ISZERO DUP2 MSTORE PUSH1 0x20 ADD SWAP1 DUP2 MSTORE PUSH1 0x20 ADD PUSH1 0x0 KECCAK256 PUSH1 0x1 ADD SLOAD DUP7 PUSH1 0x32 PUSH1 0x0 DUP8 PUSH20 0xFFFFFFFFFFFFFFFFFFFFFFFFFFFFFFFFFFFFFFFF AND PUSH20 0xFFFFFFFFFFFFFFFFFFFFFFFFFFFFFFFFFFFFFFFF AND DUP2 MSTORE PUSH1 0x20 ADD SWAP1 DUP2 MSTORE PUSH1 0x20 ADD PUSH1 0x0 KECCAK256 PUSH1 0x0 DUP1 ISZERO ISZERO ISZERO ISZERO DUP2 MSTORE PUSH1 0x20 ADD SWAP1 DUP2 MSTORE PUSH1 0x20 ADD PUSH1 0x0 KECCAK256 PUSH1 0x2 ADD SLOAD PUSH2 0x445E JUMP JUMPDEST PUSH1 0x1C PUSH1 0x0 DUP3 DUP3 SLOAD PUSH2 0x15B1 SWAP2 SWAP1 PUSH2 0x6867 JUMP JUMPDEST SWAP3 POP POP DUP2 SWAP1 SSTORE POP PUSH2 0x1672 PUSH1 0x32 PUSH1 0x0 DUP6 PUSH20 0xFFFFFFFFFFFFFFFFFFFFFFFFFFFFFFFFFFFFFFFF AND PUSH20 0xFFFFFFFFFFFFFFFFFFFFFFFFFFFFFFFFFFFFFFFF AND DUP2 MSTORE PUSH1 0x20 ADD SWAP1 DUP2 MSTORE PUSH1 0x20 ADD PUSH1 0x0 KECCAK256 PUSH1 0x0 PUSH1 0x1 ISZERO ISZERO ISZERO ISZERO DUP2 MSTORE PUSH1 0x20 ADD SWAP1 DUP2 MSTORE PUSH1 0x20 ADD PUSH1 0x0 KECCAK256 PUSH1 0x1 ADD SLOAD DUP7 PUSH1 0x32 PUSH1 0x0 DUP8 PUSH20 0xFFFFFFFFFFFFFFFFFFFFFFFFFFFFFFFFFFFFFFFF AND PUSH20 0xFFFFFFFFFFFFFFFFFFFFFFFFFFFFFFFFFFFFFFFF AND DUP2 MSTORE PUSH1 0x20 ADD SWAP1 DUP2 MSTORE PUSH1 0x20 ADD PUSH1 0x0 KECCAK256 PUSH1 0x0 DUP1 ISZERO ISZERO ISZERO ISZERO DUP2 MSTORE PUSH1 0x20 ADD SWAP1 DUP2 MSTORE PUSH1 0x20 ADD PUSH1 0x0 KECCAK256 PUSH1 0x2 ADD SLOAD PUSH2 0x445E JUMP JUMPDEST PUSH1 0x32 PUSH1 0x0 DUP6 PUSH20 0xFFFFFFFFFFFFFFFFFFFFFFFFFFFFFFFFFFFFFFFF AND PUSH20 0xFFFFFFFFFFFFFFFFFFFFFFFFFFFFFFFFFFFFFFFF AND DUP2 MSTORE PUSH1 0x20 ADD SWAP1 DUP2 MSTORE PUSH1 0x20 ADD PUSH1 0x0 KECCAK256 PUSH1 0x0 PUSH1 0x1 ISZERO ISZERO ISZERO ISZERO DUP2 MSTORE PUSH1 0x20 ADD SWAP1 DUP2 MSTORE PUSH1 0x20 ADD PUSH1 0x0 KECCAK256 PUSH1 0x1 ADD PUSH1 0x0 DUP3 DUP3 SLOAD PUSH2 0x16D9 SWAP2 SWAP1 PUSH2 0x6867 JUMP JUMPDEST SWAP3 POP POP DUP2 SWAP1 SSTORE POP DUP1 DUP3 GT DUP1 ISZERO PUSH2 0x1702 JUMPI POP PUSH1 0x0 ISZERO ISZERO PUSH1 0x2D PUSH1 0x0 SWAP1 SLOAD SWAP1 PUSH2 0x100 EXP SWAP1 DIV PUSH1 0xFF AND ISZERO ISZERO EQ JUMPDEST ISZERO PUSH2 0x178B JUMPI PUSH2 0x171D DUP2 DUP4 PUSH2 0x1716 SWAP2 SWAP1 PUSH2 0x6867 JUMP JUMPDEST PUSH1 0x0 PUSH2 0x4480 JUMP JUMPDEST PUSH1 0x33 PUSH1 0x0 DUP6 PUSH20 0xFFFFFFFFFFFFFFFFFFFFFFFFFFFFFFFFFFFFFFFF AND PUSH20 0xFFFFFFFFFFFFFFFFFFFFFFFFFFFFFFFFFFFFFFFF AND DUP2 MSTORE PUSH1 0x20 ADD SWAP1 DUP2 MSTORE PUSH1 0x20 ADD PUSH1 0x0 KECCAK256 PUSH1 0x0 PUSH1 0x2 DUP2 LT PUSH2 0x176F JUMPI PUSH2 0x176E PUSH2 0x69DE JUMP JUMPDEST JUMPDEST ADD PUSH1 0x0 DUP3 DUP3 SLOAD PUSH2 0x177F SWAP2 SWAP1 PUSH2 0x6615 JUMP JUMPDEST SWAP3 POP POP DUP2 SWAP1 SSTORE POP PUSH2 0x1AAE JUMP JUMPDEST DUP1 DUP3 PUSH1 0x33 PUSH1 0x0 DUP7 PUSH20 0xFFFFFFFFFFFFFFFFFFFFFFFFFFFFFFFFFFFFFFFF AND PUSH20 0xFFFFFFFFFFFFFFFFFFFFFFFFFFFFFFFFFFFFFFFF AND DUP2 MSTORE PUSH1 0x20 ADD SWAP1 DUP2 MSTORE PUSH1 0x20 ADD PUSH1 0x0 KECCAK256 PUSH1 0x1 PUSH1 0x2 DUP2 LT PUSH2 0x17DF JUMPI PUSH2 0x17DE PUSH2 0x69DE JUMP JUMPDEST JUMPDEST ADD SLOAD PUSH2 0x17EB SWAP2 SWAP1 PUSH2 0x6615 JUMP JUMPDEST GT DUP1 ISZERO PUSH2 0x180B JUMPI POP PUSH1 0x1 ISZERO ISZERO PUSH1 0x2D PUSH1 0x0 SWAP1 SLOAD SWAP1 PUSH2 0x100 EXP SWAP1 DIV PUSH1 0xFF AND ISZERO ISZERO EQ JUMPDEST ISZERO PUSH2 0x18D6 JUMPI DUP1 DUP3 PUSH1 0x33 PUSH1 0x0 DUP7 PUSH20 0xFFFFFFFFFFFFFFFFFFFFFFFFFFFFFFFFFFFFFFFF AND PUSH20 0xFFFFFFFFFFFFFFFFFFFFFFFFFFFFFFFFFFFFFFFF AND DUP2 MSTORE PUSH1 0x20 ADD SWAP1 DUP2 MSTORE PUSH1 0x20 ADD PUSH1 0x0 KECCAK256 PUSH1 0x1 PUSH1 0x2 DUP2 LT PUSH2 0x1864 JUMPI PUSH2 0x1863 PUSH2 0x69DE JUMP JUMPDEST JUMPDEST ADD SLOAD PUSH2 0x1870 SWAP2 SWAP1 PUSH2 0x6615 JUMP JUMPDEST PUSH2 0x187A SWAP2 SWAP1 PUSH2 0x6867 JUMP JUMPDEST PUSH1 0x33 PUSH1 0x0 DUP6 PUSH20 0xFFFFFFFFFFFFFFFFFFFFFFFFFFFFFFFFFFFFFFFF AND PUSH20 0xFFFFFFFFFFFFFFFFFFFFFFFFFFFFFFFFFFFFFFFF AND DUP2 MSTORE PUSH1 0x20 ADD SWAP1 DUP2 MSTORE PUSH1 0x20 ADD PUSH1 0x0 KECCAK256 PUSH1 0x1 PUSH1 0x2 DUP2 LT PUSH2 0x18CC JUMPI PUSH2 0x18CB PUSH2 0x69DE JUMP JUMPDEST JUMPDEST ADD DUP2 SWAP1 SSTORE POP PUSH2 0x1AAD JUMP JUMPDEST PUSH2 0x199E PUSH1 0x33 PUSH1 0x0 DUP6 PUSH20 0xFFFFFFFFFFFFFFFFFFFFFFFFFFFFFFFFFFFFFFFF AND PUSH20 0xFFFFFFFFFFFFFFFFFFFFFFFFFFFFFFFFFFFFFFFF AND DUP2 MSTORE PUSH1 0x20 ADD SWAP1 DUP2 MSTORE PUSH1 0x20 ADD PUSH1 0x0 KECCAK256 PUSH1 0x1 PUSH1 0x2 DUP2 LT PUSH2 0x192B JUMPI PUSH2 0x192A PUSH2 0x69DE JUMP JUMPDEST JUMPDEST ADD SLOAD DUP4 DUP4 PUSH2 0x1939 SWAP2 SWAP1 PUSH2 0x6867 JUMP JUMPDEST PUSH2 0x1943 SWAP2 SWAP1 PUSH2 0x6867 JUMP JUMPDEST PUSH1 0x33 PUSH1 0x0 DUP7 PUSH20 0xFFFFFFFFFFFFFFFFFFFFFFFFFFFFFFFFFFFFFFFF AND PUSH20 0xFFFFFFFFFFFFFFFFFFFFFFFFFFFFFFFFFFFFFFFF AND DUP2 MSTORE PUSH1 0x20 ADD SWAP1 DUP2 MSTORE PUSH1 0x20 ADD PUSH1 0x0 KECCAK256 PUSH1 0x0 PUSH1 0x2 DUP2 LT PUSH2 0x1995 JUMPI PUSH2 0x1994 PUSH2 0x69DE JUMP JUMPDEST JUMPDEST ADD SLOAD PUSH1 0x0 PUSH2 0x47CC JUMP JUMPDEST PUSH1 0x33 PUSH1 0x0 DUP6 PUSH20 0xFFFFFFFFFFFFFFFFFFFFFFFFFFFFFFFFFFFFFFFF AND PUSH20 0xFFFFFFFFFFFFFFFFFFFFFFFFFFFFFFFFFFFFFFFF AND DUP2 MSTORE PUSH1 0x20 ADD SWAP1 DUP2 MSTORE PUSH1 0x20 ADD PUSH1 0x0 KECCAK256 PUSH1 0x0 PUSH1 0x2 DUP2 LT PUSH2 0x19F0 JUMPI PUSH2 0x19EF PUSH2 0x69DE JUMP JUMPDEST JUMPDEST ADD SLOAD PUSH2 0x19FC SWAP2 SWAP1 PUSH2 0x6867 JUMP JUMPDEST PUSH1 0x33 PUSH1 0x0 DUP6 PUSH20 0xFFFFFFFFFFFFFFFFFFFFFFFFFFFFFFFFFFFFFFFF AND PUSH20 0xFFFFFFFFFFFFFFFFFFFFFFFFFFFFFFFFFFFFFFFF AND DUP2 MSTORE PUSH1 0x20 ADD SWAP1 DUP2 MSTORE PUSH1 0x20 ADD PUSH1 0x0 KECCAK256 PUSH1 0x0 PUSH1 0x2 DUP2 LT PUSH2 0x1A4E JUMPI PUSH2 0x1A4D PUSH2 0x69DE JUMP JUMPDEST JUMPDEST ADD DUP2 SWAP1 SSTORE POP PUSH1 0x0 PUSH1 0x33 PUSH1 0x0 DUP6 PUSH20 0xFFFFFFFFFFFFFFFFFFFFFFFFFFFFFFFFFFFFFFFF AND PUSH20 0xFFFFFFFFFFFFFFFFFFFFFFFFFFFFFFFFFFFFFFFF AND DUP2 MSTORE PUSH1 0x20 ADD SWAP1 DUP2 MSTORE PUSH1 0x20 ADD PUSH1 0x0 KECCAK256 PUSH1 0x1 PUSH1 0x2 DUP2 LT PUSH2 0x1AA7 JUMPI PUSH2 0x1AA6 PUSH2 0x69DE JUMP JUMPDEST JUMPDEST ADD DUP2 SWAP1 SSTORE POP JUMPDEST JUMPDEST POP POP PUSH2 0x210F JUMP JUMPDEST PUSH1 0x0 PUSH2 0x1AC2 DUP4 PUSH1 0x1 PUSH2 0x4480 JUMP JUMPDEST SWAP1 POP PUSH1 0x0 PUSH2 0x1B86 DUP5 PUSH1 0x32 PUSH1 0x0 DUP7 PUSH20 0xFFFFFFFFFFFFFFFFFFFFFFFFFFFFFFFFFFFFFFFF AND PUSH20 0xFFFFFFFFFFFFFFFFFFFFFFFFFFFFFFFFFFFFFFFF AND DUP2 MSTORE PUSH1 0x20 ADD SWAP1 DUP2 MSTORE PUSH1 0x20 ADD PUSH1 0x0 KECCAK256 PUSH1 0x0 DUP1 ISZERO ISZERO ISZERO ISZERO DUP2 MSTORE PUSH1 0x20 ADD SWAP1 DUP2 MSTORE PUSH1 0x20 ADD PUSH1 0x0 KECCAK256 PUSH1 0x1 ADD SLOAD PUSH1 0x19 SLOAD PUSH1 0x1B SLOAD PUSH1 0x32 PUSH1 0x0 DUP10 PUSH20 0xFFFFFFFFFFFFFFFFFFFFFFFFFFFFFFFFFFFFFFFF AND PUSH20 0xFFFFFFFFFFFFFFFFFFFFFFFFFFFFFFFFFFFFFFFF AND DUP2 MSTORE PUSH1 0x20 ADD SWAP1 DUP2 MSTORE PUSH1 0x20 ADD PUSH1 0x0 KECCAK256 PUSH1 0x0 PUSH1 0x1 ISZERO ISZERO ISZERO ISZERO DUP2 MSTORE PUSH1 0x20 ADD SWAP1 DUP2 MSTORE PUSH1 0x20 ADD PUSH1 0x0 KECCAK256 PUSH1 0x2 ADD SLOAD PUSH2 0x4424 JUMP JUMPDEST SWAP1 POP DUP4 PUSH1 0x32 PUSH1 0x0 DUP6 PUSH20 0xFFFFFFFFFFFFFFFFFFFFFFFFFFFFFFFFFFFFFFFF AND PUSH20 0xFFFFFFFFFFFFFFFFFFFFFFFFFFFFFFFFFFFFFFFF AND DUP2 MSTORE PUSH1 0x20 ADD SWAP1 DUP2 MSTORE PUSH1 0x20 ADD PUSH1 0x0 KECCAK256 PUSH1 0x0 PUSH1 0x1 ISZERO ISZERO ISZERO ISZERO DUP2 MSTORE PUSH1 0x20 ADD SWAP1 DUP2 MSTORE PUSH1 0x20 ADD PUSH1 0x0 KECCAK256 PUSH1 0x2 ADD PUSH1 0x0 DUP3 DUP3 SLOAD PUSH2 0x1BF0 SWAP2 SWAP1 PUSH2 0x6867 JUMP JUMPDEST SWAP3 POP POP DUP2 SWAP1 SSTORE POP DUP1 PUSH1 0x19 PUSH1 0x0 DUP3 DUP3 SLOAD PUSH2 0x1C09 SWAP2 SWAP1 PUSH2 0x6867 JUMP JUMPDEST SWAP3 POP POP DUP2 SWAP1 SSTORE POP PUSH2 0x1CCA PUSH1 0x32 PUSH1 0x0 DUP6 PUSH20 0xFFFFFFFFFFFFFFFFFFFFFFFFFFFFFFFFFFFFFFFF AND PUSH20 0xFFFFFFFFFFFFFFFFFFFFFFFFFFFFFFFFFFFFFFFF AND DUP2 MSTORE PUSH1 0x20 ADD SWAP1 DUP2 MSTORE PUSH1 0x20 ADD PUSH1 0x0 KECCAK256 PUSH1 0x0 DUP1 ISZERO ISZERO ISZERO ISZERO DUP2 MSTORE PUSH1 0x20 ADD SWAP1 DUP2 MSTORE PUSH1 0x20 ADD PUSH1 0x0 KECCAK256 PUSH1 0x1 ADD SLOAD DUP6 PUSH1 0x32 PUSH1 0x0 DUP8 PUSH20 0xFFFFFFFFFFFFFFFFFFFFFFFFFFFFFFFFFFFFFFFF AND PUSH20 0xFFFFFFFFFFFFFFFFFFFFFFFFFFFFFFFFFFFFFFFF AND DUP2 MSTORE PUSH1 0x20 ADD SWAP1 DUP2 MSTORE PUSH1 0x20 ADD PUSH1 0x0 KECCAK256 PUSH1 0x0 PUSH1 0x1 ISZERO ISZERO ISZERO ISZERO DUP2 MSTORE PUSH1 0x20 ADD SWAP1 DUP2 MSTORE PUSH1 0x20 ADD PUSH1 0x0 KECCAK256 PUSH1 0x2 ADD SLOAD PUSH2 0x445E JUMP JUMPDEST PUSH1 0x1B PUSH1 0x0 DUP3 DUP3 SLOAD PUSH2 0x1CDB SWAP2 SWAP1 PUSH2 0x6867 JUMP JUMPDEST SWAP3 POP POP DUP2 SWAP1 SSTORE POP PUSH2 0x1D9C PUSH1 0x32 PUSH1 0x0 DUP6 PUSH20 0xFFFFFFFFFFFFFFFFFFFFFFFFFFFFFFFFFFFFFFFF AND PUSH20 0xFFFFFFFFFFFFFFFFFFFFFFFFFFFFFFFFFFFFFFFF AND DUP2 MSTORE PUSH1 0x20 ADD SWAP1 DUP2 MSTORE PUSH1 0x20 ADD PUSH1 0x0 KECCAK256 PUSH1 0x0 DUP1 ISZERO ISZERO ISZERO ISZERO DUP2 MSTORE PUSH1 0x20 ADD SWAP1 DUP2 MSTORE PUSH1 0x20 ADD PUSH1 0x0 KECCAK256 PUSH1 0x1 ADD SLOAD DUP6 PUSH1 0x32 PUSH1 0x0 DUP8 PUSH20 0xFFFFFFFFFFFFFFFFFFFFFFFFFFFFFFFFFFFFFFFF AND PUSH20 0xFFFFFFFFFFFFFFFFFFFFFFFFFFFFFFFFFFFFFFFF AND DUP2 MSTORE PUSH1 0x20 ADD SWAP1 DUP2 MSTORE PUSH1 0x20 ADD PUSH1 0x0 KECCAK256 PUSH1 0x0 PUSH1 0x1 ISZERO ISZERO ISZERO ISZERO DUP2 MSTORE PUSH1 0x20 ADD SWAP1 DUP2 MSTORE PUSH1 0x20 ADD PUSH1 0x0 KECCAK256 PUSH1 0x2 ADD SLOAD PUSH2 0x445E JUMP JUMPDEST PUSH1 0x32 PUSH1 0x0 DUP6 PUSH20 0xFFFFFFFFFFFFFFFFFFFFFFFFFFFFFFFFFFFFFFFF AND PUSH20 0xFFFFFFFFFFFFFFFFFFFFFFFFFFFFFFFFFFFFFFFF AND DUP2 MSTORE PUSH1 0x20 ADD SWAP1 DUP2 MSTORE PUSH1 0x20 ADD PUSH1 0x0 KECCAK256 PUSH1 0x0 DUP1 ISZERO ISZERO ISZERO ISZERO DUP2 MSTORE PUSH1 0x20 ADD SWAP1 DUP2 MSTORE PUSH1 0x20 ADD PUSH1 0x0 KECCAK256 PUSH1 0x1 ADD PUSH1 0x0 DUP3 DUP3 SLOAD PUSH2 0x1E02 SWAP2 SWAP1 PUSH2 0x6867 JUMP JUMPDEST SWAP3 POP POP DUP2 SWAP1 SSTORE POP DUP1 DUP3 PUSH1 0x33 PUSH1 0x0 DUP7 PUSH20 0xFFFFFFFFFFFFFFFFFFFFFFFFFFFFFFFFFFFFFFFF AND PUSH20 0xFFFFFFFFFFFFFFFFFFFFFFFFFFFFFFFFFFFFFFFF AND DUP2 MSTORE PUSH1 0x20 ADD SWAP1 DUP2 MSTORE PUSH1 0x20 ADD PUSH1 0x0 KECCAK256 PUSH1 0x0 PUSH1 0x2 DUP2 LT PUSH2 0x1E5D JUMPI PUSH2 0x1E5C PUSH2 0x69DE JUMP JUMPDEST JUMPDEST ADD SLOAD PUSH2 0x1E69 SWAP2 SWAP1 PUSH2 0x6615 JUMP JUMPDEST GT ISZERO PUSH2 0x1F35 JUMPI DUP1 DUP3 PUSH1 0x33 PUSH1 0x0 DUP7 PUSH20 0xFFFFFFFFFFFFFFFFFFFFFFFFFFFFFFFFFFFFFFFF AND PUSH20 0xFFFFFFFFFFFFFFFFFFFFFFFFFFFFFFFFFFFFFFFF AND DUP2 MSTORE PUSH1 0x20 ADD SWAP1 DUP2 MSTORE PUSH1 0x20 ADD PUSH1 0x0 KECCAK256 PUSH1 0x0 PUSH1 0x2 DUP2 LT PUSH2 0x1EC3 JUMPI PUSH2 0x1EC2 PUSH2 0x69DE JUMP JUMPDEST JUMPDEST ADD SLOAD PUSH2 0x1ECF SWAP2 SWAP1 PUSH2 0x6615 JUMP JUMPDEST PUSH2 0x1ED9 SWAP2 SWAP1 PUSH2 0x6867 JUMP JUMPDEST PUSH1 0x33 PUSH1 0x0 DUP6 PUSH20 0xFFFFFFFFFFFFFFFFFFFFFFFFFFFFFFFFFFFFFFFF AND PUSH20 0xFFFFFFFFFFFFFFFFFFFFFFFFFFFFFFFFFFFFFFFF AND DUP2 MSTORE PUSH1 0x20 ADD SWAP1 DUP2 MSTORE PUSH1 0x20 ADD PUSH1 0x0 KECCAK256 PUSH1 0x0 PUSH1 0x2 DUP2 LT PUSH2 0x1F2B JUMPI PUSH2 0x1F2A PUSH2 0x69DE JUMP JUMPDEST JUMPDEST ADD DUP2 SWAP1 SSTORE POP PUSH2 0x210C JUMP JUMPDEST PUSH2 0x1FFD PUSH1 0x33 PUSH1 0x0 DUP6 PUSH20 0xFFFFFFFFFFFFFFFFFFFFFFFFFFFFFFFFFFFFFFFF AND PUSH20 0xFFFFFFFFFFFFFFFFFFFFFFFFFFFFFFFFFFFFFFFF AND DUP2 MSTORE PUSH1 0x20 ADD SWAP1 DUP2 MSTORE PUSH1 0x20 ADD PUSH1 0x0 KECCAK256 PUSH1 0x0 PUSH1 0x2 DUP2 LT PUSH2 0x1F8A JUMPI PUSH2 0x1F89 PUSH2 0x69DE JUMP JUMPDEST JUMPDEST ADD SLOAD DUP4 DUP4 PUSH2 0x1F98 SWAP2 SWAP1 PUSH2 0x6867 JUMP JUMPDEST PUSH2 0x1FA2 SWAP2 SWAP1 PUSH2 0x6867 JUMP JUMPDEST PUSH1 0x33 PUSH1 0x0 DUP7 PUSH20 0xFFFFFFFFFFFFFFFFFFFFFFFFFFFFFFFFFFFFFFFF AND PUSH20 0xFFFFFFFFFFFFFFFFFFFFFFFFFFFFFFFFFFFFFFFF AND DUP2 MSTORE PUSH1 0x20 ADD SWAP1 DUP2 MSTORE PUSH1 0x20 ADD PUSH1 0x0 KECCAK256 PUSH1 0x1 PUSH1 0x2 DUP2 LT PUSH2 0x1FF4 JUMPI PUSH2 0x1FF3 PUSH2 0x69DE JUMP JUMPDEST JUMPDEST ADD SLOAD PUSH1 0x0 PUSH2 0x4B23 JUMP JUMPDEST PUSH1 0x33 PUSH1 0x0 DUP6 PUSH20 0xFFFFFFFFFFFFFFFFFFFFFFFFFFFFFFFFFFFFFFFF AND PUSH20 0xFFFFFFFFFFFFFFFFFFFFFFFFFFFFFFFFFFFFFFFF AND DUP2 MSTORE PUSH1 0x20 ADD SWAP1 DUP2 MSTORE PUSH1 0x20 ADD PUSH1 0x0 KECCAK256 PUSH1 0x1 PUSH1 0x2 DUP2 LT PUSH2 0x204F JUMPI PUSH2 0x204E PUSH2 0x69DE JUMP JUMPDEST JUMPDEST ADD SLOAD PUSH2 0x205B SWAP2 SWAP1 PUSH2 0x6867 JUMP JUMPDEST PUSH1 0x33 PUSH1 0x0 DUP6 PUSH20 0xFFFFFFFFFFFFFFFFFFFFFFFFFFFFFFFFFFFFFFFF AND PUSH20 0xFFFFFFFFFFFFFFFFFFFFFFFFFFFFFFFFFFFFFFFF AND DUP2 MSTORE PUSH1 0x20 ADD SWAP1 DUP2 MSTORE PUSH1 0x20 ADD PUSH1 0x0 KECCAK256 PUSH1 0x1 PUSH1 0x2 DUP2 LT PUSH2 0x20AD JUMPI PUSH2 0x20AC PUSH2 0x69DE JUMP JUMPDEST JUMPDEST ADD DUP2 SWAP1 SSTORE POP PUSH1 0x0 PUSH1 0x33 PUSH1 0x0 DUP6 PUSH20 0xFFFFFFFFFFFFFFFFFFFFFFFFFFFFFFFFFFFFFFFF AND PUSH20 0xFFFFFFFFFFFFFFFFFFFFFFFFFFFFFFFFFFFFFFFF AND DUP2 MSTORE PUSH1 0x20 ADD SWAP1 DUP2 MSTORE PUSH1 0x20 ADD PUSH1 0x0 KECCAK256 PUSH1 0x0 PUSH1 0x2 DUP2 LT PUSH2 0x2106 JUMPI PUSH2 0x2105 PUSH2 0x69DE JUMP JUMPDEST JUMPDEST ADD DUP2 SWAP1 SSTORE POP JUMPDEST POP POP JUMPDEST PUSH1 0x1 PUSH1 0x2F DUP2 SWAP1 SSTORE POP POP POP POP JUMP JUMPDEST PUSH1 0x14 SLOAD DUP2 JUMP JUMPDEST PUSH1 0x1F SLOAD DUP2 JUMP JUMPDEST PUSH1 0x0 PUSH1 0x1 PUSH1 0x2F SLOAD EQ PUSH2 0x216F JUMPI PUSH1 0x40 MLOAD PUSH32 0x8C379A000000000000000000000000000000000000000000000000000000000 DUP2 MSTORE PUSH1 0x4 ADD PUSH2 0x2166 SWAP1 PUSH2 0x6559 JUMP JUMPDEST PUSH1 0x40 MLOAD DUP1 SWAP2 SUB SWAP1 REVERT JUMPDEST PUSH1 0x0 PUSH1 0x2F DUP2 SWAP1 SSTORE POP PUSH2 0x2193 PUSH1 0xB SLOAD DUP6 PUSH1 0x14 SLOAD PUSH2 0x218B SWAP2 SWAP1 PUSH2 0x6615 JUMP JUMPDEST PUSH1 0x14 SLOAD PUSH2 0x445E JUMP JUMPDEST PUSH1 0xB DUP2 SWAP1 SSTORE POP PUSH2 0x21B5 PUSH1 0xC SLOAD DUP5 PUSH1 0x13 SLOAD PUSH2 0x21AD SWAP2 SWAP1 PUSH2 0x6615 JUMP JUMPDEST PUSH1 0x13 SLOAD PUSH2 0x445E JUMP JUMPDEST PUSH1 0xC DUP2 SWAP1 SSTORE POP PUSH2 0x21CA PUSH1 0x29 SLOAD DUP6 PUSH1 0x14 SLOAD PUSH2 0x445E JUMP JUMPDEST SWAP1 POP DUP1 PUSH1 0x29 SLOAD PUSH2 0x21DA SWAP2 SWAP1 PUSH2 0x6615 JUMP JUMPDEST PUSH1 0x29 DUP2 SWAP1 SSTORE POP DUP4 PUSH1 0x14 SLOAD PUSH2 0x21EE SWAP2 SWAP1 PUSH2 0x6615 JUMP JUMPDEST PUSH1 0x14 DUP2 SWAP1 SSTORE POP DUP3 PUSH1 0x13 SLOAD PUSH2 0x2202 SWAP2 SWAP1 PUSH2 0x6615 JUMP JUMPDEST PUSH1 0x13 DUP2 SWAP1 SSTORE POP PUSH2 0x2212 DUP3 DUP3 PUSH2 0x4E7A JUMP JUMPDEST PUSH2 0x221A PUSH2 0x4F94 JUMP JUMPDEST PUSH1 0x1 PUSH1 0x2F DUP2 SWAP1 SSTORE POP SWAP4 SWAP3 POP POP POP JUMP JUMPDEST PUSH1 0x16 SLOAD DUP2 JUMP JUMPDEST PUSH1 0x0 DUP1 PUSH1 0x1 PUSH1 0x2F SLOAD EQ PUSH2 0x2277 JUMPI PUSH1 0x40 MLOAD PUSH32 0x8C379A000000000000000000000000000000000000000000000000000000000 DUP2 MSTORE PUSH1 0x4 ADD PUSH2 0x226E SWAP1 PUSH2 0x6559 JUMP JUMPDEST PUSH1 0x40 MLOAD DUP1 SWAP2 SUB SWAP1 REVERT JUMPDEST PUSH1 0x0 PUSH1 0x2F DUP2 SWAP1 SSTORE POP PUSH2 0x228E DUP5 PUSH1 0x14 SLOAD PUSH1 0x29 SLOAD PUSH2 0x445E JUMP JUMPDEST SWAP2 POP PUSH2 0x229F DUP5 PUSH1 0x13 SLOAD PUSH1 0x29 SLOAD PUSH2 0x445E JUMP JUMPDEST SWAP1 POP PUSH2 0x22BD PUSH1 0xB SLOAD DUP4 PUSH1 0x14 SLOAD PUSH2 0x22B5 SWAP2 SWAP1 PUSH2 0x6867 JUMP JUMPDEST PUSH1 0x14 SLOAD PUSH2 0x445E JUMP JUMPDEST PUSH1 0xB DUP2 SWAP1 SSTORE POP PUSH2 0x22DF PUSH1 0xC SLOAD DUP3 PUSH1 0x13 SLOAD PUSH2 0x22D7 SWAP2 SWAP1 PUSH2 0x6867 JUMP JUMPDEST PUSH1 0x13 SLOAD PUSH2 0x445E JUMP JUMPDEST PUSH1 0xC DUP2 SWAP1 SSTORE POP DUP2 PUSH1 0x14 SLOAD PUSH2 0x22F3 SWAP2 SWAP1 PUSH2 0x6867 JUMP JUMPDEST PUSH1 0x14 DUP2 SWAP1 SSTORE POP DUP1 PUSH1 0x13 SLOAD PUSH2 0x2307 SWAP2 SWAP1 PUSH2 0x6867 JUMP JUMPDEST PUSH1 0x13 DUP2 SWAP1 SSTORE POP DUP4 PUSH1 0x29 SLOAD PUSH2 0x231B SWAP2 SWAP1 PUSH2 0x6867 JUMP JUMPDEST PUSH1 0x29 DUP2 SWAP1 SSTORE POP PUSH2 0x232B ADDRESS DUP6 PUSH2 0x5006 JUMP JUMPDEST PUSH2 0x2358 PUSH1 0x26 PUSH1 0x0 SWAP1 SLOAD SWAP1 PUSH2 0x100 EXP SWAP1 DIV PUSH20 0xFFFFFFFFFFFFFFFFFFFFFFFFFFFFFFFFFFFFFFFF AND DUP5 DUP5 PUSH2 0x5120 JUMP JUMPDEST PUSH2 0x2385 PUSH1 0x27 PUSH1 0x0 SWAP1 SLOAD SWAP1 PUSH2 0x100 EXP SWAP1 DIV PUSH20 0xFFFFFFFFFFFFFFFFFFFFFFFFFFFFFFFFFFFFFFFF AND DUP5 DUP4 PUSH2 0x5120 JUMP JUMPDEST PUSH2 0x238D PUSH2 0x4F94 JUMP JUMPDEST PUSH1 0x1 PUSH1 0x2F DUP2 SWAP1 SSTORE POP SWAP3 POP SWAP3 SWAP1 POP JUMP JUMPDEST PUSH1 0x1B SLOAD DUP2 JUMP JUMPDEST PUSH1 0x1 PUSH1 0x20 MSTORE DUP1 PUSH1 0x0 MSTORE PUSH1 0x40 PUSH1 0x0 KECCAK256 PUSH1 0x0 SWAP2 POP SWAP1 POP SLOAD DUP2 JUMP JUMPDEST PUSH1 0x12 SLOAD DUP2 JUMP JUMPDEST PUSH1 0x2C SLOAD DUP2 JUMP JUMPDEST PUSH1 0x32 PUSH1 0x20 MSTORE DUP2 PUSH1 0x0 MSTORE PUSH1 0x40 PUSH1 0x0 KECCAK256 PUSH1 0x20 MSTORE DUP1 PUSH1 0x0 MSTORE PUSH1 0x40 PUSH1 0x0 KECCAK256 PUSH1 0x0 SWAP2 POP SWAP2 POP POP DUP1 PUSH1 0x0 ADD PUSH1 0x0 SWAP1 SLOAD SWAP1 PUSH2 0x100 EXP SWAP1 DIV PUSH20 0xFFFFFFFFFFFFFFFFFFFFFFFFFFFFFFFFFFFFFFFF AND SWAP1 DUP1 PUSH1 0x0 ADD PUSH1 0x14 SWAP1 SLOAD SWAP1 PUSH2 0x100 EXP SWAP1 DIV PUSH1 0xFF AND SWAP1 DUP1 PUSH1 0x1 ADD SLOAD SWAP1 DUP1 PUSH1 0x2 ADD SLOAD SWAP1 POP DUP5 JUMP JUMPDEST PUSH1 0x4 PUSH1 0x20 MSTORE DUP1 PUSH1 0x0 MSTORE PUSH1 0x40 PUSH1 0x0 KECCAK256 PUSH1 0x0 SWAP2 POP SWAP1 POP SLOAD DUP2 JUMP JUMPDEST PUSH1 0x22 SLOAD DUP2 JUMP JUMPDEST PUSH1 0xA SLOAD DUP2 JUMP JUMPDEST PUSH1 0x6 SLOAD DUP2 JUMP JUMPDEST PUSH1 0xB SLOAD DUP2 JUMP JUMPDEST PUSH1 0x2A SLOAD DUP2 JUMP JUMPDEST PUSH1 0x0 PUSH1 0x26 PUSH1 0x0 SWAP1 SLOAD SWAP1 PUSH2 0x100 EXP SWAP1 DIV PUSH20 0xFFFFFFFFFFFFFFFFFFFFFFFFFFFFFFFFFFFFFFFF AND PUSH20 0xFFFFFFFFFFFFFFFFFFFFFFFFFFFFFFFFFFFFFFFF AND DUP4 PUSH20 0xFFFFFFFFFFFFFFFFFFFFFFFFFFFFFFFFFFFFFFFF AND EQ ISZERO PUSH2 0x2613 JUMPI PUSH1 0x30 PUSH1 0x0 PUSH1 0x2 DUP2 LT PUSH2 0x24D3 JUMPI PUSH2 0x24D2 PUSH2 0x69DE JUMP JUMPDEST JUMPDEST ADD SLOAD PUSH1 0x14 SLOAD DUP5 PUSH20 0xFFFFFFFFFFFFFFFFFFFFFFFFFFFFFFFFFFFFFFFF AND PUSH4 0x70A08231 ADDRESS PUSH1 0x40 MLOAD DUP3 PUSH4 0xFFFFFFFF AND PUSH1 0xE0 SHL DUP2 MSTORE PUSH1 0x4 ADD PUSH2 0x2511 SWAP2 SWAP1 PUSH2 0x6292 JUMP JUMPDEST PUSH1 0x20 PUSH1 0x40 MLOAD DUP1 DUP4 SUB DUP2 DUP7 DUP1 EXTCODESIZE ISZERO DUP1 ISZERO PUSH2 0x2529 JUMPI PUSH1 0x0 DUP1 REVERT JUMPDEST POP GAS STATICCALL ISZERO DUP1 ISZERO PUSH2 0x253D JUMPI RETURNDATASIZE PUSH1 0x0 DUP1 RETURNDATACOPY RETURNDATASIZE PUSH1 0x0 REVERT JUMPDEST POP POP POP POP PUSH1 0x40 MLOAD RETURNDATASIZE PUSH1 0x1F NOT PUSH1 0x1F DUP3 ADD AND DUP3 ADD DUP1 PUSH1 0x40 MSTORE POP DUP2 ADD SWAP1 PUSH2 0x2561 SWAP2 SWAP1 PUSH2 0x5EAD JUMP JUMPDEST PUSH2 0x256B SWAP2 SWAP1 PUSH2 0x6867 JUMP JUMPDEST PUSH2 0x2575 SWAP2 SWAP1 PUSH2 0x6867 JUMP JUMPDEST SWAP1 POP DUP1 PUSH1 0x33 PUSH1 0x0 DUP5 PUSH20 0xFFFFFFFFFFFFFFFFFFFFFFFFFFFFFFFFFFFFFFFF AND PUSH20 0xFFFFFFFFFFFFFFFFFFFFFFFFFFFFFFFFFFFFFFFF AND DUP2 MSTORE PUSH1 0x20 ADD SWAP1 DUP2 MSTORE PUSH1 0x20 ADD PUSH1 0x0 KECCAK256 PUSH1 0x0 PUSH1 0x2 DUP2 LT PUSH2 0x25CA JUMPI PUSH2 0x25C9 PUSH2 0x69DE JUMP JUMPDEST JUMPDEST ADD PUSH1 0x0 DUP3 DUP3 SLOAD PUSH2 0x25DA SWAP2 SWAP1 PUSH2 0x6615 JUMP JUMPDEST SWAP3 POP POP DUP2 SWAP1 SSTORE POP DUP1 PUSH1 0x30 PUSH1 0x0 PUSH1 0x2 DUP2 LT PUSH2 0x25F7 JUMPI PUSH2 0x25F6 PUSH2 0x69DE JUMP JUMPDEST JUMPDEST ADD PUSH1 0x0 DUP3 DUP3 SLOAD PUSH2 0x2607 SWAP2 SWAP1 PUSH2 0x6615 JUMP JUMPDEST SWAP3 POP POP DUP2 SWAP1 SSTORE POP PUSH2 0x2764 JUMP JUMPDEST PUSH1 0x30 PUSH1 0x1 PUSH1 0x2 DUP2 LT PUSH2 0x2628 JUMPI PUSH2 0x2627 PUSH2 0x69DE JUMP JUMPDEST JUMPDEST ADD SLOAD PUSH1 0x13 SLOAD DUP5 PUSH20 0xFFFFFFFFFFFFFFFFFFFFFFFFFFFFFFFFFFFFFFFF AND PUSH4 0x70A08231 ADDRESS PUSH1 0x40 MLOAD DUP3 PUSH4 0xFFFFFFFF AND PUSH1 0xE0 SHL DUP2 MSTORE PUSH1 0x4 ADD PUSH2 0x2666 SWAP2 SWAP1 PUSH2 0x6292 JUMP JUMPDEST PUSH1 0x20 PUSH1 0x40 MLOAD DUP1 DUP4 SUB DUP2 DUP7 DUP1 EXTCODESIZE ISZERO DUP1 ISZERO PUSH2 0x267E JUMPI PUSH1 0x0 DUP1 REVERT JUMPDEST POP GAS STATICCALL ISZERO DUP1 ISZERO PUSH2 0x2692 JUMPI RETURNDATASIZE PUSH1 0x0 DUP1 RETURNDATACOPY RETURNDATASIZE PUSH1 0x0 REVERT JUMPDEST POP POP POP POP PUSH1 0x40 MLOAD RETURNDATASIZE PUSH1 0x1F NOT PUSH1 0x1F DUP3 ADD AND DUP3 ADD DUP1 PUSH1 0x40 MSTORE POP DUP2 ADD SWAP1 PUSH2 0x26B6 SWAP2 SWAP1 PUSH2 0x5EAD JUMP JUMPDEST PUSH2 0x26C0 SWAP2 SWAP1 PUSH2 0x6867 JUMP JUMPDEST PUSH2 0x26CA SWAP2 SWAP1 PUSH2 0x6867 JUMP JUMPDEST SWAP1 POP DUP1 PUSH1 0x33 PUSH1 0x0 DUP5 PUSH20 0xFFFFFFFFFFFFFFFFFFFFFFFFFFFFFFFFFFFFFFFF AND PUSH20 0xFFFFFFFFFFFFFFFFFFFFFFFFFFFFFFFFFFFFFFFF AND DUP2 MSTORE PUSH1 0x20 ADD SWAP1 DUP2 MSTORE PUSH1 0x20 ADD PUSH1 0x0 KECCAK256 PUSH1 0x1 PUSH1 0x2 DUP2 LT PUSH2 0x271F JUMPI PUSH2 0x271E PUSH2 0x69DE JUMP JUMPDEST JUMPDEST ADD PUSH1 0x0 DUP3 DUP3 SLOAD PUSH2 0x272F SWAP2 SWAP1 PUSH2 0x6615 JUMP JUMPDEST SWAP3 POP POP DUP2 SWAP1 SSTORE POP DUP1 PUSH1 0x30 PUSH1 0x1 PUSH1 0x2 DUP2 LT PUSH2 0x274C JUMPI PUSH2 0x274B PUSH2 0x69DE JUMP JUMPDEST JUMPDEST ADD PUSH1 0x0 DUP3 DUP3 SLOAD PUSH2 0x275C SWAP2 SWAP1 PUSH2 0x6615 JUMP JUMPDEST SWAP3 POP POP DUP2 SWAP1 SSTORE POP JUMPDEST POP POP POP JUMP JUMPDEST PUSH1 0x9 SLOAD DUP2 JUMP JUMPDEST PUSH1 0x1 PUSH1 0x2F SLOAD EQ PUSH2 0x27B4 JUMPI PUSH1 0x40 MLOAD PUSH32 0x8C379A000000000000000000000000000000000000000000000000000000000 DUP2 MSTORE PUSH1 0x4 ADD PUSH2 0x27AB SWAP1 PUSH2 0x6559 JUMP JUMPDEST PUSH1 0x40 MLOAD DUP1 SWAP2 SUB SWAP1 REVERT JUMPDEST PUSH1 0x0 PUSH1 0x2F DUP2 SWAP1 SSTORE POP PUSH1 0x0 DUP4 DUP6 PUSH2 0x27CA SWAP2 SWAP1 PUSH2 0x680D JUMP JUMPDEST EQ DUP1 ISZERO PUSH2 0x27E2 JUMPI POP PUSH1 0x0 DUP4 DUP6 PUSH2 0x27E0 SWAP2 SWAP1 PUSH2 0x6615 JUMP JUMPDEST GT JUMPDEST PUSH2 0x27EB JUMPI PUSH1 0x0 DUP1 REVERT JUMPDEST PUSH2 0x27F3 PUSH2 0x3FC4 JUMP JUMPDEST PUSH2 0x2843 PUSH2 0x27FF DUP3 PUSH2 0x3E10 JUMP JUMPDEST PUSH1 0x2C SLOAD DUP7 PUSH2 0x280D SWAP2 SWAP1 PUSH2 0x680D JUMP JUMPDEST PUSH2 0x2817 SWAP2 SWAP1 PUSH2 0x6615 JUMP JUMPDEST PUSH2 0x2820 DUP4 PUSH2 0x3E10 JUMP JUMPDEST PUSH2 0x2834 DUP7 PUSH1 0x17 SLOAD PUSH1 0xD SLOAD PUSH1 0xE SLOAD PUSH1 0x1 PUSH2 0x4424 JUMP JUMPDEST PUSH2 0x283E SWAP2 SWAP1 PUSH2 0x6615 JUMP JUMPDEST PUSH2 0x52AA JUMP JUMPDEST PUSH1 0x28 SLOAD PUSH2 0x284F DUP4 PUSH2 0x3D1C JUMP JUMPDEST PUSH2 0x2858 DUP5 PUSH2 0x3E10 JUMP JUMPDEST PUSH2 0x2861 DUP6 PUSH2 0x3EF5 JUMP JUMPDEST PUSH2 0x286B SWAP2 SWAP1 PUSH2 0x6615 JUMP JUMPDEST PUSH2 0x2875 SWAP2 SWAP1 PUSH2 0x6867 JUMP JUMPDEST PUSH2 0x287F SWAP2 SWAP1 PUSH2 0x666B JUMP JUMPDEST GT PUSH2 0x28BF JUMPI PUSH1 0x40 MLOAD PUSH32 0x8C379A000000000000000000000000000000000000000000000000000000000 DUP2 MSTORE PUSH1 0x4 ADD PUSH2 0x28B6 SWAP1 PUSH2 0x6539 JUMP JUMPDEST PUSH1 0x40 MLOAD DUP1 SWAP2 SUB SWAP1 REVERT JUMPDEST PUSH1 0x0 DUP1 PUSH1 0x1 ISZERO ISZERO DUP5 ISZERO ISZERO EQ ISZERO PUSH2 0x2A2B JUMPI PUSH1 0x0 DUP7 GT ISZERO PUSH2 0x28ED JUMPI PUSH2 0x28E3 DUP7 PUSH1 0x1 PUSH2 0x40F0 JUMP JUMPDEST SWAP2 POP DUP6 SWAP1 POP PUSH2 0x2900 JUMP JUMPDEST DUP5 SWAP2 POP PUSH2 0x28FD DUP6 PUSH1 0x0 PUSH1 0x1 PUSH2 0x47CC JUMP JUMPDEST SWAP1 POP JUMPDEST PUSH2 0x290F DUP2 PUSH1 0x1B SLOAD PUSH1 0x19 SLOAD PUSH2 0x445E JUMP JUMPDEST PUSH1 0x32 PUSH1 0x0 DUP6 PUSH20 0xFFFFFFFFFFFFFFFFFFFFFFFFFFFFFFFFFFFFFFFF AND PUSH20 0xFFFFFFFFFFFFFFFFFFFFFFFFFFFFFFFFFFFFFFFF AND DUP2 MSTORE PUSH1 0x20 ADD SWAP1 DUP2 MSTORE PUSH1 0x20 ADD PUSH1 0x0 KECCAK256 PUSH1 0x0 DUP1 ISZERO ISZERO ISZERO ISZERO DUP2 MSTORE PUSH1 0x20 ADD SWAP1 DUP2 MSTORE PUSH1 0x20 ADD PUSH1 0x0 KECCAK256 PUSH1 0x1 ADD PUSH1 0x0 DUP3 DUP3 SLOAD PUSH2 0x2975 SWAP2 SWAP1 PUSH2 0x6615 JUMP JUMPDEST SWAP3 POP POP DUP2 SWAP1 SSTORE POP DUP2 PUSH1 0x32 PUSH1 0x0 DUP6 PUSH20 0xFFFFFFFFFFFFFFFFFFFFFFFFFFFFFFFFFFFFFFFF AND PUSH20 0xFFFFFFFFFFFFFFFFFFFFFFFFFFFFFFFFFFFFFFFF AND DUP2 MSTORE PUSH1 0x20 ADD SWAP1 DUP2 MSTORE PUSH1 0x20 ADD PUSH1 0x0 KECCAK256 PUSH1 0x0 PUSH1 0x1 ISZERO ISZERO ISZERO ISZERO DUP2 MSTORE PUSH1 0x20 ADD SWAP1 DUP2 MSTORE PUSH1 0x20 ADD PUSH1 0x0 KECCAK256 PUSH1 0x2 ADD PUSH1 0x0 DUP3 DUP3 SLOAD PUSH2 0x29E4 SWAP2 SWAP1 PUSH2 0x6615 JUMP JUMPDEST SWAP3 POP POP DUP2 SWAP1 SSTORE POP PUSH1 0x1B SLOAD PUSH2 0x29FD DUP3 PUSH1 0x1B SLOAD PUSH1 0x19 SLOAD PUSH2 0x445E JUMP JUMPDEST PUSH2 0x2A07 SWAP2 SWAP1 PUSH2 0x6615 JUMP JUMPDEST PUSH1 0x1B DUP2 SWAP1 SSTORE POP DUP1 PUSH1 0x19 PUSH1 0x0 DUP3 DUP3 SLOAD PUSH2 0x2A1F SWAP2 SWAP1 PUSH2 0x6615 JUMP JUMPDEST SWAP3 POP POP DUP2 SWAP1 SSTORE POP PUSH2 0x2B83 JUMP JUMPDEST PUSH1 0x0 DUP7 GT ISZERO PUSH2 0x2A4B JUMPI DUP6 SWAP2 POP PUSH2 0x2A44 DUP7 PUSH1 0x0 PUSH1 0x1 PUSH2 0x4B23 JUMP JUMPDEST SWAP1 POP PUSH2 0x2A5C JUMP JUMPDEST PUSH2 0x2A56 DUP6 PUSH1 0x1 PUSH2 0x4480 JUMP JUMPDEST SWAP2 POP DUP5 SWAP1 POP JUMPDEST PUSH2 0x2A6B DUP2 PUSH1 0x1C SLOAD PUSH1 0x1A SLOAD PUSH2 0x445E JUMP JUMPDEST PUSH1 0x32 PUSH1 0x0 DUP6 PUSH20 0xFFFFFFFFFFFFFFFFFFFFFFFFFFFFFFFFFFFFFFFF AND PUSH20 0xFFFFFFFFFFFFFFFFFFFFFFFFFFFFFFFFFFFFFFFF AND DUP2 MSTORE PUSH1 0x20 ADD SWAP1 DUP2 MSTORE PUSH1 0x20 ADD PUSH1 0x0 KECCAK256 PUSH1 0x0 PUSH1 0x1 ISZERO ISZERO ISZERO ISZERO DUP2 MSTORE PUSH1 0x20 ADD SWAP1 DUP2 MSTORE PUSH1 0x20 ADD PUSH1 0x0 KECCAK256 PUSH1 0x1 ADD PUSH1 0x0 DUP3 DUP3 SLOAD PUSH2 0x2AD2 SWAP2 SWAP1 PUSH2 0x6615 JUMP JUMPDEST SWAP3 POP POP DUP2 SWAP1 SSTORE POP DUP2 PUSH1 0x32 PUSH1 0x0 DUP6 PUSH20 0xFFFFFFFFFFFFFFFFFFFFFFFFFFFFFFFFFFFFFFFF AND PUSH20 0xFFFFFFFFFFFFFFFFFFFFFFFFFFFFFFFFFFFFFFFF AND DUP2 MSTORE PUSH1 0x20 ADD SWAP1 DUP2 MSTORE PUSH1 0x20 ADD PUSH1 0x0 KECCAK256 PUSH1 0x0 DUP1 ISZERO ISZERO ISZERO ISZERO DUP2 MSTORE PUSH1 0x20 ADD SWAP1 DUP2 MSTORE PUSH1 0x20 ADD PUSH1 0x0 KECCAK256 PUSH1 0x2 ADD PUSH1 0x0 DUP3 DUP3 SLOAD PUSH2 0x2B40 SWAP2 SWAP1 PUSH2 0x6615 JUMP JUMPDEST SWAP3 POP POP DUP2 SWAP1 SSTORE POP PUSH1 0x1C SLOAD PUSH2 0x2B59 DUP3 PUSH1 0x1C SLOAD PUSH1 0x1A SLOAD PUSH2 0x445E JUMP JUMPDEST PUSH2 0x2B63 SWAP2 SWAP1 PUSH2 0x6615 JUMP JUMPDEST PUSH1 0x1C DUP2 SWAP1 SSTORE POP DUP1 PUSH1 0x1A PUSH1 0x0 DUP3 DUP3 SLOAD PUSH2 0x2B7B SWAP2 SWAP1 PUSH2 0x6615 JUMP JUMPDEST SWAP3 POP POP DUP2 SWAP1 SSTORE POP JUMPDEST POP POP PUSH1 0x1 PUSH1 0x2F DUP2 SWAP1 SSTORE POP POP POP POP POP JUMP JUMPDEST PUSH1 0x40 MLOAD DUP1 PUSH1 0x40 ADD PUSH1 0x40 MSTORE DUP1 PUSH1 0x6 DUP2 MSTORE PUSH1 0x20 ADD PUSH32 0x554E492D56320000000000000000000000000000000000000000000000000000 DUP2 MSTORE POP DUP2 JUMP JUMPDEST PUSH1 0x28 SLOAD DUP2 JUMP JUMPDEST PUSH1 0x1 PUSH1 0x2F SLOAD EQ PUSH2 0x2C17 JUMPI PUSH1 0x40 MLOAD PUSH32 0x8C379A000000000000000000000000000000000000000000000000000000000 DUP2 MSTORE PUSH1 0x4 ADD PUSH2 0x2C0E SWAP1 PUSH2 0x6559 JUMP JUMPDEST PUSH1 0x40 MLOAD DUP1 SWAP2 SUB SWAP1 REVERT JUMPDEST PUSH1 0x0 PUSH1 0x2F DUP2 SWAP1 SSTORE POP PUSH1 0x0 DUP3 EQ DUP1 PUSH2 0x2C2E JUMPI POP PUSH1 0x0 DUP2 EQ JUMPDEST PUSH2 0x2C6D JUMPI PUSH1 0x40 MLOAD PUSH32 0x8C379A000000000000000000000000000000000000000000000000000000000 DUP2 MSTORE PUSH1 0x4 ADD PUSH2 0x2C64 SWAP1 PUSH2 0x6459 JUMP JUMPDEST PUSH1 0x40 MLOAD DUP1 SWAP2 SUB SWAP1 REVERT JUMPDEST PUSH1 0x0 PUSH1 0x26 PUSH1 0x0 SWAP1 SLOAD SWAP1 PUSH2 0x100 EXP SWAP1 DIV PUSH20 0xFFFFFFFFFFFFFFFFFFFFFFFFFFFFFFFFFFFFFFFF AND PUSH20 0xFFFFFFFFFFFFFFFFFFFFFFFFFFFFFFFFFFFFFFFF AND PUSH4 0x70A08231 ADDRESS PUSH1 0x40 MLOAD DUP3 PUSH4 0xFFFFFFFF AND PUSH1 0xE0 SHL DUP2 MSTORE PUSH1 0x4 ADD PUSH2 0x2CCA SWAP2 SWAP1 PUSH2 0x6292 JUMP JUMPDEST PUSH1 0x20 PUSH1 0x40 MLOAD DUP1 DUP4 SUB DUP2 DUP7 DUP1 EXTCODESIZE ISZERO DUP1 ISZERO PUSH2 0x2CE2 JUMPI PUSH1 0x0 DUP1 REVERT JUMPDEST POP GAS STATICCALL ISZERO DUP1 ISZERO PUSH2 0x2CF6 JUMPI RETURNDATASIZE PUSH1 0x0 DUP1 RETURNDATACOPY RETURNDATASIZE PUSH1 0x0 REVERT JUMPDEST POP POP POP POP PUSH1 0x40 MLOAD RETURNDATASIZE PUSH1 0x1F NOT PUSH1 0x1F DUP3 ADD AND DUP3 ADD DUP1 PUSH1 0x40 MSTORE POP DUP2 ADD SWAP1 PUSH2 0x2D1A SWAP2 SWAP1 PUSH2 0x5EAD JUMP JUMPDEST SWAP1 POP PUSH1 0x0 PUSH1 0x27 PUSH1 0x0 SWAP1 SLOAD SWAP1 PUSH2 0x100 EXP SWAP1 DIV PUSH20 0xFFFFFFFFFFFFFFFFFFFFFFFFFFFFFFFFFFFFFFFF AND PUSH20 0xFFFFFFFFFFFFFFFFFFFFFFFFFFFFFFFFFFFFFFFF AND PUSH4 0x70A08231 ADDRESS PUSH1 0x40 MLOAD DUP3 PUSH4 0xFFFFFFFF AND PUSH1 0xE0 SHL DUP2 MSTORE PUSH1 0x4 ADD PUSH2 0x2D79 SWAP2 SWAP1 PUSH2 0x6292 JUMP JUMPDEST PUSH1 0x20 PUSH1 0x40 MLOAD DUP1 DUP4 SUB DUP2 DUP7 DUP1 EXTCODESIZE ISZERO DUP1 ISZERO PUSH2 0x2D91 JUMPI PUSH1 0x0 DUP1 REVERT JUMPDEST POP GAS STATICCALL ISZERO DUP1 ISZERO PUSH2 0x2DA5 JUMPI RETURNDATASIZE PUSH1 0x0 DUP1 RETURNDATACOPY RETURNDATASIZE PUSH1 0x0 REVERT JUMPDEST POP POP POP POP PUSH1 0x40 MLOAD RETURNDATASIZE PUSH1 0x1F NOT PUSH1 0x1F DUP3 ADD AND DUP3 ADD DUP1 PUSH1 0x40 MSTORE POP DUP2 ADD SWAP1 PUSH2 0x2DC9 SWAP2 SWAP1 PUSH2 0x5EAD JUMP JUMPDEST SWAP1 POP PUSH1 0x0 PUSH1 0x14 SLOAD DUP4 PUSH2 0x2DDB SWAP2 SWAP1 PUSH2 0x6867 JUMP JUMPDEST SWAP1 POP PUSH1 0x0 PUSH1 0x13 SLOAD DUP4 PUSH2 0x2DED SWAP2 SWAP1 PUSH2 0x6867 JUMP JUMPDEST SWAP1 POP PUSH1 0x0 DUP3 GT DUP1 PUSH2 0x2DFE JUMPI POP PUSH1 0x0 DUP2 GT JUMPDEST PUSH2 0x2E3D JUMPI PUSH1 0x40 MLOAD PUSH32 0x8C379A000000000000000000000000000000000000000000000000000000000 DUP2 MSTORE PUSH1 0x4 ADD PUSH2 0x2E34 SWAP1 PUSH2 0x6439 JUMP JUMPDEST PUSH1 0x40 MLOAD DUP1 SWAP2 SUB SWAP1 REVERT JUMPDEST PUSH1 0x0 DUP7 GT ISZERO PUSH2 0x2EBB JUMPI PUSH2 0x2E89 PUSH1 0x27 PUSH1 0x0 SWAP1 SLOAD SWAP1 PUSH2 0x100 EXP SWAP1 DIV PUSH20 0xFFFFFFFFFFFFFFFFFFFFFFFFFFFFFFFFFFFFFFFF AND DUP9 PUSH2 0x2E79 DUP10 DUP6 PUSH1 0x0 PUSH2 0x4B23 JUMP JUMPDEST DUP5 PUSH2 0x2E84 SWAP2 SWAP1 PUSH2 0x6867 JUMP JUMPDEST PUSH2 0x5120 JUMP JUMPDEST PUSH2 0x2EB6 PUSH1 0x26 PUSH1 0x0 SWAP1 SLOAD SWAP1 PUSH2 0x100 EXP SWAP1 DIV PUSH20 0xFFFFFFFFFFFFFFFFFFFFFFFFFFFFFFFFFFFFFFFF AND DUP9 DUP9 PUSH2 0x5120 JUMP JUMPDEST PUSH2 0x2FBD JUMP JUMPDEST PUSH1 0x0 DUP6 GT ISZERO PUSH2 0x2F39 JUMPI PUSH2 0x2F07 PUSH1 0x26 PUSH1 0x0 SWAP1 SLOAD SWAP1 PUSH2 0x100 EXP SWAP1 DIV PUSH20 0xFFFFFFFFFFFFFFFFFFFFFFFFFFFFFFFFFFFFFFFF AND DUP9 PUSH2 0x2EF7 DUP9 DUP7 PUSH1 0x0 PUSH2 0x47CC JUMP JUMPDEST DUP6 PUSH2 0x2F02 SWAP2 SWAP1 PUSH2 0x6867 JUMP JUMPDEST PUSH2 0x5120 JUMP JUMPDEST PUSH2 0x2F34 PUSH1 0x27 PUSH1 0x0 SWAP1 SLOAD SWAP1 PUSH2 0x100 EXP SWAP1 DIV PUSH20 0xFFFFFFFFFFFFFFFFFFFFFFFFFFFFFFFFFFFFFFFF AND DUP9 DUP8 PUSH2 0x5120 JUMP JUMPDEST PUSH2 0x2FBC JUMP JUMPDEST PUSH1 0x0 DUP3 GT ISZERO PUSH2 0x2F7A JUMPI PUSH2 0x2F79 PUSH1 0x27 PUSH1 0x0 SWAP1 SLOAD SWAP1 PUSH2 0x100 EXP SWAP1 DIV PUSH20 0xFFFFFFFFFFFFFFFFFFFFFFFFFFFFFFFFFFFFFFFF AND DUP9 PUSH2 0x2F74 DUP6 PUSH1 0x0 PUSH2 0x40F0 JUMP JUMPDEST PUSH2 0x5120 JUMP JUMPDEST JUMPDEST PUSH1 0x0 DUP2 GT ISZERO PUSH2 0x2FBB JUMPI PUSH2 0x2FBA PUSH1 0x26 PUSH1 0x0 SWAP1 SLOAD SWAP1 PUSH2 0x100 EXP SWAP1 DIV PUSH20 0xFFFFFFFFFFFFFFFFFFFFFFFFFFFFFFFFFFFFFFFF AND DUP9 PUSH2 0x2FB5 DUP5 PUSH1 0x0 PUSH2 0x4480 JUMP JUMPDEST PUSH2 0x5120 JUMP JUMPDEST JUMPDEST JUMPDEST JUMPDEST POP POP POP POP PUSH1 0x1 PUSH1 0x2F DUP2 SWAP1 SSTORE POP POP POP POP JUMP JUMPDEST PUSH1 0x10 SLOAD DUP2 JUMP JUMPDEST PUSH1 0x0 PUSH2 0x2FE1 CALLER DUP5 DUP5 PUSH2 0x3B88 JUMP JUMPDEST PUSH1 0x1 SWAP1 POP SWAP3 SWAP2 POP POP JUMP JUMPDEST PUSH1 0x24 SLOAD DUP2 JUMP JUMPDEST PUSH1 0x27 PUSH1 0x0 SWAP1 SLOAD SWAP1 PUSH2 0x100 EXP SWAP1 DIV PUSH20 0xFFFFFFFFFFFFFFFFFFFFFFFFFFFFFFFFFFFFFFFF AND DUP2 JUMP JUMPDEST PUSH1 0x1 PUSH1 0x2F SLOAD EQ PUSH2 0x305C JUMPI PUSH1 0x40 MLOAD PUSH32 0x8C379A000000000000000000000000000000000000000000000000000000000 DUP2 MSTORE PUSH1 0x4 ADD PUSH2 0x3053 SWAP1 PUSH2 0x6559 JUMP JUMPDEST PUSH1 0x40 MLOAD DUP1 SWAP2 SUB SWAP1 REVERT JUMPDEST PUSH1 0x0 PUSH1 0x2F DUP2 SWAP1 SSTORE POP PUSH2 0x314F PUSH1 0x26 PUSH1 0x0 SWAP1 SLOAD SWAP1 PUSH2 0x100 EXP SWAP1 DIV PUSH20 0xFFFFFFFFFFFFFFFFFFFFFFFFFFFFFFFFFFFFFFFF AND DUP3 PUSH2 0x314A PUSH1 0x14 SLOAD PUSH1 0x26 PUSH1 0x0 SWAP1 SLOAD SWAP1 PUSH2 0x100 EXP SWAP1 DIV PUSH20 0xFFFFFFFFFFFFFFFFFFFFFFFFFFFFFFFFFFFFFFFF AND PUSH20 0xFFFFFFFFFFFFFFFFFFFFFFFFFFFFFFFFFFFFFFFF AND PUSH4 0x70A08231 ADDRESS PUSH1 0x40 MLOAD DUP3 PUSH4 0xFFFFFFFF AND PUSH1 0xE0 SHL DUP2 MSTORE PUSH1 0x4 ADD PUSH2 0x30EC SWAP2 SWAP1 PUSH2 0x6292 JUMP JUMPDEST PUSH1 0x20 PUSH1 0x40 MLOAD DUP1 DUP4 SUB DUP2 DUP7 DUP1 EXTCODESIZE ISZERO DUP1 ISZERO PUSH2 0x3104 JUMPI PUSH1 0x0 DUP1 REVERT JUMPDEST POP GAS STATICCALL ISZERO DUP1 ISZERO PUSH2 0x3118 JUMPI RETURNDATASIZE PUSH1 0x0 DUP1 RETURNDATACOPY RETURNDATASIZE PUSH1 0x0 REVERT JUMPDEST POP POP POP POP PUSH1 0x40 MLOAD RETURNDATASIZE PUSH1 0x1F NOT PUSH1 0x1F DUP3 ADD AND DUP3 ADD DUP1 PUSH1 0x40 MSTORE POP DUP2 ADD SWAP1 PUSH2 0x313C SWAP2 SWAP1 PUSH2 0x5EAD JUMP JUMPDEST PUSH2 0x3B2F SWAP1 SWAP2 SWAP1 PUSH4 0xFFFFFFFF AND JUMP JUMPDEST PUSH2 0x5120 JUMP JUMPDEST PUSH2 0x323A PUSH1 0x27 PUSH1 0x0 SWAP1 SLOAD SWAP1 PUSH2 0x100 EXP SWAP1 DIV PUSH20 0xFFFFFFFFFFFFFFFFFFFFFFFFFFFFFFFFFFFFFFFF AND DUP3 PUSH2 0x3235 PUSH1 0x13 SLOAD PUSH1 0x27 PUSH1 0x0 SWAP1 SLOAD SWAP1 PUSH2 0x100 EXP SWAP1 DIV PUSH20 0xFFFFFFFFFFFFFFFFFFFFFFFFFFFFFFFFFFFFFFFF AND PUSH20 0xFFFFFFFFFFFFFFFFFFFFFFFFFFFFFFFFFFFFFFFF AND PUSH4 0x70A08231 ADDRESS PUSH1 0x40 MLOAD DUP3 PUSH4 0xFFFFFFFF AND PUSH1 0xE0 SHL DUP2 MSTORE PUSH1 0x4 ADD PUSH2 0x31D7 SWAP2 SWAP1 PUSH2 0x6292 JUMP JUMPDEST PUSH1 0x20 PUSH1 0x40 MLOAD DUP1 DUP4 SUB DUP2 DUP7 DUP1 EXTCODESIZE ISZERO DUP1 ISZERO PUSH2 0x31EF JUMPI PUSH1 0x0 DUP1 REVERT JUMPDEST POP GAS STATICCALL ISZERO DUP1 ISZERO PUSH2 0x3203 JUMPI RETURNDATASIZE PUSH1 0x0 DUP1 RETURNDATACOPY RETURNDATASIZE PUSH1 0x0 REVERT JUMPDEST POP POP POP POP PUSH1 0x40 MLOAD RETURNDATASIZE PUSH1 0x1F NOT PUSH1 0x1F DUP3 ADD AND DUP3 ADD DUP1 PUSH1 0x40 MSTORE POP DUP2 ADD SWAP1 PUSH2 0x3227 SWAP2 SWAP1 PUSH2 0x5EAD JUMP JUMPDEST PUSH2 0x3B2F SWAP1 SWAP2 SWAP1 PUSH4 0xFFFFFFFF AND JUMP JUMPDEST PUSH2 0x5120 JUMP JUMPDEST PUSH1 0x1 PUSH1 0x2F DUP2 SWAP1 SSTORE POP POP JUMP JUMPDEST PUSH1 0x1 PUSH1 0x2F SLOAD EQ PUSH2 0x328A JUMPI PUSH1 0x40 MLOAD PUSH32 0x8C379A000000000000000000000000000000000000000000000000000000000 DUP2 MSTORE PUSH1 0x4 ADD PUSH2 0x3281 SWAP1 PUSH2 0x6559 JUMP JUMPDEST PUSH1 0x40 MLOAD DUP1 SWAP2 SUB SWAP1 REVERT JUMPDEST PUSH1 0x0 PUSH1 0x2F DUP2 SWAP1 SSTORE POP PUSH2 0x329B DUP3 PUSH2 0x3D1C JUMP JUMPDEST PUSH2 0x32A4 DUP4 PUSH2 0x3E10 JUMP JUMPDEST PUSH2 0x32AD DUP5 PUSH2 0x3EF5 JUMP JUMPDEST PUSH2 0x32B7 SWAP2 SWAP1 PUSH2 0x6615 JUMP JUMPDEST GT ISZERO DUP1 PUSH2 0x3307 JUMPI POP PUSH1 0x2A SLOAD PUSH2 0x32CB DUP4 PUSH2 0x3E10 JUMP JUMPDEST PUSH2 0x32D5 SWAP2 SWAP1 PUSH2 0x680D JUMP JUMPDEST PUSH2 0x32DE DUP4 PUSH2 0x3D1C JUMP JUMPDEST PUSH2 0x32E7 DUP5 PUSH2 0x3E10 JUMP JUMPDEST PUSH2 0x32F0 DUP6 PUSH2 0x3EF5 JUMP JUMPDEST PUSH2 0x32FA SWAP2 SWAP1 PUSH2 0x6615 JUMP JUMPDEST PUSH2 0x3304 SWAP2 SWAP1 PUSH2 0x6867 JUMP JUMPDEST GT ISZERO JUMPDEST PUSH2 0x3346 JUMPI PUSH1 0x40 MLOAD PUSH32 0x8C379A000000000000000000000000000000000000000000000000000000000 DUP2 MSTORE PUSH1 0x4 ADD PUSH2 0x333D SWAP1 PUSH2 0x6479 JUMP JUMPDEST PUSH1 0x40 MLOAD DUP1 SWAP2 SUB SWAP1 REVERT JUMPDEST PUSH2 0x33D3 PUSH1 0x26 PUSH1 0x0 SWAP1 SLOAD SWAP1 PUSH2 0x100 EXP SWAP1 DIV PUSH20 0xFFFFFFFFFFFFFFFFFFFFFFFFFFFFFFFFFFFFFFFF AND DUP3 PUSH1 0x2B SLOAD PUSH1 0x33 PUSH1 0x0 DUP8 PUSH20 0xFFFFFFFFFFFFFFFFFFFFFFFFFFFFFFFFFFFFFFFF AND PUSH20 0xFFFFFFFFFFFFFFFFFFFFFFFFFFFFFFFFFFFFFFFF AND DUP2 MSTORE PUSH1 0x20 ADD SWAP1 DUP2 MSTORE PUSH1 0x20 ADD PUSH1 0x0 KECCAK256 PUSH1 0x0 PUSH1 0x2 DUP2 LT PUSH2 0x33C2 JUMPI PUSH2 0x33C1 PUSH2 0x69DE JUMP JUMPDEST JUMPDEST ADD SLOAD PUSH2 0x33CE SWAP2 SWAP1 PUSH2 0x680D JUMP JUMPDEST PUSH2 0x5120 JUMP JUMPDEST PUSH2 0x3460 PUSH1 0x27 PUSH1 0x0 SWAP1 SLOAD SWAP1 PUSH2 0x100 EXP SWAP1 DIV PUSH20 0xFFFFFFFFFFFFFFFFFFFFFFFFFFFFFFFFFFFFFFFF AND DUP3 PUSH1 0x2B SLOAD PUSH1 0x33 PUSH1 0x0 DUP8 PUSH20 0xFFFFFFFFFFFFFFFFFFFFFFFFFFFFFFFFFFFFFFFF AND PUSH20 0xFFFFFFFFFFFFFFFFFFFFFFFFFFFFFFFFFFFFFFFF AND DUP2 MSTORE PUSH1 0x20 ADD SWAP1 DUP2 MSTORE PUSH1 0x20 ADD PUSH1 0x0 KECCAK256 PUSH1 0x1 PUSH1 0x2 DUP2 LT PUSH2 0x344F JUMPI PUSH2 0x344E PUSH2 0x69DE JUMP JUMPDEST JUMPDEST ADD SLOAD PUSH2 0x345B SWAP2 SWAP1 PUSH2 0x680D JUMP JUMPDEST PUSH2 0x5120 JUMP JUMPDEST PUSH1 0x33 PUSH1 0x0 DUP4 PUSH20 0xFFFFFFFFFFFFFFFFFFFFFFFFFFFFFFFFFFFFFFFF AND PUSH20 0xFFFFFFFFFFFFFFFFFFFFFFFFFFFFFFFFFFFFFFFF AND DUP2 MSTORE PUSH1 0x20 ADD SWAP1 DUP2 MSTORE PUSH1 0x20 ADD PUSH1 0x0 KECCAK256 PUSH1 0x0 PUSH2 0x34AB SWAP2 SWAP1 PUSH2 0x5B7D JUMP JUMPDEST PUSH1 0x0 PUSH1 0x32 PUSH1 0x0 DUP5 PUSH20 0xFFFFFFFFFFFFFFFFFFFFFFFFFFFFFFFFFFFFFFFF AND PUSH20 0xFFFFFFFFFFFFFFFFFFFFFFFFFFFFFFFFFFFFFFFF AND DUP2 MSTORE PUSH1 0x20 ADD SWAP1 DUP2 MSTORE PUSH1 0x20 ADD PUSH1 0x0 KECCAK256 PUSH1 0x0 DUP1 ISZERO ISZERO ISZERO ISZERO DUP2 MSTORE PUSH1 0x20 ADD SWAP1 DUP2 MSTORE PUSH1 0x20 ADD PUSH1 0x0 KECCAK256 PUSH1 0x1 ADD DUP2 SWAP1 SSTORE POP PUSH1 0x0 PUSH1 0x32 PUSH1 0x0 DUP5 PUSH20 0xFFFFFFFFFFFFFFFFFFFFFFFFFFFFFFFFFFFFFFFF AND PUSH20 0xFFFFFFFFFFFFFFFFFFFFFFFFFFFFFFFFFFFFFFFF AND DUP2 MSTORE PUSH1 0x20 ADD SWAP1 DUP2 MSTORE PUSH1 0x20 ADD PUSH1 0x0 KECCAK256 PUSH1 0x0 PUSH1 0x1 ISZERO ISZERO ISZERO ISZERO DUP2 MSTORE PUSH1 0x20 ADD SWAP1 DUP2 MSTORE PUSH1 0x20 ADD PUSH1 0x0 KECCAK256 PUSH1 0x1 ADD DUP2 SWAP1 SSTORE POP PUSH2 0x3620 PUSH1 0x32 PUSH1 0x0 DUP5 PUSH20 0xFFFFFFFFFFFFFFFFFFFFFFFFFFFFFFFFFFFFFFFF AND PUSH20 0xFFFFFFFFFFFFFFFFFFFFFFFFFFFFFFFFFFFFFFFF AND DUP2 MSTORE PUSH1 0x20 ADD SWAP1 DUP2 MSTORE PUSH1 0x20 ADD PUSH1 0x0 KECCAK256 PUSH1 0x0 DUP1 ISZERO ISZERO ISZERO ISZERO DUP2 MSTORE PUSH1 0x20 ADD SWAP1 DUP2 MSTORE PUSH1 0x20 ADD PUSH1 0x0 KECCAK256 PUSH1 0x2 ADD SLOAD PUSH1 0x32 PUSH1 0x0 DUP6 PUSH20 0xFFFFFFFFFFFFFFFFFFFFFFFFFFFFFFFFFFFFFFFF AND PUSH20 0xFFFFFFFFFFFFFFFFFFFFFFFFFFFFFFFFFFFFFFFF AND DUP2 MSTORE PUSH1 0x20 ADD SWAP1 DUP2 MSTORE PUSH1 0x20 ADD PUSH1 0x0 KECCAK256 PUSH1 0x0 PUSH1 0x1 ISZERO ISZERO ISZERO ISZERO DUP2 MSTORE PUSH1 0x20 ADD SWAP1 DUP2 MSTORE PUSH1 0x20 ADD PUSH1 0x0 KECCAK256 PUSH1 0x2 ADD SLOAD DUP5 PUSH2 0x120A JUMP JUMPDEST PUSH1 0x1 PUSH1 0x2F DUP2 SWAP1 SSTORE POP POP POP JUMP JUMPDEST PUSH1 0x25 PUSH1 0x0 SWAP1 SLOAD SWAP1 PUSH2 0x100 EXP SWAP1 DIV PUSH20 0xFFFFFFFFFFFFFFFFFFFFFFFFFFFFFFFFFFFFFFFF AND DUP2 JUMP JUMPDEST PUSH1 0x20 PUSH1 0x0 SWAP1 SLOAD SWAP1 PUSH2 0x100 EXP SWAP1 DIV PUSH1 0xFF AND DUP2 JUMP JUMPDEST PUSH1 0x23 SLOAD DUP2 JUMP JUMPDEST PUSH1 0x25 PUSH1 0x0 SWAP1 SLOAD SWAP1 PUSH2 0x100 EXP SWAP1 DIV PUSH20 0xFFFFFFFFFFFFFFFFFFFFFFFFFFFFFFFFFFFFFFFF AND PUSH20 0xFFFFFFFFFFFFFFFFFFFFFFFFFFFFFFFFFFFFFFFF AND CALLER PUSH20 0xFFFFFFFFFFFFFFFFFFFFFFFFFFFFFFFFFFFFFFFF AND EQ PUSH2 0x36FB JUMPI PUSH1 0x40 MLOAD PUSH32 0x8C379A000000000000000000000000000000000000000000000000000000000 DUP2 MSTORE PUSH1 0x4 ADD PUSH2 0x36F2 SWAP1 PUSH2 0x6479 JUMP JUMPDEST PUSH1 0x40 MLOAD DUP1 SWAP2 SUB SWAP1 REVERT JUMPDEST DUP1 PUSH1 0x28 DUP2 SWAP1 SSTORE POP POP JUMP JUMPDEST PUSH1 0x18 SLOAD DUP2 JUMP JUMPDEST TIMESTAMP DUP5 LT ISZERO PUSH2 0x374E JUMPI PUSH1 0x40 MLOAD PUSH32 0x8C379A000000000000000000000000000000000000000000000000000000000 DUP2 MSTORE PUSH1 0x4 ADD PUSH2 0x3745 SWAP1 PUSH2 0x64D9 JUMP JUMPDEST PUSH1 0x40 MLOAD DUP1 SWAP2 SUB SWAP1 REVERT JUMPDEST PUSH1 0x0 PUSH1 0x3 SLOAD PUSH32 0x6E71EDAE12B1B97F4D1F60370FEF10105FA2FAAE0126114A169C64845D6126C9 PUSH1 0x0 SHL DUP10 DUP10 DUP10 PUSH1 0x4 PUSH1 0x0 DUP15 PUSH20 0xFFFFFFFFFFFFFFFFFFFFFFFFFFFFFFFFFFFFFFFF AND PUSH20 0xFFFFFFFFFFFFFFFFFFFFFFFFFFFFFFFFFFFFFFFF AND DUP2 MSTORE PUSH1 0x20 ADD SWAP1 DUP2 MSTORE PUSH1 0x20 ADD PUSH1 0x0 KECCAK256 PUSH1 0x0 DUP2 SLOAD DUP1 SWAP3 SWAP2 SWAP1 PUSH2 0x37CA SWAP1 PUSH2 0x692D JUMP JUMPDEST SWAP2 SWAP1 POP SSTORE DUP11 PUSH1 0x40 MLOAD PUSH1 0x20 ADD PUSH2 0x37E4 SWAP7 SWAP6 SWAP5 SWAP4 SWAP3 SWAP2 SWAP1 PUSH2 0x6351 JUMP JUMPDEST PUSH1 0x40 MLOAD PUSH1 0x20 DUP2 DUP4 SUB SUB DUP2 MSTORE SWAP1 PUSH1 0x40 MSTORE DUP1 MLOAD SWAP1 PUSH1 0x20 ADD KECCAK256 PUSH1 0x40 MLOAD PUSH1 0x20 ADD PUSH2 0x380B SWAP3 SWAP2 SWAP1 PUSH2 0x625B JUMP JUMPDEST PUSH1 0x40 MLOAD PUSH1 0x20 DUP2 DUP4 SUB SUB DUP2 MSTORE SWAP1 PUSH1 0x40 MSTORE DUP1 MLOAD SWAP1 PUSH1 0x20 ADD KECCAK256 SWAP1 POP PUSH1 0x0 PUSH1 0x1 DUP3 DUP7 DUP7 DUP7 PUSH1 0x40 MLOAD PUSH1 0x0 DUP2 MSTORE PUSH1 0x20 ADD PUSH1 0x40 MSTORE PUSH1 0x40 MLOAD PUSH2 0x3848 SWAP5 SWAP4 SWAP3 SWAP2 SWAP1 PUSH2 0x63B2 JUMP JUMPDEST PUSH1 0x20 PUSH1 0x40 MLOAD PUSH1 0x20 DUP2 SUB SWAP1 DUP1 DUP5 SUB SWAP1 DUP6 GAS STATICCALL ISZERO DUP1 ISZERO PUSH2 0x386A JUMPI RETURNDATASIZE PUSH1 0x0 DUP1 RETURNDATACOPY RETURNDATASIZE PUSH1 0x0 REVERT JUMPDEST POP POP POP PUSH1 0x20 PUSH1 0x40 MLOAD SUB MLOAD SWAP1 POP PUSH1 0x0 PUSH20 0xFFFFFFFFFFFFFFFFFFFFFFFFFFFFFFFFFFFFFFFF AND DUP2 PUSH20 0xFFFFFFFFFFFFFFFFFFFFFFFFFFFFFFFFFFFFFFFF AND EQ ISZERO DUP1 ISZERO PUSH2 0x38DE JUMPI POP DUP9 PUSH20 0xFFFFFFFFFFFFFFFFFFFFFFFFFFFFFFFFFFFFFFFF AND DUP2 PUSH20 0xFFFFFFFFFFFFFFFFFFFFFFFFFFFFFFFFFFFFFFFF AND EQ JUMPDEST PUSH2 0x391D JUMPI PUSH1 0x40 MLOAD PUSH32 0x8C379A000000000000000000000000000000000000000000000000000000000 DUP2 MSTORE PUSH1 0x4 ADD PUSH2 0x3914 SWAP1 PUSH2 0x6499 JUMP JUMPDEST PUSH1 0x40 MLOAD DUP1 SWAP2 SUB SWAP1 REVERT JUMPDEST PUSH2 0x3928 DUP10 DUP10 DUP10 PUSH2 0x3A44 JUMP JUMPDEST POP POP POP POP POP POP POP POP POP JUMP JUMPDEST PUSH1 0x2 PUSH1 0x20 MSTORE DUP2 PUSH1 0x0 MSTORE PUSH1 0x40 PUSH1 0x0 KECCAK256 PUSH1 0x20 MSTORE DUP1 PUSH1 0x0 MSTORE PUSH1 0x40 PUSH1 0x0 KECCAK256 PUSH1 0x0 SWAP2 POP SWAP2 POP POP SLOAD DUP2 JUMP JUMPDEST PUSH1 0x2E SLOAD DUP2 JUMP JUMPDEST PUSH1 0xF SLOAD DUP2 JUMP JUMPDEST PUSH1 0x21 SLOAD DUP2 JUMP JUMPDEST PUSH1 0x11 SLOAD DUP2 JUMP JUMPDEST PUSH1 0x2B SLOAD DUP2 JUMP JUMPDEST PUSH1 0x8 SLOAD DUP2 JUMP JUMPDEST PUSH1 0x33 PUSH1 0x20 MSTORE DUP2 PUSH1 0x0 MSTORE PUSH1 0x40 PUSH1 0x0 KECCAK256 DUP2 PUSH1 0x2 DUP2 LT PUSH2 0x3998 JUMPI PUSH1 0x0 DUP1 REVERT JUMPDEST ADD PUSH1 0x0 SWAP2 POP SWAP2 POP POP SLOAD DUP2 JUMP JUMPDEST PUSH1 0xD SLOAD DUP2 JUMP JUMPDEST PUSH1 0x25 PUSH1 0x0 SWAP1 SLOAD SWAP1 PUSH2 0x100 EXP SWAP1 DIV PUSH20 0xFFFFFFFFFFFFFFFFFFFFFFFFFFFFFFFFFFFFFFFF AND PUSH20 0xFFFFFFFFFFFFFFFFFFFFFFFFFFFFFFFFFFFFFFFF AND CALLER PUSH20 0xFFFFFFFFFFFFFFFFFFFFFFFFFFFFFFFFFFFFFFFF AND EQ PUSH2 0x3A3A JUMPI PUSH1 0x40 MLOAD PUSH32 0x8C379A000000000000000000000000000000000000000000000000000000000 DUP2 MSTORE PUSH1 0x4 ADD PUSH2 0x3A31 SWAP1 PUSH2 0x6479 JUMP JUMPDEST PUSH1 0x40 MLOAD DUP1 SWAP2 SUB SWAP1 REVERT JUMPDEST DUP1 PUSH1 0x2A DUP2 SWAP1 SSTORE POP POP JUMP JUMPDEST DUP1 PUSH1 0x2 PUSH1 0x0 DUP6 PUSH20 0xFFFFFFFFFFFFFFFFFFFFFFFFFFFFFFFFFFFFFFFF AND PUSH20 0xFFFFFFFFFFFFFFFFFFFFFFFFFFFFFFFFFFFFFFFF AND DUP2 MSTORE PUSH1 0x20 ADD SWAP1 DUP2 MSTORE PUSH1 0x20 ADD PUSH1 0x0 KECCAK256 PUSH1 0x0 DUP5 PUSH20 0xFFFFFFFFFFFFFFFFFFFFFFFFFFFFFFFFFFFFFFFF AND PUSH20 0xFFFFFFFFFFFFFFFFFFFFFFFFFFFFFFFFFFFFFFFF AND DUP2 MSTORE PUSH1 0x20 ADD SWAP1 DUP2 MSTORE PUSH1 0x20 ADD PUSH1 0x0 KECCAK256 DUP2 SWAP1 SSTORE POP DUP2 PUSH20 0xFFFFFFFFFFFFFFFFFFFFFFFFFFFFFFFFFFFFFFFF AND DUP4 PUSH20 0xFFFFFFFFFFFFFFFFFFFFFFFFFFFFFFFFFFFFFFFF AND PUSH32 0x8C5BE1E5EBEC7D5BD14F71427D1E84F3DD0314C0F7B2291E5B200AC8C7C3B925 DUP4 PUSH1 0x40 MLOAD PUSH2 0x3B22 SWAP2 SWAP1 PUSH2 0x6579 JUMP JUMPDEST PUSH1 0x40 MLOAD DUP1 SWAP2 SUB SWAP1 LOG3 POP POP POP JUMP JUMPDEST PUSH1 0x0 DUP3 DUP3 DUP5 PUSH2 0x3B3E SWAP2 SWAP1 PUSH2 0x6867 JUMP JUMPDEST SWAP2 POP DUP2 GT ISZERO PUSH2 0x3B82 JUMPI PUSH1 0x40 MLOAD PUSH32 0x8C379A000000000000000000000000000000000000000000000000000000000 DUP2 MSTORE PUSH1 0x4 ADD PUSH2 0x3B79 SWAP1 PUSH2 0x6419 JUMP JUMPDEST PUSH1 0x40 MLOAD DUP1 SWAP2 SUB SWAP1 REVERT JUMPDEST SWAP3 SWAP2 POP POP JUMP JUMPDEST PUSH2 0x3BDA DUP2 PUSH1 0x1 PUSH1 0x0 DUP7 PUSH20 0xFFFFFFFFFFFFFFFFFFFFFFFFFFFFFFFFFFFFFFFF AND PUSH20 0xFFFFFFFFFFFFFFFFFFFFFFFFFFFFFFFFFFFFFFFF AND DUP2 MSTORE PUSH1 0x20 ADD SWAP1 DUP2 MSTORE PUSH1 0x20 ADD PUSH1 0x0 KECCAK256 SLOAD PUSH2 0x3B2F SWAP1 SWAP2 SWAP1 PUSH4 0xFFFFFFFF AND JUMP JUMPDEST PUSH1 0x1 PUSH1 0x0 DUP6 PUSH20 0xFFFFFFFFFFFFFFFFFFFFFFFFFFFFFFFFFFFFFFFF AND PUSH20 0xFFFFFFFFFFFFFFFFFFFFFFFFFFFFFFFFFFFFFFFF AND DUP2 MSTORE PUSH1 0x20 ADD SWAP1 DUP2 MSTORE PUSH1 0x20 ADD PUSH1 0x0 KECCAK256 DUP2 SWAP1 SSTORE POP PUSH2 0x3C6F DUP2 PUSH1 0x1 PUSH1 0x0 DUP6 PUSH20 0xFFFFFFFFFFFFFFFFFFFFFFFFFFFFFFFFFFFFFFFF AND PUSH20 0xFFFFFFFFFFFFFFFFFFFFFFFFFFFFFFFFFFFFFFFF AND DUP2 MSTORE PUSH1 0x20 ADD SWAP1 DUP2 MSTORE PUSH1 0x20 ADD PUSH1 0x0 KECCAK256 SLOAD PUSH2 0x52C3 SWAP1 SWAP2 SWAP1 PUSH4 0xFFFFFFFF AND JUMP JUMPDEST PUSH1 0x1 PUSH1 0x0 DUP5 PUSH20 0xFFFFFFFFFFFFFFFFFFFFFFFFFFFFFFFFFFFFFFFF AND PUSH20 0xFFFFFFFFFFFFFFFFFFFFFFFFFFFFFFFFFFFFFFFF AND DUP2 MSTORE PUSH1 0x20 ADD SWAP1 DUP2 MSTORE PUSH1 0x20 ADD PUSH1 0x0 KECCAK256 DUP2 SWAP1 SSTORE POP DUP2 PUSH20 0xFFFFFFFFFFFFFFFFFFFFFFFFFFFFFFFFFFFFFFFF AND DUP4 PUSH20 0xFFFFFFFFFFFFFFFFFFFFFFFFFFFFFFFFFFFFFFFF AND PUSH32 0xDDF252AD1BE2C89B69C2B068FC378DAA952BA7F163C4A11628F55A4DF523B3EF DUP4 PUSH1 0x40 MLOAD PUSH2 0x3D0F SWAP2 SWAP1 PUSH2 0x6579 JUMP JUMPDEST PUSH1 0x40 MLOAD DUP1 SWAP2 SUB SWAP1 LOG3 POP POP POP JUMP JUMPDEST PUSH1 0x0 PUSH2 0x3D98 PUSH2 0x3D8D PUSH1 0x32 PUSH1 0x0 DUP6 PUSH20 0xFFFFFFFFFFFFFFFFFFFFFFFFFFFFFFFFFFFFFFFF AND PUSH20 0xFFFFFFFFFFFFFFFFFFFFFFFFFFFFFFFFFFFFFFFF AND DUP2 MSTORE PUSH1 0x20 ADD SWAP1 DUP2 MSTORE PUSH1 0x20 ADD PUSH1 0x0 KECCAK256 PUSH1 0x0 DUP1 ISZERO ISZERO ISZERO ISZERO DUP2 MSTORE PUSH1 0x20 ADD SWAP1 DUP2 MSTORE PUSH1 0x20 ADD PUSH1 0x0 KECCAK256 PUSH1 0x1 ADD SLOAD PUSH1 0x19 SLOAD PUSH1 0x17 SLOAD PUSH1 0x1B SLOAD PUSH1 0x2C SLOAD PUSH2 0x4424 JUMP JUMPDEST PUSH1 0xD SLOAD PUSH1 0xE SLOAD PUSH2 0x445E JUMP JUMPDEST PUSH2 0x3DFF PUSH1 0x32 PUSH1 0x0 DUP6 PUSH20 0xFFFFFFFFFFFFFFFFFFFFFFFFFFFFFFFFFFFFFFFF AND PUSH20 0xFFFFFFFFFFFFFFFFFFFFFFFFFFFFFFFFFFFFFFFF AND DUP2 MSTORE PUSH1 0x20 ADD SWAP1 DUP2 MSTORE PUSH1 0x20 ADD PUSH1 0x0 KECCAK256 PUSH1 0x0 PUSH1 0x1 ISZERO ISZERO ISZERO ISZERO DUP2 MSTORE PUSH1 0x20 ADD SWAP1 DUP2 MSTORE PUSH1 0x20 ADD PUSH1 0x0 KECCAK256 PUSH1 0x1 ADD SLOAD PUSH1 0x1A SLOAD PUSH1 0x1C SLOAD PUSH2 0x445E JUMP JUMPDEST PUSH2 0x3E09 SWAP2 SWAP1 PUSH2 0x6615 JUMP JUMPDEST SWAP1 POP SWAP2 SWAP1 POP JUMP JUMPDEST PUSH1 0x0 PUSH2 0x3E7F PUSH1 0x32 PUSH1 0x0 DUP5 PUSH20 0xFFFFFFFFFFFFFFFFFFFFFFFFFFFFFFFFFFFFFFFF AND PUSH20 0xFFFFFFFFFFFFFFFFFFFFFFFFFFFFFFFFFFFFFFFF AND DUP2 MSTORE PUSH1 0x20 ADD SWAP1 DUP2 MSTORE PUSH1 0x20 ADD PUSH1 0x0 KECCAK256 PUSH1 0x0 PUSH1 0x1 ISZERO ISZERO ISZERO ISZERO DUP2 MSTORE PUSH1 0x20 ADD SWAP1 DUP2 MSTORE PUSH1 0x20 ADD PUSH1 0x0 KECCAK256 PUSH1 0x2 ADD SLOAD PUSH1 0x17 SLOAD PUSH1 0xD SLOAD PUSH1 0xE SLOAD PUSH1 0x2C SLOAD PUSH2 0x4424 JUMP JUMPDEST PUSH1 0x2C SLOAD PUSH1 0x32 PUSH1 0x0 DUP6 PUSH20 0xFFFFFFFFFFFFFFFFFFFFFFFFFFFFFFFFFFFFFFFF AND PUSH20 0xFFFFFFFFFFFFFFFFFFFFFFFFFFFFFFFFFFFFFFFF AND DUP2 MSTORE PUSH1 0x20 ADD SWAP1 DUP2 MSTORE PUSH1 0x20 ADD PUSH1 0x0 KECCAK256 PUSH1 0x0 DUP1 ISZERO ISZERO ISZERO ISZERO DUP2 MSTORE PUSH1 0x20 ADD SWAP1 DUP2 MSTORE PUSH1 0x20 ADD PUSH1 0x0 KECCAK256 PUSH1 0x2 ADD SLOAD PUSH2 0x3EE4 SWAP2 SWAP1 PUSH2 0x680D JUMP JUMPDEST PUSH2 0x3EEE SWAP2 SWAP1 PUSH2 0x6615 JUMP JUMPDEST SWAP1 POP SWAP2 SWAP1 POP JUMP JUMPDEST PUSH1 0x0 PUSH2 0x3F5F PUSH1 0x33 PUSH1 0x0 DUP5 PUSH20 0xFFFFFFFFFFFFFFFFFFFFFFFFFFFFFFFFFFFFFFFF AND PUSH20 0xFFFFFFFFFFFFFFFFFFFFFFFFFFFFFFFFFFFFFFFF AND DUP2 MSTORE PUSH1 0x20 ADD SWAP1 DUP2 MSTORE PUSH1 0x20 ADD PUSH1 0x0 KECCAK256 PUSH1 0x1 PUSH1 0x2 DUP2 LT PUSH2 0x3F4C JUMPI PUSH2 0x3F4B PUSH2 0x69DE JUMP JUMPDEST JUMPDEST ADD SLOAD PUSH1 0x17 SLOAD PUSH1 0xD SLOAD PUSH1 0xE SLOAD PUSH1 0x2C SLOAD PUSH2 0x4424 JUMP JUMPDEST PUSH1 0x33 PUSH1 0x0 DUP5 PUSH20 0xFFFFFFFFFFFFFFFFFFFFFFFFFFFFFFFFFFFFFFFF AND PUSH20 0xFFFFFFFFFFFFFFFFFFFFFFFFFFFFFFFFFFFFFFFF AND DUP2 MSTORE PUSH1 0x20 ADD SWAP1 DUP2 MSTORE PUSH1 0x20 ADD PUSH1 0x0 KECCAK256 PUSH1 0x0 PUSH1 0x2 DUP2 LT PUSH2 0x3FB1 JUMPI PUSH2 0x3FB0 PUSH2 0x69DE JUMP JUMPDEST JUMPDEST ADD SLOAD PUSH2 0x3FBD SWAP2 SWAP1 PUSH2 0x6615 JUMP JUMPDEST SWAP1 POP SWAP2 SWAP1 POP JUMP JUMPDEST PUSH1 0x0 DUP1 PUSH2 0x3FCF PUSH2 0x531C JUMP JUMPDEST SWAP2 POP SWAP2 POP PUSH1 0x0 PUSH1 0x1F SLOAD NUMBER PUSH2 0x3FE3 SWAP2 SWAP1 PUSH2 0x6867 JUMP JUMPDEST SWAP1 POP NUMBER PUSH1 0x1F DUP2 SWAP1 SSTORE POP PUSH1 0x0 PUSH2 0x3FFF PUSH1 0x17 SLOAD PUSH1 0xD SLOAD PUSH1 0xE SLOAD PUSH2 0x445E JUMP JUMPDEST SWAP1 POP PUSH1 0x0 ISZERO ISZERO PUSH1 0x20 PUSH1 0x0 SWAP1 SLOAD SWAP1 PUSH2 0x100 EXP SWAP1 DIV PUSH1 0xFF AND ISZERO ISZERO EQ ISZERO PUSH2 0x407C JUMPI PUSH2 0x403E PUSH1 0x19 SLOAD PUSH1 0x1E SLOAD PUSH1 0x2C SLOAD PUSH2 0x4033 SWAP2 SWAP1 PUSH2 0x6615 JUMP JUMPDEST DUP5 PUSH1 0x2C SLOAD PUSH1 0x1 PUSH2 0x4424 JUMP JUMPDEST PUSH1 0x19 DUP2 SWAP1 SSTORE POP DUP2 PUSH2 0x405A PUSH1 0x1E SLOAD PUSH1 0x19 SLOAD DUP5 PUSH1 0x2C SLOAD PUSH1 0x2C SLOAD PUSH2 0x4424 JUMP JUMPDEST PUSH2 0x4064 SWAP2 SWAP1 PUSH2 0x680D JUMP JUMPDEST PUSH1 0x1A SLOAD PUSH2 0x4071 SWAP2 SWAP1 PUSH2 0x6867 JUMP JUMPDEST PUSH1 0x1A DUP2 SWAP1 SSTORE POP PUSH2 0x40C9 JUMP JUMPDEST PUSH2 0x409D PUSH1 0x1A SLOAD PUSH1 0x1E SLOAD PUSH1 0x2C SLOAD PUSH2 0x4092 SWAP2 SWAP1 PUSH2 0x6615 JUMP JUMPDEST DUP5 PUSH1 0x2C SLOAD PUSH1 0x1 PUSH2 0x4424 JUMP JUMPDEST PUSH1 0x1A DUP2 SWAP1 SSTORE POP PUSH2 0x40B5 PUSH1 0x1E SLOAD PUSH1 0x1A SLOAD DUP5 DUP5 PUSH1 0x1 PUSH2 0x4424 JUMP JUMPDEST PUSH1 0x19 SLOAD PUSH2 0x40C2 SWAP2 SWAP1 PUSH2 0x6867 JUMP JUMPDEST PUSH1 0x19 DUP2 SWAP1 SSTORE POP JUMPDEST DUP4 PUSH1 0x1E DUP2 SWAP1 SSTORE POP DUP3 PUSH1 0x20 PUSH1 0x0 PUSH2 0x100 EXP DUP2 SLOAD DUP2 PUSH1 0xFF MUL NOT AND SWAP1 DUP4 ISZERO ISZERO MUL OR SWAP1 SSTORE POP POP POP POP POP JUMP JUMPDEST PUSH1 0x0 PUSH1 0x1 PUSH1 0x2F SLOAD EQ PUSH2 0x4137 JUMPI PUSH1 0x40 MLOAD PUSH32 0x8C379A000000000000000000000000000000000000000000000000000000000 DUP2 MSTORE PUSH1 0x4 ADD PUSH2 0x412E SWAP1 PUSH2 0x6559 JUMP JUMPDEST PUSH1 0x40 MLOAD DUP1 SWAP2 SUB SWAP1 REVERT JUMPDEST PUSH1 0x0 PUSH1 0x2F DUP2 SWAP1 SSTORE POP PUSH1 0x0 DUP4 SWAP1 POP PUSH1 0x0 PUSH1 0x1 SWAP1 POP JUMPDEST PUSH1 0x1 ISZERO ISZERO DUP2 ISZERO ISZERO EQ ISZERO PUSH2 0x4414 JUMPI PUSH1 0x0 PUSH2 0x416B PUSH1 0x9 SLOAD PUSH1 0x18 SLOAD PUSH1 0x2C SLOAD PUSH2 0x445E JUMP JUMPDEST SWAP1 POP PUSH1 0x0 PUSH2 0x4181 PUSH1 0x5 SLOAD PUSH1 0x6 SLOAD PUSH1 0x7 SLOAD DUP6 PUSH2 0x5482 JUMP JUMPDEST SWAP1 POP PUSH2 0x4192 DUP3 PUSH1 0xB SLOAD PUSH1 0xE SLOAD PUSH2 0x5582 JUMP JUMPDEST DUP5 GT ISZERO PUSH2 0x4319 JUMPI PUSH2 0x41A8 PUSH1 0xC SLOAD DUP3 PUSH1 0xD SLOAD PUSH2 0x5582 JUMP JUMPDEST DUP6 PUSH2 0x41B3 SWAP2 SWAP1 PUSH2 0x6615 JUMP JUMPDEST SWAP5 POP PUSH2 0x41C4 DUP3 PUSH1 0xB SLOAD PUSH1 0xE SLOAD PUSH2 0x5582 JUMP JUMPDEST DUP5 PUSH2 0x41CF SWAP2 SWAP1 PUSH2 0x6867 JUMP JUMPDEST SWAP4 POP PUSH1 0x1 ISZERO ISZERO DUP7 ISZERO ISZERO EQ ISZERO PUSH2 0x420A JUMPI PUSH2 0x41ED PUSH1 0xC SLOAD DUP3 PUSH1 0xD SLOAD PUSH2 0x5582 JUMP JUMPDEST PUSH1 0xF PUSH1 0x0 DUP3 DUP3 SLOAD PUSH2 0x41FE SWAP2 SWAP1 PUSH2 0x6615 JUMP JUMPDEST SWAP3 POP POP DUP2 SWAP1 SSTORE POP PUSH2 0x4259 JUMP JUMPDEST PUSH2 0x4219 DUP3 PUSH1 0xB SLOAD PUSH1 0xE SLOAD PUSH2 0x5582 JUMP JUMPDEST PUSH1 0x14 PUSH1 0x0 DUP3 DUP3 SLOAD PUSH2 0x422A SWAP2 SWAP1 PUSH2 0x6615 JUMP JUMPDEST SWAP3 POP POP DUP2 SWAP1 SSTORE POP PUSH2 0x4240 PUSH1 0xC SLOAD DUP3 PUSH1 0xD SLOAD PUSH2 0x5582 JUMP JUMPDEST PUSH1 0x13 PUSH1 0x0 DUP3 DUP3 SLOAD PUSH2 0x4251 SWAP2 SWAP1 PUSH2 0x6867 JUMP JUMPDEST SWAP3 POP POP DUP2 SWAP1 SSTORE POP JUMPDEST PUSH2 0x4268 PUSH1 0xD SLOAD PUSH1 0xA SLOAD DUP4 PUSH2 0x445E JUMP JUMPDEST PUSH1 0xD DUP2 SWAP1 SSTORE POP PUSH2 0x427D PUSH1 0xE SLOAD PUSH1 0x9 SLOAD DUP5 PUSH2 0x445E JUMP JUMPDEST PUSH1 0xE DUP2 SWAP1 SSTORE POP PUSH2 0x42A6 PUSH2 0x4299 PUSH1 0x5 SLOAD PUSH1 0x6 SLOAD PUSH1 0x7 SLOAD DUP7 DUP7 PUSH2 0x55B7 JUMP JUMPDEST DUP3 PUSH1 0x9 SLOAD DUP6 PUSH1 0xA SLOAD PUSH2 0x4424 JUMP JUMPDEST PUSH1 0x17 DUP2 SWAP1 SSTORE POP PUSH1 0x9 SLOAD PUSH1 0xB DUP2 SWAP1 SSTORE POP PUSH1 0xA SLOAD PUSH1 0xC DUP2 SWAP1 SSTORE POP PUSH2 0x42D2 PUSH1 0xB SLOAD PUSH1 0xC SLOAD PUSH1 0x7 SLOAD PUSH1 0x17 SLOAD PUSH2 0x56AB JUMP JUMPDEST PUSH1 0x5 DUP2 SWAP1 SSTORE POP PUSH1 0x5 SLOAD PUSH1 0x2C SLOAD PUSH1 0x2 PUSH2 0x42EA SWAP2 SWAP1 PUSH2 0x680D JUMP JUMPDEST PUSH2 0x42F4 SWAP2 SWAP1 PUSH2 0x6867 JUMP JUMPDEST PUSH1 0x6 DUP2 SWAP1 SSTORE POP PUSH2 0x4302 PUSH2 0x4F94 JUMP JUMPDEST PUSH1 0x9 SLOAD PUSH1 0xB DUP2 SWAP1 SSTORE POP PUSH1 0xA SLOAD PUSH1 0xC DUP2 SWAP1 SSTORE POP PUSH2 0x440D JUMP JUMPDEST PUSH1 0xB SLOAD PUSH1 0x15 DUP2 SWAP1 SSTORE POP PUSH1 0xC SLOAD PUSH1 0x16 DUP2 SWAP1 SSTORE POP PUSH2 0x433A DUP5 PUSH1 0xE SLOAD PUSH1 0x2C SLOAD PUSH2 0x445E JUMP JUMPDEST PUSH1 0xB PUSH1 0x0 DUP3 DUP3 SLOAD PUSH2 0x434B SWAP2 SWAP1 PUSH2 0x6615 JUMP JUMPDEST SWAP3 POP POP DUP2 SWAP1 SSTORE POP PUSH2 0x4366 PUSH1 0x5 SLOAD PUSH1 0x6 SLOAD PUSH1 0x7 SLOAD PUSH1 0xB SLOAD PUSH2 0x5482 JUMP JUMPDEST PUSH1 0xC DUP2 SWAP1 SSTORE POP PUSH2 0x437D PUSH1 0x16 SLOAD PUSH1 0xC SLOAD PUSH1 0xD SLOAD PUSH2 0x5582 JUMP JUMPDEST DUP6 PUSH2 0x4388 SWAP2 SWAP1 PUSH2 0x6615 JUMP JUMPDEST SWAP5 POP PUSH1 0x1 ISZERO ISZERO DUP7 ISZERO ISZERO EQ ISZERO PUSH2 0x43C5 JUMPI PUSH2 0x43A8 PUSH1 0x16 SLOAD PUSH1 0xC SLOAD PUSH1 0xD SLOAD PUSH2 0x5582 JUMP JUMPDEST PUSH1 0xF PUSH1 0x0 DUP3 DUP3 SLOAD PUSH2 0x43B9 SWAP2 SWAP1 PUSH2 0x6615 JUMP JUMPDEST SWAP3 POP POP DUP2 SWAP1 SSTORE POP PUSH2 0x4408 JUMP JUMPDEST DUP4 PUSH1 0x14 PUSH1 0x0 DUP3 DUP3 SLOAD PUSH2 0x43D7 SWAP2 SWAP1 PUSH2 0x6615 JUMP JUMPDEST SWAP3 POP POP DUP2 SWAP1 SSTORE POP PUSH2 0x43EF PUSH1 0x16 SLOAD PUSH1 0xC SLOAD PUSH1 0xD SLOAD PUSH2 0x5582 JUMP JUMPDEST PUSH1 0x13 PUSH1 0x0 DUP3 DUP3 SLOAD PUSH2 0x4400 SWAP2 SWAP1 PUSH2 0x6867 JUMP JUMPDEST SWAP3 POP POP DUP2 SWAP1 SSTORE POP JUMPDEST PUSH1 0x0 SWAP3 POP JUMPDEST POP POP PUSH2 0x414B JUMP JUMPDEST POP POP PUSH1 0x1 PUSH1 0x2F DUP2 SWAP1 SSTORE POP SWAP3 SWAP2 POP POP JUMP JUMPDEST PUSH1 0x0 DUP2 DUP4 DUP6 DUP8 DUP10 PUSH2 0x4435 SWAP2 SWAP1 PUSH2 0x680D JUMP JUMPDEST PUSH2 0x443F SWAP2 SWAP1 PUSH2 0x680D JUMP JUMPDEST PUSH2 0x4449 SWAP2 SWAP1 PUSH2 0x666B JUMP JUMPDEST PUSH2 0x4453 SWAP2 SWAP1 PUSH2 0x666B JUMP JUMPDEST SWAP1 POP SWAP6 SWAP5 POP POP POP POP POP JUMP JUMPDEST PUSH1 0x0 DUP2 DUP4 DUP6 PUSH2 0x446D SWAP2 SWAP1 PUSH2 0x680D JUMP JUMPDEST PUSH2 0x4477 SWAP2 SWAP1 PUSH2 0x666B JUMP JUMPDEST SWAP1 POP SWAP4 SWAP3 POP POP POP JUMP JUMPDEST PUSH1 0x0 PUSH1 0x1 PUSH1 0x2F SLOAD EQ PUSH2 0x44C7 JUMPI PUSH1 0x40 MLOAD PUSH32 0x8C379A000000000000000000000000000000000000000000000000000000000 DUP2 MSTORE PUSH1 0x4 ADD PUSH2 0x44BE SWAP1 PUSH2 0x6559 JUMP JUMPDEST PUSH1 0x40 MLOAD DUP1 SWAP2 SUB SWAP1 REVERT JUMPDEST PUSH1 0x0 PUSH1 0x2F DUP2 SWAP1 SSTORE POP PUSH1 0x0 DUP4 SWAP1 POP PUSH1 0x0 PUSH1 0x1 SWAP1 POP JUMPDEST PUSH1 0x1 ISZERO ISZERO DUP2 ISZERO ISZERO EQ ISZERO PUSH2 0x47BC JUMPI PUSH1 0x0 PUSH2 0x44FB PUSH1 0xA SLOAD PUSH1 0x18 SLOAD PUSH1 0x2C SLOAD PUSH2 0x445E JUMP JUMPDEST SWAP1 POP PUSH1 0x0 PUSH2 0x4511 PUSH1 0x5 SLOAD PUSH1 0x6 SLOAD PUSH1 0x7 SLOAD DUP6 PUSH2 0x57E5 JUMP JUMPDEST SWAP1 POP PUSH2 0x4522 DUP3 PUSH1 0xC SLOAD PUSH1 0xD SLOAD PUSH2 0x5582 JUMP JUMPDEST DUP5 GT ISZERO PUSH2 0x46C1 JUMPI PUSH1 0x0 PUSH2 0x453E PUSH1 0x5 SLOAD PUSH1 0x6 SLOAD PUSH1 0x7 SLOAD DUP6 DUP8 PUSH2 0x55B7 JUMP JUMPDEST SWAP1 POP PUSH2 0x454F PUSH1 0xB SLOAD DUP4 PUSH1 0xE SLOAD PUSH2 0x5582 JUMP JUMPDEST DUP7 PUSH2 0x455A SWAP2 SWAP1 PUSH2 0x6615 JUMP JUMPDEST SWAP6 POP PUSH2 0x456B DUP4 PUSH1 0xC SLOAD PUSH1 0xD SLOAD PUSH2 0x5582 JUMP JUMPDEST DUP6 PUSH2 0x4576 SWAP2 SWAP1 PUSH2 0x6867 JUMP JUMPDEST SWAP5 POP PUSH1 0x1 ISZERO ISZERO DUP8 ISZERO ISZERO EQ ISZERO PUSH2 0x45B1 JUMPI PUSH2 0x4594 PUSH1 0xB SLOAD DUP4 PUSH1 0xE SLOAD PUSH2 0x5582 JUMP JUMPDEST PUSH1 0x10 PUSH1 0x0 DUP3 DUP3 SLOAD PUSH2 0x45A5 SWAP2 SWAP1 PUSH2 0x6615 JUMP JUMPDEST SWAP3 POP POP DUP2 SWAP1 SSTORE POP PUSH2 0x4600 JUMP JUMPDEST PUSH2 0x45C0 PUSH1 0xB SLOAD DUP4 PUSH1 0xE SLOAD PUSH2 0x5582 JUMP JUMPDEST PUSH1 0x14 PUSH1 0x0 DUP3 DUP3 SLOAD PUSH2 0x45D1 SWAP2 SWAP1 PUSH2 0x6867 JUMP JUMPDEST SWAP3 POP POP DUP2 SWAP1 SSTORE POP PUSH2 0x45E7 DUP4 PUSH1 0xC SLOAD PUSH1 0xD SLOAD PUSH2 0x5582 JUMP JUMPDEST PUSH1 0x13 PUSH1 0x0 DUP3 DUP3 SLOAD PUSH2 0x45F8 SWAP2 SWAP1 PUSH2 0x6615 JUMP JUMPDEST SWAP3 POP POP DUP2 SWAP1 SSTORE POP JUMPDEST PUSH2 0x460F PUSH1 0xD SLOAD PUSH1 0xA SLOAD DUP6 PUSH2 0x445E JUMP JUMPDEST PUSH1 0xD DUP2 SWAP1 SSTORE POP PUSH2 0x4624 PUSH1 0xE SLOAD PUSH1 0x9 SLOAD DUP5 PUSH2 0x445E JUMP JUMPDEST PUSH1 0xE DUP2 SWAP1 SSTORE POP PUSH2 0x464D PUSH2 0x4640 PUSH1 0x5 SLOAD PUSH1 0x6 SLOAD PUSH1 0x7 SLOAD DUP7 DUP9 PUSH2 0x55B7 JUMP JUMPDEST DUP5 PUSH1 0x9 SLOAD DUP6 PUSH1 0xA SLOAD PUSH2 0x4424 JUMP JUMPDEST PUSH1 0x17 DUP2 SWAP1 SSTORE POP PUSH1 0x9 SLOAD PUSH1 0xB DUP2 SWAP1 SSTORE POP PUSH1 0xA SLOAD PUSH1 0xC DUP2 SWAP1 SSTORE POP PUSH2 0x4679 PUSH1 0xB SLOAD PUSH1 0xC SLOAD PUSH1 0x7 SLOAD PUSH1 0x17 SLOAD PUSH2 0x56AB JUMP JUMPDEST PUSH1 0x5 DUP2 SWAP1 SSTORE POP PUSH1 0x5 SLOAD PUSH1 0x2C SLOAD PUSH1 0x2 PUSH2 0x4691 SWAP2 SWAP1 PUSH2 0x680D JUMP JUMPDEST PUSH2 0x469B SWAP2 SWAP1 PUSH2 0x6867 JUMP JUMPDEST PUSH1 0x6 DUP2 SWAP1 SSTORE POP PUSH2 0x46A9 PUSH2 0x4F94 JUMP JUMPDEST PUSH1 0x9 SLOAD PUSH1 0xB DUP2 SWAP1 SSTORE POP PUSH1 0xA SLOAD PUSH1 0xC DUP2 SWAP1 SSTORE POP POP PUSH2 0x47B5 JUMP JUMPDEST PUSH1 0xB SLOAD PUSH1 0x15 DUP2 SWAP1 SSTORE POP PUSH1 0xC SLOAD PUSH1 0x16 DUP2 SWAP1 SSTORE POP PUSH2 0x46E2 DUP5 PUSH1 0xD SLOAD PUSH1 0x2C SLOAD PUSH2 0x445E JUMP JUMPDEST PUSH1 0xC PUSH1 0x0 DUP3 DUP3 SLOAD PUSH2 0x46F3 SWAP2 SWAP1 PUSH2 0x6615 JUMP JUMPDEST SWAP3 POP POP DUP2 SWAP1 SSTORE POP PUSH2 0x470E PUSH1 0x5 SLOAD PUSH1 0x6 SLOAD PUSH1 0x7 SLOAD PUSH1 0xC SLOAD PUSH2 0x57E5 JUMP JUMPDEST PUSH1 0xB DUP2 SWAP1 SSTORE POP PUSH2 0x4725 PUSH1 0x15 SLOAD PUSH1 0xB SLOAD PUSH1 0xE SLOAD PUSH2 0x5582 JUMP JUMPDEST DUP6 PUSH2 0x4730 SWAP2 SWAP1 PUSH2 0x6615 JUMP JUMPDEST SWAP5 POP PUSH1 0x1 ISZERO ISZERO DUP7 ISZERO ISZERO EQ ISZERO PUSH2 0x476D JUMPI PUSH2 0x4750 PUSH1 0x15 SLOAD PUSH1 0xB SLOAD PUSH1 0xE SLOAD PUSH2 0x5582 JUMP JUMPDEST PUSH1 0x10 PUSH1 0x0 DUP3 DUP3 SLOAD PUSH2 0x4761 SWAP2 SWAP1 PUSH2 0x6615 JUMP JUMPDEST SWAP3 POP POP DUP2 SWAP1 SSTORE POP PUSH2 0x47B0 JUMP JUMPDEST DUP4 PUSH1 0x13 PUSH1 0x0 DUP3 DUP3 SLOAD PUSH2 0x477F SWAP2 SWAP1 PUSH2 0x6615 JUMP JUMPDEST SWAP3 POP POP DUP2 SWAP1 SSTORE POP PUSH2 0x4797 PUSH1 0x15 SLOAD PUSH1 0xB SLOAD PUSH1 0xE SLOAD PUSH2 0x5582 JUMP JUMPDEST PUSH1 0x14 PUSH1 0x0 DUP3 DUP3 SLOAD PUSH2 0x47A8 SWAP2 SWAP1 PUSH2 0x6867 JUMP JUMPDEST SWAP3 POP POP DUP2 SWAP1 SSTORE POP JUMPDEST PUSH1 0x0 SWAP3 POP JUMPDEST POP POP PUSH2 0x44DB JUMP JUMPDEST POP POP PUSH1 0x1 PUSH1 0x2F DUP2 SWAP1 SSTORE POP SWAP3 SWAP2 POP POP JUMP JUMPDEST PUSH1 0x0 PUSH1 0x1 PUSH1 0x2F SLOAD EQ PUSH2 0x4813 JUMPI PUSH1 0x40 MLOAD PUSH32 0x8C379A000000000000000000000000000000000000000000000000000000000 DUP2 MSTORE PUSH1 0x4 ADD PUSH2 0x480A SWAP1 PUSH2 0x6559 JUMP JUMPDEST PUSH1 0x40 MLOAD DUP1 SWAP2 SUB SWAP1 REVERT JUMPDEST PUSH1 0x0 PUSH1 0x2F DUP2 SWAP1 SSTORE POP PUSH1 0x0 DUP5 SWAP1 POP PUSH1 0x0 PUSH1 0x1 SWAP1 POP JUMPDEST PUSH1 0x1 ISZERO ISZERO DUP2 ISZERO ISZERO EQ ISZERO PUSH2 0x4AF8 JUMPI PUSH1 0x0 PUSH2 0x4847 PUSH1 0x9 SLOAD PUSH1 0x18 SLOAD PUSH1 0x2C SLOAD PUSH2 0x445E JUMP JUMPDEST SWAP1 POP PUSH1 0x0 PUSH2 0x485D PUSH1 0x5 SLOAD PUSH1 0x6 SLOAD PUSH1 0x7 SLOAD DUP6 PUSH2 0x5482 JUMP JUMPDEST SWAP1 POP PUSH2 0x486E PUSH1 0xC SLOAD DUP3 PUSH1 0xD SLOAD PUSH2 0x5582 JUMP JUMPDEST DUP5 GT ISZERO PUSH2 0x4A0D JUMPI PUSH1 0x0 PUSH2 0x488A PUSH1 0x5 SLOAD PUSH1 0x6 SLOAD PUSH1 0x7 SLOAD DUP7 DUP7 PUSH2 0x55B7 JUMP JUMPDEST SWAP1 POP PUSH2 0x489B DUP4 PUSH1 0xB SLOAD PUSH1 0xE SLOAD PUSH2 0x5582 JUMP JUMPDEST DUP7 PUSH2 0x48A6 SWAP2 SWAP1 PUSH2 0x6615 JUMP JUMPDEST SWAP6 POP PUSH2 0x48B7 PUSH1 0xC SLOAD DUP4 PUSH1 0xD SLOAD PUSH2 0x5582 JUMP JUMPDEST DUP6 PUSH2 0x48C2 SWAP2 SWAP1 PUSH2 0x6867 JUMP JUMPDEST SWAP5 POP PUSH1 0x1 ISZERO ISZERO DUP8 ISZERO ISZERO EQ ISZERO PUSH2 0x48FD JUMPI PUSH2 0x48E0 PUSH1 0xC SLOAD DUP4 PUSH1 0xD SLOAD PUSH2 0x5582 JUMP JUMPDEST PUSH1 0xF PUSH1 0x0 DUP3 DUP3 SLOAD PUSH2 0x48F1 SWAP2 SWAP1 PUSH2 0x6615 JUMP JUMPDEST SWAP3 POP POP DUP2 SWAP1 SSTORE POP PUSH2 0x494C JUMP JUMPDEST PUSH2 0x490C DUP4 PUSH1 0xB SLOAD PUSH1 0xE SLOAD PUSH2 0x5582 JUMP JUMPDEST PUSH1 0x14 PUSH1 0x0 DUP3 DUP3 SLOAD PUSH2 0x491D SWAP2 SWAP1 PUSH2 0x6615 JUMP JUMPDEST SWAP3 POP POP DUP2 SWAP1 SSTORE POP PUSH2 0x4933 PUSH1 0xC SLOAD DUP4 PUSH1 0xD SLOAD PUSH2 0x5582 JUMP JUMPDEST PUSH1 0x13 PUSH1 0x0 DUP3 DUP3 SLOAD PUSH2 0x4944 SWAP2 SWAP1 PUSH2 0x6867 JUMP JUMPDEST SWAP3 POP POP DUP2 SWAP1 SSTORE POP JUMPDEST PUSH2 0x495B PUSH1 0xD SLOAD PUSH1 0xA SLOAD DUP5 PUSH2 0x445E JUMP JUMPDEST PUSH1 0xD DUP2 SWAP1 SSTORE POP PUSH2 0x4970 PUSH1 0xE SLOAD PUSH1 0x9 SLOAD DUP6 PUSH2 0x445E JUMP JUMPDEST PUSH1 0xE DUP2 SWAP1 SSTORE POP PUSH2 0x4999 PUSH2 0x498C PUSH1 0x5 SLOAD PUSH1 0x6 SLOAD PUSH1 0x7 SLOAD DUP8 DUP8 PUSH2 0x55B7 JUMP JUMPDEST DUP4 PUSH1 0x9 SLOAD DUP7 PUSH1 0xA SLOAD PUSH2 0x4424 JUMP JUMPDEST PUSH1 0x17 DUP2 SWAP1 SSTORE POP PUSH1 0x9 SLOAD PUSH1 0xB DUP2 SWAP1 SSTORE POP PUSH1 0xA SLOAD PUSH1 0xC DUP2 SWAP1 SSTORE POP PUSH2 0x49C5 PUSH1 0xB SLOAD PUSH1 0xC SLOAD PUSH1 0x7 SLOAD PUSH1 0x17 SLOAD PUSH2 0x56AB JUMP JUMPDEST PUSH1 0x5 DUP2 SWAP1 SSTORE POP PUSH1 0x5 SLOAD PUSH1 0x2C SLOAD PUSH1 0x2 PUSH2 0x49DD SWAP2 SWAP1 PUSH2 0x680D JUMP JUMPDEST PUSH2 0x49E7 SWAP2 SWAP1 PUSH2 0x6867 JUMP JUMPDEST PUSH1 0x6 DUP2 SWAP1 SSTORE POP PUSH2 0x49F5 PUSH2 0x4F94 JUMP JUMPDEST PUSH1 0x9 SLOAD PUSH1 0xB DUP2 SWAP1 SSTORE POP PUSH1 0xA SLOAD PUSH1 0xC DUP2 SWAP1 SSTORE POP POP PUSH2 0x4AF1 JUMP JUMPDEST PUSH1 0xB SLOAD PUSH1 0x15 DUP2 SWAP1 SSTORE POP PUSH1 0xC SLOAD PUSH1 0x16 DUP2 SWAP1 SSTORE POP PUSH2 0x4A2E DUP5 PUSH1 0xD SLOAD PUSH1 0x2C SLOAD PUSH2 0x445E JUMP JUMPDEST PUSH1 0xC PUSH1 0x0 DUP3 DUP3 SLOAD PUSH2 0x4A3F SWAP2 SWAP1 PUSH2 0x6867 JUMP JUMPDEST SWAP3 POP POP DUP2 SWAP1 SSTORE POP PUSH2 0x4A5A PUSH1 0x5 SLOAD PUSH1 0x6 SLOAD PUSH1 0x7 SLOAD PUSH1 0xC SLOAD PUSH2 0x57E5 JUMP JUMPDEST PUSH1 0xB DUP2 SWAP1 SSTORE POP PUSH2 0x4A71 PUSH1 0xB SLOAD PUSH1 0x15 SLOAD PUSH1 0xE SLOAD PUSH2 0x5582 JUMP JUMPDEST DUP6 PUSH2 0x4A7C SWAP2 SWAP1 PUSH2 0x6615 JUMP JUMPDEST SWAP5 POP PUSH1 0x1 ISZERO ISZERO DUP7 ISZERO ISZERO EQ ISZERO PUSH2 0x4AA9 JUMPI DUP4 PUSH1 0xF PUSH1 0x0 DUP3 DUP3 SLOAD PUSH2 0x4A9D SWAP2 SWAP1 PUSH2 0x6615 JUMP JUMPDEST SWAP3 POP POP DUP2 SWAP1 SSTORE POP PUSH2 0x4AEC JUMP JUMPDEST PUSH2 0x4ABA PUSH1 0xB SLOAD PUSH1 0x15 SLOAD PUSH1 0xE SLOAD PUSH2 0x5582 JUMP JUMPDEST PUSH1 0x14 PUSH1 0x0 DUP3 DUP3 SLOAD PUSH2 0x4ACB SWAP2 SWAP1 PUSH2 0x6615 JUMP JUMPDEST SWAP3 POP POP DUP2 SWAP1 SSTORE POP DUP4 PUSH1 0x13 PUSH1 0x0 DUP3 DUP3 SLOAD PUSH2 0x4AE4 SWAP2 SWAP1 PUSH2 0x6867 JUMP JUMPDEST SWAP3 POP POP DUP2 SWAP1 SSTORE POP JUMPDEST PUSH1 0x0 SWAP3 POP JUMPDEST POP POP PUSH2 0x4827 JUMP JUMPDEST PUSH1 0x0 ISZERO ISZERO DUP5 ISZERO ISZERO EQ ISZERO PUSH2 0x4B12 JUMPI DUP3 DUP6 GT PUSH2 0x4B11 JUMPI PUSH1 0x0 DUP1 REVERT JUMPDEST JUMPDEST POP POP PUSH1 0x1 PUSH1 0x2F DUP2 SWAP1 SSTORE POP SWAP4 SWAP3 POP POP POP JUMP JUMPDEST PUSH1 0x0 PUSH1 0x1 PUSH1 0x2F SLOAD EQ PUSH2 0x4B6A JUMPI PUSH1 0x40 MLOAD PUSH32 0x8C379A000000000000000000000000000000000000000000000000000000000 DUP2 MSTORE PUSH1 0x4 ADD PUSH2 0x4B61 SWAP1 PUSH2 0x6559 JUMP JUMPDEST PUSH1 0x40 MLOAD DUP1 SWAP2 SUB SWAP1 REVERT JUMPDEST PUSH1 0x0 PUSH1 0x2F DUP2 SWAP1 SSTORE POP PUSH1 0x0 DUP5 SWAP1 POP PUSH1 0x0 PUSH1 0x1 SWAP1 POP JUMPDEST PUSH1 0x1 ISZERO ISZERO DUP2 ISZERO ISZERO EQ ISZERO PUSH2 0x4E4F JUMPI PUSH1 0x0 PUSH2 0x4B9E PUSH1 0xA SLOAD PUSH1 0x18 SLOAD PUSH1 0x2C SLOAD PUSH2 0x445E JUMP JUMPDEST SWAP1 POP PUSH1 0x0 PUSH2 0x4BB4 PUSH1 0x5 SLOAD PUSH1 0x6 SLOAD PUSH1 0x7 SLOAD DUP6 PUSH2 0x57E5 JUMP JUMPDEST SWAP1 POP PUSH2 0x4BC5 PUSH1 0xB SLOAD DUP3 PUSH1 0xE SLOAD PUSH2 0x5582 JUMP JUMPDEST DUP5 GT ISZERO PUSH2 0x4D64 JUMPI PUSH1 0x0 PUSH2 0x4BE1 PUSH1 0x5 SLOAD PUSH1 0x6 SLOAD PUSH1 0x7 SLOAD DUP6 DUP8 PUSH2 0x55B7 JUMP JUMPDEST SWAP1 POP PUSH2 0x4BF2 DUP4 PUSH1 0xC SLOAD PUSH1 0xD SLOAD PUSH2 0x5582 JUMP JUMPDEST DUP7 PUSH2 0x4BFD SWAP2 SWAP1 PUSH2 0x6615 JUMP JUMPDEST SWAP6 POP PUSH2 0x4C0E PUSH1 0xB SLOAD DUP4 PUSH1 0xE SLOAD PUSH2 0x5582 JUMP JUMPDEST DUP6 PUSH2 0x4C19 SWAP2 SWAP1 PUSH2 0x6867 JUMP JUMPDEST SWAP5 POP PUSH1 0x1 ISZERO ISZERO DUP8 ISZERO ISZERO EQ ISZERO PUSH2 0x4C54 JUMPI PUSH2 0x4C37 PUSH1 0xB SLOAD DUP4 PUSH1 0xE SLOAD PUSH2 0x5582 JUMP JUMPDEST PUSH1 0x10 PUSH1 0x0 DUP3 DUP3 SLOAD PUSH2 0x4C48 SWAP2 SWAP1 PUSH2 0x6615 JUMP JUMPDEST SWAP3 POP POP DUP2 SWAP1 SSTORE POP PUSH2 0x4CA3 JUMP JUMPDEST PUSH2 0x4C63 DUP4 PUSH1 0xC SLOAD PUSH1 0xD SLOAD PUSH2 0x5582 JUMP JUMPDEST PUSH1 0x13 PUSH1 0x0 DUP3 DUP3 SLOAD PUSH2 0x4C74 SWAP2 SWAP1 PUSH2 0x6615 JUMP JUMPDEST SWAP3 POP POP DUP2 SWAP1 SSTORE POP PUSH2 0x4C8A PUSH1 0xB SLOAD DUP4 PUSH1 0xE SLOAD PUSH2 0x5582 JUMP JUMPDEST PUSH1 0x14 PUSH1 0x0 DUP3 DUP3 SLOAD PUSH2 0x4C9B SWAP2 SWAP1 PUSH2 0x6867 JUMP JUMPDEST SWAP3 POP POP DUP2 SWAP1 SSTORE POP JUMPDEST PUSH2 0x4CB2 PUSH1 0xD SLOAD PUSH1 0xA SLOAD DUP6 PUSH2 0x445E JUMP JUMPDEST PUSH1 0xD DUP2 SWAP1 SSTORE POP PUSH2 0x4CC7 PUSH1 0xE SLOAD PUSH1 0x9 SLOAD DUP5 PUSH2 0x445E JUMP JUMPDEST PUSH1 0xE DUP2 SWAP1 SSTORE POP PUSH2 0x4CF0 PUSH2 0x4CE3 PUSH1 0x5 SLOAD PUSH1 0x6 SLOAD PUSH1 0x7 SLOAD DUP7 DUP9 PUSH2 0x55B7 JUMP JUMPDEST DUP5 PUSH1 0x9 SLOAD DUP6 PUSH1 0xA SLOAD PUSH2 0x4424 JUMP JUMPDEST PUSH1 0x17 DUP2 SWAP1 SSTORE POP PUSH1 0x9 SLOAD PUSH1 0xB DUP2 SWAP1 SSTORE POP PUSH1 0xA SLOAD PUSH1 0xC DUP2 SWAP1 SSTORE POP PUSH2 0x4D1C PUSH1 0xB SLOAD PUSH1 0xC SLOAD PUSH1 0x7 SLOAD PUSH1 0x17 SLOAD PUSH2 0x56AB JUMP JUMPDEST PUSH1 0x5 DUP2 SWAP1 SSTORE POP PUSH1 0x5 SLOAD PUSH1 0x2C SLOAD PUSH1 0x2 PUSH2 0x4D34 SWAP2 SWAP1 PUSH2 0x680D JUMP JUMPDEST PUSH2 0x4D3E SWAP2 SWAP1 PUSH2 0x6867 JUMP JUMPDEST PUSH1 0x6 DUP2 SWAP1 SSTORE POP PUSH2 0x4D4C PUSH2 0x4F94 JUMP JUMPDEST PUSH1 0x9 SLOAD PUSH1 0xB DUP2 SWAP1 SSTORE POP PUSH1 0xA SLOAD PUSH1 0xC DUP2 SWAP1 SSTORE POP POP PUSH2 0x4E48 JUMP JUMPDEST PUSH1 0xB SLOAD PUSH1 0x15 DUP2 SWAP1 SSTORE POP PUSH1 0xC SLOAD PUSH1 0x16 DUP2 SWAP1 SSTORE POP PUSH2 0x4D85 DUP5 PUSH1 0xE SLOAD PUSH1 0x2C SLOAD PUSH2 0x445E JUMP JUMPDEST PUSH1 0xB PUSH1 0x0 DUP3 DUP3 SLOAD PUSH2 0x4D96 SWAP2 SWAP1 PUSH2 0x6867 JUMP JUMPDEST SWAP3 POP POP DUP2 SWAP1 SSTORE POP PUSH2 0x4DB1 PUSH1 0x5 SLOAD PUSH1 0x6 SLOAD PUSH1 0x7 SLOAD PUSH1 0xB SLOAD PUSH2 0x5482 JUMP JUMPDEST PUSH1 0xC DUP2 SWAP1 SSTORE POP PUSH2 0x4DC8 PUSH1 0xC SLOAD PUSH1 0x16 SLOAD PUSH1 0xD SLOAD PUSH2 0x5582 JUMP JUMPDEST DUP6 PUSH2 0x4DD3 SWAP2 SWAP1 PUSH2 0x6615 JUMP JUMPDEST SWAP5 POP PUSH1 0x1 ISZERO ISZERO DUP7 ISZERO ISZERO EQ ISZERO PUSH2 0x4E00 JUMPI DUP4 PUSH1 0x10 PUSH1 0x0 DUP3 DUP3 SLOAD PUSH2 0x4DF4 SWAP2 SWAP1 PUSH2 0x6615 JUMP JUMPDEST SWAP3 POP POP DUP2 SWAP1 SSTORE POP PUSH2 0x4E43 JUMP JUMPDEST PUSH2 0x4E11 PUSH1 0xC SLOAD PUSH1 0x16 SLOAD PUSH1 0xD SLOAD PUSH2 0x5582 JUMP JUMPDEST PUSH1 0x13 PUSH1 0x0 DUP3 DUP3 SLOAD PUSH2 0x4E22 SWAP2 SWAP1 PUSH2 0x6615 JUMP JUMPDEST SWAP3 POP POP DUP2 SWAP1 SSTORE POP DUP4 PUSH1 0x14 PUSH1 0x0 DUP3 DUP3 SLOAD PUSH2 0x4E3B SWAP2 SWAP1 PUSH2 0x6867 JUMP JUMPDEST SWAP3 POP POP DUP2 SWAP1 SSTORE POP JUMPDEST PUSH1 0x0 SWAP3 POP JUMPDEST POP POP PUSH2 0x4B7E JUMP JUMPDEST PUSH1 0x0 ISZERO ISZERO DUP5 ISZERO ISZERO EQ ISZERO PUSH2 0x4E69 JUMPI DUP3 DUP6 GT PUSH2 0x4E68 JUMPI PUSH1 0x0 DUP1 REVERT JUMPDEST JUMPDEST POP POP PUSH1 0x1 PUSH1 0x2F DUP2 SWAP1 SSTORE POP SWAP4 SWAP3 POP POP POP JUMP JUMPDEST PUSH2 0x4E8F DUP2 PUSH1 0x0 SLOAD PUSH2 0x52C3 SWAP1 SWAP2 SWAP1 PUSH4 0xFFFFFFFF AND JUMP JUMPDEST PUSH1 0x0 DUP2 SWAP1 SSTORE POP PUSH2 0x4EE7 DUP2 PUSH1 0x1 PUSH1 0x0 DUP6 PUSH20 0xFFFFFFFFFFFFFFFFFFFFFFFFFFFFFFFFFFFFFFFF AND PUSH20 0xFFFFFFFFFFFFFFFFFFFFFFFFFFFFFFFFFFFFFFFF AND DUP2 MSTORE PUSH1 0x20 ADD SWAP1 DUP2 MSTORE PUSH1 0x20 ADD PUSH1 0x0 KECCAK256 SLOAD PUSH2 0x52C3 SWAP1 SWAP2 SWAP1 PUSH4 0xFFFFFFFF AND JUMP JUMPDEST PUSH1 0x1 PUSH1 0x0 DUP5 PUSH20 0xFFFFFFFFFFFFFFFFFFFFFFFFFFFFFFFFFFFFFFFF AND PUSH20 0xFFFFFFFFFFFFFFFFFFFFFFFFFFFFFFFFFFFFFFFF AND DUP2 MSTORE PUSH1 0x20 ADD SWAP1 DUP2 MSTORE PUSH1 0x20 ADD PUSH1 0x0 KECCAK256 DUP2 SWAP1 SSTORE POP DUP2 PUSH20 0xFFFFFFFFFFFFFFFFFFFFFFFFFFFFFFFFFFFFFFFF AND PUSH1 0x0 PUSH20 0xFFFFFFFFFFFFFFFFFFFFFFFFFFFFFFFFFFFFFFFF AND PUSH32 0xDDF252AD1BE2C89B69C2B068FC378DAA952BA7F163C4A11628F55A4DF523B3EF DUP4 PUSH1 0x40 MLOAD PUSH2 0x4F88 SWAP2 SWAP1 PUSH2 0x6579 JUMP JUMPDEST PUSH1 0x40 MLOAD DUP1 SWAP2 SUB SWAP1 LOG3 POP POP JUMP JUMPDEST PUSH2 0x4FB4 PUSH1 0x14 SLOAD PUSH1 0x5 SLOAD PUSH1 0xE SLOAD PUSH1 0x13 SLOAD PUSH1 0x6 SLOAD PUSH1 0xD SLOAD PUSH1 0x12 SLOAD PUSH1 0x11 SLOAD PUSH2 0x58E5 JUMP JUMPDEST PUSH1 0x23 DUP2 SWAP1 SSTORE POP PUSH1 0x2C SLOAD PUSH1 0x23 SLOAD PUSH1 0x8 SLOAD PUSH2 0x4FCD SWAP2 SWAP1 PUSH2 0x680D JUMP JUMPDEST PUSH2 0x4FD7 SWAP2 SWAP1 PUSH2 0x666B JUMP JUMPDEST PUSH1 0x7 DUP2 SWAP1 SSTORE POP PUSH1 0x2 PUSH1 0x7 SLOAD PUSH2 0x4FEC SWAP2 SWAP1 PUSH2 0x666B JUMP JUMPDEST PUSH1 0x9 DUP2 SWAP1 SSTORE POP PUSH1 0x9 SLOAD PUSH1 0xA DUP2 SWAP1 SSTORE POP PUSH1 0x23 SLOAD PUSH1 0x24 DUP2 SWAP1 SSTORE POP JUMP JUMPDEST PUSH2 0x5058 DUP2 PUSH1 0x1 PUSH1 0x0 DUP6 PUSH20 0xFFFFFFFFFFFFFFFFFFFFFFFFFFFFFFFFFFFFFFFF AND PUSH20 0xFFFFFFFFFFFFFFFFFFFFFFFFFFFFFFFFFFFFFFFF AND DUP2 MSTORE PUSH1 0x20 ADD SWAP1 DUP2 MSTORE PUSH1 0x20 ADD PUSH1 0x0 KECCAK256 SLOAD PUSH2 0x3B2F SWAP1 SWAP2 SWAP1 PUSH4 0xFFFFFFFF AND JUMP JUMPDEST PUSH1 0x1 PUSH1 0x0 DUP5 PUSH20 0xFFFFFFFFFFFFFFFFFFFFFFFFFFFFFFFFFFFFFFFF AND PUSH20 0xFFFFFFFFFFFFFFFFFFFFFFFFFFFFFFFFFFFFFFFF AND DUP2 MSTORE PUSH1 0x20 ADD SWAP1 DUP2 MSTORE PUSH1 0x20 ADD PUSH1 0x0 KECCAK256 DUP2 SWAP1 SSTORE POP PUSH2 0x50B0 DUP2 PUSH1 0x0 SLOAD PUSH2 0x3B2F SWAP1 SWAP2 SWAP1 PUSH4 0xFFFFFFFF AND JUMP JUMPDEST PUSH1 0x0 DUP2 SWAP1 SSTORE POP PUSH1 0x0 PUSH20 0xFFFFFFFFFFFFFFFFFFFFFFFFFFFFFFFFFFFFFFFF AND DUP3 PUSH20 0xFFFFFFFFFFFFFFFFFFFFFFFFFFFFFFFFFFFFFFFF AND PUSH32 0xDDF252AD1BE2C89B69C2B068FC378DAA952BA7F163C4A11628F55A4DF523B3EF DUP4 PUSH1 0x40 MLOAD PUSH2 0x5114 SWAP2 SWAP1 PUSH2 0x6579 JUMP JUMPDEST PUSH1 0x40 MLOAD DUP1 SWAP2 SUB SWAP1 LOG3 POP POP JUMP JUMPDEST PUSH1 0x0 DUP1 DUP5 PUSH20 0xFFFFFFFFFFFFFFFFFFFFFFFFFFFFFFFFFFFFFFFF AND PUSH1 0x40 MLOAD DUP1 PUSH1 0x40 ADD PUSH1 0x40 MSTORE DUP1 PUSH1 0x19 DUP2 MSTORE PUSH1 0x20 ADD PUSH32 0x7472616E7366657228616464726573732C75696E743235362900000000000000 DUP2 MSTORE POP DUP1 MLOAD SWAP1 PUSH1 0x20 ADD KECCAK256 DUP6 DUP6 PUSH1 0x40 MLOAD PUSH1 0x24 ADD PUSH2 0x518A SWAP3 SWAP2 SWAP1 PUSH2 0x62F2 JUMP JUMPDEST PUSH1 0x40 MLOAD PUSH1 0x20 DUP2 DUP4 SUB SUB DUP2 MSTORE SWAP1 PUSH1 0x40 MSTORE SWAP1 PUSH28 0xFFFFFFFFFFFFFFFFFFFFFFFFFFFFFFFFFFFFFFFFFFFFFFFFFFFFFFFF NOT AND PUSH1 0x20 DUP3 ADD DUP1 MLOAD PUSH28 0xFFFFFFFFFFFFFFFFFFFFFFFFFFFFFFFFFFFFFFFFFFFFFFFFFFFFFFFF DUP4 DUP2 DUP4 AND OR DUP4 MSTORE POP POP POP POP PUSH1 0x40 MLOAD PUSH2 0x51F4 SWAP2 SWAP1 PUSH2 0x6244 JUMP JUMPDEST PUSH1 0x0 PUSH1 0x40 MLOAD DUP1 DUP4 SUB DUP2 PUSH1 0x0 DUP7 GAS CALL SWAP2 POP POP RETURNDATASIZE DUP1 PUSH1 0x0 DUP2 EQ PUSH2 0x5231 JUMPI PUSH1 0x40 MLOAD SWAP2 POP PUSH1 0x1F NOT PUSH1 0x3F RETURNDATASIZE ADD AND DUP3 ADD PUSH1 0x40 MSTORE RETURNDATASIZE DUP3 MSTORE RETURNDATASIZE PUSH1 0x0 PUSH1 0x20 DUP5 ADD RETURNDATACOPY PUSH2 0x5236 JUMP JUMPDEST PUSH1 0x60 SWAP2 POP JUMPDEST POP SWAP2 POP SWAP2 POP DUP2 DUP1 ISZERO PUSH2 0x5264 JUMPI POP PUSH1 0x0 DUP2 MLOAD EQ DUP1 PUSH2 0x5263 JUMPI POP DUP1 DUP1 PUSH1 0x20 ADD SWAP1 MLOAD DUP2 ADD SWAP1 PUSH2 0x5262 SWAP2 SWAP1 PUSH2 0x5E53 JUMP JUMPDEST JUMPDEST JUMPDEST PUSH2 0x52A3 JUMPI PUSH1 0x40 MLOAD PUSH32 0x8C379A000000000000000000000000000000000000000000000000000000000 DUP2 MSTORE PUSH1 0x4 ADD PUSH2 0x529A SWAP1 PUSH2 0x6519 JUMP JUMPDEST PUSH1 0x40 MLOAD DUP1 SWAP2 SUB SWAP1 REVERT JUMPDEST POP POP POP POP POP JUMP JUMPDEST PUSH1 0x0 DUP2 DUP4 GT PUSH2 0x52B9 JUMPI DUP2 PUSH2 0x52BB JUMP JUMPDEST DUP3 JUMPDEST SWAP1 POP SWAP3 SWAP2 POP POP JUMP JUMPDEST PUSH1 0x0 DUP3 DUP3 DUP5 PUSH2 0x52D2 SWAP2 SWAP1 PUSH2 0x6615 JUMP JUMPDEST SWAP2 POP DUP2 LT ISZERO PUSH2 0x5316 JUMPI PUSH1 0x40 MLOAD PUSH32 0x8C379A000000000000000000000000000000000000000000000000000000000 DUP2 MSTORE PUSH1 0x4 ADD PUSH2 0x530D SWAP1 PUSH2 0x64B9 JUMP JUMPDEST PUSH1 0x40 MLOAD DUP1 SWAP2 SUB SWAP1 REVERT JUMPDEST SWAP3 SWAP2 POP POP JUMP JUMPDEST PUSH1 0x0 DUP1 PUSH1 0x0 PUSH2 0x5332 PUSH1 0x14 SLOAD PUSH1 0xE SLOAD PUSH1 0x2C SLOAD PUSH2 0x445E JUMP JUMPDEST SWAP1 POP PUSH1 0x0 PUSH2 0x5347 PUSH1 0x13 SLOAD PUSH1 0xD SLOAD PUSH1 0x2C SLOAD PUSH2 0x445E JUMP JUMPDEST SWAP1 POP PUSH1 0x0 PUSH2 0x5358 DUP4 DUP4 PUSH1 0x7 SLOAD PUSH2 0x5945 JUMP JUMPDEST SWAP1 POP PUSH1 0x0 DUP2 PUSH1 0x2C SLOAD PUSH1 0x2 PUSH2 0x536C SWAP2 SWAP1 PUSH2 0x680D JUMP JUMPDEST PUSH2 0x5376 SWAP2 SWAP1 PUSH2 0x6867 JUMP JUMPDEST SWAP1 POP PUSH1 0x0 PUSH2 0x5397 PUSH2 0x538C DUP5 DUP5 PUSH1 0x7 SLOAD DUP10 DUP10 PUSH2 0x55B7 JUMP JUMPDEST PUSH1 0xD SLOAD PUSH1 0xE SLOAD PUSH2 0x445E JUMP JUMPDEST SWAP1 POP PUSH1 0x0 PUSH2 0x53C0 PUSH2 0x53B5 PUSH1 0x5 SLOAD PUSH1 0x6 SLOAD PUSH1 0x7 SLOAD PUSH1 0xB SLOAD PUSH1 0xC SLOAD PUSH2 0x55B7 JUMP JUMPDEST PUSH1 0xD SLOAD PUSH1 0xE SLOAD PUSH2 0x445E JUMP JUMPDEST SWAP1 POP DUP2 DUP2 GT ISZERO PUSH2 0x540E JUMPI PUSH1 0x0 PUSH2 0x53DD PUSH1 0xF SLOAD PUSH1 0x13 SLOAD PUSH1 0x22 SLOAD PUSH2 0x59C9 JUMP JUMPDEST SWAP1 POP DUP1 PUSH2 0x1680 PUSH2 0x53EE DUP5 DUP7 DUP8 PUSH2 0x5582 JUMP JUMPDEST PUSH2 0x53F8 SWAP2 SWAP1 PUSH2 0x666B JUMP JUMPDEST PUSH2 0x5402 SWAP2 SWAP1 PUSH2 0x6615 JUMP JUMPDEST SWAP9 POP PUSH1 0x0 SWAP8 POP POP PUSH2 0x544E JUMP JUMPDEST PUSH1 0x0 PUSH2 0x5421 PUSH1 0x10 SLOAD PUSH1 0x14 SLOAD PUSH1 0x22 SLOAD PUSH2 0x59C9 JUMP JUMPDEST SWAP1 POP DUP1 PUSH2 0x1680 PUSH2 0x5432 DUP6 DUP6 DUP8 PUSH2 0x5582 JUMP JUMPDEST PUSH2 0x543C SWAP2 SWAP1 PUSH2 0x666B JUMP JUMPDEST PUSH2 0x5446 SWAP2 SWAP1 PUSH2 0x6615 JUMP JUMPDEST SWAP9 POP PUSH1 0x1 SWAP8 POP POP JUMPDEST PUSH1 0x21 SLOAD PUSH2 0x780 DUP10 PUSH2 0x545F SWAP2 SWAP1 PUSH2 0x680D JUMP JUMPDEST GT ISZERO PUSH2 0x5478 JUMPI PUSH2 0x780 PUSH1 0x21 SLOAD PUSH2 0x5475 SWAP2 SWAP1 PUSH2 0x666B JUMP JUMPDEST SWAP8 POP JUMPDEST POP POP POP POP POP POP SWAP1 SWAP2 JUMP JUMPDEST PUSH1 0x0 DUP2 DUP5 PUSH1 0x8 PUSH2 0x5492 SWAP2 SWAP1 PUSH2 0x680D JUMP JUMPDEST PUSH2 0x549C SWAP2 SWAP1 PUSH2 0x680D JUMP JUMPDEST PUSH2 0x5535 PUSH8 0xDE0B6B3A7640000 DUP6 DUP7 DUP8 PUSH2 0x54B5 SWAP2 SWAP1 PUSH2 0x680D JUMP JUMPDEST PUSH2 0x54BF SWAP2 SWAP1 PUSH2 0x680D JUMP JUMPDEST PUSH1 0x0 PUSH2 0x54CB SWAP2 SWAP1 PUSH2 0x6867 JUMP JUMPDEST DUP6 DUP9 PUSH1 0x10 PUSH2 0x54D9 SWAP2 SWAP1 PUSH2 0x680D JUMP JUMPDEST PUSH2 0x54E3 SWAP2 SWAP1 PUSH2 0x680D JUMP JUMPDEST PUSH2 0x54ED SWAP2 SWAP1 PUSH2 0x680D JUMP JUMPDEST PUSH2 0x54F7 SWAP2 SWAP1 PUSH2 0x680D JUMP JUMPDEST PUSH1 0x2 DUP6 DUP7 DUP11 PUSH1 0x4 PUSH2 0x5508 SWAP2 SWAP1 PUSH2 0x680D JUMP JUMPDEST PUSH2 0x5512 SWAP2 SWAP1 PUSH2 0x680D JUMP JUMPDEST PUSH2 0x551C SWAP2 SWAP1 PUSH2 0x680D JUMP JUMPDEST PUSH2 0x5526 SWAP2 SWAP1 PUSH2 0x66EF JUMP JUMPDEST PUSH2 0x5530 SWAP2 SWAP1 PUSH2 0x6867 JUMP JUMPDEST PUSH2 0x5A16 JUMP JUMPDEST DUP4 DUP5 DUP9 PUSH1 0x4 PUSH2 0x5544 SWAP2 SWAP1 PUSH2 0x680D JUMP JUMPDEST PUSH2 0x554E SWAP2 SWAP1 PUSH2 0x680D JUMP JUMPDEST PUSH2 0x5558 SWAP2 SWAP1 PUSH2 0x680D JUMP JUMPDEST PUSH1 0x0 PUSH2 0x5564 SWAP2 SWAP1 PUSH2 0x6867 JUMP JUMPDEST PUSH2 0x556E SWAP2 SWAP1 PUSH2 0x6615 JUMP JUMPDEST PUSH2 0x5578 SWAP2 SWAP1 PUSH2 0x666B JUMP JUMPDEST SWAP1 POP SWAP5 SWAP4 POP POP POP POP JUMP JUMPDEST PUSH1 0x0 DUP2 PUSH8 0xDE0B6B3A7640000 DUP5 DUP7 PUSH2 0x559A SWAP2 SWAP1 PUSH2 0x6867 JUMP JUMPDEST PUSH2 0x55A4 SWAP2 SWAP1 PUSH2 0x680D JUMP JUMPDEST PUSH2 0x55AE SWAP2 SWAP1 PUSH2 0x666B JUMP JUMPDEST SWAP1 POP SWAP4 SWAP3 POP POP POP JUMP JUMPDEST PUSH1 0x0 DUP2 DUP5 DUP6 DUP7 PUSH2 0x55C7 SWAP2 SWAP1 PUSH2 0x680D JUMP JUMPDEST PUSH2 0x55D1 SWAP2 SWAP1 PUSH2 0x680D JUMP JUMPDEST PUSH2 0x55DB SWAP2 SWAP1 PUSH2 0x680D JUMP JUMPDEST DUP3 DUP4 DUP6 DUP7 DUP11 PUSH1 0x4 PUSH2 0x55EC SWAP2 SWAP1 PUSH2 0x680D JUMP JUMPDEST PUSH2 0x55F6 SWAP2 SWAP1 PUSH2 0x680D JUMP JUMPDEST PUSH2 0x5600 SWAP2 SWAP1 PUSH2 0x680D JUMP JUMPDEST PUSH2 0x560A SWAP2 SWAP1 PUSH2 0x680D JUMP JUMPDEST PUSH2 0x5614 SWAP2 SWAP1 PUSH2 0x680D JUMP JUMPDEST PUSH2 0x561E SWAP2 SWAP1 PUSH2 0x6615 JUMP JUMPDEST PUSH8 0xDE0B6B3A7640000 DUP5 DUP7 DUP8 DUP9 PUSH2 0x5635 SWAP2 SWAP1 PUSH2 0x680D JUMP JUMPDEST PUSH2 0x563F SWAP2 SWAP1 PUSH2 0x680D JUMP JUMPDEST PUSH2 0x5649 SWAP2 SWAP1 PUSH2 0x680D JUMP JUMPDEST DUP5 DUP6 DUP8 DUP9 DUP12 PUSH1 0x4 PUSH2 0x565A SWAP2 SWAP1 PUSH2 0x680D JUMP JUMPDEST PUSH2 0x5664 SWAP2 SWAP1 PUSH2 0x680D JUMP JUMPDEST PUSH2 0x566E SWAP2 SWAP1 PUSH2 0x680D JUMP JUMPDEST PUSH2 0x5678 SWAP2 SWAP1 PUSH2 0x680D JUMP JUMPDEST PUSH2 0x5682 SWAP2 SWAP1 PUSH2 0x680D JUMP JUMPDEST PUSH2 0x568C SWAP2 SWAP1 PUSH2 0x6615 JUMP JUMPDEST PUSH2 0x5696 SWAP2 SWAP1 PUSH2 0x680D JUMP JUMPDEST PUSH2 0x56A0 SWAP2 SWAP1 PUSH2 0x666B JUMP JUMPDEST SWAP1 POP SWAP6 SWAP5 POP POP POP POP POP JUMP JUMPDEST PUSH1 0x0 DUP2 PUSH8 0xDE0B6B3A7640000 PUSH2 0x56C1 SWAP2 SWAP1 PUSH2 0x6615 JUMP JUMPDEST DUP5 DUP6 DUP8 DUP9 PUSH1 0x4 PUSH2 0x56D1 SWAP2 SWAP1 PUSH2 0x680D JUMP JUMPDEST PUSH2 0x56DB SWAP2 SWAP1 PUSH2 0x680D JUMP JUMPDEST PUSH2 0x56E5 SWAP2 SWAP1 PUSH2 0x680D JUMP JUMPDEST PUSH2 0x56EF SWAP2 SWAP1 PUSH2 0x680D JUMP JUMPDEST PUSH2 0x56F9 SWAP2 SWAP1 PUSH2 0x680D JUMP JUMPDEST PUSH8 0xDE0B6B3A7640000 DUP4 DUP7 DUP7 DUP8 DUP9 PUSH2 0x5711 SWAP2 SWAP1 PUSH2 0x680D JUMP JUMPDEST PUSH2 0x571B SWAP2 SWAP1 PUSH2 0x680D JUMP JUMPDEST PUSH2 0x5725 SWAP2 SWAP1 PUSH2 0x680D JUMP JUMPDEST PUSH2 0x572F SWAP2 SWAP1 PUSH2 0x680D JUMP JUMPDEST PUSH2 0x5739 SWAP2 SWAP1 PUSH2 0x680D JUMP JUMPDEST PUSH15 0xC097CE7BC90715B34B9F1000000000 DUP8 DUP7 DUP8 DUP9 PUSH2 0x5757 SWAP2 SWAP1 PUSH2 0x680D JUMP JUMPDEST PUSH2 0x5761 SWAP2 SWAP1 PUSH2 0x680D JUMP JUMPDEST PUSH2 0x576B SWAP2 SWAP1 PUSH2 0x680D JUMP JUMPDEST PUSH2 0x5775 SWAP2 SWAP1 PUSH2 0x680D JUMP JUMPDEST PUSH15 0xC097CE7BC90715B34B9F1000000000 DUP8 DUP9 DUP11 DUP12 PUSH1 0x8 PUSH2 0x5795 SWAP2 SWAP1 PUSH2 0x680D JUMP JUMPDEST PUSH2 0x579F SWAP2 SWAP1 PUSH2 0x680D JUMP JUMPDEST PUSH2 0x57A9 SWAP2 SWAP1 PUSH2 0x680D JUMP JUMPDEST PUSH2 0x57B3 SWAP2 SWAP1 PUSH2 0x680D JUMP JUMPDEST PUSH2 0x57BD SWAP2 SWAP1 PUSH2 0x680D JUMP JUMPDEST PUSH2 0x57C7 SWAP2 SWAP1 PUSH2 0x6615 JUMP JUMPDEST PUSH2 0x57D1 SWAP2 SWAP1 PUSH2 0x6867 JUMP JUMPDEST PUSH2 0x57DB SWAP2 SWAP1 PUSH2 0x666B JUMP JUMPDEST SWAP1 POP SWAP5 SWAP4 POP POP POP POP JUMP JUMPDEST PUSH1 0x0 DUP2 DUP6 PUSH1 0x8 PUSH2 0x57F5 SWAP2 SWAP1 PUSH2 0x680D JUMP JUMPDEST PUSH2 0x57FF SWAP2 SWAP1 PUSH2 0x680D JUMP JUMPDEST PUSH2 0x5898 PUSH8 0xDE0B6B3A7640000 DUP6 DUP7 DUP8 PUSH2 0x5818 SWAP2 SWAP1 PUSH2 0x680D JUMP JUMPDEST PUSH2 0x5822 SWAP2 SWAP1 PUSH2 0x680D JUMP JUMPDEST PUSH1 0x0 PUSH2 0x582E SWAP2 SWAP1 PUSH2 0x6867 JUMP JUMPDEST DUP6 DUP10 PUSH1 0x10 PUSH2 0x583C SWAP2 SWAP1 PUSH2 0x680D JUMP JUMPDEST PUSH2 0x5846 SWAP2 SWAP1 PUSH2 0x680D JUMP JUMPDEST PUSH2 0x5850 SWAP2 SWAP1 PUSH2 0x680D JUMP JUMPDEST PUSH2 0x585A SWAP2 SWAP1 PUSH2 0x680D JUMP JUMPDEST PUSH1 0x2 DUP6 DUP7 DUP10 PUSH1 0x4 PUSH2 0x586B SWAP2 SWAP1 PUSH2 0x680D JUMP JUMPDEST PUSH2 0x5875 SWAP2 SWAP1 PUSH2 0x680D JUMP JUMPDEST PUSH2 0x587F SWAP2 SWAP1 PUSH2 0x680D JUMP JUMPDEST PUSH2 0x5889 SWAP2 SWAP1 PUSH2 0x66EF JUMP JUMPDEST PUSH2 0x5893 SWAP2 SWAP1 PUSH2 0x6867 JUMP JUMPDEST PUSH2 0x5A16 JUMP JUMPDEST DUP4 DUP5 DUP8 PUSH1 0x4 PUSH2 0x58A7 SWAP2 SWAP1 PUSH2 0x680D JUMP JUMPDEST PUSH2 0x58B1 SWAP2 SWAP1 PUSH2 0x680D JUMP JUMPDEST PUSH2 0x58BB SWAP2 SWAP1 PUSH2 0x680D JUMP JUMPDEST PUSH1 0x0 PUSH2 0x58C7 SWAP2 SWAP1 PUSH2 0x6867 JUMP JUMPDEST PUSH2 0x58D1 SWAP2 SWAP1 PUSH2 0x6615 JUMP JUMPDEST PUSH2 0x58DB SWAP2 SWAP1 PUSH2 0x666B JUMP JUMPDEST SWAP1 POP SWAP5 SWAP4 POP POP POP POP JUMP JUMPDEST PUSH1 0x0 PUSH2 0x5937 PUSH2 0x58F8 DUP5 DUP11 DUP11 DUP7 DUP11 DUP11 PUSH2 0x5A90 JUMP JUMPDEST PUSH23 0xA70C3C40A64E6C51999090B65F67D9240000000000000 PUSH2 0x591E DUP13 DUP13 DUP13 DUP13 DUP13 DUP13 PUSH2 0x5A90 JUMP JUMPDEST PUSH2 0x5928 SWAP2 SWAP1 PUSH2 0x680D JUMP JUMPDEST PUSH2 0x5932 SWAP2 SWAP1 PUSH2 0x666B JUMP JUMPDEST PUSH2 0x5AEC JUMP JUMPDEST SWAP1 POP SWAP9 SWAP8 POP POP POP POP POP POP POP POP JUMP JUMPDEST PUSH1 0x0 DUP3 DUP5 PUSH2 0x5953 SWAP2 SWAP1 PUSH2 0x6867 JUMP JUMPDEST PUSH8 0xDE0B6B3A7640000 DUP5 PUSH1 0x2 PUSH2 0x5969 SWAP2 SWAP1 PUSH2 0x680D JUMP JUMPDEST DUP6 DUP8 PUSH1 0x4 DUP8 DUP9 DUP10 PUSH2 0x597A SWAP2 SWAP1 PUSH2 0x680D JUMP JUMPDEST PUSH2 0x5984 SWAP2 SWAP1 PUSH2 0x680D JUMP JUMPDEST PUSH2 0x598E SWAP2 SWAP1 PUSH2 0x666B JUMP JUMPDEST PUSH2 0x5998 SWAP2 SWAP1 PUSH2 0x666B JUMP JUMPDEST PUSH2 0x59A2 SWAP2 SWAP1 PUSH2 0x666B JUMP JUMPDEST PUSH2 0x59AC SWAP2 SWAP1 PUSH2 0x6867 JUMP JUMPDEST PUSH2 0x59B6 SWAP2 SWAP1 PUSH2 0x680D JUMP JUMPDEST PUSH2 0x59C0 SWAP2 SWAP1 PUSH2 0x666B JUMP JUMPDEST SWAP1 POP SWAP4 SWAP3 POP POP POP JUMP JUMPDEST PUSH1 0x0 DUP2 PUSH2 0xE100 DUP6 DUP6 PUSH2 0x59DB SWAP2 SWAP1 PUSH2 0x6615 JUMP JUMPDEST PUSH8 0xDE0B6B3A7640000 DUP8 PUSH2 0x59EF SWAP2 SWAP1 PUSH2 0x680D JUMP JUMPDEST PUSH2 0x59F9 SWAP2 SWAP1 PUSH2 0x666B JUMP JUMPDEST PUSH2 0x5A03 SWAP2 SWAP1 PUSH2 0x666B JUMP JUMPDEST PUSH2 0x5A0D SWAP2 SWAP1 PUSH2 0x6615 JUMP JUMPDEST SWAP1 POP SWAP4 SWAP3 POP POP POP JUMP JUMPDEST PUSH1 0x0 PUSH1 0x3 DUP3 GT ISZERO PUSH2 0x5A7D JUMPI DUP2 SWAP1 POP PUSH1 0x0 PUSH1 0x1 PUSH1 0x2 DUP5 PUSH2 0x5A35 SWAP2 SWAP1 PUSH2 0x666B JUMP JUMPDEST PUSH2 0x5A3F SWAP2 SWAP1 PUSH2 0x6615 JUMP JUMPDEST SWAP1 POP JUMPDEST DUP2 DUP2 LT ISZERO PUSH2 0x5A77 JUMPI DUP1 SWAP2 POP PUSH1 0x2 DUP2 DUP3 DUP6 PUSH2 0x5A5C SWAP2 SWAP1 PUSH2 0x666B JUMP JUMPDEST PUSH2 0x5A66 SWAP2 SWAP1 PUSH2 0x6615 JUMP JUMPDEST PUSH2 0x5A70 SWAP2 SWAP1 PUSH2 0x666B JUMP JUMPDEST SWAP1 POP PUSH2 0x5A42 JUMP JUMPDEST POP PUSH2 0x5A8B JUMP JUMPDEST PUSH1 0x0 DUP3 EQ PUSH2 0x5A8A JUMPI PUSH1 0x1 SWAP1 POP JUMPDEST JUMPDEST SWAP2 SWAP1 POP JUMP JUMPDEST PUSH1 0x0 DUP4 DUP8 DUP4 DUP6 DUP8 PUSH2 0x5AA1 SWAP2 SWAP1 PUSH2 0x680D JUMP JUMPDEST PUSH2 0x5AAB SWAP2 SWAP1 PUSH2 0x680D JUMP JUMPDEST DUP8 DUP10 DUP12 PUSH2 0x5AB8 SWAP2 SWAP1 PUSH2 0x680D JUMP JUMPDEST PUSH2 0x5AC2 SWAP2 SWAP1 PUSH2 0x680D JUMP JUMPDEST PUSH2 0x5ACC SWAP2 SWAP1 PUSH2 0x6615 JUMP JUMPDEST PUSH2 0x5AD6 SWAP2 SWAP1 PUSH2 0x680D JUMP JUMPDEST PUSH2 0x5AE0 SWAP2 SWAP1 PUSH2 0x680D JUMP JUMPDEST SWAP1 POP SWAP7 SWAP6 POP POP POP POP POP POP JUMP JUMPDEST PUSH1 0x0 PUSH1 0x8 DUP3 GT ISZERO PUSH2 0x5B6A JUMPI DUP2 SWAP1 POP PUSH1 0x0 PUSH1 0x1 PUSH1 0x3 DUP5 PUSH2 0x5B0B SWAP2 SWAP1 PUSH2 0x666B JUMP JUMPDEST PUSH2 0x5B15 SWAP2 SWAP1 PUSH2 0x6615 JUMP JUMPDEST SWAP1 POP JUMPDEST DUP2 DUP2 LT ISZERO PUSH2 0x5B64 JUMPI DUP1 SWAP2 POP PUSH1 0x3 DUP2 PUSH1 0x2 PUSH2 0x5B32 SWAP2 SWAP1 PUSH2 0x680D JUMP JUMPDEST DUP3 DUP4 PUSH2 0x5B3E SWAP2 SWAP1 PUSH2 0x680D JUMP JUMPDEST DUP6 PUSH2 0x5B49 SWAP2 SWAP1 PUSH2 0x666B JUMP JUMPDEST PUSH2 0x5B53 SWAP2 SWAP1 PUSH2 0x6615 JUMP JUMPDEST PUSH2 0x5B5D SWAP2 SWAP1 PUSH2 0x666B JUMP JUMPDEST SWAP1 POP PUSH2 0x5B18 JUMP JUMPDEST POP PUSH2 0x5B78 JUMP JUMPDEST PUSH1 0x0 DUP3 EQ PUSH2 0x5B77 JUMPI PUSH1 0x1 SWAP1 POP JUMPDEST JUMPDEST SWAP2 SWAP1 POP JUMP JUMPDEST POP PUSH1 0x0 DUP2 SSTORE PUSH1 0x1 ADD PUSH1 0x0 SWAP1 SSTORE JUMP JUMPDEST PUSH1 0x0 DUP2 CALLDATALOAD SWAP1 POP PUSH2 0x5B9A DUP2 PUSH2 0x6C1C JUMP JUMPDEST SWAP3 SWAP2 POP POP JUMP JUMPDEST PUSH1 0x0 DUP2 CALLDATALOAD SWAP1 POP PUSH2 0x5BAF DUP2 PUSH2 0x6C33 JUMP JUMPDEST SWAP3 SWAP2 POP POP JUMP JUMPDEST PUSH1 0x0 DUP2 MLOAD SWAP1 POP PUSH2 0x5BC4 DUP2 PUSH2 0x6C33 JUMP JUMPDEST SWAP3 SWAP2 POP POP JUMP JUMPDEST PUSH1 0x0 DUP2 CALLDATALOAD SWAP1 POP PUSH2 0x5BD9 DUP2 PUSH2 0x6C4A JUMP JUMPDEST SWAP3 SWAP2 POP POP JUMP JUMPDEST PUSH1 0x0 DUP2 CALLDATALOAD SWAP1 POP PUSH2 0x5BEE DUP2 PUSH2 0x6C61 JUMP JUMPDEST SWAP3 SWAP2 POP POP JUMP JUMPDEST PUSH1 0x0 DUP2 MLOAD SWAP1 POP PUSH2 0x5C03 DUP2 PUSH2 0x6C61 JUMP JUMPDEST SWAP3 SWAP2 POP POP JUMP JUMPDEST PUSH1 0x0 DUP2 CALLDATALOAD SWAP1 POP PUSH2 0x5C18 DUP2 PUSH2 0x6C78 JUMP JUMPDEST SWAP3 SWAP2 POP POP JUMP JUMPDEST PUSH1 0x0 PUSH1 0x20 DUP3 DUP5 SUB SLT ISZERO PUSH2 0x5C34 JUMPI PUSH2 0x5C33 PUSH2 0x6A0D JUMP JUMPDEST JUMPDEST PUSH1 0x0 PUSH2 0x5C42 DUP5 DUP3 DUP6 ADD PUSH2 0x5B8B JUMP JUMPDEST SWAP2 POP POP SWAP3 SWAP2 POP POP JUMP JUMPDEST PUSH1 0x0 DUP1 PUSH1 0x40 DUP4 DUP6 SUB SLT ISZERO PUSH2 0x5C62 JUMPI PUSH2 0x5C61 PUSH2 0x6A0D JUMP JUMPDEST JUMPDEST PUSH1 0x0 PUSH2 0x5C70 DUP6 DUP3 DUP7 ADD PUSH2 0x5B8B JUMP JUMPDEST SWAP3 POP POP PUSH1 0x20 PUSH2 0x5C81 DUP6 DUP3 DUP7 ADD PUSH2 0x5B8B JUMP JUMPDEST SWAP2 POP POP SWAP3 POP SWAP3 SWAP1 POP JUMP JUMPDEST PUSH1 0x0 DUP1 PUSH1 0x0 PUSH1 0x60 DUP5 DUP7 SUB SLT ISZERO PUSH2 0x5CA4 JUMPI PUSH2 0x5CA3 PUSH2 0x6A0D JUMP JUMPDEST JUMPDEST PUSH1 0x0 PUSH2 0x5CB2 DUP7 DUP3 DUP8 ADD PUSH2 0x5B8B JUMP JUMPDEST SWAP4 POP POP PUSH1 0x20 PUSH2 0x5CC3 DUP7 DUP3 DUP8 ADD PUSH2 0x5B8B JUMP JUMPDEST SWAP3 POP POP PUSH1 0x40 PUSH2 0x5CD4 DUP7 DUP3 DUP8 ADD PUSH2 0x5BDF JUMP JUMPDEST SWAP2 POP POP SWAP3 POP SWAP3 POP SWAP3 JUMP JUMPDEST PUSH1 0x0 DUP1 PUSH1 0x0 DUP1 PUSH1 0x0 DUP1 PUSH1 0x0 PUSH1 0xE0 DUP9 DUP11 SUB SLT ISZERO PUSH2 0x5CFD JUMPI PUSH2 0x5CFC PUSH2 0x6A0D JUMP JUMPDEST JUMPDEST PUSH1 0x0 PUSH2 0x5D0B DUP11 DUP3 DUP12 ADD PUSH2 0x5B8B JUMP JUMPDEST SWAP8 POP POP PUSH1 0x20 PUSH2 0x5D1C DUP11 DUP3 DUP12 ADD PUSH2 0x5B8B JUMP JUMPDEST SWAP7 POP POP PUSH1 0x40 PUSH2 0x5D2D DUP11 DUP3 DUP12 ADD PUSH2 0x5BDF JUMP JUMPDEST SWAP6 POP POP PUSH1 0x60 PUSH2 0x5D3E DUP11 DUP3 DUP12 ADD PUSH2 0x5BDF JUMP JUMPDEST SWAP5 POP POP PUSH1 0x80 PUSH2 0x5D4F DUP11 DUP3 DUP12 ADD PUSH2 0x5C09 JUMP JUMPDEST SWAP4 POP POP PUSH1 0xA0 PUSH2 0x5D60 DUP11 DUP3 DUP12 ADD PUSH2 0x5BCA JUMP JUMPDEST SWAP3 POP POP PUSH1 0xC0 PUSH2 0x5D71 DUP11 DUP3 DUP12 ADD PUSH2 0x5BCA JUMP JUMPDEST SWAP2 POP POP SWAP3 SWAP6 SWAP9 SWAP2 SWAP5 SWAP8 POP SWAP3 SWAP6 POP JUMP JUMPDEST PUSH1 0x0 DUP1 PUSH1 0x40 DUP4 DUP6 SUB SLT ISZERO PUSH2 0x5D97 JUMPI PUSH2 0x5D96 PUSH2 0x6A0D JUMP JUMPDEST JUMPDEST PUSH1 0x0 PUSH2 0x5DA5 DUP6 DUP3 DUP7 ADD PUSH2 0x5B8B JUMP JUMPDEST SWAP3 POP POP PUSH1 0x20 PUSH2 0x5DB6 DUP6 DUP3 DUP7 ADD PUSH2 0x5BA0 JUMP JUMPDEST SWAP2 POP POP SWAP3 POP SWAP3 SWAP1 POP JUMP JUMPDEST PUSH1 0x0 DUP1 PUSH1 0x40 DUP4 DUP6 SUB SLT ISZERO PUSH2 0x5DD7 JUMPI PUSH2 0x5DD6 PUSH2 0x6A0D JUMP JUMPDEST JUMPDEST PUSH1 0x0 PUSH2 0x5DE5 DUP6 DUP3 DUP7 ADD PUSH2 0x5B8B JUMP JUMPDEST SWAP3 POP POP PUSH1 0x20 PUSH2 0x5DF6 DUP6 DUP3 DUP7 ADD PUSH2 0x5BDF JUMP JUMPDEST SWAP2 POP POP SWAP3 POP SWAP3 SWAP1 POP JUMP JUMPDEST PUSH1 0x0 DUP1 PUSH1 0x0 PUSH1 0x60 DUP5 DUP7 SUB SLT ISZERO PUSH2 0x5E19 JUMPI PUSH2 0x5E18 PUSH2 0x6A0D JUMP JUMPDEST JUMPDEST PUSH1 0x0 PUSH2 0x5E27 DUP7 DUP3 DUP8 ADD PUSH2 0x5B8B JUMP JUMPDEST SWAP4 POP POP PUSH1 0x20 PUSH2 0x5E38 DUP7 DUP3 DUP8 ADD PUSH2 0x5BDF JUMP JUMPDEST SWAP3 POP POP PUSH1 0x40 PUSH2 0x5E49 DUP7 DUP3 DUP8 ADD PUSH2 0x5BDF JUMP JUMPDEST SWAP2 POP POP SWAP3 POP SWAP3 POP SWAP3 JUMP JUMPDEST PUSH1 0x0 PUSH1 0x20 DUP3 DUP5 SUB SLT ISZERO PUSH2 0x5E69 JUMPI PUSH2 0x5E68 PUSH2 0x6A0D JUMP JUMPDEST JUMPDEST PUSH1 0x0 PUSH2 0x5E77 DUP5 DUP3 DUP6 ADD PUSH2 0x5BB5 JUMP JUMPDEST SWAP2 POP POP SWAP3 SWAP2 POP POP JUMP JUMPDEST PUSH1 0x0 PUSH1 0x20 DUP3 DUP5 SUB SLT ISZERO PUSH2 0x5E96 JUMPI PUSH2 0x5E95 PUSH2 0x6A0D JUMP JUMPDEST JUMPDEST PUSH1 0x0 PUSH2 0x5EA4 DUP5 DUP3 DUP6 ADD PUSH2 0x5BDF JUMP JUMPDEST SWAP2 POP POP SWAP3 SWAP2 POP POP JUMP JUMPDEST PUSH1 0x0 PUSH1 0x20 DUP3 DUP5 SUB SLT ISZERO PUSH2 0x5EC3 JUMPI PUSH2 0x5EC2 PUSH2 0x6A0D JUMP JUMPDEST JUMPDEST PUSH1 0x0 PUSH2 0x5ED1 DUP5 DUP3 DUP6 ADD PUSH2 0x5BF4 JUMP JUMPDEST SWAP2 POP POP SWAP3 SWAP2 POP POP JUMP JUMPDEST PUSH1 0x0 DUP1 PUSH1 0x40 DUP4 DUP6 SUB SLT ISZERO PUSH2 0x5EF1 JUMPI PUSH2 0x5EF0 PUSH2 0x6A0D JUMP JUMPDEST JUMPDEST PUSH1 0x0 PUSH2 0x5EFF DUP6 DUP3 DUP7 ADD PUSH2 0x5BDF JUMP JUMPDEST SWAP3 POP POP PUSH1 0x20 PUSH2 0x5F10 DUP6 DUP3 DUP7 ADD PUSH2 0x5B8B JUMP JUMPDEST SWAP2 POP POP SWAP3 POP SWAP3 SWAP1 POP JUMP JUMPDEST PUSH1 0x0 DUP1 PUSH1 0x0 PUSH1 0x60 DUP5 DUP7 SUB SLT ISZERO PUSH2 0x5F33 JUMPI PUSH2 0x5F32 PUSH2 0x6A0D JUMP JUMPDEST JUMPDEST PUSH1 0x0 PUSH2 0x5F41 DUP7 DUP3 DUP8 ADD PUSH2 0x5BDF JUMP JUMPDEST SWAP4 POP POP PUSH1 0x20 PUSH2 0x5F52 DUP7 DUP3 DUP8 ADD PUSH2 0x5BDF JUMP JUMPDEST SWAP3 POP POP PUSH1 0x40 PUSH2 0x5F63 DUP7 DUP3 DUP8 ADD PUSH2 0x5B8B JUMP JUMPDEST SWAP2 POP POP SWAP3 POP SWAP3 POP SWAP3 JUMP JUMPDEST PUSH1 0x0 DUP1 PUSH1 0x0 DUP1 PUSH1 0x80 DUP6 DUP8 SUB SLT ISZERO PUSH2 0x5F87 JUMPI PUSH2 0x5F86 PUSH2 0x6A0D JUMP JUMPDEST JUMPDEST PUSH1 0x0 PUSH2 0x5F95 DUP8 DUP3 DUP9 ADD PUSH2 0x5BDF JUMP JUMPDEST SWAP5 POP POP PUSH1 0x20 PUSH2 0x5FA6 DUP8 DUP3 DUP9 ADD PUSH2 0x5BDF JUMP JUMPDEST SWAP4 POP POP PUSH1 0x40 PUSH2 0x5FB7 DUP8 DUP3 DUP9 ADD PUSH2 0x5BA0 JUMP JUMPDEST SWAP3 POP POP PUSH1 0x60 PUSH2 0x5FC8 DUP8 DUP3 DUP9 ADD PUSH2 0x5B8B JUMP JUMPDEST SWAP2 POP POP SWAP3 SWAP6 SWAP2 SWAP5 POP SWAP3 POP JUMP JUMPDEST PUSH2 0x5FDD DUP2 PUSH2 0x689B JUMP JUMPDEST DUP3 MSTORE POP POP JUMP JUMPDEST PUSH2 0x5FEC DUP2 PUSH2 0x68AD JUMP JUMPDEST DUP3 MSTORE POP POP JUMP JUMPDEST PUSH2 0x5FFB DUP2 PUSH2 0x68B9 JUMP JUMPDEST DUP3 MSTORE POP POP JUMP JUMPDEST PUSH2 0x6012 PUSH2 0x600D DUP3 PUSH2 0x68B9 JUMP JUMPDEST PUSH2 0x6976 JUMP JUMPDEST DUP3 MSTORE POP POP JUMP JUMPDEST PUSH1 0x0 PUSH2 0x6023 DUP3 PUSH2 0x65D8 JUMP JUMPDEST PUSH2 0x602D DUP2 DUP6 PUSH2 0x65EE JUMP JUMPDEST SWAP4 POP PUSH2 0x603D DUP2 DUP6 PUSH1 0x20 DUP7 ADD PUSH2 0x68FA JUMP JUMPDEST DUP1 DUP5 ADD SWAP2 POP POP SWAP3 SWAP2 POP POP JUMP JUMPDEST PUSH1 0x0 PUSH2 0x6054 DUP3 PUSH2 0x65E3 JUMP JUMPDEST PUSH2 0x605E DUP2 DUP6 PUSH2 0x65F9 JUMP JUMPDEST SWAP4 POP PUSH2 0x606E DUP2 DUP6 PUSH1 0x20 DUP7 ADD PUSH2 0x68FA JUMP JUMPDEST PUSH2 0x6077 DUP2 PUSH2 0x6A12 JUMP JUMPDEST DUP5 ADD SWAP2 POP POP SWAP3 SWAP2 POP POP JUMP JUMPDEST PUSH1 0x0 PUSH2 0x608F PUSH1 0x15 DUP4 PUSH2 0x65F9 JUMP JUMPDEST SWAP2 POP PUSH2 0x609A DUP3 PUSH2 0x6A30 JUMP JUMPDEST PUSH1 0x20 DUP3 ADD SWAP1 POP SWAP2 SWAP1 POP JUMP JUMPDEST PUSH1 0x0 PUSH2 0x60B2 PUSH1 0x20 DUP4 PUSH2 0x65F9 JUMP JUMPDEST SWAP2 POP PUSH2 0x60BD DUP3 PUSH2 0x6A59 JUMP JUMPDEST PUSH1 0x20 DUP3 ADD SWAP1 POP SWAP2 SWAP1 POP JUMP JUMPDEST PUSH1 0x0 PUSH2 0x60D5 PUSH1 0x12 DUP4 PUSH2 0x65F9 JUMP JUMPDEST SWAP2 POP PUSH2 0x60E0 DUP3 PUSH2 0x6A82 JUMP JUMPDEST PUSH1 0x20 DUP3 ADD SWAP1 POP SWAP2 SWAP1 POP JUMP JUMPDEST PUSH1 0x0 PUSH2 0x60F8 PUSH1 0x10 DUP4 PUSH2 0x65F9 JUMP JUMPDEST SWAP2 POP PUSH2 0x6103 DUP3 PUSH2 0x6AAB JUMP JUMPDEST PUSH1 0x20 DUP3 ADD SWAP1 POP SWAP2 SWAP1 POP JUMP JUMPDEST PUSH1 0x0 PUSH2 0x611B PUSH1 0x1C DUP4 PUSH2 0x65F9 JUMP JUMPDEST SWAP2 POP PUSH2 0x6126 DUP3 PUSH2 0x6AD4 JUMP JUMPDEST PUSH1 0x20 DUP3 ADD SWAP1 POP SWAP2 SWAP1 POP JUMP JUMPDEST PUSH1 0x0 PUSH2 0x613E PUSH1 0x2 DUP4 PUSH2 0x660A JUMP JUMPDEST SWAP2 POP PUSH2 0x6149 DUP3 PUSH2 0x6AFD JUMP JUMPDEST PUSH1 0x2 DUP3 ADD SWAP1 POP SWAP2 SWAP1 POP JUMP JUMPDEST PUSH1 0x0 PUSH2 0x6161 PUSH1 0x14 DUP4 PUSH2 0x65F9 JUMP JUMPDEST SWAP2 POP PUSH2 0x616C DUP3 PUSH2 0x6B26 JUMP JUMPDEST PUSH1 0x20 DUP3 ADD SWAP1 POP SWAP2 SWAP1 POP JUMP JUMPDEST PUSH1 0x0 PUSH2 0x6184 PUSH1 0x12 DUP4 PUSH2 0x65F9 JUMP JUMPDEST SWAP2 POP PUSH2 0x618F DUP3 PUSH2 0x6B4F JUMP JUMPDEST PUSH1 0x20 DUP3 ADD SWAP1 POP SWAP2 SWAP1 POP JUMP JUMPDEST PUSH1 0x0 PUSH2 0x61A7 PUSH1 0x9 DUP4 PUSH2 0x65F9 JUMP JUMPDEST SWAP2 POP PUSH2 0x61B2 DUP3 PUSH2 0x6B78 JUMP JUMPDEST PUSH1 0x20 DUP3 ADD SWAP1 POP SWAP2 SWAP1 POP JUMP JUMPDEST PUSH1 0x0 PUSH2 0x61CA PUSH1 0xF DUP4 PUSH2 0x65F9 JUMP JUMPDEST SWAP2 POP PUSH2 0x61D5 DUP3 PUSH2 0x6BA1 JUMP JUMPDEST PUSH1 0x20 DUP3 ADD SWAP1 POP SWAP2 SWAP1 POP JUMP JUMPDEST PUSH1 0x0 PUSH2 0x61ED PUSH1 0x18 DUP4 PUSH2 0x65F9 JUMP JUMPDEST SWAP2 POP PUSH2 0x61F8 DUP3 PUSH2 0x6BCA JUMP JUMPDEST PUSH1 0x20 DUP3 ADD SWAP1 POP SWAP2 SWAP1 POP JUMP JUMPDEST PUSH1 0x0 PUSH2 0x6210 PUSH1 0x6 DUP4 PUSH2 0x65F9 JUMP JUMPDEST SWAP2 POP PUSH2 0x621B DUP3 PUSH2 0x6BF3 JUMP JUMPDEST PUSH1 0x20 DUP3 ADD SWAP1 POP SWAP2 SWAP1 POP JUMP JUMPDEST PUSH2 0x622F DUP2 PUSH2 0x68E3 JUMP JUMPDEST DUP3 MSTORE POP POP JUMP JUMPDEST PUSH2 0x623E DUP2 PUSH2 0x68ED JUMP JUMPDEST DUP3 MSTORE POP POP JUMP JUMPDEST PUSH1 0x0 PUSH2 0x6250 DUP3 DUP5 PUSH2 0x6018 JUMP JUMPDEST SWAP2 POP DUP2 SWAP1 POP SWAP3 SWAP2 POP POP JUMP JUMPDEST PUSH1 0x0 PUSH2 0x6266 DUP3 PUSH2 0x6131 JUMP JUMPDEST SWAP2 POP PUSH2 0x6272 DUP3 DUP6 PUSH2 0x6001 JUMP JUMPDEST PUSH1 0x20 DUP3 ADD SWAP2 POP PUSH2 0x6282 DUP3 DUP5 PUSH2 0x6001 JUMP JUMPDEST PUSH1 0x20 DUP3 ADD SWAP2 POP DUP2 SWAP1 POP SWAP4 SWAP3 POP POP POP JUMP JUMPDEST PUSH1 0x0 PUSH1 0x20 DUP3 ADD SWAP1 POP PUSH2 0x62A7 PUSH1 0x0 DUP4 ADD DUP5 PUSH2 0x5FD4 JUMP JUMPDEST SWAP3 SWAP2 POP POP JUMP JUMPDEST PUSH1 0x0 PUSH1 0x80 DUP3 ADD SWAP1 POP PUSH2 0x62C2 PUSH1 0x0 DUP4 ADD DUP8 PUSH2 0x5FD4 JUMP JUMPDEST PUSH2 0x62CF PUSH1 0x20 DUP4 ADD DUP7 PUSH2 0x5FE3 JUMP JUMPDEST PUSH2 0x62DC PUSH1 0x40 DUP4 ADD DUP6 PUSH2 0x6226 JUMP JUMPDEST PUSH2 0x62E9 PUSH1 0x60 DUP4 ADD DUP5 PUSH2 0x6226 JUMP JUMPDEST SWAP6 SWAP5 POP POP POP POP POP JUMP JUMPDEST PUSH1 0x0 PUSH1 0x40 DUP3 ADD SWAP1 POP PUSH2 0x6307 PUSH1 0x0 DUP4 ADD DUP6 PUSH2 0x5FD4 JUMP JUMPDEST PUSH2 0x6314 PUSH1 0x20 DUP4 ADD DUP5 PUSH2 0x6226 JUMP JUMPDEST SWAP4 SWAP3 POP POP POP JUMP JUMPDEST PUSH1 0x0 PUSH1 0x20 DUP3 ADD SWAP1 POP PUSH2 0x6330 PUSH1 0x0 DUP4 ADD DUP5 PUSH2 0x5FE3 JUMP JUMPDEST SWAP3 SWAP2 POP POP JUMP JUMPDEST PUSH1 0x0 PUSH1 0x20 DUP3 ADD SWAP1 POP PUSH2 0x634B PUSH1 0x0 DUP4 ADD DUP5 PUSH2 0x5FF2 JUMP JUMPDEST SWAP3 SWAP2 POP POP JUMP JUMPDEST PUSH1 0x0 PUSH1 0xC0 DUP3 ADD SWAP1 POP PUSH2 0x6366 PUSH1 0x0 DUP4 ADD DUP10 PUSH2 0x5FF2 JUMP JUMPDEST PUSH2 0x6373 PUSH1 0x20 DUP4 ADD DUP9 PUSH2 0x5FD4 JUMP JUMPDEST PUSH2 0x6380 PUSH1 0x40 DUP4 ADD DUP8 PUSH2 0x5FD4 JUMP JUMPDEST PUSH2 0x638D PUSH1 0x60 DUP4 ADD DUP7 PUSH2 0x6226 JUMP JUMPDEST PUSH2 0x639A PUSH1 0x80 DUP4 ADD DUP6 PUSH2 0x6226 JUMP JUMPDEST PUSH2 0x63A7 PUSH1 0xA0 DUP4 ADD DUP5 PUSH2 0x6226 JUMP JUMPDEST SWAP8 SWAP7 POP POP POP POP POP POP POP JUMP JUMPDEST PUSH1 0x0 PUSH1 0x80 DUP3 ADD SWAP1 POP PUSH2 0x63C7 PUSH1 0x0 DUP4 ADD DUP8 PUSH2 0x5FF2 JUMP JUMPDEST PUSH2 0x63D4 PUSH1 0x20 DUP4 ADD DUP7 PUSH2 0x6235 JUMP JUMPDEST PUSH2 0x63E1 PUSH1 0x40 DUP4 ADD DUP6 PUSH2 0x5FF2 JUMP JUMPDEST PUSH2 0x63EE PUSH1 0x60 DUP4 ADD DUP5 PUSH2 0x5FF2 JUMP JUMPDEST SWAP6 SWAP5 POP POP POP POP POP JUMP JUMPDEST PUSH1 0x0 PUSH1 0x20 DUP3 ADD SWAP1 POP DUP2 DUP2 SUB PUSH1 0x0 DUP4 ADD MSTORE PUSH2 0x6411 DUP2 DUP5 PUSH2 0x6049 JUMP JUMPDEST SWAP1 POP SWAP3 SWAP2 POP POP JUMP JUMPDEST PUSH1 0x0 PUSH1 0x20 DUP3 ADD SWAP1 POP DUP2 DUP2 SUB PUSH1 0x0 DUP4 ADD MSTORE PUSH2 0x6432 DUP2 PUSH2 0x6082 JUMP JUMPDEST SWAP1 POP SWAP2 SWAP1 POP JUMP JUMPDEST PUSH1 0x0 PUSH1 0x20 DUP3 ADD SWAP1 POP DUP2 DUP2 SUB PUSH1 0x0 DUP4 ADD MSTORE PUSH2 0x6452 DUP2 PUSH2 0x60A5 JUMP JUMPDEST SWAP1 POP SWAP2 SWAP1 POP JUMP JUMPDEST PUSH1 0x0 PUSH1 0x20 DUP3 ADD SWAP1 POP DUP2 DUP2 SUB PUSH1 0x0 DUP4 ADD MSTORE PUSH2 0x6472 DUP2 PUSH2 0x60C8 JUMP JUMPDEST SWAP1 POP SWAP2 SWAP1 POP JUMP JUMPDEST PUSH1 0x0 PUSH1 0x20 DUP3 ADD SWAP1 POP DUP2 DUP2 SUB PUSH1 0x0 DUP4 ADD MSTORE PUSH2 0x6492 DUP2 PUSH2 0x60EB JUMP JUMPDEST SWAP1 POP SWAP2 SWAP1 POP JUMP JUMPDEST PUSH1 0x0 PUSH1 0x20 DUP3 ADD SWAP1 POP DUP2 DUP2 SUB PUSH1 0x0 DUP4 ADD MSTORE PUSH2 0x64B2 DUP2 PUSH2 0x610E JUMP JUMPDEST SWAP1 POP SWAP2 SWAP1 POP JUMP JUMPDEST PUSH1 0x0 PUSH1 0x20 DUP3 ADD SWAP1 POP DUP2 DUP2 SUB PUSH1 0x0 DUP4 ADD MSTORE PUSH2 0x64D2 DUP2 PUSH2 0x6154 JUMP JUMPDEST SWAP1 POP SWAP2 SWAP1 POP JUMP JUMPDEST PUSH1 0x0 PUSH1 0x20 DUP3 ADD SWAP1 POP DUP2 DUP2 SUB PUSH1 0x0 DUP4 ADD MSTORE PUSH2 0x64F2 DUP2 PUSH2 0x6177 JUMP JUMPDEST SWAP1 POP SWAP2 SWAP1 POP JUMP JUMPDEST PUSH1 0x0 PUSH1 0x20 DUP3 ADD SWAP1 POP DUP2 DUP2 SUB PUSH1 0x0 DUP4 ADD MSTORE PUSH2 0x6512 DUP2 PUSH2 0x619A JUMP JUMPDEST SWAP1 POP SWAP2 SWAP1 POP JUMP JUMPDEST PUSH1 0x0 PUSH1 0x20 DUP3 ADD SWAP1 POP DUP2 DUP2 SUB PUSH1 0x0 DUP4 ADD MSTORE PUSH2 0x6532 DUP2 PUSH2 0x61BD JUMP JUMPDEST SWAP1 POP SWAP2 SWAP1 POP JUMP JUMPDEST PUSH1 0x0 PUSH1 0x20 DUP3 ADD SWAP1 POP DUP2 DUP2 SUB PUSH1 0x0 DUP4 ADD MSTORE PUSH2 0x6552 DUP2 PUSH2 0x61E0 JUMP JUMPDEST SWAP1 POP SWAP2 SWAP1 POP JUMP JUMPDEST PUSH1 0x0 PUSH1 0x20 DUP3 ADD SWAP1 POP DUP2 DUP2 SUB PUSH1 0x0 DUP4 ADD MSTORE PUSH2 0x6572 DUP2 PUSH2 0x6203 JUMP JUMPDEST SWAP1 POP SWAP2 SWAP1 POP JUMP JUMPDEST PUSH1 0x0 PUSH1 0x20 DUP3 ADD SWAP1 POP PUSH2 0x658E PUSH1 0x0 DUP4 ADD DUP5 PUSH2 0x6226 JUMP JUMPDEST SWAP3 SWAP2 POP POP JUMP JUMPDEST PUSH1 0x0 PUSH1 0x40 DUP3 ADD SWAP1 POP PUSH2 0x65A9 PUSH1 0x0 DUP4 ADD DUP6 PUSH2 0x6226 JUMP JUMPDEST PUSH2 0x65B6 PUSH1 0x20 DUP4 ADD DUP5 PUSH2 0x6226 JUMP JUMPDEST SWAP4 SWAP3 POP POP POP JUMP JUMPDEST PUSH1 0x0 PUSH1 0x20 DUP3 ADD SWAP1 POP PUSH2 0x65D2 PUSH1 0x0 DUP4 ADD DUP5 PUSH2 0x6235 JUMP JUMPDEST SWAP3 SWAP2 POP POP JUMP JUMPDEST PUSH1 0x0 DUP2 MLOAD SWAP1 POP SWAP2 SWAP1 POP JUMP JUMPDEST PUSH1 0x0 DUP2 MLOAD SWAP1 POP SWAP2 SWAP1 POP JUMP JUMPDEST PUSH1 0x0 DUP2 SWAP1 POP SWAP3 SWAP2 POP POP JUMP JUMPDEST PUSH1 0x0 DUP3 DUP3 MSTORE PUSH1 0x20 DUP3 ADD SWAP1 POP SWAP3 SWAP2 POP POP JUMP JUMPDEST PUSH1 0x0 DUP2 SWAP1 POP SWAP3 SWAP2 POP POP JUMP JUMPDEST PUSH1 0x0 PUSH2 0x6620 DUP3 PUSH2 0x68E3 JUMP JUMPDEST SWAP2 POP PUSH2 0x662B DUP4 PUSH2 0x68E3 JUMP JUMPDEST SWAP3 POP DUP3 PUSH32 0xFFFFFFFFFFFFFFFFFFFFFFFFFFFFFFFFFFFFFFFFFFFFFFFFFFFFFFFFFFFFFFFF SUB DUP3 GT ISZERO PUSH2 0x6660 JUMPI PUSH2 0x665F PUSH2 0x6980 JUMP JUMPDEST JUMPDEST DUP3 DUP3 ADD SWAP1 POP SWAP3 SWAP2 POP POP JUMP JUMPDEST PUSH1 0x0 PUSH2 0x6676 DUP3 PUSH2 0x68E3 JUMP JUMPDEST SWAP2 POP PUSH2 0x6681 DUP4 PUSH2 0x68E3 JUMP JUMPDEST SWAP3 POP DUP3 PUSH2 0x6691 JUMPI PUSH2 0x6690 PUSH2 0x69AF JUMP JUMPDEST JUMPDEST DUP3 DUP3 DIV SWAP1 POP SWAP3 SWAP2 POP POP JUMP JUMPDEST PUSH1 0x0 DUP1 DUP3 SWAP2 POP DUP4 SWAP1 POP JUMPDEST PUSH1 0x1 DUP6 GT ISZERO PUSH2 0x66E6 JUMPI DUP1 DUP7 DIV DUP2 GT ISZERO PUSH2 0x66C2 JUMPI PUSH2 0x66C1 PUSH2 0x6980 JUMP JUMPDEST JUMPDEST PUSH1 0x1 DUP6 AND ISZERO PUSH2 0x66D1 JUMPI DUP1 DUP3 MUL SWAP2 POP JUMPDEST DUP1 DUP2 MUL SWAP1 POP PUSH2 0x66DF DUP6 PUSH2 0x6A23 JUMP JUMPDEST SWAP5 POP PUSH2 0x66A6 JUMP JUMPDEST SWAP5 POP SWAP5 SWAP3 POP POP POP JUMP JUMPDEST PUSH1 0x0 PUSH2 0x66FA DUP3 PUSH2 0x68E3 JUMP JUMPDEST SWAP2 POP PUSH2 0x6705 DUP4 PUSH2 0x68ED JUMP JUMPDEST SWAP3 POP PUSH2 0x6732 PUSH32 0xFFFFFFFFFFFFFFFFFFFFFFFFFFFFFFFFFFFFFFFFFFFFFFFFFFFFFFFFFFFFFFFF DUP5 DUP5 PUSH2 0x673A JUMP JUMPDEST SWAP1 POP SWAP3 SWAP2 POP POP JUMP JUMPDEST PUSH1 0x0 DUP3 PUSH2 0x674A JUMPI PUSH1 0x1 SWAP1 POP PUSH2 0x6806 JUMP JUMPDEST DUP2 PUSH2 0x6758 JUMPI PUSH1 0x0 SWAP1 POP PUSH2 0x6806 JUMP JUMPDEST DUP2 PUSH1 0x1 DUP2 EQ PUSH2 0x676E JUMPI PUSH1 0x2 DUP2 EQ PUSH2 0x6778 JUMPI PUSH2 0x67A7 JUMP JUMPDEST PUSH1 0x1 SWAP2 POP POP PUSH2 0x6806 JUMP JUMPDEST PUSH1 0xFF DUP5 GT ISZERO PUSH2 0x678A JUMPI PUSH2 0x6789 PUSH2 0x6980 JUMP JUMPDEST JUMPDEST DUP4 PUSH1 0x2 EXP SWAP2 POP DUP5 DUP3 GT ISZERO PUSH2 0x67A1 JUMPI PUSH2 0x67A0 PUSH2 0x6980 JUMP JUMPDEST JUMPDEST POP PUSH2 0x6806 JUMP JUMPDEST POP PUSH1 0x20 DUP4 LT PUSH2 0x133 DUP4 LT AND PUSH1 0x4E DUP5 LT PUSH1 0xB DUP5 LT AND OR ISZERO PUSH2 0x67DC JUMPI DUP3 DUP3 EXP SWAP1 POP DUP4 DUP2 GT ISZERO PUSH2 0x67D7 JUMPI PUSH2 0x67D6 PUSH2 0x6980 JUMP JUMPDEST JUMPDEST PUSH2 0x6806 JUMP JUMPDEST PUSH2 0x67E9 DUP5 DUP5 DUP5 PUSH1 0x1 PUSH2 0x669C JUMP JUMPDEST SWAP3 POP SWAP1 POP DUP2 DUP5 DIV DUP2 GT ISZERO PUSH2 0x6800 JUMPI PUSH2 0x67FF PUSH2 0x6980 JUMP JUMPDEST JUMPDEST DUP2 DUP2 MUL SWAP1 POP JUMPDEST SWAP4 SWAP3 POP POP POP JUMP JUMPDEST PUSH1 0x0 PUSH2 0x6818 DUP3 PUSH2 0x68E3 JUMP JUMPDEST SWAP2 POP PUSH2 0x6823 DUP4 PUSH2 0x68E3 JUMP JUMPDEST SWAP3 POP DUP2 PUSH32 0xFFFFFFFFFFFFFFFFFFFFFFFFFFFFFFFFFFFFFFFFFFFFFFFFFFFFFFFFFFFFFFFF DIV DUP4 GT DUP3 ISZERO ISZERO AND ISZERO PUSH2 0x685C JUMPI PUSH2 0x685B PUSH2 0x6980 JUMP JUMPDEST JUMPDEST DUP3 DUP3 MUL SWAP1 POP SWAP3 SWAP2 POP POP JUMP JUMPDEST PUSH1 0x0 PUSH2 0x6872 DUP3 PUSH2 0x68E3 JUMP JUMPDEST SWAP2 POP PUSH2 0x687D DUP4 PUSH2 0x68E3 JUMP JUMPDEST SWAP3 POP DUP3 DUP3 LT ISZERO PUSH2 0x6890 JUMPI PUSH2 0x688F PUSH2 0x6980 JUMP JUMPDEST JUMPDEST DUP3 DUP3 SUB SWAP1 POP SWAP3 SWAP2 POP POP JUMP JUMPDEST PUSH1 0x0 PUSH2 0x68A6 DUP3 PUSH2 0x68C3 JUMP JUMPDEST SWAP1 POP SWAP2 SWAP1 POP JUMP JUMPDEST PUSH1 0x0 DUP2 ISZERO ISZERO SWAP1 POP SWAP2 SWAP1 POP JUMP JUMPDEST PUSH1 0x0 DUP2 SWAP1 POP SWAP2 SWAP1 POP JUMP JUMPDEST PUSH1 0x0 PUSH20 0xFFFFFFFFFFFFFFFFFFFFFFFFFFFFFFFFFFFFFFFF DUP3 AND SWAP1 POP SWAP2 SWAP1 POP JUMP JUMPDEST PUSH1 0x0 DUP2 SWAP1 POP SWAP2 SWAP1 POP JUMP JUMPDEST PUSH1 0x0 PUSH1 0xFF DUP3 AND SWAP1 POP SWAP2 SWAP1 POP JUMP JUMPDEST PUSH1 0x0 JUMPDEST DUP4 DUP2 LT ISZERO PUSH2 0x6918 JUMPI DUP1 DUP3 ADD MLOAD DUP2 DUP5 ADD MSTORE PUSH1 0x20 DUP2 ADD SWAP1 POP PUSH2 0x68FD JUMP JUMPDEST DUP4 DUP2 GT ISZERO PUSH2 0x6927 JUMPI PUSH1 0x0 DUP5 DUP5 ADD MSTORE JUMPDEST POP POP POP POP JUMP JUMPDEST PUSH1 0x0 PUSH2 0x6938 DUP3 PUSH2 0x68E3 JUMP JUMPDEST SWAP2 POP PUSH32 0xFFFFFFFFFFFFFFFFFFFFFFFFFFFFFFFFFFFFFFFFFFFFFFFFFFFFFFFFFFFFFFFF DUP3 EQ ISZERO PUSH2 0x696B JUMPI PUSH2 0x696A PUSH2 0x6980 JUMP JUMPDEST JUMPDEST PUSH1 0x1 DUP3 ADD SWAP1 POP SWAP2 SWAP1 POP JUMP JUMPDEST PUSH1 0x0 DUP2 SWAP1 POP SWAP2 SWAP1 POP JUMP JUMPDEST PUSH32 0x4E487B7100000000000000000000000000000000000000000000000000000000 PUSH1 0x0 MSTORE PUSH1 0x11 PUSH1 0x4 MSTORE PUSH1 0x24 PUSH1 0x0 REVERT JUMPDEST PUSH32 0x4E487B7100000000000000000000000000000000000000000000000000000000 PUSH1 0x0 MSTORE PUSH1 0x12 PUSH1 0x4 MSTORE PUSH1 0x24 PUSH1 0x0 REVERT JUMPDEST PUSH32 0x4E487B7100000000000000000000000000000000000000000000000000000000 PUSH1 0x0 MSTORE PUSH1 0x32 PUSH1 0x4 MSTORE PUSH1 0x24 PUSH1 0x0 REVERT JUMPDEST PUSH1 0x0 DUP1 REVERT JUMPDEST PUSH1 0x0 PUSH1 0x1F NOT PUSH1 0x1F DUP4 ADD AND SWAP1 POP SWAP2 SWAP1 POP JUMP JUMPDEST PUSH1 0x0 DUP2 PUSH1 0x1 SHR SWAP1 POP SWAP2 SWAP1 POP JUMP JUMPDEST PUSH32 0x64732D6D6174682D7375622D756E646572666C6F770000000000000000000000 PUSH1 0x0 DUP3 ADD MSTORE POP JUMP JUMPDEST PUSH32 0x51696C696E3A20494E53554646494349454E545F494E5055545F414D4F554E54 PUSH1 0x0 DUP3 ADD MSTORE POP JUMP JUMPDEST PUSH32 0x51496C696E3A20494E56414C49445F4F55540000000000000000000000000000 PUSH1 0x0 DUP3 ADD MSTORE POP JUMP JUMPDEST PUSH32 0x51696C696E3A20464F5242494444454E00000000000000000000000000000000 PUSH1 0x0 DUP3 ADD MSTORE POP JUMP JUMPDEST PUSH32 0x556E697377617056323A20494E56414C49445F5349474E415455524500000000 PUSH1 0x0 DUP3 ADD MSTORE POP JUMP JUMPDEST PUSH32 0x1901000000000000000000000000000000000000000000000000000000000000 PUSH1 0x0 DUP3 ADD MSTORE POP JUMP JUMPDEST PUSH32 0x64732D6D6174682D6164642D6F766572666C6F77000000000000000000000000 PUSH1 0x0 DUP3 ADD MSTORE POP JUMP JUMPDEST PUSH32 0x556E697377617056323A20455850495245440000000000000000000000000000 PUSH1 0x0 DUP3 ADD MSTORE POP JUMP JUMPDEST PUSH32 0x464F5242494444454E0000000000000000000000000000000000000000000000 PUSH1 0x0 DUP3 ADD MSTORE POP JUMP JUMPDEST PUSH32 0x5452414E534645525F4641494C45440000000000000000000000000000000000 PUSH1 0x0 DUP3 ADD MSTORE POP JUMP JUMPDEST PUSH32 0x51696C696E3A204E4F5420454E4F554748204D415247494E0000000000000000 PUSH1 0x0 DUP3 ADD MSTORE POP JUMP JUMPDEST PUSH32 0x4C4F434B45440000000000000000000000000000000000000000000000000000 PUSH1 0x0 DUP3 ADD MSTORE POP JUMP JUMPDEST PUSH2 0x6C25 DUP2 PUSH2 0x689B JUMP JUMPDEST DUP2 EQ PUSH2 0x6C30 JUMPI PUSH1 0x0 DUP1 REVERT JUMPDEST POP JUMP JUMPDEST PUSH2 0x6C3C DUP2 PUSH2 0x68AD JUMP JUMPDEST DUP2 EQ PUSH2 0x6C47 JUMPI PUSH1 0x0 DUP1 REVERT JUMPDEST POP JUMP JUMPDEST PUSH2 0x6C53 DUP2 PUSH2 0x68B9 JUMP JUMPDEST DUP2 EQ PUSH2 0x6C5E JUMPI PUSH1 0x0 DUP1 REVERT JUMPDEST POP JUMP JUMPDEST PUSH2 0x6C6A DUP2 PUSH2 0x68E3 JUMP JUMPDEST DUP2 EQ PUSH2 0x6C75 JUMPI PUSH1 0x0 DUP1 REVERT JUMPDEST POP JUMP JUMPDEST PUSH2 0x6C81 DUP2 PUSH2 0x68ED JUMP JUMPDEST DUP2 EQ PUSH2 0x6C8C JUMPI PUSH1 0x0 DUP1 REVERT JUMPDEST POP JUMP INVALID LOG2 PUSH5 0x6970667358 0x22 SLT KECCAK256 SWAP16 CODECOPY PUSH32 0xFBC29E70B8602398DF953CA44BD8EE20B89007F175F2D1D7984E3641A264736F PUSH13 0x63430008070033000000000000 "
		},
		"gasEstimates": {
			"creation": {
				"codeDepositCost": "5569000",
				"executionCost": "infinite",
				"totalCost": "infinite"
			},
			"external": {
				"Add_Liquidity(uint256,uint256,address)": "infinite",
				"Add_Margin(address,address)": "infinite",
				"B()": "2520",
				"Base_rate()": "2542",
				"Burn_Liquidity(uint256,address)": "infinite",
				"C()": "2497",
				"D()": "2520",
				"D0()": "2517",
				"DOMAIN_SEPARATOR()": "2564",
				"Leverage_Margin()": "2563",
				"Leverage_Max()": "2520",
				"Liquidate(address,address)": "infinite",
				"Liquidation_bonus()": "2495",
				"Liquidation_rate()": "2541",
				"Margin_reserve(uint256)": "infinite",
				"N()": "2496",
				"N_Last()": "2562",
				"PERMIT_TYPEHASH()": "491",
				"Peqx()": "2499",
				"Peqy()": "2561",
				"Perp_close(uint256,uint256,address)": "infinite",
				"Perp_open(uint256,uint256,bool,address)": "infinite",
				"Price_local()": "2541",
				"Set_LeverageMargin(uint256)": "24779",
				"Set_LeverageMax(uint256)": "24803",
				"Set_Liquidation_rate(uint256)": "24844",
				"Set_fundingrate_upper(uint256)": "24759",
				"Tick_range()": "2540",
				"Total_Liquidity()": "2563",
				"Total_debt_X()": "2564",
				"Total_debt_Y()": "2497",
				"Total_debttoken_X()": "2518",
				"Total_debttoken_Y()": "2542",
				"True_Liquid_X()": "2497",
				"True_Liquid_X0()": "2562",
				"True_Liquid_Y()": "2519",
				"True_Liquid_Y0()": "2562",
				"X_Coord()": "2519",
				"X_Coord_Last()": "2565",
				"Xeq()": "2497",
				"Xgetp()": "2518",
				"Y_Coord()": "2497",
				"Y_Coord_Last()": "2563",
				"Yeq()": "2564",
				"Ygetp()": "2518",
				"allowance(address,address)": "infinite",
				"approve(address,uint256)": "infinite",
				"balanceOf(address)": "2925",
				"const18()": "2584",
				"debt_index(address,bool)": "infinite",
				"decimals()": "404",
				"factory()": "2626",
				"fee()": "2496",
				"funding_Last()": "2541",
				"funding_x_8h_upper()": "2540",
				"fundingtime_Last()": "2519",
				"initialize(address,address)": "infinite",
				"margin_index(address,uint256)": "infinite",
				"name()": "infinite",
				"nonces(address)": "2905",
				"paying_side_Last()": "2605",
				"permit(address,address,uint256,uint256,uint8,bytes32,bytes32)": "infinite",
				"skim(address)": "infinite",
				"swap(address,uint256,uint256)": "infinite",
				"symbol()": "infinite",
				"tokenX()": "2649",
				"tokenY()": "2669",
				"totalSupply()": "2498",
				"transfer(address,uint256)": "infinite",
				"transferFrom(address,address,uint256)": "infinite"
			},
			"internal": {
				"Getfundingrate()": "infinite",
				"Net_Margin(address)": "infinite",
				"Net_Position(address)": "infinite",
				"Net_debt(address)": "infinite",
				"TradeXToExactY(uint256,uint256,bool)": "infinite",
				"TradeYToExactX(uint256,uint256,bool)": "infinite",
				"Trade_XtoY(uint256,bool)": "infinite",
				"Trade_YtoX(uint256,bool)": "infinite",
				"Virtual_Liquidity_Update()": "infinite",
				"WithdrawMargin(address,address,address,uint256)": "infinite",
				"_safeTransfer(address,address,uint256)": "infinite",
				"refresh_totalbook()": "infinite"
			}
		},
		"methodIdentifiers": {
			"Add_Liquidity(uint256,uint256,address)": "6126deef",
			"Add_Margin(address,address)": "8cf825e7",
			"B()": "32e7c5bf",
			"Base_rate()": "7ed6281b",
			"Burn_Liquidity(uint256,address)": "6665ff11",
			"C()": "83dfe5fd",
			"D()": "0f529ba2",
			"D0()": "f738c74e",
			"DOMAIN_SEPARATOR()": "3644e515",
			"Leverage_Margin()": "9a36e122",
			"Leverage_Max()": "18db9681",
			"Liquidate(address,address)": "c3d81b21",
			"Liquidation_bonus()": "f70f4394",
			"Liquidation_rate()": "8bc1a32f",
			"Margin_reserve(uint256)": "1cbdffd1",
			"N()": "c9e525df",
			"N_Last()": "acd4a7c2",
			"PERMIT_TYPEHASH()": "30adf81f",
			"Peqx()": "00b52645",
			"Peqy()": "fe18f261",
			"Perp_close(uint256,uint256,address)": "4c324e6a",
			"Perp_open(uint256,uint256,bool,address)": "9076ae86",
			"Price_local()": "480c4f7e",
			"Set_LeverageMargin(uint256)": "cfe38a5e",
			"Set_LeverageMax(uint256)": "35714521",
			"Set_Liquidation_rate(uint256)": "ff2f169e",
			"Set_fundingrate_upper(uint256)": "0bfa68d8",
			"Tick_range()": "d44022db",
			"Total_Liquidity()": "2dd6c254",
			"Total_debt_X()": "2190219e",
			"Total_debt_Y()": "225c2c50",
			"Total_debttoken_X()": "6b3545aa",
			"Total_debttoken_Y()": "139860ee",
			"True_Liquid_X()": "5595d459",
			"True_Liquid_X0()": "79dbf8ea",
			"True_Liquid_Y()": "3c6fe2f4",
			"True_Liquid_Y0()": "ea1797b0",
			"X_Coord()": "84009686",
			"X_Coord_Last()": "0b197615",
			"Xeq()": "8e361389",
			"Xgetp()": "a5aa65b9",
			"Y_Coord()": "36af2f9b",
			"Y_Coord_Last()": "6607e7e8",
			"Yeq()": "80416c02",
			"Ygetp()": "df0ab2c2",
			"allowance(address,address)": "dd62ed3e",
			"approve(address,uint256)": "095ea7b3",
			"balanceOf(address)": "70a08231",
			"const18()": "7e11939a",
			"debt_index(address,bool)": "7e1431be",
			"decimals()": "313ce567",
			"factory()": "c45a0155",
			"fee()": "ddca3f43",
			"funding_Last()": "23ed16b6",
			"funding_x_8h_upper()": "e19a1474",
			"fundingtime_Last()": "5e287d86",
			"initialize(address,address)": "485cc955",
			"margin_index(address,uint256)": "fc69b80f",
			"name()": "06fdde03",
			"nonces(address)": "7ecebe00",
			"paying_side_Last()": "c7d44932",
			"permit(address,address,uint256,uint256,uint8,bytes32,bytes32)": "d505accf",
			"skim(address)": "bc25cf77",
			"swap(address,uint256,uint256)": "9f1d0f59",
			"symbol()": "95d89b41",
			"tokenX()": "16dc165b",
			"tokenY()": "b7d19fc4",
			"totalSupply()": "18160ddd",
			"transfer(address,uint256)": "a9059cbb",
			"transferFrom(address,address,uint256)": "23b872dd"
		}
	},
	"abi": [
		{
			"inputs": [],
			"stateMutability": "nonpayable",
			"type": "constructor"
		},
		{
			"anonymous": false,
			"inputs": [
				{
					"indexed": true,
					"internalType": "address",
					"name": "owner",
					"type": "address"
				},
				{
					"indexed": true,
					"internalType": "address",
					"name": "spender",
					"type": "address"
				},
				{
					"indexed": false,
					"internalType": "uint256",
					"name": "value",
					"type": "uint256"
				}
			],
			"name": "Approval",
			"type": "event"
		},
		{
			"anonymous": false,
			"inputs": [
				{
					"indexed": true,
					"internalType": "address",
					"name": "from",
					"type": "address"
				},
				{
					"indexed": true,
					"internalType": "address",
					"name": "to",
					"type": "address"
				},
				{
					"indexed": false,
					"internalType": "uint256",
					"name": "value",
					"type": "uint256"
				}
			],
			"name": "Transfer",
			"type": "event"
		},
		{
			"inputs": [
				{
					"internalType": "uint256",
					"name": "AddX",
					"type": "uint256"
				},
				{
					"internalType": "uint256",
					"name": "AddY",
					"type": "uint256"
				},
				{
					"internalType": "address",
					"name": "to",
					"type": "address"
				}
			],
			"name": "Add_Liquidity",
			"outputs": [
				{
					"internalType": "uint256",
					"name": "Liquidity",
					"type": "uint256"
				}
			],
			"stateMutability": "nonpayable",
			"type": "function"
		},
		{
			"inputs": [
				{
					"internalType": "address",
					"name": "tokenID",
					"type": "address"
				},
				{
					"internalType": "address",
					"name": "userID",
					"type": "address"
				}
			],
			"name": "Add_Margin",
			"outputs": [],
			"stateMutability": "nonpayable",
			"type": "function"
		},
		{
			"inputs": [],
			"name": "B",
			"outputs": [
				{
					"internalType": "uint256",
					"name": "",
					"type": "uint256"
				}
			],
			"stateMutability": "view",
			"type": "function"
		},
		{
			"inputs": [],
			"name": "Base_rate",
			"outputs": [
				{
					"internalType": "uint256",
					"name": "",
					"type": "uint256"
				}
			],
			"stateMutability": "view",
			"type": "function"
		},
		{
			"inputs": [
				{
					"internalType": "uint256",
					"name": "Liquidity",
					"type": "uint256"
				},
				{
					"internalType": "address",
					"name": "to",
					"type": "address"
				}
			],
			"name": "Burn_Liquidity",
			"outputs": [
				{
					"internalType": "uint256",
					"name": "BurX",
					"type": "uint256"
				},
				{
					"internalType": "uint256",
					"name": "BurY",
					"type": "uint256"
				}
			],
			"stateMutability": "nonpayable",
			"type": "function"
		},
		{
			"inputs": [],
			"name": "C",
			"outputs": [
				{
					"internalType": "uint256",
					"name": "",
					"type": "uint256"
				}
			],
			"stateMutability": "view",
			"type": "function"
		},
		{
			"inputs": [],
			"name": "D",
			"outputs": [
				{
					"internalType": "uint256",
					"name": "",
					"type": "uint256"
				}
			],
			"stateMutability": "view",
			"type": "function"
		},
		{
			"inputs": [],
			"name": "D0",
			"outputs": [
				{
					"internalType": "uint256",
					"name": "",
					"type": "uint256"
				}
			],
			"stateMutability": "view",
			"type": "function"
		},
		{
			"inputs": [],
			"name": "DOMAIN_SEPARATOR",
			"outputs": [
				{
					"internalType": "bytes32",
					"name": "",
					"type": "bytes32"
				}
			],
			"stateMutability": "view",
			"type": "function"
		},
		{
			"inputs": [],
			"name": "Leverage_Margin",
			"outputs": [
				{
					"internalType": "uint256",
					"name": "",
					"type": "uint256"
				}
			],
			"stateMutability": "view",
			"type": "function"
		},
		{
			"inputs": [],
			"name": "Leverage_Max",
			"outputs": [
				{
					"internalType": "uint256",
					"name": "",
					"type": "uint256"
				}
			],
			"stateMutability": "view",
			"type": "function"
		},
		{
			"inputs": [
				{
					"internalType": "address",
					"name": "userID",
					"type": "address"
				},
				{
					"internalType": "address",
					"name": "_to",
					"type": "address"
				}
			],
			"name": "Liquidate",
			"outputs": [],
			"stateMutability": "nonpayable",
			"type": "function"
		},
		{
			"inputs": [],
			"name": "Liquidation_bonus",
			"outputs": [
				{
					"internalType": "uint256",
					"name": "",
					"type": "uint256"
				}
			],
			"stateMutability": "view",
			"type": "function"
		},
		{
			"inputs": [],
			"name": "Liquidation_rate",
			"outputs": [
				{
					"internalType": "uint256",
					"name": "",
					"type": "uint256"
				}
			],
			"stateMutability": "view",
			"type": "function"
		},
		{
			"inputs": [
				{
					"internalType": "uint256",
					"name": "",
					"type": "uint256"
				}
			],
			"name": "Margin_reserve",
			"outputs": [
				{
					"internalType": "uint256",
					"name": "",
					"type": "uint256"
				}
			],
			"stateMutability": "view",
			"type": "function"
		},
		{
			"inputs": [],
			"name": "N",
			"outputs": [
				{
					"internalType": "uint256",
					"name": "",
					"type": "uint256"
				}
			],
			"stateMutability": "view",
			"type": "function"
		},
		{
			"inputs": [],
			"name": "N_Last",
			"outputs": [
				{
					"internalType": "uint256",
					"name": "",
					"type": "uint256"
				}
			],
			"stateMutability": "view",
			"type": "function"
		},
		{
			"inputs": [],
			"name": "PERMIT_TYPEHASH",
			"outputs": [
				{
					"internalType": "bytes32",
					"name": "",
					"type": "bytes32"
				}
			],
			"stateMutability": "view",
			"type": "function"
		},
		{
			"inputs": [],
			"name": "Peqx",
			"outputs": [
				{
					"internalType": "uint256",
					"name": "",
					"type": "uint256"
				}
			],
			"stateMutability": "view",
			"type": "function"
		},
		{
			"inputs": [],
			"name": "Peqy",
			"outputs": [
				{
					"internalType": "uint256",
					"name": "",
					"type": "uint256"
				}
			],
			"stateMutability": "view",
			"type": "function"
		},
		{
			"inputs": [
				{
					"internalType": "uint256",
					"name": "delta_X",
					"type": "uint256"
				},
				{
					"internalType": "uint256",
					"name": "delta_Y",
					"type": "uint256"
				},
				{
					"internalType": "address",
					"name": "userID",
					"type": "address"
				}
			],
			"name": "Perp_close",
			"outputs": [],
			"stateMutability": "nonpayable",
			"type": "function"
		},
		{
			"inputs": [
				{
					"internalType": "uint256",
					"name": "delta_X",
					"type": "uint256"
				},
				{
					"internalType": "uint256",
					"name": "delta_Y",
					"type": "uint256"
				},
				{
					"internalType": "bool",
					"name": "XtoY",
					"type": "bool"
				},
				{
					"internalType": "address",
					"name": "userID",
					"type": "address"
				}
			],
			"name": "Perp_open",
			"outputs": [],
			"stateMutability": "nonpayable",
			"type": "function"
		},
		{
			"inputs": [],
			"name": "Price_local",
			"outputs": [
				{
					"internalType": "uint256",
					"name": "",
					"type": "uint256"
				}
			],
			"stateMutability": "view",
			"type": "function"
		},
		{
			"inputs": [
				{
					"internalType": "uint256",
					"name": "L",
					"type": "uint256"
				}
			],
			"name": "Set_LeverageMargin",
			"outputs": [],
			"stateMutability": "nonpayable",
			"type": "function"
		},
		{
			"inputs": [
				{
					"internalType": "uint256",
					"name": "L",
					"type": "uint256"
				}
			],
			"name": "Set_LeverageMax",
			"outputs": [],
			"stateMutability": "nonpayable",
			"type": "function"
		},
		{
			"inputs": [
				{
					"internalType": "uint256",
					"name": "rate",
					"type": "uint256"
				}
			],
			"name": "Set_Liquidation_rate",
			"outputs": [],
			"stateMutability": "nonpayable",
			"type": "function"
		},
		{
			"inputs": [
				{
					"internalType": "uint256",
					"name": "f",
					"type": "uint256"
				}
			],
			"name": "Set_fundingrate_upper",
			"outputs": [],
			"stateMutability": "nonpayable",
			"type": "function"
		},
		{
			"inputs": [],
			"name": "Tick_range",
			"outputs": [
				{
					"internalType": "uint256",
					"name": "",
					"type": "uint256"
				}
			],
			"stateMutability": "view",
			"type": "function"
		},
		{
			"inputs": [],
			"name": "Total_Liquidity",
			"outputs": [
				{
					"internalType": "uint256",
					"name": "",
					"type": "uint256"
				}
			],
			"stateMutability": "view",
			"type": "function"
		},
		{
			"inputs": [],
			"name": "Total_debt_X",
			"outputs": [
				{
					"internalType": "uint256",
					"name": "",
					"type": "uint256"
				}
			],
			"stateMutability": "view",
			"type": "function"
		},
		{
			"inputs": [],
			"name": "Total_debt_Y",
			"outputs": [
				{
					"internalType": "uint256",
					"name": "",
					"type": "uint256"
				}
			],
			"stateMutability": "view",
			"type": "function"
		},
		{
			"inputs": [],
			"name": "Total_debttoken_X",
			"outputs": [
				{
					"internalType": "uint256",
					"name": "",
					"type": "uint256"
				}
			],
			"stateMutability": "view",
			"type": "function"
		},
		{
			"inputs": [],
			"name": "Total_debttoken_Y",
			"outputs": [
				{
					"internalType": "uint256",
					"name": "",
					"type": "uint256"
				}
			],
			"stateMutability": "view",
			"type": "function"
		},
		{
			"inputs": [],
			"name": "True_Liquid_X",
			"outputs": [
				{
					"internalType": "uint256",
					"name": "",
					"type": "uint256"
				}
			],
			"stateMutability": "view",
			"type": "function"
		},
		{
			"inputs": [],
			"name": "True_Liquid_X0",
			"outputs": [
				{
					"internalType": "uint256",
					"name": "",
					"type": "uint256"
				}
			],
			"stateMutability": "view",
			"type": "function"
		},
		{
			"inputs": [],
			"name": "True_Liquid_Y",
			"outputs": [
				{
					"internalType": "uint256",
					"name": "",
					"type": "uint256"
				}
			],
			"stateMutability": "view",
			"type": "function"
		},
		{
			"inputs": [],
			"name": "True_Liquid_Y0",
			"outputs": [
				{
					"internalType": "uint256",
					"name": "",
					"type": "uint256"
				}
			],
			"stateMutability": "view",
			"type": "function"
		},
		{
			"inputs": [],
			"name": "X_Coord",
			"outputs": [
				{
					"internalType": "uint256",
					"name": "",
					"type": "uint256"
				}
			],
			"stateMutability": "view",
			"type": "function"
		},
		{
			"inputs": [],
			"name": "X_Coord_Last",
			"outputs": [
				{
					"internalType": "uint256",
					"name": "",
					"type": "uint256"
				}
			],
			"stateMutability": "view",
			"type": "function"
		},
		{
			"inputs": [],
			"name": "Xeq",
			"outputs": [
				{
					"internalType": "uint256",
					"name": "",
					"type": "uint256"
				}
			],
			"stateMutability": "view",
			"type": "function"
		},
		{
			"inputs": [],
			"name": "Xgetp",
			"outputs": [
				{
					"internalType": "uint256",
					"name": "",
					"type": "uint256"
				}
			],
			"stateMutability": "view",
			"type": "function"
		},
		{
			"inputs": [],
			"name": "Y_Coord",
			"outputs": [
				{
					"internalType": "uint256",
					"name": "",
					"type": "uint256"
				}
			],
			"stateMutability": "view",
			"type": "function"
		},
		{
			"inputs": [],
			"name": "Y_Coord_Last",
			"outputs": [
				{
					"internalType": "uint256",
					"name": "",
					"type": "uint256"
				}
			],
			"stateMutability": "view",
			"type": "function"
		},
		{
			"inputs": [],
			"name": "Yeq",
			"outputs": [
				{
					"internalType": "uint256",
					"name": "",
					"type": "uint256"
				}
			],
			"stateMutability": "view",
			"type": "function"
		},
		{
			"inputs": [],
			"name": "Ygetp",
			"outputs": [
				{
					"internalType": "uint256",
					"name": "",
					"type": "uint256"
				}
			],
			"stateMutability": "view",
			"type": "function"
		},
		{
			"inputs": [
				{
					"internalType": "address",
					"name": "",
					"type": "address"
				},
				{
					"internalType": "address",
					"name": "",
					"type": "address"
				}
			],
			"name": "allowance",
			"outputs": [
				{
					"internalType": "uint256",
					"name": "",
					"type": "uint256"
				}
			],
			"stateMutability": "view",
			"type": "function"
		},
		{
			"inputs": [
				{
					"internalType": "address",
					"name": "spender",
					"type": "address"
				},
				{
					"internalType": "uint256",
					"name": "value",
					"type": "uint256"
				}
			],
			"name": "approve",
			"outputs": [
				{
					"internalType": "bool",
					"name": "",
					"type": "bool"
				}
			],
			"stateMutability": "nonpayable",
			"type": "function"
		},
		{
			"inputs": [
				{
					"internalType": "address",
					"name": "",
					"type": "address"
				}
			],
			"name": "balanceOf",
			"outputs": [
				{
					"internalType": "uint256",
					"name": "",
					"type": "uint256"
				}
			],
			"stateMutability": "view",
			"type": "function"
		},
		{
			"inputs": [],
			"name": "const18",
			"outputs": [
				{
					"internalType": "uint256",
					"name": "",
					"type": "uint256"
				}
			],
			"stateMutability": "view",
			"type": "function"
		},
		{
			"inputs": [
				{
					"internalType": "address",
					"name": "",
					"type": "address"
				},
				{
					"internalType": "bool",
					"name": "",
					"type": "bool"
				}
			],
			"name": "debt_index",
			"outputs": [
				{
					"internalType": "address",
					"name": "user_ID",
					"type": "address"
				},
				{
					"internalType": "bool",
					"name": "token_ID",
					"type": "bool"
				},
				{
					"internalType": "uint256",
					"name": "debttoken_amount",
					"type": "uint256"
				},
				{
					"internalType": "uint256",
					"name": "position_amount",
					"type": "uint256"
				}
			],
			"stateMutability": "view",
			"type": "function"
		},
		{
			"inputs": [],
			"name": "decimals",
			"outputs": [
				{
					"internalType": "uint8",
					"name": "",
					"type": "uint8"
				}
			],
			"stateMutability": "view",
			"type": "function"
		},
		{
			"inputs": [],
			"name": "factory",
			"outputs": [
				{
					"internalType": "address",
					"name": "",
					"type": "address"
				}
			],
			"stateMutability": "view",
			"type": "function"
		},
		{
			"inputs": [],
			"name": "fee",
			"outputs": [
				{
					"internalType": "uint256",
					"name": "",
					"type": "uint256"
				}
			],
			"stateMutability": "view",
			"type": "function"
		},
		{
			"inputs": [],
			"name": "funding_Last",
			"outputs": [
				{
					"internalType": "uint256",
					"name": "",
					"type": "uint256"
				}
			],
			"stateMutability": "view",
			"type": "function"
		},
		{
			"inputs": [],
			"name": "funding_x_8h_upper",
			"outputs": [
				{
					"internalType": "uint256",
					"name": "",
					"type": "uint256"
				}
			],
			"stateMutability": "view",
			"type": "function"
		},
		{
			"inputs": [],
			"name": "fundingtime_Last",
			"outputs": [
				{
					"internalType": "uint256",
					"name": "",
					"type": "uint256"
				}
			],
			"stateMutability": "view",
			"type": "function"
		},
		{
			"inputs": [
				{
					"internalType": "address",
					"name": "_tokenX",
					"type": "address"
				},
				{
					"internalType": "address",
					"name": "_tokenY",
					"type": "address"
				}
			],
			"name": "initialize",
			"outputs": [],
			"stateMutability": "nonpayable",
			"type": "function"
		},
		{
			"inputs": [
				{
					"internalType": "address",
					"name": "",
					"type": "address"
				},
				{
					"internalType": "uint256",
					"name": "",
					"type": "uint256"
				}
			],
			"name": "margin_index",
			"outputs": [
				{
					"internalType": "uint256",
					"name": "",
					"type": "uint256"
				}
			],
			"stateMutability": "view",
			"type": "function"
		},
		{
			"inputs": [],
			"name": "name",
			"outputs": [
				{
					"internalType": "string",
					"name": "",
					"type": "string"
				}
			],
			"stateMutability": "view",
			"type": "function"
		},
		{
			"inputs": [
				{
					"internalType": "address",
					"name": "",
					"type": "address"
				}
			],
			"name": "nonces",
			"outputs": [
				{
					"internalType": "uint256",
					"name": "",
					"type": "uint256"
				}
			],
			"stateMutability": "view",
			"type": "function"
		},
		{
			"inputs": [],
			"name": "paying_side_Last",
			"outputs": [
				{
					"internalType": "bool",
					"name": "",
					"type": "bool"
				}
			],
			"stateMutability": "view",
			"type": "function"
		},
		{
			"inputs": [
				{
					"internalType": "address",
					"name": "owner",
					"type": "address"
				},
				{
					"internalType": "address",
					"name": "spender",
					"type": "address"
				},
				{
					"internalType": "uint256",
					"name": "value",
					"type": "uint256"
				},
				{
					"internalType": "uint256",
					"name": "deadline",
					"type": "uint256"
				},
				{
					"internalType": "uint8",
					"name": "v",
					"type": "uint8"
				},
				{
					"internalType": "bytes32",
					"name": "r",
					"type": "bytes32"
				},
				{
					"internalType": "bytes32",
					"name": "s",
					"type": "bytes32"
				}
			],
			"name": "permit",
			"outputs": [],
			"stateMutability": "nonpayable",
			"type": "function"
		},
		{
			"inputs": [
				{
					"internalType": "address",
					"name": "to",
					"type": "address"
				}
			],
			"name": "skim",
			"outputs": [],
			"stateMutability": "nonpayable",
			"type": "function"
		},
		{
			"inputs": [
				{
					"internalType": "address",
					"name": "to",
					"type": "address"
				},
				{
					"internalType": "uint256",
					"name": "Xout",
					"type": "uint256"
				},
				{
					"internalType": "uint256",
					"name": "Yout",
					"type": "uint256"
				}
			],
			"name": "swap",
			"outputs": [],
			"stateMutability": "nonpayable",
			"type": "function"
		},
		{
			"inputs": [],
			"name": "symbol",
			"outputs": [
				{
					"internalType": "string",
					"name": "",
					"type": "string"
				}
			],
			"stateMutability": "view",
			"type": "function"
		},
		{
			"inputs": [],
			"name": "tokenX",
			"outputs": [
				{
					"internalType": "address",
					"name": "",
					"type": "address"
				}
			],
			"stateMutability": "view",
			"type": "function"
		},
		{
			"inputs": [],
			"name": "tokenY",
			"outputs": [
				{
					"internalType": "address",
					"name": "",
					"type": "address"
				}
			],
			"stateMutability": "view",
			"type": "function"
		},
		{
			"inputs": [],
			"name": "totalSupply",
			"outputs": [
				{
					"internalType": "uint256",
					"name": "",
					"type": "uint256"
				}
			],
			"stateMutability": "view",
			"type": "function"
		},
		{
			"inputs": [
				{
					"internalType": "address",
					"name": "to",
					"type": "address"
				},
				{
					"internalType": "uint256",
					"name": "value",
					"type": "uint256"
				}
			],
			"name": "transfer",
			"outputs": [
				{
					"internalType": "bool",
					"name": "",
					"type": "bool"
				}
			],
			"stateMutability": "nonpayable",
			"type": "function"
		},
		{
			"inputs": [
				{
					"internalType": "address",
					"name": "from",
					"type": "address"
				},
				{
					"internalType": "address",
					"name": "to",
					"type": "address"
				},
				{
					"internalType": "uint256",
					"name": "value",
					"type": "uint256"
				}
			],
			"name": "transferFrom",
			"outputs": [
				{
					"internalType": "bool",
					"name": "",
					"type": "bool"
				}
			],
			"stateMutability": "nonpayable",
			"type": "function"
		}
	]
}