{
	"data": {
		"bytecode": {
			"linkReferences": {},
			"object": "6080604052670de0b6b3a76400006028556001602b553480156200002257600080fd5b5060004690507f8b73c3c69bb8fe3d512ecc4cf759cc79239f7b179b0ffacaa9a75d522b39400f6040518060400160405280600a81526020017f556e697377617020563200000000000000000000000000000000000000000000815250805190602001206040518060400160405280600181526020017f3100000000000000000000000000000000000000000000000000000000000000815250805190602001208330604051602001620000db95949392919062000172565b604051602081830303815290604052805190602001206003819055505033602160006101000a81548173ffffffffffffffffffffffffffffffffffffffff021916908373ffffffffffffffffffffffffffffffffffffffff16021790555062000217565b6200014a81620001cf565b82525050565b6200015b81620001e3565b82525050565b6200016c816200020d565b82525050565b600060a08201905062000189600083018862000150565b62000198602083018762000150565b620001a7604083018662000150565b620001b6606083018562000161565b620001c560808301846200013f565b9695505050505050565b6000620001dc82620001ed565b9050919050565b6000819050919050565b600073ffffffffffffffffffffffffffffffffffffffff82169050919050565b6000819050919050565b61617780620002276000396000f3fe608060405234801561001057600080fd5b50600436106103da5760003560e01c80637e11939a1161020a578063bc25cf7711610125578063ddca3f43116100b8578063f70f439411610087578063f70f439414610b8e578063f738c74e14610bac578063fc69b80f14610bca578063fe18f26114610bfa578063ff2f169e14610c18576103da565b8063ddca3f4314610b16578063df0ab2c214610b34578063e19a147414610b52578063ea1797b014610b70576103da565b8063cfe38a5e116100f4578063cfe38a5e14610a90578063d44022db14610aac578063d505accf14610aca578063dd62ed3e14610ae6576103da565b8063bc25cf7714610a1c578063c3d81b2114610a38578063c45a015514610a54578063c7d4493214610a72576103da565b80638cf825e71161019d5780639a36e1221161016c5780639a36e12214610992578063a5aa65b9146109b0578063a9059cbb146109ce578063b7d19fc4146109fe576103da565b80638cf825e71461091e5780638e3613891461093a5780639076ae861461095857806395d89b4114610974576103da565b806380416c02116101d957806380416c02146108a657806383dfe5fd146108c457806384009686146108e25780638bc1a32f14610900576103da565b80637e11939a146108075780637e1431be146108255780637ecebe00146108585780637ed6281b14610888576103da565b806330adf81f116102fa5780634c324e6a1161028d5780636665ff111161025c5780636665ff111461076a5780636b3545aa1461079b57806370a08231146107b957806379dbf8ea146107e9576103da565b80634c324e6a146106e25780635595d459146106fe5780635e287d861461071c5780636126deef1461073a576103da565b806336af2f9b116102c957806336af2f9b1461066c5780633c6fe2f41461068a578063480c4f7e146106a8578063485cc955146106c6576103da565b806330adf81f146105f4578063313ce5671461061257806332e7c5bf146106305780633644e5151461064e576103da565b806318db96811161037257806323b872dd1161034157806323b872dd1461056957806323ed16b6146105995780632dd6c254146105b757806330688ab8146105d5576103da565b806318db9681146104df5780631cbdffd1146104fd5780632190219e1461052d578063225c2c501461054b576103da565b80630f529ba2116103ae5780630f529ba214610467578063139860ee1461048557806316dc165b146104a357806318160ddd146104c1576103da565b8062b52645146103df57806306fdde03146103fd578063095ea7b31461041b5780630bfa68d81461044b575b600080fd5b6103e7610c34565b6040516103f49190615af8565b60405180910390f35b610405610c3a565b6040516104129190615a16565b60405180910390f35b610435600480360381019061043091906154e1565b610c73565b604051610442919061593a565b60405180910390f35b6104656004803603810190610460919061554e565b610c8a565b005b61046f610cee565b60405161047c9190615af8565b60405180910390f35b61048d610cf4565b60405161049a9190615af8565b60405180910390f35b6104ab610cfa565b6040516104b891906158b1565b60405180910390f35b6104c9610d20565b6040516104d69190615af8565b60405180910390f35b6104e7610d26565b6040516104f49190615af8565b60405180910390f35b6105176004803603810190610512919061554e565b610d2c565b6040516105249190615af8565b60405180910390f35b610535610d47565b6040516105429190615af8565b60405180910390f35b610553610d4d565b6040516105609190615af8565b60405180910390f35b610583600480360381019061057e91906153ac565b610d53565b604051610590919061593a565b60405180910390f35b6105a1610f00565b6040516105ae9190615af8565b60405180910390f35b6105bf610f06565b6040516105cc9190615af8565b60405180910390f35b6105dd610f0c565b6040516105eb929190615b13565b60405180910390f35b6105fc61109f565b6040516106099190615955565b60405180910390f35b61061a6110c6565b6040516106279190615b3c565b60405180910390f35b6106386110cb565b6040516106459190615af8565b60405180910390f35b6106566110d1565b6040516106639190615955565b60405180910390f35b6106746110d7565b6040516106819190615af8565b60405180910390f35b6106926110dd565b60405161069f9190615af8565b60405180910390f35b6106b06110e3565b6040516106bd9190615af8565b60405180910390f35b6106e060048036038101906106db919061536c565b6110e9565b005b6106fc60048036038101906106f791906155e8565b61120b565b005b610706612122565b6040516107139190615af8565b60405180910390f35b610724612128565b6040516107319190615af8565b60405180910390f35b610754600480360381019061074f91906155e8565b61212e565b6040516107619190615af8565b60405180910390f35b610784600480360381019061077f91906155a8565b61222f565b604051610792929190615b13565b60405180910390f35b6107a361239c565b6040516107b09190615af8565b60405180910390f35b6107d360048036038101906107ce919061533f565b6123a2565b6040516107e09190615af8565b60405180910390f35b6107f16123ba565b6040516107fe9190615af8565b60405180910390f35b61080f6123c0565b60405161081c9190615af8565b60405180910390f35b61083f600480360381019061083a91906154a1565b6123c6565b60405161084f94939291906158cc565b60405180910390f35b610872600480360381019061086d919061533f565b612430565b60405161087f9190615af8565b60405180910390f35b610890612448565b60405161089d9190615af8565b60405180910390f35b6108ae61244e565b6040516108bb9190615af8565b60405180910390f35b6108cc612454565b6040516108d99190615af8565b60405180910390f35b6108ea61245a565b6040516108f79190615af8565b60405180910390f35b610908612460565b6040516109159190615af8565b60405180910390f35b6109386004803603810190610933919061536c565b612466565b005b610942612788565b60405161094f9190615af8565b60405180910390f35b610972600480360381019061096d919061563b565b61278e565b005b61097c612b80565b6040516109899190615a16565b60405180910390f35b61099a612bb9565b6040516109a79190615af8565b60405180910390f35b6109b8612bbf565b6040516109c59190615af8565b60405180910390f35b6109e860048036038101906109e391906154e1565b612bc5565b6040516109f5919061593a565b60405180910390f35b610a06612bdc565b604051610a1391906158b1565b60405180910390f35b610a366004803603810190610a31919061533f565b612c02565b005b610a526004803603810190610a4d919061536c565b612e72565b005b610a5c613223565b604051610a6991906158b1565b60405180910390f35b610a7a613249565b604051610a87919061593a565b60405180910390f35b610aaa6004803603810190610aa5919061554e565b61325c565b005b610ab46132c0565b604051610ac19190615af8565b60405180910390f35b610ae46004803603810190610adf91906153ff565b6132c6565b005b610b006004803603810190610afb919061536c565b6134ee565b604051610b0d9190615af8565b60405180910390f35b610b1e613513565b604051610b2b9190615af8565b60405180910390f35b610b3c613519565b604051610b499190615af8565b60405180910390f35b610b5a61351f565b604051610b679190615af8565b60405180910390f35b610b78613525565b604051610b859190615af8565b60405180910390f35b610b9661352b565b604051610ba39190615af8565b60405180910390f35b610bb4613531565b604051610bc19190615af8565b60405180910390f35b610be46004803603810190610bdf91906154e1565b613537565b604051610bf19190615af8565b60405180910390f35b610c0261355f565b604051610c0f9190615af8565b60405180910390f35b610c326004803603810190610c2d919061554e565b613565565b005b600e5481565b6040518060400160405280600a81526020017f556e69737761702056320000000000000000000000000000000000000000000081525081565b6000610c803384846135c9565b6001905092915050565b602160009054906101000a900473ffffffffffffffffffffffffffffffffffffffff1673ffffffffffffffffffffffffffffffffffffffff163373ffffffffffffffffffffffffffffffffffffffff1614610ce457600080fd5b80601f8190555050565b60075481565b601a5481565b602260009054906101000a900473ffffffffffffffffffffffffffffffffffffffff1681565b60005481565b601b5481565b602c8160028110610d3c57600080fd5b016000915090505481565b60175481565b60185481565b6000610101600260008673ffffffffffffffffffffffffffffffffffffffff1673ffffffffffffffffffffffffffffffffffffffff16815260200190815260200160002060003373ffffffffffffffffffffffffffffffffffffffff1673ffffffffffffffffffffffffffffffffffffffff1681526020019081526020016000205414610eea57610e6982600260008773ffffffffffffffffffffffffffffffffffffffff1673ffffffffffffffffffffffffffffffffffffffff16815260200190815260200160002060003373ffffffffffffffffffffffffffffffffffffffff1673ffffffffffffffffffffffffffffffffffffffff168152602001908152602001600020546136b490919063ffffffff16565b600260008673ffffffffffffffffffffffffffffffffffffffff1673ffffffffffffffffffffffffffffffffffffffff16815260200190815260200160002060003373ffffffffffffffffffffffffffffffffffffffff1673ffffffffffffffffffffffffffffffffffffffff168152602001908152602001600020819055505b610ef584848461370d565b600190509392505050565b601c5481565b60255481565b600080601454602260009054906101000a900473ffffffffffffffffffffffffffffffffffffffff1673ffffffffffffffffffffffffffffffffffffffff166370a08231306040518263ffffffff1660e01b8152600401610f6d91906158b1565b60206040518083038186803b158015610f8557600080fd5b505afa158015610f99573d6000803e3d6000fd5b505050506040513d601f19601f82011682018060405250810190610fbd919061557b565b610fc79190615de6565b9150601354602360009054906101000a900473ffffffffffffffffffffffffffffffffffffffff1673ffffffffffffffffffffffffffffffffffffffff166370a08231306040518263ffffffff1660e01b815260040161102791906158b1565b60206040518083038186803b15801561103f57600080fd5b505afa158015611053573d6000803e3d6000fd5b505050506040513d601f19601f82011682018060405250810190611077919061557b565b6110819190615de6565b905060008211806110925750600081115b61109b57600080fd5b9091565b7f6e71edae12b1b97f4d1f60370fef10105fa2faae0126114a169c64845d6126c960001b81565b601281565b60055481565b60035481565b600c5481565b60135481565b60155481565b602160009054906101000a900473ffffffffffffffffffffffffffffffffffffffff1673ffffffffffffffffffffffffffffffffffffffff163373ffffffffffffffffffffffffffffffffffffffff161461114357600080fd5b81602260006101000a81548173ffffffffffffffffffffffffffffffffffffffff021916908373ffffffffffffffffffffffffffffffffffffffff16021790555080602360006101000a81548173ffffffffffffffffffffffffffffffffffffffff021916908373ffffffffffffffffffffffffffffffffffffffff16021790555060285460058190555060285460068190555060285460078190555060075460088190555060026007546111f89190615bea565b600981905550600954600a819055505050565b6001602b5414611250576040517f08c379a000000000000000000000000000000000000000000000000000000000815260040161124790615ad8565b60405180910390fd5b6000602b81905550600082846112669190615d8c565b14801561127e57506000828461127c9190615b94565b115b80156112ac575061128e816138a1565b61129782613995565b6112a083613a7a565b6112aa9190615b94565b115b801561130f5750602e60008273ffffffffffffffffffffffffffffffffffffffff1673ffffffffffffffffffffffffffffffffffffffff168152602001908152602001600020600080151515158152602001908152602001600020600201548311155b80156113735750602e60008273ffffffffffffffffffffffffffffffffffffffff1673ffffffffffffffffffffffffffffffffffffffff16815260200190815260200160002060006001151515158152602001908152602001600020600201548211155b61137c57600080fd5b611384613b49565b6000831115611ab957600061139c8460016000613cb5565b9050600061146085602e60008673ffffffffffffffffffffffffffffffffffffffff1673ffffffffffffffffffffffffffffffffffffffff1681526020019081526020016000206000600115151515815260200190815260200160002060010154601854601a54602e60008973ffffffffffffffffffffffffffffffffffffffff1673ffffffffffffffffffffffffffffffffffffffff16815260200190815260200160002060008015151515815260200190815260200160002060020154614110565b905084602e60008573ffffffffffffffffffffffffffffffffffffffff1673ffffffffffffffffffffffffffffffffffffffff16815260200190815260200160002060008015151515815260200190815260200160002060020160008282546114c99190615de6565b9250508190555080601860008282546114e29190615de6565b925050819055506115a3602e60008573ffffffffffffffffffffffffffffffffffffffff1673ffffffffffffffffffffffffffffffffffffffff168152602001908152602001600020600060011515151581526020019081526020016000206001015486602e60008773ffffffffffffffffffffffffffffffffffffffff1673ffffffffffffffffffffffffffffffffffffffff1681526020019081526020016000206000801515151581526020019081526020016000206002015461414a565b601a60008282546115b49190615de6565b92505081905550611675602e60008573ffffffffffffffffffffffffffffffffffffffff1673ffffffffffffffffffffffffffffffffffffffff168152602001908152602001600020600060011515151581526020019081526020016000206001015486602e60008773ffffffffffffffffffffffffffffffffffffffff1673ffffffffffffffffffffffffffffffffffffffff1681526020019081526020016000206000801515151581526020019081526020016000206002015461414a565b602e60008573ffffffffffffffffffffffffffffffffffffffff1673ffffffffffffffffffffffffffffffffffffffff1681526020019081526020016000206000600115151515815260200190815260200160002060010160008282546116dc9190615de6565b925050819055508082118015611705575060001515602960009054906101000a900460ff161515145b1561178f5761172181836117199190615de6565b60008061416c565b602f60008573ffffffffffffffffffffffffffffffffffffffff1673ffffffffffffffffffffffffffffffffffffffff16815260200190815260200160002060006002811061177357611772615f5d565b5b0160008282546117839190615b94565b92505081905550611ab2565b8082602f60008673ffffffffffffffffffffffffffffffffffffffff1673ffffffffffffffffffffffffffffffffffffffff1681526020019081526020016000206001600281106117e3576117e2615f5d565b5b01546117ef9190615b94565b11801561180f575060011515602960009054906101000a900460ff161515145b156118da578082602f60008673ffffffffffffffffffffffffffffffffffffffff1673ffffffffffffffffffffffffffffffffffffffff16815260200190815260200160002060016002811061186857611867615f5d565b5b01546118749190615b94565b61187e9190615de6565b602f60008573ffffffffffffffffffffffffffffffffffffffff1673ffffffffffffffffffffffffffffffffffffffff1681526020019081526020016000206001600281106118d0576118cf615f5d565b5b0181905550611ab1565b6119a2602f60008573ffffffffffffffffffffffffffffffffffffffff1673ffffffffffffffffffffffffffffffffffffffff16815260200190815260200160002060006002811061192f5761192e615f5d565b5b01546000602f60008773ffffffffffffffffffffffffffffffffffffffff1673ffffffffffffffffffffffffffffffffffffffff16815260200190815260200160002060016002811061198557611984615f5d565b5b015485856119939190615de6565b61199d9190615de6565b613cb5565b602f60008573ffffffffffffffffffffffffffffffffffffffff1673ffffffffffffffffffffffffffffffffffffffff1681526020019081526020016000206000600281106119f4576119f3615f5d565b5b0154611a009190615de6565b602f60008573ffffffffffffffffffffffffffffffffffffffff1673ffffffffffffffffffffffffffffffffffffffff168152602001908152602001600020600060028110611a5257611a51615f5d565b5b01819055506000602f60008573ffffffffffffffffffffffffffffffffffffffff1673ffffffffffffffffffffffffffffffffffffffff168152602001908152602001600020600160028110611aab57611aaa615f5d565b5b01819055505b5b5050612115565b6000611ac8836001600061416c565b90506000611b8c84602e60008673ffffffffffffffffffffffffffffffffffffffff1673ffffffffffffffffffffffffffffffffffffffff16815260200190815260200160002060008015151515815260200190815260200160002060010154601754601954602e60008973ffffffffffffffffffffffffffffffffffffffff1673ffffffffffffffffffffffffffffffffffffffff1681526020019081526020016000206000600115151515815260200190815260200160002060020154614110565b905083602e60008573ffffffffffffffffffffffffffffffffffffffff1673ffffffffffffffffffffffffffffffffffffffff168152602001908152602001600020600060011515151581526020019081526020016000206002016000828254611bf69190615de6565b925050819055508060176000828254611c0f9190615de6565b92505081905550611cd0602e60008573ffffffffffffffffffffffffffffffffffffffff1673ffffffffffffffffffffffffffffffffffffffff1681526020019081526020016000206000801515151581526020019081526020016000206001015485602e60008773ffffffffffffffffffffffffffffffffffffffff1673ffffffffffffffffffffffffffffffffffffffff168152602001908152602001600020600060011515151581526020019081526020016000206002015461414a565b60196000828254611ce19190615de6565b92505081905550611da2602e60008573ffffffffffffffffffffffffffffffffffffffff1673ffffffffffffffffffffffffffffffffffffffff1681526020019081526020016000206000801515151581526020019081526020016000206001015485602e60008773ffffffffffffffffffffffffffffffffffffffff1673ffffffffffffffffffffffffffffffffffffffff168152602001908152602001600020600060011515151581526020019081526020016000206002015461414a565b602e60008573ffffffffffffffffffffffffffffffffffffffff1673ffffffffffffffffffffffffffffffffffffffff1681526020019081526020016000206000801515151581526020019081526020016000206001016000828254611e089190615de6565b925050819055508082602f60008673ffffffffffffffffffffffffffffffffffffffff1673ffffffffffffffffffffffffffffffffffffffff168152602001908152602001600020600060028110611e6357611e62615f5d565b5b0154611e6f9190615b94565b1115611f3b578082602f60008673ffffffffffffffffffffffffffffffffffffffff1673ffffffffffffffffffffffffffffffffffffffff168152602001908152602001600020600060028110611ec957611ec8615f5d565b5b0154611ed59190615b94565b611edf9190615de6565b602f60008573ffffffffffffffffffffffffffffffffffffffff1673ffffffffffffffffffffffffffffffffffffffff168152602001908152602001600020600060028110611f3157611f30615f5d565b5b0181905550612112565b612003602f60008573ffffffffffffffffffffffffffffffffffffffff1673ffffffffffffffffffffffffffffffffffffffff168152602001908152602001600020600160028110611f9057611f8f615f5d565b5b01546000602f60008773ffffffffffffffffffffffffffffffffffffffff1673ffffffffffffffffffffffffffffffffffffffff168152602001908152602001600020600060028110611fe657611fe5615f5d565b5b01548585611ff49190615de6565b611ffe9190615de6565b61416c565b602f60008573ffffffffffffffffffffffffffffffffffffffff1673ffffffffffffffffffffffffffffffffffffffff16815260200190815260200160002060016002811061205557612054615f5d565b5b01546120619190615de6565b602f60008573ffffffffffffffffffffffffffffffffffffffff1673ffffffffffffffffffffffffffffffffffffffff1681526020019081526020016000206001600281106120b3576120b2615f5d565b5b01819055506000602f60008573ffffffffffffffffffffffffffffffffffffffff1673ffffffffffffffffffffffffffffffffffffffff16815260200190815260200160002060006002811061210c5761210b615f5d565b5b01819055505b50505b6001602b81905550505050565b60145481565b601d5481565b60006001602b5414612175576040517f08c379a000000000000000000000000000000000000000000000000000000000815260040161216c90615ad8565b60405180910390fd5b6000602b81905550612199600b54856014546121919190615b94565b60145461414a565b600b819055506121bb600c54846013546121b39190615b94565b60135461414a565b600c819055506121d06025548560145461414a565b9050806025546121e09190615b94565b602581905550836014546121f49190615b94565b601481905550826013546122089190615b94565b60138190555061221882826145c7565b6122206146e1565b6001602b819055509392505050565b6000806001602b5414612277576040517f08c379a000000000000000000000000000000000000000000000000000000000815260040161226e90615ad8565b60405180910390fd5b6000602b8190555061228e8460145460255461414a565b915061229f8460135460255461414a565b90506122bd600b54836014546122b59190615de6565b60145461414a565b600b819055506122df600c54826013546122d79190615de6565b60135461414a565b600c81905550816014546122f39190615de6565b601481905550806013546123079190615de6565b6013819055508360255461231b9190615de6565b60258190555061232b3085614747565b612358602260009054906101000a900473ffffffffffffffffffffffffffffffffffffffff168484614861565b612385602360009054906101000a900473ffffffffffffffffffffffffffffffffffffffff168483614861565b61238d6146e1565b6001602b819055509250929050565b60195481565b60016020528060005260406000206000915090505481565b60125481565b60285481565b602e602052816000526040600020602052806000526040600020600091509150508060000160009054906101000a900473ffffffffffffffffffffffffffffffffffffffff16908060000160149054906101000a900460ff16908060010154908060020154905084565b60046020528060005260406000206000915090505481565b60205481565b600a5481565b60065481565b600b5481565b60265481565b6000602360009054906101000a900473ffffffffffffffffffffffffffffffffffffffff1673ffffffffffffffffffffffffffffffffffffffff168373ffffffffffffffffffffffffffffffffffffffff161480156124d8575060011515602960009054906101000a900460ff161515145b1561263257602c6001600281106124f2576124f1615f5d565b5b01546013548473ffffffffffffffffffffffffffffffffffffffff166370a08231306040518263ffffffff1660e01b815260040161253091906158b1565b60206040518083038186803b15801561254857600080fd5b505afa15801561255c573d6000803e3d6000fd5b505050506040513d601f19601f82011682018060405250810190612580919061557b565b61258a9190615de6565b6125949190615de6565b905080602f60008473ffffffffffffffffffffffffffffffffffffffff1673ffffffffffffffffffffffffffffffffffffffff1681526020019081526020016000206001600281106125e9576125e8615f5d565b5b0160008282546125f99190615b94565b9250508190555080602c60016002811061261657612615615f5d565b5b0160008282546126269190615b94565b92505081905550612783565b602c60006002811061264757612646615f5d565b5b01546014548473ffffffffffffffffffffffffffffffffffffffff166370a08231306040518263ffffffff1660e01b815260040161268591906158b1565b60206040518083038186803b15801561269d57600080fd5b505afa1580156126b1573d6000803e3d6000fd5b505050506040513d601f19601f820116820180604052508101906126d5919061557b565b6126df9190615de6565b6126e99190615de6565b905080602f60008473ffffffffffffffffffffffffffffffffffffffff1673ffffffffffffffffffffffffffffffffffffffff16815260200190815260200160002060006002811061273e5761273d615f5d565b5b01600082825461274e9190615b94565b9250508190555080602c60006002811061276b5761276a615f5d565b5b01600082825461277b9190615b94565b925050819055505b505050565b60095481565b6001602b54146127d3576040517f08c379a00000000000000000000000000000000000000000000000000000000081526004016127ca90615ad8565b60405180910390fd5b6000602b81905550600083856127e99190615d8c565b1480156128015750600083856127ff9190615b94565b115b61280a57600080fd5b612812613b49565b61286261281e82613995565b6028548661282c9190615d8c565b6128369190615b94565b61283f83613995565b61285386601554600d54600e546001614110565b61285d9190615b94565b6149eb565b60245461286e836138a1565b61287784613995565b61288085613a7a565b61288a9190615b94565b6128949190615de6565b61289e9190615bea565b116128a857600080fd5b600080600115158415151415612a165760008611156128d8576128ce8660016000613cb5565b91508590506128eb565b8491506128e86000600187613cb5565b90505b6128fa8160195460175461414a565b602e60008573ffffffffffffffffffffffffffffffffffffffff1673ffffffffffffffffffffffffffffffffffffffff16815260200190815260200160002060008015151515815260200190815260200160002060010160008282546129609190615b94565b9250508190555081602e60008573ffffffffffffffffffffffffffffffffffffffff1673ffffffffffffffffffffffffffffffffffffffff1681526020019081526020016000206000600115151515815260200190815260200160002060020160008282546129cf9190615b94565b925050819055506019546129e88260195460175461414a565b6129f29190615b94565b6019819055508060176000828254612a0a9190615b94565b92505081905550612b70565b6000861115612a3657859150612a2f600060018861416c565b9050612a49565b612a43856001600061416c565b91508490505b612a5881601a5460185461414a565b602e60008573ffffffffffffffffffffffffffffffffffffffff1673ffffffffffffffffffffffffffffffffffffffff168152602001908152602001600020600060011515151581526020019081526020016000206001016000828254612abf9190615b94565b9250508190555081602e60008573ffffffffffffffffffffffffffffffffffffffff1673ffffffffffffffffffffffffffffffffffffffff1681526020019081526020016000206000801515151581526020019081526020016000206002016000828254612b2d9190615b94565b92505081905550601a54612b4682601a5460185461414a565b612b509190615b94565b601a819055508060186000828254612b689190615b94565b925050819055505b50506001602b8190555050505050565b6040518060400160405280600681526020017f554e492d5632000000000000000000000000000000000000000000000000000081525081565b60245481565b60105481565b6000612bd233848461370d565b6001905092915050565b602360009054906101000a900473ffffffffffffffffffffffffffffffffffffffff1681565b6001602b5414612c47576040517f08c379a0000000000000000000000000000000000000000000000000000000008152600401612c3e90615ad8565b60405180910390fd5b6000602b81905550612d5b602260009054906101000a900473ffffffffffffffffffffffffffffffffffffffff1682612d56602c600060028110612c8e57612c8d615f5d565b5b0154601454612c9d9190615b94565b602260009054906101000a900473ffffffffffffffffffffffffffffffffffffffff1673ffffffffffffffffffffffffffffffffffffffff166370a08231306040518263ffffffff1660e01b8152600401612cf891906158b1565b60206040518083038186803b158015612d1057600080fd5b505afa158015612d24573d6000803e3d6000fd5b505050506040513d601f19601f82011682018060405250810190612d48919061557b565b6136b490919063ffffffff16565b614861565b612e67602360009054906101000a900473ffffffffffffffffffffffffffffffffffffffff1682612e62602c600160028110612d9a57612d99615f5d565b5b0154601354612da99190615b94565b602360009054906101000a900473ffffffffffffffffffffffffffffffffffffffff1673ffffffffffffffffffffffffffffffffffffffff166370a08231306040518263ffffffff1660e01b8152600401612e0491906158b1565b60206040518083038186803b158015612e1c57600080fd5b505afa158015612e30573d6000803e3d6000fd5b505050506040513d601f19601f82011682018060405250810190612e54919061557b565b6136b490919063ffffffff16565b614861565b6001602b8190555050565b6001602b5414612eb7576040517f08c379a0000000000000000000000000000000000000000000000000000000008152600401612eae90615ad8565b60405180910390fd5b6000602b81905550612ec8826138a1565b612ed183613995565b612eda84613a7a565b612ee49190615b94565b111580612f345750602654612ef883613995565b612f029190615d8c565b612f0b836138a1565b612f1484613995565b612f1d85613a7a565b612f279190615b94565b612f319190615de6565b11155b612f3d57600080fd5b612fca602260009054906101000a900473ffffffffffffffffffffffffffffffffffffffff1682602754602f60008773ffffffffffffffffffffffffffffffffffffffff1673ffffffffffffffffffffffffffffffffffffffff168152602001908152602001600020600060028110612fb957612fb8615f5d565b5b0154612fc59190615d8c565b614861565b613057602360009054906101000a900473ffffffffffffffffffffffffffffffffffffffff1682602754602f60008773ffffffffffffffffffffffffffffffffffffffff1673ffffffffffffffffffffffffffffffffffffffff16815260200190815260200160002060016002811061304657613045615f5d565b5b01546130529190615d8c565b614861565b602f60008373ffffffffffffffffffffffffffffffffffffffff1673ffffffffffffffffffffffffffffffffffffffff16815260200190815260200160002060006130a2919061529e565b6000602e60008473ffffffffffffffffffffffffffffffffffffffff1673ffffffffffffffffffffffffffffffffffffffff168152602001908152602001600020600080151515158152602001908152602001600020600101819055506000602e60008473ffffffffffffffffffffffffffffffffffffffff1673ffffffffffffffffffffffffffffffffffffffff1681526020019081526020016000206000600115151515815260200190815260200160002060010181905550613217602e60008473ffffffffffffffffffffffffffffffffffffffff1673ffffffffffffffffffffffffffffffffffffffff16815260200190815260200160002060008015151515815260200190815260200160002060020154602e60008573ffffffffffffffffffffffffffffffffffffffff1673ffffffffffffffffffffffffffffffffffffffff16815260200190815260200160002060006001151515158152602001908152602001600020600201548461120b565b6001602b819055505050565b602160009054906101000a900473ffffffffffffffffffffffffffffffffffffffff1681565b601e60009054906101000a900460ff1681565b602160009054906101000a900473ffffffffffffffffffffffffffffffffffffffff1673ffffffffffffffffffffffffffffffffffffffff163373ffffffffffffffffffffffffffffffffffffffff16146132b657600080fd5b8060248190555050565b60165481565b42841015613309576040517f08c379a000000000000000000000000000000000000000000000000000000000815260040161330090615a98565b60405180910390fd5b60006003547f6e71edae12b1b97f4d1f60370fef10105fa2faae0126114a169c64845d6126c960001b898989600460008e73ffffffffffffffffffffffffffffffffffffffff1673ffffffffffffffffffffffffffffffffffffffff168152602001908152602001600020600081548092919061338590615eac565b919050558a60405160200161339f96959493929190615970565b604051602081830303815290604052805190602001206040516020016133c692919061587a565b60405160208183030381529060405280519060200120905060006001828686866040516000815260200160405260405161340394939291906159d1565b6020604051602081039080840390855afa158015613425573d6000803e3d6000fd5b505050602060405103519050600073ffffffffffffffffffffffffffffffffffffffff168173ffffffffffffffffffffffffffffffffffffffff161415801561349957508873ffffffffffffffffffffffffffffffffffffffff168173ffffffffffffffffffffffffffffffffffffffff16145b6134d8576040517f08c379a00000000000000000000000000000000000000000000000000000000081526004016134cf90615a58565b60405180910390fd5b6134e38989896135c9565b505050505050505050565b6002602052816000526040600020602052806000526040600020600091509150505481565b602a5481565b600f5481565b601f5481565b60115481565b60275481565b60085481565b602f602052816000526040600020816002811061355357600080fd5b01600091509150505481565b600d5481565b602160009054906101000a900473ffffffffffffffffffffffffffffffffffffffff1673ffffffffffffffffffffffffffffffffffffffff163373ffffffffffffffffffffffffffffffffffffffff16146135bf57600080fd5b8060268190555050565b80600260008573ffffffffffffffffffffffffffffffffffffffff1673ffffffffffffffffffffffffffffffffffffffff16815260200190815260200160002060008473ffffffffffffffffffffffffffffffffffffffff1673ffffffffffffffffffffffffffffffffffffffff168152602001908152602001600020819055508173ffffffffffffffffffffffffffffffffffffffff168373ffffffffffffffffffffffffffffffffffffffff167f8c5be1e5ebec7d5bd14f71427d1e84f3dd0314c0f7b2291e5b200ac8c7c3b925836040516136a79190615af8565b60405180910390a3505050565b60008282846136c39190615de6565b9150811115613707576040517f08c379a00000000000000000000000000000000000000000000000000000000081526004016136fe90615a38565b60405180910390fd5b92915050565b61375f81600160008673ffffffffffffffffffffffffffffffffffffffff1673ffffffffffffffffffffffffffffffffffffffff168152602001908152602001600020546136b490919063ffffffff16565b600160008573ffffffffffffffffffffffffffffffffffffffff1673ffffffffffffffffffffffffffffffffffffffff168152602001908152602001600020819055506137f481600160008573ffffffffffffffffffffffffffffffffffffffff1673ffffffffffffffffffffffffffffffffffffffff16815260200190815260200160002054614a0490919063ffffffff16565b600160008473ffffffffffffffffffffffffffffffffffffffff1673ffffffffffffffffffffffffffffffffffffffff168152602001908152602001600020819055508173ffffffffffffffffffffffffffffffffffffffff168373ffffffffffffffffffffffffffffffffffffffff167fddf252ad1be2c89b69c2b068fc378daa952ba7f163c4a11628f55a4df523b3ef836040516138949190615af8565b60405180910390a3505050565b600061391d613912602e60008573ffffffffffffffffffffffffffffffffffffffff1673ffffffffffffffffffffffffffffffffffffffff16815260200190815260200160002060008015151515815260200190815260200160002060010154601754601554601954602854614110565b600d54600e5461414a565b613984602e60008573ffffffffffffffffffffffffffffffffffffffff1673ffffffffffffffffffffffffffffffffffffffff1681526020019081526020016000206000600115151515815260200190815260200160002060010154601854601a5461414a565b61398e9190615b94565b9050919050565b6000613a04602e60008473ffffffffffffffffffffffffffffffffffffffff1673ffffffffffffffffffffffffffffffffffffffff1681526020019081526020016000206000600115151515815260200190815260200160002060020154601554600d54600e54602854614110565b602854602e60008573ffffffffffffffffffffffffffffffffffffffff1673ffffffffffffffffffffffffffffffffffffffff16815260200190815260200160002060008015151515815260200190815260200160002060020154613a699190615d8c565b613a739190615b94565b9050919050565b6000613ae4602f60008473ffffffffffffffffffffffffffffffffffffffff1673ffffffffffffffffffffffffffffffffffffffff168152602001908152602001600020600160028110613ad157613ad0615f5d565b5b0154601554600d54600e54602854614110565b602f60008473ffffffffffffffffffffffffffffffffffffffff1673ffffffffffffffffffffffffffffffffffffffff168152602001908152602001600020600060028110613b3657613b35615f5d565b5b0154613b429190615b94565b9050919050565b600080613b6f601454601354600e54600d54600b54600c54600554600654600754614a5d565b91509150600080613b928484601054600f54602054601f54601454601354614af9565b915091506000601d5443613ba69190615de6565b905043601d819055506000613bc2601554600d54600e5461414a565b905060001515601e60009054906101000a900460ff1615151415613c3f57613bf4601754601c54846028546001614110565b601754613c019190615b94565b60178190555081613c1d601c5460175484602854602854614110565b613c279190615d8c565b601854613c349190615de6565b601881905550613c8c565b613c53601854601c54846028546001614110565b601854613c609190615b94565b601881905550613c78601c5460185484846001614110565b601754613c859190615de6565b6017819055505b83601c8190555082601e60006101000a81548160ff021916908315150217905550505050505050565b60006001602b5414613cfc576040517f08c379a0000000000000000000000000000000000000000000000000000000008152600401613cf390615ad8565b60405180910390fd5b6000602b8190555060005b613d26613d1b60095460165460285461414a565b600b54600e54614ba3565b8186613d329190615de6565b1115613f07576000613d4b60095460165460285461414a565b90506000613d6160055460065460075485614bd8565b9050600085118015613d8b575084613d7e600c5483600d54614ba3565b85613d899190615b94565b115b15613d97575050613f07565b613da6600c5482600d54614ba3565b84613db19190615b94565b9350613dc282600b54600e54614ba3565b83613dcd9190615b94565b9250600115158615151415613e0857613deb600c5482600d54614ba3565b600f6000828254613dfc9190615b94565b92505081905550613e57565b613e1782600b54600e54614ba3565b60146000828254613e289190615b94565b92505081905550613e3e600c5482600d54614ba3565b60136000828254613e4f9190615de6565b925050819055505b613e66600d54600a548361414a565b600d81905550613e7b600e546009548461414a565b600e81905550613ea4613e976005546006546007548686614cd8565b8260095485600a54614110565b601581905550613ebe600954600a54600754601554614dcc565b6005819055506005546028546002613ed69190615d8c565b613ee09190615de6565b600681905550613eee6146e1565b600954600b81905550600a54600c819055505050613d07565b600083141561400a576000600c549050613f318287613f269190615de6565b600e5460285461414a565b600b6000828254613f429190615b94565b92505081905550613f5d600554600654600754600b54614bd8565b600c81905550613f7281600c54600d54614ba3565b83613f7d9190615b94565b9250600115158515151415613fb857613f9b81600c54600d54614ba3565b600f6000828254613fac9190615b94565b92505081905550614004565b8186613fc49190615de6565b60146000828254613fd59190615b94565b92505081905550613feb81600c54600d54614ba3565b60136000828254613ffc9190615de6565b925050819055505b50614100565b6000600b54905061402b83856140209190615de6565b600d5460285461414a565b600c600082825461403c9190615de6565b92505081905550614057600554600654600754600c54614f06565b600b8190555061406c600b5482600e54614ba3565b826140779190615b94565b91506001151585151514156140af5782846140929190615de6565b600f60008282546140a39190615b94565b925050819055506140fb565b6140be600b5482600e54614ba3565b601460008282546140cf9190615b94565b9250508190555082846140e29190615de6565b601360008282546140f39190615de6565b925050819055505b819250505b506001602b819055509392505050565b600081838587896141219190615d8c565b61412b9190615d8c565b6141359190615bea565b61413f9190615bea565b905095945050505050565b60008183856141599190615d8c565b6141639190615bea565b90509392505050565b60006001602b54146141b3576040517f08c379a00000000000000000000000000000000000000000000000000000000081526004016141aa90615ad8565b60405180910390fd5b6000602b8190555060005b6141dd6141d2600a5460165460285461414a565b600c54600d54614ba3565b81866141e99190615de6565b11156143be576000614202600a5460165460285461414a565b9050600061421860055460065460075485614f06565b9050600085118015614242575084614235600b5483600e54614ba3565b856142409190615b94565b115b1561424e5750506143be565b61425d600b5482600e54614ba3565b846142689190615b94565b935061427982600c54600d54614ba3565b836142849190615b94565b92506001151586151514156142bf576142a2600b5482600e54614ba3565b601060008282546142b39190615b94565b9250508190555061430e565b6142ce600b5482600e54614ba3565b601460008282546142df9190615de6565b925050819055506142f582600c54600d54614ba3565b601360008282546143069190615b94565b925050819055505b61431d600d54600a548461414a565b600d81905550614332600e546009548361414a565b600e8190555061435b61434e6005546006546007548587614cd8565b8360095484600a54614110565b601581905550614375600954600a54600754601554614dcc565b600581905550600554602854600261438d9190615d8c565b6143979190615de6565b6006819055506143a56146e1565b600954600b81905550600a54600c8190555050506141be565b60008314156144c1576000600b5490506143e882876143dd9190615de6565b600d5460285461414a565b600c60008282546143f99190615b94565b92505081905550614414600554600654600754600c54614f06565b600b8190555061442981600b54600e54614ba3565b836144349190615b94565b925060011515851515141561446f5761445281600b54600e54614ba3565b601060008282546144639190615b94565b925050819055506144bb565b818661447b9190615de6565b6013600082825461448c9190615b94565b925050819055506144a281600b54600e54614ba3565b601460008282546144b39190615de6565b925050819055505b506145b7565b6000600c5490506144e283856144d79190615de6565b600e5460285461414a565b600b60008282546144f39190615de6565b9250508190555061450e600554600654600754600b54614bd8565b600c81905550614523600c5482600d54614ba3565b8261452e9190615b94565b91506001151585151514156145665782846145499190615de6565b6010600082825461455a9190615b94565b925050819055506145b2565b614575600c5482600d54614ba3565b601360008282546145869190615b94565b9250508190555082846145999190615de6565b601460008282546145aa9190615de6565b925050819055505b819250505b506001602b819055509392505050565b6145dc81600054614a0490919063ffffffff16565b60008190555061463481600160008573ffffffffffffffffffffffffffffffffffffffff1673ffffffffffffffffffffffffffffffffffffffff16815260200190815260200160002054614a0490919063ffffffff16565b600160008473ffffffffffffffffffffffffffffffffffffffff1673ffffffffffffffffffffffffffffffffffffffff168152602001908152602001600020819055508173ffffffffffffffffffffffffffffffffffffffff16600073ffffffffffffffffffffffffffffffffffffffff167fddf252ad1be2c89b69c2b068fc378daa952ba7f163c4a11628f55a4df523b3ef836040516146d59190615af8565b60405180910390a35050565b6000614703601454600554600e54601354600654600d54601254601154615006565b9050602854816008546147169190615d8c565b6147209190615bea565b60078190555060026007546147359190615bea565b600981905550600954600a8190555050565b61479981600160008573ffffffffffffffffffffffffffffffffffffffff1673ffffffffffffffffffffffffffffffffffffffff168152602001908152602001600020546136b490919063ffffffff16565b600160008473ffffffffffffffffffffffffffffffffffffffff1673ffffffffffffffffffffffffffffffffffffffff168152602001908152602001600020819055506147f1816000546136b490919063ffffffff16565b600081905550600073ffffffffffffffffffffffffffffffffffffffff168273ffffffffffffffffffffffffffffffffffffffff167fddf252ad1be2c89b69c2b068fc378daa952ba7f163c4a11628f55a4df523b3ef836040516148559190615af8565b60405180910390a35050565b6000808473ffffffffffffffffffffffffffffffffffffffff166040518060400160405280601981526020017f7472616e7366657228616464726573732c75696e7432353629000000000000008152508051906020012085856040516024016148cb929190615911565b604051602081830303815290604052907bffffffffffffffffffffffffffffffffffffffffffffffffffffffff19166020820180517bffffffffffffffffffffffffffffffffffffffffffffffffffffffff83818316178352505050506040516149359190615863565b6000604051808303816000865af19150503d8060008114614972576040519150601f19603f3d011682016040523d82523d6000602084013e614977565b606091505b50915091508180156149a557506000815114806149a45750808060200190518101906149a39190615521565b5b5b6149e4576040517f08c379a00000000000000000000000000000000000000000000000000000000081526004016149db90615ab8565b60405180910390fd5b5050505050565b60008183116149fa57816149fc565b825b905092915050565b6000828284614a139190615b94565b9150811015614a57576040517f08c379a0000000000000000000000000000000000000000000000000000000008152600401614a4e90615a78565b60405180910390fd5b92915050565b6000806000614a758c8b670de0b6b3a764000061414a565b90506000614a8c8c8b670de0b6b3a764000061414a565b90506000614a9b838388615066565b9050600081671bc16d674ec80000614ab39190615de6565b9050614acc614ac583838a8888614cd8565b8d8f61414a565b9550614ae5614ade8a8a8a8f8f614cd8565b8d8f61414a565b945050505050995099975050505050505050565b60008089891115614b3c57614b0f8784886150ea565b611680614b1d8b8d8e614ba3565b614b279190615bea565b614b319190615b94565b915060009050614b70565b614b478885886150ea565b611680614b558c8c8e614ba3565b614b5f9190615bea565b614b699190615b94565b9150600190505b8461078083614b7f9190615d8c565b1115614b965761078085614b939190615bea565b91505b9850989650505050505050565b600081670de0b6b3a76400008486614bbb9190615de6565b614bc59190615d8c565b614bcf9190615bea565b90509392505050565b600081846008614be89190615d8c565b614bf29190615d8c565b614c8b670de0b6b3a7640000858687614c0b9190615d8c565b614c159190615d8c565b6000614c219190615de6565b85886010614c2f9190615d8c565b614c399190615d8c565b614c439190615d8c565b614c4d9190615d8c565b600285868a6004614c5e9190615d8c565b614c689190615d8c565b614c729190615d8c565b614c7c9190615c6e565b614c869190615de6565b615137565b8384886004614c9a9190615d8c565b614ca49190615d8c565b614cae9190615d8c565b6000614cba9190615de6565b614cc49190615b94565b614cce9190615bea565b9050949350505050565b600081848586614ce89190615d8c565b614cf29190615d8c565b614cfc9190615d8c565b828385868a6004614d0d9190615d8c565b614d179190615d8c565b614d219190615d8c565b614d2b9190615d8c565b614d359190615d8c565b614d3f9190615b94565b670de0b6b3a764000084868788614d569190615d8c565b614d609190615d8c565b614d6a9190615d8c565b848587888b6004614d7b9190615d8c565b614d859190615d8c565b614d8f9190615d8c565b614d999190615d8c565b614da39190615d8c565b614dad9190615b94565b614db79190615d8c565b614dc19190615bea565b905095945050505050565b600081670de0b6b3a7640000614de29190615b94565b848587886004614df29190615d8c565b614dfc9190615d8c565b614e069190615d8c565b614e109190615d8c565b614e1a9190615d8c565b670de0b6b3a76400008386868788614e329190615d8c565b614e3c9190615d8c565b614e469190615d8c565b614e509190615d8c565b614e5a9190615d8c565b6ec097ce7bc90715b34b9f100000000087868788614e789190615d8c565b614e829190615d8c565b614e8c9190615d8c565b614e969190615d8c565b6ec097ce7bc90715b34b9f100000000087888a8b6008614eb69190615d8c565b614ec09190615d8c565b614eca9190615d8c565b614ed49190615d8c565b614ede9190615d8c565b614ee89190615b94565b614ef29190615de6565b614efc9190615bea565b9050949350505050565b600081856008614f169190615d8c565b614f209190615d8c565b614fb9670de0b6b3a7640000858687614f399190615d8c565b614f439190615d8c565b6000614f4f9190615de6565b85896010614f5d9190615d8c565b614f679190615d8c565b614f719190615d8c565b614f7b9190615d8c565b60028586896004614f8c9190615d8c565b614f969190615d8c565b614fa09190615d8c565b614faa9190615c6e565b614fb49190615de6565b615137565b8384876004614fc89190615d8c565b614fd29190615d8c565b614fdc9190615d8c565b6000614fe89190615de6565b614ff29190615b94565b614ffc9190615bea565b9050949350505050565b6000615058615019848a8a868a8a6151b1565b760a70c3c40a64e6c51999090b65f67d924000000000000061503f8c8c8c8c8c8c6151b1565b6150499190615d8c565b6150539190615bea565b61520d565b905098975050505050505050565b600082846150749190615de6565b670de0b6b3a764000084600261508a9190615d8c565b8587600487888961509b9190615d8c565b6150a59190615d8c565b6150af9190615bea565b6150b99190615bea565b6150c39190615bea565b6150cd9190615de6565b6150d79190615d8c565b6150e19190615bea565b90509392505050565b60008161e10085856150fc9190615b94565b670de0b6b3a7640000876151109190615d8c565b61511a9190615bea565b6151249190615bea565b61512e9190615b94565b90509392505050565b6000600382111561519e57819050600060016002846151569190615bea565b6151609190615b94565b90505b8181101561519857809150600281828561517d9190615bea565b6151879190615b94565b6151919190615bea565b9050615163565b506151ac565b600082146151ab57600190505b5b919050565b600083878385876151c29190615d8c565b6151cc9190615d8c565b87898b6151d99190615d8c565b6151e39190615d8c565b6151ed9190615b94565b6151f79190615d8c565b6152019190615d8c565b90509695505050505050565b6000600882111561528b578190506000600160038461522c9190615bea565b6152369190615b94565b90505b818110156152855780915060038160026152539190615d8c565b828361525f9190615d8c565b8561526a9190615bea565b6152749190615b94565b61527e9190615bea565b9050615239565b50615299565b6000821461529857600190505b5b919050565b506000815560010160009055565b6000813590506152bb816160ce565b92915050565b6000813590506152d0816160e5565b92915050565b6000815190506152e5816160e5565b92915050565b6000813590506152fa816160fc565b92915050565b60008135905061530f81616113565b92915050565b60008151905061532481616113565b92915050565b6000813590506153398161612a565b92915050565b60006020828403121561535557615354615f8c565b5b6000615363848285016152ac565b91505092915050565b6000806040838503121561538357615382615f8c565b5b6000615391858286016152ac565b92505060206153a2858286016152ac565b9150509250929050565b6000806000606084860312156153c5576153c4615f8c565b5b60006153d3868287016152ac565b93505060206153e4868287016152ac565b92505060406153f586828701615300565b9150509250925092565b600080600080600080600060e0888a03121561541e5761541d615f8c565b5b600061542c8a828b016152ac565b975050602061543d8a828b016152ac565b965050604061544e8a828b01615300565b955050606061545f8a828b01615300565b94505060806154708a828b0161532a565b93505060a06154818a828b016152eb565b92505060c06154928a828b016152eb565b91505092959891949750929550565b600080604083850312156154b8576154b7615f8c565b5b60006154c6858286016152ac565b92505060206154d7858286016152c1565b9150509250929050565b600080604083850312156154f8576154f7615f8c565b5b6000615506858286016152ac565b925050602061551785828601615300565b9150509250929050565b60006020828403121561553757615536615f8c565b5b6000615545848285016152d6565b91505092915050565b60006020828403121561556457615563615f8c565b5b600061557284828501615300565b91505092915050565b60006020828403121561559157615590615f8c565b5b600061559f84828501615315565b91505092915050565b600080604083850312156155bf576155be615f8c565b5b60006155cd85828601615300565b92505060206155de858286016152ac565b9150509250929050565b60008060006060848603121561560157615600615f8c565b5b600061560f86828701615300565b935050602061562086828701615300565b9250506040615631868287016152ac565b9150509250925092565b6000806000806080858703121561565557615654615f8c565b5b600061566387828801615300565b945050602061567487828801615300565b9350506040615685878288016152c1565b9250506060615696878288016152ac565b91505092959194509250565b6156ab81615e1a565b82525050565b6156ba81615e2c565b82525050565b6156c981615e38565b82525050565b6156e06156db82615e38565b615ef5565b82525050565b60006156f182615b57565b6156fb8185615b6d565b935061570b818560208601615e79565b80840191505092915050565b600061572282615b62565b61572c8185615b78565b935061573c818560208601615e79565b61574581615f91565b840191505092915050565b600061575d601583615b78565b915061576882615faf565b602082019050919050565b6000615780601c83615b78565b915061578b82615fd8565b602082019050919050565b60006157a3600283615b89565b91506157ae82616001565b600282019050919050565b60006157c6601483615b78565b91506157d18261602a565b602082019050919050565b60006157e9601283615b78565b91506157f482616053565b602082019050919050565b600061580c600f83615b78565b91506158178261607c565b602082019050919050565b600061582f600683615b78565b915061583a826160a5565b602082019050919050565b61584e81615e62565b82525050565b61585d81615e6c565b82525050565b600061586f82846156e6565b915081905092915050565b600061588582615796565b915061589182856156cf565b6020820191506158a182846156cf565b6020820191508190509392505050565b60006020820190506158c660008301846156a2565b92915050565b60006080820190506158e160008301876156a2565b6158ee60208301866156b1565b6158fb6040830185615845565b6159086060830184615845565b95945050505050565b600060408201905061592660008301856156a2565b6159336020830184615845565b9392505050565b600060208201905061594f60008301846156b1565b92915050565b600060208201905061596a60008301846156c0565b92915050565b600060c08201905061598560008301896156c0565b61599260208301886156a2565b61599f60408301876156a2565b6159ac6060830186615845565b6159b96080830185615845565b6159c660a0830184615845565b979650505050505050565b60006080820190506159e660008301876156c0565b6159f36020830186615854565b615a0060408301856156c0565b615a0d60608301846156c0565b95945050505050565b60006020820190508181036000830152615a308184615717565b905092915050565b60006020820190508181036000830152615a5181615750565b9050919050565b60006020820190508181036000830152615a7181615773565b9050919050565b60006020820190508181036000830152615a91816157b9565b9050919050565b60006020820190508181036000830152615ab1816157dc565b9050919050565b60006020820190508181036000830152615ad1816157ff565b9050919050565b60006020820190508181036000830152615af181615822565b9050919050565b6000602082019050615b0d6000830184615845565b92915050565b6000604082019050615b286000830185615845565b615b356020830184615845565b9392505050565b6000602082019050615b516000830184615854565b92915050565b600081519050919050565b600081519050919050565b600081905092915050565b600082825260208201905092915050565b600081905092915050565b6000615b9f82615e62565b9150615baa83615e62565b9250827fffffffffffffffffffffffffffffffffffffffffffffffffffffffffffffffff03821115615bdf57615bde615eff565b5b828201905092915050565b6000615bf582615e62565b9150615c0083615e62565b925082615c1057615c0f615f2e565b5b828204905092915050565b6000808291508390505b6001851115615c6557808604811115615c4157615c40615eff565b5b6001851615615c505780820291505b8081029050615c5e85615fa2565b9450615c25565b94509492505050565b6000615c7982615e62565b9150615c8483615e6c565b9250615cb17fffffffffffffffffffffffffffffffffffffffffffffffffffffffffffffffff8484615cb9565b905092915050565b600082615cc95760019050615d85565b81615cd75760009050615d85565b8160018114615ced5760028114615cf757615d26565b6001915050615d85565b60ff841115615d0957615d08615eff565b5b8360020a915084821115615d2057615d1f615eff565b5b50615d85565b5060208310610133831016604e8410600b8410161715615d5b5782820a905083811115615d5657615d55615eff565b5b615d85565b615d688484846001615c1b565b92509050818404811115615d7f57615d7e615eff565b5b81810290505b9392505050565b6000615d9782615e62565b9150615da283615e62565b9250817fffffffffffffffffffffffffffffffffffffffffffffffffffffffffffffffff0483118215151615615ddb57615dda615eff565b5b828202905092915050565b6000615df182615e62565b9150615dfc83615e62565b925082821015615e0f57615e0e615eff565b5b828203905092915050565b6000615e2582615e42565b9050919050565b60008115159050919050565b6000819050919050565b600073ffffffffffffffffffffffffffffffffffffffff82169050919050565b6000819050919050565b600060ff82169050919050565b60005b83811015615e97578082015181840152602081019050615e7c565b83811115615ea6576000848401525b50505050565b6000615eb782615e62565b91507fffffffffffffffffffffffffffffffffffffffffffffffffffffffffffffffff821415615eea57615ee9615eff565b5b600182019050919050565b6000819050919050565b7f4e487b7100000000000000000000000000000000000000000000000000000000600052601160045260246000fd5b7f4e487b7100000000000000000000000000000000000000000000000000000000600052601260045260246000fd5b7f4e487b7100000000000000000000000000000000000000000000000000000000600052603260045260246000fd5b600080fd5b6000601f19601f8301169050919050565b60008160011c9050919050565b7f64732d6d6174682d7375622d756e646572666c6f770000000000000000000000600082015250565b7f556e697377617056323a20494e56414c49445f5349474e415455524500000000600082015250565b7f1901000000000000000000000000000000000000000000000000000000000000600082015250565b7f64732d6d6174682d6164642d6f766572666c6f77000000000000000000000000600082015250565b7f556e697377617056323a20455850495245440000000000000000000000000000600082015250565b7f5452414e534645525f4641494c45440000000000000000000000000000000000600082015250565b7f4c4f434b45440000000000000000000000000000000000000000000000000000600082015250565b6160d781615e1a565b81146160e257600080fd5b50565b6160ee81615e2c565b81146160f957600080fd5b50565b61610581615e38565b811461611057600080fd5b50565b61611c81615e62565b811461612757600080fd5b50565b61613381615e6c565b811461613e57600080fd5b5056fea26469706673582212206a312a0ea5fb9f0016112192036c00b234bf947e82436211981c1e12c6406e0064736f6c63430008070033",
			"opcodes": "PUSH1 0x80 PUSH1 0x40 MSTORE PUSH8 0xDE0B6B3A7640000 PUSH1 0x28 SSTORE PUSH1 0x1 PUSH1 0x2B SSTORE CALLVALUE DUP1 ISZERO PUSH3 0x22 JUMPI PUSH1 0x0 DUP1 REVERT JUMPDEST POP PUSH1 0x0 CHAINID SWAP1 POP PUSH32 0x8B73C3C69BB8FE3D512ECC4CF759CC79239F7B179B0FFACAA9A75D522B39400F PUSH1 0x40 MLOAD DUP1 PUSH1 0x40 ADD PUSH1 0x40 MSTORE DUP1 PUSH1 0xA DUP2 MSTORE PUSH1 0x20 ADD PUSH32 0x556E697377617020563200000000000000000000000000000000000000000000 DUP2 MSTORE POP DUP1 MLOAD SWAP1 PUSH1 0x20 ADD KECCAK256 PUSH1 0x40 MLOAD DUP1 PUSH1 0x40 ADD PUSH1 0x40 MSTORE DUP1 PUSH1 0x1 DUP2 MSTORE PUSH1 0x20 ADD PUSH32 0x3100000000000000000000000000000000000000000000000000000000000000 DUP2 MSTORE POP DUP1 MLOAD SWAP1 PUSH1 0x20 ADD KECCAK256 DUP4 ADDRESS PUSH1 0x40 MLOAD PUSH1 0x20 ADD PUSH3 0xDB SWAP6 SWAP5 SWAP4 SWAP3 SWAP2 SWAP1 PUSH3 0x172 JUMP JUMPDEST PUSH1 0x40 MLOAD PUSH1 0x20 DUP2 DUP4 SUB SUB DUP2 MSTORE SWAP1 PUSH1 0x40 MSTORE DUP1 MLOAD SWAP1 PUSH1 0x20 ADD KECCAK256 PUSH1 0x3 DUP2 SWAP1 SSTORE POP POP CALLER PUSH1 0x21 PUSH1 0x0 PUSH2 0x100 EXP DUP2 SLOAD DUP2 PUSH20 0xFFFFFFFFFFFFFFFFFFFFFFFFFFFFFFFFFFFFFFFF MUL NOT AND SWAP1 DUP4 PUSH20 0xFFFFFFFFFFFFFFFFFFFFFFFFFFFFFFFFFFFFFFFF AND MUL OR SWAP1 SSTORE POP PUSH3 0x217 JUMP JUMPDEST PUSH3 0x14A DUP2 PUSH3 0x1CF JUMP JUMPDEST DUP3 MSTORE POP POP JUMP JUMPDEST PUSH3 0x15B DUP2 PUSH3 0x1E3 JUMP JUMPDEST DUP3 MSTORE POP POP JUMP JUMPDEST PUSH3 0x16C DUP2 PUSH3 0x20D JUMP JUMPDEST DUP3 MSTORE POP POP JUMP JUMPDEST PUSH1 0x0 PUSH1 0xA0 DUP3 ADD SWAP1 POP PUSH3 0x189 PUSH1 0x0 DUP4 ADD DUP9 PUSH3 0x150 JUMP JUMPDEST PUSH3 0x198 PUSH1 0x20 DUP4 ADD DUP8 PUSH3 0x150 JUMP JUMPDEST PUSH3 0x1A7 PUSH1 0x40 DUP4 ADD DUP7 PUSH3 0x150 JUMP JUMPDEST PUSH3 0x1B6 PUSH1 0x60 DUP4 ADD DUP6 PUSH3 0x161 JUMP JUMPDEST PUSH3 0x1C5 PUSH1 0x80 DUP4 ADD DUP5 PUSH3 0x13F JUMP JUMPDEST SWAP7 SWAP6 POP POP POP POP POP POP JUMP JUMPDEST PUSH1 0x0 PUSH3 0x1DC DUP3 PUSH3 0x1ED JUMP JUMPDEST SWAP1 POP SWAP2 SWAP1 POP JUMP JUMPDEST PUSH1 0x0 DUP2 SWAP1 POP SWAP2 SWAP1 POP JUMP JUMPDEST PUSH1 0x0 PUSH20 0xFFFFFFFFFFFFFFFFFFFFFFFFFFFFFFFFFFFFFFFF DUP3 AND SWAP1 POP SWAP2 SWAP1 POP JUMP JUMPDEST PUSH1 0x0 DUP2 SWAP1 POP SWAP2 SWAP1 POP JUMP JUMPDEST PUSH2 0x6177 DUP1 PUSH3 0x227 PUSH1 0x0 CODECOPY PUSH1 0x0 RETURN INVALID PUSH1 0x80 PUSH1 0x40 MSTORE CALLVALUE DUP1 ISZERO PUSH2 0x10 JUMPI PUSH1 0x0 DUP1 REVERT JUMPDEST POP PUSH1 0x4 CALLDATASIZE LT PUSH2 0x3DA JUMPI PUSH1 0x0 CALLDATALOAD PUSH1 0xE0 SHR DUP1 PUSH4 0x7E11939A GT PUSH2 0x20A JUMPI DUP1 PUSH4 0xBC25CF77 GT PUSH2 0x125 JUMPI DUP1 PUSH4 0xDDCA3F43 GT PUSH2 0xB8 JUMPI DUP1 PUSH4 0xF70F4394 GT PUSH2 0x87 JUMPI DUP1 PUSH4 0xF70F4394 EQ PUSH2 0xB8E JUMPI DUP1 PUSH4 0xF738C74E EQ PUSH2 0xBAC JUMPI DUP1 PUSH4 0xFC69B80F EQ PUSH2 0xBCA JUMPI DUP1 PUSH4 0xFE18F261 EQ PUSH2 0xBFA JUMPI DUP1 PUSH4 0xFF2F169E EQ PUSH2 0xC18 JUMPI PUSH2 0x3DA JUMP JUMPDEST DUP1 PUSH4 0xDDCA3F43 EQ PUSH2 0xB16 JUMPI DUP1 PUSH4 0xDF0AB2C2 EQ PUSH2 0xB34 JUMPI DUP1 PUSH4 0xE19A1474 EQ PUSH2 0xB52 JUMPI DUP1 PUSH4 0xEA1797B0 EQ PUSH2 0xB70 JUMPI PUSH2 0x3DA JUMP JUMPDEST DUP1 PUSH4 0xCFE38A5E GT PUSH2 0xF4 JUMPI DUP1 PUSH4 0xCFE38A5E EQ PUSH2 0xA90 JUMPI DUP1 PUSH4 0xD44022DB EQ PUSH2 0xAAC JUMPI DUP1 PUSH4 0xD505ACCF EQ PUSH2 0xACA JUMPI DUP1 PUSH4 0xDD62ED3E EQ PUSH2 0xAE6 JUMPI PUSH2 0x3DA JUMP JUMPDEST DUP1 PUSH4 0xBC25CF77 EQ PUSH2 0xA1C JUMPI DUP1 PUSH4 0xC3D81B21 EQ PUSH2 0xA38 JUMPI DUP1 PUSH4 0xC45A0155 EQ PUSH2 0xA54 JUMPI DUP1 PUSH4 0xC7D44932 EQ PUSH2 0xA72 JUMPI PUSH2 0x3DA JUMP JUMPDEST DUP1 PUSH4 0x8CF825E7 GT PUSH2 0x19D JUMPI DUP1 PUSH4 0x9A36E122 GT PUSH2 0x16C JUMPI DUP1 PUSH4 0x9A36E122 EQ PUSH2 0x992 JUMPI DUP1 PUSH4 0xA5AA65B9 EQ PUSH2 0x9B0 JUMPI DUP1 PUSH4 0xA9059CBB EQ PUSH2 0x9CE JUMPI DUP1 PUSH4 0xB7D19FC4 EQ PUSH2 0x9FE JUMPI PUSH2 0x3DA JUMP JUMPDEST DUP1 PUSH4 0x8CF825E7 EQ PUSH2 0x91E JUMPI DUP1 PUSH4 0x8E361389 EQ PUSH2 0x93A JUMPI DUP1 PUSH4 0x9076AE86 EQ PUSH2 0x958 JUMPI DUP1 PUSH4 0x95D89B41 EQ PUSH2 0x974 JUMPI PUSH2 0x3DA JUMP JUMPDEST DUP1 PUSH4 0x80416C02 GT PUSH2 0x1D9 JUMPI DUP1 PUSH4 0x80416C02 EQ PUSH2 0x8A6 JUMPI DUP1 PUSH4 0x83DFE5FD EQ PUSH2 0x8C4 JUMPI DUP1 PUSH4 0x84009686 EQ PUSH2 0x8E2 JUMPI DUP1 PUSH4 0x8BC1A32F EQ PUSH2 0x900 JUMPI PUSH2 0x3DA JUMP JUMPDEST DUP1 PUSH4 0x7E11939A EQ PUSH2 0x807 JUMPI DUP1 PUSH4 0x7E1431BE EQ PUSH2 0x825 JUMPI DUP1 PUSH4 0x7ECEBE00 EQ PUSH2 0x858 JUMPI DUP1 PUSH4 0x7ED6281B EQ PUSH2 0x888 JUMPI PUSH2 0x3DA JUMP JUMPDEST DUP1 PUSH4 0x30ADF81F GT PUSH2 0x2FA JUMPI DUP1 PUSH4 0x4C324E6A GT PUSH2 0x28D JUMPI DUP1 PUSH4 0x6665FF11 GT PUSH2 0x25C JUMPI DUP1 PUSH4 0x6665FF11 EQ PUSH2 0x76A JUMPI DUP1 PUSH4 0x6B3545AA EQ PUSH2 0x79B JUMPI DUP1 PUSH4 0x70A08231 EQ PUSH2 0x7B9 JUMPI DUP1 PUSH4 0x79DBF8EA EQ PUSH2 0x7E9 JUMPI PUSH2 0x3DA JUMP JUMPDEST DUP1 PUSH4 0x4C324E6A EQ PUSH2 0x6E2 JUMPI DUP1 PUSH4 0x5595D459 EQ PUSH2 0x6FE JUMPI DUP1 PUSH4 0x5E287D86 EQ PUSH2 0x71C JUMPI DUP1 PUSH4 0x6126DEEF EQ PUSH2 0x73A JUMPI PUSH2 0x3DA JUMP JUMPDEST DUP1 PUSH4 0x36AF2F9B GT PUSH2 0x2C9 JUMPI DUP1 PUSH4 0x36AF2F9B EQ PUSH2 0x66C JUMPI DUP1 PUSH4 0x3C6FE2F4 EQ PUSH2 0x68A JUMPI DUP1 PUSH4 0x480C4F7E EQ PUSH2 0x6A8 JUMPI DUP1 PUSH4 0x485CC955 EQ PUSH2 0x6C6 JUMPI PUSH2 0x3DA JUMP JUMPDEST DUP1 PUSH4 0x30ADF81F EQ PUSH2 0x5F4 JUMPI DUP1 PUSH4 0x313CE567 EQ PUSH2 0x612 JUMPI DUP1 PUSH4 0x32E7C5BF EQ PUSH2 0x630 JUMPI DUP1 PUSH4 0x3644E515 EQ PUSH2 0x64E JUMPI PUSH2 0x3DA JUMP JUMPDEST DUP1 PUSH4 0x18DB9681 GT PUSH2 0x372 JUMPI DUP1 PUSH4 0x23B872DD GT PUSH2 0x341 JUMPI DUP1 PUSH4 0x23B872DD EQ PUSH2 0x569 JUMPI DUP1 PUSH4 0x23ED16B6 EQ PUSH2 0x599 JUMPI DUP1 PUSH4 0x2DD6C254 EQ PUSH2 0x5B7 JUMPI DUP1 PUSH4 0x30688AB8 EQ PUSH2 0x5D5 JUMPI PUSH2 0x3DA JUMP JUMPDEST DUP1 PUSH4 0x18DB9681 EQ PUSH2 0x4DF JUMPI DUP1 PUSH4 0x1CBDFFD1 EQ PUSH2 0x4FD JUMPI DUP1 PUSH4 0x2190219E EQ PUSH2 0x52D JUMPI DUP1 PUSH4 0x225C2C50 EQ PUSH2 0x54B JUMPI PUSH2 0x3DA JUMP JUMPDEST DUP1 PUSH4 0xF529BA2 GT PUSH2 0x3AE JUMPI DUP1 PUSH4 0xF529BA2 EQ PUSH2 0x467 JUMPI DUP1 PUSH4 0x139860EE EQ PUSH2 0x485 JUMPI DUP1 PUSH4 0x16DC165B EQ PUSH2 0x4A3 JUMPI DUP1 PUSH4 0x18160DDD EQ PUSH2 0x4C1 JUMPI PUSH2 0x3DA JUMP JUMPDEST DUP1 PUSH3 0xB52645 EQ PUSH2 0x3DF JUMPI DUP1 PUSH4 0x6FDDE03 EQ PUSH2 0x3FD JUMPI DUP1 PUSH4 0x95EA7B3 EQ PUSH2 0x41B JUMPI DUP1 PUSH4 0xBFA68D8 EQ PUSH2 0x44B JUMPI JUMPDEST PUSH1 0x0 DUP1 REVERT JUMPDEST PUSH2 0x3E7 PUSH2 0xC34 JUMP JUMPDEST PUSH1 0x40 MLOAD PUSH2 0x3F4 SWAP2 SWAP1 PUSH2 0x5AF8 JUMP JUMPDEST PUSH1 0x40 MLOAD DUP1 SWAP2 SUB SWAP1 RETURN JUMPDEST PUSH2 0x405 PUSH2 0xC3A JUMP JUMPDEST PUSH1 0x40 MLOAD PUSH2 0x412 SWAP2 SWAP1 PUSH2 0x5A16 JUMP JUMPDEST PUSH1 0x40 MLOAD DUP1 SWAP2 SUB SWAP1 RETURN JUMPDEST PUSH2 0x435 PUSH1 0x4 DUP1 CALLDATASIZE SUB DUP2 ADD SWAP1 PUSH2 0x430 SWAP2 SWAP1 PUSH2 0x54E1 JUMP JUMPDEST PUSH2 0xC73 JUMP JUMPDEST PUSH1 0x40 MLOAD PUSH2 0x442 SWAP2 SWAP1 PUSH2 0x593A JUMP JUMPDEST PUSH1 0x40 MLOAD DUP1 SWAP2 SUB SWAP1 RETURN JUMPDEST PUSH2 0x465 PUSH1 0x4 DUP1 CALLDATASIZE SUB DUP2 ADD SWAP1 PUSH2 0x460 SWAP2 SWAP1 PUSH2 0x554E JUMP JUMPDEST PUSH2 0xC8A JUMP JUMPDEST STOP JUMPDEST PUSH2 0x46F PUSH2 0xCEE JUMP JUMPDEST PUSH1 0x40 MLOAD PUSH2 0x47C SWAP2 SWAP1 PUSH2 0x5AF8 JUMP JUMPDEST PUSH1 0x40 MLOAD DUP1 SWAP2 SUB SWAP1 RETURN JUMPDEST PUSH2 0x48D PUSH2 0xCF4 JUMP JUMPDEST PUSH1 0x40 MLOAD PUSH2 0x49A SWAP2 SWAP1 PUSH2 0x5AF8 JUMP JUMPDEST PUSH1 0x40 MLOAD DUP1 SWAP2 SUB SWAP1 RETURN JUMPDEST PUSH2 0x4AB PUSH2 0xCFA JUMP JUMPDEST PUSH1 0x40 MLOAD PUSH2 0x4B8 SWAP2 SWAP1 PUSH2 0x58B1 JUMP JUMPDEST PUSH1 0x40 MLOAD DUP1 SWAP2 SUB SWAP1 RETURN JUMPDEST PUSH2 0x4C9 PUSH2 0xD20 JUMP JUMPDEST PUSH1 0x40 MLOAD PUSH2 0x4D6 SWAP2 SWAP1 PUSH2 0x5AF8 JUMP JUMPDEST PUSH1 0x40 MLOAD DUP1 SWAP2 SUB SWAP1 RETURN JUMPDEST PUSH2 0x4E7 PUSH2 0xD26 JUMP JUMPDEST PUSH1 0x40 MLOAD PUSH2 0x4F4 SWAP2 SWAP1 PUSH2 0x5AF8 JUMP JUMPDEST PUSH1 0x40 MLOAD DUP1 SWAP2 SUB SWAP1 RETURN JUMPDEST PUSH2 0x517 PUSH1 0x4 DUP1 CALLDATASIZE SUB DUP2 ADD SWAP1 PUSH2 0x512 SWAP2 SWAP1 PUSH2 0x554E JUMP JUMPDEST PUSH2 0xD2C JUMP JUMPDEST PUSH1 0x40 MLOAD PUSH2 0x524 SWAP2 SWAP1 PUSH2 0x5AF8 JUMP JUMPDEST PUSH1 0x40 MLOAD DUP1 SWAP2 SUB SWAP1 RETURN JUMPDEST PUSH2 0x535 PUSH2 0xD47 JUMP JUMPDEST PUSH1 0x40 MLOAD PUSH2 0x542 SWAP2 SWAP1 PUSH2 0x5AF8 JUMP JUMPDEST PUSH1 0x40 MLOAD DUP1 SWAP2 SUB SWAP1 RETURN JUMPDEST PUSH2 0x553 PUSH2 0xD4D JUMP JUMPDEST PUSH1 0x40 MLOAD PUSH2 0x560 SWAP2 SWAP1 PUSH2 0x5AF8 JUMP JUMPDEST PUSH1 0x40 MLOAD DUP1 SWAP2 SUB SWAP1 RETURN JUMPDEST PUSH2 0x583 PUSH1 0x4 DUP1 CALLDATASIZE SUB DUP2 ADD SWAP1 PUSH2 0x57E SWAP2 SWAP1 PUSH2 0x53AC JUMP JUMPDEST PUSH2 0xD53 JUMP JUMPDEST PUSH1 0x40 MLOAD PUSH2 0x590 SWAP2 SWAP1 PUSH2 0x593A JUMP JUMPDEST PUSH1 0x40 MLOAD DUP1 SWAP2 SUB SWAP1 RETURN JUMPDEST PUSH2 0x5A1 PUSH2 0xF00 JUMP JUMPDEST PUSH1 0x40 MLOAD PUSH2 0x5AE SWAP2 SWAP1 PUSH2 0x5AF8 JUMP JUMPDEST PUSH1 0x40 MLOAD DUP1 SWAP2 SUB SWAP1 RETURN JUMPDEST PUSH2 0x5BF PUSH2 0xF06 JUMP JUMPDEST PUSH1 0x40 MLOAD PUSH2 0x5CC SWAP2 SWAP1 PUSH2 0x5AF8 JUMP JUMPDEST PUSH1 0x40 MLOAD DUP1 SWAP2 SUB SWAP1 RETURN JUMPDEST PUSH2 0x5DD PUSH2 0xF0C JUMP JUMPDEST PUSH1 0x40 MLOAD PUSH2 0x5EB SWAP3 SWAP2 SWAP1 PUSH2 0x5B13 JUMP JUMPDEST PUSH1 0x40 MLOAD DUP1 SWAP2 SUB SWAP1 RETURN JUMPDEST PUSH2 0x5FC PUSH2 0x109F JUMP JUMPDEST PUSH1 0x40 MLOAD PUSH2 0x609 SWAP2 SWAP1 PUSH2 0x5955 JUMP JUMPDEST PUSH1 0x40 MLOAD DUP1 SWAP2 SUB SWAP1 RETURN JUMPDEST PUSH2 0x61A PUSH2 0x10C6 JUMP JUMPDEST PUSH1 0x40 MLOAD PUSH2 0x627 SWAP2 SWAP1 PUSH2 0x5B3C JUMP JUMPDEST PUSH1 0x40 MLOAD DUP1 SWAP2 SUB SWAP1 RETURN JUMPDEST PUSH2 0x638 PUSH2 0x10CB JUMP JUMPDEST PUSH1 0x40 MLOAD PUSH2 0x645 SWAP2 SWAP1 PUSH2 0x5AF8 JUMP JUMPDEST PUSH1 0x40 MLOAD DUP1 SWAP2 SUB SWAP1 RETURN JUMPDEST PUSH2 0x656 PUSH2 0x10D1 JUMP JUMPDEST PUSH1 0x40 MLOAD PUSH2 0x663 SWAP2 SWAP1 PUSH2 0x5955 JUMP JUMPDEST PUSH1 0x40 MLOAD DUP1 SWAP2 SUB SWAP1 RETURN JUMPDEST PUSH2 0x674 PUSH2 0x10D7 JUMP JUMPDEST PUSH1 0x40 MLOAD PUSH2 0x681 SWAP2 SWAP1 PUSH2 0x5AF8 JUMP JUMPDEST PUSH1 0x40 MLOAD DUP1 SWAP2 SUB SWAP1 RETURN JUMPDEST PUSH2 0x692 PUSH2 0x10DD JUMP JUMPDEST PUSH1 0x40 MLOAD PUSH2 0x69F SWAP2 SWAP1 PUSH2 0x5AF8 JUMP JUMPDEST PUSH1 0x40 MLOAD DUP1 SWAP2 SUB SWAP1 RETURN JUMPDEST PUSH2 0x6B0 PUSH2 0x10E3 JUMP JUMPDEST PUSH1 0x40 MLOAD PUSH2 0x6BD SWAP2 SWAP1 PUSH2 0x5AF8 JUMP JUMPDEST PUSH1 0x40 MLOAD DUP1 SWAP2 SUB SWAP1 RETURN JUMPDEST PUSH2 0x6E0 PUSH1 0x4 DUP1 CALLDATASIZE SUB DUP2 ADD SWAP1 PUSH2 0x6DB SWAP2 SWAP1 PUSH2 0x536C JUMP JUMPDEST PUSH2 0x10E9 JUMP JUMPDEST STOP JUMPDEST PUSH2 0x6FC PUSH1 0x4 DUP1 CALLDATASIZE SUB DUP2 ADD SWAP1 PUSH2 0x6F7 SWAP2 SWAP1 PUSH2 0x55E8 JUMP JUMPDEST PUSH2 0x120B JUMP JUMPDEST STOP JUMPDEST PUSH2 0x706 PUSH2 0x2122 JUMP JUMPDEST PUSH1 0x40 MLOAD PUSH2 0x713 SWAP2 SWAP1 PUSH2 0x5AF8 JUMP JUMPDEST PUSH1 0x40 MLOAD DUP1 SWAP2 SUB SWAP1 RETURN JUMPDEST PUSH2 0x724 PUSH2 0x2128 JUMP JUMPDEST PUSH1 0x40 MLOAD PUSH2 0x731 SWAP2 SWAP1 PUSH2 0x5AF8 JUMP JUMPDEST PUSH1 0x40 MLOAD DUP1 SWAP2 SUB SWAP1 RETURN JUMPDEST PUSH2 0x754 PUSH1 0x4 DUP1 CALLDATASIZE SUB DUP2 ADD SWAP1 PUSH2 0x74F SWAP2 SWAP1 PUSH2 0x55E8 JUMP JUMPDEST PUSH2 0x212E JUMP JUMPDEST PUSH1 0x40 MLOAD PUSH2 0x761 SWAP2 SWAP1 PUSH2 0x5AF8 JUMP JUMPDEST PUSH1 0x40 MLOAD DUP1 SWAP2 SUB SWAP1 RETURN JUMPDEST PUSH2 0x784 PUSH1 0x4 DUP1 CALLDATASIZE SUB DUP2 ADD SWAP1 PUSH2 0x77F SWAP2 SWAP1 PUSH2 0x55A8 JUMP JUMPDEST PUSH2 0x222F JUMP JUMPDEST PUSH1 0x40 MLOAD PUSH2 0x792 SWAP3 SWAP2 SWAP1 PUSH2 0x5B13 JUMP JUMPDEST PUSH1 0x40 MLOAD DUP1 SWAP2 SUB SWAP1 RETURN JUMPDEST PUSH2 0x7A3 PUSH2 0x239C JUMP JUMPDEST PUSH1 0x40 MLOAD PUSH2 0x7B0 SWAP2 SWAP1 PUSH2 0x5AF8 JUMP JUMPDEST PUSH1 0x40 MLOAD DUP1 SWAP2 SUB SWAP1 RETURN JUMPDEST PUSH2 0x7D3 PUSH1 0x4 DUP1 CALLDATASIZE SUB DUP2 ADD SWAP1 PUSH2 0x7CE SWAP2 SWAP1 PUSH2 0x533F JUMP JUMPDEST PUSH2 0x23A2 JUMP JUMPDEST PUSH1 0x40 MLOAD PUSH2 0x7E0 SWAP2 SWAP1 PUSH2 0x5AF8 JUMP JUMPDEST PUSH1 0x40 MLOAD DUP1 SWAP2 SUB SWAP1 RETURN JUMPDEST PUSH2 0x7F1 PUSH2 0x23BA JUMP JUMPDEST PUSH1 0x40 MLOAD PUSH2 0x7FE SWAP2 SWAP1 PUSH2 0x5AF8 JUMP JUMPDEST PUSH1 0x40 MLOAD DUP1 SWAP2 SUB SWAP1 RETURN JUMPDEST PUSH2 0x80F PUSH2 0x23C0 JUMP JUMPDEST PUSH1 0x40 MLOAD PUSH2 0x81C SWAP2 SWAP1 PUSH2 0x5AF8 JUMP JUMPDEST PUSH1 0x40 MLOAD DUP1 SWAP2 SUB SWAP1 RETURN JUMPDEST PUSH2 0x83F PUSH1 0x4 DUP1 CALLDATASIZE SUB DUP2 ADD SWAP1 PUSH2 0x83A SWAP2 SWAP1 PUSH2 0x54A1 JUMP JUMPDEST PUSH2 0x23C6 JUMP JUMPDEST PUSH1 0x40 MLOAD PUSH2 0x84F SWAP5 SWAP4 SWAP3 SWAP2 SWAP1 PUSH2 0x58CC JUMP JUMPDEST PUSH1 0x40 MLOAD DUP1 SWAP2 SUB SWAP1 RETURN JUMPDEST PUSH2 0x872 PUSH1 0x4 DUP1 CALLDATASIZE SUB DUP2 ADD SWAP1 PUSH2 0x86D SWAP2 SWAP1 PUSH2 0x533F JUMP JUMPDEST PUSH2 0x2430 JUMP JUMPDEST PUSH1 0x40 MLOAD PUSH2 0x87F SWAP2 SWAP1 PUSH2 0x5AF8 JUMP JUMPDEST PUSH1 0x40 MLOAD DUP1 SWAP2 SUB SWAP1 RETURN JUMPDEST PUSH2 0x890 PUSH2 0x2448 JUMP JUMPDEST PUSH1 0x40 MLOAD PUSH2 0x89D SWAP2 SWAP1 PUSH2 0x5AF8 JUMP JUMPDEST PUSH1 0x40 MLOAD DUP1 SWAP2 SUB SWAP1 RETURN JUMPDEST PUSH2 0x8AE PUSH2 0x244E JUMP JUMPDEST PUSH1 0x40 MLOAD PUSH2 0x8BB SWAP2 SWAP1 PUSH2 0x5AF8 JUMP JUMPDEST PUSH1 0x40 MLOAD DUP1 SWAP2 SUB SWAP1 RETURN JUMPDEST PUSH2 0x8CC PUSH2 0x2454 JUMP JUMPDEST PUSH1 0x40 MLOAD PUSH2 0x8D9 SWAP2 SWAP1 PUSH2 0x5AF8 JUMP JUMPDEST PUSH1 0x40 MLOAD DUP1 SWAP2 SUB SWAP1 RETURN JUMPDEST PUSH2 0x8EA PUSH2 0x245A JUMP JUMPDEST PUSH1 0x40 MLOAD PUSH2 0x8F7 SWAP2 SWAP1 PUSH2 0x5AF8 JUMP JUMPDEST PUSH1 0x40 MLOAD DUP1 SWAP2 SUB SWAP1 RETURN JUMPDEST PUSH2 0x908 PUSH2 0x2460 JUMP JUMPDEST PUSH1 0x40 MLOAD PUSH2 0x915 SWAP2 SWAP1 PUSH2 0x5AF8 JUMP JUMPDEST PUSH1 0x40 MLOAD DUP1 SWAP2 SUB SWAP1 RETURN JUMPDEST PUSH2 0x938 PUSH1 0x4 DUP1 CALLDATASIZE SUB DUP2 ADD SWAP1 PUSH2 0x933 SWAP2 SWAP1 PUSH2 0x536C JUMP JUMPDEST PUSH2 0x2466 JUMP JUMPDEST STOP JUMPDEST PUSH2 0x942 PUSH2 0x2788 JUMP JUMPDEST PUSH1 0x40 MLOAD PUSH2 0x94F SWAP2 SWAP1 PUSH2 0x5AF8 JUMP JUMPDEST PUSH1 0x40 MLOAD DUP1 SWAP2 SUB SWAP1 RETURN JUMPDEST PUSH2 0x972 PUSH1 0x4 DUP1 CALLDATASIZE SUB DUP2 ADD SWAP1 PUSH2 0x96D SWAP2 SWAP1 PUSH2 0x563B JUMP JUMPDEST PUSH2 0x278E JUMP JUMPDEST STOP JUMPDEST PUSH2 0x97C PUSH2 0x2B80 JUMP JUMPDEST PUSH1 0x40 MLOAD PUSH2 0x989 SWAP2 SWAP1 PUSH2 0x5A16 JUMP JUMPDEST PUSH1 0x40 MLOAD DUP1 SWAP2 SUB SWAP1 RETURN JUMPDEST PUSH2 0x99A PUSH2 0x2BB9 JUMP JUMPDEST PUSH1 0x40 MLOAD PUSH2 0x9A7 SWAP2 SWAP1 PUSH2 0x5AF8 JUMP JUMPDEST PUSH1 0x40 MLOAD DUP1 SWAP2 SUB SWAP1 RETURN JUMPDEST PUSH2 0x9B8 PUSH2 0x2BBF JUMP JUMPDEST PUSH1 0x40 MLOAD PUSH2 0x9C5 SWAP2 SWAP1 PUSH2 0x5AF8 JUMP JUMPDEST PUSH1 0x40 MLOAD DUP1 SWAP2 SUB SWAP1 RETURN JUMPDEST PUSH2 0x9E8 PUSH1 0x4 DUP1 CALLDATASIZE SUB DUP2 ADD SWAP1 PUSH2 0x9E3 SWAP2 SWAP1 PUSH2 0x54E1 JUMP JUMPDEST PUSH2 0x2BC5 JUMP JUMPDEST PUSH1 0x40 MLOAD PUSH2 0x9F5 SWAP2 SWAP1 PUSH2 0x593A JUMP JUMPDEST PUSH1 0x40 MLOAD DUP1 SWAP2 SUB SWAP1 RETURN JUMPDEST PUSH2 0xA06 PUSH2 0x2BDC JUMP JUMPDEST PUSH1 0x40 MLOAD PUSH2 0xA13 SWAP2 SWAP1 PUSH2 0x58B1 JUMP JUMPDEST PUSH1 0x40 MLOAD DUP1 SWAP2 SUB SWAP1 RETURN JUMPDEST PUSH2 0xA36 PUSH1 0x4 DUP1 CALLDATASIZE SUB DUP2 ADD SWAP1 PUSH2 0xA31 SWAP2 SWAP1 PUSH2 0x533F JUMP JUMPDEST PUSH2 0x2C02 JUMP JUMPDEST STOP JUMPDEST PUSH2 0xA52 PUSH1 0x4 DUP1 CALLDATASIZE SUB DUP2 ADD SWAP1 PUSH2 0xA4D SWAP2 SWAP1 PUSH2 0x536C JUMP JUMPDEST PUSH2 0x2E72 JUMP JUMPDEST STOP JUMPDEST PUSH2 0xA5C PUSH2 0x3223 JUMP JUMPDEST PUSH1 0x40 MLOAD PUSH2 0xA69 SWAP2 SWAP1 PUSH2 0x58B1 JUMP JUMPDEST PUSH1 0x40 MLOAD DUP1 SWAP2 SUB SWAP1 RETURN JUMPDEST PUSH2 0xA7A PUSH2 0x3249 JUMP JUMPDEST PUSH1 0x40 MLOAD PUSH2 0xA87 SWAP2 SWAP1 PUSH2 0x593A JUMP JUMPDEST PUSH1 0x40 MLOAD DUP1 SWAP2 SUB SWAP1 RETURN JUMPDEST PUSH2 0xAAA PUSH1 0x4 DUP1 CALLDATASIZE SUB DUP2 ADD SWAP1 PUSH2 0xAA5 SWAP2 SWAP1 PUSH2 0x554E JUMP JUMPDEST PUSH2 0x325C JUMP JUMPDEST STOP JUMPDEST PUSH2 0xAB4 PUSH2 0x32C0 JUMP JUMPDEST PUSH1 0x40 MLOAD PUSH2 0xAC1 SWAP2 SWAP1 PUSH2 0x5AF8 JUMP JUMPDEST PUSH1 0x40 MLOAD DUP1 SWAP2 SUB SWAP1 RETURN JUMPDEST PUSH2 0xAE4 PUSH1 0x4 DUP1 CALLDATASIZE SUB DUP2 ADD SWAP1 PUSH2 0xADF SWAP2 SWAP1 PUSH2 0x53FF JUMP JUMPDEST PUSH2 0x32C6 JUMP JUMPDEST STOP JUMPDEST PUSH2 0xB00 PUSH1 0x4 DUP1 CALLDATASIZE SUB DUP2 ADD SWAP1 PUSH2 0xAFB SWAP2 SWAP1 PUSH2 0x536C JUMP JUMPDEST PUSH2 0x34EE JUMP JUMPDEST PUSH1 0x40 MLOAD PUSH2 0xB0D SWAP2 SWAP1 PUSH2 0x5AF8 JUMP JUMPDEST PUSH1 0x40 MLOAD DUP1 SWAP2 SUB SWAP1 RETURN JUMPDEST PUSH2 0xB1E PUSH2 0x3513 JUMP JUMPDEST PUSH1 0x40 MLOAD PUSH2 0xB2B SWAP2 SWAP1 PUSH2 0x5AF8 JUMP JUMPDEST PUSH1 0x40 MLOAD DUP1 SWAP2 SUB SWAP1 RETURN JUMPDEST PUSH2 0xB3C PUSH2 0x3519 JUMP JUMPDEST PUSH1 0x40 MLOAD PUSH2 0xB49 SWAP2 SWAP1 PUSH2 0x5AF8 JUMP JUMPDEST PUSH1 0x40 MLOAD DUP1 SWAP2 SUB SWAP1 RETURN JUMPDEST PUSH2 0xB5A PUSH2 0x351F JUMP JUMPDEST PUSH1 0x40 MLOAD PUSH2 0xB67 SWAP2 SWAP1 PUSH2 0x5AF8 JUMP JUMPDEST PUSH1 0x40 MLOAD DUP1 SWAP2 SUB SWAP1 RETURN JUMPDEST PUSH2 0xB78 PUSH2 0x3525 JUMP JUMPDEST PUSH1 0x40 MLOAD PUSH2 0xB85 SWAP2 SWAP1 PUSH2 0x5AF8 JUMP JUMPDEST PUSH1 0x40 MLOAD DUP1 SWAP2 SUB SWAP1 RETURN JUMPDEST PUSH2 0xB96 PUSH2 0x352B JUMP JUMPDEST PUSH1 0x40 MLOAD PUSH2 0xBA3 SWAP2 SWAP1 PUSH2 0x5AF8 JUMP JUMPDEST PUSH1 0x40 MLOAD DUP1 SWAP2 SUB SWAP1 RETURN JUMPDEST PUSH2 0xBB4 PUSH2 0x3531 JUMP JUMPDEST PUSH1 0x40 MLOAD PUSH2 0xBC1 SWAP2 SWAP1 PUSH2 0x5AF8 JUMP JUMPDEST PUSH1 0x40 MLOAD DUP1 SWAP2 SUB SWAP1 RETURN JUMPDEST PUSH2 0xBE4 PUSH1 0x4 DUP1 CALLDATASIZE SUB DUP2 ADD SWAP1 PUSH2 0xBDF SWAP2 SWAP1 PUSH2 0x54E1 JUMP JUMPDEST PUSH2 0x3537 JUMP JUMPDEST PUSH1 0x40 MLOAD PUSH2 0xBF1 SWAP2 SWAP1 PUSH2 0x5AF8 JUMP JUMPDEST PUSH1 0x40 MLOAD DUP1 SWAP2 SUB SWAP1 RETURN JUMPDEST PUSH2 0xC02 PUSH2 0x355F JUMP JUMPDEST PUSH1 0x40 MLOAD PUSH2 0xC0F SWAP2 SWAP1 PUSH2 0x5AF8 JUMP JUMPDEST PUSH1 0x40 MLOAD DUP1 SWAP2 SUB SWAP1 RETURN JUMPDEST PUSH2 0xC32 PUSH1 0x4 DUP1 CALLDATASIZE SUB DUP2 ADD SWAP1 PUSH2 0xC2D SWAP2 SWAP1 PUSH2 0x554E JUMP JUMPDEST PUSH2 0x3565 JUMP JUMPDEST STOP JUMPDEST PUSH1 0xE SLOAD DUP2 JUMP JUMPDEST PUSH1 0x40 MLOAD DUP1 PUSH1 0x40 ADD PUSH1 0x40 MSTORE DUP1 PUSH1 0xA DUP2 MSTORE PUSH1 0x20 ADD PUSH32 0x556E697377617020563200000000000000000000000000000000000000000000 DUP2 MSTORE POP DUP2 JUMP JUMPDEST PUSH1 0x0 PUSH2 0xC80 CALLER DUP5 DUP5 PUSH2 0x35C9 JUMP JUMPDEST PUSH1 0x1 SWAP1 POP SWAP3 SWAP2 POP POP JUMP JUMPDEST PUSH1 0x21 PUSH1 0x0 SWAP1 SLOAD SWAP1 PUSH2 0x100 EXP SWAP1 DIV PUSH20 0xFFFFFFFFFFFFFFFFFFFFFFFFFFFFFFFFFFFFFFFF AND PUSH20 0xFFFFFFFFFFFFFFFFFFFFFFFFFFFFFFFFFFFFFFFF AND CALLER PUSH20 0xFFFFFFFFFFFFFFFFFFFFFFFFFFFFFFFFFFFFFFFF AND EQ PUSH2 0xCE4 JUMPI PUSH1 0x0 DUP1 REVERT JUMPDEST DUP1 PUSH1 0x1F DUP2 SWAP1 SSTORE POP POP JUMP JUMPDEST PUSH1 0x7 SLOAD DUP2 JUMP JUMPDEST PUSH1 0x1A SLOAD DUP2 JUMP JUMPDEST PUSH1 0x22 PUSH1 0x0 SWAP1 SLOAD SWAP1 PUSH2 0x100 EXP SWAP1 DIV PUSH20 0xFFFFFFFFFFFFFFFFFFFFFFFFFFFFFFFFFFFFFFFF AND DUP2 JUMP JUMPDEST PUSH1 0x0 SLOAD DUP2 JUMP JUMPDEST PUSH1 0x1B SLOAD DUP2 JUMP JUMPDEST PUSH1 0x2C DUP2 PUSH1 0x2 DUP2 LT PUSH2 0xD3C JUMPI PUSH1 0x0 DUP1 REVERT JUMPDEST ADD PUSH1 0x0 SWAP2 POP SWAP1 POP SLOAD DUP2 JUMP JUMPDEST PUSH1 0x17 SLOAD DUP2 JUMP JUMPDEST PUSH1 0x18 SLOAD DUP2 JUMP JUMPDEST PUSH1 0x0 PUSH2 0x101 PUSH1 0x2 PUSH1 0x0 DUP7 PUSH20 0xFFFFFFFFFFFFFFFFFFFFFFFFFFFFFFFFFFFFFFFF AND PUSH20 0xFFFFFFFFFFFFFFFFFFFFFFFFFFFFFFFFFFFFFFFF AND DUP2 MSTORE PUSH1 0x20 ADD SWAP1 DUP2 MSTORE PUSH1 0x20 ADD PUSH1 0x0 KECCAK256 PUSH1 0x0 CALLER PUSH20 0xFFFFFFFFFFFFFFFFFFFFFFFFFFFFFFFFFFFFFFFF AND PUSH20 0xFFFFFFFFFFFFFFFFFFFFFFFFFFFFFFFFFFFFFFFF AND DUP2 MSTORE PUSH1 0x20 ADD SWAP1 DUP2 MSTORE PUSH1 0x20 ADD PUSH1 0x0 KECCAK256 SLOAD EQ PUSH2 0xEEA JUMPI PUSH2 0xE69 DUP3 PUSH1 0x2 PUSH1 0x0 DUP8 PUSH20 0xFFFFFFFFFFFFFFFFFFFFFFFFFFFFFFFFFFFFFFFF AND PUSH20 0xFFFFFFFFFFFFFFFFFFFFFFFFFFFFFFFFFFFFFFFF AND DUP2 MSTORE PUSH1 0x20 ADD SWAP1 DUP2 MSTORE PUSH1 0x20 ADD PUSH1 0x0 KECCAK256 PUSH1 0x0 CALLER PUSH20 0xFFFFFFFFFFFFFFFFFFFFFFFFFFFFFFFFFFFFFFFF AND PUSH20 0xFFFFFFFFFFFFFFFFFFFFFFFFFFFFFFFFFFFFFFFF AND DUP2 MSTORE PUSH1 0x20 ADD SWAP1 DUP2 MSTORE PUSH1 0x20 ADD PUSH1 0x0 KECCAK256 SLOAD PUSH2 0x36B4 SWAP1 SWAP2 SWAP1 PUSH4 0xFFFFFFFF AND JUMP JUMPDEST PUSH1 0x2 PUSH1 0x0 DUP7 PUSH20 0xFFFFFFFFFFFFFFFFFFFFFFFFFFFFFFFFFFFFFFFF AND PUSH20 0xFFFFFFFFFFFFFFFFFFFFFFFFFFFFFFFFFFFFFFFF AND DUP2 MSTORE PUSH1 0x20 ADD SWAP1 DUP2 MSTORE PUSH1 0x20 ADD PUSH1 0x0 KECCAK256 PUSH1 0x0 CALLER PUSH20 0xFFFFFFFFFFFFFFFFFFFFFFFFFFFFFFFFFFFFFFFF AND PUSH20 0xFFFFFFFFFFFFFFFFFFFFFFFFFFFFFFFFFFFFFFFF AND DUP2 MSTORE PUSH1 0x20 ADD SWAP1 DUP2 MSTORE PUSH1 0x20 ADD PUSH1 0x0 KECCAK256 DUP2 SWAP1 SSTORE POP JUMPDEST PUSH2 0xEF5 DUP5 DUP5 DUP5 PUSH2 0x370D JUMP JUMPDEST PUSH1 0x1 SWAP1 POP SWAP4 SWAP3 POP POP POP JUMP JUMPDEST PUSH1 0x1C SLOAD DUP2 JUMP JUMPDEST PUSH1 0x25 SLOAD DUP2 JUMP JUMPDEST PUSH1 0x0 DUP1 PUSH1 0x14 SLOAD PUSH1 0x22 PUSH1 0x0 SWAP1 SLOAD SWAP1 PUSH2 0x100 EXP SWAP1 DIV PUSH20 0xFFFFFFFFFFFFFFFFFFFFFFFFFFFFFFFFFFFFFFFF AND PUSH20 0xFFFFFFFFFFFFFFFFFFFFFFFFFFFFFFFFFFFFFFFF AND PUSH4 0x70A08231 ADDRESS PUSH1 0x40 MLOAD DUP3 PUSH4 0xFFFFFFFF AND PUSH1 0xE0 SHL DUP2 MSTORE PUSH1 0x4 ADD PUSH2 0xF6D SWAP2 SWAP1 PUSH2 0x58B1 JUMP JUMPDEST PUSH1 0x20 PUSH1 0x40 MLOAD DUP1 DUP4 SUB DUP2 DUP7 DUP1 EXTCODESIZE ISZERO DUP1 ISZERO PUSH2 0xF85 JUMPI PUSH1 0x0 DUP1 REVERT JUMPDEST POP GAS STATICCALL ISZERO DUP1 ISZERO PUSH2 0xF99 JUMPI RETURNDATASIZE PUSH1 0x0 DUP1 RETURNDATACOPY RETURNDATASIZE PUSH1 0x0 REVERT JUMPDEST POP POP POP POP PUSH1 0x40 MLOAD RETURNDATASIZE PUSH1 0x1F NOT PUSH1 0x1F DUP3 ADD AND DUP3 ADD DUP1 PUSH1 0x40 MSTORE POP DUP2 ADD SWAP1 PUSH2 0xFBD SWAP2 SWAP1 PUSH2 0x557B JUMP JUMPDEST PUSH2 0xFC7 SWAP2 SWAP1 PUSH2 0x5DE6 JUMP JUMPDEST SWAP2 POP PUSH1 0x13 SLOAD PUSH1 0x23 PUSH1 0x0 SWAP1 SLOAD SWAP1 PUSH2 0x100 EXP SWAP1 DIV PUSH20 0xFFFFFFFFFFFFFFFFFFFFFFFFFFFFFFFFFFFFFFFF AND PUSH20 0xFFFFFFFFFFFFFFFFFFFFFFFFFFFFFFFFFFFFFFFF AND PUSH4 0x70A08231 ADDRESS PUSH1 0x40 MLOAD DUP3 PUSH4 0xFFFFFFFF AND PUSH1 0xE0 SHL DUP2 MSTORE PUSH1 0x4 ADD PUSH2 0x1027 SWAP2 SWAP1 PUSH2 0x58B1 JUMP JUMPDEST PUSH1 0x20 PUSH1 0x40 MLOAD DUP1 DUP4 SUB DUP2 DUP7 DUP1 EXTCODESIZE ISZERO DUP1 ISZERO PUSH2 0x103F JUMPI PUSH1 0x0 DUP1 REVERT JUMPDEST POP GAS STATICCALL ISZERO DUP1 ISZERO PUSH2 0x1053 JUMPI RETURNDATASIZE PUSH1 0x0 DUP1 RETURNDATACOPY RETURNDATASIZE PUSH1 0x0 REVERT JUMPDEST POP POP POP POP PUSH1 0x40 MLOAD RETURNDATASIZE PUSH1 0x1F NOT PUSH1 0x1F DUP3 ADD AND DUP3 ADD DUP1 PUSH1 0x40 MSTORE POP DUP2 ADD SWAP1 PUSH2 0x1077 SWAP2 SWAP1 PUSH2 0x557B JUMP JUMPDEST PUSH2 0x1081 SWAP2 SWAP1 PUSH2 0x5DE6 JUMP JUMPDEST SWAP1 POP PUSH1 0x0 DUP3 GT DUP1 PUSH2 0x1092 JUMPI POP PUSH1 0x0 DUP2 GT JUMPDEST PUSH2 0x109B JUMPI PUSH1 0x0 DUP1 REVERT JUMPDEST SWAP1 SWAP2 JUMP JUMPDEST PUSH32 0x6E71EDAE12B1B97F4D1F60370FEF10105FA2FAAE0126114A169C64845D6126C9 PUSH1 0x0 SHL DUP2 JUMP JUMPDEST PUSH1 0x12 DUP2 JUMP JUMPDEST PUSH1 0x5 SLOAD DUP2 JUMP JUMPDEST PUSH1 0x3 SLOAD DUP2 JUMP JUMPDEST PUSH1 0xC SLOAD DUP2 JUMP JUMPDEST PUSH1 0x13 SLOAD DUP2 JUMP JUMPDEST PUSH1 0x15 SLOAD DUP2 JUMP JUMPDEST PUSH1 0x21 PUSH1 0x0 SWAP1 SLOAD SWAP1 PUSH2 0x100 EXP SWAP1 DIV PUSH20 0xFFFFFFFFFFFFFFFFFFFFFFFFFFFFFFFFFFFFFFFF AND PUSH20 0xFFFFFFFFFFFFFFFFFFFFFFFFFFFFFFFFFFFFFFFF AND CALLER PUSH20 0xFFFFFFFFFFFFFFFFFFFFFFFFFFFFFFFFFFFFFFFF AND EQ PUSH2 0x1143 JUMPI PUSH1 0x0 DUP1 REVERT JUMPDEST DUP2 PUSH1 0x22 PUSH1 0x0 PUSH2 0x100 EXP DUP2 SLOAD DUP2 PUSH20 0xFFFFFFFFFFFFFFFFFFFFFFFFFFFFFFFFFFFFFFFF MUL NOT AND SWAP1 DUP4 PUSH20 0xFFFFFFFFFFFFFFFFFFFFFFFFFFFFFFFFFFFFFFFF AND MUL OR SWAP1 SSTORE POP DUP1 PUSH1 0x23 PUSH1 0x0 PUSH2 0x100 EXP DUP2 SLOAD DUP2 PUSH20 0xFFFFFFFFFFFFFFFFFFFFFFFFFFFFFFFFFFFFFFFF MUL NOT AND SWAP1 DUP4 PUSH20 0xFFFFFFFFFFFFFFFFFFFFFFFFFFFFFFFFFFFFFFFF AND MUL OR SWAP1 SSTORE POP PUSH1 0x28 SLOAD PUSH1 0x5 DUP2 SWAP1 SSTORE POP PUSH1 0x28 SLOAD PUSH1 0x6 DUP2 SWAP1 SSTORE POP PUSH1 0x28 SLOAD PUSH1 0x7 DUP2 SWAP1 SSTORE POP PUSH1 0x7 SLOAD PUSH1 0x8 DUP2 SWAP1 SSTORE POP PUSH1 0x2 PUSH1 0x7 SLOAD PUSH2 0x11F8 SWAP2 SWAP1 PUSH2 0x5BEA JUMP JUMPDEST PUSH1 0x9 DUP2 SWAP1 SSTORE POP PUSH1 0x9 SLOAD PUSH1 0xA DUP2 SWAP1 SSTORE POP POP POP JUMP JUMPDEST PUSH1 0x1 PUSH1 0x2B SLOAD EQ PUSH2 0x1250 JUMPI PUSH1 0x40 MLOAD PUSH32 0x8C379A000000000000000000000000000000000000000000000000000000000 DUP2 MSTORE PUSH1 0x4 ADD PUSH2 0x1247 SWAP1 PUSH2 0x5AD8 JUMP JUMPDEST PUSH1 0x40 MLOAD DUP1 SWAP2 SUB SWAP1 REVERT JUMPDEST PUSH1 0x0 PUSH1 0x2B DUP2 SWAP1 SSTORE POP PUSH1 0x0 DUP3 DUP5 PUSH2 0x1266 SWAP2 SWAP1 PUSH2 0x5D8C JUMP JUMPDEST EQ DUP1 ISZERO PUSH2 0x127E JUMPI POP PUSH1 0x0 DUP3 DUP5 PUSH2 0x127C SWAP2 SWAP1 PUSH2 0x5B94 JUMP JUMPDEST GT JUMPDEST DUP1 ISZERO PUSH2 0x12AC JUMPI POP PUSH2 0x128E DUP2 PUSH2 0x38A1 JUMP JUMPDEST PUSH2 0x1297 DUP3 PUSH2 0x3995 JUMP JUMPDEST PUSH2 0x12A0 DUP4 PUSH2 0x3A7A JUMP JUMPDEST PUSH2 0x12AA SWAP2 SWAP1 PUSH2 0x5B94 JUMP JUMPDEST GT JUMPDEST DUP1 ISZERO PUSH2 0x130F JUMPI POP PUSH1 0x2E PUSH1 0x0 DUP3 PUSH20 0xFFFFFFFFFFFFFFFFFFFFFFFFFFFFFFFFFFFFFFFF AND PUSH20 0xFFFFFFFFFFFFFFFFFFFFFFFFFFFFFFFFFFFFFFFF AND DUP2 MSTORE PUSH1 0x20 ADD SWAP1 DUP2 MSTORE PUSH1 0x20 ADD PUSH1 0x0 KECCAK256 PUSH1 0x0 DUP1 ISZERO ISZERO ISZERO ISZERO DUP2 MSTORE PUSH1 0x20 ADD SWAP1 DUP2 MSTORE PUSH1 0x20 ADD PUSH1 0x0 KECCAK256 PUSH1 0x2 ADD SLOAD DUP4 GT ISZERO JUMPDEST DUP1 ISZERO PUSH2 0x1373 JUMPI POP PUSH1 0x2E PUSH1 0x0 DUP3 PUSH20 0xFFFFFFFFFFFFFFFFFFFFFFFFFFFFFFFFFFFFFFFF AND PUSH20 0xFFFFFFFFFFFFFFFFFFFFFFFFFFFFFFFFFFFFFFFF AND DUP2 MSTORE PUSH1 0x20 ADD SWAP1 DUP2 MSTORE PUSH1 0x20 ADD PUSH1 0x0 KECCAK256 PUSH1 0x0 PUSH1 0x1 ISZERO ISZERO ISZERO ISZERO DUP2 MSTORE PUSH1 0x20 ADD SWAP1 DUP2 MSTORE PUSH1 0x20 ADD PUSH1 0x0 KECCAK256 PUSH1 0x2 ADD SLOAD DUP3 GT ISZERO JUMPDEST PUSH2 0x137C JUMPI PUSH1 0x0 DUP1 REVERT JUMPDEST PUSH2 0x1384 PUSH2 0x3B49 JUMP JUMPDEST PUSH1 0x0 DUP4 GT ISZERO PUSH2 0x1AB9 JUMPI PUSH1 0x0 PUSH2 0x139C DUP5 PUSH1 0x1 PUSH1 0x0 PUSH2 0x3CB5 JUMP JUMPDEST SWAP1 POP PUSH1 0x0 PUSH2 0x1460 DUP6 PUSH1 0x2E PUSH1 0x0 DUP7 PUSH20 0xFFFFFFFFFFFFFFFFFFFFFFFFFFFFFFFFFFFFFFFF AND PUSH20 0xFFFFFFFFFFFFFFFFFFFFFFFFFFFFFFFFFFFFFFFF AND DUP2 MSTORE PUSH1 0x20 ADD SWAP1 DUP2 MSTORE PUSH1 0x20 ADD PUSH1 0x0 KECCAK256 PUSH1 0x0 PUSH1 0x1 ISZERO ISZERO ISZERO ISZERO DUP2 MSTORE PUSH1 0x20 ADD SWAP1 DUP2 MSTORE PUSH1 0x20 ADD PUSH1 0x0 KECCAK256 PUSH1 0x1 ADD SLOAD PUSH1 0x18 SLOAD PUSH1 0x1A SLOAD PUSH1 0x2E PUSH1 0x0 DUP10 PUSH20 0xFFFFFFFFFFFFFFFFFFFFFFFFFFFFFFFFFFFFFFFF AND PUSH20 0xFFFFFFFFFFFFFFFFFFFFFFFFFFFFFFFFFFFFFFFF AND DUP2 MSTORE PUSH1 0x20 ADD SWAP1 DUP2 MSTORE PUSH1 0x20 ADD PUSH1 0x0 KECCAK256 PUSH1 0x0 DUP1 ISZERO ISZERO ISZERO ISZERO DUP2 MSTORE PUSH1 0x20 ADD SWAP1 DUP2 MSTORE PUSH1 0x20 ADD PUSH1 0x0 KECCAK256 PUSH1 0x2 ADD SLOAD PUSH2 0x4110 JUMP JUMPDEST SWAP1 POP DUP5 PUSH1 0x2E PUSH1 0x0 DUP6 PUSH20 0xFFFFFFFFFFFFFFFFFFFFFFFFFFFFFFFFFFFFFFFF AND PUSH20 0xFFFFFFFFFFFFFFFFFFFFFFFFFFFFFFFFFFFFFFFF AND DUP2 MSTORE PUSH1 0x20 ADD SWAP1 DUP2 MSTORE PUSH1 0x20 ADD PUSH1 0x0 KECCAK256 PUSH1 0x0 DUP1 ISZERO ISZERO ISZERO ISZERO DUP2 MSTORE PUSH1 0x20 ADD SWAP1 DUP2 MSTORE PUSH1 0x20 ADD PUSH1 0x0 KECCAK256 PUSH1 0x2 ADD PUSH1 0x0 DUP3 DUP3 SLOAD PUSH2 0x14C9 SWAP2 SWAP1 PUSH2 0x5DE6 JUMP JUMPDEST SWAP3 POP POP DUP2 SWAP1 SSTORE POP DUP1 PUSH1 0x18 PUSH1 0x0 DUP3 DUP3 SLOAD PUSH2 0x14E2 SWAP2 SWAP1 PUSH2 0x5DE6 JUMP JUMPDEST SWAP3 POP POP DUP2 SWAP1 SSTORE POP PUSH2 0x15A3 PUSH1 0x2E PUSH1 0x0 DUP6 PUSH20 0xFFFFFFFFFFFFFFFFFFFFFFFFFFFFFFFFFFFFFFFF AND PUSH20 0xFFFFFFFFFFFFFFFFFFFFFFFFFFFFFFFFFFFFFFFF AND DUP2 MSTORE PUSH1 0x20 ADD SWAP1 DUP2 MSTORE PUSH1 0x20 ADD PUSH1 0x0 KECCAK256 PUSH1 0x0 PUSH1 0x1 ISZERO ISZERO ISZERO ISZERO DUP2 MSTORE PUSH1 0x20 ADD SWAP1 DUP2 MSTORE PUSH1 0x20 ADD PUSH1 0x0 KECCAK256 PUSH1 0x1 ADD SLOAD DUP7 PUSH1 0x2E PUSH1 0x0 DUP8 PUSH20 0xFFFFFFFFFFFFFFFFFFFFFFFFFFFFFFFFFFFFFFFF AND PUSH20 0xFFFFFFFFFFFFFFFFFFFFFFFFFFFFFFFFFFFFFFFF AND DUP2 MSTORE PUSH1 0x20 ADD SWAP1 DUP2 MSTORE PUSH1 0x20 ADD PUSH1 0x0 KECCAK256 PUSH1 0x0 DUP1 ISZERO ISZERO ISZERO ISZERO DUP2 MSTORE PUSH1 0x20 ADD SWAP1 DUP2 MSTORE PUSH1 0x20 ADD PUSH1 0x0 KECCAK256 PUSH1 0x2 ADD SLOAD PUSH2 0x414A JUMP JUMPDEST PUSH1 0x1A PUSH1 0x0 DUP3 DUP3 SLOAD PUSH2 0x15B4 SWAP2 SWAP1 PUSH2 0x5DE6 JUMP JUMPDEST SWAP3 POP POP DUP2 SWAP1 SSTORE POP PUSH2 0x1675 PUSH1 0x2E PUSH1 0x0 DUP6 PUSH20 0xFFFFFFFFFFFFFFFFFFFFFFFFFFFFFFFFFFFFFFFF AND PUSH20 0xFFFFFFFFFFFFFFFFFFFFFFFFFFFFFFFFFFFFFFFF AND DUP2 MSTORE PUSH1 0x20 ADD SWAP1 DUP2 MSTORE PUSH1 0x20 ADD PUSH1 0x0 KECCAK256 PUSH1 0x0 PUSH1 0x1 ISZERO ISZERO ISZERO ISZERO DUP2 MSTORE PUSH1 0x20 ADD SWAP1 DUP2 MSTORE PUSH1 0x20 ADD PUSH1 0x0 KECCAK256 PUSH1 0x1 ADD SLOAD DUP7 PUSH1 0x2E PUSH1 0x0 DUP8 PUSH20 0xFFFFFFFFFFFFFFFFFFFFFFFFFFFFFFFFFFFFFFFF AND PUSH20 0xFFFFFFFFFFFFFFFFFFFFFFFFFFFFFFFFFFFFFFFF AND DUP2 MSTORE PUSH1 0x20 ADD SWAP1 DUP2 MSTORE PUSH1 0x20 ADD PUSH1 0x0 KECCAK256 PUSH1 0x0 DUP1 ISZERO ISZERO ISZERO ISZERO DUP2 MSTORE PUSH1 0x20 ADD SWAP1 DUP2 MSTORE PUSH1 0x20 ADD PUSH1 0x0 KECCAK256 PUSH1 0x2 ADD SLOAD PUSH2 0x414A JUMP JUMPDEST PUSH1 0x2E PUSH1 0x0 DUP6 PUSH20 0xFFFFFFFFFFFFFFFFFFFFFFFFFFFFFFFFFFFFFFFF AND PUSH20 0xFFFFFFFFFFFFFFFFFFFFFFFFFFFFFFFFFFFFFFFF AND DUP2 MSTORE PUSH1 0x20 ADD SWAP1 DUP2 MSTORE PUSH1 0x20 ADD PUSH1 0x0 KECCAK256 PUSH1 0x0 PUSH1 0x1 ISZERO ISZERO ISZERO ISZERO DUP2 MSTORE PUSH1 0x20 ADD SWAP1 DUP2 MSTORE PUSH1 0x20 ADD PUSH1 0x0 KECCAK256 PUSH1 0x1 ADD PUSH1 0x0 DUP3 DUP3 SLOAD PUSH2 0x16DC SWAP2 SWAP1 PUSH2 0x5DE6 JUMP JUMPDEST SWAP3 POP POP DUP2 SWAP1 SSTORE POP DUP1 DUP3 GT DUP1 ISZERO PUSH2 0x1705 JUMPI POP PUSH1 0x0 ISZERO ISZERO PUSH1 0x29 PUSH1 0x0 SWAP1 SLOAD SWAP1 PUSH2 0x100 EXP SWAP1 DIV PUSH1 0xFF AND ISZERO ISZERO EQ JUMPDEST ISZERO PUSH2 0x178F JUMPI PUSH2 0x1721 DUP2 DUP4 PUSH2 0x1719 SWAP2 SWAP1 PUSH2 0x5DE6 JUMP JUMPDEST PUSH1 0x0 DUP1 PUSH2 0x416C JUMP JUMPDEST PUSH1 0x2F PUSH1 0x0 DUP6 PUSH20 0xFFFFFFFFFFFFFFFFFFFFFFFFFFFFFFFFFFFFFFFF AND PUSH20 0xFFFFFFFFFFFFFFFFFFFFFFFFFFFFFFFFFFFFFFFF AND DUP2 MSTORE PUSH1 0x20 ADD SWAP1 DUP2 MSTORE PUSH1 0x20 ADD PUSH1 0x0 KECCAK256 PUSH1 0x0 PUSH1 0x2 DUP2 LT PUSH2 0x1773 JUMPI PUSH2 0x1772 PUSH2 0x5F5D JUMP JUMPDEST JUMPDEST ADD PUSH1 0x0 DUP3 DUP3 SLOAD PUSH2 0x1783 SWAP2 SWAP1 PUSH2 0x5B94 JUMP JUMPDEST SWAP3 POP POP DUP2 SWAP1 SSTORE POP PUSH2 0x1AB2 JUMP JUMPDEST DUP1 DUP3 PUSH1 0x2F PUSH1 0x0 DUP7 PUSH20 0xFFFFFFFFFFFFFFFFFFFFFFFFFFFFFFFFFFFFFFFF AND PUSH20 0xFFFFFFFFFFFFFFFFFFFFFFFFFFFFFFFFFFFFFFFF AND DUP2 MSTORE PUSH1 0x20 ADD SWAP1 DUP2 MSTORE PUSH1 0x20 ADD PUSH1 0x0 KECCAK256 PUSH1 0x1 PUSH1 0x2 DUP2 LT PUSH2 0x17E3 JUMPI PUSH2 0x17E2 PUSH2 0x5F5D JUMP JUMPDEST JUMPDEST ADD SLOAD PUSH2 0x17EF SWAP2 SWAP1 PUSH2 0x5B94 JUMP JUMPDEST GT DUP1 ISZERO PUSH2 0x180F JUMPI POP PUSH1 0x1 ISZERO ISZERO PUSH1 0x29 PUSH1 0x0 SWAP1 SLOAD SWAP1 PUSH2 0x100 EXP SWAP1 DIV PUSH1 0xFF AND ISZERO ISZERO EQ JUMPDEST ISZERO PUSH2 0x18DA JUMPI DUP1 DUP3 PUSH1 0x2F PUSH1 0x0 DUP7 PUSH20 0xFFFFFFFFFFFFFFFFFFFFFFFFFFFFFFFFFFFFFFFF AND PUSH20 0xFFFFFFFFFFFFFFFFFFFFFFFFFFFFFFFFFFFFFFFF AND DUP2 MSTORE PUSH1 0x20 ADD SWAP1 DUP2 MSTORE PUSH1 0x20 ADD PUSH1 0x0 KECCAK256 PUSH1 0x1 PUSH1 0x2 DUP2 LT PUSH2 0x1868 JUMPI PUSH2 0x1867 PUSH2 0x5F5D JUMP JUMPDEST JUMPDEST ADD SLOAD PUSH2 0x1874 SWAP2 SWAP1 PUSH2 0x5B94 JUMP JUMPDEST PUSH2 0x187E SWAP2 SWAP1 PUSH2 0x5DE6 JUMP JUMPDEST PUSH1 0x2F PUSH1 0x0 DUP6 PUSH20 0xFFFFFFFFFFFFFFFFFFFFFFFFFFFFFFFFFFFFFFFF AND PUSH20 0xFFFFFFFFFFFFFFFFFFFFFFFFFFFFFFFFFFFFFFFF AND DUP2 MSTORE PUSH1 0x20 ADD SWAP1 DUP2 MSTORE PUSH1 0x20 ADD PUSH1 0x0 KECCAK256 PUSH1 0x1 PUSH1 0x2 DUP2 LT PUSH2 0x18D0 JUMPI PUSH2 0x18CF PUSH2 0x5F5D JUMP JUMPDEST JUMPDEST ADD DUP2 SWAP1 SSTORE POP PUSH2 0x1AB1 JUMP JUMPDEST PUSH2 0x19A2 PUSH1 0x2F PUSH1 0x0 DUP6 PUSH20 0xFFFFFFFFFFFFFFFFFFFFFFFFFFFFFFFFFFFFFFFF AND PUSH20 0xFFFFFFFFFFFFFFFFFFFFFFFFFFFFFFFFFFFFFFFF AND DUP2 MSTORE PUSH1 0x20 ADD SWAP1 DUP2 MSTORE PUSH1 0x20 ADD PUSH1 0x0 KECCAK256 PUSH1 0x0 PUSH1 0x2 DUP2 LT PUSH2 0x192F JUMPI PUSH2 0x192E PUSH2 0x5F5D JUMP JUMPDEST JUMPDEST ADD SLOAD PUSH1 0x0 PUSH1 0x2F PUSH1 0x0 DUP8 PUSH20 0xFFFFFFFFFFFFFFFFFFFFFFFFFFFFFFFFFFFFFFFF AND PUSH20 0xFFFFFFFFFFFFFFFFFFFFFFFFFFFFFFFFFFFFFFFF AND DUP2 MSTORE PUSH1 0x20 ADD SWAP1 DUP2 MSTORE PUSH1 0x20 ADD PUSH1 0x0 KECCAK256 PUSH1 0x1 PUSH1 0x2 DUP2 LT PUSH2 0x1985 JUMPI PUSH2 0x1984 PUSH2 0x5F5D JUMP JUMPDEST JUMPDEST ADD SLOAD DUP6 DUP6 PUSH2 0x1993 SWAP2 SWAP1 PUSH2 0x5DE6 JUMP JUMPDEST PUSH2 0x199D SWAP2 SWAP1 PUSH2 0x5DE6 JUMP JUMPDEST PUSH2 0x3CB5 JUMP JUMPDEST PUSH1 0x2F PUSH1 0x0 DUP6 PUSH20 0xFFFFFFFFFFFFFFFFFFFFFFFFFFFFFFFFFFFFFFFF AND PUSH20 0xFFFFFFFFFFFFFFFFFFFFFFFFFFFFFFFFFFFFFFFF AND DUP2 MSTORE PUSH1 0x20 ADD SWAP1 DUP2 MSTORE PUSH1 0x20 ADD PUSH1 0x0 KECCAK256 PUSH1 0x0 PUSH1 0x2 DUP2 LT PUSH2 0x19F4 JUMPI PUSH2 0x19F3 PUSH2 0x5F5D JUMP JUMPDEST JUMPDEST ADD SLOAD PUSH2 0x1A00 SWAP2 SWAP1 PUSH2 0x5DE6 JUMP JUMPDEST PUSH1 0x2F PUSH1 0x0 DUP6 PUSH20 0xFFFFFFFFFFFFFFFFFFFFFFFFFFFFFFFFFFFFFFFF AND PUSH20 0xFFFFFFFFFFFFFFFFFFFFFFFFFFFFFFFFFFFFFFFF AND DUP2 MSTORE PUSH1 0x20 ADD SWAP1 DUP2 MSTORE PUSH1 0x20 ADD PUSH1 0x0 KECCAK256 PUSH1 0x0 PUSH1 0x2 DUP2 LT PUSH2 0x1A52 JUMPI PUSH2 0x1A51 PUSH2 0x5F5D JUMP JUMPDEST JUMPDEST ADD DUP2 SWAP1 SSTORE POP PUSH1 0x0 PUSH1 0x2F PUSH1 0x0 DUP6 PUSH20 0xFFFFFFFFFFFFFFFFFFFFFFFFFFFFFFFFFFFFFFFF AND PUSH20 0xFFFFFFFFFFFFFFFFFFFFFFFFFFFFFFFFFFFFFFFF AND DUP2 MSTORE PUSH1 0x20 ADD SWAP1 DUP2 MSTORE PUSH1 0x20 ADD PUSH1 0x0 KECCAK256 PUSH1 0x1 PUSH1 0x2 DUP2 LT PUSH2 0x1AAB JUMPI PUSH2 0x1AAA PUSH2 0x5F5D JUMP JUMPDEST JUMPDEST ADD DUP2 SWAP1 SSTORE POP JUMPDEST JUMPDEST POP POP PUSH2 0x2115 JUMP JUMPDEST PUSH1 0x0 PUSH2 0x1AC8 DUP4 PUSH1 0x1 PUSH1 0x0 PUSH2 0x416C JUMP JUMPDEST SWAP1 POP PUSH1 0x0 PUSH2 0x1B8C DUP5 PUSH1 0x2E PUSH1 0x0 DUP7 PUSH20 0xFFFFFFFFFFFFFFFFFFFFFFFFFFFFFFFFFFFFFFFF AND PUSH20 0xFFFFFFFFFFFFFFFFFFFFFFFFFFFFFFFFFFFFFFFF AND DUP2 MSTORE PUSH1 0x20 ADD SWAP1 DUP2 MSTORE PUSH1 0x20 ADD PUSH1 0x0 KECCAK256 PUSH1 0x0 DUP1 ISZERO ISZERO ISZERO ISZERO DUP2 MSTORE PUSH1 0x20 ADD SWAP1 DUP2 MSTORE PUSH1 0x20 ADD PUSH1 0x0 KECCAK256 PUSH1 0x1 ADD SLOAD PUSH1 0x17 SLOAD PUSH1 0x19 SLOAD PUSH1 0x2E PUSH1 0x0 DUP10 PUSH20 0xFFFFFFFFFFFFFFFFFFFFFFFFFFFFFFFFFFFFFFFF AND PUSH20 0xFFFFFFFFFFFFFFFFFFFFFFFFFFFFFFFFFFFFFFFF AND DUP2 MSTORE PUSH1 0x20 ADD SWAP1 DUP2 MSTORE PUSH1 0x20 ADD PUSH1 0x0 KECCAK256 PUSH1 0x0 PUSH1 0x1 ISZERO ISZERO ISZERO ISZERO DUP2 MSTORE PUSH1 0x20 ADD SWAP1 DUP2 MSTORE PUSH1 0x20 ADD PUSH1 0x0 KECCAK256 PUSH1 0x2 ADD SLOAD PUSH2 0x4110 JUMP JUMPDEST SWAP1 POP DUP4 PUSH1 0x2E PUSH1 0x0 DUP6 PUSH20 0xFFFFFFFFFFFFFFFFFFFFFFFFFFFFFFFFFFFFFFFF AND PUSH20 0xFFFFFFFFFFFFFFFFFFFFFFFFFFFFFFFFFFFFFFFF AND DUP2 MSTORE PUSH1 0x20 ADD SWAP1 DUP2 MSTORE PUSH1 0x20 ADD PUSH1 0x0 KECCAK256 PUSH1 0x0 PUSH1 0x1 ISZERO ISZERO ISZERO ISZERO DUP2 MSTORE PUSH1 0x20 ADD SWAP1 DUP2 MSTORE PUSH1 0x20 ADD PUSH1 0x0 KECCAK256 PUSH1 0x2 ADD PUSH1 0x0 DUP3 DUP3 SLOAD PUSH2 0x1BF6 SWAP2 SWAP1 PUSH2 0x5DE6 JUMP JUMPDEST SWAP3 POP POP DUP2 SWAP1 SSTORE POP DUP1 PUSH1 0x17 PUSH1 0x0 DUP3 DUP3 SLOAD PUSH2 0x1C0F SWAP2 SWAP1 PUSH2 0x5DE6 JUMP JUMPDEST SWAP3 POP POP DUP2 SWAP1 SSTORE POP PUSH2 0x1CD0 PUSH1 0x2E PUSH1 0x0 DUP6 PUSH20 0xFFFFFFFFFFFFFFFFFFFFFFFFFFFFFFFFFFFFFFFF AND PUSH20 0xFFFFFFFFFFFFFFFFFFFFFFFFFFFFFFFFFFFFFFFF AND DUP2 MSTORE PUSH1 0x20 ADD SWAP1 DUP2 MSTORE PUSH1 0x20 ADD PUSH1 0x0 KECCAK256 PUSH1 0x0 DUP1 ISZERO ISZERO ISZERO ISZERO DUP2 MSTORE PUSH1 0x20 ADD SWAP1 DUP2 MSTORE PUSH1 0x20 ADD PUSH1 0x0 KECCAK256 PUSH1 0x1 ADD SLOAD DUP6 PUSH1 0x2E PUSH1 0x0 DUP8 PUSH20 0xFFFFFFFFFFFFFFFFFFFFFFFFFFFFFFFFFFFFFFFF AND PUSH20 0xFFFFFFFFFFFFFFFFFFFFFFFFFFFFFFFFFFFFFFFF AND DUP2 MSTORE PUSH1 0x20 ADD SWAP1 DUP2 MSTORE PUSH1 0x20 ADD PUSH1 0x0 KECCAK256 PUSH1 0x0 PUSH1 0x1 ISZERO ISZERO ISZERO ISZERO DUP2 MSTORE PUSH1 0x20 ADD SWAP1 DUP2 MSTORE PUSH1 0x20 ADD PUSH1 0x0 KECCAK256 PUSH1 0x2 ADD SLOAD PUSH2 0x414A JUMP JUMPDEST PUSH1 0x19 PUSH1 0x0 DUP3 DUP3 SLOAD PUSH2 0x1CE1 SWAP2 SWAP1 PUSH2 0x5DE6 JUMP JUMPDEST SWAP3 POP POP DUP2 SWAP1 SSTORE POP PUSH2 0x1DA2 PUSH1 0x2E PUSH1 0x0 DUP6 PUSH20 0xFFFFFFFFFFFFFFFFFFFFFFFFFFFFFFFFFFFFFFFF AND PUSH20 0xFFFFFFFFFFFFFFFFFFFFFFFFFFFFFFFFFFFFFFFF AND DUP2 MSTORE PUSH1 0x20 ADD SWAP1 DUP2 MSTORE PUSH1 0x20 ADD PUSH1 0x0 KECCAK256 PUSH1 0x0 DUP1 ISZERO ISZERO ISZERO ISZERO DUP2 MSTORE PUSH1 0x20 ADD SWAP1 DUP2 MSTORE PUSH1 0x20 ADD PUSH1 0x0 KECCAK256 PUSH1 0x1 ADD SLOAD DUP6 PUSH1 0x2E PUSH1 0x0 DUP8 PUSH20 0xFFFFFFFFFFFFFFFFFFFFFFFFFFFFFFFFFFFFFFFF AND PUSH20 0xFFFFFFFFFFFFFFFFFFFFFFFFFFFFFFFFFFFFFFFF AND DUP2 MSTORE PUSH1 0x20 ADD SWAP1 DUP2 MSTORE PUSH1 0x20 ADD PUSH1 0x0 KECCAK256 PUSH1 0x0 PUSH1 0x1 ISZERO ISZERO ISZERO ISZERO DUP2 MSTORE PUSH1 0x20 ADD SWAP1 DUP2 MSTORE PUSH1 0x20 ADD PUSH1 0x0 KECCAK256 PUSH1 0x2 ADD SLOAD PUSH2 0x414A JUMP JUMPDEST PUSH1 0x2E PUSH1 0x0 DUP6 PUSH20 0xFFFFFFFFFFFFFFFFFFFFFFFFFFFFFFFFFFFFFFFF AND PUSH20 0xFFFFFFFFFFFFFFFFFFFFFFFFFFFFFFFFFFFFFFFF AND DUP2 MSTORE PUSH1 0x20 ADD SWAP1 DUP2 MSTORE PUSH1 0x20 ADD PUSH1 0x0 KECCAK256 PUSH1 0x0 DUP1 ISZERO ISZERO ISZERO ISZERO DUP2 MSTORE PUSH1 0x20 ADD SWAP1 DUP2 MSTORE PUSH1 0x20 ADD PUSH1 0x0 KECCAK256 PUSH1 0x1 ADD PUSH1 0x0 DUP3 DUP3 SLOAD PUSH2 0x1E08 SWAP2 SWAP1 PUSH2 0x5DE6 JUMP JUMPDEST SWAP3 POP POP DUP2 SWAP1 SSTORE POP DUP1 DUP3 PUSH1 0x2F PUSH1 0x0 DUP7 PUSH20 0xFFFFFFFFFFFFFFFFFFFFFFFFFFFFFFFFFFFFFFFF AND PUSH20 0xFFFFFFFFFFFFFFFFFFFFFFFFFFFFFFFFFFFFFFFF AND DUP2 MSTORE PUSH1 0x20 ADD SWAP1 DUP2 MSTORE PUSH1 0x20 ADD PUSH1 0x0 KECCAK256 PUSH1 0x0 PUSH1 0x2 DUP2 LT PUSH2 0x1E63 JUMPI PUSH2 0x1E62 PUSH2 0x5F5D JUMP JUMPDEST JUMPDEST ADD SLOAD PUSH2 0x1E6F SWAP2 SWAP1 PUSH2 0x5B94 JUMP JUMPDEST GT ISZERO PUSH2 0x1F3B JUMPI DUP1 DUP3 PUSH1 0x2F PUSH1 0x0 DUP7 PUSH20 0xFFFFFFFFFFFFFFFFFFFFFFFFFFFFFFFFFFFFFFFF AND PUSH20 0xFFFFFFFFFFFFFFFFFFFFFFFFFFFFFFFFFFFFFFFF AND DUP2 MSTORE PUSH1 0x20 ADD SWAP1 DUP2 MSTORE PUSH1 0x20 ADD PUSH1 0x0 KECCAK256 PUSH1 0x0 PUSH1 0x2 DUP2 LT PUSH2 0x1EC9 JUMPI PUSH2 0x1EC8 PUSH2 0x5F5D JUMP JUMPDEST JUMPDEST ADD SLOAD PUSH2 0x1ED5 SWAP2 SWAP1 PUSH2 0x5B94 JUMP JUMPDEST PUSH2 0x1EDF SWAP2 SWAP1 PUSH2 0x5DE6 JUMP JUMPDEST PUSH1 0x2F PUSH1 0x0 DUP6 PUSH20 0xFFFFFFFFFFFFFFFFFFFFFFFFFFFFFFFFFFFFFFFF AND PUSH20 0xFFFFFFFFFFFFFFFFFFFFFFFFFFFFFFFFFFFFFFFF AND DUP2 MSTORE PUSH1 0x20 ADD SWAP1 DUP2 MSTORE PUSH1 0x20 ADD PUSH1 0x0 KECCAK256 PUSH1 0x0 PUSH1 0x2 DUP2 LT PUSH2 0x1F31 JUMPI PUSH2 0x1F30 PUSH2 0x5F5D JUMP JUMPDEST JUMPDEST ADD DUP2 SWAP1 SSTORE POP PUSH2 0x2112 JUMP JUMPDEST PUSH2 0x2003 PUSH1 0x2F PUSH1 0x0 DUP6 PUSH20 0xFFFFFFFFFFFFFFFFFFFFFFFFFFFFFFFFFFFFFFFF AND PUSH20 0xFFFFFFFFFFFFFFFFFFFFFFFFFFFFFFFFFFFFFFFF AND DUP2 MSTORE PUSH1 0x20 ADD SWAP1 DUP2 MSTORE PUSH1 0x20 ADD PUSH1 0x0 KECCAK256 PUSH1 0x1 PUSH1 0x2 DUP2 LT PUSH2 0x1F90 JUMPI PUSH2 0x1F8F PUSH2 0x5F5D JUMP JUMPDEST JUMPDEST ADD SLOAD PUSH1 0x0 PUSH1 0x2F PUSH1 0x0 DUP8 PUSH20 0xFFFFFFFFFFFFFFFFFFFFFFFFFFFFFFFFFFFFFFFF AND PUSH20 0xFFFFFFFFFFFFFFFFFFFFFFFFFFFFFFFFFFFFFFFF AND DUP2 MSTORE PUSH1 0x20 ADD SWAP1 DUP2 MSTORE PUSH1 0x20 ADD PUSH1 0x0 KECCAK256 PUSH1 0x0 PUSH1 0x2 DUP2 LT PUSH2 0x1FE6 JUMPI PUSH2 0x1FE5 PUSH2 0x5F5D JUMP JUMPDEST JUMPDEST ADD SLOAD DUP6 DUP6 PUSH2 0x1FF4 SWAP2 SWAP1 PUSH2 0x5DE6 JUMP JUMPDEST PUSH2 0x1FFE SWAP2 SWAP1 PUSH2 0x5DE6 JUMP JUMPDEST PUSH2 0x416C JUMP JUMPDEST PUSH1 0x2F PUSH1 0x0 DUP6 PUSH20 0xFFFFFFFFFFFFFFFFFFFFFFFFFFFFFFFFFFFFFFFF AND PUSH20 0xFFFFFFFFFFFFFFFFFFFFFFFFFFFFFFFFFFFFFFFF AND DUP2 MSTORE PUSH1 0x20 ADD SWAP1 DUP2 MSTORE PUSH1 0x20 ADD PUSH1 0x0 KECCAK256 PUSH1 0x1 PUSH1 0x2 DUP2 LT PUSH2 0x2055 JUMPI PUSH2 0x2054 PUSH2 0x5F5D JUMP JUMPDEST JUMPDEST ADD SLOAD PUSH2 0x2061 SWAP2 SWAP1 PUSH2 0x5DE6 JUMP JUMPDEST PUSH1 0x2F PUSH1 0x0 DUP6 PUSH20 0xFFFFFFFFFFFFFFFFFFFFFFFFFFFFFFFFFFFFFFFF AND PUSH20 0xFFFFFFFFFFFFFFFFFFFFFFFFFFFFFFFFFFFFFFFF AND DUP2 MSTORE PUSH1 0x20 ADD SWAP1 DUP2 MSTORE PUSH1 0x20 ADD PUSH1 0x0 KECCAK256 PUSH1 0x1 PUSH1 0x2 DUP2 LT PUSH2 0x20B3 JUMPI PUSH2 0x20B2 PUSH2 0x5F5D JUMP JUMPDEST JUMPDEST ADD DUP2 SWAP1 SSTORE POP PUSH1 0x0 PUSH1 0x2F PUSH1 0x0 DUP6 PUSH20 0xFFFFFFFFFFFFFFFFFFFFFFFFFFFFFFFFFFFFFFFF AND PUSH20 0xFFFFFFFFFFFFFFFFFFFFFFFFFFFFFFFFFFFFFFFF AND DUP2 MSTORE PUSH1 0x20 ADD SWAP1 DUP2 MSTORE PUSH1 0x20 ADD PUSH1 0x0 KECCAK256 PUSH1 0x0 PUSH1 0x2 DUP2 LT PUSH2 0x210C JUMPI PUSH2 0x210B PUSH2 0x5F5D JUMP JUMPDEST JUMPDEST ADD DUP2 SWAP1 SSTORE POP JUMPDEST POP POP JUMPDEST PUSH1 0x1 PUSH1 0x2B DUP2 SWAP1 SSTORE POP POP POP POP JUMP JUMPDEST PUSH1 0x14 SLOAD DUP2 JUMP JUMPDEST PUSH1 0x1D SLOAD DUP2 JUMP JUMPDEST PUSH1 0x0 PUSH1 0x1 PUSH1 0x2B SLOAD EQ PUSH2 0x2175 JUMPI PUSH1 0x40 MLOAD PUSH32 0x8C379A000000000000000000000000000000000000000000000000000000000 DUP2 MSTORE PUSH1 0x4 ADD PUSH2 0x216C SWAP1 PUSH2 0x5AD8 JUMP JUMPDEST PUSH1 0x40 MLOAD DUP1 SWAP2 SUB SWAP1 REVERT JUMPDEST PUSH1 0x0 PUSH1 0x2B DUP2 SWAP1 SSTORE POP PUSH2 0x2199 PUSH1 0xB SLOAD DUP6 PUSH1 0x14 SLOAD PUSH2 0x2191 SWAP2 SWAP1 PUSH2 0x5B94 JUMP JUMPDEST PUSH1 0x14 SLOAD PUSH2 0x414A JUMP JUMPDEST PUSH1 0xB DUP2 SWAP1 SSTORE POP PUSH2 0x21BB PUSH1 0xC SLOAD DUP5 PUSH1 0x13 SLOAD PUSH2 0x21B3 SWAP2 SWAP1 PUSH2 0x5B94 JUMP JUMPDEST PUSH1 0x13 SLOAD PUSH2 0x414A JUMP JUMPDEST PUSH1 0xC DUP2 SWAP1 SSTORE POP PUSH2 0x21D0 PUSH1 0x25 SLOAD DUP6 PUSH1 0x14 SLOAD PUSH2 0x414A JUMP JUMPDEST SWAP1 POP DUP1 PUSH1 0x25 SLOAD PUSH2 0x21E0 SWAP2 SWAP1 PUSH2 0x5B94 JUMP JUMPDEST PUSH1 0x25 DUP2 SWAP1 SSTORE POP DUP4 PUSH1 0x14 SLOAD PUSH2 0x21F4 SWAP2 SWAP1 PUSH2 0x5B94 JUMP JUMPDEST PUSH1 0x14 DUP2 SWAP1 SSTORE POP DUP3 PUSH1 0x13 SLOAD PUSH2 0x2208 SWAP2 SWAP1 PUSH2 0x5B94 JUMP JUMPDEST PUSH1 0x13 DUP2 SWAP1 SSTORE POP PUSH2 0x2218 DUP3 DUP3 PUSH2 0x45C7 JUMP JUMPDEST PUSH2 0x2220 PUSH2 0x46E1 JUMP JUMPDEST PUSH1 0x1 PUSH1 0x2B DUP2 SWAP1 SSTORE POP SWAP4 SWAP3 POP POP POP JUMP JUMPDEST PUSH1 0x0 DUP1 PUSH1 0x1 PUSH1 0x2B SLOAD EQ PUSH2 0x2277 JUMPI PUSH1 0x40 MLOAD PUSH32 0x8C379A000000000000000000000000000000000000000000000000000000000 DUP2 MSTORE PUSH1 0x4 ADD PUSH2 0x226E SWAP1 PUSH2 0x5AD8 JUMP JUMPDEST PUSH1 0x40 MLOAD DUP1 SWAP2 SUB SWAP1 REVERT JUMPDEST PUSH1 0x0 PUSH1 0x2B DUP2 SWAP1 SSTORE POP PUSH2 0x228E DUP5 PUSH1 0x14 SLOAD PUSH1 0x25 SLOAD PUSH2 0x414A JUMP JUMPDEST SWAP2 POP PUSH2 0x229F DUP5 PUSH1 0x13 SLOAD PUSH1 0x25 SLOAD PUSH2 0x414A JUMP JUMPDEST SWAP1 POP PUSH2 0x22BD PUSH1 0xB SLOAD DUP4 PUSH1 0x14 SLOAD PUSH2 0x22B5 SWAP2 SWAP1 PUSH2 0x5DE6 JUMP JUMPDEST PUSH1 0x14 SLOAD PUSH2 0x414A JUMP JUMPDEST PUSH1 0xB DUP2 SWAP1 SSTORE POP PUSH2 0x22DF PUSH1 0xC SLOAD DUP3 PUSH1 0x13 SLOAD PUSH2 0x22D7 SWAP2 SWAP1 PUSH2 0x5DE6 JUMP JUMPDEST PUSH1 0x13 SLOAD PUSH2 0x414A JUMP JUMPDEST PUSH1 0xC DUP2 SWAP1 SSTORE POP DUP2 PUSH1 0x14 SLOAD PUSH2 0x22F3 SWAP2 SWAP1 PUSH2 0x5DE6 JUMP JUMPDEST PUSH1 0x14 DUP2 SWAP1 SSTORE POP DUP1 PUSH1 0x13 SLOAD PUSH2 0x2307 SWAP2 SWAP1 PUSH2 0x5DE6 JUMP JUMPDEST PUSH1 0x13 DUP2 SWAP1 SSTORE POP DUP4 PUSH1 0x25 SLOAD PUSH2 0x231B SWAP2 SWAP1 PUSH2 0x5DE6 JUMP JUMPDEST PUSH1 0x25 DUP2 SWAP1 SSTORE POP PUSH2 0x232B ADDRESS DUP6 PUSH2 0x4747 JUMP JUMPDEST PUSH2 0x2358 PUSH1 0x22 PUSH1 0x0 SWAP1 SLOAD SWAP1 PUSH2 0x100 EXP SWAP1 DIV PUSH20 0xFFFFFFFFFFFFFFFFFFFFFFFFFFFFFFFFFFFFFFFF AND DUP5 DUP5 PUSH2 0x4861 JUMP JUMPDEST PUSH2 0x2385 PUSH1 0x23 PUSH1 0x0 SWAP1 SLOAD SWAP1 PUSH2 0x100 EXP SWAP1 DIV PUSH20 0xFFFFFFFFFFFFFFFFFFFFFFFFFFFFFFFFFFFFFFFF AND DUP5 DUP4 PUSH2 0x4861 JUMP JUMPDEST PUSH2 0x238D PUSH2 0x46E1 JUMP JUMPDEST PUSH1 0x1 PUSH1 0x2B DUP2 SWAP1 SSTORE POP SWAP3 POP SWAP3 SWAP1 POP JUMP JUMPDEST PUSH1 0x19 SLOAD DUP2 JUMP JUMPDEST PUSH1 0x1 PUSH1 0x20 MSTORE DUP1 PUSH1 0x0 MSTORE PUSH1 0x40 PUSH1 0x0 KECCAK256 PUSH1 0x0 SWAP2 POP SWAP1 POP SLOAD DUP2 JUMP JUMPDEST PUSH1 0x12 SLOAD DUP2 JUMP JUMPDEST PUSH1 0x28 SLOAD DUP2 JUMP JUMPDEST PUSH1 0x2E PUSH1 0x20 MSTORE DUP2 PUSH1 0x0 MSTORE PUSH1 0x40 PUSH1 0x0 KECCAK256 PUSH1 0x20 MSTORE DUP1 PUSH1 0x0 MSTORE PUSH1 0x40 PUSH1 0x0 KECCAK256 PUSH1 0x0 SWAP2 POP SWAP2 POP POP DUP1 PUSH1 0x0 ADD PUSH1 0x0 SWAP1 SLOAD SWAP1 PUSH2 0x100 EXP SWAP1 DIV PUSH20 0xFFFFFFFFFFFFFFFFFFFFFFFFFFFFFFFFFFFFFFFF AND SWAP1 DUP1 PUSH1 0x0 ADD PUSH1 0x14 SWAP1 SLOAD SWAP1 PUSH2 0x100 EXP SWAP1 DIV PUSH1 0xFF AND SWAP1 DUP1 PUSH1 0x1 ADD SLOAD SWAP1 DUP1 PUSH1 0x2 ADD SLOAD SWAP1 POP DUP5 JUMP JUMPDEST PUSH1 0x4 PUSH1 0x20 MSTORE DUP1 PUSH1 0x0 MSTORE PUSH1 0x40 PUSH1 0x0 KECCAK256 PUSH1 0x0 SWAP2 POP SWAP1 POP SLOAD DUP2 JUMP JUMPDEST PUSH1 0x20 SLOAD DUP2 JUMP JUMPDEST PUSH1 0xA SLOAD DUP2 JUMP JUMPDEST PUSH1 0x6 SLOAD DUP2 JUMP JUMPDEST PUSH1 0xB SLOAD DUP2 JUMP JUMPDEST PUSH1 0x26 SLOAD DUP2 JUMP JUMPDEST PUSH1 0x0 PUSH1 0x23 PUSH1 0x0 SWAP1 SLOAD SWAP1 PUSH2 0x100 EXP SWAP1 DIV PUSH20 0xFFFFFFFFFFFFFFFFFFFFFFFFFFFFFFFFFFFFFFFF AND PUSH20 0xFFFFFFFFFFFFFFFFFFFFFFFFFFFFFFFFFFFFFFFF AND DUP4 PUSH20 0xFFFFFFFFFFFFFFFFFFFFFFFFFFFFFFFFFFFFFFFF AND EQ DUP1 ISZERO PUSH2 0x24D8 JUMPI POP PUSH1 0x1 ISZERO ISZERO PUSH1 0x29 PUSH1 0x0 SWAP1 SLOAD SWAP1 PUSH2 0x100 EXP SWAP1 DIV PUSH1 0xFF AND ISZERO ISZERO EQ JUMPDEST ISZERO PUSH2 0x2632 JUMPI PUSH1 0x2C PUSH1 0x1 PUSH1 0x2 DUP2 LT PUSH2 0x24F2 JUMPI PUSH2 0x24F1 PUSH2 0x5F5D JUMP JUMPDEST JUMPDEST ADD SLOAD PUSH1 0x13 SLOAD DUP5 PUSH20 0xFFFFFFFFFFFFFFFFFFFFFFFFFFFFFFFFFFFFFFFF AND PUSH4 0x70A08231 ADDRESS PUSH1 0x40 MLOAD DUP3 PUSH4 0xFFFFFFFF AND PUSH1 0xE0 SHL DUP2 MSTORE PUSH1 0x4 ADD PUSH2 0x2530 SWAP2 SWAP1 PUSH2 0x58B1 JUMP JUMPDEST PUSH1 0x20 PUSH1 0x40 MLOAD DUP1 DUP4 SUB DUP2 DUP7 DUP1 EXTCODESIZE ISZERO DUP1 ISZERO PUSH2 0x2548 JUMPI PUSH1 0x0 DUP1 REVERT JUMPDEST POP GAS STATICCALL ISZERO DUP1 ISZERO PUSH2 0x255C JUMPI RETURNDATASIZE PUSH1 0x0 DUP1 RETURNDATACOPY RETURNDATASIZE PUSH1 0x0 REVERT JUMPDEST POP POP POP POP PUSH1 0x40 MLOAD RETURNDATASIZE PUSH1 0x1F NOT PUSH1 0x1F DUP3 ADD AND DUP3 ADD DUP1 PUSH1 0x40 MSTORE POP DUP2 ADD SWAP1 PUSH2 0x2580 SWAP2 SWAP1 PUSH2 0x557B JUMP JUMPDEST PUSH2 0x258A SWAP2 SWAP1 PUSH2 0x5DE6 JUMP JUMPDEST PUSH2 0x2594 SWAP2 SWAP1 PUSH2 0x5DE6 JUMP JUMPDEST SWAP1 POP DUP1 PUSH1 0x2F PUSH1 0x0 DUP5 PUSH20 0xFFFFFFFFFFFFFFFFFFFFFFFFFFFFFFFFFFFFFFFF AND PUSH20 0xFFFFFFFFFFFFFFFFFFFFFFFFFFFFFFFFFFFFFFFF AND DUP2 MSTORE PUSH1 0x20 ADD SWAP1 DUP2 MSTORE PUSH1 0x20 ADD PUSH1 0x0 KECCAK256 PUSH1 0x1 PUSH1 0x2 DUP2 LT PUSH2 0x25E9 JUMPI PUSH2 0x25E8 PUSH2 0x5F5D JUMP JUMPDEST JUMPDEST ADD PUSH1 0x0 DUP3 DUP3 SLOAD PUSH2 0x25F9 SWAP2 SWAP1 PUSH2 0x5B94 JUMP JUMPDEST SWAP3 POP POP DUP2 SWAP1 SSTORE POP DUP1 PUSH1 0x2C PUSH1 0x1 PUSH1 0x2 DUP2 LT PUSH2 0x2616 JUMPI PUSH2 0x2615 PUSH2 0x5F5D JUMP JUMPDEST JUMPDEST ADD PUSH1 0x0 DUP3 DUP3 SLOAD PUSH2 0x2626 SWAP2 SWAP1 PUSH2 0x5B94 JUMP JUMPDEST SWAP3 POP POP DUP2 SWAP1 SSTORE POP PUSH2 0x2783 JUMP JUMPDEST PUSH1 0x2C PUSH1 0x0 PUSH1 0x2 DUP2 LT PUSH2 0x2647 JUMPI PUSH2 0x2646 PUSH2 0x5F5D JUMP JUMPDEST JUMPDEST ADD SLOAD PUSH1 0x14 SLOAD DUP5 PUSH20 0xFFFFFFFFFFFFFFFFFFFFFFFFFFFFFFFFFFFFFFFF AND PUSH4 0x70A08231 ADDRESS PUSH1 0x40 MLOAD DUP3 PUSH4 0xFFFFFFFF AND PUSH1 0xE0 SHL DUP2 MSTORE PUSH1 0x4 ADD PUSH2 0x2685 SWAP2 SWAP1 PUSH2 0x58B1 JUMP JUMPDEST PUSH1 0x20 PUSH1 0x40 MLOAD DUP1 DUP4 SUB DUP2 DUP7 DUP1 EXTCODESIZE ISZERO DUP1 ISZERO PUSH2 0x269D JUMPI PUSH1 0x0 DUP1 REVERT JUMPDEST POP GAS STATICCALL ISZERO DUP1 ISZERO PUSH2 0x26B1 JUMPI RETURNDATASIZE PUSH1 0x0 DUP1 RETURNDATACOPY RETURNDATASIZE PUSH1 0x0 REVERT JUMPDEST POP POP POP POP PUSH1 0x40 MLOAD RETURNDATASIZE PUSH1 0x1F NOT PUSH1 0x1F DUP3 ADD AND DUP3 ADD DUP1 PUSH1 0x40 MSTORE POP DUP2 ADD SWAP1 PUSH2 0x26D5 SWAP2 SWAP1 PUSH2 0x557B JUMP JUMPDEST PUSH2 0x26DF SWAP2 SWAP1 PUSH2 0x5DE6 JUMP JUMPDEST PUSH2 0x26E9 SWAP2 SWAP1 PUSH2 0x5DE6 JUMP JUMPDEST SWAP1 POP DUP1 PUSH1 0x2F PUSH1 0x0 DUP5 PUSH20 0xFFFFFFFFFFFFFFFFFFFFFFFFFFFFFFFFFFFFFFFF AND PUSH20 0xFFFFFFFFFFFFFFFFFFFFFFFFFFFFFFFFFFFFFFFF AND DUP2 MSTORE PUSH1 0x20 ADD SWAP1 DUP2 MSTORE PUSH1 0x20 ADD PUSH1 0x0 KECCAK256 PUSH1 0x0 PUSH1 0x2 DUP2 LT PUSH2 0x273E JUMPI PUSH2 0x273D PUSH2 0x5F5D JUMP JUMPDEST JUMPDEST ADD PUSH1 0x0 DUP3 DUP3 SLOAD PUSH2 0x274E SWAP2 SWAP1 PUSH2 0x5B94 JUMP JUMPDEST SWAP3 POP POP DUP2 SWAP1 SSTORE POP DUP1 PUSH1 0x2C PUSH1 0x0 PUSH1 0x2 DUP2 LT PUSH2 0x276B JUMPI PUSH2 0x276A PUSH2 0x5F5D JUMP JUMPDEST JUMPDEST ADD PUSH1 0x0 DUP3 DUP3 SLOAD PUSH2 0x277B SWAP2 SWAP1 PUSH2 0x5B94 JUMP JUMPDEST SWAP3 POP POP DUP2 SWAP1 SSTORE POP JUMPDEST POP POP POP JUMP JUMPDEST PUSH1 0x9 SLOAD DUP2 JUMP JUMPDEST PUSH1 0x1 PUSH1 0x2B SLOAD EQ PUSH2 0x27D3 JUMPI PUSH1 0x40 MLOAD PUSH32 0x8C379A000000000000000000000000000000000000000000000000000000000 DUP2 MSTORE PUSH1 0x4 ADD PUSH2 0x27CA SWAP1 PUSH2 0x5AD8 JUMP JUMPDEST PUSH1 0x40 MLOAD DUP1 SWAP2 SUB SWAP1 REVERT JUMPDEST PUSH1 0x0 PUSH1 0x2B DUP2 SWAP1 SSTORE POP PUSH1 0x0 DUP4 DUP6 PUSH2 0x27E9 SWAP2 SWAP1 PUSH2 0x5D8C JUMP JUMPDEST EQ DUP1 ISZERO PUSH2 0x2801 JUMPI POP PUSH1 0x0 DUP4 DUP6 PUSH2 0x27FF SWAP2 SWAP1 PUSH2 0x5B94 JUMP JUMPDEST GT JUMPDEST PUSH2 0x280A JUMPI PUSH1 0x0 DUP1 REVERT JUMPDEST PUSH2 0x2812 PUSH2 0x3B49 JUMP JUMPDEST PUSH2 0x2862 PUSH2 0x281E DUP3 PUSH2 0x3995 JUMP JUMPDEST PUSH1 0x28 SLOAD DUP7 PUSH2 0x282C SWAP2 SWAP1 PUSH2 0x5D8C JUMP JUMPDEST PUSH2 0x2836 SWAP2 SWAP1 PUSH2 0x5B94 JUMP JUMPDEST PUSH2 0x283F DUP4 PUSH2 0x3995 JUMP JUMPDEST PUSH2 0x2853 DUP7 PUSH1 0x15 SLOAD PUSH1 0xD SLOAD PUSH1 0xE SLOAD PUSH1 0x1 PUSH2 0x4110 JUMP JUMPDEST PUSH2 0x285D SWAP2 SWAP1 PUSH2 0x5B94 JUMP JUMPDEST PUSH2 0x49EB JUMP JUMPDEST PUSH1 0x24 SLOAD PUSH2 0x286E DUP4 PUSH2 0x38A1 JUMP JUMPDEST PUSH2 0x2877 DUP5 PUSH2 0x3995 JUMP JUMPDEST PUSH2 0x2880 DUP6 PUSH2 0x3A7A JUMP JUMPDEST PUSH2 0x288A SWAP2 SWAP1 PUSH2 0x5B94 JUMP JUMPDEST PUSH2 0x2894 SWAP2 SWAP1 PUSH2 0x5DE6 JUMP JUMPDEST PUSH2 0x289E SWAP2 SWAP1 PUSH2 0x5BEA JUMP JUMPDEST GT PUSH2 0x28A8 JUMPI PUSH1 0x0 DUP1 REVERT JUMPDEST PUSH1 0x0 DUP1 PUSH1 0x1 ISZERO ISZERO DUP5 ISZERO ISZERO EQ ISZERO PUSH2 0x2A16 JUMPI PUSH1 0x0 DUP7 GT ISZERO PUSH2 0x28D8 JUMPI PUSH2 0x28CE DUP7 PUSH1 0x1 PUSH1 0x0 PUSH2 0x3CB5 JUMP JUMPDEST SWAP2 POP DUP6 SWAP1 POP PUSH2 0x28EB JUMP JUMPDEST DUP5 SWAP2 POP PUSH2 0x28E8 PUSH1 0x0 PUSH1 0x1 DUP8 PUSH2 0x3CB5 JUMP JUMPDEST SWAP1 POP JUMPDEST PUSH2 0x28FA DUP2 PUSH1 0x19 SLOAD PUSH1 0x17 SLOAD PUSH2 0x414A JUMP JUMPDEST PUSH1 0x2E PUSH1 0x0 DUP6 PUSH20 0xFFFFFFFFFFFFFFFFFFFFFFFFFFFFFFFFFFFFFFFF AND PUSH20 0xFFFFFFFFFFFFFFFFFFFFFFFFFFFFFFFFFFFFFFFF AND DUP2 MSTORE PUSH1 0x20 ADD SWAP1 DUP2 MSTORE PUSH1 0x20 ADD PUSH1 0x0 KECCAK256 PUSH1 0x0 DUP1 ISZERO ISZERO ISZERO ISZERO DUP2 MSTORE PUSH1 0x20 ADD SWAP1 DUP2 MSTORE PUSH1 0x20 ADD PUSH1 0x0 KECCAK256 PUSH1 0x1 ADD PUSH1 0x0 DUP3 DUP3 SLOAD PUSH2 0x2960 SWAP2 SWAP1 PUSH2 0x5B94 JUMP JUMPDEST SWAP3 POP POP DUP2 SWAP1 SSTORE POP DUP2 PUSH1 0x2E PUSH1 0x0 DUP6 PUSH20 0xFFFFFFFFFFFFFFFFFFFFFFFFFFFFFFFFFFFFFFFF AND PUSH20 0xFFFFFFFFFFFFFFFFFFFFFFFFFFFFFFFFFFFFFFFF AND DUP2 MSTORE PUSH1 0x20 ADD SWAP1 DUP2 MSTORE PUSH1 0x20 ADD PUSH1 0x0 KECCAK256 PUSH1 0x0 PUSH1 0x1 ISZERO ISZERO ISZERO ISZERO DUP2 MSTORE PUSH1 0x20 ADD SWAP1 DUP2 MSTORE PUSH1 0x20 ADD PUSH1 0x0 KECCAK256 PUSH1 0x2 ADD PUSH1 0x0 DUP3 DUP3 SLOAD PUSH2 0x29CF SWAP2 SWAP1 PUSH2 0x5B94 JUMP JUMPDEST SWAP3 POP POP DUP2 SWAP1 SSTORE POP PUSH1 0x19 SLOAD PUSH2 0x29E8 DUP3 PUSH1 0x19 SLOAD PUSH1 0x17 SLOAD PUSH2 0x414A JUMP JUMPDEST PUSH2 0x29F2 SWAP2 SWAP1 PUSH2 0x5B94 JUMP JUMPDEST PUSH1 0x19 DUP2 SWAP1 SSTORE POP DUP1 PUSH1 0x17 PUSH1 0x0 DUP3 DUP3 SLOAD PUSH2 0x2A0A SWAP2 SWAP1 PUSH2 0x5B94 JUMP JUMPDEST SWAP3 POP POP DUP2 SWAP1 SSTORE POP PUSH2 0x2B70 JUMP JUMPDEST PUSH1 0x0 DUP7 GT ISZERO PUSH2 0x2A36 JUMPI DUP6 SWAP2 POP PUSH2 0x2A2F PUSH1 0x0 PUSH1 0x1 DUP9 PUSH2 0x416C JUMP JUMPDEST SWAP1 POP PUSH2 0x2A49 JUMP JUMPDEST PUSH2 0x2A43 DUP6 PUSH1 0x1 PUSH1 0x0 PUSH2 0x416C JUMP JUMPDEST SWAP2 POP DUP5 SWAP1 POP JUMPDEST PUSH2 0x2A58 DUP2 PUSH1 0x1A SLOAD PUSH1 0x18 SLOAD PUSH2 0x414A JUMP JUMPDEST PUSH1 0x2E PUSH1 0x0 DUP6 PUSH20 0xFFFFFFFFFFFFFFFFFFFFFFFFFFFFFFFFFFFFFFFF AND PUSH20 0xFFFFFFFFFFFFFFFFFFFFFFFFFFFFFFFFFFFFFFFF AND DUP2 MSTORE PUSH1 0x20 ADD SWAP1 DUP2 MSTORE PUSH1 0x20 ADD PUSH1 0x0 KECCAK256 PUSH1 0x0 PUSH1 0x1 ISZERO ISZERO ISZERO ISZERO DUP2 MSTORE PUSH1 0x20 ADD SWAP1 DUP2 MSTORE PUSH1 0x20 ADD PUSH1 0x0 KECCAK256 PUSH1 0x1 ADD PUSH1 0x0 DUP3 DUP3 SLOAD PUSH2 0x2ABF SWAP2 SWAP1 PUSH2 0x5B94 JUMP JUMPDEST SWAP3 POP POP DUP2 SWAP1 SSTORE POP DUP2 PUSH1 0x2E PUSH1 0x0 DUP6 PUSH20 0xFFFFFFFFFFFFFFFFFFFFFFFFFFFFFFFFFFFFFFFF AND PUSH20 0xFFFFFFFFFFFFFFFFFFFFFFFFFFFFFFFFFFFFFFFF AND DUP2 MSTORE PUSH1 0x20 ADD SWAP1 DUP2 MSTORE PUSH1 0x20 ADD PUSH1 0x0 KECCAK256 PUSH1 0x0 DUP1 ISZERO ISZERO ISZERO ISZERO DUP2 MSTORE PUSH1 0x20 ADD SWAP1 DUP2 MSTORE PUSH1 0x20 ADD PUSH1 0x0 KECCAK256 PUSH1 0x2 ADD PUSH1 0x0 DUP3 DUP3 SLOAD PUSH2 0x2B2D SWAP2 SWAP1 PUSH2 0x5B94 JUMP JUMPDEST SWAP3 POP POP DUP2 SWAP1 SSTORE POP PUSH1 0x1A SLOAD PUSH2 0x2B46 DUP3 PUSH1 0x1A SLOAD PUSH1 0x18 SLOAD PUSH2 0x414A JUMP JUMPDEST PUSH2 0x2B50 SWAP2 SWAP1 PUSH2 0x5B94 JUMP JUMPDEST PUSH1 0x1A DUP2 SWAP1 SSTORE POP DUP1 PUSH1 0x18 PUSH1 0x0 DUP3 DUP3 SLOAD PUSH2 0x2B68 SWAP2 SWAP1 PUSH2 0x5B94 JUMP JUMPDEST SWAP3 POP POP DUP2 SWAP1 SSTORE POP JUMPDEST POP POP PUSH1 0x1 PUSH1 0x2B DUP2 SWAP1 SSTORE POP POP POP POP POP JUMP JUMPDEST PUSH1 0x40 MLOAD DUP1 PUSH1 0x40 ADD PUSH1 0x40 MSTORE DUP1 PUSH1 0x6 DUP2 MSTORE PUSH1 0x20 ADD PUSH32 0x554E492D56320000000000000000000000000000000000000000000000000000 DUP2 MSTORE POP DUP2 JUMP JUMPDEST PUSH1 0x24 SLOAD DUP2 JUMP JUMPDEST PUSH1 0x10 SLOAD DUP2 JUMP JUMPDEST PUSH1 0x0 PUSH2 0x2BD2 CALLER DUP5 DUP5 PUSH2 0x370D JUMP JUMPDEST PUSH1 0x1 SWAP1 POP SWAP3 SWAP2 POP POP JUMP JUMPDEST PUSH1 0x23 PUSH1 0x0 SWAP1 SLOAD SWAP1 PUSH2 0x100 EXP SWAP1 DIV PUSH20 0xFFFFFFFFFFFFFFFFFFFFFFFFFFFFFFFFFFFFFFFF AND DUP2 JUMP JUMPDEST PUSH1 0x1 PUSH1 0x2B SLOAD EQ PUSH2 0x2C47 JUMPI PUSH1 0x40 MLOAD PUSH32 0x8C379A000000000000000000000000000000000000000000000000000000000 DUP2 MSTORE PUSH1 0x4 ADD PUSH2 0x2C3E SWAP1 PUSH2 0x5AD8 JUMP JUMPDEST PUSH1 0x40 MLOAD DUP1 SWAP2 SUB SWAP1 REVERT JUMPDEST PUSH1 0x0 PUSH1 0x2B DUP2 SWAP1 SSTORE POP PUSH2 0x2D5B PUSH1 0x22 PUSH1 0x0 SWAP1 SLOAD SWAP1 PUSH2 0x100 EXP SWAP1 DIV PUSH20 0xFFFFFFFFFFFFFFFFFFFFFFFFFFFFFFFFFFFFFFFF AND DUP3 PUSH2 0x2D56 PUSH1 0x2C PUSH1 0x0 PUSH1 0x2 DUP2 LT PUSH2 0x2C8E JUMPI PUSH2 0x2C8D PUSH2 0x5F5D JUMP JUMPDEST JUMPDEST ADD SLOAD PUSH1 0x14 SLOAD PUSH2 0x2C9D SWAP2 SWAP1 PUSH2 0x5B94 JUMP JUMPDEST PUSH1 0x22 PUSH1 0x0 SWAP1 SLOAD SWAP1 PUSH2 0x100 EXP SWAP1 DIV PUSH20 0xFFFFFFFFFFFFFFFFFFFFFFFFFFFFFFFFFFFFFFFF AND PUSH20 0xFFFFFFFFFFFFFFFFFFFFFFFFFFFFFFFFFFFFFFFF AND PUSH4 0x70A08231 ADDRESS PUSH1 0x40 MLOAD DUP3 PUSH4 0xFFFFFFFF AND PUSH1 0xE0 SHL DUP2 MSTORE PUSH1 0x4 ADD PUSH2 0x2CF8 SWAP2 SWAP1 PUSH2 0x58B1 JUMP JUMPDEST PUSH1 0x20 PUSH1 0x40 MLOAD DUP1 DUP4 SUB DUP2 DUP7 DUP1 EXTCODESIZE ISZERO DUP1 ISZERO PUSH2 0x2D10 JUMPI PUSH1 0x0 DUP1 REVERT JUMPDEST POP GAS STATICCALL ISZERO DUP1 ISZERO PUSH2 0x2D24 JUMPI RETURNDATASIZE PUSH1 0x0 DUP1 RETURNDATACOPY RETURNDATASIZE PUSH1 0x0 REVERT JUMPDEST POP POP POP POP PUSH1 0x40 MLOAD RETURNDATASIZE PUSH1 0x1F NOT PUSH1 0x1F DUP3 ADD AND DUP3 ADD DUP1 PUSH1 0x40 MSTORE POP DUP2 ADD SWAP1 PUSH2 0x2D48 SWAP2 SWAP1 PUSH2 0x557B JUMP JUMPDEST PUSH2 0x36B4 SWAP1 SWAP2 SWAP1 PUSH4 0xFFFFFFFF AND JUMP JUMPDEST PUSH2 0x4861 JUMP JUMPDEST PUSH2 0x2E67 PUSH1 0x23 PUSH1 0x0 SWAP1 SLOAD SWAP1 PUSH2 0x100 EXP SWAP1 DIV PUSH20 0xFFFFFFFFFFFFFFFFFFFFFFFFFFFFFFFFFFFFFFFF AND DUP3 PUSH2 0x2E62 PUSH1 0x2C PUSH1 0x1 PUSH1 0x2 DUP2 LT PUSH2 0x2D9A JUMPI PUSH2 0x2D99 PUSH2 0x5F5D JUMP JUMPDEST JUMPDEST ADD SLOAD PUSH1 0x13 SLOAD PUSH2 0x2DA9 SWAP2 SWAP1 PUSH2 0x5B94 JUMP JUMPDEST PUSH1 0x23 PUSH1 0x0 SWAP1 SLOAD SWAP1 PUSH2 0x100 EXP SWAP1 DIV PUSH20 0xFFFFFFFFFFFFFFFFFFFFFFFFFFFFFFFFFFFFFFFF AND PUSH20 0xFFFFFFFFFFFFFFFFFFFFFFFFFFFFFFFFFFFFFFFF AND PUSH4 0x70A08231 ADDRESS PUSH1 0x40 MLOAD DUP3 PUSH4 0xFFFFFFFF AND PUSH1 0xE0 SHL DUP2 MSTORE PUSH1 0x4 ADD PUSH2 0x2E04 SWAP2 SWAP1 PUSH2 0x58B1 JUMP JUMPDEST PUSH1 0x20 PUSH1 0x40 MLOAD DUP1 DUP4 SUB DUP2 DUP7 DUP1 EXTCODESIZE ISZERO DUP1 ISZERO PUSH2 0x2E1C JUMPI PUSH1 0x0 DUP1 REVERT JUMPDEST POP GAS STATICCALL ISZERO DUP1 ISZERO PUSH2 0x2E30 JUMPI RETURNDATASIZE PUSH1 0x0 DUP1 RETURNDATACOPY RETURNDATASIZE PUSH1 0x0 REVERT JUMPDEST POP POP POP POP PUSH1 0x40 MLOAD RETURNDATASIZE PUSH1 0x1F NOT PUSH1 0x1F DUP3 ADD AND DUP3 ADD DUP1 PUSH1 0x40 MSTORE POP DUP2 ADD SWAP1 PUSH2 0x2E54 SWAP2 SWAP1 PUSH2 0x557B JUMP JUMPDEST PUSH2 0x36B4 SWAP1 SWAP2 SWAP1 PUSH4 0xFFFFFFFF AND JUMP JUMPDEST PUSH2 0x4861 JUMP JUMPDEST PUSH1 0x1 PUSH1 0x2B DUP2 SWAP1 SSTORE POP POP JUMP JUMPDEST PUSH1 0x1 PUSH1 0x2B SLOAD EQ PUSH2 0x2EB7 JUMPI PUSH1 0x40 MLOAD PUSH32 0x8C379A000000000000000000000000000000000000000000000000000000000 DUP2 MSTORE PUSH1 0x4 ADD PUSH2 0x2EAE SWAP1 PUSH2 0x5AD8 JUMP JUMPDEST PUSH1 0x40 MLOAD DUP1 SWAP2 SUB SWAP1 REVERT JUMPDEST PUSH1 0x0 PUSH1 0x2B DUP2 SWAP1 SSTORE POP PUSH2 0x2EC8 DUP3 PUSH2 0x38A1 JUMP JUMPDEST PUSH2 0x2ED1 DUP4 PUSH2 0x3995 JUMP JUMPDEST PUSH2 0x2EDA DUP5 PUSH2 0x3A7A JUMP JUMPDEST PUSH2 0x2EE4 SWAP2 SWAP1 PUSH2 0x5B94 JUMP JUMPDEST GT ISZERO DUP1 PUSH2 0x2F34 JUMPI POP PUSH1 0x26 SLOAD PUSH2 0x2EF8 DUP4 PUSH2 0x3995 JUMP JUMPDEST PUSH2 0x2F02 SWAP2 SWAP1 PUSH2 0x5D8C JUMP JUMPDEST PUSH2 0x2F0B DUP4 PUSH2 0x38A1 JUMP JUMPDEST PUSH2 0x2F14 DUP5 PUSH2 0x3995 JUMP JUMPDEST PUSH2 0x2F1D DUP6 PUSH2 0x3A7A JUMP JUMPDEST PUSH2 0x2F27 SWAP2 SWAP1 PUSH2 0x5B94 JUMP JUMPDEST PUSH2 0x2F31 SWAP2 SWAP1 PUSH2 0x5DE6 JUMP JUMPDEST GT ISZERO JUMPDEST PUSH2 0x2F3D JUMPI PUSH1 0x0 DUP1 REVERT JUMPDEST PUSH2 0x2FCA PUSH1 0x22 PUSH1 0x0 SWAP1 SLOAD SWAP1 PUSH2 0x100 EXP SWAP1 DIV PUSH20 0xFFFFFFFFFFFFFFFFFFFFFFFFFFFFFFFFFFFFFFFF AND DUP3 PUSH1 0x27 SLOAD PUSH1 0x2F PUSH1 0x0 DUP8 PUSH20 0xFFFFFFFFFFFFFFFFFFFFFFFFFFFFFFFFFFFFFFFF AND PUSH20 0xFFFFFFFFFFFFFFFFFFFFFFFFFFFFFFFFFFFFFFFF AND DUP2 MSTORE PUSH1 0x20 ADD SWAP1 DUP2 MSTORE PUSH1 0x20 ADD PUSH1 0x0 KECCAK256 PUSH1 0x0 PUSH1 0x2 DUP2 LT PUSH2 0x2FB9 JUMPI PUSH2 0x2FB8 PUSH2 0x5F5D JUMP JUMPDEST JUMPDEST ADD SLOAD PUSH2 0x2FC5 SWAP2 SWAP1 PUSH2 0x5D8C JUMP JUMPDEST PUSH2 0x4861 JUMP JUMPDEST PUSH2 0x3057 PUSH1 0x23 PUSH1 0x0 SWAP1 SLOAD SWAP1 PUSH2 0x100 EXP SWAP1 DIV PUSH20 0xFFFFFFFFFFFFFFFFFFFFFFFFFFFFFFFFFFFFFFFF AND DUP3 PUSH1 0x27 SLOAD PUSH1 0x2F PUSH1 0x0 DUP8 PUSH20 0xFFFFFFFFFFFFFFFFFFFFFFFFFFFFFFFFFFFFFFFF AND PUSH20 0xFFFFFFFFFFFFFFFFFFFFFFFFFFFFFFFFFFFFFFFF AND DUP2 MSTORE PUSH1 0x20 ADD SWAP1 DUP2 MSTORE PUSH1 0x20 ADD PUSH1 0x0 KECCAK256 PUSH1 0x1 PUSH1 0x2 DUP2 LT PUSH2 0x3046 JUMPI PUSH2 0x3045 PUSH2 0x5F5D JUMP JUMPDEST JUMPDEST ADD SLOAD PUSH2 0x3052 SWAP2 SWAP1 PUSH2 0x5D8C JUMP JUMPDEST PUSH2 0x4861 JUMP JUMPDEST PUSH1 0x2F PUSH1 0x0 DUP4 PUSH20 0xFFFFFFFFFFFFFFFFFFFFFFFFFFFFFFFFFFFFFFFF AND PUSH20 0xFFFFFFFFFFFFFFFFFFFFFFFFFFFFFFFFFFFFFFFF AND DUP2 MSTORE PUSH1 0x20 ADD SWAP1 DUP2 MSTORE PUSH1 0x20 ADD PUSH1 0x0 KECCAK256 PUSH1 0x0 PUSH2 0x30A2 SWAP2 SWAP1 PUSH2 0x529E JUMP JUMPDEST PUSH1 0x0 PUSH1 0x2E PUSH1 0x0 DUP5 PUSH20 0xFFFFFFFFFFFFFFFFFFFFFFFFFFFFFFFFFFFFFFFF AND PUSH20 0xFFFFFFFFFFFFFFFFFFFFFFFFFFFFFFFFFFFFFFFF AND DUP2 MSTORE PUSH1 0x20 ADD SWAP1 DUP2 MSTORE PUSH1 0x20 ADD PUSH1 0x0 KECCAK256 PUSH1 0x0 DUP1 ISZERO ISZERO ISZERO ISZERO DUP2 MSTORE PUSH1 0x20 ADD SWAP1 DUP2 MSTORE PUSH1 0x20 ADD PUSH1 0x0 KECCAK256 PUSH1 0x1 ADD DUP2 SWAP1 SSTORE POP PUSH1 0x0 PUSH1 0x2E PUSH1 0x0 DUP5 PUSH20 0xFFFFFFFFFFFFFFFFFFFFFFFFFFFFFFFFFFFFFFFF AND PUSH20 0xFFFFFFFFFFFFFFFFFFFFFFFFFFFFFFFFFFFFFFFF AND DUP2 MSTORE PUSH1 0x20 ADD SWAP1 DUP2 MSTORE PUSH1 0x20 ADD PUSH1 0x0 KECCAK256 PUSH1 0x0 PUSH1 0x1 ISZERO ISZERO ISZERO ISZERO DUP2 MSTORE PUSH1 0x20 ADD SWAP1 DUP2 MSTORE PUSH1 0x20 ADD PUSH1 0x0 KECCAK256 PUSH1 0x1 ADD DUP2 SWAP1 SSTORE POP PUSH2 0x3217 PUSH1 0x2E PUSH1 0x0 DUP5 PUSH20 0xFFFFFFFFFFFFFFFFFFFFFFFFFFFFFFFFFFFFFFFF AND PUSH20 0xFFFFFFFFFFFFFFFFFFFFFFFFFFFFFFFFFFFFFFFF AND DUP2 MSTORE PUSH1 0x20 ADD SWAP1 DUP2 MSTORE PUSH1 0x20 ADD PUSH1 0x0 KECCAK256 PUSH1 0x0 DUP1 ISZERO ISZERO ISZERO ISZERO DUP2 MSTORE PUSH1 0x20 ADD SWAP1 DUP2 MSTORE PUSH1 0x20 ADD PUSH1 0x0 KECCAK256 PUSH1 0x2 ADD SLOAD PUSH1 0x2E PUSH1 0x0 DUP6 PUSH20 0xFFFFFFFFFFFFFFFFFFFFFFFFFFFFFFFFFFFFFFFF AND PUSH20 0xFFFFFFFFFFFFFFFFFFFFFFFFFFFFFFFFFFFFFFFF AND DUP2 MSTORE PUSH1 0x20 ADD SWAP1 DUP2 MSTORE PUSH1 0x20 ADD PUSH1 0x0 KECCAK256 PUSH1 0x0 PUSH1 0x1 ISZERO ISZERO ISZERO ISZERO DUP2 MSTORE PUSH1 0x20 ADD SWAP1 DUP2 MSTORE PUSH1 0x20 ADD PUSH1 0x0 KECCAK256 PUSH1 0x2 ADD SLOAD DUP5 PUSH2 0x120B JUMP JUMPDEST PUSH1 0x1 PUSH1 0x2B DUP2 SWAP1 SSTORE POP POP POP JUMP JUMPDEST PUSH1 0x21 PUSH1 0x0 SWAP1 SLOAD SWAP1 PUSH2 0x100 EXP SWAP1 DIV PUSH20 0xFFFFFFFFFFFFFFFFFFFFFFFFFFFFFFFFFFFFFFFF AND DUP2 JUMP JUMPDEST PUSH1 0x1E PUSH1 0x0 SWAP1 SLOAD SWAP1 PUSH2 0x100 EXP SWAP1 DIV PUSH1 0xFF AND DUP2 JUMP JUMPDEST PUSH1 0x21 PUSH1 0x0 SWAP1 SLOAD SWAP1 PUSH2 0x100 EXP SWAP1 DIV PUSH20 0xFFFFFFFFFFFFFFFFFFFFFFFFFFFFFFFFFFFFFFFF AND PUSH20 0xFFFFFFFFFFFFFFFFFFFFFFFFFFFFFFFFFFFFFFFF AND CALLER PUSH20 0xFFFFFFFFFFFFFFFFFFFFFFFFFFFFFFFFFFFFFFFF AND EQ PUSH2 0x32B6 JUMPI PUSH1 0x0 DUP1 REVERT JUMPDEST DUP1 PUSH1 0x24 DUP2 SWAP1 SSTORE POP POP JUMP JUMPDEST PUSH1 0x16 SLOAD DUP2 JUMP JUMPDEST TIMESTAMP DUP5 LT ISZERO PUSH2 0x3309 JUMPI PUSH1 0x40 MLOAD PUSH32 0x8C379A000000000000000000000000000000000000000000000000000000000 DUP2 MSTORE PUSH1 0x4 ADD PUSH2 0x3300 SWAP1 PUSH2 0x5A98 JUMP JUMPDEST PUSH1 0x40 MLOAD DUP1 SWAP2 SUB SWAP1 REVERT JUMPDEST PUSH1 0x0 PUSH1 0x3 SLOAD PUSH32 0x6E71EDAE12B1B97F4D1F60370FEF10105FA2FAAE0126114A169C64845D6126C9 PUSH1 0x0 SHL DUP10 DUP10 DUP10 PUSH1 0x4 PUSH1 0x0 DUP15 PUSH20 0xFFFFFFFFFFFFFFFFFFFFFFFFFFFFFFFFFFFFFFFF AND PUSH20 0xFFFFFFFFFFFFFFFFFFFFFFFFFFFFFFFFFFFFFFFF AND DUP2 MSTORE PUSH1 0x20 ADD SWAP1 DUP2 MSTORE PUSH1 0x20 ADD PUSH1 0x0 KECCAK256 PUSH1 0x0 DUP2 SLOAD DUP1 SWAP3 SWAP2 SWAP1 PUSH2 0x3385 SWAP1 PUSH2 0x5EAC JUMP JUMPDEST SWAP2 SWAP1 POP SSTORE DUP11 PUSH1 0x40 MLOAD PUSH1 0x20 ADD PUSH2 0x339F SWAP7 SWAP6 SWAP5 SWAP4 SWAP3 SWAP2 SWAP1 PUSH2 0x5970 JUMP JUMPDEST PUSH1 0x40 MLOAD PUSH1 0x20 DUP2 DUP4 SUB SUB DUP2 MSTORE SWAP1 PUSH1 0x40 MSTORE DUP1 MLOAD SWAP1 PUSH1 0x20 ADD KECCAK256 PUSH1 0x40 MLOAD PUSH1 0x20 ADD PUSH2 0x33C6 SWAP3 SWAP2 SWAP1 PUSH2 0x587A JUMP JUMPDEST PUSH1 0x40 MLOAD PUSH1 0x20 DUP2 DUP4 SUB SUB DUP2 MSTORE SWAP1 PUSH1 0x40 MSTORE DUP1 MLOAD SWAP1 PUSH1 0x20 ADD KECCAK256 SWAP1 POP PUSH1 0x0 PUSH1 0x1 DUP3 DUP7 DUP7 DUP7 PUSH1 0x40 MLOAD PUSH1 0x0 DUP2 MSTORE PUSH1 0x20 ADD PUSH1 0x40 MSTORE PUSH1 0x40 MLOAD PUSH2 0x3403 SWAP5 SWAP4 SWAP3 SWAP2 SWAP1 PUSH2 0x59D1 JUMP JUMPDEST PUSH1 0x20 PUSH1 0x40 MLOAD PUSH1 0x20 DUP2 SUB SWAP1 DUP1 DUP5 SUB SWAP1 DUP6 GAS STATICCALL ISZERO DUP1 ISZERO PUSH2 0x3425 JUMPI RETURNDATASIZE PUSH1 0x0 DUP1 RETURNDATACOPY RETURNDATASIZE PUSH1 0x0 REVERT JUMPDEST POP POP POP PUSH1 0x20 PUSH1 0x40 MLOAD SUB MLOAD SWAP1 POP PUSH1 0x0 PUSH20 0xFFFFFFFFFFFFFFFFFFFFFFFFFFFFFFFFFFFFFFFF AND DUP2 PUSH20 0xFFFFFFFFFFFFFFFFFFFFFFFFFFFFFFFFFFFFFFFF AND EQ ISZERO DUP1 ISZERO PUSH2 0x3499 JUMPI POP DUP9 PUSH20 0xFFFFFFFFFFFFFFFFFFFFFFFFFFFFFFFFFFFFFFFF AND DUP2 PUSH20 0xFFFFFFFFFFFFFFFFFFFFFFFFFFFFFFFFFFFFFFFF AND EQ JUMPDEST PUSH2 0x34D8 JUMPI PUSH1 0x40 MLOAD PUSH32 0x8C379A000000000000000000000000000000000000000000000000000000000 DUP2 MSTORE PUSH1 0x4 ADD PUSH2 0x34CF SWAP1 PUSH2 0x5A58 JUMP JUMPDEST PUSH1 0x40 MLOAD DUP1 SWAP2 SUB SWAP1 REVERT JUMPDEST PUSH2 0x34E3 DUP10 DUP10 DUP10 PUSH2 0x35C9 JUMP JUMPDEST POP POP POP POP POP POP POP POP POP JUMP JUMPDEST PUSH1 0x2 PUSH1 0x20 MSTORE DUP2 PUSH1 0x0 MSTORE PUSH1 0x40 PUSH1 0x0 KECCAK256 PUSH1 0x20 MSTORE DUP1 PUSH1 0x0 MSTORE PUSH1 0x40 PUSH1 0x0 KECCAK256 PUSH1 0x0 SWAP2 POP SWAP2 POP POP SLOAD DUP2 JUMP JUMPDEST PUSH1 0x2A SLOAD DUP2 JUMP JUMPDEST PUSH1 0xF SLOAD DUP2 JUMP JUMPDEST PUSH1 0x1F SLOAD DUP2 JUMP JUMPDEST PUSH1 0x11 SLOAD DUP2 JUMP JUMPDEST PUSH1 0x27 SLOAD DUP2 JUMP JUMPDEST PUSH1 0x8 SLOAD DUP2 JUMP JUMPDEST PUSH1 0x2F PUSH1 0x20 MSTORE DUP2 PUSH1 0x0 MSTORE PUSH1 0x40 PUSH1 0x0 KECCAK256 DUP2 PUSH1 0x2 DUP2 LT PUSH2 0x3553 JUMPI PUSH1 0x0 DUP1 REVERT JUMPDEST ADD PUSH1 0x0 SWAP2 POP SWAP2 POP POP SLOAD DUP2 JUMP JUMPDEST PUSH1 0xD SLOAD DUP2 JUMP JUMPDEST PUSH1 0x21 PUSH1 0x0 SWAP1 SLOAD SWAP1 PUSH2 0x100 EXP SWAP1 DIV PUSH20 0xFFFFFFFFFFFFFFFFFFFFFFFFFFFFFFFFFFFFFFFF AND PUSH20 0xFFFFFFFFFFFFFFFFFFFFFFFFFFFFFFFFFFFFFFFF AND CALLER PUSH20 0xFFFFFFFFFFFFFFFFFFFFFFFFFFFFFFFFFFFFFFFF AND EQ PUSH2 0x35BF JUMPI PUSH1 0x0 DUP1 REVERT JUMPDEST DUP1 PUSH1 0x26 DUP2 SWAP1 SSTORE POP POP JUMP JUMPDEST DUP1 PUSH1 0x2 PUSH1 0x0 DUP6 PUSH20 0xFFFFFFFFFFFFFFFFFFFFFFFFFFFFFFFFFFFFFFFF AND PUSH20 0xFFFFFFFFFFFFFFFFFFFFFFFFFFFFFFFFFFFFFFFF AND DUP2 MSTORE PUSH1 0x20 ADD SWAP1 DUP2 MSTORE PUSH1 0x20 ADD PUSH1 0x0 KECCAK256 PUSH1 0x0 DUP5 PUSH20 0xFFFFFFFFFFFFFFFFFFFFFFFFFFFFFFFFFFFFFFFF AND PUSH20 0xFFFFFFFFFFFFFFFFFFFFFFFFFFFFFFFFFFFFFFFF AND DUP2 MSTORE PUSH1 0x20 ADD SWAP1 DUP2 MSTORE PUSH1 0x20 ADD PUSH1 0x0 KECCAK256 DUP2 SWAP1 SSTORE POP DUP2 PUSH20 0xFFFFFFFFFFFFFFFFFFFFFFFFFFFFFFFFFFFFFFFF AND DUP4 PUSH20 0xFFFFFFFFFFFFFFFFFFFFFFFFFFFFFFFFFFFFFFFF AND PUSH32 0x8C5BE1E5EBEC7D5BD14F71427D1E84F3DD0314C0F7B2291E5B200AC8C7C3B925 DUP4 PUSH1 0x40 MLOAD PUSH2 0x36A7 SWAP2 SWAP1 PUSH2 0x5AF8 JUMP JUMPDEST PUSH1 0x40 MLOAD DUP1 SWAP2 SUB SWAP1 LOG3 POP POP POP JUMP JUMPDEST PUSH1 0x0 DUP3 DUP3 DUP5 PUSH2 0x36C3 SWAP2 SWAP1 PUSH2 0x5DE6 JUMP JUMPDEST SWAP2 POP DUP2 GT ISZERO PUSH2 0x3707 JUMPI PUSH1 0x40 MLOAD PUSH32 0x8C379A000000000000000000000000000000000000000000000000000000000 DUP2 MSTORE PUSH1 0x4 ADD PUSH2 0x36FE SWAP1 PUSH2 0x5A38 JUMP JUMPDEST PUSH1 0x40 MLOAD DUP1 SWAP2 SUB SWAP1 REVERT JUMPDEST SWAP3 SWAP2 POP POP JUMP JUMPDEST PUSH2 0x375F DUP2 PUSH1 0x1 PUSH1 0x0 DUP7 PUSH20 0xFFFFFFFFFFFFFFFFFFFFFFFFFFFFFFFFFFFFFFFF AND PUSH20 0xFFFFFFFFFFFFFFFFFFFFFFFFFFFFFFFFFFFFFFFF AND DUP2 MSTORE PUSH1 0x20 ADD SWAP1 DUP2 MSTORE PUSH1 0x20 ADD PUSH1 0x0 KECCAK256 SLOAD PUSH2 0x36B4 SWAP1 SWAP2 SWAP1 PUSH4 0xFFFFFFFF AND JUMP JUMPDEST PUSH1 0x1 PUSH1 0x0 DUP6 PUSH20 0xFFFFFFFFFFFFFFFFFFFFFFFFFFFFFFFFFFFFFFFF AND PUSH20 0xFFFFFFFFFFFFFFFFFFFFFFFFFFFFFFFFFFFFFFFF AND DUP2 MSTORE PUSH1 0x20 ADD SWAP1 DUP2 MSTORE PUSH1 0x20 ADD PUSH1 0x0 KECCAK256 DUP2 SWAP1 SSTORE POP PUSH2 0x37F4 DUP2 PUSH1 0x1 PUSH1 0x0 DUP6 PUSH20 0xFFFFFFFFFFFFFFFFFFFFFFFFFFFFFFFFFFFFFFFF AND PUSH20 0xFFFFFFFFFFFFFFFFFFFFFFFFFFFFFFFFFFFFFFFF AND DUP2 MSTORE PUSH1 0x20 ADD SWAP1 DUP2 MSTORE PUSH1 0x20 ADD PUSH1 0x0 KECCAK256 SLOAD PUSH2 0x4A04 SWAP1 SWAP2 SWAP1 PUSH4 0xFFFFFFFF AND JUMP JUMPDEST PUSH1 0x1 PUSH1 0x0 DUP5 PUSH20 0xFFFFFFFFFFFFFFFFFFFFFFFFFFFFFFFFFFFFFFFF AND PUSH20 0xFFFFFFFFFFFFFFFFFFFFFFFFFFFFFFFFFFFFFFFF AND DUP2 MSTORE PUSH1 0x20 ADD SWAP1 DUP2 MSTORE PUSH1 0x20 ADD PUSH1 0x0 KECCAK256 DUP2 SWAP1 SSTORE POP DUP2 PUSH20 0xFFFFFFFFFFFFFFFFFFFFFFFFFFFFFFFFFFFFFFFF AND DUP4 PUSH20 0xFFFFFFFFFFFFFFFFFFFFFFFFFFFFFFFFFFFFFFFF AND PUSH32 0xDDF252AD1BE2C89B69C2B068FC378DAA952BA7F163C4A11628F55A4DF523B3EF DUP4 PUSH1 0x40 MLOAD PUSH2 0x3894 SWAP2 SWAP1 PUSH2 0x5AF8 JUMP JUMPDEST PUSH1 0x40 MLOAD DUP1 SWAP2 SUB SWAP1 LOG3 POP POP POP JUMP JUMPDEST PUSH1 0x0 PUSH2 0x391D PUSH2 0x3912 PUSH1 0x2E PUSH1 0x0 DUP6 PUSH20 0xFFFFFFFFFFFFFFFFFFFFFFFFFFFFFFFFFFFFFFFF AND PUSH20 0xFFFFFFFFFFFFFFFFFFFFFFFFFFFFFFFFFFFFFFFF AND DUP2 MSTORE PUSH1 0x20 ADD SWAP1 DUP2 MSTORE PUSH1 0x20 ADD PUSH1 0x0 KECCAK256 PUSH1 0x0 DUP1 ISZERO ISZERO ISZERO ISZERO DUP2 MSTORE PUSH1 0x20 ADD SWAP1 DUP2 MSTORE PUSH1 0x20 ADD PUSH1 0x0 KECCAK256 PUSH1 0x1 ADD SLOAD PUSH1 0x17 SLOAD PUSH1 0x15 SLOAD PUSH1 0x19 SLOAD PUSH1 0x28 SLOAD PUSH2 0x4110 JUMP JUMPDEST PUSH1 0xD SLOAD PUSH1 0xE SLOAD PUSH2 0x414A JUMP JUMPDEST PUSH2 0x3984 PUSH1 0x2E PUSH1 0x0 DUP6 PUSH20 0xFFFFFFFFFFFFFFFFFFFFFFFFFFFFFFFFFFFFFFFF AND PUSH20 0xFFFFFFFFFFFFFFFFFFFFFFFFFFFFFFFFFFFFFFFF AND DUP2 MSTORE PUSH1 0x20 ADD SWAP1 DUP2 MSTORE PUSH1 0x20 ADD PUSH1 0x0 KECCAK256 PUSH1 0x0 PUSH1 0x1 ISZERO ISZERO ISZERO ISZERO DUP2 MSTORE PUSH1 0x20 ADD SWAP1 DUP2 MSTORE PUSH1 0x20 ADD PUSH1 0x0 KECCAK256 PUSH1 0x1 ADD SLOAD PUSH1 0x18 SLOAD PUSH1 0x1A SLOAD PUSH2 0x414A JUMP JUMPDEST PUSH2 0x398E SWAP2 SWAP1 PUSH2 0x5B94 JUMP JUMPDEST SWAP1 POP SWAP2 SWAP1 POP JUMP JUMPDEST PUSH1 0x0 PUSH2 0x3A04 PUSH1 0x2E PUSH1 0x0 DUP5 PUSH20 0xFFFFFFFFFFFFFFFFFFFFFFFFFFFFFFFFFFFFFFFF AND PUSH20 0xFFFFFFFFFFFFFFFFFFFFFFFFFFFFFFFFFFFFFFFF AND DUP2 MSTORE PUSH1 0x20 ADD SWAP1 DUP2 MSTORE PUSH1 0x20 ADD PUSH1 0x0 KECCAK256 PUSH1 0x0 PUSH1 0x1 ISZERO ISZERO ISZERO ISZERO DUP2 MSTORE PUSH1 0x20 ADD SWAP1 DUP2 MSTORE PUSH1 0x20 ADD PUSH1 0x0 KECCAK256 PUSH1 0x2 ADD SLOAD PUSH1 0x15 SLOAD PUSH1 0xD SLOAD PUSH1 0xE SLOAD PUSH1 0x28 SLOAD PUSH2 0x4110 JUMP JUMPDEST PUSH1 0x28 SLOAD PUSH1 0x2E PUSH1 0x0 DUP6 PUSH20 0xFFFFFFFFFFFFFFFFFFFFFFFFFFFFFFFFFFFFFFFF AND PUSH20 0xFFFFFFFFFFFFFFFFFFFFFFFFFFFFFFFFFFFFFFFF AND DUP2 MSTORE PUSH1 0x20 ADD SWAP1 DUP2 MSTORE PUSH1 0x20 ADD PUSH1 0x0 KECCAK256 PUSH1 0x0 DUP1 ISZERO ISZERO ISZERO ISZERO DUP2 MSTORE PUSH1 0x20 ADD SWAP1 DUP2 MSTORE PUSH1 0x20 ADD PUSH1 0x0 KECCAK256 PUSH1 0x2 ADD SLOAD PUSH2 0x3A69 SWAP2 SWAP1 PUSH2 0x5D8C JUMP JUMPDEST PUSH2 0x3A73 SWAP2 SWAP1 PUSH2 0x5B94 JUMP JUMPDEST SWAP1 POP SWAP2 SWAP1 POP JUMP JUMPDEST PUSH1 0x0 PUSH2 0x3AE4 PUSH1 0x2F PUSH1 0x0 DUP5 PUSH20 0xFFFFFFFFFFFFFFFFFFFFFFFFFFFFFFFFFFFFFFFF AND PUSH20 0xFFFFFFFFFFFFFFFFFFFFFFFFFFFFFFFFFFFFFFFF AND DUP2 MSTORE PUSH1 0x20 ADD SWAP1 DUP2 MSTORE PUSH1 0x20 ADD PUSH1 0x0 KECCAK256 PUSH1 0x1 PUSH1 0x2 DUP2 LT PUSH2 0x3AD1 JUMPI PUSH2 0x3AD0 PUSH2 0x5F5D JUMP JUMPDEST JUMPDEST ADD SLOAD PUSH1 0x15 SLOAD PUSH1 0xD SLOAD PUSH1 0xE SLOAD PUSH1 0x28 SLOAD PUSH2 0x4110 JUMP JUMPDEST PUSH1 0x2F PUSH1 0x0 DUP5 PUSH20 0xFFFFFFFFFFFFFFFFFFFFFFFFFFFFFFFFFFFFFFFF AND PUSH20 0xFFFFFFFFFFFFFFFFFFFFFFFFFFFFFFFFFFFFFFFF AND DUP2 MSTORE PUSH1 0x20 ADD SWAP1 DUP2 MSTORE PUSH1 0x20 ADD PUSH1 0x0 KECCAK256 PUSH1 0x0 PUSH1 0x2 DUP2 LT PUSH2 0x3B36 JUMPI PUSH2 0x3B35 PUSH2 0x5F5D JUMP JUMPDEST JUMPDEST ADD SLOAD PUSH2 0x3B42 SWAP2 SWAP1 PUSH2 0x5B94 JUMP JUMPDEST SWAP1 POP SWAP2 SWAP1 POP JUMP JUMPDEST PUSH1 0x0 DUP1 PUSH2 0x3B6F PUSH1 0x14 SLOAD PUSH1 0x13 SLOAD PUSH1 0xE SLOAD PUSH1 0xD SLOAD PUSH1 0xB SLOAD PUSH1 0xC SLOAD PUSH1 0x5 SLOAD PUSH1 0x6 SLOAD PUSH1 0x7 SLOAD PUSH2 0x4A5D JUMP JUMPDEST SWAP2 POP SWAP2 POP PUSH1 0x0 DUP1 PUSH2 0x3B92 DUP5 DUP5 PUSH1 0x10 SLOAD PUSH1 0xF SLOAD PUSH1 0x20 SLOAD PUSH1 0x1F SLOAD PUSH1 0x14 SLOAD PUSH1 0x13 SLOAD PUSH2 0x4AF9 JUMP JUMPDEST SWAP2 POP SWAP2 POP PUSH1 0x0 PUSH1 0x1D SLOAD NUMBER PUSH2 0x3BA6 SWAP2 SWAP1 PUSH2 0x5DE6 JUMP JUMPDEST SWAP1 POP NUMBER PUSH1 0x1D DUP2 SWAP1 SSTORE POP PUSH1 0x0 PUSH2 0x3BC2 PUSH1 0x15 SLOAD PUSH1 0xD SLOAD PUSH1 0xE SLOAD PUSH2 0x414A JUMP JUMPDEST SWAP1 POP PUSH1 0x0 ISZERO ISZERO PUSH1 0x1E PUSH1 0x0 SWAP1 SLOAD SWAP1 PUSH2 0x100 EXP SWAP1 DIV PUSH1 0xFF AND ISZERO ISZERO EQ ISZERO PUSH2 0x3C3F JUMPI PUSH2 0x3BF4 PUSH1 0x17 SLOAD PUSH1 0x1C SLOAD DUP5 PUSH1 0x28 SLOAD PUSH1 0x1 PUSH2 0x4110 JUMP JUMPDEST PUSH1 0x17 SLOAD PUSH2 0x3C01 SWAP2 SWAP1 PUSH2 0x5B94 JUMP JUMPDEST PUSH1 0x17 DUP2 SWAP1 SSTORE POP DUP2 PUSH2 0x3C1D PUSH1 0x1C SLOAD PUSH1 0x17 SLOAD DUP5 PUSH1 0x28 SLOAD PUSH1 0x28 SLOAD PUSH2 0x4110 JUMP JUMPDEST PUSH2 0x3C27 SWAP2 SWAP1 PUSH2 0x5D8C JUMP JUMPDEST PUSH1 0x18 SLOAD PUSH2 0x3C34 SWAP2 SWAP1 PUSH2 0x5DE6 JUMP JUMPDEST PUSH1 0x18 DUP2 SWAP1 SSTORE POP PUSH2 0x3C8C JUMP JUMPDEST PUSH2 0x3C53 PUSH1 0x18 SLOAD PUSH1 0x1C SLOAD DUP5 PUSH1 0x28 SLOAD PUSH1 0x1 PUSH2 0x4110 JUMP JUMPDEST PUSH1 0x18 SLOAD PUSH2 0x3C60 SWAP2 SWAP1 PUSH2 0x5B94 JUMP JUMPDEST PUSH1 0x18 DUP2 SWAP1 SSTORE POP PUSH2 0x3C78 PUSH1 0x1C SLOAD PUSH1 0x18 SLOAD DUP5 DUP5 PUSH1 0x1 PUSH2 0x4110 JUMP JUMPDEST PUSH1 0x17 SLOAD PUSH2 0x3C85 SWAP2 SWAP1 PUSH2 0x5DE6 JUMP JUMPDEST PUSH1 0x17 DUP2 SWAP1 SSTORE POP JUMPDEST DUP4 PUSH1 0x1C DUP2 SWAP1 SSTORE POP DUP3 PUSH1 0x1E PUSH1 0x0 PUSH2 0x100 EXP DUP2 SLOAD DUP2 PUSH1 0xFF MUL NOT AND SWAP1 DUP4 ISZERO ISZERO MUL OR SWAP1 SSTORE POP POP POP POP POP POP POP JUMP JUMPDEST PUSH1 0x0 PUSH1 0x1 PUSH1 0x2B SLOAD EQ PUSH2 0x3CFC JUMPI PUSH1 0x40 MLOAD PUSH32 0x8C379A000000000000000000000000000000000000000000000000000000000 DUP2 MSTORE PUSH1 0x4 ADD PUSH2 0x3CF3 SWAP1 PUSH2 0x5AD8 JUMP JUMPDEST PUSH1 0x40 MLOAD DUP1 SWAP2 SUB SWAP1 REVERT JUMPDEST PUSH1 0x0 PUSH1 0x2B DUP2 SWAP1 SSTORE POP PUSH1 0x0 JUMPDEST PUSH2 0x3D26 PUSH2 0x3D1B PUSH1 0x9 SLOAD PUSH1 0x16 SLOAD PUSH1 0x28 SLOAD PUSH2 0x414A JUMP JUMPDEST PUSH1 0xB SLOAD PUSH1 0xE SLOAD PUSH2 0x4BA3 JUMP JUMPDEST DUP2 DUP7 PUSH2 0x3D32 SWAP2 SWAP1 PUSH2 0x5DE6 JUMP JUMPDEST GT ISZERO PUSH2 0x3F07 JUMPI PUSH1 0x0 PUSH2 0x3D4B PUSH1 0x9 SLOAD PUSH1 0x16 SLOAD PUSH1 0x28 SLOAD PUSH2 0x414A JUMP JUMPDEST SWAP1 POP PUSH1 0x0 PUSH2 0x3D61 PUSH1 0x5 SLOAD PUSH1 0x6 SLOAD PUSH1 0x7 SLOAD DUP6 PUSH2 0x4BD8 JUMP JUMPDEST SWAP1 POP PUSH1 0x0 DUP6 GT DUP1 ISZERO PUSH2 0x3D8B JUMPI POP DUP5 PUSH2 0x3D7E PUSH1 0xC SLOAD DUP4 PUSH1 0xD SLOAD PUSH2 0x4BA3 JUMP JUMPDEST DUP6 PUSH2 0x3D89 SWAP2 SWAP1 PUSH2 0x5B94 JUMP JUMPDEST GT JUMPDEST ISZERO PUSH2 0x3D97 JUMPI POP POP PUSH2 0x3F07 JUMP JUMPDEST PUSH2 0x3DA6 PUSH1 0xC SLOAD DUP3 PUSH1 0xD SLOAD PUSH2 0x4BA3 JUMP JUMPDEST DUP5 PUSH2 0x3DB1 SWAP2 SWAP1 PUSH2 0x5B94 JUMP JUMPDEST SWAP4 POP PUSH2 0x3DC2 DUP3 PUSH1 0xB SLOAD PUSH1 0xE SLOAD PUSH2 0x4BA3 JUMP JUMPDEST DUP4 PUSH2 0x3DCD SWAP2 SWAP1 PUSH2 0x5B94 JUMP JUMPDEST SWAP3 POP PUSH1 0x1 ISZERO ISZERO DUP7 ISZERO ISZERO EQ ISZERO PUSH2 0x3E08 JUMPI PUSH2 0x3DEB PUSH1 0xC SLOAD DUP3 PUSH1 0xD SLOAD PUSH2 0x4BA3 JUMP JUMPDEST PUSH1 0xF PUSH1 0x0 DUP3 DUP3 SLOAD PUSH2 0x3DFC SWAP2 SWAP1 PUSH2 0x5B94 JUMP JUMPDEST SWAP3 POP POP DUP2 SWAP1 SSTORE POP PUSH2 0x3E57 JUMP JUMPDEST PUSH2 0x3E17 DUP3 PUSH1 0xB SLOAD PUSH1 0xE SLOAD PUSH2 0x4BA3 JUMP JUMPDEST PUSH1 0x14 PUSH1 0x0 DUP3 DUP3 SLOAD PUSH2 0x3E28 SWAP2 SWAP1 PUSH2 0x5B94 JUMP JUMPDEST SWAP3 POP POP DUP2 SWAP1 SSTORE POP PUSH2 0x3E3E PUSH1 0xC SLOAD DUP3 PUSH1 0xD SLOAD PUSH2 0x4BA3 JUMP JUMPDEST PUSH1 0x13 PUSH1 0x0 DUP3 DUP3 SLOAD PUSH2 0x3E4F SWAP2 SWAP1 PUSH2 0x5DE6 JUMP JUMPDEST SWAP3 POP POP DUP2 SWAP1 SSTORE POP JUMPDEST PUSH2 0x3E66 PUSH1 0xD SLOAD PUSH1 0xA SLOAD DUP4 PUSH2 0x414A JUMP JUMPDEST PUSH1 0xD DUP2 SWAP1 SSTORE POP PUSH2 0x3E7B PUSH1 0xE SLOAD PUSH1 0x9 SLOAD DUP5 PUSH2 0x414A JUMP JUMPDEST PUSH1 0xE DUP2 SWAP1 SSTORE POP PUSH2 0x3EA4 PUSH2 0x3E97 PUSH1 0x5 SLOAD PUSH1 0x6 SLOAD PUSH1 0x7 SLOAD DUP7 DUP7 PUSH2 0x4CD8 JUMP JUMPDEST DUP3 PUSH1 0x9 SLOAD DUP6 PUSH1 0xA SLOAD PUSH2 0x4110 JUMP JUMPDEST PUSH1 0x15 DUP2 SWAP1 SSTORE POP PUSH2 0x3EBE PUSH1 0x9 SLOAD PUSH1 0xA SLOAD PUSH1 0x7 SLOAD PUSH1 0x15 SLOAD PUSH2 0x4DCC JUMP JUMPDEST PUSH1 0x5 DUP2 SWAP1 SSTORE POP PUSH1 0x5 SLOAD PUSH1 0x28 SLOAD PUSH1 0x2 PUSH2 0x3ED6 SWAP2 SWAP1 PUSH2 0x5D8C JUMP JUMPDEST PUSH2 0x3EE0 SWAP2 SWAP1 PUSH2 0x5DE6 JUMP JUMPDEST PUSH1 0x6 DUP2 SWAP1 SSTORE POP PUSH2 0x3EEE PUSH2 0x46E1 JUMP JUMPDEST PUSH1 0x9 SLOAD PUSH1 0xB DUP2 SWAP1 SSTORE POP PUSH1 0xA SLOAD PUSH1 0xC DUP2 SWAP1 SSTORE POP POP POP PUSH2 0x3D07 JUMP JUMPDEST PUSH1 0x0 DUP4 EQ ISZERO PUSH2 0x400A JUMPI PUSH1 0x0 PUSH1 0xC SLOAD SWAP1 POP PUSH2 0x3F31 DUP3 DUP8 PUSH2 0x3F26 SWAP2 SWAP1 PUSH2 0x5DE6 JUMP JUMPDEST PUSH1 0xE SLOAD PUSH1 0x28 SLOAD PUSH2 0x414A JUMP JUMPDEST PUSH1 0xB PUSH1 0x0 DUP3 DUP3 SLOAD PUSH2 0x3F42 SWAP2 SWAP1 PUSH2 0x5B94 JUMP JUMPDEST SWAP3 POP POP DUP2 SWAP1 SSTORE POP PUSH2 0x3F5D PUSH1 0x5 SLOAD PUSH1 0x6 SLOAD PUSH1 0x7 SLOAD PUSH1 0xB SLOAD PUSH2 0x4BD8 JUMP JUMPDEST PUSH1 0xC DUP2 SWAP1 SSTORE POP PUSH2 0x3F72 DUP2 PUSH1 0xC SLOAD PUSH1 0xD SLOAD PUSH2 0x4BA3 JUMP JUMPDEST DUP4 PUSH2 0x3F7D SWAP2 SWAP1 PUSH2 0x5B94 JUMP JUMPDEST SWAP3 POP PUSH1 0x1 ISZERO ISZERO DUP6 ISZERO ISZERO EQ ISZERO PUSH2 0x3FB8 JUMPI PUSH2 0x3F9B DUP2 PUSH1 0xC SLOAD PUSH1 0xD SLOAD PUSH2 0x4BA3 JUMP JUMPDEST PUSH1 0xF PUSH1 0x0 DUP3 DUP3 SLOAD PUSH2 0x3FAC SWAP2 SWAP1 PUSH2 0x5B94 JUMP JUMPDEST SWAP3 POP POP DUP2 SWAP1 SSTORE POP PUSH2 0x4004 JUMP JUMPDEST DUP2 DUP7 PUSH2 0x3FC4 SWAP2 SWAP1 PUSH2 0x5DE6 JUMP JUMPDEST PUSH1 0x14 PUSH1 0x0 DUP3 DUP3 SLOAD PUSH2 0x3FD5 SWAP2 SWAP1 PUSH2 0x5B94 JUMP JUMPDEST SWAP3 POP POP DUP2 SWAP1 SSTORE POP PUSH2 0x3FEB DUP2 PUSH1 0xC SLOAD PUSH1 0xD SLOAD PUSH2 0x4BA3 JUMP JUMPDEST PUSH1 0x13 PUSH1 0x0 DUP3 DUP3 SLOAD PUSH2 0x3FFC SWAP2 SWAP1 PUSH2 0x5DE6 JUMP JUMPDEST SWAP3 POP POP DUP2 SWAP1 SSTORE POP JUMPDEST POP PUSH2 0x4100 JUMP JUMPDEST PUSH1 0x0 PUSH1 0xB SLOAD SWAP1 POP PUSH2 0x402B DUP4 DUP6 PUSH2 0x4020 SWAP2 SWAP1 PUSH2 0x5DE6 JUMP JUMPDEST PUSH1 0xD SLOAD PUSH1 0x28 SLOAD PUSH2 0x414A JUMP JUMPDEST PUSH1 0xC PUSH1 0x0 DUP3 DUP3 SLOAD PUSH2 0x403C SWAP2 SWAP1 PUSH2 0x5DE6 JUMP JUMPDEST SWAP3 POP POP DUP2 SWAP1 SSTORE POP PUSH2 0x4057 PUSH1 0x5 SLOAD PUSH1 0x6 SLOAD PUSH1 0x7 SLOAD PUSH1 0xC SLOAD PUSH2 0x4F06 JUMP JUMPDEST PUSH1 0xB DUP2 SWAP1 SSTORE POP PUSH2 0x406C PUSH1 0xB SLOAD DUP3 PUSH1 0xE SLOAD PUSH2 0x4BA3 JUMP JUMPDEST DUP3 PUSH2 0x4077 SWAP2 SWAP1 PUSH2 0x5B94 JUMP JUMPDEST SWAP2 POP PUSH1 0x1 ISZERO ISZERO DUP6 ISZERO ISZERO EQ ISZERO PUSH2 0x40AF JUMPI DUP3 DUP5 PUSH2 0x4092 SWAP2 SWAP1 PUSH2 0x5DE6 JUMP JUMPDEST PUSH1 0xF PUSH1 0x0 DUP3 DUP3 SLOAD PUSH2 0x40A3 SWAP2 SWAP1 PUSH2 0x5B94 JUMP JUMPDEST SWAP3 POP POP DUP2 SWAP1 SSTORE POP PUSH2 0x40FB JUMP JUMPDEST PUSH2 0x40BE PUSH1 0xB SLOAD DUP3 PUSH1 0xE SLOAD PUSH2 0x4BA3 JUMP JUMPDEST PUSH1 0x14 PUSH1 0x0 DUP3 DUP3 SLOAD PUSH2 0x40CF SWAP2 SWAP1 PUSH2 0x5B94 JUMP JUMPDEST SWAP3 POP POP DUP2 SWAP1 SSTORE POP DUP3 DUP5 PUSH2 0x40E2 SWAP2 SWAP1 PUSH2 0x5DE6 JUMP JUMPDEST PUSH1 0x13 PUSH1 0x0 DUP3 DUP3 SLOAD PUSH2 0x40F3 SWAP2 SWAP1 PUSH2 0x5DE6 JUMP JUMPDEST SWAP3 POP POP DUP2 SWAP1 SSTORE POP JUMPDEST DUP2 SWAP3 POP POP JUMPDEST POP PUSH1 0x1 PUSH1 0x2B DUP2 SWAP1 SSTORE POP SWAP4 SWAP3 POP POP POP JUMP JUMPDEST PUSH1 0x0 DUP2 DUP4 DUP6 DUP8 DUP10 PUSH2 0x4121 SWAP2 SWAP1 PUSH2 0x5D8C JUMP JUMPDEST PUSH2 0x412B SWAP2 SWAP1 PUSH2 0x5D8C JUMP JUMPDEST PUSH2 0x4135 SWAP2 SWAP1 PUSH2 0x5BEA JUMP JUMPDEST PUSH2 0x413F SWAP2 SWAP1 PUSH2 0x5BEA JUMP JUMPDEST SWAP1 POP SWAP6 SWAP5 POP POP POP POP POP JUMP JUMPDEST PUSH1 0x0 DUP2 DUP4 DUP6 PUSH2 0x4159 SWAP2 SWAP1 PUSH2 0x5D8C JUMP JUMPDEST PUSH2 0x4163 SWAP2 SWAP1 PUSH2 0x5BEA JUMP JUMPDEST SWAP1 POP SWAP4 SWAP3 POP POP POP JUMP JUMPDEST PUSH1 0x0 PUSH1 0x1 PUSH1 0x2B SLOAD EQ PUSH2 0x41B3 JUMPI PUSH1 0x40 MLOAD PUSH32 0x8C379A000000000000000000000000000000000000000000000000000000000 DUP2 MSTORE PUSH1 0x4 ADD PUSH2 0x41AA SWAP1 PUSH2 0x5AD8 JUMP JUMPDEST PUSH1 0x40 MLOAD DUP1 SWAP2 SUB SWAP1 REVERT JUMPDEST PUSH1 0x0 PUSH1 0x2B DUP2 SWAP1 SSTORE POP PUSH1 0x0 JUMPDEST PUSH2 0x41DD PUSH2 0x41D2 PUSH1 0xA SLOAD PUSH1 0x16 SLOAD PUSH1 0x28 SLOAD PUSH2 0x414A JUMP JUMPDEST PUSH1 0xC SLOAD PUSH1 0xD SLOAD PUSH2 0x4BA3 JUMP JUMPDEST DUP2 DUP7 PUSH2 0x41E9 SWAP2 SWAP1 PUSH2 0x5DE6 JUMP JUMPDEST GT ISZERO PUSH2 0x43BE JUMPI PUSH1 0x0 PUSH2 0x4202 PUSH1 0xA SLOAD PUSH1 0x16 SLOAD PUSH1 0x28 SLOAD PUSH2 0x414A JUMP JUMPDEST SWAP1 POP PUSH1 0x0 PUSH2 0x4218 PUSH1 0x5 SLOAD PUSH1 0x6 SLOAD PUSH1 0x7 SLOAD DUP6 PUSH2 0x4F06 JUMP JUMPDEST SWAP1 POP PUSH1 0x0 DUP6 GT DUP1 ISZERO PUSH2 0x4242 JUMPI POP DUP5 PUSH2 0x4235 PUSH1 0xB SLOAD DUP4 PUSH1 0xE SLOAD PUSH2 0x4BA3 JUMP JUMPDEST DUP6 PUSH2 0x4240 SWAP2 SWAP1 PUSH2 0x5B94 JUMP JUMPDEST GT JUMPDEST ISZERO PUSH2 0x424E JUMPI POP POP PUSH2 0x43BE JUMP JUMPDEST PUSH2 0x425D PUSH1 0xB SLOAD DUP3 PUSH1 0xE SLOAD PUSH2 0x4BA3 JUMP JUMPDEST DUP5 PUSH2 0x4268 SWAP2 SWAP1 PUSH2 0x5B94 JUMP JUMPDEST SWAP4 POP PUSH2 0x4279 DUP3 PUSH1 0xC SLOAD PUSH1 0xD SLOAD PUSH2 0x4BA3 JUMP JUMPDEST DUP4 PUSH2 0x4284 SWAP2 SWAP1 PUSH2 0x5B94 JUMP JUMPDEST SWAP3 POP PUSH1 0x1 ISZERO ISZERO DUP7 ISZERO ISZERO EQ ISZERO PUSH2 0x42BF JUMPI PUSH2 0x42A2 PUSH1 0xB SLOAD DUP3 PUSH1 0xE SLOAD PUSH2 0x4BA3 JUMP JUMPDEST PUSH1 0x10 PUSH1 0x0 DUP3 DUP3 SLOAD PUSH2 0x42B3 SWAP2 SWAP1 PUSH2 0x5B94 JUMP JUMPDEST SWAP3 POP POP DUP2 SWAP1 SSTORE POP PUSH2 0x430E JUMP JUMPDEST PUSH2 0x42CE PUSH1 0xB SLOAD DUP3 PUSH1 0xE SLOAD PUSH2 0x4BA3 JUMP JUMPDEST PUSH1 0x14 PUSH1 0x0 DUP3 DUP3 SLOAD PUSH2 0x42DF SWAP2 SWAP1 PUSH2 0x5DE6 JUMP JUMPDEST SWAP3 POP POP DUP2 SWAP1 SSTORE POP PUSH2 0x42F5 DUP3 PUSH1 0xC SLOAD PUSH1 0xD SLOAD PUSH2 0x4BA3 JUMP JUMPDEST PUSH1 0x13 PUSH1 0x0 DUP3 DUP3 SLOAD PUSH2 0x4306 SWAP2 SWAP1 PUSH2 0x5B94 JUMP JUMPDEST SWAP3 POP POP DUP2 SWAP1 SSTORE POP JUMPDEST PUSH2 0x431D PUSH1 0xD SLOAD PUSH1 0xA SLOAD DUP5 PUSH2 0x414A JUMP JUMPDEST PUSH1 0xD DUP2 SWAP1 SSTORE POP PUSH2 0x4332 PUSH1 0xE SLOAD PUSH1 0x9 SLOAD DUP4 PUSH2 0x414A JUMP JUMPDEST PUSH1 0xE DUP2 SWAP1 SSTORE POP PUSH2 0x435B PUSH2 0x434E PUSH1 0x5 SLOAD PUSH1 0x6 SLOAD PUSH1 0x7 SLOAD DUP6 DUP8 PUSH2 0x4CD8 JUMP JUMPDEST DUP4 PUSH1 0x9 SLOAD DUP5 PUSH1 0xA SLOAD PUSH2 0x4110 JUMP JUMPDEST PUSH1 0x15 DUP2 SWAP1 SSTORE POP PUSH2 0x4375 PUSH1 0x9 SLOAD PUSH1 0xA SLOAD PUSH1 0x7 SLOAD PUSH1 0x15 SLOAD PUSH2 0x4DCC JUMP JUMPDEST PUSH1 0x5 DUP2 SWAP1 SSTORE POP PUSH1 0x5 SLOAD PUSH1 0x28 SLOAD PUSH1 0x2 PUSH2 0x438D SWAP2 SWAP1 PUSH2 0x5D8C JUMP JUMPDEST PUSH2 0x4397 SWAP2 SWAP1 PUSH2 0x5DE6 JUMP JUMPDEST PUSH1 0x6 DUP2 SWAP1 SSTORE POP PUSH2 0x43A5 PUSH2 0x46E1 JUMP JUMPDEST PUSH1 0x9 SLOAD PUSH1 0xB DUP2 SWAP1 SSTORE POP PUSH1 0xA SLOAD PUSH1 0xC DUP2 SWAP1 SSTORE POP POP POP PUSH2 0x41BE JUMP JUMPDEST PUSH1 0x0 DUP4 EQ ISZERO PUSH2 0x44C1 JUMPI PUSH1 0x0 PUSH1 0xB SLOAD SWAP1 POP PUSH2 0x43E8 DUP3 DUP8 PUSH2 0x43DD SWAP2 SWAP1 PUSH2 0x5DE6 JUMP JUMPDEST PUSH1 0xD SLOAD PUSH1 0x28 SLOAD PUSH2 0x414A JUMP JUMPDEST PUSH1 0xC PUSH1 0x0 DUP3 DUP3 SLOAD PUSH2 0x43F9 SWAP2 SWAP1 PUSH2 0x5B94 JUMP JUMPDEST SWAP3 POP POP DUP2 SWAP1 SSTORE POP PUSH2 0x4414 PUSH1 0x5 SLOAD PUSH1 0x6 SLOAD PUSH1 0x7 SLOAD PUSH1 0xC SLOAD PUSH2 0x4F06 JUMP JUMPDEST PUSH1 0xB DUP2 SWAP1 SSTORE POP PUSH2 0x4429 DUP2 PUSH1 0xB SLOAD PUSH1 0xE SLOAD PUSH2 0x4BA3 JUMP JUMPDEST DUP4 PUSH2 0x4434 SWAP2 SWAP1 PUSH2 0x5B94 JUMP JUMPDEST SWAP3 POP PUSH1 0x1 ISZERO ISZERO DUP6 ISZERO ISZERO EQ ISZERO PUSH2 0x446F JUMPI PUSH2 0x4452 DUP2 PUSH1 0xB SLOAD PUSH1 0xE SLOAD PUSH2 0x4BA3 JUMP JUMPDEST PUSH1 0x10 PUSH1 0x0 DUP3 DUP3 SLOAD PUSH2 0x4463 SWAP2 SWAP1 PUSH2 0x5B94 JUMP JUMPDEST SWAP3 POP POP DUP2 SWAP1 SSTORE POP PUSH2 0x44BB JUMP JUMPDEST DUP2 DUP7 PUSH2 0x447B SWAP2 SWAP1 PUSH2 0x5DE6 JUMP JUMPDEST PUSH1 0x13 PUSH1 0x0 DUP3 DUP3 SLOAD PUSH2 0x448C SWAP2 SWAP1 PUSH2 0x5B94 JUMP JUMPDEST SWAP3 POP POP DUP2 SWAP1 SSTORE POP PUSH2 0x44A2 DUP2 PUSH1 0xB SLOAD PUSH1 0xE SLOAD PUSH2 0x4BA3 JUMP JUMPDEST PUSH1 0x14 PUSH1 0x0 DUP3 DUP3 SLOAD PUSH2 0x44B3 SWAP2 SWAP1 PUSH2 0x5DE6 JUMP JUMPDEST SWAP3 POP POP DUP2 SWAP1 SSTORE POP JUMPDEST POP PUSH2 0x45B7 JUMP JUMPDEST PUSH1 0x0 PUSH1 0xC SLOAD SWAP1 POP PUSH2 0x44E2 DUP4 DUP6 PUSH2 0x44D7 SWAP2 SWAP1 PUSH2 0x5DE6 JUMP JUMPDEST PUSH1 0xE SLOAD PUSH1 0x28 SLOAD PUSH2 0x414A JUMP JUMPDEST PUSH1 0xB PUSH1 0x0 DUP3 DUP3 SLOAD PUSH2 0x44F3 SWAP2 SWAP1 PUSH2 0x5DE6 JUMP JUMPDEST SWAP3 POP POP DUP2 SWAP1 SSTORE POP PUSH2 0x450E PUSH1 0x5 SLOAD PUSH1 0x6 SLOAD PUSH1 0x7 SLOAD PUSH1 0xB SLOAD PUSH2 0x4BD8 JUMP JUMPDEST PUSH1 0xC DUP2 SWAP1 SSTORE POP PUSH2 0x4523 PUSH1 0xC SLOAD DUP3 PUSH1 0xD SLOAD PUSH2 0x4BA3 JUMP JUMPDEST DUP3 PUSH2 0x452E SWAP2 SWAP1 PUSH2 0x5B94 JUMP JUMPDEST SWAP2 POP PUSH1 0x1 ISZERO ISZERO DUP6 ISZERO ISZERO EQ ISZERO PUSH2 0x4566 JUMPI DUP3 DUP5 PUSH2 0x4549 SWAP2 SWAP1 PUSH2 0x5DE6 JUMP JUMPDEST PUSH1 0x10 PUSH1 0x0 DUP3 DUP3 SLOAD PUSH2 0x455A SWAP2 SWAP1 PUSH2 0x5B94 JUMP JUMPDEST SWAP3 POP POP DUP2 SWAP1 SSTORE POP PUSH2 0x45B2 JUMP JUMPDEST PUSH2 0x4575 PUSH1 0xC SLOAD DUP3 PUSH1 0xD SLOAD PUSH2 0x4BA3 JUMP JUMPDEST PUSH1 0x13 PUSH1 0x0 DUP3 DUP3 SLOAD PUSH2 0x4586 SWAP2 SWAP1 PUSH2 0x5B94 JUMP JUMPDEST SWAP3 POP POP DUP2 SWAP1 SSTORE POP DUP3 DUP5 PUSH2 0x4599 SWAP2 SWAP1 PUSH2 0x5DE6 JUMP JUMPDEST PUSH1 0x14 PUSH1 0x0 DUP3 DUP3 SLOAD PUSH2 0x45AA SWAP2 SWAP1 PUSH2 0x5DE6 JUMP JUMPDEST SWAP3 POP POP DUP2 SWAP1 SSTORE POP JUMPDEST DUP2 SWAP3 POP POP JUMPDEST POP PUSH1 0x1 PUSH1 0x2B DUP2 SWAP1 SSTORE POP SWAP4 SWAP3 POP POP POP JUMP JUMPDEST PUSH2 0x45DC DUP2 PUSH1 0x0 SLOAD PUSH2 0x4A04 SWAP1 SWAP2 SWAP1 PUSH4 0xFFFFFFFF AND JUMP JUMPDEST PUSH1 0x0 DUP2 SWAP1 SSTORE POP PUSH2 0x4634 DUP2 PUSH1 0x1 PUSH1 0x0 DUP6 PUSH20 0xFFFFFFFFFFFFFFFFFFFFFFFFFFFFFFFFFFFFFFFF AND PUSH20 0xFFFFFFFFFFFFFFFFFFFFFFFFFFFFFFFFFFFFFFFF AND DUP2 MSTORE PUSH1 0x20 ADD SWAP1 DUP2 MSTORE PUSH1 0x20 ADD PUSH1 0x0 KECCAK256 SLOAD PUSH2 0x4A04 SWAP1 SWAP2 SWAP1 PUSH4 0xFFFFFFFF AND JUMP JUMPDEST PUSH1 0x1 PUSH1 0x0 DUP5 PUSH20 0xFFFFFFFFFFFFFFFFFFFFFFFFFFFFFFFFFFFFFFFF AND PUSH20 0xFFFFFFFFFFFFFFFFFFFFFFFFFFFFFFFFFFFFFFFF AND DUP2 MSTORE PUSH1 0x20 ADD SWAP1 DUP2 MSTORE PUSH1 0x20 ADD PUSH1 0x0 KECCAK256 DUP2 SWAP1 SSTORE POP DUP2 PUSH20 0xFFFFFFFFFFFFFFFFFFFFFFFFFFFFFFFFFFFFFFFF AND PUSH1 0x0 PUSH20 0xFFFFFFFFFFFFFFFFFFFFFFFFFFFFFFFFFFFFFFFF AND PUSH32 0xDDF252AD1BE2C89B69C2B068FC378DAA952BA7F163C4A11628F55A4DF523B3EF DUP4 PUSH1 0x40 MLOAD PUSH2 0x46D5 SWAP2 SWAP1 PUSH2 0x5AF8 JUMP JUMPDEST PUSH1 0x40 MLOAD DUP1 SWAP2 SUB SWAP1 LOG3 POP POP JUMP JUMPDEST PUSH1 0x0 PUSH2 0x4703 PUSH1 0x14 SLOAD PUSH1 0x5 SLOAD PUSH1 0xE SLOAD PUSH1 0x13 SLOAD PUSH1 0x6 SLOAD PUSH1 0xD SLOAD PUSH1 0x12 SLOAD PUSH1 0x11 SLOAD PUSH2 0x5006 JUMP JUMPDEST SWAP1 POP PUSH1 0x28 SLOAD DUP2 PUSH1 0x8 SLOAD PUSH2 0x4716 SWAP2 SWAP1 PUSH2 0x5D8C JUMP JUMPDEST PUSH2 0x4720 SWAP2 SWAP1 PUSH2 0x5BEA JUMP JUMPDEST PUSH1 0x7 DUP2 SWAP1 SSTORE POP PUSH1 0x2 PUSH1 0x7 SLOAD PUSH2 0x4735 SWAP2 SWAP1 PUSH2 0x5BEA JUMP JUMPDEST PUSH1 0x9 DUP2 SWAP1 SSTORE POP PUSH1 0x9 SLOAD PUSH1 0xA DUP2 SWAP1 SSTORE POP POP JUMP JUMPDEST PUSH2 0x4799 DUP2 PUSH1 0x1 PUSH1 0x0 DUP6 PUSH20 0xFFFFFFFFFFFFFFFFFFFFFFFFFFFFFFFFFFFFFFFF AND PUSH20 0xFFFFFFFFFFFFFFFFFFFFFFFFFFFFFFFFFFFFFFFF AND DUP2 MSTORE PUSH1 0x20 ADD SWAP1 DUP2 MSTORE PUSH1 0x20 ADD PUSH1 0x0 KECCAK256 SLOAD PUSH2 0x36B4 SWAP1 SWAP2 SWAP1 PUSH4 0xFFFFFFFF AND JUMP JUMPDEST PUSH1 0x1 PUSH1 0x0 DUP5 PUSH20 0xFFFFFFFFFFFFFFFFFFFFFFFFFFFFFFFFFFFFFFFF AND PUSH20 0xFFFFFFFFFFFFFFFFFFFFFFFFFFFFFFFFFFFFFFFF AND DUP2 MSTORE PUSH1 0x20 ADD SWAP1 DUP2 MSTORE PUSH1 0x20 ADD PUSH1 0x0 KECCAK256 DUP2 SWAP1 SSTORE POP PUSH2 0x47F1 DUP2 PUSH1 0x0 SLOAD PUSH2 0x36B4 SWAP1 SWAP2 SWAP1 PUSH4 0xFFFFFFFF AND JUMP JUMPDEST PUSH1 0x0 DUP2 SWAP1 SSTORE POP PUSH1 0x0 PUSH20 0xFFFFFFFFFFFFFFFFFFFFFFFFFFFFFFFFFFFFFFFF AND DUP3 PUSH20 0xFFFFFFFFFFFFFFFFFFFFFFFFFFFFFFFFFFFFFFFF AND PUSH32 0xDDF252AD1BE2C89B69C2B068FC378DAA952BA7F163C4A11628F55A4DF523B3EF DUP4 PUSH1 0x40 MLOAD PUSH2 0x4855 SWAP2 SWAP1 PUSH2 0x5AF8 JUMP JUMPDEST PUSH1 0x40 MLOAD DUP1 SWAP2 SUB SWAP1 LOG3 POP POP JUMP JUMPDEST PUSH1 0x0 DUP1 DUP5 PUSH20 0xFFFFFFFFFFFFFFFFFFFFFFFFFFFFFFFFFFFFFFFF AND PUSH1 0x40 MLOAD DUP1 PUSH1 0x40 ADD PUSH1 0x40 MSTORE DUP1 PUSH1 0x19 DUP2 MSTORE PUSH1 0x20 ADD PUSH32 0x7472616E7366657228616464726573732C75696E743235362900000000000000 DUP2 MSTORE POP DUP1 MLOAD SWAP1 PUSH1 0x20 ADD KECCAK256 DUP6 DUP6 PUSH1 0x40 MLOAD PUSH1 0x24 ADD PUSH2 0x48CB SWAP3 SWAP2 SWAP1 PUSH2 0x5911 JUMP JUMPDEST PUSH1 0x40 MLOAD PUSH1 0x20 DUP2 DUP4 SUB SUB DUP2 MSTORE SWAP1 PUSH1 0x40 MSTORE SWAP1 PUSH28 0xFFFFFFFFFFFFFFFFFFFFFFFFFFFFFFFFFFFFFFFFFFFFFFFFFFFFFFFF NOT AND PUSH1 0x20 DUP3 ADD DUP1 MLOAD PUSH28 0xFFFFFFFFFFFFFFFFFFFFFFFFFFFFFFFFFFFFFFFFFFFFFFFFFFFFFFFF DUP4 DUP2 DUP4 AND OR DUP4 MSTORE POP POP POP POP PUSH1 0x40 MLOAD PUSH2 0x4935 SWAP2 SWAP1 PUSH2 0x5863 JUMP JUMPDEST PUSH1 0x0 PUSH1 0x40 MLOAD DUP1 DUP4 SUB DUP2 PUSH1 0x0 DUP7 GAS CALL SWAP2 POP POP RETURNDATASIZE DUP1 PUSH1 0x0 DUP2 EQ PUSH2 0x4972 JUMPI PUSH1 0x40 MLOAD SWAP2 POP PUSH1 0x1F NOT PUSH1 0x3F RETURNDATASIZE ADD AND DUP3 ADD PUSH1 0x40 MSTORE RETURNDATASIZE DUP3 MSTORE RETURNDATASIZE PUSH1 0x0 PUSH1 0x20 DUP5 ADD RETURNDATACOPY PUSH2 0x4977 JUMP JUMPDEST PUSH1 0x60 SWAP2 POP JUMPDEST POP SWAP2 POP SWAP2 POP DUP2 DUP1 ISZERO PUSH2 0x49A5 JUMPI POP PUSH1 0x0 DUP2 MLOAD EQ DUP1 PUSH2 0x49A4 JUMPI POP DUP1 DUP1 PUSH1 0x20 ADD SWAP1 MLOAD DUP2 ADD SWAP1 PUSH2 0x49A3 SWAP2 SWAP1 PUSH2 0x5521 JUMP JUMPDEST JUMPDEST JUMPDEST PUSH2 0x49E4 JUMPI PUSH1 0x40 MLOAD PUSH32 0x8C379A000000000000000000000000000000000000000000000000000000000 DUP2 MSTORE PUSH1 0x4 ADD PUSH2 0x49DB SWAP1 PUSH2 0x5AB8 JUMP JUMPDEST PUSH1 0x40 MLOAD DUP1 SWAP2 SUB SWAP1 REVERT JUMPDEST POP POP POP POP POP JUMP JUMPDEST PUSH1 0x0 DUP2 DUP4 GT PUSH2 0x49FA JUMPI DUP2 PUSH2 0x49FC JUMP JUMPDEST DUP3 JUMPDEST SWAP1 POP SWAP3 SWAP2 POP POP JUMP JUMPDEST PUSH1 0x0 DUP3 DUP3 DUP5 PUSH2 0x4A13 SWAP2 SWAP1 PUSH2 0x5B94 JUMP JUMPDEST SWAP2 POP DUP2 LT ISZERO PUSH2 0x4A57 JUMPI PUSH1 0x40 MLOAD PUSH32 0x8C379A000000000000000000000000000000000000000000000000000000000 DUP2 MSTORE PUSH1 0x4 ADD PUSH2 0x4A4E SWAP1 PUSH2 0x5A78 JUMP JUMPDEST PUSH1 0x40 MLOAD DUP1 SWAP2 SUB SWAP1 REVERT JUMPDEST SWAP3 SWAP2 POP POP JUMP JUMPDEST PUSH1 0x0 DUP1 PUSH1 0x0 PUSH2 0x4A75 DUP13 DUP12 PUSH8 0xDE0B6B3A7640000 PUSH2 0x414A JUMP JUMPDEST SWAP1 POP PUSH1 0x0 PUSH2 0x4A8C DUP13 DUP12 PUSH8 0xDE0B6B3A7640000 PUSH2 0x414A JUMP JUMPDEST SWAP1 POP PUSH1 0x0 PUSH2 0x4A9B DUP4 DUP4 DUP9 PUSH2 0x5066 JUMP JUMPDEST SWAP1 POP PUSH1 0x0 DUP2 PUSH8 0x1BC16D674EC80000 PUSH2 0x4AB3 SWAP2 SWAP1 PUSH2 0x5DE6 JUMP JUMPDEST SWAP1 POP PUSH2 0x4ACC PUSH2 0x4AC5 DUP4 DUP4 DUP11 DUP9 DUP9 PUSH2 0x4CD8 JUMP JUMPDEST DUP14 DUP16 PUSH2 0x414A JUMP JUMPDEST SWAP6 POP PUSH2 0x4AE5 PUSH2 0x4ADE DUP11 DUP11 DUP11 DUP16 DUP16 PUSH2 0x4CD8 JUMP JUMPDEST DUP14 DUP16 PUSH2 0x414A JUMP JUMPDEST SWAP5 POP POP POP POP POP SWAP10 POP SWAP10 SWAP8 POP POP POP POP POP POP POP POP JUMP JUMPDEST PUSH1 0x0 DUP1 DUP10 DUP10 GT ISZERO PUSH2 0x4B3C JUMPI PUSH2 0x4B0F DUP8 DUP5 DUP9 PUSH2 0x50EA JUMP JUMPDEST PUSH2 0x1680 PUSH2 0x4B1D DUP12 DUP14 DUP15 PUSH2 0x4BA3 JUMP JUMPDEST PUSH2 0x4B27 SWAP2 SWAP1 PUSH2 0x5BEA JUMP JUMPDEST PUSH2 0x4B31 SWAP2 SWAP1 PUSH2 0x5B94 JUMP JUMPDEST SWAP2 POP PUSH1 0x0 SWAP1 POP PUSH2 0x4B70 JUMP JUMPDEST PUSH2 0x4B47 DUP9 DUP6 DUP9 PUSH2 0x50EA JUMP JUMPDEST PUSH2 0x1680 PUSH2 0x4B55 DUP13 DUP13 DUP15 PUSH2 0x4BA3 JUMP JUMPDEST PUSH2 0x4B5F SWAP2 SWAP1 PUSH2 0x5BEA JUMP JUMPDEST PUSH2 0x4B69 SWAP2 SWAP1 PUSH2 0x5B94 JUMP JUMPDEST SWAP2 POP PUSH1 0x1 SWAP1 POP JUMPDEST DUP5 PUSH2 0x780 DUP4 PUSH2 0x4B7F SWAP2 SWAP1 PUSH2 0x5D8C JUMP JUMPDEST GT ISZERO PUSH2 0x4B96 JUMPI PUSH2 0x780 DUP6 PUSH2 0x4B93 SWAP2 SWAP1 PUSH2 0x5BEA JUMP JUMPDEST SWAP2 POP JUMPDEST SWAP9 POP SWAP9 SWAP7 POP POP POP POP POP POP POP JUMP JUMPDEST PUSH1 0x0 DUP2 PUSH8 0xDE0B6B3A7640000 DUP5 DUP7 PUSH2 0x4BBB SWAP2 SWAP1 PUSH2 0x5DE6 JUMP JUMPDEST PUSH2 0x4BC5 SWAP2 SWAP1 PUSH2 0x5D8C JUMP JUMPDEST PUSH2 0x4BCF SWAP2 SWAP1 PUSH2 0x5BEA JUMP JUMPDEST SWAP1 POP SWAP4 SWAP3 POP POP POP JUMP JUMPDEST PUSH1 0x0 DUP2 DUP5 PUSH1 0x8 PUSH2 0x4BE8 SWAP2 SWAP1 PUSH2 0x5D8C JUMP JUMPDEST PUSH2 0x4BF2 SWAP2 SWAP1 PUSH2 0x5D8C JUMP JUMPDEST PUSH2 0x4C8B PUSH8 0xDE0B6B3A7640000 DUP6 DUP7 DUP8 PUSH2 0x4C0B SWAP2 SWAP1 PUSH2 0x5D8C JUMP JUMPDEST PUSH2 0x4C15 SWAP2 SWAP1 PUSH2 0x5D8C JUMP JUMPDEST PUSH1 0x0 PUSH2 0x4C21 SWAP2 SWAP1 PUSH2 0x5DE6 JUMP JUMPDEST DUP6 DUP9 PUSH1 0x10 PUSH2 0x4C2F SWAP2 SWAP1 PUSH2 0x5D8C JUMP JUMPDEST PUSH2 0x4C39 SWAP2 SWAP1 PUSH2 0x5D8C JUMP JUMPDEST PUSH2 0x4C43 SWAP2 SWAP1 PUSH2 0x5D8C JUMP JUMPDEST PUSH2 0x4C4D SWAP2 SWAP1 PUSH2 0x5D8C JUMP JUMPDEST PUSH1 0x2 DUP6 DUP7 DUP11 PUSH1 0x4 PUSH2 0x4C5E SWAP2 SWAP1 PUSH2 0x5D8C JUMP JUMPDEST PUSH2 0x4C68 SWAP2 SWAP1 PUSH2 0x5D8C JUMP JUMPDEST PUSH2 0x4C72 SWAP2 SWAP1 PUSH2 0x5D8C JUMP JUMPDEST PUSH2 0x4C7C SWAP2 SWAP1 PUSH2 0x5C6E JUMP JUMPDEST PUSH2 0x4C86 SWAP2 SWAP1 PUSH2 0x5DE6 JUMP JUMPDEST PUSH2 0x5137 JUMP JUMPDEST DUP4 DUP5 DUP9 PUSH1 0x4 PUSH2 0x4C9A SWAP2 SWAP1 PUSH2 0x5D8C JUMP JUMPDEST PUSH2 0x4CA4 SWAP2 SWAP1 PUSH2 0x5D8C JUMP JUMPDEST PUSH2 0x4CAE SWAP2 SWAP1 PUSH2 0x5D8C JUMP JUMPDEST PUSH1 0x0 PUSH2 0x4CBA SWAP2 SWAP1 PUSH2 0x5DE6 JUMP JUMPDEST PUSH2 0x4CC4 SWAP2 SWAP1 PUSH2 0x5B94 JUMP JUMPDEST PUSH2 0x4CCE SWAP2 SWAP1 PUSH2 0x5BEA JUMP JUMPDEST SWAP1 POP SWAP5 SWAP4 POP POP POP POP JUMP JUMPDEST PUSH1 0x0 DUP2 DUP5 DUP6 DUP7 PUSH2 0x4CE8 SWAP2 SWAP1 PUSH2 0x5D8C JUMP JUMPDEST PUSH2 0x4CF2 SWAP2 SWAP1 PUSH2 0x5D8C JUMP JUMPDEST PUSH2 0x4CFC SWAP2 SWAP1 PUSH2 0x5D8C JUMP JUMPDEST DUP3 DUP4 DUP6 DUP7 DUP11 PUSH1 0x4 PUSH2 0x4D0D SWAP2 SWAP1 PUSH2 0x5D8C JUMP JUMPDEST PUSH2 0x4D17 SWAP2 SWAP1 PUSH2 0x5D8C JUMP JUMPDEST PUSH2 0x4D21 SWAP2 SWAP1 PUSH2 0x5D8C JUMP JUMPDEST PUSH2 0x4D2B SWAP2 SWAP1 PUSH2 0x5D8C JUMP JUMPDEST PUSH2 0x4D35 SWAP2 SWAP1 PUSH2 0x5D8C JUMP JUMPDEST PUSH2 0x4D3F SWAP2 SWAP1 PUSH2 0x5B94 JUMP JUMPDEST PUSH8 0xDE0B6B3A7640000 DUP5 DUP7 DUP8 DUP9 PUSH2 0x4D56 SWAP2 SWAP1 PUSH2 0x5D8C JUMP JUMPDEST PUSH2 0x4D60 SWAP2 SWAP1 PUSH2 0x5D8C JUMP JUMPDEST PUSH2 0x4D6A SWAP2 SWAP1 PUSH2 0x5D8C JUMP JUMPDEST DUP5 DUP6 DUP8 DUP9 DUP12 PUSH1 0x4 PUSH2 0x4D7B SWAP2 SWAP1 PUSH2 0x5D8C JUMP JUMPDEST PUSH2 0x4D85 SWAP2 SWAP1 PUSH2 0x5D8C JUMP JUMPDEST PUSH2 0x4D8F SWAP2 SWAP1 PUSH2 0x5D8C JUMP JUMPDEST PUSH2 0x4D99 SWAP2 SWAP1 PUSH2 0x5D8C JUMP JUMPDEST PUSH2 0x4DA3 SWAP2 SWAP1 PUSH2 0x5D8C JUMP JUMPDEST PUSH2 0x4DAD SWAP2 SWAP1 PUSH2 0x5B94 JUMP JUMPDEST PUSH2 0x4DB7 SWAP2 SWAP1 PUSH2 0x5D8C JUMP JUMPDEST PUSH2 0x4DC1 SWAP2 SWAP1 PUSH2 0x5BEA JUMP JUMPDEST SWAP1 POP SWAP6 SWAP5 POP POP POP POP POP JUMP JUMPDEST PUSH1 0x0 DUP2 PUSH8 0xDE0B6B3A7640000 PUSH2 0x4DE2 SWAP2 SWAP1 PUSH2 0x5B94 JUMP JUMPDEST DUP5 DUP6 DUP8 DUP9 PUSH1 0x4 PUSH2 0x4DF2 SWAP2 SWAP1 PUSH2 0x5D8C JUMP JUMPDEST PUSH2 0x4DFC SWAP2 SWAP1 PUSH2 0x5D8C JUMP JUMPDEST PUSH2 0x4E06 SWAP2 SWAP1 PUSH2 0x5D8C JUMP JUMPDEST PUSH2 0x4E10 SWAP2 SWAP1 PUSH2 0x5D8C JUMP JUMPDEST PUSH2 0x4E1A SWAP2 SWAP1 PUSH2 0x5D8C JUMP JUMPDEST PUSH8 0xDE0B6B3A7640000 DUP4 DUP7 DUP7 DUP8 DUP9 PUSH2 0x4E32 SWAP2 SWAP1 PUSH2 0x5D8C JUMP JUMPDEST PUSH2 0x4E3C SWAP2 SWAP1 PUSH2 0x5D8C JUMP JUMPDEST PUSH2 0x4E46 SWAP2 SWAP1 PUSH2 0x5D8C JUMP JUMPDEST PUSH2 0x4E50 SWAP2 SWAP1 PUSH2 0x5D8C JUMP JUMPDEST PUSH2 0x4E5A SWAP2 SWAP1 PUSH2 0x5D8C JUMP JUMPDEST PUSH15 0xC097CE7BC90715B34B9F1000000000 DUP8 DUP7 DUP8 DUP9 PUSH2 0x4E78 SWAP2 SWAP1 PUSH2 0x5D8C JUMP JUMPDEST PUSH2 0x4E82 SWAP2 SWAP1 PUSH2 0x5D8C JUMP JUMPDEST PUSH2 0x4E8C SWAP2 SWAP1 PUSH2 0x5D8C JUMP JUMPDEST PUSH2 0x4E96 SWAP2 SWAP1 PUSH2 0x5D8C JUMP JUMPDEST PUSH15 0xC097CE7BC90715B34B9F1000000000 DUP8 DUP9 DUP11 DUP12 PUSH1 0x8 PUSH2 0x4EB6 SWAP2 SWAP1 PUSH2 0x5D8C JUMP JUMPDEST PUSH2 0x4EC0 SWAP2 SWAP1 PUSH2 0x5D8C JUMP JUMPDEST PUSH2 0x4ECA SWAP2 SWAP1 PUSH2 0x5D8C JUMP JUMPDEST PUSH2 0x4ED4 SWAP2 SWAP1 PUSH2 0x5D8C JUMP JUMPDEST PUSH2 0x4EDE SWAP2 SWAP1 PUSH2 0x5D8C JUMP JUMPDEST PUSH2 0x4EE8 SWAP2 SWAP1 PUSH2 0x5B94 JUMP JUMPDEST PUSH2 0x4EF2 SWAP2 SWAP1 PUSH2 0x5DE6 JUMP JUMPDEST PUSH2 0x4EFC SWAP2 SWAP1 PUSH2 0x5BEA JUMP JUMPDEST SWAP1 POP SWAP5 SWAP4 POP POP POP POP JUMP JUMPDEST PUSH1 0x0 DUP2 DUP6 PUSH1 0x8 PUSH2 0x4F16 SWAP2 SWAP1 PUSH2 0x5D8C JUMP JUMPDEST PUSH2 0x4F20 SWAP2 SWAP1 PUSH2 0x5D8C JUMP JUMPDEST PUSH2 0x4FB9 PUSH8 0xDE0B6B3A7640000 DUP6 DUP7 DUP8 PUSH2 0x4F39 SWAP2 SWAP1 PUSH2 0x5D8C JUMP JUMPDEST PUSH2 0x4F43 SWAP2 SWAP1 PUSH2 0x5D8C JUMP JUMPDEST PUSH1 0x0 PUSH2 0x4F4F SWAP2 SWAP1 PUSH2 0x5DE6 JUMP JUMPDEST DUP6 DUP10 PUSH1 0x10 PUSH2 0x4F5D SWAP2 SWAP1 PUSH2 0x5D8C JUMP JUMPDEST PUSH2 0x4F67 SWAP2 SWAP1 PUSH2 0x5D8C JUMP JUMPDEST PUSH2 0x4F71 SWAP2 SWAP1 PUSH2 0x5D8C JUMP JUMPDEST PUSH2 0x4F7B SWAP2 SWAP1 PUSH2 0x5D8C JUMP JUMPDEST PUSH1 0x2 DUP6 DUP7 DUP10 PUSH1 0x4 PUSH2 0x4F8C SWAP2 SWAP1 PUSH2 0x5D8C JUMP JUMPDEST PUSH2 0x4F96 SWAP2 SWAP1 PUSH2 0x5D8C JUMP JUMPDEST PUSH2 0x4FA0 SWAP2 SWAP1 PUSH2 0x5D8C JUMP JUMPDEST PUSH2 0x4FAA SWAP2 SWAP1 PUSH2 0x5C6E JUMP JUMPDEST PUSH2 0x4FB4 SWAP2 SWAP1 PUSH2 0x5DE6 JUMP JUMPDEST PUSH2 0x5137 JUMP JUMPDEST DUP4 DUP5 DUP8 PUSH1 0x4 PUSH2 0x4FC8 SWAP2 SWAP1 PUSH2 0x5D8C JUMP JUMPDEST PUSH2 0x4FD2 SWAP2 SWAP1 PUSH2 0x5D8C JUMP JUMPDEST PUSH2 0x4FDC SWAP2 SWAP1 PUSH2 0x5D8C JUMP JUMPDEST PUSH1 0x0 PUSH2 0x4FE8 SWAP2 SWAP1 PUSH2 0x5DE6 JUMP JUMPDEST PUSH2 0x4FF2 SWAP2 SWAP1 PUSH2 0x5B94 JUMP JUMPDEST PUSH2 0x4FFC SWAP2 SWAP1 PUSH2 0x5BEA JUMP JUMPDEST SWAP1 POP SWAP5 SWAP4 POP POP POP POP JUMP JUMPDEST PUSH1 0x0 PUSH2 0x5058 PUSH2 0x5019 DUP5 DUP11 DUP11 DUP7 DUP11 DUP11 PUSH2 0x51B1 JUMP JUMPDEST PUSH23 0xA70C3C40A64E6C51999090B65F67D9240000000000000 PUSH2 0x503F DUP13 DUP13 DUP13 DUP13 DUP13 DUP13 PUSH2 0x51B1 JUMP JUMPDEST PUSH2 0x5049 SWAP2 SWAP1 PUSH2 0x5D8C JUMP JUMPDEST PUSH2 0x5053 SWAP2 SWAP1 PUSH2 0x5BEA JUMP JUMPDEST PUSH2 0x520D JUMP JUMPDEST SWAP1 POP SWAP9 SWAP8 POP POP POP POP POP POP POP POP JUMP JUMPDEST PUSH1 0x0 DUP3 DUP5 PUSH2 0x5074 SWAP2 SWAP1 PUSH2 0x5DE6 JUMP JUMPDEST PUSH8 0xDE0B6B3A7640000 DUP5 PUSH1 0x2 PUSH2 0x508A SWAP2 SWAP1 PUSH2 0x5D8C JUMP JUMPDEST DUP6 DUP8 PUSH1 0x4 DUP8 DUP9 DUP10 PUSH2 0x509B SWAP2 SWAP1 PUSH2 0x5D8C JUMP JUMPDEST PUSH2 0x50A5 SWAP2 SWAP1 PUSH2 0x5D8C JUMP JUMPDEST PUSH2 0x50AF SWAP2 SWAP1 PUSH2 0x5BEA JUMP JUMPDEST PUSH2 0x50B9 SWAP2 SWAP1 PUSH2 0x5BEA JUMP JUMPDEST PUSH2 0x50C3 SWAP2 SWAP1 PUSH2 0x5BEA JUMP JUMPDEST PUSH2 0x50CD SWAP2 SWAP1 PUSH2 0x5DE6 JUMP JUMPDEST PUSH2 0x50D7 SWAP2 SWAP1 PUSH2 0x5D8C JUMP JUMPDEST PUSH2 0x50E1 SWAP2 SWAP1 PUSH2 0x5BEA JUMP JUMPDEST SWAP1 POP SWAP4 SWAP3 POP POP POP JUMP JUMPDEST PUSH1 0x0 DUP2 PUSH2 0xE100 DUP6 DUP6 PUSH2 0x50FC SWAP2 SWAP1 PUSH2 0x5B94 JUMP JUMPDEST PUSH8 0xDE0B6B3A7640000 DUP8 PUSH2 0x5110 SWAP2 SWAP1 PUSH2 0x5D8C JUMP JUMPDEST PUSH2 0x511A SWAP2 SWAP1 PUSH2 0x5BEA JUMP JUMPDEST PUSH2 0x5124 SWAP2 SWAP1 PUSH2 0x5BEA JUMP JUMPDEST PUSH2 0x512E SWAP2 SWAP1 PUSH2 0x5B94 JUMP JUMPDEST SWAP1 POP SWAP4 SWAP3 POP POP POP JUMP JUMPDEST PUSH1 0x0 PUSH1 0x3 DUP3 GT ISZERO PUSH2 0x519E JUMPI DUP2 SWAP1 POP PUSH1 0x0 PUSH1 0x1 PUSH1 0x2 DUP5 PUSH2 0x5156 SWAP2 SWAP1 PUSH2 0x5BEA JUMP JUMPDEST PUSH2 0x5160 SWAP2 SWAP1 PUSH2 0x5B94 JUMP JUMPDEST SWAP1 POP JUMPDEST DUP2 DUP2 LT ISZERO PUSH2 0x5198 JUMPI DUP1 SWAP2 POP PUSH1 0x2 DUP2 DUP3 DUP6 PUSH2 0x517D SWAP2 SWAP1 PUSH2 0x5BEA JUMP JUMPDEST PUSH2 0x5187 SWAP2 SWAP1 PUSH2 0x5B94 JUMP JUMPDEST PUSH2 0x5191 SWAP2 SWAP1 PUSH2 0x5BEA JUMP JUMPDEST SWAP1 POP PUSH2 0x5163 JUMP JUMPDEST POP PUSH2 0x51AC JUMP JUMPDEST PUSH1 0x0 DUP3 EQ PUSH2 0x51AB JUMPI PUSH1 0x1 SWAP1 POP JUMPDEST JUMPDEST SWAP2 SWAP1 POP JUMP JUMPDEST PUSH1 0x0 DUP4 DUP8 DUP4 DUP6 DUP8 PUSH2 0x51C2 SWAP2 SWAP1 PUSH2 0x5D8C JUMP JUMPDEST PUSH2 0x51CC SWAP2 SWAP1 PUSH2 0x5D8C JUMP JUMPDEST DUP8 DUP10 DUP12 PUSH2 0x51D9 SWAP2 SWAP1 PUSH2 0x5D8C JUMP JUMPDEST PUSH2 0x51E3 SWAP2 SWAP1 PUSH2 0x5D8C JUMP JUMPDEST PUSH2 0x51ED SWAP2 SWAP1 PUSH2 0x5B94 JUMP JUMPDEST PUSH2 0x51F7 SWAP2 SWAP1 PUSH2 0x5D8C JUMP JUMPDEST PUSH2 0x5201 SWAP2 SWAP1 PUSH2 0x5D8C JUMP JUMPDEST SWAP1 POP SWAP7 SWAP6 POP POP POP POP POP POP JUMP JUMPDEST PUSH1 0x0 PUSH1 0x8 DUP3 GT ISZERO PUSH2 0x528B JUMPI DUP2 SWAP1 POP PUSH1 0x0 PUSH1 0x1 PUSH1 0x3 DUP5 PUSH2 0x522C SWAP2 SWAP1 PUSH2 0x5BEA JUMP JUMPDEST PUSH2 0x5236 SWAP2 SWAP1 PUSH2 0x5B94 JUMP JUMPDEST SWAP1 POP JUMPDEST DUP2 DUP2 LT ISZERO PUSH2 0x5285 JUMPI DUP1 SWAP2 POP PUSH1 0x3 DUP2 PUSH1 0x2 PUSH2 0x5253 SWAP2 SWAP1 PUSH2 0x5D8C JUMP JUMPDEST DUP3 DUP4 PUSH2 0x525F SWAP2 SWAP1 PUSH2 0x5D8C JUMP JUMPDEST DUP6 PUSH2 0x526A SWAP2 SWAP1 PUSH2 0x5BEA JUMP JUMPDEST PUSH2 0x5274 SWAP2 SWAP1 PUSH2 0x5B94 JUMP JUMPDEST PUSH2 0x527E SWAP2 SWAP1 PUSH2 0x5BEA JUMP JUMPDEST SWAP1 POP PUSH2 0x5239 JUMP JUMPDEST POP PUSH2 0x5299 JUMP JUMPDEST PUSH1 0x0 DUP3 EQ PUSH2 0x5298 JUMPI PUSH1 0x1 SWAP1 POP JUMPDEST JUMPDEST SWAP2 SWAP1 POP JUMP JUMPDEST POP PUSH1 0x0 DUP2 SSTORE PUSH1 0x1 ADD PUSH1 0x0 SWAP1 SSTORE JUMP JUMPDEST PUSH1 0x0 DUP2 CALLDATALOAD SWAP1 POP PUSH2 0x52BB DUP2 PUSH2 0x60CE JUMP JUMPDEST SWAP3 SWAP2 POP POP JUMP JUMPDEST PUSH1 0x0 DUP2 CALLDATALOAD SWAP1 POP PUSH2 0x52D0 DUP2 PUSH2 0x60E5 JUMP JUMPDEST SWAP3 SWAP2 POP POP JUMP JUMPDEST PUSH1 0x0 DUP2 MLOAD SWAP1 POP PUSH2 0x52E5 DUP2 PUSH2 0x60E5 JUMP JUMPDEST SWAP3 SWAP2 POP POP JUMP JUMPDEST PUSH1 0x0 DUP2 CALLDATALOAD SWAP1 POP PUSH2 0x52FA DUP2 PUSH2 0x60FC JUMP JUMPDEST SWAP3 SWAP2 POP POP JUMP JUMPDEST PUSH1 0x0 DUP2 CALLDATALOAD SWAP1 POP PUSH2 0x530F DUP2 PUSH2 0x6113 JUMP JUMPDEST SWAP3 SWAP2 POP POP JUMP JUMPDEST PUSH1 0x0 DUP2 MLOAD SWAP1 POP PUSH2 0x5324 DUP2 PUSH2 0x6113 JUMP JUMPDEST SWAP3 SWAP2 POP POP JUMP JUMPDEST PUSH1 0x0 DUP2 CALLDATALOAD SWAP1 POP PUSH2 0x5339 DUP2 PUSH2 0x612A JUMP JUMPDEST SWAP3 SWAP2 POP POP JUMP JUMPDEST PUSH1 0x0 PUSH1 0x20 DUP3 DUP5 SUB SLT ISZERO PUSH2 0x5355 JUMPI PUSH2 0x5354 PUSH2 0x5F8C JUMP JUMPDEST JUMPDEST PUSH1 0x0 PUSH2 0x5363 DUP5 DUP3 DUP6 ADD PUSH2 0x52AC JUMP JUMPDEST SWAP2 POP POP SWAP3 SWAP2 POP POP JUMP JUMPDEST PUSH1 0x0 DUP1 PUSH1 0x40 DUP4 DUP6 SUB SLT ISZERO PUSH2 0x5383 JUMPI PUSH2 0x5382 PUSH2 0x5F8C JUMP JUMPDEST JUMPDEST PUSH1 0x0 PUSH2 0x5391 DUP6 DUP3 DUP7 ADD PUSH2 0x52AC JUMP JUMPDEST SWAP3 POP POP PUSH1 0x20 PUSH2 0x53A2 DUP6 DUP3 DUP7 ADD PUSH2 0x52AC JUMP JUMPDEST SWAP2 POP POP SWAP3 POP SWAP3 SWAP1 POP JUMP JUMPDEST PUSH1 0x0 DUP1 PUSH1 0x0 PUSH1 0x60 DUP5 DUP7 SUB SLT ISZERO PUSH2 0x53C5 JUMPI PUSH2 0x53C4 PUSH2 0x5F8C JUMP JUMPDEST JUMPDEST PUSH1 0x0 PUSH2 0x53D3 DUP7 DUP3 DUP8 ADD PUSH2 0x52AC JUMP JUMPDEST SWAP4 POP POP PUSH1 0x20 PUSH2 0x53E4 DUP7 DUP3 DUP8 ADD PUSH2 0x52AC JUMP JUMPDEST SWAP3 POP POP PUSH1 0x40 PUSH2 0x53F5 DUP7 DUP3 DUP8 ADD PUSH2 0x5300 JUMP JUMPDEST SWAP2 POP POP SWAP3 POP SWAP3 POP SWAP3 JUMP JUMPDEST PUSH1 0x0 DUP1 PUSH1 0x0 DUP1 PUSH1 0x0 DUP1 PUSH1 0x0 PUSH1 0xE0 DUP9 DUP11 SUB SLT ISZERO PUSH2 0x541E JUMPI PUSH2 0x541D PUSH2 0x5F8C JUMP JUMPDEST JUMPDEST PUSH1 0x0 PUSH2 0x542C DUP11 DUP3 DUP12 ADD PUSH2 0x52AC JUMP JUMPDEST SWAP8 POP POP PUSH1 0x20 PUSH2 0x543D DUP11 DUP3 DUP12 ADD PUSH2 0x52AC JUMP JUMPDEST SWAP7 POP POP PUSH1 0x40 PUSH2 0x544E DUP11 DUP3 DUP12 ADD PUSH2 0x5300 JUMP JUMPDEST SWAP6 POP POP PUSH1 0x60 PUSH2 0x545F DUP11 DUP3 DUP12 ADD PUSH2 0x5300 JUMP JUMPDEST SWAP5 POP POP PUSH1 0x80 PUSH2 0x5470 DUP11 DUP3 DUP12 ADD PUSH2 0x532A JUMP JUMPDEST SWAP4 POP POP PUSH1 0xA0 PUSH2 0x5481 DUP11 DUP3 DUP12 ADD PUSH2 0x52EB JUMP JUMPDEST SWAP3 POP POP PUSH1 0xC0 PUSH2 0x5492 DUP11 DUP3 DUP12 ADD PUSH2 0x52EB JUMP JUMPDEST SWAP2 POP POP SWAP3 SWAP6 SWAP9 SWAP2 SWAP5 SWAP8 POP SWAP3 SWAP6 POP JUMP JUMPDEST PUSH1 0x0 DUP1 PUSH1 0x40 DUP4 DUP6 SUB SLT ISZERO PUSH2 0x54B8 JUMPI PUSH2 0x54B7 PUSH2 0x5F8C JUMP JUMPDEST JUMPDEST PUSH1 0x0 PUSH2 0x54C6 DUP6 DUP3 DUP7 ADD PUSH2 0x52AC JUMP JUMPDEST SWAP3 POP POP PUSH1 0x20 PUSH2 0x54D7 DUP6 DUP3 DUP7 ADD PUSH2 0x52C1 JUMP JUMPDEST SWAP2 POP POP SWAP3 POP SWAP3 SWAP1 POP JUMP JUMPDEST PUSH1 0x0 DUP1 PUSH1 0x40 DUP4 DUP6 SUB SLT ISZERO PUSH2 0x54F8 JUMPI PUSH2 0x54F7 PUSH2 0x5F8C JUMP JUMPDEST JUMPDEST PUSH1 0x0 PUSH2 0x5506 DUP6 DUP3 DUP7 ADD PUSH2 0x52AC JUMP JUMPDEST SWAP3 POP POP PUSH1 0x20 PUSH2 0x5517 DUP6 DUP3 DUP7 ADD PUSH2 0x5300 JUMP JUMPDEST SWAP2 POP POP SWAP3 POP SWAP3 SWAP1 POP JUMP JUMPDEST PUSH1 0x0 PUSH1 0x20 DUP3 DUP5 SUB SLT ISZERO PUSH2 0x5537 JUMPI PUSH2 0x5536 PUSH2 0x5F8C JUMP JUMPDEST JUMPDEST PUSH1 0x0 PUSH2 0x5545 DUP5 DUP3 DUP6 ADD PUSH2 0x52D6 JUMP JUMPDEST SWAP2 POP POP SWAP3 SWAP2 POP POP JUMP JUMPDEST PUSH1 0x0 PUSH1 0x20 DUP3 DUP5 SUB SLT ISZERO PUSH2 0x5564 JUMPI PUSH2 0x5563 PUSH2 0x5F8C JUMP JUMPDEST JUMPDEST PUSH1 0x0 PUSH2 0x5572 DUP5 DUP3 DUP6 ADD PUSH2 0x5300 JUMP JUMPDEST SWAP2 POP POP SWAP3 SWAP2 POP POP JUMP JUMPDEST PUSH1 0x0 PUSH1 0x20 DUP3 DUP5 SUB SLT ISZERO PUSH2 0x5591 JUMPI PUSH2 0x5590 PUSH2 0x5F8C JUMP JUMPDEST JUMPDEST PUSH1 0x0 PUSH2 0x559F DUP5 DUP3 DUP6 ADD PUSH2 0x5315 JUMP JUMPDEST SWAP2 POP POP SWAP3 SWAP2 POP POP JUMP JUMPDEST PUSH1 0x0 DUP1 PUSH1 0x40 DUP4 DUP6 SUB SLT ISZERO PUSH2 0x55BF JUMPI PUSH2 0x55BE PUSH2 0x5F8C JUMP JUMPDEST JUMPDEST PUSH1 0x0 PUSH2 0x55CD DUP6 DUP3 DUP7 ADD PUSH2 0x5300 JUMP JUMPDEST SWAP3 POP POP PUSH1 0x20 PUSH2 0x55DE DUP6 DUP3 DUP7 ADD PUSH2 0x52AC JUMP JUMPDEST SWAP2 POP POP SWAP3 POP SWAP3 SWAP1 POP JUMP JUMPDEST PUSH1 0x0 DUP1 PUSH1 0x0 PUSH1 0x60 DUP5 DUP7 SUB SLT ISZERO PUSH2 0x5601 JUMPI PUSH2 0x5600 PUSH2 0x5F8C JUMP JUMPDEST JUMPDEST PUSH1 0x0 PUSH2 0x560F DUP7 DUP3 DUP8 ADD PUSH2 0x5300 JUMP JUMPDEST SWAP4 POP POP PUSH1 0x20 PUSH2 0x5620 DUP7 DUP3 DUP8 ADD PUSH2 0x5300 JUMP JUMPDEST SWAP3 POP POP PUSH1 0x40 PUSH2 0x5631 DUP7 DUP3 DUP8 ADD PUSH2 0x52AC JUMP JUMPDEST SWAP2 POP POP SWAP3 POP SWAP3 POP SWAP3 JUMP JUMPDEST PUSH1 0x0 DUP1 PUSH1 0x0 DUP1 PUSH1 0x80 DUP6 DUP8 SUB SLT ISZERO PUSH2 0x5655 JUMPI PUSH2 0x5654 PUSH2 0x5F8C JUMP JUMPDEST JUMPDEST PUSH1 0x0 PUSH2 0x5663 DUP8 DUP3 DUP9 ADD PUSH2 0x5300 JUMP JUMPDEST SWAP5 POP POP PUSH1 0x20 PUSH2 0x5674 DUP8 DUP3 DUP9 ADD PUSH2 0x5300 JUMP JUMPDEST SWAP4 POP POP PUSH1 0x40 PUSH2 0x5685 DUP8 DUP3 DUP9 ADD PUSH2 0x52C1 JUMP JUMPDEST SWAP3 POP POP PUSH1 0x60 PUSH2 0x5696 DUP8 DUP3 DUP9 ADD PUSH2 0x52AC JUMP JUMPDEST SWAP2 POP POP SWAP3 SWAP6 SWAP2 SWAP5 POP SWAP3 POP JUMP JUMPDEST PUSH2 0x56AB DUP2 PUSH2 0x5E1A JUMP JUMPDEST DUP3 MSTORE POP POP JUMP JUMPDEST PUSH2 0x56BA DUP2 PUSH2 0x5E2C JUMP JUMPDEST DUP3 MSTORE POP POP JUMP JUMPDEST PUSH2 0x56C9 DUP2 PUSH2 0x5E38 JUMP JUMPDEST DUP3 MSTORE POP POP JUMP JUMPDEST PUSH2 0x56E0 PUSH2 0x56DB DUP3 PUSH2 0x5E38 JUMP JUMPDEST PUSH2 0x5EF5 JUMP JUMPDEST DUP3 MSTORE POP POP JUMP JUMPDEST PUSH1 0x0 PUSH2 0x56F1 DUP3 PUSH2 0x5B57 JUMP JUMPDEST PUSH2 0x56FB DUP2 DUP6 PUSH2 0x5B6D JUMP JUMPDEST SWAP4 POP PUSH2 0x570B DUP2 DUP6 PUSH1 0x20 DUP7 ADD PUSH2 0x5E79 JUMP JUMPDEST DUP1 DUP5 ADD SWAP2 POP POP SWAP3 SWAP2 POP POP JUMP JUMPDEST PUSH1 0x0 PUSH2 0x5722 DUP3 PUSH2 0x5B62 JUMP JUMPDEST PUSH2 0x572C DUP2 DUP6 PUSH2 0x5B78 JUMP JUMPDEST SWAP4 POP PUSH2 0x573C DUP2 DUP6 PUSH1 0x20 DUP7 ADD PUSH2 0x5E79 JUMP JUMPDEST PUSH2 0x5745 DUP2 PUSH2 0x5F91 JUMP JUMPDEST DUP5 ADD SWAP2 POP POP SWAP3 SWAP2 POP POP JUMP JUMPDEST PUSH1 0x0 PUSH2 0x575D PUSH1 0x15 DUP4 PUSH2 0x5B78 JUMP JUMPDEST SWAP2 POP PUSH2 0x5768 DUP3 PUSH2 0x5FAF JUMP JUMPDEST PUSH1 0x20 DUP3 ADD SWAP1 POP SWAP2 SWAP1 POP JUMP JUMPDEST PUSH1 0x0 PUSH2 0x5780 PUSH1 0x1C DUP4 PUSH2 0x5B78 JUMP JUMPDEST SWAP2 POP PUSH2 0x578B DUP3 PUSH2 0x5FD8 JUMP JUMPDEST PUSH1 0x20 DUP3 ADD SWAP1 POP SWAP2 SWAP1 POP JUMP JUMPDEST PUSH1 0x0 PUSH2 0x57A3 PUSH1 0x2 DUP4 PUSH2 0x5B89 JUMP JUMPDEST SWAP2 POP PUSH2 0x57AE DUP3 PUSH2 0x6001 JUMP JUMPDEST PUSH1 0x2 DUP3 ADD SWAP1 POP SWAP2 SWAP1 POP JUMP JUMPDEST PUSH1 0x0 PUSH2 0x57C6 PUSH1 0x14 DUP4 PUSH2 0x5B78 JUMP JUMPDEST SWAP2 POP PUSH2 0x57D1 DUP3 PUSH2 0x602A JUMP JUMPDEST PUSH1 0x20 DUP3 ADD SWAP1 POP SWAP2 SWAP1 POP JUMP JUMPDEST PUSH1 0x0 PUSH2 0x57E9 PUSH1 0x12 DUP4 PUSH2 0x5B78 JUMP JUMPDEST SWAP2 POP PUSH2 0x57F4 DUP3 PUSH2 0x6053 JUMP JUMPDEST PUSH1 0x20 DUP3 ADD SWAP1 POP SWAP2 SWAP1 POP JUMP JUMPDEST PUSH1 0x0 PUSH2 0x580C PUSH1 0xF DUP4 PUSH2 0x5B78 JUMP JUMPDEST SWAP2 POP PUSH2 0x5817 DUP3 PUSH2 0x607C JUMP JUMPDEST PUSH1 0x20 DUP3 ADD SWAP1 POP SWAP2 SWAP1 POP JUMP JUMPDEST PUSH1 0x0 PUSH2 0x582F PUSH1 0x6 DUP4 PUSH2 0x5B78 JUMP JUMPDEST SWAP2 POP PUSH2 0x583A DUP3 PUSH2 0x60A5 JUMP JUMPDEST PUSH1 0x20 DUP3 ADD SWAP1 POP SWAP2 SWAP1 POP JUMP JUMPDEST PUSH2 0x584E DUP2 PUSH2 0x5E62 JUMP JUMPDEST DUP3 MSTORE POP POP JUMP JUMPDEST PUSH2 0x585D DUP2 PUSH2 0x5E6C JUMP JUMPDEST DUP3 MSTORE POP POP JUMP JUMPDEST PUSH1 0x0 PUSH2 0x586F DUP3 DUP5 PUSH2 0x56E6 JUMP JUMPDEST SWAP2 POP DUP2 SWAP1 POP SWAP3 SWAP2 POP POP JUMP JUMPDEST PUSH1 0x0 PUSH2 0x5885 DUP3 PUSH2 0x5796 JUMP JUMPDEST SWAP2 POP PUSH2 0x5891 DUP3 DUP6 PUSH2 0x56CF JUMP JUMPDEST PUSH1 0x20 DUP3 ADD SWAP2 POP PUSH2 0x58A1 DUP3 DUP5 PUSH2 0x56CF JUMP JUMPDEST PUSH1 0x20 DUP3 ADD SWAP2 POP DUP2 SWAP1 POP SWAP4 SWAP3 POP POP POP JUMP JUMPDEST PUSH1 0x0 PUSH1 0x20 DUP3 ADD SWAP1 POP PUSH2 0x58C6 PUSH1 0x0 DUP4 ADD DUP5 PUSH2 0x56A2 JUMP JUMPDEST SWAP3 SWAP2 POP POP JUMP JUMPDEST PUSH1 0x0 PUSH1 0x80 DUP3 ADD SWAP1 POP PUSH2 0x58E1 PUSH1 0x0 DUP4 ADD DUP8 PUSH2 0x56A2 JUMP JUMPDEST PUSH2 0x58EE PUSH1 0x20 DUP4 ADD DUP7 PUSH2 0x56B1 JUMP JUMPDEST PUSH2 0x58FB PUSH1 0x40 DUP4 ADD DUP6 PUSH2 0x5845 JUMP JUMPDEST PUSH2 0x5908 PUSH1 0x60 DUP4 ADD DUP5 PUSH2 0x5845 JUMP JUMPDEST SWAP6 SWAP5 POP POP POP POP POP JUMP JUMPDEST PUSH1 0x0 PUSH1 0x40 DUP3 ADD SWAP1 POP PUSH2 0x5926 PUSH1 0x0 DUP4 ADD DUP6 PUSH2 0x56A2 JUMP JUMPDEST PUSH2 0x5933 PUSH1 0x20 DUP4 ADD DUP5 PUSH2 0x5845 JUMP JUMPDEST SWAP4 SWAP3 POP POP POP JUMP JUMPDEST PUSH1 0x0 PUSH1 0x20 DUP3 ADD SWAP1 POP PUSH2 0x594F PUSH1 0x0 DUP4 ADD DUP5 PUSH2 0x56B1 JUMP JUMPDEST SWAP3 SWAP2 POP POP JUMP JUMPDEST PUSH1 0x0 PUSH1 0x20 DUP3 ADD SWAP1 POP PUSH2 0x596A PUSH1 0x0 DUP4 ADD DUP5 PUSH2 0x56C0 JUMP JUMPDEST SWAP3 SWAP2 POP POP JUMP JUMPDEST PUSH1 0x0 PUSH1 0xC0 DUP3 ADD SWAP1 POP PUSH2 0x5985 PUSH1 0x0 DUP4 ADD DUP10 PUSH2 0x56C0 JUMP JUMPDEST PUSH2 0x5992 PUSH1 0x20 DUP4 ADD DUP9 PUSH2 0x56A2 JUMP JUMPDEST PUSH2 0x599F PUSH1 0x40 DUP4 ADD DUP8 PUSH2 0x56A2 JUMP JUMPDEST PUSH2 0x59AC PUSH1 0x60 DUP4 ADD DUP7 PUSH2 0x5845 JUMP JUMPDEST PUSH2 0x59B9 PUSH1 0x80 DUP4 ADD DUP6 PUSH2 0x5845 JUMP JUMPDEST PUSH2 0x59C6 PUSH1 0xA0 DUP4 ADD DUP5 PUSH2 0x5845 JUMP JUMPDEST SWAP8 SWAP7 POP POP POP POP POP POP POP JUMP JUMPDEST PUSH1 0x0 PUSH1 0x80 DUP3 ADD SWAP1 POP PUSH2 0x59E6 PUSH1 0x0 DUP4 ADD DUP8 PUSH2 0x56C0 JUMP JUMPDEST PUSH2 0x59F3 PUSH1 0x20 DUP4 ADD DUP7 PUSH2 0x5854 JUMP JUMPDEST PUSH2 0x5A00 PUSH1 0x40 DUP4 ADD DUP6 PUSH2 0x56C0 JUMP JUMPDEST PUSH2 0x5A0D PUSH1 0x60 DUP4 ADD DUP5 PUSH2 0x56C0 JUMP JUMPDEST SWAP6 SWAP5 POP POP POP POP POP JUMP JUMPDEST PUSH1 0x0 PUSH1 0x20 DUP3 ADD SWAP1 POP DUP2 DUP2 SUB PUSH1 0x0 DUP4 ADD MSTORE PUSH2 0x5A30 DUP2 DUP5 PUSH2 0x5717 JUMP JUMPDEST SWAP1 POP SWAP3 SWAP2 POP POP JUMP JUMPDEST PUSH1 0x0 PUSH1 0x20 DUP3 ADD SWAP1 POP DUP2 DUP2 SUB PUSH1 0x0 DUP4 ADD MSTORE PUSH2 0x5A51 DUP2 PUSH2 0x5750 JUMP JUMPDEST SWAP1 POP SWAP2 SWAP1 POP JUMP JUMPDEST PUSH1 0x0 PUSH1 0x20 DUP3 ADD SWAP1 POP DUP2 DUP2 SUB PUSH1 0x0 DUP4 ADD MSTORE PUSH2 0x5A71 DUP2 PUSH2 0x5773 JUMP JUMPDEST SWAP1 POP SWAP2 SWAP1 POP JUMP JUMPDEST PUSH1 0x0 PUSH1 0x20 DUP3 ADD SWAP1 POP DUP2 DUP2 SUB PUSH1 0x0 DUP4 ADD MSTORE PUSH2 0x5A91 DUP2 PUSH2 0x57B9 JUMP JUMPDEST SWAP1 POP SWAP2 SWAP1 POP JUMP JUMPDEST PUSH1 0x0 PUSH1 0x20 DUP3 ADD SWAP1 POP DUP2 DUP2 SUB PUSH1 0x0 DUP4 ADD MSTORE PUSH2 0x5AB1 DUP2 PUSH2 0x57DC JUMP JUMPDEST SWAP1 POP SWAP2 SWAP1 POP JUMP JUMPDEST PUSH1 0x0 PUSH1 0x20 DUP3 ADD SWAP1 POP DUP2 DUP2 SUB PUSH1 0x0 DUP4 ADD MSTORE PUSH2 0x5AD1 DUP2 PUSH2 0x57FF JUMP JUMPDEST SWAP1 POP SWAP2 SWAP1 POP JUMP JUMPDEST PUSH1 0x0 PUSH1 0x20 DUP3 ADD SWAP1 POP DUP2 DUP2 SUB PUSH1 0x0 DUP4 ADD MSTORE PUSH2 0x5AF1 DUP2 PUSH2 0x5822 JUMP JUMPDEST SWAP1 POP SWAP2 SWAP1 POP JUMP JUMPDEST PUSH1 0x0 PUSH1 0x20 DUP3 ADD SWAP1 POP PUSH2 0x5B0D PUSH1 0x0 DUP4 ADD DUP5 PUSH2 0x5845 JUMP JUMPDEST SWAP3 SWAP2 POP POP JUMP JUMPDEST PUSH1 0x0 PUSH1 0x40 DUP3 ADD SWAP1 POP PUSH2 0x5B28 PUSH1 0x0 DUP4 ADD DUP6 PUSH2 0x5845 JUMP JUMPDEST PUSH2 0x5B35 PUSH1 0x20 DUP4 ADD DUP5 PUSH2 0x5845 JUMP JUMPDEST SWAP4 SWAP3 POP POP POP JUMP JUMPDEST PUSH1 0x0 PUSH1 0x20 DUP3 ADD SWAP1 POP PUSH2 0x5B51 PUSH1 0x0 DUP4 ADD DUP5 PUSH2 0x5854 JUMP JUMPDEST SWAP3 SWAP2 POP POP JUMP JUMPDEST PUSH1 0x0 DUP2 MLOAD SWAP1 POP SWAP2 SWAP1 POP JUMP JUMPDEST PUSH1 0x0 DUP2 MLOAD SWAP1 POP SWAP2 SWAP1 POP JUMP JUMPDEST PUSH1 0x0 DUP2 SWAP1 POP SWAP3 SWAP2 POP POP JUMP JUMPDEST PUSH1 0x0 DUP3 DUP3 MSTORE PUSH1 0x20 DUP3 ADD SWAP1 POP SWAP3 SWAP2 POP POP JUMP JUMPDEST PUSH1 0x0 DUP2 SWAP1 POP SWAP3 SWAP2 POP POP JUMP JUMPDEST PUSH1 0x0 PUSH2 0x5B9F DUP3 PUSH2 0x5E62 JUMP JUMPDEST SWAP2 POP PUSH2 0x5BAA DUP4 PUSH2 0x5E62 JUMP JUMPDEST SWAP3 POP DUP3 PUSH32 0xFFFFFFFFFFFFFFFFFFFFFFFFFFFFFFFFFFFFFFFFFFFFFFFFFFFFFFFFFFFFFFFF SUB DUP3 GT ISZERO PUSH2 0x5BDF JUMPI PUSH2 0x5BDE PUSH2 0x5EFF JUMP JUMPDEST JUMPDEST DUP3 DUP3 ADD SWAP1 POP SWAP3 SWAP2 POP POP JUMP JUMPDEST PUSH1 0x0 PUSH2 0x5BF5 DUP3 PUSH2 0x5E62 JUMP JUMPDEST SWAP2 POP PUSH2 0x5C00 DUP4 PUSH2 0x5E62 JUMP JUMPDEST SWAP3 POP DUP3 PUSH2 0x5C10 JUMPI PUSH2 0x5C0F PUSH2 0x5F2E JUMP JUMPDEST JUMPDEST DUP3 DUP3 DIV SWAP1 POP SWAP3 SWAP2 POP POP JUMP JUMPDEST PUSH1 0x0 DUP1 DUP3 SWAP2 POP DUP4 SWAP1 POP JUMPDEST PUSH1 0x1 DUP6 GT ISZERO PUSH2 0x5C65 JUMPI DUP1 DUP7 DIV DUP2 GT ISZERO PUSH2 0x5C41 JUMPI PUSH2 0x5C40 PUSH2 0x5EFF JUMP JUMPDEST JUMPDEST PUSH1 0x1 DUP6 AND ISZERO PUSH2 0x5C50 JUMPI DUP1 DUP3 MUL SWAP2 POP JUMPDEST DUP1 DUP2 MUL SWAP1 POP PUSH2 0x5C5E DUP6 PUSH2 0x5FA2 JUMP JUMPDEST SWAP5 POP PUSH2 0x5C25 JUMP JUMPDEST SWAP5 POP SWAP5 SWAP3 POP POP POP JUMP JUMPDEST PUSH1 0x0 PUSH2 0x5C79 DUP3 PUSH2 0x5E62 JUMP JUMPDEST SWAP2 POP PUSH2 0x5C84 DUP4 PUSH2 0x5E6C JUMP JUMPDEST SWAP3 POP PUSH2 0x5CB1 PUSH32 0xFFFFFFFFFFFFFFFFFFFFFFFFFFFFFFFFFFFFFFFFFFFFFFFFFFFFFFFFFFFFFFFF DUP5 DUP5 PUSH2 0x5CB9 JUMP JUMPDEST SWAP1 POP SWAP3 SWAP2 POP POP JUMP JUMPDEST PUSH1 0x0 DUP3 PUSH2 0x5CC9 JUMPI PUSH1 0x1 SWAP1 POP PUSH2 0x5D85 JUMP JUMPDEST DUP2 PUSH2 0x5CD7 JUMPI PUSH1 0x0 SWAP1 POP PUSH2 0x5D85 JUMP JUMPDEST DUP2 PUSH1 0x1 DUP2 EQ PUSH2 0x5CED JUMPI PUSH1 0x2 DUP2 EQ PUSH2 0x5CF7 JUMPI PUSH2 0x5D26 JUMP JUMPDEST PUSH1 0x1 SWAP2 POP POP PUSH2 0x5D85 JUMP JUMPDEST PUSH1 0xFF DUP5 GT ISZERO PUSH2 0x5D09 JUMPI PUSH2 0x5D08 PUSH2 0x5EFF JUMP JUMPDEST JUMPDEST DUP4 PUSH1 0x2 EXP SWAP2 POP DUP5 DUP3 GT ISZERO PUSH2 0x5D20 JUMPI PUSH2 0x5D1F PUSH2 0x5EFF JUMP JUMPDEST JUMPDEST POP PUSH2 0x5D85 JUMP JUMPDEST POP PUSH1 0x20 DUP4 LT PUSH2 0x133 DUP4 LT AND PUSH1 0x4E DUP5 LT PUSH1 0xB DUP5 LT AND OR ISZERO PUSH2 0x5D5B JUMPI DUP3 DUP3 EXP SWAP1 POP DUP4 DUP2 GT ISZERO PUSH2 0x5D56 JUMPI PUSH2 0x5D55 PUSH2 0x5EFF JUMP JUMPDEST JUMPDEST PUSH2 0x5D85 JUMP JUMPDEST PUSH2 0x5D68 DUP5 DUP5 DUP5 PUSH1 0x1 PUSH2 0x5C1B JUMP JUMPDEST SWAP3 POP SWAP1 POP DUP2 DUP5 DIV DUP2 GT ISZERO PUSH2 0x5D7F JUMPI PUSH2 0x5D7E PUSH2 0x5EFF JUMP JUMPDEST JUMPDEST DUP2 DUP2 MUL SWAP1 POP JUMPDEST SWAP4 SWAP3 POP POP POP JUMP JUMPDEST PUSH1 0x0 PUSH2 0x5D97 DUP3 PUSH2 0x5E62 JUMP JUMPDEST SWAP2 POP PUSH2 0x5DA2 DUP4 PUSH2 0x5E62 JUMP JUMPDEST SWAP3 POP DUP2 PUSH32 0xFFFFFFFFFFFFFFFFFFFFFFFFFFFFFFFFFFFFFFFFFFFFFFFFFFFFFFFFFFFFFFFF DIV DUP4 GT DUP3 ISZERO ISZERO AND ISZERO PUSH2 0x5DDB JUMPI PUSH2 0x5DDA PUSH2 0x5EFF JUMP JUMPDEST JUMPDEST DUP3 DUP3 MUL SWAP1 POP SWAP3 SWAP2 POP POP JUMP JUMPDEST PUSH1 0x0 PUSH2 0x5DF1 DUP3 PUSH2 0x5E62 JUMP JUMPDEST SWAP2 POP PUSH2 0x5DFC DUP4 PUSH2 0x5E62 JUMP JUMPDEST SWAP3 POP DUP3 DUP3 LT ISZERO PUSH2 0x5E0F JUMPI PUSH2 0x5E0E PUSH2 0x5EFF JUMP JUMPDEST JUMPDEST DUP3 DUP3 SUB SWAP1 POP SWAP3 SWAP2 POP POP JUMP JUMPDEST PUSH1 0x0 PUSH2 0x5E25 DUP3 PUSH2 0x5E42 JUMP JUMPDEST SWAP1 POP SWAP2 SWAP1 POP JUMP JUMPDEST PUSH1 0x0 DUP2 ISZERO ISZERO SWAP1 POP SWAP2 SWAP1 POP JUMP JUMPDEST PUSH1 0x0 DUP2 SWAP1 POP SWAP2 SWAP1 POP JUMP JUMPDEST PUSH1 0x0 PUSH20 0xFFFFFFFFFFFFFFFFFFFFFFFFFFFFFFFFFFFFFFFF DUP3 AND SWAP1 POP SWAP2 SWAP1 POP JUMP JUMPDEST PUSH1 0x0 DUP2 SWAP1 POP SWAP2 SWAP1 POP JUMP JUMPDEST PUSH1 0x0 PUSH1 0xFF DUP3 AND SWAP1 POP SWAP2 SWAP1 POP JUMP JUMPDEST PUSH1 0x0 JUMPDEST DUP4 DUP2 LT ISZERO PUSH2 0x5E97 JUMPI DUP1 DUP3 ADD MLOAD DUP2 DUP5 ADD MSTORE PUSH1 0x20 DUP2 ADD SWAP1 POP PUSH2 0x5E7C JUMP JUMPDEST DUP4 DUP2 GT ISZERO PUSH2 0x5EA6 JUMPI PUSH1 0x0 DUP5 DUP5 ADD MSTORE JUMPDEST POP POP POP POP JUMP JUMPDEST PUSH1 0x0 PUSH2 0x5EB7 DUP3 PUSH2 0x5E62 JUMP JUMPDEST SWAP2 POP PUSH32 0xFFFFFFFFFFFFFFFFFFFFFFFFFFFFFFFFFFFFFFFFFFFFFFFFFFFFFFFFFFFFFFFF DUP3 EQ ISZERO PUSH2 0x5EEA JUMPI PUSH2 0x5EE9 PUSH2 0x5EFF JUMP JUMPDEST JUMPDEST PUSH1 0x1 DUP3 ADD SWAP1 POP SWAP2 SWAP1 POP JUMP JUMPDEST PUSH1 0x0 DUP2 SWAP1 POP SWAP2 SWAP1 POP JUMP JUMPDEST PUSH32 0x4E487B7100000000000000000000000000000000000000000000000000000000 PUSH1 0x0 MSTORE PUSH1 0x11 PUSH1 0x4 MSTORE PUSH1 0x24 PUSH1 0x0 REVERT JUMPDEST PUSH32 0x4E487B7100000000000000000000000000000000000000000000000000000000 PUSH1 0x0 MSTORE PUSH1 0x12 PUSH1 0x4 MSTORE PUSH1 0x24 PUSH1 0x0 REVERT JUMPDEST PUSH32 0x4E487B7100000000000000000000000000000000000000000000000000000000 PUSH1 0x0 MSTORE PUSH1 0x32 PUSH1 0x4 MSTORE PUSH1 0x24 PUSH1 0x0 REVERT JUMPDEST PUSH1 0x0 DUP1 REVERT JUMPDEST PUSH1 0x0 PUSH1 0x1F NOT PUSH1 0x1F DUP4 ADD AND SWAP1 POP SWAP2 SWAP1 POP JUMP JUMPDEST PUSH1 0x0 DUP2 PUSH1 0x1 SHR SWAP1 POP SWAP2 SWAP1 POP JUMP JUMPDEST PUSH32 0x64732D6D6174682D7375622D756E646572666C6F770000000000000000000000 PUSH1 0x0 DUP3 ADD MSTORE POP JUMP JUMPDEST PUSH32 0x556E697377617056323A20494E56414C49445F5349474E415455524500000000 PUSH1 0x0 DUP3 ADD MSTORE POP JUMP JUMPDEST PUSH32 0x1901000000000000000000000000000000000000000000000000000000000000 PUSH1 0x0 DUP3 ADD MSTORE POP JUMP JUMPDEST PUSH32 0x64732D6D6174682D6164642D6F766572666C6F77000000000000000000000000 PUSH1 0x0 DUP3 ADD MSTORE POP JUMP JUMPDEST PUSH32 0x556E697377617056323A20455850495245440000000000000000000000000000 PUSH1 0x0 DUP3 ADD MSTORE POP JUMP JUMPDEST PUSH32 0x5452414E534645525F4641494C45440000000000000000000000000000000000 PUSH1 0x0 DUP3 ADD MSTORE POP JUMP JUMPDEST PUSH32 0x4C4F434B45440000000000000000000000000000000000000000000000000000 PUSH1 0x0 DUP3 ADD MSTORE POP JUMP JUMPDEST PUSH2 0x60D7 DUP2 PUSH2 0x5E1A JUMP JUMPDEST DUP2 EQ PUSH2 0x60E2 JUMPI PUSH1 0x0 DUP1 REVERT JUMPDEST POP JUMP JUMPDEST PUSH2 0x60EE DUP2 PUSH2 0x5E2C JUMP JUMPDEST DUP2 EQ PUSH2 0x60F9 JUMPI PUSH1 0x0 DUP1 REVERT JUMPDEST POP JUMP JUMPDEST PUSH2 0x6105 DUP2 PUSH2 0x5E38 JUMP JUMPDEST DUP2 EQ PUSH2 0x6110 JUMPI PUSH1 0x0 DUP1 REVERT JUMPDEST POP JUMP JUMPDEST PUSH2 0x611C DUP2 PUSH2 0x5E62 JUMP JUMPDEST DUP2 EQ PUSH2 0x6127 JUMPI PUSH1 0x0 DUP1 REVERT JUMPDEST POP JUMP JUMPDEST PUSH2 0x6133 DUP2 PUSH2 0x5E6C JUMP JUMPDEST DUP2 EQ PUSH2 0x613E JUMPI PUSH1 0x0 DUP1 REVERT JUMPDEST POP JUMP INVALID LOG2 PUSH5 0x6970667358 0x22 SLT KECCAK256 PUSH11 0x312A0EA5FB9F0016112192 SUB PUSH13 0xB234BF947E82436211981C1E SLT 0xC6 BLOCKHASH PUSH15 0x64736F6C63430008070033000000 "
		},
		"gasEstimates": {
			"creation": {
				"codeDepositCost": "4990200",
				"executionCost": "infinite",
				"totalCost": "infinite"
			},
			"external": {
				"Add_Liquidity(uint256,uint256,address)": "infinite",
				"Add_Margin(address,address)": "infinite",
				"B()": "2542",
				"Base_rate()": "2564",
				"Burn_Liquidity(uint256,address)": "infinite",
				"C()": "2519",
				"D()": "2498",
				"D0()": "2517",
				"DOMAIN_SEPARATOR()": "2564",
				"Leverage_Margin()": "2496",
				"Leverage_Max()": "2498",
				"Liquidate(address,address)": "infinite",
				"Liquidation_bonus()": "2495",
				"Liquidation_rate()": "2563",
				"Margin_reserve(uint256)": "infinite",
				"PERMIT_TYPEHASH()": "404",
				"Peqx()": "2499",
				"Peqy()": "2561",
				"Perp_close(uint256,uint256,address)": "infinite",
				"Perp_open(uint256,uint256,bool,address)": "infinite",
				"Price_local()": "2541",
				"Set_LeverageMargin(uint256)": "24757",
				"Set_Liquidation_rate(uint256)": "24844",
				"Set_fundingrate_upper(uint256)": "24826",
				"Tick_range()": "2518",
				"Total_Liquidity()": "2541",
				"Total_debt_X()": "2542",
				"Total_debt_Y()": "2564",
				"Total_debttoken_X()": "2518",
				"Total_debttoken_Y()": "2520",
				"True_Liquid_X()": "2519",
				"True_Liquid_X0()": "2562",
				"True_Liquid_Y()": "2519",
				"True_Liquid_Y0()": "2562",
				"X_Coord()": "2541",
				"Xeq()": "2519",
				"Xgetp()": "2518",
				"Y_Coord()": "2497",
				"Yeq()": "2497",
				"Ygetp()": "2518",
				"_swap()": "infinite",
				"allowance(address,address)": "infinite",
				"approve(address,uint256)": "infinite",
				"balanceOf(address)": "2925",
				"const18()": "2498",
				"debt_index(address,bool)": "infinite",
				"decimals()": "426",
				"factory()": "2626",
				"fee()": "2496",
				"funding_Last()": "2519",
				"funding_x_8h_upper()": "2540",
				"fundingtime_Last()": "2541",
				"initialize(address,address)": "infinite",
				"margin_index(address,uint256)": "infinite",
				"name()": "infinite",
				"nonces(address)": "2927",
				"paying_side_Last()": "2605",
				"permit(address,address,uint256,uint256,uint8,bytes32,bytes32)": "infinite",
				"skim(address)": "infinite",
				"symbol()": "infinite",
				"tokenX()": "2627",
				"tokenY()": "2647",
				"totalSupply()": "2564",
				"transfer(address,uint256)": "infinite",
				"transferFrom(address,address,uint256)": "infinite"
			},
			"internal": {
				"Net_Margin(address)": "infinite",
				"Net_Position(address)": "infinite",
				"Net_debt(address)": "infinite",
				"Trade_XtoY(uint256,bool,uint256)": "infinite",
				"Trade_YtoX(uint256,bool,uint256)": "infinite",
				"Virtual_Liquidity_Update()": "infinite",
				"WithdrawMargin(address,address,address,uint256)": "infinite",
				"_safeTransfer(address,address,uint256)": "infinite",
				"refresh_totalbook()": "infinite"
			}
		},
		"methodIdentifiers": {
			"Add_Liquidity(uint256,uint256,address)": "6126deef",
			"Add_Margin(address,address)": "8cf825e7",
			"B()": "32e7c5bf",
			"Base_rate()": "7ed6281b",
			"Burn_Liquidity(uint256,address)": "6665ff11",
			"C()": "83dfe5fd",
			"D()": "0f529ba2",
			"D0()": "f738c74e",
			"DOMAIN_SEPARATOR()": "3644e515",
			"Leverage_Margin()": "9a36e122",
			"Leverage_Max()": "18db9681",
			"Liquidate(address,address)": "c3d81b21",
			"Liquidation_bonus()": "f70f4394",
			"Liquidation_rate()": "8bc1a32f",
			"Margin_reserve(uint256)": "1cbdffd1",
			"PERMIT_TYPEHASH()": "30adf81f",
			"Peqx()": "00b52645",
			"Peqy()": "fe18f261",
			"Perp_close(uint256,uint256,address)": "4c324e6a",
			"Perp_open(uint256,uint256,bool,address)": "9076ae86",
			"Price_local()": "480c4f7e",
			"Set_LeverageMargin(uint256)": "cfe38a5e",
			"Set_Liquidation_rate(uint256)": "ff2f169e",
			"Set_fundingrate_upper(uint256)": "0bfa68d8",
			"Tick_range()": "d44022db",
			"Total_Liquidity()": "2dd6c254",
			"Total_debt_X()": "2190219e",
			"Total_debt_Y()": "225c2c50",
			"Total_debttoken_X()": "6b3545aa",
			"Total_debttoken_Y()": "139860ee",
			"True_Liquid_X()": "5595d459",
			"True_Liquid_X0()": "79dbf8ea",
			"True_Liquid_Y()": "3c6fe2f4",
			"True_Liquid_Y0()": "ea1797b0",
			"X_Coord()": "84009686",
			"Xeq()": "8e361389",
			"Xgetp()": "a5aa65b9",
			"Y_Coord()": "36af2f9b",
			"Yeq()": "80416c02",
			"Ygetp()": "df0ab2c2",
			"_swap()": "30688ab8",
			"allowance(address,address)": "dd62ed3e",
			"approve(address,uint256)": "095ea7b3",
			"balanceOf(address)": "70a08231",
			"const18()": "7e11939a",
			"debt_index(address,bool)": "7e1431be",
			"decimals()": "313ce567",
			"factory()": "c45a0155",
			"fee()": "ddca3f43",
			"funding_Last()": "23ed16b6",
			"funding_x_8h_upper()": "e19a1474",
			"fundingtime_Last()": "5e287d86",
			"initialize(address,address)": "485cc955",
			"margin_index(address,uint256)": "fc69b80f",
			"name()": "06fdde03",
			"nonces(address)": "7ecebe00",
			"paying_side_Last()": "c7d44932",
			"permit(address,address,uint256,uint256,uint8,bytes32,bytes32)": "d505accf",
			"skim(address)": "bc25cf77",
			"symbol()": "95d89b41",
			"tokenX()": "16dc165b",
			"tokenY()": "b7d19fc4",
			"totalSupply()": "18160ddd",
			"transfer(address,uint256)": "a9059cbb",
			"transferFrom(address,address,uint256)": "23b872dd"
		}
	},
	"abi": [
		{
			"inputs": [],
			"stateMutability": "nonpayable",
			"type": "constructor"
		},
		{
			"anonymous": false,
			"inputs": [
				{
					"indexed": true,
					"internalType": "address",
					"name": "owner",
					"type": "address"
				},
				{
					"indexed": true,
					"internalType": "address",
					"name": "spender",
					"type": "address"
				},
				{
					"indexed": false,
					"internalType": "uint256",
					"name": "value",
					"type": "uint256"
				}
			],
			"name": "Approval",
			"type": "event"
		},
		{
			"anonymous": false,
			"inputs": [
				{
					"indexed": true,
					"internalType": "address",
					"name": "from",
					"type": "address"
				},
				{
					"indexed": true,
					"internalType": "address",
					"name": "to",
					"type": "address"
				},
				{
					"indexed": false,
					"internalType": "uint256",
					"name": "value",
					"type": "uint256"
				}
			],
			"name": "Transfer",
			"type": "event"
		},
		{
			"inputs": [
				{
					"internalType": "uint256",
					"name": "AddX",
					"type": "uint256"
				},
				{
					"internalType": "uint256",
					"name": "AddY",
					"type": "uint256"
				},
				{
					"internalType": "address",
					"name": "to",
					"type": "address"
				}
			],
			"name": "Add_Liquidity",
			"outputs": [
				{
					"internalType": "uint256",
					"name": "Liquidity",
					"type": "uint256"
				}
			],
			"stateMutability": "nonpayable",
			"type": "function"
		},
		{
			"inputs": [
				{
					"internalType": "address",
					"name": "tokenID",
					"type": "address"
				},
				{
					"internalType": "address",
					"name": "userID",
					"type": "address"
				}
			],
			"name": "Add_Margin",
			"outputs": [],
			"stateMutability": "nonpayable",
			"type": "function"
		},
		{
			"inputs": [],
			"name": "B",
			"outputs": [
				{
					"internalType": "uint256",
					"name": "",
					"type": "uint256"
				}
			],
			"stateMutability": "view",
			"type": "function"
		},
		{
			"inputs": [],
			"name": "Base_rate",
			"outputs": [
				{
					"internalType": "uint256",
					"name": "",
					"type": "uint256"
				}
			],
			"stateMutability": "view",
			"type": "function"
		},
		{
			"inputs": [
				{
					"internalType": "uint256",
					"name": "Liquidity",
					"type": "uint256"
				},
				{
					"internalType": "address",
					"name": "to",
					"type": "address"
				}
			],
			"name": "Burn_Liquidity",
			"outputs": [
				{
					"internalType": "uint256",
					"name": "BurX",
					"type": "uint256"
				},
				{
					"internalType": "uint256",
					"name": "BurY",
					"type": "uint256"
				}
			],
			"stateMutability": "nonpayable",
			"type": "function"
		},
		{
			"inputs": [],
			"name": "C",
			"outputs": [
				{
					"internalType": "uint256",
					"name": "",
					"type": "uint256"
				}
			],
			"stateMutability": "view",
			"type": "function"
		},
		{
			"inputs": [],
			"name": "D",
			"outputs": [
				{
					"internalType": "uint256",
					"name": "",
					"type": "uint256"
				}
			],
			"stateMutability": "view",
			"type": "function"
		},
		{
			"inputs": [],
			"name": "D0",
			"outputs": [
				{
					"internalType": "uint256",
					"name": "",
					"type": "uint256"
				}
			],
			"stateMutability": "view",
			"type": "function"
		},
		{
			"inputs": [],
			"name": "DOMAIN_SEPARATOR",
			"outputs": [
				{
					"internalType": "bytes32",
					"name": "",
					"type": "bytes32"
				}
			],
			"stateMutability": "view",
			"type": "function"
		},
		{
			"inputs": [],
			"name": "Leverage_Margin",
			"outputs": [
				{
					"internalType": "uint256",
					"name": "",
					"type": "uint256"
				}
			],
			"stateMutability": "view",
			"type": "function"
		},
		{
			"inputs": [],
			"name": "Leverage_Max",
			"outputs": [
				{
					"internalType": "uint256",
					"name": "",
					"type": "uint256"
				}
			],
			"stateMutability": "view",
			"type": "function"
		},
		{
			"inputs": [
				{
					"internalType": "address",
					"name": "userID",
					"type": "address"
				},
				{
					"internalType": "address",
					"name": "_to",
					"type": "address"
				}
			],
			"name": "Liquidate",
			"outputs": [],
			"stateMutability": "nonpayable",
			"type": "function"
		},
		{
			"inputs": [],
			"name": "Liquidation_bonus",
			"outputs": [
				{
					"internalType": "uint256",
					"name": "",
					"type": "uint256"
				}
			],
			"stateMutability": "view",
			"type": "function"
		},
		{
			"inputs": [],
			"name": "Liquidation_rate",
			"outputs": [
				{
					"internalType": "uint256",
					"name": "",
					"type": "uint256"
				}
			],
			"stateMutability": "view",
			"type": "function"
		},
		{
			"inputs": [
				{
					"internalType": "uint256",
					"name": "",
					"type": "uint256"
				}
			],
			"name": "Margin_reserve",
			"outputs": [
				{
					"internalType": "uint256",
					"name": "",
					"type": "uint256"
				}
			],
			"stateMutability": "view",
			"type": "function"
		},
		{
			"inputs": [],
			"name": "PERMIT_TYPEHASH",
			"outputs": [
				{
					"internalType": "bytes32",
					"name": "",
					"type": "bytes32"
				}
			],
			"stateMutability": "view",
			"type": "function"
		},
		{
			"inputs": [],
			"name": "Peqx",
			"outputs": [
				{
					"internalType": "uint256",
					"name": "",
					"type": "uint256"
				}
			],
			"stateMutability": "view",
			"type": "function"
		},
		{
			"inputs": [],
			"name": "Peqy",
			"outputs": [
				{
					"internalType": "uint256",
					"name": "",
					"type": "uint256"
				}
			],
			"stateMutability": "view",
			"type": "function"
		},
		{
			"inputs": [
				{
					"internalType": "uint256",
					"name": "delta_X",
					"type": "uint256"
				},
				{
					"internalType": "uint256",
					"name": "delta_Y",
					"type": "uint256"
				},
				{
					"internalType": "address",
					"name": "userID",
					"type": "address"
				}
			],
			"name": "Perp_close",
			"outputs": [],
			"stateMutability": "nonpayable",
			"type": "function"
		},
		{
			"inputs": [
				{
					"internalType": "uint256",
					"name": "delta_X",
					"type": "uint256"
				},
				{
					"internalType": "uint256",
					"name": "delta_Y",
					"type": "uint256"
				},
				{
					"internalType": "bool",
					"name": "XtoY",
					"type": "bool"
				},
				{
					"internalType": "address",
					"name": "userID",
					"type": "address"
				}
			],
			"name": "Perp_open",
			"outputs": [],
			"stateMutability": "nonpayable",
			"type": "function"
		},
		{
			"inputs": [],
			"name": "Price_local",
			"outputs": [
				{
					"internalType": "uint256",
					"name": "",
					"type": "uint256"
				}
			],
			"stateMutability": "view",
			"type": "function"
		},
		{
			"inputs": [
				{
					"internalType": "uint256",
					"name": "L",
					"type": "uint256"
				}
			],
			"name": "Set_LeverageMargin",
			"outputs": [],
			"stateMutability": "nonpayable",
			"type": "function"
		},
		{
			"inputs": [
				{
					"internalType": "uint256",
					"name": "rate",
					"type": "uint256"
				}
			],
			"name": "Set_Liquidation_rate",
			"outputs": [],
			"stateMutability": "nonpayable",
			"type": "function"
		},
		{
			"inputs": [
				{
					"internalType": "uint256",
					"name": "f",
					"type": "uint256"
				}
			],
			"name": "Set_fundingrate_upper",
			"outputs": [],
			"stateMutability": "nonpayable",
			"type": "function"
		},
		{
			"inputs": [],
			"name": "Tick_range",
			"outputs": [
				{
					"internalType": "uint256",
					"name": "",
					"type": "uint256"
				}
			],
			"stateMutability": "view",
			"type": "function"
		},
		{
			"inputs": [],
			"name": "Total_Liquidity",
			"outputs": [
				{
					"internalType": "uint256",
					"name": "",
					"type": "uint256"
				}
			],
			"stateMutability": "view",
			"type": "function"
		},
		{
			"inputs": [],
			"name": "Total_debt_X",
			"outputs": [
				{
					"internalType": "uint256",
					"name": "",
					"type": "uint256"
				}
			],
			"stateMutability": "view",
			"type": "function"
		},
		{
			"inputs": [],
			"name": "Total_debt_Y",
			"outputs": [
				{
					"internalType": "uint256",
					"name": "",
					"type": "uint256"
				}
			],
			"stateMutability": "view",
			"type": "function"
		},
		{
			"inputs": [],
			"name": "Total_debttoken_X",
			"outputs": [
				{
					"internalType": "uint256",
					"name": "",
					"type": "uint256"
				}
			],
			"stateMutability": "view",
			"type": "function"
		},
		{
			"inputs": [],
			"name": "Total_debttoken_Y",
			"outputs": [
				{
					"internalType": "uint256",
					"name": "",
					"type": "uint256"
				}
			],
			"stateMutability": "view",
			"type": "function"
		},
		{
			"inputs": [],
			"name": "True_Liquid_X",
			"outputs": [
				{
					"internalType": "uint256",
					"name": "",
					"type": "uint256"
				}
			],
			"stateMutability": "view",
			"type": "function"
		},
		{
			"inputs": [],
			"name": "True_Liquid_X0",
			"outputs": [
				{
					"internalType": "uint256",
					"name": "",
					"type": "uint256"
				}
			],
			"stateMutability": "view",
			"type": "function"
		},
		{
			"inputs": [],
			"name": "True_Liquid_Y",
			"outputs": [
				{
					"internalType": "uint256",
					"name": "",
					"type": "uint256"
				}
			],
			"stateMutability": "view",
			"type": "function"
		},
		{
			"inputs": [],
			"name": "True_Liquid_Y0",
			"outputs": [
				{
					"internalType": "uint256",
					"name": "",
					"type": "uint256"
				}
			],
			"stateMutability": "view",
			"type": "function"
		},
		{
			"inputs": [],
			"name": "X_Coord",
			"outputs": [
				{
					"internalType": "uint256",
					"name": "",
					"type": "uint256"
				}
			],
			"stateMutability": "view",
			"type": "function"
		},
		{
			"inputs": [],
			"name": "Xeq",
			"outputs": [
				{
					"internalType": "uint256",
					"name": "",
					"type": "uint256"
				}
			],
			"stateMutability": "view",
			"type": "function"
		},
		{
			"inputs": [],
			"name": "Xgetp",
			"outputs": [
				{
					"internalType": "uint256",
					"name": "",
					"type": "uint256"
				}
			],
			"stateMutability": "view",
			"type": "function"
		},
		{
			"inputs": [],
			"name": "Y_Coord",
			"outputs": [
				{
					"internalType": "uint256",
					"name": "",
					"type": "uint256"
				}
			],
			"stateMutability": "view",
			"type": "function"
		},
		{
			"inputs": [],
			"name": "Yeq",
			"outputs": [
				{
					"internalType": "uint256",
					"name": "",
					"type": "uint256"
				}
			],
			"stateMutability": "view",
			"type": "function"
		},
		{
			"inputs": [],
			"name": "Ygetp",
			"outputs": [
				{
					"internalType": "uint256",
					"name": "",
					"type": "uint256"
				}
			],
			"stateMutability": "view",
			"type": "function"
		},
		{
			"inputs": [],
			"name": "_swap",
			"outputs": [
				{
					"internalType": "uint256",
					"name": "amountXIn",
					"type": "uint256"
				},
				{
					"internalType": "uint256",
					"name": "amountYIn",
					"type": "uint256"
				}
			],
			"stateMutability": "view",
			"type": "function"
		},
		{
			"inputs": [
				{
					"internalType": "address",
					"name": "",
					"type": "address"
				},
				{
					"internalType": "address",
					"name": "",
					"type": "address"
				}
			],
			"name": "allowance",
			"outputs": [
				{
					"internalType": "uint256",
					"name": "",
					"type": "uint256"
				}
			],
			"stateMutability": "view",
			"type": "function"
		},
		{
			"inputs": [
				{
					"internalType": "address",
					"name": "spender",
					"type": "address"
				},
				{
					"internalType": "uint256",
					"name": "value",
					"type": "uint256"
				}
			],
			"name": "approve",
			"outputs": [
				{
					"internalType": "bool",
					"name": "",
					"type": "bool"
				}
			],
			"stateMutability": "nonpayable",
			"type": "function"
		},
		{
			"inputs": [
				{
					"internalType": "address",
					"name": "",
					"type": "address"
				}
			],
			"name": "balanceOf",
			"outputs": [
				{
					"internalType": "uint256",
					"name": "",
					"type": "uint256"
				}
			],
			"stateMutability": "view",
			"type": "function"
		},
		{
			"inputs": [],
			"name": "const18",
			"outputs": [
				{
					"internalType": "uint256",
					"name": "",
					"type": "uint256"
				}
			],
			"stateMutability": "view",
			"type": "function"
		},
		{
			"inputs": [
				{
					"internalType": "address",
					"name": "",
					"type": "address"
				},
				{
					"internalType": "bool",
					"name": "",
					"type": "bool"
				}
			],
			"name": "debt_index",
			"outputs": [
				{
					"internalType": "address",
					"name": "user_ID",
					"type": "address"
				},
				{
					"internalType": "bool",
					"name": "token_ID",
					"type": "bool"
				},
				{
					"internalType": "uint256",
					"name": "debttoken_amount",
					"type": "uint256"
				},
				{
					"internalType": "uint256",
					"name": "position_amount",
					"type": "uint256"
				}
			],
			"stateMutability": "view",
			"type": "function"
		},
		{
			"inputs": [],
			"name": "decimals",
			"outputs": [
				{
					"internalType": "uint8",
					"name": "",
					"type": "uint8"
				}
			],
			"stateMutability": "view",
			"type": "function"
		},
		{
			"inputs": [],
			"name": "factory",
			"outputs": [
				{
					"internalType": "address",
					"name": "",
					"type": "address"
				}
			],
			"stateMutability": "view",
			"type": "function"
		},
		{
			"inputs": [],
			"name": "fee",
			"outputs": [
				{
					"internalType": "uint256",
					"name": "",
					"type": "uint256"
				}
			],
			"stateMutability": "view",
			"type": "function"
		},
		{
			"inputs": [],
			"name": "funding_Last",
			"outputs": [
				{
					"internalType": "uint256",
					"name": "",
					"type": "uint256"
				}
			],
			"stateMutability": "view",
			"type": "function"
		},
		{
			"inputs": [],
			"name": "funding_x_8h_upper",
			"outputs": [
				{
					"internalType": "uint256",
					"name": "",
					"type": "uint256"
				}
			],
			"stateMutability": "view",
			"type": "function"
		},
		{
			"inputs": [],
			"name": "fundingtime_Last",
			"outputs": [
				{
					"internalType": "uint256",
					"name": "",
					"type": "uint256"
				}
			],
			"stateMutability": "view",
			"type": "function"
		},
		{
			"inputs": [
				{
					"internalType": "address",
					"name": "_tokenX",
					"type": "address"
				},
				{
					"internalType": "address",
					"name": "_tokenY",
					"type": "address"
				}
			],
			"name": "initialize",
			"outputs": [],
			"stateMutability": "nonpayable",
			"type": "function"
		},
		{
			"inputs": [
				{
					"internalType": "address",
					"name": "",
					"type": "address"
				},
				{
					"internalType": "uint256",
					"name": "",
					"type": "uint256"
				}
			],
			"name": "margin_index",
			"outputs": [
				{
					"internalType": "uint256",
					"name": "",
					"type": "uint256"
				}
			],
			"stateMutability": "view",
			"type": "function"
		},
		{
			"inputs": [],
			"name": "name",
			"outputs": [
				{
					"internalType": "string",
					"name": "",
					"type": "string"
				}
			],
			"stateMutability": "view",
			"type": "function"
		},
		{
			"inputs": [
				{
					"internalType": "address",
					"name": "",
					"type": "address"
				}
			],
			"name": "nonces",
			"outputs": [
				{
					"internalType": "uint256",
					"name": "",
					"type": "uint256"
				}
			],
			"stateMutability": "view",
			"type": "function"
		},
		{
			"inputs": [],
			"name": "paying_side_Last",
			"outputs": [
				{
					"internalType": "bool",
					"name": "",
					"type": "bool"
				}
			],
			"stateMutability": "view",
			"type": "function"
		},
		{
			"inputs": [
				{
					"internalType": "address",
					"name": "owner",
					"type": "address"
				},
				{
					"internalType": "address",
					"name": "spender",
					"type": "address"
				},
				{
					"internalType": "uint256",
					"name": "value",
					"type": "uint256"
				},
				{
					"internalType": "uint256",
					"name": "deadline",
					"type": "uint256"
				},
				{
					"internalType": "uint8",
					"name": "v",
					"type": "uint8"
				},
				{
					"internalType": "bytes32",
					"name": "r",
					"type": "bytes32"
				},
				{
					"internalType": "bytes32",
					"name": "s",
					"type": "bytes32"
				}
			],
			"name": "permit",
			"outputs": [],
			"stateMutability": "nonpayable",
			"type": "function"
		},
		{
			"inputs": [
				{
					"internalType": "address",
					"name": "to",
					"type": "address"
				}
			],
			"name": "skim",
			"outputs": [],
			"stateMutability": "nonpayable",
			"type": "function"
		},
		{
			"inputs": [],
			"name": "symbol",
			"outputs": [
				{
					"internalType": "string",
					"name": "",
					"type": "string"
				}
			],
			"stateMutability": "view",
			"type": "function"
		},
		{
			"inputs": [],
			"name": "tokenX",
			"outputs": [
				{
					"internalType": "address",
					"name": "",
					"type": "address"
				}
			],
			"stateMutability": "view",
			"type": "function"
		},
		{
			"inputs": [],
			"name": "tokenY",
			"outputs": [
				{
					"internalType": "address",
					"name": "",
					"type": "address"
				}
			],
			"stateMutability": "view",
			"type": "function"
		},
		{
			"inputs": [],
			"name": "totalSupply",
			"outputs": [
				{
					"internalType": "uint256",
					"name": "",
					"type": "uint256"
				}
			],
			"stateMutability": "view",
			"type": "function"
		},
		{
			"inputs": [
				{
					"internalType": "address",
					"name": "to",
					"type": "address"
				},
				{
					"internalType": "uint256",
					"name": "value",
					"type": "uint256"
				}
			],
			"name": "transfer",
			"outputs": [
				{
					"internalType": "bool",
					"name": "",
					"type": "bool"
				}
			],
			"stateMutability": "nonpayable",
			"type": "function"
		},
		{
			"inputs": [
				{
					"internalType": "address",
					"name": "from",
					"type": "address"
				},
				{
					"internalType": "address",
					"name": "to",
					"type": "address"
				},
				{
					"internalType": "uint256",
					"name": "value",
					"type": "uint256"
				}
			],
			"name": "transferFrom",
			"outputs": [
				{
					"internalType": "bool",
					"name": "",
					"type": "bool"
				}
			],
			"stateMutability": "nonpayable",
			"type": "function"
		}
	]
}