{
	"data": {
		"bytecode": {
			"linkReferences": {},
			"object": "60806040526001602e553480156200001657600080fd5b5060004690507f8b73c3c69bb8fe3d512ecc4cf759cc79239f7b179b0ffacaa9a75d522b39400f6040518060400160405280600a81526020017f556e697377617020563200000000000000000000000000000000000000000000815250805190602001206040518060400160405280600181526020017f3100000000000000000000000000000000000000000000000000000000000000815250805190602001208330604051602001620000cf95949392919062000166565b604051602081830303815290604052805190602001206003819055505033602760006101000a81548173ffffffffffffffffffffffffffffffffffffffff021916908373ffffffffffffffffffffffffffffffffffffffff1602179055506200020b565b6200013e81620001c3565b82525050565b6200014f81620001d7565b82525050565b620001608162000201565b82525050565b600060a0820190506200017d600083018862000144565b6200018c602083018762000144565b6200019b604083018662000144565b620001aa606083018562000155565b620001b9608083018462000133565b9695505050505050565b6000620001d082620001e1565b9050919050565b6000819050919050565b600073ffffffffffffffffffffffffffffffffffffffff82169050919050565b6000819050919050565b617653806200021b6000396000f3fe608060405234801561001057600080fd5b50600436106104695760003560e01c80637e1431be1161024c578063c03d932f11610146578063df0ab2c2116100c3578063f738c74e11610087578063f738c74e14610df6578063fc69b80f14610e14578063fc978e5414610e44578063fe18f26114610e64578063ff2f169e14610e8257610469565b8063df0ab2c214610d4e578063e178104914610d6c578063e19a147414610d9c578063ea1797b014610dba578063f70f439414610dd857610469565b8063cfe38a5e1161010a578063cfe38a5e14610c98578063d44022db14610cb4578063d505accf14610cd2578063da5604ce14610cee578063dd62ed3e14610d1e57610469565b8063c03d932f14610bf2578063c3d81b2114610c22578063c45a015514610c3e578063c7d4493214610c5c578063c9e525df14610c7a57610469565b806395d89b41116101d4578063a9059cbb11610198578063a9059cbb14610b4c578063acd4a7c214610b7c578063b6e361a114610b9a578063b7d19fc414610bb8578063bc25cf7714610bd657610469565b806395d89b4114610aba5780639a36e12214610ad85780639f1d0f5914610af6578063a54c08f314610b12578063a5aa65b914610b2e57610469565b806383dfe5fd1161021b57806383dfe5fd14610a265780638400968614610a445780638bc1a32f14610a625780638e36138914610a805780639076ae8614610a9e57610469565b80637e1431be146109875780637ecebe00146109ba5780637ed6281b146109ea57806380416c0214610a0857610469565b8063313ce567116103685780635595d459116102e5578063693f917e116102a9578063693f917e146108cd578063699553aa146108eb5780636b3545aa1461091b57806370a082311461093957806379dbf8ea1461096957610469565b80635595d459146108125780635e287d86146108305780636126deef1461084e5780636607e7e81461087e5780636665ff111461089c57610469565b80633c6fe2f41161032c5780633c6fe2f41461076e578063480c4f7e1461078c578063485cc955146107aa5780634c324e6a146107c65780635115b6cf146107e257610469565b8063313ce567146106da57806332e7c5bf146106f857806335714521146107165780633644e5151461073257806336af2f9b1461075057610469565b806318160ddd116103f657806323ed16b6116103ba57806323ed16b61461063257806325c513a4146106505780632abc28aa1461066e5780632dd6c2541461069e57806330adf81f146106bc57610469565b806318160ddd1461058a57806318db9681146105a85780632190219e146105c6578063225c2c50146105e457806323b872dd1461060257610469565b80630b1976151161043d5780630b197615146104f65780630bfa68d8146105145780630f529ba214610530578063139860ee1461054e57806316dc165b1461056c57610469565b8062b526451461046e57806306fdde031461048c578063095ea7b3146104aa57806309e95861146104da575b600080fd5b610476610e9e565b6040516104839190616e6e565b60405180910390f35b610494610ea4565b6040516104a19190616ccc565b60405180910390f35b6104c460048036038101906104bf9190616578565b610edd565b6040516104d19190616bf0565b60405180910390f35b6104f460048036038101906104ef9190616725565b610ef4565b005b6104fe610fc3565b60405161050b9190616e6e565b60405180910390f35b61052e60048036038101906105299190616638565b610fc9565b005b610538611063565b6040516105459190616e6e565b60405180910390f35b610556611069565b6040516105639190616e6e565b60405180910390f35b61057461106f565b6040516105819190616b45565b60405180910390f35b610592611095565b60405161059f9190616e6e565b60405180910390f35b6105b061109b565b6040516105bd9190616e6e565b60405180910390f35b6105ce6110a1565b6040516105db9190616e6e565b60405180910390f35b6105ec6110a7565b6040516105f99190616e6e565b60405180910390f35b61061c60048036038101906106179190616443565b6110ad565b6040516106299190616bf0565b60405180910390f35b61063a61125a565b6040516106479190616e6e565b60405180910390f35b610658611260565b6040516106659190616e6e565b60405180910390f35b610688600480360381019061068391906163d6565b611266565b6040516106959190616e6e565b60405180910390f35b6106a6611392565b6040516106b39190616e6e565b60405180910390f35b6106c4611398565b6040516106d19190616c0b565b60405180910390f35b6106e26113bf565b6040516106ef9190616ee9565b60405180910390f35b6107006113c4565b60405161070d9190616e6e565b60405180910390f35b610730600480360381019061072b9190616638565b6113ca565b005b61073a611464565b6040516107479190616c0b565b60405180910390f35b61075861146a565b6040516107659190616e6e565b60405180910390f35b610776611470565b6040516107839190616e6e565b60405180910390f35b610794611476565b6040516107a19190616e6e565b60405180910390f35b6107c460048036038101906107bf9190616403565b61147c565b005b6107e060048036038101906107db9190616725565b611592565b005b6107fc60048036038101906107f791906163d6565b61202d565b6040516108099190616e6e565b60405180910390f35b61081a6121b5565b6040516108279190616e6e565b60405180910390f35b6108386121bb565b6040516108459190616e6e565b60405180910390f35b61086860048036038101906108639190616725565b6121c1565b6040516108759190616e6e565b60405180910390f35b6108866122e6565b6040516108939190616e6e565b60405180910390f35b6108b660048036038101906108b19190616692565b6122ec565b6040516108c4929190616e89565b60405180910390f35b6108d5612489565b6040516108e29190616e6e565b60405180910390f35b610905600480360381019061090091906163d6565b61248f565b6040516109129190616e6e565b60405180910390f35b6109236124a7565b6040516109309190616e6e565b60405180910390f35b610953600480360381019061094e91906163d6565b6124ad565b6040516109609190616e6e565b60405180910390f35b6109716124c5565b60405161097e9190616e6e565b60405180910390f35b6109a1600480360381019061099c9190616538565b6124cb565b6040516109b19493929190616b60565b60405180910390f35b6109d460048036038101906109cf91906163d6565b612535565b6040516109e19190616e6e565b60405180910390f35b6109f261254d565b6040516109ff9190616e6e565b60405180910390f35b610a10612553565b604051610a1d9190616e6e565b60405180910390f35b610a2e612559565b604051610a3b9190616e6e565b60405180910390f35b610a4c61255f565b604051610a599190616e6e565b60405180910390f35b610a6a612565565b604051610a779190616e6e565b60405180910390f35b610a8861256b565b604051610a959190616e6e565b60405180910390f35b610ab86004803603810190610ab39190616778565b612571565b005b610ac2612a0f565b604051610acf9190616ccc565b60405180910390f35b610ae0612a48565b604051610aed9190616e6e565b60405180910390f35b610b106004803603810190610b0b91906165b8565b612a4e565b005b610b2c6004803603810190610b2791906166d2565b612e30565b005b610b36612ee6565b604051610b439190616e6e565b60405180910390f35b610b666004803603810190610b619190616578565b612eec565b604051610b739190616bf0565b60405180910390f35b610b84612f03565b604051610b919190616e6e565b60405180910390f35b610ba2612f09565b604051610baf9190616bce565b60405180910390f35b610bc0612f9e565b604051610bcd9190616b45565b60405180910390f35b610bf06004803603810190610beb91906163d6565b612fc4565b005b610c0c6004803603810190610c0791906163d6565b6131ba565b604051610c199190616e6e565b60405180910390f35b610c3c6004803603810190610c379190616403565b6132e8565b005b610c46613669565b604051610c539190616b45565b60405180910390f35b610c6461368f565b604051610c719190616bf0565b60405180910390f35b610c826136a2565b604051610c8f9190616e6e565b60405180910390f35b610cb26004803603810190610cad9190616638565b6136a8565b005b610cbc613742565b604051610cc99190616e6e565b60405180910390f35b610cec6004803603810190610ce79190616496565b613748565b005b610d086004803603810190610d039190616638565b613970565b604051610d159190616b45565b60405180910390f35b610d386004803603810190610d339190616403565b6139af565b604051610d459190616e6e565b60405180910390f35b610d566139d4565b604051610d639190616e6e565b60405180910390f35b610d866004803603810190610d8191906163d6565b6139da565b604051610d939190616e6e565b60405180910390f35b610da46139e1565b604051610db19190616e6e565b60405180910390f35b610dc26139e7565b604051610dcf9190616e6e565b60405180910390f35b610de06139ed565b604051610ded9190616e6e565b60405180910390f35b610dfe6139f3565b604051610e0b9190616e6e565b60405180910390f35b610e2e6004803603810190610e299190616578565b6139f9565b604051610e3b9190616e6e565b60405180910390f35b610e4c613a2a565b604051610e5b93929190616eb2565b60405180910390f35b610e6c613f2e565b604051610e799190616e6e565b60405180910390f35b610e9c6004803603810190610e979190616638565b613f34565b005b600e5481565b6040518060400160405280600a81526020017f556e69737761702056320000000000000000000000000000000000000000000081525081565b6000610eea338484613fce565b6001905092915050565b6001602e5414610f39576040517f08c379a0000000000000000000000000000000000000000000000000000000008152600401610f3090616e4e565b60405180910390fd5b6000602e8190555060008284610f4f9190617172565b148015610f67575060008284610f659190616f7a565b115b610f7057600080fd5b6000831115610f9957610f87836000600184612571565b610f948360008084612571565b610fb6565b610fa7600083600184612571565b610fb5600083600084612571565b5b6001602e81905550505050565b60155481565b602760009054906101000a900473ffffffffffffffffffffffffffffffffffffffff1673ffffffffffffffffffffffffffffffffffffffff163373ffffffffffffffffffffffffffffffffffffffff1614611059576040517f08c379a000000000000000000000000000000000000000000000000000000000815260040161105090616d6e565b60405180910390fd5b8060218190555050565b60075481565b601c5481565b602860009054906101000a900473ffffffffffffffffffffffffffffffffffffffff1681565b60005481565b601d5481565b60195481565b601a5481565b6000610101600260008673ffffffffffffffffffffffffffffffffffffffff1673ffffffffffffffffffffffffffffffffffffffff16815260200190815260200160002060003373ffffffffffffffffffffffffffffffffffffffff1673ffffffffffffffffffffffffffffffffffffffff1681526020019081526020016000205414611244576111c382600260008773ffffffffffffffffffffffffffffffffffffffff1673ffffffffffffffffffffffffffffffffffffffff16815260200190815260200160002060003373ffffffffffffffffffffffffffffffffffffffff1673ffffffffffffffffffffffffffffffffffffffff168152602001908152602001600020546140b990919063ffffffff16565b600260008673ffffffffffffffffffffffffffffffffffffffff1673ffffffffffffffffffffffffffffffffffffffff16815260200190815260200160002060003373ffffffffffffffffffffffffffffffffffffffff1673ffffffffffffffffffffffffffffffffffffffff168152602001908152602001600020819055505b61124f848484614112565b600190509392505050565b601e5481565b60255481565b600080603160008473ffffffffffffffffffffffffffffffffffffffff1673ffffffffffffffffffffffffffffffffffffffff1681526020019081526020016000208054806020026020016040519081016040528092919081815260200182805480156112f257602002820191906000526020600020905b8154815260200190600101908083116112de575b505050505090506000611303612f09565b905060008251905060005b8181101561138957670de0b6b3a764000083828151811061133257611331617343565b5b602002602001015185838151811061134d5761134c617343565b5b602002602001015161135f9190617172565b6113699190616fd0565b856113749190616f7a565b9450808061138190617292565b91505061130e565b50505050919050565b602b5481565b7f6e71edae12b1b97f4d1f60370fef10105fa2faae0126114a169c64845d6126c960001b81565b601281565b60055481565b602760009054906101000a900473ffffffffffffffffffffffffffffffffffffffff1673ffffffffffffffffffffffffffffffffffffffff163373ffffffffffffffffffffffffffffffffffffffff161461145a576040517f08c379a000000000000000000000000000000000000000000000000000000000815260040161145190616d6e565b60405180910390fd5b80601d8190555050565b60035481565b600c5481565b60135481565b60175481565b602760009054906101000a900473ffffffffffffffffffffffffffffffffffffffff1673ffffffffffffffffffffffffffffffffffffffff163373ffffffffffffffffffffffffffffffffffffffff161461150c576040517f08c379a000000000000000000000000000000000000000000000000000000000815260040161150390616d6e565b60405180910390fd5b81602860006101000a81548173ffffffffffffffffffffffffffffffffffffffff021916908373ffffffffffffffffffffffffffffffffffffffff16021790555080602960006101000a81548173ffffffffffffffffffffffffffffffffffffffff021916908373ffffffffffffffffffffffffffffffffffffffff1602179055505050565b6001602e54146115d7576040517f08c379a00000000000000000000000000000000000000000000000000000000081526004016115ce90616e4e565b60405180910390fd5b6000602e81905550600082846115ed9190617172565b1480156116055750600082846116039190616f7a565b115b61160e57600080fd5b6116166142a6565b603060008273ffffffffffffffffffffffffffffffffffffffff1673ffffffffffffffffffffffffffffffffffffffff1681526020019081526020016000206000801515151581526020019081526020016000206002015483111580156116d55750603060008273ffffffffffffffffffffffffffffffffffffffff1673ffffffffffffffffffffffffffffffffffffffff16815260200190815260200160002060006001151515158152602001908152602001600020600201548211155b611714576040517f08c379a000000000000000000000000000000000000000000000000000000000815260040161170b90616e0e565b60405180910390fd5b6000831115611ba557600061172a846001614453565b90506000603060008473ffffffffffffffffffffffffffffffffffffffff1673ffffffffffffffffffffffffffffffffffffffff16815260200190815260200160002060008015151515815260200190815260200160002060020154601c54601a54603060008773ffffffffffffffffffffffffffffffffffffffff1673ffffffffffffffffffffffffffffffffffffffff1681526020019081526020016000206000600115151515815260200190815260200160002060010154886117f09190617172565b6117fa9190617172565b6118049190616fd0565b61180e9190616fd0565b905084603060008573ffffffffffffffffffffffffffffffffffffffff1673ffffffffffffffffffffffffffffffffffffffff168152602001908152602001600020600080151515158152602001908152602001600020600201600082825461187791906171cc565b9250508190555080601a600082825461189091906171cc565b92505081905550603060008473ffffffffffffffffffffffffffffffffffffffff1673ffffffffffffffffffffffffffffffffffffffff1681526020019081526020016000206000801515151581526020019081526020016000206002015485603060008673ffffffffffffffffffffffffffffffffffffffff1673ffffffffffffffffffffffffffffffffffffffff16815260200190815260200160002060006001151515158152602001908152602001600020600101546119539190617172565b61195d9190616fd0565b601c600082825461196e91906171cc565b92505081905550603060008473ffffffffffffffffffffffffffffffffffffffff1673ffffffffffffffffffffffffffffffffffffffff1681526020019081526020016000206000801515151581526020019081526020016000206002015485603060008673ffffffffffffffffffffffffffffffffffffffff1673ffffffffffffffffffffffffffffffffffffffff1681526020019081526020016000206000600115151515815260200190815260200160002060010154611a319190617172565b611a3b9190616fd0565b603060008573ffffffffffffffffffffffffffffffffffffffff1673ffffffffffffffffffffffffffffffffffffffff168152602001908152602001600020600060011515151581526020019081526020016000206001016000828254611aa291906171cc565b92505081905550808210611b9d57611ac68183611abf91906171cc565b6000614906565b603160008573ffffffffffffffffffffffffffffffffffffffff1673ffffffffffffffffffffffffffffffffffffffff16815260200190815260200160002060326000602860009054906101000a900473ffffffffffffffffffffffffffffffffffffffff1673ffffffffffffffffffffffffffffffffffffffff1673ffffffffffffffffffffffffffffffffffffffff1681526020019081526020016000205481548110611b7857611b77617343565b5b906000526020600020016000828254611b919190616f7a565b92505081905550611b9e565b5b5050612020565b6000611bb2836001614906565b90506000603060008473ffffffffffffffffffffffffffffffffffffffff1673ffffffffffffffffffffffffffffffffffffffff1681526020019081526020016000206000600115151515815260200190815260200160002060020154601b54601954603060008773ffffffffffffffffffffffffffffffffffffffff1673ffffffffffffffffffffffffffffffffffffffff1681526020019081526020016000206000801515151581526020019081526020016000206001015487611c789190617172565b611c829190617172565b611c8c9190616fd0565b611c969190616fd0565b905083603060008573ffffffffffffffffffffffffffffffffffffffff1673ffffffffffffffffffffffffffffffffffffffff168152602001908152602001600020600060011515151581526020019081526020016000206002016000828254611d0091906171cc565b925050819055508060196000828254611d1991906171cc565b92505081905550603060008473ffffffffffffffffffffffffffffffffffffffff1673ffffffffffffffffffffffffffffffffffffffff168152602001908152602001600020600060011515151581526020019081526020016000206002015484603060008673ffffffffffffffffffffffffffffffffffffffff1673ffffffffffffffffffffffffffffffffffffffff16815260200190815260200160002060008015151515815260200190815260200160002060010154611ddc9190617172565b611de69190616fd0565b601b6000828254611df791906171cc565b92505081905550603060008473ffffffffffffffffffffffffffffffffffffffff1673ffffffffffffffffffffffffffffffffffffffff168152602001908152602001600020600060011515151581526020019081526020016000206002015484603060008673ffffffffffffffffffffffffffffffffffffffff1673ffffffffffffffffffffffffffffffffffffffff16815260200190815260200160002060008015151515815260200190815260200160002060010154611eba9190617172565b611ec49190616fd0565b603060008573ffffffffffffffffffffffffffffffffffffffff1673ffffffffffffffffffffffffffffffffffffffff1681526020019081526020016000206000801515151581526020019081526020016000206001016000828254611f2a91906171cc565b925050819055508082111561201c578082611f4591906171cc565b603160008573ffffffffffffffffffffffffffffffffffffffff1673ffffffffffffffffffffffffffffffffffffffff16815260200190815260200160002060326000602860009054906101000a900473ffffffffffffffffffffffffffffffffffffffff1673ffffffffffffffffffffffffffffffffffffffff1673ffffffffffffffffffffffffffffffffffffffff1681526020019081526020016000205481548110611ff757611ff6617343565b5b9060005260206000200160008282546120109190616f7a565b9250508190555061201d565b5b50505b6001602e81905550505050565b6000670de0b6b3a7640000612063602860009054906101000a900473ffffffffffffffffffffffffffffffffffffffff166139da565b601b54601954603060008773ffffffffffffffffffffffffffffffffffffffff1673ffffffffffffffffffffffffffffffffffffffff168152602001908152602001600020600080151515158152602001908152602001600020600101546120cb9190617172565b6120d59190616fd0565b6120df9190617172565b6120e99190616fd0565b670de0b6b3a764000061211d602960009054906101000a900473ffffffffffffffffffffffffffffffffffffffff166139da565b601c54601a54603060008873ffffffffffffffffffffffffffffffffffffffff1673ffffffffffffffffffffffffffffffffffffffff16815260200190815260200160002060006001151515158152602001908152602001600020600101546121869190617172565b6121909190616fd0565b61219a9190617172565b6121a49190616fd0565b6121ae9190616f7a565b9050919050565b60145481565b601f5481565b60006001602e5414612208576040517f08c379a00000000000000000000000000000000000000000000000000000000081526004016121ff90616e4e565b60405180910390fd5b6000602e81905550601454846014546122219190616f7a565b600b5461222e9190617172565b6122389190616fd0565b600b819055506013548360135461224f9190616f7a565b600c5461225c9190617172565b6122669190616fd0565b600c8190555060145484602b5461227d9190617172565b6122879190616fd0565b905080602b546122979190616f7a565b602b81905550836014546122ab9190616f7a565b601481905550826013546122bf9190616f7a565b6013819055506122cf8282614db9565b6122d7614ed3565b6001602e819055509392505050565b60165481565b6000806001602e5414612334576040517f08c379a000000000000000000000000000000000000000000000000000000000815260040161232b90616e4e565b60405180910390fd5b6000602e81905550602b546014548561234d9190617172565b6123579190616fd0565b9150602b546013548561236a9190617172565b6123749190616fd0565b90506014548260145461238791906171cc565b600b546123949190617172565b61239e9190616fd0565b600b81905550601354816013546123b591906171cc565b600c546123c29190617172565b6123cc9190616fd0565b600c81905550816014546123e091906171cc565b601481905550806013546123f491906171cc565b60138190555083602b5461240891906171cc565b602b81905550612418308561514d565b612445602860009054906101000a900473ffffffffffffffffffffffffffffffffffffffff168484615267565b612472602960009054906101000a900473ffffffffffffffffffffffffffffffffffffffff168483615267565b61247a614ed3565b6001602e819055509250929050565b60235481565b60326020528060005260406000206000915090505481565b601b5481565b60016020528060005260406000206000915090505481565b60125481565b6030602052816000526040600020602052806000526040600020600091509150508060000160009054906101000a900473ffffffffffffffffffffffffffffffffffffffff16908060000160149054906101000a900460ff16908060010154908060020154905084565b60046020528060005260406000206000915090505481565b60225481565b600a5481565b60065481565b600b5481565b602c5481565b60095481565b6001602e54146125b6576040517f08c379a00000000000000000000000000000000000000000000000000000000081526004016125ad90616e4e565b60405180910390fd5b6000602e81905550600083856125cc9190617172565b1480156125e45750600083856125e29190616f7a565b115b6125ed57600080fd5b6125f56142a6565b61268f612601826131ba565b61262c602860009054906101000a900473ffffffffffffffffffffffffffffffffffffffff166139da565b866126379190617172565b6126419190616f7a565b61264a836131ba565b612675602960009054906101000a900473ffffffffffffffffffffffffffffffffffffffff166139da565b866126809190617172565b61268a9190616f7a565b6153f1565b602a5461269b8361202d565b6126a4846131ba565b6126ad85611266565b6126b79190616f7a565b6126c191906171cc565b6126cb9190616fd0565b1161270b576040517f08c379a000000000000000000000000000000000000000000000000000000000815260040161270290616dee565b60405180910390fd5b60008060011515841515141561288f5760008611156127395761272f866001614453565b915085905061274c565b849150612749856000600161540a565b90505b601954601b548261275d9190617172565b6127679190616fd0565b603060008573ffffffffffffffffffffffffffffffffffffffff1673ffffffffffffffffffffffffffffffffffffffff16815260200190815260200160002060008015151515815260200190815260200160002060010160008282546127cd9190616f7a565b9250508190555081603060008573ffffffffffffffffffffffffffffffffffffffff1673ffffffffffffffffffffffffffffffffffffffff16815260200190815260200160002060006001151515158152602001908152602001600020600201600082825461283c9190616f7a565b92505081905550601b54601954601b54836128579190617172565b6128619190616fd0565b61286b9190616f7a565b601b8190555080601960008282546128839190616f7a565b925050819055506129ff565b60008611156128af578591506128a886600060016158a9565b90506128c0565b6128ba856001614906565b91508490505b601a54601c54826128d19190617172565b6128db9190616fd0565b603060008573ffffffffffffffffffffffffffffffffffffffff1673ffffffffffffffffffffffffffffffffffffffff1681526020019081526020016000206000600115151515815260200190815260200160002060010160008282546129429190616f7a565b9250508190555081603060008573ffffffffffffffffffffffffffffffffffffffff1673ffffffffffffffffffffffffffffffffffffffff16815260200190815260200160002060008015151515815260200190815260200160002060020160008282546129b09190616f7a565b92505081905550601c54601a54601c54836129cb9190617172565b6129d59190616fd0565b6129df9190616f7a565b601c8190555080601a60008282546129f79190616f7a565b925050819055505b50506001602e8190555050505050565b6040518060400160405280600681526020017f554e492d5632000000000000000000000000000000000000000000000000000081525081565b602a5481565b6001602e5414612a93576040517f08c379a0000000000000000000000000000000000000000000000000000000008152600401612a8a90616e4e565b60405180910390fd5b6000602e819055506000806000602860009054906101000a900473ffffffffffffffffffffffffffffffffffffffff1690506000602960009054906101000a900473ffffffffffffffffffffffffffffffffffffffff1690506000861480612afb5750600085145b612b3a576040517f08c379a0000000000000000000000000000000000000000000000000000000008152600401612b3190616d4e565b60405180910390fd5b8173ffffffffffffffffffffffffffffffffffffffff168773ffffffffffffffffffffffffffffffffffffffff1614158015612ba257508073ffffffffffffffffffffffffffffffffffffffff168773ffffffffffffffffffffffffffffffffffffffff1614155b612be1576040517f08c379a0000000000000000000000000000000000000000000000000000000008152600401612bd890616e2e565b60405180910390fd5b8173ffffffffffffffffffffffffffffffffffffffff166370a08231306040518263ffffffff1660e01b8152600401612c1a9190616b45565b60206040518083038186803b158015612c3257600080fd5b505afa158015612c46573d6000803e3d6000fd5b505050506040513d601f19601f82011682018060405250810190612c6a9190616665565b93508073ffffffffffffffffffffffffffffffffffffffff166370a08231306040518263ffffffff1660e01b8152600401612ca59190616b45565b60206040518083038186803b158015612cbd57600080fd5b505afa158015612cd1573d6000803e3d6000fd5b505050506040513d601f19601f82011682018060405250810190612cf59190616665565b9250600060145485612d0791906171cc565b9050600060135485612d1991906171cc565b90506000821180612d2a5750600081115b612d69576040517f08c379a0000000000000000000000000000000000000000000000000000000008152600401612d6090616d2e565b60405180910390fd5b6000881115612da357612d93838a612d838b8560006158a9565b84612d8e91906171cc565b615267565b612d9e848a8a615267565b612e1d565b6000871115612ddd57612dcd848a612dbd8a86600061540a565b85612dc891906171cc565b615267565b612dd8838a89615267565b612e1c565b6000821115612dfc57612dfb838a612df6856000614453565b615267565b5b6000811115612e1b57612e1a848a612e15846000614906565b615267565b5b5b5b5050505050506001602e81905550505050565b82603160008373ffffffffffffffffffffffffffffffffffffffff1673ffffffffffffffffffffffffffffffffffffffff168152602001908152602001600020603260008573ffffffffffffffffffffffffffffffffffffffff1673ffffffffffffffffffffffffffffffffffffffff1681526020019081526020016000205481548110612ec157612ec0617343565b5b906000526020600020016000828254612eda9190616f7a565b92505081905550505050565b60105481565b6000612ef9338484614112565b6001905092915050565b60265481565b60606000602f80549050905060005b81811015612f9957612f67602f8281548110612f3757612f36617343565b5b9060005260206000200160009054906101000a900473ffffffffffffffffffffffffffffffffffffffff166139da565b838281518110612f7a57612f79617343565b5b6020026020010181815250508080612f9190617292565b915050612f18565b505090565b602960009054906101000a900473ffffffffffffffffffffffffffffffffffffffff1681565b6001602e5414613009576040517f08c379a000000000000000000000000000000000000000000000000000000000815260040161300090616e4e565b60405180910390fd5b6000602e819055506000602860009054906101000a900473ffffffffffffffffffffffffffffffffffffffff1690506000602960009054906101000a900473ffffffffffffffffffffffffffffffffffffffff16905061310682846131016014548673ffffffffffffffffffffffffffffffffffffffff166370a08231306040518263ffffffff1660e01b81526004016130a39190616b45565b60206040518083038186803b1580156130bb57600080fd5b505afa1580156130cf573d6000803e3d6000fd5b505050506040513d601f19601f820116820180604052508101906130f39190616665565b6140b990919063ffffffff16565b615267565b6131ad81846131a86013548573ffffffffffffffffffffffffffffffffffffffff166370a08231306040518263ffffffff1660e01b815260040161314a9190616b45565b60206040518083038186803b15801561316257600080fd5b505afa158015613176573d6000803e3d6000fd5b505050506040513d601f19601f8201168201806040525081019061319a9190616665565b6140b990919063ffffffff16565b615267565b50506001602e8190555050565b60006131e7602960009054906101000a900473ffffffffffffffffffffffffffffffffffffffff166139da565b603060008473ffffffffffffffffffffffffffffffffffffffff1673ffffffffffffffffffffffffffffffffffffffff168152602001908152602001600020600060011515151581526020019081526020016000206002015461324a9190617172565b613275602860009054906101000a900473ffffffffffffffffffffffffffffffffffffffff166139da565b603060008573ffffffffffffffffffffffffffffffffffffffff1673ffffffffffffffffffffffffffffffffffffffff168152602001908152602001600020600080151515158152602001908152602001600020600201546132d79190617172565b6132e19190616f7a565b9050919050565b6001602e541461332d576040517f08c379a000000000000000000000000000000000000000000000000000000000815260040161332490616e4e565b60405180910390fd5b6000602e8190555061333e826131ba565b6133478361202d565b118015613383575061335882611266565b602c546133659190617172565b61336e836131ba565b6133778461202d565b61338191906171cc565b115b6133c2576040517f08c379a00000000000000000000000000000000000000000000000000000000081526004016133b990616d6e565b60405180910390fd5b6000602f80549050905060005b8181101561349b57613488602f82815481106133ee576133ed617343565b5b9060005260206000200160009054906101000a900473ffffffffffffffffffffffffffffffffffffffff1684602d54603160008973ffffffffffffffffffffffffffffffffffffffff1673ffffffffffffffffffffffffffffffffffffffff168152602001908152602001600020858154811061346e5761346d617343565b5b90600052602060002001546134839190617172565b615267565b808061349390617292565b9150506133cf565b50603160008473ffffffffffffffffffffffffffffffffffffffff1673ffffffffffffffffffffffffffffffffffffffff16815260200190815260200160002060006134e79190616305565b6000603060008573ffffffffffffffffffffffffffffffffffffffff1673ffffffffffffffffffffffffffffffffffffffff168152602001908152602001600020600080151515158152602001908152602001600020600101819055506000603060008573ffffffffffffffffffffffffffffffffffffffff1673ffffffffffffffffffffffffffffffffffffffff168152602001908152602001600020600060011515151581526020019081526020016000206001018190555061365c603060008573ffffffffffffffffffffffffffffffffffffffff1673ffffffffffffffffffffffffffffffffffffffff16815260200190815260200160002060008015151515815260200190815260200160002060020154603060008673ffffffffffffffffffffffffffffffffffffffff1673ffffffffffffffffffffffffffffffffffffffff168152602001908152602001600020600060011515151581526020019081526020016000206002015485611592565b506001602e819055505050565b602760009054906101000a900473ffffffffffffffffffffffffffffffffffffffff1681565b602060009054906101000a900460ff1681565b60245481565b602760009054906101000a900473ffffffffffffffffffffffffffffffffffffffff1673ffffffffffffffffffffffffffffffffffffffff163373ffffffffffffffffffffffffffffffffffffffff1614613738576040517f08c379a000000000000000000000000000000000000000000000000000000000815260040161372f90616d6e565b60405180910390fd5b80602a8190555050565b60185481565b4284101561378b576040517f08c379a000000000000000000000000000000000000000000000000000000000815260040161378290616dce565b60405180910390fd5b60006003547f6e71edae12b1b97f4d1f60370fef10105fa2faae0126114a169c64845d6126c960001b898989600460008e73ffffffffffffffffffffffffffffffffffffffff1673ffffffffffffffffffffffffffffffffffffffff168152602001908152602001600020600081548092919061380790617292565b919050558a60405160200161382196959493929190616c26565b60405160208183030381529060405280519060200120604051602001613848929190616b0e565b6040516020818303038152906040528051906020012090506000600182868686604051600081526020016040526040516138859493929190616c87565b6020604051602081039080840390855afa1580156138a7573d6000803e3d6000fd5b505050602060405103519050600073ffffffffffffffffffffffffffffffffffffffff168173ffffffffffffffffffffffffffffffffffffffff161415801561391b57508873ffffffffffffffffffffffffffffffffffffffff168173ffffffffffffffffffffffffffffffffffffffff16145b61395a576040517f08c379a000000000000000000000000000000000000000000000000000000000815260040161395190616d8e565b60405180910390fd5b613965898989613fce565b505050505050505050565b602f818154811061398057600080fd5b906000526020600020016000915054906101000a900473ffffffffffffffffffffffffffffffffffffffff1681565b6002602052816000526040600020602052806000526040600020600091509150505481565b600f5481565b6000919050565b60215481565b60115481565b602d5481565b60085481565b60316020528160005260406000208181548110613a1557600080fd5b90600052602060002001600091509150505481565b600080600080670de0b6b3a7640000600e54601454613a499190617172565b613a539190616fd0565b90506000670de0b6b3a7640000600d54601354613a709190617172565b613a7a9190616fd0565b90506000602354670de0b6b3a7640000600754613a979190617172565b613aa19190616fd0565b905060008284613ab191906171cc565b670de0b6b3a7640000846002613ac79190617172565b85876004878889613ad89190617172565b613ae29190617172565b613aec9190616fd0565b613af69190616fd0565b613b009190616fd0565b613b0a91906171cc565b613b149190617172565b613b1e9190616fd0565b9050600081671bc16d674ec80000613b3691906171cc565b90506000600e54670de0b6b3a764000086868788613b549190617172565b613b5e9190617172565b613b689190617172565b613b729190617172565b8687898a886004613b839190617172565b613b8d9190617172565b613b979190617172565b613ba19190617172565b613bab9190617172565b613bb59190616f7a565b670de0b6b3a7640000600d54670de0b6b3a76400008a6007546007548b613bdc9190617172565b613be69190617172565b613bf09190617172565b613bfa9190617172565b898a8c8d8a6004613c0b9190617172565b613c159190617172565b613c1f9190617172565b613c299190617172565b613c339190617172565b613c3d9190616f7a565b613c479190617172565b613c519190617172565b613c5b9190616fd0565b613c659190616fd0565b90506000600e54670de0b6b3a7640000600c54600754600754600754613c8b9190617172565b613c959190617172565b613c9f9190617172565b613ca99190617172565b600c54600c54600b54600b546005546004613cc49190617172565b613cce9190617172565b613cd89190617172565b613ce29190617172565b613cec9190617172565b613cf69190616f7a565b670de0b6b3a7640000600d54670de0b6b3a7640000600b54600754600754600754613d219190617172565b613d2b9190617172565b613d359190617172565b613d3f9190617172565b600c54600c54600b54600b546006546004613d5a9190617172565b613d649190617172565b613d6e9190617172565b613d789190617172565b613d829190617172565b613d8c9190616f7a565b613d969190617172565b613da09190617172565b613daa9190616fd0565b613db49190616fd0565b905081811115613e5a57600060225461e100600f54601354613dd69190616f7a565b670de0b6b3a7640000600f54613dec9190617172565b613df69190616fd0565b613e009190616fd0565b613e0a9190616f7a565b90508061168084670de0b6b3a76400008686613e2691906171cc565b613e309190617172565b613e3a9190616fd0565b613e449190616fd0565b613e4e9190616f7a565b9a506000985050613ef2565b600060225461e100601054601454613e729190616f7a565b670de0b6b3a7640000601054613e889190617172565b613e929190616fd0565b613e9c9190616fd0565b613ea69190616f7a565b90508061168084670de0b6b3a76400008587613ec291906171cc565b613ecc9190617172565b613ed69190616fd0565b613ee09190616fd0565b613eea9190616f7a565b9a5060019850505b6107808a613f009190617172565b9850602154891115613f2257602154985061078089613f1f9190616fd0565b99505b50505050505050909192565b600d5481565b602760009054906101000a900473ffffffffffffffffffffffffffffffffffffffff1673ffffffffffffffffffffffffffffffffffffffff163373ffffffffffffffffffffffffffffffffffffffff1614613fc4576040517f08c379a0000000000000000000000000000000000000000000000000000000008152600401613fbb90616d6e565b60405180910390fd5b80602c8190555050565b80600260008573ffffffffffffffffffffffffffffffffffffffff1673ffffffffffffffffffffffffffffffffffffffff16815260200190815260200160002060008473ffffffffffffffffffffffffffffffffffffffff1673ffffffffffffffffffffffffffffffffffffffff168152602001908152602001600020819055508173ffffffffffffffffffffffffffffffffffffffff168373ffffffffffffffffffffffffffffffffffffffff167f8c5be1e5ebec7d5bd14f71427d1e84f3dd0314c0f7b2291e5b200ac8c7c3b925836040516140ac9190616e6e565b60405180910390a3505050565b60008282846140c891906171cc565b915081111561410c576040517f08c379a000000000000000000000000000000000000000000000000000000000815260040161410390616d0e565b60405180910390fd5b92915050565b61416481600160008673ffffffffffffffffffffffffffffffffffffffff1673ffffffffffffffffffffffffffffffffffffffff168152602001908152602001600020546140b990919063ffffffff16565b600160008573ffffffffffffffffffffffffffffffffffffffff1673ffffffffffffffffffffffffffffffffffffffff168152602001908152602001600020819055506141f981600160008573ffffffffffffffffffffffffffffffffffffffff1673ffffffffffffffffffffffffffffffffffffffff16815260200190815260200160002054615d4890919063ffffffff16565b600160008473ffffffffffffffffffffffffffffffffffffffff1673ffffffffffffffffffffffffffffffffffffffff168152602001908152602001600020819055508173ffffffffffffffffffffffffffffffffffffffff168373ffffffffffffffffffffffffffffffffffffffff167fddf252ad1be2c89b69c2b068fc378daa952ba7f163c4a11628f55a4df523b3ef836040516142999190616e6e565b60405180910390a3505050565b6000806142b1613a2a565b92505091506000601f54436142c691906171cc565b905043601f819055506000600e54600d546017546142e49190617172565b6142ee9190616fd0565b905060001515602060009054906101000a900460ff16151514156143ab57670de0b6b3a764000082601e54670de0b6b3a764000061432c9190616f7a565b6019546143399190617172565b6143439190617172565b61434d9190616fd0565b6019819055506ec097ce7bc90715b34b9f10000000008183601954601e546143759190617172565b61437f9190617172565b6143899190617172565b6143939190616fd0565b601a546143a091906171cc565b601a8190555061442c565b670de0b6b3a764000082601e54670de0b6b3a76400006143cb9190616f7a565b601a546143d89190617172565b6143e29190617172565b6143ec9190616fd0565b601a819055508082601a54601e546144049190617172565b61440e9190617172565b6144189190616fd0565b60195461442591906171cc565b6019819055505b83601e8190555082602060006101000a81548160ff02191690831515021790555050505050565b60006001602e541461449a576040517f08c379a000000000000000000000000000000000000000000000000000000000815260040161449190616e4e565b60405180910390fd5b6000602e8190555060008390506000600190505b6001151581151514156148f6576000670de0b6b3a76400006018546009546144d69190617172565b6144e09190616fd0565b905060006144f660055460065460075485615da1565b9050600e54670de0b6b3a7640000600b548461451291906171cc565b61451c9190617172565b6145269190616fd0565b84111561478c5760006145426005546006546007548686615ea1565b9050600d54670de0b6b3a764000083600c5461455e91906171cc565b6145689190617172565b6145729190616fd0565b8661457d9190616f7a565b9550600e54670de0b6b3a7640000600b548561459991906171cc565b6145a39190617172565b6145ad9190616fd0565b856145b891906171cc565b945060011515871515141561461257600d54670de0b6b3a764000083600c546145e191906171cc565b6145eb9190617172565b6145f59190616fd0565b600f60008282546146069190616f7a565b9250508190555061469f565b600e54670de0b6b3a7640000600b548561462c91906171cc565b6146369190617172565b6146409190616fd0565b601460008282546146519190616f7a565b92505081905550600d54670de0b6b3a764000083600c5461467291906171cc565b61467c9190617172565b6146869190616fd0565b6013600082825461469791906171cc565b925050819055505b6000600e5490506000600d54905083600a54826146bc9190617172565b6146c69190616fd0565b600d8190555084600954836146db9190617172565b6146e59190616fd0565b600e81905550600d5482600e5483866146fe9190617172565b6147089190617172565b6147129190616fd0565b61471c9190616fd0565b601781905550600954600b81905550600a54600c81905550614748600b54600c54600754601754615f95565b600581905550600554671bc16d674ec8000061476491906171cc565b600681905550614772614ed3565b600954600b81905550600a54600c819055505050506148ef565b600b54601581905550600c54601681905550670de0b6b3a7640000600e54856147b59190617172565b6147bf9190616fd0565b600b60008282546147d09190616f7a565b925050819055506147eb600554600654600754600b54615da1565b600c81905550600d54670de0b6b3a7640000600c5460165461480d91906171cc565b6148179190617172565b6148219190616fd0565b8561482c9190616f7a565b945060011515861515141561488857600d54670de0b6b3a7640000600c5460165461485791906171cc565b6148619190617172565b61486b9190616fd0565b600f600082825461487c9190616f7a565b925050819055506148ea565b836014600082825461489a9190616f7a565b92505081905550600d54670de0b6b3a7640000600c546016546148bd91906171cc565b6148c79190617172565b6148d19190616fd0565b601360008282546148e291906171cc565b925050819055505b600092505b50506144ae565b50506001602e8190555092915050565b60006001602e541461494d576040517f08c379a000000000000000000000000000000000000000000000000000000000815260040161494490616e4e565b60405180910390fd5b6000602e8190555060008390506000600190505b600115158115151415614da9576000670de0b6b3a76400006018546009546149899190617172565b6149939190616fd0565b905060006149a9600554600654600754856160cf565b9050600d54670de0b6b3a7640000600c54846149c591906171cc565b6149cf9190617172565b6149d99190616fd0565b841115614c3f5760006149f56005546006546007548587615ea1565b9050600e54670de0b6b3a764000083600b54614a1191906171cc565b614a1b9190617172565b614a259190616fd0565b86614a309190616f7a565b9550600d54670de0b6b3a7640000600c5485614a4c91906171cc565b614a569190617172565b614a609190616fd0565b85614a6b91906171cc565b9450600115158715151415614ac557600e54670de0b6b3a764000083600b54614a9491906171cc565b614a9e9190617172565b614aa89190616fd0565b60106000828254614ab99190616f7a565b92505081905550614b52565b600e54670de0b6b3a764000083600b54614adf91906171cc565b614ae99190617172565b614af39190616fd0565b60146000828254614b0491906171cc565b92505081905550600d54670de0b6b3a7640000600c5485614b2591906171cc565b614b2f9190617172565b614b399190616fd0565b60136000828254614b4a9190616f7a565b925050819055505b6000600e5490506000600d54905084600a5482614b6f9190617172565b614b799190616fd0565b600d819055508360095483614b8e9190617172565b614b989190616fd0565b600e81905550600d5482600e548386614bb19190617172565b614bbb9190617172565b614bc59190616fd0565b614bcf9190616fd0565b601781905550600954600b81905550600a54600c81905550614bfb600b54600c54600754601754615f95565b600581905550600554671bc16d674ec80000614c1791906171cc565b600681905550614c25614ed3565b600954600b81905550600a54600c81905550505050614da2565b600b54601581905550600c54601681905550670de0b6b3a7640000600d5485614c689190617172565b614c729190616fd0565b600c6000828254614c839190616f7a565b92505081905550614c9e600554600654600754600c546160cf565b600b81905550600e54670de0b6b3a7640000600b54601554614cc091906171cc565b614cca9190617172565b614cd49190616fd0565b85614cdf9190616f7a565b9450600115158615151415614d3b57600e54670de0b6b3a7640000600b54601554614d0a91906171cc565b614d149190617172565b614d1e9190616fd0565b60106000828254614d2f9190616f7a565b92505081905550614d9d565b8360136000828254614d4d9190616f7a565b92505081905550600e54670de0b6b3a7640000600b54601554614d7091906171cc565b614d7a9190617172565b614d849190616fd0565b60146000828254614d9591906171cc565b925050819055505b600092505b5050614961565b50506001602e8190555092915050565b614dce81600054615d4890919063ffffffff16565b600081905550614e2681600160008573ffffffffffffffffffffffffffffffffffffffff1673ffffffffffffffffffffffffffffffffffffffff16815260200190815260200160002054615d4890919063ffffffff16565b600160008473ffffffffffffffffffffffffffffffffffffffff1673ffffffffffffffffffffffffffffffffffffffff168152602001908152602001600020819055508173ffffffffffffffffffffffffffffffffffffffff16600073ffffffffffffffffffffffffffffffffffffffff167fddf252ad1be2c89b69c2b068fc378daa952ba7f163c4a11628f55a4df523b3ef83604051614ec79190616e6e565b60405180910390a35050565b614fc3601154601254601154600654600d54614eef9190617172565b614ef99190617172565b600e54600554601254614f0c9190617172565b614f169190617172565b614f209190616f7a565b760a70c3c40a64e6c51999090b65f67d9240000000000000601354601454601354600654600d54614f519190617172565b614f5b9190617172565b600e54600554601454614f6e9190617172565b614f789190617172565b614f829190616f7a565b614f8c9190617172565b614f969190617172565b614fa09190617172565b614faa9190616fd0565b614fb49190616fd0565b614fbe9190616fd0565b6161cf565b6024819055506000602554602654600e546ec097ce7bc90715b34b9f1000000000602454600b54614ff49190617172565b614ffe9190617172565b6150089190616fd0565b6150129190616fd0565b61501c9190616fd0565b90506000602554602654600e546ec097ce7bc90715b34b9f1000000000602454600c546150499190617172565b6150539190617172565b61505d9190616fd0565b6150679190616fd0565b6150719190616fd0565b90506150d6601d5483670de0b6b3a7640000601054866150919190616f7a565b61509b9190617172565b6150a59190616fd0565b83670de0b6b3a7640000600f54866150bd9190616f7a565b6150c79190617172565b6150d19190616fd0565b616260565b6023819055506ec097ce7bc90715b34b9f10000000006024546023546008546150ff9190617172565b6151099190617172565b6151139190616fd0565b60078190555060026007546151289190616fd0565b600981905550600954600a819055506024546026819055506023546025819055505050565b61519f81600160008573ffffffffffffffffffffffffffffffffffffffff1673ffffffffffffffffffffffffffffffffffffffff168152602001908152602001600020546140b990919063ffffffff16565b600160008473ffffffffffffffffffffffffffffffffffffffff1673ffffffffffffffffffffffffffffffffffffffff168152602001908152602001600020819055506151f7816000546140b990919063ffffffff16565b600081905550600073ffffffffffffffffffffffffffffffffffffffff168273ffffffffffffffffffffffffffffffffffffffff167fddf252ad1be2c89b69c2b068fc378daa952ba7f163c4a11628f55a4df523b3ef8360405161525b9190616e6e565b60405180910390a35050565b6000808473ffffffffffffffffffffffffffffffffffffffff166040518060400160405280601981526020017f7472616e7366657228616464726573732c75696e7432353629000000000000008152508051906020012085856040516024016152d1929190616ba5565b604051602081830303815290604052907bffffffffffffffffffffffffffffffffffffffffffffffffffffffff19166020820180517bffffffffffffffffffffffffffffffffffffffffffffffffffffffff838183161783525050505060405161533b9190616af7565b6000604051808303816000865af19150503d8060008114615378576040519150601f19603f3d011682016040523d82523d6000602084013e61537d565b606091505b50915091508180156153ab57506000815114806153aa5750808060200190518101906153a9919061660b565b5b5b6153ea576040517f08c379a00000000000000000000000000000000000000000000000000000000081526004016153e190616cee565b60405180910390fd5b5050505050565b60008183116154005781615402565b825b905092915050565b60006001602e5414615451576040517f08c379a000000000000000000000000000000000000000000000000000000000815260040161544890616e4e565b60405180910390fd5b6000602e8190555060008490506000600190505b60011515811515141561587e576000670de0b6b3a764000060185460095461548d9190617172565b6154979190616fd0565b905060006154ad60055460065460075485615da1565b9050600d54670de0b6b3a764000082600c546154c991906171cc565b6154d39190617172565b6154dd9190616fd0565b8411156157435760006154f96005546006546007548686615ea1565b9050600e54670de0b6b3a7640000600b548561551591906171cc565b61551f9190617172565b6155299190616fd0565b866155349190616f7a565b9550600d54670de0b6b3a764000083600c5461555091906171cc565b61555a9190617172565b6155649190616fd0565b8561556f91906171cc565b94506001151587151514156155c957600d54670de0b6b3a764000083600c5461559891906171cc565b6155a29190617172565b6155ac9190616fd0565b600f60008282546155bd9190616f7a565b92505081905550615656565b600e54670de0b6b3a7640000600b54856155e391906171cc565b6155ed9190617172565b6155f79190616fd0565b601460008282546156089190616f7a565b92505081905550600d54670de0b6b3a764000083600c5461562991906171cc565b6156339190617172565b61563d9190616fd0565b6013600082825461564e91906171cc565b925050819055505b6000600e5490506000600d54905083600a54826156739190617172565b61567d9190616fd0565b600d8190555084600954836156929190617172565b61569c9190616fd0565b600e81905550600d5482600e5483866156b59190617172565b6156bf9190617172565b6156c99190616fd0565b6156d39190616fd0565b601781905550600954600b81905550600a54600c819055506156ff600b54600c54600754601754615f95565b600581905550600554671bc16d674ec8000061571b91906171cc565b600681905550615729614ed3565b600954600b81905550600a54600c81905550505050615877565b600b54601581905550600c54601681905550670de0b6b3a7640000600d548561576c9190617172565b6157769190616fd0565b600c600082825461578791906171cc565b925050819055506157a2600554600654600754600c546160cf565b600b81905550600e54670de0b6b3a7640000601554600b546157c491906171cc565b6157ce9190617172565b6157d89190616fd0565b856157e39190616f7a565b94506001151586151514156158105783600f60008282546158049190616f7a565b92505081905550615872565b600e54670de0b6b3a7640000601554600b5461582c91906171cc565b6158369190617172565b6158409190616fd0565b601460008282546158519190616f7a565b92505081905550836013600082825461586a91906171cc565b925050819055505b600092505b5050615465565b6000151584151514156158985782851161589757600080fd5b5b50506001602e819055509392505050565b60006001602e54146158f0576040517f08c379a00000000000000000000000000000000000000000000000000000000081526004016158e790616e4e565b60405180910390fd5b6000602e8190555060008490506000600190505b600115158115151415615d1d576000670de0b6b3a7640000601854600a5461592c9190617172565b6159369190616fd0565b9050600061594c600554600654600754856160cf565b9050600e54670de0b6b3a764000082600b5461596891906171cc565b6159729190617172565b61597c9190616fd0565b841115615be25760006159986005546006546007548587615ea1565b9050600d54670de0b6b3a7640000600c54856159b491906171cc565b6159be9190617172565b6159c89190616fd0565b866159d39190616f7a565b9550600e54670de0b6b3a764000083600b546159ef91906171cc565b6159f99190617172565b615a039190616fd0565b85615a0e91906171cc565b9450600115158715151415615a6857600e54670de0b6b3a764000083600b54615a3791906171cc565b615a419190617172565b615a4b9190616fd0565b60106000828254615a5c9190616f7a565b92505081905550615af5565b600d54670de0b6b3a7640000600c5485615a8291906171cc565b615a8c9190617172565b615a969190616fd0565b60136000828254615aa79190616f7a565b92505081905550600e54670de0b6b3a764000083600b54615ac891906171cc565b615ad29190617172565b615adc9190616fd0565b60146000828254615aed91906171cc565b925050819055505b6000600e5490506000600d54905084600a5482615b129190617172565b615b1c9190616fd0565b600d819055508360095483615b319190617172565b615b3b9190616fd0565b600e81905550600d5482600e548386615b549190617172565b615b5e9190617172565b615b689190616fd0565b615b729190616fd0565b601781905550600954600b81905550600a54600c81905550615b9e600b54600c54600754601754615f95565b600581905550600554671bc16d674ec80000615bba91906171cc565b600681905550615bc8614ed3565b600954600b81905550600a54600c81905550505050615d16565b600b54601581905550600c54601681905550670de0b6b3a7640000600e5485615c0b9190617172565b615c159190616fd0565b600b6000828254615c2691906171cc565b92505081905550615c41600554600654600754600b54615da1565b600c81905550600d54670de0b6b3a7640000601654600c54615c6391906171cc565b615c6d9190617172565b615c779190616fd0565b85615c829190616f7a565b9450600115158615151415615caf578360106000828254615ca39190616f7a565b92505081905550615d11565b600d54670de0b6b3a7640000601654600c54615ccb91906171cc565b615cd59190617172565b615cdf9190616fd0565b60136000828254615cf09190616f7a565b925050819055508360146000828254615d0991906171cc565b925050819055505b600092505b5050615904565b600015158415151415615d3757828511615d3657600080fd5b5b50506001602e819055509392505050565b6000828284615d579190616f7a565b9150811015615d9b576040517f08c379a0000000000000000000000000000000000000000000000000000000008152600401615d9290616dae565b60405180910390fd5b92915050565b600081846008615db19190617172565b615dbb9190617172565b615e54670de0b6b3a7640000858687615dd49190617172565b615dde9190617172565b6000615dea91906171cc565b85886010615df89190617172565b615e029190617172565b615e0c9190617172565b615e169190617172565b600285868a6004615e279190617172565b615e319190617172565b615e3b9190617172565b615e459190617054565b615e4f91906171cc565b61628b565b8384886004615e639190617172565b615e6d9190617172565b615e779190617172565b6000615e8391906171cc565b615e8d9190616f7a565b615e979190616fd0565b9050949350505050565b600081848586615eb19190617172565b615ebb9190617172565b615ec59190617172565b828385868a6004615ed69190617172565b615ee09190617172565b615eea9190617172565b615ef49190617172565b615efe9190617172565b615f089190616f7a565b670de0b6b3a764000084868788615f1f9190617172565b615f299190617172565b615f339190617172565b848587888b6004615f449190617172565b615f4e9190617172565b615f589190617172565b615f629190617172565b615f6c9190617172565b615f769190616f7a565b615f809190617172565b615f8a9190616fd0565b905095945050505050565b600081670de0b6b3a7640000615fab9190616f7a565b848587886004615fbb9190617172565b615fc59190617172565b615fcf9190617172565b615fd99190617172565b615fe39190617172565b670de0b6b3a76400008386868788615ffb9190617172565b6160059190617172565b61600f9190617172565b6160199190617172565b6160239190617172565b6ec097ce7bc90715b34b9f1000000000878687886160419190617172565b61604b9190617172565b6160559190617172565b61605f9190617172565b6ec097ce7bc90715b34b9f100000000087888a8b600861607f9190617172565b6160899190617172565b6160939190617172565b61609d9190617172565b6160a79190617172565b6160b19190616f7a565b6160bb91906171cc565b6160c59190616fd0565b9050949350505050565b6000818560086160df9190617172565b6160e99190617172565b616182670de0b6b3a76400008586876161029190617172565b61610c9190617172565b600061611891906171cc565b858960106161269190617172565b6161309190617172565b61613a9190617172565b6161449190617172565b600285868960046161559190617172565b61615f9190617172565b6161699190617172565b6161739190617054565b61617d91906171cc565b61628b565b83848760046161919190617172565b61619b9190617172565b6161a59190617172565b60006161b191906171cc565b6161bb9190616f7a565b6161c59190616fd0565b9050949350505050565b6000600882111561624d57819050600060016003846161ee9190616fd0565b6161f89190616f7a565b90505b818110156162475780915060038160026162159190617172565b82836162219190617172565b8561622c9190616fd0565b6162369190616f7a565b6162409190616fd0565b90506161fb565b5061625b565b6000821461625a57600190505b5b919050565b600082841061626f5782616271565b835b93508184106162805781616282565b835b90509392505050565b600060038211156162f257819050600060016002846162aa9190616fd0565b6162b49190616f7a565b90505b818110156162ec5780915060028182856162d19190616fd0565b6162db9190616f7a565b6162e59190616fd0565b90506162b7565b50616300565b600082146162ff57600190505b5b919050565b50805460008255906000526020600020908101906163239190616326565b50565b5b8082111561633f576000816000905550600101616327565b5090565b600081359050616352816175aa565b92915050565b600081359050616367816175c1565b92915050565b60008151905061637c816175c1565b92915050565b600081359050616391816175d8565b92915050565b6000813590506163a6816175ef565b92915050565b6000815190506163bb816175ef565b92915050565b6000813590506163d081617606565b92915050565b6000602082840312156163ec576163eb617372565b5b60006163fa84828501616343565b91505092915050565b6000806040838503121561641a57616419617372565b5b600061642885828601616343565b925050602061643985828601616343565b9150509250929050565b60008060006060848603121561645c5761645b617372565b5b600061646a86828701616343565b935050602061647b86828701616343565b925050604061648c86828701616397565b9150509250925092565b600080600080600080600060e0888a0312156164b5576164b4617372565b5b60006164c38a828b01616343565b97505060206164d48a828b01616343565b96505060406164e58a828b01616397565b95505060606164f68a828b01616397565b94505060806165078a828b016163c1565b93505060a06165188a828b01616382565b92505060c06165298a828b01616382565b91505092959891949750929550565b6000806040838503121561654f5761654e617372565b5b600061655d85828601616343565b925050602061656e85828601616358565b9150509250929050565b6000806040838503121561658f5761658e617372565b5b600061659d85828601616343565b92505060206165ae85828601616397565b9150509250929050565b6000806000606084860312156165d1576165d0617372565b5b60006165df86828701616343565b93505060206165f086828701616397565b925050604061660186828701616397565b9150509250925092565b60006020828403121561662157616620617372565b5b600061662f8482850161636d565b91505092915050565b60006020828403121561664e5761664d617372565b5b600061665c84828501616397565b91505092915050565b60006020828403121561667b5761667a617372565b5b6000616689848285016163ac565b91505092915050565b600080604083850312156166a9576166a8617372565b5b60006166b785828601616397565b92505060206166c885828601616343565b9150509250929050565b6000806000606084860312156166eb576166ea617372565b5b60006166f986828701616397565b935050602061670a86828701616343565b925050604061671b86828701616343565b9150509250925092565b60008060006060848603121561673e5761673d617372565b5b600061674c86828701616397565b935050602061675d86828701616397565b925050604061676e86828701616343565b9150509250925092565b6000806000806080858703121561679257616791617372565b5b60006167a087828801616397565b94505060206167b187828801616397565b93505060406167c287828801616358565b92505060606167d387828801616343565b91505092959194509250565b60006167eb8383616aca565b60208301905092915050565b61680081617200565b82525050565b600061681182616f14565b61681b8185616f42565b935061682683616f04565b8060005b8381101561685757815161683e88826167df565b975061684983616f35565b92505060018101905061682a565b5085935050505092915050565b61686d81617212565b82525050565b61687c8161721e565b82525050565b61689361688e8261721e565b6172db565b82525050565b60006168a482616f1f565b6168ae8185616f53565b93506168be81856020860161725f565b80840191505092915050565b60006168d582616f2a565b6168df8185616f5e565b93506168ef81856020860161725f565b6168f881617377565b840191505092915050565b6000616910601683616f5e565b915061691b82617395565b602082019050919050565b6000616933601583616f5e565b915061693e826173be565b602082019050919050565b6000616956602083616f5e565b9150616961826173e7565b602082019050919050565b6000616979601283616f5e565b915061698482617410565b602082019050919050565b600061699c601083616f5e565b91506169a782617439565b602082019050919050565b60006169bf601c83616f5e565b91506169ca82617462565b602082019050919050565b60006169e2600283616f6f565b91506169ed8261748b565b600282019050919050565b6000616a05601483616f5e565b9150616a10826174b4565b602082019050919050565b6000616a28601283616f5e565b9150616a33826174dd565b602082019050919050565b6000616a4b601883616f5e565b9150616a5682617506565b602082019050919050565b6000616a6e601a83616f5e565b9150616a798261752f565b602082019050919050565b6000616a91601183616f5e565b9150616a9c82617558565b602082019050919050565b6000616ab4600d83616f5e565b9150616abf82617581565b602082019050919050565b616ad381617248565b82525050565b616ae281617248565b82525050565b616af181617252565b82525050565b6000616b038284616899565b915081905092915050565b6000616b19826169d5565b9150616b258285616882565b602082019150616b358284616882565b6020820191508190509392505050565b6000602082019050616b5a60008301846167f7565b92915050565b6000608082019050616b7560008301876167f7565b616b826020830186616864565b616b8f6040830185616ad9565b616b9c6060830184616ad9565b95945050505050565b6000604082019050616bba60008301856167f7565b616bc76020830184616ad9565b9392505050565b60006020820190508181036000830152616be88184616806565b905092915050565b6000602082019050616c056000830184616864565b92915050565b6000602082019050616c206000830184616873565b92915050565b600060c082019050616c3b6000830189616873565b616c4860208301886167f7565b616c5560408301876167f7565b616c626060830186616ad9565b616c6f6080830185616ad9565b616c7c60a0830184616ad9565b979650505050505050565b6000608082019050616c9c6000830187616873565b616ca96020830186616ae8565b616cb66040830185616873565b616cc36060830184616873565b95945050505050565b60006020820190508181036000830152616ce681846168ca565b905092915050565b60006020820190508181036000830152616d0781616903565b9050919050565b60006020820190508181036000830152616d2781616926565b9050919050565b60006020820190508181036000830152616d4781616949565b9050919050565b60006020820190508181036000830152616d678161696c565b9050919050565b60006020820190508181036000830152616d878161698f565b9050919050565b60006020820190508181036000830152616da7816169b2565b9050919050565b60006020820190508181036000830152616dc7816169f8565b9050919050565b60006020820190508181036000830152616de781616a1b565b9050919050565b60006020820190508181036000830152616e0781616a3e565b9050919050565b60006020820190508181036000830152616e2781616a61565b9050919050565b60006020820190508181036000830152616e4781616a84565b9050919050565b60006020820190508181036000830152616e6781616aa7565b9050919050565b6000602082019050616e836000830184616ad9565b92915050565b6000604082019050616e9e6000830185616ad9565b616eab6020830184616ad9565b9392505050565b6000606082019050616ec76000830186616ad9565b616ed46020830185616ad9565b616ee16040830184616864565b949350505050565b6000602082019050616efe6000830184616ae8565b92915050565b6000819050602082019050919050565b600081519050919050565b600081519050919050565b600081519050919050565b6000602082019050919050565b600082825260208201905092915050565b600081905092915050565b600082825260208201905092915050565b600081905092915050565b6000616f8582617248565b9150616f9083617248565b9250827fffffffffffffffffffffffffffffffffffffffffffffffffffffffffffffffff03821115616fc557616fc46172e5565b5b828201905092915050565b6000616fdb82617248565b9150616fe683617248565b925082616ff657616ff5617314565b5b828204905092915050565b6000808291508390505b600185111561704b57808604811115617027576170266172e5565b5b60018516156170365780820291505b808102905061704485617388565b945061700b565b94509492505050565b600061705f82617248565b915061706a83617252565b92506170977fffffffffffffffffffffffffffffffffffffffffffffffffffffffffffffffff848461709f565b905092915050565b6000826170af576001905061716b565b816170bd576000905061716b565b81600181146170d357600281146170dd5761710c565b600191505061716b565b60ff8411156170ef576170ee6172e5565b5b8360020a915084821115617106576171056172e5565b5b5061716b565b5060208310610133831016604e8410600b84101617156171415782820a90508381111561713c5761713b6172e5565b5b61716b565b61714e8484846001617001565b92509050818404811115617165576171646172e5565b5b81810290505b9392505050565b600061717d82617248565b915061718883617248565b9250817fffffffffffffffffffffffffffffffffffffffffffffffffffffffffffffffff04831182151516156171c1576171c06172e5565b5b828202905092915050565b60006171d782617248565b91506171e283617248565b9250828210156171f5576171f46172e5565b5b828203905092915050565b600061720b82617228565b9050919050565b60008115159050919050565b6000819050919050565b600073ffffffffffffffffffffffffffffffffffffffff82169050919050565b6000819050919050565b600060ff82169050919050565b60005b8381101561727d578082015181840152602081019050617262565b8381111561728c576000848401525b50505050565b600061729d82617248565b91507fffffffffffffffffffffffffffffffffffffffffffffffffffffffffffffffff8214156172d0576172cf6172e5565b5b600182019050919050565b6000819050919050565b7f4e487b7100000000000000000000000000000000000000000000000000000000600052601160045260246000fd5b7f4e487b7100000000000000000000000000000000000000000000000000000000600052601260045260246000fd5b7f4e487b7100000000000000000000000000000000000000000000000000000000600052603260045260246000fd5b600080fd5b6000601f19601f8301169050919050565b60008160011c9050919050565b7f51696c696e3a205452414e534645525f4641494c454400000000000000000000600082015250565b7f64732d6d6174682d7375622d756e646572666c6f770000000000000000000000600082015250565b7f51696c696e3a20494e53554646494349454e545f494e5055545f414d4f554e54600082015250565b7f51496c696e3a20494e56414c49445f4f55540000000000000000000000000000600082015250565b7f51696c696e3a20464f5242494444454e00000000000000000000000000000000600082015250565b7f556e697377617056323a20494e56414c49445f5349474e415455524500000000600082015250565b7f1901000000000000000000000000000000000000000000000000000000000000600082015250565b7f64732d6d6174682d6164642d6f766572666c6f77000000000000000000000000600082015250565b7f556e697377617056323a20455850495245440000000000000000000000000000600082015250565b7f51696c696e3a204e4f5420454e4f554748204d415247494e0000000000000000600082015250565b7f51696c696e3a204e4f5420454e4f55474820504f534954494f4e000000000000600082015250565b7f51696c696e3a20494e56414c49445f544f000000000000000000000000000000600082015250565b7f51696c696e3a204c4f434b454400000000000000000000000000000000000000600082015250565b6175b381617200565b81146175be57600080fd5b50565b6175ca81617212565b81146175d557600080fd5b50565b6175e18161721e565b81146175ec57600080fd5b50565b6175f881617248565b811461760357600080fd5b50565b61760f81617252565b811461761a57600080fd5b5056fea2646970667358221220249db3aa5296e0ca6b82d787fa9392976ba588fbb440c2befab8bfa1f6f1cfdc64736f6c63430008070033",
			"opcodes": "PUSH1 0x80 PUSH1 0x40 MSTORE PUSH1 0x1 PUSH1 0x2E SSTORE CALLVALUE DUP1 ISZERO PUSH3 0x16 JUMPI PUSH1 0x0 DUP1 REVERT JUMPDEST POP PUSH1 0x0 CHAINID SWAP1 POP PUSH32 0x8B73C3C69BB8FE3D512ECC4CF759CC79239F7B179B0FFACAA9A75D522B39400F PUSH1 0x40 MLOAD DUP1 PUSH1 0x40 ADD PUSH1 0x40 MSTORE DUP1 PUSH1 0xA DUP2 MSTORE PUSH1 0x20 ADD PUSH32 0x556E697377617020563200000000000000000000000000000000000000000000 DUP2 MSTORE POP DUP1 MLOAD SWAP1 PUSH1 0x20 ADD KECCAK256 PUSH1 0x40 MLOAD DUP1 PUSH1 0x40 ADD PUSH1 0x40 MSTORE DUP1 PUSH1 0x1 DUP2 MSTORE PUSH1 0x20 ADD PUSH32 0x3100000000000000000000000000000000000000000000000000000000000000 DUP2 MSTORE POP DUP1 MLOAD SWAP1 PUSH1 0x20 ADD KECCAK256 DUP4 ADDRESS PUSH1 0x40 MLOAD PUSH1 0x20 ADD PUSH3 0xCF SWAP6 SWAP5 SWAP4 SWAP3 SWAP2 SWAP1 PUSH3 0x166 JUMP JUMPDEST PUSH1 0x40 MLOAD PUSH1 0x20 DUP2 DUP4 SUB SUB DUP2 MSTORE SWAP1 PUSH1 0x40 MSTORE DUP1 MLOAD SWAP1 PUSH1 0x20 ADD KECCAK256 PUSH1 0x3 DUP2 SWAP1 SSTORE POP POP CALLER PUSH1 0x27 PUSH1 0x0 PUSH2 0x100 EXP DUP2 SLOAD DUP2 PUSH20 0xFFFFFFFFFFFFFFFFFFFFFFFFFFFFFFFFFFFFFFFF MUL NOT AND SWAP1 DUP4 PUSH20 0xFFFFFFFFFFFFFFFFFFFFFFFFFFFFFFFFFFFFFFFF AND MUL OR SWAP1 SSTORE POP PUSH3 0x20B JUMP JUMPDEST PUSH3 0x13E DUP2 PUSH3 0x1C3 JUMP JUMPDEST DUP3 MSTORE POP POP JUMP JUMPDEST PUSH3 0x14F DUP2 PUSH3 0x1D7 JUMP JUMPDEST DUP3 MSTORE POP POP JUMP JUMPDEST PUSH3 0x160 DUP2 PUSH3 0x201 JUMP JUMPDEST DUP3 MSTORE POP POP JUMP JUMPDEST PUSH1 0x0 PUSH1 0xA0 DUP3 ADD SWAP1 POP PUSH3 0x17D PUSH1 0x0 DUP4 ADD DUP9 PUSH3 0x144 JUMP JUMPDEST PUSH3 0x18C PUSH1 0x20 DUP4 ADD DUP8 PUSH3 0x144 JUMP JUMPDEST PUSH3 0x19B PUSH1 0x40 DUP4 ADD DUP7 PUSH3 0x144 JUMP JUMPDEST PUSH3 0x1AA PUSH1 0x60 DUP4 ADD DUP6 PUSH3 0x155 JUMP JUMPDEST PUSH3 0x1B9 PUSH1 0x80 DUP4 ADD DUP5 PUSH3 0x133 JUMP JUMPDEST SWAP7 SWAP6 POP POP POP POP POP POP JUMP JUMPDEST PUSH1 0x0 PUSH3 0x1D0 DUP3 PUSH3 0x1E1 JUMP JUMPDEST SWAP1 POP SWAP2 SWAP1 POP JUMP JUMPDEST PUSH1 0x0 DUP2 SWAP1 POP SWAP2 SWAP1 POP JUMP JUMPDEST PUSH1 0x0 PUSH20 0xFFFFFFFFFFFFFFFFFFFFFFFFFFFFFFFFFFFFFFFF DUP3 AND SWAP1 POP SWAP2 SWAP1 POP JUMP JUMPDEST PUSH1 0x0 DUP2 SWAP1 POP SWAP2 SWAP1 POP JUMP JUMPDEST PUSH2 0x7653 DUP1 PUSH3 0x21B PUSH1 0x0 CODECOPY PUSH1 0x0 RETURN INVALID PUSH1 0x80 PUSH1 0x40 MSTORE CALLVALUE DUP1 ISZERO PUSH2 0x10 JUMPI PUSH1 0x0 DUP1 REVERT JUMPDEST POP PUSH1 0x4 CALLDATASIZE LT PUSH2 0x469 JUMPI PUSH1 0x0 CALLDATALOAD PUSH1 0xE0 SHR DUP1 PUSH4 0x7E1431BE GT PUSH2 0x24C JUMPI DUP1 PUSH4 0xC03D932F GT PUSH2 0x146 JUMPI DUP1 PUSH4 0xDF0AB2C2 GT PUSH2 0xC3 JUMPI DUP1 PUSH4 0xF738C74E GT PUSH2 0x87 JUMPI DUP1 PUSH4 0xF738C74E EQ PUSH2 0xDF6 JUMPI DUP1 PUSH4 0xFC69B80F EQ PUSH2 0xE14 JUMPI DUP1 PUSH4 0xFC978E54 EQ PUSH2 0xE44 JUMPI DUP1 PUSH4 0xFE18F261 EQ PUSH2 0xE64 JUMPI DUP1 PUSH4 0xFF2F169E EQ PUSH2 0xE82 JUMPI PUSH2 0x469 JUMP JUMPDEST DUP1 PUSH4 0xDF0AB2C2 EQ PUSH2 0xD4E JUMPI DUP1 PUSH4 0xE1781049 EQ PUSH2 0xD6C JUMPI DUP1 PUSH4 0xE19A1474 EQ PUSH2 0xD9C JUMPI DUP1 PUSH4 0xEA1797B0 EQ PUSH2 0xDBA JUMPI DUP1 PUSH4 0xF70F4394 EQ PUSH2 0xDD8 JUMPI PUSH2 0x469 JUMP JUMPDEST DUP1 PUSH4 0xCFE38A5E GT PUSH2 0x10A JUMPI DUP1 PUSH4 0xCFE38A5E EQ PUSH2 0xC98 JUMPI DUP1 PUSH4 0xD44022DB EQ PUSH2 0xCB4 JUMPI DUP1 PUSH4 0xD505ACCF EQ PUSH2 0xCD2 JUMPI DUP1 PUSH4 0xDA5604CE EQ PUSH2 0xCEE JUMPI DUP1 PUSH4 0xDD62ED3E EQ PUSH2 0xD1E JUMPI PUSH2 0x469 JUMP JUMPDEST DUP1 PUSH4 0xC03D932F EQ PUSH2 0xBF2 JUMPI DUP1 PUSH4 0xC3D81B21 EQ PUSH2 0xC22 JUMPI DUP1 PUSH4 0xC45A0155 EQ PUSH2 0xC3E JUMPI DUP1 PUSH4 0xC7D44932 EQ PUSH2 0xC5C JUMPI DUP1 PUSH4 0xC9E525DF EQ PUSH2 0xC7A JUMPI PUSH2 0x469 JUMP JUMPDEST DUP1 PUSH4 0x95D89B41 GT PUSH2 0x1D4 JUMPI DUP1 PUSH4 0xA9059CBB GT PUSH2 0x198 JUMPI DUP1 PUSH4 0xA9059CBB EQ PUSH2 0xB4C JUMPI DUP1 PUSH4 0xACD4A7C2 EQ PUSH2 0xB7C JUMPI DUP1 PUSH4 0xB6E361A1 EQ PUSH2 0xB9A JUMPI DUP1 PUSH4 0xB7D19FC4 EQ PUSH2 0xBB8 JUMPI DUP1 PUSH4 0xBC25CF77 EQ PUSH2 0xBD6 JUMPI PUSH2 0x469 JUMP JUMPDEST DUP1 PUSH4 0x95D89B41 EQ PUSH2 0xABA JUMPI DUP1 PUSH4 0x9A36E122 EQ PUSH2 0xAD8 JUMPI DUP1 PUSH4 0x9F1D0F59 EQ PUSH2 0xAF6 JUMPI DUP1 PUSH4 0xA54C08F3 EQ PUSH2 0xB12 JUMPI DUP1 PUSH4 0xA5AA65B9 EQ PUSH2 0xB2E JUMPI PUSH2 0x469 JUMP JUMPDEST DUP1 PUSH4 0x83DFE5FD GT PUSH2 0x21B JUMPI DUP1 PUSH4 0x83DFE5FD EQ PUSH2 0xA26 JUMPI DUP1 PUSH4 0x84009686 EQ PUSH2 0xA44 JUMPI DUP1 PUSH4 0x8BC1A32F EQ PUSH2 0xA62 JUMPI DUP1 PUSH4 0x8E361389 EQ PUSH2 0xA80 JUMPI DUP1 PUSH4 0x9076AE86 EQ PUSH2 0xA9E JUMPI PUSH2 0x469 JUMP JUMPDEST DUP1 PUSH4 0x7E1431BE EQ PUSH2 0x987 JUMPI DUP1 PUSH4 0x7ECEBE00 EQ PUSH2 0x9BA JUMPI DUP1 PUSH4 0x7ED6281B EQ PUSH2 0x9EA JUMPI DUP1 PUSH4 0x80416C02 EQ PUSH2 0xA08 JUMPI PUSH2 0x469 JUMP JUMPDEST DUP1 PUSH4 0x313CE567 GT PUSH2 0x368 JUMPI DUP1 PUSH4 0x5595D459 GT PUSH2 0x2E5 JUMPI DUP1 PUSH4 0x693F917E GT PUSH2 0x2A9 JUMPI DUP1 PUSH4 0x693F917E EQ PUSH2 0x8CD JUMPI DUP1 PUSH4 0x699553AA EQ PUSH2 0x8EB JUMPI DUP1 PUSH4 0x6B3545AA EQ PUSH2 0x91B JUMPI DUP1 PUSH4 0x70A08231 EQ PUSH2 0x939 JUMPI DUP1 PUSH4 0x79DBF8EA EQ PUSH2 0x969 JUMPI PUSH2 0x469 JUMP JUMPDEST DUP1 PUSH4 0x5595D459 EQ PUSH2 0x812 JUMPI DUP1 PUSH4 0x5E287D86 EQ PUSH2 0x830 JUMPI DUP1 PUSH4 0x6126DEEF EQ PUSH2 0x84E JUMPI DUP1 PUSH4 0x6607E7E8 EQ PUSH2 0x87E JUMPI DUP1 PUSH4 0x6665FF11 EQ PUSH2 0x89C JUMPI PUSH2 0x469 JUMP JUMPDEST DUP1 PUSH4 0x3C6FE2F4 GT PUSH2 0x32C JUMPI DUP1 PUSH4 0x3C6FE2F4 EQ PUSH2 0x76E JUMPI DUP1 PUSH4 0x480C4F7E EQ PUSH2 0x78C JUMPI DUP1 PUSH4 0x485CC955 EQ PUSH2 0x7AA JUMPI DUP1 PUSH4 0x4C324E6A EQ PUSH2 0x7C6 JUMPI DUP1 PUSH4 0x5115B6CF EQ PUSH2 0x7E2 JUMPI PUSH2 0x469 JUMP JUMPDEST DUP1 PUSH4 0x313CE567 EQ PUSH2 0x6DA JUMPI DUP1 PUSH4 0x32E7C5BF EQ PUSH2 0x6F8 JUMPI DUP1 PUSH4 0x35714521 EQ PUSH2 0x716 JUMPI DUP1 PUSH4 0x3644E515 EQ PUSH2 0x732 JUMPI DUP1 PUSH4 0x36AF2F9B EQ PUSH2 0x750 JUMPI PUSH2 0x469 JUMP JUMPDEST DUP1 PUSH4 0x18160DDD GT PUSH2 0x3F6 JUMPI DUP1 PUSH4 0x23ED16B6 GT PUSH2 0x3BA JUMPI DUP1 PUSH4 0x23ED16B6 EQ PUSH2 0x632 JUMPI DUP1 PUSH4 0x25C513A4 EQ PUSH2 0x650 JUMPI DUP1 PUSH4 0x2ABC28AA EQ PUSH2 0x66E JUMPI DUP1 PUSH4 0x2DD6C254 EQ PUSH2 0x69E JUMPI DUP1 PUSH4 0x30ADF81F EQ PUSH2 0x6BC JUMPI PUSH2 0x469 JUMP JUMPDEST DUP1 PUSH4 0x18160DDD EQ PUSH2 0x58A JUMPI DUP1 PUSH4 0x18DB9681 EQ PUSH2 0x5A8 JUMPI DUP1 PUSH4 0x2190219E EQ PUSH2 0x5C6 JUMPI DUP1 PUSH4 0x225C2C50 EQ PUSH2 0x5E4 JUMPI DUP1 PUSH4 0x23B872DD EQ PUSH2 0x602 JUMPI PUSH2 0x469 JUMP JUMPDEST DUP1 PUSH4 0xB197615 GT PUSH2 0x43D JUMPI DUP1 PUSH4 0xB197615 EQ PUSH2 0x4F6 JUMPI DUP1 PUSH4 0xBFA68D8 EQ PUSH2 0x514 JUMPI DUP1 PUSH4 0xF529BA2 EQ PUSH2 0x530 JUMPI DUP1 PUSH4 0x139860EE EQ PUSH2 0x54E JUMPI DUP1 PUSH4 0x16DC165B EQ PUSH2 0x56C JUMPI PUSH2 0x469 JUMP JUMPDEST DUP1 PUSH3 0xB52645 EQ PUSH2 0x46E JUMPI DUP1 PUSH4 0x6FDDE03 EQ PUSH2 0x48C JUMPI DUP1 PUSH4 0x95EA7B3 EQ PUSH2 0x4AA JUMPI DUP1 PUSH4 0x9E95861 EQ PUSH2 0x4DA JUMPI JUMPDEST PUSH1 0x0 DUP1 REVERT JUMPDEST PUSH2 0x476 PUSH2 0xE9E JUMP JUMPDEST PUSH1 0x40 MLOAD PUSH2 0x483 SWAP2 SWAP1 PUSH2 0x6E6E JUMP JUMPDEST PUSH1 0x40 MLOAD DUP1 SWAP2 SUB SWAP1 RETURN JUMPDEST PUSH2 0x494 PUSH2 0xEA4 JUMP JUMPDEST PUSH1 0x40 MLOAD PUSH2 0x4A1 SWAP2 SWAP1 PUSH2 0x6CCC JUMP JUMPDEST PUSH1 0x40 MLOAD DUP1 SWAP2 SUB SWAP1 RETURN JUMPDEST PUSH2 0x4C4 PUSH1 0x4 DUP1 CALLDATASIZE SUB DUP2 ADD SWAP1 PUSH2 0x4BF SWAP2 SWAP1 PUSH2 0x6578 JUMP JUMPDEST PUSH2 0xEDD JUMP JUMPDEST PUSH1 0x40 MLOAD PUSH2 0x4D1 SWAP2 SWAP1 PUSH2 0x6BF0 JUMP JUMPDEST PUSH1 0x40 MLOAD DUP1 SWAP2 SUB SWAP1 RETURN JUMPDEST PUSH2 0x4F4 PUSH1 0x4 DUP1 CALLDATASIZE SUB DUP2 ADD SWAP1 PUSH2 0x4EF SWAP2 SWAP1 PUSH2 0x6725 JUMP JUMPDEST PUSH2 0xEF4 JUMP JUMPDEST STOP JUMPDEST PUSH2 0x4FE PUSH2 0xFC3 JUMP JUMPDEST PUSH1 0x40 MLOAD PUSH2 0x50B SWAP2 SWAP1 PUSH2 0x6E6E JUMP JUMPDEST PUSH1 0x40 MLOAD DUP1 SWAP2 SUB SWAP1 RETURN JUMPDEST PUSH2 0x52E PUSH1 0x4 DUP1 CALLDATASIZE SUB DUP2 ADD SWAP1 PUSH2 0x529 SWAP2 SWAP1 PUSH2 0x6638 JUMP JUMPDEST PUSH2 0xFC9 JUMP JUMPDEST STOP JUMPDEST PUSH2 0x538 PUSH2 0x1063 JUMP JUMPDEST PUSH1 0x40 MLOAD PUSH2 0x545 SWAP2 SWAP1 PUSH2 0x6E6E JUMP JUMPDEST PUSH1 0x40 MLOAD DUP1 SWAP2 SUB SWAP1 RETURN JUMPDEST PUSH2 0x556 PUSH2 0x1069 JUMP JUMPDEST PUSH1 0x40 MLOAD PUSH2 0x563 SWAP2 SWAP1 PUSH2 0x6E6E JUMP JUMPDEST PUSH1 0x40 MLOAD DUP1 SWAP2 SUB SWAP1 RETURN JUMPDEST PUSH2 0x574 PUSH2 0x106F JUMP JUMPDEST PUSH1 0x40 MLOAD PUSH2 0x581 SWAP2 SWAP1 PUSH2 0x6B45 JUMP JUMPDEST PUSH1 0x40 MLOAD DUP1 SWAP2 SUB SWAP1 RETURN JUMPDEST PUSH2 0x592 PUSH2 0x1095 JUMP JUMPDEST PUSH1 0x40 MLOAD PUSH2 0x59F SWAP2 SWAP1 PUSH2 0x6E6E JUMP JUMPDEST PUSH1 0x40 MLOAD DUP1 SWAP2 SUB SWAP1 RETURN JUMPDEST PUSH2 0x5B0 PUSH2 0x109B JUMP JUMPDEST PUSH1 0x40 MLOAD PUSH2 0x5BD SWAP2 SWAP1 PUSH2 0x6E6E JUMP JUMPDEST PUSH1 0x40 MLOAD DUP1 SWAP2 SUB SWAP1 RETURN JUMPDEST PUSH2 0x5CE PUSH2 0x10A1 JUMP JUMPDEST PUSH1 0x40 MLOAD PUSH2 0x5DB SWAP2 SWAP1 PUSH2 0x6E6E JUMP JUMPDEST PUSH1 0x40 MLOAD DUP1 SWAP2 SUB SWAP1 RETURN JUMPDEST PUSH2 0x5EC PUSH2 0x10A7 JUMP JUMPDEST PUSH1 0x40 MLOAD PUSH2 0x5F9 SWAP2 SWAP1 PUSH2 0x6E6E JUMP JUMPDEST PUSH1 0x40 MLOAD DUP1 SWAP2 SUB SWAP1 RETURN JUMPDEST PUSH2 0x61C PUSH1 0x4 DUP1 CALLDATASIZE SUB DUP2 ADD SWAP1 PUSH2 0x617 SWAP2 SWAP1 PUSH2 0x6443 JUMP JUMPDEST PUSH2 0x10AD JUMP JUMPDEST PUSH1 0x40 MLOAD PUSH2 0x629 SWAP2 SWAP1 PUSH2 0x6BF0 JUMP JUMPDEST PUSH1 0x40 MLOAD DUP1 SWAP2 SUB SWAP1 RETURN JUMPDEST PUSH2 0x63A PUSH2 0x125A JUMP JUMPDEST PUSH1 0x40 MLOAD PUSH2 0x647 SWAP2 SWAP1 PUSH2 0x6E6E JUMP JUMPDEST PUSH1 0x40 MLOAD DUP1 SWAP2 SUB SWAP1 RETURN JUMPDEST PUSH2 0x658 PUSH2 0x1260 JUMP JUMPDEST PUSH1 0x40 MLOAD PUSH2 0x665 SWAP2 SWAP1 PUSH2 0x6E6E JUMP JUMPDEST PUSH1 0x40 MLOAD DUP1 SWAP2 SUB SWAP1 RETURN JUMPDEST PUSH2 0x688 PUSH1 0x4 DUP1 CALLDATASIZE SUB DUP2 ADD SWAP1 PUSH2 0x683 SWAP2 SWAP1 PUSH2 0x63D6 JUMP JUMPDEST PUSH2 0x1266 JUMP JUMPDEST PUSH1 0x40 MLOAD PUSH2 0x695 SWAP2 SWAP1 PUSH2 0x6E6E JUMP JUMPDEST PUSH1 0x40 MLOAD DUP1 SWAP2 SUB SWAP1 RETURN JUMPDEST PUSH2 0x6A6 PUSH2 0x1392 JUMP JUMPDEST PUSH1 0x40 MLOAD PUSH2 0x6B3 SWAP2 SWAP1 PUSH2 0x6E6E JUMP JUMPDEST PUSH1 0x40 MLOAD DUP1 SWAP2 SUB SWAP1 RETURN JUMPDEST PUSH2 0x6C4 PUSH2 0x1398 JUMP JUMPDEST PUSH1 0x40 MLOAD PUSH2 0x6D1 SWAP2 SWAP1 PUSH2 0x6C0B JUMP JUMPDEST PUSH1 0x40 MLOAD DUP1 SWAP2 SUB SWAP1 RETURN JUMPDEST PUSH2 0x6E2 PUSH2 0x13BF JUMP JUMPDEST PUSH1 0x40 MLOAD PUSH2 0x6EF SWAP2 SWAP1 PUSH2 0x6EE9 JUMP JUMPDEST PUSH1 0x40 MLOAD DUP1 SWAP2 SUB SWAP1 RETURN JUMPDEST PUSH2 0x700 PUSH2 0x13C4 JUMP JUMPDEST PUSH1 0x40 MLOAD PUSH2 0x70D SWAP2 SWAP1 PUSH2 0x6E6E JUMP JUMPDEST PUSH1 0x40 MLOAD DUP1 SWAP2 SUB SWAP1 RETURN JUMPDEST PUSH2 0x730 PUSH1 0x4 DUP1 CALLDATASIZE SUB DUP2 ADD SWAP1 PUSH2 0x72B SWAP2 SWAP1 PUSH2 0x6638 JUMP JUMPDEST PUSH2 0x13CA JUMP JUMPDEST STOP JUMPDEST PUSH2 0x73A PUSH2 0x1464 JUMP JUMPDEST PUSH1 0x40 MLOAD PUSH2 0x747 SWAP2 SWAP1 PUSH2 0x6C0B JUMP JUMPDEST PUSH1 0x40 MLOAD DUP1 SWAP2 SUB SWAP1 RETURN JUMPDEST PUSH2 0x758 PUSH2 0x146A JUMP JUMPDEST PUSH1 0x40 MLOAD PUSH2 0x765 SWAP2 SWAP1 PUSH2 0x6E6E JUMP JUMPDEST PUSH1 0x40 MLOAD DUP1 SWAP2 SUB SWAP1 RETURN JUMPDEST PUSH2 0x776 PUSH2 0x1470 JUMP JUMPDEST PUSH1 0x40 MLOAD PUSH2 0x783 SWAP2 SWAP1 PUSH2 0x6E6E JUMP JUMPDEST PUSH1 0x40 MLOAD DUP1 SWAP2 SUB SWAP1 RETURN JUMPDEST PUSH2 0x794 PUSH2 0x1476 JUMP JUMPDEST PUSH1 0x40 MLOAD PUSH2 0x7A1 SWAP2 SWAP1 PUSH2 0x6E6E JUMP JUMPDEST PUSH1 0x40 MLOAD DUP1 SWAP2 SUB SWAP1 RETURN JUMPDEST PUSH2 0x7C4 PUSH1 0x4 DUP1 CALLDATASIZE SUB DUP2 ADD SWAP1 PUSH2 0x7BF SWAP2 SWAP1 PUSH2 0x6403 JUMP JUMPDEST PUSH2 0x147C JUMP JUMPDEST STOP JUMPDEST PUSH2 0x7E0 PUSH1 0x4 DUP1 CALLDATASIZE SUB DUP2 ADD SWAP1 PUSH2 0x7DB SWAP2 SWAP1 PUSH2 0x6725 JUMP JUMPDEST PUSH2 0x1592 JUMP JUMPDEST STOP JUMPDEST PUSH2 0x7FC PUSH1 0x4 DUP1 CALLDATASIZE SUB DUP2 ADD SWAP1 PUSH2 0x7F7 SWAP2 SWAP1 PUSH2 0x63D6 JUMP JUMPDEST PUSH2 0x202D JUMP JUMPDEST PUSH1 0x40 MLOAD PUSH2 0x809 SWAP2 SWAP1 PUSH2 0x6E6E JUMP JUMPDEST PUSH1 0x40 MLOAD DUP1 SWAP2 SUB SWAP1 RETURN JUMPDEST PUSH2 0x81A PUSH2 0x21B5 JUMP JUMPDEST PUSH1 0x40 MLOAD PUSH2 0x827 SWAP2 SWAP1 PUSH2 0x6E6E JUMP JUMPDEST PUSH1 0x40 MLOAD DUP1 SWAP2 SUB SWAP1 RETURN JUMPDEST PUSH2 0x838 PUSH2 0x21BB JUMP JUMPDEST PUSH1 0x40 MLOAD PUSH2 0x845 SWAP2 SWAP1 PUSH2 0x6E6E JUMP JUMPDEST PUSH1 0x40 MLOAD DUP1 SWAP2 SUB SWAP1 RETURN JUMPDEST PUSH2 0x868 PUSH1 0x4 DUP1 CALLDATASIZE SUB DUP2 ADD SWAP1 PUSH2 0x863 SWAP2 SWAP1 PUSH2 0x6725 JUMP JUMPDEST PUSH2 0x21C1 JUMP JUMPDEST PUSH1 0x40 MLOAD PUSH2 0x875 SWAP2 SWAP1 PUSH2 0x6E6E JUMP JUMPDEST PUSH1 0x40 MLOAD DUP1 SWAP2 SUB SWAP1 RETURN JUMPDEST PUSH2 0x886 PUSH2 0x22E6 JUMP JUMPDEST PUSH1 0x40 MLOAD PUSH2 0x893 SWAP2 SWAP1 PUSH2 0x6E6E JUMP JUMPDEST PUSH1 0x40 MLOAD DUP1 SWAP2 SUB SWAP1 RETURN JUMPDEST PUSH2 0x8B6 PUSH1 0x4 DUP1 CALLDATASIZE SUB DUP2 ADD SWAP1 PUSH2 0x8B1 SWAP2 SWAP1 PUSH2 0x6692 JUMP JUMPDEST PUSH2 0x22EC JUMP JUMPDEST PUSH1 0x40 MLOAD PUSH2 0x8C4 SWAP3 SWAP2 SWAP1 PUSH2 0x6E89 JUMP JUMPDEST PUSH1 0x40 MLOAD DUP1 SWAP2 SUB SWAP1 RETURN JUMPDEST PUSH2 0x8D5 PUSH2 0x2489 JUMP JUMPDEST PUSH1 0x40 MLOAD PUSH2 0x8E2 SWAP2 SWAP1 PUSH2 0x6E6E JUMP JUMPDEST PUSH1 0x40 MLOAD DUP1 SWAP2 SUB SWAP1 RETURN JUMPDEST PUSH2 0x905 PUSH1 0x4 DUP1 CALLDATASIZE SUB DUP2 ADD SWAP1 PUSH2 0x900 SWAP2 SWAP1 PUSH2 0x63D6 JUMP JUMPDEST PUSH2 0x248F JUMP JUMPDEST PUSH1 0x40 MLOAD PUSH2 0x912 SWAP2 SWAP1 PUSH2 0x6E6E JUMP JUMPDEST PUSH1 0x40 MLOAD DUP1 SWAP2 SUB SWAP1 RETURN JUMPDEST PUSH2 0x923 PUSH2 0x24A7 JUMP JUMPDEST PUSH1 0x40 MLOAD PUSH2 0x930 SWAP2 SWAP1 PUSH2 0x6E6E JUMP JUMPDEST PUSH1 0x40 MLOAD DUP1 SWAP2 SUB SWAP1 RETURN JUMPDEST PUSH2 0x953 PUSH1 0x4 DUP1 CALLDATASIZE SUB DUP2 ADD SWAP1 PUSH2 0x94E SWAP2 SWAP1 PUSH2 0x63D6 JUMP JUMPDEST PUSH2 0x24AD JUMP JUMPDEST PUSH1 0x40 MLOAD PUSH2 0x960 SWAP2 SWAP1 PUSH2 0x6E6E JUMP JUMPDEST PUSH1 0x40 MLOAD DUP1 SWAP2 SUB SWAP1 RETURN JUMPDEST PUSH2 0x971 PUSH2 0x24C5 JUMP JUMPDEST PUSH1 0x40 MLOAD PUSH2 0x97E SWAP2 SWAP1 PUSH2 0x6E6E JUMP JUMPDEST PUSH1 0x40 MLOAD DUP1 SWAP2 SUB SWAP1 RETURN JUMPDEST PUSH2 0x9A1 PUSH1 0x4 DUP1 CALLDATASIZE SUB DUP2 ADD SWAP1 PUSH2 0x99C SWAP2 SWAP1 PUSH2 0x6538 JUMP JUMPDEST PUSH2 0x24CB JUMP JUMPDEST PUSH1 0x40 MLOAD PUSH2 0x9B1 SWAP5 SWAP4 SWAP3 SWAP2 SWAP1 PUSH2 0x6B60 JUMP JUMPDEST PUSH1 0x40 MLOAD DUP1 SWAP2 SUB SWAP1 RETURN JUMPDEST PUSH2 0x9D4 PUSH1 0x4 DUP1 CALLDATASIZE SUB DUP2 ADD SWAP1 PUSH2 0x9CF SWAP2 SWAP1 PUSH2 0x63D6 JUMP JUMPDEST PUSH2 0x2535 JUMP JUMPDEST PUSH1 0x40 MLOAD PUSH2 0x9E1 SWAP2 SWAP1 PUSH2 0x6E6E JUMP JUMPDEST PUSH1 0x40 MLOAD DUP1 SWAP2 SUB SWAP1 RETURN JUMPDEST PUSH2 0x9F2 PUSH2 0x254D JUMP JUMPDEST PUSH1 0x40 MLOAD PUSH2 0x9FF SWAP2 SWAP1 PUSH2 0x6E6E JUMP JUMPDEST PUSH1 0x40 MLOAD DUP1 SWAP2 SUB SWAP1 RETURN JUMPDEST PUSH2 0xA10 PUSH2 0x2553 JUMP JUMPDEST PUSH1 0x40 MLOAD PUSH2 0xA1D SWAP2 SWAP1 PUSH2 0x6E6E JUMP JUMPDEST PUSH1 0x40 MLOAD DUP1 SWAP2 SUB SWAP1 RETURN JUMPDEST PUSH2 0xA2E PUSH2 0x2559 JUMP JUMPDEST PUSH1 0x40 MLOAD PUSH2 0xA3B SWAP2 SWAP1 PUSH2 0x6E6E JUMP JUMPDEST PUSH1 0x40 MLOAD DUP1 SWAP2 SUB SWAP1 RETURN JUMPDEST PUSH2 0xA4C PUSH2 0x255F JUMP JUMPDEST PUSH1 0x40 MLOAD PUSH2 0xA59 SWAP2 SWAP1 PUSH2 0x6E6E JUMP JUMPDEST PUSH1 0x40 MLOAD DUP1 SWAP2 SUB SWAP1 RETURN JUMPDEST PUSH2 0xA6A PUSH2 0x2565 JUMP JUMPDEST PUSH1 0x40 MLOAD PUSH2 0xA77 SWAP2 SWAP1 PUSH2 0x6E6E JUMP JUMPDEST PUSH1 0x40 MLOAD DUP1 SWAP2 SUB SWAP1 RETURN JUMPDEST PUSH2 0xA88 PUSH2 0x256B JUMP JUMPDEST PUSH1 0x40 MLOAD PUSH2 0xA95 SWAP2 SWAP1 PUSH2 0x6E6E JUMP JUMPDEST PUSH1 0x40 MLOAD DUP1 SWAP2 SUB SWAP1 RETURN JUMPDEST PUSH2 0xAB8 PUSH1 0x4 DUP1 CALLDATASIZE SUB DUP2 ADD SWAP1 PUSH2 0xAB3 SWAP2 SWAP1 PUSH2 0x6778 JUMP JUMPDEST PUSH2 0x2571 JUMP JUMPDEST STOP JUMPDEST PUSH2 0xAC2 PUSH2 0x2A0F JUMP JUMPDEST PUSH1 0x40 MLOAD PUSH2 0xACF SWAP2 SWAP1 PUSH2 0x6CCC JUMP JUMPDEST PUSH1 0x40 MLOAD DUP1 SWAP2 SUB SWAP1 RETURN JUMPDEST PUSH2 0xAE0 PUSH2 0x2A48 JUMP JUMPDEST PUSH1 0x40 MLOAD PUSH2 0xAED SWAP2 SWAP1 PUSH2 0x6E6E JUMP JUMPDEST PUSH1 0x40 MLOAD DUP1 SWAP2 SUB SWAP1 RETURN JUMPDEST PUSH2 0xB10 PUSH1 0x4 DUP1 CALLDATASIZE SUB DUP2 ADD SWAP1 PUSH2 0xB0B SWAP2 SWAP1 PUSH2 0x65B8 JUMP JUMPDEST PUSH2 0x2A4E JUMP JUMPDEST STOP JUMPDEST PUSH2 0xB2C PUSH1 0x4 DUP1 CALLDATASIZE SUB DUP2 ADD SWAP1 PUSH2 0xB27 SWAP2 SWAP1 PUSH2 0x66D2 JUMP JUMPDEST PUSH2 0x2E30 JUMP JUMPDEST STOP JUMPDEST PUSH2 0xB36 PUSH2 0x2EE6 JUMP JUMPDEST PUSH1 0x40 MLOAD PUSH2 0xB43 SWAP2 SWAP1 PUSH2 0x6E6E JUMP JUMPDEST PUSH1 0x40 MLOAD DUP1 SWAP2 SUB SWAP1 RETURN JUMPDEST PUSH2 0xB66 PUSH1 0x4 DUP1 CALLDATASIZE SUB DUP2 ADD SWAP1 PUSH2 0xB61 SWAP2 SWAP1 PUSH2 0x6578 JUMP JUMPDEST PUSH2 0x2EEC JUMP JUMPDEST PUSH1 0x40 MLOAD PUSH2 0xB73 SWAP2 SWAP1 PUSH2 0x6BF0 JUMP JUMPDEST PUSH1 0x40 MLOAD DUP1 SWAP2 SUB SWAP1 RETURN JUMPDEST PUSH2 0xB84 PUSH2 0x2F03 JUMP JUMPDEST PUSH1 0x40 MLOAD PUSH2 0xB91 SWAP2 SWAP1 PUSH2 0x6E6E JUMP JUMPDEST PUSH1 0x40 MLOAD DUP1 SWAP2 SUB SWAP1 RETURN JUMPDEST PUSH2 0xBA2 PUSH2 0x2F09 JUMP JUMPDEST PUSH1 0x40 MLOAD PUSH2 0xBAF SWAP2 SWAP1 PUSH2 0x6BCE JUMP JUMPDEST PUSH1 0x40 MLOAD DUP1 SWAP2 SUB SWAP1 RETURN JUMPDEST PUSH2 0xBC0 PUSH2 0x2F9E JUMP JUMPDEST PUSH1 0x40 MLOAD PUSH2 0xBCD SWAP2 SWAP1 PUSH2 0x6B45 JUMP JUMPDEST PUSH1 0x40 MLOAD DUP1 SWAP2 SUB SWAP1 RETURN JUMPDEST PUSH2 0xBF0 PUSH1 0x4 DUP1 CALLDATASIZE SUB DUP2 ADD SWAP1 PUSH2 0xBEB SWAP2 SWAP1 PUSH2 0x63D6 JUMP JUMPDEST PUSH2 0x2FC4 JUMP JUMPDEST STOP JUMPDEST PUSH2 0xC0C PUSH1 0x4 DUP1 CALLDATASIZE SUB DUP2 ADD SWAP1 PUSH2 0xC07 SWAP2 SWAP1 PUSH2 0x63D6 JUMP JUMPDEST PUSH2 0x31BA JUMP JUMPDEST PUSH1 0x40 MLOAD PUSH2 0xC19 SWAP2 SWAP1 PUSH2 0x6E6E JUMP JUMPDEST PUSH1 0x40 MLOAD DUP1 SWAP2 SUB SWAP1 RETURN JUMPDEST PUSH2 0xC3C PUSH1 0x4 DUP1 CALLDATASIZE SUB DUP2 ADD SWAP1 PUSH2 0xC37 SWAP2 SWAP1 PUSH2 0x6403 JUMP JUMPDEST PUSH2 0x32E8 JUMP JUMPDEST STOP JUMPDEST PUSH2 0xC46 PUSH2 0x3669 JUMP JUMPDEST PUSH1 0x40 MLOAD PUSH2 0xC53 SWAP2 SWAP1 PUSH2 0x6B45 JUMP JUMPDEST PUSH1 0x40 MLOAD DUP1 SWAP2 SUB SWAP1 RETURN JUMPDEST PUSH2 0xC64 PUSH2 0x368F JUMP JUMPDEST PUSH1 0x40 MLOAD PUSH2 0xC71 SWAP2 SWAP1 PUSH2 0x6BF0 JUMP JUMPDEST PUSH1 0x40 MLOAD DUP1 SWAP2 SUB SWAP1 RETURN JUMPDEST PUSH2 0xC82 PUSH2 0x36A2 JUMP JUMPDEST PUSH1 0x40 MLOAD PUSH2 0xC8F SWAP2 SWAP1 PUSH2 0x6E6E JUMP JUMPDEST PUSH1 0x40 MLOAD DUP1 SWAP2 SUB SWAP1 RETURN JUMPDEST PUSH2 0xCB2 PUSH1 0x4 DUP1 CALLDATASIZE SUB DUP2 ADD SWAP1 PUSH2 0xCAD SWAP2 SWAP1 PUSH2 0x6638 JUMP JUMPDEST PUSH2 0x36A8 JUMP JUMPDEST STOP JUMPDEST PUSH2 0xCBC PUSH2 0x3742 JUMP JUMPDEST PUSH1 0x40 MLOAD PUSH2 0xCC9 SWAP2 SWAP1 PUSH2 0x6E6E JUMP JUMPDEST PUSH1 0x40 MLOAD DUP1 SWAP2 SUB SWAP1 RETURN JUMPDEST PUSH2 0xCEC PUSH1 0x4 DUP1 CALLDATASIZE SUB DUP2 ADD SWAP1 PUSH2 0xCE7 SWAP2 SWAP1 PUSH2 0x6496 JUMP JUMPDEST PUSH2 0x3748 JUMP JUMPDEST STOP JUMPDEST PUSH2 0xD08 PUSH1 0x4 DUP1 CALLDATASIZE SUB DUP2 ADD SWAP1 PUSH2 0xD03 SWAP2 SWAP1 PUSH2 0x6638 JUMP JUMPDEST PUSH2 0x3970 JUMP JUMPDEST PUSH1 0x40 MLOAD PUSH2 0xD15 SWAP2 SWAP1 PUSH2 0x6B45 JUMP JUMPDEST PUSH1 0x40 MLOAD DUP1 SWAP2 SUB SWAP1 RETURN JUMPDEST PUSH2 0xD38 PUSH1 0x4 DUP1 CALLDATASIZE SUB DUP2 ADD SWAP1 PUSH2 0xD33 SWAP2 SWAP1 PUSH2 0x6403 JUMP JUMPDEST PUSH2 0x39AF JUMP JUMPDEST PUSH1 0x40 MLOAD PUSH2 0xD45 SWAP2 SWAP1 PUSH2 0x6E6E JUMP JUMPDEST PUSH1 0x40 MLOAD DUP1 SWAP2 SUB SWAP1 RETURN JUMPDEST PUSH2 0xD56 PUSH2 0x39D4 JUMP JUMPDEST PUSH1 0x40 MLOAD PUSH2 0xD63 SWAP2 SWAP1 PUSH2 0x6E6E JUMP JUMPDEST PUSH1 0x40 MLOAD DUP1 SWAP2 SUB SWAP1 RETURN JUMPDEST PUSH2 0xD86 PUSH1 0x4 DUP1 CALLDATASIZE SUB DUP2 ADD SWAP1 PUSH2 0xD81 SWAP2 SWAP1 PUSH2 0x63D6 JUMP JUMPDEST PUSH2 0x39DA JUMP JUMPDEST PUSH1 0x40 MLOAD PUSH2 0xD93 SWAP2 SWAP1 PUSH2 0x6E6E JUMP JUMPDEST PUSH1 0x40 MLOAD DUP1 SWAP2 SUB SWAP1 RETURN JUMPDEST PUSH2 0xDA4 PUSH2 0x39E1 JUMP JUMPDEST PUSH1 0x40 MLOAD PUSH2 0xDB1 SWAP2 SWAP1 PUSH2 0x6E6E JUMP JUMPDEST PUSH1 0x40 MLOAD DUP1 SWAP2 SUB SWAP1 RETURN JUMPDEST PUSH2 0xDC2 PUSH2 0x39E7 JUMP JUMPDEST PUSH1 0x40 MLOAD PUSH2 0xDCF SWAP2 SWAP1 PUSH2 0x6E6E JUMP JUMPDEST PUSH1 0x40 MLOAD DUP1 SWAP2 SUB SWAP1 RETURN JUMPDEST PUSH2 0xDE0 PUSH2 0x39ED JUMP JUMPDEST PUSH1 0x40 MLOAD PUSH2 0xDED SWAP2 SWAP1 PUSH2 0x6E6E JUMP JUMPDEST PUSH1 0x40 MLOAD DUP1 SWAP2 SUB SWAP1 RETURN JUMPDEST PUSH2 0xDFE PUSH2 0x39F3 JUMP JUMPDEST PUSH1 0x40 MLOAD PUSH2 0xE0B SWAP2 SWAP1 PUSH2 0x6E6E JUMP JUMPDEST PUSH1 0x40 MLOAD DUP1 SWAP2 SUB SWAP1 RETURN JUMPDEST PUSH2 0xE2E PUSH1 0x4 DUP1 CALLDATASIZE SUB DUP2 ADD SWAP1 PUSH2 0xE29 SWAP2 SWAP1 PUSH2 0x6578 JUMP JUMPDEST PUSH2 0x39F9 JUMP JUMPDEST PUSH1 0x40 MLOAD PUSH2 0xE3B SWAP2 SWAP1 PUSH2 0x6E6E JUMP JUMPDEST PUSH1 0x40 MLOAD DUP1 SWAP2 SUB SWAP1 RETURN JUMPDEST PUSH2 0xE4C PUSH2 0x3A2A JUMP JUMPDEST PUSH1 0x40 MLOAD PUSH2 0xE5B SWAP4 SWAP3 SWAP2 SWAP1 PUSH2 0x6EB2 JUMP JUMPDEST PUSH1 0x40 MLOAD DUP1 SWAP2 SUB SWAP1 RETURN JUMPDEST PUSH2 0xE6C PUSH2 0x3F2E JUMP JUMPDEST PUSH1 0x40 MLOAD PUSH2 0xE79 SWAP2 SWAP1 PUSH2 0x6E6E JUMP JUMPDEST PUSH1 0x40 MLOAD DUP1 SWAP2 SUB SWAP1 RETURN JUMPDEST PUSH2 0xE9C PUSH1 0x4 DUP1 CALLDATASIZE SUB DUP2 ADD SWAP1 PUSH2 0xE97 SWAP2 SWAP1 PUSH2 0x6638 JUMP JUMPDEST PUSH2 0x3F34 JUMP JUMPDEST STOP JUMPDEST PUSH1 0xE SLOAD DUP2 JUMP JUMPDEST PUSH1 0x40 MLOAD DUP1 PUSH1 0x40 ADD PUSH1 0x40 MSTORE DUP1 PUSH1 0xA DUP2 MSTORE PUSH1 0x20 ADD PUSH32 0x556E697377617020563200000000000000000000000000000000000000000000 DUP2 MSTORE POP DUP2 JUMP JUMPDEST PUSH1 0x0 PUSH2 0xEEA CALLER DUP5 DUP5 PUSH2 0x3FCE JUMP JUMPDEST PUSH1 0x1 SWAP1 POP SWAP3 SWAP2 POP POP JUMP JUMPDEST PUSH1 0x1 PUSH1 0x2E SLOAD EQ PUSH2 0xF39 JUMPI PUSH1 0x40 MLOAD PUSH32 0x8C379A000000000000000000000000000000000000000000000000000000000 DUP2 MSTORE PUSH1 0x4 ADD PUSH2 0xF30 SWAP1 PUSH2 0x6E4E JUMP JUMPDEST PUSH1 0x40 MLOAD DUP1 SWAP2 SUB SWAP1 REVERT JUMPDEST PUSH1 0x0 PUSH1 0x2E DUP2 SWAP1 SSTORE POP PUSH1 0x0 DUP3 DUP5 PUSH2 0xF4F SWAP2 SWAP1 PUSH2 0x7172 JUMP JUMPDEST EQ DUP1 ISZERO PUSH2 0xF67 JUMPI POP PUSH1 0x0 DUP3 DUP5 PUSH2 0xF65 SWAP2 SWAP1 PUSH2 0x6F7A JUMP JUMPDEST GT JUMPDEST PUSH2 0xF70 JUMPI PUSH1 0x0 DUP1 REVERT JUMPDEST PUSH1 0x0 DUP4 GT ISZERO PUSH2 0xF99 JUMPI PUSH2 0xF87 DUP4 PUSH1 0x0 PUSH1 0x1 DUP5 PUSH2 0x2571 JUMP JUMPDEST PUSH2 0xF94 DUP4 PUSH1 0x0 DUP1 DUP5 PUSH2 0x2571 JUMP JUMPDEST PUSH2 0xFB6 JUMP JUMPDEST PUSH2 0xFA7 PUSH1 0x0 DUP4 PUSH1 0x1 DUP5 PUSH2 0x2571 JUMP JUMPDEST PUSH2 0xFB5 PUSH1 0x0 DUP4 PUSH1 0x0 DUP5 PUSH2 0x2571 JUMP JUMPDEST JUMPDEST PUSH1 0x1 PUSH1 0x2E DUP2 SWAP1 SSTORE POP POP POP POP JUMP JUMPDEST PUSH1 0x15 SLOAD DUP2 JUMP JUMPDEST PUSH1 0x27 PUSH1 0x0 SWAP1 SLOAD SWAP1 PUSH2 0x100 EXP SWAP1 DIV PUSH20 0xFFFFFFFFFFFFFFFFFFFFFFFFFFFFFFFFFFFFFFFF AND PUSH20 0xFFFFFFFFFFFFFFFFFFFFFFFFFFFFFFFFFFFFFFFF AND CALLER PUSH20 0xFFFFFFFFFFFFFFFFFFFFFFFFFFFFFFFFFFFFFFFF AND EQ PUSH2 0x1059 JUMPI PUSH1 0x40 MLOAD PUSH32 0x8C379A000000000000000000000000000000000000000000000000000000000 DUP2 MSTORE PUSH1 0x4 ADD PUSH2 0x1050 SWAP1 PUSH2 0x6D6E JUMP JUMPDEST PUSH1 0x40 MLOAD DUP1 SWAP2 SUB SWAP1 REVERT JUMPDEST DUP1 PUSH1 0x21 DUP2 SWAP1 SSTORE POP POP JUMP JUMPDEST PUSH1 0x7 SLOAD DUP2 JUMP JUMPDEST PUSH1 0x1C SLOAD DUP2 JUMP JUMPDEST PUSH1 0x28 PUSH1 0x0 SWAP1 SLOAD SWAP1 PUSH2 0x100 EXP SWAP1 DIV PUSH20 0xFFFFFFFFFFFFFFFFFFFFFFFFFFFFFFFFFFFFFFFF AND DUP2 JUMP JUMPDEST PUSH1 0x0 SLOAD DUP2 JUMP JUMPDEST PUSH1 0x1D SLOAD DUP2 JUMP JUMPDEST PUSH1 0x19 SLOAD DUP2 JUMP JUMPDEST PUSH1 0x1A SLOAD DUP2 JUMP JUMPDEST PUSH1 0x0 PUSH2 0x101 PUSH1 0x2 PUSH1 0x0 DUP7 PUSH20 0xFFFFFFFFFFFFFFFFFFFFFFFFFFFFFFFFFFFFFFFF AND PUSH20 0xFFFFFFFFFFFFFFFFFFFFFFFFFFFFFFFFFFFFFFFF AND DUP2 MSTORE PUSH1 0x20 ADD SWAP1 DUP2 MSTORE PUSH1 0x20 ADD PUSH1 0x0 KECCAK256 PUSH1 0x0 CALLER PUSH20 0xFFFFFFFFFFFFFFFFFFFFFFFFFFFFFFFFFFFFFFFF AND PUSH20 0xFFFFFFFFFFFFFFFFFFFFFFFFFFFFFFFFFFFFFFFF AND DUP2 MSTORE PUSH1 0x20 ADD SWAP1 DUP2 MSTORE PUSH1 0x20 ADD PUSH1 0x0 KECCAK256 SLOAD EQ PUSH2 0x1244 JUMPI PUSH2 0x11C3 DUP3 PUSH1 0x2 PUSH1 0x0 DUP8 PUSH20 0xFFFFFFFFFFFFFFFFFFFFFFFFFFFFFFFFFFFFFFFF AND PUSH20 0xFFFFFFFFFFFFFFFFFFFFFFFFFFFFFFFFFFFFFFFF AND DUP2 MSTORE PUSH1 0x20 ADD SWAP1 DUP2 MSTORE PUSH1 0x20 ADD PUSH1 0x0 KECCAK256 PUSH1 0x0 CALLER PUSH20 0xFFFFFFFFFFFFFFFFFFFFFFFFFFFFFFFFFFFFFFFF AND PUSH20 0xFFFFFFFFFFFFFFFFFFFFFFFFFFFFFFFFFFFFFFFF AND DUP2 MSTORE PUSH1 0x20 ADD SWAP1 DUP2 MSTORE PUSH1 0x20 ADD PUSH1 0x0 KECCAK256 SLOAD PUSH2 0x40B9 SWAP1 SWAP2 SWAP1 PUSH4 0xFFFFFFFF AND JUMP JUMPDEST PUSH1 0x2 PUSH1 0x0 DUP7 PUSH20 0xFFFFFFFFFFFFFFFFFFFFFFFFFFFFFFFFFFFFFFFF AND PUSH20 0xFFFFFFFFFFFFFFFFFFFFFFFFFFFFFFFFFFFFFFFF AND DUP2 MSTORE PUSH1 0x20 ADD SWAP1 DUP2 MSTORE PUSH1 0x20 ADD PUSH1 0x0 KECCAK256 PUSH1 0x0 CALLER PUSH20 0xFFFFFFFFFFFFFFFFFFFFFFFFFFFFFFFFFFFFFFFF AND PUSH20 0xFFFFFFFFFFFFFFFFFFFFFFFFFFFFFFFFFFFFFFFF AND DUP2 MSTORE PUSH1 0x20 ADD SWAP1 DUP2 MSTORE PUSH1 0x20 ADD PUSH1 0x0 KECCAK256 DUP2 SWAP1 SSTORE POP JUMPDEST PUSH2 0x124F DUP5 DUP5 DUP5 PUSH2 0x4112 JUMP JUMPDEST PUSH1 0x1 SWAP1 POP SWAP4 SWAP3 POP POP POP JUMP JUMPDEST PUSH1 0x1E SLOAD DUP2 JUMP JUMPDEST PUSH1 0x25 SLOAD DUP2 JUMP JUMPDEST PUSH1 0x0 DUP1 PUSH1 0x31 PUSH1 0x0 DUP5 PUSH20 0xFFFFFFFFFFFFFFFFFFFFFFFFFFFFFFFFFFFFFFFF AND PUSH20 0xFFFFFFFFFFFFFFFFFFFFFFFFFFFFFFFFFFFFFFFF AND DUP2 MSTORE PUSH1 0x20 ADD SWAP1 DUP2 MSTORE PUSH1 0x20 ADD PUSH1 0x0 KECCAK256 DUP1 SLOAD DUP1 PUSH1 0x20 MUL PUSH1 0x20 ADD PUSH1 0x40 MLOAD SWAP1 DUP2 ADD PUSH1 0x40 MSTORE DUP1 SWAP3 SWAP2 SWAP1 DUP2 DUP2 MSTORE PUSH1 0x20 ADD DUP3 DUP1 SLOAD DUP1 ISZERO PUSH2 0x12F2 JUMPI PUSH1 0x20 MUL DUP3 ADD SWAP2 SWAP1 PUSH1 0x0 MSTORE PUSH1 0x20 PUSH1 0x0 KECCAK256 SWAP1 JUMPDEST DUP2 SLOAD DUP2 MSTORE PUSH1 0x20 ADD SWAP1 PUSH1 0x1 ADD SWAP1 DUP1 DUP4 GT PUSH2 0x12DE JUMPI JUMPDEST POP POP POP POP POP SWAP1 POP PUSH1 0x0 PUSH2 0x1303 PUSH2 0x2F09 JUMP JUMPDEST SWAP1 POP PUSH1 0x0 DUP3 MLOAD SWAP1 POP PUSH1 0x0 JUMPDEST DUP2 DUP2 LT ISZERO PUSH2 0x1389 JUMPI PUSH8 0xDE0B6B3A7640000 DUP4 DUP3 DUP2 MLOAD DUP2 LT PUSH2 0x1332 JUMPI PUSH2 0x1331 PUSH2 0x7343 JUMP JUMPDEST JUMPDEST PUSH1 0x20 MUL PUSH1 0x20 ADD ADD MLOAD DUP6 DUP4 DUP2 MLOAD DUP2 LT PUSH2 0x134D JUMPI PUSH2 0x134C PUSH2 0x7343 JUMP JUMPDEST JUMPDEST PUSH1 0x20 MUL PUSH1 0x20 ADD ADD MLOAD PUSH2 0x135F SWAP2 SWAP1 PUSH2 0x7172 JUMP JUMPDEST PUSH2 0x1369 SWAP2 SWAP1 PUSH2 0x6FD0 JUMP JUMPDEST DUP6 PUSH2 0x1374 SWAP2 SWAP1 PUSH2 0x6F7A JUMP JUMPDEST SWAP5 POP DUP1 DUP1 PUSH2 0x1381 SWAP1 PUSH2 0x7292 JUMP JUMPDEST SWAP2 POP POP PUSH2 0x130E JUMP JUMPDEST POP POP POP POP SWAP2 SWAP1 POP JUMP JUMPDEST PUSH1 0x2B SLOAD DUP2 JUMP JUMPDEST PUSH32 0x6E71EDAE12B1B97F4D1F60370FEF10105FA2FAAE0126114A169C64845D6126C9 PUSH1 0x0 SHL DUP2 JUMP JUMPDEST PUSH1 0x12 DUP2 JUMP JUMPDEST PUSH1 0x5 SLOAD DUP2 JUMP JUMPDEST PUSH1 0x27 PUSH1 0x0 SWAP1 SLOAD SWAP1 PUSH2 0x100 EXP SWAP1 DIV PUSH20 0xFFFFFFFFFFFFFFFFFFFFFFFFFFFFFFFFFFFFFFFF AND PUSH20 0xFFFFFFFFFFFFFFFFFFFFFFFFFFFFFFFFFFFFFFFF AND CALLER PUSH20 0xFFFFFFFFFFFFFFFFFFFFFFFFFFFFFFFFFFFFFFFF AND EQ PUSH2 0x145A JUMPI PUSH1 0x40 MLOAD PUSH32 0x8C379A000000000000000000000000000000000000000000000000000000000 DUP2 MSTORE PUSH1 0x4 ADD PUSH2 0x1451 SWAP1 PUSH2 0x6D6E JUMP JUMPDEST PUSH1 0x40 MLOAD DUP1 SWAP2 SUB SWAP1 REVERT JUMPDEST DUP1 PUSH1 0x1D DUP2 SWAP1 SSTORE POP POP JUMP JUMPDEST PUSH1 0x3 SLOAD DUP2 JUMP JUMPDEST PUSH1 0xC SLOAD DUP2 JUMP JUMPDEST PUSH1 0x13 SLOAD DUP2 JUMP JUMPDEST PUSH1 0x17 SLOAD DUP2 JUMP JUMPDEST PUSH1 0x27 PUSH1 0x0 SWAP1 SLOAD SWAP1 PUSH2 0x100 EXP SWAP1 DIV PUSH20 0xFFFFFFFFFFFFFFFFFFFFFFFFFFFFFFFFFFFFFFFF AND PUSH20 0xFFFFFFFFFFFFFFFFFFFFFFFFFFFFFFFFFFFFFFFF AND CALLER PUSH20 0xFFFFFFFFFFFFFFFFFFFFFFFFFFFFFFFFFFFFFFFF AND EQ PUSH2 0x150C JUMPI PUSH1 0x40 MLOAD PUSH32 0x8C379A000000000000000000000000000000000000000000000000000000000 DUP2 MSTORE PUSH1 0x4 ADD PUSH2 0x1503 SWAP1 PUSH2 0x6D6E JUMP JUMPDEST PUSH1 0x40 MLOAD DUP1 SWAP2 SUB SWAP1 REVERT JUMPDEST DUP2 PUSH1 0x28 PUSH1 0x0 PUSH2 0x100 EXP DUP2 SLOAD DUP2 PUSH20 0xFFFFFFFFFFFFFFFFFFFFFFFFFFFFFFFFFFFFFFFF MUL NOT AND SWAP1 DUP4 PUSH20 0xFFFFFFFFFFFFFFFFFFFFFFFFFFFFFFFFFFFFFFFF AND MUL OR SWAP1 SSTORE POP DUP1 PUSH1 0x29 PUSH1 0x0 PUSH2 0x100 EXP DUP2 SLOAD DUP2 PUSH20 0xFFFFFFFFFFFFFFFFFFFFFFFFFFFFFFFFFFFFFFFF MUL NOT AND SWAP1 DUP4 PUSH20 0xFFFFFFFFFFFFFFFFFFFFFFFFFFFFFFFFFFFFFFFF AND MUL OR SWAP1 SSTORE POP POP POP JUMP JUMPDEST PUSH1 0x1 PUSH1 0x2E SLOAD EQ PUSH2 0x15D7 JUMPI PUSH1 0x40 MLOAD PUSH32 0x8C379A000000000000000000000000000000000000000000000000000000000 DUP2 MSTORE PUSH1 0x4 ADD PUSH2 0x15CE SWAP1 PUSH2 0x6E4E JUMP JUMPDEST PUSH1 0x40 MLOAD DUP1 SWAP2 SUB SWAP1 REVERT JUMPDEST PUSH1 0x0 PUSH1 0x2E DUP2 SWAP1 SSTORE POP PUSH1 0x0 DUP3 DUP5 PUSH2 0x15ED SWAP2 SWAP1 PUSH2 0x7172 JUMP JUMPDEST EQ DUP1 ISZERO PUSH2 0x1605 JUMPI POP PUSH1 0x0 DUP3 DUP5 PUSH2 0x1603 SWAP2 SWAP1 PUSH2 0x6F7A JUMP JUMPDEST GT JUMPDEST PUSH2 0x160E JUMPI PUSH1 0x0 DUP1 REVERT JUMPDEST PUSH2 0x1616 PUSH2 0x42A6 JUMP JUMPDEST PUSH1 0x30 PUSH1 0x0 DUP3 PUSH20 0xFFFFFFFFFFFFFFFFFFFFFFFFFFFFFFFFFFFFFFFF AND PUSH20 0xFFFFFFFFFFFFFFFFFFFFFFFFFFFFFFFFFFFFFFFF AND DUP2 MSTORE PUSH1 0x20 ADD SWAP1 DUP2 MSTORE PUSH1 0x20 ADD PUSH1 0x0 KECCAK256 PUSH1 0x0 DUP1 ISZERO ISZERO ISZERO ISZERO DUP2 MSTORE PUSH1 0x20 ADD SWAP1 DUP2 MSTORE PUSH1 0x20 ADD PUSH1 0x0 KECCAK256 PUSH1 0x2 ADD SLOAD DUP4 GT ISZERO DUP1 ISZERO PUSH2 0x16D5 JUMPI POP PUSH1 0x30 PUSH1 0x0 DUP3 PUSH20 0xFFFFFFFFFFFFFFFFFFFFFFFFFFFFFFFFFFFFFFFF AND PUSH20 0xFFFFFFFFFFFFFFFFFFFFFFFFFFFFFFFFFFFFFFFF AND DUP2 MSTORE PUSH1 0x20 ADD SWAP1 DUP2 MSTORE PUSH1 0x20 ADD PUSH1 0x0 KECCAK256 PUSH1 0x0 PUSH1 0x1 ISZERO ISZERO ISZERO ISZERO DUP2 MSTORE PUSH1 0x20 ADD SWAP1 DUP2 MSTORE PUSH1 0x20 ADD PUSH1 0x0 KECCAK256 PUSH1 0x2 ADD SLOAD DUP3 GT ISZERO JUMPDEST PUSH2 0x1714 JUMPI PUSH1 0x40 MLOAD PUSH32 0x8C379A000000000000000000000000000000000000000000000000000000000 DUP2 MSTORE PUSH1 0x4 ADD PUSH2 0x170B SWAP1 PUSH2 0x6E0E JUMP JUMPDEST PUSH1 0x40 MLOAD DUP1 SWAP2 SUB SWAP1 REVERT JUMPDEST PUSH1 0x0 DUP4 GT ISZERO PUSH2 0x1BA5 JUMPI PUSH1 0x0 PUSH2 0x172A DUP5 PUSH1 0x1 PUSH2 0x4453 JUMP JUMPDEST SWAP1 POP PUSH1 0x0 PUSH1 0x30 PUSH1 0x0 DUP5 PUSH20 0xFFFFFFFFFFFFFFFFFFFFFFFFFFFFFFFFFFFFFFFF AND PUSH20 0xFFFFFFFFFFFFFFFFFFFFFFFFFFFFFFFFFFFFFFFF AND DUP2 MSTORE PUSH1 0x20 ADD SWAP1 DUP2 MSTORE PUSH1 0x20 ADD PUSH1 0x0 KECCAK256 PUSH1 0x0 DUP1 ISZERO ISZERO ISZERO ISZERO DUP2 MSTORE PUSH1 0x20 ADD SWAP1 DUP2 MSTORE PUSH1 0x20 ADD PUSH1 0x0 KECCAK256 PUSH1 0x2 ADD SLOAD PUSH1 0x1C SLOAD PUSH1 0x1A SLOAD PUSH1 0x30 PUSH1 0x0 DUP8 PUSH20 0xFFFFFFFFFFFFFFFFFFFFFFFFFFFFFFFFFFFFFFFF AND PUSH20 0xFFFFFFFFFFFFFFFFFFFFFFFFFFFFFFFFFFFFFFFF AND DUP2 MSTORE PUSH1 0x20 ADD SWAP1 DUP2 MSTORE PUSH1 0x20 ADD PUSH1 0x0 KECCAK256 PUSH1 0x0 PUSH1 0x1 ISZERO ISZERO ISZERO ISZERO DUP2 MSTORE PUSH1 0x20 ADD SWAP1 DUP2 MSTORE PUSH1 0x20 ADD PUSH1 0x0 KECCAK256 PUSH1 0x1 ADD SLOAD DUP9 PUSH2 0x17F0 SWAP2 SWAP1 PUSH2 0x7172 JUMP JUMPDEST PUSH2 0x17FA SWAP2 SWAP1 PUSH2 0x7172 JUMP JUMPDEST PUSH2 0x1804 SWAP2 SWAP1 PUSH2 0x6FD0 JUMP JUMPDEST PUSH2 0x180E SWAP2 SWAP1 PUSH2 0x6FD0 JUMP JUMPDEST SWAP1 POP DUP5 PUSH1 0x30 PUSH1 0x0 DUP6 PUSH20 0xFFFFFFFFFFFFFFFFFFFFFFFFFFFFFFFFFFFFFFFF AND PUSH20 0xFFFFFFFFFFFFFFFFFFFFFFFFFFFFFFFFFFFFFFFF AND DUP2 MSTORE PUSH1 0x20 ADD SWAP1 DUP2 MSTORE PUSH1 0x20 ADD PUSH1 0x0 KECCAK256 PUSH1 0x0 DUP1 ISZERO ISZERO ISZERO ISZERO DUP2 MSTORE PUSH1 0x20 ADD SWAP1 DUP2 MSTORE PUSH1 0x20 ADD PUSH1 0x0 KECCAK256 PUSH1 0x2 ADD PUSH1 0x0 DUP3 DUP3 SLOAD PUSH2 0x1877 SWAP2 SWAP1 PUSH2 0x71CC JUMP JUMPDEST SWAP3 POP POP DUP2 SWAP1 SSTORE POP DUP1 PUSH1 0x1A PUSH1 0x0 DUP3 DUP3 SLOAD PUSH2 0x1890 SWAP2 SWAP1 PUSH2 0x71CC JUMP JUMPDEST SWAP3 POP POP DUP2 SWAP1 SSTORE POP PUSH1 0x30 PUSH1 0x0 DUP5 PUSH20 0xFFFFFFFFFFFFFFFFFFFFFFFFFFFFFFFFFFFFFFFF AND PUSH20 0xFFFFFFFFFFFFFFFFFFFFFFFFFFFFFFFFFFFFFFFF AND DUP2 MSTORE PUSH1 0x20 ADD SWAP1 DUP2 MSTORE PUSH1 0x20 ADD PUSH1 0x0 KECCAK256 PUSH1 0x0 DUP1 ISZERO ISZERO ISZERO ISZERO DUP2 MSTORE PUSH1 0x20 ADD SWAP1 DUP2 MSTORE PUSH1 0x20 ADD PUSH1 0x0 KECCAK256 PUSH1 0x2 ADD SLOAD DUP6 PUSH1 0x30 PUSH1 0x0 DUP7 PUSH20 0xFFFFFFFFFFFFFFFFFFFFFFFFFFFFFFFFFFFFFFFF AND PUSH20 0xFFFFFFFFFFFFFFFFFFFFFFFFFFFFFFFFFFFFFFFF AND DUP2 MSTORE PUSH1 0x20 ADD SWAP1 DUP2 MSTORE PUSH1 0x20 ADD PUSH1 0x0 KECCAK256 PUSH1 0x0 PUSH1 0x1 ISZERO ISZERO ISZERO ISZERO DUP2 MSTORE PUSH1 0x20 ADD SWAP1 DUP2 MSTORE PUSH1 0x20 ADD PUSH1 0x0 KECCAK256 PUSH1 0x1 ADD SLOAD PUSH2 0x1953 SWAP2 SWAP1 PUSH2 0x7172 JUMP JUMPDEST PUSH2 0x195D SWAP2 SWAP1 PUSH2 0x6FD0 JUMP JUMPDEST PUSH1 0x1C PUSH1 0x0 DUP3 DUP3 SLOAD PUSH2 0x196E SWAP2 SWAP1 PUSH2 0x71CC JUMP JUMPDEST SWAP3 POP POP DUP2 SWAP1 SSTORE POP PUSH1 0x30 PUSH1 0x0 DUP5 PUSH20 0xFFFFFFFFFFFFFFFFFFFFFFFFFFFFFFFFFFFFFFFF AND PUSH20 0xFFFFFFFFFFFFFFFFFFFFFFFFFFFFFFFFFFFFFFFF AND DUP2 MSTORE PUSH1 0x20 ADD SWAP1 DUP2 MSTORE PUSH1 0x20 ADD PUSH1 0x0 KECCAK256 PUSH1 0x0 DUP1 ISZERO ISZERO ISZERO ISZERO DUP2 MSTORE PUSH1 0x20 ADD SWAP1 DUP2 MSTORE PUSH1 0x20 ADD PUSH1 0x0 KECCAK256 PUSH1 0x2 ADD SLOAD DUP6 PUSH1 0x30 PUSH1 0x0 DUP7 PUSH20 0xFFFFFFFFFFFFFFFFFFFFFFFFFFFFFFFFFFFFFFFF AND PUSH20 0xFFFFFFFFFFFFFFFFFFFFFFFFFFFFFFFFFFFFFFFF AND DUP2 MSTORE PUSH1 0x20 ADD SWAP1 DUP2 MSTORE PUSH1 0x20 ADD PUSH1 0x0 KECCAK256 PUSH1 0x0 PUSH1 0x1 ISZERO ISZERO ISZERO ISZERO DUP2 MSTORE PUSH1 0x20 ADD SWAP1 DUP2 MSTORE PUSH1 0x20 ADD PUSH1 0x0 KECCAK256 PUSH1 0x1 ADD SLOAD PUSH2 0x1A31 SWAP2 SWAP1 PUSH2 0x7172 JUMP JUMPDEST PUSH2 0x1A3B SWAP2 SWAP1 PUSH2 0x6FD0 JUMP JUMPDEST PUSH1 0x30 PUSH1 0x0 DUP6 PUSH20 0xFFFFFFFFFFFFFFFFFFFFFFFFFFFFFFFFFFFFFFFF AND PUSH20 0xFFFFFFFFFFFFFFFFFFFFFFFFFFFFFFFFFFFFFFFF AND DUP2 MSTORE PUSH1 0x20 ADD SWAP1 DUP2 MSTORE PUSH1 0x20 ADD PUSH1 0x0 KECCAK256 PUSH1 0x0 PUSH1 0x1 ISZERO ISZERO ISZERO ISZERO DUP2 MSTORE PUSH1 0x20 ADD SWAP1 DUP2 MSTORE PUSH1 0x20 ADD PUSH1 0x0 KECCAK256 PUSH1 0x1 ADD PUSH1 0x0 DUP3 DUP3 SLOAD PUSH2 0x1AA2 SWAP2 SWAP1 PUSH2 0x71CC JUMP JUMPDEST SWAP3 POP POP DUP2 SWAP1 SSTORE POP DUP1 DUP3 LT PUSH2 0x1B9D JUMPI PUSH2 0x1AC6 DUP2 DUP4 PUSH2 0x1ABF SWAP2 SWAP1 PUSH2 0x71CC JUMP JUMPDEST PUSH1 0x0 PUSH2 0x4906 JUMP JUMPDEST PUSH1 0x31 PUSH1 0x0 DUP6 PUSH20 0xFFFFFFFFFFFFFFFFFFFFFFFFFFFFFFFFFFFFFFFF AND PUSH20 0xFFFFFFFFFFFFFFFFFFFFFFFFFFFFFFFFFFFFFFFF AND DUP2 MSTORE PUSH1 0x20 ADD SWAP1 DUP2 MSTORE PUSH1 0x20 ADD PUSH1 0x0 KECCAK256 PUSH1 0x32 PUSH1 0x0 PUSH1 0x28 PUSH1 0x0 SWAP1 SLOAD SWAP1 PUSH2 0x100 EXP SWAP1 DIV PUSH20 0xFFFFFFFFFFFFFFFFFFFFFFFFFFFFFFFFFFFFFFFF AND PUSH20 0xFFFFFFFFFFFFFFFFFFFFFFFFFFFFFFFFFFFFFFFF AND PUSH20 0xFFFFFFFFFFFFFFFFFFFFFFFFFFFFFFFFFFFFFFFF AND DUP2 MSTORE PUSH1 0x20 ADD SWAP1 DUP2 MSTORE PUSH1 0x20 ADD PUSH1 0x0 KECCAK256 SLOAD DUP2 SLOAD DUP2 LT PUSH2 0x1B78 JUMPI PUSH2 0x1B77 PUSH2 0x7343 JUMP JUMPDEST JUMPDEST SWAP1 PUSH1 0x0 MSTORE PUSH1 0x20 PUSH1 0x0 KECCAK256 ADD PUSH1 0x0 DUP3 DUP3 SLOAD PUSH2 0x1B91 SWAP2 SWAP1 PUSH2 0x6F7A JUMP JUMPDEST SWAP3 POP POP DUP2 SWAP1 SSTORE POP PUSH2 0x1B9E JUMP JUMPDEST JUMPDEST POP POP PUSH2 0x2020 JUMP JUMPDEST PUSH1 0x0 PUSH2 0x1BB2 DUP4 PUSH1 0x1 PUSH2 0x4906 JUMP JUMPDEST SWAP1 POP PUSH1 0x0 PUSH1 0x30 PUSH1 0x0 DUP5 PUSH20 0xFFFFFFFFFFFFFFFFFFFFFFFFFFFFFFFFFFFFFFFF AND PUSH20 0xFFFFFFFFFFFFFFFFFFFFFFFFFFFFFFFFFFFFFFFF AND DUP2 MSTORE PUSH1 0x20 ADD SWAP1 DUP2 MSTORE PUSH1 0x20 ADD PUSH1 0x0 KECCAK256 PUSH1 0x0 PUSH1 0x1 ISZERO ISZERO ISZERO ISZERO DUP2 MSTORE PUSH1 0x20 ADD SWAP1 DUP2 MSTORE PUSH1 0x20 ADD PUSH1 0x0 KECCAK256 PUSH1 0x2 ADD SLOAD PUSH1 0x1B SLOAD PUSH1 0x19 SLOAD PUSH1 0x30 PUSH1 0x0 DUP8 PUSH20 0xFFFFFFFFFFFFFFFFFFFFFFFFFFFFFFFFFFFFFFFF AND PUSH20 0xFFFFFFFFFFFFFFFFFFFFFFFFFFFFFFFFFFFFFFFF AND DUP2 MSTORE PUSH1 0x20 ADD SWAP1 DUP2 MSTORE PUSH1 0x20 ADD PUSH1 0x0 KECCAK256 PUSH1 0x0 DUP1 ISZERO ISZERO ISZERO ISZERO DUP2 MSTORE PUSH1 0x20 ADD SWAP1 DUP2 MSTORE PUSH1 0x20 ADD PUSH1 0x0 KECCAK256 PUSH1 0x1 ADD SLOAD DUP8 PUSH2 0x1C78 SWAP2 SWAP1 PUSH2 0x7172 JUMP JUMPDEST PUSH2 0x1C82 SWAP2 SWAP1 PUSH2 0x7172 JUMP JUMPDEST PUSH2 0x1C8C SWAP2 SWAP1 PUSH2 0x6FD0 JUMP JUMPDEST PUSH2 0x1C96 SWAP2 SWAP1 PUSH2 0x6FD0 JUMP JUMPDEST SWAP1 POP DUP4 PUSH1 0x30 PUSH1 0x0 DUP6 PUSH20 0xFFFFFFFFFFFFFFFFFFFFFFFFFFFFFFFFFFFFFFFF AND PUSH20 0xFFFFFFFFFFFFFFFFFFFFFFFFFFFFFFFFFFFFFFFF AND DUP2 MSTORE PUSH1 0x20 ADD SWAP1 DUP2 MSTORE PUSH1 0x20 ADD PUSH1 0x0 KECCAK256 PUSH1 0x0 PUSH1 0x1 ISZERO ISZERO ISZERO ISZERO DUP2 MSTORE PUSH1 0x20 ADD SWAP1 DUP2 MSTORE PUSH1 0x20 ADD PUSH1 0x0 KECCAK256 PUSH1 0x2 ADD PUSH1 0x0 DUP3 DUP3 SLOAD PUSH2 0x1D00 SWAP2 SWAP1 PUSH2 0x71CC JUMP JUMPDEST SWAP3 POP POP DUP2 SWAP1 SSTORE POP DUP1 PUSH1 0x19 PUSH1 0x0 DUP3 DUP3 SLOAD PUSH2 0x1D19 SWAP2 SWAP1 PUSH2 0x71CC JUMP JUMPDEST SWAP3 POP POP DUP2 SWAP1 SSTORE POP PUSH1 0x30 PUSH1 0x0 DUP5 PUSH20 0xFFFFFFFFFFFFFFFFFFFFFFFFFFFFFFFFFFFFFFFF AND PUSH20 0xFFFFFFFFFFFFFFFFFFFFFFFFFFFFFFFFFFFFFFFF AND DUP2 MSTORE PUSH1 0x20 ADD SWAP1 DUP2 MSTORE PUSH1 0x20 ADD PUSH1 0x0 KECCAK256 PUSH1 0x0 PUSH1 0x1 ISZERO ISZERO ISZERO ISZERO DUP2 MSTORE PUSH1 0x20 ADD SWAP1 DUP2 MSTORE PUSH1 0x20 ADD PUSH1 0x0 KECCAK256 PUSH1 0x2 ADD SLOAD DUP5 PUSH1 0x30 PUSH1 0x0 DUP7 PUSH20 0xFFFFFFFFFFFFFFFFFFFFFFFFFFFFFFFFFFFFFFFF AND PUSH20 0xFFFFFFFFFFFFFFFFFFFFFFFFFFFFFFFFFFFFFFFF AND DUP2 MSTORE PUSH1 0x20 ADD SWAP1 DUP2 MSTORE PUSH1 0x20 ADD PUSH1 0x0 KECCAK256 PUSH1 0x0 DUP1 ISZERO ISZERO ISZERO ISZERO DUP2 MSTORE PUSH1 0x20 ADD SWAP1 DUP2 MSTORE PUSH1 0x20 ADD PUSH1 0x0 KECCAK256 PUSH1 0x1 ADD SLOAD PUSH2 0x1DDC SWAP2 SWAP1 PUSH2 0x7172 JUMP JUMPDEST PUSH2 0x1DE6 SWAP2 SWAP1 PUSH2 0x6FD0 JUMP JUMPDEST PUSH1 0x1B PUSH1 0x0 DUP3 DUP3 SLOAD PUSH2 0x1DF7 SWAP2 SWAP1 PUSH2 0x71CC JUMP JUMPDEST SWAP3 POP POP DUP2 SWAP1 SSTORE POP PUSH1 0x30 PUSH1 0x0 DUP5 PUSH20 0xFFFFFFFFFFFFFFFFFFFFFFFFFFFFFFFFFFFFFFFF AND PUSH20 0xFFFFFFFFFFFFFFFFFFFFFFFFFFFFFFFFFFFFFFFF AND DUP2 MSTORE PUSH1 0x20 ADD SWAP1 DUP2 MSTORE PUSH1 0x20 ADD PUSH1 0x0 KECCAK256 PUSH1 0x0 PUSH1 0x1 ISZERO ISZERO ISZERO ISZERO DUP2 MSTORE PUSH1 0x20 ADD SWAP1 DUP2 MSTORE PUSH1 0x20 ADD PUSH1 0x0 KECCAK256 PUSH1 0x2 ADD SLOAD DUP5 PUSH1 0x30 PUSH1 0x0 DUP7 PUSH20 0xFFFFFFFFFFFFFFFFFFFFFFFFFFFFFFFFFFFFFFFF AND PUSH20 0xFFFFFFFFFFFFFFFFFFFFFFFFFFFFFFFFFFFFFFFF AND DUP2 MSTORE PUSH1 0x20 ADD SWAP1 DUP2 MSTORE PUSH1 0x20 ADD PUSH1 0x0 KECCAK256 PUSH1 0x0 DUP1 ISZERO ISZERO ISZERO ISZERO DUP2 MSTORE PUSH1 0x20 ADD SWAP1 DUP2 MSTORE PUSH1 0x20 ADD PUSH1 0x0 KECCAK256 PUSH1 0x1 ADD SLOAD PUSH2 0x1EBA SWAP2 SWAP1 PUSH2 0x7172 JUMP JUMPDEST PUSH2 0x1EC4 SWAP2 SWAP1 PUSH2 0x6FD0 JUMP JUMPDEST PUSH1 0x30 PUSH1 0x0 DUP6 PUSH20 0xFFFFFFFFFFFFFFFFFFFFFFFFFFFFFFFFFFFFFFFF AND PUSH20 0xFFFFFFFFFFFFFFFFFFFFFFFFFFFFFFFFFFFFFFFF AND DUP2 MSTORE PUSH1 0x20 ADD SWAP1 DUP2 MSTORE PUSH1 0x20 ADD PUSH1 0x0 KECCAK256 PUSH1 0x0 DUP1 ISZERO ISZERO ISZERO ISZERO DUP2 MSTORE PUSH1 0x20 ADD SWAP1 DUP2 MSTORE PUSH1 0x20 ADD PUSH1 0x0 KECCAK256 PUSH1 0x1 ADD PUSH1 0x0 DUP3 DUP3 SLOAD PUSH2 0x1F2A SWAP2 SWAP1 PUSH2 0x71CC JUMP JUMPDEST SWAP3 POP POP DUP2 SWAP1 SSTORE POP DUP1 DUP3 GT ISZERO PUSH2 0x201C JUMPI DUP1 DUP3 PUSH2 0x1F45 SWAP2 SWAP1 PUSH2 0x71CC JUMP JUMPDEST PUSH1 0x31 PUSH1 0x0 DUP6 PUSH20 0xFFFFFFFFFFFFFFFFFFFFFFFFFFFFFFFFFFFFFFFF AND PUSH20 0xFFFFFFFFFFFFFFFFFFFFFFFFFFFFFFFFFFFFFFFF AND DUP2 MSTORE PUSH1 0x20 ADD SWAP1 DUP2 MSTORE PUSH1 0x20 ADD PUSH1 0x0 KECCAK256 PUSH1 0x32 PUSH1 0x0 PUSH1 0x28 PUSH1 0x0 SWAP1 SLOAD SWAP1 PUSH2 0x100 EXP SWAP1 DIV PUSH20 0xFFFFFFFFFFFFFFFFFFFFFFFFFFFFFFFFFFFFFFFF AND PUSH20 0xFFFFFFFFFFFFFFFFFFFFFFFFFFFFFFFFFFFFFFFF AND PUSH20 0xFFFFFFFFFFFFFFFFFFFFFFFFFFFFFFFFFFFFFFFF AND DUP2 MSTORE PUSH1 0x20 ADD SWAP1 DUP2 MSTORE PUSH1 0x20 ADD PUSH1 0x0 KECCAK256 SLOAD DUP2 SLOAD DUP2 LT PUSH2 0x1FF7 JUMPI PUSH2 0x1FF6 PUSH2 0x7343 JUMP JUMPDEST JUMPDEST SWAP1 PUSH1 0x0 MSTORE PUSH1 0x20 PUSH1 0x0 KECCAK256 ADD PUSH1 0x0 DUP3 DUP3 SLOAD PUSH2 0x2010 SWAP2 SWAP1 PUSH2 0x6F7A JUMP JUMPDEST SWAP3 POP POP DUP2 SWAP1 SSTORE POP PUSH2 0x201D JUMP JUMPDEST JUMPDEST POP POP JUMPDEST PUSH1 0x1 PUSH1 0x2E DUP2 SWAP1 SSTORE POP POP POP POP JUMP JUMPDEST PUSH1 0x0 PUSH8 0xDE0B6B3A7640000 PUSH2 0x2063 PUSH1 0x28 PUSH1 0x0 SWAP1 SLOAD SWAP1 PUSH2 0x100 EXP SWAP1 DIV PUSH20 0xFFFFFFFFFFFFFFFFFFFFFFFFFFFFFFFFFFFFFFFF AND PUSH2 0x39DA JUMP JUMPDEST PUSH1 0x1B SLOAD PUSH1 0x19 SLOAD PUSH1 0x30 PUSH1 0x0 DUP8 PUSH20 0xFFFFFFFFFFFFFFFFFFFFFFFFFFFFFFFFFFFFFFFF AND PUSH20 0xFFFFFFFFFFFFFFFFFFFFFFFFFFFFFFFFFFFFFFFF AND DUP2 MSTORE PUSH1 0x20 ADD SWAP1 DUP2 MSTORE PUSH1 0x20 ADD PUSH1 0x0 KECCAK256 PUSH1 0x0 DUP1 ISZERO ISZERO ISZERO ISZERO DUP2 MSTORE PUSH1 0x20 ADD SWAP1 DUP2 MSTORE PUSH1 0x20 ADD PUSH1 0x0 KECCAK256 PUSH1 0x1 ADD SLOAD PUSH2 0x20CB SWAP2 SWAP1 PUSH2 0x7172 JUMP JUMPDEST PUSH2 0x20D5 SWAP2 SWAP1 PUSH2 0x6FD0 JUMP JUMPDEST PUSH2 0x20DF SWAP2 SWAP1 PUSH2 0x7172 JUMP JUMPDEST PUSH2 0x20E9 SWAP2 SWAP1 PUSH2 0x6FD0 JUMP JUMPDEST PUSH8 0xDE0B6B3A7640000 PUSH2 0x211D PUSH1 0x29 PUSH1 0x0 SWAP1 SLOAD SWAP1 PUSH2 0x100 EXP SWAP1 DIV PUSH20 0xFFFFFFFFFFFFFFFFFFFFFFFFFFFFFFFFFFFFFFFF AND PUSH2 0x39DA JUMP JUMPDEST PUSH1 0x1C SLOAD PUSH1 0x1A SLOAD PUSH1 0x30 PUSH1 0x0 DUP9 PUSH20 0xFFFFFFFFFFFFFFFFFFFFFFFFFFFFFFFFFFFFFFFF AND PUSH20 0xFFFFFFFFFFFFFFFFFFFFFFFFFFFFFFFFFFFFFFFF AND DUP2 MSTORE PUSH1 0x20 ADD SWAP1 DUP2 MSTORE PUSH1 0x20 ADD PUSH1 0x0 KECCAK256 PUSH1 0x0 PUSH1 0x1 ISZERO ISZERO ISZERO ISZERO DUP2 MSTORE PUSH1 0x20 ADD SWAP1 DUP2 MSTORE PUSH1 0x20 ADD PUSH1 0x0 KECCAK256 PUSH1 0x1 ADD SLOAD PUSH2 0x2186 SWAP2 SWAP1 PUSH2 0x7172 JUMP JUMPDEST PUSH2 0x2190 SWAP2 SWAP1 PUSH2 0x6FD0 JUMP JUMPDEST PUSH2 0x219A SWAP2 SWAP1 PUSH2 0x7172 JUMP JUMPDEST PUSH2 0x21A4 SWAP2 SWAP1 PUSH2 0x6FD0 JUMP JUMPDEST PUSH2 0x21AE SWAP2 SWAP1 PUSH2 0x6F7A JUMP JUMPDEST SWAP1 POP SWAP2 SWAP1 POP JUMP JUMPDEST PUSH1 0x14 SLOAD DUP2 JUMP JUMPDEST PUSH1 0x1F SLOAD DUP2 JUMP JUMPDEST PUSH1 0x0 PUSH1 0x1 PUSH1 0x2E SLOAD EQ PUSH2 0x2208 JUMPI PUSH1 0x40 MLOAD PUSH32 0x8C379A000000000000000000000000000000000000000000000000000000000 DUP2 MSTORE PUSH1 0x4 ADD PUSH2 0x21FF SWAP1 PUSH2 0x6E4E JUMP JUMPDEST PUSH1 0x40 MLOAD DUP1 SWAP2 SUB SWAP1 REVERT JUMPDEST PUSH1 0x0 PUSH1 0x2E DUP2 SWAP1 SSTORE POP PUSH1 0x14 SLOAD DUP5 PUSH1 0x14 SLOAD PUSH2 0x2221 SWAP2 SWAP1 PUSH2 0x6F7A JUMP JUMPDEST PUSH1 0xB SLOAD PUSH2 0x222E SWAP2 SWAP1 PUSH2 0x7172 JUMP JUMPDEST PUSH2 0x2238 SWAP2 SWAP1 PUSH2 0x6FD0 JUMP JUMPDEST PUSH1 0xB DUP2 SWAP1 SSTORE POP PUSH1 0x13 SLOAD DUP4 PUSH1 0x13 SLOAD PUSH2 0x224F SWAP2 SWAP1 PUSH2 0x6F7A JUMP JUMPDEST PUSH1 0xC SLOAD PUSH2 0x225C SWAP2 SWAP1 PUSH2 0x7172 JUMP JUMPDEST PUSH2 0x2266 SWAP2 SWAP1 PUSH2 0x6FD0 JUMP JUMPDEST PUSH1 0xC DUP2 SWAP1 SSTORE POP PUSH1 0x14 SLOAD DUP5 PUSH1 0x2B SLOAD PUSH2 0x227D SWAP2 SWAP1 PUSH2 0x7172 JUMP JUMPDEST PUSH2 0x2287 SWAP2 SWAP1 PUSH2 0x6FD0 JUMP JUMPDEST SWAP1 POP DUP1 PUSH1 0x2B SLOAD PUSH2 0x2297 SWAP2 SWAP1 PUSH2 0x6F7A JUMP JUMPDEST PUSH1 0x2B DUP2 SWAP1 SSTORE POP DUP4 PUSH1 0x14 SLOAD PUSH2 0x22AB SWAP2 SWAP1 PUSH2 0x6F7A JUMP JUMPDEST PUSH1 0x14 DUP2 SWAP1 SSTORE POP DUP3 PUSH1 0x13 SLOAD PUSH2 0x22BF SWAP2 SWAP1 PUSH2 0x6F7A JUMP JUMPDEST PUSH1 0x13 DUP2 SWAP1 SSTORE POP PUSH2 0x22CF DUP3 DUP3 PUSH2 0x4DB9 JUMP JUMPDEST PUSH2 0x22D7 PUSH2 0x4ED3 JUMP JUMPDEST PUSH1 0x1 PUSH1 0x2E DUP2 SWAP1 SSTORE POP SWAP4 SWAP3 POP POP POP JUMP JUMPDEST PUSH1 0x16 SLOAD DUP2 JUMP JUMPDEST PUSH1 0x0 DUP1 PUSH1 0x1 PUSH1 0x2E SLOAD EQ PUSH2 0x2334 JUMPI PUSH1 0x40 MLOAD PUSH32 0x8C379A000000000000000000000000000000000000000000000000000000000 DUP2 MSTORE PUSH1 0x4 ADD PUSH2 0x232B SWAP1 PUSH2 0x6E4E JUMP JUMPDEST PUSH1 0x40 MLOAD DUP1 SWAP2 SUB SWAP1 REVERT JUMPDEST PUSH1 0x0 PUSH1 0x2E DUP2 SWAP1 SSTORE POP PUSH1 0x2B SLOAD PUSH1 0x14 SLOAD DUP6 PUSH2 0x234D SWAP2 SWAP1 PUSH2 0x7172 JUMP JUMPDEST PUSH2 0x2357 SWAP2 SWAP1 PUSH2 0x6FD0 JUMP JUMPDEST SWAP2 POP PUSH1 0x2B SLOAD PUSH1 0x13 SLOAD DUP6 PUSH2 0x236A SWAP2 SWAP1 PUSH2 0x7172 JUMP JUMPDEST PUSH2 0x2374 SWAP2 SWAP1 PUSH2 0x6FD0 JUMP JUMPDEST SWAP1 POP PUSH1 0x14 SLOAD DUP3 PUSH1 0x14 SLOAD PUSH2 0x2387 SWAP2 SWAP1 PUSH2 0x71CC JUMP JUMPDEST PUSH1 0xB SLOAD PUSH2 0x2394 SWAP2 SWAP1 PUSH2 0x7172 JUMP JUMPDEST PUSH2 0x239E SWAP2 SWAP1 PUSH2 0x6FD0 JUMP JUMPDEST PUSH1 0xB DUP2 SWAP1 SSTORE POP PUSH1 0x13 SLOAD DUP2 PUSH1 0x13 SLOAD PUSH2 0x23B5 SWAP2 SWAP1 PUSH2 0x71CC JUMP JUMPDEST PUSH1 0xC SLOAD PUSH2 0x23C2 SWAP2 SWAP1 PUSH2 0x7172 JUMP JUMPDEST PUSH2 0x23CC SWAP2 SWAP1 PUSH2 0x6FD0 JUMP JUMPDEST PUSH1 0xC DUP2 SWAP1 SSTORE POP DUP2 PUSH1 0x14 SLOAD PUSH2 0x23E0 SWAP2 SWAP1 PUSH2 0x71CC JUMP JUMPDEST PUSH1 0x14 DUP2 SWAP1 SSTORE POP DUP1 PUSH1 0x13 SLOAD PUSH2 0x23F4 SWAP2 SWAP1 PUSH2 0x71CC JUMP JUMPDEST PUSH1 0x13 DUP2 SWAP1 SSTORE POP DUP4 PUSH1 0x2B SLOAD PUSH2 0x2408 SWAP2 SWAP1 PUSH2 0x71CC JUMP JUMPDEST PUSH1 0x2B DUP2 SWAP1 SSTORE POP PUSH2 0x2418 ADDRESS DUP6 PUSH2 0x514D JUMP JUMPDEST PUSH2 0x2445 PUSH1 0x28 PUSH1 0x0 SWAP1 SLOAD SWAP1 PUSH2 0x100 EXP SWAP1 DIV PUSH20 0xFFFFFFFFFFFFFFFFFFFFFFFFFFFFFFFFFFFFFFFF AND DUP5 DUP5 PUSH2 0x5267 JUMP JUMPDEST PUSH2 0x2472 PUSH1 0x29 PUSH1 0x0 SWAP1 SLOAD SWAP1 PUSH2 0x100 EXP SWAP1 DIV PUSH20 0xFFFFFFFFFFFFFFFFFFFFFFFFFFFFFFFFFFFFFFFF AND DUP5 DUP4 PUSH2 0x5267 JUMP JUMPDEST PUSH2 0x247A PUSH2 0x4ED3 JUMP JUMPDEST PUSH1 0x1 PUSH1 0x2E DUP2 SWAP1 SSTORE POP SWAP3 POP SWAP3 SWAP1 POP JUMP JUMPDEST PUSH1 0x23 SLOAD DUP2 JUMP JUMPDEST PUSH1 0x32 PUSH1 0x20 MSTORE DUP1 PUSH1 0x0 MSTORE PUSH1 0x40 PUSH1 0x0 KECCAK256 PUSH1 0x0 SWAP2 POP SWAP1 POP SLOAD DUP2 JUMP JUMPDEST PUSH1 0x1B SLOAD DUP2 JUMP JUMPDEST PUSH1 0x1 PUSH1 0x20 MSTORE DUP1 PUSH1 0x0 MSTORE PUSH1 0x40 PUSH1 0x0 KECCAK256 PUSH1 0x0 SWAP2 POP SWAP1 POP SLOAD DUP2 JUMP JUMPDEST PUSH1 0x12 SLOAD DUP2 JUMP JUMPDEST PUSH1 0x30 PUSH1 0x20 MSTORE DUP2 PUSH1 0x0 MSTORE PUSH1 0x40 PUSH1 0x0 KECCAK256 PUSH1 0x20 MSTORE DUP1 PUSH1 0x0 MSTORE PUSH1 0x40 PUSH1 0x0 KECCAK256 PUSH1 0x0 SWAP2 POP SWAP2 POP POP DUP1 PUSH1 0x0 ADD PUSH1 0x0 SWAP1 SLOAD SWAP1 PUSH2 0x100 EXP SWAP1 DIV PUSH20 0xFFFFFFFFFFFFFFFFFFFFFFFFFFFFFFFFFFFFFFFF AND SWAP1 DUP1 PUSH1 0x0 ADD PUSH1 0x14 SWAP1 SLOAD SWAP1 PUSH2 0x100 EXP SWAP1 DIV PUSH1 0xFF AND SWAP1 DUP1 PUSH1 0x1 ADD SLOAD SWAP1 DUP1 PUSH1 0x2 ADD SLOAD SWAP1 POP DUP5 JUMP JUMPDEST PUSH1 0x4 PUSH1 0x20 MSTORE DUP1 PUSH1 0x0 MSTORE PUSH1 0x40 PUSH1 0x0 KECCAK256 PUSH1 0x0 SWAP2 POP SWAP1 POP SLOAD DUP2 JUMP JUMPDEST PUSH1 0x22 SLOAD DUP2 JUMP JUMPDEST PUSH1 0xA SLOAD DUP2 JUMP JUMPDEST PUSH1 0x6 SLOAD DUP2 JUMP JUMPDEST PUSH1 0xB SLOAD DUP2 JUMP JUMPDEST PUSH1 0x2C SLOAD DUP2 JUMP JUMPDEST PUSH1 0x9 SLOAD DUP2 JUMP JUMPDEST PUSH1 0x1 PUSH1 0x2E SLOAD EQ PUSH2 0x25B6 JUMPI PUSH1 0x40 MLOAD PUSH32 0x8C379A000000000000000000000000000000000000000000000000000000000 DUP2 MSTORE PUSH1 0x4 ADD PUSH2 0x25AD SWAP1 PUSH2 0x6E4E JUMP JUMPDEST PUSH1 0x40 MLOAD DUP1 SWAP2 SUB SWAP1 REVERT JUMPDEST PUSH1 0x0 PUSH1 0x2E DUP2 SWAP1 SSTORE POP PUSH1 0x0 DUP4 DUP6 PUSH2 0x25CC SWAP2 SWAP1 PUSH2 0x7172 JUMP JUMPDEST EQ DUP1 ISZERO PUSH2 0x25E4 JUMPI POP PUSH1 0x0 DUP4 DUP6 PUSH2 0x25E2 SWAP2 SWAP1 PUSH2 0x6F7A JUMP JUMPDEST GT JUMPDEST PUSH2 0x25ED JUMPI PUSH1 0x0 DUP1 REVERT JUMPDEST PUSH2 0x25F5 PUSH2 0x42A6 JUMP JUMPDEST PUSH2 0x268F PUSH2 0x2601 DUP3 PUSH2 0x31BA JUMP JUMPDEST PUSH2 0x262C PUSH1 0x28 PUSH1 0x0 SWAP1 SLOAD SWAP1 PUSH2 0x100 EXP SWAP1 DIV PUSH20 0xFFFFFFFFFFFFFFFFFFFFFFFFFFFFFFFFFFFFFFFF AND PUSH2 0x39DA JUMP JUMPDEST DUP7 PUSH2 0x2637 SWAP2 SWAP1 PUSH2 0x7172 JUMP JUMPDEST PUSH2 0x2641 SWAP2 SWAP1 PUSH2 0x6F7A JUMP JUMPDEST PUSH2 0x264A DUP4 PUSH2 0x31BA JUMP JUMPDEST PUSH2 0x2675 PUSH1 0x29 PUSH1 0x0 SWAP1 SLOAD SWAP1 PUSH2 0x100 EXP SWAP1 DIV PUSH20 0xFFFFFFFFFFFFFFFFFFFFFFFFFFFFFFFFFFFFFFFF AND PUSH2 0x39DA JUMP JUMPDEST DUP7 PUSH2 0x2680 SWAP2 SWAP1 PUSH2 0x7172 JUMP JUMPDEST PUSH2 0x268A SWAP2 SWAP1 PUSH2 0x6F7A JUMP JUMPDEST PUSH2 0x53F1 JUMP JUMPDEST PUSH1 0x2A SLOAD PUSH2 0x269B DUP4 PUSH2 0x202D JUMP JUMPDEST PUSH2 0x26A4 DUP5 PUSH2 0x31BA JUMP JUMPDEST PUSH2 0x26AD DUP6 PUSH2 0x1266 JUMP JUMPDEST PUSH2 0x26B7 SWAP2 SWAP1 PUSH2 0x6F7A JUMP JUMPDEST PUSH2 0x26C1 SWAP2 SWAP1 PUSH2 0x71CC JUMP JUMPDEST PUSH2 0x26CB SWAP2 SWAP1 PUSH2 0x6FD0 JUMP JUMPDEST GT PUSH2 0x270B JUMPI PUSH1 0x40 MLOAD PUSH32 0x8C379A000000000000000000000000000000000000000000000000000000000 DUP2 MSTORE PUSH1 0x4 ADD PUSH2 0x2702 SWAP1 PUSH2 0x6DEE JUMP JUMPDEST PUSH1 0x40 MLOAD DUP1 SWAP2 SUB SWAP1 REVERT JUMPDEST PUSH1 0x0 DUP1 PUSH1 0x1 ISZERO ISZERO DUP5 ISZERO ISZERO EQ ISZERO PUSH2 0x288F JUMPI PUSH1 0x0 DUP7 GT ISZERO PUSH2 0x2739 JUMPI PUSH2 0x272F DUP7 PUSH1 0x1 PUSH2 0x4453 JUMP JUMPDEST SWAP2 POP DUP6 SWAP1 POP PUSH2 0x274C JUMP JUMPDEST DUP5 SWAP2 POP PUSH2 0x2749 DUP6 PUSH1 0x0 PUSH1 0x1 PUSH2 0x540A JUMP JUMPDEST SWAP1 POP JUMPDEST PUSH1 0x19 SLOAD PUSH1 0x1B SLOAD DUP3 PUSH2 0x275D SWAP2 SWAP1 PUSH2 0x7172 JUMP JUMPDEST PUSH2 0x2767 SWAP2 SWAP1 PUSH2 0x6FD0 JUMP JUMPDEST PUSH1 0x30 PUSH1 0x0 DUP6 PUSH20 0xFFFFFFFFFFFFFFFFFFFFFFFFFFFFFFFFFFFFFFFF AND PUSH20 0xFFFFFFFFFFFFFFFFFFFFFFFFFFFFFFFFFFFFFFFF AND DUP2 MSTORE PUSH1 0x20 ADD SWAP1 DUP2 MSTORE PUSH1 0x20 ADD PUSH1 0x0 KECCAK256 PUSH1 0x0 DUP1 ISZERO ISZERO ISZERO ISZERO DUP2 MSTORE PUSH1 0x20 ADD SWAP1 DUP2 MSTORE PUSH1 0x20 ADD PUSH1 0x0 KECCAK256 PUSH1 0x1 ADD PUSH1 0x0 DUP3 DUP3 SLOAD PUSH2 0x27CD SWAP2 SWAP1 PUSH2 0x6F7A JUMP JUMPDEST SWAP3 POP POP DUP2 SWAP1 SSTORE POP DUP2 PUSH1 0x30 PUSH1 0x0 DUP6 PUSH20 0xFFFFFFFFFFFFFFFFFFFFFFFFFFFFFFFFFFFFFFFF AND PUSH20 0xFFFFFFFFFFFFFFFFFFFFFFFFFFFFFFFFFFFFFFFF AND DUP2 MSTORE PUSH1 0x20 ADD SWAP1 DUP2 MSTORE PUSH1 0x20 ADD PUSH1 0x0 KECCAK256 PUSH1 0x0 PUSH1 0x1 ISZERO ISZERO ISZERO ISZERO DUP2 MSTORE PUSH1 0x20 ADD SWAP1 DUP2 MSTORE PUSH1 0x20 ADD PUSH1 0x0 KECCAK256 PUSH1 0x2 ADD PUSH1 0x0 DUP3 DUP3 SLOAD PUSH2 0x283C SWAP2 SWAP1 PUSH2 0x6F7A JUMP JUMPDEST SWAP3 POP POP DUP2 SWAP1 SSTORE POP PUSH1 0x1B SLOAD PUSH1 0x19 SLOAD PUSH1 0x1B SLOAD DUP4 PUSH2 0x2857 SWAP2 SWAP1 PUSH2 0x7172 JUMP JUMPDEST PUSH2 0x2861 SWAP2 SWAP1 PUSH2 0x6FD0 JUMP JUMPDEST PUSH2 0x286B SWAP2 SWAP1 PUSH2 0x6F7A JUMP JUMPDEST PUSH1 0x1B DUP2 SWAP1 SSTORE POP DUP1 PUSH1 0x19 PUSH1 0x0 DUP3 DUP3 SLOAD PUSH2 0x2883 SWAP2 SWAP1 PUSH2 0x6F7A JUMP JUMPDEST SWAP3 POP POP DUP2 SWAP1 SSTORE POP PUSH2 0x29FF JUMP JUMPDEST PUSH1 0x0 DUP7 GT ISZERO PUSH2 0x28AF JUMPI DUP6 SWAP2 POP PUSH2 0x28A8 DUP7 PUSH1 0x0 PUSH1 0x1 PUSH2 0x58A9 JUMP JUMPDEST SWAP1 POP PUSH2 0x28C0 JUMP JUMPDEST PUSH2 0x28BA DUP6 PUSH1 0x1 PUSH2 0x4906 JUMP JUMPDEST SWAP2 POP DUP5 SWAP1 POP JUMPDEST PUSH1 0x1A SLOAD PUSH1 0x1C SLOAD DUP3 PUSH2 0x28D1 SWAP2 SWAP1 PUSH2 0x7172 JUMP JUMPDEST PUSH2 0x28DB SWAP2 SWAP1 PUSH2 0x6FD0 JUMP JUMPDEST PUSH1 0x30 PUSH1 0x0 DUP6 PUSH20 0xFFFFFFFFFFFFFFFFFFFFFFFFFFFFFFFFFFFFFFFF AND PUSH20 0xFFFFFFFFFFFFFFFFFFFFFFFFFFFFFFFFFFFFFFFF AND DUP2 MSTORE PUSH1 0x20 ADD SWAP1 DUP2 MSTORE PUSH1 0x20 ADD PUSH1 0x0 KECCAK256 PUSH1 0x0 PUSH1 0x1 ISZERO ISZERO ISZERO ISZERO DUP2 MSTORE PUSH1 0x20 ADD SWAP1 DUP2 MSTORE PUSH1 0x20 ADD PUSH1 0x0 KECCAK256 PUSH1 0x1 ADD PUSH1 0x0 DUP3 DUP3 SLOAD PUSH2 0x2942 SWAP2 SWAP1 PUSH2 0x6F7A JUMP JUMPDEST SWAP3 POP POP DUP2 SWAP1 SSTORE POP DUP2 PUSH1 0x30 PUSH1 0x0 DUP6 PUSH20 0xFFFFFFFFFFFFFFFFFFFFFFFFFFFFFFFFFFFFFFFF AND PUSH20 0xFFFFFFFFFFFFFFFFFFFFFFFFFFFFFFFFFFFFFFFF AND DUP2 MSTORE PUSH1 0x20 ADD SWAP1 DUP2 MSTORE PUSH1 0x20 ADD PUSH1 0x0 KECCAK256 PUSH1 0x0 DUP1 ISZERO ISZERO ISZERO ISZERO DUP2 MSTORE PUSH1 0x20 ADD SWAP1 DUP2 MSTORE PUSH1 0x20 ADD PUSH1 0x0 KECCAK256 PUSH1 0x2 ADD PUSH1 0x0 DUP3 DUP3 SLOAD PUSH2 0x29B0 SWAP2 SWAP1 PUSH2 0x6F7A JUMP JUMPDEST SWAP3 POP POP DUP2 SWAP1 SSTORE POP PUSH1 0x1C SLOAD PUSH1 0x1A SLOAD PUSH1 0x1C SLOAD DUP4 PUSH2 0x29CB SWAP2 SWAP1 PUSH2 0x7172 JUMP JUMPDEST PUSH2 0x29D5 SWAP2 SWAP1 PUSH2 0x6FD0 JUMP JUMPDEST PUSH2 0x29DF SWAP2 SWAP1 PUSH2 0x6F7A JUMP JUMPDEST PUSH1 0x1C DUP2 SWAP1 SSTORE POP DUP1 PUSH1 0x1A PUSH1 0x0 DUP3 DUP3 SLOAD PUSH2 0x29F7 SWAP2 SWAP1 PUSH2 0x6F7A JUMP JUMPDEST SWAP3 POP POP DUP2 SWAP1 SSTORE POP JUMPDEST POP POP PUSH1 0x1 PUSH1 0x2E DUP2 SWAP1 SSTORE POP POP POP POP POP JUMP JUMPDEST PUSH1 0x40 MLOAD DUP1 PUSH1 0x40 ADD PUSH1 0x40 MSTORE DUP1 PUSH1 0x6 DUP2 MSTORE PUSH1 0x20 ADD PUSH32 0x554E492D56320000000000000000000000000000000000000000000000000000 DUP2 MSTORE POP DUP2 JUMP JUMPDEST PUSH1 0x2A SLOAD DUP2 JUMP JUMPDEST PUSH1 0x1 PUSH1 0x2E SLOAD EQ PUSH2 0x2A93 JUMPI PUSH1 0x40 MLOAD PUSH32 0x8C379A000000000000000000000000000000000000000000000000000000000 DUP2 MSTORE PUSH1 0x4 ADD PUSH2 0x2A8A SWAP1 PUSH2 0x6E4E JUMP JUMPDEST PUSH1 0x40 MLOAD DUP1 SWAP2 SUB SWAP1 REVERT JUMPDEST PUSH1 0x0 PUSH1 0x2E DUP2 SWAP1 SSTORE POP PUSH1 0x0 DUP1 PUSH1 0x0 PUSH1 0x28 PUSH1 0x0 SWAP1 SLOAD SWAP1 PUSH2 0x100 EXP SWAP1 DIV PUSH20 0xFFFFFFFFFFFFFFFFFFFFFFFFFFFFFFFFFFFFFFFF AND SWAP1 POP PUSH1 0x0 PUSH1 0x29 PUSH1 0x0 SWAP1 SLOAD SWAP1 PUSH2 0x100 EXP SWAP1 DIV PUSH20 0xFFFFFFFFFFFFFFFFFFFFFFFFFFFFFFFFFFFFFFFF AND SWAP1 POP PUSH1 0x0 DUP7 EQ DUP1 PUSH2 0x2AFB JUMPI POP PUSH1 0x0 DUP6 EQ JUMPDEST PUSH2 0x2B3A JUMPI PUSH1 0x40 MLOAD PUSH32 0x8C379A000000000000000000000000000000000000000000000000000000000 DUP2 MSTORE PUSH1 0x4 ADD PUSH2 0x2B31 SWAP1 PUSH2 0x6D4E JUMP JUMPDEST PUSH1 0x40 MLOAD DUP1 SWAP2 SUB SWAP1 REVERT JUMPDEST DUP2 PUSH20 0xFFFFFFFFFFFFFFFFFFFFFFFFFFFFFFFFFFFFFFFF AND DUP8 PUSH20 0xFFFFFFFFFFFFFFFFFFFFFFFFFFFFFFFFFFFFFFFF AND EQ ISZERO DUP1 ISZERO PUSH2 0x2BA2 JUMPI POP DUP1 PUSH20 0xFFFFFFFFFFFFFFFFFFFFFFFFFFFFFFFFFFFFFFFF AND DUP8 PUSH20 0xFFFFFFFFFFFFFFFFFFFFFFFFFFFFFFFFFFFFFFFF AND EQ ISZERO JUMPDEST PUSH2 0x2BE1 JUMPI PUSH1 0x40 MLOAD PUSH32 0x8C379A000000000000000000000000000000000000000000000000000000000 DUP2 MSTORE PUSH1 0x4 ADD PUSH2 0x2BD8 SWAP1 PUSH2 0x6E2E JUMP JUMPDEST PUSH1 0x40 MLOAD DUP1 SWAP2 SUB SWAP1 REVERT JUMPDEST DUP2 PUSH20 0xFFFFFFFFFFFFFFFFFFFFFFFFFFFFFFFFFFFFFFFF AND PUSH4 0x70A08231 ADDRESS PUSH1 0x40 MLOAD DUP3 PUSH4 0xFFFFFFFF AND PUSH1 0xE0 SHL DUP2 MSTORE PUSH1 0x4 ADD PUSH2 0x2C1A SWAP2 SWAP1 PUSH2 0x6B45 JUMP JUMPDEST PUSH1 0x20 PUSH1 0x40 MLOAD DUP1 DUP4 SUB DUP2 DUP7 DUP1 EXTCODESIZE ISZERO DUP1 ISZERO PUSH2 0x2C32 JUMPI PUSH1 0x0 DUP1 REVERT JUMPDEST POP GAS STATICCALL ISZERO DUP1 ISZERO PUSH2 0x2C46 JUMPI RETURNDATASIZE PUSH1 0x0 DUP1 RETURNDATACOPY RETURNDATASIZE PUSH1 0x0 REVERT JUMPDEST POP POP POP POP PUSH1 0x40 MLOAD RETURNDATASIZE PUSH1 0x1F NOT PUSH1 0x1F DUP3 ADD AND DUP3 ADD DUP1 PUSH1 0x40 MSTORE POP DUP2 ADD SWAP1 PUSH2 0x2C6A SWAP2 SWAP1 PUSH2 0x6665 JUMP JUMPDEST SWAP4 POP DUP1 PUSH20 0xFFFFFFFFFFFFFFFFFFFFFFFFFFFFFFFFFFFFFFFF AND PUSH4 0x70A08231 ADDRESS PUSH1 0x40 MLOAD DUP3 PUSH4 0xFFFFFFFF AND PUSH1 0xE0 SHL DUP2 MSTORE PUSH1 0x4 ADD PUSH2 0x2CA5 SWAP2 SWAP1 PUSH2 0x6B45 JUMP JUMPDEST PUSH1 0x20 PUSH1 0x40 MLOAD DUP1 DUP4 SUB DUP2 DUP7 DUP1 EXTCODESIZE ISZERO DUP1 ISZERO PUSH2 0x2CBD JUMPI PUSH1 0x0 DUP1 REVERT JUMPDEST POP GAS STATICCALL ISZERO DUP1 ISZERO PUSH2 0x2CD1 JUMPI RETURNDATASIZE PUSH1 0x0 DUP1 RETURNDATACOPY RETURNDATASIZE PUSH1 0x0 REVERT JUMPDEST POP POP POP POP PUSH1 0x40 MLOAD RETURNDATASIZE PUSH1 0x1F NOT PUSH1 0x1F DUP3 ADD AND DUP3 ADD DUP1 PUSH1 0x40 MSTORE POP DUP2 ADD SWAP1 PUSH2 0x2CF5 SWAP2 SWAP1 PUSH2 0x6665 JUMP JUMPDEST SWAP3 POP PUSH1 0x0 PUSH1 0x14 SLOAD DUP6 PUSH2 0x2D07 SWAP2 SWAP1 PUSH2 0x71CC JUMP JUMPDEST SWAP1 POP PUSH1 0x0 PUSH1 0x13 SLOAD DUP6 PUSH2 0x2D19 SWAP2 SWAP1 PUSH2 0x71CC JUMP JUMPDEST SWAP1 POP PUSH1 0x0 DUP3 GT DUP1 PUSH2 0x2D2A JUMPI POP PUSH1 0x0 DUP2 GT JUMPDEST PUSH2 0x2D69 JUMPI PUSH1 0x40 MLOAD PUSH32 0x8C379A000000000000000000000000000000000000000000000000000000000 DUP2 MSTORE PUSH1 0x4 ADD PUSH2 0x2D60 SWAP1 PUSH2 0x6D2E JUMP JUMPDEST PUSH1 0x40 MLOAD DUP1 SWAP2 SUB SWAP1 REVERT JUMPDEST PUSH1 0x0 DUP9 GT ISZERO PUSH2 0x2DA3 JUMPI PUSH2 0x2D93 DUP4 DUP11 PUSH2 0x2D83 DUP12 DUP6 PUSH1 0x0 PUSH2 0x58A9 JUMP JUMPDEST DUP5 PUSH2 0x2D8E SWAP2 SWAP1 PUSH2 0x71CC JUMP JUMPDEST PUSH2 0x5267 JUMP JUMPDEST PUSH2 0x2D9E DUP5 DUP11 DUP11 PUSH2 0x5267 JUMP JUMPDEST PUSH2 0x2E1D JUMP JUMPDEST PUSH1 0x0 DUP8 GT ISZERO PUSH2 0x2DDD JUMPI PUSH2 0x2DCD DUP5 DUP11 PUSH2 0x2DBD DUP11 DUP7 PUSH1 0x0 PUSH2 0x540A JUMP JUMPDEST DUP6 PUSH2 0x2DC8 SWAP2 SWAP1 PUSH2 0x71CC JUMP JUMPDEST PUSH2 0x5267 JUMP JUMPDEST PUSH2 0x2DD8 DUP4 DUP11 DUP10 PUSH2 0x5267 JUMP JUMPDEST PUSH2 0x2E1C JUMP JUMPDEST PUSH1 0x0 DUP3 GT ISZERO PUSH2 0x2DFC JUMPI PUSH2 0x2DFB DUP4 DUP11 PUSH2 0x2DF6 DUP6 PUSH1 0x0 PUSH2 0x4453 JUMP JUMPDEST PUSH2 0x5267 JUMP JUMPDEST JUMPDEST PUSH1 0x0 DUP2 GT ISZERO PUSH2 0x2E1B JUMPI PUSH2 0x2E1A DUP5 DUP11 PUSH2 0x2E15 DUP5 PUSH1 0x0 PUSH2 0x4906 JUMP JUMPDEST PUSH2 0x5267 JUMP JUMPDEST JUMPDEST JUMPDEST JUMPDEST POP POP POP POP POP POP PUSH1 0x1 PUSH1 0x2E DUP2 SWAP1 SSTORE POP POP POP POP JUMP JUMPDEST DUP3 PUSH1 0x31 PUSH1 0x0 DUP4 PUSH20 0xFFFFFFFFFFFFFFFFFFFFFFFFFFFFFFFFFFFFFFFF AND PUSH20 0xFFFFFFFFFFFFFFFFFFFFFFFFFFFFFFFFFFFFFFFF AND DUP2 MSTORE PUSH1 0x20 ADD SWAP1 DUP2 MSTORE PUSH1 0x20 ADD PUSH1 0x0 KECCAK256 PUSH1 0x32 PUSH1 0x0 DUP6 PUSH20 0xFFFFFFFFFFFFFFFFFFFFFFFFFFFFFFFFFFFFFFFF AND PUSH20 0xFFFFFFFFFFFFFFFFFFFFFFFFFFFFFFFFFFFFFFFF AND DUP2 MSTORE PUSH1 0x20 ADD SWAP1 DUP2 MSTORE PUSH1 0x20 ADD PUSH1 0x0 KECCAK256 SLOAD DUP2 SLOAD DUP2 LT PUSH2 0x2EC1 JUMPI PUSH2 0x2EC0 PUSH2 0x7343 JUMP JUMPDEST JUMPDEST SWAP1 PUSH1 0x0 MSTORE PUSH1 0x20 PUSH1 0x0 KECCAK256 ADD PUSH1 0x0 DUP3 DUP3 SLOAD PUSH2 0x2EDA SWAP2 SWAP1 PUSH2 0x6F7A JUMP JUMPDEST SWAP3 POP POP DUP2 SWAP1 SSTORE POP POP POP POP JUMP JUMPDEST PUSH1 0x10 SLOAD DUP2 JUMP JUMPDEST PUSH1 0x0 PUSH2 0x2EF9 CALLER DUP5 DUP5 PUSH2 0x4112 JUMP JUMPDEST PUSH1 0x1 SWAP1 POP SWAP3 SWAP2 POP POP JUMP JUMPDEST PUSH1 0x26 SLOAD DUP2 JUMP JUMPDEST PUSH1 0x60 PUSH1 0x0 PUSH1 0x2F DUP1 SLOAD SWAP1 POP SWAP1 POP PUSH1 0x0 JUMPDEST DUP2 DUP2 LT ISZERO PUSH2 0x2F99 JUMPI PUSH2 0x2F67 PUSH1 0x2F DUP3 DUP2 SLOAD DUP2 LT PUSH2 0x2F37 JUMPI PUSH2 0x2F36 PUSH2 0x7343 JUMP JUMPDEST JUMPDEST SWAP1 PUSH1 0x0 MSTORE PUSH1 0x20 PUSH1 0x0 KECCAK256 ADD PUSH1 0x0 SWAP1 SLOAD SWAP1 PUSH2 0x100 EXP SWAP1 DIV PUSH20 0xFFFFFFFFFFFFFFFFFFFFFFFFFFFFFFFFFFFFFFFF AND PUSH2 0x39DA JUMP JUMPDEST DUP4 DUP3 DUP2 MLOAD DUP2 LT PUSH2 0x2F7A JUMPI PUSH2 0x2F79 PUSH2 0x7343 JUMP JUMPDEST JUMPDEST PUSH1 0x20 MUL PUSH1 0x20 ADD ADD DUP2 DUP2 MSTORE POP POP DUP1 DUP1 PUSH2 0x2F91 SWAP1 PUSH2 0x7292 JUMP JUMPDEST SWAP2 POP POP PUSH2 0x2F18 JUMP JUMPDEST POP POP SWAP1 JUMP JUMPDEST PUSH1 0x29 PUSH1 0x0 SWAP1 SLOAD SWAP1 PUSH2 0x100 EXP SWAP1 DIV PUSH20 0xFFFFFFFFFFFFFFFFFFFFFFFFFFFFFFFFFFFFFFFF AND DUP2 JUMP JUMPDEST PUSH1 0x1 PUSH1 0x2E SLOAD EQ PUSH2 0x3009 JUMPI PUSH1 0x40 MLOAD PUSH32 0x8C379A000000000000000000000000000000000000000000000000000000000 DUP2 MSTORE PUSH1 0x4 ADD PUSH2 0x3000 SWAP1 PUSH2 0x6E4E JUMP JUMPDEST PUSH1 0x40 MLOAD DUP1 SWAP2 SUB SWAP1 REVERT JUMPDEST PUSH1 0x0 PUSH1 0x2E DUP2 SWAP1 SSTORE POP PUSH1 0x0 PUSH1 0x28 PUSH1 0x0 SWAP1 SLOAD SWAP1 PUSH2 0x100 EXP SWAP1 DIV PUSH20 0xFFFFFFFFFFFFFFFFFFFFFFFFFFFFFFFFFFFFFFFF AND SWAP1 POP PUSH1 0x0 PUSH1 0x29 PUSH1 0x0 SWAP1 SLOAD SWAP1 PUSH2 0x100 EXP SWAP1 DIV PUSH20 0xFFFFFFFFFFFFFFFFFFFFFFFFFFFFFFFFFFFFFFFF AND SWAP1 POP PUSH2 0x3106 DUP3 DUP5 PUSH2 0x3101 PUSH1 0x14 SLOAD DUP7 PUSH20 0xFFFFFFFFFFFFFFFFFFFFFFFFFFFFFFFFFFFFFFFF AND PUSH4 0x70A08231 ADDRESS PUSH1 0x40 MLOAD DUP3 PUSH4 0xFFFFFFFF AND PUSH1 0xE0 SHL DUP2 MSTORE PUSH1 0x4 ADD PUSH2 0x30A3 SWAP2 SWAP1 PUSH2 0x6B45 JUMP JUMPDEST PUSH1 0x20 PUSH1 0x40 MLOAD DUP1 DUP4 SUB DUP2 DUP7 DUP1 EXTCODESIZE ISZERO DUP1 ISZERO PUSH2 0x30BB JUMPI PUSH1 0x0 DUP1 REVERT JUMPDEST POP GAS STATICCALL ISZERO DUP1 ISZERO PUSH2 0x30CF JUMPI RETURNDATASIZE PUSH1 0x0 DUP1 RETURNDATACOPY RETURNDATASIZE PUSH1 0x0 REVERT JUMPDEST POP POP POP POP PUSH1 0x40 MLOAD RETURNDATASIZE PUSH1 0x1F NOT PUSH1 0x1F DUP3 ADD AND DUP3 ADD DUP1 PUSH1 0x40 MSTORE POP DUP2 ADD SWAP1 PUSH2 0x30F3 SWAP2 SWAP1 PUSH2 0x6665 JUMP JUMPDEST PUSH2 0x40B9 SWAP1 SWAP2 SWAP1 PUSH4 0xFFFFFFFF AND JUMP JUMPDEST PUSH2 0x5267 JUMP JUMPDEST PUSH2 0x31AD DUP2 DUP5 PUSH2 0x31A8 PUSH1 0x13 SLOAD DUP6 PUSH20 0xFFFFFFFFFFFFFFFFFFFFFFFFFFFFFFFFFFFFFFFF AND PUSH4 0x70A08231 ADDRESS PUSH1 0x40 MLOAD DUP3 PUSH4 0xFFFFFFFF AND PUSH1 0xE0 SHL DUP2 MSTORE PUSH1 0x4 ADD PUSH2 0x314A SWAP2 SWAP1 PUSH2 0x6B45 JUMP JUMPDEST PUSH1 0x20 PUSH1 0x40 MLOAD DUP1 DUP4 SUB DUP2 DUP7 DUP1 EXTCODESIZE ISZERO DUP1 ISZERO PUSH2 0x3162 JUMPI PUSH1 0x0 DUP1 REVERT JUMPDEST POP GAS STATICCALL ISZERO DUP1 ISZERO PUSH2 0x3176 JUMPI RETURNDATASIZE PUSH1 0x0 DUP1 RETURNDATACOPY RETURNDATASIZE PUSH1 0x0 REVERT JUMPDEST POP POP POP POP PUSH1 0x40 MLOAD RETURNDATASIZE PUSH1 0x1F NOT PUSH1 0x1F DUP3 ADD AND DUP3 ADD DUP1 PUSH1 0x40 MSTORE POP DUP2 ADD SWAP1 PUSH2 0x319A SWAP2 SWAP1 PUSH2 0x6665 JUMP JUMPDEST PUSH2 0x40B9 SWAP1 SWAP2 SWAP1 PUSH4 0xFFFFFFFF AND JUMP JUMPDEST PUSH2 0x5267 JUMP JUMPDEST POP POP PUSH1 0x1 PUSH1 0x2E DUP2 SWAP1 SSTORE POP POP JUMP JUMPDEST PUSH1 0x0 PUSH2 0x31E7 PUSH1 0x29 PUSH1 0x0 SWAP1 SLOAD SWAP1 PUSH2 0x100 EXP SWAP1 DIV PUSH20 0xFFFFFFFFFFFFFFFFFFFFFFFFFFFFFFFFFFFFFFFF AND PUSH2 0x39DA JUMP JUMPDEST PUSH1 0x30 PUSH1 0x0 DUP5 PUSH20 0xFFFFFFFFFFFFFFFFFFFFFFFFFFFFFFFFFFFFFFFF AND PUSH20 0xFFFFFFFFFFFFFFFFFFFFFFFFFFFFFFFFFFFFFFFF AND DUP2 MSTORE PUSH1 0x20 ADD SWAP1 DUP2 MSTORE PUSH1 0x20 ADD PUSH1 0x0 KECCAK256 PUSH1 0x0 PUSH1 0x1 ISZERO ISZERO ISZERO ISZERO DUP2 MSTORE PUSH1 0x20 ADD SWAP1 DUP2 MSTORE PUSH1 0x20 ADD PUSH1 0x0 KECCAK256 PUSH1 0x2 ADD SLOAD PUSH2 0x324A SWAP2 SWAP1 PUSH2 0x7172 JUMP JUMPDEST PUSH2 0x3275 PUSH1 0x28 PUSH1 0x0 SWAP1 SLOAD SWAP1 PUSH2 0x100 EXP SWAP1 DIV PUSH20 0xFFFFFFFFFFFFFFFFFFFFFFFFFFFFFFFFFFFFFFFF AND PUSH2 0x39DA JUMP JUMPDEST PUSH1 0x30 PUSH1 0x0 DUP6 PUSH20 0xFFFFFFFFFFFFFFFFFFFFFFFFFFFFFFFFFFFFFFFF AND PUSH20 0xFFFFFFFFFFFFFFFFFFFFFFFFFFFFFFFFFFFFFFFF AND DUP2 MSTORE PUSH1 0x20 ADD SWAP1 DUP2 MSTORE PUSH1 0x20 ADD PUSH1 0x0 KECCAK256 PUSH1 0x0 DUP1 ISZERO ISZERO ISZERO ISZERO DUP2 MSTORE PUSH1 0x20 ADD SWAP1 DUP2 MSTORE PUSH1 0x20 ADD PUSH1 0x0 KECCAK256 PUSH1 0x2 ADD SLOAD PUSH2 0x32D7 SWAP2 SWAP1 PUSH2 0x7172 JUMP JUMPDEST PUSH2 0x32E1 SWAP2 SWAP1 PUSH2 0x6F7A JUMP JUMPDEST SWAP1 POP SWAP2 SWAP1 POP JUMP JUMPDEST PUSH1 0x1 PUSH1 0x2E SLOAD EQ PUSH2 0x332D JUMPI PUSH1 0x40 MLOAD PUSH32 0x8C379A000000000000000000000000000000000000000000000000000000000 DUP2 MSTORE PUSH1 0x4 ADD PUSH2 0x3324 SWAP1 PUSH2 0x6E4E JUMP JUMPDEST PUSH1 0x40 MLOAD DUP1 SWAP2 SUB SWAP1 REVERT JUMPDEST PUSH1 0x0 PUSH1 0x2E DUP2 SWAP1 SSTORE POP PUSH2 0x333E DUP3 PUSH2 0x31BA JUMP JUMPDEST PUSH2 0x3347 DUP4 PUSH2 0x202D JUMP JUMPDEST GT DUP1 ISZERO PUSH2 0x3383 JUMPI POP PUSH2 0x3358 DUP3 PUSH2 0x1266 JUMP JUMPDEST PUSH1 0x2C SLOAD PUSH2 0x3365 SWAP2 SWAP1 PUSH2 0x7172 JUMP JUMPDEST PUSH2 0x336E DUP4 PUSH2 0x31BA JUMP JUMPDEST PUSH2 0x3377 DUP5 PUSH2 0x202D JUMP JUMPDEST PUSH2 0x3381 SWAP2 SWAP1 PUSH2 0x71CC JUMP JUMPDEST GT JUMPDEST PUSH2 0x33C2 JUMPI PUSH1 0x40 MLOAD PUSH32 0x8C379A000000000000000000000000000000000000000000000000000000000 DUP2 MSTORE PUSH1 0x4 ADD PUSH2 0x33B9 SWAP1 PUSH2 0x6D6E JUMP JUMPDEST PUSH1 0x40 MLOAD DUP1 SWAP2 SUB SWAP1 REVERT JUMPDEST PUSH1 0x0 PUSH1 0x2F DUP1 SLOAD SWAP1 POP SWAP1 POP PUSH1 0x0 JUMPDEST DUP2 DUP2 LT ISZERO PUSH2 0x349B JUMPI PUSH2 0x3488 PUSH1 0x2F DUP3 DUP2 SLOAD DUP2 LT PUSH2 0x33EE JUMPI PUSH2 0x33ED PUSH2 0x7343 JUMP JUMPDEST JUMPDEST SWAP1 PUSH1 0x0 MSTORE PUSH1 0x20 PUSH1 0x0 KECCAK256 ADD PUSH1 0x0 SWAP1 SLOAD SWAP1 PUSH2 0x100 EXP SWAP1 DIV PUSH20 0xFFFFFFFFFFFFFFFFFFFFFFFFFFFFFFFFFFFFFFFF AND DUP5 PUSH1 0x2D SLOAD PUSH1 0x31 PUSH1 0x0 DUP10 PUSH20 0xFFFFFFFFFFFFFFFFFFFFFFFFFFFFFFFFFFFFFFFF AND PUSH20 0xFFFFFFFFFFFFFFFFFFFFFFFFFFFFFFFFFFFFFFFF AND DUP2 MSTORE PUSH1 0x20 ADD SWAP1 DUP2 MSTORE PUSH1 0x20 ADD PUSH1 0x0 KECCAK256 DUP6 DUP2 SLOAD DUP2 LT PUSH2 0x346E JUMPI PUSH2 0x346D PUSH2 0x7343 JUMP JUMPDEST JUMPDEST SWAP1 PUSH1 0x0 MSTORE PUSH1 0x20 PUSH1 0x0 KECCAK256 ADD SLOAD PUSH2 0x3483 SWAP2 SWAP1 PUSH2 0x7172 JUMP JUMPDEST PUSH2 0x5267 JUMP JUMPDEST DUP1 DUP1 PUSH2 0x3493 SWAP1 PUSH2 0x7292 JUMP JUMPDEST SWAP2 POP POP PUSH2 0x33CF JUMP JUMPDEST POP PUSH1 0x31 PUSH1 0x0 DUP5 PUSH20 0xFFFFFFFFFFFFFFFFFFFFFFFFFFFFFFFFFFFFFFFF AND PUSH20 0xFFFFFFFFFFFFFFFFFFFFFFFFFFFFFFFFFFFFFFFF AND DUP2 MSTORE PUSH1 0x20 ADD SWAP1 DUP2 MSTORE PUSH1 0x20 ADD PUSH1 0x0 KECCAK256 PUSH1 0x0 PUSH2 0x34E7 SWAP2 SWAP1 PUSH2 0x6305 JUMP JUMPDEST PUSH1 0x0 PUSH1 0x30 PUSH1 0x0 DUP6 PUSH20 0xFFFFFFFFFFFFFFFFFFFFFFFFFFFFFFFFFFFFFFFF AND PUSH20 0xFFFFFFFFFFFFFFFFFFFFFFFFFFFFFFFFFFFFFFFF AND DUP2 MSTORE PUSH1 0x20 ADD SWAP1 DUP2 MSTORE PUSH1 0x20 ADD PUSH1 0x0 KECCAK256 PUSH1 0x0 DUP1 ISZERO ISZERO ISZERO ISZERO DUP2 MSTORE PUSH1 0x20 ADD SWAP1 DUP2 MSTORE PUSH1 0x20 ADD PUSH1 0x0 KECCAK256 PUSH1 0x1 ADD DUP2 SWAP1 SSTORE POP PUSH1 0x0 PUSH1 0x30 PUSH1 0x0 DUP6 PUSH20 0xFFFFFFFFFFFFFFFFFFFFFFFFFFFFFFFFFFFFFFFF AND PUSH20 0xFFFFFFFFFFFFFFFFFFFFFFFFFFFFFFFFFFFFFFFF AND DUP2 MSTORE PUSH1 0x20 ADD SWAP1 DUP2 MSTORE PUSH1 0x20 ADD PUSH1 0x0 KECCAK256 PUSH1 0x0 PUSH1 0x1 ISZERO ISZERO ISZERO ISZERO DUP2 MSTORE PUSH1 0x20 ADD SWAP1 DUP2 MSTORE PUSH1 0x20 ADD PUSH1 0x0 KECCAK256 PUSH1 0x1 ADD DUP2 SWAP1 SSTORE POP PUSH2 0x365C PUSH1 0x30 PUSH1 0x0 DUP6 PUSH20 0xFFFFFFFFFFFFFFFFFFFFFFFFFFFFFFFFFFFFFFFF AND PUSH20 0xFFFFFFFFFFFFFFFFFFFFFFFFFFFFFFFFFFFFFFFF AND DUP2 MSTORE PUSH1 0x20 ADD SWAP1 DUP2 MSTORE PUSH1 0x20 ADD PUSH1 0x0 KECCAK256 PUSH1 0x0 DUP1 ISZERO ISZERO ISZERO ISZERO DUP2 MSTORE PUSH1 0x20 ADD SWAP1 DUP2 MSTORE PUSH1 0x20 ADD PUSH1 0x0 KECCAK256 PUSH1 0x2 ADD SLOAD PUSH1 0x30 PUSH1 0x0 DUP7 PUSH20 0xFFFFFFFFFFFFFFFFFFFFFFFFFFFFFFFFFFFFFFFF AND PUSH20 0xFFFFFFFFFFFFFFFFFFFFFFFFFFFFFFFFFFFFFFFF AND DUP2 MSTORE PUSH1 0x20 ADD SWAP1 DUP2 MSTORE PUSH1 0x20 ADD PUSH1 0x0 KECCAK256 PUSH1 0x0 PUSH1 0x1 ISZERO ISZERO ISZERO ISZERO DUP2 MSTORE PUSH1 0x20 ADD SWAP1 DUP2 MSTORE PUSH1 0x20 ADD PUSH1 0x0 KECCAK256 PUSH1 0x2 ADD SLOAD DUP6 PUSH2 0x1592 JUMP JUMPDEST POP PUSH1 0x1 PUSH1 0x2E DUP2 SWAP1 SSTORE POP POP POP JUMP JUMPDEST PUSH1 0x27 PUSH1 0x0 SWAP1 SLOAD SWAP1 PUSH2 0x100 EXP SWAP1 DIV PUSH20 0xFFFFFFFFFFFFFFFFFFFFFFFFFFFFFFFFFFFFFFFF AND DUP2 JUMP JUMPDEST PUSH1 0x20 PUSH1 0x0 SWAP1 SLOAD SWAP1 PUSH2 0x100 EXP SWAP1 DIV PUSH1 0xFF AND DUP2 JUMP JUMPDEST PUSH1 0x24 SLOAD DUP2 JUMP JUMPDEST PUSH1 0x27 PUSH1 0x0 SWAP1 SLOAD SWAP1 PUSH2 0x100 EXP SWAP1 DIV PUSH20 0xFFFFFFFFFFFFFFFFFFFFFFFFFFFFFFFFFFFFFFFF AND PUSH20 0xFFFFFFFFFFFFFFFFFFFFFFFFFFFFFFFFFFFFFFFF AND CALLER PUSH20 0xFFFFFFFFFFFFFFFFFFFFFFFFFFFFFFFFFFFFFFFF AND EQ PUSH2 0x3738 JUMPI PUSH1 0x40 MLOAD PUSH32 0x8C379A000000000000000000000000000000000000000000000000000000000 DUP2 MSTORE PUSH1 0x4 ADD PUSH2 0x372F SWAP1 PUSH2 0x6D6E JUMP JUMPDEST PUSH1 0x40 MLOAD DUP1 SWAP2 SUB SWAP1 REVERT JUMPDEST DUP1 PUSH1 0x2A DUP2 SWAP1 SSTORE POP POP JUMP JUMPDEST PUSH1 0x18 SLOAD DUP2 JUMP JUMPDEST TIMESTAMP DUP5 LT ISZERO PUSH2 0x378B JUMPI PUSH1 0x40 MLOAD PUSH32 0x8C379A000000000000000000000000000000000000000000000000000000000 DUP2 MSTORE PUSH1 0x4 ADD PUSH2 0x3782 SWAP1 PUSH2 0x6DCE JUMP JUMPDEST PUSH1 0x40 MLOAD DUP1 SWAP2 SUB SWAP1 REVERT JUMPDEST PUSH1 0x0 PUSH1 0x3 SLOAD PUSH32 0x6E71EDAE12B1B97F4D1F60370FEF10105FA2FAAE0126114A169C64845D6126C9 PUSH1 0x0 SHL DUP10 DUP10 DUP10 PUSH1 0x4 PUSH1 0x0 DUP15 PUSH20 0xFFFFFFFFFFFFFFFFFFFFFFFFFFFFFFFFFFFFFFFF AND PUSH20 0xFFFFFFFFFFFFFFFFFFFFFFFFFFFFFFFFFFFFFFFF AND DUP2 MSTORE PUSH1 0x20 ADD SWAP1 DUP2 MSTORE PUSH1 0x20 ADD PUSH1 0x0 KECCAK256 PUSH1 0x0 DUP2 SLOAD DUP1 SWAP3 SWAP2 SWAP1 PUSH2 0x3807 SWAP1 PUSH2 0x7292 JUMP JUMPDEST SWAP2 SWAP1 POP SSTORE DUP11 PUSH1 0x40 MLOAD PUSH1 0x20 ADD PUSH2 0x3821 SWAP7 SWAP6 SWAP5 SWAP4 SWAP3 SWAP2 SWAP1 PUSH2 0x6C26 JUMP JUMPDEST PUSH1 0x40 MLOAD PUSH1 0x20 DUP2 DUP4 SUB SUB DUP2 MSTORE SWAP1 PUSH1 0x40 MSTORE DUP1 MLOAD SWAP1 PUSH1 0x20 ADD KECCAK256 PUSH1 0x40 MLOAD PUSH1 0x20 ADD PUSH2 0x3848 SWAP3 SWAP2 SWAP1 PUSH2 0x6B0E JUMP JUMPDEST PUSH1 0x40 MLOAD PUSH1 0x20 DUP2 DUP4 SUB SUB DUP2 MSTORE SWAP1 PUSH1 0x40 MSTORE DUP1 MLOAD SWAP1 PUSH1 0x20 ADD KECCAK256 SWAP1 POP PUSH1 0x0 PUSH1 0x1 DUP3 DUP7 DUP7 DUP7 PUSH1 0x40 MLOAD PUSH1 0x0 DUP2 MSTORE PUSH1 0x20 ADD PUSH1 0x40 MSTORE PUSH1 0x40 MLOAD PUSH2 0x3885 SWAP5 SWAP4 SWAP3 SWAP2 SWAP1 PUSH2 0x6C87 JUMP JUMPDEST PUSH1 0x20 PUSH1 0x40 MLOAD PUSH1 0x20 DUP2 SUB SWAP1 DUP1 DUP5 SUB SWAP1 DUP6 GAS STATICCALL ISZERO DUP1 ISZERO PUSH2 0x38A7 JUMPI RETURNDATASIZE PUSH1 0x0 DUP1 RETURNDATACOPY RETURNDATASIZE PUSH1 0x0 REVERT JUMPDEST POP POP POP PUSH1 0x20 PUSH1 0x40 MLOAD SUB MLOAD SWAP1 POP PUSH1 0x0 PUSH20 0xFFFFFFFFFFFFFFFFFFFFFFFFFFFFFFFFFFFFFFFF AND DUP2 PUSH20 0xFFFFFFFFFFFFFFFFFFFFFFFFFFFFFFFFFFFFFFFF AND EQ ISZERO DUP1 ISZERO PUSH2 0x391B JUMPI POP DUP9 PUSH20 0xFFFFFFFFFFFFFFFFFFFFFFFFFFFFFFFFFFFFFFFF AND DUP2 PUSH20 0xFFFFFFFFFFFFFFFFFFFFFFFFFFFFFFFFFFFFFFFF AND EQ JUMPDEST PUSH2 0x395A JUMPI PUSH1 0x40 MLOAD PUSH32 0x8C379A000000000000000000000000000000000000000000000000000000000 DUP2 MSTORE PUSH1 0x4 ADD PUSH2 0x3951 SWAP1 PUSH2 0x6D8E JUMP JUMPDEST PUSH1 0x40 MLOAD DUP1 SWAP2 SUB SWAP1 REVERT JUMPDEST PUSH2 0x3965 DUP10 DUP10 DUP10 PUSH2 0x3FCE JUMP JUMPDEST POP POP POP POP POP POP POP POP POP JUMP JUMPDEST PUSH1 0x2F DUP2 DUP2 SLOAD DUP2 LT PUSH2 0x3980 JUMPI PUSH1 0x0 DUP1 REVERT JUMPDEST SWAP1 PUSH1 0x0 MSTORE PUSH1 0x20 PUSH1 0x0 KECCAK256 ADD PUSH1 0x0 SWAP2 POP SLOAD SWAP1 PUSH2 0x100 EXP SWAP1 DIV PUSH20 0xFFFFFFFFFFFFFFFFFFFFFFFFFFFFFFFFFFFFFFFF AND DUP2 JUMP JUMPDEST PUSH1 0x2 PUSH1 0x20 MSTORE DUP2 PUSH1 0x0 MSTORE PUSH1 0x40 PUSH1 0x0 KECCAK256 PUSH1 0x20 MSTORE DUP1 PUSH1 0x0 MSTORE PUSH1 0x40 PUSH1 0x0 KECCAK256 PUSH1 0x0 SWAP2 POP SWAP2 POP POP SLOAD DUP2 JUMP JUMPDEST PUSH1 0xF SLOAD DUP2 JUMP JUMPDEST PUSH1 0x0 SWAP2 SWAP1 POP JUMP JUMPDEST PUSH1 0x21 SLOAD DUP2 JUMP JUMPDEST PUSH1 0x11 SLOAD DUP2 JUMP JUMPDEST PUSH1 0x2D SLOAD DUP2 JUMP JUMPDEST PUSH1 0x8 SLOAD DUP2 JUMP JUMPDEST PUSH1 0x31 PUSH1 0x20 MSTORE DUP2 PUSH1 0x0 MSTORE PUSH1 0x40 PUSH1 0x0 KECCAK256 DUP2 DUP2 SLOAD DUP2 LT PUSH2 0x3A15 JUMPI PUSH1 0x0 DUP1 REVERT JUMPDEST SWAP1 PUSH1 0x0 MSTORE PUSH1 0x20 PUSH1 0x0 KECCAK256 ADD PUSH1 0x0 SWAP2 POP SWAP2 POP POP SLOAD DUP2 JUMP JUMPDEST PUSH1 0x0 DUP1 PUSH1 0x0 DUP1 PUSH8 0xDE0B6B3A7640000 PUSH1 0xE SLOAD PUSH1 0x14 SLOAD PUSH2 0x3A49 SWAP2 SWAP1 PUSH2 0x7172 JUMP JUMPDEST PUSH2 0x3A53 SWAP2 SWAP1 PUSH2 0x6FD0 JUMP JUMPDEST SWAP1 POP PUSH1 0x0 PUSH8 0xDE0B6B3A7640000 PUSH1 0xD SLOAD PUSH1 0x13 SLOAD PUSH2 0x3A70 SWAP2 SWAP1 PUSH2 0x7172 JUMP JUMPDEST PUSH2 0x3A7A SWAP2 SWAP1 PUSH2 0x6FD0 JUMP JUMPDEST SWAP1 POP PUSH1 0x0 PUSH1 0x23 SLOAD PUSH8 0xDE0B6B3A7640000 PUSH1 0x7 SLOAD PUSH2 0x3A97 SWAP2 SWAP1 PUSH2 0x7172 JUMP JUMPDEST PUSH2 0x3AA1 SWAP2 SWAP1 PUSH2 0x6FD0 JUMP JUMPDEST SWAP1 POP PUSH1 0x0 DUP3 DUP5 PUSH2 0x3AB1 SWAP2 SWAP1 PUSH2 0x71CC JUMP JUMPDEST PUSH8 0xDE0B6B3A7640000 DUP5 PUSH1 0x2 PUSH2 0x3AC7 SWAP2 SWAP1 PUSH2 0x7172 JUMP JUMPDEST DUP6 DUP8 PUSH1 0x4 DUP8 DUP9 DUP10 PUSH2 0x3AD8 SWAP2 SWAP1 PUSH2 0x7172 JUMP JUMPDEST PUSH2 0x3AE2 SWAP2 SWAP1 PUSH2 0x7172 JUMP JUMPDEST PUSH2 0x3AEC SWAP2 SWAP1 PUSH2 0x6FD0 JUMP JUMPDEST PUSH2 0x3AF6 SWAP2 SWAP1 PUSH2 0x6FD0 JUMP JUMPDEST PUSH2 0x3B00 SWAP2 SWAP1 PUSH2 0x6FD0 JUMP JUMPDEST PUSH2 0x3B0A SWAP2 SWAP1 PUSH2 0x71CC JUMP JUMPDEST PUSH2 0x3B14 SWAP2 SWAP1 PUSH2 0x7172 JUMP JUMPDEST PUSH2 0x3B1E SWAP2 SWAP1 PUSH2 0x6FD0 JUMP JUMPDEST SWAP1 POP PUSH1 0x0 DUP2 PUSH8 0x1BC16D674EC80000 PUSH2 0x3B36 SWAP2 SWAP1 PUSH2 0x71CC JUMP JUMPDEST SWAP1 POP PUSH1 0x0 PUSH1 0xE SLOAD PUSH8 0xDE0B6B3A7640000 DUP7 DUP7 DUP8 DUP9 PUSH2 0x3B54 SWAP2 SWAP1 PUSH2 0x7172 JUMP JUMPDEST PUSH2 0x3B5E SWAP2 SWAP1 PUSH2 0x7172 JUMP JUMPDEST PUSH2 0x3B68 SWAP2 SWAP1 PUSH2 0x7172 JUMP JUMPDEST PUSH2 0x3B72 SWAP2 SWAP1 PUSH2 0x7172 JUMP JUMPDEST DUP7 DUP8 DUP10 DUP11 DUP9 PUSH1 0x4 PUSH2 0x3B83 SWAP2 SWAP1 PUSH2 0x7172 JUMP JUMPDEST PUSH2 0x3B8D SWAP2 SWAP1 PUSH2 0x7172 JUMP JUMPDEST PUSH2 0x3B97 SWAP2 SWAP1 PUSH2 0x7172 JUMP JUMPDEST PUSH2 0x3BA1 SWAP2 SWAP1 PUSH2 0x7172 JUMP JUMPDEST PUSH2 0x3BAB SWAP2 SWAP1 PUSH2 0x7172 JUMP JUMPDEST PUSH2 0x3BB5 SWAP2 SWAP1 PUSH2 0x6F7A JUMP JUMPDEST PUSH8 0xDE0B6B3A7640000 PUSH1 0xD SLOAD PUSH8 0xDE0B6B3A7640000 DUP11 PUSH1 0x7 SLOAD PUSH1 0x7 SLOAD DUP12 PUSH2 0x3BDC SWAP2 SWAP1 PUSH2 0x7172 JUMP JUMPDEST PUSH2 0x3BE6 SWAP2 SWAP1 PUSH2 0x7172 JUMP JUMPDEST PUSH2 0x3BF0 SWAP2 SWAP1 PUSH2 0x7172 JUMP JUMPDEST PUSH2 0x3BFA SWAP2 SWAP1 PUSH2 0x7172 JUMP JUMPDEST DUP10 DUP11 DUP13 DUP14 DUP11 PUSH1 0x4 PUSH2 0x3C0B SWAP2 SWAP1 PUSH2 0x7172 JUMP JUMPDEST PUSH2 0x3C15 SWAP2 SWAP1 PUSH2 0x7172 JUMP JUMPDEST PUSH2 0x3C1F SWAP2 SWAP1 PUSH2 0x7172 JUMP JUMPDEST PUSH2 0x3C29 SWAP2 SWAP1 PUSH2 0x7172 JUMP JUMPDEST PUSH2 0x3C33 SWAP2 SWAP1 PUSH2 0x7172 JUMP JUMPDEST PUSH2 0x3C3D SWAP2 SWAP1 PUSH2 0x6F7A JUMP JUMPDEST PUSH2 0x3C47 SWAP2 SWAP1 PUSH2 0x7172 JUMP JUMPDEST PUSH2 0x3C51 SWAP2 SWAP1 PUSH2 0x7172 JUMP JUMPDEST PUSH2 0x3C5B SWAP2 SWAP1 PUSH2 0x6FD0 JUMP JUMPDEST PUSH2 0x3C65 SWAP2 SWAP1 PUSH2 0x6FD0 JUMP JUMPDEST SWAP1 POP PUSH1 0x0 PUSH1 0xE SLOAD PUSH8 0xDE0B6B3A7640000 PUSH1 0xC SLOAD PUSH1 0x7 SLOAD PUSH1 0x7 SLOAD PUSH1 0x7 SLOAD PUSH2 0x3C8B SWAP2 SWAP1 PUSH2 0x7172 JUMP JUMPDEST PUSH2 0x3C95 SWAP2 SWAP1 PUSH2 0x7172 JUMP JUMPDEST PUSH2 0x3C9F SWAP2 SWAP1 PUSH2 0x7172 JUMP JUMPDEST PUSH2 0x3CA9 SWAP2 SWAP1 PUSH2 0x7172 JUMP JUMPDEST PUSH1 0xC SLOAD PUSH1 0xC SLOAD PUSH1 0xB SLOAD PUSH1 0xB SLOAD PUSH1 0x5 SLOAD PUSH1 0x4 PUSH2 0x3CC4 SWAP2 SWAP1 PUSH2 0x7172 JUMP JUMPDEST PUSH2 0x3CCE SWAP2 SWAP1 PUSH2 0x7172 JUMP JUMPDEST PUSH2 0x3CD8 SWAP2 SWAP1 PUSH2 0x7172 JUMP JUMPDEST PUSH2 0x3CE2 SWAP2 SWAP1 PUSH2 0x7172 JUMP JUMPDEST PUSH2 0x3CEC SWAP2 SWAP1 PUSH2 0x7172 JUMP JUMPDEST PUSH2 0x3CF6 SWAP2 SWAP1 PUSH2 0x6F7A JUMP JUMPDEST PUSH8 0xDE0B6B3A7640000 PUSH1 0xD SLOAD PUSH8 0xDE0B6B3A7640000 PUSH1 0xB SLOAD PUSH1 0x7 SLOAD PUSH1 0x7 SLOAD PUSH1 0x7 SLOAD PUSH2 0x3D21 SWAP2 SWAP1 PUSH2 0x7172 JUMP JUMPDEST PUSH2 0x3D2B SWAP2 SWAP1 PUSH2 0x7172 JUMP JUMPDEST PUSH2 0x3D35 SWAP2 SWAP1 PUSH2 0x7172 JUMP JUMPDEST PUSH2 0x3D3F SWAP2 SWAP1 PUSH2 0x7172 JUMP JUMPDEST PUSH1 0xC SLOAD PUSH1 0xC SLOAD PUSH1 0xB SLOAD PUSH1 0xB SLOAD PUSH1 0x6 SLOAD PUSH1 0x4 PUSH2 0x3D5A SWAP2 SWAP1 PUSH2 0x7172 JUMP JUMPDEST PUSH2 0x3D64 SWAP2 SWAP1 PUSH2 0x7172 JUMP JUMPDEST PUSH2 0x3D6E SWAP2 SWAP1 PUSH2 0x7172 JUMP JUMPDEST PUSH2 0x3D78 SWAP2 SWAP1 PUSH2 0x7172 JUMP JUMPDEST PUSH2 0x3D82 SWAP2 SWAP1 PUSH2 0x7172 JUMP JUMPDEST PUSH2 0x3D8C SWAP2 SWAP1 PUSH2 0x6F7A JUMP JUMPDEST PUSH2 0x3D96 SWAP2 SWAP1 PUSH2 0x7172 JUMP JUMPDEST PUSH2 0x3DA0 SWAP2 SWAP1 PUSH2 0x7172 JUMP JUMPDEST PUSH2 0x3DAA SWAP2 SWAP1 PUSH2 0x6FD0 JUMP JUMPDEST PUSH2 0x3DB4 SWAP2 SWAP1 PUSH2 0x6FD0 JUMP JUMPDEST SWAP1 POP DUP2 DUP2 GT ISZERO PUSH2 0x3E5A JUMPI PUSH1 0x0 PUSH1 0x22 SLOAD PUSH2 0xE100 PUSH1 0xF SLOAD PUSH1 0x13 SLOAD PUSH2 0x3DD6 SWAP2 SWAP1 PUSH2 0x6F7A JUMP JUMPDEST PUSH8 0xDE0B6B3A7640000 PUSH1 0xF SLOAD PUSH2 0x3DEC SWAP2 SWAP1 PUSH2 0x7172 JUMP JUMPDEST PUSH2 0x3DF6 SWAP2 SWAP1 PUSH2 0x6FD0 JUMP JUMPDEST PUSH2 0x3E00 SWAP2 SWAP1 PUSH2 0x6FD0 JUMP JUMPDEST PUSH2 0x3E0A SWAP2 SWAP1 PUSH2 0x6F7A JUMP JUMPDEST SWAP1 POP DUP1 PUSH2 0x1680 DUP5 PUSH8 0xDE0B6B3A7640000 DUP7 DUP7 PUSH2 0x3E26 SWAP2 SWAP1 PUSH2 0x71CC JUMP JUMPDEST PUSH2 0x3E30 SWAP2 SWAP1 PUSH2 0x7172 JUMP JUMPDEST PUSH2 0x3E3A SWAP2 SWAP1 PUSH2 0x6FD0 JUMP JUMPDEST PUSH2 0x3E44 SWAP2 SWAP1 PUSH2 0x6FD0 JUMP JUMPDEST PUSH2 0x3E4E SWAP2 SWAP1 PUSH2 0x6F7A JUMP JUMPDEST SWAP11 POP PUSH1 0x0 SWAP9 POP POP PUSH2 0x3EF2 JUMP JUMPDEST PUSH1 0x0 PUSH1 0x22 SLOAD PUSH2 0xE100 PUSH1 0x10 SLOAD PUSH1 0x14 SLOAD PUSH2 0x3E72 SWAP2 SWAP1 PUSH2 0x6F7A JUMP JUMPDEST PUSH8 0xDE0B6B3A7640000 PUSH1 0x10 SLOAD PUSH2 0x3E88 SWAP2 SWAP1 PUSH2 0x7172 JUMP JUMPDEST PUSH2 0x3E92 SWAP2 SWAP1 PUSH2 0x6FD0 JUMP JUMPDEST PUSH2 0x3E9C SWAP2 SWAP1 PUSH2 0x6FD0 JUMP JUMPDEST PUSH2 0x3EA6 SWAP2 SWAP1 PUSH2 0x6F7A JUMP JUMPDEST SWAP1 POP DUP1 PUSH2 0x1680 DUP5 PUSH8 0xDE0B6B3A7640000 DUP6 DUP8 PUSH2 0x3EC2 SWAP2 SWAP1 PUSH2 0x71CC JUMP JUMPDEST PUSH2 0x3ECC SWAP2 SWAP1 PUSH2 0x7172 JUMP JUMPDEST PUSH2 0x3ED6 SWAP2 SWAP1 PUSH2 0x6FD0 JUMP JUMPDEST PUSH2 0x3EE0 SWAP2 SWAP1 PUSH2 0x6FD0 JUMP JUMPDEST PUSH2 0x3EEA SWAP2 SWAP1 PUSH2 0x6F7A JUMP JUMPDEST SWAP11 POP PUSH1 0x1 SWAP9 POP POP JUMPDEST PUSH2 0x780 DUP11 PUSH2 0x3F00 SWAP2 SWAP1 PUSH2 0x7172 JUMP JUMPDEST SWAP9 POP PUSH1 0x21 SLOAD DUP10 GT ISZERO PUSH2 0x3F22 JUMPI PUSH1 0x21 SLOAD SWAP9 POP PUSH2 0x780 DUP10 PUSH2 0x3F1F SWAP2 SWAP1 PUSH2 0x6FD0 JUMP JUMPDEST SWAP10 POP JUMPDEST POP POP POP POP POP POP POP SWAP1 SWAP2 SWAP3 JUMP JUMPDEST PUSH1 0xD SLOAD DUP2 JUMP JUMPDEST PUSH1 0x27 PUSH1 0x0 SWAP1 SLOAD SWAP1 PUSH2 0x100 EXP SWAP1 DIV PUSH20 0xFFFFFFFFFFFFFFFFFFFFFFFFFFFFFFFFFFFFFFFF AND PUSH20 0xFFFFFFFFFFFFFFFFFFFFFFFFFFFFFFFFFFFFFFFF AND CALLER PUSH20 0xFFFFFFFFFFFFFFFFFFFFFFFFFFFFFFFFFFFFFFFF AND EQ PUSH2 0x3FC4 JUMPI PUSH1 0x40 MLOAD PUSH32 0x8C379A000000000000000000000000000000000000000000000000000000000 DUP2 MSTORE PUSH1 0x4 ADD PUSH2 0x3FBB SWAP1 PUSH2 0x6D6E JUMP JUMPDEST PUSH1 0x40 MLOAD DUP1 SWAP2 SUB SWAP1 REVERT JUMPDEST DUP1 PUSH1 0x2C DUP2 SWAP1 SSTORE POP POP JUMP JUMPDEST DUP1 PUSH1 0x2 PUSH1 0x0 DUP6 PUSH20 0xFFFFFFFFFFFFFFFFFFFFFFFFFFFFFFFFFFFFFFFF AND PUSH20 0xFFFFFFFFFFFFFFFFFFFFFFFFFFFFFFFFFFFFFFFF AND DUP2 MSTORE PUSH1 0x20 ADD SWAP1 DUP2 MSTORE PUSH1 0x20 ADD PUSH1 0x0 KECCAK256 PUSH1 0x0 DUP5 PUSH20 0xFFFFFFFFFFFFFFFFFFFFFFFFFFFFFFFFFFFFFFFF AND PUSH20 0xFFFFFFFFFFFFFFFFFFFFFFFFFFFFFFFFFFFFFFFF AND DUP2 MSTORE PUSH1 0x20 ADD SWAP1 DUP2 MSTORE PUSH1 0x20 ADD PUSH1 0x0 KECCAK256 DUP2 SWAP1 SSTORE POP DUP2 PUSH20 0xFFFFFFFFFFFFFFFFFFFFFFFFFFFFFFFFFFFFFFFF AND DUP4 PUSH20 0xFFFFFFFFFFFFFFFFFFFFFFFFFFFFFFFFFFFFFFFF AND PUSH32 0x8C5BE1E5EBEC7D5BD14F71427D1E84F3DD0314C0F7B2291E5B200AC8C7C3B925 DUP4 PUSH1 0x40 MLOAD PUSH2 0x40AC SWAP2 SWAP1 PUSH2 0x6E6E JUMP JUMPDEST PUSH1 0x40 MLOAD DUP1 SWAP2 SUB SWAP1 LOG3 POP POP POP JUMP JUMPDEST PUSH1 0x0 DUP3 DUP3 DUP5 PUSH2 0x40C8 SWAP2 SWAP1 PUSH2 0x71CC JUMP JUMPDEST SWAP2 POP DUP2 GT ISZERO PUSH2 0x410C JUMPI PUSH1 0x40 MLOAD PUSH32 0x8C379A000000000000000000000000000000000000000000000000000000000 DUP2 MSTORE PUSH1 0x4 ADD PUSH2 0x4103 SWAP1 PUSH2 0x6D0E JUMP JUMPDEST PUSH1 0x40 MLOAD DUP1 SWAP2 SUB SWAP1 REVERT JUMPDEST SWAP3 SWAP2 POP POP JUMP JUMPDEST PUSH2 0x4164 DUP2 PUSH1 0x1 PUSH1 0x0 DUP7 PUSH20 0xFFFFFFFFFFFFFFFFFFFFFFFFFFFFFFFFFFFFFFFF AND PUSH20 0xFFFFFFFFFFFFFFFFFFFFFFFFFFFFFFFFFFFFFFFF AND DUP2 MSTORE PUSH1 0x20 ADD SWAP1 DUP2 MSTORE PUSH1 0x20 ADD PUSH1 0x0 KECCAK256 SLOAD PUSH2 0x40B9 SWAP1 SWAP2 SWAP1 PUSH4 0xFFFFFFFF AND JUMP JUMPDEST PUSH1 0x1 PUSH1 0x0 DUP6 PUSH20 0xFFFFFFFFFFFFFFFFFFFFFFFFFFFFFFFFFFFFFFFF AND PUSH20 0xFFFFFFFFFFFFFFFFFFFFFFFFFFFFFFFFFFFFFFFF AND DUP2 MSTORE PUSH1 0x20 ADD SWAP1 DUP2 MSTORE PUSH1 0x20 ADD PUSH1 0x0 KECCAK256 DUP2 SWAP1 SSTORE POP PUSH2 0x41F9 DUP2 PUSH1 0x1 PUSH1 0x0 DUP6 PUSH20 0xFFFFFFFFFFFFFFFFFFFFFFFFFFFFFFFFFFFFFFFF AND PUSH20 0xFFFFFFFFFFFFFFFFFFFFFFFFFFFFFFFFFFFFFFFF AND DUP2 MSTORE PUSH1 0x20 ADD SWAP1 DUP2 MSTORE PUSH1 0x20 ADD PUSH1 0x0 KECCAK256 SLOAD PUSH2 0x5D48 SWAP1 SWAP2 SWAP1 PUSH4 0xFFFFFFFF AND JUMP JUMPDEST PUSH1 0x1 PUSH1 0x0 DUP5 PUSH20 0xFFFFFFFFFFFFFFFFFFFFFFFFFFFFFFFFFFFFFFFF AND PUSH20 0xFFFFFFFFFFFFFFFFFFFFFFFFFFFFFFFFFFFFFFFF AND DUP2 MSTORE PUSH1 0x20 ADD SWAP1 DUP2 MSTORE PUSH1 0x20 ADD PUSH1 0x0 KECCAK256 DUP2 SWAP1 SSTORE POP DUP2 PUSH20 0xFFFFFFFFFFFFFFFFFFFFFFFFFFFFFFFFFFFFFFFF AND DUP4 PUSH20 0xFFFFFFFFFFFFFFFFFFFFFFFFFFFFFFFFFFFFFFFF AND PUSH32 0xDDF252AD1BE2C89B69C2B068FC378DAA952BA7F163C4A11628F55A4DF523B3EF DUP4 PUSH1 0x40 MLOAD PUSH2 0x4299 SWAP2 SWAP1 PUSH2 0x6E6E JUMP JUMPDEST PUSH1 0x40 MLOAD DUP1 SWAP2 SUB SWAP1 LOG3 POP POP POP JUMP JUMPDEST PUSH1 0x0 DUP1 PUSH2 0x42B1 PUSH2 0x3A2A JUMP JUMPDEST SWAP3 POP POP SWAP2 POP PUSH1 0x0 PUSH1 0x1F SLOAD NUMBER PUSH2 0x42C6 SWAP2 SWAP1 PUSH2 0x71CC JUMP JUMPDEST SWAP1 POP NUMBER PUSH1 0x1F DUP2 SWAP1 SSTORE POP PUSH1 0x0 PUSH1 0xE SLOAD PUSH1 0xD SLOAD PUSH1 0x17 SLOAD PUSH2 0x42E4 SWAP2 SWAP1 PUSH2 0x7172 JUMP JUMPDEST PUSH2 0x42EE SWAP2 SWAP1 PUSH2 0x6FD0 JUMP JUMPDEST SWAP1 POP PUSH1 0x0 ISZERO ISZERO PUSH1 0x20 PUSH1 0x0 SWAP1 SLOAD SWAP1 PUSH2 0x100 EXP SWAP1 DIV PUSH1 0xFF AND ISZERO ISZERO EQ ISZERO PUSH2 0x43AB JUMPI PUSH8 0xDE0B6B3A7640000 DUP3 PUSH1 0x1E SLOAD PUSH8 0xDE0B6B3A7640000 PUSH2 0x432C SWAP2 SWAP1 PUSH2 0x6F7A JUMP JUMPDEST PUSH1 0x19 SLOAD PUSH2 0x4339 SWAP2 SWAP1 PUSH2 0x7172 JUMP JUMPDEST PUSH2 0x4343 SWAP2 SWAP1 PUSH2 0x7172 JUMP JUMPDEST PUSH2 0x434D SWAP2 SWAP1 PUSH2 0x6FD0 JUMP JUMPDEST PUSH1 0x19 DUP2 SWAP1 SSTORE POP PUSH15 0xC097CE7BC90715B34B9F1000000000 DUP2 DUP4 PUSH1 0x19 SLOAD PUSH1 0x1E SLOAD PUSH2 0x4375 SWAP2 SWAP1 PUSH2 0x7172 JUMP JUMPDEST PUSH2 0x437F SWAP2 SWAP1 PUSH2 0x7172 JUMP JUMPDEST PUSH2 0x4389 SWAP2 SWAP1 PUSH2 0x7172 JUMP JUMPDEST PUSH2 0x4393 SWAP2 SWAP1 PUSH2 0x6FD0 JUMP JUMPDEST PUSH1 0x1A SLOAD PUSH2 0x43A0 SWAP2 SWAP1 PUSH2 0x71CC JUMP JUMPDEST PUSH1 0x1A DUP2 SWAP1 SSTORE POP PUSH2 0x442C JUMP JUMPDEST PUSH8 0xDE0B6B3A7640000 DUP3 PUSH1 0x1E SLOAD PUSH8 0xDE0B6B3A7640000 PUSH2 0x43CB SWAP2 SWAP1 PUSH2 0x6F7A JUMP JUMPDEST PUSH1 0x1A SLOAD PUSH2 0x43D8 SWAP2 SWAP1 PUSH2 0x7172 JUMP JUMPDEST PUSH2 0x43E2 SWAP2 SWAP1 PUSH2 0x7172 JUMP JUMPDEST PUSH2 0x43EC SWAP2 SWAP1 PUSH2 0x6FD0 JUMP JUMPDEST PUSH1 0x1A DUP2 SWAP1 SSTORE POP DUP1 DUP3 PUSH1 0x1A SLOAD PUSH1 0x1E SLOAD PUSH2 0x4404 SWAP2 SWAP1 PUSH2 0x7172 JUMP JUMPDEST PUSH2 0x440E SWAP2 SWAP1 PUSH2 0x7172 JUMP JUMPDEST PUSH2 0x4418 SWAP2 SWAP1 PUSH2 0x6FD0 JUMP JUMPDEST PUSH1 0x19 SLOAD PUSH2 0x4425 SWAP2 SWAP1 PUSH2 0x71CC JUMP JUMPDEST PUSH1 0x19 DUP2 SWAP1 SSTORE POP JUMPDEST DUP4 PUSH1 0x1E DUP2 SWAP1 SSTORE POP DUP3 PUSH1 0x20 PUSH1 0x0 PUSH2 0x100 EXP DUP2 SLOAD DUP2 PUSH1 0xFF MUL NOT AND SWAP1 DUP4 ISZERO ISZERO MUL OR SWAP1 SSTORE POP POP POP POP POP JUMP JUMPDEST PUSH1 0x0 PUSH1 0x1 PUSH1 0x2E SLOAD EQ PUSH2 0x449A JUMPI PUSH1 0x40 MLOAD PUSH32 0x8C379A000000000000000000000000000000000000000000000000000000000 DUP2 MSTORE PUSH1 0x4 ADD PUSH2 0x4491 SWAP1 PUSH2 0x6E4E JUMP JUMPDEST PUSH1 0x40 MLOAD DUP1 SWAP2 SUB SWAP1 REVERT JUMPDEST PUSH1 0x0 PUSH1 0x2E DUP2 SWAP1 SSTORE POP PUSH1 0x0 DUP4 SWAP1 POP PUSH1 0x0 PUSH1 0x1 SWAP1 POP JUMPDEST PUSH1 0x1 ISZERO ISZERO DUP2 ISZERO ISZERO EQ ISZERO PUSH2 0x48F6 JUMPI PUSH1 0x0 PUSH8 0xDE0B6B3A7640000 PUSH1 0x18 SLOAD PUSH1 0x9 SLOAD PUSH2 0x44D6 SWAP2 SWAP1 PUSH2 0x7172 JUMP JUMPDEST PUSH2 0x44E0 SWAP2 SWAP1 PUSH2 0x6FD0 JUMP JUMPDEST SWAP1 POP PUSH1 0x0 PUSH2 0x44F6 PUSH1 0x5 SLOAD PUSH1 0x6 SLOAD PUSH1 0x7 SLOAD DUP6 PUSH2 0x5DA1 JUMP JUMPDEST SWAP1 POP PUSH1 0xE SLOAD PUSH8 0xDE0B6B3A7640000 PUSH1 0xB SLOAD DUP5 PUSH2 0x4512 SWAP2 SWAP1 PUSH2 0x71CC JUMP JUMPDEST PUSH2 0x451C SWAP2 SWAP1 PUSH2 0x7172 JUMP JUMPDEST PUSH2 0x4526 SWAP2 SWAP1 PUSH2 0x6FD0 JUMP JUMPDEST DUP5 GT ISZERO PUSH2 0x478C JUMPI PUSH1 0x0 PUSH2 0x4542 PUSH1 0x5 SLOAD PUSH1 0x6 SLOAD PUSH1 0x7 SLOAD DUP7 DUP7 PUSH2 0x5EA1 JUMP JUMPDEST SWAP1 POP PUSH1 0xD SLOAD PUSH8 0xDE0B6B3A7640000 DUP4 PUSH1 0xC SLOAD PUSH2 0x455E SWAP2 SWAP1 PUSH2 0x71CC JUMP JUMPDEST PUSH2 0x4568 SWAP2 SWAP1 PUSH2 0x7172 JUMP JUMPDEST PUSH2 0x4572 SWAP2 SWAP1 PUSH2 0x6FD0 JUMP JUMPDEST DUP7 PUSH2 0x457D SWAP2 SWAP1 PUSH2 0x6F7A JUMP JUMPDEST SWAP6 POP PUSH1 0xE SLOAD PUSH8 0xDE0B6B3A7640000 PUSH1 0xB SLOAD DUP6 PUSH2 0x4599 SWAP2 SWAP1 PUSH2 0x71CC JUMP JUMPDEST PUSH2 0x45A3 SWAP2 SWAP1 PUSH2 0x7172 JUMP JUMPDEST PUSH2 0x45AD SWAP2 SWAP1 PUSH2 0x6FD0 JUMP JUMPDEST DUP6 PUSH2 0x45B8 SWAP2 SWAP1 PUSH2 0x71CC JUMP JUMPDEST SWAP5 POP PUSH1 0x1 ISZERO ISZERO DUP8 ISZERO ISZERO EQ ISZERO PUSH2 0x4612 JUMPI PUSH1 0xD SLOAD PUSH8 0xDE0B6B3A7640000 DUP4 PUSH1 0xC SLOAD PUSH2 0x45E1 SWAP2 SWAP1 PUSH2 0x71CC JUMP JUMPDEST PUSH2 0x45EB SWAP2 SWAP1 PUSH2 0x7172 JUMP JUMPDEST PUSH2 0x45F5 SWAP2 SWAP1 PUSH2 0x6FD0 JUMP JUMPDEST PUSH1 0xF PUSH1 0x0 DUP3 DUP3 SLOAD PUSH2 0x4606 SWAP2 SWAP1 PUSH2 0x6F7A JUMP JUMPDEST SWAP3 POP POP DUP2 SWAP1 SSTORE POP PUSH2 0x469F JUMP JUMPDEST PUSH1 0xE SLOAD PUSH8 0xDE0B6B3A7640000 PUSH1 0xB SLOAD DUP6 PUSH2 0x462C SWAP2 SWAP1 PUSH2 0x71CC JUMP JUMPDEST PUSH2 0x4636 SWAP2 SWAP1 PUSH2 0x7172 JUMP JUMPDEST PUSH2 0x4640 SWAP2 SWAP1 PUSH2 0x6FD0 JUMP JUMPDEST PUSH1 0x14 PUSH1 0x0 DUP3 DUP3 SLOAD PUSH2 0x4651 SWAP2 SWAP1 PUSH2 0x6F7A JUMP JUMPDEST SWAP3 POP POP DUP2 SWAP1 SSTORE POP PUSH1 0xD SLOAD PUSH8 0xDE0B6B3A7640000 DUP4 PUSH1 0xC SLOAD PUSH2 0x4672 SWAP2 SWAP1 PUSH2 0x71CC JUMP JUMPDEST PUSH2 0x467C SWAP2 SWAP1 PUSH2 0x7172 JUMP JUMPDEST PUSH2 0x4686 SWAP2 SWAP1 PUSH2 0x6FD0 JUMP JUMPDEST PUSH1 0x13 PUSH1 0x0 DUP3 DUP3 SLOAD PUSH2 0x4697 SWAP2 SWAP1 PUSH2 0x71CC JUMP JUMPDEST SWAP3 POP POP DUP2 SWAP1 SSTORE POP JUMPDEST PUSH1 0x0 PUSH1 0xE SLOAD SWAP1 POP PUSH1 0x0 PUSH1 0xD SLOAD SWAP1 POP DUP4 PUSH1 0xA SLOAD DUP3 PUSH2 0x46BC SWAP2 SWAP1 PUSH2 0x7172 JUMP JUMPDEST PUSH2 0x46C6 SWAP2 SWAP1 PUSH2 0x6FD0 JUMP JUMPDEST PUSH1 0xD DUP2 SWAP1 SSTORE POP DUP5 PUSH1 0x9 SLOAD DUP4 PUSH2 0x46DB SWAP2 SWAP1 PUSH2 0x7172 JUMP JUMPDEST PUSH2 0x46E5 SWAP2 SWAP1 PUSH2 0x6FD0 JUMP JUMPDEST PUSH1 0xE DUP2 SWAP1 SSTORE POP PUSH1 0xD SLOAD DUP3 PUSH1 0xE SLOAD DUP4 DUP7 PUSH2 0x46FE SWAP2 SWAP1 PUSH2 0x7172 JUMP JUMPDEST PUSH2 0x4708 SWAP2 SWAP1 PUSH2 0x7172 JUMP JUMPDEST PUSH2 0x4712 SWAP2 SWAP1 PUSH2 0x6FD0 JUMP JUMPDEST PUSH2 0x471C SWAP2 SWAP1 PUSH2 0x6FD0 JUMP JUMPDEST PUSH1 0x17 DUP2 SWAP1 SSTORE POP PUSH1 0x9 SLOAD PUSH1 0xB DUP2 SWAP1 SSTORE POP PUSH1 0xA SLOAD PUSH1 0xC DUP2 SWAP1 SSTORE POP PUSH2 0x4748 PUSH1 0xB SLOAD PUSH1 0xC SLOAD PUSH1 0x7 SLOAD PUSH1 0x17 SLOAD PUSH2 0x5F95 JUMP JUMPDEST PUSH1 0x5 DUP2 SWAP1 SSTORE POP PUSH1 0x5 SLOAD PUSH8 0x1BC16D674EC80000 PUSH2 0x4764 SWAP2 SWAP1 PUSH2 0x71CC JUMP JUMPDEST PUSH1 0x6 DUP2 SWAP1 SSTORE POP PUSH2 0x4772 PUSH2 0x4ED3 JUMP JUMPDEST PUSH1 0x9 SLOAD PUSH1 0xB DUP2 SWAP1 SSTORE POP PUSH1 0xA SLOAD PUSH1 0xC DUP2 SWAP1 SSTORE POP POP POP POP PUSH2 0x48EF JUMP JUMPDEST PUSH1 0xB SLOAD PUSH1 0x15 DUP2 SWAP1 SSTORE POP PUSH1 0xC SLOAD PUSH1 0x16 DUP2 SWAP1 SSTORE POP PUSH8 0xDE0B6B3A7640000 PUSH1 0xE SLOAD DUP6 PUSH2 0x47B5 SWAP2 SWAP1 PUSH2 0x7172 JUMP JUMPDEST PUSH2 0x47BF SWAP2 SWAP1 PUSH2 0x6FD0 JUMP JUMPDEST PUSH1 0xB PUSH1 0x0 DUP3 DUP3 SLOAD PUSH2 0x47D0 SWAP2 SWAP1 PUSH2 0x6F7A JUMP JUMPDEST SWAP3 POP POP DUP2 SWAP1 SSTORE POP PUSH2 0x47EB PUSH1 0x5 SLOAD PUSH1 0x6 SLOAD PUSH1 0x7 SLOAD PUSH1 0xB SLOAD PUSH2 0x5DA1 JUMP JUMPDEST PUSH1 0xC DUP2 SWAP1 SSTORE POP PUSH1 0xD SLOAD PUSH8 0xDE0B6B3A7640000 PUSH1 0xC SLOAD PUSH1 0x16 SLOAD PUSH2 0x480D SWAP2 SWAP1 PUSH2 0x71CC JUMP JUMPDEST PUSH2 0x4817 SWAP2 SWAP1 PUSH2 0x7172 JUMP JUMPDEST PUSH2 0x4821 SWAP2 SWAP1 PUSH2 0x6FD0 JUMP JUMPDEST DUP6 PUSH2 0x482C SWAP2 SWAP1 PUSH2 0x6F7A JUMP JUMPDEST SWAP5 POP PUSH1 0x1 ISZERO ISZERO DUP7 ISZERO ISZERO EQ ISZERO PUSH2 0x4888 JUMPI PUSH1 0xD SLOAD PUSH8 0xDE0B6B3A7640000 PUSH1 0xC SLOAD PUSH1 0x16 SLOAD PUSH2 0x4857 SWAP2 SWAP1 PUSH2 0x71CC JUMP JUMPDEST PUSH2 0x4861 SWAP2 SWAP1 PUSH2 0x7172 JUMP JUMPDEST PUSH2 0x486B SWAP2 SWAP1 PUSH2 0x6FD0 JUMP JUMPDEST PUSH1 0xF PUSH1 0x0 DUP3 DUP3 SLOAD PUSH2 0x487C SWAP2 SWAP1 PUSH2 0x6F7A JUMP JUMPDEST SWAP3 POP POP DUP2 SWAP1 SSTORE POP PUSH2 0x48EA JUMP JUMPDEST DUP4 PUSH1 0x14 PUSH1 0x0 DUP3 DUP3 SLOAD PUSH2 0x489A SWAP2 SWAP1 PUSH2 0x6F7A JUMP JUMPDEST SWAP3 POP POP DUP2 SWAP1 SSTORE POP PUSH1 0xD SLOAD PUSH8 0xDE0B6B3A7640000 PUSH1 0xC SLOAD PUSH1 0x16 SLOAD PUSH2 0x48BD SWAP2 SWAP1 PUSH2 0x71CC JUMP JUMPDEST PUSH2 0x48C7 SWAP2 SWAP1 PUSH2 0x7172 JUMP JUMPDEST PUSH2 0x48D1 SWAP2 SWAP1 PUSH2 0x6FD0 JUMP JUMPDEST PUSH1 0x13 PUSH1 0x0 DUP3 DUP3 SLOAD PUSH2 0x48E2 SWAP2 SWAP1 PUSH2 0x71CC JUMP JUMPDEST SWAP3 POP POP DUP2 SWAP1 SSTORE POP JUMPDEST PUSH1 0x0 SWAP3 POP JUMPDEST POP POP PUSH2 0x44AE JUMP JUMPDEST POP POP PUSH1 0x1 PUSH1 0x2E DUP2 SWAP1 SSTORE POP SWAP3 SWAP2 POP POP JUMP JUMPDEST PUSH1 0x0 PUSH1 0x1 PUSH1 0x2E SLOAD EQ PUSH2 0x494D JUMPI PUSH1 0x40 MLOAD PUSH32 0x8C379A000000000000000000000000000000000000000000000000000000000 DUP2 MSTORE PUSH1 0x4 ADD PUSH2 0x4944 SWAP1 PUSH2 0x6E4E JUMP JUMPDEST PUSH1 0x40 MLOAD DUP1 SWAP2 SUB SWAP1 REVERT JUMPDEST PUSH1 0x0 PUSH1 0x2E DUP2 SWAP1 SSTORE POP PUSH1 0x0 DUP4 SWAP1 POP PUSH1 0x0 PUSH1 0x1 SWAP1 POP JUMPDEST PUSH1 0x1 ISZERO ISZERO DUP2 ISZERO ISZERO EQ ISZERO PUSH2 0x4DA9 JUMPI PUSH1 0x0 PUSH8 0xDE0B6B3A7640000 PUSH1 0x18 SLOAD PUSH1 0x9 SLOAD PUSH2 0x4989 SWAP2 SWAP1 PUSH2 0x7172 JUMP JUMPDEST PUSH2 0x4993 SWAP2 SWAP1 PUSH2 0x6FD0 JUMP JUMPDEST SWAP1 POP PUSH1 0x0 PUSH2 0x49A9 PUSH1 0x5 SLOAD PUSH1 0x6 SLOAD PUSH1 0x7 SLOAD DUP6 PUSH2 0x60CF JUMP JUMPDEST SWAP1 POP PUSH1 0xD SLOAD PUSH8 0xDE0B6B3A7640000 PUSH1 0xC SLOAD DUP5 PUSH2 0x49C5 SWAP2 SWAP1 PUSH2 0x71CC JUMP JUMPDEST PUSH2 0x49CF SWAP2 SWAP1 PUSH2 0x7172 JUMP JUMPDEST PUSH2 0x49D9 SWAP2 SWAP1 PUSH2 0x6FD0 JUMP JUMPDEST DUP5 GT ISZERO PUSH2 0x4C3F JUMPI PUSH1 0x0 PUSH2 0x49F5 PUSH1 0x5 SLOAD PUSH1 0x6 SLOAD PUSH1 0x7 SLOAD DUP6 DUP8 PUSH2 0x5EA1 JUMP JUMPDEST SWAP1 POP PUSH1 0xE SLOAD PUSH8 0xDE0B6B3A7640000 DUP4 PUSH1 0xB SLOAD PUSH2 0x4A11 SWAP2 SWAP1 PUSH2 0x71CC JUMP JUMPDEST PUSH2 0x4A1B SWAP2 SWAP1 PUSH2 0x7172 JUMP JUMPDEST PUSH2 0x4A25 SWAP2 SWAP1 PUSH2 0x6FD0 JUMP JUMPDEST DUP7 PUSH2 0x4A30 SWAP2 SWAP1 PUSH2 0x6F7A JUMP JUMPDEST SWAP6 POP PUSH1 0xD SLOAD PUSH8 0xDE0B6B3A7640000 PUSH1 0xC SLOAD DUP6 PUSH2 0x4A4C SWAP2 SWAP1 PUSH2 0x71CC JUMP JUMPDEST PUSH2 0x4A56 SWAP2 SWAP1 PUSH2 0x7172 JUMP JUMPDEST PUSH2 0x4A60 SWAP2 SWAP1 PUSH2 0x6FD0 JUMP JUMPDEST DUP6 PUSH2 0x4A6B SWAP2 SWAP1 PUSH2 0x71CC JUMP JUMPDEST SWAP5 POP PUSH1 0x1 ISZERO ISZERO DUP8 ISZERO ISZERO EQ ISZERO PUSH2 0x4AC5 JUMPI PUSH1 0xE SLOAD PUSH8 0xDE0B6B3A7640000 DUP4 PUSH1 0xB SLOAD PUSH2 0x4A94 SWAP2 SWAP1 PUSH2 0x71CC JUMP JUMPDEST PUSH2 0x4A9E SWAP2 SWAP1 PUSH2 0x7172 JUMP JUMPDEST PUSH2 0x4AA8 SWAP2 SWAP1 PUSH2 0x6FD0 JUMP JUMPDEST PUSH1 0x10 PUSH1 0x0 DUP3 DUP3 SLOAD PUSH2 0x4AB9 SWAP2 SWAP1 PUSH2 0x6F7A JUMP JUMPDEST SWAP3 POP POP DUP2 SWAP1 SSTORE POP PUSH2 0x4B52 JUMP JUMPDEST PUSH1 0xE SLOAD PUSH8 0xDE0B6B3A7640000 DUP4 PUSH1 0xB SLOAD PUSH2 0x4ADF SWAP2 SWAP1 PUSH2 0x71CC JUMP JUMPDEST PUSH2 0x4AE9 SWAP2 SWAP1 PUSH2 0x7172 JUMP JUMPDEST PUSH2 0x4AF3 SWAP2 SWAP1 PUSH2 0x6FD0 JUMP JUMPDEST PUSH1 0x14 PUSH1 0x0 DUP3 DUP3 SLOAD PUSH2 0x4B04 SWAP2 SWAP1 PUSH2 0x71CC JUMP JUMPDEST SWAP3 POP POP DUP2 SWAP1 SSTORE POP PUSH1 0xD SLOAD PUSH8 0xDE0B6B3A7640000 PUSH1 0xC SLOAD DUP6 PUSH2 0x4B25 SWAP2 SWAP1 PUSH2 0x71CC JUMP JUMPDEST PUSH2 0x4B2F SWAP2 SWAP1 PUSH2 0x7172 JUMP JUMPDEST PUSH2 0x4B39 SWAP2 SWAP1 PUSH2 0x6FD0 JUMP JUMPDEST PUSH1 0x13 PUSH1 0x0 DUP3 DUP3 SLOAD PUSH2 0x4B4A SWAP2 SWAP1 PUSH2 0x6F7A JUMP JUMPDEST SWAP3 POP POP DUP2 SWAP1 SSTORE POP JUMPDEST PUSH1 0x0 PUSH1 0xE SLOAD SWAP1 POP PUSH1 0x0 PUSH1 0xD SLOAD SWAP1 POP DUP5 PUSH1 0xA SLOAD DUP3 PUSH2 0x4B6F SWAP2 SWAP1 PUSH2 0x7172 JUMP JUMPDEST PUSH2 0x4B79 SWAP2 SWAP1 PUSH2 0x6FD0 JUMP JUMPDEST PUSH1 0xD DUP2 SWAP1 SSTORE POP DUP4 PUSH1 0x9 SLOAD DUP4 PUSH2 0x4B8E SWAP2 SWAP1 PUSH2 0x7172 JUMP JUMPDEST PUSH2 0x4B98 SWAP2 SWAP1 PUSH2 0x6FD0 JUMP JUMPDEST PUSH1 0xE DUP2 SWAP1 SSTORE POP PUSH1 0xD SLOAD DUP3 PUSH1 0xE SLOAD DUP4 DUP7 PUSH2 0x4BB1 SWAP2 SWAP1 PUSH2 0x7172 JUMP JUMPDEST PUSH2 0x4BBB SWAP2 SWAP1 PUSH2 0x7172 JUMP JUMPDEST PUSH2 0x4BC5 SWAP2 SWAP1 PUSH2 0x6FD0 JUMP JUMPDEST PUSH2 0x4BCF SWAP2 SWAP1 PUSH2 0x6FD0 JUMP JUMPDEST PUSH1 0x17 DUP2 SWAP1 SSTORE POP PUSH1 0x9 SLOAD PUSH1 0xB DUP2 SWAP1 SSTORE POP PUSH1 0xA SLOAD PUSH1 0xC DUP2 SWAP1 SSTORE POP PUSH2 0x4BFB PUSH1 0xB SLOAD PUSH1 0xC SLOAD PUSH1 0x7 SLOAD PUSH1 0x17 SLOAD PUSH2 0x5F95 JUMP JUMPDEST PUSH1 0x5 DUP2 SWAP1 SSTORE POP PUSH1 0x5 SLOAD PUSH8 0x1BC16D674EC80000 PUSH2 0x4C17 SWAP2 SWAP1 PUSH2 0x71CC JUMP JUMPDEST PUSH1 0x6 DUP2 SWAP1 SSTORE POP PUSH2 0x4C25 PUSH2 0x4ED3 JUMP JUMPDEST PUSH1 0x9 SLOAD PUSH1 0xB DUP2 SWAP1 SSTORE POP PUSH1 0xA SLOAD PUSH1 0xC DUP2 SWAP1 SSTORE POP POP POP POP PUSH2 0x4DA2 JUMP JUMPDEST PUSH1 0xB SLOAD PUSH1 0x15 DUP2 SWAP1 SSTORE POP PUSH1 0xC SLOAD PUSH1 0x16 DUP2 SWAP1 SSTORE POP PUSH8 0xDE0B6B3A7640000 PUSH1 0xD SLOAD DUP6 PUSH2 0x4C68 SWAP2 SWAP1 PUSH2 0x7172 JUMP JUMPDEST PUSH2 0x4C72 SWAP2 SWAP1 PUSH2 0x6FD0 JUMP JUMPDEST PUSH1 0xC PUSH1 0x0 DUP3 DUP3 SLOAD PUSH2 0x4C83 SWAP2 SWAP1 PUSH2 0x6F7A JUMP JUMPDEST SWAP3 POP POP DUP2 SWAP1 SSTORE POP PUSH2 0x4C9E PUSH1 0x5 SLOAD PUSH1 0x6 SLOAD PUSH1 0x7 SLOAD PUSH1 0xC SLOAD PUSH2 0x60CF JUMP JUMPDEST PUSH1 0xB DUP2 SWAP1 SSTORE POP PUSH1 0xE SLOAD PUSH8 0xDE0B6B3A7640000 PUSH1 0xB SLOAD PUSH1 0x15 SLOAD PUSH2 0x4CC0 SWAP2 SWAP1 PUSH2 0x71CC JUMP JUMPDEST PUSH2 0x4CCA SWAP2 SWAP1 PUSH2 0x7172 JUMP JUMPDEST PUSH2 0x4CD4 SWAP2 SWAP1 PUSH2 0x6FD0 JUMP JUMPDEST DUP6 PUSH2 0x4CDF SWAP2 SWAP1 PUSH2 0x6F7A JUMP JUMPDEST SWAP5 POP PUSH1 0x1 ISZERO ISZERO DUP7 ISZERO ISZERO EQ ISZERO PUSH2 0x4D3B JUMPI PUSH1 0xE SLOAD PUSH8 0xDE0B6B3A7640000 PUSH1 0xB SLOAD PUSH1 0x15 SLOAD PUSH2 0x4D0A SWAP2 SWAP1 PUSH2 0x71CC JUMP JUMPDEST PUSH2 0x4D14 SWAP2 SWAP1 PUSH2 0x7172 JUMP JUMPDEST PUSH2 0x4D1E SWAP2 SWAP1 PUSH2 0x6FD0 JUMP JUMPDEST PUSH1 0x10 PUSH1 0x0 DUP3 DUP3 SLOAD PUSH2 0x4D2F SWAP2 SWAP1 PUSH2 0x6F7A JUMP JUMPDEST SWAP3 POP POP DUP2 SWAP1 SSTORE POP PUSH2 0x4D9D JUMP JUMPDEST DUP4 PUSH1 0x13 PUSH1 0x0 DUP3 DUP3 SLOAD PUSH2 0x4D4D SWAP2 SWAP1 PUSH2 0x6F7A JUMP JUMPDEST SWAP3 POP POP DUP2 SWAP1 SSTORE POP PUSH1 0xE SLOAD PUSH8 0xDE0B6B3A7640000 PUSH1 0xB SLOAD PUSH1 0x15 SLOAD PUSH2 0x4D70 SWAP2 SWAP1 PUSH2 0x71CC JUMP JUMPDEST PUSH2 0x4D7A SWAP2 SWAP1 PUSH2 0x7172 JUMP JUMPDEST PUSH2 0x4D84 SWAP2 SWAP1 PUSH2 0x6FD0 JUMP JUMPDEST PUSH1 0x14 PUSH1 0x0 DUP3 DUP3 SLOAD PUSH2 0x4D95 SWAP2 SWAP1 PUSH2 0x71CC JUMP JUMPDEST SWAP3 POP POP DUP2 SWAP1 SSTORE POP JUMPDEST PUSH1 0x0 SWAP3 POP JUMPDEST POP POP PUSH2 0x4961 JUMP JUMPDEST POP POP PUSH1 0x1 PUSH1 0x2E DUP2 SWAP1 SSTORE POP SWAP3 SWAP2 POP POP JUMP JUMPDEST PUSH2 0x4DCE DUP2 PUSH1 0x0 SLOAD PUSH2 0x5D48 SWAP1 SWAP2 SWAP1 PUSH4 0xFFFFFFFF AND JUMP JUMPDEST PUSH1 0x0 DUP2 SWAP1 SSTORE POP PUSH2 0x4E26 DUP2 PUSH1 0x1 PUSH1 0x0 DUP6 PUSH20 0xFFFFFFFFFFFFFFFFFFFFFFFFFFFFFFFFFFFFFFFF AND PUSH20 0xFFFFFFFFFFFFFFFFFFFFFFFFFFFFFFFFFFFFFFFF AND DUP2 MSTORE PUSH1 0x20 ADD SWAP1 DUP2 MSTORE PUSH1 0x20 ADD PUSH1 0x0 KECCAK256 SLOAD PUSH2 0x5D48 SWAP1 SWAP2 SWAP1 PUSH4 0xFFFFFFFF AND JUMP JUMPDEST PUSH1 0x1 PUSH1 0x0 DUP5 PUSH20 0xFFFFFFFFFFFFFFFFFFFFFFFFFFFFFFFFFFFFFFFF AND PUSH20 0xFFFFFFFFFFFFFFFFFFFFFFFFFFFFFFFFFFFFFFFF AND DUP2 MSTORE PUSH1 0x20 ADD SWAP1 DUP2 MSTORE PUSH1 0x20 ADD PUSH1 0x0 KECCAK256 DUP2 SWAP1 SSTORE POP DUP2 PUSH20 0xFFFFFFFFFFFFFFFFFFFFFFFFFFFFFFFFFFFFFFFF AND PUSH1 0x0 PUSH20 0xFFFFFFFFFFFFFFFFFFFFFFFFFFFFFFFFFFFFFFFF AND PUSH32 0xDDF252AD1BE2C89B69C2B068FC378DAA952BA7F163C4A11628F55A4DF523B3EF DUP4 PUSH1 0x40 MLOAD PUSH2 0x4EC7 SWAP2 SWAP1 PUSH2 0x6E6E JUMP JUMPDEST PUSH1 0x40 MLOAD DUP1 SWAP2 SUB SWAP1 LOG3 POP POP JUMP JUMPDEST PUSH2 0x4FC3 PUSH1 0x11 SLOAD PUSH1 0x12 SLOAD PUSH1 0x11 SLOAD PUSH1 0x6 SLOAD PUSH1 0xD SLOAD PUSH2 0x4EEF SWAP2 SWAP1 PUSH2 0x7172 JUMP JUMPDEST PUSH2 0x4EF9 SWAP2 SWAP1 PUSH2 0x7172 JUMP JUMPDEST PUSH1 0xE SLOAD PUSH1 0x5 SLOAD PUSH1 0x12 SLOAD PUSH2 0x4F0C SWAP2 SWAP1 PUSH2 0x7172 JUMP JUMPDEST PUSH2 0x4F16 SWAP2 SWAP1 PUSH2 0x7172 JUMP JUMPDEST PUSH2 0x4F20 SWAP2 SWAP1 PUSH2 0x6F7A JUMP JUMPDEST PUSH23 0xA70C3C40A64E6C51999090B65F67D9240000000000000 PUSH1 0x13 SLOAD PUSH1 0x14 SLOAD PUSH1 0x13 SLOAD PUSH1 0x6 SLOAD PUSH1 0xD SLOAD PUSH2 0x4F51 SWAP2 SWAP1 PUSH2 0x7172 JUMP JUMPDEST PUSH2 0x4F5B SWAP2 SWAP1 PUSH2 0x7172 JUMP JUMPDEST PUSH1 0xE SLOAD PUSH1 0x5 SLOAD PUSH1 0x14 SLOAD PUSH2 0x4F6E SWAP2 SWAP1 PUSH2 0x7172 JUMP JUMPDEST PUSH2 0x4F78 SWAP2 SWAP1 PUSH2 0x7172 JUMP JUMPDEST PUSH2 0x4F82 SWAP2 SWAP1 PUSH2 0x6F7A JUMP JUMPDEST PUSH2 0x4F8C SWAP2 SWAP1 PUSH2 0x7172 JUMP JUMPDEST PUSH2 0x4F96 SWAP2 SWAP1 PUSH2 0x7172 JUMP JUMPDEST PUSH2 0x4FA0 SWAP2 SWAP1 PUSH2 0x7172 JUMP JUMPDEST PUSH2 0x4FAA SWAP2 SWAP1 PUSH2 0x6FD0 JUMP JUMPDEST PUSH2 0x4FB4 SWAP2 SWAP1 PUSH2 0x6FD0 JUMP JUMPDEST PUSH2 0x4FBE SWAP2 SWAP1 PUSH2 0x6FD0 JUMP JUMPDEST PUSH2 0x61CF JUMP JUMPDEST PUSH1 0x24 DUP2 SWAP1 SSTORE POP PUSH1 0x0 PUSH1 0x25 SLOAD PUSH1 0x26 SLOAD PUSH1 0xE SLOAD PUSH15 0xC097CE7BC90715B34B9F1000000000 PUSH1 0x24 SLOAD PUSH1 0xB SLOAD PUSH2 0x4FF4 SWAP2 SWAP1 PUSH2 0x7172 JUMP JUMPDEST PUSH2 0x4FFE SWAP2 SWAP1 PUSH2 0x7172 JUMP JUMPDEST PUSH2 0x5008 SWAP2 SWAP1 PUSH2 0x6FD0 JUMP JUMPDEST PUSH2 0x5012 SWAP2 SWAP1 PUSH2 0x6FD0 JUMP JUMPDEST PUSH2 0x501C SWAP2 SWAP1 PUSH2 0x6FD0 JUMP JUMPDEST SWAP1 POP PUSH1 0x0 PUSH1 0x25 SLOAD PUSH1 0x26 SLOAD PUSH1 0xE SLOAD PUSH15 0xC097CE7BC90715B34B9F1000000000 PUSH1 0x24 SLOAD PUSH1 0xC SLOAD PUSH2 0x5049 SWAP2 SWAP1 PUSH2 0x7172 JUMP JUMPDEST PUSH2 0x5053 SWAP2 SWAP1 PUSH2 0x7172 JUMP JUMPDEST PUSH2 0x505D SWAP2 SWAP1 PUSH2 0x6FD0 JUMP JUMPDEST PUSH2 0x5067 SWAP2 SWAP1 PUSH2 0x6FD0 JUMP JUMPDEST PUSH2 0x5071 SWAP2 SWAP1 PUSH2 0x6FD0 JUMP JUMPDEST SWAP1 POP PUSH2 0x50D6 PUSH1 0x1D SLOAD DUP4 PUSH8 0xDE0B6B3A7640000 PUSH1 0x10 SLOAD DUP7 PUSH2 0x5091 SWAP2 SWAP1 PUSH2 0x6F7A JUMP JUMPDEST PUSH2 0x509B SWAP2 SWAP1 PUSH2 0x7172 JUMP JUMPDEST PUSH2 0x50A5 SWAP2 SWAP1 PUSH2 0x6FD0 JUMP JUMPDEST DUP4 PUSH8 0xDE0B6B3A7640000 PUSH1 0xF SLOAD DUP7 PUSH2 0x50BD SWAP2 SWAP1 PUSH2 0x6F7A JUMP JUMPDEST PUSH2 0x50C7 SWAP2 SWAP1 PUSH2 0x7172 JUMP JUMPDEST PUSH2 0x50D1 SWAP2 SWAP1 PUSH2 0x6FD0 JUMP JUMPDEST PUSH2 0x6260 JUMP JUMPDEST PUSH1 0x23 DUP2 SWAP1 SSTORE POP PUSH15 0xC097CE7BC90715B34B9F1000000000 PUSH1 0x24 SLOAD PUSH1 0x23 SLOAD PUSH1 0x8 SLOAD PUSH2 0x50FF SWAP2 SWAP1 PUSH2 0x7172 JUMP JUMPDEST PUSH2 0x5109 SWAP2 SWAP1 PUSH2 0x7172 JUMP JUMPDEST PUSH2 0x5113 SWAP2 SWAP1 PUSH2 0x6FD0 JUMP JUMPDEST PUSH1 0x7 DUP2 SWAP1 SSTORE POP PUSH1 0x2 PUSH1 0x7 SLOAD PUSH2 0x5128 SWAP2 SWAP1 PUSH2 0x6FD0 JUMP JUMPDEST PUSH1 0x9 DUP2 SWAP1 SSTORE POP PUSH1 0x9 SLOAD PUSH1 0xA DUP2 SWAP1 SSTORE POP PUSH1 0x24 SLOAD PUSH1 0x26 DUP2 SWAP1 SSTORE POP PUSH1 0x23 SLOAD PUSH1 0x25 DUP2 SWAP1 SSTORE POP POP POP JUMP JUMPDEST PUSH2 0x519F DUP2 PUSH1 0x1 PUSH1 0x0 DUP6 PUSH20 0xFFFFFFFFFFFFFFFFFFFFFFFFFFFFFFFFFFFFFFFF AND PUSH20 0xFFFFFFFFFFFFFFFFFFFFFFFFFFFFFFFFFFFFFFFF AND DUP2 MSTORE PUSH1 0x20 ADD SWAP1 DUP2 MSTORE PUSH1 0x20 ADD PUSH1 0x0 KECCAK256 SLOAD PUSH2 0x40B9 SWAP1 SWAP2 SWAP1 PUSH4 0xFFFFFFFF AND JUMP JUMPDEST PUSH1 0x1 PUSH1 0x0 DUP5 PUSH20 0xFFFFFFFFFFFFFFFFFFFFFFFFFFFFFFFFFFFFFFFF AND PUSH20 0xFFFFFFFFFFFFFFFFFFFFFFFFFFFFFFFFFFFFFFFF AND DUP2 MSTORE PUSH1 0x20 ADD SWAP1 DUP2 MSTORE PUSH1 0x20 ADD PUSH1 0x0 KECCAK256 DUP2 SWAP1 SSTORE POP PUSH2 0x51F7 DUP2 PUSH1 0x0 SLOAD PUSH2 0x40B9 SWAP1 SWAP2 SWAP1 PUSH4 0xFFFFFFFF AND JUMP JUMPDEST PUSH1 0x0 DUP2 SWAP1 SSTORE POP PUSH1 0x0 PUSH20 0xFFFFFFFFFFFFFFFFFFFFFFFFFFFFFFFFFFFFFFFF AND DUP3 PUSH20 0xFFFFFFFFFFFFFFFFFFFFFFFFFFFFFFFFFFFFFFFF AND PUSH32 0xDDF252AD1BE2C89B69C2B068FC378DAA952BA7F163C4A11628F55A4DF523B3EF DUP4 PUSH1 0x40 MLOAD PUSH2 0x525B SWAP2 SWAP1 PUSH2 0x6E6E JUMP JUMPDEST PUSH1 0x40 MLOAD DUP1 SWAP2 SUB SWAP1 LOG3 POP POP JUMP JUMPDEST PUSH1 0x0 DUP1 DUP5 PUSH20 0xFFFFFFFFFFFFFFFFFFFFFFFFFFFFFFFFFFFFFFFF AND PUSH1 0x40 MLOAD DUP1 PUSH1 0x40 ADD PUSH1 0x40 MSTORE DUP1 PUSH1 0x19 DUP2 MSTORE PUSH1 0x20 ADD PUSH32 0x7472616E7366657228616464726573732C75696E743235362900000000000000 DUP2 MSTORE POP DUP1 MLOAD SWAP1 PUSH1 0x20 ADD KECCAK256 DUP6 DUP6 PUSH1 0x40 MLOAD PUSH1 0x24 ADD PUSH2 0x52D1 SWAP3 SWAP2 SWAP1 PUSH2 0x6BA5 JUMP JUMPDEST PUSH1 0x40 MLOAD PUSH1 0x20 DUP2 DUP4 SUB SUB DUP2 MSTORE SWAP1 PUSH1 0x40 MSTORE SWAP1 PUSH28 0xFFFFFFFFFFFFFFFFFFFFFFFFFFFFFFFFFFFFFFFFFFFFFFFFFFFFFFFF NOT AND PUSH1 0x20 DUP3 ADD DUP1 MLOAD PUSH28 0xFFFFFFFFFFFFFFFFFFFFFFFFFFFFFFFFFFFFFFFFFFFFFFFFFFFFFFFF DUP4 DUP2 DUP4 AND OR DUP4 MSTORE POP POP POP POP PUSH1 0x40 MLOAD PUSH2 0x533B SWAP2 SWAP1 PUSH2 0x6AF7 JUMP JUMPDEST PUSH1 0x0 PUSH1 0x40 MLOAD DUP1 DUP4 SUB DUP2 PUSH1 0x0 DUP7 GAS CALL SWAP2 POP POP RETURNDATASIZE DUP1 PUSH1 0x0 DUP2 EQ PUSH2 0x5378 JUMPI PUSH1 0x40 MLOAD SWAP2 POP PUSH1 0x1F NOT PUSH1 0x3F RETURNDATASIZE ADD AND DUP3 ADD PUSH1 0x40 MSTORE RETURNDATASIZE DUP3 MSTORE RETURNDATASIZE PUSH1 0x0 PUSH1 0x20 DUP5 ADD RETURNDATACOPY PUSH2 0x537D JUMP JUMPDEST PUSH1 0x60 SWAP2 POP JUMPDEST POP SWAP2 POP SWAP2 POP DUP2 DUP1 ISZERO PUSH2 0x53AB JUMPI POP PUSH1 0x0 DUP2 MLOAD EQ DUP1 PUSH2 0x53AA JUMPI POP DUP1 DUP1 PUSH1 0x20 ADD SWAP1 MLOAD DUP2 ADD SWAP1 PUSH2 0x53A9 SWAP2 SWAP1 PUSH2 0x660B JUMP JUMPDEST JUMPDEST JUMPDEST PUSH2 0x53EA JUMPI PUSH1 0x40 MLOAD PUSH32 0x8C379A000000000000000000000000000000000000000000000000000000000 DUP2 MSTORE PUSH1 0x4 ADD PUSH2 0x53E1 SWAP1 PUSH2 0x6CEE JUMP JUMPDEST PUSH1 0x40 MLOAD DUP1 SWAP2 SUB SWAP1 REVERT JUMPDEST POP POP POP POP POP JUMP JUMPDEST PUSH1 0x0 DUP2 DUP4 GT PUSH2 0x5400 JUMPI DUP2 PUSH2 0x5402 JUMP JUMPDEST DUP3 JUMPDEST SWAP1 POP SWAP3 SWAP2 POP POP JUMP JUMPDEST PUSH1 0x0 PUSH1 0x1 PUSH1 0x2E SLOAD EQ PUSH2 0x5451 JUMPI PUSH1 0x40 MLOAD PUSH32 0x8C379A000000000000000000000000000000000000000000000000000000000 DUP2 MSTORE PUSH1 0x4 ADD PUSH2 0x5448 SWAP1 PUSH2 0x6E4E JUMP JUMPDEST PUSH1 0x40 MLOAD DUP1 SWAP2 SUB SWAP1 REVERT JUMPDEST PUSH1 0x0 PUSH1 0x2E DUP2 SWAP1 SSTORE POP PUSH1 0x0 DUP5 SWAP1 POP PUSH1 0x0 PUSH1 0x1 SWAP1 POP JUMPDEST PUSH1 0x1 ISZERO ISZERO DUP2 ISZERO ISZERO EQ ISZERO PUSH2 0x587E JUMPI PUSH1 0x0 PUSH8 0xDE0B6B3A7640000 PUSH1 0x18 SLOAD PUSH1 0x9 SLOAD PUSH2 0x548D SWAP2 SWAP1 PUSH2 0x7172 JUMP JUMPDEST PUSH2 0x5497 SWAP2 SWAP1 PUSH2 0x6FD0 JUMP JUMPDEST SWAP1 POP PUSH1 0x0 PUSH2 0x54AD PUSH1 0x5 SLOAD PUSH1 0x6 SLOAD PUSH1 0x7 SLOAD DUP6 PUSH2 0x5DA1 JUMP JUMPDEST SWAP1 POP PUSH1 0xD SLOAD PUSH8 0xDE0B6B3A7640000 DUP3 PUSH1 0xC SLOAD PUSH2 0x54C9 SWAP2 SWAP1 PUSH2 0x71CC JUMP JUMPDEST PUSH2 0x54D3 SWAP2 SWAP1 PUSH2 0x7172 JUMP JUMPDEST PUSH2 0x54DD SWAP2 SWAP1 PUSH2 0x6FD0 JUMP JUMPDEST DUP5 GT ISZERO PUSH2 0x5743 JUMPI PUSH1 0x0 PUSH2 0x54F9 PUSH1 0x5 SLOAD PUSH1 0x6 SLOAD PUSH1 0x7 SLOAD DUP7 DUP7 PUSH2 0x5EA1 JUMP JUMPDEST SWAP1 POP PUSH1 0xE SLOAD PUSH8 0xDE0B6B3A7640000 PUSH1 0xB SLOAD DUP6 PUSH2 0x5515 SWAP2 SWAP1 PUSH2 0x71CC JUMP JUMPDEST PUSH2 0x551F SWAP2 SWAP1 PUSH2 0x7172 JUMP JUMPDEST PUSH2 0x5529 SWAP2 SWAP1 PUSH2 0x6FD0 JUMP JUMPDEST DUP7 PUSH2 0x5534 SWAP2 SWAP1 PUSH2 0x6F7A JUMP JUMPDEST SWAP6 POP PUSH1 0xD SLOAD PUSH8 0xDE0B6B3A7640000 DUP4 PUSH1 0xC SLOAD PUSH2 0x5550 SWAP2 SWAP1 PUSH2 0x71CC JUMP JUMPDEST PUSH2 0x555A SWAP2 SWAP1 PUSH2 0x7172 JUMP JUMPDEST PUSH2 0x5564 SWAP2 SWAP1 PUSH2 0x6FD0 JUMP JUMPDEST DUP6 PUSH2 0x556F SWAP2 SWAP1 PUSH2 0x71CC JUMP JUMPDEST SWAP5 POP PUSH1 0x1 ISZERO ISZERO DUP8 ISZERO ISZERO EQ ISZERO PUSH2 0x55C9 JUMPI PUSH1 0xD SLOAD PUSH8 0xDE0B6B3A7640000 DUP4 PUSH1 0xC SLOAD PUSH2 0x5598 SWAP2 SWAP1 PUSH2 0x71CC JUMP JUMPDEST PUSH2 0x55A2 SWAP2 SWAP1 PUSH2 0x7172 JUMP JUMPDEST PUSH2 0x55AC SWAP2 SWAP1 PUSH2 0x6FD0 JUMP JUMPDEST PUSH1 0xF PUSH1 0x0 DUP3 DUP3 SLOAD PUSH2 0x55BD SWAP2 SWAP1 PUSH2 0x6F7A JUMP JUMPDEST SWAP3 POP POP DUP2 SWAP1 SSTORE POP PUSH2 0x5656 JUMP JUMPDEST PUSH1 0xE SLOAD PUSH8 0xDE0B6B3A7640000 PUSH1 0xB SLOAD DUP6 PUSH2 0x55E3 SWAP2 SWAP1 PUSH2 0x71CC JUMP JUMPDEST PUSH2 0x55ED SWAP2 SWAP1 PUSH2 0x7172 JUMP JUMPDEST PUSH2 0x55F7 SWAP2 SWAP1 PUSH2 0x6FD0 JUMP JUMPDEST PUSH1 0x14 PUSH1 0x0 DUP3 DUP3 SLOAD PUSH2 0x5608 SWAP2 SWAP1 PUSH2 0x6F7A JUMP JUMPDEST SWAP3 POP POP DUP2 SWAP1 SSTORE POP PUSH1 0xD SLOAD PUSH8 0xDE0B6B3A7640000 DUP4 PUSH1 0xC SLOAD PUSH2 0x5629 SWAP2 SWAP1 PUSH2 0x71CC JUMP JUMPDEST PUSH2 0x5633 SWAP2 SWAP1 PUSH2 0x7172 JUMP JUMPDEST PUSH2 0x563D SWAP2 SWAP1 PUSH2 0x6FD0 JUMP JUMPDEST PUSH1 0x13 PUSH1 0x0 DUP3 DUP3 SLOAD PUSH2 0x564E SWAP2 SWAP1 PUSH2 0x71CC JUMP JUMPDEST SWAP3 POP POP DUP2 SWAP1 SSTORE POP JUMPDEST PUSH1 0x0 PUSH1 0xE SLOAD SWAP1 POP PUSH1 0x0 PUSH1 0xD SLOAD SWAP1 POP DUP4 PUSH1 0xA SLOAD DUP3 PUSH2 0x5673 SWAP2 SWAP1 PUSH2 0x7172 JUMP JUMPDEST PUSH2 0x567D SWAP2 SWAP1 PUSH2 0x6FD0 JUMP JUMPDEST PUSH1 0xD DUP2 SWAP1 SSTORE POP DUP5 PUSH1 0x9 SLOAD DUP4 PUSH2 0x5692 SWAP2 SWAP1 PUSH2 0x7172 JUMP JUMPDEST PUSH2 0x569C SWAP2 SWAP1 PUSH2 0x6FD0 JUMP JUMPDEST PUSH1 0xE DUP2 SWAP1 SSTORE POP PUSH1 0xD SLOAD DUP3 PUSH1 0xE SLOAD DUP4 DUP7 PUSH2 0x56B5 SWAP2 SWAP1 PUSH2 0x7172 JUMP JUMPDEST PUSH2 0x56BF SWAP2 SWAP1 PUSH2 0x7172 JUMP JUMPDEST PUSH2 0x56C9 SWAP2 SWAP1 PUSH2 0x6FD0 JUMP JUMPDEST PUSH2 0x56D3 SWAP2 SWAP1 PUSH2 0x6FD0 JUMP JUMPDEST PUSH1 0x17 DUP2 SWAP1 SSTORE POP PUSH1 0x9 SLOAD PUSH1 0xB DUP2 SWAP1 SSTORE POP PUSH1 0xA SLOAD PUSH1 0xC DUP2 SWAP1 SSTORE POP PUSH2 0x56FF PUSH1 0xB SLOAD PUSH1 0xC SLOAD PUSH1 0x7 SLOAD PUSH1 0x17 SLOAD PUSH2 0x5F95 JUMP JUMPDEST PUSH1 0x5 DUP2 SWAP1 SSTORE POP PUSH1 0x5 SLOAD PUSH8 0x1BC16D674EC80000 PUSH2 0x571B SWAP2 SWAP1 PUSH2 0x71CC JUMP JUMPDEST PUSH1 0x6 DUP2 SWAP1 SSTORE POP PUSH2 0x5729 PUSH2 0x4ED3 JUMP JUMPDEST PUSH1 0x9 SLOAD PUSH1 0xB DUP2 SWAP1 SSTORE POP PUSH1 0xA SLOAD PUSH1 0xC DUP2 SWAP1 SSTORE POP POP POP POP PUSH2 0x5877 JUMP JUMPDEST PUSH1 0xB SLOAD PUSH1 0x15 DUP2 SWAP1 SSTORE POP PUSH1 0xC SLOAD PUSH1 0x16 DUP2 SWAP1 SSTORE POP PUSH8 0xDE0B6B3A7640000 PUSH1 0xD SLOAD DUP6 PUSH2 0x576C SWAP2 SWAP1 PUSH2 0x7172 JUMP JUMPDEST PUSH2 0x5776 SWAP2 SWAP1 PUSH2 0x6FD0 JUMP JUMPDEST PUSH1 0xC PUSH1 0x0 DUP3 DUP3 SLOAD PUSH2 0x5787 SWAP2 SWAP1 PUSH2 0x71CC JUMP JUMPDEST SWAP3 POP POP DUP2 SWAP1 SSTORE POP PUSH2 0x57A2 PUSH1 0x5 SLOAD PUSH1 0x6 SLOAD PUSH1 0x7 SLOAD PUSH1 0xC SLOAD PUSH2 0x60CF JUMP JUMPDEST PUSH1 0xB DUP2 SWAP1 SSTORE POP PUSH1 0xE SLOAD PUSH8 0xDE0B6B3A7640000 PUSH1 0x15 SLOAD PUSH1 0xB SLOAD PUSH2 0x57C4 SWAP2 SWAP1 PUSH2 0x71CC JUMP JUMPDEST PUSH2 0x57CE SWAP2 SWAP1 PUSH2 0x7172 JUMP JUMPDEST PUSH2 0x57D8 SWAP2 SWAP1 PUSH2 0x6FD0 JUMP JUMPDEST DUP6 PUSH2 0x57E3 SWAP2 SWAP1 PUSH2 0x6F7A JUMP JUMPDEST SWAP5 POP PUSH1 0x1 ISZERO ISZERO DUP7 ISZERO ISZERO EQ ISZERO PUSH2 0x5810 JUMPI DUP4 PUSH1 0xF PUSH1 0x0 DUP3 DUP3 SLOAD PUSH2 0x5804 SWAP2 SWAP1 PUSH2 0x6F7A JUMP JUMPDEST SWAP3 POP POP DUP2 SWAP1 SSTORE POP PUSH2 0x5872 JUMP JUMPDEST PUSH1 0xE SLOAD PUSH8 0xDE0B6B3A7640000 PUSH1 0x15 SLOAD PUSH1 0xB SLOAD PUSH2 0x582C SWAP2 SWAP1 PUSH2 0x71CC JUMP JUMPDEST PUSH2 0x5836 SWAP2 SWAP1 PUSH2 0x7172 JUMP JUMPDEST PUSH2 0x5840 SWAP2 SWAP1 PUSH2 0x6FD0 JUMP JUMPDEST PUSH1 0x14 PUSH1 0x0 DUP3 DUP3 SLOAD PUSH2 0x5851 SWAP2 SWAP1 PUSH2 0x6F7A JUMP JUMPDEST SWAP3 POP POP DUP2 SWAP1 SSTORE POP DUP4 PUSH1 0x13 PUSH1 0x0 DUP3 DUP3 SLOAD PUSH2 0x586A SWAP2 SWAP1 PUSH2 0x71CC JUMP JUMPDEST SWAP3 POP POP DUP2 SWAP1 SSTORE POP JUMPDEST PUSH1 0x0 SWAP3 POP JUMPDEST POP POP PUSH2 0x5465 JUMP JUMPDEST PUSH1 0x0 ISZERO ISZERO DUP5 ISZERO ISZERO EQ ISZERO PUSH2 0x5898 JUMPI DUP3 DUP6 GT PUSH2 0x5897 JUMPI PUSH1 0x0 DUP1 REVERT JUMPDEST JUMPDEST POP POP PUSH1 0x1 PUSH1 0x2E DUP2 SWAP1 SSTORE POP SWAP4 SWAP3 POP POP POP JUMP JUMPDEST PUSH1 0x0 PUSH1 0x1 PUSH1 0x2E SLOAD EQ PUSH2 0x58F0 JUMPI PUSH1 0x40 MLOAD PUSH32 0x8C379A000000000000000000000000000000000000000000000000000000000 DUP2 MSTORE PUSH1 0x4 ADD PUSH2 0x58E7 SWAP1 PUSH2 0x6E4E JUMP JUMPDEST PUSH1 0x40 MLOAD DUP1 SWAP2 SUB SWAP1 REVERT JUMPDEST PUSH1 0x0 PUSH1 0x2E DUP2 SWAP1 SSTORE POP PUSH1 0x0 DUP5 SWAP1 POP PUSH1 0x0 PUSH1 0x1 SWAP1 POP JUMPDEST PUSH1 0x1 ISZERO ISZERO DUP2 ISZERO ISZERO EQ ISZERO PUSH2 0x5D1D JUMPI PUSH1 0x0 PUSH8 0xDE0B6B3A7640000 PUSH1 0x18 SLOAD PUSH1 0xA SLOAD PUSH2 0x592C SWAP2 SWAP1 PUSH2 0x7172 JUMP JUMPDEST PUSH2 0x5936 SWAP2 SWAP1 PUSH2 0x6FD0 JUMP JUMPDEST SWAP1 POP PUSH1 0x0 PUSH2 0x594C PUSH1 0x5 SLOAD PUSH1 0x6 SLOAD PUSH1 0x7 SLOAD DUP6 PUSH2 0x60CF JUMP JUMPDEST SWAP1 POP PUSH1 0xE SLOAD PUSH8 0xDE0B6B3A7640000 DUP3 PUSH1 0xB SLOAD PUSH2 0x5968 SWAP2 SWAP1 PUSH2 0x71CC JUMP JUMPDEST PUSH2 0x5972 SWAP2 SWAP1 PUSH2 0x7172 JUMP JUMPDEST PUSH2 0x597C SWAP2 SWAP1 PUSH2 0x6FD0 JUMP JUMPDEST DUP5 GT ISZERO PUSH2 0x5BE2 JUMPI PUSH1 0x0 PUSH2 0x5998 PUSH1 0x5 SLOAD PUSH1 0x6 SLOAD PUSH1 0x7 SLOAD DUP6 DUP8 PUSH2 0x5EA1 JUMP JUMPDEST SWAP1 POP PUSH1 0xD SLOAD PUSH8 0xDE0B6B3A7640000 PUSH1 0xC SLOAD DUP6 PUSH2 0x59B4 SWAP2 SWAP1 PUSH2 0x71CC JUMP JUMPDEST PUSH2 0x59BE SWAP2 SWAP1 PUSH2 0x7172 JUMP JUMPDEST PUSH2 0x59C8 SWAP2 SWAP1 PUSH2 0x6FD0 JUMP JUMPDEST DUP7 PUSH2 0x59D3 SWAP2 SWAP1 PUSH2 0x6F7A JUMP JUMPDEST SWAP6 POP PUSH1 0xE SLOAD PUSH8 0xDE0B6B3A7640000 DUP4 PUSH1 0xB SLOAD PUSH2 0x59EF SWAP2 SWAP1 PUSH2 0x71CC JUMP JUMPDEST PUSH2 0x59F9 SWAP2 SWAP1 PUSH2 0x7172 JUMP JUMPDEST PUSH2 0x5A03 SWAP2 SWAP1 PUSH2 0x6FD0 JUMP JUMPDEST DUP6 PUSH2 0x5A0E SWAP2 SWAP1 PUSH2 0x71CC JUMP JUMPDEST SWAP5 POP PUSH1 0x1 ISZERO ISZERO DUP8 ISZERO ISZERO EQ ISZERO PUSH2 0x5A68 JUMPI PUSH1 0xE SLOAD PUSH8 0xDE0B6B3A7640000 DUP4 PUSH1 0xB SLOAD PUSH2 0x5A37 SWAP2 SWAP1 PUSH2 0x71CC JUMP JUMPDEST PUSH2 0x5A41 SWAP2 SWAP1 PUSH2 0x7172 JUMP JUMPDEST PUSH2 0x5A4B SWAP2 SWAP1 PUSH2 0x6FD0 JUMP JUMPDEST PUSH1 0x10 PUSH1 0x0 DUP3 DUP3 SLOAD PUSH2 0x5A5C SWAP2 SWAP1 PUSH2 0x6F7A JUMP JUMPDEST SWAP3 POP POP DUP2 SWAP1 SSTORE POP PUSH2 0x5AF5 JUMP JUMPDEST PUSH1 0xD SLOAD PUSH8 0xDE0B6B3A7640000 PUSH1 0xC SLOAD DUP6 PUSH2 0x5A82 SWAP2 SWAP1 PUSH2 0x71CC JUMP JUMPDEST PUSH2 0x5A8C SWAP2 SWAP1 PUSH2 0x7172 JUMP JUMPDEST PUSH2 0x5A96 SWAP2 SWAP1 PUSH2 0x6FD0 JUMP JUMPDEST PUSH1 0x13 PUSH1 0x0 DUP3 DUP3 SLOAD PUSH2 0x5AA7 SWAP2 SWAP1 PUSH2 0x6F7A JUMP JUMPDEST SWAP3 POP POP DUP2 SWAP1 SSTORE POP PUSH1 0xE SLOAD PUSH8 0xDE0B6B3A7640000 DUP4 PUSH1 0xB SLOAD PUSH2 0x5AC8 SWAP2 SWAP1 PUSH2 0x71CC JUMP JUMPDEST PUSH2 0x5AD2 SWAP2 SWAP1 PUSH2 0x7172 JUMP JUMPDEST PUSH2 0x5ADC SWAP2 SWAP1 PUSH2 0x6FD0 JUMP JUMPDEST PUSH1 0x14 PUSH1 0x0 DUP3 DUP3 SLOAD PUSH2 0x5AED SWAP2 SWAP1 PUSH2 0x71CC JUMP JUMPDEST SWAP3 POP POP DUP2 SWAP1 SSTORE POP JUMPDEST PUSH1 0x0 PUSH1 0xE SLOAD SWAP1 POP PUSH1 0x0 PUSH1 0xD SLOAD SWAP1 POP DUP5 PUSH1 0xA SLOAD DUP3 PUSH2 0x5B12 SWAP2 SWAP1 PUSH2 0x7172 JUMP JUMPDEST PUSH2 0x5B1C SWAP2 SWAP1 PUSH2 0x6FD0 JUMP JUMPDEST PUSH1 0xD DUP2 SWAP1 SSTORE POP DUP4 PUSH1 0x9 SLOAD DUP4 PUSH2 0x5B31 SWAP2 SWAP1 PUSH2 0x7172 JUMP JUMPDEST PUSH2 0x5B3B SWAP2 SWAP1 PUSH2 0x6FD0 JUMP JUMPDEST PUSH1 0xE DUP2 SWAP1 SSTORE POP PUSH1 0xD SLOAD DUP3 PUSH1 0xE SLOAD DUP4 DUP7 PUSH2 0x5B54 SWAP2 SWAP1 PUSH2 0x7172 JUMP JUMPDEST PUSH2 0x5B5E SWAP2 SWAP1 PUSH2 0x7172 JUMP JUMPDEST PUSH2 0x5B68 SWAP2 SWAP1 PUSH2 0x6FD0 JUMP JUMPDEST PUSH2 0x5B72 SWAP2 SWAP1 PUSH2 0x6FD0 JUMP JUMPDEST PUSH1 0x17 DUP2 SWAP1 SSTORE POP PUSH1 0x9 SLOAD PUSH1 0xB DUP2 SWAP1 SSTORE POP PUSH1 0xA SLOAD PUSH1 0xC DUP2 SWAP1 SSTORE POP PUSH2 0x5B9E PUSH1 0xB SLOAD PUSH1 0xC SLOAD PUSH1 0x7 SLOAD PUSH1 0x17 SLOAD PUSH2 0x5F95 JUMP JUMPDEST PUSH1 0x5 DUP2 SWAP1 SSTORE POP PUSH1 0x5 SLOAD PUSH8 0x1BC16D674EC80000 PUSH2 0x5BBA SWAP2 SWAP1 PUSH2 0x71CC JUMP JUMPDEST PUSH1 0x6 DUP2 SWAP1 SSTORE POP PUSH2 0x5BC8 PUSH2 0x4ED3 JUMP JUMPDEST PUSH1 0x9 SLOAD PUSH1 0xB DUP2 SWAP1 SSTORE POP PUSH1 0xA SLOAD PUSH1 0xC DUP2 SWAP1 SSTORE POP POP POP POP PUSH2 0x5D16 JUMP JUMPDEST PUSH1 0xB SLOAD PUSH1 0x15 DUP2 SWAP1 SSTORE POP PUSH1 0xC SLOAD PUSH1 0x16 DUP2 SWAP1 SSTORE POP PUSH8 0xDE0B6B3A7640000 PUSH1 0xE SLOAD DUP6 PUSH2 0x5C0B SWAP2 SWAP1 PUSH2 0x7172 JUMP JUMPDEST PUSH2 0x5C15 SWAP2 SWAP1 PUSH2 0x6FD0 JUMP JUMPDEST PUSH1 0xB PUSH1 0x0 DUP3 DUP3 SLOAD PUSH2 0x5C26 SWAP2 SWAP1 PUSH2 0x71CC JUMP JUMPDEST SWAP3 POP POP DUP2 SWAP1 SSTORE POP PUSH2 0x5C41 PUSH1 0x5 SLOAD PUSH1 0x6 SLOAD PUSH1 0x7 SLOAD PUSH1 0xB SLOAD PUSH2 0x5DA1 JUMP JUMPDEST PUSH1 0xC DUP2 SWAP1 SSTORE POP PUSH1 0xD SLOAD PUSH8 0xDE0B6B3A7640000 PUSH1 0x16 SLOAD PUSH1 0xC SLOAD PUSH2 0x5C63 SWAP2 SWAP1 PUSH2 0x71CC JUMP JUMPDEST PUSH2 0x5C6D SWAP2 SWAP1 PUSH2 0x7172 JUMP JUMPDEST PUSH2 0x5C77 SWAP2 SWAP1 PUSH2 0x6FD0 JUMP JUMPDEST DUP6 PUSH2 0x5C82 SWAP2 SWAP1 PUSH2 0x6F7A JUMP JUMPDEST SWAP5 POP PUSH1 0x1 ISZERO ISZERO DUP7 ISZERO ISZERO EQ ISZERO PUSH2 0x5CAF JUMPI DUP4 PUSH1 0x10 PUSH1 0x0 DUP3 DUP3 SLOAD PUSH2 0x5CA3 SWAP2 SWAP1 PUSH2 0x6F7A JUMP JUMPDEST SWAP3 POP POP DUP2 SWAP1 SSTORE POP PUSH2 0x5D11 JUMP JUMPDEST PUSH1 0xD SLOAD PUSH8 0xDE0B6B3A7640000 PUSH1 0x16 SLOAD PUSH1 0xC SLOAD PUSH2 0x5CCB SWAP2 SWAP1 PUSH2 0x71CC JUMP JUMPDEST PUSH2 0x5CD5 SWAP2 SWAP1 PUSH2 0x7172 JUMP JUMPDEST PUSH2 0x5CDF SWAP2 SWAP1 PUSH2 0x6FD0 JUMP JUMPDEST PUSH1 0x13 PUSH1 0x0 DUP3 DUP3 SLOAD PUSH2 0x5CF0 SWAP2 SWAP1 PUSH2 0x6F7A JUMP JUMPDEST SWAP3 POP POP DUP2 SWAP1 SSTORE POP DUP4 PUSH1 0x14 PUSH1 0x0 DUP3 DUP3 SLOAD PUSH2 0x5D09 SWAP2 SWAP1 PUSH2 0x71CC JUMP JUMPDEST SWAP3 POP POP DUP2 SWAP1 SSTORE POP JUMPDEST PUSH1 0x0 SWAP3 POP JUMPDEST POP POP PUSH2 0x5904 JUMP JUMPDEST PUSH1 0x0 ISZERO ISZERO DUP5 ISZERO ISZERO EQ ISZERO PUSH2 0x5D37 JUMPI DUP3 DUP6 GT PUSH2 0x5D36 JUMPI PUSH1 0x0 DUP1 REVERT JUMPDEST JUMPDEST POP POP PUSH1 0x1 PUSH1 0x2E DUP2 SWAP1 SSTORE POP SWAP4 SWAP3 POP POP POP JUMP JUMPDEST PUSH1 0x0 DUP3 DUP3 DUP5 PUSH2 0x5D57 SWAP2 SWAP1 PUSH2 0x6F7A JUMP JUMPDEST SWAP2 POP DUP2 LT ISZERO PUSH2 0x5D9B JUMPI PUSH1 0x40 MLOAD PUSH32 0x8C379A000000000000000000000000000000000000000000000000000000000 DUP2 MSTORE PUSH1 0x4 ADD PUSH2 0x5D92 SWAP1 PUSH2 0x6DAE JUMP JUMPDEST PUSH1 0x40 MLOAD DUP1 SWAP2 SUB SWAP1 REVERT JUMPDEST SWAP3 SWAP2 POP POP JUMP JUMPDEST PUSH1 0x0 DUP2 DUP5 PUSH1 0x8 PUSH2 0x5DB1 SWAP2 SWAP1 PUSH2 0x7172 JUMP JUMPDEST PUSH2 0x5DBB SWAP2 SWAP1 PUSH2 0x7172 JUMP JUMPDEST PUSH2 0x5E54 PUSH8 0xDE0B6B3A7640000 DUP6 DUP7 DUP8 PUSH2 0x5DD4 SWAP2 SWAP1 PUSH2 0x7172 JUMP JUMPDEST PUSH2 0x5DDE SWAP2 SWAP1 PUSH2 0x7172 JUMP JUMPDEST PUSH1 0x0 PUSH2 0x5DEA SWAP2 SWAP1 PUSH2 0x71CC JUMP JUMPDEST DUP6 DUP9 PUSH1 0x10 PUSH2 0x5DF8 SWAP2 SWAP1 PUSH2 0x7172 JUMP JUMPDEST PUSH2 0x5E02 SWAP2 SWAP1 PUSH2 0x7172 JUMP JUMPDEST PUSH2 0x5E0C SWAP2 SWAP1 PUSH2 0x7172 JUMP JUMPDEST PUSH2 0x5E16 SWAP2 SWAP1 PUSH2 0x7172 JUMP JUMPDEST PUSH1 0x2 DUP6 DUP7 DUP11 PUSH1 0x4 PUSH2 0x5E27 SWAP2 SWAP1 PUSH2 0x7172 JUMP JUMPDEST PUSH2 0x5E31 SWAP2 SWAP1 PUSH2 0x7172 JUMP JUMPDEST PUSH2 0x5E3B SWAP2 SWAP1 PUSH2 0x7172 JUMP JUMPDEST PUSH2 0x5E45 SWAP2 SWAP1 PUSH2 0x7054 JUMP JUMPDEST PUSH2 0x5E4F SWAP2 SWAP1 PUSH2 0x71CC JUMP JUMPDEST PUSH2 0x628B JUMP JUMPDEST DUP4 DUP5 DUP9 PUSH1 0x4 PUSH2 0x5E63 SWAP2 SWAP1 PUSH2 0x7172 JUMP JUMPDEST PUSH2 0x5E6D SWAP2 SWAP1 PUSH2 0x7172 JUMP JUMPDEST PUSH2 0x5E77 SWAP2 SWAP1 PUSH2 0x7172 JUMP JUMPDEST PUSH1 0x0 PUSH2 0x5E83 SWAP2 SWAP1 PUSH2 0x71CC JUMP JUMPDEST PUSH2 0x5E8D SWAP2 SWAP1 PUSH2 0x6F7A JUMP JUMPDEST PUSH2 0x5E97 SWAP2 SWAP1 PUSH2 0x6FD0 JUMP JUMPDEST SWAP1 POP SWAP5 SWAP4 POP POP POP POP JUMP JUMPDEST PUSH1 0x0 DUP2 DUP5 DUP6 DUP7 PUSH2 0x5EB1 SWAP2 SWAP1 PUSH2 0x7172 JUMP JUMPDEST PUSH2 0x5EBB SWAP2 SWAP1 PUSH2 0x7172 JUMP JUMPDEST PUSH2 0x5EC5 SWAP2 SWAP1 PUSH2 0x7172 JUMP JUMPDEST DUP3 DUP4 DUP6 DUP7 DUP11 PUSH1 0x4 PUSH2 0x5ED6 SWAP2 SWAP1 PUSH2 0x7172 JUMP JUMPDEST PUSH2 0x5EE0 SWAP2 SWAP1 PUSH2 0x7172 JUMP JUMPDEST PUSH2 0x5EEA SWAP2 SWAP1 PUSH2 0x7172 JUMP JUMPDEST PUSH2 0x5EF4 SWAP2 SWAP1 PUSH2 0x7172 JUMP JUMPDEST PUSH2 0x5EFE SWAP2 SWAP1 PUSH2 0x7172 JUMP JUMPDEST PUSH2 0x5F08 SWAP2 SWAP1 PUSH2 0x6F7A JUMP JUMPDEST PUSH8 0xDE0B6B3A7640000 DUP5 DUP7 DUP8 DUP9 PUSH2 0x5F1F SWAP2 SWAP1 PUSH2 0x7172 JUMP JUMPDEST PUSH2 0x5F29 SWAP2 SWAP1 PUSH2 0x7172 JUMP JUMPDEST PUSH2 0x5F33 SWAP2 SWAP1 PUSH2 0x7172 JUMP JUMPDEST DUP5 DUP6 DUP8 DUP9 DUP12 PUSH1 0x4 PUSH2 0x5F44 SWAP2 SWAP1 PUSH2 0x7172 JUMP JUMPDEST PUSH2 0x5F4E SWAP2 SWAP1 PUSH2 0x7172 JUMP JUMPDEST PUSH2 0x5F58 SWAP2 SWAP1 PUSH2 0x7172 JUMP JUMPDEST PUSH2 0x5F62 SWAP2 SWAP1 PUSH2 0x7172 JUMP JUMPDEST PUSH2 0x5F6C SWAP2 SWAP1 PUSH2 0x7172 JUMP JUMPDEST PUSH2 0x5F76 SWAP2 SWAP1 PUSH2 0x6F7A JUMP JUMPDEST PUSH2 0x5F80 SWAP2 SWAP1 PUSH2 0x7172 JUMP JUMPDEST PUSH2 0x5F8A SWAP2 SWAP1 PUSH2 0x6FD0 JUMP JUMPDEST SWAP1 POP SWAP6 SWAP5 POP POP POP POP POP JUMP JUMPDEST PUSH1 0x0 DUP2 PUSH8 0xDE0B6B3A7640000 PUSH2 0x5FAB SWAP2 SWAP1 PUSH2 0x6F7A JUMP JUMPDEST DUP5 DUP6 DUP8 DUP9 PUSH1 0x4 PUSH2 0x5FBB SWAP2 SWAP1 PUSH2 0x7172 JUMP JUMPDEST PUSH2 0x5FC5 SWAP2 SWAP1 PUSH2 0x7172 JUMP JUMPDEST PUSH2 0x5FCF SWAP2 SWAP1 PUSH2 0x7172 JUMP JUMPDEST PUSH2 0x5FD9 SWAP2 SWAP1 PUSH2 0x7172 JUMP JUMPDEST PUSH2 0x5FE3 SWAP2 SWAP1 PUSH2 0x7172 JUMP JUMPDEST PUSH8 0xDE0B6B3A7640000 DUP4 DUP7 DUP7 DUP8 DUP9 PUSH2 0x5FFB SWAP2 SWAP1 PUSH2 0x7172 JUMP JUMPDEST PUSH2 0x6005 SWAP2 SWAP1 PUSH2 0x7172 JUMP JUMPDEST PUSH2 0x600F SWAP2 SWAP1 PUSH2 0x7172 JUMP JUMPDEST PUSH2 0x6019 SWAP2 SWAP1 PUSH2 0x7172 JUMP JUMPDEST PUSH2 0x6023 SWAP2 SWAP1 PUSH2 0x7172 JUMP JUMPDEST PUSH15 0xC097CE7BC90715B34B9F1000000000 DUP8 DUP7 DUP8 DUP9 PUSH2 0x6041 SWAP2 SWAP1 PUSH2 0x7172 JUMP JUMPDEST PUSH2 0x604B SWAP2 SWAP1 PUSH2 0x7172 JUMP JUMPDEST PUSH2 0x6055 SWAP2 SWAP1 PUSH2 0x7172 JUMP JUMPDEST PUSH2 0x605F SWAP2 SWAP1 PUSH2 0x7172 JUMP JUMPDEST PUSH15 0xC097CE7BC90715B34B9F1000000000 DUP8 DUP9 DUP11 DUP12 PUSH1 0x8 PUSH2 0x607F SWAP2 SWAP1 PUSH2 0x7172 JUMP JUMPDEST PUSH2 0x6089 SWAP2 SWAP1 PUSH2 0x7172 JUMP JUMPDEST PUSH2 0x6093 SWAP2 SWAP1 PUSH2 0x7172 JUMP JUMPDEST PUSH2 0x609D SWAP2 SWAP1 PUSH2 0x7172 JUMP JUMPDEST PUSH2 0x60A7 SWAP2 SWAP1 PUSH2 0x7172 JUMP JUMPDEST PUSH2 0x60B1 SWAP2 SWAP1 PUSH2 0x6F7A JUMP JUMPDEST PUSH2 0x60BB SWAP2 SWAP1 PUSH2 0x71CC JUMP JUMPDEST PUSH2 0x60C5 SWAP2 SWAP1 PUSH2 0x6FD0 JUMP JUMPDEST SWAP1 POP SWAP5 SWAP4 POP POP POP POP JUMP JUMPDEST PUSH1 0x0 DUP2 DUP6 PUSH1 0x8 PUSH2 0x60DF SWAP2 SWAP1 PUSH2 0x7172 JUMP JUMPDEST PUSH2 0x60E9 SWAP2 SWAP1 PUSH2 0x7172 JUMP JUMPDEST PUSH2 0x6182 PUSH8 0xDE0B6B3A7640000 DUP6 DUP7 DUP8 PUSH2 0x6102 SWAP2 SWAP1 PUSH2 0x7172 JUMP JUMPDEST PUSH2 0x610C SWAP2 SWAP1 PUSH2 0x7172 JUMP JUMPDEST PUSH1 0x0 PUSH2 0x6118 SWAP2 SWAP1 PUSH2 0x71CC JUMP JUMPDEST DUP6 DUP10 PUSH1 0x10 PUSH2 0x6126 SWAP2 SWAP1 PUSH2 0x7172 JUMP JUMPDEST PUSH2 0x6130 SWAP2 SWAP1 PUSH2 0x7172 JUMP JUMPDEST PUSH2 0x613A SWAP2 SWAP1 PUSH2 0x7172 JUMP JUMPDEST PUSH2 0x6144 SWAP2 SWAP1 PUSH2 0x7172 JUMP JUMPDEST PUSH1 0x2 DUP6 DUP7 DUP10 PUSH1 0x4 PUSH2 0x6155 SWAP2 SWAP1 PUSH2 0x7172 JUMP JUMPDEST PUSH2 0x615F SWAP2 SWAP1 PUSH2 0x7172 JUMP JUMPDEST PUSH2 0x6169 SWAP2 SWAP1 PUSH2 0x7172 JUMP JUMPDEST PUSH2 0x6173 SWAP2 SWAP1 PUSH2 0x7054 JUMP JUMPDEST PUSH2 0x617D SWAP2 SWAP1 PUSH2 0x71CC JUMP JUMPDEST PUSH2 0x628B JUMP JUMPDEST DUP4 DUP5 DUP8 PUSH1 0x4 PUSH2 0x6191 SWAP2 SWAP1 PUSH2 0x7172 JUMP JUMPDEST PUSH2 0x619B SWAP2 SWAP1 PUSH2 0x7172 JUMP JUMPDEST PUSH2 0x61A5 SWAP2 SWAP1 PUSH2 0x7172 JUMP JUMPDEST PUSH1 0x0 PUSH2 0x61B1 SWAP2 SWAP1 PUSH2 0x71CC JUMP JUMPDEST PUSH2 0x61BB SWAP2 SWAP1 PUSH2 0x6F7A JUMP JUMPDEST PUSH2 0x61C5 SWAP2 SWAP1 PUSH2 0x6FD0 JUMP JUMPDEST SWAP1 POP SWAP5 SWAP4 POP POP POP POP JUMP JUMPDEST PUSH1 0x0 PUSH1 0x8 DUP3 GT ISZERO PUSH2 0x624D JUMPI DUP2 SWAP1 POP PUSH1 0x0 PUSH1 0x1 PUSH1 0x3 DUP5 PUSH2 0x61EE SWAP2 SWAP1 PUSH2 0x6FD0 JUMP JUMPDEST PUSH2 0x61F8 SWAP2 SWAP1 PUSH2 0x6F7A JUMP JUMPDEST SWAP1 POP JUMPDEST DUP2 DUP2 LT ISZERO PUSH2 0x6247 JUMPI DUP1 SWAP2 POP PUSH1 0x3 DUP2 PUSH1 0x2 PUSH2 0x6215 SWAP2 SWAP1 PUSH2 0x7172 JUMP JUMPDEST DUP3 DUP4 PUSH2 0x6221 SWAP2 SWAP1 PUSH2 0x7172 JUMP JUMPDEST DUP6 PUSH2 0x622C SWAP2 SWAP1 PUSH2 0x6FD0 JUMP JUMPDEST PUSH2 0x6236 SWAP2 SWAP1 PUSH2 0x6F7A JUMP JUMPDEST PUSH2 0x6240 SWAP2 SWAP1 PUSH2 0x6FD0 JUMP JUMPDEST SWAP1 POP PUSH2 0x61FB JUMP JUMPDEST POP PUSH2 0x625B JUMP JUMPDEST PUSH1 0x0 DUP3 EQ PUSH2 0x625A JUMPI PUSH1 0x1 SWAP1 POP JUMPDEST JUMPDEST SWAP2 SWAP1 POP JUMP JUMPDEST PUSH1 0x0 DUP3 DUP5 LT PUSH2 0x626F JUMPI DUP3 PUSH2 0x6271 JUMP JUMPDEST DUP4 JUMPDEST SWAP4 POP DUP2 DUP5 LT PUSH2 0x6280 JUMPI DUP2 PUSH2 0x6282 JUMP JUMPDEST DUP4 JUMPDEST SWAP1 POP SWAP4 SWAP3 POP POP POP JUMP JUMPDEST PUSH1 0x0 PUSH1 0x3 DUP3 GT ISZERO PUSH2 0x62F2 JUMPI DUP2 SWAP1 POP PUSH1 0x0 PUSH1 0x1 PUSH1 0x2 DUP5 PUSH2 0x62AA SWAP2 SWAP1 PUSH2 0x6FD0 JUMP JUMPDEST PUSH2 0x62B4 SWAP2 SWAP1 PUSH2 0x6F7A JUMP JUMPDEST SWAP1 POP JUMPDEST DUP2 DUP2 LT ISZERO PUSH2 0x62EC JUMPI DUP1 SWAP2 POP PUSH1 0x2 DUP2 DUP3 DUP6 PUSH2 0x62D1 SWAP2 SWAP1 PUSH2 0x6FD0 JUMP JUMPDEST PUSH2 0x62DB SWAP2 SWAP1 PUSH2 0x6F7A JUMP JUMPDEST PUSH2 0x62E5 SWAP2 SWAP1 PUSH2 0x6FD0 JUMP JUMPDEST SWAP1 POP PUSH2 0x62B7 JUMP JUMPDEST POP PUSH2 0x6300 JUMP JUMPDEST PUSH1 0x0 DUP3 EQ PUSH2 0x62FF JUMPI PUSH1 0x1 SWAP1 POP JUMPDEST JUMPDEST SWAP2 SWAP1 POP JUMP JUMPDEST POP DUP1 SLOAD PUSH1 0x0 DUP3 SSTORE SWAP1 PUSH1 0x0 MSTORE PUSH1 0x20 PUSH1 0x0 KECCAK256 SWAP1 DUP2 ADD SWAP1 PUSH2 0x6323 SWAP2 SWAP1 PUSH2 0x6326 JUMP JUMPDEST POP JUMP JUMPDEST JUMPDEST DUP1 DUP3 GT ISZERO PUSH2 0x633F JUMPI PUSH1 0x0 DUP2 PUSH1 0x0 SWAP1 SSTORE POP PUSH1 0x1 ADD PUSH2 0x6327 JUMP JUMPDEST POP SWAP1 JUMP JUMPDEST PUSH1 0x0 DUP2 CALLDATALOAD SWAP1 POP PUSH2 0x6352 DUP2 PUSH2 0x75AA JUMP JUMPDEST SWAP3 SWAP2 POP POP JUMP JUMPDEST PUSH1 0x0 DUP2 CALLDATALOAD SWAP1 POP PUSH2 0x6367 DUP2 PUSH2 0x75C1 JUMP JUMPDEST SWAP3 SWAP2 POP POP JUMP JUMPDEST PUSH1 0x0 DUP2 MLOAD SWAP1 POP PUSH2 0x637C DUP2 PUSH2 0x75C1 JUMP JUMPDEST SWAP3 SWAP2 POP POP JUMP JUMPDEST PUSH1 0x0 DUP2 CALLDATALOAD SWAP1 POP PUSH2 0x6391 DUP2 PUSH2 0x75D8 JUMP JUMPDEST SWAP3 SWAP2 POP POP JUMP JUMPDEST PUSH1 0x0 DUP2 CALLDATALOAD SWAP1 POP PUSH2 0x63A6 DUP2 PUSH2 0x75EF JUMP JUMPDEST SWAP3 SWAP2 POP POP JUMP JUMPDEST PUSH1 0x0 DUP2 MLOAD SWAP1 POP PUSH2 0x63BB DUP2 PUSH2 0x75EF JUMP JUMPDEST SWAP3 SWAP2 POP POP JUMP JUMPDEST PUSH1 0x0 DUP2 CALLDATALOAD SWAP1 POP PUSH2 0x63D0 DUP2 PUSH2 0x7606 JUMP JUMPDEST SWAP3 SWAP2 POP POP JUMP JUMPDEST PUSH1 0x0 PUSH1 0x20 DUP3 DUP5 SUB SLT ISZERO PUSH2 0x63EC JUMPI PUSH2 0x63EB PUSH2 0x7372 JUMP JUMPDEST JUMPDEST PUSH1 0x0 PUSH2 0x63FA DUP5 DUP3 DUP6 ADD PUSH2 0x6343 JUMP JUMPDEST SWAP2 POP POP SWAP3 SWAP2 POP POP JUMP JUMPDEST PUSH1 0x0 DUP1 PUSH1 0x40 DUP4 DUP6 SUB SLT ISZERO PUSH2 0x641A JUMPI PUSH2 0x6419 PUSH2 0x7372 JUMP JUMPDEST JUMPDEST PUSH1 0x0 PUSH2 0x6428 DUP6 DUP3 DUP7 ADD PUSH2 0x6343 JUMP JUMPDEST SWAP3 POP POP PUSH1 0x20 PUSH2 0x6439 DUP6 DUP3 DUP7 ADD PUSH2 0x6343 JUMP JUMPDEST SWAP2 POP POP SWAP3 POP SWAP3 SWAP1 POP JUMP JUMPDEST PUSH1 0x0 DUP1 PUSH1 0x0 PUSH1 0x60 DUP5 DUP7 SUB SLT ISZERO PUSH2 0x645C JUMPI PUSH2 0x645B PUSH2 0x7372 JUMP JUMPDEST JUMPDEST PUSH1 0x0 PUSH2 0x646A DUP7 DUP3 DUP8 ADD PUSH2 0x6343 JUMP JUMPDEST SWAP4 POP POP PUSH1 0x20 PUSH2 0x647B DUP7 DUP3 DUP8 ADD PUSH2 0x6343 JUMP JUMPDEST SWAP3 POP POP PUSH1 0x40 PUSH2 0x648C DUP7 DUP3 DUP8 ADD PUSH2 0x6397 JUMP JUMPDEST SWAP2 POP POP SWAP3 POP SWAP3 POP SWAP3 JUMP JUMPDEST PUSH1 0x0 DUP1 PUSH1 0x0 DUP1 PUSH1 0x0 DUP1 PUSH1 0x0 PUSH1 0xE0 DUP9 DUP11 SUB SLT ISZERO PUSH2 0x64B5 JUMPI PUSH2 0x64B4 PUSH2 0x7372 JUMP JUMPDEST JUMPDEST PUSH1 0x0 PUSH2 0x64C3 DUP11 DUP3 DUP12 ADD PUSH2 0x6343 JUMP JUMPDEST SWAP8 POP POP PUSH1 0x20 PUSH2 0x64D4 DUP11 DUP3 DUP12 ADD PUSH2 0x6343 JUMP JUMPDEST SWAP7 POP POP PUSH1 0x40 PUSH2 0x64E5 DUP11 DUP3 DUP12 ADD PUSH2 0x6397 JUMP JUMPDEST SWAP6 POP POP PUSH1 0x60 PUSH2 0x64F6 DUP11 DUP3 DUP12 ADD PUSH2 0x6397 JUMP JUMPDEST SWAP5 POP POP PUSH1 0x80 PUSH2 0x6507 DUP11 DUP3 DUP12 ADD PUSH2 0x63C1 JUMP JUMPDEST SWAP4 POP POP PUSH1 0xA0 PUSH2 0x6518 DUP11 DUP3 DUP12 ADD PUSH2 0x6382 JUMP JUMPDEST SWAP3 POP POP PUSH1 0xC0 PUSH2 0x6529 DUP11 DUP3 DUP12 ADD PUSH2 0x6382 JUMP JUMPDEST SWAP2 POP POP SWAP3 SWAP6 SWAP9 SWAP2 SWAP5 SWAP8 POP SWAP3 SWAP6 POP JUMP JUMPDEST PUSH1 0x0 DUP1 PUSH1 0x40 DUP4 DUP6 SUB SLT ISZERO PUSH2 0x654F JUMPI PUSH2 0x654E PUSH2 0x7372 JUMP JUMPDEST JUMPDEST PUSH1 0x0 PUSH2 0x655D DUP6 DUP3 DUP7 ADD PUSH2 0x6343 JUMP JUMPDEST SWAP3 POP POP PUSH1 0x20 PUSH2 0x656E DUP6 DUP3 DUP7 ADD PUSH2 0x6358 JUMP JUMPDEST SWAP2 POP POP SWAP3 POP SWAP3 SWAP1 POP JUMP JUMPDEST PUSH1 0x0 DUP1 PUSH1 0x40 DUP4 DUP6 SUB SLT ISZERO PUSH2 0x658F JUMPI PUSH2 0x658E PUSH2 0x7372 JUMP JUMPDEST JUMPDEST PUSH1 0x0 PUSH2 0x659D DUP6 DUP3 DUP7 ADD PUSH2 0x6343 JUMP JUMPDEST SWAP3 POP POP PUSH1 0x20 PUSH2 0x65AE DUP6 DUP3 DUP7 ADD PUSH2 0x6397 JUMP JUMPDEST SWAP2 POP POP SWAP3 POP SWAP3 SWAP1 POP JUMP JUMPDEST PUSH1 0x0 DUP1 PUSH1 0x0 PUSH1 0x60 DUP5 DUP7 SUB SLT ISZERO PUSH2 0x65D1 JUMPI PUSH2 0x65D0 PUSH2 0x7372 JUMP JUMPDEST JUMPDEST PUSH1 0x0 PUSH2 0x65DF DUP7 DUP3 DUP8 ADD PUSH2 0x6343 JUMP JUMPDEST SWAP4 POP POP PUSH1 0x20 PUSH2 0x65F0 DUP7 DUP3 DUP8 ADD PUSH2 0x6397 JUMP JUMPDEST SWAP3 POP POP PUSH1 0x40 PUSH2 0x6601 DUP7 DUP3 DUP8 ADD PUSH2 0x6397 JUMP JUMPDEST SWAP2 POP POP SWAP3 POP SWAP3 POP SWAP3 JUMP JUMPDEST PUSH1 0x0 PUSH1 0x20 DUP3 DUP5 SUB SLT ISZERO PUSH2 0x6621 JUMPI PUSH2 0x6620 PUSH2 0x7372 JUMP JUMPDEST JUMPDEST PUSH1 0x0 PUSH2 0x662F DUP5 DUP3 DUP6 ADD PUSH2 0x636D JUMP JUMPDEST SWAP2 POP POP SWAP3 SWAP2 POP POP JUMP JUMPDEST PUSH1 0x0 PUSH1 0x20 DUP3 DUP5 SUB SLT ISZERO PUSH2 0x664E JUMPI PUSH2 0x664D PUSH2 0x7372 JUMP JUMPDEST JUMPDEST PUSH1 0x0 PUSH2 0x665C DUP5 DUP3 DUP6 ADD PUSH2 0x6397 JUMP JUMPDEST SWAP2 POP POP SWAP3 SWAP2 POP POP JUMP JUMPDEST PUSH1 0x0 PUSH1 0x20 DUP3 DUP5 SUB SLT ISZERO PUSH2 0x667B JUMPI PUSH2 0x667A PUSH2 0x7372 JUMP JUMPDEST JUMPDEST PUSH1 0x0 PUSH2 0x6689 DUP5 DUP3 DUP6 ADD PUSH2 0x63AC JUMP JUMPDEST SWAP2 POP POP SWAP3 SWAP2 POP POP JUMP JUMPDEST PUSH1 0x0 DUP1 PUSH1 0x40 DUP4 DUP6 SUB SLT ISZERO PUSH2 0x66A9 JUMPI PUSH2 0x66A8 PUSH2 0x7372 JUMP JUMPDEST JUMPDEST PUSH1 0x0 PUSH2 0x66B7 DUP6 DUP3 DUP7 ADD PUSH2 0x6397 JUMP JUMPDEST SWAP3 POP POP PUSH1 0x20 PUSH2 0x66C8 DUP6 DUP3 DUP7 ADD PUSH2 0x6343 JUMP JUMPDEST SWAP2 POP POP SWAP3 POP SWAP3 SWAP1 POP JUMP JUMPDEST PUSH1 0x0 DUP1 PUSH1 0x0 PUSH1 0x60 DUP5 DUP7 SUB SLT ISZERO PUSH2 0x66EB JUMPI PUSH2 0x66EA PUSH2 0x7372 JUMP JUMPDEST JUMPDEST PUSH1 0x0 PUSH2 0x66F9 DUP7 DUP3 DUP8 ADD PUSH2 0x6397 JUMP JUMPDEST SWAP4 POP POP PUSH1 0x20 PUSH2 0x670A DUP7 DUP3 DUP8 ADD PUSH2 0x6343 JUMP JUMPDEST SWAP3 POP POP PUSH1 0x40 PUSH2 0x671B DUP7 DUP3 DUP8 ADD PUSH2 0x6343 JUMP JUMPDEST SWAP2 POP POP SWAP3 POP SWAP3 POP SWAP3 JUMP JUMPDEST PUSH1 0x0 DUP1 PUSH1 0x0 PUSH1 0x60 DUP5 DUP7 SUB SLT ISZERO PUSH2 0x673E JUMPI PUSH2 0x673D PUSH2 0x7372 JUMP JUMPDEST JUMPDEST PUSH1 0x0 PUSH2 0x674C DUP7 DUP3 DUP8 ADD PUSH2 0x6397 JUMP JUMPDEST SWAP4 POP POP PUSH1 0x20 PUSH2 0x675D DUP7 DUP3 DUP8 ADD PUSH2 0x6397 JUMP JUMPDEST SWAP3 POP POP PUSH1 0x40 PUSH2 0x676E DUP7 DUP3 DUP8 ADD PUSH2 0x6343 JUMP JUMPDEST SWAP2 POP POP SWAP3 POP SWAP3 POP SWAP3 JUMP JUMPDEST PUSH1 0x0 DUP1 PUSH1 0x0 DUP1 PUSH1 0x80 DUP6 DUP8 SUB SLT ISZERO PUSH2 0x6792 JUMPI PUSH2 0x6791 PUSH2 0x7372 JUMP JUMPDEST JUMPDEST PUSH1 0x0 PUSH2 0x67A0 DUP8 DUP3 DUP9 ADD PUSH2 0x6397 JUMP JUMPDEST SWAP5 POP POP PUSH1 0x20 PUSH2 0x67B1 DUP8 DUP3 DUP9 ADD PUSH2 0x6397 JUMP JUMPDEST SWAP4 POP POP PUSH1 0x40 PUSH2 0x67C2 DUP8 DUP3 DUP9 ADD PUSH2 0x6358 JUMP JUMPDEST SWAP3 POP POP PUSH1 0x60 PUSH2 0x67D3 DUP8 DUP3 DUP9 ADD PUSH2 0x6343 JUMP JUMPDEST SWAP2 POP POP SWAP3 SWAP6 SWAP2 SWAP5 POP SWAP3 POP JUMP JUMPDEST PUSH1 0x0 PUSH2 0x67EB DUP4 DUP4 PUSH2 0x6ACA JUMP JUMPDEST PUSH1 0x20 DUP4 ADD SWAP1 POP SWAP3 SWAP2 POP POP JUMP JUMPDEST PUSH2 0x6800 DUP2 PUSH2 0x7200 JUMP JUMPDEST DUP3 MSTORE POP POP JUMP JUMPDEST PUSH1 0x0 PUSH2 0x6811 DUP3 PUSH2 0x6F14 JUMP JUMPDEST PUSH2 0x681B DUP2 DUP6 PUSH2 0x6F42 JUMP JUMPDEST SWAP4 POP PUSH2 0x6826 DUP4 PUSH2 0x6F04 JUMP JUMPDEST DUP1 PUSH1 0x0 JUMPDEST DUP4 DUP2 LT ISZERO PUSH2 0x6857 JUMPI DUP2 MLOAD PUSH2 0x683E DUP9 DUP3 PUSH2 0x67DF JUMP JUMPDEST SWAP8 POP PUSH2 0x6849 DUP4 PUSH2 0x6F35 JUMP JUMPDEST SWAP3 POP POP PUSH1 0x1 DUP2 ADD SWAP1 POP PUSH2 0x682A JUMP JUMPDEST POP DUP6 SWAP4 POP POP POP POP SWAP3 SWAP2 POP POP JUMP JUMPDEST PUSH2 0x686D DUP2 PUSH2 0x7212 JUMP JUMPDEST DUP3 MSTORE POP POP JUMP JUMPDEST PUSH2 0x687C DUP2 PUSH2 0x721E JUMP JUMPDEST DUP3 MSTORE POP POP JUMP JUMPDEST PUSH2 0x6893 PUSH2 0x688E DUP3 PUSH2 0x721E JUMP JUMPDEST PUSH2 0x72DB JUMP JUMPDEST DUP3 MSTORE POP POP JUMP JUMPDEST PUSH1 0x0 PUSH2 0x68A4 DUP3 PUSH2 0x6F1F JUMP JUMPDEST PUSH2 0x68AE DUP2 DUP6 PUSH2 0x6F53 JUMP JUMPDEST SWAP4 POP PUSH2 0x68BE DUP2 DUP6 PUSH1 0x20 DUP7 ADD PUSH2 0x725F JUMP JUMPDEST DUP1 DUP5 ADD SWAP2 POP POP SWAP3 SWAP2 POP POP JUMP JUMPDEST PUSH1 0x0 PUSH2 0x68D5 DUP3 PUSH2 0x6F2A JUMP JUMPDEST PUSH2 0x68DF DUP2 DUP6 PUSH2 0x6F5E JUMP JUMPDEST SWAP4 POP PUSH2 0x68EF DUP2 DUP6 PUSH1 0x20 DUP7 ADD PUSH2 0x725F JUMP JUMPDEST PUSH2 0x68F8 DUP2 PUSH2 0x7377 JUMP JUMPDEST DUP5 ADD SWAP2 POP POP SWAP3 SWAP2 POP POP JUMP JUMPDEST PUSH1 0x0 PUSH2 0x6910 PUSH1 0x16 DUP4 PUSH2 0x6F5E JUMP JUMPDEST SWAP2 POP PUSH2 0x691B DUP3 PUSH2 0x7395 JUMP JUMPDEST PUSH1 0x20 DUP3 ADD SWAP1 POP SWAP2 SWAP1 POP JUMP JUMPDEST PUSH1 0x0 PUSH2 0x6933 PUSH1 0x15 DUP4 PUSH2 0x6F5E JUMP JUMPDEST SWAP2 POP PUSH2 0x693E DUP3 PUSH2 0x73BE JUMP JUMPDEST PUSH1 0x20 DUP3 ADD SWAP1 POP SWAP2 SWAP1 POP JUMP JUMPDEST PUSH1 0x0 PUSH2 0x6956 PUSH1 0x20 DUP4 PUSH2 0x6F5E JUMP JUMPDEST SWAP2 POP PUSH2 0x6961 DUP3 PUSH2 0x73E7 JUMP JUMPDEST PUSH1 0x20 DUP3 ADD SWAP1 POP SWAP2 SWAP1 POP JUMP JUMPDEST PUSH1 0x0 PUSH2 0x6979 PUSH1 0x12 DUP4 PUSH2 0x6F5E JUMP JUMPDEST SWAP2 POP PUSH2 0x6984 DUP3 PUSH2 0x7410 JUMP JUMPDEST PUSH1 0x20 DUP3 ADD SWAP1 POP SWAP2 SWAP1 POP JUMP JUMPDEST PUSH1 0x0 PUSH2 0x699C PUSH1 0x10 DUP4 PUSH2 0x6F5E JUMP JUMPDEST SWAP2 POP PUSH2 0x69A7 DUP3 PUSH2 0x7439 JUMP JUMPDEST PUSH1 0x20 DUP3 ADD SWAP1 POP SWAP2 SWAP1 POP JUMP JUMPDEST PUSH1 0x0 PUSH2 0x69BF PUSH1 0x1C DUP4 PUSH2 0x6F5E JUMP JUMPDEST SWAP2 POP PUSH2 0x69CA DUP3 PUSH2 0x7462 JUMP JUMPDEST PUSH1 0x20 DUP3 ADD SWAP1 POP SWAP2 SWAP1 POP JUMP JUMPDEST PUSH1 0x0 PUSH2 0x69E2 PUSH1 0x2 DUP4 PUSH2 0x6F6F JUMP JUMPDEST SWAP2 POP PUSH2 0x69ED DUP3 PUSH2 0x748B JUMP JUMPDEST PUSH1 0x2 DUP3 ADD SWAP1 POP SWAP2 SWAP1 POP JUMP JUMPDEST PUSH1 0x0 PUSH2 0x6A05 PUSH1 0x14 DUP4 PUSH2 0x6F5E JUMP JUMPDEST SWAP2 POP PUSH2 0x6A10 DUP3 PUSH2 0x74B4 JUMP JUMPDEST PUSH1 0x20 DUP3 ADD SWAP1 POP SWAP2 SWAP1 POP JUMP JUMPDEST PUSH1 0x0 PUSH2 0x6A28 PUSH1 0x12 DUP4 PUSH2 0x6F5E JUMP JUMPDEST SWAP2 POP PUSH2 0x6A33 DUP3 PUSH2 0x74DD JUMP JUMPDEST PUSH1 0x20 DUP3 ADD SWAP1 POP SWAP2 SWAP1 POP JUMP JUMPDEST PUSH1 0x0 PUSH2 0x6A4B PUSH1 0x18 DUP4 PUSH2 0x6F5E JUMP JUMPDEST SWAP2 POP PUSH2 0x6A56 DUP3 PUSH2 0x7506 JUMP JUMPDEST PUSH1 0x20 DUP3 ADD SWAP1 POP SWAP2 SWAP1 POP JUMP JUMPDEST PUSH1 0x0 PUSH2 0x6A6E PUSH1 0x1A DUP4 PUSH2 0x6F5E JUMP JUMPDEST SWAP2 POP PUSH2 0x6A79 DUP3 PUSH2 0x752F JUMP JUMPDEST PUSH1 0x20 DUP3 ADD SWAP1 POP SWAP2 SWAP1 POP JUMP JUMPDEST PUSH1 0x0 PUSH2 0x6A91 PUSH1 0x11 DUP4 PUSH2 0x6F5E JUMP JUMPDEST SWAP2 POP PUSH2 0x6A9C DUP3 PUSH2 0x7558 JUMP JUMPDEST PUSH1 0x20 DUP3 ADD SWAP1 POP SWAP2 SWAP1 POP JUMP JUMPDEST PUSH1 0x0 PUSH2 0x6AB4 PUSH1 0xD DUP4 PUSH2 0x6F5E JUMP JUMPDEST SWAP2 POP PUSH2 0x6ABF DUP3 PUSH2 0x7581 JUMP JUMPDEST PUSH1 0x20 DUP3 ADD SWAP1 POP SWAP2 SWAP1 POP JUMP JUMPDEST PUSH2 0x6AD3 DUP2 PUSH2 0x7248 JUMP JUMPDEST DUP3 MSTORE POP POP JUMP JUMPDEST PUSH2 0x6AE2 DUP2 PUSH2 0x7248 JUMP JUMPDEST DUP3 MSTORE POP POP JUMP JUMPDEST PUSH2 0x6AF1 DUP2 PUSH2 0x7252 JUMP JUMPDEST DUP3 MSTORE POP POP JUMP JUMPDEST PUSH1 0x0 PUSH2 0x6B03 DUP3 DUP5 PUSH2 0x6899 JUMP JUMPDEST SWAP2 POP DUP2 SWAP1 POP SWAP3 SWAP2 POP POP JUMP JUMPDEST PUSH1 0x0 PUSH2 0x6B19 DUP3 PUSH2 0x69D5 JUMP JUMPDEST SWAP2 POP PUSH2 0x6B25 DUP3 DUP6 PUSH2 0x6882 JUMP JUMPDEST PUSH1 0x20 DUP3 ADD SWAP2 POP PUSH2 0x6B35 DUP3 DUP5 PUSH2 0x6882 JUMP JUMPDEST PUSH1 0x20 DUP3 ADD SWAP2 POP DUP2 SWAP1 POP SWAP4 SWAP3 POP POP POP JUMP JUMPDEST PUSH1 0x0 PUSH1 0x20 DUP3 ADD SWAP1 POP PUSH2 0x6B5A PUSH1 0x0 DUP4 ADD DUP5 PUSH2 0x67F7 JUMP JUMPDEST SWAP3 SWAP2 POP POP JUMP JUMPDEST PUSH1 0x0 PUSH1 0x80 DUP3 ADD SWAP1 POP PUSH2 0x6B75 PUSH1 0x0 DUP4 ADD DUP8 PUSH2 0x67F7 JUMP JUMPDEST PUSH2 0x6B82 PUSH1 0x20 DUP4 ADD DUP7 PUSH2 0x6864 JUMP JUMPDEST PUSH2 0x6B8F PUSH1 0x40 DUP4 ADD DUP6 PUSH2 0x6AD9 JUMP JUMPDEST PUSH2 0x6B9C PUSH1 0x60 DUP4 ADD DUP5 PUSH2 0x6AD9 JUMP JUMPDEST SWAP6 SWAP5 POP POP POP POP POP JUMP JUMPDEST PUSH1 0x0 PUSH1 0x40 DUP3 ADD SWAP1 POP PUSH2 0x6BBA PUSH1 0x0 DUP4 ADD DUP6 PUSH2 0x67F7 JUMP JUMPDEST PUSH2 0x6BC7 PUSH1 0x20 DUP4 ADD DUP5 PUSH2 0x6AD9 JUMP JUMPDEST SWAP4 SWAP3 POP POP POP JUMP JUMPDEST PUSH1 0x0 PUSH1 0x20 DUP3 ADD SWAP1 POP DUP2 DUP2 SUB PUSH1 0x0 DUP4 ADD MSTORE PUSH2 0x6BE8 DUP2 DUP5 PUSH2 0x6806 JUMP JUMPDEST SWAP1 POP SWAP3 SWAP2 POP POP JUMP JUMPDEST PUSH1 0x0 PUSH1 0x20 DUP3 ADD SWAP1 POP PUSH2 0x6C05 PUSH1 0x0 DUP4 ADD DUP5 PUSH2 0x6864 JUMP JUMPDEST SWAP3 SWAP2 POP POP JUMP JUMPDEST PUSH1 0x0 PUSH1 0x20 DUP3 ADD SWAP1 POP PUSH2 0x6C20 PUSH1 0x0 DUP4 ADD DUP5 PUSH2 0x6873 JUMP JUMPDEST SWAP3 SWAP2 POP POP JUMP JUMPDEST PUSH1 0x0 PUSH1 0xC0 DUP3 ADD SWAP1 POP PUSH2 0x6C3B PUSH1 0x0 DUP4 ADD DUP10 PUSH2 0x6873 JUMP JUMPDEST PUSH2 0x6C48 PUSH1 0x20 DUP4 ADD DUP9 PUSH2 0x67F7 JUMP JUMPDEST PUSH2 0x6C55 PUSH1 0x40 DUP4 ADD DUP8 PUSH2 0x67F7 JUMP JUMPDEST PUSH2 0x6C62 PUSH1 0x60 DUP4 ADD DUP7 PUSH2 0x6AD9 JUMP JUMPDEST PUSH2 0x6C6F PUSH1 0x80 DUP4 ADD DUP6 PUSH2 0x6AD9 JUMP JUMPDEST PUSH2 0x6C7C PUSH1 0xA0 DUP4 ADD DUP5 PUSH2 0x6AD9 JUMP JUMPDEST SWAP8 SWAP7 POP POP POP POP POP POP POP JUMP JUMPDEST PUSH1 0x0 PUSH1 0x80 DUP3 ADD SWAP1 POP PUSH2 0x6C9C PUSH1 0x0 DUP4 ADD DUP8 PUSH2 0x6873 JUMP JUMPDEST PUSH2 0x6CA9 PUSH1 0x20 DUP4 ADD DUP7 PUSH2 0x6AE8 JUMP JUMPDEST PUSH2 0x6CB6 PUSH1 0x40 DUP4 ADD DUP6 PUSH2 0x6873 JUMP JUMPDEST PUSH2 0x6CC3 PUSH1 0x60 DUP4 ADD DUP5 PUSH2 0x6873 JUMP JUMPDEST SWAP6 SWAP5 POP POP POP POP POP JUMP JUMPDEST PUSH1 0x0 PUSH1 0x20 DUP3 ADD SWAP1 POP DUP2 DUP2 SUB PUSH1 0x0 DUP4 ADD MSTORE PUSH2 0x6CE6 DUP2 DUP5 PUSH2 0x68CA JUMP JUMPDEST SWAP1 POP SWAP3 SWAP2 POP POP JUMP JUMPDEST PUSH1 0x0 PUSH1 0x20 DUP3 ADD SWAP1 POP DUP2 DUP2 SUB PUSH1 0x0 DUP4 ADD MSTORE PUSH2 0x6D07 DUP2 PUSH2 0x6903 JUMP JUMPDEST SWAP1 POP SWAP2 SWAP1 POP JUMP JUMPDEST PUSH1 0x0 PUSH1 0x20 DUP3 ADD SWAP1 POP DUP2 DUP2 SUB PUSH1 0x0 DUP4 ADD MSTORE PUSH2 0x6D27 DUP2 PUSH2 0x6926 JUMP JUMPDEST SWAP1 POP SWAP2 SWAP1 POP JUMP JUMPDEST PUSH1 0x0 PUSH1 0x20 DUP3 ADD SWAP1 POP DUP2 DUP2 SUB PUSH1 0x0 DUP4 ADD MSTORE PUSH2 0x6D47 DUP2 PUSH2 0x6949 JUMP JUMPDEST SWAP1 POP SWAP2 SWAP1 POP JUMP JUMPDEST PUSH1 0x0 PUSH1 0x20 DUP3 ADD SWAP1 POP DUP2 DUP2 SUB PUSH1 0x0 DUP4 ADD MSTORE PUSH2 0x6D67 DUP2 PUSH2 0x696C JUMP JUMPDEST SWAP1 POP SWAP2 SWAP1 POP JUMP JUMPDEST PUSH1 0x0 PUSH1 0x20 DUP3 ADD SWAP1 POP DUP2 DUP2 SUB PUSH1 0x0 DUP4 ADD MSTORE PUSH2 0x6D87 DUP2 PUSH2 0x698F JUMP JUMPDEST SWAP1 POP SWAP2 SWAP1 POP JUMP JUMPDEST PUSH1 0x0 PUSH1 0x20 DUP3 ADD SWAP1 POP DUP2 DUP2 SUB PUSH1 0x0 DUP4 ADD MSTORE PUSH2 0x6DA7 DUP2 PUSH2 0x69B2 JUMP JUMPDEST SWAP1 POP SWAP2 SWAP1 POP JUMP JUMPDEST PUSH1 0x0 PUSH1 0x20 DUP3 ADD SWAP1 POP DUP2 DUP2 SUB PUSH1 0x0 DUP4 ADD MSTORE PUSH2 0x6DC7 DUP2 PUSH2 0x69F8 JUMP JUMPDEST SWAP1 POP SWAP2 SWAP1 POP JUMP JUMPDEST PUSH1 0x0 PUSH1 0x20 DUP3 ADD SWAP1 POP DUP2 DUP2 SUB PUSH1 0x0 DUP4 ADD MSTORE PUSH2 0x6DE7 DUP2 PUSH2 0x6A1B JUMP JUMPDEST SWAP1 POP SWAP2 SWAP1 POP JUMP JUMPDEST PUSH1 0x0 PUSH1 0x20 DUP3 ADD SWAP1 POP DUP2 DUP2 SUB PUSH1 0x0 DUP4 ADD MSTORE PUSH2 0x6E07 DUP2 PUSH2 0x6A3E JUMP JUMPDEST SWAP1 POP SWAP2 SWAP1 POP JUMP JUMPDEST PUSH1 0x0 PUSH1 0x20 DUP3 ADD SWAP1 POP DUP2 DUP2 SUB PUSH1 0x0 DUP4 ADD MSTORE PUSH2 0x6E27 DUP2 PUSH2 0x6A61 JUMP JUMPDEST SWAP1 POP SWAP2 SWAP1 POP JUMP JUMPDEST PUSH1 0x0 PUSH1 0x20 DUP3 ADD SWAP1 POP DUP2 DUP2 SUB PUSH1 0x0 DUP4 ADD MSTORE PUSH2 0x6E47 DUP2 PUSH2 0x6A84 JUMP JUMPDEST SWAP1 POP SWAP2 SWAP1 POP JUMP JUMPDEST PUSH1 0x0 PUSH1 0x20 DUP3 ADD SWAP1 POP DUP2 DUP2 SUB PUSH1 0x0 DUP4 ADD MSTORE PUSH2 0x6E67 DUP2 PUSH2 0x6AA7 JUMP JUMPDEST SWAP1 POP SWAP2 SWAP1 POP JUMP JUMPDEST PUSH1 0x0 PUSH1 0x20 DUP3 ADD SWAP1 POP PUSH2 0x6E83 PUSH1 0x0 DUP4 ADD DUP5 PUSH2 0x6AD9 JUMP JUMPDEST SWAP3 SWAP2 POP POP JUMP JUMPDEST PUSH1 0x0 PUSH1 0x40 DUP3 ADD SWAP1 POP PUSH2 0x6E9E PUSH1 0x0 DUP4 ADD DUP6 PUSH2 0x6AD9 JUMP JUMPDEST PUSH2 0x6EAB PUSH1 0x20 DUP4 ADD DUP5 PUSH2 0x6AD9 JUMP JUMPDEST SWAP4 SWAP3 POP POP POP JUMP JUMPDEST PUSH1 0x0 PUSH1 0x60 DUP3 ADD SWAP1 POP PUSH2 0x6EC7 PUSH1 0x0 DUP4 ADD DUP7 PUSH2 0x6AD9 JUMP JUMPDEST PUSH2 0x6ED4 PUSH1 0x20 DUP4 ADD DUP6 PUSH2 0x6AD9 JUMP JUMPDEST PUSH2 0x6EE1 PUSH1 0x40 DUP4 ADD DUP5 PUSH2 0x6864 JUMP JUMPDEST SWAP5 SWAP4 POP POP POP POP JUMP JUMPDEST PUSH1 0x0 PUSH1 0x20 DUP3 ADD SWAP1 POP PUSH2 0x6EFE PUSH1 0x0 DUP4 ADD DUP5 PUSH2 0x6AE8 JUMP JUMPDEST SWAP3 SWAP2 POP POP JUMP JUMPDEST PUSH1 0x0 DUP2 SWAP1 POP PUSH1 0x20 DUP3 ADD SWAP1 POP SWAP2 SWAP1 POP JUMP JUMPDEST PUSH1 0x0 DUP2 MLOAD SWAP1 POP SWAP2 SWAP1 POP JUMP JUMPDEST PUSH1 0x0 DUP2 MLOAD SWAP1 POP SWAP2 SWAP1 POP JUMP JUMPDEST PUSH1 0x0 DUP2 MLOAD SWAP1 POP SWAP2 SWAP1 POP JUMP JUMPDEST PUSH1 0x0 PUSH1 0x20 DUP3 ADD SWAP1 POP SWAP2 SWAP1 POP JUMP JUMPDEST PUSH1 0x0 DUP3 DUP3 MSTORE PUSH1 0x20 DUP3 ADD SWAP1 POP SWAP3 SWAP2 POP POP JUMP JUMPDEST PUSH1 0x0 DUP2 SWAP1 POP SWAP3 SWAP2 POP POP JUMP JUMPDEST PUSH1 0x0 DUP3 DUP3 MSTORE PUSH1 0x20 DUP3 ADD SWAP1 POP SWAP3 SWAP2 POP POP JUMP JUMPDEST PUSH1 0x0 DUP2 SWAP1 POP SWAP3 SWAP2 POP POP JUMP JUMPDEST PUSH1 0x0 PUSH2 0x6F85 DUP3 PUSH2 0x7248 JUMP JUMPDEST SWAP2 POP PUSH2 0x6F90 DUP4 PUSH2 0x7248 JUMP JUMPDEST SWAP3 POP DUP3 PUSH32 0xFFFFFFFFFFFFFFFFFFFFFFFFFFFFFFFFFFFFFFFFFFFFFFFFFFFFFFFFFFFFFFFF SUB DUP3 GT ISZERO PUSH2 0x6FC5 JUMPI PUSH2 0x6FC4 PUSH2 0x72E5 JUMP JUMPDEST JUMPDEST DUP3 DUP3 ADD SWAP1 POP SWAP3 SWAP2 POP POP JUMP JUMPDEST PUSH1 0x0 PUSH2 0x6FDB DUP3 PUSH2 0x7248 JUMP JUMPDEST SWAP2 POP PUSH2 0x6FE6 DUP4 PUSH2 0x7248 JUMP JUMPDEST SWAP3 POP DUP3 PUSH2 0x6FF6 JUMPI PUSH2 0x6FF5 PUSH2 0x7314 JUMP JUMPDEST JUMPDEST DUP3 DUP3 DIV SWAP1 POP SWAP3 SWAP2 POP POP JUMP JUMPDEST PUSH1 0x0 DUP1 DUP3 SWAP2 POP DUP4 SWAP1 POP JUMPDEST PUSH1 0x1 DUP6 GT ISZERO PUSH2 0x704B JUMPI DUP1 DUP7 DIV DUP2 GT ISZERO PUSH2 0x7027 JUMPI PUSH2 0x7026 PUSH2 0x72E5 JUMP JUMPDEST JUMPDEST PUSH1 0x1 DUP6 AND ISZERO PUSH2 0x7036 JUMPI DUP1 DUP3 MUL SWAP2 POP JUMPDEST DUP1 DUP2 MUL SWAP1 POP PUSH2 0x7044 DUP6 PUSH2 0x7388 JUMP JUMPDEST SWAP5 POP PUSH2 0x700B JUMP JUMPDEST SWAP5 POP SWAP5 SWAP3 POP POP POP JUMP JUMPDEST PUSH1 0x0 PUSH2 0x705F DUP3 PUSH2 0x7248 JUMP JUMPDEST SWAP2 POP PUSH2 0x706A DUP4 PUSH2 0x7252 JUMP JUMPDEST SWAP3 POP PUSH2 0x7097 PUSH32 0xFFFFFFFFFFFFFFFFFFFFFFFFFFFFFFFFFFFFFFFFFFFFFFFFFFFFFFFFFFFFFFFF DUP5 DUP5 PUSH2 0x709F JUMP JUMPDEST SWAP1 POP SWAP3 SWAP2 POP POP JUMP JUMPDEST PUSH1 0x0 DUP3 PUSH2 0x70AF JUMPI PUSH1 0x1 SWAP1 POP PUSH2 0x716B JUMP JUMPDEST DUP2 PUSH2 0x70BD JUMPI PUSH1 0x0 SWAP1 POP PUSH2 0x716B JUMP JUMPDEST DUP2 PUSH1 0x1 DUP2 EQ PUSH2 0x70D3 JUMPI PUSH1 0x2 DUP2 EQ PUSH2 0x70DD JUMPI PUSH2 0x710C JUMP JUMPDEST PUSH1 0x1 SWAP2 POP POP PUSH2 0x716B JUMP JUMPDEST PUSH1 0xFF DUP5 GT ISZERO PUSH2 0x70EF JUMPI PUSH2 0x70EE PUSH2 0x72E5 JUMP JUMPDEST JUMPDEST DUP4 PUSH1 0x2 EXP SWAP2 POP DUP5 DUP3 GT ISZERO PUSH2 0x7106 JUMPI PUSH2 0x7105 PUSH2 0x72E5 JUMP JUMPDEST JUMPDEST POP PUSH2 0x716B JUMP JUMPDEST POP PUSH1 0x20 DUP4 LT PUSH2 0x133 DUP4 LT AND PUSH1 0x4E DUP5 LT PUSH1 0xB DUP5 LT AND OR ISZERO PUSH2 0x7141 JUMPI DUP3 DUP3 EXP SWAP1 POP DUP4 DUP2 GT ISZERO PUSH2 0x713C JUMPI PUSH2 0x713B PUSH2 0x72E5 JUMP JUMPDEST JUMPDEST PUSH2 0x716B JUMP JUMPDEST PUSH2 0x714E DUP5 DUP5 DUP5 PUSH1 0x1 PUSH2 0x7001 JUMP JUMPDEST SWAP3 POP SWAP1 POP DUP2 DUP5 DIV DUP2 GT ISZERO PUSH2 0x7165 JUMPI PUSH2 0x7164 PUSH2 0x72E5 JUMP JUMPDEST JUMPDEST DUP2 DUP2 MUL SWAP1 POP JUMPDEST SWAP4 SWAP3 POP POP POP JUMP JUMPDEST PUSH1 0x0 PUSH2 0x717D DUP3 PUSH2 0x7248 JUMP JUMPDEST SWAP2 POP PUSH2 0x7188 DUP4 PUSH2 0x7248 JUMP JUMPDEST SWAP3 POP DUP2 PUSH32 0xFFFFFFFFFFFFFFFFFFFFFFFFFFFFFFFFFFFFFFFFFFFFFFFFFFFFFFFFFFFFFFFF DIV DUP4 GT DUP3 ISZERO ISZERO AND ISZERO PUSH2 0x71C1 JUMPI PUSH2 0x71C0 PUSH2 0x72E5 JUMP JUMPDEST JUMPDEST DUP3 DUP3 MUL SWAP1 POP SWAP3 SWAP2 POP POP JUMP JUMPDEST PUSH1 0x0 PUSH2 0x71D7 DUP3 PUSH2 0x7248 JUMP JUMPDEST SWAP2 POP PUSH2 0x71E2 DUP4 PUSH2 0x7248 JUMP JUMPDEST SWAP3 POP DUP3 DUP3 LT ISZERO PUSH2 0x71F5 JUMPI PUSH2 0x71F4 PUSH2 0x72E5 JUMP JUMPDEST JUMPDEST DUP3 DUP3 SUB SWAP1 POP SWAP3 SWAP2 POP POP JUMP JUMPDEST PUSH1 0x0 PUSH2 0x720B DUP3 PUSH2 0x7228 JUMP JUMPDEST SWAP1 POP SWAP2 SWAP1 POP JUMP JUMPDEST PUSH1 0x0 DUP2 ISZERO ISZERO SWAP1 POP SWAP2 SWAP1 POP JUMP JUMPDEST PUSH1 0x0 DUP2 SWAP1 POP SWAP2 SWAP1 POP JUMP JUMPDEST PUSH1 0x0 PUSH20 0xFFFFFFFFFFFFFFFFFFFFFFFFFFFFFFFFFFFFFFFF DUP3 AND SWAP1 POP SWAP2 SWAP1 POP JUMP JUMPDEST PUSH1 0x0 DUP2 SWAP1 POP SWAP2 SWAP1 POP JUMP JUMPDEST PUSH1 0x0 PUSH1 0xFF DUP3 AND SWAP1 POP SWAP2 SWAP1 POP JUMP JUMPDEST PUSH1 0x0 JUMPDEST DUP4 DUP2 LT ISZERO PUSH2 0x727D JUMPI DUP1 DUP3 ADD MLOAD DUP2 DUP5 ADD MSTORE PUSH1 0x20 DUP2 ADD SWAP1 POP PUSH2 0x7262 JUMP JUMPDEST DUP4 DUP2 GT ISZERO PUSH2 0x728C JUMPI PUSH1 0x0 DUP5 DUP5 ADD MSTORE JUMPDEST POP POP POP POP JUMP JUMPDEST PUSH1 0x0 PUSH2 0x729D DUP3 PUSH2 0x7248 JUMP JUMPDEST SWAP2 POP PUSH32 0xFFFFFFFFFFFFFFFFFFFFFFFFFFFFFFFFFFFFFFFFFFFFFFFFFFFFFFFFFFFFFFFF DUP3 EQ ISZERO PUSH2 0x72D0 JUMPI PUSH2 0x72CF PUSH2 0x72E5 JUMP JUMPDEST JUMPDEST PUSH1 0x1 DUP3 ADD SWAP1 POP SWAP2 SWAP1 POP JUMP JUMPDEST PUSH1 0x0 DUP2 SWAP1 POP SWAP2 SWAP1 POP JUMP JUMPDEST PUSH32 0x4E487B7100000000000000000000000000000000000000000000000000000000 PUSH1 0x0 MSTORE PUSH1 0x11 PUSH1 0x4 MSTORE PUSH1 0x24 PUSH1 0x0 REVERT JUMPDEST PUSH32 0x4E487B7100000000000000000000000000000000000000000000000000000000 PUSH1 0x0 MSTORE PUSH1 0x12 PUSH1 0x4 MSTORE PUSH1 0x24 PUSH1 0x0 REVERT JUMPDEST PUSH32 0x4E487B7100000000000000000000000000000000000000000000000000000000 PUSH1 0x0 MSTORE PUSH1 0x32 PUSH1 0x4 MSTORE PUSH1 0x24 PUSH1 0x0 REVERT JUMPDEST PUSH1 0x0 DUP1 REVERT JUMPDEST PUSH1 0x0 PUSH1 0x1F NOT PUSH1 0x1F DUP4 ADD AND SWAP1 POP SWAP2 SWAP1 POP JUMP JUMPDEST PUSH1 0x0 DUP2 PUSH1 0x1 SHR SWAP1 POP SWAP2 SWAP1 POP JUMP JUMPDEST PUSH32 0x51696C696E3A205452414E534645525F4641494C454400000000000000000000 PUSH1 0x0 DUP3 ADD MSTORE POP JUMP JUMPDEST PUSH32 0x64732D6D6174682D7375622D756E646572666C6F770000000000000000000000 PUSH1 0x0 DUP3 ADD MSTORE POP JUMP JUMPDEST PUSH32 0x51696C696E3A20494E53554646494349454E545F494E5055545F414D4F554E54 PUSH1 0x0 DUP3 ADD MSTORE POP JUMP JUMPDEST PUSH32 0x51496C696E3A20494E56414C49445F4F55540000000000000000000000000000 PUSH1 0x0 DUP3 ADD MSTORE POP JUMP JUMPDEST PUSH32 0x51696C696E3A20464F5242494444454E00000000000000000000000000000000 PUSH1 0x0 DUP3 ADD MSTORE POP JUMP JUMPDEST PUSH32 0x556E697377617056323A20494E56414C49445F5349474E415455524500000000 PUSH1 0x0 DUP3 ADD MSTORE POP JUMP JUMPDEST PUSH32 0x1901000000000000000000000000000000000000000000000000000000000000 PUSH1 0x0 DUP3 ADD MSTORE POP JUMP JUMPDEST PUSH32 0x64732D6D6174682D6164642D6F766572666C6F77000000000000000000000000 PUSH1 0x0 DUP3 ADD MSTORE POP JUMP JUMPDEST PUSH32 0x556E697377617056323A20455850495245440000000000000000000000000000 PUSH1 0x0 DUP3 ADD MSTORE POP JUMP JUMPDEST PUSH32 0x51696C696E3A204E4F5420454E4F554748204D415247494E0000000000000000 PUSH1 0x0 DUP3 ADD MSTORE POP JUMP JUMPDEST PUSH32 0x51696C696E3A204E4F5420454E4F55474820504F534954494F4E000000000000 PUSH1 0x0 DUP3 ADD MSTORE POP JUMP JUMPDEST PUSH32 0x51696C696E3A20494E56414C49445F544F000000000000000000000000000000 PUSH1 0x0 DUP3 ADD MSTORE POP JUMP JUMPDEST PUSH32 0x51696C696E3A204C4F434B454400000000000000000000000000000000000000 PUSH1 0x0 DUP3 ADD MSTORE POP JUMP JUMPDEST PUSH2 0x75B3 DUP2 PUSH2 0x7200 JUMP JUMPDEST DUP2 EQ PUSH2 0x75BE JUMPI PUSH1 0x0 DUP1 REVERT JUMPDEST POP JUMP JUMPDEST PUSH2 0x75CA DUP2 PUSH2 0x7212 JUMP JUMPDEST DUP2 EQ PUSH2 0x75D5 JUMPI PUSH1 0x0 DUP1 REVERT JUMPDEST POP JUMP JUMPDEST PUSH2 0x75E1 DUP2 PUSH2 0x721E JUMP JUMPDEST DUP2 EQ PUSH2 0x75EC JUMPI PUSH1 0x0 DUP1 REVERT JUMPDEST POP JUMP JUMPDEST PUSH2 0x75F8 DUP2 PUSH2 0x7248 JUMP JUMPDEST DUP2 EQ PUSH2 0x7603 JUMPI PUSH1 0x0 DUP1 REVERT JUMPDEST POP JUMP JUMPDEST PUSH2 0x760F DUP2 PUSH2 0x7252 JUMP JUMPDEST DUP2 EQ PUSH2 0x761A JUMPI PUSH1 0x0 DUP1 REVERT JUMPDEST POP JUMP INVALID LOG2 PUSH5 0x6970667358 0x22 SLT KECCAK256 0x24 SWAP14 0xB3 0xAA MSTORE SWAP7 0xE0 0xCA PUSH12 0x82D787FA9392976BA588FBB4 BLOCKHASH 0xC2 0xBE STATICCALL 0xB8 0xBF LOG1 0xF6 CALL 0xCF 0xDC PUSH5 0x736F6C6343 STOP ADDMOD SMOD STOP CALLER "
		},
		"gasEstimates": {
			"creation": {
				"codeDepositCost": "6058200",
				"executionCost": "infinite",
				"totalCost": "infinite"
			},
			"external": {
				"Add_Liquidity(uint256,uint256,address)": "infinite",
				"Add_Margin(uint256,address,address)": "infinite",
				"B()": "2520",
				"Base_rate()": "2542",
				"Burn_Liquidity(uint256,address)": "infinite",
				"C()": "2497",
				"D()": "2542",
				"D0()": "2495",
				"DOMAIN_SEPARATOR()": "2564",
				"GetMarginPrice()": "infinite",
				"Getfundingrate()": "infinite",
				"Leverage_Margin()": "2519",
				"Leverage_Max()": "2520",
				"Liquidate(address,address)": "infinite",
				"Liquidation_bonus()": "2584",
				"Liquidation_rate()": "2541",
				"M()": "2496",
				"M_Last()": "2519",
				"Margin_tpyes(uint256)": "5089",
				"N()": "2585",
				"N_Last()": "2518",
				"Net_Margin(address)": "infinite",
				"Net_Position(address)": "infinite",
				"Net_debt(address)": "infinite",
				"PERMIT_TYPEHASH()": "491",
				"Peqx()": "2499",
				"Peqy()": "2561",
				"Perp_biopen(uint256,uint256,address)": "infinite",
				"Perp_close(uint256,uint256,address)": "infinite",
				"Perp_open(uint256,uint256,bool,address)": "infinite",
				"Price_local()": "2519",
				"Set_LeverageMargin(uint256)": "24757",
				"Set_LeverageMax(uint256)": "24803",
				"Set_Liquidation_rate(uint256)": "24844",
				"Set_fundingrate_upper(uint256)": "24781",
				"Tick_range()": "2518",
				"Total_Liquidity()": "2563",
				"Total_debt_X()": "2542",
				"Total_debt_Y()": "2564",
				"Total_debttoken_X()": "2540",
				"Total_debttoken_Y()": "2564",
				"True_Liquid_X()": "2497",
				"True_Liquid_X0()": "2584",
				"True_Liquid_Y()": "2497",
				"True_Liquid_Y0()": "2562",
				"X_Coord()": "2519",
				"X_Coord_Last()": "2498",
				"Xeq()": "2563",
				"Xgetp()": "2585",
				"Y_Coord()": "2586",
				"Y_Coord_Last()": "2563",
				"Yeq()": "2564",
				"Ygetp()": "2496",
				"allowance(address,address)": "infinite",
				"approve(address,uint256)": "infinite",
				"balanceOf(address)": "2947",
				"debt_index(address,bool)": "infinite",
				"decimals()": "404",
				"factory()": "2626",
				"funding_Last()": "2497",
				"funding_x_8h_upper()": "2540",
				"fundingtime_Last()": "2519",
				"get_margin_price(address)": "732",
				"initialize(address,address)": "infinite",
				"margin_index(address,uint256)": "infinite",
				"margin_type(address)": "2903",
				"name()": "infinite",
				"nonces(address)": "2905",
				"paying_side_Last()": "2605",
				"permit(address,address,uint256,uint256,uint8,bytes32,bytes32)": "infinite",
				"skim(address)": "infinite",
				"swap(address,uint256,uint256)": "infinite",
				"symbol()": "infinite",
				"tokenX()": "2671",
				"tokenY()": "2647",
				"totalSupply()": "2498",
				"transfer(address,uint256)": "infinite",
				"transferFrom(address,address,uint256)": "infinite"
			},
			"internal": {
				"Clean_debt(address,bool)": "infinite",
				"TradeXToExactY(uint256,uint256,bool)": "infinite",
				"TradeYToExactX(uint256,uint256,bool)": "infinite",
				"Trade_XtoY(uint256,bool)": "infinite",
				"Trade_YtoX(uint256,bool)": "infinite",
				"Virtual_Liquidity_Update()": "infinite",
				"_safeTransfer(address,address,uint256)": "infinite",
				"refresh_totalbook()": "infinite"
			}
		},
		"methodIdentifiers": {
			"Add_Liquidity(uint256,uint256,address)": "6126deef",
			"Add_Margin(uint256,address,address)": "a54c08f3",
			"B()": "32e7c5bf",
			"Base_rate()": "7ed6281b",
			"Burn_Liquidity(uint256,address)": "6665ff11",
			"C()": "83dfe5fd",
			"D()": "0f529ba2",
			"D0()": "f738c74e",
			"DOMAIN_SEPARATOR()": "3644e515",
			"GetMarginPrice()": "b6e361a1",
			"Getfundingrate()": "fc978e54",
			"Leverage_Margin()": "9a36e122",
			"Leverage_Max()": "18db9681",
			"Liquidate(address,address)": "c3d81b21",
			"Liquidation_bonus()": "f70f4394",
			"Liquidation_rate()": "8bc1a32f",
			"M()": "693f917e",
			"M_Last()": "25c513a4",
			"Margin_tpyes(uint256)": "da5604ce",
			"N()": "c9e525df",
			"N_Last()": "acd4a7c2",
			"Net_Margin(address)": "2abc28aa",
			"Net_Position(address)": "c03d932f",
			"Net_debt(address)": "5115b6cf",
			"PERMIT_TYPEHASH()": "30adf81f",
			"Peqx()": "00b52645",
			"Peqy()": "fe18f261",
			"Perp_biopen(uint256,uint256,address)": "09e95861",
			"Perp_close(uint256,uint256,address)": "4c324e6a",
			"Perp_open(uint256,uint256,bool,address)": "9076ae86",
			"Price_local()": "480c4f7e",
			"Set_LeverageMargin(uint256)": "cfe38a5e",
			"Set_LeverageMax(uint256)": "35714521",
			"Set_Liquidation_rate(uint256)": "ff2f169e",
			"Set_fundingrate_upper(uint256)": "0bfa68d8",
			"Tick_range()": "d44022db",
			"Total_Liquidity()": "2dd6c254",
			"Total_debt_X()": "2190219e",
			"Total_debt_Y()": "225c2c50",
			"Total_debttoken_X()": "6b3545aa",
			"Total_debttoken_Y()": "139860ee",
			"True_Liquid_X()": "5595d459",
			"True_Liquid_X0()": "79dbf8ea",
			"True_Liquid_Y()": "3c6fe2f4",
			"True_Liquid_Y0()": "ea1797b0",
			"X_Coord()": "84009686",
			"X_Coord_Last()": "0b197615",
			"Xeq()": "8e361389",
			"Xgetp()": "a5aa65b9",
			"Y_Coord()": "36af2f9b",
			"Y_Coord_Last()": "6607e7e8",
			"Yeq()": "80416c02",
			"Ygetp()": "df0ab2c2",
			"allowance(address,address)": "dd62ed3e",
			"approve(address,uint256)": "095ea7b3",
			"balanceOf(address)": "70a08231",
			"debt_index(address,bool)": "7e1431be",
			"decimals()": "313ce567",
			"factory()": "c45a0155",
			"funding_Last()": "23ed16b6",
			"funding_x_8h_upper()": "e19a1474",
			"fundingtime_Last()": "5e287d86",
			"get_margin_price(address)": "e1781049",
			"initialize(address,address)": "485cc955",
			"margin_index(address,uint256)": "fc69b80f",
			"margin_type(address)": "699553aa",
			"name()": "06fdde03",
			"nonces(address)": "7ecebe00",
			"paying_side_Last()": "c7d44932",
			"permit(address,address,uint256,uint256,uint8,bytes32,bytes32)": "d505accf",
			"skim(address)": "bc25cf77",
			"swap(address,uint256,uint256)": "9f1d0f59",
			"symbol()": "95d89b41",
			"tokenX()": "16dc165b",
			"tokenY()": "b7d19fc4",
			"totalSupply()": "18160ddd",
			"transfer(address,uint256)": "a9059cbb",
			"transferFrom(address,address,uint256)": "23b872dd"
		}
	},
	"abi": [
		{
			"inputs": [],
			"stateMutability": "nonpayable",
			"type": "constructor"
		},
		{
			"anonymous": false,
			"inputs": [
				{
					"indexed": true,
					"internalType": "address",
					"name": "owner",
					"type": "address"
				},
				{
					"indexed": true,
					"internalType": "address",
					"name": "spender",
					"type": "address"
				},
				{
					"indexed": false,
					"internalType": "uint256",
					"name": "value",
					"type": "uint256"
				}
			],
			"name": "Approval",
			"type": "event"
		},
		{
			"anonymous": false,
			"inputs": [
				{
					"indexed": true,
					"internalType": "address",
					"name": "from",
					"type": "address"
				},
				{
					"indexed": true,
					"internalType": "address",
					"name": "to",
					"type": "address"
				},
				{
					"indexed": false,
					"internalType": "uint256",
					"name": "value",
					"type": "uint256"
				}
			],
			"name": "Transfer",
			"type": "event"
		},
		{
			"inputs": [
				{
					"internalType": "uint256",
					"name": "AddX",
					"type": "uint256"
				},
				{
					"internalType": "uint256",
					"name": "AddY",
					"type": "uint256"
				},
				{
					"internalType": "address",
					"name": "to",
					"type": "address"
				}
			],
			"name": "Add_Liquidity",
			"outputs": [
				{
					"internalType": "uint256",
					"name": "Liquidity",
					"type": "uint256"
				}
			],
			"stateMutability": "nonpayable",
			"type": "function"
		},
		{
			"inputs": [
				{
					"internalType": "uint256",
					"name": "new_margin",
					"type": "uint256"
				},
				{
					"internalType": "address",
					"name": "tokenID",
					"type": "address"
				},
				{
					"internalType": "address",
					"name": "userID",
					"type": "address"
				}
			],
			"name": "Add_Margin",
			"outputs": [],
			"stateMutability": "nonpayable",
			"type": "function"
		},
		{
			"inputs": [],
			"name": "B",
			"outputs": [
				{
					"internalType": "uint256",
					"name": "",
					"type": "uint256"
				}
			],
			"stateMutability": "view",
			"type": "function"
		},
		{
			"inputs": [],
			"name": "Base_rate",
			"outputs": [
				{
					"internalType": "uint256",
					"name": "",
					"type": "uint256"
				}
			],
			"stateMutability": "view",
			"type": "function"
		},
		{
			"inputs": [
				{
					"internalType": "uint256",
					"name": "Liquidity",
					"type": "uint256"
				},
				{
					"internalType": "address",
					"name": "to",
					"type": "address"
				}
			],
			"name": "Burn_Liquidity",
			"outputs": [
				{
					"internalType": "uint256",
					"name": "BurX",
					"type": "uint256"
				},
				{
					"internalType": "uint256",
					"name": "BurY",
					"type": "uint256"
				}
			],
			"stateMutability": "nonpayable",
			"type": "function"
		},
		{
			"inputs": [],
			"name": "C",
			"outputs": [
				{
					"internalType": "uint256",
					"name": "",
					"type": "uint256"
				}
			],
			"stateMutability": "view",
			"type": "function"
		},
		{
			"inputs": [],
			"name": "D",
			"outputs": [
				{
					"internalType": "uint256",
					"name": "",
					"type": "uint256"
				}
			],
			"stateMutability": "view",
			"type": "function"
		},
		{
			"inputs": [],
			"name": "D0",
			"outputs": [
				{
					"internalType": "uint256",
					"name": "",
					"type": "uint256"
				}
			],
			"stateMutability": "view",
			"type": "function"
		},
		{
			"inputs": [],
			"name": "DOMAIN_SEPARATOR",
			"outputs": [
				{
					"internalType": "bytes32",
					"name": "",
					"type": "bytes32"
				}
			],
			"stateMutability": "view",
			"type": "function"
		},
		{
			"inputs": [],
			"name": "GetMarginPrice",
			"outputs": [
				{
					"internalType": "uint256[]",
					"name": "margins",
					"type": "uint256[]"
				}
			],
			"stateMutability": "view",
			"type": "function"
		},
		{
			"inputs": [],
			"name": "Getfundingrate",
			"outputs": [
				{
					"internalType": "uint256",
					"name": "funding_x",
					"type": "uint256"
				},
				{
					"internalType": "uint256",
					"name": "funding_x_8h",
					"type": "uint256"
				},
				{
					"internalType": "bool",
					"name": "paying_side",
					"type": "bool"
				}
			],
			"stateMutability": "view",
			"type": "function"
		},
		{
			"inputs": [],
			"name": "Leverage_Margin",
			"outputs": [
				{
					"internalType": "uint256",
					"name": "",
					"type": "uint256"
				}
			],
			"stateMutability": "view",
			"type": "function"
		},
		{
			"inputs": [],
			"name": "Leverage_Max",
			"outputs": [
				{
					"internalType": "uint256",
					"name": "",
					"type": "uint256"
				}
			],
			"stateMutability": "view",
			"type": "function"
		},
		{
			"inputs": [
				{
					"internalType": "address",
					"name": "userID",
					"type": "address"
				},
				{
					"internalType": "address",
					"name": "_to",
					"type": "address"
				}
			],
			"name": "Liquidate",
			"outputs": [],
			"stateMutability": "nonpayable",
			"type": "function"
		},
		{
			"inputs": [],
			"name": "Liquidation_bonus",
			"outputs": [
				{
					"internalType": "uint256",
					"name": "",
					"type": "uint256"
				}
			],
			"stateMutability": "view",
			"type": "function"
		},
		{
			"inputs": [],
			"name": "Liquidation_rate",
			"outputs": [
				{
					"internalType": "uint256",
					"name": "",
					"type": "uint256"
				}
			],
			"stateMutability": "view",
			"type": "function"
		},
		{
			"inputs": [],
			"name": "M",
			"outputs": [
				{
					"internalType": "uint256",
					"name": "",
					"type": "uint256"
				}
			],
			"stateMutability": "view",
			"type": "function"
		},
		{
			"inputs": [],
			"name": "M_Last",
			"outputs": [
				{
					"internalType": "uint256",
					"name": "",
					"type": "uint256"
				}
			],
			"stateMutability": "view",
			"type": "function"
		},
		{
			"inputs": [
				{
					"internalType": "uint256",
					"name": "",
					"type": "uint256"
				}
			],
			"name": "Margin_tpyes",
			"outputs": [
				{
					"internalType": "address",
					"name": "",
					"type": "address"
				}
			],
			"stateMutability": "view",
			"type": "function"
		},
		{
			"inputs": [],
			"name": "N",
			"outputs": [
				{
					"internalType": "uint256",
					"name": "",
					"type": "uint256"
				}
			],
			"stateMutability": "view",
			"type": "function"
		},
		{
			"inputs": [],
			"name": "N_Last",
			"outputs": [
				{
					"internalType": "uint256",
					"name": "",
					"type": "uint256"
				}
			],
			"stateMutability": "view",
			"type": "function"
		},
		{
			"inputs": [
				{
					"internalType": "address",
					"name": "userID",
					"type": "address"
				}
			],
			"name": "Net_Margin",
			"outputs": [
				{
					"internalType": "uint256",
					"name": "net",
					"type": "uint256"
				}
			],
			"stateMutability": "view",
			"type": "function"
		},
		{
			"inputs": [
				{
					"internalType": "address",
					"name": "userID",
					"type": "address"
				}
			],
			"name": "Net_Position",
			"outputs": [
				{
					"internalType": "uint256",
					"name": "net",
					"type": "uint256"
				}
			],
			"stateMutability": "view",
			"type": "function"
		},
		{
			"inputs": [
				{
					"internalType": "address",
					"name": "userID",
					"type": "address"
				}
			],
			"name": "Net_debt",
			"outputs": [
				{
					"internalType": "uint256",
					"name": "net",
					"type": "uint256"
				}
			],
			"stateMutability": "view",
			"type": "function"
		},
		{
			"inputs": [],
			"name": "PERMIT_TYPEHASH",
			"outputs": [
				{
					"internalType": "bytes32",
					"name": "",
					"type": "bytes32"
				}
			],
			"stateMutability": "view",
			"type": "function"
		},
		{
			"inputs": [],
			"name": "Peqx",
			"outputs": [
				{
					"internalType": "uint256",
					"name": "",
					"type": "uint256"
				}
			],
			"stateMutability": "view",
			"type": "function"
		},
		{
			"inputs": [],
			"name": "Peqy",
			"outputs": [
				{
					"internalType": "uint256",
					"name": "",
					"type": "uint256"
				}
			],
			"stateMutability": "view",
			"type": "function"
		},
		{
			"inputs": [
				{
					"internalType": "uint256",
					"name": "delta_X",
					"type": "uint256"
				},
				{
					"internalType": "uint256",
					"name": "delta_Y",
					"type": "uint256"
				},
				{
					"internalType": "address",
					"name": "userID",
					"type": "address"
				}
			],
			"name": "Perp_biopen",
			"outputs": [],
			"stateMutability": "nonpayable",
			"type": "function"
		},
		{
			"inputs": [
				{
					"internalType": "uint256",
					"name": "delta_X",
					"type": "uint256"
				},
				{
					"internalType": "uint256",
					"name": "delta_Y",
					"type": "uint256"
				},
				{
					"internalType": "address",
					"name": "userID",
					"type": "address"
				}
			],
			"name": "Perp_close",
			"outputs": [],
			"stateMutability": "nonpayable",
			"type": "function"
		},
		{
			"inputs": [
				{
					"internalType": "uint256",
					"name": "delta_X",
					"type": "uint256"
				},
				{
					"internalType": "uint256",
					"name": "delta_Y",
					"type": "uint256"
				},
				{
					"internalType": "bool",
					"name": "XtoY",
					"type": "bool"
				},
				{
					"internalType": "address",
					"name": "userID",
					"type": "address"
				}
			],
			"name": "Perp_open",
			"outputs": [],
			"stateMutability": "nonpayable",
			"type": "function"
		},
		{
			"inputs": [],
			"name": "Price_local",
			"outputs": [
				{
					"internalType": "uint256",
					"name": "",
					"type": "uint256"
				}
			],
			"stateMutability": "view",
			"type": "function"
		},
		{
			"inputs": [
				{
					"internalType": "uint256",
					"name": "L",
					"type": "uint256"
				}
			],
			"name": "Set_LeverageMargin",
			"outputs": [],
			"stateMutability": "nonpayable",
			"type": "function"
		},
		{
			"inputs": [
				{
					"internalType": "uint256",
					"name": "L",
					"type": "uint256"
				}
			],
			"name": "Set_LeverageMax",
			"outputs": [],
			"stateMutability": "nonpayable",
			"type": "function"
		},
		{
			"inputs": [
				{
					"internalType": "uint256",
					"name": "rate",
					"type": "uint256"
				}
			],
			"name": "Set_Liquidation_rate",
			"outputs": [],
			"stateMutability": "nonpayable",
			"type": "function"
		},
		{
			"inputs": [
				{
					"internalType": "uint256",
					"name": "f",
					"type": "uint256"
				}
			],
			"name": "Set_fundingrate_upper",
			"outputs": [],
			"stateMutability": "nonpayable",
			"type": "function"
		},
		{
			"inputs": [],
			"name": "Tick_range",
			"outputs": [
				{
					"internalType": "uint256",
					"name": "",
					"type": "uint256"
				}
			],
			"stateMutability": "view",
			"type": "function"
		},
		{
			"inputs": [],
			"name": "Total_Liquidity",
			"outputs": [
				{
					"internalType": "uint256",
					"name": "",
					"type": "uint256"
				}
			],
			"stateMutability": "view",
			"type": "function"
		},
		{
			"inputs": [],
			"name": "Total_debt_X",
			"outputs": [
				{
					"internalType": "uint256",
					"name": "",
					"type": "uint256"
				}
			],
			"stateMutability": "view",
			"type": "function"
		},
		{
			"inputs": [],
			"name": "Total_debt_Y",
			"outputs": [
				{
					"internalType": "uint256",
					"name": "",
					"type": "uint256"
				}
			],
			"stateMutability": "view",
			"type": "function"
		},
		{
			"inputs": [],
			"name": "Total_debttoken_X",
			"outputs": [
				{
					"internalType": "uint256",
					"name": "",
					"type": "uint256"
				}
			],
			"stateMutability": "view",
			"type": "function"
		},
		{
			"inputs": [],
			"name": "Total_debttoken_Y",
			"outputs": [
				{
					"internalType": "uint256",
					"name": "",
					"type": "uint256"
				}
			],
			"stateMutability": "view",
			"type": "function"
		},
		{
			"inputs": [],
			"name": "True_Liquid_X",
			"outputs": [
				{
					"internalType": "uint256",
					"name": "",
					"type": "uint256"
				}
			],
			"stateMutability": "view",
			"type": "function"
		},
		{
			"inputs": [],
			"name": "True_Liquid_X0",
			"outputs": [
				{
					"internalType": "uint256",
					"name": "",
					"type": "uint256"
				}
			],
			"stateMutability": "view",
			"type": "function"
		},
		{
			"inputs": [],
			"name": "True_Liquid_Y",
			"outputs": [
				{
					"internalType": "uint256",
					"name": "",
					"type": "uint256"
				}
			],
			"stateMutability": "view",
			"type": "function"
		},
		{
			"inputs": [],
			"name": "True_Liquid_Y0",
			"outputs": [
				{
					"internalType": "uint256",
					"name": "",
					"type": "uint256"
				}
			],
			"stateMutability": "view",
			"type": "function"
		},
		{
			"inputs": [],
			"name": "X_Coord",
			"outputs": [
				{
					"internalType": "uint256",
					"name": "",
					"type": "uint256"
				}
			],
			"stateMutability": "view",
			"type": "function"
		},
		{
			"inputs": [],
			"name": "X_Coord_Last",
			"outputs": [
				{
					"internalType": "uint256",
					"name": "",
					"type": "uint256"
				}
			],
			"stateMutability": "view",
			"type": "function"
		},
		{
			"inputs": [],
			"name": "Xeq",
			"outputs": [
				{
					"internalType": "uint256",
					"name": "",
					"type": "uint256"
				}
			],
			"stateMutability": "view",
			"type": "function"
		},
		{
			"inputs": [],
			"name": "Xgetp",
			"outputs": [
				{
					"internalType": "uint256",
					"name": "",
					"type": "uint256"
				}
			],
			"stateMutability": "view",
			"type": "function"
		},
		{
			"inputs": [],
			"name": "Y_Coord",
			"outputs": [
				{
					"internalType": "uint256",
					"name": "",
					"type": "uint256"
				}
			],
			"stateMutability": "view",
			"type": "function"
		},
		{
			"inputs": [],
			"name": "Y_Coord_Last",
			"outputs": [
				{
					"internalType": "uint256",
					"name": "",
					"type": "uint256"
				}
			],
			"stateMutability": "view",
			"type": "function"
		},
		{
			"inputs": [],
			"name": "Yeq",
			"outputs": [
				{
					"internalType": "uint256",
					"name": "",
					"type": "uint256"
				}
			],
			"stateMutability": "view",
			"type": "function"
		},
		{
			"inputs": [],
			"name": "Ygetp",
			"outputs": [
				{
					"internalType": "uint256",
					"name": "",
					"type": "uint256"
				}
			],
			"stateMutability": "view",
			"type": "function"
		},
		{
			"inputs": [
				{
					"internalType": "address",
					"name": "",
					"type": "address"
				},
				{
					"internalType": "address",
					"name": "",
					"type": "address"
				}
			],
			"name": "allowance",
			"outputs": [
				{
					"internalType": "uint256",
					"name": "",
					"type": "uint256"
				}
			],
			"stateMutability": "view",
			"type": "function"
		},
		{
			"inputs": [
				{
					"internalType": "address",
					"name": "spender",
					"type": "address"
				},
				{
					"internalType": "uint256",
					"name": "value",
					"type": "uint256"
				}
			],
			"name": "approve",
			"outputs": [
				{
					"internalType": "bool",
					"name": "",
					"type": "bool"
				}
			],
			"stateMutability": "nonpayable",
			"type": "function"
		},
		{
			"inputs": [
				{
					"internalType": "address",
					"name": "",
					"type": "address"
				}
			],
			"name": "balanceOf",
			"outputs": [
				{
					"internalType": "uint256",
					"name": "",
					"type": "uint256"
				}
			],
			"stateMutability": "view",
			"type": "function"
		},
		{
			"inputs": [
				{
					"internalType": "address",
					"name": "",
					"type": "address"
				},
				{
					"internalType": "bool",
					"name": "",
					"type": "bool"
				}
			],
			"name": "debt_index",
			"outputs": [
				{
					"internalType": "address",
					"name": "user_ID",
					"type": "address"
				},
				{
					"internalType": "bool",
					"name": "token_ID",
					"type": "bool"
				},
				{
					"internalType": "uint256",
					"name": "debttoken_amount",
					"type": "uint256"
				},
				{
					"internalType": "uint256",
					"name": "position_amount",
					"type": "uint256"
				}
			],
			"stateMutability": "view",
			"type": "function"
		},
		{
			"inputs": [],
			"name": "decimals",
			"outputs": [
				{
					"internalType": "uint8",
					"name": "",
					"type": "uint8"
				}
			],
			"stateMutability": "view",
			"type": "function"
		},
		{
			"inputs": [],
			"name": "factory",
			"outputs": [
				{
					"internalType": "address",
					"name": "",
					"type": "address"
				}
			],
			"stateMutability": "view",
			"type": "function"
		},
		{
			"inputs": [],
			"name": "funding_Last",
			"outputs": [
				{
					"internalType": "uint256",
					"name": "",
					"type": "uint256"
				}
			],
			"stateMutability": "view",
			"type": "function"
		},
		{
			"inputs": [],
			"name": "funding_x_8h_upper",
			"outputs": [
				{
					"internalType": "uint256",
					"name": "",
					"type": "uint256"
				}
			],
			"stateMutability": "view",
			"type": "function"
		},
		{
			"inputs": [],
			"name": "fundingtime_Last",
			"outputs": [
				{
					"internalType": "uint256",
					"name": "",
					"type": "uint256"
				}
			],
			"stateMutability": "view",
			"type": "function"
		},
		{
			"inputs": [
				{
					"internalType": "address",
					"name": "token",
					"type": "address"
				}
			],
			"name": "get_margin_price",
			"outputs": [
				{
					"internalType": "uint256",
					"name": "price",
					"type": "uint256"
				}
			],
			"stateMutability": "view",
			"type": "function"
		},
		{
			"inputs": [
				{
					"internalType": "address",
					"name": "_tokenX",
					"type": "address"
				},
				{
					"internalType": "address",
					"name": "_tokenY",
					"type": "address"
				}
			],
			"name": "initialize",
			"outputs": [],
			"stateMutability": "nonpayable",
			"type": "function"
		},
		{
			"inputs": [
				{
					"internalType": "address",
					"name": "",
					"type": "address"
				},
				{
					"internalType": "uint256",
					"name": "",
					"type": "uint256"
				}
			],
			"name": "margin_index",
			"outputs": [
				{
					"internalType": "uint256",
					"name": "",
					"type": "uint256"
				}
			],
			"stateMutability": "view",
			"type": "function"
		},
		{
			"inputs": [
				{
					"internalType": "address",
					"name": "",
					"type": "address"
				}
			],
			"name": "margin_type",
			"outputs": [
				{
					"internalType": "uint256",
					"name": "",
					"type": "uint256"
				}
			],
			"stateMutability": "view",
			"type": "function"
		},
		{
			"inputs": [],
			"name": "name",
			"outputs": [
				{
					"internalType": "string",
					"name": "",
					"type": "string"
				}
			],
			"stateMutability": "view",
			"type": "function"
		},
		{
			"inputs": [
				{
					"internalType": "address",
					"name": "",
					"type": "address"
				}
			],
			"name": "nonces",
			"outputs": [
				{
					"internalType": "uint256",
					"name": "",
					"type": "uint256"
				}
			],
			"stateMutability": "view",
			"type": "function"
		},
		{
			"inputs": [],
			"name": "paying_side_Last",
			"outputs": [
				{
					"internalType": "bool",
					"name": "",
					"type": "bool"
				}
			],
			"stateMutability": "view",
			"type": "function"
		},
		{
			"inputs": [
				{
					"internalType": "address",
					"name": "owner",
					"type": "address"
				},
				{
					"internalType": "address",
					"name": "spender",
					"type": "address"
				},
				{
					"internalType": "uint256",
					"name": "value",
					"type": "uint256"
				},
				{
					"internalType": "uint256",
					"name": "deadline",
					"type": "uint256"
				},
				{
					"internalType": "uint8",
					"name": "v",
					"type": "uint8"
				},
				{
					"internalType": "bytes32",
					"name": "r",
					"type": "bytes32"
				},
				{
					"internalType": "bytes32",
					"name": "s",
					"type": "bytes32"
				}
			],
			"name": "permit",
			"outputs": [],
			"stateMutability": "nonpayable",
			"type": "function"
		},
		{
			"inputs": [
				{
					"internalType": "address",
					"name": "to",
					"type": "address"
				}
			],
			"name": "skim",
			"outputs": [],
			"stateMutability": "nonpayable",
			"type": "function"
		},
		{
			"inputs": [
				{
					"internalType": "address",
					"name": "to",
					"type": "address"
				},
				{
					"internalType": "uint256",
					"name": "Xout",
					"type": "uint256"
				},
				{
					"internalType": "uint256",
					"name": "Yout",
					"type": "uint256"
				}
			],
			"name": "swap",
			"outputs": [],
			"stateMutability": "nonpayable",
			"type": "function"
		},
		{
			"inputs": [],
			"name": "symbol",
			"outputs": [
				{
					"internalType": "string",
					"name": "",
					"type": "string"
				}
			],
			"stateMutability": "view",
			"type": "function"
		},
		{
			"inputs": [],
			"name": "tokenX",
			"outputs": [
				{
					"internalType": "address",
					"name": "",
					"type": "address"
				}
			],
			"stateMutability": "view",
			"type": "function"
		},
		{
			"inputs": [],
			"name": "tokenY",
			"outputs": [
				{
					"internalType": "address",
					"name": "",
					"type": "address"
				}
			],
			"stateMutability": "view",
			"type": "function"
		},
		{
			"inputs": [],
			"name": "totalSupply",
			"outputs": [
				{
					"internalType": "uint256",
					"name": "",
					"type": "uint256"
				}
			],
			"stateMutability": "view",
			"type": "function"
		},
		{
			"inputs": [
				{
					"internalType": "address",
					"name": "to",
					"type": "address"
				},
				{
					"internalType": "uint256",
					"name": "value",
					"type": "uint256"
				}
			],
			"name": "transfer",
			"outputs": [
				{
					"internalType": "bool",
					"name": "",
					"type": "bool"
				}
			],
			"stateMutability": "nonpayable",
			"type": "function"
		},
		{
			"inputs": [
				{
					"internalType": "address",
					"name": "from",
					"type": "address"
				},
				{
					"internalType": "address",
					"name": "to",
					"type": "address"
				},
				{
					"internalType": "uint256",
					"name": "value",
					"type": "uint256"
				}
			],
			"name": "transferFrom",
			"outputs": [
				{
					"internalType": "bool",
					"name": "",
					"type": "bool"
				}
			],
			"stateMutability": "nonpayable",
			"type": "function"
		}
	]
}