{
	"data": {
		"bytecode": {
			"linkReferences": {},
			"object": "6080604052670de0b6b3a7640000602c556001602f553480156200002257600080fd5b5060004690507f8b73c3c69bb8fe3d512ecc4cf759cc79239f7b179b0ffacaa9a75d522b39400f6040518060400160405280600a81526020017f556e697377617020563200000000000000000000000000000000000000000000815250805190602001206040518060400160405280600181526020017f3100000000000000000000000000000000000000000000000000000000000000815250805190602001208330604051602001620000db95949392919062000172565b604051602081830303815290604052805190602001206003819055505033602560006101000a81548173ffffffffffffffffffffffffffffffffffffffff021916908373ffffffffffffffffffffffffffffffffffffffff16021790555062000217565b6200014a81620001cf565b82525050565b6200015b81620001e3565b82525050565b6200016c816200020d565b82525050565b600060a08201905062000189600083018862000150565b62000198602083018762000150565b620001a7604083018662000150565b620001b6606083018562000161565b620001c560808301846200013f565b9695505050505050565b6000620001dc82620001ed565b9050919050565b6000819050919050565b600073ffffffffffffffffffffffffffffffffffffffff82169050919050565b6000819050919050565b61694780620002276000396000f3fe608060405234801561001057600080fd5b50600436106104065760003560e01c80637e1431be11610220578063bc25cf7711610130578063ddca3f43116100b8578063f70f439411610087578063f70f439414610c2f578063f738c74e14610c4d578063fc69b80f14610c6b578063fe18f26114610c9b578063ff2f169e14610cb957610406565b8063ddca3f4314610bb7578063df0ab2c214610bd5578063e19a147414610bf3578063ea1797b014610c1157610406565b8063c9e525df116100ff578063c9e525df14610b13578063cfe38a5e14610b31578063d44022db14610b4d578063d505accf14610b6b578063dd62ed3e14610b8757610406565b8063bc25cf7714610a9f578063c3d81b2114610abb578063c45a015514610ad7578063c7d4493214610af557610406565b80638e361389116101b35780639f1d0f59116101825780639f1d0f59146109f9578063a5aa65b914610a15578063a9059cbb14610a33578063acd4a7c214610a63578063b7d19fc414610a8157610406565b80638e361389146109835780639076ae86146109a157806395d89b41146109bd5780639a36e122146109db57610406565b806383dfe5fd116101ef57806383dfe5fd1461090d578063840096861461092b5780638bc1a32f146109495780638cf825e71461096757610406565b80637e1431be1461086e5780637ecebe00146108a15780637ed6281b146108d157806380416c02146108ef57610406565b8063313ce5671161031b5780635595d459116102ae5780636665ff111161027d5780636665ff11146107b35780636b3545aa146107e457806370a082311461080257806379dbf8ea146108325780637e11939a1461085057610406565b80635595d459146107295780635e287d86146107475780636126deef146107655780636607e7e81461079557610406565b80633c6fe2f4116102ea5780633c6fe2f4146106b5578063480c4f7e146106d3578063485cc955146106f15780634c324e6a1461070d57610406565b8063313ce5671461063d57806332e7c5bf1461065b5780633644e5151461067957806336af2f9b1461069757610406565b806318160ddd1161039e578063225c2c501161036d578063225c2c501461059557806323b872dd146105b357806323ed16b6146105e35780632dd6c2541461060157806330adf81f1461061f57610406565b806318160ddd1461050b57806318db9681146105295780631cbdffd1146105475780632190219e1461057757610406565b80630bfa68d8116103da5780630bfa68d8146104955780630f529ba2146104b1578063139860ee146104cf57806316dc165b146104ed57610406565b8062b526451461040b57806306fdde0314610429578063095ea7b3146104475780630b19761514610477575b600080fd5b610413610cd5565b6040516104209190616276565b60405180910390f35b610431610cdb565b60405161043e9190616154565b60405180910390f35b610461600480360381019061045c9190615b86565b610d14565b60405161046e9190616078565b60405180910390f35b61047f610d2b565b60405161048c9190616276565b60405180910390f35b6104af60048036038101906104aa9190615c46565b610d31565b005b6104b9610d95565b6040516104c69190616276565b60405180910390f35b6104d7610d9b565b6040516104e49190616276565b60405180910390f35b6104f5610da1565b6040516105029190615fef565b60405180910390f35b610513610dc7565b6040516105209190616276565b60405180910390f35b610531610dcd565b60405161053e9190616276565b60405180910390f35b610561600480360381019061055c9190615c46565b610dd3565b60405161056e9190616276565b60405180910390f35b61057f610dee565b60405161058c9190616276565b60405180910390f35b61059d610df4565b6040516105aa9190616276565b60405180910390f35b6105cd60048036038101906105c89190615a51565b610dfa565b6040516105da9190616078565b60405180910390f35b6105eb610fa7565b6040516105f89190616276565b60405180910390f35b610609610fad565b6040516106169190616276565b60405180910390f35b610627610fb3565b6040516106349190616093565b60405180910390f35b610645610fda565b60405161065291906162ba565b60405180910390f35b610663610fdf565b6040516106709190616276565b60405180910390f35b610681610fe5565b60405161068e9190616093565b60405180910390f35b61069f610feb565b6040516106ac9190616276565b60405180910390f35b6106bd610ff1565b6040516106ca9190616276565b60405180910390f35b6106db610ff7565b6040516106e89190616276565b60405180910390f35b61070b60048036038101906107069190615a11565b610ffd565b005b61072760048036038101906107229190615ce0565b611113565b005b610731612025565b60405161073e9190616276565b60405180910390f35b61074f61202b565b60405161075c9190616276565b60405180910390f35b61077f600480360381019061077a9190615ce0565b612031565b60405161078c9190616276565b60405180910390f35b61079d612132565b6040516107aa9190616276565b60405180910390f35b6107cd60048036038101906107c89190615ca0565b612138565b6040516107db929190616291565b60405180910390f35b6107ec6122a5565b6040516107f99190616276565b60405180910390f35b61081c600480360381019061081791906159e4565b6122ab565b6040516108299190616276565b60405180910390f35b61083a6122c3565b6040516108479190616276565b60405180910390f35b6108586122c9565b6040516108659190616276565b60405180910390f35b61088860048036038101906108839190615b46565b6122cf565b604051610898949392919061600a565b60405180910390f35b6108bb60048036038101906108b691906159e4565b612339565b6040516108c89190616276565b60405180910390f35b6108d9612351565b6040516108e69190616276565b60405180910390f35b6108f7612357565b6040516109049190616276565b60405180910390f35b61091561235d565b6040516109229190616276565b60405180910390f35b610933612363565b6040516109409190616276565b60405180910390f35b610951612369565b60405161095e9190616276565b60405180910390f35b610981600480360381019061097c9190615a11565b61236f565b005b61098b612691565b6040516109989190616276565b60405180910390f35b6109bb60048036038101906109b69190615d33565b612697565b005b6109c5612abb565b6040516109d29190616154565b60405180910390f35b6109e3612af4565b6040516109f09190616276565b60405180910390f35b610a136004803603810190610a0e9190615bc6565b612afa565b005b610a1d612e7e565b604051610a2a9190616276565b60405180910390f35b610a4d6004803603810190610a489190615b86565b612e84565b604051610a5a9190616078565b60405180910390f35b610a6b612e9b565b604051610a789190616276565b60405180910390f35b610a89612ea1565b604051610a969190615fef565b60405180910390f35b610ab96004803603810190610ab491906159e4565b612ec7565b005b610ad56004803603810190610ad09190615a11565b6130f5565b005b610adf6134a6565b604051610aec9190615fef565b60405180910390f35b610afd6134cc565b604051610b0a9190616078565b60405180910390f35b610b1b6134df565b604051610b289190616276565b60405180910390f35b610b4b6004803603810190610b469190615c46565b6134e5565b005b610b55613549565b604051610b629190616276565b60405180910390f35b610b856004803603810190610b809190615aa4565b61354f565b005b610ba16004803603810190610b9c9190615a11565b613777565b604051610bae9190616276565b60405180910390f35b610bbf61379c565b604051610bcc9190616276565b60405180910390f35b610bdd6137a2565b604051610bea9190616276565b60405180910390f35b610bfb6137a8565b604051610c089190616276565b60405180910390f35b610c196137ae565b604051610c269190616276565b60405180910390f35b610c376137b4565b604051610c449190616276565b60405180910390f35b610c556137ba565b604051610c629190616276565b60405180910390f35b610c856004803603810190610c809190615b86565b6137c0565b604051610c929190616276565b60405180910390f35b610ca36137e8565b604051610cb09190616276565b60405180910390f35b610cd36004803603810190610cce9190615c46565b6137ee565b005b600e5481565b6040518060400160405280600a81526020017f556e69737761702056320000000000000000000000000000000000000000000081525081565b6000610d21338484613852565b6001905092915050565b60155481565b602560009054906101000a900473ffffffffffffffffffffffffffffffffffffffff1673ffffffffffffffffffffffffffffffffffffffff163373ffffffffffffffffffffffffffffffffffffffff1614610d8b57600080fd5b8060218190555050565b60075481565b601c5481565b602660009054906101000a900473ffffffffffffffffffffffffffffffffffffffff1681565b60005481565b601d5481565b60308160028110610de357600080fd5b016000915090505481565b60195481565b601a5481565b6000610101600260008673ffffffffffffffffffffffffffffffffffffffff1673ffffffffffffffffffffffffffffffffffffffff16815260200190815260200160002060003373ffffffffffffffffffffffffffffffffffffffff1673ffffffffffffffffffffffffffffffffffffffff1681526020019081526020016000205414610f9157610f1082600260008773ffffffffffffffffffffffffffffffffffffffff1673ffffffffffffffffffffffffffffffffffffffff16815260200190815260200160002060003373ffffffffffffffffffffffffffffffffffffffff1673ffffffffffffffffffffffffffffffffffffffff1681526020019081526020016000205461393d90919063ffffffff16565b600260008673ffffffffffffffffffffffffffffffffffffffff1673ffffffffffffffffffffffffffffffffffffffff16815260200190815260200160002060003373ffffffffffffffffffffffffffffffffffffffff1673ffffffffffffffffffffffffffffffffffffffff168152602001908152602001600020819055505b610f9c848484613996565b600190509392505050565b601e5481565b60295481565b7f6e71edae12b1b97f4d1f60370fef10105fa2faae0126114a169c64845d6126c960001b81565b601281565b60055481565b60035481565b600c5481565b60135481565b60175481565b602560009054906101000a900473ffffffffffffffffffffffffffffffffffffffff1673ffffffffffffffffffffffffffffffffffffffff163373ffffffffffffffffffffffffffffffffffffffff161461108d576040517f08c379a0000000000000000000000000000000000000000000000000000000008152600401611084906161f6565b60405180910390fd5b81602660006101000a81548173ffffffffffffffffffffffffffffffffffffffff021916908373ffffffffffffffffffffffffffffffffffffffff16021790555080602760006101000a81548173ffffffffffffffffffffffffffffffffffffffff021916908373ffffffffffffffffffffffffffffffffffffffff1602179055505050565b6001602f5414611158576040517f08c379a000000000000000000000000000000000000000000000000000000000815260040161114f90616256565b60405180910390fd5b6000602f819055506000828461116e919061650a565b1480156111865750600082846111849190616312565b115b80156111b4575061119681613b2a565b61119f82613c1e565b6111a883613d03565b6111b29190616312565b115b80156112175750603260008273ffffffffffffffffffffffffffffffffffffffff1673ffffffffffffffffffffffffffffffffffffffff168152602001908152602001600020600080151515158152602001908152602001600020600201548311155b801561127b5750603260008273ffffffffffffffffffffffffffffffffffffffff1673ffffffffffffffffffffffffffffffffffffffff16815260200190815260200160002060006001151515158152602001908152602001600020600201548211155b61128457600080fd5b61128c613dd2565b60008311156119be5760006112a2846001613efe565b9050600061136685603260008673ffffffffffffffffffffffffffffffffffffffff1673ffffffffffffffffffffffffffffffffffffffff1681526020019081526020016000206000600115151515815260200190815260200160002060010154601a54601c54603260008973ffffffffffffffffffffffffffffffffffffffff1673ffffffffffffffffffffffffffffffffffffffff16815260200190815260200160002060008015151515815260200190815260200160002060020154614232565b905084603260008573ffffffffffffffffffffffffffffffffffffffff1673ffffffffffffffffffffffffffffffffffffffff16815260200190815260200160002060008015151515815260200190815260200160002060020160008282546113cf9190616564565b9250508190555080601a60008282546113e89190616564565b925050819055506114a9603260008573ffffffffffffffffffffffffffffffffffffffff1673ffffffffffffffffffffffffffffffffffffffff168152602001908152602001600020600060011515151581526020019081526020016000206001015486603260008773ffffffffffffffffffffffffffffffffffffffff1673ffffffffffffffffffffffffffffffffffffffff1681526020019081526020016000206000801515151581526020019081526020016000206002015461426c565b601c60008282546114ba9190616564565b9250508190555061157b603260008573ffffffffffffffffffffffffffffffffffffffff1673ffffffffffffffffffffffffffffffffffffffff168152602001908152602001600020600060011515151581526020019081526020016000206001015486603260008773ffffffffffffffffffffffffffffffffffffffff1673ffffffffffffffffffffffffffffffffffffffff1681526020019081526020016000206000801515151581526020019081526020016000206002015461426c565b603260008573ffffffffffffffffffffffffffffffffffffffff1673ffffffffffffffffffffffffffffffffffffffff1681526020019081526020016000206000600115151515815260200190815260200160002060010160008282546115e29190616564565b92505081905550808211801561160b575060001515602d60009054906101000a900460ff161515145b1561169457611626818361161f9190616564565b600061428e565b603360008573ffffffffffffffffffffffffffffffffffffffff1673ffffffffffffffffffffffffffffffffffffffff168152602001908152602001600020600060028110611678576116776166db565b5b0160008282546116889190616312565b925050819055506119b7565b8082603360008673ffffffffffffffffffffffffffffffffffffffff1673ffffffffffffffffffffffffffffffffffffffff1681526020019081526020016000206001600281106116e8576116e76166db565b5b01546116f49190616312565b118015611714575060011515602d60009054906101000a900460ff161515145b156117df578082603360008673ffffffffffffffffffffffffffffffffffffffff1673ffffffffffffffffffffffffffffffffffffffff16815260200190815260200160002060016002811061176d5761176c6166db565b5b01546117799190616312565b6117839190616564565b603360008573ffffffffffffffffffffffffffffffffffffffff1673ffffffffffffffffffffffffffffffffffffffff1681526020019081526020016000206001600281106117d5576117d46166db565b5b01819055506119b6565b6118a7603360008573ffffffffffffffffffffffffffffffffffffffff1673ffffffffffffffffffffffffffffffffffffffff168152602001908152602001600020600160028110611834576118336166db565b5b015483836118429190616564565b61184c9190616564565b603360008673ffffffffffffffffffffffffffffffffffffffff1673ffffffffffffffffffffffffffffffffffffffff16815260200190815260200160002060006002811061189e5761189d6166db565b5b015460006145c2565b603360008573ffffffffffffffffffffffffffffffffffffffff1673ffffffffffffffffffffffffffffffffffffffff1681526020019081526020016000206000600281106118f9576118f86166db565b5b01546119059190616564565b603360008573ffffffffffffffffffffffffffffffffffffffff1673ffffffffffffffffffffffffffffffffffffffff168152602001908152602001600020600060028110611957576119566166db565b5b01819055506000603360008573ffffffffffffffffffffffffffffffffffffffff1673ffffffffffffffffffffffffffffffffffffffff1681526020019081526020016000206001600281106119b0576119af6166db565b5b01819055505b5b5050612018565b60006119cb83600161428e565b90506000611a8f84603260008673ffffffffffffffffffffffffffffffffffffffff1673ffffffffffffffffffffffffffffffffffffffff16815260200190815260200160002060008015151515815260200190815260200160002060010154601954601b54603260008973ffffffffffffffffffffffffffffffffffffffff1673ffffffffffffffffffffffffffffffffffffffff1681526020019081526020016000206000600115151515815260200190815260200160002060020154614232565b905083603260008573ffffffffffffffffffffffffffffffffffffffff1673ffffffffffffffffffffffffffffffffffffffff168152602001908152602001600020600060011515151581526020019081526020016000206002016000828254611af99190616564565b925050819055508060196000828254611b129190616564565b92505081905550611bd3603260008573ffffffffffffffffffffffffffffffffffffffff1673ffffffffffffffffffffffffffffffffffffffff1681526020019081526020016000206000801515151581526020019081526020016000206001015485603260008773ffffffffffffffffffffffffffffffffffffffff1673ffffffffffffffffffffffffffffffffffffffff168152602001908152602001600020600060011515151581526020019081526020016000206002015461426c565b601b6000828254611be49190616564565b92505081905550611ca5603260008573ffffffffffffffffffffffffffffffffffffffff1673ffffffffffffffffffffffffffffffffffffffff1681526020019081526020016000206000801515151581526020019081526020016000206001015485603260008773ffffffffffffffffffffffffffffffffffffffff1673ffffffffffffffffffffffffffffffffffffffff168152602001908152602001600020600060011515151581526020019081526020016000206002015461426c565b603260008573ffffffffffffffffffffffffffffffffffffffff1673ffffffffffffffffffffffffffffffffffffffff1681526020019081526020016000206000801515151581526020019081526020016000206001016000828254611d0b9190616564565b925050819055508082603360008673ffffffffffffffffffffffffffffffffffffffff1673ffffffffffffffffffffffffffffffffffffffff168152602001908152602001600020600060028110611d6657611d656166db565b5b0154611d729190616312565b1115611e3e578082603360008673ffffffffffffffffffffffffffffffffffffffff1673ffffffffffffffffffffffffffffffffffffffff168152602001908152602001600020600060028110611dcc57611dcb6166db565b5b0154611dd89190616312565b611de29190616564565b603360008573ffffffffffffffffffffffffffffffffffffffff1673ffffffffffffffffffffffffffffffffffffffff168152602001908152602001600020600060028110611e3457611e336166db565b5b0181905550612015565b611f06603360008573ffffffffffffffffffffffffffffffffffffffff1673ffffffffffffffffffffffffffffffffffffffff168152602001908152602001600020600060028110611e9357611e926166db565b5b01548383611ea19190616564565b611eab9190616564565b603360008673ffffffffffffffffffffffffffffffffffffffff1673ffffffffffffffffffffffffffffffffffffffff168152602001908152602001600020600160028110611efd57611efc6166db565b5b01546000614901565b603360008573ffffffffffffffffffffffffffffffffffffffff1673ffffffffffffffffffffffffffffffffffffffff168152602001908152602001600020600160028110611f5857611f576166db565b5b0154611f649190616564565b603360008573ffffffffffffffffffffffffffffffffffffffff1673ffffffffffffffffffffffffffffffffffffffff168152602001908152602001600020600160028110611fb657611fb56166db565b5b01819055506000603360008573ffffffffffffffffffffffffffffffffffffffff1673ffffffffffffffffffffffffffffffffffffffff16815260200190815260200160002060006002811061200f5761200e6166db565b5b01819055505b50505b6001602f81905550505050565b60145481565b601f5481565b60006001602f5414612078576040517f08c379a000000000000000000000000000000000000000000000000000000000815260040161206f90616256565b60405180910390fd5b6000602f8190555061209c600b54856014546120949190616312565b60145461426c565b600b819055506120be600c54846013546120b69190616312565b60135461426c565b600c819055506120d36029548560145461426c565b9050806029546120e39190616312565b602981905550836014546120f79190616312565b6014819055508260135461210b9190616312565b60138190555061211b8282614c40565b612123614d5a565b6001602f819055509392505050565b60165481565b6000806001602f5414612180576040517f08c379a000000000000000000000000000000000000000000000000000000000815260040161217790616256565b60405180910390fd5b6000602f819055506121978460145460295461426c565b91506121a88460135460295461426c565b90506121c6600b54836014546121be9190616564565b60145461426c565b600b819055506121e8600c54826013546121e09190616564565b60135461426c565b600c81905550816014546121fc9190616564565b601481905550806013546122109190616564565b601381905550836029546122249190616564565b6029819055506122343085614dcc565b612261602660009054906101000a900473ffffffffffffffffffffffffffffffffffffffff168484614ee6565b61228e602760009054906101000a900473ffffffffffffffffffffffffffffffffffffffff168483614ee6565b612296614d5a565b6001602f819055509250929050565b601b5481565b60016020528060005260406000206000915090505481565b60125481565b602c5481565b6032602052816000526040600020602052806000526040600020600091509150508060000160009054906101000a900473ffffffffffffffffffffffffffffffffffffffff16908060000160149054906101000a900460ff16908060010154908060020154905084565b60046020528060005260406000206000915090505481565b60225481565b600a5481565b60065481565b600b5481565b602a5481565b6000602760009054906101000a900473ffffffffffffffffffffffffffffffffffffffff1673ffffffffffffffffffffffffffffffffffffffff168373ffffffffffffffffffffffffffffffffffffffff161480156123e1575060011515602d60009054906101000a900460ff161515145b1561253b5760306001600281106123fb576123fa6166db565b5b01546013548473ffffffffffffffffffffffffffffffffffffffff166370a08231306040518263ffffffff1660e01b81526004016124399190615fef565b60206040518083038186803b15801561245157600080fd5b505afa158015612465573d6000803e3d6000fd5b505050506040513d601f19601f820116820180604052508101906124899190615c73565b6124939190616564565b61249d9190616564565b905080603360008473ffffffffffffffffffffffffffffffffffffffff1673ffffffffffffffffffffffffffffffffffffffff1681526020019081526020016000206001600281106124f2576124f16166db565b5b0160008282546125029190616312565b9250508190555080603060016002811061251f5761251e6166db565b5b01600082825461252f9190616312565b9250508190555061268c565b60306000600281106125505761254f6166db565b5b01546014548473ffffffffffffffffffffffffffffffffffffffff166370a08231306040518263ffffffff1660e01b815260040161258e9190615fef565b60206040518083038186803b1580156125a657600080fd5b505afa1580156125ba573d6000803e3d6000fd5b505050506040513d601f19601f820116820180604052508101906125de9190615c73565b6125e89190616564565b6125f29190616564565b905080603360008473ffffffffffffffffffffffffffffffffffffffff1673ffffffffffffffffffffffffffffffffffffffff168152602001908152602001600020600060028110612647576126466166db565b5b0160008282546126579190616312565b92505081905550806030600060028110612674576126736166db565b5b0160008282546126849190616312565b925050819055505b505050565b60095481565b6001602f54146126dc576040517f08c379a00000000000000000000000000000000000000000000000000000000081526004016126d390616256565b60405180910390fd5b6000602f81905550600083856126f2919061650a565b14801561270a5750600083856127089190616312565b115b61271357600080fd5b61271b613dd2565b61276b61272782613c1e565b602c5486612735919061650a565b61273f9190616312565b61274883613c1e565b61275c86601754600d54600e546001614232565b6127669190616312565b615070565b60285461277783613b2a565b61278084613c1e565b61278985613d03565b6127939190616312565b61279d9190616564565b6127a79190616368565b116127e7576040517f08c379a00000000000000000000000000000000000000000000000000000000081526004016127de90616236565b60405180910390fd5b6000806001151584151514156129535760008611156128155761280b866001613efe565b9150859050612828565b84915061282585600060016145c2565b90505b61283781601b5460195461426c565b603260008573ffffffffffffffffffffffffffffffffffffffff1673ffffffffffffffffffffffffffffffffffffffff168152602001908152602001600020600080151515158152602001908152602001600020600101600082825461289d9190616312565b9250508190555081603260008573ffffffffffffffffffffffffffffffffffffffff1673ffffffffffffffffffffffffffffffffffffffff16815260200190815260200160002060006001151515158152602001908152602001600020600201600082825461290c9190616312565b92505081905550601b5461292582601b5460195461426c565b61292f9190616312565b601b8190555080601960008282546129479190616312565b92505081905550612aab565b60008611156129735785915061296c8660006001614901565b9050612984565b61297e85600161428e565b91508490505b61299381601c54601a5461426c565b603260008573ffffffffffffffffffffffffffffffffffffffff1673ffffffffffffffffffffffffffffffffffffffff1681526020019081526020016000206000600115151515815260200190815260200160002060010160008282546129fa9190616312565b9250508190555081603260008573ffffffffffffffffffffffffffffffffffffffff1673ffffffffffffffffffffffffffffffffffffffff1681526020019081526020016000206000801515151581526020019081526020016000206002016000828254612a689190616312565b92505081905550601c54612a8182601c54601a5461426c565b612a8b9190616312565b601c8190555080601a6000828254612aa39190616312565b925050819055505b50506001602f8190555050505050565b6040518060400160405280600681526020017f554e492d5632000000000000000000000000000000000000000000000000000081525081565b60285481565b6001602f5414612b3f576040517f08c379a0000000000000000000000000000000000000000000000000000000008152600401612b3690616256565b60405180910390fd5b6000602f819055506000821480612b565750600081145b612b5f57600080fd5b6000601454602660009054906101000a900473ffffffffffffffffffffffffffffffffffffffff1673ffffffffffffffffffffffffffffffffffffffff166370a08231306040518263ffffffff1660e01b8152600401612bbf9190615fef565b60206040518083038186803b158015612bd757600080fd5b505afa158015612beb573d6000803e3d6000fd5b505050506040513d601f19601f82011682018060405250810190612c0f9190615c73565b612c199190616564565b90506000601354602760009054906101000a900473ffffffffffffffffffffffffffffffffffffffff1673ffffffffffffffffffffffffffffffffffffffff166370a08231306040518263ffffffff1660e01b8152600401612c7b9190615fef565b60206040518083038186803b158015612c9357600080fd5b505afa158015612ca7573d6000803e3d6000fd5b505050506040513d601f19601f82011682018060405250810190612ccb9190615c73565b612cd59190616564565b90506000821180612ce65750600081115b612cef57600080fd5b6000841115612d6d57612d3b602760009054906101000a900473ffffffffffffffffffffffffffffffffffffffff1686612d2b87856000614901565b84612d369190616564565b614ee6565b612d68602660009054906101000a900473ffffffffffffffffffffffffffffffffffffffff168686614ee6565b612e6f565b6000831115612deb57612db9602660009054906101000a900473ffffffffffffffffffffffffffffffffffffffff1686612da9868660006145c2565b85612db49190616564565b614ee6565b612de6602760009054906101000a900473ffffffffffffffffffffffffffffffffffffffff168685614ee6565b612e6e565b6000821115612e2c57612e2b602760009054906101000a900473ffffffffffffffffffffffffffffffffffffffff1686612e26856000613efe565b614ee6565b5b6000811115612e6d57612e6c602660009054906101000a900473ffffffffffffffffffffffffffffffffffffffff1686612e6784600061428e565b614ee6565b5b5b5b50506001602f81905550505050565b60105481565b6000612e91338484613996565b6001905092915050565b60245481565b602760009054906101000a900473ffffffffffffffffffffffffffffffffffffffff1681565b6001602f5414612f0c576040517f08c379a0000000000000000000000000000000000000000000000000000000008152600401612f0390616256565b60405180910390fd5b6000602f81905550612fff602660009054906101000a900473ffffffffffffffffffffffffffffffffffffffff1682612ffa601454602660009054906101000a900473ffffffffffffffffffffffffffffffffffffffff1673ffffffffffffffffffffffffffffffffffffffff166370a08231306040518263ffffffff1660e01b8152600401612f9c9190615fef565b60206040518083038186803b158015612fb457600080fd5b505afa158015612fc8573d6000803e3d6000fd5b505050506040513d601f19601f82011682018060405250810190612fec9190615c73565b61393d90919063ffffffff16565b614ee6565b6130ea602760009054906101000a900473ffffffffffffffffffffffffffffffffffffffff16826130e5601354602760009054906101000a900473ffffffffffffffffffffffffffffffffffffffff1673ffffffffffffffffffffffffffffffffffffffff166370a08231306040518263ffffffff1660e01b81526004016130879190615fef565b60206040518083038186803b15801561309f57600080fd5b505afa1580156130b3573d6000803e3d6000fd5b505050506040513d601f19601f820116820180604052508101906130d79190615c73565b61393d90919063ffffffff16565b614ee6565b6001602f8190555050565b6001602f541461313a576040517f08c379a000000000000000000000000000000000000000000000000000000000815260040161313190616256565b60405180910390fd5b6000602f8190555061314b82613b2a565b61315483613c1e565b61315d84613d03565b6131679190616312565b1115806131b75750602a5461317b83613c1e565b613185919061650a565b61318e83613b2a565b61319784613c1e565b6131a085613d03565b6131aa9190616312565b6131b49190616564565b11155b6131c057600080fd5b61324d602660009054906101000a900473ffffffffffffffffffffffffffffffffffffffff1682602b54603360008773ffffffffffffffffffffffffffffffffffffffff1673ffffffffffffffffffffffffffffffffffffffff16815260200190815260200160002060006002811061323c5761323b6166db565b5b0154613248919061650a565b614ee6565b6132da602760009054906101000a900473ffffffffffffffffffffffffffffffffffffffff1682602b54603360008773ffffffffffffffffffffffffffffffffffffffff1673ffffffffffffffffffffffffffffffffffffffff1681526020019081526020016000206001600281106132c9576132c86166db565b5b01546132d5919061650a565b614ee6565b603360008373ffffffffffffffffffffffffffffffffffffffff1673ffffffffffffffffffffffffffffffffffffffff16815260200190815260200160002060006133259190615943565b6000603260008473ffffffffffffffffffffffffffffffffffffffff1673ffffffffffffffffffffffffffffffffffffffff168152602001908152602001600020600080151515158152602001908152602001600020600101819055506000603260008473ffffffffffffffffffffffffffffffffffffffff1673ffffffffffffffffffffffffffffffffffffffff168152602001908152602001600020600060011515151581526020019081526020016000206001018190555061349a603260008473ffffffffffffffffffffffffffffffffffffffff1673ffffffffffffffffffffffffffffffffffffffff16815260200190815260200160002060008015151515815260200190815260200160002060020154603260008573ffffffffffffffffffffffffffffffffffffffff1673ffffffffffffffffffffffffffffffffffffffff168152602001908152602001600020600060011515151581526020019081526020016000206002015484611113565b6001602f819055505050565b602560009054906101000a900473ffffffffffffffffffffffffffffffffffffffff1681565b602060009054906101000a900460ff1681565b60235481565b602560009054906101000a900473ffffffffffffffffffffffffffffffffffffffff1673ffffffffffffffffffffffffffffffffffffffff163373ffffffffffffffffffffffffffffffffffffffff161461353f57600080fd5b8060288190555050565b60185481565b42841015613592576040517f08c379a0000000000000000000000000000000000000000000000000000000008152600401613589906161d6565b60405180910390fd5b60006003547f6e71edae12b1b97f4d1f60370fef10105fa2faae0126114a169c64845d6126c960001b898989600460008e73ffffffffffffffffffffffffffffffffffffffff1673ffffffffffffffffffffffffffffffffffffffff168152602001908152602001600020600081548092919061360e9061662a565b919050558a604051602001613628969594939291906160ae565b6040516020818303038152906040528051906020012060405160200161364f929190615fb8565b60405160208183030381529060405280519060200120905060006001828686866040516000815260200160405260405161368c949392919061610f565b6020604051602081039080840390855afa1580156136ae573d6000803e3d6000fd5b505050602060405103519050600073ffffffffffffffffffffffffffffffffffffffff168173ffffffffffffffffffffffffffffffffffffffff161415801561372257508873ffffffffffffffffffffffffffffffffffffffff168173ffffffffffffffffffffffffffffffffffffffff16145b613761576040517f08c379a000000000000000000000000000000000000000000000000000000000815260040161375890616196565b60405180910390fd5b61376c898989613852565b505050505050505050565b6002602052816000526040600020602052806000526040600020600091509150505481565b602e5481565b600f5481565b60215481565b60115481565b602b5481565b60085481565b603360205281600052604060002081600281106137dc57600080fd5b01600091509150505481565b600d5481565b602560009054906101000a900473ffffffffffffffffffffffffffffffffffffffff1673ffffffffffffffffffffffffffffffffffffffff163373ffffffffffffffffffffffffffffffffffffffff161461384857600080fd5b80602a8190555050565b80600260008573ffffffffffffffffffffffffffffffffffffffff1673ffffffffffffffffffffffffffffffffffffffff16815260200190815260200160002060008473ffffffffffffffffffffffffffffffffffffffff1673ffffffffffffffffffffffffffffffffffffffff168152602001908152602001600020819055508173ffffffffffffffffffffffffffffffffffffffff168373ffffffffffffffffffffffffffffffffffffffff167f8c5be1e5ebec7d5bd14f71427d1e84f3dd0314c0f7b2291e5b200ac8c7c3b925836040516139309190616276565b60405180910390a3505050565b600082828461394c9190616564565b9150811115613990576040517f08c379a000000000000000000000000000000000000000000000000000000000815260040161398790616176565b60405180910390fd5b92915050565b6139e881600160008673ffffffffffffffffffffffffffffffffffffffff1673ffffffffffffffffffffffffffffffffffffffff1681526020019081526020016000205461393d90919063ffffffff16565b600160008573ffffffffffffffffffffffffffffffffffffffff1673ffffffffffffffffffffffffffffffffffffffff16815260200190815260200160002081905550613a7d81600160008573ffffffffffffffffffffffffffffffffffffffff1673ffffffffffffffffffffffffffffffffffffffff1681526020019081526020016000205461508990919063ffffffff16565b600160008473ffffffffffffffffffffffffffffffffffffffff1673ffffffffffffffffffffffffffffffffffffffff168152602001908152602001600020819055508173ffffffffffffffffffffffffffffffffffffffff168373ffffffffffffffffffffffffffffffffffffffff167fddf252ad1be2c89b69c2b068fc378daa952ba7f163c4a11628f55a4df523b3ef83604051613b1d9190616276565b60405180910390a3505050565b6000613ba6613b9b603260008573ffffffffffffffffffffffffffffffffffffffff1673ffffffffffffffffffffffffffffffffffffffff16815260200190815260200160002060008015151515815260200190815260200160002060010154601954601754601b54602c54614232565b600d54600e5461426c565b613c0d603260008573ffffffffffffffffffffffffffffffffffffffff1673ffffffffffffffffffffffffffffffffffffffff1681526020019081526020016000206000600115151515815260200190815260200160002060010154601a54601c5461426c565b613c179190616312565b9050919050565b6000613c8d603260008473ffffffffffffffffffffffffffffffffffffffff1673ffffffffffffffffffffffffffffffffffffffff1681526020019081526020016000206000600115151515815260200190815260200160002060020154601754600d54600e54602c54614232565b602c54603260008573ffffffffffffffffffffffffffffffffffffffff1673ffffffffffffffffffffffffffffffffffffffff16815260200190815260200160002060008015151515815260200190815260200160002060020154613cf2919061650a565b613cfc9190616312565b9050919050565b6000613d6d603360008473ffffffffffffffffffffffffffffffffffffffff1673ffffffffffffffffffffffffffffffffffffffff168152602001908152602001600020600160028110613d5a57613d596166db565b5b0154601754600d54600e54602c54614232565b603360008473ffffffffffffffffffffffffffffffffffffffff1673ffffffffffffffffffffffffffffffffffffffff168152602001908152602001600020600060028110613dbf57613dbe6166db565b5b0154613dcb9190616312565b9050919050565b600080613ddd6150e2565b915091506000601f5443613df19190616564565b905043601f819055506000613e0d601754600d54600e5461426c565b905060001515602060009054906101000a900460ff1615151415613e8a57613e4c601954601e54602c54613e419190616312565b84602c546001614232565b60198190555081613e68601e5460195484602c54602c54614232565b613e72919061650a565b601a54613e7f9190616564565b601a81905550613ed7565b613eab601a54601e54602c54613ea09190616312565b84602c546001614232565b601a81905550613ec3601e54601a5484846001614232565b601954613ed09190616564565b6019819055505b83601e8190555082602060006101000a81548160ff02191690831515021790555050505050565b60006001602f5414613f45576040517f08c379a0000000000000000000000000000000000000000000000000000000008152600401613f3c90616256565b60405180910390fd5b6000602f8190555060008390506000600190505b600115158115151415614222576000613f79600954601854602c5461426c565b90506000613f8f60055460065460075485615248565b9050613fa082600b54600e54615348565b84111561412757613fb6600c5482600d54615348565b85613fc19190616312565b9450613fd282600b54600e54615348565b84613fdd9190616564565b935060011515861515141561401857613ffb600c5482600d54615348565b600f600082825461400c9190616312565b92505081905550614067565b61402782600b54600e54615348565b601460008282546140389190616312565b9250508190555061404e600c5482600d54615348565b6013600082825461405f9190616564565b925050819055505b614076600d54600a548361426c565b600d8190555061408b600e546009548461426c565b600e819055506140b46140a7600554600654600754868661537d565b8260095485600a54614232565b601781905550600954600b81905550600a54600c819055506140e0600b54600c54600754601754615471565b600581905550600554602c5460026140f8919061650a565b6141029190616564565b600681905550614110614d5a565b600954600b81905550600a54600c8190555061421b565b600b54601581905550600c5460168190555061414884600e54602c5461426c565b600b60008282546141599190616312565b92505081905550614174600554600654600754600b54615248565b600c8190555061418b601654600c54600d54615348565b856141969190616312565b94506001151586151514156141d3576141b6601654600c54600d54615348565b600f60008282546141c79190616312565b92505081905550614216565b83601460008282546141e59190616312565b925050819055506141fd601654600c54600d54615348565b6013600082825461420e9190616564565b925050819055505b600092505b5050613f59565b50506001602f8190555092915050565b60008183858789614243919061650a565b61424d919061650a565b6142579190616368565b6142619190616368565b905095945050505050565b600081838561427b919061650a565b6142859190616368565b90509392505050565b60006001602f54146142d5576040517f08c379a00000000000000000000000000000000000000000000000000000000081526004016142cc90616256565b60405180910390fd5b6000602f8190555060008390506000600190505b6001151581151514156145b2576000614309600a54601854602c5461426c565b9050600061431f600554600654600754856155ab565b905061433082600c54600d54615348565b8411156144b757614346600b5482600e54615348565b856143519190616312565b945061436282600c54600d54615348565b8461436d9190616564565b93506001151586151514156143a85761438b600b5482600e54615348565b6010600082825461439c9190616312565b925050819055506143f7565b6143b7600b5482600e54615348565b601460008282546143c89190616564565b925050819055506143de82600c54600d54615348565b601360008282546143ef9190616312565b925050819055505b614406600d54600a548461426c565b600d8190555061441b600e546009548361426c565b600e81905550614444614437600554600654600754858761537d565b8360095484600a54614232565b601781905550600954600b81905550600a54600c81905550614470600b54600c54600754601754615471565b600581905550600554602c546002614488919061650a565b6144929190616564565b6006819055506144a0614d5a565b600954600b81905550600a54600c819055506145ab565b600b54601581905550600c546016819055506144d884600d54602c5461426c565b600c60008282546144e99190616312565b92505081905550614504600554600654600754600c546155ab565b600b8190555061451b601554600b54600e54615348565b856145269190616312565b945060011515861515141561456357614546601554600b54600e54615348565b601060008282546145579190616312565b925050819055506145a6565b83601360008282546145759190616312565b9250508190555061458d601554600b54600e54615348565b6014600082825461459e9190616564565b925050819055505b600092505b50506142e9565b50506001602f8190555092915050565b60006001602f5414614609576040517f08c379a000000000000000000000000000000000000000000000000000000000815260040161460090616256565b60405180910390fd5b6000602f8190555060008490506000600190505b6001151581151514156148d657600061463d600954601854602c5461426c565b9050600061465360055460065460075485615248565b9050614664600c5482600d54615348565b8411156147eb5761467a82600b54600e54615348565b856146859190616312565b9450614696600c5482600d54615348565b846146a19190616564565b93506001151586151514156146dc576146bf600c5482600d54615348565b600f60008282546146d09190616312565b9250508190555061472b565b6146eb82600b54600e54615348565b601460008282546146fc9190616312565b92505081905550614712600c5482600d54615348565b601360008282546147239190616564565b925050819055505b61473a600d54600a548361426c565b600d8190555061474f600e546009548461426c565b600e8190555061477861476b600554600654600754868661537d565b8260095485600a54614232565b601781905550600954600b81905550600a54600c819055506147a4600b54600c54600754601754615471565b600581905550600554602c5460026147bc919061650a565b6147c69190616564565b6006819055506147d4614d5a565b600954600b81905550600a54600c819055506148cf565b600b54601581905550600c5460168190555061480c84600d54602c5461426c565b600c600082825461481d9190616564565b92505081905550614838600554600654600754600c546155ab565b600b8190555061484f600b54601554600e54615348565b8561485a9190616312565b94506001151586151514156148875783600f600082825461487b9190616312565b925050819055506148ca565b614898600b54601554600e54615348565b601460008282546148a99190616312565b9250508190555083601360008282546148c29190616564565b925050819055505b600092505b505061461d565b6000151584151514156148f0578285116148ef57600080fd5b5b50506001602f819055509392505050565b60006001602f5414614948576040517f08c379a000000000000000000000000000000000000000000000000000000000815260040161493f90616256565b60405180910390fd5b6000602f8190555060008490506000600190505b600115158115151415614c1557600061497c600a54601854602c5461426c565b90506000614992600554600654600754856155ab565b90506149a3600b5482600e54615348565b841115614b2a576149b982600c54600d54615348565b856149c49190616312565b94506149d5600b5482600e54615348565b846149e09190616564565b9350600115158615151415614a1b576149fe600b5482600e54615348565b60106000828254614a0f9190616312565b92505081905550614a6a565b614a2a82600c54600d54615348565b60136000828254614a3b9190616312565b92505081905550614a51600b5482600e54615348565b60146000828254614a629190616564565b925050819055505b614a79600d54600a548461426c565b600d81905550614a8e600e546009548361426c565b600e81905550614ab7614aaa600554600654600754858761537d565b8360095484600a54614232565b601781905550600954600b81905550600a54600c81905550614ae3600b54600c54600754601754615471565b600581905550600554602c546002614afb919061650a565b614b059190616564565b600681905550614b13614d5a565b600954600b81905550600a54600c81905550614c0e565b600b54601581905550600c54601681905550614b4b84600e54602c5461426c565b600b6000828254614b5c9190616564565b92505081905550614b77600554600654600754600b54615248565b600c81905550614b8e600c54601654600d54615348565b85614b999190616312565b9450600115158615151415614bc6578360106000828254614bba9190616312565b92505081905550614c09565b614bd7600c54601654600d54615348565b60136000828254614be89190616312565b925050819055508360146000828254614c019190616564565b925050819055505b600092505b505061495c565b600015158415151415614c2f57828511614c2e57600080fd5b5b50506001602f819055509392505050565b614c558160005461508990919063ffffffff16565b600081905550614cad81600160008573ffffffffffffffffffffffffffffffffffffffff1673ffffffffffffffffffffffffffffffffffffffff1681526020019081526020016000205461508990919063ffffffff16565b600160008473ffffffffffffffffffffffffffffffffffffffff1673ffffffffffffffffffffffffffffffffffffffff168152602001908152602001600020819055508173ffffffffffffffffffffffffffffffffffffffff16600073ffffffffffffffffffffffffffffffffffffffff167fddf252ad1be2c89b69c2b068fc378daa952ba7f163c4a11628f55a4df523b3ef83604051614d4e9190616276565b60405180910390a35050565b614d7a601454600554600e54601354600654600d546012546011546156ab565b602381905550602c54602354600854614d93919061650a565b614d9d9190616368565b6007819055506002600754614db29190616368565b600981905550600954600a81905550602354602481905550565b614e1e81600160008573ffffffffffffffffffffffffffffffffffffffff1673ffffffffffffffffffffffffffffffffffffffff1681526020019081526020016000205461393d90919063ffffffff16565b600160008473ffffffffffffffffffffffffffffffffffffffff1673ffffffffffffffffffffffffffffffffffffffff16815260200190815260200160002081905550614e768160005461393d90919063ffffffff16565b600081905550600073ffffffffffffffffffffffffffffffffffffffff168273ffffffffffffffffffffffffffffffffffffffff167fddf252ad1be2c89b69c2b068fc378daa952ba7f163c4a11628f55a4df523b3ef83604051614eda9190616276565b60405180910390a35050565b6000808473ffffffffffffffffffffffffffffffffffffffff166040518060400160405280601981526020017f7472616e7366657228616464726573732c75696e743235362900000000000000815250805190602001208585604051602401614f5092919061604f565b604051602081830303815290604052907bffffffffffffffffffffffffffffffffffffffffffffffffffffffff19166020820180517bffffffffffffffffffffffffffffffffffffffffffffffffffffffff8381831617835250505050604051614fba9190615fa1565b6000604051808303816000865af19150503d8060008114614ff7576040519150601f19603f3d011682016040523d82523d6000602084013e614ffc565b606091505b509150915081801561502a57506000815114806150295750808060200190518101906150289190615c19565b5b5b615069576040517f08c379a000000000000000000000000000000000000000000000000000000000815260040161506090616216565b60405180910390fd5b5050505050565b600081831161507f5781615081565b825b905092915050565b60008282846150989190616312565b91508110156150dc576040517f08c379a00000000000000000000000000000000000000000000000000000000081526004016150d3906161b6565b60405180910390fd5b92915050565b60008060006150f8601454600e54602c5461426c565b9050600061510d601354600d54602c5461426c565b9050600061511e838360075461570b565b9050600081602c546002615132919061650a565b61513c9190616564565b9050600061515d6151528484600754898961537d565b600d54600e5461426c565b9050600061518661517b600554600654600754600b54600c5461537d565b600d54600e5461426c565b9050818111156151d45760006151a3600f5460135460225461578f565b9050806116806151b4848687615348565b6151be9190616368565b6151c89190616312565b98506000975050615214565b60006151e760105460145460225461578f565b9050806116806151f8858587615348565b6152029190616368565b61520c9190616312565b985060019750505b60215461078089615225919061650a565b111561523e5761078060215461523b9190616368565b97505b5050505050509091565b600081846008615258919061650a565b615262919061650a565b6152fb670de0b6b3a764000085868761527b919061650a565b615285919061650a565b60006152919190616564565b8588601061529f919061650a565b6152a9919061650a565b6152b3919061650a565b6152bd919061650a565b600285868a60046152ce919061650a565b6152d8919061650a565b6152e2919061650a565b6152ec91906163ec565b6152f69190616564565b6157dc565b838488600461530a919061650a565b615314919061650a565b61531e919061650a565b600061532a9190616564565b6153349190616312565b61533e9190616368565b9050949350505050565b600081670de0b6b3a764000084866153609190616564565b61536a919061650a565b6153749190616368565b90509392505050565b60008184858661538d919061650a565b615397919061650a565b6153a1919061650a565b828385868a60046153b2919061650a565b6153bc919061650a565b6153c6919061650a565b6153d0919061650a565b6153da919061650a565b6153e49190616312565b670de0b6b3a7640000848687886153fb919061650a565b615405919061650a565b61540f919061650a565b848587888b6004615420919061650a565b61542a919061650a565b615434919061650a565b61543e919061650a565b615448919061650a565b6154529190616312565b61545c919061650a565b6154669190616368565b905095945050505050565b600081670de0b6b3a76400006154879190616312565b848587886004615497919061650a565b6154a1919061650a565b6154ab919061650a565b6154b5919061650a565b6154bf919061650a565b670de0b6b3a764000083868687886154d7919061650a565b6154e1919061650a565b6154eb919061650a565b6154f5919061650a565b6154ff919061650a565b6ec097ce7bc90715b34b9f10000000008786878861551d919061650a565b615527919061650a565b615531919061650a565b61553b919061650a565b6ec097ce7bc90715b34b9f100000000087888a8b600861555b919061650a565b615565919061650a565b61556f919061650a565b615579919061650a565b615583919061650a565b61558d9190616312565b6155979190616564565b6155a19190616368565b9050949350505050565b6000818560086155bb919061650a565b6155c5919061650a565b61565e670de0b6b3a76400008586876155de919061650a565b6155e8919061650a565b60006155f49190616564565b85896010615602919061650a565b61560c919061650a565b615616919061650a565b615620919061650a565b60028586896004615631919061650a565b61563b919061650a565b615645919061650a565b61564f91906163ec565b6156599190616564565b6157dc565b838487600461566d919061650a565b615677919061650a565b615681919061650a565b600061568d9190616564565b6156979190616312565b6156a19190616368565b9050949350505050565b60006156fd6156be848a8a868a8a615856565b760a70c3c40a64e6c51999090b65f67d92400000000000006156e48c8c8c8c8c8c615856565b6156ee919061650a565b6156f89190616368565b6158b2565b905098975050505050505050565b600082846157199190616564565b670de0b6b3a764000084600261572f919061650a565b85876004878889615740919061650a565b61574a919061650a565b6157549190616368565b61575e9190616368565b6157689190616368565b6157729190616564565b61577c919061650a565b6157869190616368565b90509392505050565b60008161e10085856157a19190616312565b670de0b6b3a7640000876157b5919061650a565b6157bf9190616368565b6157c99190616368565b6157d39190616312565b90509392505050565b6000600382111561584357819050600060016002846157fb9190616368565b6158059190616312565b90505b8181101561583d5780915060028182856158229190616368565b61582c9190616312565b6158369190616368565b9050615808565b50615851565b6000821461585057600190505b5b919050565b60008387838587615867919061650a565b615871919061650a565b87898b61587e919061650a565b615888919061650a565b6158929190616312565b61589c919061650a565b6158a6919061650a565b90509695505050505050565b6000600882111561593057819050600060016003846158d19190616368565b6158db9190616312565b90505b8181101561592a5780915060038160026158f8919061650a565b8283615904919061650a565b8561590f9190616368565b6159199190616312565b6159239190616368565b90506158de565b5061593e565b6000821461593d57600190505b5b919050565b506000815560010160009055565b6000813590506159608161689e565b92915050565b600081359050615975816168b5565b92915050565b60008151905061598a816168b5565b92915050565b60008135905061599f816168cc565b92915050565b6000813590506159b4816168e3565b92915050565b6000815190506159c9816168e3565b92915050565b6000813590506159de816168fa565b92915050565b6000602082840312156159fa576159f961670a565b5b6000615a0884828501615951565b91505092915050565b60008060408385031215615a2857615a2761670a565b5b6000615a3685828601615951565b9250506020615a4785828601615951565b9150509250929050565b600080600060608486031215615a6a57615a6961670a565b5b6000615a7886828701615951565b9350506020615a8986828701615951565b9250506040615a9a868287016159a5565b9150509250925092565b600080600080600080600060e0888a031215615ac357615ac261670a565b5b6000615ad18a828b01615951565b9750506020615ae28a828b01615951565b9650506040615af38a828b016159a5565b9550506060615b048a828b016159a5565b9450506080615b158a828b016159cf565b93505060a0615b268a828b01615990565b92505060c0615b378a828b01615990565b91505092959891949750929550565b60008060408385031215615b5d57615b5c61670a565b5b6000615b6b85828601615951565b9250506020615b7c85828601615966565b9150509250929050565b60008060408385031215615b9d57615b9c61670a565b5b6000615bab85828601615951565b9250506020615bbc858286016159a5565b9150509250929050565b600080600060608486031215615bdf57615bde61670a565b5b6000615bed86828701615951565b9350506020615bfe868287016159a5565b9250506040615c0f868287016159a5565b9150509250925092565b600060208284031215615c2f57615c2e61670a565b5b6000615c3d8482850161597b565b91505092915050565b600060208284031215615c5c57615c5b61670a565b5b6000615c6a848285016159a5565b91505092915050565b600060208284031215615c8957615c8861670a565b5b6000615c97848285016159ba565b91505092915050565b60008060408385031215615cb757615cb661670a565b5b6000615cc5858286016159a5565b9250506020615cd685828601615951565b9150509250929050565b600080600060608486031215615cf957615cf861670a565b5b6000615d07868287016159a5565b9350506020615d18868287016159a5565b9250506040615d2986828701615951565b9150509250925092565b60008060008060808587031215615d4d57615d4c61670a565b5b6000615d5b878288016159a5565b9450506020615d6c878288016159a5565b9350506040615d7d87828801615966565b9250506060615d8e87828801615951565b91505092959194509250565b615da381616598565b82525050565b615db2816165aa565b82525050565b615dc1816165b6565b82525050565b615dd8615dd3826165b6565b616673565b82525050565b6000615de9826162d5565b615df381856162eb565b9350615e038185602086016165f7565b80840191505092915050565b6000615e1a826162e0565b615e2481856162f6565b9350615e348185602086016165f7565b615e3d8161670f565b840191505092915050565b6000615e556015836162f6565b9150615e608261672d565b602082019050919050565b6000615e78601c836162f6565b9150615e8382616756565b602082019050919050565b6000615e9b600283616307565b9150615ea68261677f565b600282019050919050565b6000615ebe6014836162f6565b9150615ec9826167a8565b602082019050919050565b6000615ee16012836162f6565b9150615eec826167d1565b602082019050919050565b6000615f046009836162f6565b9150615f0f826167fa565b602082019050919050565b6000615f27600f836162f6565b9150615f3282616823565b602082019050919050565b6000615f4a6018836162f6565b9150615f558261684c565b602082019050919050565b6000615f6d6006836162f6565b9150615f7882616875565b602082019050919050565b615f8c816165e0565b82525050565b615f9b816165ea565b82525050565b6000615fad8284615dde565b915081905092915050565b6000615fc382615e8e565b9150615fcf8285615dc7565b602082019150615fdf8284615dc7565b6020820191508190509392505050565b60006020820190506160046000830184615d9a565b92915050565b600060808201905061601f6000830187615d9a565b61602c6020830186615da9565b6160396040830185615f83565b6160466060830184615f83565b95945050505050565b60006040820190506160646000830185615d9a565b6160716020830184615f83565b9392505050565b600060208201905061608d6000830184615da9565b92915050565b60006020820190506160a86000830184615db8565b92915050565b600060c0820190506160c36000830189615db8565b6160d06020830188615d9a565b6160dd6040830187615d9a565b6160ea6060830186615f83565b6160f76080830185615f83565b61610460a0830184615f83565b979650505050505050565b60006080820190506161246000830187615db8565b6161316020830186615f92565b61613e6040830185615db8565b61614b6060830184615db8565b95945050505050565b6000602082019050818103600083015261616e8184615e0f565b905092915050565b6000602082019050818103600083015261618f81615e48565b9050919050565b600060208201905081810360008301526161af81615e6b565b9050919050565b600060208201905081810360008301526161cf81615eb1565b9050919050565b600060208201905081810360008301526161ef81615ed4565b9050919050565b6000602082019050818103600083015261620f81615ef7565b9050919050565b6000602082019050818103600083015261622f81615f1a565b9050919050565b6000602082019050818103600083015261624f81615f3d565b9050919050565b6000602082019050818103600083015261626f81615f60565b9050919050565b600060208201905061628b6000830184615f83565b92915050565b60006040820190506162a66000830185615f83565b6162b36020830184615f83565b9392505050565b60006020820190506162cf6000830184615f92565b92915050565b600081519050919050565b600081519050919050565b600081905092915050565b600082825260208201905092915050565b600081905092915050565b600061631d826165e0565b9150616328836165e0565b9250827fffffffffffffffffffffffffffffffffffffffffffffffffffffffffffffffff0382111561635d5761635c61667d565b5b828201905092915050565b6000616373826165e0565b915061637e836165e0565b92508261638e5761638d6166ac565b5b828204905092915050565b6000808291508390505b60018511156163e3578086048111156163bf576163be61667d565b5b60018516156163ce5780820291505b80810290506163dc85616720565b94506163a3565b94509492505050565b60006163f7826165e0565b9150616402836165ea565b925061642f7fffffffffffffffffffffffffffffffffffffffffffffffffffffffffffffffff8484616437565b905092915050565b6000826164475760019050616503565b816164555760009050616503565b816001811461646b5760028114616475576164a4565b6001915050616503565b60ff8411156164875761648661667d565b5b8360020a91508482111561649e5761649d61667d565b5b50616503565b5060208310610133831016604e8410600b84101617156164d95782820a9050838111156164d4576164d361667d565b5b616503565b6164e68484846001616399565b925090508184048111156164fd576164fc61667d565b5b81810290505b9392505050565b6000616515826165e0565b9150616520836165e0565b9250817fffffffffffffffffffffffffffffffffffffffffffffffffffffffffffffffff04831182151516156165595761655861667d565b5b828202905092915050565b600061656f826165e0565b915061657a836165e0565b92508282101561658d5761658c61667d565b5b828203905092915050565b60006165a3826165c0565b9050919050565b60008115159050919050565b6000819050919050565b600073ffffffffffffffffffffffffffffffffffffffff82169050919050565b6000819050919050565b600060ff82169050919050565b60005b838110156166155780820151818401526020810190506165fa565b83811115616624576000848401525b50505050565b6000616635826165e0565b91507fffffffffffffffffffffffffffffffffffffffffffffffffffffffffffffffff8214156166685761666761667d565b5b600182019050919050565b6000819050919050565b7f4e487b7100000000000000000000000000000000000000000000000000000000600052601160045260246000fd5b7f4e487b7100000000000000000000000000000000000000000000000000000000600052601260045260246000fd5b7f4e487b7100000000000000000000000000000000000000000000000000000000600052603260045260246000fd5b600080fd5b6000601f19601f8301169050919050565b60008160011c9050919050565b7f64732d6d6174682d7375622d756e646572666c6f770000000000000000000000600082015250565b7f556e697377617056323a20494e56414c49445f5349474e415455524500000000600082015250565b7f1901000000000000000000000000000000000000000000000000000000000000600082015250565b7f64732d6d6174682d6164642d6f766572666c6f77000000000000000000000000600082015250565b7f556e697377617056323a20455850495245440000000000000000000000000000600082015250565b7f464f5242494444454e0000000000000000000000000000000000000000000000600082015250565b7f5452414e534645525f4641494c45440000000000000000000000000000000000600082015250565b7f51696c696e3a204e4f5420454e4f554748204d415247494e0000000000000000600082015250565b7f4c4f434b45440000000000000000000000000000000000000000000000000000600082015250565b6168a781616598565b81146168b257600080fd5b50565b6168be816165aa565b81146168c957600080fd5b50565b6168d5816165b6565b81146168e057600080fd5b50565b6168ec816165e0565b81146168f757600080fd5b50565b616903816165ea565b811461690e57600080fd5b5056fea2646970667358221220308fd7b080b341564541ece7b6c3396881f9ba5e8685e433dece4fd5b4ffea3f64736f6c63430008070033",
			"opcodes": "PUSH1 0x80 PUSH1 0x40 MSTORE PUSH8 0xDE0B6B3A7640000 PUSH1 0x2C SSTORE PUSH1 0x1 PUSH1 0x2F SSTORE CALLVALUE DUP1 ISZERO PUSH3 0x22 JUMPI PUSH1 0x0 DUP1 REVERT JUMPDEST POP PUSH1 0x0 CHAINID SWAP1 POP PUSH32 0x8B73C3C69BB8FE3D512ECC4CF759CC79239F7B179B0FFACAA9A75D522B39400F PUSH1 0x40 MLOAD DUP1 PUSH1 0x40 ADD PUSH1 0x40 MSTORE DUP1 PUSH1 0xA DUP2 MSTORE PUSH1 0x20 ADD PUSH32 0x556E697377617020563200000000000000000000000000000000000000000000 DUP2 MSTORE POP DUP1 MLOAD SWAP1 PUSH1 0x20 ADD KECCAK256 PUSH1 0x40 MLOAD DUP1 PUSH1 0x40 ADD PUSH1 0x40 MSTORE DUP1 PUSH1 0x1 DUP2 MSTORE PUSH1 0x20 ADD PUSH32 0x3100000000000000000000000000000000000000000000000000000000000000 DUP2 MSTORE POP DUP1 MLOAD SWAP1 PUSH1 0x20 ADD KECCAK256 DUP4 ADDRESS PUSH1 0x40 MLOAD PUSH1 0x20 ADD PUSH3 0xDB SWAP6 SWAP5 SWAP4 SWAP3 SWAP2 SWAP1 PUSH3 0x172 JUMP JUMPDEST PUSH1 0x40 MLOAD PUSH1 0x20 DUP2 DUP4 SUB SUB DUP2 MSTORE SWAP1 PUSH1 0x40 MSTORE DUP1 MLOAD SWAP1 PUSH1 0x20 ADD KECCAK256 PUSH1 0x3 DUP2 SWAP1 SSTORE POP POP CALLER PUSH1 0x25 PUSH1 0x0 PUSH2 0x100 EXP DUP2 SLOAD DUP2 PUSH20 0xFFFFFFFFFFFFFFFFFFFFFFFFFFFFFFFFFFFFFFFF MUL NOT AND SWAP1 DUP4 PUSH20 0xFFFFFFFFFFFFFFFFFFFFFFFFFFFFFFFFFFFFFFFF AND MUL OR SWAP1 SSTORE POP PUSH3 0x217 JUMP JUMPDEST PUSH3 0x14A DUP2 PUSH3 0x1CF JUMP JUMPDEST DUP3 MSTORE POP POP JUMP JUMPDEST PUSH3 0x15B DUP2 PUSH3 0x1E3 JUMP JUMPDEST DUP3 MSTORE POP POP JUMP JUMPDEST PUSH3 0x16C DUP2 PUSH3 0x20D JUMP JUMPDEST DUP3 MSTORE POP POP JUMP JUMPDEST PUSH1 0x0 PUSH1 0xA0 DUP3 ADD SWAP1 POP PUSH3 0x189 PUSH1 0x0 DUP4 ADD DUP9 PUSH3 0x150 JUMP JUMPDEST PUSH3 0x198 PUSH1 0x20 DUP4 ADD DUP8 PUSH3 0x150 JUMP JUMPDEST PUSH3 0x1A7 PUSH1 0x40 DUP4 ADD DUP7 PUSH3 0x150 JUMP JUMPDEST PUSH3 0x1B6 PUSH1 0x60 DUP4 ADD DUP6 PUSH3 0x161 JUMP JUMPDEST PUSH3 0x1C5 PUSH1 0x80 DUP4 ADD DUP5 PUSH3 0x13F JUMP JUMPDEST SWAP7 SWAP6 POP POP POP POP POP POP JUMP JUMPDEST PUSH1 0x0 PUSH3 0x1DC DUP3 PUSH3 0x1ED JUMP JUMPDEST SWAP1 POP SWAP2 SWAP1 POP JUMP JUMPDEST PUSH1 0x0 DUP2 SWAP1 POP SWAP2 SWAP1 POP JUMP JUMPDEST PUSH1 0x0 PUSH20 0xFFFFFFFFFFFFFFFFFFFFFFFFFFFFFFFFFFFFFFFF DUP3 AND SWAP1 POP SWAP2 SWAP1 POP JUMP JUMPDEST PUSH1 0x0 DUP2 SWAP1 POP SWAP2 SWAP1 POP JUMP JUMPDEST PUSH2 0x6947 DUP1 PUSH3 0x227 PUSH1 0x0 CODECOPY PUSH1 0x0 RETURN INVALID PUSH1 0x80 PUSH1 0x40 MSTORE CALLVALUE DUP1 ISZERO PUSH2 0x10 JUMPI PUSH1 0x0 DUP1 REVERT JUMPDEST POP PUSH1 0x4 CALLDATASIZE LT PUSH2 0x406 JUMPI PUSH1 0x0 CALLDATALOAD PUSH1 0xE0 SHR DUP1 PUSH4 0x7E1431BE GT PUSH2 0x220 JUMPI DUP1 PUSH4 0xBC25CF77 GT PUSH2 0x130 JUMPI DUP1 PUSH4 0xDDCA3F43 GT PUSH2 0xB8 JUMPI DUP1 PUSH4 0xF70F4394 GT PUSH2 0x87 JUMPI DUP1 PUSH4 0xF70F4394 EQ PUSH2 0xC2F JUMPI DUP1 PUSH4 0xF738C74E EQ PUSH2 0xC4D JUMPI DUP1 PUSH4 0xFC69B80F EQ PUSH2 0xC6B JUMPI DUP1 PUSH4 0xFE18F261 EQ PUSH2 0xC9B JUMPI DUP1 PUSH4 0xFF2F169E EQ PUSH2 0xCB9 JUMPI PUSH2 0x406 JUMP JUMPDEST DUP1 PUSH4 0xDDCA3F43 EQ PUSH2 0xBB7 JUMPI DUP1 PUSH4 0xDF0AB2C2 EQ PUSH2 0xBD5 JUMPI DUP1 PUSH4 0xE19A1474 EQ PUSH2 0xBF3 JUMPI DUP1 PUSH4 0xEA1797B0 EQ PUSH2 0xC11 JUMPI PUSH2 0x406 JUMP JUMPDEST DUP1 PUSH4 0xC9E525DF GT PUSH2 0xFF JUMPI DUP1 PUSH4 0xC9E525DF EQ PUSH2 0xB13 JUMPI DUP1 PUSH4 0xCFE38A5E EQ PUSH2 0xB31 JUMPI DUP1 PUSH4 0xD44022DB EQ PUSH2 0xB4D JUMPI DUP1 PUSH4 0xD505ACCF EQ PUSH2 0xB6B JUMPI DUP1 PUSH4 0xDD62ED3E EQ PUSH2 0xB87 JUMPI PUSH2 0x406 JUMP JUMPDEST DUP1 PUSH4 0xBC25CF77 EQ PUSH2 0xA9F JUMPI DUP1 PUSH4 0xC3D81B21 EQ PUSH2 0xABB JUMPI DUP1 PUSH4 0xC45A0155 EQ PUSH2 0xAD7 JUMPI DUP1 PUSH4 0xC7D44932 EQ PUSH2 0xAF5 JUMPI PUSH2 0x406 JUMP JUMPDEST DUP1 PUSH4 0x8E361389 GT PUSH2 0x1B3 JUMPI DUP1 PUSH4 0x9F1D0F59 GT PUSH2 0x182 JUMPI DUP1 PUSH4 0x9F1D0F59 EQ PUSH2 0x9F9 JUMPI DUP1 PUSH4 0xA5AA65B9 EQ PUSH2 0xA15 JUMPI DUP1 PUSH4 0xA9059CBB EQ PUSH2 0xA33 JUMPI DUP1 PUSH4 0xACD4A7C2 EQ PUSH2 0xA63 JUMPI DUP1 PUSH4 0xB7D19FC4 EQ PUSH2 0xA81 JUMPI PUSH2 0x406 JUMP JUMPDEST DUP1 PUSH4 0x8E361389 EQ PUSH2 0x983 JUMPI DUP1 PUSH4 0x9076AE86 EQ PUSH2 0x9A1 JUMPI DUP1 PUSH4 0x95D89B41 EQ PUSH2 0x9BD JUMPI DUP1 PUSH4 0x9A36E122 EQ PUSH2 0x9DB JUMPI PUSH2 0x406 JUMP JUMPDEST DUP1 PUSH4 0x83DFE5FD GT PUSH2 0x1EF JUMPI DUP1 PUSH4 0x83DFE5FD EQ PUSH2 0x90D JUMPI DUP1 PUSH4 0x84009686 EQ PUSH2 0x92B JUMPI DUP1 PUSH4 0x8BC1A32F EQ PUSH2 0x949 JUMPI DUP1 PUSH4 0x8CF825E7 EQ PUSH2 0x967 JUMPI PUSH2 0x406 JUMP JUMPDEST DUP1 PUSH4 0x7E1431BE EQ PUSH2 0x86E JUMPI DUP1 PUSH4 0x7ECEBE00 EQ PUSH2 0x8A1 JUMPI DUP1 PUSH4 0x7ED6281B EQ PUSH2 0x8D1 JUMPI DUP1 PUSH4 0x80416C02 EQ PUSH2 0x8EF JUMPI PUSH2 0x406 JUMP JUMPDEST DUP1 PUSH4 0x313CE567 GT PUSH2 0x31B JUMPI DUP1 PUSH4 0x5595D459 GT PUSH2 0x2AE JUMPI DUP1 PUSH4 0x6665FF11 GT PUSH2 0x27D JUMPI DUP1 PUSH4 0x6665FF11 EQ PUSH2 0x7B3 JUMPI DUP1 PUSH4 0x6B3545AA EQ PUSH2 0x7E4 JUMPI DUP1 PUSH4 0x70A08231 EQ PUSH2 0x802 JUMPI DUP1 PUSH4 0x79DBF8EA EQ PUSH2 0x832 JUMPI DUP1 PUSH4 0x7E11939A EQ PUSH2 0x850 JUMPI PUSH2 0x406 JUMP JUMPDEST DUP1 PUSH4 0x5595D459 EQ PUSH2 0x729 JUMPI DUP1 PUSH4 0x5E287D86 EQ PUSH2 0x747 JUMPI DUP1 PUSH4 0x6126DEEF EQ PUSH2 0x765 JUMPI DUP1 PUSH4 0x6607E7E8 EQ PUSH2 0x795 JUMPI PUSH2 0x406 JUMP JUMPDEST DUP1 PUSH4 0x3C6FE2F4 GT PUSH2 0x2EA JUMPI DUP1 PUSH4 0x3C6FE2F4 EQ PUSH2 0x6B5 JUMPI DUP1 PUSH4 0x480C4F7E EQ PUSH2 0x6D3 JUMPI DUP1 PUSH4 0x485CC955 EQ PUSH2 0x6F1 JUMPI DUP1 PUSH4 0x4C324E6A EQ PUSH2 0x70D JUMPI PUSH2 0x406 JUMP JUMPDEST DUP1 PUSH4 0x313CE567 EQ PUSH2 0x63D JUMPI DUP1 PUSH4 0x32E7C5BF EQ PUSH2 0x65B JUMPI DUP1 PUSH4 0x3644E515 EQ PUSH2 0x679 JUMPI DUP1 PUSH4 0x36AF2F9B EQ PUSH2 0x697 JUMPI PUSH2 0x406 JUMP JUMPDEST DUP1 PUSH4 0x18160DDD GT PUSH2 0x39E JUMPI DUP1 PUSH4 0x225C2C50 GT PUSH2 0x36D JUMPI DUP1 PUSH4 0x225C2C50 EQ PUSH2 0x595 JUMPI DUP1 PUSH4 0x23B872DD EQ PUSH2 0x5B3 JUMPI DUP1 PUSH4 0x23ED16B6 EQ PUSH2 0x5E3 JUMPI DUP1 PUSH4 0x2DD6C254 EQ PUSH2 0x601 JUMPI DUP1 PUSH4 0x30ADF81F EQ PUSH2 0x61F JUMPI PUSH2 0x406 JUMP JUMPDEST DUP1 PUSH4 0x18160DDD EQ PUSH2 0x50B JUMPI DUP1 PUSH4 0x18DB9681 EQ PUSH2 0x529 JUMPI DUP1 PUSH4 0x1CBDFFD1 EQ PUSH2 0x547 JUMPI DUP1 PUSH4 0x2190219E EQ PUSH2 0x577 JUMPI PUSH2 0x406 JUMP JUMPDEST DUP1 PUSH4 0xBFA68D8 GT PUSH2 0x3DA JUMPI DUP1 PUSH4 0xBFA68D8 EQ PUSH2 0x495 JUMPI DUP1 PUSH4 0xF529BA2 EQ PUSH2 0x4B1 JUMPI DUP1 PUSH4 0x139860EE EQ PUSH2 0x4CF JUMPI DUP1 PUSH4 0x16DC165B EQ PUSH2 0x4ED JUMPI PUSH2 0x406 JUMP JUMPDEST DUP1 PUSH3 0xB52645 EQ PUSH2 0x40B JUMPI DUP1 PUSH4 0x6FDDE03 EQ PUSH2 0x429 JUMPI DUP1 PUSH4 0x95EA7B3 EQ PUSH2 0x447 JUMPI DUP1 PUSH4 0xB197615 EQ PUSH2 0x477 JUMPI JUMPDEST PUSH1 0x0 DUP1 REVERT JUMPDEST PUSH2 0x413 PUSH2 0xCD5 JUMP JUMPDEST PUSH1 0x40 MLOAD PUSH2 0x420 SWAP2 SWAP1 PUSH2 0x6276 JUMP JUMPDEST PUSH1 0x40 MLOAD DUP1 SWAP2 SUB SWAP1 RETURN JUMPDEST PUSH2 0x431 PUSH2 0xCDB JUMP JUMPDEST PUSH1 0x40 MLOAD PUSH2 0x43E SWAP2 SWAP1 PUSH2 0x6154 JUMP JUMPDEST PUSH1 0x40 MLOAD DUP1 SWAP2 SUB SWAP1 RETURN JUMPDEST PUSH2 0x461 PUSH1 0x4 DUP1 CALLDATASIZE SUB DUP2 ADD SWAP1 PUSH2 0x45C SWAP2 SWAP1 PUSH2 0x5B86 JUMP JUMPDEST PUSH2 0xD14 JUMP JUMPDEST PUSH1 0x40 MLOAD PUSH2 0x46E SWAP2 SWAP1 PUSH2 0x6078 JUMP JUMPDEST PUSH1 0x40 MLOAD DUP1 SWAP2 SUB SWAP1 RETURN JUMPDEST PUSH2 0x47F PUSH2 0xD2B JUMP JUMPDEST PUSH1 0x40 MLOAD PUSH2 0x48C SWAP2 SWAP1 PUSH2 0x6276 JUMP JUMPDEST PUSH1 0x40 MLOAD DUP1 SWAP2 SUB SWAP1 RETURN JUMPDEST PUSH2 0x4AF PUSH1 0x4 DUP1 CALLDATASIZE SUB DUP2 ADD SWAP1 PUSH2 0x4AA SWAP2 SWAP1 PUSH2 0x5C46 JUMP JUMPDEST PUSH2 0xD31 JUMP JUMPDEST STOP JUMPDEST PUSH2 0x4B9 PUSH2 0xD95 JUMP JUMPDEST PUSH1 0x40 MLOAD PUSH2 0x4C6 SWAP2 SWAP1 PUSH2 0x6276 JUMP JUMPDEST PUSH1 0x40 MLOAD DUP1 SWAP2 SUB SWAP1 RETURN JUMPDEST PUSH2 0x4D7 PUSH2 0xD9B JUMP JUMPDEST PUSH1 0x40 MLOAD PUSH2 0x4E4 SWAP2 SWAP1 PUSH2 0x6276 JUMP JUMPDEST PUSH1 0x40 MLOAD DUP1 SWAP2 SUB SWAP1 RETURN JUMPDEST PUSH2 0x4F5 PUSH2 0xDA1 JUMP JUMPDEST PUSH1 0x40 MLOAD PUSH2 0x502 SWAP2 SWAP1 PUSH2 0x5FEF JUMP JUMPDEST PUSH1 0x40 MLOAD DUP1 SWAP2 SUB SWAP1 RETURN JUMPDEST PUSH2 0x513 PUSH2 0xDC7 JUMP JUMPDEST PUSH1 0x40 MLOAD PUSH2 0x520 SWAP2 SWAP1 PUSH2 0x6276 JUMP JUMPDEST PUSH1 0x40 MLOAD DUP1 SWAP2 SUB SWAP1 RETURN JUMPDEST PUSH2 0x531 PUSH2 0xDCD JUMP JUMPDEST PUSH1 0x40 MLOAD PUSH2 0x53E SWAP2 SWAP1 PUSH2 0x6276 JUMP JUMPDEST PUSH1 0x40 MLOAD DUP1 SWAP2 SUB SWAP1 RETURN JUMPDEST PUSH2 0x561 PUSH1 0x4 DUP1 CALLDATASIZE SUB DUP2 ADD SWAP1 PUSH2 0x55C SWAP2 SWAP1 PUSH2 0x5C46 JUMP JUMPDEST PUSH2 0xDD3 JUMP JUMPDEST PUSH1 0x40 MLOAD PUSH2 0x56E SWAP2 SWAP1 PUSH2 0x6276 JUMP JUMPDEST PUSH1 0x40 MLOAD DUP1 SWAP2 SUB SWAP1 RETURN JUMPDEST PUSH2 0x57F PUSH2 0xDEE JUMP JUMPDEST PUSH1 0x40 MLOAD PUSH2 0x58C SWAP2 SWAP1 PUSH2 0x6276 JUMP JUMPDEST PUSH1 0x40 MLOAD DUP1 SWAP2 SUB SWAP1 RETURN JUMPDEST PUSH2 0x59D PUSH2 0xDF4 JUMP JUMPDEST PUSH1 0x40 MLOAD PUSH2 0x5AA SWAP2 SWAP1 PUSH2 0x6276 JUMP JUMPDEST PUSH1 0x40 MLOAD DUP1 SWAP2 SUB SWAP1 RETURN JUMPDEST PUSH2 0x5CD PUSH1 0x4 DUP1 CALLDATASIZE SUB DUP2 ADD SWAP1 PUSH2 0x5C8 SWAP2 SWAP1 PUSH2 0x5A51 JUMP JUMPDEST PUSH2 0xDFA JUMP JUMPDEST PUSH1 0x40 MLOAD PUSH2 0x5DA SWAP2 SWAP1 PUSH2 0x6078 JUMP JUMPDEST PUSH1 0x40 MLOAD DUP1 SWAP2 SUB SWAP1 RETURN JUMPDEST PUSH2 0x5EB PUSH2 0xFA7 JUMP JUMPDEST PUSH1 0x40 MLOAD PUSH2 0x5F8 SWAP2 SWAP1 PUSH2 0x6276 JUMP JUMPDEST PUSH1 0x40 MLOAD DUP1 SWAP2 SUB SWAP1 RETURN JUMPDEST PUSH2 0x609 PUSH2 0xFAD JUMP JUMPDEST PUSH1 0x40 MLOAD PUSH2 0x616 SWAP2 SWAP1 PUSH2 0x6276 JUMP JUMPDEST PUSH1 0x40 MLOAD DUP1 SWAP2 SUB SWAP1 RETURN JUMPDEST PUSH2 0x627 PUSH2 0xFB3 JUMP JUMPDEST PUSH1 0x40 MLOAD PUSH2 0x634 SWAP2 SWAP1 PUSH2 0x6093 JUMP JUMPDEST PUSH1 0x40 MLOAD DUP1 SWAP2 SUB SWAP1 RETURN JUMPDEST PUSH2 0x645 PUSH2 0xFDA JUMP JUMPDEST PUSH1 0x40 MLOAD PUSH2 0x652 SWAP2 SWAP1 PUSH2 0x62BA JUMP JUMPDEST PUSH1 0x40 MLOAD DUP1 SWAP2 SUB SWAP1 RETURN JUMPDEST PUSH2 0x663 PUSH2 0xFDF JUMP JUMPDEST PUSH1 0x40 MLOAD PUSH2 0x670 SWAP2 SWAP1 PUSH2 0x6276 JUMP JUMPDEST PUSH1 0x40 MLOAD DUP1 SWAP2 SUB SWAP1 RETURN JUMPDEST PUSH2 0x681 PUSH2 0xFE5 JUMP JUMPDEST PUSH1 0x40 MLOAD PUSH2 0x68E SWAP2 SWAP1 PUSH2 0x6093 JUMP JUMPDEST PUSH1 0x40 MLOAD DUP1 SWAP2 SUB SWAP1 RETURN JUMPDEST PUSH2 0x69F PUSH2 0xFEB JUMP JUMPDEST PUSH1 0x40 MLOAD PUSH2 0x6AC SWAP2 SWAP1 PUSH2 0x6276 JUMP JUMPDEST PUSH1 0x40 MLOAD DUP1 SWAP2 SUB SWAP1 RETURN JUMPDEST PUSH2 0x6BD PUSH2 0xFF1 JUMP JUMPDEST PUSH1 0x40 MLOAD PUSH2 0x6CA SWAP2 SWAP1 PUSH2 0x6276 JUMP JUMPDEST PUSH1 0x40 MLOAD DUP1 SWAP2 SUB SWAP1 RETURN JUMPDEST PUSH2 0x6DB PUSH2 0xFF7 JUMP JUMPDEST PUSH1 0x40 MLOAD PUSH2 0x6E8 SWAP2 SWAP1 PUSH2 0x6276 JUMP JUMPDEST PUSH1 0x40 MLOAD DUP1 SWAP2 SUB SWAP1 RETURN JUMPDEST PUSH2 0x70B PUSH1 0x4 DUP1 CALLDATASIZE SUB DUP2 ADD SWAP1 PUSH2 0x706 SWAP2 SWAP1 PUSH2 0x5A11 JUMP JUMPDEST PUSH2 0xFFD JUMP JUMPDEST STOP JUMPDEST PUSH2 0x727 PUSH1 0x4 DUP1 CALLDATASIZE SUB DUP2 ADD SWAP1 PUSH2 0x722 SWAP2 SWAP1 PUSH2 0x5CE0 JUMP JUMPDEST PUSH2 0x1113 JUMP JUMPDEST STOP JUMPDEST PUSH2 0x731 PUSH2 0x2025 JUMP JUMPDEST PUSH1 0x40 MLOAD PUSH2 0x73E SWAP2 SWAP1 PUSH2 0x6276 JUMP JUMPDEST PUSH1 0x40 MLOAD DUP1 SWAP2 SUB SWAP1 RETURN JUMPDEST PUSH2 0x74F PUSH2 0x202B JUMP JUMPDEST PUSH1 0x40 MLOAD PUSH2 0x75C SWAP2 SWAP1 PUSH2 0x6276 JUMP JUMPDEST PUSH1 0x40 MLOAD DUP1 SWAP2 SUB SWAP1 RETURN JUMPDEST PUSH2 0x77F PUSH1 0x4 DUP1 CALLDATASIZE SUB DUP2 ADD SWAP1 PUSH2 0x77A SWAP2 SWAP1 PUSH2 0x5CE0 JUMP JUMPDEST PUSH2 0x2031 JUMP JUMPDEST PUSH1 0x40 MLOAD PUSH2 0x78C SWAP2 SWAP1 PUSH2 0x6276 JUMP JUMPDEST PUSH1 0x40 MLOAD DUP1 SWAP2 SUB SWAP1 RETURN JUMPDEST PUSH2 0x79D PUSH2 0x2132 JUMP JUMPDEST PUSH1 0x40 MLOAD PUSH2 0x7AA SWAP2 SWAP1 PUSH2 0x6276 JUMP JUMPDEST PUSH1 0x40 MLOAD DUP1 SWAP2 SUB SWAP1 RETURN JUMPDEST PUSH2 0x7CD PUSH1 0x4 DUP1 CALLDATASIZE SUB DUP2 ADD SWAP1 PUSH2 0x7C8 SWAP2 SWAP1 PUSH2 0x5CA0 JUMP JUMPDEST PUSH2 0x2138 JUMP JUMPDEST PUSH1 0x40 MLOAD PUSH2 0x7DB SWAP3 SWAP2 SWAP1 PUSH2 0x6291 JUMP JUMPDEST PUSH1 0x40 MLOAD DUP1 SWAP2 SUB SWAP1 RETURN JUMPDEST PUSH2 0x7EC PUSH2 0x22A5 JUMP JUMPDEST PUSH1 0x40 MLOAD PUSH2 0x7F9 SWAP2 SWAP1 PUSH2 0x6276 JUMP JUMPDEST PUSH1 0x40 MLOAD DUP1 SWAP2 SUB SWAP1 RETURN JUMPDEST PUSH2 0x81C PUSH1 0x4 DUP1 CALLDATASIZE SUB DUP2 ADD SWAP1 PUSH2 0x817 SWAP2 SWAP1 PUSH2 0x59E4 JUMP JUMPDEST PUSH2 0x22AB JUMP JUMPDEST PUSH1 0x40 MLOAD PUSH2 0x829 SWAP2 SWAP1 PUSH2 0x6276 JUMP JUMPDEST PUSH1 0x40 MLOAD DUP1 SWAP2 SUB SWAP1 RETURN JUMPDEST PUSH2 0x83A PUSH2 0x22C3 JUMP JUMPDEST PUSH1 0x40 MLOAD PUSH2 0x847 SWAP2 SWAP1 PUSH2 0x6276 JUMP JUMPDEST PUSH1 0x40 MLOAD DUP1 SWAP2 SUB SWAP1 RETURN JUMPDEST PUSH2 0x858 PUSH2 0x22C9 JUMP JUMPDEST PUSH1 0x40 MLOAD PUSH2 0x865 SWAP2 SWAP1 PUSH2 0x6276 JUMP JUMPDEST PUSH1 0x40 MLOAD DUP1 SWAP2 SUB SWAP1 RETURN JUMPDEST PUSH2 0x888 PUSH1 0x4 DUP1 CALLDATASIZE SUB DUP2 ADD SWAP1 PUSH2 0x883 SWAP2 SWAP1 PUSH2 0x5B46 JUMP JUMPDEST PUSH2 0x22CF JUMP JUMPDEST PUSH1 0x40 MLOAD PUSH2 0x898 SWAP5 SWAP4 SWAP3 SWAP2 SWAP1 PUSH2 0x600A JUMP JUMPDEST PUSH1 0x40 MLOAD DUP1 SWAP2 SUB SWAP1 RETURN JUMPDEST PUSH2 0x8BB PUSH1 0x4 DUP1 CALLDATASIZE SUB DUP2 ADD SWAP1 PUSH2 0x8B6 SWAP2 SWAP1 PUSH2 0x59E4 JUMP JUMPDEST PUSH2 0x2339 JUMP JUMPDEST PUSH1 0x40 MLOAD PUSH2 0x8C8 SWAP2 SWAP1 PUSH2 0x6276 JUMP JUMPDEST PUSH1 0x40 MLOAD DUP1 SWAP2 SUB SWAP1 RETURN JUMPDEST PUSH2 0x8D9 PUSH2 0x2351 JUMP JUMPDEST PUSH1 0x40 MLOAD PUSH2 0x8E6 SWAP2 SWAP1 PUSH2 0x6276 JUMP JUMPDEST PUSH1 0x40 MLOAD DUP1 SWAP2 SUB SWAP1 RETURN JUMPDEST PUSH2 0x8F7 PUSH2 0x2357 JUMP JUMPDEST PUSH1 0x40 MLOAD PUSH2 0x904 SWAP2 SWAP1 PUSH2 0x6276 JUMP JUMPDEST PUSH1 0x40 MLOAD DUP1 SWAP2 SUB SWAP1 RETURN JUMPDEST PUSH2 0x915 PUSH2 0x235D JUMP JUMPDEST PUSH1 0x40 MLOAD PUSH2 0x922 SWAP2 SWAP1 PUSH2 0x6276 JUMP JUMPDEST PUSH1 0x40 MLOAD DUP1 SWAP2 SUB SWAP1 RETURN JUMPDEST PUSH2 0x933 PUSH2 0x2363 JUMP JUMPDEST PUSH1 0x40 MLOAD PUSH2 0x940 SWAP2 SWAP1 PUSH2 0x6276 JUMP JUMPDEST PUSH1 0x40 MLOAD DUP1 SWAP2 SUB SWAP1 RETURN JUMPDEST PUSH2 0x951 PUSH2 0x2369 JUMP JUMPDEST PUSH1 0x40 MLOAD PUSH2 0x95E SWAP2 SWAP1 PUSH2 0x6276 JUMP JUMPDEST PUSH1 0x40 MLOAD DUP1 SWAP2 SUB SWAP1 RETURN JUMPDEST PUSH2 0x981 PUSH1 0x4 DUP1 CALLDATASIZE SUB DUP2 ADD SWAP1 PUSH2 0x97C SWAP2 SWAP1 PUSH2 0x5A11 JUMP JUMPDEST PUSH2 0x236F JUMP JUMPDEST STOP JUMPDEST PUSH2 0x98B PUSH2 0x2691 JUMP JUMPDEST PUSH1 0x40 MLOAD PUSH2 0x998 SWAP2 SWAP1 PUSH2 0x6276 JUMP JUMPDEST PUSH1 0x40 MLOAD DUP1 SWAP2 SUB SWAP1 RETURN JUMPDEST PUSH2 0x9BB PUSH1 0x4 DUP1 CALLDATASIZE SUB DUP2 ADD SWAP1 PUSH2 0x9B6 SWAP2 SWAP1 PUSH2 0x5D33 JUMP JUMPDEST PUSH2 0x2697 JUMP JUMPDEST STOP JUMPDEST PUSH2 0x9C5 PUSH2 0x2ABB JUMP JUMPDEST PUSH1 0x40 MLOAD PUSH2 0x9D2 SWAP2 SWAP1 PUSH2 0x6154 JUMP JUMPDEST PUSH1 0x40 MLOAD DUP1 SWAP2 SUB SWAP1 RETURN JUMPDEST PUSH2 0x9E3 PUSH2 0x2AF4 JUMP JUMPDEST PUSH1 0x40 MLOAD PUSH2 0x9F0 SWAP2 SWAP1 PUSH2 0x6276 JUMP JUMPDEST PUSH1 0x40 MLOAD DUP1 SWAP2 SUB SWAP1 RETURN JUMPDEST PUSH2 0xA13 PUSH1 0x4 DUP1 CALLDATASIZE SUB DUP2 ADD SWAP1 PUSH2 0xA0E SWAP2 SWAP1 PUSH2 0x5BC6 JUMP JUMPDEST PUSH2 0x2AFA JUMP JUMPDEST STOP JUMPDEST PUSH2 0xA1D PUSH2 0x2E7E JUMP JUMPDEST PUSH1 0x40 MLOAD PUSH2 0xA2A SWAP2 SWAP1 PUSH2 0x6276 JUMP JUMPDEST PUSH1 0x40 MLOAD DUP1 SWAP2 SUB SWAP1 RETURN JUMPDEST PUSH2 0xA4D PUSH1 0x4 DUP1 CALLDATASIZE SUB DUP2 ADD SWAP1 PUSH2 0xA48 SWAP2 SWAP1 PUSH2 0x5B86 JUMP JUMPDEST PUSH2 0x2E84 JUMP JUMPDEST PUSH1 0x40 MLOAD PUSH2 0xA5A SWAP2 SWAP1 PUSH2 0x6078 JUMP JUMPDEST PUSH1 0x40 MLOAD DUP1 SWAP2 SUB SWAP1 RETURN JUMPDEST PUSH2 0xA6B PUSH2 0x2E9B JUMP JUMPDEST PUSH1 0x40 MLOAD PUSH2 0xA78 SWAP2 SWAP1 PUSH2 0x6276 JUMP JUMPDEST PUSH1 0x40 MLOAD DUP1 SWAP2 SUB SWAP1 RETURN JUMPDEST PUSH2 0xA89 PUSH2 0x2EA1 JUMP JUMPDEST PUSH1 0x40 MLOAD PUSH2 0xA96 SWAP2 SWAP1 PUSH2 0x5FEF JUMP JUMPDEST PUSH1 0x40 MLOAD DUP1 SWAP2 SUB SWAP1 RETURN JUMPDEST PUSH2 0xAB9 PUSH1 0x4 DUP1 CALLDATASIZE SUB DUP2 ADD SWAP1 PUSH2 0xAB4 SWAP2 SWAP1 PUSH2 0x59E4 JUMP JUMPDEST PUSH2 0x2EC7 JUMP JUMPDEST STOP JUMPDEST PUSH2 0xAD5 PUSH1 0x4 DUP1 CALLDATASIZE SUB DUP2 ADD SWAP1 PUSH2 0xAD0 SWAP2 SWAP1 PUSH2 0x5A11 JUMP JUMPDEST PUSH2 0x30F5 JUMP JUMPDEST STOP JUMPDEST PUSH2 0xADF PUSH2 0x34A6 JUMP JUMPDEST PUSH1 0x40 MLOAD PUSH2 0xAEC SWAP2 SWAP1 PUSH2 0x5FEF JUMP JUMPDEST PUSH1 0x40 MLOAD DUP1 SWAP2 SUB SWAP1 RETURN JUMPDEST PUSH2 0xAFD PUSH2 0x34CC JUMP JUMPDEST PUSH1 0x40 MLOAD PUSH2 0xB0A SWAP2 SWAP1 PUSH2 0x6078 JUMP JUMPDEST PUSH1 0x40 MLOAD DUP1 SWAP2 SUB SWAP1 RETURN JUMPDEST PUSH2 0xB1B PUSH2 0x34DF JUMP JUMPDEST PUSH1 0x40 MLOAD PUSH2 0xB28 SWAP2 SWAP1 PUSH2 0x6276 JUMP JUMPDEST PUSH1 0x40 MLOAD DUP1 SWAP2 SUB SWAP1 RETURN JUMPDEST PUSH2 0xB4B PUSH1 0x4 DUP1 CALLDATASIZE SUB DUP2 ADD SWAP1 PUSH2 0xB46 SWAP2 SWAP1 PUSH2 0x5C46 JUMP JUMPDEST PUSH2 0x34E5 JUMP JUMPDEST STOP JUMPDEST PUSH2 0xB55 PUSH2 0x3549 JUMP JUMPDEST PUSH1 0x40 MLOAD PUSH2 0xB62 SWAP2 SWAP1 PUSH2 0x6276 JUMP JUMPDEST PUSH1 0x40 MLOAD DUP1 SWAP2 SUB SWAP1 RETURN JUMPDEST PUSH2 0xB85 PUSH1 0x4 DUP1 CALLDATASIZE SUB DUP2 ADD SWAP1 PUSH2 0xB80 SWAP2 SWAP1 PUSH2 0x5AA4 JUMP JUMPDEST PUSH2 0x354F JUMP JUMPDEST STOP JUMPDEST PUSH2 0xBA1 PUSH1 0x4 DUP1 CALLDATASIZE SUB DUP2 ADD SWAP1 PUSH2 0xB9C SWAP2 SWAP1 PUSH2 0x5A11 JUMP JUMPDEST PUSH2 0x3777 JUMP JUMPDEST PUSH1 0x40 MLOAD PUSH2 0xBAE SWAP2 SWAP1 PUSH2 0x6276 JUMP JUMPDEST PUSH1 0x40 MLOAD DUP1 SWAP2 SUB SWAP1 RETURN JUMPDEST PUSH2 0xBBF PUSH2 0x379C JUMP JUMPDEST PUSH1 0x40 MLOAD PUSH2 0xBCC SWAP2 SWAP1 PUSH2 0x6276 JUMP JUMPDEST PUSH1 0x40 MLOAD DUP1 SWAP2 SUB SWAP1 RETURN JUMPDEST PUSH2 0xBDD PUSH2 0x37A2 JUMP JUMPDEST PUSH1 0x40 MLOAD PUSH2 0xBEA SWAP2 SWAP1 PUSH2 0x6276 JUMP JUMPDEST PUSH1 0x40 MLOAD DUP1 SWAP2 SUB SWAP1 RETURN JUMPDEST PUSH2 0xBFB PUSH2 0x37A8 JUMP JUMPDEST PUSH1 0x40 MLOAD PUSH2 0xC08 SWAP2 SWAP1 PUSH2 0x6276 JUMP JUMPDEST PUSH1 0x40 MLOAD DUP1 SWAP2 SUB SWAP1 RETURN JUMPDEST PUSH2 0xC19 PUSH2 0x37AE JUMP JUMPDEST PUSH1 0x40 MLOAD PUSH2 0xC26 SWAP2 SWAP1 PUSH2 0x6276 JUMP JUMPDEST PUSH1 0x40 MLOAD DUP1 SWAP2 SUB SWAP1 RETURN JUMPDEST PUSH2 0xC37 PUSH2 0x37B4 JUMP JUMPDEST PUSH1 0x40 MLOAD PUSH2 0xC44 SWAP2 SWAP1 PUSH2 0x6276 JUMP JUMPDEST PUSH1 0x40 MLOAD DUP1 SWAP2 SUB SWAP1 RETURN JUMPDEST PUSH2 0xC55 PUSH2 0x37BA JUMP JUMPDEST PUSH1 0x40 MLOAD PUSH2 0xC62 SWAP2 SWAP1 PUSH2 0x6276 JUMP JUMPDEST PUSH1 0x40 MLOAD DUP1 SWAP2 SUB SWAP1 RETURN JUMPDEST PUSH2 0xC85 PUSH1 0x4 DUP1 CALLDATASIZE SUB DUP2 ADD SWAP1 PUSH2 0xC80 SWAP2 SWAP1 PUSH2 0x5B86 JUMP JUMPDEST PUSH2 0x37C0 JUMP JUMPDEST PUSH1 0x40 MLOAD PUSH2 0xC92 SWAP2 SWAP1 PUSH2 0x6276 JUMP JUMPDEST PUSH1 0x40 MLOAD DUP1 SWAP2 SUB SWAP1 RETURN JUMPDEST PUSH2 0xCA3 PUSH2 0x37E8 JUMP JUMPDEST PUSH1 0x40 MLOAD PUSH2 0xCB0 SWAP2 SWAP1 PUSH2 0x6276 JUMP JUMPDEST PUSH1 0x40 MLOAD DUP1 SWAP2 SUB SWAP1 RETURN JUMPDEST PUSH2 0xCD3 PUSH1 0x4 DUP1 CALLDATASIZE SUB DUP2 ADD SWAP1 PUSH2 0xCCE SWAP2 SWAP1 PUSH2 0x5C46 JUMP JUMPDEST PUSH2 0x37EE JUMP JUMPDEST STOP JUMPDEST PUSH1 0xE SLOAD DUP2 JUMP JUMPDEST PUSH1 0x40 MLOAD DUP1 PUSH1 0x40 ADD PUSH1 0x40 MSTORE DUP1 PUSH1 0xA DUP2 MSTORE PUSH1 0x20 ADD PUSH32 0x556E697377617020563200000000000000000000000000000000000000000000 DUP2 MSTORE POP DUP2 JUMP JUMPDEST PUSH1 0x0 PUSH2 0xD21 CALLER DUP5 DUP5 PUSH2 0x3852 JUMP JUMPDEST PUSH1 0x1 SWAP1 POP SWAP3 SWAP2 POP POP JUMP JUMPDEST PUSH1 0x15 SLOAD DUP2 JUMP JUMPDEST PUSH1 0x25 PUSH1 0x0 SWAP1 SLOAD SWAP1 PUSH2 0x100 EXP SWAP1 DIV PUSH20 0xFFFFFFFFFFFFFFFFFFFFFFFFFFFFFFFFFFFFFFFF AND PUSH20 0xFFFFFFFFFFFFFFFFFFFFFFFFFFFFFFFFFFFFFFFF AND CALLER PUSH20 0xFFFFFFFFFFFFFFFFFFFFFFFFFFFFFFFFFFFFFFFF AND EQ PUSH2 0xD8B JUMPI PUSH1 0x0 DUP1 REVERT JUMPDEST DUP1 PUSH1 0x21 DUP2 SWAP1 SSTORE POP POP JUMP JUMPDEST PUSH1 0x7 SLOAD DUP2 JUMP JUMPDEST PUSH1 0x1C SLOAD DUP2 JUMP JUMPDEST PUSH1 0x26 PUSH1 0x0 SWAP1 SLOAD SWAP1 PUSH2 0x100 EXP SWAP1 DIV PUSH20 0xFFFFFFFFFFFFFFFFFFFFFFFFFFFFFFFFFFFFFFFF AND DUP2 JUMP JUMPDEST PUSH1 0x0 SLOAD DUP2 JUMP JUMPDEST PUSH1 0x1D SLOAD DUP2 JUMP JUMPDEST PUSH1 0x30 DUP2 PUSH1 0x2 DUP2 LT PUSH2 0xDE3 JUMPI PUSH1 0x0 DUP1 REVERT JUMPDEST ADD PUSH1 0x0 SWAP2 POP SWAP1 POP SLOAD DUP2 JUMP JUMPDEST PUSH1 0x19 SLOAD DUP2 JUMP JUMPDEST PUSH1 0x1A SLOAD DUP2 JUMP JUMPDEST PUSH1 0x0 PUSH2 0x101 PUSH1 0x2 PUSH1 0x0 DUP7 PUSH20 0xFFFFFFFFFFFFFFFFFFFFFFFFFFFFFFFFFFFFFFFF AND PUSH20 0xFFFFFFFFFFFFFFFFFFFFFFFFFFFFFFFFFFFFFFFF AND DUP2 MSTORE PUSH1 0x20 ADD SWAP1 DUP2 MSTORE PUSH1 0x20 ADD PUSH1 0x0 KECCAK256 PUSH1 0x0 CALLER PUSH20 0xFFFFFFFFFFFFFFFFFFFFFFFFFFFFFFFFFFFFFFFF AND PUSH20 0xFFFFFFFFFFFFFFFFFFFFFFFFFFFFFFFFFFFFFFFF AND DUP2 MSTORE PUSH1 0x20 ADD SWAP1 DUP2 MSTORE PUSH1 0x20 ADD PUSH1 0x0 KECCAK256 SLOAD EQ PUSH2 0xF91 JUMPI PUSH2 0xF10 DUP3 PUSH1 0x2 PUSH1 0x0 DUP8 PUSH20 0xFFFFFFFFFFFFFFFFFFFFFFFFFFFFFFFFFFFFFFFF AND PUSH20 0xFFFFFFFFFFFFFFFFFFFFFFFFFFFFFFFFFFFFFFFF AND DUP2 MSTORE PUSH1 0x20 ADD SWAP1 DUP2 MSTORE PUSH1 0x20 ADD PUSH1 0x0 KECCAK256 PUSH1 0x0 CALLER PUSH20 0xFFFFFFFFFFFFFFFFFFFFFFFFFFFFFFFFFFFFFFFF AND PUSH20 0xFFFFFFFFFFFFFFFFFFFFFFFFFFFFFFFFFFFFFFFF AND DUP2 MSTORE PUSH1 0x20 ADD SWAP1 DUP2 MSTORE PUSH1 0x20 ADD PUSH1 0x0 KECCAK256 SLOAD PUSH2 0x393D SWAP1 SWAP2 SWAP1 PUSH4 0xFFFFFFFF AND JUMP JUMPDEST PUSH1 0x2 PUSH1 0x0 DUP7 PUSH20 0xFFFFFFFFFFFFFFFFFFFFFFFFFFFFFFFFFFFFFFFF AND PUSH20 0xFFFFFFFFFFFFFFFFFFFFFFFFFFFFFFFFFFFFFFFF AND DUP2 MSTORE PUSH1 0x20 ADD SWAP1 DUP2 MSTORE PUSH1 0x20 ADD PUSH1 0x0 KECCAK256 PUSH1 0x0 CALLER PUSH20 0xFFFFFFFFFFFFFFFFFFFFFFFFFFFFFFFFFFFFFFFF AND PUSH20 0xFFFFFFFFFFFFFFFFFFFFFFFFFFFFFFFFFFFFFFFF AND DUP2 MSTORE PUSH1 0x20 ADD SWAP1 DUP2 MSTORE PUSH1 0x20 ADD PUSH1 0x0 KECCAK256 DUP2 SWAP1 SSTORE POP JUMPDEST PUSH2 0xF9C DUP5 DUP5 DUP5 PUSH2 0x3996 JUMP JUMPDEST PUSH1 0x1 SWAP1 POP SWAP4 SWAP3 POP POP POP JUMP JUMPDEST PUSH1 0x1E SLOAD DUP2 JUMP JUMPDEST PUSH1 0x29 SLOAD DUP2 JUMP JUMPDEST PUSH32 0x6E71EDAE12B1B97F4D1F60370FEF10105FA2FAAE0126114A169C64845D6126C9 PUSH1 0x0 SHL DUP2 JUMP JUMPDEST PUSH1 0x12 DUP2 JUMP JUMPDEST PUSH1 0x5 SLOAD DUP2 JUMP JUMPDEST PUSH1 0x3 SLOAD DUP2 JUMP JUMPDEST PUSH1 0xC SLOAD DUP2 JUMP JUMPDEST PUSH1 0x13 SLOAD DUP2 JUMP JUMPDEST PUSH1 0x17 SLOAD DUP2 JUMP JUMPDEST PUSH1 0x25 PUSH1 0x0 SWAP1 SLOAD SWAP1 PUSH2 0x100 EXP SWAP1 DIV PUSH20 0xFFFFFFFFFFFFFFFFFFFFFFFFFFFFFFFFFFFFFFFF AND PUSH20 0xFFFFFFFFFFFFFFFFFFFFFFFFFFFFFFFFFFFFFFFF AND CALLER PUSH20 0xFFFFFFFFFFFFFFFFFFFFFFFFFFFFFFFFFFFFFFFF AND EQ PUSH2 0x108D JUMPI PUSH1 0x40 MLOAD PUSH32 0x8C379A000000000000000000000000000000000000000000000000000000000 DUP2 MSTORE PUSH1 0x4 ADD PUSH2 0x1084 SWAP1 PUSH2 0x61F6 JUMP JUMPDEST PUSH1 0x40 MLOAD DUP1 SWAP2 SUB SWAP1 REVERT JUMPDEST DUP2 PUSH1 0x26 PUSH1 0x0 PUSH2 0x100 EXP DUP2 SLOAD DUP2 PUSH20 0xFFFFFFFFFFFFFFFFFFFFFFFFFFFFFFFFFFFFFFFF MUL NOT AND SWAP1 DUP4 PUSH20 0xFFFFFFFFFFFFFFFFFFFFFFFFFFFFFFFFFFFFFFFF AND MUL OR SWAP1 SSTORE POP DUP1 PUSH1 0x27 PUSH1 0x0 PUSH2 0x100 EXP DUP2 SLOAD DUP2 PUSH20 0xFFFFFFFFFFFFFFFFFFFFFFFFFFFFFFFFFFFFFFFF MUL NOT AND SWAP1 DUP4 PUSH20 0xFFFFFFFFFFFFFFFFFFFFFFFFFFFFFFFFFFFFFFFF AND MUL OR SWAP1 SSTORE POP POP POP JUMP JUMPDEST PUSH1 0x1 PUSH1 0x2F SLOAD EQ PUSH2 0x1158 JUMPI PUSH1 0x40 MLOAD PUSH32 0x8C379A000000000000000000000000000000000000000000000000000000000 DUP2 MSTORE PUSH1 0x4 ADD PUSH2 0x114F SWAP1 PUSH2 0x6256 JUMP JUMPDEST PUSH1 0x40 MLOAD DUP1 SWAP2 SUB SWAP1 REVERT JUMPDEST PUSH1 0x0 PUSH1 0x2F DUP2 SWAP1 SSTORE POP PUSH1 0x0 DUP3 DUP5 PUSH2 0x116E SWAP2 SWAP1 PUSH2 0x650A JUMP JUMPDEST EQ DUP1 ISZERO PUSH2 0x1186 JUMPI POP PUSH1 0x0 DUP3 DUP5 PUSH2 0x1184 SWAP2 SWAP1 PUSH2 0x6312 JUMP JUMPDEST GT JUMPDEST DUP1 ISZERO PUSH2 0x11B4 JUMPI POP PUSH2 0x1196 DUP2 PUSH2 0x3B2A JUMP JUMPDEST PUSH2 0x119F DUP3 PUSH2 0x3C1E JUMP JUMPDEST PUSH2 0x11A8 DUP4 PUSH2 0x3D03 JUMP JUMPDEST PUSH2 0x11B2 SWAP2 SWAP1 PUSH2 0x6312 JUMP JUMPDEST GT JUMPDEST DUP1 ISZERO PUSH2 0x1217 JUMPI POP PUSH1 0x32 PUSH1 0x0 DUP3 PUSH20 0xFFFFFFFFFFFFFFFFFFFFFFFFFFFFFFFFFFFFFFFF AND PUSH20 0xFFFFFFFFFFFFFFFFFFFFFFFFFFFFFFFFFFFFFFFF AND DUP2 MSTORE PUSH1 0x20 ADD SWAP1 DUP2 MSTORE PUSH1 0x20 ADD PUSH1 0x0 KECCAK256 PUSH1 0x0 DUP1 ISZERO ISZERO ISZERO ISZERO DUP2 MSTORE PUSH1 0x20 ADD SWAP1 DUP2 MSTORE PUSH1 0x20 ADD PUSH1 0x0 KECCAK256 PUSH1 0x2 ADD SLOAD DUP4 GT ISZERO JUMPDEST DUP1 ISZERO PUSH2 0x127B JUMPI POP PUSH1 0x32 PUSH1 0x0 DUP3 PUSH20 0xFFFFFFFFFFFFFFFFFFFFFFFFFFFFFFFFFFFFFFFF AND PUSH20 0xFFFFFFFFFFFFFFFFFFFFFFFFFFFFFFFFFFFFFFFF AND DUP2 MSTORE PUSH1 0x20 ADD SWAP1 DUP2 MSTORE PUSH1 0x20 ADD PUSH1 0x0 KECCAK256 PUSH1 0x0 PUSH1 0x1 ISZERO ISZERO ISZERO ISZERO DUP2 MSTORE PUSH1 0x20 ADD SWAP1 DUP2 MSTORE PUSH1 0x20 ADD PUSH1 0x0 KECCAK256 PUSH1 0x2 ADD SLOAD DUP3 GT ISZERO JUMPDEST PUSH2 0x1284 JUMPI PUSH1 0x0 DUP1 REVERT JUMPDEST PUSH2 0x128C PUSH2 0x3DD2 JUMP JUMPDEST PUSH1 0x0 DUP4 GT ISZERO PUSH2 0x19BE JUMPI PUSH1 0x0 PUSH2 0x12A2 DUP5 PUSH1 0x1 PUSH2 0x3EFE JUMP JUMPDEST SWAP1 POP PUSH1 0x0 PUSH2 0x1366 DUP6 PUSH1 0x32 PUSH1 0x0 DUP7 PUSH20 0xFFFFFFFFFFFFFFFFFFFFFFFFFFFFFFFFFFFFFFFF AND PUSH20 0xFFFFFFFFFFFFFFFFFFFFFFFFFFFFFFFFFFFFFFFF AND DUP2 MSTORE PUSH1 0x20 ADD SWAP1 DUP2 MSTORE PUSH1 0x20 ADD PUSH1 0x0 KECCAK256 PUSH1 0x0 PUSH1 0x1 ISZERO ISZERO ISZERO ISZERO DUP2 MSTORE PUSH1 0x20 ADD SWAP1 DUP2 MSTORE PUSH1 0x20 ADD PUSH1 0x0 KECCAK256 PUSH1 0x1 ADD SLOAD PUSH1 0x1A SLOAD PUSH1 0x1C SLOAD PUSH1 0x32 PUSH1 0x0 DUP10 PUSH20 0xFFFFFFFFFFFFFFFFFFFFFFFFFFFFFFFFFFFFFFFF AND PUSH20 0xFFFFFFFFFFFFFFFFFFFFFFFFFFFFFFFFFFFFFFFF AND DUP2 MSTORE PUSH1 0x20 ADD SWAP1 DUP2 MSTORE PUSH1 0x20 ADD PUSH1 0x0 KECCAK256 PUSH1 0x0 DUP1 ISZERO ISZERO ISZERO ISZERO DUP2 MSTORE PUSH1 0x20 ADD SWAP1 DUP2 MSTORE PUSH1 0x20 ADD PUSH1 0x0 KECCAK256 PUSH1 0x2 ADD SLOAD PUSH2 0x4232 JUMP JUMPDEST SWAP1 POP DUP5 PUSH1 0x32 PUSH1 0x0 DUP6 PUSH20 0xFFFFFFFFFFFFFFFFFFFFFFFFFFFFFFFFFFFFFFFF AND PUSH20 0xFFFFFFFFFFFFFFFFFFFFFFFFFFFFFFFFFFFFFFFF AND DUP2 MSTORE PUSH1 0x20 ADD SWAP1 DUP2 MSTORE PUSH1 0x20 ADD PUSH1 0x0 KECCAK256 PUSH1 0x0 DUP1 ISZERO ISZERO ISZERO ISZERO DUP2 MSTORE PUSH1 0x20 ADD SWAP1 DUP2 MSTORE PUSH1 0x20 ADD PUSH1 0x0 KECCAK256 PUSH1 0x2 ADD PUSH1 0x0 DUP3 DUP3 SLOAD PUSH2 0x13CF SWAP2 SWAP1 PUSH2 0x6564 JUMP JUMPDEST SWAP3 POP POP DUP2 SWAP1 SSTORE POP DUP1 PUSH1 0x1A PUSH1 0x0 DUP3 DUP3 SLOAD PUSH2 0x13E8 SWAP2 SWAP1 PUSH2 0x6564 JUMP JUMPDEST SWAP3 POP POP DUP2 SWAP1 SSTORE POP PUSH2 0x14A9 PUSH1 0x32 PUSH1 0x0 DUP6 PUSH20 0xFFFFFFFFFFFFFFFFFFFFFFFFFFFFFFFFFFFFFFFF AND PUSH20 0xFFFFFFFFFFFFFFFFFFFFFFFFFFFFFFFFFFFFFFFF AND DUP2 MSTORE PUSH1 0x20 ADD SWAP1 DUP2 MSTORE PUSH1 0x20 ADD PUSH1 0x0 KECCAK256 PUSH1 0x0 PUSH1 0x1 ISZERO ISZERO ISZERO ISZERO DUP2 MSTORE PUSH1 0x20 ADD SWAP1 DUP2 MSTORE PUSH1 0x20 ADD PUSH1 0x0 KECCAK256 PUSH1 0x1 ADD SLOAD DUP7 PUSH1 0x32 PUSH1 0x0 DUP8 PUSH20 0xFFFFFFFFFFFFFFFFFFFFFFFFFFFFFFFFFFFFFFFF AND PUSH20 0xFFFFFFFFFFFFFFFFFFFFFFFFFFFFFFFFFFFFFFFF AND DUP2 MSTORE PUSH1 0x20 ADD SWAP1 DUP2 MSTORE PUSH1 0x20 ADD PUSH1 0x0 KECCAK256 PUSH1 0x0 DUP1 ISZERO ISZERO ISZERO ISZERO DUP2 MSTORE PUSH1 0x20 ADD SWAP1 DUP2 MSTORE PUSH1 0x20 ADD PUSH1 0x0 KECCAK256 PUSH1 0x2 ADD SLOAD PUSH2 0x426C JUMP JUMPDEST PUSH1 0x1C PUSH1 0x0 DUP3 DUP3 SLOAD PUSH2 0x14BA SWAP2 SWAP1 PUSH2 0x6564 JUMP JUMPDEST SWAP3 POP POP DUP2 SWAP1 SSTORE POP PUSH2 0x157B PUSH1 0x32 PUSH1 0x0 DUP6 PUSH20 0xFFFFFFFFFFFFFFFFFFFFFFFFFFFFFFFFFFFFFFFF AND PUSH20 0xFFFFFFFFFFFFFFFFFFFFFFFFFFFFFFFFFFFFFFFF AND DUP2 MSTORE PUSH1 0x20 ADD SWAP1 DUP2 MSTORE PUSH1 0x20 ADD PUSH1 0x0 KECCAK256 PUSH1 0x0 PUSH1 0x1 ISZERO ISZERO ISZERO ISZERO DUP2 MSTORE PUSH1 0x20 ADD SWAP1 DUP2 MSTORE PUSH1 0x20 ADD PUSH1 0x0 KECCAK256 PUSH1 0x1 ADD SLOAD DUP7 PUSH1 0x32 PUSH1 0x0 DUP8 PUSH20 0xFFFFFFFFFFFFFFFFFFFFFFFFFFFFFFFFFFFFFFFF AND PUSH20 0xFFFFFFFFFFFFFFFFFFFFFFFFFFFFFFFFFFFFFFFF AND DUP2 MSTORE PUSH1 0x20 ADD SWAP1 DUP2 MSTORE PUSH1 0x20 ADD PUSH1 0x0 KECCAK256 PUSH1 0x0 DUP1 ISZERO ISZERO ISZERO ISZERO DUP2 MSTORE PUSH1 0x20 ADD SWAP1 DUP2 MSTORE PUSH1 0x20 ADD PUSH1 0x0 KECCAK256 PUSH1 0x2 ADD SLOAD PUSH2 0x426C JUMP JUMPDEST PUSH1 0x32 PUSH1 0x0 DUP6 PUSH20 0xFFFFFFFFFFFFFFFFFFFFFFFFFFFFFFFFFFFFFFFF AND PUSH20 0xFFFFFFFFFFFFFFFFFFFFFFFFFFFFFFFFFFFFFFFF AND DUP2 MSTORE PUSH1 0x20 ADD SWAP1 DUP2 MSTORE PUSH1 0x20 ADD PUSH1 0x0 KECCAK256 PUSH1 0x0 PUSH1 0x1 ISZERO ISZERO ISZERO ISZERO DUP2 MSTORE PUSH1 0x20 ADD SWAP1 DUP2 MSTORE PUSH1 0x20 ADD PUSH1 0x0 KECCAK256 PUSH1 0x1 ADD PUSH1 0x0 DUP3 DUP3 SLOAD PUSH2 0x15E2 SWAP2 SWAP1 PUSH2 0x6564 JUMP JUMPDEST SWAP3 POP POP DUP2 SWAP1 SSTORE POP DUP1 DUP3 GT DUP1 ISZERO PUSH2 0x160B JUMPI POP PUSH1 0x0 ISZERO ISZERO PUSH1 0x2D PUSH1 0x0 SWAP1 SLOAD SWAP1 PUSH2 0x100 EXP SWAP1 DIV PUSH1 0xFF AND ISZERO ISZERO EQ JUMPDEST ISZERO PUSH2 0x1694 JUMPI PUSH2 0x1626 DUP2 DUP4 PUSH2 0x161F SWAP2 SWAP1 PUSH2 0x6564 JUMP JUMPDEST PUSH1 0x0 PUSH2 0x428E JUMP JUMPDEST PUSH1 0x33 PUSH1 0x0 DUP6 PUSH20 0xFFFFFFFFFFFFFFFFFFFFFFFFFFFFFFFFFFFFFFFF AND PUSH20 0xFFFFFFFFFFFFFFFFFFFFFFFFFFFFFFFFFFFFFFFF AND DUP2 MSTORE PUSH1 0x20 ADD SWAP1 DUP2 MSTORE PUSH1 0x20 ADD PUSH1 0x0 KECCAK256 PUSH1 0x0 PUSH1 0x2 DUP2 LT PUSH2 0x1678 JUMPI PUSH2 0x1677 PUSH2 0x66DB JUMP JUMPDEST JUMPDEST ADD PUSH1 0x0 DUP3 DUP3 SLOAD PUSH2 0x1688 SWAP2 SWAP1 PUSH2 0x6312 JUMP JUMPDEST SWAP3 POP POP DUP2 SWAP1 SSTORE POP PUSH2 0x19B7 JUMP JUMPDEST DUP1 DUP3 PUSH1 0x33 PUSH1 0x0 DUP7 PUSH20 0xFFFFFFFFFFFFFFFFFFFFFFFFFFFFFFFFFFFFFFFF AND PUSH20 0xFFFFFFFFFFFFFFFFFFFFFFFFFFFFFFFFFFFFFFFF AND DUP2 MSTORE PUSH1 0x20 ADD SWAP1 DUP2 MSTORE PUSH1 0x20 ADD PUSH1 0x0 KECCAK256 PUSH1 0x1 PUSH1 0x2 DUP2 LT PUSH2 0x16E8 JUMPI PUSH2 0x16E7 PUSH2 0x66DB JUMP JUMPDEST JUMPDEST ADD SLOAD PUSH2 0x16F4 SWAP2 SWAP1 PUSH2 0x6312 JUMP JUMPDEST GT DUP1 ISZERO PUSH2 0x1714 JUMPI POP PUSH1 0x1 ISZERO ISZERO PUSH1 0x2D PUSH1 0x0 SWAP1 SLOAD SWAP1 PUSH2 0x100 EXP SWAP1 DIV PUSH1 0xFF AND ISZERO ISZERO EQ JUMPDEST ISZERO PUSH2 0x17DF JUMPI DUP1 DUP3 PUSH1 0x33 PUSH1 0x0 DUP7 PUSH20 0xFFFFFFFFFFFFFFFFFFFFFFFFFFFFFFFFFFFFFFFF AND PUSH20 0xFFFFFFFFFFFFFFFFFFFFFFFFFFFFFFFFFFFFFFFF AND DUP2 MSTORE PUSH1 0x20 ADD SWAP1 DUP2 MSTORE PUSH1 0x20 ADD PUSH1 0x0 KECCAK256 PUSH1 0x1 PUSH1 0x2 DUP2 LT PUSH2 0x176D JUMPI PUSH2 0x176C PUSH2 0x66DB JUMP JUMPDEST JUMPDEST ADD SLOAD PUSH2 0x1779 SWAP2 SWAP1 PUSH2 0x6312 JUMP JUMPDEST PUSH2 0x1783 SWAP2 SWAP1 PUSH2 0x6564 JUMP JUMPDEST PUSH1 0x33 PUSH1 0x0 DUP6 PUSH20 0xFFFFFFFFFFFFFFFFFFFFFFFFFFFFFFFFFFFFFFFF AND PUSH20 0xFFFFFFFFFFFFFFFFFFFFFFFFFFFFFFFFFFFFFFFF AND DUP2 MSTORE PUSH1 0x20 ADD SWAP1 DUP2 MSTORE PUSH1 0x20 ADD PUSH1 0x0 KECCAK256 PUSH1 0x1 PUSH1 0x2 DUP2 LT PUSH2 0x17D5 JUMPI PUSH2 0x17D4 PUSH2 0x66DB JUMP JUMPDEST JUMPDEST ADD DUP2 SWAP1 SSTORE POP PUSH2 0x19B6 JUMP JUMPDEST PUSH2 0x18A7 PUSH1 0x33 PUSH1 0x0 DUP6 PUSH20 0xFFFFFFFFFFFFFFFFFFFFFFFFFFFFFFFFFFFFFFFF AND PUSH20 0xFFFFFFFFFFFFFFFFFFFFFFFFFFFFFFFFFFFFFFFF AND DUP2 MSTORE PUSH1 0x20 ADD SWAP1 DUP2 MSTORE PUSH1 0x20 ADD PUSH1 0x0 KECCAK256 PUSH1 0x1 PUSH1 0x2 DUP2 LT PUSH2 0x1834 JUMPI PUSH2 0x1833 PUSH2 0x66DB JUMP JUMPDEST JUMPDEST ADD SLOAD DUP4 DUP4 PUSH2 0x1842 SWAP2 SWAP1 PUSH2 0x6564 JUMP JUMPDEST PUSH2 0x184C SWAP2 SWAP1 PUSH2 0x6564 JUMP JUMPDEST PUSH1 0x33 PUSH1 0x0 DUP7 PUSH20 0xFFFFFFFFFFFFFFFFFFFFFFFFFFFFFFFFFFFFFFFF AND PUSH20 0xFFFFFFFFFFFFFFFFFFFFFFFFFFFFFFFFFFFFFFFF AND DUP2 MSTORE PUSH1 0x20 ADD SWAP1 DUP2 MSTORE PUSH1 0x20 ADD PUSH1 0x0 KECCAK256 PUSH1 0x0 PUSH1 0x2 DUP2 LT PUSH2 0x189E JUMPI PUSH2 0x189D PUSH2 0x66DB JUMP JUMPDEST JUMPDEST ADD SLOAD PUSH1 0x0 PUSH2 0x45C2 JUMP JUMPDEST PUSH1 0x33 PUSH1 0x0 DUP6 PUSH20 0xFFFFFFFFFFFFFFFFFFFFFFFFFFFFFFFFFFFFFFFF AND PUSH20 0xFFFFFFFFFFFFFFFFFFFFFFFFFFFFFFFFFFFFFFFF AND DUP2 MSTORE PUSH1 0x20 ADD SWAP1 DUP2 MSTORE PUSH1 0x20 ADD PUSH1 0x0 KECCAK256 PUSH1 0x0 PUSH1 0x2 DUP2 LT PUSH2 0x18F9 JUMPI PUSH2 0x18F8 PUSH2 0x66DB JUMP JUMPDEST JUMPDEST ADD SLOAD PUSH2 0x1905 SWAP2 SWAP1 PUSH2 0x6564 JUMP JUMPDEST PUSH1 0x33 PUSH1 0x0 DUP6 PUSH20 0xFFFFFFFFFFFFFFFFFFFFFFFFFFFFFFFFFFFFFFFF AND PUSH20 0xFFFFFFFFFFFFFFFFFFFFFFFFFFFFFFFFFFFFFFFF AND DUP2 MSTORE PUSH1 0x20 ADD SWAP1 DUP2 MSTORE PUSH1 0x20 ADD PUSH1 0x0 KECCAK256 PUSH1 0x0 PUSH1 0x2 DUP2 LT PUSH2 0x1957 JUMPI PUSH2 0x1956 PUSH2 0x66DB JUMP JUMPDEST JUMPDEST ADD DUP2 SWAP1 SSTORE POP PUSH1 0x0 PUSH1 0x33 PUSH1 0x0 DUP6 PUSH20 0xFFFFFFFFFFFFFFFFFFFFFFFFFFFFFFFFFFFFFFFF AND PUSH20 0xFFFFFFFFFFFFFFFFFFFFFFFFFFFFFFFFFFFFFFFF AND DUP2 MSTORE PUSH1 0x20 ADD SWAP1 DUP2 MSTORE PUSH1 0x20 ADD PUSH1 0x0 KECCAK256 PUSH1 0x1 PUSH1 0x2 DUP2 LT PUSH2 0x19B0 JUMPI PUSH2 0x19AF PUSH2 0x66DB JUMP JUMPDEST JUMPDEST ADD DUP2 SWAP1 SSTORE POP JUMPDEST JUMPDEST POP POP PUSH2 0x2018 JUMP JUMPDEST PUSH1 0x0 PUSH2 0x19CB DUP4 PUSH1 0x1 PUSH2 0x428E JUMP JUMPDEST SWAP1 POP PUSH1 0x0 PUSH2 0x1A8F DUP5 PUSH1 0x32 PUSH1 0x0 DUP7 PUSH20 0xFFFFFFFFFFFFFFFFFFFFFFFFFFFFFFFFFFFFFFFF AND PUSH20 0xFFFFFFFFFFFFFFFFFFFFFFFFFFFFFFFFFFFFFFFF AND DUP2 MSTORE PUSH1 0x20 ADD SWAP1 DUP2 MSTORE PUSH1 0x20 ADD PUSH1 0x0 KECCAK256 PUSH1 0x0 DUP1 ISZERO ISZERO ISZERO ISZERO DUP2 MSTORE PUSH1 0x20 ADD SWAP1 DUP2 MSTORE PUSH1 0x20 ADD PUSH1 0x0 KECCAK256 PUSH1 0x1 ADD SLOAD PUSH1 0x19 SLOAD PUSH1 0x1B SLOAD PUSH1 0x32 PUSH1 0x0 DUP10 PUSH20 0xFFFFFFFFFFFFFFFFFFFFFFFFFFFFFFFFFFFFFFFF AND PUSH20 0xFFFFFFFFFFFFFFFFFFFFFFFFFFFFFFFFFFFFFFFF AND DUP2 MSTORE PUSH1 0x20 ADD SWAP1 DUP2 MSTORE PUSH1 0x20 ADD PUSH1 0x0 KECCAK256 PUSH1 0x0 PUSH1 0x1 ISZERO ISZERO ISZERO ISZERO DUP2 MSTORE PUSH1 0x20 ADD SWAP1 DUP2 MSTORE PUSH1 0x20 ADD PUSH1 0x0 KECCAK256 PUSH1 0x2 ADD SLOAD PUSH2 0x4232 JUMP JUMPDEST SWAP1 POP DUP4 PUSH1 0x32 PUSH1 0x0 DUP6 PUSH20 0xFFFFFFFFFFFFFFFFFFFFFFFFFFFFFFFFFFFFFFFF AND PUSH20 0xFFFFFFFFFFFFFFFFFFFFFFFFFFFFFFFFFFFFFFFF AND DUP2 MSTORE PUSH1 0x20 ADD SWAP1 DUP2 MSTORE PUSH1 0x20 ADD PUSH1 0x0 KECCAK256 PUSH1 0x0 PUSH1 0x1 ISZERO ISZERO ISZERO ISZERO DUP2 MSTORE PUSH1 0x20 ADD SWAP1 DUP2 MSTORE PUSH1 0x20 ADD PUSH1 0x0 KECCAK256 PUSH1 0x2 ADD PUSH1 0x0 DUP3 DUP3 SLOAD PUSH2 0x1AF9 SWAP2 SWAP1 PUSH2 0x6564 JUMP JUMPDEST SWAP3 POP POP DUP2 SWAP1 SSTORE POP DUP1 PUSH1 0x19 PUSH1 0x0 DUP3 DUP3 SLOAD PUSH2 0x1B12 SWAP2 SWAP1 PUSH2 0x6564 JUMP JUMPDEST SWAP3 POP POP DUP2 SWAP1 SSTORE POP PUSH2 0x1BD3 PUSH1 0x32 PUSH1 0x0 DUP6 PUSH20 0xFFFFFFFFFFFFFFFFFFFFFFFFFFFFFFFFFFFFFFFF AND PUSH20 0xFFFFFFFFFFFFFFFFFFFFFFFFFFFFFFFFFFFFFFFF AND DUP2 MSTORE PUSH1 0x20 ADD SWAP1 DUP2 MSTORE PUSH1 0x20 ADD PUSH1 0x0 KECCAK256 PUSH1 0x0 DUP1 ISZERO ISZERO ISZERO ISZERO DUP2 MSTORE PUSH1 0x20 ADD SWAP1 DUP2 MSTORE PUSH1 0x20 ADD PUSH1 0x0 KECCAK256 PUSH1 0x1 ADD SLOAD DUP6 PUSH1 0x32 PUSH1 0x0 DUP8 PUSH20 0xFFFFFFFFFFFFFFFFFFFFFFFFFFFFFFFFFFFFFFFF AND PUSH20 0xFFFFFFFFFFFFFFFFFFFFFFFFFFFFFFFFFFFFFFFF AND DUP2 MSTORE PUSH1 0x20 ADD SWAP1 DUP2 MSTORE PUSH1 0x20 ADD PUSH1 0x0 KECCAK256 PUSH1 0x0 PUSH1 0x1 ISZERO ISZERO ISZERO ISZERO DUP2 MSTORE PUSH1 0x20 ADD SWAP1 DUP2 MSTORE PUSH1 0x20 ADD PUSH1 0x0 KECCAK256 PUSH1 0x2 ADD SLOAD PUSH2 0x426C JUMP JUMPDEST PUSH1 0x1B PUSH1 0x0 DUP3 DUP3 SLOAD PUSH2 0x1BE4 SWAP2 SWAP1 PUSH2 0x6564 JUMP JUMPDEST SWAP3 POP POP DUP2 SWAP1 SSTORE POP PUSH2 0x1CA5 PUSH1 0x32 PUSH1 0x0 DUP6 PUSH20 0xFFFFFFFFFFFFFFFFFFFFFFFFFFFFFFFFFFFFFFFF AND PUSH20 0xFFFFFFFFFFFFFFFFFFFFFFFFFFFFFFFFFFFFFFFF AND DUP2 MSTORE PUSH1 0x20 ADD SWAP1 DUP2 MSTORE PUSH1 0x20 ADD PUSH1 0x0 KECCAK256 PUSH1 0x0 DUP1 ISZERO ISZERO ISZERO ISZERO DUP2 MSTORE PUSH1 0x20 ADD SWAP1 DUP2 MSTORE PUSH1 0x20 ADD PUSH1 0x0 KECCAK256 PUSH1 0x1 ADD SLOAD DUP6 PUSH1 0x32 PUSH1 0x0 DUP8 PUSH20 0xFFFFFFFFFFFFFFFFFFFFFFFFFFFFFFFFFFFFFFFF AND PUSH20 0xFFFFFFFFFFFFFFFFFFFFFFFFFFFFFFFFFFFFFFFF AND DUP2 MSTORE PUSH1 0x20 ADD SWAP1 DUP2 MSTORE PUSH1 0x20 ADD PUSH1 0x0 KECCAK256 PUSH1 0x0 PUSH1 0x1 ISZERO ISZERO ISZERO ISZERO DUP2 MSTORE PUSH1 0x20 ADD SWAP1 DUP2 MSTORE PUSH1 0x20 ADD PUSH1 0x0 KECCAK256 PUSH1 0x2 ADD SLOAD PUSH2 0x426C JUMP JUMPDEST PUSH1 0x32 PUSH1 0x0 DUP6 PUSH20 0xFFFFFFFFFFFFFFFFFFFFFFFFFFFFFFFFFFFFFFFF AND PUSH20 0xFFFFFFFFFFFFFFFFFFFFFFFFFFFFFFFFFFFFFFFF AND DUP2 MSTORE PUSH1 0x20 ADD SWAP1 DUP2 MSTORE PUSH1 0x20 ADD PUSH1 0x0 KECCAK256 PUSH1 0x0 DUP1 ISZERO ISZERO ISZERO ISZERO DUP2 MSTORE PUSH1 0x20 ADD SWAP1 DUP2 MSTORE PUSH1 0x20 ADD PUSH1 0x0 KECCAK256 PUSH1 0x1 ADD PUSH1 0x0 DUP3 DUP3 SLOAD PUSH2 0x1D0B SWAP2 SWAP1 PUSH2 0x6564 JUMP JUMPDEST SWAP3 POP POP DUP2 SWAP1 SSTORE POP DUP1 DUP3 PUSH1 0x33 PUSH1 0x0 DUP7 PUSH20 0xFFFFFFFFFFFFFFFFFFFFFFFFFFFFFFFFFFFFFFFF AND PUSH20 0xFFFFFFFFFFFFFFFFFFFFFFFFFFFFFFFFFFFFFFFF AND DUP2 MSTORE PUSH1 0x20 ADD SWAP1 DUP2 MSTORE PUSH1 0x20 ADD PUSH1 0x0 KECCAK256 PUSH1 0x0 PUSH1 0x2 DUP2 LT PUSH2 0x1D66 JUMPI PUSH2 0x1D65 PUSH2 0x66DB JUMP JUMPDEST JUMPDEST ADD SLOAD PUSH2 0x1D72 SWAP2 SWAP1 PUSH2 0x6312 JUMP JUMPDEST GT ISZERO PUSH2 0x1E3E JUMPI DUP1 DUP3 PUSH1 0x33 PUSH1 0x0 DUP7 PUSH20 0xFFFFFFFFFFFFFFFFFFFFFFFFFFFFFFFFFFFFFFFF AND PUSH20 0xFFFFFFFFFFFFFFFFFFFFFFFFFFFFFFFFFFFFFFFF AND DUP2 MSTORE PUSH1 0x20 ADD SWAP1 DUP2 MSTORE PUSH1 0x20 ADD PUSH1 0x0 KECCAK256 PUSH1 0x0 PUSH1 0x2 DUP2 LT PUSH2 0x1DCC JUMPI PUSH2 0x1DCB PUSH2 0x66DB JUMP JUMPDEST JUMPDEST ADD SLOAD PUSH2 0x1DD8 SWAP2 SWAP1 PUSH2 0x6312 JUMP JUMPDEST PUSH2 0x1DE2 SWAP2 SWAP1 PUSH2 0x6564 JUMP JUMPDEST PUSH1 0x33 PUSH1 0x0 DUP6 PUSH20 0xFFFFFFFFFFFFFFFFFFFFFFFFFFFFFFFFFFFFFFFF AND PUSH20 0xFFFFFFFFFFFFFFFFFFFFFFFFFFFFFFFFFFFFFFFF AND DUP2 MSTORE PUSH1 0x20 ADD SWAP1 DUP2 MSTORE PUSH1 0x20 ADD PUSH1 0x0 KECCAK256 PUSH1 0x0 PUSH1 0x2 DUP2 LT PUSH2 0x1E34 JUMPI PUSH2 0x1E33 PUSH2 0x66DB JUMP JUMPDEST JUMPDEST ADD DUP2 SWAP1 SSTORE POP PUSH2 0x2015 JUMP JUMPDEST PUSH2 0x1F06 PUSH1 0x33 PUSH1 0x0 DUP6 PUSH20 0xFFFFFFFFFFFFFFFFFFFFFFFFFFFFFFFFFFFFFFFF AND PUSH20 0xFFFFFFFFFFFFFFFFFFFFFFFFFFFFFFFFFFFFFFFF AND DUP2 MSTORE PUSH1 0x20 ADD SWAP1 DUP2 MSTORE PUSH1 0x20 ADD PUSH1 0x0 KECCAK256 PUSH1 0x0 PUSH1 0x2 DUP2 LT PUSH2 0x1E93 JUMPI PUSH2 0x1E92 PUSH2 0x66DB JUMP JUMPDEST JUMPDEST ADD SLOAD DUP4 DUP4 PUSH2 0x1EA1 SWAP2 SWAP1 PUSH2 0x6564 JUMP JUMPDEST PUSH2 0x1EAB SWAP2 SWAP1 PUSH2 0x6564 JUMP JUMPDEST PUSH1 0x33 PUSH1 0x0 DUP7 PUSH20 0xFFFFFFFFFFFFFFFFFFFFFFFFFFFFFFFFFFFFFFFF AND PUSH20 0xFFFFFFFFFFFFFFFFFFFFFFFFFFFFFFFFFFFFFFFF AND DUP2 MSTORE PUSH1 0x20 ADD SWAP1 DUP2 MSTORE PUSH1 0x20 ADD PUSH1 0x0 KECCAK256 PUSH1 0x1 PUSH1 0x2 DUP2 LT PUSH2 0x1EFD JUMPI PUSH2 0x1EFC PUSH2 0x66DB JUMP JUMPDEST JUMPDEST ADD SLOAD PUSH1 0x0 PUSH2 0x4901 JUMP JUMPDEST PUSH1 0x33 PUSH1 0x0 DUP6 PUSH20 0xFFFFFFFFFFFFFFFFFFFFFFFFFFFFFFFFFFFFFFFF AND PUSH20 0xFFFFFFFFFFFFFFFFFFFFFFFFFFFFFFFFFFFFFFFF AND DUP2 MSTORE PUSH1 0x20 ADD SWAP1 DUP2 MSTORE PUSH1 0x20 ADD PUSH1 0x0 KECCAK256 PUSH1 0x1 PUSH1 0x2 DUP2 LT PUSH2 0x1F58 JUMPI PUSH2 0x1F57 PUSH2 0x66DB JUMP JUMPDEST JUMPDEST ADD SLOAD PUSH2 0x1F64 SWAP2 SWAP1 PUSH2 0x6564 JUMP JUMPDEST PUSH1 0x33 PUSH1 0x0 DUP6 PUSH20 0xFFFFFFFFFFFFFFFFFFFFFFFFFFFFFFFFFFFFFFFF AND PUSH20 0xFFFFFFFFFFFFFFFFFFFFFFFFFFFFFFFFFFFFFFFF AND DUP2 MSTORE PUSH1 0x20 ADD SWAP1 DUP2 MSTORE PUSH1 0x20 ADD PUSH1 0x0 KECCAK256 PUSH1 0x1 PUSH1 0x2 DUP2 LT PUSH2 0x1FB6 JUMPI PUSH2 0x1FB5 PUSH2 0x66DB JUMP JUMPDEST JUMPDEST ADD DUP2 SWAP1 SSTORE POP PUSH1 0x0 PUSH1 0x33 PUSH1 0x0 DUP6 PUSH20 0xFFFFFFFFFFFFFFFFFFFFFFFFFFFFFFFFFFFFFFFF AND PUSH20 0xFFFFFFFFFFFFFFFFFFFFFFFFFFFFFFFFFFFFFFFF AND DUP2 MSTORE PUSH1 0x20 ADD SWAP1 DUP2 MSTORE PUSH1 0x20 ADD PUSH1 0x0 KECCAK256 PUSH1 0x0 PUSH1 0x2 DUP2 LT PUSH2 0x200F JUMPI PUSH2 0x200E PUSH2 0x66DB JUMP JUMPDEST JUMPDEST ADD DUP2 SWAP1 SSTORE POP JUMPDEST POP POP JUMPDEST PUSH1 0x1 PUSH1 0x2F DUP2 SWAP1 SSTORE POP POP POP POP JUMP JUMPDEST PUSH1 0x14 SLOAD DUP2 JUMP JUMPDEST PUSH1 0x1F SLOAD DUP2 JUMP JUMPDEST PUSH1 0x0 PUSH1 0x1 PUSH1 0x2F SLOAD EQ PUSH2 0x2078 JUMPI PUSH1 0x40 MLOAD PUSH32 0x8C379A000000000000000000000000000000000000000000000000000000000 DUP2 MSTORE PUSH1 0x4 ADD PUSH2 0x206F SWAP1 PUSH2 0x6256 JUMP JUMPDEST PUSH1 0x40 MLOAD DUP1 SWAP2 SUB SWAP1 REVERT JUMPDEST PUSH1 0x0 PUSH1 0x2F DUP2 SWAP1 SSTORE POP PUSH2 0x209C PUSH1 0xB SLOAD DUP6 PUSH1 0x14 SLOAD PUSH2 0x2094 SWAP2 SWAP1 PUSH2 0x6312 JUMP JUMPDEST PUSH1 0x14 SLOAD PUSH2 0x426C JUMP JUMPDEST PUSH1 0xB DUP2 SWAP1 SSTORE POP PUSH2 0x20BE PUSH1 0xC SLOAD DUP5 PUSH1 0x13 SLOAD PUSH2 0x20B6 SWAP2 SWAP1 PUSH2 0x6312 JUMP JUMPDEST PUSH1 0x13 SLOAD PUSH2 0x426C JUMP JUMPDEST PUSH1 0xC DUP2 SWAP1 SSTORE POP PUSH2 0x20D3 PUSH1 0x29 SLOAD DUP6 PUSH1 0x14 SLOAD PUSH2 0x426C JUMP JUMPDEST SWAP1 POP DUP1 PUSH1 0x29 SLOAD PUSH2 0x20E3 SWAP2 SWAP1 PUSH2 0x6312 JUMP JUMPDEST PUSH1 0x29 DUP2 SWAP1 SSTORE POP DUP4 PUSH1 0x14 SLOAD PUSH2 0x20F7 SWAP2 SWAP1 PUSH2 0x6312 JUMP JUMPDEST PUSH1 0x14 DUP2 SWAP1 SSTORE POP DUP3 PUSH1 0x13 SLOAD PUSH2 0x210B SWAP2 SWAP1 PUSH2 0x6312 JUMP JUMPDEST PUSH1 0x13 DUP2 SWAP1 SSTORE POP PUSH2 0x211B DUP3 DUP3 PUSH2 0x4C40 JUMP JUMPDEST PUSH2 0x2123 PUSH2 0x4D5A JUMP JUMPDEST PUSH1 0x1 PUSH1 0x2F DUP2 SWAP1 SSTORE POP SWAP4 SWAP3 POP POP POP JUMP JUMPDEST PUSH1 0x16 SLOAD DUP2 JUMP JUMPDEST PUSH1 0x0 DUP1 PUSH1 0x1 PUSH1 0x2F SLOAD EQ PUSH2 0x2180 JUMPI PUSH1 0x40 MLOAD PUSH32 0x8C379A000000000000000000000000000000000000000000000000000000000 DUP2 MSTORE PUSH1 0x4 ADD PUSH2 0x2177 SWAP1 PUSH2 0x6256 JUMP JUMPDEST PUSH1 0x40 MLOAD DUP1 SWAP2 SUB SWAP1 REVERT JUMPDEST PUSH1 0x0 PUSH1 0x2F DUP2 SWAP1 SSTORE POP PUSH2 0x2197 DUP5 PUSH1 0x14 SLOAD PUSH1 0x29 SLOAD PUSH2 0x426C JUMP JUMPDEST SWAP2 POP PUSH2 0x21A8 DUP5 PUSH1 0x13 SLOAD PUSH1 0x29 SLOAD PUSH2 0x426C JUMP JUMPDEST SWAP1 POP PUSH2 0x21C6 PUSH1 0xB SLOAD DUP4 PUSH1 0x14 SLOAD PUSH2 0x21BE SWAP2 SWAP1 PUSH2 0x6564 JUMP JUMPDEST PUSH1 0x14 SLOAD PUSH2 0x426C JUMP JUMPDEST PUSH1 0xB DUP2 SWAP1 SSTORE POP PUSH2 0x21E8 PUSH1 0xC SLOAD DUP3 PUSH1 0x13 SLOAD PUSH2 0x21E0 SWAP2 SWAP1 PUSH2 0x6564 JUMP JUMPDEST PUSH1 0x13 SLOAD PUSH2 0x426C JUMP JUMPDEST PUSH1 0xC DUP2 SWAP1 SSTORE POP DUP2 PUSH1 0x14 SLOAD PUSH2 0x21FC SWAP2 SWAP1 PUSH2 0x6564 JUMP JUMPDEST PUSH1 0x14 DUP2 SWAP1 SSTORE POP DUP1 PUSH1 0x13 SLOAD PUSH2 0x2210 SWAP2 SWAP1 PUSH2 0x6564 JUMP JUMPDEST PUSH1 0x13 DUP2 SWAP1 SSTORE POP DUP4 PUSH1 0x29 SLOAD PUSH2 0x2224 SWAP2 SWAP1 PUSH2 0x6564 JUMP JUMPDEST PUSH1 0x29 DUP2 SWAP1 SSTORE POP PUSH2 0x2234 ADDRESS DUP6 PUSH2 0x4DCC JUMP JUMPDEST PUSH2 0x2261 PUSH1 0x26 PUSH1 0x0 SWAP1 SLOAD SWAP1 PUSH2 0x100 EXP SWAP1 DIV PUSH20 0xFFFFFFFFFFFFFFFFFFFFFFFFFFFFFFFFFFFFFFFF AND DUP5 DUP5 PUSH2 0x4EE6 JUMP JUMPDEST PUSH2 0x228E PUSH1 0x27 PUSH1 0x0 SWAP1 SLOAD SWAP1 PUSH2 0x100 EXP SWAP1 DIV PUSH20 0xFFFFFFFFFFFFFFFFFFFFFFFFFFFFFFFFFFFFFFFF AND DUP5 DUP4 PUSH2 0x4EE6 JUMP JUMPDEST PUSH2 0x2296 PUSH2 0x4D5A JUMP JUMPDEST PUSH1 0x1 PUSH1 0x2F DUP2 SWAP1 SSTORE POP SWAP3 POP SWAP3 SWAP1 POP JUMP JUMPDEST PUSH1 0x1B SLOAD DUP2 JUMP JUMPDEST PUSH1 0x1 PUSH1 0x20 MSTORE DUP1 PUSH1 0x0 MSTORE PUSH1 0x40 PUSH1 0x0 KECCAK256 PUSH1 0x0 SWAP2 POP SWAP1 POP SLOAD DUP2 JUMP JUMPDEST PUSH1 0x12 SLOAD DUP2 JUMP JUMPDEST PUSH1 0x2C SLOAD DUP2 JUMP JUMPDEST PUSH1 0x32 PUSH1 0x20 MSTORE DUP2 PUSH1 0x0 MSTORE PUSH1 0x40 PUSH1 0x0 KECCAK256 PUSH1 0x20 MSTORE DUP1 PUSH1 0x0 MSTORE PUSH1 0x40 PUSH1 0x0 KECCAK256 PUSH1 0x0 SWAP2 POP SWAP2 POP POP DUP1 PUSH1 0x0 ADD PUSH1 0x0 SWAP1 SLOAD SWAP1 PUSH2 0x100 EXP SWAP1 DIV PUSH20 0xFFFFFFFFFFFFFFFFFFFFFFFFFFFFFFFFFFFFFFFF AND SWAP1 DUP1 PUSH1 0x0 ADD PUSH1 0x14 SWAP1 SLOAD SWAP1 PUSH2 0x100 EXP SWAP1 DIV PUSH1 0xFF AND SWAP1 DUP1 PUSH1 0x1 ADD SLOAD SWAP1 DUP1 PUSH1 0x2 ADD SLOAD SWAP1 POP DUP5 JUMP JUMPDEST PUSH1 0x4 PUSH1 0x20 MSTORE DUP1 PUSH1 0x0 MSTORE PUSH1 0x40 PUSH1 0x0 KECCAK256 PUSH1 0x0 SWAP2 POP SWAP1 POP SLOAD DUP2 JUMP JUMPDEST PUSH1 0x22 SLOAD DUP2 JUMP JUMPDEST PUSH1 0xA SLOAD DUP2 JUMP JUMPDEST PUSH1 0x6 SLOAD DUP2 JUMP JUMPDEST PUSH1 0xB SLOAD DUP2 JUMP JUMPDEST PUSH1 0x2A SLOAD DUP2 JUMP JUMPDEST PUSH1 0x0 PUSH1 0x27 PUSH1 0x0 SWAP1 SLOAD SWAP1 PUSH2 0x100 EXP SWAP1 DIV PUSH20 0xFFFFFFFFFFFFFFFFFFFFFFFFFFFFFFFFFFFFFFFF AND PUSH20 0xFFFFFFFFFFFFFFFFFFFFFFFFFFFFFFFFFFFFFFFF AND DUP4 PUSH20 0xFFFFFFFFFFFFFFFFFFFFFFFFFFFFFFFFFFFFFFFF AND EQ DUP1 ISZERO PUSH2 0x23E1 JUMPI POP PUSH1 0x1 ISZERO ISZERO PUSH1 0x2D PUSH1 0x0 SWAP1 SLOAD SWAP1 PUSH2 0x100 EXP SWAP1 DIV PUSH1 0xFF AND ISZERO ISZERO EQ JUMPDEST ISZERO PUSH2 0x253B JUMPI PUSH1 0x30 PUSH1 0x1 PUSH1 0x2 DUP2 LT PUSH2 0x23FB JUMPI PUSH2 0x23FA PUSH2 0x66DB JUMP JUMPDEST JUMPDEST ADD SLOAD PUSH1 0x13 SLOAD DUP5 PUSH20 0xFFFFFFFFFFFFFFFFFFFFFFFFFFFFFFFFFFFFFFFF AND PUSH4 0x70A08231 ADDRESS PUSH1 0x40 MLOAD DUP3 PUSH4 0xFFFFFFFF AND PUSH1 0xE0 SHL DUP2 MSTORE PUSH1 0x4 ADD PUSH2 0x2439 SWAP2 SWAP1 PUSH2 0x5FEF JUMP JUMPDEST PUSH1 0x20 PUSH1 0x40 MLOAD DUP1 DUP4 SUB DUP2 DUP7 DUP1 EXTCODESIZE ISZERO DUP1 ISZERO PUSH2 0x2451 JUMPI PUSH1 0x0 DUP1 REVERT JUMPDEST POP GAS STATICCALL ISZERO DUP1 ISZERO PUSH2 0x2465 JUMPI RETURNDATASIZE PUSH1 0x0 DUP1 RETURNDATACOPY RETURNDATASIZE PUSH1 0x0 REVERT JUMPDEST POP POP POP POP PUSH1 0x40 MLOAD RETURNDATASIZE PUSH1 0x1F NOT PUSH1 0x1F DUP3 ADD AND DUP3 ADD DUP1 PUSH1 0x40 MSTORE POP DUP2 ADD SWAP1 PUSH2 0x2489 SWAP2 SWAP1 PUSH2 0x5C73 JUMP JUMPDEST PUSH2 0x2493 SWAP2 SWAP1 PUSH2 0x6564 JUMP JUMPDEST PUSH2 0x249D SWAP2 SWAP1 PUSH2 0x6564 JUMP JUMPDEST SWAP1 POP DUP1 PUSH1 0x33 PUSH1 0x0 DUP5 PUSH20 0xFFFFFFFFFFFFFFFFFFFFFFFFFFFFFFFFFFFFFFFF AND PUSH20 0xFFFFFFFFFFFFFFFFFFFFFFFFFFFFFFFFFFFFFFFF AND DUP2 MSTORE PUSH1 0x20 ADD SWAP1 DUP2 MSTORE PUSH1 0x20 ADD PUSH1 0x0 KECCAK256 PUSH1 0x1 PUSH1 0x2 DUP2 LT PUSH2 0x24F2 JUMPI PUSH2 0x24F1 PUSH2 0x66DB JUMP JUMPDEST JUMPDEST ADD PUSH1 0x0 DUP3 DUP3 SLOAD PUSH2 0x2502 SWAP2 SWAP1 PUSH2 0x6312 JUMP JUMPDEST SWAP3 POP POP DUP2 SWAP1 SSTORE POP DUP1 PUSH1 0x30 PUSH1 0x1 PUSH1 0x2 DUP2 LT PUSH2 0x251F JUMPI PUSH2 0x251E PUSH2 0x66DB JUMP JUMPDEST JUMPDEST ADD PUSH1 0x0 DUP3 DUP3 SLOAD PUSH2 0x252F SWAP2 SWAP1 PUSH2 0x6312 JUMP JUMPDEST SWAP3 POP POP DUP2 SWAP1 SSTORE POP PUSH2 0x268C JUMP JUMPDEST PUSH1 0x30 PUSH1 0x0 PUSH1 0x2 DUP2 LT PUSH2 0x2550 JUMPI PUSH2 0x254F PUSH2 0x66DB JUMP JUMPDEST JUMPDEST ADD SLOAD PUSH1 0x14 SLOAD DUP5 PUSH20 0xFFFFFFFFFFFFFFFFFFFFFFFFFFFFFFFFFFFFFFFF AND PUSH4 0x70A08231 ADDRESS PUSH1 0x40 MLOAD DUP3 PUSH4 0xFFFFFFFF AND PUSH1 0xE0 SHL DUP2 MSTORE PUSH1 0x4 ADD PUSH2 0x258E SWAP2 SWAP1 PUSH2 0x5FEF JUMP JUMPDEST PUSH1 0x20 PUSH1 0x40 MLOAD DUP1 DUP4 SUB DUP2 DUP7 DUP1 EXTCODESIZE ISZERO DUP1 ISZERO PUSH2 0x25A6 JUMPI PUSH1 0x0 DUP1 REVERT JUMPDEST POP GAS STATICCALL ISZERO DUP1 ISZERO PUSH2 0x25BA JUMPI RETURNDATASIZE PUSH1 0x0 DUP1 RETURNDATACOPY RETURNDATASIZE PUSH1 0x0 REVERT JUMPDEST POP POP POP POP PUSH1 0x40 MLOAD RETURNDATASIZE PUSH1 0x1F NOT PUSH1 0x1F DUP3 ADD AND DUP3 ADD DUP1 PUSH1 0x40 MSTORE POP DUP2 ADD SWAP1 PUSH2 0x25DE SWAP2 SWAP1 PUSH2 0x5C73 JUMP JUMPDEST PUSH2 0x25E8 SWAP2 SWAP1 PUSH2 0x6564 JUMP JUMPDEST PUSH2 0x25F2 SWAP2 SWAP1 PUSH2 0x6564 JUMP JUMPDEST SWAP1 POP DUP1 PUSH1 0x33 PUSH1 0x0 DUP5 PUSH20 0xFFFFFFFFFFFFFFFFFFFFFFFFFFFFFFFFFFFFFFFF AND PUSH20 0xFFFFFFFFFFFFFFFFFFFFFFFFFFFFFFFFFFFFFFFF AND DUP2 MSTORE PUSH1 0x20 ADD SWAP1 DUP2 MSTORE PUSH1 0x20 ADD PUSH1 0x0 KECCAK256 PUSH1 0x0 PUSH1 0x2 DUP2 LT PUSH2 0x2647 JUMPI PUSH2 0x2646 PUSH2 0x66DB JUMP JUMPDEST JUMPDEST ADD PUSH1 0x0 DUP3 DUP3 SLOAD PUSH2 0x2657 SWAP2 SWAP1 PUSH2 0x6312 JUMP JUMPDEST SWAP3 POP POP DUP2 SWAP1 SSTORE POP DUP1 PUSH1 0x30 PUSH1 0x0 PUSH1 0x2 DUP2 LT PUSH2 0x2674 JUMPI PUSH2 0x2673 PUSH2 0x66DB JUMP JUMPDEST JUMPDEST ADD PUSH1 0x0 DUP3 DUP3 SLOAD PUSH2 0x2684 SWAP2 SWAP1 PUSH2 0x6312 JUMP JUMPDEST SWAP3 POP POP DUP2 SWAP1 SSTORE POP JUMPDEST POP POP POP JUMP JUMPDEST PUSH1 0x9 SLOAD DUP2 JUMP JUMPDEST PUSH1 0x1 PUSH1 0x2F SLOAD EQ PUSH2 0x26DC JUMPI PUSH1 0x40 MLOAD PUSH32 0x8C379A000000000000000000000000000000000000000000000000000000000 DUP2 MSTORE PUSH1 0x4 ADD PUSH2 0x26D3 SWAP1 PUSH2 0x6256 JUMP JUMPDEST PUSH1 0x40 MLOAD DUP1 SWAP2 SUB SWAP1 REVERT JUMPDEST PUSH1 0x0 PUSH1 0x2F DUP2 SWAP1 SSTORE POP PUSH1 0x0 DUP4 DUP6 PUSH2 0x26F2 SWAP2 SWAP1 PUSH2 0x650A JUMP JUMPDEST EQ DUP1 ISZERO PUSH2 0x270A JUMPI POP PUSH1 0x0 DUP4 DUP6 PUSH2 0x2708 SWAP2 SWAP1 PUSH2 0x6312 JUMP JUMPDEST GT JUMPDEST PUSH2 0x2713 JUMPI PUSH1 0x0 DUP1 REVERT JUMPDEST PUSH2 0x271B PUSH2 0x3DD2 JUMP JUMPDEST PUSH2 0x276B PUSH2 0x2727 DUP3 PUSH2 0x3C1E JUMP JUMPDEST PUSH1 0x2C SLOAD DUP7 PUSH2 0x2735 SWAP2 SWAP1 PUSH2 0x650A JUMP JUMPDEST PUSH2 0x273F SWAP2 SWAP1 PUSH2 0x6312 JUMP JUMPDEST PUSH2 0x2748 DUP4 PUSH2 0x3C1E JUMP JUMPDEST PUSH2 0x275C DUP7 PUSH1 0x17 SLOAD PUSH1 0xD SLOAD PUSH1 0xE SLOAD PUSH1 0x1 PUSH2 0x4232 JUMP JUMPDEST PUSH2 0x2766 SWAP2 SWAP1 PUSH2 0x6312 JUMP JUMPDEST PUSH2 0x5070 JUMP JUMPDEST PUSH1 0x28 SLOAD PUSH2 0x2777 DUP4 PUSH2 0x3B2A JUMP JUMPDEST PUSH2 0x2780 DUP5 PUSH2 0x3C1E JUMP JUMPDEST PUSH2 0x2789 DUP6 PUSH2 0x3D03 JUMP JUMPDEST PUSH2 0x2793 SWAP2 SWAP1 PUSH2 0x6312 JUMP JUMPDEST PUSH2 0x279D SWAP2 SWAP1 PUSH2 0x6564 JUMP JUMPDEST PUSH2 0x27A7 SWAP2 SWAP1 PUSH2 0x6368 JUMP JUMPDEST GT PUSH2 0x27E7 JUMPI PUSH1 0x40 MLOAD PUSH32 0x8C379A000000000000000000000000000000000000000000000000000000000 DUP2 MSTORE PUSH1 0x4 ADD PUSH2 0x27DE SWAP1 PUSH2 0x6236 JUMP JUMPDEST PUSH1 0x40 MLOAD DUP1 SWAP2 SUB SWAP1 REVERT JUMPDEST PUSH1 0x0 DUP1 PUSH1 0x1 ISZERO ISZERO DUP5 ISZERO ISZERO EQ ISZERO PUSH2 0x2953 JUMPI PUSH1 0x0 DUP7 GT ISZERO PUSH2 0x2815 JUMPI PUSH2 0x280B DUP7 PUSH1 0x1 PUSH2 0x3EFE JUMP JUMPDEST SWAP2 POP DUP6 SWAP1 POP PUSH2 0x2828 JUMP JUMPDEST DUP5 SWAP2 POP PUSH2 0x2825 DUP6 PUSH1 0x0 PUSH1 0x1 PUSH2 0x45C2 JUMP JUMPDEST SWAP1 POP JUMPDEST PUSH2 0x2837 DUP2 PUSH1 0x1B SLOAD PUSH1 0x19 SLOAD PUSH2 0x426C JUMP JUMPDEST PUSH1 0x32 PUSH1 0x0 DUP6 PUSH20 0xFFFFFFFFFFFFFFFFFFFFFFFFFFFFFFFFFFFFFFFF AND PUSH20 0xFFFFFFFFFFFFFFFFFFFFFFFFFFFFFFFFFFFFFFFF AND DUP2 MSTORE PUSH1 0x20 ADD SWAP1 DUP2 MSTORE PUSH1 0x20 ADD PUSH1 0x0 KECCAK256 PUSH1 0x0 DUP1 ISZERO ISZERO ISZERO ISZERO DUP2 MSTORE PUSH1 0x20 ADD SWAP1 DUP2 MSTORE PUSH1 0x20 ADD PUSH1 0x0 KECCAK256 PUSH1 0x1 ADD PUSH1 0x0 DUP3 DUP3 SLOAD PUSH2 0x289D SWAP2 SWAP1 PUSH2 0x6312 JUMP JUMPDEST SWAP3 POP POP DUP2 SWAP1 SSTORE POP DUP2 PUSH1 0x32 PUSH1 0x0 DUP6 PUSH20 0xFFFFFFFFFFFFFFFFFFFFFFFFFFFFFFFFFFFFFFFF AND PUSH20 0xFFFFFFFFFFFFFFFFFFFFFFFFFFFFFFFFFFFFFFFF AND DUP2 MSTORE PUSH1 0x20 ADD SWAP1 DUP2 MSTORE PUSH1 0x20 ADD PUSH1 0x0 KECCAK256 PUSH1 0x0 PUSH1 0x1 ISZERO ISZERO ISZERO ISZERO DUP2 MSTORE PUSH1 0x20 ADD SWAP1 DUP2 MSTORE PUSH1 0x20 ADD PUSH1 0x0 KECCAK256 PUSH1 0x2 ADD PUSH1 0x0 DUP3 DUP3 SLOAD PUSH2 0x290C SWAP2 SWAP1 PUSH2 0x6312 JUMP JUMPDEST SWAP3 POP POP DUP2 SWAP1 SSTORE POP PUSH1 0x1B SLOAD PUSH2 0x2925 DUP3 PUSH1 0x1B SLOAD PUSH1 0x19 SLOAD PUSH2 0x426C JUMP JUMPDEST PUSH2 0x292F SWAP2 SWAP1 PUSH2 0x6312 JUMP JUMPDEST PUSH1 0x1B DUP2 SWAP1 SSTORE POP DUP1 PUSH1 0x19 PUSH1 0x0 DUP3 DUP3 SLOAD PUSH2 0x2947 SWAP2 SWAP1 PUSH2 0x6312 JUMP JUMPDEST SWAP3 POP POP DUP2 SWAP1 SSTORE POP PUSH2 0x2AAB JUMP JUMPDEST PUSH1 0x0 DUP7 GT ISZERO PUSH2 0x2973 JUMPI DUP6 SWAP2 POP PUSH2 0x296C DUP7 PUSH1 0x0 PUSH1 0x1 PUSH2 0x4901 JUMP JUMPDEST SWAP1 POP PUSH2 0x2984 JUMP JUMPDEST PUSH2 0x297E DUP6 PUSH1 0x1 PUSH2 0x428E JUMP JUMPDEST SWAP2 POP DUP5 SWAP1 POP JUMPDEST PUSH2 0x2993 DUP2 PUSH1 0x1C SLOAD PUSH1 0x1A SLOAD PUSH2 0x426C JUMP JUMPDEST PUSH1 0x32 PUSH1 0x0 DUP6 PUSH20 0xFFFFFFFFFFFFFFFFFFFFFFFFFFFFFFFFFFFFFFFF AND PUSH20 0xFFFFFFFFFFFFFFFFFFFFFFFFFFFFFFFFFFFFFFFF AND DUP2 MSTORE PUSH1 0x20 ADD SWAP1 DUP2 MSTORE PUSH1 0x20 ADD PUSH1 0x0 KECCAK256 PUSH1 0x0 PUSH1 0x1 ISZERO ISZERO ISZERO ISZERO DUP2 MSTORE PUSH1 0x20 ADD SWAP1 DUP2 MSTORE PUSH1 0x20 ADD PUSH1 0x0 KECCAK256 PUSH1 0x1 ADD PUSH1 0x0 DUP3 DUP3 SLOAD PUSH2 0x29FA SWAP2 SWAP1 PUSH2 0x6312 JUMP JUMPDEST SWAP3 POP POP DUP2 SWAP1 SSTORE POP DUP2 PUSH1 0x32 PUSH1 0x0 DUP6 PUSH20 0xFFFFFFFFFFFFFFFFFFFFFFFFFFFFFFFFFFFFFFFF AND PUSH20 0xFFFFFFFFFFFFFFFFFFFFFFFFFFFFFFFFFFFFFFFF AND DUP2 MSTORE PUSH1 0x20 ADD SWAP1 DUP2 MSTORE PUSH1 0x20 ADD PUSH1 0x0 KECCAK256 PUSH1 0x0 DUP1 ISZERO ISZERO ISZERO ISZERO DUP2 MSTORE PUSH1 0x20 ADD SWAP1 DUP2 MSTORE PUSH1 0x20 ADD PUSH1 0x0 KECCAK256 PUSH1 0x2 ADD PUSH1 0x0 DUP3 DUP3 SLOAD PUSH2 0x2A68 SWAP2 SWAP1 PUSH2 0x6312 JUMP JUMPDEST SWAP3 POP POP DUP2 SWAP1 SSTORE POP PUSH1 0x1C SLOAD PUSH2 0x2A81 DUP3 PUSH1 0x1C SLOAD PUSH1 0x1A SLOAD PUSH2 0x426C JUMP JUMPDEST PUSH2 0x2A8B SWAP2 SWAP1 PUSH2 0x6312 JUMP JUMPDEST PUSH1 0x1C DUP2 SWAP1 SSTORE POP DUP1 PUSH1 0x1A PUSH1 0x0 DUP3 DUP3 SLOAD PUSH2 0x2AA3 SWAP2 SWAP1 PUSH2 0x6312 JUMP JUMPDEST SWAP3 POP POP DUP2 SWAP1 SSTORE POP JUMPDEST POP POP PUSH1 0x1 PUSH1 0x2F DUP2 SWAP1 SSTORE POP POP POP POP POP JUMP JUMPDEST PUSH1 0x40 MLOAD DUP1 PUSH1 0x40 ADD PUSH1 0x40 MSTORE DUP1 PUSH1 0x6 DUP2 MSTORE PUSH1 0x20 ADD PUSH32 0x554E492D56320000000000000000000000000000000000000000000000000000 DUP2 MSTORE POP DUP2 JUMP JUMPDEST PUSH1 0x28 SLOAD DUP2 JUMP JUMPDEST PUSH1 0x1 PUSH1 0x2F SLOAD EQ PUSH2 0x2B3F JUMPI PUSH1 0x40 MLOAD PUSH32 0x8C379A000000000000000000000000000000000000000000000000000000000 DUP2 MSTORE PUSH1 0x4 ADD PUSH2 0x2B36 SWAP1 PUSH2 0x6256 JUMP JUMPDEST PUSH1 0x40 MLOAD DUP1 SWAP2 SUB SWAP1 REVERT JUMPDEST PUSH1 0x0 PUSH1 0x2F DUP2 SWAP1 SSTORE POP PUSH1 0x0 DUP3 EQ DUP1 PUSH2 0x2B56 JUMPI POP PUSH1 0x0 DUP2 EQ JUMPDEST PUSH2 0x2B5F JUMPI PUSH1 0x0 DUP1 REVERT JUMPDEST PUSH1 0x0 PUSH1 0x14 SLOAD PUSH1 0x26 PUSH1 0x0 SWAP1 SLOAD SWAP1 PUSH2 0x100 EXP SWAP1 DIV PUSH20 0xFFFFFFFFFFFFFFFFFFFFFFFFFFFFFFFFFFFFFFFF AND PUSH20 0xFFFFFFFFFFFFFFFFFFFFFFFFFFFFFFFFFFFFFFFF AND PUSH4 0x70A08231 ADDRESS PUSH1 0x40 MLOAD DUP3 PUSH4 0xFFFFFFFF AND PUSH1 0xE0 SHL DUP2 MSTORE PUSH1 0x4 ADD PUSH2 0x2BBF SWAP2 SWAP1 PUSH2 0x5FEF JUMP JUMPDEST PUSH1 0x20 PUSH1 0x40 MLOAD DUP1 DUP4 SUB DUP2 DUP7 DUP1 EXTCODESIZE ISZERO DUP1 ISZERO PUSH2 0x2BD7 JUMPI PUSH1 0x0 DUP1 REVERT JUMPDEST POP GAS STATICCALL ISZERO DUP1 ISZERO PUSH2 0x2BEB JUMPI RETURNDATASIZE PUSH1 0x0 DUP1 RETURNDATACOPY RETURNDATASIZE PUSH1 0x0 REVERT JUMPDEST POP POP POP POP PUSH1 0x40 MLOAD RETURNDATASIZE PUSH1 0x1F NOT PUSH1 0x1F DUP3 ADD AND DUP3 ADD DUP1 PUSH1 0x40 MSTORE POP DUP2 ADD SWAP1 PUSH2 0x2C0F SWAP2 SWAP1 PUSH2 0x5C73 JUMP JUMPDEST PUSH2 0x2C19 SWAP2 SWAP1 PUSH2 0x6564 JUMP JUMPDEST SWAP1 POP PUSH1 0x0 PUSH1 0x13 SLOAD PUSH1 0x27 PUSH1 0x0 SWAP1 SLOAD SWAP1 PUSH2 0x100 EXP SWAP1 DIV PUSH20 0xFFFFFFFFFFFFFFFFFFFFFFFFFFFFFFFFFFFFFFFF AND PUSH20 0xFFFFFFFFFFFFFFFFFFFFFFFFFFFFFFFFFFFFFFFF AND PUSH4 0x70A08231 ADDRESS PUSH1 0x40 MLOAD DUP3 PUSH4 0xFFFFFFFF AND PUSH1 0xE0 SHL DUP2 MSTORE PUSH1 0x4 ADD PUSH2 0x2C7B SWAP2 SWAP1 PUSH2 0x5FEF JUMP JUMPDEST PUSH1 0x20 PUSH1 0x40 MLOAD DUP1 DUP4 SUB DUP2 DUP7 DUP1 EXTCODESIZE ISZERO DUP1 ISZERO PUSH2 0x2C93 JUMPI PUSH1 0x0 DUP1 REVERT JUMPDEST POP GAS STATICCALL ISZERO DUP1 ISZERO PUSH2 0x2CA7 JUMPI RETURNDATASIZE PUSH1 0x0 DUP1 RETURNDATACOPY RETURNDATASIZE PUSH1 0x0 REVERT JUMPDEST POP POP POP POP PUSH1 0x40 MLOAD RETURNDATASIZE PUSH1 0x1F NOT PUSH1 0x1F DUP3 ADD AND DUP3 ADD DUP1 PUSH1 0x40 MSTORE POP DUP2 ADD SWAP1 PUSH2 0x2CCB SWAP2 SWAP1 PUSH2 0x5C73 JUMP JUMPDEST PUSH2 0x2CD5 SWAP2 SWAP1 PUSH2 0x6564 JUMP JUMPDEST SWAP1 POP PUSH1 0x0 DUP3 GT DUP1 PUSH2 0x2CE6 JUMPI POP PUSH1 0x0 DUP2 GT JUMPDEST PUSH2 0x2CEF JUMPI PUSH1 0x0 DUP1 REVERT JUMPDEST PUSH1 0x0 DUP5 GT ISZERO PUSH2 0x2D6D JUMPI PUSH2 0x2D3B PUSH1 0x27 PUSH1 0x0 SWAP1 SLOAD SWAP1 PUSH2 0x100 EXP SWAP1 DIV PUSH20 0xFFFFFFFFFFFFFFFFFFFFFFFFFFFFFFFFFFFFFFFF AND DUP7 PUSH2 0x2D2B DUP8 DUP6 PUSH1 0x0 PUSH2 0x4901 JUMP JUMPDEST DUP5 PUSH2 0x2D36 SWAP2 SWAP1 PUSH2 0x6564 JUMP JUMPDEST PUSH2 0x4EE6 JUMP JUMPDEST PUSH2 0x2D68 PUSH1 0x26 PUSH1 0x0 SWAP1 SLOAD SWAP1 PUSH2 0x100 EXP SWAP1 DIV PUSH20 0xFFFFFFFFFFFFFFFFFFFFFFFFFFFFFFFFFFFFFFFF AND DUP7 DUP7 PUSH2 0x4EE6 JUMP JUMPDEST PUSH2 0x2E6F JUMP JUMPDEST PUSH1 0x0 DUP4 GT ISZERO PUSH2 0x2DEB JUMPI PUSH2 0x2DB9 PUSH1 0x26 PUSH1 0x0 SWAP1 SLOAD SWAP1 PUSH2 0x100 EXP SWAP1 DIV PUSH20 0xFFFFFFFFFFFFFFFFFFFFFFFFFFFFFFFFFFFFFFFF AND DUP7 PUSH2 0x2DA9 DUP7 DUP7 PUSH1 0x0 PUSH2 0x45C2 JUMP JUMPDEST DUP6 PUSH2 0x2DB4 SWAP2 SWAP1 PUSH2 0x6564 JUMP JUMPDEST PUSH2 0x4EE6 JUMP JUMPDEST PUSH2 0x2DE6 PUSH1 0x27 PUSH1 0x0 SWAP1 SLOAD SWAP1 PUSH2 0x100 EXP SWAP1 DIV PUSH20 0xFFFFFFFFFFFFFFFFFFFFFFFFFFFFFFFFFFFFFFFF AND DUP7 DUP6 PUSH2 0x4EE6 JUMP JUMPDEST PUSH2 0x2E6E JUMP JUMPDEST PUSH1 0x0 DUP3 GT ISZERO PUSH2 0x2E2C JUMPI PUSH2 0x2E2B PUSH1 0x27 PUSH1 0x0 SWAP1 SLOAD SWAP1 PUSH2 0x100 EXP SWAP1 DIV PUSH20 0xFFFFFFFFFFFFFFFFFFFFFFFFFFFFFFFFFFFFFFFF AND DUP7 PUSH2 0x2E26 DUP6 PUSH1 0x0 PUSH2 0x3EFE JUMP JUMPDEST PUSH2 0x4EE6 JUMP JUMPDEST JUMPDEST PUSH1 0x0 DUP2 GT ISZERO PUSH2 0x2E6D JUMPI PUSH2 0x2E6C PUSH1 0x26 PUSH1 0x0 SWAP1 SLOAD SWAP1 PUSH2 0x100 EXP SWAP1 DIV PUSH20 0xFFFFFFFFFFFFFFFFFFFFFFFFFFFFFFFFFFFFFFFF AND DUP7 PUSH2 0x2E67 DUP5 PUSH1 0x0 PUSH2 0x428E JUMP JUMPDEST PUSH2 0x4EE6 JUMP JUMPDEST JUMPDEST JUMPDEST JUMPDEST POP POP PUSH1 0x1 PUSH1 0x2F DUP2 SWAP1 SSTORE POP POP POP POP JUMP JUMPDEST PUSH1 0x10 SLOAD DUP2 JUMP JUMPDEST PUSH1 0x0 PUSH2 0x2E91 CALLER DUP5 DUP5 PUSH2 0x3996 JUMP JUMPDEST PUSH1 0x1 SWAP1 POP SWAP3 SWAP2 POP POP JUMP JUMPDEST PUSH1 0x24 SLOAD DUP2 JUMP JUMPDEST PUSH1 0x27 PUSH1 0x0 SWAP1 SLOAD SWAP1 PUSH2 0x100 EXP SWAP1 DIV PUSH20 0xFFFFFFFFFFFFFFFFFFFFFFFFFFFFFFFFFFFFFFFF AND DUP2 JUMP JUMPDEST PUSH1 0x1 PUSH1 0x2F SLOAD EQ PUSH2 0x2F0C JUMPI PUSH1 0x40 MLOAD PUSH32 0x8C379A000000000000000000000000000000000000000000000000000000000 DUP2 MSTORE PUSH1 0x4 ADD PUSH2 0x2F03 SWAP1 PUSH2 0x6256 JUMP JUMPDEST PUSH1 0x40 MLOAD DUP1 SWAP2 SUB SWAP1 REVERT JUMPDEST PUSH1 0x0 PUSH1 0x2F DUP2 SWAP1 SSTORE POP PUSH2 0x2FFF PUSH1 0x26 PUSH1 0x0 SWAP1 SLOAD SWAP1 PUSH2 0x100 EXP SWAP1 DIV PUSH20 0xFFFFFFFFFFFFFFFFFFFFFFFFFFFFFFFFFFFFFFFF AND DUP3 PUSH2 0x2FFA PUSH1 0x14 SLOAD PUSH1 0x26 PUSH1 0x0 SWAP1 SLOAD SWAP1 PUSH2 0x100 EXP SWAP1 DIV PUSH20 0xFFFFFFFFFFFFFFFFFFFFFFFFFFFFFFFFFFFFFFFF AND PUSH20 0xFFFFFFFFFFFFFFFFFFFFFFFFFFFFFFFFFFFFFFFF AND PUSH4 0x70A08231 ADDRESS PUSH1 0x40 MLOAD DUP3 PUSH4 0xFFFFFFFF AND PUSH1 0xE0 SHL DUP2 MSTORE PUSH1 0x4 ADD PUSH2 0x2F9C SWAP2 SWAP1 PUSH2 0x5FEF JUMP JUMPDEST PUSH1 0x20 PUSH1 0x40 MLOAD DUP1 DUP4 SUB DUP2 DUP7 DUP1 EXTCODESIZE ISZERO DUP1 ISZERO PUSH2 0x2FB4 JUMPI PUSH1 0x0 DUP1 REVERT JUMPDEST POP GAS STATICCALL ISZERO DUP1 ISZERO PUSH2 0x2FC8 JUMPI RETURNDATASIZE PUSH1 0x0 DUP1 RETURNDATACOPY RETURNDATASIZE PUSH1 0x0 REVERT JUMPDEST POP POP POP POP PUSH1 0x40 MLOAD RETURNDATASIZE PUSH1 0x1F NOT PUSH1 0x1F DUP3 ADD AND DUP3 ADD DUP1 PUSH1 0x40 MSTORE POP DUP2 ADD SWAP1 PUSH2 0x2FEC SWAP2 SWAP1 PUSH2 0x5C73 JUMP JUMPDEST PUSH2 0x393D SWAP1 SWAP2 SWAP1 PUSH4 0xFFFFFFFF AND JUMP JUMPDEST PUSH2 0x4EE6 JUMP JUMPDEST PUSH2 0x30EA PUSH1 0x27 PUSH1 0x0 SWAP1 SLOAD SWAP1 PUSH2 0x100 EXP SWAP1 DIV PUSH20 0xFFFFFFFFFFFFFFFFFFFFFFFFFFFFFFFFFFFFFFFF AND DUP3 PUSH2 0x30E5 PUSH1 0x13 SLOAD PUSH1 0x27 PUSH1 0x0 SWAP1 SLOAD SWAP1 PUSH2 0x100 EXP SWAP1 DIV PUSH20 0xFFFFFFFFFFFFFFFFFFFFFFFFFFFFFFFFFFFFFFFF AND PUSH20 0xFFFFFFFFFFFFFFFFFFFFFFFFFFFFFFFFFFFFFFFF AND PUSH4 0x70A08231 ADDRESS PUSH1 0x40 MLOAD DUP3 PUSH4 0xFFFFFFFF AND PUSH1 0xE0 SHL DUP2 MSTORE PUSH1 0x4 ADD PUSH2 0x3087 SWAP2 SWAP1 PUSH2 0x5FEF JUMP JUMPDEST PUSH1 0x20 PUSH1 0x40 MLOAD DUP1 DUP4 SUB DUP2 DUP7 DUP1 EXTCODESIZE ISZERO DUP1 ISZERO PUSH2 0x309F JUMPI PUSH1 0x0 DUP1 REVERT JUMPDEST POP GAS STATICCALL ISZERO DUP1 ISZERO PUSH2 0x30B3 JUMPI RETURNDATASIZE PUSH1 0x0 DUP1 RETURNDATACOPY RETURNDATASIZE PUSH1 0x0 REVERT JUMPDEST POP POP POP POP PUSH1 0x40 MLOAD RETURNDATASIZE PUSH1 0x1F NOT PUSH1 0x1F DUP3 ADD AND DUP3 ADD DUP1 PUSH1 0x40 MSTORE POP DUP2 ADD SWAP1 PUSH2 0x30D7 SWAP2 SWAP1 PUSH2 0x5C73 JUMP JUMPDEST PUSH2 0x393D SWAP1 SWAP2 SWAP1 PUSH4 0xFFFFFFFF AND JUMP JUMPDEST PUSH2 0x4EE6 JUMP JUMPDEST PUSH1 0x1 PUSH1 0x2F DUP2 SWAP1 SSTORE POP POP JUMP JUMPDEST PUSH1 0x1 PUSH1 0x2F SLOAD EQ PUSH2 0x313A JUMPI PUSH1 0x40 MLOAD PUSH32 0x8C379A000000000000000000000000000000000000000000000000000000000 DUP2 MSTORE PUSH1 0x4 ADD PUSH2 0x3131 SWAP1 PUSH2 0x6256 JUMP JUMPDEST PUSH1 0x40 MLOAD DUP1 SWAP2 SUB SWAP1 REVERT JUMPDEST PUSH1 0x0 PUSH1 0x2F DUP2 SWAP1 SSTORE POP PUSH2 0x314B DUP3 PUSH2 0x3B2A JUMP JUMPDEST PUSH2 0x3154 DUP4 PUSH2 0x3C1E JUMP JUMPDEST PUSH2 0x315D DUP5 PUSH2 0x3D03 JUMP JUMPDEST PUSH2 0x3167 SWAP2 SWAP1 PUSH2 0x6312 JUMP JUMPDEST GT ISZERO DUP1 PUSH2 0x31B7 JUMPI POP PUSH1 0x2A SLOAD PUSH2 0x317B DUP4 PUSH2 0x3C1E JUMP JUMPDEST PUSH2 0x3185 SWAP2 SWAP1 PUSH2 0x650A JUMP JUMPDEST PUSH2 0x318E DUP4 PUSH2 0x3B2A JUMP JUMPDEST PUSH2 0x3197 DUP5 PUSH2 0x3C1E JUMP JUMPDEST PUSH2 0x31A0 DUP6 PUSH2 0x3D03 JUMP JUMPDEST PUSH2 0x31AA SWAP2 SWAP1 PUSH2 0x6312 JUMP JUMPDEST PUSH2 0x31B4 SWAP2 SWAP1 PUSH2 0x6564 JUMP JUMPDEST GT ISZERO JUMPDEST PUSH2 0x31C0 JUMPI PUSH1 0x0 DUP1 REVERT JUMPDEST PUSH2 0x324D PUSH1 0x26 PUSH1 0x0 SWAP1 SLOAD SWAP1 PUSH2 0x100 EXP SWAP1 DIV PUSH20 0xFFFFFFFFFFFFFFFFFFFFFFFFFFFFFFFFFFFFFFFF AND DUP3 PUSH1 0x2B SLOAD PUSH1 0x33 PUSH1 0x0 DUP8 PUSH20 0xFFFFFFFFFFFFFFFFFFFFFFFFFFFFFFFFFFFFFFFF AND PUSH20 0xFFFFFFFFFFFFFFFFFFFFFFFFFFFFFFFFFFFFFFFF AND DUP2 MSTORE PUSH1 0x20 ADD SWAP1 DUP2 MSTORE PUSH1 0x20 ADD PUSH1 0x0 KECCAK256 PUSH1 0x0 PUSH1 0x2 DUP2 LT PUSH2 0x323C JUMPI PUSH2 0x323B PUSH2 0x66DB JUMP JUMPDEST JUMPDEST ADD SLOAD PUSH2 0x3248 SWAP2 SWAP1 PUSH2 0x650A JUMP JUMPDEST PUSH2 0x4EE6 JUMP JUMPDEST PUSH2 0x32DA PUSH1 0x27 PUSH1 0x0 SWAP1 SLOAD SWAP1 PUSH2 0x100 EXP SWAP1 DIV PUSH20 0xFFFFFFFFFFFFFFFFFFFFFFFFFFFFFFFFFFFFFFFF AND DUP3 PUSH1 0x2B SLOAD PUSH1 0x33 PUSH1 0x0 DUP8 PUSH20 0xFFFFFFFFFFFFFFFFFFFFFFFFFFFFFFFFFFFFFFFF AND PUSH20 0xFFFFFFFFFFFFFFFFFFFFFFFFFFFFFFFFFFFFFFFF AND DUP2 MSTORE PUSH1 0x20 ADD SWAP1 DUP2 MSTORE PUSH1 0x20 ADD PUSH1 0x0 KECCAK256 PUSH1 0x1 PUSH1 0x2 DUP2 LT PUSH2 0x32C9 JUMPI PUSH2 0x32C8 PUSH2 0x66DB JUMP JUMPDEST JUMPDEST ADD SLOAD PUSH2 0x32D5 SWAP2 SWAP1 PUSH2 0x650A JUMP JUMPDEST PUSH2 0x4EE6 JUMP JUMPDEST PUSH1 0x33 PUSH1 0x0 DUP4 PUSH20 0xFFFFFFFFFFFFFFFFFFFFFFFFFFFFFFFFFFFFFFFF AND PUSH20 0xFFFFFFFFFFFFFFFFFFFFFFFFFFFFFFFFFFFFFFFF AND DUP2 MSTORE PUSH1 0x20 ADD SWAP1 DUP2 MSTORE PUSH1 0x20 ADD PUSH1 0x0 KECCAK256 PUSH1 0x0 PUSH2 0x3325 SWAP2 SWAP1 PUSH2 0x5943 JUMP JUMPDEST PUSH1 0x0 PUSH1 0x32 PUSH1 0x0 DUP5 PUSH20 0xFFFFFFFFFFFFFFFFFFFFFFFFFFFFFFFFFFFFFFFF AND PUSH20 0xFFFFFFFFFFFFFFFFFFFFFFFFFFFFFFFFFFFFFFFF AND DUP2 MSTORE PUSH1 0x20 ADD SWAP1 DUP2 MSTORE PUSH1 0x20 ADD PUSH1 0x0 KECCAK256 PUSH1 0x0 DUP1 ISZERO ISZERO ISZERO ISZERO DUP2 MSTORE PUSH1 0x20 ADD SWAP1 DUP2 MSTORE PUSH1 0x20 ADD PUSH1 0x0 KECCAK256 PUSH1 0x1 ADD DUP2 SWAP1 SSTORE POP PUSH1 0x0 PUSH1 0x32 PUSH1 0x0 DUP5 PUSH20 0xFFFFFFFFFFFFFFFFFFFFFFFFFFFFFFFFFFFFFFFF AND PUSH20 0xFFFFFFFFFFFFFFFFFFFFFFFFFFFFFFFFFFFFFFFF AND DUP2 MSTORE PUSH1 0x20 ADD SWAP1 DUP2 MSTORE PUSH1 0x20 ADD PUSH1 0x0 KECCAK256 PUSH1 0x0 PUSH1 0x1 ISZERO ISZERO ISZERO ISZERO DUP2 MSTORE PUSH1 0x20 ADD SWAP1 DUP2 MSTORE PUSH1 0x20 ADD PUSH1 0x0 KECCAK256 PUSH1 0x1 ADD DUP2 SWAP1 SSTORE POP PUSH2 0x349A PUSH1 0x32 PUSH1 0x0 DUP5 PUSH20 0xFFFFFFFFFFFFFFFFFFFFFFFFFFFFFFFFFFFFFFFF AND PUSH20 0xFFFFFFFFFFFFFFFFFFFFFFFFFFFFFFFFFFFFFFFF AND DUP2 MSTORE PUSH1 0x20 ADD SWAP1 DUP2 MSTORE PUSH1 0x20 ADD PUSH1 0x0 KECCAK256 PUSH1 0x0 DUP1 ISZERO ISZERO ISZERO ISZERO DUP2 MSTORE PUSH1 0x20 ADD SWAP1 DUP2 MSTORE PUSH1 0x20 ADD PUSH1 0x0 KECCAK256 PUSH1 0x2 ADD SLOAD PUSH1 0x32 PUSH1 0x0 DUP6 PUSH20 0xFFFFFFFFFFFFFFFFFFFFFFFFFFFFFFFFFFFFFFFF AND PUSH20 0xFFFFFFFFFFFFFFFFFFFFFFFFFFFFFFFFFFFFFFFF AND DUP2 MSTORE PUSH1 0x20 ADD SWAP1 DUP2 MSTORE PUSH1 0x20 ADD PUSH1 0x0 KECCAK256 PUSH1 0x0 PUSH1 0x1 ISZERO ISZERO ISZERO ISZERO DUP2 MSTORE PUSH1 0x20 ADD SWAP1 DUP2 MSTORE PUSH1 0x20 ADD PUSH1 0x0 KECCAK256 PUSH1 0x2 ADD SLOAD DUP5 PUSH2 0x1113 JUMP JUMPDEST PUSH1 0x1 PUSH1 0x2F DUP2 SWAP1 SSTORE POP POP POP JUMP JUMPDEST PUSH1 0x25 PUSH1 0x0 SWAP1 SLOAD SWAP1 PUSH2 0x100 EXP SWAP1 DIV PUSH20 0xFFFFFFFFFFFFFFFFFFFFFFFFFFFFFFFFFFFFFFFF AND DUP2 JUMP JUMPDEST PUSH1 0x20 PUSH1 0x0 SWAP1 SLOAD SWAP1 PUSH2 0x100 EXP SWAP1 DIV PUSH1 0xFF AND DUP2 JUMP JUMPDEST PUSH1 0x23 SLOAD DUP2 JUMP JUMPDEST PUSH1 0x25 PUSH1 0x0 SWAP1 SLOAD SWAP1 PUSH2 0x100 EXP SWAP1 DIV PUSH20 0xFFFFFFFFFFFFFFFFFFFFFFFFFFFFFFFFFFFFFFFF AND PUSH20 0xFFFFFFFFFFFFFFFFFFFFFFFFFFFFFFFFFFFFFFFF AND CALLER PUSH20 0xFFFFFFFFFFFFFFFFFFFFFFFFFFFFFFFFFFFFFFFF AND EQ PUSH2 0x353F JUMPI PUSH1 0x0 DUP1 REVERT JUMPDEST DUP1 PUSH1 0x28 DUP2 SWAP1 SSTORE POP POP JUMP JUMPDEST PUSH1 0x18 SLOAD DUP2 JUMP JUMPDEST TIMESTAMP DUP5 LT ISZERO PUSH2 0x3592 JUMPI PUSH1 0x40 MLOAD PUSH32 0x8C379A000000000000000000000000000000000000000000000000000000000 DUP2 MSTORE PUSH1 0x4 ADD PUSH2 0x3589 SWAP1 PUSH2 0x61D6 JUMP JUMPDEST PUSH1 0x40 MLOAD DUP1 SWAP2 SUB SWAP1 REVERT JUMPDEST PUSH1 0x0 PUSH1 0x3 SLOAD PUSH32 0x6E71EDAE12B1B97F4D1F60370FEF10105FA2FAAE0126114A169C64845D6126C9 PUSH1 0x0 SHL DUP10 DUP10 DUP10 PUSH1 0x4 PUSH1 0x0 DUP15 PUSH20 0xFFFFFFFFFFFFFFFFFFFFFFFFFFFFFFFFFFFFFFFF AND PUSH20 0xFFFFFFFFFFFFFFFFFFFFFFFFFFFFFFFFFFFFFFFF AND DUP2 MSTORE PUSH1 0x20 ADD SWAP1 DUP2 MSTORE PUSH1 0x20 ADD PUSH1 0x0 KECCAK256 PUSH1 0x0 DUP2 SLOAD DUP1 SWAP3 SWAP2 SWAP1 PUSH2 0x360E SWAP1 PUSH2 0x662A JUMP JUMPDEST SWAP2 SWAP1 POP SSTORE DUP11 PUSH1 0x40 MLOAD PUSH1 0x20 ADD PUSH2 0x3628 SWAP7 SWAP6 SWAP5 SWAP4 SWAP3 SWAP2 SWAP1 PUSH2 0x60AE JUMP JUMPDEST PUSH1 0x40 MLOAD PUSH1 0x20 DUP2 DUP4 SUB SUB DUP2 MSTORE SWAP1 PUSH1 0x40 MSTORE DUP1 MLOAD SWAP1 PUSH1 0x20 ADD KECCAK256 PUSH1 0x40 MLOAD PUSH1 0x20 ADD PUSH2 0x364F SWAP3 SWAP2 SWAP1 PUSH2 0x5FB8 JUMP JUMPDEST PUSH1 0x40 MLOAD PUSH1 0x20 DUP2 DUP4 SUB SUB DUP2 MSTORE SWAP1 PUSH1 0x40 MSTORE DUP1 MLOAD SWAP1 PUSH1 0x20 ADD KECCAK256 SWAP1 POP PUSH1 0x0 PUSH1 0x1 DUP3 DUP7 DUP7 DUP7 PUSH1 0x40 MLOAD PUSH1 0x0 DUP2 MSTORE PUSH1 0x20 ADD PUSH1 0x40 MSTORE PUSH1 0x40 MLOAD PUSH2 0x368C SWAP5 SWAP4 SWAP3 SWAP2 SWAP1 PUSH2 0x610F JUMP JUMPDEST PUSH1 0x20 PUSH1 0x40 MLOAD PUSH1 0x20 DUP2 SUB SWAP1 DUP1 DUP5 SUB SWAP1 DUP6 GAS STATICCALL ISZERO DUP1 ISZERO PUSH2 0x36AE JUMPI RETURNDATASIZE PUSH1 0x0 DUP1 RETURNDATACOPY RETURNDATASIZE PUSH1 0x0 REVERT JUMPDEST POP POP POP PUSH1 0x20 PUSH1 0x40 MLOAD SUB MLOAD SWAP1 POP PUSH1 0x0 PUSH20 0xFFFFFFFFFFFFFFFFFFFFFFFFFFFFFFFFFFFFFFFF AND DUP2 PUSH20 0xFFFFFFFFFFFFFFFFFFFFFFFFFFFFFFFFFFFFFFFF AND EQ ISZERO DUP1 ISZERO PUSH2 0x3722 JUMPI POP DUP9 PUSH20 0xFFFFFFFFFFFFFFFFFFFFFFFFFFFFFFFFFFFFFFFF AND DUP2 PUSH20 0xFFFFFFFFFFFFFFFFFFFFFFFFFFFFFFFFFFFFFFFF AND EQ JUMPDEST PUSH2 0x3761 JUMPI PUSH1 0x40 MLOAD PUSH32 0x8C379A000000000000000000000000000000000000000000000000000000000 DUP2 MSTORE PUSH1 0x4 ADD PUSH2 0x3758 SWAP1 PUSH2 0x6196 JUMP JUMPDEST PUSH1 0x40 MLOAD DUP1 SWAP2 SUB SWAP1 REVERT JUMPDEST PUSH2 0x376C DUP10 DUP10 DUP10 PUSH2 0x3852 JUMP JUMPDEST POP POP POP POP POP POP POP POP POP JUMP JUMPDEST PUSH1 0x2 PUSH1 0x20 MSTORE DUP2 PUSH1 0x0 MSTORE PUSH1 0x40 PUSH1 0x0 KECCAK256 PUSH1 0x20 MSTORE DUP1 PUSH1 0x0 MSTORE PUSH1 0x40 PUSH1 0x0 KECCAK256 PUSH1 0x0 SWAP2 POP SWAP2 POP POP SLOAD DUP2 JUMP JUMPDEST PUSH1 0x2E SLOAD DUP2 JUMP JUMPDEST PUSH1 0xF SLOAD DUP2 JUMP JUMPDEST PUSH1 0x21 SLOAD DUP2 JUMP JUMPDEST PUSH1 0x11 SLOAD DUP2 JUMP JUMPDEST PUSH1 0x2B SLOAD DUP2 JUMP JUMPDEST PUSH1 0x8 SLOAD DUP2 JUMP JUMPDEST PUSH1 0x33 PUSH1 0x20 MSTORE DUP2 PUSH1 0x0 MSTORE PUSH1 0x40 PUSH1 0x0 KECCAK256 DUP2 PUSH1 0x2 DUP2 LT PUSH2 0x37DC JUMPI PUSH1 0x0 DUP1 REVERT JUMPDEST ADD PUSH1 0x0 SWAP2 POP SWAP2 POP POP SLOAD DUP2 JUMP JUMPDEST PUSH1 0xD SLOAD DUP2 JUMP JUMPDEST PUSH1 0x25 PUSH1 0x0 SWAP1 SLOAD SWAP1 PUSH2 0x100 EXP SWAP1 DIV PUSH20 0xFFFFFFFFFFFFFFFFFFFFFFFFFFFFFFFFFFFFFFFF AND PUSH20 0xFFFFFFFFFFFFFFFFFFFFFFFFFFFFFFFFFFFFFFFF AND CALLER PUSH20 0xFFFFFFFFFFFFFFFFFFFFFFFFFFFFFFFFFFFFFFFF AND EQ PUSH2 0x3848 JUMPI PUSH1 0x0 DUP1 REVERT JUMPDEST DUP1 PUSH1 0x2A DUP2 SWAP1 SSTORE POP POP JUMP JUMPDEST DUP1 PUSH1 0x2 PUSH1 0x0 DUP6 PUSH20 0xFFFFFFFFFFFFFFFFFFFFFFFFFFFFFFFFFFFFFFFF AND PUSH20 0xFFFFFFFFFFFFFFFFFFFFFFFFFFFFFFFFFFFFFFFF AND DUP2 MSTORE PUSH1 0x20 ADD SWAP1 DUP2 MSTORE PUSH1 0x20 ADD PUSH1 0x0 KECCAK256 PUSH1 0x0 DUP5 PUSH20 0xFFFFFFFFFFFFFFFFFFFFFFFFFFFFFFFFFFFFFFFF AND PUSH20 0xFFFFFFFFFFFFFFFFFFFFFFFFFFFFFFFFFFFFFFFF AND DUP2 MSTORE PUSH1 0x20 ADD SWAP1 DUP2 MSTORE PUSH1 0x20 ADD PUSH1 0x0 KECCAK256 DUP2 SWAP1 SSTORE POP DUP2 PUSH20 0xFFFFFFFFFFFFFFFFFFFFFFFFFFFFFFFFFFFFFFFF AND DUP4 PUSH20 0xFFFFFFFFFFFFFFFFFFFFFFFFFFFFFFFFFFFFFFFF AND PUSH32 0x8C5BE1E5EBEC7D5BD14F71427D1E84F3DD0314C0F7B2291E5B200AC8C7C3B925 DUP4 PUSH1 0x40 MLOAD PUSH2 0x3930 SWAP2 SWAP1 PUSH2 0x6276 JUMP JUMPDEST PUSH1 0x40 MLOAD DUP1 SWAP2 SUB SWAP1 LOG3 POP POP POP JUMP JUMPDEST PUSH1 0x0 DUP3 DUP3 DUP5 PUSH2 0x394C SWAP2 SWAP1 PUSH2 0x6564 JUMP JUMPDEST SWAP2 POP DUP2 GT ISZERO PUSH2 0x3990 JUMPI PUSH1 0x40 MLOAD PUSH32 0x8C379A000000000000000000000000000000000000000000000000000000000 DUP2 MSTORE PUSH1 0x4 ADD PUSH2 0x3987 SWAP1 PUSH2 0x6176 JUMP JUMPDEST PUSH1 0x40 MLOAD DUP1 SWAP2 SUB SWAP1 REVERT JUMPDEST SWAP3 SWAP2 POP POP JUMP JUMPDEST PUSH2 0x39E8 DUP2 PUSH1 0x1 PUSH1 0x0 DUP7 PUSH20 0xFFFFFFFFFFFFFFFFFFFFFFFFFFFFFFFFFFFFFFFF AND PUSH20 0xFFFFFFFFFFFFFFFFFFFFFFFFFFFFFFFFFFFFFFFF AND DUP2 MSTORE PUSH1 0x20 ADD SWAP1 DUP2 MSTORE PUSH1 0x20 ADD PUSH1 0x0 KECCAK256 SLOAD PUSH2 0x393D SWAP1 SWAP2 SWAP1 PUSH4 0xFFFFFFFF AND JUMP JUMPDEST PUSH1 0x1 PUSH1 0x0 DUP6 PUSH20 0xFFFFFFFFFFFFFFFFFFFFFFFFFFFFFFFFFFFFFFFF AND PUSH20 0xFFFFFFFFFFFFFFFFFFFFFFFFFFFFFFFFFFFFFFFF AND DUP2 MSTORE PUSH1 0x20 ADD SWAP1 DUP2 MSTORE PUSH1 0x20 ADD PUSH1 0x0 KECCAK256 DUP2 SWAP1 SSTORE POP PUSH2 0x3A7D DUP2 PUSH1 0x1 PUSH1 0x0 DUP6 PUSH20 0xFFFFFFFFFFFFFFFFFFFFFFFFFFFFFFFFFFFFFFFF AND PUSH20 0xFFFFFFFFFFFFFFFFFFFFFFFFFFFFFFFFFFFFFFFF AND DUP2 MSTORE PUSH1 0x20 ADD SWAP1 DUP2 MSTORE PUSH1 0x20 ADD PUSH1 0x0 KECCAK256 SLOAD PUSH2 0x5089 SWAP1 SWAP2 SWAP1 PUSH4 0xFFFFFFFF AND JUMP JUMPDEST PUSH1 0x1 PUSH1 0x0 DUP5 PUSH20 0xFFFFFFFFFFFFFFFFFFFFFFFFFFFFFFFFFFFFFFFF AND PUSH20 0xFFFFFFFFFFFFFFFFFFFFFFFFFFFFFFFFFFFFFFFF AND DUP2 MSTORE PUSH1 0x20 ADD SWAP1 DUP2 MSTORE PUSH1 0x20 ADD PUSH1 0x0 KECCAK256 DUP2 SWAP1 SSTORE POP DUP2 PUSH20 0xFFFFFFFFFFFFFFFFFFFFFFFFFFFFFFFFFFFFFFFF AND DUP4 PUSH20 0xFFFFFFFFFFFFFFFFFFFFFFFFFFFFFFFFFFFFFFFF AND PUSH32 0xDDF252AD1BE2C89B69C2B068FC378DAA952BA7F163C4A11628F55A4DF523B3EF DUP4 PUSH1 0x40 MLOAD PUSH2 0x3B1D SWAP2 SWAP1 PUSH2 0x6276 JUMP JUMPDEST PUSH1 0x40 MLOAD DUP1 SWAP2 SUB SWAP1 LOG3 POP POP POP JUMP JUMPDEST PUSH1 0x0 PUSH2 0x3BA6 PUSH2 0x3B9B PUSH1 0x32 PUSH1 0x0 DUP6 PUSH20 0xFFFFFFFFFFFFFFFFFFFFFFFFFFFFFFFFFFFFFFFF AND PUSH20 0xFFFFFFFFFFFFFFFFFFFFFFFFFFFFFFFFFFFFFFFF AND DUP2 MSTORE PUSH1 0x20 ADD SWAP1 DUP2 MSTORE PUSH1 0x20 ADD PUSH1 0x0 KECCAK256 PUSH1 0x0 DUP1 ISZERO ISZERO ISZERO ISZERO DUP2 MSTORE PUSH1 0x20 ADD SWAP1 DUP2 MSTORE PUSH1 0x20 ADD PUSH1 0x0 KECCAK256 PUSH1 0x1 ADD SLOAD PUSH1 0x19 SLOAD PUSH1 0x17 SLOAD PUSH1 0x1B SLOAD PUSH1 0x2C SLOAD PUSH2 0x4232 JUMP JUMPDEST PUSH1 0xD SLOAD PUSH1 0xE SLOAD PUSH2 0x426C JUMP JUMPDEST PUSH2 0x3C0D PUSH1 0x32 PUSH1 0x0 DUP6 PUSH20 0xFFFFFFFFFFFFFFFFFFFFFFFFFFFFFFFFFFFFFFFF AND PUSH20 0xFFFFFFFFFFFFFFFFFFFFFFFFFFFFFFFFFFFFFFFF AND DUP2 MSTORE PUSH1 0x20 ADD SWAP1 DUP2 MSTORE PUSH1 0x20 ADD PUSH1 0x0 KECCAK256 PUSH1 0x0 PUSH1 0x1 ISZERO ISZERO ISZERO ISZERO DUP2 MSTORE PUSH1 0x20 ADD SWAP1 DUP2 MSTORE PUSH1 0x20 ADD PUSH1 0x0 KECCAK256 PUSH1 0x1 ADD SLOAD PUSH1 0x1A SLOAD PUSH1 0x1C SLOAD PUSH2 0x426C JUMP JUMPDEST PUSH2 0x3C17 SWAP2 SWAP1 PUSH2 0x6312 JUMP JUMPDEST SWAP1 POP SWAP2 SWAP1 POP JUMP JUMPDEST PUSH1 0x0 PUSH2 0x3C8D PUSH1 0x32 PUSH1 0x0 DUP5 PUSH20 0xFFFFFFFFFFFFFFFFFFFFFFFFFFFFFFFFFFFFFFFF AND PUSH20 0xFFFFFFFFFFFFFFFFFFFFFFFFFFFFFFFFFFFFFFFF AND DUP2 MSTORE PUSH1 0x20 ADD SWAP1 DUP2 MSTORE PUSH1 0x20 ADD PUSH1 0x0 KECCAK256 PUSH1 0x0 PUSH1 0x1 ISZERO ISZERO ISZERO ISZERO DUP2 MSTORE PUSH1 0x20 ADD SWAP1 DUP2 MSTORE PUSH1 0x20 ADD PUSH1 0x0 KECCAK256 PUSH1 0x2 ADD SLOAD PUSH1 0x17 SLOAD PUSH1 0xD SLOAD PUSH1 0xE SLOAD PUSH1 0x2C SLOAD PUSH2 0x4232 JUMP JUMPDEST PUSH1 0x2C SLOAD PUSH1 0x32 PUSH1 0x0 DUP6 PUSH20 0xFFFFFFFFFFFFFFFFFFFFFFFFFFFFFFFFFFFFFFFF AND PUSH20 0xFFFFFFFFFFFFFFFFFFFFFFFFFFFFFFFFFFFFFFFF AND DUP2 MSTORE PUSH1 0x20 ADD SWAP1 DUP2 MSTORE PUSH1 0x20 ADD PUSH1 0x0 KECCAK256 PUSH1 0x0 DUP1 ISZERO ISZERO ISZERO ISZERO DUP2 MSTORE PUSH1 0x20 ADD SWAP1 DUP2 MSTORE PUSH1 0x20 ADD PUSH1 0x0 KECCAK256 PUSH1 0x2 ADD SLOAD PUSH2 0x3CF2 SWAP2 SWAP1 PUSH2 0x650A JUMP JUMPDEST PUSH2 0x3CFC SWAP2 SWAP1 PUSH2 0x6312 JUMP JUMPDEST SWAP1 POP SWAP2 SWAP1 POP JUMP JUMPDEST PUSH1 0x0 PUSH2 0x3D6D PUSH1 0x33 PUSH1 0x0 DUP5 PUSH20 0xFFFFFFFFFFFFFFFFFFFFFFFFFFFFFFFFFFFFFFFF AND PUSH20 0xFFFFFFFFFFFFFFFFFFFFFFFFFFFFFFFFFFFFFFFF AND DUP2 MSTORE PUSH1 0x20 ADD SWAP1 DUP2 MSTORE PUSH1 0x20 ADD PUSH1 0x0 KECCAK256 PUSH1 0x1 PUSH1 0x2 DUP2 LT PUSH2 0x3D5A JUMPI PUSH2 0x3D59 PUSH2 0x66DB JUMP JUMPDEST JUMPDEST ADD SLOAD PUSH1 0x17 SLOAD PUSH1 0xD SLOAD PUSH1 0xE SLOAD PUSH1 0x2C SLOAD PUSH2 0x4232 JUMP JUMPDEST PUSH1 0x33 PUSH1 0x0 DUP5 PUSH20 0xFFFFFFFFFFFFFFFFFFFFFFFFFFFFFFFFFFFFFFFF AND PUSH20 0xFFFFFFFFFFFFFFFFFFFFFFFFFFFFFFFFFFFFFFFF AND DUP2 MSTORE PUSH1 0x20 ADD SWAP1 DUP2 MSTORE PUSH1 0x20 ADD PUSH1 0x0 KECCAK256 PUSH1 0x0 PUSH1 0x2 DUP2 LT PUSH2 0x3DBF JUMPI PUSH2 0x3DBE PUSH2 0x66DB JUMP JUMPDEST JUMPDEST ADD SLOAD PUSH2 0x3DCB SWAP2 SWAP1 PUSH2 0x6312 JUMP JUMPDEST SWAP1 POP SWAP2 SWAP1 POP JUMP JUMPDEST PUSH1 0x0 DUP1 PUSH2 0x3DDD PUSH2 0x50E2 JUMP JUMPDEST SWAP2 POP SWAP2 POP PUSH1 0x0 PUSH1 0x1F SLOAD NUMBER PUSH2 0x3DF1 SWAP2 SWAP1 PUSH2 0x6564 JUMP JUMPDEST SWAP1 POP NUMBER PUSH1 0x1F DUP2 SWAP1 SSTORE POP PUSH1 0x0 PUSH2 0x3E0D PUSH1 0x17 SLOAD PUSH1 0xD SLOAD PUSH1 0xE SLOAD PUSH2 0x426C JUMP JUMPDEST SWAP1 POP PUSH1 0x0 ISZERO ISZERO PUSH1 0x20 PUSH1 0x0 SWAP1 SLOAD SWAP1 PUSH2 0x100 EXP SWAP1 DIV PUSH1 0xFF AND ISZERO ISZERO EQ ISZERO PUSH2 0x3E8A JUMPI PUSH2 0x3E4C PUSH1 0x19 SLOAD PUSH1 0x1E SLOAD PUSH1 0x2C SLOAD PUSH2 0x3E41 SWAP2 SWAP1 PUSH2 0x6312 JUMP JUMPDEST DUP5 PUSH1 0x2C SLOAD PUSH1 0x1 PUSH2 0x4232 JUMP JUMPDEST PUSH1 0x19 DUP2 SWAP1 SSTORE POP DUP2 PUSH2 0x3E68 PUSH1 0x1E SLOAD PUSH1 0x19 SLOAD DUP5 PUSH1 0x2C SLOAD PUSH1 0x2C SLOAD PUSH2 0x4232 JUMP JUMPDEST PUSH2 0x3E72 SWAP2 SWAP1 PUSH2 0x650A JUMP JUMPDEST PUSH1 0x1A SLOAD PUSH2 0x3E7F SWAP2 SWAP1 PUSH2 0x6564 JUMP JUMPDEST PUSH1 0x1A DUP2 SWAP1 SSTORE POP PUSH2 0x3ED7 JUMP JUMPDEST PUSH2 0x3EAB PUSH1 0x1A SLOAD PUSH1 0x1E SLOAD PUSH1 0x2C SLOAD PUSH2 0x3EA0 SWAP2 SWAP1 PUSH2 0x6312 JUMP JUMPDEST DUP5 PUSH1 0x2C SLOAD PUSH1 0x1 PUSH2 0x4232 JUMP JUMPDEST PUSH1 0x1A DUP2 SWAP1 SSTORE POP PUSH2 0x3EC3 PUSH1 0x1E SLOAD PUSH1 0x1A SLOAD DUP5 DUP5 PUSH1 0x1 PUSH2 0x4232 JUMP JUMPDEST PUSH1 0x19 SLOAD PUSH2 0x3ED0 SWAP2 SWAP1 PUSH2 0x6564 JUMP JUMPDEST PUSH1 0x19 DUP2 SWAP1 SSTORE POP JUMPDEST DUP4 PUSH1 0x1E DUP2 SWAP1 SSTORE POP DUP3 PUSH1 0x20 PUSH1 0x0 PUSH2 0x100 EXP DUP2 SLOAD DUP2 PUSH1 0xFF MUL NOT AND SWAP1 DUP4 ISZERO ISZERO MUL OR SWAP1 SSTORE POP POP POP POP POP JUMP JUMPDEST PUSH1 0x0 PUSH1 0x1 PUSH1 0x2F SLOAD EQ PUSH2 0x3F45 JUMPI PUSH1 0x40 MLOAD PUSH32 0x8C379A000000000000000000000000000000000000000000000000000000000 DUP2 MSTORE PUSH1 0x4 ADD PUSH2 0x3F3C SWAP1 PUSH2 0x6256 JUMP JUMPDEST PUSH1 0x40 MLOAD DUP1 SWAP2 SUB SWAP1 REVERT JUMPDEST PUSH1 0x0 PUSH1 0x2F DUP2 SWAP1 SSTORE POP PUSH1 0x0 DUP4 SWAP1 POP PUSH1 0x0 PUSH1 0x1 SWAP1 POP JUMPDEST PUSH1 0x1 ISZERO ISZERO DUP2 ISZERO ISZERO EQ ISZERO PUSH2 0x4222 JUMPI PUSH1 0x0 PUSH2 0x3F79 PUSH1 0x9 SLOAD PUSH1 0x18 SLOAD PUSH1 0x2C SLOAD PUSH2 0x426C JUMP JUMPDEST SWAP1 POP PUSH1 0x0 PUSH2 0x3F8F PUSH1 0x5 SLOAD PUSH1 0x6 SLOAD PUSH1 0x7 SLOAD DUP6 PUSH2 0x5248 JUMP JUMPDEST SWAP1 POP PUSH2 0x3FA0 DUP3 PUSH1 0xB SLOAD PUSH1 0xE SLOAD PUSH2 0x5348 JUMP JUMPDEST DUP5 GT ISZERO PUSH2 0x4127 JUMPI PUSH2 0x3FB6 PUSH1 0xC SLOAD DUP3 PUSH1 0xD SLOAD PUSH2 0x5348 JUMP JUMPDEST DUP6 PUSH2 0x3FC1 SWAP2 SWAP1 PUSH2 0x6312 JUMP JUMPDEST SWAP5 POP PUSH2 0x3FD2 DUP3 PUSH1 0xB SLOAD PUSH1 0xE SLOAD PUSH2 0x5348 JUMP JUMPDEST DUP5 PUSH2 0x3FDD SWAP2 SWAP1 PUSH2 0x6564 JUMP JUMPDEST SWAP4 POP PUSH1 0x1 ISZERO ISZERO DUP7 ISZERO ISZERO EQ ISZERO PUSH2 0x4018 JUMPI PUSH2 0x3FFB PUSH1 0xC SLOAD DUP3 PUSH1 0xD SLOAD PUSH2 0x5348 JUMP JUMPDEST PUSH1 0xF PUSH1 0x0 DUP3 DUP3 SLOAD PUSH2 0x400C SWAP2 SWAP1 PUSH2 0x6312 JUMP JUMPDEST SWAP3 POP POP DUP2 SWAP1 SSTORE POP PUSH2 0x4067 JUMP JUMPDEST PUSH2 0x4027 DUP3 PUSH1 0xB SLOAD PUSH1 0xE SLOAD PUSH2 0x5348 JUMP JUMPDEST PUSH1 0x14 PUSH1 0x0 DUP3 DUP3 SLOAD PUSH2 0x4038 SWAP2 SWAP1 PUSH2 0x6312 JUMP JUMPDEST SWAP3 POP POP DUP2 SWAP1 SSTORE POP PUSH2 0x404E PUSH1 0xC SLOAD DUP3 PUSH1 0xD SLOAD PUSH2 0x5348 JUMP JUMPDEST PUSH1 0x13 PUSH1 0x0 DUP3 DUP3 SLOAD PUSH2 0x405F SWAP2 SWAP1 PUSH2 0x6564 JUMP JUMPDEST SWAP3 POP POP DUP2 SWAP1 SSTORE POP JUMPDEST PUSH2 0x4076 PUSH1 0xD SLOAD PUSH1 0xA SLOAD DUP4 PUSH2 0x426C JUMP JUMPDEST PUSH1 0xD DUP2 SWAP1 SSTORE POP PUSH2 0x408B PUSH1 0xE SLOAD PUSH1 0x9 SLOAD DUP5 PUSH2 0x426C JUMP JUMPDEST PUSH1 0xE DUP2 SWAP1 SSTORE POP PUSH2 0x40B4 PUSH2 0x40A7 PUSH1 0x5 SLOAD PUSH1 0x6 SLOAD PUSH1 0x7 SLOAD DUP7 DUP7 PUSH2 0x537D JUMP JUMPDEST DUP3 PUSH1 0x9 SLOAD DUP6 PUSH1 0xA SLOAD PUSH2 0x4232 JUMP JUMPDEST PUSH1 0x17 DUP2 SWAP1 SSTORE POP PUSH1 0x9 SLOAD PUSH1 0xB DUP2 SWAP1 SSTORE POP PUSH1 0xA SLOAD PUSH1 0xC DUP2 SWAP1 SSTORE POP PUSH2 0x40E0 PUSH1 0xB SLOAD PUSH1 0xC SLOAD PUSH1 0x7 SLOAD PUSH1 0x17 SLOAD PUSH2 0x5471 JUMP JUMPDEST PUSH1 0x5 DUP2 SWAP1 SSTORE POP PUSH1 0x5 SLOAD PUSH1 0x2C SLOAD PUSH1 0x2 PUSH2 0x40F8 SWAP2 SWAP1 PUSH2 0x650A JUMP JUMPDEST PUSH2 0x4102 SWAP2 SWAP1 PUSH2 0x6564 JUMP JUMPDEST PUSH1 0x6 DUP2 SWAP1 SSTORE POP PUSH2 0x4110 PUSH2 0x4D5A JUMP JUMPDEST PUSH1 0x9 SLOAD PUSH1 0xB DUP2 SWAP1 SSTORE POP PUSH1 0xA SLOAD PUSH1 0xC DUP2 SWAP1 SSTORE POP PUSH2 0x421B JUMP JUMPDEST PUSH1 0xB SLOAD PUSH1 0x15 DUP2 SWAP1 SSTORE POP PUSH1 0xC SLOAD PUSH1 0x16 DUP2 SWAP1 SSTORE POP PUSH2 0x4148 DUP5 PUSH1 0xE SLOAD PUSH1 0x2C SLOAD PUSH2 0x426C JUMP JUMPDEST PUSH1 0xB PUSH1 0x0 DUP3 DUP3 SLOAD PUSH2 0x4159 SWAP2 SWAP1 PUSH2 0x6312 JUMP JUMPDEST SWAP3 POP POP DUP2 SWAP1 SSTORE POP PUSH2 0x4174 PUSH1 0x5 SLOAD PUSH1 0x6 SLOAD PUSH1 0x7 SLOAD PUSH1 0xB SLOAD PUSH2 0x5248 JUMP JUMPDEST PUSH1 0xC DUP2 SWAP1 SSTORE POP PUSH2 0x418B PUSH1 0x16 SLOAD PUSH1 0xC SLOAD PUSH1 0xD SLOAD PUSH2 0x5348 JUMP JUMPDEST DUP6 PUSH2 0x4196 SWAP2 SWAP1 PUSH2 0x6312 JUMP JUMPDEST SWAP5 POP PUSH1 0x1 ISZERO ISZERO DUP7 ISZERO ISZERO EQ ISZERO PUSH2 0x41D3 JUMPI PUSH2 0x41B6 PUSH1 0x16 SLOAD PUSH1 0xC SLOAD PUSH1 0xD SLOAD PUSH2 0x5348 JUMP JUMPDEST PUSH1 0xF PUSH1 0x0 DUP3 DUP3 SLOAD PUSH2 0x41C7 SWAP2 SWAP1 PUSH2 0x6312 JUMP JUMPDEST SWAP3 POP POP DUP2 SWAP1 SSTORE POP PUSH2 0x4216 JUMP JUMPDEST DUP4 PUSH1 0x14 PUSH1 0x0 DUP3 DUP3 SLOAD PUSH2 0x41E5 SWAP2 SWAP1 PUSH2 0x6312 JUMP JUMPDEST SWAP3 POP POP DUP2 SWAP1 SSTORE POP PUSH2 0x41FD PUSH1 0x16 SLOAD PUSH1 0xC SLOAD PUSH1 0xD SLOAD PUSH2 0x5348 JUMP JUMPDEST PUSH1 0x13 PUSH1 0x0 DUP3 DUP3 SLOAD PUSH2 0x420E SWAP2 SWAP1 PUSH2 0x6564 JUMP JUMPDEST SWAP3 POP POP DUP2 SWAP1 SSTORE POP JUMPDEST PUSH1 0x0 SWAP3 POP JUMPDEST POP POP PUSH2 0x3F59 JUMP JUMPDEST POP POP PUSH1 0x1 PUSH1 0x2F DUP2 SWAP1 SSTORE POP SWAP3 SWAP2 POP POP JUMP JUMPDEST PUSH1 0x0 DUP2 DUP4 DUP6 DUP8 DUP10 PUSH2 0x4243 SWAP2 SWAP1 PUSH2 0x650A JUMP JUMPDEST PUSH2 0x424D SWAP2 SWAP1 PUSH2 0x650A JUMP JUMPDEST PUSH2 0x4257 SWAP2 SWAP1 PUSH2 0x6368 JUMP JUMPDEST PUSH2 0x4261 SWAP2 SWAP1 PUSH2 0x6368 JUMP JUMPDEST SWAP1 POP SWAP6 SWAP5 POP POP POP POP POP JUMP JUMPDEST PUSH1 0x0 DUP2 DUP4 DUP6 PUSH2 0x427B SWAP2 SWAP1 PUSH2 0x650A JUMP JUMPDEST PUSH2 0x4285 SWAP2 SWAP1 PUSH2 0x6368 JUMP JUMPDEST SWAP1 POP SWAP4 SWAP3 POP POP POP JUMP JUMPDEST PUSH1 0x0 PUSH1 0x1 PUSH1 0x2F SLOAD EQ PUSH2 0x42D5 JUMPI PUSH1 0x40 MLOAD PUSH32 0x8C379A000000000000000000000000000000000000000000000000000000000 DUP2 MSTORE PUSH1 0x4 ADD PUSH2 0x42CC SWAP1 PUSH2 0x6256 JUMP JUMPDEST PUSH1 0x40 MLOAD DUP1 SWAP2 SUB SWAP1 REVERT JUMPDEST PUSH1 0x0 PUSH1 0x2F DUP2 SWAP1 SSTORE POP PUSH1 0x0 DUP4 SWAP1 POP PUSH1 0x0 PUSH1 0x1 SWAP1 POP JUMPDEST PUSH1 0x1 ISZERO ISZERO DUP2 ISZERO ISZERO EQ ISZERO PUSH2 0x45B2 JUMPI PUSH1 0x0 PUSH2 0x4309 PUSH1 0xA SLOAD PUSH1 0x18 SLOAD PUSH1 0x2C SLOAD PUSH2 0x426C JUMP JUMPDEST SWAP1 POP PUSH1 0x0 PUSH2 0x431F PUSH1 0x5 SLOAD PUSH1 0x6 SLOAD PUSH1 0x7 SLOAD DUP6 PUSH2 0x55AB JUMP JUMPDEST SWAP1 POP PUSH2 0x4330 DUP3 PUSH1 0xC SLOAD PUSH1 0xD SLOAD PUSH2 0x5348 JUMP JUMPDEST DUP5 GT ISZERO PUSH2 0x44B7 JUMPI PUSH2 0x4346 PUSH1 0xB SLOAD DUP3 PUSH1 0xE SLOAD PUSH2 0x5348 JUMP JUMPDEST DUP6 PUSH2 0x4351 SWAP2 SWAP1 PUSH2 0x6312 JUMP JUMPDEST SWAP5 POP PUSH2 0x4362 DUP3 PUSH1 0xC SLOAD PUSH1 0xD SLOAD PUSH2 0x5348 JUMP JUMPDEST DUP5 PUSH2 0x436D SWAP2 SWAP1 PUSH2 0x6564 JUMP JUMPDEST SWAP4 POP PUSH1 0x1 ISZERO ISZERO DUP7 ISZERO ISZERO EQ ISZERO PUSH2 0x43A8 JUMPI PUSH2 0x438B PUSH1 0xB SLOAD DUP3 PUSH1 0xE SLOAD PUSH2 0x5348 JUMP JUMPDEST PUSH1 0x10 PUSH1 0x0 DUP3 DUP3 SLOAD PUSH2 0x439C SWAP2 SWAP1 PUSH2 0x6312 JUMP JUMPDEST SWAP3 POP POP DUP2 SWAP1 SSTORE POP PUSH2 0x43F7 JUMP JUMPDEST PUSH2 0x43B7 PUSH1 0xB SLOAD DUP3 PUSH1 0xE SLOAD PUSH2 0x5348 JUMP JUMPDEST PUSH1 0x14 PUSH1 0x0 DUP3 DUP3 SLOAD PUSH2 0x43C8 SWAP2 SWAP1 PUSH2 0x6564 JUMP JUMPDEST SWAP3 POP POP DUP2 SWAP1 SSTORE POP PUSH2 0x43DE DUP3 PUSH1 0xC SLOAD PUSH1 0xD SLOAD PUSH2 0x5348 JUMP JUMPDEST PUSH1 0x13 PUSH1 0x0 DUP3 DUP3 SLOAD PUSH2 0x43EF SWAP2 SWAP1 PUSH2 0x6312 JUMP JUMPDEST SWAP3 POP POP DUP2 SWAP1 SSTORE POP JUMPDEST PUSH2 0x4406 PUSH1 0xD SLOAD PUSH1 0xA SLOAD DUP5 PUSH2 0x426C JUMP JUMPDEST PUSH1 0xD DUP2 SWAP1 SSTORE POP PUSH2 0x441B PUSH1 0xE SLOAD PUSH1 0x9 SLOAD DUP4 PUSH2 0x426C JUMP JUMPDEST PUSH1 0xE DUP2 SWAP1 SSTORE POP PUSH2 0x4444 PUSH2 0x4437 PUSH1 0x5 SLOAD PUSH1 0x6 SLOAD PUSH1 0x7 SLOAD DUP6 DUP8 PUSH2 0x537D JUMP JUMPDEST DUP4 PUSH1 0x9 SLOAD DUP5 PUSH1 0xA SLOAD PUSH2 0x4232 JUMP JUMPDEST PUSH1 0x17 DUP2 SWAP1 SSTORE POP PUSH1 0x9 SLOAD PUSH1 0xB DUP2 SWAP1 SSTORE POP PUSH1 0xA SLOAD PUSH1 0xC DUP2 SWAP1 SSTORE POP PUSH2 0x4470 PUSH1 0xB SLOAD PUSH1 0xC SLOAD PUSH1 0x7 SLOAD PUSH1 0x17 SLOAD PUSH2 0x5471 JUMP JUMPDEST PUSH1 0x5 DUP2 SWAP1 SSTORE POP PUSH1 0x5 SLOAD PUSH1 0x2C SLOAD PUSH1 0x2 PUSH2 0x4488 SWAP2 SWAP1 PUSH2 0x650A JUMP JUMPDEST PUSH2 0x4492 SWAP2 SWAP1 PUSH2 0x6564 JUMP JUMPDEST PUSH1 0x6 DUP2 SWAP1 SSTORE POP PUSH2 0x44A0 PUSH2 0x4D5A JUMP JUMPDEST PUSH1 0x9 SLOAD PUSH1 0xB DUP2 SWAP1 SSTORE POP PUSH1 0xA SLOAD PUSH1 0xC DUP2 SWAP1 SSTORE POP PUSH2 0x45AB JUMP JUMPDEST PUSH1 0xB SLOAD PUSH1 0x15 DUP2 SWAP1 SSTORE POP PUSH1 0xC SLOAD PUSH1 0x16 DUP2 SWAP1 SSTORE POP PUSH2 0x44D8 DUP5 PUSH1 0xD SLOAD PUSH1 0x2C SLOAD PUSH2 0x426C JUMP JUMPDEST PUSH1 0xC PUSH1 0x0 DUP3 DUP3 SLOAD PUSH2 0x44E9 SWAP2 SWAP1 PUSH2 0x6312 JUMP JUMPDEST SWAP3 POP POP DUP2 SWAP1 SSTORE POP PUSH2 0x4504 PUSH1 0x5 SLOAD PUSH1 0x6 SLOAD PUSH1 0x7 SLOAD PUSH1 0xC SLOAD PUSH2 0x55AB JUMP JUMPDEST PUSH1 0xB DUP2 SWAP1 SSTORE POP PUSH2 0x451B PUSH1 0x15 SLOAD PUSH1 0xB SLOAD PUSH1 0xE SLOAD PUSH2 0x5348 JUMP JUMPDEST DUP6 PUSH2 0x4526 SWAP2 SWAP1 PUSH2 0x6312 JUMP JUMPDEST SWAP5 POP PUSH1 0x1 ISZERO ISZERO DUP7 ISZERO ISZERO EQ ISZERO PUSH2 0x4563 JUMPI PUSH2 0x4546 PUSH1 0x15 SLOAD PUSH1 0xB SLOAD PUSH1 0xE SLOAD PUSH2 0x5348 JUMP JUMPDEST PUSH1 0x10 PUSH1 0x0 DUP3 DUP3 SLOAD PUSH2 0x4557 SWAP2 SWAP1 PUSH2 0x6312 JUMP JUMPDEST SWAP3 POP POP DUP2 SWAP1 SSTORE POP PUSH2 0x45A6 JUMP JUMPDEST DUP4 PUSH1 0x13 PUSH1 0x0 DUP3 DUP3 SLOAD PUSH2 0x4575 SWAP2 SWAP1 PUSH2 0x6312 JUMP JUMPDEST SWAP3 POP POP DUP2 SWAP1 SSTORE POP PUSH2 0x458D PUSH1 0x15 SLOAD PUSH1 0xB SLOAD PUSH1 0xE SLOAD PUSH2 0x5348 JUMP JUMPDEST PUSH1 0x14 PUSH1 0x0 DUP3 DUP3 SLOAD PUSH2 0x459E SWAP2 SWAP1 PUSH2 0x6564 JUMP JUMPDEST SWAP3 POP POP DUP2 SWAP1 SSTORE POP JUMPDEST PUSH1 0x0 SWAP3 POP JUMPDEST POP POP PUSH2 0x42E9 JUMP JUMPDEST POP POP PUSH1 0x1 PUSH1 0x2F DUP2 SWAP1 SSTORE POP SWAP3 SWAP2 POP POP JUMP JUMPDEST PUSH1 0x0 PUSH1 0x1 PUSH1 0x2F SLOAD EQ PUSH2 0x4609 JUMPI PUSH1 0x40 MLOAD PUSH32 0x8C379A000000000000000000000000000000000000000000000000000000000 DUP2 MSTORE PUSH1 0x4 ADD PUSH2 0x4600 SWAP1 PUSH2 0x6256 JUMP JUMPDEST PUSH1 0x40 MLOAD DUP1 SWAP2 SUB SWAP1 REVERT JUMPDEST PUSH1 0x0 PUSH1 0x2F DUP2 SWAP1 SSTORE POP PUSH1 0x0 DUP5 SWAP1 POP PUSH1 0x0 PUSH1 0x1 SWAP1 POP JUMPDEST PUSH1 0x1 ISZERO ISZERO DUP2 ISZERO ISZERO EQ ISZERO PUSH2 0x48D6 JUMPI PUSH1 0x0 PUSH2 0x463D PUSH1 0x9 SLOAD PUSH1 0x18 SLOAD PUSH1 0x2C SLOAD PUSH2 0x426C JUMP JUMPDEST SWAP1 POP PUSH1 0x0 PUSH2 0x4653 PUSH1 0x5 SLOAD PUSH1 0x6 SLOAD PUSH1 0x7 SLOAD DUP6 PUSH2 0x5248 JUMP JUMPDEST SWAP1 POP PUSH2 0x4664 PUSH1 0xC SLOAD DUP3 PUSH1 0xD SLOAD PUSH2 0x5348 JUMP JUMPDEST DUP5 GT ISZERO PUSH2 0x47EB JUMPI PUSH2 0x467A DUP3 PUSH1 0xB SLOAD PUSH1 0xE SLOAD PUSH2 0x5348 JUMP JUMPDEST DUP6 PUSH2 0x4685 SWAP2 SWAP1 PUSH2 0x6312 JUMP JUMPDEST SWAP5 POP PUSH2 0x4696 PUSH1 0xC SLOAD DUP3 PUSH1 0xD SLOAD PUSH2 0x5348 JUMP JUMPDEST DUP5 PUSH2 0x46A1 SWAP2 SWAP1 PUSH2 0x6564 JUMP JUMPDEST SWAP4 POP PUSH1 0x1 ISZERO ISZERO DUP7 ISZERO ISZERO EQ ISZERO PUSH2 0x46DC JUMPI PUSH2 0x46BF PUSH1 0xC SLOAD DUP3 PUSH1 0xD SLOAD PUSH2 0x5348 JUMP JUMPDEST PUSH1 0xF PUSH1 0x0 DUP3 DUP3 SLOAD PUSH2 0x46D0 SWAP2 SWAP1 PUSH2 0x6312 JUMP JUMPDEST SWAP3 POP POP DUP2 SWAP1 SSTORE POP PUSH2 0x472B JUMP JUMPDEST PUSH2 0x46EB DUP3 PUSH1 0xB SLOAD PUSH1 0xE SLOAD PUSH2 0x5348 JUMP JUMPDEST PUSH1 0x14 PUSH1 0x0 DUP3 DUP3 SLOAD PUSH2 0x46FC SWAP2 SWAP1 PUSH2 0x6312 JUMP JUMPDEST SWAP3 POP POP DUP2 SWAP1 SSTORE POP PUSH2 0x4712 PUSH1 0xC SLOAD DUP3 PUSH1 0xD SLOAD PUSH2 0x5348 JUMP JUMPDEST PUSH1 0x13 PUSH1 0x0 DUP3 DUP3 SLOAD PUSH2 0x4723 SWAP2 SWAP1 PUSH2 0x6564 JUMP JUMPDEST SWAP3 POP POP DUP2 SWAP1 SSTORE POP JUMPDEST PUSH2 0x473A PUSH1 0xD SLOAD PUSH1 0xA SLOAD DUP4 PUSH2 0x426C JUMP JUMPDEST PUSH1 0xD DUP2 SWAP1 SSTORE POP PUSH2 0x474F PUSH1 0xE SLOAD PUSH1 0x9 SLOAD DUP5 PUSH2 0x426C JUMP JUMPDEST PUSH1 0xE DUP2 SWAP1 SSTORE POP PUSH2 0x4778 PUSH2 0x476B PUSH1 0x5 SLOAD PUSH1 0x6 SLOAD PUSH1 0x7 SLOAD DUP7 DUP7 PUSH2 0x537D JUMP JUMPDEST DUP3 PUSH1 0x9 SLOAD DUP6 PUSH1 0xA SLOAD PUSH2 0x4232 JUMP JUMPDEST PUSH1 0x17 DUP2 SWAP1 SSTORE POP PUSH1 0x9 SLOAD PUSH1 0xB DUP2 SWAP1 SSTORE POP PUSH1 0xA SLOAD PUSH1 0xC DUP2 SWAP1 SSTORE POP PUSH2 0x47A4 PUSH1 0xB SLOAD PUSH1 0xC SLOAD PUSH1 0x7 SLOAD PUSH1 0x17 SLOAD PUSH2 0x5471 JUMP JUMPDEST PUSH1 0x5 DUP2 SWAP1 SSTORE POP PUSH1 0x5 SLOAD PUSH1 0x2C SLOAD PUSH1 0x2 PUSH2 0x47BC SWAP2 SWAP1 PUSH2 0x650A JUMP JUMPDEST PUSH2 0x47C6 SWAP2 SWAP1 PUSH2 0x6564 JUMP JUMPDEST PUSH1 0x6 DUP2 SWAP1 SSTORE POP PUSH2 0x47D4 PUSH2 0x4D5A JUMP JUMPDEST PUSH1 0x9 SLOAD PUSH1 0xB DUP2 SWAP1 SSTORE POP PUSH1 0xA SLOAD PUSH1 0xC DUP2 SWAP1 SSTORE POP PUSH2 0x48CF JUMP JUMPDEST PUSH1 0xB SLOAD PUSH1 0x15 DUP2 SWAP1 SSTORE POP PUSH1 0xC SLOAD PUSH1 0x16 DUP2 SWAP1 SSTORE POP PUSH2 0x480C DUP5 PUSH1 0xD SLOAD PUSH1 0x2C SLOAD PUSH2 0x426C JUMP JUMPDEST PUSH1 0xC PUSH1 0x0 DUP3 DUP3 SLOAD PUSH2 0x481D SWAP2 SWAP1 PUSH2 0x6564 JUMP JUMPDEST SWAP3 POP POP DUP2 SWAP1 SSTORE POP PUSH2 0x4838 PUSH1 0x5 SLOAD PUSH1 0x6 SLOAD PUSH1 0x7 SLOAD PUSH1 0xC SLOAD PUSH2 0x55AB JUMP JUMPDEST PUSH1 0xB DUP2 SWAP1 SSTORE POP PUSH2 0x484F PUSH1 0xB SLOAD PUSH1 0x15 SLOAD PUSH1 0xE SLOAD PUSH2 0x5348 JUMP JUMPDEST DUP6 PUSH2 0x485A SWAP2 SWAP1 PUSH2 0x6312 JUMP JUMPDEST SWAP5 POP PUSH1 0x1 ISZERO ISZERO DUP7 ISZERO ISZERO EQ ISZERO PUSH2 0x4887 JUMPI DUP4 PUSH1 0xF PUSH1 0x0 DUP3 DUP3 SLOAD PUSH2 0x487B SWAP2 SWAP1 PUSH2 0x6312 JUMP JUMPDEST SWAP3 POP POP DUP2 SWAP1 SSTORE POP PUSH2 0x48CA JUMP JUMPDEST PUSH2 0x4898 PUSH1 0xB SLOAD PUSH1 0x15 SLOAD PUSH1 0xE SLOAD PUSH2 0x5348 JUMP JUMPDEST PUSH1 0x14 PUSH1 0x0 DUP3 DUP3 SLOAD PUSH2 0x48A9 SWAP2 SWAP1 PUSH2 0x6312 JUMP JUMPDEST SWAP3 POP POP DUP2 SWAP1 SSTORE POP DUP4 PUSH1 0x13 PUSH1 0x0 DUP3 DUP3 SLOAD PUSH2 0x48C2 SWAP2 SWAP1 PUSH2 0x6564 JUMP JUMPDEST SWAP3 POP POP DUP2 SWAP1 SSTORE POP JUMPDEST PUSH1 0x0 SWAP3 POP JUMPDEST POP POP PUSH2 0x461D JUMP JUMPDEST PUSH1 0x0 ISZERO ISZERO DUP5 ISZERO ISZERO EQ ISZERO PUSH2 0x48F0 JUMPI DUP3 DUP6 GT PUSH2 0x48EF JUMPI PUSH1 0x0 DUP1 REVERT JUMPDEST JUMPDEST POP POP PUSH1 0x1 PUSH1 0x2F DUP2 SWAP1 SSTORE POP SWAP4 SWAP3 POP POP POP JUMP JUMPDEST PUSH1 0x0 PUSH1 0x1 PUSH1 0x2F SLOAD EQ PUSH2 0x4948 JUMPI PUSH1 0x40 MLOAD PUSH32 0x8C379A000000000000000000000000000000000000000000000000000000000 DUP2 MSTORE PUSH1 0x4 ADD PUSH2 0x493F SWAP1 PUSH2 0x6256 JUMP JUMPDEST PUSH1 0x40 MLOAD DUP1 SWAP2 SUB SWAP1 REVERT JUMPDEST PUSH1 0x0 PUSH1 0x2F DUP2 SWAP1 SSTORE POP PUSH1 0x0 DUP5 SWAP1 POP PUSH1 0x0 PUSH1 0x1 SWAP1 POP JUMPDEST PUSH1 0x1 ISZERO ISZERO DUP2 ISZERO ISZERO EQ ISZERO PUSH2 0x4C15 JUMPI PUSH1 0x0 PUSH2 0x497C PUSH1 0xA SLOAD PUSH1 0x18 SLOAD PUSH1 0x2C SLOAD PUSH2 0x426C JUMP JUMPDEST SWAP1 POP PUSH1 0x0 PUSH2 0x4992 PUSH1 0x5 SLOAD PUSH1 0x6 SLOAD PUSH1 0x7 SLOAD DUP6 PUSH2 0x55AB JUMP JUMPDEST SWAP1 POP PUSH2 0x49A3 PUSH1 0xB SLOAD DUP3 PUSH1 0xE SLOAD PUSH2 0x5348 JUMP JUMPDEST DUP5 GT ISZERO PUSH2 0x4B2A JUMPI PUSH2 0x49B9 DUP3 PUSH1 0xC SLOAD PUSH1 0xD SLOAD PUSH2 0x5348 JUMP JUMPDEST DUP6 PUSH2 0x49C4 SWAP2 SWAP1 PUSH2 0x6312 JUMP JUMPDEST SWAP5 POP PUSH2 0x49D5 PUSH1 0xB SLOAD DUP3 PUSH1 0xE SLOAD PUSH2 0x5348 JUMP JUMPDEST DUP5 PUSH2 0x49E0 SWAP2 SWAP1 PUSH2 0x6564 JUMP JUMPDEST SWAP4 POP PUSH1 0x1 ISZERO ISZERO DUP7 ISZERO ISZERO EQ ISZERO PUSH2 0x4A1B JUMPI PUSH2 0x49FE PUSH1 0xB SLOAD DUP3 PUSH1 0xE SLOAD PUSH2 0x5348 JUMP JUMPDEST PUSH1 0x10 PUSH1 0x0 DUP3 DUP3 SLOAD PUSH2 0x4A0F SWAP2 SWAP1 PUSH2 0x6312 JUMP JUMPDEST SWAP3 POP POP DUP2 SWAP1 SSTORE POP PUSH2 0x4A6A JUMP JUMPDEST PUSH2 0x4A2A DUP3 PUSH1 0xC SLOAD PUSH1 0xD SLOAD PUSH2 0x5348 JUMP JUMPDEST PUSH1 0x13 PUSH1 0x0 DUP3 DUP3 SLOAD PUSH2 0x4A3B SWAP2 SWAP1 PUSH2 0x6312 JUMP JUMPDEST SWAP3 POP POP DUP2 SWAP1 SSTORE POP PUSH2 0x4A51 PUSH1 0xB SLOAD DUP3 PUSH1 0xE SLOAD PUSH2 0x5348 JUMP JUMPDEST PUSH1 0x14 PUSH1 0x0 DUP3 DUP3 SLOAD PUSH2 0x4A62 SWAP2 SWAP1 PUSH2 0x6564 JUMP JUMPDEST SWAP3 POP POP DUP2 SWAP1 SSTORE POP JUMPDEST PUSH2 0x4A79 PUSH1 0xD SLOAD PUSH1 0xA SLOAD DUP5 PUSH2 0x426C JUMP JUMPDEST PUSH1 0xD DUP2 SWAP1 SSTORE POP PUSH2 0x4A8E PUSH1 0xE SLOAD PUSH1 0x9 SLOAD DUP4 PUSH2 0x426C JUMP JUMPDEST PUSH1 0xE DUP2 SWAP1 SSTORE POP PUSH2 0x4AB7 PUSH2 0x4AAA PUSH1 0x5 SLOAD PUSH1 0x6 SLOAD PUSH1 0x7 SLOAD DUP6 DUP8 PUSH2 0x537D JUMP JUMPDEST DUP4 PUSH1 0x9 SLOAD DUP5 PUSH1 0xA SLOAD PUSH2 0x4232 JUMP JUMPDEST PUSH1 0x17 DUP2 SWAP1 SSTORE POP PUSH1 0x9 SLOAD PUSH1 0xB DUP2 SWAP1 SSTORE POP PUSH1 0xA SLOAD PUSH1 0xC DUP2 SWAP1 SSTORE POP PUSH2 0x4AE3 PUSH1 0xB SLOAD PUSH1 0xC SLOAD PUSH1 0x7 SLOAD PUSH1 0x17 SLOAD PUSH2 0x5471 JUMP JUMPDEST PUSH1 0x5 DUP2 SWAP1 SSTORE POP PUSH1 0x5 SLOAD PUSH1 0x2C SLOAD PUSH1 0x2 PUSH2 0x4AFB SWAP2 SWAP1 PUSH2 0x650A JUMP JUMPDEST PUSH2 0x4B05 SWAP2 SWAP1 PUSH2 0x6564 JUMP JUMPDEST PUSH1 0x6 DUP2 SWAP1 SSTORE POP PUSH2 0x4B13 PUSH2 0x4D5A JUMP JUMPDEST PUSH1 0x9 SLOAD PUSH1 0xB DUP2 SWAP1 SSTORE POP PUSH1 0xA SLOAD PUSH1 0xC DUP2 SWAP1 SSTORE POP PUSH2 0x4C0E JUMP JUMPDEST PUSH1 0xB SLOAD PUSH1 0x15 DUP2 SWAP1 SSTORE POP PUSH1 0xC SLOAD PUSH1 0x16 DUP2 SWAP1 SSTORE POP PUSH2 0x4B4B DUP5 PUSH1 0xE SLOAD PUSH1 0x2C SLOAD PUSH2 0x426C JUMP JUMPDEST PUSH1 0xB PUSH1 0x0 DUP3 DUP3 SLOAD PUSH2 0x4B5C SWAP2 SWAP1 PUSH2 0x6564 JUMP JUMPDEST SWAP3 POP POP DUP2 SWAP1 SSTORE POP PUSH2 0x4B77 PUSH1 0x5 SLOAD PUSH1 0x6 SLOAD PUSH1 0x7 SLOAD PUSH1 0xB SLOAD PUSH2 0x5248 JUMP JUMPDEST PUSH1 0xC DUP2 SWAP1 SSTORE POP PUSH2 0x4B8E PUSH1 0xC SLOAD PUSH1 0x16 SLOAD PUSH1 0xD SLOAD PUSH2 0x5348 JUMP JUMPDEST DUP6 PUSH2 0x4B99 SWAP2 SWAP1 PUSH2 0x6312 JUMP JUMPDEST SWAP5 POP PUSH1 0x1 ISZERO ISZERO DUP7 ISZERO ISZERO EQ ISZERO PUSH2 0x4BC6 JUMPI DUP4 PUSH1 0x10 PUSH1 0x0 DUP3 DUP3 SLOAD PUSH2 0x4BBA SWAP2 SWAP1 PUSH2 0x6312 JUMP JUMPDEST SWAP3 POP POP DUP2 SWAP1 SSTORE POP PUSH2 0x4C09 JUMP JUMPDEST PUSH2 0x4BD7 PUSH1 0xC SLOAD PUSH1 0x16 SLOAD PUSH1 0xD SLOAD PUSH2 0x5348 JUMP JUMPDEST PUSH1 0x13 PUSH1 0x0 DUP3 DUP3 SLOAD PUSH2 0x4BE8 SWAP2 SWAP1 PUSH2 0x6312 JUMP JUMPDEST SWAP3 POP POP DUP2 SWAP1 SSTORE POP DUP4 PUSH1 0x14 PUSH1 0x0 DUP3 DUP3 SLOAD PUSH2 0x4C01 SWAP2 SWAP1 PUSH2 0x6564 JUMP JUMPDEST SWAP3 POP POP DUP2 SWAP1 SSTORE POP JUMPDEST PUSH1 0x0 SWAP3 POP JUMPDEST POP POP PUSH2 0x495C JUMP JUMPDEST PUSH1 0x0 ISZERO ISZERO DUP5 ISZERO ISZERO EQ ISZERO PUSH2 0x4C2F JUMPI DUP3 DUP6 GT PUSH2 0x4C2E JUMPI PUSH1 0x0 DUP1 REVERT JUMPDEST JUMPDEST POP POP PUSH1 0x1 PUSH1 0x2F DUP2 SWAP1 SSTORE POP SWAP4 SWAP3 POP POP POP JUMP JUMPDEST PUSH2 0x4C55 DUP2 PUSH1 0x0 SLOAD PUSH2 0x5089 SWAP1 SWAP2 SWAP1 PUSH4 0xFFFFFFFF AND JUMP JUMPDEST PUSH1 0x0 DUP2 SWAP1 SSTORE POP PUSH2 0x4CAD DUP2 PUSH1 0x1 PUSH1 0x0 DUP6 PUSH20 0xFFFFFFFFFFFFFFFFFFFFFFFFFFFFFFFFFFFFFFFF AND PUSH20 0xFFFFFFFFFFFFFFFFFFFFFFFFFFFFFFFFFFFFFFFF AND DUP2 MSTORE PUSH1 0x20 ADD SWAP1 DUP2 MSTORE PUSH1 0x20 ADD PUSH1 0x0 KECCAK256 SLOAD PUSH2 0x5089 SWAP1 SWAP2 SWAP1 PUSH4 0xFFFFFFFF AND JUMP JUMPDEST PUSH1 0x1 PUSH1 0x0 DUP5 PUSH20 0xFFFFFFFFFFFFFFFFFFFFFFFFFFFFFFFFFFFFFFFF AND PUSH20 0xFFFFFFFFFFFFFFFFFFFFFFFFFFFFFFFFFFFFFFFF AND DUP2 MSTORE PUSH1 0x20 ADD SWAP1 DUP2 MSTORE PUSH1 0x20 ADD PUSH1 0x0 KECCAK256 DUP2 SWAP1 SSTORE POP DUP2 PUSH20 0xFFFFFFFFFFFFFFFFFFFFFFFFFFFFFFFFFFFFFFFF AND PUSH1 0x0 PUSH20 0xFFFFFFFFFFFFFFFFFFFFFFFFFFFFFFFFFFFFFFFF AND PUSH32 0xDDF252AD1BE2C89B69C2B068FC378DAA952BA7F163C4A11628F55A4DF523B3EF DUP4 PUSH1 0x40 MLOAD PUSH2 0x4D4E SWAP2 SWAP1 PUSH2 0x6276 JUMP JUMPDEST PUSH1 0x40 MLOAD DUP1 SWAP2 SUB SWAP1 LOG3 POP POP JUMP JUMPDEST PUSH2 0x4D7A PUSH1 0x14 SLOAD PUSH1 0x5 SLOAD PUSH1 0xE SLOAD PUSH1 0x13 SLOAD PUSH1 0x6 SLOAD PUSH1 0xD SLOAD PUSH1 0x12 SLOAD PUSH1 0x11 SLOAD PUSH2 0x56AB JUMP JUMPDEST PUSH1 0x23 DUP2 SWAP1 SSTORE POP PUSH1 0x2C SLOAD PUSH1 0x23 SLOAD PUSH1 0x8 SLOAD PUSH2 0x4D93 SWAP2 SWAP1 PUSH2 0x650A JUMP JUMPDEST PUSH2 0x4D9D SWAP2 SWAP1 PUSH2 0x6368 JUMP JUMPDEST PUSH1 0x7 DUP2 SWAP1 SSTORE POP PUSH1 0x2 PUSH1 0x7 SLOAD PUSH2 0x4DB2 SWAP2 SWAP1 PUSH2 0x6368 JUMP JUMPDEST PUSH1 0x9 DUP2 SWAP1 SSTORE POP PUSH1 0x9 SLOAD PUSH1 0xA DUP2 SWAP1 SSTORE POP PUSH1 0x23 SLOAD PUSH1 0x24 DUP2 SWAP1 SSTORE POP JUMP JUMPDEST PUSH2 0x4E1E DUP2 PUSH1 0x1 PUSH1 0x0 DUP6 PUSH20 0xFFFFFFFFFFFFFFFFFFFFFFFFFFFFFFFFFFFFFFFF AND PUSH20 0xFFFFFFFFFFFFFFFFFFFFFFFFFFFFFFFFFFFFFFFF AND DUP2 MSTORE PUSH1 0x20 ADD SWAP1 DUP2 MSTORE PUSH1 0x20 ADD PUSH1 0x0 KECCAK256 SLOAD PUSH2 0x393D SWAP1 SWAP2 SWAP1 PUSH4 0xFFFFFFFF AND JUMP JUMPDEST PUSH1 0x1 PUSH1 0x0 DUP5 PUSH20 0xFFFFFFFFFFFFFFFFFFFFFFFFFFFFFFFFFFFFFFFF AND PUSH20 0xFFFFFFFFFFFFFFFFFFFFFFFFFFFFFFFFFFFFFFFF AND DUP2 MSTORE PUSH1 0x20 ADD SWAP1 DUP2 MSTORE PUSH1 0x20 ADD PUSH1 0x0 KECCAK256 DUP2 SWAP1 SSTORE POP PUSH2 0x4E76 DUP2 PUSH1 0x0 SLOAD PUSH2 0x393D SWAP1 SWAP2 SWAP1 PUSH4 0xFFFFFFFF AND JUMP JUMPDEST PUSH1 0x0 DUP2 SWAP1 SSTORE POP PUSH1 0x0 PUSH20 0xFFFFFFFFFFFFFFFFFFFFFFFFFFFFFFFFFFFFFFFF AND DUP3 PUSH20 0xFFFFFFFFFFFFFFFFFFFFFFFFFFFFFFFFFFFFFFFF AND PUSH32 0xDDF252AD1BE2C89B69C2B068FC378DAA952BA7F163C4A11628F55A4DF523B3EF DUP4 PUSH1 0x40 MLOAD PUSH2 0x4EDA SWAP2 SWAP1 PUSH2 0x6276 JUMP JUMPDEST PUSH1 0x40 MLOAD DUP1 SWAP2 SUB SWAP1 LOG3 POP POP JUMP JUMPDEST PUSH1 0x0 DUP1 DUP5 PUSH20 0xFFFFFFFFFFFFFFFFFFFFFFFFFFFFFFFFFFFFFFFF AND PUSH1 0x40 MLOAD DUP1 PUSH1 0x40 ADD PUSH1 0x40 MSTORE DUP1 PUSH1 0x19 DUP2 MSTORE PUSH1 0x20 ADD PUSH32 0x7472616E7366657228616464726573732C75696E743235362900000000000000 DUP2 MSTORE POP DUP1 MLOAD SWAP1 PUSH1 0x20 ADD KECCAK256 DUP6 DUP6 PUSH1 0x40 MLOAD PUSH1 0x24 ADD PUSH2 0x4F50 SWAP3 SWAP2 SWAP1 PUSH2 0x604F JUMP JUMPDEST PUSH1 0x40 MLOAD PUSH1 0x20 DUP2 DUP4 SUB SUB DUP2 MSTORE SWAP1 PUSH1 0x40 MSTORE SWAP1 PUSH28 0xFFFFFFFFFFFFFFFFFFFFFFFFFFFFFFFFFFFFFFFFFFFFFFFFFFFFFFFF NOT AND PUSH1 0x20 DUP3 ADD DUP1 MLOAD PUSH28 0xFFFFFFFFFFFFFFFFFFFFFFFFFFFFFFFFFFFFFFFFFFFFFFFFFFFFFFFF DUP4 DUP2 DUP4 AND OR DUP4 MSTORE POP POP POP POP PUSH1 0x40 MLOAD PUSH2 0x4FBA SWAP2 SWAP1 PUSH2 0x5FA1 JUMP JUMPDEST PUSH1 0x0 PUSH1 0x40 MLOAD DUP1 DUP4 SUB DUP2 PUSH1 0x0 DUP7 GAS CALL SWAP2 POP POP RETURNDATASIZE DUP1 PUSH1 0x0 DUP2 EQ PUSH2 0x4FF7 JUMPI PUSH1 0x40 MLOAD SWAP2 POP PUSH1 0x1F NOT PUSH1 0x3F RETURNDATASIZE ADD AND DUP3 ADD PUSH1 0x40 MSTORE RETURNDATASIZE DUP3 MSTORE RETURNDATASIZE PUSH1 0x0 PUSH1 0x20 DUP5 ADD RETURNDATACOPY PUSH2 0x4FFC JUMP JUMPDEST PUSH1 0x60 SWAP2 POP JUMPDEST POP SWAP2 POP SWAP2 POP DUP2 DUP1 ISZERO PUSH2 0x502A JUMPI POP PUSH1 0x0 DUP2 MLOAD EQ DUP1 PUSH2 0x5029 JUMPI POP DUP1 DUP1 PUSH1 0x20 ADD SWAP1 MLOAD DUP2 ADD SWAP1 PUSH2 0x5028 SWAP2 SWAP1 PUSH2 0x5C19 JUMP JUMPDEST JUMPDEST JUMPDEST PUSH2 0x5069 JUMPI PUSH1 0x40 MLOAD PUSH32 0x8C379A000000000000000000000000000000000000000000000000000000000 DUP2 MSTORE PUSH1 0x4 ADD PUSH2 0x5060 SWAP1 PUSH2 0x6216 JUMP JUMPDEST PUSH1 0x40 MLOAD DUP1 SWAP2 SUB SWAP1 REVERT JUMPDEST POP POP POP POP POP JUMP JUMPDEST PUSH1 0x0 DUP2 DUP4 GT PUSH2 0x507F JUMPI DUP2 PUSH2 0x5081 JUMP JUMPDEST DUP3 JUMPDEST SWAP1 POP SWAP3 SWAP2 POP POP JUMP JUMPDEST PUSH1 0x0 DUP3 DUP3 DUP5 PUSH2 0x5098 SWAP2 SWAP1 PUSH2 0x6312 JUMP JUMPDEST SWAP2 POP DUP2 LT ISZERO PUSH2 0x50DC JUMPI PUSH1 0x40 MLOAD PUSH32 0x8C379A000000000000000000000000000000000000000000000000000000000 DUP2 MSTORE PUSH1 0x4 ADD PUSH2 0x50D3 SWAP1 PUSH2 0x61B6 JUMP JUMPDEST PUSH1 0x40 MLOAD DUP1 SWAP2 SUB SWAP1 REVERT JUMPDEST SWAP3 SWAP2 POP POP JUMP JUMPDEST PUSH1 0x0 DUP1 PUSH1 0x0 PUSH2 0x50F8 PUSH1 0x14 SLOAD PUSH1 0xE SLOAD PUSH1 0x2C SLOAD PUSH2 0x426C JUMP JUMPDEST SWAP1 POP PUSH1 0x0 PUSH2 0x510D PUSH1 0x13 SLOAD PUSH1 0xD SLOAD PUSH1 0x2C SLOAD PUSH2 0x426C JUMP JUMPDEST SWAP1 POP PUSH1 0x0 PUSH2 0x511E DUP4 DUP4 PUSH1 0x7 SLOAD PUSH2 0x570B JUMP JUMPDEST SWAP1 POP PUSH1 0x0 DUP2 PUSH1 0x2C SLOAD PUSH1 0x2 PUSH2 0x5132 SWAP2 SWAP1 PUSH2 0x650A JUMP JUMPDEST PUSH2 0x513C SWAP2 SWAP1 PUSH2 0x6564 JUMP JUMPDEST SWAP1 POP PUSH1 0x0 PUSH2 0x515D PUSH2 0x5152 DUP5 DUP5 PUSH1 0x7 SLOAD DUP10 DUP10 PUSH2 0x537D JUMP JUMPDEST PUSH1 0xD SLOAD PUSH1 0xE SLOAD PUSH2 0x426C JUMP JUMPDEST SWAP1 POP PUSH1 0x0 PUSH2 0x5186 PUSH2 0x517B PUSH1 0x5 SLOAD PUSH1 0x6 SLOAD PUSH1 0x7 SLOAD PUSH1 0xB SLOAD PUSH1 0xC SLOAD PUSH2 0x537D JUMP JUMPDEST PUSH1 0xD SLOAD PUSH1 0xE SLOAD PUSH2 0x426C JUMP JUMPDEST SWAP1 POP DUP2 DUP2 GT ISZERO PUSH2 0x51D4 JUMPI PUSH1 0x0 PUSH2 0x51A3 PUSH1 0xF SLOAD PUSH1 0x13 SLOAD PUSH1 0x22 SLOAD PUSH2 0x578F JUMP JUMPDEST SWAP1 POP DUP1 PUSH2 0x1680 PUSH2 0x51B4 DUP5 DUP7 DUP8 PUSH2 0x5348 JUMP JUMPDEST PUSH2 0x51BE SWAP2 SWAP1 PUSH2 0x6368 JUMP JUMPDEST PUSH2 0x51C8 SWAP2 SWAP1 PUSH2 0x6312 JUMP JUMPDEST SWAP9 POP PUSH1 0x0 SWAP8 POP POP PUSH2 0x5214 JUMP JUMPDEST PUSH1 0x0 PUSH2 0x51E7 PUSH1 0x10 SLOAD PUSH1 0x14 SLOAD PUSH1 0x22 SLOAD PUSH2 0x578F JUMP JUMPDEST SWAP1 POP DUP1 PUSH2 0x1680 PUSH2 0x51F8 DUP6 DUP6 DUP8 PUSH2 0x5348 JUMP JUMPDEST PUSH2 0x5202 SWAP2 SWAP1 PUSH2 0x6368 JUMP JUMPDEST PUSH2 0x520C SWAP2 SWAP1 PUSH2 0x6312 JUMP JUMPDEST SWAP9 POP PUSH1 0x1 SWAP8 POP POP JUMPDEST PUSH1 0x21 SLOAD PUSH2 0x780 DUP10 PUSH2 0x5225 SWAP2 SWAP1 PUSH2 0x650A JUMP JUMPDEST GT ISZERO PUSH2 0x523E JUMPI PUSH2 0x780 PUSH1 0x21 SLOAD PUSH2 0x523B SWAP2 SWAP1 PUSH2 0x6368 JUMP JUMPDEST SWAP8 POP JUMPDEST POP POP POP POP POP POP SWAP1 SWAP2 JUMP JUMPDEST PUSH1 0x0 DUP2 DUP5 PUSH1 0x8 PUSH2 0x5258 SWAP2 SWAP1 PUSH2 0x650A JUMP JUMPDEST PUSH2 0x5262 SWAP2 SWAP1 PUSH2 0x650A JUMP JUMPDEST PUSH2 0x52FB PUSH8 0xDE0B6B3A7640000 DUP6 DUP7 DUP8 PUSH2 0x527B SWAP2 SWAP1 PUSH2 0x650A JUMP JUMPDEST PUSH2 0x5285 SWAP2 SWAP1 PUSH2 0x650A JUMP JUMPDEST PUSH1 0x0 PUSH2 0x5291 SWAP2 SWAP1 PUSH2 0x6564 JUMP JUMPDEST DUP6 DUP9 PUSH1 0x10 PUSH2 0x529F SWAP2 SWAP1 PUSH2 0x650A JUMP JUMPDEST PUSH2 0x52A9 SWAP2 SWAP1 PUSH2 0x650A JUMP JUMPDEST PUSH2 0x52B3 SWAP2 SWAP1 PUSH2 0x650A JUMP JUMPDEST PUSH2 0x52BD SWAP2 SWAP1 PUSH2 0x650A JUMP JUMPDEST PUSH1 0x2 DUP6 DUP7 DUP11 PUSH1 0x4 PUSH2 0x52CE SWAP2 SWAP1 PUSH2 0x650A JUMP JUMPDEST PUSH2 0x52D8 SWAP2 SWAP1 PUSH2 0x650A JUMP JUMPDEST PUSH2 0x52E2 SWAP2 SWAP1 PUSH2 0x650A JUMP JUMPDEST PUSH2 0x52EC SWAP2 SWAP1 PUSH2 0x63EC JUMP JUMPDEST PUSH2 0x52F6 SWAP2 SWAP1 PUSH2 0x6564 JUMP JUMPDEST PUSH2 0x57DC JUMP JUMPDEST DUP4 DUP5 DUP9 PUSH1 0x4 PUSH2 0x530A SWAP2 SWAP1 PUSH2 0x650A JUMP JUMPDEST PUSH2 0x5314 SWAP2 SWAP1 PUSH2 0x650A JUMP JUMPDEST PUSH2 0x531E SWAP2 SWAP1 PUSH2 0x650A JUMP JUMPDEST PUSH1 0x0 PUSH2 0x532A SWAP2 SWAP1 PUSH2 0x6564 JUMP JUMPDEST PUSH2 0x5334 SWAP2 SWAP1 PUSH2 0x6312 JUMP JUMPDEST PUSH2 0x533E SWAP2 SWAP1 PUSH2 0x6368 JUMP JUMPDEST SWAP1 POP SWAP5 SWAP4 POP POP POP POP JUMP JUMPDEST PUSH1 0x0 DUP2 PUSH8 0xDE0B6B3A7640000 DUP5 DUP7 PUSH2 0x5360 SWAP2 SWAP1 PUSH2 0x6564 JUMP JUMPDEST PUSH2 0x536A SWAP2 SWAP1 PUSH2 0x650A JUMP JUMPDEST PUSH2 0x5374 SWAP2 SWAP1 PUSH2 0x6368 JUMP JUMPDEST SWAP1 POP SWAP4 SWAP3 POP POP POP JUMP JUMPDEST PUSH1 0x0 DUP2 DUP5 DUP6 DUP7 PUSH2 0x538D SWAP2 SWAP1 PUSH2 0x650A JUMP JUMPDEST PUSH2 0x5397 SWAP2 SWAP1 PUSH2 0x650A JUMP JUMPDEST PUSH2 0x53A1 SWAP2 SWAP1 PUSH2 0x650A JUMP JUMPDEST DUP3 DUP4 DUP6 DUP7 DUP11 PUSH1 0x4 PUSH2 0x53B2 SWAP2 SWAP1 PUSH2 0x650A JUMP JUMPDEST PUSH2 0x53BC SWAP2 SWAP1 PUSH2 0x650A JUMP JUMPDEST PUSH2 0x53C6 SWAP2 SWAP1 PUSH2 0x650A JUMP JUMPDEST PUSH2 0x53D0 SWAP2 SWAP1 PUSH2 0x650A JUMP JUMPDEST PUSH2 0x53DA SWAP2 SWAP1 PUSH2 0x650A JUMP JUMPDEST PUSH2 0x53E4 SWAP2 SWAP1 PUSH2 0x6312 JUMP JUMPDEST PUSH8 0xDE0B6B3A7640000 DUP5 DUP7 DUP8 DUP9 PUSH2 0x53FB SWAP2 SWAP1 PUSH2 0x650A JUMP JUMPDEST PUSH2 0x5405 SWAP2 SWAP1 PUSH2 0x650A JUMP JUMPDEST PUSH2 0x540F SWAP2 SWAP1 PUSH2 0x650A JUMP JUMPDEST DUP5 DUP6 DUP8 DUP9 DUP12 PUSH1 0x4 PUSH2 0x5420 SWAP2 SWAP1 PUSH2 0x650A JUMP JUMPDEST PUSH2 0x542A SWAP2 SWAP1 PUSH2 0x650A JUMP JUMPDEST PUSH2 0x5434 SWAP2 SWAP1 PUSH2 0x650A JUMP JUMPDEST PUSH2 0x543E SWAP2 SWAP1 PUSH2 0x650A JUMP JUMPDEST PUSH2 0x5448 SWAP2 SWAP1 PUSH2 0x650A JUMP JUMPDEST PUSH2 0x5452 SWAP2 SWAP1 PUSH2 0x6312 JUMP JUMPDEST PUSH2 0x545C SWAP2 SWAP1 PUSH2 0x650A JUMP JUMPDEST PUSH2 0x5466 SWAP2 SWAP1 PUSH2 0x6368 JUMP JUMPDEST SWAP1 POP SWAP6 SWAP5 POP POP POP POP POP JUMP JUMPDEST PUSH1 0x0 DUP2 PUSH8 0xDE0B6B3A7640000 PUSH2 0x5487 SWAP2 SWAP1 PUSH2 0x6312 JUMP JUMPDEST DUP5 DUP6 DUP8 DUP9 PUSH1 0x4 PUSH2 0x5497 SWAP2 SWAP1 PUSH2 0x650A JUMP JUMPDEST PUSH2 0x54A1 SWAP2 SWAP1 PUSH2 0x650A JUMP JUMPDEST PUSH2 0x54AB SWAP2 SWAP1 PUSH2 0x650A JUMP JUMPDEST PUSH2 0x54B5 SWAP2 SWAP1 PUSH2 0x650A JUMP JUMPDEST PUSH2 0x54BF SWAP2 SWAP1 PUSH2 0x650A JUMP JUMPDEST PUSH8 0xDE0B6B3A7640000 DUP4 DUP7 DUP7 DUP8 DUP9 PUSH2 0x54D7 SWAP2 SWAP1 PUSH2 0x650A JUMP JUMPDEST PUSH2 0x54E1 SWAP2 SWAP1 PUSH2 0x650A JUMP JUMPDEST PUSH2 0x54EB SWAP2 SWAP1 PUSH2 0x650A JUMP JUMPDEST PUSH2 0x54F5 SWAP2 SWAP1 PUSH2 0x650A JUMP JUMPDEST PUSH2 0x54FF SWAP2 SWAP1 PUSH2 0x650A JUMP JUMPDEST PUSH15 0xC097CE7BC90715B34B9F1000000000 DUP8 DUP7 DUP8 DUP9 PUSH2 0x551D SWAP2 SWAP1 PUSH2 0x650A JUMP JUMPDEST PUSH2 0x5527 SWAP2 SWAP1 PUSH2 0x650A JUMP JUMPDEST PUSH2 0x5531 SWAP2 SWAP1 PUSH2 0x650A JUMP JUMPDEST PUSH2 0x553B SWAP2 SWAP1 PUSH2 0x650A JUMP JUMPDEST PUSH15 0xC097CE7BC90715B34B9F1000000000 DUP8 DUP9 DUP11 DUP12 PUSH1 0x8 PUSH2 0x555B SWAP2 SWAP1 PUSH2 0x650A JUMP JUMPDEST PUSH2 0x5565 SWAP2 SWAP1 PUSH2 0x650A JUMP JUMPDEST PUSH2 0x556F SWAP2 SWAP1 PUSH2 0x650A JUMP JUMPDEST PUSH2 0x5579 SWAP2 SWAP1 PUSH2 0x650A JUMP JUMPDEST PUSH2 0x5583 SWAP2 SWAP1 PUSH2 0x650A JUMP JUMPDEST PUSH2 0x558D SWAP2 SWAP1 PUSH2 0x6312 JUMP JUMPDEST PUSH2 0x5597 SWAP2 SWAP1 PUSH2 0x6564 JUMP JUMPDEST PUSH2 0x55A1 SWAP2 SWAP1 PUSH2 0x6368 JUMP JUMPDEST SWAP1 POP SWAP5 SWAP4 POP POP POP POP JUMP JUMPDEST PUSH1 0x0 DUP2 DUP6 PUSH1 0x8 PUSH2 0x55BB SWAP2 SWAP1 PUSH2 0x650A JUMP JUMPDEST PUSH2 0x55C5 SWAP2 SWAP1 PUSH2 0x650A JUMP JUMPDEST PUSH2 0x565E PUSH8 0xDE0B6B3A7640000 DUP6 DUP7 DUP8 PUSH2 0x55DE SWAP2 SWAP1 PUSH2 0x650A JUMP JUMPDEST PUSH2 0x55E8 SWAP2 SWAP1 PUSH2 0x650A JUMP JUMPDEST PUSH1 0x0 PUSH2 0x55F4 SWAP2 SWAP1 PUSH2 0x6564 JUMP JUMPDEST DUP6 DUP10 PUSH1 0x10 PUSH2 0x5602 SWAP2 SWAP1 PUSH2 0x650A JUMP JUMPDEST PUSH2 0x560C SWAP2 SWAP1 PUSH2 0x650A JUMP JUMPDEST PUSH2 0x5616 SWAP2 SWAP1 PUSH2 0x650A JUMP JUMPDEST PUSH2 0x5620 SWAP2 SWAP1 PUSH2 0x650A JUMP JUMPDEST PUSH1 0x2 DUP6 DUP7 DUP10 PUSH1 0x4 PUSH2 0x5631 SWAP2 SWAP1 PUSH2 0x650A JUMP JUMPDEST PUSH2 0x563B SWAP2 SWAP1 PUSH2 0x650A JUMP JUMPDEST PUSH2 0x5645 SWAP2 SWAP1 PUSH2 0x650A JUMP JUMPDEST PUSH2 0x564F SWAP2 SWAP1 PUSH2 0x63EC JUMP JUMPDEST PUSH2 0x5659 SWAP2 SWAP1 PUSH2 0x6564 JUMP JUMPDEST PUSH2 0x57DC JUMP JUMPDEST DUP4 DUP5 DUP8 PUSH1 0x4 PUSH2 0x566D SWAP2 SWAP1 PUSH2 0x650A JUMP JUMPDEST PUSH2 0x5677 SWAP2 SWAP1 PUSH2 0x650A JUMP JUMPDEST PUSH2 0x5681 SWAP2 SWAP1 PUSH2 0x650A JUMP JUMPDEST PUSH1 0x0 PUSH2 0x568D SWAP2 SWAP1 PUSH2 0x6564 JUMP JUMPDEST PUSH2 0x5697 SWAP2 SWAP1 PUSH2 0x6312 JUMP JUMPDEST PUSH2 0x56A1 SWAP2 SWAP1 PUSH2 0x6368 JUMP JUMPDEST SWAP1 POP SWAP5 SWAP4 POP POP POP POP JUMP JUMPDEST PUSH1 0x0 PUSH2 0x56FD PUSH2 0x56BE DUP5 DUP11 DUP11 DUP7 DUP11 DUP11 PUSH2 0x5856 JUMP JUMPDEST PUSH23 0xA70C3C40A64E6C51999090B65F67D9240000000000000 PUSH2 0x56E4 DUP13 DUP13 DUP13 DUP13 DUP13 DUP13 PUSH2 0x5856 JUMP JUMPDEST PUSH2 0x56EE SWAP2 SWAP1 PUSH2 0x650A JUMP JUMPDEST PUSH2 0x56F8 SWAP2 SWAP1 PUSH2 0x6368 JUMP JUMPDEST PUSH2 0x58B2 JUMP JUMPDEST SWAP1 POP SWAP9 SWAP8 POP POP POP POP POP POP POP POP JUMP JUMPDEST PUSH1 0x0 DUP3 DUP5 PUSH2 0x5719 SWAP2 SWAP1 PUSH2 0x6564 JUMP JUMPDEST PUSH8 0xDE0B6B3A7640000 DUP5 PUSH1 0x2 PUSH2 0x572F SWAP2 SWAP1 PUSH2 0x650A JUMP JUMPDEST DUP6 DUP8 PUSH1 0x4 DUP8 DUP9 DUP10 PUSH2 0x5740 SWAP2 SWAP1 PUSH2 0x650A JUMP JUMPDEST PUSH2 0x574A SWAP2 SWAP1 PUSH2 0x650A JUMP JUMPDEST PUSH2 0x5754 SWAP2 SWAP1 PUSH2 0x6368 JUMP JUMPDEST PUSH2 0x575E SWAP2 SWAP1 PUSH2 0x6368 JUMP JUMPDEST PUSH2 0x5768 SWAP2 SWAP1 PUSH2 0x6368 JUMP JUMPDEST PUSH2 0x5772 SWAP2 SWAP1 PUSH2 0x6564 JUMP JUMPDEST PUSH2 0x577C SWAP2 SWAP1 PUSH2 0x650A JUMP JUMPDEST PUSH2 0x5786 SWAP2 SWAP1 PUSH2 0x6368 JUMP JUMPDEST SWAP1 POP SWAP4 SWAP3 POP POP POP JUMP JUMPDEST PUSH1 0x0 DUP2 PUSH2 0xE100 DUP6 DUP6 PUSH2 0x57A1 SWAP2 SWAP1 PUSH2 0x6312 JUMP JUMPDEST PUSH8 0xDE0B6B3A7640000 DUP8 PUSH2 0x57B5 SWAP2 SWAP1 PUSH2 0x650A JUMP JUMPDEST PUSH2 0x57BF SWAP2 SWAP1 PUSH2 0x6368 JUMP JUMPDEST PUSH2 0x57C9 SWAP2 SWAP1 PUSH2 0x6368 JUMP JUMPDEST PUSH2 0x57D3 SWAP2 SWAP1 PUSH2 0x6312 JUMP JUMPDEST SWAP1 POP SWAP4 SWAP3 POP POP POP JUMP JUMPDEST PUSH1 0x0 PUSH1 0x3 DUP3 GT ISZERO PUSH2 0x5843 JUMPI DUP2 SWAP1 POP PUSH1 0x0 PUSH1 0x1 PUSH1 0x2 DUP5 PUSH2 0x57FB SWAP2 SWAP1 PUSH2 0x6368 JUMP JUMPDEST PUSH2 0x5805 SWAP2 SWAP1 PUSH2 0x6312 JUMP JUMPDEST SWAP1 POP JUMPDEST DUP2 DUP2 LT ISZERO PUSH2 0x583D JUMPI DUP1 SWAP2 POP PUSH1 0x2 DUP2 DUP3 DUP6 PUSH2 0x5822 SWAP2 SWAP1 PUSH2 0x6368 JUMP JUMPDEST PUSH2 0x582C SWAP2 SWAP1 PUSH2 0x6312 JUMP JUMPDEST PUSH2 0x5836 SWAP2 SWAP1 PUSH2 0x6368 JUMP JUMPDEST SWAP1 POP PUSH2 0x5808 JUMP JUMPDEST POP PUSH2 0x5851 JUMP JUMPDEST PUSH1 0x0 DUP3 EQ PUSH2 0x5850 JUMPI PUSH1 0x1 SWAP1 POP JUMPDEST JUMPDEST SWAP2 SWAP1 POP JUMP JUMPDEST PUSH1 0x0 DUP4 DUP8 DUP4 DUP6 DUP8 PUSH2 0x5867 SWAP2 SWAP1 PUSH2 0x650A JUMP JUMPDEST PUSH2 0x5871 SWAP2 SWAP1 PUSH2 0x650A JUMP JUMPDEST DUP8 DUP10 DUP12 PUSH2 0x587E SWAP2 SWAP1 PUSH2 0x650A JUMP JUMPDEST PUSH2 0x5888 SWAP2 SWAP1 PUSH2 0x650A JUMP JUMPDEST PUSH2 0x5892 SWAP2 SWAP1 PUSH2 0x6312 JUMP JUMPDEST PUSH2 0x589C SWAP2 SWAP1 PUSH2 0x650A JUMP JUMPDEST PUSH2 0x58A6 SWAP2 SWAP1 PUSH2 0x650A JUMP JUMPDEST SWAP1 POP SWAP7 SWAP6 POP POP POP POP POP POP JUMP JUMPDEST PUSH1 0x0 PUSH1 0x8 DUP3 GT ISZERO PUSH2 0x5930 JUMPI DUP2 SWAP1 POP PUSH1 0x0 PUSH1 0x1 PUSH1 0x3 DUP5 PUSH2 0x58D1 SWAP2 SWAP1 PUSH2 0x6368 JUMP JUMPDEST PUSH2 0x58DB SWAP2 SWAP1 PUSH2 0x6312 JUMP JUMPDEST SWAP1 POP JUMPDEST DUP2 DUP2 LT ISZERO PUSH2 0x592A JUMPI DUP1 SWAP2 POP PUSH1 0x3 DUP2 PUSH1 0x2 PUSH2 0x58F8 SWAP2 SWAP1 PUSH2 0x650A JUMP JUMPDEST DUP3 DUP4 PUSH2 0x5904 SWAP2 SWAP1 PUSH2 0x650A JUMP JUMPDEST DUP6 PUSH2 0x590F SWAP2 SWAP1 PUSH2 0x6368 JUMP JUMPDEST PUSH2 0x5919 SWAP2 SWAP1 PUSH2 0x6312 JUMP JUMPDEST PUSH2 0x5923 SWAP2 SWAP1 PUSH2 0x6368 JUMP JUMPDEST SWAP1 POP PUSH2 0x58DE JUMP JUMPDEST POP PUSH2 0x593E JUMP JUMPDEST PUSH1 0x0 DUP3 EQ PUSH2 0x593D JUMPI PUSH1 0x1 SWAP1 POP JUMPDEST JUMPDEST SWAP2 SWAP1 POP JUMP JUMPDEST POP PUSH1 0x0 DUP2 SSTORE PUSH1 0x1 ADD PUSH1 0x0 SWAP1 SSTORE JUMP JUMPDEST PUSH1 0x0 DUP2 CALLDATALOAD SWAP1 POP PUSH2 0x5960 DUP2 PUSH2 0x689E JUMP JUMPDEST SWAP3 SWAP2 POP POP JUMP JUMPDEST PUSH1 0x0 DUP2 CALLDATALOAD SWAP1 POP PUSH2 0x5975 DUP2 PUSH2 0x68B5 JUMP JUMPDEST SWAP3 SWAP2 POP POP JUMP JUMPDEST PUSH1 0x0 DUP2 MLOAD SWAP1 POP PUSH2 0x598A DUP2 PUSH2 0x68B5 JUMP JUMPDEST SWAP3 SWAP2 POP POP JUMP JUMPDEST PUSH1 0x0 DUP2 CALLDATALOAD SWAP1 POP PUSH2 0x599F DUP2 PUSH2 0x68CC JUMP JUMPDEST SWAP3 SWAP2 POP POP JUMP JUMPDEST PUSH1 0x0 DUP2 CALLDATALOAD SWAP1 POP PUSH2 0x59B4 DUP2 PUSH2 0x68E3 JUMP JUMPDEST SWAP3 SWAP2 POP POP JUMP JUMPDEST PUSH1 0x0 DUP2 MLOAD SWAP1 POP PUSH2 0x59C9 DUP2 PUSH2 0x68E3 JUMP JUMPDEST SWAP3 SWAP2 POP POP JUMP JUMPDEST PUSH1 0x0 DUP2 CALLDATALOAD SWAP1 POP PUSH2 0x59DE DUP2 PUSH2 0x68FA JUMP JUMPDEST SWAP3 SWAP2 POP POP JUMP JUMPDEST PUSH1 0x0 PUSH1 0x20 DUP3 DUP5 SUB SLT ISZERO PUSH2 0x59FA JUMPI PUSH2 0x59F9 PUSH2 0x670A JUMP JUMPDEST JUMPDEST PUSH1 0x0 PUSH2 0x5A08 DUP5 DUP3 DUP6 ADD PUSH2 0x5951 JUMP JUMPDEST SWAP2 POP POP SWAP3 SWAP2 POP POP JUMP JUMPDEST PUSH1 0x0 DUP1 PUSH1 0x40 DUP4 DUP6 SUB SLT ISZERO PUSH2 0x5A28 JUMPI PUSH2 0x5A27 PUSH2 0x670A JUMP JUMPDEST JUMPDEST PUSH1 0x0 PUSH2 0x5A36 DUP6 DUP3 DUP7 ADD PUSH2 0x5951 JUMP JUMPDEST SWAP3 POP POP PUSH1 0x20 PUSH2 0x5A47 DUP6 DUP3 DUP7 ADD PUSH2 0x5951 JUMP JUMPDEST SWAP2 POP POP SWAP3 POP SWAP3 SWAP1 POP JUMP JUMPDEST PUSH1 0x0 DUP1 PUSH1 0x0 PUSH1 0x60 DUP5 DUP7 SUB SLT ISZERO PUSH2 0x5A6A JUMPI PUSH2 0x5A69 PUSH2 0x670A JUMP JUMPDEST JUMPDEST PUSH1 0x0 PUSH2 0x5A78 DUP7 DUP3 DUP8 ADD PUSH2 0x5951 JUMP JUMPDEST SWAP4 POP POP PUSH1 0x20 PUSH2 0x5A89 DUP7 DUP3 DUP8 ADD PUSH2 0x5951 JUMP JUMPDEST SWAP3 POP POP PUSH1 0x40 PUSH2 0x5A9A DUP7 DUP3 DUP8 ADD PUSH2 0x59A5 JUMP JUMPDEST SWAP2 POP POP SWAP3 POP SWAP3 POP SWAP3 JUMP JUMPDEST PUSH1 0x0 DUP1 PUSH1 0x0 DUP1 PUSH1 0x0 DUP1 PUSH1 0x0 PUSH1 0xE0 DUP9 DUP11 SUB SLT ISZERO PUSH2 0x5AC3 JUMPI PUSH2 0x5AC2 PUSH2 0x670A JUMP JUMPDEST JUMPDEST PUSH1 0x0 PUSH2 0x5AD1 DUP11 DUP3 DUP12 ADD PUSH2 0x5951 JUMP JUMPDEST SWAP8 POP POP PUSH1 0x20 PUSH2 0x5AE2 DUP11 DUP3 DUP12 ADD PUSH2 0x5951 JUMP JUMPDEST SWAP7 POP POP PUSH1 0x40 PUSH2 0x5AF3 DUP11 DUP3 DUP12 ADD PUSH2 0x59A5 JUMP JUMPDEST SWAP6 POP POP PUSH1 0x60 PUSH2 0x5B04 DUP11 DUP3 DUP12 ADD PUSH2 0x59A5 JUMP JUMPDEST SWAP5 POP POP PUSH1 0x80 PUSH2 0x5B15 DUP11 DUP3 DUP12 ADD PUSH2 0x59CF JUMP JUMPDEST SWAP4 POP POP PUSH1 0xA0 PUSH2 0x5B26 DUP11 DUP3 DUP12 ADD PUSH2 0x5990 JUMP JUMPDEST SWAP3 POP POP PUSH1 0xC0 PUSH2 0x5B37 DUP11 DUP3 DUP12 ADD PUSH2 0x5990 JUMP JUMPDEST SWAP2 POP POP SWAP3 SWAP6 SWAP9 SWAP2 SWAP5 SWAP8 POP SWAP3 SWAP6 POP JUMP JUMPDEST PUSH1 0x0 DUP1 PUSH1 0x40 DUP4 DUP6 SUB SLT ISZERO PUSH2 0x5B5D JUMPI PUSH2 0x5B5C PUSH2 0x670A JUMP JUMPDEST JUMPDEST PUSH1 0x0 PUSH2 0x5B6B DUP6 DUP3 DUP7 ADD PUSH2 0x5951 JUMP JUMPDEST SWAP3 POP POP PUSH1 0x20 PUSH2 0x5B7C DUP6 DUP3 DUP7 ADD PUSH2 0x5966 JUMP JUMPDEST SWAP2 POP POP SWAP3 POP SWAP3 SWAP1 POP JUMP JUMPDEST PUSH1 0x0 DUP1 PUSH1 0x40 DUP4 DUP6 SUB SLT ISZERO PUSH2 0x5B9D JUMPI PUSH2 0x5B9C PUSH2 0x670A JUMP JUMPDEST JUMPDEST PUSH1 0x0 PUSH2 0x5BAB DUP6 DUP3 DUP7 ADD PUSH2 0x5951 JUMP JUMPDEST SWAP3 POP POP PUSH1 0x20 PUSH2 0x5BBC DUP6 DUP3 DUP7 ADD PUSH2 0x59A5 JUMP JUMPDEST SWAP2 POP POP SWAP3 POP SWAP3 SWAP1 POP JUMP JUMPDEST PUSH1 0x0 DUP1 PUSH1 0x0 PUSH1 0x60 DUP5 DUP7 SUB SLT ISZERO PUSH2 0x5BDF JUMPI PUSH2 0x5BDE PUSH2 0x670A JUMP JUMPDEST JUMPDEST PUSH1 0x0 PUSH2 0x5BED DUP7 DUP3 DUP8 ADD PUSH2 0x5951 JUMP JUMPDEST SWAP4 POP POP PUSH1 0x20 PUSH2 0x5BFE DUP7 DUP3 DUP8 ADD PUSH2 0x59A5 JUMP JUMPDEST SWAP3 POP POP PUSH1 0x40 PUSH2 0x5C0F DUP7 DUP3 DUP8 ADD PUSH2 0x59A5 JUMP JUMPDEST SWAP2 POP POP SWAP3 POP SWAP3 POP SWAP3 JUMP JUMPDEST PUSH1 0x0 PUSH1 0x20 DUP3 DUP5 SUB SLT ISZERO PUSH2 0x5C2F JUMPI PUSH2 0x5C2E PUSH2 0x670A JUMP JUMPDEST JUMPDEST PUSH1 0x0 PUSH2 0x5C3D DUP5 DUP3 DUP6 ADD PUSH2 0x597B JUMP JUMPDEST SWAP2 POP POP SWAP3 SWAP2 POP POP JUMP JUMPDEST PUSH1 0x0 PUSH1 0x20 DUP3 DUP5 SUB SLT ISZERO PUSH2 0x5C5C JUMPI PUSH2 0x5C5B PUSH2 0x670A JUMP JUMPDEST JUMPDEST PUSH1 0x0 PUSH2 0x5C6A DUP5 DUP3 DUP6 ADD PUSH2 0x59A5 JUMP JUMPDEST SWAP2 POP POP SWAP3 SWAP2 POP POP JUMP JUMPDEST PUSH1 0x0 PUSH1 0x20 DUP3 DUP5 SUB SLT ISZERO PUSH2 0x5C89 JUMPI PUSH2 0x5C88 PUSH2 0x670A JUMP JUMPDEST JUMPDEST PUSH1 0x0 PUSH2 0x5C97 DUP5 DUP3 DUP6 ADD PUSH2 0x59BA JUMP JUMPDEST SWAP2 POP POP SWAP3 SWAP2 POP POP JUMP JUMPDEST PUSH1 0x0 DUP1 PUSH1 0x40 DUP4 DUP6 SUB SLT ISZERO PUSH2 0x5CB7 JUMPI PUSH2 0x5CB6 PUSH2 0x670A JUMP JUMPDEST JUMPDEST PUSH1 0x0 PUSH2 0x5CC5 DUP6 DUP3 DUP7 ADD PUSH2 0x59A5 JUMP JUMPDEST SWAP3 POP POP PUSH1 0x20 PUSH2 0x5CD6 DUP6 DUP3 DUP7 ADD PUSH2 0x5951 JUMP JUMPDEST SWAP2 POP POP SWAP3 POP SWAP3 SWAP1 POP JUMP JUMPDEST PUSH1 0x0 DUP1 PUSH1 0x0 PUSH1 0x60 DUP5 DUP7 SUB SLT ISZERO PUSH2 0x5CF9 JUMPI PUSH2 0x5CF8 PUSH2 0x670A JUMP JUMPDEST JUMPDEST PUSH1 0x0 PUSH2 0x5D07 DUP7 DUP3 DUP8 ADD PUSH2 0x59A5 JUMP JUMPDEST SWAP4 POP POP PUSH1 0x20 PUSH2 0x5D18 DUP7 DUP3 DUP8 ADD PUSH2 0x59A5 JUMP JUMPDEST SWAP3 POP POP PUSH1 0x40 PUSH2 0x5D29 DUP7 DUP3 DUP8 ADD PUSH2 0x5951 JUMP JUMPDEST SWAP2 POP POP SWAP3 POP SWAP3 POP SWAP3 JUMP JUMPDEST PUSH1 0x0 DUP1 PUSH1 0x0 DUP1 PUSH1 0x80 DUP6 DUP8 SUB SLT ISZERO PUSH2 0x5D4D JUMPI PUSH2 0x5D4C PUSH2 0x670A JUMP JUMPDEST JUMPDEST PUSH1 0x0 PUSH2 0x5D5B DUP8 DUP3 DUP9 ADD PUSH2 0x59A5 JUMP JUMPDEST SWAP5 POP POP PUSH1 0x20 PUSH2 0x5D6C DUP8 DUP3 DUP9 ADD PUSH2 0x59A5 JUMP JUMPDEST SWAP4 POP POP PUSH1 0x40 PUSH2 0x5D7D DUP8 DUP3 DUP9 ADD PUSH2 0x5966 JUMP JUMPDEST SWAP3 POP POP PUSH1 0x60 PUSH2 0x5D8E DUP8 DUP3 DUP9 ADD PUSH2 0x5951 JUMP JUMPDEST SWAP2 POP POP SWAP3 SWAP6 SWAP2 SWAP5 POP SWAP3 POP JUMP JUMPDEST PUSH2 0x5DA3 DUP2 PUSH2 0x6598 JUMP JUMPDEST DUP3 MSTORE POP POP JUMP JUMPDEST PUSH2 0x5DB2 DUP2 PUSH2 0x65AA JUMP JUMPDEST DUP3 MSTORE POP POP JUMP JUMPDEST PUSH2 0x5DC1 DUP2 PUSH2 0x65B6 JUMP JUMPDEST DUP3 MSTORE POP POP JUMP JUMPDEST PUSH2 0x5DD8 PUSH2 0x5DD3 DUP3 PUSH2 0x65B6 JUMP JUMPDEST PUSH2 0x6673 JUMP JUMPDEST DUP3 MSTORE POP POP JUMP JUMPDEST PUSH1 0x0 PUSH2 0x5DE9 DUP3 PUSH2 0x62D5 JUMP JUMPDEST PUSH2 0x5DF3 DUP2 DUP6 PUSH2 0x62EB JUMP JUMPDEST SWAP4 POP PUSH2 0x5E03 DUP2 DUP6 PUSH1 0x20 DUP7 ADD PUSH2 0x65F7 JUMP JUMPDEST DUP1 DUP5 ADD SWAP2 POP POP SWAP3 SWAP2 POP POP JUMP JUMPDEST PUSH1 0x0 PUSH2 0x5E1A DUP3 PUSH2 0x62E0 JUMP JUMPDEST PUSH2 0x5E24 DUP2 DUP6 PUSH2 0x62F6 JUMP JUMPDEST SWAP4 POP PUSH2 0x5E34 DUP2 DUP6 PUSH1 0x20 DUP7 ADD PUSH2 0x65F7 JUMP JUMPDEST PUSH2 0x5E3D DUP2 PUSH2 0x670F JUMP JUMPDEST DUP5 ADD SWAP2 POP POP SWAP3 SWAP2 POP POP JUMP JUMPDEST PUSH1 0x0 PUSH2 0x5E55 PUSH1 0x15 DUP4 PUSH2 0x62F6 JUMP JUMPDEST SWAP2 POP PUSH2 0x5E60 DUP3 PUSH2 0x672D JUMP JUMPDEST PUSH1 0x20 DUP3 ADD SWAP1 POP SWAP2 SWAP1 POP JUMP JUMPDEST PUSH1 0x0 PUSH2 0x5E78 PUSH1 0x1C DUP4 PUSH2 0x62F6 JUMP JUMPDEST SWAP2 POP PUSH2 0x5E83 DUP3 PUSH2 0x6756 JUMP JUMPDEST PUSH1 0x20 DUP3 ADD SWAP1 POP SWAP2 SWAP1 POP JUMP JUMPDEST PUSH1 0x0 PUSH2 0x5E9B PUSH1 0x2 DUP4 PUSH2 0x6307 JUMP JUMPDEST SWAP2 POP PUSH2 0x5EA6 DUP3 PUSH2 0x677F JUMP JUMPDEST PUSH1 0x2 DUP3 ADD SWAP1 POP SWAP2 SWAP1 POP JUMP JUMPDEST PUSH1 0x0 PUSH2 0x5EBE PUSH1 0x14 DUP4 PUSH2 0x62F6 JUMP JUMPDEST SWAP2 POP PUSH2 0x5EC9 DUP3 PUSH2 0x67A8 JUMP JUMPDEST PUSH1 0x20 DUP3 ADD SWAP1 POP SWAP2 SWAP1 POP JUMP JUMPDEST PUSH1 0x0 PUSH2 0x5EE1 PUSH1 0x12 DUP4 PUSH2 0x62F6 JUMP JUMPDEST SWAP2 POP PUSH2 0x5EEC DUP3 PUSH2 0x67D1 JUMP JUMPDEST PUSH1 0x20 DUP3 ADD SWAP1 POP SWAP2 SWAP1 POP JUMP JUMPDEST PUSH1 0x0 PUSH2 0x5F04 PUSH1 0x9 DUP4 PUSH2 0x62F6 JUMP JUMPDEST SWAP2 POP PUSH2 0x5F0F DUP3 PUSH2 0x67FA JUMP JUMPDEST PUSH1 0x20 DUP3 ADD SWAP1 POP SWAP2 SWAP1 POP JUMP JUMPDEST PUSH1 0x0 PUSH2 0x5F27 PUSH1 0xF DUP4 PUSH2 0x62F6 JUMP JUMPDEST SWAP2 POP PUSH2 0x5F32 DUP3 PUSH2 0x6823 JUMP JUMPDEST PUSH1 0x20 DUP3 ADD SWAP1 POP SWAP2 SWAP1 POP JUMP JUMPDEST PUSH1 0x0 PUSH2 0x5F4A PUSH1 0x18 DUP4 PUSH2 0x62F6 JUMP JUMPDEST SWAP2 POP PUSH2 0x5F55 DUP3 PUSH2 0x684C JUMP JUMPDEST PUSH1 0x20 DUP3 ADD SWAP1 POP SWAP2 SWAP1 POP JUMP JUMPDEST PUSH1 0x0 PUSH2 0x5F6D PUSH1 0x6 DUP4 PUSH2 0x62F6 JUMP JUMPDEST SWAP2 POP PUSH2 0x5F78 DUP3 PUSH2 0x6875 JUMP JUMPDEST PUSH1 0x20 DUP3 ADD SWAP1 POP SWAP2 SWAP1 POP JUMP JUMPDEST PUSH2 0x5F8C DUP2 PUSH2 0x65E0 JUMP JUMPDEST DUP3 MSTORE POP POP JUMP JUMPDEST PUSH2 0x5F9B DUP2 PUSH2 0x65EA JUMP JUMPDEST DUP3 MSTORE POP POP JUMP JUMPDEST PUSH1 0x0 PUSH2 0x5FAD DUP3 DUP5 PUSH2 0x5DDE JUMP JUMPDEST SWAP2 POP DUP2 SWAP1 POP SWAP3 SWAP2 POP POP JUMP JUMPDEST PUSH1 0x0 PUSH2 0x5FC3 DUP3 PUSH2 0x5E8E JUMP JUMPDEST SWAP2 POP PUSH2 0x5FCF DUP3 DUP6 PUSH2 0x5DC7 JUMP JUMPDEST PUSH1 0x20 DUP3 ADD SWAP2 POP PUSH2 0x5FDF DUP3 DUP5 PUSH2 0x5DC7 JUMP JUMPDEST PUSH1 0x20 DUP3 ADD SWAP2 POP DUP2 SWAP1 POP SWAP4 SWAP3 POP POP POP JUMP JUMPDEST PUSH1 0x0 PUSH1 0x20 DUP3 ADD SWAP1 POP PUSH2 0x6004 PUSH1 0x0 DUP4 ADD DUP5 PUSH2 0x5D9A JUMP JUMPDEST SWAP3 SWAP2 POP POP JUMP JUMPDEST PUSH1 0x0 PUSH1 0x80 DUP3 ADD SWAP1 POP PUSH2 0x601F PUSH1 0x0 DUP4 ADD DUP8 PUSH2 0x5D9A JUMP JUMPDEST PUSH2 0x602C PUSH1 0x20 DUP4 ADD DUP7 PUSH2 0x5DA9 JUMP JUMPDEST PUSH2 0x6039 PUSH1 0x40 DUP4 ADD DUP6 PUSH2 0x5F83 JUMP JUMPDEST PUSH2 0x6046 PUSH1 0x60 DUP4 ADD DUP5 PUSH2 0x5F83 JUMP JUMPDEST SWAP6 SWAP5 POP POP POP POP POP JUMP JUMPDEST PUSH1 0x0 PUSH1 0x40 DUP3 ADD SWAP1 POP PUSH2 0x6064 PUSH1 0x0 DUP4 ADD DUP6 PUSH2 0x5D9A JUMP JUMPDEST PUSH2 0x6071 PUSH1 0x20 DUP4 ADD DUP5 PUSH2 0x5F83 JUMP JUMPDEST SWAP4 SWAP3 POP POP POP JUMP JUMPDEST PUSH1 0x0 PUSH1 0x20 DUP3 ADD SWAP1 POP PUSH2 0x608D PUSH1 0x0 DUP4 ADD DUP5 PUSH2 0x5DA9 JUMP JUMPDEST SWAP3 SWAP2 POP POP JUMP JUMPDEST PUSH1 0x0 PUSH1 0x20 DUP3 ADD SWAP1 POP PUSH2 0x60A8 PUSH1 0x0 DUP4 ADD DUP5 PUSH2 0x5DB8 JUMP JUMPDEST SWAP3 SWAP2 POP POP JUMP JUMPDEST PUSH1 0x0 PUSH1 0xC0 DUP3 ADD SWAP1 POP PUSH2 0x60C3 PUSH1 0x0 DUP4 ADD DUP10 PUSH2 0x5DB8 JUMP JUMPDEST PUSH2 0x60D0 PUSH1 0x20 DUP4 ADD DUP9 PUSH2 0x5D9A JUMP JUMPDEST PUSH2 0x60DD PUSH1 0x40 DUP4 ADD DUP8 PUSH2 0x5D9A JUMP JUMPDEST PUSH2 0x60EA PUSH1 0x60 DUP4 ADD DUP7 PUSH2 0x5F83 JUMP JUMPDEST PUSH2 0x60F7 PUSH1 0x80 DUP4 ADD DUP6 PUSH2 0x5F83 JUMP JUMPDEST PUSH2 0x6104 PUSH1 0xA0 DUP4 ADD DUP5 PUSH2 0x5F83 JUMP JUMPDEST SWAP8 SWAP7 POP POP POP POP POP POP POP JUMP JUMPDEST PUSH1 0x0 PUSH1 0x80 DUP3 ADD SWAP1 POP PUSH2 0x6124 PUSH1 0x0 DUP4 ADD DUP8 PUSH2 0x5DB8 JUMP JUMPDEST PUSH2 0x6131 PUSH1 0x20 DUP4 ADD DUP7 PUSH2 0x5F92 JUMP JUMPDEST PUSH2 0x613E PUSH1 0x40 DUP4 ADD DUP6 PUSH2 0x5DB8 JUMP JUMPDEST PUSH2 0x614B PUSH1 0x60 DUP4 ADD DUP5 PUSH2 0x5DB8 JUMP JUMPDEST SWAP6 SWAP5 POP POP POP POP POP JUMP JUMPDEST PUSH1 0x0 PUSH1 0x20 DUP3 ADD SWAP1 POP DUP2 DUP2 SUB PUSH1 0x0 DUP4 ADD MSTORE PUSH2 0x616E DUP2 DUP5 PUSH2 0x5E0F JUMP JUMPDEST SWAP1 POP SWAP3 SWAP2 POP POP JUMP JUMPDEST PUSH1 0x0 PUSH1 0x20 DUP3 ADD SWAP1 POP DUP2 DUP2 SUB PUSH1 0x0 DUP4 ADD MSTORE PUSH2 0x618F DUP2 PUSH2 0x5E48 JUMP JUMPDEST SWAP1 POP SWAP2 SWAP1 POP JUMP JUMPDEST PUSH1 0x0 PUSH1 0x20 DUP3 ADD SWAP1 POP DUP2 DUP2 SUB PUSH1 0x0 DUP4 ADD MSTORE PUSH2 0x61AF DUP2 PUSH2 0x5E6B JUMP JUMPDEST SWAP1 POP SWAP2 SWAP1 POP JUMP JUMPDEST PUSH1 0x0 PUSH1 0x20 DUP3 ADD SWAP1 POP DUP2 DUP2 SUB PUSH1 0x0 DUP4 ADD MSTORE PUSH2 0x61CF DUP2 PUSH2 0x5EB1 JUMP JUMPDEST SWAP1 POP SWAP2 SWAP1 POP JUMP JUMPDEST PUSH1 0x0 PUSH1 0x20 DUP3 ADD SWAP1 POP DUP2 DUP2 SUB PUSH1 0x0 DUP4 ADD MSTORE PUSH2 0x61EF DUP2 PUSH2 0x5ED4 JUMP JUMPDEST SWAP1 POP SWAP2 SWAP1 POP JUMP JUMPDEST PUSH1 0x0 PUSH1 0x20 DUP3 ADD SWAP1 POP DUP2 DUP2 SUB PUSH1 0x0 DUP4 ADD MSTORE PUSH2 0x620F DUP2 PUSH2 0x5EF7 JUMP JUMPDEST SWAP1 POP SWAP2 SWAP1 POP JUMP JUMPDEST PUSH1 0x0 PUSH1 0x20 DUP3 ADD SWAP1 POP DUP2 DUP2 SUB PUSH1 0x0 DUP4 ADD MSTORE PUSH2 0x622F DUP2 PUSH2 0x5F1A JUMP JUMPDEST SWAP1 POP SWAP2 SWAP1 POP JUMP JUMPDEST PUSH1 0x0 PUSH1 0x20 DUP3 ADD SWAP1 POP DUP2 DUP2 SUB PUSH1 0x0 DUP4 ADD MSTORE PUSH2 0x624F DUP2 PUSH2 0x5F3D JUMP JUMPDEST SWAP1 POP SWAP2 SWAP1 POP JUMP JUMPDEST PUSH1 0x0 PUSH1 0x20 DUP3 ADD SWAP1 POP DUP2 DUP2 SUB PUSH1 0x0 DUP4 ADD MSTORE PUSH2 0x626F DUP2 PUSH2 0x5F60 JUMP JUMPDEST SWAP1 POP SWAP2 SWAP1 POP JUMP JUMPDEST PUSH1 0x0 PUSH1 0x20 DUP3 ADD SWAP1 POP PUSH2 0x628B PUSH1 0x0 DUP4 ADD DUP5 PUSH2 0x5F83 JUMP JUMPDEST SWAP3 SWAP2 POP POP JUMP JUMPDEST PUSH1 0x0 PUSH1 0x40 DUP3 ADD SWAP1 POP PUSH2 0x62A6 PUSH1 0x0 DUP4 ADD DUP6 PUSH2 0x5F83 JUMP JUMPDEST PUSH2 0x62B3 PUSH1 0x20 DUP4 ADD DUP5 PUSH2 0x5F83 JUMP JUMPDEST SWAP4 SWAP3 POP POP POP JUMP JUMPDEST PUSH1 0x0 PUSH1 0x20 DUP3 ADD SWAP1 POP PUSH2 0x62CF PUSH1 0x0 DUP4 ADD DUP5 PUSH2 0x5F92 JUMP JUMPDEST SWAP3 SWAP2 POP POP JUMP JUMPDEST PUSH1 0x0 DUP2 MLOAD SWAP1 POP SWAP2 SWAP1 POP JUMP JUMPDEST PUSH1 0x0 DUP2 MLOAD SWAP1 POP SWAP2 SWAP1 POP JUMP JUMPDEST PUSH1 0x0 DUP2 SWAP1 POP SWAP3 SWAP2 POP POP JUMP JUMPDEST PUSH1 0x0 DUP3 DUP3 MSTORE PUSH1 0x20 DUP3 ADD SWAP1 POP SWAP3 SWAP2 POP POP JUMP JUMPDEST PUSH1 0x0 DUP2 SWAP1 POP SWAP3 SWAP2 POP POP JUMP JUMPDEST PUSH1 0x0 PUSH2 0x631D DUP3 PUSH2 0x65E0 JUMP JUMPDEST SWAP2 POP PUSH2 0x6328 DUP4 PUSH2 0x65E0 JUMP JUMPDEST SWAP3 POP DUP3 PUSH32 0xFFFFFFFFFFFFFFFFFFFFFFFFFFFFFFFFFFFFFFFFFFFFFFFFFFFFFFFFFFFFFFFF SUB DUP3 GT ISZERO PUSH2 0x635D JUMPI PUSH2 0x635C PUSH2 0x667D JUMP JUMPDEST JUMPDEST DUP3 DUP3 ADD SWAP1 POP SWAP3 SWAP2 POP POP JUMP JUMPDEST PUSH1 0x0 PUSH2 0x6373 DUP3 PUSH2 0x65E0 JUMP JUMPDEST SWAP2 POP PUSH2 0x637E DUP4 PUSH2 0x65E0 JUMP JUMPDEST SWAP3 POP DUP3 PUSH2 0x638E JUMPI PUSH2 0x638D PUSH2 0x66AC JUMP JUMPDEST JUMPDEST DUP3 DUP3 DIV SWAP1 POP SWAP3 SWAP2 POP POP JUMP JUMPDEST PUSH1 0x0 DUP1 DUP3 SWAP2 POP DUP4 SWAP1 POP JUMPDEST PUSH1 0x1 DUP6 GT ISZERO PUSH2 0x63E3 JUMPI DUP1 DUP7 DIV DUP2 GT ISZERO PUSH2 0x63BF JUMPI PUSH2 0x63BE PUSH2 0x667D JUMP JUMPDEST JUMPDEST PUSH1 0x1 DUP6 AND ISZERO PUSH2 0x63CE JUMPI DUP1 DUP3 MUL SWAP2 POP JUMPDEST DUP1 DUP2 MUL SWAP1 POP PUSH2 0x63DC DUP6 PUSH2 0x6720 JUMP JUMPDEST SWAP5 POP PUSH2 0x63A3 JUMP JUMPDEST SWAP5 POP SWAP5 SWAP3 POP POP POP JUMP JUMPDEST PUSH1 0x0 PUSH2 0x63F7 DUP3 PUSH2 0x65E0 JUMP JUMPDEST SWAP2 POP PUSH2 0x6402 DUP4 PUSH2 0x65EA JUMP JUMPDEST SWAP3 POP PUSH2 0x642F PUSH32 0xFFFFFFFFFFFFFFFFFFFFFFFFFFFFFFFFFFFFFFFFFFFFFFFFFFFFFFFFFFFFFFFF DUP5 DUP5 PUSH2 0x6437 JUMP JUMPDEST SWAP1 POP SWAP3 SWAP2 POP POP JUMP JUMPDEST PUSH1 0x0 DUP3 PUSH2 0x6447 JUMPI PUSH1 0x1 SWAP1 POP PUSH2 0x6503 JUMP JUMPDEST DUP2 PUSH2 0x6455 JUMPI PUSH1 0x0 SWAP1 POP PUSH2 0x6503 JUMP JUMPDEST DUP2 PUSH1 0x1 DUP2 EQ PUSH2 0x646B JUMPI PUSH1 0x2 DUP2 EQ PUSH2 0x6475 JUMPI PUSH2 0x64A4 JUMP JUMPDEST PUSH1 0x1 SWAP2 POP POP PUSH2 0x6503 JUMP JUMPDEST PUSH1 0xFF DUP5 GT ISZERO PUSH2 0x6487 JUMPI PUSH2 0x6486 PUSH2 0x667D JUMP JUMPDEST JUMPDEST DUP4 PUSH1 0x2 EXP SWAP2 POP DUP5 DUP3 GT ISZERO PUSH2 0x649E JUMPI PUSH2 0x649D PUSH2 0x667D JUMP JUMPDEST JUMPDEST POP PUSH2 0x6503 JUMP JUMPDEST POP PUSH1 0x20 DUP4 LT PUSH2 0x133 DUP4 LT AND PUSH1 0x4E DUP5 LT PUSH1 0xB DUP5 LT AND OR ISZERO PUSH2 0x64D9 JUMPI DUP3 DUP3 EXP SWAP1 POP DUP4 DUP2 GT ISZERO PUSH2 0x64D4 JUMPI PUSH2 0x64D3 PUSH2 0x667D JUMP JUMPDEST JUMPDEST PUSH2 0x6503 JUMP JUMPDEST PUSH2 0x64E6 DUP5 DUP5 DUP5 PUSH1 0x1 PUSH2 0x6399 JUMP JUMPDEST SWAP3 POP SWAP1 POP DUP2 DUP5 DIV DUP2 GT ISZERO PUSH2 0x64FD JUMPI PUSH2 0x64FC PUSH2 0x667D JUMP JUMPDEST JUMPDEST DUP2 DUP2 MUL SWAP1 POP JUMPDEST SWAP4 SWAP3 POP POP POP JUMP JUMPDEST PUSH1 0x0 PUSH2 0x6515 DUP3 PUSH2 0x65E0 JUMP JUMPDEST SWAP2 POP PUSH2 0x6520 DUP4 PUSH2 0x65E0 JUMP JUMPDEST SWAP3 POP DUP2 PUSH32 0xFFFFFFFFFFFFFFFFFFFFFFFFFFFFFFFFFFFFFFFFFFFFFFFFFFFFFFFFFFFFFFFF DIV DUP4 GT DUP3 ISZERO ISZERO AND ISZERO PUSH2 0x6559 JUMPI PUSH2 0x6558 PUSH2 0x667D JUMP JUMPDEST JUMPDEST DUP3 DUP3 MUL SWAP1 POP SWAP3 SWAP2 POP POP JUMP JUMPDEST PUSH1 0x0 PUSH2 0x656F DUP3 PUSH2 0x65E0 JUMP JUMPDEST SWAP2 POP PUSH2 0x657A DUP4 PUSH2 0x65E0 JUMP JUMPDEST SWAP3 POP DUP3 DUP3 LT ISZERO PUSH2 0x658D JUMPI PUSH2 0x658C PUSH2 0x667D JUMP JUMPDEST JUMPDEST DUP3 DUP3 SUB SWAP1 POP SWAP3 SWAP2 POP POP JUMP JUMPDEST PUSH1 0x0 PUSH2 0x65A3 DUP3 PUSH2 0x65C0 JUMP JUMPDEST SWAP1 POP SWAP2 SWAP1 POP JUMP JUMPDEST PUSH1 0x0 DUP2 ISZERO ISZERO SWAP1 POP SWAP2 SWAP1 POP JUMP JUMPDEST PUSH1 0x0 DUP2 SWAP1 POP SWAP2 SWAP1 POP JUMP JUMPDEST PUSH1 0x0 PUSH20 0xFFFFFFFFFFFFFFFFFFFFFFFFFFFFFFFFFFFFFFFF DUP3 AND SWAP1 POP SWAP2 SWAP1 POP JUMP JUMPDEST PUSH1 0x0 DUP2 SWAP1 POP SWAP2 SWAP1 POP JUMP JUMPDEST PUSH1 0x0 PUSH1 0xFF DUP3 AND SWAP1 POP SWAP2 SWAP1 POP JUMP JUMPDEST PUSH1 0x0 JUMPDEST DUP4 DUP2 LT ISZERO PUSH2 0x6615 JUMPI DUP1 DUP3 ADD MLOAD DUP2 DUP5 ADD MSTORE PUSH1 0x20 DUP2 ADD SWAP1 POP PUSH2 0x65FA JUMP JUMPDEST DUP4 DUP2 GT ISZERO PUSH2 0x6624 JUMPI PUSH1 0x0 DUP5 DUP5 ADD MSTORE JUMPDEST POP POP POP POP JUMP JUMPDEST PUSH1 0x0 PUSH2 0x6635 DUP3 PUSH2 0x65E0 JUMP JUMPDEST SWAP2 POP PUSH32 0xFFFFFFFFFFFFFFFFFFFFFFFFFFFFFFFFFFFFFFFFFFFFFFFFFFFFFFFFFFFFFFFF DUP3 EQ ISZERO PUSH2 0x6668 JUMPI PUSH2 0x6667 PUSH2 0x667D JUMP JUMPDEST JUMPDEST PUSH1 0x1 DUP3 ADD SWAP1 POP SWAP2 SWAP1 POP JUMP JUMPDEST PUSH1 0x0 DUP2 SWAP1 POP SWAP2 SWAP1 POP JUMP JUMPDEST PUSH32 0x4E487B7100000000000000000000000000000000000000000000000000000000 PUSH1 0x0 MSTORE PUSH1 0x11 PUSH1 0x4 MSTORE PUSH1 0x24 PUSH1 0x0 REVERT JUMPDEST PUSH32 0x4E487B7100000000000000000000000000000000000000000000000000000000 PUSH1 0x0 MSTORE PUSH1 0x12 PUSH1 0x4 MSTORE PUSH1 0x24 PUSH1 0x0 REVERT JUMPDEST PUSH32 0x4E487B7100000000000000000000000000000000000000000000000000000000 PUSH1 0x0 MSTORE PUSH1 0x32 PUSH1 0x4 MSTORE PUSH1 0x24 PUSH1 0x0 REVERT JUMPDEST PUSH1 0x0 DUP1 REVERT JUMPDEST PUSH1 0x0 PUSH1 0x1F NOT PUSH1 0x1F DUP4 ADD AND SWAP1 POP SWAP2 SWAP1 POP JUMP JUMPDEST PUSH1 0x0 DUP2 PUSH1 0x1 SHR SWAP1 POP SWAP2 SWAP1 POP JUMP JUMPDEST PUSH32 0x64732D6D6174682D7375622D756E646572666C6F770000000000000000000000 PUSH1 0x0 DUP3 ADD MSTORE POP JUMP JUMPDEST PUSH32 0x556E697377617056323A20494E56414C49445F5349474E415455524500000000 PUSH1 0x0 DUP3 ADD MSTORE POP JUMP JUMPDEST PUSH32 0x1901000000000000000000000000000000000000000000000000000000000000 PUSH1 0x0 DUP3 ADD MSTORE POP JUMP JUMPDEST PUSH32 0x64732D6D6174682D6164642D6F766572666C6F77000000000000000000000000 PUSH1 0x0 DUP3 ADD MSTORE POP JUMP JUMPDEST PUSH32 0x556E697377617056323A20455850495245440000000000000000000000000000 PUSH1 0x0 DUP3 ADD MSTORE POP JUMP JUMPDEST PUSH32 0x464F5242494444454E0000000000000000000000000000000000000000000000 PUSH1 0x0 DUP3 ADD MSTORE POP JUMP JUMPDEST PUSH32 0x5452414E534645525F4641494C45440000000000000000000000000000000000 PUSH1 0x0 DUP3 ADD MSTORE POP JUMP JUMPDEST PUSH32 0x51696C696E3A204E4F5420454E4F554748204D415247494E0000000000000000 PUSH1 0x0 DUP3 ADD MSTORE POP JUMP JUMPDEST PUSH32 0x4C4F434B45440000000000000000000000000000000000000000000000000000 PUSH1 0x0 DUP3 ADD MSTORE POP JUMP JUMPDEST PUSH2 0x68A7 DUP2 PUSH2 0x6598 JUMP JUMPDEST DUP2 EQ PUSH2 0x68B2 JUMPI PUSH1 0x0 DUP1 REVERT JUMPDEST POP JUMP JUMPDEST PUSH2 0x68BE DUP2 PUSH2 0x65AA JUMP JUMPDEST DUP2 EQ PUSH2 0x68C9 JUMPI PUSH1 0x0 DUP1 REVERT JUMPDEST POP JUMP JUMPDEST PUSH2 0x68D5 DUP2 PUSH2 0x65B6 JUMP JUMPDEST DUP2 EQ PUSH2 0x68E0 JUMPI PUSH1 0x0 DUP1 REVERT JUMPDEST POP JUMP JUMPDEST PUSH2 0x68EC DUP2 PUSH2 0x65E0 JUMP JUMPDEST DUP2 EQ PUSH2 0x68F7 JUMPI PUSH1 0x0 DUP1 REVERT JUMPDEST POP JUMP JUMPDEST PUSH2 0x6903 DUP2 PUSH2 0x65EA JUMP JUMPDEST DUP2 EQ PUSH2 0x690E JUMPI PUSH1 0x0 DUP1 REVERT JUMPDEST POP JUMP INVALID LOG2 PUSH5 0x6970667358 0x22 SLT KECCAK256 ADDRESS DUP16 0xD7 0xB0 DUP1 0xB3 COINBASE JUMP GASLIMIT COINBASE 0xEC 0xE7 0xB6 0xC3 CODECOPY PUSH9 0x81F9BA5E8685E433DE 0xCE 0x4F 0xD5 0xB4 SELFDESTRUCT 0xEA EXTCODEHASH PUSH5 0x736F6C6343 STOP ADDMOD SMOD STOP CALLER "
		},
		"gasEstimates": {
			"creation": {
				"codeDepositCost": "5390200",
				"executionCost": "infinite",
				"totalCost": "infinite"
			},
			"external": {
				"Add_Liquidity(uint256,uint256,address)": "infinite",
				"Add_Margin(address,address)": "infinite",
				"B()": "2520",
				"Base_rate()": "2542",
				"Burn_Liquidity(uint256,address)": "infinite",
				"C()": "2497",
				"D()": "2520",
				"D0()": "2517",
				"DOMAIN_SEPARATOR()": "2542",
				"Leverage_Margin()": "2563",
				"Leverage_Max()": "2520",
				"Liquidate(address,address)": "infinite",
				"Liquidation_bonus()": "2495",
				"Liquidation_rate()": "2541",
				"Margin_reserve(uint256)": "infinite",
				"N()": "2496",
				"N_Last()": "2562",
				"PERMIT_TYPEHASH()": "491",
				"Peqx()": "2499",
				"Peqy()": "2561",
				"Perp_close(uint256,uint256,address)": "infinite",
				"Perp_open(uint256,uint256,bool,address)": "infinite",
				"Price_local()": "2519",
				"Set_LeverageMargin(uint256)": "24779",
				"Set_Liquidation_rate(uint256)": "24844",
				"Set_fundingrate_upper(uint256)": "24759",
				"Tick_range()": "2540",
				"Total_Liquidity()": "2563",
				"Total_debt_X()": "2564",
				"Total_debt_Y()": "2497",
				"Total_debttoken_X()": "2518",
				"Total_debttoken_Y()": "2542",
				"True_Liquid_X()": "2497",
				"True_Liquid_X0()": "2562",
				"True_Liquid_Y()": "2497",
				"True_Liquid_Y0()": "2562",
				"X_Coord()": "2519",
				"X_Coord_Last()": "2565",
				"Xeq()": "2497",
				"Xgetp()": "2518",
				"Y_Coord()": "2564",
				"Y_Coord_Last()": "2563",
				"Yeq()": "2564",
				"Ygetp()": "2518",
				"allowance(address,address)": "infinite",
				"approve(address,uint256)": "infinite",
				"balanceOf(address)": "2925",
				"const18()": "2584",
				"debt_index(address,bool)": "infinite",
				"decimals()": "404",
				"factory()": "2626",
				"fee()": "2496",
				"funding_Last()": "2541",
				"funding_x_8h_upper()": "2540",
				"fundingtime_Last()": "2519",
				"initialize(address,address)": "infinite",
				"margin_index(address,uint256)": "infinite",
				"name()": "infinite",
				"nonces(address)": "2905",
				"paying_side_Last()": "2605",
				"permit(address,address,uint256,uint256,uint8,bytes32,bytes32)": "infinite",
				"skim(address)": "infinite",
				"swap(address,uint256,uint256)": "infinite",
				"symbol()": "infinite",
				"tokenX()": "2649",
				"tokenY()": "2669",
				"totalSupply()": "2498",
				"transfer(address,uint256)": "infinite",
				"transferFrom(address,address,uint256)": "infinite"
			},
			"internal": {
				"Getfundingrate()": "infinite",
				"Net_Margin(address)": "infinite",
				"Net_Position(address)": "infinite",
				"Net_debt(address)": "infinite",
				"TradeXToExactY(uint256,uint256,bool)": "infinite",
				"TradeYToExactX(uint256,uint256,bool)": "infinite",
				"Trade_XtoY(uint256,bool)": "infinite",
				"Trade_YtoX(uint256,bool)": "infinite",
				"Virtual_Liquidity_Update()": "infinite",
				"WithdrawMargin(address,address,address,uint256)": "infinite",
				"_safeTransfer(address,address,uint256)": "infinite",
				"refresh_totalbook()": "infinite"
			}
		},
		"methodIdentifiers": {
			"Add_Liquidity(uint256,uint256,address)": "6126deef",
			"Add_Margin(address,address)": "8cf825e7",
			"B()": "32e7c5bf",
			"Base_rate()": "7ed6281b",
			"Burn_Liquidity(uint256,address)": "6665ff11",
			"C()": "83dfe5fd",
			"D()": "0f529ba2",
			"D0()": "f738c74e",
			"DOMAIN_SEPARATOR()": "3644e515",
			"Leverage_Margin()": "9a36e122",
			"Leverage_Max()": "18db9681",
			"Liquidate(address,address)": "c3d81b21",
			"Liquidation_bonus()": "f70f4394",
			"Liquidation_rate()": "8bc1a32f",
			"Margin_reserve(uint256)": "1cbdffd1",
			"N()": "c9e525df",
			"N_Last()": "acd4a7c2",
			"PERMIT_TYPEHASH()": "30adf81f",
			"Peqx()": "00b52645",
			"Peqy()": "fe18f261",
			"Perp_close(uint256,uint256,address)": "4c324e6a",
			"Perp_open(uint256,uint256,bool,address)": "9076ae86",
			"Price_local()": "480c4f7e",
			"Set_LeverageMargin(uint256)": "cfe38a5e",
			"Set_Liquidation_rate(uint256)": "ff2f169e",
			"Set_fundingrate_upper(uint256)": "0bfa68d8",
			"Tick_range()": "d44022db",
			"Total_Liquidity()": "2dd6c254",
			"Total_debt_X()": "2190219e",
			"Total_debt_Y()": "225c2c50",
			"Total_debttoken_X()": "6b3545aa",
			"Total_debttoken_Y()": "139860ee",
			"True_Liquid_X()": "5595d459",
			"True_Liquid_X0()": "79dbf8ea",
			"True_Liquid_Y()": "3c6fe2f4",
			"True_Liquid_Y0()": "ea1797b0",
			"X_Coord()": "84009686",
			"X_Coord_Last()": "0b197615",
			"Xeq()": "8e361389",
			"Xgetp()": "a5aa65b9",
			"Y_Coord()": "36af2f9b",
			"Y_Coord_Last()": "6607e7e8",
			"Yeq()": "80416c02",
			"Ygetp()": "df0ab2c2",
			"allowance(address,address)": "dd62ed3e",
			"approve(address,uint256)": "095ea7b3",
			"balanceOf(address)": "70a08231",
			"const18()": "7e11939a",
			"debt_index(address,bool)": "7e1431be",
			"decimals()": "313ce567",
			"factory()": "c45a0155",
			"fee()": "ddca3f43",
			"funding_Last()": "23ed16b6",
			"funding_x_8h_upper()": "e19a1474",
			"fundingtime_Last()": "5e287d86",
			"initialize(address,address)": "485cc955",
			"margin_index(address,uint256)": "fc69b80f",
			"name()": "06fdde03",
			"nonces(address)": "7ecebe00",
			"paying_side_Last()": "c7d44932",
			"permit(address,address,uint256,uint256,uint8,bytes32,bytes32)": "d505accf",
			"skim(address)": "bc25cf77",
			"swap(address,uint256,uint256)": "9f1d0f59",
			"symbol()": "95d89b41",
			"tokenX()": "16dc165b",
			"tokenY()": "b7d19fc4",
			"totalSupply()": "18160ddd",
			"transfer(address,uint256)": "a9059cbb",
			"transferFrom(address,address,uint256)": "23b872dd"
		}
	},
	"abi": [
		{
			"inputs": [],
			"stateMutability": "nonpayable",
			"type": "constructor"
		},
		{
			"anonymous": false,
			"inputs": [
				{
					"indexed": true,
					"internalType": "address",
					"name": "owner",
					"type": "address"
				},
				{
					"indexed": true,
					"internalType": "address",
					"name": "spender",
					"type": "address"
				},
				{
					"indexed": false,
					"internalType": "uint256",
					"name": "value",
					"type": "uint256"
				}
			],
			"name": "Approval",
			"type": "event"
		},
		{
			"anonymous": false,
			"inputs": [
				{
					"indexed": true,
					"internalType": "address",
					"name": "from",
					"type": "address"
				},
				{
					"indexed": true,
					"internalType": "address",
					"name": "to",
					"type": "address"
				},
				{
					"indexed": false,
					"internalType": "uint256",
					"name": "value",
					"type": "uint256"
				}
			],
			"name": "Transfer",
			"type": "event"
		},
		{
			"inputs": [
				{
					"internalType": "uint256",
					"name": "AddX",
					"type": "uint256"
				},
				{
					"internalType": "uint256",
					"name": "AddY",
					"type": "uint256"
				},
				{
					"internalType": "address",
					"name": "to",
					"type": "address"
				}
			],
			"name": "Add_Liquidity",
			"outputs": [
				{
					"internalType": "uint256",
					"name": "Liquidity",
					"type": "uint256"
				}
			],
			"stateMutability": "nonpayable",
			"type": "function"
		},
		{
			"inputs": [
				{
					"internalType": "address",
					"name": "tokenID",
					"type": "address"
				},
				{
					"internalType": "address",
					"name": "userID",
					"type": "address"
				}
			],
			"name": "Add_Margin",
			"outputs": [],
			"stateMutability": "nonpayable",
			"type": "function"
		},
		{
			"inputs": [],
			"name": "B",
			"outputs": [
				{
					"internalType": "uint256",
					"name": "",
					"type": "uint256"
				}
			],
			"stateMutability": "view",
			"type": "function"
		},
		{
			"inputs": [],
			"name": "Base_rate",
			"outputs": [
				{
					"internalType": "uint256",
					"name": "",
					"type": "uint256"
				}
			],
			"stateMutability": "view",
			"type": "function"
		},
		{
			"inputs": [
				{
					"internalType": "uint256",
					"name": "Liquidity",
					"type": "uint256"
				},
				{
					"internalType": "address",
					"name": "to",
					"type": "address"
				}
			],
			"name": "Burn_Liquidity",
			"outputs": [
				{
					"internalType": "uint256",
					"name": "BurX",
					"type": "uint256"
				},
				{
					"internalType": "uint256",
					"name": "BurY",
					"type": "uint256"
				}
			],
			"stateMutability": "nonpayable",
			"type": "function"
		},
		{
			"inputs": [],
			"name": "C",
			"outputs": [
				{
					"internalType": "uint256",
					"name": "",
					"type": "uint256"
				}
			],
			"stateMutability": "view",
			"type": "function"
		},
		{
			"inputs": [],
			"name": "D",
			"outputs": [
				{
					"internalType": "uint256",
					"name": "",
					"type": "uint256"
				}
			],
			"stateMutability": "view",
			"type": "function"
		},
		{
			"inputs": [],
			"name": "D0",
			"outputs": [
				{
					"internalType": "uint256",
					"name": "",
					"type": "uint256"
				}
			],
			"stateMutability": "view",
			"type": "function"
		},
		{
			"inputs": [],
			"name": "DOMAIN_SEPARATOR",
			"outputs": [
				{
					"internalType": "bytes32",
					"name": "",
					"type": "bytes32"
				}
			],
			"stateMutability": "view",
			"type": "function"
		},
		{
			"inputs": [],
			"name": "Leverage_Margin",
			"outputs": [
				{
					"internalType": "uint256",
					"name": "",
					"type": "uint256"
				}
			],
			"stateMutability": "view",
			"type": "function"
		},
		{
			"inputs": [],
			"name": "Leverage_Max",
			"outputs": [
				{
					"internalType": "uint256",
					"name": "",
					"type": "uint256"
				}
			],
			"stateMutability": "view",
			"type": "function"
		},
		{
			"inputs": [
				{
					"internalType": "address",
					"name": "userID",
					"type": "address"
				},
				{
					"internalType": "address",
					"name": "_to",
					"type": "address"
				}
			],
			"name": "Liquidate",
			"outputs": [],
			"stateMutability": "nonpayable",
			"type": "function"
		},
		{
			"inputs": [],
			"name": "Liquidation_bonus",
			"outputs": [
				{
					"internalType": "uint256",
					"name": "",
					"type": "uint256"
				}
			],
			"stateMutability": "view",
			"type": "function"
		},
		{
			"inputs": [],
			"name": "Liquidation_rate",
			"outputs": [
				{
					"internalType": "uint256",
					"name": "",
					"type": "uint256"
				}
			],
			"stateMutability": "view",
			"type": "function"
		},
		{
			"inputs": [
				{
					"internalType": "uint256",
					"name": "",
					"type": "uint256"
				}
			],
			"name": "Margin_reserve",
			"outputs": [
				{
					"internalType": "uint256",
					"name": "",
					"type": "uint256"
				}
			],
			"stateMutability": "view",
			"type": "function"
		},
		{
			"inputs": [],
			"name": "N",
			"outputs": [
				{
					"internalType": "uint256",
					"name": "",
					"type": "uint256"
				}
			],
			"stateMutability": "view",
			"type": "function"
		},
		{
			"inputs": [],
			"name": "N_Last",
			"outputs": [
				{
					"internalType": "uint256",
					"name": "",
					"type": "uint256"
				}
			],
			"stateMutability": "view",
			"type": "function"
		},
		{
			"inputs": [],
			"name": "PERMIT_TYPEHASH",
			"outputs": [
				{
					"internalType": "bytes32",
					"name": "",
					"type": "bytes32"
				}
			],
			"stateMutability": "view",
			"type": "function"
		},
		{
			"inputs": [],
			"name": "Peqx",
			"outputs": [
				{
					"internalType": "uint256",
					"name": "",
					"type": "uint256"
				}
			],
			"stateMutability": "view",
			"type": "function"
		},
		{
			"inputs": [],
			"name": "Peqy",
			"outputs": [
				{
					"internalType": "uint256",
					"name": "",
					"type": "uint256"
				}
			],
			"stateMutability": "view",
			"type": "function"
		},
		{
			"inputs": [
				{
					"internalType": "uint256",
					"name": "delta_X",
					"type": "uint256"
				},
				{
					"internalType": "uint256",
					"name": "delta_Y",
					"type": "uint256"
				},
				{
					"internalType": "address",
					"name": "userID",
					"type": "address"
				}
			],
			"name": "Perp_close",
			"outputs": [],
			"stateMutability": "nonpayable",
			"type": "function"
		},
		{
			"inputs": [
				{
					"internalType": "uint256",
					"name": "delta_X",
					"type": "uint256"
				},
				{
					"internalType": "uint256",
					"name": "delta_Y",
					"type": "uint256"
				},
				{
					"internalType": "bool",
					"name": "XtoY",
					"type": "bool"
				},
				{
					"internalType": "address",
					"name": "userID",
					"type": "address"
				}
			],
			"name": "Perp_open",
			"outputs": [],
			"stateMutability": "nonpayable",
			"type": "function"
		},
		{
			"inputs": [],
			"name": "Price_local",
			"outputs": [
				{
					"internalType": "uint256",
					"name": "",
					"type": "uint256"
				}
			],
			"stateMutability": "view",
			"type": "function"
		},
		{
			"inputs": [
				{
					"internalType": "uint256",
					"name": "L",
					"type": "uint256"
				}
			],
			"name": "Set_LeverageMargin",
			"outputs": [],
			"stateMutability": "nonpayable",
			"type": "function"
		},
		{
			"inputs": [
				{
					"internalType": "uint256",
					"name": "rate",
					"type": "uint256"
				}
			],
			"name": "Set_Liquidation_rate",
			"outputs": [],
			"stateMutability": "nonpayable",
			"type": "function"
		},
		{
			"inputs": [
				{
					"internalType": "uint256",
					"name": "f",
					"type": "uint256"
				}
			],
			"name": "Set_fundingrate_upper",
			"outputs": [],
			"stateMutability": "nonpayable",
			"type": "function"
		},
		{
			"inputs": [],
			"name": "Tick_range",
			"outputs": [
				{
					"internalType": "uint256",
					"name": "",
					"type": "uint256"
				}
			],
			"stateMutability": "view",
			"type": "function"
		},
		{
			"inputs": [],
			"name": "Total_Liquidity",
			"outputs": [
				{
					"internalType": "uint256",
					"name": "",
					"type": "uint256"
				}
			],
			"stateMutability": "view",
			"type": "function"
		},
		{
			"inputs": [],
			"name": "Total_debt_X",
			"outputs": [
				{
					"internalType": "uint256",
					"name": "",
					"type": "uint256"
				}
			],
			"stateMutability": "view",
			"type": "function"
		},
		{
			"inputs": [],
			"name": "Total_debt_Y",
			"outputs": [
				{
					"internalType": "uint256",
					"name": "",
					"type": "uint256"
				}
			],
			"stateMutability": "view",
			"type": "function"
		},
		{
			"inputs": [],
			"name": "Total_debttoken_X",
			"outputs": [
				{
					"internalType": "uint256",
					"name": "",
					"type": "uint256"
				}
			],
			"stateMutability": "view",
			"type": "function"
		},
		{
			"inputs": [],
			"name": "Total_debttoken_Y",
			"outputs": [
				{
					"internalType": "uint256",
					"name": "",
					"type": "uint256"
				}
			],
			"stateMutability": "view",
			"type": "function"
		},
		{
			"inputs": [],
			"name": "True_Liquid_X",
			"outputs": [
				{
					"internalType": "uint256",
					"name": "",
					"type": "uint256"
				}
			],
			"stateMutability": "view",
			"type": "function"
		},
		{
			"inputs": [],
			"name": "True_Liquid_X0",
			"outputs": [
				{
					"internalType": "uint256",
					"name": "",
					"type": "uint256"
				}
			],
			"stateMutability": "view",
			"type": "function"
		},
		{
			"inputs": [],
			"name": "True_Liquid_Y",
			"outputs": [
				{
					"internalType": "uint256",
					"name": "",
					"type": "uint256"
				}
			],
			"stateMutability": "view",
			"type": "function"
		},
		{
			"inputs": [],
			"name": "True_Liquid_Y0",
			"outputs": [
				{
					"internalType": "uint256",
					"name": "",
					"type": "uint256"
				}
			],
			"stateMutability": "view",
			"type": "function"
		},
		{
			"inputs": [],
			"name": "X_Coord",
			"outputs": [
				{
					"internalType": "uint256",
					"name": "",
					"type": "uint256"
				}
			],
			"stateMutability": "view",
			"type": "function"
		},
		{
			"inputs": [],
			"name": "X_Coord_Last",
			"outputs": [
				{
					"internalType": "uint256",
					"name": "",
					"type": "uint256"
				}
			],
			"stateMutability": "view",
			"type": "function"
		},
		{
			"inputs": [],
			"name": "Xeq",
			"outputs": [
				{
					"internalType": "uint256",
					"name": "",
					"type": "uint256"
				}
			],
			"stateMutability": "view",
			"type": "function"
		},
		{
			"inputs": [],
			"name": "Xgetp",
			"outputs": [
				{
					"internalType": "uint256",
					"name": "",
					"type": "uint256"
				}
			],
			"stateMutability": "view",
			"type": "function"
		},
		{
			"inputs": [],
			"name": "Y_Coord",
			"outputs": [
				{
					"internalType": "uint256",
					"name": "",
					"type": "uint256"
				}
			],
			"stateMutability": "view",
			"type": "function"
		},
		{
			"inputs": [],
			"name": "Y_Coord_Last",
			"outputs": [
				{
					"internalType": "uint256",
					"name": "",
					"type": "uint256"
				}
			],
			"stateMutability": "view",
			"type": "function"
		},
		{
			"inputs": [],
			"name": "Yeq",
			"outputs": [
				{
					"internalType": "uint256",
					"name": "",
					"type": "uint256"
				}
			],
			"stateMutability": "view",
			"type": "function"
		},
		{
			"inputs": [],
			"name": "Ygetp",
			"outputs": [
				{
					"internalType": "uint256",
					"name": "",
					"type": "uint256"
				}
			],
			"stateMutability": "view",
			"type": "function"
		},
		{
			"inputs": [
				{
					"internalType": "address",
					"name": "",
					"type": "address"
				},
				{
					"internalType": "address",
					"name": "",
					"type": "address"
				}
			],
			"name": "allowance",
			"outputs": [
				{
					"internalType": "uint256",
					"name": "",
					"type": "uint256"
				}
			],
			"stateMutability": "view",
			"type": "function"
		},
		{
			"inputs": [
				{
					"internalType": "address",
					"name": "spender",
					"type": "address"
				},
				{
					"internalType": "uint256",
					"name": "value",
					"type": "uint256"
				}
			],
			"name": "approve",
			"outputs": [
				{
					"internalType": "bool",
					"name": "",
					"type": "bool"
				}
			],
			"stateMutability": "nonpayable",
			"type": "function"
		},
		{
			"inputs": [
				{
					"internalType": "address",
					"name": "",
					"type": "address"
				}
			],
			"name": "balanceOf",
			"outputs": [
				{
					"internalType": "uint256",
					"name": "",
					"type": "uint256"
				}
			],
			"stateMutability": "view",
			"type": "function"
		},
		{
			"inputs": [],
			"name": "const18",
			"outputs": [
				{
					"internalType": "uint256",
					"name": "",
					"type": "uint256"
				}
			],
			"stateMutability": "view",
			"type": "function"
		},
		{
			"inputs": [
				{
					"internalType": "address",
					"name": "",
					"type": "address"
				},
				{
					"internalType": "bool",
					"name": "",
					"type": "bool"
				}
			],
			"name": "debt_index",
			"outputs": [
				{
					"internalType": "address",
					"name": "user_ID",
					"type": "address"
				},
				{
					"internalType": "bool",
					"name": "token_ID",
					"type": "bool"
				},
				{
					"internalType": "uint256",
					"name": "debttoken_amount",
					"type": "uint256"
				},
				{
					"internalType": "uint256",
					"name": "position_amount",
					"type": "uint256"
				}
			],
			"stateMutability": "view",
			"type": "function"
		},
		{
			"inputs": [],
			"name": "decimals",
			"outputs": [
				{
					"internalType": "uint8",
					"name": "",
					"type": "uint8"
				}
			],
			"stateMutability": "view",
			"type": "function"
		},
		{
			"inputs": [],
			"name": "factory",
			"outputs": [
				{
					"internalType": "address",
					"name": "",
					"type": "address"
				}
			],
			"stateMutability": "view",
			"type": "function"
		},
		{
			"inputs": [],
			"name": "fee",
			"outputs": [
				{
					"internalType": "uint256",
					"name": "",
					"type": "uint256"
				}
			],
			"stateMutability": "view",
			"type": "function"
		},
		{
			"inputs": [],
			"name": "funding_Last",
			"outputs": [
				{
					"internalType": "uint256",
					"name": "",
					"type": "uint256"
				}
			],
			"stateMutability": "view",
			"type": "function"
		},
		{
			"inputs": [],
			"name": "funding_x_8h_upper",
			"outputs": [
				{
					"internalType": "uint256",
					"name": "",
					"type": "uint256"
				}
			],
			"stateMutability": "view",
			"type": "function"
		},
		{
			"inputs": [],
			"name": "fundingtime_Last",
			"outputs": [
				{
					"internalType": "uint256",
					"name": "",
					"type": "uint256"
				}
			],
			"stateMutability": "view",
			"type": "function"
		},
		{
			"inputs": [
				{
					"internalType": "address",
					"name": "_tokenX",
					"type": "address"
				},
				{
					"internalType": "address",
					"name": "_tokenY",
					"type": "address"
				}
			],
			"name": "initialize",
			"outputs": [],
			"stateMutability": "nonpayable",
			"type": "function"
		},
		{
			"inputs": [
				{
					"internalType": "address",
					"name": "",
					"type": "address"
				},
				{
					"internalType": "uint256",
					"name": "",
					"type": "uint256"
				}
			],
			"name": "margin_index",
			"outputs": [
				{
					"internalType": "uint256",
					"name": "",
					"type": "uint256"
				}
			],
			"stateMutability": "view",
			"type": "function"
		},
		{
			"inputs": [],
			"name": "name",
			"outputs": [
				{
					"internalType": "string",
					"name": "",
					"type": "string"
				}
			],
			"stateMutability": "view",
			"type": "function"
		},
		{
			"inputs": [
				{
					"internalType": "address",
					"name": "",
					"type": "address"
				}
			],
			"name": "nonces",
			"outputs": [
				{
					"internalType": "uint256",
					"name": "",
					"type": "uint256"
				}
			],
			"stateMutability": "view",
			"type": "function"
		},
		{
			"inputs": [],
			"name": "paying_side_Last",
			"outputs": [
				{
					"internalType": "bool",
					"name": "",
					"type": "bool"
				}
			],
			"stateMutability": "view",
			"type": "function"
		},
		{
			"inputs": [
				{
					"internalType": "address",
					"name": "owner",
					"type": "address"
				},
				{
					"internalType": "address",
					"name": "spender",
					"type": "address"
				},
				{
					"internalType": "uint256",
					"name": "value",
					"type": "uint256"
				},
				{
					"internalType": "uint256",
					"name": "deadline",
					"type": "uint256"
				},
				{
					"internalType": "uint8",
					"name": "v",
					"type": "uint8"
				},
				{
					"internalType": "bytes32",
					"name": "r",
					"type": "bytes32"
				},
				{
					"internalType": "bytes32",
					"name": "s",
					"type": "bytes32"
				}
			],
			"name": "permit",
			"outputs": [],
			"stateMutability": "nonpayable",
			"type": "function"
		},
		{
			"inputs": [
				{
					"internalType": "address",
					"name": "to",
					"type": "address"
				}
			],
			"name": "skim",
			"outputs": [],
			"stateMutability": "nonpayable",
			"type": "function"
		},
		{
			"inputs": [
				{
					"internalType": "address",
					"name": "to",
					"type": "address"
				},
				{
					"internalType": "uint256",
					"name": "Xout",
					"type": "uint256"
				},
				{
					"internalType": "uint256",
					"name": "Yout",
					"type": "uint256"
				}
			],
			"name": "swap",
			"outputs": [],
			"stateMutability": "nonpayable",
			"type": "function"
		},
		{
			"inputs": [],
			"name": "symbol",
			"outputs": [
				{
					"internalType": "string",
					"name": "",
					"type": "string"
				}
			],
			"stateMutability": "view",
			"type": "function"
		},
		{
			"inputs": [],
			"name": "tokenX",
			"outputs": [
				{
					"internalType": "address",
					"name": "",
					"type": "address"
				}
			],
			"stateMutability": "view",
			"type": "function"
		},
		{
			"inputs": [],
			"name": "tokenY",
			"outputs": [
				{
					"internalType": "address",
					"name": "",
					"type": "address"
				}
			],
			"stateMutability": "view",
			"type": "function"
		},
		{
			"inputs": [],
			"name": "totalSupply",
			"outputs": [
				{
					"internalType": "uint256",
					"name": "",
					"type": "uint256"
				}
			],
			"stateMutability": "view",
			"type": "function"
		},
		{
			"inputs": [
				{
					"internalType": "address",
					"name": "to",
					"type": "address"
				},
				{
					"internalType": "uint256",
					"name": "value",
					"type": "uint256"
				}
			],
			"name": "transfer",
			"outputs": [
				{
					"internalType": "bool",
					"name": "",
					"type": "bool"
				}
			],
			"stateMutability": "nonpayable",
			"type": "function"
		},
		{
			"inputs": [
				{
					"internalType": "address",
					"name": "from",
					"type": "address"
				},
				{
					"internalType": "address",
					"name": "to",
					"type": "address"
				},
				{
					"internalType": "uint256",
					"name": "value",
					"type": "uint256"
				}
			],
			"name": "transferFrom",
			"outputs": [
				{
					"internalType": "bool",
					"name": "",
					"type": "bool"
				}
			],
			"stateMutability": "nonpayable",
			"type": "function"
		}
	]
}