{
	"data": {
		"bytecode": {
			"linkReferences": {},
			"object": "6080604052670de0b6b3a764000060215560016029556000602a60006101000a81548160ff021916908360ff1602179055503480156200003e57600080fd5b5060004690507f8b73c3c69bb8fe3d512ecc4cf759cc79239f7b179b0ffacaa9a75d522b39400f6040518060400160405280600a81526020017f556e697377617020563200000000000000000000000000000000000000000000815250805190602001206040518060400160405280600181526020017f3100000000000000000000000000000000000000000000000000000000000000815250805190602001208330604051602001620000f79594939291906200018e565b604051602081830303815290604052805190602001206003819055505033601b60006101000a81548173ffffffffffffffffffffffffffffffffffffffff021916908373ffffffffffffffffffffffffffffffffffffffff16021790555062000233565b6200016681620001eb565b82525050565b6200017781620001ff565b82525050565b620001888162000229565b82525050565b600060a082019050620001a560008301886200016c565b620001b460208301876200016c565b620001c360408301866200016c565b620001d260608301856200017d565b620001e160808301846200015b565b9695505050505050565b6000620001f88262000209565b9050919050565b6000819050919050565b600073ffffffffffffffffffffffffffffffffffffffff82169050919050565b6000819050919050565b614ce380620002436000396000f3fe608060405234801561001057600080fd5b506004361061043e5760003560e01c80637e11939a11610236578063bc25cf771161013b578063e0ba7223116100c3578063f13c7aed11610087578063f13c7aed14610cf9578063f738c74e14610d17578063f92e82b014610d35578063fcbc49a014610d53578063fdcfc3ef14610d715761043e565b8063e0ba722314610c55578063e159394f14610c71578063e3412e3d14610c8f578063eeea909f14610cbf578063ef0348fd14610cdb5761043e565b8063d505accf1161010a578063d505accf14610bb3578063d6ce29ae14610bcf578063d873fa7b14610beb578063db35944f14610c09578063dd62ed3e14610c255761043e565b8063bc25cf7714610b3d578063be6571aa14610b59578063c45a015514610b77578063c556c36314610b955761043e565b8063a01fbbf5116101be578063a9059cbb1161018d578063a9059cbb14610a99578063ade446d214610ac9578063b66179de14610ae5578063b7d19fc414610b01578063b868504b14610b1f5761043e565b8063a01fbbf514610a21578063a37b191814610a3f578063a71e864414610a5d578063a79e6f9c14610a7b5761043e565b80638c4008e9116102055780638c4008e91461098f5780638ca63e6f146109ad57806395d89b41146109cb5780639cc8df77146109e95780639f1d0f5914610a055761043e565b80637e11939a146108f25780637e401aca146109105780637ecebe0014610941578063803042ac146109715761043e565b806332e7c5bf1161034757806354cf2aeb116102cf57806377fef0681161029357806377fef068146108605780637b7c1f4c1461087e5780637bb1128a1461089c5780637bb62450146108b85780637bbc292a146108d65761043e565b806354cf2aeb146107b85780635784c8c4146107d657806362ab1a77146107f457806370a0823114610812578063713370fc146108425761043e565b80633fbb0e9b116103165780633fbb0e9b1461072a5780634582b98814610746578063485cc955146107625780634bac6c471461077e5780635091fadd1461079a5761043e565b806332e7c5bf146106a257806334e19907146106c05780633644e515146106dc578063367401db146106fa5761043e565b806328842d4f116103ca5780632f1d9842116103995780632f1d98421461060e57806330adf81f1461062a578063313ce5671461064857806331fa66b214610666578063321d7fa9146106845761043e565b806328842d4f1461058757806329baf8d9146105a35780632c4426ad146105c15780632dafca56146105f25761043e565b80630f529ba2116104115780630f529ba2146104df57806315770f92146104fd57806316dc165b1461051b57806318160ddd1461053957806323b872dd146105575761043e565b806306fdde03146104435780630751a6c814610461578063095ea7b31461047f5780630e449559146104af575b600080fd5b61044b610d8d565b60405161045891906144cf565b60405180910390f35b610469610dc6565b60405161047691906145b1565b60405180910390f35b61049960048036038101906104949190613ec4565b610dcc565b6040516104a691906143f3565b60405180910390f35b6104c960048036038101906104c49190613fb1565b610de3565b6040516104d691906145b1565b60405180910390f35b6104e7610dfe565b6040516104f491906145b1565b60405180910390f35b610505610e04565b60405161051291906145b1565b60405180910390f35b610523610e0a565b6040516105309190614341565b60405180910390f35b610541610e30565b60405161054e91906145b1565b60405180910390f35b610571600480360381019061056c9190613d8f565b610e36565b60405161057e91906143f3565b60405180910390f35b6105a1600480360381019061059c9190613fb1565b610fe3565b005b6105ab611047565b6040516105b891906145b1565b60405180910390f35b6105db60048036038101906105d69190613e84565b61104d565b6040516105e9929190614603565b60405180910390f35b61060c60048036038101906106079190613f57565b61107e565b005b61062860048036038101906106239190613fb1565b6110f5565b005b610632611159565b60405161063f919061440e565b60405180910390f35b610650611180565b60405161065d91906146a8565b60405180910390f35b61066e611185565b60405161067b91906143f3565b60405180910390f35b61068c611198565b60405161069991906145b1565b60405180910390f35b6106aa61119e565b6040516106b791906145b1565b60405180910390f35b6106da60048036038101906106d59190613fb1565b6111a4565b005b6106e4611208565b6040516106f1919061440e565b60405180910390f35b610714600480360381019061070f9190613ec4565b61120e565b60405161072191906145b1565b60405180910390f35b610744600480360381019061073f9190613ce8565b611236565b005b610760600480360381019061075b9190613fb1565b6114d3565b005b61077c60048036038101906107779190613ce8565b611537565b005b6107986004803603810190610793919061409e565b611617565b005b6107a2611796565b6040516107af91906145b1565b60405180910390f35b6107c061179c565b6040516107cd91906145b1565b60405180910390f35b6107de6117a2565b6040516107eb91906145b1565b60405180910390f35b6107fc6117a8565b6040516108099190614341565b60405180910390f35b61082c60048036038101906108279190613cbb565b6117ce565b60405161083991906145b1565b60405180910390f35b61084a6117e6565b60405161085791906145b1565b60405180910390f35b6108686117ec565b60405161087591906145b1565b60405180910390f35b6108866117f2565b60405161089391906145b1565b60405180910390f35b6108b660048036038101906108b19190613fb1565b6117f8565b005b6108c061185c565b6040516108cd91906145b1565b60405180910390f35b6108f060048036038101906108eb9190614105565b611862565b005b6108fa6118da565b60405161090791906145b1565b60405180910390f35b61092a6004803603810190610925919061400b565b6118e0565b604051610938929190614603565b60405180910390f35b61095b60048036038101906109569190613cbb565b611a53565b60405161096891906145b1565b60405180910390f35b610979611a6b565b60405161098691906145b1565b60405180910390f35b610997611a71565b6040516109a491906145b1565b60405180910390f35b6109b5611a77565b6040516109c291906145b1565b60405180910390f35b6109d3611a7d565b6040516109e091906144cf565b60405180910390f35b610a0360048036038101906109fe9190613fb1565b611ab6565b005b610a1f6004803603810190610a1a9190613f04565b611b1a565b005b610a29611ff4565b604051610a3691906145b1565b60405180910390f35b610a47611ffa565b604051610a5491906145b1565b60405180910390f35b610a65612000565b604051610a7291906145b1565b60405180910390f35b610a83612006565b604051610a9091906143f3565b60405180910390f35b610ab36004803603810190610aae9190613ec4565b612019565b604051610ac091906143f3565b60405180910390f35b610ae36004803603810190610ade9190613fb1565b612030565b005b610aff6004803603810190610afa9190613fb1565b612094565b005b610b096120f8565b604051610b169190614341565b60405180910390f35b610b2761211e565b604051610b3491906145b1565b60405180910390f35b610b576004803603810190610b529190613cbb565b612124565b005b610b61612386565b604051610b6e91906145b1565b60405180910390f35b610b7f61238c565b604051610b8c9190614341565b60405180910390f35b610b9d6123b2565b604051610baa91906145b1565b60405180910390f35b610bcd6004803603810190610bc89190613de2565b6123b8565b005b610be96004803603810190610be4919061404b565b6125e0565b005b610bf361275c565b604051610c0091906145b1565b60405180910390f35b610c236004803603810190610c1e9190613ce8565b612762565b005b610c3f6004803603810190610c3a9190613ce8565b6128db565b604051610c4c91906145b1565b60405180910390f35b610c6f6004803603810190610c6a9190613d28565b612900565b005b610c79612a7f565b604051610c8691906145b1565b60405180910390f35b610ca96004803603810190610ca49190613cbb565b612a85565b604051610cb691906145b1565b60405180910390f35b610cd96004803603810190610cd4919061404b565b612dee565b005b610ce3612f6a565b604051610cf091906145b1565b60405180910390f35b610d01612f70565b604051610d0e91906145b1565b60405180910390f35b610d1f612f76565b604051610d2c91906145b1565b60405180910390f35b610d3d612f7c565b604051610d4a91906145b1565b60405180910390f35b610d5b612f82565b604051610d6891906145b1565b60405180910390f35b610d8b6004803603810190610d869190613cbb565b612f88565b005b6040518060400160405280600a81526020017f556e69737761702056320000000000000000000000000000000000000000000081525081565b60165481565b6000610dd9338484613026565b6001905092915050565b602b8160028110610df357600080fd5b016000915090505481565b60065481565b601f5481565b601c60009054906101000a900473ffffffffffffffffffffffffffffffffffffffff1681565b60005481565b6000610101600260008673ffffffffffffffffffffffffffffffffffffffff1673ffffffffffffffffffffffffffffffffffffffff16815260200190815260200160002060003373ffffffffffffffffffffffffffffffffffffffff1673ffffffffffffffffffffffffffffffffffffffff1681526020019081526020016000205414610fcd57610f4c82600260008773ffffffffffffffffffffffffffffffffffffffff1673ffffffffffffffffffffffffffffffffffffffff16815260200190815260200160002060003373ffffffffffffffffffffffffffffffffffffffff1673ffffffffffffffffffffffffffffffffffffffff1681526020019081526020016000205461311190919063ffffffff16565b600260008673ffffffffffffffffffffffffffffffffffffffff1673ffffffffffffffffffffffffffffffffffffffff16815260200190815260200160002060003373ffffffffffffffffffffffffffffffffffffffff1673ffffffffffffffffffffffffffffffffffffffff168152602001908152602001600020819055505b610fd884848461316a565b600190509392505050565b601b60009054906101000a900473ffffffffffffffffffffffffffffffffffffffff1673ffffffffffffffffffffffffffffffffffffffff163373ffffffffffffffffffffffffffffffffffffffff161461103d57600080fd5b8060238190555050565b60125481565b602d602052816000526040600020602052806000526040600020600091509150508060000154908060010154905082565b601b60009054906101000a900473ffffffffffffffffffffffffffffffffffffffff1673ffffffffffffffffffffffffffffffffffffffff163373ffffffffffffffffffffffffffffffffffffffff16146110d857600080fd5b80602860006101000a81548160ff02191690831515021790555050565b601b60009054906101000a900473ffffffffffffffffffffffffffffffffffffffff1673ffffffffffffffffffffffffffffffffffffffff163373ffffffffffffffffffffffffffffffffffffffff161461114f57600080fd5b80601e8190555050565b7f6e71edae12b1b97f4d1f60370fef10105fa2faae0126114a169c64845d6126c960001b81565b601281565b602860009054906101000a900460ff1681565b60185481565b60055481565b601b60009054906101000a900473ffffffffffffffffffffffffffffffffffffffff1673ffffffffffffffffffffffffffffffffffffffff163373ffffffffffffffffffffffffffffffffffffffff16146111fe57600080fd5b8060268190555050565b60035481565b602e602052816000526040600020816002811061122a57600080fd5b01600091509150505481565b60008273ffffffffffffffffffffffffffffffffffffffff166370a08231306040518263ffffffff1660e01b81526004016112719190614341565b60206040518083038186803b15801561128957600080fd5b505afa15801561129d573d6000803e3d6000fd5b505050506040513d601f19601f820116820180604052508101906112c19190613fde565b9050601d60009054906101000a900473ffffffffffffffffffffffffffffffffffffffff1673ffffffffffffffffffffffffffffffffffffffff168373ffffffffffffffffffffffffffffffffffffffff16148015611333575060011515602860009054906101000a900460ff161515145b1561140557602b60016002811061134d5761134c614ac9565b5b01546011548261135d9190614952565b6113679190614952565b905080602e60008473ffffffffffffffffffffffffffffffffffffffff1673ffffffffffffffffffffffffffffffffffffffff1681526020019081526020016000206001600281106113bc576113bb614ac9565b5b0160008282546113cc9190614700565b9250508190555080602b6001600281106113e9576113e8614ac9565b5b0160008282546113f99190614700565b925050819055506114ce565b602b60006002811061141a57611419614ac9565b5b01546010548261142a9190614952565b6114349190614952565b905080602e60008473ffffffffffffffffffffffffffffffffffffffff1673ffffffffffffffffffffffffffffffffffffffff16815260200190815260200160002060006002811061148957611488614ac9565b5b0160008282546114999190614700565b9250508190555080602b6000600281106114b6576114b5614ac9565b5b0160008282546114c69190614700565b925050819055505b505050565b601b60009054906101000a900473ffffffffffffffffffffffffffffffffffffffff1673ffffffffffffffffffffffffffffffffffffffff163373ffffffffffffffffffffffffffffffffffffffff161461152d57600080fd5b8060278190555050565b601b60009054906101000a900473ffffffffffffffffffffffffffffffffffffffff1673ffffffffffffffffffffffffffffffffffffffff163373ffffffffffffffffffffffffffffffffffffffff161461159157600080fd5b81601c60006101000a81548173ffffffffffffffffffffffffffffffffffffffff021916908373ffffffffffffffffffffffffffffffffffffffff16021790555080601d60006101000a81548173ffffffffffffffffffffffffffffffffffffffff021916908373ffffffffffffffffffffffffffffffffffffffff1602179055505050565b60016029541461165c576040517f08c379a000000000000000000000000000000000000000000000000000000000815260040161165390614591565b60405180910390fd5b6000602981905550600080602260009054906101000a900473ffffffffffffffffffffffffffffffffffffffff1673ffffffffffffffffffffffffffffffffffffffff16868686866040516024016116b79493929190614663565b6040516020818303038152906040527f17dc42ab000000000000000000000000000000000000000000000000000000007bffffffffffffffffffffffffffffffffffffffffffffffffffffffff19166020820180517bffffffffffffffffffffffffffffffffffffffffffffffffffffffff838183161783525050505060405161174191906142f3565b600060405180830381855af49150503d806000811461177c576040519150601f19603f3d011682016040523d82523d6000602084013e611781565b606091505b50915091505050600160298190555050505050565b60115481565b60265481565b60275481565b602260009054906101000a900473ffffffffffffffffffffffffffffffffffffffff1681565b60016020528060005260406000206000915090505481565b600e5481565b600c5481565b60235481565b601b60009054906101000a900473ffffffffffffffffffffffffffffffffffffffff1673ffffffffffffffffffffffffffffffffffffffff163373ffffffffffffffffffffffffffffffffffffffff161461185257600080fd5b8060248190555050565b60135481565b601b60009054906101000a900473ffffffffffffffffffffffffffffffffffffffff1673ffffffffffffffffffffffffffffffffffffffff163373ffffffffffffffffffffffffffffffffffffffff16146118bc57600080fd5b80602a60006101000a81548160ff021916908360ff16021790555050565b60215481565b600080600160295414611928576040517f08c379a000000000000000000000000000000000000000000000000000000000815260040161191f90614591565b60405180910390fd5b600060298190555061193f84601054601f546132fe565b915061195084601154601f546132fe565b905061196e600854836010546119669190614952565b6010546132fe565b600881905550611990600954826011546119889190614952565b6011546132fe565b600981905550816010546119a49190614952565b601081905550806011546119b89190614952565b60118190555083601f546119cc9190614952565b601f819055506119dc3085613320565b611a09601c60009054906101000a900473ffffffffffffffffffffffffffffffffffffffff16848461343a565b611a36601d60009054906101000a900473ffffffffffffffffffffffffffffffffffffffff16848361343a565b611a3e6135c4565b60068190555060016029819055509250929050565b60046020528060005260406000206000915090505481565b60155481565b60095481565b60085481565b6040518060400160405280600681526020017f554e492d5632000000000000000000000000000000000000000000000000000081525081565b601b60009054906101000a900473ffffffffffffffffffffffffffffffffffffffff1673ffffffffffffffffffffffffffffffffffffffff163373ffffffffffffffffffffffffffffffffffffffff1614611b1057600080fd5b8060208190555050565b600160295414611b5f576040517f08c379a0000000000000000000000000000000000000000000000000000000008152600401611b5690614591565b60405180910390fd5b6000602981905550600082148015611b78575060115481105b80611b905750600081148015611b8f575060115482105b5b611b9957600080fd5b6000602b600060028110611bb057611baf614ac9565b5b0154601054611bbf9190614700565b601c60009054906101000a900473ffffffffffffffffffffffffffffffffffffffff1673ffffffffffffffffffffffffffffffffffffffff166370a08231306040518263ffffffff1660e01b8152600401611c1a9190614341565b60206040518083038186803b158015611c3257600080fd5b505afa158015611c46573d6000803e3d6000fd5b505050506040513d601f19601f82011682018060405250810190611c6a9190613fde565b611c749190614952565b90506000602b600160028110611c8d57611c8c614ac9565b5b0154601154611c9c9190614700565b601d60009054906101000a900473ffffffffffffffffffffffffffffffffffffffff1673ffffffffffffffffffffffffffffffffffffffff166370a08231306040518263ffffffff1660e01b8152600401611cf79190614341565b60206040518083038186803b158015611d0f57600080fd5b505afa158015611d23573d6000803e3d6000fd5b505050506040513d601f19601f82011682018060405250810190611d479190613fde565b611d519190614952565b90506000821180611d625750600081115b611d6b57600080fd5b670de0b6b3a7640000602654670de0b6b3a7640000611d8a9190614952565b611d949190614756565b82611d9f91906148f8565b9150670de0b6b3a7640000602654670de0b6b3a7640000611dc09190614952565b611dca9190614756565b81611dd591906148f8565b90506000841115611e5557611e23601d60009054906101000a900473ffffffffffffffffffffffffffffffffffffffff1686611e1384600089613623565b84611e1e9190614952565b61343a565b611e50601c60009054906101000a900473ffffffffffffffffffffffffffffffffffffffff16868661343a565b611f59565b6000831115611ed357611ea1601c60009054906101000a900473ffffffffffffffffffffffffffffffffffffffff1686611e91856000886137b9565b85611e9c9190614952565b61343a565b611ece601d60009054906101000a900473ffffffffffffffffffffffffffffffffffffffff16868561343a565b611f58565b6000821115611f1557611f14601d60009054906101000a900473ffffffffffffffffffffffffffffffffffffffff1686611f0f856000806137b9565b61343a565b5b6000811115611f5757611f56601c60009054906101000a900473ffffffffffffffffffffffffffffffffffffffff1686611f5184600080613623565b61343a565b5b5b5b602654670de0b6b3a7640000611f6f9190614952565b60265483611f7d91906148f8565b611f879190614756565b60106000828254611f989190614700565b92505081905550602654670de0b6b3a7640000611fb59190614952565b60265482611fc391906148f8565b611fcd9190614756565b60116000828254611fde9190614700565b9250508190555050506001602981905550505050565b60145481565b600b5481565b60205481565b601960009054906101000a900460ff1681565b600061202633848461316a565b6001905092915050565b601b60009054906101000a900473ffffffffffffffffffffffffffffffffffffffff1673ffffffffffffffffffffffffffffffffffffffff163373ffffffffffffffffffffffffffffffffffffffff161461208a57600080fd5b80601a8190555050565b601b60009054906101000a900473ffffffffffffffffffffffffffffffffffffffff1673ffffffffffffffffffffffffffffffffffffffff163373ffffffffffffffffffffffffffffffffffffffff16146120ee57600080fd5b8060258190555050565b601d60009054906101000a900473ffffffffffffffffffffffffffffffffffffffff1681565b60105481565b600160295414612169576040517f08c379a000000000000000000000000000000000000000000000000000000000815260040161216090614591565b60405180910390fd5b6000602981905550612276601c60009054906101000a900473ffffffffffffffffffffffffffffffffffffffff1682602b6000600281106121ad576121ac614ac9565b5b01546010546121bc9190614700565b601c60009054906101000a900473ffffffffffffffffffffffffffffffffffffffff1673ffffffffffffffffffffffffffffffffffffffff166370a08231306040518263ffffffff1660e01b81526004016122179190614341565b60206040518083038186803b15801561222f57600080fd5b505afa158015612243573d6000803e3d6000fd5b505050506040513d601f19601f820116820180604052508101906122679190613fde565b6122719190614952565b61343a565b61237b601d60009054906101000a900473ffffffffffffffffffffffffffffffffffffffff1682602b6001600281106122b2576122b1614ac9565b5b01546011546122c19190614700565b601d60009054906101000a900473ffffffffffffffffffffffffffffffffffffffff1673ffffffffffffffffffffffffffffffffffffffff166370a08231306040518263ffffffff1660e01b815260040161231c9190614341565b60206040518083038186803b15801561233457600080fd5b505afa158015612348573d6000803e3d6000fd5b505050506040513d601f19601f8201168201806040525081019061236c9190613fde565b6123769190614952565b61343a565b600160298190555050565b600a5481565b601b60009054906101000a900473ffffffffffffffffffffffffffffffffffffffff1681565b601a5481565b428410156123fb576040517f08c379a00000000000000000000000000000000000000000000000000000000081526004016123f290614551565b60405180910390fd5b60006003547f6e71edae12b1b97f4d1f60370fef10105fa2faae0126114a169c64845d6126c960001b898989600460008e73ffffffffffffffffffffffffffffffffffffffff1673ffffffffffffffffffffffffffffffffffffffff168152602001908152602001600020600081548092919061247790614a18565b919050558a60405160200161249196959493929190614429565b604051602081830303815290604052805190602001206040516020016124b892919061430a565b6040516020818303038152906040528051906020012090506000600182868686604051600081526020016040526040516124f5949392919061448a565b6020604051602081039080840390855afa158015612517573d6000803e3d6000fd5b505050602060405103519050600073ffffffffffffffffffffffffffffffffffffffff168173ffffffffffffffffffffffffffffffffffffffff161415801561258b57508873ffffffffffffffffffffffffffffffffffffffff168173ffffffffffffffffffffffffffffffffffffffff16145b6125ca576040517f08c379a00000000000000000000000000000000000000000000000000000000081526004016125c190614511565b60405180910390fd5b6125d5898989613026565b505050505050505050565b600160295414612625576040517f08c379a000000000000000000000000000000000000000000000000000000000815260040161261c90614591565b60405180910390fd5b6000602981905550600080602260009054906101000a900473ffffffffffffffffffffffffffffffffffffffff1673ffffffffffffffffffffffffffffffffffffffff1685858560405160240161267e9392919061462c565b6040516020818303038152906040527f04a13a9a000000000000000000000000000000000000000000000000000000007bffffffffffffffffffffffffffffffffffffffffffffffffffffffff19166020820180517bffffffffffffffffffffffffffffffffffffffffffffffffffffffff838183161783525050505060405161270891906142f3565b600060405180830381855af49150503d8060008114612743576040519150601f19603f3d011682016040523d82523d6000602084013e612748565b606091505b509150915050506001602981905550505050565b600d5481565b6001602954146127a7576040517f08c379a000000000000000000000000000000000000000000000000000000000815260040161279e90614591565b60405180910390fd5b6000602981905550600080602260009054906101000a900473ffffffffffffffffffffffffffffffffffffffff1673ffffffffffffffffffffffffffffffffffffffff1684846040516024016127fe92919061435c565b6040516020818303038152906040527fbf3e6a6f000000000000000000000000000000000000000000000000000000007bffffffffffffffffffffffffffffffffffffffffffffffffffffffff19166020820180517bffffffffffffffffffffffffffffffffffffffffffffffffffffffff838183161783525050505060405161288891906142f3565b600060405180830381855af49150503d80600081146128c3576040519150601f19603f3d011682016040523d82523d6000602084013e6128c8565b606091505b5091509150505060016029819055505050565b6002602052816000526040600020602052806000526040600020600091509150505481565b600160295414612945576040517f08c379a000000000000000000000000000000000000000000000000000000000815260040161293c90614591565b60405180910390fd5b6000602981905550600080602260009054906101000a900473ffffffffffffffffffffffffffffffffffffffff1673ffffffffffffffffffffffffffffffffffffffff16868686866040516024016129a09493929190614385565b6040516020818303038152906040527f2f0ddf43000000000000000000000000000000000000000000000000000000007bffffffffffffffffffffffffffffffffffffffffffffffffffffffff19166020820180517bffffffffffffffffffffffffffffffffffffffffffffffffffffffff8381831617835250505050604051612a2a91906142f3565b600060405180830381855af49150503d8060008114612a65576040519150601f19603f3d011682016040523d82523d6000602084013e612a6a565b606091505b50915091505050600160298190555050505050565b600f5481565b6000600160295414612acc576040517f08c379a0000000000000000000000000000000000000000000000000000000008152600401612ac390614591565b60405180910390fd5b60006029819055506000602b600060028110612aeb57612aea614ac9565b5b0154601054612afa9190614700565b601c60009054906101000a900473ffffffffffffffffffffffffffffffffffffffff1673ffffffffffffffffffffffffffffffffffffffff166370a08231306040518263ffffffff1660e01b8152600401612b559190614341565b60206040518083038186803b158015612b6d57600080fd5b505afa158015612b81573d6000803e3d6000fd5b505050506040513d601f19601f82011682018060405250810190612ba59190613fde565b612baf9190614952565b90506000602b600160028110612bc857612bc7614ac9565b5b0154601154612bd79190614700565b601d60009054906101000a900473ffffffffffffffffffffffffffffffffffffffff1673ffffffffffffffffffffffffffffffffffffffff166370a08231306040518263ffffffff1660e01b8152600401612c329190614341565b60206040518083038186803b158015612c4a57600080fd5b505afa158015612c5e573d6000803e3d6000fd5b505050506040513d601f19601f82011682018060405250810190612c829190613fde565b612c8c9190614952565b90506000601f541415612d1e57602154600581905550602154600681905550600654600781905550602154600881905550602154600981905550816002602154612cd691906147da565b612ce09190614756565b600a81905550806002602154612cf691906147da565b612d009190614756565b600b8190555081600e8190555080600f819055506021549250612d8b565b612d3a60085483601054612d329190614700565b6010546132fe565b600881905550612d5c60095482601154612d549190614700565b6011546132fe565b600981905550612d88612d74601f54846010546132fe565b612d83601f54846011546132fe565b61394f565b92505b82601f54612d999190614700565b601f8190555081601054612dad9190614700565b60108190555080601154612dc19190614700565b601181905550612dd18484613968565b612dd96135c4565b60068190555050506001602981905550919050565b600160295414612e33576040517f08c379a0000000000000000000000000000000000000000000000000000000008152600401612e2a90614591565b60405180910390fd5b6000602981905550600080602260009054906101000a900473ffffffffffffffffffffffffffffffffffffffff1673ffffffffffffffffffffffffffffffffffffffff16858585604051602401612e8c9392919061462c565b6040516020818303038152906040527f2e411dca000000000000000000000000000000000000000000000000000000007bffffffffffffffffffffffffffffffffffffffffffffffffffffffff19166020820180517bffffffffffffffffffffffffffffffffffffffffffffffffffffffff8381831617835250505050604051612f1691906142f3565b600060405180830381855af49150503d8060008114612f51576040519150601f19603f3d011682016040523d82523d6000602084013e612f56565b606091505b509150915050506001602981905550505050565b60255481565b601e5481565b60075481565b60245481565b60175481565b601b60009054906101000a900473ffffffffffffffffffffffffffffffffffffffff1673ffffffffffffffffffffffffffffffffffffffff163373ffffffffffffffffffffffffffffffffffffffff1614612fe257600080fd5b80602260006101000a81548173ffffffffffffffffffffffffffffffffffffffff021916908373ffffffffffffffffffffffffffffffffffffffff16021790555050565b80600260008573ffffffffffffffffffffffffffffffffffffffff1673ffffffffffffffffffffffffffffffffffffffff16815260200190815260200160002060008473ffffffffffffffffffffffffffffffffffffffff1673ffffffffffffffffffffffffffffffffffffffff168152602001908152602001600020819055508173ffffffffffffffffffffffffffffffffffffffff168373ffffffffffffffffffffffffffffffffffffffff167f8c5be1e5ebec7d5bd14f71427d1e84f3dd0314c0f7b2291e5b200ac8c7c3b9258360405161310491906145b1565b60405180910390a3505050565b60008282846131209190614952565b9150811115613164576040517f08c379a000000000000000000000000000000000000000000000000000000000815260040161315b906144f1565b60405180910390fd5b92915050565b6131bc81600160008673ffffffffffffffffffffffffffffffffffffffff1673ffffffffffffffffffffffffffffffffffffffff1681526020019081526020016000205461311190919063ffffffff16565b600160008573ffffffffffffffffffffffffffffffffffffffff1673ffffffffffffffffffffffffffffffffffffffff1681526020019081526020016000208190555061325181600160008573ffffffffffffffffffffffffffffffffffffffff1673ffffffffffffffffffffffffffffffffffffffff16815260200190815260200160002054613a8290919063ffffffff16565b600160008473ffffffffffffffffffffffffffffffffffffffff1673ffffffffffffffffffffffffffffffffffffffff168152602001908152602001600020819055508173ffffffffffffffffffffffffffffffffffffffff168373ffffffffffffffffffffffffffffffffffffffff167fddf252ad1be2c89b69c2b068fc378daa952ba7f163c4a11628f55a4df523b3ef836040516132f191906145b1565b60405180910390a3505050565b600081838561330d91906148f8565b6133179190614756565b90509392505050565b61337281600160008573ffffffffffffffffffffffffffffffffffffffff1673ffffffffffffffffffffffffffffffffffffffff1681526020019081526020016000205461311190919063ffffffff16565b600160008473ffffffffffffffffffffffffffffffffffffffff1673ffffffffffffffffffffffffffffffffffffffff168152602001908152602001600020819055506133ca8160005461311190919063ffffffff16565b600081905550600073ffffffffffffffffffffffffffffffffffffffff168273ffffffffffffffffffffffffffffffffffffffff167fddf252ad1be2c89b69c2b068fc378daa952ba7f163c4a11628f55a4df523b3ef8360405161342e91906145b1565b60405180910390a35050565b6000808473ffffffffffffffffffffffffffffffffffffffff166040518060400160405280601981526020017f7472616e7366657228616464726573732c75696e7432353629000000000000008152508051906020012085856040516024016134a49291906143ca565b604051602081830303815290604052907bffffffffffffffffffffffffffffffffffffffffffffffffffffffff19166020820180517bffffffffffffffffffffffffffffffffffffffffffffffffffffffff838183161783525050505060405161350e91906142f3565b6000604051808303816000865af19150503d806000811461354b576040519150601f19603f3d011682016040523d82523d6000602084013e613550565b606091505b509150915081801561357e575060008151148061357d57508080602001905181019061357c9190613f84565b5b5b6135bd576040517f08c379a00000000000000000000000000000000000000000000000000000000081526004016135b490614571565b60405180910390fd5b5050505050565b600080613600601054600554600a5460115460055460215460026135e891906148f8565b6135f29190614952565b600b54600e54600f54613adb565b90506021548160075461361391906148f8565b61361d9190614756565b91505090565b600060016029541461366a576040517f08c379a000000000000000000000000000000000000000000000000000000000815260040161366190614591565b60405180910390fd5b6000602981905550600080602260009054906101000a900473ffffffffffffffffffffffffffffffffffffffff1673ffffffffffffffffffffffffffffffffffffffff168686866040516024016136c3939291906145cc565b6040516020818303038152906040527f2618c20e000000000000000000000000000000000000000000000000000000007bffffffffffffffffffffffffffffffffffffffffffffffffffffffff19166020820180517bffffffffffffffffffffffffffffffffffffffffffffffffffffffff838183161783525050505060405161374d91906142f3565b600060405180830381855af49150503d8060008114613788576040519150601f19603f3d011682016040523d82523d6000602084013e61378d565b606091505b5091509150808060200190518101906137a69190613fde565b9250505060016029819055509392505050565b6000600160295414613800576040517f08c379a00000000000000000000000000000000000000000000000000000000081526004016137f790614591565b60405180910390fd5b6000602981905550600080602260009054906101000a900473ffffffffffffffffffffffffffffffffffffffff1673ffffffffffffffffffffffffffffffffffffffff16868686604051602401613859939291906145cc565b6040516020818303038152906040527fda889aaa000000000000000000000000000000000000000000000000000000007bffffffffffffffffffffffffffffffffffffffffffffffffffffffff19166020820180517bffffffffffffffffffffffffffffffffffffffffffffffffffffffff83818316178352505050506040516138e391906142f3565b600060405180830381855af49150503d806000811461391e576040519150601f19603f3d011682016040523d82523d6000602084013e613923565b606091505b50915091508080602001905181019061393c9190613fde565b9250505060016029819055509392505050565b600081831161395e5782613960565b815b905092915050565b61397d81600054613a8290919063ffffffff16565b6000819055506139d581600160008573ffffffffffffffffffffffffffffffffffffffff1673ffffffffffffffffffffffffffffffffffffffff16815260200190815260200160002054613a8290919063ffffffff16565b600160008473ffffffffffffffffffffffffffffffffffffffff1673ffffffffffffffffffffffffffffffffffffffff168152602001908152602001600020819055508173ffffffffffffffffffffffffffffffffffffffff16600073ffffffffffffffffffffffffffffffffffffffff167fddf252ad1be2c89b69c2b068fc378daa952ba7f163c4a11628f55a4df523b3ef83604051613a7691906145b1565b60405180910390a35050565b6000828284613a919190614700565b9150811015613ad5576040517f08c379a0000000000000000000000000000000000000000000000000000000008152600401613acc90614531565b60405180910390fd5b92915050565b6000613b2d613aee848a8a868a8a613b3b565b760a70c3c40a64e6c51999090b65f67d9240000000000000613b148c8c8c8c8c8c613b3b565b613b1e91906148f8565b613b289190614756565b613b97565b905098975050505050505050565b60008387838587613b4c91906148f8565b613b5691906148f8565b87898b613b6391906148f8565b613b6d91906148f8565b613b779190614700565b613b8191906148f8565b613b8b91906148f8565b90509695505050505050565b60006008821115613c155781905060006001600384613bb69190614756565b613bc09190614700565b90505b81811015613c0f578091506003816002613bdd91906148f8565b8283613be991906148f8565b85613bf49190614756565b613bfe9190614700565b613c089190614756565b9050613bc3565b50613c23565b60008214613c2257600190505b5b919050565b600081359050613c3781614c3a565b92915050565b600081359050613c4c81614c51565b92915050565b600081519050613c6181614c51565b92915050565b600081359050613c7681614c68565b92915050565b600081359050613c8b81614c7f565b92915050565b600081519050613ca081614c7f565b92915050565b600081359050613cb581614c96565b92915050565b600060208284031215613cd157613cd0614af8565b5b6000613cdf84828501613c28565b91505092915050565b60008060408385031215613cff57613cfe614af8565b5b6000613d0d85828601613c28565b9250506020613d1e85828601613c28565b9150509250929050565b60008060008060808587031215613d4257613d41614af8565b5b6000613d5087828801613c28565b9450506020613d6187828801613c28565b9350506040613d7287828801613c28565b9250506060613d8387828801613c7c565b91505092959194509250565b600080600060608486031215613da857613da7614af8565b5b6000613db686828701613c28565b9350506020613dc786828701613c28565b9250506040613dd886828701613c7c565b9150509250925092565b600080600080600080600060e0888a031215613e0157613e00614af8565b5b6000613e0f8a828b01613c28565b9750506020613e208a828b01613c28565b9650506040613e318a828b01613c7c565b9550506060613e428a828b01613c7c565b9450506080613e538a828b01613ca6565b93505060a0613e648a828b01613c67565b92505060c0613e758a828b01613c67565b91505092959891949750929550565b60008060408385031215613e9b57613e9a614af8565b5b6000613ea985828601613c28565b9250506020613eba85828601613c3d565b9150509250929050565b60008060408385031215613edb57613eda614af8565b5b6000613ee985828601613c28565b9250506020613efa85828601613c7c565b9150509250929050565b600080600060608486031215613f1d57613f1c614af8565b5b6000613f2b86828701613c28565b9350506020613f3c86828701613c7c565b9250506040613f4d86828701613c7c565b9150509250925092565b600060208284031215613f6d57613f6c614af8565b5b6000613f7b84828501613c3d565b91505092915050565b600060208284031215613f9a57613f99614af8565b5b6000613fa884828501613c52565b91505092915050565b600060208284031215613fc757613fc6614af8565b5b6000613fd584828501613c7c565b91505092915050565b600060208284031215613ff457613ff3614af8565b5b600061400284828501613c91565b91505092915050565b6000806040838503121561402257614021614af8565b5b600061403085828601613c7c565b925050602061404185828601613c28565b9150509250929050565b60008060006060848603121561406457614063614af8565b5b600061407286828701613c7c565b935050602061408386828701613c7c565b925050604061409486828701613c28565b9150509250925092565b600080600080608085870312156140b8576140b7614af8565b5b60006140c687828801613c7c565b94505060206140d787828801613c7c565b93505060406140e887828801613c3d565b92505060606140f987828801613c28565b91505092959194509250565b60006020828403121561411b5761411a614af8565b5b600061412984828501613ca6565b91505092915050565b61413b81614986565b82525050565b61414a81614998565b82525050565b614159816149a4565b82525050565b61417061416b826149a4565b614a61565b82525050565b6000614181826146c3565b61418b81856146d9565b935061419b8185602086016149e5565b80840191505092915050565b60006141b2826146ce565b6141bc81856146e4565b93506141cc8185602086016149e5565b6141d581614afd565b840191505092915050565b60006141ed6015836146e4565b91506141f882614b1b565b602082019050919050565b6000614210601c836146e4565b915061421b82614b44565b602082019050919050565b60006142336002836146f5565b915061423e82614b6d565b600282019050919050565b60006142566014836146e4565b915061426182614b96565b602082019050919050565b60006142796012836146e4565b915061428482614bbf565b602082019050919050565b600061429c600f836146e4565b91506142a782614be8565b602082019050919050565b60006142bf6006836146e4565b91506142ca82614c11565b602082019050919050565b6142de816149ce565b82525050565b6142ed816149d8565b82525050565b60006142ff8284614176565b915081905092915050565b600061431582614226565b9150614321828561415f565b602082019150614331828461415f565b6020820191508190509392505050565b60006020820190506143566000830184614132565b92915050565b60006040820190506143716000830185614132565b61437e6020830184614132565b9392505050565b600060808201905061439a6000830187614132565b6143a76020830186614132565b6143b46040830185614132565b6143c160608301846142d5565b95945050505050565b60006040820190506143df6000830185614132565b6143ec60208301846142d5565b9392505050565b60006020820190506144086000830184614141565b92915050565b60006020820190506144236000830184614150565b92915050565b600060c08201905061443e6000830189614150565b61444b6020830188614132565b6144586040830187614132565b61446560608301866142d5565b61447260808301856142d5565b61447f60a08301846142d5565b979650505050505050565b600060808201905061449f6000830187614150565b6144ac60208301866142e4565b6144b96040830185614150565b6144c66060830184614150565b95945050505050565b600060208201905081810360008301526144e981846141a7565b905092915050565b6000602082019050818103600083015261450a816141e0565b9050919050565b6000602082019050818103600083015261452a81614203565b9050919050565b6000602082019050818103600083015261454a81614249565b9050919050565b6000602082019050818103600083015261456a8161426c565b9050919050565b6000602082019050818103600083015261458a8161428f565b9050919050565b600060208201905081810360008301526145aa816142b2565b9050919050565b60006020820190506145c660008301846142d5565b92915050565b60006060820190506145e160008301866142d5565b6145ee6020830185614141565b6145fb60408301846142d5565b949350505050565b600060408201905061461860008301856142d5565b61462560208301846142d5565b9392505050565b600060608201905061464160008301866142d5565b61464e60208301856142d5565b61465b6040830184614132565b949350505050565b600060808201905061467860008301876142d5565b61468560208301866142d5565b6146926040830185614141565b61469f6060830184614132565b95945050505050565b60006020820190506146bd60008301846142e4565b92915050565b600081519050919050565b600081519050919050565b600081905092915050565b600082825260208201905092915050565b600081905092915050565b600061470b826149ce565b9150614716836149ce565b9250827fffffffffffffffffffffffffffffffffffffffffffffffffffffffffffffffff0382111561474b5761474a614a6b565b5b828201905092915050565b6000614761826149ce565b915061476c836149ce565b92508261477c5761477b614a9a565b5b828204905092915050565b6000808291508390505b60018511156147d1578086048111156147ad576147ac614a6b565b5b60018516156147bc5780820291505b80810290506147ca85614b0e565b9450614791565b94509492505050565b60006147e5826149ce565b91506147f0836149d8565b925061481d7fffffffffffffffffffffffffffffffffffffffffffffffffffffffffffffffff8484614825565b905092915050565b60008261483557600190506148f1565b8161484357600090506148f1565b8160018114614859576002811461486357614892565b60019150506148f1565b60ff84111561487557614874614a6b565b5b8360020a91508482111561488c5761488b614a6b565b5b506148f1565b5060208310610133831016604e8410600b84101617156148c75782820a9050838111156148c2576148c1614a6b565b5b6148f1565b6148d48484846001614787565b925090508184048111156148eb576148ea614a6b565b5b81810290505b9392505050565b6000614903826149ce565b915061490e836149ce565b9250817fffffffffffffffffffffffffffffffffffffffffffffffffffffffffffffffff048311821515161561494757614946614a6b565b5b828202905092915050565b600061495d826149ce565b9150614968836149ce565b92508282101561497b5761497a614a6b565b5b828203905092915050565b6000614991826149ae565b9050919050565b60008115159050919050565b6000819050919050565b600073ffffffffffffffffffffffffffffffffffffffff82169050919050565b6000819050919050565b600060ff82169050919050565b60005b83811015614a035780820151818401526020810190506149e8565b83811115614a12576000848401525b50505050565b6000614a23826149ce565b91507fffffffffffffffffffffffffffffffffffffffffffffffffffffffffffffffff821415614a5657614a55614a6b565b5b600182019050919050565b6000819050919050565b7f4e487b7100000000000000000000000000000000000000000000000000000000600052601160045260246000fd5b7f4e487b7100000000000000000000000000000000000000000000000000000000600052601260045260246000fd5b7f4e487b7100000000000000000000000000000000000000000000000000000000600052603260045260246000fd5b600080fd5b6000601f19601f8301169050919050565b60008160011c9050919050565b7f64732d6d6174682d7375622d756e646572666c6f770000000000000000000000600082015250565b7f556e697377617056323a20494e56414c49445f5349474e415455524500000000600082015250565b7f1901000000000000000000000000000000000000000000000000000000000000600082015250565b7f64732d6d6174682d6164642d6f766572666c6f77000000000000000000000000600082015250565b7f556e697377617056323a20455850495245440000000000000000000000000000600082015250565b7f5452414e534645525f4641494c45440000000000000000000000000000000000600082015250565b7f4c4f434b45440000000000000000000000000000000000000000000000000000600082015250565b614c4381614986565b8114614c4e57600080fd5b50565b614c5a81614998565b8114614c6557600080fd5b50565b614c71816149a4565b8114614c7c57600080fd5b50565b614c88816149ce565b8114614c9357600080fd5b50565b614c9f816149d8565b8114614caa57600080fd5b5056fea26469706673582212202cd40789e976a9fe491098188678d0eb340a97fc5f6e6f6bdd2caabd3f6c1ad364736f6c63430008070033",
			"opcodes": "PUSH1 0x80 PUSH1 0x40 MSTORE PUSH8 0xDE0B6B3A7640000 PUSH1 0x21 SSTORE PUSH1 0x1 PUSH1 0x29 SSTORE PUSH1 0x0 PUSH1 0x2A PUSH1 0x0 PUSH2 0x100 EXP DUP2 SLOAD DUP2 PUSH1 0xFF MUL NOT AND SWAP1 DUP4 PUSH1 0xFF AND MUL OR SWAP1 SSTORE POP CALLVALUE DUP1 ISZERO PUSH3 0x3E JUMPI PUSH1 0x0 DUP1 REVERT JUMPDEST POP PUSH1 0x0 CHAINID SWAP1 POP PUSH32 0x8B73C3C69BB8FE3D512ECC4CF759CC79239F7B179B0FFACAA9A75D522B39400F PUSH1 0x40 MLOAD DUP1 PUSH1 0x40 ADD PUSH1 0x40 MSTORE DUP1 PUSH1 0xA DUP2 MSTORE PUSH1 0x20 ADD PUSH32 0x556E697377617020563200000000000000000000000000000000000000000000 DUP2 MSTORE POP DUP1 MLOAD SWAP1 PUSH1 0x20 ADD KECCAK256 PUSH1 0x40 MLOAD DUP1 PUSH1 0x40 ADD PUSH1 0x40 MSTORE DUP1 PUSH1 0x1 DUP2 MSTORE PUSH1 0x20 ADD PUSH32 0x3100000000000000000000000000000000000000000000000000000000000000 DUP2 MSTORE POP DUP1 MLOAD SWAP1 PUSH1 0x20 ADD KECCAK256 DUP4 ADDRESS PUSH1 0x40 MLOAD PUSH1 0x20 ADD PUSH3 0xF7 SWAP6 SWAP5 SWAP4 SWAP3 SWAP2 SWAP1 PUSH3 0x18E JUMP JUMPDEST PUSH1 0x40 MLOAD PUSH1 0x20 DUP2 DUP4 SUB SUB DUP2 MSTORE SWAP1 PUSH1 0x40 MSTORE DUP1 MLOAD SWAP1 PUSH1 0x20 ADD KECCAK256 PUSH1 0x3 DUP2 SWAP1 SSTORE POP POP CALLER PUSH1 0x1B PUSH1 0x0 PUSH2 0x100 EXP DUP2 SLOAD DUP2 PUSH20 0xFFFFFFFFFFFFFFFFFFFFFFFFFFFFFFFFFFFFFFFF MUL NOT AND SWAP1 DUP4 PUSH20 0xFFFFFFFFFFFFFFFFFFFFFFFFFFFFFFFFFFFFFFFF AND MUL OR SWAP1 SSTORE POP PUSH3 0x233 JUMP JUMPDEST PUSH3 0x166 DUP2 PUSH3 0x1EB JUMP JUMPDEST DUP3 MSTORE POP POP JUMP JUMPDEST PUSH3 0x177 DUP2 PUSH3 0x1FF JUMP JUMPDEST DUP3 MSTORE POP POP JUMP JUMPDEST PUSH3 0x188 DUP2 PUSH3 0x229 JUMP JUMPDEST DUP3 MSTORE POP POP JUMP JUMPDEST PUSH1 0x0 PUSH1 0xA0 DUP3 ADD SWAP1 POP PUSH3 0x1A5 PUSH1 0x0 DUP4 ADD DUP9 PUSH3 0x16C JUMP JUMPDEST PUSH3 0x1B4 PUSH1 0x20 DUP4 ADD DUP8 PUSH3 0x16C JUMP JUMPDEST PUSH3 0x1C3 PUSH1 0x40 DUP4 ADD DUP7 PUSH3 0x16C JUMP JUMPDEST PUSH3 0x1D2 PUSH1 0x60 DUP4 ADD DUP6 PUSH3 0x17D JUMP JUMPDEST PUSH3 0x1E1 PUSH1 0x80 DUP4 ADD DUP5 PUSH3 0x15B JUMP JUMPDEST SWAP7 SWAP6 POP POP POP POP POP POP JUMP JUMPDEST PUSH1 0x0 PUSH3 0x1F8 DUP3 PUSH3 0x209 JUMP JUMPDEST SWAP1 POP SWAP2 SWAP1 POP JUMP JUMPDEST PUSH1 0x0 DUP2 SWAP1 POP SWAP2 SWAP1 POP JUMP JUMPDEST PUSH1 0x0 PUSH20 0xFFFFFFFFFFFFFFFFFFFFFFFFFFFFFFFFFFFFFFFF DUP3 AND SWAP1 POP SWAP2 SWAP1 POP JUMP JUMPDEST PUSH1 0x0 DUP2 SWAP1 POP SWAP2 SWAP1 POP JUMP JUMPDEST PUSH2 0x4CE3 DUP1 PUSH3 0x243 PUSH1 0x0 CODECOPY PUSH1 0x0 RETURN INVALID PUSH1 0x80 PUSH1 0x40 MSTORE CALLVALUE DUP1 ISZERO PUSH2 0x10 JUMPI PUSH1 0x0 DUP1 REVERT JUMPDEST POP PUSH1 0x4 CALLDATASIZE LT PUSH2 0x43E JUMPI PUSH1 0x0 CALLDATALOAD PUSH1 0xE0 SHR DUP1 PUSH4 0x7E11939A GT PUSH2 0x236 JUMPI DUP1 PUSH4 0xBC25CF77 GT PUSH2 0x13B JUMPI DUP1 PUSH4 0xE0BA7223 GT PUSH2 0xC3 JUMPI DUP1 PUSH4 0xF13C7AED GT PUSH2 0x87 JUMPI DUP1 PUSH4 0xF13C7AED EQ PUSH2 0xCF9 JUMPI DUP1 PUSH4 0xF738C74E EQ PUSH2 0xD17 JUMPI DUP1 PUSH4 0xF92E82B0 EQ PUSH2 0xD35 JUMPI DUP1 PUSH4 0xFCBC49A0 EQ PUSH2 0xD53 JUMPI DUP1 PUSH4 0xFDCFC3EF EQ PUSH2 0xD71 JUMPI PUSH2 0x43E JUMP JUMPDEST DUP1 PUSH4 0xE0BA7223 EQ PUSH2 0xC55 JUMPI DUP1 PUSH4 0xE159394F EQ PUSH2 0xC71 JUMPI DUP1 PUSH4 0xE3412E3D EQ PUSH2 0xC8F JUMPI DUP1 PUSH4 0xEEEA909F EQ PUSH2 0xCBF JUMPI DUP1 PUSH4 0xEF0348FD EQ PUSH2 0xCDB JUMPI PUSH2 0x43E JUMP JUMPDEST DUP1 PUSH4 0xD505ACCF GT PUSH2 0x10A JUMPI DUP1 PUSH4 0xD505ACCF EQ PUSH2 0xBB3 JUMPI DUP1 PUSH4 0xD6CE29AE EQ PUSH2 0xBCF JUMPI DUP1 PUSH4 0xD873FA7B EQ PUSH2 0xBEB JUMPI DUP1 PUSH4 0xDB35944F EQ PUSH2 0xC09 JUMPI DUP1 PUSH4 0xDD62ED3E EQ PUSH2 0xC25 JUMPI PUSH2 0x43E JUMP JUMPDEST DUP1 PUSH4 0xBC25CF77 EQ PUSH2 0xB3D JUMPI DUP1 PUSH4 0xBE6571AA EQ PUSH2 0xB59 JUMPI DUP1 PUSH4 0xC45A0155 EQ PUSH2 0xB77 JUMPI DUP1 PUSH4 0xC556C363 EQ PUSH2 0xB95 JUMPI PUSH2 0x43E JUMP JUMPDEST DUP1 PUSH4 0xA01FBBF5 GT PUSH2 0x1BE JUMPI DUP1 PUSH4 0xA9059CBB GT PUSH2 0x18D JUMPI DUP1 PUSH4 0xA9059CBB EQ PUSH2 0xA99 JUMPI DUP1 PUSH4 0xADE446D2 EQ PUSH2 0xAC9 JUMPI DUP1 PUSH4 0xB66179DE EQ PUSH2 0xAE5 JUMPI DUP1 PUSH4 0xB7D19FC4 EQ PUSH2 0xB01 JUMPI DUP1 PUSH4 0xB868504B EQ PUSH2 0xB1F JUMPI PUSH2 0x43E JUMP JUMPDEST DUP1 PUSH4 0xA01FBBF5 EQ PUSH2 0xA21 JUMPI DUP1 PUSH4 0xA37B1918 EQ PUSH2 0xA3F JUMPI DUP1 PUSH4 0xA71E8644 EQ PUSH2 0xA5D JUMPI DUP1 PUSH4 0xA79E6F9C EQ PUSH2 0xA7B JUMPI PUSH2 0x43E JUMP JUMPDEST DUP1 PUSH4 0x8C4008E9 GT PUSH2 0x205 JUMPI DUP1 PUSH4 0x8C4008E9 EQ PUSH2 0x98F JUMPI DUP1 PUSH4 0x8CA63E6F EQ PUSH2 0x9AD JUMPI DUP1 PUSH4 0x95D89B41 EQ PUSH2 0x9CB JUMPI DUP1 PUSH4 0x9CC8DF77 EQ PUSH2 0x9E9 JUMPI DUP1 PUSH4 0x9F1D0F59 EQ PUSH2 0xA05 JUMPI PUSH2 0x43E JUMP JUMPDEST DUP1 PUSH4 0x7E11939A EQ PUSH2 0x8F2 JUMPI DUP1 PUSH4 0x7E401ACA EQ PUSH2 0x910 JUMPI DUP1 PUSH4 0x7ECEBE00 EQ PUSH2 0x941 JUMPI DUP1 PUSH4 0x803042AC EQ PUSH2 0x971 JUMPI PUSH2 0x43E JUMP JUMPDEST DUP1 PUSH4 0x32E7C5BF GT PUSH2 0x347 JUMPI DUP1 PUSH4 0x54CF2AEB GT PUSH2 0x2CF JUMPI DUP1 PUSH4 0x77FEF068 GT PUSH2 0x293 JUMPI DUP1 PUSH4 0x77FEF068 EQ PUSH2 0x860 JUMPI DUP1 PUSH4 0x7B7C1F4C EQ PUSH2 0x87E JUMPI DUP1 PUSH4 0x7BB1128A EQ PUSH2 0x89C JUMPI DUP1 PUSH4 0x7BB62450 EQ PUSH2 0x8B8 JUMPI DUP1 PUSH4 0x7BBC292A EQ PUSH2 0x8D6 JUMPI PUSH2 0x43E JUMP JUMPDEST DUP1 PUSH4 0x54CF2AEB EQ PUSH2 0x7B8 JUMPI DUP1 PUSH4 0x5784C8C4 EQ PUSH2 0x7D6 JUMPI DUP1 PUSH4 0x62AB1A77 EQ PUSH2 0x7F4 JUMPI DUP1 PUSH4 0x70A08231 EQ PUSH2 0x812 JUMPI DUP1 PUSH4 0x713370FC EQ PUSH2 0x842 JUMPI PUSH2 0x43E JUMP JUMPDEST DUP1 PUSH4 0x3FBB0E9B GT PUSH2 0x316 JUMPI DUP1 PUSH4 0x3FBB0E9B EQ PUSH2 0x72A JUMPI DUP1 PUSH4 0x4582B988 EQ PUSH2 0x746 JUMPI DUP1 PUSH4 0x485CC955 EQ PUSH2 0x762 JUMPI DUP1 PUSH4 0x4BAC6C47 EQ PUSH2 0x77E JUMPI DUP1 PUSH4 0x5091FADD EQ PUSH2 0x79A JUMPI PUSH2 0x43E JUMP JUMPDEST DUP1 PUSH4 0x32E7C5BF EQ PUSH2 0x6A2 JUMPI DUP1 PUSH4 0x34E19907 EQ PUSH2 0x6C0 JUMPI DUP1 PUSH4 0x3644E515 EQ PUSH2 0x6DC JUMPI DUP1 PUSH4 0x367401DB EQ PUSH2 0x6FA JUMPI PUSH2 0x43E JUMP JUMPDEST DUP1 PUSH4 0x28842D4F GT PUSH2 0x3CA JUMPI DUP1 PUSH4 0x2F1D9842 GT PUSH2 0x399 JUMPI DUP1 PUSH4 0x2F1D9842 EQ PUSH2 0x60E JUMPI DUP1 PUSH4 0x30ADF81F EQ PUSH2 0x62A JUMPI DUP1 PUSH4 0x313CE567 EQ PUSH2 0x648 JUMPI DUP1 PUSH4 0x31FA66B2 EQ PUSH2 0x666 JUMPI DUP1 PUSH4 0x321D7FA9 EQ PUSH2 0x684 JUMPI PUSH2 0x43E JUMP JUMPDEST DUP1 PUSH4 0x28842D4F EQ PUSH2 0x587 JUMPI DUP1 PUSH4 0x29BAF8D9 EQ PUSH2 0x5A3 JUMPI DUP1 PUSH4 0x2C4426AD EQ PUSH2 0x5C1 JUMPI DUP1 PUSH4 0x2DAFCA56 EQ PUSH2 0x5F2 JUMPI PUSH2 0x43E JUMP JUMPDEST DUP1 PUSH4 0xF529BA2 GT PUSH2 0x411 JUMPI DUP1 PUSH4 0xF529BA2 EQ PUSH2 0x4DF JUMPI DUP1 PUSH4 0x15770F92 EQ PUSH2 0x4FD JUMPI DUP1 PUSH4 0x16DC165B EQ PUSH2 0x51B JUMPI DUP1 PUSH4 0x18160DDD EQ PUSH2 0x539 JUMPI DUP1 PUSH4 0x23B872DD EQ PUSH2 0x557 JUMPI PUSH2 0x43E JUMP JUMPDEST DUP1 PUSH4 0x6FDDE03 EQ PUSH2 0x443 JUMPI DUP1 PUSH4 0x751A6C8 EQ PUSH2 0x461 JUMPI DUP1 PUSH4 0x95EA7B3 EQ PUSH2 0x47F JUMPI DUP1 PUSH4 0xE449559 EQ PUSH2 0x4AF JUMPI JUMPDEST PUSH1 0x0 DUP1 REVERT JUMPDEST PUSH2 0x44B PUSH2 0xD8D JUMP JUMPDEST PUSH1 0x40 MLOAD PUSH2 0x458 SWAP2 SWAP1 PUSH2 0x44CF JUMP JUMPDEST PUSH1 0x40 MLOAD DUP1 SWAP2 SUB SWAP1 RETURN JUMPDEST PUSH2 0x469 PUSH2 0xDC6 JUMP JUMPDEST PUSH1 0x40 MLOAD PUSH2 0x476 SWAP2 SWAP1 PUSH2 0x45B1 JUMP JUMPDEST PUSH1 0x40 MLOAD DUP1 SWAP2 SUB SWAP1 RETURN JUMPDEST PUSH2 0x499 PUSH1 0x4 DUP1 CALLDATASIZE SUB DUP2 ADD SWAP1 PUSH2 0x494 SWAP2 SWAP1 PUSH2 0x3EC4 JUMP JUMPDEST PUSH2 0xDCC JUMP JUMPDEST PUSH1 0x40 MLOAD PUSH2 0x4A6 SWAP2 SWAP1 PUSH2 0x43F3 JUMP JUMPDEST PUSH1 0x40 MLOAD DUP1 SWAP2 SUB SWAP1 RETURN JUMPDEST PUSH2 0x4C9 PUSH1 0x4 DUP1 CALLDATASIZE SUB DUP2 ADD SWAP1 PUSH2 0x4C4 SWAP2 SWAP1 PUSH2 0x3FB1 JUMP JUMPDEST PUSH2 0xDE3 JUMP JUMPDEST PUSH1 0x40 MLOAD PUSH2 0x4D6 SWAP2 SWAP1 PUSH2 0x45B1 JUMP JUMPDEST PUSH1 0x40 MLOAD DUP1 SWAP2 SUB SWAP1 RETURN JUMPDEST PUSH2 0x4E7 PUSH2 0xDFE JUMP JUMPDEST PUSH1 0x40 MLOAD PUSH2 0x4F4 SWAP2 SWAP1 PUSH2 0x45B1 JUMP JUMPDEST PUSH1 0x40 MLOAD DUP1 SWAP2 SUB SWAP1 RETURN JUMPDEST PUSH2 0x505 PUSH2 0xE04 JUMP JUMPDEST PUSH1 0x40 MLOAD PUSH2 0x512 SWAP2 SWAP1 PUSH2 0x45B1 JUMP JUMPDEST PUSH1 0x40 MLOAD DUP1 SWAP2 SUB SWAP1 RETURN JUMPDEST PUSH2 0x523 PUSH2 0xE0A JUMP JUMPDEST PUSH1 0x40 MLOAD PUSH2 0x530 SWAP2 SWAP1 PUSH2 0x4341 JUMP JUMPDEST PUSH1 0x40 MLOAD DUP1 SWAP2 SUB SWAP1 RETURN JUMPDEST PUSH2 0x541 PUSH2 0xE30 JUMP JUMPDEST PUSH1 0x40 MLOAD PUSH2 0x54E SWAP2 SWAP1 PUSH2 0x45B1 JUMP JUMPDEST PUSH1 0x40 MLOAD DUP1 SWAP2 SUB SWAP1 RETURN JUMPDEST PUSH2 0x571 PUSH1 0x4 DUP1 CALLDATASIZE SUB DUP2 ADD SWAP1 PUSH2 0x56C SWAP2 SWAP1 PUSH2 0x3D8F JUMP JUMPDEST PUSH2 0xE36 JUMP JUMPDEST PUSH1 0x40 MLOAD PUSH2 0x57E SWAP2 SWAP1 PUSH2 0x43F3 JUMP JUMPDEST PUSH1 0x40 MLOAD DUP1 SWAP2 SUB SWAP1 RETURN JUMPDEST PUSH2 0x5A1 PUSH1 0x4 DUP1 CALLDATASIZE SUB DUP2 ADD SWAP1 PUSH2 0x59C SWAP2 SWAP1 PUSH2 0x3FB1 JUMP JUMPDEST PUSH2 0xFE3 JUMP JUMPDEST STOP JUMPDEST PUSH2 0x5AB PUSH2 0x1047 JUMP JUMPDEST PUSH1 0x40 MLOAD PUSH2 0x5B8 SWAP2 SWAP1 PUSH2 0x45B1 JUMP JUMPDEST PUSH1 0x40 MLOAD DUP1 SWAP2 SUB SWAP1 RETURN JUMPDEST PUSH2 0x5DB PUSH1 0x4 DUP1 CALLDATASIZE SUB DUP2 ADD SWAP1 PUSH2 0x5D6 SWAP2 SWAP1 PUSH2 0x3E84 JUMP JUMPDEST PUSH2 0x104D JUMP JUMPDEST PUSH1 0x40 MLOAD PUSH2 0x5E9 SWAP3 SWAP2 SWAP1 PUSH2 0x4603 JUMP JUMPDEST PUSH1 0x40 MLOAD DUP1 SWAP2 SUB SWAP1 RETURN JUMPDEST PUSH2 0x60C PUSH1 0x4 DUP1 CALLDATASIZE SUB DUP2 ADD SWAP1 PUSH2 0x607 SWAP2 SWAP1 PUSH2 0x3F57 JUMP JUMPDEST PUSH2 0x107E JUMP JUMPDEST STOP JUMPDEST PUSH2 0x628 PUSH1 0x4 DUP1 CALLDATASIZE SUB DUP2 ADD SWAP1 PUSH2 0x623 SWAP2 SWAP1 PUSH2 0x3FB1 JUMP JUMPDEST PUSH2 0x10F5 JUMP JUMPDEST STOP JUMPDEST PUSH2 0x632 PUSH2 0x1159 JUMP JUMPDEST PUSH1 0x40 MLOAD PUSH2 0x63F SWAP2 SWAP1 PUSH2 0x440E JUMP JUMPDEST PUSH1 0x40 MLOAD DUP1 SWAP2 SUB SWAP1 RETURN JUMPDEST PUSH2 0x650 PUSH2 0x1180 JUMP JUMPDEST PUSH1 0x40 MLOAD PUSH2 0x65D SWAP2 SWAP1 PUSH2 0x46A8 JUMP JUMPDEST PUSH1 0x40 MLOAD DUP1 SWAP2 SUB SWAP1 RETURN JUMPDEST PUSH2 0x66E PUSH2 0x1185 JUMP JUMPDEST PUSH1 0x40 MLOAD PUSH2 0x67B SWAP2 SWAP1 PUSH2 0x43F3 JUMP JUMPDEST PUSH1 0x40 MLOAD DUP1 SWAP2 SUB SWAP1 RETURN JUMPDEST PUSH2 0x68C PUSH2 0x1198 JUMP JUMPDEST PUSH1 0x40 MLOAD PUSH2 0x699 SWAP2 SWAP1 PUSH2 0x45B1 JUMP JUMPDEST PUSH1 0x40 MLOAD DUP1 SWAP2 SUB SWAP1 RETURN JUMPDEST PUSH2 0x6AA PUSH2 0x119E JUMP JUMPDEST PUSH1 0x40 MLOAD PUSH2 0x6B7 SWAP2 SWAP1 PUSH2 0x45B1 JUMP JUMPDEST PUSH1 0x40 MLOAD DUP1 SWAP2 SUB SWAP1 RETURN JUMPDEST PUSH2 0x6DA PUSH1 0x4 DUP1 CALLDATASIZE SUB DUP2 ADD SWAP1 PUSH2 0x6D5 SWAP2 SWAP1 PUSH2 0x3FB1 JUMP JUMPDEST PUSH2 0x11A4 JUMP JUMPDEST STOP JUMPDEST PUSH2 0x6E4 PUSH2 0x1208 JUMP JUMPDEST PUSH1 0x40 MLOAD PUSH2 0x6F1 SWAP2 SWAP1 PUSH2 0x440E JUMP JUMPDEST PUSH1 0x40 MLOAD DUP1 SWAP2 SUB SWAP1 RETURN JUMPDEST PUSH2 0x714 PUSH1 0x4 DUP1 CALLDATASIZE SUB DUP2 ADD SWAP1 PUSH2 0x70F SWAP2 SWAP1 PUSH2 0x3EC4 JUMP JUMPDEST PUSH2 0x120E JUMP JUMPDEST PUSH1 0x40 MLOAD PUSH2 0x721 SWAP2 SWAP1 PUSH2 0x45B1 JUMP JUMPDEST PUSH1 0x40 MLOAD DUP1 SWAP2 SUB SWAP1 RETURN JUMPDEST PUSH2 0x744 PUSH1 0x4 DUP1 CALLDATASIZE SUB DUP2 ADD SWAP1 PUSH2 0x73F SWAP2 SWAP1 PUSH2 0x3CE8 JUMP JUMPDEST PUSH2 0x1236 JUMP JUMPDEST STOP JUMPDEST PUSH2 0x760 PUSH1 0x4 DUP1 CALLDATASIZE SUB DUP2 ADD SWAP1 PUSH2 0x75B SWAP2 SWAP1 PUSH2 0x3FB1 JUMP JUMPDEST PUSH2 0x14D3 JUMP JUMPDEST STOP JUMPDEST PUSH2 0x77C PUSH1 0x4 DUP1 CALLDATASIZE SUB DUP2 ADD SWAP1 PUSH2 0x777 SWAP2 SWAP1 PUSH2 0x3CE8 JUMP JUMPDEST PUSH2 0x1537 JUMP JUMPDEST STOP JUMPDEST PUSH2 0x798 PUSH1 0x4 DUP1 CALLDATASIZE SUB DUP2 ADD SWAP1 PUSH2 0x793 SWAP2 SWAP1 PUSH2 0x409E JUMP JUMPDEST PUSH2 0x1617 JUMP JUMPDEST STOP JUMPDEST PUSH2 0x7A2 PUSH2 0x1796 JUMP JUMPDEST PUSH1 0x40 MLOAD PUSH2 0x7AF SWAP2 SWAP1 PUSH2 0x45B1 JUMP JUMPDEST PUSH1 0x40 MLOAD DUP1 SWAP2 SUB SWAP1 RETURN JUMPDEST PUSH2 0x7C0 PUSH2 0x179C JUMP JUMPDEST PUSH1 0x40 MLOAD PUSH2 0x7CD SWAP2 SWAP1 PUSH2 0x45B1 JUMP JUMPDEST PUSH1 0x40 MLOAD DUP1 SWAP2 SUB SWAP1 RETURN JUMPDEST PUSH2 0x7DE PUSH2 0x17A2 JUMP JUMPDEST PUSH1 0x40 MLOAD PUSH2 0x7EB SWAP2 SWAP1 PUSH2 0x45B1 JUMP JUMPDEST PUSH1 0x40 MLOAD DUP1 SWAP2 SUB SWAP1 RETURN JUMPDEST PUSH2 0x7FC PUSH2 0x17A8 JUMP JUMPDEST PUSH1 0x40 MLOAD PUSH2 0x809 SWAP2 SWAP1 PUSH2 0x4341 JUMP JUMPDEST PUSH1 0x40 MLOAD DUP1 SWAP2 SUB SWAP1 RETURN JUMPDEST PUSH2 0x82C PUSH1 0x4 DUP1 CALLDATASIZE SUB DUP2 ADD SWAP1 PUSH2 0x827 SWAP2 SWAP1 PUSH2 0x3CBB JUMP JUMPDEST PUSH2 0x17CE JUMP JUMPDEST PUSH1 0x40 MLOAD PUSH2 0x839 SWAP2 SWAP1 PUSH2 0x45B1 JUMP JUMPDEST PUSH1 0x40 MLOAD DUP1 SWAP2 SUB SWAP1 RETURN JUMPDEST PUSH2 0x84A PUSH2 0x17E6 JUMP JUMPDEST PUSH1 0x40 MLOAD PUSH2 0x857 SWAP2 SWAP1 PUSH2 0x45B1 JUMP JUMPDEST PUSH1 0x40 MLOAD DUP1 SWAP2 SUB SWAP1 RETURN JUMPDEST PUSH2 0x868 PUSH2 0x17EC JUMP JUMPDEST PUSH1 0x40 MLOAD PUSH2 0x875 SWAP2 SWAP1 PUSH2 0x45B1 JUMP JUMPDEST PUSH1 0x40 MLOAD DUP1 SWAP2 SUB SWAP1 RETURN JUMPDEST PUSH2 0x886 PUSH2 0x17F2 JUMP JUMPDEST PUSH1 0x40 MLOAD PUSH2 0x893 SWAP2 SWAP1 PUSH2 0x45B1 JUMP JUMPDEST PUSH1 0x40 MLOAD DUP1 SWAP2 SUB SWAP1 RETURN JUMPDEST PUSH2 0x8B6 PUSH1 0x4 DUP1 CALLDATASIZE SUB DUP2 ADD SWAP1 PUSH2 0x8B1 SWAP2 SWAP1 PUSH2 0x3FB1 JUMP JUMPDEST PUSH2 0x17F8 JUMP JUMPDEST STOP JUMPDEST PUSH2 0x8C0 PUSH2 0x185C JUMP JUMPDEST PUSH1 0x40 MLOAD PUSH2 0x8CD SWAP2 SWAP1 PUSH2 0x45B1 JUMP JUMPDEST PUSH1 0x40 MLOAD DUP1 SWAP2 SUB SWAP1 RETURN JUMPDEST PUSH2 0x8F0 PUSH1 0x4 DUP1 CALLDATASIZE SUB DUP2 ADD SWAP1 PUSH2 0x8EB SWAP2 SWAP1 PUSH2 0x4105 JUMP JUMPDEST PUSH2 0x1862 JUMP JUMPDEST STOP JUMPDEST PUSH2 0x8FA PUSH2 0x18DA JUMP JUMPDEST PUSH1 0x40 MLOAD PUSH2 0x907 SWAP2 SWAP1 PUSH2 0x45B1 JUMP JUMPDEST PUSH1 0x40 MLOAD DUP1 SWAP2 SUB SWAP1 RETURN JUMPDEST PUSH2 0x92A PUSH1 0x4 DUP1 CALLDATASIZE SUB DUP2 ADD SWAP1 PUSH2 0x925 SWAP2 SWAP1 PUSH2 0x400B JUMP JUMPDEST PUSH2 0x18E0 JUMP JUMPDEST PUSH1 0x40 MLOAD PUSH2 0x938 SWAP3 SWAP2 SWAP1 PUSH2 0x4603 JUMP JUMPDEST PUSH1 0x40 MLOAD DUP1 SWAP2 SUB SWAP1 RETURN JUMPDEST PUSH2 0x95B PUSH1 0x4 DUP1 CALLDATASIZE SUB DUP2 ADD SWAP1 PUSH2 0x956 SWAP2 SWAP1 PUSH2 0x3CBB JUMP JUMPDEST PUSH2 0x1A53 JUMP JUMPDEST PUSH1 0x40 MLOAD PUSH2 0x968 SWAP2 SWAP1 PUSH2 0x45B1 JUMP JUMPDEST PUSH1 0x40 MLOAD DUP1 SWAP2 SUB SWAP1 RETURN JUMPDEST PUSH2 0x979 PUSH2 0x1A6B JUMP JUMPDEST PUSH1 0x40 MLOAD PUSH2 0x986 SWAP2 SWAP1 PUSH2 0x45B1 JUMP JUMPDEST PUSH1 0x40 MLOAD DUP1 SWAP2 SUB SWAP1 RETURN JUMPDEST PUSH2 0x997 PUSH2 0x1A71 JUMP JUMPDEST PUSH1 0x40 MLOAD PUSH2 0x9A4 SWAP2 SWAP1 PUSH2 0x45B1 JUMP JUMPDEST PUSH1 0x40 MLOAD DUP1 SWAP2 SUB SWAP1 RETURN JUMPDEST PUSH2 0x9B5 PUSH2 0x1A77 JUMP JUMPDEST PUSH1 0x40 MLOAD PUSH2 0x9C2 SWAP2 SWAP1 PUSH2 0x45B1 JUMP JUMPDEST PUSH1 0x40 MLOAD DUP1 SWAP2 SUB SWAP1 RETURN JUMPDEST PUSH2 0x9D3 PUSH2 0x1A7D JUMP JUMPDEST PUSH1 0x40 MLOAD PUSH2 0x9E0 SWAP2 SWAP1 PUSH2 0x44CF JUMP JUMPDEST PUSH1 0x40 MLOAD DUP1 SWAP2 SUB SWAP1 RETURN JUMPDEST PUSH2 0xA03 PUSH1 0x4 DUP1 CALLDATASIZE SUB DUP2 ADD SWAP1 PUSH2 0x9FE SWAP2 SWAP1 PUSH2 0x3FB1 JUMP JUMPDEST PUSH2 0x1AB6 JUMP JUMPDEST STOP JUMPDEST PUSH2 0xA1F PUSH1 0x4 DUP1 CALLDATASIZE SUB DUP2 ADD SWAP1 PUSH2 0xA1A SWAP2 SWAP1 PUSH2 0x3F04 JUMP JUMPDEST PUSH2 0x1B1A JUMP JUMPDEST STOP JUMPDEST PUSH2 0xA29 PUSH2 0x1FF4 JUMP JUMPDEST PUSH1 0x40 MLOAD PUSH2 0xA36 SWAP2 SWAP1 PUSH2 0x45B1 JUMP JUMPDEST PUSH1 0x40 MLOAD DUP1 SWAP2 SUB SWAP1 RETURN JUMPDEST PUSH2 0xA47 PUSH2 0x1FFA JUMP JUMPDEST PUSH1 0x40 MLOAD PUSH2 0xA54 SWAP2 SWAP1 PUSH2 0x45B1 JUMP JUMPDEST PUSH1 0x40 MLOAD DUP1 SWAP2 SUB SWAP1 RETURN JUMPDEST PUSH2 0xA65 PUSH2 0x2000 JUMP JUMPDEST PUSH1 0x40 MLOAD PUSH2 0xA72 SWAP2 SWAP1 PUSH2 0x45B1 JUMP JUMPDEST PUSH1 0x40 MLOAD DUP1 SWAP2 SUB SWAP1 RETURN JUMPDEST PUSH2 0xA83 PUSH2 0x2006 JUMP JUMPDEST PUSH1 0x40 MLOAD PUSH2 0xA90 SWAP2 SWAP1 PUSH2 0x43F3 JUMP JUMPDEST PUSH1 0x40 MLOAD DUP1 SWAP2 SUB SWAP1 RETURN JUMPDEST PUSH2 0xAB3 PUSH1 0x4 DUP1 CALLDATASIZE SUB DUP2 ADD SWAP1 PUSH2 0xAAE SWAP2 SWAP1 PUSH2 0x3EC4 JUMP JUMPDEST PUSH2 0x2019 JUMP JUMPDEST PUSH1 0x40 MLOAD PUSH2 0xAC0 SWAP2 SWAP1 PUSH2 0x43F3 JUMP JUMPDEST PUSH1 0x40 MLOAD DUP1 SWAP2 SUB SWAP1 RETURN JUMPDEST PUSH2 0xAE3 PUSH1 0x4 DUP1 CALLDATASIZE SUB DUP2 ADD SWAP1 PUSH2 0xADE SWAP2 SWAP1 PUSH2 0x3FB1 JUMP JUMPDEST PUSH2 0x2030 JUMP JUMPDEST STOP JUMPDEST PUSH2 0xAFF PUSH1 0x4 DUP1 CALLDATASIZE SUB DUP2 ADD SWAP1 PUSH2 0xAFA SWAP2 SWAP1 PUSH2 0x3FB1 JUMP JUMPDEST PUSH2 0x2094 JUMP JUMPDEST STOP JUMPDEST PUSH2 0xB09 PUSH2 0x20F8 JUMP JUMPDEST PUSH1 0x40 MLOAD PUSH2 0xB16 SWAP2 SWAP1 PUSH2 0x4341 JUMP JUMPDEST PUSH1 0x40 MLOAD DUP1 SWAP2 SUB SWAP1 RETURN JUMPDEST PUSH2 0xB27 PUSH2 0x211E JUMP JUMPDEST PUSH1 0x40 MLOAD PUSH2 0xB34 SWAP2 SWAP1 PUSH2 0x45B1 JUMP JUMPDEST PUSH1 0x40 MLOAD DUP1 SWAP2 SUB SWAP1 RETURN JUMPDEST PUSH2 0xB57 PUSH1 0x4 DUP1 CALLDATASIZE SUB DUP2 ADD SWAP1 PUSH2 0xB52 SWAP2 SWAP1 PUSH2 0x3CBB JUMP JUMPDEST PUSH2 0x2124 JUMP JUMPDEST STOP JUMPDEST PUSH2 0xB61 PUSH2 0x2386 JUMP JUMPDEST PUSH1 0x40 MLOAD PUSH2 0xB6E SWAP2 SWAP1 PUSH2 0x45B1 JUMP JUMPDEST PUSH1 0x40 MLOAD DUP1 SWAP2 SUB SWAP1 RETURN JUMPDEST PUSH2 0xB7F PUSH2 0x238C JUMP JUMPDEST PUSH1 0x40 MLOAD PUSH2 0xB8C SWAP2 SWAP1 PUSH2 0x4341 JUMP JUMPDEST PUSH1 0x40 MLOAD DUP1 SWAP2 SUB SWAP1 RETURN JUMPDEST PUSH2 0xB9D PUSH2 0x23B2 JUMP JUMPDEST PUSH1 0x40 MLOAD PUSH2 0xBAA SWAP2 SWAP1 PUSH2 0x45B1 JUMP JUMPDEST PUSH1 0x40 MLOAD DUP1 SWAP2 SUB SWAP1 RETURN JUMPDEST PUSH2 0xBCD PUSH1 0x4 DUP1 CALLDATASIZE SUB DUP2 ADD SWAP1 PUSH2 0xBC8 SWAP2 SWAP1 PUSH2 0x3DE2 JUMP JUMPDEST PUSH2 0x23B8 JUMP JUMPDEST STOP JUMPDEST PUSH2 0xBE9 PUSH1 0x4 DUP1 CALLDATASIZE SUB DUP2 ADD SWAP1 PUSH2 0xBE4 SWAP2 SWAP1 PUSH2 0x404B JUMP JUMPDEST PUSH2 0x25E0 JUMP JUMPDEST STOP JUMPDEST PUSH2 0xBF3 PUSH2 0x275C JUMP JUMPDEST PUSH1 0x40 MLOAD PUSH2 0xC00 SWAP2 SWAP1 PUSH2 0x45B1 JUMP JUMPDEST PUSH1 0x40 MLOAD DUP1 SWAP2 SUB SWAP1 RETURN JUMPDEST PUSH2 0xC23 PUSH1 0x4 DUP1 CALLDATASIZE SUB DUP2 ADD SWAP1 PUSH2 0xC1E SWAP2 SWAP1 PUSH2 0x3CE8 JUMP JUMPDEST PUSH2 0x2762 JUMP JUMPDEST STOP JUMPDEST PUSH2 0xC3F PUSH1 0x4 DUP1 CALLDATASIZE SUB DUP2 ADD SWAP1 PUSH2 0xC3A SWAP2 SWAP1 PUSH2 0x3CE8 JUMP JUMPDEST PUSH2 0x28DB JUMP JUMPDEST PUSH1 0x40 MLOAD PUSH2 0xC4C SWAP2 SWAP1 PUSH2 0x45B1 JUMP JUMPDEST PUSH1 0x40 MLOAD DUP1 SWAP2 SUB SWAP1 RETURN JUMPDEST PUSH2 0xC6F PUSH1 0x4 DUP1 CALLDATASIZE SUB DUP2 ADD SWAP1 PUSH2 0xC6A SWAP2 SWAP1 PUSH2 0x3D28 JUMP JUMPDEST PUSH2 0x2900 JUMP JUMPDEST STOP JUMPDEST PUSH2 0xC79 PUSH2 0x2A7F JUMP JUMPDEST PUSH1 0x40 MLOAD PUSH2 0xC86 SWAP2 SWAP1 PUSH2 0x45B1 JUMP JUMPDEST PUSH1 0x40 MLOAD DUP1 SWAP2 SUB SWAP1 RETURN JUMPDEST PUSH2 0xCA9 PUSH1 0x4 DUP1 CALLDATASIZE SUB DUP2 ADD SWAP1 PUSH2 0xCA4 SWAP2 SWAP1 PUSH2 0x3CBB JUMP JUMPDEST PUSH2 0x2A85 JUMP JUMPDEST PUSH1 0x40 MLOAD PUSH2 0xCB6 SWAP2 SWAP1 PUSH2 0x45B1 JUMP JUMPDEST PUSH1 0x40 MLOAD DUP1 SWAP2 SUB SWAP1 RETURN JUMPDEST PUSH2 0xCD9 PUSH1 0x4 DUP1 CALLDATASIZE SUB DUP2 ADD SWAP1 PUSH2 0xCD4 SWAP2 SWAP1 PUSH2 0x404B JUMP JUMPDEST PUSH2 0x2DEE JUMP JUMPDEST STOP JUMPDEST PUSH2 0xCE3 PUSH2 0x2F6A JUMP JUMPDEST PUSH1 0x40 MLOAD PUSH2 0xCF0 SWAP2 SWAP1 PUSH2 0x45B1 JUMP JUMPDEST PUSH1 0x40 MLOAD DUP1 SWAP2 SUB SWAP1 RETURN JUMPDEST PUSH2 0xD01 PUSH2 0x2F70 JUMP JUMPDEST PUSH1 0x40 MLOAD PUSH2 0xD0E SWAP2 SWAP1 PUSH2 0x45B1 JUMP JUMPDEST PUSH1 0x40 MLOAD DUP1 SWAP2 SUB SWAP1 RETURN JUMPDEST PUSH2 0xD1F PUSH2 0x2F76 JUMP JUMPDEST PUSH1 0x40 MLOAD PUSH2 0xD2C SWAP2 SWAP1 PUSH2 0x45B1 JUMP JUMPDEST PUSH1 0x40 MLOAD DUP1 SWAP2 SUB SWAP1 RETURN JUMPDEST PUSH2 0xD3D PUSH2 0x2F7C JUMP JUMPDEST PUSH1 0x40 MLOAD PUSH2 0xD4A SWAP2 SWAP1 PUSH2 0x45B1 JUMP JUMPDEST PUSH1 0x40 MLOAD DUP1 SWAP2 SUB SWAP1 RETURN JUMPDEST PUSH2 0xD5B PUSH2 0x2F82 JUMP JUMPDEST PUSH1 0x40 MLOAD PUSH2 0xD68 SWAP2 SWAP1 PUSH2 0x45B1 JUMP JUMPDEST PUSH1 0x40 MLOAD DUP1 SWAP2 SUB SWAP1 RETURN JUMPDEST PUSH2 0xD8B PUSH1 0x4 DUP1 CALLDATASIZE SUB DUP2 ADD SWAP1 PUSH2 0xD86 SWAP2 SWAP1 PUSH2 0x3CBB JUMP JUMPDEST PUSH2 0x2F88 JUMP JUMPDEST STOP JUMPDEST PUSH1 0x40 MLOAD DUP1 PUSH1 0x40 ADD PUSH1 0x40 MSTORE DUP1 PUSH1 0xA DUP2 MSTORE PUSH1 0x20 ADD PUSH32 0x556E697377617020563200000000000000000000000000000000000000000000 DUP2 MSTORE POP DUP2 JUMP JUMPDEST PUSH1 0x16 SLOAD DUP2 JUMP JUMPDEST PUSH1 0x0 PUSH2 0xDD9 CALLER DUP5 DUP5 PUSH2 0x3026 JUMP JUMPDEST PUSH1 0x1 SWAP1 POP SWAP3 SWAP2 POP POP JUMP JUMPDEST PUSH1 0x2B DUP2 PUSH1 0x2 DUP2 LT PUSH2 0xDF3 JUMPI PUSH1 0x0 DUP1 REVERT JUMPDEST ADD PUSH1 0x0 SWAP2 POP SWAP1 POP SLOAD DUP2 JUMP JUMPDEST PUSH1 0x6 SLOAD DUP2 JUMP JUMPDEST PUSH1 0x1F SLOAD DUP2 JUMP JUMPDEST PUSH1 0x1C PUSH1 0x0 SWAP1 SLOAD SWAP1 PUSH2 0x100 EXP SWAP1 DIV PUSH20 0xFFFFFFFFFFFFFFFFFFFFFFFFFFFFFFFFFFFFFFFF AND DUP2 JUMP JUMPDEST PUSH1 0x0 SLOAD DUP2 JUMP JUMPDEST PUSH1 0x0 PUSH2 0x101 PUSH1 0x2 PUSH1 0x0 DUP7 PUSH20 0xFFFFFFFFFFFFFFFFFFFFFFFFFFFFFFFFFFFFFFFF AND PUSH20 0xFFFFFFFFFFFFFFFFFFFFFFFFFFFFFFFFFFFFFFFF AND DUP2 MSTORE PUSH1 0x20 ADD SWAP1 DUP2 MSTORE PUSH1 0x20 ADD PUSH1 0x0 KECCAK256 PUSH1 0x0 CALLER PUSH20 0xFFFFFFFFFFFFFFFFFFFFFFFFFFFFFFFFFFFFFFFF AND PUSH20 0xFFFFFFFFFFFFFFFFFFFFFFFFFFFFFFFFFFFFFFFF AND DUP2 MSTORE PUSH1 0x20 ADD SWAP1 DUP2 MSTORE PUSH1 0x20 ADD PUSH1 0x0 KECCAK256 SLOAD EQ PUSH2 0xFCD JUMPI PUSH2 0xF4C DUP3 PUSH1 0x2 PUSH1 0x0 DUP8 PUSH20 0xFFFFFFFFFFFFFFFFFFFFFFFFFFFFFFFFFFFFFFFF AND PUSH20 0xFFFFFFFFFFFFFFFFFFFFFFFFFFFFFFFFFFFFFFFF AND DUP2 MSTORE PUSH1 0x20 ADD SWAP1 DUP2 MSTORE PUSH1 0x20 ADD PUSH1 0x0 KECCAK256 PUSH1 0x0 CALLER PUSH20 0xFFFFFFFFFFFFFFFFFFFFFFFFFFFFFFFFFFFFFFFF AND PUSH20 0xFFFFFFFFFFFFFFFFFFFFFFFFFFFFFFFFFFFFFFFF AND DUP2 MSTORE PUSH1 0x20 ADD SWAP1 DUP2 MSTORE PUSH1 0x20 ADD PUSH1 0x0 KECCAK256 SLOAD PUSH2 0x3111 SWAP1 SWAP2 SWAP1 PUSH4 0xFFFFFFFF AND JUMP JUMPDEST PUSH1 0x2 PUSH1 0x0 DUP7 PUSH20 0xFFFFFFFFFFFFFFFFFFFFFFFFFFFFFFFFFFFFFFFF AND PUSH20 0xFFFFFFFFFFFFFFFFFFFFFFFFFFFFFFFFFFFFFFFF AND DUP2 MSTORE PUSH1 0x20 ADD SWAP1 DUP2 MSTORE PUSH1 0x20 ADD PUSH1 0x0 KECCAK256 PUSH1 0x0 CALLER PUSH20 0xFFFFFFFFFFFFFFFFFFFFFFFFFFFFFFFFFFFFFFFF AND PUSH20 0xFFFFFFFFFFFFFFFFFFFFFFFFFFFFFFFFFFFFFFFF AND DUP2 MSTORE PUSH1 0x20 ADD SWAP1 DUP2 MSTORE PUSH1 0x20 ADD PUSH1 0x0 KECCAK256 DUP2 SWAP1 SSTORE POP JUMPDEST PUSH2 0xFD8 DUP5 DUP5 DUP5 PUSH2 0x316A JUMP JUMPDEST PUSH1 0x1 SWAP1 POP SWAP4 SWAP3 POP POP POP JUMP JUMPDEST PUSH1 0x1B PUSH1 0x0 SWAP1 SLOAD SWAP1 PUSH2 0x100 EXP SWAP1 DIV PUSH20 0xFFFFFFFFFFFFFFFFFFFFFFFFFFFFFFFFFFFFFFFF AND PUSH20 0xFFFFFFFFFFFFFFFFFFFFFFFFFFFFFFFFFFFFFFFF AND CALLER PUSH20 0xFFFFFFFFFFFFFFFFFFFFFFFFFFFFFFFFFFFFFFFF AND EQ PUSH2 0x103D JUMPI PUSH1 0x0 DUP1 REVERT JUMPDEST DUP1 PUSH1 0x23 DUP2 SWAP1 SSTORE POP POP JUMP JUMPDEST PUSH1 0x12 SLOAD DUP2 JUMP JUMPDEST PUSH1 0x2D PUSH1 0x20 MSTORE DUP2 PUSH1 0x0 MSTORE PUSH1 0x40 PUSH1 0x0 KECCAK256 PUSH1 0x20 MSTORE DUP1 PUSH1 0x0 MSTORE PUSH1 0x40 PUSH1 0x0 KECCAK256 PUSH1 0x0 SWAP2 POP SWAP2 POP POP DUP1 PUSH1 0x0 ADD SLOAD SWAP1 DUP1 PUSH1 0x1 ADD SLOAD SWAP1 POP DUP3 JUMP JUMPDEST PUSH1 0x1B PUSH1 0x0 SWAP1 SLOAD SWAP1 PUSH2 0x100 EXP SWAP1 DIV PUSH20 0xFFFFFFFFFFFFFFFFFFFFFFFFFFFFFFFFFFFFFFFF AND PUSH20 0xFFFFFFFFFFFFFFFFFFFFFFFFFFFFFFFFFFFFFFFF AND CALLER PUSH20 0xFFFFFFFFFFFFFFFFFFFFFFFFFFFFFFFFFFFFFFFF AND EQ PUSH2 0x10D8 JUMPI PUSH1 0x0 DUP1 REVERT JUMPDEST DUP1 PUSH1 0x28 PUSH1 0x0 PUSH2 0x100 EXP DUP2 SLOAD DUP2 PUSH1 0xFF MUL NOT AND SWAP1 DUP4 ISZERO ISZERO MUL OR SWAP1 SSTORE POP POP JUMP JUMPDEST PUSH1 0x1B PUSH1 0x0 SWAP1 SLOAD SWAP1 PUSH2 0x100 EXP SWAP1 DIV PUSH20 0xFFFFFFFFFFFFFFFFFFFFFFFFFFFFFFFFFFFFFFFF AND PUSH20 0xFFFFFFFFFFFFFFFFFFFFFFFFFFFFFFFFFFFFFFFF AND CALLER PUSH20 0xFFFFFFFFFFFFFFFFFFFFFFFFFFFFFFFFFFFFFFFF AND EQ PUSH2 0x114F JUMPI PUSH1 0x0 DUP1 REVERT JUMPDEST DUP1 PUSH1 0x1E DUP2 SWAP1 SSTORE POP POP JUMP JUMPDEST PUSH32 0x6E71EDAE12B1B97F4D1F60370FEF10105FA2FAAE0126114A169C64845D6126C9 PUSH1 0x0 SHL DUP2 JUMP JUMPDEST PUSH1 0x12 DUP2 JUMP JUMPDEST PUSH1 0x28 PUSH1 0x0 SWAP1 SLOAD SWAP1 PUSH2 0x100 EXP SWAP1 DIV PUSH1 0xFF AND DUP2 JUMP JUMPDEST PUSH1 0x18 SLOAD DUP2 JUMP JUMPDEST PUSH1 0x5 SLOAD DUP2 JUMP JUMPDEST PUSH1 0x1B PUSH1 0x0 SWAP1 SLOAD SWAP1 PUSH2 0x100 EXP SWAP1 DIV PUSH20 0xFFFFFFFFFFFFFFFFFFFFFFFFFFFFFFFFFFFFFFFF AND PUSH20 0xFFFFFFFFFFFFFFFFFFFFFFFFFFFFFFFFFFFFFFFF AND CALLER PUSH20 0xFFFFFFFFFFFFFFFFFFFFFFFFFFFFFFFFFFFFFFFF AND EQ PUSH2 0x11FE JUMPI PUSH1 0x0 DUP1 REVERT JUMPDEST DUP1 PUSH1 0x26 DUP2 SWAP1 SSTORE POP POP JUMP JUMPDEST PUSH1 0x3 SLOAD DUP2 JUMP JUMPDEST PUSH1 0x2E PUSH1 0x20 MSTORE DUP2 PUSH1 0x0 MSTORE PUSH1 0x40 PUSH1 0x0 KECCAK256 DUP2 PUSH1 0x2 DUP2 LT PUSH2 0x122A JUMPI PUSH1 0x0 DUP1 REVERT JUMPDEST ADD PUSH1 0x0 SWAP2 POP SWAP2 POP POP SLOAD DUP2 JUMP JUMPDEST PUSH1 0x0 DUP3 PUSH20 0xFFFFFFFFFFFFFFFFFFFFFFFFFFFFFFFFFFFFFFFF AND PUSH4 0x70A08231 ADDRESS PUSH1 0x40 MLOAD DUP3 PUSH4 0xFFFFFFFF AND PUSH1 0xE0 SHL DUP2 MSTORE PUSH1 0x4 ADD PUSH2 0x1271 SWAP2 SWAP1 PUSH2 0x4341 JUMP JUMPDEST PUSH1 0x20 PUSH1 0x40 MLOAD DUP1 DUP4 SUB DUP2 DUP7 DUP1 EXTCODESIZE ISZERO DUP1 ISZERO PUSH2 0x1289 JUMPI PUSH1 0x0 DUP1 REVERT JUMPDEST POP GAS STATICCALL ISZERO DUP1 ISZERO PUSH2 0x129D JUMPI RETURNDATASIZE PUSH1 0x0 DUP1 RETURNDATACOPY RETURNDATASIZE PUSH1 0x0 REVERT JUMPDEST POP POP POP POP PUSH1 0x40 MLOAD RETURNDATASIZE PUSH1 0x1F NOT PUSH1 0x1F DUP3 ADD AND DUP3 ADD DUP1 PUSH1 0x40 MSTORE POP DUP2 ADD SWAP1 PUSH2 0x12C1 SWAP2 SWAP1 PUSH2 0x3FDE JUMP JUMPDEST SWAP1 POP PUSH1 0x1D PUSH1 0x0 SWAP1 SLOAD SWAP1 PUSH2 0x100 EXP SWAP1 DIV PUSH20 0xFFFFFFFFFFFFFFFFFFFFFFFFFFFFFFFFFFFFFFFF AND PUSH20 0xFFFFFFFFFFFFFFFFFFFFFFFFFFFFFFFFFFFFFFFF AND DUP4 PUSH20 0xFFFFFFFFFFFFFFFFFFFFFFFFFFFFFFFFFFFFFFFF AND EQ DUP1 ISZERO PUSH2 0x1333 JUMPI POP PUSH1 0x1 ISZERO ISZERO PUSH1 0x28 PUSH1 0x0 SWAP1 SLOAD SWAP1 PUSH2 0x100 EXP SWAP1 DIV PUSH1 0xFF AND ISZERO ISZERO EQ JUMPDEST ISZERO PUSH2 0x1405 JUMPI PUSH1 0x2B PUSH1 0x1 PUSH1 0x2 DUP2 LT PUSH2 0x134D JUMPI PUSH2 0x134C PUSH2 0x4AC9 JUMP JUMPDEST JUMPDEST ADD SLOAD PUSH1 0x11 SLOAD DUP3 PUSH2 0x135D SWAP2 SWAP1 PUSH2 0x4952 JUMP JUMPDEST PUSH2 0x1367 SWAP2 SWAP1 PUSH2 0x4952 JUMP JUMPDEST SWAP1 POP DUP1 PUSH1 0x2E PUSH1 0x0 DUP5 PUSH20 0xFFFFFFFFFFFFFFFFFFFFFFFFFFFFFFFFFFFFFFFF AND PUSH20 0xFFFFFFFFFFFFFFFFFFFFFFFFFFFFFFFFFFFFFFFF AND DUP2 MSTORE PUSH1 0x20 ADD SWAP1 DUP2 MSTORE PUSH1 0x20 ADD PUSH1 0x0 KECCAK256 PUSH1 0x1 PUSH1 0x2 DUP2 LT PUSH2 0x13BC JUMPI PUSH2 0x13BB PUSH2 0x4AC9 JUMP JUMPDEST JUMPDEST ADD PUSH1 0x0 DUP3 DUP3 SLOAD PUSH2 0x13CC SWAP2 SWAP1 PUSH2 0x4700 JUMP JUMPDEST SWAP3 POP POP DUP2 SWAP1 SSTORE POP DUP1 PUSH1 0x2B PUSH1 0x1 PUSH1 0x2 DUP2 LT PUSH2 0x13E9 JUMPI PUSH2 0x13E8 PUSH2 0x4AC9 JUMP JUMPDEST JUMPDEST ADD PUSH1 0x0 DUP3 DUP3 SLOAD PUSH2 0x13F9 SWAP2 SWAP1 PUSH2 0x4700 JUMP JUMPDEST SWAP3 POP POP DUP2 SWAP1 SSTORE POP PUSH2 0x14CE JUMP JUMPDEST PUSH1 0x2B PUSH1 0x0 PUSH1 0x2 DUP2 LT PUSH2 0x141A JUMPI PUSH2 0x1419 PUSH2 0x4AC9 JUMP JUMPDEST JUMPDEST ADD SLOAD PUSH1 0x10 SLOAD DUP3 PUSH2 0x142A SWAP2 SWAP1 PUSH2 0x4952 JUMP JUMPDEST PUSH2 0x1434 SWAP2 SWAP1 PUSH2 0x4952 JUMP JUMPDEST SWAP1 POP DUP1 PUSH1 0x2E PUSH1 0x0 DUP5 PUSH20 0xFFFFFFFFFFFFFFFFFFFFFFFFFFFFFFFFFFFFFFFF AND PUSH20 0xFFFFFFFFFFFFFFFFFFFFFFFFFFFFFFFFFFFFFFFF AND DUP2 MSTORE PUSH1 0x20 ADD SWAP1 DUP2 MSTORE PUSH1 0x20 ADD PUSH1 0x0 KECCAK256 PUSH1 0x0 PUSH1 0x2 DUP2 LT PUSH2 0x1489 JUMPI PUSH2 0x1488 PUSH2 0x4AC9 JUMP JUMPDEST JUMPDEST ADD PUSH1 0x0 DUP3 DUP3 SLOAD PUSH2 0x1499 SWAP2 SWAP1 PUSH2 0x4700 JUMP JUMPDEST SWAP3 POP POP DUP2 SWAP1 SSTORE POP DUP1 PUSH1 0x2B PUSH1 0x0 PUSH1 0x2 DUP2 LT PUSH2 0x14B6 JUMPI PUSH2 0x14B5 PUSH2 0x4AC9 JUMP JUMPDEST JUMPDEST ADD PUSH1 0x0 DUP3 DUP3 SLOAD PUSH2 0x14C6 SWAP2 SWAP1 PUSH2 0x4700 JUMP JUMPDEST SWAP3 POP POP DUP2 SWAP1 SSTORE POP JUMPDEST POP POP POP JUMP JUMPDEST PUSH1 0x1B PUSH1 0x0 SWAP1 SLOAD SWAP1 PUSH2 0x100 EXP SWAP1 DIV PUSH20 0xFFFFFFFFFFFFFFFFFFFFFFFFFFFFFFFFFFFFFFFF AND PUSH20 0xFFFFFFFFFFFFFFFFFFFFFFFFFFFFFFFFFFFFFFFF AND CALLER PUSH20 0xFFFFFFFFFFFFFFFFFFFFFFFFFFFFFFFFFFFFFFFF AND EQ PUSH2 0x152D JUMPI PUSH1 0x0 DUP1 REVERT JUMPDEST DUP1 PUSH1 0x27 DUP2 SWAP1 SSTORE POP POP JUMP JUMPDEST PUSH1 0x1B PUSH1 0x0 SWAP1 SLOAD SWAP1 PUSH2 0x100 EXP SWAP1 DIV PUSH20 0xFFFFFFFFFFFFFFFFFFFFFFFFFFFFFFFFFFFFFFFF AND PUSH20 0xFFFFFFFFFFFFFFFFFFFFFFFFFFFFFFFFFFFFFFFF AND CALLER PUSH20 0xFFFFFFFFFFFFFFFFFFFFFFFFFFFFFFFFFFFFFFFF AND EQ PUSH2 0x1591 JUMPI PUSH1 0x0 DUP1 REVERT JUMPDEST DUP2 PUSH1 0x1C PUSH1 0x0 PUSH2 0x100 EXP DUP2 SLOAD DUP2 PUSH20 0xFFFFFFFFFFFFFFFFFFFFFFFFFFFFFFFFFFFFFFFF MUL NOT AND SWAP1 DUP4 PUSH20 0xFFFFFFFFFFFFFFFFFFFFFFFFFFFFFFFFFFFFFFFF AND MUL OR SWAP1 SSTORE POP DUP1 PUSH1 0x1D PUSH1 0x0 PUSH2 0x100 EXP DUP2 SLOAD DUP2 PUSH20 0xFFFFFFFFFFFFFFFFFFFFFFFFFFFFFFFFFFFFFFFF MUL NOT AND SWAP1 DUP4 PUSH20 0xFFFFFFFFFFFFFFFFFFFFFFFFFFFFFFFFFFFFFFFF AND MUL OR SWAP1 SSTORE POP POP POP JUMP JUMPDEST PUSH1 0x1 PUSH1 0x29 SLOAD EQ PUSH2 0x165C JUMPI PUSH1 0x40 MLOAD PUSH32 0x8C379A000000000000000000000000000000000000000000000000000000000 DUP2 MSTORE PUSH1 0x4 ADD PUSH2 0x1653 SWAP1 PUSH2 0x4591 JUMP JUMPDEST PUSH1 0x40 MLOAD DUP1 SWAP2 SUB SWAP1 REVERT JUMPDEST PUSH1 0x0 PUSH1 0x29 DUP2 SWAP1 SSTORE POP PUSH1 0x0 DUP1 PUSH1 0x22 PUSH1 0x0 SWAP1 SLOAD SWAP1 PUSH2 0x100 EXP SWAP1 DIV PUSH20 0xFFFFFFFFFFFFFFFFFFFFFFFFFFFFFFFFFFFFFFFF AND PUSH20 0xFFFFFFFFFFFFFFFFFFFFFFFFFFFFFFFFFFFFFFFF AND DUP7 DUP7 DUP7 DUP7 PUSH1 0x40 MLOAD PUSH1 0x24 ADD PUSH2 0x16B7 SWAP5 SWAP4 SWAP3 SWAP2 SWAP1 PUSH2 0x4663 JUMP JUMPDEST PUSH1 0x40 MLOAD PUSH1 0x20 DUP2 DUP4 SUB SUB DUP2 MSTORE SWAP1 PUSH1 0x40 MSTORE PUSH32 0x17DC42AB00000000000000000000000000000000000000000000000000000000 PUSH28 0xFFFFFFFFFFFFFFFFFFFFFFFFFFFFFFFFFFFFFFFFFFFFFFFFFFFFFFFF NOT AND PUSH1 0x20 DUP3 ADD DUP1 MLOAD PUSH28 0xFFFFFFFFFFFFFFFFFFFFFFFFFFFFFFFFFFFFFFFFFFFFFFFFFFFFFFFF DUP4 DUP2 DUP4 AND OR DUP4 MSTORE POP POP POP POP PUSH1 0x40 MLOAD PUSH2 0x1741 SWAP2 SWAP1 PUSH2 0x42F3 JUMP JUMPDEST PUSH1 0x0 PUSH1 0x40 MLOAD DUP1 DUP4 SUB DUP2 DUP6 GAS DELEGATECALL SWAP2 POP POP RETURNDATASIZE DUP1 PUSH1 0x0 DUP2 EQ PUSH2 0x177C JUMPI PUSH1 0x40 MLOAD SWAP2 POP PUSH1 0x1F NOT PUSH1 0x3F RETURNDATASIZE ADD AND DUP3 ADD PUSH1 0x40 MSTORE RETURNDATASIZE DUP3 MSTORE RETURNDATASIZE PUSH1 0x0 PUSH1 0x20 DUP5 ADD RETURNDATACOPY PUSH2 0x1781 JUMP JUMPDEST PUSH1 0x60 SWAP2 POP JUMPDEST POP SWAP2 POP SWAP2 POP POP POP PUSH1 0x1 PUSH1 0x29 DUP2 SWAP1 SSTORE POP POP POP POP POP JUMP JUMPDEST PUSH1 0x11 SLOAD DUP2 JUMP JUMPDEST PUSH1 0x26 SLOAD DUP2 JUMP JUMPDEST PUSH1 0x27 SLOAD DUP2 JUMP JUMPDEST PUSH1 0x22 PUSH1 0x0 SWAP1 SLOAD SWAP1 PUSH2 0x100 EXP SWAP1 DIV PUSH20 0xFFFFFFFFFFFFFFFFFFFFFFFFFFFFFFFFFFFFFFFF AND DUP2 JUMP JUMPDEST PUSH1 0x1 PUSH1 0x20 MSTORE DUP1 PUSH1 0x0 MSTORE PUSH1 0x40 PUSH1 0x0 KECCAK256 PUSH1 0x0 SWAP2 POP SWAP1 POP SLOAD DUP2 JUMP JUMPDEST PUSH1 0xE SLOAD DUP2 JUMP JUMPDEST PUSH1 0xC SLOAD DUP2 JUMP JUMPDEST PUSH1 0x23 SLOAD DUP2 JUMP JUMPDEST PUSH1 0x1B PUSH1 0x0 SWAP1 SLOAD SWAP1 PUSH2 0x100 EXP SWAP1 DIV PUSH20 0xFFFFFFFFFFFFFFFFFFFFFFFFFFFFFFFFFFFFFFFF AND PUSH20 0xFFFFFFFFFFFFFFFFFFFFFFFFFFFFFFFFFFFFFFFF AND CALLER PUSH20 0xFFFFFFFFFFFFFFFFFFFFFFFFFFFFFFFFFFFFFFFF AND EQ PUSH2 0x1852 JUMPI PUSH1 0x0 DUP1 REVERT JUMPDEST DUP1 PUSH1 0x24 DUP2 SWAP1 SSTORE POP POP JUMP JUMPDEST PUSH1 0x13 SLOAD DUP2 JUMP JUMPDEST PUSH1 0x1B PUSH1 0x0 SWAP1 SLOAD SWAP1 PUSH2 0x100 EXP SWAP1 DIV PUSH20 0xFFFFFFFFFFFFFFFFFFFFFFFFFFFFFFFFFFFFFFFF AND PUSH20 0xFFFFFFFFFFFFFFFFFFFFFFFFFFFFFFFFFFFFFFFF AND CALLER PUSH20 0xFFFFFFFFFFFFFFFFFFFFFFFFFFFFFFFFFFFFFFFF AND EQ PUSH2 0x18BC JUMPI PUSH1 0x0 DUP1 REVERT JUMPDEST DUP1 PUSH1 0x2A PUSH1 0x0 PUSH2 0x100 EXP DUP2 SLOAD DUP2 PUSH1 0xFF MUL NOT AND SWAP1 DUP4 PUSH1 0xFF AND MUL OR SWAP1 SSTORE POP POP JUMP JUMPDEST PUSH1 0x21 SLOAD DUP2 JUMP JUMPDEST PUSH1 0x0 DUP1 PUSH1 0x1 PUSH1 0x29 SLOAD EQ PUSH2 0x1928 JUMPI PUSH1 0x40 MLOAD PUSH32 0x8C379A000000000000000000000000000000000000000000000000000000000 DUP2 MSTORE PUSH1 0x4 ADD PUSH2 0x191F SWAP1 PUSH2 0x4591 JUMP JUMPDEST PUSH1 0x40 MLOAD DUP1 SWAP2 SUB SWAP1 REVERT JUMPDEST PUSH1 0x0 PUSH1 0x29 DUP2 SWAP1 SSTORE POP PUSH2 0x193F DUP5 PUSH1 0x10 SLOAD PUSH1 0x1F SLOAD PUSH2 0x32FE JUMP JUMPDEST SWAP2 POP PUSH2 0x1950 DUP5 PUSH1 0x11 SLOAD PUSH1 0x1F SLOAD PUSH2 0x32FE JUMP JUMPDEST SWAP1 POP PUSH2 0x196E PUSH1 0x8 SLOAD DUP4 PUSH1 0x10 SLOAD PUSH2 0x1966 SWAP2 SWAP1 PUSH2 0x4952 JUMP JUMPDEST PUSH1 0x10 SLOAD PUSH2 0x32FE JUMP JUMPDEST PUSH1 0x8 DUP2 SWAP1 SSTORE POP PUSH2 0x1990 PUSH1 0x9 SLOAD DUP3 PUSH1 0x11 SLOAD PUSH2 0x1988 SWAP2 SWAP1 PUSH2 0x4952 JUMP JUMPDEST PUSH1 0x11 SLOAD PUSH2 0x32FE JUMP JUMPDEST PUSH1 0x9 DUP2 SWAP1 SSTORE POP DUP2 PUSH1 0x10 SLOAD PUSH2 0x19A4 SWAP2 SWAP1 PUSH2 0x4952 JUMP JUMPDEST PUSH1 0x10 DUP2 SWAP1 SSTORE POP DUP1 PUSH1 0x11 SLOAD PUSH2 0x19B8 SWAP2 SWAP1 PUSH2 0x4952 JUMP JUMPDEST PUSH1 0x11 DUP2 SWAP1 SSTORE POP DUP4 PUSH1 0x1F SLOAD PUSH2 0x19CC SWAP2 SWAP1 PUSH2 0x4952 JUMP JUMPDEST PUSH1 0x1F DUP2 SWAP1 SSTORE POP PUSH2 0x19DC ADDRESS DUP6 PUSH2 0x3320 JUMP JUMPDEST PUSH2 0x1A09 PUSH1 0x1C PUSH1 0x0 SWAP1 SLOAD SWAP1 PUSH2 0x100 EXP SWAP1 DIV PUSH20 0xFFFFFFFFFFFFFFFFFFFFFFFFFFFFFFFFFFFFFFFF AND DUP5 DUP5 PUSH2 0x343A JUMP JUMPDEST PUSH2 0x1A36 PUSH1 0x1D PUSH1 0x0 SWAP1 SLOAD SWAP1 PUSH2 0x100 EXP SWAP1 DIV PUSH20 0xFFFFFFFFFFFFFFFFFFFFFFFFFFFFFFFFFFFFFFFF AND DUP5 DUP4 PUSH2 0x343A JUMP JUMPDEST PUSH2 0x1A3E PUSH2 0x35C4 JUMP JUMPDEST PUSH1 0x6 DUP2 SWAP1 SSTORE POP PUSH1 0x1 PUSH1 0x29 DUP2 SWAP1 SSTORE POP SWAP3 POP SWAP3 SWAP1 POP JUMP JUMPDEST PUSH1 0x4 PUSH1 0x20 MSTORE DUP1 PUSH1 0x0 MSTORE PUSH1 0x40 PUSH1 0x0 KECCAK256 PUSH1 0x0 SWAP2 POP SWAP1 POP SLOAD DUP2 JUMP JUMPDEST PUSH1 0x15 SLOAD DUP2 JUMP JUMPDEST PUSH1 0x9 SLOAD DUP2 JUMP JUMPDEST PUSH1 0x8 SLOAD DUP2 JUMP JUMPDEST PUSH1 0x40 MLOAD DUP1 PUSH1 0x40 ADD PUSH1 0x40 MSTORE DUP1 PUSH1 0x6 DUP2 MSTORE PUSH1 0x20 ADD PUSH32 0x554E492D56320000000000000000000000000000000000000000000000000000 DUP2 MSTORE POP DUP2 JUMP JUMPDEST PUSH1 0x1B PUSH1 0x0 SWAP1 SLOAD SWAP1 PUSH2 0x100 EXP SWAP1 DIV PUSH20 0xFFFFFFFFFFFFFFFFFFFFFFFFFFFFFFFFFFFFFFFF AND PUSH20 0xFFFFFFFFFFFFFFFFFFFFFFFFFFFFFFFFFFFFFFFF AND CALLER PUSH20 0xFFFFFFFFFFFFFFFFFFFFFFFFFFFFFFFFFFFFFFFF AND EQ PUSH2 0x1B10 JUMPI PUSH1 0x0 DUP1 REVERT JUMPDEST DUP1 PUSH1 0x20 DUP2 SWAP1 SSTORE POP POP JUMP JUMPDEST PUSH1 0x1 PUSH1 0x29 SLOAD EQ PUSH2 0x1B5F JUMPI PUSH1 0x40 MLOAD PUSH32 0x8C379A000000000000000000000000000000000000000000000000000000000 DUP2 MSTORE PUSH1 0x4 ADD PUSH2 0x1B56 SWAP1 PUSH2 0x4591 JUMP JUMPDEST PUSH1 0x40 MLOAD DUP1 SWAP2 SUB SWAP1 REVERT JUMPDEST PUSH1 0x0 PUSH1 0x29 DUP2 SWAP1 SSTORE POP PUSH1 0x0 DUP3 EQ DUP1 ISZERO PUSH2 0x1B78 JUMPI POP PUSH1 0x11 SLOAD DUP2 LT JUMPDEST DUP1 PUSH2 0x1B90 JUMPI POP PUSH1 0x0 DUP2 EQ DUP1 ISZERO PUSH2 0x1B8F JUMPI POP PUSH1 0x11 SLOAD DUP3 LT JUMPDEST JUMPDEST PUSH2 0x1B99 JUMPI PUSH1 0x0 DUP1 REVERT JUMPDEST PUSH1 0x0 PUSH1 0x2B PUSH1 0x0 PUSH1 0x2 DUP2 LT PUSH2 0x1BB0 JUMPI PUSH2 0x1BAF PUSH2 0x4AC9 JUMP JUMPDEST JUMPDEST ADD SLOAD PUSH1 0x10 SLOAD PUSH2 0x1BBF SWAP2 SWAP1 PUSH2 0x4700 JUMP JUMPDEST PUSH1 0x1C PUSH1 0x0 SWAP1 SLOAD SWAP1 PUSH2 0x100 EXP SWAP1 DIV PUSH20 0xFFFFFFFFFFFFFFFFFFFFFFFFFFFFFFFFFFFFFFFF AND PUSH20 0xFFFFFFFFFFFFFFFFFFFFFFFFFFFFFFFFFFFFFFFF AND PUSH4 0x70A08231 ADDRESS PUSH1 0x40 MLOAD DUP3 PUSH4 0xFFFFFFFF AND PUSH1 0xE0 SHL DUP2 MSTORE PUSH1 0x4 ADD PUSH2 0x1C1A SWAP2 SWAP1 PUSH2 0x4341 JUMP JUMPDEST PUSH1 0x20 PUSH1 0x40 MLOAD DUP1 DUP4 SUB DUP2 DUP7 DUP1 EXTCODESIZE ISZERO DUP1 ISZERO PUSH2 0x1C32 JUMPI PUSH1 0x0 DUP1 REVERT JUMPDEST POP GAS STATICCALL ISZERO DUP1 ISZERO PUSH2 0x1C46 JUMPI RETURNDATASIZE PUSH1 0x0 DUP1 RETURNDATACOPY RETURNDATASIZE PUSH1 0x0 REVERT JUMPDEST POP POP POP POP PUSH1 0x40 MLOAD RETURNDATASIZE PUSH1 0x1F NOT PUSH1 0x1F DUP3 ADD AND DUP3 ADD DUP1 PUSH1 0x40 MSTORE POP DUP2 ADD SWAP1 PUSH2 0x1C6A SWAP2 SWAP1 PUSH2 0x3FDE JUMP JUMPDEST PUSH2 0x1C74 SWAP2 SWAP1 PUSH2 0x4952 JUMP JUMPDEST SWAP1 POP PUSH1 0x0 PUSH1 0x2B PUSH1 0x1 PUSH1 0x2 DUP2 LT PUSH2 0x1C8D JUMPI PUSH2 0x1C8C PUSH2 0x4AC9 JUMP JUMPDEST JUMPDEST ADD SLOAD PUSH1 0x11 SLOAD PUSH2 0x1C9C SWAP2 SWAP1 PUSH2 0x4700 JUMP JUMPDEST PUSH1 0x1D PUSH1 0x0 SWAP1 SLOAD SWAP1 PUSH2 0x100 EXP SWAP1 DIV PUSH20 0xFFFFFFFFFFFFFFFFFFFFFFFFFFFFFFFFFFFFFFFF AND PUSH20 0xFFFFFFFFFFFFFFFFFFFFFFFFFFFFFFFFFFFFFFFF AND PUSH4 0x70A08231 ADDRESS PUSH1 0x40 MLOAD DUP3 PUSH4 0xFFFFFFFF AND PUSH1 0xE0 SHL DUP2 MSTORE PUSH1 0x4 ADD PUSH2 0x1CF7 SWAP2 SWAP1 PUSH2 0x4341 JUMP JUMPDEST PUSH1 0x20 PUSH1 0x40 MLOAD DUP1 DUP4 SUB DUP2 DUP7 DUP1 EXTCODESIZE ISZERO DUP1 ISZERO PUSH2 0x1D0F JUMPI PUSH1 0x0 DUP1 REVERT JUMPDEST POP GAS STATICCALL ISZERO DUP1 ISZERO PUSH2 0x1D23 JUMPI RETURNDATASIZE PUSH1 0x0 DUP1 RETURNDATACOPY RETURNDATASIZE PUSH1 0x0 REVERT JUMPDEST POP POP POP POP PUSH1 0x40 MLOAD RETURNDATASIZE PUSH1 0x1F NOT PUSH1 0x1F DUP3 ADD AND DUP3 ADD DUP1 PUSH1 0x40 MSTORE POP DUP2 ADD SWAP1 PUSH2 0x1D47 SWAP2 SWAP1 PUSH2 0x3FDE JUMP JUMPDEST PUSH2 0x1D51 SWAP2 SWAP1 PUSH2 0x4952 JUMP JUMPDEST SWAP1 POP PUSH1 0x0 DUP3 GT DUP1 PUSH2 0x1D62 JUMPI POP PUSH1 0x0 DUP2 GT JUMPDEST PUSH2 0x1D6B JUMPI PUSH1 0x0 DUP1 REVERT JUMPDEST PUSH8 0xDE0B6B3A7640000 PUSH1 0x26 SLOAD PUSH8 0xDE0B6B3A7640000 PUSH2 0x1D8A SWAP2 SWAP1 PUSH2 0x4952 JUMP JUMPDEST PUSH2 0x1D94 SWAP2 SWAP1 PUSH2 0x4756 JUMP JUMPDEST DUP3 PUSH2 0x1D9F SWAP2 SWAP1 PUSH2 0x48F8 JUMP JUMPDEST SWAP2 POP PUSH8 0xDE0B6B3A7640000 PUSH1 0x26 SLOAD PUSH8 0xDE0B6B3A7640000 PUSH2 0x1DC0 SWAP2 SWAP1 PUSH2 0x4952 JUMP JUMPDEST PUSH2 0x1DCA SWAP2 SWAP1 PUSH2 0x4756 JUMP JUMPDEST DUP2 PUSH2 0x1DD5 SWAP2 SWAP1 PUSH2 0x48F8 JUMP JUMPDEST SWAP1 POP PUSH1 0x0 DUP5 GT ISZERO PUSH2 0x1E55 JUMPI PUSH2 0x1E23 PUSH1 0x1D PUSH1 0x0 SWAP1 SLOAD SWAP1 PUSH2 0x100 EXP SWAP1 DIV PUSH20 0xFFFFFFFFFFFFFFFFFFFFFFFFFFFFFFFFFFFFFFFF AND DUP7 PUSH2 0x1E13 DUP5 PUSH1 0x0 DUP10 PUSH2 0x3623 JUMP JUMPDEST DUP5 PUSH2 0x1E1E SWAP2 SWAP1 PUSH2 0x4952 JUMP JUMPDEST PUSH2 0x343A JUMP JUMPDEST PUSH2 0x1E50 PUSH1 0x1C PUSH1 0x0 SWAP1 SLOAD SWAP1 PUSH2 0x100 EXP SWAP1 DIV PUSH20 0xFFFFFFFFFFFFFFFFFFFFFFFFFFFFFFFFFFFFFFFF AND DUP7 DUP7 PUSH2 0x343A JUMP JUMPDEST PUSH2 0x1F59 JUMP JUMPDEST PUSH1 0x0 DUP4 GT ISZERO PUSH2 0x1ED3 JUMPI PUSH2 0x1EA1 PUSH1 0x1C PUSH1 0x0 SWAP1 SLOAD SWAP1 PUSH2 0x100 EXP SWAP1 DIV PUSH20 0xFFFFFFFFFFFFFFFFFFFFFFFFFFFFFFFFFFFFFFFF AND DUP7 PUSH2 0x1E91 DUP6 PUSH1 0x0 DUP9 PUSH2 0x37B9 JUMP JUMPDEST DUP6 PUSH2 0x1E9C SWAP2 SWAP1 PUSH2 0x4952 JUMP JUMPDEST PUSH2 0x343A JUMP JUMPDEST PUSH2 0x1ECE PUSH1 0x1D PUSH1 0x0 SWAP1 SLOAD SWAP1 PUSH2 0x100 EXP SWAP1 DIV PUSH20 0xFFFFFFFFFFFFFFFFFFFFFFFFFFFFFFFFFFFFFFFF AND DUP7 DUP6 PUSH2 0x343A JUMP JUMPDEST PUSH2 0x1F58 JUMP JUMPDEST PUSH1 0x0 DUP3 GT ISZERO PUSH2 0x1F15 JUMPI PUSH2 0x1F14 PUSH1 0x1D PUSH1 0x0 SWAP1 SLOAD SWAP1 PUSH2 0x100 EXP SWAP1 DIV PUSH20 0xFFFFFFFFFFFFFFFFFFFFFFFFFFFFFFFFFFFFFFFF AND DUP7 PUSH2 0x1F0F DUP6 PUSH1 0x0 DUP1 PUSH2 0x37B9 JUMP JUMPDEST PUSH2 0x343A JUMP JUMPDEST JUMPDEST PUSH1 0x0 DUP2 GT ISZERO PUSH2 0x1F57 JUMPI PUSH2 0x1F56 PUSH1 0x1C PUSH1 0x0 SWAP1 SLOAD SWAP1 PUSH2 0x100 EXP SWAP1 DIV PUSH20 0xFFFFFFFFFFFFFFFFFFFFFFFFFFFFFFFFFFFFFFFF AND DUP7 PUSH2 0x1F51 DUP5 PUSH1 0x0 DUP1 PUSH2 0x3623 JUMP JUMPDEST PUSH2 0x343A JUMP JUMPDEST JUMPDEST JUMPDEST JUMPDEST PUSH1 0x26 SLOAD PUSH8 0xDE0B6B3A7640000 PUSH2 0x1F6F SWAP2 SWAP1 PUSH2 0x4952 JUMP JUMPDEST PUSH1 0x26 SLOAD DUP4 PUSH2 0x1F7D SWAP2 SWAP1 PUSH2 0x48F8 JUMP JUMPDEST PUSH2 0x1F87 SWAP2 SWAP1 PUSH2 0x4756 JUMP JUMPDEST PUSH1 0x10 PUSH1 0x0 DUP3 DUP3 SLOAD PUSH2 0x1F98 SWAP2 SWAP1 PUSH2 0x4700 JUMP JUMPDEST SWAP3 POP POP DUP2 SWAP1 SSTORE POP PUSH1 0x26 SLOAD PUSH8 0xDE0B6B3A7640000 PUSH2 0x1FB5 SWAP2 SWAP1 PUSH2 0x4952 JUMP JUMPDEST PUSH1 0x26 SLOAD DUP3 PUSH2 0x1FC3 SWAP2 SWAP1 PUSH2 0x48F8 JUMP JUMPDEST PUSH2 0x1FCD SWAP2 SWAP1 PUSH2 0x4756 JUMP JUMPDEST PUSH1 0x11 PUSH1 0x0 DUP3 DUP3 SLOAD PUSH2 0x1FDE SWAP2 SWAP1 PUSH2 0x4700 JUMP JUMPDEST SWAP3 POP POP DUP2 SWAP1 SSTORE POP POP POP PUSH1 0x1 PUSH1 0x29 DUP2 SWAP1 SSTORE POP POP POP POP JUMP JUMPDEST PUSH1 0x14 SLOAD DUP2 JUMP JUMPDEST PUSH1 0xB SLOAD DUP2 JUMP JUMPDEST PUSH1 0x20 SLOAD DUP2 JUMP JUMPDEST PUSH1 0x19 PUSH1 0x0 SWAP1 SLOAD SWAP1 PUSH2 0x100 EXP SWAP1 DIV PUSH1 0xFF AND DUP2 JUMP JUMPDEST PUSH1 0x0 PUSH2 0x2026 CALLER DUP5 DUP5 PUSH2 0x316A JUMP JUMPDEST PUSH1 0x1 SWAP1 POP SWAP3 SWAP2 POP POP JUMP JUMPDEST PUSH1 0x1B PUSH1 0x0 SWAP1 SLOAD SWAP1 PUSH2 0x100 EXP SWAP1 DIV PUSH20 0xFFFFFFFFFFFFFFFFFFFFFFFFFFFFFFFFFFFFFFFF AND PUSH20 0xFFFFFFFFFFFFFFFFFFFFFFFFFFFFFFFFFFFFFFFF AND CALLER PUSH20 0xFFFFFFFFFFFFFFFFFFFFFFFFFFFFFFFFFFFFFFFF AND EQ PUSH2 0x208A JUMPI PUSH1 0x0 DUP1 REVERT JUMPDEST DUP1 PUSH1 0x1A DUP2 SWAP1 SSTORE POP POP JUMP JUMPDEST PUSH1 0x1B PUSH1 0x0 SWAP1 SLOAD SWAP1 PUSH2 0x100 EXP SWAP1 DIV PUSH20 0xFFFFFFFFFFFFFFFFFFFFFFFFFFFFFFFFFFFFFFFF AND PUSH20 0xFFFFFFFFFFFFFFFFFFFFFFFFFFFFFFFFFFFFFFFF AND CALLER PUSH20 0xFFFFFFFFFFFFFFFFFFFFFFFFFFFFFFFFFFFFFFFF AND EQ PUSH2 0x20EE JUMPI PUSH1 0x0 DUP1 REVERT JUMPDEST DUP1 PUSH1 0x25 DUP2 SWAP1 SSTORE POP POP JUMP JUMPDEST PUSH1 0x1D PUSH1 0x0 SWAP1 SLOAD SWAP1 PUSH2 0x100 EXP SWAP1 DIV PUSH20 0xFFFFFFFFFFFFFFFFFFFFFFFFFFFFFFFFFFFFFFFF AND DUP2 JUMP JUMPDEST PUSH1 0x10 SLOAD DUP2 JUMP JUMPDEST PUSH1 0x1 PUSH1 0x29 SLOAD EQ PUSH2 0x2169 JUMPI PUSH1 0x40 MLOAD PUSH32 0x8C379A000000000000000000000000000000000000000000000000000000000 DUP2 MSTORE PUSH1 0x4 ADD PUSH2 0x2160 SWAP1 PUSH2 0x4591 JUMP JUMPDEST PUSH1 0x40 MLOAD DUP1 SWAP2 SUB SWAP1 REVERT JUMPDEST PUSH1 0x0 PUSH1 0x29 DUP2 SWAP1 SSTORE POP PUSH2 0x2276 PUSH1 0x1C PUSH1 0x0 SWAP1 SLOAD SWAP1 PUSH2 0x100 EXP SWAP1 DIV PUSH20 0xFFFFFFFFFFFFFFFFFFFFFFFFFFFFFFFFFFFFFFFF AND DUP3 PUSH1 0x2B PUSH1 0x0 PUSH1 0x2 DUP2 LT PUSH2 0x21AD JUMPI PUSH2 0x21AC PUSH2 0x4AC9 JUMP JUMPDEST JUMPDEST ADD SLOAD PUSH1 0x10 SLOAD PUSH2 0x21BC SWAP2 SWAP1 PUSH2 0x4700 JUMP JUMPDEST PUSH1 0x1C PUSH1 0x0 SWAP1 SLOAD SWAP1 PUSH2 0x100 EXP SWAP1 DIV PUSH20 0xFFFFFFFFFFFFFFFFFFFFFFFFFFFFFFFFFFFFFFFF AND PUSH20 0xFFFFFFFFFFFFFFFFFFFFFFFFFFFFFFFFFFFFFFFF AND PUSH4 0x70A08231 ADDRESS PUSH1 0x40 MLOAD DUP3 PUSH4 0xFFFFFFFF AND PUSH1 0xE0 SHL DUP2 MSTORE PUSH1 0x4 ADD PUSH2 0x2217 SWAP2 SWAP1 PUSH2 0x4341 JUMP JUMPDEST PUSH1 0x20 PUSH1 0x40 MLOAD DUP1 DUP4 SUB DUP2 DUP7 DUP1 EXTCODESIZE ISZERO DUP1 ISZERO PUSH2 0x222F JUMPI PUSH1 0x0 DUP1 REVERT JUMPDEST POP GAS STATICCALL ISZERO DUP1 ISZERO PUSH2 0x2243 JUMPI RETURNDATASIZE PUSH1 0x0 DUP1 RETURNDATACOPY RETURNDATASIZE PUSH1 0x0 REVERT JUMPDEST POP POP POP POP PUSH1 0x40 MLOAD RETURNDATASIZE PUSH1 0x1F NOT PUSH1 0x1F DUP3 ADD AND DUP3 ADD DUP1 PUSH1 0x40 MSTORE POP DUP2 ADD SWAP1 PUSH2 0x2267 SWAP2 SWAP1 PUSH2 0x3FDE JUMP JUMPDEST PUSH2 0x2271 SWAP2 SWAP1 PUSH2 0x4952 JUMP JUMPDEST PUSH2 0x343A JUMP JUMPDEST PUSH2 0x237B PUSH1 0x1D PUSH1 0x0 SWAP1 SLOAD SWAP1 PUSH2 0x100 EXP SWAP1 DIV PUSH20 0xFFFFFFFFFFFFFFFFFFFFFFFFFFFFFFFFFFFFFFFF AND DUP3 PUSH1 0x2B PUSH1 0x1 PUSH1 0x2 DUP2 LT PUSH2 0x22B2 JUMPI PUSH2 0x22B1 PUSH2 0x4AC9 JUMP JUMPDEST JUMPDEST ADD SLOAD PUSH1 0x11 SLOAD PUSH2 0x22C1 SWAP2 SWAP1 PUSH2 0x4700 JUMP JUMPDEST PUSH1 0x1D PUSH1 0x0 SWAP1 SLOAD SWAP1 PUSH2 0x100 EXP SWAP1 DIV PUSH20 0xFFFFFFFFFFFFFFFFFFFFFFFFFFFFFFFFFFFFFFFF AND PUSH20 0xFFFFFFFFFFFFFFFFFFFFFFFFFFFFFFFFFFFFFFFF AND PUSH4 0x70A08231 ADDRESS PUSH1 0x40 MLOAD DUP3 PUSH4 0xFFFFFFFF AND PUSH1 0xE0 SHL DUP2 MSTORE PUSH1 0x4 ADD PUSH2 0x231C SWAP2 SWAP1 PUSH2 0x4341 JUMP JUMPDEST PUSH1 0x20 PUSH1 0x40 MLOAD DUP1 DUP4 SUB DUP2 DUP7 DUP1 EXTCODESIZE ISZERO DUP1 ISZERO PUSH2 0x2334 JUMPI PUSH1 0x0 DUP1 REVERT JUMPDEST POP GAS STATICCALL ISZERO DUP1 ISZERO PUSH2 0x2348 JUMPI RETURNDATASIZE PUSH1 0x0 DUP1 RETURNDATACOPY RETURNDATASIZE PUSH1 0x0 REVERT JUMPDEST POP POP POP POP PUSH1 0x40 MLOAD RETURNDATASIZE PUSH1 0x1F NOT PUSH1 0x1F DUP3 ADD AND DUP3 ADD DUP1 PUSH1 0x40 MSTORE POP DUP2 ADD SWAP1 PUSH2 0x236C SWAP2 SWAP1 PUSH2 0x3FDE JUMP JUMPDEST PUSH2 0x2376 SWAP2 SWAP1 PUSH2 0x4952 JUMP JUMPDEST PUSH2 0x343A JUMP JUMPDEST PUSH1 0x1 PUSH1 0x29 DUP2 SWAP1 SSTORE POP POP JUMP JUMPDEST PUSH1 0xA SLOAD DUP2 JUMP JUMPDEST PUSH1 0x1B PUSH1 0x0 SWAP1 SLOAD SWAP1 PUSH2 0x100 EXP SWAP1 DIV PUSH20 0xFFFFFFFFFFFFFFFFFFFFFFFFFFFFFFFFFFFFFFFF AND DUP2 JUMP JUMPDEST PUSH1 0x1A SLOAD DUP2 JUMP JUMPDEST TIMESTAMP DUP5 LT ISZERO PUSH2 0x23FB JUMPI PUSH1 0x40 MLOAD PUSH32 0x8C379A000000000000000000000000000000000000000000000000000000000 DUP2 MSTORE PUSH1 0x4 ADD PUSH2 0x23F2 SWAP1 PUSH2 0x4551 JUMP JUMPDEST PUSH1 0x40 MLOAD DUP1 SWAP2 SUB SWAP1 REVERT JUMPDEST PUSH1 0x0 PUSH1 0x3 SLOAD PUSH32 0x6E71EDAE12B1B97F4D1F60370FEF10105FA2FAAE0126114A169C64845D6126C9 PUSH1 0x0 SHL DUP10 DUP10 DUP10 PUSH1 0x4 PUSH1 0x0 DUP15 PUSH20 0xFFFFFFFFFFFFFFFFFFFFFFFFFFFFFFFFFFFFFFFF AND PUSH20 0xFFFFFFFFFFFFFFFFFFFFFFFFFFFFFFFFFFFFFFFF AND DUP2 MSTORE PUSH1 0x20 ADD SWAP1 DUP2 MSTORE PUSH1 0x20 ADD PUSH1 0x0 KECCAK256 PUSH1 0x0 DUP2 SLOAD DUP1 SWAP3 SWAP2 SWAP1 PUSH2 0x2477 SWAP1 PUSH2 0x4A18 JUMP JUMPDEST SWAP2 SWAP1 POP SSTORE DUP11 PUSH1 0x40 MLOAD PUSH1 0x20 ADD PUSH2 0x2491 SWAP7 SWAP6 SWAP5 SWAP4 SWAP3 SWAP2 SWAP1 PUSH2 0x4429 JUMP JUMPDEST PUSH1 0x40 MLOAD PUSH1 0x20 DUP2 DUP4 SUB SUB DUP2 MSTORE SWAP1 PUSH1 0x40 MSTORE DUP1 MLOAD SWAP1 PUSH1 0x20 ADD KECCAK256 PUSH1 0x40 MLOAD PUSH1 0x20 ADD PUSH2 0x24B8 SWAP3 SWAP2 SWAP1 PUSH2 0x430A JUMP JUMPDEST PUSH1 0x40 MLOAD PUSH1 0x20 DUP2 DUP4 SUB SUB DUP2 MSTORE SWAP1 PUSH1 0x40 MSTORE DUP1 MLOAD SWAP1 PUSH1 0x20 ADD KECCAK256 SWAP1 POP PUSH1 0x0 PUSH1 0x1 DUP3 DUP7 DUP7 DUP7 PUSH1 0x40 MLOAD PUSH1 0x0 DUP2 MSTORE PUSH1 0x20 ADD PUSH1 0x40 MSTORE PUSH1 0x40 MLOAD PUSH2 0x24F5 SWAP5 SWAP4 SWAP3 SWAP2 SWAP1 PUSH2 0x448A JUMP JUMPDEST PUSH1 0x20 PUSH1 0x40 MLOAD PUSH1 0x20 DUP2 SUB SWAP1 DUP1 DUP5 SUB SWAP1 DUP6 GAS STATICCALL ISZERO DUP1 ISZERO PUSH2 0x2517 JUMPI RETURNDATASIZE PUSH1 0x0 DUP1 RETURNDATACOPY RETURNDATASIZE PUSH1 0x0 REVERT JUMPDEST POP POP POP PUSH1 0x20 PUSH1 0x40 MLOAD SUB MLOAD SWAP1 POP PUSH1 0x0 PUSH20 0xFFFFFFFFFFFFFFFFFFFFFFFFFFFFFFFFFFFFFFFF AND DUP2 PUSH20 0xFFFFFFFFFFFFFFFFFFFFFFFFFFFFFFFFFFFFFFFF AND EQ ISZERO DUP1 ISZERO PUSH2 0x258B JUMPI POP DUP9 PUSH20 0xFFFFFFFFFFFFFFFFFFFFFFFFFFFFFFFFFFFFFFFF AND DUP2 PUSH20 0xFFFFFFFFFFFFFFFFFFFFFFFFFFFFFFFFFFFFFFFF AND EQ JUMPDEST PUSH2 0x25CA JUMPI PUSH1 0x40 MLOAD PUSH32 0x8C379A000000000000000000000000000000000000000000000000000000000 DUP2 MSTORE PUSH1 0x4 ADD PUSH2 0x25C1 SWAP1 PUSH2 0x4511 JUMP JUMPDEST PUSH1 0x40 MLOAD DUP1 SWAP2 SUB SWAP1 REVERT JUMPDEST PUSH2 0x25D5 DUP10 DUP10 DUP10 PUSH2 0x3026 JUMP JUMPDEST POP POP POP POP POP POP POP POP POP JUMP JUMPDEST PUSH1 0x1 PUSH1 0x29 SLOAD EQ PUSH2 0x2625 JUMPI PUSH1 0x40 MLOAD PUSH32 0x8C379A000000000000000000000000000000000000000000000000000000000 DUP2 MSTORE PUSH1 0x4 ADD PUSH2 0x261C SWAP1 PUSH2 0x4591 JUMP JUMPDEST PUSH1 0x40 MLOAD DUP1 SWAP2 SUB SWAP1 REVERT JUMPDEST PUSH1 0x0 PUSH1 0x29 DUP2 SWAP1 SSTORE POP PUSH1 0x0 DUP1 PUSH1 0x22 PUSH1 0x0 SWAP1 SLOAD SWAP1 PUSH2 0x100 EXP SWAP1 DIV PUSH20 0xFFFFFFFFFFFFFFFFFFFFFFFFFFFFFFFFFFFFFFFF AND PUSH20 0xFFFFFFFFFFFFFFFFFFFFFFFFFFFFFFFFFFFFFFFF AND DUP6 DUP6 DUP6 PUSH1 0x40 MLOAD PUSH1 0x24 ADD PUSH2 0x267E SWAP4 SWAP3 SWAP2 SWAP1 PUSH2 0x462C JUMP JUMPDEST PUSH1 0x40 MLOAD PUSH1 0x20 DUP2 DUP4 SUB SUB DUP2 MSTORE SWAP1 PUSH1 0x40 MSTORE PUSH32 0x4A13A9A00000000000000000000000000000000000000000000000000000000 PUSH28 0xFFFFFFFFFFFFFFFFFFFFFFFFFFFFFFFFFFFFFFFFFFFFFFFFFFFFFFFF NOT AND PUSH1 0x20 DUP3 ADD DUP1 MLOAD PUSH28 0xFFFFFFFFFFFFFFFFFFFFFFFFFFFFFFFFFFFFFFFFFFFFFFFFFFFFFFFF DUP4 DUP2 DUP4 AND OR DUP4 MSTORE POP POP POP POP PUSH1 0x40 MLOAD PUSH2 0x2708 SWAP2 SWAP1 PUSH2 0x42F3 JUMP JUMPDEST PUSH1 0x0 PUSH1 0x40 MLOAD DUP1 DUP4 SUB DUP2 DUP6 GAS DELEGATECALL SWAP2 POP POP RETURNDATASIZE DUP1 PUSH1 0x0 DUP2 EQ PUSH2 0x2743 JUMPI PUSH1 0x40 MLOAD SWAP2 POP PUSH1 0x1F NOT PUSH1 0x3F RETURNDATASIZE ADD AND DUP3 ADD PUSH1 0x40 MSTORE RETURNDATASIZE DUP3 MSTORE RETURNDATASIZE PUSH1 0x0 PUSH1 0x20 DUP5 ADD RETURNDATACOPY PUSH2 0x2748 JUMP JUMPDEST PUSH1 0x60 SWAP2 POP JUMPDEST POP SWAP2 POP SWAP2 POP POP POP PUSH1 0x1 PUSH1 0x29 DUP2 SWAP1 SSTORE POP POP POP POP JUMP JUMPDEST PUSH1 0xD SLOAD DUP2 JUMP JUMPDEST PUSH1 0x1 PUSH1 0x29 SLOAD EQ PUSH2 0x27A7 JUMPI PUSH1 0x40 MLOAD PUSH32 0x8C379A000000000000000000000000000000000000000000000000000000000 DUP2 MSTORE PUSH1 0x4 ADD PUSH2 0x279E SWAP1 PUSH2 0x4591 JUMP JUMPDEST PUSH1 0x40 MLOAD DUP1 SWAP2 SUB SWAP1 REVERT JUMPDEST PUSH1 0x0 PUSH1 0x29 DUP2 SWAP1 SSTORE POP PUSH1 0x0 DUP1 PUSH1 0x22 PUSH1 0x0 SWAP1 SLOAD SWAP1 PUSH2 0x100 EXP SWAP1 DIV PUSH20 0xFFFFFFFFFFFFFFFFFFFFFFFFFFFFFFFFFFFFFFFF AND PUSH20 0xFFFFFFFFFFFFFFFFFFFFFFFFFFFFFFFFFFFFFFFF AND DUP5 DUP5 PUSH1 0x40 MLOAD PUSH1 0x24 ADD PUSH2 0x27FE SWAP3 SWAP2 SWAP1 PUSH2 0x435C JUMP JUMPDEST PUSH1 0x40 MLOAD PUSH1 0x20 DUP2 DUP4 SUB SUB DUP2 MSTORE SWAP1 PUSH1 0x40 MSTORE PUSH32 0xBF3E6A6F00000000000000000000000000000000000000000000000000000000 PUSH28 0xFFFFFFFFFFFFFFFFFFFFFFFFFFFFFFFFFFFFFFFFFFFFFFFFFFFFFFFF NOT AND PUSH1 0x20 DUP3 ADD DUP1 MLOAD PUSH28 0xFFFFFFFFFFFFFFFFFFFFFFFFFFFFFFFFFFFFFFFFFFFFFFFFFFFFFFFF DUP4 DUP2 DUP4 AND OR DUP4 MSTORE POP POP POP POP PUSH1 0x40 MLOAD PUSH2 0x2888 SWAP2 SWAP1 PUSH2 0x42F3 JUMP JUMPDEST PUSH1 0x0 PUSH1 0x40 MLOAD DUP1 DUP4 SUB DUP2 DUP6 GAS DELEGATECALL SWAP2 POP POP RETURNDATASIZE DUP1 PUSH1 0x0 DUP2 EQ PUSH2 0x28C3 JUMPI PUSH1 0x40 MLOAD SWAP2 POP PUSH1 0x1F NOT PUSH1 0x3F RETURNDATASIZE ADD AND DUP3 ADD PUSH1 0x40 MSTORE RETURNDATASIZE DUP3 MSTORE RETURNDATASIZE PUSH1 0x0 PUSH1 0x20 DUP5 ADD RETURNDATACOPY PUSH2 0x28C8 JUMP JUMPDEST PUSH1 0x60 SWAP2 POP JUMPDEST POP SWAP2 POP SWAP2 POP POP POP PUSH1 0x1 PUSH1 0x29 DUP2 SWAP1 SSTORE POP POP POP JUMP JUMPDEST PUSH1 0x2 PUSH1 0x20 MSTORE DUP2 PUSH1 0x0 MSTORE PUSH1 0x40 PUSH1 0x0 KECCAK256 PUSH1 0x20 MSTORE DUP1 PUSH1 0x0 MSTORE PUSH1 0x40 PUSH1 0x0 KECCAK256 PUSH1 0x0 SWAP2 POP SWAP2 POP POP SLOAD DUP2 JUMP JUMPDEST PUSH1 0x1 PUSH1 0x29 SLOAD EQ PUSH2 0x2945 JUMPI PUSH1 0x40 MLOAD PUSH32 0x8C379A000000000000000000000000000000000000000000000000000000000 DUP2 MSTORE PUSH1 0x4 ADD PUSH2 0x293C SWAP1 PUSH2 0x4591 JUMP JUMPDEST PUSH1 0x40 MLOAD DUP1 SWAP2 SUB SWAP1 REVERT JUMPDEST PUSH1 0x0 PUSH1 0x29 DUP2 SWAP1 SSTORE POP PUSH1 0x0 DUP1 PUSH1 0x22 PUSH1 0x0 SWAP1 SLOAD SWAP1 PUSH2 0x100 EXP SWAP1 DIV PUSH20 0xFFFFFFFFFFFFFFFFFFFFFFFFFFFFFFFFFFFFFFFF AND PUSH20 0xFFFFFFFFFFFFFFFFFFFFFFFFFFFFFFFFFFFFFFFF AND DUP7 DUP7 DUP7 DUP7 PUSH1 0x40 MLOAD PUSH1 0x24 ADD PUSH2 0x29A0 SWAP5 SWAP4 SWAP3 SWAP2 SWAP1 PUSH2 0x4385 JUMP JUMPDEST PUSH1 0x40 MLOAD PUSH1 0x20 DUP2 DUP4 SUB SUB DUP2 MSTORE SWAP1 PUSH1 0x40 MSTORE PUSH32 0x2F0DDF4300000000000000000000000000000000000000000000000000000000 PUSH28 0xFFFFFFFFFFFFFFFFFFFFFFFFFFFFFFFFFFFFFFFFFFFFFFFFFFFFFFFF NOT AND PUSH1 0x20 DUP3 ADD DUP1 MLOAD PUSH28 0xFFFFFFFFFFFFFFFFFFFFFFFFFFFFFFFFFFFFFFFFFFFFFFFFFFFFFFFF DUP4 DUP2 DUP4 AND OR DUP4 MSTORE POP POP POP POP PUSH1 0x40 MLOAD PUSH2 0x2A2A SWAP2 SWAP1 PUSH2 0x42F3 JUMP JUMPDEST PUSH1 0x0 PUSH1 0x40 MLOAD DUP1 DUP4 SUB DUP2 DUP6 GAS DELEGATECALL SWAP2 POP POP RETURNDATASIZE DUP1 PUSH1 0x0 DUP2 EQ PUSH2 0x2A65 JUMPI PUSH1 0x40 MLOAD SWAP2 POP PUSH1 0x1F NOT PUSH1 0x3F RETURNDATASIZE ADD AND DUP3 ADD PUSH1 0x40 MSTORE RETURNDATASIZE DUP3 MSTORE RETURNDATASIZE PUSH1 0x0 PUSH1 0x20 DUP5 ADD RETURNDATACOPY PUSH2 0x2A6A JUMP JUMPDEST PUSH1 0x60 SWAP2 POP JUMPDEST POP SWAP2 POP SWAP2 POP POP POP PUSH1 0x1 PUSH1 0x29 DUP2 SWAP1 SSTORE POP POP POP POP POP JUMP JUMPDEST PUSH1 0xF SLOAD DUP2 JUMP JUMPDEST PUSH1 0x0 PUSH1 0x1 PUSH1 0x29 SLOAD EQ PUSH2 0x2ACC JUMPI PUSH1 0x40 MLOAD PUSH32 0x8C379A000000000000000000000000000000000000000000000000000000000 DUP2 MSTORE PUSH1 0x4 ADD PUSH2 0x2AC3 SWAP1 PUSH2 0x4591 JUMP JUMPDEST PUSH1 0x40 MLOAD DUP1 SWAP2 SUB SWAP1 REVERT JUMPDEST PUSH1 0x0 PUSH1 0x29 DUP2 SWAP1 SSTORE POP PUSH1 0x0 PUSH1 0x2B PUSH1 0x0 PUSH1 0x2 DUP2 LT PUSH2 0x2AEB JUMPI PUSH2 0x2AEA PUSH2 0x4AC9 JUMP JUMPDEST JUMPDEST ADD SLOAD PUSH1 0x10 SLOAD PUSH2 0x2AFA SWAP2 SWAP1 PUSH2 0x4700 JUMP JUMPDEST PUSH1 0x1C PUSH1 0x0 SWAP1 SLOAD SWAP1 PUSH2 0x100 EXP SWAP1 DIV PUSH20 0xFFFFFFFFFFFFFFFFFFFFFFFFFFFFFFFFFFFFFFFF AND PUSH20 0xFFFFFFFFFFFFFFFFFFFFFFFFFFFFFFFFFFFFFFFF AND PUSH4 0x70A08231 ADDRESS PUSH1 0x40 MLOAD DUP3 PUSH4 0xFFFFFFFF AND PUSH1 0xE0 SHL DUP2 MSTORE PUSH1 0x4 ADD PUSH2 0x2B55 SWAP2 SWAP1 PUSH2 0x4341 JUMP JUMPDEST PUSH1 0x20 PUSH1 0x40 MLOAD DUP1 DUP4 SUB DUP2 DUP7 DUP1 EXTCODESIZE ISZERO DUP1 ISZERO PUSH2 0x2B6D JUMPI PUSH1 0x0 DUP1 REVERT JUMPDEST POP GAS STATICCALL ISZERO DUP1 ISZERO PUSH2 0x2B81 JUMPI RETURNDATASIZE PUSH1 0x0 DUP1 RETURNDATACOPY RETURNDATASIZE PUSH1 0x0 REVERT JUMPDEST POP POP POP POP PUSH1 0x40 MLOAD RETURNDATASIZE PUSH1 0x1F NOT PUSH1 0x1F DUP3 ADD AND DUP3 ADD DUP1 PUSH1 0x40 MSTORE POP DUP2 ADD SWAP1 PUSH2 0x2BA5 SWAP2 SWAP1 PUSH2 0x3FDE JUMP JUMPDEST PUSH2 0x2BAF SWAP2 SWAP1 PUSH2 0x4952 JUMP JUMPDEST SWAP1 POP PUSH1 0x0 PUSH1 0x2B PUSH1 0x1 PUSH1 0x2 DUP2 LT PUSH2 0x2BC8 JUMPI PUSH2 0x2BC7 PUSH2 0x4AC9 JUMP JUMPDEST JUMPDEST ADD SLOAD PUSH1 0x11 SLOAD PUSH2 0x2BD7 SWAP2 SWAP1 PUSH2 0x4700 JUMP JUMPDEST PUSH1 0x1D PUSH1 0x0 SWAP1 SLOAD SWAP1 PUSH2 0x100 EXP SWAP1 DIV PUSH20 0xFFFFFFFFFFFFFFFFFFFFFFFFFFFFFFFFFFFFFFFF AND PUSH20 0xFFFFFFFFFFFFFFFFFFFFFFFFFFFFFFFFFFFFFFFF AND PUSH4 0x70A08231 ADDRESS PUSH1 0x40 MLOAD DUP3 PUSH4 0xFFFFFFFF AND PUSH1 0xE0 SHL DUP2 MSTORE PUSH1 0x4 ADD PUSH2 0x2C32 SWAP2 SWAP1 PUSH2 0x4341 JUMP JUMPDEST PUSH1 0x20 PUSH1 0x40 MLOAD DUP1 DUP4 SUB DUP2 DUP7 DUP1 EXTCODESIZE ISZERO DUP1 ISZERO PUSH2 0x2C4A JUMPI PUSH1 0x0 DUP1 REVERT JUMPDEST POP GAS STATICCALL ISZERO DUP1 ISZERO PUSH2 0x2C5E JUMPI RETURNDATASIZE PUSH1 0x0 DUP1 RETURNDATACOPY RETURNDATASIZE PUSH1 0x0 REVERT JUMPDEST POP POP POP POP PUSH1 0x40 MLOAD RETURNDATASIZE PUSH1 0x1F NOT PUSH1 0x1F DUP3 ADD AND DUP3 ADD DUP1 PUSH1 0x40 MSTORE POP DUP2 ADD SWAP1 PUSH2 0x2C82 SWAP2 SWAP1 PUSH2 0x3FDE JUMP JUMPDEST PUSH2 0x2C8C SWAP2 SWAP1 PUSH2 0x4952 JUMP JUMPDEST SWAP1 POP PUSH1 0x0 PUSH1 0x1F SLOAD EQ ISZERO PUSH2 0x2D1E JUMPI PUSH1 0x21 SLOAD PUSH1 0x5 DUP2 SWAP1 SSTORE POP PUSH1 0x21 SLOAD PUSH1 0x6 DUP2 SWAP1 SSTORE POP PUSH1 0x6 SLOAD PUSH1 0x7 DUP2 SWAP1 SSTORE POP PUSH1 0x21 SLOAD PUSH1 0x8 DUP2 SWAP1 SSTORE POP PUSH1 0x21 SLOAD PUSH1 0x9 DUP2 SWAP1 SSTORE POP DUP2 PUSH1 0x2 PUSH1 0x21 SLOAD PUSH2 0x2CD6 SWAP2 SWAP1 PUSH2 0x47DA JUMP JUMPDEST PUSH2 0x2CE0 SWAP2 SWAP1 PUSH2 0x4756 JUMP JUMPDEST PUSH1 0xA DUP2 SWAP1 SSTORE POP DUP1 PUSH1 0x2 PUSH1 0x21 SLOAD PUSH2 0x2CF6 SWAP2 SWAP1 PUSH2 0x47DA JUMP JUMPDEST PUSH2 0x2D00 SWAP2 SWAP1 PUSH2 0x4756 JUMP JUMPDEST PUSH1 0xB DUP2 SWAP1 SSTORE POP DUP2 PUSH1 0xE DUP2 SWAP1 SSTORE POP DUP1 PUSH1 0xF DUP2 SWAP1 SSTORE POP PUSH1 0x21 SLOAD SWAP3 POP PUSH2 0x2D8B JUMP JUMPDEST PUSH2 0x2D3A PUSH1 0x8 SLOAD DUP4 PUSH1 0x10 SLOAD PUSH2 0x2D32 SWAP2 SWAP1 PUSH2 0x4700 JUMP JUMPDEST PUSH1 0x10 SLOAD PUSH2 0x32FE JUMP JUMPDEST PUSH1 0x8 DUP2 SWAP1 SSTORE POP PUSH2 0x2D5C PUSH1 0x9 SLOAD DUP3 PUSH1 0x11 SLOAD PUSH2 0x2D54 SWAP2 SWAP1 PUSH2 0x4700 JUMP JUMPDEST PUSH1 0x11 SLOAD PUSH2 0x32FE JUMP JUMPDEST PUSH1 0x9 DUP2 SWAP1 SSTORE POP PUSH2 0x2D88 PUSH2 0x2D74 PUSH1 0x1F SLOAD DUP5 PUSH1 0x10 SLOAD PUSH2 0x32FE JUMP JUMPDEST PUSH2 0x2D83 PUSH1 0x1F SLOAD DUP5 PUSH1 0x11 SLOAD PUSH2 0x32FE JUMP JUMPDEST PUSH2 0x394F JUMP JUMPDEST SWAP3 POP JUMPDEST DUP3 PUSH1 0x1F SLOAD PUSH2 0x2D99 SWAP2 SWAP1 PUSH2 0x4700 JUMP JUMPDEST PUSH1 0x1F DUP2 SWAP1 SSTORE POP DUP2 PUSH1 0x10 SLOAD PUSH2 0x2DAD SWAP2 SWAP1 PUSH2 0x4700 JUMP JUMPDEST PUSH1 0x10 DUP2 SWAP1 SSTORE POP DUP1 PUSH1 0x11 SLOAD PUSH2 0x2DC1 SWAP2 SWAP1 PUSH2 0x4700 JUMP JUMPDEST PUSH1 0x11 DUP2 SWAP1 SSTORE POP PUSH2 0x2DD1 DUP5 DUP5 PUSH2 0x3968 JUMP JUMPDEST PUSH2 0x2DD9 PUSH2 0x35C4 JUMP JUMPDEST PUSH1 0x6 DUP2 SWAP1 SSTORE POP POP POP PUSH1 0x1 PUSH1 0x29 DUP2 SWAP1 SSTORE POP SWAP2 SWAP1 POP JUMP JUMPDEST PUSH1 0x1 PUSH1 0x29 SLOAD EQ PUSH2 0x2E33 JUMPI PUSH1 0x40 MLOAD PUSH32 0x8C379A000000000000000000000000000000000000000000000000000000000 DUP2 MSTORE PUSH1 0x4 ADD PUSH2 0x2E2A SWAP1 PUSH2 0x4591 JUMP JUMPDEST PUSH1 0x40 MLOAD DUP1 SWAP2 SUB SWAP1 REVERT JUMPDEST PUSH1 0x0 PUSH1 0x29 DUP2 SWAP1 SSTORE POP PUSH1 0x0 DUP1 PUSH1 0x22 PUSH1 0x0 SWAP1 SLOAD SWAP1 PUSH2 0x100 EXP SWAP1 DIV PUSH20 0xFFFFFFFFFFFFFFFFFFFFFFFFFFFFFFFFFFFFFFFF AND PUSH20 0xFFFFFFFFFFFFFFFFFFFFFFFFFFFFFFFFFFFFFFFF AND DUP6 DUP6 DUP6 PUSH1 0x40 MLOAD PUSH1 0x24 ADD PUSH2 0x2E8C SWAP4 SWAP3 SWAP2 SWAP1 PUSH2 0x462C JUMP JUMPDEST PUSH1 0x40 MLOAD PUSH1 0x20 DUP2 DUP4 SUB SUB DUP2 MSTORE SWAP1 PUSH1 0x40 MSTORE PUSH32 0x2E411DCA00000000000000000000000000000000000000000000000000000000 PUSH28 0xFFFFFFFFFFFFFFFFFFFFFFFFFFFFFFFFFFFFFFFFFFFFFFFFFFFFFFFF NOT AND PUSH1 0x20 DUP3 ADD DUP1 MLOAD PUSH28 0xFFFFFFFFFFFFFFFFFFFFFFFFFFFFFFFFFFFFFFFFFFFFFFFFFFFFFFFF DUP4 DUP2 DUP4 AND OR DUP4 MSTORE POP POP POP POP PUSH1 0x40 MLOAD PUSH2 0x2F16 SWAP2 SWAP1 PUSH2 0x42F3 JUMP JUMPDEST PUSH1 0x0 PUSH1 0x40 MLOAD DUP1 DUP4 SUB DUP2 DUP6 GAS DELEGATECALL SWAP2 POP POP RETURNDATASIZE DUP1 PUSH1 0x0 DUP2 EQ PUSH2 0x2F51 JUMPI PUSH1 0x40 MLOAD SWAP2 POP PUSH1 0x1F NOT PUSH1 0x3F RETURNDATASIZE ADD AND DUP3 ADD PUSH1 0x40 MSTORE RETURNDATASIZE DUP3 MSTORE RETURNDATASIZE PUSH1 0x0 PUSH1 0x20 DUP5 ADD RETURNDATACOPY PUSH2 0x2F56 JUMP JUMPDEST PUSH1 0x60 SWAP2 POP JUMPDEST POP SWAP2 POP SWAP2 POP POP POP PUSH1 0x1 PUSH1 0x29 DUP2 SWAP1 SSTORE POP POP POP POP JUMP JUMPDEST PUSH1 0x25 SLOAD DUP2 JUMP JUMPDEST PUSH1 0x1E SLOAD DUP2 JUMP JUMPDEST PUSH1 0x7 SLOAD DUP2 JUMP JUMPDEST PUSH1 0x24 SLOAD DUP2 JUMP JUMPDEST PUSH1 0x17 SLOAD DUP2 JUMP JUMPDEST PUSH1 0x1B PUSH1 0x0 SWAP1 SLOAD SWAP1 PUSH2 0x100 EXP SWAP1 DIV PUSH20 0xFFFFFFFFFFFFFFFFFFFFFFFFFFFFFFFFFFFFFFFF AND PUSH20 0xFFFFFFFFFFFFFFFFFFFFFFFFFFFFFFFFFFFFFFFF AND CALLER PUSH20 0xFFFFFFFFFFFFFFFFFFFFFFFFFFFFFFFFFFFFFFFF AND EQ PUSH2 0x2FE2 JUMPI PUSH1 0x0 DUP1 REVERT JUMPDEST DUP1 PUSH1 0x22 PUSH1 0x0 PUSH2 0x100 EXP DUP2 SLOAD DUP2 PUSH20 0xFFFFFFFFFFFFFFFFFFFFFFFFFFFFFFFFFFFFFFFF MUL NOT AND SWAP1 DUP4 PUSH20 0xFFFFFFFFFFFFFFFFFFFFFFFFFFFFFFFFFFFFFFFF AND MUL OR SWAP1 SSTORE POP POP JUMP JUMPDEST DUP1 PUSH1 0x2 PUSH1 0x0 DUP6 PUSH20 0xFFFFFFFFFFFFFFFFFFFFFFFFFFFFFFFFFFFFFFFF AND PUSH20 0xFFFFFFFFFFFFFFFFFFFFFFFFFFFFFFFFFFFFFFFF AND DUP2 MSTORE PUSH1 0x20 ADD SWAP1 DUP2 MSTORE PUSH1 0x20 ADD PUSH1 0x0 KECCAK256 PUSH1 0x0 DUP5 PUSH20 0xFFFFFFFFFFFFFFFFFFFFFFFFFFFFFFFFFFFFFFFF AND PUSH20 0xFFFFFFFFFFFFFFFFFFFFFFFFFFFFFFFFFFFFFFFF AND DUP2 MSTORE PUSH1 0x20 ADD SWAP1 DUP2 MSTORE PUSH1 0x20 ADD PUSH1 0x0 KECCAK256 DUP2 SWAP1 SSTORE POP DUP2 PUSH20 0xFFFFFFFFFFFFFFFFFFFFFFFFFFFFFFFFFFFFFFFF AND DUP4 PUSH20 0xFFFFFFFFFFFFFFFFFFFFFFFFFFFFFFFFFFFFFFFF AND PUSH32 0x8C5BE1E5EBEC7D5BD14F71427D1E84F3DD0314C0F7B2291E5B200AC8C7C3B925 DUP4 PUSH1 0x40 MLOAD PUSH2 0x3104 SWAP2 SWAP1 PUSH2 0x45B1 JUMP JUMPDEST PUSH1 0x40 MLOAD DUP1 SWAP2 SUB SWAP1 LOG3 POP POP POP JUMP JUMPDEST PUSH1 0x0 DUP3 DUP3 DUP5 PUSH2 0x3120 SWAP2 SWAP1 PUSH2 0x4952 JUMP JUMPDEST SWAP2 POP DUP2 GT ISZERO PUSH2 0x3164 JUMPI PUSH1 0x40 MLOAD PUSH32 0x8C379A000000000000000000000000000000000000000000000000000000000 DUP2 MSTORE PUSH1 0x4 ADD PUSH2 0x315B SWAP1 PUSH2 0x44F1 JUMP JUMPDEST PUSH1 0x40 MLOAD DUP1 SWAP2 SUB SWAP1 REVERT JUMPDEST SWAP3 SWAP2 POP POP JUMP JUMPDEST PUSH2 0x31BC DUP2 PUSH1 0x1 PUSH1 0x0 DUP7 PUSH20 0xFFFFFFFFFFFFFFFFFFFFFFFFFFFFFFFFFFFFFFFF AND PUSH20 0xFFFFFFFFFFFFFFFFFFFFFFFFFFFFFFFFFFFFFFFF AND DUP2 MSTORE PUSH1 0x20 ADD SWAP1 DUP2 MSTORE PUSH1 0x20 ADD PUSH1 0x0 KECCAK256 SLOAD PUSH2 0x3111 SWAP1 SWAP2 SWAP1 PUSH4 0xFFFFFFFF AND JUMP JUMPDEST PUSH1 0x1 PUSH1 0x0 DUP6 PUSH20 0xFFFFFFFFFFFFFFFFFFFFFFFFFFFFFFFFFFFFFFFF AND PUSH20 0xFFFFFFFFFFFFFFFFFFFFFFFFFFFFFFFFFFFFFFFF AND DUP2 MSTORE PUSH1 0x20 ADD SWAP1 DUP2 MSTORE PUSH1 0x20 ADD PUSH1 0x0 KECCAK256 DUP2 SWAP1 SSTORE POP PUSH2 0x3251 DUP2 PUSH1 0x1 PUSH1 0x0 DUP6 PUSH20 0xFFFFFFFFFFFFFFFFFFFFFFFFFFFFFFFFFFFFFFFF AND PUSH20 0xFFFFFFFFFFFFFFFFFFFFFFFFFFFFFFFFFFFFFFFF AND DUP2 MSTORE PUSH1 0x20 ADD SWAP1 DUP2 MSTORE PUSH1 0x20 ADD PUSH1 0x0 KECCAK256 SLOAD PUSH2 0x3A82 SWAP1 SWAP2 SWAP1 PUSH4 0xFFFFFFFF AND JUMP JUMPDEST PUSH1 0x1 PUSH1 0x0 DUP5 PUSH20 0xFFFFFFFFFFFFFFFFFFFFFFFFFFFFFFFFFFFFFFFF AND PUSH20 0xFFFFFFFFFFFFFFFFFFFFFFFFFFFFFFFFFFFFFFFF AND DUP2 MSTORE PUSH1 0x20 ADD SWAP1 DUP2 MSTORE PUSH1 0x20 ADD PUSH1 0x0 KECCAK256 DUP2 SWAP1 SSTORE POP DUP2 PUSH20 0xFFFFFFFFFFFFFFFFFFFFFFFFFFFFFFFFFFFFFFFF AND DUP4 PUSH20 0xFFFFFFFFFFFFFFFFFFFFFFFFFFFFFFFFFFFFFFFF AND PUSH32 0xDDF252AD1BE2C89B69C2B068FC378DAA952BA7F163C4A11628F55A4DF523B3EF DUP4 PUSH1 0x40 MLOAD PUSH2 0x32F1 SWAP2 SWAP1 PUSH2 0x45B1 JUMP JUMPDEST PUSH1 0x40 MLOAD DUP1 SWAP2 SUB SWAP1 LOG3 POP POP POP JUMP JUMPDEST PUSH1 0x0 DUP2 DUP4 DUP6 PUSH2 0x330D SWAP2 SWAP1 PUSH2 0x48F8 JUMP JUMPDEST PUSH2 0x3317 SWAP2 SWAP1 PUSH2 0x4756 JUMP JUMPDEST SWAP1 POP SWAP4 SWAP3 POP POP POP JUMP JUMPDEST PUSH2 0x3372 DUP2 PUSH1 0x1 PUSH1 0x0 DUP6 PUSH20 0xFFFFFFFFFFFFFFFFFFFFFFFFFFFFFFFFFFFFFFFF AND PUSH20 0xFFFFFFFFFFFFFFFFFFFFFFFFFFFFFFFFFFFFFFFF AND DUP2 MSTORE PUSH1 0x20 ADD SWAP1 DUP2 MSTORE PUSH1 0x20 ADD PUSH1 0x0 KECCAK256 SLOAD PUSH2 0x3111 SWAP1 SWAP2 SWAP1 PUSH4 0xFFFFFFFF AND JUMP JUMPDEST PUSH1 0x1 PUSH1 0x0 DUP5 PUSH20 0xFFFFFFFFFFFFFFFFFFFFFFFFFFFFFFFFFFFFFFFF AND PUSH20 0xFFFFFFFFFFFFFFFFFFFFFFFFFFFFFFFFFFFFFFFF AND DUP2 MSTORE PUSH1 0x20 ADD SWAP1 DUP2 MSTORE PUSH1 0x20 ADD PUSH1 0x0 KECCAK256 DUP2 SWAP1 SSTORE POP PUSH2 0x33CA DUP2 PUSH1 0x0 SLOAD PUSH2 0x3111 SWAP1 SWAP2 SWAP1 PUSH4 0xFFFFFFFF AND JUMP JUMPDEST PUSH1 0x0 DUP2 SWAP1 SSTORE POP PUSH1 0x0 PUSH20 0xFFFFFFFFFFFFFFFFFFFFFFFFFFFFFFFFFFFFFFFF AND DUP3 PUSH20 0xFFFFFFFFFFFFFFFFFFFFFFFFFFFFFFFFFFFFFFFF AND PUSH32 0xDDF252AD1BE2C89B69C2B068FC378DAA952BA7F163C4A11628F55A4DF523B3EF DUP4 PUSH1 0x40 MLOAD PUSH2 0x342E SWAP2 SWAP1 PUSH2 0x45B1 JUMP JUMPDEST PUSH1 0x40 MLOAD DUP1 SWAP2 SUB SWAP1 LOG3 POP POP JUMP JUMPDEST PUSH1 0x0 DUP1 DUP5 PUSH20 0xFFFFFFFFFFFFFFFFFFFFFFFFFFFFFFFFFFFFFFFF AND PUSH1 0x40 MLOAD DUP1 PUSH1 0x40 ADD PUSH1 0x40 MSTORE DUP1 PUSH1 0x19 DUP2 MSTORE PUSH1 0x20 ADD PUSH32 0x7472616E7366657228616464726573732C75696E743235362900000000000000 DUP2 MSTORE POP DUP1 MLOAD SWAP1 PUSH1 0x20 ADD KECCAK256 DUP6 DUP6 PUSH1 0x40 MLOAD PUSH1 0x24 ADD PUSH2 0x34A4 SWAP3 SWAP2 SWAP1 PUSH2 0x43CA JUMP JUMPDEST PUSH1 0x40 MLOAD PUSH1 0x20 DUP2 DUP4 SUB SUB DUP2 MSTORE SWAP1 PUSH1 0x40 MSTORE SWAP1 PUSH28 0xFFFFFFFFFFFFFFFFFFFFFFFFFFFFFFFFFFFFFFFFFFFFFFFFFFFFFFFF NOT AND PUSH1 0x20 DUP3 ADD DUP1 MLOAD PUSH28 0xFFFFFFFFFFFFFFFFFFFFFFFFFFFFFFFFFFFFFFFFFFFFFFFFFFFFFFFF DUP4 DUP2 DUP4 AND OR DUP4 MSTORE POP POP POP POP PUSH1 0x40 MLOAD PUSH2 0x350E SWAP2 SWAP1 PUSH2 0x42F3 JUMP JUMPDEST PUSH1 0x0 PUSH1 0x40 MLOAD DUP1 DUP4 SUB DUP2 PUSH1 0x0 DUP7 GAS CALL SWAP2 POP POP RETURNDATASIZE DUP1 PUSH1 0x0 DUP2 EQ PUSH2 0x354B JUMPI PUSH1 0x40 MLOAD SWAP2 POP PUSH1 0x1F NOT PUSH1 0x3F RETURNDATASIZE ADD AND DUP3 ADD PUSH1 0x40 MSTORE RETURNDATASIZE DUP3 MSTORE RETURNDATASIZE PUSH1 0x0 PUSH1 0x20 DUP5 ADD RETURNDATACOPY PUSH2 0x3550 JUMP JUMPDEST PUSH1 0x60 SWAP2 POP JUMPDEST POP SWAP2 POP SWAP2 POP DUP2 DUP1 ISZERO PUSH2 0x357E JUMPI POP PUSH1 0x0 DUP2 MLOAD EQ DUP1 PUSH2 0x357D JUMPI POP DUP1 DUP1 PUSH1 0x20 ADD SWAP1 MLOAD DUP2 ADD SWAP1 PUSH2 0x357C SWAP2 SWAP1 PUSH2 0x3F84 JUMP JUMPDEST JUMPDEST JUMPDEST PUSH2 0x35BD JUMPI PUSH1 0x40 MLOAD PUSH32 0x8C379A000000000000000000000000000000000000000000000000000000000 DUP2 MSTORE PUSH1 0x4 ADD PUSH2 0x35B4 SWAP1 PUSH2 0x4571 JUMP JUMPDEST PUSH1 0x40 MLOAD DUP1 SWAP2 SUB SWAP1 REVERT JUMPDEST POP POP POP POP POP JUMP JUMPDEST PUSH1 0x0 DUP1 PUSH2 0x3600 PUSH1 0x10 SLOAD PUSH1 0x5 SLOAD PUSH1 0xA SLOAD PUSH1 0x11 SLOAD PUSH1 0x5 SLOAD PUSH1 0x21 SLOAD PUSH1 0x2 PUSH2 0x35E8 SWAP2 SWAP1 PUSH2 0x48F8 JUMP JUMPDEST PUSH2 0x35F2 SWAP2 SWAP1 PUSH2 0x4952 JUMP JUMPDEST PUSH1 0xB SLOAD PUSH1 0xE SLOAD PUSH1 0xF SLOAD PUSH2 0x3ADB JUMP JUMPDEST SWAP1 POP PUSH1 0x21 SLOAD DUP2 PUSH1 0x7 SLOAD PUSH2 0x3613 SWAP2 SWAP1 PUSH2 0x48F8 JUMP JUMPDEST PUSH2 0x361D SWAP2 SWAP1 PUSH2 0x4756 JUMP JUMPDEST SWAP2 POP POP SWAP1 JUMP JUMPDEST PUSH1 0x0 PUSH1 0x1 PUSH1 0x29 SLOAD EQ PUSH2 0x366A JUMPI PUSH1 0x40 MLOAD PUSH32 0x8C379A000000000000000000000000000000000000000000000000000000000 DUP2 MSTORE PUSH1 0x4 ADD PUSH2 0x3661 SWAP1 PUSH2 0x4591 JUMP JUMPDEST PUSH1 0x40 MLOAD DUP1 SWAP2 SUB SWAP1 REVERT JUMPDEST PUSH1 0x0 PUSH1 0x29 DUP2 SWAP1 SSTORE POP PUSH1 0x0 DUP1 PUSH1 0x22 PUSH1 0x0 SWAP1 SLOAD SWAP1 PUSH2 0x100 EXP SWAP1 DIV PUSH20 0xFFFFFFFFFFFFFFFFFFFFFFFFFFFFFFFFFFFFFFFF AND PUSH20 0xFFFFFFFFFFFFFFFFFFFFFFFFFFFFFFFFFFFFFFFF AND DUP7 DUP7 DUP7 PUSH1 0x40 MLOAD PUSH1 0x24 ADD PUSH2 0x36C3 SWAP4 SWAP3 SWAP2 SWAP1 PUSH2 0x45CC JUMP JUMPDEST PUSH1 0x40 MLOAD PUSH1 0x20 DUP2 DUP4 SUB SUB DUP2 MSTORE SWAP1 PUSH1 0x40 MSTORE PUSH32 0x2618C20E00000000000000000000000000000000000000000000000000000000 PUSH28 0xFFFFFFFFFFFFFFFFFFFFFFFFFFFFFFFFFFFFFFFFFFFFFFFFFFFFFFFF NOT AND PUSH1 0x20 DUP3 ADD DUP1 MLOAD PUSH28 0xFFFFFFFFFFFFFFFFFFFFFFFFFFFFFFFFFFFFFFFFFFFFFFFFFFFFFFFF DUP4 DUP2 DUP4 AND OR DUP4 MSTORE POP POP POP POP PUSH1 0x40 MLOAD PUSH2 0x374D SWAP2 SWAP1 PUSH2 0x42F3 JUMP JUMPDEST PUSH1 0x0 PUSH1 0x40 MLOAD DUP1 DUP4 SUB DUP2 DUP6 GAS DELEGATECALL SWAP2 POP POP RETURNDATASIZE DUP1 PUSH1 0x0 DUP2 EQ PUSH2 0x3788 JUMPI PUSH1 0x40 MLOAD SWAP2 POP PUSH1 0x1F NOT PUSH1 0x3F RETURNDATASIZE ADD AND DUP3 ADD PUSH1 0x40 MSTORE RETURNDATASIZE DUP3 MSTORE RETURNDATASIZE PUSH1 0x0 PUSH1 0x20 DUP5 ADD RETURNDATACOPY PUSH2 0x378D JUMP JUMPDEST PUSH1 0x60 SWAP2 POP JUMPDEST POP SWAP2 POP SWAP2 POP DUP1 DUP1 PUSH1 0x20 ADD SWAP1 MLOAD DUP2 ADD SWAP1 PUSH2 0x37A6 SWAP2 SWAP1 PUSH2 0x3FDE JUMP JUMPDEST SWAP3 POP POP POP PUSH1 0x1 PUSH1 0x29 DUP2 SWAP1 SSTORE POP SWAP4 SWAP3 POP POP POP JUMP JUMPDEST PUSH1 0x0 PUSH1 0x1 PUSH1 0x29 SLOAD EQ PUSH2 0x3800 JUMPI PUSH1 0x40 MLOAD PUSH32 0x8C379A000000000000000000000000000000000000000000000000000000000 DUP2 MSTORE PUSH1 0x4 ADD PUSH2 0x37F7 SWAP1 PUSH2 0x4591 JUMP JUMPDEST PUSH1 0x40 MLOAD DUP1 SWAP2 SUB SWAP1 REVERT JUMPDEST PUSH1 0x0 PUSH1 0x29 DUP2 SWAP1 SSTORE POP PUSH1 0x0 DUP1 PUSH1 0x22 PUSH1 0x0 SWAP1 SLOAD SWAP1 PUSH2 0x100 EXP SWAP1 DIV PUSH20 0xFFFFFFFFFFFFFFFFFFFFFFFFFFFFFFFFFFFFFFFF AND PUSH20 0xFFFFFFFFFFFFFFFFFFFFFFFFFFFFFFFFFFFFFFFF AND DUP7 DUP7 DUP7 PUSH1 0x40 MLOAD PUSH1 0x24 ADD PUSH2 0x3859 SWAP4 SWAP3 SWAP2 SWAP1 PUSH2 0x45CC JUMP JUMPDEST PUSH1 0x40 MLOAD PUSH1 0x20 DUP2 DUP4 SUB SUB DUP2 MSTORE SWAP1 PUSH1 0x40 MSTORE PUSH32 0xDA889AAA00000000000000000000000000000000000000000000000000000000 PUSH28 0xFFFFFFFFFFFFFFFFFFFFFFFFFFFFFFFFFFFFFFFFFFFFFFFFFFFFFFFF NOT AND PUSH1 0x20 DUP3 ADD DUP1 MLOAD PUSH28 0xFFFFFFFFFFFFFFFFFFFFFFFFFFFFFFFFFFFFFFFFFFFFFFFFFFFFFFFF DUP4 DUP2 DUP4 AND OR DUP4 MSTORE POP POP POP POP PUSH1 0x40 MLOAD PUSH2 0x38E3 SWAP2 SWAP1 PUSH2 0x42F3 JUMP JUMPDEST PUSH1 0x0 PUSH1 0x40 MLOAD DUP1 DUP4 SUB DUP2 DUP6 GAS DELEGATECALL SWAP2 POP POP RETURNDATASIZE DUP1 PUSH1 0x0 DUP2 EQ PUSH2 0x391E JUMPI PUSH1 0x40 MLOAD SWAP2 POP PUSH1 0x1F NOT PUSH1 0x3F RETURNDATASIZE ADD AND DUP3 ADD PUSH1 0x40 MSTORE RETURNDATASIZE DUP3 MSTORE RETURNDATASIZE PUSH1 0x0 PUSH1 0x20 DUP5 ADD RETURNDATACOPY PUSH2 0x3923 JUMP JUMPDEST PUSH1 0x60 SWAP2 POP JUMPDEST POP SWAP2 POP SWAP2 POP DUP1 DUP1 PUSH1 0x20 ADD SWAP1 MLOAD DUP2 ADD SWAP1 PUSH2 0x393C SWAP2 SWAP1 PUSH2 0x3FDE JUMP JUMPDEST SWAP3 POP POP POP PUSH1 0x1 PUSH1 0x29 DUP2 SWAP1 SSTORE POP SWAP4 SWAP3 POP POP POP JUMP JUMPDEST PUSH1 0x0 DUP2 DUP4 GT PUSH2 0x395E JUMPI DUP3 PUSH2 0x3960 JUMP JUMPDEST DUP2 JUMPDEST SWAP1 POP SWAP3 SWAP2 POP POP JUMP JUMPDEST PUSH2 0x397D DUP2 PUSH1 0x0 SLOAD PUSH2 0x3A82 SWAP1 SWAP2 SWAP1 PUSH4 0xFFFFFFFF AND JUMP JUMPDEST PUSH1 0x0 DUP2 SWAP1 SSTORE POP PUSH2 0x39D5 DUP2 PUSH1 0x1 PUSH1 0x0 DUP6 PUSH20 0xFFFFFFFFFFFFFFFFFFFFFFFFFFFFFFFFFFFFFFFF AND PUSH20 0xFFFFFFFFFFFFFFFFFFFFFFFFFFFFFFFFFFFFFFFF AND DUP2 MSTORE PUSH1 0x20 ADD SWAP1 DUP2 MSTORE PUSH1 0x20 ADD PUSH1 0x0 KECCAK256 SLOAD PUSH2 0x3A82 SWAP1 SWAP2 SWAP1 PUSH4 0xFFFFFFFF AND JUMP JUMPDEST PUSH1 0x1 PUSH1 0x0 DUP5 PUSH20 0xFFFFFFFFFFFFFFFFFFFFFFFFFFFFFFFFFFFFFFFF AND PUSH20 0xFFFFFFFFFFFFFFFFFFFFFFFFFFFFFFFFFFFFFFFF AND DUP2 MSTORE PUSH1 0x20 ADD SWAP1 DUP2 MSTORE PUSH1 0x20 ADD PUSH1 0x0 KECCAK256 DUP2 SWAP1 SSTORE POP DUP2 PUSH20 0xFFFFFFFFFFFFFFFFFFFFFFFFFFFFFFFFFFFFFFFF AND PUSH1 0x0 PUSH20 0xFFFFFFFFFFFFFFFFFFFFFFFFFFFFFFFFFFFFFFFF AND PUSH32 0xDDF252AD1BE2C89B69C2B068FC378DAA952BA7F163C4A11628F55A4DF523B3EF DUP4 PUSH1 0x40 MLOAD PUSH2 0x3A76 SWAP2 SWAP1 PUSH2 0x45B1 JUMP JUMPDEST PUSH1 0x40 MLOAD DUP1 SWAP2 SUB SWAP1 LOG3 POP POP JUMP JUMPDEST PUSH1 0x0 DUP3 DUP3 DUP5 PUSH2 0x3A91 SWAP2 SWAP1 PUSH2 0x4700 JUMP JUMPDEST SWAP2 POP DUP2 LT ISZERO PUSH2 0x3AD5 JUMPI PUSH1 0x40 MLOAD PUSH32 0x8C379A000000000000000000000000000000000000000000000000000000000 DUP2 MSTORE PUSH1 0x4 ADD PUSH2 0x3ACC SWAP1 PUSH2 0x4531 JUMP JUMPDEST PUSH1 0x40 MLOAD DUP1 SWAP2 SUB SWAP1 REVERT JUMPDEST SWAP3 SWAP2 POP POP JUMP JUMPDEST PUSH1 0x0 PUSH2 0x3B2D PUSH2 0x3AEE DUP5 DUP11 DUP11 DUP7 DUP11 DUP11 PUSH2 0x3B3B JUMP JUMPDEST PUSH23 0xA70C3C40A64E6C51999090B65F67D9240000000000000 PUSH2 0x3B14 DUP13 DUP13 DUP13 DUP13 DUP13 DUP13 PUSH2 0x3B3B JUMP JUMPDEST PUSH2 0x3B1E SWAP2 SWAP1 PUSH2 0x48F8 JUMP JUMPDEST PUSH2 0x3B28 SWAP2 SWAP1 PUSH2 0x4756 JUMP JUMPDEST PUSH2 0x3B97 JUMP JUMPDEST SWAP1 POP SWAP9 SWAP8 POP POP POP POP POP POP POP POP JUMP JUMPDEST PUSH1 0x0 DUP4 DUP8 DUP4 DUP6 DUP8 PUSH2 0x3B4C SWAP2 SWAP1 PUSH2 0x48F8 JUMP JUMPDEST PUSH2 0x3B56 SWAP2 SWAP1 PUSH2 0x48F8 JUMP JUMPDEST DUP8 DUP10 DUP12 PUSH2 0x3B63 SWAP2 SWAP1 PUSH2 0x48F8 JUMP JUMPDEST PUSH2 0x3B6D SWAP2 SWAP1 PUSH2 0x48F8 JUMP JUMPDEST PUSH2 0x3B77 SWAP2 SWAP1 PUSH2 0x4700 JUMP JUMPDEST PUSH2 0x3B81 SWAP2 SWAP1 PUSH2 0x48F8 JUMP JUMPDEST PUSH2 0x3B8B SWAP2 SWAP1 PUSH2 0x48F8 JUMP JUMPDEST SWAP1 POP SWAP7 SWAP6 POP POP POP POP POP POP JUMP JUMPDEST PUSH1 0x0 PUSH1 0x8 DUP3 GT ISZERO PUSH2 0x3C15 JUMPI DUP2 SWAP1 POP PUSH1 0x0 PUSH1 0x1 PUSH1 0x3 DUP5 PUSH2 0x3BB6 SWAP2 SWAP1 PUSH2 0x4756 JUMP JUMPDEST PUSH2 0x3BC0 SWAP2 SWAP1 PUSH2 0x4700 JUMP JUMPDEST SWAP1 POP JUMPDEST DUP2 DUP2 LT ISZERO PUSH2 0x3C0F JUMPI DUP1 SWAP2 POP PUSH1 0x3 DUP2 PUSH1 0x2 PUSH2 0x3BDD SWAP2 SWAP1 PUSH2 0x48F8 JUMP JUMPDEST DUP3 DUP4 PUSH2 0x3BE9 SWAP2 SWAP1 PUSH2 0x48F8 JUMP JUMPDEST DUP6 PUSH2 0x3BF4 SWAP2 SWAP1 PUSH2 0x4756 JUMP JUMPDEST PUSH2 0x3BFE SWAP2 SWAP1 PUSH2 0x4700 JUMP JUMPDEST PUSH2 0x3C08 SWAP2 SWAP1 PUSH2 0x4756 JUMP JUMPDEST SWAP1 POP PUSH2 0x3BC3 JUMP JUMPDEST POP PUSH2 0x3C23 JUMP JUMPDEST PUSH1 0x0 DUP3 EQ PUSH2 0x3C22 JUMPI PUSH1 0x1 SWAP1 POP JUMPDEST JUMPDEST SWAP2 SWAP1 POP JUMP JUMPDEST PUSH1 0x0 DUP2 CALLDATALOAD SWAP1 POP PUSH2 0x3C37 DUP2 PUSH2 0x4C3A JUMP JUMPDEST SWAP3 SWAP2 POP POP JUMP JUMPDEST PUSH1 0x0 DUP2 CALLDATALOAD SWAP1 POP PUSH2 0x3C4C DUP2 PUSH2 0x4C51 JUMP JUMPDEST SWAP3 SWAP2 POP POP JUMP JUMPDEST PUSH1 0x0 DUP2 MLOAD SWAP1 POP PUSH2 0x3C61 DUP2 PUSH2 0x4C51 JUMP JUMPDEST SWAP3 SWAP2 POP POP JUMP JUMPDEST PUSH1 0x0 DUP2 CALLDATALOAD SWAP1 POP PUSH2 0x3C76 DUP2 PUSH2 0x4C68 JUMP JUMPDEST SWAP3 SWAP2 POP POP JUMP JUMPDEST PUSH1 0x0 DUP2 CALLDATALOAD SWAP1 POP PUSH2 0x3C8B DUP2 PUSH2 0x4C7F JUMP JUMPDEST SWAP3 SWAP2 POP POP JUMP JUMPDEST PUSH1 0x0 DUP2 MLOAD SWAP1 POP PUSH2 0x3CA0 DUP2 PUSH2 0x4C7F JUMP JUMPDEST SWAP3 SWAP2 POP POP JUMP JUMPDEST PUSH1 0x0 DUP2 CALLDATALOAD SWAP1 POP PUSH2 0x3CB5 DUP2 PUSH2 0x4C96 JUMP JUMPDEST SWAP3 SWAP2 POP POP JUMP JUMPDEST PUSH1 0x0 PUSH1 0x20 DUP3 DUP5 SUB SLT ISZERO PUSH2 0x3CD1 JUMPI PUSH2 0x3CD0 PUSH2 0x4AF8 JUMP JUMPDEST JUMPDEST PUSH1 0x0 PUSH2 0x3CDF DUP5 DUP3 DUP6 ADD PUSH2 0x3C28 JUMP JUMPDEST SWAP2 POP POP SWAP3 SWAP2 POP POP JUMP JUMPDEST PUSH1 0x0 DUP1 PUSH1 0x40 DUP4 DUP6 SUB SLT ISZERO PUSH2 0x3CFF JUMPI PUSH2 0x3CFE PUSH2 0x4AF8 JUMP JUMPDEST JUMPDEST PUSH1 0x0 PUSH2 0x3D0D DUP6 DUP3 DUP7 ADD PUSH2 0x3C28 JUMP JUMPDEST SWAP3 POP POP PUSH1 0x20 PUSH2 0x3D1E DUP6 DUP3 DUP7 ADD PUSH2 0x3C28 JUMP JUMPDEST SWAP2 POP POP SWAP3 POP SWAP3 SWAP1 POP JUMP JUMPDEST PUSH1 0x0 DUP1 PUSH1 0x0 DUP1 PUSH1 0x80 DUP6 DUP8 SUB SLT ISZERO PUSH2 0x3D42 JUMPI PUSH2 0x3D41 PUSH2 0x4AF8 JUMP JUMPDEST JUMPDEST PUSH1 0x0 PUSH2 0x3D50 DUP8 DUP3 DUP9 ADD PUSH2 0x3C28 JUMP JUMPDEST SWAP5 POP POP PUSH1 0x20 PUSH2 0x3D61 DUP8 DUP3 DUP9 ADD PUSH2 0x3C28 JUMP JUMPDEST SWAP4 POP POP PUSH1 0x40 PUSH2 0x3D72 DUP8 DUP3 DUP9 ADD PUSH2 0x3C28 JUMP JUMPDEST SWAP3 POP POP PUSH1 0x60 PUSH2 0x3D83 DUP8 DUP3 DUP9 ADD PUSH2 0x3C7C JUMP JUMPDEST SWAP2 POP POP SWAP3 SWAP6 SWAP2 SWAP5 POP SWAP3 POP JUMP JUMPDEST PUSH1 0x0 DUP1 PUSH1 0x0 PUSH1 0x60 DUP5 DUP7 SUB SLT ISZERO PUSH2 0x3DA8 JUMPI PUSH2 0x3DA7 PUSH2 0x4AF8 JUMP JUMPDEST JUMPDEST PUSH1 0x0 PUSH2 0x3DB6 DUP7 DUP3 DUP8 ADD PUSH2 0x3C28 JUMP JUMPDEST SWAP4 POP POP PUSH1 0x20 PUSH2 0x3DC7 DUP7 DUP3 DUP8 ADD PUSH2 0x3C28 JUMP JUMPDEST SWAP3 POP POP PUSH1 0x40 PUSH2 0x3DD8 DUP7 DUP3 DUP8 ADD PUSH2 0x3C7C JUMP JUMPDEST SWAP2 POP POP SWAP3 POP SWAP3 POP SWAP3 JUMP JUMPDEST PUSH1 0x0 DUP1 PUSH1 0x0 DUP1 PUSH1 0x0 DUP1 PUSH1 0x0 PUSH1 0xE0 DUP9 DUP11 SUB SLT ISZERO PUSH2 0x3E01 JUMPI PUSH2 0x3E00 PUSH2 0x4AF8 JUMP JUMPDEST JUMPDEST PUSH1 0x0 PUSH2 0x3E0F DUP11 DUP3 DUP12 ADD PUSH2 0x3C28 JUMP JUMPDEST SWAP8 POP POP PUSH1 0x20 PUSH2 0x3E20 DUP11 DUP3 DUP12 ADD PUSH2 0x3C28 JUMP JUMPDEST SWAP7 POP POP PUSH1 0x40 PUSH2 0x3E31 DUP11 DUP3 DUP12 ADD PUSH2 0x3C7C JUMP JUMPDEST SWAP6 POP POP PUSH1 0x60 PUSH2 0x3E42 DUP11 DUP3 DUP12 ADD PUSH2 0x3C7C JUMP JUMPDEST SWAP5 POP POP PUSH1 0x80 PUSH2 0x3E53 DUP11 DUP3 DUP12 ADD PUSH2 0x3CA6 JUMP JUMPDEST SWAP4 POP POP PUSH1 0xA0 PUSH2 0x3E64 DUP11 DUP3 DUP12 ADD PUSH2 0x3C67 JUMP JUMPDEST SWAP3 POP POP PUSH1 0xC0 PUSH2 0x3E75 DUP11 DUP3 DUP12 ADD PUSH2 0x3C67 JUMP JUMPDEST SWAP2 POP POP SWAP3 SWAP6 SWAP9 SWAP2 SWAP5 SWAP8 POP SWAP3 SWAP6 POP JUMP JUMPDEST PUSH1 0x0 DUP1 PUSH1 0x40 DUP4 DUP6 SUB SLT ISZERO PUSH2 0x3E9B JUMPI PUSH2 0x3E9A PUSH2 0x4AF8 JUMP JUMPDEST JUMPDEST PUSH1 0x0 PUSH2 0x3EA9 DUP6 DUP3 DUP7 ADD PUSH2 0x3C28 JUMP JUMPDEST SWAP3 POP POP PUSH1 0x20 PUSH2 0x3EBA DUP6 DUP3 DUP7 ADD PUSH2 0x3C3D JUMP JUMPDEST SWAP2 POP POP SWAP3 POP SWAP3 SWAP1 POP JUMP JUMPDEST PUSH1 0x0 DUP1 PUSH1 0x40 DUP4 DUP6 SUB SLT ISZERO PUSH2 0x3EDB JUMPI PUSH2 0x3EDA PUSH2 0x4AF8 JUMP JUMPDEST JUMPDEST PUSH1 0x0 PUSH2 0x3EE9 DUP6 DUP3 DUP7 ADD PUSH2 0x3C28 JUMP JUMPDEST SWAP3 POP POP PUSH1 0x20 PUSH2 0x3EFA DUP6 DUP3 DUP7 ADD PUSH2 0x3C7C JUMP JUMPDEST SWAP2 POP POP SWAP3 POP SWAP3 SWAP1 POP JUMP JUMPDEST PUSH1 0x0 DUP1 PUSH1 0x0 PUSH1 0x60 DUP5 DUP7 SUB SLT ISZERO PUSH2 0x3F1D JUMPI PUSH2 0x3F1C PUSH2 0x4AF8 JUMP JUMPDEST JUMPDEST PUSH1 0x0 PUSH2 0x3F2B DUP7 DUP3 DUP8 ADD PUSH2 0x3C28 JUMP JUMPDEST SWAP4 POP POP PUSH1 0x20 PUSH2 0x3F3C DUP7 DUP3 DUP8 ADD PUSH2 0x3C7C JUMP JUMPDEST SWAP3 POP POP PUSH1 0x40 PUSH2 0x3F4D DUP7 DUP3 DUP8 ADD PUSH2 0x3C7C JUMP JUMPDEST SWAP2 POP POP SWAP3 POP SWAP3 POP SWAP3 JUMP JUMPDEST PUSH1 0x0 PUSH1 0x20 DUP3 DUP5 SUB SLT ISZERO PUSH2 0x3F6D JUMPI PUSH2 0x3F6C PUSH2 0x4AF8 JUMP JUMPDEST JUMPDEST PUSH1 0x0 PUSH2 0x3F7B DUP5 DUP3 DUP6 ADD PUSH2 0x3C3D JUMP JUMPDEST SWAP2 POP POP SWAP3 SWAP2 POP POP JUMP JUMPDEST PUSH1 0x0 PUSH1 0x20 DUP3 DUP5 SUB SLT ISZERO PUSH2 0x3F9A JUMPI PUSH2 0x3F99 PUSH2 0x4AF8 JUMP JUMPDEST JUMPDEST PUSH1 0x0 PUSH2 0x3FA8 DUP5 DUP3 DUP6 ADD PUSH2 0x3C52 JUMP JUMPDEST SWAP2 POP POP SWAP3 SWAP2 POP POP JUMP JUMPDEST PUSH1 0x0 PUSH1 0x20 DUP3 DUP5 SUB SLT ISZERO PUSH2 0x3FC7 JUMPI PUSH2 0x3FC6 PUSH2 0x4AF8 JUMP JUMPDEST JUMPDEST PUSH1 0x0 PUSH2 0x3FD5 DUP5 DUP3 DUP6 ADD PUSH2 0x3C7C JUMP JUMPDEST SWAP2 POP POP SWAP3 SWAP2 POP POP JUMP JUMPDEST PUSH1 0x0 PUSH1 0x20 DUP3 DUP5 SUB SLT ISZERO PUSH2 0x3FF4 JUMPI PUSH2 0x3FF3 PUSH2 0x4AF8 JUMP JUMPDEST JUMPDEST PUSH1 0x0 PUSH2 0x4002 DUP5 DUP3 DUP6 ADD PUSH2 0x3C91 JUMP JUMPDEST SWAP2 POP POP SWAP3 SWAP2 POP POP JUMP JUMPDEST PUSH1 0x0 DUP1 PUSH1 0x40 DUP4 DUP6 SUB SLT ISZERO PUSH2 0x4022 JUMPI PUSH2 0x4021 PUSH2 0x4AF8 JUMP JUMPDEST JUMPDEST PUSH1 0x0 PUSH2 0x4030 DUP6 DUP3 DUP7 ADD PUSH2 0x3C7C JUMP JUMPDEST SWAP3 POP POP PUSH1 0x20 PUSH2 0x4041 DUP6 DUP3 DUP7 ADD PUSH2 0x3C28 JUMP JUMPDEST SWAP2 POP POP SWAP3 POP SWAP3 SWAP1 POP JUMP JUMPDEST PUSH1 0x0 DUP1 PUSH1 0x0 PUSH1 0x60 DUP5 DUP7 SUB SLT ISZERO PUSH2 0x4064 JUMPI PUSH2 0x4063 PUSH2 0x4AF8 JUMP JUMPDEST JUMPDEST PUSH1 0x0 PUSH2 0x4072 DUP7 DUP3 DUP8 ADD PUSH2 0x3C7C JUMP JUMPDEST SWAP4 POP POP PUSH1 0x20 PUSH2 0x4083 DUP7 DUP3 DUP8 ADD PUSH2 0x3C7C JUMP JUMPDEST SWAP3 POP POP PUSH1 0x40 PUSH2 0x4094 DUP7 DUP3 DUP8 ADD PUSH2 0x3C28 JUMP JUMPDEST SWAP2 POP POP SWAP3 POP SWAP3 POP SWAP3 JUMP JUMPDEST PUSH1 0x0 DUP1 PUSH1 0x0 DUP1 PUSH1 0x80 DUP6 DUP8 SUB SLT ISZERO PUSH2 0x40B8 JUMPI PUSH2 0x40B7 PUSH2 0x4AF8 JUMP JUMPDEST JUMPDEST PUSH1 0x0 PUSH2 0x40C6 DUP8 DUP3 DUP9 ADD PUSH2 0x3C7C JUMP JUMPDEST SWAP5 POP POP PUSH1 0x20 PUSH2 0x40D7 DUP8 DUP3 DUP9 ADD PUSH2 0x3C7C JUMP JUMPDEST SWAP4 POP POP PUSH1 0x40 PUSH2 0x40E8 DUP8 DUP3 DUP9 ADD PUSH2 0x3C3D JUMP JUMPDEST SWAP3 POP POP PUSH1 0x60 PUSH2 0x40F9 DUP8 DUP3 DUP9 ADD PUSH2 0x3C28 JUMP JUMPDEST SWAP2 POP POP SWAP3 SWAP6 SWAP2 SWAP5 POP SWAP3 POP JUMP JUMPDEST PUSH1 0x0 PUSH1 0x20 DUP3 DUP5 SUB SLT ISZERO PUSH2 0x411B JUMPI PUSH2 0x411A PUSH2 0x4AF8 JUMP JUMPDEST JUMPDEST PUSH1 0x0 PUSH2 0x4129 DUP5 DUP3 DUP6 ADD PUSH2 0x3CA6 JUMP JUMPDEST SWAP2 POP POP SWAP3 SWAP2 POP POP JUMP JUMPDEST PUSH2 0x413B DUP2 PUSH2 0x4986 JUMP JUMPDEST DUP3 MSTORE POP POP JUMP JUMPDEST PUSH2 0x414A DUP2 PUSH2 0x4998 JUMP JUMPDEST DUP3 MSTORE POP POP JUMP JUMPDEST PUSH2 0x4159 DUP2 PUSH2 0x49A4 JUMP JUMPDEST DUP3 MSTORE POP POP JUMP JUMPDEST PUSH2 0x4170 PUSH2 0x416B DUP3 PUSH2 0x49A4 JUMP JUMPDEST PUSH2 0x4A61 JUMP JUMPDEST DUP3 MSTORE POP POP JUMP JUMPDEST PUSH1 0x0 PUSH2 0x4181 DUP3 PUSH2 0x46C3 JUMP JUMPDEST PUSH2 0x418B DUP2 DUP6 PUSH2 0x46D9 JUMP JUMPDEST SWAP4 POP PUSH2 0x419B DUP2 DUP6 PUSH1 0x20 DUP7 ADD PUSH2 0x49E5 JUMP JUMPDEST DUP1 DUP5 ADD SWAP2 POP POP SWAP3 SWAP2 POP POP JUMP JUMPDEST PUSH1 0x0 PUSH2 0x41B2 DUP3 PUSH2 0x46CE JUMP JUMPDEST PUSH2 0x41BC DUP2 DUP6 PUSH2 0x46E4 JUMP JUMPDEST SWAP4 POP PUSH2 0x41CC DUP2 DUP6 PUSH1 0x20 DUP7 ADD PUSH2 0x49E5 JUMP JUMPDEST PUSH2 0x41D5 DUP2 PUSH2 0x4AFD JUMP JUMPDEST DUP5 ADD SWAP2 POP POP SWAP3 SWAP2 POP POP JUMP JUMPDEST PUSH1 0x0 PUSH2 0x41ED PUSH1 0x15 DUP4 PUSH2 0x46E4 JUMP JUMPDEST SWAP2 POP PUSH2 0x41F8 DUP3 PUSH2 0x4B1B JUMP JUMPDEST PUSH1 0x20 DUP3 ADD SWAP1 POP SWAP2 SWAP1 POP JUMP JUMPDEST PUSH1 0x0 PUSH2 0x4210 PUSH1 0x1C DUP4 PUSH2 0x46E4 JUMP JUMPDEST SWAP2 POP PUSH2 0x421B DUP3 PUSH2 0x4B44 JUMP JUMPDEST PUSH1 0x20 DUP3 ADD SWAP1 POP SWAP2 SWAP1 POP JUMP JUMPDEST PUSH1 0x0 PUSH2 0x4233 PUSH1 0x2 DUP4 PUSH2 0x46F5 JUMP JUMPDEST SWAP2 POP PUSH2 0x423E DUP3 PUSH2 0x4B6D JUMP JUMPDEST PUSH1 0x2 DUP3 ADD SWAP1 POP SWAP2 SWAP1 POP JUMP JUMPDEST PUSH1 0x0 PUSH2 0x4256 PUSH1 0x14 DUP4 PUSH2 0x46E4 JUMP JUMPDEST SWAP2 POP PUSH2 0x4261 DUP3 PUSH2 0x4B96 JUMP JUMPDEST PUSH1 0x20 DUP3 ADD SWAP1 POP SWAP2 SWAP1 POP JUMP JUMPDEST PUSH1 0x0 PUSH2 0x4279 PUSH1 0x12 DUP4 PUSH2 0x46E4 JUMP JUMPDEST SWAP2 POP PUSH2 0x4284 DUP3 PUSH2 0x4BBF JUMP JUMPDEST PUSH1 0x20 DUP3 ADD SWAP1 POP SWAP2 SWAP1 POP JUMP JUMPDEST PUSH1 0x0 PUSH2 0x429C PUSH1 0xF DUP4 PUSH2 0x46E4 JUMP JUMPDEST SWAP2 POP PUSH2 0x42A7 DUP3 PUSH2 0x4BE8 JUMP JUMPDEST PUSH1 0x20 DUP3 ADD SWAP1 POP SWAP2 SWAP1 POP JUMP JUMPDEST PUSH1 0x0 PUSH2 0x42BF PUSH1 0x6 DUP4 PUSH2 0x46E4 JUMP JUMPDEST SWAP2 POP PUSH2 0x42CA DUP3 PUSH2 0x4C11 JUMP JUMPDEST PUSH1 0x20 DUP3 ADD SWAP1 POP SWAP2 SWAP1 POP JUMP JUMPDEST PUSH2 0x42DE DUP2 PUSH2 0x49CE JUMP JUMPDEST DUP3 MSTORE POP POP JUMP JUMPDEST PUSH2 0x42ED DUP2 PUSH2 0x49D8 JUMP JUMPDEST DUP3 MSTORE POP POP JUMP JUMPDEST PUSH1 0x0 PUSH2 0x42FF DUP3 DUP5 PUSH2 0x4176 JUMP JUMPDEST SWAP2 POP DUP2 SWAP1 POP SWAP3 SWAP2 POP POP JUMP JUMPDEST PUSH1 0x0 PUSH2 0x4315 DUP3 PUSH2 0x4226 JUMP JUMPDEST SWAP2 POP PUSH2 0x4321 DUP3 DUP6 PUSH2 0x415F JUMP JUMPDEST PUSH1 0x20 DUP3 ADD SWAP2 POP PUSH2 0x4331 DUP3 DUP5 PUSH2 0x415F JUMP JUMPDEST PUSH1 0x20 DUP3 ADD SWAP2 POP DUP2 SWAP1 POP SWAP4 SWAP3 POP POP POP JUMP JUMPDEST PUSH1 0x0 PUSH1 0x20 DUP3 ADD SWAP1 POP PUSH2 0x4356 PUSH1 0x0 DUP4 ADD DUP5 PUSH2 0x4132 JUMP JUMPDEST SWAP3 SWAP2 POP POP JUMP JUMPDEST PUSH1 0x0 PUSH1 0x40 DUP3 ADD SWAP1 POP PUSH2 0x4371 PUSH1 0x0 DUP4 ADD DUP6 PUSH2 0x4132 JUMP JUMPDEST PUSH2 0x437E PUSH1 0x20 DUP4 ADD DUP5 PUSH2 0x4132 JUMP JUMPDEST SWAP4 SWAP3 POP POP POP JUMP JUMPDEST PUSH1 0x0 PUSH1 0x80 DUP3 ADD SWAP1 POP PUSH2 0x439A PUSH1 0x0 DUP4 ADD DUP8 PUSH2 0x4132 JUMP JUMPDEST PUSH2 0x43A7 PUSH1 0x20 DUP4 ADD DUP7 PUSH2 0x4132 JUMP JUMPDEST PUSH2 0x43B4 PUSH1 0x40 DUP4 ADD DUP6 PUSH2 0x4132 JUMP JUMPDEST PUSH2 0x43C1 PUSH1 0x60 DUP4 ADD DUP5 PUSH2 0x42D5 JUMP JUMPDEST SWAP6 SWAP5 POP POP POP POP POP JUMP JUMPDEST PUSH1 0x0 PUSH1 0x40 DUP3 ADD SWAP1 POP PUSH2 0x43DF PUSH1 0x0 DUP4 ADD DUP6 PUSH2 0x4132 JUMP JUMPDEST PUSH2 0x43EC PUSH1 0x20 DUP4 ADD DUP5 PUSH2 0x42D5 JUMP JUMPDEST SWAP4 SWAP3 POP POP POP JUMP JUMPDEST PUSH1 0x0 PUSH1 0x20 DUP3 ADD SWAP1 POP PUSH2 0x4408 PUSH1 0x0 DUP4 ADD DUP5 PUSH2 0x4141 JUMP JUMPDEST SWAP3 SWAP2 POP POP JUMP JUMPDEST PUSH1 0x0 PUSH1 0x20 DUP3 ADD SWAP1 POP PUSH2 0x4423 PUSH1 0x0 DUP4 ADD DUP5 PUSH2 0x4150 JUMP JUMPDEST SWAP3 SWAP2 POP POP JUMP JUMPDEST PUSH1 0x0 PUSH1 0xC0 DUP3 ADD SWAP1 POP PUSH2 0x443E PUSH1 0x0 DUP4 ADD DUP10 PUSH2 0x4150 JUMP JUMPDEST PUSH2 0x444B PUSH1 0x20 DUP4 ADD DUP9 PUSH2 0x4132 JUMP JUMPDEST PUSH2 0x4458 PUSH1 0x40 DUP4 ADD DUP8 PUSH2 0x4132 JUMP JUMPDEST PUSH2 0x4465 PUSH1 0x60 DUP4 ADD DUP7 PUSH2 0x42D5 JUMP JUMPDEST PUSH2 0x4472 PUSH1 0x80 DUP4 ADD DUP6 PUSH2 0x42D5 JUMP JUMPDEST PUSH2 0x447F PUSH1 0xA0 DUP4 ADD DUP5 PUSH2 0x42D5 JUMP JUMPDEST SWAP8 SWAP7 POP POP POP POP POP POP POP JUMP JUMPDEST PUSH1 0x0 PUSH1 0x80 DUP3 ADD SWAP1 POP PUSH2 0x449F PUSH1 0x0 DUP4 ADD DUP8 PUSH2 0x4150 JUMP JUMPDEST PUSH2 0x44AC PUSH1 0x20 DUP4 ADD DUP7 PUSH2 0x42E4 JUMP JUMPDEST PUSH2 0x44B9 PUSH1 0x40 DUP4 ADD DUP6 PUSH2 0x4150 JUMP JUMPDEST PUSH2 0x44C6 PUSH1 0x60 DUP4 ADD DUP5 PUSH2 0x4150 JUMP JUMPDEST SWAP6 SWAP5 POP POP POP POP POP JUMP JUMPDEST PUSH1 0x0 PUSH1 0x20 DUP3 ADD SWAP1 POP DUP2 DUP2 SUB PUSH1 0x0 DUP4 ADD MSTORE PUSH2 0x44E9 DUP2 DUP5 PUSH2 0x41A7 JUMP JUMPDEST SWAP1 POP SWAP3 SWAP2 POP POP JUMP JUMPDEST PUSH1 0x0 PUSH1 0x20 DUP3 ADD SWAP1 POP DUP2 DUP2 SUB PUSH1 0x0 DUP4 ADD MSTORE PUSH2 0x450A DUP2 PUSH2 0x41E0 JUMP JUMPDEST SWAP1 POP SWAP2 SWAP1 POP JUMP JUMPDEST PUSH1 0x0 PUSH1 0x20 DUP3 ADD SWAP1 POP DUP2 DUP2 SUB PUSH1 0x0 DUP4 ADD MSTORE PUSH2 0x452A DUP2 PUSH2 0x4203 JUMP JUMPDEST SWAP1 POP SWAP2 SWAP1 POP JUMP JUMPDEST PUSH1 0x0 PUSH1 0x20 DUP3 ADD SWAP1 POP DUP2 DUP2 SUB PUSH1 0x0 DUP4 ADD MSTORE PUSH2 0x454A DUP2 PUSH2 0x4249 JUMP JUMPDEST SWAP1 POP SWAP2 SWAP1 POP JUMP JUMPDEST PUSH1 0x0 PUSH1 0x20 DUP3 ADD SWAP1 POP DUP2 DUP2 SUB PUSH1 0x0 DUP4 ADD MSTORE PUSH2 0x456A DUP2 PUSH2 0x426C JUMP JUMPDEST SWAP1 POP SWAP2 SWAP1 POP JUMP JUMPDEST PUSH1 0x0 PUSH1 0x20 DUP3 ADD SWAP1 POP DUP2 DUP2 SUB PUSH1 0x0 DUP4 ADD MSTORE PUSH2 0x458A DUP2 PUSH2 0x428F JUMP JUMPDEST SWAP1 POP SWAP2 SWAP1 POP JUMP JUMPDEST PUSH1 0x0 PUSH1 0x20 DUP3 ADD SWAP1 POP DUP2 DUP2 SUB PUSH1 0x0 DUP4 ADD MSTORE PUSH2 0x45AA DUP2 PUSH2 0x42B2 JUMP JUMPDEST SWAP1 POP SWAP2 SWAP1 POP JUMP JUMPDEST PUSH1 0x0 PUSH1 0x20 DUP3 ADD SWAP1 POP PUSH2 0x45C6 PUSH1 0x0 DUP4 ADD DUP5 PUSH2 0x42D5 JUMP JUMPDEST SWAP3 SWAP2 POP POP JUMP JUMPDEST PUSH1 0x0 PUSH1 0x60 DUP3 ADD SWAP1 POP PUSH2 0x45E1 PUSH1 0x0 DUP4 ADD DUP7 PUSH2 0x42D5 JUMP JUMPDEST PUSH2 0x45EE PUSH1 0x20 DUP4 ADD DUP6 PUSH2 0x4141 JUMP JUMPDEST PUSH2 0x45FB PUSH1 0x40 DUP4 ADD DUP5 PUSH2 0x42D5 JUMP JUMPDEST SWAP5 SWAP4 POP POP POP POP JUMP JUMPDEST PUSH1 0x0 PUSH1 0x40 DUP3 ADD SWAP1 POP PUSH2 0x4618 PUSH1 0x0 DUP4 ADD DUP6 PUSH2 0x42D5 JUMP JUMPDEST PUSH2 0x4625 PUSH1 0x20 DUP4 ADD DUP5 PUSH2 0x42D5 JUMP JUMPDEST SWAP4 SWAP3 POP POP POP JUMP JUMPDEST PUSH1 0x0 PUSH1 0x60 DUP3 ADD SWAP1 POP PUSH2 0x4641 PUSH1 0x0 DUP4 ADD DUP7 PUSH2 0x42D5 JUMP JUMPDEST PUSH2 0x464E PUSH1 0x20 DUP4 ADD DUP6 PUSH2 0x42D5 JUMP JUMPDEST PUSH2 0x465B PUSH1 0x40 DUP4 ADD DUP5 PUSH2 0x4132 JUMP JUMPDEST SWAP5 SWAP4 POP POP POP POP JUMP JUMPDEST PUSH1 0x0 PUSH1 0x80 DUP3 ADD SWAP1 POP PUSH2 0x4678 PUSH1 0x0 DUP4 ADD DUP8 PUSH2 0x42D5 JUMP JUMPDEST PUSH2 0x4685 PUSH1 0x20 DUP4 ADD DUP7 PUSH2 0x42D5 JUMP JUMPDEST PUSH2 0x4692 PUSH1 0x40 DUP4 ADD DUP6 PUSH2 0x4141 JUMP JUMPDEST PUSH2 0x469F PUSH1 0x60 DUP4 ADD DUP5 PUSH2 0x4132 JUMP JUMPDEST SWAP6 SWAP5 POP POP POP POP POP JUMP JUMPDEST PUSH1 0x0 PUSH1 0x20 DUP3 ADD SWAP1 POP PUSH2 0x46BD PUSH1 0x0 DUP4 ADD DUP5 PUSH2 0x42E4 JUMP JUMPDEST SWAP3 SWAP2 POP POP JUMP JUMPDEST PUSH1 0x0 DUP2 MLOAD SWAP1 POP SWAP2 SWAP1 POP JUMP JUMPDEST PUSH1 0x0 DUP2 MLOAD SWAP1 POP SWAP2 SWAP1 POP JUMP JUMPDEST PUSH1 0x0 DUP2 SWAP1 POP SWAP3 SWAP2 POP POP JUMP JUMPDEST PUSH1 0x0 DUP3 DUP3 MSTORE PUSH1 0x20 DUP3 ADD SWAP1 POP SWAP3 SWAP2 POP POP JUMP JUMPDEST PUSH1 0x0 DUP2 SWAP1 POP SWAP3 SWAP2 POP POP JUMP JUMPDEST PUSH1 0x0 PUSH2 0x470B DUP3 PUSH2 0x49CE JUMP JUMPDEST SWAP2 POP PUSH2 0x4716 DUP4 PUSH2 0x49CE JUMP JUMPDEST SWAP3 POP DUP3 PUSH32 0xFFFFFFFFFFFFFFFFFFFFFFFFFFFFFFFFFFFFFFFFFFFFFFFFFFFFFFFFFFFFFFFF SUB DUP3 GT ISZERO PUSH2 0x474B JUMPI PUSH2 0x474A PUSH2 0x4A6B JUMP JUMPDEST JUMPDEST DUP3 DUP3 ADD SWAP1 POP SWAP3 SWAP2 POP POP JUMP JUMPDEST PUSH1 0x0 PUSH2 0x4761 DUP3 PUSH2 0x49CE JUMP JUMPDEST SWAP2 POP PUSH2 0x476C DUP4 PUSH2 0x49CE JUMP JUMPDEST SWAP3 POP DUP3 PUSH2 0x477C JUMPI PUSH2 0x477B PUSH2 0x4A9A JUMP JUMPDEST JUMPDEST DUP3 DUP3 DIV SWAP1 POP SWAP3 SWAP2 POP POP JUMP JUMPDEST PUSH1 0x0 DUP1 DUP3 SWAP2 POP DUP4 SWAP1 POP JUMPDEST PUSH1 0x1 DUP6 GT ISZERO PUSH2 0x47D1 JUMPI DUP1 DUP7 DIV DUP2 GT ISZERO PUSH2 0x47AD JUMPI PUSH2 0x47AC PUSH2 0x4A6B JUMP JUMPDEST JUMPDEST PUSH1 0x1 DUP6 AND ISZERO PUSH2 0x47BC JUMPI DUP1 DUP3 MUL SWAP2 POP JUMPDEST DUP1 DUP2 MUL SWAP1 POP PUSH2 0x47CA DUP6 PUSH2 0x4B0E JUMP JUMPDEST SWAP5 POP PUSH2 0x4791 JUMP JUMPDEST SWAP5 POP SWAP5 SWAP3 POP POP POP JUMP JUMPDEST PUSH1 0x0 PUSH2 0x47E5 DUP3 PUSH2 0x49CE JUMP JUMPDEST SWAP2 POP PUSH2 0x47F0 DUP4 PUSH2 0x49D8 JUMP JUMPDEST SWAP3 POP PUSH2 0x481D PUSH32 0xFFFFFFFFFFFFFFFFFFFFFFFFFFFFFFFFFFFFFFFFFFFFFFFFFFFFFFFFFFFFFFFF DUP5 DUP5 PUSH2 0x4825 JUMP JUMPDEST SWAP1 POP SWAP3 SWAP2 POP POP JUMP JUMPDEST PUSH1 0x0 DUP3 PUSH2 0x4835 JUMPI PUSH1 0x1 SWAP1 POP PUSH2 0x48F1 JUMP JUMPDEST DUP2 PUSH2 0x4843 JUMPI PUSH1 0x0 SWAP1 POP PUSH2 0x48F1 JUMP JUMPDEST DUP2 PUSH1 0x1 DUP2 EQ PUSH2 0x4859 JUMPI PUSH1 0x2 DUP2 EQ PUSH2 0x4863 JUMPI PUSH2 0x4892 JUMP JUMPDEST PUSH1 0x1 SWAP2 POP POP PUSH2 0x48F1 JUMP JUMPDEST PUSH1 0xFF DUP5 GT ISZERO PUSH2 0x4875 JUMPI PUSH2 0x4874 PUSH2 0x4A6B JUMP JUMPDEST JUMPDEST DUP4 PUSH1 0x2 EXP SWAP2 POP DUP5 DUP3 GT ISZERO PUSH2 0x488C JUMPI PUSH2 0x488B PUSH2 0x4A6B JUMP JUMPDEST JUMPDEST POP PUSH2 0x48F1 JUMP JUMPDEST POP PUSH1 0x20 DUP4 LT PUSH2 0x133 DUP4 LT AND PUSH1 0x4E DUP5 LT PUSH1 0xB DUP5 LT AND OR ISZERO PUSH2 0x48C7 JUMPI DUP3 DUP3 EXP SWAP1 POP DUP4 DUP2 GT ISZERO PUSH2 0x48C2 JUMPI PUSH2 0x48C1 PUSH2 0x4A6B JUMP JUMPDEST JUMPDEST PUSH2 0x48F1 JUMP JUMPDEST PUSH2 0x48D4 DUP5 DUP5 DUP5 PUSH1 0x1 PUSH2 0x4787 JUMP JUMPDEST SWAP3 POP SWAP1 POP DUP2 DUP5 DIV DUP2 GT ISZERO PUSH2 0x48EB JUMPI PUSH2 0x48EA PUSH2 0x4A6B JUMP JUMPDEST JUMPDEST DUP2 DUP2 MUL SWAP1 POP JUMPDEST SWAP4 SWAP3 POP POP POP JUMP JUMPDEST PUSH1 0x0 PUSH2 0x4903 DUP3 PUSH2 0x49CE JUMP JUMPDEST SWAP2 POP PUSH2 0x490E DUP4 PUSH2 0x49CE JUMP JUMPDEST SWAP3 POP DUP2 PUSH32 0xFFFFFFFFFFFFFFFFFFFFFFFFFFFFFFFFFFFFFFFFFFFFFFFFFFFFFFFFFFFFFFFF DIV DUP4 GT DUP3 ISZERO ISZERO AND ISZERO PUSH2 0x4947 JUMPI PUSH2 0x4946 PUSH2 0x4A6B JUMP JUMPDEST JUMPDEST DUP3 DUP3 MUL SWAP1 POP SWAP3 SWAP2 POP POP JUMP JUMPDEST PUSH1 0x0 PUSH2 0x495D DUP3 PUSH2 0x49CE JUMP JUMPDEST SWAP2 POP PUSH2 0x4968 DUP4 PUSH2 0x49CE JUMP JUMPDEST SWAP3 POP DUP3 DUP3 LT ISZERO PUSH2 0x497B JUMPI PUSH2 0x497A PUSH2 0x4A6B JUMP JUMPDEST JUMPDEST DUP3 DUP3 SUB SWAP1 POP SWAP3 SWAP2 POP POP JUMP JUMPDEST PUSH1 0x0 PUSH2 0x4991 DUP3 PUSH2 0x49AE JUMP JUMPDEST SWAP1 POP SWAP2 SWAP1 POP JUMP JUMPDEST PUSH1 0x0 DUP2 ISZERO ISZERO SWAP1 POP SWAP2 SWAP1 POP JUMP JUMPDEST PUSH1 0x0 DUP2 SWAP1 POP SWAP2 SWAP1 POP JUMP JUMPDEST PUSH1 0x0 PUSH20 0xFFFFFFFFFFFFFFFFFFFFFFFFFFFFFFFFFFFFFFFF DUP3 AND SWAP1 POP SWAP2 SWAP1 POP JUMP JUMPDEST PUSH1 0x0 DUP2 SWAP1 POP SWAP2 SWAP1 POP JUMP JUMPDEST PUSH1 0x0 PUSH1 0xFF DUP3 AND SWAP1 POP SWAP2 SWAP1 POP JUMP JUMPDEST PUSH1 0x0 JUMPDEST DUP4 DUP2 LT ISZERO PUSH2 0x4A03 JUMPI DUP1 DUP3 ADD MLOAD DUP2 DUP5 ADD MSTORE PUSH1 0x20 DUP2 ADD SWAP1 POP PUSH2 0x49E8 JUMP JUMPDEST DUP4 DUP2 GT ISZERO PUSH2 0x4A12 JUMPI PUSH1 0x0 DUP5 DUP5 ADD MSTORE JUMPDEST POP POP POP POP JUMP JUMPDEST PUSH1 0x0 PUSH2 0x4A23 DUP3 PUSH2 0x49CE JUMP JUMPDEST SWAP2 POP PUSH32 0xFFFFFFFFFFFFFFFFFFFFFFFFFFFFFFFFFFFFFFFFFFFFFFFFFFFFFFFFFFFFFFFF DUP3 EQ ISZERO PUSH2 0x4A56 JUMPI PUSH2 0x4A55 PUSH2 0x4A6B JUMP JUMPDEST JUMPDEST PUSH1 0x1 DUP3 ADD SWAP1 POP SWAP2 SWAP1 POP JUMP JUMPDEST PUSH1 0x0 DUP2 SWAP1 POP SWAP2 SWAP1 POP JUMP JUMPDEST PUSH32 0x4E487B7100000000000000000000000000000000000000000000000000000000 PUSH1 0x0 MSTORE PUSH1 0x11 PUSH1 0x4 MSTORE PUSH1 0x24 PUSH1 0x0 REVERT JUMPDEST PUSH32 0x4E487B7100000000000000000000000000000000000000000000000000000000 PUSH1 0x0 MSTORE PUSH1 0x12 PUSH1 0x4 MSTORE PUSH1 0x24 PUSH1 0x0 REVERT JUMPDEST PUSH32 0x4E487B7100000000000000000000000000000000000000000000000000000000 PUSH1 0x0 MSTORE PUSH1 0x32 PUSH1 0x4 MSTORE PUSH1 0x24 PUSH1 0x0 REVERT JUMPDEST PUSH1 0x0 DUP1 REVERT JUMPDEST PUSH1 0x0 PUSH1 0x1F NOT PUSH1 0x1F DUP4 ADD AND SWAP1 POP SWAP2 SWAP1 POP JUMP JUMPDEST PUSH1 0x0 DUP2 PUSH1 0x1 SHR SWAP1 POP SWAP2 SWAP1 POP JUMP JUMPDEST PUSH32 0x64732D6D6174682D7375622D756E646572666C6F770000000000000000000000 PUSH1 0x0 DUP3 ADD MSTORE POP JUMP JUMPDEST PUSH32 0x556E697377617056323A20494E56414C49445F5349474E415455524500000000 PUSH1 0x0 DUP3 ADD MSTORE POP JUMP JUMPDEST PUSH32 0x1901000000000000000000000000000000000000000000000000000000000000 PUSH1 0x0 DUP3 ADD MSTORE POP JUMP JUMPDEST PUSH32 0x64732D6D6174682D6164642D6F766572666C6F77000000000000000000000000 PUSH1 0x0 DUP3 ADD MSTORE POP JUMP JUMPDEST PUSH32 0x556E697377617056323A20455850495245440000000000000000000000000000 PUSH1 0x0 DUP3 ADD MSTORE POP JUMP JUMPDEST PUSH32 0x5452414E534645525F4641494C45440000000000000000000000000000000000 PUSH1 0x0 DUP3 ADD MSTORE POP JUMP JUMPDEST PUSH32 0x4C4F434B45440000000000000000000000000000000000000000000000000000 PUSH1 0x0 DUP3 ADD MSTORE POP JUMP JUMPDEST PUSH2 0x4C43 DUP2 PUSH2 0x4986 JUMP JUMPDEST DUP2 EQ PUSH2 0x4C4E JUMPI PUSH1 0x0 DUP1 REVERT JUMPDEST POP JUMP JUMPDEST PUSH2 0x4C5A DUP2 PUSH2 0x4998 JUMP JUMPDEST DUP2 EQ PUSH2 0x4C65 JUMPI PUSH1 0x0 DUP1 REVERT JUMPDEST POP JUMP JUMPDEST PUSH2 0x4C71 DUP2 PUSH2 0x49A4 JUMP JUMPDEST DUP2 EQ PUSH2 0x4C7C JUMPI PUSH1 0x0 DUP1 REVERT JUMPDEST POP JUMP JUMPDEST PUSH2 0x4C88 DUP2 PUSH2 0x49CE JUMP JUMPDEST DUP2 EQ PUSH2 0x4C93 JUMPI PUSH1 0x0 DUP1 REVERT JUMPDEST POP JUMP JUMPDEST PUSH2 0x4C9F DUP2 PUSH2 0x49D8 JUMP JUMPDEST DUP2 EQ PUSH2 0x4CAA JUMPI PUSH1 0x0 DUP1 REVERT JUMPDEST POP JUMP INVALID LOG2 PUSH5 0x6970667358 0x22 SLT KECCAK256 0x2C 0xD4 SMOD DUP10 0xE9 PUSH23 0xA9FE491098188678D0EB340A97FC5F6E6F6BDD2CAABD3F PUSH13 0x1AD364736F6C63430008070033 "
		},
		"gasEstimates": {
			"creation": {
				"codeDepositCost": "3936600",
				"executionCost": "infinite",
				"totalCost": "infinite"
			},
			"external": {
				"B()": "2498",
				"D()": "2498",
				"D0()": "2517",
				"DOMAIN_SEPARATOR()": "2542",
				"PERMIT_TYPEHASH()": "425",
				"_addr()": "2626",
				"addLiquidity(address)": "infinite",
				"allowance(address,address)": "infinite",
				"approve(address,uint256)": "infinite",
				"balanceOf(address)": "2948",
				"baserate()": "2584",
				"burnLiquidity(uint256,address)": "infinite",
				"const18()": "2498",
				"coordX()": "2519",
				"coordY()": "2497",
				"debtIndex(address,bool)": "infinite",
				"decimals()": "447",
				"delegateAddMargin(address,address)": "infinite",
				"delegateLiquidate(address,address)": "infinite",
				"delegatePerpBiopen(uint256,uint256,address)": "infinite",
				"delegatePerpClose(uint256,uint256,address)": "infinite",
				"delegatePerpOpen(uint256,uint256,bool,address)": "infinite",
				"delegateWithdrawMargin(address,address,address,uint256)": "infinite",
				"factory()": "2626",
				"getpX()": "2496",
				"getpY()": "2540",
				"initialize(address,address)": "infinite",
				"lastFunding()": "2561",
				"lastFundingTime()": "2585",
				"lastPayingSide()": "2605",
				"liquidationBonus()": "2518",
				"liquidationRate()": "2541",
				"marginIndex(address,uint256)": "infinite",
				"marginLeverage()": "2495",
				"marginReserve(uint256)": "infinite",
				"name()": "infinite",
				"nonces(address)": "2927",
				"peqX()": "2519",
				"peqY()": "2519",
				"permit(address,address,uint256,uint256,uint8,bytes32,bytes32)": "infinite",
				"perpFee()": "2519",
				"priceLocal()": "2520",
				"setBaserate(uint256)": "24801",
				"setFundingrateUpper(uint256)": "24779",
				"setLIimitation(uint8)": "27004",
				"setLeverageMargin(uint256)": "24758",
				"setLiquidationBonus(uint256)": "24759",
				"setLiquidationRate(uint256)": "24824",
				"setLogicAddress(address)": "27046",
				"setPerpFee(uint256)": "24780",
				"setSwapFee(uint256)": "24781",
				"setTickrange(uint256)": "24801",
				"skim(address)": "infinite",
				"swap(address,uint256,uint256)": "infinite",
				"swapFee()": "2497",
				"symbol()": "infinite",
				"tickrange()": "2539",
				"tokenX()": "2627",
				"tokenY()": "2647",
				"totalDebtX()": "2562",
				"totalDebtY()": "2497",
				"totalDebttokenX()": "2564",
				"totalDebttokenY()": "2521",
				"totalLiquidity()": "2520",
				"totalSupply()": "2564",
				"transfer(address,uint256)": "infinite",
				"transferFrom(address,address,uint256)": "infinite",
				"trueLiquidX()": "2584",
				"trueLiquidX0()": "2585",
				"trueLiquidY()": "2585",
				"trueLiquidY0()": "2518",
				"twoWhite()": "2605",
				"updateMargintypes(bool)": "26984",
				"upperFunding8H()": "2563"
			},
			"internal": {
				"_delegateTradeXtoY(uint256,bool,uint256)": "infinite",
				"_delegateTradeYtoX(uint256,bool,uint256)": "infinite",
				"_safeTransfer(address,address,uint256)": "infinite",
				"_virtualLiquidityUpdate()": "infinite"
			}
		},
		"methodIdentifiers": {
			"B()": "32e7c5bf",
			"D()": "0f529ba2",
			"D0()": "f738c74e",
			"DOMAIN_SEPARATOR()": "3644e515",
			"PERMIT_TYPEHASH()": "30adf81f",
			"_addr()": "62ab1a77",
			"addLiquidity(address)": "e3412e3d",
			"allowance(address,address)": "dd62ed3e",
			"approve(address,uint256)": "095ea7b3",
			"balanceOf(address)": "70a08231",
			"baserate()": "ef0348fd",
			"burnLiquidity(uint256,address)": "7e401aca",
			"const18()": "7e11939a",
			"coordX()": "8ca63e6f",
			"coordY()": "8c4008e9",
			"debtIndex(address,bool)": "2c4426ad",
			"decimals()": "313ce567",
			"delegateAddMargin(address,address)": "3fbb0e9b",
			"delegateLiquidate(address,address)": "db35944f",
			"delegatePerpBiopen(uint256,uint256,address)": "d6ce29ae",
			"delegatePerpClose(uint256,uint256,address)": "eeea909f",
			"delegatePerpOpen(uint256,uint256,bool,address)": "4bac6c47",
			"delegateWithdrawMargin(address,address,address,uint256)": "e0ba7223",
			"factory()": "c45a0155",
			"getpX()": "77fef068",
			"getpY()": "d873fa7b",
			"initialize(address,address)": "485cc955",
			"lastFunding()": "fcbc49a0",
			"lastFundingTime()": "321d7fa9",
			"lastPayingSide()": "a79e6f9c",
			"liquidationBonus()": "7b7c1f4c",
			"liquidationRate()": "a71e8644",
			"marginIndex(address,uint256)": "367401db",
			"marginLeverage()": "f13c7aed",
			"marginReserve(uint256)": "0e449559",
			"name()": "06fdde03",
			"nonces(address)": "7ecebe00",
			"peqX()": "be6571aa",
			"peqY()": "a37b1918",
			"permit(address,address,uint256,uint256,uint8,bytes32,bytes32)": "d505accf",
			"perpFee()": "5784c8c4",
			"priceLocal()": "29baf8d9",
			"setBaserate(uint256)": "b66179de",
			"setFundingrateUpper(uint256)": "ade446d2",
			"setLIimitation(uint8)": "7bbc292a",
			"setLeverageMargin(uint256)": "2f1d9842",
			"setLiquidationBonus(uint256)": "28842d4f",
			"setLiquidationRate(uint256)": "9cc8df77",
			"setLogicAddress(address)": "fdcfc3ef",
			"setPerpFee(uint256)": "4582b988",
			"setSwapFee(uint256)": "34e19907",
			"setTickrange(uint256)": "7bb1128a",
			"skim(address)": "bc25cf77",
			"swap(address,uint256,uint256)": "9f1d0f59",
			"swapFee()": "54cf2aeb",
			"symbol()": "95d89b41",
			"tickrange()": "f92e82b0",
			"tokenX()": "16dc165b",
			"tokenY()": "b7d19fc4",
			"totalDebtX()": "7bb62450",
			"totalDebtY()": "a01fbbf5",
			"totalDebttokenX()": "803042ac",
			"totalDebttokenY()": "0751a6c8",
			"totalLiquidity()": "15770f92",
			"totalSupply()": "18160ddd",
			"transfer(address,uint256)": "a9059cbb",
			"transferFrom(address,address,uint256)": "23b872dd",
			"trueLiquidX()": "b868504b",
			"trueLiquidX0()": "713370fc",
			"trueLiquidY()": "5091fadd",
			"trueLiquidY0()": "e159394f",
			"twoWhite()": "31fa66b2",
			"updateMargintypes(bool)": "2dafca56",
			"upperFunding8H()": "c556c363"
		}
	},
	"abi": [
		{
			"inputs": [],
			"stateMutability": "nonpayable",
			"type": "constructor"
		},
		{
			"anonymous": false,
			"inputs": [
				{
					"indexed": true,
					"internalType": "address",
					"name": "owner",
					"type": "address"
				},
				{
					"indexed": true,
					"internalType": "address",
					"name": "spender",
					"type": "address"
				},
				{
					"indexed": false,
					"internalType": "uint256",
					"name": "value",
					"type": "uint256"
				}
			],
			"name": "Approval",
			"type": "event"
		},
		{
			"anonymous": false,
			"inputs": [
				{
					"indexed": true,
					"internalType": "address",
					"name": "sender",
					"type": "address"
				},
				{
					"indexed": false,
					"internalType": "uint256",
					"name": "amountX",
					"type": "uint256"
				},
				{
					"indexed": false,
					"internalType": "uint256",
					"name": "amountY",
					"type": "uint256"
				},
				{
					"indexed": true,
					"internalType": "address",
					"name": "to",
					"type": "address"
				}
			],
			"name": "Burn",
			"type": "event"
		},
		{
			"anonymous": false,
			"inputs": [
				{
					"indexed": true,
					"internalType": "address",
					"name": "sender",
					"type": "address"
				},
				{
					"indexed": false,
					"internalType": "uint256",
					"name": "amountX",
					"type": "uint256"
				},
				{
					"indexed": false,
					"internalType": "uint256",
					"name": "amountY",
					"type": "uint256"
				}
			],
			"name": "Mint",
			"type": "event"
		},
		{
			"anonymous": false,
			"inputs": [
				{
					"indexed": true,
					"internalType": "address",
					"name": "sender",
					"type": "address"
				},
				{
					"indexed": false,
					"internalType": "uint256",
					"name": "amountXIn",
					"type": "uint256"
				},
				{
					"indexed": false,
					"internalType": "uint256",
					"name": "amountYIn",
					"type": "uint256"
				},
				{
					"indexed": false,
					"internalType": "uint256",
					"name": "amountXOut",
					"type": "uint256"
				},
				{
					"indexed": false,
					"internalType": "uint256",
					"name": "amountYOut",
					"type": "uint256"
				},
				{
					"indexed": true,
					"internalType": "address",
					"name": "to",
					"type": "address"
				}
			],
			"name": "Swap",
			"type": "event"
		},
		{
			"anonymous": false,
			"inputs": [
				{
					"indexed": true,
					"internalType": "address",
					"name": "from",
					"type": "address"
				},
				{
					"indexed": true,
					"internalType": "address",
					"name": "to",
					"type": "address"
				},
				{
					"indexed": false,
					"internalType": "uint256",
					"name": "value",
					"type": "uint256"
				}
			],
			"name": "Transfer",
			"type": "event"
		},
		{
			"inputs": [],
			"name": "B",
			"outputs": [
				{
					"internalType": "uint256",
					"name": "",
					"type": "uint256"
				}
			],
			"stateMutability": "view",
			"type": "function"
		},
		{
			"inputs": [],
			"name": "D",
			"outputs": [
				{
					"internalType": "uint256",
					"name": "",
					"type": "uint256"
				}
			],
			"stateMutability": "view",
			"type": "function"
		},
		{
			"inputs": [],
			"name": "D0",
			"outputs": [
				{
					"internalType": "uint256",
					"name": "",
					"type": "uint256"
				}
			],
			"stateMutability": "view",
			"type": "function"
		},
		{
			"inputs": [],
			"name": "DOMAIN_SEPARATOR",
			"outputs": [
				{
					"internalType": "bytes32",
					"name": "",
					"type": "bytes32"
				}
			],
			"stateMutability": "view",
			"type": "function"
		},
		{
			"inputs": [],
			"name": "PERMIT_TYPEHASH",
			"outputs": [
				{
					"internalType": "bytes32",
					"name": "",
					"type": "bytes32"
				}
			],
			"stateMutability": "view",
			"type": "function"
		},
		{
			"inputs": [],
			"name": "_addr",
			"outputs": [
				{
					"internalType": "address",
					"name": "",
					"type": "address"
				}
			],
			"stateMutability": "view",
			"type": "function"
		},
		{
			"inputs": [
				{
					"internalType": "address",
					"name": "to",
					"type": "address"
				}
			],
			"name": "addLiquidity",
			"outputs": [
				{
					"internalType": "uint256",
					"name": "liquidity",
					"type": "uint256"
				}
			],
			"stateMutability": "nonpayable",
			"type": "function"
		},
		{
			"inputs": [
				{
					"internalType": "address",
					"name": "",
					"type": "address"
				},
				{
					"internalType": "address",
					"name": "",
					"type": "address"
				}
			],
			"name": "allowance",
			"outputs": [
				{
					"internalType": "uint256",
					"name": "",
					"type": "uint256"
				}
			],
			"stateMutability": "view",
			"type": "function"
		},
		{
			"inputs": [
				{
					"internalType": "address",
					"name": "spender",
					"type": "address"
				},
				{
					"internalType": "uint256",
					"name": "value",
					"type": "uint256"
				}
			],
			"name": "approve",
			"outputs": [
				{
					"internalType": "bool",
					"name": "",
					"type": "bool"
				}
			],
			"stateMutability": "nonpayable",
			"type": "function"
		},
		{
			"inputs": [
				{
					"internalType": "address",
					"name": "",
					"type": "address"
				}
			],
			"name": "balanceOf",
			"outputs": [
				{
					"internalType": "uint256",
					"name": "",
					"type": "uint256"
				}
			],
			"stateMutability": "view",
			"type": "function"
		},
		{
			"inputs": [],
			"name": "baserate",
			"outputs": [
				{
					"internalType": "uint256",
					"name": "",
					"type": "uint256"
				}
			],
			"stateMutability": "view",
			"type": "function"
		},
		{
			"inputs": [
				{
					"internalType": "uint256",
					"name": "liquidity",
					"type": "uint256"
				},
				{
					"internalType": "address",
					"name": "to",
					"type": "address"
				}
			],
			"name": "burnLiquidity",
			"outputs": [
				{
					"internalType": "uint256",
					"name": "burnX",
					"type": "uint256"
				},
				{
					"internalType": "uint256",
					"name": "burnY",
					"type": "uint256"
				}
			],
			"stateMutability": "nonpayable",
			"type": "function"
		},
		{
			"inputs": [],
			"name": "const18",
			"outputs": [
				{
					"internalType": "uint256",
					"name": "",
					"type": "uint256"
				}
			],
			"stateMutability": "view",
			"type": "function"
		},
		{
			"inputs": [],
			"name": "coordX",
			"outputs": [
				{
					"internalType": "uint256",
					"name": "",
					"type": "uint256"
				}
			],
			"stateMutability": "view",
			"type": "function"
		},
		{
			"inputs": [],
			"name": "coordY",
			"outputs": [
				{
					"internalType": "uint256",
					"name": "",
					"type": "uint256"
				}
			],
			"stateMutability": "view",
			"type": "function"
		},
		{
			"inputs": [
				{
					"internalType": "address",
					"name": "",
					"type": "address"
				},
				{
					"internalType": "bool",
					"name": "",
					"type": "bool"
				}
			],
			"name": "debtIndex",
			"outputs": [
				{
					"internalType": "uint256",
					"name": "debttokenAmount",
					"type": "uint256"
				},
				{
					"internalType": "uint256",
					"name": "positionAmount",
					"type": "uint256"
				}
			],
			"stateMutability": "view",
			"type": "function"
		},
		{
			"inputs": [],
			"name": "decimals",
			"outputs": [
				{
					"internalType": "uint8",
					"name": "",
					"type": "uint8"
				}
			],
			"stateMutability": "view",
			"type": "function"
		},
		{
			"inputs": [
				{
					"internalType": "address",
					"name": "tokenID",
					"type": "address"
				},
				{
					"internalType": "address",
					"name": "userID",
					"type": "address"
				}
			],
			"name": "delegateAddMargin",
			"outputs": [],
			"stateMutability": "nonpayable",
			"type": "function"
		},
		{
			"inputs": [
				{
					"internalType": "address",
					"name": "userID",
					"type": "address"
				},
				{
					"internalType": "address",
					"name": "_to",
					"type": "address"
				}
			],
			"name": "delegateLiquidate",
			"outputs": [],
			"stateMutability": "nonpayable",
			"type": "function"
		},
		{
			"inputs": [
				{
					"internalType": "uint256",
					"name": "deltaX",
					"type": "uint256"
				},
				{
					"internalType": "uint256",
					"name": "deltaY",
					"type": "uint256"
				},
				{
					"internalType": "address",
					"name": "userID",
					"type": "address"
				}
			],
			"name": "delegatePerpBiopen",
			"outputs": [],
			"stateMutability": "nonpayable",
			"type": "function"
		},
		{
			"inputs": [
				{
					"internalType": "uint256",
					"name": "deltaX",
					"type": "uint256"
				},
				{
					"internalType": "uint256",
					"name": "deltaY",
					"type": "uint256"
				},
				{
					"internalType": "address",
					"name": "userID",
					"type": "address"
				}
			],
			"name": "delegatePerpClose",
			"outputs": [],
			"stateMutability": "nonpayable",
			"type": "function"
		},
		{
			"inputs": [
				{
					"internalType": "uint256",
					"name": "deltaX",
					"type": "uint256"
				},
				{
					"internalType": "uint256",
					"name": "deltaY",
					"type": "uint256"
				},
				{
					"internalType": "bool",
					"name": "XtoY",
					"type": "bool"
				},
				{
					"internalType": "address",
					"name": "userID",
					"type": "address"
				}
			],
			"name": "delegatePerpOpen",
			"outputs": [],
			"stateMutability": "nonpayable",
			"type": "function"
		},
		{
			"inputs": [
				{
					"internalType": "address",
					"name": "userID",
					"type": "address"
				},
				{
					"internalType": "address",
					"name": "tokenID",
					"type": "address"
				},
				{
					"internalType": "address",
					"name": "to",
					"type": "address"
				},
				{
					"internalType": "uint256",
					"name": "amount",
					"type": "uint256"
				}
			],
			"name": "delegateWithdrawMargin",
			"outputs": [],
			"stateMutability": "nonpayable",
			"type": "function"
		},
		{
			"inputs": [],
			"name": "factory",
			"outputs": [
				{
					"internalType": "address",
					"name": "",
					"type": "address"
				}
			],
			"stateMutability": "view",
			"type": "function"
		},
		{
			"inputs": [],
			"name": "getpX",
			"outputs": [
				{
					"internalType": "uint256",
					"name": "",
					"type": "uint256"
				}
			],
			"stateMutability": "view",
			"type": "function"
		},
		{
			"inputs": [],
			"name": "getpY",
			"outputs": [
				{
					"internalType": "uint256",
					"name": "",
					"type": "uint256"
				}
			],
			"stateMutability": "view",
			"type": "function"
		},
		{
			"inputs": [
				{
					"internalType": "address",
					"name": "_tokenX",
					"type": "address"
				},
				{
					"internalType": "address",
					"name": "_tokenY",
					"type": "address"
				}
			],
			"name": "initialize",
			"outputs": [],
			"stateMutability": "nonpayable",
			"type": "function"
		},
		{
			"inputs": [],
			"name": "lastFunding",
			"outputs": [
				{
					"internalType": "uint256",
					"name": "",
					"type": "uint256"
				}
			],
			"stateMutability": "view",
			"type": "function"
		},
		{
			"inputs": [],
			"name": "lastFundingTime",
			"outputs": [
				{
					"internalType": "uint256",
					"name": "",
					"type": "uint256"
				}
			],
			"stateMutability": "view",
			"type": "function"
		},
		{
			"inputs": [],
			"name": "lastPayingSide",
			"outputs": [
				{
					"internalType": "bool",
					"name": "",
					"type": "bool"
				}
			],
			"stateMutability": "view",
			"type": "function"
		},
		{
			"inputs": [],
			"name": "liquidationBonus",
			"outputs": [
				{
					"internalType": "uint256",
					"name": "",
					"type": "uint256"
				}
			],
			"stateMutability": "view",
			"type": "function"
		},
		{
			"inputs": [],
			"name": "liquidationRate",
			"outputs": [
				{
					"internalType": "uint256",
					"name": "",
					"type": "uint256"
				}
			],
			"stateMutability": "view",
			"type": "function"
		},
		{
			"inputs": [
				{
					"internalType": "address",
					"name": "",
					"type": "address"
				},
				{
					"internalType": "uint256",
					"name": "",
					"type": "uint256"
				}
			],
			"name": "marginIndex",
			"outputs": [
				{
					"internalType": "uint256",
					"name": "",
					"type": "uint256"
				}
			],
			"stateMutability": "view",
			"type": "function"
		},
		{
			"inputs": [],
			"name": "marginLeverage",
			"outputs": [
				{
					"internalType": "uint256",
					"name": "",
					"type": "uint256"
				}
			],
			"stateMutability": "view",
			"type": "function"
		},
		{
			"inputs": [
				{
					"internalType": "uint256",
					"name": "",
					"type": "uint256"
				}
			],
			"name": "marginReserve",
			"outputs": [
				{
					"internalType": "uint256",
					"name": "",
					"type": "uint256"
				}
			],
			"stateMutability": "view",
			"type": "function"
		},
		{
			"inputs": [],
			"name": "name",
			"outputs": [
				{
					"internalType": "string",
					"name": "",
					"type": "string"
				}
			],
			"stateMutability": "view",
			"type": "function"
		},
		{
			"inputs": [
				{
					"internalType": "address",
					"name": "",
					"type": "address"
				}
			],
			"name": "nonces",
			"outputs": [
				{
					"internalType": "uint256",
					"name": "",
					"type": "uint256"
				}
			],
			"stateMutability": "view",
			"type": "function"
		},
		{
			"inputs": [],
			"name": "peqX",
			"outputs": [
				{
					"internalType": "uint256",
					"name": "",
					"type": "uint256"
				}
			],
			"stateMutability": "view",
			"type": "function"
		},
		{
			"inputs": [],
			"name": "peqY",
			"outputs": [
				{
					"internalType": "uint256",
					"name": "",
					"type": "uint256"
				}
			],
			"stateMutability": "view",
			"type": "function"
		},
		{
			"inputs": [
				{
					"internalType": "address",
					"name": "owner",
					"type": "address"
				},
				{
					"internalType": "address",
					"name": "spender",
					"type": "address"
				},
				{
					"internalType": "uint256",
					"name": "value",
					"type": "uint256"
				},
				{
					"internalType": "uint256",
					"name": "deadline",
					"type": "uint256"
				},
				{
					"internalType": "uint8",
					"name": "v",
					"type": "uint8"
				},
				{
					"internalType": "bytes32",
					"name": "r",
					"type": "bytes32"
				},
				{
					"internalType": "bytes32",
					"name": "s",
					"type": "bytes32"
				}
			],
			"name": "permit",
			"outputs": [],
			"stateMutability": "nonpayable",
			"type": "function"
		},
		{
			"inputs": [],
			"name": "perpFee",
			"outputs": [
				{
					"internalType": "uint256",
					"name": "",
					"type": "uint256"
				}
			],
			"stateMutability": "view",
			"type": "function"
		},
		{
			"inputs": [],
			"name": "priceLocal",
			"outputs": [
				{
					"internalType": "uint256",
					"name": "",
					"type": "uint256"
				}
			],
			"stateMutability": "view",
			"type": "function"
		},
		{
			"inputs": [
				{
					"internalType": "uint256",
					"name": "_baserate",
					"type": "uint256"
				}
			],
			"name": "setBaserate",
			"outputs": [],
			"stateMutability": "nonpayable",
			"type": "function"
		},
		{
			"inputs": [
				{
					"internalType": "uint256",
					"name": "f",
					"type": "uint256"
				}
			],
			"name": "setFundingrateUpper",
			"outputs": [],
			"stateMutability": "nonpayable",
			"type": "function"
		},
		{
			"inputs": [
				{
					"internalType": "uint8",
					"name": "_limitation",
					"type": "uint8"
				}
			],
			"name": "setLIimitation",
			"outputs": [],
			"stateMutability": "nonpayable",
			"type": "function"
		},
		{
			"inputs": [
				{
					"internalType": "uint256",
					"name": "L",
					"type": "uint256"
				}
			],
			"name": "setLeverageMargin",
			"outputs": [],
			"stateMutability": "nonpayable",
			"type": "function"
		},
		{
			"inputs": [
				{
					"internalType": "uint256",
					"name": "_rate",
					"type": "uint256"
				}
			],
			"name": "setLiquidationBonus",
			"outputs": [],
			"stateMutability": "nonpayable",
			"type": "function"
		},
		{
			"inputs": [
				{
					"internalType": "uint256",
					"name": "rate",
					"type": "uint256"
				}
			],
			"name": "setLiquidationRate",
			"outputs": [],
			"stateMutability": "nonpayable",
			"type": "function"
		},
		{
			"inputs": [
				{
					"internalType": "address",
					"name": "addr",
					"type": "address"
				}
			],
			"name": "setLogicAddress",
			"outputs": [],
			"stateMutability": "nonpayable",
			"type": "function"
		},
		{
			"inputs": [
				{
					"internalType": "uint256",
					"name": "_perpFee",
					"type": "uint256"
				}
			],
			"name": "setPerpFee",
			"outputs": [],
			"stateMutability": "nonpayable",
			"type": "function"
		},
		{
			"inputs": [
				{
					"internalType": "uint256",
					"name": "_swapFee",
					"type": "uint256"
				}
			],
			"name": "setSwapFee",
			"outputs": [],
			"stateMutability": "nonpayable",
			"type": "function"
		},
		{
			"inputs": [
				{
					"internalType": "uint256",
					"name": "_tickrange",
					"type": "uint256"
				}
			],
			"name": "setTickrange",
			"outputs": [],
			"stateMutability": "nonpayable",
			"type": "function"
		},
		{
			"inputs": [
				{
					"internalType": "address",
					"name": "to",
					"type": "address"
				}
			],
			"name": "skim",
			"outputs": [],
			"stateMutability": "nonpayable",
			"type": "function"
		},
		{
			"inputs": [
				{
					"internalType": "address",
					"name": "to",
					"type": "address"
				},
				{
					"internalType": "uint256",
					"name": "Xout",
					"type": "uint256"
				},
				{
					"internalType": "uint256",
					"name": "Yout",
					"type": "uint256"
				}
			],
			"name": "swap",
			"outputs": [],
			"stateMutability": "nonpayable",
			"type": "function"
		},
		{
			"inputs": [],
			"name": "swapFee",
			"outputs": [
				{
					"internalType": "uint256",
					"name": "",
					"type": "uint256"
				}
			],
			"stateMutability": "view",
			"type": "function"
		},
		{
			"inputs": [],
			"name": "symbol",
			"outputs": [
				{
					"internalType": "string",
					"name": "",
					"type": "string"
				}
			],
			"stateMutability": "view",
			"type": "function"
		},
		{
			"inputs": [],
			"name": "tickrange",
			"outputs": [
				{
					"internalType": "uint256",
					"name": "",
					"type": "uint256"
				}
			],
			"stateMutability": "view",
			"type": "function"
		},
		{
			"inputs": [],
			"name": "tokenX",
			"outputs": [
				{
					"internalType": "address",
					"name": "",
					"type": "address"
				}
			],
			"stateMutability": "view",
			"type": "function"
		},
		{
			"inputs": [],
			"name": "tokenY",
			"outputs": [
				{
					"internalType": "address",
					"name": "",
					"type": "address"
				}
			],
			"stateMutability": "view",
			"type": "function"
		},
		{
			"inputs": [],
			"name": "totalDebtX",
			"outputs": [
				{
					"internalType": "uint256",
					"name": "",
					"type": "uint256"
				}
			],
			"stateMutability": "view",
			"type": "function"
		},
		{
			"inputs": [],
			"name": "totalDebtY",
			"outputs": [
				{
					"internalType": "uint256",
					"name": "",
					"type": "uint256"
				}
			],
			"stateMutability": "view",
			"type": "function"
		},
		{
			"inputs": [],
			"name": "totalDebttokenX",
			"outputs": [
				{
					"internalType": "uint256",
					"name": "",
					"type": "uint256"
				}
			],
			"stateMutability": "view",
			"type": "function"
		},
		{
			"inputs": [],
			"name": "totalDebttokenY",
			"outputs": [
				{
					"internalType": "uint256",
					"name": "",
					"type": "uint256"
				}
			],
			"stateMutability": "view",
			"type": "function"
		},
		{
			"inputs": [],
			"name": "totalLiquidity",
			"outputs": [
				{
					"internalType": "uint256",
					"name": "",
					"type": "uint256"
				}
			],
			"stateMutability": "view",
			"type": "function"
		},
		{
			"inputs": [],
			"name": "totalSupply",
			"outputs": [
				{
					"internalType": "uint256",
					"name": "",
					"type": "uint256"
				}
			],
			"stateMutability": "view",
			"type": "function"
		},
		{
			"inputs": [
				{
					"internalType": "address",
					"name": "to",
					"type": "address"
				},
				{
					"internalType": "uint256",
					"name": "value",
					"type": "uint256"
				}
			],
			"name": "transfer",
			"outputs": [
				{
					"internalType": "bool",
					"name": "",
					"type": "bool"
				}
			],
			"stateMutability": "nonpayable",
			"type": "function"
		},
		{
			"inputs": [
				{
					"internalType": "address",
					"name": "from",
					"type": "address"
				},
				{
					"internalType": "address",
					"name": "to",
					"type": "address"
				},
				{
					"internalType": "uint256",
					"name": "value",
					"type": "uint256"
				}
			],
			"name": "transferFrom",
			"outputs": [
				{
					"internalType": "bool",
					"name": "",
					"type": "bool"
				}
			],
			"stateMutability": "nonpayable",
			"type": "function"
		},
		{
			"inputs": [],
			"name": "trueLiquidX",
			"outputs": [
				{
					"internalType": "uint256",
					"name": "",
					"type": "uint256"
				}
			],
			"stateMutability": "view",
			"type": "function"
		},
		{
			"inputs": [],
			"name": "trueLiquidX0",
			"outputs": [
				{
					"internalType": "uint256",
					"name": "",
					"type": "uint256"
				}
			],
			"stateMutability": "view",
			"type": "function"
		},
		{
			"inputs": [],
			"name": "trueLiquidY",
			"outputs": [
				{
					"internalType": "uint256",
					"name": "",
					"type": "uint256"
				}
			],
			"stateMutability": "view",
			"type": "function"
		},
		{
			"inputs": [],
			"name": "trueLiquidY0",
			"outputs": [
				{
					"internalType": "uint256",
					"name": "",
					"type": "uint256"
				}
			],
			"stateMutability": "view",
			"type": "function"
		},
		{
			"inputs": [],
			"name": "twoWhite",
			"outputs": [
				{
					"internalType": "bool",
					"name": "",
					"type": "bool"
				}
			],
			"stateMutability": "view",
			"type": "function"
		},
		{
			"inputs": [
				{
					"internalType": "bool",
					"name": "_twoWhite",
					"type": "bool"
				}
			],
			"name": "updateMargintypes",
			"outputs": [],
			"stateMutability": "nonpayable",
			"type": "function"
		},
		{
			"inputs": [],
			"name": "upperFunding8H",
			"outputs": [
				{
					"internalType": "uint256",
					"name": "",
					"type": "uint256"
				}
			],
			"stateMutability": "view",
			"type": "function"
		}
	]
}