{
	"data": {
		"bytecode": {
			"linkReferences": {},
			"object": "6080604052670de0b6b3a7640000601d55600160255534801561002157600080fd5b50614c9c806100316000396000f3fe608060405234801561001057600080fd5b506004361061027f5760003560e01c80637e11939a1161015c578063b868504b116100ce578063e159394f11610087578063e159394f14610745578063ef0348fd14610763578063f13c7aed14610781578063f738c74e1461079f578063f92e82b0146107bd578063fcbc49a0146107db5761027f565b8063b868504b14610691578063be6571aa146106af578063c45a0155146106cd578063c556c363146106eb578063d873fa7b14610709578063e07b877a146107275761027f565b8063a01fbbf511610120578063a01fbbf5146105df578063a37b1918146105fd578063a71e86441461061b578063a79e6f9c14610639578063b340286914610657578063b7d19fc4146106735761027f565b80637e11939a1461054b578063803042ac1461056957806386b9d81f146105875780638c4008e9146105a35780638ca63e6f146105c15761027f565b80635091fadd116101f55780636bf8be75116101b95780636bf8be751461049b578063713370fc146104b7578063748f00dc146104d557806377fef068146104f15780637b7c1f4c1461050f5780637bb624501461052d5761027f565b80635091fadd1461040757806354cf2aeb146104255780635784c8c414610443578063617d3b901461046157806362ab1a771461047d5761027f565b806329baf8d91161024757806329baf8d91461032c5780632c4426ad1461034a57806331fa66b21461037d578063321d7fa91461039b57806332e7c5bf146103b9578063367401db146103d75761027f565b80630751a6c8146102845780630e449559146102a25780630f529ba2146102d257806315770f92146102f057806316dc165b1461030e575b600080fd5b61028c6107f9565b60405161029991906147e0565b60405180910390f35b6102bc60048036038101906102b79190614507565b6107ff565b6040516102c991906147e0565b60405180910390f35b6102da61081a565b6040516102e791906147e0565b60405180910390f35b6102f8610820565b60405161030591906147e0565b60405180910390f35b610316610826565b60405161032391906146fc565b60405180910390f35b61033461084c565b60405161034191906147e0565b60405180910390f35b610364600480360381019061035f919061445a565b610852565b6040516103749493929190614717565b60405180910390f35b6103856108bc565b6040516103929190614785565b60405180910390f35b6103a36108cf565b6040516103b091906147e0565b60405180910390f35b6103c16108d5565b6040516103ce91906147e0565b60405180910390f35b6103f160048036038101906103ec919061449a565b6108db565b6040516103fe91906147e0565b60405180910390f35b61040f610903565b60405161041c91906147e0565b60405180910390f35b61042d610909565b60405161043a91906147e0565b60405180910390f35b61044b61090f565b60405161045891906147e0565b60405180910390f35b61047b60048036038101906104769190614587565b610915565b005b61048561182c565b60405161049291906146fc565b60405180910390f35b6104b560048036038101906104b091906143f3565b611852565b005b6104bf611b23565b6040516104cc91906147e0565b60405180910390f35b6104ef60048036038101906104ea91906145da565b611b29565b005b6104f9612574565b60405161050691906147e0565b60405180910390f35b61051761257a565b60405161052491906147e0565b60405180910390f35b610535612580565b60405161054291906147e0565b60405180910390f35b610553612586565b60405161056091906147e0565b60405180910390f35b61057161258c565b60405161057e91906147e0565b60405180910390f35b6105a1600480360381019061059c91906143b3565b612592565b005b6105ab612943565b6040516105b891906147e0565b60405180910390f35b6105c9612949565b6040516105d691906147e0565b60405180910390f35b6105e761294f565b6040516105f491906147e0565b60405180910390f35b610605612955565b60405161061291906147e0565b60405180910390f35b61062361295b565b60405161063091906147e0565b60405180910390f35b610641612961565b60405161064e9190614785565b60405180910390f35b610671600480360381019061066c9190614534565b612974565b005b61067b612bd9565b60405161068891906146fc565b60405180910390f35b610699612bff565b6040516106a691906147e0565b60405180910390f35b6106b7612c05565b6040516106c491906147e0565b60405180910390f35b6106d5612c0b565b6040516106e291906146fc565b60405180910390f35b6106f3612c31565b60405161070091906147e0565b60405180910390f35b610711612c37565b60405161071e91906147e0565b60405180910390f35b61072f612c3d565b60405161073c91906147e0565b60405180910390f35b61074d612c43565b60405161075a91906147e0565b60405180910390f35b61076b612c49565b60405161077891906147e0565b60405180910390f35b610789612c4f565b60405161079691906147e0565b60405180910390f35b6107a7612c55565b6040516107b491906147e0565b60405180910390f35b6107c5612c5b565b6040516107d291906147e0565b60405180910390f35b6107e3612c61565b6040516107f091906147e0565b60405180910390f35b60115481565b6026816002811061080f57600080fd5b016000915090505481565b60015481565b601b5481565b601860009054906101000a900473ffffffffffffffffffffffffffffffffffffffff1681565b600d5481565b6028602052816000526040600020602052806000526040600020600091509150508060000160009054906101000a900473ffffffffffffffffffffffffffffffffffffffff16908060000160149054906101000a900460ff16908060010154908060020154905084565b602460009054906101000a900460ff1681565b60145481565b60005481565b602960205281600052604060002081600281106108f757600080fd5b01600091509150505481565b600c5481565b60225481565b60235481565b60016025541461095a576040517f08c379a0000000000000000000000000000000000000000000000000000000008152600401610951906147c0565b60405180910390fd5b6000602581905550600082846109709190614a1a565b1480156109885750600082846109869190614822565b115b80156109b6575061099881612c67565b6109a182612d5b565b6109aa83612e33565b6109b49190614822565b115b8015610a195750602860008273ffffffffffffffffffffffffffffffffffffffff1673ffffffffffffffffffffffffffffffffffffffff168152602001908152602001600020600080151515158152602001908152602001600020600201548311155b8015610a7d5750602860008273ffffffffffffffffffffffffffffffffffffffff1673ffffffffffffffffffffffffffffffffffffffff16815260200190815260200160002060006001151515158152602001908152602001600020600201548211155b610a8657600080fd5b610a8e612f02565b60008311156111c3576000610aa68460016000613080565b90506000610b6a85602860008673ffffffffffffffffffffffffffffffffffffffff1673ffffffffffffffffffffffffffffffffffffffff1681526020019081526020016000206000600115151515815260200190815260200160002060010154600f54601154602860008973ffffffffffffffffffffffffffffffffffffffff1673ffffffffffffffffffffffffffffffffffffffff1681526020019081526020016000206000801515151581526020019081526020016000206002015461347d565b905084602860008573ffffffffffffffffffffffffffffffffffffffff1673ffffffffffffffffffffffffffffffffffffffff1681526020019081526020016000206000801515151581526020019081526020016000206002016000828254610bd39190614a74565b9250508190555080600f6000828254610bec9190614a74565b92505081905550610cad602860008573ffffffffffffffffffffffffffffffffffffffff1673ffffffffffffffffffffffffffffffffffffffff168152602001908152602001600020600060011515151581526020019081526020016000206001015486602860008773ffffffffffffffffffffffffffffffffffffffff1673ffffffffffffffffffffffffffffffffffffffff168152602001908152602001600020600080151515158152602001908152602001600020600201546134b7565b60116000828254610cbe9190614a74565b92505081905550610d7f602860008573ffffffffffffffffffffffffffffffffffffffff1673ffffffffffffffffffffffffffffffffffffffff168152602001908152602001600020600060011515151581526020019081526020016000206001015486602860008773ffffffffffffffffffffffffffffffffffffffff1673ffffffffffffffffffffffffffffffffffffffff168152602001908152602001600020600080151515158152602001908152602001600020600201546134b7565b602860008573ffffffffffffffffffffffffffffffffffffffff1673ffffffffffffffffffffffffffffffffffffffff168152602001908152602001600020600060011515151581526020019081526020016000206001016000828254610de69190614a74565b925050819055508082118015610e0f575060001515602460009054906101000a900460ff161515145b15610e9957610e2b8183610e239190614a74565b6000806134d9565b602960008573ffffffffffffffffffffffffffffffffffffffff1673ffffffffffffffffffffffffffffffffffffffff168152602001908152602001600020600060028110610e7d57610e7c614b8e565b5b016000828254610e8d9190614822565b925050819055506111bc565b8082602960008673ffffffffffffffffffffffffffffffffffffffff1673ffffffffffffffffffffffffffffffffffffffff168152602001908152602001600020600160028110610eed57610eec614b8e565b5b0154610ef99190614822565b118015610f19575060011515602460009054906101000a900460ff161515145b15610fe4578082602960008673ffffffffffffffffffffffffffffffffffffffff1673ffffffffffffffffffffffffffffffffffffffff168152602001908152602001600020600160028110610f7257610f71614b8e565b5b0154610f7e9190614822565b610f889190614a74565b602960008573ffffffffffffffffffffffffffffffffffffffff1673ffffffffffffffffffffffffffffffffffffffff168152602001908152602001600020600160028110610fda57610fd9614b8e565b5b01819055506111bb565b6110ac602960008573ffffffffffffffffffffffffffffffffffffffff1673ffffffffffffffffffffffffffffffffffffffff16815260200190815260200160002060006002811061103957611038614b8e565b5b01546000602960008773ffffffffffffffffffffffffffffffffffffffff1673ffffffffffffffffffffffffffffffffffffffff16815260200190815260200160002060016002811061108f5761108e614b8e565b5b0154858561109d9190614a74565b6110a79190614a74565b613080565b602960008573ffffffffffffffffffffffffffffffffffffffff1673ffffffffffffffffffffffffffffffffffffffff1681526020019081526020016000206000600281106110fe576110fd614b8e565b5b015461110a9190614a74565b602960008573ffffffffffffffffffffffffffffffffffffffff1673ffffffffffffffffffffffffffffffffffffffff16815260200190815260200160002060006002811061115c5761115b614b8e565b5b01819055506000602960008573ffffffffffffffffffffffffffffffffffffffff1673ffffffffffffffffffffffffffffffffffffffff1681526020019081526020016000206001600281106111b5576111b4614b8e565b5b01819055505b5b505061181f565b60006111d283600160006134d9565b9050600061129684602860008673ffffffffffffffffffffffffffffffffffffffff1673ffffffffffffffffffffffffffffffffffffffff16815260200190815260200160002060008015151515815260200190815260200160002060010154600e54601054602860008973ffffffffffffffffffffffffffffffffffffffff1673ffffffffffffffffffffffffffffffffffffffff168152602001908152602001600020600060011515151581526020019081526020016000206002015461347d565b905083602860008573ffffffffffffffffffffffffffffffffffffffff1673ffffffffffffffffffffffffffffffffffffffff1681526020019081526020016000206000600115151515815260200190815260200160002060020160008282546113009190614a74565b9250508190555080600e60008282546113199190614a74565b925050819055506113da602860008573ffffffffffffffffffffffffffffffffffffffff1673ffffffffffffffffffffffffffffffffffffffff1681526020019081526020016000206000801515151581526020019081526020016000206001015485602860008773ffffffffffffffffffffffffffffffffffffffff1673ffffffffffffffffffffffffffffffffffffffff16815260200190815260200160002060006001151515158152602001908152602001600020600201546134b7565b601060008282546113eb9190614a74565b925050819055506114ac602860008573ffffffffffffffffffffffffffffffffffffffff1673ffffffffffffffffffffffffffffffffffffffff1681526020019081526020016000206000801515151581526020019081526020016000206001015485602860008773ffffffffffffffffffffffffffffffffffffffff1673ffffffffffffffffffffffffffffffffffffffff16815260200190815260200160002060006001151515158152602001908152602001600020600201546134b7565b602860008573ffffffffffffffffffffffffffffffffffffffff1673ffffffffffffffffffffffffffffffffffffffff16815260200190815260200160002060008015151515815260200190815260200160002060010160008282546115129190614a74565b925050819055508082602960008673ffffffffffffffffffffffffffffffffffffffff1673ffffffffffffffffffffffffffffffffffffffff16815260200190815260200160002060006002811061156d5761156c614b8e565b5b01546115799190614822565b1115611645578082602960008673ffffffffffffffffffffffffffffffffffffffff1673ffffffffffffffffffffffffffffffffffffffff1681526020019081526020016000206000600281106115d3576115d2614b8e565b5b01546115df9190614822565b6115e99190614a74565b602960008573ffffffffffffffffffffffffffffffffffffffff1673ffffffffffffffffffffffffffffffffffffffff16815260200190815260200160002060006002811061163b5761163a614b8e565b5b018190555061181c565b61170d602960008573ffffffffffffffffffffffffffffffffffffffff1673ffffffffffffffffffffffffffffffffffffffff16815260200190815260200160002060016002811061169a57611699614b8e565b5b01546000602960008773ffffffffffffffffffffffffffffffffffffffff1673ffffffffffffffffffffffffffffffffffffffff1681526020019081526020016000206000600281106116f0576116ef614b8e565b5b015485856116fe9190614a74565b6117089190614a74565b6134d9565b602960008573ffffffffffffffffffffffffffffffffffffffff1673ffffffffffffffffffffffffffffffffffffffff16815260200190815260200160002060016002811061175f5761175e614b8e565b5b015461176b9190614a74565b602960008573ffffffffffffffffffffffffffffffffffffffff1673ffffffffffffffffffffffffffffffffffffffff1681526020019081526020016000206001600281106117bd576117bc614b8e565b5b01819055506000602960008573ffffffffffffffffffffffffffffffffffffffff1673ffffffffffffffffffffffffffffffffffffffff16815260200190815260200160002060006002811061181657611815614b8e565b5b01819055505b50505b6001602581905550505050565b601e60009054906101000a900473ffffffffffffffffffffffffffffffffffffffff1681565b600160255414611897576040517f08c379a000000000000000000000000000000000000000000000000000000000815260040161188e906147c0565b60405180910390fd5b6000602581905550601860009054906101000a900473ffffffffffffffffffffffffffffffffffffffff1673ffffffffffffffffffffffffffffffffffffffff168373ffffffffffffffffffffffffffffffffffffffff1614156119c35780602960008673ffffffffffffffffffffffffffffffffffffffff1673ffffffffffffffffffffffffffffffffffffffff16815260200190815260200160002060006002811061194857611947614b8e565b5b01541161195457600080fd5b80602960008673ffffffffffffffffffffffffffffffffffffffff1673ffffffffffffffffffffffffffffffffffffffff1681526020019081526020016000206000600281106119a7576119a6614b8e565b5b0160008282546119b79190614a74565b92505081905550611a8d565b80602960008673ffffffffffffffffffffffffffffffffffffffff1673ffffffffffffffffffffffffffffffffffffffff168152602001908152602001600020600160028110611a1657611a15614b8e565b5b015411611a2257600080fd5b80602960008673ffffffffffffffffffffffffffffffffffffffff1673ffffffffffffffffffffffffffffffffffffffff168152602001908152602001600020600160028110611a7557611a74614b8e565b5b016000828254611a859190614a74565b925050819055505b611a9684612c67565b611a9f85612d5b565b611aa886612e33565b611ab29190614822565b118015611b015750601c54611ac685612d5b565b611ad09190614a1a565b611ad985612c67565b611ae286612d5b565b611aeb87612e33565b611af59190614822565b611aff9190614a74565b115b611b0a57600080fd5b611b158383836138d6565b600160258190555050505050565b60095481565b600160255414611b6e576040517f08c379a0000000000000000000000000000000000000000000000000000000008152600401611b65906147c0565b60405180910390fd5b600060258190555060008385611b849190614a1a565b148015611b9c575060008385611b9a9190614822565b115b611ba557600080fd5b611bad612f02565b611bf1611bb982612d5b565b85611bc49190614822565b611bcd83612d5b565b611be286600d54600654600554601d5461347d565b611bec9190614822565b613a60565b601a54601d54611c0084612c67565b611c0985612d5b565b611c1286612e33565b611c1c9190614822565b611c269190614a74565b611c309190614a1a565b611c3a9190614878565b11611c4457600080fd5b6000806001151584151514156120de576000861115611c7457611c6a8660016000613080565b9150859050611cae565b849150611cab611c8b600d546006546005546134b7565b601d5487611c999190614a1a565b611ca39190614878565b600187613080565b90505b611cbd81601054600e546134b7565b602860008573ffffffffffffffffffffffffffffffffffffffff1673ffffffffffffffffffffffffffffffffffffffff1681526020019081526020016000206000801515151581526020019081526020016000206001016000828254611d239190614822565b9250508190555081602860008573ffffffffffffffffffffffffffffffffffffffff1673ffffffffffffffffffffffffffffffffffffffff168152602001908152602001600020600060011515151581526020019081526020016000206002016000828254611d929190614822565b92505081905550601054611dab82601054600e546134b7565b611db59190614822565b60108190555080600e6000828254611dcd9190614822565b92505081905550670de0b6b3a764000060235482611deb9190614a1a565b611df59190614878565b602960008573ffffffffffffffffffffffffffffffffffffffff1673ffffffffffffffffffffffffffffffffffffffff168152602001908152602001600020600060028110611e4757611e46614b8e565b5b01541115611f1757670de0b6b3a764000060235482611e669190614a1a565b611e709190614878565b602960008573ffffffffffffffffffffffffffffffffffffffff1673ffffffffffffffffffffffffffffffffffffffff168152602001908152602001600020600060028110611ec257611ec1614b8e565b5b016000828254611ed29190614a74565b92505081905550670de0b6b3a764000060235482611ef09190614a1a565b611efa9190614878565b600b6000828254611f0b9190614822565b925050819055506120d9565b6000602960008573ffffffffffffffffffffffffffffffffffffffff1673ffffffffffffffffffffffffffffffffffffffff168152602001908152602001600020600060028110611f6b57611f6a614b8e565b5b0154670de0b6b3a764000060235484611f849190614a1a565b611f8e9190614878565b611f989190614a74565b90506000602960008673ffffffffffffffffffffffffffffffffffffffff1673ffffffffffffffffffffffffffffffffffffffff168152602001908152602001600020600060028110611fee57611fed614b8e565b5b0181905550612052602960008673ffffffffffffffffffffffffffffffffffffffff1673ffffffffffffffffffffffffffffffffffffffff16815260200190815260200160002060016002811061204857612047614b8e565b5b01546000836134d9565b905080602960008673ffffffffffffffffffffffffffffffffffffffff1673ffffffffffffffffffffffffffffffffffffffff1681526020019081526020016000206001600281106120a7576120a6614b8e565b5b0160008282546120b79190614a74565b9250508190555080600c60008282546120d09190614822565b92505081905550505b612564565b60008611156121255785915061211e601d54612101600d546006546005546134b7565b8861210c9190614a1a565b6121169190614878565b6001886134d9565b9050612138565b61213285600160006134d9565b91508490505b61214781601154600f546134b7565b602860008573ffffffffffffffffffffffffffffffffffffffff1673ffffffffffffffffffffffffffffffffffffffff1681526020019081526020016000206000600115151515815260200190815260200160002060010160008282546121ae9190614822565b9250508190555081602860008573ffffffffffffffffffffffffffffffffffffffff1673ffffffffffffffffffffffffffffffffffffffff168152602001908152602001600020600080151515158152602001908152602001600020600201600082825461221c9190614822565b9250508190555060115461223582601154600f546134b7565b61223f9190614822565b60118190555080600f60008282546122579190614822565b92505081905550670de0b6b3a7640000602354826122759190614a1a565b61227f9190614878565b602960008573ffffffffffffffffffffffffffffffffffffffff1673ffffffffffffffffffffffffffffffffffffffff1681526020019081526020016000206001600281106122d1576122d0614b8e565b5b015411156123a157670de0b6b3a7640000602354826122f09190614a1a565b6122fa9190614878565b602960008573ffffffffffffffffffffffffffffffffffffffff1673ffffffffffffffffffffffffffffffffffffffff16815260200190815260200160002060016002811061234c5761234b614b8e565b5b01600082825461235c9190614a74565b92505081905550670de0b6b3a76400006023548261237a9190614a1a565b6123849190614878565b600c60008282546123959190614822565b92505081905550612563565b6000602960008573ffffffffffffffffffffffffffffffffffffffff1673ffffffffffffffffffffffffffffffffffffffff1681526020019081526020016000206001600281106123f5576123f4614b8e565b5b0154670de0b6b3a76400006023548461240e9190614a1a565b6124189190614878565b6124229190614a74565b90506000602960008673ffffffffffffffffffffffffffffffffffffffff1673ffffffffffffffffffffffffffffffffffffffff16815260200190815260200160002060016002811061247857612477614b8e565b5b01819055506124dc602960008673ffffffffffffffffffffffffffffffffffffffff1673ffffffffffffffffffffffffffffffffffffffff1681526020019081526020016000206000600281106124d2576124d1614b8e565b5b0154600083613080565b905080602960008673ffffffffffffffffffffffffffffffffffffffff1673ffffffffffffffffffffffffffffffffffffffff16815260200190815260200160002060006002811061253157612530614b8e565b5b0160008282546125419190614a74565b9250508190555080600b600082825461255a9190614822565b92505081905550505b5b5050600160258190555050505050565b60075481565b601f5481565b600e5481565b601d5481565b60105481565b6001602554146125d7576040517f08c379a00000000000000000000000000000000000000000000000000000000081526004016125ce906147c0565b60405180910390fd5b60006025819055506125e882612c67565b6125f183612d5b565b6125fa84612e33565b6126049190614822565b1115806126545750601c5461261883612d5b565b6126229190614a1a565b61262b83612c67565b61263484612d5b565b61263d85612e33565b6126479190614822565b6126519190614a74565b11155b61265d57600080fd5b6126ea601860009054906101000a900473ffffffffffffffffffffffffffffffffffffffff1682601f54602960008773ffffffffffffffffffffffffffffffffffffffff1673ffffffffffffffffffffffffffffffffffffffff1681526020019081526020016000206000600281106126d9576126d8614b8e565b5b01546126e59190614a1a565b6138d6565b612777601960009054906101000a900473ffffffffffffffffffffffffffffffffffffffff1682601f54602960008773ffffffffffffffffffffffffffffffffffffffff1673ffffffffffffffffffffffffffffffffffffffff16815260200190815260200160002060016002811061276657612765614b8e565b5b01546127729190614a1a565b6138d6565b602960008373ffffffffffffffffffffffffffffffffffffffff1673ffffffffffffffffffffffffffffffffffffffff16815260200190815260200160002060006127c29190614351565b6000602860008473ffffffffffffffffffffffffffffffffffffffff1673ffffffffffffffffffffffffffffffffffffffff168152602001908152602001600020600080151515158152602001908152602001600020600101819055506000602860008473ffffffffffffffffffffffffffffffffffffffff1673ffffffffffffffffffffffffffffffffffffffff1681526020019081526020016000206000600115151515815260200190815260200160002060010181905550612937602860008473ffffffffffffffffffffffffffffffffffffffff1673ffffffffffffffffffffffffffffffffffffffff16815260200190815260200160002060008015151515815260200190815260200160002060020154602860008573ffffffffffffffffffffffffffffffffffffffff1673ffffffffffffffffffffffffffffffffffffffff168152602001908152602001600020600060011515151581526020019081526020016000206002015484610915565b60016025819055505050565b60045481565b60035481565b600f5481565b60065481565b601c5481565b601560009054906101000a900460ff1681565b6001602554146129b9576040517f08c379a00000000000000000000000000000000000000000000000000000000081526004016129b0906147c0565b60405180910390fd5b6000602581905550601960009054906101000a900473ffffffffffffffffffffffffffffffffffffffff1673ffffffffffffffffffffffffffffffffffffffff168273ffffffffffffffffffffffffffffffffffffffff16148015612a31575060011515602460009054906101000a900460ff161515145b15612b03576026600160028110612a4b57612a4a614b8e565b5b0154600c5484612a5b9190614a74565b612a659190614a74565b925082602960008373ffffffffffffffffffffffffffffffffffffffff1673ffffffffffffffffffffffffffffffffffffffff168152602001908152602001600020600160028110612aba57612ab9614b8e565b5b016000828254612aca9190614822565b92505081905550826026600160028110612ae757612ae6614b8e565b5b016000828254612af79190614822565b92505081905550612bcc565b6026600060028110612b1857612b17614b8e565b5b0154600b5484612b289190614a74565b612b329190614a74565b925082602960008373ffffffffffffffffffffffffffffffffffffffff1673ffffffffffffffffffffffffffffffffffffffff168152602001908152602001600020600060028110612b8757612b86614b8e565b5b016000828254612b979190614822565b92505081905550826026600060028110612bb457612bb3614b8e565b5b016000828254612bc49190614822565b925050819055505b6001602581905550505050565b601960009054906101000a900473ffffffffffffffffffffffffffffffffffffffff1681565b600b5481565b60055481565b601760009054906101000a900473ffffffffffffffffffffffffffffffffffffffff1681565b60165481565b60085481565b60125481565b600a5481565b60215481565b601a5481565b60025481565b60205481565b60135481565b6000612ce3612cd8602860008573ffffffffffffffffffffffffffffffffffffffff1673ffffffffffffffffffffffffffffffffffffffff16815260200190815260200160002060008015151515815260200190815260200160002060010154600e54600d54601054601d5461347d565b6006546005546134b7565b612d4a602860008573ffffffffffffffffffffffffffffffffffffffff1673ffffffffffffffffffffffffffffffffffffffff1681526020019081526020016000206000600115151515815260200190815260200160002060010154600f546011546134b7565b612d549190614822565b9050919050565b6000612dca602860008473ffffffffffffffffffffffffffffffffffffffff1673ffffffffffffffffffffffffffffffffffffffff1681526020019081526020016000206000600115151515815260200190815260200160002060020154600d54600654600554601d5461347d565b602860008473ffffffffffffffffffffffffffffffffffffffff1673ffffffffffffffffffffffffffffffffffffffff16815260200190815260200160002060008015151515815260200190815260200160002060020154612e2c9190614822565b9050919050565b6000612e9d602960008473ffffffffffffffffffffffffffffffffffffffff1673ffffffffffffffffffffffffffffffffffffffff168152602001908152602001600020600160028110612e8a57612e89614b8e565b5b0154600d54600654600554601d5461347d565b602960008473ffffffffffffffffffffffffffffffffffffffff1673ffffffffffffffffffffffffffffffffffffffff168152602001908152602001600020600060028110612eef57612eee614b8e565b5b0154612efb9190614822565b9050919050565b600080612f30600b54600c54600554600654600354600454600054612f28600054613a79565b600154613a96565b91509150600080612f538484600754600854602154601654600b54600c54613b32565b91509150600060145443612f679190614a74565b90504360148190555060001515601560009054906101000a900460ff1615151415612ffb57612fa0600e5460135483601d54600161347d565b600e54612fad9190614822565b600e8190555080612fd9601354600e54612fce600d546006546005546134b7565b601d54601d5461347d565b612fe39190614a1a565b600f54612ff09190614a74565b600f81905550613058565b61300f600f5460135483601d54600161347d565b600f5461301c9190614822565b600f81905550613044601354600f548361303d600d546006546005546134b7565b600161347d565b600e546130519190614a74565b600e819055505b8260138190555081601560006101000a81548160ff0219169083151502179055505050505050565b60006001602554146130c7576040517f08c379a00000000000000000000000000000000000000000000000000000000081526004016130be906147c0565b60405180910390fd5b600060258190555060005b6130fd6130f260026001546130e79190614878565b602054601d546134b7565b600354600554613bdc565b81866131099190614a74565b11156132f457600061312e60026001546131239190614878565b602054601d546134b7565b9050600061314c600054613143600054613a79565b60015485613c11565b905060008511801561317657508461316960045483600654613bdc565b856131749190614822565b115b156131825750506132f4565b61319160045482600654613bdc565b8461319c9190614822565b93506131ad82600354600554613bdc565b836131b89190614822565b9250600015158615151415613216576131d682600354600554613bdc565b600b60008282546131e79190614822565b925050819055506131fd60045482600654613bdc565b600c600082825461320e9190614a74565b925050819055505b613231600654600260015461322b9190614878565b836134b7565b600681905550613252600554600260015461324c9190614878565b846134b7565b60058190555061329b61327660005461326c600054613a79565b6001548686613d11565b8260026001546132869190614878565b8560026001546132969190614878565b61347d565b600d819055506132af600154600d54613e05565b6000819055506132bd613f60565b60018190555060026001546132d29190614878565b60038190555060026001546132e79190614878565b60048190555050506130d2565b6000600354905060006004549050600085141561336457613325838861331a9190614a74565b600554601d546134b7565b600360008282546133369190614822565b9250508190555061335960005461334e600054613a79565b600154600354613c11565b6004819055506133b9565b61337e84866133739190614a74565b600654601d546134b7565b6004600082825461338f9190614a74565b925050819055506133b26000546133a7600054613a79565b600154600454613fb9565b6003819055505b6133c881600454600654613bdc565b846133d39190614822565b93506133e460035483600554613bdc565b836133ef9190614822565b925060011515861515141561341c5783600860008282546134109190614822565b9250508190555061346b565b61342b60035483600554613bdc565b600b600082825461343c9190614822565b9250508190555061345281600454600654613bdc565b600c60008282546134639190614a74565b925050819055505b50505060016025819055509392505050565b6000818385878961348e9190614a1a565b6134989190614a1a565b6134a29190614878565b6134ac9190614878565b905095945050505050565b60008183856134c69190614a1a565b6134d09190614878565b90509392505050565b6000600160255414613520576040517f08c379a0000000000000000000000000000000000000000000000000000000008152600401613517906147c0565b60405180910390fd5b600060258190555060005b61355661354b60026001546135409190614878565b602054601d546134b7565b600454600654613bdc565b81866135629190614a74565b111561374d576000613587600260015461357c9190614878565b602054601d546134b7565b905060006135a560005461359c600054613a79565b60015485613fb9565b90506000851180156135cf5750846135c260035483600554613bdc565b856135cd9190614822565b115b156135db57505061374d565b6135ea60035482600554613bdc565b846135f59190614822565b935061360682600454600654613bdc565b836136119190614822565b925060001515861515141561366f5761362f60035482600554613bdc565b600b60008282546136409190614a74565b9250508190555061365682600454600654613bdc565b600c60008282546136679190614822565b925050819055505b61368a60065460026001546136849190614878565b846134b7565b6006819055506136ab60055460026001546136a59190614878565b836134b7565b6005819055506136f46136cf6000546136c5600054613a79565b6001548587613d11565b8360026001546136df9190614878565b8460026001546136ef9190614878565b61347d565b600d81905550613708600154600d54613e05565b600081905550613716613f60565b600181905550600260015461372b9190614878565b60038190555060026001546137409190614878565b600481905550505061352b565b600060035490506000600454905060008514156137bd5761377e83886137739190614a74565b600654601d546134b7565b6004600082825461378f9190614822565b925050819055506137b26000546137a7600054613a79565b600154600454613fb9565b600381905550613812565b6137d784866137cc9190614a74565b600554601d546134b7565b600360008282546137e89190614a74565b9250508190555061380b600054613800600054613a79565b600154600354613c11565b6004819055505b61382182600354600554613bdc565b8461382c9190614822565b935061383d60045482600654613bdc565b836138489190614822565b92506001151586151514156138755783600760008282546138699190614822565b925050819055506138c4565b61388460045482600654613bdc565b600c60008282546138959190614822565b925050819055506138ab82600354600554613bdc565b600b60008282546138bc9190614a74565b925050819055505b50505060016025819055509392505050565b6000808473ffffffffffffffffffffffffffffffffffffffff166040518060400160405280601981526020017f7472616e7366657228616464726573732c75696e74323536290000000000000081525080519060200120858560405160240161394092919061475c565b604051602081830303815290604052907bffffffffffffffffffffffffffffffffffffffffffffffffffffffff19166020820180517bffffffffffffffffffffffffffffffffffffffffffffffffffffffff83818316178352505050506040516139aa91906146e5565b6000604051808303816000865af19150503d80600081146139e7576040519150601f19603f3d011682016040523d82523d6000602084013e6139ec565b606091505b5091509150818015613a1a5750600081511480613a19575080806020019051810190613a1891906144da565b5b5b613a59576040517f08c379a0000000000000000000000000000000000000000000000000000000008152600401613a50906147a0565b60405180910390fd5b5050505050565b6000818311613a6f5781613a71565b825b905092915050565b600081671bc16d674ec80000613a8f9190614a74565b9050919050565b6000806000613aae8c8b670de0b6b3a76400006134b7565b90506000613ac58c8b670de0b6b3a76400006134b7565b90506000613ad48383886140b9565b9050600081671bc16d674ec80000613aec9190614a74565b9050613b05613afe83838a8888613d11565b8d8f6134b7565b9550613b1e613b178a8a8a8f8f613d11565b8d8f6134b7565b945050505050995099975050505050505050565b60008089891115613b7557613b4887848861413d565b611680613b568b8d8e613bdc565b613b609190614878565b613b6a9190614822565b915060009050613ba9565b613b8088858861413d565b611680613b8e8c8c8e613bdc565b613b989190614878565b613ba29190614822565b9150600190505b8461078083613bb89190614a1a565b1115613bcf5761078085613bcc9190614878565b91505b9850989650505050505050565b600081670de0b6b3a76400008486613bf49190614a74565b613bfe9190614a1a565b613c089190614878565b90509392505050565b600081846008613c219190614a1a565b613c2b9190614a1a565b613cc4670de0b6b3a7640000858687613c449190614a1a565b613c4e9190614a1a565b6000613c5a9190614a74565b85886010613c689190614a1a565b613c729190614a1a565b613c7c9190614a1a565b613c869190614a1a565b600285868a6004613c979190614a1a565b613ca19190614a1a565b613cab9190614a1a565b613cb591906148fc565b613cbf9190614a74565b61418a565b8384886004613cd39190614a1a565b613cdd9190614a1a565b613ce79190614a1a565b6000613cf39190614a74565b613cfd9190614822565b613d079190614878565b9050949350505050565b600081848586613d219190614a1a565b613d2b9190614a1a565b613d359190614a1a565b828385868a6004613d469190614a1a565b613d509190614a1a565b613d5a9190614a1a565b613d649190614a1a565b613d6e9190614a1a565b613d789190614822565b670de0b6b3a764000084868788613d8f9190614a1a565b613d999190614a1a565b613da39190614a1a565b848587888b6004613db49190614a1a565b613dbe9190614a1a565b613dc89190614a1a565b613dd29190614a1a565b613ddc9190614a1a565b613de69190614822565b613df09190614a1a565b613dfa9190614878565b905095945050505050565b600080600284613e159190614878565b90506000600285613e269190614878565b905083670de0b6b3a7640000613e3c9190614822565b818284856004613e4c9190614a1a565b613e569190614a1a565b613e609190614a1a565b613e6a9190614a1a565b613e749190614a1a565b670de0b6b3a7640000858388898a613e8c9190614a1a565b613e969190614a1a565b613ea09190614a1a565b613eaa9190614a1a565b613eb49190614a1a565b6ec097ce7bc90715b34b9f10000000008488898a613ed29190614a1a565b613edc9190614a1a565b613ee69190614a1a565b613ef09190614a1a565b6ec097ce7bc90715b34b9f1000000000848587886008613f109190614a1a565b613f1a9190614a1a565b613f249190614a1a565b613f2e9190614a1a565b613f389190614a1a565b613f429190614822565b613f4c9190614a74565b613f569190614878565b9250505092915050565b600080613f96600b54600054600554600c54600054671bc16d674ec80000613f889190614a74565b600654600954600a54614204565b9050601d5481600254613fa99190614a1a565b613fb39190614878565b91505090565b600081856008613fc99190614a1a565b613fd39190614a1a565b61406c670de0b6b3a7640000858687613fec9190614a1a565b613ff69190614a1a565b60006140029190614a74565b858960106140109190614a1a565b61401a9190614a1a565b6140249190614a1a565b61402e9190614a1a565b6002858689600461403f9190614a1a565b6140499190614a1a565b6140539190614a1a565b61405d91906148fc565b6140679190614a74565b61418a565b838487600461407b9190614a1a565b6140859190614a1a565b61408f9190614a1a565b600061409b9190614a74565b6140a59190614822565b6140af9190614878565b9050949350505050565b600082846140c79190614a74565b670de0b6b3a76400008460026140dd9190614a1a565b858760048788896140ee9190614a1a565b6140f89190614a1a565b6141029190614878565b61410c9190614878565b6141169190614878565b6141209190614a74565b61412a9190614a1a565b6141349190614878565b90509392505050565b60008161e100858561414f9190614822565b670de0b6b3a7640000876141639190614a1a565b61416d9190614878565b6141779190614878565b6141819190614822565b90509392505050565b600060038211156141f157819050600060016002846141a99190614878565b6141b39190614822565b90505b818110156141eb5780915060028182856141d09190614878565b6141da9190614822565b6141e49190614878565b90506141b6565b506141ff565b600082146141fe57600190505b5b919050565b6000614256614217848a8a868a8a614264565b760a70c3c40a64e6c51999090b65f67d924000000000000061423d8c8c8c8c8c8c614264565b6142479190614a1a565b6142519190614878565b6142c0565b905098975050505050505050565b600083878385876142759190614a1a565b61427f9190614a1a565b87898b61428c9190614a1a565b6142969190614a1a565b6142a09190614822565b6142aa9190614a1a565b6142b49190614a1a565b90509695505050505050565b6000600882111561433e57819050600060016003846142df9190614878565b6142e99190614822565b90505b818110156143385780915060038160026143069190614a1a565b82836143129190614a1a565b8561431d9190614878565b6143279190614822565b6143319190614878565b90506142ec565b5061434c565b6000821461434b57600190505b5b919050565b506000815560010160009055565b60008135905061436e81614c21565b92915050565b60008135905061438381614c38565b92915050565b60008151905061439881614c38565b92915050565b6000813590506143ad81614c4f565b92915050565b600080604083850312156143ca576143c9614bbd565b5b60006143d88582860161435f565b92505060206143e98582860161435f565b9150509250929050565b6000806000806080858703121561440d5761440c614bbd565b5b600061441b8782880161435f565b945050602061442c8782880161435f565b935050604061443d8782880161435f565b925050606061444e8782880161439e565b91505092959194509250565b6000806040838503121561447157614470614bbd565b5b600061447f8582860161435f565b925050602061449085828601614374565b9150509250929050565b600080604083850312156144b1576144b0614bbd565b5b60006144bf8582860161435f565b92505060206144d08582860161439e565b9150509250929050565b6000602082840312156144f0576144ef614bbd565b5b60006144fe84828501614389565b91505092915050565b60006020828403121561451d5761451c614bbd565b5b600061452b8482850161439e565b91505092915050565b60008060006060848603121561454d5761454c614bbd565b5b600061455b8682870161439e565b935050602061456c8682870161435f565b925050604061457d8682870161435f565b9150509250925092565b6000806000606084860312156145a05761459f614bbd565b5b60006145ae8682870161439e565b93505060206145bf8682870161439e565b92505060406145d08682870161435f565b9150509250925092565b600080600080608085870312156145f4576145f3614bbd565b5b60006146028782880161439e565b94505060206146138782880161439e565b935050604061462487828801614374565b92505060606146358782880161435f565b91505092959194509250565b61464a81614aa8565b82525050565b61465981614aba565b82525050565b600061466a826147fb565b6146748185614806565b9350614684818560208601614afd565b80840191505092915050565b600061469d600f83614811565b91506146a882614bcf565b602082019050919050565b60006146c0600683614811565b91506146cb82614bf8565b602082019050919050565b6146df81614ae6565b82525050565b60006146f1828461465f565b915081905092915050565b60006020820190506147116000830184614641565b92915050565b600060808201905061472c6000830187614641565b6147396020830186614650565b61474660408301856146d6565b61475360608301846146d6565b95945050505050565b60006040820190506147716000830185614641565b61477e60208301846146d6565b9392505050565b600060208201905061479a6000830184614650565b92915050565b600060208201905081810360008301526147b981614690565b9050919050565b600060208201905081810360008301526147d9816146b3565b9050919050565b60006020820190506147f560008301846146d6565b92915050565b600081519050919050565b600081905092915050565b600082825260208201905092915050565b600061482d82614ae6565b915061483883614ae6565b9250827fffffffffffffffffffffffffffffffffffffffffffffffffffffffffffffffff0382111561486d5761486c614b30565b5b828201905092915050565b600061488382614ae6565b915061488e83614ae6565b92508261489e5761489d614b5f565b5b828204905092915050565b6000808291508390505b60018511156148f3578086048111156148cf576148ce614b30565b5b60018516156148de5780820291505b80810290506148ec85614bc2565b94506148b3565b94509492505050565b600061490782614ae6565b915061491283614af0565b925061493f7fffffffffffffffffffffffffffffffffffffffffffffffffffffffffffffffff8484614947565b905092915050565b6000826149575760019050614a13565b816149655760009050614a13565b816001811461497b5760028114614985576149b4565b6001915050614a13565b60ff84111561499757614996614b30565b5b8360020a9150848211156149ae576149ad614b30565b5b50614a13565b5060208310610133831016604e8410600b84101617156149e95782820a9050838111156149e4576149e3614b30565b5b614a13565b6149f684848460016148a9565b92509050818404811115614a0d57614a0c614b30565b5b81810290505b9392505050565b6000614a2582614ae6565b9150614a3083614ae6565b9250817fffffffffffffffffffffffffffffffffffffffffffffffffffffffffffffffff0483118215151615614a6957614a68614b30565b5b828202905092915050565b6000614a7f82614ae6565b9150614a8a83614ae6565b925082821015614a9d57614a9c614b30565b5b828203905092915050565b6000614ab382614ac6565b9050919050565b60008115159050919050565b600073ffffffffffffffffffffffffffffffffffffffff82169050919050565b6000819050919050565b600060ff82169050919050565b60005b83811015614b1b578082015181840152602081019050614b00565b83811115614b2a576000848401525b50505050565b7f4e487b7100000000000000000000000000000000000000000000000000000000600052601160045260246000fd5b7f4e487b7100000000000000000000000000000000000000000000000000000000600052601260045260246000fd5b7f4e487b7100000000000000000000000000000000000000000000000000000000600052603260045260246000fd5b600080fd5b60008160011c9050919050565b7f5452414e534645525f4641494c45440000000000000000000000000000000000600082015250565b7f4c4f434b45440000000000000000000000000000000000000000000000000000600082015250565b614c2a81614aa8565b8114614c3557600080fd5b50565b614c4181614aba565b8114614c4c57600080fd5b50565b614c5881614ae6565b8114614c6357600080fd5b5056fea26469706673582212209b946292841b63698ef6819475509ecd1a86f45747e69a743c8a2e02b885407664736f6c63430008070033",
			"opcodes": "PUSH1 0x80 PUSH1 0x40 MSTORE PUSH8 0xDE0B6B3A7640000 PUSH1 0x1D SSTORE PUSH1 0x1 PUSH1 0x25 SSTORE CALLVALUE DUP1 ISZERO PUSH2 0x21 JUMPI PUSH1 0x0 DUP1 REVERT JUMPDEST POP PUSH2 0x4C9C DUP1 PUSH2 0x31 PUSH1 0x0 CODECOPY PUSH1 0x0 RETURN INVALID PUSH1 0x80 PUSH1 0x40 MSTORE CALLVALUE DUP1 ISZERO PUSH2 0x10 JUMPI PUSH1 0x0 DUP1 REVERT JUMPDEST POP PUSH1 0x4 CALLDATASIZE LT PUSH2 0x27F JUMPI PUSH1 0x0 CALLDATALOAD PUSH1 0xE0 SHR DUP1 PUSH4 0x7E11939A GT PUSH2 0x15C JUMPI DUP1 PUSH4 0xB868504B GT PUSH2 0xCE JUMPI DUP1 PUSH4 0xE159394F GT PUSH2 0x87 JUMPI DUP1 PUSH4 0xE159394F EQ PUSH2 0x745 JUMPI DUP1 PUSH4 0xEF0348FD EQ PUSH2 0x763 JUMPI DUP1 PUSH4 0xF13C7AED EQ PUSH2 0x781 JUMPI DUP1 PUSH4 0xF738C74E EQ PUSH2 0x79F JUMPI DUP1 PUSH4 0xF92E82B0 EQ PUSH2 0x7BD JUMPI DUP1 PUSH4 0xFCBC49A0 EQ PUSH2 0x7DB JUMPI PUSH2 0x27F JUMP JUMPDEST DUP1 PUSH4 0xB868504B EQ PUSH2 0x691 JUMPI DUP1 PUSH4 0xBE6571AA EQ PUSH2 0x6AF JUMPI DUP1 PUSH4 0xC45A0155 EQ PUSH2 0x6CD JUMPI DUP1 PUSH4 0xC556C363 EQ PUSH2 0x6EB JUMPI DUP1 PUSH4 0xD873FA7B EQ PUSH2 0x709 JUMPI DUP1 PUSH4 0xE07B877A EQ PUSH2 0x727 JUMPI PUSH2 0x27F JUMP JUMPDEST DUP1 PUSH4 0xA01FBBF5 GT PUSH2 0x120 JUMPI DUP1 PUSH4 0xA01FBBF5 EQ PUSH2 0x5DF JUMPI DUP1 PUSH4 0xA37B1918 EQ PUSH2 0x5FD JUMPI DUP1 PUSH4 0xA71E8644 EQ PUSH2 0x61B JUMPI DUP1 PUSH4 0xA79E6F9C EQ PUSH2 0x639 JUMPI DUP1 PUSH4 0xB3402869 EQ PUSH2 0x657 JUMPI DUP1 PUSH4 0xB7D19FC4 EQ PUSH2 0x673 JUMPI PUSH2 0x27F JUMP JUMPDEST DUP1 PUSH4 0x7E11939A EQ PUSH2 0x54B JUMPI DUP1 PUSH4 0x803042AC EQ PUSH2 0x569 JUMPI DUP1 PUSH4 0x86B9D81F EQ PUSH2 0x587 JUMPI DUP1 PUSH4 0x8C4008E9 EQ PUSH2 0x5A3 JUMPI DUP1 PUSH4 0x8CA63E6F EQ PUSH2 0x5C1 JUMPI PUSH2 0x27F JUMP JUMPDEST DUP1 PUSH4 0x5091FADD GT PUSH2 0x1F5 JUMPI DUP1 PUSH4 0x6BF8BE75 GT PUSH2 0x1B9 JUMPI DUP1 PUSH4 0x6BF8BE75 EQ PUSH2 0x49B JUMPI DUP1 PUSH4 0x713370FC EQ PUSH2 0x4B7 JUMPI DUP1 PUSH4 0x748F00DC EQ PUSH2 0x4D5 JUMPI DUP1 PUSH4 0x77FEF068 EQ PUSH2 0x4F1 JUMPI DUP1 PUSH4 0x7B7C1F4C EQ PUSH2 0x50F JUMPI DUP1 PUSH4 0x7BB62450 EQ PUSH2 0x52D JUMPI PUSH2 0x27F JUMP JUMPDEST DUP1 PUSH4 0x5091FADD EQ PUSH2 0x407 JUMPI DUP1 PUSH4 0x54CF2AEB EQ PUSH2 0x425 JUMPI DUP1 PUSH4 0x5784C8C4 EQ PUSH2 0x443 JUMPI DUP1 PUSH4 0x617D3B90 EQ PUSH2 0x461 JUMPI DUP1 PUSH4 0x62AB1A77 EQ PUSH2 0x47D JUMPI PUSH2 0x27F JUMP JUMPDEST DUP1 PUSH4 0x29BAF8D9 GT PUSH2 0x247 JUMPI DUP1 PUSH4 0x29BAF8D9 EQ PUSH2 0x32C JUMPI DUP1 PUSH4 0x2C4426AD EQ PUSH2 0x34A JUMPI DUP1 PUSH4 0x31FA66B2 EQ PUSH2 0x37D JUMPI DUP1 PUSH4 0x321D7FA9 EQ PUSH2 0x39B JUMPI DUP1 PUSH4 0x32E7C5BF EQ PUSH2 0x3B9 JUMPI DUP1 PUSH4 0x367401DB EQ PUSH2 0x3D7 JUMPI PUSH2 0x27F JUMP JUMPDEST DUP1 PUSH4 0x751A6C8 EQ PUSH2 0x284 JUMPI DUP1 PUSH4 0xE449559 EQ PUSH2 0x2A2 JUMPI DUP1 PUSH4 0xF529BA2 EQ PUSH2 0x2D2 JUMPI DUP1 PUSH4 0x15770F92 EQ PUSH2 0x2F0 JUMPI DUP1 PUSH4 0x16DC165B EQ PUSH2 0x30E JUMPI JUMPDEST PUSH1 0x0 DUP1 REVERT JUMPDEST PUSH2 0x28C PUSH2 0x7F9 JUMP JUMPDEST PUSH1 0x40 MLOAD PUSH2 0x299 SWAP2 SWAP1 PUSH2 0x47E0 JUMP JUMPDEST PUSH1 0x40 MLOAD DUP1 SWAP2 SUB SWAP1 RETURN JUMPDEST PUSH2 0x2BC PUSH1 0x4 DUP1 CALLDATASIZE SUB DUP2 ADD SWAP1 PUSH2 0x2B7 SWAP2 SWAP1 PUSH2 0x4507 JUMP JUMPDEST PUSH2 0x7FF JUMP JUMPDEST PUSH1 0x40 MLOAD PUSH2 0x2C9 SWAP2 SWAP1 PUSH2 0x47E0 JUMP JUMPDEST PUSH1 0x40 MLOAD DUP1 SWAP2 SUB SWAP1 RETURN JUMPDEST PUSH2 0x2DA PUSH2 0x81A JUMP JUMPDEST PUSH1 0x40 MLOAD PUSH2 0x2E7 SWAP2 SWAP1 PUSH2 0x47E0 JUMP JUMPDEST PUSH1 0x40 MLOAD DUP1 SWAP2 SUB SWAP1 RETURN JUMPDEST PUSH2 0x2F8 PUSH2 0x820 JUMP JUMPDEST PUSH1 0x40 MLOAD PUSH2 0x305 SWAP2 SWAP1 PUSH2 0x47E0 JUMP JUMPDEST PUSH1 0x40 MLOAD DUP1 SWAP2 SUB SWAP1 RETURN JUMPDEST PUSH2 0x316 PUSH2 0x826 JUMP JUMPDEST PUSH1 0x40 MLOAD PUSH2 0x323 SWAP2 SWAP1 PUSH2 0x46FC JUMP JUMPDEST PUSH1 0x40 MLOAD DUP1 SWAP2 SUB SWAP1 RETURN JUMPDEST PUSH2 0x334 PUSH2 0x84C JUMP JUMPDEST PUSH1 0x40 MLOAD PUSH2 0x341 SWAP2 SWAP1 PUSH2 0x47E0 JUMP JUMPDEST PUSH1 0x40 MLOAD DUP1 SWAP2 SUB SWAP1 RETURN JUMPDEST PUSH2 0x364 PUSH1 0x4 DUP1 CALLDATASIZE SUB DUP2 ADD SWAP1 PUSH2 0x35F SWAP2 SWAP1 PUSH2 0x445A JUMP JUMPDEST PUSH2 0x852 JUMP JUMPDEST PUSH1 0x40 MLOAD PUSH2 0x374 SWAP5 SWAP4 SWAP3 SWAP2 SWAP1 PUSH2 0x4717 JUMP JUMPDEST PUSH1 0x40 MLOAD DUP1 SWAP2 SUB SWAP1 RETURN JUMPDEST PUSH2 0x385 PUSH2 0x8BC JUMP JUMPDEST PUSH1 0x40 MLOAD PUSH2 0x392 SWAP2 SWAP1 PUSH2 0x4785 JUMP JUMPDEST PUSH1 0x40 MLOAD DUP1 SWAP2 SUB SWAP1 RETURN JUMPDEST PUSH2 0x3A3 PUSH2 0x8CF JUMP JUMPDEST PUSH1 0x40 MLOAD PUSH2 0x3B0 SWAP2 SWAP1 PUSH2 0x47E0 JUMP JUMPDEST PUSH1 0x40 MLOAD DUP1 SWAP2 SUB SWAP1 RETURN JUMPDEST PUSH2 0x3C1 PUSH2 0x8D5 JUMP JUMPDEST PUSH1 0x40 MLOAD PUSH2 0x3CE SWAP2 SWAP1 PUSH2 0x47E0 JUMP JUMPDEST PUSH1 0x40 MLOAD DUP1 SWAP2 SUB SWAP1 RETURN JUMPDEST PUSH2 0x3F1 PUSH1 0x4 DUP1 CALLDATASIZE SUB DUP2 ADD SWAP1 PUSH2 0x3EC SWAP2 SWAP1 PUSH2 0x449A JUMP JUMPDEST PUSH2 0x8DB JUMP JUMPDEST PUSH1 0x40 MLOAD PUSH2 0x3FE SWAP2 SWAP1 PUSH2 0x47E0 JUMP JUMPDEST PUSH1 0x40 MLOAD DUP1 SWAP2 SUB SWAP1 RETURN JUMPDEST PUSH2 0x40F PUSH2 0x903 JUMP JUMPDEST PUSH1 0x40 MLOAD PUSH2 0x41C SWAP2 SWAP1 PUSH2 0x47E0 JUMP JUMPDEST PUSH1 0x40 MLOAD DUP1 SWAP2 SUB SWAP1 RETURN JUMPDEST PUSH2 0x42D PUSH2 0x909 JUMP JUMPDEST PUSH1 0x40 MLOAD PUSH2 0x43A SWAP2 SWAP1 PUSH2 0x47E0 JUMP JUMPDEST PUSH1 0x40 MLOAD DUP1 SWAP2 SUB SWAP1 RETURN JUMPDEST PUSH2 0x44B PUSH2 0x90F JUMP JUMPDEST PUSH1 0x40 MLOAD PUSH2 0x458 SWAP2 SWAP1 PUSH2 0x47E0 JUMP JUMPDEST PUSH1 0x40 MLOAD DUP1 SWAP2 SUB SWAP1 RETURN JUMPDEST PUSH2 0x47B PUSH1 0x4 DUP1 CALLDATASIZE SUB DUP2 ADD SWAP1 PUSH2 0x476 SWAP2 SWAP1 PUSH2 0x4587 JUMP JUMPDEST PUSH2 0x915 JUMP JUMPDEST STOP JUMPDEST PUSH2 0x485 PUSH2 0x182C JUMP JUMPDEST PUSH1 0x40 MLOAD PUSH2 0x492 SWAP2 SWAP1 PUSH2 0x46FC JUMP JUMPDEST PUSH1 0x40 MLOAD DUP1 SWAP2 SUB SWAP1 RETURN JUMPDEST PUSH2 0x4B5 PUSH1 0x4 DUP1 CALLDATASIZE SUB DUP2 ADD SWAP1 PUSH2 0x4B0 SWAP2 SWAP1 PUSH2 0x43F3 JUMP JUMPDEST PUSH2 0x1852 JUMP JUMPDEST STOP JUMPDEST PUSH2 0x4BF PUSH2 0x1B23 JUMP JUMPDEST PUSH1 0x40 MLOAD PUSH2 0x4CC SWAP2 SWAP1 PUSH2 0x47E0 JUMP JUMPDEST PUSH1 0x40 MLOAD DUP1 SWAP2 SUB SWAP1 RETURN JUMPDEST PUSH2 0x4EF PUSH1 0x4 DUP1 CALLDATASIZE SUB DUP2 ADD SWAP1 PUSH2 0x4EA SWAP2 SWAP1 PUSH2 0x45DA JUMP JUMPDEST PUSH2 0x1B29 JUMP JUMPDEST STOP JUMPDEST PUSH2 0x4F9 PUSH2 0x2574 JUMP JUMPDEST PUSH1 0x40 MLOAD PUSH2 0x506 SWAP2 SWAP1 PUSH2 0x47E0 JUMP JUMPDEST PUSH1 0x40 MLOAD DUP1 SWAP2 SUB SWAP1 RETURN JUMPDEST PUSH2 0x517 PUSH2 0x257A JUMP JUMPDEST PUSH1 0x40 MLOAD PUSH2 0x524 SWAP2 SWAP1 PUSH2 0x47E0 JUMP JUMPDEST PUSH1 0x40 MLOAD DUP1 SWAP2 SUB SWAP1 RETURN JUMPDEST PUSH2 0x535 PUSH2 0x2580 JUMP JUMPDEST PUSH1 0x40 MLOAD PUSH2 0x542 SWAP2 SWAP1 PUSH2 0x47E0 JUMP JUMPDEST PUSH1 0x40 MLOAD DUP1 SWAP2 SUB SWAP1 RETURN JUMPDEST PUSH2 0x553 PUSH2 0x2586 JUMP JUMPDEST PUSH1 0x40 MLOAD PUSH2 0x560 SWAP2 SWAP1 PUSH2 0x47E0 JUMP JUMPDEST PUSH1 0x40 MLOAD DUP1 SWAP2 SUB SWAP1 RETURN JUMPDEST PUSH2 0x571 PUSH2 0x258C JUMP JUMPDEST PUSH1 0x40 MLOAD PUSH2 0x57E SWAP2 SWAP1 PUSH2 0x47E0 JUMP JUMPDEST PUSH1 0x40 MLOAD DUP1 SWAP2 SUB SWAP1 RETURN JUMPDEST PUSH2 0x5A1 PUSH1 0x4 DUP1 CALLDATASIZE SUB DUP2 ADD SWAP1 PUSH2 0x59C SWAP2 SWAP1 PUSH2 0x43B3 JUMP JUMPDEST PUSH2 0x2592 JUMP JUMPDEST STOP JUMPDEST PUSH2 0x5AB PUSH2 0x2943 JUMP JUMPDEST PUSH1 0x40 MLOAD PUSH2 0x5B8 SWAP2 SWAP1 PUSH2 0x47E0 JUMP JUMPDEST PUSH1 0x40 MLOAD DUP1 SWAP2 SUB SWAP1 RETURN JUMPDEST PUSH2 0x5C9 PUSH2 0x2949 JUMP JUMPDEST PUSH1 0x40 MLOAD PUSH2 0x5D6 SWAP2 SWAP1 PUSH2 0x47E0 JUMP JUMPDEST PUSH1 0x40 MLOAD DUP1 SWAP2 SUB SWAP1 RETURN JUMPDEST PUSH2 0x5E7 PUSH2 0x294F JUMP JUMPDEST PUSH1 0x40 MLOAD PUSH2 0x5F4 SWAP2 SWAP1 PUSH2 0x47E0 JUMP JUMPDEST PUSH1 0x40 MLOAD DUP1 SWAP2 SUB SWAP1 RETURN JUMPDEST PUSH2 0x605 PUSH2 0x2955 JUMP JUMPDEST PUSH1 0x40 MLOAD PUSH2 0x612 SWAP2 SWAP1 PUSH2 0x47E0 JUMP JUMPDEST PUSH1 0x40 MLOAD DUP1 SWAP2 SUB SWAP1 RETURN JUMPDEST PUSH2 0x623 PUSH2 0x295B JUMP JUMPDEST PUSH1 0x40 MLOAD PUSH2 0x630 SWAP2 SWAP1 PUSH2 0x47E0 JUMP JUMPDEST PUSH1 0x40 MLOAD DUP1 SWAP2 SUB SWAP1 RETURN JUMPDEST PUSH2 0x641 PUSH2 0x2961 JUMP JUMPDEST PUSH1 0x40 MLOAD PUSH2 0x64E SWAP2 SWAP1 PUSH2 0x4785 JUMP JUMPDEST PUSH1 0x40 MLOAD DUP1 SWAP2 SUB SWAP1 RETURN JUMPDEST PUSH2 0x671 PUSH1 0x4 DUP1 CALLDATASIZE SUB DUP2 ADD SWAP1 PUSH2 0x66C SWAP2 SWAP1 PUSH2 0x4534 JUMP JUMPDEST PUSH2 0x2974 JUMP JUMPDEST STOP JUMPDEST PUSH2 0x67B PUSH2 0x2BD9 JUMP JUMPDEST PUSH1 0x40 MLOAD PUSH2 0x688 SWAP2 SWAP1 PUSH2 0x46FC JUMP JUMPDEST PUSH1 0x40 MLOAD DUP1 SWAP2 SUB SWAP1 RETURN JUMPDEST PUSH2 0x699 PUSH2 0x2BFF JUMP JUMPDEST PUSH1 0x40 MLOAD PUSH2 0x6A6 SWAP2 SWAP1 PUSH2 0x47E0 JUMP JUMPDEST PUSH1 0x40 MLOAD DUP1 SWAP2 SUB SWAP1 RETURN JUMPDEST PUSH2 0x6B7 PUSH2 0x2C05 JUMP JUMPDEST PUSH1 0x40 MLOAD PUSH2 0x6C4 SWAP2 SWAP1 PUSH2 0x47E0 JUMP JUMPDEST PUSH1 0x40 MLOAD DUP1 SWAP2 SUB SWAP1 RETURN JUMPDEST PUSH2 0x6D5 PUSH2 0x2C0B JUMP JUMPDEST PUSH1 0x40 MLOAD PUSH2 0x6E2 SWAP2 SWAP1 PUSH2 0x46FC JUMP JUMPDEST PUSH1 0x40 MLOAD DUP1 SWAP2 SUB SWAP1 RETURN JUMPDEST PUSH2 0x6F3 PUSH2 0x2C31 JUMP JUMPDEST PUSH1 0x40 MLOAD PUSH2 0x700 SWAP2 SWAP1 PUSH2 0x47E0 JUMP JUMPDEST PUSH1 0x40 MLOAD DUP1 SWAP2 SUB SWAP1 RETURN JUMPDEST PUSH2 0x711 PUSH2 0x2C37 JUMP JUMPDEST PUSH1 0x40 MLOAD PUSH2 0x71E SWAP2 SWAP1 PUSH2 0x47E0 JUMP JUMPDEST PUSH1 0x40 MLOAD DUP1 SWAP2 SUB SWAP1 RETURN JUMPDEST PUSH2 0x72F PUSH2 0x2C3D JUMP JUMPDEST PUSH1 0x40 MLOAD PUSH2 0x73C SWAP2 SWAP1 PUSH2 0x47E0 JUMP JUMPDEST PUSH1 0x40 MLOAD DUP1 SWAP2 SUB SWAP1 RETURN JUMPDEST PUSH2 0x74D PUSH2 0x2C43 JUMP JUMPDEST PUSH1 0x40 MLOAD PUSH2 0x75A SWAP2 SWAP1 PUSH2 0x47E0 JUMP JUMPDEST PUSH1 0x40 MLOAD DUP1 SWAP2 SUB SWAP1 RETURN JUMPDEST PUSH2 0x76B PUSH2 0x2C49 JUMP JUMPDEST PUSH1 0x40 MLOAD PUSH2 0x778 SWAP2 SWAP1 PUSH2 0x47E0 JUMP JUMPDEST PUSH1 0x40 MLOAD DUP1 SWAP2 SUB SWAP1 RETURN JUMPDEST PUSH2 0x789 PUSH2 0x2C4F JUMP JUMPDEST PUSH1 0x40 MLOAD PUSH2 0x796 SWAP2 SWAP1 PUSH2 0x47E0 JUMP JUMPDEST PUSH1 0x40 MLOAD DUP1 SWAP2 SUB SWAP1 RETURN JUMPDEST PUSH2 0x7A7 PUSH2 0x2C55 JUMP JUMPDEST PUSH1 0x40 MLOAD PUSH2 0x7B4 SWAP2 SWAP1 PUSH2 0x47E0 JUMP JUMPDEST PUSH1 0x40 MLOAD DUP1 SWAP2 SUB SWAP1 RETURN JUMPDEST PUSH2 0x7C5 PUSH2 0x2C5B JUMP JUMPDEST PUSH1 0x40 MLOAD PUSH2 0x7D2 SWAP2 SWAP1 PUSH2 0x47E0 JUMP JUMPDEST PUSH1 0x40 MLOAD DUP1 SWAP2 SUB SWAP1 RETURN JUMPDEST PUSH2 0x7E3 PUSH2 0x2C61 JUMP JUMPDEST PUSH1 0x40 MLOAD PUSH2 0x7F0 SWAP2 SWAP1 PUSH2 0x47E0 JUMP JUMPDEST PUSH1 0x40 MLOAD DUP1 SWAP2 SUB SWAP1 RETURN JUMPDEST PUSH1 0x11 SLOAD DUP2 JUMP JUMPDEST PUSH1 0x26 DUP2 PUSH1 0x2 DUP2 LT PUSH2 0x80F JUMPI PUSH1 0x0 DUP1 REVERT JUMPDEST ADD PUSH1 0x0 SWAP2 POP SWAP1 POP SLOAD DUP2 JUMP JUMPDEST PUSH1 0x1 SLOAD DUP2 JUMP JUMPDEST PUSH1 0x1B SLOAD DUP2 JUMP JUMPDEST PUSH1 0x18 PUSH1 0x0 SWAP1 SLOAD SWAP1 PUSH2 0x100 EXP SWAP1 DIV PUSH20 0xFFFFFFFFFFFFFFFFFFFFFFFFFFFFFFFFFFFFFFFF AND DUP2 JUMP JUMPDEST PUSH1 0xD SLOAD DUP2 JUMP JUMPDEST PUSH1 0x28 PUSH1 0x20 MSTORE DUP2 PUSH1 0x0 MSTORE PUSH1 0x40 PUSH1 0x0 KECCAK256 PUSH1 0x20 MSTORE DUP1 PUSH1 0x0 MSTORE PUSH1 0x40 PUSH1 0x0 KECCAK256 PUSH1 0x0 SWAP2 POP SWAP2 POP POP DUP1 PUSH1 0x0 ADD PUSH1 0x0 SWAP1 SLOAD SWAP1 PUSH2 0x100 EXP SWAP1 DIV PUSH20 0xFFFFFFFFFFFFFFFFFFFFFFFFFFFFFFFFFFFFFFFF AND SWAP1 DUP1 PUSH1 0x0 ADD PUSH1 0x14 SWAP1 SLOAD SWAP1 PUSH2 0x100 EXP SWAP1 DIV PUSH1 0xFF AND SWAP1 DUP1 PUSH1 0x1 ADD SLOAD SWAP1 DUP1 PUSH1 0x2 ADD SLOAD SWAP1 POP DUP5 JUMP JUMPDEST PUSH1 0x24 PUSH1 0x0 SWAP1 SLOAD SWAP1 PUSH2 0x100 EXP SWAP1 DIV PUSH1 0xFF AND DUP2 JUMP JUMPDEST PUSH1 0x14 SLOAD DUP2 JUMP JUMPDEST PUSH1 0x0 SLOAD DUP2 JUMP JUMPDEST PUSH1 0x29 PUSH1 0x20 MSTORE DUP2 PUSH1 0x0 MSTORE PUSH1 0x40 PUSH1 0x0 KECCAK256 DUP2 PUSH1 0x2 DUP2 LT PUSH2 0x8F7 JUMPI PUSH1 0x0 DUP1 REVERT JUMPDEST ADD PUSH1 0x0 SWAP2 POP SWAP2 POP POP SLOAD DUP2 JUMP JUMPDEST PUSH1 0xC SLOAD DUP2 JUMP JUMPDEST PUSH1 0x22 SLOAD DUP2 JUMP JUMPDEST PUSH1 0x23 SLOAD DUP2 JUMP JUMPDEST PUSH1 0x1 PUSH1 0x25 SLOAD EQ PUSH2 0x95A JUMPI PUSH1 0x40 MLOAD PUSH32 0x8C379A000000000000000000000000000000000000000000000000000000000 DUP2 MSTORE PUSH1 0x4 ADD PUSH2 0x951 SWAP1 PUSH2 0x47C0 JUMP JUMPDEST PUSH1 0x40 MLOAD DUP1 SWAP2 SUB SWAP1 REVERT JUMPDEST PUSH1 0x0 PUSH1 0x25 DUP2 SWAP1 SSTORE POP PUSH1 0x0 DUP3 DUP5 PUSH2 0x970 SWAP2 SWAP1 PUSH2 0x4A1A JUMP JUMPDEST EQ DUP1 ISZERO PUSH2 0x988 JUMPI POP PUSH1 0x0 DUP3 DUP5 PUSH2 0x986 SWAP2 SWAP1 PUSH2 0x4822 JUMP JUMPDEST GT JUMPDEST DUP1 ISZERO PUSH2 0x9B6 JUMPI POP PUSH2 0x998 DUP2 PUSH2 0x2C67 JUMP JUMPDEST PUSH2 0x9A1 DUP3 PUSH2 0x2D5B JUMP JUMPDEST PUSH2 0x9AA DUP4 PUSH2 0x2E33 JUMP JUMPDEST PUSH2 0x9B4 SWAP2 SWAP1 PUSH2 0x4822 JUMP JUMPDEST GT JUMPDEST DUP1 ISZERO PUSH2 0xA19 JUMPI POP PUSH1 0x28 PUSH1 0x0 DUP3 PUSH20 0xFFFFFFFFFFFFFFFFFFFFFFFFFFFFFFFFFFFFFFFF AND PUSH20 0xFFFFFFFFFFFFFFFFFFFFFFFFFFFFFFFFFFFFFFFF AND DUP2 MSTORE PUSH1 0x20 ADD SWAP1 DUP2 MSTORE PUSH1 0x20 ADD PUSH1 0x0 KECCAK256 PUSH1 0x0 DUP1 ISZERO ISZERO ISZERO ISZERO DUP2 MSTORE PUSH1 0x20 ADD SWAP1 DUP2 MSTORE PUSH1 0x20 ADD PUSH1 0x0 KECCAK256 PUSH1 0x2 ADD SLOAD DUP4 GT ISZERO JUMPDEST DUP1 ISZERO PUSH2 0xA7D JUMPI POP PUSH1 0x28 PUSH1 0x0 DUP3 PUSH20 0xFFFFFFFFFFFFFFFFFFFFFFFFFFFFFFFFFFFFFFFF AND PUSH20 0xFFFFFFFFFFFFFFFFFFFFFFFFFFFFFFFFFFFFFFFF AND DUP2 MSTORE PUSH1 0x20 ADD SWAP1 DUP2 MSTORE PUSH1 0x20 ADD PUSH1 0x0 KECCAK256 PUSH1 0x0 PUSH1 0x1 ISZERO ISZERO ISZERO ISZERO DUP2 MSTORE PUSH1 0x20 ADD SWAP1 DUP2 MSTORE PUSH1 0x20 ADD PUSH1 0x0 KECCAK256 PUSH1 0x2 ADD SLOAD DUP3 GT ISZERO JUMPDEST PUSH2 0xA86 JUMPI PUSH1 0x0 DUP1 REVERT JUMPDEST PUSH2 0xA8E PUSH2 0x2F02 JUMP JUMPDEST PUSH1 0x0 DUP4 GT ISZERO PUSH2 0x11C3 JUMPI PUSH1 0x0 PUSH2 0xAA6 DUP5 PUSH1 0x1 PUSH1 0x0 PUSH2 0x3080 JUMP JUMPDEST SWAP1 POP PUSH1 0x0 PUSH2 0xB6A DUP6 PUSH1 0x28 PUSH1 0x0 DUP7 PUSH20 0xFFFFFFFFFFFFFFFFFFFFFFFFFFFFFFFFFFFFFFFF AND PUSH20 0xFFFFFFFFFFFFFFFFFFFFFFFFFFFFFFFFFFFFFFFF AND DUP2 MSTORE PUSH1 0x20 ADD SWAP1 DUP2 MSTORE PUSH1 0x20 ADD PUSH1 0x0 KECCAK256 PUSH1 0x0 PUSH1 0x1 ISZERO ISZERO ISZERO ISZERO DUP2 MSTORE PUSH1 0x20 ADD SWAP1 DUP2 MSTORE PUSH1 0x20 ADD PUSH1 0x0 KECCAK256 PUSH1 0x1 ADD SLOAD PUSH1 0xF SLOAD PUSH1 0x11 SLOAD PUSH1 0x28 PUSH1 0x0 DUP10 PUSH20 0xFFFFFFFFFFFFFFFFFFFFFFFFFFFFFFFFFFFFFFFF AND PUSH20 0xFFFFFFFFFFFFFFFFFFFFFFFFFFFFFFFFFFFFFFFF AND DUP2 MSTORE PUSH1 0x20 ADD SWAP1 DUP2 MSTORE PUSH1 0x20 ADD PUSH1 0x0 KECCAK256 PUSH1 0x0 DUP1 ISZERO ISZERO ISZERO ISZERO DUP2 MSTORE PUSH1 0x20 ADD SWAP1 DUP2 MSTORE PUSH1 0x20 ADD PUSH1 0x0 KECCAK256 PUSH1 0x2 ADD SLOAD PUSH2 0x347D JUMP JUMPDEST SWAP1 POP DUP5 PUSH1 0x28 PUSH1 0x0 DUP6 PUSH20 0xFFFFFFFFFFFFFFFFFFFFFFFFFFFFFFFFFFFFFFFF AND PUSH20 0xFFFFFFFFFFFFFFFFFFFFFFFFFFFFFFFFFFFFFFFF AND DUP2 MSTORE PUSH1 0x20 ADD SWAP1 DUP2 MSTORE PUSH1 0x20 ADD PUSH1 0x0 KECCAK256 PUSH1 0x0 DUP1 ISZERO ISZERO ISZERO ISZERO DUP2 MSTORE PUSH1 0x20 ADD SWAP1 DUP2 MSTORE PUSH1 0x20 ADD PUSH1 0x0 KECCAK256 PUSH1 0x2 ADD PUSH1 0x0 DUP3 DUP3 SLOAD PUSH2 0xBD3 SWAP2 SWAP1 PUSH2 0x4A74 JUMP JUMPDEST SWAP3 POP POP DUP2 SWAP1 SSTORE POP DUP1 PUSH1 0xF PUSH1 0x0 DUP3 DUP3 SLOAD PUSH2 0xBEC SWAP2 SWAP1 PUSH2 0x4A74 JUMP JUMPDEST SWAP3 POP POP DUP2 SWAP1 SSTORE POP PUSH2 0xCAD PUSH1 0x28 PUSH1 0x0 DUP6 PUSH20 0xFFFFFFFFFFFFFFFFFFFFFFFFFFFFFFFFFFFFFFFF AND PUSH20 0xFFFFFFFFFFFFFFFFFFFFFFFFFFFFFFFFFFFFFFFF AND DUP2 MSTORE PUSH1 0x20 ADD SWAP1 DUP2 MSTORE PUSH1 0x20 ADD PUSH1 0x0 KECCAK256 PUSH1 0x0 PUSH1 0x1 ISZERO ISZERO ISZERO ISZERO DUP2 MSTORE PUSH1 0x20 ADD SWAP1 DUP2 MSTORE PUSH1 0x20 ADD PUSH1 0x0 KECCAK256 PUSH1 0x1 ADD SLOAD DUP7 PUSH1 0x28 PUSH1 0x0 DUP8 PUSH20 0xFFFFFFFFFFFFFFFFFFFFFFFFFFFFFFFFFFFFFFFF AND PUSH20 0xFFFFFFFFFFFFFFFFFFFFFFFFFFFFFFFFFFFFFFFF AND DUP2 MSTORE PUSH1 0x20 ADD SWAP1 DUP2 MSTORE PUSH1 0x20 ADD PUSH1 0x0 KECCAK256 PUSH1 0x0 DUP1 ISZERO ISZERO ISZERO ISZERO DUP2 MSTORE PUSH1 0x20 ADD SWAP1 DUP2 MSTORE PUSH1 0x20 ADD PUSH1 0x0 KECCAK256 PUSH1 0x2 ADD SLOAD PUSH2 0x34B7 JUMP JUMPDEST PUSH1 0x11 PUSH1 0x0 DUP3 DUP3 SLOAD PUSH2 0xCBE SWAP2 SWAP1 PUSH2 0x4A74 JUMP JUMPDEST SWAP3 POP POP DUP2 SWAP1 SSTORE POP PUSH2 0xD7F PUSH1 0x28 PUSH1 0x0 DUP6 PUSH20 0xFFFFFFFFFFFFFFFFFFFFFFFFFFFFFFFFFFFFFFFF AND PUSH20 0xFFFFFFFFFFFFFFFFFFFFFFFFFFFFFFFFFFFFFFFF AND DUP2 MSTORE PUSH1 0x20 ADD SWAP1 DUP2 MSTORE PUSH1 0x20 ADD PUSH1 0x0 KECCAK256 PUSH1 0x0 PUSH1 0x1 ISZERO ISZERO ISZERO ISZERO DUP2 MSTORE PUSH1 0x20 ADD SWAP1 DUP2 MSTORE PUSH1 0x20 ADD PUSH1 0x0 KECCAK256 PUSH1 0x1 ADD SLOAD DUP7 PUSH1 0x28 PUSH1 0x0 DUP8 PUSH20 0xFFFFFFFFFFFFFFFFFFFFFFFFFFFFFFFFFFFFFFFF AND PUSH20 0xFFFFFFFFFFFFFFFFFFFFFFFFFFFFFFFFFFFFFFFF AND DUP2 MSTORE PUSH1 0x20 ADD SWAP1 DUP2 MSTORE PUSH1 0x20 ADD PUSH1 0x0 KECCAK256 PUSH1 0x0 DUP1 ISZERO ISZERO ISZERO ISZERO DUP2 MSTORE PUSH1 0x20 ADD SWAP1 DUP2 MSTORE PUSH1 0x20 ADD PUSH1 0x0 KECCAK256 PUSH1 0x2 ADD SLOAD PUSH2 0x34B7 JUMP JUMPDEST PUSH1 0x28 PUSH1 0x0 DUP6 PUSH20 0xFFFFFFFFFFFFFFFFFFFFFFFFFFFFFFFFFFFFFFFF AND PUSH20 0xFFFFFFFFFFFFFFFFFFFFFFFFFFFFFFFFFFFFFFFF AND DUP2 MSTORE PUSH1 0x20 ADD SWAP1 DUP2 MSTORE PUSH1 0x20 ADD PUSH1 0x0 KECCAK256 PUSH1 0x0 PUSH1 0x1 ISZERO ISZERO ISZERO ISZERO DUP2 MSTORE PUSH1 0x20 ADD SWAP1 DUP2 MSTORE PUSH1 0x20 ADD PUSH1 0x0 KECCAK256 PUSH1 0x1 ADD PUSH1 0x0 DUP3 DUP3 SLOAD PUSH2 0xDE6 SWAP2 SWAP1 PUSH2 0x4A74 JUMP JUMPDEST SWAP3 POP POP DUP2 SWAP1 SSTORE POP DUP1 DUP3 GT DUP1 ISZERO PUSH2 0xE0F JUMPI POP PUSH1 0x0 ISZERO ISZERO PUSH1 0x24 PUSH1 0x0 SWAP1 SLOAD SWAP1 PUSH2 0x100 EXP SWAP1 DIV PUSH1 0xFF AND ISZERO ISZERO EQ JUMPDEST ISZERO PUSH2 0xE99 JUMPI PUSH2 0xE2B DUP2 DUP4 PUSH2 0xE23 SWAP2 SWAP1 PUSH2 0x4A74 JUMP JUMPDEST PUSH1 0x0 DUP1 PUSH2 0x34D9 JUMP JUMPDEST PUSH1 0x29 PUSH1 0x0 DUP6 PUSH20 0xFFFFFFFFFFFFFFFFFFFFFFFFFFFFFFFFFFFFFFFF AND PUSH20 0xFFFFFFFFFFFFFFFFFFFFFFFFFFFFFFFFFFFFFFFF AND DUP2 MSTORE PUSH1 0x20 ADD SWAP1 DUP2 MSTORE PUSH1 0x20 ADD PUSH1 0x0 KECCAK256 PUSH1 0x0 PUSH1 0x2 DUP2 LT PUSH2 0xE7D JUMPI PUSH2 0xE7C PUSH2 0x4B8E JUMP JUMPDEST JUMPDEST ADD PUSH1 0x0 DUP3 DUP3 SLOAD PUSH2 0xE8D SWAP2 SWAP1 PUSH2 0x4822 JUMP JUMPDEST SWAP3 POP POP DUP2 SWAP1 SSTORE POP PUSH2 0x11BC JUMP JUMPDEST DUP1 DUP3 PUSH1 0x29 PUSH1 0x0 DUP7 PUSH20 0xFFFFFFFFFFFFFFFFFFFFFFFFFFFFFFFFFFFFFFFF AND PUSH20 0xFFFFFFFFFFFFFFFFFFFFFFFFFFFFFFFFFFFFFFFF AND DUP2 MSTORE PUSH1 0x20 ADD SWAP1 DUP2 MSTORE PUSH1 0x20 ADD PUSH1 0x0 KECCAK256 PUSH1 0x1 PUSH1 0x2 DUP2 LT PUSH2 0xEED JUMPI PUSH2 0xEEC PUSH2 0x4B8E JUMP JUMPDEST JUMPDEST ADD SLOAD PUSH2 0xEF9 SWAP2 SWAP1 PUSH2 0x4822 JUMP JUMPDEST GT DUP1 ISZERO PUSH2 0xF19 JUMPI POP PUSH1 0x1 ISZERO ISZERO PUSH1 0x24 PUSH1 0x0 SWAP1 SLOAD SWAP1 PUSH2 0x100 EXP SWAP1 DIV PUSH1 0xFF AND ISZERO ISZERO EQ JUMPDEST ISZERO PUSH2 0xFE4 JUMPI DUP1 DUP3 PUSH1 0x29 PUSH1 0x0 DUP7 PUSH20 0xFFFFFFFFFFFFFFFFFFFFFFFFFFFFFFFFFFFFFFFF AND PUSH20 0xFFFFFFFFFFFFFFFFFFFFFFFFFFFFFFFFFFFFFFFF AND DUP2 MSTORE PUSH1 0x20 ADD SWAP1 DUP2 MSTORE PUSH1 0x20 ADD PUSH1 0x0 KECCAK256 PUSH1 0x1 PUSH1 0x2 DUP2 LT PUSH2 0xF72 JUMPI PUSH2 0xF71 PUSH2 0x4B8E JUMP JUMPDEST JUMPDEST ADD SLOAD PUSH2 0xF7E SWAP2 SWAP1 PUSH2 0x4822 JUMP JUMPDEST PUSH2 0xF88 SWAP2 SWAP1 PUSH2 0x4A74 JUMP JUMPDEST PUSH1 0x29 PUSH1 0x0 DUP6 PUSH20 0xFFFFFFFFFFFFFFFFFFFFFFFFFFFFFFFFFFFFFFFF AND PUSH20 0xFFFFFFFFFFFFFFFFFFFFFFFFFFFFFFFFFFFFFFFF AND DUP2 MSTORE PUSH1 0x20 ADD SWAP1 DUP2 MSTORE PUSH1 0x20 ADD PUSH1 0x0 KECCAK256 PUSH1 0x1 PUSH1 0x2 DUP2 LT PUSH2 0xFDA JUMPI PUSH2 0xFD9 PUSH2 0x4B8E JUMP JUMPDEST JUMPDEST ADD DUP2 SWAP1 SSTORE POP PUSH2 0x11BB JUMP JUMPDEST PUSH2 0x10AC PUSH1 0x29 PUSH1 0x0 DUP6 PUSH20 0xFFFFFFFFFFFFFFFFFFFFFFFFFFFFFFFFFFFFFFFF AND PUSH20 0xFFFFFFFFFFFFFFFFFFFFFFFFFFFFFFFFFFFFFFFF AND DUP2 MSTORE PUSH1 0x20 ADD SWAP1 DUP2 MSTORE PUSH1 0x20 ADD PUSH1 0x0 KECCAK256 PUSH1 0x0 PUSH1 0x2 DUP2 LT PUSH2 0x1039 JUMPI PUSH2 0x1038 PUSH2 0x4B8E JUMP JUMPDEST JUMPDEST ADD SLOAD PUSH1 0x0 PUSH1 0x29 PUSH1 0x0 DUP8 PUSH20 0xFFFFFFFFFFFFFFFFFFFFFFFFFFFFFFFFFFFFFFFF AND PUSH20 0xFFFFFFFFFFFFFFFFFFFFFFFFFFFFFFFFFFFFFFFF AND DUP2 MSTORE PUSH1 0x20 ADD SWAP1 DUP2 MSTORE PUSH1 0x20 ADD PUSH1 0x0 KECCAK256 PUSH1 0x1 PUSH1 0x2 DUP2 LT PUSH2 0x108F JUMPI PUSH2 0x108E PUSH2 0x4B8E JUMP JUMPDEST JUMPDEST ADD SLOAD DUP6 DUP6 PUSH2 0x109D SWAP2 SWAP1 PUSH2 0x4A74 JUMP JUMPDEST PUSH2 0x10A7 SWAP2 SWAP1 PUSH2 0x4A74 JUMP JUMPDEST PUSH2 0x3080 JUMP JUMPDEST PUSH1 0x29 PUSH1 0x0 DUP6 PUSH20 0xFFFFFFFFFFFFFFFFFFFFFFFFFFFFFFFFFFFFFFFF AND PUSH20 0xFFFFFFFFFFFFFFFFFFFFFFFFFFFFFFFFFFFFFFFF AND DUP2 MSTORE PUSH1 0x20 ADD SWAP1 DUP2 MSTORE PUSH1 0x20 ADD PUSH1 0x0 KECCAK256 PUSH1 0x0 PUSH1 0x2 DUP2 LT PUSH2 0x10FE JUMPI PUSH2 0x10FD PUSH2 0x4B8E JUMP JUMPDEST JUMPDEST ADD SLOAD PUSH2 0x110A SWAP2 SWAP1 PUSH2 0x4A74 JUMP JUMPDEST PUSH1 0x29 PUSH1 0x0 DUP6 PUSH20 0xFFFFFFFFFFFFFFFFFFFFFFFFFFFFFFFFFFFFFFFF AND PUSH20 0xFFFFFFFFFFFFFFFFFFFFFFFFFFFFFFFFFFFFFFFF AND DUP2 MSTORE PUSH1 0x20 ADD SWAP1 DUP2 MSTORE PUSH1 0x20 ADD PUSH1 0x0 KECCAK256 PUSH1 0x0 PUSH1 0x2 DUP2 LT PUSH2 0x115C JUMPI PUSH2 0x115B PUSH2 0x4B8E JUMP JUMPDEST JUMPDEST ADD DUP2 SWAP1 SSTORE POP PUSH1 0x0 PUSH1 0x29 PUSH1 0x0 DUP6 PUSH20 0xFFFFFFFFFFFFFFFFFFFFFFFFFFFFFFFFFFFFFFFF AND PUSH20 0xFFFFFFFFFFFFFFFFFFFFFFFFFFFFFFFFFFFFFFFF AND DUP2 MSTORE PUSH1 0x20 ADD SWAP1 DUP2 MSTORE PUSH1 0x20 ADD PUSH1 0x0 KECCAK256 PUSH1 0x1 PUSH1 0x2 DUP2 LT PUSH2 0x11B5 JUMPI PUSH2 0x11B4 PUSH2 0x4B8E JUMP JUMPDEST JUMPDEST ADD DUP2 SWAP1 SSTORE POP JUMPDEST JUMPDEST POP POP PUSH2 0x181F JUMP JUMPDEST PUSH1 0x0 PUSH2 0x11D2 DUP4 PUSH1 0x1 PUSH1 0x0 PUSH2 0x34D9 JUMP JUMPDEST SWAP1 POP PUSH1 0x0 PUSH2 0x1296 DUP5 PUSH1 0x28 PUSH1 0x0 DUP7 PUSH20 0xFFFFFFFFFFFFFFFFFFFFFFFFFFFFFFFFFFFFFFFF AND PUSH20 0xFFFFFFFFFFFFFFFFFFFFFFFFFFFFFFFFFFFFFFFF AND DUP2 MSTORE PUSH1 0x20 ADD SWAP1 DUP2 MSTORE PUSH1 0x20 ADD PUSH1 0x0 KECCAK256 PUSH1 0x0 DUP1 ISZERO ISZERO ISZERO ISZERO DUP2 MSTORE PUSH1 0x20 ADD SWAP1 DUP2 MSTORE PUSH1 0x20 ADD PUSH1 0x0 KECCAK256 PUSH1 0x1 ADD SLOAD PUSH1 0xE SLOAD PUSH1 0x10 SLOAD PUSH1 0x28 PUSH1 0x0 DUP10 PUSH20 0xFFFFFFFFFFFFFFFFFFFFFFFFFFFFFFFFFFFFFFFF AND PUSH20 0xFFFFFFFFFFFFFFFFFFFFFFFFFFFFFFFFFFFFFFFF AND DUP2 MSTORE PUSH1 0x20 ADD SWAP1 DUP2 MSTORE PUSH1 0x20 ADD PUSH1 0x0 KECCAK256 PUSH1 0x0 PUSH1 0x1 ISZERO ISZERO ISZERO ISZERO DUP2 MSTORE PUSH1 0x20 ADD SWAP1 DUP2 MSTORE PUSH1 0x20 ADD PUSH1 0x0 KECCAK256 PUSH1 0x2 ADD SLOAD PUSH2 0x347D JUMP JUMPDEST SWAP1 POP DUP4 PUSH1 0x28 PUSH1 0x0 DUP6 PUSH20 0xFFFFFFFFFFFFFFFFFFFFFFFFFFFFFFFFFFFFFFFF AND PUSH20 0xFFFFFFFFFFFFFFFFFFFFFFFFFFFFFFFFFFFFFFFF AND DUP2 MSTORE PUSH1 0x20 ADD SWAP1 DUP2 MSTORE PUSH1 0x20 ADD PUSH1 0x0 KECCAK256 PUSH1 0x0 PUSH1 0x1 ISZERO ISZERO ISZERO ISZERO DUP2 MSTORE PUSH1 0x20 ADD SWAP1 DUP2 MSTORE PUSH1 0x20 ADD PUSH1 0x0 KECCAK256 PUSH1 0x2 ADD PUSH1 0x0 DUP3 DUP3 SLOAD PUSH2 0x1300 SWAP2 SWAP1 PUSH2 0x4A74 JUMP JUMPDEST SWAP3 POP POP DUP2 SWAP1 SSTORE POP DUP1 PUSH1 0xE PUSH1 0x0 DUP3 DUP3 SLOAD PUSH2 0x1319 SWAP2 SWAP1 PUSH2 0x4A74 JUMP JUMPDEST SWAP3 POP POP DUP2 SWAP1 SSTORE POP PUSH2 0x13DA PUSH1 0x28 PUSH1 0x0 DUP6 PUSH20 0xFFFFFFFFFFFFFFFFFFFFFFFFFFFFFFFFFFFFFFFF AND PUSH20 0xFFFFFFFFFFFFFFFFFFFFFFFFFFFFFFFFFFFFFFFF AND DUP2 MSTORE PUSH1 0x20 ADD SWAP1 DUP2 MSTORE PUSH1 0x20 ADD PUSH1 0x0 KECCAK256 PUSH1 0x0 DUP1 ISZERO ISZERO ISZERO ISZERO DUP2 MSTORE PUSH1 0x20 ADD SWAP1 DUP2 MSTORE PUSH1 0x20 ADD PUSH1 0x0 KECCAK256 PUSH1 0x1 ADD SLOAD DUP6 PUSH1 0x28 PUSH1 0x0 DUP8 PUSH20 0xFFFFFFFFFFFFFFFFFFFFFFFFFFFFFFFFFFFFFFFF AND PUSH20 0xFFFFFFFFFFFFFFFFFFFFFFFFFFFFFFFFFFFFFFFF AND DUP2 MSTORE PUSH1 0x20 ADD SWAP1 DUP2 MSTORE PUSH1 0x20 ADD PUSH1 0x0 KECCAK256 PUSH1 0x0 PUSH1 0x1 ISZERO ISZERO ISZERO ISZERO DUP2 MSTORE PUSH1 0x20 ADD SWAP1 DUP2 MSTORE PUSH1 0x20 ADD PUSH1 0x0 KECCAK256 PUSH1 0x2 ADD SLOAD PUSH2 0x34B7 JUMP JUMPDEST PUSH1 0x10 PUSH1 0x0 DUP3 DUP3 SLOAD PUSH2 0x13EB SWAP2 SWAP1 PUSH2 0x4A74 JUMP JUMPDEST SWAP3 POP POP DUP2 SWAP1 SSTORE POP PUSH2 0x14AC PUSH1 0x28 PUSH1 0x0 DUP6 PUSH20 0xFFFFFFFFFFFFFFFFFFFFFFFFFFFFFFFFFFFFFFFF AND PUSH20 0xFFFFFFFFFFFFFFFFFFFFFFFFFFFFFFFFFFFFFFFF AND DUP2 MSTORE PUSH1 0x20 ADD SWAP1 DUP2 MSTORE PUSH1 0x20 ADD PUSH1 0x0 KECCAK256 PUSH1 0x0 DUP1 ISZERO ISZERO ISZERO ISZERO DUP2 MSTORE PUSH1 0x20 ADD SWAP1 DUP2 MSTORE PUSH1 0x20 ADD PUSH1 0x0 KECCAK256 PUSH1 0x1 ADD SLOAD DUP6 PUSH1 0x28 PUSH1 0x0 DUP8 PUSH20 0xFFFFFFFFFFFFFFFFFFFFFFFFFFFFFFFFFFFFFFFF AND PUSH20 0xFFFFFFFFFFFFFFFFFFFFFFFFFFFFFFFFFFFFFFFF AND DUP2 MSTORE PUSH1 0x20 ADD SWAP1 DUP2 MSTORE PUSH1 0x20 ADD PUSH1 0x0 KECCAK256 PUSH1 0x0 PUSH1 0x1 ISZERO ISZERO ISZERO ISZERO DUP2 MSTORE PUSH1 0x20 ADD SWAP1 DUP2 MSTORE PUSH1 0x20 ADD PUSH1 0x0 KECCAK256 PUSH1 0x2 ADD SLOAD PUSH2 0x34B7 JUMP JUMPDEST PUSH1 0x28 PUSH1 0x0 DUP6 PUSH20 0xFFFFFFFFFFFFFFFFFFFFFFFFFFFFFFFFFFFFFFFF AND PUSH20 0xFFFFFFFFFFFFFFFFFFFFFFFFFFFFFFFFFFFFFFFF AND DUP2 MSTORE PUSH1 0x20 ADD SWAP1 DUP2 MSTORE PUSH1 0x20 ADD PUSH1 0x0 KECCAK256 PUSH1 0x0 DUP1 ISZERO ISZERO ISZERO ISZERO DUP2 MSTORE PUSH1 0x20 ADD SWAP1 DUP2 MSTORE PUSH1 0x20 ADD PUSH1 0x0 KECCAK256 PUSH1 0x1 ADD PUSH1 0x0 DUP3 DUP3 SLOAD PUSH2 0x1512 SWAP2 SWAP1 PUSH2 0x4A74 JUMP JUMPDEST SWAP3 POP POP DUP2 SWAP1 SSTORE POP DUP1 DUP3 PUSH1 0x29 PUSH1 0x0 DUP7 PUSH20 0xFFFFFFFFFFFFFFFFFFFFFFFFFFFFFFFFFFFFFFFF AND PUSH20 0xFFFFFFFFFFFFFFFFFFFFFFFFFFFFFFFFFFFFFFFF AND DUP2 MSTORE PUSH1 0x20 ADD SWAP1 DUP2 MSTORE PUSH1 0x20 ADD PUSH1 0x0 KECCAK256 PUSH1 0x0 PUSH1 0x2 DUP2 LT PUSH2 0x156D JUMPI PUSH2 0x156C PUSH2 0x4B8E JUMP JUMPDEST JUMPDEST ADD SLOAD PUSH2 0x1579 SWAP2 SWAP1 PUSH2 0x4822 JUMP JUMPDEST GT ISZERO PUSH2 0x1645 JUMPI DUP1 DUP3 PUSH1 0x29 PUSH1 0x0 DUP7 PUSH20 0xFFFFFFFFFFFFFFFFFFFFFFFFFFFFFFFFFFFFFFFF AND PUSH20 0xFFFFFFFFFFFFFFFFFFFFFFFFFFFFFFFFFFFFFFFF AND DUP2 MSTORE PUSH1 0x20 ADD SWAP1 DUP2 MSTORE PUSH1 0x20 ADD PUSH1 0x0 KECCAK256 PUSH1 0x0 PUSH1 0x2 DUP2 LT PUSH2 0x15D3 JUMPI PUSH2 0x15D2 PUSH2 0x4B8E JUMP JUMPDEST JUMPDEST ADD SLOAD PUSH2 0x15DF SWAP2 SWAP1 PUSH2 0x4822 JUMP JUMPDEST PUSH2 0x15E9 SWAP2 SWAP1 PUSH2 0x4A74 JUMP JUMPDEST PUSH1 0x29 PUSH1 0x0 DUP6 PUSH20 0xFFFFFFFFFFFFFFFFFFFFFFFFFFFFFFFFFFFFFFFF AND PUSH20 0xFFFFFFFFFFFFFFFFFFFFFFFFFFFFFFFFFFFFFFFF AND DUP2 MSTORE PUSH1 0x20 ADD SWAP1 DUP2 MSTORE PUSH1 0x20 ADD PUSH1 0x0 KECCAK256 PUSH1 0x0 PUSH1 0x2 DUP2 LT PUSH2 0x163B JUMPI PUSH2 0x163A PUSH2 0x4B8E JUMP JUMPDEST JUMPDEST ADD DUP2 SWAP1 SSTORE POP PUSH2 0x181C JUMP JUMPDEST PUSH2 0x170D PUSH1 0x29 PUSH1 0x0 DUP6 PUSH20 0xFFFFFFFFFFFFFFFFFFFFFFFFFFFFFFFFFFFFFFFF AND PUSH20 0xFFFFFFFFFFFFFFFFFFFFFFFFFFFFFFFFFFFFFFFF AND DUP2 MSTORE PUSH1 0x20 ADD SWAP1 DUP2 MSTORE PUSH1 0x20 ADD PUSH1 0x0 KECCAK256 PUSH1 0x1 PUSH1 0x2 DUP2 LT PUSH2 0x169A JUMPI PUSH2 0x1699 PUSH2 0x4B8E JUMP JUMPDEST JUMPDEST ADD SLOAD PUSH1 0x0 PUSH1 0x29 PUSH1 0x0 DUP8 PUSH20 0xFFFFFFFFFFFFFFFFFFFFFFFFFFFFFFFFFFFFFFFF AND PUSH20 0xFFFFFFFFFFFFFFFFFFFFFFFFFFFFFFFFFFFFFFFF AND DUP2 MSTORE PUSH1 0x20 ADD SWAP1 DUP2 MSTORE PUSH1 0x20 ADD PUSH1 0x0 KECCAK256 PUSH1 0x0 PUSH1 0x2 DUP2 LT PUSH2 0x16F0 JUMPI PUSH2 0x16EF PUSH2 0x4B8E JUMP JUMPDEST JUMPDEST ADD SLOAD DUP6 DUP6 PUSH2 0x16FE SWAP2 SWAP1 PUSH2 0x4A74 JUMP JUMPDEST PUSH2 0x1708 SWAP2 SWAP1 PUSH2 0x4A74 JUMP JUMPDEST PUSH2 0x34D9 JUMP JUMPDEST PUSH1 0x29 PUSH1 0x0 DUP6 PUSH20 0xFFFFFFFFFFFFFFFFFFFFFFFFFFFFFFFFFFFFFFFF AND PUSH20 0xFFFFFFFFFFFFFFFFFFFFFFFFFFFFFFFFFFFFFFFF AND DUP2 MSTORE PUSH1 0x20 ADD SWAP1 DUP2 MSTORE PUSH1 0x20 ADD PUSH1 0x0 KECCAK256 PUSH1 0x1 PUSH1 0x2 DUP2 LT PUSH2 0x175F JUMPI PUSH2 0x175E PUSH2 0x4B8E JUMP JUMPDEST JUMPDEST ADD SLOAD PUSH2 0x176B SWAP2 SWAP1 PUSH2 0x4A74 JUMP JUMPDEST PUSH1 0x29 PUSH1 0x0 DUP6 PUSH20 0xFFFFFFFFFFFFFFFFFFFFFFFFFFFFFFFFFFFFFFFF AND PUSH20 0xFFFFFFFFFFFFFFFFFFFFFFFFFFFFFFFFFFFFFFFF AND DUP2 MSTORE PUSH1 0x20 ADD SWAP1 DUP2 MSTORE PUSH1 0x20 ADD PUSH1 0x0 KECCAK256 PUSH1 0x1 PUSH1 0x2 DUP2 LT PUSH2 0x17BD JUMPI PUSH2 0x17BC PUSH2 0x4B8E JUMP JUMPDEST JUMPDEST ADD DUP2 SWAP1 SSTORE POP PUSH1 0x0 PUSH1 0x29 PUSH1 0x0 DUP6 PUSH20 0xFFFFFFFFFFFFFFFFFFFFFFFFFFFFFFFFFFFFFFFF AND PUSH20 0xFFFFFFFFFFFFFFFFFFFFFFFFFFFFFFFFFFFFFFFF AND DUP2 MSTORE PUSH1 0x20 ADD SWAP1 DUP2 MSTORE PUSH1 0x20 ADD PUSH1 0x0 KECCAK256 PUSH1 0x0 PUSH1 0x2 DUP2 LT PUSH2 0x1816 JUMPI PUSH2 0x1815 PUSH2 0x4B8E JUMP JUMPDEST JUMPDEST ADD DUP2 SWAP1 SSTORE POP JUMPDEST POP POP JUMPDEST PUSH1 0x1 PUSH1 0x25 DUP2 SWAP1 SSTORE POP POP POP POP JUMP JUMPDEST PUSH1 0x1E PUSH1 0x0 SWAP1 SLOAD SWAP1 PUSH2 0x100 EXP SWAP1 DIV PUSH20 0xFFFFFFFFFFFFFFFFFFFFFFFFFFFFFFFFFFFFFFFF AND DUP2 JUMP JUMPDEST PUSH1 0x1 PUSH1 0x25 SLOAD EQ PUSH2 0x1897 JUMPI PUSH1 0x40 MLOAD PUSH32 0x8C379A000000000000000000000000000000000000000000000000000000000 DUP2 MSTORE PUSH1 0x4 ADD PUSH2 0x188E SWAP1 PUSH2 0x47C0 JUMP JUMPDEST PUSH1 0x40 MLOAD DUP1 SWAP2 SUB SWAP1 REVERT JUMPDEST PUSH1 0x0 PUSH1 0x25 DUP2 SWAP1 SSTORE POP PUSH1 0x18 PUSH1 0x0 SWAP1 SLOAD SWAP1 PUSH2 0x100 EXP SWAP1 DIV PUSH20 0xFFFFFFFFFFFFFFFFFFFFFFFFFFFFFFFFFFFFFFFF AND PUSH20 0xFFFFFFFFFFFFFFFFFFFFFFFFFFFFFFFFFFFFFFFF AND DUP4 PUSH20 0xFFFFFFFFFFFFFFFFFFFFFFFFFFFFFFFFFFFFFFFF AND EQ ISZERO PUSH2 0x19C3 JUMPI DUP1 PUSH1 0x29 PUSH1 0x0 DUP7 PUSH20 0xFFFFFFFFFFFFFFFFFFFFFFFFFFFFFFFFFFFFFFFF AND PUSH20 0xFFFFFFFFFFFFFFFFFFFFFFFFFFFFFFFFFFFFFFFF AND DUP2 MSTORE PUSH1 0x20 ADD SWAP1 DUP2 MSTORE PUSH1 0x20 ADD PUSH1 0x0 KECCAK256 PUSH1 0x0 PUSH1 0x2 DUP2 LT PUSH2 0x1948 JUMPI PUSH2 0x1947 PUSH2 0x4B8E JUMP JUMPDEST JUMPDEST ADD SLOAD GT PUSH2 0x1954 JUMPI PUSH1 0x0 DUP1 REVERT JUMPDEST DUP1 PUSH1 0x29 PUSH1 0x0 DUP7 PUSH20 0xFFFFFFFFFFFFFFFFFFFFFFFFFFFFFFFFFFFFFFFF AND PUSH20 0xFFFFFFFFFFFFFFFFFFFFFFFFFFFFFFFFFFFFFFFF AND DUP2 MSTORE PUSH1 0x20 ADD SWAP1 DUP2 MSTORE PUSH1 0x20 ADD PUSH1 0x0 KECCAK256 PUSH1 0x0 PUSH1 0x2 DUP2 LT PUSH2 0x19A7 JUMPI PUSH2 0x19A6 PUSH2 0x4B8E JUMP JUMPDEST JUMPDEST ADD PUSH1 0x0 DUP3 DUP3 SLOAD PUSH2 0x19B7 SWAP2 SWAP1 PUSH2 0x4A74 JUMP JUMPDEST SWAP3 POP POP DUP2 SWAP1 SSTORE POP PUSH2 0x1A8D JUMP JUMPDEST DUP1 PUSH1 0x29 PUSH1 0x0 DUP7 PUSH20 0xFFFFFFFFFFFFFFFFFFFFFFFFFFFFFFFFFFFFFFFF AND PUSH20 0xFFFFFFFFFFFFFFFFFFFFFFFFFFFFFFFFFFFFFFFF AND DUP2 MSTORE PUSH1 0x20 ADD SWAP1 DUP2 MSTORE PUSH1 0x20 ADD PUSH1 0x0 KECCAK256 PUSH1 0x1 PUSH1 0x2 DUP2 LT PUSH2 0x1A16 JUMPI PUSH2 0x1A15 PUSH2 0x4B8E JUMP JUMPDEST JUMPDEST ADD SLOAD GT PUSH2 0x1A22 JUMPI PUSH1 0x0 DUP1 REVERT JUMPDEST DUP1 PUSH1 0x29 PUSH1 0x0 DUP7 PUSH20 0xFFFFFFFFFFFFFFFFFFFFFFFFFFFFFFFFFFFFFFFF AND PUSH20 0xFFFFFFFFFFFFFFFFFFFFFFFFFFFFFFFFFFFFFFFF AND DUP2 MSTORE PUSH1 0x20 ADD SWAP1 DUP2 MSTORE PUSH1 0x20 ADD PUSH1 0x0 KECCAK256 PUSH1 0x1 PUSH1 0x2 DUP2 LT PUSH2 0x1A75 JUMPI PUSH2 0x1A74 PUSH2 0x4B8E JUMP JUMPDEST JUMPDEST ADD PUSH1 0x0 DUP3 DUP3 SLOAD PUSH2 0x1A85 SWAP2 SWAP1 PUSH2 0x4A74 JUMP JUMPDEST SWAP3 POP POP DUP2 SWAP1 SSTORE POP JUMPDEST PUSH2 0x1A96 DUP5 PUSH2 0x2C67 JUMP JUMPDEST PUSH2 0x1A9F DUP6 PUSH2 0x2D5B JUMP JUMPDEST PUSH2 0x1AA8 DUP7 PUSH2 0x2E33 JUMP JUMPDEST PUSH2 0x1AB2 SWAP2 SWAP1 PUSH2 0x4822 JUMP JUMPDEST GT DUP1 ISZERO PUSH2 0x1B01 JUMPI POP PUSH1 0x1C SLOAD PUSH2 0x1AC6 DUP6 PUSH2 0x2D5B JUMP JUMPDEST PUSH2 0x1AD0 SWAP2 SWAP1 PUSH2 0x4A1A JUMP JUMPDEST PUSH2 0x1AD9 DUP6 PUSH2 0x2C67 JUMP JUMPDEST PUSH2 0x1AE2 DUP7 PUSH2 0x2D5B JUMP JUMPDEST PUSH2 0x1AEB DUP8 PUSH2 0x2E33 JUMP JUMPDEST PUSH2 0x1AF5 SWAP2 SWAP1 PUSH2 0x4822 JUMP JUMPDEST PUSH2 0x1AFF SWAP2 SWAP1 PUSH2 0x4A74 JUMP JUMPDEST GT JUMPDEST PUSH2 0x1B0A JUMPI PUSH1 0x0 DUP1 REVERT JUMPDEST PUSH2 0x1B15 DUP4 DUP4 DUP4 PUSH2 0x38D6 JUMP JUMPDEST PUSH1 0x1 PUSH1 0x25 DUP2 SWAP1 SSTORE POP POP POP POP POP JUMP JUMPDEST PUSH1 0x9 SLOAD DUP2 JUMP JUMPDEST PUSH1 0x1 PUSH1 0x25 SLOAD EQ PUSH2 0x1B6E JUMPI PUSH1 0x40 MLOAD PUSH32 0x8C379A000000000000000000000000000000000000000000000000000000000 DUP2 MSTORE PUSH1 0x4 ADD PUSH2 0x1B65 SWAP1 PUSH2 0x47C0 JUMP JUMPDEST PUSH1 0x40 MLOAD DUP1 SWAP2 SUB SWAP1 REVERT JUMPDEST PUSH1 0x0 PUSH1 0x25 DUP2 SWAP1 SSTORE POP PUSH1 0x0 DUP4 DUP6 PUSH2 0x1B84 SWAP2 SWAP1 PUSH2 0x4A1A JUMP JUMPDEST EQ DUP1 ISZERO PUSH2 0x1B9C JUMPI POP PUSH1 0x0 DUP4 DUP6 PUSH2 0x1B9A SWAP2 SWAP1 PUSH2 0x4822 JUMP JUMPDEST GT JUMPDEST PUSH2 0x1BA5 JUMPI PUSH1 0x0 DUP1 REVERT JUMPDEST PUSH2 0x1BAD PUSH2 0x2F02 JUMP JUMPDEST PUSH2 0x1BF1 PUSH2 0x1BB9 DUP3 PUSH2 0x2D5B JUMP JUMPDEST DUP6 PUSH2 0x1BC4 SWAP2 SWAP1 PUSH2 0x4822 JUMP JUMPDEST PUSH2 0x1BCD DUP4 PUSH2 0x2D5B JUMP JUMPDEST PUSH2 0x1BE2 DUP7 PUSH1 0xD SLOAD PUSH1 0x6 SLOAD PUSH1 0x5 SLOAD PUSH1 0x1D SLOAD PUSH2 0x347D JUMP JUMPDEST PUSH2 0x1BEC SWAP2 SWAP1 PUSH2 0x4822 JUMP JUMPDEST PUSH2 0x3A60 JUMP JUMPDEST PUSH1 0x1A SLOAD PUSH1 0x1D SLOAD PUSH2 0x1C00 DUP5 PUSH2 0x2C67 JUMP JUMPDEST PUSH2 0x1C09 DUP6 PUSH2 0x2D5B JUMP JUMPDEST PUSH2 0x1C12 DUP7 PUSH2 0x2E33 JUMP JUMPDEST PUSH2 0x1C1C SWAP2 SWAP1 PUSH2 0x4822 JUMP JUMPDEST PUSH2 0x1C26 SWAP2 SWAP1 PUSH2 0x4A74 JUMP JUMPDEST PUSH2 0x1C30 SWAP2 SWAP1 PUSH2 0x4A1A JUMP JUMPDEST PUSH2 0x1C3A SWAP2 SWAP1 PUSH2 0x4878 JUMP JUMPDEST GT PUSH2 0x1C44 JUMPI PUSH1 0x0 DUP1 REVERT JUMPDEST PUSH1 0x0 DUP1 PUSH1 0x1 ISZERO ISZERO DUP5 ISZERO ISZERO EQ ISZERO PUSH2 0x20DE JUMPI PUSH1 0x0 DUP7 GT ISZERO PUSH2 0x1C74 JUMPI PUSH2 0x1C6A DUP7 PUSH1 0x1 PUSH1 0x0 PUSH2 0x3080 JUMP JUMPDEST SWAP2 POP DUP6 SWAP1 POP PUSH2 0x1CAE JUMP JUMPDEST DUP5 SWAP2 POP PUSH2 0x1CAB PUSH2 0x1C8B PUSH1 0xD SLOAD PUSH1 0x6 SLOAD PUSH1 0x5 SLOAD PUSH2 0x34B7 JUMP JUMPDEST PUSH1 0x1D SLOAD DUP8 PUSH2 0x1C99 SWAP2 SWAP1 PUSH2 0x4A1A JUMP JUMPDEST PUSH2 0x1CA3 SWAP2 SWAP1 PUSH2 0x4878 JUMP JUMPDEST PUSH1 0x1 DUP8 PUSH2 0x3080 JUMP JUMPDEST SWAP1 POP JUMPDEST PUSH2 0x1CBD DUP2 PUSH1 0x10 SLOAD PUSH1 0xE SLOAD PUSH2 0x34B7 JUMP JUMPDEST PUSH1 0x28 PUSH1 0x0 DUP6 PUSH20 0xFFFFFFFFFFFFFFFFFFFFFFFFFFFFFFFFFFFFFFFF AND PUSH20 0xFFFFFFFFFFFFFFFFFFFFFFFFFFFFFFFFFFFFFFFF AND DUP2 MSTORE PUSH1 0x20 ADD SWAP1 DUP2 MSTORE PUSH1 0x20 ADD PUSH1 0x0 KECCAK256 PUSH1 0x0 DUP1 ISZERO ISZERO ISZERO ISZERO DUP2 MSTORE PUSH1 0x20 ADD SWAP1 DUP2 MSTORE PUSH1 0x20 ADD PUSH1 0x0 KECCAK256 PUSH1 0x1 ADD PUSH1 0x0 DUP3 DUP3 SLOAD PUSH2 0x1D23 SWAP2 SWAP1 PUSH2 0x4822 JUMP JUMPDEST SWAP3 POP POP DUP2 SWAP1 SSTORE POP DUP2 PUSH1 0x28 PUSH1 0x0 DUP6 PUSH20 0xFFFFFFFFFFFFFFFFFFFFFFFFFFFFFFFFFFFFFFFF AND PUSH20 0xFFFFFFFFFFFFFFFFFFFFFFFFFFFFFFFFFFFFFFFF AND DUP2 MSTORE PUSH1 0x20 ADD SWAP1 DUP2 MSTORE PUSH1 0x20 ADD PUSH1 0x0 KECCAK256 PUSH1 0x0 PUSH1 0x1 ISZERO ISZERO ISZERO ISZERO DUP2 MSTORE PUSH1 0x20 ADD SWAP1 DUP2 MSTORE PUSH1 0x20 ADD PUSH1 0x0 KECCAK256 PUSH1 0x2 ADD PUSH1 0x0 DUP3 DUP3 SLOAD PUSH2 0x1D92 SWAP2 SWAP1 PUSH2 0x4822 JUMP JUMPDEST SWAP3 POP POP DUP2 SWAP1 SSTORE POP PUSH1 0x10 SLOAD PUSH2 0x1DAB DUP3 PUSH1 0x10 SLOAD PUSH1 0xE SLOAD PUSH2 0x34B7 JUMP JUMPDEST PUSH2 0x1DB5 SWAP2 SWAP1 PUSH2 0x4822 JUMP JUMPDEST PUSH1 0x10 DUP2 SWAP1 SSTORE POP DUP1 PUSH1 0xE PUSH1 0x0 DUP3 DUP3 SLOAD PUSH2 0x1DCD SWAP2 SWAP1 PUSH2 0x4822 JUMP JUMPDEST SWAP3 POP POP DUP2 SWAP1 SSTORE POP PUSH8 0xDE0B6B3A7640000 PUSH1 0x23 SLOAD DUP3 PUSH2 0x1DEB SWAP2 SWAP1 PUSH2 0x4A1A JUMP JUMPDEST PUSH2 0x1DF5 SWAP2 SWAP1 PUSH2 0x4878 JUMP JUMPDEST PUSH1 0x29 PUSH1 0x0 DUP6 PUSH20 0xFFFFFFFFFFFFFFFFFFFFFFFFFFFFFFFFFFFFFFFF AND PUSH20 0xFFFFFFFFFFFFFFFFFFFFFFFFFFFFFFFFFFFFFFFF AND DUP2 MSTORE PUSH1 0x20 ADD SWAP1 DUP2 MSTORE PUSH1 0x20 ADD PUSH1 0x0 KECCAK256 PUSH1 0x0 PUSH1 0x2 DUP2 LT PUSH2 0x1E47 JUMPI PUSH2 0x1E46 PUSH2 0x4B8E JUMP JUMPDEST JUMPDEST ADD SLOAD GT ISZERO PUSH2 0x1F17 JUMPI PUSH8 0xDE0B6B3A7640000 PUSH1 0x23 SLOAD DUP3 PUSH2 0x1E66 SWAP2 SWAP1 PUSH2 0x4A1A JUMP JUMPDEST PUSH2 0x1E70 SWAP2 SWAP1 PUSH2 0x4878 JUMP JUMPDEST PUSH1 0x29 PUSH1 0x0 DUP6 PUSH20 0xFFFFFFFFFFFFFFFFFFFFFFFFFFFFFFFFFFFFFFFF AND PUSH20 0xFFFFFFFFFFFFFFFFFFFFFFFFFFFFFFFFFFFFFFFF AND DUP2 MSTORE PUSH1 0x20 ADD SWAP1 DUP2 MSTORE PUSH1 0x20 ADD PUSH1 0x0 KECCAK256 PUSH1 0x0 PUSH1 0x2 DUP2 LT PUSH2 0x1EC2 JUMPI PUSH2 0x1EC1 PUSH2 0x4B8E JUMP JUMPDEST JUMPDEST ADD PUSH1 0x0 DUP3 DUP3 SLOAD PUSH2 0x1ED2 SWAP2 SWAP1 PUSH2 0x4A74 JUMP JUMPDEST SWAP3 POP POP DUP2 SWAP1 SSTORE POP PUSH8 0xDE0B6B3A7640000 PUSH1 0x23 SLOAD DUP3 PUSH2 0x1EF0 SWAP2 SWAP1 PUSH2 0x4A1A JUMP JUMPDEST PUSH2 0x1EFA SWAP2 SWAP1 PUSH2 0x4878 JUMP JUMPDEST PUSH1 0xB PUSH1 0x0 DUP3 DUP3 SLOAD PUSH2 0x1F0B SWAP2 SWAP1 PUSH2 0x4822 JUMP JUMPDEST SWAP3 POP POP DUP2 SWAP1 SSTORE POP PUSH2 0x20D9 JUMP JUMPDEST PUSH1 0x0 PUSH1 0x29 PUSH1 0x0 DUP6 PUSH20 0xFFFFFFFFFFFFFFFFFFFFFFFFFFFFFFFFFFFFFFFF AND PUSH20 0xFFFFFFFFFFFFFFFFFFFFFFFFFFFFFFFFFFFFFFFF AND DUP2 MSTORE PUSH1 0x20 ADD SWAP1 DUP2 MSTORE PUSH1 0x20 ADD PUSH1 0x0 KECCAK256 PUSH1 0x0 PUSH1 0x2 DUP2 LT PUSH2 0x1F6B JUMPI PUSH2 0x1F6A PUSH2 0x4B8E JUMP JUMPDEST JUMPDEST ADD SLOAD PUSH8 0xDE0B6B3A7640000 PUSH1 0x23 SLOAD DUP5 PUSH2 0x1F84 SWAP2 SWAP1 PUSH2 0x4A1A JUMP JUMPDEST PUSH2 0x1F8E SWAP2 SWAP1 PUSH2 0x4878 JUMP JUMPDEST PUSH2 0x1F98 SWAP2 SWAP1 PUSH2 0x4A74 JUMP JUMPDEST SWAP1 POP PUSH1 0x0 PUSH1 0x29 PUSH1 0x0 DUP7 PUSH20 0xFFFFFFFFFFFFFFFFFFFFFFFFFFFFFFFFFFFFFFFF AND PUSH20 0xFFFFFFFFFFFFFFFFFFFFFFFFFFFFFFFFFFFFFFFF AND DUP2 MSTORE PUSH1 0x20 ADD SWAP1 DUP2 MSTORE PUSH1 0x20 ADD PUSH1 0x0 KECCAK256 PUSH1 0x0 PUSH1 0x2 DUP2 LT PUSH2 0x1FEE JUMPI PUSH2 0x1FED PUSH2 0x4B8E JUMP JUMPDEST JUMPDEST ADD DUP2 SWAP1 SSTORE POP PUSH2 0x2052 PUSH1 0x29 PUSH1 0x0 DUP7 PUSH20 0xFFFFFFFFFFFFFFFFFFFFFFFFFFFFFFFFFFFFFFFF AND PUSH20 0xFFFFFFFFFFFFFFFFFFFFFFFFFFFFFFFFFFFFFFFF AND DUP2 MSTORE PUSH1 0x20 ADD SWAP1 DUP2 MSTORE PUSH1 0x20 ADD PUSH1 0x0 KECCAK256 PUSH1 0x1 PUSH1 0x2 DUP2 LT PUSH2 0x2048 JUMPI PUSH2 0x2047 PUSH2 0x4B8E JUMP JUMPDEST JUMPDEST ADD SLOAD PUSH1 0x0 DUP4 PUSH2 0x34D9 JUMP JUMPDEST SWAP1 POP DUP1 PUSH1 0x29 PUSH1 0x0 DUP7 PUSH20 0xFFFFFFFFFFFFFFFFFFFFFFFFFFFFFFFFFFFFFFFF AND PUSH20 0xFFFFFFFFFFFFFFFFFFFFFFFFFFFFFFFFFFFFFFFF AND DUP2 MSTORE PUSH1 0x20 ADD SWAP1 DUP2 MSTORE PUSH1 0x20 ADD PUSH1 0x0 KECCAK256 PUSH1 0x1 PUSH1 0x2 DUP2 LT PUSH2 0x20A7 JUMPI PUSH2 0x20A6 PUSH2 0x4B8E JUMP JUMPDEST JUMPDEST ADD PUSH1 0x0 DUP3 DUP3 SLOAD PUSH2 0x20B7 SWAP2 SWAP1 PUSH2 0x4A74 JUMP JUMPDEST SWAP3 POP POP DUP2 SWAP1 SSTORE POP DUP1 PUSH1 0xC PUSH1 0x0 DUP3 DUP3 SLOAD PUSH2 0x20D0 SWAP2 SWAP1 PUSH2 0x4822 JUMP JUMPDEST SWAP3 POP POP DUP2 SWAP1 SSTORE POP POP JUMPDEST PUSH2 0x2564 JUMP JUMPDEST PUSH1 0x0 DUP7 GT ISZERO PUSH2 0x2125 JUMPI DUP6 SWAP2 POP PUSH2 0x211E PUSH1 0x1D SLOAD PUSH2 0x2101 PUSH1 0xD SLOAD PUSH1 0x6 SLOAD PUSH1 0x5 SLOAD PUSH2 0x34B7 JUMP JUMPDEST DUP9 PUSH2 0x210C SWAP2 SWAP1 PUSH2 0x4A1A JUMP JUMPDEST PUSH2 0x2116 SWAP2 SWAP1 PUSH2 0x4878 JUMP JUMPDEST PUSH1 0x1 DUP9 PUSH2 0x34D9 JUMP JUMPDEST SWAP1 POP PUSH2 0x2138 JUMP JUMPDEST PUSH2 0x2132 DUP6 PUSH1 0x1 PUSH1 0x0 PUSH2 0x34D9 JUMP JUMPDEST SWAP2 POP DUP5 SWAP1 POP JUMPDEST PUSH2 0x2147 DUP2 PUSH1 0x11 SLOAD PUSH1 0xF SLOAD PUSH2 0x34B7 JUMP JUMPDEST PUSH1 0x28 PUSH1 0x0 DUP6 PUSH20 0xFFFFFFFFFFFFFFFFFFFFFFFFFFFFFFFFFFFFFFFF AND PUSH20 0xFFFFFFFFFFFFFFFFFFFFFFFFFFFFFFFFFFFFFFFF AND DUP2 MSTORE PUSH1 0x20 ADD SWAP1 DUP2 MSTORE PUSH1 0x20 ADD PUSH1 0x0 KECCAK256 PUSH1 0x0 PUSH1 0x1 ISZERO ISZERO ISZERO ISZERO DUP2 MSTORE PUSH1 0x20 ADD SWAP1 DUP2 MSTORE PUSH1 0x20 ADD PUSH1 0x0 KECCAK256 PUSH1 0x1 ADD PUSH1 0x0 DUP3 DUP3 SLOAD PUSH2 0x21AE SWAP2 SWAP1 PUSH2 0x4822 JUMP JUMPDEST SWAP3 POP POP DUP2 SWAP1 SSTORE POP DUP2 PUSH1 0x28 PUSH1 0x0 DUP6 PUSH20 0xFFFFFFFFFFFFFFFFFFFFFFFFFFFFFFFFFFFFFFFF AND PUSH20 0xFFFFFFFFFFFFFFFFFFFFFFFFFFFFFFFFFFFFFFFF AND DUP2 MSTORE PUSH1 0x20 ADD SWAP1 DUP2 MSTORE PUSH1 0x20 ADD PUSH1 0x0 KECCAK256 PUSH1 0x0 DUP1 ISZERO ISZERO ISZERO ISZERO DUP2 MSTORE PUSH1 0x20 ADD SWAP1 DUP2 MSTORE PUSH1 0x20 ADD PUSH1 0x0 KECCAK256 PUSH1 0x2 ADD PUSH1 0x0 DUP3 DUP3 SLOAD PUSH2 0x221C SWAP2 SWAP1 PUSH2 0x4822 JUMP JUMPDEST SWAP3 POP POP DUP2 SWAP1 SSTORE POP PUSH1 0x11 SLOAD PUSH2 0x2235 DUP3 PUSH1 0x11 SLOAD PUSH1 0xF SLOAD PUSH2 0x34B7 JUMP JUMPDEST PUSH2 0x223F SWAP2 SWAP1 PUSH2 0x4822 JUMP JUMPDEST PUSH1 0x11 DUP2 SWAP1 SSTORE POP DUP1 PUSH1 0xF PUSH1 0x0 DUP3 DUP3 SLOAD PUSH2 0x2257 SWAP2 SWAP1 PUSH2 0x4822 JUMP JUMPDEST SWAP3 POP POP DUP2 SWAP1 SSTORE POP PUSH8 0xDE0B6B3A7640000 PUSH1 0x23 SLOAD DUP3 PUSH2 0x2275 SWAP2 SWAP1 PUSH2 0x4A1A JUMP JUMPDEST PUSH2 0x227F SWAP2 SWAP1 PUSH2 0x4878 JUMP JUMPDEST PUSH1 0x29 PUSH1 0x0 DUP6 PUSH20 0xFFFFFFFFFFFFFFFFFFFFFFFFFFFFFFFFFFFFFFFF AND PUSH20 0xFFFFFFFFFFFFFFFFFFFFFFFFFFFFFFFFFFFFFFFF AND DUP2 MSTORE PUSH1 0x20 ADD SWAP1 DUP2 MSTORE PUSH1 0x20 ADD PUSH1 0x0 KECCAK256 PUSH1 0x1 PUSH1 0x2 DUP2 LT PUSH2 0x22D1 JUMPI PUSH2 0x22D0 PUSH2 0x4B8E JUMP JUMPDEST JUMPDEST ADD SLOAD GT ISZERO PUSH2 0x23A1 JUMPI PUSH8 0xDE0B6B3A7640000 PUSH1 0x23 SLOAD DUP3 PUSH2 0x22F0 SWAP2 SWAP1 PUSH2 0x4A1A JUMP JUMPDEST PUSH2 0x22FA SWAP2 SWAP1 PUSH2 0x4878 JUMP JUMPDEST PUSH1 0x29 PUSH1 0x0 DUP6 PUSH20 0xFFFFFFFFFFFFFFFFFFFFFFFFFFFFFFFFFFFFFFFF AND PUSH20 0xFFFFFFFFFFFFFFFFFFFFFFFFFFFFFFFFFFFFFFFF AND DUP2 MSTORE PUSH1 0x20 ADD SWAP1 DUP2 MSTORE PUSH1 0x20 ADD PUSH1 0x0 KECCAK256 PUSH1 0x1 PUSH1 0x2 DUP2 LT PUSH2 0x234C JUMPI PUSH2 0x234B PUSH2 0x4B8E JUMP JUMPDEST JUMPDEST ADD PUSH1 0x0 DUP3 DUP3 SLOAD PUSH2 0x235C SWAP2 SWAP1 PUSH2 0x4A74 JUMP JUMPDEST SWAP3 POP POP DUP2 SWAP1 SSTORE POP PUSH8 0xDE0B6B3A7640000 PUSH1 0x23 SLOAD DUP3 PUSH2 0x237A SWAP2 SWAP1 PUSH2 0x4A1A JUMP JUMPDEST PUSH2 0x2384 SWAP2 SWAP1 PUSH2 0x4878 JUMP JUMPDEST PUSH1 0xC PUSH1 0x0 DUP3 DUP3 SLOAD PUSH2 0x2395 SWAP2 SWAP1 PUSH2 0x4822 JUMP JUMPDEST SWAP3 POP POP DUP2 SWAP1 SSTORE POP PUSH2 0x2563 JUMP JUMPDEST PUSH1 0x0 PUSH1 0x29 PUSH1 0x0 DUP6 PUSH20 0xFFFFFFFFFFFFFFFFFFFFFFFFFFFFFFFFFFFFFFFF AND PUSH20 0xFFFFFFFFFFFFFFFFFFFFFFFFFFFFFFFFFFFFFFFF AND DUP2 MSTORE PUSH1 0x20 ADD SWAP1 DUP2 MSTORE PUSH1 0x20 ADD PUSH1 0x0 KECCAK256 PUSH1 0x1 PUSH1 0x2 DUP2 LT PUSH2 0x23F5 JUMPI PUSH2 0x23F4 PUSH2 0x4B8E JUMP JUMPDEST JUMPDEST ADD SLOAD PUSH8 0xDE0B6B3A7640000 PUSH1 0x23 SLOAD DUP5 PUSH2 0x240E SWAP2 SWAP1 PUSH2 0x4A1A JUMP JUMPDEST PUSH2 0x2418 SWAP2 SWAP1 PUSH2 0x4878 JUMP JUMPDEST PUSH2 0x2422 SWAP2 SWAP1 PUSH2 0x4A74 JUMP JUMPDEST SWAP1 POP PUSH1 0x0 PUSH1 0x29 PUSH1 0x0 DUP7 PUSH20 0xFFFFFFFFFFFFFFFFFFFFFFFFFFFFFFFFFFFFFFFF AND PUSH20 0xFFFFFFFFFFFFFFFFFFFFFFFFFFFFFFFFFFFFFFFF AND DUP2 MSTORE PUSH1 0x20 ADD SWAP1 DUP2 MSTORE PUSH1 0x20 ADD PUSH1 0x0 KECCAK256 PUSH1 0x1 PUSH1 0x2 DUP2 LT PUSH2 0x2478 JUMPI PUSH2 0x2477 PUSH2 0x4B8E JUMP JUMPDEST JUMPDEST ADD DUP2 SWAP1 SSTORE POP PUSH2 0x24DC PUSH1 0x29 PUSH1 0x0 DUP7 PUSH20 0xFFFFFFFFFFFFFFFFFFFFFFFFFFFFFFFFFFFFFFFF AND PUSH20 0xFFFFFFFFFFFFFFFFFFFFFFFFFFFFFFFFFFFFFFFF AND DUP2 MSTORE PUSH1 0x20 ADD SWAP1 DUP2 MSTORE PUSH1 0x20 ADD PUSH1 0x0 KECCAK256 PUSH1 0x0 PUSH1 0x2 DUP2 LT PUSH2 0x24D2 JUMPI PUSH2 0x24D1 PUSH2 0x4B8E JUMP JUMPDEST JUMPDEST ADD SLOAD PUSH1 0x0 DUP4 PUSH2 0x3080 JUMP JUMPDEST SWAP1 POP DUP1 PUSH1 0x29 PUSH1 0x0 DUP7 PUSH20 0xFFFFFFFFFFFFFFFFFFFFFFFFFFFFFFFFFFFFFFFF AND PUSH20 0xFFFFFFFFFFFFFFFFFFFFFFFFFFFFFFFFFFFFFFFF AND DUP2 MSTORE PUSH1 0x20 ADD SWAP1 DUP2 MSTORE PUSH1 0x20 ADD PUSH1 0x0 KECCAK256 PUSH1 0x0 PUSH1 0x2 DUP2 LT PUSH2 0x2531 JUMPI PUSH2 0x2530 PUSH2 0x4B8E JUMP JUMPDEST JUMPDEST ADD PUSH1 0x0 DUP3 DUP3 SLOAD PUSH2 0x2541 SWAP2 SWAP1 PUSH2 0x4A74 JUMP JUMPDEST SWAP3 POP POP DUP2 SWAP1 SSTORE POP DUP1 PUSH1 0xB PUSH1 0x0 DUP3 DUP3 SLOAD PUSH2 0x255A SWAP2 SWAP1 PUSH2 0x4822 JUMP JUMPDEST SWAP3 POP POP DUP2 SWAP1 SSTORE POP POP JUMPDEST JUMPDEST POP POP PUSH1 0x1 PUSH1 0x25 DUP2 SWAP1 SSTORE POP POP POP POP POP JUMP JUMPDEST PUSH1 0x7 SLOAD DUP2 JUMP JUMPDEST PUSH1 0x1F SLOAD DUP2 JUMP JUMPDEST PUSH1 0xE SLOAD DUP2 JUMP JUMPDEST PUSH1 0x1D SLOAD DUP2 JUMP JUMPDEST PUSH1 0x10 SLOAD DUP2 JUMP JUMPDEST PUSH1 0x1 PUSH1 0x25 SLOAD EQ PUSH2 0x25D7 JUMPI PUSH1 0x40 MLOAD PUSH32 0x8C379A000000000000000000000000000000000000000000000000000000000 DUP2 MSTORE PUSH1 0x4 ADD PUSH2 0x25CE SWAP1 PUSH2 0x47C0 JUMP JUMPDEST PUSH1 0x40 MLOAD DUP1 SWAP2 SUB SWAP1 REVERT JUMPDEST PUSH1 0x0 PUSH1 0x25 DUP2 SWAP1 SSTORE POP PUSH2 0x25E8 DUP3 PUSH2 0x2C67 JUMP JUMPDEST PUSH2 0x25F1 DUP4 PUSH2 0x2D5B JUMP JUMPDEST PUSH2 0x25FA DUP5 PUSH2 0x2E33 JUMP JUMPDEST PUSH2 0x2604 SWAP2 SWAP1 PUSH2 0x4822 JUMP JUMPDEST GT ISZERO DUP1 PUSH2 0x2654 JUMPI POP PUSH1 0x1C SLOAD PUSH2 0x2618 DUP4 PUSH2 0x2D5B JUMP JUMPDEST PUSH2 0x2622 SWAP2 SWAP1 PUSH2 0x4A1A JUMP JUMPDEST PUSH2 0x262B DUP4 PUSH2 0x2C67 JUMP JUMPDEST PUSH2 0x2634 DUP5 PUSH2 0x2D5B JUMP JUMPDEST PUSH2 0x263D DUP6 PUSH2 0x2E33 JUMP JUMPDEST PUSH2 0x2647 SWAP2 SWAP1 PUSH2 0x4822 JUMP JUMPDEST PUSH2 0x2651 SWAP2 SWAP1 PUSH2 0x4A74 JUMP JUMPDEST GT ISZERO JUMPDEST PUSH2 0x265D JUMPI PUSH1 0x0 DUP1 REVERT JUMPDEST PUSH2 0x26EA PUSH1 0x18 PUSH1 0x0 SWAP1 SLOAD SWAP1 PUSH2 0x100 EXP SWAP1 DIV PUSH20 0xFFFFFFFFFFFFFFFFFFFFFFFFFFFFFFFFFFFFFFFF AND DUP3 PUSH1 0x1F SLOAD PUSH1 0x29 PUSH1 0x0 DUP8 PUSH20 0xFFFFFFFFFFFFFFFFFFFFFFFFFFFFFFFFFFFFFFFF AND PUSH20 0xFFFFFFFFFFFFFFFFFFFFFFFFFFFFFFFFFFFFFFFF AND DUP2 MSTORE PUSH1 0x20 ADD SWAP1 DUP2 MSTORE PUSH1 0x20 ADD PUSH1 0x0 KECCAK256 PUSH1 0x0 PUSH1 0x2 DUP2 LT PUSH2 0x26D9 JUMPI PUSH2 0x26D8 PUSH2 0x4B8E JUMP JUMPDEST JUMPDEST ADD SLOAD PUSH2 0x26E5 SWAP2 SWAP1 PUSH2 0x4A1A JUMP JUMPDEST PUSH2 0x38D6 JUMP JUMPDEST PUSH2 0x2777 PUSH1 0x19 PUSH1 0x0 SWAP1 SLOAD SWAP1 PUSH2 0x100 EXP SWAP1 DIV PUSH20 0xFFFFFFFFFFFFFFFFFFFFFFFFFFFFFFFFFFFFFFFF AND DUP3 PUSH1 0x1F SLOAD PUSH1 0x29 PUSH1 0x0 DUP8 PUSH20 0xFFFFFFFFFFFFFFFFFFFFFFFFFFFFFFFFFFFFFFFF AND PUSH20 0xFFFFFFFFFFFFFFFFFFFFFFFFFFFFFFFFFFFFFFFF AND DUP2 MSTORE PUSH1 0x20 ADD SWAP1 DUP2 MSTORE PUSH1 0x20 ADD PUSH1 0x0 KECCAK256 PUSH1 0x1 PUSH1 0x2 DUP2 LT PUSH2 0x2766 JUMPI PUSH2 0x2765 PUSH2 0x4B8E JUMP JUMPDEST JUMPDEST ADD SLOAD PUSH2 0x2772 SWAP2 SWAP1 PUSH2 0x4A1A JUMP JUMPDEST PUSH2 0x38D6 JUMP JUMPDEST PUSH1 0x29 PUSH1 0x0 DUP4 PUSH20 0xFFFFFFFFFFFFFFFFFFFFFFFFFFFFFFFFFFFFFFFF AND PUSH20 0xFFFFFFFFFFFFFFFFFFFFFFFFFFFFFFFFFFFFFFFF AND DUP2 MSTORE PUSH1 0x20 ADD SWAP1 DUP2 MSTORE PUSH1 0x20 ADD PUSH1 0x0 KECCAK256 PUSH1 0x0 PUSH2 0x27C2 SWAP2 SWAP1 PUSH2 0x4351 JUMP JUMPDEST PUSH1 0x0 PUSH1 0x28 PUSH1 0x0 DUP5 PUSH20 0xFFFFFFFFFFFFFFFFFFFFFFFFFFFFFFFFFFFFFFFF AND PUSH20 0xFFFFFFFFFFFFFFFFFFFFFFFFFFFFFFFFFFFFFFFF AND DUP2 MSTORE PUSH1 0x20 ADD SWAP1 DUP2 MSTORE PUSH1 0x20 ADD PUSH1 0x0 KECCAK256 PUSH1 0x0 DUP1 ISZERO ISZERO ISZERO ISZERO DUP2 MSTORE PUSH1 0x20 ADD SWAP1 DUP2 MSTORE PUSH1 0x20 ADD PUSH1 0x0 KECCAK256 PUSH1 0x1 ADD DUP2 SWAP1 SSTORE POP PUSH1 0x0 PUSH1 0x28 PUSH1 0x0 DUP5 PUSH20 0xFFFFFFFFFFFFFFFFFFFFFFFFFFFFFFFFFFFFFFFF AND PUSH20 0xFFFFFFFFFFFFFFFFFFFFFFFFFFFFFFFFFFFFFFFF AND DUP2 MSTORE PUSH1 0x20 ADD SWAP1 DUP2 MSTORE PUSH1 0x20 ADD PUSH1 0x0 KECCAK256 PUSH1 0x0 PUSH1 0x1 ISZERO ISZERO ISZERO ISZERO DUP2 MSTORE PUSH1 0x20 ADD SWAP1 DUP2 MSTORE PUSH1 0x20 ADD PUSH1 0x0 KECCAK256 PUSH1 0x1 ADD DUP2 SWAP1 SSTORE POP PUSH2 0x2937 PUSH1 0x28 PUSH1 0x0 DUP5 PUSH20 0xFFFFFFFFFFFFFFFFFFFFFFFFFFFFFFFFFFFFFFFF AND PUSH20 0xFFFFFFFFFFFFFFFFFFFFFFFFFFFFFFFFFFFFFFFF AND DUP2 MSTORE PUSH1 0x20 ADD SWAP1 DUP2 MSTORE PUSH1 0x20 ADD PUSH1 0x0 KECCAK256 PUSH1 0x0 DUP1 ISZERO ISZERO ISZERO ISZERO DUP2 MSTORE PUSH1 0x20 ADD SWAP1 DUP2 MSTORE PUSH1 0x20 ADD PUSH1 0x0 KECCAK256 PUSH1 0x2 ADD SLOAD PUSH1 0x28 PUSH1 0x0 DUP6 PUSH20 0xFFFFFFFFFFFFFFFFFFFFFFFFFFFFFFFFFFFFFFFF AND PUSH20 0xFFFFFFFFFFFFFFFFFFFFFFFFFFFFFFFFFFFFFFFF AND DUP2 MSTORE PUSH1 0x20 ADD SWAP1 DUP2 MSTORE PUSH1 0x20 ADD PUSH1 0x0 KECCAK256 PUSH1 0x0 PUSH1 0x1 ISZERO ISZERO ISZERO ISZERO DUP2 MSTORE PUSH1 0x20 ADD SWAP1 DUP2 MSTORE PUSH1 0x20 ADD PUSH1 0x0 KECCAK256 PUSH1 0x2 ADD SLOAD DUP5 PUSH2 0x915 JUMP JUMPDEST PUSH1 0x1 PUSH1 0x25 DUP2 SWAP1 SSTORE POP POP POP JUMP JUMPDEST PUSH1 0x4 SLOAD DUP2 JUMP JUMPDEST PUSH1 0x3 SLOAD DUP2 JUMP JUMPDEST PUSH1 0xF SLOAD DUP2 JUMP JUMPDEST PUSH1 0x6 SLOAD DUP2 JUMP JUMPDEST PUSH1 0x1C SLOAD DUP2 JUMP JUMPDEST PUSH1 0x15 PUSH1 0x0 SWAP1 SLOAD SWAP1 PUSH2 0x100 EXP SWAP1 DIV PUSH1 0xFF AND DUP2 JUMP JUMPDEST PUSH1 0x1 PUSH1 0x25 SLOAD EQ PUSH2 0x29B9 JUMPI PUSH1 0x40 MLOAD PUSH32 0x8C379A000000000000000000000000000000000000000000000000000000000 DUP2 MSTORE PUSH1 0x4 ADD PUSH2 0x29B0 SWAP1 PUSH2 0x47C0 JUMP JUMPDEST PUSH1 0x40 MLOAD DUP1 SWAP2 SUB SWAP1 REVERT JUMPDEST PUSH1 0x0 PUSH1 0x25 DUP2 SWAP1 SSTORE POP PUSH1 0x19 PUSH1 0x0 SWAP1 SLOAD SWAP1 PUSH2 0x100 EXP SWAP1 DIV PUSH20 0xFFFFFFFFFFFFFFFFFFFFFFFFFFFFFFFFFFFFFFFF AND PUSH20 0xFFFFFFFFFFFFFFFFFFFFFFFFFFFFFFFFFFFFFFFF AND DUP3 PUSH20 0xFFFFFFFFFFFFFFFFFFFFFFFFFFFFFFFFFFFFFFFF AND EQ DUP1 ISZERO PUSH2 0x2A31 JUMPI POP PUSH1 0x1 ISZERO ISZERO PUSH1 0x24 PUSH1 0x0 SWAP1 SLOAD SWAP1 PUSH2 0x100 EXP SWAP1 DIV PUSH1 0xFF AND ISZERO ISZERO EQ JUMPDEST ISZERO PUSH2 0x2B03 JUMPI PUSH1 0x26 PUSH1 0x1 PUSH1 0x2 DUP2 LT PUSH2 0x2A4B JUMPI PUSH2 0x2A4A PUSH2 0x4B8E JUMP JUMPDEST JUMPDEST ADD SLOAD PUSH1 0xC SLOAD DUP5 PUSH2 0x2A5B SWAP2 SWAP1 PUSH2 0x4A74 JUMP JUMPDEST PUSH2 0x2A65 SWAP2 SWAP1 PUSH2 0x4A74 JUMP JUMPDEST SWAP3 POP DUP3 PUSH1 0x29 PUSH1 0x0 DUP4 PUSH20 0xFFFFFFFFFFFFFFFFFFFFFFFFFFFFFFFFFFFFFFFF AND PUSH20 0xFFFFFFFFFFFFFFFFFFFFFFFFFFFFFFFFFFFFFFFF AND DUP2 MSTORE PUSH1 0x20 ADD SWAP1 DUP2 MSTORE PUSH1 0x20 ADD PUSH1 0x0 KECCAK256 PUSH1 0x1 PUSH1 0x2 DUP2 LT PUSH2 0x2ABA JUMPI PUSH2 0x2AB9 PUSH2 0x4B8E JUMP JUMPDEST JUMPDEST ADD PUSH1 0x0 DUP3 DUP3 SLOAD PUSH2 0x2ACA SWAP2 SWAP1 PUSH2 0x4822 JUMP JUMPDEST SWAP3 POP POP DUP2 SWAP1 SSTORE POP DUP3 PUSH1 0x26 PUSH1 0x1 PUSH1 0x2 DUP2 LT PUSH2 0x2AE7 JUMPI PUSH2 0x2AE6 PUSH2 0x4B8E JUMP JUMPDEST JUMPDEST ADD PUSH1 0x0 DUP3 DUP3 SLOAD PUSH2 0x2AF7 SWAP2 SWAP1 PUSH2 0x4822 JUMP JUMPDEST SWAP3 POP POP DUP2 SWAP1 SSTORE POP PUSH2 0x2BCC JUMP JUMPDEST PUSH1 0x26 PUSH1 0x0 PUSH1 0x2 DUP2 LT PUSH2 0x2B18 JUMPI PUSH2 0x2B17 PUSH2 0x4B8E JUMP JUMPDEST JUMPDEST ADD SLOAD PUSH1 0xB SLOAD DUP5 PUSH2 0x2B28 SWAP2 SWAP1 PUSH2 0x4A74 JUMP JUMPDEST PUSH2 0x2B32 SWAP2 SWAP1 PUSH2 0x4A74 JUMP JUMPDEST SWAP3 POP DUP3 PUSH1 0x29 PUSH1 0x0 DUP4 PUSH20 0xFFFFFFFFFFFFFFFFFFFFFFFFFFFFFFFFFFFFFFFF AND PUSH20 0xFFFFFFFFFFFFFFFFFFFFFFFFFFFFFFFFFFFFFFFF AND DUP2 MSTORE PUSH1 0x20 ADD SWAP1 DUP2 MSTORE PUSH1 0x20 ADD PUSH1 0x0 KECCAK256 PUSH1 0x0 PUSH1 0x2 DUP2 LT PUSH2 0x2B87 JUMPI PUSH2 0x2B86 PUSH2 0x4B8E JUMP JUMPDEST JUMPDEST ADD PUSH1 0x0 DUP3 DUP3 SLOAD PUSH2 0x2B97 SWAP2 SWAP1 PUSH2 0x4822 JUMP JUMPDEST SWAP3 POP POP DUP2 SWAP1 SSTORE POP DUP3 PUSH1 0x26 PUSH1 0x0 PUSH1 0x2 DUP2 LT PUSH2 0x2BB4 JUMPI PUSH2 0x2BB3 PUSH2 0x4B8E JUMP JUMPDEST JUMPDEST ADD PUSH1 0x0 DUP3 DUP3 SLOAD PUSH2 0x2BC4 SWAP2 SWAP1 PUSH2 0x4822 JUMP JUMPDEST SWAP3 POP POP DUP2 SWAP1 SSTORE POP JUMPDEST PUSH1 0x1 PUSH1 0x25 DUP2 SWAP1 SSTORE POP POP POP POP JUMP JUMPDEST PUSH1 0x19 PUSH1 0x0 SWAP1 SLOAD SWAP1 PUSH2 0x100 EXP SWAP1 DIV PUSH20 0xFFFFFFFFFFFFFFFFFFFFFFFFFFFFFFFFFFFFFFFF AND DUP2 JUMP JUMPDEST PUSH1 0xB SLOAD DUP2 JUMP JUMPDEST PUSH1 0x5 SLOAD DUP2 JUMP JUMPDEST PUSH1 0x17 PUSH1 0x0 SWAP1 SLOAD SWAP1 PUSH2 0x100 EXP SWAP1 DIV PUSH20 0xFFFFFFFFFFFFFFFFFFFFFFFFFFFFFFFFFFFFFFFF AND DUP2 JUMP JUMPDEST PUSH1 0x16 SLOAD DUP2 JUMP JUMPDEST PUSH1 0x8 SLOAD DUP2 JUMP JUMPDEST PUSH1 0x12 SLOAD DUP2 JUMP JUMPDEST PUSH1 0xA SLOAD DUP2 JUMP JUMPDEST PUSH1 0x21 SLOAD DUP2 JUMP JUMPDEST PUSH1 0x1A SLOAD DUP2 JUMP JUMPDEST PUSH1 0x2 SLOAD DUP2 JUMP JUMPDEST PUSH1 0x20 SLOAD DUP2 JUMP JUMPDEST PUSH1 0x13 SLOAD DUP2 JUMP JUMPDEST PUSH1 0x0 PUSH2 0x2CE3 PUSH2 0x2CD8 PUSH1 0x28 PUSH1 0x0 DUP6 PUSH20 0xFFFFFFFFFFFFFFFFFFFFFFFFFFFFFFFFFFFFFFFF AND PUSH20 0xFFFFFFFFFFFFFFFFFFFFFFFFFFFFFFFFFFFFFFFF AND DUP2 MSTORE PUSH1 0x20 ADD SWAP1 DUP2 MSTORE PUSH1 0x20 ADD PUSH1 0x0 KECCAK256 PUSH1 0x0 DUP1 ISZERO ISZERO ISZERO ISZERO DUP2 MSTORE PUSH1 0x20 ADD SWAP1 DUP2 MSTORE PUSH1 0x20 ADD PUSH1 0x0 KECCAK256 PUSH1 0x1 ADD SLOAD PUSH1 0xE SLOAD PUSH1 0xD SLOAD PUSH1 0x10 SLOAD PUSH1 0x1D SLOAD PUSH2 0x347D JUMP JUMPDEST PUSH1 0x6 SLOAD PUSH1 0x5 SLOAD PUSH2 0x34B7 JUMP JUMPDEST PUSH2 0x2D4A PUSH1 0x28 PUSH1 0x0 DUP6 PUSH20 0xFFFFFFFFFFFFFFFFFFFFFFFFFFFFFFFFFFFFFFFF AND PUSH20 0xFFFFFFFFFFFFFFFFFFFFFFFFFFFFFFFFFFFFFFFF AND DUP2 MSTORE PUSH1 0x20 ADD SWAP1 DUP2 MSTORE PUSH1 0x20 ADD PUSH1 0x0 KECCAK256 PUSH1 0x0 PUSH1 0x1 ISZERO ISZERO ISZERO ISZERO DUP2 MSTORE PUSH1 0x20 ADD SWAP1 DUP2 MSTORE PUSH1 0x20 ADD PUSH1 0x0 KECCAK256 PUSH1 0x1 ADD SLOAD PUSH1 0xF SLOAD PUSH1 0x11 SLOAD PUSH2 0x34B7 JUMP JUMPDEST PUSH2 0x2D54 SWAP2 SWAP1 PUSH2 0x4822 JUMP JUMPDEST SWAP1 POP SWAP2 SWAP1 POP JUMP JUMPDEST PUSH1 0x0 PUSH2 0x2DCA PUSH1 0x28 PUSH1 0x0 DUP5 PUSH20 0xFFFFFFFFFFFFFFFFFFFFFFFFFFFFFFFFFFFFFFFF AND PUSH20 0xFFFFFFFFFFFFFFFFFFFFFFFFFFFFFFFFFFFFFFFF AND DUP2 MSTORE PUSH1 0x20 ADD SWAP1 DUP2 MSTORE PUSH1 0x20 ADD PUSH1 0x0 KECCAK256 PUSH1 0x0 PUSH1 0x1 ISZERO ISZERO ISZERO ISZERO DUP2 MSTORE PUSH1 0x20 ADD SWAP1 DUP2 MSTORE PUSH1 0x20 ADD PUSH1 0x0 KECCAK256 PUSH1 0x2 ADD SLOAD PUSH1 0xD SLOAD PUSH1 0x6 SLOAD PUSH1 0x5 SLOAD PUSH1 0x1D SLOAD PUSH2 0x347D JUMP JUMPDEST PUSH1 0x28 PUSH1 0x0 DUP5 PUSH20 0xFFFFFFFFFFFFFFFFFFFFFFFFFFFFFFFFFFFFFFFF AND PUSH20 0xFFFFFFFFFFFFFFFFFFFFFFFFFFFFFFFFFFFFFFFF AND DUP2 MSTORE PUSH1 0x20 ADD SWAP1 DUP2 MSTORE PUSH1 0x20 ADD PUSH1 0x0 KECCAK256 PUSH1 0x0 DUP1 ISZERO ISZERO ISZERO ISZERO DUP2 MSTORE PUSH1 0x20 ADD SWAP1 DUP2 MSTORE PUSH1 0x20 ADD PUSH1 0x0 KECCAK256 PUSH1 0x2 ADD SLOAD PUSH2 0x2E2C SWAP2 SWAP1 PUSH2 0x4822 JUMP JUMPDEST SWAP1 POP SWAP2 SWAP1 POP JUMP JUMPDEST PUSH1 0x0 PUSH2 0x2E9D PUSH1 0x29 PUSH1 0x0 DUP5 PUSH20 0xFFFFFFFFFFFFFFFFFFFFFFFFFFFFFFFFFFFFFFFF AND PUSH20 0xFFFFFFFFFFFFFFFFFFFFFFFFFFFFFFFFFFFFFFFF AND DUP2 MSTORE PUSH1 0x20 ADD SWAP1 DUP2 MSTORE PUSH1 0x20 ADD PUSH1 0x0 KECCAK256 PUSH1 0x1 PUSH1 0x2 DUP2 LT PUSH2 0x2E8A JUMPI PUSH2 0x2E89 PUSH2 0x4B8E JUMP JUMPDEST JUMPDEST ADD SLOAD PUSH1 0xD SLOAD PUSH1 0x6 SLOAD PUSH1 0x5 SLOAD PUSH1 0x1D SLOAD PUSH2 0x347D JUMP JUMPDEST PUSH1 0x29 PUSH1 0x0 DUP5 PUSH20 0xFFFFFFFFFFFFFFFFFFFFFFFFFFFFFFFFFFFFFFFF AND PUSH20 0xFFFFFFFFFFFFFFFFFFFFFFFFFFFFFFFFFFFFFFFF AND DUP2 MSTORE PUSH1 0x20 ADD SWAP1 DUP2 MSTORE PUSH1 0x20 ADD PUSH1 0x0 KECCAK256 PUSH1 0x0 PUSH1 0x2 DUP2 LT PUSH2 0x2EEF JUMPI PUSH2 0x2EEE PUSH2 0x4B8E JUMP JUMPDEST JUMPDEST ADD SLOAD PUSH2 0x2EFB SWAP2 SWAP1 PUSH2 0x4822 JUMP JUMPDEST SWAP1 POP SWAP2 SWAP1 POP JUMP JUMPDEST PUSH1 0x0 DUP1 PUSH2 0x2F30 PUSH1 0xB SLOAD PUSH1 0xC SLOAD PUSH1 0x5 SLOAD PUSH1 0x6 SLOAD PUSH1 0x3 SLOAD PUSH1 0x4 SLOAD PUSH1 0x0 SLOAD PUSH2 0x2F28 PUSH1 0x0 SLOAD PUSH2 0x3A79 JUMP JUMPDEST PUSH1 0x1 SLOAD PUSH2 0x3A96 JUMP JUMPDEST SWAP2 POP SWAP2 POP PUSH1 0x0 DUP1 PUSH2 0x2F53 DUP5 DUP5 PUSH1 0x7 SLOAD PUSH1 0x8 SLOAD PUSH1 0x21 SLOAD PUSH1 0x16 SLOAD PUSH1 0xB SLOAD PUSH1 0xC SLOAD PUSH2 0x3B32 JUMP JUMPDEST SWAP2 POP SWAP2 POP PUSH1 0x0 PUSH1 0x14 SLOAD NUMBER PUSH2 0x2F67 SWAP2 SWAP1 PUSH2 0x4A74 JUMP JUMPDEST SWAP1 POP NUMBER PUSH1 0x14 DUP2 SWAP1 SSTORE POP PUSH1 0x0 ISZERO ISZERO PUSH1 0x15 PUSH1 0x0 SWAP1 SLOAD SWAP1 PUSH2 0x100 EXP SWAP1 DIV PUSH1 0xFF AND ISZERO ISZERO EQ ISZERO PUSH2 0x2FFB JUMPI PUSH2 0x2FA0 PUSH1 0xE SLOAD PUSH1 0x13 SLOAD DUP4 PUSH1 0x1D SLOAD PUSH1 0x1 PUSH2 0x347D JUMP JUMPDEST PUSH1 0xE SLOAD PUSH2 0x2FAD SWAP2 SWAP1 PUSH2 0x4822 JUMP JUMPDEST PUSH1 0xE DUP2 SWAP1 SSTORE POP DUP1 PUSH2 0x2FD9 PUSH1 0x13 SLOAD PUSH1 0xE SLOAD PUSH2 0x2FCE PUSH1 0xD SLOAD PUSH1 0x6 SLOAD PUSH1 0x5 SLOAD PUSH2 0x34B7 JUMP JUMPDEST PUSH1 0x1D SLOAD PUSH1 0x1D SLOAD PUSH2 0x347D JUMP JUMPDEST PUSH2 0x2FE3 SWAP2 SWAP1 PUSH2 0x4A1A JUMP JUMPDEST PUSH1 0xF SLOAD PUSH2 0x2FF0 SWAP2 SWAP1 PUSH2 0x4A74 JUMP JUMPDEST PUSH1 0xF DUP2 SWAP1 SSTORE POP PUSH2 0x3058 JUMP JUMPDEST PUSH2 0x300F PUSH1 0xF SLOAD PUSH1 0x13 SLOAD DUP4 PUSH1 0x1D SLOAD PUSH1 0x1 PUSH2 0x347D JUMP JUMPDEST PUSH1 0xF SLOAD PUSH2 0x301C SWAP2 SWAP1 PUSH2 0x4822 JUMP JUMPDEST PUSH1 0xF DUP2 SWAP1 SSTORE POP PUSH2 0x3044 PUSH1 0x13 SLOAD PUSH1 0xF SLOAD DUP4 PUSH2 0x303D PUSH1 0xD SLOAD PUSH1 0x6 SLOAD PUSH1 0x5 SLOAD PUSH2 0x34B7 JUMP JUMPDEST PUSH1 0x1 PUSH2 0x347D JUMP JUMPDEST PUSH1 0xE SLOAD PUSH2 0x3051 SWAP2 SWAP1 PUSH2 0x4A74 JUMP JUMPDEST PUSH1 0xE DUP2 SWAP1 SSTORE POP JUMPDEST DUP3 PUSH1 0x13 DUP2 SWAP1 SSTORE POP DUP2 PUSH1 0x15 PUSH1 0x0 PUSH2 0x100 EXP DUP2 SLOAD DUP2 PUSH1 0xFF MUL NOT AND SWAP1 DUP4 ISZERO ISZERO MUL OR SWAP1 SSTORE POP POP POP POP POP POP JUMP JUMPDEST PUSH1 0x0 PUSH1 0x1 PUSH1 0x25 SLOAD EQ PUSH2 0x30C7 JUMPI PUSH1 0x40 MLOAD PUSH32 0x8C379A000000000000000000000000000000000000000000000000000000000 DUP2 MSTORE PUSH1 0x4 ADD PUSH2 0x30BE SWAP1 PUSH2 0x47C0 JUMP JUMPDEST PUSH1 0x40 MLOAD DUP1 SWAP2 SUB SWAP1 REVERT JUMPDEST PUSH1 0x0 PUSH1 0x25 DUP2 SWAP1 SSTORE POP PUSH1 0x0 JUMPDEST PUSH2 0x30FD PUSH2 0x30F2 PUSH1 0x2 PUSH1 0x1 SLOAD PUSH2 0x30E7 SWAP2 SWAP1 PUSH2 0x4878 JUMP JUMPDEST PUSH1 0x20 SLOAD PUSH1 0x1D SLOAD PUSH2 0x34B7 JUMP JUMPDEST PUSH1 0x3 SLOAD PUSH1 0x5 SLOAD PUSH2 0x3BDC JUMP JUMPDEST DUP2 DUP7 PUSH2 0x3109 SWAP2 SWAP1 PUSH2 0x4A74 JUMP JUMPDEST GT ISZERO PUSH2 0x32F4 JUMPI PUSH1 0x0 PUSH2 0x312E PUSH1 0x2 PUSH1 0x1 SLOAD PUSH2 0x3123 SWAP2 SWAP1 PUSH2 0x4878 JUMP JUMPDEST PUSH1 0x20 SLOAD PUSH1 0x1D SLOAD PUSH2 0x34B7 JUMP JUMPDEST SWAP1 POP PUSH1 0x0 PUSH2 0x314C PUSH1 0x0 SLOAD PUSH2 0x3143 PUSH1 0x0 SLOAD PUSH2 0x3A79 JUMP JUMPDEST PUSH1 0x1 SLOAD DUP6 PUSH2 0x3C11 JUMP JUMPDEST SWAP1 POP PUSH1 0x0 DUP6 GT DUP1 ISZERO PUSH2 0x3176 JUMPI POP DUP5 PUSH2 0x3169 PUSH1 0x4 SLOAD DUP4 PUSH1 0x6 SLOAD PUSH2 0x3BDC JUMP JUMPDEST DUP6 PUSH2 0x3174 SWAP2 SWAP1 PUSH2 0x4822 JUMP JUMPDEST GT JUMPDEST ISZERO PUSH2 0x3182 JUMPI POP POP PUSH2 0x32F4 JUMP JUMPDEST PUSH2 0x3191 PUSH1 0x4 SLOAD DUP3 PUSH1 0x6 SLOAD PUSH2 0x3BDC JUMP JUMPDEST DUP5 PUSH2 0x319C SWAP2 SWAP1 PUSH2 0x4822 JUMP JUMPDEST SWAP4 POP PUSH2 0x31AD DUP3 PUSH1 0x3 SLOAD PUSH1 0x5 SLOAD PUSH2 0x3BDC JUMP JUMPDEST DUP4 PUSH2 0x31B8 SWAP2 SWAP1 PUSH2 0x4822 JUMP JUMPDEST SWAP3 POP PUSH1 0x0 ISZERO ISZERO DUP7 ISZERO ISZERO EQ ISZERO PUSH2 0x3216 JUMPI PUSH2 0x31D6 DUP3 PUSH1 0x3 SLOAD PUSH1 0x5 SLOAD PUSH2 0x3BDC JUMP JUMPDEST PUSH1 0xB PUSH1 0x0 DUP3 DUP3 SLOAD PUSH2 0x31E7 SWAP2 SWAP1 PUSH2 0x4822 JUMP JUMPDEST SWAP3 POP POP DUP2 SWAP1 SSTORE POP PUSH2 0x31FD PUSH1 0x4 SLOAD DUP3 PUSH1 0x6 SLOAD PUSH2 0x3BDC JUMP JUMPDEST PUSH1 0xC PUSH1 0x0 DUP3 DUP3 SLOAD PUSH2 0x320E SWAP2 SWAP1 PUSH2 0x4A74 JUMP JUMPDEST SWAP3 POP POP DUP2 SWAP1 SSTORE POP JUMPDEST PUSH2 0x3231 PUSH1 0x6 SLOAD PUSH1 0x2 PUSH1 0x1 SLOAD PUSH2 0x322B SWAP2 SWAP1 PUSH2 0x4878 JUMP JUMPDEST DUP4 PUSH2 0x34B7 JUMP JUMPDEST PUSH1 0x6 DUP2 SWAP1 SSTORE POP PUSH2 0x3252 PUSH1 0x5 SLOAD PUSH1 0x2 PUSH1 0x1 SLOAD PUSH2 0x324C SWAP2 SWAP1 PUSH2 0x4878 JUMP JUMPDEST DUP5 PUSH2 0x34B7 JUMP JUMPDEST PUSH1 0x5 DUP2 SWAP1 SSTORE POP PUSH2 0x329B PUSH2 0x3276 PUSH1 0x0 SLOAD PUSH2 0x326C PUSH1 0x0 SLOAD PUSH2 0x3A79 JUMP JUMPDEST PUSH1 0x1 SLOAD DUP7 DUP7 PUSH2 0x3D11 JUMP JUMPDEST DUP3 PUSH1 0x2 PUSH1 0x1 SLOAD PUSH2 0x3286 SWAP2 SWAP1 PUSH2 0x4878 JUMP JUMPDEST DUP6 PUSH1 0x2 PUSH1 0x1 SLOAD PUSH2 0x3296 SWAP2 SWAP1 PUSH2 0x4878 JUMP JUMPDEST PUSH2 0x347D JUMP JUMPDEST PUSH1 0xD DUP2 SWAP1 SSTORE POP PUSH2 0x32AF PUSH1 0x1 SLOAD PUSH1 0xD SLOAD PUSH2 0x3E05 JUMP JUMPDEST PUSH1 0x0 DUP2 SWAP1 SSTORE POP PUSH2 0x32BD PUSH2 0x3F60 JUMP JUMPDEST PUSH1 0x1 DUP2 SWAP1 SSTORE POP PUSH1 0x2 PUSH1 0x1 SLOAD PUSH2 0x32D2 SWAP2 SWAP1 PUSH2 0x4878 JUMP JUMPDEST PUSH1 0x3 DUP2 SWAP1 SSTORE POP PUSH1 0x2 PUSH1 0x1 SLOAD PUSH2 0x32E7 SWAP2 SWAP1 PUSH2 0x4878 JUMP JUMPDEST PUSH1 0x4 DUP2 SWAP1 SSTORE POP POP POP PUSH2 0x30D2 JUMP JUMPDEST PUSH1 0x0 PUSH1 0x3 SLOAD SWAP1 POP PUSH1 0x0 PUSH1 0x4 SLOAD SWAP1 POP PUSH1 0x0 DUP6 EQ ISZERO PUSH2 0x3364 JUMPI PUSH2 0x3325 DUP4 DUP9 PUSH2 0x331A SWAP2 SWAP1 PUSH2 0x4A74 JUMP JUMPDEST PUSH1 0x5 SLOAD PUSH1 0x1D SLOAD PUSH2 0x34B7 JUMP JUMPDEST PUSH1 0x3 PUSH1 0x0 DUP3 DUP3 SLOAD PUSH2 0x3336 SWAP2 SWAP1 PUSH2 0x4822 JUMP JUMPDEST SWAP3 POP POP DUP2 SWAP1 SSTORE POP PUSH2 0x3359 PUSH1 0x0 SLOAD PUSH2 0x334E PUSH1 0x0 SLOAD PUSH2 0x3A79 JUMP JUMPDEST PUSH1 0x1 SLOAD PUSH1 0x3 SLOAD PUSH2 0x3C11 JUMP JUMPDEST PUSH1 0x4 DUP2 SWAP1 SSTORE POP PUSH2 0x33B9 JUMP JUMPDEST PUSH2 0x337E DUP5 DUP7 PUSH2 0x3373 SWAP2 SWAP1 PUSH2 0x4A74 JUMP JUMPDEST PUSH1 0x6 SLOAD PUSH1 0x1D SLOAD PUSH2 0x34B7 JUMP JUMPDEST PUSH1 0x4 PUSH1 0x0 DUP3 DUP3 SLOAD PUSH2 0x338F SWAP2 SWAP1 PUSH2 0x4A74 JUMP JUMPDEST SWAP3 POP POP DUP2 SWAP1 SSTORE POP PUSH2 0x33B2 PUSH1 0x0 SLOAD PUSH2 0x33A7 PUSH1 0x0 SLOAD PUSH2 0x3A79 JUMP JUMPDEST PUSH1 0x1 SLOAD PUSH1 0x4 SLOAD PUSH2 0x3FB9 JUMP JUMPDEST PUSH1 0x3 DUP2 SWAP1 SSTORE POP JUMPDEST PUSH2 0x33C8 DUP2 PUSH1 0x4 SLOAD PUSH1 0x6 SLOAD PUSH2 0x3BDC JUMP JUMPDEST DUP5 PUSH2 0x33D3 SWAP2 SWAP1 PUSH2 0x4822 JUMP JUMPDEST SWAP4 POP PUSH2 0x33E4 PUSH1 0x3 SLOAD DUP4 PUSH1 0x5 SLOAD PUSH2 0x3BDC JUMP JUMPDEST DUP4 PUSH2 0x33EF SWAP2 SWAP1 PUSH2 0x4822 JUMP JUMPDEST SWAP3 POP PUSH1 0x1 ISZERO ISZERO DUP7 ISZERO ISZERO EQ ISZERO PUSH2 0x341C JUMPI DUP4 PUSH1 0x8 PUSH1 0x0 DUP3 DUP3 SLOAD PUSH2 0x3410 SWAP2 SWAP1 PUSH2 0x4822 JUMP JUMPDEST SWAP3 POP POP DUP2 SWAP1 SSTORE POP PUSH2 0x346B JUMP JUMPDEST PUSH2 0x342B PUSH1 0x3 SLOAD DUP4 PUSH1 0x5 SLOAD PUSH2 0x3BDC JUMP JUMPDEST PUSH1 0xB PUSH1 0x0 DUP3 DUP3 SLOAD PUSH2 0x343C SWAP2 SWAP1 PUSH2 0x4822 JUMP JUMPDEST SWAP3 POP POP DUP2 SWAP1 SSTORE POP PUSH2 0x3452 DUP2 PUSH1 0x4 SLOAD PUSH1 0x6 SLOAD PUSH2 0x3BDC JUMP JUMPDEST PUSH1 0xC PUSH1 0x0 DUP3 DUP3 SLOAD PUSH2 0x3463 SWAP2 SWAP1 PUSH2 0x4A74 JUMP JUMPDEST SWAP3 POP POP DUP2 SWAP1 SSTORE POP JUMPDEST POP POP POP PUSH1 0x1 PUSH1 0x25 DUP2 SWAP1 SSTORE POP SWAP4 SWAP3 POP POP POP JUMP JUMPDEST PUSH1 0x0 DUP2 DUP4 DUP6 DUP8 DUP10 PUSH2 0x348E SWAP2 SWAP1 PUSH2 0x4A1A JUMP JUMPDEST PUSH2 0x3498 SWAP2 SWAP1 PUSH2 0x4A1A JUMP JUMPDEST PUSH2 0x34A2 SWAP2 SWAP1 PUSH2 0x4878 JUMP JUMPDEST PUSH2 0x34AC SWAP2 SWAP1 PUSH2 0x4878 JUMP JUMPDEST SWAP1 POP SWAP6 SWAP5 POP POP POP POP POP JUMP JUMPDEST PUSH1 0x0 DUP2 DUP4 DUP6 PUSH2 0x34C6 SWAP2 SWAP1 PUSH2 0x4A1A JUMP JUMPDEST PUSH2 0x34D0 SWAP2 SWAP1 PUSH2 0x4878 JUMP JUMPDEST SWAP1 POP SWAP4 SWAP3 POP POP POP JUMP JUMPDEST PUSH1 0x0 PUSH1 0x1 PUSH1 0x25 SLOAD EQ PUSH2 0x3520 JUMPI PUSH1 0x40 MLOAD PUSH32 0x8C379A000000000000000000000000000000000000000000000000000000000 DUP2 MSTORE PUSH1 0x4 ADD PUSH2 0x3517 SWAP1 PUSH2 0x47C0 JUMP JUMPDEST PUSH1 0x40 MLOAD DUP1 SWAP2 SUB SWAP1 REVERT JUMPDEST PUSH1 0x0 PUSH1 0x25 DUP2 SWAP1 SSTORE POP PUSH1 0x0 JUMPDEST PUSH2 0x3556 PUSH2 0x354B PUSH1 0x2 PUSH1 0x1 SLOAD PUSH2 0x3540 SWAP2 SWAP1 PUSH2 0x4878 JUMP JUMPDEST PUSH1 0x20 SLOAD PUSH1 0x1D SLOAD PUSH2 0x34B7 JUMP JUMPDEST PUSH1 0x4 SLOAD PUSH1 0x6 SLOAD PUSH2 0x3BDC JUMP JUMPDEST DUP2 DUP7 PUSH2 0x3562 SWAP2 SWAP1 PUSH2 0x4A74 JUMP JUMPDEST GT ISZERO PUSH2 0x374D JUMPI PUSH1 0x0 PUSH2 0x3587 PUSH1 0x2 PUSH1 0x1 SLOAD PUSH2 0x357C SWAP2 SWAP1 PUSH2 0x4878 JUMP JUMPDEST PUSH1 0x20 SLOAD PUSH1 0x1D SLOAD PUSH2 0x34B7 JUMP JUMPDEST SWAP1 POP PUSH1 0x0 PUSH2 0x35A5 PUSH1 0x0 SLOAD PUSH2 0x359C PUSH1 0x0 SLOAD PUSH2 0x3A79 JUMP JUMPDEST PUSH1 0x1 SLOAD DUP6 PUSH2 0x3FB9 JUMP JUMPDEST SWAP1 POP PUSH1 0x0 DUP6 GT DUP1 ISZERO PUSH2 0x35CF JUMPI POP DUP5 PUSH2 0x35C2 PUSH1 0x3 SLOAD DUP4 PUSH1 0x5 SLOAD PUSH2 0x3BDC JUMP JUMPDEST DUP6 PUSH2 0x35CD SWAP2 SWAP1 PUSH2 0x4822 JUMP JUMPDEST GT JUMPDEST ISZERO PUSH2 0x35DB JUMPI POP POP PUSH2 0x374D JUMP JUMPDEST PUSH2 0x35EA PUSH1 0x3 SLOAD DUP3 PUSH1 0x5 SLOAD PUSH2 0x3BDC JUMP JUMPDEST DUP5 PUSH2 0x35F5 SWAP2 SWAP1 PUSH2 0x4822 JUMP JUMPDEST SWAP4 POP PUSH2 0x3606 DUP3 PUSH1 0x4 SLOAD PUSH1 0x6 SLOAD PUSH2 0x3BDC JUMP JUMPDEST DUP4 PUSH2 0x3611 SWAP2 SWAP1 PUSH2 0x4822 JUMP JUMPDEST SWAP3 POP PUSH1 0x0 ISZERO ISZERO DUP7 ISZERO ISZERO EQ ISZERO PUSH2 0x366F JUMPI PUSH2 0x362F PUSH1 0x3 SLOAD DUP3 PUSH1 0x5 SLOAD PUSH2 0x3BDC JUMP JUMPDEST PUSH1 0xB PUSH1 0x0 DUP3 DUP3 SLOAD PUSH2 0x3640 SWAP2 SWAP1 PUSH2 0x4A74 JUMP JUMPDEST SWAP3 POP POP DUP2 SWAP1 SSTORE POP PUSH2 0x3656 DUP3 PUSH1 0x4 SLOAD PUSH1 0x6 SLOAD PUSH2 0x3BDC JUMP JUMPDEST PUSH1 0xC PUSH1 0x0 DUP3 DUP3 SLOAD PUSH2 0x3667 SWAP2 SWAP1 PUSH2 0x4822 JUMP JUMPDEST SWAP3 POP POP DUP2 SWAP1 SSTORE POP JUMPDEST PUSH2 0x368A PUSH1 0x6 SLOAD PUSH1 0x2 PUSH1 0x1 SLOAD PUSH2 0x3684 SWAP2 SWAP1 PUSH2 0x4878 JUMP JUMPDEST DUP5 PUSH2 0x34B7 JUMP JUMPDEST PUSH1 0x6 DUP2 SWAP1 SSTORE POP PUSH2 0x36AB PUSH1 0x5 SLOAD PUSH1 0x2 PUSH1 0x1 SLOAD PUSH2 0x36A5 SWAP2 SWAP1 PUSH2 0x4878 JUMP JUMPDEST DUP4 PUSH2 0x34B7 JUMP JUMPDEST PUSH1 0x5 DUP2 SWAP1 SSTORE POP PUSH2 0x36F4 PUSH2 0x36CF PUSH1 0x0 SLOAD PUSH2 0x36C5 PUSH1 0x0 SLOAD PUSH2 0x3A79 JUMP JUMPDEST PUSH1 0x1 SLOAD DUP6 DUP8 PUSH2 0x3D11 JUMP JUMPDEST DUP4 PUSH1 0x2 PUSH1 0x1 SLOAD PUSH2 0x36DF SWAP2 SWAP1 PUSH2 0x4878 JUMP JUMPDEST DUP5 PUSH1 0x2 PUSH1 0x1 SLOAD PUSH2 0x36EF SWAP2 SWAP1 PUSH2 0x4878 JUMP JUMPDEST PUSH2 0x347D JUMP JUMPDEST PUSH1 0xD DUP2 SWAP1 SSTORE POP PUSH2 0x3708 PUSH1 0x1 SLOAD PUSH1 0xD SLOAD PUSH2 0x3E05 JUMP JUMPDEST PUSH1 0x0 DUP2 SWAP1 SSTORE POP PUSH2 0x3716 PUSH2 0x3F60 JUMP JUMPDEST PUSH1 0x1 DUP2 SWAP1 SSTORE POP PUSH1 0x2 PUSH1 0x1 SLOAD PUSH2 0x372B SWAP2 SWAP1 PUSH2 0x4878 JUMP JUMPDEST PUSH1 0x3 DUP2 SWAP1 SSTORE POP PUSH1 0x2 PUSH1 0x1 SLOAD PUSH2 0x3740 SWAP2 SWAP1 PUSH2 0x4878 JUMP JUMPDEST PUSH1 0x4 DUP2 SWAP1 SSTORE POP POP POP PUSH2 0x352B JUMP JUMPDEST PUSH1 0x0 PUSH1 0x3 SLOAD SWAP1 POP PUSH1 0x0 PUSH1 0x4 SLOAD SWAP1 POP PUSH1 0x0 DUP6 EQ ISZERO PUSH2 0x37BD JUMPI PUSH2 0x377E DUP4 DUP9 PUSH2 0x3773 SWAP2 SWAP1 PUSH2 0x4A74 JUMP JUMPDEST PUSH1 0x6 SLOAD PUSH1 0x1D SLOAD PUSH2 0x34B7 JUMP JUMPDEST PUSH1 0x4 PUSH1 0x0 DUP3 DUP3 SLOAD PUSH2 0x378F SWAP2 SWAP1 PUSH2 0x4822 JUMP JUMPDEST SWAP3 POP POP DUP2 SWAP1 SSTORE POP PUSH2 0x37B2 PUSH1 0x0 SLOAD PUSH2 0x37A7 PUSH1 0x0 SLOAD PUSH2 0x3A79 JUMP JUMPDEST PUSH1 0x1 SLOAD PUSH1 0x4 SLOAD PUSH2 0x3FB9 JUMP JUMPDEST PUSH1 0x3 DUP2 SWAP1 SSTORE POP PUSH2 0x3812 JUMP JUMPDEST PUSH2 0x37D7 DUP5 DUP7 PUSH2 0x37CC SWAP2 SWAP1 PUSH2 0x4A74 JUMP JUMPDEST PUSH1 0x5 SLOAD PUSH1 0x1D SLOAD PUSH2 0x34B7 JUMP JUMPDEST PUSH1 0x3 PUSH1 0x0 DUP3 DUP3 SLOAD PUSH2 0x37E8 SWAP2 SWAP1 PUSH2 0x4A74 JUMP JUMPDEST SWAP3 POP POP DUP2 SWAP1 SSTORE POP PUSH2 0x380B PUSH1 0x0 SLOAD PUSH2 0x3800 PUSH1 0x0 SLOAD PUSH2 0x3A79 JUMP JUMPDEST PUSH1 0x1 SLOAD PUSH1 0x3 SLOAD PUSH2 0x3C11 JUMP JUMPDEST PUSH1 0x4 DUP2 SWAP1 SSTORE POP JUMPDEST PUSH2 0x3821 DUP3 PUSH1 0x3 SLOAD PUSH1 0x5 SLOAD PUSH2 0x3BDC JUMP JUMPDEST DUP5 PUSH2 0x382C SWAP2 SWAP1 PUSH2 0x4822 JUMP JUMPDEST SWAP4 POP PUSH2 0x383D PUSH1 0x4 SLOAD DUP3 PUSH1 0x6 SLOAD PUSH2 0x3BDC JUMP JUMPDEST DUP4 PUSH2 0x3848 SWAP2 SWAP1 PUSH2 0x4822 JUMP JUMPDEST SWAP3 POP PUSH1 0x1 ISZERO ISZERO DUP7 ISZERO ISZERO EQ ISZERO PUSH2 0x3875 JUMPI DUP4 PUSH1 0x7 PUSH1 0x0 DUP3 DUP3 SLOAD PUSH2 0x3869 SWAP2 SWAP1 PUSH2 0x4822 JUMP JUMPDEST SWAP3 POP POP DUP2 SWAP1 SSTORE POP PUSH2 0x38C4 JUMP JUMPDEST PUSH2 0x3884 PUSH1 0x4 SLOAD DUP3 PUSH1 0x6 SLOAD PUSH2 0x3BDC JUMP JUMPDEST PUSH1 0xC PUSH1 0x0 DUP3 DUP3 SLOAD PUSH2 0x3895 SWAP2 SWAP1 PUSH2 0x4822 JUMP JUMPDEST SWAP3 POP POP DUP2 SWAP1 SSTORE POP PUSH2 0x38AB DUP3 PUSH1 0x3 SLOAD PUSH1 0x5 SLOAD PUSH2 0x3BDC JUMP JUMPDEST PUSH1 0xB PUSH1 0x0 DUP3 DUP3 SLOAD PUSH2 0x38BC SWAP2 SWAP1 PUSH2 0x4A74 JUMP JUMPDEST SWAP3 POP POP DUP2 SWAP1 SSTORE POP JUMPDEST POP POP POP PUSH1 0x1 PUSH1 0x25 DUP2 SWAP1 SSTORE POP SWAP4 SWAP3 POP POP POP JUMP JUMPDEST PUSH1 0x0 DUP1 DUP5 PUSH20 0xFFFFFFFFFFFFFFFFFFFFFFFFFFFFFFFFFFFFFFFF AND PUSH1 0x40 MLOAD DUP1 PUSH1 0x40 ADD PUSH1 0x40 MSTORE DUP1 PUSH1 0x19 DUP2 MSTORE PUSH1 0x20 ADD PUSH32 0x7472616E7366657228616464726573732C75696E743235362900000000000000 DUP2 MSTORE POP DUP1 MLOAD SWAP1 PUSH1 0x20 ADD KECCAK256 DUP6 DUP6 PUSH1 0x40 MLOAD PUSH1 0x24 ADD PUSH2 0x3940 SWAP3 SWAP2 SWAP1 PUSH2 0x475C JUMP JUMPDEST PUSH1 0x40 MLOAD PUSH1 0x20 DUP2 DUP4 SUB SUB DUP2 MSTORE SWAP1 PUSH1 0x40 MSTORE SWAP1 PUSH28 0xFFFFFFFFFFFFFFFFFFFFFFFFFFFFFFFFFFFFFFFFFFFFFFFFFFFFFFFF NOT AND PUSH1 0x20 DUP3 ADD DUP1 MLOAD PUSH28 0xFFFFFFFFFFFFFFFFFFFFFFFFFFFFFFFFFFFFFFFFFFFFFFFFFFFFFFFF DUP4 DUP2 DUP4 AND OR DUP4 MSTORE POP POP POP POP PUSH1 0x40 MLOAD PUSH2 0x39AA SWAP2 SWAP1 PUSH2 0x46E5 JUMP JUMPDEST PUSH1 0x0 PUSH1 0x40 MLOAD DUP1 DUP4 SUB DUP2 PUSH1 0x0 DUP7 GAS CALL SWAP2 POP POP RETURNDATASIZE DUP1 PUSH1 0x0 DUP2 EQ PUSH2 0x39E7 JUMPI PUSH1 0x40 MLOAD SWAP2 POP PUSH1 0x1F NOT PUSH1 0x3F RETURNDATASIZE ADD AND DUP3 ADD PUSH1 0x40 MSTORE RETURNDATASIZE DUP3 MSTORE RETURNDATASIZE PUSH1 0x0 PUSH1 0x20 DUP5 ADD RETURNDATACOPY PUSH2 0x39EC JUMP JUMPDEST PUSH1 0x60 SWAP2 POP JUMPDEST POP SWAP2 POP SWAP2 POP DUP2 DUP1 ISZERO PUSH2 0x3A1A JUMPI POP PUSH1 0x0 DUP2 MLOAD EQ DUP1 PUSH2 0x3A19 JUMPI POP DUP1 DUP1 PUSH1 0x20 ADD SWAP1 MLOAD DUP2 ADD SWAP1 PUSH2 0x3A18 SWAP2 SWAP1 PUSH2 0x44DA JUMP JUMPDEST JUMPDEST JUMPDEST PUSH2 0x3A59 JUMPI PUSH1 0x40 MLOAD PUSH32 0x8C379A000000000000000000000000000000000000000000000000000000000 DUP2 MSTORE PUSH1 0x4 ADD PUSH2 0x3A50 SWAP1 PUSH2 0x47A0 JUMP JUMPDEST PUSH1 0x40 MLOAD DUP1 SWAP2 SUB SWAP1 REVERT JUMPDEST POP POP POP POP POP JUMP JUMPDEST PUSH1 0x0 DUP2 DUP4 GT PUSH2 0x3A6F JUMPI DUP2 PUSH2 0x3A71 JUMP JUMPDEST DUP3 JUMPDEST SWAP1 POP SWAP3 SWAP2 POP POP JUMP JUMPDEST PUSH1 0x0 DUP2 PUSH8 0x1BC16D674EC80000 PUSH2 0x3A8F SWAP2 SWAP1 PUSH2 0x4A74 JUMP JUMPDEST SWAP1 POP SWAP2 SWAP1 POP JUMP JUMPDEST PUSH1 0x0 DUP1 PUSH1 0x0 PUSH2 0x3AAE DUP13 DUP12 PUSH8 0xDE0B6B3A7640000 PUSH2 0x34B7 JUMP JUMPDEST SWAP1 POP PUSH1 0x0 PUSH2 0x3AC5 DUP13 DUP12 PUSH8 0xDE0B6B3A7640000 PUSH2 0x34B7 JUMP JUMPDEST SWAP1 POP PUSH1 0x0 PUSH2 0x3AD4 DUP4 DUP4 DUP9 PUSH2 0x40B9 JUMP JUMPDEST SWAP1 POP PUSH1 0x0 DUP2 PUSH8 0x1BC16D674EC80000 PUSH2 0x3AEC SWAP2 SWAP1 PUSH2 0x4A74 JUMP JUMPDEST SWAP1 POP PUSH2 0x3B05 PUSH2 0x3AFE DUP4 DUP4 DUP11 DUP9 DUP9 PUSH2 0x3D11 JUMP JUMPDEST DUP14 DUP16 PUSH2 0x34B7 JUMP JUMPDEST SWAP6 POP PUSH2 0x3B1E PUSH2 0x3B17 DUP11 DUP11 DUP11 DUP16 DUP16 PUSH2 0x3D11 JUMP JUMPDEST DUP14 DUP16 PUSH2 0x34B7 JUMP JUMPDEST SWAP5 POP POP POP POP POP SWAP10 POP SWAP10 SWAP8 POP POP POP POP POP POP POP POP JUMP JUMPDEST PUSH1 0x0 DUP1 DUP10 DUP10 GT ISZERO PUSH2 0x3B75 JUMPI PUSH2 0x3B48 DUP8 DUP5 DUP9 PUSH2 0x413D JUMP JUMPDEST PUSH2 0x1680 PUSH2 0x3B56 DUP12 DUP14 DUP15 PUSH2 0x3BDC JUMP JUMPDEST PUSH2 0x3B60 SWAP2 SWAP1 PUSH2 0x4878 JUMP JUMPDEST PUSH2 0x3B6A SWAP2 SWAP1 PUSH2 0x4822 JUMP JUMPDEST SWAP2 POP PUSH1 0x0 SWAP1 POP PUSH2 0x3BA9 JUMP JUMPDEST PUSH2 0x3B80 DUP9 DUP6 DUP9 PUSH2 0x413D JUMP JUMPDEST PUSH2 0x1680 PUSH2 0x3B8E DUP13 DUP13 DUP15 PUSH2 0x3BDC JUMP JUMPDEST PUSH2 0x3B98 SWAP2 SWAP1 PUSH2 0x4878 JUMP JUMPDEST PUSH2 0x3BA2 SWAP2 SWAP1 PUSH2 0x4822 JUMP JUMPDEST SWAP2 POP PUSH1 0x1 SWAP1 POP JUMPDEST DUP5 PUSH2 0x780 DUP4 PUSH2 0x3BB8 SWAP2 SWAP1 PUSH2 0x4A1A JUMP JUMPDEST GT ISZERO PUSH2 0x3BCF JUMPI PUSH2 0x780 DUP6 PUSH2 0x3BCC SWAP2 SWAP1 PUSH2 0x4878 JUMP JUMPDEST SWAP2 POP JUMPDEST SWAP9 POP SWAP9 SWAP7 POP POP POP POP POP POP POP JUMP JUMPDEST PUSH1 0x0 DUP2 PUSH8 0xDE0B6B3A7640000 DUP5 DUP7 PUSH2 0x3BF4 SWAP2 SWAP1 PUSH2 0x4A74 JUMP JUMPDEST PUSH2 0x3BFE SWAP2 SWAP1 PUSH2 0x4A1A JUMP JUMPDEST PUSH2 0x3C08 SWAP2 SWAP1 PUSH2 0x4878 JUMP JUMPDEST SWAP1 POP SWAP4 SWAP3 POP POP POP JUMP JUMPDEST PUSH1 0x0 DUP2 DUP5 PUSH1 0x8 PUSH2 0x3C21 SWAP2 SWAP1 PUSH2 0x4A1A JUMP JUMPDEST PUSH2 0x3C2B SWAP2 SWAP1 PUSH2 0x4A1A JUMP JUMPDEST PUSH2 0x3CC4 PUSH8 0xDE0B6B3A7640000 DUP6 DUP7 DUP8 PUSH2 0x3C44 SWAP2 SWAP1 PUSH2 0x4A1A JUMP JUMPDEST PUSH2 0x3C4E SWAP2 SWAP1 PUSH2 0x4A1A JUMP JUMPDEST PUSH1 0x0 PUSH2 0x3C5A SWAP2 SWAP1 PUSH2 0x4A74 JUMP JUMPDEST DUP6 DUP9 PUSH1 0x10 PUSH2 0x3C68 SWAP2 SWAP1 PUSH2 0x4A1A JUMP JUMPDEST PUSH2 0x3C72 SWAP2 SWAP1 PUSH2 0x4A1A JUMP JUMPDEST PUSH2 0x3C7C SWAP2 SWAP1 PUSH2 0x4A1A JUMP JUMPDEST PUSH2 0x3C86 SWAP2 SWAP1 PUSH2 0x4A1A JUMP JUMPDEST PUSH1 0x2 DUP6 DUP7 DUP11 PUSH1 0x4 PUSH2 0x3C97 SWAP2 SWAP1 PUSH2 0x4A1A JUMP JUMPDEST PUSH2 0x3CA1 SWAP2 SWAP1 PUSH2 0x4A1A JUMP JUMPDEST PUSH2 0x3CAB SWAP2 SWAP1 PUSH2 0x4A1A JUMP JUMPDEST PUSH2 0x3CB5 SWAP2 SWAP1 PUSH2 0x48FC JUMP JUMPDEST PUSH2 0x3CBF SWAP2 SWAP1 PUSH2 0x4A74 JUMP JUMPDEST PUSH2 0x418A JUMP JUMPDEST DUP4 DUP5 DUP9 PUSH1 0x4 PUSH2 0x3CD3 SWAP2 SWAP1 PUSH2 0x4A1A JUMP JUMPDEST PUSH2 0x3CDD SWAP2 SWAP1 PUSH2 0x4A1A JUMP JUMPDEST PUSH2 0x3CE7 SWAP2 SWAP1 PUSH2 0x4A1A JUMP JUMPDEST PUSH1 0x0 PUSH2 0x3CF3 SWAP2 SWAP1 PUSH2 0x4A74 JUMP JUMPDEST PUSH2 0x3CFD SWAP2 SWAP1 PUSH2 0x4822 JUMP JUMPDEST PUSH2 0x3D07 SWAP2 SWAP1 PUSH2 0x4878 JUMP JUMPDEST SWAP1 POP SWAP5 SWAP4 POP POP POP POP JUMP JUMPDEST PUSH1 0x0 DUP2 DUP5 DUP6 DUP7 PUSH2 0x3D21 SWAP2 SWAP1 PUSH2 0x4A1A JUMP JUMPDEST PUSH2 0x3D2B SWAP2 SWAP1 PUSH2 0x4A1A JUMP JUMPDEST PUSH2 0x3D35 SWAP2 SWAP1 PUSH2 0x4A1A JUMP JUMPDEST DUP3 DUP4 DUP6 DUP7 DUP11 PUSH1 0x4 PUSH2 0x3D46 SWAP2 SWAP1 PUSH2 0x4A1A JUMP JUMPDEST PUSH2 0x3D50 SWAP2 SWAP1 PUSH2 0x4A1A JUMP JUMPDEST PUSH2 0x3D5A SWAP2 SWAP1 PUSH2 0x4A1A JUMP JUMPDEST PUSH2 0x3D64 SWAP2 SWAP1 PUSH2 0x4A1A JUMP JUMPDEST PUSH2 0x3D6E SWAP2 SWAP1 PUSH2 0x4A1A JUMP JUMPDEST PUSH2 0x3D78 SWAP2 SWAP1 PUSH2 0x4822 JUMP JUMPDEST PUSH8 0xDE0B6B3A7640000 DUP5 DUP7 DUP8 DUP9 PUSH2 0x3D8F SWAP2 SWAP1 PUSH2 0x4A1A JUMP JUMPDEST PUSH2 0x3D99 SWAP2 SWAP1 PUSH2 0x4A1A JUMP JUMPDEST PUSH2 0x3DA3 SWAP2 SWAP1 PUSH2 0x4A1A JUMP JUMPDEST DUP5 DUP6 DUP8 DUP9 DUP12 PUSH1 0x4 PUSH2 0x3DB4 SWAP2 SWAP1 PUSH2 0x4A1A JUMP JUMPDEST PUSH2 0x3DBE SWAP2 SWAP1 PUSH2 0x4A1A JUMP JUMPDEST PUSH2 0x3DC8 SWAP2 SWAP1 PUSH2 0x4A1A JUMP JUMPDEST PUSH2 0x3DD2 SWAP2 SWAP1 PUSH2 0x4A1A JUMP JUMPDEST PUSH2 0x3DDC SWAP2 SWAP1 PUSH2 0x4A1A JUMP JUMPDEST PUSH2 0x3DE6 SWAP2 SWAP1 PUSH2 0x4822 JUMP JUMPDEST PUSH2 0x3DF0 SWAP2 SWAP1 PUSH2 0x4A1A JUMP JUMPDEST PUSH2 0x3DFA SWAP2 SWAP1 PUSH2 0x4878 JUMP JUMPDEST SWAP1 POP SWAP6 SWAP5 POP POP POP POP POP JUMP JUMPDEST PUSH1 0x0 DUP1 PUSH1 0x2 DUP5 PUSH2 0x3E15 SWAP2 SWAP1 PUSH2 0x4878 JUMP JUMPDEST SWAP1 POP PUSH1 0x0 PUSH1 0x2 DUP6 PUSH2 0x3E26 SWAP2 SWAP1 PUSH2 0x4878 JUMP JUMPDEST SWAP1 POP DUP4 PUSH8 0xDE0B6B3A7640000 PUSH2 0x3E3C SWAP2 SWAP1 PUSH2 0x4822 JUMP JUMPDEST DUP2 DUP3 DUP5 DUP6 PUSH1 0x4 PUSH2 0x3E4C SWAP2 SWAP1 PUSH2 0x4A1A JUMP JUMPDEST PUSH2 0x3E56 SWAP2 SWAP1 PUSH2 0x4A1A JUMP JUMPDEST PUSH2 0x3E60 SWAP2 SWAP1 PUSH2 0x4A1A JUMP JUMPDEST PUSH2 0x3E6A SWAP2 SWAP1 PUSH2 0x4A1A JUMP JUMPDEST PUSH2 0x3E74 SWAP2 SWAP1 PUSH2 0x4A1A JUMP JUMPDEST PUSH8 0xDE0B6B3A7640000 DUP6 DUP4 DUP9 DUP10 DUP11 PUSH2 0x3E8C SWAP2 SWAP1 PUSH2 0x4A1A JUMP JUMPDEST PUSH2 0x3E96 SWAP2 SWAP1 PUSH2 0x4A1A JUMP JUMPDEST PUSH2 0x3EA0 SWAP2 SWAP1 PUSH2 0x4A1A JUMP JUMPDEST PUSH2 0x3EAA SWAP2 SWAP1 PUSH2 0x4A1A JUMP JUMPDEST PUSH2 0x3EB4 SWAP2 SWAP1 PUSH2 0x4A1A JUMP JUMPDEST PUSH15 0xC097CE7BC90715B34B9F1000000000 DUP5 DUP9 DUP10 DUP11 PUSH2 0x3ED2 SWAP2 SWAP1 PUSH2 0x4A1A JUMP JUMPDEST PUSH2 0x3EDC SWAP2 SWAP1 PUSH2 0x4A1A JUMP JUMPDEST PUSH2 0x3EE6 SWAP2 SWAP1 PUSH2 0x4A1A JUMP JUMPDEST PUSH2 0x3EF0 SWAP2 SWAP1 PUSH2 0x4A1A JUMP JUMPDEST PUSH15 0xC097CE7BC90715B34B9F1000000000 DUP5 DUP6 DUP8 DUP9 PUSH1 0x8 PUSH2 0x3F10 SWAP2 SWAP1 PUSH2 0x4A1A JUMP JUMPDEST PUSH2 0x3F1A SWAP2 SWAP1 PUSH2 0x4A1A JUMP JUMPDEST PUSH2 0x3F24 SWAP2 SWAP1 PUSH2 0x4A1A JUMP JUMPDEST PUSH2 0x3F2E SWAP2 SWAP1 PUSH2 0x4A1A JUMP JUMPDEST PUSH2 0x3F38 SWAP2 SWAP1 PUSH2 0x4A1A JUMP JUMPDEST PUSH2 0x3F42 SWAP2 SWAP1 PUSH2 0x4822 JUMP JUMPDEST PUSH2 0x3F4C SWAP2 SWAP1 PUSH2 0x4A74 JUMP JUMPDEST PUSH2 0x3F56 SWAP2 SWAP1 PUSH2 0x4878 JUMP JUMPDEST SWAP3 POP POP POP SWAP3 SWAP2 POP POP JUMP JUMPDEST PUSH1 0x0 DUP1 PUSH2 0x3F96 PUSH1 0xB SLOAD PUSH1 0x0 SLOAD PUSH1 0x5 SLOAD PUSH1 0xC SLOAD PUSH1 0x0 SLOAD PUSH8 0x1BC16D674EC80000 PUSH2 0x3F88 SWAP2 SWAP1 PUSH2 0x4A74 JUMP JUMPDEST PUSH1 0x6 SLOAD PUSH1 0x9 SLOAD PUSH1 0xA SLOAD PUSH2 0x4204 JUMP JUMPDEST SWAP1 POP PUSH1 0x1D SLOAD DUP2 PUSH1 0x2 SLOAD PUSH2 0x3FA9 SWAP2 SWAP1 PUSH2 0x4A1A JUMP JUMPDEST PUSH2 0x3FB3 SWAP2 SWAP1 PUSH2 0x4878 JUMP JUMPDEST SWAP2 POP POP SWAP1 JUMP JUMPDEST PUSH1 0x0 DUP2 DUP6 PUSH1 0x8 PUSH2 0x3FC9 SWAP2 SWAP1 PUSH2 0x4A1A JUMP JUMPDEST PUSH2 0x3FD3 SWAP2 SWAP1 PUSH2 0x4A1A JUMP JUMPDEST PUSH2 0x406C PUSH8 0xDE0B6B3A7640000 DUP6 DUP7 DUP8 PUSH2 0x3FEC SWAP2 SWAP1 PUSH2 0x4A1A JUMP JUMPDEST PUSH2 0x3FF6 SWAP2 SWAP1 PUSH2 0x4A1A JUMP JUMPDEST PUSH1 0x0 PUSH2 0x4002 SWAP2 SWAP1 PUSH2 0x4A74 JUMP JUMPDEST DUP6 DUP10 PUSH1 0x10 PUSH2 0x4010 SWAP2 SWAP1 PUSH2 0x4A1A JUMP JUMPDEST PUSH2 0x401A SWAP2 SWAP1 PUSH2 0x4A1A JUMP JUMPDEST PUSH2 0x4024 SWAP2 SWAP1 PUSH2 0x4A1A JUMP JUMPDEST PUSH2 0x402E SWAP2 SWAP1 PUSH2 0x4A1A JUMP JUMPDEST PUSH1 0x2 DUP6 DUP7 DUP10 PUSH1 0x4 PUSH2 0x403F SWAP2 SWAP1 PUSH2 0x4A1A JUMP JUMPDEST PUSH2 0x4049 SWAP2 SWAP1 PUSH2 0x4A1A JUMP JUMPDEST PUSH2 0x4053 SWAP2 SWAP1 PUSH2 0x4A1A JUMP JUMPDEST PUSH2 0x405D SWAP2 SWAP1 PUSH2 0x48FC JUMP JUMPDEST PUSH2 0x4067 SWAP2 SWAP1 PUSH2 0x4A74 JUMP JUMPDEST PUSH2 0x418A JUMP JUMPDEST DUP4 DUP5 DUP8 PUSH1 0x4 PUSH2 0x407B SWAP2 SWAP1 PUSH2 0x4A1A JUMP JUMPDEST PUSH2 0x4085 SWAP2 SWAP1 PUSH2 0x4A1A JUMP JUMPDEST PUSH2 0x408F SWAP2 SWAP1 PUSH2 0x4A1A JUMP JUMPDEST PUSH1 0x0 PUSH2 0x409B SWAP2 SWAP1 PUSH2 0x4A74 JUMP JUMPDEST PUSH2 0x40A5 SWAP2 SWAP1 PUSH2 0x4822 JUMP JUMPDEST PUSH2 0x40AF SWAP2 SWAP1 PUSH2 0x4878 JUMP JUMPDEST SWAP1 POP SWAP5 SWAP4 POP POP POP POP JUMP JUMPDEST PUSH1 0x0 DUP3 DUP5 PUSH2 0x40C7 SWAP2 SWAP1 PUSH2 0x4A74 JUMP JUMPDEST PUSH8 0xDE0B6B3A7640000 DUP5 PUSH1 0x2 PUSH2 0x40DD SWAP2 SWAP1 PUSH2 0x4A1A JUMP JUMPDEST DUP6 DUP8 PUSH1 0x4 DUP8 DUP9 DUP10 PUSH2 0x40EE SWAP2 SWAP1 PUSH2 0x4A1A JUMP JUMPDEST PUSH2 0x40F8 SWAP2 SWAP1 PUSH2 0x4A1A JUMP JUMPDEST PUSH2 0x4102 SWAP2 SWAP1 PUSH2 0x4878 JUMP JUMPDEST PUSH2 0x410C SWAP2 SWAP1 PUSH2 0x4878 JUMP JUMPDEST PUSH2 0x4116 SWAP2 SWAP1 PUSH2 0x4878 JUMP JUMPDEST PUSH2 0x4120 SWAP2 SWAP1 PUSH2 0x4A74 JUMP JUMPDEST PUSH2 0x412A SWAP2 SWAP1 PUSH2 0x4A1A JUMP JUMPDEST PUSH2 0x4134 SWAP2 SWAP1 PUSH2 0x4878 JUMP JUMPDEST SWAP1 POP SWAP4 SWAP3 POP POP POP JUMP JUMPDEST PUSH1 0x0 DUP2 PUSH2 0xE100 DUP6 DUP6 PUSH2 0x414F SWAP2 SWAP1 PUSH2 0x4822 JUMP JUMPDEST PUSH8 0xDE0B6B3A7640000 DUP8 PUSH2 0x4163 SWAP2 SWAP1 PUSH2 0x4A1A JUMP JUMPDEST PUSH2 0x416D SWAP2 SWAP1 PUSH2 0x4878 JUMP JUMPDEST PUSH2 0x4177 SWAP2 SWAP1 PUSH2 0x4878 JUMP JUMPDEST PUSH2 0x4181 SWAP2 SWAP1 PUSH2 0x4822 JUMP JUMPDEST SWAP1 POP SWAP4 SWAP3 POP POP POP JUMP JUMPDEST PUSH1 0x0 PUSH1 0x3 DUP3 GT ISZERO PUSH2 0x41F1 JUMPI DUP2 SWAP1 POP PUSH1 0x0 PUSH1 0x1 PUSH1 0x2 DUP5 PUSH2 0x41A9 SWAP2 SWAP1 PUSH2 0x4878 JUMP JUMPDEST PUSH2 0x41B3 SWAP2 SWAP1 PUSH2 0x4822 JUMP JUMPDEST SWAP1 POP JUMPDEST DUP2 DUP2 LT ISZERO PUSH2 0x41EB JUMPI DUP1 SWAP2 POP PUSH1 0x2 DUP2 DUP3 DUP6 PUSH2 0x41D0 SWAP2 SWAP1 PUSH2 0x4878 JUMP JUMPDEST PUSH2 0x41DA SWAP2 SWAP1 PUSH2 0x4822 JUMP JUMPDEST PUSH2 0x41E4 SWAP2 SWAP1 PUSH2 0x4878 JUMP JUMPDEST SWAP1 POP PUSH2 0x41B6 JUMP JUMPDEST POP PUSH2 0x41FF JUMP JUMPDEST PUSH1 0x0 DUP3 EQ PUSH2 0x41FE JUMPI PUSH1 0x1 SWAP1 POP JUMPDEST JUMPDEST SWAP2 SWAP1 POP JUMP JUMPDEST PUSH1 0x0 PUSH2 0x4256 PUSH2 0x4217 DUP5 DUP11 DUP11 DUP7 DUP11 DUP11 PUSH2 0x4264 JUMP JUMPDEST PUSH23 0xA70C3C40A64E6C51999090B65F67D9240000000000000 PUSH2 0x423D DUP13 DUP13 DUP13 DUP13 DUP13 DUP13 PUSH2 0x4264 JUMP JUMPDEST PUSH2 0x4247 SWAP2 SWAP1 PUSH2 0x4A1A JUMP JUMPDEST PUSH2 0x4251 SWAP2 SWAP1 PUSH2 0x4878 JUMP JUMPDEST PUSH2 0x42C0 JUMP JUMPDEST SWAP1 POP SWAP9 SWAP8 POP POP POP POP POP POP POP POP JUMP JUMPDEST PUSH1 0x0 DUP4 DUP8 DUP4 DUP6 DUP8 PUSH2 0x4275 SWAP2 SWAP1 PUSH2 0x4A1A JUMP JUMPDEST PUSH2 0x427F SWAP2 SWAP1 PUSH2 0x4A1A JUMP JUMPDEST DUP8 DUP10 DUP12 PUSH2 0x428C SWAP2 SWAP1 PUSH2 0x4A1A JUMP JUMPDEST PUSH2 0x4296 SWAP2 SWAP1 PUSH2 0x4A1A JUMP JUMPDEST PUSH2 0x42A0 SWAP2 SWAP1 PUSH2 0x4822 JUMP JUMPDEST PUSH2 0x42AA SWAP2 SWAP1 PUSH2 0x4A1A JUMP JUMPDEST PUSH2 0x42B4 SWAP2 SWAP1 PUSH2 0x4A1A JUMP JUMPDEST SWAP1 POP SWAP7 SWAP6 POP POP POP POP POP POP JUMP JUMPDEST PUSH1 0x0 PUSH1 0x8 DUP3 GT ISZERO PUSH2 0x433E JUMPI DUP2 SWAP1 POP PUSH1 0x0 PUSH1 0x1 PUSH1 0x3 DUP5 PUSH2 0x42DF SWAP2 SWAP1 PUSH2 0x4878 JUMP JUMPDEST PUSH2 0x42E9 SWAP2 SWAP1 PUSH2 0x4822 JUMP JUMPDEST SWAP1 POP JUMPDEST DUP2 DUP2 LT ISZERO PUSH2 0x4338 JUMPI DUP1 SWAP2 POP PUSH1 0x3 DUP2 PUSH1 0x2 PUSH2 0x4306 SWAP2 SWAP1 PUSH2 0x4A1A JUMP JUMPDEST DUP3 DUP4 PUSH2 0x4312 SWAP2 SWAP1 PUSH2 0x4A1A JUMP JUMPDEST DUP6 PUSH2 0x431D SWAP2 SWAP1 PUSH2 0x4878 JUMP JUMPDEST PUSH2 0x4327 SWAP2 SWAP1 PUSH2 0x4822 JUMP JUMPDEST PUSH2 0x4331 SWAP2 SWAP1 PUSH2 0x4878 JUMP JUMPDEST SWAP1 POP PUSH2 0x42EC JUMP JUMPDEST POP PUSH2 0x434C JUMP JUMPDEST PUSH1 0x0 DUP3 EQ PUSH2 0x434B JUMPI PUSH1 0x1 SWAP1 POP JUMPDEST JUMPDEST SWAP2 SWAP1 POP JUMP JUMPDEST POP PUSH1 0x0 DUP2 SSTORE PUSH1 0x1 ADD PUSH1 0x0 SWAP1 SSTORE JUMP JUMPDEST PUSH1 0x0 DUP2 CALLDATALOAD SWAP1 POP PUSH2 0x436E DUP2 PUSH2 0x4C21 JUMP JUMPDEST SWAP3 SWAP2 POP POP JUMP JUMPDEST PUSH1 0x0 DUP2 CALLDATALOAD SWAP1 POP PUSH2 0x4383 DUP2 PUSH2 0x4C38 JUMP JUMPDEST SWAP3 SWAP2 POP POP JUMP JUMPDEST PUSH1 0x0 DUP2 MLOAD SWAP1 POP PUSH2 0x4398 DUP2 PUSH2 0x4C38 JUMP JUMPDEST SWAP3 SWAP2 POP POP JUMP JUMPDEST PUSH1 0x0 DUP2 CALLDATALOAD SWAP1 POP PUSH2 0x43AD DUP2 PUSH2 0x4C4F JUMP JUMPDEST SWAP3 SWAP2 POP POP JUMP JUMPDEST PUSH1 0x0 DUP1 PUSH1 0x40 DUP4 DUP6 SUB SLT ISZERO PUSH2 0x43CA JUMPI PUSH2 0x43C9 PUSH2 0x4BBD JUMP JUMPDEST JUMPDEST PUSH1 0x0 PUSH2 0x43D8 DUP6 DUP3 DUP7 ADD PUSH2 0x435F JUMP JUMPDEST SWAP3 POP POP PUSH1 0x20 PUSH2 0x43E9 DUP6 DUP3 DUP7 ADD PUSH2 0x435F JUMP JUMPDEST SWAP2 POP POP SWAP3 POP SWAP3 SWAP1 POP JUMP JUMPDEST PUSH1 0x0 DUP1 PUSH1 0x0 DUP1 PUSH1 0x80 DUP6 DUP8 SUB SLT ISZERO PUSH2 0x440D JUMPI PUSH2 0x440C PUSH2 0x4BBD JUMP JUMPDEST JUMPDEST PUSH1 0x0 PUSH2 0x441B DUP8 DUP3 DUP9 ADD PUSH2 0x435F JUMP JUMPDEST SWAP5 POP POP PUSH1 0x20 PUSH2 0x442C DUP8 DUP3 DUP9 ADD PUSH2 0x435F JUMP JUMPDEST SWAP4 POP POP PUSH1 0x40 PUSH2 0x443D DUP8 DUP3 DUP9 ADD PUSH2 0x435F JUMP JUMPDEST SWAP3 POP POP PUSH1 0x60 PUSH2 0x444E DUP8 DUP3 DUP9 ADD PUSH2 0x439E JUMP JUMPDEST SWAP2 POP POP SWAP3 SWAP6 SWAP2 SWAP5 POP SWAP3 POP JUMP JUMPDEST PUSH1 0x0 DUP1 PUSH1 0x40 DUP4 DUP6 SUB SLT ISZERO PUSH2 0x4471 JUMPI PUSH2 0x4470 PUSH2 0x4BBD JUMP JUMPDEST JUMPDEST PUSH1 0x0 PUSH2 0x447F DUP6 DUP3 DUP7 ADD PUSH2 0x435F JUMP JUMPDEST SWAP3 POP POP PUSH1 0x20 PUSH2 0x4490 DUP6 DUP3 DUP7 ADD PUSH2 0x4374 JUMP JUMPDEST SWAP2 POP POP SWAP3 POP SWAP3 SWAP1 POP JUMP JUMPDEST PUSH1 0x0 DUP1 PUSH1 0x40 DUP4 DUP6 SUB SLT ISZERO PUSH2 0x44B1 JUMPI PUSH2 0x44B0 PUSH2 0x4BBD JUMP JUMPDEST JUMPDEST PUSH1 0x0 PUSH2 0x44BF DUP6 DUP3 DUP7 ADD PUSH2 0x435F JUMP JUMPDEST SWAP3 POP POP PUSH1 0x20 PUSH2 0x44D0 DUP6 DUP3 DUP7 ADD PUSH2 0x439E JUMP JUMPDEST SWAP2 POP POP SWAP3 POP SWAP3 SWAP1 POP JUMP JUMPDEST PUSH1 0x0 PUSH1 0x20 DUP3 DUP5 SUB SLT ISZERO PUSH2 0x44F0 JUMPI PUSH2 0x44EF PUSH2 0x4BBD JUMP JUMPDEST JUMPDEST PUSH1 0x0 PUSH2 0x44FE DUP5 DUP3 DUP6 ADD PUSH2 0x4389 JUMP JUMPDEST SWAP2 POP POP SWAP3 SWAP2 POP POP JUMP JUMPDEST PUSH1 0x0 PUSH1 0x20 DUP3 DUP5 SUB SLT ISZERO PUSH2 0x451D JUMPI PUSH2 0x451C PUSH2 0x4BBD JUMP JUMPDEST JUMPDEST PUSH1 0x0 PUSH2 0x452B DUP5 DUP3 DUP6 ADD PUSH2 0x439E JUMP JUMPDEST SWAP2 POP POP SWAP3 SWAP2 POP POP JUMP JUMPDEST PUSH1 0x0 DUP1 PUSH1 0x0 PUSH1 0x60 DUP5 DUP7 SUB SLT ISZERO PUSH2 0x454D JUMPI PUSH2 0x454C PUSH2 0x4BBD JUMP JUMPDEST JUMPDEST PUSH1 0x0 PUSH2 0x455B DUP7 DUP3 DUP8 ADD PUSH2 0x439E JUMP JUMPDEST SWAP4 POP POP PUSH1 0x20 PUSH2 0x456C DUP7 DUP3 DUP8 ADD PUSH2 0x435F JUMP JUMPDEST SWAP3 POP POP PUSH1 0x40 PUSH2 0x457D DUP7 DUP3 DUP8 ADD PUSH2 0x435F JUMP JUMPDEST SWAP2 POP POP SWAP3 POP SWAP3 POP SWAP3 JUMP JUMPDEST PUSH1 0x0 DUP1 PUSH1 0x0 PUSH1 0x60 DUP5 DUP7 SUB SLT ISZERO PUSH2 0x45A0 JUMPI PUSH2 0x459F PUSH2 0x4BBD JUMP JUMPDEST JUMPDEST PUSH1 0x0 PUSH2 0x45AE DUP7 DUP3 DUP8 ADD PUSH2 0x439E JUMP JUMPDEST SWAP4 POP POP PUSH1 0x20 PUSH2 0x45BF DUP7 DUP3 DUP8 ADD PUSH2 0x439E JUMP JUMPDEST SWAP3 POP POP PUSH1 0x40 PUSH2 0x45D0 DUP7 DUP3 DUP8 ADD PUSH2 0x435F JUMP JUMPDEST SWAP2 POP POP SWAP3 POP SWAP3 POP SWAP3 JUMP JUMPDEST PUSH1 0x0 DUP1 PUSH1 0x0 DUP1 PUSH1 0x80 DUP6 DUP8 SUB SLT ISZERO PUSH2 0x45F4 JUMPI PUSH2 0x45F3 PUSH2 0x4BBD JUMP JUMPDEST JUMPDEST PUSH1 0x0 PUSH2 0x4602 DUP8 DUP3 DUP9 ADD PUSH2 0x439E JUMP JUMPDEST SWAP5 POP POP PUSH1 0x20 PUSH2 0x4613 DUP8 DUP3 DUP9 ADD PUSH2 0x439E JUMP JUMPDEST SWAP4 POP POP PUSH1 0x40 PUSH2 0x4624 DUP8 DUP3 DUP9 ADD PUSH2 0x4374 JUMP JUMPDEST SWAP3 POP POP PUSH1 0x60 PUSH2 0x4635 DUP8 DUP3 DUP9 ADD PUSH2 0x435F JUMP JUMPDEST SWAP2 POP POP SWAP3 SWAP6 SWAP2 SWAP5 POP SWAP3 POP JUMP JUMPDEST PUSH2 0x464A DUP2 PUSH2 0x4AA8 JUMP JUMPDEST DUP3 MSTORE POP POP JUMP JUMPDEST PUSH2 0x4659 DUP2 PUSH2 0x4ABA JUMP JUMPDEST DUP3 MSTORE POP POP JUMP JUMPDEST PUSH1 0x0 PUSH2 0x466A DUP3 PUSH2 0x47FB JUMP JUMPDEST PUSH2 0x4674 DUP2 DUP6 PUSH2 0x4806 JUMP JUMPDEST SWAP4 POP PUSH2 0x4684 DUP2 DUP6 PUSH1 0x20 DUP7 ADD PUSH2 0x4AFD JUMP JUMPDEST DUP1 DUP5 ADD SWAP2 POP POP SWAP3 SWAP2 POP POP JUMP JUMPDEST PUSH1 0x0 PUSH2 0x469D PUSH1 0xF DUP4 PUSH2 0x4811 JUMP JUMPDEST SWAP2 POP PUSH2 0x46A8 DUP3 PUSH2 0x4BCF JUMP JUMPDEST PUSH1 0x20 DUP3 ADD SWAP1 POP SWAP2 SWAP1 POP JUMP JUMPDEST PUSH1 0x0 PUSH2 0x46C0 PUSH1 0x6 DUP4 PUSH2 0x4811 JUMP JUMPDEST SWAP2 POP PUSH2 0x46CB DUP3 PUSH2 0x4BF8 JUMP JUMPDEST PUSH1 0x20 DUP3 ADD SWAP1 POP SWAP2 SWAP1 POP JUMP JUMPDEST PUSH2 0x46DF DUP2 PUSH2 0x4AE6 JUMP JUMPDEST DUP3 MSTORE POP POP JUMP JUMPDEST PUSH1 0x0 PUSH2 0x46F1 DUP3 DUP5 PUSH2 0x465F JUMP JUMPDEST SWAP2 POP DUP2 SWAP1 POP SWAP3 SWAP2 POP POP JUMP JUMPDEST PUSH1 0x0 PUSH1 0x20 DUP3 ADD SWAP1 POP PUSH2 0x4711 PUSH1 0x0 DUP4 ADD DUP5 PUSH2 0x4641 JUMP JUMPDEST SWAP3 SWAP2 POP POP JUMP JUMPDEST PUSH1 0x0 PUSH1 0x80 DUP3 ADD SWAP1 POP PUSH2 0x472C PUSH1 0x0 DUP4 ADD DUP8 PUSH2 0x4641 JUMP JUMPDEST PUSH2 0x4739 PUSH1 0x20 DUP4 ADD DUP7 PUSH2 0x4650 JUMP JUMPDEST PUSH2 0x4746 PUSH1 0x40 DUP4 ADD DUP6 PUSH2 0x46D6 JUMP JUMPDEST PUSH2 0x4753 PUSH1 0x60 DUP4 ADD DUP5 PUSH2 0x46D6 JUMP JUMPDEST SWAP6 SWAP5 POP POP POP POP POP JUMP JUMPDEST PUSH1 0x0 PUSH1 0x40 DUP3 ADD SWAP1 POP PUSH2 0x4771 PUSH1 0x0 DUP4 ADD DUP6 PUSH2 0x4641 JUMP JUMPDEST PUSH2 0x477E PUSH1 0x20 DUP4 ADD DUP5 PUSH2 0x46D6 JUMP JUMPDEST SWAP4 SWAP3 POP POP POP JUMP JUMPDEST PUSH1 0x0 PUSH1 0x20 DUP3 ADD SWAP1 POP PUSH2 0x479A PUSH1 0x0 DUP4 ADD DUP5 PUSH2 0x4650 JUMP JUMPDEST SWAP3 SWAP2 POP POP JUMP JUMPDEST PUSH1 0x0 PUSH1 0x20 DUP3 ADD SWAP1 POP DUP2 DUP2 SUB PUSH1 0x0 DUP4 ADD MSTORE PUSH2 0x47B9 DUP2 PUSH2 0x4690 JUMP JUMPDEST SWAP1 POP SWAP2 SWAP1 POP JUMP JUMPDEST PUSH1 0x0 PUSH1 0x20 DUP3 ADD SWAP1 POP DUP2 DUP2 SUB PUSH1 0x0 DUP4 ADD MSTORE PUSH2 0x47D9 DUP2 PUSH2 0x46B3 JUMP JUMPDEST SWAP1 POP SWAP2 SWAP1 POP JUMP JUMPDEST PUSH1 0x0 PUSH1 0x20 DUP3 ADD SWAP1 POP PUSH2 0x47F5 PUSH1 0x0 DUP4 ADD DUP5 PUSH2 0x46D6 JUMP JUMPDEST SWAP3 SWAP2 POP POP JUMP JUMPDEST PUSH1 0x0 DUP2 MLOAD SWAP1 POP SWAP2 SWAP1 POP JUMP JUMPDEST PUSH1 0x0 DUP2 SWAP1 POP SWAP3 SWAP2 POP POP JUMP JUMPDEST PUSH1 0x0 DUP3 DUP3 MSTORE PUSH1 0x20 DUP3 ADD SWAP1 POP SWAP3 SWAP2 POP POP JUMP JUMPDEST PUSH1 0x0 PUSH2 0x482D DUP3 PUSH2 0x4AE6 JUMP JUMPDEST SWAP2 POP PUSH2 0x4838 DUP4 PUSH2 0x4AE6 JUMP JUMPDEST SWAP3 POP DUP3 PUSH32 0xFFFFFFFFFFFFFFFFFFFFFFFFFFFFFFFFFFFFFFFFFFFFFFFFFFFFFFFFFFFFFFFF SUB DUP3 GT ISZERO PUSH2 0x486D JUMPI PUSH2 0x486C PUSH2 0x4B30 JUMP JUMPDEST JUMPDEST DUP3 DUP3 ADD SWAP1 POP SWAP3 SWAP2 POP POP JUMP JUMPDEST PUSH1 0x0 PUSH2 0x4883 DUP3 PUSH2 0x4AE6 JUMP JUMPDEST SWAP2 POP PUSH2 0x488E DUP4 PUSH2 0x4AE6 JUMP JUMPDEST SWAP3 POP DUP3 PUSH2 0x489E JUMPI PUSH2 0x489D PUSH2 0x4B5F JUMP JUMPDEST JUMPDEST DUP3 DUP3 DIV SWAP1 POP SWAP3 SWAP2 POP POP JUMP JUMPDEST PUSH1 0x0 DUP1 DUP3 SWAP2 POP DUP4 SWAP1 POP JUMPDEST PUSH1 0x1 DUP6 GT ISZERO PUSH2 0x48F3 JUMPI DUP1 DUP7 DIV DUP2 GT ISZERO PUSH2 0x48CF JUMPI PUSH2 0x48CE PUSH2 0x4B30 JUMP JUMPDEST JUMPDEST PUSH1 0x1 DUP6 AND ISZERO PUSH2 0x48DE JUMPI DUP1 DUP3 MUL SWAP2 POP JUMPDEST DUP1 DUP2 MUL SWAP1 POP PUSH2 0x48EC DUP6 PUSH2 0x4BC2 JUMP JUMPDEST SWAP5 POP PUSH2 0x48B3 JUMP JUMPDEST SWAP5 POP SWAP5 SWAP3 POP POP POP JUMP JUMPDEST PUSH1 0x0 PUSH2 0x4907 DUP3 PUSH2 0x4AE6 JUMP JUMPDEST SWAP2 POP PUSH2 0x4912 DUP4 PUSH2 0x4AF0 JUMP JUMPDEST SWAP3 POP PUSH2 0x493F PUSH32 0xFFFFFFFFFFFFFFFFFFFFFFFFFFFFFFFFFFFFFFFFFFFFFFFFFFFFFFFFFFFFFFFF DUP5 DUP5 PUSH2 0x4947 JUMP JUMPDEST SWAP1 POP SWAP3 SWAP2 POP POP JUMP JUMPDEST PUSH1 0x0 DUP3 PUSH2 0x4957 JUMPI PUSH1 0x1 SWAP1 POP PUSH2 0x4A13 JUMP JUMPDEST DUP2 PUSH2 0x4965 JUMPI PUSH1 0x0 SWAP1 POP PUSH2 0x4A13 JUMP JUMPDEST DUP2 PUSH1 0x1 DUP2 EQ PUSH2 0x497B JUMPI PUSH1 0x2 DUP2 EQ PUSH2 0x4985 JUMPI PUSH2 0x49B4 JUMP JUMPDEST PUSH1 0x1 SWAP2 POP POP PUSH2 0x4A13 JUMP JUMPDEST PUSH1 0xFF DUP5 GT ISZERO PUSH2 0x4997 JUMPI PUSH2 0x4996 PUSH2 0x4B30 JUMP JUMPDEST JUMPDEST DUP4 PUSH1 0x2 EXP SWAP2 POP DUP5 DUP3 GT ISZERO PUSH2 0x49AE JUMPI PUSH2 0x49AD PUSH2 0x4B30 JUMP JUMPDEST JUMPDEST POP PUSH2 0x4A13 JUMP JUMPDEST POP PUSH1 0x20 DUP4 LT PUSH2 0x133 DUP4 LT AND PUSH1 0x4E DUP5 LT PUSH1 0xB DUP5 LT AND OR ISZERO PUSH2 0x49E9 JUMPI DUP3 DUP3 EXP SWAP1 POP DUP4 DUP2 GT ISZERO PUSH2 0x49E4 JUMPI PUSH2 0x49E3 PUSH2 0x4B30 JUMP JUMPDEST JUMPDEST PUSH2 0x4A13 JUMP JUMPDEST PUSH2 0x49F6 DUP5 DUP5 DUP5 PUSH1 0x1 PUSH2 0x48A9 JUMP JUMPDEST SWAP3 POP SWAP1 POP DUP2 DUP5 DIV DUP2 GT ISZERO PUSH2 0x4A0D JUMPI PUSH2 0x4A0C PUSH2 0x4B30 JUMP JUMPDEST JUMPDEST DUP2 DUP2 MUL SWAP1 POP JUMPDEST SWAP4 SWAP3 POP POP POP JUMP JUMPDEST PUSH1 0x0 PUSH2 0x4A25 DUP3 PUSH2 0x4AE6 JUMP JUMPDEST SWAP2 POP PUSH2 0x4A30 DUP4 PUSH2 0x4AE6 JUMP JUMPDEST SWAP3 POP DUP2 PUSH32 0xFFFFFFFFFFFFFFFFFFFFFFFFFFFFFFFFFFFFFFFFFFFFFFFFFFFFFFFFFFFFFFFF DIV DUP4 GT DUP3 ISZERO ISZERO AND ISZERO PUSH2 0x4A69 JUMPI PUSH2 0x4A68 PUSH2 0x4B30 JUMP JUMPDEST JUMPDEST DUP3 DUP3 MUL SWAP1 POP SWAP3 SWAP2 POP POP JUMP JUMPDEST PUSH1 0x0 PUSH2 0x4A7F DUP3 PUSH2 0x4AE6 JUMP JUMPDEST SWAP2 POP PUSH2 0x4A8A DUP4 PUSH2 0x4AE6 JUMP JUMPDEST SWAP3 POP DUP3 DUP3 LT ISZERO PUSH2 0x4A9D JUMPI PUSH2 0x4A9C PUSH2 0x4B30 JUMP JUMPDEST JUMPDEST DUP3 DUP3 SUB SWAP1 POP SWAP3 SWAP2 POP POP JUMP JUMPDEST PUSH1 0x0 PUSH2 0x4AB3 DUP3 PUSH2 0x4AC6 JUMP JUMPDEST SWAP1 POP SWAP2 SWAP1 POP JUMP JUMPDEST PUSH1 0x0 DUP2 ISZERO ISZERO SWAP1 POP SWAP2 SWAP1 POP JUMP JUMPDEST PUSH1 0x0 PUSH20 0xFFFFFFFFFFFFFFFFFFFFFFFFFFFFFFFFFFFFFFFF DUP3 AND SWAP1 POP SWAP2 SWAP1 POP JUMP JUMPDEST PUSH1 0x0 DUP2 SWAP1 POP SWAP2 SWAP1 POP JUMP JUMPDEST PUSH1 0x0 PUSH1 0xFF DUP3 AND SWAP1 POP SWAP2 SWAP1 POP JUMP JUMPDEST PUSH1 0x0 JUMPDEST DUP4 DUP2 LT ISZERO PUSH2 0x4B1B JUMPI DUP1 DUP3 ADD MLOAD DUP2 DUP5 ADD MSTORE PUSH1 0x20 DUP2 ADD SWAP1 POP PUSH2 0x4B00 JUMP JUMPDEST DUP4 DUP2 GT ISZERO PUSH2 0x4B2A JUMPI PUSH1 0x0 DUP5 DUP5 ADD MSTORE JUMPDEST POP POP POP POP JUMP JUMPDEST PUSH32 0x4E487B7100000000000000000000000000000000000000000000000000000000 PUSH1 0x0 MSTORE PUSH1 0x11 PUSH1 0x4 MSTORE PUSH1 0x24 PUSH1 0x0 REVERT JUMPDEST PUSH32 0x4E487B7100000000000000000000000000000000000000000000000000000000 PUSH1 0x0 MSTORE PUSH1 0x12 PUSH1 0x4 MSTORE PUSH1 0x24 PUSH1 0x0 REVERT JUMPDEST PUSH32 0x4E487B7100000000000000000000000000000000000000000000000000000000 PUSH1 0x0 MSTORE PUSH1 0x32 PUSH1 0x4 MSTORE PUSH1 0x24 PUSH1 0x0 REVERT JUMPDEST PUSH1 0x0 DUP1 REVERT JUMPDEST PUSH1 0x0 DUP2 PUSH1 0x1 SHR SWAP1 POP SWAP2 SWAP1 POP JUMP JUMPDEST PUSH32 0x5452414E534645525F4641494C45440000000000000000000000000000000000 PUSH1 0x0 DUP3 ADD MSTORE POP JUMP JUMPDEST PUSH32 0x4C4F434B45440000000000000000000000000000000000000000000000000000 PUSH1 0x0 DUP3 ADD MSTORE POP JUMP JUMPDEST PUSH2 0x4C2A DUP2 PUSH2 0x4AA8 JUMP JUMPDEST DUP2 EQ PUSH2 0x4C35 JUMPI PUSH1 0x0 DUP1 REVERT JUMPDEST POP JUMP JUMPDEST PUSH2 0x4C41 DUP2 PUSH2 0x4ABA JUMP JUMPDEST DUP2 EQ PUSH2 0x4C4C JUMPI PUSH1 0x0 DUP1 REVERT JUMPDEST POP JUMP JUMPDEST PUSH2 0x4C58 DUP2 PUSH2 0x4AE6 JUMP JUMPDEST DUP2 EQ PUSH2 0x4C63 JUMPI PUSH1 0x0 DUP1 REVERT JUMPDEST POP JUMP INVALID LOG2 PUSH5 0x6970667358 0x22 SLT KECCAK256 SWAP12 SWAP5 PUSH3 0x92841B PUSH4 0x698EF681 SWAP5 PUSH22 0x509ECD1A86F45747E69A743C8A2E02B885407664736F PUSH13 0x63430008070033000000000000 "
		},
		"gasEstimates": {
			"creation": {
				"codeDepositCost": "3922400",
				"executionCost": "48674",
				"totalCost": "3971074"
			},
			"external": {
				"B()": "2563",
				"D()": "2520",
				"D0()": "2539",
				"_addr()": "2648",
				"addMargin(uint256,address,address)": "infinite",
				"baserate()": "2495",
				"const18()": "2475",
				"coordX()": "2563",
				"coordY()": "2541",
				"debtIndex(address,bool)": "infinite",
				"factory()": "2603",
				"getpX()": "2540",
				"getpY()": "2562",
				"lastFunding()": "2583",
				"lastFundingTime()": "2541",
				"lastPayingSide()": "2582",
				"leverageMax()": "2584",
				"liquidate(address,address)": "infinite",
				"liquidationBonus()": "2562",
				"liquidationRate()": "2518",
				"marginIndex(address,uint256)": "infinite",
				"marginLeverage()": "2517",
				"marginReserve(uint256)": "infinite",
				"peqX()": "2496",
				"peqY()": "2496",
				"perpClose(uint256,uint256,address)": "infinite",
				"perpFee()": "2519",
				"perpOpen(uint256,uint256,bool,address)": "infinite",
				"priceLocal()": "2475",
				"swapFee()": "2497",
				"tickrange()": "2561",
				"tokenX()": "2649",
				"tokenY()": "2669",
				"totalDebtX()": "2584",
				"totalDebtY()": "2474",
				"totalDebttokenX()": "2497",
				"totalDebttokenY()": "2476",
				"totalLiquidity()": "2542",
				"trueLiquidX()": "2474",
				"trueLiquidX0()": "2496",
				"trueLiquidY()": "2475",
				"trueLiquidY0()": "2473",
				"twoWhite()": "2561",
				"upperFunding8H()": "2540",
				"withdrawMargin(address,address,address,uint256)": "infinite"
			},
			"internal": {
				"_refreshTotalbook()": "infinite",
				"_safeTransfer(address,address,uint256)": "infinite",
				"_tradeXToY(uint256,bool,uint256)": "infinite",
				"_tradeYToX(uint256,bool,uint256)": "infinite",
				"_virtualLiquidityUpdate()": "infinite",
				"netDebt(address)": "infinite",
				"netMargin(address)": "infinite",
				"netPosition(address)": "infinite"
			}
		},
		"methodIdentifiers": {
			"B()": "32e7c5bf",
			"D()": "0f529ba2",
			"D0()": "f738c74e",
			"_addr()": "62ab1a77",
			"addMargin(uint256,address,address)": "b3402869",
			"baserate()": "ef0348fd",
			"const18()": "7e11939a",
			"coordX()": "8ca63e6f",
			"coordY()": "8c4008e9",
			"debtIndex(address,bool)": "2c4426ad",
			"factory()": "c45a0155",
			"getpX()": "77fef068",
			"getpY()": "d873fa7b",
			"lastFunding()": "fcbc49a0",
			"lastFundingTime()": "321d7fa9",
			"lastPayingSide()": "a79e6f9c",
			"leverageMax()": "e07b877a",
			"liquidate(address,address)": "86b9d81f",
			"liquidationBonus()": "7b7c1f4c",
			"liquidationRate()": "a71e8644",
			"marginIndex(address,uint256)": "367401db",
			"marginLeverage()": "f13c7aed",
			"marginReserve(uint256)": "0e449559",
			"peqX()": "be6571aa",
			"peqY()": "a37b1918",
			"perpClose(uint256,uint256,address)": "617d3b90",
			"perpFee()": "5784c8c4",
			"perpOpen(uint256,uint256,bool,address)": "748f00dc",
			"priceLocal()": "29baf8d9",
			"swapFee()": "54cf2aeb",
			"tickrange()": "f92e82b0",
			"tokenX()": "16dc165b",
			"tokenY()": "b7d19fc4",
			"totalDebtX()": "7bb62450",
			"totalDebtY()": "a01fbbf5",
			"totalDebttokenX()": "803042ac",
			"totalDebttokenY()": "0751a6c8",
			"totalLiquidity()": "15770f92",
			"trueLiquidX()": "b868504b",
			"trueLiquidX0()": "713370fc",
			"trueLiquidY()": "5091fadd",
			"trueLiquidY0()": "e159394f",
			"twoWhite()": "31fa66b2",
			"upperFunding8H()": "c556c363",
			"withdrawMargin(address,address,address,uint256)": "6bf8be75"
		}
	},
	"abi": [
		{
			"inputs": [],
			"name": "B",
			"outputs": [
				{
					"internalType": "uint256",
					"name": "",
					"type": "uint256"
				}
			],
			"stateMutability": "view",
			"type": "function"
		},
		{
			"inputs": [],
			"name": "D",
			"outputs": [
				{
					"internalType": "uint256",
					"name": "",
					"type": "uint256"
				}
			],
			"stateMutability": "view",
			"type": "function"
		},
		{
			"inputs": [],
			"name": "D0",
			"outputs": [
				{
					"internalType": "uint256",
					"name": "",
					"type": "uint256"
				}
			],
			"stateMutability": "view",
			"type": "function"
		},
		{
			"inputs": [],
			"name": "_addr",
			"outputs": [
				{
					"internalType": "address",
					"name": "",
					"type": "address"
				}
			],
			"stateMutability": "view",
			"type": "function"
		},
		{
			"inputs": [
				{
					"internalType": "uint256",
					"name": "newMargin",
					"type": "uint256"
				},
				{
					"internalType": "address",
					"name": "tokenID",
					"type": "address"
				},
				{
					"internalType": "address",
					"name": "userID",
					"type": "address"
				}
			],
			"name": "addMargin",
			"outputs": [],
			"stateMutability": "nonpayable",
			"type": "function"
		},
		{
			"inputs": [],
			"name": "baserate",
			"outputs": [
				{
					"internalType": "uint256",
					"name": "",
					"type": "uint256"
				}
			],
			"stateMutability": "view",
			"type": "function"
		},
		{
			"inputs": [],
			"name": "const18",
			"outputs": [
				{
					"internalType": "uint256",
					"name": "",
					"type": "uint256"
				}
			],
			"stateMutability": "view",
			"type": "function"
		},
		{
			"inputs": [],
			"name": "coordX",
			"outputs": [
				{
					"internalType": "uint256",
					"name": "",
					"type": "uint256"
				}
			],
			"stateMutability": "view",
			"type": "function"
		},
		{
			"inputs": [],
			"name": "coordY",
			"outputs": [
				{
					"internalType": "uint256",
					"name": "",
					"type": "uint256"
				}
			],
			"stateMutability": "view",
			"type": "function"
		},
		{
			"inputs": [
				{
					"internalType": "address",
					"name": "",
					"type": "address"
				},
				{
					"internalType": "bool",
					"name": "",
					"type": "bool"
				}
			],
			"name": "debtIndex",
			"outputs": [
				{
					"internalType": "address",
					"name": "user_ID",
					"type": "address"
				},
				{
					"internalType": "bool",
					"name": "token_ID",
					"type": "bool"
				},
				{
					"internalType": "uint256",
					"name": "debttokenAmount",
					"type": "uint256"
				},
				{
					"internalType": "uint256",
					"name": "positionAmount",
					"type": "uint256"
				}
			],
			"stateMutability": "view",
			"type": "function"
		},
		{
			"inputs": [],
			"name": "factory",
			"outputs": [
				{
					"internalType": "address",
					"name": "",
					"type": "address"
				}
			],
			"stateMutability": "view",
			"type": "function"
		},
		{
			"inputs": [],
			"name": "getpX",
			"outputs": [
				{
					"internalType": "uint256",
					"name": "",
					"type": "uint256"
				}
			],
			"stateMutability": "view",
			"type": "function"
		},
		{
			"inputs": [],
			"name": "getpY",
			"outputs": [
				{
					"internalType": "uint256",
					"name": "",
					"type": "uint256"
				}
			],
			"stateMutability": "view",
			"type": "function"
		},
		{
			"inputs": [],
			"name": "lastFunding",
			"outputs": [
				{
					"internalType": "uint256",
					"name": "",
					"type": "uint256"
				}
			],
			"stateMutability": "view",
			"type": "function"
		},
		{
			"inputs": [],
			"name": "lastFundingTime",
			"outputs": [
				{
					"internalType": "uint256",
					"name": "",
					"type": "uint256"
				}
			],
			"stateMutability": "view",
			"type": "function"
		},
		{
			"inputs": [],
			"name": "lastPayingSide",
			"outputs": [
				{
					"internalType": "bool",
					"name": "",
					"type": "bool"
				}
			],
			"stateMutability": "view",
			"type": "function"
		},
		{
			"inputs": [],
			"name": "leverageMax",
			"outputs": [
				{
					"internalType": "uint256",
					"name": "",
					"type": "uint256"
				}
			],
			"stateMutability": "view",
			"type": "function"
		},
		{
			"inputs": [
				{
					"internalType": "address",
					"name": "userID",
					"type": "address"
				},
				{
					"internalType": "address",
					"name": "_to",
					"type": "address"
				}
			],
			"name": "liquidate",
			"outputs": [],
			"stateMutability": "nonpayable",
			"type": "function"
		},
		{
			"inputs": [],
			"name": "liquidationBonus",
			"outputs": [
				{
					"internalType": "uint256",
					"name": "",
					"type": "uint256"
				}
			],
			"stateMutability": "view",
			"type": "function"
		},
		{
			"inputs": [],
			"name": "liquidationRate",
			"outputs": [
				{
					"internalType": "uint256",
					"name": "",
					"type": "uint256"
				}
			],
			"stateMutability": "view",
			"type": "function"
		},
		{
			"inputs": [
				{
					"internalType": "address",
					"name": "",
					"type": "address"
				},
				{
					"internalType": "uint256",
					"name": "",
					"type": "uint256"
				}
			],
			"name": "marginIndex",
			"outputs": [
				{
					"internalType": "uint256",
					"name": "",
					"type": "uint256"
				}
			],
			"stateMutability": "view",
			"type": "function"
		},
		{
			"inputs": [],
			"name": "marginLeverage",
			"outputs": [
				{
					"internalType": "uint256",
					"name": "",
					"type": "uint256"
				}
			],
			"stateMutability": "view",
			"type": "function"
		},
		{
			"inputs": [
				{
					"internalType": "uint256",
					"name": "",
					"type": "uint256"
				}
			],
			"name": "marginReserve",
			"outputs": [
				{
					"internalType": "uint256",
					"name": "",
					"type": "uint256"
				}
			],
			"stateMutability": "view",
			"type": "function"
		},
		{
			"inputs": [],
			"name": "peqX",
			"outputs": [
				{
					"internalType": "uint256",
					"name": "",
					"type": "uint256"
				}
			],
			"stateMutability": "view",
			"type": "function"
		},
		{
			"inputs": [],
			"name": "peqY",
			"outputs": [
				{
					"internalType": "uint256",
					"name": "",
					"type": "uint256"
				}
			],
			"stateMutability": "view",
			"type": "function"
		},
		{
			"inputs": [
				{
					"internalType": "uint256",
					"name": "deltaX",
					"type": "uint256"
				},
				{
					"internalType": "uint256",
					"name": "deltaY",
					"type": "uint256"
				},
				{
					"internalType": "address",
					"name": "userID",
					"type": "address"
				}
			],
			"name": "perpClose",
			"outputs": [],
			"stateMutability": "nonpayable",
			"type": "function"
		},
		{
			"inputs": [],
			"name": "perpFee",
			"outputs": [
				{
					"internalType": "uint256",
					"name": "",
					"type": "uint256"
				}
			],
			"stateMutability": "view",
			"type": "function"
		},
		{
			"inputs": [
				{
					"internalType": "uint256",
					"name": "deltaX",
					"type": "uint256"
				},
				{
					"internalType": "uint256",
					"name": "deltaY",
					"type": "uint256"
				},
				{
					"internalType": "bool",
					"name": "XtoY",
					"type": "bool"
				},
				{
					"internalType": "address",
					"name": "userID",
					"type": "address"
				}
			],
			"name": "perpOpen",
			"outputs": [],
			"stateMutability": "nonpayable",
			"type": "function"
		},
		{
			"inputs": [],
			"name": "priceLocal",
			"outputs": [
				{
					"internalType": "uint256",
					"name": "",
					"type": "uint256"
				}
			],
			"stateMutability": "view",
			"type": "function"
		},
		{
			"inputs": [],
			"name": "swapFee",
			"outputs": [
				{
					"internalType": "uint256",
					"name": "",
					"type": "uint256"
				}
			],
			"stateMutability": "view",
			"type": "function"
		},
		{
			"inputs": [],
			"name": "tickrange",
			"outputs": [
				{
					"internalType": "uint256",
					"name": "",
					"type": "uint256"
				}
			],
			"stateMutability": "view",
			"type": "function"
		},
		{
			"inputs": [],
			"name": "tokenX",
			"outputs": [
				{
					"internalType": "address",
					"name": "",
					"type": "address"
				}
			],
			"stateMutability": "view",
			"type": "function"
		},
		{
			"inputs": [],
			"name": "tokenY",
			"outputs": [
				{
					"internalType": "address",
					"name": "",
					"type": "address"
				}
			],
			"stateMutability": "view",
			"type": "function"
		},
		{
			"inputs": [],
			"name": "totalDebtX",
			"outputs": [
				{
					"internalType": "uint256",
					"name": "",
					"type": "uint256"
				}
			],
			"stateMutability": "view",
			"type": "function"
		},
		{
			"inputs": [],
			"name": "totalDebtY",
			"outputs": [
				{
					"internalType": "uint256",
					"name": "",
					"type": "uint256"
				}
			],
			"stateMutability": "view",
			"type": "function"
		},
		{
			"inputs": [],
			"name": "totalDebttokenX",
			"outputs": [
				{
					"internalType": "uint256",
					"name": "",
					"type": "uint256"
				}
			],
			"stateMutability": "view",
			"type": "function"
		},
		{
			"inputs": [],
			"name": "totalDebttokenY",
			"outputs": [
				{
					"internalType": "uint256",
					"name": "",
					"type": "uint256"
				}
			],
			"stateMutability": "view",
			"type": "function"
		},
		{
			"inputs": [],
			"name": "totalLiquidity",
			"outputs": [
				{
					"internalType": "uint256",
					"name": "",
					"type": "uint256"
				}
			],
			"stateMutability": "view",
			"type": "function"
		},
		{
			"inputs": [],
			"name": "trueLiquidX",
			"outputs": [
				{
					"internalType": "uint256",
					"name": "",
					"type": "uint256"
				}
			],
			"stateMutability": "view",
			"type": "function"
		},
		{
			"inputs": [],
			"name": "trueLiquidX0",
			"outputs": [
				{
					"internalType": "uint256",
					"name": "",
					"type": "uint256"
				}
			],
			"stateMutability": "view",
			"type": "function"
		},
		{
			"inputs": [],
			"name": "trueLiquidY",
			"outputs": [
				{
					"internalType": "uint256",
					"name": "",
					"type": "uint256"
				}
			],
			"stateMutability": "view",
			"type": "function"
		},
		{
			"inputs": [],
			"name": "trueLiquidY0",
			"outputs": [
				{
					"internalType": "uint256",
					"name": "",
					"type": "uint256"
				}
			],
			"stateMutability": "view",
			"type": "function"
		},
		{
			"inputs": [],
			"name": "twoWhite",
			"outputs": [
				{
					"internalType": "bool",
					"name": "",
					"type": "bool"
				}
			],
			"stateMutability": "view",
			"type": "function"
		},
		{
			"inputs": [],
			"name": "upperFunding8H",
			"outputs": [
				{
					"internalType": "uint256",
					"name": "",
					"type": "uint256"
				}
			],
			"stateMutability": "view",
			"type": "function"
		},
		{
			"inputs": [
				{
					"internalType": "address",
					"name": "userID",
					"type": "address"
				},
				{
					"internalType": "address",
					"name": "tokenID",
					"type": "address"
				},
				{
					"internalType": "address",
					"name": "to",
					"type": "address"
				},
				{
					"internalType": "uint256",
					"name": "amount",
					"type": "uint256"
				}
			],
			"name": "withdrawMargin",
			"outputs": [],
			"stateMutability": "nonpayable",
			"type": "function"
		}
	]
}