{
	"data": {
		"bytecode": {
			"linkReferences": {},
			"object": "6080604052670de0b6b3a7640000602c556001602f553480156200002257600080fd5b5060004690507f8b73c3c69bb8fe3d512ecc4cf759cc79239f7b179b0ffacaa9a75d522b39400f6040518060400160405280600a81526020017f556e697377617020563200000000000000000000000000000000000000000000815250805190602001206040518060400160405280600181526020017f3100000000000000000000000000000000000000000000000000000000000000815250805190602001208330604051602001620000db95949392919062000172565b604051602081830303815290604052805190602001206003819055505033602560006101000a81548173ffffffffffffffffffffffffffffffffffffffff021916908373ffffffffffffffffffffffffffffffffffffffff16021790555062000217565b6200014a81620001cf565b82525050565b6200015b81620001e3565b82525050565b6200016c816200020d565b82525050565b600060a08201905062000189600083018862000150565b62000198602083018762000150565b620001a7604083018662000150565b620001b6606083018562000161565b620001c560808301846200013f565b9695505050505050565b6000620001dc82620001ed565b9050919050565b6000819050919050565b600073ffffffffffffffffffffffffffffffffffffffff82169050919050565b6000819050919050565b6166ae80620002276000396000f3fe608060405234801561001057600080fd5b50600436106104065760003560e01c80637e11939a11610220578063bc25cf7711610130578063ddca3f43116100b8578063f70f439411610087578063f70f439414610c32578063f738c74e14610c50578063fc69b80f14610c6e578063fe18f26114610c9e578063ff2f169e14610cbc57610406565b8063ddca3f4314610bba578063df0ab2c214610bd8578063e19a147414610bf6578063ea1797b014610c1457610406565b8063c9e525df116100ff578063c9e525df14610b16578063cfe38a5e14610b34578063d44022db14610b50578063d505accf14610b6e578063dd62ed3e14610b8a57610406565b8063bc25cf7714610aa2578063c3d81b2114610abe578063c45a015514610ada578063c7d4493214610af857610406565b80638cf825e7116101b35780639a36e122116101825780639a36e122146109fa578063a5aa65b914610a18578063a9059cbb14610a36578063acd4a7c214610a66578063b7d19fc414610a8457610406565b80638cf825e7146109865780638e361389146109a25780639076ae86146109c057806395d89b41146109dc57610406565b806380416c02116101ef57806380416c021461090e57806383dfe5fd1461092c578063840096861461094a5780638bc1a32f1461096857610406565b80637e11939a1461086f5780637e1431be1461088d5780637ecebe00146108c05780637ed6281b146108f057610406565b806330adf81f1161031b5780634c324e6a116102ae5780636607e7e81161027d5780636607e7e8146107b45780636665ff11146107d25780636b3545aa1461080357806370a082311461082157806379dbf8ea1461085157610406565b80634c324e6a1461072c5780635595d459146107485780635e287d86146107665780636126deef1461078457610406565b806336af2f9b116102ea57806336af2f9b146106b65780633c6fe2f4146106d4578063480c4f7e146106f2578063485cc9551461071057610406565b806330adf81f1461063e578063313ce5671461065c57806332e7c5bf1461067a5780633644e5151461069857610406565b806318160ddd1161039e578063225c2c501161036d578063225c2c501461059557806323b872dd146105b357806323ed16b6146105e35780632dd6c2541461060157806330688ab81461061f57610406565b806318160ddd1461050b57806318db9681146105295780631cbdffd1146105475780632190219e1461057757610406565b80630bfa68d8116103da5780630bfa68d8146104955780630f529ba2146104b1578063139860ee146104cf57806316dc165b146104ed57610406565b8062b526451461040b57806306fdde0314610429578063095ea7b3146104475780630b19761514610477575b600080fd5b610413610cd8565b6040516104209190616006565b60405180910390f35b610431610cde565b60405161043e9190615f04565b60405180910390f35b610461600480360381019061045c91906159ac565b610d17565b60405161046e9190615e28565b60405180910390f35b61047f610d2e565b60405161048c9190616006565b60405180910390f35b6104af60048036038101906104aa9190615a19565b610d34565b005b6104b9610d98565b6040516104c69190616006565b60405180910390f35b6104d7610d9e565b6040516104e49190616006565b60405180910390f35b6104f5610da4565b6040516105029190615d9f565b60405180910390f35b610513610dca565b6040516105209190616006565b60405180910390f35b610531610dd0565b60405161053e9190616006565b60405180910390f35b610561600480360381019061055c9190615a19565b610dd6565b60405161056e9190616006565b60405180910390f35b61057f610df1565b60405161058c9190616006565b60405180910390f35b61059d610df7565b6040516105aa9190616006565b60405180910390f35b6105cd60048036038101906105c89190615877565b610dfd565b6040516105da9190615e28565b60405180910390f35b6105eb610faa565b6040516105f89190616006565b60405180910390f35b610609610fb0565b6040516106169190616006565b60405180910390f35b610627610fb6565b604051610635929190616021565b60405180910390f35b610646611149565b6040516106539190615e43565b60405180910390f35b610664611170565b604051610671919061604a565b60405180910390f35b610682611175565b60405161068f9190616006565b60405180910390f35b6106a061117b565b6040516106ad9190615e43565b60405180910390f35b6106be611181565b6040516106cb9190616006565b60405180910390f35b6106dc611187565b6040516106e99190616006565b60405180910390f35b6106fa61118d565b6040516107079190616006565b60405180910390f35b61072a60048036038101906107259190615837565b611193565b005b61074660048036038101906107419190615ab3565b6112b5565b005b6107506121c7565b60405161075d9190616006565b60405180910390f35b61076e6121cd565b60405161077b9190616006565b60405180910390f35b61079e60048036038101906107999190615ab3565b6121d3565b6040516107ab9190616006565b60405180910390f35b6107bc6122d4565b6040516107c99190616006565b60405180910390f35b6107ec60048036038101906107e79190615a73565b6122da565b6040516107fa929190616021565b60405180910390f35b61080b612447565b6040516108189190616006565b60405180910390f35b61083b6004803603810190610836919061580a565b61244d565b6040516108489190616006565b60405180910390f35b610859612465565b6040516108669190616006565b60405180910390f35b61087761246b565b6040516108849190616006565b60405180910390f35b6108a760048036038101906108a2919061596c565b612471565b6040516108b79493929190615dba565b60405180910390f35b6108da60048036038101906108d5919061580a565b6124db565b6040516108e79190616006565b60405180910390f35b6108f86124f3565b6040516109059190616006565b60405180910390f35b6109166124f9565b6040516109239190616006565b60405180910390f35b6109346124ff565b6040516109419190616006565b60405180910390f35b610952612505565b60405161095f9190616006565b60405180910390f35b61097061250b565b60405161097d9190616006565b60405180910390f35b6109a0600480360381019061099b9190615837565b612511565b005b6109aa612833565b6040516109b79190616006565b60405180910390f35b6109da60048036038101906109d59190615b06565b612839565b005b6109e4612c5d565b6040516109f19190615f04565b60405180910390f35b610a02612c96565b604051610a0f9190616006565b60405180910390f35b610a20612c9c565b604051610a2d9190616006565b60405180910390f35b610a506004803603810190610a4b91906159ac565b612ca2565b604051610a5d9190615e28565b60405180910390f35b610a6e612cb9565b604051610a7b9190616006565b60405180910390f35b610a8c612cbf565b604051610a999190615d9f565b60405180910390f35b610abc6004803603810190610ab7919061580a565b612ce5565b005b610ad86004803603810190610ad39190615837565b612f13565b005b610ae26132c4565b604051610aef9190615d9f565b60405180910390f35b610b006132ea565b604051610b0d9190615e28565b60405180910390f35b610b1e6132fd565b604051610b2b9190616006565b60405180910390f35b610b4e6004803603810190610b499190615a19565b613303565b005b610b58613367565b604051610b659190616006565b60405180910390f35b610b886004803603810190610b8391906158ca565b61336d565b005b610ba46004803603810190610b9f9190615837565b613595565b604051610bb19190616006565b60405180910390f35b610bc26135ba565b604051610bcf9190616006565b60405180910390f35b610be06135c0565b604051610bed9190616006565b60405180910390f35b610bfe6135c6565b604051610c0b9190616006565b60405180910390f35b610c1c6135cc565b604051610c299190616006565b60405180910390f35b610c3a6135d2565b604051610c479190616006565b60405180910390f35b610c586135d8565b604051610c659190616006565b60405180910390f35b610c886004803603810190610c8391906159ac565b6135de565b604051610c959190616006565b60405180910390f35b610ca6613606565b604051610cb39190616006565b60405180910390f35b610cd66004803603810190610cd19190615a19565b61360c565b005b600e5481565b6040518060400160405280600a81526020017f556e69737761702056320000000000000000000000000000000000000000000081525081565b6000610d24338484613670565b6001905092915050565b60155481565b602560009054906101000a900473ffffffffffffffffffffffffffffffffffffffff1673ffffffffffffffffffffffffffffffffffffffff163373ffffffffffffffffffffffffffffffffffffffff1614610d8e57600080fd5b8060218190555050565b60075481565b601c5481565b602660009054906101000a900473ffffffffffffffffffffffffffffffffffffffff1681565b60005481565b601d5481565b60308160028110610de657600080fd5b016000915090505481565b60195481565b601a5481565b6000610101600260008673ffffffffffffffffffffffffffffffffffffffff1673ffffffffffffffffffffffffffffffffffffffff16815260200190815260200160002060003373ffffffffffffffffffffffffffffffffffffffff1673ffffffffffffffffffffffffffffffffffffffff1681526020019081526020016000205414610f9457610f1382600260008773ffffffffffffffffffffffffffffffffffffffff1673ffffffffffffffffffffffffffffffffffffffff16815260200190815260200160002060003373ffffffffffffffffffffffffffffffffffffffff1673ffffffffffffffffffffffffffffffffffffffff1681526020019081526020016000205461375b90919063ffffffff16565b600260008673ffffffffffffffffffffffffffffffffffffffff1673ffffffffffffffffffffffffffffffffffffffff16815260200190815260200160002060003373ffffffffffffffffffffffffffffffffffffffff1673ffffffffffffffffffffffffffffffffffffffff168152602001908152602001600020819055505b610f9f8484846137b4565b600190509392505050565b601e5481565b60295481565b600080601454602660009054906101000a900473ffffffffffffffffffffffffffffffffffffffff1673ffffffffffffffffffffffffffffffffffffffff166370a08231306040518263ffffffff1660e01b81526004016110179190615d9f565b60206040518083038186803b15801561102f57600080fd5b505afa158015611043573d6000803e3d6000fd5b505050506040513d601f19601f820116820180604052508101906110679190615a46565b61107191906162f4565b9150601354602760009054906101000a900473ffffffffffffffffffffffffffffffffffffffff1673ffffffffffffffffffffffffffffffffffffffff166370a08231306040518263ffffffff1660e01b81526004016110d19190615d9f565b60206040518083038186803b1580156110e957600080fd5b505afa1580156110fd573d6000803e3d6000fd5b505050506040513d601f19601f820116820180604052508101906111219190615a46565b61112b91906162f4565b9050600082118061113c5750600081115b61114557600080fd5b9091565b7f6e71edae12b1b97f4d1f60370fef10105fa2faae0126114a169c64845d6126c960001b81565b601281565b60055481565b60035481565b600c5481565b60135481565b60175481565b602560009054906101000a900473ffffffffffffffffffffffffffffffffffffffff1673ffffffffffffffffffffffffffffffffffffffff163373ffffffffffffffffffffffffffffffffffffffff16146111ed57600080fd5b81602660006101000a81548173ffffffffffffffffffffffffffffffffffffffff021916908373ffffffffffffffffffffffffffffffffffffffff16021790555080602760006101000a81548173ffffffffffffffffffffffffffffffffffffffff021916908373ffffffffffffffffffffffffffffffffffffffff160217905550602c54600581905550602c54600681905550602c5460078190555060075460088190555060026007546112a291906160f8565b600981905550600954600a819055505050565b6001602f54146112fa576040517f08c379a00000000000000000000000000000000000000000000000000000000081526004016112f190615fe6565b60405180910390fd5b6000602f8190555060008284611310919061629a565b14801561132857506000828461132691906160a2565b115b8015611356575061133881613948565b61134182613a3c565b61134a83613b21565b61135491906160a2565b115b80156113b95750603260008273ffffffffffffffffffffffffffffffffffffffff1673ffffffffffffffffffffffffffffffffffffffff168152602001908152602001600020600080151515158152602001908152602001600020600201548311155b801561141d5750603260008273ffffffffffffffffffffffffffffffffffffffff1673ffffffffffffffffffffffffffffffffffffffff16815260200190815260200160002060006001151515158152602001908152602001600020600201548211155b61142657600080fd5b61142e613bf0565b6000831115611b60576000611444846001613d5c565b9050600061150885603260008673ffffffffffffffffffffffffffffffffffffffff1673ffffffffffffffffffffffffffffffffffffffff1681526020019081526020016000206000600115151515815260200190815260200160002060010154601a54601c54603260008973ffffffffffffffffffffffffffffffffffffffff1673ffffffffffffffffffffffffffffffffffffffff1681526020019081526020016000206000801515151581526020019081526020016000206002015461408a565b905084603260008573ffffffffffffffffffffffffffffffffffffffff1673ffffffffffffffffffffffffffffffffffffffff168152602001908152602001600020600080151515158152602001908152602001600020600201600082825461157191906162f4565b9250508190555080601a600082825461158a91906162f4565b9250508190555061164b603260008573ffffffffffffffffffffffffffffffffffffffff1673ffffffffffffffffffffffffffffffffffffffff168152602001908152602001600020600060011515151581526020019081526020016000206001015486603260008773ffffffffffffffffffffffffffffffffffffffff1673ffffffffffffffffffffffffffffffffffffffff168152602001908152602001600020600080151515158152602001908152602001600020600201546140c4565b601c600082825461165c91906162f4565b9250508190555061171d603260008573ffffffffffffffffffffffffffffffffffffffff1673ffffffffffffffffffffffffffffffffffffffff168152602001908152602001600020600060011515151581526020019081526020016000206001015486603260008773ffffffffffffffffffffffffffffffffffffffff1673ffffffffffffffffffffffffffffffffffffffff168152602001908152602001600020600080151515158152602001908152602001600020600201546140c4565b603260008573ffffffffffffffffffffffffffffffffffffffff1673ffffffffffffffffffffffffffffffffffffffff16815260200190815260200160002060006001151515158152602001908152602001600020600101600082825461178491906162f4565b9250508190555080821180156117ad575060001515602d60009054906101000a900460ff161515145b15611836576117c881836117c191906162f4565b60006140e6565b603360008573ffffffffffffffffffffffffffffffffffffffff1673ffffffffffffffffffffffffffffffffffffffff16815260200190815260200160002060006002811061181a5761181961646b565b5b01600082825461182a91906160a2565b92505081905550611b59565b8082603360008673ffffffffffffffffffffffffffffffffffffffff1673ffffffffffffffffffffffffffffffffffffffff16815260200190815260200160002060016002811061188a5761188961646b565b5b015461189691906160a2565b1180156118b6575060011515602d60009054906101000a900460ff161515145b15611981578082603360008673ffffffffffffffffffffffffffffffffffffffff1673ffffffffffffffffffffffffffffffffffffffff16815260200190815260200160002060016002811061190f5761190e61646b565b5b015461191b91906160a2565b61192591906162f4565b603360008573ffffffffffffffffffffffffffffffffffffffff1673ffffffffffffffffffffffffffffffffffffffff1681526020019081526020016000206001600281106119775761197661646b565b5b0181905550611b58565b611a49603360008573ffffffffffffffffffffffffffffffffffffffff1673ffffffffffffffffffffffffffffffffffffffff1681526020019081526020016000206001600281106119d6576119d561646b565b5b015483836119e491906162f4565b6119ee91906162f4565b603360008673ffffffffffffffffffffffffffffffffffffffff1673ffffffffffffffffffffffffffffffffffffffff168152602001908152602001600020600060028110611a4057611a3f61646b565b5b01546000614414565b603360008573ffffffffffffffffffffffffffffffffffffffff1673ffffffffffffffffffffffffffffffffffffffff168152602001908152602001600020600060028110611a9b57611a9a61646b565b5b0154611aa791906162f4565b603360008573ffffffffffffffffffffffffffffffffffffffff1673ffffffffffffffffffffffffffffffffffffffff168152602001908152602001600020600060028110611af957611af861646b565b5b01819055506000603360008573ffffffffffffffffffffffffffffffffffffffff1673ffffffffffffffffffffffffffffffffffffffff168152602001908152602001600020600160028110611b5257611b5161646b565b5b01819055505b5b50506121ba565b6000611b6d8360016140e6565b90506000611c3184603260008673ffffffffffffffffffffffffffffffffffffffff1673ffffffffffffffffffffffffffffffffffffffff16815260200190815260200160002060008015151515815260200190815260200160002060010154601954601b54603260008973ffffffffffffffffffffffffffffffffffffffff1673ffffffffffffffffffffffffffffffffffffffff168152602001908152602001600020600060011515151581526020019081526020016000206002015461408a565b905083603260008573ffffffffffffffffffffffffffffffffffffffff1673ffffffffffffffffffffffffffffffffffffffff168152602001908152602001600020600060011515151581526020019081526020016000206002016000828254611c9b91906162f4565b925050819055508060196000828254611cb491906162f4565b92505081905550611d75603260008573ffffffffffffffffffffffffffffffffffffffff1673ffffffffffffffffffffffffffffffffffffffff1681526020019081526020016000206000801515151581526020019081526020016000206001015485603260008773ffffffffffffffffffffffffffffffffffffffff1673ffffffffffffffffffffffffffffffffffffffff16815260200190815260200160002060006001151515158152602001908152602001600020600201546140c4565b601b6000828254611d8691906162f4565b92505081905550611e47603260008573ffffffffffffffffffffffffffffffffffffffff1673ffffffffffffffffffffffffffffffffffffffff1681526020019081526020016000206000801515151581526020019081526020016000206001015485603260008773ffffffffffffffffffffffffffffffffffffffff1673ffffffffffffffffffffffffffffffffffffffff16815260200190815260200160002060006001151515158152602001908152602001600020600201546140c4565b603260008573ffffffffffffffffffffffffffffffffffffffff1673ffffffffffffffffffffffffffffffffffffffff1681526020019081526020016000206000801515151581526020019081526020016000206001016000828254611ead91906162f4565b925050819055508082603360008673ffffffffffffffffffffffffffffffffffffffff1673ffffffffffffffffffffffffffffffffffffffff168152602001908152602001600020600060028110611f0857611f0761646b565b5b0154611f1491906160a2565b1115611fe0578082603360008673ffffffffffffffffffffffffffffffffffffffff1673ffffffffffffffffffffffffffffffffffffffff168152602001908152602001600020600060028110611f6e57611f6d61646b565b5b0154611f7a91906160a2565b611f8491906162f4565b603360008573ffffffffffffffffffffffffffffffffffffffff1673ffffffffffffffffffffffffffffffffffffffff168152602001908152602001600020600060028110611fd657611fd561646b565b5b01819055506121b7565b6120a8603360008573ffffffffffffffffffffffffffffffffffffffff1673ffffffffffffffffffffffffffffffffffffffff1681526020019081526020016000206000600281106120355761203461646b565b5b0154838361204391906162f4565b61204d91906162f4565b603360008673ffffffffffffffffffffffffffffffffffffffff1673ffffffffffffffffffffffffffffffffffffffff16815260200190815260200160002060016002811061209f5761209e61646b565b5b0154600061474d565b603360008573ffffffffffffffffffffffffffffffffffffffff1673ffffffffffffffffffffffffffffffffffffffff1681526020019081526020016000206001600281106120fa576120f961646b565b5b015461210691906162f4565b603360008573ffffffffffffffffffffffffffffffffffffffff1673ffffffffffffffffffffffffffffffffffffffff1681526020019081526020016000206001600281106121585761215761646b565b5b01819055506000603360008573ffffffffffffffffffffffffffffffffffffffff1673ffffffffffffffffffffffffffffffffffffffff1681526020019081526020016000206000600281106121b1576121b061646b565b5b01819055505b50505b6001602f81905550505050565b60145481565b601f5481565b60006001602f541461221a576040517f08c379a000000000000000000000000000000000000000000000000000000000815260040161221190615fe6565b60405180910390fd5b6000602f8190555061223e600b548560145461223691906160a2565b6014546140c4565b600b81905550612260600c548460135461225891906160a2565b6013546140c4565b600c81905550612275602954856014546140c4565b90508060295461228591906160a2565b6029819055508360145461229991906160a2565b601481905550826013546122ad91906160a2565b6013819055506122bd8282614a86565b6122c5614ba0565b6001602f819055509392505050565b60165481565b6000806001602f5414612322576040517f08c379a000000000000000000000000000000000000000000000000000000000815260040161231990615fe6565b60405180910390fd5b6000602f81905550612339846014546029546140c4565b915061234a846013546029546140c4565b9050612368600b548360145461236091906162f4565b6014546140c4565b600b8190555061238a600c548260135461238291906162f4565b6013546140c4565b600c819055508160145461239e91906162f4565b601481905550806013546123b291906162f4565b601381905550836029546123c691906162f4565b6029819055506123d63085614c12565b612403602660009054906101000a900473ffffffffffffffffffffffffffffffffffffffff168484614d2c565b612430602760009054906101000a900473ffffffffffffffffffffffffffffffffffffffff168483614d2c565b612438614ba0565b6001602f819055509250929050565b601b5481565b60016020528060005260406000206000915090505481565b60125481565b602c5481565b6032602052816000526040600020602052806000526040600020600091509150508060000160009054906101000a900473ffffffffffffffffffffffffffffffffffffffff16908060000160149054906101000a900460ff16908060010154908060020154905084565b60046020528060005260406000206000915090505481565b60225481565b600a5481565b60065481565b600b5481565b602a5481565b6000602760009054906101000a900473ffffffffffffffffffffffffffffffffffffffff1673ffffffffffffffffffffffffffffffffffffffff168373ffffffffffffffffffffffffffffffffffffffff16148015612583575060011515602d60009054906101000a900460ff161515145b156126dd57603060016002811061259d5761259c61646b565b5b01546013548473ffffffffffffffffffffffffffffffffffffffff166370a08231306040518263ffffffff1660e01b81526004016125db9190615d9f565b60206040518083038186803b1580156125f357600080fd5b505afa158015612607573d6000803e3d6000fd5b505050506040513d601f19601f8201168201806040525081019061262b9190615a46565b61263591906162f4565b61263f91906162f4565b905080603360008473ffffffffffffffffffffffffffffffffffffffff1673ffffffffffffffffffffffffffffffffffffffff1681526020019081526020016000206001600281106126945761269361646b565b5b0160008282546126a491906160a2565b925050819055508060306001600281106126c1576126c061646b565b5b0160008282546126d191906160a2565b9250508190555061282e565b60306000600281106126f2576126f161646b565b5b01546014548473ffffffffffffffffffffffffffffffffffffffff166370a08231306040518263ffffffff1660e01b81526004016127309190615d9f565b60206040518083038186803b15801561274857600080fd5b505afa15801561275c573d6000803e3d6000fd5b505050506040513d601f19601f820116820180604052508101906127809190615a46565b61278a91906162f4565b61279491906162f4565b905080603360008473ffffffffffffffffffffffffffffffffffffffff1673ffffffffffffffffffffffffffffffffffffffff1681526020019081526020016000206000600281106127e9576127e861646b565b5b0160008282546127f991906160a2565b925050819055508060306000600281106128165761281561646b565b5b01600082825461282691906160a2565b925050819055505b505050565b60095481565b6001602f541461287e576040517f08c379a000000000000000000000000000000000000000000000000000000000815260040161287590615fe6565b60405180910390fd5b6000602f8190555060008385612894919061629a565b1480156128ac5750600083856128aa91906160a2565b115b6128b557600080fd5b6128bd613bf0565b61290d6128c982613a3c565b602c54866128d7919061629a565b6128e191906160a2565b6128ea83613a3c565b6128fe86601754600d54600e54600161408a565b61290891906160a2565b614eb6565b60285461291983613948565b61292284613a3c565b61292b85613b21565b61293591906160a2565b61293f91906162f4565b61294991906160f8565b11612989576040517f08c379a000000000000000000000000000000000000000000000000000000000815260040161298090615fc6565b60405180910390fd5b600080600115158415151415612af55760008611156129b7576129ad866001613d5c565b91508590506129ca565b8491506129c78560006001614414565b90505b6129d981601b546019546140c4565b603260008573ffffffffffffffffffffffffffffffffffffffff1673ffffffffffffffffffffffffffffffffffffffff1681526020019081526020016000206000801515151581526020019081526020016000206001016000828254612a3f91906160a2565b9250508190555081603260008573ffffffffffffffffffffffffffffffffffffffff1673ffffffffffffffffffffffffffffffffffffffff168152602001908152602001600020600060011515151581526020019081526020016000206002016000828254612aae91906160a2565b92505081905550601b54612ac782601b546019546140c4565b612ad191906160a2565b601b819055508060196000828254612ae991906160a2565b92505081905550612c4d565b6000861115612b1557859150612b0e866000600161474d565b9050612b26565b612b208560016140e6565b91508490505b612b3581601c54601a546140c4565b603260008573ffffffffffffffffffffffffffffffffffffffff1673ffffffffffffffffffffffffffffffffffffffff168152602001908152602001600020600060011515151581526020019081526020016000206001016000828254612b9c91906160a2565b9250508190555081603260008573ffffffffffffffffffffffffffffffffffffffff1673ffffffffffffffffffffffffffffffffffffffff1681526020019081526020016000206000801515151581526020019081526020016000206002016000828254612c0a91906160a2565b92505081905550601c54612c2382601c54601a546140c4565b612c2d91906160a2565b601c8190555080601a6000828254612c4591906160a2565b925050819055505b50506001602f8190555050505050565b6040518060400160405280600681526020017f554e492d5632000000000000000000000000000000000000000000000000000081525081565b60285481565b60105481565b6000612caf3384846137b4565b6001905092915050565b60245481565b602760009054906101000a900473ffffffffffffffffffffffffffffffffffffffff1681565b6001602f5414612d2a576040517f08c379a0000000000000000000000000000000000000000000000000000000008152600401612d2190615fe6565b60405180910390fd5b6000602f81905550612e1d602660009054906101000a900473ffffffffffffffffffffffffffffffffffffffff1682612e18601454602660009054906101000a900473ffffffffffffffffffffffffffffffffffffffff1673ffffffffffffffffffffffffffffffffffffffff166370a08231306040518263ffffffff1660e01b8152600401612dba9190615d9f565b60206040518083038186803b158015612dd257600080fd5b505afa158015612de6573d6000803e3d6000fd5b505050506040513d601f19601f82011682018060405250810190612e0a9190615a46565b61375b90919063ffffffff16565b614d2c565b612f08602760009054906101000a900473ffffffffffffffffffffffffffffffffffffffff1682612f03601354602760009054906101000a900473ffffffffffffffffffffffffffffffffffffffff1673ffffffffffffffffffffffffffffffffffffffff166370a08231306040518263ffffffff1660e01b8152600401612ea59190615d9f565b60206040518083038186803b158015612ebd57600080fd5b505afa158015612ed1573d6000803e3d6000fd5b505050506040513d601f19601f82011682018060405250810190612ef59190615a46565b61375b90919063ffffffff16565b614d2c565b6001602f8190555050565b6001602f5414612f58576040517f08c379a0000000000000000000000000000000000000000000000000000000008152600401612f4f90615fe6565b60405180910390fd5b6000602f81905550612f6982613948565b612f7283613a3c565b612f7b84613b21565b612f8591906160a2565b111580612fd55750602a54612f9983613a3c565b612fa3919061629a565b612fac83613948565b612fb584613a3c565b612fbe85613b21565b612fc891906160a2565b612fd291906162f4565b11155b612fde57600080fd5b61306b602660009054906101000a900473ffffffffffffffffffffffffffffffffffffffff1682602b54603360008773ffffffffffffffffffffffffffffffffffffffff1673ffffffffffffffffffffffffffffffffffffffff16815260200190815260200160002060006002811061305a5761305961646b565b5b0154613066919061629a565b614d2c565b6130f8602760009054906101000a900473ffffffffffffffffffffffffffffffffffffffff1682602b54603360008773ffffffffffffffffffffffffffffffffffffffff1673ffffffffffffffffffffffffffffffffffffffff1681526020019081526020016000206001600281106130e7576130e661646b565b5b01546130f3919061629a565b614d2c565b603360008373ffffffffffffffffffffffffffffffffffffffff1673ffffffffffffffffffffffffffffffffffffffff16815260200190815260200160002060006131439190615769565b6000603260008473ffffffffffffffffffffffffffffffffffffffff1673ffffffffffffffffffffffffffffffffffffffff168152602001908152602001600020600080151515158152602001908152602001600020600101819055506000603260008473ffffffffffffffffffffffffffffffffffffffff1673ffffffffffffffffffffffffffffffffffffffff16815260200190815260200160002060006001151515158152602001908152602001600020600101819055506132b8603260008473ffffffffffffffffffffffffffffffffffffffff1673ffffffffffffffffffffffffffffffffffffffff16815260200190815260200160002060008015151515815260200190815260200160002060020154603260008573ffffffffffffffffffffffffffffffffffffffff1673ffffffffffffffffffffffffffffffffffffffff1681526020019081526020016000206000600115151515815260200190815260200160002060020154846112b5565b6001602f819055505050565b602560009054906101000a900473ffffffffffffffffffffffffffffffffffffffff1681565b602060009054906101000a900460ff1681565b60235481565b602560009054906101000a900473ffffffffffffffffffffffffffffffffffffffff1673ffffffffffffffffffffffffffffffffffffffff163373ffffffffffffffffffffffffffffffffffffffff161461335d57600080fd5b8060288190555050565b60185481565b428410156133b0576040517f08c379a00000000000000000000000000000000000000000000000000000000081526004016133a790615f86565b60405180910390fd5b60006003547f6e71edae12b1b97f4d1f60370fef10105fa2faae0126114a169c64845d6126c960001b898989600460008e73ffffffffffffffffffffffffffffffffffffffff1673ffffffffffffffffffffffffffffffffffffffff168152602001908152602001600020600081548092919061342c906163ba565b919050558a60405160200161344696959493929190615e5e565b6040516020818303038152906040528051906020012060405160200161346d929190615d68565b6040516020818303038152906040528051906020012090506000600182868686604051600081526020016040526040516134aa9493929190615ebf565b6020604051602081039080840390855afa1580156134cc573d6000803e3d6000fd5b505050602060405103519050600073ffffffffffffffffffffffffffffffffffffffff168173ffffffffffffffffffffffffffffffffffffffff161415801561354057508873ffffffffffffffffffffffffffffffffffffffff168173ffffffffffffffffffffffffffffffffffffffff16145b61357f576040517f08c379a000000000000000000000000000000000000000000000000000000000815260040161357690615f46565b60405180910390fd5b61358a898989613670565b505050505050505050565b6002602052816000526040600020602052806000526040600020600091509150505481565b602e5481565b600f5481565b60215481565b60115481565b602b5481565b60085481565b603360205281600052604060002081600281106135fa57600080fd5b01600091509150505481565b600d5481565b602560009054906101000a900473ffffffffffffffffffffffffffffffffffffffff1673ffffffffffffffffffffffffffffffffffffffff163373ffffffffffffffffffffffffffffffffffffffff161461366657600080fd5b80602a8190555050565b80600260008573ffffffffffffffffffffffffffffffffffffffff1673ffffffffffffffffffffffffffffffffffffffff16815260200190815260200160002060008473ffffffffffffffffffffffffffffffffffffffff1673ffffffffffffffffffffffffffffffffffffffff168152602001908152602001600020819055508173ffffffffffffffffffffffffffffffffffffffff168373ffffffffffffffffffffffffffffffffffffffff167f8c5be1e5ebec7d5bd14f71427d1e84f3dd0314c0f7b2291e5b200ac8c7c3b9258360405161374e9190616006565b60405180910390a3505050565b600082828461376a91906162f4565b91508111156137ae576040517f08c379a00000000000000000000000000000000000000000000000000000000081526004016137a590615f26565b60405180910390fd5b92915050565b61380681600160008673ffffffffffffffffffffffffffffffffffffffff1673ffffffffffffffffffffffffffffffffffffffff1681526020019081526020016000205461375b90919063ffffffff16565b600160008573ffffffffffffffffffffffffffffffffffffffff1673ffffffffffffffffffffffffffffffffffffffff1681526020019081526020016000208190555061389b81600160008573ffffffffffffffffffffffffffffffffffffffff1673ffffffffffffffffffffffffffffffffffffffff16815260200190815260200160002054614ecf90919063ffffffff16565b600160008473ffffffffffffffffffffffffffffffffffffffff1673ffffffffffffffffffffffffffffffffffffffff168152602001908152602001600020819055508173ffffffffffffffffffffffffffffffffffffffff168373ffffffffffffffffffffffffffffffffffffffff167fddf252ad1be2c89b69c2b068fc378daa952ba7f163c4a11628f55a4df523b3ef8360405161393b9190616006565b60405180910390a3505050565b60006139c46139b9603260008573ffffffffffffffffffffffffffffffffffffffff1673ffffffffffffffffffffffffffffffffffffffff16815260200190815260200160002060008015151515815260200190815260200160002060010154601954601754601b54602c5461408a565b600d54600e546140c4565b613a2b603260008573ffffffffffffffffffffffffffffffffffffffff1673ffffffffffffffffffffffffffffffffffffffff1681526020019081526020016000206000600115151515815260200190815260200160002060010154601a54601c546140c4565b613a3591906160a2565b9050919050565b6000613aab603260008473ffffffffffffffffffffffffffffffffffffffff1673ffffffffffffffffffffffffffffffffffffffff1681526020019081526020016000206000600115151515815260200190815260200160002060020154601754600d54600e54602c5461408a565b602c54603260008573ffffffffffffffffffffffffffffffffffffffff1673ffffffffffffffffffffffffffffffffffffffff16815260200190815260200160002060008015151515815260200190815260200160002060020154613b10919061629a565b613b1a91906160a2565b9050919050565b6000613b8b603360008473ffffffffffffffffffffffffffffffffffffffff1673ffffffffffffffffffffffffffffffffffffffff168152602001908152602001600020600160028110613b7857613b7761646b565b5b0154601754600d54600e54602c5461408a565b603360008473ffffffffffffffffffffffffffffffffffffffff1673ffffffffffffffffffffffffffffffffffffffff168152602001908152602001600020600060028110613bdd57613bdc61646b565b5b0154613be991906160a2565b9050919050565b600080613c16601454601354600e54600d54600b54600c54600554600654600754614f28565b91509150600080613c398484601054600f54602254602154601454601354614fc4565b915091506000601f5443613c4d91906162f4565b905043601f819055506000613c69601754600d54600e546140c4565b905060001515602060009054906101000a900460ff1615151415613ce657613ca8601954601e54602c54613c9d91906160a2565b84602c54600161408a565b60198190555081613cc4601e5460195484602c54602c5461408a565b613cce919061629a565b601a54613cdb91906162f4565b601a81905550613d33565b613d07601a54601e54602c54613cfc91906160a2565b84602c54600161408a565b601a81905550613d1f601e54601a548484600161408a565b601954613d2c91906162f4565b6019819055505b83601e8190555082602060006101000a81548160ff021916908315150217905550505050505050565b60006001602f5414613da3576040517f08c379a0000000000000000000000000000000000000000000000000000000008152600401613d9a90615fe6565b60405180910390fd5b6000602f819055506000600190505b60011515811515141561407b576000613dd2600954601854602c546140c4565b90506000613de86005546006546007548561506e565b9050613df982600b54600e5461516e565b861115613f8057613e0f600c5482600d5461516e565b84613e1a91906160a2565b9350613e2b82600b54600e5461516e565b86613e3691906162f4565b9550600115158515151415613e7157613e54600c5482600d5461516e565b600f6000828254613e6591906160a2565b92505081905550613ec0565b613e8082600b54600e5461516e565b60146000828254613e9191906160a2565b92505081905550613ea7600c5482600d5461516e565b60136000828254613eb891906162f4565b925050819055505b613ecf600d54600a54836140c4565b600d81905550613ee4600e54600954846140c4565b600e81905550613f0d613f0060055460065460075486866151a3565b8260095485600a5461408a565b601781905550600954600b81905550600a54600c81905550613f39600b54600c54600754601754615297565b600581905550600554602c546002613f51919061629a565b613f5b91906162f4565b600681905550613f69614ba0565b600954600b81905550600a54600c81905550614074565b600b54601581905550600c54601681905550613fa186600e54602c546140c4565b600b6000828254613fb291906160a2565b92505081905550613fcd600554600654600754600b5461506e565b600c81905550613fe4601654600c54600d5461516e565b84613fef91906160a2565b935060011515851515141561402c5761400f601654600c54600d5461516e565b600f600082825461402091906160a2565b9250508190555061406f565b856014600082825461403e91906160a2565b92505081905550614056601654600c54600d5461516e565b6013600082825461406791906162f4565b925050819055505b600092505b5050613db2565b506001602f8190555092915050565b6000818385878961409b919061629a565b6140a5919061629a565b6140af91906160f8565b6140b991906160f8565b905095945050505050565b60008183856140d3919061629a565b6140dd91906160f8565b90509392505050565b60006001602f541461412d576040517f08c379a000000000000000000000000000000000000000000000000000000000815260040161412490615fe6565b60405180910390fd5b6000602f819055506000600190505b60011515811515141561440557600061415c600a54601854602c546140c4565b90506000614172600554600654600754856153d1565b905061418382600c54600d5461516e565b86111561430a57614199600b5482600e5461516e565b846141a491906160a2565b93506141b582600c54600d5461516e565b866141c091906162f4565b95506001151585151514156141fb576141de600b5482600e5461516e565b601060008282546141ef91906160a2565b9250508190555061424a565b61420a600b5482600e5461516e565b6014600082825461421b91906162f4565b9250508190555061423182600c54600d5461516e565b6013600082825461424291906160a2565b925050819055505b614259600d54600a54846140c4565b600d8190555061426e600e54600954836140c4565b600e8190555061429761428a60055460065460075485876151a3565b8360095484600a5461408a565b601781905550600954600b81905550600a54600c819055506142c3600b54600c54600754601754615297565b600581905550600554602c5460026142db919061629a565b6142e591906162f4565b6006819055506142f3614ba0565b600954600b81905550600a54600c819055506143fe565b600b54601581905550600c5460168190555061432b86600d54602c546140c4565b600c600082825461433c91906160a2565b92505081905550614357600554600654600754600c546153d1565b600b8190555061436e601554600b54600e5461516e565b8461437991906160a2565b93506001151585151514156143b657614399601554600b54600e5461516e565b601060008282546143aa91906160a2565b925050819055506143f9565b85601360008282546143c891906160a2565b925050819055506143e0601554600b54600e5461516e565b601460008282546143f191906162f4565b925050819055505b600092505b505061413c565b506001602f8190555092915050565b60006001602f541461445b576040517f08c379a000000000000000000000000000000000000000000000000000000000815260040161445290615fe6565b60405180910390fd5b6000602f819055506000600190505b60011515811515141561472357600061448a600954601854602c546140c4565b905060006144a06005546006546007548561506e565b90506144b1600c5482600d5461516e565b871115614638576144c782600b54600e5461516e565b846144d291906160a2565b93506144e3600c5482600d5461516e565b876144ee91906162f4565b96506001151585151514156145295761450c600c5482600d5461516e565b600f600082825461451d91906160a2565b92505081905550614578565b61453882600b54600e5461516e565b6014600082825461454991906160a2565b9250508190555061455f600c5482600d5461516e565b6013600082825461457091906162f4565b925050819055505b614587600d54600a54836140c4565b600d8190555061459c600e54600954846140c4565b600e819055506145c56145b860055460065460075486866151a3565b8260095485600a5461408a565b601781905550600954600b81905550600a54600c819055506145f1600b54600c54600754601754615297565b600581905550600554602c546002614609919061629a565b61461391906162f4565b600681905550614621614ba0565b600954600b81905550600a54600c8190555061471c565b600b54601581905550600c5460168190555061465987600d54602c546140c4565b600c600082825461466a91906162f4565b92505081905550614685600554600654600754600c546153d1565b600b8190555061469c600b54601554600e5461516e565b846146a791906160a2565b93506001151585151514156146d45786600f60008282546146c891906160a2565b92505081905550614717565b6146e5600b54601554600e5461516e565b601460008282546146f691906160a2565b92505081905550866013600082825461470f91906162f4565b925050819055505b600092505b505061446a565b60001515831515141561473d5781841161473c57600080fd5b5b506001602f819055509392505050565b60006001602f5414614794576040517f08c379a000000000000000000000000000000000000000000000000000000000815260040161478b90615fe6565b60405180910390fd5b6000602f819055506000600190505b600115158115151415614a5c5760006147c3600a54601854602c546140c4565b905060006147d9600554600654600754856153d1565b90506147ea600b5482600e5461516e565b8711156149715761480082600c54600d5461516e565b8461480b91906160a2565b935061481c600b5482600e5461516e565b8761482791906162f4565b965060011515851515141561486257614845600b5482600e5461516e565b6010600082825461485691906160a2565b925050819055506148b1565b61487182600c54600d5461516e565b6013600082825461488291906160a2565b92505081905550614898600b5482600e5461516e565b601460008282546148a991906162f4565b925050819055505b6148c0600d54600a54846140c4565b600d819055506148d5600e54600954836140c4565b600e819055506148fe6148f160055460065460075485876151a3565b8360095484600a5461408a565b601781905550600954600b81905550600a54600c8190555061492a600b54600c54600754601754615297565b600581905550600554602c546002614942919061629a565b61494c91906162f4565b60068190555061495a614ba0565b600954600b81905550600a54600c81905550614a55565b600b54601581905550600c5460168190555061499287600e54602c546140c4565b600b60008282546149a391906162f4565b925050819055506149be600554600654600754600b5461506e565b600c819055506149d5600c54601654600d5461516e565b846149e091906160a2565b9350600115158515151415614a0d578660106000828254614a0191906160a2565b92505081905550614a50565b614a1e600c54601654600d5461516e565b60136000828254614a2f91906160a2565b925050819055508660146000828254614a4891906162f4565b925050819055505b600092505b50506147a3565b600015158315151415614a7657818411614a7557600080fd5b5b506001602f819055509392505050565b614a9b81600054614ecf90919063ffffffff16565b600081905550614af381600160008573ffffffffffffffffffffffffffffffffffffffff1673ffffffffffffffffffffffffffffffffffffffff16815260200190815260200160002054614ecf90919063ffffffff16565b600160008473ffffffffffffffffffffffffffffffffffffffff1673ffffffffffffffffffffffffffffffffffffffff168152602001908152602001600020819055508173ffffffffffffffffffffffffffffffffffffffff16600073ffffffffffffffffffffffffffffffffffffffff167fddf252ad1be2c89b69c2b068fc378daa952ba7f163c4a11628f55a4df523b3ef83604051614b949190616006565b60405180910390a35050565b614bc0601454600554600e54601354600654600d546012546011546154d1565b602381905550602c54602354600854614bd9919061629a565b614be391906160f8565b6007819055506002600754614bf891906160f8565b600981905550600954600a81905550602354602481905550565b614c6481600160008573ffffffffffffffffffffffffffffffffffffffff1673ffffffffffffffffffffffffffffffffffffffff1681526020019081526020016000205461375b90919063ffffffff16565b600160008473ffffffffffffffffffffffffffffffffffffffff1673ffffffffffffffffffffffffffffffffffffffff16815260200190815260200160002081905550614cbc8160005461375b90919063ffffffff16565b600081905550600073ffffffffffffffffffffffffffffffffffffffff168273ffffffffffffffffffffffffffffffffffffffff167fddf252ad1be2c89b69c2b068fc378daa952ba7f163c4a11628f55a4df523b3ef83604051614d209190616006565b60405180910390a35050565b6000808473ffffffffffffffffffffffffffffffffffffffff166040518060400160405280601981526020017f7472616e7366657228616464726573732c75696e743235362900000000000000815250805190602001208585604051602401614d96929190615dff565b604051602081830303815290604052907bffffffffffffffffffffffffffffffffffffffffffffffffffffffff19166020820180517bffffffffffffffffffffffffffffffffffffffffffffffffffffffff8381831617835250505050604051614e009190615d51565b6000604051808303816000865af19150503d8060008114614e3d576040519150601f19603f3d011682016040523d82523d6000602084013e614e42565b606091505b5091509150818015614e705750600081511480614e6f575080806020019051810190614e6e91906159ec565b5b5b614eaf576040517f08c379a0000000000000000000000000000000000000000000000000000000008152600401614ea690615fa6565b60405180910390fd5b5050505050565b6000818311614ec55781614ec7565b825b905092915050565b6000828284614ede91906160a2565b9150811015614f22576040517f08c379a0000000000000000000000000000000000000000000000000000000008152600401614f1990615f66565b60405180910390fd5b92915050565b6000806000614f408c8b670de0b6b3a76400006140c4565b90506000614f578c8b670de0b6b3a76400006140c4565b90506000614f66838388615531565b9050600081671bc16d674ec80000614f7e91906162f4565b9050614f97614f9083838a88886151a3565b8d8f6140c4565b9550614fb0614fa98a8a8a8f8f6151a3565b8d8f6140c4565b945050505050995099975050505050505050565b6000808989111561500757614fda8784886155b5565b611680614fe88b8d8e61516e565b614ff291906160f8565b614ffc91906160a2565b91506000905061503b565b6150128885886155b5565b6116806150208c8c8e61516e565b61502a91906160f8565b61503491906160a2565b9150600190505b846107808361504a919061629a565b1115615061576107808561505e91906160f8565b91505b9850989650505050505050565b60008184600861507e919061629a565b615088919061629a565b615121670de0b6b3a76400008586876150a1919061629a565b6150ab919061629a565b60006150b791906162f4565b858860106150c5919061629a565b6150cf919061629a565b6150d9919061629a565b6150e3919061629a565b600285868a60046150f4919061629a565b6150fe919061629a565b615108919061629a565b615112919061617c565b61511c91906162f4565b615602565b8384886004615130919061629a565b61513a919061629a565b615144919061629a565b600061515091906162f4565b61515a91906160a2565b61516491906160f8565b9050949350505050565b600081670de0b6b3a7640000848661518691906162f4565b615190919061629a565b61519a91906160f8565b90509392505050565b6000818485866151b3919061629a565b6151bd919061629a565b6151c7919061629a565b828385868a60046151d8919061629a565b6151e2919061629a565b6151ec919061629a565b6151f6919061629a565b615200919061629a565b61520a91906160a2565b670de0b6b3a764000084868788615221919061629a565b61522b919061629a565b615235919061629a565b848587888b6004615246919061629a565b615250919061629a565b61525a919061629a565b615264919061629a565b61526e919061629a565b61527891906160a2565b615282919061629a565b61528c91906160f8565b905095945050505050565b600081670de0b6b3a76400006152ad91906160a2565b8485878860046152bd919061629a565b6152c7919061629a565b6152d1919061629a565b6152db919061629a565b6152e5919061629a565b670de0b6b3a764000083868687886152fd919061629a565b615307919061629a565b615311919061629a565b61531b919061629a565b615325919061629a565b6ec097ce7bc90715b34b9f100000000087868788615343919061629a565b61534d919061629a565b615357919061629a565b615361919061629a565b6ec097ce7bc90715b34b9f100000000087888a8b6008615381919061629a565b61538b919061629a565b615395919061629a565b61539f919061629a565b6153a9919061629a565b6153b391906160a2565b6153bd91906162f4565b6153c791906160f8565b9050949350505050565b6000818560086153e1919061629a565b6153eb919061629a565b615484670de0b6b3a7640000858687615404919061629a565b61540e919061629a565b600061541a91906162f4565b85896010615428919061629a565b615432919061629a565b61543c919061629a565b615446919061629a565b60028586896004615457919061629a565b615461919061629a565b61546b919061629a565b615475919061617c565b61547f91906162f4565b615602565b8384876004615493919061629a565b61549d919061629a565b6154a7919061629a565b60006154b391906162f4565b6154bd91906160a2565b6154c791906160f8565b9050949350505050565b60006155236154e4848a8a868a8a61567c565b760a70c3c40a64e6c51999090b65f67d924000000000000061550a8c8c8c8c8c8c61567c565b615514919061629a565b61551e91906160f8565b6156d8565b905098975050505050505050565b6000828461553f91906162f4565b670de0b6b3a7640000846002615555919061629a565b85876004878889615566919061629a565b615570919061629a565b61557a91906160f8565b61558491906160f8565b61558e91906160f8565b61559891906162f4565b6155a2919061629a565b6155ac91906160f8565b90509392505050565b60008161e10085856155c791906160a2565b670de0b6b3a7640000876155db919061629a565b6155e591906160f8565b6155ef91906160f8565b6155f991906160a2565b90509392505050565b60006003821115615669578190506000600160028461562191906160f8565b61562b91906160a2565b90505b8181101561566357809150600281828561564891906160f8565b61565291906160a2565b61565c91906160f8565b905061562e565b50615677565b6000821461567657600190505b5b919050565b6000838783858761568d919061629a565b615697919061629a565b87898b6156a4919061629a565b6156ae919061629a565b6156b891906160a2565b6156c2919061629a565b6156cc919061629a565b90509695505050505050565b6000600882111561575657819050600060016003846156f791906160f8565b61570191906160a2565b90505b8181101561575057809150600381600261571e919061629a565b828361572a919061629a565b8561573591906160f8565b61573f91906160a2565b61574991906160f8565b9050615704565b50615764565b6000821461576357600190505b5b919050565b506000815560010160009055565b60008135905061578681616605565b92915050565b60008135905061579b8161661c565b92915050565b6000815190506157b08161661c565b92915050565b6000813590506157c581616633565b92915050565b6000813590506157da8161664a565b92915050565b6000815190506157ef8161664a565b92915050565b60008135905061580481616661565b92915050565b6000602082840312156158205761581f61649a565b5b600061582e84828501615777565b91505092915050565b6000806040838503121561584e5761584d61649a565b5b600061585c85828601615777565b925050602061586d85828601615777565b9150509250929050565b6000806000606084860312156158905761588f61649a565b5b600061589e86828701615777565b93505060206158af86828701615777565b92505060406158c0868287016157cb565b9150509250925092565b600080600080600080600060e0888a0312156158e9576158e861649a565b5b60006158f78a828b01615777565b97505060206159088a828b01615777565b96505060406159198a828b016157cb565b955050606061592a8a828b016157cb565b945050608061593b8a828b016157f5565b93505060a061594c8a828b016157b6565b92505060c061595d8a828b016157b6565b91505092959891949750929550565b600080604083850312156159835761598261649a565b5b600061599185828601615777565b92505060206159a28582860161578c565b9150509250929050565b600080604083850312156159c3576159c261649a565b5b60006159d185828601615777565b92505060206159e2858286016157cb565b9150509250929050565b600060208284031215615a0257615a0161649a565b5b6000615a10848285016157a1565b91505092915050565b600060208284031215615a2f57615a2e61649a565b5b6000615a3d848285016157cb565b91505092915050565b600060208284031215615a5c57615a5b61649a565b5b6000615a6a848285016157e0565b91505092915050565b60008060408385031215615a8a57615a8961649a565b5b6000615a98858286016157cb565b9250506020615aa985828601615777565b9150509250929050565b600080600060608486031215615acc57615acb61649a565b5b6000615ada868287016157cb565b9350506020615aeb868287016157cb565b9250506040615afc86828701615777565b9150509250925092565b60008060008060808587031215615b2057615b1f61649a565b5b6000615b2e878288016157cb565b9450506020615b3f878288016157cb565b9350506040615b508782880161578c565b9250506060615b6187828801615777565b91505092959194509250565b615b7681616328565b82525050565b615b858161633a565b82525050565b615b9481616346565b82525050565b615bab615ba682616346565b616403565b82525050565b6000615bbc82616065565b615bc6818561607b565b9350615bd6818560208601616387565b80840191505092915050565b6000615bed82616070565b615bf78185616086565b9350615c07818560208601616387565b615c108161649f565b840191505092915050565b6000615c28601583616086565b9150615c33826164bd565b602082019050919050565b6000615c4b601c83616086565b9150615c56826164e6565b602082019050919050565b6000615c6e600283616097565b9150615c798261650f565b600282019050919050565b6000615c91601483616086565b9150615c9c82616538565b602082019050919050565b6000615cb4601283616086565b9150615cbf82616561565b602082019050919050565b6000615cd7600f83616086565b9150615ce28261658a565b602082019050919050565b6000615cfa601883616086565b9150615d05826165b3565b602082019050919050565b6000615d1d600683616086565b9150615d28826165dc565b602082019050919050565b615d3c81616370565b82525050565b615d4b8161637a565b82525050565b6000615d5d8284615bb1565b915081905092915050565b6000615d7382615c61565b9150615d7f8285615b9a565b602082019150615d8f8284615b9a565b6020820191508190509392505050565b6000602082019050615db46000830184615b6d565b92915050565b6000608082019050615dcf6000830187615b6d565b615ddc6020830186615b7c565b615de96040830185615d33565b615df66060830184615d33565b95945050505050565b6000604082019050615e146000830185615b6d565b615e216020830184615d33565b9392505050565b6000602082019050615e3d6000830184615b7c565b92915050565b6000602082019050615e586000830184615b8b565b92915050565b600060c082019050615e736000830189615b8b565b615e806020830188615b6d565b615e8d6040830187615b6d565b615e9a6060830186615d33565b615ea76080830185615d33565b615eb460a0830184615d33565b979650505050505050565b6000608082019050615ed46000830187615b8b565b615ee16020830186615d42565b615eee6040830185615b8b565b615efb6060830184615b8b565b95945050505050565b60006020820190508181036000830152615f1e8184615be2565b905092915050565b60006020820190508181036000830152615f3f81615c1b565b9050919050565b60006020820190508181036000830152615f5f81615c3e565b9050919050565b60006020820190508181036000830152615f7f81615c84565b9050919050565b60006020820190508181036000830152615f9f81615ca7565b9050919050565b60006020820190508181036000830152615fbf81615cca565b9050919050565b60006020820190508181036000830152615fdf81615ced565b9050919050565b60006020820190508181036000830152615fff81615d10565b9050919050565b600060208201905061601b6000830184615d33565b92915050565b60006040820190506160366000830185615d33565b6160436020830184615d33565b9392505050565b600060208201905061605f6000830184615d42565b92915050565b600081519050919050565b600081519050919050565b600081905092915050565b600082825260208201905092915050565b600081905092915050565b60006160ad82616370565b91506160b883616370565b9250827fffffffffffffffffffffffffffffffffffffffffffffffffffffffffffffffff038211156160ed576160ec61640d565b5b828201905092915050565b600061610382616370565b915061610e83616370565b92508261611e5761611d61643c565b5b828204905092915050565b6000808291508390505b60018511156161735780860481111561614f5761614e61640d565b5b600185161561615e5780820291505b808102905061616c856164b0565b9450616133565b94509492505050565b600061618782616370565b91506161928361637a565b92506161bf7fffffffffffffffffffffffffffffffffffffffffffffffffffffffffffffffff84846161c7565b905092915050565b6000826161d75760019050616293565b816161e55760009050616293565b81600181146161fb576002811461620557616234565b6001915050616293565b60ff8411156162175761621661640d565b5b8360020a91508482111561622e5761622d61640d565b5b50616293565b5060208310610133831016604e8410600b84101617156162695782820a9050838111156162645761626361640d565b5b616293565b6162768484846001616129565b9250905081840481111561628d5761628c61640d565b5b81810290505b9392505050565b60006162a582616370565b91506162b083616370565b9250817fffffffffffffffffffffffffffffffffffffffffffffffffffffffffffffffff04831182151516156162e9576162e861640d565b5b828202905092915050565b60006162ff82616370565b915061630a83616370565b92508282101561631d5761631c61640d565b5b828203905092915050565b600061633382616350565b9050919050565b60008115159050919050565b6000819050919050565b600073ffffffffffffffffffffffffffffffffffffffff82169050919050565b6000819050919050565b600060ff82169050919050565b60005b838110156163a557808201518184015260208101905061638a565b838111156163b4576000848401525b50505050565b60006163c582616370565b91507fffffffffffffffffffffffffffffffffffffffffffffffffffffffffffffffff8214156163f8576163f761640d565b5b600182019050919050565b6000819050919050565b7f4e487b7100000000000000000000000000000000000000000000000000000000600052601160045260246000fd5b7f4e487b7100000000000000000000000000000000000000000000000000000000600052601260045260246000fd5b7f4e487b7100000000000000000000000000000000000000000000000000000000600052603260045260246000fd5b600080fd5b6000601f19601f8301169050919050565b60008160011c9050919050565b7f64732d6d6174682d7375622d756e646572666c6f770000000000000000000000600082015250565b7f556e697377617056323a20494e56414c49445f5349474e415455524500000000600082015250565b7f1901000000000000000000000000000000000000000000000000000000000000600082015250565b7f64732d6d6174682d6164642d6f766572666c6f77000000000000000000000000600082015250565b7f556e697377617056323a20455850495245440000000000000000000000000000600082015250565b7f5452414e534645525f4641494c45440000000000000000000000000000000000600082015250565b7f51696c696e3a204e4f5420454e4f554748204d415247494e0000000000000000600082015250565b7f4c4f434b45440000000000000000000000000000000000000000000000000000600082015250565b61660e81616328565b811461661957600080fd5b50565b6166258161633a565b811461663057600080fd5b50565b61663c81616346565b811461664757600080fd5b50565b61665381616370565b811461665e57600080fd5b50565b61666a8161637a565b811461667557600080fd5b5056fea2646970667358221220cf5077e5c3f7afc042e9e915ebb33f788d43a9bca6e33a4df3038f946190588864736f6c63430008070033",
			"opcodes": "PUSH1 0x80 PUSH1 0x40 MSTORE PUSH8 0xDE0B6B3A7640000 PUSH1 0x2C SSTORE PUSH1 0x1 PUSH1 0x2F SSTORE CALLVALUE DUP1 ISZERO PUSH3 0x22 JUMPI PUSH1 0x0 DUP1 REVERT JUMPDEST POP PUSH1 0x0 CHAINID SWAP1 POP PUSH32 0x8B73C3C69BB8FE3D512ECC4CF759CC79239F7B179B0FFACAA9A75D522B39400F PUSH1 0x40 MLOAD DUP1 PUSH1 0x40 ADD PUSH1 0x40 MSTORE DUP1 PUSH1 0xA DUP2 MSTORE PUSH1 0x20 ADD PUSH32 0x556E697377617020563200000000000000000000000000000000000000000000 DUP2 MSTORE POP DUP1 MLOAD SWAP1 PUSH1 0x20 ADD KECCAK256 PUSH1 0x40 MLOAD DUP1 PUSH1 0x40 ADD PUSH1 0x40 MSTORE DUP1 PUSH1 0x1 DUP2 MSTORE PUSH1 0x20 ADD PUSH32 0x3100000000000000000000000000000000000000000000000000000000000000 DUP2 MSTORE POP DUP1 MLOAD SWAP1 PUSH1 0x20 ADD KECCAK256 DUP4 ADDRESS PUSH1 0x40 MLOAD PUSH1 0x20 ADD PUSH3 0xDB SWAP6 SWAP5 SWAP4 SWAP3 SWAP2 SWAP1 PUSH3 0x172 JUMP JUMPDEST PUSH1 0x40 MLOAD PUSH1 0x20 DUP2 DUP4 SUB SUB DUP2 MSTORE SWAP1 PUSH1 0x40 MSTORE DUP1 MLOAD SWAP1 PUSH1 0x20 ADD KECCAK256 PUSH1 0x3 DUP2 SWAP1 SSTORE POP POP CALLER PUSH1 0x25 PUSH1 0x0 PUSH2 0x100 EXP DUP2 SLOAD DUP2 PUSH20 0xFFFFFFFFFFFFFFFFFFFFFFFFFFFFFFFFFFFFFFFF MUL NOT AND SWAP1 DUP4 PUSH20 0xFFFFFFFFFFFFFFFFFFFFFFFFFFFFFFFFFFFFFFFF AND MUL OR SWAP1 SSTORE POP PUSH3 0x217 JUMP JUMPDEST PUSH3 0x14A DUP2 PUSH3 0x1CF JUMP JUMPDEST DUP3 MSTORE POP POP JUMP JUMPDEST PUSH3 0x15B DUP2 PUSH3 0x1E3 JUMP JUMPDEST DUP3 MSTORE POP POP JUMP JUMPDEST PUSH3 0x16C DUP2 PUSH3 0x20D JUMP JUMPDEST DUP3 MSTORE POP POP JUMP JUMPDEST PUSH1 0x0 PUSH1 0xA0 DUP3 ADD SWAP1 POP PUSH3 0x189 PUSH1 0x0 DUP4 ADD DUP9 PUSH3 0x150 JUMP JUMPDEST PUSH3 0x198 PUSH1 0x20 DUP4 ADD DUP8 PUSH3 0x150 JUMP JUMPDEST PUSH3 0x1A7 PUSH1 0x40 DUP4 ADD DUP7 PUSH3 0x150 JUMP JUMPDEST PUSH3 0x1B6 PUSH1 0x60 DUP4 ADD DUP6 PUSH3 0x161 JUMP JUMPDEST PUSH3 0x1C5 PUSH1 0x80 DUP4 ADD DUP5 PUSH3 0x13F JUMP JUMPDEST SWAP7 SWAP6 POP POP POP POP POP POP JUMP JUMPDEST PUSH1 0x0 PUSH3 0x1DC DUP3 PUSH3 0x1ED JUMP JUMPDEST SWAP1 POP SWAP2 SWAP1 POP JUMP JUMPDEST PUSH1 0x0 DUP2 SWAP1 POP SWAP2 SWAP1 POP JUMP JUMPDEST PUSH1 0x0 PUSH20 0xFFFFFFFFFFFFFFFFFFFFFFFFFFFFFFFFFFFFFFFF DUP3 AND SWAP1 POP SWAP2 SWAP1 POP JUMP JUMPDEST PUSH1 0x0 DUP2 SWAP1 POP SWAP2 SWAP1 POP JUMP JUMPDEST PUSH2 0x66AE DUP1 PUSH3 0x227 PUSH1 0x0 CODECOPY PUSH1 0x0 RETURN INVALID PUSH1 0x80 PUSH1 0x40 MSTORE CALLVALUE DUP1 ISZERO PUSH2 0x10 JUMPI PUSH1 0x0 DUP1 REVERT JUMPDEST POP PUSH1 0x4 CALLDATASIZE LT PUSH2 0x406 JUMPI PUSH1 0x0 CALLDATALOAD PUSH1 0xE0 SHR DUP1 PUSH4 0x7E11939A GT PUSH2 0x220 JUMPI DUP1 PUSH4 0xBC25CF77 GT PUSH2 0x130 JUMPI DUP1 PUSH4 0xDDCA3F43 GT PUSH2 0xB8 JUMPI DUP1 PUSH4 0xF70F4394 GT PUSH2 0x87 JUMPI DUP1 PUSH4 0xF70F4394 EQ PUSH2 0xC32 JUMPI DUP1 PUSH4 0xF738C74E EQ PUSH2 0xC50 JUMPI DUP1 PUSH4 0xFC69B80F EQ PUSH2 0xC6E JUMPI DUP1 PUSH4 0xFE18F261 EQ PUSH2 0xC9E JUMPI DUP1 PUSH4 0xFF2F169E EQ PUSH2 0xCBC JUMPI PUSH2 0x406 JUMP JUMPDEST DUP1 PUSH4 0xDDCA3F43 EQ PUSH2 0xBBA JUMPI DUP1 PUSH4 0xDF0AB2C2 EQ PUSH2 0xBD8 JUMPI DUP1 PUSH4 0xE19A1474 EQ PUSH2 0xBF6 JUMPI DUP1 PUSH4 0xEA1797B0 EQ PUSH2 0xC14 JUMPI PUSH2 0x406 JUMP JUMPDEST DUP1 PUSH4 0xC9E525DF GT PUSH2 0xFF JUMPI DUP1 PUSH4 0xC9E525DF EQ PUSH2 0xB16 JUMPI DUP1 PUSH4 0xCFE38A5E EQ PUSH2 0xB34 JUMPI DUP1 PUSH4 0xD44022DB EQ PUSH2 0xB50 JUMPI DUP1 PUSH4 0xD505ACCF EQ PUSH2 0xB6E JUMPI DUP1 PUSH4 0xDD62ED3E EQ PUSH2 0xB8A JUMPI PUSH2 0x406 JUMP JUMPDEST DUP1 PUSH4 0xBC25CF77 EQ PUSH2 0xAA2 JUMPI DUP1 PUSH4 0xC3D81B21 EQ PUSH2 0xABE JUMPI DUP1 PUSH4 0xC45A0155 EQ PUSH2 0xADA JUMPI DUP1 PUSH4 0xC7D44932 EQ PUSH2 0xAF8 JUMPI PUSH2 0x406 JUMP JUMPDEST DUP1 PUSH4 0x8CF825E7 GT PUSH2 0x1B3 JUMPI DUP1 PUSH4 0x9A36E122 GT PUSH2 0x182 JUMPI DUP1 PUSH4 0x9A36E122 EQ PUSH2 0x9FA JUMPI DUP1 PUSH4 0xA5AA65B9 EQ PUSH2 0xA18 JUMPI DUP1 PUSH4 0xA9059CBB EQ PUSH2 0xA36 JUMPI DUP1 PUSH4 0xACD4A7C2 EQ PUSH2 0xA66 JUMPI DUP1 PUSH4 0xB7D19FC4 EQ PUSH2 0xA84 JUMPI PUSH2 0x406 JUMP JUMPDEST DUP1 PUSH4 0x8CF825E7 EQ PUSH2 0x986 JUMPI DUP1 PUSH4 0x8E361389 EQ PUSH2 0x9A2 JUMPI DUP1 PUSH4 0x9076AE86 EQ PUSH2 0x9C0 JUMPI DUP1 PUSH4 0x95D89B41 EQ PUSH2 0x9DC JUMPI PUSH2 0x406 JUMP JUMPDEST DUP1 PUSH4 0x80416C02 GT PUSH2 0x1EF JUMPI DUP1 PUSH4 0x80416C02 EQ PUSH2 0x90E JUMPI DUP1 PUSH4 0x83DFE5FD EQ PUSH2 0x92C JUMPI DUP1 PUSH4 0x84009686 EQ PUSH2 0x94A JUMPI DUP1 PUSH4 0x8BC1A32F EQ PUSH2 0x968 JUMPI PUSH2 0x406 JUMP JUMPDEST DUP1 PUSH4 0x7E11939A EQ PUSH2 0x86F JUMPI DUP1 PUSH4 0x7E1431BE EQ PUSH2 0x88D JUMPI DUP1 PUSH4 0x7ECEBE00 EQ PUSH2 0x8C0 JUMPI DUP1 PUSH4 0x7ED6281B EQ PUSH2 0x8F0 JUMPI PUSH2 0x406 JUMP JUMPDEST DUP1 PUSH4 0x30ADF81F GT PUSH2 0x31B JUMPI DUP1 PUSH4 0x4C324E6A GT PUSH2 0x2AE JUMPI DUP1 PUSH4 0x6607E7E8 GT PUSH2 0x27D JUMPI DUP1 PUSH4 0x6607E7E8 EQ PUSH2 0x7B4 JUMPI DUP1 PUSH4 0x6665FF11 EQ PUSH2 0x7D2 JUMPI DUP1 PUSH4 0x6B3545AA EQ PUSH2 0x803 JUMPI DUP1 PUSH4 0x70A08231 EQ PUSH2 0x821 JUMPI DUP1 PUSH4 0x79DBF8EA EQ PUSH2 0x851 JUMPI PUSH2 0x406 JUMP JUMPDEST DUP1 PUSH4 0x4C324E6A EQ PUSH2 0x72C JUMPI DUP1 PUSH4 0x5595D459 EQ PUSH2 0x748 JUMPI DUP1 PUSH4 0x5E287D86 EQ PUSH2 0x766 JUMPI DUP1 PUSH4 0x6126DEEF EQ PUSH2 0x784 JUMPI PUSH2 0x406 JUMP JUMPDEST DUP1 PUSH4 0x36AF2F9B GT PUSH2 0x2EA JUMPI DUP1 PUSH4 0x36AF2F9B EQ PUSH2 0x6B6 JUMPI DUP1 PUSH4 0x3C6FE2F4 EQ PUSH2 0x6D4 JUMPI DUP1 PUSH4 0x480C4F7E EQ PUSH2 0x6F2 JUMPI DUP1 PUSH4 0x485CC955 EQ PUSH2 0x710 JUMPI PUSH2 0x406 JUMP JUMPDEST DUP1 PUSH4 0x30ADF81F EQ PUSH2 0x63E JUMPI DUP1 PUSH4 0x313CE567 EQ PUSH2 0x65C JUMPI DUP1 PUSH4 0x32E7C5BF EQ PUSH2 0x67A JUMPI DUP1 PUSH4 0x3644E515 EQ PUSH2 0x698 JUMPI PUSH2 0x406 JUMP JUMPDEST DUP1 PUSH4 0x18160DDD GT PUSH2 0x39E JUMPI DUP1 PUSH4 0x225C2C50 GT PUSH2 0x36D JUMPI DUP1 PUSH4 0x225C2C50 EQ PUSH2 0x595 JUMPI DUP1 PUSH4 0x23B872DD EQ PUSH2 0x5B3 JUMPI DUP1 PUSH4 0x23ED16B6 EQ PUSH2 0x5E3 JUMPI DUP1 PUSH4 0x2DD6C254 EQ PUSH2 0x601 JUMPI DUP1 PUSH4 0x30688AB8 EQ PUSH2 0x61F JUMPI PUSH2 0x406 JUMP JUMPDEST DUP1 PUSH4 0x18160DDD EQ PUSH2 0x50B JUMPI DUP1 PUSH4 0x18DB9681 EQ PUSH2 0x529 JUMPI DUP1 PUSH4 0x1CBDFFD1 EQ PUSH2 0x547 JUMPI DUP1 PUSH4 0x2190219E EQ PUSH2 0x577 JUMPI PUSH2 0x406 JUMP JUMPDEST DUP1 PUSH4 0xBFA68D8 GT PUSH2 0x3DA JUMPI DUP1 PUSH4 0xBFA68D8 EQ PUSH2 0x495 JUMPI DUP1 PUSH4 0xF529BA2 EQ PUSH2 0x4B1 JUMPI DUP1 PUSH4 0x139860EE EQ PUSH2 0x4CF JUMPI DUP1 PUSH4 0x16DC165B EQ PUSH2 0x4ED JUMPI PUSH2 0x406 JUMP JUMPDEST DUP1 PUSH3 0xB52645 EQ PUSH2 0x40B JUMPI DUP1 PUSH4 0x6FDDE03 EQ PUSH2 0x429 JUMPI DUP1 PUSH4 0x95EA7B3 EQ PUSH2 0x447 JUMPI DUP1 PUSH4 0xB197615 EQ PUSH2 0x477 JUMPI JUMPDEST PUSH1 0x0 DUP1 REVERT JUMPDEST PUSH2 0x413 PUSH2 0xCD8 JUMP JUMPDEST PUSH1 0x40 MLOAD PUSH2 0x420 SWAP2 SWAP1 PUSH2 0x6006 JUMP JUMPDEST PUSH1 0x40 MLOAD DUP1 SWAP2 SUB SWAP1 RETURN JUMPDEST PUSH2 0x431 PUSH2 0xCDE JUMP JUMPDEST PUSH1 0x40 MLOAD PUSH2 0x43E SWAP2 SWAP1 PUSH2 0x5F04 JUMP JUMPDEST PUSH1 0x40 MLOAD DUP1 SWAP2 SUB SWAP1 RETURN JUMPDEST PUSH2 0x461 PUSH1 0x4 DUP1 CALLDATASIZE SUB DUP2 ADD SWAP1 PUSH2 0x45C SWAP2 SWAP1 PUSH2 0x59AC JUMP JUMPDEST PUSH2 0xD17 JUMP JUMPDEST PUSH1 0x40 MLOAD PUSH2 0x46E SWAP2 SWAP1 PUSH2 0x5E28 JUMP JUMPDEST PUSH1 0x40 MLOAD DUP1 SWAP2 SUB SWAP1 RETURN JUMPDEST PUSH2 0x47F PUSH2 0xD2E JUMP JUMPDEST PUSH1 0x40 MLOAD PUSH2 0x48C SWAP2 SWAP1 PUSH2 0x6006 JUMP JUMPDEST PUSH1 0x40 MLOAD DUP1 SWAP2 SUB SWAP1 RETURN JUMPDEST PUSH2 0x4AF PUSH1 0x4 DUP1 CALLDATASIZE SUB DUP2 ADD SWAP1 PUSH2 0x4AA SWAP2 SWAP1 PUSH2 0x5A19 JUMP JUMPDEST PUSH2 0xD34 JUMP JUMPDEST STOP JUMPDEST PUSH2 0x4B9 PUSH2 0xD98 JUMP JUMPDEST PUSH1 0x40 MLOAD PUSH2 0x4C6 SWAP2 SWAP1 PUSH2 0x6006 JUMP JUMPDEST PUSH1 0x40 MLOAD DUP1 SWAP2 SUB SWAP1 RETURN JUMPDEST PUSH2 0x4D7 PUSH2 0xD9E JUMP JUMPDEST PUSH1 0x40 MLOAD PUSH2 0x4E4 SWAP2 SWAP1 PUSH2 0x6006 JUMP JUMPDEST PUSH1 0x40 MLOAD DUP1 SWAP2 SUB SWAP1 RETURN JUMPDEST PUSH2 0x4F5 PUSH2 0xDA4 JUMP JUMPDEST PUSH1 0x40 MLOAD PUSH2 0x502 SWAP2 SWAP1 PUSH2 0x5D9F JUMP JUMPDEST PUSH1 0x40 MLOAD DUP1 SWAP2 SUB SWAP1 RETURN JUMPDEST PUSH2 0x513 PUSH2 0xDCA JUMP JUMPDEST PUSH1 0x40 MLOAD PUSH2 0x520 SWAP2 SWAP1 PUSH2 0x6006 JUMP JUMPDEST PUSH1 0x40 MLOAD DUP1 SWAP2 SUB SWAP1 RETURN JUMPDEST PUSH2 0x531 PUSH2 0xDD0 JUMP JUMPDEST PUSH1 0x40 MLOAD PUSH2 0x53E SWAP2 SWAP1 PUSH2 0x6006 JUMP JUMPDEST PUSH1 0x40 MLOAD DUP1 SWAP2 SUB SWAP1 RETURN JUMPDEST PUSH2 0x561 PUSH1 0x4 DUP1 CALLDATASIZE SUB DUP2 ADD SWAP1 PUSH2 0x55C SWAP2 SWAP1 PUSH2 0x5A19 JUMP JUMPDEST PUSH2 0xDD6 JUMP JUMPDEST PUSH1 0x40 MLOAD PUSH2 0x56E SWAP2 SWAP1 PUSH2 0x6006 JUMP JUMPDEST PUSH1 0x40 MLOAD DUP1 SWAP2 SUB SWAP1 RETURN JUMPDEST PUSH2 0x57F PUSH2 0xDF1 JUMP JUMPDEST PUSH1 0x40 MLOAD PUSH2 0x58C SWAP2 SWAP1 PUSH2 0x6006 JUMP JUMPDEST PUSH1 0x40 MLOAD DUP1 SWAP2 SUB SWAP1 RETURN JUMPDEST PUSH2 0x59D PUSH2 0xDF7 JUMP JUMPDEST PUSH1 0x40 MLOAD PUSH2 0x5AA SWAP2 SWAP1 PUSH2 0x6006 JUMP JUMPDEST PUSH1 0x40 MLOAD DUP1 SWAP2 SUB SWAP1 RETURN JUMPDEST PUSH2 0x5CD PUSH1 0x4 DUP1 CALLDATASIZE SUB DUP2 ADD SWAP1 PUSH2 0x5C8 SWAP2 SWAP1 PUSH2 0x5877 JUMP JUMPDEST PUSH2 0xDFD JUMP JUMPDEST PUSH1 0x40 MLOAD PUSH2 0x5DA SWAP2 SWAP1 PUSH2 0x5E28 JUMP JUMPDEST PUSH1 0x40 MLOAD DUP1 SWAP2 SUB SWAP1 RETURN JUMPDEST PUSH2 0x5EB PUSH2 0xFAA JUMP JUMPDEST PUSH1 0x40 MLOAD PUSH2 0x5F8 SWAP2 SWAP1 PUSH2 0x6006 JUMP JUMPDEST PUSH1 0x40 MLOAD DUP1 SWAP2 SUB SWAP1 RETURN JUMPDEST PUSH2 0x609 PUSH2 0xFB0 JUMP JUMPDEST PUSH1 0x40 MLOAD PUSH2 0x616 SWAP2 SWAP1 PUSH2 0x6006 JUMP JUMPDEST PUSH1 0x40 MLOAD DUP1 SWAP2 SUB SWAP1 RETURN JUMPDEST PUSH2 0x627 PUSH2 0xFB6 JUMP JUMPDEST PUSH1 0x40 MLOAD PUSH2 0x635 SWAP3 SWAP2 SWAP1 PUSH2 0x6021 JUMP JUMPDEST PUSH1 0x40 MLOAD DUP1 SWAP2 SUB SWAP1 RETURN JUMPDEST PUSH2 0x646 PUSH2 0x1149 JUMP JUMPDEST PUSH1 0x40 MLOAD PUSH2 0x653 SWAP2 SWAP1 PUSH2 0x5E43 JUMP JUMPDEST PUSH1 0x40 MLOAD DUP1 SWAP2 SUB SWAP1 RETURN JUMPDEST PUSH2 0x664 PUSH2 0x1170 JUMP JUMPDEST PUSH1 0x40 MLOAD PUSH2 0x671 SWAP2 SWAP1 PUSH2 0x604A JUMP JUMPDEST PUSH1 0x40 MLOAD DUP1 SWAP2 SUB SWAP1 RETURN JUMPDEST PUSH2 0x682 PUSH2 0x1175 JUMP JUMPDEST PUSH1 0x40 MLOAD PUSH2 0x68F SWAP2 SWAP1 PUSH2 0x6006 JUMP JUMPDEST PUSH1 0x40 MLOAD DUP1 SWAP2 SUB SWAP1 RETURN JUMPDEST PUSH2 0x6A0 PUSH2 0x117B JUMP JUMPDEST PUSH1 0x40 MLOAD PUSH2 0x6AD SWAP2 SWAP1 PUSH2 0x5E43 JUMP JUMPDEST PUSH1 0x40 MLOAD DUP1 SWAP2 SUB SWAP1 RETURN JUMPDEST PUSH2 0x6BE PUSH2 0x1181 JUMP JUMPDEST PUSH1 0x40 MLOAD PUSH2 0x6CB SWAP2 SWAP1 PUSH2 0x6006 JUMP JUMPDEST PUSH1 0x40 MLOAD DUP1 SWAP2 SUB SWAP1 RETURN JUMPDEST PUSH2 0x6DC PUSH2 0x1187 JUMP JUMPDEST PUSH1 0x40 MLOAD PUSH2 0x6E9 SWAP2 SWAP1 PUSH2 0x6006 JUMP JUMPDEST PUSH1 0x40 MLOAD DUP1 SWAP2 SUB SWAP1 RETURN JUMPDEST PUSH2 0x6FA PUSH2 0x118D JUMP JUMPDEST PUSH1 0x40 MLOAD PUSH2 0x707 SWAP2 SWAP1 PUSH2 0x6006 JUMP JUMPDEST PUSH1 0x40 MLOAD DUP1 SWAP2 SUB SWAP1 RETURN JUMPDEST PUSH2 0x72A PUSH1 0x4 DUP1 CALLDATASIZE SUB DUP2 ADD SWAP1 PUSH2 0x725 SWAP2 SWAP1 PUSH2 0x5837 JUMP JUMPDEST PUSH2 0x1193 JUMP JUMPDEST STOP JUMPDEST PUSH2 0x746 PUSH1 0x4 DUP1 CALLDATASIZE SUB DUP2 ADD SWAP1 PUSH2 0x741 SWAP2 SWAP1 PUSH2 0x5AB3 JUMP JUMPDEST PUSH2 0x12B5 JUMP JUMPDEST STOP JUMPDEST PUSH2 0x750 PUSH2 0x21C7 JUMP JUMPDEST PUSH1 0x40 MLOAD PUSH2 0x75D SWAP2 SWAP1 PUSH2 0x6006 JUMP JUMPDEST PUSH1 0x40 MLOAD DUP1 SWAP2 SUB SWAP1 RETURN JUMPDEST PUSH2 0x76E PUSH2 0x21CD JUMP JUMPDEST PUSH1 0x40 MLOAD PUSH2 0x77B SWAP2 SWAP1 PUSH2 0x6006 JUMP JUMPDEST PUSH1 0x40 MLOAD DUP1 SWAP2 SUB SWAP1 RETURN JUMPDEST PUSH2 0x79E PUSH1 0x4 DUP1 CALLDATASIZE SUB DUP2 ADD SWAP1 PUSH2 0x799 SWAP2 SWAP1 PUSH2 0x5AB3 JUMP JUMPDEST PUSH2 0x21D3 JUMP JUMPDEST PUSH1 0x40 MLOAD PUSH2 0x7AB SWAP2 SWAP1 PUSH2 0x6006 JUMP JUMPDEST PUSH1 0x40 MLOAD DUP1 SWAP2 SUB SWAP1 RETURN JUMPDEST PUSH2 0x7BC PUSH2 0x22D4 JUMP JUMPDEST PUSH1 0x40 MLOAD PUSH2 0x7C9 SWAP2 SWAP1 PUSH2 0x6006 JUMP JUMPDEST PUSH1 0x40 MLOAD DUP1 SWAP2 SUB SWAP1 RETURN JUMPDEST PUSH2 0x7EC PUSH1 0x4 DUP1 CALLDATASIZE SUB DUP2 ADD SWAP1 PUSH2 0x7E7 SWAP2 SWAP1 PUSH2 0x5A73 JUMP JUMPDEST PUSH2 0x22DA JUMP JUMPDEST PUSH1 0x40 MLOAD PUSH2 0x7FA SWAP3 SWAP2 SWAP1 PUSH2 0x6021 JUMP JUMPDEST PUSH1 0x40 MLOAD DUP1 SWAP2 SUB SWAP1 RETURN JUMPDEST PUSH2 0x80B PUSH2 0x2447 JUMP JUMPDEST PUSH1 0x40 MLOAD PUSH2 0x818 SWAP2 SWAP1 PUSH2 0x6006 JUMP JUMPDEST PUSH1 0x40 MLOAD DUP1 SWAP2 SUB SWAP1 RETURN JUMPDEST PUSH2 0x83B PUSH1 0x4 DUP1 CALLDATASIZE SUB DUP2 ADD SWAP1 PUSH2 0x836 SWAP2 SWAP1 PUSH2 0x580A JUMP JUMPDEST PUSH2 0x244D JUMP JUMPDEST PUSH1 0x40 MLOAD PUSH2 0x848 SWAP2 SWAP1 PUSH2 0x6006 JUMP JUMPDEST PUSH1 0x40 MLOAD DUP1 SWAP2 SUB SWAP1 RETURN JUMPDEST PUSH2 0x859 PUSH2 0x2465 JUMP JUMPDEST PUSH1 0x40 MLOAD PUSH2 0x866 SWAP2 SWAP1 PUSH2 0x6006 JUMP JUMPDEST PUSH1 0x40 MLOAD DUP1 SWAP2 SUB SWAP1 RETURN JUMPDEST PUSH2 0x877 PUSH2 0x246B JUMP JUMPDEST PUSH1 0x40 MLOAD PUSH2 0x884 SWAP2 SWAP1 PUSH2 0x6006 JUMP JUMPDEST PUSH1 0x40 MLOAD DUP1 SWAP2 SUB SWAP1 RETURN JUMPDEST PUSH2 0x8A7 PUSH1 0x4 DUP1 CALLDATASIZE SUB DUP2 ADD SWAP1 PUSH2 0x8A2 SWAP2 SWAP1 PUSH2 0x596C JUMP JUMPDEST PUSH2 0x2471 JUMP JUMPDEST PUSH1 0x40 MLOAD PUSH2 0x8B7 SWAP5 SWAP4 SWAP3 SWAP2 SWAP1 PUSH2 0x5DBA JUMP JUMPDEST PUSH1 0x40 MLOAD DUP1 SWAP2 SUB SWAP1 RETURN JUMPDEST PUSH2 0x8DA PUSH1 0x4 DUP1 CALLDATASIZE SUB DUP2 ADD SWAP1 PUSH2 0x8D5 SWAP2 SWAP1 PUSH2 0x580A JUMP JUMPDEST PUSH2 0x24DB JUMP JUMPDEST PUSH1 0x40 MLOAD PUSH2 0x8E7 SWAP2 SWAP1 PUSH2 0x6006 JUMP JUMPDEST PUSH1 0x40 MLOAD DUP1 SWAP2 SUB SWAP1 RETURN JUMPDEST PUSH2 0x8F8 PUSH2 0x24F3 JUMP JUMPDEST PUSH1 0x40 MLOAD PUSH2 0x905 SWAP2 SWAP1 PUSH2 0x6006 JUMP JUMPDEST PUSH1 0x40 MLOAD DUP1 SWAP2 SUB SWAP1 RETURN JUMPDEST PUSH2 0x916 PUSH2 0x24F9 JUMP JUMPDEST PUSH1 0x40 MLOAD PUSH2 0x923 SWAP2 SWAP1 PUSH2 0x6006 JUMP JUMPDEST PUSH1 0x40 MLOAD DUP1 SWAP2 SUB SWAP1 RETURN JUMPDEST PUSH2 0x934 PUSH2 0x24FF JUMP JUMPDEST PUSH1 0x40 MLOAD PUSH2 0x941 SWAP2 SWAP1 PUSH2 0x6006 JUMP JUMPDEST PUSH1 0x40 MLOAD DUP1 SWAP2 SUB SWAP1 RETURN JUMPDEST PUSH2 0x952 PUSH2 0x2505 JUMP JUMPDEST PUSH1 0x40 MLOAD PUSH2 0x95F SWAP2 SWAP1 PUSH2 0x6006 JUMP JUMPDEST PUSH1 0x40 MLOAD DUP1 SWAP2 SUB SWAP1 RETURN JUMPDEST PUSH2 0x970 PUSH2 0x250B JUMP JUMPDEST PUSH1 0x40 MLOAD PUSH2 0x97D SWAP2 SWAP1 PUSH2 0x6006 JUMP JUMPDEST PUSH1 0x40 MLOAD DUP1 SWAP2 SUB SWAP1 RETURN JUMPDEST PUSH2 0x9A0 PUSH1 0x4 DUP1 CALLDATASIZE SUB DUP2 ADD SWAP1 PUSH2 0x99B SWAP2 SWAP1 PUSH2 0x5837 JUMP JUMPDEST PUSH2 0x2511 JUMP JUMPDEST STOP JUMPDEST PUSH2 0x9AA PUSH2 0x2833 JUMP JUMPDEST PUSH1 0x40 MLOAD PUSH2 0x9B7 SWAP2 SWAP1 PUSH2 0x6006 JUMP JUMPDEST PUSH1 0x40 MLOAD DUP1 SWAP2 SUB SWAP1 RETURN JUMPDEST PUSH2 0x9DA PUSH1 0x4 DUP1 CALLDATASIZE SUB DUP2 ADD SWAP1 PUSH2 0x9D5 SWAP2 SWAP1 PUSH2 0x5B06 JUMP JUMPDEST PUSH2 0x2839 JUMP JUMPDEST STOP JUMPDEST PUSH2 0x9E4 PUSH2 0x2C5D JUMP JUMPDEST PUSH1 0x40 MLOAD PUSH2 0x9F1 SWAP2 SWAP1 PUSH2 0x5F04 JUMP JUMPDEST PUSH1 0x40 MLOAD DUP1 SWAP2 SUB SWAP1 RETURN JUMPDEST PUSH2 0xA02 PUSH2 0x2C96 JUMP JUMPDEST PUSH1 0x40 MLOAD PUSH2 0xA0F SWAP2 SWAP1 PUSH2 0x6006 JUMP JUMPDEST PUSH1 0x40 MLOAD DUP1 SWAP2 SUB SWAP1 RETURN JUMPDEST PUSH2 0xA20 PUSH2 0x2C9C JUMP JUMPDEST PUSH1 0x40 MLOAD PUSH2 0xA2D SWAP2 SWAP1 PUSH2 0x6006 JUMP JUMPDEST PUSH1 0x40 MLOAD DUP1 SWAP2 SUB SWAP1 RETURN JUMPDEST PUSH2 0xA50 PUSH1 0x4 DUP1 CALLDATASIZE SUB DUP2 ADD SWAP1 PUSH2 0xA4B SWAP2 SWAP1 PUSH2 0x59AC JUMP JUMPDEST PUSH2 0x2CA2 JUMP JUMPDEST PUSH1 0x40 MLOAD PUSH2 0xA5D SWAP2 SWAP1 PUSH2 0x5E28 JUMP JUMPDEST PUSH1 0x40 MLOAD DUP1 SWAP2 SUB SWAP1 RETURN JUMPDEST PUSH2 0xA6E PUSH2 0x2CB9 JUMP JUMPDEST PUSH1 0x40 MLOAD PUSH2 0xA7B SWAP2 SWAP1 PUSH2 0x6006 JUMP JUMPDEST PUSH1 0x40 MLOAD DUP1 SWAP2 SUB SWAP1 RETURN JUMPDEST PUSH2 0xA8C PUSH2 0x2CBF JUMP JUMPDEST PUSH1 0x40 MLOAD PUSH2 0xA99 SWAP2 SWAP1 PUSH2 0x5D9F JUMP JUMPDEST PUSH1 0x40 MLOAD DUP1 SWAP2 SUB SWAP1 RETURN JUMPDEST PUSH2 0xABC PUSH1 0x4 DUP1 CALLDATASIZE SUB DUP2 ADD SWAP1 PUSH2 0xAB7 SWAP2 SWAP1 PUSH2 0x580A JUMP JUMPDEST PUSH2 0x2CE5 JUMP JUMPDEST STOP JUMPDEST PUSH2 0xAD8 PUSH1 0x4 DUP1 CALLDATASIZE SUB DUP2 ADD SWAP1 PUSH2 0xAD3 SWAP2 SWAP1 PUSH2 0x5837 JUMP JUMPDEST PUSH2 0x2F13 JUMP JUMPDEST STOP JUMPDEST PUSH2 0xAE2 PUSH2 0x32C4 JUMP JUMPDEST PUSH1 0x40 MLOAD PUSH2 0xAEF SWAP2 SWAP1 PUSH2 0x5D9F JUMP JUMPDEST PUSH1 0x40 MLOAD DUP1 SWAP2 SUB SWAP1 RETURN JUMPDEST PUSH2 0xB00 PUSH2 0x32EA JUMP JUMPDEST PUSH1 0x40 MLOAD PUSH2 0xB0D SWAP2 SWAP1 PUSH2 0x5E28 JUMP JUMPDEST PUSH1 0x40 MLOAD DUP1 SWAP2 SUB SWAP1 RETURN JUMPDEST PUSH2 0xB1E PUSH2 0x32FD JUMP JUMPDEST PUSH1 0x40 MLOAD PUSH2 0xB2B SWAP2 SWAP1 PUSH2 0x6006 JUMP JUMPDEST PUSH1 0x40 MLOAD DUP1 SWAP2 SUB SWAP1 RETURN JUMPDEST PUSH2 0xB4E PUSH1 0x4 DUP1 CALLDATASIZE SUB DUP2 ADD SWAP1 PUSH2 0xB49 SWAP2 SWAP1 PUSH2 0x5A19 JUMP JUMPDEST PUSH2 0x3303 JUMP JUMPDEST STOP JUMPDEST PUSH2 0xB58 PUSH2 0x3367 JUMP JUMPDEST PUSH1 0x40 MLOAD PUSH2 0xB65 SWAP2 SWAP1 PUSH2 0x6006 JUMP JUMPDEST PUSH1 0x40 MLOAD DUP1 SWAP2 SUB SWAP1 RETURN JUMPDEST PUSH2 0xB88 PUSH1 0x4 DUP1 CALLDATASIZE SUB DUP2 ADD SWAP1 PUSH2 0xB83 SWAP2 SWAP1 PUSH2 0x58CA JUMP JUMPDEST PUSH2 0x336D JUMP JUMPDEST STOP JUMPDEST PUSH2 0xBA4 PUSH1 0x4 DUP1 CALLDATASIZE SUB DUP2 ADD SWAP1 PUSH2 0xB9F SWAP2 SWAP1 PUSH2 0x5837 JUMP JUMPDEST PUSH2 0x3595 JUMP JUMPDEST PUSH1 0x40 MLOAD PUSH2 0xBB1 SWAP2 SWAP1 PUSH2 0x6006 JUMP JUMPDEST PUSH1 0x40 MLOAD DUP1 SWAP2 SUB SWAP1 RETURN JUMPDEST PUSH2 0xBC2 PUSH2 0x35BA JUMP JUMPDEST PUSH1 0x40 MLOAD PUSH2 0xBCF SWAP2 SWAP1 PUSH2 0x6006 JUMP JUMPDEST PUSH1 0x40 MLOAD DUP1 SWAP2 SUB SWAP1 RETURN JUMPDEST PUSH2 0xBE0 PUSH2 0x35C0 JUMP JUMPDEST PUSH1 0x40 MLOAD PUSH2 0xBED SWAP2 SWAP1 PUSH2 0x6006 JUMP JUMPDEST PUSH1 0x40 MLOAD DUP1 SWAP2 SUB SWAP1 RETURN JUMPDEST PUSH2 0xBFE PUSH2 0x35C6 JUMP JUMPDEST PUSH1 0x40 MLOAD PUSH2 0xC0B SWAP2 SWAP1 PUSH2 0x6006 JUMP JUMPDEST PUSH1 0x40 MLOAD DUP1 SWAP2 SUB SWAP1 RETURN JUMPDEST PUSH2 0xC1C PUSH2 0x35CC JUMP JUMPDEST PUSH1 0x40 MLOAD PUSH2 0xC29 SWAP2 SWAP1 PUSH2 0x6006 JUMP JUMPDEST PUSH1 0x40 MLOAD DUP1 SWAP2 SUB SWAP1 RETURN JUMPDEST PUSH2 0xC3A PUSH2 0x35D2 JUMP JUMPDEST PUSH1 0x40 MLOAD PUSH2 0xC47 SWAP2 SWAP1 PUSH2 0x6006 JUMP JUMPDEST PUSH1 0x40 MLOAD DUP1 SWAP2 SUB SWAP1 RETURN JUMPDEST PUSH2 0xC58 PUSH2 0x35D8 JUMP JUMPDEST PUSH1 0x40 MLOAD PUSH2 0xC65 SWAP2 SWAP1 PUSH2 0x6006 JUMP JUMPDEST PUSH1 0x40 MLOAD DUP1 SWAP2 SUB SWAP1 RETURN JUMPDEST PUSH2 0xC88 PUSH1 0x4 DUP1 CALLDATASIZE SUB DUP2 ADD SWAP1 PUSH2 0xC83 SWAP2 SWAP1 PUSH2 0x59AC JUMP JUMPDEST PUSH2 0x35DE JUMP JUMPDEST PUSH1 0x40 MLOAD PUSH2 0xC95 SWAP2 SWAP1 PUSH2 0x6006 JUMP JUMPDEST PUSH1 0x40 MLOAD DUP1 SWAP2 SUB SWAP1 RETURN JUMPDEST PUSH2 0xCA6 PUSH2 0x3606 JUMP JUMPDEST PUSH1 0x40 MLOAD PUSH2 0xCB3 SWAP2 SWAP1 PUSH2 0x6006 JUMP JUMPDEST PUSH1 0x40 MLOAD DUP1 SWAP2 SUB SWAP1 RETURN JUMPDEST PUSH2 0xCD6 PUSH1 0x4 DUP1 CALLDATASIZE SUB DUP2 ADD SWAP1 PUSH2 0xCD1 SWAP2 SWAP1 PUSH2 0x5A19 JUMP JUMPDEST PUSH2 0x360C JUMP JUMPDEST STOP JUMPDEST PUSH1 0xE SLOAD DUP2 JUMP JUMPDEST PUSH1 0x40 MLOAD DUP1 PUSH1 0x40 ADD PUSH1 0x40 MSTORE DUP1 PUSH1 0xA DUP2 MSTORE PUSH1 0x20 ADD PUSH32 0x556E697377617020563200000000000000000000000000000000000000000000 DUP2 MSTORE POP DUP2 JUMP JUMPDEST PUSH1 0x0 PUSH2 0xD24 CALLER DUP5 DUP5 PUSH2 0x3670 JUMP JUMPDEST PUSH1 0x1 SWAP1 POP SWAP3 SWAP2 POP POP JUMP JUMPDEST PUSH1 0x15 SLOAD DUP2 JUMP JUMPDEST PUSH1 0x25 PUSH1 0x0 SWAP1 SLOAD SWAP1 PUSH2 0x100 EXP SWAP1 DIV PUSH20 0xFFFFFFFFFFFFFFFFFFFFFFFFFFFFFFFFFFFFFFFF AND PUSH20 0xFFFFFFFFFFFFFFFFFFFFFFFFFFFFFFFFFFFFFFFF AND CALLER PUSH20 0xFFFFFFFFFFFFFFFFFFFFFFFFFFFFFFFFFFFFFFFF AND EQ PUSH2 0xD8E JUMPI PUSH1 0x0 DUP1 REVERT JUMPDEST DUP1 PUSH1 0x21 DUP2 SWAP1 SSTORE POP POP JUMP JUMPDEST PUSH1 0x7 SLOAD DUP2 JUMP JUMPDEST PUSH1 0x1C SLOAD DUP2 JUMP JUMPDEST PUSH1 0x26 PUSH1 0x0 SWAP1 SLOAD SWAP1 PUSH2 0x100 EXP SWAP1 DIV PUSH20 0xFFFFFFFFFFFFFFFFFFFFFFFFFFFFFFFFFFFFFFFF AND DUP2 JUMP JUMPDEST PUSH1 0x0 SLOAD DUP2 JUMP JUMPDEST PUSH1 0x1D SLOAD DUP2 JUMP JUMPDEST PUSH1 0x30 DUP2 PUSH1 0x2 DUP2 LT PUSH2 0xDE6 JUMPI PUSH1 0x0 DUP1 REVERT JUMPDEST ADD PUSH1 0x0 SWAP2 POP SWAP1 POP SLOAD DUP2 JUMP JUMPDEST PUSH1 0x19 SLOAD DUP2 JUMP JUMPDEST PUSH1 0x1A SLOAD DUP2 JUMP JUMPDEST PUSH1 0x0 PUSH2 0x101 PUSH1 0x2 PUSH1 0x0 DUP7 PUSH20 0xFFFFFFFFFFFFFFFFFFFFFFFFFFFFFFFFFFFFFFFF AND PUSH20 0xFFFFFFFFFFFFFFFFFFFFFFFFFFFFFFFFFFFFFFFF AND DUP2 MSTORE PUSH1 0x20 ADD SWAP1 DUP2 MSTORE PUSH1 0x20 ADD PUSH1 0x0 KECCAK256 PUSH1 0x0 CALLER PUSH20 0xFFFFFFFFFFFFFFFFFFFFFFFFFFFFFFFFFFFFFFFF AND PUSH20 0xFFFFFFFFFFFFFFFFFFFFFFFFFFFFFFFFFFFFFFFF AND DUP2 MSTORE PUSH1 0x20 ADD SWAP1 DUP2 MSTORE PUSH1 0x20 ADD PUSH1 0x0 KECCAK256 SLOAD EQ PUSH2 0xF94 JUMPI PUSH2 0xF13 DUP3 PUSH1 0x2 PUSH1 0x0 DUP8 PUSH20 0xFFFFFFFFFFFFFFFFFFFFFFFFFFFFFFFFFFFFFFFF AND PUSH20 0xFFFFFFFFFFFFFFFFFFFFFFFFFFFFFFFFFFFFFFFF AND DUP2 MSTORE PUSH1 0x20 ADD SWAP1 DUP2 MSTORE PUSH1 0x20 ADD PUSH1 0x0 KECCAK256 PUSH1 0x0 CALLER PUSH20 0xFFFFFFFFFFFFFFFFFFFFFFFFFFFFFFFFFFFFFFFF AND PUSH20 0xFFFFFFFFFFFFFFFFFFFFFFFFFFFFFFFFFFFFFFFF AND DUP2 MSTORE PUSH1 0x20 ADD SWAP1 DUP2 MSTORE PUSH1 0x20 ADD PUSH1 0x0 KECCAK256 SLOAD PUSH2 0x375B SWAP1 SWAP2 SWAP1 PUSH4 0xFFFFFFFF AND JUMP JUMPDEST PUSH1 0x2 PUSH1 0x0 DUP7 PUSH20 0xFFFFFFFFFFFFFFFFFFFFFFFFFFFFFFFFFFFFFFFF AND PUSH20 0xFFFFFFFFFFFFFFFFFFFFFFFFFFFFFFFFFFFFFFFF AND DUP2 MSTORE PUSH1 0x20 ADD SWAP1 DUP2 MSTORE PUSH1 0x20 ADD PUSH1 0x0 KECCAK256 PUSH1 0x0 CALLER PUSH20 0xFFFFFFFFFFFFFFFFFFFFFFFFFFFFFFFFFFFFFFFF AND PUSH20 0xFFFFFFFFFFFFFFFFFFFFFFFFFFFFFFFFFFFFFFFF AND DUP2 MSTORE PUSH1 0x20 ADD SWAP1 DUP2 MSTORE PUSH1 0x20 ADD PUSH1 0x0 KECCAK256 DUP2 SWAP1 SSTORE POP JUMPDEST PUSH2 0xF9F DUP5 DUP5 DUP5 PUSH2 0x37B4 JUMP JUMPDEST PUSH1 0x1 SWAP1 POP SWAP4 SWAP3 POP POP POP JUMP JUMPDEST PUSH1 0x1E SLOAD DUP2 JUMP JUMPDEST PUSH1 0x29 SLOAD DUP2 JUMP JUMPDEST PUSH1 0x0 DUP1 PUSH1 0x14 SLOAD PUSH1 0x26 PUSH1 0x0 SWAP1 SLOAD SWAP1 PUSH2 0x100 EXP SWAP1 DIV PUSH20 0xFFFFFFFFFFFFFFFFFFFFFFFFFFFFFFFFFFFFFFFF AND PUSH20 0xFFFFFFFFFFFFFFFFFFFFFFFFFFFFFFFFFFFFFFFF AND PUSH4 0x70A08231 ADDRESS PUSH1 0x40 MLOAD DUP3 PUSH4 0xFFFFFFFF AND PUSH1 0xE0 SHL DUP2 MSTORE PUSH1 0x4 ADD PUSH2 0x1017 SWAP2 SWAP1 PUSH2 0x5D9F JUMP JUMPDEST PUSH1 0x20 PUSH1 0x40 MLOAD DUP1 DUP4 SUB DUP2 DUP7 DUP1 EXTCODESIZE ISZERO DUP1 ISZERO PUSH2 0x102F JUMPI PUSH1 0x0 DUP1 REVERT JUMPDEST POP GAS STATICCALL ISZERO DUP1 ISZERO PUSH2 0x1043 JUMPI RETURNDATASIZE PUSH1 0x0 DUP1 RETURNDATACOPY RETURNDATASIZE PUSH1 0x0 REVERT JUMPDEST POP POP POP POP PUSH1 0x40 MLOAD RETURNDATASIZE PUSH1 0x1F NOT PUSH1 0x1F DUP3 ADD AND DUP3 ADD DUP1 PUSH1 0x40 MSTORE POP DUP2 ADD SWAP1 PUSH2 0x1067 SWAP2 SWAP1 PUSH2 0x5A46 JUMP JUMPDEST PUSH2 0x1071 SWAP2 SWAP1 PUSH2 0x62F4 JUMP JUMPDEST SWAP2 POP PUSH1 0x13 SLOAD PUSH1 0x27 PUSH1 0x0 SWAP1 SLOAD SWAP1 PUSH2 0x100 EXP SWAP1 DIV PUSH20 0xFFFFFFFFFFFFFFFFFFFFFFFFFFFFFFFFFFFFFFFF AND PUSH20 0xFFFFFFFFFFFFFFFFFFFFFFFFFFFFFFFFFFFFFFFF AND PUSH4 0x70A08231 ADDRESS PUSH1 0x40 MLOAD DUP3 PUSH4 0xFFFFFFFF AND PUSH1 0xE0 SHL DUP2 MSTORE PUSH1 0x4 ADD PUSH2 0x10D1 SWAP2 SWAP1 PUSH2 0x5D9F JUMP JUMPDEST PUSH1 0x20 PUSH1 0x40 MLOAD DUP1 DUP4 SUB DUP2 DUP7 DUP1 EXTCODESIZE ISZERO DUP1 ISZERO PUSH2 0x10E9 JUMPI PUSH1 0x0 DUP1 REVERT JUMPDEST POP GAS STATICCALL ISZERO DUP1 ISZERO PUSH2 0x10FD JUMPI RETURNDATASIZE PUSH1 0x0 DUP1 RETURNDATACOPY RETURNDATASIZE PUSH1 0x0 REVERT JUMPDEST POP POP POP POP PUSH1 0x40 MLOAD RETURNDATASIZE PUSH1 0x1F NOT PUSH1 0x1F DUP3 ADD AND DUP3 ADD DUP1 PUSH1 0x40 MSTORE POP DUP2 ADD SWAP1 PUSH2 0x1121 SWAP2 SWAP1 PUSH2 0x5A46 JUMP JUMPDEST PUSH2 0x112B SWAP2 SWAP1 PUSH2 0x62F4 JUMP JUMPDEST SWAP1 POP PUSH1 0x0 DUP3 GT DUP1 PUSH2 0x113C JUMPI POP PUSH1 0x0 DUP2 GT JUMPDEST PUSH2 0x1145 JUMPI PUSH1 0x0 DUP1 REVERT JUMPDEST SWAP1 SWAP2 JUMP JUMPDEST PUSH32 0x6E71EDAE12B1B97F4D1F60370FEF10105FA2FAAE0126114A169C64845D6126C9 PUSH1 0x0 SHL DUP2 JUMP JUMPDEST PUSH1 0x12 DUP2 JUMP JUMPDEST PUSH1 0x5 SLOAD DUP2 JUMP JUMPDEST PUSH1 0x3 SLOAD DUP2 JUMP JUMPDEST PUSH1 0xC SLOAD DUP2 JUMP JUMPDEST PUSH1 0x13 SLOAD DUP2 JUMP JUMPDEST PUSH1 0x17 SLOAD DUP2 JUMP JUMPDEST PUSH1 0x25 PUSH1 0x0 SWAP1 SLOAD SWAP1 PUSH2 0x100 EXP SWAP1 DIV PUSH20 0xFFFFFFFFFFFFFFFFFFFFFFFFFFFFFFFFFFFFFFFF AND PUSH20 0xFFFFFFFFFFFFFFFFFFFFFFFFFFFFFFFFFFFFFFFF AND CALLER PUSH20 0xFFFFFFFFFFFFFFFFFFFFFFFFFFFFFFFFFFFFFFFF AND EQ PUSH2 0x11ED JUMPI PUSH1 0x0 DUP1 REVERT JUMPDEST DUP2 PUSH1 0x26 PUSH1 0x0 PUSH2 0x100 EXP DUP2 SLOAD DUP2 PUSH20 0xFFFFFFFFFFFFFFFFFFFFFFFFFFFFFFFFFFFFFFFF MUL NOT AND SWAP1 DUP4 PUSH20 0xFFFFFFFFFFFFFFFFFFFFFFFFFFFFFFFFFFFFFFFF AND MUL OR SWAP1 SSTORE POP DUP1 PUSH1 0x27 PUSH1 0x0 PUSH2 0x100 EXP DUP2 SLOAD DUP2 PUSH20 0xFFFFFFFFFFFFFFFFFFFFFFFFFFFFFFFFFFFFFFFF MUL NOT AND SWAP1 DUP4 PUSH20 0xFFFFFFFFFFFFFFFFFFFFFFFFFFFFFFFFFFFFFFFF AND MUL OR SWAP1 SSTORE POP PUSH1 0x2C SLOAD PUSH1 0x5 DUP2 SWAP1 SSTORE POP PUSH1 0x2C SLOAD PUSH1 0x6 DUP2 SWAP1 SSTORE POP PUSH1 0x2C SLOAD PUSH1 0x7 DUP2 SWAP1 SSTORE POP PUSH1 0x7 SLOAD PUSH1 0x8 DUP2 SWAP1 SSTORE POP PUSH1 0x2 PUSH1 0x7 SLOAD PUSH2 0x12A2 SWAP2 SWAP1 PUSH2 0x60F8 JUMP JUMPDEST PUSH1 0x9 DUP2 SWAP1 SSTORE POP PUSH1 0x9 SLOAD PUSH1 0xA DUP2 SWAP1 SSTORE POP POP POP JUMP JUMPDEST PUSH1 0x1 PUSH1 0x2F SLOAD EQ PUSH2 0x12FA JUMPI PUSH1 0x40 MLOAD PUSH32 0x8C379A000000000000000000000000000000000000000000000000000000000 DUP2 MSTORE PUSH1 0x4 ADD PUSH2 0x12F1 SWAP1 PUSH2 0x5FE6 JUMP JUMPDEST PUSH1 0x40 MLOAD DUP1 SWAP2 SUB SWAP1 REVERT JUMPDEST PUSH1 0x0 PUSH1 0x2F DUP2 SWAP1 SSTORE POP PUSH1 0x0 DUP3 DUP5 PUSH2 0x1310 SWAP2 SWAP1 PUSH2 0x629A JUMP JUMPDEST EQ DUP1 ISZERO PUSH2 0x1328 JUMPI POP PUSH1 0x0 DUP3 DUP5 PUSH2 0x1326 SWAP2 SWAP1 PUSH2 0x60A2 JUMP JUMPDEST GT JUMPDEST DUP1 ISZERO PUSH2 0x1356 JUMPI POP PUSH2 0x1338 DUP2 PUSH2 0x3948 JUMP JUMPDEST PUSH2 0x1341 DUP3 PUSH2 0x3A3C JUMP JUMPDEST PUSH2 0x134A DUP4 PUSH2 0x3B21 JUMP JUMPDEST PUSH2 0x1354 SWAP2 SWAP1 PUSH2 0x60A2 JUMP JUMPDEST GT JUMPDEST DUP1 ISZERO PUSH2 0x13B9 JUMPI POP PUSH1 0x32 PUSH1 0x0 DUP3 PUSH20 0xFFFFFFFFFFFFFFFFFFFFFFFFFFFFFFFFFFFFFFFF AND PUSH20 0xFFFFFFFFFFFFFFFFFFFFFFFFFFFFFFFFFFFFFFFF AND DUP2 MSTORE PUSH1 0x20 ADD SWAP1 DUP2 MSTORE PUSH1 0x20 ADD PUSH1 0x0 KECCAK256 PUSH1 0x0 DUP1 ISZERO ISZERO ISZERO ISZERO DUP2 MSTORE PUSH1 0x20 ADD SWAP1 DUP2 MSTORE PUSH1 0x20 ADD PUSH1 0x0 KECCAK256 PUSH1 0x2 ADD SLOAD DUP4 GT ISZERO JUMPDEST DUP1 ISZERO PUSH2 0x141D JUMPI POP PUSH1 0x32 PUSH1 0x0 DUP3 PUSH20 0xFFFFFFFFFFFFFFFFFFFFFFFFFFFFFFFFFFFFFFFF AND PUSH20 0xFFFFFFFFFFFFFFFFFFFFFFFFFFFFFFFFFFFFFFFF AND DUP2 MSTORE PUSH1 0x20 ADD SWAP1 DUP2 MSTORE PUSH1 0x20 ADD PUSH1 0x0 KECCAK256 PUSH1 0x0 PUSH1 0x1 ISZERO ISZERO ISZERO ISZERO DUP2 MSTORE PUSH1 0x20 ADD SWAP1 DUP2 MSTORE PUSH1 0x20 ADD PUSH1 0x0 KECCAK256 PUSH1 0x2 ADD SLOAD DUP3 GT ISZERO JUMPDEST PUSH2 0x1426 JUMPI PUSH1 0x0 DUP1 REVERT JUMPDEST PUSH2 0x142E PUSH2 0x3BF0 JUMP JUMPDEST PUSH1 0x0 DUP4 GT ISZERO PUSH2 0x1B60 JUMPI PUSH1 0x0 PUSH2 0x1444 DUP5 PUSH1 0x1 PUSH2 0x3D5C JUMP JUMPDEST SWAP1 POP PUSH1 0x0 PUSH2 0x1508 DUP6 PUSH1 0x32 PUSH1 0x0 DUP7 PUSH20 0xFFFFFFFFFFFFFFFFFFFFFFFFFFFFFFFFFFFFFFFF AND PUSH20 0xFFFFFFFFFFFFFFFFFFFFFFFFFFFFFFFFFFFFFFFF AND DUP2 MSTORE PUSH1 0x20 ADD SWAP1 DUP2 MSTORE PUSH1 0x20 ADD PUSH1 0x0 KECCAK256 PUSH1 0x0 PUSH1 0x1 ISZERO ISZERO ISZERO ISZERO DUP2 MSTORE PUSH1 0x20 ADD SWAP1 DUP2 MSTORE PUSH1 0x20 ADD PUSH1 0x0 KECCAK256 PUSH1 0x1 ADD SLOAD PUSH1 0x1A SLOAD PUSH1 0x1C SLOAD PUSH1 0x32 PUSH1 0x0 DUP10 PUSH20 0xFFFFFFFFFFFFFFFFFFFFFFFFFFFFFFFFFFFFFFFF AND PUSH20 0xFFFFFFFFFFFFFFFFFFFFFFFFFFFFFFFFFFFFFFFF AND DUP2 MSTORE PUSH1 0x20 ADD SWAP1 DUP2 MSTORE PUSH1 0x20 ADD PUSH1 0x0 KECCAK256 PUSH1 0x0 DUP1 ISZERO ISZERO ISZERO ISZERO DUP2 MSTORE PUSH1 0x20 ADD SWAP1 DUP2 MSTORE PUSH1 0x20 ADD PUSH1 0x0 KECCAK256 PUSH1 0x2 ADD SLOAD PUSH2 0x408A JUMP JUMPDEST SWAP1 POP DUP5 PUSH1 0x32 PUSH1 0x0 DUP6 PUSH20 0xFFFFFFFFFFFFFFFFFFFFFFFFFFFFFFFFFFFFFFFF AND PUSH20 0xFFFFFFFFFFFFFFFFFFFFFFFFFFFFFFFFFFFFFFFF AND DUP2 MSTORE PUSH1 0x20 ADD SWAP1 DUP2 MSTORE PUSH1 0x20 ADD PUSH1 0x0 KECCAK256 PUSH1 0x0 DUP1 ISZERO ISZERO ISZERO ISZERO DUP2 MSTORE PUSH1 0x20 ADD SWAP1 DUP2 MSTORE PUSH1 0x20 ADD PUSH1 0x0 KECCAK256 PUSH1 0x2 ADD PUSH1 0x0 DUP3 DUP3 SLOAD PUSH2 0x1571 SWAP2 SWAP1 PUSH2 0x62F4 JUMP JUMPDEST SWAP3 POP POP DUP2 SWAP1 SSTORE POP DUP1 PUSH1 0x1A PUSH1 0x0 DUP3 DUP3 SLOAD PUSH2 0x158A SWAP2 SWAP1 PUSH2 0x62F4 JUMP JUMPDEST SWAP3 POP POP DUP2 SWAP1 SSTORE POP PUSH2 0x164B PUSH1 0x32 PUSH1 0x0 DUP6 PUSH20 0xFFFFFFFFFFFFFFFFFFFFFFFFFFFFFFFFFFFFFFFF AND PUSH20 0xFFFFFFFFFFFFFFFFFFFFFFFFFFFFFFFFFFFFFFFF AND DUP2 MSTORE PUSH1 0x20 ADD SWAP1 DUP2 MSTORE PUSH1 0x20 ADD PUSH1 0x0 KECCAK256 PUSH1 0x0 PUSH1 0x1 ISZERO ISZERO ISZERO ISZERO DUP2 MSTORE PUSH1 0x20 ADD SWAP1 DUP2 MSTORE PUSH1 0x20 ADD PUSH1 0x0 KECCAK256 PUSH1 0x1 ADD SLOAD DUP7 PUSH1 0x32 PUSH1 0x0 DUP8 PUSH20 0xFFFFFFFFFFFFFFFFFFFFFFFFFFFFFFFFFFFFFFFF AND PUSH20 0xFFFFFFFFFFFFFFFFFFFFFFFFFFFFFFFFFFFFFFFF AND DUP2 MSTORE PUSH1 0x20 ADD SWAP1 DUP2 MSTORE PUSH1 0x20 ADD PUSH1 0x0 KECCAK256 PUSH1 0x0 DUP1 ISZERO ISZERO ISZERO ISZERO DUP2 MSTORE PUSH1 0x20 ADD SWAP1 DUP2 MSTORE PUSH1 0x20 ADD PUSH1 0x0 KECCAK256 PUSH1 0x2 ADD SLOAD PUSH2 0x40C4 JUMP JUMPDEST PUSH1 0x1C PUSH1 0x0 DUP3 DUP3 SLOAD PUSH2 0x165C SWAP2 SWAP1 PUSH2 0x62F4 JUMP JUMPDEST SWAP3 POP POP DUP2 SWAP1 SSTORE POP PUSH2 0x171D PUSH1 0x32 PUSH1 0x0 DUP6 PUSH20 0xFFFFFFFFFFFFFFFFFFFFFFFFFFFFFFFFFFFFFFFF AND PUSH20 0xFFFFFFFFFFFFFFFFFFFFFFFFFFFFFFFFFFFFFFFF AND DUP2 MSTORE PUSH1 0x20 ADD SWAP1 DUP2 MSTORE PUSH1 0x20 ADD PUSH1 0x0 KECCAK256 PUSH1 0x0 PUSH1 0x1 ISZERO ISZERO ISZERO ISZERO DUP2 MSTORE PUSH1 0x20 ADD SWAP1 DUP2 MSTORE PUSH1 0x20 ADD PUSH1 0x0 KECCAK256 PUSH1 0x1 ADD SLOAD DUP7 PUSH1 0x32 PUSH1 0x0 DUP8 PUSH20 0xFFFFFFFFFFFFFFFFFFFFFFFFFFFFFFFFFFFFFFFF AND PUSH20 0xFFFFFFFFFFFFFFFFFFFFFFFFFFFFFFFFFFFFFFFF AND DUP2 MSTORE PUSH1 0x20 ADD SWAP1 DUP2 MSTORE PUSH1 0x20 ADD PUSH1 0x0 KECCAK256 PUSH1 0x0 DUP1 ISZERO ISZERO ISZERO ISZERO DUP2 MSTORE PUSH1 0x20 ADD SWAP1 DUP2 MSTORE PUSH1 0x20 ADD PUSH1 0x0 KECCAK256 PUSH1 0x2 ADD SLOAD PUSH2 0x40C4 JUMP JUMPDEST PUSH1 0x32 PUSH1 0x0 DUP6 PUSH20 0xFFFFFFFFFFFFFFFFFFFFFFFFFFFFFFFFFFFFFFFF AND PUSH20 0xFFFFFFFFFFFFFFFFFFFFFFFFFFFFFFFFFFFFFFFF AND DUP2 MSTORE PUSH1 0x20 ADD SWAP1 DUP2 MSTORE PUSH1 0x20 ADD PUSH1 0x0 KECCAK256 PUSH1 0x0 PUSH1 0x1 ISZERO ISZERO ISZERO ISZERO DUP2 MSTORE PUSH1 0x20 ADD SWAP1 DUP2 MSTORE PUSH1 0x20 ADD PUSH1 0x0 KECCAK256 PUSH1 0x1 ADD PUSH1 0x0 DUP3 DUP3 SLOAD PUSH2 0x1784 SWAP2 SWAP1 PUSH2 0x62F4 JUMP JUMPDEST SWAP3 POP POP DUP2 SWAP1 SSTORE POP DUP1 DUP3 GT DUP1 ISZERO PUSH2 0x17AD JUMPI POP PUSH1 0x0 ISZERO ISZERO PUSH1 0x2D PUSH1 0x0 SWAP1 SLOAD SWAP1 PUSH2 0x100 EXP SWAP1 DIV PUSH1 0xFF AND ISZERO ISZERO EQ JUMPDEST ISZERO PUSH2 0x1836 JUMPI PUSH2 0x17C8 DUP2 DUP4 PUSH2 0x17C1 SWAP2 SWAP1 PUSH2 0x62F4 JUMP JUMPDEST PUSH1 0x0 PUSH2 0x40E6 JUMP JUMPDEST PUSH1 0x33 PUSH1 0x0 DUP6 PUSH20 0xFFFFFFFFFFFFFFFFFFFFFFFFFFFFFFFFFFFFFFFF AND PUSH20 0xFFFFFFFFFFFFFFFFFFFFFFFFFFFFFFFFFFFFFFFF AND DUP2 MSTORE PUSH1 0x20 ADD SWAP1 DUP2 MSTORE PUSH1 0x20 ADD PUSH1 0x0 KECCAK256 PUSH1 0x0 PUSH1 0x2 DUP2 LT PUSH2 0x181A JUMPI PUSH2 0x1819 PUSH2 0x646B JUMP JUMPDEST JUMPDEST ADD PUSH1 0x0 DUP3 DUP3 SLOAD PUSH2 0x182A SWAP2 SWAP1 PUSH2 0x60A2 JUMP JUMPDEST SWAP3 POP POP DUP2 SWAP1 SSTORE POP PUSH2 0x1B59 JUMP JUMPDEST DUP1 DUP3 PUSH1 0x33 PUSH1 0x0 DUP7 PUSH20 0xFFFFFFFFFFFFFFFFFFFFFFFFFFFFFFFFFFFFFFFF AND PUSH20 0xFFFFFFFFFFFFFFFFFFFFFFFFFFFFFFFFFFFFFFFF AND DUP2 MSTORE PUSH1 0x20 ADD SWAP1 DUP2 MSTORE PUSH1 0x20 ADD PUSH1 0x0 KECCAK256 PUSH1 0x1 PUSH1 0x2 DUP2 LT PUSH2 0x188A JUMPI PUSH2 0x1889 PUSH2 0x646B JUMP JUMPDEST JUMPDEST ADD SLOAD PUSH2 0x1896 SWAP2 SWAP1 PUSH2 0x60A2 JUMP JUMPDEST GT DUP1 ISZERO PUSH2 0x18B6 JUMPI POP PUSH1 0x1 ISZERO ISZERO PUSH1 0x2D PUSH1 0x0 SWAP1 SLOAD SWAP1 PUSH2 0x100 EXP SWAP1 DIV PUSH1 0xFF AND ISZERO ISZERO EQ JUMPDEST ISZERO PUSH2 0x1981 JUMPI DUP1 DUP3 PUSH1 0x33 PUSH1 0x0 DUP7 PUSH20 0xFFFFFFFFFFFFFFFFFFFFFFFFFFFFFFFFFFFFFFFF AND PUSH20 0xFFFFFFFFFFFFFFFFFFFFFFFFFFFFFFFFFFFFFFFF AND DUP2 MSTORE PUSH1 0x20 ADD SWAP1 DUP2 MSTORE PUSH1 0x20 ADD PUSH1 0x0 KECCAK256 PUSH1 0x1 PUSH1 0x2 DUP2 LT PUSH2 0x190F JUMPI PUSH2 0x190E PUSH2 0x646B JUMP JUMPDEST JUMPDEST ADD SLOAD PUSH2 0x191B SWAP2 SWAP1 PUSH2 0x60A2 JUMP JUMPDEST PUSH2 0x1925 SWAP2 SWAP1 PUSH2 0x62F4 JUMP JUMPDEST PUSH1 0x33 PUSH1 0x0 DUP6 PUSH20 0xFFFFFFFFFFFFFFFFFFFFFFFFFFFFFFFFFFFFFFFF AND PUSH20 0xFFFFFFFFFFFFFFFFFFFFFFFFFFFFFFFFFFFFFFFF AND DUP2 MSTORE PUSH1 0x20 ADD SWAP1 DUP2 MSTORE PUSH1 0x20 ADD PUSH1 0x0 KECCAK256 PUSH1 0x1 PUSH1 0x2 DUP2 LT PUSH2 0x1977 JUMPI PUSH2 0x1976 PUSH2 0x646B JUMP JUMPDEST JUMPDEST ADD DUP2 SWAP1 SSTORE POP PUSH2 0x1B58 JUMP JUMPDEST PUSH2 0x1A49 PUSH1 0x33 PUSH1 0x0 DUP6 PUSH20 0xFFFFFFFFFFFFFFFFFFFFFFFFFFFFFFFFFFFFFFFF AND PUSH20 0xFFFFFFFFFFFFFFFFFFFFFFFFFFFFFFFFFFFFFFFF AND DUP2 MSTORE PUSH1 0x20 ADD SWAP1 DUP2 MSTORE PUSH1 0x20 ADD PUSH1 0x0 KECCAK256 PUSH1 0x1 PUSH1 0x2 DUP2 LT PUSH2 0x19D6 JUMPI PUSH2 0x19D5 PUSH2 0x646B JUMP JUMPDEST JUMPDEST ADD SLOAD DUP4 DUP4 PUSH2 0x19E4 SWAP2 SWAP1 PUSH2 0x62F4 JUMP JUMPDEST PUSH2 0x19EE SWAP2 SWAP1 PUSH2 0x62F4 JUMP JUMPDEST PUSH1 0x33 PUSH1 0x0 DUP7 PUSH20 0xFFFFFFFFFFFFFFFFFFFFFFFFFFFFFFFFFFFFFFFF AND PUSH20 0xFFFFFFFFFFFFFFFFFFFFFFFFFFFFFFFFFFFFFFFF AND DUP2 MSTORE PUSH1 0x20 ADD SWAP1 DUP2 MSTORE PUSH1 0x20 ADD PUSH1 0x0 KECCAK256 PUSH1 0x0 PUSH1 0x2 DUP2 LT PUSH2 0x1A40 JUMPI PUSH2 0x1A3F PUSH2 0x646B JUMP JUMPDEST JUMPDEST ADD SLOAD PUSH1 0x0 PUSH2 0x4414 JUMP JUMPDEST PUSH1 0x33 PUSH1 0x0 DUP6 PUSH20 0xFFFFFFFFFFFFFFFFFFFFFFFFFFFFFFFFFFFFFFFF AND PUSH20 0xFFFFFFFFFFFFFFFFFFFFFFFFFFFFFFFFFFFFFFFF AND DUP2 MSTORE PUSH1 0x20 ADD SWAP1 DUP2 MSTORE PUSH1 0x20 ADD PUSH1 0x0 KECCAK256 PUSH1 0x0 PUSH1 0x2 DUP2 LT PUSH2 0x1A9B JUMPI PUSH2 0x1A9A PUSH2 0x646B JUMP JUMPDEST JUMPDEST ADD SLOAD PUSH2 0x1AA7 SWAP2 SWAP1 PUSH2 0x62F4 JUMP JUMPDEST PUSH1 0x33 PUSH1 0x0 DUP6 PUSH20 0xFFFFFFFFFFFFFFFFFFFFFFFFFFFFFFFFFFFFFFFF AND PUSH20 0xFFFFFFFFFFFFFFFFFFFFFFFFFFFFFFFFFFFFFFFF AND DUP2 MSTORE PUSH1 0x20 ADD SWAP1 DUP2 MSTORE PUSH1 0x20 ADD PUSH1 0x0 KECCAK256 PUSH1 0x0 PUSH1 0x2 DUP2 LT PUSH2 0x1AF9 JUMPI PUSH2 0x1AF8 PUSH2 0x646B JUMP JUMPDEST JUMPDEST ADD DUP2 SWAP1 SSTORE POP PUSH1 0x0 PUSH1 0x33 PUSH1 0x0 DUP6 PUSH20 0xFFFFFFFFFFFFFFFFFFFFFFFFFFFFFFFFFFFFFFFF AND PUSH20 0xFFFFFFFFFFFFFFFFFFFFFFFFFFFFFFFFFFFFFFFF AND DUP2 MSTORE PUSH1 0x20 ADD SWAP1 DUP2 MSTORE PUSH1 0x20 ADD PUSH1 0x0 KECCAK256 PUSH1 0x1 PUSH1 0x2 DUP2 LT PUSH2 0x1B52 JUMPI PUSH2 0x1B51 PUSH2 0x646B JUMP JUMPDEST JUMPDEST ADD DUP2 SWAP1 SSTORE POP JUMPDEST JUMPDEST POP POP PUSH2 0x21BA JUMP JUMPDEST PUSH1 0x0 PUSH2 0x1B6D DUP4 PUSH1 0x1 PUSH2 0x40E6 JUMP JUMPDEST SWAP1 POP PUSH1 0x0 PUSH2 0x1C31 DUP5 PUSH1 0x32 PUSH1 0x0 DUP7 PUSH20 0xFFFFFFFFFFFFFFFFFFFFFFFFFFFFFFFFFFFFFFFF AND PUSH20 0xFFFFFFFFFFFFFFFFFFFFFFFFFFFFFFFFFFFFFFFF AND DUP2 MSTORE PUSH1 0x20 ADD SWAP1 DUP2 MSTORE PUSH1 0x20 ADD PUSH1 0x0 KECCAK256 PUSH1 0x0 DUP1 ISZERO ISZERO ISZERO ISZERO DUP2 MSTORE PUSH1 0x20 ADD SWAP1 DUP2 MSTORE PUSH1 0x20 ADD PUSH1 0x0 KECCAK256 PUSH1 0x1 ADD SLOAD PUSH1 0x19 SLOAD PUSH1 0x1B SLOAD PUSH1 0x32 PUSH1 0x0 DUP10 PUSH20 0xFFFFFFFFFFFFFFFFFFFFFFFFFFFFFFFFFFFFFFFF AND PUSH20 0xFFFFFFFFFFFFFFFFFFFFFFFFFFFFFFFFFFFFFFFF AND DUP2 MSTORE PUSH1 0x20 ADD SWAP1 DUP2 MSTORE PUSH1 0x20 ADD PUSH1 0x0 KECCAK256 PUSH1 0x0 PUSH1 0x1 ISZERO ISZERO ISZERO ISZERO DUP2 MSTORE PUSH1 0x20 ADD SWAP1 DUP2 MSTORE PUSH1 0x20 ADD PUSH1 0x0 KECCAK256 PUSH1 0x2 ADD SLOAD PUSH2 0x408A JUMP JUMPDEST SWAP1 POP DUP4 PUSH1 0x32 PUSH1 0x0 DUP6 PUSH20 0xFFFFFFFFFFFFFFFFFFFFFFFFFFFFFFFFFFFFFFFF AND PUSH20 0xFFFFFFFFFFFFFFFFFFFFFFFFFFFFFFFFFFFFFFFF AND DUP2 MSTORE PUSH1 0x20 ADD SWAP1 DUP2 MSTORE PUSH1 0x20 ADD PUSH1 0x0 KECCAK256 PUSH1 0x0 PUSH1 0x1 ISZERO ISZERO ISZERO ISZERO DUP2 MSTORE PUSH1 0x20 ADD SWAP1 DUP2 MSTORE PUSH1 0x20 ADD PUSH1 0x0 KECCAK256 PUSH1 0x2 ADD PUSH1 0x0 DUP3 DUP3 SLOAD PUSH2 0x1C9B SWAP2 SWAP1 PUSH2 0x62F4 JUMP JUMPDEST SWAP3 POP POP DUP2 SWAP1 SSTORE POP DUP1 PUSH1 0x19 PUSH1 0x0 DUP3 DUP3 SLOAD PUSH2 0x1CB4 SWAP2 SWAP1 PUSH2 0x62F4 JUMP JUMPDEST SWAP3 POP POP DUP2 SWAP1 SSTORE POP PUSH2 0x1D75 PUSH1 0x32 PUSH1 0x0 DUP6 PUSH20 0xFFFFFFFFFFFFFFFFFFFFFFFFFFFFFFFFFFFFFFFF AND PUSH20 0xFFFFFFFFFFFFFFFFFFFFFFFFFFFFFFFFFFFFFFFF AND DUP2 MSTORE PUSH1 0x20 ADD SWAP1 DUP2 MSTORE PUSH1 0x20 ADD PUSH1 0x0 KECCAK256 PUSH1 0x0 DUP1 ISZERO ISZERO ISZERO ISZERO DUP2 MSTORE PUSH1 0x20 ADD SWAP1 DUP2 MSTORE PUSH1 0x20 ADD PUSH1 0x0 KECCAK256 PUSH1 0x1 ADD SLOAD DUP6 PUSH1 0x32 PUSH1 0x0 DUP8 PUSH20 0xFFFFFFFFFFFFFFFFFFFFFFFFFFFFFFFFFFFFFFFF AND PUSH20 0xFFFFFFFFFFFFFFFFFFFFFFFFFFFFFFFFFFFFFFFF AND DUP2 MSTORE PUSH1 0x20 ADD SWAP1 DUP2 MSTORE PUSH1 0x20 ADD PUSH1 0x0 KECCAK256 PUSH1 0x0 PUSH1 0x1 ISZERO ISZERO ISZERO ISZERO DUP2 MSTORE PUSH1 0x20 ADD SWAP1 DUP2 MSTORE PUSH1 0x20 ADD PUSH1 0x0 KECCAK256 PUSH1 0x2 ADD SLOAD PUSH2 0x40C4 JUMP JUMPDEST PUSH1 0x1B PUSH1 0x0 DUP3 DUP3 SLOAD PUSH2 0x1D86 SWAP2 SWAP1 PUSH2 0x62F4 JUMP JUMPDEST SWAP3 POP POP DUP2 SWAP1 SSTORE POP PUSH2 0x1E47 PUSH1 0x32 PUSH1 0x0 DUP6 PUSH20 0xFFFFFFFFFFFFFFFFFFFFFFFFFFFFFFFFFFFFFFFF AND PUSH20 0xFFFFFFFFFFFFFFFFFFFFFFFFFFFFFFFFFFFFFFFF AND DUP2 MSTORE PUSH1 0x20 ADD SWAP1 DUP2 MSTORE PUSH1 0x20 ADD PUSH1 0x0 KECCAK256 PUSH1 0x0 DUP1 ISZERO ISZERO ISZERO ISZERO DUP2 MSTORE PUSH1 0x20 ADD SWAP1 DUP2 MSTORE PUSH1 0x20 ADD PUSH1 0x0 KECCAK256 PUSH1 0x1 ADD SLOAD DUP6 PUSH1 0x32 PUSH1 0x0 DUP8 PUSH20 0xFFFFFFFFFFFFFFFFFFFFFFFFFFFFFFFFFFFFFFFF AND PUSH20 0xFFFFFFFFFFFFFFFFFFFFFFFFFFFFFFFFFFFFFFFF AND DUP2 MSTORE PUSH1 0x20 ADD SWAP1 DUP2 MSTORE PUSH1 0x20 ADD PUSH1 0x0 KECCAK256 PUSH1 0x0 PUSH1 0x1 ISZERO ISZERO ISZERO ISZERO DUP2 MSTORE PUSH1 0x20 ADD SWAP1 DUP2 MSTORE PUSH1 0x20 ADD PUSH1 0x0 KECCAK256 PUSH1 0x2 ADD SLOAD PUSH2 0x40C4 JUMP JUMPDEST PUSH1 0x32 PUSH1 0x0 DUP6 PUSH20 0xFFFFFFFFFFFFFFFFFFFFFFFFFFFFFFFFFFFFFFFF AND PUSH20 0xFFFFFFFFFFFFFFFFFFFFFFFFFFFFFFFFFFFFFFFF AND DUP2 MSTORE PUSH1 0x20 ADD SWAP1 DUP2 MSTORE PUSH1 0x20 ADD PUSH1 0x0 KECCAK256 PUSH1 0x0 DUP1 ISZERO ISZERO ISZERO ISZERO DUP2 MSTORE PUSH1 0x20 ADD SWAP1 DUP2 MSTORE PUSH1 0x20 ADD PUSH1 0x0 KECCAK256 PUSH1 0x1 ADD PUSH1 0x0 DUP3 DUP3 SLOAD PUSH2 0x1EAD SWAP2 SWAP1 PUSH2 0x62F4 JUMP JUMPDEST SWAP3 POP POP DUP2 SWAP1 SSTORE POP DUP1 DUP3 PUSH1 0x33 PUSH1 0x0 DUP7 PUSH20 0xFFFFFFFFFFFFFFFFFFFFFFFFFFFFFFFFFFFFFFFF AND PUSH20 0xFFFFFFFFFFFFFFFFFFFFFFFFFFFFFFFFFFFFFFFF AND DUP2 MSTORE PUSH1 0x20 ADD SWAP1 DUP2 MSTORE PUSH1 0x20 ADD PUSH1 0x0 KECCAK256 PUSH1 0x0 PUSH1 0x2 DUP2 LT PUSH2 0x1F08 JUMPI PUSH2 0x1F07 PUSH2 0x646B JUMP JUMPDEST JUMPDEST ADD SLOAD PUSH2 0x1F14 SWAP2 SWAP1 PUSH2 0x60A2 JUMP JUMPDEST GT ISZERO PUSH2 0x1FE0 JUMPI DUP1 DUP3 PUSH1 0x33 PUSH1 0x0 DUP7 PUSH20 0xFFFFFFFFFFFFFFFFFFFFFFFFFFFFFFFFFFFFFFFF AND PUSH20 0xFFFFFFFFFFFFFFFFFFFFFFFFFFFFFFFFFFFFFFFF AND DUP2 MSTORE PUSH1 0x20 ADD SWAP1 DUP2 MSTORE PUSH1 0x20 ADD PUSH1 0x0 KECCAK256 PUSH1 0x0 PUSH1 0x2 DUP2 LT PUSH2 0x1F6E JUMPI PUSH2 0x1F6D PUSH2 0x646B JUMP JUMPDEST JUMPDEST ADD SLOAD PUSH2 0x1F7A SWAP2 SWAP1 PUSH2 0x60A2 JUMP JUMPDEST PUSH2 0x1F84 SWAP2 SWAP1 PUSH2 0x62F4 JUMP JUMPDEST PUSH1 0x33 PUSH1 0x0 DUP6 PUSH20 0xFFFFFFFFFFFFFFFFFFFFFFFFFFFFFFFFFFFFFFFF AND PUSH20 0xFFFFFFFFFFFFFFFFFFFFFFFFFFFFFFFFFFFFFFFF AND DUP2 MSTORE PUSH1 0x20 ADD SWAP1 DUP2 MSTORE PUSH1 0x20 ADD PUSH1 0x0 KECCAK256 PUSH1 0x0 PUSH1 0x2 DUP2 LT PUSH2 0x1FD6 JUMPI PUSH2 0x1FD5 PUSH2 0x646B JUMP JUMPDEST JUMPDEST ADD DUP2 SWAP1 SSTORE POP PUSH2 0x21B7 JUMP JUMPDEST PUSH2 0x20A8 PUSH1 0x33 PUSH1 0x0 DUP6 PUSH20 0xFFFFFFFFFFFFFFFFFFFFFFFFFFFFFFFFFFFFFFFF AND PUSH20 0xFFFFFFFFFFFFFFFFFFFFFFFFFFFFFFFFFFFFFFFF AND DUP2 MSTORE PUSH1 0x20 ADD SWAP1 DUP2 MSTORE PUSH1 0x20 ADD PUSH1 0x0 KECCAK256 PUSH1 0x0 PUSH1 0x2 DUP2 LT PUSH2 0x2035 JUMPI PUSH2 0x2034 PUSH2 0x646B JUMP JUMPDEST JUMPDEST ADD SLOAD DUP4 DUP4 PUSH2 0x2043 SWAP2 SWAP1 PUSH2 0x62F4 JUMP JUMPDEST PUSH2 0x204D SWAP2 SWAP1 PUSH2 0x62F4 JUMP JUMPDEST PUSH1 0x33 PUSH1 0x0 DUP7 PUSH20 0xFFFFFFFFFFFFFFFFFFFFFFFFFFFFFFFFFFFFFFFF AND PUSH20 0xFFFFFFFFFFFFFFFFFFFFFFFFFFFFFFFFFFFFFFFF AND DUP2 MSTORE PUSH1 0x20 ADD SWAP1 DUP2 MSTORE PUSH1 0x20 ADD PUSH1 0x0 KECCAK256 PUSH1 0x1 PUSH1 0x2 DUP2 LT PUSH2 0x209F JUMPI PUSH2 0x209E PUSH2 0x646B JUMP JUMPDEST JUMPDEST ADD SLOAD PUSH1 0x0 PUSH2 0x474D JUMP JUMPDEST PUSH1 0x33 PUSH1 0x0 DUP6 PUSH20 0xFFFFFFFFFFFFFFFFFFFFFFFFFFFFFFFFFFFFFFFF AND PUSH20 0xFFFFFFFFFFFFFFFFFFFFFFFFFFFFFFFFFFFFFFFF AND DUP2 MSTORE PUSH1 0x20 ADD SWAP1 DUP2 MSTORE PUSH1 0x20 ADD PUSH1 0x0 KECCAK256 PUSH1 0x1 PUSH1 0x2 DUP2 LT PUSH2 0x20FA JUMPI PUSH2 0x20F9 PUSH2 0x646B JUMP JUMPDEST JUMPDEST ADD SLOAD PUSH2 0x2106 SWAP2 SWAP1 PUSH2 0x62F4 JUMP JUMPDEST PUSH1 0x33 PUSH1 0x0 DUP6 PUSH20 0xFFFFFFFFFFFFFFFFFFFFFFFFFFFFFFFFFFFFFFFF AND PUSH20 0xFFFFFFFFFFFFFFFFFFFFFFFFFFFFFFFFFFFFFFFF AND DUP2 MSTORE PUSH1 0x20 ADD SWAP1 DUP2 MSTORE PUSH1 0x20 ADD PUSH1 0x0 KECCAK256 PUSH1 0x1 PUSH1 0x2 DUP2 LT PUSH2 0x2158 JUMPI PUSH2 0x2157 PUSH2 0x646B JUMP JUMPDEST JUMPDEST ADD DUP2 SWAP1 SSTORE POP PUSH1 0x0 PUSH1 0x33 PUSH1 0x0 DUP6 PUSH20 0xFFFFFFFFFFFFFFFFFFFFFFFFFFFFFFFFFFFFFFFF AND PUSH20 0xFFFFFFFFFFFFFFFFFFFFFFFFFFFFFFFFFFFFFFFF AND DUP2 MSTORE PUSH1 0x20 ADD SWAP1 DUP2 MSTORE PUSH1 0x20 ADD PUSH1 0x0 KECCAK256 PUSH1 0x0 PUSH1 0x2 DUP2 LT PUSH2 0x21B1 JUMPI PUSH2 0x21B0 PUSH2 0x646B JUMP JUMPDEST JUMPDEST ADD DUP2 SWAP1 SSTORE POP JUMPDEST POP POP JUMPDEST PUSH1 0x1 PUSH1 0x2F DUP2 SWAP1 SSTORE POP POP POP POP JUMP JUMPDEST PUSH1 0x14 SLOAD DUP2 JUMP JUMPDEST PUSH1 0x1F SLOAD DUP2 JUMP JUMPDEST PUSH1 0x0 PUSH1 0x1 PUSH1 0x2F SLOAD EQ PUSH2 0x221A JUMPI PUSH1 0x40 MLOAD PUSH32 0x8C379A000000000000000000000000000000000000000000000000000000000 DUP2 MSTORE PUSH1 0x4 ADD PUSH2 0x2211 SWAP1 PUSH2 0x5FE6 JUMP JUMPDEST PUSH1 0x40 MLOAD DUP1 SWAP2 SUB SWAP1 REVERT JUMPDEST PUSH1 0x0 PUSH1 0x2F DUP2 SWAP1 SSTORE POP PUSH2 0x223E PUSH1 0xB SLOAD DUP6 PUSH1 0x14 SLOAD PUSH2 0x2236 SWAP2 SWAP1 PUSH2 0x60A2 JUMP JUMPDEST PUSH1 0x14 SLOAD PUSH2 0x40C4 JUMP JUMPDEST PUSH1 0xB DUP2 SWAP1 SSTORE POP PUSH2 0x2260 PUSH1 0xC SLOAD DUP5 PUSH1 0x13 SLOAD PUSH2 0x2258 SWAP2 SWAP1 PUSH2 0x60A2 JUMP JUMPDEST PUSH1 0x13 SLOAD PUSH2 0x40C4 JUMP JUMPDEST PUSH1 0xC DUP2 SWAP1 SSTORE POP PUSH2 0x2275 PUSH1 0x29 SLOAD DUP6 PUSH1 0x14 SLOAD PUSH2 0x40C4 JUMP JUMPDEST SWAP1 POP DUP1 PUSH1 0x29 SLOAD PUSH2 0x2285 SWAP2 SWAP1 PUSH2 0x60A2 JUMP JUMPDEST PUSH1 0x29 DUP2 SWAP1 SSTORE POP DUP4 PUSH1 0x14 SLOAD PUSH2 0x2299 SWAP2 SWAP1 PUSH2 0x60A2 JUMP JUMPDEST PUSH1 0x14 DUP2 SWAP1 SSTORE POP DUP3 PUSH1 0x13 SLOAD PUSH2 0x22AD SWAP2 SWAP1 PUSH2 0x60A2 JUMP JUMPDEST PUSH1 0x13 DUP2 SWAP1 SSTORE POP PUSH2 0x22BD DUP3 DUP3 PUSH2 0x4A86 JUMP JUMPDEST PUSH2 0x22C5 PUSH2 0x4BA0 JUMP JUMPDEST PUSH1 0x1 PUSH1 0x2F DUP2 SWAP1 SSTORE POP SWAP4 SWAP3 POP POP POP JUMP JUMPDEST PUSH1 0x16 SLOAD DUP2 JUMP JUMPDEST PUSH1 0x0 DUP1 PUSH1 0x1 PUSH1 0x2F SLOAD EQ PUSH2 0x2322 JUMPI PUSH1 0x40 MLOAD PUSH32 0x8C379A000000000000000000000000000000000000000000000000000000000 DUP2 MSTORE PUSH1 0x4 ADD PUSH2 0x2319 SWAP1 PUSH2 0x5FE6 JUMP JUMPDEST PUSH1 0x40 MLOAD DUP1 SWAP2 SUB SWAP1 REVERT JUMPDEST PUSH1 0x0 PUSH1 0x2F DUP2 SWAP1 SSTORE POP PUSH2 0x2339 DUP5 PUSH1 0x14 SLOAD PUSH1 0x29 SLOAD PUSH2 0x40C4 JUMP JUMPDEST SWAP2 POP PUSH2 0x234A DUP5 PUSH1 0x13 SLOAD PUSH1 0x29 SLOAD PUSH2 0x40C4 JUMP JUMPDEST SWAP1 POP PUSH2 0x2368 PUSH1 0xB SLOAD DUP4 PUSH1 0x14 SLOAD PUSH2 0x2360 SWAP2 SWAP1 PUSH2 0x62F4 JUMP JUMPDEST PUSH1 0x14 SLOAD PUSH2 0x40C4 JUMP JUMPDEST PUSH1 0xB DUP2 SWAP1 SSTORE POP PUSH2 0x238A PUSH1 0xC SLOAD DUP3 PUSH1 0x13 SLOAD PUSH2 0x2382 SWAP2 SWAP1 PUSH2 0x62F4 JUMP JUMPDEST PUSH1 0x13 SLOAD PUSH2 0x40C4 JUMP JUMPDEST PUSH1 0xC DUP2 SWAP1 SSTORE POP DUP2 PUSH1 0x14 SLOAD PUSH2 0x239E SWAP2 SWAP1 PUSH2 0x62F4 JUMP JUMPDEST PUSH1 0x14 DUP2 SWAP1 SSTORE POP DUP1 PUSH1 0x13 SLOAD PUSH2 0x23B2 SWAP2 SWAP1 PUSH2 0x62F4 JUMP JUMPDEST PUSH1 0x13 DUP2 SWAP1 SSTORE POP DUP4 PUSH1 0x29 SLOAD PUSH2 0x23C6 SWAP2 SWAP1 PUSH2 0x62F4 JUMP JUMPDEST PUSH1 0x29 DUP2 SWAP1 SSTORE POP PUSH2 0x23D6 ADDRESS DUP6 PUSH2 0x4C12 JUMP JUMPDEST PUSH2 0x2403 PUSH1 0x26 PUSH1 0x0 SWAP1 SLOAD SWAP1 PUSH2 0x100 EXP SWAP1 DIV PUSH20 0xFFFFFFFFFFFFFFFFFFFFFFFFFFFFFFFFFFFFFFFF AND DUP5 DUP5 PUSH2 0x4D2C JUMP JUMPDEST PUSH2 0x2430 PUSH1 0x27 PUSH1 0x0 SWAP1 SLOAD SWAP1 PUSH2 0x100 EXP SWAP1 DIV PUSH20 0xFFFFFFFFFFFFFFFFFFFFFFFFFFFFFFFFFFFFFFFF AND DUP5 DUP4 PUSH2 0x4D2C JUMP JUMPDEST PUSH2 0x2438 PUSH2 0x4BA0 JUMP JUMPDEST PUSH1 0x1 PUSH1 0x2F DUP2 SWAP1 SSTORE POP SWAP3 POP SWAP3 SWAP1 POP JUMP JUMPDEST PUSH1 0x1B SLOAD DUP2 JUMP JUMPDEST PUSH1 0x1 PUSH1 0x20 MSTORE DUP1 PUSH1 0x0 MSTORE PUSH1 0x40 PUSH1 0x0 KECCAK256 PUSH1 0x0 SWAP2 POP SWAP1 POP SLOAD DUP2 JUMP JUMPDEST PUSH1 0x12 SLOAD DUP2 JUMP JUMPDEST PUSH1 0x2C SLOAD DUP2 JUMP JUMPDEST PUSH1 0x32 PUSH1 0x20 MSTORE DUP2 PUSH1 0x0 MSTORE PUSH1 0x40 PUSH1 0x0 KECCAK256 PUSH1 0x20 MSTORE DUP1 PUSH1 0x0 MSTORE PUSH1 0x40 PUSH1 0x0 KECCAK256 PUSH1 0x0 SWAP2 POP SWAP2 POP POP DUP1 PUSH1 0x0 ADD PUSH1 0x0 SWAP1 SLOAD SWAP1 PUSH2 0x100 EXP SWAP1 DIV PUSH20 0xFFFFFFFFFFFFFFFFFFFFFFFFFFFFFFFFFFFFFFFF AND SWAP1 DUP1 PUSH1 0x0 ADD PUSH1 0x14 SWAP1 SLOAD SWAP1 PUSH2 0x100 EXP SWAP1 DIV PUSH1 0xFF AND SWAP1 DUP1 PUSH1 0x1 ADD SLOAD SWAP1 DUP1 PUSH1 0x2 ADD SLOAD SWAP1 POP DUP5 JUMP JUMPDEST PUSH1 0x4 PUSH1 0x20 MSTORE DUP1 PUSH1 0x0 MSTORE PUSH1 0x40 PUSH1 0x0 KECCAK256 PUSH1 0x0 SWAP2 POP SWAP1 POP SLOAD DUP2 JUMP JUMPDEST PUSH1 0x22 SLOAD DUP2 JUMP JUMPDEST PUSH1 0xA SLOAD DUP2 JUMP JUMPDEST PUSH1 0x6 SLOAD DUP2 JUMP JUMPDEST PUSH1 0xB SLOAD DUP2 JUMP JUMPDEST PUSH1 0x2A SLOAD DUP2 JUMP JUMPDEST PUSH1 0x0 PUSH1 0x27 PUSH1 0x0 SWAP1 SLOAD SWAP1 PUSH2 0x100 EXP SWAP1 DIV PUSH20 0xFFFFFFFFFFFFFFFFFFFFFFFFFFFFFFFFFFFFFFFF AND PUSH20 0xFFFFFFFFFFFFFFFFFFFFFFFFFFFFFFFFFFFFFFFF AND DUP4 PUSH20 0xFFFFFFFFFFFFFFFFFFFFFFFFFFFFFFFFFFFFFFFF AND EQ DUP1 ISZERO PUSH2 0x2583 JUMPI POP PUSH1 0x1 ISZERO ISZERO PUSH1 0x2D PUSH1 0x0 SWAP1 SLOAD SWAP1 PUSH2 0x100 EXP SWAP1 DIV PUSH1 0xFF AND ISZERO ISZERO EQ JUMPDEST ISZERO PUSH2 0x26DD JUMPI PUSH1 0x30 PUSH1 0x1 PUSH1 0x2 DUP2 LT PUSH2 0x259D JUMPI PUSH2 0x259C PUSH2 0x646B JUMP JUMPDEST JUMPDEST ADD SLOAD PUSH1 0x13 SLOAD DUP5 PUSH20 0xFFFFFFFFFFFFFFFFFFFFFFFFFFFFFFFFFFFFFFFF AND PUSH4 0x70A08231 ADDRESS PUSH1 0x40 MLOAD DUP3 PUSH4 0xFFFFFFFF AND PUSH1 0xE0 SHL DUP2 MSTORE PUSH1 0x4 ADD PUSH2 0x25DB SWAP2 SWAP1 PUSH2 0x5D9F JUMP JUMPDEST PUSH1 0x20 PUSH1 0x40 MLOAD DUP1 DUP4 SUB DUP2 DUP7 DUP1 EXTCODESIZE ISZERO DUP1 ISZERO PUSH2 0x25F3 JUMPI PUSH1 0x0 DUP1 REVERT JUMPDEST POP GAS STATICCALL ISZERO DUP1 ISZERO PUSH2 0x2607 JUMPI RETURNDATASIZE PUSH1 0x0 DUP1 RETURNDATACOPY RETURNDATASIZE PUSH1 0x0 REVERT JUMPDEST POP POP POP POP PUSH1 0x40 MLOAD RETURNDATASIZE PUSH1 0x1F NOT PUSH1 0x1F DUP3 ADD AND DUP3 ADD DUP1 PUSH1 0x40 MSTORE POP DUP2 ADD SWAP1 PUSH2 0x262B SWAP2 SWAP1 PUSH2 0x5A46 JUMP JUMPDEST PUSH2 0x2635 SWAP2 SWAP1 PUSH2 0x62F4 JUMP JUMPDEST PUSH2 0x263F SWAP2 SWAP1 PUSH2 0x62F4 JUMP JUMPDEST SWAP1 POP DUP1 PUSH1 0x33 PUSH1 0x0 DUP5 PUSH20 0xFFFFFFFFFFFFFFFFFFFFFFFFFFFFFFFFFFFFFFFF AND PUSH20 0xFFFFFFFFFFFFFFFFFFFFFFFFFFFFFFFFFFFFFFFF AND DUP2 MSTORE PUSH1 0x20 ADD SWAP1 DUP2 MSTORE PUSH1 0x20 ADD PUSH1 0x0 KECCAK256 PUSH1 0x1 PUSH1 0x2 DUP2 LT PUSH2 0x2694 JUMPI PUSH2 0x2693 PUSH2 0x646B JUMP JUMPDEST JUMPDEST ADD PUSH1 0x0 DUP3 DUP3 SLOAD PUSH2 0x26A4 SWAP2 SWAP1 PUSH2 0x60A2 JUMP JUMPDEST SWAP3 POP POP DUP2 SWAP1 SSTORE POP DUP1 PUSH1 0x30 PUSH1 0x1 PUSH1 0x2 DUP2 LT PUSH2 0x26C1 JUMPI PUSH2 0x26C0 PUSH2 0x646B JUMP JUMPDEST JUMPDEST ADD PUSH1 0x0 DUP3 DUP3 SLOAD PUSH2 0x26D1 SWAP2 SWAP1 PUSH2 0x60A2 JUMP JUMPDEST SWAP3 POP POP DUP2 SWAP1 SSTORE POP PUSH2 0x282E JUMP JUMPDEST PUSH1 0x30 PUSH1 0x0 PUSH1 0x2 DUP2 LT PUSH2 0x26F2 JUMPI PUSH2 0x26F1 PUSH2 0x646B JUMP JUMPDEST JUMPDEST ADD SLOAD PUSH1 0x14 SLOAD DUP5 PUSH20 0xFFFFFFFFFFFFFFFFFFFFFFFFFFFFFFFFFFFFFFFF AND PUSH4 0x70A08231 ADDRESS PUSH1 0x40 MLOAD DUP3 PUSH4 0xFFFFFFFF AND PUSH1 0xE0 SHL DUP2 MSTORE PUSH1 0x4 ADD PUSH2 0x2730 SWAP2 SWAP1 PUSH2 0x5D9F JUMP JUMPDEST PUSH1 0x20 PUSH1 0x40 MLOAD DUP1 DUP4 SUB DUP2 DUP7 DUP1 EXTCODESIZE ISZERO DUP1 ISZERO PUSH2 0x2748 JUMPI PUSH1 0x0 DUP1 REVERT JUMPDEST POP GAS STATICCALL ISZERO DUP1 ISZERO PUSH2 0x275C JUMPI RETURNDATASIZE PUSH1 0x0 DUP1 RETURNDATACOPY RETURNDATASIZE PUSH1 0x0 REVERT JUMPDEST POP POP POP POP PUSH1 0x40 MLOAD RETURNDATASIZE PUSH1 0x1F NOT PUSH1 0x1F DUP3 ADD AND DUP3 ADD DUP1 PUSH1 0x40 MSTORE POP DUP2 ADD SWAP1 PUSH2 0x2780 SWAP2 SWAP1 PUSH2 0x5A46 JUMP JUMPDEST PUSH2 0x278A SWAP2 SWAP1 PUSH2 0x62F4 JUMP JUMPDEST PUSH2 0x2794 SWAP2 SWAP1 PUSH2 0x62F4 JUMP JUMPDEST SWAP1 POP DUP1 PUSH1 0x33 PUSH1 0x0 DUP5 PUSH20 0xFFFFFFFFFFFFFFFFFFFFFFFFFFFFFFFFFFFFFFFF AND PUSH20 0xFFFFFFFFFFFFFFFFFFFFFFFFFFFFFFFFFFFFFFFF AND DUP2 MSTORE PUSH1 0x20 ADD SWAP1 DUP2 MSTORE PUSH1 0x20 ADD PUSH1 0x0 KECCAK256 PUSH1 0x0 PUSH1 0x2 DUP2 LT PUSH2 0x27E9 JUMPI PUSH2 0x27E8 PUSH2 0x646B JUMP JUMPDEST JUMPDEST ADD PUSH1 0x0 DUP3 DUP3 SLOAD PUSH2 0x27F9 SWAP2 SWAP1 PUSH2 0x60A2 JUMP JUMPDEST SWAP3 POP POP DUP2 SWAP1 SSTORE POP DUP1 PUSH1 0x30 PUSH1 0x0 PUSH1 0x2 DUP2 LT PUSH2 0x2816 JUMPI PUSH2 0x2815 PUSH2 0x646B JUMP JUMPDEST JUMPDEST ADD PUSH1 0x0 DUP3 DUP3 SLOAD PUSH2 0x2826 SWAP2 SWAP1 PUSH2 0x60A2 JUMP JUMPDEST SWAP3 POP POP DUP2 SWAP1 SSTORE POP JUMPDEST POP POP POP JUMP JUMPDEST PUSH1 0x9 SLOAD DUP2 JUMP JUMPDEST PUSH1 0x1 PUSH1 0x2F SLOAD EQ PUSH2 0x287E JUMPI PUSH1 0x40 MLOAD PUSH32 0x8C379A000000000000000000000000000000000000000000000000000000000 DUP2 MSTORE PUSH1 0x4 ADD PUSH2 0x2875 SWAP1 PUSH2 0x5FE6 JUMP JUMPDEST PUSH1 0x40 MLOAD DUP1 SWAP2 SUB SWAP1 REVERT JUMPDEST PUSH1 0x0 PUSH1 0x2F DUP2 SWAP1 SSTORE POP PUSH1 0x0 DUP4 DUP6 PUSH2 0x2894 SWAP2 SWAP1 PUSH2 0x629A JUMP JUMPDEST EQ DUP1 ISZERO PUSH2 0x28AC JUMPI POP PUSH1 0x0 DUP4 DUP6 PUSH2 0x28AA SWAP2 SWAP1 PUSH2 0x60A2 JUMP JUMPDEST GT JUMPDEST PUSH2 0x28B5 JUMPI PUSH1 0x0 DUP1 REVERT JUMPDEST PUSH2 0x28BD PUSH2 0x3BF0 JUMP JUMPDEST PUSH2 0x290D PUSH2 0x28C9 DUP3 PUSH2 0x3A3C JUMP JUMPDEST PUSH1 0x2C SLOAD DUP7 PUSH2 0x28D7 SWAP2 SWAP1 PUSH2 0x629A JUMP JUMPDEST PUSH2 0x28E1 SWAP2 SWAP1 PUSH2 0x60A2 JUMP JUMPDEST PUSH2 0x28EA DUP4 PUSH2 0x3A3C JUMP JUMPDEST PUSH2 0x28FE DUP7 PUSH1 0x17 SLOAD PUSH1 0xD SLOAD PUSH1 0xE SLOAD PUSH1 0x1 PUSH2 0x408A JUMP JUMPDEST PUSH2 0x2908 SWAP2 SWAP1 PUSH2 0x60A2 JUMP JUMPDEST PUSH2 0x4EB6 JUMP JUMPDEST PUSH1 0x28 SLOAD PUSH2 0x2919 DUP4 PUSH2 0x3948 JUMP JUMPDEST PUSH2 0x2922 DUP5 PUSH2 0x3A3C JUMP JUMPDEST PUSH2 0x292B DUP6 PUSH2 0x3B21 JUMP JUMPDEST PUSH2 0x2935 SWAP2 SWAP1 PUSH2 0x60A2 JUMP JUMPDEST PUSH2 0x293F SWAP2 SWAP1 PUSH2 0x62F4 JUMP JUMPDEST PUSH2 0x2949 SWAP2 SWAP1 PUSH2 0x60F8 JUMP JUMPDEST GT PUSH2 0x2989 JUMPI PUSH1 0x40 MLOAD PUSH32 0x8C379A000000000000000000000000000000000000000000000000000000000 DUP2 MSTORE PUSH1 0x4 ADD PUSH2 0x2980 SWAP1 PUSH2 0x5FC6 JUMP JUMPDEST PUSH1 0x40 MLOAD DUP1 SWAP2 SUB SWAP1 REVERT JUMPDEST PUSH1 0x0 DUP1 PUSH1 0x1 ISZERO ISZERO DUP5 ISZERO ISZERO EQ ISZERO PUSH2 0x2AF5 JUMPI PUSH1 0x0 DUP7 GT ISZERO PUSH2 0x29B7 JUMPI PUSH2 0x29AD DUP7 PUSH1 0x1 PUSH2 0x3D5C JUMP JUMPDEST SWAP2 POP DUP6 SWAP1 POP PUSH2 0x29CA JUMP JUMPDEST DUP5 SWAP2 POP PUSH2 0x29C7 DUP6 PUSH1 0x0 PUSH1 0x1 PUSH2 0x4414 JUMP JUMPDEST SWAP1 POP JUMPDEST PUSH2 0x29D9 DUP2 PUSH1 0x1B SLOAD PUSH1 0x19 SLOAD PUSH2 0x40C4 JUMP JUMPDEST PUSH1 0x32 PUSH1 0x0 DUP6 PUSH20 0xFFFFFFFFFFFFFFFFFFFFFFFFFFFFFFFFFFFFFFFF AND PUSH20 0xFFFFFFFFFFFFFFFFFFFFFFFFFFFFFFFFFFFFFFFF AND DUP2 MSTORE PUSH1 0x20 ADD SWAP1 DUP2 MSTORE PUSH1 0x20 ADD PUSH1 0x0 KECCAK256 PUSH1 0x0 DUP1 ISZERO ISZERO ISZERO ISZERO DUP2 MSTORE PUSH1 0x20 ADD SWAP1 DUP2 MSTORE PUSH1 0x20 ADD PUSH1 0x0 KECCAK256 PUSH1 0x1 ADD PUSH1 0x0 DUP3 DUP3 SLOAD PUSH2 0x2A3F SWAP2 SWAP1 PUSH2 0x60A2 JUMP JUMPDEST SWAP3 POP POP DUP2 SWAP1 SSTORE POP DUP2 PUSH1 0x32 PUSH1 0x0 DUP6 PUSH20 0xFFFFFFFFFFFFFFFFFFFFFFFFFFFFFFFFFFFFFFFF AND PUSH20 0xFFFFFFFFFFFFFFFFFFFFFFFFFFFFFFFFFFFFFFFF AND DUP2 MSTORE PUSH1 0x20 ADD SWAP1 DUP2 MSTORE PUSH1 0x20 ADD PUSH1 0x0 KECCAK256 PUSH1 0x0 PUSH1 0x1 ISZERO ISZERO ISZERO ISZERO DUP2 MSTORE PUSH1 0x20 ADD SWAP1 DUP2 MSTORE PUSH1 0x20 ADD PUSH1 0x0 KECCAK256 PUSH1 0x2 ADD PUSH1 0x0 DUP3 DUP3 SLOAD PUSH2 0x2AAE SWAP2 SWAP1 PUSH2 0x60A2 JUMP JUMPDEST SWAP3 POP POP DUP2 SWAP1 SSTORE POP PUSH1 0x1B SLOAD PUSH2 0x2AC7 DUP3 PUSH1 0x1B SLOAD PUSH1 0x19 SLOAD PUSH2 0x40C4 JUMP JUMPDEST PUSH2 0x2AD1 SWAP2 SWAP1 PUSH2 0x60A2 JUMP JUMPDEST PUSH1 0x1B DUP2 SWAP1 SSTORE POP DUP1 PUSH1 0x19 PUSH1 0x0 DUP3 DUP3 SLOAD PUSH2 0x2AE9 SWAP2 SWAP1 PUSH2 0x60A2 JUMP JUMPDEST SWAP3 POP POP DUP2 SWAP1 SSTORE POP PUSH2 0x2C4D JUMP JUMPDEST PUSH1 0x0 DUP7 GT ISZERO PUSH2 0x2B15 JUMPI DUP6 SWAP2 POP PUSH2 0x2B0E DUP7 PUSH1 0x0 PUSH1 0x1 PUSH2 0x474D JUMP JUMPDEST SWAP1 POP PUSH2 0x2B26 JUMP JUMPDEST PUSH2 0x2B20 DUP6 PUSH1 0x1 PUSH2 0x40E6 JUMP JUMPDEST SWAP2 POP DUP5 SWAP1 POP JUMPDEST PUSH2 0x2B35 DUP2 PUSH1 0x1C SLOAD PUSH1 0x1A SLOAD PUSH2 0x40C4 JUMP JUMPDEST PUSH1 0x32 PUSH1 0x0 DUP6 PUSH20 0xFFFFFFFFFFFFFFFFFFFFFFFFFFFFFFFFFFFFFFFF AND PUSH20 0xFFFFFFFFFFFFFFFFFFFFFFFFFFFFFFFFFFFFFFFF AND DUP2 MSTORE PUSH1 0x20 ADD SWAP1 DUP2 MSTORE PUSH1 0x20 ADD PUSH1 0x0 KECCAK256 PUSH1 0x0 PUSH1 0x1 ISZERO ISZERO ISZERO ISZERO DUP2 MSTORE PUSH1 0x20 ADD SWAP1 DUP2 MSTORE PUSH1 0x20 ADD PUSH1 0x0 KECCAK256 PUSH1 0x1 ADD PUSH1 0x0 DUP3 DUP3 SLOAD PUSH2 0x2B9C SWAP2 SWAP1 PUSH2 0x60A2 JUMP JUMPDEST SWAP3 POP POP DUP2 SWAP1 SSTORE POP DUP2 PUSH1 0x32 PUSH1 0x0 DUP6 PUSH20 0xFFFFFFFFFFFFFFFFFFFFFFFFFFFFFFFFFFFFFFFF AND PUSH20 0xFFFFFFFFFFFFFFFFFFFFFFFFFFFFFFFFFFFFFFFF AND DUP2 MSTORE PUSH1 0x20 ADD SWAP1 DUP2 MSTORE PUSH1 0x20 ADD PUSH1 0x0 KECCAK256 PUSH1 0x0 DUP1 ISZERO ISZERO ISZERO ISZERO DUP2 MSTORE PUSH1 0x20 ADD SWAP1 DUP2 MSTORE PUSH1 0x20 ADD PUSH1 0x0 KECCAK256 PUSH1 0x2 ADD PUSH1 0x0 DUP3 DUP3 SLOAD PUSH2 0x2C0A SWAP2 SWAP1 PUSH2 0x60A2 JUMP JUMPDEST SWAP3 POP POP DUP2 SWAP1 SSTORE POP PUSH1 0x1C SLOAD PUSH2 0x2C23 DUP3 PUSH1 0x1C SLOAD PUSH1 0x1A SLOAD PUSH2 0x40C4 JUMP JUMPDEST PUSH2 0x2C2D SWAP2 SWAP1 PUSH2 0x60A2 JUMP JUMPDEST PUSH1 0x1C DUP2 SWAP1 SSTORE POP DUP1 PUSH1 0x1A PUSH1 0x0 DUP3 DUP3 SLOAD PUSH2 0x2C45 SWAP2 SWAP1 PUSH2 0x60A2 JUMP JUMPDEST SWAP3 POP POP DUP2 SWAP1 SSTORE POP JUMPDEST POP POP PUSH1 0x1 PUSH1 0x2F DUP2 SWAP1 SSTORE POP POP POP POP POP JUMP JUMPDEST PUSH1 0x40 MLOAD DUP1 PUSH1 0x40 ADD PUSH1 0x40 MSTORE DUP1 PUSH1 0x6 DUP2 MSTORE PUSH1 0x20 ADD PUSH32 0x554E492D56320000000000000000000000000000000000000000000000000000 DUP2 MSTORE POP DUP2 JUMP JUMPDEST PUSH1 0x28 SLOAD DUP2 JUMP JUMPDEST PUSH1 0x10 SLOAD DUP2 JUMP JUMPDEST PUSH1 0x0 PUSH2 0x2CAF CALLER DUP5 DUP5 PUSH2 0x37B4 JUMP JUMPDEST PUSH1 0x1 SWAP1 POP SWAP3 SWAP2 POP POP JUMP JUMPDEST PUSH1 0x24 SLOAD DUP2 JUMP JUMPDEST PUSH1 0x27 PUSH1 0x0 SWAP1 SLOAD SWAP1 PUSH2 0x100 EXP SWAP1 DIV PUSH20 0xFFFFFFFFFFFFFFFFFFFFFFFFFFFFFFFFFFFFFFFF AND DUP2 JUMP JUMPDEST PUSH1 0x1 PUSH1 0x2F SLOAD EQ PUSH2 0x2D2A JUMPI PUSH1 0x40 MLOAD PUSH32 0x8C379A000000000000000000000000000000000000000000000000000000000 DUP2 MSTORE PUSH1 0x4 ADD PUSH2 0x2D21 SWAP1 PUSH2 0x5FE6 JUMP JUMPDEST PUSH1 0x40 MLOAD DUP1 SWAP2 SUB SWAP1 REVERT JUMPDEST PUSH1 0x0 PUSH1 0x2F DUP2 SWAP1 SSTORE POP PUSH2 0x2E1D PUSH1 0x26 PUSH1 0x0 SWAP1 SLOAD SWAP1 PUSH2 0x100 EXP SWAP1 DIV PUSH20 0xFFFFFFFFFFFFFFFFFFFFFFFFFFFFFFFFFFFFFFFF AND DUP3 PUSH2 0x2E18 PUSH1 0x14 SLOAD PUSH1 0x26 PUSH1 0x0 SWAP1 SLOAD SWAP1 PUSH2 0x100 EXP SWAP1 DIV PUSH20 0xFFFFFFFFFFFFFFFFFFFFFFFFFFFFFFFFFFFFFFFF AND PUSH20 0xFFFFFFFFFFFFFFFFFFFFFFFFFFFFFFFFFFFFFFFF AND PUSH4 0x70A08231 ADDRESS PUSH1 0x40 MLOAD DUP3 PUSH4 0xFFFFFFFF AND PUSH1 0xE0 SHL DUP2 MSTORE PUSH1 0x4 ADD PUSH2 0x2DBA SWAP2 SWAP1 PUSH2 0x5D9F JUMP JUMPDEST PUSH1 0x20 PUSH1 0x40 MLOAD DUP1 DUP4 SUB DUP2 DUP7 DUP1 EXTCODESIZE ISZERO DUP1 ISZERO PUSH2 0x2DD2 JUMPI PUSH1 0x0 DUP1 REVERT JUMPDEST POP GAS STATICCALL ISZERO DUP1 ISZERO PUSH2 0x2DE6 JUMPI RETURNDATASIZE PUSH1 0x0 DUP1 RETURNDATACOPY RETURNDATASIZE PUSH1 0x0 REVERT JUMPDEST POP POP POP POP PUSH1 0x40 MLOAD RETURNDATASIZE PUSH1 0x1F NOT PUSH1 0x1F DUP3 ADD AND DUP3 ADD DUP1 PUSH1 0x40 MSTORE POP DUP2 ADD SWAP1 PUSH2 0x2E0A SWAP2 SWAP1 PUSH2 0x5A46 JUMP JUMPDEST PUSH2 0x375B SWAP1 SWAP2 SWAP1 PUSH4 0xFFFFFFFF AND JUMP JUMPDEST PUSH2 0x4D2C JUMP JUMPDEST PUSH2 0x2F08 PUSH1 0x27 PUSH1 0x0 SWAP1 SLOAD SWAP1 PUSH2 0x100 EXP SWAP1 DIV PUSH20 0xFFFFFFFFFFFFFFFFFFFFFFFFFFFFFFFFFFFFFFFF AND DUP3 PUSH2 0x2F03 PUSH1 0x13 SLOAD PUSH1 0x27 PUSH1 0x0 SWAP1 SLOAD SWAP1 PUSH2 0x100 EXP SWAP1 DIV PUSH20 0xFFFFFFFFFFFFFFFFFFFFFFFFFFFFFFFFFFFFFFFF AND PUSH20 0xFFFFFFFFFFFFFFFFFFFFFFFFFFFFFFFFFFFFFFFF AND PUSH4 0x70A08231 ADDRESS PUSH1 0x40 MLOAD DUP3 PUSH4 0xFFFFFFFF AND PUSH1 0xE0 SHL DUP2 MSTORE PUSH1 0x4 ADD PUSH2 0x2EA5 SWAP2 SWAP1 PUSH2 0x5D9F JUMP JUMPDEST PUSH1 0x20 PUSH1 0x40 MLOAD DUP1 DUP4 SUB DUP2 DUP7 DUP1 EXTCODESIZE ISZERO DUP1 ISZERO PUSH2 0x2EBD JUMPI PUSH1 0x0 DUP1 REVERT JUMPDEST POP GAS STATICCALL ISZERO DUP1 ISZERO PUSH2 0x2ED1 JUMPI RETURNDATASIZE PUSH1 0x0 DUP1 RETURNDATACOPY RETURNDATASIZE PUSH1 0x0 REVERT JUMPDEST POP POP POP POP PUSH1 0x40 MLOAD RETURNDATASIZE PUSH1 0x1F NOT PUSH1 0x1F DUP3 ADD AND DUP3 ADD DUP1 PUSH1 0x40 MSTORE POP DUP2 ADD SWAP1 PUSH2 0x2EF5 SWAP2 SWAP1 PUSH2 0x5A46 JUMP JUMPDEST PUSH2 0x375B SWAP1 SWAP2 SWAP1 PUSH4 0xFFFFFFFF AND JUMP JUMPDEST PUSH2 0x4D2C JUMP JUMPDEST PUSH1 0x1 PUSH1 0x2F DUP2 SWAP1 SSTORE POP POP JUMP JUMPDEST PUSH1 0x1 PUSH1 0x2F SLOAD EQ PUSH2 0x2F58 JUMPI PUSH1 0x40 MLOAD PUSH32 0x8C379A000000000000000000000000000000000000000000000000000000000 DUP2 MSTORE PUSH1 0x4 ADD PUSH2 0x2F4F SWAP1 PUSH2 0x5FE6 JUMP JUMPDEST PUSH1 0x40 MLOAD DUP1 SWAP2 SUB SWAP1 REVERT JUMPDEST PUSH1 0x0 PUSH1 0x2F DUP2 SWAP1 SSTORE POP PUSH2 0x2F69 DUP3 PUSH2 0x3948 JUMP JUMPDEST PUSH2 0x2F72 DUP4 PUSH2 0x3A3C JUMP JUMPDEST PUSH2 0x2F7B DUP5 PUSH2 0x3B21 JUMP JUMPDEST PUSH2 0x2F85 SWAP2 SWAP1 PUSH2 0x60A2 JUMP JUMPDEST GT ISZERO DUP1 PUSH2 0x2FD5 JUMPI POP PUSH1 0x2A SLOAD PUSH2 0x2F99 DUP4 PUSH2 0x3A3C JUMP JUMPDEST PUSH2 0x2FA3 SWAP2 SWAP1 PUSH2 0x629A JUMP JUMPDEST PUSH2 0x2FAC DUP4 PUSH2 0x3948 JUMP JUMPDEST PUSH2 0x2FB5 DUP5 PUSH2 0x3A3C JUMP JUMPDEST PUSH2 0x2FBE DUP6 PUSH2 0x3B21 JUMP JUMPDEST PUSH2 0x2FC8 SWAP2 SWAP1 PUSH2 0x60A2 JUMP JUMPDEST PUSH2 0x2FD2 SWAP2 SWAP1 PUSH2 0x62F4 JUMP JUMPDEST GT ISZERO JUMPDEST PUSH2 0x2FDE JUMPI PUSH1 0x0 DUP1 REVERT JUMPDEST PUSH2 0x306B PUSH1 0x26 PUSH1 0x0 SWAP1 SLOAD SWAP1 PUSH2 0x100 EXP SWAP1 DIV PUSH20 0xFFFFFFFFFFFFFFFFFFFFFFFFFFFFFFFFFFFFFFFF AND DUP3 PUSH1 0x2B SLOAD PUSH1 0x33 PUSH1 0x0 DUP8 PUSH20 0xFFFFFFFFFFFFFFFFFFFFFFFFFFFFFFFFFFFFFFFF AND PUSH20 0xFFFFFFFFFFFFFFFFFFFFFFFFFFFFFFFFFFFFFFFF AND DUP2 MSTORE PUSH1 0x20 ADD SWAP1 DUP2 MSTORE PUSH1 0x20 ADD PUSH1 0x0 KECCAK256 PUSH1 0x0 PUSH1 0x2 DUP2 LT PUSH2 0x305A JUMPI PUSH2 0x3059 PUSH2 0x646B JUMP JUMPDEST JUMPDEST ADD SLOAD PUSH2 0x3066 SWAP2 SWAP1 PUSH2 0x629A JUMP JUMPDEST PUSH2 0x4D2C JUMP JUMPDEST PUSH2 0x30F8 PUSH1 0x27 PUSH1 0x0 SWAP1 SLOAD SWAP1 PUSH2 0x100 EXP SWAP1 DIV PUSH20 0xFFFFFFFFFFFFFFFFFFFFFFFFFFFFFFFFFFFFFFFF AND DUP3 PUSH1 0x2B SLOAD PUSH1 0x33 PUSH1 0x0 DUP8 PUSH20 0xFFFFFFFFFFFFFFFFFFFFFFFFFFFFFFFFFFFFFFFF AND PUSH20 0xFFFFFFFFFFFFFFFFFFFFFFFFFFFFFFFFFFFFFFFF AND DUP2 MSTORE PUSH1 0x20 ADD SWAP1 DUP2 MSTORE PUSH1 0x20 ADD PUSH1 0x0 KECCAK256 PUSH1 0x1 PUSH1 0x2 DUP2 LT PUSH2 0x30E7 JUMPI PUSH2 0x30E6 PUSH2 0x646B JUMP JUMPDEST JUMPDEST ADD SLOAD PUSH2 0x30F3 SWAP2 SWAP1 PUSH2 0x629A JUMP JUMPDEST PUSH2 0x4D2C JUMP JUMPDEST PUSH1 0x33 PUSH1 0x0 DUP4 PUSH20 0xFFFFFFFFFFFFFFFFFFFFFFFFFFFFFFFFFFFFFFFF AND PUSH20 0xFFFFFFFFFFFFFFFFFFFFFFFFFFFFFFFFFFFFFFFF AND DUP2 MSTORE PUSH1 0x20 ADD SWAP1 DUP2 MSTORE PUSH1 0x20 ADD PUSH1 0x0 KECCAK256 PUSH1 0x0 PUSH2 0x3143 SWAP2 SWAP1 PUSH2 0x5769 JUMP JUMPDEST PUSH1 0x0 PUSH1 0x32 PUSH1 0x0 DUP5 PUSH20 0xFFFFFFFFFFFFFFFFFFFFFFFFFFFFFFFFFFFFFFFF AND PUSH20 0xFFFFFFFFFFFFFFFFFFFFFFFFFFFFFFFFFFFFFFFF AND DUP2 MSTORE PUSH1 0x20 ADD SWAP1 DUP2 MSTORE PUSH1 0x20 ADD PUSH1 0x0 KECCAK256 PUSH1 0x0 DUP1 ISZERO ISZERO ISZERO ISZERO DUP2 MSTORE PUSH1 0x20 ADD SWAP1 DUP2 MSTORE PUSH1 0x20 ADD PUSH1 0x0 KECCAK256 PUSH1 0x1 ADD DUP2 SWAP1 SSTORE POP PUSH1 0x0 PUSH1 0x32 PUSH1 0x0 DUP5 PUSH20 0xFFFFFFFFFFFFFFFFFFFFFFFFFFFFFFFFFFFFFFFF AND PUSH20 0xFFFFFFFFFFFFFFFFFFFFFFFFFFFFFFFFFFFFFFFF AND DUP2 MSTORE PUSH1 0x20 ADD SWAP1 DUP2 MSTORE PUSH1 0x20 ADD PUSH1 0x0 KECCAK256 PUSH1 0x0 PUSH1 0x1 ISZERO ISZERO ISZERO ISZERO DUP2 MSTORE PUSH1 0x20 ADD SWAP1 DUP2 MSTORE PUSH1 0x20 ADD PUSH1 0x0 KECCAK256 PUSH1 0x1 ADD DUP2 SWAP1 SSTORE POP PUSH2 0x32B8 PUSH1 0x32 PUSH1 0x0 DUP5 PUSH20 0xFFFFFFFFFFFFFFFFFFFFFFFFFFFFFFFFFFFFFFFF AND PUSH20 0xFFFFFFFFFFFFFFFFFFFFFFFFFFFFFFFFFFFFFFFF AND DUP2 MSTORE PUSH1 0x20 ADD SWAP1 DUP2 MSTORE PUSH1 0x20 ADD PUSH1 0x0 KECCAK256 PUSH1 0x0 DUP1 ISZERO ISZERO ISZERO ISZERO DUP2 MSTORE PUSH1 0x20 ADD SWAP1 DUP2 MSTORE PUSH1 0x20 ADD PUSH1 0x0 KECCAK256 PUSH1 0x2 ADD SLOAD PUSH1 0x32 PUSH1 0x0 DUP6 PUSH20 0xFFFFFFFFFFFFFFFFFFFFFFFFFFFFFFFFFFFFFFFF AND PUSH20 0xFFFFFFFFFFFFFFFFFFFFFFFFFFFFFFFFFFFFFFFF AND DUP2 MSTORE PUSH1 0x20 ADD SWAP1 DUP2 MSTORE PUSH1 0x20 ADD PUSH1 0x0 KECCAK256 PUSH1 0x0 PUSH1 0x1 ISZERO ISZERO ISZERO ISZERO DUP2 MSTORE PUSH1 0x20 ADD SWAP1 DUP2 MSTORE PUSH1 0x20 ADD PUSH1 0x0 KECCAK256 PUSH1 0x2 ADD SLOAD DUP5 PUSH2 0x12B5 JUMP JUMPDEST PUSH1 0x1 PUSH1 0x2F DUP2 SWAP1 SSTORE POP POP POP JUMP JUMPDEST PUSH1 0x25 PUSH1 0x0 SWAP1 SLOAD SWAP1 PUSH2 0x100 EXP SWAP1 DIV PUSH20 0xFFFFFFFFFFFFFFFFFFFFFFFFFFFFFFFFFFFFFFFF AND DUP2 JUMP JUMPDEST PUSH1 0x20 PUSH1 0x0 SWAP1 SLOAD SWAP1 PUSH2 0x100 EXP SWAP1 DIV PUSH1 0xFF AND DUP2 JUMP JUMPDEST PUSH1 0x23 SLOAD DUP2 JUMP JUMPDEST PUSH1 0x25 PUSH1 0x0 SWAP1 SLOAD SWAP1 PUSH2 0x100 EXP SWAP1 DIV PUSH20 0xFFFFFFFFFFFFFFFFFFFFFFFFFFFFFFFFFFFFFFFF AND PUSH20 0xFFFFFFFFFFFFFFFFFFFFFFFFFFFFFFFFFFFFFFFF AND CALLER PUSH20 0xFFFFFFFFFFFFFFFFFFFFFFFFFFFFFFFFFFFFFFFF AND EQ PUSH2 0x335D JUMPI PUSH1 0x0 DUP1 REVERT JUMPDEST DUP1 PUSH1 0x28 DUP2 SWAP1 SSTORE POP POP JUMP JUMPDEST PUSH1 0x18 SLOAD DUP2 JUMP JUMPDEST TIMESTAMP DUP5 LT ISZERO PUSH2 0x33B0 JUMPI PUSH1 0x40 MLOAD PUSH32 0x8C379A000000000000000000000000000000000000000000000000000000000 DUP2 MSTORE PUSH1 0x4 ADD PUSH2 0x33A7 SWAP1 PUSH2 0x5F86 JUMP JUMPDEST PUSH1 0x40 MLOAD DUP1 SWAP2 SUB SWAP1 REVERT JUMPDEST PUSH1 0x0 PUSH1 0x3 SLOAD PUSH32 0x6E71EDAE12B1B97F4D1F60370FEF10105FA2FAAE0126114A169C64845D6126C9 PUSH1 0x0 SHL DUP10 DUP10 DUP10 PUSH1 0x4 PUSH1 0x0 DUP15 PUSH20 0xFFFFFFFFFFFFFFFFFFFFFFFFFFFFFFFFFFFFFFFF AND PUSH20 0xFFFFFFFFFFFFFFFFFFFFFFFFFFFFFFFFFFFFFFFF AND DUP2 MSTORE PUSH1 0x20 ADD SWAP1 DUP2 MSTORE PUSH1 0x20 ADD PUSH1 0x0 KECCAK256 PUSH1 0x0 DUP2 SLOAD DUP1 SWAP3 SWAP2 SWAP1 PUSH2 0x342C SWAP1 PUSH2 0x63BA JUMP JUMPDEST SWAP2 SWAP1 POP SSTORE DUP11 PUSH1 0x40 MLOAD PUSH1 0x20 ADD PUSH2 0x3446 SWAP7 SWAP6 SWAP5 SWAP4 SWAP3 SWAP2 SWAP1 PUSH2 0x5E5E JUMP JUMPDEST PUSH1 0x40 MLOAD PUSH1 0x20 DUP2 DUP4 SUB SUB DUP2 MSTORE SWAP1 PUSH1 0x40 MSTORE DUP1 MLOAD SWAP1 PUSH1 0x20 ADD KECCAK256 PUSH1 0x40 MLOAD PUSH1 0x20 ADD PUSH2 0x346D SWAP3 SWAP2 SWAP1 PUSH2 0x5D68 JUMP JUMPDEST PUSH1 0x40 MLOAD PUSH1 0x20 DUP2 DUP4 SUB SUB DUP2 MSTORE SWAP1 PUSH1 0x40 MSTORE DUP1 MLOAD SWAP1 PUSH1 0x20 ADD KECCAK256 SWAP1 POP PUSH1 0x0 PUSH1 0x1 DUP3 DUP7 DUP7 DUP7 PUSH1 0x40 MLOAD PUSH1 0x0 DUP2 MSTORE PUSH1 0x20 ADD PUSH1 0x40 MSTORE PUSH1 0x40 MLOAD PUSH2 0x34AA SWAP5 SWAP4 SWAP3 SWAP2 SWAP1 PUSH2 0x5EBF JUMP JUMPDEST PUSH1 0x20 PUSH1 0x40 MLOAD PUSH1 0x20 DUP2 SUB SWAP1 DUP1 DUP5 SUB SWAP1 DUP6 GAS STATICCALL ISZERO DUP1 ISZERO PUSH2 0x34CC JUMPI RETURNDATASIZE PUSH1 0x0 DUP1 RETURNDATACOPY RETURNDATASIZE PUSH1 0x0 REVERT JUMPDEST POP POP POP PUSH1 0x20 PUSH1 0x40 MLOAD SUB MLOAD SWAP1 POP PUSH1 0x0 PUSH20 0xFFFFFFFFFFFFFFFFFFFFFFFFFFFFFFFFFFFFFFFF AND DUP2 PUSH20 0xFFFFFFFFFFFFFFFFFFFFFFFFFFFFFFFFFFFFFFFF AND EQ ISZERO DUP1 ISZERO PUSH2 0x3540 JUMPI POP DUP9 PUSH20 0xFFFFFFFFFFFFFFFFFFFFFFFFFFFFFFFFFFFFFFFF AND DUP2 PUSH20 0xFFFFFFFFFFFFFFFFFFFFFFFFFFFFFFFFFFFFFFFF AND EQ JUMPDEST PUSH2 0x357F JUMPI PUSH1 0x40 MLOAD PUSH32 0x8C379A000000000000000000000000000000000000000000000000000000000 DUP2 MSTORE PUSH1 0x4 ADD PUSH2 0x3576 SWAP1 PUSH2 0x5F46 JUMP JUMPDEST PUSH1 0x40 MLOAD DUP1 SWAP2 SUB SWAP1 REVERT JUMPDEST PUSH2 0x358A DUP10 DUP10 DUP10 PUSH2 0x3670 JUMP JUMPDEST POP POP POP POP POP POP POP POP POP JUMP JUMPDEST PUSH1 0x2 PUSH1 0x20 MSTORE DUP2 PUSH1 0x0 MSTORE PUSH1 0x40 PUSH1 0x0 KECCAK256 PUSH1 0x20 MSTORE DUP1 PUSH1 0x0 MSTORE PUSH1 0x40 PUSH1 0x0 KECCAK256 PUSH1 0x0 SWAP2 POP SWAP2 POP POP SLOAD DUP2 JUMP JUMPDEST PUSH1 0x2E SLOAD DUP2 JUMP JUMPDEST PUSH1 0xF SLOAD DUP2 JUMP JUMPDEST PUSH1 0x21 SLOAD DUP2 JUMP JUMPDEST PUSH1 0x11 SLOAD DUP2 JUMP JUMPDEST PUSH1 0x2B SLOAD DUP2 JUMP JUMPDEST PUSH1 0x8 SLOAD DUP2 JUMP JUMPDEST PUSH1 0x33 PUSH1 0x20 MSTORE DUP2 PUSH1 0x0 MSTORE PUSH1 0x40 PUSH1 0x0 KECCAK256 DUP2 PUSH1 0x2 DUP2 LT PUSH2 0x35FA JUMPI PUSH1 0x0 DUP1 REVERT JUMPDEST ADD PUSH1 0x0 SWAP2 POP SWAP2 POP POP SLOAD DUP2 JUMP JUMPDEST PUSH1 0xD SLOAD DUP2 JUMP JUMPDEST PUSH1 0x25 PUSH1 0x0 SWAP1 SLOAD SWAP1 PUSH2 0x100 EXP SWAP1 DIV PUSH20 0xFFFFFFFFFFFFFFFFFFFFFFFFFFFFFFFFFFFFFFFF AND PUSH20 0xFFFFFFFFFFFFFFFFFFFFFFFFFFFFFFFFFFFFFFFF AND CALLER PUSH20 0xFFFFFFFFFFFFFFFFFFFFFFFFFFFFFFFFFFFFFFFF AND EQ PUSH2 0x3666 JUMPI PUSH1 0x0 DUP1 REVERT JUMPDEST DUP1 PUSH1 0x2A DUP2 SWAP1 SSTORE POP POP JUMP JUMPDEST DUP1 PUSH1 0x2 PUSH1 0x0 DUP6 PUSH20 0xFFFFFFFFFFFFFFFFFFFFFFFFFFFFFFFFFFFFFFFF AND PUSH20 0xFFFFFFFFFFFFFFFFFFFFFFFFFFFFFFFFFFFFFFFF AND DUP2 MSTORE PUSH1 0x20 ADD SWAP1 DUP2 MSTORE PUSH1 0x20 ADD PUSH1 0x0 KECCAK256 PUSH1 0x0 DUP5 PUSH20 0xFFFFFFFFFFFFFFFFFFFFFFFFFFFFFFFFFFFFFFFF AND PUSH20 0xFFFFFFFFFFFFFFFFFFFFFFFFFFFFFFFFFFFFFFFF AND DUP2 MSTORE PUSH1 0x20 ADD SWAP1 DUP2 MSTORE PUSH1 0x20 ADD PUSH1 0x0 KECCAK256 DUP2 SWAP1 SSTORE POP DUP2 PUSH20 0xFFFFFFFFFFFFFFFFFFFFFFFFFFFFFFFFFFFFFFFF AND DUP4 PUSH20 0xFFFFFFFFFFFFFFFFFFFFFFFFFFFFFFFFFFFFFFFF AND PUSH32 0x8C5BE1E5EBEC7D5BD14F71427D1E84F3DD0314C0F7B2291E5B200AC8C7C3B925 DUP4 PUSH1 0x40 MLOAD PUSH2 0x374E SWAP2 SWAP1 PUSH2 0x6006 JUMP JUMPDEST PUSH1 0x40 MLOAD DUP1 SWAP2 SUB SWAP1 LOG3 POP POP POP JUMP JUMPDEST PUSH1 0x0 DUP3 DUP3 DUP5 PUSH2 0x376A SWAP2 SWAP1 PUSH2 0x62F4 JUMP JUMPDEST SWAP2 POP DUP2 GT ISZERO PUSH2 0x37AE JUMPI PUSH1 0x40 MLOAD PUSH32 0x8C379A000000000000000000000000000000000000000000000000000000000 DUP2 MSTORE PUSH1 0x4 ADD PUSH2 0x37A5 SWAP1 PUSH2 0x5F26 JUMP JUMPDEST PUSH1 0x40 MLOAD DUP1 SWAP2 SUB SWAP1 REVERT JUMPDEST SWAP3 SWAP2 POP POP JUMP JUMPDEST PUSH2 0x3806 DUP2 PUSH1 0x1 PUSH1 0x0 DUP7 PUSH20 0xFFFFFFFFFFFFFFFFFFFFFFFFFFFFFFFFFFFFFFFF AND PUSH20 0xFFFFFFFFFFFFFFFFFFFFFFFFFFFFFFFFFFFFFFFF AND DUP2 MSTORE PUSH1 0x20 ADD SWAP1 DUP2 MSTORE PUSH1 0x20 ADD PUSH1 0x0 KECCAK256 SLOAD PUSH2 0x375B SWAP1 SWAP2 SWAP1 PUSH4 0xFFFFFFFF AND JUMP JUMPDEST PUSH1 0x1 PUSH1 0x0 DUP6 PUSH20 0xFFFFFFFFFFFFFFFFFFFFFFFFFFFFFFFFFFFFFFFF AND PUSH20 0xFFFFFFFFFFFFFFFFFFFFFFFFFFFFFFFFFFFFFFFF AND DUP2 MSTORE PUSH1 0x20 ADD SWAP1 DUP2 MSTORE PUSH1 0x20 ADD PUSH1 0x0 KECCAK256 DUP2 SWAP1 SSTORE POP PUSH2 0x389B DUP2 PUSH1 0x1 PUSH1 0x0 DUP6 PUSH20 0xFFFFFFFFFFFFFFFFFFFFFFFFFFFFFFFFFFFFFFFF AND PUSH20 0xFFFFFFFFFFFFFFFFFFFFFFFFFFFFFFFFFFFFFFFF AND DUP2 MSTORE PUSH1 0x20 ADD SWAP1 DUP2 MSTORE PUSH1 0x20 ADD PUSH1 0x0 KECCAK256 SLOAD PUSH2 0x4ECF SWAP1 SWAP2 SWAP1 PUSH4 0xFFFFFFFF AND JUMP JUMPDEST PUSH1 0x1 PUSH1 0x0 DUP5 PUSH20 0xFFFFFFFFFFFFFFFFFFFFFFFFFFFFFFFFFFFFFFFF AND PUSH20 0xFFFFFFFFFFFFFFFFFFFFFFFFFFFFFFFFFFFFFFFF AND DUP2 MSTORE PUSH1 0x20 ADD SWAP1 DUP2 MSTORE PUSH1 0x20 ADD PUSH1 0x0 KECCAK256 DUP2 SWAP1 SSTORE POP DUP2 PUSH20 0xFFFFFFFFFFFFFFFFFFFFFFFFFFFFFFFFFFFFFFFF AND DUP4 PUSH20 0xFFFFFFFFFFFFFFFFFFFFFFFFFFFFFFFFFFFFFFFF AND PUSH32 0xDDF252AD1BE2C89B69C2B068FC378DAA952BA7F163C4A11628F55A4DF523B3EF DUP4 PUSH1 0x40 MLOAD PUSH2 0x393B SWAP2 SWAP1 PUSH2 0x6006 JUMP JUMPDEST PUSH1 0x40 MLOAD DUP1 SWAP2 SUB SWAP1 LOG3 POP POP POP JUMP JUMPDEST PUSH1 0x0 PUSH2 0x39C4 PUSH2 0x39B9 PUSH1 0x32 PUSH1 0x0 DUP6 PUSH20 0xFFFFFFFFFFFFFFFFFFFFFFFFFFFFFFFFFFFFFFFF AND PUSH20 0xFFFFFFFFFFFFFFFFFFFFFFFFFFFFFFFFFFFFFFFF AND DUP2 MSTORE PUSH1 0x20 ADD SWAP1 DUP2 MSTORE PUSH1 0x20 ADD PUSH1 0x0 KECCAK256 PUSH1 0x0 DUP1 ISZERO ISZERO ISZERO ISZERO DUP2 MSTORE PUSH1 0x20 ADD SWAP1 DUP2 MSTORE PUSH1 0x20 ADD PUSH1 0x0 KECCAK256 PUSH1 0x1 ADD SLOAD PUSH1 0x19 SLOAD PUSH1 0x17 SLOAD PUSH1 0x1B SLOAD PUSH1 0x2C SLOAD PUSH2 0x408A JUMP JUMPDEST PUSH1 0xD SLOAD PUSH1 0xE SLOAD PUSH2 0x40C4 JUMP JUMPDEST PUSH2 0x3A2B PUSH1 0x32 PUSH1 0x0 DUP6 PUSH20 0xFFFFFFFFFFFFFFFFFFFFFFFFFFFFFFFFFFFFFFFF AND PUSH20 0xFFFFFFFFFFFFFFFFFFFFFFFFFFFFFFFFFFFFFFFF AND DUP2 MSTORE PUSH1 0x20 ADD SWAP1 DUP2 MSTORE PUSH1 0x20 ADD PUSH1 0x0 KECCAK256 PUSH1 0x0 PUSH1 0x1 ISZERO ISZERO ISZERO ISZERO DUP2 MSTORE PUSH1 0x20 ADD SWAP1 DUP2 MSTORE PUSH1 0x20 ADD PUSH1 0x0 KECCAK256 PUSH1 0x1 ADD SLOAD PUSH1 0x1A SLOAD PUSH1 0x1C SLOAD PUSH2 0x40C4 JUMP JUMPDEST PUSH2 0x3A35 SWAP2 SWAP1 PUSH2 0x60A2 JUMP JUMPDEST SWAP1 POP SWAP2 SWAP1 POP JUMP JUMPDEST PUSH1 0x0 PUSH2 0x3AAB PUSH1 0x32 PUSH1 0x0 DUP5 PUSH20 0xFFFFFFFFFFFFFFFFFFFFFFFFFFFFFFFFFFFFFFFF AND PUSH20 0xFFFFFFFFFFFFFFFFFFFFFFFFFFFFFFFFFFFFFFFF AND DUP2 MSTORE PUSH1 0x20 ADD SWAP1 DUP2 MSTORE PUSH1 0x20 ADD PUSH1 0x0 KECCAK256 PUSH1 0x0 PUSH1 0x1 ISZERO ISZERO ISZERO ISZERO DUP2 MSTORE PUSH1 0x20 ADD SWAP1 DUP2 MSTORE PUSH1 0x20 ADD PUSH1 0x0 KECCAK256 PUSH1 0x2 ADD SLOAD PUSH1 0x17 SLOAD PUSH1 0xD SLOAD PUSH1 0xE SLOAD PUSH1 0x2C SLOAD PUSH2 0x408A JUMP JUMPDEST PUSH1 0x2C SLOAD PUSH1 0x32 PUSH1 0x0 DUP6 PUSH20 0xFFFFFFFFFFFFFFFFFFFFFFFFFFFFFFFFFFFFFFFF AND PUSH20 0xFFFFFFFFFFFFFFFFFFFFFFFFFFFFFFFFFFFFFFFF AND DUP2 MSTORE PUSH1 0x20 ADD SWAP1 DUP2 MSTORE PUSH1 0x20 ADD PUSH1 0x0 KECCAK256 PUSH1 0x0 DUP1 ISZERO ISZERO ISZERO ISZERO DUP2 MSTORE PUSH1 0x20 ADD SWAP1 DUP2 MSTORE PUSH1 0x20 ADD PUSH1 0x0 KECCAK256 PUSH1 0x2 ADD SLOAD PUSH2 0x3B10 SWAP2 SWAP1 PUSH2 0x629A JUMP JUMPDEST PUSH2 0x3B1A SWAP2 SWAP1 PUSH2 0x60A2 JUMP JUMPDEST SWAP1 POP SWAP2 SWAP1 POP JUMP JUMPDEST PUSH1 0x0 PUSH2 0x3B8B PUSH1 0x33 PUSH1 0x0 DUP5 PUSH20 0xFFFFFFFFFFFFFFFFFFFFFFFFFFFFFFFFFFFFFFFF AND PUSH20 0xFFFFFFFFFFFFFFFFFFFFFFFFFFFFFFFFFFFFFFFF AND DUP2 MSTORE PUSH1 0x20 ADD SWAP1 DUP2 MSTORE PUSH1 0x20 ADD PUSH1 0x0 KECCAK256 PUSH1 0x1 PUSH1 0x2 DUP2 LT PUSH2 0x3B78 JUMPI PUSH2 0x3B77 PUSH2 0x646B JUMP JUMPDEST JUMPDEST ADD SLOAD PUSH1 0x17 SLOAD PUSH1 0xD SLOAD PUSH1 0xE SLOAD PUSH1 0x2C SLOAD PUSH2 0x408A JUMP JUMPDEST PUSH1 0x33 PUSH1 0x0 DUP5 PUSH20 0xFFFFFFFFFFFFFFFFFFFFFFFFFFFFFFFFFFFFFFFF AND PUSH20 0xFFFFFFFFFFFFFFFFFFFFFFFFFFFFFFFFFFFFFFFF AND DUP2 MSTORE PUSH1 0x20 ADD SWAP1 DUP2 MSTORE PUSH1 0x20 ADD PUSH1 0x0 KECCAK256 PUSH1 0x0 PUSH1 0x2 DUP2 LT PUSH2 0x3BDD JUMPI PUSH2 0x3BDC PUSH2 0x646B JUMP JUMPDEST JUMPDEST ADD SLOAD PUSH2 0x3BE9 SWAP2 SWAP1 PUSH2 0x60A2 JUMP JUMPDEST SWAP1 POP SWAP2 SWAP1 POP JUMP JUMPDEST PUSH1 0x0 DUP1 PUSH2 0x3C16 PUSH1 0x14 SLOAD PUSH1 0x13 SLOAD PUSH1 0xE SLOAD PUSH1 0xD SLOAD PUSH1 0xB SLOAD PUSH1 0xC SLOAD PUSH1 0x5 SLOAD PUSH1 0x6 SLOAD PUSH1 0x7 SLOAD PUSH2 0x4F28 JUMP JUMPDEST SWAP2 POP SWAP2 POP PUSH1 0x0 DUP1 PUSH2 0x3C39 DUP5 DUP5 PUSH1 0x10 SLOAD PUSH1 0xF SLOAD PUSH1 0x22 SLOAD PUSH1 0x21 SLOAD PUSH1 0x14 SLOAD PUSH1 0x13 SLOAD PUSH2 0x4FC4 JUMP JUMPDEST SWAP2 POP SWAP2 POP PUSH1 0x0 PUSH1 0x1F SLOAD NUMBER PUSH2 0x3C4D SWAP2 SWAP1 PUSH2 0x62F4 JUMP JUMPDEST SWAP1 POP NUMBER PUSH1 0x1F DUP2 SWAP1 SSTORE POP PUSH1 0x0 PUSH2 0x3C69 PUSH1 0x17 SLOAD PUSH1 0xD SLOAD PUSH1 0xE SLOAD PUSH2 0x40C4 JUMP JUMPDEST SWAP1 POP PUSH1 0x0 ISZERO ISZERO PUSH1 0x20 PUSH1 0x0 SWAP1 SLOAD SWAP1 PUSH2 0x100 EXP SWAP1 DIV PUSH1 0xFF AND ISZERO ISZERO EQ ISZERO PUSH2 0x3CE6 JUMPI PUSH2 0x3CA8 PUSH1 0x19 SLOAD PUSH1 0x1E SLOAD PUSH1 0x2C SLOAD PUSH2 0x3C9D SWAP2 SWAP1 PUSH2 0x60A2 JUMP JUMPDEST DUP5 PUSH1 0x2C SLOAD PUSH1 0x1 PUSH2 0x408A JUMP JUMPDEST PUSH1 0x19 DUP2 SWAP1 SSTORE POP DUP2 PUSH2 0x3CC4 PUSH1 0x1E SLOAD PUSH1 0x19 SLOAD DUP5 PUSH1 0x2C SLOAD PUSH1 0x2C SLOAD PUSH2 0x408A JUMP JUMPDEST PUSH2 0x3CCE SWAP2 SWAP1 PUSH2 0x629A JUMP JUMPDEST PUSH1 0x1A SLOAD PUSH2 0x3CDB SWAP2 SWAP1 PUSH2 0x62F4 JUMP JUMPDEST PUSH1 0x1A DUP2 SWAP1 SSTORE POP PUSH2 0x3D33 JUMP JUMPDEST PUSH2 0x3D07 PUSH1 0x1A SLOAD PUSH1 0x1E SLOAD PUSH1 0x2C SLOAD PUSH2 0x3CFC SWAP2 SWAP1 PUSH2 0x60A2 JUMP JUMPDEST DUP5 PUSH1 0x2C SLOAD PUSH1 0x1 PUSH2 0x408A JUMP JUMPDEST PUSH1 0x1A DUP2 SWAP1 SSTORE POP PUSH2 0x3D1F PUSH1 0x1E SLOAD PUSH1 0x1A SLOAD DUP5 DUP5 PUSH1 0x1 PUSH2 0x408A JUMP JUMPDEST PUSH1 0x19 SLOAD PUSH2 0x3D2C SWAP2 SWAP1 PUSH2 0x62F4 JUMP JUMPDEST PUSH1 0x19 DUP2 SWAP1 SSTORE POP JUMPDEST DUP4 PUSH1 0x1E DUP2 SWAP1 SSTORE POP DUP3 PUSH1 0x20 PUSH1 0x0 PUSH2 0x100 EXP DUP2 SLOAD DUP2 PUSH1 0xFF MUL NOT AND SWAP1 DUP4 ISZERO ISZERO MUL OR SWAP1 SSTORE POP POP POP POP POP POP POP JUMP JUMPDEST PUSH1 0x0 PUSH1 0x1 PUSH1 0x2F SLOAD EQ PUSH2 0x3DA3 JUMPI PUSH1 0x40 MLOAD PUSH32 0x8C379A000000000000000000000000000000000000000000000000000000000 DUP2 MSTORE PUSH1 0x4 ADD PUSH2 0x3D9A SWAP1 PUSH2 0x5FE6 JUMP JUMPDEST PUSH1 0x40 MLOAD DUP1 SWAP2 SUB SWAP1 REVERT JUMPDEST PUSH1 0x0 PUSH1 0x2F DUP2 SWAP1 SSTORE POP PUSH1 0x0 PUSH1 0x1 SWAP1 POP JUMPDEST PUSH1 0x1 ISZERO ISZERO DUP2 ISZERO ISZERO EQ ISZERO PUSH2 0x407B JUMPI PUSH1 0x0 PUSH2 0x3DD2 PUSH1 0x9 SLOAD PUSH1 0x18 SLOAD PUSH1 0x2C SLOAD PUSH2 0x40C4 JUMP JUMPDEST SWAP1 POP PUSH1 0x0 PUSH2 0x3DE8 PUSH1 0x5 SLOAD PUSH1 0x6 SLOAD PUSH1 0x7 SLOAD DUP6 PUSH2 0x506E JUMP JUMPDEST SWAP1 POP PUSH2 0x3DF9 DUP3 PUSH1 0xB SLOAD PUSH1 0xE SLOAD PUSH2 0x516E JUMP JUMPDEST DUP7 GT ISZERO PUSH2 0x3F80 JUMPI PUSH2 0x3E0F PUSH1 0xC SLOAD DUP3 PUSH1 0xD SLOAD PUSH2 0x516E JUMP JUMPDEST DUP5 PUSH2 0x3E1A SWAP2 SWAP1 PUSH2 0x60A2 JUMP JUMPDEST SWAP4 POP PUSH2 0x3E2B DUP3 PUSH1 0xB SLOAD PUSH1 0xE SLOAD PUSH2 0x516E JUMP JUMPDEST DUP7 PUSH2 0x3E36 SWAP2 SWAP1 PUSH2 0x62F4 JUMP JUMPDEST SWAP6 POP PUSH1 0x1 ISZERO ISZERO DUP6 ISZERO ISZERO EQ ISZERO PUSH2 0x3E71 JUMPI PUSH2 0x3E54 PUSH1 0xC SLOAD DUP3 PUSH1 0xD SLOAD PUSH2 0x516E JUMP JUMPDEST PUSH1 0xF PUSH1 0x0 DUP3 DUP3 SLOAD PUSH2 0x3E65 SWAP2 SWAP1 PUSH2 0x60A2 JUMP JUMPDEST SWAP3 POP POP DUP2 SWAP1 SSTORE POP PUSH2 0x3EC0 JUMP JUMPDEST PUSH2 0x3E80 DUP3 PUSH1 0xB SLOAD PUSH1 0xE SLOAD PUSH2 0x516E JUMP JUMPDEST PUSH1 0x14 PUSH1 0x0 DUP3 DUP3 SLOAD PUSH2 0x3E91 SWAP2 SWAP1 PUSH2 0x60A2 JUMP JUMPDEST SWAP3 POP POP DUP2 SWAP1 SSTORE POP PUSH2 0x3EA7 PUSH1 0xC SLOAD DUP3 PUSH1 0xD SLOAD PUSH2 0x516E JUMP JUMPDEST PUSH1 0x13 PUSH1 0x0 DUP3 DUP3 SLOAD PUSH2 0x3EB8 SWAP2 SWAP1 PUSH2 0x62F4 JUMP JUMPDEST SWAP3 POP POP DUP2 SWAP1 SSTORE POP JUMPDEST PUSH2 0x3ECF PUSH1 0xD SLOAD PUSH1 0xA SLOAD DUP4 PUSH2 0x40C4 JUMP JUMPDEST PUSH1 0xD DUP2 SWAP1 SSTORE POP PUSH2 0x3EE4 PUSH1 0xE SLOAD PUSH1 0x9 SLOAD DUP5 PUSH2 0x40C4 JUMP JUMPDEST PUSH1 0xE DUP2 SWAP1 SSTORE POP PUSH2 0x3F0D PUSH2 0x3F00 PUSH1 0x5 SLOAD PUSH1 0x6 SLOAD PUSH1 0x7 SLOAD DUP7 DUP7 PUSH2 0x51A3 JUMP JUMPDEST DUP3 PUSH1 0x9 SLOAD DUP6 PUSH1 0xA SLOAD PUSH2 0x408A JUMP JUMPDEST PUSH1 0x17 DUP2 SWAP1 SSTORE POP PUSH1 0x9 SLOAD PUSH1 0xB DUP2 SWAP1 SSTORE POP PUSH1 0xA SLOAD PUSH1 0xC DUP2 SWAP1 SSTORE POP PUSH2 0x3F39 PUSH1 0xB SLOAD PUSH1 0xC SLOAD PUSH1 0x7 SLOAD PUSH1 0x17 SLOAD PUSH2 0x5297 JUMP JUMPDEST PUSH1 0x5 DUP2 SWAP1 SSTORE POP PUSH1 0x5 SLOAD PUSH1 0x2C SLOAD PUSH1 0x2 PUSH2 0x3F51 SWAP2 SWAP1 PUSH2 0x629A JUMP JUMPDEST PUSH2 0x3F5B SWAP2 SWAP1 PUSH2 0x62F4 JUMP JUMPDEST PUSH1 0x6 DUP2 SWAP1 SSTORE POP PUSH2 0x3F69 PUSH2 0x4BA0 JUMP JUMPDEST PUSH1 0x9 SLOAD PUSH1 0xB DUP2 SWAP1 SSTORE POP PUSH1 0xA SLOAD PUSH1 0xC DUP2 SWAP1 SSTORE POP PUSH2 0x4074 JUMP JUMPDEST PUSH1 0xB SLOAD PUSH1 0x15 DUP2 SWAP1 SSTORE POP PUSH1 0xC SLOAD PUSH1 0x16 DUP2 SWAP1 SSTORE POP PUSH2 0x3FA1 DUP7 PUSH1 0xE SLOAD PUSH1 0x2C SLOAD PUSH2 0x40C4 JUMP JUMPDEST PUSH1 0xB PUSH1 0x0 DUP3 DUP3 SLOAD PUSH2 0x3FB2 SWAP2 SWAP1 PUSH2 0x60A2 JUMP JUMPDEST SWAP3 POP POP DUP2 SWAP1 SSTORE POP PUSH2 0x3FCD PUSH1 0x5 SLOAD PUSH1 0x6 SLOAD PUSH1 0x7 SLOAD PUSH1 0xB SLOAD PUSH2 0x506E JUMP JUMPDEST PUSH1 0xC DUP2 SWAP1 SSTORE POP PUSH2 0x3FE4 PUSH1 0x16 SLOAD PUSH1 0xC SLOAD PUSH1 0xD SLOAD PUSH2 0x516E JUMP JUMPDEST DUP5 PUSH2 0x3FEF SWAP2 SWAP1 PUSH2 0x60A2 JUMP JUMPDEST SWAP4 POP PUSH1 0x1 ISZERO ISZERO DUP6 ISZERO ISZERO EQ ISZERO PUSH2 0x402C JUMPI PUSH2 0x400F PUSH1 0x16 SLOAD PUSH1 0xC SLOAD PUSH1 0xD SLOAD PUSH2 0x516E JUMP JUMPDEST PUSH1 0xF PUSH1 0x0 DUP3 DUP3 SLOAD PUSH2 0x4020 SWAP2 SWAP1 PUSH2 0x60A2 JUMP JUMPDEST SWAP3 POP POP DUP2 SWAP1 SSTORE POP PUSH2 0x406F JUMP JUMPDEST DUP6 PUSH1 0x14 PUSH1 0x0 DUP3 DUP3 SLOAD PUSH2 0x403E SWAP2 SWAP1 PUSH2 0x60A2 JUMP JUMPDEST SWAP3 POP POP DUP2 SWAP1 SSTORE POP PUSH2 0x4056 PUSH1 0x16 SLOAD PUSH1 0xC SLOAD PUSH1 0xD SLOAD PUSH2 0x516E JUMP JUMPDEST PUSH1 0x13 PUSH1 0x0 DUP3 DUP3 SLOAD PUSH2 0x4067 SWAP2 SWAP1 PUSH2 0x62F4 JUMP JUMPDEST SWAP3 POP POP DUP2 SWAP1 SSTORE POP JUMPDEST PUSH1 0x0 SWAP3 POP JUMPDEST POP POP PUSH2 0x3DB2 JUMP JUMPDEST POP PUSH1 0x1 PUSH1 0x2F DUP2 SWAP1 SSTORE POP SWAP3 SWAP2 POP POP JUMP JUMPDEST PUSH1 0x0 DUP2 DUP4 DUP6 DUP8 DUP10 PUSH2 0x409B SWAP2 SWAP1 PUSH2 0x629A JUMP JUMPDEST PUSH2 0x40A5 SWAP2 SWAP1 PUSH2 0x629A JUMP JUMPDEST PUSH2 0x40AF SWAP2 SWAP1 PUSH2 0x60F8 JUMP JUMPDEST PUSH2 0x40B9 SWAP2 SWAP1 PUSH2 0x60F8 JUMP JUMPDEST SWAP1 POP SWAP6 SWAP5 POP POP POP POP POP JUMP JUMPDEST PUSH1 0x0 DUP2 DUP4 DUP6 PUSH2 0x40D3 SWAP2 SWAP1 PUSH2 0x629A JUMP JUMPDEST PUSH2 0x40DD SWAP2 SWAP1 PUSH2 0x60F8 JUMP JUMPDEST SWAP1 POP SWAP4 SWAP3 POP POP POP JUMP JUMPDEST PUSH1 0x0 PUSH1 0x1 PUSH1 0x2F SLOAD EQ PUSH2 0x412D JUMPI PUSH1 0x40 MLOAD PUSH32 0x8C379A000000000000000000000000000000000000000000000000000000000 DUP2 MSTORE PUSH1 0x4 ADD PUSH2 0x4124 SWAP1 PUSH2 0x5FE6 JUMP JUMPDEST PUSH1 0x40 MLOAD DUP1 SWAP2 SUB SWAP1 REVERT JUMPDEST PUSH1 0x0 PUSH1 0x2F DUP2 SWAP1 SSTORE POP PUSH1 0x0 PUSH1 0x1 SWAP1 POP JUMPDEST PUSH1 0x1 ISZERO ISZERO DUP2 ISZERO ISZERO EQ ISZERO PUSH2 0x4405 JUMPI PUSH1 0x0 PUSH2 0x415C PUSH1 0xA SLOAD PUSH1 0x18 SLOAD PUSH1 0x2C SLOAD PUSH2 0x40C4 JUMP JUMPDEST SWAP1 POP PUSH1 0x0 PUSH2 0x4172 PUSH1 0x5 SLOAD PUSH1 0x6 SLOAD PUSH1 0x7 SLOAD DUP6 PUSH2 0x53D1 JUMP JUMPDEST SWAP1 POP PUSH2 0x4183 DUP3 PUSH1 0xC SLOAD PUSH1 0xD SLOAD PUSH2 0x516E JUMP JUMPDEST DUP7 GT ISZERO PUSH2 0x430A JUMPI PUSH2 0x4199 PUSH1 0xB SLOAD DUP3 PUSH1 0xE SLOAD PUSH2 0x516E JUMP JUMPDEST DUP5 PUSH2 0x41A4 SWAP2 SWAP1 PUSH2 0x60A2 JUMP JUMPDEST SWAP4 POP PUSH2 0x41B5 DUP3 PUSH1 0xC SLOAD PUSH1 0xD SLOAD PUSH2 0x516E JUMP JUMPDEST DUP7 PUSH2 0x41C0 SWAP2 SWAP1 PUSH2 0x62F4 JUMP JUMPDEST SWAP6 POP PUSH1 0x1 ISZERO ISZERO DUP6 ISZERO ISZERO EQ ISZERO PUSH2 0x41FB JUMPI PUSH2 0x41DE PUSH1 0xB SLOAD DUP3 PUSH1 0xE SLOAD PUSH2 0x516E JUMP JUMPDEST PUSH1 0x10 PUSH1 0x0 DUP3 DUP3 SLOAD PUSH2 0x41EF SWAP2 SWAP1 PUSH2 0x60A2 JUMP JUMPDEST SWAP3 POP POP DUP2 SWAP1 SSTORE POP PUSH2 0x424A JUMP JUMPDEST PUSH2 0x420A PUSH1 0xB SLOAD DUP3 PUSH1 0xE SLOAD PUSH2 0x516E JUMP JUMPDEST PUSH1 0x14 PUSH1 0x0 DUP3 DUP3 SLOAD PUSH2 0x421B SWAP2 SWAP1 PUSH2 0x62F4 JUMP JUMPDEST SWAP3 POP POP DUP2 SWAP1 SSTORE POP PUSH2 0x4231 DUP3 PUSH1 0xC SLOAD PUSH1 0xD SLOAD PUSH2 0x516E JUMP JUMPDEST PUSH1 0x13 PUSH1 0x0 DUP3 DUP3 SLOAD PUSH2 0x4242 SWAP2 SWAP1 PUSH2 0x60A2 JUMP JUMPDEST SWAP3 POP POP DUP2 SWAP1 SSTORE POP JUMPDEST PUSH2 0x4259 PUSH1 0xD SLOAD PUSH1 0xA SLOAD DUP5 PUSH2 0x40C4 JUMP JUMPDEST PUSH1 0xD DUP2 SWAP1 SSTORE POP PUSH2 0x426E PUSH1 0xE SLOAD PUSH1 0x9 SLOAD DUP4 PUSH2 0x40C4 JUMP JUMPDEST PUSH1 0xE DUP2 SWAP1 SSTORE POP PUSH2 0x4297 PUSH2 0x428A PUSH1 0x5 SLOAD PUSH1 0x6 SLOAD PUSH1 0x7 SLOAD DUP6 DUP8 PUSH2 0x51A3 JUMP JUMPDEST DUP4 PUSH1 0x9 SLOAD DUP5 PUSH1 0xA SLOAD PUSH2 0x408A JUMP JUMPDEST PUSH1 0x17 DUP2 SWAP1 SSTORE POP PUSH1 0x9 SLOAD PUSH1 0xB DUP2 SWAP1 SSTORE POP PUSH1 0xA SLOAD PUSH1 0xC DUP2 SWAP1 SSTORE POP PUSH2 0x42C3 PUSH1 0xB SLOAD PUSH1 0xC SLOAD PUSH1 0x7 SLOAD PUSH1 0x17 SLOAD PUSH2 0x5297 JUMP JUMPDEST PUSH1 0x5 DUP2 SWAP1 SSTORE POP PUSH1 0x5 SLOAD PUSH1 0x2C SLOAD PUSH1 0x2 PUSH2 0x42DB SWAP2 SWAP1 PUSH2 0x629A JUMP JUMPDEST PUSH2 0x42E5 SWAP2 SWAP1 PUSH2 0x62F4 JUMP JUMPDEST PUSH1 0x6 DUP2 SWAP1 SSTORE POP PUSH2 0x42F3 PUSH2 0x4BA0 JUMP JUMPDEST PUSH1 0x9 SLOAD PUSH1 0xB DUP2 SWAP1 SSTORE POP PUSH1 0xA SLOAD PUSH1 0xC DUP2 SWAP1 SSTORE POP PUSH2 0x43FE JUMP JUMPDEST PUSH1 0xB SLOAD PUSH1 0x15 DUP2 SWAP1 SSTORE POP PUSH1 0xC SLOAD PUSH1 0x16 DUP2 SWAP1 SSTORE POP PUSH2 0x432B DUP7 PUSH1 0xD SLOAD PUSH1 0x2C SLOAD PUSH2 0x40C4 JUMP JUMPDEST PUSH1 0xC PUSH1 0x0 DUP3 DUP3 SLOAD PUSH2 0x433C SWAP2 SWAP1 PUSH2 0x60A2 JUMP JUMPDEST SWAP3 POP POP DUP2 SWAP1 SSTORE POP PUSH2 0x4357 PUSH1 0x5 SLOAD PUSH1 0x6 SLOAD PUSH1 0x7 SLOAD PUSH1 0xC SLOAD PUSH2 0x53D1 JUMP JUMPDEST PUSH1 0xB DUP2 SWAP1 SSTORE POP PUSH2 0x436E PUSH1 0x15 SLOAD PUSH1 0xB SLOAD PUSH1 0xE SLOAD PUSH2 0x516E JUMP JUMPDEST DUP5 PUSH2 0x4379 SWAP2 SWAP1 PUSH2 0x60A2 JUMP JUMPDEST SWAP4 POP PUSH1 0x1 ISZERO ISZERO DUP6 ISZERO ISZERO EQ ISZERO PUSH2 0x43B6 JUMPI PUSH2 0x4399 PUSH1 0x15 SLOAD PUSH1 0xB SLOAD PUSH1 0xE SLOAD PUSH2 0x516E JUMP JUMPDEST PUSH1 0x10 PUSH1 0x0 DUP3 DUP3 SLOAD PUSH2 0x43AA SWAP2 SWAP1 PUSH2 0x60A2 JUMP JUMPDEST SWAP3 POP POP DUP2 SWAP1 SSTORE POP PUSH2 0x43F9 JUMP JUMPDEST DUP6 PUSH1 0x13 PUSH1 0x0 DUP3 DUP3 SLOAD PUSH2 0x43C8 SWAP2 SWAP1 PUSH2 0x60A2 JUMP JUMPDEST SWAP3 POP POP DUP2 SWAP1 SSTORE POP PUSH2 0x43E0 PUSH1 0x15 SLOAD PUSH1 0xB SLOAD PUSH1 0xE SLOAD PUSH2 0x516E JUMP JUMPDEST PUSH1 0x14 PUSH1 0x0 DUP3 DUP3 SLOAD PUSH2 0x43F1 SWAP2 SWAP1 PUSH2 0x62F4 JUMP JUMPDEST SWAP3 POP POP DUP2 SWAP1 SSTORE POP JUMPDEST PUSH1 0x0 SWAP3 POP JUMPDEST POP POP PUSH2 0x413C JUMP JUMPDEST POP PUSH1 0x1 PUSH1 0x2F DUP2 SWAP1 SSTORE POP SWAP3 SWAP2 POP POP JUMP JUMPDEST PUSH1 0x0 PUSH1 0x1 PUSH1 0x2F SLOAD EQ PUSH2 0x445B JUMPI PUSH1 0x40 MLOAD PUSH32 0x8C379A000000000000000000000000000000000000000000000000000000000 DUP2 MSTORE PUSH1 0x4 ADD PUSH2 0x4452 SWAP1 PUSH2 0x5FE6 JUMP JUMPDEST PUSH1 0x40 MLOAD DUP1 SWAP2 SUB SWAP1 REVERT JUMPDEST PUSH1 0x0 PUSH1 0x2F DUP2 SWAP1 SSTORE POP PUSH1 0x0 PUSH1 0x1 SWAP1 POP JUMPDEST PUSH1 0x1 ISZERO ISZERO DUP2 ISZERO ISZERO EQ ISZERO PUSH2 0x4723 JUMPI PUSH1 0x0 PUSH2 0x448A PUSH1 0x9 SLOAD PUSH1 0x18 SLOAD PUSH1 0x2C SLOAD PUSH2 0x40C4 JUMP JUMPDEST SWAP1 POP PUSH1 0x0 PUSH2 0x44A0 PUSH1 0x5 SLOAD PUSH1 0x6 SLOAD PUSH1 0x7 SLOAD DUP6 PUSH2 0x506E JUMP JUMPDEST SWAP1 POP PUSH2 0x44B1 PUSH1 0xC SLOAD DUP3 PUSH1 0xD SLOAD PUSH2 0x516E JUMP JUMPDEST DUP8 GT ISZERO PUSH2 0x4638 JUMPI PUSH2 0x44C7 DUP3 PUSH1 0xB SLOAD PUSH1 0xE SLOAD PUSH2 0x516E JUMP JUMPDEST DUP5 PUSH2 0x44D2 SWAP2 SWAP1 PUSH2 0x60A2 JUMP JUMPDEST SWAP4 POP PUSH2 0x44E3 PUSH1 0xC SLOAD DUP3 PUSH1 0xD SLOAD PUSH2 0x516E JUMP JUMPDEST DUP8 PUSH2 0x44EE SWAP2 SWAP1 PUSH2 0x62F4 JUMP JUMPDEST SWAP7 POP PUSH1 0x1 ISZERO ISZERO DUP6 ISZERO ISZERO EQ ISZERO PUSH2 0x4529 JUMPI PUSH2 0x450C PUSH1 0xC SLOAD DUP3 PUSH1 0xD SLOAD PUSH2 0x516E JUMP JUMPDEST PUSH1 0xF PUSH1 0x0 DUP3 DUP3 SLOAD PUSH2 0x451D SWAP2 SWAP1 PUSH2 0x60A2 JUMP JUMPDEST SWAP3 POP POP DUP2 SWAP1 SSTORE POP PUSH2 0x4578 JUMP JUMPDEST PUSH2 0x4538 DUP3 PUSH1 0xB SLOAD PUSH1 0xE SLOAD PUSH2 0x516E JUMP JUMPDEST PUSH1 0x14 PUSH1 0x0 DUP3 DUP3 SLOAD PUSH2 0x4549 SWAP2 SWAP1 PUSH2 0x60A2 JUMP JUMPDEST SWAP3 POP POP DUP2 SWAP1 SSTORE POP PUSH2 0x455F PUSH1 0xC SLOAD DUP3 PUSH1 0xD SLOAD PUSH2 0x516E JUMP JUMPDEST PUSH1 0x13 PUSH1 0x0 DUP3 DUP3 SLOAD PUSH2 0x4570 SWAP2 SWAP1 PUSH2 0x62F4 JUMP JUMPDEST SWAP3 POP POP DUP2 SWAP1 SSTORE POP JUMPDEST PUSH2 0x4587 PUSH1 0xD SLOAD PUSH1 0xA SLOAD DUP4 PUSH2 0x40C4 JUMP JUMPDEST PUSH1 0xD DUP2 SWAP1 SSTORE POP PUSH2 0x459C PUSH1 0xE SLOAD PUSH1 0x9 SLOAD DUP5 PUSH2 0x40C4 JUMP JUMPDEST PUSH1 0xE DUP2 SWAP1 SSTORE POP PUSH2 0x45C5 PUSH2 0x45B8 PUSH1 0x5 SLOAD PUSH1 0x6 SLOAD PUSH1 0x7 SLOAD DUP7 DUP7 PUSH2 0x51A3 JUMP JUMPDEST DUP3 PUSH1 0x9 SLOAD DUP6 PUSH1 0xA SLOAD PUSH2 0x408A JUMP JUMPDEST PUSH1 0x17 DUP2 SWAP1 SSTORE POP PUSH1 0x9 SLOAD PUSH1 0xB DUP2 SWAP1 SSTORE POP PUSH1 0xA SLOAD PUSH1 0xC DUP2 SWAP1 SSTORE POP PUSH2 0x45F1 PUSH1 0xB SLOAD PUSH1 0xC SLOAD PUSH1 0x7 SLOAD PUSH1 0x17 SLOAD PUSH2 0x5297 JUMP JUMPDEST PUSH1 0x5 DUP2 SWAP1 SSTORE POP PUSH1 0x5 SLOAD PUSH1 0x2C SLOAD PUSH1 0x2 PUSH2 0x4609 SWAP2 SWAP1 PUSH2 0x629A JUMP JUMPDEST PUSH2 0x4613 SWAP2 SWAP1 PUSH2 0x62F4 JUMP JUMPDEST PUSH1 0x6 DUP2 SWAP1 SSTORE POP PUSH2 0x4621 PUSH2 0x4BA0 JUMP JUMPDEST PUSH1 0x9 SLOAD PUSH1 0xB DUP2 SWAP1 SSTORE POP PUSH1 0xA SLOAD PUSH1 0xC DUP2 SWAP1 SSTORE POP PUSH2 0x471C JUMP JUMPDEST PUSH1 0xB SLOAD PUSH1 0x15 DUP2 SWAP1 SSTORE POP PUSH1 0xC SLOAD PUSH1 0x16 DUP2 SWAP1 SSTORE POP PUSH2 0x4659 DUP8 PUSH1 0xD SLOAD PUSH1 0x2C SLOAD PUSH2 0x40C4 JUMP JUMPDEST PUSH1 0xC PUSH1 0x0 DUP3 DUP3 SLOAD PUSH2 0x466A SWAP2 SWAP1 PUSH2 0x62F4 JUMP JUMPDEST SWAP3 POP POP DUP2 SWAP1 SSTORE POP PUSH2 0x4685 PUSH1 0x5 SLOAD PUSH1 0x6 SLOAD PUSH1 0x7 SLOAD PUSH1 0xC SLOAD PUSH2 0x53D1 JUMP JUMPDEST PUSH1 0xB DUP2 SWAP1 SSTORE POP PUSH2 0x469C PUSH1 0xB SLOAD PUSH1 0x15 SLOAD PUSH1 0xE SLOAD PUSH2 0x516E JUMP JUMPDEST DUP5 PUSH2 0x46A7 SWAP2 SWAP1 PUSH2 0x60A2 JUMP JUMPDEST SWAP4 POP PUSH1 0x1 ISZERO ISZERO DUP6 ISZERO ISZERO EQ ISZERO PUSH2 0x46D4 JUMPI DUP7 PUSH1 0xF PUSH1 0x0 DUP3 DUP3 SLOAD PUSH2 0x46C8 SWAP2 SWAP1 PUSH2 0x60A2 JUMP JUMPDEST SWAP3 POP POP DUP2 SWAP1 SSTORE POP PUSH2 0x4717 JUMP JUMPDEST PUSH2 0x46E5 PUSH1 0xB SLOAD PUSH1 0x15 SLOAD PUSH1 0xE SLOAD PUSH2 0x516E JUMP JUMPDEST PUSH1 0x14 PUSH1 0x0 DUP3 DUP3 SLOAD PUSH2 0x46F6 SWAP2 SWAP1 PUSH2 0x60A2 JUMP JUMPDEST SWAP3 POP POP DUP2 SWAP1 SSTORE POP DUP7 PUSH1 0x13 PUSH1 0x0 DUP3 DUP3 SLOAD PUSH2 0x470F SWAP2 SWAP1 PUSH2 0x62F4 JUMP JUMPDEST SWAP3 POP POP DUP2 SWAP1 SSTORE POP JUMPDEST PUSH1 0x0 SWAP3 POP JUMPDEST POP POP PUSH2 0x446A JUMP JUMPDEST PUSH1 0x0 ISZERO ISZERO DUP4 ISZERO ISZERO EQ ISZERO PUSH2 0x473D JUMPI DUP2 DUP5 GT PUSH2 0x473C JUMPI PUSH1 0x0 DUP1 REVERT JUMPDEST JUMPDEST POP PUSH1 0x1 PUSH1 0x2F DUP2 SWAP1 SSTORE POP SWAP4 SWAP3 POP POP POP JUMP JUMPDEST PUSH1 0x0 PUSH1 0x1 PUSH1 0x2F SLOAD EQ PUSH2 0x4794 JUMPI PUSH1 0x40 MLOAD PUSH32 0x8C379A000000000000000000000000000000000000000000000000000000000 DUP2 MSTORE PUSH1 0x4 ADD PUSH2 0x478B SWAP1 PUSH2 0x5FE6 JUMP JUMPDEST PUSH1 0x40 MLOAD DUP1 SWAP2 SUB SWAP1 REVERT JUMPDEST PUSH1 0x0 PUSH1 0x2F DUP2 SWAP1 SSTORE POP PUSH1 0x0 PUSH1 0x1 SWAP1 POP JUMPDEST PUSH1 0x1 ISZERO ISZERO DUP2 ISZERO ISZERO EQ ISZERO PUSH2 0x4A5C JUMPI PUSH1 0x0 PUSH2 0x47C3 PUSH1 0xA SLOAD PUSH1 0x18 SLOAD PUSH1 0x2C SLOAD PUSH2 0x40C4 JUMP JUMPDEST SWAP1 POP PUSH1 0x0 PUSH2 0x47D9 PUSH1 0x5 SLOAD PUSH1 0x6 SLOAD PUSH1 0x7 SLOAD DUP6 PUSH2 0x53D1 JUMP JUMPDEST SWAP1 POP PUSH2 0x47EA PUSH1 0xB SLOAD DUP3 PUSH1 0xE SLOAD PUSH2 0x516E JUMP JUMPDEST DUP8 GT ISZERO PUSH2 0x4971 JUMPI PUSH2 0x4800 DUP3 PUSH1 0xC SLOAD PUSH1 0xD SLOAD PUSH2 0x516E JUMP JUMPDEST DUP5 PUSH2 0x480B SWAP2 SWAP1 PUSH2 0x60A2 JUMP JUMPDEST SWAP4 POP PUSH2 0x481C PUSH1 0xB SLOAD DUP3 PUSH1 0xE SLOAD PUSH2 0x516E JUMP JUMPDEST DUP8 PUSH2 0x4827 SWAP2 SWAP1 PUSH2 0x62F4 JUMP JUMPDEST SWAP7 POP PUSH1 0x1 ISZERO ISZERO DUP6 ISZERO ISZERO EQ ISZERO PUSH2 0x4862 JUMPI PUSH2 0x4845 PUSH1 0xB SLOAD DUP3 PUSH1 0xE SLOAD PUSH2 0x516E JUMP JUMPDEST PUSH1 0x10 PUSH1 0x0 DUP3 DUP3 SLOAD PUSH2 0x4856 SWAP2 SWAP1 PUSH2 0x60A2 JUMP JUMPDEST SWAP3 POP POP DUP2 SWAP1 SSTORE POP PUSH2 0x48B1 JUMP JUMPDEST PUSH2 0x4871 DUP3 PUSH1 0xC SLOAD PUSH1 0xD SLOAD PUSH2 0x516E JUMP JUMPDEST PUSH1 0x13 PUSH1 0x0 DUP3 DUP3 SLOAD PUSH2 0x4882 SWAP2 SWAP1 PUSH2 0x60A2 JUMP JUMPDEST SWAP3 POP POP DUP2 SWAP1 SSTORE POP PUSH2 0x4898 PUSH1 0xB SLOAD DUP3 PUSH1 0xE SLOAD PUSH2 0x516E JUMP JUMPDEST PUSH1 0x14 PUSH1 0x0 DUP3 DUP3 SLOAD PUSH2 0x48A9 SWAP2 SWAP1 PUSH2 0x62F4 JUMP JUMPDEST SWAP3 POP POP DUP2 SWAP1 SSTORE POP JUMPDEST PUSH2 0x48C0 PUSH1 0xD SLOAD PUSH1 0xA SLOAD DUP5 PUSH2 0x40C4 JUMP JUMPDEST PUSH1 0xD DUP2 SWAP1 SSTORE POP PUSH2 0x48D5 PUSH1 0xE SLOAD PUSH1 0x9 SLOAD DUP4 PUSH2 0x40C4 JUMP JUMPDEST PUSH1 0xE DUP2 SWAP1 SSTORE POP PUSH2 0x48FE PUSH2 0x48F1 PUSH1 0x5 SLOAD PUSH1 0x6 SLOAD PUSH1 0x7 SLOAD DUP6 DUP8 PUSH2 0x51A3 JUMP JUMPDEST DUP4 PUSH1 0x9 SLOAD DUP5 PUSH1 0xA SLOAD PUSH2 0x408A JUMP JUMPDEST PUSH1 0x17 DUP2 SWAP1 SSTORE POP PUSH1 0x9 SLOAD PUSH1 0xB DUP2 SWAP1 SSTORE POP PUSH1 0xA SLOAD PUSH1 0xC DUP2 SWAP1 SSTORE POP PUSH2 0x492A PUSH1 0xB SLOAD PUSH1 0xC SLOAD PUSH1 0x7 SLOAD PUSH1 0x17 SLOAD PUSH2 0x5297 JUMP JUMPDEST PUSH1 0x5 DUP2 SWAP1 SSTORE POP PUSH1 0x5 SLOAD PUSH1 0x2C SLOAD PUSH1 0x2 PUSH2 0x4942 SWAP2 SWAP1 PUSH2 0x629A JUMP JUMPDEST PUSH2 0x494C SWAP2 SWAP1 PUSH2 0x62F4 JUMP JUMPDEST PUSH1 0x6 DUP2 SWAP1 SSTORE POP PUSH2 0x495A PUSH2 0x4BA0 JUMP JUMPDEST PUSH1 0x9 SLOAD PUSH1 0xB DUP2 SWAP1 SSTORE POP PUSH1 0xA SLOAD PUSH1 0xC DUP2 SWAP1 SSTORE POP PUSH2 0x4A55 JUMP JUMPDEST PUSH1 0xB SLOAD PUSH1 0x15 DUP2 SWAP1 SSTORE POP PUSH1 0xC SLOAD PUSH1 0x16 DUP2 SWAP1 SSTORE POP PUSH2 0x4992 DUP8 PUSH1 0xE SLOAD PUSH1 0x2C SLOAD PUSH2 0x40C4 JUMP JUMPDEST PUSH1 0xB PUSH1 0x0 DUP3 DUP3 SLOAD PUSH2 0x49A3 SWAP2 SWAP1 PUSH2 0x62F4 JUMP JUMPDEST SWAP3 POP POP DUP2 SWAP1 SSTORE POP PUSH2 0x49BE PUSH1 0x5 SLOAD PUSH1 0x6 SLOAD PUSH1 0x7 SLOAD PUSH1 0xB SLOAD PUSH2 0x506E JUMP JUMPDEST PUSH1 0xC DUP2 SWAP1 SSTORE POP PUSH2 0x49D5 PUSH1 0xC SLOAD PUSH1 0x16 SLOAD PUSH1 0xD SLOAD PUSH2 0x516E JUMP JUMPDEST DUP5 PUSH2 0x49E0 SWAP2 SWAP1 PUSH2 0x60A2 JUMP JUMPDEST SWAP4 POP PUSH1 0x1 ISZERO ISZERO DUP6 ISZERO ISZERO EQ ISZERO PUSH2 0x4A0D JUMPI DUP7 PUSH1 0x10 PUSH1 0x0 DUP3 DUP3 SLOAD PUSH2 0x4A01 SWAP2 SWAP1 PUSH2 0x60A2 JUMP JUMPDEST SWAP3 POP POP DUP2 SWAP1 SSTORE POP PUSH2 0x4A50 JUMP JUMPDEST PUSH2 0x4A1E PUSH1 0xC SLOAD PUSH1 0x16 SLOAD PUSH1 0xD SLOAD PUSH2 0x516E JUMP JUMPDEST PUSH1 0x13 PUSH1 0x0 DUP3 DUP3 SLOAD PUSH2 0x4A2F SWAP2 SWAP1 PUSH2 0x60A2 JUMP JUMPDEST SWAP3 POP POP DUP2 SWAP1 SSTORE POP DUP7 PUSH1 0x14 PUSH1 0x0 DUP3 DUP3 SLOAD PUSH2 0x4A48 SWAP2 SWAP1 PUSH2 0x62F4 JUMP JUMPDEST SWAP3 POP POP DUP2 SWAP1 SSTORE POP JUMPDEST PUSH1 0x0 SWAP3 POP JUMPDEST POP POP PUSH2 0x47A3 JUMP JUMPDEST PUSH1 0x0 ISZERO ISZERO DUP4 ISZERO ISZERO EQ ISZERO PUSH2 0x4A76 JUMPI DUP2 DUP5 GT PUSH2 0x4A75 JUMPI PUSH1 0x0 DUP1 REVERT JUMPDEST JUMPDEST POP PUSH1 0x1 PUSH1 0x2F DUP2 SWAP1 SSTORE POP SWAP4 SWAP3 POP POP POP JUMP JUMPDEST PUSH2 0x4A9B DUP2 PUSH1 0x0 SLOAD PUSH2 0x4ECF SWAP1 SWAP2 SWAP1 PUSH4 0xFFFFFFFF AND JUMP JUMPDEST PUSH1 0x0 DUP2 SWAP1 SSTORE POP PUSH2 0x4AF3 DUP2 PUSH1 0x1 PUSH1 0x0 DUP6 PUSH20 0xFFFFFFFFFFFFFFFFFFFFFFFFFFFFFFFFFFFFFFFF AND PUSH20 0xFFFFFFFFFFFFFFFFFFFFFFFFFFFFFFFFFFFFFFFF AND DUP2 MSTORE PUSH1 0x20 ADD SWAP1 DUP2 MSTORE PUSH1 0x20 ADD PUSH1 0x0 KECCAK256 SLOAD PUSH2 0x4ECF SWAP1 SWAP2 SWAP1 PUSH4 0xFFFFFFFF AND JUMP JUMPDEST PUSH1 0x1 PUSH1 0x0 DUP5 PUSH20 0xFFFFFFFFFFFFFFFFFFFFFFFFFFFFFFFFFFFFFFFF AND PUSH20 0xFFFFFFFFFFFFFFFFFFFFFFFFFFFFFFFFFFFFFFFF AND DUP2 MSTORE PUSH1 0x20 ADD SWAP1 DUP2 MSTORE PUSH1 0x20 ADD PUSH1 0x0 KECCAK256 DUP2 SWAP1 SSTORE POP DUP2 PUSH20 0xFFFFFFFFFFFFFFFFFFFFFFFFFFFFFFFFFFFFFFFF AND PUSH1 0x0 PUSH20 0xFFFFFFFFFFFFFFFFFFFFFFFFFFFFFFFFFFFFFFFF AND PUSH32 0xDDF252AD1BE2C89B69C2B068FC378DAA952BA7F163C4A11628F55A4DF523B3EF DUP4 PUSH1 0x40 MLOAD PUSH2 0x4B94 SWAP2 SWAP1 PUSH2 0x6006 JUMP JUMPDEST PUSH1 0x40 MLOAD DUP1 SWAP2 SUB SWAP1 LOG3 POP POP JUMP JUMPDEST PUSH2 0x4BC0 PUSH1 0x14 SLOAD PUSH1 0x5 SLOAD PUSH1 0xE SLOAD PUSH1 0x13 SLOAD PUSH1 0x6 SLOAD PUSH1 0xD SLOAD PUSH1 0x12 SLOAD PUSH1 0x11 SLOAD PUSH2 0x54D1 JUMP JUMPDEST PUSH1 0x23 DUP2 SWAP1 SSTORE POP PUSH1 0x2C SLOAD PUSH1 0x23 SLOAD PUSH1 0x8 SLOAD PUSH2 0x4BD9 SWAP2 SWAP1 PUSH2 0x629A JUMP JUMPDEST PUSH2 0x4BE3 SWAP2 SWAP1 PUSH2 0x60F8 JUMP JUMPDEST PUSH1 0x7 DUP2 SWAP1 SSTORE POP PUSH1 0x2 PUSH1 0x7 SLOAD PUSH2 0x4BF8 SWAP2 SWAP1 PUSH2 0x60F8 JUMP JUMPDEST PUSH1 0x9 DUP2 SWAP1 SSTORE POP PUSH1 0x9 SLOAD PUSH1 0xA DUP2 SWAP1 SSTORE POP PUSH1 0x23 SLOAD PUSH1 0x24 DUP2 SWAP1 SSTORE POP JUMP JUMPDEST PUSH2 0x4C64 DUP2 PUSH1 0x1 PUSH1 0x0 DUP6 PUSH20 0xFFFFFFFFFFFFFFFFFFFFFFFFFFFFFFFFFFFFFFFF AND PUSH20 0xFFFFFFFFFFFFFFFFFFFFFFFFFFFFFFFFFFFFFFFF AND DUP2 MSTORE PUSH1 0x20 ADD SWAP1 DUP2 MSTORE PUSH1 0x20 ADD PUSH1 0x0 KECCAK256 SLOAD PUSH2 0x375B SWAP1 SWAP2 SWAP1 PUSH4 0xFFFFFFFF AND JUMP JUMPDEST PUSH1 0x1 PUSH1 0x0 DUP5 PUSH20 0xFFFFFFFFFFFFFFFFFFFFFFFFFFFFFFFFFFFFFFFF AND PUSH20 0xFFFFFFFFFFFFFFFFFFFFFFFFFFFFFFFFFFFFFFFF AND DUP2 MSTORE PUSH1 0x20 ADD SWAP1 DUP2 MSTORE PUSH1 0x20 ADD PUSH1 0x0 KECCAK256 DUP2 SWAP1 SSTORE POP PUSH2 0x4CBC DUP2 PUSH1 0x0 SLOAD PUSH2 0x375B SWAP1 SWAP2 SWAP1 PUSH4 0xFFFFFFFF AND JUMP JUMPDEST PUSH1 0x0 DUP2 SWAP1 SSTORE POP PUSH1 0x0 PUSH20 0xFFFFFFFFFFFFFFFFFFFFFFFFFFFFFFFFFFFFFFFF AND DUP3 PUSH20 0xFFFFFFFFFFFFFFFFFFFFFFFFFFFFFFFFFFFFFFFF AND PUSH32 0xDDF252AD1BE2C89B69C2B068FC378DAA952BA7F163C4A11628F55A4DF523B3EF DUP4 PUSH1 0x40 MLOAD PUSH2 0x4D20 SWAP2 SWAP1 PUSH2 0x6006 JUMP JUMPDEST PUSH1 0x40 MLOAD DUP1 SWAP2 SUB SWAP1 LOG3 POP POP JUMP JUMPDEST PUSH1 0x0 DUP1 DUP5 PUSH20 0xFFFFFFFFFFFFFFFFFFFFFFFFFFFFFFFFFFFFFFFF AND PUSH1 0x40 MLOAD DUP1 PUSH1 0x40 ADD PUSH1 0x40 MSTORE DUP1 PUSH1 0x19 DUP2 MSTORE PUSH1 0x20 ADD PUSH32 0x7472616E7366657228616464726573732C75696E743235362900000000000000 DUP2 MSTORE POP DUP1 MLOAD SWAP1 PUSH1 0x20 ADD KECCAK256 DUP6 DUP6 PUSH1 0x40 MLOAD PUSH1 0x24 ADD PUSH2 0x4D96 SWAP3 SWAP2 SWAP1 PUSH2 0x5DFF JUMP JUMPDEST PUSH1 0x40 MLOAD PUSH1 0x20 DUP2 DUP4 SUB SUB DUP2 MSTORE SWAP1 PUSH1 0x40 MSTORE SWAP1 PUSH28 0xFFFFFFFFFFFFFFFFFFFFFFFFFFFFFFFFFFFFFFFFFFFFFFFFFFFFFFFF NOT AND PUSH1 0x20 DUP3 ADD DUP1 MLOAD PUSH28 0xFFFFFFFFFFFFFFFFFFFFFFFFFFFFFFFFFFFFFFFFFFFFFFFFFFFFFFFF DUP4 DUP2 DUP4 AND OR DUP4 MSTORE POP POP POP POP PUSH1 0x40 MLOAD PUSH2 0x4E00 SWAP2 SWAP1 PUSH2 0x5D51 JUMP JUMPDEST PUSH1 0x0 PUSH1 0x40 MLOAD DUP1 DUP4 SUB DUP2 PUSH1 0x0 DUP7 GAS CALL SWAP2 POP POP RETURNDATASIZE DUP1 PUSH1 0x0 DUP2 EQ PUSH2 0x4E3D JUMPI PUSH1 0x40 MLOAD SWAP2 POP PUSH1 0x1F NOT PUSH1 0x3F RETURNDATASIZE ADD AND DUP3 ADD PUSH1 0x40 MSTORE RETURNDATASIZE DUP3 MSTORE RETURNDATASIZE PUSH1 0x0 PUSH1 0x20 DUP5 ADD RETURNDATACOPY PUSH2 0x4E42 JUMP JUMPDEST PUSH1 0x60 SWAP2 POP JUMPDEST POP SWAP2 POP SWAP2 POP DUP2 DUP1 ISZERO PUSH2 0x4E70 JUMPI POP PUSH1 0x0 DUP2 MLOAD EQ DUP1 PUSH2 0x4E6F JUMPI POP DUP1 DUP1 PUSH1 0x20 ADD SWAP1 MLOAD DUP2 ADD SWAP1 PUSH2 0x4E6E SWAP2 SWAP1 PUSH2 0x59EC JUMP JUMPDEST JUMPDEST JUMPDEST PUSH2 0x4EAF JUMPI PUSH1 0x40 MLOAD PUSH32 0x8C379A000000000000000000000000000000000000000000000000000000000 DUP2 MSTORE PUSH1 0x4 ADD PUSH2 0x4EA6 SWAP1 PUSH2 0x5FA6 JUMP JUMPDEST PUSH1 0x40 MLOAD DUP1 SWAP2 SUB SWAP1 REVERT JUMPDEST POP POP POP POP POP JUMP JUMPDEST PUSH1 0x0 DUP2 DUP4 GT PUSH2 0x4EC5 JUMPI DUP2 PUSH2 0x4EC7 JUMP JUMPDEST DUP3 JUMPDEST SWAP1 POP SWAP3 SWAP2 POP POP JUMP JUMPDEST PUSH1 0x0 DUP3 DUP3 DUP5 PUSH2 0x4EDE SWAP2 SWAP1 PUSH2 0x60A2 JUMP JUMPDEST SWAP2 POP DUP2 LT ISZERO PUSH2 0x4F22 JUMPI PUSH1 0x40 MLOAD PUSH32 0x8C379A000000000000000000000000000000000000000000000000000000000 DUP2 MSTORE PUSH1 0x4 ADD PUSH2 0x4F19 SWAP1 PUSH2 0x5F66 JUMP JUMPDEST PUSH1 0x40 MLOAD DUP1 SWAP2 SUB SWAP1 REVERT JUMPDEST SWAP3 SWAP2 POP POP JUMP JUMPDEST PUSH1 0x0 DUP1 PUSH1 0x0 PUSH2 0x4F40 DUP13 DUP12 PUSH8 0xDE0B6B3A7640000 PUSH2 0x40C4 JUMP JUMPDEST SWAP1 POP PUSH1 0x0 PUSH2 0x4F57 DUP13 DUP12 PUSH8 0xDE0B6B3A7640000 PUSH2 0x40C4 JUMP JUMPDEST SWAP1 POP PUSH1 0x0 PUSH2 0x4F66 DUP4 DUP4 DUP9 PUSH2 0x5531 JUMP JUMPDEST SWAP1 POP PUSH1 0x0 DUP2 PUSH8 0x1BC16D674EC80000 PUSH2 0x4F7E SWAP2 SWAP1 PUSH2 0x62F4 JUMP JUMPDEST SWAP1 POP PUSH2 0x4F97 PUSH2 0x4F90 DUP4 DUP4 DUP11 DUP9 DUP9 PUSH2 0x51A3 JUMP JUMPDEST DUP14 DUP16 PUSH2 0x40C4 JUMP JUMPDEST SWAP6 POP PUSH2 0x4FB0 PUSH2 0x4FA9 DUP11 DUP11 DUP11 DUP16 DUP16 PUSH2 0x51A3 JUMP JUMPDEST DUP14 DUP16 PUSH2 0x40C4 JUMP JUMPDEST SWAP5 POP POP POP POP POP SWAP10 POP SWAP10 SWAP8 POP POP POP POP POP POP POP POP JUMP JUMPDEST PUSH1 0x0 DUP1 DUP10 DUP10 GT ISZERO PUSH2 0x5007 JUMPI PUSH2 0x4FDA DUP8 DUP5 DUP9 PUSH2 0x55B5 JUMP JUMPDEST PUSH2 0x1680 PUSH2 0x4FE8 DUP12 DUP14 DUP15 PUSH2 0x516E JUMP JUMPDEST PUSH2 0x4FF2 SWAP2 SWAP1 PUSH2 0x60F8 JUMP JUMPDEST PUSH2 0x4FFC SWAP2 SWAP1 PUSH2 0x60A2 JUMP JUMPDEST SWAP2 POP PUSH1 0x0 SWAP1 POP PUSH2 0x503B JUMP JUMPDEST PUSH2 0x5012 DUP9 DUP6 DUP9 PUSH2 0x55B5 JUMP JUMPDEST PUSH2 0x1680 PUSH2 0x5020 DUP13 DUP13 DUP15 PUSH2 0x516E JUMP JUMPDEST PUSH2 0x502A SWAP2 SWAP1 PUSH2 0x60F8 JUMP JUMPDEST PUSH2 0x5034 SWAP2 SWAP1 PUSH2 0x60A2 JUMP JUMPDEST SWAP2 POP PUSH1 0x1 SWAP1 POP JUMPDEST DUP5 PUSH2 0x780 DUP4 PUSH2 0x504A SWAP2 SWAP1 PUSH2 0x629A JUMP JUMPDEST GT ISZERO PUSH2 0x5061 JUMPI PUSH2 0x780 DUP6 PUSH2 0x505E SWAP2 SWAP1 PUSH2 0x60F8 JUMP JUMPDEST SWAP2 POP JUMPDEST SWAP9 POP SWAP9 SWAP7 POP POP POP POP POP POP POP JUMP JUMPDEST PUSH1 0x0 DUP2 DUP5 PUSH1 0x8 PUSH2 0x507E SWAP2 SWAP1 PUSH2 0x629A JUMP JUMPDEST PUSH2 0x5088 SWAP2 SWAP1 PUSH2 0x629A JUMP JUMPDEST PUSH2 0x5121 PUSH8 0xDE0B6B3A7640000 DUP6 DUP7 DUP8 PUSH2 0x50A1 SWAP2 SWAP1 PUSH2 0x629A JUMP JUMPDEST PUSH2 0x50AB SWAP2 SWAP1 PUSH2 0x629A JUMP JUMPDEST PUSH1 0x0 PUSH2 0x50B7 SWAP2 SWAP1 PUSH2 0x62F4 JUMP JUMPDEST DUP6 DUP9 PUSH1 0x10 PUSH2 0x50C5 SWAP2 SWAP1 PUSH2 0x629A JUMP JUMPDEST PUSH2 0x50CF SWAP2 SWAP1 PUSH2 0x629A JUMP JUMPDEST PUSH2 0x50D9 SWAP2 SWAP1 PUSH2 0x629A JUMP JUMPDEST PUSH2 0x50E3 SWAP2 SWAP1 PUSH2 0x629A JUMP JUMPDEST PUSH1 0x2 DUP6 DUP7 DUP11 PUSH1 0x4 PUSH2 0x50F4 SWAP2 SWAP1 PUSH2 0x629A JUMP JUMPDEST PUSH2 0x50FE SWAP2 SWAP1 PUSH2 0x629A JUMP JUMPDEST PUSH2 0x5108 SWAP2 SWAP1 PUSH2 0x629A JUMP JUMPDEST PUSH2 0x5112 SWAP2 SWAP1 PUSH2 0x617C JUMP JUMPDEST PUSH2 0x511C SWAP2 SWAP1 PUSH2 0x62F4 JUMP JUMPDEST PUSH2 0x5602 JUMP JUMPDEST DUP4 DUP5 DUP9 PUSH1 0x4 PUSH2 0x5130 SWAP2 SWAP1 PUSH2 0x629A JUMP JUMPDEST PUSH2 0x513A SWAP2 SWAP1 PUSH2 0x629A JUMP JUMPDEST PUSH2 0x5144 SWAP2 SWAP1 PUSH2 0x629A JUMP JUMPDEST PUSH1 0x0 PUSH2 0x5150 SWAP2 SWAP1 PUSH2 0x62F4 JUMP JUMPDEST PUSH2 0x515A SWAP2 SWAP1 PUSH2 0x60A2 JUMP JUMPDEST PUSH2 0x5164 SWAP2 SWAP1 PUSH2 0x60F8 JUMP JUMPDEST SWAP1 POP SWAP5 SWAP4 POP POP POP POP JUMP JUMPDEST PUSH1 0x0 DUP2 PUSH8 0xDE0B6B3A7640000 DUP5 DUP7 PUSH2 0x5186 SWAP2 SWAP1 PUSH2 0x62F4 JUMP JUMPDEST PUSH2 0x5190 SWAP2 SWAP1 PUSH2 0x629A JUMP JUMPDEST PUSH2 0x519A SWAP2 SWAP1 PUSH2 0x60F8 JUMP JUMPDEST SWAP1 POP SWAP4 SWAP3 POP POP POP JUMP JUMPDEST PUSH1 0x0 DUP2 DUP5 DUP6 DUP7 PUSH2 0x51B3 SWAP2 SWAP1 PUSH2 0x629A JUMP JUMPDEST PUSH2 0x51BD SWAP2 SWAP1 PUSH2 0x629A JUMP JUMPDEST PUSH2 0x51C7 SWAP2 SWAP1 PUSH2 0x629A JUMP JUMPDEST DUP3 DUP4 DUP6 DUP7 DUP11 PUSH1 0x4 PUSH2 0x51D8 SWAP2 SWAP1 PUSH2 0x629A JUMP JUMPDEST PUSH2 0x51E2 SWAP2 SWAP1 PUSH2 0x629A JUMP JUMPDEST PUSH2 0x51EC SWAP2 SWAP1 PUSH2 0x629A JUMP JUMPDEST PUSH2 0x51F6 SWAP2 SWAP1 PUSH2 0x629A JUMP JUMPDEST PUSH2 0x5200 SWAP2 SWAP1 PUSH2 0x629A JUMP JUMPDEST PUSH2 0x520A SWAP2 SWAP1 PUSH2 0x60A2 JUMP JUMPDEST PUSH8 0xDE0B6B3A7640000 DUP5 DUP7 DUP8 DUP9 PUSH2 0x5221 SWAP2 SWAP1 PUSH2 0x629A JUMP JUMPDEST PUSH2 0x522B SWAP2 SWAP1 PUSH2 0x629A JUMP JUMPDEST PUSH2 0x5235 SWAP2 SWAP1 PUSH2 0x629A JUMP JUMPDEST DUP5 DUP6 DUP8 DUP9 DUP12 PUSH1 0x4 PUSH2 0x5246 SWAP2 SWAP1 PUSH2 0x629A JUMP JUMPDEST PUSH2 0x5250 SWAP2 SWAP1 PUSH2 0x629A JUMP JUMPDEST PUSH2 0x525A SWAP2 SWAP1 PUSH2 0x629A JUMP JUMPDEST PUSH2 0x5264 SWAP2 SWAP1 PUSH2 0x629A JUMP JUMPDEST PUSH2 0x526E SWAP2 SWAP1 PUSH2 0x629A JUMP JUMPDEST PUSH2 0x5278 SWAP2 SWAP1 PUSH2 0x60A2 JUMP JUMPDEST PUSH2 0x5282 SWAP2 SWAP1 PUSH2 0x629A JUMP JUMPDEST PUSH2 0x528C SWAP2 SWAP1 PUSH2 0x60F8 JUMP JUMPDEST SWAP1 POP SWAP6 SWAP5 POP POP POP POP POP JUMP JUMPDEST PUSH1 0x0 DUP2 PUSH8 0xDE0B6B3A7640000 PUSH2 0x52AD SWAP2 SWAP1 PUSH2 0x60A2 JUMP JUMPDEST DUP5 DUP6 DUP8 DUP9 PUSH1 0x4 PUSH2 0x52BD SWAP2 SWAP1 PUSH2 0x629A JUMP JUMPDEST PUSH2 0x52C7 SWAP2 SWAP1 PUSH2 0x629A JUMP JUMPDEST PUSH2 0x52D1 SWAP2 SWAP1 PUSH2 0x629A JUMP JUMPDEST PUSH2 0x52DB SWAP2 SWAP1 PUSH2 0x629A JUMP JUMPDEST PUSH2 0x52E5 SWAP2 SWAP1 PUSH2 0x629A JUMP JUMPDEST PUSH8 0xDE0B6B3A7640000 DUP4 DUP7 DUP7 DUP8 DUP9 PUSH2 0x52FD SWAP2 SWAP1 PUSH2 0x629A JUMP JUMPDEST PUSH2 0x5307 SWAP2 SWAP1 PUSH2 0x629A JUMP JUMPDEST PUSH2 0x5311 SWAP2 SWAP1 PUSH2 0x629A JUMP JUMPDEST PUSH2 0x531B SWAP2 SWAP1 PUSH2 0x629A JUMP JUMPDEST PUSH2 0x5325 SWAP2 SWAP1 PUSH2 0x629A JUMP JUMPDEST PUSH15 0xC097CE7BC90715B34B9F1000000000 DUP8 DUP7 DUP8 DUP9 PUSH2 0x5343 SWAP2 SWAP1 PUSH2 0x629A JUMP JUMPDEST PUSH2 0x534D SWAP2 SWAP1 PUSH2 0x629A JUMP JUMPDEST PUSH2 0x5357 SWAP2 SWAP1 PUSH2 0x629A JUMP JUMPDEST PUSH2 0x5361 SWAP2 SWAP1 PUSH2 0x629A JUMP JUMPDEST PUSH15 0xC097CE7BC90715B34B9F1000000000 DUP8 DUP9 DUP11 DUP12 PUSH1 0x8 PUSH2 0x5381 SWAP2 SWAP1 PUSH2 0x629A JUMP JUMPDEST PUSH2 0x538B SWAP2 SWAP1 PUSH2 0x629A JUMP JUMPDEST PUSH2 0x5395 SWAP2 SWAP1 PUSH2 0x629A JUMP JUMPDEST PUSH2 0x539F SWAP2 SWAP1 PUSH2 0x629A JUMP JUMPDEST PUSH2 0x53A9 SWAP2 SWAP1 PUSH2 0x629A JUMP JUMPDEST PUSH2 0x53B3 SWAP2 SWAP1 PUSH2 0x60A2 JUMP JUMPDEST PUSH2 0x53BD SWAP2 SWAP1 PUSH2 0x62F4 JUMP JUMPDEST PUSH2 0x53C7 SWAP2 SWAP1 PUSH2 0x60F8 JUMP JUMPDEST SWAP1 POP SWAP5 SWAP4 POP POP POP POP JUMP JUMPDEST PUSH1 0x0 DUP2 DUP6 PUSH1 0x8 PUSH2 0x53E1 SWAP2 SWAP1 PUSH2 0x629A JUMP JUMPDEST PUSH2 0x53EB SWAP2 SWAP1 PUSH2 0x629A JUMP JUMPDEST PUSH2 0x5484 PUSH8 0xDE0B6B3A7640000 DUP6 DUP7 DUP8 PUSH2 0x5404 SWAP2 SWAP1 PUSH2 0x629A JUMP JUMPDEST PUSH2 0x540E SWAP2 SWAP1 PUSH2 0x629A JUMP JUMPDEST PUSH1 0x0 PUSH2 0x541A SWAP2 SWAP1 PUSH2 0x62F4 JUMP JUMPDEST DUP6 DUP10 PUSH1 0x10 PUSH2 0x5428 SWAP2 SWAP1 PUSH2 0x629A JUMP JUMPDEST PUSH2 0x5432 SWAP2 SWAP1 PUSH2 0x629A JUMP JUMPDEST PUSH2 0x543C SWAP2 SWAP1 PUSH2 0x629A JUMP JUMPDEST PUSH2 0x5446 SWAP2 SWAP1 PUSH2 0x629A JUMP JUMPDEST PUSH1 0x2 DUP6 DUP7 DUP10 PUSH1 0x4 PUSH2 0x5457 SWAP2 SWAP1 PUSH2 0x629A JUMP JUMPDEST PUSH2 0x5461 SWAP2 SWAP1 PUSH2 0x629A JUMP JUMPDEST PUSH2 0x546B SWAP2 SWAP1 PUSH2 0x629A JUMP JUMPDEST PUSH2 0x5475 SWAP2 SWAP1 PUSH2 0x617C JUMP JUMPDEST PUSH2 0x547F SWAP2 SWAP1 PUSH2 0x62F4 JUMP JUMPDEST PUSH2 0x5602 JUMP JUMPDEST DUP4 DUP5 DUP8 PUSH1 0x4 PUSH2 0x5493 SWAP2 SWAP1 PUSH2 0x629A JUMP JUMPDEST PUSH2 0x549D SWAP2 SWAP1 PUSH2 0x629A JUMP JUMPDEST PUSH2 0x54A7 SWAP2 SWAP1 PUSH2 0x629A JUMP JUMPDEST PUSH1 0x0 PUSH2 0x54B3 SWAP2 SWAP1 PUSH2 0x62F4 JUMP JUMPDEST PUSH2 0x54BD SWAP2 SWAP1 PUSH2 0x60A2 JUMP JUMPDEST PUSH2 0x54C7 SWAP2 SWAP1 PUSH2 0x60F8 JUMP JUMPDEST SWAP1 POP SWAP5 SWAP4 POP POP POP POP JUMP JUMPDEST PUSH1 0x0 PUSH2 0x5523 PUSH2 0x54E4 DUP5 DUP11 DUP11 DUP7 DUP11 DUP11 PUSH2 0x567C JUMP JUMPDEST PUSH23 0xA70C3C40A64E6C51999090B65F67D9240000000000000 PUSH2 0x550A DUP13 DUP13 DUP13 DUP13 DUP13 DUP13 PUSH2 0x567C JUMP JUMPDEST PUSH2 0x5514 SWAP2 SWAP1 PUSH2 0x629A JUMP JUMPDEST PUSH2 0x551E SWAP2 SWAP1 PUSH2 0x60F8 JUMP JUMPDEST PUSH2 0x56D8 JUMP JUMPDEST SWAP1 POP SWAP9 SWAP8 POP POP POP POP POP POP POP POP JUMP JUMPDEST PUSH1 0x0 DUP3 DUP5 PUSH2 0x553F SWAP2 SWAP1 PUSH2 0x62F4 JUMP JUMPDEST PUSH8 0xDE0B6B3A7640000 DUP5 PUSH1 0x2 PUSH2 0x5555 SWAP2 SWAP1 PUSH2 0x629A JUMP JUMPDEST DUP6 DUP8 PUSH1 0x4 DUP8 DUP9 DUP10 PUSH2 0x5566 SWAP2 SWAP1 PUSH2 0x629A JUMP JUMPDEST PUSH2 0x5570 SWAP2 SWAP1 PUSH2 0x629A JUMP JUMPDEST PUSH2 0x557A SWAP2 SWAP1 PUSH2 0x60F8 JUMP JUMPDEST PUSH2 0x5584 SWAP2 SWAP1 PUSH2 0x60F8 JUMP JUMPDEST PUSH2 0x558E SWAP2 SWAP1 PUSH2 0x60F8 JUMP JUMPDEST PUSH2 0x5598 SWAP2 SWAP1 PUSH2 0x62F4 JUMP JUMPDEST PUSH2 0x55A2 SWAP2 SWAP1 PUSH2 0x629A JUMP JUMPDEST PUSH2 0x55AC SWAP2 SWAP1 PUSH2 0x60F8 JUMP JUMPDEST SWAP1 POP SWAP4 SWAP3 POP POP POP JUMP JUMPDEST PUSH1 0x0 DUP2 PUSH2 0xE100 DUP6 DUP6 PUSH2 0x55C7 SWAP2 SWAP1 PUSH2 0x60A2 JUMP JUMPDEST PUSH8 0xDE0B6B3A7640000 DUP8 PUSH2 0x55DB SWAP2 SWAP1 PUSH2 0x629A JUMP JUMPDEST PUSH2 0x55E5 SWAP2 SWAP1 PUSH2 0x60F8 JUMP JUMPDEST PUSH2 0x55EF SWAP2 SWAP1 PUSH2 0x60F8 JUMP JUMPDEST PUSH2 0x55F9 SWAP2 SWAP1 PUSH2 0x60A2 JUMP JUMPDEST SWAP1 POP SWAP4 SWAP3 POP POP POP JUMP JUMPDEST PUSH1 0x0 PUSH1 0x3 DUP3 GT ISZERO PUSH2 0x5669 JUMPI DUP2 SWAP1 POP PUSH1 0x0 PUSH1 0x1 PUSH1 0x2 DUP5 PUSH2 0x5621 SWAP2 SWAP1 PUSH2 0x60F8 JUMP JUMPDEST PUSH2 0x562B SWAP2 SWAP1 PUSH2 0x60A2 JUMP JUMPDEST SWAP1 POP JUMPDEST DUP2 DUP2 LT ISZERO PUSH2 0x5663 JUMPI DUP1 SWAP2 POP PUSH1 0x2 DUP2 DUP3 DUP6 PUSH2 0x5648 SWAP2 SWAP1 PUSH2 0x60F8 JUMP JUMPDEST PUSH2 0x5652 SWAP2 SWAP1 PUSH2 0x60A2 JUMP JUMPDEST PUSH2 0x565C SWAP2 SWAP1 PUSH2 0x60F8 JUMP JUMPDEST SWAP1 POP PUSH2 0x562E JUMP JUMPDEST POP PUSH2 0x5677 JUMP JUMPDEST PUSH1 0x0 DUP3 EQ PUSH2 0x5676 JUMPI PUSH1 0x1 SWAP1 POP JUMPDEST JUMPDEST SWAP2 SWAP1 POP JUMP JUMPDEST PUSH1 0x0 DUP4 DUP8 DUP4 DUP6 DUP8 PUSH2 0x568D SWAP2 SWAP1 PUSH2 0x629A JUMP JUMPDEST PUSH2 0x5697 SWAP2 SWAP1 PUSH2 0x629A JUMP JUMPDEST DUP8 DUP10 DUP12 PUSH2 0x56A4 SWAP2 SWAP1 PUSH2 0x629A JUMP JUMPDEST PUSH2 0x56AE SWAP2 SWAP1 PUSH2 0x629A JUMP JUMPDEST PUSH2 0x56B8 SWAP2 SWAP1 PUSH2 0x60A2 JUMP JUMPDEST PUSH2 0x56C2 SWAP2 SWAP1 PUSH2 0x629A JUMP JUMPDEST PUSH2 0x56CC SWAP2 SWAP1 PUSH2 0x629A JUMP JUMPDEST SWAP1 POP SWAP7 SWAP6 POP POP POP POP POP POP JUMP JUMPDEST PUSH1 0x0 PUSH1 0x8 DUP3 GT ISZERO PUSH2 0x5756 JUMPI DUP2 SWAP1 POP PUSH1 0x0 PUSH1 0x1 PUSH1 0x3 DUP5 PUSH2 0x56F7 SWAP2 SWAP1 PUSH2 0x60F8 JUMP JUMPDEST PUSH2 0x5701 SWAP2 SWAP1 PUSH2 0x60A2 JUMP JUMPDEST SWAP1 POP JUMPDEST DUP2 DUP2 LT ISZERO PUSH2 0x5750 JUMPI DUP1 SWAP2 POP PUSH1 0x3 DUP2 PUSH1 0x2 PUSH2 0x571E SWAP2 SWAP1 PUSH2 0x629A JUMP JUMPDEST DUP3 DUP4 PUSH2 0x572A SWAP2 SWAP1 PUSH2 0x629A JUMP JUMPDEST DUP6 PUSH2 0x5735 SWAP2 SWAP1 PUSH2 0x60F8 JUMP JUMPDEST PUSH2 0x573F SWAP2 SWAP1 PUSH2 0x60A2 JUMP JUMPDEST PUSH2 0x5749 SWAP2 SWAP1 PUSH2 0x60F8 JUMP JUMPDEST SWAP1 POP PUSH2 0x5704 JUMP JUMPDEST POP PUSH2 0x5764 JUMP JUMPDEST PUSH1 0x0 DUP3 EQ PUSH2 0x5763 JUMPI PUSH1 0x1 SWAP1 POP JUMPDEST JUMPDEST SWAP2 SWAP1 POP JUMP JUMPDEST POP PUSH1 0x0 DUP2 SSTORE PUSH1 0x1 ADD PUSH1 0x0 SWAP1 SSTORE JUMP JUMPDEST PUSH1 0x0 DUP2 CALLDATALOAD SWAP1 POP PUSH2 0x5786 DUP2 PUSH2 0x6605 JUMP JUMPDEST SWAP3 SWAP2 POP POP JUMP JUMPDEST PUSH1 0x0 DUP2 CALLDATALOAD SWAP1 POP PUSH2 0x579B DUP2 PUSH2 0x661C JUMP JUMPDEST SWAP3 SWAP2 POP POP JUMP JUMPDEST PUSH1 0x0 DUP2 MLOAD SWAP1 POP PUSH2 0x57B0 DUP2 PUSH2 0x661C JUMP JUMPDEST SWAP3 SWAP2 POP POP JUMP JUMPDEST PUSH1 0x0 DUP2 CALLDATALOAD SWAP1 POP PUSH2 0x57C5 DUP2 PUSH2 0x6633 JUMP JUMPDEST SWAP3 SWAP2 POP POP JUMP JUMPDEST PUSH1 0x0 DUP2 CALLDATALOAD SWAP1 POP PUSH2 0x57DA DUP2 PUSH2 0x664A JUMP JUMPDEST SWAP3 SWAP2 POP POP JUMP JUMPDEST PUSH1 0x0 DUP2 MLOAD SWAP1 POP PUSH2 0x57EF DUP2 PUSH2 0x664A JUMP JUMPDEST SWAP3 SWAP2 POP POP JUMP JUMPDEST PUSH1 0x0 DUP2 CALLDATALOAD SWAP1 POP PUSH2 0x5804 DUP2 PUSH2 0x6661 JUMP JUMPDEST SWAP3 SWAP2 POP POP JUMP JUMPDEST PUSH1 0x0 PUSH1 0x20 DUP3 DUP5 SUB SLT ISZERO PUSH2 0x5820 JUMPI PUSH2 0x581F PUSH2 0x649A JUMP JUMPDEST JUMPDEST PUSH1 0x0 PUSH2 0x582E DUP5 DUP3 DUP6 ADD PUSH2 0x5777 JUMP JUMPDEST SWAP2 POP POP SWAP3 SWAP2 POP POP JUMP JUMPDEST PUSH1 0x0 DUP1 PUSH1 0x40 DUP4 DUP6 SUB SLT ISZERO PUSH2 0x584E JUMPI PUSH2 0x584D PUSH2 0x649A JUMP JUMPDEST JUMPDEST PUSH1 0x0 PUSH2 0x585C DUP6 DUP3 DUP7 ADD PUSH2 0x5777 JUMP JUMPDEST SWAP3 POP POP PUSH1 0x20 PUSH2 0x586D DUP6 DUP3 DUP7 ADD PUSH2 0x5777 JUMP JUMPDEST SWAP2 POP POP SWAP3 POP SWAP3 SWAP1 POP JUMP JUMPDEST PUSH1 0x0 DUP1 PUSH1 0x0 PUSH1 0x60 DUP5 DUP7 SUB SLT ISZERO PUSH2 0x5890 JUMPI PUSH2 0x588F PUSH2 0x649A JUMP JUMPDEST JUMPDEST PUSH1 0x0 PUSH2 0x589E DUP7 DUP3 DUP8 ADD PUSH2 0x5777 JUMP JUMPDEST SWAP4 POP POP PUSH1 0x20 PUSH2 0x58AF DUP7 DUP3 DUP8 ADD PUSH2 0x5777 JUMP JUMPDEST SWAP3 POP POP PUSH1 0x40 PUSH2 0x58C0 DUP7 DUP3 DUP8 ADD PUSH2 0x57CB JUMP JUMPDEST SWAP2 POP POP SWAP3 POP SWAP3 POP SWAP3 JUMP JUMPDEST PUSH1 0x0 DUP1 PUSH1 0x0 DUP1 PUSH1 0x0 DUP1 PUSH1 0x0 PUSH1 0xE0 DUP9 DUP11 SUB SLT ISZERO PUSH2 0x58E9 JUMPI PUSH2 0x58E8 PUSH2 0x649A JUMP JUMPDEST JUMPDEST PUSH1 0x0 PUSH2 0x58F7 DUP11 DUP3 DUP12 ADD PUSH2 0x5777 JUMP JUMPDEST SWAP8 POP POP PUSH1 0x20 PUSH2 0x5908 DUP11 DUP3 DUP12 ADD PUSH2 0x5777 JUMP JUMPDEST SWAP7 POP POP PUSH1 0x40 PUSH2 0x5919 DUP11 DUP3 DUP12 ADD PUSH2 0x57CB JUMP JUMPDEST SWAP6 POP POP PUSH1 0x60 PUSH2 0x592A DUP11 DUP3 DUP12 ADD PUSH2 0x57CB JUMP JUMPDEST SWAP5 POP POP PUSH1 0x80 PUSH2 0x593B DUP11 DUP3 DUP12 ADD PUSH2 0x57F5 JUMP JUMPDEST SWAP4 POP POP PUSH1 0xA0 PUSH2 0x594C DUP11 DUP3 DUP12 ADD PUSH2 0x57B6 JUMP JUMPDEST SWAP3 POP POP PUSH1 0xC0 PUSH2 0x595D DUP11 DUP3 DUP12 ADD PUSH2 0x57B6 JUMP JUMPDEST SWAP2 POP POP SWAP3 SWAP6 SWAP9 SWAP2 SWAP5 SWAP8 POP SWAP3 SWAP6 POP JUMP JUMPDEST PUSH1 0x0 DUP1 PUSH1 0x40 DUP4 DUP6 SUB SLT ISZERO PUSH2 0x5983 JUMPI PUSH2 0x5982 PUSH2 0x649A JUMP JUMPDEST JUMPDEST PUSH1 0x0 PUSH2 0x5991 DUP6 DUP3 DUP7 ADD PUSH2 0x5777 JUMP JUMPDEST SWAP3 POP POP PUSH1 0x20 PUSH2 0x59A2 DUP6 DUP3 DUP7 ADD PUSH2 0x578C JUMP JUMPDEST SWAP2 POP POP SWAP3 POP SWAP3 SWAP1 POP JUMP JUMPDEST PUSH1 0x0 DUP1 PUSH1 0x40 DUP4 DUP6 SUB SLT ISZERO PUSH2 0x59C3 JUMPI PUSH2 0x59C2 PUSH2 0x649A JUMP JUMPDEST JUMPDEST PUSH1 0x0 PUSH2 0x59D1 DUP6 DUP3 DUP7 ADD PUSH2 0x5777 JUMP JUMPDEST SWAP3 POP POP PUSH1 0x20 PUSH2 0x59E2 DUP6 DUP3 DUP7 ADD PUSH2 0x57CB JUMP JUMPDEST SWAP2 POP POP SWAP3 POP SWAP3 SWAP1 POP JUMP JUMPDEST PUSH1 0x0 PUSH1 0x20 DUP3 DUP5 SUB SLT ISZERO PUSH2 0x5A02 JUMPI PUSH2 0x5A01 PUSH2 0x649A JUMP JUMPDEST JUMPDEST PUSH1 0x0 PUSH2 0x5A10 DUP5 DUP3 DUP6 ADD PUSH2 0x57A1 JUMP JUMPDEST SWAP2 POP POP SWAP3 SWAP2 POP POP JUMP JUMPDEST PUSH1 0x0 PUSH1 0x20 DUP3 DUP5 SUB SLT ISZERO PUSH2 0x5A2F JUMPI PUSH2 0x5A2E PUSH2 0x649A JUMP JUMPDEST JUMPDEST PUSH1 0x0 PUSH2 0x5A3D DUP5 DUP3 DUP6 ADD PUSH2 0x57CB JUMP JUMPDEST SWAP2 POP POP SWAP3 SWAP2 POP POP JUMP JUMPDEST PUSH1 0x0 PUSH1 0x20 DUP3 DUP5 SUB SLT ISZERO PUSH2 0x5A5C JUMPI PUSH2 0x5A5B PUSH2 0x649A JUMP JUMPDEST JUMPDEST PUSH1 0x0 PUSH2 0x5A6A DUP5 DUP3 DUP6 ADD PUSH2 0x57E0 JUMP JUMPDEST SWAP2 POP POP SWAP3 SWAP2 POP POP JUMP JUMPDEST PUSH1 0x0 DUP1 PUSH1 0x40 DUP4 DUP6 SUB SLT ISZERO PUSH2 0x5A8A JUMPI PUSH2 0x5A89 PUSH2 0x649A JUMP JUMPDEST JUMPDEST PUSH1 0x0 PUSH2 0x5A98 DUP6 DUP3 DUP7 ADD PUSH2 0x57CB JUMP JUMPDEST SWAP3 POP POP PUSH1 0x20 PUSH2 0x5AA9 DUP6 DUP3 DUP7 ADD PUSH2 0x5777 JUMP JUMPDEST SWAP2 POP POP SWAP3 POP SWAP3 SWAP1 POP JUMP JUMPDEST PUSH1 0x0 DUP1 PUSH1 0x0 PUSH1 0x60 DUP5 DUP7 SUB SLT ISZERO PUSH2 0x5ACC JUMPI PUSH2 0x5ACB PUSH2 0x649A JUMP JUMPDEST JUMPDEST PUSH1 0x0 PUSH2 0x5ADA DUP7 DUP3 DUP8 ADD PUSH2 0x57CB JUMP JUMPDEST SWAP4 POP POP PUSH1 0x20 PUSH2 0x5AEB DUP7 DUP3 DUP8 ADD PUSH2 0x57CB JUMP JUMPDEST SWAP3 POP POP PUSH1 0x40 PUSH2 0x5AFC DUP7 DUP3 DUP8 ADD PUSH2 0x5777 JUMP JUMPDEST SWAP2 POP POP SWAP3 POP SWAP3 POP SWAP3 JUMP JUMPDEST PUSH1 0x0 DUP1 PUSH1 0x0 DUP1 PUSH1 0x80 DUP6 DUP8 SUB SLT ISZERO PUSH2 0x5B20 JUMPI PUSH2 0x5B1F PUSH2 0x649A JUMP JUMPDEST JUMPDEST PUSH1 0x0 PUSH2 0x5B2E DUP8 DUP3 DUP9 ADD PUSH2 0x57CB JUMP JUMPDEST SWAP5 POP POP PUSH1 0x20 PUSH2 0x5B3F DUP8 DUP3 DUP9 ADD PUSH2 0x57CB JUMP JUMPDEST SWAP4 POP POP PUSH1 0x40 PUSH2 0x5B50 DUP8 DUP3 DUP9 ADD PUSH2 0x578C JUMP JUMPDEST SWAP3 POP POP PUSH1 0x60 PUSH2 0x5B61 DUP8 DUP3 DUP9 ADD PUSH2 0x5777 JUMP JUMPDEST SWAP2 POP POP SWAP3 SWAP6 SWAP2 SWAP5 POP SWAP3 POP JUMP JUMPDEST PUSH2 0x5B76 DUP2 PUSH2 0x6328 JUMP JUMPDEST DUP3 MSTORE POP POP JUMP JUMPDEST PUSH2 0x5B85 DUP2 PUSH2 0x633A JUMP JUMPDEST DUP3 MSTORE POP POP JUMP JUMPDEST PUSH2 0x5B94 DUP2 PUSH2 0x6346 JUMP JUMPDEST DUP3 MSTORE POP POP JUMP JUMPDEST PUSH2 0x5BAB PUSH2 0x5BA6 DUP3 PUSH2 0x6346 JUMP JUMPDEST PUSH2 0x6403 JUMP JUMPDEST DUP3 MSTORE POP POP JUMP JUMPDEST PUSH1 0x0 PUSH2 0x5BBC DUP3 PUSH2 0x6065 JUMP JUMPDEST PUSH2 0x5BC6 DUP2 DUP6 PUSH2 0x607B JUMP JUMPDEST SWAP4 POP PUSH2 0x5BD6 DUP2 DUP6 PUSH1 0x20 DUP7 ADD PUSH2 0x6387 JUMP JUMPDEST DUP1 DUP5 ADD SWAP2 POP POP SWAP3 SWAP2 POP POP JUMP JUMPDEST PUSH1 0x0 PUSH2 0x5BED DUP3 PUSH2 0x6070 JUMP JUMPDEST PUSH2 0x5BF7 DUP2 DUP6 PUSH2 0x6086 JUMP JUMPDEST SWAP4 POP PUSH2 0x5C07 DUP2 DUP6 PUSH1 0x20 DUP7 ADD PUSH2 0x6387 JUMP JUMPDEST PUSH2 0x5C10 DUP2 PUSH2 0x649F JUMP JUMPDEST DUP5 ADD SWAP2 POP POP SWAP3 SWAP2 POP POP JUMP JUMPDEST PUSH1 0x0 PUSH2 0x5C28 PUSH1 0x15 DUP4 PUSH2 0x6086 JUMP JUMPDEST SWAP2 POP PUSH2 0x5C33 DUP3 PUSH2 0x64BD JUMP JUMPDEST PUSH1 0x20 DUP3 ADD SWAP1 POP SWAP2 SWAP1 POP JUMP JUMPDEST PUSH1 0x0 PUSH2 0x5C4B PUSH1 0x1C DUP4 PUSH2 0x6086 JUMP JUMPDEST SWAP2 POP PUSH2 0x5C56 DUP3 PUSH2 0x64E6 JUMP JUMPDEST PUSH1 0x20 DUP3 ADD SWAP1 POP SWAP2 SWAP1 POP JUMP JUMPDEST PUSH1 0x0 PUSH2 0x5C6E PUSH1 0x2 DUP4 PUSH2 0x6097 JUMP JUMPDEST SWAP2 POP PUSH2 0x5C79 DUP3 PUSH2 0x650F JUMP JUMPDEST PUSH1 0x2 DUP3 ADD SWAP1 POP SWAP2 SWAP1 POP JUMP JUMPDEST PUSH1 0x0 PUSH2 0x5C91 PUSH1 0x14 DUP4 PUSH2 0x6086 JUMP JUMPDEST SWAP2 POP PUSH2 0x5C9C DUP3 PUSH2 0x6538 JUMP JUMPDEST PUSH1 0x20 DUP3 ADD SWAP1 POP SWAP2 SWAP1 POP JUMP JUMPDEST PUSH1 0x0 PUSH2 0x5CB4 PUSH1 0x12 DUP4 PUSH2 0x6086 JUMP JUMPDEST SWAP2 POP PUSH2 0x5CBF DUP3 PUSH2 0x6561 JUMP JUMPDEST PUSH1 0x20 DUP3 ADD SWAP1 POP SWAP2 SWAP1 POP JUMP JUMPDEST PUSH1 0x0 PUSH2 0x5CD7 PUSH1 0xF DUP4 PUSH2 0x6086 JUMP JUMPDEST SWAP2 POP PUSH2 0x5CE2 DUP3 PUSH2 0x658A JUMP JUMPDEST PUSH1 0x20 DUP3 ADD SWAP1 POP SWAP2 SWAP1 POP JUMP JUMPDEST PUSH1 0x0 PUSH2 0x5CFA PUSH1 0x18 DUP4 PUSH2 0x6086 JUMP JUMPDEST SWAP2 POP PUSH2 0x5D05 DUP3 PUSH2 0x65B3 JUMP JUMPDEST PUSH1 0x20 DUP3 ADD SWAP1 POP SWAP2 SWAP1 POP JUMP JUMPDEST PUSH1 0x0 PUSH2 0x5D1D PUSH1 0x6 DUP4 PUSH2 0x6086 JUMP JUMPDEST SWAP2 POP PUSH2 0x5D28 DUP3 PUSH2 0x65DC JUMP JUMPDEST PUSH1 0x20 DUP3 ADD SWAP1 POP SWAP2 SWAP1 POP JUMP JUMPDEST PUSH2 0x5D3C DUP2 PUSH2 0x6370 JUMP JUMPDEST DUP3 MSTORE POP POP JUMP JUMPDEST PUSH2 0x5D4B DUP2 PUSH2 0x637A JUMP JUMPDEST DUP3 MSTORE POP POP JUMP JUMPDEST PUSH1 0x0 PUSH2 0x5D5D DUP3 DUP5 PUSH2 0x5BB1 JUMP JUMPDEST SWAP2 POP DUP2 SWAP1 POP SWAP3 SWAP2 POP POP JUMP JUMPDEST PUSH1 0x0 PUSH2 0x5D73 DUP3 PUSH2 0x5C61 JUMP JUMPDEST SWAP2 POP PUSH2 0x5D7F DUP3 DUP6 PUSH2 0x5B9A JUMP JUMPDEST PUSH1 0x20 DUP3 ADD SWAP2 POP PUSH2 0x5D8F DUP3 DUP5 PUSH2 0x5B9A JUMP JUMPDEST PUSH1 0x20 DUP3 ADD SWAP2 POP DUP2 SWAP1 POP SWAP4 SWAP3 POP POP POP JUMP JUMPDEST PUSH1 0x0 PUSH1 0x20 DUP3 ADD SWAP1 POP PUSH2 0x5DB4 PUSH1 0x0 DUP4 ADD DUP5 PUSH2 0x5B6D JUMP JUMPDEST SWAP3 SWAP2 POP POP JUMP JUMPDEST PUSH1 0x0 PUSH1 0x80 DUP3 ADD SWAP1 POP PUSH2 0x5DCF PUSH1 0x0 DUP4 ADD DUP8 PUSH2 0x5B6D JUMP JUMPDEST PUSH2 0x5DDC PUSH1 0x20 DUP4 ADD DUP7 PUSH2 0x5B7C JUMP JUMPDEST PUSH2 0x5DE9 PUSH1 0x40 DUP4 ADD DUP6 PUSH2 0x5D33 JUMP JUMPDEST PUSH2 0x5DF6 PUSH1 0x60 DUP4 ADD DUP5 PUSH2 0x5D33 JUMP JUMPDEST SWAP6 SWAP5 POP POP POP POP POP JUMP JUMPDEST PUSH1 0x0 PUSH1 0x40 DUP3 ADD SWAP1 POP PUSH2 0x5E14 PUSH1 0x0 DUP4 ADD DUP6 PUSH2 0x5B6D JUMP JUMPDEST PUSH2 0x5E21 PUSH1 0x20 DUP4 ADD DUP5 PUSH2 0x5D33 JUMP JUMPDEST SWAP4 SWAP3 POP POP POP JUMP JUMPDEST PUSH1 0x0 PUSH1 0x20 DUP3 ADD SWAP1 POP PUSH2 0x5E3D PUSH1 0x0 DUP4 ADD DUP5 PUSH2 0x5B7C JUMP JUMPDEST SWAP3 SWAP2 POP POP JUMP JUMPDEST PUSH1 0x0 PUSH1 0x20 DUP3 ADD SWAP1 POP PUSH2 0x5E58 PUSH1 0x0 DUP4 ADD DUP5 PUSH2 0x5B8B JUMP JUMPDEST SWAP3 SWAP2 POP POP JUMP JUMPDEST PUSH1 0x0 PUSH1 0xC0 DUP3 ADD SWAP1 POP PUSH2 0x5E73 PUSH1 0x0 DUP4 ADD DUP10 PUSH2 0x5B8B JUMP JUMPDEST PUSH2 0x5E80 PUSH1 0x20 DUP4 ADD DUP9 PUSH2 0x5B6D JUMP JUMPDEST PUSH2 0x5E8D PUSH1 0x40 DUP4 ADD DUP8 PUSH2 0x5B6D JUMP JUMPDEST PUSH2 0x5E9A PUSH1 0x60 DUP4 ADD DUP7 PUSH2 0x5D33 JUMP JUMPDEST PUSH2 0x5EA7 PUSH1 0x80 DUP4 ADD DUP6 PUSH2 0x5D33 JUMP JUMPDEST PUSH2 0x5EB4 PUSH1 0xA0 DUP4 ADD DUP5 PUSH2 0x5D33 JUMP JUMPDEST SWAP8 SWAP7 POP POP POP POP POP POP POP JUMP JUMPDEST PUSH1 0x0 PUSH1 0x80 DUP3 ADD SWAP1 POP PUSH2 0x5ED4 PUSH1 0x0 DUP4 ADD DUP8 PUSH2 0x5B8B JUMP JUMPDEST PUSH2 0x5EE1 PUSH1 0x20 DUP4 ADD DUP7 PUSH2 0x5D42 JUMP JUMPDEST PUSH2 0x5EEE PUSH1 0x40 DUP4 ADD DUP6 PUSH2 0x5B8B JUMP JUMPDEST PUSH2 0x5EFB PUSH1 0x60 DUP4 ADD DUP5 PUSH2 0x5B8B JUMP JUMPDEST SWAP6 SWAP5 POP POP POP POP POP JUMP JUMPDEST PUSH1 0x0 PUSH1 0x20 DUP3 ADD SWAP1 POP DUP2 DUP2 SUB PUSH1 0x0 DUP4 ADD MSTORE PUSH2 0x5F1E DUP2 DUP5 PUSH2 0x5BE2 JUMP JUMPDEST SWAP1 POP SWAP3 SWAP2 POP POP JUMP JUMPDEST PUSH1 0x0 PUSH1 0x20 DUP3 ADD SWAP1 POP DUP2 DUP2 SUB PUSH1 0x0 DUP4 ADD MSTORE PUSH2 0x5F3F DUP2 PUSH2 0x5C1B JUMP JUMPDEST SWAP1 POP SWAP2 SWAP1 POP JUMP JUMPDEST PUSH1 0x0 PUSH1 0x20 DUP3 ADD SWAP1 POP DUP2 DUP2 SUB PUSH1 0x0 DUP4 ADD MSTORE PUSH2 0x5F5F DUP2 PUSH2 0x5C3E JUMP JUMPDEST SWAP1 POP SWAP2 SWAP1 POP JUMP JUMPDEST PUSH1 0x0 PUSH1 0x20 DUP3 ADD SWAP1 POP DUP2 DUP2 SUB PUSH1 0x0 DUP4 ADD MSTORE PUSH2 0x5F7F DUP2 PUSH2 0x5C84 JUMP JUMPDEST SWAP1 POP SWAP2 SWAP1 POP JUMP JUMPDEST PUSH1 0x0 PUSH1 0x20 DUP3 ADD SWAP1 POP DUP2 DUP2 SUB PUSH1 0x0 DUP4 ADD MSTORE PUSH2 0x5F9F DUP2 PUSH2 0x5CA7 JUMP JUMPDEST SWAP1 POP SWAP2 SWAP1 POP JUMP JUMPDEST PUSH1 0x0 PUSH1 0x20 DUP3 ADD SWAP1 POP DUP2 DUP2 SUB PUSH1 0x0 DUP4 ADD MSTORE PUSH2 0x5FBF DUP2 PUSH2 0x5CCA JUMP JUMPDEST SWAP1 POP SWAP2 SWAP1 POP JUMP JUMPDEST PUSH1 0x0 PUSH1 0x20 DUP3 ADD SWAP1 POP DUP2 DUP2 SUB PUSH1 0x0 DUP4 ADD MSTORE PUSH2 0x5FDF DUP2 PUSH2 0x5CED JUMP JUMPDEST SWAP1 POP SWAP2 SWAP1 POP JUMP JUMPDEST PUSH1 0x0 PUSH1 0x20 DUP3 ADD SWAP1 POP DUP2 DUP2 SUB PUSH1 0x0 DUP4 ADD MSTORE PUSH2 0x5FFF DUP2 PUSH2 0x5D10 JUMP JUMPDEST SWAP1 POP SWAP2 SWAP1 POP JUMP JUMPDEST PUSH1 0x0 PUSH1 0x20 DUP3 ADD SWAP1 POP PUSH2 0x601B PUSH1 0x0 DUP4 ADD DUP5 PUSH2 0x5D33 JUMP JUMPDEST SWAP3 SWAP2 POP POP JUMP JUMPDEST PUSH1 0x0 PUSH1 0x40 DUP3 ADD SWAP1 POP PUSH2 0x6036 PUSH1 0x0 DUP4 ADD DUP6 PUSH2 0x5D33 JUMP JUMPDEST PUSH2 0x6043 PUSH1 0x20 DUP4 ADD DUP5 PUSH2 0x5D33 JUMP JUMPDEST SWAP4 SWAP3 POP POP POP JUMP JUMPDEST PUSH1 0x0 PUSH1 0x20 DUP3 ADD SWAP1 POP PUSH2 0x605F PUSH1 0x0 DUP4 ADD DUP5 PUSH2 0x5D42 JUMP JUMPDEST SWAP3 SWAP2 POP POP JUMP JUMPDEST PUSH1 0x0 DUP2 MLOAD SWAP1 POP SWAP2 SWAP1 POP JUMP JUMPDEST PUSH1 0x0 DUP2 MLOAD SWAP1 POP SWAP2 SWAP1 POP JUMP JUMPDEST PUSH1 0x0 DUP2 SWAP1 POP SWAP3 SWAP2 POP POP JUMP JUMPDEST PUSH1 0x0 DUP3 DUP3 MSTORE PUSH1 0x20 DUP3 ADD SWAP1 POP SWAP3 SWAP2 POP POP JUMP JUMPDEST PUSH1 0x0 DUP2 SWAP1 POP SWAP3 SWAP2 POP POP JUMP JUMPDEST PUSH1 0x0 PUSH2 0x60AD DUP3 PUSH2 0x6370 JUMP JUMPDEST SWAP2 POP PUSH2 0x60B8 DUP4 PUSH2 0x6370 JUMP JUMPDEST SWAP3 POP DUP3 PUSH32 0xFFFFFFFFFFFFFFFFFFFFFFFFFFFFFFFFFFFFFFFFFFFFFFFFFFFFFFFFFFFFFFFF SUB DUP3 GT ISZERO PUSH2 0x60ED JUMPI PUSH2 0x60EC PUSH2 0x640D JUMP JUMPDEST JUMPDEST DUP3 DUP3 ADD SWAP1 POP SWAP3 SWAP2 POP POP JUMP JUMPDEST PUSH1 0x0 PUSH2 0x6103 DUP3 PUSH2 0x6370 JUMP JUMPDEST SWAP2 POP PUSH2 0x610E DUP4 PUSH2 0x6370 JUMP JUMPDEST SWAP3 POP DUP3 PUSH2 0x611E JUMPI PUSH2 0x611D PUSH2 0x643C JUMP JUMPDEST JUMPDEST DUP3 DUP3 DIV SWAP1 POP SWAP3 SWAP2 POP POP JUMP JUMPDEST PUSH1 0x0 DUP1 DUP3 SWAP2 POP DUP4 SWAP1 POP JUMPDEST PUSH1 0x1 DUP6 GT ISZERO PUSH2 0x6173 JUMPI DUP1 DUP7 DIV DUP2 GT ISZERO PUSH2 0x614F JUMPI PUSH2 0x614E PUSH2 0x640D JUMP JUMPDEST JUMPDEST PUSH1 0x1 DUP6 AND ISZERO PUSH2 0x615E JUMPI DUP1 DUP3 MUL SWAP2 POP JUMPDEST DUP1 DUP2 MUL SWAP1 POP PUSH2 0x616C DUP6 PUSH2 0x64B0 JUMP JUMPDEST SWAP5 POP PUSH2 0x6133 JUMP JUMPDEST SWAP5 POP SWAP5 SWAP3 POP POP POP JUMP JUMPDEST PUSH1 0x0 PUSH2 0x6187 DUP3 PUSH2 0x6370 JUMP JUMPDEST SWAP2 POP PUSH2 0x6192 DUP4 PUSH2 0x637A JUMP JUMPDEST SWAP3 POP PUSH2 0x61BF PUSH32 0xFFFFFFFFFFFFFFFFFFFFFFFFFFFFFFFFFFFFFFFFFFFFFFFFFFFFFFFFFFFFFFFF DUP5 DUP5 PUSH2 0x61C7 JUMP JUMPDEST SWAP1 POP SWAP3 SWAP2 POP POP JUMP JUMPDEST PUSH1 0x0 DUP3 PUSH2 0x61D7 JUMPI PUSH1 0x1 SWAP1 POP PUSH2 0x6293 JUMP JUMPDEST DUP2 PUSH2 0x61E5 JUMPI PUSH1 0x0 SWAP1 POP PUSH2 0x6293 JUMP JUMPDEST DUP2 PUSH1 0x1 DUP2 EQ PUSH2 0x61FB JUMPI PUSH1 0x2 DUP2 EQ PUSH2 0x6205 JUMPI PUSH2 0x6234 JUMP JUMPDEST PUSH1 0x1 SWAP2 POP POP PUSH2 0x6293 JUMP JUMPDEST PUSH1 0xFF DUP5 GT ISZERO PUSH2 0x6217 JUMPI PUSH2 0x6216 PUSH2 0x640D JUMP JUMPDEST JUMPDEST DUP4 PUSH1 0x2 EXP SWAP2 POP DUP5 DUP3 GT ISZERO PUSH2 0x622E JUMPI PUSH2 0x622D PUSH2 0x640D JUMP JUMPDEST JUMPDEST POP PUSH2 0x6293 JUMP JUMPDEST POP PUSH1 0x20 DUP4 LT PUSH2 0x133 DUP4 LT AND PUSH1 0x4E DUP5 LT PUSH1 0xB DUP5 LT AND OR ISZERO PUSH2 0x6269 JUMPI DUP3 DUP3 EXP SWAP1 POP DUP4 DUP2 GT ISZERO PUSH2 0x6264 JUMPI PUSH2 0x6263 PUSH2 0x640D JUMP JUMPDEST JUMPDEST PUSH2 0x6293 JUMP JUMPDEST PUSH2 0x6276 DUP5 DUP5 DUP5 PUSH1 0x1 PUSH2 0x6129 JUMP JUMPDEST SWAP3 POP SWAP1 POP DUP2 DUP5 DIV DUP2 GT ISZERO PUSH2 0x628D JUMPI PUSH2 0x628C PUSH2 0x640D JUMP JUMPDEST JUMPDEST DUP2 DUP2 MUL SWAP1 POP JUMPDEST SWAP4 SWAP3 POP POP POP JUMP JUMPDEST PUSH1 0x0 PUSH2 0x62A5 DUP3 PUSH2 0x6370 JUMP JUMPDEST SWAP2 POP PUSH2 0x62B0 DUP4 PUSH2 0x6370 JUMP JUMPDEST SWAP3 POP DUP2 PUSH32 0xFFFFFFFFFFFFFFFFFFFFFFFFFFFFFFFFFFFFFFFFFFFFFFFFFFFFFFFFFFFFFFFF DIV DUP4 GT DUP3 ISZERO ISZERO AND ISZERO PUSH2 0x62E9 JUMPI PUSH2 0x62E8 PUSH2 0x640D JUMP JUMPDEST JUMPDEST DUP3 DUP3 MUL SWAP1 POP SWAP3 SWAP2 POP POP JUMP JUMPDEST PUSH1 0x0 PUSH2 0x62FF DUP3 PUSH2 0x6370 JUMP JUMPDEST SWAP2 POP PUSH2 0x630A DUP4 PUSH2 0x6370 JUMP JUMPDEST SWAP3 POP DUP3 DUP3 LT ISZERO PUSH2 0x631D JUMPI PUSH2 0x631C PUSH2 0x640D JUMP JUMPDEST JUMPDEST DUP3 DUP3 SUB SWAP1 POP SWAP3 SWAP2 POP POP JUMP JUMPDEST PUSH1 0x0 PUSH2 0x6333 DUP3 PUSH2 0x6350 JUMP JUMPDEST SWAP1 POP SWAP2 SWAP1 POP JUMP JUMPDEST PUSH1 0x0 DUP2 ISZERO ISZERO SWAP1 POP SWAP2 SWAP1 POP JUMP JUMPDEST PUSH1 0x0 DUP2 SWAP1 POP SWAP2 SWAP1 POP JUMP JUMPDEST PUSH1 0x0 PUSH20 0xFFFFFFFFFFFFFFFFFFFFFFFFFFFFFFFFFFFFFFFF DUP3 AND SWAP1 POP SWAP2 SWAP1 POP JUMP JUMPDEST PUSH1 0x0 DUP2 SWAP1 POP SWAP2 SWAP1 POP JUMP JUMPDEST PUSH1 0x0 PUSH1 0xFF DUP3 AND SWAP1 POP SWAP2 SWAP1 POP JUMP JUMPDEST PUSH1 0x0 JUMPDEST DUP4 DUP2 LT ISZERO PUSH2 0x63A5 JUMPI DUP1 DUP3 ADD MLOAD DUP2 DUP5 ADD MSTORE PUSH1 0x20 DUP2 ADD SWAP1 POP PUSH2 0x638A JUMP JUMPDEST DUP4 DUP2 GT ISZERO PUSH2 0x63B4 JUMPI PUSH1 0x0 DUP5 DUP5 ADD MSTORE JUMPDEST POP POP POP POP JUMP JUMPDEST PUSH1 0x0 PUSH2 0x63C5 DUP3 PUSH2 0x6370 JUMP JUMPDEST SWAP2 POP PUSH32 0xFFFFFFFFFFFFFFFFFFFFFFFFFFFFFFFFFFFFFFFFFFFFFFFFFFFFFFFFFFFFFFFF DUP3 EQ ISZERO PUSH2 0x63F8 JUMPI PUSH2 0x63F7 PUSH2 0x640D JUMP JUMPDEST JUMPDEST PUSH1 0x1 DUP3 ADD SWAP1 POP SWAP2 SWAP1 POP JUMP JUMPDEST PUSH1 0x0 DUP2 SWAP1 POP SWAP2 SWAP1 POP JUMP JUMPDEST PUSH32 0x4E487B7100000000000000000000000000000000000000000000000000000000 PUSH1 0x0 MSTORE PUSH1 0x11 PUSH1 0x4 MSTORE PUSH1 0x24 PUSH1 0x0 REVERT JUMPDEST PUSH32 0x4E487B7100000000000000000000000000000000000000000000000000000000 PUSH1 0x0 MSTORE PUSH1 0x12 PUSH1 0x4 MSTORE PUSH1 0x24 PUSH1 0x0 REVERT JUMPDEST PUSH32 0x4E487B7100000000000000000000000000000000000000000000000000000000 PUSH1 0x0 MSTORE PUSH1 0x32 PUSH1 0x4 MSTORE PUSH1 0x24 PUSH1 0x0 REVERT JUMPDEST PUSH1 0x0 DUP1 REVERT JUMPDEST PUSH1 0x0 PUSH1 0x1F NOT PUSH1 0x1F DUP4 ADD AND SWAP1 POP SWAP2 SWAP1 POP JUMP JUMPDEST PUSH1 0x0 DUP2 PUSH1 0x1 SHR SWAP1 POP SWAP2 SWAP1 POP JUMP JUMPDEST PUSH32 0x64732D6D6174682D7375622D756E646572666C6F770000000000000000000000 PUSH1 0x0 DUP3 ADD MSTORE POP JUMP JUMPDEST PUSH32 0x556E697377617056323A20494E56414C49445F5349474E415455524500000000 PUSH1 0x0 DUP3 ADD MSTORE POP JUMP JUMPDEST PUSH32 0x1901000000000000000000000000000000000000000000000000000000000000 PUSH1 0x0 DUP3 ADD MSTORE POP JUMP JUMPDEST PUSH32 0x64732D6D6174682D6164642D6F766572666C6F77000000000000000000000000 PUSH1 0x0 DUP3 ADD MSTORE POP JUMP JUMPDEST PUSH32 0x556E697377617056323A20455850495245440000000000000000000000000000 PUSH1 0x0 DUP3 ADD MSTORE POP JUMP JUMPDEST PUSH32 0x5452414E534645525F4641494C45440000000000000000000000000000000000 PUSH1 0x0 DUP3 ADD MSTORE POP JUMP JUMPDEST PUSH32 0x51696C696E3A204E4F5420454E4F554748204D415247494E0000000000000000 PUSH1 0x0 DUP3 ADD MSTORE POP JUMP JUMPDEST PUSH32 0x4C4F434B45440000000000000000000000000000000000000000000000000000 PUSH1 0x0 DUP3 ADD MSTORE POP JUMP JUMPDEST PUSH2 0x660E DUP2 PUSH2 0x6328 JUMP JUMPDEST DUP2 EQ PUSH2 0x6619 JUMPI PUSH1 0x0 DUP1 REVERT JUMPDEST POP JUMP JUMPDEST PUSH2 0x6625 DUP2 PUSH2 0x633A JUMP JUMPDEST DUP2 EQ PUSH2 0x6630 JUMPI PUSH1 0x0 DUP1 REVERT JUMPDEST POP JUMP JUMPDEST PUSH2 0x663C DUP2 PUSH2 0x6346 JUMP JUMPDEST DUP2 EQ PUSH2 0x6647 JUMPI PUSH1 0x0 DUP1 REVERT JUMPDEST POP JUMP JUMPDEST PUSH2 0x6653 DUP2 PUSH2 0x6370 JUMP JUMPDEST DUP2 EQ PUSH2 0x665E JUMPI PUSH1 0x0 DUP1 REVERT JUMPDEST POP JUMP JUMPDEST PUSH2 0x666A DUP2 PUSH2 0x637A JUMP JUMPDEST DUP2 EQ PUSH2 0x6675 JUMPI PUSH1 0x0 DUP1 REVERT JUMPDEST POP JUMP INVALID LOG2 PUSH5 0x6970667358 0x22 SLT KECCAK256 0xCF POP PUSH24 0xE5C3F7AFC042E9E915EBB33F788D43A9BCA6E33A4DF3038F SWAP5 PUSH2 0x9058 DUP9 PUSH5 0x736F6C6343 STOP ADDMOD SMOD STOP CALLER "
		},
		"gasEstimates": {
			"creation": {
				"codeDepositCost": "5257200",
				"executionCost": "infinite",
				"totalCost": "infinite"
			},
			"external": {
				"Add_Liquidity(uint256,uint256,address)": "infinite",
				"Add_Margin(address,address)": "infinite",
				"B()": "2542",
				"Base_rate()": "2564",
				"Burn_Liquidity(uint256,address)": "infinite",
				"C()": "2519",
				"D()": "2520",
				"D0()": "2517",
				"DOMAIN_SEPARATOR()": "2564",
				"Leverage_Margin()": "2496",
				"Leverage_Max()": "2520",
				"Liquidate(address,address)": "infinite",
				"Liquidation_bonus()": "2495",
				"Liquidation_rate()": "2563",
				"Margin_reserve(uint256)": "infinite",
				"N()": "2496",
				"N_Last()": "2562",
				"PERMIT_TYPEHASH()": "404",
				"Peqx()": "2499",
				"Peqy()": "2561",
				"Perp_close(uint256,uint256,address)": "infinite",
				"Perp_open(uint256,uint256,bool,address)": "infinite",
				"Price_local()": "2541",
				"Set_LeverageMargin(uint256)": "24779",
				"Set_Liquidation_rate(uint256)": "24844",
				"Set_fundingrate_upper(uint256)": "24759",
				"Tick_range()": "2540",
				"Total_Liquidity()": "2563",
				"Total_debt_X()": "2564",
				"Total_debt_Y()": "2497",
				"Total_debttoken_X()": "2540",
				"Total_debttoken_Y()": "2542",
				"True_Liquid_X()": "2519",
				"True_Liquid_X0()": "2584",
				"True_Liquid_Y()": "2519",
				"True_Liquid_Y0()": "2562",
				"X_Coord()": "2541",
				"X_Coord_Last()": "2565",
				"Xeq()": "2519",
				"Xgetp()": "2518",
				"Y_Coord()": "2497",
				"Y_Coord_Last()": "2496",
				"Yeq()": "2497",
				"Ygetp()": "2518",
				"_swap()": "infinite",
				"allowance(address,address)": "infinite",
				"approve(address,uint256)": "infinite",
				"balanceOf(address)": "2947",
				"const18()": "2498",
				"debt_index(address,bool)": "infinite",
				"decimals()": "426",
				"factory()": "2626",
				"fee()": "2496",
				"funding_Last()": "2541",
				"funding_x_8h_upper()": "2540",
				"fundingtime_Last()": "2541",
				"initialize(address,address)": "infinite",
				"margin_index(address,uint256)": "infinite",
				"name()": "infinite",
				"nonces(address)": "2927",
				"paying_side_Last()": "2605",
				"permit(address,address,uint256,uint256,uint8,bytes32,bytes32)": "infinite",
				"skim(address)": "infinite",
				"symbol()": "infinite",
				"tokenX()": "2649",
				"tokenY()": "2669",
				"totalSupply()": "2498",
				"transfer(address,uint256)": "infinite",
				"transferFrom(address,address,uint256)": "infinite"
			},
			"internal": {
				"Net_Margin(address)": "infinite",
				"Net_Position(address)": "infinite",
				"Net_debt(address)": "infinite",
				"TradeXToExactY(uint256,uint256,bool)": "infinite",
				"TradeYToExactX(uint256,uint256,bool)": "infinite",
				"Trade_XtoY(uint256,bool)": "infinite",
				"Trade_YtoX(uint256,bool)": "infinite",
				"Virtual_Liquidity_Update()": "infinite",
				"WithdrawMargin(address,address,address,uint256)": "infinite",
				"_safeTransfer(address,address,uint256)": "infinite",
				"refresh_totalbook()": "infinite"
			}
		},
		"methodIdentifiers": {
			"Add_Liquidity(uint256,uint256,address)": "6126deef",
			"Add_Margin(address,address)": "8cf825e7",
			"B()": "32e7c5bf",
			"Base_rate()": "7ed6281b",
			"Burn_Liquidity(uint256,address)": "6665ff11",
			"C()": "83dfe5fd",
			"D()": "0f529ba2",
			"D0()": "f738c74e",
			"DOMAIN_SEPARATOR()": "3644e515",
			"Leverage_Margin()": "9a36e122",
			"Leverage_Max()": "18db9681",
			"Liquidate(address,address)": "c3d81b21",
			"Liquidation_bonus()": "f70f4394",
			"Liquidation_rate()": "8bc1a32f",
			"Margin_reserve(uint256)": "1cbdffd1",
			"N()": "c9e525df",
			"N_Last()": "acd4a7c2",
			"PERMIT_TYPEHASH()": "30adf81f",
			"Peqx()": "00b52645",
			"Peqy()": "fe18f261",
			"Perp_close(uint256,uint256,address)": "4c324e6a",
			"Perp_open(uint256,uint256,bool,address)": "9076ae86",
			"Price_local()": "480c4f7e",
			"Set_LeverageMargin(uint256)": "cfe38a5e",
			"Set_Liquidation_rate(uint256)": "ff2f169e",
			"Set_fundingrate_upper(uint256)": "0bfa68d8",
			"Tick_range()": "d44022db",
			"Total_Liquidity()": "2dd6c254",
			"Total_debt_X()": "2190219e",
			"Total_debt_Y()": "225c2c50",
			"Total_debttoken_X()": "6b3545aa",
			"Total_debttoken_Y()": "139860ee",
			"True_Liquid_X()": "5595d459",
			"True_Liquid_X0()": "79dbf8ea",
			"True_Liquid_Y()": "3c6fe2f4",
			"True_Liquid_Y0()": "ea1797b0",
			"X_Coord()": "84009686",
			"X_Coord_Last()": "0b197615",
			"Xeq()": "8e361389",
			"Xgetp()": "a5aa65b9",
			"Y_Coord()": "36af2f9b",
			"Y_Coord_Last()": "6607e7e8",
			"Yeq()": "80416c02",
			"Ygetp()": "df0ab2c2",
			"_swap()": "30688ab8",
			"allowance(address,address)": "dd62ed3e",
			"approve(address,uint256)": "095ea7b3",
			"balanceOf(address)": "70a08231",
			"const18()": "7e11939a",
			"debt_index(address,bool)": "7e1431be",
			"decimals()": "313ce567",
			"factory()": "c45a0155",
			"fee()": "ddca3f43",
			"funding_Last()": "23ed16b6",
			"funding_x_8h_upper()": "e19a1474",
			"fundingtime_Last()": "5e287d86",
			"initialize(address,address)": "485cc955",
			"margin_index(address,uint256)": "fc69b80f",
			"name()": "06fdde03",
			"nonces(address)": "7ecebe00",
			"paying_side_Last()": "c7d44932",
			"permit(address,address,uint256,uint256,uint8,bytes32,bytes32)": "d505accf",
			"skim(address)": "bc25cf77",
			"symbol()": "95d89b41",
			"tokenX()": "16dc165b",
			"tokenY()": "b7d19fc4",
			"totalSupply()": "18160ddd",
			"transfer(address,uint256)": "a9059cbb",
			"transferFrom(address,address,uint256)": "23b872dd"
		}
	},
	"abi": [
		{
			"inputs": [],
			"stateMutability": "nonpayable",
			"type": "constructor"
		},
		{
			"anonymous": false,
			"inputs": [
				{
					"indexed": true,
					"internalType": "address",
					"name": "owner",
					"type": "address"
				},
				{
					"indexed": true,
					"internalType": "address",
					"name": "spender",
					"type": "address"
				},
				{
					"indexed": false,
					"internalType": "uint256",
					"name": "value",
					"type": "uint256"
				}
			],
			"name": "Approval",
			"type": "event"
		},
		{
			"anonymous": false,
			"inputs": [
				{
					"indexed": true,
					"internalType": "address",
					"name": "from",
					"type": "address"
				},
				{
					"indexed": true,
					"internalType": "address",
					"name": "to",
					"type": "address"
				},
				{
					"indexed": false,
					"internalType": "uint256",
					"name": "value",
					"type": "uint256"
				}
			],
			"name": "Transfer",
			"type": "event"
		},
		{
			"inputs": [
				{
					"internalType": "uint256",
					"name": "AddX",
					"type": "uint256"
				},
				{
					"internalType": "uint256",
					"name": "AddY",
					"type": "uint256"
				},
				{
					"internalType": "address",
					"name": "to",
					"type": "address"
				}
			],
			"name": "Add_Liquidity",
			"outputs": [
				{
					"internalType": "uint256",
					"name": "Liquidity",
					"type": "uint256"
				}
			],
			"stateMutability": "nonpayable",
			"type": "function"
		},
		{
			"inputs": [
				{
					"internalType": "address",
					"name": "tokenID",
					"type": "address"
				},
				{
					"internalType": "address",
					"name": "userID",
					"type": "address"
				}
			],
			"name": "Add_Margin",
			"outputs": [],
			"stateMutability": "nonpayable",
			"type": "function"
		},
		{
			"inputs": [],
			"name": "B",
			"outputs": [
				{
					"internalType": "uint256",
					"name": "",
					"type": "uint256"
				}
			],
			"stateMutability": "view",
			"type": "function"
		},
		{
			"inputs": [],
			"name": "Base_rate",
			"outputs": [
				{
					"internalType": "uint256",
					"name": "",
					"type": "uint256"
				}
			],
			"stateMutability": "view",
			"type": "function"
		},
		{
			"inputs": [
				{
					"internalType": "uint256",
					"name": "Liquidity",
					"type": "uint256"
				},
				{
					"internalType": "address",
					"name": "to",
					"type": "address"
				}
			],
			"name": "Burn_Liquidity",
			"outputs": [
				{
					"internalType": "uint256",
					"name": "BurX",
					"type": "uint256"
				},
				{
					"internalType": "uint256",
					"name": "BurY",
					"type": "uint256"
				}
			],
			"stateMutability": "nonpayable",
			"type": "function"
		},
		{
			"inputs": [],
			"name": "C",
			"outputs": [
				{
					"internalType": "uint256",
					"name": "",
					"type": "uint256"
				}
			],
			"stateMutability": "view",
			"type": "function"
		},
		{
			"inputs": [],
			"name": "D",
			"outputs": [
				{
					"internalType": "uint256",
					"name": "",
					"type": "uint256"
				}
			],
			"stateMutability": "view",
			"type": "function"
		},
		{
			"inputs": [],
			"name": "D0",
			"outputs": [
				{
					"internalType": "uint256",
					"name": "",
					"type": "uint256"
				}
			],
			"stateMutability": "view",
			"type": "function"
		},
		{
			"inputs": [],
			"name": "DOMAIN_SEPARATOR",
			"outputs": [
				{
					"internalType": "bytes32",
					"name": "",
					"type": "bytes32"
				}
			],
			"stateMutability": "view",
			"type": "function"
		},
		{
			"inputs": [],
			"name": "Leverage_Margin",
			"outputs": [
				{
					"internalType": "uint256",
					"name": "",
					"type": "uint256"
				}
			],
			"stateMutability": "view",
			"type": "function"
		},
		{
			"inputs": [],
			"name": "Leverage_Max",
			"outputs": [
				{
					"internalType": "uint256",
					"name": "",
					"type": "uint256"
				}
			],
			"stateMutability": "view",
			"type": "function"
		},
		{
			"inputs": [
				{
					"internalType": "address",
					"name": "userID",
					"type": "address"
				},
				{
					"internalType": "address",
					"name": "_to",
					"type": "address"
				}
			],
			"name": "Liquidate",
			"outputs": [],
			"stateMutability": "nonpayable",
			"type": "function"
		},
		{
			"inputs": [],
			"name": "Liquidation_bonus",
			"outputs": [
				{
					"internalType": "uint256",
					"name": "",
					"type": "uint256"
				}
			],
			"stateMutability": "view",
			"type": "function"
		},
		{
			"inputs": [],
			"name": "Liquidation_rate",
			"outputs": [
				{
					"internalType": "uint256",
					"name": "",
					"type": "uint256"
				}
			],
			"stateMutability": "view",
			"type": "function"
		},
		{
			"inputs": [
				{
					"internalType": "uint256",
					"name": "",
					"type": "uint256"
				}
			],
			"name": "Margin_reserve",
			"outputs": [
				{
					"internalType": "uint256",
					"name": "",
					"type": "uint256"
				}
			],
			"stateMutability": "view",
			"type": "function"
		},
		{
			"inputs": [],
			"name": "N",
			"outputs": [
				{
					"internalType": "uint256",
					"name": "",
					"type": "uint256"
				}
			],
			"stateMutability": "view",
			"type": "function"
		},
		{
			"inputs": [],
			"name": "N_Last",
			"outputs": [
				{
					"internalType": "uint256",
					"name": "",
					"type": "uint256"
				}
			],
			"stateMutability": "view",
			"type": "function"
		},
		{
			"inputs": [],
			"name": "PERMIT_TYPEHASH",
			"outputs": [
				{
					"internalType": "bytes32",
					"name": "",
					"type": "bytes32"
				}
			],
			"stateMutability": "view",
			"type": "function"
		},
		{
			"inputs": [],
			"name": "Peqx",
			"outputs": [
				{
					"internalType": "uint256",
					"name": "",
					"type": "uint256"
				}
			],
			"stateMutability": "view",
			"type": "function"
		},
		{
			"inputs": [],
			"name": "Peqy",
			"outputs": [
				{
					"internalType": "uint256",
					"name": "",
					"type": "uint256"
				}
			],
			"stateMutability": "view",
			"type": "function"
		},
		{
			"inputs": [
				{
					"internalType": "uint256",
					"name": "delta_X",
					"type": "uint256"
				},
				{
					"internalType": "uint256",
					"name": "delta_Y",
					"type": "uint256"
				},
				{
					"internalType": "address",
					"name": "userID",
					"type": "address"
				}
			],
			"name": "Perp_close",
			"outputs": [],
			"stateMutability": "nonpayable",
			"type": "function"
		},
		{
			"inputs": [
				{
					"internalType": "uint256",
					"name": "delta_X",
					"type": "uint256"
				},
				{
					"internalType": "uint256",
					"name": "delta_Y",
					"type": "uint256"
				},
				{
					"internalType": "bool",
					"name": "XtoY",
					"type": "bool"
				},
				{
					"internalType": "address",
					"name": "userID",
					"type": "address"
				}
			],
			"name": "Perp_open",
			"outputs": [],
			"stateMutability": "nonpayable",
			"type": "function"
		},
		{
			"inputs": [],
			"name": "Price_local",
			"outputs": [
				{
					"internalType": "uint256",
					"name": "",
					"type": "uint256"
				}
			],
			"stateMutability": "view",
			"type": "function"
		},
		{
			"inputs": [
				{
					"internalType": "uint256",
					"name": "L",
					"type": "uint256"
				}
			],
			"name": "Set_LeverageMargin",
			"outputs": [],
			"stateMutability": "nonpayable",
			"type": "function"
		},
		{
			"inputs": [
				{
					"internalType": "uint256",
					"name": "rate",
					"type": "uint256"
				}
			],
			"name": "Set_Liquidation_rate",
			"outputs": [],
			"stateMutability": "nonpayable",
			"type": "function"
		},
		{
			"inputs": [
				{
					"internalType": "uint256",
					"name": "f",
					"type": "uint256"
				}
			],
			"name": "Set_fundingrate_upper",
			"outputs": [],
			"stateMutability": "nonpayable",
			"type": "function"
		},
		{
			"inputs": [],
			"name": "Tick_range",
			"outputs": [
				{
					"internalType": "uint256",
					"name": "",
					"type": "uint256"
				}
			],
			"stateMutability": "view",
			"type": "function"
		},
		{
			"inputs": [],
			"name": "Total_Liquidity",
			"outputs": [
				{
					"internalType": "uint256",
					"name": "",
					"type": "uint256"
				}
			],
			"stateMutability": "view",
			"type": "function"
		},
		{
			"inputs": [],
			"name": "Total_debt_X",
			"outputs": [
				{
					"internalType": "uint256",
					"name": "",
					"type": "uint256"
				}
			],
			"stateMutability": "view",
			"type": "function"
		},
		{
			"inputs": [],
			"name": "Total_debt_Y",
			"outputs": [
				{
					"internalType": "uint256",
					"name": "",
					"type": "uint256"
				}
			],
			"stateMutability": "view",
			"type": "function"
		},
		{
			"inputs": [],
			"name": "Total_debttoken_X",
			"outputs": [
				{
					"internalType": "uint256",
					"name": "",
					"type": "uint256"
				}
			],
			"stateMutability": "view",
			"type": "function"
		},
		{
			"inputs": [],
			"name": "Total_debttoken_Y",
			"outputs": [
				{
					"internalType": "uint256",
					"name": "",
					"type": "uint256"
				}
			],
			"stateMutability": "view",
			"type": "function"
		},
		{
			"inputs": [],
			"name": "True_Liquid_X",
			"outputs": [
				{
					"internalType": "uint256",
					"name": "",
					"type": "uint256"
				}
			],
			"stateMutability": "view",
			"type": "function"
		},
		{
			"inputs": [],
			"name": "True_Liquid_X0",
			"outputs": [
				{
					"internalType": "uint256",
					"name": "",
					"type": "uint256"
				}
			],
			"stateMutability": "view",
			"type": "function"
		},
		{
			"inputs": [],
			"name": "True_Liquid_Y",
			"outputs": [
				{
					"internalType": "uint256",
					"name": "",
					"type": "uint256"
				}
			],
			"stateMutability": "view",
			"type": "function"
		},
		{
			"inputs": [],
			"name": "True_Liquid_Y0",
			"outputs": [
				{
					"internalType": "uint256",
					"name": "",
					"type": "uint256"
				}
			],
			"stateMutability": "view",
			"type": "function"
		},
		{
			"inputs": [],
			"name": "X_Coord",
			"outputs": [
				{
					"internalType": "uint256",
					"name": "",
					"type": "uint256"
				}
			],
			"stateMutability": "view",
			"type": "function"
		},
		{
			"inputs": [],
			"name": "X_Coord_Last",
			"outputs": [
				{
					"internalType": "uint256",
					"name": "",
					"type": "uint256"
				}
			],
			"stateMutability": "view",
			"type": "function"
		},
		{
			"inputs": [],
			"name": "Xeq",
			"outputs": [
				{
					"internalType": "uint256",
					"name": "",
					"type": "uint256"
				}
			],
			"stateMutability": "view",
			"type": "function"
		},
		{
			"inputs": [],
			"name": "Xgetp",
			"outputs": [
				{
					"internalType": "uint256",
					"name": "",
					"type": "uint256"
				}
			],
			"stateMutability": "view",
			"type": "function"
		},
		{
			"inputs": [],
			"name": "Y_Coord",
			"outputs": [
				{
					"internalType": "uint256",
					"name": "",
					"type": "uint256"
				}
			],
			"stateMutability": "view",
			"type": "function"
		},
		{
			"inputs": [],
			"name": "Y_Coord_Last",
			"outputs": [
				{
					"internalType": "uint256",
					"name": "",
					"type": "uint256"
				}
			],
			"stateMutability": "view",
			"type": "function"
		},
		{
			"inputs": [],
			"name": "Yeq",
			"outputs": [
				{
					"internalType": "uint256",
					"name": "",
					"type": "uint256"
				}
			],
			"stateMutability": "view",
			"type": "function"
		},
		{
			"inputs": [],
			"name": "Ygetp",
			"outputs": [
				{
					"internalType": "uint256",
					"name": "",
					"type": "uint256"
				}
			],
			"stateMutability": "view",
			"type": "function"
		},
		{
			"inputs": [],
			"name": "_swap",
			"outputs": [
				{
					"internalType": "uint256",
					"name": "amountXIn",
					"type": "uint256"
				},
				{
					"internalType": "uint256",
					"name": "amountYIn",
					"type": "uint256"
				}
			],
			"stateMutability": "view",
			"type": "function"
		},
		{
			"inputs": [
				{
					"internalType": "address",
					"name": "",
					"type": "address"
				},
				{
					"internalType": "address",
					"name": "",
					"type": "address"
				}
			],
			"name": "allowance",
			"outputs": [
				{
					"internalType": "uint256",
					"name": "",
					"type": "uint256"
				}
			],
			"stateMutability": "view",
			"type": "function"
		},
		{
			"inputs": [
				{
					"internalType": "address",
					"name": "spender",
					"type": "address"
				},
				{
					"internalType": "uint256",
					"name": "value",
					"type": "uint256"
				}
			],
			"name": "approve",
			"outputs": [
				{
					"internalType": "bool",
					"name": "",
					"type": "bool"
				}
			],
			"stateMutability": "nonpayable",
			"type": "function"
		},
		{
			"inputs": [
				{
					"internalType": "address",
					"name": "",
					"type": "address"
				}
			],
			"name": "balanceOf",
			"outputs": [
				{
					"internalType": "uint256",
					"name": "",
					"type": "uint256"
				}
			],
			"stateMutability": "view",
			"type": "function"
		},
		{
			"inputs": [],
			"name": "const18",
			"outputs": [
				{
					"internalType": "uint256",
					"name": "",
					"type": "uint256"
				}
			],
			"stateMutability": "view",
			"type": "function"
		},
		{
			"inputs": [
				{
					"internalType": "address",
					"name": "",
					"type": "address"
				},
				{
					"internalType": "bool",
					"name": "",
					"type": "bool"
				}
			],
			"name": "debt_index",
			"outputs": [
				{
					"internalType": "address",
					"name": "user_ID",
					"type": "address"
				},
				{
					"internalType": "bool",
					"name": "token_ID",
					"type": "bool"
				},
				{
					"internalType": "uint256",
					"name": "debttoken_amount",
					"type": "uint256"
				},
				{
					"internalType": "uint256",
					"name": "position_amount",
					"type": "uint256"
				}
			],
			"stateMutability": "view",
			"type": "function"
		},
		{
			"inputs": [],
			"name": "decimals",
			"outputs": [
				{
					"internalType": "uint8",
					"name": "",
					"type": "uint8"
				}
			],
			"stateMutability": "view",
			"type": "function"
		},
		{
			"inputs": [],
			"name": "factory",
			"outputs": [
				{
					"internalType": "address",
					"name": "",
					"type": "address"
				}
			],
			"stateMutability": "view",
			"type": "function"
		},
		{
			"inputs": [],
			"name": "fee",
			"outputs": [
				{
					"internalType": "uint256",
					"name": "",
					"type": "uint256"
				}
			],
			"stateMutability": "view",
			"type": "function"
		},
		{
			"inputs": [],
			"name": "funding_Last",
			"outputs": [
				{
					"internalType": "uint256",
					"name": "",
					"type": "uint256"
				}
			],
			"stateMutability": "view",
			"type": "function"
		},
		{
			"inputs": [],
			"name": "funding_x_8h_upper",
			"outputs": [
				{
					"internalType": "uint256",
					"name": "",
					"type": "uint256"
				}
			],
			"stateMutability": "view",
			"type": "function"
		},
		{
			"inputs": [],
			"name": "fundingtime_Last",
			"outputs": [
				{
					"internalType": "uint256",
					"name": "",
					"type": "uint256"
				}
			],
			"stateMutability": "view",
			"type": "function"
		},
		{
			"inputs": [
				{
					"internalType": "address",
					"name": "_tokenX",
					"type": "address"
				},
				{
					"internalType": "address",
					"name": "_tokenY",
					"type": "address"
				}
			],
			"name": "initialize",
			"outputs": [],
			"stateMutability": "nonpayable",
			"type": "function"
		},
		{
			"inputs": [
				{
					"internalType": "address",
					"name": "",
					"type": "address"
				},
				{
					"internalType": "uint256",
					"name": "",
					"type": "uint256"
				}
			],
			"name": "margin_index",
			"outputs": [
				{
					"internalType": "uint256",
					"name": "",
					"type": "uint256"
				}
			],
			"stateMutability": "view",
			"type": "function"
		},
		{
			"inputs": [],
			"name": "name",
			"outputs": [
				{
					"internalType": "string",
					"name": "",
					"type": "string"
				}
			],
			"stateMutability": "view",
			"type": "function"
		},
		{
			"inputs": [
				{
					"internalType": "address",
					"name": "",
					"type": "address"
				}
			],
			"name": "nonces",
			"outputs": [
				{
					"internalType": "uint256",
					"name": "",
					"type": "uint256"
				}
			],
			"stateMutability": "view",
			"type": "function"
		},
		{
			"inputs": [],
			"name": "paying_side_Last",
			"outputs": [
				{
					"internalType": "bool",
					"name": "",
					"type": "bool"
				}
			],
			"stateMutability": "view",
			"type": "function"
		},
		{
			"inputs": [
				{
					"internalType": "address",
					"name": "owner",
					"type": "address"
				},
				{
					"internalType": "address",
					"name": "spender",
					"type": "address"
				},
				{
					"internalType": "uint256",
					"name": "value",
					"type": "uint256"
				},
				{
					"internalType": "uint256",
					"name": "deadline",
					"type": "uint256"
				},
				{
					"internalType": "uint8",
					"name": "v",
					"type": "uint8"
				},
				{
					"internalType": "bytes32",
					"name": "r",
					"type": "bytes32"
				},
				{
					"internalType": "bytes32",
					"name": "s",
					"type": "bytes32"
				}
			],
			"name": "permit",
			"outputs": [],
			"stateMutability": "nonpayable",
			"type": "function"
		},
		{
			"inputs": [
				{
					"internalType": "address",
					"name": "to",
					"type": "address"
				}
			],
			"name": "skim",
			"outputs": [],
			"stateMutability": "nonpayable",
			"type": "function"
		},
		{
			"inputs": [],
			"name": "symbol",
			"outputs": [
				{
					"internalType": "string",
					"name": "",
					"type": "string"
				}
			],
			"stateMutability": "view",
			"type": "function"
		},
		{
			"inputs": [],
			"name": "tokenX",
			"outputs": [
				{
					"internalType": "address",
					"name": "",
					"type": "address"
				}
			],
			"stateMutability": "view",
			"type": "function"
		},
		{
			"inputs": [],
			"name": "tokenY",
			"outputs": [
				{
					"internalType": "address",
					"name": "",
					"type": "address"
				}
			],
			"stateMutability": "view",
			"type": "function"
		},
		{
			"inputs": [],
			"name": "totalSupply",
			"outputs": [
				{
					"internalType": "uint256",
					"name": "",
					"type": "uint256"
				}
			],
			"stateMutability": "view",
			"type": "function"
		},
		{
			"inputs": [
				{
					"internalType": "address",
					"name": "to",
					"type": "address"
				},
				{
					"internalType": "uint256",
					"name": "value",
					"type": "uint256"
				}
			],
			"name": "transfer",
			"outputs": [
				{
					"internalType": "bool",
					"name": "",
					"type": "bool"
				}
			],
			"stateMutability": "nonpayable",
			"type": "function"
		},
		{
			"inputs": [
				{
					"internalType": "address",
					"name": "from",
					"type": "address"
				},
				{
					"internalType": "address",
					"name": "to",
					"type": "address"
				},
				{
					"internalType": "uint256",
					"name": "value",
					"type": "uint256"
				}
			],
			"name": "transferFrom",
			"outputs": [
				{
					"internalType": "bool",
					"name": "",
					"type": "bool"
				}
			],
			"stateMutability": "nonpayable",
			"type": "function"
		}
	]
}