{
	"data": {
		"bytecode": {
			"linkReferences": {},
			"object": "6080604052670de0b6b3a76400006022556001602a556000602b60006101000a81548160ff021916908360ff1602179055503480156200003e57600080fd5b5060004690507f8b73c3c69bb8fe3d512ecc4cf759cc79239f7b179b0ffacaa9a75d522b39400f6040518060400160405280600a81526020017f556e697377617020563200000000000000000000000000000000000000000000815250805190602001206040518060400160405280600181526020017f3100000000000000000000000000000000000000000000000000000000000000815250805190602001208330604051602001620000f79594939291906200018e565b604051602081830303815290604052805190602001206003819055505033601c60006101000a81548173ffffffffffffffffffffffffffffffffffffffff021916908373ffffffffffffffffffffffffffffffffffffffff16021790555062000233565b6200016681620001eb565b82525050565b6200017781620001ff565b82525050565b620001888162000229565b82525050565b600060a082019050620001a560008301886200016c565b620001b460208301876200016c565b620001c360408301866200016c565b620001d260608301856200017d565b620001e160808301846200015b565b9695505050505050565b6000620001f88262000209565b9050919050565b6000819050919050565b600073ffffffffffffffffffffffffffffffffffffffff82169050919050565b6000819050919050565b614c3780620002436000396000f3fe608060405234801561001057600080fd5b50600436106104495760003560e01c80637e11939a11610241578063bc25cf771161013b578063e07b877a116100c3578063f13c7aed11610087578063f13c7aed14610d24578063f738c74e14610d42578063f92e82b014610d60578063fcbc49a014610d7e578063fdcfc3ef14610d9c57610449565b8063e07b877a14610c92578063e0ba722314610cb0578063e159394f14610ccc578063eeea909f14610cea578063ef0348fd14610d0657610449565b8063d505accf1161010a578063d505accf14610bf0578063d6ce29ae14610c0c578063d873fa7b14610c28578063db35944f14610c46578063dd62ed3e14610c6257610449565b8063bc25cf7714610b7a578063be6571aa14610b96578063c45a015514610bb4578063c556c36314610bd257610449565b80639f1d0f59116101c9578063a9059cbb1161018d578063a9059cbb14610ad6578063ade446d214610b06578063b66179de14610b22578063b7d19fc414610b3e578063b868504b14610b5c57610449565b80639f1d0f5914610a42578063a01fbbf514610a5e578063a37b191814610a7c578063a71e864414610a9a578063a79e6f9c14610ab857610449565b806387b21efc1161021057806387b21efc1461099c5780638c4008e9146109cc5780638ca63e6f146109ea57806395d89b4114610a085780639cc8df7714610a2657610449565b80637e11939a146108ff5780637e401aca1461091d5780637ecebe001461094e578063803042ac1461097e57610449565b806332e7c5bf116103525780635784c8c4116102da57806377fef0681161029e57806377fef0681461086d5780637b7c1f4c1461088b5780637bb1128a146108a95780637bb62450146108c55780637bbc292a146108e357610449565b80635784c8c4146107c757806357fb25cc146107e557806362ab1a771461080157806370a082311461081f578063713370fc1461084f57610449565b80633fbb0e9b116103215780633fbb0e9b146107375780634582b988146107535780634bac6c471461076f5780635091fadd1461078b57806354cf2aeb146107a957610449565b806332e7c5bf146106af57806334e19907146106cd5780633644e515146106e9578063367401db1461070757610449565b806328842d4f116103d55780632f1d9842116103a45780632f1d98421461061b57806330adf81f14610637578063313ce5671461065557806331fa66b214610673578063321d7fa91461069157610449565b806328842d4f1461059257806329baf8d9146105ae5780632c4426ad146105cc5780632dafca56146105ff57610449565b80630f529ba21161041c5780630f529ba2146104ea57806315770f921461050857806316dc165b1461052657806318160ddd1461054457806323b872dd1461056257610449565b806306fdde031461044e5780630751a6c81461046c578063095ea7b31461048a5780630e449559146104ba575b600080fd5b610456610db8565b6040516104639190614423565b60405180910390f35b610474610df1565b6040516104819190614505565b60405180910390f35b6104a4600480360381019061049f9190613dd3565b610df7565b6040516104b19190614347565b60405180910390f35b6104d460048036038101906104cf9190613ec0565b610e0e565b6040516104e19190614505565b60405180910390f35b6104f2610e29565b6040516104ff9190614505565b60405180910390f35b610510610e2f565b60405161051d9190614505565b60405180910390f35b61052e610e35565b60405161053b9190614250565b60405180910390f35b61054c610e5b565b6040516105599190614505565b60405180910390f35b61057c60048036038101906105779190613c23565b610e61565b6040516105899190614347565b60405180910390f35b6105ac60048036038101906105a79190613ec0565b61100e565b005b6105b6611072565b6040516105c39190614505565b60405180910390f35b6105e660048036038101906105e19190613d93565b611078565b6040516105f694939291906142d9565b60405180910390f35b61061960048036038101906106149190613e66565b6110e2565b005b61063560048036038101906106309190613ec0565b611159565b005b61063f6111bd565b60405161064c9190614362565b60405180910390f35b61065d6111e4565b60405161066a91906145fc565b60405180910390f35b61067b6111e9565b6040516106889190614347565b60405180910390f35b6106996111fc565b6040516106a69190614505565b60405180910390f35b6106b7611202565b6040516106c49190614505565b60405180910390f35b6106e760048036038101906106e29190613ec0565b611208565b005b6106f161126c565b6040516106fe9190614362565b60405180910390f35b610721600480360381019061071c9190613dd3565b611272565b60405161072e9190614505565b60405180910390f35b610751600480360381019061074c9190613b7c565b61129a565b005b61076d60048036038101906107689190613ec0565b611537565b005b61078960048036038101906107849190613fad565b61159b565b005b61079361171a565b6040516107a09190614505565b60405180910390f35b6107b1611720565b6040516107be9190614505565b60405180910390f35b6107cf611726565b6040516107dc9190614505565b60405180910390f35b6107ff60048036038101906107fa9190613c76565b61172c565b005b6108096118b7565b6040516108169190614250565b60405180910390f35b61083960048036038101906108349190613b4f565b6118dd565b6040516108469190614505565b60405180910390f35b6108576118f5565b6040516108649190614505565b60405180910390f35b6108756118fb565b6040516108829190614505565b60405180910390f35b610893611901565b6040516108a09190614505565b60405180910390f35b6108c360048036038101906108be9190613ec0565b611907565b005b6108cd61196b565b6040516108da9190614505565b60405180910390f35b6108fd60048036038101906108f89190614014565b611971565b005b6109076119e9565b6040516109149190614505565b60405180910390f35b61093760048036038101906109329190613f1a565b6119ef565b604051610945929190614557565b60405180910390f35b61096860048036038101906109639190613b4f565b611b62565b6040516109759190614505565b60405180910390f35b610986611b7a565b6040516109939190614505565b60405180910390f35b6109b660048036038101906109b19190613f5a565b611b80565b6040516109c39190614505565b60405180910390f35b6109d4611c87565b6040516109e19190614505565b60405180910390f35b6109f2611c8d565b6040516109ff9190614505565b60405180910390f35b610a10611c93565b604051610a1d9190614423565b60405180910390f35b610a406004803603810190610a3b9190613ec0565b611ccc565b005b610a5c6004803603810190610a579190613e13565b611d30565b005b610a6661220a565b604051610a739190614505565b60405180910390f35b610a84612210565b604051610a919190614505565b60405180910390f35b610aa2612216565b604051610aaf9190614505565b60405180910390f35b610ac061221c565b604051610acd9190614347565b60405180910390f35b610af06004803603810190610aeb9190613dd3565b61222f565b604051610afd9190614347565b60405180910390f35b610b206004803603810190610b1b9190613ec0565b612246565b005b610b3c6004803603810190610b379190613ec0565b6122aa565b005b610b4661230e565b604051610b539190614250565b60405180910390f35b610b64612334565b604051610b719190614505565b60405180910390f35b610b946004803603810190610b8f9190613b4f565b61233a565b005b610b9e61259c565b604051610bab9190614505565b60405180910390f35b610bbc6125a2565b604051610bc99190614250565b60405180910390f35b610bda6125c8565b604051610be79190614505565b60405180910390f35b610c0a6004803603810190610c059190613cf1565b6125ce565b005b610c266004803603810190610c219190613f5a565b6127f6565b005b610c30612972565b604051610c3d9190614505565b60405180910390f35b610c606004803603810190610c5b9190613b7c565b612978565b005b610c7c6004803603810190610c779190613b7c565b612af1565b604051610c899190614505565b60405180910390f35b610c9a612b16565b604051610ca79190614505565b60405180910390f35b610cca6004803603810190610cc59190613bbc565b612b1c565b005b610cd4612c9b565b604051610ce19190614505565b60405180910390f35b610d046004803603810190610cff9190613f5a565b612ca1565b005b610d0e612e1d565b604051610d1b9190614505565b60405180910390f35b610d2c612e23565b604051610d399190614505565b60405180910390f35b610d4a612e29565b604051610d579190614505565b60405180910390f35b610d68612e2f565b604051610d759190614505565b60405180910390f35b610d86612e35565b604051610d939190614505565b60405180910390f35b610db66004803603810190610db19190613b4f565b612e3b565b005b6040518060400160405280600a81526020017f556e69737761702056320000000000000000000000000000000000000000000081525081565b60165481565b6000610e04338484612ed9565b6001905092915050565b602c8160028110610e1e57600080fd5b016000915090505481565b60065481565b60205481565b601d60009054906101000a900473ffffffffffffffffffffffffffffffffffffffff1681565b60005481565b6000610101600260008673ffffffffffffffffffffffffffffffffffffffff1673ffffffffffffffffffffffffffffffffffffffff16815260200190815260200160002060003373ffffffffffffffffffffffffffffffffffffffff1673ffffffffffffffffffffffffffffffffffffffff1681526020019081526020016000205414610ff857610f7782600260008773ffffffffffffffffffffffffffffffffffffffff1673ffffffffffffffffffffffffffffffffffffffff16815260200190815260200160002060003373ffffffffffffffffffffffffffffffffffffffff1673ffffffffffffffffffffffffffffffffffffffff16815260200190815260200160002054612fc490919063ffffffff16565b600260008673ffffffffffffffffffffffffffffffffffffffff1673ffffffffffffffffffffffffffffffffffffffff16815260200190815260200160002060003373ffffffffffffffffffffffffffffffffffffffff1673ffffffffffffffffffffffffffffffffffffffff168152602001908152602001600020819055505b61100384848461301d565b600190509392505050565b601c60009054906101000a900473ffffffffffffffffffffffffffffffffffffffff1673ffffffffffffffffffffffffffffffffffffffff163373ffffffffffffffffffffffffffffffffffffffff161461106857600080fd5b8060248190555050565b60125481565b602e602052816000526040600020602052806000526040600020600091509150508060000160009054906101000a900473ffffffffffffffffffffffffffffffffffffffff16908060000160149054906101000a900460ff16908060010154908060020154905084565b601c60009054906101000a900473ffffffffffffffffffffffffffffffffffffffff1673ffffffffffffffffffffffffffffffffffffffff163373ffffffffffffffffffffffffffffffffffffffff161461113c57600080fd5b80602960006101000a81548160ff02191690831515021790555050565b601c60009054906101000a900473ffffffffffffffffffffffffffffffffffffffff1673ffffffffffffffffffffffffffffffffffffffff163373ffffffffffffffffffffffffffffffffffffffff16146111b357600080fd5b80601f8190555050565b7f6e71edae12b1b97f4d1f60370fef10105fa2faae0126114a169c64845d6126c960001b81565b601281565b602960009054906101000a900460ff1681565b60195481565b60055481565b601c60009054906101000a900473ffffffffffffffffffffffffffffffffffffffff1673ffffffffffffffffffffffffffffffffffffffff163373ffffffffffffffffffffffffffffffffffffffff161461126257600080fd5b8060278190555050565b60035481565b602f602052816000526040600020816002811061128e57600080fd5b01600091509150505481565b60008273ffffffffffffffffffffffffffffffffffffffff166370a08231306040518263ffffffff1660e01b81526004016112d59190614250565b60206040518083038186803b1580156112ed57600080fd5b505afa158015611301573d6000803e3d6000fd5b505050506040513d601f19601f820116820180604052508101906113259190613eed565b9050601e60009054906101000a900473ffffffffffffffffffffffffffffffffffffffff1673ffffffffffffffffffffffffffffffffffffffff168373ffffffffffffffffffffffffffffffffffffffff16148015611397575060011515602960009054906101000a900460ff161515145b1561146957602c6001600281106113b1576113b0614a1d565b5b0154601154826113c191906148a6565b6113cb91906148a6565b905080602f60008473ffffffffffffffffffffffffffffffffffffffff1673ffffffffffffffffffffffffffffffffffffffff1681526020019081526020016000206001600281106114205761141f614a1d565b5b0160008282546114309190614654565b9250508190555080602c60016002811061144d5761144c614a1d565b5b01600082825461145d9190614654565b92505081905550611532565b602c60006002811061147e5761147d614a1d565b5b01546010548261148e91906148a6565b61149891906148a6565b905080602f60008473ffffffffffffffffffffffffffffffffffffffff1673ffffffffffffffffffffffffffffffffffffffff1681526020019081526020016000206000600281106114ed576114ec614a1d565b5b0160008282546114fd9190614654565b9250508190555080602c60006002811061151a57611519614a1d565b5b01600082825461152a9190614654565b925050819055505b505050565b601c60009054906101000a900473ffffffffffffffffffffffffffffffffffffffff1673ffffffffffffffffffffffffffffffffffffffff163373ffffffffffffffffffffffffffffffffffffffff161461159157600080fd5b8060288190555050565b6001602a54146115e0576040517f08c379a00000000000000000000000000000000000000000000000000000000081526004016115d7906144e5565b60405180910390fd5b6000602a81905550600080602360009054906101000a900473ffffffffffffffffffffffffffffffffffffffff1673ffffffffffffffffffffffffffffffffffffffff168686868660405160240161163b94939291906145b7565b6040516020818303038152906040527f17dc42ab000000000000000000000000000000000000000000000000000000007bffffffffffffffffffffffffffffffffffffffffffffffffffffffff19166020820180517bffffffffffffffffffffffffffffffffffffffffffffffffffffffff83818316178352505050506040516116c59190614202565b600060405180830381855af49150503d8060008114611700576040519150601f19603f3d011682016040523d82523d6000602084013e611705565b606091505b509150915050506001602a8190555050505050565b60115481565b60275481565b60285481565b601c60009054906101000a900473ffffffffffffffffffffffffffffffffffffffff1673ffffffffffffffffffffffffffffffffffffffff163373ffffffffffffffffffffffffffffffffffffffff161461178657600080fd5b60008284611794919061484c565b1161179e57600080fd5b84601d60006101000a81548173ffffffffffffffffffffffffffffffffffffffff021916908373ffffffffffffffffffffffffffffffffffffffff16021790555083601e60006101000a81548173ffffffffffffffffffffffffffffffffffffffff021916908373ffffffffffffffffffffffffffffffffffffffff1602179055506022546005819055506022546006819055506006546007819055506022546020819055506022546008819055506022546009819055508260108190555081601181905550826002602254611874919061472e565b61187e91906146aa565b600a81905550816002602254611894919061472e565b61189e91906146aa565b600b819055506118b0816022546131b1565b5050505050565b602360009054906101000a900473ffffffffffffffffffffffffffffffffffffffff1681565b60016020528060005260406000206000915090505481565b600e5481565b600c5481565b60245481565b601c60009054906101000a900473ffffffffffffffffffffffffffffffffffffffff1673ffffffffffffffffffffffffffffffffffffffff163373ffffffffffffffffffffffffffffffffffffffff161461196157600080fd5b8060258190555050565b60135481565b601c60009054906101000a900473ffffffffffffffffffffffffffffffffffffffff1673ffffffffffffffffffffffffffffffffffffffff163373ffffffffffffffffffffffffffffffffffffffff16146119cb57600080fd5b80602b60006101000a81548160ff021916908360ff16021790555050565b60225481565b6000806001602a5414611a37576040517f08c379a0000000000000000000000000000000000000000000000000000000008152600401611a2e906144e5565b60405180910390fd5b6000602a81905550611a4e846010546020546132cb565b9150611a5f846011546020546132cb565b9050611a7d60085483601054611a7591906148a6565b6010546132cb565b600881905550611a9f60095482601154611a9791906148a6565b6011546132cb565b60098190555081601054611ab391906148a6565b60108190555080601154611ac791906148a6565b60118190555083602054611adb91906148a6565b602081905550611aeb30856132ed565b611b18601d60009054906101000a900473ffffffffffffffffffffffffffffffffffffffff168484613407565b611b45601e60009054906101000a900473ffffffffffffffffffffffffffffffffffffffff168483613407565b611b4d613591565b6006819055506001602a819055509250929050565b60046020528060005260406000206000915090505481565b60155481565b60006001602a5414611bc7576040517f08c379a0000000000000000000000000000000000000000000000000000000008152600401611bbe906144e5565b60405180910390fd5b6000602a81905550611beb60085485601054611be39190614654565b6010546132cb565b600881905550611c0d60095484601154611c059190614654565b6011546132cb565b600981905550611c22602054856010546132cb565b905080602054611c329190614654565b60208190555083601054611c469190614654565b60108190555082601154611c5a9190614654565b601181905550611c6a82826131b1565b611c72613591565b6006819055506001602a819055509392505050565b60095481565b60085481565b6040518060400160405280600681526020017f554e492d5632000000000000000000000000000000000000000000000000000081525081565b601c60009054906101000a900473ffffffffffffffffffffffffffffffffffffffff1673ffffffffffffffffffffffffffffffffffffffff163373ffffffffffffffffffffffffffffffffffffffff1614611d2657600080fd5b8060218190555050565b6001602a5414611d75576040517f08c379a0000000000000000000000000000000000000000000000000000000008152600401611d6c906144e5565b60405180910390fd5b6000602a81905550600082148015611d8e575060115481105b80611da65750600081148015611da5575060115482105b5b611daf57600080fd5b6000602c600060028110611dc657611dc5614a1d565b5b0154601054611dd59190614654565b601d60009054906101000a900473ffffffffffffffffffffffffffffffffffffffff1673ffffffffffffffffffffffffffffffffffffffff166370a08231306040518263ffffffff1660e01b8152600401611e309190614250565b60206040518083038186803b158015611e4857600080fd5b505afa158015611e5c573d6000803e3d6000fd5b505050506040513d601f19601f82011682018060405250810190611e809190613eed565b611e8a91906148a6565b90506000602c600160028110611ea357611ea2614a1d565b5b0154601154611eb29190614654565b601e60009054906101000a900473ffffffffffffffffffffffffffffffffffffffff1673ffffffffffffffffffffffffffffffffffffffff166370a08231306040518263ffffffff1660e01b8152600401611f0d9190614250565b60206040518083038186803b158015611f2557600080fd5b505afa158015611f39573d6000803e3d6000fd5b505050506040513d601f19601f82011682018060405250810190611f5d9190613eed565b611f6791906148a6565b90506000821180611f785750600081115b611f8157600080fd5b670de0b6b3a7640000602754670de0b6b3a7640000611fa091906148a6565b611faa91906146aa565b82611fb5919061484c565b9150670de0b6b3a7640000602754670de0b6b3a7640000611fd691906148a6565b611fe091906146aa565b81611feb919061484c565b9050600084111561206b57612039601e60009054906101000a900473ffffffffffffffffffffffffffffffffffffffff1686612029846000896135ea565b8461203491906148a6565b613407565b612066601d60009054906101000a900473ffffffffffffffffffffffffffffffffffffffff168686613407565b61216f565b60008311156120e9576120b7601d60009054906101000a900473ffffffffffffffffffffffffffffffffffffffff16866120a785600088613780565b856120b291906148a6565b613407565b6120e4601e60009054906101000a900473ffffffffffffffffffffffffffffffffffffffff168685613407565b61216e565b600082111561212b5761212a601e60009054906101000a900473ffffffffffffffffffffffffffffffffffffffff168661212585600080613780565b613407565b5b600081111561216d5761216c601d60009054906101000a900473ffffffffffffffffffffffffffffffffffffffff1686612167846000806135ea565b613407565b5b5b5b602754670de0b6b3a764000061218591906148a6565b60275483612193919061484c565b61219d91906146aa565b601060008282546121ae9190614654565b92505081905550602754670de0b6b3a76400006121cb91906148a6565b602754826121d9919061484c565b6121e391906146aa565b601160008282546121f49190614654565b9250508190555050506001602a81905550505050565b60145481565b600b5481565b60215481565b601a60009054906101000a900460ff1681565b600061223c33848461301d565b6001905092915050565b601c60009054906101000a900473ffffffffffffffffffffffffffffffffffffffff1673ffffffffffffffffffffffffffffffffffffffff163373ffffffffffffffffffffffffffffffffffffffff16146122a057600080fd5b80601b8190555050565b601c60009054906101000a900473ffffffffffffffffffffffffffffffffffffffff1673ffffffffffffffffffffffffffffffffffffffff163373ffffffffffffffffffffffffffffffffffffffff161461230457600080fd5b8060268190555050565b601e60009054906101000a900473ffffffffffffffffffffffffffffffffffffffff1681565b60105481565b6001602a541461237f576040517f08c379a0000000000000000000000000000000000000000000000000000000008152600401612376906144e5565b60405180910390fd5b6000602a8190555061248c601d60009054906101000a900473ffffffffffffffffffffffffffffffffffffffff1682602c6000600281106123c3576123c2614a1d565b5b01546010546123d29190614654565b601d60009054906101000a900473ffffffffffffffffffffffffffffffffffffffff1673ffffffffffffffffffffffffffffffffffffffff166370a08231306040518263ffffffff1660e01b815260040161242d9190614250565b60206040518083038186803b15801561244557600080fd5b505afa158015612459573d6000803e3d6000fd5b505050506040513d601f19601f8201168201806040525081019061247d9190613eed565b61248791906148a6565b613407565b612591601e60009054906101000a900473ffffffffffffffffffffffffffffffffffffffff1682602c6001600281106124c8576124c7614a1d565b5b01546011546124d79190614654565b601e60009054906101000a900473ffffffffffffffffffffffffffffffffffffffff1673ffffffffffffffffffffffffffffffffffffffff166370a08231306040518263ffffffff1660e01b81526004016125329190614250565b60206040518083038186803b15801561254a57600080fd5b505afa15801561255e573d6000803e3d6000fd5b505050506040513d601f19601f820116820180604052508101906125829190613eed565b61258c91906148a6565b613407565b6001602a8190555050565b600a5481565b601c60009054906101000a900473ffffffffffffffffffffffffffffffffffffffff1681565b601b5481565b42841015612611576040517f08c379a0000000000000000000000000000000000000000000000000000000008152600401612608906144a5565b60405180910390fd5b60006003547f6e71edae12b1b97f4d1f60370fef10105fa2faae0126114a169c64845d6126c960001b898989600460008e73ffffffffffffffffffffffffffffffffffffffff1673ffffffffffffffffffffffffffffffffffffffff168152602001908152602001600020600081548092919061268d9061496c565b919050558a6040516020016126a79695949392919061437d565b604051602081830303815290604052805190602001206040516020016126ce929190614219565b60405160208183030381529060405280519060200120905060006001828686866040516000815260200160405260405161270b94939291906143de565b6020604051602081039080840390855afa15801561272d573d6000803e3d6000fd5b505050602060405103519050600073ffffffffffffffffffffffffffffffffffffffff168173ffffffffffffffffffffffffffffffffffffffff16141580156127a157508873ffffffffffffffffffffffffffffffffffffffff168173ffffffffffffffffffffffffffffffffffffffff16145b6127e0576040517f08c379a00000000000000000000000000000000000000000000000000000000081526004016127d790614465565b60405180910390fd5b6127eb898989612ed9565b505050505050505050565b6001602a541461283b576040517f08c379a0000000000000000000000000000000000000000000000000000000008152600401612832906144e5565b60405180910390fd5b6000602a81905550600080602360009054906101000a900473ffffffffffffffffffffffffffffffffffffffff1673ffffffffffffffffffffffffffffffffffffffff1685858560405160240161289493929190614580565b6040516020818303038152906040527f04a13a9a000000000000000000000000000000000000000000000000000000007bffffffffffffffffffffffffffffffffffffffffffffffffffffffff19166020820180517bffffffffffffffffffffffffffffffffffffffffffffffffffffffff838183161783525050505060405161291e9190614202565b600060405180830381855af49150503d8060008114612959576040519150601f19603f3d011682016040523d82523d6000602084013e61295e565b606091505b509150915050506001602a81905550505050565b600d5481565b6001602a54146129bd576040517f08c379a00000000000000000000000000000000000000000000000000000000081526004016129b4906144e5565b60405180910390fd5b6000602a81905550600080602360009054906101000a900473ffffffffffffffffffffffffffffffffffffffff1673ffffffffffffffffffffffffffffffffffffffff168484604051602401612a1492919061426b565b6040516020818303038152906040527fbf3e6a6f000000000000000000000000000000000000000000000000000000007bffffffffffffffffffffffffffffffffffffffffffffffffffffffff19166020820180517bffffffffffffffffffffffffffffffffffffffffffffffffffffffff8381831617835250505050604051612a9e9190614202565b600060405180830381855af49150503d8060008114612ad9576040519150601f19603f3d011682016040523d82523d6000602084013e612ade565b606091505b509150915050506001602a819055505050565b6002602052816000526040600020602052806000526040600020600091509150505481565b60175481565b6001602a5414612b61576040517f08c379a0000000000000000000000000000000000000000000000000000000008152600401612b58906144e5565b60405180910390fd5b6000602a81905550600080602360009054906101000a900473ffffffffffffffffffffffffffffffffffffffff1673ffffffffffffffffffffffffffffffffffffffff1686868686604051602401612bbc9493929190614294565b6040516020818303038152906040527f2f0ddf43000000000000000000000000000000000000000000000000000000007bffffffffffffffffffffffffffffffffffffffffffffffffffffffff19166020820180517bffffffffffffffffffffffffffffffffffffffffffffffffffffffff8381831617835250505050604051612c469190614202565b600060405180830381855af49150503d8060008114612c81576040519150601f19603f3d011682016040523d82523d6000602084013e612c86565b606091505b509150915050506001602a8190555050505050565b600f5481565b6001602a5414612ce6576040517f08c379a0000000000000000000000000000000000000000000000000000000008152600401612cdd906144e5565b60405180910390fd5b6000602a81905550600080602360009054906101000a900473ffffffffffffffffffffffffffffffffffffffff1673ffffffffffffffffffffffffffffffffffffffff16858585604051602401612d3f93929190614580565b6040516020818303038152906040527f2e411dca000000000000000000000000000000000000000000000000000000007bffffffffffffffffffffffffffffffffffffffffffffffffffffffff19166020820180517bffffffffffffffffffffffffffffffffffffffffffffffffffffffff8381831617835250505050604051612dc99190614202565b600060405180830381855af49150503d8060008114612e04576040519150601f19603f3d011682016040523d82523d6000602084013e612e09565b606091505b509150915050506001602a81905550505050565b60265481565b601f5481565b60075481565b60255481565b60185481565b601c60009054906101000a900473ffffffffffffffffffffffffffffffffffffffff1673ffffffffffffffffffffffffffffffffffffffff163373ffffffffffffffffffffffffffffffffffffffff1614612e9557600080fd5b80602360006101000a81548173ffffffffffffffffffffffffffffffffffffffff021916908373ffffffffffffffffffffffffffffffffffffffff16021790555050565b80600260008573ffffffffffffffffffffffffffffffffffffffff1673ffffffffffffffffffffffffffffffffffffffff16815260200190815260200160002060008473ffffffffffffffffffffffffffffffffffffffff1673ffffffffffffffffffffffffffffffffffffffff168152602001908152602001600020819055508173ffffffffffffffffffffffffffffffffffffffff168373ffffffffffffffffffffffffffffffffffffffff167f8c5be1e5ebec7d5bd14f71427d1e84f3dd0314c0f7b2291e5b200ac8c7c3b92583604051612fb79190614505565b60405180910390a3505050565b6000828284612fd391906148a6565b9150811115613017576040517f08c379a000000000000000000000000000000000000000000000000000000000815260040161300e90614445565b60405180910390fd5b92915050565b61306f81600160008673ffffffffffffffffffffffffffffffffffffffff1673ffffffffffffffffffffffffffffffffffffffff16815260200190815260200160002054612fc490919063ffffffff16565b600160008573ffffffffffffffffffffffffffffffffffffffff1673ffffffffffffffffffffffffffffffffffffffff1681526020019081526020016000208190555061310481600160008573ffffffffffffffffffffffffffffffffffffffff1673ffffffffffffffffffffffffffffffffffffffff1681526020019081526020016000205461391690919063ffffffff16565b600160008473ffffffffffffffffffffffffffffffffffffffff1673ffffffffffffffffffffffffffffffffffffffff168152602001908152602001600020819055508173ffffffffffffffffffffffffffffffffffffffff168373ffffffffffffffffffffffffffffffffffffffff167fddf252ad1be2c89b69c2b068fc378daa952ba7f163c4a11628f55a4df523b3ef836040516131a49190614505565b60405180910390a3505050565b6131c68160005461391690919063ffffffff16565b60008190555061321e81600160008573ffffffffffffffffffffffffffffffffffffffff1673ffffffffffffffffffffffffffffffffffffffff1681526020019081526020016000205461391690919063ffffffff16565b600160008473ffffffffffffffffffffffffffffffffffffffff1673ffffffffffffffffffffffffffffffffffffffff168152602001908152602001600020819055508173ffffffffffffffffffffffffffffffffffffffff16600073ffffffffffffffffffffffffffffffffffffffff167fddf252ad1be2c89b69c2b068fc378daa952ba7f163c4a11628f55a4df523b3ef836040516132bf9190614505565b60405180910390a35050565b60008183856132da919061484c565b6132e491906146aa565b90509392505050565b61333f81600160008573ffffffffffffffffffffffffffffffffffffffff1673ffffffffffffffffffffffffffffffffffffffff16815260200190815260200160002054612fc490919063ffffffff16565b600160008473ffffffffffffffffffffffffffffffffffffffff1673ffffffffffffffffffffffffffffffffffffffff1681526020019081526020016000208190555061339781600054612fc490919063ffffffff16565b600081905550600073ffffffffffffffffffffffffffffffffffffffff168273ffffffffffffffffffffffffffffffffffffffff167fddf252ad1be2c89b69c2b068fc378daa952ba7f163c4a11628f55a4df523b3ef836040516133fb9190614505565b60405180910390a35050565b6000808473ffffffffffffffffffffffffffffffffffffffff166040518060400160405280601981526020017f7472616e7366657228616464726573732c75696e74323536290000000000000081525080519060200120858560405160240161347192919061431e565b604051602081830303815290604052907bffffffffffffffffffffffffffffffffffffffffffffffffffffffff19166020820180517bffffffffffffffffffffffffffffffffffffffffffffffffffffffff83818316178352505050506040516134db9190614202565b6000604051808303816000865af19150503d8060008114613518576040519150601f19603f3d011682016040523d82523d6000602084013e61351d565b606091505b509150915081801561354b575060008151148061354a5750808060200190518101906135499190613e93565b5b5b61358a576040517f08c379a0000000000000000000000000000000000000000000000000000000008152600401613581906144c5565b60405180910390fd5b5050505050565b6000806135c7601054600554600a54601154600554671bc16d674ec800006135b991906148a6565b600b54600e54600f5461396f565b9050602254816007546135da919061484c565b6135e491906146aa565b91505090565b60006001602a5414613631576040517f08c379a0000000000000000000000000000000000000000000000000000000008152600401613628906144e5565b60405180910390fd5b6000602a81905550600080602360009054906101000a900473ffffffffffffffffffffffffffffffffffffffff1673ffffffffffffffffffffffffffffffffffffffff1686868660405160240161368a93929190614520565b6040516020818303038152906040527f2618c20e000000000000000000000000000000000000000000000000000000007bffffffffffffffffffffffffffffffffffffffffffffffffffffffff19166020820180517bffffffffffffffffffffffffffffffffffffffffffffffffffffffff83818316178352505050506040516137149190614202565b600060405180830381855af49150503d806000811461374f576040519150601f19603f3d011682016040523d82523d6000602084013e613754565b606091505b50915091508080602001905181019061376d9190613eed565b925050506001602a819055509392505050565b60006001602a54146137c7576040517f08c379a00000000000000000000000000000000000000000000000000000000081526004016137be906144e5565b60405180910390fd5b6000602a81905550600080602360009054906101000a900473ffffffffffffffffffffffffffffffffffffffff1673ffffffffffffffffffffffffffffffffffffffff1686868660405160240161382093929190614520565b6040516020818303038152906040527fda889aaa000000000000000000000000000000000000000000000000000000007bffffffffffffffffffffffffffffffffffffffffffffffffffffffff19166020820180517bffffffffffffffffffffffffffffffffffffffffffffffffffffffff83818316178352505050506040516138aa9190614202565b600060405180830381855af49150503d80600081146138e5576040519150601f19603f3d011682016040523d82523d6000602084013e6138ea565b606091505b5091509150808060200190518101906139039190613eed565b925050506001602a819055509392505050565b60008282846139259190614654565b9150811015613969576040517f08c379a000000000000000000000000000000000000000000000000000000000815260040161396090614485565b60405180910390fd5b92915050565b60006139c1613982848a8a868a8a6139cf565b760a70c3c40a64e6c51999090b65f67d92400000000000006139a88c8c8c8c8c8c6139cf565b6139b2919061484c565b6139bc91906146aa565b613a2b565b905098975050505050505050565b600083878385876139e0919061484c565b6139ea919061484c565b87898b6139f7919061484c565b613a01919061484c565b613a0b9190614654565b613a15919061484c565b613a1f919061484c565b90509695505050505050565b60006008821115613aa95781905060006001600384613a4a91906146aa565b613a549190614654565b90505b81811015613aa3578091506003816002613a71919061484c565b8283613a7d919061484c565b85613a8891906146aa565b613a929190614654565b613a9c91906146aa565b9050613a57565b50613ab7565b60008214613ab657600190505b5b919050565b600081359050613acb81614b8e565b92915050565b600081359050613ae081614ba5565b92915050565b600081519050613af581614ba5565b92915050565b600081359050613b0a81614bbc565b92915050565b600081359050613b1f81614bd3565b92915050565b600081519050613b3481614bd3565b92915050565b600081359050613b4981614bea565b92915050565b600060208284031215613b6557613b64614a4c565b5b6000613b7384828501613abc565b91505092915050565b60008060408385031215613b9357613b92614a4c565b5b6000613ba185828601613abc565b9250506020613bb285828601613abc565b9150509250929050565b60008060008060808587031215613bd657613bd5614a4c565b5b6000613be487828801613abc565b9450506020613bf587828801613abc565b9350506040613c0687828801613abc565b9250506060613c1787828801613b10565b91505092959194509250565b600080600060608486031215613c3c57613c3b614a4c565b5b6000613c4a86828701613abc565b9350506020613c5b86828701613abc565b9250506040613c6c86828701613b10565b9150509250925092565b600080600080600060a08688031215613c9257613c91614a4c565b5b6000613ca088828901613abc565b9550506020613cb188828901613abc565b9450506040613cc288828901613b10565b9350506060613cd388828901613b10565b9250506080613ce488828901613abc565b9150509295509295909350565b600080600080600080600060e0888a031215613d1057613d0f614a4c565b5b6000613d1e8a828b01613abc565b9750506020613d2f8a828b01613abc565b9650506040613d408a828b01613b10565b9550506060613d518a828b01613b10565b9450506080613d628a828b01613b3a565b93505060a0613d738a828b01613afb565b92505060c0613d848a828b01613afb565b91505092959891949750929550565b60008060408385031215613daa57613da9614a4c565b5b6000613db885828601613abc565b9250506020613dc985828601613ad1565b9150509250929050565b60008060408385031215613dea57613de9614a4c565b5b6000613df885828601613abc565b9250506020613e0985828601613b10565b9150509250929050565b600080600060608486031215613e2c57613e2b614a4c565b5b6000613e3a86828701613abc565b9350506020613e4b86828701613b10565b9250506040613e5c86828701613b10565b9150509250925092565b600060208284031215613e7c57613e7b614a4c565b5b6000613e8a84828501613ad1565b91505092915050565b600060208284031215613ea957613ea8614a4c565b5b6000613eb784828501613ae6565b91505092915050565b600060208284031215613ed657613ed5614a4c565b5b6000613ee484828501613b10565b91505092915050565b600060208284031215613f0357613f02614a4c565b5b6000613f1184828501613b25565b91505092915050565b60008060408385031215613f3157613f30614a4c565b5b6000613f3f85828601613b10565b9250506020613f5085828601613abc565b9150509250929050565b600080600060608486031215613f7357613f72614a4c565b5b6000613f8186828701613b10565b9350506020613f9286828701613b10565b9250506040613fa386828701613abc565b9150509250925092565b60008060008060808587031215613fc757613fc6614a4c565b5b6000613fd587828801613b10565b9450506020613fe687828801613b10565b9350506040613ff787828801613ad1565b925050606061400887828801613abc565b91505092959194509250565b60006020828403121561402a57614029614a4c565b5b600061403884828501613b3a565b91505092915050565b61404a816148da565b82525050565b614059816148ec565b82525050565b614068816148f8565b82525050565b61407f61407a826148f8565b6149b5565b82525050565b600061409082614617565b61409a818561462d565b93506140aa818560208601614939565b80840191505092915050565b60006140c182614622565b6140cb8185614638565b93506140db818560208601614939565b6140e481614a51565b840191505092915050565b60006140fc601583614638565b915061410782614a6f565b602082019050919050565b600061411f601c83614638565b915061412a82614a98565b602082019050919050565b6000614142600283614649565b915061414d82614ac1565b600282019050919050565b6000614165601483614638565b915061417082614aea565b602082019050919050565b6000614188601283614638565b915061419382614b13565b602082019050919050565b60006141ab600f83614638565b91506141b682614b3c565b602082019050919050565b60006141ce600683614638565b91506141d982614b65565b602082019050919050565b6141ed81614922565b82525050565b6141fc8161492c565b82525050565b600061420e8284614085565b915081905092915050565b600061422482614135565b9150614230828561406e565b602082019150614240828461406e565b6020820191508190509392505050565b60006020820190506142656000830184614041565b92915050565b60006040820190506142806000830185614041565b61428d6020830184614041565b9392505050565b60006080820190506142a96000830187614041565b6142b66020830186614041565b6142c36040830185614041565b6142d060608301846141e4565b95945050505050565b60006080820190506142ee6000830187614041565b6142fb6020830186614050565b61430860408301856141e4565b61431560608301846141e4565b95945050505050565b60006040820190506143336000830185614041565b61434060208301846141e4565b9392505050565b600060208201905061435c6000830184614050565b92915050565b6000602082019050614377600083018461405f565b92915050565b600060c082019050614392600083018961405f565b61439f6020830188614041565b6143ac6040830187614041565b6143b960608301866141e4565b6143c660808301856141e4565b6143d360a08301846141e4565b979650505050505050565b60006080820190506143f3600083018761405f565b61440060208301866141f3565b61440d604083018561405f565b61441a606083018461405f565b95945050505050565b6000602082019050818103600083015261443d81846140b6565b905092915050565b6000602082019050818103600083015261445e816140ef565b9050919050565b6000602082019050818103600083015261447e81614112565b9050919050565b6000602082019050818103600083015261449e81614158565b9050919050565b600060208201905081810360008301526144be8161417b565b9050919050565b600060208201905081810360008301526144de8161419e565b9050919050565b600060208201905081810360008301526144fe816141c1565b9050919050565b600060208201905061451a60008301846141e4565b92915050565b600060608201905061453560008301866141e4565b6145426020830185614050565b61454f60408301846141e4565b949350505050565b600060408201905061456c60008301856141e4565b61457960208301846141e4565b9392505050565b600060608201905061459560008301866141e4565b6145a260208301856141e4565b6145af6040830184614041565b949350505050565b60006080820190506145cc60008301876141e4565b6145d960208301866141e4565b6145e66040830185614050565b6145f36060830184614041565b95945050505050565b600060208201905061461160008301846141f3565b92915050565b600081519050919050565b600081519050919050565b600081905092915050565b600082825260208201905092915050565b600081905092915050565b600061465f82614922565b915061466a83614922565b9250827fffffffffffffffffffffffffffffffffffffffffffffffffffffffffffffffff0382111561469f5761469e6149bf565b5b828201905092915050565b60006146b582614922565b91506146c083614922565b9250826146d0576146cf6149ee565b5b828204905092915050565b6000808291508390505b600185111561472557808604811115614701576147006149bf565b5b60018516156147105780820291505b808102905061471e85614a62565b94506146e5565b94509492505050565b600061473982614922565b91506147448361492c565b92506147717fffffffffffffffffffffffffffffffffffffffffffffffffffffffffffffffff8484614779565b905092915050565b6000826147895760019050614845565b816147975760009050614845565b81600181146147ad57600281146147b7576147e6565b6001915050614845565b60ff8411156147c9576147c86149bf565b5b8360020a9150848211156147e0576147df6149bf565b5b50614845565b5060208310610133831016604e8410600b841016171561481b5782820a905083811115614816576148156149bf565b5b614845565b61482884848460016146db565b9250905081840481111561483f5761483e6149bf565b5b81810290505b9392505050565b600061485782614922565b915061486283614922565b9250817fffffffffffffffffffffffffffffffffffffffffffffffffffffffffffffffff048311821515161561489b5761489a6149bf565b5b828202905092915050565b60006148b182614922565b91506148bc83614922565b9250828210156148cf576148ce6149bf565b5b828203905092915050565b60006148e582614902565b9050919050565b60008115159050919050565b6000819050919050565b600073ffffffffffffffffffffffffffffffffffffffff82169050919050565b6000819050919050565b600060ff82169050919050565b60005b8381101561495757808201518184015260208101905061493c565b83811115614966576000848401525b50505050565b600061497782614922565b91507fffffffffffffffffffffffffffffffffffffffffffffffffffffffffffffffff8214156149aa576149a96149bf565b5b600182019050919050565b6000819050919050565b7f4e487b7100000000000000000000000000000000000000000000000000000000600052601160045260246000fd5b7f4e487b7100000000000000000000000000000000000000000000000000000000600052601260045260246000fd5b7f4e487b7100000000000000000000000000000000000000000000000000000000600052603260045260246000fd5b600080fd5b6000601f19601f8301169050919050565b60008160011c9050919050565b7f64732d6d6174682d7375622d756e646572666c6f770000000000000000000000600082015250565b7f556e697377617056323a20494e56414c49445f5349474e415455524500000000600082015250565b7f1901000000000000000000000000000000000000000000000000000000000000600082015250565b7f64732d6d6174682d6164642d6f766572666c6f77000000000000000000000000600082015250565b7f556e697377617056323a20455850495245440000000000000000000000000000600082015250565b7f5452414e534645525f4641494c45440000000000000000000000000000000000600082015250565b7f4c4f434b45440000000000000000000000000000000000000000000000000000600082015250565b614b97816148da565b8114614ba257600080fd5b50565b614bae816148ec565b8114614bb957600080fd5b50565b614bc5816148f8565b8114614bd057600080fd5b50565b614bdc81614922565b8114614be757600080fd5b50565b614bf38161492c565b8114614bfe57600080fd5b5056fea2646970667358221220a92f5aefe27aebb0d44a8a7fefb562510de8b757426c7b5bea458e581bafcbd364736f6c63430008070033",
			"opcodes": "PUSH1 0x80 PUSH1 0x40 MSTORE PUSH8 0xDE0B6B3A7640000 PUSH1 0x22 SSTORE PUSH1 0x1 PUSH1 0x2A SSTORE PUSH1 0x0 PUSH1 0x2B PUSH1 0x0 PUSH2 0x100 EXP DUP2 SLOAD DUP2 PUSH1 0xFF MUL NOT AND SWAP1 DUP4 PUSH1 0xFF AND MUL OR SWAP1 SSTORE POP CALLVALUE DUP1 ISZERO PUSH3 0x3E JUMPI PUSH1 0x0 DUP1 REVERT JUMPDEST POP PUSH1 0x0 CHAINID SWAP1 POP PUSH32 0x8B73C3C69BB8FE3D512ECC4CF759CC79239F7B179B0FFACAA9A75D522B39400F PUSH1 0x40 MLOAD DUP1 PUSH1 0x40 ADD PUSH1 0x40 MSTORE DUP1 PUSH1 0xA DUP2 MSTORE PUSH1 0x20 ADD PUSH32 0x556E697377617020563200000000000000000000000000000000000000000000 DUP2 MSTORE POP DUP1 MLOAD SWAP1 PUSH1 0x20 ADD KECCAK256 PUSH1 0x40 MLOAD DUP1 PUSH1 0x40 ADD PUSH1 0x40 MSTORE DUP1 PUSH1 0x1 DUP2 MSTORE PUSH1 0x20 ADD PUSH32 0x3100000000000000000000000000000000000000000000000000000000000000 DUP2 MSTORE POP DUP1 MLOAD SWAP1 PUSH1 0x20 ADD KECCAK256 DUP4 ADDRESS PUSH1 0x40 MLOAD PUSH1 0x20 ADD PUSH3 0xF7 SWAP6 SWAP5 SWAP4 SWAP3 SWAP2 SWAP1 PUSH3 0x18E JUMP JUMPDEST PUSH1 0x40 MLOAD PUSH1 0x20 DUP2 DUP4 SUB SUB DUP2 MSTORE SWAP1 PUSH1 0x40 MSTORE DUP1 MLOAD SWAP1 PUSH1 0x20 ADD KECCAK256 PUSH1 0x3 DUP2 SWAP1 SSTORE POP POP CALLER PUSH1 0x1C PUSH1 0x0 PUSH2 0x100 EXP DUP2 SLOAD DUP2 PUSH20 0xFFFFFFFFFFFFFFFFFFFFFFFFFFFFFFFFFFFFFFFF MUL NOT AND SWAP1 DUP4 PUSH20 0xFFFFFFFFFFFFFFFFFFFFFFFFFFFFFFFFFFFFFFFF AND MUL OR SWAP1 SSTORE POP PUSH3 0x233 JUMP JUMPDEST PUSH3 0x166 DUP2 PUSH3 0x1EB JUMP JUMPDEST DUP3 MSTORE POP POP JUMP JUMPDEST PUSH3 0x177 DUP2 PUSH3 0x1FF JUMP JUMPDEST DUP3 MSTORE POP POP JUMP JUMPDEST PUSH3 0x188 DUP2 PUSH3 0x229 JUMP JUMPDEST DUP3 MSTORE POP POP JUMP JUMPDEST PUSH1 0x0 PUSH1 0xA0 DUP3 ADD SWAP1 POP PUSH3 0x1A5 PUSH1 0x0 DUP4 ADD DUP9 PUSH3 0x16C JUMP JUMPDEST PUSH3 0x1B4 PUSH1 0x20 DUP4 ADD DUP8 PUSH3 0x16C JUMP JUMPDEST PUSH3 0x1C3 PUSH1 0x40 DUP4 ADD DUP7 PUSH3 0x16C JUMP JUMPDEST PUSH3 0x1D2 PUSH1 0x60 DUP4 ADD DUP6 PUSH3 0x17D JUMP JUMPDEST PUSH3 0x1E1 PUSH1 0x80 DUP4 ADD DUP5 PUSH3 0x15B JUMP JUMPDEST SWAP7 SWAP6 POP POP POP POP POP POP JUMP JUMPDEST PUSH1 0x0 PUSH3 0x1F8 DUP3 PUSH3 0x209 JUMP JUMPDEST SWAP1 POP SWAP2 SWAP1 POP JUMP JUMPDEST PUSH1 0x0 DUP2 SWAP1 POP SWAP2 SWAP1 POP JUMP JUMPDEST PUSH1 0x0 PUSH20 0xFFFFFFFFFFFFFFFFFFFFFFFFFFFFFFFFFFFFFFFF DUP3 AND SWAP1 POP SWAP2 SWAP1 POP JUMP JUMPDEST PUSH1 0x0 DUP2 SWAP1 POP SWAP2 SWAP1 POP JUMP JUMPDEST PUSH2 0x4C37 DUP1 PUSH3 0x243 PUSH1 0x0 CODECOPY PUSH1 0x0 RETURN INVALID PUSH1 0x80 PUSH1 0x40 MSTORE CALLVALUE DUP1 ISZERO PUSH2 0x10 JUMPI PUSH1 0x0 DUP1 REVERT JUMPDEST POP PUSH1 0x4 CALLDATASIZE LT PUSH2 0x449 JUMPI PUSH1 0x0 CALLDATALOAD PUSH1 0xE0 SHR DUP1 PUSH4 0x7E11939A GT PUSH2 0x241 JUMPI DUP1 PUSH4 0xBC25CF77 GT PUSH2 0x13B JUMPI DUP1 PUSH4 0xE07B877A GT PUSH2 0xC3 JUMPI DUP1 PUSH4 0xF13C7AED GT PUSH2 0x87 JUMPI DUP1 PUSH4 0xF13C7AED EQ PUSH2 0xD24 JUMPI DUP1 PUSH4 0xF738C74E EQ PUSH2 0xD42 JUMPI DUP1 PUSH4 0xF92E82B0 EQ PUSH2 0xD60 JUMPI DUP1 PUSH4 0xFCBC49A0 EQ PUSH2 0xD7E JUMPI DUP1 PUSH4 0xFDCFC3EF EQ PUSH2 0xD9C JUMPI PUSH2 0x449 JUMP JUMPDEST DUP1 PUSH4 0xE07B877A EQ PUSH2 0xC92 JUMPI DUP1 PUSH4 0xE0BA7223 EQ PUSH2 0xCB0 JUMPI DUP1 PUSH4 0xE159394F EQ PUSH2 0xCCC JUMPI DUP1 PUSH4 0xEEEA909F EQ PUSH2 0xCEA JUMPI DUP1 PUSH4 0xEF0348FD EQ PUSH2 0xD06 JUMPI PUSH2 0x449 JUMP JUMPDEST DUP1 PUSH4 0xD505ACCF GT PUSH2 0x10A JUMPI DUP1 PUSH4 0xD505ACCF EQ PUSH2 0xBF0 JUMPI DUP1 PUSH4 0xD6CE29AE EQ PUSH2 0xC0C JUMPI DUP1 PUSH4 0xD873FA7B EQ PUSH2 0xC28 JUMPI DUP1 PUSH4 0xDB35944F EQ PUSH2 0xC46 JUMPI DUP1 PUSH4 0xDD62ED3E EQ PUSH2 0xC62 JUMPI PUSH2 0x449 JUMP JUMPDEST DUP1 PUSH4 0xBC25CF77 EQ PUSH2 0xB7A JUMPI DUP1 PUSH4 0xBE6571AA EQ PUSH2 0xB96 JUMPI DUP1 PUSH4 0xC45A0155 EQ PUSH2 0xBB4 JUMPI DUP1 PUSH4 0xC556C363 EQ PUSH2 0xBD2 JUMPI PUSH2 0x449 JUMP JUMPDEST DUP1 PUSH4 0x9F1D0F59 GT PUSH2 0x1C9 JUMPI DUP1 PUSH4 0xA9059CBB GT PUSH2 0x18D JUMPI DUP1 PUSH4 0xA9059CBB EQ PUSH2 0xAD6 JUMPI DUP1 PUSH4 0xADE446D2 EQ PUSH2 0xB06 JUMPI DUP1 PUSH4 0xB66179DE EQ PUSH2 0xB22 JUMPI DUP1 PUSH4 0xB7D19FC4 EQ PUSH2 0xB3E JUMPI DUP1 PUSH4 0xB868504B EQ PUSH2 0xB5C JUMPI PUSH2 0x449 JUMP JUMPDEST DUP1 PUSH4 0x9F1D0F59 EQ PUSH2 0xA42 JUMPI DUP1 PUSH4 0xA01FBBF5 EQ PUSH2 0xA5E JUMPI DUP1 PUSH4 0xA37B1918 EQ PUSH2 0xA7C JUMPI DUP1 PUSH4 0xA71E8644 EQ PUSH2 0xA9A JUMPI DUP1 PUSH4 0xA79E6F9C EQ PUSH2 0xAB8 JUMPI PUSH2 0x449 JUMP JUMPDEST DUP1 PUSH4 0x87B21EFC GT PUSH2 0x210 JUMPI DUP1 PUSH4 0x87B21EFC EQ PUSH2 0x99C JUMPI DUP1 PUSH4 0x8C4008E9 EQ PUSH2 0x9CC JUMPI DUP1 PUSH4 0x8CA63E6F EQ PUSH2 0x9EA JUMPI DUP1 PUSH4 0x95D89B41 EQ PUSH2 0xA08 JUMPI DUP1 PUSH4 0x9CC8DF77 EQ PUSH2 0xA26 JUMPI PUSH2 0x449 JUMP JUMPDEST DUP1 PUSH4 0x7E11939A EQ PUSH2 0x8FF JUMPI DUP1 PUSH4 0x7E401ACA EQ PUSH2 0x91D JUMPI DUP1 PUSH4 0x7ECEBE00 EQ PUSH2 0x94E JUMPI DUP1 PUSH4 0x803042AC EQ PUSH2 0x97E JUMPI PUSH2 0x449 JUMP JUMPDEST DUP1 PUSH4 0x32E7C5BF GT PUSH2 0x352 JUMPI DUP1 PUSH4 0x5784C8C4 GT PUSH2 0x2DA JUMPI DUP1 PUSH4 0x77FEF068 GT PUSH2 0x29E JUMPI DUP1 PUSH4 0x77FEF068 EQ PUSH2 0x86D JUMPI DUP1 PUSH4 0x7B7C1F4C EQ PUSH2 0x88B JUMPI DUP1 PUSH4 0x7BB1128A EQ PUSH2 0x8A9 JUMPI DUP1 PUSH4 0x7BB62450 EQ PUSH2 0x8C5 JUMPI DUP1 PUSH4 0x7BBC292A EQ PUSH2 0x8E3 JUMPI PUSH2 0x449 JUMP JUMPDEST DUP1 PUSH4 0x5784C8C4 EQ PUSH2 0x7C7 JUMPI DUP1 PUSH4 0x57FB25CC EQ PUSH2 0x7E5 JUMPI DUP1 PUSH4 0x62AB1A77 EQ PUSH2 0x801 JUMPI DUP1 PUSH4 0x70A08231 EQ PUSH2 0x81F JUMPI DUP1 PUSH4 0x713370FC EQ PUSH2 0x84F JUMPI PUSH2 0x449 JUMP JUMPDEST DUP1 PUSH4 0x3FBB0E9B GT PUSH2 0x321 JUMPI DUP1 PUSH4 0x3FBB0E9B EQ PUSH2 0x737 JUMPI DUP1 PUSH4 0x4582B988 EQ PUSH2 0x753 JUMPI DUP1 PUSH4 0x4BAC6C47 EQ PUSH2 0x76F JUMPI DUP1 PUSH4 0x5091FADD EQ PUSH2 0x78B JUMPI DUP1 PUSH4 0x54CF2AEB EQ PUSH2 0x7A9 JUMPI PUSH2 0x449 JUMP JUMPDEST DUP1 PUSH4 0x32E7C5BF EQ PUSH2 0x6AF JUMPI DUP1 PUSH4 0x34E19907 EQ PUSH2 0x6CD JUMPI DUP1 PUSH4 0x3644E515 EQ PUSH2 0x6E9 JUMPI DUP1 PUSH4 0x367401DB EQ PUSH2 0x707 JUMPI PUSH2 0x449 JUMP JUMPDEST DUP1 PUSH4 0x28842D4F GT PUSH2 0x3D5 JUMPI DUP1 PUSH4 0x2F1D9842 GT PUSH2 0x3A4 JUMPI DUP1 PUSH4 0x2F1D9842 EQ PUSH2 0x61B JUMPI DUP1 PUSH4 0x30ADF81F EQ PUSH2 0x637 JUMPI DUP1 PUSH4 0x313CE567 EQ PUSH2 0x655 JUMPI DUP1 PUSH4 0x31FA66B2 EQ PUSH2 0x673 JUMPI DUP1 PUSH4 0x321D7FA9 EQ PUSH2 0x691 JUMPI PUSH2 0x449 JUMP JUMPDEST DUP1 PUSH4 0x28842D4F EQ PUSH2 0x592 JUMPI DUP1 PUSH4 0x29BAF8D9 EQ PUSH2 0x5AE JUMPI DUP1 PUSH4 0x2C4426AD EQ PUSH2 0x5CC JUMPI DUP1 PUSH4 0x2DAFCA56 EQ PUSH2 0x5FF JUMPI PUSH2 0x449 JUMP JUMPDEST DUP1 PUSH4 0xF529BA2 GT PUSH2 0x41C JUMPI DUP1 PUSH4 0xF529BA2 EQ PUSH2 0x4EA JUMPI DUP1 PUSH4 0x15770F92 EQ PUSH2 0x508 JUMPI DUP1 PUSH4 0x16DC165B EQ PUSH2 0x526 JUMPI DUP1 PUSH4 0x18160DDD EQ PUSH2 0x544 JUMPI DUP1 PUSH4 0x23B872DD EQ PUSH2 0x562 JUMPI PUSH2 0x449 JUMP JUMPDEST DUP1 PUSH4 0x6FDDE03 EQ PUSH2 0x44E JUMPI DUP1 PUSH4 0x751A6C8 EQ PUSH2 0x46C JUMPI DUP1 PUSH4 0x95EA7B3 EQ PUSH2 0x48A JUMPI DUP1 PUSH4 0xE449559 EQ PUSH2 0x4BA JUMPI JUMPDEST PUSH1 0x0 DUP1 REVERT JUMPDEST PUSH2 0x456 PUSH2 0xDB8 JUMP JUMPDEST PUSH1 0x40 MLOAD PUSH2 0x463 SWAP2 SWAP1 PUSH2 0x4423 JUMP JUMPDEST PUSH1 0x40 MLOAD DUP1 SWAP2 SUB SWAP1 RETURN JUMPDEST PUSH2 0x474 PUSH2 0xDF1 JUMP JUMPDEST PUSH1 0x40 MLOAD PUSH2 0x481 SWAP2 SWAP1 PUSH2 0x4505 JUMP JUMPDEST PUSH1 0x40 MLOAD DUP1 SWAP2 SUB SWAP1 RETURN JUMPDEST PUSH2 0x4A4 PUSH1 0x4 DUP1 CALLDATASIZE SUB DUP2 ADD SWAP1 PUSH2 0x49F SWAP2 SWAP1 PUSH2 0x3DD3 JUMP JUMPDEST PUSH2 0xDF7 JUMP JUMPDEST PUSH1 0x40 MLOAD PUSH2 0x4B1 SWAP2 SWAP1 PUSH2 0x4347 JUMP JUMPDEST PUSH1 0x40 MLOAD DUP1 SWAP2 SUB SWAP1 RETURN JUMPDEST PUSH2 0x4D4 PUSH1 0x4 DUP1 CALLDATASIZE SUB DUP2 ADD SWAP1 PUSH2 0x4CF SWAP2 SWAP1 PUSH2 0x3EC0 JUMP JUMPDEST PUSH2 0xE0E JUMP JUMPDEST PUSH1 0x40 MLOAD PUSH2 0x4E1 SWAP2 SWAP1 PUSH2 0x4505 JUMP JUMPDEST PUSH1 0x40 MLOAD DUP1 SWAP2 SUB SWAP1 RETURN JUMPDEST PUSH2 0x4F2 PUSH2 0xE29 JUMP JUMPDEST PUSH1 0x40 MLOAD PUSH2 0x4FF SWAP2 SWAP1 PUSH2 0x4505 JUMP JUMPDEST PUSH1 0x40 MLOAD DUP1 SWAP2 SUB SWAP1 RETURN JUMPDEST PUSH2 0x510 PUSH2 0xE2F JUMP JUMPDEST PUSH1 0x40 MLOAD PUSH2 0x51D SWAP2 SWAP1 PUSH2 0x4505 JUMP JUMPDEST PUSH1 0x40 MLOAD DUP1 SWAP2 SUB SWAP1 RETURN JUMPDEST PUSH2 0x52E PUSH2 0xE35 JUMP JUMPDEST PUSH1 0x40 MLOAD PUSH2 0x53B SWAP2 SWAP1 PUSH2 0x4250 JUMP JUMPDEST PUSH1 0x40 MLOAD DUP1 SWAP2 SUB SWAP1 RETURN JUMPDEST PUSH2 0x54C PUSH2 0xE5B JUMP JUMPDEST PUSH1 0x40 MLOAD PUSH2 0x559 SWAP2 SWAP1 PUSH2 0x4505 JUMP JUMPDEST PUSH1 0x40 MLOAD DUP1 SWAP2 SUB SWAP1 RETURN JUMPDEST PUSH2 0x57C PUSH1 0x4 DUP1 CALLDATASIZE SUB DUP2 ADD SWAP1 PUSH2 0x577 SWAP2 SWAP1 PUSH2 0x3C23 JUMP JUMPDEST PUSH2 0xE61 JUMP JUMPDEST PUSH1 0x40 MLOAD PUSH2 0x589 SWAP2 SWAP1 PUSH2 0x4347 JUMP JUMPDEST PUSH1 0x40 MLOAD DUP1 SWAP2 SUB SWAP1 RETURN JUMPDEST PUSH2 0x5AC PUSH1 0x4 DUP1 CALLDATASIZE SUB DUP2 ADD SWAP1 PUSH2 0x5A7 SWAP2 SWAP1 PUSH2 0x3EC0 JUMP JUMPDEST PUSH2 0x100E JUMP JUMPDEST STOP JUMPDEST PUSH2 0x5B6 PUSH2 0x1072 JUMP JUMPDEST PUSH1 0x40 MLOAD PUSH2 0x5C3 SWAP2 SWAP1 PUSH2 0x4505 JUMP JUMPDEST PUSH1 0x40 MLOAD DUP1 SWAP2 SUB SWAP1 RETURN JUMPDEST PUSH2 0x5E6 PUSH1 0x4 DUP1 CALLDATASIZE SUB DUP2 ADD SWAP1 PUSH2 0x5E1 SWAP2 SWAP1 PUSH2 0x3D93 JUMP JUMPDEST PUSH2 0x1078 JUMP JUMPDEST PUSH1 0x40 MLOAD PUSH2 0x5F6 SWAP5 SWAP4 SWAP3 SWAP2 SWAP1 PUSH2 0x42D9 JUMP JUMPDEST PUSH1 0x40 MLOAD DUP1 SWAP2 SUB SWAP1 RETURN JUMPDEST PUSH2 0x619 PUSH1 0x4 DUP1 CALLDATASIZE SUB DUP2 ADD SWAP1 PUSH2 0x614 SWAP2 SWAP1 PUSH2 0x3E66 JUMP JUMPDEST PUSH2 0x10E2 JUMP JUMPDEST STOP JUMPDEST PUSH2 0x635 PUSH1 0x4 DUP1 CALLDATASIZE SUB DUP2 ADD SWAP1 PUSH2 0x630 SWAP2 SWAP1 PUSH2 0x3EC0 JUMP JUMPDEST PUSH2 0x1159 JUMP JUMPDEST STOP JUMPDEST PUSH2 0x63F PUSH2 0x11BD JUMP JUMPDEST PUSH1 0x40 MLOAD PUSH2 0x64C SWAP2 SWAP1 PUSH2 0x4362 JUMP JUMPDEST PUSH1 0x40 MLOAD DUP1 SWAP2 SUB SWAP1 RETURN JUMPDEST PUSH2 0x65D PUSH2 0x11E4 JUMP JUMPDEST PUSH1 0x40 MLOAD PUSH2 0x66A SWAP2 SWAP1 PUSH2 0x45FC JUMP JUMPDEST PUSH1 0x40 MLOAD DUP1 SWAP2 SUB SWAP1 RETURN JUMPDEST PUSH2 0x67B PUSH2 0x11E9 JUMP JUMPDEST PUSH1 0x40 MLOAD PUSH2 0x688 SWAP2 SWAP1 PUSH2 0x4347 JUMP JUMPDEST PUSH1 0x40 MLOAD DUP1 SWAP2 SUB SWAP1 RETURN JUMPDEST PUSH2 0x699 PUSH2 0x11FC JUMP JUMPDEST PUSH1 0x40 MLOAD PUSH2 0x6A6 SWAP2 SWAP1 PUSH2 0x4505 JUMP JUMPDEST PUSH1 0x40 MLOAD DUP1 SWAP2 SUB SWAP1 RETURN JUMPDEST PUSH2 0x6B7 PUSH2 0x1202 JUMP JUMPDEST PUSH1 0x40 MLOAD PUSH2 0x6C4 SWAP2 SWAP1 PUSH2 0x4505 JUMP JUMPDEST PUSH1 0x40 MLOAD DUP1 SWAP2 SUB SWAP1 RETURN JUMPDEST PUSH2 0x6E7 PUSH1 0x4 DUP1 CALLDATASIZE SUB DUP2 ADD SWAP1 PUSH2 0x6E2 SWAP2 SWAP1 PUSH2 0x3EC0 JUMP JUMPDEST PUSH2 0x1208 JUMP JUMPDEST STOP JUMPDEST PUSH2 0x6F1 PUSH2 0x126C JUMP JUMPDEST PUSH1 0x40 MLOAD PUSH2 0x6FE SWAP2 SWAP1 PUSH2 0x4362 JUMP JUMPDEST PUSH1 0x40 MLOAD DUP1 SWAP2 SUB SWAP1 RETURN JUMPDEST PUSH2 0x721 PUSH1 0x4 DUP1 CALLDATASIZE SUB DUP2 ADD SWAP1 PUSH2 0x71C SWAP2 SWAP1 PUSH2 0x3DD3 JUMP JUMPDEST PUSH2 0x1272 JUMP JUMPDEST PUSH1 0x40 MLOAD PUSH2 0x72E SWAP2 SWAP1 PUSH2 0x4505 JUMP JUMPDEST PUSH1 0x40 MLOAD DUP1 SWAP2 SUB SWAP1 RETURN JUMPDEST PUSH2 0x751 PUSH1 0x4 DUP1 CALLDATASIZE SUB DUP2 ADD SWAP1 PUSH2 0x74C SWAP2 SWAP1 PUSH2 0x3B7C JUMP JUMPDEST PUSH2 0x129A JUMP JUMPDEST STOP JUMPDEST PUSH2 0x76D PUSH1 0x4 DUP1 CALLDATASIZE SUB DUP2 ADD SWAP1 PUSH2 0x768 SWAP2 SWAP1 PUSH2 0x3EC0 JUMP JUMPDEST PUSH2 0x1537 JUMP JUMPDEST STOP JUMPDEST PUSH2 0x789 PUSH1 0x4 DUP1 CALLDATASIZE SUB DUP2 ADD SWAP1 PUSH2 0x784 SWAP2 SWAP1 PUSH2 0x3FAD JUMP JUMPDEST PUSH2 0x159B JUMP JUMPDEST STOP JUMPDEST PUSH2 0x793 PUSH2 0x171A JUMP JUMPDEST PUSH1 0x40 MLOAD PUSH2 0x7A0 SWAP2 SWAP1 PUSH2 0x4505 JUMP JUMPDEST PUSH1 0x40 MLOAD DUP1 SWAP2 SUB SWAP1 RETURN JUMPDEST PUSH2 0x7B1 PUSH2 0x1720 JUMP JUMPDEST PUSH1 0x40 MLOAD PUSH2 0x7BE SWAP2 SWAP1 PUSH2 0x4505 JUMP JUMPDEST PUSH1 0x40 MLOAD DUP1 SWAP2 SUB SWAP1 RETURN JUMPDEST PUSH2 0x7CF PUSH2 0x1726 JUMP JUMPDEST PUSH1 0x40 MLOAD PUSH2 0x7DC SWAP2 SWAP1 PUSH2 0x4505 JUMP JUMPDEST PUSH1 0x40 MLOAD DUP1 SWAP2 SUB SWAP1 RETURN JUMPDEST PUSH2 0x7FF PUSH1 0x4 DUP1 CALLDATASIZE SUB DUP2 ADD SWAP1 PUSH2 0x7FA SWAP2 SWAP1 PUSH2 0x3C76 JUMP JUMPDEST PUSH2 0x172C JUMP JUMPDEST STOP JUMPDEST PUSH2 0x809 PUSH2 0x18B7 JUMP JUMPDEST PUSH1 0x40 MLOAD PUSH2 0x816 SWAP2 SWAP1 PUSH2 0x4250 JUMP JUMPDEST PUSH1 0x40 MLOAD DUP1 SWAP2 SUB SWAP1 RETURN JUMPDEST PUSH2 0x839 PUSH1 0x4 DUP1 CALLDATASIZE SUB DUP2 ADD SWAP1 PUSH2 0x834 SWAP2 SWAP1 PUSH2 0x3B4F JUMP JUMPDEST PUSH2 0x18DD JUMP JUMPDEST PUSH1 0x40 MLOAD PUSH2 0x846 SWAP2 SWAP1 PUSH2 0x4505 JUMP JUMPDEST PUSH1 0x40 MLOAD DUP1 SWAP2 SUB SWAP1 RETURN JUMPDEST PUSH2 0x857 PUSH2 0x18F5 JUMP JUMPDEST PUSH1 0x40 MLOAD PUSH2 0x864 SWAP2 SWAP1 PUSH2 0x4505 JUMP JUMPDEST PUSH1 0x40 MLOAD DUP1 SWAP2 SUB SWAP1 RETURN JUMPDEST PUSH2 0x875 PUSH2 0x18FB JUMP JUMPDEST PUSH1 0x40 MLOAD PUSH2 0x882 SWAP2 SWAP1 PUSH2 0x4505 JUMP JUMPDEST PUSH1 0x40 MLOAD DUP1 SWAP2 SUB SWAP1 RETURN JUMPDEST PUSH2 0x893 PUSH2 0x1901 JUMP JUMPDEST PUSH1 0x40 MLOAD PUSH2 0x8A0 SWAP2 SWAP1 PUSH2 0x4505 JUMP JUMPDEST PUSH1 0x40 MLOAD DUP1 SWAP2 SUB SWAP1 RETURN JUMPDEST PUSH2 0x8C3 PUSH1 0x4 DUP1 CALLDATASIZE SUB DUP2 ADD SWAP1 PUSH2 0x8BE SWAP2 SWAP1 PUSH2 0x3EC0 JUMP JUMPDEST PUSH2 0x1907 JUMP JUMPDEST STOP JUMPDEST PUSH2 0x8CD PUSH2 0x196B JUMP JUMPDEST PUSH1 0x40 MLOAD PUSH2 0x8DA SWAP2 SWAP1 PUSH2 0x4505 JUMP JUMPDEST PUSH1 0x40 MLOAD DUP1 SWAP2 SUB SWAP1 RETURN JUMPDEST PUSH2 0x8FD PUSH1 0x4 DUP1 CALLDATASIZE SUB DUP2 ADD SWAP1 PUSH2 0x8F8 SWAP2 SWAP1 PUSH2 0x4014 JUMP JUMPDEST PUSH2 0x1971 JUMP JUMPDEST STOP JUMPDEST PUSH2 0x907 PUSH2 0x19E9 JUMP JUMPDEST PUSH1 0x40 MLOAD PUSH2 0x914 SWAP2 SWAP1 PUSH2 0x4505 JUMP JUMPDEST PUSH1 0x40 MLOAD DUP1 SWAP2 SUB SWAP1 RETURN JUMPDEST PUSH2 0x937 PUSH1 0x4 DUP1 CALLDATASIZE SUB DUP2 ADD SWAP1 PUSH2 0x932 SWAP2 SWAP1 PUSH2 0x3F1A JUMP JUMPDEST PUSH2 0x19EF JUMP JUMPDEST PUSH1 0x40 MLOAD PUSH2 0x945 SWAP3 SWAP2 SWAP1 PUSH2 0x4557 JUMP JUMPDEST PUSH1 0x40 MLOAD DUP1 SWAP2 SUB SWAP1 RETURN JUMPDEST PUSH2 0x968 PUSH1 0x4 DUP1 CALLDATASIZE SUB DUP2 ADD SWAP1 PUSH2 0x963 SWAP2 SWAP1 PUSH2 0x3B4F JUMP JUMPDEST PUSH2 0x1B62 JUMP JUMPDEST PUSH1 0x40 MLOAD PUSH2 0x975 SWAP2 SWAP1 PUSH2 0x4505 JUMP JUMPDEST PUSH1 0x40 MLOAD DUP1 SWAP2 SUB SWAP1 RETURN JUMPDEST PUSH2 0x986 PUSH2 0x1B7A JUMP JUMPDEST PUSH1 0x40 MLOAD PUSH2 0x993 SWAP2 SWAP1 PUSH2 0x4505 JUMP JUMPDEST PUSH1 0x40 MLOAD DUP1 SWAP2 SUB SWAP1 RETURN JUMPDEST PUSH2 0x9B6 PUSH1 0x4 DUP1 CALLDATASIZE SUB DUP2 ADD SWAP1 PUSH2 0x9B1 SWAP2 SWAP1 PUSH2 0x3F5A JUMP JUMPDEST PUSH2 0x1B80 JUMP JUMPDEST PUSH1 0x40 MLOAD PUSH2 0x9C3 SWAP2 SWAP1 PUSH2 0x4505 JUMP JUMPDEST PUSH1 0x40 MLOAD DUP1 SWAP2 SUB SWAP1 RETURN JUMPDEST PUSH2 0x9D4 PUSH2 0x1C87 JUMP JUMPDEST PUSH1 0x40 MLOAD PUSH2 0x9E1 SWAP2 SWAP1 PUSH2 0x4505 JUMP JUMPDEST PUSH1 0x40 MLOAD DUP1 SWAP2 SUB SWAP1 RETURN JUMPDEST PUSH2 0x9F2 PUSH2 0x1C8D JUMP JUMPDEST PUSH1 0x40 MLOAD PUSH2 0x9FF SWAP2 SWAP1 PUSH2 0x4505 JUMP JUMPDEST PUSH1 0x40 MLOAD DUP1 SWAP2 SUB SWAP1 RETURN JUMPDEST PUSH2 0xA10 PUSH2 0x1C93 JUMP JUMPDEST PUSH1 0x40 MLOAD PUSH2 0xA1D SWAP2 SWAP1 PUSH2 0x4423 JUMP JUMPDEST PUSH1 0x40 MLOAD DUP1 SWAP2 SUB SWAP1 RETURN JUMPDEST PUSH2 0xA40 PUSH1 0x4 DUP1 CALLDATASIZE SUB DUP2 ADD SWAP1 PUSH2 0xA3B SWAP2 SWAP1 PUSH2 0x3EC0 JUMP JUMPDEST PUSH2 0x1CCC JUMP JUMPDEST STOP JUMPDEST PUSH2 0xA5C PUSH1 0x4 DUP1 CALLDATASIZE SUB DUP2 ADD SWAP1 PUSH2 0xA57 SWAP2 SWAP1 PUSH2 0x3E13 JUMP JUMPDEST PUSH2 0x1D30 JUMP JUMPDEST STOP JUMPDEST PUSH2 0xA66 PUSH2 0x220A JUMP JUMPDEST PUSH1 0x40 MLOAD PUSH2 0xA73 SWAP2 SWAP1 PUSH2 0x4505 JUMP JUMPDEST PUSH1 0x40 MLOAD DUP1 SWAP2 SUB SWAP1 RETURN JUMPDEST PUSH2 0xA84 PUSH2 0x2210 JUMP JUMPDEST PUSH1 0x40 MLOAD PUSH2 0xA91 SWAP2 SWAP1 PUSH2 0x4505 JUMP JUMPDEST PUSH1 0x40 MLOAD DUP1 SWAP2 SUB SWAP1 RETURN JUMPDEST PUSH2 0xAA2 PUSH2 0x2216 JUMP JUMPDEST PUSH1 0x40 MLOAD PUSH2 0xAAF SWAP2 SWAP1 PUSH2 0x4505 JUMP JUMPDEST PUSH1 0x40 MLOAD DUP1 SWAP2 SUB SWAP1 RETURN JUMPDEST PUSH2 0xAC0 PUSH2 0x221C JUMP JUMPDEST PUSH1 0x40 MLOAD PUSH2 0xACD SWAP2 SWAP1 PUSH2 0x4347 JUMP JUMPDEST PUSH1 0x40 MLOAD DUP1 SWAP2 SUB SWAP1 RETURN JUMPDEST PUSH2 0xAF0 PUSH1 0x4 DUP1 CALLDATASIZE SUB DUP2 ADD SWAP1 PUSH2 0xAEB SWAP2 SWAP1 PUSH2 0x3DD3 JUMP JUMPDEST PUSH2 0x222F JUMP JUMPDEST PUSH1 0x40 MLOAD PUSH2 0xAFD SWAP2 SWAP1 PUSH2 0x4347 JUMP JUMPDEST PUSH1 0x40 MLOAD DUP1 SWAP2 SUB SWAP1 RETURN JUMPDEST PUSH2 0xB20 PUSH1 0x4 DUP1 CALLDATASIZE SUB DUP2 ADD SWAP1 PUSH2 0xB1B SWAP2 SWAP1 PUSH2 0x3EC0 JUMP JUMPDEST PUSH2 0x2246 JUMP JUMPDEST STOP JUMPDEST PUSH2 0xB3C PUSH1 0x4 DUP1 CALLDATASIZE SUB DUP2 ADD SWAP1 PUSH2 0xB37 SWAP2 SWAP1 PUSH2 0x3EC0 JUMP JUMPDEST PUSH2 0x22AA JUMP JUMPDEST STOP JUMPDEST PUSH2 0xB46 PUSH2 0x230E JUMP JUMPDEST PUSH1 0x40 MLOAD PUSH2 0xB53 SWAP2 SWAP1 PUSH2 0x4250 JUMP JUMPDEST PUSH1 0x40 MLOAD DUP1 SWAP2 SUB SWAP1 RETURN JUMPDEST PUSH2 0xB64 PUSH2 0x2334 JUMP JUMPDEST PUSH1 0x40 MLOAD PUSH2 0xB71 SWAP2 SWAP1 PUSH2 0x4505 JUMP JUMPDEST PUSH1 0x40 MLOAD DUP1 SWAP2 SUB SWAP1 RETURN JUMPDEST PUSH2 0xB94 PUSH1 0x4 DUP1 CALLDATASIZE SUB DUP2 ADD SWAP1 PUSH2 0xB8F SWAP2 SWAP1 PUSH2 0x3B4F JUMP JUMPDEST PUSH2 0x233A JUMP JUMPDEST STOP JUMPDEST PUSH2 0xB9E PUSH2 0x259C JUMP JUMPDEST PUSH1 0x40 MLOAD PUSH2 0xBAB SWAP2 SWAP1 PUSH2 0x4505 JUMP JUMPDEST PUSH1 0x40 MLOAD DUP1 SWAP2 SUB SWAP1 RETURN JUMPDEST PUSH2 0xBBC PUSH2 0x25A2 JUMP JUMPDEST PUSH1 0x40 MLOAD PUSH2 0xBC9 SWAP2 SWAP1 PUSH2 0x4250 JUMP JUMPDEST PUSH1 0x40 MLOAD DUP1 SWAP2 SUB SWAP1 RETURN JUMPDEST PUSH2 0xBDA PUSH2 0x25C8 JUMP JUMPDEST PUSH1 0x40 MLOAD PUSH2 0xBE7 SWAP2 SWAP1 PUSH2 0x4505 JUMP JUMPDEST PUSH1 0x40 MLOAD DUP1 SWAP2 SUB SWAP1 RETURN JUMPDEST PUSH2 0xC0A PUSH1 0x4 DUP1 CALLDATASIZE SUB DUP2 ADD SWAP1 PUSH2 0xC05 SWAP2 SWAP1 PUSH2 0x3CF1 JUMP JUMPDEST PUSH2 0x25CE JUMP JUMPDEST STOP JUMPDEST PUSH2 0xC26 PUSH1 0x4 DUP1 CALLDATASIZE SUB DUP2 ADD SWAP1 PUSH2 0xC21 SWAP2 SWAP1 PUSH2 0x3F5A JUMP JUMPDEST PUSH2 0x27F6 JUMP JUMPDEST STOP JUMPDEST PUSH2 0xC30 PUSH2 0x2972 JUMP JUMPDEST PUSH1 0x40 MLOAD PUSH2 0xC3D SWAP2 SWAP1 PUSH2 0x4505 JUMP JUMPDEST PUSH1 0x40 MLOAD DUP1 SWAP2 SUB SWAP1 RETURN JUMPDEST PUSH2 0xC60 PUSH1 0x4 DUP1 CALLDATASIZE SUB DUP2 ADD SWAP1 PUSH2 0xC5B SWAP2 SWAP1 PUSH2 0x3B7C JUMP JUMPDEST PUSH2 0x2978 JUMP JUMPDEST STOP JUMPDEST PUSH2 0xC7C PUSH1 0x4 DUP1 CALLDATASIZE SUB DUP2 ADD SWAP1 PUSH2 0xC77 SWAP2 SWAP1 PUSH2 0x3B7C JUMP JUMPDEST PUSH2 0x2AF1 JUMP JUMPDEST PUSH1 0x40 MLOAD PUSH2 0xC89 SWAP2 SWAP1 PUSH2 0x4505 JUMP JUMPDEST PUSH1 0x40 MLOAD DUP1 SWAP2 SUB SWAP1 RETURN JUMPDEST PUSH2 0xC9A PUSH2 0x2B16 JUMP JUMPDEST PUSH1 0x40 MLOAD PUSH2 0xCA7 SWAP2 SWAP1 PUSH2 0x4505 JUMP JUMPDEST PUSH1 0x40 MLOAD DUP1 SWAP2 SUB SWAP1 RETURN JUMPDEST PUSH2 0xCCA PUSH1 0x4 DUP1 CALLDATASIZE SUB DUP2 ADD SWAP1 PUSH2 0xCC5 SWAP2 SWAP1 PUSH2 0x3BBC JUMP JUMPDEST PUSH2 0x2B1C JUMP JUMPDEST STOP JUMPDEST PUSH2 0xCD4 PUSH2 0x2C9B JUMP JUMPDEST PUSH1 0x40 MLOAD PUSH2 0xCE1 SWAP2 SWAP1 PUSH2 0x4505 JUMP JUMPDEST PUSH1 0x40 MLOAD DUP1 SWAP2 SUB SWAP1 RETURN JUMPDEST PUSH2 0xD04 PUSH1 0x4 DUP1 CALLDATASIZE SUB DUP2 ADD SWAP1 PUSH2 0xCFF SWAP2 SWAP1 PUSH2 0x3F5A JUMP JUMPDEST PUSH2 0x2CA1 JUMP JUMPDEST STOP JUMPDEST PUSH2 0xD0E PUSH2 0x2E1D JUMP JUMPDEST PUSH1 0x40 MLOAD PUSH2 0xD1B SWAP2 SWAP1 PUSH2 0x4505 JUMP JUMPDEST PUSH1 0x40 MLOAD DUP1 SWAP2 SUB SWAP1 RETURN JUMPDEST PUSH2 0xD2C PUSH2 0x2E23 JUMP JUMPDEST PUSH1 0x40 MLOAD PUSH2 0xD39 SWAP2 SWAP1 PUSH2 0x4505 JUMP JUMPDEST PUSH1 0x40 MLOAD DUP1 SWAP2 SUB SWAP1 RETURN JUMPDEST PUSH2 0xD4A PUSH2 0x2E29 JUMP JUMPDEST PUSH1 0x40 MLOAD PUSH2 0xD57 SWAP2 SWAP1 PUSH2 0x4505 JUMP JUMPDEST PUSH1 0x40 MLOAD DUP1 SWAP2 SUB SWAP1 RETURN JUMPDEST PUSH2 0xD68 PUSH2 0x2E2F JUMP JUMPDEST PUSH1 0x40 MLOAD PUSH2 0xD75 SWAP2 SWAP1 PUSH2 0x4505 JUMP JUMPDEST PUSH1 0x40 MLOAD DUP1 SWAP2 SUB SWAP1 RETURN JUMPDEST PUSH2 0xD86 PUSH2 0x2E35 JUMP JUMPDEST PUSH1 0x40 MLOAD PUSH2 0xD93 SWAP2 SWAP1 PUSH2 0x4505 JUMP JUMPDEST PUSH1 0x40 MLOAD DUP1 SWAP2 SUB SWAP1 RETURN JUMPDEST PUSH2 0xDB6 PUSH1 0x4 DUP1 CALLDATASIZE SUB DUP2 ADD SWAP1 PUSH2 0xDB1 SWAP2 SWAP1 PUSH2 0x3B4F JUMP JUMPDEST PUSH2 0x2E3B JUMP JUMPDEST STOP JUMPDEST PUSH1 0x40 MLOAD DUP1 PUSH1 0x40 ADD PUSH1 0x40 MSTORE DUP1 PUSH1 0xA DUP2 MSTORE PUSH1 0x20 ADD PUSH32 0x556E697377617020563200000000000000000000000000000000000000000000 DUP2 MSTORE POP DUP2 JUMP JUMPDEST PUSH1 0x16 SLOAD DUP2 JUMP JUMPDEST PUSH1 0x0 PUSH2 0xE04 CALLER DUP5 DUP5 PUSH2 0x2ED9 JUMP JUMPDEST PUSH1 0x1 SWAP1 POP SWAP3 SWAP2 POP POP JUMP JUMPDEST PUSH1 0x2C DUP2 PUSH1 0x2 DUP2 LT PUSH2 0xE1E JUMPI PUSH1 0x0 DUP1 REVERT JUMPDEST ADD PUSH1 0x0 SWAP2 POP SWAP1 POP SLOAD DUP2 JUMP JUMPDEST PUSH1 0x6 SLOAD DUP2 JUMP JUMPDEST PUSH1 0x20 SLOAD DUP2 JUMP JUMPDEST PUSH1 0x1D PUSH1 0x0 SWAP1 SLOAD SWAP1 PUSH2 0x100 EXP SWAP1 DIV PUSH20 0xFFFFFFFFFFFFFFFFFFFFFFFFFFFFFFFFFFFFFFFF AND DUP2 JUMP JUMPDEST PUSH1 0x0 SLOAD DUP2 JUMP JUMPDEST PUSH1 0x0 PUSH2 0x101 PUSH1 0x2 PUSH1 0x0 DUP7 PUSH20 0xFFFFFFFFFFFFFFFFFFFFFFFFFFFFFFFFFFFFFFFF AND PUSH20 0xFFFFFFFFFFFFFFFFFFFFFFFFFFFFFFFFFFFFFFFF AND DUP2 MSTORE PUSH1 0x20 ADD SWAP1 DUP2 MSTORE PUSH1 0x20 ADD PUSH1 0x0 KECCAK256 PUSH1 0x0 CALLER PUSH20 0xFFFFFFFFFFFFFFFFFFFFFFFFFFFFFFFFFFFFFFFF AND PUSH20 0xFFFFFFFFFFFFFFFFFFFFFFFFFFFFFFFFFFFFFFFF AND DUP2 MSTORE PUSH1 0x20 ADD SWAP1 DUP2 MSTORE PUSH1 0x20 ADD PUSH1 0x0 KECCAK256 SLOAD EQ PUSH2 0xFF8 JUMPI PUSH2 0xF77 DUP3 PUSH1 0x2 PUSH1 0x0 DUP8 PUSH20 0xFFFFFFFFFFFFFFFFFFFFFFFFFFFFFFFFFFFFFFFF AND PUSH20 0xFFFFFFFFFFFFFFFFFFFFFFFFFFFFFFFFFFFFFFFF AND DUP2 MSTORE PUSH1 0x20 ADD SWAP1 DUP2 MSTORE PUSH1 0x20 ADD PUSH1 0x0 KECCAK256 PUSH1 0x0 CALLER PUSH20 0xFFFFFFFFFFFFFFFFFFFFFFFFFFFFFFFFFFFFFFFF AND PUSH20 0xFFFFFFFFFFFFFFFFFFFFFFFFFFFFFFFFFFFFFFFF AND DUP2 MSTORE PUSH1 0x20 ADD SWAP1 DUP2 MSTORE PUSH1 0x20 ADD PUSH1 0x0 KECCAK256 SLOAD PUSH2 0x2FC4 SWAP1 SWAP2 SWAP1 PUSH4 0xFFFFFFFF AND JUMP JUMPDEST PUSH1 0x2 PUSH1 0x0 DUP7 PUSH20 0xFFFFFFFFFFFFFFFFFFFFFFFFFFFFFFFFFFFFFFFF AND PUSH20 0xFFFFFFFFFFFFFFFFFFFFFFFFFFFFFFFFFFFFFFFF AND DUP2 MSTORE PUSH1 0x20 ADD SWAP1 DUP2 MSTORE PUSH1 0x20 ADD PUSH1 0x0 KECCAK256 PUSH1 0x0 CALLER PUSH20 0xFFFFFFFFFFFFFFFFFFFFFFFFFFFFFFFFFFFFFFFF AND PUSH20 0xFFFFFFFFFFFFFFFFFFFFFFFFFFFFFFFFFFFFFFFF AND DUP2 MSTORE PUSH1 0x20 ADD SWAP1 DUP2 MSTORE PUSH1 0x20 ADD PUSH1 0x0 KECCAK256 DUP2 SWAP1 SSTORE POP JUMPDEST PUSH2 0x1003 DUP5 DUP5 DUP5 PUSH2 0x301D JUMP JUMPDEST PUSH1 0x1 SWAP1 POP SWAP4 SWAP3 POP POP POP JUMP JUMPDEST PUSH1 0x1C PUSH1 0x0 SWAP1 SLOAD SWAP1 PUSH2 0x100 EXP SWAP1 DIV PUSH20 0xFFFFFFFFFFFFFFFFFFFFFFFFFFFFFFFFFFFFFFFF AND PUSH20 0xFFFFFFFFFFFFFFFFFFFFFFFFFFFFFFFFFFFFFFFF AND CALLER PUSH20 0xFFFFFFFFFFFFFFFFFFFFFFFFFFFFFFFFFFFFFFFF AND EQ PUSH2 0x1068 JUMPI PUSH1 0x0 DUP1 REVERT JUMPDEST DUP1 PUSH1 0x24 DUP2 SWAP1 SSTORE POP POP JUMP JUMPDEST PUSH1 0x12 SLOAD DUP2 JUMP JUMPDEST PUSH1 0x2E PUSH1 0x20 MSTORE DUP2 PUSH1 0x0 MSTORE PUSH1 0x40 PUSH1 0x0 KECCAK256 PUSH1 0x20 MSTORE DUP1 PUSH1 0x0 MSTORE PUSH1 0x40 PUSH1 0x0 KECCAK256 PUSH1 0x0 SWAP2 POP SWAP2 POP POP DUP1 PUSH1 0x0 ADD PUSH1 0x0 SWAP1 SLOAD SWAP1 PUSH2 0x100 EXP SWAP1 DIV PUSH20 0xFFFFFFFFFFFFFFFFFFFFFFFFFFFFFFFFFFFFFFFF AND SWAP1 DUP1 PUSH1 0x0 ADD PUSH1 0x14 SWAP1 SLOAD SWAP1 PUSH2 0x100 EXP SWAP1 DIV PUSH1 0xFF AND SWAP1 DUP1 PUSH1 0x1 ADD SLOAD SWAP1 DUP1 PUSH1 0x2 ADD SLOAD SWAP1 POP DUP5 JUMP JUMPDEST PUSH1 0x1C PUSH1 0x0 SWAP1 SLOAD SWAP1 PUSH2 0x100 EXP SWAP1 DIV PUSH20 0xFFFFFFFFFFFFFFFFFFFFFFFFFFFFFFFFFFFFFFFF AND PUSH20 0xFFFFFFFFFFFFFFFFFFFFFFFFFFFFFFFFFFFFFFFF AND CALLER PUSH20 0xFFFFFFFFFFFFFFFFFFFFFFFFFFFFFFFFFFFFFFFF AND EQ PUSH2 0x113C JUMPI PUSH1 0x0 DUP1 REVERT JUMPDEST DUP1 PUSH1 0x29 PUSH1 0x0 PUSH2 0x100 EXP DUP2 SLOAD DUP2 PUSH1 0xFF MUL NOT AND SWAP1 DUP4 ISZERO ISZERO MUL OR SWAP1 SSTORE POP POP JUMP JUMPDEST PUSH1 0x1C PUSH1 0x0 SWAP1 SLOAD SWAP1 PUSH2 0x100 EXP SWAP1 DIV PUSH20 0xFFFFFFFFFFFFFFFFFFFFFFFFFFFFFFFFFFFFFFFF AND PUSH20 0xFFFFFFFFFFFFFFFFFFFFFFFFFFFFFFFFFFFFFFFF AND CALLER PUSH20 0xFFFFFFFFFFFFFFFFFFFFFFFFFFFFFFFFFFFFFFFF AND EQ PUSH2 0x11B3 JUMPI PUSH1 0x0 DUP1 REVERT JUMPDEST DUP1 PUSH1 0x1F DUP2 SWAP1 SSTORE POP POP JUMP JUMPDEST PUSH32 0x6E71EDAE12B1B97F4D1F60370FEF10105FA2FAAE0126114A169C64845D6126C9 PUSH1 0x0 SHL DUP2 JUMP JUMPDEST PUSH1 0x12 DUP2 JUMP JUMPDEST PUSH1 0x29 PUSH1 0x0 SWAP1 SLOAD SWAP1 PUSH2 0x100 EXP SWAP1 DIV PUSH1 0xFF AND DUP2 JUMP JUMPDEST PUSH1 0x19 SLOAD DUP2 JUMP JUMPDEST PUSH1 0x5 SLOAD DUP2 JUMP JUMPDEST PUSH1 0x1C PUSH1 0x0 SWAP1 SLOAD SWAP1 PUSH2 0x100 EXP SWAP1 DIV PUSH20 0xFFFFFFFFFFFFFFFFFFFFFFFFFFFFFFFFFFFFFFFF AND PUSH20 0xFFFFFFFFFFFFFFFFFFFFFFFFFFFFFFFFFFFFFFFF AND CALLER PUSH20 0xFFFFFFFFFFFFFFFFFFFFFFFFFFFFFFFFFFFFFFFF AND EQ PUSH2 0x1262 JUMPI PUSH1 0x0 DUP1 REVERT JUMPDEST DUP1 PUSH1 0x27 DUP2 SWAP1 SSTORE POP POP JUMP JUMPDEST PUSH1 0x3 SLOAD DUP2 JUMP JUMPDEST PUSH1 0x2F PUSH1 0x20 MSTORE DUP2 PUSH1 0x0 MSTORE PUSH1 0x40 PUSH1 0x0 KECCAK256 DUP2 PUSH1 0x2 DUP2 LT PUSH2 0x128E JUMPI PUSH1 0x0 DUP1 REVERT JUMPDEST ADD PUSH1 0x0 SWAP2 POP SWAP2 POP POP SLOAD DUP2 JUMP JUMPDEST PUSH1 0x0 DUP3 PUSH20 0xFFFFFFFFFFFFFFFFFFFFFFFFFFFFFFFFFFFFFFFF AND PUSH4 0x70A08231 ADDRESS PUSH1 0x40 MLOAD DUP3 PUSH4 0xFFFFFFFF AND PUSH1 0xE0 SHL DUP2 MSTORE PUSH1 0x4 ADD PUSH2 0x12D5 SWAP2 SWAP1 PUSH2 0x4250 JUMP JUMPDEST PUSH1 0x20 PUSH1 0x40 MLOAD DUP1 DUP4 SUB DUP2 DUP7 DUP1 EXTCODESIZE ISZERO DUP1 ISZERO PUSH2 0x12ED JUMPI PUSH1 0x0 DUP1 REVERT JUMPDEST POP GAS STATICCALL ISZERO DUP1 ISZERO PUSH2 0x1301 JUMPI RETURNDATASIZE PUSH1 0x0 DUP1 RETURNDATACOPY RETURNDATASIZE PUSH1 0x0 REVERT JUMPDEST POP POP POP POP PUSH1 0x40 MLOAD RETURNDATASIZE PUSH1 0x1F NOT PUSH1 0x1F DUP3 ADD AND DUP3 ADD DUP1 PUSH1 0x40 MSTORE POP DUP2 ADD SWAP1 PUSH2 0x1325 SWAP2 SWAP1 PUSH2 0x3EED JUMP JUMPDEST SWAP1 POP PUSH1 0x1E PUSH1 0x0 SWAP1 SLOAD SWAP1 PUSH2 0x100 EXP SWAP1 DIV PUSH20 0xFFFFFFFFFFFFFFFFFFFFFFFFFFFFFFFFFFFFFFFF AND PUSH20 0xFFFFFFFFFFFFFFFFFFFFFFFFFFFFFFFFFFFFFFFF AND DUP4 PUSH20 0xFFFFFFFFFFFFFFFFFFFFFFFFFFFFFFFFFFFFFFFF AND EQ DUP1 ISZERO PUSH2 0x1397 JUMPI POP PUSH1 0x1 ISZERO ISZERO PUSH1 0x29 PUSH1 0x0 SWAP1 SLOAD SWAP1 PUSH2 0x100 EXP SWAP1 DIV PUSH1 0xFF AND ISZERO ISZERO EQ JUMPDEST ISZERO PUSH2 0x1469 JUMPI PUSH1 0x2C PUSH1 0x1 PUSH1 0x2 DUP2 LT PUSH2 0x13B1 JUMPI PUSH2 0x13B0 PUSH2 0x4A1D JUMP JUMPDEST JUMPDEST ADD SLOAD PUSH1 0x11 SLOAD DUP3 PUSH2 0x13C1 SWAP2 SWAP1 PUSH2 0x48A6 JUMP JUMPDEST PUSH2 0x13CB SWAP2 SWAP1 PUSH2 0x48A6 JUMP JUMPDEST SWAP1 POP DUP1 PUSH1 0x2F PUSH1 0x0 DUP5 PUSH20 0xFFFFFFFFFFFFFFFFFFFFFFFFFFFFFFFFFFFFFFFF AND PUSH20 0xFFFFFFFFFFFFFFFFFFFFFFFFFFFFFFFFFFFFFFFF AND DUP2 MSTORE PUSH1 0x20 ADD SWAP1 DUP2 MSTORE PUSH1 0x20 ADD PUSH1 0x0 KECCAK256 PUSH1 0x1 PUSH1 0x2 DUP2 LT PUSH2 0x1420 JUMPI PUSH2 0x141F PUSH2 0x4A1D JUMP JUMPDEST JUMPDEST ADD PUSH1 0x0 DUP3 DUP3 SLOAD PUSH2 0x1430 SWAP2 SWAP1 PUSH2 0x4654 JUMP JUMPDEST SWAP3 POP POP DUP2 SWAP1 SSTORE POP DUP1 PUSH1 0x2C PUSH1 0x1 PUSH1 0x2 DUP2 LT PUSH2 0x144D JUMPI PUSH2 0x144C PUSH2 0x4A1D JUMP JUMPDEST JUMPDEST ADD PUSH1 0x0 DUP3 DUP3 SLOAD PUSH2 0x145D SWAP2 SWAP1 PUSH2 0x4654 JUMP JUMPDEST SWAP3 POP POP DUP2 SWAP1 SSTORE POP PUSH2 0x1532 JUMP JUMPDEST PUSH1 0x2C PUSH1 0x0 PUSH1 0x2 DUP2 LT PUSH2 0x147E JUMPI PUSH2 0x147D PUSH2 0x4A1D JUMP JUMPDEST JUMPDEST ADD SLOAD PUSH1 0x10 SLOAD DUP3 PUSH2 0x148E SWAP2 SWAP1 PUSH2 0x48A6 JUMP JUMPDEST PUSH2 0x1498 SWAP2 SWAP1 PUSH2 0x48A6 JUMP JUMPDEST SWAP1 POP DUP1 PUSH1 0x2F PUSH1 0x0 DUP5 PUSH20 0xFFFFFFFFFFFFFFFFFFFFFFFFFFFFFFFFFFFFFFFF AND PUSH20 0xFFFFFFFFFFFFFFFFFFFFFFFFFFFFFFFFFFFFFFFF AND DUP2 MSTORE PUSH1 0x20 ADD SWAP1 DUP2 MSTORE PUSH1 0x20 ADD PUSH1 0x0 KECCAK256 PUSH1 0x0 PUSH1 0x2 DUP2 LT PUSH2 0x14ED JUMPI PUSH2 0x14EC PUSH2 0x4A1D JUMP JUMPDEST JUMPDEST ADD PUSH1 0x0 DUP3 DUP3 SLOAD PUSH2 0x14FD SWAP2 SWAP1 PUSH2 0x4654 JUMP JUMPDEST SWAP3 POP POP DUP2 SWAP1 SSTORE POP DUP1 PUSH1 0x2C PUSH1 0x0 PUSH1 0x2 DUP2 LT PUSH2 0x151A JUMPI PUSH2 0x1519 PUSH2 0x4A1D JUMP JUMPDEST JUMPDEST ADD PUSH1 0x0 DUP3 DUP3 SLOAD PUSH2 0x152A SWAP2 SWAP1 PUSH2 0x4654 JUMP JUMPDEST SWAP3 POP POP DUP2 SWAP1 SSTORE POP JUMPDEST POP POP POP JUMP JUMPDEST PUSH1 0x1C PUSH1 0x0 SWAP1 SLOAD SWAP1 PUSH2 0x100 EXP SWAP1 DIV PUSH20 0xFFFFFFFFFFFFFFFFFFFFFFFFFFFFFFFFFFFFFFFF AND PUSH20 0xFFFFFFFFFFFFFFFFFFFFFFFFFFFFFFFFFFFFFFFF AND CALLER PUSH20 0xFFFFFFFFFFFFFFFFFFFFFFFFFFFFFFFFFFFFFFFF AND EQ PUSH2 0x1591 JUMPI PUSH1 0x0 DUP1 REVERT JUMPDEST DUP1 PUSH1 0x28 DUP2 SWAP1 SSTORE POP POP JUMP JUMPDEST PUSH1 0x1 PUSH1 0x2A SLOAD EQ PUSH2 0x15E0 JUMPI PUSH1 0x40 MLOAD PUSH32 0x8C379A000000000000000000000000000000000000000000000000000000000 DUP2 MSTORE PUSH1 0x4 ADD PUSH2 0x15D7 SWAP1 PUSH2 0x44E5 JUMP JUMPDEST PUSH1 0x40 MLOAD DUP1 SWAP2 SUB SWAP1 REVERT JUMPDEST PUSH1 0x0 PUSH1 0x2A DUP2 SWAP1 SSTORE POP PUSH1 0x0 DUP1 PUSH1 0x23 PUSH1 0x0 SWAP1 SLOAD SWAP1 PUSH2 0x100 EXP SWAP1 DIV PUSH20 0xFFFFFFFFFFFFFFFFFFFFFFFFFFFFFFFFFFFFFFFF AND PUSH20 0xFFFFFFFFFFFFFFFFFFFFFFFFFFFFFFFFFFFFFFFF AND DUP7 DUP7 DUP7 DUP7 PUSH1 0x40 MLOAD PUSH1 0x24 ADD PUSH2 0x163B SWAP5 SWAP4 SWAP3 SWAP2 SWAP1 PUSH2 0x45B7 JUMP JUMPDEST PUSH1 0x40 MLOAD PUSH1 0x20 DUP2 DUP4 SUB SUB DUP2 MSTORE SWAP1 PUSH1 0x40 MSTORE PUSH32 0x17DC42AB00000000000000000000000000000000000000000000000000000000 PUSH28 0xFFFFFFFFFFFFFFFFFFFFFFFFFFFFFFFFFFFFFFFFFFFFFFFFFFFFFFFF NOT AND PUSH1 0x20 DUP3 ADD DUP1 MLOAD PUSH28 0xFFFFFFFFFFFFFFFFFFFFFFFFFFFFFFFFFFFFFFFFFFFFFFFFFFFFFFFF DUP4 DUP2 DUP4 AND OR DUP4 MSTORE POP POP POP POP PUSH1 0x40 MLOAD PUSH2 0x16C5 SWAP2 SWAP1 PUSH2 0x4202 JUMP JUMPDEST PUSH1 0x0 PUSH1 0x40 MLOAD DUP1 DUP4 SUB DUP2 DUP6 GAS DELEGATECALL SWAP2 POP POP RETURNDATASIZE DUP1 PUSH1 0x0 DUP2 EQ PUSH2 0x1700 JUMPI PUSH1 0x40 MLOAD SWAP2 POP PUSH1 0x1F NOT PUSH1 0x3F RETURNDATASIZE ADD AND DUP3 ADD PUSH1 0x40 MSTORE RETURNDATASIZE DUP3 MSTORE RETURNDATASIZE PUSH1 0x0 PUSH1 0x20 DUP5 ADD RETURNDATACOPY PUSH2 0x1705 JUMP JUMPDEST PUSH1 0x60 SWAP2 POP JUMPDEST POP SWAP2 POP SWAP2 POP POP POP PUSH1 0x1 PUSH1 0x2A DUP2 SWAP1 SSTORE POP POP POP POP POP JUMP JUMPDEST PUSH1 0x11 SLOAD DUP2 JUMP JUMPDEST PUSH1 0x27 SLOAD DUP2 JUMP JUMPDEST PUSH1 0x28 SLOAD DUP2 JUMP JUMPDEST PUSH1 0x1C PUSH1 0x0 SWAP1 SLOAD SWAP1 PUSH2 0x100 EXP SWAP1 DIV PUSH20 0xFFFFFFFFFFFFFFFFFFFFFFFFFFFFFFFFFFFFFFFF AND PUSH20 0xFFFFFFFFFFFFFFFFFFFFFFFFFFFFFFFFFFFFFFFF AND CALLER PUSH20 0xFFFFFFFFFFFFFFFFFFFFFFFFFFFFFFFFFFFFFFFF AND EQ PUSH2 0x1786 JUMPI PUSH1 0x0 DUP1 REVERT JUMPDEST PUSH1 0x0 DUP3 DUP5 PUSH2 0x1794 SWAP2 SWAP1 PUSH2 0x484C JUMP JUMPDEST GT PUSH2 0x179E JUMPI PUSH1 0x0 DUP1 REVERT JUMPDEST DUP5 PUSH1 0x1D PUSH1 0x0 PUSH2 0x100 EXP DUP2 SLOAD DUP2 PUSH20 0xFFFFFFFFFFFFFFFFFFFFFFFFFFFFFFFFFFFFFFFF MUL NOT AND SWAP1 DUP4 PUSH20 0xFFFFFFFFFFFFFFFFFFFFFFFFFFFFFFFFFFFFFFFF AND MUL OR SWAP1 SSTORE POP DUP4 PUSH1 0x1E PUSH1 0x0 PUSH2 0x100 EXP DUP2 SLOAD DUP2 PUSH20 0xFFFFFFFFFFFFFFFFFFFFFFFFFFFFFFFFFFFFFFFF MUL NOT AND SWAP1 DUP4 PUSH20 0xFFFFFFFFFFFFFFFFFFFFFFFFFFFFFFFFFFFFFFFF AND MUL OR SWAP1 SSTORE POP PUSH1 0x22 SLOAD PUSH1 0x5 DUP2 SWAP1 SSTORE POP PUSH1 0x22 SLOAD PUSH1 0x6 DUP2 SWAP1 SSTORE POP PUSH1 0x6 SLOAD PUSH1 0x7 DUP2 SWAP1 SSTORE POP PUSH1 0x22 SLOAD PUSH1 0x20 DUP2 SWAP1 SSTORE POP PUSH1 0x22 SLOAD PUSH1 0x8 DUP2 SWAP1 SSTORE POP PUSH1 0x22 SLOAD PUSH1 0x9 DUP2 SWAP1 SSTORE POP DUP3 PUSH1 0x10 DUP2 SWAP1 SSTORE POP DUP2 PUSH1 0x11 DUP2 SWAP1 SSTORE POP DUP3 PUSH1 0x2 PUSH1 0x22 SLOAD PUSH2 0x1874 SWAP2 SWAP1 PUSH2 0x472E JUMP JUMPDEST PUSH2 0x187E SWAP2 SWAP1 PUSH2 0x46AA JUMP JUMPDEST PUSH1 0xA DUP2 SWAP1 SSTORE POP DUP2 PUSH1 0x2 PUSH1 0x22 SLOAD PUSH2 0x1894 SWAP2 SWAP1 PUSH2 0x472E JUMP JUMPDEST PUSH2 0x189E SWAP2 SWAP1 PUSH2 0x46AA JUMP JUMPDEST PUSH1 0xB DUP2 SWAP1 SSTORE POP PUSH2 0x18B0 DUP2 PUSH1 0x22 SLOAD PUSH2 0x31B1 JUMP JUMPDEST POP POP POP POP POP JUMP JUMPDEST PUSH1 0x23 PUSH1 0x0 SWAP1 SLOAD SWAP1 PUSH2 0x100 EXP SWAP1 DIV PUSH20 0xFFFFFFFFFFFFFFFFFFFFFFFFFFFFFFFFFFFFFFFF AND DUP2 JUMP JUMPDEST PUSH1 0x1 PUSH1 0x20 MSTORE DUP1 PUSH1 0x0 MSTORE PUSH1 0x40 PUSH1 0x0 KECCAK256 PUSH1 0x0 SWAP2 POP SWAP1 POP SLOAD DUP2 JUMP JUMPDEST PUSH1 0xE SLOAD DUP2 JUMP JUMPDEST PUSH1 0xC SLOAD DUP2 JUMP JUMPDEST PUSH1 0x24 SLOAD DUP2 JUMP JUMPDEST PUSH1 0x1C PUSH1 0x0 SWAP1 SLOAD SWAP1 PUSH2 0x100 EXP SWAP1 DIV PUSH20 0xFFFFFFFFFFFFFFFFFFFFFFFFFFFFFFFFFFFFFFFF AND PUSH20 0xFFFFFFFFFFFFFFFFFFFFFFFFFFFFFFFFFFFFFFFF AND CALLER PUSH20 0xFFFFFFFFFFFFFFFFFFFFFFFFFFFFFFFFFFFFFFFF AND EQ PUSH2 0x1961 JUMPI PUSH1 0x0 DUP1 REVERT JUMPDEST DUP1 PUSH1 0x25 DUP2 SWAP1 SSTORE POP POP JUMP JUMPDEST PUSH1 0x13 SLOAD DUP2 JUMP JUMPDEST PUSH1 0x1C PUSH1 0x0 SWAP1 SLOAD SWAP1 PUSH2 0x100 EXP SWAP1 DIV PUSH20 0xFFFFFFFFFFFFFFFFFFFFFFFFFFFFFFFFFFFFFFFF AND PUSH20 0xFFFFFFFFFFFFFFFFFFFFFFFFFFFFFFFFFFFFFFFF AND CALLER PUSH20 0xFFFFFFFFFFFFFFFFFFFFFFFFFFFFFFFFFFFFFFFF AND EQ PUSH2 0x19CB JUMPI PUSH1 0x0 DUP1 REVERT JUMPDEST DUP1 PUSH1 0x2B PUSH1 0x0 PUSH2 0x100 EXP DUP2 SLOAD DUP2 PUSH1 0xFF MUL NOT AND SWAP1 DUP4 PUSH1 0xFF AND MUL OR SWAP1 SSTORE POP POP JUMP JUMPDEST PUSH1 0x22 SLOAD DUP2 JUMP JUMPDEST PUSH1 0x0 DUP1 PUSH1 0x1 PUSH1 0x2A SLOAD EQ PUSH2 0x1A37 JUMPI PUSH1 0x40 MLOAD PUSH32 0x8C379A000000000000000000000000000000000000000000000000000000000 DUP2 MSTORE PUSH1 0x4 ADD PUSH2 0x1A2E SWAP1 PUSH2 0x44E5 JUMP JUMPDEST PUSH1 0x40 MLOAD DUP1 SWAP2 SUB SWAP1 REVERT JUMPDEST PUSH1 0x0 PUSH1 0x2A DUP2 SWAP1 SSTORE POP PUSH2 0x1A4E DUP5 PUSH1 0x10 SLOAD PUSH1 0x20 SLOAD PUSH2 0x32CB JUMP JUMPDEST SWAP2 POP PUSH2 0x1A5F DUP5 PUSH1 0x11 SLOAD PUSH1 0x20 SLOAD PUSH2 0x32CB JUMP JUMPDEST SWAP1 POP PUSH2 0x1A7D PUSH1 0x8 SLOAD DUP4 PUSH1 0x10 SLOAD PUSH2 0x1A75 SWAP2 SWAP1 PUSH2 0x48A6 JUMP JUMPDEST PUSH1 0x10 SLOAD PUSH2 0x32CB JUMP JUMPDEST PUSH1 0x8 DUP2 SWAP1 SSTORE POP PUSH2 0x1A9F PUSH1 0x9 SLOAD DUP3 PUSH1 0x11 SLOAD PUSH2 0x1A97 SWAP2 SWAP1 PUSH2 0x48A6 JUMP JUMPDEST PUSH1 0x11 SLOAD PUSH2 0x32CB JUMP JUMPDEST PUSH1 0x9 DUP2 SWAP1 SSTORE POP DUP2 PUSH1 0x10 SLOAD PUSH2 0x1AB3 SWAP2 SWAP1 PUSH2 0x48A6 JUMP JUMPDEST PUSH1 0x10 DUP2 SWAP1 SSTORE POP DUP1 PUSH1 0x11 SLOAD PUSH2 0x1AC7 SWAP2 SWAP1 PUSH2 0x48A6 JUMP JUMPDEST PUSH1 0x11 DUP2 SWAP1 SSTORE POP DUP4 PUSH1 0x20 SLOAD PUSH2 0x1ADB SWAP2 SWAP1 PUSH2 0x48A6 JUMP JUMPDEST PUSH1 0x20 DUP2 SWAP1 SSTORE POP PUSH2 0x1AEB ADDRESS DUP6 PUSH2 0x32ED JUMP JUMPDEST PUSH2 0x1B18 PUSH1 0x1D PUSH1 0x0 SWAP1 SLOAD SWAP1 PUSH2 0x100 EXP SWAP1 DIV PUSH20 0xFFFFFFFFFFFFFFFFFFFFFFFFFFFFFFFFFFFFFFFF AND DUP5 DUP5 PUSH2 0x3407 JUMP JUMPDEST PUSH2 0x1B45 PUSH1 0x1E PUSH1 0x0 SWAP1 SLOAD SWAP1 PUSH2 0x100 EXP SWAP1 DIV PUSH20 0xFFFFFFFFFFFFFFFFFFFFFFFFFFFFFFFFFFFFFFFF AND DUP5 DUP4 PUSH2 0x3407 JUMP JUMPDEST PUSH2 0x1B4D PUSH2 0x3591 JUMP JUMPDEST PUSH1 0x6 DUP2 SWAP1 SSTORE POP PUSH1 0x1 PUSH1 0x2A DUP2 SWAP1 SSTORE POP SWAP3 POP SWAP3 SWAP1 POP JUMP JUMPDEST PUSH1 0x4 PUSH1 0x20 MSTORE DUP1 PUSH1 0x0 MSTORE PUSH1 0x40 PUSH1 0x0 KECCAK256 PUSH1 0x0 SWAP2 POP SWAP1 POP SLOAD DUP2 JUMP JUMPDEST PUSH1 0x15 SLOAD DUP2 JUMP JUMPDEST PUSH1 0x0 PUSH1 0x1 PUSH1 0x2A SLOAD EQ PUSH2 0x1BC7 JUMPI PUSH1 0x40 MLOAD PUSH32 0x8C379A000000000000000000000000000000000000000000000000000000000 DUP2 MSTORE PUSH1 0x4 ADD PUSH2 0x1BBE SWAP1 PUSH2 0x44E5 JUMP JUMPDEST PUSH1 0x40 MLOAD DUP1 SWAP2 SUB SWAP1 REVERT JUMPDEST PUSH1 0x0 PUSH1 0x2A DUP2 SWAP1 SSTORE POP PUSH2 0x1BEB PUSH1 0x8 SLOAD DUP6 PUSH1 0x10 SLOAD PUSH2 0x1BE3 SWAP2 SWAP1 PUSH2 0x4654 JUMP JUMPDEST PUSH1 0x10 SLOAD PUSH2 0x32CB JUMP JUMPDEST PUSH1 0x8 DUP2 SWAP1 SSTORE POP PUSH2 0x1C0D PUSH1 0x9 SLOAD DUP5 PUSH1 0x11 SLOAD PUSH2 0x1C05 SWAP2 SWAP1 PUSH2 0x4654 JUMP JUMPDEST PUSH1 0x11 SLOAD PUSH2 0x32CB JUMP JUMPDEST PUSH1 0x9 DUP2 SWAP1 SSTORE POP PUSH2 0x1C22 PUSH1 0x20 SLOAD DUP6 PUSH1 0x10 SLOAD PUSH2 0x32CB JUMP JUMPDEST SWAP1 POP DUP1 PUSH1 0x20 SLOAD PUSH2 0x1C32 SWAP2 SWAP1 PUSH2 0x4654 JUMP JUMPDEST PUSH1 0x20 DUP2 SWAP1 SSTORE POP DUP4 PUSH1 0x10 SLOAD PUSH2 0x1C46 SWAP2 SWAP1 PUSH2 0x4654 JUMP JUMPDEST PUSH1 0x10 DUP2 SWAP1 SSTORE POP DUP3 PUSH1 0x11 SLOAD PUSH2 0x1C5A SWAP2 SWAP1 PUSH2 0x4654 JUMP JUMPDEST PUSH1 0x11 DUP2 SWAP1 SSTORE POP PUSH2 0x1C6A DUP3 DUP3 PUSH2 0x31B1 JUMP JUMPDEST PUSH2 0x1C72 PUSH2 0x3591 JUMP JUMPDEST PUSH1 0x6 DUP2 SWAP1 SSTORE POP PUSH1 0x1 PUSH1 0x2A DUP2 SWAP1 SSTORE POP SWAP4 SWAP3 POP POP POP JUMP JUMPDEST PUSH1 0x9 SLOAD DUP2 JUMP JUMPDEST PUSH1 0x8 SLOAD DUP2 JUMP JUMPDEST PUSH1 0x40 MLOAD DUP1 PUSH1 0x40 ADD PUSH1 0x40 MSTORE DUP1 PUSH1 0x6 DUP2 MSTORE PUSH1 0x20 ADD PUSH32 0x554E492D56320000000000000000000000000000000000000000000000000000 DUP2 MSTORE POP DUP2 JUMP JUMPDEST PUSH1 0x1C PUSH1 0x0 SWAP1 SLOAD SWAP1 PUSH2 0x100 EXP SWAP1 DIV PUSH20 0xFFFFFFFFFFFFFFFFFFFFFFFFFFFFFFFFFFFFFFFF AND PUSH20 0xFFFFFFFFFFFFFFFFFFFFFFFFFFFFFFFFFFFFFFFF AND CALLER PUSH20 0xFFFFFFFFFFFFFFFFFFFFFFFFFFFFFFFFFFFFFFFF AND EQ PUSH2 0x1D26 JUMPI PUSH1 0x0 DUP1 REVERT JUMPDEST DUP1 PUSH1 0x21 DUP2 SWAP1 SSTORE POP POP JUMP JUMPDEST PUSH1 0x1 PUSH1 0x2A SLOAD EQ PUSH2 0x1D75 JUMPI PUSH1 0x40 MLOAD PUSH32 0x8C379A000000000000000000000000000000000000000000000000000000000 DUP2 MSTORE PUSH1 0x4 ADD PUSH2 0x1D6C SWAP1 PUSH2 0x44E5 JUMP JUMPDEST PUSH1 0x40 MLOAD DUP1 SWAP2 SUB SWAP1 REVERT JUMPDEST PUSH1 0x0 PUSH1 0x2A DUP2 SWAP1 SSTORE POP PUSH1 0x0 DUP3 EQ DUP1 ISZERO PUSH2 0x1D8E JUMPI POP PUSH1 0x11 SLOAD DUP2 LT JUMPDEST DUP1 PUSH2 0x1DA6 JUMPI POP PUSH1 0x0 DUP2 EQ DUP1 ISZERO PUSH2 0x1DA5 JUMPI POP PUSH1 0x11 SLOAD DUP3 LT JUMPDEST JUMPDEST PUSH2 0x1DAF JUMPI PUSH1 0x0 DUP1 REVERT JUMPDEST PUSH1 0x0 PUSH1 0x2C PUSH1 0x0 PUSH1 0x2 DUP2 LT PUSH2 0x1DC6 JUMPI PUSH2 0x1DC5 PUSH2 0x4A1D JUMP JUMPDEST JUMPDEST ADD SLOAD PUSH1 0x10 SLOAD PUSH2 0x1DD5 SWAP2 SWAP1 PUSH2 0x4654 JUMP JUMPDEST PUSH1 0x1D PUSH1 0x0 SWAP1 SLOAD SWAP1 PUSH2 0x100 EXP SWAP1 DIV PUSH20 0xFFFFFFFFFFFFFFFFFFFFFFFFFFFFFFFFFFFFFFFF AND PUSH20 0xFFFFFFFFFFFFFFFFFFFFFFFFFFFFFFFFFFFFFFFF AND PUSH4 0x70A08231 ADDRESS PUSH1 0x40 MLOAD DUP3 PUSH4 0xFFFFFFFF AND PUSH1 0xE0 SHL DUP2 MSTORE PUSH1 0x4 ADD PUSH2 0x1E30 SWAP2 SWAP1 PUSH2 0x4250 JUMP JUMPDEST PUSH1 0x20 PUSH1 0x40 MLOAD DUP1 DUP4 SUB DUP2 DUP7 DUP1 EXTCODESIZE ISZERO DUP1 ISZERO PUSH2 0x1E48 JUMPI PUSH1 0x0 DUP1 REVERT JUMPDEST POP GAS STATICCALL ISZERO DUP1 ISZERO PUSH2 0x1E5C JUMPI RETURNDATASIZE PUSH1 0x0 DUP1 RETURNDATACOPY RETURNDATASIZE PUSH1 0x0 REVERT JUMPDEST POP POP POP POP PUSH1 0x40 MLOAD RETURNDATASIZE PUSH1 0x1F NOT PUSH1 0x1F DUP3 ADD AND DUP3 ADD DUP1 PUSH1 0x40 MSTORE POP DUP2 ADD SWAP1 PUSH2 0x1E80 SWAP2 SWAP1 PUSH2 0x3EED JUMP JUMPDEST PUSH2 0x1E8A SWAP2 SWAP1 PUSH2 0x48A6 JUMP JUMPDEST SWAP1 POP PUSH1 0x0 PUSH1 0x2C PUSH1 0x1 PUSH1 0x2 DUP2 LT PUSH2 0x1EA3 JUMPI PUSH2 0x1EA2 PUSH2 0x4A1D JUMP JUMPDEST JUMPDEST ADD SLOAD PUSH1 0x11 SLOAD PUSH2 0x1EB2 SWAP2 SWAP1 PUSH2 0x4654 JUMP JUMPDEST PUSH1 0x1E PUSH1 0x0 SWAP1 SLOAD SWAP1 PUSH2 0x100 EXP SWAP1 DIV PUSH20 0xFFFFFFFFFFFFFFFFFFFFFFFFFFFFFFFFFFFFFFFF AND PUSH20 0xFFFFFFFFFFFFFFFFFFFFFFFFFFFFFFFFFFFFFFFF AND PUSH4 0x70A08231 ADDRESS PUSH1 0x40 MLOAD DUP3 PUSH4 0xFFFFFFFF AND PUSH1 0xE0 SHL DUP2 MSTORE PUSH1 0x4 ADD PUSH2 0x1F0D SWAP2 SWAP1 PUSH2 0x4250 JUMP JUMPDEST PUSH1 0x20 PUSH1 0x40 MLOAD DUP1 DUP4 SUB DUP2 DUP7 DUP1 EXTCODESIZE ISZERO DUP1 ISZERO PUSH2 0x1F25 JUMPI PUSH1 0x0 DUP1 REVERT JUMPDEST POP GAS STATICCALL ISZERO DUP1 ISZERO PUSH2 0x1F39 JUMPI RETURNDATASIZE PUSH1 0x0 DUP1 RETURNDATACOPY RETURNDATASIZE PUSH1 0x0 REVERT JUMPDEST POP POP POP POP PUSH1 0x40 MLOAD RETURNDATASIZE PUSH1 0x1F NOT PUSH1 0x1F DUP3 ADD AND DUP3 ADD DUP1 PUSH1 0x40 MSTORE POP DUP2 ADD SWAP1 PUSH2 0x1F5D SWAP2 SWAP1 PUSH2 0x3EED JUMP JUMPDEST PUSH2 0x1F67 SWAP2 SWAP1 PUSH2 0x48A6 JUMP JUMPDEST SWAP1 POP PUSH1 0x0 DUP3 GT DUP1 PUSH2 0x1F78 JUMPI POP PUSH1 0x0 DUP2 GT JUMPDEST PUSH2 0x1F81 JUMPI PUSH1 0x0 DUP1 REVERT JUMPDEST PUSH8 0xDE0B6B3A7640000 PUSH1 0x27 SLOAD PUSH8 0xDE0B6B3A7640000 PUSH2 0x1FA0 SWAP2 SWAP1 PUSH2 0x48A6 JUMP JUMPDEST PUSH2 0x1FAA SWAP2 SWAP1 PUSH2 0x46AA JUMP JUMPDEST DUP3 PUSH2 0x1FB5 SWAP2 SWAP1 PUSH2 0x484C JUMP JUMPDEST SWAP2 POP PUSH8 0xDE0B6B3A7640000 PUSH1 0x27 SLOAD PUSH8 0xDE0B6B3A7640000 PUSH2 0x1FD6 SWAP2 SWAP1 PUSH2 0x48A6 JUMP JUMPDEST PUSH2 0x1FE0 SWAP2 SWAP1 PUSH2 0x46AA JUMP JUMPDEST DUP2 PUSH2 0x1FEB SWAP2 SWAP1 PUSH2 0x484C JUMP JUMPDEST SWAP1 POP PUSH1 0x0 DUP5 GT ISZERO PUSH2 0x206B JUMPI PUSH2 0x2039 PUSH1 0x1E PUSH1 0x0 SWAP1 SLOAD SWAP1 PUSH2 0x100 EXP SWAP1 DIV PUSH20 0xFFFFFFFFFFFFFFFFFFFFFFFFFFFFFFFFFFFFFFFF AND DUP7 PUSH2 0x2029 DUP5 PUSH1 0x0 DUP10 PUSH2 0x35EA JUMP JUMPDEST DUP5 PUSH2 0x2034 SWAP2 SWAP1 PUSH2 0x48A6 JUMP JUMPDEST PUSH2 0x3407 JUMP JUMPDEST PUSH2 0x2066 PUSH1 0x1D PUSH1 0x0 SWAP1 SLOAD SWAP1 PUSH2 0x100 EXP SWAP1 DIV PUSH20 0xFFFFFFFFFFFFFFFFFFFFFFFFFFFFFFFFFFFFFFFF AND DUP7 DUP7 PUSH2 0x3407 JUMP JUMPDEST PUSH2 0x216F JUMP JUMPDEST PUSH1 0x0 DUP4 GT ISZERO PUSH2 0x20E9 JUMPI PUSH2 0x20B7 PUSH1 0x1D PUSH1 0x0 SWAP1 SLOAD SWAP1 PUSH2 0x100 EXP SWAP1 DIV PUSH20 0xFFFFFFFFFFFFFFFFFFFFFFFFFFFFFFFFFFFFFFFF AND DUP7 PUSH2 0x20A7 DUP6 PUSH1 0x0 DUP9 PUSH2 0x3780 JUMP JUMPDEST DUP6 PUSH2 0x20B2 SWAP2 SWAP1 PUSH2 0x48A6 JUMP JUMPDEST PUSH2 0x3407 JUMP JUMPDEST PUSH2 0x20E4 PUSH1 0x1E PUSH1 0x0 SWAP1 SLOAD SWAP1 PUSH2 0x100 EXP SWAP1 DIV PUSH20 0xFFFFFFFFFFFFFFFFFFFFFFFFFFFFFFFFFFFFFFFF AND DUP7 DUP6 PUSH2 0x3407 JUMP JUMPDEST PUSH2 0x216E JUMP JUMPDEST PUSH1 0x0 DUP3 GT ISZERO PUSH2 0x212B JUMPI PUSH2 0x212A PUSH1 0x1E PUSH1 0x0 SWAP1 SLOAD SWAP1 PUSH2 0x100 EXP SWAP1 DIV PUSH20 0xFFFFFFFFFFFFFFFFFFFFFFFFFFFFFFFFFFFFFFFF AND DUP7 PUSH2 0x2125 DUP6 PUSH1 0x0 DUP1 PUSH2 0x3780 JUMP JUMPDEST PUSH2 0x3407 JUMP JUMPDEST JUMPDEST PUSH1 0x0 DUP2 GT ISZERO PUSH2 0x216D JUMPI PUSH2 0x216C PUSH1 0x1D PUSH1 0x0 SWAP1 SLOAD SWAP1 PUSH2 0x100 EXP SWAP1 DIV PUSH20 0xFFFFFFFFFFFFFFFFFFFFFFFFFFFFFFFFFFFFFFFF AND DUP7 PUSH2 0x2167 DUP5 PUSH1 0x0 DUP1 PUSH2 0x35EA JUMP JUMPDEST PUSH2 0x3407 JUMP JUMPDEST JUMPDEST JUMPDEST JUMPDEST PUSH1 0x27 SLOAD PUSH8 0xDE0B6B3A7640000 PUSH2 0x2185 SWAP2 SWAP1 PUSH2 0x48A6 JUMP JUMPDEST PUSH1 0x27 SLOAD DUP4 PUSH2 0x2193 SWAP2 SWAP1 PUSH2 0x484C JUMP JUMPDEST PUSH2 0x219D SWAP2 SWAP1 PUSH2 0x46AA JUMP JUMPDEST PUSH1 0x10 PUSH1 0x0 DUP3 DUP3 SLOAD PUSH2 0x21AE SWAP2 SWAP1 PUSH2 0x4654 JUMP JUMPDEST SWAP3 POP POP DUP2 SWAP1 SSTORE POP PUSH1 0x27 SLOAD PUSH8 0xDE0B6B3A7640000 PUSH2 0x21CB SWAP2 SWAP1 PUSH2 0x48A6 JUMP JUMPDEST PUSH1 0x27 SLOAD DUP3 PUSH2 0x21D9 SWAP2 SWAP1 PUSH2 0x484C JUMP JUMPDEST PUSH2 0x21E3 SWAP2 SWAP1 PUSH2 0x46AA JUMP JUMPDEST PUSH1 0x11 PUSH1 0x0 DUP3 DUP3 SLOAD PUSH2 0x21F4 SWAP2 SWAP1 PUSH2 0x4654 JUMP JUMPDEST SWAP3 POP POP DUP2 SWAP1 SSTORE POP POP POP PUSH1 0x1 PUSH1 0x2A DUP2 SWAP1 SSTORE POP POP POP POP JUMP JUMPDEST PUSH1 0x14 SLOAD DUP2 JUMP JUMPDEST PUSH1 0xB SLOAD DUP2 JUMP JUMPDEST PUSH1 0x21 SLOAD DUP2 JUMP JUMPDEST PUSH1 0x1A PUSH1 0x0 SWAP1 SLOAD SWAP1 PUSH2 0x100 EXP SWAP1 DIV PUSH1 0xFF AND DUP2 JUMP JUMPDEST PUSH1 0x0 PUSH2 0x223C CALLER DUP5 DUP5 PUSH2 0x301D JUMP JUMPDEST PUSH1 0x1 SWAP1 POP SWAP3 SWAP2 POP POP JUMP JUMPDEST PUSH1 0x1C PUSH1 0x0 SWAP1 SLOAD SWAP1 PUSH2 0x100 EXP SWAP1 DIV PUSH20 0xFFFFFFFFFFFFFFFFFFFFFFFFFFFFFFFFFFFFFFFF AND PUSH20 0xFFFFFFFFFFFFFFFFFFFFFFFFFFFFFFFFFFFFFFFF AND CALLER PUSH20 0xFFFFFFFFFFFFFFFFFFFFFFFFFFFFFFFFFFFFFFFF AND EQ PUSH2 0x22A0 JUMPI PUSH1 0x0 DUP1 REVERT JUMPDEST DUP1 PUSH1 0x1B DUP2 SWAP1 SSTORE POP POP JUMP JUMPDEST PUSH1 0x1C PUSH1 0x0 SWAP1 SLOAD SWAP1 PUSH2 0x100 EXP SWAP1 DIV PUSH20 0xFFFFFFFFFFFFFFFFFFFFFFFFFFFFFFFFFFFFFFFF AND PUSH20 0xFFFFFFFFFFFFFFFFFFFFFFFFFFFFFFFFFFFFFFFF AND CALLER PUSH20 0xFFFFFFFFFFFFFFFFFFFFFFFFFFFFFFFFFFFFFFFF AND EQ PUSH2 0x2304 JUMPI PUSH1 0x0 DUP1 REVERT JUMPDEST DUP1 PUSH1 0x26 DUP2 SWAP1 SSTORE POP POP JUMP JUMPDEST PUSH1 0x1E PUSH1 0x0 SWAP1 SLOAD SWAP1 PUSH2 0x100 EXP SWAP1 DIV PUSH20 0xFFFFFFFFFFFFFFFFFFFFFFFFFFFFFFFFFFFFFFFF AND DUP2 JUMP JUMPDEST PUSH1 0x10 SLOAD DUP2 JUMP JUMPDEST PUSH1 0x1 PUSH1 0x2A SLOAD EQ PUSH2 0x237F JUMPI PUSH1 0x40 MLOAD PUSH32 0x8C379A000000000000000000000000000000000000000000000000000000000 DUP2 MSTORE PUSH1 0x4 ADD PUSH2 0x2376 SWAP1 PUSH2 0x44E5 JUMP JUMPDEST PUSH1 0x40 MLOAD DUP1 SWAP2 SUB SWAP1 REVERT JUMPDEST PUSH1 0x0 PUSH1 0x2A DUP2 SWAP1 SSTORE POP PUSH2 0x248C PUSH1 0x1D PUSH1 0x0 SWAP1 SLOAD SWAP1 PUSH2 0x100 EXP SWAP1 DIV PUSH20 0xFFFFFFFFFFFFFFFFFFFFFFFFFFFFFFFFFFFFFFFF AND DUP3 PUSH1 0x2C PUSH1 0x0 PUSH1 0x2 DUP2 LT PUSH2 0x23C3 JUMPI PUSH2 0x23C2 PUSH2 0x4A1D JUMP JUMPDEST JUMPDEST ADD SLOAD PUSH1 0x10 SLOAD PUSH2 0x23D2 SWAP2 SWAP1 PUSH2 0x4654 JUMP JUMPDEST PUSH1 0x1D PUSH1 0x0 SWAP1 SLOAD SWAP1 PUSH2 0x100 EXP SWAP1 DIV PUSH20 0xFFFFFFFFFFFFFFFFFFFFFFFFFFFFFFFFFFFFFFFF AND PUSH20 0xFFFFFFFFFFFFFFFFFFFFFFFFFFFFFFFFFFFFFFFF AND PUSH4 0x70A08231 ADDRESS PUSH1 0x40 MLOAD DUP3 PUSH4 0xFFFFFFFF AND PUSH1 0xE0 SHL DUP2 MSTORE PUSH1 0x4 ADD PUSH2 0x242D SWAP2 SWAP1 PUSH2 0x4250 JUMP JUMPDEST PUSH1 0x20 PUSH1 0x40 MLOAD DUP1 DUP4 SUB DUP2 DUP7 DUP1 EXTCODESIZE ISZERO DUP1 ISZERO PUSH2 0x2445 JUMPI PUSH1 0x0 DUP1 REVERT JUMPDEST POP GAS STATICCALL ISZERO DUP1 ISZERO PUSH2 0x2459 JUMPI RETURNDATASIZE PUSH1 0x0 DUP1 RETURNDATACOPY RETURNDATASIZE PUSH1 0x0 REVERT JUMPDEST POP POP POP POP PUSH1 0x40 MLOAD RETURNDATASIZE PUSH1 0x1F NOT PUSH1 0x1F DUP3 ADD AND DUP3 ADD DUP1 PUSH1 0x40 MSTORE POP DUP2 ADD SWAP1 PUSH2 0x247D SWAP2 SWAP1 PUSH2 0x3EED JUMP JUMPDEST PUSH2 0x2487 SWAP2 SWAP1 PUSH2 0x48A6 JUMP JUMPDEST PUSH2 0x3407 JUMP JUMPDEST PUSH2 0x2591 PUSH1 0x1E PUSH1 0x0 SWAP1 SLOAD SWAP1 PUSH2 0x100 EXP SWAP1 DIV PUSH20 0xFFFFFFFFFFFFFFFFFFFFFFFFFFFFFFFFFFFFFFFF AND DUP3 PUSH1 0x2C PUSH1 0x1 PUSH1 0x2 DUP2 LT PUSH2 0x24C8 JUMPI PUSH2 0x24C7 PUSH2 0x4A1D JUMP JUMPDEST JUMPDEST ADD SLOAD PUSH1 0x11 SLOAD PUSH2 0x24D7 SWAP2 SWAP1 PUSH2 0x4654 JUMP JUMPDEST PUSH1 0x1E PUSH1 0x0 SWAP1 SLOAD SWAP1 PUSH2 0x100 EXP SWAP1 DIV PUSH20 0xFFFFFFFFFFFFFFFFFFFFFFFFFFFFFFFFFFFFFFFF AND PUSH20 0xFFFFFFFFFFFFFFFFFFFFFFFFFFFFFFFFFFFFFFFF AND PUSH4 0x70A08231 ADDRESS PUSH1 0x40 MLOAD DUP3 PUSH4 0xFFFFFFFF AND PUSH1 0xE0 SHL DUP2 MSTORE PUSH1 0x4 ADD PUSH2 0x2532 SWAP2 SWAP1 PUSH2 0x4250 JUMP JUMPDEST PUSH1 0x20 PUSH1 0x40 MLOAD DUP1 DUP4 SUB DUP2 DUP7 DUP1 EXTCODESIZE ISZERO DUP1 ISZERO PUSH2 0x254A JUMPI PUSH1 0x0 DUP1 REVERT JUMPDEST POP GAS STATICCALL ISZERO DUP1 ISZERO PUSH2 0x255E JUMPI RETURNDATASIZE PUSH1 0x0 DUP1 RETURNDATACOPY RETURNDATASIZE PUSH1 0x0 REVERT JUMPDEST POP POP POP POP PUSH1 0x40 MLOAD RETURNDATASIZE PUSH1 0x1F NOT PUSH1 0x1F DUP3 ADD AND DUP3 ADD DUP1 PUSH1 0x40 MSTORE POP DUP2 ADD SWAP1 PUSH2 0x2582 SWAP2 SWAP1 PUSH2 0x3EED JUMP JUMPDEST PUSH2 0x258C SWAP2 SWAP1 PUSH2 0x48A6 JUMP JUMPDEST PUSH2 0x3407 JUMP JUMPDEST PUSH1 0x1 PUSH1 0x2A DUP2 SWAP1 SSTORE POP POP JUMP JUMPDEST PUSH1 0xA SLOAD DUP2 JUMP JUMPDEST PUSH1 0x1C PUSH1 0x0 SWAP1 SLOAD SWAP1 PUSH2 0x100 EXP SWAP1 DIV PUSH20 0xFFFFFFFFFFFFFFFFFFFFFFFFFFFFFFFFFFFFFFFF AND DUP2 JUMP JUMPDEST PUSH1 0x1B SLOAD DUP2 JUMP JUMPDEST TIMESTAMP DUP5 LT ISZERO PUSH2 0x2611 JUMPI PUSH1 0x40 MLOAD PUSH32 0x8C379A000000000000000000000000000000000000000000000000000000000 DUP2 MSTORE PUSH1 0x4 ADD PUSH2 0x2608 SWAP1 PUSH2 0x44A5 JUMP JUMPDEST PUSH1 0x40 MLOAD DUP1 SWAP2 SUB SWAP1 REVERT JUMPDEST PUSH1 0x0 PUSH1 0x3 SLOAD PUSH32 0x6E71EDAE12B1B97F4D1F60370FEF10105FA2FAAE0126114A169C64845D6126C9 PUSH1 0x0 SHL DUP10 DUP10 DUP10 PUSH1 0x4 PUSH1 0x0 DUP15 PUSH20 0xFFFFFFFFFFFFFFFFFFFFFFFFFFFFFFFFFFFFFFFF AND PUSH20 0xFFFFFFFFFFFFFFFFFFFFFFFFFFFFFFFFFFFFFFFF AND DUP2 MSTORE PUSH1 0x20 ADD SWAP1 DUP2 MSTORE PUSH1 0x20 ADD PUSH1 0x0 KECCAK256 PUSH1 0x0 DUP2 SLOAD DUP1 SWAP3 SWAP2 SWAP1 PUSH2 0x268D SWAP1 PUSH2 0x496C JUMP JUMPDEST SWAP2 SWAP1 POP SSTORE DUP11 PUSH1 0x40 MLOAD PUSH1 0x20 ADD PUSH2 0x26A7 SWAP7 SWAP6 SWAP5 SWAP4 SWAP3 SWAP2 SWAP1 PUSH2 0x437D JUMP JUMPDEST PUSH1 0x40 MLOAD PUSH1 0x20 DUP2 DUP4 SUB SUB DUP2 MSTORE SWAP1 PUSH1 0x40 MSTORE DUP1 MLOAD SWAP1 PUSH1 0x20 ADD KECCAK256 PUSH1 0x40 MLOAD PUSH1 0x20 ADD PUSH2 0x26CE SWAP3 SWAP2 SWAP1 PUSH2 0x4219 JUMP JUMPDEST PUSH1 0x40 MLOAD PUSH1 0x20 DUP2 DUP4 SUB SUB DUP2 MSTORE SWAP1 PUSH1 0x40 MSTORE DUP1 MLOAD SWAP1 PUSH1 0x20 ADD KECCAK256 SWAP1 POP PUSH1 0x0 PUSH1 0x1 DUP3 DUP7 DUP7 DUP7 PUSH1 0x40 MLOAD PUSH1 0x0 DUP2 MSTORE PUSH1 0x20 ADD PUSH1 0x40 MSTORE PUSH1 0x40 MLOAD PUSH2 0x270B SWAP5 SWAP4 SWAP3 SWAP2 SWAP1 PUSH2 0x43DE JUMP JUMPDEST PUSH1 0x20 PUSH1 0x40 MLOAD PUSH1 0x20 DUP2 SUB SWAP1 DUP1 DUP5 SUB SWAP1 DUP6 GAS STATICCALL ISZERO DUP1 ISZERO PUSH2 0x272D JUMPI RETURNDATASIZE PUSH1 0x0 DUP1 RETURNDATACOPY RETURNDATASIZE PUSH1 0x0 REVERT JUMPDEST POP POP POP PUSH1 0x20 PUSH1 0x40 MLOAD SUB MLOAD SWAP1 POP PUSH1 0x0 PUSH20 0xFFFFFFFFFFFFFFFFFFFFFFFFFFFFFFFFFFFFFFFF AND DUP2 PUSH20 0xFFFFFFFFFFFFFFFFFFFFFFFFFFFFFFFFFFFFFFFF AND EQ ISZERO DUP1 ISZERO PUSH2 0x27A1 JUMPI POP DUP9 PUSH20 0xFFFFFFFFFFFFFFFFFFFFFFFFFFFFFFFFFFFFFFFF AND DUP2 PUSH20 0xFFFFFFFFFFFFFFFFFFFFFFFFFFFFFFFFFFFFFFFF AND EQ JUMPDEST PUSH2 0x27E0 JUMPI PUSH1 0x40 MLOAD PUSH32 0x8C379A000000000000000000000000000000000000000000000000000000000 DUP2 MSTORE PUSH1 0x4 ADD PUSH2 0x27D7 SWAP1 PUSH2 0x4465 JUMP JUMPDEST PUSH1 0x40 MLOAD DUP1 SWAP2 SUB SWAP1 REVERT JUMPDEST PUSH2 0x27EB DUP10 DUP10 DUP10 PUSH2 0x2ED9 JUMP JUMPDEST POP POP POP POP POP POP POP POP POP JUMP JUMPDEST PUSH1 0x1 PUSH1 0x2A SLOAD EQ PUSH2 0x283B JUMPI PUSH1 0x40 MLOAD PUSH32 0x8C379A000000000000000000000000000000000000000000000000000000000 DUP2 MSTORE PUSH1 0x4 ADD PUSH2 0x2832 SWAP1 PUSH2 0x44E5 JUMP JUMPDEST PUSH1 0x40 MLOAD DUP1 SWAP2 SUB SWAP1 REVERT JUMPDEST PUSH1 0x0 PUSH1 0x2A DUP2 SWAP1 SSTORE POP PUSH1 0x0 DUP1 PUSH1 0x23 PUSH1 0x0 SWAP1 SLOAD SWAP1 PUSH2 0x100 EXP SWAP1 DIV PUSH20 0xFFFFFFFFFFFFFFFFFFFFFFFFFFFFFFFFFFFFFFFF AND PUSH20 0xFFFFFFFFFFFFFFFFFFFFFFFFFFFFFFFFFFFFFFFF AND DUP6 DUP6 DUP6 PUSH1 0x40 MLOAD PUSH1 0x24 ADD PUSH2 0x2894 SWAP4 SWAP3 SWAP2 SWAP1 PUSH2 0x4580 JUMP JUMPDEST PUSH1 0x40 MLOAD PUSH1 0x20 DUP2 DUP4 SUB SUB DUP2 MSTORE SWAP1 PUSH1 0x40 MSTORE PUSH32 0x4A13A9A00000000000000000000000000000000000000000000000000000000 PUSH28 0xFFFFFFFFFFFFFFFFFFFFFFFFFFFFFFFFFFFFFFFFFFFFFFFFFFFFFFFF NOT AND PUSH1 0x20 DUP3 ADD DUP1 MLOAD PUSH28 0xFFFFFFFFFFFFFFFFFFFFFFFFFFFFFFFFFFFFFFFFFFFFFFFFFFFFFFFF DUP4 DUP2 DUP4 AND OR DUP4 MSTORE POP POP POP POP PUSH1 0x40 MLOAD PUSH2 0x291E SWAP2 SWAP1 PUSH2 0x4202 JUMP JUMPDEST PUSH1 0x0 PUSH1 0x40 MLOAD DUP1 DUP4 SUB DUP2 DUP6 GAS DELEGATECALL SWAP2 POP POP RETURNDATASIZE DUP1 PUSH1 0x0 DUP2 EQ PUSH2 0x2959 JUMPI PUSH1 0x40 MLOAD SWAP2 POP PUSH1 0x1F NOT PUSH1 0x3F RETURNDATASIZE ADD AND DUP3 ADD PUSH1 0x40 MSTORE RETURNDATASIZE DUP3 MSTORE RETURNDATASIZE PUSH1 0x0 PUSH1 0x20 DUP5 ADD RETURNDATACOPY PUSH2 0x295E JUMP JUMPDEST PUSH1 0x60 SWAP2 POP JUMPDEST POP SWAP2 POP SWAP2 POP POP POP PUSH1 0x1 PUSH1 0x2A DUP2 SWAP1 SSTORE POP POP POP POP JUMP JUMPDEST PUSH1 0xD SLOAD DUP2 JUMP JUMPDEST PUSH1 0x1 PUSH1 0x2A SLOAD EQ PUSH2 0x29BD JUMPI PUSH1 0x40 MLOAD PUSH32 0x8C379A000000000000000000000000000000000000000000000000000000000 DUP2 MSTORE PUSH1 0x4 ADD PUSH2 0x29B4 SWAP1 PUSH2 0x44E5 JUMP JUMPDEST PUSH1 0x40 MLOAD DUP1 SWAP2 SUB SWAP1 REVERT JUMPDEST PUSH1 0x0 PUSH1 0x2A DUP2 SWAP1 SSTORE POP PUSH1 0x0 DUP1 PUSH1 0x23 PUSH1 0x0 SWAP1 SLOAD SWAP1 PUSH2 0x100 EXP SWAP1 DIV PUSH20 0xFFFFFFFFFFFFFFFFFFFFFFFFFFFFFFFFFFFFFFFF AND PUSH20 0xFFFFFFFFFFFFFFFFFFFFFFFFFFFFFFFFFFFFFFFF AND DUP5 DUP5 PUSH1 0x40 MLOAD PUSH1 0x24 ADD PUSH2 0x2A14 SWAP3 SWAP2 SWAP1 PUSH2 0x426B JUMP JUMPDEST PUSH1 0x40 MLOAD PUSH1 0x20 DUP2 DUP4 SUB SUB DUP2 MSTORE SWAP1 PUSH1 0x40 MSTORE PUSH32 0xBF3E6A6F00000000000000000000000000000000000000000000000000000000 PUSH28 0xFFFFFFFFFFFFFFFFFFFFFFFFFFFFFFFFFFFFFFFFFFFFFFFFFFFFFFFF NOT AND PUSH1 0x20 DUP3 ADD DUP1 MLOAD PUSH28 0xFFFFFFFFFFFFFFFFFFFFFFFFFFFFFFFFFFFFFFFFFFFFFFFFFFFFFFFF DUP4 DUP2 DUP4 AND OR DUP4 MSTORE POP POP POP POP PUSH1 0x40 MLOAD PUSH2 0x2A9E SWAP2 SWAP1 PUSH2 0x4202 JUMP JUMPDEST PUSH1 0x0 PUSH1 0x40 MLOAD DUP1 DUP4 SUB DUP2 DUP6 GAS DELEGATECALL SWAP2 POP POP RETURNDATASIZE DUP1 PUSH1 0x0 DUP2 EQ PUSH2 0x2AD9 JUMPI PUSH1 0x40 MLOAD SWAP2 POP PUSH1 0x1F NOT PUSH1 0x3F RETURNDATASIZE ADD AND DUP3 ADD PUSH1 0x40 MSTORE RETURNDATASIZE DUP3 MSTORE RETURNDATASIZE PUSH1 0x0 PUSH1 0x20 DUP5 ADD RETURNDATACOPY PUSH2 0x2ADE JUMP JUMPDEST PUSH1 0x60 SWAP2 POP JUMPDEST POP SWAP2 POP SWAP2 POP POP POP PUSH1 0x1 PUSH1 0x2A DUP2 SWAP1 SSTORE POP POP POP JUMP JUMPDEST PUSH1 0x2 PUSH1 0x20 MSTORE DUP2 PUSH1 0x0 MSTORE PUSH1 0x40 PUSH1 0x0 KECCAK256 PUSH1 0x20 MSTORE DUP1 PUSH1 0x0 MSTORE PUSH1 0x40 PUSH1 0x0 KECCAK256 PUSH1 0x0 SWAP2 POP SWAP2 POP POP SLOAD DUP2 JUMP JUMPDEST PUSH1 0x17 SLOAD DUP2 JUMP JUMPDEST PUSH1 0x1 PUSH1 0x2A SLOAD EQ PUSH2 0x2B61 JUMPI PUSH1 0x40 MLOAD PUSH32 0x8C379A000000000000000000000000000000000000000000000000000000000 DUP2 MSTORE PUSH1 0x4 ADD PUSH2 0x2B58 SWAP1 PUSH2 0x44E5 JUMP JUMPDEST PUSH1 0x40 MLOAD DUP1 SWAP2 SUB SWAP1 REVERT JUMPDEST PUSH1 0x0 PUSH1 0x2A DUP2 SWAP1 SSTORE POP PUSH1 0x0 DUP1 PUSH1 0x23 PUSH1 0x0 SWAP1 SLOAD SWAP1 PUSH2 0x100 EXP SWAP1 DIV PUSH20 0xFFFFFFFFFFFFFFFFFFFFFFFFFFFFFFFFFFFFFFFF AND PUSH20 0xFFFFFFFFFFFFFFFFFFFFFFFFFFFFFFFFFFFFFFFF AND DUP7 DUP7 DUP7 DUP7 PUSH1 0x40 MLOAD PUSH1 0x24 ADD PUSH2 0x2BBC SWAP5 SWAP4 SWAP3 SWAP2 SWAP1 PUSH2 0x4294 JUMP JUMPDEST PUSH1 0x40 MLOAD PUSH1 0x20 DUP2 DUP4 SUB SUB DUP2 MSTORE SWAP1 PUSH1 0x40 MSTORE PUSH32 0x2F0DDF4300000000000000000000000000000000000000000000000000000000 PUSH28 0xFFFFFFFFFFFFFFFFFFFFFFFFFFFFFFFFFFFFFFFFFFFFFFFFFFFFFFFF NOT AND PUSH1 0x20 DUP3 ADD DUP1 MLOAD PUSH28 0xFFFFFFFFFFFFFFFFFFFFFFFFFFFFFFFFFFFFFFFFFFFFFFFFFFFFFFFF DUP4 DUP2 DUP4 AND OR DUP4 MSTORE POP POP POP POP PUSH1 0x40 MLOAD PUSH2 0x2C46 SWAP2 SWAP1 PUSH2 0x4202 JUMP JUMPDEST PUSH1 0x0 PUSH1 0x40 MLOAD DUP1 DUP4 SUB DUP2 DUP6 GAS DELEGATECALL SWAP2 POP POP RETURNDATASIZE DUP1 PUSH1 0x0 DUP2 EQ PUSH2 0x2C81 JUMPI PUSH1 0x40 MLOAD SWAP2 POP PUSH1 0x1F NOT PUSH1 0x3F RETURNDATASIZE ADD AND DUP3 ADD PUSH1 0x40 MSTORE RETURNDATASIZE DUP3 MSTORE RETURNDATASIZE PUSH1 0x0 PUSH1 0x20 DUP5 ADD RETURNDATACOPY PUSH2 0x2C86 JUMP JUMPDEST PUSH1 0x60 SWAP2 POP JUMPDEST POP SWAP2 POP SWAP2 POP POP POP PUSH1 0x1 PUSH1 0x2A DUP2 SWAP1 SSTORE POP POP POP POP POP JUMP JUMPDEST PUSH1 0xF SLOAD DUP2 JUMP JUMPDEST PUSH1 0x1 PUSH1 0x2A SLOAD EQ PUSH2 0x2CE6 JUMPI PUSH1 0x40 MLOAD PUSH32 0x8C379A000000000000000000000000000000000000000000000000000000000 DUP2 MSTORE PUSH1 0x4 ADD PUSH2 0x2CDD SWAP1 PUSH2 0x44E5 JUMP JUMPDEST PUSH1 0x40 MLOAD DUP1 SWAP2 SUB SWAP1 REVERT JUMPDEST PUSH1 0x0 PUSH1 0x2A DUP2 SWAP1 SSTORE POP PUSH1 0x0 DUP1 PUSH1 0x23 PUSH1 0x0 SWAP1 SLOAD SWAP1 PUSH2 0x100 EXP SWAP1 DIV PUSH20 0xFFFFFFFFFFFFFFFFFFFFFFFFFFFFFFFFFFFFFFFF AND PUSH20 0xFFFFFFFFFFFFFFFFFFFFFFFFFFFFFFFFFFFFFFFF AND DUP6 DUP6 DUP6 PUSH1 0x40 MLOAD PUSH1 0x24 ADD PUSH2 0x2D3F SWAP4 SWAP3 SWAP2 SWAP1 PUSH2 0x4580 JUMP JUMPDEST PUSH1 0x40 MLOAD PUSH1 0x20 DUP2 DUP4 SUB SUB DUP2 MSTORE SWAP1 PUSH1 0x40 MSTORE PUSH32 0x2E411DCA00000000000000000000000000000000000000000000000000000000 PUSH28 0xFFFFFFFFFFFFFFFFFFFFFFFFFFFFFFFFFFFFFFFFFFFFFFFFFFFFFFFF NOT AND PUSH1 0x20 DUP3 ADD DUP1 MLOAD PUSH28 0xFFFFFFFFFFFFFFFFFFFFFFFFFFFFFFFFFFFFFFFFFFFFFFFFFFFFFFFF DUP4 DUP2 DUP4 AND OR DUP4 MSTORE POP POP POP POP PUSH1 0x40 MLOAD PUSH2 0x2DC9 SWAP2 SWAP1 PUSH2 0x4202 JUMP JUMPDEST PUSH1 0x0 PUSH1 0x40 MLOAD DUP1 DUP4 SUB DUP2 DUP6 GAS DELEGATECALL SWAP2 POP POP RETURNDATASIZE DUP1 PUSH1 0x0 DUP2 EQ PUSH2 0x2E04 JUMPI PUSH1 0x40 MLOAD SWAP2 POP PUSH1 0x1F NOT PUSH1 0x3F RETURNDATASIZE ADD AND DUP3 ADD PUSH1 0x40 MSTORE RETURNDATASIZE DUP3 MSTORE RETURNDATASIZE PUSH1 0x0 PUSH1 0x20 DUP5 ADD RETURNDATACOPY PUSH2 0x2E09 JUMP JUMPDEST PUSH1 0x60 SWAP2 POP JUMPDEST POP SWAP2 POP SWAP2 POP POP POP PUSH1 0x1 PUSH1 0x2A DUP2 SWAP1 SSTORE POP POP POP POP JUMP JUMPDEST PUSH1 0x26 SLOAD DUP2 JUMP JUMPDEST PUSH1 0x1F SLOAD DUP2 JUMP JUMPDEST PUSH1 0x7 SLOAD DUP2 JUMP JUMPDEST PUSH1 0x25 SLOAD DUP2 JUMP JUMPDEST PUSH1 0x18 SLOAD DUP2 JUMP JUMPDEST PUSH1 0x1C PUSH1 0x0 SWAP1 SLOAD SWAP1 PUSH2 0x100 EXP SWAP1 DIV PUSH20 0xFFFFFFFFFFFFFFFFFFFFFFFFFFFFFFFFFFFFFFFF AND PUSH20 0xFFFFFFFFFFFFFFFFFFFFFFFFFFFFFFFFFFFFFFFF AND CALLER PUSH20 0xFFFFFFFFFFFFFFFFFFFFFFFFFFFFFFFFFFFFFFFF AND EQ PUSH2 0x2E95 JUMPI PUSH1 0x0 DUP1 REVERT JUMPDEST DUP1 PUSH1 0x23 PUSH1 0x0 PUSH2 0x100 EXP DUP2 SLOAD DUP2 PUSH20 0xFFFFFFFFFFFFFFFFFFFFFFFFFFFFFFFFFFFFFFFF MUL NOT AND SWAP1 DUP4 PUSH20 0xFFFFFFFFFFFFFFFFFFFFFFFFFFFFFFFFFFFFFFFF AND MUL OR SWAP1 SSTORE POP POP JUMP JUMPDEST DUP1 PUSH1 0x2 PUSH1 0x0 DUP6 PUSH20 0xFFFFFFFFFFFFFFFFFFFFFFFFFFFFFFFFFFFFFFFF AND PUSH20 0xFFFFFFFFFFFFFFFFFFFFFFFFFFFFFFFFFFFFFFFF AND DUP2 MSTORE PUSH1 0x20 ADD SWAP1 DUP2 MSTORE PUSH1 0x20 ADD PUSH1 0x0 KECCAK256 PUSH1 0x0 DUP5 PUSH20 0xFFFFFFFFFFFFFFFFFFFFFFFFFFFFFFFFFFFFFFFF AND PUSH20 0xFFFFFFFFFFFFFFFFFFFFFFFFFFFFFFFFFFFFFFFF AND DUP2 MSTORE PUSH1 0x20 ADD SWAP1 DUP2 MSTORE PUSH1 0x20 ADD PUSH1 0x0 KECCAK256 DUP2 SWAP1 SSTORE POP DUP2 PUSH20 0xFFFFFFFFFFFFFFFFFFFFFFFFFFFFFFFFFFFFFFFF AND DUP4 PUSH20 0xFFFFFFFFFFFFFFFFFFFFFFFFFFFFFFFFFFFFFFFF AND PUSH32 0x8C5BE1E5EBEC7D5BD14F71427D1E84F3DD0314C0F7B2291E5B200AC8C7C3B925 DUP4 PUSH1 0x40 MLOAD PUSH2 0x2FB7 SWAP2 SWAP1 PUSH2 0x4505 JUMP JUMPDEST PUSH1 0x40 MLOAD DUP1 SWAP2 SUB SWAP1 LOG3 POP POP POP JUMP JUMPDEST PUSH1 0x0 DUP3 DUP3 DUP5 PUSH2 0x2FD3 SWAP2 SWAP1 PUSH2 0x48A6 JUMP JUMPDEST SWAP2 POP DUP2 GT ISZERO PUSH2 0x3017 JUMPI PUSH1 0x40 MLOAD PUSH32 0x8C379A000000000000000000000000000000000000000000000000000000000 DUP2 MSTORE PUSH1 0x4 ADD PUSH2 0x300E SWAP1 PUSH2 0x4445 JUMP JUMPDEST PUSH1 0x40 MLOAD DUP1 SWAP2 SUB SWAP1 REVERT JUMPDEST SWAP3 SWAP2 POP POP JUMP JUMPDEST PUSH2 0x306F DUP2 PUSH1 0x1 PUSH1 0x0 DUP7 PUSH20 0xFFFFFFFFFFFFFFFFFFFFFFFFFFFFFFFFFFFFFFFF AND PUSH20 0xFFFFFFFFFFFFFFFFFFFFFFFFFFFFFFFFFFFFFFFF AND DUP2 MSTORE PUSH1 0x20 ADD SWAP1 DUP2 MSTORE PUSH1 0x20 ADD PUSH1 0x0 KECCAK256 SLOAD PUSH2 0x2FC4 SWAP1 SWAP2 SWAP1 PUSH4 0xFFFFFFFF AND JUMP JUMPDEST PUSH1 0x1 PUSH1 0x0 DUP6 PUSH20 0xFFFFFFFFFFFFFFFFFFFFFFFFFFFFFFFFFFFFFFFF AND PUSH20 0xFFFFFFFFFFFFFFFFFFFFFFFFFFFFFFFFFFFFFFFF AND DUP2 MSTORE PUSH1 0x20 ADD SWAP1 DUP2 MSTORE PUSH1 0x20 ADD PUSH1 0x0 KECCAK256 DUP2 SWAP1 SSTORE POP PUSH2 0x3104 DUP2 PUSH1 0x1 PUSH1 0x0 DUP6 PUSH20 0xFFFFFFFFFFFFFFFFFFFFFFFFFFFFFFFFFFFFFFFF AND PUSH20 0xFFFFFFFFFFFFFFFFFFFFFFFFFFFFFFFFFFFFFFFF AND DUP2 MSTORE PUSH1 0x20 ADD SWAP1 DUP2 MSTORE PUSH1 0x20 ADD PUSH1 0x0 KECCAK256 SLOAD PUSH2 0x3916 SWAP1 SWAP2 SWAP1 PUSH4 0xFFFFFFFF AND JUMP JUMPDEST PUSH1 0x1 PUSH1 0x0 DUP5 PUSH20 0xFFFFFFFFFFFFFFFFFFFFFFFFFFFFFFFFFFFFFFFF AND PUSH20 0xFFFFFFFFFFFFFFFFFFFFFFFFFFFFFFFFFFFFFFFF AND DUP2 MSTORE PUSH1 0x20 ADD SWAP1 DUP2 MSTORE PUSH1 0x20 ADD PUSH1 0x0 KECCAK256 DUP2 SWAP1 SSTORE POP DUP2 PUSH20 0xFFFFFFFFFFFFFFFFFFFFFFFFFFFFFFFFFFFFFFFF AND DUP4 PUSH20 0xFFFFFFFFFFFFFFFFFFFFFFFFFFFFFFFFFFFFFFFF AND PUSH32 0xDDF252AD1BE2C89B69C2B068FC378DAA952BA7F163C4A11628F55A4DF523B3EF DUP4 PUSH1 0x40 MLOAD PUSH2 0x31A4 SWAP2 SWAP1 PUSH2 0x4505 JUMP JUMPDEST PUSH1 0x40 MLOAD DUP1 SWAP2 SUB SWAP1 LOG3 POP POP POP JUMP JUMPDEST PUSH2 0x31C6 DUP2 PUSH1 0x0 SLOAD PUSH2 0x3916 SWAP1 SWAP2 SWAP1 PUSH4 0xFFFFFFFF AND JUMP JUMPDEST PUSH1 0x0 DUP2 SWAP1 SSTORE POP PUSH2 0x321E DUP2 PUSH1 0x1 PUSH1 0x0 DUP6 PUSH20 0xFFFFFFFFFFFFFFFFFFFFFFFFFFFFFFFFFFFFFFFF AND PUSH20 0xFFFFFFFFFFFFFFFFFFFFFFFFFFFFFFFFFFFFFFFF AND DUP2 MSTORE PUSH1 0x20 ADD SWAP1 DUP2 MSTORE PUSH1 0x20 ADD PUSH1 0x0 KECCAK256 SLOAD PUSH2 0x3916 SWAP1 SWAP2 SWAP1 PUSH4 0xFFFFFFFF AND JUMP JUMPDEST PUSH1 0x1 PUSH1 0x0 DUP5 PUSH20 0xFFFFFFFFFFFFFFFFFFFFFFFFFFFFFFFFFFFFFFFF AND PUSH20 0xFFFFFFFFFFFFFFFFFFFFFFFFFFFFFFFFFFFFFFFF AND DUP2 MSTORE PUSH1 0x20 ADD SWAP1 DUP2 MSTORE PUSH1 0x20 ADD PUSH1 0x0 KECCAK256 DUP2 SWAP1 SSTORE POP DUP2 PUSH20 0xFFFFFFFFFFFFFFFFFFFFFFFFFFFFFFFFFFFFFFFF AND PUSH1 0x0 PUSH20 0xFFFFFFFFFFFFFFFFFFFFFFFFFFFFFFFFFFFFFFFF AND PUSH32 0xDDF252AD1BE2C89B69C2B068FC378DAA952BA7F163C4A11628F55A4DF523B3EF DUP4 PUSH1 0x40 MLOAD PUSH2 0x32BF SWAP2 SWAP1 PUSH2 0x4505 JUMP JUMPDEST PUSH1 0x40 MLOAD DUP1 SWAP2 SUB SWAP1 LOG3 POP POP JUMP JUMPDEST PUSH1 0x0 DUP2 DUP4 DUP6 PUSH2 0x32DA SWAP2 SWAP1 PUSH2 0x484C JUMP JUMPDEST PUSH2 0x32E4 SWAP2 SWAP1 PUSH2 0x46AA JUMP JUMPDEST SWAP1 POP SWAP4 SWAP3 POP POP POP JUMP JUMPDEST PUSH2 0x333F DUP2 PUSH1 0x1 PUSH1 0x0 DUP6 PUSH20 0xFFFFFFFFFFFFFFFFFFFFFFFFFFFFFFFFFFFFFFFF AND PUSH20 0xFFFFFFFFFFFFFFFFFFFFFFFFFFFFFFFFFFFFFFFF AND DUP2 MSTORE PUSH1 0x20 ADD SWAP1 DUP2 MSTORE PUSH1 0x20 ADD PUSH1 0x0 KECCAK256 SLOAD PUSH2 0x2FC4 SWAP1 SWAP2 SWAP1 PUSH4 0xFFFFFFFF AND JUMP JUMPDEST PUSH1 0x1 PUSH1 0x0 DUP5 PUSH20 0xFFFFFFFFFFFFFFFFFFFFFFFFFFFFFFFFFFFFFFFF AND PUSH20 0xFFFFFFFFFFFFFFFFFFFFFFFFFFFFFFFFFFFFFFFF AND DUP2 MSTORE PUSH1 0x20 ADD SWAP1 DUP2 MSTORE PUSH1 0x20 ADD PUSH1 0x0 KECCAK256 DUP2 SWAP1 SSTORE POP PUSH2 0x3397 DUP2 PUSH1 0x0 SLOAD PUSH2 0x2FC4 SWAP1 SWAP2 SWAP1 PUSH4 0xFFFFFFFF AND JUMP JUMPDEST PUSH1 0x0 DUP2 SWAP1 SSTORE POP PUSH1 0x0 PUSH20 0xFFFFFFFFFFFFFFFFFFFFFFFFFFFFFFFFFFFFFFFF AND DUP3 PUSH20 0xFFFFFFFFFFFFFFFFFFFFFFFFFFFFFFFFFFFFFFFF AND PUSH32 0xDDF252AD1BE2C89B69C2B068FC378DAA952BA7F163C4A11628F55A4DF523B3EF DUP4 PUSH1 0x40 MLOAD PUSH2 0x33FB SWAP2 SWAP1 PUSH2 0x4505 JUMP JUMPDEST PUSH1 0x40 MLOAD DUP1 SWAP2 SUB SWAP1 LOG3 POP POP JUMP JUMPDEST PUSH1 0x0 DUP1 DUP5 PUSH20 0xFFFFFFFFFFFFFFFFFFFFFFFFFFFFFFFFFFFFFFFF AND PUSH1 0x40 MLOAD DUP1 PUSH1 0x40 ADD PUSH1 0x40 MSTORE DUP1 PUSH1 0x19 DUP2 MSTORE PUSH1 0x20 ADD PUSH32 0x7472616E7366657228616464726573732C75696E743235362900000000000000 DUP2 MSTORE POP DUP1 MLOAD SWAP1 PUSH1 0x20 ADD KECCAK256 DUP6 DUP6 PUSH1 0x40 MLOAD PUSH1 0x24 ADD PUSH2 0x3471 SWAP3 SWAP2 SWAP1 PUSH2 0x431E JUMP JUMPDEST PUSH1 0x40 MLOAD PUSH1 0x20 DUP2 DUP4 SUB SUB DUP2 MSTORE SWAP1 PUSH1 0x40 MSTORE SWAP1 PUSH28 0xFFFFFFFFFFFFFFFFFFFFFFFFFFFFFFFFFFFFFFFFFFFFFFFFFFFFFFFF NOT AND PUSH1 0x20 DUP3 ADD DUP1 MLOAD PUSH28 0xFFFFFFFFFFFFFFFFFFFFFFFFFFFFFFFFFFFFFFFFFFFFFFFFFFFFFFFF DUP4 DUP2 DUP4 AND OR DUP4 MSTORE POP POP POP POP PUSH1 0x40 MLOAD PUSH2 0x34DB SWAP2 SWAP1 PUSH2 0x4202 JUMP JUMPDEST PUSH1 0x0 PUSH1 0x40 MLOAD DUP1 DUP4 SUB DUP2 PUSH1 0x0 DUP7 GAS CALL SWAP2 POP POP RETURNDATASIZE DUP1 PUSH1 0x0 DUP2 EQ PUSH2 0x3518 JUMPI PUSH1 0x40 MLOAD SWAP2 POP PUSH1 0x1F NOT PUSH1 0x3F RETURNDATASIZE ADD AND DUP3 ADD PUSH1 0x40 MSTORE RETURNDATASIZE DUP3 MSTORE RETURNDATASIZE PUSH1 0x0 PUSH1 0x20 DUP5 ADD RETURNDATACOPY PUSH2 0x351D JUMP JUMPDEST PUSH1 0x60 SWAP2 POP JUMPDEST POP SWAP2 POP SWAP2 POP DUP2 DUP1 ISZERO PUSH2 0x354B JUMPI POP PUSH1 0x0 DUP2 MLOAD EQ DUP1 PUSH2 0x354A JUMPI POP DUP1 DUP1 PUSH1 0x20 ADD SWAP1 MLOAD DUP2 ADD SWAP1 PUSH2 0x3549 SWAP2 SWAP1 PUSH2 0x3E93 JUMP JUMPDEST JUMPDEST JUMPDEST PUSH2 0x358A JUMPI PUSH1 0x40 MLOAD PUSH32 0x8C379A000000000000000000000000000000000000000000000000000000000 DUP2 MSTORE PUSH1 0x4 ADD PUSH2 0x3581 SWAP1 PUSH2 0x44C5 JUMP JUMPDEST PUSH1 0x40 MLOAD DUP1 SWAP2 SUB SWAP1 REVERT JUMPDEST POP POP POP POP POP JUMP JUMPDEST PUSH1 0x0 DUP1 PUSH2 0x35C7 PUSH1 0x10 SLOAD PUSH1 0x5 SLOAD PUSH1 0xA SLOAD PUSH1 0x11 SLOAD PUSH1 0x5 SLOAD PUSH8 0x1BC16D674EC80000 PUSH2 0x35B9 SWAP2 SWAP1 PUSH2 0x48A6 JUMP JUMPDEST PUSH1 0xB SLOAD PUSH1 0xE SLOAD PUSH1 0xF SLOAD PUSH2 0x396F JUMP JUMPDEST SWAP1 POP PUSH1 0x22 SLOAD DUP2 PUSH1 0x7 SLOAD PUSH2 0x35DA SWAP2 SWAP1 PUSH2 0x484C JUMP JUMPDEST PUSH2 0x35E4 SWAP2 SWAP1 PUSH2 0x46AA JUMP JUMPDEST SWAP2 POP POP SWAP1 JUMP JUMPDEST PUSH1 0x0 PUSH1 0x1 PUSH1 0x2A SLOAD EQ PUSH2 0x3631 JUMPI PUSH1 0x40 MLOAD PUSH32 0x8C379A000000000000000000000000000000000000000000000000000000000 DUP2 MSTORE PUSH1 0x4 ADD PUSH2 0x3628 SWAP1 PUSH2 0x44E5 JUMP JUMPDEST PUSH1 0x40 MLOAD DUP1 SWAP2 SUB SWAP1 REVERT JUMPDEST PUSH1 0x0 PUSH1 0x2A DUP2 SWAP1 SSTORE POP PUSH1 0x0 DUP1 PUSH1 0x23 PUSH1 0x0 SWAP1 SLOAD SWAP1 PUSH2 0x100 EXP SWAP1 DIV PUSH20 0xFFFFFFFFFFFFFFFFFFFFFFFFFFFFFFFFFFFFFFFF AND PUSH20 0xFFFFFFFFFFFFFFFFFFFFFFFFFFFFFFFFFFFFFFFF AND DUP7 DUP7 DUP7 PUSH1 0x40 MLOAD PUSH1 0x24 ADD PUSH2 0x368A SWAP4 SWAP3 SWAP2 SWAP1 PUSH2 0x4520 JUMP JUMPDEST PUSH1 0x40 MLOAD PUSH1 0x20 DUP2 DUP4 SUB SUB DUP2 MSTORE SWAP1 PUSH1 0x40 MSTORE PUSH32 0x2618C20E00000000000000000000000000000000000000000000000000000000 PUSH28 0xFFFFFFFFFFFFFFFFFFFFFFFFFFFFFFFFFFFFFFFFFFFFFFFFFFFFFFFF NOT AND PUSH1 0x20 DUP3 ADD DUP1 MLOAD PUSH28 0xFFFFFFFFFFFFFFFFFFFFFFFFFFFFFFFFFFFFFFFFFFFFFFFFFFFFFFFF DUP4 DUP2 DUP4 AND OR DUP4 MSTORE POP POP POP POP PUSH1 0x40 MLOAD PUSH2 0x3714 SWAP2 SWAP1 PUSH2 0x4202 JUMP JUMPDEST PUSH1 0x0 PUSH1 0x40 MLOAD DUP1 DUP4 SUB DUP2 DUP6 GAS DELEGATECALL SWAP2 POP POP RETURNDATASIZE DUP1 PUSH1 0x0 DUP2 EQ PUSH2 0x374F JUMPI PUSH1 0x40 MLOAD SWAP2 POP PUSH1 0x1F NOT PUSH1 0x3F RETURNDATASIZE ADD AND DUP3 ADD PUSH1 0x40 MSTORE RETURNDATASIZE DUP3 MSTORE RETURNDATASIZE PUSH1 0x0 PUSH1 0x20 DUP5 ADD RETURNDATACOPY PUSH2 0x3754 JUMP JUMPDEST PUSH1 0x60 SWAP2 POP JUMPDEST POP SWAP2 POP SWAP2 POP DUP1 DUP1 PUSH1 0x20 ADD SWAP1 MLOAD DUP2 ADD SWAP1 PUSH2 0x376D SWAP2 SWAP1 PUSH2 0x3EED JUMP JUMPDEST SWAP3 POP POP POP PUSH1 0x1 PUSH1 0x2A DUP2 SWAP1 SSTORE POP SWAP4 SWAP3 POP POP POP JUMP JUMPDEST PUSH1 0x0 PUSH1 0x1 PUSH1 0x2A SLOAD EQ PUSH2 0x37C7 JUMPI PUSH1 0x40 MLOAD PUSH32 0x8C379A000000000000000000000000000000000000000000000000000000000 DUP2 MSTORE PUSH1 0x4 ADD PUSH2 0x37BE SWAP1 PUSH2 0x44E5 JUMP JUMPDEST PUSH1 0x40 MLOAD DUP1 SWAP2 SUB SWAP1 REVERT JUMPDEST PUSH1 0x0 PUSH1 0x2A DUP2 SWAP1 SSTORE POP PUSH1 0x0 DUP1 PUSH1 0x23 PUSH1 0x0 SWAP1 SLOAD SWAP1 PUSH2 0x100 EXP SWAP1 DIV PUSH20 0xFFFFFFFFFFFFFFFFFFFFFFFFFFFFFFFFFFFFFFFF AND PUSH20 0xFFFFFFFFFFFFFFFFFFFFFFFFFFFFFFFFFFFFFFFF AND DUP7 DUP7 DUP7 PUSH1 0x40 MLOAD PUSH1 0x24 ADD PUSH2 0x3820 SWAP4 SWAP3 SWAP2 SWAP1 PUSH2 0x4520 JUMP JUMPDEST PUSH1 0x40 MLOAD PUSH1 0x20 DUP2 DUP4 SUB SUB DUP2 MSTORE SWAP1 PUSH1 0x40 MSTORE PUSH32 0xDA889AAA00000000000000000000000000000000000000000000000000000000 PUSH28 0xFFFFFFFFFFFFFFFFFFFFFFFFFFFFFFFFFFFFFFFFFFFFFFFFFFFFFFFF NOT AND PUSH1 0x20 DUP3 ADD DUP1 MLOAD PUSH28 0xFFFFFFFFFFFFFFFFFFFFFFFFFFFFFFFFFFFFFFFFFFFFFFFFFFFFFFFF DUP4 DUP2 DUP4 AND OR DUP4 MSTORE POP POP POP POP PUSH1 0x40 MLOAD PUSH2 0x38AA SWAP2 SWAP1 PUSH2 0x4202 JUMP JUMPDEST PUSH1 0x0 PUSH1 0x40 MLOAD DUP1 DUP4 SUB DUP2 DUP6 GAS DELEGATECALL SWAP2 POP POP RETURNDATASIZE DUP1 PUSH1 0x0 DUP2 EQ PUSH2 0x38E5 JUMPI PUSH1 0x40 MLOAD SWAP2 POP PUSH1 0x1F NOT PUSH1 0x3F RETURNDATASIZE ADD AND DUP3 ADD PUSH1 0x40 MSTORE RETURNDATASIZE DUP3 MSTORE RETURNDATASIZE PUSH1 0x0 PUSH1 0x20 DUP5 ADD RETURNDATACOPY PUSH2 0x38EA JUMP JUMPDEST PUSH1 0x60 SWAP2 POP JUMPDEST POP SWAP2 POP SWAP2 POP DUP1 DUP1 PUSH1 0x20 ADD SWAP1 MLOAD DUP2 ADD SWAP1 PUSH2 0x3903 SWAP2 SWAP1 PUSH2 0x3EED JUMP JUMPDEST SWAP3 POP POP POP PUSH1 0x1 PUSH1 0x2A DUP2 SWAP1 SSTORE POP SWAP4 SWAP3 POP POP POP JUMP JUMPDEST PUSH1 0x0 DUP3 DUP3 DUP5 PUSH2 0x3925 SWAP2 SWAP1 PUSH2 0x4654 JUMP JUMPDEST SWAP2 POP DUP2 LT ISZERO PUSH2 0x3969 JUMPI PUSH1 0x40 MLOAD PUSH32 0x8C379A000000000000000000000000000000000000000000000000000000000 DUP2 MSTORE PUSH1 0x4 ADD PUSH2 0x3960 SWAP1 PUSH2 0x4485 JUMP JUMPDEST PUSH1 0x40 MLOAD DUP1 SWAP2 SUB SWAP1 REVERT JUMPDEST SWAP3 SWAP2 POP POP JUMP JUMPDEST PUSH1 0x0 PUSH2 0x39C1 PUSH2 0x3982 DUP5 DUP11 DUP11 DUP7 DUP11 DUP11 PUSH2 0x39CF JUMP JUMPDEST PUSH23 0xA70C3C40A64E6C51999090B65F67D9240000000000000 PUSH2 0x39A8 DUP13 DUP13 DUP13 DUP13 DUP13 DUP13 PUSH2 0x39CF JUMP JUMPDEST PUSH2 0x39B2 SWAP2 SWAP1 PUSH2 0x484C JUMP JUMPDEST PUSH2 0x39BC SWAP2 SWAP1 PUSH2 0x46AA JUMP JUMPDEST PUSH2 0x3A2B JUMP JUMPDEST SWAP1 POP SWAP9 SWAP8 POP POP POP POP POP POP POP POP JUMP JUMPDEST PUSH1 0x0 DUP4 DUP8 DUP4 DUP6 DUP8 PUSH2 0x39E0 SWAP2 SWAP1 PUSH2 0x484C JUMP JUMPDEST PUSH2 0x39EA SWAP2 SWAP1 PUSH2 0x484C JUMP JUMPDEST DUP8 DUP10 DUP12 PUSH2 0x39F7 SWAP2 SWAP1 PUSH2 0x484C JUMP JUMPDEST PUSH2 0x3A01 SWAP2 SWAP1 PUSH2 0x484C JUMP JUMPDEST PUSH2 0x3A0B SWAP2 SWAP1 PUSH2 0x4654 JUMP JUMPDEST PUSH2 0x3A15 SWAP2 SWAP1 PUSH2 0x484C JUMP JUMPDEST PUSH2 0x3A1F SWAP2 SWAP1 PUSH2 0x484C JUMP JUMPDEST SWAP1 POP SWAP7 SWAP6 POP POP POP POP POP POP JUMP JUMPDEST PUSH1 0x0 PUSH1 0x8 DUP3 GT ISZERO PUSH2 0x3AA9 JUMPI DUP2 SWAP1 POP PUSH1 0x0 PUSH1 0x1 PUSH1 0x3 DUP5 PUSH2 0x3A4A SWAP2 SWAP1 PUSH2 0x46AA JUMP JUMPDEST PUSH2 0x3A54 SWAP2 SWAP1 PUSH2 0x4654 JUMP JUMPDEST SWAP1 POP JUMPDEST DUP2 DUP2 LT ISZERO PUSH2 0x3AA3 JUMPI DUP1 SWAP2 POP PUSH1 0x3 DUP2 PUSH1 0x2 PUSH2 0x3A71 SWAP2 SWAP1 PUSH2 0x484C JUMP JUMPDEST DUP3 DUP4 PUSH2 0x3A7D SWAP2 SWAP1 PUSH2 0x484C JUMP JUMPDEST DUP6 PUSH2 0x3A88 SWAP2 SWAP1 PUSH2 0x46AA JUMP JUMPDEST PUSH2 0x3A92 SWAP2 SWAP1 PUSH2 0x4654 JUMP JUMPDEST PUSH2 0x3A9C SWAP2 SWAP1 PUSH2 0x46AA JUMP JUMPDEST SWAP1 POP PUSH2 0x3A57 JUMP JUMPDEST POP PUSH2 0x3AB7 JUMP JUMPDEST PUSH1 0x0 DUP3 EQ PUSH2 0x3AB6 JUMPI PUSH1 0x1 SWAP1 POP JUMPDEST JUMPDEST SWAP2 SWAP1 POP JUMP JUMPDEST PUSH1 0x0 DUP2 CALLDATALOAD SWAP1 POP PUSH2 0x3ACB DUP2 PUSH2 0x4B8E JUMP JUMPDEST SWAP3 SWAP2 POP POP JUMP JUMPDEST PUSH1 0x0 DUP2 CALLDATALOAD SWAP1 POP PUSH2 0x3AE0 DUP2 PUSH2 0x4BA5 JUMP JUMPDEST SWAP3 SWAP2 POP POP JUMP JUMPDEST PUSH1 0x0 DUP2 MLOAD SWAP1 POP PUSH2 0x3AF5 DUP2 PUSH2 0x4BA5 JUMP JUMPDEST SWAP3 SWAP2 POP POP JUMP JUMPDEST PUSH1 0x0 DUP2 CALLDATALOAD SWAP1 POP PUSH2 0x3B0A DUP2 PUSH2 0x4BBC JUMP JUMPDEST SWAP3 SWAP2 POP POP JUMP JUMPDEST PUSH1 0x0 DUP2 CALLDATALOAD SWAP1 POP PUSH2 0x3B1F DUP2 PUSH2 0x4BD3 JUMP JUMPDEST SWAP3 SWAP2 POP POP JUMP JUMPDEST PUSH1 0x0 DUP2 MLOAD SWAP1 POP PUSH2 0x3B34 DUP2 PUSH2 0x4BD3 JUMP JUMPDEST SWAP3 SWAP2 POP POP JUMP JUMPDEST PUSH1 0x0 DUP2 CALLDATALOAD SWAP1 POP PUSH2 0x3B49 DUP2 PUSH2 0x4BEA JUMP JUMPDEST SWAP3 SWAP2 POP POP JUMP JUMPDEST PUSH1 0x0 PUSH1 0x20 DUP3 DUP5 SUB SLT ISZERO PUSH2 0x3B65 JUMPI PUSH2 0x3B64 PUSH2 0x4A4C JUMP JUMPDEST JUMPDEST PUSH1 0x0 PUSH2 0x3B73 DUP5 DUP3 DUP6 ADD PUSH2 0x3ABC JUMP JUMPDEST SWAP2 POP POP SWAP3 SWAP2 POP POP JUMP JUMPDEST PUSH1 0x0 DUP1 PUSH1 0x40 DUP4 DUP6 SUB SLT ISZERO PUSH2 0x3B93 JUMPI PUSH2 0x3B92 PUSH2 0x4A4C JUMP JUMPDEST JUMPDEST PUSH1 0x0 PUSH2 0x3BA1 DUP6 DUP3 DUP7 ADD PUSH2 0x3ABC JUMP JUMPDEST SWAP3 POP POP PUSH1 0x20 PUSH2 0x3BB2 DUP6 DUP3 DUP7 ADD PUSH2 0x3ABC JUMP JUMPDEST SWAP2 POP POP SWAP3 POP SWAP3 SWAP1 POP JUMP JUMPDEST PUSH1 0x0 DUP1 PUSH1 0x0 DUP1 PUSH1 0x80 DUP6 DUP8 SUB SLT ISZERO PUSH2 0x3BD6 JUMPI PUSH2 0x3BD5 PUSH2 0x4A4C JUMP JUMPDEST JUMPDEST PUSH1 0x0 PUSH2 0x3BE4 DUP8 DUP3 DUP9 ADD PUSH2 0x3ABC JUMP JUMPDEST SWAP5 POP POP PUSH1 0x20 PUSH2 0x3BF5 DUP8 DUP3 DUP9 ADD PUSH2 0x3ABC JUMP JUMPDEST SWAP4 POP POP PUSH1 0x40 PUSH2 0x3C06 DUP8 DUP3 DUP9 ADD PUSH2 0x3ABC JUMP JUMPDEST SWAP3 POP POP PUSH1 0x60 PUSH2 0x3C17 DUP8 DUP3 DUP9 ADD PUSH2 0x3B10 JUMP JUMPDEST SWAP2 POP POP SWAP3 SWAP6 SWAP2 SWAP5 POP SWAP3 POP JUMP JUMPDEST PUSH1 0x0 DUP1 PUSH1 0x0 PUSH1 0x60 DUP5 DUP7 SUB SLT ISZERO PUSH2 0x3C3C JUMPI PUSH2 0x3C3B PUSH2 0x4A4C JUMP JUMPDEST JUMPDEST PUSH1 0x0 PUSH2 0x3C4A DUP7 DUP3 DUP8 ADD PUSH2 0x3ABC JUMP JUMPDEST SWAP4 POP POP PUSH1 0x20 PUSH2 0x3C5B DUP7 DUP3 DUP8 ADD PUSH2 0x3ABC JUMP JUMPDEST SWAP3 POP POP PUSH1 0x40 PUSH2 0x3C6C DUP7 DUP3 DUP8 ADD PUSH2 0x3B10 JUMP JUMPDEST SWAP2 POP POP SWAP3 POP SWAP3 POP SWAP3 JUMP JUMPDEST PUSH1 0x0 DUP1 PUSH1 0x0 DUP1 PUSH1 0x0 PUSH1 0xA0 DUP7 DUP9 SUB SLT ISZERO PUSH2 0x3C92 JUMPI PUSH2 0x3C91 PUSH2 0x4A4C JUMP JUMPDEST JUMPDEST PUSH1 0x0 PUSH2 0x3CA0 DUP9 DUP3 DUP10 ADD PUSH2 0x3ABC JUMP JUMPDEST SWAP6 POP POP PUSH1 0x20 PUSH2 0x3CB1 DUP9 DUP3 DUP10 ADD PUSH2 0x3ABC JUMP JUMPDEST SWAP5 POP POP PUSH1 0x40 PUSH2 0x3CC2 DUP9 DUP3 DUP10 ADD PUSH2 0x3B10 JUMP JUMPDEST SWAP4 POP POP PUSH1 0x60 PUSH2 0x3CD3 DUP9 DUP3 DUP10 ADD PUSH2 0x3B10 JUMP JUMPDEST SWAP3 POP POP PUSH1 0x80 PUSH2 0x3CE4 DUP9 DUP3 DUP10 ADD PUSH2 0x3ABC JUMP JUMPDEST SWAP2 POP POP SWAP3 SWAP6 POP SWAP3 SWAP6 SWAP1 SWAP4 POP JUMP JUMPDEST PUSH1 0x0 DUP1 PUSH1 0x0 DUP1 PUSH1 0x0 DUP1 PUSH1 0x0 PUSH1 0xE0 DUP9 DUP11 SUB SLT ISZERO PUSH2 0x3D10 JUMPI PUSH2 0x3D0F PUSH2 0x4A4C JUMP JUMPDEST JUMPDEST PUSH1 0x0 PUSH2 0x3D1E DUP11 DUP3 DUP12 ADD PUSH2 0x3ABC JUMP JUMPDEST SWAP8 POP POP PUSH1 0x20 PUSH2 0x3D2F DUP11 DUP3 DUP12 ADD PUSH2 0x3ABC JUMP JUMPDEST SWAP7 POP POP PUSH1 0x40 PUSH2 0x3D40 DUP11 DUP3 DUP12 ADD PUSH2 0x3B10 JUMP JUMPDEST SWAP6 POP POP PUSH1 0x60 PUSH2 0x3D51 DUP11 DUP3 DUP12 ADD PUSH2 0x3B10 JUMP JUMPDEST SWAP5 POP POP PUSH1 0x80 PUSH2 0x3D62 DUP11 DUP3 DUP12 ADD PUSH2 0x3B3A JUMP JUMPDEST SWAP4 POP POP PUSH1 0xA0 PUSH2 0x3D73 DUP11 DUP3 DUP12 ADD PUSH2 0x3AFB JUMP JUMPDEST SWAP3 POP POP PUSH1 0xC0 PUSH2 0x3D84 DUP11 DUP3 DUP12 ADD PUSH2 0x3AFB JUMP JUMPDEST SWAP2 POP POP SWAP3 SWAP6 SWAP9 SWAP2 SWAP5 SWAP8 POP SWAP3 SWAP6 POP JUMP JUMPDEST PUSH1 0x0 DUP1 PUSH1 0x40 DUP4 DUP6 SUB SLT ISZERO PUSH2 0x3DAA JUMPI PUSH2 0x3DA9 PUSH2 0x4A4C JUMP JUMPDEST JUMPDEST PUSH1 0x0 PUSH2 0x3DB8 DUP6 DUP3 DUP7 ADD PUSH2 0x3ABC JUMP JUMPDEST SWAP3 POP POP PUSH1 0x20 PUSH2 0x3DC9 DUP6 DUP3 DUP7 ADD PUSH2 0x3AD1 JUMP JUMPDEST SWAP2 POP POP SWAP3 POP SWAP3 SWAP1 POP JUMP JUMPDEST PUSH1 0x0 DUP1 PUSH1 0x40 DUP4 DUP6 SUB SLT ISZERO PUSH2 0x3DEA JUMPI PUSH2 0x3DE9 PUSH2 0x4A4C JUMP JUMPDEST JUMPDEST PUSH1 0x0 PUSH2 0x3DF8 DUP6 DUP3 DUP7 ADD PUSH2 0x3ABC JUMP JUMPDEST SWAP3 POP POP PUSH1 0x20 PUSH2 0x3E09 DUP6 DUP3 DUP7 ADD PUSH2 0x3B10 JUMP JUMPDEST SWAP2 POP POP SWAP3 POP SWAP3 SWAP1 POP JUMP JUMPDEST PUSH1 0x0 DUP1 PUSH1 0x0 PUSH1 0x60 DUP5 DUP7 SUB SLT ISZERO PUSH2 0x3E2C JUMPI PUSH2 0x3E2B PUSH2 0x4A4C JUMP JUMPDEST JUMPDEST PUSH1 0x0 PUSH2 0x3E3A DUP7 DUP3 DUP8 ADD PUSH2 0x3ABC JUMP JUMPDEST SWAP4 POP POP PUSH1 0x20 PUSH2 0x3E4B DUP7 DUP3 DUP8 ADD PUSH2 0x3B10 JUMP JUMPDEST SWAP3 POP POP PUSH1 0x40 PUSH2 0x3E5C DUP7 DUP3 DUP8 ADD PUSH2 0x3B10 JUMP JUMPDEST SWAP2 POP POP SWAP3 POP SWAP3 POP SWAP3 JUMP JUMPDEST PUSH1 0x0 PUSH1 0x20 DUP3 DUP5 SUB SLT ISZERO PUSH2 0x3E7C JUMPI PUSH2 0x3E7B PUSH2 0x4A4C JUMP JUMPDEST JUMPDEST PUSH1 0x0 PUSH2 0x3E8A DUP5 DUP3 DUP6 ADD PUSH2 0x3AD1 JUMP JUMPDEST SWAP2 POP POP SWAP3 SWAP2 POP POP JUMP JUMPDEST PUSH1 0x0 PUSH1 0x20 DUP3 DUP5 SUB SLT ISZERO PUSH2 0x3EA9 JUMPI PUSH2 0x3EA8 PUSH2 0x4A4C JUMP JUMPDEST JUMPDEST PUSH1 0x0 PUSH2 0x3EB7 DUP5 DUP3 DUP6 ADD PUSH2 0x3AE6 JUMP JUMPDEST SWAP2 POP POP SWAP3 SWAP2 POP POP JUMP JUMPDEST PUSH1 0x0 PUSH1 0x20 DUP3 DUP5 SUB SLT ISZERO PUSH2 0x3ED6 JUMPI PUSH2 0x3ED5 PUSH2 0x4A4C JUMP JUMPDEST JUMPDEST PUSH1 0x0 PUSH2 0x3EE4 DUP5 DUP3 DUP6 ADD PUSH2 0x3B10 JUMP JUMPDEST SWAP2 POP POP SWAP3 SWAP2 POP POP JUMP JUMPDEST PUSH1 0x0 PUSH1 0x20 DUP3 DUP5 SUB SLT ISZERO PUSH2 0x3F03 JUMPI PUSH2 0x3F02 PUSH2 0x4A4C JUMP JUMPDEST JUMPDEST PUSH1 0x0 PUSH2 0x3F11 DUP5 DUP3 DUP6 ADD PUSH2 0x3B25 JUMP JUMPDEST SWAP2 POP POP SWAP3 SWAP2 POP POP JUMP JUMPDEST PUSH1 0x0 DUP1 PUSH1 0x40 DUP4 DUP6 SUB SLT ISZERO PUSH2 0x3F31 JUMPI PUSH2 0x3F30 PUSH2 0x4A4C JUMP JUMPDEST JUMPDEST PUSH1 0x0 PUSH2 0x3F3F DUP6 DUP3 DUP7 ADD PUSH2 0x3B10 JUMP JUMPDEST SWAP3 POP POP PUSH1 0x20 PUSH2 0x3F50 DUP6 DUP3 DUP7 ADD PUSH2 0x3ABC JUMP JUMPDEST SWAP2 POP POP SWAP3 POP SWAP3 SWAP1 POP JUMP JUMPDEST PUSH1 0x0 DUP1 PUSH1 0x0 PUSH1 0x60 DUP5 DUP7 SUB SLT ISZERO PUSH2 0x3F73 JUMPI PUSH2 0x3F72 PUSH2 0x4A4C JUMP JUMPDEST JUMPDEST PUSH1 0x0 PUSH2 0x3F81 DUP7 DUP3 DUP8 ADD PUSH2 0x3B10 JUMP JUMPDEST SWAP4 POP POP PUSH1 0x20 PUSH2 0x3F92 DUP7 DUP3 DUP8 ADD PUSH2 0x3B10 JUMP JUMPDEST SWAP3 POP POP PUSH1 0x40 PUSH2 0x3FA3 DUP7 DUP3 DUP8 ADD PUSH2 0x3ABC JUMP JUMPDEST SWAP2 POP POP SWAP3 POP SWAP3 POP SWAP3 JUMP JUMPDEST PUSH1 0x0 DUP1 PUSH1 0x0 DUP1 PUSH1 0x80 DUP6 DUP8 SUB SLT ISZERO PUSH2 0x3FC7 JUMPI PUSH2 0x3FC6 PUSH2 0x4A4C JUMP JUMPDEST JUMPDEST PUSH1 0x0 PUSH2 0x3FD5 DUP8 DUP3 DUP9 ADD PUSH2 0x3B10 JUMP JUMPDEST SWAP5 POP POP PUSH1 0x20 PUSH2 0x3FE6 DUP8 DUP3 DUP9 ADD PUSH2 0x3B10 JUMP JUMPDEST SWAP4 POP POP PUSH1 0x40 PUSH2 0x3FF7 DUP8 DUP3 DUP9 ADD PUSH2 0x3AD1 JUMP JUMPDEST SWAP3 POP POP PUSH1 0x60 PUSH2 0x4008 DUP8 DUP3 DUP9 ADD PUSH2 0x3ABC JUMP JUMPDEST SWAP2 POP POP SWAP3 SWAP6 SWAP2 SWAP5 POP SWAP3 POP JUMP JUMPDEST PUSH1 0x0 PUSH1 0x20 DUP3 DUP5 SUB SLT ISZERO PUSH2 0x402A JUMPI PUSH2 0x4029 PUSH2 0x4A4C JUMP JUMPDEST JUMPDEST PUSH1 0x0 PUSH2 0x4038 DUP5 DUP3 DUP6 ADD PUSH2 0x3B3A JUMP JUMPDEST SWAP2 POP POP SWAP3 SWAP2 POP POP JUMP JUMPDEST PUSH2 0x404A DUP2 PUSH2 0x48DA JUMP JUMPDEST DUP3 MSTORE POP POP JUMP JUMPDEST PUSH2 0x4059 DUP2 PUSH2 0x48EC JUMP JUMPDEST DUP3 MSTORE POP POP JUMP JUMPDEST PUSH2 0x4068 DUP2 PUSH2 0x48F8 JUMP JUMPDEST DUP3 MSTORE POP POP JUMP JUMPDEST PUSH2 0x407F PUSH2 0x407A DUP3 PUSH2 0x48F8 JUMP JUMPDEST PUSH2 0x49B5 JUMP JUMPDEST DUP3 MSTORE POP POP JUMP JUMPDEST PUSH1 0x0 PUSH2 0x4090 DUP3 PUSH2 0x4617 JUMP JUMPDEST PUSH2 0x409A DUP2 DUP6 PUSH2 0x462D JUMP JUMPDEST SWAP4 POP PUSH2 0x40AA DUP2 DUP6 PUSH1 0x20 DUP7 ADD PUSH2 0x4939 JUMP JUMPDEST DUP1 DUP5 ADD SWAP2 POP POP SWAP3 SWAP2 POP POP JUMP JUMPDEST PUSH1 0x0 PUSH2 0x40C1 DUP3 PUSH2 0x4622 JUMP JUMPDEST PUSH2 0x40CB DUP2 DUP6 PUSH2 0x4638 JUMP JUMPDEST SWAP4 POP PUSH2 0x40DB DUP2 DUP6 PUSH1 0x20 DUP7 ADD PUSH2 0x4939 JUMP JUMPDEST PUSH2 0x40E4 DUP2 PUSH2 0x4A51 JUMP JUMPDEST DUP5 ADD SWAP2 POP POP SWAP3 SWAP2 POP POP JUMP JUMPDEST PUSH1 0x0 PUSH2 0x40FC PUSH1 0x15 DUP4 PUSH2 0x4638 JUMP JUMPDEST SWAP2 POP PUSH2 0x4107 DUP3 PUSH2 0x4A6F JUMP JUMPDEST PUSH1 0x20 DUP3 ADD SWAP1 POP SWAP2 SWAP1 POP JUMP JUMPDEST PUSH1 0x0 PUSH2 0x411F PUSH1 0x1C DUP4 PUSH2 0x4638 JUMP JUMPDEST SWAP2 POP PUSH2 0x412A DUP3 PUSH2 0x4A98 JUMP JUMPDEST PUSH1 0x20 DUP3 ADD SWAP1 POP SWAP2 SWAP1 POP JUMP JUMPDEST PUSH1 0x0 PUSH2 0x4142 PUSH1 0x2 DUP4 PUSH2 0x4649 JUMP JUMPDEST SWAP2 POP PUSH2 0x414D DUP3 PUSH2 0x4AC1 JUMP JUMPDEST PUSH1 0x2 DUP3 ADD SWAP1 POP SWAP2 SWAP1 POP JUMP JUMPDEST PUSH1 0x0 PUSH2 0x4165 PUSH1 0x14 DUP4 PUSH2 0x4638 JUMP JUMPDEST SWAP2 POP PUSH2 0x4170 DUP3 PUSH2 0x4AEA JUMP JUMPDEST PUSH1 0x20 DUP3 ADD SWAP1 POP SWAP2 SWAP1 POP JUMP JUMPDEST PUSH1 0x0 PUSH2 0x4188 PUSH1 0x12 DUP4 PUSH2 0x4638 JUMP JUMPDEST SWAP2 POP PUSH2 0x4193 DUP3 PUSH2 0x4B13 JUMP JUMPDEST PUSH1 0x20 DUP3 ADD SWAP1 POP SWAP2 SWAP1 POP JUMP JUMPDEST PUSH1 0x0 PUSH2 0x41AB PUSH1 0xF DUP4 PUSH2 0x4638 JUMP JUMPDEST SWAP2 POP PUSH2 0x41B6 DUP3 PUSH2 0x4B3C JUMP JUMPDEST PUSH1 0x20 DUP3 ADD SWAP1 POP SWAP2 SWAP1 POP JUMP JUMPDEST PUSH1 0x0 PUSH2 0x41CE PUSH1 0x6 DUP4 PUSH2 0x4638 JUMP JUMPDEST SWAP2 POP PUSH2 0x41D9 DUP3 PUSH2 0x4B65 JUMP JUMPDEST PUSH1 0x20 DUP3 ADD SWAP1 POP SWAP2 SWAP1 POP JUMP JUMPDEST PUSH2 0x41ED DUP2 PUSH2 0x4922 JUMP JUMPDEST DUP3 MSTORE POP POP JUMP JUMPDEST PUSH2 0x41FC DUP2 PUSH2 0x492C JUMP JUMPDEST DUP3 MSTORE POP POP JUMP JUMPDEST PUSH1 0x0 PUSH2 0x420E DUP3 DUP5 PUSH2 0x4085 JUMP JUMPDEST SWAP2 POP DUP2 SWAP1 POP SWAP3 SWAP2 POP POP JUMP JUMPDEST PUSH1 0x0 PUSH2 0x4224 DUP3 PUSH2 0x4135 JUMP JUMPDEST SWAP2 POP PUSH2 0x4230 DUP3 DUP6 PUSH2 0x406E JUMP JUMPDEST PUSH1 0x20 DUP3 ADD SWAP2 POP PUSH2 0x4240 DUP3 DUP5 PUSH2 0x406E JUMP JUMPDEST PUSH1 0x20 DUP3 ADD SWAP2 POP DUP2 SWAP1 POP SWAP4 SWAP3 POP POP POP JUMP JUMPDEST PUSH1 0x0 PUSH1 0x20 DUP3 ADD SWAP1 POP PUSH2 0x4265 PUSH1 0x0 DUP4 ADD DUP5 PUSH2 0x4041 JUMP JUMPDEST SWAP3 SWAP2 POP POP JUMP JUMPDEST PUSH1 0x0 PUSH1 0x40 DUP3 ADD SWAP1 POP PUSH2 0x4280 PUSH1 0x0 DUP4 ADD DUP6 PUSH2 0x4041 JUMP JUMPDEST PUSH2 0x428D PUSH1 0x20 DUP4 ADD DUP5 PUSH2 0x4041 JUMP JUMPDEST SWAP4 SWAP3 POP POP POP JUMP JUMPDEST PUSH1 0x0 PUSH1 0x80 DUP3 ADD SWAP1 POP PUSH2 0x42A9 PUSH1 0x0 DUP4 ADD DUP8 PUSH2 0x4041 JUMP JUMPDEST PUSH2 0x42B6 PUSH1 0x20 DUP4 ADD DUP7 PUSH2 0x4041 JUMP JUMPDEST PUSH2 0x42C3 PUSH1 0x40 DUP4 ADD DUP6 PUSH2 0x4041 JUMP JUMPDEST PUSH2 0x42D0 PUSH1 0x60 DUP4 ADD DUP5 PUSH2 0x41E4 JUMP JUMPDEST SWAP6 SWAP5 POP POP POP POP POP JUMP JUMPDEST PUSH1 0x0 PUSH1 0x80 DUP3 ADD SWAP1 POP PUSH2 0x42EE PUSH1 0x0 DUP4 ADD DUP8 PUSH2 0x4041 JUMP JUMPDEST PUSH2 0x42FB PUSH1 0x20 DUP4 ADD DUP7 PUSH2 0x4050 JUMP JUMPDEST PUSH2 0x4308 PUSH1 0x40 DUP4 ADD DUP6 PUSH2 0x41E4 JUMP JUMPDEST PUSH2 0x4315 PUSH1 0x60 DUP4 ADD DUP5 PUSH2 0x41E4 JUMP JUMPDEST SWAP6 SWAP5 POP POP POP POP POP JUMP JUMPDEST PUSH1 0x0 PUSH1 0x40 DUP3 ADD SWAP1 POP PUSH2 0x4333 PUSH1 0x0 DUP4 ADD DUP6 PUSH2 0x4041 JUMP JUMPDEST PUSH2 0x4340 PUSH1 0x20 DUP4 ADD DUP5 PUSH2 0x41E4 JUMP JUMPDEST SWAP4 SWAP3 POP POP POP JUMP JUMPDEST PUSH1 0x0 PUSH1 0x20 DUP3 ADD SWAP1 POP PUSH2 0x435C PUSH1 0x0 DUP4 ADD DUP5 PUSH2 0x4050 JUMP JUMPDEST SWAP3 SWAP2 POP POP JUMP JUMPDEST PUSH1 0x0 PUSH1 0x20 DUP3 ADD SWAP1 POP PUSH2 0x4377 PUSH1 0x0 DUP4 ADD DUP5 PUSH2 0x405F JUMP JUMPDEST SWAP3 SWAP2 POP POP JUMP JUMPDEST PUSH1 0x0 PUSH1 0xC0 DUP3 ADD SWAP1 POP PUSH2 0x4392 PUSH1 0x0 DUP4 ADD DUP10 PUSH2 0x405F JUMP JUMPDEST PUSH2 0x439F PUSH1 0x20 DUP4 ADD DUP9 PUSH2 0x4041 JUMP JUMPDEST PUSH2 0x43AC PUSH1 0x40 DUP4 ADD DUP8 PUSH2 0x4041 JUMP JUMPDEST PUSH2 0x43B9 PUSH1 0x60 DUP4 ADD DUP7 PUSH2 0x41E4 JUMP JUMPDEST PUSH2 0x43C6 PUSH1 0x80 DUP4 ADD DUP6 PUSH2 0x41E4 JUMP JUMPDEST PUSH2 0x43D3 PUSH1 0xA0 DUP4 ADD DUP5 PUSH2 0x41E4 JUMP JUMPDEST SWAP8 SWAP7 POP POP POP POP POP POP POP JUMP JUMPDEST PUSH1 0x0 PUSH1 0x80 DUP3 ADD SWAP1 POP PUSH2 0x43F3 PUSH1 0x0 DUP4 ADD DUP8 PUSH2 0x405F JUMP JUMPDEST PUSH2 0x4400 PUSH1 0x20 DUP4 ADD DUP7 PUSH2 0x41F3 JUMP JUMPDEST PUSH2 0x440D PUSH1 0x40 DUP4 ADD DUP6 PUSH2 0x405F JUMP JUMPDEST PUSH2 0x441A PUSH1 0x60 DUP4 ADD DUP5 PUSH2 0x405F JUMP JUMPDEST SWAP6 SWAP5 POP POP POP POP POP JUMP JUMPDEST PUSH1 0x0 PUSH1 0x20 DUP3 ADD SWAP1 POP DUP2 DUP2 SUB PUSH1 0x0 DUP4 ADD MSTORE PUSH2 0x443D DUP2 DUP5 PUSH2 0x40B6 JUMP JUMPDEST SWAP1 POP SWAP3 SWAP2 POP POP JUMP JUMPDEST PUSH1 0x0 PUSH1 0x20 DUP3 ADD SWAP1 POP DUP2 DUP2 SUB PUSH1 0x0 DUP4 ADD MSTORE PUSH2 0x445E DUP2 PUSH2 0x40EF JUMP JUMPDEST SWAP1 POP SWAP2 SWAP1 POP JUMP JUMPDEST PUSH1 0x0 PUSH1 0x20 DUP3 ADD SWAP1 POP DUP2 DUP2 SUB PUSH1 0x0 DUP4 ADD MSTORE PUSH2 0x447E DUP2 PUSH2 0x4112 JUMP JUMPDEST SWAP1 POP SWAP2 SWAP1 POP JUMP JUMPDEST PUSH1 0x0 PUSH1 0x20 DUP3 ADD SWAP1 POP DUP2 DUP2 SUB PUSH1 0x0 DUP4 ADD MSTORE PUSH2 0x449E DUP2 PUSH2 0x4158 JUMP JUMPDEST SWAP1 POP SWAP2 SWAP1 POP JUMP JUMPDEST PUSH1 0x0 PUSH1 0x20 DUP3 ADD SWAP1 POP DUP2 DUP2 SUB PUSH1 0x0 DUP4 ADD MSTORE PUSH2 0x44BE DUP2 PUSH2 0x417B JUMP JUMPDEST SWAP1 POP SWAP2 SWAP1 POP JUMP JUMPDEST PUSH1 0x0 PUSH1 0x20 DUP3 ADD SWAP1 POP DUP2 DUP2 SUB PUSH1 0x0 DUP4 ADD MSTORE PUSH2 0x44DE DUP2 PUSH2 0x419E JUMP JUMPDEST SWAP1 POP SWAP2 SWAP1 POP JUMP JUMPDEST PUSH1 0x0 PUSH1 0x20 DUP3 ADD SWAP1 POP DUP2 DUP2 SUB PUSH1 0x0 DUP4 ADD MSTORE PUSH2 0x44FE DUP2 PUSH2 0x41C1 JUMP JUMPDEST SWAP1 POP SWAP2 SWAP1 POP JUMP JUMPDEST PUSH1 0x0 PUSH1 0x20 DUP3 ADD SWAP1 POP PUSH2 0x451A PUSH1 0x0 DUP4 ADD DUP5 PUSH2 0x41E4 JUMP JUMPDEST SWAP3 SWAP2 POP POP JUMP JUMPDEST PUSH1 0x0 PUSH1 0x60 DUP3 ADD SWAP1 POP PUSH2 0x4535 PUSH1 0x0 DUP4 ADD DUP7 PUSH2 0x41E4 JUMP JUMPDEST PUSH2 0x4542 PUSH1 0x20 DUP4 ADD DUP6 PUSH2 0x4050 JUMP JUMPDEST PUSH2 0x454F PUSH1 0x40 DUP4 ADD DUP5 PUSH2 0x41E4 JUMP JUMPDEST SWAP5 SWAP4 POP POP POP POP JUMP JUMPDEST PUSH1 0x0 PUSH1 0x40 DUP3 ADD SWAP1 POP PUSH2 0x456C PUSH1 0x0 DUP4 ADD DUP6 PUSH2 0x41E4 JUMP JUMPDEST PUSH2 0x4579 PUSH1 0x20 DUP4 ADD DUP5 PUSH2 0x41E4 JUMP JUMPDEST SWAP4 SWAP3 POP POP POP JUMP JUMPDEST PUSH1 0x0 PUSH1 0x60 DUP3 ADD SWAP1 POP PUSH2 0x4595 PUSH1 0x0 DUP4 ADD DUP7 PUSH2 0x41E4 JUMP JUMPDEST PUSH2 0x45A2 PUSH1 0x20 DUP4 ADD DUP6 PUSH2 0x41E4 JUMP JUMPDEST PUSH2 0x45AF PUSH1 0x40 DUP4 ADD DUP5 PUSH2 0x4041 JUMP JUMPDEST SWAP5 SWAP4 POP POP POP POP JUMP JUMPDEST PUSH1 0x0 PUSH1 0x80 DUP3 ADD SWAP1 POP PUSH2 0x45CC PUSH1 0x0 DUP4 ADD DUP8 PUSH2 0x41E4 JUMP JUMPDEST PUSH2 0x45D9 PUSH1 0x20 DUP4 ADD DUP7 PUSH2 0x41E4 JUMP JUMPDEST PUSH2 0x45E6 PUSH1 0x40 DUP4 ADD DUP6 PUSH2 0x4050 JUMP JUMPDEST PUSH2 0x45F3 PUSH1 0x60 DUP4 ADD DUP5 PUSH2 0x4041 JUMP JUMPDEST SWAP6 SWAP5 POP POP POP POP POP JUMP JUMPDEST PUSH1 0x0 PUSH1 0x20 DUP3 ADD SWAP1 POP PUSH2 0x4611 PUSH1 0x0 DUP4 ADD DUP5 PUSH2 0x41F3 JUMP JUMPDEST SWAP3 SWAP2 POP POP JUMP JUMPDEST PUSH1 0x0 DUP2 MLOAD SWAP1 POP SWAP2 SWAP1 POP JUMP JUMPDEST PUSH1 0x0 DUP2 MLOAD SWAP1 POP SWAP2 SWAP1 POP JUMP JUMPDEST PUSH1 0x0 DUP2 SWAP1 POP SWAP3 SWAP2 POP POP JUMP JUMPDEST PUSH1 0x0 DUP3 DUP3 MSTORE PUSH1 0x20 DUP3 ADD SWAP1 POP SWAP3 SWAP2 POP POP JUMP JUMPDEST PUSH1 0x0 DUP2 SWAP1 POP SWAP3 SWAP2 POP POP JUMP JUMPDEST PUSH1 0x0 PUSH2 0x465F DUP3 PUSH2 0x4922 JUMP JUMPDEST SWAP2 POP PUSH2 0x466A DUP4 PUSH2 0x4922 JUMP JUMPDEST SWAP3 POP DUP3 PUSH32 0xFFFFFFFFFFFFFFFFFFFFFFFFFFFFFFFFFFFFFFFFFFFFFFFFFFFFFFFFFFFFFFFF SUB DUP3 GT ISZERO PUSH2 0x469F JUMPI PUSH2 0x469E PUSH2 0x49BF JUMP JUMPDEST JUMPDEST DUP3 DUP3 ADD SWAP1 POP SWAP3 SWAP2 POP POP JUMP JUMPDEST PUSH1 0x0 PUSH2 0x46B5 DUP3 PUSH2 0x4922 JUMP JUMPDEST SWAP2 POP PUSH2 0x46C0 DUP4 PUSH2 0x4922 JUMP JUMPDEST SWAP3 POP DUP3 PUSH2 0x46D0 JUMPI PUSH2 0x46CF PUSH2 0x49EE JUMP JUMPDEST JUMPDEST DUP3 DUP3 DIV SWAP1 POP SWAP3 SWAP2 POP POP JUMP JUMPDEST PUSH1 0x0 DUP1 DUP3 SWAP2 POP DUP4 SWAP1 POP JUMPDEST PUSH1 0x1 DUP6 GT ISZERO PUSH2 0x4725 JUMPI DUP1 DUP7 DIV DUP2 GT ISZERO PUSH2 0x4701 JUMPI PUSH2 0x4700 PUSH2 0x49BF JUMP JUMPDEST JUMPDEST PUSH1 0x1 DUP6 AND ISZERO PUSH2 0x4710 JUMPI DUP1 DUP3 MUL SWAP2 POP JUMPDEST DUP1 DUP2 MUL SWAP1 POP PUSH2 0x471E DUP6 PUSH2 0x4A62 JUMP JUMPDEST SWAP5 POP PUSH2 0x46E5 JUMP JUMPDEST SWAP5 POP SWAP5 SWAP3 POP POP POP JUMP JUMPDEST PUSH1 0x0 PUSH2 0x4739 DUP3 PUSH2 0x4922 JUMP JUMPDEST SWAP2 POP PUSH2 0x4744 DUP4 PUSH2 0x492C JUMP JUMPDEST SWAP3 POP PUSH2 0x4771 PUSH32 0xFFFFFFFFFFFFFFFFFFFFFFFFFFFFFFFFFFFFFFFFFFFFFFFFFFFFFFFFFFFFFFFF DUP5 DUP5 PUSH2 0x4779 JUMP JUMPDEST SWAP1 POP SWAP3 SWAP2 POP POP JUMP JUMPDEST PUSH1 0x0 DUP3 PUSH2 0x4789 JUMPI PUSH1 0x1 SWAP1 POP PUSH2 0x4845 JUMP JUMPDEST DUP2 PUSH2 0x4797 JUMPI PUSH1 0x0 SWAP1 POP PUSH2 0x4845 JUMP JUMPDEST DUP2 PUSH1 0x1 DUP2 EQ PUSH2 0x47AD JUMPI PUSH1 0x2 DUP2 EQ PUSH2 0x47B7 JUMPI PUSH2 0x47E6 JUMP JUMPDEST PUSH1 0x1 SWAP2 POP POP PUSH2 0x4845 JUMP JUMPDEST PUSH1 0xFF DUP5 GT ISZERO PUSH2 0x47C9 JUMPI PUSH2 0x47C8 PUSH2 0x49BF JUMP JUMPDEST JUMPDEST DUP4 PUSH1 0x2 EXP SWAP2 POP DUP5 DUP3 GT ISZERO PUSH2 0x47E0 JUMPI PUSH2 0x47DF PUSH2 0x49BF JUMP JUMPDEST JUMPDEST POP PUSH2 0x4845 JUMP JUMPDEST POP PUSH1 0x20 DUP4 LT PUSH2 0x133 DUP4 LT AND PUSH1 0x4E DUP5 LT PUSH1 0xB DUP5 LT AND OR ISZERO PUSH2 0x481B JUMPI DUP3 DUP3 EXP SWAP1 POP DUP4 DUP2 GT ISZERO PUSH2 0x4816 JUMPI PUSH2 0x4815 PUSH2 0x49BF JUMP JUMPDEST JUMPDEST PUSH2 0x4845 JUMP JUMPDEST PUSH2 0x4828 DUP5 DUP5 DUP5 PUSH1 0x1 PUSH2 0x46DB JUMP JUMPDEST SWAP3 POP SWAP1 POP DUP2 DUP5 DIV DUP2 GT ISZERO PUSH2 0x483F JUMPI PUSH2 0x483E PUSH2 0x49BF JUMP JUMPDEST JUMPDEST DUP2 DUP2 MUL SWAP1 POP JUMPDEST SWAP4 SWAP3 POP POP POP JUMP JUMPDEST PUSH1 0x0 PUSH2 0x4857 DUP3 PUSH2 0x4922 JUMP JUMPDEST SWAP2 POP PUSH2 0x4862 DUP4 PUSH2 0x4922 JUMP JUMPDEST SWAP3 POP DUP2 PUSH32 0xFFFFFFFFFFFFFFFFFFFFFFFFFFFFFFFFFFFFFFFFFFFFFFFFFFFFFFFFFFFFFFFF DIV DUP4 GT DUP3 ISZERO ISZERO AND ISZERO PUSH2 0x489B JUMPI PUSH2 0x489A PUSH2 0x49BF JUMP JUMPDEST JUMPDEST DUP3 DUP3 MUL SWAP1 POP SWAP3 SWAP2 POP POP JUMP JUMPDEST PUSH1 0x0 PUSH2 0x48B1 DUP3 PUSH2 0x4922 JUMP JUMPDEST SWAP2 POP PUSH2 0x48BC DUP4 PUSH2 0x4922 JUMP JUMPDEST SWAP3 POP DUP3 DUP3 LT ISZERO PUSH2 0x48CF JUMPI PUSH2 0x48CE PUSH2 0x49BF JUMP JUMPDEST JUMPDEST DUP3 DUP3 SUB SWAP1 POP SWAP3 SWAP2 POP POP JUMP JUMPDEST PUSH1 0x0 PUSH2 0x48E5 DUP3 PUSH2 0x4902 JUMP JUMPDEST SWAP1 POP SWAP2 SWAP1 POP JUMP JUMPDEST PUSH1 0x0 DUP2 ISZERO ISZERO SWAP1 POP SWAP2 SWAP1 POP JUMP JUMPDEST PUSH1 0x0 DUP2 SWAP1 POP SWAP2 SWAP1 POP JUMP JUMPDEST PUSH1 0x0 PUSH20 0xFFFFFFFFFFFFFFFFFFFFFFFFFFFFFFFFFFFFFFFF DUP3 AND SWAP1 POP SWAP2 SWAP1 POP JUMP JUMPDEST PUSH1 0x0 DUP2 SWAP1 POP SWAP2 SWAP1 POP JUMP JUMPDEST PUSH1 0x0 PUSH1 0xFF DUP3 AND SWAP1 POP SWAP2 SWAP1 POP JUMP JUMPDEST PUSH1 0x0 JUMPDEST DUP4 DUP2 LT ISZERO PUSH2 0x4957 JUMPI DUP1 DUP3 ADD MLOAD DUP2 DUP5 ADD MSTORE PUSH1 0x20 DUP2 ADD SWAP1 POP PUSH2 0x493C JUMP JUMPDEST DUP4 DUP2 GT ISZERO PUSH2 0x4966 JUMPI PUSH1 0x0 DUP5 DUP5 ADD MSTORE JUMPDEST POP POP POP POP JUMP JUMPDEST PUSH1 0x0 PUSH2 0x4977 DUP3 PUSH2 0x4922 JUMP JUMPDEST SWAP2 POP PUSH32 0xFFFFFFFFFFFFFFFFFFFFFFFFFFFFFFFFFFFFFFFFFFFFFFFFFFFFFFFFFFFFFFFF DUP3 EQ ISZERO PUSH2 0x49AA JUMPI PUSH2 0x49A9 PUSH2 0x49BF JUMP JUMPDEST JUMPDEST PUSH1 0x1 DUP3 ADD SWAP1 POP SWAP2 SWAP1 POP JUMP JUMPDEST PUSH1 0x0 DUP2 SWAP1 POP SWAP2 SWAP1 POP JUMP JUMPDEST PUSH32 0x4E487B7100000000000000000000000000000000000000000000000000000000 PUSH1 0x0 MSTORE PUSH1 0x11 PUSH1 0x4 MSTORE PUSH1 0x24 PUSH1 0x0 REVERT JUMPDEST PUSH32 0x4E487B7100000000000000000000000000000000000000000000000000000000 PUSH1 0x0 MSTORE PUSH1 0x12 PUSH1 0x4 MSTORE PUSH1 0x24 PUSH1 0x0 REVERT JUMPDEST PUSH32 0x4E487B7100000000000000000000000000000000000000000000000000000000 PUSH1 0x0 MSTORE PUSH1 0x32 PUSH1 0x4 MSTORE PUSH1 0x24 PUSH1 0x0 REVERT JUMPDEST PUSH1 0x0 DUP1 REVERT JUMPDEST PUSH1 0x0 PUSH1 0x1F NOT PUSH1 0x1F DUP4 ADD AND SWAP1 POP SWAP2 SWAP1 POP JUMP JUMPDEST PUSH1 0x0 DUP2 PUSH1 0x1 SHR SWAP1 POP SWAP2 SWAP1 POP JUMP JUMPDEST PUSH32 0x64732D6D6174682D7375622D756E646572666C6F770000000000000000000000 PUSH1 0x0 DUP3 ADD MSTORE POP JUMP JUMPDEST PUSH32 0x556E697377617056323A20494E56414C49445F5349474E415455524500000000 PUSH1 0x0 DUP3 ADD MSTORE POP JUMP JUMPDEST PUSH32 0x1901000000000000000000000000000000000000000000000000000000000000 PUSH1 0x0 DUP3 ADD MSTORE POP JUMP JUMPDEST PUSH32 0x64732D6D6174682D6164642D6F766572666C6F77000000000000000000000000 PUSH1 0x0 DUP3 ADD MSTORE POP JUMP JUMPDEST PUSH32 0x556E697377617056323A20455850495245440000000000000000000000000000 PUSH1 0x0 DUP3 ADD MSTORE POP JUMP JUMPDEST PUSH32 0x5452414E534645525F4641494C45440000000000000000000000000000000000 PUSH1 0x0 DUP3 ADD MSTORE POP JUMP JUMPDEST PUSH32 0x4C4F434B45440000000000000000000000000000000000000000000000000000 PUSH1 0x0 DUP3 ADD MSTORE POP JUMP JUMPDEST PUSH2 0x4B97 DUP2 PUSH2 0x48DA JUMP JUMPDEST DUP2 EQ PUSH2 0x4BA2 JUMPI PUSH1 0x0 DUP1 REVERT JUMPDEST POP JUMP JUMPDEST PUSH2 0x4BAE DUP2 PUSH2 0x48EC JUMP JUMPDEST DUP2 EQ PUSH2 0x4BB9 JUMPI PUSH1 0x0 DUP1 REVERT JUMPDEST POP JUMP JUMPDEST PUSH2 0x4BC5 DUP2 PUSH2 0x48F8 JUMP JUMPDEST DUP2 EQ PUSH2 0x4BD0 JUMPI PUSH1 0x0 DUP1 REVERT JUMPDEST POP JUMP JUMPDEST PUSH2 0x4BDC DUP2 PUSH2 0x4922 JUMP JUMPDEST DUP2 EQ PUSH2 0x4BE7 JUMPI PUSH1 0x0 DUP1 REVERT JUMPDEST POP JUMP JUMPDEST PUSH2 0x4BF3 DUP2 PUSH2 0x492C JUMP JUMPDEST DUP2 EQ PUSH2 0x4BFE JUMPI PUSH1 0x0 DUP1 REVERT JUMPDEST POP JUMP INVALID LOG2 PUSH5 0x6970667358 0x22 SLT KECCAK256 0xA9 0x2F GAS 0xEF 0xE2 PUSH27 0xEBB0D44A8A7FEFB562510DE8B757426C7B5BEA458E581BAFCBD364 PUSH20 0x6F6C634300080700330000000000000000000000 "
		},
		"gasEstimates": {
			"creation": {
				"codeDepositCost": "3902200",
				"executionCost": "infinite",
				"totalCost": "infinite"
			},
			"external": {
				"B()": "2498",
				"D()": "2498",
				"D0()": "2517",
				"DOMAIN_SEPARATOR()": "2542",
				"PERMIT_TYPEHASH()": "425",
				"_addr()": "2626",
				"addLiquidity(uint256,uint256,address)": "infinite",
				"allowance(address,address)": "infinite",
				"approve(address,uint256)": "infinite",
				"balanceOf(address)": "2948",
				"baserate()": "2584",
				"burnLiquidity(uint256,address)": "infinite",
				"const18()": "2498",
				"coordX()": "2541",
				"coordY()": "2519",
				"debtIndex(address,bool)": "infinite",
				"decimals()": "447",
				"delegateAddMargin(address,address)": "infinite",
				"delegateLiquidate(address,address)": "infinite",
				"delegatePerpBiopen(uint256,uint256,address)": "infinite",
				"delegatePerpClose(uint256,uint256,address)": "infinite",
				"delegatePerpOpen(uint256,uint256,bool,address)": "infinite",
				"delegateWithdrawMargin(address,address,address,uint256)": "infinite",
				"factory()": "2626",
				"getpX()": "2496",
				"getpY()": "2540",
				"initialize(address,address,uint256,uint256,address)": "infinite",
				"lastFunding()": "2561",
				"lastFundingTime()": "2585",
				"lastPayingSide()": "2627",
				"leverageMax()": "2496",
				"liquidationBonus()": "2518",
				"liquidationRate()": "2563",
				"marginIndex(address,uint256)": "infinite",
				"marginLeverage()": "2495",
				"marginReserve(uint256)": "infinite",
				"name()": "infinite",
				"nonces(address)": "2927",
				"peqX()": "2519",
				"peqY()": "2541",
				"permit(address,address,uint256,uint256,uint8,bytes32,bytes32)": "infinite",
				"perpFee()": "2497",
				"priceLocal()": "2520",
				"setBaserate(uint256)": "24801",
				"setFundingrateUpper(uint256)": "24779",
				"setLIimitation(uint8)": "27004",
				"setLeverageMargin(uint256)": "24758",
				"setLiquidationBonus(uint256)": "24759",
				"setLiquidationRate(uint256)": "24846",
				"setLogicAddress(address)": "27046",
				"setPerpFee(uint256)": "24780",
				"setSwapFee(uint256)": "24781",
				"setTickrange(uint256)": "24801",
				"skim(address)": "infinite",
				"swap(address,uint256,uint256)": "infinite",
				"swapFee()": "2585",
				"symbol()": "infinite",
				"tickrange()": "2539",
				"tokenX()": "2627",
				"tokenY()": "2647",
				"totalDebtX()": "2562",
				"totalDebtY()": "2519",
				"totalDebttokenX()": "2564",
				"totalDebttokenY()": "2521",
				"totalLiquidity()": "2520",
				"totalSupply()": "2564",
				"transfer(address,uint256)": "infinite",
				"transferFrom(address,address,uint256)": "infinite",
				"trueLiquidX()": "2584",
				"trueLiquidX0()": "2585",
				"trueLiquidY()": "2563",
				"trueLiquidY0()": "2540",
				"twoWhite()": "2605",
				"updateMargintypes(bool)": "26984",
				"upperFunding8H()": "2563"
			},
			"internal": {
				"_delegateTradeXtoY(uint256,bool,uint256)": "infinite",
				"_delegateTradeYtoX(uint256,bool,uint256)": "infinite",
				"_safeTransfer(address,address,uint256)": "infinite",
				"_virtualLiquidityUpdate()": "infinite"
			}
		},
		"methodIdentifiers": {
			"B()": "32e7c5bf",
			"D()": "0f529ba2",
			"D0()": "f738c74e",
			"DOMAIN_SEPARATOR()": "3644e515",
			"PERMIT_TYPEHASH()": "30adf81f",
			"_addr()": "62ab1a77",
			"addLiquidity(uint256,uint256,address)": "87b21efc",
			"allowance(address,address)": "dd62ed3e",
			"approve(address,uint256)": "095ea7b3",
			"balanceOf(address)": "70a08231",
			"baserate()": "ef0348fd",
			"burnLiquidity(uint256,address)": "7e401aca",
			"const18()": "7e11939a",
			"coordX()": "8ca63e6f",
			"coordY()": "8c4008e9",
			"debtIndex(address,bool)": "2c4426ad",
			"decimals()": "313ce567",
			"delegateAddMargin(address,address)": "3fbb0e9b",
			"delegateLiquidate(address,address)": "db35944f",
			"delegatePerpBiopen(uint256,uint256,address)": "d6ce29ae",
			"delegatePerpClose(uint256,uint256,address)": "eeea909f",
			"delegatePerpOpen(uint256,uint256,bool,address)": "4bac6c47",
			"delegateWithdrawMargin(address,address,address,uint256)": "e0ba7223",
			"factory()": "c45a0155",
			"getpX()": "77fef068",
			"getpY()": "d873fa7b",
			"initialize(address,address,uint256,uint256,address)": "57fb25cc",
			"lastFunding()": "fcbc49a0",
			"lastFundingTime()": "321d7fa9",
			"lastPayingSide()": "a79e6f9c",
			"leverageMax()": "e07b877a",
			"liquidationBonus()": "7b7c1f4c",
			"liquidationRate()": "a71e8644",
			"marginIndex(address,uint256)": "367401db",
			"marginLeverage()": "f13c7aed",
			"marginReserve(uint256)": "0e449559",
			"name()": "06fdde03",
			"nonces(address)": "7ecebe00",
			"peqX()": "be6571aa",
			"peqY()": "a37b1918",
			"permit(address,address,uint256,uint256,uint8,bytes32,bytes32)": "d505accf",
			"perpFee()": "5784c8c4",
			"priceLocal()": "29baf8d9",
			"setBaserate(uint256)": "b66179de",
			"setFundingrateUpper(uint256)": "ade446d2",
			"setLIimitation(uint8)": "7bbc292a",
			"setLeverageMargin(uint256)": "2f1d9842",
			"setLiquidationBonus(uint256)": "28842d4f",
			"setLiquidationRate(uint256)": "9cc8df77",
			"setLogicAddress(address)": "fdcfc3ef",
			"setPerpFee(uint256)": "4582b988",
			"setSwapFee(uint256)": "34e19907",
			"setTickrange(uint256)": "7bb1128a",
			"skim(address)": "bc25cf77",
			"swap(address,uint256,uint256)": "9f1d0f59",
			"swapFee()": "54cf2aeb",
			"symbol()": "95d89b41",
			"tickrange()": "f92e82b0",
			"tokenX()": "16dc165b",
			"tokenY()": "b7d19fc4",
			"totalDebtX()": "7bb62450",
			"totalDebtY()": "a01fbbf5",
			"totalDebttokenX()": "803042ac",
			"totalDebttokenY()": "0751a6c8",
			"totalLiquidity()": "15770f92",
			"totalSupply()": "18160ddd",
			"transfer(address,uint256)": "a9059cbb",
			"transferFrom(address,address,uint256)": "23b872dd",
			"trueLiquidX()": "b868504b",
			"trueLiquidX0()": "713370fc",
			"trueLiquidY()": "5091fadd",
			"trueLiquidY0()": "e159394f",
			"twoWhite()": "31fa66b2",
			"updateMargintypes(bool)": "2dafca56",
			"upperFunding8H()": "c556c363"
		}
	},
	"abi": [
		{
			"inputs": [],
			"stateMutability": "nonpayable",
			"type": "constructor"
		},
		{
			"anonymous": false,
			"inputs": [
				{
					"indexed": true,
					"internalType": "address",
					"name": "owner",
					"type": "address"
				},
				{
					"indexed": true,
					"internalType": "address",
					"name": "spender",
					"type": "address"
				},
				{
					"indexed": false,
					"internalType": "uint256",
					"name": "value",
					"type": "uint256"
				}
			],
			"name": "Approval",
			"type": "event"
		},
		{
			"anonymous": false,
			"inputs": [
				{
					"indexed": true,
					"internalType": "address",
					"name": "sender",
					"type": "address"
				},
				{
					"indexed": false,
					"internalType": "uint256",
					"name": "amountX",
					"type": "uint256"
				},
				{
					"indexed": false,
					"internalType": "uint256",
					"name": "amountY",
					"type": "uint256"
				},
				{
					"indexed": true,
					"internalType": "address",
					"name": "to",
					"type": "address"
				}
			],
			"name": "Burn",
			"type": "event"
		},
		{
			"anonymous": false,
			"inputs": [
				{
					"indexed": true,
					"internalType": "address",
					"name": "sender",
					"type": "address"
				},
				{
					"indexed": false,
					"internalType": "uint256",
					"name": "amountX",
					"type": "uint256"
				},
				{
					"indexed": false,
					"internalType": "uint256",
					"name": "amountY",
					"type": "uint256"
				}
			],
			"name": "Mint",
			"type": "event"
		},
		{
			"anonymous": false,
			"inputs": [
				{
					"indexed": true,
					"internalType": "address",
					"name": "sender",
					"type": "address"
				},
				{
					"indexed": false,
					"internalType": "uint256",
					"name": "amountXIn",
					"type": "uint256"
				},
				{
					"indexed": false,
					"internalType": "uint256",
					"name": "amountYIn",
					"type": "uint256"
				},
				{
					"indexed": false,
					"internalType": "uint256",
					"name": "amountXOut",
					"type": "uint256"
				},
				{
					"indexed": false,
					"internalType": "uint256",
					"name": "amountYOut",
					"type": "uint256"
				},
				{
					"indexed": true,
					"internalType": "address",
					"name": "to",
					"type": "address"
				}
			],
			"name": "Swap",
			"type": "event"
		},
		{
			"anonymous": false,
			"inputs": [
				{
					"indexed": true,
					"internalType": "address",
					"name": "from",
					"type": "address"
				},
				{
					"indexed": true,
					"internalType": "address",
					"name": "to",
					"type": "address"
				},
				{
					"indexed": false,
					"internalType": "uint256",
					"name": "value",
					"type": "uint256"
				}
			],
			"name": "Transfer",
			"type": "event"
		},
		{
			"inputs": [],
			"name": "B",
			"outputs": [
				{
					"internalType": "uint256",
					"name": "",
					"type": "uint256"
				}
			],
			"stateMutability": "view",
			"type": "function"
		},
		{
			"inputs": [],
			"name": "D",
			"outputs": [
				{
					"internalType": "uint256",
					"name": "",
					"type": "uint256"
				}
			],
			"stateMutability": "view",
			"type": "function"
		},
		{
			"inputs": [],
			"name": "D0",
			"outputs": [
				{
					"internalType": "uint256",
					"name": "",
					"type": "uint256"
				}
			],
			"stateMutability": "view",
			"type": "function"
		},
		{
			"inputs": [],
			"name": "DOMAIN_SEPARATOR",
			"outputs": [
				{
					"internalType": "bytes32",
					"name": "",
					"type": "bytes32"
				}
			],
			"stateMutability": "view",
			"type": "function"
		},
		{
			"inputs": [],
			"name": "PERMIT_TYPEHASH",
			"outputs": [
				{
					"internalType": "bytes32",
					"name": "",
					"type": "bytes32"
				}
			],
			"stateMutability": "view",
			"type": "function"
		},
		{
			"inputs": [],
			"name": "_addr",
			"outputs": [
				{
					"internalType": "address",
					"name": "",
					"type": "address"
				}
			],
			"stateMutability": "view",
			"type": "function"
		},
		{
			"inputs": [
				{
					"internalType": "uint256",
					"name": "addX",
					"type": "uint256"
				},
				{
					"internalType": "uint256",
					"name": "addY",
					"type": "uint256"
				},
				{
					"internalType": "address",
					"name": "to",
					"type": "address"
				}
			],
			"name": "addLiquidity",
			"outputs": [
				{
					"internalType": "uint256",
					"name": "liquidity",
					"type": "uint256"
				}
			],
			"stateMutability": "nonpayable",
			"type": "function"
		},
		{
			"inputs": [
				{
					"internalType": "address",
					"name": "",
					"type": "address"
				},
				{
					"internalType": "address",
					"name": "",
					"type": "address"
				}
			],
			"name": "allowance",
			"outputs": [
				{
					"internalType": "uint256",
					"name": "",
					"type": "uint256"
				}
			],
			"stateMutability": "view",
			"type": "function"
		},
		{
			"inputs": [
				{
					"internalType": "address",
					"name": "spender",
					"type": "address"
				},
				{
					"internalType": "uint256",
					"name": "value",
					"type": "uint256"
				}
			],
			"name": "approve",
			"outputs": [
				{
					"internalType": "bool",
					"name": "",
					"type": "bool"
				}
			],
			"stateMutability": "nonpayable",
			"type": "function"
		},
		{
			"inputs": [
				{
					"internalType": "address",
					"name": "",
					"type": "address"
				}
			],
			"name": "balanceOf",
			"outputs": [
				{
					"internalType": "uint256",
					"name": "",
					"type": "uint256"
				}
			],
			"stateMutability": "view",
			"type": "function"
		},
		{
			"inputs": [],
			"name": "baserate",
			"outputs": [
				{
					"internalType": "uint256",
					"name": "",
					"type": "uint256"
				}
			],
			"stateMutability": "view",
			"type": "function"
		},
		{
			"inputs": [
				{
					"internalType": "uint256",
					"name": "liquidity",
					"type": "uint256"
				},
				{
					"internalType": "address",
					"name": "to",
					"type": "address"
				}
			],
			"name": "burnLiquidity",
			"outputs": [
				{
					"internalType": "uint256",
					"name": "burnX",
					"type": "uint256"
				},
				{
					"internalType": "uint256",
					"name": "burnY",
					"type": "uint256"
				}
			],
			"stateMutability": "nonpayable",
			"type": "function"
		},
		{
			"inputs": [],
			"name": "const18",
			"outputs": [
				{
					"internalType": "uint256",
					"name": "",
					"type": "uint256"
				}
			],
			"stateMutability": "view",
			"type": "function"
		},
		{
			"inputs": [],
			"name": "coordX",
			"outputs": [
				{
					"internalType": "uint256",
					"name": "",
					"type": "uint256"
				}
			],
			"stateMutability": "view",
			"type": "function"
		},
		{
			"inputs": [],
			"name": "coordY",
			"outputs": [
				{
					"internalType": "uint256",
					"name": "",
					"type": "uint256"
				}
			],
			"stateMutability": "view",
			"type": "function"
		},
		{
			"inputs": [
				{
					"internalType": "address",
					"name": "",
					"type": "address"
				},
				{
					"internalType": "bool",
					"name": "",
					"type": "bool"
				}
			],
			"name": "debtIndex",
			"outputs": [
				{
					"internalType": "address",
					"name": "user_ID",
					"type": "address"
				},
				{
					"internalType": "bool",
					"name": "token_ID",
					"type": "bool"
				},
				{
					"internalType": "uint256",
					"name": "debttokenAmount",
					"type": "uint256"
				},
				{
					"internalType": "uint256",
					"name": "positionAmount",
					"type": "uint256"
				}
			],
			"stateMutability": "view",
			"type": "function"
		},
		{
			"inputs": [],
			"name": "decimals",
			"outputs": [
				{
					"internalType": "uint8",
					"name": "",
					"type": "uint8"
				}
			],
			"stateMutability": "view",
			"type": "function"
		},
		{
			"inputs": [
				{
					"internalType": "address",
					"name": "tokenID",
					"type": "address"
				},
				{
					"internalType": "address",
					"name": "userID",
					"type": "address"
				}
			],
			"name": "delegateAddMargin",
			"outputs": [],
			"stateMutability": "nonpayable",
			"type": "function"
		},
		{
			"inputs": [
				{
					"internalType": "address",
					"name": "userID",
					"type": "address"
				},
				{
					"internalType": "address",
					"name": "_to",
					"type": "address"
				}
			],
			"name": "delegateLiquidate",
			"outputs": [],
			"stateMutability": "nonpayable",
			"type": "function"
		},
		{
			"inputs": [
				{
					"internalType": "uint256",
					"name": "deltaX",
					"type": "uint256"
				},
				{
					"internalType": "uint256",
					"name": "deltaY",
					"type": "uint256"
				},
				{
					"internalType": "address",
					"name": "userID",
					"type": "address"
				}
			],
			"name": "delegatePerpBiopen",
			"outputs": [],
			"stateMutability": "nonpayable",
			"type": "function"
		},
		{
			"inputs": [
				{
					"internalType": "uint256",
					"name": "deltaX",
					"type": "uint256"
				},
				{
					"internalType": "uint256",
					"name": "deltaY",
					"type": "uint256"
				},
				{
					"internalType": "address",
					"name": "userID",
					"type": "address"
				}
			],
			"name": "delegatePerpClose",
			"outputs": [],
			"stateMutability": "nonpayable",
			"type": "function"
		},
		{
			"inputs": [
				{
					"internalType": "uint256",
					"name": "deltaX",
					"type": "uint256"
				},
				{
					"internalType": "uint256",
					"name": "deltaY",
					"type": "uint256"
				},
				{
					"internalType": "bool",
					"name": "XtoY",
					"type": "bool"
				},
				{
					"internalType": "address",
					"name": "userID",
					"type": "address"
				}
			],
			"name": "delegatePerpOpen",
			"outputs": [],
			"stateMutability": "nonpayable",
			"type": "function"
		},
		{
			"inputs": [
				{
					"internalType": "address",
					"name": "userID",
					"type": "address"
				},
				{
					"internalType": "address",
					"name": "tokenID",
					"type": "address"
				},
				{
					"internalType": "address",
					"name": "to",
					"type": "address"
				},
				{
					"internalType": "uint256",
					"name": "amount",
					"type": "uint256"
				}
			],
			"name": "delegateWithdrawMargin",
			"outputs": [],
			"stateMutability": "nonpayable",
			"type": "function"
		},
		{
			"inputs": [],
			"name": "factory",
			"outputs": [
				{
					"internalType": "address",
					"name": "",
					"type": "address"
				}
			],
			"stateMutability": "view",
			"type": "function"
		},
		{
			"inputs": [],
			"name": "getpX",
			"outputs": [
				{
					"internalType": "uint256",
					"name": "",
					"type": "uint256"
				}
			],
			"stateMutability": "view",
			"type": "function"
		},
		{
			"inputs": [],
			"name": "getpY",
			"outputs": [
				{
					"internalType": "uint256",
					"name": "",
					"type": "uint256"
				}
			],
			"stateMutability": "view",
			"type": "function"
		},
		{
			"inputs": [
				{
					"internalType": "address",
					"name": "_tokenX",
					"type": "address"
				},
				{
					"internalType": "address",
					"name": "_tokenY",
					"type": "address"
				},
				{
					"internalType": "uint256",
					"name": "addX",
					"type": "uint256"
				},
				{
					"internalType": "uint256",
					"name": "addY",
					"type": "uint256"
				},
				{
					"internalType": "address",
					"name": "to",
					"type": "address"
				}
			],
			"name": "initialize",
			"outputs": [],
			"stateMutability": "nonpayable",
			"type": "function"
		},
		{
			"inputs": [],
			"name": "lastFunding",
			"outputs": [
				{
					"internalType": "uint256",
					"name": "",
					"type": "uint256"
				}
			],
			"stateMutability": "view",
			"type": "function"
		},
		{
			"inputs": [],
			"name": "lastFundingTime",
			"outputs": [
				{
					"internalType": "uint256",
					"name": "",
					"type": "uint256"
				}
			],
			"stateMutability": "view",
			"type": "function"
		},
		{
			"inputs": [],
			"name": "lastPayingSide",
			"outputs": [
				{
					"internalType": "bool",
					"name": "",
					"type": "bool"
				}
			],
			"stateMutability": "view",
			"type": "function"
		},
		{
			"inputs": [],
			"name": "leverageMax",
			"outputs": [
				{
					"internalType": "uint256",
					"name": "",
					"type": "uint256"
				}
			],
			"stateMutability": "view",
			"type": "function"
		},
		{
			"inputs": [],
			"name": "liquidationBonus",
			"outputs": [
				{
					"internalType": "uint256",
					"name": "",
					"type": "uint256"
				}
			],
			"stateMutability": "view",
			"type": "function"
		},
		{
			"inputs": [],
			"name": "liquidationRate",
			"outputs": [
				{
					"internalType": "uint256",
					"name": "",
					"type": "uint256"
				}
			],
			"stateMutability": "view",
			"type": "function"
		},
		{
			"inputs": [
				{
					"internalType": "address",
					"name": "",
					"type": "address"
				},
				{
					"internalType": "uint256",
					"name": "",
					"type": "uint256"
				}
			],
			"name": "marginIndex",
			"outputs": [
				{
					"internalType": "uint256",
					"name": "",
					"type": "uint256"
				}
			],
			"stateMutability": "view",
			"type": "function"
		},
		{
			"inputs": [],
			"name": "marginLeverage",
			"outputs": [
				{
					"internalType": "uint256",
					"name": "",
					"type": "uint256"
				}
			],
			"stateMutability": "view",
			"type": "function"
		},
		{
			"inputs": [
				{
					"internalType": "uint256",
					"name": "",
					"type": "uint256"
				}
			],
			"name": "marginReserve",
			"outputs": [
				{
					"internalType": "uint256",
					"name": "",
					"type": "uint256"
				}
			],
			"stateMutability": "view",
			"type": "function"
		},
		{
			"inputs": [],
			"name": "name",
			"outputs": [
				{
					"internalType": "string",
					"name": "",
					"type": "string"
				}
			],
			"stateMutability": "view",
			"type": "function"
		},
		{
			"inputs": [
				{
					"internalType": "address",
					"name": "",
					"type": "address"
				}
			],
			"name": "nonces",
			"outputs": [
				{
					"internalType": "uint256",
					"name": "",
					"type": "uint256"
				}
			],
			"stateMutability": "view",
			"type": "function"
		},
		{
			"inputs": [],
			"name": "peqX",
			"outputs": [
				{
					"internalType": "uint256",
					"name": "",
					"type": "uint256"
				}
			],
			"stateMutability": "view",
			"type": "function"
		},
		{
			"inputs": [],
			"name": "peqY",
			"outputs": [
				{
					"internalType": "uint256",
					"name": "",
					"type": "uint256"
				}
			],
			"stateMutability": "view",
			"type": "function"
		},
		{
			"inputs": [
				{
					"internalType": "address",
					"name": "owner",
					"type": "address"
				},
				{
					"internalType": "address",
					"name": "spender",
					"type": "address"
				},
				{
					"internalType": "uint256",
					"name": "value",
					"type": "uint256"
				},
				{
					"internalType": "uint256",
					"name": "deadline",
					"type": "uint256"
				},
				{
					"internalType": "uint8",
					"name": "v",
					"type": "uint8"
				},
				{
					"internalType": "bytes32",
					"name": "r",
					"type": "bytes32"
				},
				{
					"internalType": "bytes32",
					"name": "s",
					"type": "bytes32"
				}
			],
			"name": "permit",
			"outputs": [],
			"stateMutability": "nonpayable",
			"type": "function"
		},
		{
			"inputs": [],
			"name": "perpFee",
			"outputs": [
				{
					"internalType": "uint256",
					"name": "",
					"type": "uint256"
				}
			],
			"stateMutability": "view",
			"type": "function"
		},
		{
			"inputs": [],
			"name": "priceLocal",
			"outputs": [
				{
					"internalType": "uint256",
					"name": "",
					"type": "uint256"
				}
			],
			"stateMutability": "view",
			"type": "function"
		},
		{
			"inputs": [
				{
					"internalType": "uint256",
					"name": "_baserate",
					"type": "uint256"
				}
			],
			"name": "setBaserate",
			"outputs": [],
			"stateMutability": "nonpayable",
			"type": "function"
		},
		{
			"inputs": [
				{
					"internalType": "uint256",
					"name": "f",
					"type": "uint256"
				}
			],
			"name": "setFundingrateUpper",
			"outputs": [],
			"stateMutability": "nonpayable",
			"type": "function"
		},
		{
			"inputs": [
				{
					"internalType": "uint8",
					"name": "_limitation",
					"type": "uint8"
				}
			],
			"name": "setLIimitation",
			"outputs": [],
			"stateMutability": "nonpayable",
			"type": "function"
		},
		{
			"inputs": [
				{
					"internalType": "uint256",
					"name": "L",
					"type": "uint256"
				}
			],
			"name": "setLeverageMargin",
			"outputs": [],
			"stateMutability": "nonpayable",
			"type": "function"
		},
		{
			"inputs": [
				{
					"internalType": "uint256",
					"name": "_rate",
					"type": "uint256"
				}
			],
			"name": "setLiquidationBonus",
			"outputs": [],
			"stateMutability": "nonpayable",
			"type": "function"
		},
		{
			"inputs": [
				{
					"internalType": "uint256",
					"name": "rate",
					"type": "uint256"
				}
			],
			"name": "setLiquidationRate",
			"outputs": [],
			"stateMutability": "nonpayable",
			"type": "function"
		},
		{
			"inputs": [
				{
					"internalType": "address",
					"name": "addr",
					"type": "address"
				}
			],
			"name": "setLogicAddress",
			"outputs": [],
			"stateMutability": "nonpayable",
			"type": "function"
		},
		{
			"inputs": [
				{
					"internalType": "uint256",
					"name": "_perpFee",
					"type": "uint256"
				}
			],
			"name": "setPerpFee",
			"outputs": [],
			"stateMutability": "nonpayable",
			"type": "function"
		},
		{
			"inputs": [
				{
					"internalType": "uint256",
					"name": "_swapFee",
					"type": "uint256"
				}
			],
			"name": "setSwapFee",
			"outputs": [],
			"stateMutability": "nonpayable",
			"type": "function"
		},
		{
			"inputs": [
				{
					"internalType": "uint256",
					"name": "_tickrange",
					"type": "uint256"
				}
			],
			"name": "setTickrange",
			"outputs": [],
			"stateMutability": "nonpayable",
			"type": "function"
		},
		{
			"inputs": [
				{
					"internalType": "address",
					"name": "to",
					"type": "address"
				}
			],
			"name": "skim",
			"outputs": [],
			"stateMutability": "nonpayable",
			"type": "function"
		},
		{
			"inputs": [
				{
					"internalType": "address",
					"name": "to",
					"type": "address"
				},
				{
					"internalType": "uint256",
					"name": "Xout",
					"type": "uint256"
				},
				{
					"internalType": "uint256",
					"name": "Yout",
					"type": "uint256"
				}
			],
			"name": "swap",
			"outputs": [],
			"stateMutability": "nonpayable",
			"type": "function"
		},
		{
			"inputs": [],
			"name": "swapFee",
			"outputs": [
				{
					"internalType": "uint256",
					"name": "",
					"type": "uint256"
				}
			],
			"stateMutability": "view",
			"type": "function"
		},
		{
			"inputs": [],
			"name": "symbol",
			"outputs": [
				{
					"internalType": "string",
					"name": "",
					"type": "string"
				}
			],
			"stateMutability": "view",
			"type": "function"
		},
		{
			"inputs": [],
			"name": "tickrange",
			"outputs": [
				{
					"internalType": "uint256",
					"name": "",
					"type": "uint256"
				}
			],
			"stateMutability": "view",
			"type": "function"
		},
		{
			"inputs": [],
			"name": "tokenX",
			"outputs": [
				{
					"internalType": "address",
					"name": "",
					"type": "address"
				}
			],
			"stateMutability": "view",
			"type": "function"
		},
		{
			"inputs": [],
			"name": "tokenY",
			"outputs": [
				{
					"internalType": "address",
					"name": "",
					"type": "address"
				}
			],
			"stateMutability": "view",
			"type": "function"
		},
		{
			"inputs": [],
			"name": "totalDebtX",
			"outputs": [
				{
					"internalType": "uint256",
					"name": "",
					"type": "uint256"
				}
			],
			"stateMutability": "view",
			"type": "function"
		},
		{
			"inputs": [],
			"name": "totalDebtY",
			"outputs": [
				{
					"internalType": "uint256",
					"name": "",
					"type": "uint256"
				}
			],
			"stateMutability": "view",
			"type": "function"
		},
		{
			"inputs": [],
			"name": "totalDebttokenX",
			"outputs": [
				{
					"internalType": "uint256",
					"name": "",
					"type": "uint256"
				}
			],
			"stateMutability": "view",
			"type": "function"
		},
		{
			"inputs": [],
			"name": "totalDebttokenY",
			"outputs": [
				{
					"internalType": "uint256",
					"name": "",
					"type": "uint256"
				}
			],
			"stateMutability": "view",
			"type": "function"
		},
		{
			"inputs": [],
			"name": "totalLiquidity",
			"outputs": [
				{
					"internalType": "uint256",
					"name": "",
					"type": "uint256"
				}
			],
			"stateMutability": "view",
			"type": "function"
		},
		{
			"inputs": [],
			"name": "totalSupply",
			"outputs": [
				{
					"internalType": "uint256",
					"name": "",
					"type": "uint256"
				}
			],
			"stateMutability": "view",
			"type": "function"
		},
		{
			"inputs": [
				{
					"internalType": "address",
					"name": "to",
					"type": "address"
				},
				{
					"internalType": "uint256",
					"name": "value",
					"type": "uint256"
				}
			],
			"name": "transfer",
			"outputs": [
				{
					"internalType": "bool",
					"name": "",
					"type": "bool"
				}
			],
			"stateMutability": "nonpayable",
			"type": "function"
		},
		{
			"inputs": [
				{
					"internalType": "address",
					"name": "from",
					"type": "address"
				},
				{
					"internalType": "address",
					"name": "to",
					"type": "address"
				},
				{
					"internalType": "uint256",
					"name": "value",
					"type": "uint256"
				}
			],
			"name": "transferFrom",
			"outputs": [
				{
					"internalType": "bool",
					"name": "",
					"type": "bool"
				}
			],
			"stateMutability": "nonpayable",
			"type": "function"
		},
		{
			"inputs": [],
			"name": "trueLiquidX",
			"outputs": [
				{
					"internalType": "uint256",
					"name": "",
					"type": "uint256"
				}
			],
			"stateMutability": "view",
			"type": "function"
		},
		{
			"inputs": [],
			"name": "trueLiquidX0",
			"outputs": [
				{
					"internalType": "uint256",
					"name": "",
					"type": "uint256"
				}
			],
			"stateMutability": "view",
			"type": "function"
		},
		{
			"inputs": [],
			"name": "trueLiquidY",
			"outputs": [
				{
					"internalType": "uint256",
					"name": "",
					"type": "uint256"
				}
			],
			"stateMutability": "view",
			"type": "function"
		},
		{
			"inputs": [],
			"name": "trueLiquidY0",
			"outputs": [
				{
					"internalType": "uint256",
					"name": "",
					"type": "uint256"
				}
			],
			"stateMutability": "view",
			"type": "function"
		},
		{
			"inputs": [],
			"name": "twoWhite",
			"outputs": [
				{
					"internalType": "bool",
					"name": "",
					"type": "bool"
				}
			],
			"stateMutability": "view",
			"type": "function"
		},
		{
			"inputs": [
				{
					"internalType": "bool",
					"name": "_twoWhite",
					"type": "bool"
				}
			],
			"name": "updateMargintypes",
			"outputs": [],
			"stateMutability": "nonpayable",
			"type": "function"
		},
		{
			"inputs": [],
			"name": "upperFunding8H",
			"outputs": [
				{
					"internalType": "uint256",
					"name": "",
					"type": "uint256"
				}
			],
			"stateMutability": "view",
			"type": "function"
		}
	]
}