{
	"data": {
		"bytecode": {
			"linkReferences": {},
			"object": "6080604052670de0b6b3a7640000602c556001602f553480156200002257600080fd5b5060004690507f8b73c3c69bb8fe3d512ecc4cf759cc79239f7b179b0ffacaa9a75d522b39400f6040518060400160405280600a81526020017f556e697377617020563200000000000000000000000000000000000000000000815250805190602001206040518060400160405280600181526020017f3100000000000000000000000000000000000000000000000000000000000000815250805190602001208330604051602001620000db95949392919062000172565b604051602081830303815290604052805190602001206003819055505033602560006101000a81548173ffffffffffffffffffffffffffffffffffffffff021916908373ffffffffffffffffffffffffffffffffffffffff16021790555062000217565b6200014a81620001cf565b82525050565b6200015b81620001e3565b82525050565b6200016c816200020d565b82525050565b600060a08201905062000189600083018862000150565b62000198602083018762000150565b620001a7604083018662000150565b620001b6606083018562000161565b620001c560808301846200013f565b9695505050505050565b6000620001dc82620001ed565b9050919050565b6000819050919050565b600073ffffffffffffffffffffffffffffffffffffffff82169050919050565b6000819050919050565b61717680620002276000396000f3fe608060405234801561001057600080fd5b50600436106104275760003560e01c80637e11939a1161022b578063bc25cf7711610130578063ddca3f43116100b8578063f70f439411610087578063f70f439414610cb8578063f738c74e14610cd6578063fc69b80f14610cf4578063fe18f26114610d24578063ff2f169e14610d4257610427565b8063ddca3f4314610c40578063df0ab2c214610c5e578063e19a147414610c7c578063ea1797b014610c9a57610427565b8063c9e525df116100ff578063c9e525df14610b9c578063cfe38a5e14610bba578063d44022db14610bd6578063d505accf14610bf4578063dd62ed3e14610c1057610427565b8063bc25cf7714610b28578063c3d81b2114610b44578063c45a015514610b60578063c7d4493214610b7e57610427565b80638e361389116101b35780639f1d0f59116101825780639f1d0f5914610a82578063a5aa65b914610a9e578063a9059cbb14610abc578063acd4a7c214610aec578063b7d19fc414610b0a57610427565b80638e36138914610a0c5780639076ae8614610a2a57806395d89b4114610a465780639a36e12214610a6457610427565b806380416c02116101fa57806380416c021461097857806383dfe5fd1461099657806384009686146109b45780638bc1a32f146109d25780638cf825e7146109f057610427565b80637e11939a146108d95780637e1431be146108f75780637ecebe001461092a5780637ed6281b1461095a57610427565b8063313ce567116103315780635595d459116102b95780636665ff11116102885780636665ff111461080c578063699553aa1461083d5780636b3545aa1461086d57806370a082311461088b57806379dbf8ea146108bb57610427565b80635595d459146107825780635e287d86146107a05780636126deef146107be5780636607e7e8146107ee57610427565b806336af2f9b1161030057806336af2f9b146106f05780633c6fe2f41461070e578063480c4f7e1461072c578063485cc9551461074a5780634c324e6a1461076657610427565b8063313ce5671461067a57806332e7c5bf1461069857806335714521146106b65780633644e515146106d257610427565b806318160ddd116103b4578063225c2c5011610383578063225c2c50146105d257806323b872dd146105f057806323ed16b6146106205780632dd6c2541461063e57806330adf81f1461065c57610427565b806318160ddd1461054857806318db9681146105665780631cbdffd1146105845780632190219e146105b457610427565b80630b197615116103fb5780630b197615146104b45780630bfa68d8146104d25780630f529ba2146104ee578063139860ee1461050c57806316dc165b1461052a57610427565b8062b526451461042c57806306fdde031461044a578063095ea7b31461046857806309e9586114610498575b600080fd5b610434610d5e565b6040516104419190616a2a565b60405180910390f35b610452610d64565b60405161045f91906168a8565b60405180910390f35b610482600480360381019061047d9190616271565b610d9d565b60405161048f91906167cc565b60405180910390f35b6104b260048036038101906104ad91906163cb565b610db4565b005b6104bc610e83565b6040516104c99190616a2a565b60405180910390f35b6104ec60048036038101906104e79190616331565b610e89565b005b6104f6610f23565b6040516105039190616a2a565b60405180910390f35b610514610f29565b6040516105219190616a2a565b60405180910390f35b610532610f2f565b60405161053f9190616743565b60405180910390f35b610550610f55565b60405161055d9190616a2a565b60405180910390f35b61056e610f5b565b60405161057b9190616a2a565b60405180910390f35b61059e60048036038101906105999190616331565b610f61565b6040516105ab9190616a2a565b60405180910390f35b6105bc610f7c565b6040516105c99190616a2a565b60405180910390f35b6105da610f82565b6040516105e79190616a2a565b60405180910390f35b61060a6004803603810190610605919061613c565b610f88565b60405161061791906167cc565b60405180910390f35b610628611135565b6040516106359190616a2a565b60405180910390f35b61064661113b565b6040516106539190616a2a565b60405180910390f35b610664611141565b60405161067191906167e7565b60405180910390f35b610682611168565b60405161068f9190616a6e565b60405180910390f35b6106a061116d565b6040516106ad9190616a2a565b60405180910390f35b6106d060048036038101906106cb9190616331565b611173565b005b6106da61120d565b6040516106e791906167e7565b60405180910390f35b6106f8611213565b6040516107059190616a2a565b60405180910390f35b610716611219565b6040516107239190616a2a565b60405180910390f35b61073461121f565b6040516107419190616a2a565b60405180910390f35b610764600480360381019061075f91906160fc565b611225565b005b610780600480360381019061077b91906163cb565b61133b565b005b61078a6122bd565b6040516107979190616a2a565b60405180910390f35b6107a86122c3565b6040516107b59190616a2a565b60405180910390f35b6107d860048036038101906107d391906163cb565b6122c9565b6040516107e59190616a2a565b60405180910390f35b6107f66123ee565b6040516108039190616a2a565b60405180910390f35b6108266004803603810190610821919061638b565b6123f4565b604051610834929190616a45565b60405180910390f35b610857600480360381019061085291906160cf565b612591565b6040516108649190616a2a565b60405180910390f35b6108756125a9565b6040516108829190616a2a565b60405180910390f35b6108a560048036038101906108a091906160cf565b6125af565b6040516108b29190616a2a565b60405180910390f35b6108c36125c7565b6040516108d09190616a2a565b60405180910390f35b6108e16125cd565b6040516108ee9190616a2a565b60405180910390f35b610911600480360381019061090c9190616231565b6125d3565b604051610921949392919061675e565b60405180910390f35b610944600480360381019061093f91906160cf565b61263d565b6040516109519190616a2a565b60405180910390f35b610962612655565b60405161096f9190616a2a565b60405180910390f35b61098061265b565b60405161098d9190616a2a565b60405180910390f35b61099e612661565b6040516109ab9190616a2a565b60405180910390f35b6109bc612667565b6040516109c99190616a2a565b60405180910390f35b6109da61266d565b6040516109e79190616a2a565b60405180910390f35b610a0a6004803603810190610a0591906160fc565b612673565b005b610a146129cd565b604051610a219190616a2a565b60405180910390f35b610a446004803603810190610a3f919061641e565b6129d3565b005b610a4e612e3b565b604051610a5b91906168a8565b60405180910390f35b610a6c612e74565b604051610a799190616a2a565b60405180910390f35b610a9c6004803603810190610a9791906162b1565b612e7a565b005b610aa6613276565b604051610ab39190616a2a565b60405180910390f35b610ad66004803603810190610ad19190616271565b61327c565b604051610ae391906167cc565b60405180910390f35b610af4613293565b604051610b019190616a2a565b60405180910390f35b610b12613299565b604051610b1f9190616743565b60405180910390f35b610b426004803603810190610b3d91906160cf565b6132bf565b005b610b5e6004803603810190610b5991906160fc565b6134ed565b005b610b686138d4565b604051610b759190616743565b60405180910390f35b610b866138fa565b604051610b9391906167cc565b60405180910390f35b610ba461390d565b604051610bb19190616a2a565b60405180910390f35b610bd46004803603810190610bcf9190616331565b613913565b005b610bde6139ad565b604051610beb9190616a2a565b60405180910390f35b610c0e6004803603810190610c09919061618f565b6139b3565b005b610c2a6004803603810190610c2591906160fc565b613bdb565b604051610c379190616a2a565b60405180910390f35b610c48613c00565b604051610c559190616a2a565b60405180910390f35b610c66613c06565b604051610c739190616a2a565b60405180910390f35b610c84613c0c565b604051610c919190616a2a565b60405180910390f35b610ca2613c12565b604051610caf9190616a2a565b60405180910390f35b610cc0613c18565b604051610ccd9190616a2a565b60405180910390f35b610cde613c1e565b604051610ceb9190616a2a565b60405180910390f35b610d0e6004803603810190610d099190616271565b613c24565b604051610d1b9190616a2a565b60405180910390f35b610d2c613c4c565b604051610d399190616a2a565b60405180910390f35b610d5c6004803603810190610d579190616331565b613c52565b005b600e5481565b6040518060400160405280600a81526020017f556e69737761702056320000000000000000000000000000000000000000000081525081565b6000610daa338484613cec565b6001905092915050565b6001602f5414610df9576040517f08c379a0000000000000000000000000000000000000000000000000000000008152600401610df090616a0a565b60405180910390fd5b6000602f8190555060008284610e0f9190616cbe565b148015610e27575060008284610e259190616ac6565b115b610e3057600080fd5b6000831115610e5957610e478360006001846129d3565b610e5483600080846129d3565b610e76565b610e676000836001846129d3565b610e756000836000846129d3565b5b6001602f81905550505050565b60155481565b602560009054906101000a900473ffffffffffffffffffffffffffffffffffffffff1673ffffffffffffffffffffffffffffffffffffffff163373ffffffffffffffffffffffffffffffffffffffff1614610f19576040517f08c379a0000000000000000000000000000000000000000000000000000000008152600401610f109061692a565b60405180910390fd5b8060218190555050565b60075481565b601c5481565b602660009054906101000a900473ffffffffffffffffffffffffffffffffffffffff1681565b60005481565b601d5481565b60308160028110610f7157600080fd5b016000915090505481565b60195481565b601a5481565b6000610101600260008673ffffffffffffffffffffffffffffffffffffffff1673ffffffffffffffffffffffffffffffffffffffff16815260200190815260200160002060003373ffffffffffffffffffffffffffffffffffffffff1673ffffffffffffffffffffffffffffffffffffffff168152602001908152602001600020541461111f5761109e82600260008773ffffffffffffffffffffffffffffffffffffffff1673ffffffffffffffffffffffffffffffffffffffff16815260200190815260200160002060003373ffffffffffffffffffffffffffffffffffffffff1673ffffffffffffffffffffffffffffffffffffffff16815260200190815260200160002054613dd790919063ffffffff16565b600260008673ffffffffffffffffffffffffffffffffffffffff1673ffffffffffffffffffffffffffffffffffffffff16815260200190815260200160002060003373ffffffffffffffffffffffffffffffffffffffff1673ffffffffffffffffffffffffffffffffffffffff168152602001908152602001600020819055505b61112a848484613e30565b600190509392505050565b601e5481565b60295481565b7f6e71edae12b1b97f4d1f60370fef10105fa2faae0126114a169c64845d6126c960001b81565b601281565b60055481565b602560009054906101000a900473ffffffffffffffffffffffffffffffffffffffff1673ffffffffffffffffffffffffffffffffffffffff163373ffffffffffffffffffffffffffffffffffffffff1614611203576040517f08c379a00000000000000000000000000000000000000000000000000000000081526004016111fa9061692a565b60405180910390fd5b80601d8190555050565b60035481565b600c5481565b60135481565b60175481565b602560009054906101000a900473ffffffffffffffffffffffffffffffffffffffff1673ffffffffffffffffffffffffffffffffffffffff163373ffffffffffffffffffffffffffffffffffffffff16146112b5576040517f08c379a00000000000000000000000000000000000000000000000000000000081526004016112ac906169aa565b60405180910390fd5b81602660006101000a81548173ffffffffffffffffffffffffffffffffffffffff021916908373ffffffffffffffffffffffffffffffffffffffff16021790555080602760006101000a81548173ffffffffffffffffffffffffffffffffffffffff021916908373ffffffffffffffffffffffffffffffffffffffff1602179055505050565b6001602f5414611380576040517f08c379a000000000000000000000000000000000000000000000000000000000815260040161137790616a0a565b60405180910390fd5b6000602f81905550600082846113969190616cbe565b1480156113ae5750600082846113ac9190616ac6565b115b80156113dc57506113be81613fc4565b6113c7826140f0565b6113d0836141f5565b6113da9190616ac6565b115b801561143f5750603260008273ffffffffffffffffffffffffffffffffffffffff1673ffffffffffffffffffffffffffffffffffffffff168152602001908152602001600020600080151515158152602001908152602001600020600201548311155b80156114a35750603260008273ffffffffffffffffffffffffffffffffffffffff1673ffffffffffffffffffffffffffffffffffffffff16815260200190815260200160002060006001151515158152602001908152602001600020600201548211155b6114ac57600080fd5b6114b46142e4565b6000831115611c1e5760006114ca846001614478565b90506000603260008473ffffffffffffffffffffffffffffffffffffffff1673ffffffffffffffffffffffffffffffffffffffff16815260200190815260200160002060008015151515815260200190815260200160002060020154601c54601a54603260008773ffffffffffffffffffffffffffffffffffffffff1673ffffffffffffffffffffffffffffffffffffffff1681526020019081526020016000206000600115151515815260200190815260200160002060010154886115909190616cbe565b61159a9190616cbe565b6115a49190616b1c565b6115ae9190616b1c565b905084603260008573ffffffffffffffffffffffffffffffffffffffff1673ffffffffffffffffffffffffffffffffffffffff16815260200190815260200160002060008015151515815260200190815260200160002060020160008282546116179190616d18565b9250508190555080601a60008282546116309190616d18565b92505081905550603260008473ffffffffffffffffffffffffffffffffffffffff1673ffffffffffffffffffffffffffffffffffffffff1681526020019081526020016000206000801515151581526020019081526020016000206002015485603260008673ffffffffffffffffffffffffffffffffffffffff1673ffffffffffffffffffffffffffffffffffffffff16815260200190815260200160002060006001151515158152602001908152602001600020600101546116f39190616cbe565b6116fd9190616b1c565b601c600082825461170e9190616d18565b92505081905550603260008473ffffffffffffffffffffffffffffffffffffffff1673ffffffffffffffffffffffffffffffffffffffff1681526020019081526020016000206000801515151581526020019081526020016000206002015485603260008673ffffffffffffffffffffffffffffffffffffffff1673ffffffffffffffffffffffffffffffffffffffff16815260200190815260200160002060006001151515158152602001908152602001600020600101546117d19190616cbe565b6117db9190616b1c565b603260008573ffffffffffffffffffffffffffffffffffffffff1673ffffffffffffffffffffffffffffffffffffffff1681526020019081526020016000206000600115151515815260200190815260200160002060010160008282546118429190616d18565b92505081905550808211801561186b575060001515602d60009054906101000a900460ff161515145b156118f457611886818361187f9190616d18565b60006147fc565b603360008573ffffffffffffffffffffffffffffffffffffffff1673ffffffffffffffffffffffffffffffffffffffff1681526020019081526020016000206000600281106118d8576118d7616e8f565b5b0160008282546118e89190616ac6565b92505081905550611c17565b8082603360008673ffffffffffffffffffffffffffffffffffffffff1673ffffffffffffffffffffffffffffffffffffffff16815260200190815260200160002060016002811061194857611947616e8f565b5b01546119549190616ac6565b118015611974575060011515602d60009054906101000a900460ff161515145b15611a3f578082603360008673ffffffffffffffffffffffffffffffffffffffff1673ffffffffffffffffffffffffffffffffffffffff1681526020019081526020016000206001600281106119cd576119cc616e8f565b5b01546119d99190616ac6565b6119e39190616d18565b603360008573ffffffffffffffffffffffffffffffffffffffff1673ffffffffffffffffffffffffffffffffffffffff168152602001908152602001600020600160028110611a3557611a34616e8f565b5b0181905550611c16565b611b07603360008573ffffffffffffffffffffffffffffffffffffffff1673ffffffffffffffffffffffffffffffffffffffff168152602001908152602001600020600160028110611a9457611a93616e8f565b5b01548383611aa29190616d18565b611aac9190616d18565b603360008673ffffffffffffffffffffffffffffffffffffffff1673ffffffffffffffffffffffffffffffffffffffff168152602001908152602001600020600060028110611afe57611afd616e8f565b5b01546000614b86565b603360008573ffffffffffffffffffffffffffffffffffffffff1673ffffffffffffffffffffffffffffffffffffffff168152602001908152602001600020600060028110611b5957611b58616e8f565b5b0154611b659190616d18565b603360008573ffffffffffffffffffffffffffffffffffffffff1673ffffffffffffffffffffffffffffffffffffffff168152602001908152602001600020600060028110611bb757611bb6616e8f565b5b01819055506000603360008573ffffffffffffffffffffffffffffffffffffffff1673ffffffffffffffffffffffffffffffffffffffff168152602001908152602001600020600160028110611c1057611c0f616e8f565b5b01819055505b5b50506122b0565b6000611c2b8360016147fc565b90506000603260008473ffffffffffffffffffffffffffffffffffffffff1673ffffffffffffffffffffffffffffffffffffffff1681526020019081526020016000206000600115151515815260200190815260200160002060020154601b54601954603260008773ffffffffffffffffffffffffffffffffffffffff1673ffffffffffffffffffffffffffffffffffffffff1681526020019081526020016000206000801515151581526020019081526020016000206001015487611cf19190616cbe565b611cfb9190616cbe565b611d059190616b1c565b611d0f9190616b1c565b905083603260008573ffffffffffffffffffffffffffffffffffffffff1673ffffffffffffffffffffffffffffffffffffffff168152602001908152602001600020600060011515151581526020019081526020016000206002016000828254611d799190616d18565b925050819055508060196000828254611d929190616d18565b92505081905550603260008473ffffffffffffffffffffffffffffffffffffffff1673ffffffffffffffffffffffffffffffffffffffff168152602001908152602001600020600060011515151581526020019081526020016000206002015484603260008673ffffffffffffffffffffffffffffffffffffffff1673ffffffffffffffffffffffffffffffffffffffff16815260200190815260200160002060008015151515815260200190815260200160002060010154611e559190616cbe565b611e5f9190616b1c565b601b6000828254611e709190616d18565b92505081905550603260008473ffffffffffffffffffffffffffffffffffffffff1673ffffffffffffffffffffffffffffffffffffffff168152602001908152602001600020600060011515151581526020019081526020016000206002015484603260008673ffffffffffffffffffffffffffffffffffffffff1673ffffffffffffffffffffffffffffffffffffffff16815260200190815260200160002060008015151515815260200190815260200160002060010154611f339190616cbe565b611f3d9190616b1c565b603260008573ffffffffffffffffffffffffffffffffffffffff1673ffffffffffffffffffffffffffffffffffffffff1681526020019081526020016000206000801515151581526020019081526020016000206001016000828254611fa39190616d18565b925050819055508082603360008673ffffffffffffffffffffffffffffffffffffffff1673ffffffffffffffffffffffffffffffffffffffff168152602001908152602001600020600060028110611ffe57611ffd616e8f565b5b015461200a9190616ac6565b11156120d6578082603360008673ffffffffffffffffffffffffffffffffffffffff1673ffffffffffffffffffffffffffffffffffffffff16815260200190815260200160002060006002811061206457612063616e8f565b5b01546120709190616ac6565b61207a9190616d18565b603360008573ffffffffffffffffffffffffffffffffffffffff1673ffffffffffffffffffffffffffffffffffffffff1681526020019081526020016000206000600281106120cc576120cb616e8f565b5b01819055506122ad565b61219e603360008573ffffffffffffffffffffffffffffffffffffffff1673ffffffffffffffffffffffffffffffffffffffff16815260200190815260200160002060006002811061212b5761212a616e8f565b5b015483836121399190616d18565b6121439190616d18565b603360008673ffffffffffffffffffffffffffffffffffffffff1673ffffffffffffffffffffffffffffffffffffffff16815260200190815260200160002060016002811061219557612194616e8f565b5b01546000614f1b565b603360008573ffffffffffffffffffffffffffffffffffffffff1673ffffffffffffffffffffffffffffffffffffffff1681526020019081526020016000206001600281106121f0576121ef616e8f565b5b01546121fc9190616d18565b603360008573ffffffffffffffffffffffffffffffffffffffff1673ffffffffffffffffffffffffffffffffffffffff16815260200190815260200160002060016002811061224e5761224d616e8f565b5b01819055506000603360008573ffffffffffffffffffffffffffffffffffffffff1673ffffffffffffffffffffffffffffffffffffffff1681526020019081526020016000206000600281106122a7576122a6616e8f565b5b01819055505b50505b6001602f81905550505050565b60145481565b601f5481565b60006001602f5414612310576040517f08c379a000000000000000000000000000000000000000000000000000000000815260040161230790616a0a565b60405180910390fd5b6000602f81905550601454846014546123299190616ac6565b600b546123369190616cbe565b6123409190616b1c565b600b81905550601354836013546123579190616ac6565b600c546123649190616cbe565b61236e9190616b1c565b600c81905550601454846029546123859190616cbe565b61238f9190616b1c565b90508060295461239f9190616ac6565b602981905550836014546123b39190616ac6565b601481905550826013546123c79190616ac6565b6013819055506123d782826152b0565b6123df6153ca565b6001602f819055509392505050565b60165481565b6000806001602f541461243c576040517f08c379a000000000000000000000000000000000000000000000000000000000815260040161243390616a0a565b60405180910390fd5b6000602f81905550602954601454856124559190616cbe565b61245f9190616b1c565b9150602954601354856124729190616cbe565b61247c9190616b1c565b90506014548260145461248f9190616d18565b600b5461249c9190616cbe565b6124a69190616b1c565b600b81905550601354816013546124bd9190616d18565b600c546124ca9190616cbe565b6124d49190616b1c565b600c81905550816014546124e89190616d18565b601481905550806013546124fc9190616d18565b601381905550836029546125109190616d18565b6029819055506125203085615511565b61254d602660009054906101000a900473ffffffffffffffffffffffffffffffffffffffff16848461562b565b61257a602760009054906101000a900473ffffffffffffffffffffffffffffffffffffffff16848361562b565b6125826153ca565b6001602f819055509250929050565b60346020528060005260406000206000915090505481565b601b5481565b60016020528060005260406000206000915090505481565b60125481565b602c5481565b6032602052816000526040600020602052806000526040600020600091509150508060000160009054906101000a900473ffffffffffffffffffffffffffffffffffffffff16908060000160149054906101000a900460ff16908060010154908060020154905084565b60046020528060005260406000206000915090505481565b60225481565b600a5481565b60065481565b600b5481565b602a5481565b6000602660009054906101000a900473ffffffffffffffffffffffffffffffffffffffff1673ffffffffffffffffffffffffffffffffffffffff168373ffffffffffffffffffffffffffffffffffffffff1614156128205760306000600281106126e0576126df616e8f565b5b01546014548473ffffffffffffffffffffffffffffffffffffffff166370a08231306040518263ffffffff1660e01b815260040161271e9190616743565b60206040518083038186803b15801561273657600080fd5b505afa15801561274a573d6000803e3d6000fd5b505050506040513d601f19601f8201168201806040525081019061276e919061635e565b6127789190616d18565b6127829190616d18565b905080603360008473ffffffffffffffffffffffffffffffffffffffff1673ffffffffffffffffffffffffffffffffffffffff1681526020019081526020016000206000600281106127d7576127d6616e8f565b5b0160008282546127e79190616ac6565b9250508190555080603060006002811061280457612803616e8f565b5b0160008282546128149190616ac6565b925050819055506129c8565b602760009054906101000a900473ffffffffffffffffffffffffffffffffffffffff1673ffffffffffffffffffffffffffffffffffffffff168373ffffffffffffffffffffffffffffffffffffffff1614156129c757603060016002811061288b5761288a616e8f565b5b01546013548473ffffffffffffffffffffffffffffffffffffffff166370a08231306040518263ffffffff1660e01b81526004016128c99190616743565b60206040518083038186803b1580156128e157600080fd5b505afa1580156128f5573d6000803e3d6000fd5b505050506040513d601f19601f82011682018060405250810190612919919061635e565b6129239190616d18565b61292d9190616d18565b905080603360008473ffffffffffffffffffffffffffffffffffffffff1673ffffffffffffffffffffffffffffffffffffffff16815260200190815260200160002060016002811061298257612981616e8f565b5b0160008282546129929190616ac6565b925050819055508060306001600281106129af576129ae616e8f565b5b0160008282546129bf9190616ac6565b925050819055505b5b505050565b60095481565b6001602f5414612a18576040517f08c379a0000000000000000000000000000000000000000000000000000000008152600401612a0f90616a0a565b60405180910390fd5b6000602f8190555060008385612a2e9190616cbe565b148015612a46575060008385612a449190616ac6565b115b612a4f57600080fd5b612a576142e4565b612abb612a63826140f0565b602c5486612a719190616cbe565b612a7b9190616ac6565b612a84836140f0565b600e54600d5460175488612a989190616cbe565b612aa29190616cbe565b612aac9190616b1c565b612ab69190616ac6565b6157b5565b602854612ac783613fc4565b612ad0846140f0565b612ad9856141f5565b612ae39190616ac6565b612aed9190616d18565b612af79190616b1c565b11612b37576040517f08c379a0000000000000000000000000000000000000000000000000000000008152600401612b2e906169ea565b60405180910390fd5b600080600115158415151415612cbb576000861115612b6557612b5b866001614478565b9150859050612b78565b849150612b758560006001614b86565b90505b601954601b5482612b899190616cbe565b612b939190616b1c565b603260008573ffffffffffffffffffffffffffffffffffffffff1673ffffffffffffffffffffffffffffffffffffffff1681526020019081526020016000206000801515151581526020019081526020016000206001016000828254612bf99190616ac6565b9250508190555081603260008573ffffffffffffffffffffffffffffffffffffffff1673ffffffffffffffffffffffffffffffffffffffff168152602001908152602001600020600060011515151581526020019081526020016000206002016000828254612c689190616ac6565b92505081905550601b54601954601b5483612c839190616cbe565b612c8d9190616b1c565b612c979190616ac6565b601b819055508060196000828254612caf9190616ac6565b92505081905550612e2b565b6000861115612cdb57859150612cd48660006001614f1b565b9050612cec565b612ce68560016147fc565b91508490505b601a54601c5482612cfd9190616cbe565b612d079190616b1c565b603260008573ffffffffffffffffffffffffffffffffffffffff1673ffffffffffffffffffffffffffffffffffffffff168152602001908152602001600020600060011515151581526020019081526020016000206001016000828254612d6e9190616ac6565b9250508190555081603260008573ffffffffffffffffffffffffffffffffffffffff1673ffffffffffffffffffffffffffffffffffffffff1681526020019081526020016000206000801515151581526020019081526020016000206002016000828254612ddc9190616ac6565b92505081905550601c54601a54601c5483612df79190616cbe565b612e019190616b1c565b612e0b9190616ac6565b601c8190555080601a6000828254612e239190616ac6565b925050819055505b50506001602f8190555050505050565b6040518060400160405280600681526020017f554e492d5632000000000000000000000000000000000000000000000000000081525081565b60285481565b6001602f5414612ebf576040517f08c379a0000000000000000000000000000000000000000000000000000000008152600401612eb690616a0a565b60405180910390fd5b6000602f819055506000821480612ed65750600081145b612f15576040517f08c379a0000000000000000000000000000000000000000000000000000000008152600401612f0c9061690a565b60405180910390fd5b6000602660009054906101000a900473ffffffffffffffffffffffffffffffffffffffff1673ffffffffffffffffffffffffffffffffffffffff166370a08231306040518263ffffffff1660e01b8152600401612f729190616743565b60206040518083038186803b158015612f8a57600080fd5b505afa158015612f9e573d6000803e3d6000fd5b505050506040513d601f19601f82011682018060405250810190612fc2919061635e565b90506000602760009054906101000a900473ffffffffffffffffffffffffffffffffffffffff1673ffffffffffffffffffffffffffffffffffffffff166370a08231306040518263ffffffff1660e01b81526004016130219190616743565b60206040518083038186803b15801561303957600080fd5b505afa15801561304d573d6000803e3d6000fd5b505050506040513d601f19601f82011682018060405250810190613071919061635e565b90506000601454836130839190616d18565b90506000601354836130959190616d18565b905060008211806130a65750600081115b6130e5576040517f08c379a00000000000000000000000000000000000000000000000000000000081526004016130dc906168ea565b60405180910390fd5b600086111561316357613131602760009054906101000a900473ffffffffffffffffffffffffffffffffffffffff168861312189856000614f1b565b8461312c9190616d18565b61562b565b61315e602660009054906101000a900473ffffffffffffffffffffffffffffffffffffffff16888861562b565b613265565b60008511156131e1576131af602660009054906101000a900473ffffffffffffffffffffffffffffffffffffffff168861319f88866000614b86565b856131aa9190616d18565b61562b565b6131dc602760009054906101000a900473ffffffffffffffffffffffffffffffffffffffff16888761562b565b613264565b600082111561322257613221602760009054906101000a900473ffffffffffffffffffffffffffffffffffffffff168861321c856000614478565b61562b565b5b600081111561326357613262602660009054906101000a900473ffffffffffffffffffffffffffffffffffffffff168861325d8460006147fc565b61562b565b5b5b5b505050506001602f81905550505050565b60105481565b6000613289338484613e30565b6001905092915050565b60245481565b602760009054906101000a900473ffffffffffffffffffffffffffffffffffffffff1681565b6001602f5414613304576040517f08c379a00000000000000000000000000000000000000000000000000000000081526004016132fb90616a0a565b60405180910390fd5b6000602f819055506133f7602660009054906101000a900473ffffffffffffffffffffffffffffffffffffffff16826133f2601454602660009054906101000a900473ffffffffffffffffffffffffffffffffffffffff1673ffffffffffffffffffffffffffffffffffffffff166370a08231306040518263ffffffff1660e01b81526004016133949190616743565b60206040518083038186803b1580156133ac57600080fd5b505afa1580156133c0573d6000803e3d6000fd5b505050506040513d601f19601f820116820180604052508101906133e4919061635e565b613dd790919063ffffffff16565b61562b565b6134e2602760009054906101000a900473ffffffffffffffffffffffffffffffffffffffff16826134dd601354602760009054906101000a900473ffffffffffffffffffffffffffffffffffffffff1673ffffffffffffffffffffffffffffffffffffffff166370a08231306040518263ffffffff1660e01b815260040161347f9190616743565b60206040518083038186803b15801561349757600080fd5b505afa1580156134ab573d6000803e3d6000fd5b505050506040513d601f19601f820116820180604052508101906134cf919061635e565b613dd790919063ffffffff16565b61562b565b6001602f8190555050565b6001602f5414613532576040517f08c379a000000000000000000000000000000000000000000000000000000000815260040161352990616a0a565b60405180910390fd5b6000602f8190555061354382613fc4565b61354c836140f0565b613555846141f5565b61355f9190616ac6565b1115806135af5750602a54613573836140f0565b61357d9190616cbe565b61358683613fc4565b61358f846140f0565b613598856141f5565b6135a29190616ac6565b6135ac9190616d18565b11155b6135ee576040517f08c379a00000000000000000000000000000000000000000000000000000000081526004016135e59061692a565b60405180910390fd5b61367b602660009054906101000a900473ffffffffffffffffffffffffffffffffffffffff1682602b54603360008773ffffffffffffffffffffffffffffffffffffffff1673ffffffffffffffffffffffffffffffffffffffff16815260200190815260200160002060006002811061366a57613669616e8f565b5b01546136769190616cbe565b61562b565b613708602760009054906101000a900473ffffffffffffffffffffffffffffffffffffffff1682602b54603360008773ffffffffffffffffffffffffffffffffffffffff1673ffffffffffffffffffffffffffffffffffffffff1681526020019081526020016000206001600281106136f7576136f6616e8f565b5b01546137039190616cbe565b61562b565b603360008373ffffffffffffffffffffffffffffffffffffffff1673ffffffffffffffffffffffffffffffffffffffff1681526020019081526020016000206000613753919061602e565b6000603260008473ffffffffffffffffffffffffffffffffffffffff1673ffffffffffffffffffffffffffffffffffffffff168152602001908152602001600020600080151515158152602001908152602001600020600101819055506000603260008473ffffffffffffffffffffffffffffffffffffffff1673ffffffffffffffffffffffffffffffffffffffff16815260200190815260200160002060006001151515158152602001908152602001600020600101819055506138c8603260008473ffffffffffffffffffffffffffffffffffffffff1673ffffffffffffffffffffffffffffffffffffffff16815260200190815260200160002060008015151515815260200190815260200160002060020154603260008573ffffffffffffffffffffffffffffffffffffffff1673ffffffffffffffffffffffffffffffffffffffff16815260200190815260200160002060006001151515158152602001908152602001600020600201548461133b565b6001602f819055505050565b602560009054906101000a900473ffffffffffffffffffffffffffffffffffffffff1681565b602060009054906101000a900460ff1681565b60235481565b602560009054906101000a900473ffffffffffffffffffffffffffffffffffffffff1673ffffffffffffffffffffffffffffffffffffffff163373ffffffffffffffffffffffffffffffffffffffff16146139a3576040517f08c379a000000000000000000000000000000000000000000000000000000000815260040161399a9061692a565b60405180910390fd5b8060288190555050565b60185481565b428410156139f6576040517f08c379a00000000000000000000000000000000000000000000000000000000081526004016139ed9061698a565b60405180910390fd5b60006003547f6e71edae12b1b97f4d1f60370fef10105fa2faae0126114a169c64845d6126c960001b898989600460008e73ffffffffffffffffffffffffffffffffffffffff1673ffffffffffffffffffffffffffffffffffffffff1681526020019081526020016000206000815480929190613a7290616dde565b919050558a604051602001613a8c96959493929190616802565b60405160208183030381529060405280519060200120604051602001613ab392919061670c565b604051602081830303815290604052805190602001209050600060018286868660405160008152602001604052604051613af09493929190616863565b6020604051602081039080840390855afa158015613b12573d6000803e3d6000fd5b505050602060405103519050600073ffffffffffffffffffffffffffffffffffffffff168173ffffffffffffffffffffffffffffffffffffffff1614158015613b8657508873ffffffffffffffffffffffffffffffffffffffff168173ffffffffffffffffffffffffffffffffffffffff16145b613bc5576040517f08c379a0000000000000000000000000000000000000000000000000000000008152600401613bbc9061694a565b60405180910390fd5b613bd0898989613cec565b505050505050505050565b6002602052816000526040600020602052806000526040600020600091509150505481565b602e5481565b600f5481565b60215481565b60115481565b602b5481565b60085481565b60336020528160005260406000208160028110613c4057600080fd5b01600091509150505481565b600d5481565b602560009054906101000a900473ffffffffffffffffffffffffffffffffffffffff1673ffffffffffffffffffffffffffffffffffffffff163373ffffffffffffffffffffffffffffffffffffffff1614613ce2576040517f08c379a0000000000000000000000000000000000000000000000000000000008152600401613cd99061692a565b60405180910390fd5b80602a8190555050565b80600260008573ffffffffffffffffffffffffffffffffffffffff1673ffffffffffffffffffffffffffffffffffffffff16815260200190815260200160002060008473ffffffffffffffffffffffffffffffffffffffff1673ffffffffffffffffffffffffffffffffffffffff168152602001908152602001600020819055508173ffffffffffffffffffffffffffffffffffffffff168373ffffffffffffffffffffffffffffffffffffffff167f8c5be1e5ebec7d5bd14f71427d1e84f3dd0314c0f7b2291e5b200ac8c7c3b92583604051613dca9190616a2a565b60405180910390a3505050565b6000828284613de69190616d18565b9150811115613e2a576040517f08c379a0000000000000000000000000000000000000000000000000000000008152600401613e21906168ca565b60405180910390fd5b92915050565b613e8281600160008673ffffffffffffffffffffffffffffffffffffffff1673ffffffffffffffffffffffffffffffffffffffff16815260200190815260200160002054613dd790919063ffffffff16565b600160008573ffffffffffffffffffffffffffffffffffffffff1673ffffffffffffffffffffffffffffffffffffffff16815260200190815260200160002081905550613f1781600160008573ffffffffffffffffffffffffffffffffffffffff1673ffffffffffffffffffffffffffffffffffffffff168152602001908152602001600020546157ce90919063ffffffff16565b600160008473ffffffffffffffffffffffffffffffffffffffff1673ffffffffffffffffffffffffffffffffffffffff168152602001908152602001600020819055508173ffffffffffffffffffffffffffffffffffffffff168373ffffffffffffffffffffffffffffffffffffffff167fddf252ad1be2c89b69c2b068fc378daa952ba7f163c4a11628f55a4df523b3ef83604051613fb79190616a2a565b60405180910390a3505050565b6000602c54600e54600d54601754601b54601954603260008973ffffffffffffffffffffffffffffffffffffffff1673ffffffffffffffffffffffffffffffffffffffff1681526020019081526020016000206000801515151581526020019081526020016000206001015461403a9190616cbe565b6140449190616b1c565b61404e9190616cbe565b6140589190616cbe565b6140629190616b1c565b61406c9190616b1c565b601c54601a54603260008673ffffffffffffffffffffffffffffffffffffffff1673ffffffffffffffffffffffffffffffffffffffff16815260200190815260200160002060006001151515158152602001908152602001600020600101546140d59190616cbe565b6140df9190616b1c565b6140e99190616ac6565b9050919050565b6000602c54600e54600d54601754603260008773ffffffffffffffffffffffffffffffffffffffff1673ffffffffffffffffffffffffffffffffffffffff16815260200190815260200160002060006001151515158152602001908152602001600020600201546141619190616cbe565b61416b9190616cbe565b6141759190616b1c565b61417f9190616b1c565b602c54603260008573ffffffffffffffffffffffffffffffffffffffff1673ffffffffffffffffffffffffffffffffffffffff168152602001908152602001600020600080151515158152602001908152602001600020600201546141e49190616cbe565b6141ee9190616ac6565b9050919050565b6000602c54600e54600d54601754603360008773ffffffffffffffffffffffffffffffffffffffff1673ffffffffffffffffffffffffffffffffffffffff16815260200190815260200160002060016002811061425557614254616e8f565b5b01546142619190616cbe565b61426b9190616cbe565b6142759190616b1c565b61427f9190616b1c565b603360008473ffffffffffffffffffffffffffffffffffffffff1673ffffffffffffffffffffffffffffffffffffffff1681526020019081526020016000206000600281106142d1576142d0616e8f565b5b01546142dd9190616ac6565b9050919050565b6000806142ef615827565b915091506000601f54436143039190616d18565b905043601f819055506000600e54600d546017546143219190616cbe565b61432b9190616b1c565b905060001515602060009054906101000a900460ff16151514156143dc57602c5482601e54602c5461435d9190616ac6565b60195461436a9190616cbe565b6143749190616cbe565b61437e9190616b1c565b601981905550602c54602c548284601954601e5461439c9190616cbe565b6143a69190616cbe565b6143b09190616cbe565b6143ba9190616b1c565b6143c49190616b1c565b601a546143d19190616d18565b601a81905550614451565b602c5482601e54602c546143f09190616ac6565b601a546143fd9190616cbe565b6144079190616cbe565b6144119190616b1c565b601a819055508082601a54601e546144299190616cbe565b6144339190616cbe565b61443d9190616b1c565b60195461444a9190616d18565b6019819055505b83601e8190555082602060006101000a81548160ff02191690831515021790555050505050565b60006001602f54146144bf576040517f08c379a00000000000000000000000000000000000000000000000000000000081526004016144b690616a0a565b60405180910390fd5b6000602f8190555060008390506000600190505b6001151581151514156147ec576000602c546018546009546144f59190616cbe565b6144ff9190616b1c565b90506000614515600554600654600754856159ef565b905061452682600b54600e54615aef565b8411156146e55761453c600c5482600d54615aef565b856145479190616ac6565b945061455882600b54600e54615aef565b846145639190616d18565b935060011515861515141561459e57614581600c5482600d54615aef565b600f60008282546145929190616ac6565b925050819055506145ed565b6145ad82600b54600e54615aef565b601460008282546145be9190616ac6565b925050819055506145d4600c5482600d54615aef565b601360008282546145e59190616d18565b925050819055505b80600a54600d546145fe9190616cbe565b6146089190616b1c565b600d8190555081600954600e5461461f9190616cbe565b6146299190616b1c565b600e81905550600a54826009548361464a6005546006546007548989615b24565b6146549190616cbe565b61465e9190616cbe565b6146689190616b1c565b6146729190616b1c565b601781905550600954600b81905550600a54600c8190555061469e600b54600c54600754601754615c18565b600581905550600554602c5460026146b69190616cbe565b6146c09190616d18565b6006819055506146ce6153ca565b600954600b81905550600a54600c819055506147e5565b600b54601581905550600c54601681905550602c54600e54856147089190616cbe565b6147129190616b1c565b600b60008282546147239190616ac6565b9250508190555061473e600554600654600754600b546159ef565b600c81905550614755601654600c54600d54615aef565b856147609190616ac6565b945060011515861515141561479d57614780601654600c54600d54615aef565b600f60008282546147919190616ac6565b925050819055506147e0565b83601460008282546147af9190616ac6565b925050819055506147c7601654600c54600d54615aef565b601360008282546147d89190616d18565b925050819055505b600092505b50506144d3565b50506001602f8190555092915050565b60006001602f5414614843576040517f08c379a000000000000000000000000000000000000000000000000000000000815260040161483a90616a0a565b60405180910390fd5b6000602f8190555060008390506000600190505b600115158115151415614b76576000602c546018546009546148799190616cbe565b6148839190616b1c565b9050600061489960055460065460075485615d52565b90506148aa82600c54600d54615aef565b841115614a6f5760006148c66005546006546007548587615b24565b90506148d7600b5483600e54615aef565b866148e29190616ac6565b95506148f383600c54600d54615aef565b856148fe9190616d18565b94506001151587151514156149395761491c600b5483600e54615aef565b6010600082825461492d9190616ac6565b92505081905550614988565b614948600b5483600e54615aef565b601460008282546149599190616d18565b9250508190555061496f83600c54600d54615aef565b601360008282546149809190616ac6565b925050819055505b82600a54600d546149999190616cbe565b6149a39190616b1c565b600d8190555081600954600e546149ba9190616cbe565b6149c49190616b1c565b600e81905550600a548260095485846149dd9190616cbe565b6149e79190616cbe565b6149f19190616b1c565b6149fb9190616b1c565b601781905550600954600b81905550600a54600c81905550614a27600b54600c54600754601754615c18565b600581905550600554602c546002614a3f9190616cbe565b614a499190616d18565b600681905550614a576153ca565b600954600b81905550600a54600c8190555050614b6f565b600b54601581905550600c54601681905550602c54600d5485614a929190616cbe565b614a9c9190616b1c565b600c6000828254614aad9190616ac6565b92505081905550614ac8600554600654600754600c54615d52565b600b81905550614adf601554600b54600e54615aef565b85614aea9190616ac6565b9450600115158615151415614b2757614b0a601554600b54600e54615aef565b60106000828254614b1b9190616ac6565b92505081905550614b6a565b8360136000828254614b399190616ac6565b92505081905550614b51601554600b54600e54615aef565b60146000828254614b629190616d18565b925050819055505b600092505b5050614857565b50506001602f8190555092915050565b60006001602f5414614bcd576040517f08c379a0000000000000000000000000000000000000000000000000000000008152600401614bc490616a0a565b60405180910390fd5b6000602f8190555060008490506000600190505b600115158115151415614ef0576000602c54601854600954614c039190616cbe565b614c0d9190616b1c565b90506000614c23600554600654600754856159ef565b9050614c34600c5482600d54615aef565b841115614df9576000614c506005546006546007548686615b24565b9050614c6183600b54600e54615aef565b86614c6c9190616ac6565b9550614c7d600c5483600d54615aef565b85614c889190616d18565b9450600115158715151415614cc357614ca6600c5483600d54615aef565b600f6000828254614cb79190616ac6565b92505081905550614d12565b614cd283600b54600e54615aef565b60146000828254614ce39190616ac6565b92505081905550614cf9600c5483600d54615aef565b60136000828254614d0a9190616d18565b925050819055505b81600a54600d54614d239190616cbe565b614d2d9190616b1c565b600d8190555082600954600e54614d449190616cbe565b614d4e9190616b1c565b600e81905550600a54836009548484614d679190616cbe565b614d719190616cbe565b614d7b9190616b1c565b614d859190616b1c565b601781905550600954600b81905550600a54600c81905550614db1600b54600c54600754601754615c18565b600581905550600554602c546002614dc99190616cbe565b614dd39190616d18565b600681905550614de16153ca565b600954600b81905550600a54600c8190555050614ee9565b600b54601581905550600c54601681905550602c54600d5485614e1c9190616cbe565b614e269190616b1c565b600c6000828254614e379190616d18565b92505081905550614e52600554600654600754600c54615d52565b600b81905550614e69600b54601554600e54615aef565b85614e749190616ac6565b9450600115158615151415614ea15783600f6000828254614e959190616ac6565b92505081905550614ee4565b614eb2600b54601554600e54615aef565b60146000828254614ec39190616ac6565b925050819055508360136000828254614edc9190616d18565b925050819055505b600092505b5050614be1565b600015158415151415614f0a57828511614f0957600080fd5b5b50506001602f819055509392505050565b60006001602f5414614f62576040517f08c379a0000000000000000000000000000000000000000000000000000000008152600401614f5990616a0a565b60405180910390fd5b6000602f8190555060008490506000600190505b600115158115151415615285576000602c54601854600a54614f989190616cbe565b614fa29190616b1c565b90506000614fb860055460065460075485615d52565b9050614fc9600b5482600e54615aef565b84111561518e576000614fe56005546006546007548587615b24565b9050614ff683600c54600d54615aef565b866150019190616ac6565b9550615012600b5483600e54615aef565b8561501d9190616d18565b94506001151587151514156150585761503b600b5483600e54615aef565b6010600082825461504c9190616ac6565b925050819055506150a7565b61506783600c54600d54615aef565b601360008282546150789190616ac6565b9250508190555061508e600b5483600e54615aef565b6014600082825461509f9190616d18565b925050819055505b82600a54600d546150b89190616cbe565b6150c29190616b1c565b600d8190555081600954600e546150d99190616cbe565b6150e39190616b1c565b600e81905550600a548260095485846150fc9190616cbe565b6151069190616cbe565b6151109190616b1c565b61511a9190616b1c565b601781905550600954600b81905550600a54600c81905550615146600b54600c54600754601754615c18565b600581905550600554602c54600261515e9190616cbe565b6151689190616d18565b6006819055506151766153ca565b600954600b81905550600a54600c819055505061527e565b600b54601581905550600c54601681905550602c54600e54856151b19190616cbe565b6151bb9190616b1c565b600b60008282546151cc9190616d18565b925050819055506151e7600554600654600754600b546159ef565b600c819055506151fe600c54601654600d54615aef565b856152099190616ac6565b945060011515861515141561523657836010600082825461522a9190616ac6565b92505081905550615279565b615247600c54601654600d54615aef565b601360008282546152589190616ac6565b9250508190555083601460008282546152719190616d18565b925050819055505b600092505b5050614f76565b60001515841515141561529f5782851161529e57600080fd5b5b50506001602f819055509392505050565b6152c5816000546157ce90919063ffffffff16565b60008190555061531d81600160008573ffffffffffffffffffffffffffffffffffffffff1673ffffffffffffffffffffffffffffffffffffffff168152602001908152602001600020546157ce90919063ffffffff16565b600160008473ffffffffffffffffffffffffffffffffffffffff1673ffffffffffffffffffffffffffffffffffffffff168152602001908152602001600020819055508173ffffffffffffffffffffffffffffffffffffffff16600073ffffffffffffffffffffffffffffffffffffffff167fddf252ad1be2c89b69c2b068fc378daa952ba7f163c4a11628f55a4df523b3ef836040516153be9190616a2a565b60405180910390a35050565b6154b2601154601254601154600654600d546153e69190616cbe565b6153f09190616cbe565b600e546005546012546154039190616cbe565b61540d9190616cbe565b6154179190616ac6565b602c54602c54601354601454601354600654600d546154369190616cbe565b6154409190616cbe565b600e546005546014546154539190616cbe565b61545d9190616cbe565b6154679190616ac6565b6154719190616cbe565b61547b9190616cbe565b6154859190616cbe565b61548f9190616cbe565b6154999190616b1c565b6154a39190616b1c565b6154ad9190616b1c565b615e52565b602381905550602c54602c546023546008546154ce9190616cbe565b6154d89190616b1c565b6154e29190616b1c565b60078190555060026007546154f79190616b1c565b600981905550600954600a81905550602354602481905550565b61556381600160008573ffffffffffffffffffffffffffffffffffffffff1673ffffffffffffffffffffffffffffffffffffffff16815260200190815260200160002054613dd790919063ffffffff16565b600160008473ffffffffffffffffffffffffffffffffffffffff1673ffffffffffffffffffffffffffffffffffffffff168152602001908152602001600020819055506155bb81600054613dd790919063ffffffff16565b600081905550600073ffffffffffffffffffffffffffffffffffffffff168273ffffffffffffffffffffffffffffffffffffffff167fddf252ad1be2c89b69c2b068fc378daa952ba7f163c4a11628f55a4df523b3ef8360405161561f9190616a2a565b60405180910390a35050565b6000808473ffffffffffffffffffffffffffffffffffffffff166040518060400160405280601981526020017f7472616e7366657228616464726573732c75696e7432353629000000000000008152508051906020012085856040516024016156959291906167a3565b604051602081830303815290604052907bffffffffffffffffffffffffffffffffffffffffffffffffffffffff19166020820180517bffffffffffffffffffffffffffffffffffffffffffffffffffffffff83818316178352505050506040516156ff91906166f5565b6000604051808303816000865af19150503d806000811461573c576040519150601f19603f3d011682016040523d82523d6000602084013e615741565b606091505b509150915081801561576f575060008151148061576e57508080602001905181019061576d9190616304565b5b5b6157ae576040517f08c379a00000000000000000000000000000000000000000000000000000000081526004016157a5906169ca565b60405180910390fd5b5050505050565b60008183116157c457816157c6565b825b905092915050565b60008282846157dd9190616ac6565b9150811015615821576040517f08c379a00000000000000000000000000000000000000000000000000000000081526004016158189061696a565b60405180910390fd5b92915050565b6000806000602c54600e5460145461583f9190616cbe565b6158499190616b1c565b90506000602c54600d546013546158609190616cbe565b61586a9190616b1c565b9050600061587b8383600754615ee3565b9050600081602c54600261588f9190616cbe565b6158999190616d18565b90506000600e54600d546158b285856007548a8a615b24565b6158bc9190616cbe565b6158c69190616b1c565b90506000600e54600d546158e7600554600654600754600b54600c54615b24565b6158f19190616cbe565b6158fb9190616b1c565b905081811115615962576000615918600f54601354602254615f67565b90508061168084602c54868661592e9190616d18565b6159389190616cbe565b6159429190616b1c565b61594c9190616b1c565b6159569190616ac6565b985060009750506159bb565b6000615975601054601454602254615f67565b90508061168084602c54858761598b9190616d18565b6159959190616cbe565b61599f9190616b1c565b6159a99190616b1c565b6159b39190616ac6565b985060019750505b602154610780896159cc9190616cbe565b11156159e5576107806021546159e29190616b1c565b97505b5050505050509091565b6000818460086159ff9190616cbe565b615a099190616cbe565b615aa2670de0b6b3a7640000858687615a229190616cbe565b615a2c9190616cbe565b6000615a389190616d18565b85886010615a469190616cbe565b615a509190616cbe565b615a5a9190616cbe565b615a649190616cbe565b600285868a6004615a759190616cbe565b615a7f9190616cbe565b615a899190616cbe565b615a939190616ba0565b615a9d9190616d18565b615fb4565b8384886004615ab19190616cbe565b615abb9190616cbe565b615ac59190616cbe565b6000615ad19190616d18565b615adb9190616ac6565b615ae59190616b1c565b9050949350505050565b600081670de0b6b3a76400008486615b079190616d18565b615b119190616cbe565b615b1b9190616b1c565b90509392505050565b600081848586615b349190616cbe565b615b3e9190616cbe565b615b489190616cbe565b828385868a6004615b599190616cbe565b615b639190616cbe565b615b6d9190616cbe565b615b779190616cbe565b615b819190616cbe565b615b8b9190616ac6565b670de0b6b3a764000084868788615ba29190616cbe565b615bac9190616cbe565b615bb69190616cbe565b848587888b6004615bc79190616cbe565b615bd19190616cbe565b615bdb9190616cbe565b615be59190616cbe565b615bef9190616cbe565b615bf99190616ac6565b615c039190616cbe565b615c0d9190616b1c565b905095945050505050565b600081670de0b6b3a7640000615c2e9190616ac6565b848587886004615c3e9190616cbe565b615c489190616cbe565b615c529190616cbe565b615c5c9190616cbe565b615c669190616cbe565b670de0b6b3a76400008386868788615c7e9190616cbe565b615c889190616cbe565b615c929190616cbe565b615c9c9190616cbe565b615ca69190616cbe565b6ec097ce7bc90715b34b9f100000000087868788615cc49190616cbe565b615cce9190616cbe565b615cd89190616cbe565b615ce29190616cbe565b6ec097ce7bc90715b34b9f100000000087888a8b6008615d029190616cbe565b615d0c9190616cbe565b615d169190616cbe565b615d209190616cbe565b615d2a9190616cbe565b615d349190616ac6565b615d3e9190616d18565b615d489190616b1c565b9050949350505050565b600081856008615d629190616cbe565b615d6c9190616cbe565b615e05670de0b6b3a7640000858687615d859190616cbe565b615d8f9190616cbe565b6000615d9b9190616d18565b85896010615da99190616cbe565b615db39190616cbe565b615dbd9190616cbe565b615dc79190616cbe565b60028586896004615dd89190616cbe565b615de29190616cbe565b615dec9190616cbe565b615df69190616ba0565b615e009190616d18565b615fb4565b8384876004615e149190616cbe565b615e1e9190616cbe565b615e289190616cbe565b6000615e349190616d18565b615e3e9190616ac6565b615e489190616b1c565b9050949350505050565b60006008821115615ed05781905060006001600384615e719190616b1c565b615e7b9190616ac6565b90505b81811015615eca578091506003816002615e989190616cbe565b8283615ea49190616cbe565b85615eaf9190616b1c565b615eb99190616ac6565b615ec39190616b1c565b9050615e7e565b50615ede565b60008214615edd57600190505b5b919050565b60008284615ef19190616d18565b670de0b6b3a7640000846002615f079190616cbe565b85876004878889615f189190616cbe565b615f229190616cbe565b615f2c9190616b1c565b615f369190616b1c565b615f409190616b1c565b615f4a9190616d18565b615f549190616cbe565b615f5e9190616b1c565b90509392505050565b60008161e1008585615f799190616ac6565b670de0b6b3a764000087615f8d9190616cbe565b615f979190616b1c565b615fa19190616b1c565b615fab9190616ac6565b90509392505050565b6000600382111561601b5781905060006001600284615fd39190616b1c565b615fdd9190616ac6565b90505b81811015616015578091506002818285615ffa9190616b1c565b6160049190616ac6565b61600e9190616b1c565b9050615fe0565b50616029565b6000821461602857600190505b5b919050565b506000815560010160009055565b60008135905061604b816170cd565b92915050565b600081359050616060816170e4565b92915050565b600081519050616075816170e4565b92915050565b60008135905061608a816170fb565b92915050565b60008135905061609f81617112565b92915050565b6000815190506160b481617112565b92915050565b6000813590506160c981617129565b92915050565b6000602082840312156160e5576160e4616ebe565b5b60006160f38482850161603c565b91505092915050565b6000806040838503121561611357616112616ebe565b5b60006161218582860161603c565b92505060206161328582860161603c565b9150509250929050565b60008060006060848603121561615557616154616ebe565b5b60006161638682870161603c565b93505060206161748682870161603c565b925050604061618586828701616090565b9150509250925092565b600080600080600080600060e0888a0312156161ae576161ad616ebe565b5b60006161bc8a828b0161603c565b97505060206161cd8a828b0161603c565b96505060406161de8a828b01616090565b95505060606161ef8a828b01616090565b94505060806162008a828b016160ba565b93505060a06162118a828b0161607b565b92505060c06162228a828b0161607b565b91505092959891949750929550565b6000806040838503121561624857616247616ebe565b5b60006162568582860161603c565b925050602061626785828601616051565b9150509250929050565b6000806040838503121561628857616287616ebe565b5b60006162968582860161603c565b92505060206162a785828601616090565b9150509250929050565b6000806000606084860312156162ca576162c9616ebe565b5b60006162d88682870161603c565b93505060206162e986828701616090565b92505060406162fa86828701616090565b9150509250925092565b60006020828403121561631a57616319616ebe565b5b600061632884828501616066565b91505092915050565b60006020828403121561634757616346616ebe565b5b600061635584828501616090565b91505092915050565b60006020828403121561637457616373616ebe565b5b6000616382848285016160a5565b91505092915050565b600080604083850312156163a2576163a1616ebe565b5b60006163b085828601616090565b92505060206163c18582860161603c565b9150509250929050565b6000806000606084860312156163e4576163e3616ebe565b5b60006163f286828701616090565b935050602061640386828701616090565b92505060406164148682870161603c565b9150509250925092565b6000806000806080858703121561643857616437616ebe565b5b600061644687828801616090565b945050602061645787828801616090565b935050604061646887828801616051565b92505060606164798782880161603c565b91505092959194509250565b61648e81616d4c565b82525050565b61649d81616d5e565b82525050565b6164ac81616d6a565b82525050565b6164c36164be82616d6a565b616e27565b82525050565b60006164d482616a89565b6164de8185616a9f565b93506164ee818560208601616dab565b80840191505092915050565b600061650582616a94565b61650f8185616aaa565b935061651f818560208601616dab565b61652881616ec3565b840191505092915050565b6000616540601583616aaa565b915061654b82616ee1565b602082019050919050565b6000616563602083616aaa565b915061656e82616f0a565b602082019050919050565b6000616586601283616aaa565b915061659182616f33565b602082019050919050565b60006165a9601083616aaa565b91506165b482616f5c565b602082019050919050565b60006165cc601c83616aaa565b91506165d782616f85565b602082019050919050565b60006165ef600283616abb565b91506165fa82616fae565b600282019050919050565b6000616612601483616aaa565b915061661d82616fd7565b602082019050919050565b6000616635601283616aaa565b915061664082617000565b602082019050919050565b6000616658600983616aaa565b915061666382617029565b602082019050919050565b600061667b600f83616aaa565b915061668682617052565b602082019050919050565b600061669e601883616aaa565b91506166a98261707b565b602082019050919050565b60006166c1600683616aaa565b91506166cc826170a4565b602082019050919050565b6166e081616d94565b82525050565b6166ef81616d9e565b82525050565b600061670182846164c9565b915081905092915050565b6000616717826165e2565b915061672382856164b2565b60208201915061673382846164b2565b6020820191508190509392505050565b60006020820190506167586000830184616485565b92915050565b60006080820190506167736000830187616485565b6167806020830186616494565b61678d60408301856166d7565b61679a60608301846166d7565b95945050505050565b60006040820190506167b86000830185616485565b6167c560208301846166d7565b9392505050565b60006020820190506167e16000830184616494565b92915050565b60006020820190506167fc60008301846164a3565b92915050565b600060c08201905061681760008301896164a3565b6168246020830188616485565b6168316040830187616485565b61683e60608301866166d7565b61684b60808301856166d7565b61685860a08301846166d7565b979650505050505050565b600060808201905061687860008301876164a3565b61688560208301866166e6565b61689260408301856164a3565b61689f60608301846164a3565b95945050505050565b600060208201905081810360008301526168c281846164fa565b905092915050565b600060208201905081810360008301526168e381616533565b9050919050565b6000602082019050818103600083015261690381616556565b9050919050565b6000602082019050818103600083015261692381616579565b9050919050565b600060208201905081810360008301526169438161659c565b9050919050565b60006020820190508181036000830152616963816165bf565b9050919050565b6000602082019050818103600083015261698381616605565b9050919050565b600060208201905081810360008301526169a381616628565b9050919050565b600060208201905081810360008301526169c38161664b565b9050919050565b600060208201905081810360008301526169e38161666e565b9050919050565b60006020820190508181036000830152616a0381616691565b9050919050565b60006020820190508181036000830152616a23816166b4565b9050919050565b6000602082019050616a3f60008301846166d7565b92915050565b6000604082019050616a5a60008301856166d7565b616a6760208301846166d7565b9392505050565b6000602082019050616a8360008301846166e6565b92915050565b600081519050919050565b600081519050919050565b600081905092915050565b600082825260208201905092915050565b600081905092915050565b6000616ad182616d94565b9150616adc83616d94565b9250827fffffffffffffffffffffffffffffffffffffffffffffffffffffffffffffffff03821115616b1157616b10616e31565b5b828201905092915050565b6000616b2782616d94565b9150616b3283616d94565b925082616b4257616b41616e60565b5b828204905092915050565b6000808291508390505b6001851115616b9757808604811115616b7357616b72616e31565b5b6001851615616b825780820291505b8081029050616b9085616ed4565b9450616b57565b94509492505050565b6000616bab82616d94565b9150616bb683616d9e565b9250616be37fffffffffffffffffffffffffffffffffffffffffffffffffffffffffffffffff8484616beb565b905092915050565b600082616bfb5760019050616cb7565b81616c095760009050616cb7565b8160018114616c1f5760028114616c2957616c58565b6001915050616cb7565b60ff841115616c3b57616c3a616e31565b5b8360020a915084821115616c5257616c51616e31565b5b50616cb7565b5060208310610133831016604e8410600b8410161715616c8d5782820a905083811115616c8857616c87616e31565b5b616cb7565b616c9a8484846001616b4d565b92509050818404811115616cb157616cb0616e31565b5b81810290505b9392505050565b6000616cc982616d94565b9150616cd483616d94565b9250817fffffffffffffffffffffffffffffffffffffffffffffffffffffffffffffffff0483118215151615616d0d57616d0c616e31565b5b828202905092915050565b6000616d2382616d94565b9150616d2e83616d94565b925082821015616d4157616d40616e31565b5b828203905092915050565b6000616d5782616d74565b9050919050565b60008115159050919050565b6000819050919050565b600073ffffffffffffffffffffffffffffffffffffffff82169050919050565b6000819050919050565b600060ff82169050919050565b60005b83811015616dc9578082015181840152602081019050616dae565b83811115616dd8576000848401525b50505050565b6000616de982616d94565b91507fffffffffffffffffffffffffffffffffffffffffffffffffffffffffffffffff821415616e1c57616e1b616e31565b5b600182019050919050565b6000819050919050565b7f4e487b7100000000000000000000000000000000000000000000000000000000600052601160045260246000fd5b7f4e487b7100000000000000000000000000000000000000000000000000000000600052601260045260246000fd5b7f4e487b7100000000000000000000000000000000000000000000000000000000600052603260045260246000fd5b600080fd5b6000601f19601f8301169050919050565b60008160011c9050919050565b7f64732d6d6174682d7375622d756e646572666c6f770000000000000000000000600082015250565b7f51696c696e3a20494e53554646494349454e545f494e5055545f414d4f554e54600082015250565b7f51496c696e3a20494e56414c49445f4f55540000000000000000000000000000600082015250565b7f51696c696e3a20464f5242494444454e00000000000000000000000000000000600082015250565b7f556e697377617056323a20494e56414c49445f5349474e415455524500000000600082015250565b7f1901000000000000000000000000000000000000000000000000000000000000600082015250565b7f64732d6d6174682d6164642d6f766572666c6f77000000000000000000000000600082015250565b7f556e697377617056323a20455850495245440000000000000000000000000000600082015250565b7f464f5242494444454e0000000000000000000000000000000000000000000000600082015250565b7f5452414e534645525f4641494c45440000000000000000000000000000000000600082015250565b7f51696c696e3a204e4f5420454e4f554748204d415247494e0000000000000000600082015250565b7f4c4f434b45440000000000000000000000000000000000000000000000000000600082015250565b6170d681616d4c565b81146170e157600080fd5b50565b6170ed81616d5e565b81146170f857600080fd5b50565b61710481616d6a565b811461710f57600080fd5b50565b61711b81616d94565b811461712657600080fd5b50565b61713281616d9e565b811461713d57600080fd5b5056fea26469706673582212209f5ef0c9695f605b6c5e9d5b43ea6c4c52b9a337344c878257a93c37a75869c564736f6c63430008070033",
			"opcodes": "PUSH1 0x80 PUSH1 0x40 MSTORE PUSH8 0xDE0B6B3A7640000 PUSH1 0x2C SSTORE PUSH1 0x1 PUSH1 0x2F SSTORE CALLVALUE DUP1 ISZERO PUSH3 0x22 JUMPI PUSH1 0x0 DUP1 REVERT JUMPDEST POP PUSH1 0x0 CHAINID SWAP1 POP PUSH32 0x8B73C3C69BB8FE3D512ECC4CF759CC79239F7B179B0FFACAA9A75D522B39400F PUSH1 0x40 MLOAD DUP1 PUSH1 0x40 ADD PUSH1 0x40 MSTORE DUP1 PUSH1 0xA DUP2 MSTORE PUSH1 0x20 ADD PUSH32 0x556E697377617020563200000000000000000000000000000000000000000000 DUP2 MSTORE POP DUP1 MLOAD SWAP1 PUSH1 0x20 ADD KECCAK256 PUSH1 0x40 MLOAD DUP1 PUSH1 0x40 ADD PUSH1 0x40 MSTORE DUP1 PUSH1 0x1 DUP2 MSTORE PUSH1 0x20 ADD PUSH32 0x3100000000000000000000000000000000000000000000000000000000000000 DUP2 MSTORE POP DUP1 MLOAD SWAP1 PUSH1 0x20 ADD KECCAK256 DUP4 ADDRESS PUSH1 0x40 MLOAD PUSH1 0x20 ADD PUSH3 0xDB SWAP6 SWAP5 SWAP4 SWAP3 SWAP2 SWAP1 PUSH3 0x172 JUMP JUMPDEST PUSH1 0x40 MLOAD PUSH1 0x20 DUP2 DUP4 SUB SUB DUP2 MSTORE SWAP1 PUSH1 0x40 MSTORE DUP1 MLOAD SWAP1 PUSH1 0x20 ADD KECCAK256 PUSH1 0x3 DUP2 SWAP1 SSTORE POP POP CALLER PUSH1 0x25 PUSH1 0x0 PUSH2 0x100 EXP DUP2 SLOAD DUP2 PUSH20 0xFFFFFFFFFFFFFFFFFFFFFFFFFFFFFFFFFFFFFFFF MUL NOT AND SWAP1 DUP4 PUSH20 0xFFFFFFFFFFFFFFFFFFFFFFFFFFFFFFFFFFFFFFFF AND MUL OR SWAP1 SSTORE POP PUSH3 0x217 JUMP JUMPDEST PUSH3 0x14A DUP2 PUSH3 0x1CF JUMP JUMPDEST DUP3 MSTORE POP POP JUMP JUMPDEST PUSH3 0x15B DUP2 PUSH3 0x1E3 JUMP JUMPDEST DUP3 MSTORE POP POP JUMP JUMPDEST PUSH3 0x16C DUP2 PUSH3 0x20D JUMP JUMPDEST DUP3 MSTORE POP POP JUMP JUMPDEST PUSH1 0x0 PUSH1 0xA0 DUP3 ADD SWAP1 POP PUSH3 0x189 PUSH1 0x0 DUP4 ADD DUP9 PUSH3 0x150 JUMP JUMPDEST PUSH3 0x198 PUSH1 0x20 DUP4 ADD DUP8 PUSH3 0x150 JUMP JUMPDEST PUSH3 0x1A7 PUSH1 0x40 DUP4 ADD DUP7 PUSH3 0x150 JUMP JUMPDEST PUSH3 0x1B6 PUSH1 0x60 DUP4 ADD DUP6 PUSH3 0x161 JUMP JUMPDEST PUSH3 0x1C5 PUSH1 0x80 DUP4 ADD DUP5 PUSH3 0x13F JUMP JUMPDEST SWAP7 SWAP6 POP POP POP POP POP POP JUMP JUMPDEST PUSH1 0x0 PUSH3 0x1DC DUP3 PUSH3 0x1ED JUMP JUMPDEST SWAP1 POP SWAP2 SWAP1 POP JUMP JUMPDEST PUSH1 0x0 DUP2 SWAP1 POP SWAP2 SWAP1 POP JUMP JUMPDEST PUSH1 0x0 PUSH20 0xFFFFFFFFFFFFFFFFFFFFFFFFFFFFFFFFFFFFFFFF DUP3 AND SWAP1 POP SWAP2 SWAP1 POP JUMP JUMPDEST PUSH1 0x0 DUP2 SWAP1 POP SWAP2 SWAP1 POP JUMP JUMPDEST PUSH2 0x7176 DUP1 PUSH3 0x227 PUSH1 0x0 CODECOPY PUSH1 0x0 RETURN INVALID PUSH1 0x80 PUSH1 0x40 MSTORE CALLVALUE DUP1 ISZERO PUSH2 0x10 JUMPI PUSH1 0x0 DUP1 REVERT JUMPDEST POP PUSH1 0x4 CALLDATASIZE LT PUSH2 0x427 JUMPI PUSH1 0x0 CALLDATALOAD PUSH1 0xE0 SHR DUP1 PUSH4 0x7E11939A GT PUSH2 0x22B JUMPI DUP1 PUSH4 0xBC25CF77 GT PUSH2 0x130 JUMPI DUP1 PUSH4 0xDDCA3F43 GT PUSH2 0xB8 JUMPI DUP1 PUSH4 0xF70F4394 GT PUSH2 0x87 JUMPI DUP1 PUSH4 0xF70F4394 EQ PUSH2 0xCB8 JUMPI DUP1 PUSH4 0xF738C74E EQ PUSH2 0xCD6 JUMPI DUP1 PUSH4 0xFC69B80F EQ PUSH2 0xCF4 JUMPI DUP1 PUSH4 0xFE18F261 EQ PUSH2 0xD24 JUMPI DUP1 PUSH4 0xFF2F169E EQ PUSH2 0xD42 JUMPI PUSH2 0x427 JUMP JUMPDEST DUP1 PUSH4 0xDDCA3F43 EQ PUSH2 0xC40 JUMPI DUP1 PUSH4 0xDF0AB2C2 EQ PUSH2 0xC5E JUMPI DUP1 PUSH4 0xE19A1474 EQ PUSH2 0xC7C JUMPI DUP1 PUSH4 0xEA1797B0 EQ PUSH2 0xC9A JUMPI PUSH2 0x427 JUMP JUMPDEST DUP1 PUSH4 0xC9E525DF GT PUSH2 0xFF JUMPI DUP1 PUSH4 0xC9E525DF EQ PUSH2 0xB9C JUMPI DUP1 PUSH4 0xCFE38A5E EQ PUSH2 0xBBA JUMPI DUP1 PUSH4 0xD44022DB EQ PUSH2 0xBD6 JUMPI DUP1 PUSH4 0xD505ACCF EQ PUSH2 0xBF4 JUMPI DUP1 PUSH4 0xDD62ED3E EQ PUSH2 0xC10 JUMPI PUSH2 0x427 JUMP JUMPDEST DUP1 PUSH4 0xBC25CF77 EQ PUSH2 0xB28 JUMPI DUP1 PUSH4 0xC3D81B21 EQ PUSH2 0xB44 JUMPI DUP1 PUSH4 0xC45A0155 EQ PUSH2 0xB60 JUMPI DUP1 PUSH4 0xC7D44932 EQ PUSH2 0xB7E JUMPI PUSH2 0x427 JUMP JUMPDEST DUP1 PUSH4 0x8E361389 GT PUSH2 0x1B3 JUMPI DUP1 PUSH4 0x9F1D0F59 GT PUSH2 0x182 JUMPI DUP1 PUSH4 0x9F1D0F59 EQ PUSH2 0xA82 JUMPI DUP1 PUSH4 0xA5AA65B9 EQ PUSH2 0xA9E JUMPI DUP1 PUSH4 0xA9059CBB EQ PUSH2 0xABC JUMPI DUP1 PUSH4 0xACD4A7C2 EQ PUSH2 0xAEC JUMPI DUP1 PUSH4 0xB7D19FC4 EQ PUSH2 0xB0A JUMPI PUSH2 0x427 JUMP JUMPDEST DUP1 PUSH4 0x8E361389 EQ PUSH2 0xA0C JUMPI DUP1 PUSH4 0x9076AE86 EQ PUSH2 0xA2A JUMPI DUP1 PUSH4 0x95D89B41 EQ PUSH2 0xA46 JUMPI DUP1 PUSH4 0x9A36E122 EQ PUSH2 0xA64 JUMPI PUSH2 0x427 JUMP JUMPDEST DUP1 PUSH4 0x80416C02 GT PUSH2 0x1FA JUMPI DUP1 PUSH4 0x80416C02 EQ PUSH2 0x978 JUMPI DUP1 PUSH4 0x83DFE5FD EQ PUSH2 0x996 JUMPI DUP1 PUSH4 0x84009686 EQ PUSH2 0x9B4 JUMPI DUP1 PUSH4 0x8BC1A32F EQ PUSH2 0x9D2 JUMPI DUP1 PUSH4 0x8CF825E7 EQ PUSH2 0x9F0 JUMPI PUSH2 0x427 JUMP JUMPDEST DUP1 PUSH4 0x7E11939A EQ PUSH2 0x8D9 JUMPI DUP1 PUSH4 0x7E1431BE EQ PUSH2 0x8F7 JUMPI DUP1 PUSH4 0x7ECEBE00 EQ PUSH2 0x92A JUMPI DUP1 PUSH4 0x7ED6281B EQ PUSH2 0x95A JUMPI PUSH2 0x427 JUMP JUMPDEST DUP1 PUSH4 0x313CE567 GT PUSH2 0x331 JUMPI DUP1 PUSH4 0x5595D459 GT PUSH2 0x2B9 JUMPI DUP1 PUSH4 0x6665FF11 GT PUSH2 0x288 JUMPI DUP1 PUSH4 0x6665FF11 EQ PUSH2 0x80C JUMPI DUP1 PUSH4 0x699553AA EQ PUSH2 0x83D JUMPI DUP1 PUSH4 0x6B3545AA EQ PUSH2 0x86D JUMPI DUP1 PUSH4 0x70A08231 EQ PUSH2 0x88B JUMPI DUP1 PUSH4 0x79DBF8EA EQ PUSH2 0x8BB JUMPI PUSH2 0x427 JUMP JUMPDEST DUP1 PUSH4 0x5595D459 EQ PUSH2 0x782 JUMPI DUP1 PUSH4 0x5E287D86 EQ PUSH2 0x7A0 JUMPI DUP1 PUSH4 0x6126DEEF EQ PUSH2 0x7BE JUMPI DUP1 PUSH4 0x6607E7E8 EQ PUSH2 0x7EE JUMPI PUSH2 0x427 JUMP JUMPDEST DUP1 PUSH4 0x36AF2F9B GT PUSH2 0x300 JUMPI DUP1 PUSH4 0x36AF2F9B EQ PUSH2 0x6F0 JUMPI DUP1 PUSH4 0x3C6FE2F4 EQ PUSH2 0x70E JUMPI DUP1 PUSH4 0x480C4F7E EQ PUSH2 0x72C JUMPI DUP1 PUSH4 0x485CC955 EQ PUSH2 0x74A JUMPI DUP1 PUSH4 0x4C324E6A EQ PUSH2 0x766 JUMPI PUSH2 0x427 JUMP JUMPDEST DUP1 PUSH4 0x313CE567 EQ PUSH2 0x67A JUMPI DUP1 PUSH4 0x32E7C5BF EQ PUSH2 0x698 JUMPI DUP1 PUSH4 0x35714521 EQ PUSH2 0x6B6 JUMPI DUP1 PUSH4 0x3644E515 EQ PUSH2 0x6D2 JUMPI PUSH2 0x427 JUMP JUMPDEST DUP1 PUSH4 0x18160DDD GT PUSH2 0x3B4 JUMPI DUP1 PUSH4 0x225C2C50 GT PUSH2 0x383 JUMPI DUP1 PUSH4 0x225C2C50 EQ PUSH2 0x5D2 JUMPI DUP1 PUSH4 0x23B872DD EQ PUSH2 0x5F0 JUMPI DUP1 PUSH4 0x23ED16B6 EQ PUSH2 0x620 JUMPI DUP1 PUSH4 0x2DD6C254 EQ PUSH2 0x63E JUMPI DUP1 PUSH4 0x30ADF81F EQ PUSH2 0x65C JUMPI PUSH2 0x427 JUMP JUMPDEST DUP1 PUSH4 0x18160DDD EQ PUSH2 0x548 JUMPI DUP1 PUSH4 0x18DB9681 EQ PUSH2 0x566 JUMPI DUP1 PUSH4 0x1CBDFFD1 EQ PUSH2 0x584 JUMPI DUP1 PUSH4 0x2190219E EQ PUSH2 0x5B4 JUMPI PUSH2 0x427 JUMP JUMPDEST DUP1 PUSH4 0xB197615 GT PUSH2 0x3FB JUMPI DUP1 PUSH4 0xB197615 EQ PUSH2 0x4B4 JUMPI DUP1 PUSH4 0xBFA68D8 EQ PUSH2 0x4D2 JUMPI DUP1 PUSH4 0xF529BA2 EQ PUSH2 0x4EE JUMPI DUP1 PUSH4 0x139860EE EQ PUSH2 0x50C JUMPI DUP1 PUSH4 0x16DC165B EQ PUSH2 0x52A JUMPI PUSH2 0x427 JUMP JUMPDEST DUP1 PUSH3 0xB52645 EQ PUSH2 0x42C JUMPI DUP1 PUSH4 0x6FDDE03 EQ PUSH2 0x44A JUMPI DUP1 PUSH4 0x95EA7B3 EQ PUSH2 0x468 JUMPI DUP1 PUSH4 0x9E95861 EQ PUSH2 0x498 JUMPI JUMPDEST PUSH1 0x0 DUP1 REVERT JUMPDEST PUSH2 0x434 PUSH2 0xD5E JUMP JUMPDEST PUSH1 0x40 MLOAD PUSH2 0x441 SWAP2 SWAP1 PUSH2 0x6A2A JUMP JUMPDEST PUSH1 0x40 MLOAD DUP1 SWAP2 SUB SWAP1 RETURN JUMPDEST PUSH2 0x452 PUSH2 0xD64 JUMP JUMPDEST PUSH1 0x40 MLOAD PUSH2 0x45F SWAP2 SWAP1 PUSH2 0x68A8 JUMP JUMPDEST PUSH1 0x40 MLOAD DUP1 SWAP2 SUB SWAP1 RETURN JUMPDEST PUSH2 0x482 PUSH1 0x4 DUP1 CALLDATASIZE SUB DUP2 ADD SWAP1 PUSH2 0x47D SWAP2 SWAP1 PUSH2 0x6271 JUMP JUMPDEST PUSH2 0xD9D JUMP JUMPDEST PUSH1 0x40 MLOAD PUSH2 0x48F SWAP2 SWAP1 PUSH2 0x67CC JUMP JUMPDEST PUSH1 0x40 MLOAD DUP1 SWAP2 SUB SWAP1 RETURN JUMPDEST PUSH2 0x4B2 PUSH1 0x4 DUP1 CALLDATASIZE SUB DUP2 ADD SWAP1 PUSH2 0x4AD SWAP2 SWAP1 PUSH2 0x63CB JUMP JUMPDEST PUSH2 0xDB4 JUMP JUMPDEST STOP JUMPDEST PUSH2 0x4BC PUSH2 0xE83 JUMP JUMPDEST PUSH1 0x40 MLOAD PUSH2 0x4C9 SWAP2 SWAP1 PUSH2 0x6A2A JUMP JUMPDEST PUSH1 0x40 MLOAD DUP1 SWAP2 SUB SWAP1 RETURN JUMPDEST PUSH2 0x4EC PUSH1 0x4 DUP1 CALLDATASIZE SUB DUP2 ADD SWAP1 PUSH2 0x4E7 SWAP2 SWAP1 PUSH2 0x6331 JUMP JUMPDEST PUSH2 0xE89 JUMP JUMPDEST STOP JUMPDEST PUSH2 0x4F6 PUSH2 0xF23 JUMP JUMPDEST PUSH1 0x40 MLOAD PUSH2 0x503 SWAP2 SWAP1 PUSH2 0x6A2A JUMP JUMPDEST PUSH1 0x40 MLOAD DUP1 SWAP2 SUB SWAP1 RETURN JUMPDEST PUSH2 0x514 PUSH2 0xF29 JUMP JUMPDEST PUSH1 0x40 MLOAD PUSH2 0x521 SWAP2 SWAP1 PUSH2 0x6A2A JUMP JUMPDEST PUSH1 0x40 MLOAD DUP1 SWAP2 SUB SWAP1 RETURN JUMPDEST PUSH2 0x532 PUSH2 0xF2F JUMP JUMPDEST PUSH1 0x40 MLOAD PUSH2 0x53F SWAP2 SWAP1 PUSH2 0x6743 JUMP JUMPDEST PUSH1 0x40 MLOAD DUP1 SWAP2 SUB SWAP1 RETURN JUMPDEST PUSH2 0x550 PUSH2 0xF55 JUMP JUMPDEST PUSH1 0x40 MLOAD PUSH2 0x55D SWAP2 SWAP1 PUSH2 0x6A2A JUMP JUMPDEST PUSH1 0x40 MLOAD DUP1 SWAP2 SUB SWAP1 RETURN JUMPDEST PUSH2 0x56E PUSH2 0xF5B JUMP JUMPDEST PUSH1 0x40 MLOAD PUSH2 0x57B SWAP2 SWAP1 PUSH2 0x6A2A JUMP JUMPDEST PUSH1 0x40 MLOAD DUP1 SWAP2 SUB SWAP1 RETURN JUMPDEST PUSH2 0x59E PUSH1 0x4 DUP1 CALLDATASIZE SUB DUP2 ADD SWAP1 PUSH2 0x599 SWAP2 SWAP1 PUSH2 0x6331 JUMP JUMPDEST PUSH2 0xF61 JUMP JUMPDEST PUSH1 0x40 MLOAD PUSH2 0x5AB SWAP2 SWAP1 PUSH2 0x6A2A JUMP JUMPDEST PUSH1 0x40 MLOAD DUP1 SWAP2 SUB SWAP1 RETURN JUMPDEST PUSH2 0x5BC PUSH2 0xF7C JUMP JUMPDEST PUSH1 0x40 MLOAD PUSH2 0x5C9 SWAP2 SWAP1 PUSH2 0x6A2A JUMP JUMPDEST PUSH1 0x40 MLOAD DUP1 SWAP2 SUB SWAP1 RETURN JUMPDEST PUSH2 0x5DA PUSH2 0xF82 JUMP JUMPDEST PUSH1 0x40 MLOAD PUSH2 0x5E7 SWAP2 SWAP1 PUSH2 0x6A2A JUMP JUMPDEST PUSH1 0x40 MLOAD DUP1 SWAP2 SUB SWAP1 RETURN JUMPDEST PUSH2 0x60A PUSH1 0x4 DUP1 CALLDATASIZE SUB DUP2 ADD SWAP1 PUSH2 0x605 SWAP2 SWAP1 PUSH2 0x613C JUMP JUMPDEST PUSH2 0xF88 JUMP JUMPDEST PUSH1 0x40 MLOAD PUSH2 0x617 SWAP2 SWAP1 PUSH2 0x67CC JUMP JUMPDEST PUSH1 0x40 MLOAD DUP1 SWAP2 SUB SWAP1 RETURN JUMPDEST PUSH2 0x628 PUSH2 0x1135 JUMP JUMPDEST PUSH1 0x40 MLOAD PUSH2 0x635 SWAP2 SWAP1 PUSH2 0x6A2A JUMP JUMPDEST PUSH1 0x40 MLOAD DUP1 SWAP2 SUB SWAP1 RETURN JUMPDEST PUSH2 0x646 PUSH2 0x113B JUMP JUMPDEST PUSH1 0x40 MLOAD PUSH2 0x653 SWAP2 SWAP1 PUSH2 0x6A2A JUMP JUMPDEST PUSH1 0x40 MLOAD DUP1 SWAP2 SUB SWAP1 RETURN JUMPDEST PUSH2 0x664 PUSH2 0x1141 JUMP JUMPDEST PUSH1 0x40 MLOAD PUSH2 0x671 SWAP2 SWAP1 PUSH2 0x67E7 JUMP JUMPDEST PUSH1 0x40 MLOAD DUP1 SWAP2 SUB SWAP1 RETURN JUMPDEST PUSH2 0x682 PUSH2 0x1168 JUMP JUMPDEST PUSH1 0x40 MLOAD PUSH2 0x68F SWAP2 SWAP1 PUSH2 0x6A6E JUMP JUMPDEST PUSH1 0x40 MLOAD DUP1 SWAP2 SUB SWAP1 RETURN JUMPDEST PUSH2 0x6A0 PUSH2 0x116D JUMP JUMPDEST PUSH1 0x40 MLOAD PUSH2 0x6AD SWAP2 SWAP1 PUSH2 0x6A2A JUMP JUMPDEST PUSH1 0x40 MLOAD DUP1 SWAP2 SUB SWAP1 RETURN JUMPDEST PUSH2 0x6D0 PUSH1 0x4 DUP1 CALLDATASIZE SUB DUP2 ADD SWAP1 PUSH2 0x6CB SWAP2 SWAP1 PUSH2 0x6331 JUMP JUMPDEST PUSH2 0x1173 JUMP JUMPDEST STOP JUMPDEST PUSH2 0x6DA PUSH2 0x120D JUMP JUMPDEST PUSH1 0x40 MLOAD PUSH2 0x6E7 SWAP2 SWAP1 PUSH2 0x67E7 JUMP JUMPDEST PUSH1 0x40 MLOAD DUP1 SWAP2 SUB SWAP1 RETURN JUMPDEST PUSH2 0x6F8 PUSH2 0x1213 JUMP JUMPDEST PUSH1 0x40 MLOAD PUSH2 0x705 SWAP2 SWAP1 PUSH2 0x6A2A JUMP JUMPDEST PUSH1 0x40 MLOAD DUP1 SWAP2 SUB SWAP1 RETURN JUMPDEST PUSH2 0x716 PUSH2 0x1219 JUMP JUMPDEST PUSH1 0x40 MLOAD PUSH2 0x723 SWAP2 SWAP1 PUSH2 0x6A2A JUMP JUMPDEST PUSH1 0x40 MLOAD DUP1 SWAP2 SUB SWAP1 RETURN JUMPDEST PUSH2 0x734 PUSH2 0x121F JUMP JUMPDEST PUSH1 0x40 MLOAD PUSH2 0x741 SWAP2 SWAP1 PUSH2 0x6A2A JUMP JUMPDEST PUSH1 0x40 MLOAD DUP1 SWAP2 SUB SWAP1 RETURN JUMPDEST PUSH2 0x764 PUSH1 0x4 DUP1 CALLDATASIZE SUB DUP2 ADD SWAP1 PUSH2 0x75F SWAP2 SWAP1 PUSH2 0x60FC JUMP JUMPDEST PUSH2 0x1225 JUMP JUMPDEST STOP JUMPDEST PUSH2 0x780 PUSH1 0x4 DUP1 CALLDATASIZE SUB DUP2 ADD SWAP1 PUSH2 0x77B SWAP2 SWAP1 PUSH2 0x63CB JUMP JUMPDEST PUSH2 0x133B JUMP JUMPDEST STOP JUMPDEST PUSH2 0x78A PUSH2 0x22BD JUMP JUMPDEST PUSH1 0x40 MLOAD PUSH2 0x797 SWAP2 SWAP1 PUSH2 0x6A2A JUMP JUMPDEST PUSH1 0x40 MLOAD DUP1 SWAP2 SUB SWAP1 RETURN JUMPDEST PUSH2 0x7A8 PUSH2 0x22C3 JUMP JUMPDEST PUSH1 0x40 MLOAD PUSH2 0x7B5 SWAP2 SWAP1 PUSH2 0x6A2A JUMP JUMPDEST PUSH1 0x40 MLOAD DUP1 SWAP2 SUB SWAP1 RETURN JUMPDEST PUSH2 0x7D8 PUSH1 0x4 DUP1 CALLDATASIZE SUB DUP2 ADD SWAP1 PUSH2 0x7D3 SWAP2 SWAP1 PUSH2 0x63CB JUMP JUMPDEST PUSH2 0x22C9 JUMP JUMPDEST PUSH1 0x40 MLOAD PUSH2 0x7E5 SWAP2 SWAP1 PUSH2 0x6A2A JUMP JUMPDEST PUSH1 0x40 MLOAD DUP1 SWAP2 SUB SWAP1 RETURN JUMPDEST PUSH2 0x7F6 PUSH2 0x23EE JUMP JUMPDEST PUSH1 0x40 MLOAD PUSH2 0x803 SWAP2 SWAP1 PUSH2 0x6A2A JUMP JUMPDEST PUSH1 0x40 MLOAD DUP1 SWAP2 SUB SWAP1 RETURN JUMPDEST PUSH2 0x826 PUSH1 0x4 DUP1 CALLDATASIZE SUB DUP2 ADD SWAP1 PUSH2 0x821 SWAP2 SWAP1 PUSH2 0x638B JUMP JUMPDEST PUSH2 0x23F4 JUMP JUMPDEST PUSH1 0x40 MLOAD PUSH2 0x834 SWAP3 SWAP2 SWAP1 PUSH2 0x6A45 JUMP JUMPDEST PUSH1 0x40 MLOAD DUP1 SWAP2 SUB SWAP1 RETURN JUMPDEST PUSH2 0x857 PUSH1 0x4 DUP1 CALLDATASIZE SUB DUP2 ADD SWAP1 PUSH2 0x852 SWAP2 SWAP1 PUSH2 0x60CF JUMP JUMPDEST PUSH2 0x2591 JUMP JUMPDEST PUSH1 0x40 MLOAD PUSH2 0x864 SWAP2 SWAP1 PUSH2 0x6A2A JUMP JUMPDEST PUSH1 0x40 MLOAD DUP1 SWAP2 SUB SWAP1 RETURN JUMPDEST PUSH2 0x875 PUSH2 0x25A9 JUMP JUMPDEST PUSH1 0x40 MLOAD PUSH2 0x882 SWAP2 SWAP1 PUSH2 0x6A2A JUMP JUMPDEST PUSH1 0x40 MLOAD DUP1 SWAP2 SUB SWAP1 RETURN JUMPDEST PUSH2 0x8A5 PUSH1 0x4 DUP1 CALLDATASIZE SUB DUP2 ADD SWAP1 PUSH2 0x8A0 SWAP2 SWAP1 PUSH2 0x60CF JUMP JUMPDEST PUSH2 0x25AF JUMP JUMPDEST PUSH1 0x40 MLOAD PUSH2 0x8B2 SWAP2 SWAP1 PUSH2 0x6A2A JUMP JUMPDEST PUSH1 0x40 MLOAD DUP1 SWAP2 SUB SWAP1 RETURN JUMPDEST PUSH2 0x8C3 PUSH2 0x25C7 JUMP JUMPDEST PUSH1 0x40 MLOAD PUSH2 0x8D0 SWAP2 SWAP1 PUSH2 0x6A2A JUMP JUMPDEST PUSH1 0x40 MLOAD DUP1 SWAP2 SUB SWAP1 RETURN JUMPDEST PUSH2 0x8E1 PUSH2 0x25CD JUMP JUMPDEST PUSH1 0x40 MLOAD PUSH2 0x8EE SWAP2 SWAP1 PUSH2 0x6A2A JUMP JUMPDEST PUSH1 0x40 MLOAD DUP1 SWAP2 SUB SWAP1 RETURN JUMPDEST PUSH2 0x911 PUSH1 0x4 DUP1 CALLDATASIZE SUB DUP2 ADD SWAP1 PUSH2 0x90C SWAP2 SWAP1 PUSH2 0x6231 JUMP JUMPDEST PUSH2 0x25D3 JUMP JUMPDEST PUSH1 0x40 MLOAD PUSH2 0x921 SWAP5 SWAP4 SWAP3 SWAP2 SWAP1 PUSH2 0x675E JUMP JUMPDEST PUSH1 0x40 MLOAD DUP1 SWAP2 SUB SWAP1 RETURN JUMPDEST PUSH2 0x944 PUSH1 0x4 DUP1 CALLDATASIZE SUB DUP2 ADD SWAP1 PUSH2 0x93F SWAP2 SWAP1 PUSH2 0x60CF JUMP JUMPDEST PUSH2 0x263D JUMP JUMPDEST PUSH1 0x40 MLOAD PUSH2 0x951 SWAP2 SWAP1 PUSH2 0x6A2A JUMP JUMPDEST PUSH1 0x40 MLOAD DUP1 SWAP2 SUB SWAP1 RETURN JUMPDEST PUSH2 0x962 PUSH2 0x2655 JUMP JUMPDEST PUSH1 0x40 MLOAD PUSH2 0x96F SWAP2 SWAP1 PUSH2 0x6A2A JUMP JUMPDEST PUSH1 0x40 MLOAD DUP1 SWAP2 SUB SWAP1 RETURN JUMPDEST PUSH2 0x980 PUSH2 0x265B JUMP JUMPDEST PUSH1 0x40 MLOAD PUSH2 0x98D SWAP2 SWAP1 PUSH2 0x6A2A JUMP JUMPDEST PUSH1 0x40 MLOAD DUP1 SWAP2 SUB SWAP1 RETURN JUMPDEST PUSH2 0x99E PUSH2 0x2661 JUMP JUMPDEST PUSH1 0x40 MLOAD PUSH2 0x9AB SWAP2 SWAP1 PUSH2 0x6A2A JUMP JUMPDEST PUSH1 0x40 MLOAD DUP1 SWAP2 SUB SWAP1 RETURN JUMPDEST PUSH2 0x9BC PUSH2 0x2667 JUMP JUMPDEST PUSH1 0x40 MLOAD PUSH2 0x9C9 SWAP2 SWAP1 PUSH2 0x6A2A JUMP JUMPDEST PUSH1 0x40 MLOAD DUP1 SWAP2 SUB SWAP1 RETURN JUMPDEST PUSH2 0x9DA PUSH2 0x266D JUMP JUMPDEST PUSH1 0x40 MLOAD PUSH2 0x9E7 SWAP2 SWAP1 PUSH2 0x6A2A JUMP JUMPDEST PUSH1 0x40 MLOAD DUP1 SWAP2 SUB SWAP1 RETURN JUMPDEST PUSH2 0xA0A PUSH1 0x4 DUP1 CALLDATASIZE SUB DUP2 ADD SWAP1 PUSH2 0xA05 SWAP2 SWAP1 PUSH2 0x60FC JUMP JUMPDEST PUSH2 0x2673 JUMP JUMPDEST STOP JUMPDEST PUSH2 0xA14 PUSH2 0x29CD JUMP JUMPDEST PUSH1 0x40 MLOAD PUSH2 0xA21 SWAP2 SWAP1 PUSH2 0x6A2A JUMP JUMPDEST PUSH1 0x40 MLOAD DUP1 SWAP2 SUB SWAP1 RETURN JUMPDEST PUSH2 0xA44 PUSH1 0x4 DUP1 CALLDATASIZE SUB DUP2 ADD SWAP1 PUSH2 0xA3F SWAP2 SWAP1 PUSH2 0x641E JUMP JUMPDEST PUSH2 0x29D3 JUMP JUMPDEST STOP JUMPDEST PUSH2 0xA4E PUSH2 0x2E3B JUMP JUMPDEST PUSH1 0x40 MLOAD PUSH2 0xA5B SWAP2 SWAP1 PUSH2 0x68A8 JUMP JUMPDEST PUSH1 0x40 MLOAD DUP1 SWAP2 SUB SWAP1 RETURN JUMPDEST PUSH2 0xA6C PUSH2 0x2E74 JUMP JUMPDEST PUSH1 0x40 MLOAD PUSH2 0xA79 SWAP2 SWAP1 PUSH2 0x6A2A JUMP JUMPDEST PUSH1 0x40 MLOAD DUP1 SWAP2 SUB SWAP1 RETURN JUMPDEST PUSH2 0xA9C PUSH1 0x4 DUP1 CALLDATASIZE SUB DUP2 ADD SWAP1 PUSH2 0xA97 SWAP2 SWAP1 PUSH2 0x62B1 JUMP JUMPDEST PUSH2 0x2E7A JUMP JUMPDEST STOP JUMPDEST PUSH2 0xAA6 PUSH2 0x3276 JUMP JUMPDEST PUSH1 0x40 MLOAD PUSH2 0xAB3 SWAP2 SWAP1 PUSH2 0x6A2A JUMP JUMPDEST PUSH1 0x40 MLOAD DUP1 SWAP2 SUB SWAP1 RETURN JUMPDEST PUSH2 0xAD6 PUSH1 0x4 DUP1 CALLDATASIZE SUB DUP2 ADD SWAP1 PUSH2 0xAD1 SWAP2 SWAP1 PUSH2 0x6271 JUMP JUMPDEST PUSH2 0x327C JUMP JUMPDEST PUSH1 0x40 MLOAD PUSH2 0xAE3 SWAP2 SWAP1 PUSH2 0x67CC JUMP JUMPDEST PUSH1 0x40 MLOAD DUP1 SWAP2 SUB SWAP1 RETURN JUMPDEST PUSH2 0xAF4 PUSH2 0x3293 JUMP JUMPDEST PUSH1 0x40 MLOAD PUSH2 0xB01 SWAP2 SWAP1 PUSH2 0x6A2A JUMP JUMPDEST PUSH1 0x40 MLOAD DUP1 SWAP2 SUB SWAP1 RETURN JUMPDEST PUSH2 0xB12 PUSH2 0x3299 JUMP JUMPDEST PUSH1 0x40 MLOAD PUSH2 0xB1F SWAP2 SWAP1 PUSH2 0x6743 JUMP JUMPDEST PUSH1 0x40 MLOAD DUP1 SWAP2 SUB SWAP1 RETURN JUMPDEST PUSH2 0xB42 PUSH1 0x4 DUP1 CALLDATASIZE SUB DUP2 ADD SWAP1 PUSH2 0xB3D SWAP2 SWAP1 PUSH2 0x60CF JUMP JUMPDEST PUSH2 0x32BF JUMP JUMPDEST STOP JUMPDEST PUSH2 0xB5E PUSH1 0x4 DUP1 CALLDATASIZE SUB DUP2 ADD SWAP1 PUSH2 0xB59 SWAP2 SWAP1 PUSH2 0x60FC JUMP JUMPDEST PUSH2 0x34ED JUMP JUMPDEST STOP JUMPDEST PUSH2 0xB68 PUSH2 0x38D4 JUMP JUMPDEST PUSH1 0x40 MLOAD PUSH2 0xB75 SWAP2 SWAP1 PUSH2 0x6743 JUMP JUMPDEST PUSH1 0x40 MLOAD DUP1 SWAP2 SUB SWAP1 RETURN JUMPDEST PUSH2 0xB86 PUSH2 0x38FA JUMP JUMPDEST PUSH1 0x40 MLOAD PUSH2 0xB93 SWAP2 SWAP1 PUSH2 0x67CC JUMP JUMPDEST PUSH1 0x40 MLOAD DUP1 SWAP2 SUB SWAP1 RETURN JUMPDEST PUSH2 0xBA4 PUSH2 0x390D JUMP JUMPDEST PUSH1 0x40 MLOAD PUSH2 0xBB1 SWAP2 SWAP1 PUSH2 0x6A2A JUMP JUMPDEST PUSH1 0x40 MLOAD DUP1 SWAP2 SUB SWAP1 RETURN JUMPDEST PUSH2 0xBD4 PUSH1 0x4 DUP1 CALLDATASIZE SUB DUP2 ADD SWAP1 PUSH2 0xBCF SWAP2 SWAP1 PUSH2 0x6331 JUMP JUMPDEST PUSH2 0x3913 JUMP JUMPDEST STOP JUMPDEST PUSH2 0xBDE PUSH2 0x39AD JUMP JUMPDEST PUSH1 0x40 MLOAD PUSH2 0xBEB SWAP2 SWAP1 PUSH2 0x6A2A JUMP JUMPDEST PUSH1 0x40 MLOAD DUP1 SWAP2 SUB SWAP1 RETURN JUMPDEST PUSH2 0xC0E PUSH1 0x4 DUP1 CALLDATASIZE SUB DUP2 ADD SWAP1 PUSH2 0xC09 SWAP2 SWAP1 PUSH2 0x618F JUMP JUMPDEST PUSH2 0x39B3 JUMP JUMPDEST STOP JUMPDEST PUSH2 0xC2A PUSH1 0x4 DUP1 CALLDATASIZE SUB DUP2 ADD SWAP1 PUSH2 0xC25 SWAP2 SWAP1 PUSH2 0x60FC JUMP JUMPDEST PUSH2 0x3BDB JUMP JUMPDEST PUSH1 0x40 MLOAD PUSH2 0xC37 SWAP2 SWAP1 PUSH2 0x6A2A JUMP JUMPDEST PUSH1 0x40 MLOAD DUP1 SWAP2 SUB SWAP1 RETURN JUMPDEST PUSH2 0xC48 PUSH2 0x3C00 JUMP JUMPDEST PUSH1 0x40 MLOAD PUSH2 0xC55 SWAP2 SWAP1 PUSH2 0x6A2A JUMP JUMPDEST PUSH1 0x40 MLOAD DUP1 SWAP2 SUB SWAP1 RETURN JUMPDEST PUSH2 0xC66 PUSH2 0x3C06 JUMP JUMPDEST PUSH1 0x40 MLOAD PUSH2 0xC73 SWAP2 SWAP1 PUSH2 0x6A2A JUMP JUMPDEST PUSH1 0x40 MLOAD DUP1 SWAP2 SUB SWAP1 RETURN JUMPDEST PUSH2 0xC84 PUSH2 0x3C0C JUMP JUMPDEST PUSH1 0x40 MLOAD PUSH2 0xC91 SWAP2 SWAP1 PUSH2 0x6A2A JUMP JUMPDEST PUSH1 0x40 MLOAD DUP1 SWAP2 SUB SWAP1 RETURN JUMPDEST PUSH2 0xCA2 PUSH2 0x3C12 JUMP JUMPDEST PUSH1 0x40 MLOAD PUSH2 0xCAF SWAP2 SWAP1 PUSH2 0x6A2A JUMP JUMPDEST PUSH1 0x40 MLOAD DUP1 SWAP2 SUB SWAP1 RETURN JUMPDEST PUSH2 0xCC0 PUSH2 0x3C18 JUMP JUMPDEST PUSH1 0x40 MLOAD PUSH2 0xCCD SWAP2 SWAP1 PUSH2 0x6A2A JUMP JUMPDEST PUSH1 0x40 MLOAD DUP1 SWAP2 SUB SWAP1 RETURN JUMPDEST PUSH2 0xCDE PUSH2 0x3C1E JUMP JUMPDEST PUSH1 0x40 MLOAD PUSH2 0xCEB SWAP2 SWAP1 PUSH2 0x6A2A JUMP JUMPDEST PUSH1 0x40 MLOAD DUP1 SWAP2 SUB SWAP1 RETURN JUMPDEST PUSH2 0xD0E PUSH1 0x4 DUP1 CALLDATASIZE SUB DUP2 ADD SWAP1 PUSH2 0xD09 SWAP2 SWAP1 PUSH2 0x6271 JUMP JUMPDEST PUSH2 0x3C24 JUMP JUMPDEST PUSH1 0x40 MLOAD PUSH2 0xD1B SWAP2 SWAP1 PUSH2 0x6A2A JUMP JUMPDEST PUSH1 0x40 MLOAD DUP1 SWAP2 SUB SWAP1 RETURN JUMPDEST PUSH2 0xD2C PUSH2 0x3C4C JUMP JUMPDEST PUSH1 0x40 MLOAD PUSH2 0xD39 SWAP2 SWAP1 PUSH2 0x6A2A JUMP JUMPDEST PUSH1 0x40 MLOAD DUP1 SWAP2 SUB SWAP1 RETURN JUMPDEST PUSH2 0xD5C PUSH1 0x4 DUP1 CALLDATASIZE SUB DUP2 ADD SWAP1 PUSH2 0xD57 SWAP2 SWAP1 PUSH2 0x6331 JUMP JUMPDEST PUSH2 0x3C52 JUMP JUMPDEST STOP JUMPDEST PUSH1 0xE SLOAD DUP2 JUMP JUMPDEST PUSH1 0x40 MLOAD DUP1 PUSH1 0x40 ADD PUSH1 0x40 MSTORE DUP1 PUSH1 0xA DUP2 MSTORE PUSH1 0x20 ADD PUSH32 0x556E697377617020563200000000000000000000000000000000000000000000 DUP2 MSTORE POP DUP2 JUMP JUMPDEST PUSH1 0x0 PUSH2 0xDAA CALLER DUP5 DUP5 PUSH2 0x3CEC JUMP JUMPDEST PUSH1 0x1 SWAP1 POP SWAP3 SWAP2 POP POP JUMP JUMPDEST PUSH1 0x1 PUSH1 0x2F SLOAD EQ PUSH2 0xDF9 JUMPI PUSH1 0x40 MLOAD PUSH32 0x8C379A000000000000000000000000000000000000000000000000000000000 DUP2 MSTORE PUSH1 0x4 ADD PUSH2 0xDF0 SWAP1 PUSH2 0x6A0A JUMP JUMPDEST PUSH1 0x40 MLOAD DUP1 SWAP2 SUB SWAP1 REVERT JUMPDEST PUSH1 0x0 PUSH1 0x2F DUP2 SWAP1 SSTORE POP PUSH1 0x0 DUP3 DUP5 PUSH2 0xE0F SWAP2 SWAP1 PUSH2 0x6CBE JUMP JUMPDEST EQ DUP1 ISZERO PUSH2 0xE27 JUMPI POP PUSH1 0x0 DUP3 DUP5 PUSH2 0xE25 SWAP2 SWAP1 PUSH2 0x6AC6 JUMP JUMPDEST GT JUMPDEST PUSH2 0xE30 JUMPI PUSH1 0x0 DUP1 REVERT JUMPDEST PUSH1 0x0 DUP4 GT ISZERO PUSH2 0xE59 JUMPI PUSH2 0xE47 DUP4 PUSH1 0x0 PUSH1 0x1 DUP5 PUSH2 0x29D3 JUMP JUMPDEST PUSH2 0xE54 DUP4 PUSH1 0x0 DUP1 DUP5 PUSH2 0x29D3 JUMP JUMPDEST PUSH2 0xE76 JUMP JUMPDEST PUSH2 0xE67 PUSH1 0x0 DUP4 PUSH1 0x1 DUP5 PUSH2 0x29D3 JUMP JUMPDEST PUSH2 0xE75 PUSH1 0x0 DUP4 PUSH1 0x0 DUP5 PUSH2 0x29D3 JUMP JUMPDEST JUMPDEST PUSH1 0x1 PUSH1 0x2F DUP2 SWAP1 SSTORE POP POP POP POP JUMP JUMPDEST PUSH1 0x15 SLOAD DUP2 JUMP JUMPDEST PUSH1 0x25 PUSH1 0x0 SWAP1 SLOAD SWAP1 PUSH2 0x100 EXP SWAP1 DIV PUSH20 0xFFFFFFFFFFFFFFFFFFFFFFFFFFFFFFFFFFFFFFFF AND PUSH20 0xFFFFFFFFFFFFFFFFFFFFFFFFFFFFFFFFFFFFFFFF AND CALLER PUSH20 0xFFFFFFFFFFFFFFFFFFFFFFFFFFFFFFFFFFFFFFFF AND EQ PUSH2 0xF19 JUMPI PUSH1 0x40 MLOAD PUSH32 0x8C379A000000000000000000000000000000000000000000000000000000000 DUP2 MSTORE PUSH1 0x4 ADD PUSH2 0xF10 SWAP1 PUSH2 0x692A JUMP JUMPDEST PUSH1 0x40 MLOAD DUP1 SWAP2 SUB SWAP1 REVERT JUMPDEST DUP1 PUSH1 0x21 DUP2 SWAP1 SSTORE POP POP JUMP JUMPDEST PUSH1 0x7 SLOAD DUP2 JUMP JUMPDEST PUSH1 0x1C SLOAD DUP2 JUMP JUMPDEST PUSH1 0x26 PUSH1 0x0 SWAP1 SLOAD SWAP1 PUSH2 0x100 EXP SWAP1 DIV PUSH20 0xFFFFFFFFFFFFFFFFFFFFFFFFFFFFFFFFFFFFFFFF AND DUP2 JUMP JUMPDEST PUSH1 0x0 SLOAD DUP2 JUMP JUMPDEST PUSH1 0x1D SLOAD DUP2 JUMP JUMPDEST PUSH1 0x30 DUP2 PUSH1 0x2 DUP2 LT PUSH2 0xF71 JUMPI PUSH1 0x0 DUP1 REVERT JUMPDEST ADD PUSH1 0x0 SWAP2 POP SWAP1 POP SLOAD DUP2 JUMP JUMPDEST PUSH1 0x19 SLOAD DUP2 JUMP JUMPDEST PUSH1 0x1A SLOAD DUP2 JUMP JUMPDEST PUSH1 0x0 PUSH2 0x101 PUSH1 0x2 PUSH1 0x0 DUP7 PUSH20 0xFFFFFFFFFFFFFFFFFFFFFFFFFFFFFFFFFFFFFFFF AND PUSH20 0xFFFFFFFFFFFFFFFFFFFFFFFFFFFFFFFFFFFFFFFF AND DUP2 MSTORE PUSH1 0x20 ADD SWAP1 DUP2 MSTORE PUSH1 0x20 ADD PUSH1 0x0 KECCAK256 PUSH1 0x0 CALLER PUSH20 0xFFFFFFFFFFFFFFFFFFFFFFFFFFFFFFFFFFFFFFFF AND PUSH20 0xFFFFFFFFFFFFFFFFFFFFFFFFFFFFFFFFFFFFFFFF AND DUP2 MSTORE PUSH1 0x20 ADD SWAP1 DUP2 MSTORE PUSH1 0x20 ADD PUSH1 0x0 KECCAK256 SLOAD EQ PUSH2 0x111F JUMPI PUSH2 0x109E DUP3 PUSH1 0x2 PUSH1 0x0 DUP8 PUSH20 0xFFFFFFFFFFFFFFFFFFFFFFFFFFFFFFFFFFFFFFFF AND PUSH20 0xFFFFFFFFFFFFFFFFFFFFFFFFFFFFFFFFFFFFFFFF AND DUP2 MSTORE PUSH1 0x20 ADD SWAP1 DUP2 MSTORE PUSH1 0x20 ADD PUSH1 0x0 KECCAK256 PUSH1 0x0 CALLER PUSH20 0xFFFFFFFFFFFFFFFFFFFFFFFFFFFFFFFFFFFFFFFF AND PUSH20 0xFFFFFFFFFFFFFFFFFFFFFFFFFFFFFFFFFFFFFFFF AND DUP2 MSTORE PUSH1 0x20 ADD SWAP1 DUP2 MSTORE PUSH1 0x20 ADD PUSH1 0x0 KECCAK256 SLOAD PUSH2 0x3DD7 SWAP1 SWAP2 SWAP1 PUSH4 0xFFFFFFFF AND JUMP JUMPDEST PUSH1 0x2 PUSH1 0x0 DUP7 PUSH20 0xFFFFFFFFFFFFFFFFFFFFFFFFFFFFFFFFFFFFFFFF AND PUSH20 0xFFFFFFFFFFFFFFFFFFFFFFFFFFFFFFFFFFFFFFFF AND DUP2 MSTORE PUSH1 0x20 ADD SWAP1 DUP2 MSTORE PUSH1 0x20 ADD PUSH1 0x0 KECCAK256 PUSH1 0x0 CALLER PUSH20 0xFFFFFFFFFFFFFFFFFFFFFFFFFFFFFFFFFFFFFFFF AND PUSH20 0xFFFFFFFFFFFFFFFFFFFFFFFFFFFFFFFFFFFFFFFF AND DUP2 MSTORE PUSH1 0x20 ADD SWAP1 DUP2 MSTORE PUSH1 0x20 ADD PUSH1 0x0 KECCAK256 DUP2 SWAP1 SSTORE POP JUMPDEST PUSH2 0x112A DUP5 DUP5 DUP5 PUSH2 0x3E30 JUMP JUMPDEST PUSH1 0x1 SWAP1 POP SWAP4 SWAP3 POP POP POP JUMP JUMPDEST PUSH1 0x1E SLOAD DUP2 JUMP JUMPDEST PUSH1 0x29 SLOAD DUP2 JUMP JUMPDEST PUSH32 0x6E71EDAE12B1B97F4D1F60370FEF10105FA2FAAE0126114A169C64845D6126C9 PUSH1 0x0 SHL DUP2 JUMP JUMPDEST PUSH1 0x12 DUP2 JUMP JUMPDEST PUSH1 0x5 SLOAD DUP2 JUMP JUMPDEST PUSH1 0x25 PUSH1 0x0 SWAP1 SLOAD SWAP1 PUSH2 0x100 EXP SWAP1 DIV PUSH20 0xFFFFFFFFFFFFFFFFFFFFFFFFFFFFFFFFFFFFFFFF AND PUSH20 0xFFFFFFFFFFFFFFFFFFFFFFFFFFFFFFFFFFFFFFFF AND CALLER PUSH20 0xFFFFFFFFFFFFFFFFFFFFFFFFFFFFFFFFFFFFFFFF AND EQ PUSH2 0x1203 JUMPI PUSH1 0x40 MLOAD PUSH32 0x8C379A000000000000000000000000000000000000000000000000000000000 DUP2 MSTORE PUSH1 0x4 ADD PUSH2 0x11FA SWAP1 PUSH2 0x692A JUMP JUMPDEST PUSH1 0x40 MLOAD DUP1 SWAP2 SUB SWAP1 REVERT JUMPDEST DUP1 PUSH1 0x1D DUP2 SWAP1 SSTORE POP POP JUMP JUMPDEST PUSH1 0x3 SLOAD DUP2 JUMP JUMPDEST PUSH1 0xC SLOAD DUP2 JUMP JUMPDEST PUSH1 0x13 SLOAD DUP2 JUMP JUMPDEST PUSH1 0x17 SLOAD DUP2 JUMP JUMPDEST PUSH1 0x25 PUSH1 0x0 SWAP1 SLOAD SWAP1 PUSH2 0x100 EXP SWAP1 DIV PUSH20 0xFFFFFFFFFFFFFFFFFFFFFFFFFFFFFFFFFFFFFFFF AND PUSH20 0xFFFFFFFFFFFFFFFFFFFFFFFFFFFFFFFFFFFFFFFF AND CALLER PUSH20 0xFFFFFFFFFFFFFFFFFFFFFFFFFFFFFFFFFFFFFFFF AND EQ PUSH2 0x12B5 JUMPI PUSH1 0x40 MLOAD PUSH32 0x8C379A000000000000000000000000000000000000000000000000000000000 DUP2 MSTORE PUSH1 0x4 ADD PUSH2 0x12AC SWAP1 PUSH2 0x69AA JUMP JUMPDEST PUSH1 0x40 MLOAD DUP1 SWAP2 SUB SWAP1 REVERT JUMPDEST DUP2 PUSH1 0x26 PUSH1 0x0 PUSH2 0x100 EXP DUP2 SLOAD DUP2 PUSH20 0xFFFFFFFFFFFFFFFFFFFFFFFFFFFFFFFFFFFFFFFF MUL NOT AND SWAP1 DUP4 PUSH20 0xFFFFFFFFFFFFFFFFFFFFFFFFFFFFFFFFFFFFFFFF AND MUL OR SWAP1 SSTORE POP DUP1 PUSH1 0x27 PUSH1 0x0 PUSH2 0x100 EXP DUP2 SLOAD DUP2 PUSH20 0xFFFFFFFFFFFFFFFFFFFFFFFFFFFFFFFFFFFFFFFF MUL NOT AND SWAP1 DUP4 PUSH20 0xFFFFFFFFFFFFFFFFFFFFFFFFFFFFFFFFFFFFFFFF AND MUL OR SWAP1 SSTORE POP POP POP JUMP JUMPDEST PUSH1 0x1 PUSH1 0x2F SLOAD EQ PUSH2 0x1380 JUMPI PUSH1 0x40 MLOAD PUSH32 0x8C379A000000000000000000000000000000000000000000000000000000000 DUP2 MSTORE PUSH1 0x4 ADD PUSH2 0x1377 SWAP1 PUSH2 0x6A0A JUMP JUMPDEST PUSH1 0x40 MLOAD DUP1 SWAP2 SUB SWAP1 REVERT JUMPDEST PUSH1 0x0 PUSH1 0x2F DUP2 SWAP1 SSTORE POP PUSH1 0x0 DUP3 DUP5 PUSH2 0x1396 SWAP2 SWAP1 PUSH2 0x6CBE JUMP JUMPDEST EQ DUP1 ISZERO PUSH2 0x13AE JUMPI POP PUSH1 0x0 DUP3 DUP5 PUSH2 0x13AC SWAP2 SWAP1 PUSH2 0x6AC6 JUMP JUMPDEST GT JUMPDEST DUP1 ISZERO PUSH2 0x13DC JUMPI POP PUSH2 0x13BE DUP2 PUSH2 0x3FC4 JUMP JUMPDEST PUSH2 0x13C7 DUP3 PUSH2 0x40F0 JUMP JUMPDEST PUSH2 0x13D0 DUP4 PUSH2 0x41F5 JUMP JUMPDEST PUSH2 0x13DA SWAP2 SWAP1 PUSH2 0x6AC6 JUMP JUMPDEST GT JUMPDEST DUP1 ISZERO PUSH2 0x143F JUMPI POP PUSH1 0x32 PUSH1 0x0 DUP3 PUSH20 0xFFFFFFFFFFFFFFFFFFFFFFFFFFFFFFFFFFFFFFFF AND PUSH20 0xFFFFFFFFFFFFFFFFFFFFFFFFFFFFFFFFFFFFFFFF AND DUP2 MSTORE PUSH1 0x20 ADD SWAP1 DUP2 MSTORE PUSH1 0x20 ADD PUSH1 0x0 KECCAK256 PUSH1 0x0 DUP1 ISZERO ISZERO ISZERO ISZERO DUP2 MSTORE PUSH1 0x20 ADD SWAP1 DUP2 MSTORE PUSH1 0x20 ADD PUSH1 0x0 KECCAK256 PUSH1 0x2 ADD SLOAD DUP4 GT ISZERO JUMPDEST DUP1 ISZERO PUSH2 0x14A3 JUMPI POP PUSH1 0x32 PUSH1 0x0 DUP3 PUSH20 0xFFFFFFFFFFFFFFFFFFFFFFFFFFFFFFFFFFFFFFFF AND PUSH20 0xFFFFFFFFFFFFFFFFFFFFFFFFFFFFFFFFFFFFFFFF AND DUP2 MSTORE PUSH1 0x20 ADD SWAP1 DUP2 MSTORE PUSH1 0x20 ADD PUSH1 0x0 KECCAK256 PUSH1 0x0 PUSH1 0x1 ISZERO ISZERO ISZERO ISZERO DUP2 MSTORE PUSH1 0x20 ADD SWAP1 DUP2 MSTORE PUSH1 0x20 ADD PUSH1 0x0 KECCAK256 PUSH1 0x2 ADD SLOAD DUP3 GT ISZERO JUMPDEST PUSH2 0x14AC JUMPI PUSH1 0x0 DUP1 REVERT JUMPDEST PUSH2 0x14B4 PUSH2 0x42E4 JUMP JUMPDEST PUSH1 0x0 DUP4 GT ISZERO PUSH2 0x1C1E JUMPI PUSH1 0x0 PUSH2 0x14CA DUP5 PUSH1 0x1 PUSH2 0x4478 JUMP JUMPDEST SWAP1 POP PUSH1 0x0 PUSH1 0x32 PUSH1 0x0 DUP5 PUSH20 0xFFFFFFFFFFFFFFFFFFFFFFFFFFFFFFFFFFFFFFFF AND PUSH20 0xFFFFFFFFFFFFFFFFFFFFFFFFFFFFFFFFFFFFFFFF AND DUP2 MSTORE PUSH1 0x20 ADD SWAP1 DUP2 MSTORE PUSH1 0x20 ADD PUSH1 0x0 KECCAK256 PUSH1 0x0 DUP1 ISZERO ISZERO ISZERO ISZERO DUP2 MSTORE PUSH1 0x20 ADD SWAP1 DUP2 MSTORE PUSH1 0x20 ADD PUSH1 0x0 KECCAK256 PUSH1 0x2 ADD SLOAD PUSH1 0x1C SLOAD PUSH1 0x1A SLOAD PUSH1 0x32 PUSH1 0x0 DUP8 PUSH20 0xFFFFFFFFFFFFFFFFFFFFFFFFFFFFFFFFFFFFFFFF AND PUSH20 0xFFFFFFFFFFFFFFFFFFFFFFFFFFFFFFFFFFFFFFFF AND DUP2 MSTORE PUSH1 0x20 ADD SWAP1 DUP2 MSTORE PUSH1 0x20 ADD PUSH1 0x0 KECCAK256 PUSH1 0x0 PUSH1 0x1 ISZERO ISZERO ISZERO ISZERO DUP2 MSTORE PUSH1 0x20 ADD SWAP1 DUP2 MSTORE PUSH1 0x20 ADD PUSH1 0x0 KECCAK256 PUSH1 0x1 ADD SLOAD DUP9 PUSH2 0x1590 SWAP2 SWAP1 PUSH2 0x6CBE JUMP JUMPDEST PUSH2 0x159A SWAP2 SWAP1 PUSH2 0x6CBE JUMP JUMPDEST PUSH2 0x15A4 SWAP2 SWAP1 PUSH2 0x6B1C JUMP JUMPDEST PUSH2 0x15AE SWAP2 SWAP1 PUSH2 0x6B1C JUMP JUMPDEST SWAP1 POP DUP5 PUSH1 0x32 PUSH1 0x0 DUP6 PUSH20 0xFFFFFFFFFFFFFFFFFFFFFFFFFFFFFFFFFFFFFFFF AND PUSH20 0xFFFFFFFFFFFFFFFFFFFFFFFFFFFFFFFFFFFFFFFF AND DUP2 MSTORE PUSH1 0x20 ADD SWAP1 DUP2 MSTORE PUSH1 0x20 ADD PUSH1 0x0 KECCAK256 PUSH1 0x0 DUP1 ISZERO ISZERO ISZERO ISZERO DUP2 MSTORE PUSH1 0x20 ADD SWAP1 DUP2 MSTORE PUSH1 0x20 ADD PUSH1 0x0 KECCAK256 PUSH1 0x2 ADD PUSH1 0x0 DUP3 DUP3 SLOAD PUSH2 0x1617 SWAP2 SWAP1 PUSH2 0x6D18 JUMP JUMPDEST SWAP3 POP POP DUP2 SWAP1 SSTORE POP DUP1 PUSH1 0x1A PUSH1 0x0 DUP3 DUP3 SLOAD PUSH2 0x1630 SWAP2 SWAP1 PUSH2 0x6D18 JUMP JUMPDEST SWAP3 POP POP DUP2 SWAP1 SSTORE POP PUSH1 0x32 PUSH1 0x0 DUP5 PUSH20 0xFFFFFFFFFFFFFFFFFFFFFFFFFFFFFFFFFFFFFFFF AND PUSH20 0xFFFFFFFFFFFFFFFFFFFFFFFFFFFFFFFFFFFFFFFF AND DUP2 MSTORE PUSH1 0x20 ADD SWAP1 DUP2 MSTORE PUSH1 0x20 ADD PUSH1 0x0 KECCAK256 PUSH1 0x0 DUP1 ISZERO ISZERO ISZERO ISZERO DUP2 MSTORE PUSH1 0x20 ADD SWAP1 DUP2 MSTORE PUSH1 0x20 ADD PUSH1 0x0 KECCAK256 PUSH1 0x2 ADD SLOAD DUP6 PUSH1 0x32 PUSH1 0x0 DUP7 PUSH20 0xFFFFFFFFFFFFFFFFFFFFFFFFFFFFFFFFFFFFFFFF AND PUSH20 0xFFFFFFFFFFFFFFFFFFFFFFFFFFFFFFFFFFFFFFFF AND DUP2 MSTORE PUSH1 0x20 ADD SWAP1 DUP2 MSTORE PUSH1 0x20 ADD PUSH1 0x0 KECCAK256 PUSH1 0x0 PUSH1 0x1 ISZERO ISZERO ISZERO ISZERO DUP2 MSTORE PUSH1 0x20 ADD SWAP1 DUP2 MSTORE PUSH1 0x20 ADD PUSH1 0x0 KECCAK256 PUSH1 0x1 ADD SLOAD PUSH2 0x16F3 SWAP2 SWAP1 PUSH2 0x6CBE JUMP JUMPDEST PUSH2 0x16FD SWAP2 SWAP1 PUSH2 0x6B1C JUMP JUMPDEST PUSH1 0x1C PUSH1 0x0 DUP3 DUP3 SLOAD PUSH2 0x170E SWAP2 SWAP1 PUSH2 0x6D18 JUMP JUMPDEST SWAP3 POP POP DUP2 SWAP1 SSTORE POP PUSH1 0x32 PUSH1 0x0 DUP5 PUSH20 0xFFFFFFFFFFFFFFFFFFFFFFFFFFFFFFFFFFFFFFFF AND PUSH20 0xFFFFFFFFFFFFFFFFFFFFFFFFFFFFFFFFFFFFFFFF AND DUP2 MSTORE PUSH1 0x20 ADD SWAP1 DUP2 MSTORE PUSH1 0x20 ADD PUSH1 0x0 KECCAK256 PUSH1 0x0 DUP1 ISZERO ISZERO ISZERO ISZERO DUP2 MSTORE PUSH1 0x20 ADD SWAP1 DUP2 MSTORE PUSH1 0x20 ADD PUSH1 0x0 KECCAK256 PUSH1 0x2 ADD SLOAD DUP6 PUSH1 0x32 PUSH1 0x0 DUP7 PUSH20 0xFFFFFFFFFFFFFFFFFFFFFFFFFFFFFFFFFFFFFFFF AND PUSH20 0xFFFFFFFFFFFFFFFFFFFFFFFFFFFFFFFFFFFFFFFF AND DUP2 MSTORE PUSH1 0x20 ADD SWAP1 DUP2 MSTORE PUSH1 0x20 ADD PUSH1 0x0 KECCAK256 PUSH1 0x0 PUSH1 0x1 ISZERO ISZERO ISZERO ISZERO DUP2 MSTORE PUSH1 0x20 ADD SWAP1 DUP2 MSTORE PUSH1 0x20 ADD PUSH1 0x0 KECCAK256 PUSH1 0x1 ADD SLOAD PUSH2 0x17D1 SWAP2 SWAP1 PUSH2 0x6CBE JUMP JUMPDEST PUSH2 0x17DB SWAP2 SWAP1 PUSH2 0x6B1C JUMP JUMPDEST PUSH1 0x32 PUSH1 0x0 DUP6 PUSH20 0xFFFFFFFFFFFFFFFFFFFFFFFFFFFFFFFFFFFFFFFF AND PUSH20 0xFFFFFFFFFFFFFFFFFFFFFFFFFFFFFFFFFFFFFFFF AND DUP2 MSTORE PUSH1 0x20 ADD SWAP1 DUP2 MSTORE PUSH1 0x20 ADD PUSH1 0x0 KECCAK256 PUSH1 0x0 PUSH1 0x1 ISZERO ISZERO ISZERO ISZERO DUP2 MSTORE PUSH1 0x20 ADD SWAP1 DUP2 MSTORE PUSH1 0x20 ADD PUSH1 0x0 KECCAK256 PUSH1 0x1 ADD PUSH1 0x0 DUP3 DUP3 SLOAD PUSH2 0x1842 SWAP2 SWAP1 PUSH2 0x6D18 JUMP JUMPDEST SWAP3 POP POP DUP2 SWAP1 SSTORE POP DUP1 DUP3 GT DUP1 ISZERO PUSH2 0x186B JUMPI POP PUSH1 0x0 ISZERO ISZERO PUSH1 0x2D PUSH1 0x0 SWAP1 SLOAD SWAP1 PUSH2 0x100 EXP SWAP1 DIV PUSH1 0xFF AND ISZERO ISZERO EQ JUMPDEST ISZERO PUSH2 0x18F4 JUMPI PUSH2 0x1886 DUP2 DUP4 PUSH2 0x187F SWAP2 SWAP1 PUSH2 0x6D18 JUMP JUMPDEST PUSH1 0x0 PUSH2 0x47FC JUMP JUMPDEST PUSH1 0x33 PUSH1 0x0 DUP6 PUSH20 0xFFFFFFFFFFFFFFFFFFFFFFFFFFFFFFFFFFFFFFFF AND PUSH20 0xFFFFFFFFFFFFFFFFFFFFFFFFFFFFFFFFFFFFFFFF AND DUP2 MSTORE PUSH1 0x20 ADD SWAP1 DUP2 MSTORE PUSH1 0x20 ADD PUSH1 0x0 KECCAK256 PUSH1 0x0 PUSH1 0x2 DUP2 LT PUSH2 0x18D8 JUMPI PUSH2 0x18D7 PUSH2 0x6E8F JUMP JUMPDEST JUMPDEST ADD PUSH1 0x0 DUP3 DUP3 SLOAD PUSH2 0x18E8 SWAP2 SWAP1 PUSH2 0x6AC6 JUMP JUMPDEST SWAP3 POP POP DUP2 SWAP1 SSTORE POP PUSH2 0x1C17 JUMP JUMPDEST DUP1 DUP3 PUSH1 0x33 PUSH1 0x0 DUP7 PUSH20 0xFFFFFFFFFFFFFFFFFFFFFFFFFFFFFFFFFFFFFFFF AND PUSH20 0xFFFFFFFFFFFFFFFFFFFFFFFFFFFFFFFFFFFFFFFF AND DUP2 MSTORE PUSH1 0x20 ADD SWAP1 DUP2 MSTORE PUSH1 0x20 ADD PUSH1 0x0 KECCAK256 PUSH1 0x1 PUSH1 0x2 DUP2 LT PUSH2 0x1948 JUMPI PUSH2 0x1947 PUSH2 0x6E8F JUMP JUMPDEST JUMPDEST ADD SLOAD PUSH2 0x1954 SWAP2 SWAP1 PUSH2 0x6AC6 JUMP JUMPDEST GT DUP1 ISZERO PUSH2 0x1974 JUMPI POP PUSH1 0x1 ISZERO ISZERO PUSH1 0x2D PUSH1 0x0 SWAP1 SLOAD SWAP1 PUSH2 0x100 EXP SWAP1 DIV PUSH1 0xFF AND ISZERO ISZERO EQ JUMPDEST ISZERO PUSH2 0x1A3F JUMPI DUP1 DUP3 PUSH1 0x33 PUSH1 0x0 DUP7 PUSH20 0xFFFFFFFFFFFFFFFFFFFFFFFFFFFFFFFFFFFFFFFF AND PUSH20 0xFFFFFFFFFFFFFFFFFFFFFFFFFFFFFFFFFFFFFFFF AND DUP2 MSTORE PUSH1 0x20 ADD SWAP1 DUP2 MSTORE PUSH1 0x20 ADD PUSH1 0x0 KECCAK256 PUSH1 0x1 PUSH1 0x2 DUP2 LT PUSH2 0x19CD JUMPI PUSH2 0x19CC PUSH2 0x6E8F JUMP JUMPDEST JUMPDEST ADD SLOAD PUSH2 0x19D9 SWAP2 SWAP1 PUSH2 0x6AC6 JUMP JUMPDEST PUSH2 0x19E3 SWAP2 SWAP1 PUSH2 0x6D18 JUMP JUMPDEST PUSH1 0x33 PUSH1 0x0 DUP6 PUSH20 0xFFFFFFFFFFFFFFFFFFFFFFFFFFFFFFFFFFFFFFFF AND PUSH20 0xFFFFFFFFFFFFFFFFFFFFFFFFFFFFFFFFFFFFFFFF AND DUP2 MSTORE PUSH1 0x20 ADD SWAP1 DUP2 MSTORE PUSH1 0x20 ADD PUSH1 0x0 KECCAK256 PUSH1 0x1 PUSH1 0x2 DUP2 LT PUSH2 0x1A35 JUMPI PUSH2 0x1A34 PUSH2 0x6E8F JUMP JUMPDEST JUMPDEST ADD DUP2 SWAP1 SSTORE POP PUSH2 0x1C16 JUMP JUMPDEST PUSH2 0x1B07 PUSH1 0x33 PUSH1 0x0 DUP6 PUSH20 0xFFFFFFFFFFFFFFFFFFFFFFFFFFFFFFFFFFFFFFFF AND PUSH20 0xFFFFFFFFFFFFFFFFFFFFFFFFFFFFFFFFFFFFFFFF AND DUP2 MSTORE PUSH1 0x20 ADD SWAP1 DUP2 MSTORE PUSH1 0x20 ADD PUSH1 0x0 KECCAK256 PUSH1 0x1 PUSH1 0x2 DUP2 LT PUSH2 0x1A94 JUMPI PUSH2 0x1A93 PUSH2 0x6E8F JUMP JUMPDEST JUMPDEST ADD SLOAD DUP4 DUP4 PUSH2 0x1AA2 SWAP2 SWAP1 PUSH2 0x6D18 JUMP JUMPDEST PUSH2 0x1AAC SWAP2 SWAP1 PUSH2 0x6D18 JUMP JUMPDEST PUSH1 0x33 PUSH1 0x0 DUP7 PUSH20 0xFFFFFFFFFFFFFFFFFFFFFFFFFFFFFFFFFFFFFFFF AND PUSH20 0xFFFFFFFFFFFFFFFFFFFFFFFFFFFFFFFFFFFFFFFF AND DUP2 MSTORE PUSH1 0x20 ADD SWAP1 DUP2 MSTORE PUSH1 0x20 ADD PUSH1 0x0 KECCAK256 PUSH1 0x0 PUSH1 0x2 DUP2 LT PUSH2 0x1AFE JUMPI PUSH2 0x1AFD PUSH2 0x6E8F JUMP JUMPDEST JUMPDEST ADD SLOAD PUSH1 0x0 PUSH2 0x4B86 JUMP JUMPDEST PUSH1 0x33 PUSH1 0x0 DUP6 PUSH20 0xFFFFFFFFFFFFFFFFFFFFFFFFFFFFFFFFFFFFFFFF AND PUSH20 0xFFFFFFFFFFFFFFFFFFFFFFFFFFFFFFFFFFFFFFFF AND DUP2 MSTORE PUSH1 0x20 ADD SWAP1 DUP2 MSTORE PUSH1 0x20 ADD PUSH1 0x0 KECCAK256 PUSH1 0x0 PUSH1 0x2 DUP2 LT PUSH2 0x1B59 JUMPI PUSH2 0x1B58 PUSH2 0x6E8F JUMP JUMPDEST JUMPDEST ADD SLOAD PUSH2 0x1B65 SWAP2 SWAP1 PUSH2 0x6D18 JUMP JUMPDEST PUSH1 0x33 PUSH1 0x0 DUP6 PUSH20 0xFFFFFFFFFFFFFFFFFFFFFFFFFFFFFFFFFFFFFFFF AND PUSH20 0xFFFFFFFFFFFFFFFFFFFFFFFFFFFFFFFFFFFFFFFF AND DUP2 MSTORE PUSH1 0x20 ADD SWAP1 DUP2 MSTORE PUSH1 0x20 ADD PUSH1 0x0 KECCAK256 PUSH1 0x0 PUSH1 0x2 DUP2 LT PUSH2 0x1BB7 JUMPI PUSH2 0x1BB6 PUSH2 0x6E8F JUMP JUMPDEST JUMPDEST ADD DUP2 SWAP1 SSTORE POP PUSH1 0x0 PUSH1 0x33 PUSH1 0x0 DUP6 PUSH20 0xFFFFFFFFFFFFFFFFFFFFFFFFFFFFFFFFFFFFFFFF AND PUSH20 0xFFFFFFFFFFFFFFFFFFFFFFFFFFFFFFFFFFFFFFFF AND DUP2 MSTORE PUSH1 0x20 ADD SWAP1 DUP2 MSTORE PUSH1 0x20 ADD PUSH1 0x0 KECCAK256 PUSH1 0x1 PUSH1 0x2 DUP2 LT PUSH2 0x1C10 JUMPI PUSH2 0x1C0F PUSH2 0x6E8F JUMP JUMPDEST JUMPDEST ADD DUP2 SWAP1 SSTORE POP JUMPDEST JUMPDEST POP POP PUSH2 0x22B0 JUMP JUMPDEST PUSH1 0x0 PUSH2 0x1C2B DUP4 PUSH1 0x1 PUSH2 0x47FC JUMP JUMPDEST SWAP1 POP PUSH1 0x0 PUSH1 0x32 PUSH1 0x0 DUP5 PUSH20 0xFFFFFFFFFFFFFFFFFFFFFFFFFFFFFFFFFFFFFFFF AND PUSH20 0xFFFFFFFFFFFFFFFFFFFFFFFFFFFFFFFFFFFFFFFF AND DUP2 MSTORE PUSH1 0x20 ADD SWAP1 DUP2 MSTORE PUSH1 0x20 ADD PUSH1 0x0 KECCAK256 PUSH1 0x0 PUSH1 0x1 ISZERO ISZERO ISZERO ISZERO DUP2 MSTORE PUSH1 0x20 ADD SWAP1 DUP2 MSTORE PUSH1 0x20 ADD PUSH1 0x0 KECCAK256 PUSH1 0x2 ADD SLOAD PUSH1 0x1B SLOAD PUSH1 0x19 SLOAD PUSH1 0x32 PUSH1 0x0 DUP8 PUSH20 0xFFFFFFFFFFFFFFFFFFFFFFFFFFFFFFFFFFFFFFFF AND PUSH20 0xFFFFFFFFFFFFFFFFFFFFFFFFFFFFFFFFFFFFFFFF AND DUP2 MSTORE PUSH1 0x20 ADD SWAP1 DUP2 MSTORE PUSH1 0x20 ADD PUSH1 0x0 KECCAK256 PUSH1 0x0 DUP1 ISZERO ISZERO ISZERO ISZERO DUP2 MSTORE PUSH1 0x20 ADD SWAP1 DUP2 MSTORE PUSH1 0x20 ADD PUSH1 0x0 KECCAK256 PUSH1 0x1 ADD SLOAD DUP8 PUSH2 0x1CF1 SWAP2 SWAP1 PUSH2 0x6CBE JUMP JUMPDEST PUSH2 0x1CFB SWAP2 SWAP1 PUSH2 0x6CBE JUMP JUMPDEST PUSH2 0x1D05 SWAP2 SWAP1 PUSH2 0x6B1C JUMP JUMPDEST PUSH2 0x1D0F SWAP2 SWAP1 PUSH2 0x6B1C JUMP JUMPDEST SWAP1 POP DUP4 PUSH1 0x32 PUSH1 0x0 DUP6 PUSH20 0xFFFFFFFFFFFFFFFFFFFFFFFFFFFFFFFFFFFFFFFF AND PUSH20 0xFFFFFFFFFFFFFFFFFFFFFFFFFFFFFFFFFFFFFFFF AND DUP2 MSTORE PUSH1 0x20 ADD SWAP1 DUP2 MSTORE PUSH1 0x20 ADD PUSH1 0x0 KECCAK256 PUSH1 0x0 PUSH1 0x1 ISZERO ISZERO ISZERO ISZERO DUP2 MSTORE PUSH1 0x20 ADD SWAP1 DUP2 MSTORE PUSH1 0x20 ADD PUSH1 0x0 KECCAK256 PUSH1 0x2 ADD PUSH1 0x0 DUP3 DUP3 SLOAD PUSH2 0x1D79 SWAP2 SWAP1 PUSH2 0x6D18 JUMP JUMPDEST SWAP3 POP POP DUP2 SWAP1 SSTORE POP DUP1 PUSH1 0x19 PUSH1 0x0 DUP3 DUP3 SLOAD PUSH2 0x1D92 SWAP2 SWAP1 PUSH2 0x6D18 JUMP JUMPDEST SWAP3 POP POP DUP2 SWAP1 SSTORE POP PUSH1 0x32 PUSH1 0x0 DUP5 PUSH20 0xFFFFFFFFFFFFFFFFFFFFFFFFFFFFFFFFFFFFFFFF AND PUSH20 0xFFFFFFFFFFFFFFFFFFFFFFFFFFFFFFFFFFFFFFFF AND DUP2 MSTORE PUSH1 0x20 ADD SWAP1 DUP2 MSTORE PUSH1 0x20 ADD PUSH1 0x0 KECCAK256 PUSH1 0x0 PUSH1 0x1 ISZERO ISZERO ISZERO ISZERO DUP2 MSTORE PUSH1 0x20 ADD SWAP1 DUP2 MSTORE PUSH1 0x20 ADD PUSH1 0x0 KECCAK256 PUSH1 0x2 ADD SLOAD DUP5 PUSH1 0x32 PUSH1 0x0 DUP7 PUSH20 0xFFFFFFFFFFFFFFFFFFFFFFFFFFFFFFFFFFFFFFFF AND PUSH20 0xFFFFFFFFFFFFFFFFFFFFFFFFFFFFFFFFFFFFFFFF AND DUP2 MSTORE PUSH1 0x20 ADD SWAP1 DUP2 MSTORE PUSH1 0x20 ADD PUSH1 0x0 KECCAK256 PUSH1 0x0 DUP1 ISZERO ISZERO ISZERO ISZERO DUP2 MSTORE PUSH1 0x20 ADD SWAP1 DUP2 MSTORE PUSH1 0x20 ADD PUSH1 0x0 KECCAK256 PUSH1 0x1 ADD SLOAD PUSH2 0x1E55 SWAP2 SWAP1 PUSH2 0x6CBE JUMP JUMPDEST PUSH2 0x1E5F SWAP2 SWAP1 PUSH2 0x6B1C JUMP JUMPDEST PUSH1 0x1B PUSH1 0x0 DUP3 DUP3 SLOAD PUSH2 0x1E70 SWAP2 SWAP1 PUSH2 0x6D18 JUMP JUMPDEST SWAP3 POP POP DUP2 SWAP1 SSTORE POP PUSH1 0x32 PUSH1 0x0 DUP5 PUSH20 0xFFFFFFFFFFFFFFFFFFFFFFFFFFFFFFFFFFFFFFFF AND PUSH20 0xFFFFFFFFFFFFFFFFFFFFFFFFFFFFFFFFFFFFFFFF AND DUP2 MSTORE PUSH1 0x20 ADD SWAP1 DUP2 MSTORE PUSH1 0x20 ADD PUSH1 0x0 KECCAK256 PUSH1 0x0 PUSH1 0x1 ISZERO ISZERO ISZERO ISZERO DUP2 MSTORE PUSH1 0x20 ADD SWAP1 DUP2 MSTORE PUSH1 0x20 ADD PUSH1 0x0 KECCAK256 PUSH1 0x2 ADD SLOAD DUP5 PUSH1 0x32 PUSH1 0x0 DUP7 PUSH20 0xFFFFFFFFFFFFFFFFFFFFFFFFFFFFFFFFFFFFFFFF AND PUSH20 0xFFFFFFFFFFFFFFFFFFFFFFFFFFFFFFFFFFFFFFFF AND DUP2 MSTORE PUSH1 0x20 ADD SWAP1 DUP2 MSTORE PUSH1 0x20 ADD PUSH1 0x0 KECCAK256 PUSH1 0x0 DUP1 ISZERO ISZERO ISZERO ISZERO DUP2 MSTORE PUSH1 0x20 ADD SWAP1 DUP2 MSTORE PUSH1 0x20 ADD PUSH1 0x0 KECCAK256 PUSH1 0x1 ADD SLOAD PUSH2 0x1F33 SWAP2 SWAP1 PUSH2 0x6CBE JUMP JUMPDEST PUSH2 0x1F3D SWAP2 SWAP1 PUSH2 0x6B1C JUMP JUMPDEST PUSH1 0x32 PUSH1 0x0 DUP6 PUSH20 0xFFFFFFFFFFFFFFFFFFFFFFFFFFFFFFFFFFFFFFFF AND PUSH20 0xFFFFFFFFFFFFFFFFFFFFFFFFFFFFFFFFFFFFFFFF AND DUP2 MSTORE PUSH1 0x20 ADD SWAP1 DUP2 MSTORE PUSH1 0x20 ADD PUSH1 0x0 KECCAK256 PUSH1 0x0 DUP1 ISZERO ISZERO ISZERO ISZERO DUP2 MSTORE PUSH1 0x20 ADD SWAP1 DUP2 MSTORE PUSH1 0x20 ADD PUSH1 0x0 KECCAK256 PUSH1 0x1 ADD PUSH1 0x0 DUP3 DUP3 SLOAD PUSH2 0x1FA3 SWAP2 SWAP1 PUSH2 0x6D18 JUMP JUMPDEST SWAP3 POP POP DUP2 SWAP1 SSTORE POP DUP1 DUP3 PUSH1 0x33 PUSH1 0x0 DUP7 PUSH20 0xFFFFFFFFFFFFFFFFFFFFFFFFFFFFFFFFFFFFFFFF AND PUSH20 0xFFFFFFFFFFFFFFFFFFFFFFFFFFFFFFFFFFFFFFFF AND DUP2 MSTORE PUSH1 0x20 ADD SWAP1 DUP2 MSTORE PUSH1 0x20 ADD PUSH1 0x0 KECCAK256 PUSH1 0x0 PUSH1 0x2 DUP2 LT PUSH2 0x1FFE JUMPI PUSH2 0x1FFD PUSH2 0x6E8F JUMP JUMPDEST JUMPDEST ADD SLOAD PUSH2 0x200A SWAP2 SWAP1 PUSH2 0x6AC6 JUMP JUMPDEST GT ISZERO PUSH2 0x20D6 JUMPI DUP1 DUP3 PUSH1 0x33 PUSH1 0x0 DUP7 PUSH20 0xFFFFFFFFFFFFFFFFFFFFFFFFFFFFFFFFFFFFFFFF AND PUSH20 0xFFFFFFFFFFFFFFFFFFFFFFFFFFFFFFFFFFFFFFFF AND DUP2 MSTORE PUSH1 0x20 ADD SWAP1 DUP2 MSTORE PUSH1 0x20 ADD PUSH1 0x0 KECCAK256 PUSH1 0x0 PUSH1 0x2 DUP2 LT PUSH2 0x2064 JUMPI PUSH2 0x2063 PUSH2 0x6E8F JUMP JUMPDEST JUMPDEST ADD SLOAD PUSH2 0x2070 SWAP2 SWAP1 PUSH2 0x6AC6 JUMP JUMPDEST PUSH2 0x207A SWAP2 SWAP1 PUSH2 0x6D18 JUMP JUMPDEST PUSH1 0x33 PUSH1 0x0 DUP6 PUSH20 0xFFFFFFFFFFFFFFFFFFFFFFFFFFFFFFFFFFFFFFFF AND PUSH20 0xFFFFFFFFFFFFFFFFFFFFFFFFFFFFFFFFFFFFFFFF AND DUP2 MSTORE PUSH1 0x20 ADD SWAP1 DUP2 MSTORE PUSH1 0x20 ADD PUSH1 0x0 KECCAK256 PUSH1 0x0 PUSH1 0x2 DUP2 LT PUSH2 0x20CC JUMPI PUSH2 0x20CB PUSH2 0x6E8F JUMP JUMPDEST JUMPDEST ADD DUP2 SWAP1 SSTORE POP PUSH2 0x22AD JUMP JUMPDEST PUSH2 0x219E PUSH1 0x33 PUSH1 0x0 DUP6 PUSH20 0xFFFFFFFFFFFFFFFFFFFFFFFFFFFFFFFFFFFFFFFF AND PUSH20 0xFFFFFFFFFFFFFFFFFFFFFFFFFFFFFFFFFFFFFFFF AND DUP2 MSTORE PUSH1 0x20 ADD SWAP1 DUP2 MSTORE PUSH1 0x20 ADD PUSH1 0x0 KECCAK256 PUSH1 0x0 PUSH1 0x2 DUP2 LT PUSH2 0x212B JUMPI PUSH2 0x212A PUSH2 0x6E8F JUMP JUMPDEST JUMPDEST ADD SLOAD DUP4 DUP4 PUSH2 0x2139 SWAP2 SWAP1 PUSH2 0x6D18 JUMP JUMPDEST PUSH2 0x2143 SWAP2 SWAP1 PUSH2 0x6D18 JUMP JUMPDEST PUSH1 0x33 PUSH1 0x0 DUP7 PUSH20 0xFFFFFFFFFFFFFFFFFFFFFFFFFFFFFFFFFFFFFFFF AND PUSH20 0xFFFFFFFFFFFFFFFFFFFFFFFFFFFFFFFFFFFFFFFF AND DUP2 MSTORE PUSH1 0x20 ADD SWAP1 DUP2 MSTORE PUSH1 0x20 ADD PUSH1 0x0 KECCAK256 PUSH1 0x1 PUSH1 0x2 DUP2 LT PUSH2 0x2195 JUMPI PUSH2 0x2194 PUSH2 0x6E8F JUMP JUMPDEST JUMPDEST ADD SLOAD PUSH1 0x0 PUSH2 0x4F1B JUMP JUMPDEST PUSH1 0x33 PUSH1 0x0 DUP6 PUSH20 0xFFFFFFFFFFFFFFFFFFFFFFFFFFFFFFFFFFFFFFFF AND PUSH20 0xFFFFFFFFFFFFFFFFFFFFFFFFFFFFFFFFFFFFFFFF AND DUP2 MSTORE PUSH1 0x20 ADD SWAP1 DUP2 MSTORE PUSH1 0x20 ADD PUSH1 0x0 KECCAK256 PUSH1 0x1 PUSH1 0x2 DUP2 LT PUSH2 0x21F0 JUMPI PUSH2 0x21EF PUSH2 0x6E8F JUMP JUMPDEST JUMPDEST ADD SLOAD PUSH2 0x21FC SWAP2 SWAP1 PUSH2 0x6D18 JUMP JUMPDEST PUSH1 0x33 PUSH1 0x0 DUP6 PUSH20 0xFFFFFFFFFFFFFFFFFFFFFFFFFFFFFFFFFFFFFFFF AND PUSH20 0xFFFFFFFFFFFFFFFFFFFFFFFFFFFFFFFFFFFFFFFF AND DUP2 MSTORE PUSH1 0x20 ADD SWAP1 DUP2 MSTORE PUSH1 0x20 ADD PUSH1 0x0 KECCAK256 PUSH1 0x1 PUSH1 0x2 DUP2 LT PUSH2 0x224E JUMPI PUSH2 0x224D PUSH2 0x6E8F JUMP JUMPDEST JUMPDEST ADD DUP2 SWAP1 SSTORE POP PUSH1 0x0 PUSH1 0x33 PUSH1 0x0 DUP6 PUSH20 0xFFFFFFFFFFFFFFFFFFFFFFFFFFFFFFFFFFFFFFFF AND PUSH20 0xFFFFFFFFFFFFFFFFFFFFFFFFFFFFFFFFFFFFFFFF AND DUP2 MSTORE PUSH1 0x20 ADD SWAP1 DUP2 MSTORE PUSH1 0x20 ADD PUSH1 0x0 KECCAK256 PUSH1 0x0 PUSH1 0x2 DUP2 LT PUSH2 0x22A7 JUMPI PUSH2 0x22A6 PUSH2 0x6E8F JUMP JUMPDEST JUMPDEST ADD DUP2 SWAP1 SSTORE POP JUMPDEST POP POP JUMPDEST PUSH1 0x1 PUSH1 0x2F DUP2 SWAP1 SSTORE POP POP POP POP JUMP JUMPDEST PUSH1 0x14 SLOAD DUP2 JUMP JUMPDEST PUSH1 0x1F SLOAD DUP2 JUMP JUMPDEST PUSH1 0x0 PUSH1 0x1 PUSH1 0x2F SLOAD EQ PUSH2 0x2310 JUMPI PUSH1 0x40 MLOAD PUSH32 0x8C379A000000000000000000000000000000000000000000000000000000000 DUP2 MSTORE PUSH1 0x4 ADD PUSH2 0x2307 SWAP1 PUSH2 0x6A0A JUMP JUMPDEST PUSH1 0x40 MLOAD DUP1 SWAP2 SUB SWAP1 REVERT JUMPDEST PUSH1 0x0 PUSH1 0x2F DUP2 SWAP1 SSTORE POP PUSH1 0x14 SLOAD DUP5 PUSH1 0x14 SLOAD PUSH2 0x2329 SWAP2 SWAP1 PUSH2 0x6AC6 JUMP JUMPDEST PUSH1 0xB SLOAD PUSH2 0x2336 SWAP2 SWAP1 PUSH2 0x6CBE JUMP JUMPDEST PUSH2 0x2340 SWAP2 SWAP1 PUSH2 0x6B1C JUMP JUMPDEST PUSH1 0xB DUP2 SWAP1 SSTORE POP PUSH1 0x13 SLOAD DUP4 PUSH1 0x13 SLOAD PUSH2 0x2357 SWAP2 SWAP1 PUSH2 0x6AC6 JUMP JUMPDEST PUSH1 0xC SLOAD PUSH2 0x2364 SWAP2 SWAP1 PUSH2 0x6CBE JUMP JUMPDEST PUSH2 0x236E SWAP2 SWAP1 PUSH2 0x6B1C JUMP JUMPDEST PUSH1 0xC DUP2 SWAP1 SSTORE POP PUSH1 0x14 SLOAD DUP5 PUSH1 0x29 SLOAD PUSH2 0x2385 SWAP2 SWAP1 PUSH2 0x6CBE JUMP JUMPDEST PUSH2 0x238F SWAP2 SWAP1 PUSH2 0x6B1C JUMP JUMPDEST SWAP1 POP DUP1 PUSH1 0x29 SLOAD PUSH2 0x239F SWAP2 SWAP1 PUSH2 0x6AC6 JUMP JUMPDEST PUSH1 0x29 DUP2 SWAP1 SSTORE POP DUP4 PUSH1 0x14 SLOAD PUSH2 0x23B3 SWAP2 SWAP1 PUSH2 0x6AC6 JUMP JUMPDEST PUSH1 0x14 DUP2 SWAP1 SSTORE POP DUP3 PUSH1 0x13 SLOAD PUSH2 0x23C7 SWAP2 SWAP1 PUSH2 0x6AC6 JUMP JUMPDEST PUSH1 0x13 DUP2 SWAP1 SSTORE POP PUSH2 0x23D7 DUP3 DUP3 PUSH2 0x52B0 JUMP JUMPDEST PUSH2 0x23DF PUSH2 0x53CA JUMP JUMPDEST PUSH1 0x1 PUSH1 0x2F DUP2 SWAP1 SSTORE POP SWAP4 SWAP3 POP POP POP JUMP JUMPDEST PUSH1 0x16 SLOAD DUP2 JUMP JUMPDEST PUSH1 0x0 DUP1 PUSH1 0x1 PUSH1 0x2F SLOAD EQ PUSH2 0x243C JUMPI PUSH1 0x40 MLOAD PUSH32 0x8C379A000000000000000000000000000000000000000000000000000000000 DUP2 MSTORE PUSH1 0x4 ADD PUSH2 0x2433 SWAP1 PUSH2 0x6A0A JUMP JUMPDEST PUSH1 0x40 MLOAD DUP1 SWAP2 SUB SWAP1 REVERT JUMPDEST PUSH1 0x0 PUSH1 0x2F DUP2 SWAP1 SSTORE POP PUSH1 0x29 SLOAD PUSH1 0x14 SLOAD DUP6 PUSH2 0x2455 SWAP2 SWAP1 PUSH2 0x6CBE JUMP JUMPDEST PUSH2 0x245F SWAP2 SWAP1 PUSH2 0x6B1C JUMP JUMPDEST SWAP2 POP PUSH1 0x29 SLOAD PUSH1 0x13 SLOAD DUP6 PUSH2 0x2472 SWAP2 SWAP1 PUSH2 0x6CBE JUMP JUMPDEST PUSH2 0x247C SWAP2 SWAP1 PUSH2 0x6B1C JUMP JUMPDEST SWAP1 POP PUSH1 0x14 SLOAD DUP3 PUSH1 0x14 SLOAD PUSH2 0x248F SWAP2 SWAP1 PUSH2 0x6D18 JUMP JUMPDEST PUSH1 0xB SLOAD PUSH2 0x249C SWAP2 SWAP1 PUSH2 0x6CBE JUMP JUMPDEST PUSH2 0x24A6 SWAP2 SWAP1 PUSH2 0x6B1C JUMP JUMPDEST PUSH1 0xB DUP2 SWAP1 SSTORE POP PUSH1 0x13 SLOAD DUP2 PUSH1 0x13 SLOAD PUSH2 0x24BD SWAP2 SWAP1 PUSH2 0x6D18 JUMP JUMPDEST PUSH1 0xC SLOAD PUSH2 0x24CA SWAP2 SWAP1 PUSH2 0x6CBE JUMP JUMPDEST PUSH2 0x24D4 SWAP2 SWAP1 PUSH2 0x6B1C JUMP JUMPDEST PUSH1 0xC DUP2 SWAP1 SSTORE POP DUP2 PUSH1 0x14 SLOAD PUSH2 0x24E8 SWAP2 SWAP1 PUSH2 0x6D18 JUMP JUMPDEST PUSH1 0x14 DUP2 SWAP1 SSTORE POP DUP1 PUSH1 0x13 SLOAD PUSH2 0x24FC SWAP2 SWAP1 PUSH2 0x6D18 JUMP JUMPDEST PUSH1 0x13 DUP2 SWAP1 SSTORE POP DUP4 PUSH1 0x29 SLOAD PUSH2 0x2510 SWAP2 SWAP1 PUSH2 0x6D18 JUMP JUMPDEST PUSH1 0x29 DUP2 SWAP1 SSTORE POP PUSH2 0x2520 ADDRESS DUP6 PUSH2 0x5511 JUMP JUMPDEST PUSH2 0x254D PUSH1 0x26 PUSH1 0x0 SWAP1 SLOAD SWAP1 PUSH2 0x100 EXP SWAP1 DIV PUSH20 0xFFFFFFFFFFFFFFFFFFFFFFFFFFFFFFFFFFFFFFFF AND DUP5 DUP5 PUSH2 0x562B JUMP JUMPDEST PUSH2 0x257A PUSH1 0x27 PUSH1 0x0 SWAP1 SLOAD SWAP1 PUSH2 0x100 EXP SWAP1 DIV PUSH20 0xFFFFFFFFFFFFFFFFFFFFFFFFFFFFFFFFFFFFFFFF AND DUP5 DUP4 PUSH2 0x562B JUMP JUMPDEST PUSH2 0x2582 PUSH2 0x53CA JUMP JUMPDEST PUSH1 0x1 PUSH1 0x2F DUP2 SWAP1 SSTORE POP SWAP3 POP SWAP3 SWAP1 POP JUMP JUMPDEST PUSH1 0x34 PUSH1 0x20 MSTORE DUP1 PUSH1 0x0 MSTORE PUSH1 0x40 PUSH1 0x0 KECCAK256 PUSH1 0x0 SWAP2 POP SWAP1 POP SLOAD DUP2 JUMP JUMPDEST PUSH1 0x1B SLOAD DUP2 JUMP JUMPDEST PUSH1 0x1 PUSH1 0x20 MSTORE DUP1 PUSH1 0x0 MSTORE PUSH1 0x40 PUSH1 0x0 KECCAK256 PUSH1 0x0 SWAP2 POP SWAP1 POP SLOAD DUP2 JUMP JUMPDEST PUSH1 0x12 SLOAD DUP2 JUMP JUMPDEST PUSH1 0x2C SLOAD DUP2 JUMP JUMPDEST PUSH1 0x32 PUSH1 0x20 MSTORE DUP2 PUSH1 0x0 MSTORE PUSH1 0x40 PUSH1 0x0 KECCAK256 PUSH1 0x20 MSTORE DUP1 PUSH1 0x0 MSTORE PUSH1 0x40 PUSH1 0x0 KECCAK256 PUSH1 0x0 SWAP2 POP SWAP2 POP POP DUP1 PUSH1 0x0 ADD PUSH1 0x0 SWAP1 SLOAD SWAP1 PUSH2 0x100 EXP SWAP1 DIV PUSH20 0xFFFFFFFFFFFFFFFFFFFFFFFFFFFFFFFFFFFFFFFF AND SWAP1 DUP1 PUSH1 0x0 ADD PUSH1 0x14 SWAP1 SLOAD SWAP1 PUSH2 0x100 EXP SWAP1 DIV PUSH1 0xFF AND SWAP1 DUP1 PUSH1 0x1 ADD SLOAD SWAP1 DUP1 PUSH1 0x2 ADD SLOAD SWAP1 POP DUP5 JUMP JUMPDEST PUSH1 0x4 PUSH1 0x20 MSTORE DUP1 PUSH1 0x0 MSTORE PUSH1 0x40 PUSH1 0x0 KECCAK256 PUSH1 0x0 SWAP2 POP SWAP1 POP SLOAD DUP2 JUMP JUMPDEST PUSH1 0x22 SLOAD DUP2 JUMP JUMPDEST PUSH1 0xA SLOAD DUP2 JUMP JUMPDEST PUSH1 0x6 SLOAD DUP2 JUMP JUMPDEST PUSH1 0xB SLOAD DUP2 JUMP JUMPDEST PUSH1 0x2A SLOAD DUP2 JUMP JUMPDEST PUSH1 0x0 PUSH1 0x26 PUSH1 0x0 SWAP1 SLOAD SWAP1 PUSH2 0x100 EXP SWAP1 DIV PUSH20 0xFFFFFFFFFFFFFFFFFFFFFFFFFFFFFFFFFFFFFFFF AND PUSH20 0xFFFFFFFFFFFFFFFFFFFFFFFFFFFFFFFFFFFFFFFF AND DUP4 PUSH20 0xFFFFFFFFFFFFFFFFFFFFFFFFFFFFFFFFFFFFFFFF AND EQ ISZERO PUSH2 0x2820 JUMPI PUSH1 0x30 PUSH1 0x0 PUSH1 0x2 DUP2 LT PUSH2 0x26E0 JUMPI PUSH2 0x26DF PUSH2 0x6E8F JUMP JUMPDEST JUMPDEST ADD SLOAD PUSH1 0x14 SLOAD DUP5 PUSH20 0xFFFFFFFFFFFFFFFFFFFFFFFFFFFFFFFFFFFFFFFF AND PUSH4 0x70A08231 ADDRESS PUSH1 0x40 MLOAD DUP3 PUSH4 0xFFFFFFFF AND PUSH1 0xE0 SHL DUP2 MSTORE PUSH1 0x4 ADD PUSH2 0x271E SWAP2 SWAP1 PUSH2 0x6743 JUMP JUMPDEST PUSH1 0x20 PUSH1 0x40 MLOAD DUP1 DUP4 SUB DUP2 DUP7 DUP1 EXTCODESIZE ISZERO DUP1 ISZERO PUSH2 0x2736 JUMPI PUSH1 0x0 DUP1 REVERT JUMPDEST POP GAS STATICCALL ISZERO DUP1 ISZERO PUSH2 0x274A JUMPI RETURNDATASIZE PUSH1 0x0 DUP1 RETURNDATACOPY RETURNDATASIZE PUSH1 0x0 REVERT JUMPDEST POP POP POP POP PUSH1 0x40 MLOAD RETURNDATASIZE PUSH1 0x1F NOT PUSH1 0x1F DUP3 ADD AND DUP3 ADD DUP1 PUSH1 0x40 MSTORE POP DUP2 ADD SWAP1 PUSH2 0x276E SWAP2 SWAP1 PUSH2 0x635E JUMP JUMPDEST PUSH2 0x2778 SWAP2 SWAP1 PUSH2 0x6D18 JUMP JUMPDEST PUSH2 0x2782 SWAP2 SWAP1 PUSH2 0x6D18 JUMP JUMPDEST SWAP1 POP DUP1 PUSH1 0x33 PUSH1 0x0 DUP5 PUSH20 0xFFFFFFFFFFFFFFFFFFFFFFFFFFFFFFFFFFFFFFFF AND PUSH20 0xFFFFFFFFFFFFFFFFFFFFFFFFFFFFFFFFFFFFFFFF AND DUP2 MSTORE PUSH1 0x20 ADD SWAP1 DUP2 MSTORE PUSH1 0x20 ADD PUSH1 0x0 KECCAK256 PUSH1 0x0 PUSH1 0x2 DUP2 LT PUSH2 0x27D7 JUMPI PUSH2 0x27D6 PUSH2 0x6E8F JUMP JUMPDEST JUMPDEST ADD PUSH1 0x0 DUP3 DUP3 SLOAD PUSH2 0x27E7 SWAP2 SWAP1 PUSH2 0x6AC6 JUMP JUMPDEST SWAP3 POP POP DUP2 SWAP1 SSTORE POP DUP1 PUSH1 0x30 PUSH1 0x0 PUSH1 0x2 DUP2 LT PUSH2 0x2804 JUMPI PUSH2 0x2803 PUSH2 0x6E8F JUMP JUMPDEST JUMPDEST ADD PUSH1 0x0 DUP3 DUP3 SLOAD PUSH2 0x2814 SWAP2 SWAP1 PUSH2 0x6AC6 JUMP JUMPDEST SWAP3 POP POP DUP2 SWAP1 SSTORE POP PUSH2 0x29C8 JUMP JUMPDEST PUSH1 0x27 PUSH1 0x0 SWAP1 SLOAD SWAP1 PUSH2 0x100 EXP SWAP1 DIV PUSH20 0xFFFFFFFFFFFFFFFFFFFFFFFFFFFFFFFFFFFFFFFF AND PUSH20 0xFFFFFFFFFFFFFFFFFFFFFFFFFFFFFFFFFFFFFFFF AND DUP4 PUSH20 0xFFFFFFFFFFFFFFFFFFFFFFFFFFFFFFFFFFFFFFFF AND EQ ISZERO PUSH2 0x29C7 JUMPI PUSH1 0x30 PUSH1 0x1 PUSH1 0x2 DUP2 LT PUSH2 0x288B JUMPI PUSH2 0x288A PUSH2 0x6E8F JUMP JUMPDEST JUMPDEST ADD SLOAD PUSH1 0x13 SLOAD DUP5 PUSH20 0xFFFFFFFFFFFFFFFFFFFFFFFFFFFFFFFFFFFFFFFF AND PUSH4 0x70A08231 ADDRESS PUSH1 0x40 MLOAD DUP3 PUSH4 0xFFFFFFFF AND PUSH1 0xE0 SHL DUP2 MSTORE PUSH1 0x4 ADD PUSH2 0x28C9 SWAP2 SWAP1 PUSH2 0x6743 JUMP JUMPDEST PUSH1 0x20 PUSH1 0x40 MLOAD DUP1 DUP4 SUB DUP2 DUP7 DUP1 EXTCODESIZE ISZERO DUP1 ISZERO PUSH2 0x28E1 JUMPI PUSH1 0x0 DUP1 REVERT JUMPDEST POP GAS STATICCALL ISZERO DUP1 ISZERO PUSH2 0x28F5 JUMPI RETURNDATASIZE PUSH1 0x0 DUP1 RETURNDATACOPY RETURNDATASIZE PUSH1 0x0 REVERT JUMPDEST POP POP POP POP PUSH1 0x40 MLOAD RETURNDATASIZE PUSH1 0x1F NOT PUSH1 0x1F DUP3 ADD AND DUP3 ADD DUP1 PUSH1 0x40 MSTORE POP DUP2 ADD SWAP1 PUSH2 0x2919 SWAP2 SWAP1 PUSH2 0x635E JUMP JUMPDEST PUSH2 0x2923 SWAP2 SWAP1 PUSH2 0x6D18 JUMP JUMPDEST PUSH2 0x292D SWAP2 SWAP1 PUSH2 0x6D18 JUMP JUMPDEST SWAP1 POP DUP1 PUSH1 0x33 PUSH1 0x0 DUP5 PUSH20 0xFFFFFFFFFFFFFFFFFFFFFFFFFFFFFFFFFFFFFFFF AND PUSH20 0xFFFFFFFFFFFFFFFFFFFFFFFFFFFFFFFFFFFFFFFF AND DUP2 MSTORE PUSH1 0x20 ADD SWAP1 DUP2 MSTORE PUSH1 0x20 ADD PUSH1 0x0 KECCAK256 PUSH1 0x1 PUSH1 0x2 DUP2 LT PUSH2 0x2982 JUMPI PUSH2 0x2981 PUSH2 0x6E8F JUMP JUMPDEST JUMPDEST ADD PUSH1 0x0 DUP3 DUP3 SLOAD PUSH2 0x2992 SWAP2 SWAP1 PUSH2 0x6AC6 JUMP JUMPDEST SWAP3 POP POP DUP2 SWAP1 SSTORE POP DUP1 PUSH1 0x30 PUSH1 0x1 PUSH1 0x2 DUP2 LT PUSH2 0x29AF JUMPI PUSH2 0x29AE PUSH2 0x6E8F JUMP JUMPDEST JUMPDEST ADD PUSH1 0x0 DUP3 DUP3 SLOAD PUSH2 0x29BF SWAP2 SWAP1 PUSH2 0x6AC6 JUMP JUMPDEST SWAP3 POP POP DUP2 SWAP1 SSTORE POP JUMPDEST JUMPDEST POP POP POP JUMP JUMPDEST PUSH1 0x9 SLOAD DUP2 JUMP JUMPDEST PUSH1 0x1 PUSH1 0x2F SLOAD EQ PUSH2 0x2A18 JUMPI PUSH1 0x40 MLOAD PUSH32 0x8C379A000000000000000000000000000000000000000000000000000000000 DUP2 MSTORE PUSH1 0x4 ADD PUSH2 0x2A0F SWAP1 PUSH2 0x6A0A JUMP JUMPDEST PUSH1 0x40 MLOAD DUP1 SWAP2 SUB SWAP1 REVERT JUMPDEST PUSH1 0x0 PUSH1 0x2F DUP2 SWAP1 SSTORE POP PUSH1 0x0 DUP4 DUP6 PUSH2 0x2A2E SWAP2 SWAP1 PUSH2 0x6CBE JUMP JUMPDEST EQ DUP1 ISZERO PUSH2 0x2A46 JUMPI POP PUSH1 0x0 DUP4 DUP6 PUSH2 0x2A44 SWAP2 SWAP1 PUSH2 0x6AC6 JUMP JUMPDEST GT JUMPDEST PUSH2 0x2A4F JUMPI PUSH1 0x0 DUP1 REVERT JUMPDEST PUSH2 0x2A57 PUSH2 0x42E4 JUMP JUMPDEST PUSH2 0x2ABB PUSH2 0x2A63 DUP3 PUSH2 0x40F0 JUMP JUMPDEST PUSH1 0x2C SLOAD DUP7 PUSH2 0x2A71 SWAP2 SWAP1 PUSH2 0x6CBE JUMP JUMPDEST PUSH2 0x2A7B SWAP2 SWAP1 PUSH2 0x6AC6 JUMP JUMPDEST PUSH2 0x2A84 DUP4 PUSH2 0x40F0 JUMP JUMPDEST PUSH1 0xE SLOAD PUSH1 0xD SLOAD PUSH1 0x17 SLOAD DUP9 PUSH2 0x2A98 SWAP2 SWAP1 PUSH2 0x6CBE JUMP JUMPDEST PUSH2 0x2AA2 SWAP2 SWAP1 PUSH2 0x6CBE JUMP JUMPDEST PUSH2 0x2AAC SWAP2 SWAP1 PUSH2 0x6B1C JUMP JUMPDEST PUSH2 0x2AB6 SWAP2 SWAP1 PUSH2 0x6AC6 JUMP JUMPDEST PUSH2 0x57B5 JUMP JUMPDEST PUSH1 0x28 SLOAD PUSH2 0x2AC7 DUP4 PUSH2 0x3FC4 JUMP JUMPDEST PUSH2 0x2AD0 DUP5 PUSH2 0x40F0 JUMP JUMPDEST PUSH2 0x2AD9 DUP6 PUSH2 0x41F5 JUMP JUMPDEST PUSH2 0x2AE3 SWAP2 SWAP1 PUSH2 0x6AC6 JUMP JUMPDEST PUSH2 0x2AED SWAP2 SWAP1 PUSH2 0x6D18 JUMP JUMPDEST PUSH2 0x2AF7 SWAP2 SWAP1 PUSH2 0x6B1C JUMP JUMPDEST GT PUSH2 0x2B37 JUMPI PUSH1 0x40 MLOAD PUSH32 0x8C379A000000000000000000000000000000000000000000000000000000000 DUP2 MSTORE PUSH1 0x4 ADD PUSH2 0x2B2E SWAP1 PUSH2 0x69EA JUMP JUMPDEST PUSH1 0x40 MLOAD DUP1 SWAP2 SUB SWAP1 REVERT JUMPDEST PUSH1 0x0 DUP1 PUSH1 0x1 ISZERO ISZERO DUP5 ISZERO ISZERO EQ ISZERO PUSH2 0x2CBB JUMPI PUSH1 0x0 DUP7 GT ISZERO PUSH2 0x2B65 JUMPI PUSH2 0x2B5B DUP7 PUSH1 0x1 PUSH2 0x4478 JUMP JUMPDEST SWAP2 POP DUP6 SWAP1 POP PUSH2 0x2B78 JUMP JUMPDEST DUP5 SWAP2 POP PUSH2 0x2B75 DUP6 PUSH1 0x0 PUSH1 0x1 PUSH2 0x4B86 JUMP JUMPDEST SWAP1 POP JUMPDEST PUSH1 0x19 SLOAD PUSH1 0x1B SLOAD DUP3 PUSH2 0x2B89 SWAP2 SWAP1 PUSH2 0x6CBE JUMP JUMPDEST PUSH2 0x2B93 SWAP2 SWAP1 PUSH2 0x6B1C JUMP JUMPDEST PUSH1 0x32 PUSH1 0x0 DUP6 PUSH20 0xFFFFFFFFFFFFFFFFFFFFFFFFFFFFFFFFFFFFFFFF AND PUSH20 0xFFFFFFFFFFFFFFFFFFFFFFFFFFFFFFFFFFFFFFFF AND DUP2 MSTORE PUSH1 0x20 ADD SWAP1 DUP2 MSTORE PUSH1 0x20 ADD PUSH1 0x0 KECCAK256 PUSH1 0x0 DUP1 ISZERO ISZERO ISZERO ISZERO DUP2 MSTORE PUSH1 0x20 ADD SWAP1 DUP2 MSTORE PUSH1 0x20 ADD PUSH1 0x0 KECCAK256 PUSH1 0x1 ADD PUSH1 0x0 DUP3 DUP3 SLOAD PUSH2 0x2BF9 SWAP2 SWAP1 PUSH2 0x6AC6 JUMP JUMPDEST SWAP3 POP POP DUP2 SWAP1 SSTORE POP DUP2 PUSH1 0x32 PUSH1 0x0 DUP6 PUSH20 0xFFFFFFFFFFFFFFFFFFFFFFFFFFFFFFFFFFFFFFFF AND PUSH20 0xFFFFFFFFFFFFFFFFFFFFFFFFFFFFFFFFFFFFFFFF AND DUP2 MSTORE PUSH1 0x20 ADD SWAP1 DUP2 MSTORE PUSH1 0x20 ADD PUSH1 0x0 KECCAK256 PUSH1 0x0 PUSH1 0x1 ISZERO ISZERO ISZERO ISZERO DUP2 MSTORE PUSH1 0x20 ADD SWAP1 DUP2 MSTORE PUSH1 0x20 ADD PUSH1 0x0 KECCAK256 PUSH1 0x2 ADD PUSH1 0x0 DUP3 DUP3 SLOAD PUSH2 0x2C68 SWAP2 SWAP1 PUSH2 0x6AC6 JUMP JUMPDEST SWAP3 POP POP DUP2 SWAP1 SSTORE POP PUSH1 0x1B SLOAD PUSH1 0x19 SLOAD PUSH1 0x1B SLOAD DUP4 PUSH2 0x2C83 SWAP2 SWAP1 PUSH2 0x6CBE JUMP JUMPDEST PUSH2 0x2C8D SWAP2 SWAP1 PUSH2 0x6B1C JUMP JUMPDEST PUSH2 0x2C97 SWAP2 SWAP1 PUSH2 0x6AC6 JUMP JUMPDEST PUSH1 0x1B DUP2 SWAP1 SSTORE POP DUP1 PUSH1 0x19 PUSH1 0x0 DUP3 DUP3 SLOAD PUSH2 0x2CAF SWAP2 SWAP1 PUSH2 0x6AC6 JUMP JUMPDEST SWAP3 POP POP DUP2 SWAP1 SSTORE POP PUSH2 0x2E2B JUMP JUMPDEST PUSH1 0x0 DUP7 GT ISZERO PUSH2 0x2CDB JUMPI DUP6 SWAP2 POP PUSH2 0x2CD4 DUP7 PUSH1 0x0 PUSH1 0x1 PUSH2 0x4F1B JUMP JUMPDEST SWAP1 POP PUSH2 0x2CEC JUMP JUMPDEST PUSH2 0x2CE6 DUP6 PUSH1 0x1 PUSH2 0x47FC JUMP JUMPDEST SWAP2 POP DUP5 SWAP1 POP JUMPDEST PUSH1 0x1A SLOAD PUSH1 0x1C SLOAD DUP3 PUSH2 0x2CFD SWAP2 SWAP1 PUSH2 0x6CBE JUMP JUMPDEST PUSH2 0x2D07 SWAP2 SWAP1 PUSH2 0x6B1C JUMP JUMPDEST PUSH1 0x32 PUSH1 0x0 DUP6 PUSH20 0xFFFFFFFFFFFFFFFFFFFFFFFFFFFFFFFFFFFFFFFF AND PUSH20 0xFFFFFFFFFFFFFFFFFFFFFFFFFFFFFFFFFFFFFFFF AND DUP2 MSTORE PUSH1 0x20 ADD SWAP1 DUP2 MSTORE PUSH1 0x20 ADD PUSH1 0x0 KECCAK256 PUSH1 0x0 PUSH1 0x1 ISZERO ISZERO ISZERO ISZERO DUP2 MSTORE PUSH1 0x20 ADD SWAP1 DUP2 MSTORE PUSH1 0x20 ADD PUSH1 0x0 KECCAK256 PUSH1 0x1 ADD PUSH1 0x0 DUP3 DUP3 SLOAD PUSH2 0x2D6E SWAP2 SWAP1 PUSH2 0x6AC6 JUMP JUMPDEST SWAP3 POP POP DUP2 SWAP1 SSTORE POP DUP2 PUSH1 0x32 PUSH1 0x0 DUP6 PUSH20 0xFFFFFFFFFFFFFFFFFFFFFFFFFFFFFFFFFFFFFFFF AND PUSH20 0xFFFFFFFFFFFFFFFFFFFFFFFFFFFFFFFFFFFFFFFF AND DUP2 MSTORE PUSH1 0x20 ADD SWAP1 DUP2 MSTORE PUSH1 0x20 ADD PUSH1 0x0 KECCAK256 PUSH1 0x0 DUP1 ISZERO ISZERO ISZERO ISZERO DUP2 MSTORE PUSH1 0x20 ADD SWAP1 DUP2 MSTORE PUSH1 0x20 ADD PUSH1 0x0 KECCAK256 PUSH1 0x2 ADD PUSH1 0x0 DUP3 DUP3 SLOAD PUSH2 0x2DDC SWAP2 SWAP1 PUSH2 0x6AC6 JUMP JUMPDEST SWAP3 POP POP DUP2 SWAP1 SSTORE POP PUSH1 0x1C SLOAD PUSH1 0x1A SLOAD PUSH1 0x1C SLOAD DUP4 PUSH2 0x2DF7 SWAP2 SWAP1 PUSH2 0x6CBE JUMP JUMPDEST PUSH2 0x2E01 SWAP2 SWAP1 PUSH2 0x6B1C JUMP JUMPDEST PUSH2 0x2E0B SWAP2 SWAP1 PUSH2 0x6AC6 JUMP JUMPDEST PUSH1 0x1C DUP2 SWAP1 SSTORE POP DUP1 PUSH1 0x1A PUSH1 0x0 DUP3 DUP3 SLOAD PUSH2 0x2E23 SWAP2 SWAP1 PUSH2 0x6AC6 JUMP JUMPDEST SWAP3 POP POP DUP2 SWAP1 SSTORE POP JUMPDEST POP POP PUSH1 0x1 PUSH1 0x2F DUP2 SWAP1 SSTORE POP POP POP POP POP JUMP JUMPDEST PUSH1 0x40 MLOAD DUP1 PUSH1 0x40 ADD PUSH1 0x40 MSTORE DUP1 PUSH1 0x6 DUP2 MSTORE PUSH1 0x20 ADD PUSH32 0x554E492D56320000000000000000000000000000000000000000000000000000 DUP2 MSTORE POP DUP2 JUMP JUMPDEST PUSH1 0x28 SLOAD DUP2 JUMP JUMPDEST PUSH1 0x1 PUSH1 0x2F SLOAD EQ PUSH2 0x2EBF JUMPI PUSH1 0x40 MLOAD PUSH32 0x8C379A000000000000000000000000000000000000000000000000000000000 DUP2 MSTORE PUSH1 0x4 ADD PUSH2 0x2EB6 SWAP1 PUSH2 0x6A0A JUMP JUMPDEST PUSH1 0x40 MLOAD DUP1 SWAP2 SUB SWAP1 REVERT JUMPDEST PUSH1 0x0 PUSH1 0x2F DUP2 SWAP1 SSTORE POP PUSH1 0x0 DUP3 EQ DUP1 PUSH2 0x2ED6 JUMPI POP PUSH1 0x0 DUP2 EQ JUMPDEST PUSH2 0x2F15 JUMPI PUSH1 0x40 MLOAD PUSH32 0x8C379A000000000000000000000000000000000000000000000000000000000 DUP2 MSTORE PUSH1 0x4 ADD PUSH2 0x2F0C SWAP1 PUSH2 0x690A JUMP JUMPDEST PUSH1 0x40 MLOAD DUP1 SWAP2 SUB SWAP1 REVERT JUMPDEST PUSH1 0x0 PUSH1 0x26 PUSH1 0x0 SWAP1 SLOAD SWAP1 PUSH2 0x100 EXP SWAP1 DIV PUSH20 0xFFFFFFFFFFFFFFFFFFFFFFFFFFFFFFFFFFFFFFFF AND PUSH20 0xFFFFFFFFFFFFFFFFFFFFFFFFFFFFFFFFFFFFFFFF AND PUSH4 0x70A08231 ADDRESS PUSH1 0x40 MLOAD DUP3 PUSH4 0xFFFFFFFF AND PUSH1 0xE0 SHL DUP2 MSTORE PUSH1 0x4 ADD PUSH2 0x2F72 SWAP2 SWAP1 PUSH2 0x6743 JUMP JUMPDEST PUSH1 0x20 PUSH1 0x40 MLOAD DUP1 DUP4 SUB DUP2 DUP7 DUP1 EXTCODESIZE ISZERO DUP1 ISZERO PUSH2 0x2F8A JUMPI PUSH1 0x0 DUP1 REVERT JUMPDEST POP GAS STATICCALL ISZERO DUP1 ISZERO PUSH2 0x2F9E JUMPI RETURNDATASIZE PUSH1 0x0 DUP1 RETURNDATACOPY RETURNDATASIZE PUSH1 0x0 REVERT JUMPDEST POP POP POP POP PUSH1 0x40 MLOAD RETURNDATASIZE PUSH1 0x1F NOT PUSH1 0x1F DUP3 ADD AND DUP3 ADD DUP1 PUSH1 0x40 MSTORE POP DUP2 ADD SWAP1 PUSH2 0x2FC2 SWAP2 SWAP1 PUSH2 0x635E JUMP JUMPDEST SWAP1 POP PUSH1 0x0 PUSH1 0x27 PUSH1 0x0 SWAP1 SLOAD SWAP1 PUSH2 0x100 EXP SWAP1 DIV PUSH20 0xFFFFFFFFFFFFFFFFFFFFFFFFFFFFFFFFFFFFFFFF AND PUSH20 0xFFFFFFFFFFFFFFFFFFFFFFFFFFFFFFFFFFFFFFFF AND PUSH4 0x70A08231 ADDRESS PUSH1 0x40 MLOAD DUP3 PUSH4 0xFFFFFFFF AND PUSH1 0xE0 SHL DUP2 MSTORE PUSH1 0x4 ADD PUSH2 0x3021 SWAP2 SWAP1 PUSH2 0x6743 JUMP JUMPDEST PUSH1 0x20 PUSH1 0x40 MLOAD DUP1 DUP4 SUB DUP2 DUP7 DUP1 EXTCODESIZE ISZERO DUP1 ISZERO PUSH2 0x3039 JUMPI PUSH1 0x0 DUP1 REVERT JUMPDEST POP GAS STATICCALL ISZERO DUP1 ISZERO PUSH2 0x304D JUMPI RETURNDATASIZE PUSH1 0x0 DUP1 RETURNDATACOPY RETURNDATASIZE PUSH1 0x0 REVERT JUMPDEST POP POP POP POP PUSH1 0x40 MLOAD RETURNDATASIZE PUSH1 0x1F NOT PUSH1 0x1F DUP3 ADD AND DUP3 ADD DUP1 PUSH1 0x40 MSTORE POP DUP2 ADD SWAP1 PUSH2 0x3071 SWAP2 SWAP1 PUSH2 0x635E JUMP JUMPDEST SWAP1 POP PUSH1 0x0 PUSH1 0x14 SLOAD DUP4 PUSH2 0x3083 SWAP2 SWAP1 PUSH2 0x6D18 JUMP JUMPDEST SWAP1 POP PUSH1 0x0 PUSH1 0x13 SLOAD DUP4 PUSH2 0x3095 SWAP2 SWAP1 PUSH2 0x6D18 JUMP JUMPDEST SWAP1 POP PUSH1 0x0 DUP3 GT DUP1 PUSH2 0x30A6 JUMPI POP PUSH1 0x0 DUP2 GT JUMPDEST PUSH2 0x30E5 JUMPI PUSH1 0x40 MLOAD PUSH32 0x8C379A000000000000000000000000000000000000000000000000000000000 DUP2 MSTORE PUSH1 0x4 ADD PUSH2 0x30DC SWAP1 PUSH2 0x68EA JUMP JUMPDEST PUSH1 0x40 MLOAD DUP1 SWAP2 SUB SWAP1 REVERT JUMPDEST PUSH1 0x0 DUP7 GT ISZERO PUSH2 0x3163 JUMPI PUSH2 0x3131 PUSH1 0x27 PUSH1 0x0 SWAP1 SLOAD SWAP1 PUSH2 0x100 EXP SWAP1 DIV PUSH20 0xFFFFFFFFFFFFFFFFFFFFFFFFFFFFFFFFFFFFFFFF AND DUP9 PUSH2 0x3121 DUP10 DUP6 PUSH1 0x0 PUSH2 0x4F1B JUMP JUMPDEST DUP5 PUSH2 0x312C SWAP2 SWAP1 PUSH2 0x6D18 JUMP JUMPDEST PUSH2 0x562B JUMP JUMPDEST PUSH2 0x315E PUSH1 0x26 PUSH1 0x0 SWAP1 SLOAD SWAP1 PUSH2 0x100 EXP SWAP1 DIV PUSH20 0xFFFFFFFFFFFFFFFFFFFFFFFFFFFFFFFFFFFFFFFF AND DUP9 DUP9 PUSH2 0x562B JUMP JUMPDEST PUSH2 0x3265 JUMP JUMPDEST PUSH1 0x0 DUP6 GT ISZERO PUSH2 0x31E1 JUMPI PUSH2 0x31AF PUSH1 0x26 PUSH1 0x0 SWAP1 SLOAD SWAP1 PUSH2 0x100 EXP SWAP1 DIV PUSH20 0xFFFFFFFFFFFFFFFFFFFFFFFFFFFFFFFFFFFFFFFF AND DUP9 PUSH2 0x319F DUP9 DUP7 PUSH1 0x0 PUSH2 0x4B86 JUMP JUMPDEST DUP6 PUSH2 0x31AA SWAP2 SWAP1 PUSH2 0x6D18 JUMP JUMPDEST PUSH2 0x562B JUMP JUMPDEST PUSH2 0x31DC PUSH1 0x27 PUSH1 0x0 SWAP1 SLOAD SWAP1 PUSH2 0x100 EXP SWAP1 DIV PUSH20 0xFFFFFFFFFFFFFFFFFFFFFFFFFFFFFFFFFFFFFFFF AND DUP9 DUP8 PUSH2 0x562B JUMP JUMPDEST PUSH2 0x3264 JUMP JUMPDEST PUSH1 0x0 DUP3 GT ISZERO PUSH2 0x3222 JUMPI PUSH2 0x3221 PUSH1 0x27 PUSH1 0x0 SWAP1 SLOAD SWAP1 PUSH2 0x100 EXP SWAP1 DIV PUSH20 0xFFFFFFFFFFFFFFFFFFFFFFFFFFFFFFFFFFFFFFFF AND DUP9 PUSH2 0x321C DUP6 PUSH1 0x0 PUSH2 0x4478 JUMP JUMPDEST PUSH2 0x562B JUMP JUMPDEST JUMPDEST PUSH1 0x0 DUP2 GT ISZERO PUSH2 0x3263 JUMPI PUSH2 0x3262 PUSH1 0x26 PUSH1 0x0 SWAP1 SLOAD SWAP1 PUSH2 0x100 EXP SWAP1 DIV PUSH20 0xFFFFFFFFFFFFFFFFFFFFFFFFFFFFFFFFFFFFFFFF AND DUP9 PUSH2 0x325D DUP5 PUSH1 0x0 PUSH2 0x47FC JUMP JUMPDEST PUSH2 0x562B JUMP JUMPDEST JUMPDEST JUMPDEST JUMPDEST POP POP POP POP PUSH1 0x1 PUSH1 0x2F DUP2 SWAP1 SSTORE POP POP POP POP JUMP JUMPDEST PUSH1 0x10 SLOAD DUP2 JUMP JUMPDEST PUSH1 0x0 PUSH2 0x3289 CALLER DUP5 DUP5 PUSH2 0x3E30 JUMP JUMPDEST PUSH1 0x1 SWAP1 POP SWAP3 SWAP2 POP POP JUMP JUMPDEST PUSH1 0x24 SLOAD DUP2 JUMP JUMPDEST PUSH1 0x27 PUSH1 0x0 SWAP1 SLOAD SWAP1 PUSH2 0x100 EXP SWAP1 DIV PUSH20 0xFFFFFFFFFFFFFFFFFFFFFFFFFFFFFFFFFFFFFFFF AND DUP2 JUMP JUMPDEST PUSH1 0x1 PUSH1 0x2F SLOAD EQ PUSH2 0x3304 JUMPI PUSH1 0x40 MLOAD PUSH32 0x8C379A000000000000000000000000000000000000000000000000000000000 DUP2 MSTORE PUSH1 0x4 ADD PUSH2 0x32FB SWAP1 PUSH2 0x6A0A JUMP JUMPDEST PUSH1 0x40 MLOAD DUP1 SWAP2 SUB SWAP1 REVERT JUMPDEST PUSH1 0x0 PUSH1 0x2F DUP2 SWAP1 SSTORE POP PUSH2 0x33F7 PUSH1 0x26 PUSH1 0x0 SWAP1 SLOAD SWAP1 PUSH2 0x100 EXP SWAP1 DIV PUSH20 0xFFFFFFFFFFFFFFFFFFFFFFFFFFFFFFFFFFFFFFFF AND DUP3 PUSH2 0x33F2 PUSH1 0x14 SLOAD PUSH1 0x26 PUSH1 0x0 SWAP1 SLOAD SWAP1 PUSH2 0x100 EXP SWAP1 DIV PUSH20 0xFFFFFFFFFFFFFFFFFFFFFFFFFFFFFFFFFFFFFFFF AND PUSH20 0xFFFFFFFFFFFFFFFFFFFFFFFFFFFFFFFFFFFFFFFF AND PUSH4 0x70A08231 ADDRESS PUSH1 0x40 MLOAD DUP3 PUSH4 0xFFFFFFFF AND PUSH1 0xE0 SHL DUP2 MSTORE PUSH1 0x4 ADD PUSH2 0x3394 SWAP2 SWAP1 PUSH2 0x6743 JUMP JUMPDEST PUSH1 0x20 PUSH1 0x40 MLOAD DUP1 DUP4 SUB DUP2 DUP7 DUP1 EXTCODESIZE ISZERO DUP1 ISZERO PUSH2 0x33AC JUMPI PUSH1 0x0 DUP1 REVERT JUMPDEST POP GAS STATICCALL ISZERO DUP1 ISZERO PUSH2 0x33C0 JUMPI RETURNDATASIZE PUSH1 0x0 DUP1 RETURNDATACOPY RETURNDATASIZE PUSH1 0x0 REVERT JUMPDEST POP POP POP POP PUSH1 0x40 MLOAD RETURNDATASIZE PUSH1 0x1F NOT PUSH1 0x1F DUP3 ADD AND DUP3 ADD DUP1 PUSH1 0x40 MSTORE POP DUP2 ADD SWAP1 PUSH2 0x33E4 SWAP2 SWAP1 PUSH2 0x635E JUMP JUMPDEST PUSH2 0x3DD7 SWAP1 SWAP2 SWAP1 PUSH4 0xFFFFFFFF AND JUMP JUMPDEST PUSH2 0x562B JUMP JUMPDEST PUSH2 0x34E2 PUSH1 0x27 PUSH1 0x0 SWAP1 SLOAD SWAP1 PUSH2 0x100 EXP SWAP1 DIV PUSH20 0xFFFFFFFFFFFFFFFFFFFFFFFFFFFFFFFFFFFFFFFF AND DUP3 PUSH2 0x34DD PUSH1 0x13 SLOAD PUSH1 0x27 PUSH1 0x0 SWAP1 SLOAD SWAP1 PUSH2 0x100 EXP SWAP1 DIV PUSH20 0xFFFFFFFFFFFFFFFFFFFFFFFFFFFFFFFFFFFFFFFF AND PUSH20 0xFFFFFFFFFFFFFFFFFFFFFFFFFFFFFFFFFFFFFFFF AND PUSH4 0x70A08231 ADDRESS PUSH1 0x40 MLOAD DUP3 PUSH4 0xFFFFFFFF AND PUSH1 0xE0 SHL DUP2 MSTORE PUSH1 0x4 ADD PUSH2 0x347F SWAP2 SWAP1 PUSH2 0x6743 JUMP JUMPDEST PUSH1 0x20 PUSH1 0x40 MLOAD DUP1 DUP4 SUB DUP2 DUP7 DUP1 EXTCODESIZE ISZERO DUP1 ISZERO PUSH2 0x3497 JUMPI PUSH1 0x0 DUP1 REVERT JUMPDEST POP GAS STATICCALL ISZERO DUP1 ISZERO PUSH2 0x34AB JUMPI RETURNDATASIZE PUSH1 0x0 DUP1 RETURNDATACOPY RETURNDATASIZE PUSH1 0x0 REVERT JUMPDEST POP POP POP POP PUSH1 0x40 MLOAD RETURNDATASIZE PUSH1 0x1F NOT PUSH1 0x1F DUP3 ADD AND DUP3 ADD DUP1 PUSH1 0x40 MSTORE POP DUP2 ADD SWAP1 PUSH2 0x34CF SWAP2 SWAP1 PUSH2 0x635E JUMP JUMPDEST PUSH2 0x3DD7 SWAP1 SWAP2 SWAP1 PUSH4 0xFFFFFFFF AND JUMP JUMPDEST PUSH2 0x562B JUMP JUMPDEST PUSH1 0x1 PUSH1 0x2F DUP2 SWAP1 SSTORE POP POP JUMP JUMPDEST PUSH1 0x1 PUSH1 0x2F SLOAD EQ PUSH2 0x3532 JUMPI PUSH1 0x40 MLOAD PUSH32 0x8C379A000000000000000000000000000000000000000000000000000000000 DUP2 MSTORE PUSH1 0x4 ADD PUSH2 0x3529 SWAP1 PUSH2 0x6A0A JUMP JUMPDEST PUSH1 0x40 MLOAD DUP1 SWAP2 SUB SWAP1 REVERT JUMPDEST PUSH1 0x0 PUSH1 0x2F DUP2 SWAP1 SSTORE POP PUSH2 0x3543 DUP3 PUSH2 0x3FC4 JUMP JUMPDEST PUSH2 0x354C DUP4 PUSH2 0x40F0 JUMP JUMPDEST PUSH2 0x3555 DUP5 PUSH2 0x41F5 JUMP JUMPDEST PUSH2 0x355F SWAP2 SWAP1 PUSH2 0x6AC6 JUMP JUMPDEST GT ISZERO DUP1 PUSH2 0x35AF JUMPI POP PUSH1 0x2A SLOAD PUSH2 0x3573 DUP4 PUSH2 0x40F0 JUMP JUMPDEST PUSH2 0x357D SWAP2 SWAP1 PUSH2 0x6CBE JUMP JUMPDEST PUSH2 0x3586 DUP4 PUSH2 0x3FC4 JUMP JUMPDEST PUSH2 0x358F DUP5 PUSH2 0x40F0 JUMP JUMPDEST PUSH2 0x3598 DUP6 PUSH2 0x41F5 JUMP JUMPDEST PUSH2 0x35A2 SWAP2 SWAP1 PUSH2 0x6AC6 JUMP JUMPDEST PUSH2 0x35AC SWAP2 SWAP1 PUSH2 0x6D18 JUMP JUMPDEST GT ISZERO JUMPDEST PUSH2 0x35EE JUMPI PUSH1 0x40 MLOAD PUSH32 0x8C379A000000000000000000000000000000000000000000000000000000000 DUP2 MSTORE PUSH1 0x4 ADD PUSH2 0x35E5 SWAP1 PUSH2 0x692A JUMP JUMPDEST PUSH1 0x40 MLOAD DUP1 SWAP2 SUB SWAP1 REVERT JUMPDEST PUSH2 0x367B PUSH1 0x26 PUSH1 0x0 SWAP1 SLOAD SWAP1 PUSH2 0x100 EXP SWAP1 DIV PUSH20 0xFFFFFFFFFFFFFFFFFFFFFFFFFFFFFFFFFFFFFFFF AND DUP3 PUSH1 0x2B SLOAD PUSH1 0x33 PUSH1 0x0 DUP8 PUSH20 0xFFFFFFFFFFFFFFFFFFFFFFFFFFFFFFFFFFFFFFFF AND PUSH20 0xFFFFFFFFFFFFFFFFFFFFFFFFFFFFFFFFFFFFFFFF AND DUP2 MSTORE PUSH1 0x20 ADD SWAP1 DUP2 MSTORE PUSH1 0x20 ADD PUSH1 0x0 KECCAK256 PUSH1 0x0 PUSH1 0x2 DUP2 LT PUSH2 0x366A JUMPI PUSH2 0x3669 PUSH2 0x6E8F JUMP JUMPDEST JUMPDEST ADD SLOAD PUSH2 0x3676 SWAP2 SWAP1 PUSH2 0x6CBE JUMP JUMPDEST PUSH2 0x562B JUMP JUMPDEST PUSH2 0x3708 PUSH1 0x27 PUSH1 0x0 SWAP1 SLOAD SWAP1 PUSH2 0x100 EXP SWAP1 DIV PUSH20 0xFFFFFFFFFFFFFFFFFFFFFFFFFFFFFFFFFFFFFFFF AND DUP3 PUSH1 0x2B SLOAD PUSH1 0x33 PUSH1 0x0 DUP8 PUSH20 0xFFFFFFFFFFFFFFFFFFFFFFFFFFFFFFFFFFFFFFFF AND PUSH20 0xFFFFFFFFFFFFFFFFFFFFFFFFFFFFFFFFFFFFFFFF AND DUP2 MSTORE PUSH1 0x20 ADD SWAP1 DUP2 MSTORE PUSH1 0x20 ADD PUSH1 0x0 KECCAK256 PUSH1 0x1 PUSH1 0x2 DUP2 LT PUSH2 0x36F7 JUMPI PUSH2 0x36F6 PUSH2 0x6E8F JUMP JUMPDEST JUMPDEST ADD SLOAD PUSH2 0x3703 SWAP2 SWAP1 PUSH2 0x6CBE JUMP JUMPDEST PUSH2 0x562B JUMP JUMPDEST PUSH1 0x33 PUSH1 0x0 DUP4 PUSH20 0xFFFFFFFFFFFFFFFFFFFFFFFFFFFFFFFFFFFFFFFF AND PUSH20 0xFFFFFFFFFFFFFFFFFFFFFFFFFFFFFFFFFFFFFFFF AND DUP2 MSTORE PUSH1 0x20 ADD SWAP1 DUP2 MSTORE PUSH1 0x20 ADD PUSH1 0x0 KECCAK256 PUSH1 0x0 PUSH2 0x3753 SWAP2 SWAP1 PUSH2 0x602E JUMP JUMPDEST PUSH1 0x0 PUSH1 0x32 PUSH1 0x0 DUP5 PUSH20 0xFFFFFFFFFFFFFFFFFFFFFFFFFFFFFFFFFFFFFFFF AND PUSH20 0xFFFFFFFFFFFFFFFFFFFFFFFFFFFFFFFFFFFFFFFF AND DUP2 MSTORE PUSH1 0x20 ADD SWAP1 DUP2 MSTORE PUSH1 0x20 ADD PUSH1 0x0 KECCAK256 PUSH1 0x0 DUP1 ISZERO ISZERO ISZERO ISZERO DUP2 MSTORE PUSH1 0x20 ADD SWAP1 DUP2 MSTORE PUSH1 0x20 ADD PUSH1 0x0 KECCAK256 PUSH1 0x1 ADD DUP2 SWAP1 SSTORE POP PUSH1 0x0 PUSH1 0x32 PUSH1 0x0 DUP5 PUSH20 0xFFFFFFFFFFFFFFFFFFFFFFFFFFFFFFFFFFFFFFFF AND PUSH20 0xFFFFFFFFFFFFFFFFFFFFFFFFFFFFFFFFFFFFFFFF AND DUP2 MSTORE PUSH1 0x20 ADD SWAP1 DUP2 MSTORE PUSH1 0x20 ADD PUSH1 0x0 KECCAK256 PUSH1 0x0 PUSH1 0x1 ISZERO ISZERO ISZERO ISZERO DUP2 MSTORE PUSH1 0x20 ADD SWAP1 DUP2 MSTORE PUSH1 0x20 ADD PUSH1 0x0 KECCAK256 PUSH1 0x1 ADD DUP2 SWAP1 SSTORE POP PUSH2 0x38C8 PUSH1 0x32 PUSH1 0x0 DUP5 PUSH20 0xFFFFFFFFFFFFFFFFFFFFFFFFFFFFFFFFFFFFFFFF AND PUSH20 0xFFFFFFFFFFFFFFFFFFFFFFFFFFFFFFFFFFFFFFFF AND DUP2 MSTORE PUSH1 0x20 ADD SWAP1 DUP2 MSTORE PUSH1 0x20 ADD PUSH1 0x0 KECCAK256 PUSH1 0x0 DUP1 ISZERO ISZERO ISZERO ISZERO DUP2 MSTORE PUSH1 0x20 ADD SWAP1 DUP2 MSTORE PUSH1 0x20 ADD PUSH1 0x0 KECCAK256 PUSH1 0x2 ADD SLOAD PUSH1 0x32 PUSH1 0x0 DUP6 PUSH20 0xFFFFFFFFFFFFFFFFFFFFFFFFFFFFFFFFFFFFFFFF AND PUSH20 0xFFFFFFFFFFFFFFFFFFFFFFFFFFFFFFFFFFFFFFFF AND DUP2 MSTORE PUSH1 0x20 ADD SWAP1 DUP2 MSTORE PUSH1 0x20 ADD PUSH1 0x0 KECCAK256 PUSH1 0x0 PUSH1 0x1 ISZERO ISZERO ISZERO ISZERO DUP2 MSTORE PUSH1 0x20 ADD SWAP1 DUP2 MSTORE PUSH1 0x20 ADD PUSH1 0x0 KECCAK256 PUSH1 0x2 ADD SLOAD DUP5 PUSH2 0x133B JUMP JUMPDEST PUSH1 0x1 PUSH1 0x2F DUP2 SWAP1 SSTORE POP POP POP JUMP JUMPDEST PUSH1 0x25 PUSH1 0x0 SWAP1 SLOAD SWAP1 PUSH2 0x100 EXP SWAP1 DIV PUSH20 0xFFFFFFFFFFFFFFFFFFFFFFFFFFFFFFFFFFFFFFFF AND DUP2 JUMP JUMPDEST PUSH1 0x20 PUSH1 0x0 SWAP1 SLOAD SWAP1 PUSH2 0x100 EXP SWAP1 DIV PUSH1 0xFF AND DUP2 JUMP JUMPDEST PUSH1 0x23 SLOAD DUP2 JUMP JUMPDEST PUSH1 0x25 PUSH1 0x0 SWAP1 SLOAD SWAP1 PUSH2 0x100 EXP SWAP1 DIV PUSH20 0xFFFFFFFFFFFFFFFFFFFFFFFFFFFFFFFFFFFFFFFF AND PUSH20 0xFFFFFFFFFFFFFFFFFFFFFFFFFFFFFFFFFFFFFFFF AND CALLER PUSH20 0xFFFFFFFFFFFFFFFFFFFFFFFFFFFFFFFFFFFFFFFF AND EQ PUSH2 0x39A3 JUMPI PUSH1 0x40 MLOAD PUSH32 0x8C379A000000000000000000000000000000000000000000000000000000000 DUP2 MSTORE PUSH1 0x4 ADD PUSH2 0x399A SWAP1 PUSH2 0x692A JUMP JUMPDEST PUSH1 0x40 MLOAD DUP1 SWAP2 SUB SWAP1 REVERT JUMPDEST DUP1 PUSH1 0x28 DUP2 SWAP1 SSTORE POP POP JUMP JUMPDEST PUSH1 0x18 SLOAD DUP2 JUMP JUMPDEST TIMESTAMP DUP5 LT ISZERO PUSH2 0x39F6 JUMPI PUSH1 0x40 MLOAD PUSH32 0x8C379A000000000000000000000000000000000000000000000000000000000 DUP2 MSTORE PUSH1 0x4 ADD PUSH2 0x39ED SWAP1 PUSH2 0x698A JUMP JUMPDEST PUSH1 0x40 MLOAD DUP1 SWAP2 SUB SWAP1 REVERT JUMPDEST PUSH1 0x0 PUSH1 0x3 SLOAD PUSH32 0x6E71EDAE12B1B97F4D1F60370FEF10105FA2FAAE0126114A169C64845D6126C9 PUSH1 0x0 SHL DUP10 DUP10 DUP10 PUSH1 0x4 PUSH1 0x0 DUP15 PUSH20 0xFFFFFFFFFFFFFFFFFFFFFFFFFFFFFFFFFFFFFFFF AND PUSH20 0xFFFFFFFFFFFFFFFFFFFFFFFFFFFFFFFFFFFFFFFF AND DUP2 MSTORE PUSH1 0x20 ADD SWAP1 DUP2 MSTORE PUSH1 0x20 ADD PUSH1 0x0 KECCAK256 PUSH1 0x0 DUP2 SLOAD DUP1 SWAP3 SWAP2 SWAP1 PUSH2 0x3A72 SWAP1 PUSH2 0x6DDE JUMP JUMPDEST SWAP2 SWAP1 POP SSTORE DUP11 PUSH1 0x40 MLOAD PUSH1 0x20 ADD PUSH2 0x3A8C SWAP7 SWAP6 SWAP5 SWAP4 SWAP3 SWAP2 SWAP1 PUSH2 0x6802 JUMP JUMPDEST PUSH1 0x40 MLOAD PUSH1 0x20 DUP2 DUP4 SUB SUB DUP2 MSTORE SWAP1 PUSH1 0x40 MSTORE DUP1 MLOAD SWAP1 PUSH1 0x20 ADD KECCAK256 PUSH1 0x40 MLOAD PUSH1 0x20 ADD PUSH2 0x3AB3 SWAP3 SWAP2 SWAP1 PUSH2 0x670C JUMP JUMPDEST PUSH1 0x40 MLOAD PUSH1 0x20 DUP2 DUP4 SUB SUB DUP2 MSTORE SWAP1 PUSH1 0x40 MSTORE DUP1 MLOAD SWAP1 PUSH1 0x20 ADD KECCAK256 SWAP1 POP PUSH1 0x0 PUSH1 0x1 DUP3 DUP7 DUP7 DUP7 PUSH1 0x40 MLOAD PUSH1 0x0 DUP2 MSTORE PUSH1 0x20 ADD PUSH1 0x40 MSTORE PUSH1 0x40 MLOAD PUSH2 0x3AF0 SWAP5 SWAP4 SWAP3 SWAP2 SWAP1 PUSH2 0x6863 JUMP JUMPDEST PUSH1 0x20 PUSH1 0x40 MLOAD PUSH1 0x20 DUP2 SUB SWAP1 DUP1 DUP5 SUB SWAP1 DUP6 GAS STATICCALL ISZERO DUP1 ISZERO PUSH2 0x3B12 JUMPI RETURNDATASIZE PUSH1 0x0 DUP1 RETURNDATACOPY RETURNDATASIZE PUSH1 0x0 REVERT JUMPDEST POP POP POP PUSH1 0x20 PUSH1 0x40 MLOAD SUB MLOAD SWAP1 POP PUSH1 0x0 PUSH20 0xFFFFFFFFFFFFFFFFFFFFFFFFFFFFFFFFFFFFFFFF AND DUP2 PUSH20 0xFFFFFFFFFFFFFFFFFFFFFFFFFFFFFFFFFFFFFFFF AND EQ ISZERO DUP1 ISZERO PUSH2 0x3B86 JUMPI POP DUP9 PUSH20 0xFFFFFFFFFFFFFFFFFFFFFFFFFFFFFFFFFFFFFFFF AND DUP2 PUSH20 0xFFFFFFFFFFFFFFFFFFFFFFFFFFFFFFFFFFFFFFFF AND EQ JUMPDEST PUSH2 0x3BC5 JUMPI PUSH1 0x40 MLOAD PUSH32 0x8C379A000000000000000000000000000000000000000000000000000000000 DUP2 MSTORE PUSH1 0x4 ADD PUSH2 0x3BBC SWAP1 PUSH2 0x694A JUMP JUMPDEST PUSH1 0x40 MLOAD DUP1 SWAP2 SUB SWAP1 REVERT JUMPDEST PUSH2 0x3BD0 DUP10 DUP10 DUP10 PUSH2 0x3CEC JUMP JUMPDEST POP POP POP POP POP POP POP POP POP JUMP JUMPDEST PUSH1 0x2 PUSH1 0x20 MSTORE DUP2 PUSH1 0x0 MSTORE PUSH1 0x40 PUSH1 0x0 KECCAK256 PUSH1 0x20 MSTORE DUP1 PUSH1 0x0 MSTORE PUSH1 0x40 PUSH1 0x0 KECCAK256 PUSH1 0x0 SWAP2 POP SWAP2 POP POP SLOAD DUP2 JUMP JUMPDEST PUSH1 0x2E SLOAD DUP2 JUMP JUMPDEST PUSH1 0xF SLOAD DUP2 JUMP JUMPDEST PUSH1 0x21 SLOAD DUP2 JUMP JUMPDEST PUSH1 0x11 SLOAD DUP2 JUMP JUMPDEST PUSH1 0x2B SLOAD DUP2 JUMP JUMPDEST PUSH1 0x8 SLOAD DUP2 JUMP JUMPDEST PUSH1 0x33 PUSH1 0x20 MSTORE DUP2 PUSH1 0x0 MSTORE PUSH1 0x40 PUSH1 0x0 KECCAK256 DUP2 PUSH1 0x2 DUP2 LT PUSH2 0x3C40 JUMPI PUSH1 0x0 DUP1 REVERT JUMPDEST ADD PUSH1 0x0 SWAP2 POP SWAP2 POP POP SLOAD DUP2 JUMP JUMPDEST PUSH1 0xD SLOAD DUP2 JUMP JUMPDEST PUSH1 0x25 PUSH1 0x0 SWAP1 SLOAD SWAP1 PUSH2 0x100 EXP SWAP1 DIV PUSH20 0xFFFFFFFFFFFFFFFFFFFFFFFFFFFFFFFFFFFFFFFF AND PUSH20 0xFFFFFFFFFFFFFFFFFFFFFFFFFFFFFFFFFFFFFFFF AND CALLER PUSH20 0xFFFFFFFFFFFFFFFFFFFFFFFFFFFFFFFFFFFFFFFF AND EQ PUSH2 0x3CE2 JUMPI PUSH1 0x40 MLOAD PUSH32 0x8C379A000000000000000000000000000000000000000000000000000000000 DUP2 MSTORE PUSH1 0x4 ADD PUSH2 0x3CD9 SWAP1 PUSH2 0x692A JUMP JUMPDEST PUSH1 0x40 MLOAD DUP1 SWAP2 SUB SWAP1 REVERT JUMPDEST DUP1 PUSH1 0x2A DUP2 SWAP1 SSTORE POP POP JUMP JUMPDEST DUP1 PUSH1 0x2 PUSH1 0x0 DUP6 PUSH20 0xFFFFFFFFFFFFFFFFFFFFFFFFFFFFFFFFFFFFFFFF AND PUSH20 0xFFFFFFFFFFFFFFFFFFFFFFFFFFFFFFFFFFFFFFFF AND DUP2 MSTORE PUSH1 0x20 ADD SWAP1 DUP2 MSTORE PUSH1 0x20 ADD PUSH1 0x0 KECCAK256 PUSH1 0x0 DUP5 PUSH20 0xFFFFFFFFFFFFFFFFFFFFFFFFFFFFFFFFFFFFFFFF AND PUSH20 0xFFFFFFFFFFFFFFFFFFFFFFFFFFFFFFFFFFFFFFFF AND DUP2 MSTORE PUSH1 0x20 ADD SWAP1 DUP2 MSTORE PUSH1 0x20 ADD PUSH1 0x0 KECCAK256 DUP2 SWAP1 SSTORE POP DUP2 PUSH20 0xFFFFFFFFFFFFFFFFFFFFFFFFFFFFFFFFFFFFFFFF AND DUP4 PUSH20 0xFFFFFFFFFFFFFFFFFFFFFFFFFFFFFFFFFFFFFFFF AND PUSH32 0x8C5BE1E5EBEC7D5BD14F71427D1E84F3DD0314C0F7B2291E5B200AC8C7C3B925 DUP4 PUSH1 0x40 MLOAD PUSH2 0x3DCA SWAP2 SWAP1 PUSH2 0x6A2A JUMP JUMPDEST PUSH1 0x40 MLOAD DUP1 SWAP2 SUB SWAP1 LOG3 POP POP POP JUMP JUMPDEST PUSH1 0x0 DUP3 DUP3 DUP5 PUSH2 0x3DE6 SWAP2 SWAP1 PUSH2 0x6D18 JUMP JUMPDEST SWAP2 POP DUP2 GT ISZERO PUSH2 0x3E2A JUMPI PUSH1 0x40 MLOAD PUSH32 0x8C379A000000000000000000000000000000000000000000000000000000000 DUP2 MSTORE PUSH1 0x4 ADD PUSH2 0x3E21 SWAP1 PUSH2 0x68CA JUMP JUMPDEST PUSH1 0x40 MLOAD DUP1 SWAP2 SUB SWAP1 REVERT JUMPDEST SWAP3 SWAP2 POP POP JUMP JUMPDEST PUSH2 0x3E82 DUP2 PUSH1 0x1 PUSH1 0x0 DUP7 PUSH20 0xFFFFFFFFFFFFFFFFFFFFFFFFFFFFFFFFFFFFFFFF AND PUSH20 0xFFFFFFFFFFFFFFFFFFFFFFFFFFFFFFFFFFFFFFFF AND DUP2 MSTORE PUSH1 0x20 ADD SWAP1 DUP2 MSTORE PUSH1 0x20 ADD PUSH1 0x0 KECCAK256 SLOAD PUSH2 0x3DD7 SWAP1 SWAP2 SWAP1 PUSH4 0xFFFFFFFF AND JUMP JUMPDEST PUSH1 0x1 PUSH1 0x0 DUP6 PUSH20 0xFFFFFFFFFFFFFFFFFFFFFFFFFFFFFFFFFFFFFFFF AND PUSH20 0xFFFFFFFFFFFFFFFFFFFFFFFFFFFFFFFFFFFFFFFF AND DUP2 MSTORE PUSH1 0x20 ADD SWAP1 DUP2 MSTORE PUSH1 0x20 ADD PUSH1 0x0 KECCAK256 DUP2 SWAP1 SSTORE POP PUSH2 0x3F17 DUP2 PUSH1 0x1 PUSH1 0x0 DUP6 PUSH20 0xFFFFFFFFFFFFFFFFFFFFFFFFFFFFFFFFFFFFFFFF AND PUSH20 0xFFFFFFFFFFFFFFFFFFFFFFFFFFFFFFFFFFFFFFFF AND DUP2 MSTORE PUSH1 0x20 ADD SWAP1 DUP2 MSTORE PUSH1 0x20 ADD PUSH1 0x0 KECCAK256 SLOAD PUSH2 0x57CE SWAP1 SWAP2 SWAP1 PUSH4 0xFFFFFFFF AND JUMP JUMPDEST PUSH1 0x1 PUSH1 0x0 DUP5 PUSH20 0xFFFFFFFFFFFFFFFFFFFFFFFFFFFFFFFFFFFFFFFF AND PUSH20 0xFFFFFFFFFFFFFFFFFFFFFFFFFFFFFFFFFFFFFFFF AND DUP2 MSTORE PUSH1 0x20 ADD SWAP1 DUP2 MSTORE PUSH1 0x20 ADD PUSH1 0x0 KECCAK256 DUP2 SWAP1 SSTORE POP DUP2 PUSH20 0xFFFFFFFFFFFFFFFFFFFFFFFFFFFFFFFFFFFFFFFF AND DUP4 PUSH20 0xFFFFFFFFFFFFFFFFFFFFFFFFFFFFFFFFFFFFFFFF AND PUSH32 0xDDF252AD1BE2C89B69C2B068FC378DAA952BA7F163C4A11628F55A4DF523B3EF DUP4 PUSH1 0x40 MLOAD PUSH2 0x3FB7 SWAP2 SWAP1 PUSH2 0x6A2A JUMP JUMPDEST PUSH1 0x40 MLOAD DUP1 SWAP2 SUB SWAP1 LOG3 POP POP POP JUMP JUMPDEST PUSH1 0x0 PUSH1 0x2C SLOAD PUSH1 0xE SLOAD PUSH1 0xD SLOAD PUSH1 0x17 SLOAD PUSH1 0x1B SLOAD PUSH1 0x19 SLOAD PUSH1 0x32 PUSH1 0x0 DUP10 PUSH20 0xFFFFFFFFFFFFFFFFFFFFFFFFFFFFFFFFFFFFFFFF AND PUSH20 0xFFFFFFFFFFFFFFFFFFFFFFFFFFFFFFFFFFFFFFFF AND DUP2 MSTORE PUSH1 0x20 ADD SWAP1 DUP2 MSTORE PUSH1 0x20 ADD PUSH1 0x0 KECCAK256 PUSH1 0x0 DUP1 ISZERO ISZERO ISZERO ISZERO DUP2 MSTORE PUSH1 0x20 ADD SWAP1 DUP2 MSTORE PUSH1 0x20 ADD PUSH1 0x0 KECCAK256 PUSH1 0x1 ADD SLOAD PUSH2 0x403A SWAP2 SWAP1 PUSH2 0x6CBE JUMP JUMPDEST PUSH2 0x4044 SWAP2 SWAP1 PUSH2 0x6B1C JUMP JUMPDEST PUSH2 0x404E SWAP2 SWAP1 PUSH2 0x6CBE JUMP JUMPDEST PUSH2 0x4058 SWAP2 SWAP1 PUSH2 0x6CBE JUMP JUMPDEST PUSH2 0x4062 SWAP2 SWAP1 PUSH2 0x6B1C JUMP JUMPDEST PUSH2 0x406C SWAP2 SWAP1 PUSH2 0x6B1C JUMP JUMPDEST PUSH1 0x1C SLOAD PUSH1 0x1A SLOAD PUSH1 0x32 PUSH1 0x0 DUP7 PUSH20 0xFFFFFFFFFFFFFFFFFFFFFFFFFFFFFFFFFFFFFFFF AND PUSH20 0xFFFFFFFFFFFFFFFFFFFFFFFFFFFFFFFFFFFFFFFF AND DUP2 MSTORE PUSH1 0x20 ADD SWAP1 DUP2 MSTORE PUSH1 0x20 ADD PUSH1 0x0 KECCAK256 PUSH1 0x0 PUSH1 0x1 ISZERO ISZERO ISZERO ISZERO DUP2 MSTORE PUSH1 0x20 ADD SWAP1 DUP2 MSTORE PUSH1 0x20 ADD PUSH1 0x0 KECCAK256 PUSH1 0x1 ADD SLOAD PUSH2 0x40D5 SWAP2 SWAP1 PUSH2 0x6CBE JUMP JUMPDEST PUSH2 0x40DF SWAP2 SWAP1 PUSH2 0x6B1C JUMP JUMPDEST PUSH2 0x40E9 SWAP2 SWAP1 PUSH2 0x6AC6 JUMP JUMPDEST SWAP1 POP SWAP2 SWAP1 POP JUMP JUMPDEST PUSH1 0x0 PUSH1 0x2C SLOAD PUSH1 0xE SLOAD PUSH1 0xD SLOAD PUSH1 0x17 SLOAD PUSH1 0x32 PUSH1 0x0 DUP8 PUSH20 0xFFFFFFFFFFFFFFFFFFFFFFFFFFFFFFFFFFFFFFFF AND PUSH20 0xFFFFFFFFFFFFFFFFFFFFFFFFFFFFFFFFFFFFFFFF AND DUP2 MSTORE PUSH1 0x20 ADD SWAP1 DUP2 MSTORE PUSH1 0x20 ADD PUSH1 0x0 KECCAK256 PUSH1 0x0 PUSH1 0x1 ISZERO ISZERO ISZERO ISZERO DUP2 MSTORE PUSH1 0x20 ADD SWAP1 DUP2 MSTORE PUSH1 0x20 ADD PUSH1 0x0 KECCAK256 PUSH1 0x2 ADD SLOAD PUSH2 0x4161 SWAP2 SWAP1 PUSH2 0x6CBE JUMP JUMPDEST PUSH2 0x416B SWAP2 SWAP1 PUSH2 0x6CBE JUMP JUMPDEST PUSH2 0x4175 SWAP2 SWAP1 PUSH2 0x6B1C JUMP JUMPDEST PUSH2 0x417F SWAP2 SWAP1 PUSH2 0x6B1C JUMP JUMPDEST PUSH1 0x2C SLOAD PUSH1 0x32 PUSH1 0x0 DUP6 PUSH20 0xFFFFFFFFFFFFFFFFFFFFFFFFFFFFFFFFFFFFFFFF AND PUSH20 0xFFFFFFFFFFFFFFFFFFFFFFFFFFFFFFFFFFFFFFFF AND DUP2 MSTORE PUSH1 0x20 ADD SWAP1 DUP2 MSTORE PUSH1 0x20 ADD PUSH1 0x0 KECCAK256 PUSH1 0x0 DUP1 ISZERO ISZERO ISZERO ISZERO DUP2 MSTORE PUSH1 0x20 ADD SWAP1 DUP2 MSTORE PUSH1 0x20 ADD PUSH1 0x0 KECCAK256 PUSH1 0x2 ADD SLOAD PUSH2 0x41E4 SWAP2 SWAP1 PUSH2 0x6CBE JUMP JUMPDEST PUSH2 0x41EE SWAP2 SWAP1 PUSH2 0x6AC6 JUMP JUMPDEST SWAP1 POP SWAP2 SWAP1 POP JUMP JUMPDEST PUSH1 0x0 PUSH1 0x2C SLOAD PUSH1 0xE SLOAD PUSH1 0xD SLOAD PUSH1 0x17 SLOAD PUSH1 0x33 PUSH1 0x0 DUP8 PUSH20 0xFFFFFFFFFFFFFFFFFFFFFFFFFFFFFFFFFFFFFFFF AND PUSH20 0xFFFFFFFFFFFFFFFFFFFFFFFFFFFFFFFFFFFFFFFF AND DUP2 MSTORE PUSH1 0x20 ADD SWAP1 DUP2 MSTORE PUSH1 0x20 ADD PUSH1 0x0 KECCAK256 PUSH1 0x1 PUSH1 0x2 DUP2 LT PUSH2 0x4255 JUMPI PUSH2 0x4254 PUSH2 0x6E8F JUMP JUMPDEST JUMPDEST ADD SLOAD PUSH2 0x4261 SWAP2 SWAP1 PUSH2 0x6CBE JUMP JUMPDEST PUSH2 0x426B SWAP2 SWAP1 PUSH2 0x6CBE JUMP JUMPDEST PUSH2 0x4275 SWAP2 SWAP1 PUSH2 0x6B1C JUMP JUMPDEST PUSH2 0x427F SWAP2 SWAP1 PUSH2 0x6B1C JUMP JUMPDEST PUSH1 0x33 PUSH1 0x0 DUP5 PUSH20 0xFFFFFFFFFFFFFFFFFFFFFFFFFFFFFFFFFFFFFFFF AND PUSH20 0xFFFFFFFFFFFFFFFFFFFFFFFFFFFFFFFFFFFFFFFF AND DUP2 MSTORE PUSH1 0x20 ADD SWAP1 DUP2 MSTORE PUSH1 0x20 ADD PUSH1 0x0 KECCAK256 PUSH1 0x0 PUSH1 0x2 DUP2 LT PUSH2 0x42D1 JUMPI PUSH2 0x42D0 PUSH2 0x6E8F JUMP JUMPDEST JUMPDEST ADD SLOAD PUSH2 0x42DD SWAP2 SWAP1 PUSH2 0x6AC6 JUMP JUMPDEST SWAP1 POP SWAP2 SWAP1 POP JUMP JUMPDEST PUSH1 0x0 DUP1 PUSH2 0x42EF PUSH2 0x5827 JUMP JUMPDEST SWAP2 POP SWAP2 POP PUSH1 0x0 PUSH1 0x1F SLOAD NUMBER PUSH2 0x4303 SWAP2 SWAP1 PUSH2 0x6D18 JUMP JUMPDEST SWAP1 POP NUMBER PUSH1 0x1F DUP2 SWAP1 SSTORE POP PUSH1 0x0 PUSH1 0xE SLOAD PUSH1 0xD SLOAD PUSH1 0x17 SLOAD PUSH2 0x4321 SWAP2 SWAP1 PUSH2 0x6CBE JUMP JUMPDEST PUSH2 0x432B SWAP2 SWAP1 PUSH2 0x6B1C JUMP JUMPDEST SWAP1 POP PUSH1 0x0 ISZERO ISZERO PUSH1 0x20 PUSH1 0x0 SWAP1 SLOAD SWAP1 PUSH2 0x100 EXP SWAP1 DIV PUSH1 0xFF AND ISZERO ISZERO EQ ISZERO PUSH2 0x43DC JUMPI PUSH1 0x2C SLOAD DUP3 PUSH1 0x1E SLOAD PUSH1 0x2C SLOAD PUSH2 0x435D SWAP2 SWAP1 PUSH2 0x6AC6 JUMP JUMPDEST PUSH1 0x19 SLOAD PUSH2 0x436A SWAP2 SWAP1 PUSH2 0x6CBE JUMP JUMPDEST PUSH2 0x4374 SWAP2 SWAP1 PUSH2 0x6CBE JUMP JUMPDEST PUSH2 0x437E SWAP2 SWAP1 PUSH2 0x6B1C JUMP JUMPDEST PUSH1 0x19 DUP2 SWAP1 SSTORE POP PUSH1 0x2C SLOAD PUSH1 0x2C SLOAD DUP3 DUP5 PUSH1 0x19 SLOAD PUSH1 0x1E SLOAD PUSH2 0x439C SWAP2 SWAP1 PUSH2 0x6CBE JUMP JUMPDEST PUSH2 0x43A6 SWAP2 SWAP1 PUSH2 0x6CBE JUMP JUMPDEST PUSH2 0x43B0 SWAP2 SWAP1 PUSH2 0x6CBE JUMP JUMPDEST PUSH2 0x43BA SWAP2 SWAP1 PUSH2 0x6B1C JUMP JUMPDEST PUSH2 0x43C4 SWAP2 SWAP1 PUSH2 0x6B1C JUMP JUMPDEST PUSH1 0x1A SLOAD PUSH2 0x43D1 SWAP2 SWAP1 PUSH2 0x6D18 JUMP JUMPDEST PUSH1 0x1A DUP2 SWAP1 SSTORE POP PUSH2 0x4451 JUMP JUMPDEST PUSH1 0x2C SLOAD DUP3 PUSH1 0x1E SLOAD PUSH1 0x2C SLOAD PUSH2 0x43F0 SWAP2 SWAP1 PUSH2 0x6AC6 JUMP JUMPDEST PUSH1 0x1A SLOAD PUSH2 0x43FD SWAP2 SWAP1 PUSH2 0x6CBE JUMP JUMPDEST PUSH2 0x4407 SWAP2 SWAP1 PUSH2 0x6CBE JUMP JUMPDEST PUSH2 0x4411 SWAP2 SWAP1 PUSH2 0x6B1C JUMP JUMPDEST PUSH1 0x1A DUP2 SWAP1 SSTORE POP DUP1 DUP3 PUSH1 0x1A SLOAD PUSH1 0x1E SLOAD PUSH2 0x4429 SWAP2 SWAP1 PUSH2 0x6CBE JUMP JUMPDEST PUSH2 0x4433 SWAP2 SWAP1 PUSH2 0x6CBE JUMP JUMPDEST PUSH2 0x443D SWAP2 SWAP1 PUSH2 0x6B1C JUMP JUMPDEST PUSH1 0x19 SLOAD PUSH2 0x444A SWAP2 SWAP1 PUSH2 0x6D18 JUMP JUMPDEST PUSH1 0x19 DUP2 SWAP1 SSTORE POP JUMPDEST DUP4 PUSH1 0x1E DUP2 SWAP1 SSTORE POP DUP3 PUSH1 0x20 PUSH1 0x0 PUSH2 0x100 EXP DUP2 SLOAD DUP2 PUSH1 0xFF MUL NOT AND SWAP1 DUP4 ISZERO ISZERO MUL OR SWAP1 SSTORE POP POP POP POP POP JUMP JUMPDEST PUSH1 0x0 PUSH1 0x1 PUSH1 0x2F SLOAD EQ PUSH2 0x44BF JUMPI PUSH1 0x40 MLOAD PUSH32 0x8C379A000000000000000000000000000000000000000000000000000000000 DUP2 MSTORE PUSH1 0x4 ADD PUSH2 0x44B6 SWAP1 PUSH2 0x6A0A JUMP JUMPDEST PUSH1 0x40 MLOAD DUP1 SWAP2 SUB SWAP1 REVERT JUMPDEST PUSH1 0x0 PUSH1 0x2F DUP2 SWAP1 SSTORE POP PUSH1 0x0 DUP4 SWAP1 POP PUSH1 0x0 PUSH1 0x1 SWAP1 POP JUMPDEST PUSH1 0x1 ISZERO ISZERO DUP2 ISZERO ISZERO EQ ISZERO PUSH2 0x47EC JUMPI PUSH1 0x0 PUSH1 0x2C SLOAD PUSH1 0x18 SLOAD PUSH1 0x9 SLOAD PUSH2 0x44F5 SWAP2 SWAP1 PUSH2 0x6CBE JUMP JUMPDEST PUSH2 0x44FF SWAP2 SWAP1 PUSH2 0x6B1C JUMP JUMPDEST SWAP1 POP PUSH1 0x0 PUSH2 0x4515 PUSH1 0x5 SLOAD PUSH1 0x6 SLOAD PUSH1 0x7 SLOAD DUP6 PUSH2 0x59EF JUMP JUMPDEST SWAP1 POP PUSH2 0x4526 DUP3 PUSH1 0xB SLOAD PUSH1 0xE SLOAD PUSH2 0x5AEF JUMP JUMPDEST DUP5 GT ISZERO PUSH2 0x46E5 JUMPI PUSH2 0x453C PUSH1 0xC SLOAD DUP3 PUSH1 0xD SLOAD PUSH2 0x5AEF JUMP JUMPDEST DUP6 PUSH2 0x4547 SWAP2 SWAP1 PUSH2 0x6AC6 JUMP JUMPDEST SWAP5 POP PUSH2 0x4558 DUP3 PUSH1 0xB SLOAD PUSH1 0xE SLOAD PUSH2 0x5AEF JUMP JUMPDEST DUP5 PUSH2 0x4563 SWAP2 SWAP1 PUSH2 0x6D18 JUMP JUMPDEST SWAP4 POP PUSH1 0x1 ISZERO ISZERO DUP7 ISZERO ISZERO EQ ISZERO PUSH2 0x459E JUMPI PUSH2 0x4581 PUSH1 0xC SLOAD DUP3 PUSH1 0xD SLOAD PUSH2 0x5AEF JUMP JUMPDEST PUSH1 0xF PUSH1 0x0 DUP3 DUP3 SLOAD PUSH2 0x4592 SWAP2 SWAP1 PUSH2 0x6AC6 JUMP JUMPDEST SWAP3 POP POP DUP2 SWAP1 SSTORE POP PUSH2 0x45ED JUMP JUMPDEST PUSH2 0x45AD DUP3 PUSH1 0xB SLOAD PUSH1 0xE SLOAD PUSH2 0x5AEF JUMP JUMPDEST PUSH1 0x14 PUSH1 0x0 DUP3 DUP3 SLOAD PUSH2 0x45BE SWAP2 SWAP1 PUSH2 0x6AC6 JUMP JUMPDEST SWAP3 POP POP DUP2 SWAP1 SSTORE POP PUSH2 0x45D4 PUSH1 0xC SLOAD DUP3 PUSH1 0xD SLOAD PUSH2 0x5AEF JUMP JUMPDEST PUSH1 0x13 PUSH1 0x0 DUP3 DUP3 SLOAD PUSH2 0x45E5 SWAP2 SWAP1 PUSH2 0x6D18 JUMP JUMPDEST SWAP3 POP POP DUP2 SWAP1 SSTORE POP JUMPDEST DUP1 PUSH1 0xA SLOAD PUSH1 0xD SLOAD PUSH2 0x45FE SWAP2 SWAP1 PUSH2 0x6CBE JUMP JUMPDEST PUSH2 0x4608 SWAP2 SWAP1 PUSH2 0x6B1C JUMP JUMPDEST PUSH1 0xD DUP2 SWAP1 SSTORE POP DUP2 PUSH1 0x9 SLOAD PUSH1 0xE SLOAD PUSH2 0x461F SWAP2 SWAP1 PUSH2 0x6CBE JUMP JUMPDEST PUSH2 0x4629 SWAP2 SWAP1 PUSH2 0x6B1C JUMP JUMPDEST PUSH1 0xE DUP2 SWAP1 SSTORE POP PUSH1 0xA SLOAD DUP3 PUSH1 0x9 SLOAD DUP4 PUSH2 0x464A PUSH1 0x5 SLOAD PUSH1 0x6 SLOAD PUSH1 0x7 SLOAD DUP10 DUP10 PUSH2 0x5B24 JUMP JUMPDEST PUSH2 0x4654 SWAP2 SWAP1 PUSH2 0x6CBE JUMP JUMPDEST PUSH2 0x465E SWAP2 SWAP1 PUSH2 0x6CBE JUMP JUMPDEST PUSH2 0x4668 SWAP2 SWAP1 PUSH2 0x6B1C JUMP JUMPDEST PUSH2 0x4672 SWAP2 SWAP1 PUSH2 0x6B1C JUMP JUMPDEST PUSH1 0x17 DUP2 SWAP1 SSTORE POP PUSH1 0x9 SLOAD PUSH1 0xB DUP2 SWAP1 SSTORE POP PUSH1 0xA SLOAD PUSH1 0xC DUP2 SWAP1 SSTORE POP PUSH2 0x469E PUSH1 0xB SLOAD PUSH1 0xC SLOAD PUSH1 0x7 SLOAD PUSH1 0x17 SLOAD PUSH2 0x5C18 JUMP JUMPDEST PUSH1 0x5 DUP2 SWAP1 SSTORE POP PUSH1 0x5 SLOAD PUSH1 0x2C SLOAD PUSH1 0x2 PUSH2 0x46B6 SWAP2 SWAP1 PUSH2 0x6CBE JUMP JUMPDEST PUSH2 0x46C0 SWAP2 SWAP1 PUSH2 0x6D18 JUMP JUMPDEST PUSH1 0x6 DUP2 SWAP1 SSTORE POP PUSH2 0x46CE PUSH2 0x53CA JUMP JUMPDEST PUSH1 0x9 SLOAD PUSH1 0xB DUP2 SWAP1 SSTORE POP PUSH1 0xA SLOAD PUSH1 0xC DUP2 SWAP1 SSTORE POP PUSH2 0x47E5 JUMP JUMPDEST PUSH1 0xB SLOAD PUSH1 0x15 DUP2 SWAP1 SSTORE POP PUSH1 0xC SLOAD PUSH1 0x16 DUP2 SWAP1 SSTORE POP PUSH1 0x2C SLOAD PUSH1 0xE SLOAD DUP6 PUSH2 0x4708 SWAP2 SWAP1 PUSH2 0x6CBE JUMP JUMPDEST PUSH2 0x4712 SWAP2 SWAP1 PUSH2 0x6B1C JUMP JUMPDEST PUSH1 0xB PUSH1 0x0 DUP3 DUP3 SLOAD PUSH2 0x4723 SWAP2 SWAP1 PUSH2 0x6AC6 JUMP JUMPDEST SWAP3 POP POP DUP2 SWAP1 SSTORE POP PUSH2 0x473E PUSH1 0x5 SLOAD PUSH1 0x6 SLOAD PUSH1 0x7 SLOAD PUSH1 0xB SLOAD PUSH2 0x59EF JUMP JUMPDEST PUSH1 0xC DUP2 SWAP1 SSTORE POP PUSH2 0x4755 PUSH1 0x16 SLOAD PUSH1 0xC SLOAD PUSH1 0xD SLOAD PUSH2 0x5AEF JUMP JUMPDEST DUP6 PUSH2 0x4760 SWAP2 SWAP1 PUSH2 0x6AC6 JUMP JUMPDEST SWAP5 POP PUSH1 0x1 ISZERO ISZERO DUP7 ISZERO ISZERO EQ ISZERO PUSH2 0x479D JUMPI PUSH2 0x4780 PUSH1 0x16 SLOAD PUSH1 0xC SLOAD PUSH1 0xD SLOAD PUSH2 0x5AEF JUMP JUMPDEST PUSH1 0xF PUSH1 0x0 DUP3 DUP3 SLOAD PUSH2 0x4791 SWAP2 SWAP1 PUSH2 0x6AC6 JUMP JUMPDEST SWAP3 POP POP DUP2 SWAP1 SSTORE POP PUSH2 0x47E0 JUMP JUMPDEST DUP4 PUSH1 0x14 PUSH1 0x0 DUP3 DUP3 SLOAD PUSH2 0x47AF SWAP2 SWAP1 PUSH2 0x6AC6 JUMP JUMPDEST SWAP3 POP POP DUP2 SWAP1 SSTORE POP PUSH2 0x47C7 PUSH1 0x16 SLOAD PUSH1 0xC SLOAD PUSH1 0xD SLOAD PUSH2 0x5AEF JUMP JUMPDEST PUSH1 0x13 PUSH1 0x0 DUP3 DUP3 SLOAD PUSH2 0x47D8 SWAP2 SWAP1 PUSH2 0x6D18 JUMP JUMPDEST SWAP3 POP POP DUP2 SWAP1 SSTORE POP JUMPDEST PUSH1 0x0 SWAP3 POP JUMPDEST POP POP PUSH2 0x44D3 JUMP JUMPDEST POP POP PUSH1 0x1 PUSH1 0x2F DUP2 SWAP1 SSTORE POP SWAP3 SWAP2 POP POP JUMP JUMPDEST PUSH1 0x0 PUSH1 0x1 PUSH1 0x2F SLOAD EQ PUSH2 0x4843 JUMPI PUSH1 0x40 MLOAD PUSH32 0x8C379A000000000000000000000000000000000000000000000000000000000 DUP2 MSTORE PUSH1 0x4 ADD PUSH2 0x483A SWAP1 PUSH2 0x6A0A JUMP JUMPDEST PUSH1 0x40 MLOAD DUP1 SWAP2 SUB SWAP1 REVERT JUMPDEST PUSH1 0x0 PUSH1 0x2F DUP2 SWAP1 SSTORE POP PUSH1 0x0 DUP4 SWAP1 POP PUSH1 0x0 PUSH1 0x1 SWAP1 POP JUMPDEST PUSH1 0x1 ISZERO ISZERO DUP2 ISZERO ISZERO EQ ISZERO PUSH2 0x4B76 JUMPI PUSH1 0x0 PUSH1 0x2C SLOAD PUSH1 0x18 SLOAD PUSH1 0x9 SLOAD PUSH2 0x4879 SWAP2 SWAP1 PUSH2 0x6CBE JUMP JUMPDEST PUSH2 0x4883 SWAP2 SWAP1 PUSH2 0x6B1C JUMP JUMPDEST SWAP1 POP PUSH1 0x0 PUSH2 0x4899 PUSH1 0x5 SLOAD PUSH1 0x6 SLOAD PUSH1 0x7 SLOAD DUP6 PUSH2 0x5D52 JUMP JUMPDEST SWAP1 POP PUSH2 0x48AA DUP3 PUSH1 0xC SLOAD PUSH1 0xD SLOAD PUSH2 0x5AEF JUMP JUMPDEST DUP5 GT ISZERO PUSH2 0x4A6F JUMPI PUSH1 0x0 PUSH2 0x48C6 PUSH1 0x5 SLOAD PUSH1 0x6 SLOAD PUSH1 0x7 SLOAD DUP6 DUP8 PUSH2 0x5B24 JUMP JUMPDEST SWAP1 POP PUSH2 0x48D7 PUSH1 0xB SLOAD DUP4 PUSH1 0xE SLOAD PUSH2 0x5AEF JUMP JUMPDEST DUP7 PUSH2 0x48E2 SWAP2 SWAP1 PUSH2 0x6AC6 JUMP JUMPDEST SWAP6 POP PUSH2 0x48F3 DUP4 PUSH1 0xC SLOAD PUSH1 0xD SLOAD PUSH2 0x5AEF JUMP JUMPDEST DUP6 PUSH2 0x48FE SWAP2 SWAP1 PUSH2 0x6D18 JUMP JUMPDEST SWAP5 POP PUSH1 0x1 ISZERO ISZERO DUP8 ISZERO ISZERO EQ ISZERO PUSH2 0x4939 JUMPI PUSH2 0x491C PUSH1 0xB SLOAD DUP4 PUSH1 0xE SLOAD PUSH2 0x5AEF JUMP JUMPDEST PUSH1 0x10 PUSH1 0x0 DUP3 DUP3 SLOAD PUSH2 0x492D SWAP2 SWAP1 PUSH2 0x6AC6 JUMP JUMPDEST SWAP3 POP POP DUP2 SWAP1 SSTORE POP PUSH2 0x4988 JUMP JUMPDEST PUSH2 0x4948 PUSH1 0xB SLOAD DUP4 PUSH1 0xE SLOAD PUSH2 0x5AEF JUMP JUMPDEST PUSH1 0x14 PUSH1 0x0 DUP3 DUP3 SLOAD PUSH2 0x4959 SWAP2 SWAP1 PUSH2 0x6D18 JUMP JUMPDEST SWAP3 POP POP DUP2 SWAP1 SSTORE POP PUSH2 0x496F DUP4 PUSH1 0xC SLOAD PUSH1 0xD SLOAD PUSH2 0x5AEF JUMP JUMPDEST PUSH1 0x13 PUSH1 0x0 DUP3 DUP3 SLOAD PUSH2 0x4980 SWAP2 SWAP1 PUSH2 0x6AC6 JUMP JUMPDEST SWAP3 POP POP DUP2 SWAP1 SSTORE POP JUMPDEST DUP3 PUSH1 0xA SLOAD PUSH1 0xD SLOAD PUSH2 0x4999 SWAP2 SWAP1 PUSH2 0x6CBE JUMP JUMPDEST PUSH2 0x49A3 SWAP2 SWAP1 PUSH2 0x6B1C JUMP JUMPDEST PUSH1 0xD DUP2 SWAP1 SSTORE POP DUP2 PUSH1 0x9 SLOAD PUSH1 0xE SLOAD PUSH2 0x49BA SWAP2 SWAP1 PUSH2 0x6CBE JUMP JUMPDEST PUSH2 0x49C4 SWAP2 SWAP1 PUSH2 0x6B1C JUMP JUMPDEST PUSH1 0xE DUP2 SWAP1 SSTORE POP PUSH1 0xA SLOAD DUP3 PUSH1 0x9 SLOAD DUP6 DUP5 PUSH2 0x49DD SWAP2 SWAP1 PUSH2 0x6CBE JUMP JUMPDEST PUSH2 0x49E7 SWAP2 SWAP1 PUSH2 0x6CBE JUMP JUMPDEST PUSH2 0x49F1 SWAP2 SWAP1 PUSH2 0x6B1C JUMP JUMPDEST PUSH2 0x49FB SWAP2 SWAP1 PUSH2 0x6B1C JUMP JUMPDEST PUSH1 0x17 DUP2 SWAP1 SSTORE POP PUSH1 0x9 SLOAD PUSH1 0xB DUP2 SWAP1 SSTORE POP PUSH1 0xA SLOAD PUSH1 0xC DUP2 SWAP1 SSTORE POP PUSH2 0x4A27 PUSH1 0xB SLOAD PUSH1 0xC SLOAD PUSH1 0x7 SLOAD PUSH1 0x17 SLOAD PUSH2 0x5C18 JUMP JUMPDEST PUSH1 0x5 DUP2 SWAP1 SSTORE POP PUSH1 0x5 SLOAD PUSH1 0x2C SLOAD PUSH1 0x2 PUSH2 0x4A3F SWAP2 SWAP1 PUSH2 0x6CBE JUMP JUMPDEST PUSH2 0x4A49 SWAP2 SWAP1 PUSH2 0x6D18 JUMP JUMPDEST PUSH1 0x6 DUP2 SWAP1 SSTORE POP PUSH2 0x4A57 PUSH2 0x53CA JUMP JUMPDEST PUSH1 0x9 SLOAD PUSH1 0xB DUP2 SWAP1 SSTORE POP PUSH1 0xA SLOAD PUSH1 0xC DUP2 SWAP1 SSTORE POP POP PUSH2 0x4B6F JUMP JUMPDEST PUSH1 0xB SLOAD PUSH1 0x15 DUP2 SWAP1 SSTORE POP PUSH1 0xC SLOAD PUSH1 0x16 DUP2 SWAP1 SSTORE POP PUSH1 0x2C SLOAD PUSH1 0xD SLOAD DUP6 PUSH2 0x4A92 SWAP2 SWAP1 PUSH2 0x6CBE JUMP JUMPDEST PUSH2 0x4A9C SWAP2 SWAP1 PUSH2 0x6B1C JUMP JUMPDEST PUSH1 0xC PUSH1 0x0 DUP3 DUP3 SLOAD PUSH2 0x4AAD SWAP2 SWAP1 PUSH2 0x6AC6 JUMP JUMPDEST SWAP3 POP POP DUP2 SWAP1 SSTORE POP PUSH2 0x4AC8 PUSH1 0x5 SLOAD PUSH1 0x6 SLOAD PUSH1 0x7 SLOAD PUSH1 0xC SLOAD PUSH2 0x5D52 JUMP JUMPDEST PUSH1 0xB DUP2 SWAP1 SSTORE POP PUSH2 0x4ADF PUSH1 0x15 SLOAD PUSH1 0xB SLOAD PUSH1 0xE SLOAD PUSH2 0x5AEF JUMP JUMPDEST DUP6 PUSH2 0x4AEA SWAP2 SWAP1 PUSH2 0x6AC6 JUMP JUMPDEST SWAP5 POP PUSH1 0x1 ISZERO ISZERO DUP7 ISZERO ISZERO EQ ISZERO PUSH2 0x4B27 JUMPI PUSH2 0x4B0A PUSH1 0x15 SLOAD PUSH1 0xB SLOAD PUSH1 0xE SLOAD PUSH2 0x5AEF JUMP JUMPDEST PUSH1 0x10 PUSH1 0x0 DUP3 DUP3 SLOAD PUSH2 0x4B1B SWAP2 SWAP1 PUSH2 0x6AC6 JUMP JUMPDEST SWAP3 POP POP DUP2 SWAP1 SSTORE POP PUSH2 0x4B6A JUMP JUMPDEST DUP4 PUSH1 0x13 PUSH1 0x0 DUP3 DUP3 SLOAD PUSH2 0x4B39 SWAP2 SWAP1 PUSH2 0x6AC6 JUMP JUMPDEST SWAP3 POP POP DUP2 SWAP1 SSTORE POP PUSH2 0x4B51 PUSH1 0x15 SLOAD PUSH1 0xB SLOAD PUSH1 0xE SLOAD PUSH2 0x5AEF JUMP JUMPDEST PUSH1 0x14 PUSH1 0x0 DUP3 DUP3 SLOAD PUSH2 0x4B62 SWAP2 SWAP1 PUSH2 0x6D18 JUMP JUMPDEST SWAP3 POP POP DUP2 SWAP1 SSTORE POP JUMPDEST PUSH1 0x0 SWAP3 POP JUMPDEST POP POP PUSH2 0x4857 JUMP JUMPDEST POP POP PUSH1 0x1 PUSH1 0x2F DUP2 SWAP1 SSTORE POP SWAP3 SWAP2 POP POP JUMP JUMPDEST PUSH1 0x0 PUSH1 0x1 PUSH1 0x2F SLOAD EQ PUSH2 0x4BCD JUMPI PUSH1 0x40 MLOAD PUSH32 0x8C379A000000000000000000000000000000000000000000000000000000000 DUP2 MSTORE PUSH1 0x4 ADD PUSH2 0x4BC4 SWAP1 PUSH2 0x6A0A JUMP JUMPDEST PUSH1 0x40 MLOAD DUP1 SWAP2 SUB SWAP1 REVERT JUMPDEST PUSH1 0x0 PUSH1 0x2F DUP2 SWAP1 SSTORE POP PUSH1 0x0 DUP5 SWAP1 POP PUSH1 0x0 PUSH1 0x1 SWAP1 POP JUMPDEST PUSH1 0x1 ISZERO ISZERO DUP2 ISZERO ISZERO EQ ISZERO PUSH2 0x4EF0 JUMPI PUSH1 0x0 PUSH1 0x2C SLOAD PUSH1 0x18 SLOAD PUSH1 0x9 SLOAD PUSH2 0x4C03 SWAP2 SWAP1 PUSH2 0x6CBE JUMP JUMPDEST PUSH2 0x4C0D SWAP2 SWAP1 PUSH2 0x6B1C JUMP JUMPDEST SWAP1 POP PUSH1 0x0 PUSH2 0x4C23 PUSH1 0x5 SLOAD PUSH1 0x6 SLOAD PUSH1 0x7 SLOAD DUP6 PUSH2 0x59EF JUMP JUMPDEST SWAP1 POP PUSH2 0x4C34 PUSH1 0xC SLOAD DUP3 PUSH1 0xD SLOAD PUSH2 0x5AEF JUMP JUMPDEST DUP5 GT ISZERO PUSH2 0x4DF9 JUMPI PUSH1 0x0 PUSH2 0x4C50 PUSH1 0x5 SLOAD PUSH1 0x6 SLOAD PUSH1 0x7 SLOAD DUP7 DUP7 PUSH2 0x5B24 JUMP JUMPDEST SWAP1 POP PUSH2 0x4C61 DUP4 PUSH1 0xB SLOAD PUSH1 0xE SLOAD PUSH2 0x5AEF JUMP JUMPDEST DUP7 PUSH2 0x4C6C SWAP2 SWAP1 PUSH2 0x6AC6 JUMP JUMPDEST SWAP6 POP PUSH2 0x4C7D PUSH1 0xC SLOAD DUP4 PUSH1 0xD SLOAD PUSH2 0x5AEF JUMP JUMPDEST DUP6 PUSH2 0x4C88 SWAP2 SWAP1 PUSH2 0x6D18 JUMP JUMPDEST SWAP5 POP PUSH1 0x1 ISZERO ISZERO DUP8 ISZERO ISZERO EQ ISZERO PUSH2 0x4CC3 JUMPI PUSH2 0x4CA6 PUSH1 0xC SLOAD DUP4 PUSH1 0xD SLOAD PUSH2 0x5AEF JUMP JUMPDEST PUSH1 0xF PUSH1 0x0 DUP3 DUP3 SLOAD PUSH2 0x4CB7 SWAP2 SWAP1 PUSH2 0x6AC6 JUMP JUMPDEST SWAP3 POP POP DUP2 SWAP1 SSTORE POP PUSH2 0x4D12 JUMP JUMPDEST PUSH2 0x4CD2 DUP4 PUSH1 0xB SLOAD PUSH1 0xE SLOAD PUSH2 0x5AEF JUMP JUMPDEST PUSH1 0x14 PUSH1 0x0 DUP3 DUP3 SLOAD PUSH2 0x4CE3 SWAP2 SWAP1 PUSH2 0x6AC6 JUMP JUMPDEST SWAP3 POP POP DUP2 SWAP1 SSTORE POP PUSH2 0x4CF9 PUSH1 0xC SLOAD DUP4 PUSH1 0xD SLOAD PUSH2 0x5AEF JUMP JUMPDEST PUSH1 0x13 PUSH1 0x0 DUP3 DUP3 SLOAD PUSH2 0x4D0A SWAP2 SWAP1 PUSH2 0x6D18 JUMP JUMPDEST SWAP3 POP POP DUP2 SWAP1 SSTORE POP JUMPDEST DUP2 PUSH1 0xA SLOAD PUSH1 0xD SLOAD PUSH2 0x4D23 SWAP2 SWAP1 PUSH2 0x6CBE JUMP JUMPDEST PUSH2 0x4D2D SWAP2 SWAP1 PUSH2 0x6B1C JUMP JUMPDEST PUSH1 0xD DUP2 SWAP1 SSTORE POP DUP3 PUSH1 0x9 SLOAD PUSH1 0xE SLOAD PUSH2 0x4D44 SWAP2 SWAP1 PUSH2 0x6CBE JUMP JUMPDEST PUSH2 0x4D4E SWAP2 SWAP1 PUSH2 0x6B1C JUMP JUMPDEST PUSH1 0xE DUP2 SWAP1 SSTORE POP PUSH1 0xA SLOAD DUP4 PUSH1 0x9 SLOAD DUP5 DUP5 PUSH2 0x4D67 SWAP2 SWAP1 PUSH2 0x6CBE JUMP JUMPDEST PUSH2 0x4D71 SWAP2 SWAP1 PUSH2 0x6CBE JUMP JUMPDEST PUSH2 0x4D7B SWAP2 SWAP1 PUSH2 0x6B1C JUMP JUMPDEST PUSH2 0x4D85 SWAP2 SWAP1 PUSH2 0x6B1C JUMP JUMPDEST PUSH1 0x17 DUP2 SWAP1 SSTORE POP PUSH1 0x9 SLOAD PUSH1 0xB DUP2 SWAP1 SSTORE POP PUSH1 0xA SLOAD PUSH1 0xC DUP2 SWAP1 SSTORE POP PUSH2 0x4DB1 PUSH1 0xB SLOAD PUSH1 0xC SLOAD PUSH1 0x7 SLOAD PUSH1 0x17 SLOAD PUSH2 0x5C18 JUMP JUMPDEST PUSH1 0x5 DUP2 SWAP1 SSTORE POP PUSH1 0x5 SLOAD PUSH1 0x2C SLOAD PUSH1 0x2 PUSH2 0x4DC9 SWAP2 SWAP1 PUSH2 0x6CBE JUMP JUMPDEST PUSH2 0x4DD3 SWAP2 SWAP1 PUSH2 0x6D18 JUMP JUMPDEST PUSH1 0x6 DUP2 SWAP1 SSTORE POP PUSH2 0x4DE1 PUSH2 0x53CA JUMP JUMPDEST PUSH1 0x9 SLOAD PUSH1 0xB DUP2 SWAP1 SSTORE POP PUSH1 0xA SLOAD PUSH1 0xC DUP2 SWAP1 SSTORE POP POP PUSH2 0x4EE9 JUMP JUMPDEST PUSH1 0xB SLOAD PUSH1 0x15 DUP2 SWAP1 SSTORE POP PUSH1 0xC SLOAD PUSH1 0x16 DUP2 SWAP1 SSTORE POP PUSH1 0x2C SLOAD PUSH1 0xD SLOAD DUP6 PUSH2 0x4E1C SWAP2 SWAP1 PUSH2 0x6CBE JUMP JUMPDEST PUSH2 0x4E26 SWAP2 SWAP1 PUSH2 0x6B1C JUMP JUMPDEST PUSH1 0xC PUSH1 0x0 DUP3 DUP3 SLOAD PUSH2 0x4E37 SWAP2 SWAP1 PUSH2 0x6D18 JUMP JUMPDEST SWAP3 POP POP DUP2 SWAP1 SSTORE POP PUSH2 0x4E52 PUSH1 0x5 SLOAD PUSH1 0x6 SLOAD PUSH1 0x7 SLOAD PUSH1 0xC SLOAD PUSH2 0x5D52 JUMP JUMPDEST PUSH1 0xB DUP2 SWAP1 SSTORE POP PUSH2 0x4E69 PUSH1 0xB SLOAD PUSH1 0x15 SLOAD PUSH1 0xE SLOAD PUSH2 0x5AEF JUMP JUMPDEST DUP6 PUSH2 0x4E74 SWAP2 SWAP1 PUSH2 0x6AC6 JUMP JUMPDEST SWAP5 POP PUSH1 0x1 ISZERO ISZERO DUP7 ISZERO ISZERO EQ ISZERO PUSH2 0x4EA1 JUMPI DUP4 PUSH1 0xF PUSH1 0x0 DUP3 DUP3 SLOAD PUSH2 0x4E95 SWAP2 SWAP1 PUSH2 0x6AC6 JUMP JUMPDEST SWAP3 POP POP DUP2 SWAP1 SSTORE POP PUSH2 0x4EE4 JUMP JUMPDEST PUSH2 0x4EB2 PUSH1 0xB SLOAD PUSH1 0x15 SLOAD PUSH1 0xE SLOAD PUSH2 0x5AEF JUMP JUMPDEST PUSH1 0x14 PUSH1 0x0 DUP3 DUP3 SLOAD PUSH2 0x4EC3 SWAP2 SWAP1 PUSH2 0x6AC6 JUMP JUMPDEST SWAP3 POP POP DUP2 SWAP1 SSTORE POP DUP4 PUSH1 0x13 PUSH1 0x0 DUP3 DUP3 SLOAD PUSH2 0x4EDC SWAP2 SWAP1 PUSH2 0x6D18 JUMP JUMPDEST SWAP3 POP POP DUP2 SWAP1 SSTORE POP JUMPDEST PUSH1 0x0 SWAP3 POP JUMPDEST POP POP PUSH2 0x4BE1 JUMP JUMPDEST PUSH1 0x0 ISZERO ISZERO DUP5 ISZERO ISZERO EQ ISZERO PUSH2 0x4F0A JUMPI DUP3 DUP6 GT PUSH2 0x4F09 JUMPI PUSH1 0x0 DUP1 REVERT JUMPDEST JUMPDEST POP POP PUSH1 0x1 PUSH1 0x2F DUP2 SWAP1 SSTORE POP SWAP4 SWAP3 POP POP POP JUMP JUMPDEST PUSH1 0x0 PUSH1 0x1 PUSH1 0x2F SLOAD EQ PUSH2 0x4F62 JUMPI PUSH1 0x40 MLOAD PUSH32 0x8C379A000000000000000000000000000000000000000000000000000000000 DUP2 MSTORE PUSH1 0x4 ADD PUSH2 0x4F59 SWAP1 PUSH2 0x6A0A JUMP JUMPDEST PUSH1 0x40 MLOAD DUP1 SWAP2 SUB SWAP1 REVERT JUMPDEST PUSH1 0x0 PUSH1 0x2F DUP2 SWAP1 SSTORE POP PUSH1 0x0 DUP5 SWAP1 POP PUSH1 0x0 PUSH1 0x1 SWAP1 POP JUMPDEST PUSH1 0x1 ISZERO ISZERO DUP2 ISZERO ISZERO EQ ISZERO PUSH2 0x5285 JUMPI PUSH1 0x0 PUSH1 0x2C SLOAD PUSH1 0x18 SLOAD PUSH1 0xA SLOAD PUSH2 0x4F98 SWAP2 SWAP1 PUSH2 0x6CBE JUMP JUMPDEST PUSH2 0x4FA2 SWAP2 SWAP1 PUSH2 0x6B1C JUMP JUMPDEST SWAP1 POP PUSH1 0x0 PUSH2 0x4FB8 PUSH1 0x5 SLOAD PUSH1 0x6 SLOAD PUSH1 0x7 SLOAD DUP6 PUSH2 0x5D52 JUMP JUMPDEST SWAP1 POP PUSH2 0x4FC9 PUSH1 0xB SLOAD DUP3 PUSH1 0xE SLOAD PUSH2 0x5AEF JUMP JUMPDEST DUP5 GT ISZERO PUSH2 0x518E JUMPI PUSH1 0x0 PUSH2 0x4FE5 PUSH1 0x5 SLOAD PUSH1 0x6 SLOAD PUSH1 0x7 SLOAD DUP6 DUP8 PUSH2 0x5B24 JUMP JUMPDEST SWAP1 POP PUSH2 0x4FF6 DUP4 PUSH1 0xC SLOAD PUSH1 0xD SLOAD PUSH2 0x5AEF JUMP JUMPDEST DUP7 PUSH2 0x5001 SWAP2 SWAP1 PUSH2 0x6AC6 JUMP JUMPDEST SWAP6 POP PUSH2 0x5012 PUSH1 0xB SLOAD DUP4 PUSH1 0xE SLOAD PUSH2 0x5AEF JUMP JUMPDEST DUP6 PUSH2 0x501D SWAP2 SWAP1 PUSH2 0x6D18 JUMP JUMPDEST SWAP5 POP PUSH1 0x1 ISZERO ISZERO DUP8 ISZERO ISZERO EQ ISZERO PUSH2 0x5058 JUMPI PUSH2 0x503B PUSH1 0xB SLOAD DUP4 PUSH1 0xE SLOAD PUSH2 0x5AEF JUMP JUMPDEST PUSH1 0x10 PUSH1 0x0 DUP3 DUP3 SLOAD PUSH2 0x504C SWAP2 SWAP1 PUSH2 0x6AC6 JUMP JUMPDEST SWAP3 POP POP DUP2 SWAP1 SSTORE POP PUSH2 0x50A7 JUMP JUMPDEST PUSH2 0x5067 DUP4 PUSH1 0xC SLOAD PUSH1 0xD SLOAD PUSH2 0x5AEF JUMP JUMPDEST PUSH1 0x13 PUSH1 0x0 DUP3 DUP3 SLOAD PUSH2 0x5078 SWAP2 SWAP1 PUSH2 0x6AC6 JUMP JUMPDEST SWAP3 POP POP DUP2 SWAP1 SSTORE POP PUSH2 0x508E PUSH1 0xB SLOAD DUP4 PUSH1 0xE SLOAD PUSH2 0x5AEF JUMP JUMPDEST PUSH1 0x14 PUSH1 0x0 DUP3 DUP3 SLOAD PUSH2 0x509F SWAP2 SWAP1 PUSH2 0x6D18 JUMP JUMPDEST SWAP3 POP POP DUP2 SWAP1 SSTORE POP JUMPDEST DUP3 PUSH1 0xA SLOAD PUSH1 0xD SLOAD PUSH2 0x50B8 SWAP2 SWAP1 PUSH2 0x6CBE JUMP JUMPDEST PUSH2 0x50C2 SWAP2 SWAP1 PUSH2 0x6B1C JUMP JUMPDEST PUSH1 0xD DUP2 SWAP1 SSTORE POP DUP2 PUSH1 0x9 SLOAD PUSH1 0xE SLOAD PUSH2 0x50D9 SWAP2 SWAP1 PUSH2 0x6CBE JUMP JUMPDEST PUSH2 0x50E3 SWAP2 SWAP1 PUSH2 0x6B1C JUMP JUMPDEST PUSH1 0xE DUP2 SWAP1 SSTORE POP PUSH1 0xA SLOAD DUP3 PUSH1 0x9 SLOAD DUP6 DUP5 PUSH2 0x50FC SWAP2 SWAP1 PUSH2 0x6CBE JUMP JUMPDEST PUSH2 0x5106 SWAP2 SWAP1 PUSH2 0x6CBE JUMP JUMPDEST PUSH2 0x5110 SWAP2 SWAP1 PUSH2 0x6B1C JUMP JUMPDEST PUSH2 0x511A SWAP2 SWAP1 PUSH2 0x6B1C JUMP JUMPDEST PUSH1 0x17 DUP2 SWAP1 SSTORE POP PUSH1 0x9 SLOAD PUSH1 0xB DUP2 SWAP1 SSTORE POP PUSH1 0xA SLOAD PUSH1 0xC DUP2 SWAP1 SSTORE POP PUSH2 0x5146 PUSH1 0xB SLOAD PUSH1 0xC SLOAD PUSH1 0x7 SLOAD PUSH1 0x17 SLOAD PUSH2 0x5C18 JUMP JUMPDEST PUSH1 0x5 DUP2 SWAP1 SSTORE POP PUSH1 0x5 SLOAD PUSH1 0x2C SLOAD PUSH1 0x2 PUSH2 0x515E SWAP2 SWAP1 PUSH2 0x6CBE JUMP JUMPDEST PUSH2 0x5168 SWAP2 SWAP1 PUSH2 0x6D18 JUMP JUMPDEST PUSH1 0x6 DUP2 SWAP1 SSTORE POP PUSH2 0x5176 PUSH2 0x53CA JUMP JUMPDEST PUSH1 0x9 SLOAD PUSH1 0xB DUP2 SWAP1 SSTORE POP PUSH1 0xA SLOAD PUSH1 0xC DUP2 SWAP1 SSTORE POP POP PUSH2 0x527E JUMP JUMPDEST PUSH1 0xB SLOAD PUSH1 0x15 DUP2 SWAP1 SSTORE POP PUSH1 0xC SLOAD PUSH1 0x16 DUP2 SWAP1 SSTORE POP PUSH1 0x2C SLOAD PUSH1 0xE SLOAD DUP6 PUSH2 0x51B1 SWAP2 SWAP1 PUSH2 0x6CBE JUMP JUMPDEST PUSH2 0x51BB SWAP2 SWAP1 PUSH2 0x6B1C JUMP JUMPDEST PUSH1 0xB PUSH1 0x0 DUP3 DUP3 SLOAD PUSH2 0x51CC SWAP2 SWAP1 PUSH2 0x6D18 JUMP JUMPDEST SWAP3 POP POP DUP2 SWAP1 SSTORE POP PUSH2 0x51E7 PUSH1 0x5 SLOAD PUSH1 0x6 SLOAD PUSH1 0x7 SLOAD PUSH1 0xB SLOAD PUSH2 0x59EF JUMP JUMPDEST PUSH1 0xC DUP2 SWAP1 SSTORE POP PUSH2 0x51FE PUSH1 0xC SLOAD PUSH1 0x16 SLOAD PUSH1 0xD SLOAD PUSH2 0x5AEF JUMP JUMPDEST DUP6 PUSH2 0x5209 SWAP2 SWAP1 PUSH2 0x6AC6 JUMP JUMPDEST SWAP5 POP PUSH1 0x1 ISZERO ISZERO DUP7 ISZERO ISZERO EQ ISZERO PUSH2 0x5236 JUMPI DUP4 PUSH1 0x10 PUSH1 0x0 DUP3 DUP3 SLOAD PUSH2 0x522A SWAP2 SWAP1 PUSH2 0x6AC6 JUMP JUMPDEST SWAP3 POP POP DUP2 SWAP1 SSTORE POP PUSH2 0x5279 JUMP JUMPDEST PUSH2 0x5247 PUSH1 0xC SLOAD PUSH1 0x16 SLOAD PUSH1 0xD SLOAD PUSH2 0x5AEF JUMP JUMPDEST PUSH1 0x13 PUSH1 0x0 DUP3 DUP3 SLOAD PUSH2 0x5258 SWAP2 SWAP1 PUSH2 0x6AC6 JUMP JUMPDEST SWAP3 POP POP DUP2 SWAP1 SSTORE POP DUP4 PUSH1 0x14 PUSH1 0x0 DUP3 DUP3 SLOAD PUSH2 0x5271 SWAP2 SWAP1 PUSH2 0x6D18 JUMP JUMPDEST SWAP3 POP POP DUP2 SWAP1 SSTORE POP JUMPDEST PUSH1 0x0 SWAP3 POP JUMPDEST POP POP PUSH2 0x4F76 JUMP JUMPDEST PUSH1 0x0 ISZERO ISZERO DUP5 ISZERO ISZERO EQ ISZERO PUSH2 0x529F JUMPI DUP3 DUP6 GT PUSH2 0x529E JUMPI PUSH1 0x0 DUP1 REVERT JUMPDEST JUMPDEST POP POP PUSH1 0x1 PUSH1 0x2F DUP2 SWAP1 SSTORE POP SWAP4 SWAP3 POP POP POP JUMP JUMPDEST PUSH2 0x52C5 DUP2 PUSH1 0x0 SLOAD PUSH2 0x57CE SWAP1 SWAP2 SWAP1 PUSH4 0xFFFFFFFF AND JUMP JUMPDEST PUSH1 0x0 DUP2 SWAP1 SSTORE POP PUSH2 0x531D DUP2 PUSH1 0x1 PUSH1 0x0 DUP6 PUSH20 0xFFFFFFFFFFFFFFFFFFFFFFFFFFFFFFFFFFFFFFFF AND PUSH20 0xFFFFFFFFFFFFFFFFFFFFFFFFFFFFFFFFFFFFFFFF AND DUP2 MSTORE PUSH1 0x20 ADD SWAP1 DUP2 MSTORE PUSH1 0x20 ADD PUSH1 0x0 KECCAK256 SLOAD PUSH2 0x57CE SWAP1 SWAP2 SWAP1 PUSH4 0xFFFFFFFF AND JUMP JUMPDEST PUSH1 0x1 PUSH1 0x0 DUP5 PUSH20 0xFFFFFFFFFFFFFFFFFFFFFFFFFFFFFFFFFFFFFFFF AND PUSH20 0xFFFFFFFFFFFFFFFFFFFFFFFFFFFFFFFFFFFFFFFF AND DUP2 MSTORE PUSH1 0x20 ADD SWAP1 DUP2 MSTORE PUSH1 0x20 ADD PUSH1 0x0 KECCAK256 DUP2 SWAP1 SSTORE POP DUP2 PUSH20 0xFFFFFFFFFFFFFFFFFFFFFFFFFFFFFFFFFFFFFFFF AND PUSH1 0x0 PUSH20 0xFFFFFFFFFFFFFFFFFFFFFFFFFFFFFFFFFFFFFFFF AND PUSH32 0xDDF252AD1BE2C89B69C2B068FC378DAA952BA7F163C4A11628F55A4DF523B3EF DUP4 PUSH1 0x40 MLOAD PUSH2 0x53BE SWAP2 SWAP1 PUSH2 0x6A2A JUMP JUMPDEST PUSH1 0x40 MLOAD DUP1 SWAP2 SUB SWAP1 LOG3 POP POP JUMP JUMPDEST PUSH2 0x54B2 PUSH1 0x11 SLOAD PUSH1 0x12 SLOAD PUSH1 0x11 SLOAD PUSH1 0x6 SLOAD PUSH1 0xD SLOAD PUSH2 0x53E6 SWAP2 SWAP1 PUSH2 0x6CBE JUMP JUMPDEST PUSH2 0x53F0 SWAP2 SWAP1 PUSH2 0x6CBE JUMP JUMPDEST PUSH1 0xE SLOAD PUSH1 0x5 SLOAD PUSH1 0x12 SLOAD PUSH2 0x5403 SWAP2 SWAP1 PUSH2 0x6CBE JUMP JUMPDEST PUSH2 0x540D SWAP2 SWAP1 PUSH2 0x6CBE JUMP JUMPDEST PUSH2 0x5417 SWAP2 SWAP1 PUSH2 0x6AC6 JUMP JUMPDEST PUSH1 0x2C SLOAD PUSH1 0x2C SLOAD PUSH1 0x13 SLOAD PUSH1 0x14 SLOAD PUSH1 0x13 SLOAD PUSH1 0x6 SLOAD PUSH1 0xD SLOAD PUSH2 0x5436 SWAP2 SWAP1 PUSH2 0x6CBE JUMP JUMPDEST PUSH2 0x5440 SWAP2 SWAP1 PUSH2 0x6CBE JUMP JUMPDEST PUSH1 0xE SLOAD PUSH1 0x5 SLOAD PUSH1 0x14 SLOAD PUSH2 0x5453 SWAP2 SWAP1 PUSH2 0x6CBE JUMP JUMPDEST PUSH2 0x545D SWAP2 SWAP1 PUSH2 0x6CBE JUMP JUMPDEST PUSH2 0x5467 SWAP2 SWAP1 PUSH2 0x6AC6 JUMP JUMPDEST PUSH2 0x5471 SWAP2 SWAP1 PUSH2 0x6CBE JUMP JUMPDEST PUSH2 0x547B SWAP2 SWAP1 PUSH2 0x6CBE JUMP JUMPDEST PUSH2 0x5485 SWAP2 SWAP1 PUSH2 0x6CBE JUMP JUMPDEST PUSH2 0x548F SWAP2 SWAP1 PUSH2 0x6CBE JUMP JUMPDEST PUSH2 0x5499 SWAP2 SWAP1 PUSH2 0x6B1C JUMP JUMPDEST PUSH2 0x54A3 SWAP2 SWAP1 PUSH2 0x6B1C JUMP JUMPDEST PUSH2 0x54AD SWAP2 SWAP1 PUSH2 0x6B1C JUMP JUMPDEST PUSH2 0x5E52 JUMP JUMPDEST PUSH1 0x23 DUP2 SWAP1 SSTORE POP PUSH1 0x2C SLOAD PUSH1 0x2C SLOAD PUSH1 0x23 SLOAD PUSH1 0x8 SLOAD PUSH2 0x54CE SWAP2 SWAP1 PUSH2 0x6CBE JUMP JUMPDEST PUSH2 0x54D8 SWAP2 SWAP1 PUSH2 0x6B1C JUMP JUMPDEST PUSH2 0x54E2 SWAP2 SWAP1 PUSH2 0x6B1C JUMP JUMPDEST PUSH1 0x7 DUP2 SWAP1 SSTORE POP PUSH1 0x2 PUSH1 0x7 SLOAD PUSH2 0x54F7 SWAP2 SWAP1 PUSH2 0x6B1C JUMP JUMPDEST PUSH1 0x9 DUP2 SWAP1 SSTORE POP PUSH1 0x9 SLOAD PUSH1 0xA DUP2 SWAP1 SSTORE POP PUSH1 0x23 SLOAD PUSH1 0x24 DUP2 SWAP1 SSTORE POP JUMP JUMPDEST PUSH2 0x5563 DUP2 PUSH1 0x1 PUSH1 0x0 DUP6 PUSH20 0xFFFFFFFFFFFFFFFFFFFFFFFFFFFFFFFFFFFFFFFF AND PUSH20 0xFFFFFFFFFFFFFFFFFFFFFFFFFFFFFFFFFFFFFFFF AND DUP2 MSTORE PUSH1 0x20 ADD SWAP1 DUP2 MSTORE PUSH1 0x20 ADD PUSH1 0x0 KECCAK256 SLOAD PUSH2 0x3DD7 SWAP1 SWAP2 SWAP1 PUSH4 0xFFFFFFFF AND JUMP JUMPDEST PUSH1 0x1 PUSH1 0x0 DUP5 PUSH20 0xFFFFFFFFFFFFFFFFFFFFFFFFFFFFFFFFFFFFFFFF AND PUSH20 0xFFFFFFFFFFFFFFFFFFFFFFFFFFFFFFFFFFFFFFFF AND DUP2 MSTORE PUSH1 0x20 ADD SWAP1 DUP2 MSTORE PUSH1 0x20 ADD PUSH1 0x0 KECCAK256 DUP2 SWAP1 SSTORE POP PUSH2 0x55BB DUP2 PUSH1 0x0 SLOAD PUSH2 0x3DD7 SWAP1 SWAP2 SWAP1 PUSH4 0xFFFFFFFF AND JUMP JUMPDEST PUSH1 0x0 DUP2 SWAP1 SSTORE POP PUSH1 0x0 PUSH20 0xFFFFFFFFFFFFFFFFFFFFFFFFFFFFFFFFFFFFFFFF AND DUP3 PUSH20 0xFFFFFFFFFFFFFFFFFFFFFFFFFFFFFFFFFFFFFFFF AND PUSH32 0xDDF252AD1BE2C89B69C2B068FC378DAA952BA7F163C4A11628F55A4DF523B3EF DUP4 PUSH1 0x40 MLOAD PUSH2 0x561F SWAP2 SWAP1 PUSH2 0x6A2A JUMP JUMPDEST PUSH1 0x40 MLOAD DUP1 SWAP2 SUB SWAP1 LOG3 POP POP JUMP JUMPDEST PUSH1 0x0 DUP1 DUP5 PUSH20 0xFFFFFFFFFFFFFFFFFFFFFFFFFFFFFFFFFFFFFFFF AND PUSH1 0x40 MLOAD DUP1 PUSH1 0x40 ADD PUSH1 0x40 MSTORE DUP1 PUSH1 0x19 DUP2 MSTORE PUSH1 0x20 ADD PUSH32 0x7472616E7366657228616464726573732C75696E743235362900000000000000 DUP2 MSTORE POP DUP1 MLOAD SWAP1 PUSH1 0x20 ADD KECCAK256 DUP6 DUP6 PUSH1 0x40 MLOAD PUSH1 0x24 ADD PUSH2 0x5695 SWAP3 SWAP2 SWAP1 PUSH2 0x67A3 JUMP JUMPDEST PUSH1 0x40 MLOAD PUSH1 0x20 DUP2 DUP4 SUB SUB DUP2 MSTORE SWAP1 PUSH1 0x40 MSTORE SWAP1 PUSH28 0xFFFFFFFFFFFFFFFFFFFFFFFFFFFFFFFFFFFFFFFFFFFFFFFFFFFFFFFF NOT AND PUSH1 0x20 DUP3 ADD DUP1 MLOAD PUSH28 0xFFFFFFFFFFFFFFFFFFFFFFFFFFFFFFFFFFFFFFFFFFFFFFFFFFFFFFFF DUP4 DUP2 DUP4 AND OR DUP4 MSTORE POP POP POP POP PUSH1 0x40 MLOAD PUSH2 0x56FF SWAP2 SWAP1 PUSH2 0x66F5 JUMP JUMPDEST PUSH1 0x0 PUSH1 0x40 MLOAD DUP1 DUP4 SUB DUP2 PUSH1 0x0 DUP7 GAS CALL SWAP2 POP POP RETURNDATASIZE DUP1 PUSH1 0x0 DUP2 EQ PUSH2 0x573C JUMPI PUSH1 0x40 MLOAD SWAP2 POP PUSH1 0x1F NOT PUSH1 0x3F RETURNDATASIZE ADD AND DUP3 ADD PUSH1 0x40 MSTORE RETURNDATASIZE DUP3 MSTORE RETURNDATASIZE PUSH1 0x0 PUSH1 0x20 DUP5 ADD RETURNDATACOPY PUSH2 0x5741 JUMP JUMPDEST PUSH1 0x60 SWAP2 POP JUMPDEST POP SWAP2 POP SWAP2 POP DUP2 DUP1 ISZERO PUSH2 0x576F JUMPI POP PUSH1 0x0 DUP2 MLOAD EQ DUP1 PUSH2 0x576E JUMPI POP DUP1 DUP1 PUSH1 0x20 ADD SWAP1 MLOAD DUP2 ADD SWAP1 PUSH2 0x576D SWAP2 SWAP1 PUSH2 0x6304 JUMP JUMPDEST JUMPDEST JUMPDEST PUSH2 0x57AE JUMPI PUSH1 0x40 MLOAD PUSH32 0x8C379A000000000000000000000000000000000000000000000000000000000 DUP2 MSTORE PUSH1 0x4 ADD PUSH2 0x57A5 SWAP1 PUSH2 0x69CA JUMP JUMPDEST PUSH1 0x40 MLOAD DUP1 SWAP2 SUB SWAP1 REVERT JUMPDEST POP POP POP POP POP JUMP JUMPDEST PUSH1 0x0 DUP2 DUP4 GT PUSH2 0x57C4 JUMPI DUP2 PUSH2 0x57C6 JUMP JUMPDEST DUP3 JUMPDEST SWAP1 POP SWAP3 SWAP2 POP POP JUMP JUMPDEST PUSH1 0x0 DUP3 DUP3 DUP5 PUSH2 0x57DD SWAP2 SWAP1 PUSH2 0x6AC6 JUMP JUMPDEST SWAP2 POP DUP2 LT ISZERO PUSH2 0x5821 JUMPI PUSH1 0x40 MLOAD PUSH32 0x8C379A000000000000000000000000000000000000000000000000000000000 DUP2 MSTORE PUSH1 0x4 ADD PUSH2 0x5818 SWAP1 PUSH2 0x696A JUMP JUMPDEST PUSH1 0x40 MLOAD DUP1 SWAP2 SUB SWAP1 REVERT JUMPDEST SWAP3 SWAP2 POP POP JUMP JUMPDEST PUSH1 0x0 DUP1 PUSH1 0x0 PUSH1 0x2C SLOAD PUSH1 0xE SLOAD PUSH1 0x14 SLOAD PUSH2 0x583F SWAP2 SWAP1 PUSH2 0x6CBE JUMP JUMPDEST PUSH2 0x5849 SWAP2 SWAP1 PUSH2 0x6B1C JUMP JUMPDEST SWAP1 POP PUSH1 0x0 PUSH1 0x2C SLOAD PUSH1 0xD SLOAD PUSH1 0x13 SLOAD PUSH2 0x5860 SWAP2 SWAP1 PUSH2 0x6CBE JUMP JUMPDEST PUSH2 0x586A SWAP2 SWAP1 PUSH2 0x6B1C JUMP JUMPDEST SWAP1 POP PUSH1 0x0 PUSH2 0x587B DUP4 DUP4 PUSH1 0x7 SLOAD PUSH2 0x5EE3 JUMP JUMPDEST SWAP1 POP PUSH1 0x0 DUP2 PUSH1 0x2C SLOAD PUSH1 0x2 PUSH2 0x588F SWAP2 SWAP1 PUSH2 0x6CBE JUMP JUMPDEST PUSH2 0x5899 SWAP2 SWAP1 PUSH2 0x6D18 JUMP JUMPDEST SWAP1 POP PUSH1 0x0 PUSH1 0xE SLOAD PUSH1 0xD SLOAD PUSH2 0x58B2 DUP6 DUP6 PUSH1 0x7 SLOAD DUP11 DUP11 PUSH2 0x5B24 JUMP JUMPDEST PUSH2 0x58BC SWAP2 SWAP1 PUSH2 0x6CBE JUMP JUMPDEST PUSH2 0x58C6 SWAP2 SWAP1 PUSH2 0x6B1C JUMP JUMPDEST SWAP1 POP PUSH1 0x0 PUSH1 0xE SLOAD PUSH1 0xD SLOAD PUSH2 0x58E7 PUSH1 0x5 SLOAD PUSH1 0x6 SLOAD PUSH1 0x7 SLOAD PUSH1 0xB SLOAD PUSH1 0xC SLOAD PUSH2 0x5B24 JUMP JUMPDEST PUSH2 0x58F1 SWAP2 SWAP1 PUSH2 0x6CBE JUMP JUMPDEST PUSH2 0x58FB SWAP2 SWAP1 PUSH2 0x6B1C JUMP JUMPDEST SWAP1 POP DUP2 DUP2 GT ISZERO PUSH2 0x5962 JUMPI PUSH1 0x0 PUSH2 0x5918 PUSH1 0xF SLOAD PUSH1 0x13 SLOAD PUSH1 0x22 SLOAD PUSH2 0x5F67 JUMP JUMPDEST SWAP1 POP DUP1 PUSH2 0x1680 DUP5 PUSH1 0x2C SLOAD DUP7 DUP7 PUSH2 0x592E SWAP2 SWAP1 PUSH2 0x6D18 JUMP JUMPDEST PUSH2 0x5938 SWAP2 SWAP1 PUSH2 0x6CBE JUMP JUMPDEST PUSH2 0x5942 SWAP2 SWAP1 PUSH2 0x6B1C JUMP JUMPDEST PUSH2 0x594C SWAP2 SWAP1 PUSH2 0x6B1C JUMP JUMPDEST PUSH2 0x5956 SWAP2 SWAP1 PUSH2 0x6AC6 JUMP JUMPDEST SWAP9 POP PUSH1 0x0 SWAP8 POP POP PUSH2 0x59BB JUMP JUMPDEST PUSH1 0x0 PUSH2 0x5975 PUSH1 0x10 SLOAD PUSH1 0x14 SLOAD PUSH1 0x22 SLOAD PUSH2 0x5F67 JUMP JUMPDEST SWAP1 POP DUP1 PUSH2 0x1680 DUP5 PUSH1 0x2C SLOAD DUP6 DUP8 PUSH2 0x598B SWAP2 SWAP1 PUSH2 0x6D18 JUMP JUMPDEST PUSH2 0x5995 SWAP2 SWAP1 PUSH2 0x6CBE JUMP JUMPDEST PUSH2 0x599F SWAP2 SWAP1 PUSH2 0x6B1C JUMP JUMPDEST PUSH2 0x59A9 SWAP2 SWAP1 PUSH2 0x6B1C JUMP JUMPDEST PUSH2 0x59B3 SWAP2 SWAP1 PUSH2 0x6AC6 JUMP JUMPDEST SWAP9 POP PUSH1 0x1 SWAP8 POP POP JUMPDEST PUSH1 0x21 SLOAD PUSH2 0x780 DUP10 PUSH2 0x59CC SWAP2 SWAP1 PUSH2 0x6CBE JUMP JUMPDEST GT ISZERO PUSH2 0x59E5 JUMPI PUSH2 0x780 PUSH1 0x21 SLOAD PUSH2 0x59E2 SWAP2 SWAP1 PUSH2 0x6B1C JUMP JUMPDEST SWAP8 POP JUMPDEST POP POP POP POP POP POP SWAP1 SWAP2 JUMP JUMPDEST PUSH1 0x0 DUP2 DUP5 PUSH1 0x8 PUSH2 0x59FF SWAP2 SWAP1 PUSH2 0x6CBE JUMP JUMPDEST PUSH2 0x5A09 SWAP2 SWAP1 PUSH2 0x6CBE JUMP JUMPDEST PUSH2 0x5AA2 PUSH8 0xDE0B6B3A7640000 DUP6 DUP7 DUP8 PUSH2 0x5A22 SWAP2 SWAP1 PUSH2 0x6CBE JUMP JUMPDEST PUSH2 0x5A2C SWAP2 SWAP1 PUSH2 0x6CBE JUMP JUMPDEST PUSH1 0x0 PUSH2 0x5A38 SWAP2 SWAP1 PUSH2 0x6D18 JUMP JUMPDEST DUP6 DUP9 PUSH1 0x10 PUSH2 0x5A46 SWAP2 SWAP1 PUSH2 0x6CBE JUMP JUMPDEST PUSH2 0x5A50 SWAP2 SWAP1 PUSH2 0x6CBE JUMP JUMPDEST PUSH2 0x5A5A SWAP2 SWAP1 PUSH2 0x6CBE JUMP JUMPDEST PUSH2 0x5A64 SWAP2 SWAP1 PUSH2 0x6CBE JUMP JUMPDEST PUSH1 0x2 DUP6 DUP7 DUP11 PUSH1 0x4 PUSH2 0x5A75 SWAP2 SWAP1 PUSH2 0x6CBE JUMP JUMPDEST PUSH2 0x5A7F SWAP2 SWAP1 PUSH2 0x6CBE JUMP JUMPDEST PUSH2 0x5A89 SWAP2 SWAP1 PUSH2 0x6CBE JUMP JUMPDEST PUSH2 0x5A93 SWAP2 SWAP1 PUSH2 0x6BA0 JUMP JUMPDEST PUSH2 0x5A9D SWAP2 SWAP1 PUSH2 0x6D18 JUMP JUMPDEST PUSH2 0x5FB4 JUMP JUMPDEST DUP4 DUP5 DUP9 PUSH1 0x4 PUSH2 0x5AB1 SWAP2 SWAP1 PUSH2 0x6CBE JUMP JUMPDEST PUSH2 0x5ABB SWAP2 SWAP1 PUSH2 0x6CBE JUMP JUMPDEST PUSH2 0x5AC5 SWAP2 SWAP1 PUSH2 0x6CBE JUMP JUMPDEST PUSH1 0x0 PUSH2 0x5AD1 SWAP2 SWAP1 PUSH2 0x6D18 JUMP JUMPDEST PUSH2 0x5ADB SWAP2 SWAP1 PUSH2 0x6AC6 JUMP JUMPDEST PUSH2 0x5AE5 SWAP2 SWAP1 PUSH2 0x6B1C JUMP JUMPDEST SWAP1 POP SWAP5 SWAP4 POP POP POP POP JUMP JUMPDEST PUSH1 0x0 DUP2 PUSH8 0xDE0B6B3A7640000 DUP5 DUP7 PUSH2 0x5B07 SWAP2 SWAP1 PUSH2 0x6D18 JUMP JUMPDEST PUSH2 0x5B11 SWAP2 SWAP1 PUSH2 0x6CBE JUMP JUMPDEST PUSH2 0x5B1B SWAP2 SWAP1 PUSH2 0x6B1C JUMP JUMPDEST SWAP1 POP SWAP4 SWAP3 POP POP POP JUMP JUMPDEST PUSH1 0x0 DUP2 DUP5 DUP6 DUP7 PUSH2 0x5B34 SWAP2 SWAP1 PUSH2 0x6CBE JUMP JUMPDEST PUSH2 0x5B3E SWAP2 SWAP1 PUSH2 0x6CBE JUMP JUMPDEST PUSH2 0x5B48 SWAP2 SWAP1 PUSH2 0x6CBE JUMP JUMPDEST DUP3 DUP4 DUP6 DUP7 DUP11 PUSH1 0x4 PUSH2 0x5B59 SWAP2 SWAP1 PUSH2 0x6CBE JUMP JUMPDEST PUSH2 0x5B63 SWAP2 SWAP1 PUSH2 0x6CBE JUMP JUMPDEST PUSH2 0x5B6D SWAP2 SWAP1 PUSH2 0x6CBE JUMP JUMPDEST PUSH2 0x5B77 SWAP2 SWAP1 PUSH2 0x6CBE JUMP JUMPDEST PUSH2 0x5B81 SWAP2 SWAP1 PUSH2 0x6CBE JUMP JUMPDEST PUSH2 0x5B8B SWAP2 SWAP1 PUSH2 0x6AC6 JUMP JUMPDEST PUSH8 0xDE0B6B3A7640000 DUP5 DUP7 DUP8 DUP9 PUSH2 0x5BA2 SWAP2 SWAP1 PUSH2 0x6CBE JUMP JUMPDEST PUSH2 0x5BAC SWAP2 SWAP1 PUSH2 0x6CBE JUMP JUMPDEST PUSH2 0x5BB6 SWAP2 SWAP1 PUSH2 0x6CBE JUMP JUMPDEST DUP5 DUP6 DUP8 DUP9 DUP12 PUSH1 0x4 PUSH2 0x5BC7 SWAP2 SWAP1 PUSH2 0x6CBE JUMP JUMPDEST PUSH2 0x5BD1 SWAP2 SWAP1 PUSH2 0x6CBE JUMP JUMPDEST PUSH2 0x5BDB SWAP2 SWAP1 PUSH2 0x6CBE JUMP JUMPDEST PUSH2 0x5BE5 SWAP2 SWAP1 PUSH2 0x6CBE JUMP JUMPDEST PUSH2 0x5BEF SWAP2 SWAP1 PUSH2 0x6CBE JUMP JUMPDEST PUSH2 0x5BF9 SWAP2 SWAP1 PUSH2 0x6AC6 JUMP JUMPDEST PUSH2 0x5C03 SWAP2 SWAP1 PUSH2 0x6CBE JUMP JUMPDEST PUSH2 0x5C0D SWAP2 SWAP1 PUSH2 0x6B1C JUMP JUMPDEST SWAP1 POP SWAP6 SWAP5 POP POP POP POP POP JUMP JUMPDEST PUSH1 0x0 DUP2 PUSH8 0xDE0B6B3A7640000 PUSH2 0x5C2E SWAP2 SWAP1 PUSH2 0x6AC6 JUMP JUMPDEST DUP5 DUP6 DUP8 DUP9 PUSH1 0x4 PUSH2 0x5C3E SWAP2 SWAP1 PUSH2 0x6CBE JUMP JUMPDEST PUSH2 0x5C48 SWAP2 SWAP1 PUSH2 0x6CBE JUMP JUMPDEST PUSH2 0x5C52 SWAP2 SWAP1 PUSH2 0x6CBE JUMP JUMPDEST PUSH2 0x5C5C SWAP2 SWAP1 PUSH2 0x6CBE JUMP JUMPDEST PUSH2 0x5C66 SWAP2 SWAP1 PUSH2 0x6CBE JUMP JUMPDEST PUSH8 0xDE0B6B3A7640000 DUP4 DUP7 DUP7 DUP8 DUP9 PUSH2 0x5C7E SWAP2 SWAP1 PUSH2 0x6CBE JUMP JUMPDEST PUSH2 0x5C88 SWAP2 SWAP1 PUSH2 0x6CBE JUMP JUMPDEST PUSH2 0x5C92 SWAP2 SWAP1 PUSH2 0x6CBE JUMP JUMPDEST PUSH2 0x5C9C SWAP2 SWAP1 PUSH2 0x6CBE JUMP JUMPDEST PUSH2 0x5CA6 SWAP2 SWAP1 PUSH2 0x6CBE JUMP JUMPDEST PUSH15 0xC097CE7BC90715B34B9F1000000000 DUP8 DUP7 DUP8 DUP9 PUSH2 0x5CC4 SWAP2 SWAP1 PUSH2 0x6CBE JUMP JUMPDEST PUSH2 0x5CCE SWAP2 SWAP1 PUSH2 0x6CBE JUMP JUMPDEST PUSH2 0x5CD8 SWAP2 SWAP1 PUSH2 0x6CBE JUMP JUMPDEST PUSH2 0x5CE2 SWAP2 SWAP1 PUSH2 0x6CBE JUMP JUMPDEST PUSH15 0xC097CE7BC90715B34B9F1000000000 DUP8 DUP9 DUP11 DUP12 PUSH1 0x8 PUSH2 0x5D02 SWAP2 SWAP1 PUSH2 0x6CBE JUMP JUMPDEST PUSH2 0x5D0C SWAP2 SWAP1 PUSH2 0x6CBE JUMP JUMPDEST PUSH2 0x5D16 SWAP2 SWAP1 PUSH2 0x6CBE JUMP JUMPDEST PUSH2 0x5D20 SWAP2 SWAP1 PUSH2 0x6CBE JUMP JUMPDEST PUSH2 0x5D2A SWAP2 SWAP1 PUSH2 0x6CBE JUMP JUMPDEST PUSH2 0x5D34 SWAP2 SWAP1 PUSH2 0x6AC6 JUMP JUMPDEST PUSH2 0x5D3E SWAP2 SWAP1 PUSH2 0x6D18 JUMP JUMPDEST PUSH2 0x5D48 SWAP2 SWAP1 PUSH2 0x6B1C JUMP JUMPDEST SWAP1 POP SWAP5 SWAP4 POP POP POP POP JUMP JUMPDEST PUSH1 0x0 DUP2 DUP6 PUSH1 0x8 PUSH2 0x5D62 SWAP2 SWAP1 PUSH2 0x6CBE JUMP JUMPDEST PUSH2 0x5D6C SWAP2 SWAP1 PUSH2 0x6CBE JUMP JUMPDEST PUSH2 0x5E05 PUSH8 0xDE0B6B3A7640000 DUP6 DUP7 DUP8 PUSH2 0x5D85 SWAP2 SWAP1 PUSH2 0x6CBE JUMP JUMPDEST PUSH2 0x5D8F SWAP2 SWAP1 PUSH2 0x6CBE JUMP JUMPDEST PUSH1 0x0 PUSH2 0x5D9B SWAP2 SWAP1 PUSH2 0x6D18 JUMP JUMPDEST DUP6 DUP10 PUSH1 0x10 PUSH2 0x5DA9 SWAP2 SWAP1 PUSH2 0x6CBE JUMP JUMPDEST PUSH2 0x5DB3 SWAP2 SWAP1 PUSH2 0x6CBE JUMP JUMPDEST PUSH2 0x5DBD SWAP2 SWAP1 PUSH2 0x6CBE JUMP JUMPDEST PUSH2 0x5DC7 SWAP2 SWAP1 PUSH2 0x6CBE JUMP JUMPDEST PUSH1 0x2 DUP6 DUP7 DUP10 PUSH1 0x4 PUSH2 0x5DD8 SWAP2 SWAP1 PUSH2 0x6CBE JUMP JUMPDEST PUSH2 0x5DE2 SWAP2 SWAP1 PUSH2 0x6CBE JUMP JUMPDEST PUSH2 0x5DEC SWAP2 SWAP1 PUSH2 0x6CBE JUMP JUMPDEST PUSH2 0x5DF6 SWAP2 SWAP1 PUSH2 0x6BA0 JUMP JUMPDEST PUSH2 0x5E00 SWAP2 SWAP1 PUSH2 0x6D18 JUMP JUMPDEST PUSH2 0x5FB4 JUMP JUMPDEST DUP4 DUP5 DUP8 PUSH1 0x4 PUSH2 0x5E14 SWAP2 SWAP1 PUSH2 0x6CBE JUMP JUMPDEST PUSH2 0x5E1E SWAP2 SWAP1 PUSH2 0x6CBE JUMP JUMPDEST PUSH2 0x5E28 SWAP2 SWAP1 PUSH2 0x6CBE JUMP JUMPDEST PUSH1 0x0 PUSH2 0x5E34 SWAP2 SWAP1 PUSH2 0x6D18 JUMP JUMPDEST PUSH2 0x5E3E SWAP2 SWAP1 PUSH2 0x6AC6 JUMP JUMPDEST PUSH2 0x5E48 SWAP2 SWAP1 PUSH2 0x6B1C JUMP JUMPDEST SWAP1 POP SWAP5 SWAP4 POP POP POP POP JUMP JUMPDEST PUSH1 0x0 PUSH1 0x8 DUP3 GT ISZERO PUSH2 0x5ED0 JUMPI DUP2 SWAP1 POP PUSH1 0x0 PUSH1 0x1 PUSH1 0x3 DUP5 PUSH2 0x5E71 SWAP2 SWAP1 PUSH2 0x6B1C JUMP JUMPDEST PUSH2 0x5E7B SWAP2 SWAP1 PUSH2 0x6AC6 JUMP JUMPDEST SWAP1 POP JUMPDEST DUP2 DUP2 LT ISZERO PUSH2 0x5ECA JUMPI DUP1 SWAP2 POP PUSH1 0x3 DUP2 PUSH1 0x2 PUSH2 0x5E98 SWAP2 SWAP1 PUSH2 0x6CBE JUMP JUMPDEST DUP3 DUP4 PUSH2 0x5EA4 SWAP2 SWAP1 PUSH2 0x6CBE JUMP JUMPDEST DUP6 PUSH2 0x5EAF SWAP2 SWAP1 PUSH2 0x6B1C JUMP JUMPDEST PUSH2 0x5EB9 SWAP2 SWAP1 PUSH2 0x6AC6 JUMP JUMPDEST PUSH2 0x5EC3 SWAP2 SWAP1 PUSH2 0x6B1C JUMP JUMPDEST SWAP1 POP PUSH2 0x5E7E JUMP JUMPDEST POP PUSH2 0x5EDE JUMP JUMPDEST PUSH1 0x0 DUP3 EQ PUSH2 0x5EDD JUMPI PUSH1 0x1 SWAP1 POP JUMPDEST JUMPDEST SWAP2 SWAP1 POP JUMP JUMPDEST PUSH1 0x0 DUP3 DUP5 PUSH2 0x5EF1 SWAP2 SWAP1 PUSH2 0x6D18 JUMP JUMPDEST PUSH8 0xDE0B6B3A7640000 DUP5 PUSH1 0x2 PUSH2 0x5F07 SWAP2 SWAP1 PUSH2 0x6CBE JUMP JUMPDEST DUP6 DUP8 PUSH1 0x4 DUP8 DUP9 DUP10 PUSH2 0x5F18 SWAP2 SWAP1 PUSH2 0x6CBE JUMP JUMPDEST PUSH2 0x5F22 SWAP2 SWAP1 PUSH2 0x6CBE JUMP JUMPDEST PUSH2 0x5F2C SWAP2 SWAP1 PUSH2 0x6B1C JUMP JUMPDEST PUSH2 0x5F36 SWAP2 SWAP1 PUSH2 0x6B1C JUMP JUMPDEST PUSH2 0x5F40 SWAP2 SWAP1 PUSH2 0x6B1C JUMP JUMPDEST PUSH2 0x5F4A SWAP2 SWAP1 PUSH2 0x6D18 JUMP JUMPDEST PUSH2 0x5F54 SWAP2 SWAP1 PUSH2 0x6CBE JUMP JUMPDEST PUSH2 0x5F5E SWAP2 SWAP1 PUSH2 0x6B1C JUMP JUMPDEST SWAP1 POP SWAP4 SWAP3 POP POP POP JUMP JUMPDEST PUSH1 0x0 DUP2 PUSH2 0xE100 DUP6 DUP6 PUSH2 0x5F79 SWAP2 SWAP1 PUSH2 0x6AC6 JUMP JUMPDEST PUSH8 0xDE0B6B3A7640000 DUP8 PUSH2 0x5F8D SWAP2 SWAP1 PUSH2 0x6CBE JUMP JUMPDEST PUSH2 0x5F97 SWAP2 SWAP1 PUSH2 0x6B1C JUMP JUMPDEST PUSH2 0x5FA1 SWAP2 SWAP1 PUSH2 0x6B1C JUMP JUMPDEST PUSH2 0x5FAB SWAP2 SWAP1 PUSH2 0x6AC6 JUMP JUMPDEST SWAP1 POP SWAP4 SWAP3 POP POP POP JUMP JUMPDEST PUSH1 0x0 PUSH1 0x3 DUP3 GT ISZERO PUSH2 0x601B JUMPI DUP2 SWAP1 POP PUSH1 0x0 PUSH1 0x1 PUSH1 0x2 DUP5 PUSH2 0x5FD3 SWAP2 SWAP1 PUSH2 0x6B1C JUMP JUMPDEST PUSH2 0x5FDD SWAP2 SWAP1 PUSH2 0x6AC6 JUMP JUMPDEST SWAP1 POP JUMPDEST DUP2 DUP2 LT ISZERO PUSH2 0x6015 JUMPI DUP1 SWAP2 POP PUSH1 0x2 DUP2 DUP3 DUP6 PUSH2 0x5FFA SWAP2 SWAP1 PUSH2 0x6B1C JUMP JUMPDEST PUSH2 0x6004 SWAP2 SWAP1 PUSH2 0x6AC6 JUMP JUMPDEST PUSH2 0x600E SWAP2 SWAP1 PUSH2 0x6B1C JUMP JUMPDEST SWAP1 POP PUSH2 0x5FE0 JUMP JUMPDEST POP PUSH2 0x6029 JUMP JUMPDEST PUSH1 0x0 DUP3 EQ PUSH2 0x6028 JUMPI PUSH1 0x1 SWAP1 POP JUMPDEST JUMPDEST SWAP2 SWAP1 POP JUMP JUMPDEST POP PUSH1 0x0 DUP2 SSTORE PUSH1 0x1 ADD PUSH1 0x0 SWAP1 SSTORE JUMP JUMPDEST PUSH1 0x0 DUP2 CALLDATALOAD SWAP1 POP PUSH2 0x604B DUP2 PUSH2 0x70CD JUMP JUMPDEST SWAP3 SWAP2 POP POP JUMP JUMPDEST PUSH1 0x0 DUP2 CALLDATALOAD SWAP1 POP PUSH2 0x6060 DUP2 PUSH2 0x70E4 JUMP JUMPDEST SWAP3 SWAP2 POP POP JUMP JUMPDEST PUSH1 0x0 DUP2 MLOAD SWAP1 POP PUSH2 0x6075 DUP2 PUSH2 0x70E4 JUMP JUMPDEST SWAP3 SWAP2 POP POP JUMP JUMPDEST PUSH1 0x0 DUP2 CALLDATALOAD SWAP1 POP PUSH2 0x608A DUP2 PUSH2 0x70FB JUMP JUMPDEST SWAP3 SWAP2 POP POP JUMP JUMPDEST PUSH1 0x0 DUP2 CALLDATALOAD SWAP1 POP PUSH2 0x609F DUP2 PUSH2 0x7112 JUMP JUMPDEST SWAP3 SWAP2 POP POP JUMP JUMPDEST PUSH1 0x0 DUP2 MLOAD SWAP1 POP PUSH2 0x60B4 DUP2 PUSH2 0x7112 JUMP JUMPDEST SWAP3 SWAP2 POP POP JUMP JUMPDEST PUSH1 0x0 DUP2 CALLDATALOAD SWAP1 POP PUSH2 0x60C9 DUP2 PUSH2 0x7129 JUMP JUMPDEST SWAP3 SWAP2 POP POP JUMP JUMPDEST PUSH1 0x0 PUSH1 0x20 DUP3 DUP5 SUB SLT ISZERO PUSH2 0x60E5 JUMPI PUSH2 0x60E4 PUSH2 0x6EBE JUMP JUMPDEST JUMPDEST PUSH1 0x0 PUSH2 0x60F3 DUP5 DUP3 DUP6 ADD PUSH2 0x603C JUMP JUMPDEST SWAP2 POP POP SWAP3 SWAP2 POP POP JUMP JUMPDEST PUSH1 0x0 DUP1 PUSH1 0x40 DUP4 DUP6 SUB SLT ISZERO PUSH2 0x6113 JUMPI PUSH2 0x6112 PUSH2 0x6EBE JUMP JUMPDEST JUMPDEST PUSH1 0x0 PUSH2 0x6121 DUP6 DUP3 DUP7 ADD PUSH2 0x603C JUMP JUMPDEST SWAP3 POP POP PUSH1 0x20 PUSH2 0x6132 DUP6 DUP3 DUP7 ADD PUSH2 0x603C JUMP JUMPDEST SWAP2 POP POP SWAP3 POP SWAP3 SWAP1 POP JUMP JUMPDEST PUSH1 0x0 DUP1 PUSH1 0x0 PUSH1 0x60 DUP5 DUP7 SUB SLT ISZERO PUSH2 0x6155 JUMPI PUSH2 0x6154 PUSH2 0x6EBE JUMP JUMPDEST JUMPDEST PUSH1 0x0 PUSH2 0x6163 DUP7 DUP3 DUP8 ADD PUSH2 0x603C JUMP JUMPDEST SWAP4 POP POP PUSH1 0x20 PUSH2 0x6174 DUP7 DUP3 DUP8 ADD PUSH2 0x603C JUMP JUMPDEST SWAP3 POP POP PUSH1 0x40 PUSH2 0x6185 DUP7 DUP3 DUP8 ADD PUSH2 0x6090 JUMP JUMPDEST SWAP2 POP POP SWAP3 POP SWAP3 POP SWAP3 JUMP JUMPDEST PUSH1 0x0 DUP1 PUSH1 0x0 DUP1 PUSH1 0x0 DUP1 PUSH1 0x0 PUSH1 0xE0 DUP9 DUP11 SUB SLT ISZERO PUSH2 0x61AE JUMPI PUSH2 0x61AD PUSH2 0x6EBE JUMP JUMPDEST JUMPDEST PUSH1 0x0 PUSH2 0x61BC DUP11 DUP3 DUP12 ADD PUSH2 0x603C JUMP JUMPDEST SWAP8 POP POP PUSH1 0x20 PUSH2 0x61CD DUP11 DUP3 DUP12 ADD PUSH2 0x603C JUMP JUMPDEST SWAP7 POP POP PUSH1 0x40 PUSH2 0x61DE DUP11 DUP3 DUP12 ADD PUSH2 0x6090 JUMP JUMPDEST SWAP6 POP POP PUSH1 0x60 PUSH2 0x61EF DUP11 DUP3 DUP12 ADD PUSH2 0x6090 JUMP JUMPDEST SWAP5 POP POP PUSH1 0x80 PUSH2 0x6200 DUP11 DUP3 DUP12 ADD PUSH2 0x60BA JUMP JUMPDEST SWAP4 POP POP PUSH1 0xA0 PUSH2 0x6211 DUP11 DUP3 DUP12 ADD PUSH2 0x607B JUMP JUMPDEST SWAP3 POP POP PUSH1 0xC0 PUSH2 0x6222 DUP11 DUP3 DUP12 ADD PUSH2 0x607B JUMP JUMPDEST SWAP2 POP POP SWAP3 SWAP6 SWAP9 SWAP2 SWAP5 SWAP8 POP SWAP3 SWAP6 POP JUMP JUMPDEST PUSH1 0x0 DUP1 PUSH1 0x40 DUP4 DUP6 SUB SLT ISZERO PUSH2 0x6248 JUMPI PUSH2 0x6247 PUSH2 0x6EBE JUMP JUMPDEST JUMPDEST PUSH1 0x0 PUSH2 0x6256 DUP6 DUP3 DUP7 ADD PUSH2 0x603C JUMP JUMPDEST SWAP3 POP POP PUSH1 0x20 PUSH2 0x6267 DUP6 DUP3 DUP7 ADD PUSH2 0x6051 JUMP JUMPDEST SWAP2 POP POP SWAP3 POP SWAP3 SWAP1 POP JUMP JUMPDEST PUSH1 0x0 DUP1 PUSH1 0x40 DUP4 DUP6 SUB SLT ISZERO PUSH2 0x6288 JUMPI PUSH2 0x6287 PUSH2 0x6EBE JUMP JUMPDEST JUMPDEST PUSH1 0x0 PUSH2 0x6296 DUP6 DUP3 DUP7 ADD PUSH2 0x603C JUMP JUMPDEST SWAP3 POP POP PUSH1 0x20 PUSH2 0x62A7 DUP6 DUP3 DUP7 ADD PUSH2 0x6090 JUMP JUMPDEST SWAP2 POP POP SWAP3 POP SWAP3 SWAP1 POP JUMP JUMPDEST PUSH1 0x0 DUP1 PUSH1 0x0 PUSH1 0x60 DUP5 DUP7 SUB SLT ISZERO PUSH2 0x62CA JUMPI PUSH2 0x62C9 PUSH2 0x6EBE JUMP JUMPDEST JUMPDEST PUSH1 0x0 PUSH2 0x62D8 DUP7 DUP3 DUP8 ADD PUSH2 0x603C JUMP JUMPDEST SWAP4 POP POP PUSH1 0x20 PUSH2 0x62E9 DUP7 DUP3 DUP8 ADD PUSH2 0x6090 JUMP JUMPDEST SWAP3 POP POP PUSH1 0x40 PUSH2 0x62FA DUP7 DUP3 DUP8 ADD PUSH2 0x6090 JUMP JUMPDEST SWAP2 POP POP SWAP3 POP SWAP3 POP SWAP3 JUMP JUMPDEST PUSH1 0x0 PUSH1 0x20 DUP3 DUP5 SUB SLT ISZERO PUSH2 0x631A JUMPI PUSH2 0x6319 PUSH2 0x6EBE JUMP JUMPDEST JUMPDEST PUSH1 0x0 PUSH2 0x6328 DUP5 DUP3 DUP6 ADD PUSH2 0x6066 JUMP JUMPDEST SWAP2 POP POP SWAP3 SWAP2 POP POP JUMP JUMPDEST PUSH1 0x0 PUSH1 0x20 DUP3 DUP5 SUB SLT ISZERO PUSH2 0x6347 JUMPI PUSH2 0x6346 PUSH2 0x6EBE JUMP JUMPDEST JUMPDEST PUSH1 0x0 PUSH2 0x6355 DUP5 DUP3 DUP6 ADD PUSH2 0x6090 JUMP JUMPDEST SWAP2 POP POP SWAP3 SWAP2 POP POP JUMP JUMPDEST PUSH1 0x0 PUSH1 0x20 DUP3 DUP5 SUB SLT ISZERO PUSH2 0x6374 JUMPI PUSH2 0x6373 PUSH2 0x6EBE JUMP JUMPDEST JUMPDEST PUSH1 0x0 PUSH2 0x6382 DUP5 DUP3 DUP6 ADD PUSH2 0x60A5 JUMP JUMPDEST SWAP2 POP POP SWAP3 SWAP2 POP POP JUMP JUMPDEST PUSH1 0x0 DUP1 PUSH1 0x40 DUP4 DUP6 SUB SLT ISZERO PUSH2 0x63A2 JUMPI PUSH2 0x63A1 PUSH2 0x6EBE JUMP JUMPDEST JUMPDEST PUSH1 0x0 PUSH2 0x63B0 DUP6 DUP3 DUP7 ADD PUSH2 0x6090 JUMP JUMPDEST SWAP3 POP POP PUSH1 0x20 PUSH2 0x63C1 DUP6 DUP3 DUP7 ADD PUSH2 0x603C JUMP JUMPDEST SWAP2 POP POP SWAP3 POP SWAP3 SWAP1 POP JUMP JUMPDEST PUSH1 0x0 DUP1 PUSH1 0x0 PUSH1 0x60 DUP5 DUP7 SUB SLT ISZERO PUSH2 0x63E4 JUMPI PUSH2 0x63E3 PUSH2 0x6EBE JUMP JUMPDEST JUMPDEST PUSH1 0x0 PUSH2 0x63F2 DUP7 DUP3 DUP8 ADD PUSH2 0x6090 JUMP JUMPDEST SWAP4 POP POP PUSH1 0x20 PUSH2 0x6403 DUP7 DUP3 DUP8 ADD PUSH2 0x6090 JUMP JUMPDEST SWAP3 POP POP PUSH1 0x40 PUSH2 0x6414 DUP7 DUP3 DUP8 ADD PUSH2 0x603C JUMP JUMPDEST SWAP2 POP POP SWAP3 POP SWAP3 POP SWAP3 JUMP JUMPDEST PUSH1 0x0 DUP1 PUSH1 0x0 DUP1 PUSH1 0x80 DUP6 DUP8 SUB SLT ISZERO PUSH2 0x6438 JUMPI PUSH2 0x6437 PUSH2 0x6EBE JUMP JUMPDEST JUMPDEST PUSH1 0x0 PUSH2 0x6446 DUP8 DUP3 DUP9 ADD PUSH2 0x6090 JUMP JUMPDEST SWAP5 POP POP PUSH1 0x20 PUSH2 0x6457 DUP8 DUP3 DUP9 ADD PUSH2 0x6090 JUMP JUMPDEST SWAP4 POP POP PUSH1 0x40 PUSH2 0x6468 DUP8 DUP3 DUP9 ADD PUSH2 0x6051 JUMP JUMPDEST SWAP3 POP POP PUSH1 0x60 PUSH2 0x6479 DUP8 DUP3 DUP9 ADD PUSH2 0x603C JUMP JUMPDEST SWAP2 POP POP SWAP3 SWAP6 SWAP2 SWAP5 POP SWAP3 POP JUMP JUMPDEST PUSH2 0x648E DUP2 PUSH2 0x6D4C JUMP JUMPDEST DUP3 MSTORE POP POP JUMP JUMPDEST PUSH2 0x649D DUP2 PUSH2 0x6D5E JUMP JUMPDEST DUP3 MSTORE POP POP JUMP JUMPDEST PUSH2 0x64AC DUP2 PUSH2 0x6D6A JUMP JUMPDEST DUP3 MSTORE POP POP JUMP JUMPDEST PUSH2 0x64C3 PUSH2 0x64BE DUP3 PUSH2 0x6D6A JUMP JUMPDEST PUSH2 0x6E27 JUMP JUMPDEST DUP3 MSTORE POP POP JUMP JUMPDEST PUSH1 0x0 PUSH2 0x64D4 DUP3 PUSH2 0x6A89 JUMP JUMPDEST PUSH2 0x64DE DUP2 DUP6 PUSH2 0x6A9F JUMP JUMPDEST SWAP4 POP PUSH2 0x64EE DUP2 DUP6 PUSH1 0x20 DUP7 ADD PUSH2 0x6DAB JUMP JUMPDEST DUP1 DUP5 ADD SWAP2 POP POP SWAP3 SWAP2 POP POP JUMP JUMPDEST PUSH1 0x0 PUSH2 0x6505 DUP3 PUSH2 0x6A94 JUMP JUMPDEST PUSH2 0x650F DUP2 DUP6 PUSH2 0x6AAA JUMP JUMPDEST SWAP4 POP PUSH2 0x651F DUP2 DUP6 PUSH1 0x20 DUP7 ADD PUSH2 0x6DAB JUMP JUMPDEST PUSH2 0x6528 DUP2 PUSH2 0x6EC3 JUMP JUMPDEST DUP5 ADD SWAP2 POP POP SWAP3 SWAP2 POP POP JUMP JUMPDEST PUSH1 0x0 PUSH2 0x6540 PUSH1 0x15 DUP4 PUSH2 0x6AAA JUMP JUMPDEST SWAP2 POP PUSH2 0x654B DUP3 PUSH2 0x6EE1 JUMP JUMPDEST PUSH1 0x20 DUP3 ADD SWAP1 POP SWAP2 SWAP1 POP JUMP JUMPDEST PUSH1 0x0 PUSH2 0x6563 PUSH1 0x20 DUP4 PUSH2 0x6AAA JUMP JUMPDEST SWAP2 POP PUSH2 0x656E DUP3 PUSH2 0x6F0A JUMP JUMPDEST PUSH1 0x20 DUP3 ADD SWAP1 POP SWAP2 SWAP1 POP JUMP JUMPDEST PUSH1 0x0 PUSH2 0x6586 PUSH1 0x12 DUP4 PUSH2 0x6AAA JUMP JUMPDEST SWAP2 POP PUSH2 0x6591 DUP3 PUSH2 0x6F33 JUMP JUMPDEST PUSH1 0x20 DUP3 ADD SWAP1 POP SWAP2 SWAP1 POP JUMP JUMPDEST PUSH1 0x0 PUSH2 0x65A9 PUSH1 0x10 DUP4 PUSH2 0x6AAA JUMP JUMPDEST SWAP2 POP PUSH2 0x65B4 DUP3 PUSH2 0x6F5C JUMP JUMPDEST PUSH1 0x20 DUP3 ADD SWAP1 POP SWAP2 SWAP1 POP JUMP JUMPDEST PUSH1 0x0 PUSH2 0x65CC PUSH1 0x1C DUP4 PUSH2 0x6AAA JUMP JUMPDEST SWAP2 POP PUSH2 0x65D7 DUP3 PUSH2 0x6F85 JUMP JUMPDEST PUSH1 0x20 DUP3 ADD SWAP1 POP SWAP2 SWAP1 POP JUMP JUMPDEST PUSH1 0x0 PUSH2 0x65EF PUSH1 0x2 DUP4 PUSH2 0x6ABB JUMP JUMPDEST SWAP2 POP PUSH2 0x65FA DUP3 PUSH2 0x6FAE JUMP JUMPDEST PUSH1 0x2 DUP3 ADD SWAP1 POP SWAP2 SWAP1 POP JUMP JUMPDEST PUSH1 0x0 PUSH2 0x6612 PUSH1 0x14 DUP4 PUSH2 0x6AAA JUMP JUMPDEST SWAP2 POP PUSH2 0x661D DUP3 PUSH2 0x6FD7 JUMP JUMPDEST PUSH1 0x20 DUP3 ADD SWAP1 POP SWAP2 SWAP1 POP JUMP JUMPDEST PUSH1 0x0 PUSH2 0x6635 PUSH1 0x12 DUP4 PUSH2 0x6AAA JUMP JUMPDEST SWAP2 POP PUSH2 0x6640 DUP3 PUSH2 0x7000 JUMP JUMPDEST PUSH1 0x20 DUP3 ADD SWAP1 POP SWAP2 SWAP1 POP JUMP JUMPDEST PUSH1 0x0 PUSH2 0x6658 PUSH1 0x9 DUP4 PUSH2 0x6AAA JUMP JUMPDEST SWAP2 POP PUSH2 0x6663 DUP3 PUSH2 0x7029 JUMP JUMPDEST PUSH1 0x20 DUP3 ADD SWAP1 POP SWAP2 SWAP1 POP JUMP JUMPDEST PUSH1 0x0 PUSH2 0x667B PUSH1 0xF DUP4 PUSH2 0x6AAA JUMP JUMPDEST SWAP2 POP PUSH2 0x6686 DUP3 PUSH2 0x7052 JUMP JUMPDEST PUSH1 0x20 DUP3 ADD SWAP1 POP SWAP2 SWAP1 POP JUMP JUMPDEST PUSH1 0x0 PUSH2 0x669E PUSH1 0x18 DUP4 PUSH2 0x6AAA JUMP JUMPDEST SWAP2 POP PUSH2 0x66A9 DUP3 PUSH2 0x707B JUMP JUMPDEST PUSH1 0x20 DUP3 ADD SWAP1 POP SWAP2 SWAP1 POP JUMP JUMPDEST PUSH1 0x0 PUSH2 0x66C1 PUSH1 0x6 DUP4 PUSH2 0x6AAA JUMP JUMPDEST SWAP2 POP PUSH2 0x66CC DUP3 PUSH2 0x70A4 JUMP JUMPDEST PUSH1 0x20 DUP3 ADD SWAP1 POP SWAP2 SWAP1 POP JUMP JUMPDEST PUSH2 0x66E0 DUP2 PUSH2 0x6D94 JUMP JUMPDEST DUP3 MSTORE POP POP JUMP JUMPDEST PUSH2 0x66EF DUP2 PUSH2 0x6D9E JUMP JUMPDEST DUP3 MSTORE POP POP JUMP JUMPDEST PUSH1 0x0 PUSH2 0x6701 DUP3 DUP5 PUSH2 0x64C9 JUMP JUMPDEST SWAP2 POP DUP2 SWAP1 POP SWAP3 SWAP2 POP POP JUMP JUMPDEST PUSH1 0x0 PUSH2 0x6717 DUP3 PUSH2 0x65E2 JUMP JUMPDEST SWAP2 POP PUSH2 0x6723 DUP3 DUP6 PUSH2 0x64B2 JUMP JUMPDEST PUSH1 0x20 DUP3 ADD SWAP2 POP PUSH2 0x6733 DUP3 DUP5 PUSH2 0x64B2 JUMP JUMPDEST PUSH1 0x20 DUP3 ADD SWAP2 POP DUP2 SWAP1 POP SWAP4 SWAP3 POP POP POP JUMP JUMPDEST PUSH1 0x0 PUSH1 0x20 DUP3 ADD SWAP1 POP PUSH2 0x6758 PUSH1 0x0 DUP4 ADD DUP5 PUSH2 0x6485 JUMP JUMPDEST SWAP3 SWAP2 POP POP JUMP JUMPDEST PUSH1 0x0 PUSH1 0x80 DUP3 ADD SWAP1 POP PUSH2 0x6773 PUSH1 0x0 DUP4 ADD DUP8 PUSH2 0x6485 JUMP JUMPDEST PUSH2 0x6780 PUSH1 0x20 DUP4 ADD DUP7 PUSH2 0x6494 JUMP JUMPDEST PUSH2 0x678D PUSH1 0x40 DUP4 ADD DUP6 PUSH2 0x66D7 JUMP JUMPDEST PUSH2 0x679A PUSH1 0x60 DUP4 ADD DUP5 PUSH2 0x66D7 JUMP JUMPDEST SWAP6 SWAP5 POP POP POP POP POP JUMP JUMPDEST PUSH1 0x0 PUSH1 0x40 DUP3 ADD SWAP1 POP PUSH2 0x67B8 PUSH1 0x0 DUP4 ADD DUP6 PUSH2 0x6485 JUMP JUMPDEST PUSH2 0x67C5 PUSH1 0x20 DUP4 ADD DUP5 PUSH2 0x66D7 JUMP JUMPDEST SWAP4 SWAP3 POP POP POP JUMP JUMPDEST PUSH1 0x0 PUSH1 0x20 DUP3 ADD SWAP1 POP PUSH2 0x67E1 PUSH1 0x0 DUP4 ADD DUP5 PUSH2 0x6494 JUMP JUMPDEST SWAP3 SWAP2 POP POP JUMP JUMPDEST PUSH1 0x0 PUSH1 0x20 DUP3 ADD SWAP1 POP PUSH2 0x67FC PUSH1 0x0 DUP4 ADD DUP5 PUSH2 0x64A3 JUMP JUMPDEST SWAP3 SWAP2 POP POP JUMP JUMPDEST PUSH1 0x0 PUSH1 0xC0 DUP3 ADD SWAP1 POP PUSH2 0x6817 PUSH1 0x0 DUP4 ADD DUP10 PUSH2 0x64A3 JUMP JUMPDEST PUSH2 0x6824 PUSH1 0x20 DUP4 ADD DUP9 PUSH2 0x6485 JUMP JUMPDEST PUSH2 0x6831 PUSH1 0x40 DUP4 ADD DUP8 PUSH2 0x6485 JUMP JUMPDEST PUSH2 0x683E PUSH1 0x60 DUP4 ADD DUP7 PUSH2 0x66D7 JUMP JUMPDEST PUSH2 0x684B PUSH1 0x80 DUP4 ADD DUP6 PUSH2 0x66D7 JUMP JUMPDEST PUSH2 0x6858 PUSH1 0xA0 DUP4 ADD DUP5 PUSH2 0x66D7 JUMP JUMPDEST SWAP8 SWAP7 POP POP POP POP POP POP POP JUMP JUMPDEST PUSH1 0x0 PUSH1 0x80 DUP3 ADD SWAP1 POP PUSH2 0x6878 PUSH1 0x0 DUP4 ADD DUP8 PUSH2 0x64A3 JUMP JUMPDEST PUSH2 0x6885 PUSH1 0x20 DUP4 ADD DUP7 PUSH2 0x66E6 JUMP JUMPDEST PUSH2 0x6892 PUSH1 0x40 DUP4 ADD DUP6 PUSH2 0x64A3 JUMP JUMPDEST PUSH2 0x689F PUSH1 0x60 DUP4 ADD DUP5 PUSH2 0x64A3 JUMP JUMPDEST SWAP6 SWAP5 POP POP POP POP POP JUMP JUMPDEST PUSH1 0x0 PUSH1 0x20 DUP3 ADD SWAP1 POP DUP2 DUP2 SUB PUSH1 0x0 DUP4 ADD MSTORE PUSH2 0x68C2 DUP2 DUP5 PUSH2 0x64FA JUMP JUMPDEST SWAP1 POP SWAP3 SWAP2 POP POP JUMP JUMPDEST PUSH1 0x0 PUSH1 0x20 DUP3 ADD SWAP1 POP DUP2 DUP2 SUB PUSH1 0x0 DUP4 ADD MSTORE PUSH2 0x68E3 DUP2 PUSH2 0x6533 JUMP JUMPDEST SWAP1 POP SWAP2 SWAP1 POP JUMP JUMPDEST PUSH1 0x0 PUSH1 0x20 DUP3 ADD SWAP1 POP DUP2 DUP2 SUB PUSH1 0x0 DUP4 ADD MSTORE PUSH2 0x6903 DUP2 PUSH2 0x6556 JUMP JUMPDEST SWAP1 POP SWAP2 SWAP1 POP JUMP JUMPDEST PUSH1 0x0 PUSH1 0x20 DUP3 ADD SWAP1 POP DUP2 DUP2 SUB PUSH1 0x0 DUP4 ADD MSTORE PUSH2 0x6923 DUP2 PUSH2 0x6579 JUMP JUMPDEST SWAP1 POP SWAP2 SWAP1 POP JUMP JUMPDEST PUSH1 0x0 PUSH1 0x20 DUP3 ADD SWAP1 POP DUP2 DUP2 SUB PUSH1 0x0 DUP4 ADD MSTORE PUSH2 0x6943 DUP2 PUSH2 0x659C JUMP JUMPDEST SWAP1 POP SWAP2 SWAP1 POP JUMP JUMPDEST PUSH1 0x0 PUSH1 0x20 DUP3 ADD SWAP1 POP DUP2 DUP2 SUB PUSH1 0x0 DUP4 ADD MSTORE PUSH2 0x6963 DUP2 PUSH2 0x65BF JUMP JUMPDEST SWAP1 POP SWAP2 SWAP1 POP JUMP JUMPDEST PUSH1 0x0 PUSH1 0x20 DUP3 ADD SWAP1 POP DUP2 DUP2 SUB PUSH1 0x0 DUP4 ADD MSTORE PUSH2 0x6983 DUP2 PUSH2 0x6605 JUMP JUMPDEST SWAP1 POP SWAP2 SWAP1 POP JUMP JUMPDEST PUSH1 0x0 PUSH1 0x20 DUP3 ADD SWAP1 POP DUP2 DUP2 SUB PUSH1 0x0 DUP4 ADD MSTORE PUSH2 0x69A3 DUP2 PUSH2 0x6628 JUMP JUMPDEST SWAP1 POP SWAP2 SWAP1 POP JUMP JUMPDEST PUSH1 0x0 PUSH1 0x20 DUP3 ADD SWAP1 POP DUP2 DUP2 SUB PUSH1 0x0 DUP4 ADD MSTORE PUSH2 0x69C3 DUP2 PUSH2 0x664B JUMP JUMPDEST SWAP1 POP SWAP2 SWAP1 POP JUMP JUMPDEST PUSH1 0x0 PUSH1 0x20 DUP3 ADD SWAP1 POP DUP2 DUP2 SUB PUSH1 0x0 DUP4 ADD MSTORE PUSH2 0x69E3 DUP2 PUSH2 0x666E JUMP JUMPDEST SWAP1 POP SWAP2 SWAP1 POP JUMP JUMPDEST PUSH1 0x0 PUSH1 0x20 DUP3 ADD SWAP1 POP DUP2 DUP2 SUB PUSH1 0x0 DUP4 ADD MSTORE PUSH2 0x6A03 DUP2 PUSH2 0x6691 JUMP JUMPDEST SWAP1 POP SWAP2 SWAP1 POP JUMP JUMPDEST PUSH1 0x0 PUSH1 0x20 DUP3 ADD SWAP1 POP DUP2 DUP2 SUB PUSH1 0x0 DUP4 ADD MSTORE PUSH2 0x6A23 DUP2 PUSH2 0x66B4 JUMP JUMPDEST SWAP1 POP SWAP2 SWAP1 POP JUMP JUMPDEST PUSH1 0x0 PUSH1 0x20 DUP3 ADD SWAP1 POP PUSH2 0x6A3F PUSH1 0x0 DUP4 ADD DUP5 PUSH2 0x66D7 JUMP JUMPDEST SWAP3 SWAP2 POP POP JUMP JUMPDEST PUSH1 0x0 PUSH1 0x40 DUP3 ADD SWAP1 POP PUSH2 0x6A5A PUSH1 0x0 DUP4 ADD DUP6 PUSH2 0x66D7 JUMP JUMPDEST PUSH2 0x6A67 PUSH1 0x20 DUP4 ADD DUP5 PUSH2 0x66D7 JUMP JUMPDEST SWAP4 SWAP3 POP POP POP JUMP JUMPDEST PUSH1 0x0 PUSH1 0x20 DUP3 ADD SWAP1 POP PUSH2 0x6A83 PUSH1 0x0 DUP4 ADD DUP5 PUSH2 0x66E6 JUMP JUMPDEST SWAP3 SWAP2 POP POP JUMP JUMPDEST PUSH1 0x0 DUP2 MLOAD SWAP1 POP SWAP2 SWAP1 POP JUMP JUMPDEST PUSH1 0x0 DUP2 MLOAD SWAP1 POP SWAP2 SWAP1 POP JUMP JUMPDEST PUSH1 0x0 DUP2 SWAP1 POP SWAP3 SWAP2 POP POP JUMP JUMPDEST PUSH1 0x0 DUP3 DUP3 MSTORE PUSH1 0x20 DUP3 ADD SWAP1 POP SWAP3 SWAP2 POP POP JUMP JUMPDEST PUSH1 0x0 DUP2 SWAP1 POP SWAP3 SWAP2 POP POP JUMP JUMPDEST PUSH1 0x0 PUSH2 0x6AD1 DUP3 PUSH2 0x6D94 JUMP JUMPDEST SWAP2 POP PUSH2 0x6ADC DUP4 PUSH2 0x6D94 JUMP JUMPDEST SWAP3 POP DUP3 PUSH32 0xFFFFFFFFFFFFFFFFFFFFFFFFFFFFFFFFFFFFFFFFFFFFFFFFFFFFFFFFFFFFFFFF SUB DUP3 GT ISZERO PUSH2 0x6B11 JUMPI PUSH2 0x6B10 PUSH2 0x6E31 JUMP JUMPDEST JUMPDEST DUP3 DUP3 ADD SWAP1 POP SWAP3 SWAP2 POP POP JUMP JUMPDEST PUSH1 0x0 PUSH2 0x6B27 DUP3 PUSH2 0x6D94 JUMP JUMPDEST SWAP2 POP PUSH2 0x6B32 DUP4 PUSH2 0x6D94 JUMP JUMPDEST SWAP3 POP DUP3 PUSH2 0x6B42 JUMPI PUSH2 0x6B41 PUSH2 0x6E60 JUMP JUMPDEST JUMPDEST DUP3 DUP3 DIV SWAP1 POP SWAP3 SWAP2 POP POP JUMP JUMPDEST PUSH1 0x0 DUP1 DUP3 SWAP2 POP DUP4 SWAP1 POP JUMPDEST PUSH1 0x1 DUP6 GT ISZERO PUSH2 0x6B97 JUMPI DUP1 DUP7 DIV DUP2 GT ISZERO PUSH2 0x6B73 JUMPI PUSH2 0x6B72 PUSH2 0x6E31 JUMP JUMPDEST JUMPDEST PUSH1 0x1 DUP6 AND ISZERO PUSH2 0x6B82 JUMPI DUP1 DUP3 MUL SWAP2 POP JUMPDEST DUP1 DUP2 MUL SWAP1 POP PUSH2 0x6B90 DUP6 PUSH2 0x6ED4 JUMP JUMPDEST SWAP5 POP PUSH2 0x6B57 JUMP JUMPDEST SWAP5 POP SWAP5 SWAP3 POP POP POP JUMP JUMPDEST PUSH1 0x0 PUSH2 0x6BAB DUP3 PUSH2 0x6D94 JUMP JUMPDEST SWAP2 POP PUSH2 0x6BB6 DUP4 PUSH2 0x6D9E JUMP JUMPDEST SWAP3 POP PUSH2 0x6BE3 PUSH32 0xFFFFFFFFFFFFFFFFFFFFFFFFFFFFFFFFFFFFFFFFFFFFFFFFFFFFFFFFFFFFFFFF DUP5 DUP5 PUSH2 0x6BEB JUMP JUMPDEST SWAP1 POP SWAP3 SWAP2 POP POP JUMP JUMPDEST PUSH1 0x0 DUP3 PUSH2 0x6BFB JUMPI PUSH1 0x1 SWAP1 POP PUSH2 0x6CB7 JUMP JUMPDEST DUP2 PUSH2 0x6C09 JUMPI PUSH1 0x0 SWAP1 POP PUSH2 0x6CB7 JUMP JUMPDEST DUP2 PUSH1 0x1 DUP2 EQ PUSH2 0x6C1F JUMPI PUSH1 0x2 DUP2 EQ PUSH2 0x6C29 JUMPI PUSH2 0x6C58 JUMP JUMPDEST PUSH1 0x1 SWAP2 POP POP PUSH2 0x6CB7 JUMP JUMPDEST PUSH1 0xFF DUP5 GT ISZERO PUSH2 0x6C3B JUMPI PUSH2 0x6C3A PUSH2 0x6E31 JUMP JUMPDEST JUMPDEST DUP4 PUSH1 0x2 EXP SWAP2 POP DUP5 DUP3 GT ISZERO PUSH2 0x6C52 JUMPI PUSH2 0x6C51 PUSH2 0x6E31 JUMP JUMPDEST JUMPDEST POP PUSH2 0x6CB7 JUMP JUMPDEST POP PUSH1 0x20 DUP4 LT PUSH2 0x133 DUP4 LT AND PUSH1 0x4E DUP5 LT PUSH1 0xB DUP5 LT AND OR ISZERO PUSH2 0x6C8D JUMPI DUP3 DUP3 EXP SWAP1 POP DUP4 DUP2 GT ISZERO PUSH2 0x6C88 JUMPI PUSH2 0x6C87 PUSH2 0x6E31 JUMP JUMPDEST JUMPDEST PUSH2 0x6CB7 JUMP JUMPDEST PUSH2 0x6C9A DUP5 DUP5 DUP5 PUSH1 0x1 PUSH2 0x6B4D JUMP JUMPDEST SWAP3 POP SWAP1 POP DUP2 DUP5 DIV DUP2 GT ISZERO PUSH2 0x6CB1 JUMPI PUSH2 0x6CB0 PUSH2 0x6E31 JUMP JUMPDEST JUMPDEST DUP2 DUP2 MUL SWAP1 POP JUMPDEST SWAP4 SWAP3 POP POP POP JUMP JUMPDEST PUSH1 0x0 PUSH2 0x6CC9 DUP3 PUSH2 0x6D94 JUMP JUMPDEST SWAP2 POP PUSH2 0x6CD4 DUP4 PUSH2 0x6D94 JUMP JUMPDEST SWAP3 POP DUP2 PUSH32 0xFFFFFFFFFFFFFFFFFFFFFFFFFFFFFFFFFFFFFFFFFFFFFFFFFFFFFFFFFFFFFFFF DIV DUP4 GT DUP3 ISZERO ISZERO AND ISZERO PUSH2 0x6D0D JUMPI PUSH2 0x6D0C PUSH2 0x6E31 JUMP JUMPDEST JUMPDEST DUP3 DUP3 MUL SWAP1 POP SWAP3 SWAP2 POP POP JUMP JUMPDEST PUSH1 0x0 PUSH2 0x6D23 DUP3 PUSH2 0x6D94 JUMP JUMPDEST SWAP2 POP PUSH2 0x6D2E DUP4 PUSH2 0x6D94 JUMP JUMPDEST SWAP3 POP DUP3 DUP3 LT ISZERO PUSH2 0x6D41 JUMPI PUSH2 0x6D40 PUSH2 0x6E31 JUMP JUMPDEST JUMPDEST DUP3 DUP3 SUB SWAP1 POP SWAP3 SWAP2 POP POP JUMP JUMPDEST PUSH1 0x0 PUSH2 0x6D57 DUP3 PUSH2 0x6D74 JUMP JUMPDEST SWAP1 POP SWAP2 SWAP1 POP JUMP JUMPDEST PUSH1 0x0 DUP2 ISZERO ISZERO SWAP1 POP SWAP2 SWAP1 POP JUMP JUMPDEST PUSH1 0x0 DUP2 SWAP1 POP SWAP2 SWAP1 POP JUMP JUMPDEST PUSH1 0x0 PUSH20 0xFFFFFFFFFFFFFFFFFFFFFFFFFFFFFFFFFFFFFFFF DUP3 AND SWAP1 POP SWAP2 SWAP1 POP JUMP JUMPDEST PUSH1 0x0 DUP2 SWAP1 POP SWAP2 SWAP1 POP JUMP JUMPDEST PUSH1 0x0 PUSH1 0xFF DUP3 AND SWAP1 POP SWAP2 SWAP1 POP JUMP JUMPDEST PUSH1 0x0 JUMPDEST DUP4 DUP2 LT ISZERO PUSH2 0x6DC9 JUMPI DUP1 DUP3 ADD MLOAD DUP2 DUP5 ADD MSTORE PUSH1 0x20 DUP2 ADD SWAP1 POP PUSH2 0x6DAE JUMP JUMPDEST DUP4 DUP2 GT ISZERO PUSH2 0x6DD8 JUMPI PUSH1 0x0 DUP5 DUP5 ADD MSTORE JUMPDEST POP POP POP POP JUMP JUMPDEST PUSH1 0x0 PUSH2 0x6DE9 DUP3 PUSH2 0x6D94 JUMP JUMPDEST SWAP2 POP PUSH32 0xFFFFFFFFFFFFFFFFFFFFFFFFFFFFFFFFFFFFFFFFFFFFFFFFFFFFFFFFFFFFFFFF DUP3 EQ ISZERO PUSH2 0x6E1C JUMPI PUSH2 0x6E1B PUSH2 0x6E31 JUMP JUMPDEST JUMPDEST PUSH1 0x1 DUP3 ADD SWAP1 POP SWAP2 SWAP1 POP JUMP JUMPDEST PUSH1 0x0 DUP2 SWAP1 POP SWAP2 SWAP1 POP JUMP JUMPDEST PUSH32 0x4E487B7100000000000000000000000000000000000000000000000000000000 PUSH1 0x0 MSTORE PUSH1 0x11 PUSH1 0x4 MSTORE PUSH1 0x24 PUSH1 0x0 REVERT JUMPDEST PUSH32 0x4E487B7100000000000000000000000000000000000000000000000000000000 PUSH1 0x0 MSTORE PUSH1 0x12 PUSH1 0x4 MSTORE PUSH1 0x24 PUSH1 0x0 REVERT JUMPDEST PUSH32 0x4E487B7100000000000000000000000000000000000000000000000000000000 PUSH1 0x0 MSTORE PUSH1 0x32 PUSH1 0x4 MSTORE PUSH1 0x24 PUSH1 0x0 REVERT JUMPDEST PUSH1 0x0 DUP1 REVERT JUMPDEST PUSH1 0x0 PUSH1 0x1F NOT PUSH1 0x1F DUP4 ADD AND SWAP1 POP SWAP2 SWAP1 POP JUMP JUMPDEST PUSH1 0x0 DUP2 PUSH1 0x1 SHR SWAP1 POP SWAP2 SWAP1 POP JUMP JUMPDEST PUSH32 0x64732D6D6174682D7375622D756E646572666C6F770000000000000000000000 PUSH1 0x0 DUP3 ADD MSTORE POP JUMP JUMPDEST PUSH32 0x51696C696E3A20494E53554646494349454E545F494E5055545F414D4F554E54 PUSH1 0x0 DUP3 ADD MSTORE POP JUMP JUMPDEST PUSH32 0x51496C696E3A20494E56414C49445F4F55540000000000000000000000000000 PUSH1 0x0 DUP3 ADD MSTORE POP JUMP JUMPDEST PUSH32 0x51696C696E3A20464F5242494444454E00000000000000000000000000000000 PUSH1 0x0 DUP3 ADD MSTORE POP JUMP JUMPDEST PUSH32 0x556E697377617056323A20494E56414C49445F5349474E415455524500000000 PUSH1 0x0 DUP3 ADD MSTORE POP JUMP JUMPDEST PUSH32 0x1901000000000000000000000000000000000000000000000000000000000000 PUSH1 0x0 DUP3 ADD MSTORE POP JUMP JUMPDEST PUSH32 0x64732D6D6174682D6164642D6F766572666C6F77000000000000000000000000 PUSH1 0x0 DUP3 ADD MSTORE POP JUMP JUMPDEST PUSH32 0x556E697377617056323A20455850495245440000000000000000000000000000 PUSH1 0x0 DUP3 ADD MSTORE POP JUMP JUMPDEST PUSH32 0x464F5242494444454E0000000000000000000000000000000000000000000000 PUSH1 0x0 DUP3 ADD MSTORE POP JUMP JUMPDEST PUSH32 0x5452414E534645525F4641494C45440000000000000000000000000000000000 PUSH1 0x0 DUP3 ADD MSTORE POP JUMP JUMPDEST PUSH32 0x51696C696E3A204E4F5420454E4F554748204D415247494E0000000000000000 PUSH1 0x0 DUP3 ADD MSTORE POP JUMP JUMPDEST PUSH32 0x4C4F434B45440000000000000000000000000000000000000000000000000000 PUSH1 0x0 DUP3 ADD MSTORE POP JUMP JUMPDEST PUSH2 0x70D6 DUP2 PUSH2 0x6D4C JUMP JUMPDEST DUP2 EQ PUSH2 0x70E1 JUMPI PUSH1 0x0 DUP1 REVERT JUMPDEST POP JUMP JUMPDEST PUSH2 0x70ED DUP2 PUSH2 0x6D5E JUMP JUMPDEST DUP2 EQ PUSH2 0x70F8 JUMPI PUSH1 0x0 DUP1 REVERT JUMPDEST POP JUMP JUMPDEST PUSH2 0x7104 DUP2 PUSH2 0x6D6A JUMP JUMPDEST DUP2 EQ PUSH2 0x710F JUMPI PUSH1 0x0 DUP1 REVERT JUMPDEST POP JUMP JUMPDEST PUSH2 0x711B DUP2 PUSH2 0x6D94 JUMP JUMPDEST DUP2 EQ PUSH2 0x7126 JUMPI PUSH1 0x0 DUP1 REVERT JUMPDEST POP JUMP JUMPDEST PUSH2 0x7132 DUP2 PUSH2 0x6D9E JUMP JUMPDEST DUP2 EQ PUSH2 0x713D JUMPI PUSH1 0x0 DUP1 REVERT JUMPDEST POP JUMP INVALID LOG2 PUSH5 0x6970667358 0x22 SLT KECCAK256 SWAP16 0x5E CREATE 0xC9 PUSH10 0x5F605B6C5E9D5B43EA6C 0x4C MSTORE 0xB9 LOG3 CALLDATACOPY CALLVALUE 0x4C DUP8 DUP3 JUMPI 0xA9 EXTCODECOPY CALLDATACOPY 0xA7 PC PUSH10 0xC564736F6C6343000807 STOP CALLER "
		},
		"gasEstimates": {
			"creation": {
				"codeDepositCost": "5809200",
				"executionCost": "infinite",
				"totalCost": "infinite"
			},
			"external": {
				"Add_Liquidity(uint256,uint256,address)": "infinite",
				"Add_Margin(address,address)": "infinite",
				"B()": "2520",
				"Base_rate()": "2564",
				"Burn_Liquidity(uint256,address)": "infinite",
				"C()": "2519",
				"D()": "2542",
				"D0()": "2517",
				"DOMAIN_SEPARATOR()": "2564",
				"Leverage_Margin()": "2563",
				"Leverage_Max()": "2520",
				"Liquidate(address,address)": "infinite",
				"Liquidation_bonus()": "2495",
				"Liquidation_rate()": "2563",
				"Margin_reserve(uint256)": "infinite",
				"N()": "2496",
				"N_Last()": "2562",
				"PERMIT_TYPEHASH()": "491",
				"Peqx()": "2499",
				"Peqy()": "2561",
				"Perp_biopen(uint256,uint256,address)": "infinite",
				"Perp_close(uint256,uint256,address)": "infinite",
				"Perp_open(uint256,uint256,bool,address)": "infinite",
				"Price_local()": "2541",
				"Set_LeverageMargin(uint256)": "24779",
				"Set_LeverageMax(uint256)": "24803",
				"Set_Liquidation_rate(uint256)": "24844",
				"Set_fundingrate_upper(uint256)": "24781",
				"Tick_range()": "2540",
				"Total_Liquidity()": "2563",
				"Total_debt_X()": "2564",
				"Total_debt_Y()": "2497",
				"Total_debttoken_X()": "2540",
				"Total_debttoken_Y()": "2564",
				"True_Liquid_X()": "2497",
				"True_Liquid_X0()": "2584",
				"True_Liquid_Y()": "2519",
				"True_Liquid_Y0()": "2562",
				"X_Coord()": "2541",
				"X_Coord_Last()": "2498",
				"Xeq()": "2497",
				"Xgetp()": "2518",
				"Y_Coord()": "2497",
				"Y_Coord_Last()": "2563",
				"Yeq()": "2497",
				"Ygetp()": "2518",
				"allowance(address,address)": "infinite",
				"approve(address,uint256)": "infinite",
				"balanceOf(address)": "2947",
				"const18()": "2498",
				"debt_index(address,bool)": "infinite",
				"decimals()": "404",
				"factory()": "2626",
				"fee()": "2496",
				"funding_Last()": "2541",
				"funding_x_8h_upper()": "2540",
				"fundingtime_Last()": "2519",
				"initialize(address,address)": "infinite",
				"margin_index(address,uint256)": "infinite",
				"margin_type(address)": "2903",
				"name()": "infinite",
				"nonces(address)": "2927",
				"paying_side_Last()": "2605",
				"permit(address,address,uint256,uint256,uint8,bytes32,bytes32)": "infinite",
				"skim(address)": "infinite",
				"swap(address,uint256,uint256)": "infinite",
				"symbol()": "infinite",
				"tokenX()": "2671",
				"tokenY()": "2669",
				"totalSupply()": "2498",
				"transfer(address,uint256)": "infinite",
				"transferFrom(address,address,uint256)": "infinite"
			},
			"internal": {
				"Getfundingrate()": "infinite",
				"Net_Margin(address)": "infinite",
				"Net_Position(address)": "infinite",
				"Net_debt(address)": "infinite",
				"TradeXToExactY(uint256,uint256,bool)": "infinite",
				"TradeYToExactX(uint256,uint256,bool)": "infinite",
				"Trade_XtoY(uint256,bool)": "infinite",
				"Trade_YtoX(uint256,bool)": "infinite",
				"Virtual_Liquidity_Update()": "infinite",
				"WithdrawMargin(address,address,address,uint256)": "infinite",
				"_safeTransfer(address,address,uint256)": "infinite",
				"refresh_totalbook()": "infinite"
			}
		},
		"methodIdentifiers": {
			"Add_Liquidity(uint256,uint256,address)": "6126deef",
			"Add_Margin(address,address)": "8cf825e7",
			"B()": "32e7c5bf",
			"Base_rate()": "7ed6281b",
			"Burn_Liquidity(uint256,address)": "6665ff11",
			"C()": "83dfe5fd",
			"D()": "0f529ba2",
			"D0()": "f738c74e",
			"DOMAIN_SEPARATOR()": "3644e515",
			"Leverage_Margin()": "9a36e122",
			"Leverage_Max()": "18db9681",
			"Liquidate(address,address)": "c3d81b21",
			"Liquidation_bonus()": "f70f4394",
			"Liquidation_rate()": "8bc1a32f",
			"Margin_reserve(uint256)": "1cbdffd1",
			"N()": "c9e525df",
			"N_Last()": "acd4a7c2",
			"PERMIT_TYPEHASH()": "30adf81f",
			"Peqx()": "00b52645",
			"Peqy()": "fe18f261",
			"Perp_biopen(uint256,uint256,address)": "09e95861",
			"Perp_close(uint256,uint256,address)": "4c324e6a",
			"Perp_open(uint256,uint256,bool,address)": "9076ae86",
			"Price_local()": "480c4f7e",
			"Set_LeverageMargin(uint256)": "cfe38a5e",
			"Set_LeverageMax(uint256)": "35714521",
			"Set_Liquidation_rate(uint256)": "ff2f169e",
			"Set_fundingrate_upper(uint256)": "0bfa68d8",
			"Tick_range()": "d44022db",
			"Total_Liquidity()": "2dd6c254",
			"Total_debt_X()": "2190219e",
			"Total_debt_Y()": "225c2c50",
			"Total_debttoken_X()": "6b3545aa",
			"Total_debttoken_Y()": "139860ee",
			"True_Liquid_X()": "5595d459",
			"True_Liquid_X0()": "79dbf8ea",
			"True_Liquid_Y()": "3c6fe2f4",
			"True_Liquid_Y0()": "ea1797b0",
			"X_Coord()": "84009686",
			"X_Coord_Last()": "0b197615",
			"Xeq()": "8e361389",
			"Xgetp()": "a5aa65b9",
			"Y_Coord()": "36af2f9b",
			"Y_Coord_Last()": "6607e7e8",
			"Yeq()": "80416c02",
			"Ygetp()": "df0ab2c2",
			"allowance(address,address)": "dd62ed3e",
			"approve(address,uint256)": "095ea7b3",
			"balanceOf(address)": "70a08231",
			"const18()": "7e11939a",
			"debt_index(address,bool)": "7e1431be",
			"decimals()": "313ce567",
			"factory()": "c45a0155",
			"fee()": "ddca3f43",
			"funding_Last()": "23ed16b6",
			"funding_x_8h_upper()": "e19a1474",
			"fundingtime_Last()": "5e287d86",
			"initialize(address,address)": "485cc955",
			"margin_index(address,uint256)": "fc69b80f",
			"margin_type(address)": "699553aa",
			"name()": "06fdde03",
			"nonces(address)": "7ecebe00",
			"paying_side_Last()": "c7d44932",
			"permit(address,address,uint256,uint256,uint8,bytes32,bytes32)": "d505accf",
			"skim(address)": "bc25cf77",
			"swap(address,uint256,uint256)": "9f1d0f59",
			"symbol()": "95d89b41",
			"tokenX()": "16dc165b",
			"tokenY()": "b7d19fc4",
			"totalSupply()": "18160ddd",
			"transfer(address,uint256)": "a9059cbb",
			"transferFrom(address,address,uint256)": "23b872dd"
		}
	},
	"abi": [
		{
			"inputs": [],
			"stateMutability": "nonpayable",
			"type": "constructor"
		},
		{
			"anonymous": false,
			"inputs": [
				{
					"indexed": true,
					"internalType": "address",
					"name": "owner",
					"type": "address"
				},
				{
					"indexed": true,
					"internalType": "address",
					"name": "spender",
					"type": "address"
				},
				{
					"indexed": false,
					"internalType": "uint256",
					"name": "value",
					"type": "uint256"
				}
			],
			"name": "Approval",
			"type": "event"
		},
		{
			"anonymous": false,
			"inputs": [
				{
					"indexed": true,
					"internalType": "address",
					"name": "from",
					"type": "address"
				},
				{
					"indexed": true,
					"internalType": "address",
					"name": "to",
					"type": "address"
				},
				{
					"indexed": false,
					"internalType": "uint256",
					"name": "value",
					"type": "uint256"
				}
			],
			"name": "Transfer",
			"type": "event"
		},
		{
			"inputs": [
				{
					"internalType": "uint256",
					"name": "AddX",
					"type": "uint256"
				},
				{
					"internalType": "uint256",
					"name": "AddY",
					"type": "uint256"
				},
				{
					"internalType": "address",
					"name": "to",
					"type": "address"
				}
			],
			"name": "Add_Liquidity",
			"outputs": [
				{
					"internalType": "uint256",
					"name": "Liquidity",
					"type": "uint256"
				}
			],
			"stateMutability": "nonpayable",
			"type": "function"
		},
		{
			"inputs": [
				{
					"internalType": "address",
					"name": "tokenID",
					"type": "address"
				},
				{
					"internalType": "address",
					"name": "userID",
					"type": "address"
				}
			],
			"name": "Add_Margin",
			"outputs": [],
			"stateMutability": "nonpayable",
			"type": "function"
		},
		{
			"inputs": [],
			"name": "B",
			"outputs": [
				{
					"internalType": "uint256",
					"name": "",
					"type": "uint256"
				}
			],
			"stateMutability": "view",
			"type": "function"
		},
		{
			"inputs": [],
			"name": "Base_rate",
			"outputs": [
				{
					"internalType": "uint256",
					"name": "",
					"type": "uint256"
				}
			],
			"stateMutability": "view",
			"type": "function"
		},
		{
			"inputs": [
				{
					"internalType": "uint256",
					"name": "Liquidity",
					"type": "uint256"
				},
				{
					"internalType": "address",
					"name": "to",
					"type": "address"
				}
			],
			"name": "Burn_Liquidity",
			"outputs": [
				{
					"internalType": "uint256",
					"name": "BurX",
					"type": "uint256"
				},
				{
					"internalType": "uint256",
					"name": "BurY",
					"type": "uint256"
				}
			],
			"stateMutability": "nonpayable",
			"type": "function"
		},
		{
			"inputs": [],
			"name": "C",
			"outputs": [
				{
					"internalType": "uint256",
					"name": "",
					"type": "uint256"
				}
			],
			"stateMutability": "view",
			"type": "function"
		},
		{
			"inputs": [],
			"name": "D",
			"outputs": [
				{
					"internalType": "uint256",
					"name": "",
					"type": "uint256"
				}
			],
			"stateMutability": "view",
			"type": "function"
		},
		{
			"inputs": [],
			"name": "D0",
			"outputs": [
				{
					"internalType": "uint256",
					"name": "",
					"type": "uint256"
				}
			],
			"stateMutability": "view",
			"type": "function"
		},
		{
			"inputs": [],
			"name": "DOMAIN_SEPARATOR",
			"outputs": [
				{
					"internalType": "bytes32",
					"name": "",
					"type": "bytes32"
				}
			],
			"stateMutability": "view",
			"type": "function"
		},
		{
			"inputs": [],
			"name": "Leverage_Margin",
			"outputs": [
				{
					"internalType": "uint256",
					"name": "",
					"type": "uint256"
				}
			],
			"stateMutability": "view",
			"type": "function"
		},
		{
			"inputs": [],
			"name": "Leverage_Max",
			"outputs": [
				{
					"internalType": "uint256",
					"name": "",
					"type": "uint256"
				}
			],
			"stateMutability": "view",
			"type": "function"
		},
		{
			"inputs": [
				{
					"internalType": "address",
					"name": "userID",
					"type": "address"
				},
				{
					"internalType": "address",
					"name": "_to",
					"type": "address"
				}
			],
			"name": "Liquidate",
			"outputs": [],
			"stateMutability": "nonpayable",
			"type": "function"
		},
		{
			"inputs": [],
			"name": "Liquidation_bonus",
			"outputs": [
				{
					"internalType": "uint256",
					"name": "",
					"type": "uint256"
				}
			],
			"stateMutability": "view",
			"type": "function"
		},
		{
			"inputs": [],
			"name": "Liquidation_rate",
			"outputs": [
				{
					"internalType": "uint256",
					"name": "",
					"type": "uint256"
				}
			],
			"stateMutability": "view",
			"type": "function"
		},
		{
			"inputs": [
				{
					"internalType": "uint256",
					"name": "",
					"type": "uint256"
				}
			],
			"name": "Margin_reserve",
			"outputs": [
				{
					"internalType": "uint256",
					"name": "",
					"type": "uint256"
				}
			],
			"stateMutability": "view",
			"type": "function"
		},
		{
			"inputs": [],
			"name": "N",
			"outputs": [
				{
					"internalType": "uint256",
					"name": "",
					"type": "uint256"
				}
			],
			"stateMutability": "view",
			"type": "function"
		},
		{
			"inputs": [],
			"name": "N_Last",
			"outputs": [
				{
					"internalType": "uint256",
					"name": "",
					"type": "uint256"
				}
			],
			"stateMutability": "view",
			"type": "function"
		},
		{
			"inputs": [],
			"name": "PERMIT_TYPEHASH",
			"outputs": [
				{
					"internalType": "bytes32",
					"name": "",
					"type": "bytes32"
				}
			],
			"stateMutability": "view",
			"type": "function"
		},
		{
			"inputs": [],
			"name": "Peqx",
			"outputs": [
				{
					"internalType": "uint256",
					"name": "",
					"type": "uint256"
				}
			],
			"stateMutability": "view",
			"type": "function"
		},
		{
			"inputs": [],
			"name": "Peqy",
			"outputs": [
				{
					"internalType": "uint256",
					"name": "",
					"type": "uint256"
				}
			],
			"stateMutability": "view",
			"type": "function"
		},
		{
			"inputs": [
				{
					"internalType": "uint256",
					"name": "delta_X",
					"type": "uint256"
				},
				{
					"internalType": "uint256",
					"name": "delta_Y",
					"type": "uint256"
				},
				{
					"internalType": "address",
					"name": "userID",
					"type": "address"
				}
			],
			"name": "Perp_biopen",
			"outputs": [],
			"stateMutability": "nonpayable",
			"type": "function"
		},
		{
			"inputs": [
				{
					"internalType": "uint256",
					"name": "delta_X",
					"type": "uint256"
				},
				{
					"internalType": "uint256",
					"name": "delta_Y",
					"type": "uint256"
				},
				{
					"internalType": "address",
					"name": "userID",
					"type": "address"
				}
			],
			"name": "Perp_close",
			"outputs": [],
			"stateMutability": "nonpayable",
			"type": "function"
		},
		{
			"inputs": [
				{
					"internalType": "uint256",
					"name": "delta_X",
					"type": "uint256"
				},
				{
					"internalType": "uint256",
					"name": "delta_Y",
					"type": "uint256"
				},
				{
					"internalType": "bool",
					"name": "XtoY",
					"type": "bool"
				},
				{
					"internalType": "address",
					"name": "userID",
					"type": "address"
				}
			],
			"name": "Perp_open",
			"outputs": [],
			"stateMutability": "nonpayable",
			"type": "function"
		},
		{
			"inputs": [],
			"name": "Price_local",
			"outputs": [
				{
					"internalType": "uint256",
					"name": "",
					"type": "uint256"
				}
			],
			"stateMutability": "view",
			"type": "function"
		},
		{
			"inputs": [
				{
					"internalType": "uint256",
					"name": "L",
					"type": "uint256"
				}
			],
			"name": "Set_LeverageMargin",
			"outputs": [],
			"stateMutability": "nonpayable",
			"type": "function"
		},
		{
			"inputs": [
				{
					"internalType": "uint256",
					"name": "L",
					"type": "uint256"
				}
			],
			"name": "Set_LeverageMax",
			"outputs": [],
			"stateMutability": "nonpayable",
			"type": "function"
		},
		{
			"inputs": [
				{
					"internalType": "uint256",
					"name": "rate",
					"type": "uint256"
				}
			],
			"name": "Set_Liquidation_rate",
			"outputs": [],
			"stateMutability": "nonpayable",
			"type": "function"
		},
		{
			"inputs": [
				{
					"internalType": "uint256",
					"name": "f",
					"type": "uint256"
				}
			],
			"name": "Set_fundingrate_upper",
			"outputs": [],
			"stateMutability": "nonpayable",
			"type": "function"
		},
		{
			"inputs": [],
			"name": "Tick_range",
			"outputs": [
				{
					"internalType": "uint256",
					"name": "",
					"type": "uint256"
				}
			],
			"stateMutability": "view",
			"type": "function"
		},
		{
			"inputs": [],
			"name": "Total_Liquidity",
			"outputs": [
				{
					"internalType": "uint256",
					"name": "",
					"type": "uint256"
				}
			],
			"stateMutability": "view",
			"type": "function"
		},
		{
			"inputs": [],
			"name": "Total_debt_X",
			"outputs": [
				{
					"internalType": "uint256",
					"name": "",
					"type": "uint256"
				}
			],
			"stateMutability": "view",
			"type": "function"
		},
		{
			"inputs": [],
			"name": "Total_debt_Y",
			"outputs": [
				{
					"internalType": "uint256",
					"name": "",
					"type": "uint256"
				}
			],
			"stateMutability": "view",
			"type": "function"
		},
		{
			"inputs": [],
			"name": "Total_debttoken_X",
			"outputs": [
				{
					"internalType": "uint256",
					"name": "",
					"type": "uint256"
				}
			],
			"stateMutability": "view",
			"type": "function"
		},
		{
			"inputs": [],
			"name": "Total_debttoken_Y",
			"outputs": [
				{
					"internalType": "uint256",
					"name": "",
					"type": "uint256"
				}
			],
			"stateMutability": "view",
			"type": "function"
		},
		{
			"inputs": [],
			"name": "True_Liquid_X",
			"outputs": [
				{
					"internalType": "uint256",
					"name": "",
					"type": "uint256"
				}
			],
			"stateMutability": "view",
			"type": "function"
		},
		{
			"inputs": [],
			"name": "True_Liquid_X0",
			"outputs": [
				{
					"internalType": "uint256",
					"name": "",
					"type": "uint256"
				}
			],
			"stateMutability": "view",
			"type": "function"
		},
		{
			"inputs": [],
			"name": "True_Liquid_Y",
			"outputs": [
				{
					"internalType": "uint256",
					"name": "",
					"type": "uint256"
				}
			],
			"stateMutability": "view",
			"type": "function"
		},
		{
			"inputs": [],
			"name": "True_Liquid_Y0",
			"outputs": [
				{
					"internalType": "uint256",
					"name": "",
					"type": "uint256"
				}
			],
			"stateMutability": "view",
			"type": "function"
		},
		{
			"inputs": [],
			"name": "X_Coord",
			"outputs": [
				{
					"internalType": "uint256",
					"name": "",
					"type": "uint256"
				}
			],
			"stateMutability": "view",
			"type": "function"
		},
		{
			"inputs": [],
			"name": "X_Coord_Last",
			"outputs": [
				{
					"internalType": "uint256",
					"name": "",
					"type": "uint256"
				}
			],
			"stateMutability": "view",
			"type": "function"
		},
		{
			"inputs": [],
			"name": "Xeq",
			"outputs": [
				{
					"internalType": "uint256",
					"name": "",
					"type": "uint256"
				}
			],
			"stateMutability": "view",
			"type": "function"
		},
		{
			"inputs": [],
			"name": "Xgetp",
			"outputs": [
				{
					"internalType": "uint256",
					"name": "",
					"type": "uint256"
				}
			],
			"stateMutability": "view",
			"type": "function"
		},
		{
			"inputs": [],
			"name": "Y_Coord",
			"outputs": [
				{
					"internalType": "uint256",
					"name": "",
					"type": "uint256"
				}
			],
			"stateMutability": "view",
			"type": "function"
		},
		{
			"inputs": [],
			"name": "Y_Coord_Last",
			"outputs": [
				{
					"internalType": "uint256",
					"name": "",
					"type": "uint256"
				}
			],
			"stateMutability": "view",
			"type": "function"
		},
		{
			"inputs": [],
			"name": "Yeq",
			"outputs": [
				{
					"internalType": "uint256",
					"name": "",
					"type": "uint256"
				}
			],
			"stateMutability": "view",
			"type": "function"
		},
		{
			"inputs": [],
			"name": "Ygetp",
			"outputs": [
				{
					"internalType": "uint256",
					"name": "",
					"type": "uint256"
				}
			],
			"stateMutability": "view",
			"type": "function"
		},
		{
			"inputs": [
				{
					"internalType": "address",
					"name": "",
					"type": "address"
				},
				{
					"internalType": "address",
					"name": "",
					"type": "address"
				}
			],
			"name": "allowance",
			"outputs": [
				{
					"internalType": "uint256",
					"name": "",
					"type": "uint256"
				}
			],
			"stateMutability": "view",
			"type": "function"
		},
		{
			"inputs": [
				{
					"internalType": "address",
					"name": "spender",
					"type": "address"
				},
				{
					"internalType": "uint256",
					"name": "value",
					"type": "uint256"
				}
			],
			"name": "approve",
			"outputs": [
				{
					"internalType": "bool",
					"name": "",
					"type": "bool"
				}
			],
			"stateMutability": "nonpayable",
			"type": "function"
		},
		{
			"inputs": [
				{
					"internalType": "address",
					"name": "",
					"type": "address"
				}
			],
			"name": "balanceOf",
			"outputs": [
				{
					"internalType": "uint256",
					"name": "",
					"type": "uint256"
				}
			],
			"stateMutability": "view",
			"type": "function"
		},
		{
			"inputs": [],
			"name": "const18",
			"outputs": [
				{
					"internalType": "uint256",
					"name": "",
					"type": "uint256"
				}
			],
			"stateMutability": "view",
			"type": "function"
		},
		{
			"inputs": [
				{
					"internalType": "address",
					"name": "",
					"type": "address"
				},
				{
					"internalType": "bool",
					"name": "",
					"type": "bool"
				}
			],
			"name": "debt_index",
			"outputs": [
				{
					"internalType": "address",
					"name": "user_ID",
					"type": "address"
				},
				{
					"internalType": "bool",
					"name": "token_ID",
					"type": "bool"
				},
				{
					"internalType": "uint256",
					"name": "debttoken_amount",
					"type": "uint256"
				},
				{
					"internalType": "uint256",
					"name": "position_amount",
					"type": "uint256"
				}
			],
			"stateMutability": "view",
			"type": "function"
		},
		{
			"inputs": [],
			"name": "decimals",
			"outputs": [
				{
					"internalType": "uint8",
					"name": "",
					"type": "uint8"
				}
			],
			"stateMutability": "view",
			"type": "function"
		},
		{
			"inputs": [],
			"name": "factory",
			"outputs": [
				{
					"internalType": "address",
					"name": "",
					"type": "address"
				}
			],
			"stateMutability": "view",
			"type": "function"
		},
		{
			"inputs": [],
			"name": "fee",
			"outputs": [
				{
					"internalType": "uint256",
					"name": "",
					"type": "uint256"
				}
			],
			"stateMutability": "view",
			"type": "function"
		},
		{
			"inputs": [],
			"name": "funding_Last",
			"outputs": [
				{
					"internalType": "uint256",
					"name": "",
					"type": "uint256"
				}
			],
			"stateMutability": "view",
			"type": "function"
		},
		{
			"inputs": [],
			"name": "funding_x_8h_upper",
			"outputs": [
				{
					"internalType": "uint256",
					"name": "",
					"type": "uint256"
				}
			],
			"stateMutability": "view",
			"type": "function"
		},
		{
			"inputs": [],
			"name": "fundingtime_Last",
			"outputs": [
				{
					"internalType": "uint256",
					"name": "",
					"type": "uint256"
				}
			],
			"stateMutability": "view",
			"type": "function"
		},
		{
			"inputs": [
				{
					"internalType": "address",
					"name": "_tokenX",
					"type": "address"
				},
				{
					"internalType": "address",
					"name": "_tokenY",
					"type": "address"
				}
			],
			"name": "initialize",
			"outputs": [],
			"stateMutability": "nonpayable",
			"type": "function"
		},
		{
			"inputs": [
				{
					"internalType": "address",
					"name": "",
					"type": "address"
				},
				{
					"internalType": "uint256",
					"name": "",
					"type": "uint256"
				}
			],
			"name": "margin_index",
			"outputs": [
				{
					"internalType": "uint256",
					"name": "",
					"type": "uint256"
				}
			],
			"stateMutability": "view",
			"type": "function"
		},
		{
			"inputs": [
				{
					"internalType": "address",
					"name": "",
					"type": "address"
				}
			],
			"name": "margin_type",
			"outputs": [
				{
					"internalType": "uint256",
					"name": "",
					"type": "uint256"
				}
			],
			"stateMutability": "view",
			"type": "function"
		},
		{
			"inputs": [],
			"name": "name",
			"outputs": [
				{
					"internalType": "string",
					"name": "",
					"type": "string"
				}
			],
			"stateMutability": "view",
			"type": "function"
		},
		{
			"inputs": [
				{
					"internalType": "address",
					"name": "",
					"type": "address"
				}
			],
			"name": "nonces",
			"outputs": [
				{
					"internalType": "uint256",
					"name": "",
					"type": "uint256"
				}
			],
			"stateMutability": "view",
			"type": "function"
		},
		{
			"inputs": [],
			"name": "paying_side_Last",
			"outputs": [
				{
					"internalType": "bool",
					"name": "",
					"type": "bool"
				}
			],
			"stateMutability": "view",
			"type": "function"
		},
		{
			"inputs": [
				{
					"internalType": "address",
					"name": "owner",
					"type": "address"
				},
				{
					"internalType": "address",
					"name": "spender",
					"type": "address"
				},
				{
					"internalType": "uint256",
					"name": "value",
					"type": "uint256"
				},
				{
					"internalType": "uint256",
					"name": "deadline",
					"type": "uint256"
				},
				{
					"internalType": "uint8",
					"name": "v",
					"type": "uint8"
				},
				{
					"internalType": "bytes32",
					"name": "r",
					"type": "bytes32"
				},
				{
					"internalType": "bytes32",
					"name": "s",
					"type": "bytes32"
				}
			],
			"name": "permit",
			"outputs": [],
			"stateMutability": "nonpayable",
			"type": "function"
		},
		{
			"inputs": [
				{
					"internalType": "address",
					"name": "to",
					"type": "address"
				}
			],
			"name": "skim",
			"outputs": [],
			"stateMutability": "nonpayable",
			"type": "function"
		},
		{
			"inputs": [
				{
					"internalType": "address",
					"name": "to",
					"type": "address"
				},
				{
					"internalType": "uint256",
					"name": "Xout",
					"type": "uint256"
				},
				{
					"internalType": "uint256",
					"name": "Yout",
					"type": "uint256"
				}
			],
			"name": "swap",
			"outputs": [],
			"stateMutability": "nonpayable",
			"type": "function"
		},
		{
			"inputs": [],
			"name": "symbol",
			"outputs": [
				{
					"internalType": "string",
					"name": "",
					"type": "string"
				}
			],
			"stateMutability": "view",
			"type": "function"
		},
		{
			"inputs": [],
			"name": "tokenX",
			"outputs": [
				{
					"internalType": "address",
					"name": "",
					"type": "address"
				}
			],
			"stateMutability": "view",
			"type": "function"
		},
		{
			"inputs": [],
			"name": "tokenY",
			"outputs": [
				{
					"internalType": "address",
					"name": "",
					"type": "address"
				}
			],
			"stateMutability": "view",
			"type": "function"
		},
		{
			"inputs": [],
			"name": "totalSupply",
			"outputs": [
				{
					"internalType": "uint256",
					"name": "",
					"type": "uint256"
				}
			],
			"stateMutability": "view",
			"type": "function"
		},
		{
			"inputs": [
				{
					"internalType": "address",
					"name": "to",
					"type": "address"
				},
				{
					"internalType": "uint256",
					"name": "value",
					"type": "uint256"
				}
			],
			"name": "transfer",
			"outputs": [
				{
					"internalType": "bool",
					"name": "",
					"type": "bool"
				}
			],
			"stateMutability": "nonpayable",
			"type": "function"
		},
		{
			"inputs": [
				{
					"internalType": "address",
					"name": "from",
					"type": "address"
				},
				{
					"internalType": "address",
					"name": "to",
					"type": "address"
				},
				{
					"internalType": "uint256",
					"name": "value",
					"type": "uint256"
				}
			],
			"name": "transferFrom",
			"outputs": [
				{
					"internalType": "bool",
					"name": "",
					"type": "bool"
				}
			],
			"stateMutability": "nonpayable",
			"type": "function"
		}
	]
}