{
	"data": {
		"bytecode": {
			"linkReferences": {},
			"object": "6080604052670de0b6b3a7640000602e556001602f553480156200002257600080fd5b5060004690507f8b73c3c69bb8fe3d512ecc4cf759cc79239f7b179b0ffacaa9a75d522b39400f6040518060400160405280600a81526020017f556e697377617020563200000000000000000000000000000000000000000000815250805190602001206040518060400160405280600181526020017f3100000000000000000000000000000000000000000000000000000000000000815250805190602001208330604051602001620000db95949392919062000172565b604051602081830303815290604052805190602001206003819055505033602760006101000a81548173ffffffffffffffffffffffffffffffffffffffff021916908373ffffffffffffffffffffffffffffffffffffffff16021790555062000217565b6200014a81620001cf565b82525050565b6200015b81620001e3565b82525050565b6200016c816200020d565b82525050565b600060a08201905062000189600083018862000150565b62000198602083018762000150565b620001a7604083018662000150565b620001b6606083018562000161565b620001c560808301846200013f565b9695505050505050565b6000620001dc82620001ed565b9050919050565b6000819050919050565b600073ffffffffffffffffffffffffffffffffffffffff82169050919050565b6000819050919050565b616dd980620002276000396000f3fe608060405234801561001057600080fd5b50600436106104325760003560e01c806379dbf8ea11610236578063b7d19fc41161013b578063da5604ce116100c3578063f70f439411610087578063f70f439414610ce1578063f738c74e14610cff578063fc69b80f14610d1d578063fe18f26114610d4d578063ff2f169e14610d6b57610432565b8063da5604ce14610c27578063dd62ed3e14610c57578063df0ab2c214610c87578063e19a147414610ca5578063ea1797b014610cc357610432565b8063c7d449321161010a578063c7d4493214610b95578063c9e525df14610bb3578063cfe38a5e14610bd1578063d44022db14610bed578063d505accf14610c0b57610432565b8063b7d19fc414610b21578063bc25cf7714610b3f578063c3d81b2114610b5b578063c45a015514610b7757610432565b80638e361389116101be5780639f1d0f591161018d5780639f1d0f5914610a7d578063a54c08f314610a99578063a5aa65b914610ab5578063a9059cbb14610ad3578063acd4a7c214610b0357610432565b80638e36138914610a075780639076ae8614610a2557806395d89b4114610a415780639a36e12214610a5f57610432565b80637ed6281b116102055780637ed6281b1461097157806380416c021461098f57806383dfe5fd146109ad57806384009686146109cb5780638bc1a32f146109e957610432565b806379dbf8ea146108d25780637e11939a146108f05780637e1431be1461090e5780637ecebe001461094157610432565b8063313ce5671161033c5780635595d459116102c45780636665ff11116102935780636665ff1114610805578063693f917e14610836578063699553aa146108545780636b3545aa1461088457806370a08231146108a257610432565b80635595d4591461077b5780635e287d86146107995780636126deef146107b75780636607e7e8146107e757610432565b806336af2f9b1161030b57806336af2f9b146106e95780633c6fe2f414610707578063480c4f7e14610725578063485cc955146107435780634c324e6a1461075f57610432565b8063313ce5671461067357806332e7c5bf1461069157806335714521146106af5780633644e515146106cb57610432565b806318160ddd116103bf57806323b872dd1161038e57806323b872dd146105cb57806323ed16b6146105fb57806325c513a4146106195780632dd6c2541461063757806330adf81f1461065557610432565b806318160ddd1461055357806318db9681146105715780632190219e1461058f578063225c2c50146105ad57610432565b80630b197615116104065780630b197615146104bf5780630bfa68d8146104dd5780630f529ba2146104f9578063139860ee1461051757806316dc165b1461053557610432565b8062b526451461043757806306fdde0314610455578063095ea7b31461047357806309e95861146104a3575b600080fd5b61043f610d87565b60405161044c9190616664565b60405180910390f35b61045d610d8d565b60405161046a91906164c2565b60405180910390f35b61048d60048036038101906104889190615e15565b610dc6565b60405161049a91906163e6565b60405180910390f35b6104bd60048036038101906104b89190615fc2565b610ddd565b005b6104c7610eac565b6040516104d49190616664565b60405180910390f35b6104f760048036038101906104f29190615ed5565b610eb2565b005b610501610f4c565b60405161050e9190616664565b60405180910390f35b61051f610f52565b60405161052c9190616664565b60405180910390f35b61053d610f58565b60405161054a919061635d565b60405180910390f35b61055b610f7e565b6040516105689190616664565b60405180910390f35b610579610f84565b6040516105869190616664565b60405180910390f35b610597610f8a565b6040516105a49190616664565b60405180910390f35b6105b5610f90565b6040516105c29190616664565b60405180910390f35b6105e560048036038101906105e09190615ce0565b610f96565b6040516105f291906163e6565b60405180910390f35b610603611143565b6040516106109190616664565b60405180910390f35b610621611149565b60405161062e9190616664565b60405180910390f35b61063f61114f565b60405161064c9190616664565b60405180910390f35b61065d611155565b60405161066a9190616401565b60405180910390f35b61067b61117c565b60405161068891906166a8565b60405180910390f35b610699611181565b6040516106a69190616664565b60405180910390f35b6106c960048036038101906106c49190615ed5565b611187565b005b6106d3611221565b6040516106e09190616401565b60405180910390f35b6106f1611227565b6040516106fe9190616664565b60405180910390f35b61070f61122d565b60405161071c9190616664565b60405180910390f35b61072d611233565b60405161073a9190616664565b60405180910390f35b61075d60048036038101906107589190615ca0565b611239565b005b61077960048036038101906107749190615fc2565b61134f565b005b610783611dea565b6040516107909190616664565b60405180910390f35b6107a1611df0565b6040516107ae9190616664565b60405180910390f35b6107d160048036038101906107cc9190615fc2565b611df6565b6040516107de9190616664565b60405180910390f35b6107ef611f1b565b6040516107fc9190616664565b60405180910390f35b61081f600480360381019061081a9190615f2f565b611f21565b60405161082d92919061667f565b60405180910390f35b61083e6120be565b60405161084b9190616664565b60405180910390f35b61086e60048036038101906108699190615c73565b6120c4565b60405161087b9190616664565b60405180910390f35b61088c6120dc565b6040516108999190616664565b60405180910390f35b6108bc60048036038101906108b79190615c73565b6120e2565b6040516108c99190616664565b60405180910390f35b6108da6120fa565b6040516108e79190616664565b60405180910390f35b6108f8612100565b6040516109059190616664565b60405180910390f35b61092860048036038101906109239190615dd5565b612106565b6040516109389493929190616378565b60405180910390f35b61095b60048036038101906109569190615c73565b612170565b6040516109689190616664565b60405180910390f35b610979612188565b6040516109869190616664565b60405180910390f35b61099761218e565b6040516109a49190616664565b60405180910390f35b6109b5612194565b6040516109c29190616664565b60405180910390f35b6109d361219a565b6040516109e09190616664565b60405180910390f35b6109f16121a0565b6040516109fe9190616664565b60405180910390f35b610a0f6121a6565b604051610a1c9190616664565b60405180910390f35b610a3f6004803603810190610a3a9190616015565b6121ac565b005b610a4961264a565b604051610a5691906164c2565b60405180910390f35b610a67612683565b604051610a749190616664565b60405180910390f35b610a976004803603810190610a929190615e55565b612689565b005b610ab36004803603810190610aae9190615f6f565b612a85565b005b610abd612b3b565b604051610aca9190616664565b60405180910390f35b610aed6004803603810190610ae89190615e15565b612b41565b604051610afa91906163e6565b60405180910390f35b610b0b612b58565b604051610b189190616664565b60405180910390f35b610b29612b5e565b604051610b36919061635d565b60405180910390f35b610b596004803603810190610b549190615c73565b612b84565b005b610b756004803603810190610b709190615ca0565b612db2565b005b610b7f613133565b604051610b8c919061635d565b60405180910390f35b610b9d613159565b604051610baa91906163e6565b60405180910390f35b610bbb61316c565b604051610bc89190616664565b60405180910390f35b610beb6004803603810190610be69190615ed5565b613172565b005b610bf561320c565b604051610c029190616664565b60405180910390f35b610c256004803603810190610c209190615d33565b613212565b005b610c416004803603810190610c3c9190615ed5565b61343a565b604051610c4e919061635d565b60405180910390f35b610c716004803603810190610c6c9190615ca0565b613479565b604051610c7e9190616664565b60405180910390f35b610c8f61349e565b604051610c9c9190616664565b60405180910390f35b610cad6134a4565b604051610cba9190616664565b60405180910390f35b610ccb6134aa565b604051610cd89190616664565b60405180910390f35b610ce96134b0565b604051610cf69190616664565b60405180910390f35b610d076134b6565b604051610d149190616664565b60405180910390f35b610d376004803603810190610d329190615e15565b6134bc565b604051610d449190616664565b60405180910390f35b610d556134ed565b604051610d629190616664565b60405180910390f35b610d856004803603810190610d809190615ed5565b6134f3565b005b600e5481565b6040518060400160405280600a81526020017f556e69737761702056320000000000000000000000000000000000000000000081525081565b6000610dd333848461358d565b6001905092915050565b6001602f5414610e22576040517f08c379a0000000000000000000000000000000000000000000000000000000008152600401610e1990616644565b60405180910390fd5b6000602f8190555060008284610e3891906168f8565b148015610e50575060008284610e4e9190616700565b115b610e5957600080fd5b6000831115610e8257610e708360006001846121ac565b610e7d83600080846121ac565b610e9f565b610e906000836001846121ac565b610e9e6000836000846121ac565b5b6001602f81905550505050565b60155481565b602760009054906101000a900473ffffffffffffffffffffffffffffffffffffffff1673ffffffffffffffffffffffffffffffffffffffff163373ffffffffffffffffffffffffffffffffffffffff1614610f42576040517f08c379a0000000000000000000000000000000000000000000000000000000008152600401610f3990616544565b60405180910390fd5b8060218190555050565b60075481565b601c5481565b602860009054906101000a900473ffffffffffffffffffffffffffffffffffffffff1681565b60005481565b601d5481565b60195481565b601a5481565b6000610101600260008673ffffffffffffffffffffffffffffffffffffffff1673ffffffffffffffffffffffffffffffffffffffff16815260200190815260200160002060003373ffffffffffffffffffffffffffffffffffffffff1673ffffffffffffffffffffffffffffffffffffffff168152602001908152602001600020541461112d576110ac82600260008773ffffffffffffffffffffffffffffffffffffffff1673ffffffffffffffffffffffffffffffffffffffff16815260200190815260200160002060003373ffffffffffffffffffffffffffffffffffffffff1673ffffffffffffffffffffffffffffffffffffffff1681526020019081526020016000205461367890919063ffffffff16565b600260008673ffffffffffffffffffffffffffffffffffffffff1673ffffffffffffffffffffffffffffffffffffffff16815260200190815260200160002060003373ffffffffffffffffffffffffffffffffffffffff1673ffffffffffffffffffffffffffffffffffffffff168152602001908152602001600020819055505b6111388484846136d1565b600190509392505050565b601e5481565b60255481565b602b5481565b7f6e71edae12b1b97f4d1f60370fef10105fa2faae0126114a169c64845d6126c960001b81565b601281565b60055481565b602760009054906101000a900473ffffffffffffffffffffffffffffffffffffffff1673ffffffffffffffffffffffffffffffffffffffff163373ffffffffffffffffffffffffffffffffffffffff1614611217576040517f08c379a000000000000000000000000000000000000000000000000000000000815260040161120e90616544565b60405180910390fd5b80601d8190555050565b60035481565b600c5481565b60135481565b60175481565b602760009054906101000a900473ffffffffffffffffffffffffffffffffffffffff1673ffffffffffffffffffffffffffffffffffffffff163373ffffffffffffffffffffffffffffffffffffffff16146112c9576040517f08c379a00000000000000000000000000000000000000000000000000000000081526004016112c0906165c4565b60405180910390fd5b81602860006101000a81548173ffffffffffffffffffffffffffffffffffffffff021916908373ffffffffffffffffffffffffffffffffffffffff16021790555080602960006101000a81548173ffffffffffffffffffffffffffffffffffffffff021916908373ffffffffffffffffffffffffffffffffffffffff1602179055505050565b6001602f5414611394576040517f08c379a000000000000000000000000000000000000000000000000000000000815260040161138b90616644565b60405180910390fd5b6000602f81905550600082846113aa91906168f8565b1480156113c25750600082846113c09190616700565b115b6113cb57600080fd5b6113d3613865565b603160008273ffffffffffffffffffffffffffffffffffffffff1673ffffffffffffffffffffffffffffffffffffffff1681526020019081526020016000206000801515151581526020019081526020016000206002015483111580156114925750603160008273ffffffffffffffffffffffffffffffffffffffff1673ffffffffffffffffffffffffffffffffffffffff16815260200190815260200160002060006001151515158152602001908152602001600020600201548211155b6114d1576040517f08c379a00000000000000000000000000000000000000000000000000000000081526004016114c8906165e4565b60405180910390fd5b60008311156119625760006114e78460016139f9565b90506000603160008473ffffffffffffffffffffffffffffffffffffffff1673ffffffffffffffffffffffffffffffffffffffff16815260200190815260200160002060008015151515815260200190815260200160002060020154601c54601a54603160008773ffffffffffffffffffffffffffffffffffffffff1673ffffffffffffffffffffffffffffffffffffffff1681526020019081526020016000206000600115151515815260200190815260200160002060010154886115ad91906168f8565b6115b791906168f8565b6115c19190616756565b6115cb9190616756565b905084603160008573ffffffffffffffffffffffffffffffffffffffff1673ffffffffffffffffffffffffffffffffffffffff16815260200190815260200160002060008015151515815260200190815260200160002060020160008282546116349190616952565b9250508190555080601a600082825461164d9190616952565b92505081905550603160008473ffffffffffffffffffffffffffffffffffffffff1673ffffffffffffffffffffffffffffffffffffffff1681526020019081526020016000206000801515151581526020019081526020016000206002015485603160008673ffffffffffffffffffffffffffffffffffffffff1673ffffffffffffffffffffffffffffffffffffffff168152602001908152602001600020600060011515151581526020019081526020016000206001015461171091906168f8565b61171a9190616756565b601c600082825461172b9190616952565b92505081905550603160008473ffffffffffffffffffffffffffffffffffffffff1673ffffffffffffffffffffffffffffffffffffffff1681526020019081526020016000206000801515151581526020019081526020016000206002015485603160008673ffffffffffffffffffffffffffffffffffffffff1673ffffffffffffffffffffffffffffffffffffffff16815260200190815260200160002060006001151515158152602001908152602001600020600101546117ee91906168f8565b6117f89190616756565b603160008573ffffffffffffffffffffffffffffffffffffffff1673ffffffffffffffffffffffffffffffffffffffff16815260200190815260200160002060006001151515158152602001908152602001600020600101600082825461185f9190616952565b9250508190555080821061195a57611883818361187c9190616952565b6000613d83565b603260008573ffffffffffffffffffffffffffffffffffffffff1673ffffffffffffffffffffffffffffffffffffffff16815260200190815260200160002060336000602860009054906101000a900473ffffffffffffffffffffffffffffffffffffffff1673ffffffffffffffffffffffffffffffffffffffff1673ffffffffffffffffffffffffffffffffffffffff168152602001908152602001600020548154811061193557611934616ac9565b5b90600052602060002001600082825461194e9190616700565b9250508190555061195b565b5b5050611ddd565b600061196f836001613d83565b90506000603160008473ffffffffffffffffffffffffffffffffffffffff1673ffffffffffffffffffffffffffffffffffffffff1681526020019081526020016000206000600115151515815260200190815260200160002060020154601b54601954603160008773ffffffffffffffffffffffffffffffffffffffff1673ffffffffffffffffffffffffffffffffffffffff1681526020019081526020016000206000801515151581526020019081526020016000206001015487611a3591906168f8565b611a3f91906168f8565b611a499190616756565b611a539190616756565b905083603160008573ffffffffffffffffffffffffffffffffffffffff1673ffffffffffffffffffffffffffffffffffffffff168152602001908152602001600020600060011515151581526020019081526020016000206002016000828254611abd9190616952565b925050819055508060196000828254611ad69190616952565b92505081905550603160008473ffffffffffffffffffffffffffffffffffffffff1673ffffffffffffffffffffffffffffffffffffffff168152602001908152602001600020600060011515151581526020019081526020016000206002015484603160008673ffffffffffffffffffffffffffffffffffffffff1673ffffffffffffffffffffffffffffffffffffffff16815260200190815260200160002060008015151515815260200190815260200160002060010154611b9991906168f8565b611ba39190616756565b601b6000828254611bb49190616952565b92505081905550603160008473ffffffffffffffffffffffffffffffffffffffff1673ffffffffffffffffffffffffffffffffffffffff168152602001908152602001600020600060011515151581526020019081526020016000206002015484603160008673ffffffffffffffffffffffffffffffffffffffff1673ffffffffffffffffffffffffffffffffffffffff16815260200190815260200160002060008015151515815260200190815260200160002060010154611c7791906168f8565b611c819190616756565b603160008573ffffffffffffffffffffffffffffffffffffffff1673ffffffffffffffffffffffffffffffffffffffff1681526020019081526020016000206000801515151581526020019081526020016000206001016000828254611ce79190616952565b9250508190555080821115611dd9578082611d029190616952565b603260008573ffffffffffffffffffffffffffffffffffffffff1673ffffffffffffffffffffffffffffffffffffffff16815260200190815260200160002060336000602860009054906101000a900473ffffffffffffffffffffffffffffffffffffffff1673ffffffffffffffffffffffffffffffffffffffff1673ffffffffffffffffffffffffffffffffffffffff1681526020019081526020016000205481548110611db457611db3616ac9565b5b906000526020600020016000828254611dcd9190616700565b92505081905550611dda565b5b50505b6001602f81905550505050565b60145481565b601f5481565b60006001602f5414611e3d576040517f08c379a0000000000000000000000000000000000000000000000000000000008152600401611e3490616644565b60405180910390fd5b6000602f8190555060145484601454611e569190616700565b600b54611e6391906168f8565b611e6d9190616756565b600b8190555060135483601354611e849190616700565b600c54611e9191906168f8565b611e9b9190616756565b600c8190555060145484602b54611eb291906168f8565b611ebc9190616756565b905080602b54611ecc9190616700565b602b8190555083601454611ee09190616700565b60148190555082601354611ef49190616700565b601381905550611f04828261410d565b611f0c614227565b6001602f819055509392505050565b60165481565b6000806001602f5414611f69576040517f08c379a0000000000000000000000000000000000000000000000000000000008152600401611f6090616644565b60405180910390fd5b6000602f81905550602b5460145485611f8291906168f8565b611f8c9190616756565b9150602b5460135485611f9f91906168f8565b611fa99190616756565b905060145482601454611fbc9190616952565b600b54611fc991906168f8565b611fd39190616756565b600b8190555060135481601354611fea9190616952565b600c54611ff791906168f8565b6120019190616756565b600c81905550816014546120159190616952565b601481905550806013546120299190616952565b60138190555083602b5461203d9190616952565b602b8190555061204d308561449a565b61207a602860009054906101000a900473ffffffffffffffffffffffffffffffffffffffff1684846145b4565b6120a7602960009054906101000a900473ffffffffffffffffffffffffffffffffffffffff1684836145b4565b6120af614227565b6001602f819055509250929050565b60235481565b60336020528060005260406000206000915090505481565b601b5481565b60016020528060005260406000206000915090505481565b60125481565b602e5481565b6031602052816000526040600020602052806000526040600020600091509150508060000160009054906101000a900473ffffffffffffffffffffffffffffffffffffffff16908060000160149054906101000a900460ff16908060010154908060020154905084565b60046020528060005260406000206000915090505481565b60225481565b600a5481565b60065481565b600b5481565b602c5481565b60095481565b6001602f54146121f1576040517f08c379a00000000000000000000000000000000000000000000000000000000081526004016121e890616644565b60405180910390fd5b6000602f819055506000838561220791906168f8565b14801561221f57506000838561221d9190616700565b115b61222857600080fd5b612230613865565b6122ca61223c8261473e565b612267602860009054906101000a900473ffffffffffffffffffffffffffffffffffffffff1661486c565b8661227291906168f8565b61227c9190616700565b6122858361473e565b6122b0602960009054906101000a900473ffffffffffffffffffffffffffffffffffffffff1661486c565b866122bb91906168f8565b6122c59190616700565b614873565b602a546122d68361488c565b6122df8461473e565b6122e885614a14565b6122f29190616700565b6122fc9190616952565b6123069190616756565b11612346576040517f08c379a000000000000000000000000000000000000000000000000000000000815260040161233d90616624565b60405180910390fd5b6000806001151584151514156124ca5760008611156123745761236a8660016139f9565b9150859050612387565b8491506123848560006001614b3a565b90505b601954601b548261239891906168f8565b6123a29190616756565b603160008573ffffffffffffffffffffffffffffffffffffffff1673ffffffffffffffffffffffffffffffffffffffff16815260200190815260200160002060008015151515815260200190815260200160002060010160008282546124089190616700565b9250508190555081603160008573ffffffffffffffffffffffffffffffffffffffff1673ffffffffffffffffffffffffffffffffffffffff1681526020019081526020016000206000600115151515815260200190815260200160002060020160008282546124779190616700565b92505081905550601b54601954601b548361249291906168f8565b61249c9190616756565b6124a69190616700565b601b8190555080601960008282546124be9190616700565b9250508190555061263a565b60008611156124ea578591506124e38660006001614ecf565b90506124fb565b6124f5856001613d83565b91508490505b601a54601c548261250c91906168f8565b6125169190616756565b603160008573ffffffffffffffffffffffffffffffffffffffff1673ffffffffffffffffffffffffffffffffffffffff16815260200190815260200160002060006001151515158152602001908152602001600020600101600082825461257d9190616700565b9250508190555081603160008573ffffffffffffffffffffffffffffffffffffffff1673ffffffffffffffffffffffffffffffffffffffff16815260200190815260200160002060008015151515815260200190815260200160002060020160008282546125eb9190616700565b92505081905550601c54601a54601c548361260691906168f8565b6126109190616756565b61261a9190616700565b601c8190555080601a60008282546126329190616700565b925050819055505b50506001602f8190555050505050565b6040518060400160405280600681526020017f554e492d5632000000000000000000000000000000000000000000000000000081525081565b602a5481565b6001602f54146126ce576040517f08c379a00000000000000000000000000000000000000000000000000000000081526004016126c590616644565b60405180910390fd5b6000602f8190555060008214806126e55750600081145b612724576040517f08c379a000000000000000000000000000000000000000000000000000000000815260040161271b90616524565b60405180910390fd5b6000602860009054906101000a900473ffffffffffffffffffffffffffffffffffffffff1673ffffffffffffffffffffffffffffffffffffffff166370a08231306040518263ffffffff1660e01b8152600401612781919061635d565b60206040518083038186803b15801561279957600080fd5b505afa1580156127ad573d6000803e3d6000fd5b505050506040513d601f19601f820116820180604052508101906127d19190615f02565b90506000602960009054906101000a900473ffffffffffffffffffffffffffffffffffffffff1673ffffffffffffffffffffffffffffffffffffffff166370a08231306040518263ffffffff1660e01b8152600401612830919061635d565b60206040518083038186803b15801561284857600080fd5b505afa15801561285c573d6000803e3d6000fd5b505050506040513d601f19601f820116820180604052508101906128809190615f02565b90506000601454836128929190616952565b90506000601354836128a49190616952565b905060008211806128b55750600081115b6128f4576040517f08c379a00000000000000000000000000000000000000000000000000000000081526004016128eb90616504565b60405180910390fd5b600086111561297257612940602960009054906101000a900473ffffffffffffffffffffffffffffffffffffffff168861293089856000614ecf565b8461293b9190616952565b6145b4565b61296d602860009054906101000a900473ffffffffffffffffffffffffffffffffffffffff1688886145b4565b612a74565b60008511156129f0576129be602860009054906101000a900473ffffffffffffffffffffffffffffffffffffffff16886129ae88866000614b3a565b856129b99190616952565b6145b4565b6129eb602960009054906101000a900473ffffffffffffffffffffffffffffffffffffffff1688876145b4565b612a73565b6000821115612a3157612a30602960009054906101000a900473ffffffffffffffffffffffffffffffffffffffff1688612a2b8560006139f9565b6145b4565b5b6000811115612a7257612a71602860009054906101000a900473ffffffffffffffffffffffffffffffffffffffff1688612a6c846000613d83565b6145b4565b5b5b5b505050506001602f81905550505050565b82603260008373ffffffffffffffffffffffffffffffffffffffff1673ffffffffffffffffffffffffffffffffffffffff168152602001908152602001600020603360008573ffffffffffffffffffffffffffffffffffffffff1673ffffffffffffffffffffffffffffffffffffffff1681526020019081526020016000205481548110612b1657612b15616ac9565b5b906000526020600020016000828254612b2f9190616700565b92505081905550505050565b60105481565b6000612b4e3384846136d1565b6001905092915050565b60265481565b602960009054906101000a900473ffffffffffffffffffffffffffffffffffffffff1681565b6001602f5414612bc9576040517f08c379a0000000000000000000000000000000000000000000000000000000008152600401612bc090616644565b60405180910390fd5b6000602f81905550612cbc602860009054906101000a900473ffffffffffffffffffffffffffffffffffffffff1682612cb7601454602860009054906101000a900473ffffffffffffffffffffffffffffffffffffffff1673ffffffffffffffffffffffffffffffffffffffff166370a08231306040518263ffffffff1660e01b8152600401612c59919061635d565b60206040518083038186803b158015612c7157600080fd5b505afa158015612c85573d6000803e3d6000fd5b505050506040513d601f19601f82011682018060405250810190612ca99190615f02565b61367890919063ffffffff16565b6145b4565b612da7602960009054906101000a900473ffffffffffffffffffffffffffffffffffffffff1682612da2601354602960009054906101000a900473ffffffffffffffffffffffffffffffffffffffff1673ffffffffffffffffffffffffffffffffffffffff166370a08231306040518263ffffffff1660e01b8152600401612d44919061635d565b60206040518083038186803b158015612d5c57600080fd5b505afa158015612d70573d6000803e3d6000fd5b505050506040513d601f19601f82011682018060405250810190612d949190615f02565b61367890919063ffffffff16565b6145b4565b6001602f8190555050565b6001602f5414612df7576040517f08c379a0000000000000000000000000000000000000000000000000000000008152600401612dee90616644565b60405180910390fd5b6000602f81905550612e088261473e565b612e118361488c565b118015612e4d5750612e2282614a14565b602c54612e2f91906168f8565b612e388361473e565b612e418461488c565b612e4b9190616952565b115b612e8c576040517f08c379a0000000000000000000000000000000000000000000000000000000008152600401612e8390616544565b60405180910390fd5b6000603080549050905060005b81811015612f6557612f5260308281548110612eb857612eb7616ac9565b5b9060005260206000200160009054906101000a900473ffffffffffffffffffffffffffffffffffffffff1684602d54603260008973ffffffffffffffffffffffffffffffffffffffff1673ffffffffffffffffffffffffffffffffffffffff1681526020019081526020016000208581548110612f3857612f37616ac9565b5b9060005260206000200154612f4d91906168f8565b6145b4565b8080612f5d90616a18565b915050612e99565b50603260008473ffffffffffffffffffffffffffffffffffffffff1673ffffffffffffffffffffffffffffffffffffffff1681526020019081526020016000206000612fb19190615ba2565b6000603160008573ffffffffffffffffffffffffffffffffffffffff1673ffffffffffffffffffffffffffffffffffffffff168152602001908152602001600020600080151515158152602001908152602001600020600101819055506000603160008573ffffffffffffffffffffffffffffffffffffffff1673ffffffffffffffffffffffffffffffffffffffff1681526020019081526020016000206000600115151515815260200190815260200160002060010181905550613126603160008573ffffffffffffffffffffffffffffffffffffffff1673ffffffffffffffffffffffffffffffffffffffff16815260200190815260200160002060008015151515815260200190815260200160002060020154603160008673ffffffffffffffffffffffffffffffffffffffff1673ffffffffffffffffffffffffffffffffffffffff16815260200190815260200160002060006001151515158152602001908152602001600020600201548561134f565b506001602f819055505050565b602760009054906101000a900473ffffffffffffffffffffffffffffffffffffffff1681565b602060009054906101000a900460ff1681565b60245481565b602760009054906101000a900473ffffffffffffffffffffffffffffffffffffffff1673ffffffffffffffffffffffffffffffffffffffff163373ffffffffffffffffffffffffffffffffffffffff1614613202576040517f08c379a00000000000000000000000000000000000000000000000000000000081526004016131f990616544565b60405180910390fd5b80602a8190555050565b60185481565b42841015613255576040517f08c379a000000000000000000000000000000000000000000000000000000000815260040161324c906165a4565b60405180910390fd5b60006003547f6e71edae12b1b97f4d1f60370fef10105fa2faae0126114a169c64845d6126c960001b898989600460008e73ffffffffffffffffffffffffffffffffffffffff1673ffffffffffffffffffffffffffffffffffffffff16815260200190815260200160002060008154809291906132d190616a18565b919050558a6040516020016132eb9695949392919061641c565b60405160208183030381529060405280519060200120604051602001613312929190616326565b60405160208183030381529060405280519060200120905060006001828686866040516000815260200160405260405161334f949392919061647d565b6020604051602081039080840390855afa158015613371573d6000803e3d6000fd5b505050602060405103519050600073ffffffffffffffffffffffffffffffffffffffff168173ffffffffffffffffffffffffffffffffffffffff16141580156133e557508873ffffffffffffffffffffffffffffffffffffffff168173ffffffffffffffffffffffffffffffffffffffff16145b613424576040517f08c379a000000000000000000000000000000000000000000000000000000000815260040161341b90616564565b60405180910390fd5b61342f89898961358d565b505050505050505050565b6030818154811061344a57600080fd5b906000526020600020016000915054906101000a900473ffffffffffffffffffffffffffffffffffffffff1681565b6002602052816000526040600020602052806000526040600020600091509150505481565b600f5481565b60215481565b60115481565b602d5481565b60085481565b603260205281600052604060002081815481106134d857600080fd5b90600052602060002001600091509150505481565b600d5481565b602760009054906101000a900473ffffffffffffffffffffffffffffffffffffffff1673ffffffffffffffffffffffffffffffffffffffff163373ffffffffffffffffffffffffffffffffffffffff1614613583576040517f08c379a000000000000000000000000000000000000000000000000000000000815260040161357a90616544565b60405180910390fd5b80602c8190555050565b80600260008573ffffffffffffffffffffffffffffffffffffffff1673ffffffffffffffffffffffffffffffffffffffff16815260200190815260200160002060008473ffffffffffffffffffffffffffffffffffffffff1673ffffffffffffffffffffffffffffffffffffffff168152602001908152602001600020819055508173ffffffffffffffffffffffffffffffffffffffff168373ffffffffffffffffffffffffffffffffffffffff167f8c5be1e5ebec7d5bd14f71427d1e84f3dd0314c0f7b2291e5b200ac8c7c3b9258360405161366b9190616664565b60405180910390a3505050565b60008282846136879190616952565b91508111156136cb576040517f08c379a00000000000000000000000000000000000000000000000000000000081526004016136c2906164e4565b60405180910390fd5b92915050565b61372381600160008673ffffffffffffffffffffffffffffffffffffffff1673ffffffffffffffffffffffffffffffffffffffff1681526020019081526020016000205461367890919063ffffffff16565b600160008573ffffffffffffffffffffffffffffffffffffffff1673ffffffffffffffffffffffffffffffffffffffff168152602001908152602001600020819055506137b881600160008573ffffffffffffffffffffffffffffffffffffffff1673ffffffffffffffffffffffffffffffffffffffff1681526020019081526020016000205461526490919063ffffffff16565b600160008473ffffffffffffffffffffffffffffffffffffffff1673ffffffffffffffffffffffffffffffffffffffff168152602001908152602001600020819055508173ffffffffffffffffffffffffffffffffffffffff168373ffffffffffffffffffffffffffffffffffffffff167fddf252ad1be2c89b69c2b068fc378daa952ba7f163c4a11628f55a4df523b3ef836040516138589190616664565b60405180910390a3505050565b6000806138706152bd565b915091506000601f54436138849190616952565b905043601f819055506000600e54600d546017546138a291906168f8565b6138ac9190616756565b905060001515602060009054906101000a900460ff161515141561395d57602e5482601e54602e546138de9190616700565b6019546138eb91906168f8565b6138f591906168f8565b6138ff9190616756565b601981905550602e54602e548284601954601e5461391d91906168f8565b61392791906168f8565b61393191906168f8565b61393b9190616756565b6139459190616756565b601a546139529190616952565b601a819055506139d2565b602e5482601e54602e546139719190616700565b601a5461397e91906168f8565b61398891906168f8565b6139929190616756565b601a819055508082601a54601e546139aa91906168f8565b6139b491906168f8565b6139be9190616756565b6019546139cb9190616952565b6019819055505b83601e8190555082602060006101000a81548160ff02191690831515021790555050505050565b60006001602f5414613a40576040517f08c379a0000000000000000000000000000000000000000000000000000000008152600401613a3790616644565b60405180910390fd5b6000602f8190555060008390506000600190505b600115158115151415613d73576000602e54601854600954613a7691906168f8565b613a809190616756565b90506000613a96600554600654600754856154a3565b9050613aa782600b54600e546155a3565b841115613c6c576000613ac360055460065460075486866155d8565b9050613ad4600c5483600d546155a3565b86613adf9190616700565b9550613af083600b54600e546155a3565b85613afb9190616952565b9450600115158715151415613b3657613b19600c5483600d546155a3565b600f6000828254613b2a9190616700565b92505081905550613b85565b613b4583600b54600e546155a3565b60146000828254613b569190616700565b92505081905550613b6c600c5483600d546155a3565b60136000828254613b7d9190616952565b925050819055505b81600a54600d54613b9691906168f8565b613ba09190616756565b600d8190555082600954600e54613bb791906168f8565b613bc19190616756565b600e81905550600a54836009548484613bda91906168f8565b613be491906168f8565b613bee9190616756565b613bf89190616756565b601781905550600954600b81905550600a54600c81905550613c24600b54600c546007546017546156cc565b600581905550600554602e546002613c3c91906168f8565b613c469190616952565b600681905550613c54614227565b600954600b81905550600a54600c8190555050613d6c565b600b54601581905550600c54601681905550602e54600e5485613c8f91906168f8565b613c999190616756565b600b6000828254613caa9190616700565b92505081905550613cc5600554600654600754600b546154a3565b600c81905550613cdc601654600c54600d546155a3565b85613ce79190616700565b9450600115158615151415613d2457613d07601654600c54600d546155a3565b600f6000828254613d189190616700565b92505081905550613d67565b8360146000828254613d369190616700565b92505081905550613d4e601654600c54600d546155a3565b60136000828254613d5f9190616952565b925050819055505b600092505b5050613a54565b50506001602f8190555092915050565b60006001602f5414613dca576040517f08c379a0000000000000000000000000000000000000000000000000000000008152600401613dc190616644565b60405180910390fd5b6000602f8190555060008390506000600190505b6001151581151514156140fd576000602e54601854600954613e0091906168f8565b613e0a9190616756565b90506000613e2060055460065460075485615806565b9050613e3182600c54600d546155a3565b841115613ff6576000613e4d60055460065460075485876155d8565b9050613e5e600b5483600e546155a3565b86613e699190616700565b9550613e7a83600c54600d546155a3565b85613e859190616952565b9450600115158715151415613ec057613ea3600b5483600e546155a3565b60106000828254613eb49190616700565b92505081905550613f0f565b613ecf600b5483600e546155a3565b60146000828254613ee09190616952565b92505081905550613ef683600c54600d546155a3565b60136000828254613f079190616700565b925050819055505b82600a54600d54613f2091906168f8565b613f2a9190616756565b600d8190555081600954600e54613f4191906168f8565b613f4b9190616756565b600e81905550600a54826009548584613f6491906168f8565b613f6e91906168f8565b613f789190616756565b613f829190616756565b601781905550600954600b81905550600a54600c81905550613fae600b54600c546007546017546156cc565b600581905550600554602e546002613fc691906168f8565b613fd09190616952565b600681905550613fde614227565b600954600b81905550600a54600c81905550506140f6565b600b54601581905550600c54601681905550602e54600d548561401991906168f8565b6140239190616756565b600c60008282546140349190616700565b9250508190555061404f600554600654600754600c54615806565b600b81905550614066601554600b54600e546155a3565b856140719190616700565b94506001151586151514156140ae57614091601554600b54600e546155a3565b601060008282546140a29190616700565b925050819055506140f1565b83601360008282546140c09190616700565b925050819055506140d8601554600b54600e546155a3565b601460008282546140e99190616952565b925050819055505b600092505b5050613dde565b50506001602f8190555092915050565b6141228160005461526490919063ffffffff16565b60008190555061417a81600160008573ffffffffffffffffffffffffffffffffffffffff1673ffffffffffffffffffffffffffffffffffffffff1681526020019081526020016000205461526490919063ffffffff16565b600160008473ffffffffffffffffffffffffffffffffffffffff1673ffffffffffffffffffffffffffffffffffffffff168152602001908152602001600020819055508173ffffffffffffffffffffffffffffffffffffffff16600073ffffffffffffffffffffffffffffffffffffffff167fddf252ad1be2c89b69c2b068fc378daa952ba7f163c4a11628f55a4df523b3ef8360405161421b9190616664565b60405180910390a35050565b61431c601154601254601154600654600d5461424391906168f8565b61424d91906168f8565b600e5460055460125461426091906168f8565b61426a91906168f8565b6142749190616700565b602e54602e54602e54601354601454601354600654600d5461429691906168f8565b6142a091906168f8565b600e546005546014546142b391906168f8565b6142bd91906168f8565b6142c79190616700565b6142d191906168f8565b6142db91906168f8565b6142e591906168f8565b6142ef91906168f8565b6142f991906168f8565b6143039190616756565b61430d9190616756565b6143179190616756565b615906565b6024819055506000602554602654600e54602e54602e54602454600b5461434391906168f8565b61434d91906168f8565b61435791906168f8565b6143619190616756565b61436b9190616756565b6143759190616756565b90506000602554602654600e54602e54602e54602454600c5461439891906168f8565b6143a291906168f8565b6143ac91906168f8565b6143b69190616756565b6143c09190616756565b6143ca9190616756565b9050614423601d5483602e54601054866143e49190616700565b6143ee91906168f8565b6143f89190616756565b83602e54600f548661440a9190616700565b61441491906168f8565b61441e9190616756565b615997565b602381905550602e54602e5460245460235460085461444291906168f8565b61444c91906168f8565b6144569190616756565b6144609190616756565b60078190555060026007546144759190616756565b600981905550600954600a819055506024546026819055506023546025819055505050565b6144ec81600160008573ffffffffffffffffffffffffffffffffffffffff1673ffffffffffffffffffffffffffffffffffffffff1681526020019081526020016000205461367890919063ffffffff16565b600160008473ffffffffffffffffffffffffffffffffffffffff1673ffffffffffffffffffffffffffffffffffffffff168152602001908152602001600020819055506145448160005461367890919063ffffffff16565b600081905550600073ffffffffffffffffffffffffffffffffffffffff168273ffffffffffffffffffffffffffffffffffffffff167fddf252ad1be2c89b69c2b068fc378daa952ba7f163c4a11628f55a4df523b3ef836040516145a89190616664565b60405180910390a35050565b6000808473ffffffffffffffffffffffffffffffffffffffff166040518060400160405280601981526020017f7472616e7366657228616464726573732c75696e74323536290000000000000081525080519060200120858560405160240161461e9291906163bd565b604051602081830303815290604052907bffffffffffffffffffffffffffffffffffffffffffffffffffffffff19166020820180517bffffffffffffffffffffffffffffffffffffffffffffffffffffffff8381831617835250505050604051614688919061630f565b6000604051808303816000865af19150503d80600081146146c5576040519150601f19603f3d011682016040523d82523d6000602084013e6146ca565b606091505b50915091508180156146f857506000815114806146f75750808060200190518101906146f69190615ea8565b5b5b614737576040517f08c379a000000000000000000000000000000000000000000000000000000000815260040161472e90616604565b60405180910390fd5b5050505050565b600061476b602960009054906101000a900473ffffffffffffffffffffffffffffffffffffffff1661486c565b603160008473ffffffffffffffffffffffffffffffffffffffff1673ffffffffffffffffffffffffffffffffffffffff16815260200190815260200160002060006001151515158152602001908152602001600020600201546147ce91906168f8565b6147f9602860009054906101000a900473ffffffffffffffffffffffffffffffffffffffff1661486c565b603160008573ffffffffffffffffffffffffffffffffffffffff1673ffffffffffffffffffffffffffffffffffffffff1681526020019081526020016000206000801515151581526020019081526020016000206002015461485b91906168f8565b6148659190616700565b9050919050565b6000919050565b60008183116148825781614884565b825b905092915050565b6000670de0b6b3a76400006148c2602860009054906101000a900473ffffffffffffffffffffffffffffffffffffffff1661486c565b601b54601954603160008773ffffffffffffffffffffffffffffffffffffffff1673ffffffffffffffffffffffffffffffffffffffff1681526020019081526020016000206000801515151581526020019081526020016000206001015461492a91906168f8565b6149349190616756565b61493e91906168f8565b6149489190616756565b670de0b6b3a764000061497c602960009054906101000a900473ffffffffffffffffffffffffffffffffffffffff1661486c565b601c54601a54603160008873ffffffffffffffffffffffffffffffffffffffff1673ffffffffffffffffffffffffffffffffffffffff16815260200190815260200160002060006001151515158152602001908152602001600020600101546149e591906168f8565b6149ef9190616756565b6149f991906168f8565b614a039190616756565b614a0d9190616700565b9050919050565b600080603260008473ffffffffffffffffffffffffffffffffffffffff1673ffffffffffffffffffffffffffffffffffffffff168152602001908152602001600020805480602002602001604051908101604052809291908181526020018280548015614aa057602002820191906000526020600020905b815481526020019060010190808311614a8c575b505050505090506000614ab16159c2565b905060008251905060005b81811015614b3157602e54838281518110614ada57614ad9616ac9565b5b6020026020010151858381518110614af557614af4616ac9565b5b6020026020010151614b0791906168f8565b614b119190616756565b85614b1c9190616700565b94508080614b2990616a18565b915050614abc565b50505050919050565b60006001602f5414614b81576040517f08c379a0000000000000000000000000000000000000000000000000000000008152600401614b7890616644565b60405180910390fd5b6000602f8190555060008490506000600190505b600115158115151415614ea4576000602e54601854600954614bb791906168f8565b614bc19190616756565b90506000614bd7600554600654600754856154a3565b9050614be8600c5482600d546155a3565b841115614dad576000614c0460055460065460075486866155d8565b9050614c1583600b54600e546155a3565b86614c209190616700565b9550614c31600c5483600d546155a3565b85614c3c9190616952565b9450600115158715151415614c7757614c5a600c5483600d546155a3565b600f6000828254614c6b9190616700565b92505081905550614cc6565b614c8683600b54600e546155a3565b60146000828254614c979190616700565b92505081905550614cad600c5483600d546155a3565b60136000828254614cbe9190616952565b925050819055505b81600a54600d54614cd791906168f8565b614ce19190616756565b600d8190555082600954600e54614cf891906168f8565b614d029190616756565b600e81905550600a54836009548484614d1b91906168f8565b614d2591906168f8565b614d2f9190616756565b614d399190616756565b601781905550600954600b81905550600a54600c81905550614d65600b54600c546007546017546156cc565b600581905550600554602e546002614d7d91906168f8565b614d879190616952565b600681905550614d95614227565b600954600b81905550600a54600c8190555050614e9d565b600b54601581905550600c54601681905550602e54600d5485614dd091906168f8565b614dda9190616756565b600c6000828254614deb9190616952565b92505081905550614e06600554600654600754600c54615806565b600b81905550614e1d600b54601554600e546155a3565b85614e289190616700565b9450600115158615151415614e555783600f6000828254614e499190616700565b92505081905550614e98565b614e66600b54601554600e546155a3565b60146000828254614e779190616700565b925050819055508360136000828254614e909190616952565b925050819055505b600092505b5050614b95565b600015158415151415614ebe57828511614ebd57600080fd5b5b50506001602f819055509392505050565b60006001602f5414614f16576040517f08c379a0000000000000000000000000000000000000000000000000000000008152600401614f0d90616644565b60405180910390fd5b6000602f8190555060008490506000600190505b600115158115151415615239576000602e54601854600a54614f4c91906168f8565b614f569190616756565b90506000614f6c60055460065460075485615806565b9050614f7d600b5482600e546155a3565b841115615142576000614f9960055460065460075485876155d8565b9050614faa83600c54600d546155a3565b86614fb59190616700565b9550614fc6600b5483600e546155a3565b85614fd19190616952565b945060011515871515141561500c57614fef600b5483600e546155a3565b601060008282546150009190616700565b9250508190555061505b565b61501b83600c54600d546155a3565b6013600082825461502c9190616700565b92505081905550615042600b5483600e546155a3565b601460008282546150539190616952565b925050819055505b82600a54600d5461506c91906168f8565b6150769190616756565b600d8190555081600954600e5461508d91906168f8565b6150979190616756565b600e81905550600a548260095485846150b091906168f8565b6150ba91906168f8565b6150c49190616756565b6150ce9190616756565b601781905550600954600b81905550600a54600c819055506150fa600b54600c546007546017546156cc565b600581905550600554602e54600261511291906168f8565b61511c9190616952565b60068190555061512a614227565b600954600b81905550600a54600c8190555050615232565b600b54601581905550600c54601681905550602e54600e548561516591906168f8565b61516f9190616756565b600b60008282546151809190616952565b9250508190555061519b600554600654600754600b546154a3565b600c819055506151b2600c54601654600d546155a3565b856151bd9190616700565b94506001151586151514156151ea5783601060008282546151de9190616700565b9250508190555061522d565b6151fb600c54601654600d546155a3565b6013600082825461520c9190616700565b9250508190555083601460008282546152259190616952565b925050819055505b600092505b5050614f2a565b6000151584151514156152535782851161525257600080fd5b5b50506001602f819055509392505050565b60008282846152739190616700565b91508110156152b7576040517f08c379a00000000000000000000000000000000000000000000000000000000081526004016152ae90616584565b60405180910390fd5b92915050565b6000806000602e54600e546014546152d591906168f8565b6152df9190616756565b90506000602e54600d546013546152f691906168f8565b6153009190616756565b90506000602354602e5460075461531791906168f8565b6153219190616756565b90506000615330848484615a57565b9050600081602e54600261534491906168f8565b61534e9190616952565b90506000600e54600d546153658585888b8b6155d8565b61536f91906168f8565b6153799190616756565b90506000600e54600d5461539a600554600654600754600b54600c546155d8565b6153a491906168f8565b6153ae9190616756565b9050818111156154155760006153cb600f54601354602254615adb565b90508061168084602e5486866153e19190616952565b6153eb91906168f8565b6153f59190616756565b6153ff9190616756565b6154099190616700565b9950600098505061546e565b6000615428601054601454602254615adb565b90508061168084602e54858761543e9190616952565b61544891906168f8565b6154529190616756565b61545c9190616756565b6154669190616700565b995060019850505b6021546107808a61547f91906168f8565b1115615498576107806021546154959190616756565b98505b505050505050509091565b6000818460086154b391906168f8565b6154bd91906168f8565b615556670de0b6b3a76400008586876154d691906168f8565b6154e091906168f8565b60006154ec9190616952565b858860106154fa91906168f8565b61550491906168f8565b61550e91906168f8565b61551891906168f8565b600285868a600461552991906168f8565b61553391906168f8565b61553d91906168f8565b61554791906167da565b6155519190616952565b615b28565b838488600461556591906168f8565b61556f91906168f8565b61557991906168f8565b60006155859190616952565b61558f9190616700565b6155999190616756565b9050949350505050565b600081670de0b6b3a764000084866155bb9190616952565b6155c591906168f8565b6155cf9190616756565b90509392505050565b6000818485866155e891906168f8565b6155f291906168f8565b6155fc91906168f8565b828385868a600461560d91906168f8565b61561791906168f8565b61562191906168f8565b61562b91906168f8565b61563591906168f8565b61563f9190616700565b670de0b6b3a76400008486878861565691906168f8565b61566091906168f8565b61566a91906168f8565b848587888b600461567b91906168f8565b61568591906168f8565b61568f91906168f8565b61569991906168f8565b6156a391906168f8565b6156ad9190616700565b6156b791906168f8565b6156c19190616756565b905095945050505050565b600081670de0b6b3a76400006156e29190616700565b8485878860046156f291906168f8565b6156fc91906168f8565b61570691906168f8565b61571091906168f8565b61571a91906168f8565b670de0b6b3a7640000838686878861573291906168f8565b61573c91906168f8565b61574691906168f8565b61575091906168f8565b61575a91906168f8565b6ec097ce7bc90715b34b9f10000000008786878861577891906168f8565b61578291906168f8565b61578c91906168f8565b61579691906168f8565b6ec097ce7bc90715b34b9f100000000087888a8b60086157b691906168f8565b6157c091906168f8565b6157ca91906168f8565b6157d491906168f8565b6157de91906168f8565b6157e89190616700565b6157f29190616952565b6157fc9190616756565b9050949350505050565b60008185600861581691906168f8565b61582091906168f8565b6158b9670de0b6b3a764000085868761583991906168f8565b61584391906168f8565b600061584f9190616952565b8589601061585d91906168f8565b61586791906168f8565b61587191906168f8565b61587b91906168f8565b6002858689600461588c91906168f8565b61589691906168f8565b6158a091906168f8565b6158aa91906167da565b6158b49190616952565b615b28565b83848760046158c891906168f8565b6158d291906168f8565b6158dc91906168f8565b60006158e89190616952565b6158f29190616700565b6158fc9190616756565b9050949350505050565b6000600882111561598457819050600060016003846159259190616756565b61592f9190616700565b90505b8181101561597e57809150600381600261594c91906168f8565b828361595891906168f8565b856159639190616756565b61596d9190616700565b6159779190616756565b9050615932565b50615992565b6000821461599157600190505b5b919050565b60008284106159a657826159a8565b835b93508184106159b757816159b9565b835b90509392505050565b60606000603080549050905060005b81811015615a5257615a20603082815481106159f0576159ef616ac9565b5b9060005260206000200160009054906101000a900473ffffffffffffffffffffffffffffffffffffffff1661486c565b838281518110615a3357615a32616ac9565b5b6020026020010181815250508080615a4a90616a18565b9150506159d1565b505090565b60008284615a659190616952565b670de0b6b3a7640000846002615a7b91906168f8565b85876004878889615a8c91906168f8565b615a9691906168f8565b615aa09190616756565b615aaa9190616756565b615ab49190616756565b615abe9190616952565b615ac891906168f8565b615ad29190616756565b90509392505050565b60008161e1008585615aed9190616700565b670de0b6b3a764000087615b0191906168f8565b615b0b9190616756565b615b159190616756565b615b1f9190616700565b90509392505050565b60006003821115615b8f5781905060006001600284615b479190616756565b615b519190616700565b90505b81811015615b89578091506002818285615b6e9190616756565b615b789190616700565b615b829190616756565b9050615b54565b50615b9d565b60008214615b9c57600190505b5b919050565b5080546000825590600052602060002090810190615bc09190615bc3565b50565b5b80821115615bdc576000816000905550600101615bc4565b5090565b600081359050615bef81616d30565b92915050565b600081359050615c0481616d47565b92915050565b600081519050615c1981616d47565b92915050565b600081359050615c2e81616d5e565b92915050565b600081359050615c4381616d75565b92915050565b600081519050615c5881616d75565b92915050565b600081359050615c6d81616d8c565b92915050565b600060208284031215615c8957615c88616af8565b5b6000615c9784828501615be0565b91505092915050565b60008060408385031215615cb757615cb6616af8565b5b6000615cc585828601615be0565b9250506020615cd685828601615be0565b9150509250929050565b600080600060608486031215615cf957615cf8616af8565b5b6000615d0786828701615be0565b9350506020615d1886828701615be0565b9250506040615d2986828701615c34565b9150509250925092565b600080600080600080600060e0888a031215615d5257615d51616af8565b5b6000615d608a828b01615be0565b9750506020615d718a828b01615be0565b9650506040615d828a828b01615c34565b9550506060615d938a828b01615c34565b9450506080615da48a828b01615c5e565b93505060a0615db58a828b01615c1f565b92505060c0615dc68a828b01615c1f565b91505092959891949750929550565b60008060408385031215615dec57615deb616af8565b5b6000615dfa85828601615be0565b9250506020615e0b85828601615bf5565b9150509250929050565b60008060408385031215615e2c57615e2b616af8565b5b6000615e3a85828601615be0565b9250506020615e4b85828601615c34565b9150509250929050565b600080600060608486031215615e6e57615e6d616af8565b5b6000615e7c86828701615be0565b9350506020615e8d86828701615c34565b9250506040615e9e86828701615c34565b9150509250925092565b600060208284031215615ebe57615ebd616af8565b5b6000615ecc84828501615c0a565b91505092915050565b600060208284031215615eeb57615eea616af8565b5b6000615ef984828501615c34565b91505092915050565b600060208284031215615f1857615f17616af8565b5b6000615f2684828501615c49565b91505092915050565b60008060408385031215615f4657615f45616af8565b5b6000615f5485828601615c34565b9250506020615f6585828601615be0565b9150509250929050565b600080600060608486031215615f8857615f87616af8565b5b6000615f9686828701615c34565b9350506020615fa786828701615be0565b9250506040615fb886828701615be0565b9150509250925092565b600080600060608486031215615fdb57615fda616af8565b5b6000615fe986828701615c34565b9350506020615ffa86828701615c34565b925050604061600b86828701615be0565b9150509250925092565b6000806000806080858703121561602f5761602e616af8565b5b600061603d87828801615c34565b945050602061604e87828801615c34565b935050604061605f87828801615bf5565b925050606061607087828801615be0565b91505092959194509250565b61608581616986565b82525050565b61609481616998565b82525050565b6160a3816169a4565b82525050565b6160ba6160b5826169a4565b616a61565b82525050565b60006160cb826166c3565b6160d581856166d9565b93506160e58185602086016169e5565b80840191505092915050565b60006160fc826166ce565b61610681856166e4565b93506161168185602086016169e5565b61611f81616afd565b840191505092915050565b60006161376015836166e4565b915061614282616b1b565b602082019050919050565b600061615a6020836166e4565b915061616582616b44565b602082019050919050565b600061617d6012836166e4565b915061618882616b6d565b602082019050919050565b60006161a06010836166e4565b91506161ab82616b96565b602082019050919050565b60006161c3601c836166e4565b91506161ce82616bbf565b602082019050919050565b60006161e66002836166f5565b91506161f182616be8565b600282019050919050565b60006162096014836166e4565b915061621482616c11565b602082019050919050565b600061622c6012836166e4565b915061623782616c3a565b602082019050919050565b600061624f6009836166e4565b915061625a82616c63565b602082019050919050565b60006162726013836166e4565b915061627d82616c8c565b602082019050919050565b6000616295600f836166e4565b91506162a082616cb5565b602082019050919050565b60006162b86018836166e4565b91506162c382616cde565b602082019050919050565b60006162db6006836166e4565b91506162e682616d07565b602082019050919050565b6162fa816169ce565b82525050565b616309816169d8565b82525050565b600061631b82846160c0565b915081905092915050565b6000616331826161d9565b915061633d82856160a9565b60208201915061634d82846160a9565b6020820191508190509392505050565b6000602082019050616372600083018461607c565b92915050565b600060808201905061638d600083018761607c565b61639a602083018661608b565b6163a760408301856162f1565b6163b460608301846162f1565b95945050505050565b60006040820190506163d2600083018561607c565b6163df60208301846162f1565b9392505050565b60006020820190506163fb600083018461608b565b92915050565b6000602082019050616416600083018461609a565b92915050565b600060c082019050616431600083018961609a565b61643e602083018861607c565b61644b604083018761607c565b61645860608301866162f1565b61646560808301856162f1565b61647260a08301846162f1565b979650505050505050565b6000608082019050616492600083018761609a565b61649f6020830186616300565b6164ac604083018561609a565b6164b9606083018461609a565b95945050505050565b600060208201905081810360008301526164dc81846160f1565b905092915050565b600060208201905081810360008301526164fd8161612a565b9050919050565b6000602082019050818103600083015261651d8161614d565b9050919050565b6000602082019050818103600083015261653d81616170565b9050919050565b6000602082019050818103600083015261655d81616193565b9050919050565b6000602082019050818103600083015261657d816161b6565b9050919050565b6000602082019050818103600083015261659d816161fc565b9050919050565b600060208201905081810360008301526165bd8161621f565b9050919050565b600060208201905081810360008301526165dd81616242565b9050919050565b600060208201905081810360008301526165fd81616265565b9050919050565b6000602082019050818103600083015261661d81616288565b9050919050565b6000602082019050818103600083015261663d816162ab565b9050919050565b6000602082019050818103600083015261665d816162ce565b9050919050565b600060208201905061667960008301846162f1565b92915050565b600060408201905061669460008301856162f1565b6166a160208301846162f1565b9392505050565b60006020820190506166bd6000830184616300565b92915050565b600081519050919050565b600081519050919050565b600081905092915050565b600082825260208201905092915050565b600081905092915050565b600061670b826169ce565b9150616716836169ce565b9250827fffffffffffffffffffffffffffffffffffffffffffffffffffffffffffffffff0382111561674b5761674a616a6b565b5b828201905092915050565b6000616761826169ce565b915061676c836169ce565b92508261677c5761677b616a9a565b5b828204905092915050565b6000808291508390505b60018511156167d1578086048111156167ad576167ac616a6b565b5b60018516156167bc5780820291505b80810290506167ca85616b0e565b9450616791565b94509492505050565b60006167e5826169ce565b91506167f0836169d8565b925061681d7fffffffffffffffffffffffffffffffffffffffffffffffffffffffffffffffff8484616825565b905092915050565b60008261683557600190506168f1565b8161684357600090506168f1565b8160018114616859576002811461686357616892565b60019150506168f1565b60ff84111561687557616874616a6b565b5b8360020a91508482111561688c5761688b616a6b565b5b506168f1565b5060208310610133831016604e8410600b84101617156168c75782820a9050838111156168c2576168c1616a6b565b5b6168f1565b6168d48484846001616787565b925090508184048111156168eb576168ea616a6b565b5b81810290505b9392505050565b6000616903826169ce565b915061690e836169ce565b9250817fffffffffffffffffffffffffffffffffffffffffffffffffffffffffffffffff048311821515161561694757616946616a6b565b5b828202905092915050565b600061695d826169ce565b9150616968836169ce565b92508282101561697b5761697a616a6b565b5b828203905092915050565b6000616991826169ae565b9050919050565b60008115159050919050565b6000819050919050565b600073ffffffffffffffffffffffffffffffffffffffff82169050919050565b6000819050919050565b600060ff82169050919050565b60005b83811015616a035780820151818401526020810190506169e8565b83811115616a12576000848401525b50505050565b6000616a23826169ce565b91507fffffffffffffffffffffffffffffffffffffffffffffffffffffffffffffffff821415616a5657616a55616a6b565b5b600182019050919050565b6000819050919050565b7f4e487b7100000000000000000000000000000000000000000000000000000000600052601160045260246000fd5b7f4e487b7100000000000000000000000000000000000000000000000000000000600052601260045260246000fd5b7f4e487b7100000000000000000000000000000000000000000000000000000000600052603260045260246000fd5b600080fd5b6000601f19601f8301169050919050565b60008160011c9050919050565b7f64732d6d6174682d7375622d756e646572666c6f770000000000000000000000600082015250565b7f51696c696e3a20494e53554646494349454e545f494e5055545f414d4f554e54600082015250565b7f51496c696e3a20494e56414c49445f4f55540000000000000000000000000000600082015250565b7f51696c696e3a20464f5242494444454e00000000000000000000000000000000600082015250565b7f556e697377617056323a20494e56414c49445f5349474e415455524500000000600082015250565b7f1901000000000000000000000000000000000000000000000000000000000000600082015250565b7f64732d6d6174682d6164642d6f766572666c6f77000000000000000000000000600082015250565b7f556e697377617056323a20455850495245440000000000000000000000000000600082015250565b7f464f5242494444454e0000000000000000000000000000000000000000000000600082015250565b7f4e4f5420454e4f55474820504f534954494f4e00000000000000000000000000600082015250565b7f5452414e534645525f4641494c45440000000000000000000000000000000000600082015250565b7f51696c696e3a204e4f5420454e4f554748204d415247494e0000000000000000600082015250565b7f4c4f434b45440000000000000000000000000000000000000000000000000000600082015250565b616d3981616986565b8114616d4457600080fd5b50565b616d5081616998565b8114616d5b57600080fd5b50565b616d67816169a4565b8114616d7257600080fd5b50565b616d7e816169ce565b8114616d8957600080fd5b50565b616d95816169d8565b8114616da057600080fd5b5056fea2646970667358221220509a3af4239d60c43d5fdbcb059e2ff77e7dd2e22ca1f940e2daf693f3b8b80f64736f6c63430008070033",
			"opcodes": "PUSH1 0x80 PUSH1 0x40 MSTORE PUSH8 0xDE0B6B3A7640000 PUSH1 0x2E SSTORE PUSH1 0x1 PUSH1 0x2F SSTORE CALLVALUE DUP1 ISZERO PUSH3 0x22 JUMPI PUSH1 0x0 DUP1 REVERT JUMPDEST POP PUSH1 0x0 CHAINID SWAP1 POP PUSH32 0x8B73C3C69BB8FE3D512ECC4CF759CC79239F7B179B0FFACAA9A75D522B39400F PUSH1 0x40 MLOAD DUP1 PUSH1 0x40 ADD PUSH1 0x40 MSTORE DUP1 PUSH1 0xA DUP2 MSTORE PUSH1 0x20 ADD PUSH32 0x556E697377617020563200000000000000000000000000000000000000000000 DUP2 MSTORE POP DUP1 MLOAD SWAP1 PUSH1 0x20 ADD KECCAK256 PUSH1 0x40 MLOAD DUP1 PUSH1 0x40 ADD PUSH1 0x40 MSTORE DUP1 PUSH1 0x1 DUP2 MSTORE PUSH1 0x20 ADD PUSH32 0x3100000000000000000000000000000000000000000000000000000000000000 DUP2 MSTORE POP DUP1 MLOAD SWAP1 PUSH1 0x20 ADD KECCAK256 DUP4 ADDRESS PUSH1 0x40 MLOAD PUSH1 0x20 ADD PUSH3 0xDB SWAP6 SWAP5 SWAP4 SWAP3 SWAP2 SWAP1 PUSH3 0x172 JUMP JUMPDEST PUSH1 0x40 MLOAD PUSH1 0x20 DUP2 DUP4 SUB SUB DUP2 MSTORE SWAP1 PUSH1 0x40 MSTORE DUP1 MLOAD SWAP1 PUSH1 0x20 ADD KECCAK256 PUSH1 0x3 DUP2 SWAP1 SSTORE POP POP CALLER PUSH1 0x27 PUSH1 0x0 PUSH2 0x100 EXP DUP2 SLOAD DUP2 PUSH20 0xFFFFFFFFFFFFFFFFFFFFFFFFFFFFFFFFFFFFFFFF MUL NOT AND SWAP1 DUP4 PUSH20 0xFFFFFFFFFFFFFFFFFFFFFFFFFFFFFFFFFFFFFFFF AND MUL OR SWAP1 SSTORE POP PUSH3 0x217 JUMP JUMPDEST PUSH3 0x14A DUP2 PUSH3 0x1CF JUMP JUMPDEST DUP3 MSTORE POP POP JUMP JUMPDEST PUSH3 0x15B DUP2 PUSH3 0x1E3 JUMP JUMPDEST DUP3 MSTORE POP POP JUMP JUMPDEST PUSH3 0x16C DUP2 PUSH3 0x20D JUMP JUMPDEST DUP3 MSTORE POP POP JUMP JUMPDEST PUSH1 0x0 PUSH1 0xA0 DUP3 ADD SWAP1 POP PUSH3 0x189 PUSH1 0x0 DUP4 ADD DUP9 PUSH3 0x150 JUMP JUMPDEST PUSH3 0x198 PUSH1 0x20 DUP4 ADD DUP8 PUSH3 0x150 JUMP JUMPDEST PUSH3 0x1A7 PUSH1 0x40 DUP4 ADD DUP7 PUSH3 0x150 JUMP JUMPDEST PUSH3 0x1B6 PUSH1 0x60 DUP4 ADD DUP6 PUSH3 0x161 JUMP JUMPDEST PUSH3 0x1C5 PUSH1 0x80 DUP4 ADD DUP5 PUSH3 0x13F JUMP JUMPDEST SWAP7 SWAP6 POP POP POP POP POP POP JUMP JUMPDEST PUSH1 0x0 PUSH3 0x1DC DUP3 PUSH3 0x1ED JUMP JUMPDEST SWAP1 POP SWAP2 SWAP1 POP JUMP JUMPDEST PUSH1 0x0 DUP2 SWAP1 POP SWAP2 SWAP1 POP JUMP JUMPDEST PUSH1 0x0 PUSH20 0xFFFFFFFFFFFFFFFFFFFFFFFFFFFFFFFFFFFFFFFF DUP3 AND SWAP1 POP SWAP2 SWAP1 POP JUMP JUMPDEST PUSH1 0x0 DUP2 SWAP1 POP SWAP2 SWAP1 POP JUMP JUMPDEST PUSH2 0x6DD9 DUP1 PUSH3 0x227 PUSH1 0x0 CODECOPY PUSH1 0x0 RETURN INVALID PUSH1 0x80 PUSH1 0x40 MSTORE CALLVALUE DUP1 ISZERO PUSH2 0x10 JUMPI PUSH1 0x0 DUP1 REVERT JUMPDEST POP PUSH1 0x4 CALLDATASIZE LT PUSH2 0x432 JUMPI PUSH1 0x0 CALLDATALOAD PUSH1 0xE0 SHR DUP1 PUSH4 0x79DBF8EA GT PUSH2 0x236 JUMPI DUP1 PUSH4 0xB7D19FC4 GT PUSH2 0x13B JUMPI DUP1 PUSH4 0xDA5604CE GT PUSH2 0xC3 JUMPI DUP1 PUSH4 0xF70F4394 GT PUSH2 0x87 JUMPI DUP1 PUSH4 0xF70F4394 EQ PUSH2 0xCE1 JUMPI DUP1 PUSH4 0xF738C74E EQ PUSH2 0xCFF JUMPI DUP1 PUSH4 0xFC69B80F EQ PUSH2 0xD1D JUMPI DUP1 PUSH4 0xFE18F261 EQ PUSH2 0xD4D JUMPI DUP1 PUSH4 0xFF2F169E EQ PUSH2 0xD6B JUMPI PUSH2 0x432 JUMP JUMPDEST DUP1 PUSH4 0xDA5604CE EQ PUSH2 0xC27 JUMPI DUP1 PUSH4 0xDD62ED3E EQ PUSH2 0xC57 JUMPI DUP1 PUSH4 0xDF0AB2C2 EQ PUSH2 0xC87 JUMPI DUP1 PUSH4 0xE19A1474 EQ PUSH2 0xCA5 JUMPI DUP1 PUSH4 0xEA1797B0 EQ PUSH2 0xCC3 JUMPI PUSH2 0x432 JUMP JUMPDEST DUP1 PUSH4 0xC7D44932 GT PUSH2 0x10A JUMPI DUP1 PUSH4 0xC7D44932 EQ PUSH2 0xB95 JUMPI DUP1 PUSH4 0xC9E525DF EQ PUSH2 0xBB3 JUMPI DUP1 PUSH4 0xCFE38A5E EQ PUSH2 0xBD1 JUMPI DUP1 PUSH4 0xD44022DB EQ PUSH2 0xBED JUMPI DUP1 PUSH4 0xD505ACCF EQ PUSH2 0xC0B JUMPI PUSH2 0x432 JUMP JUMPDEST DUP1 PUSH4 0xB7D19FC4 EQ PUSH2 0xB21 JUMPI DUP1 PUSH4 0xBC25CF77 EQ PUSH2 0xB3F JUMPI DUP1 PUSH4 0xC3D81B21 EQ PUSH2 0xB5B JUMPI DUP1 PUSH4 0xC45A0155 EQ PUSH2 0xB77 JUMPI PUSH2 0x432 JUMP JUMPDEST DUP1 PUSH4 0x8E361389 GT PUSH2 0x1BE JUMPI DUP1 PUSH4 0x9F1D0F59 GT PUSH2 0x18D JUMPI DUP1 PUSH4 0x9F1D0F59 EQ PUSH2 0xA7D JUMPI DUP1 PUSH4 0xA54C08F3 EQ PUSH2 0xA99 JUMPI DUP1 PUSH4 0xA5AA65B9 EQ PUSH2 0xAB5 JUMPI DUP1 PUSH4 0xA9059CBB EQ PUSH2 0xAD3 JUMPI DUP1 PUSH4 0xACD4A7C2 EQ PUSH2 0xB03 JUMPI PUSH2 0x432 JUMP JUMPDEST DUP1 PUSH4 0x8E361389 EQ PUSH2 0xA07 JUMPI DUP1 PUSH4 0x9076AE86 EQ PUSH2 0xA25 JUMPI DUP1 PUSH4 0x95D89B41 EQ PUSH2 0xA41 JUMPI DUP1 PUSH4 0x9A36E122 EQ PUSH2 0xA5F JUMPI PUSH2 0x432 JUMP JUMPDEST DUP1 PUSH4 0x7ED6281B GT PUSH2 0x205 JUMPI DUP1 PUSH4 0x7ED6281B EQ PUSH2 0x971 JUMPI DUP1 PUSH4 0x80416C02 EQ PUSH2 0x98F JUMPI DUP1 PUSH4 0x83DFE5FD EQ PUSH2 0x9AD JUMPI DUP1 PUSH4 0x84009686 EQ PUSH2 0x9CB JUMPI DUP1 PUSH4 0x8BC1A32F EQ PUSH2 0x9E9 JUMPI PUSH2 0x432 JUMP JUMPDEST DUP1 PUSH4 0x79DBF8EA EQ PUSH2 0x8D2 JUMPI DUP1 PUSH4 0x7E11939A EQ PUSH2 0x8F0 JUMPI DUP1 PUSH4 0x7E1431BE EQ PUSH2 0x90E JUMPI DUP1 PUSH4 0x7ECEBE00 EQ PUSH2 0x941 JUMPI PUSH2 0x432 JUMP JUMPDEST DUP1 PUSH4 0x313CE567 GT PUSH2 0x33C JUMPI DUP1 PUSH4 0x5595D459 GT PUSH2 0x2C4 JUMPI DUP1 PUSH4 0x6665FF11 GT PUSH2 0x293 JUMPI DUP1 PUSH4 0x6665FF11 EQ PUSH2 0x805 JUMPI DUP1 PUSH4 0x693F917E EQ PUSH2 0x836 JUMPI DUP1 PUSH4 0x699553AA EQ PUSH2 0x854 JUMPI DUP1 PUSH4 0x6B3545AA EQ PUSH2 0x884 JUMPI DUP1 PUSH4 0x70A08231 EQ PUSH2 0x8A2 JUMPI PUSH2 0x432 JUMP JUMPDEST DUP1 PUSH4 0x5595D459 EQ PUSH2 0x77B JUMPI DUP1 PUSH4 0x5E287D86 EQ PUSH2 0x799 JUMPI DUP1 PUSH4 0x6126DEEF EQ PUSH2 0x7B7 JUMPI DUP1 PUSH4 0x6607E7E8 EQ PUSH2 0x7E7 JUMPI PUSH2 0x432 JUMP JUMPDEST DUP1 PUSH4 0x36AF2F9B GT PUSH2 0x30B JUMPI DUP1 PUSH4 0x36AF2F9B EQ PUSH2 0x6E9 JUMPI DUP1 PUSH4 0x3C6FE2F4 EQ PUSH2 0x707 JUMPI DUP1 PUSH4 0x480C4F7E EQ PUSH2 0x725 JUMPI DUP1 PUSH4 0x485CC955 EQ PUSH2 0x743 JUMPI DUP1 PUSH4 0x4C324E6A EQ PUSH2 0x75F JUMPI PUSH2 0x432 JUMP JUMPDEST DUP1 PUSH4 0x313CE567 EQ PUSH2 0x673 JUMPI DUP1 PUSH4 0x32E7C5BF EQ PUSH2 0x691 JUMPI DUP1 PUSH4 0x35714521 EQ PUSH2 0x6AF JUMPI DUP1 PUSH4 0x3644E515 EQ PUSH2 0x6CB JUMPI PUSH2 0x432 JUMP JUMPDEST DUP1 PUSH4 0x18160DDD GT PUSH2 0x3BF JUMPI DUP1 PUSH4 0x23B872DD GT PUSH2 0x38E JUMPI DUP1 PUSH4 0x23B872DD EQ PUSH2 0x5CB JUMPI DUP1 PUSH4 0x23ED16B6 EQ PUSH2 0x5FB JUMPI DUP1 PUSH4 0x25C513A4 EQ PUSH2 0x619 JUMPI DUP1 PUSH4 0x2DD6C254 EQ PUSH2 0x637 JUMPI DUP1 PUSH4 0x30ADF81F EQ PUSH2 0x655 JUMPI PUSH2 0x432 JUMP JUMPDEST DUP1 PUSH4 0x18160DDD EQ PUSH2 0x553 JUMPI DUP1 PUSH4 0x18DB9681 EQ PUSH2 0x571 JUMPI DUP1 PUSH4 0x2190219E EQ PUSH2 0x58F JUMPI DUP1 PUSH4 0x225C2C50 EQ PUSH2 0x5AD JUMPI PUSH2 0x432 JUMP JUMPDEST DUP1 PUSH4 0xB197615 GT PUSH2 0x406 JUMPI DUP1 PUSH4 0xB197615 EQ PUSH2 0x4BF JUMPI DUP1 PUSH4 0xBFA68D8 EQ PUSH2 0x4DD JUMPI DUP1 PUSH4 0xF529BA2 EQ PUSH2 0x4F9 JUMPI DUP1 PUSH4 0x139860EE EQ PUSH2 0x517 JUMPI DUP1 PUSH4 0x16DC165B EQ PUSH2 0x535 JUMPI PUSH2 0x432 JUMP JUMPDEST DUP1 PUSH3 0xB52645 EQ PUSH2 0x437 JUMPI DUP1 PUSH4 0x6FDDE03 EQ PUSH2 0x455 JUMPI DUP1 PUSH4 0x95EA7B3 EQ PUSH2 0x473 JUMPI DUP1 PUSH4 0x9E95861 EQ PUSH2 0x4A3 JUMPI JUMPDEST PUSH1 0x0 DUP1 REVERT JUMPDEST PUSH2 0x43F PUSH2 0xD87 JUMP JUMPDEST PUSH1 0x40 MLOAD PUSH2 0x44C SWAP2 SWAP1 PUSH2 0x6664 JUMP JUMPDEST PUSH1 0x40 MLOAD DUP1 SWAP2 SUB SWAP1 RETURN JUMPDEST PUSH2 0x45D PUSH2 0xD8D JUMP JUMPDEST PUSH1 0x40 MLOAD PUSH2 0x46A SWAP2 SWAP1 PUSH2 0x64C2 JUMP JUMPDEST PUSH1 0x40 MLOAD DUP1 SWAP2 SUB SWAP1 RETURN JUMPDEST PUSH2 0x48D PUSH1 0x4 DUP1 CALLDATASIZE SUB DUP2 ADD SWAP1 PUSH2 0x488 SWAP2 SWAP1 PUSH2 0x5E15 JUMP JUMPDEST PUSH2 0xDC6 JUMP JUMPDEST PUSH1 0x40 MLOAD PUSH2 0x49A SWAP2 SWAP1 PUSH2 0x63E6 JUMP JUMPDEST PUSH1 0x40 MLOAD DUP1 SWAP2 SUB SWAP1 RETURN JUMPDEST PUSH2 0x4BD PUSH1 0x4 DUP1 CALLDATASIZE SUB DUP2 ADD SWAP1 PUSH2 0x4B8 SWAP2 SWAP1 PUSH2 0x5FC2 JUMP JUMPDEST PUSH2 0xDDD JUMP JUMPDEST STOP JUMPDEST PUSH2 0x4C7 PUSH2 0xEAC JUMP JUMPDEST PUSH1 0x40 MLOAD PUSH2 0x4D4 SWAP2 SWAP1 PUSH2 0x6664 JUMP JUMPDEST PUSH1 0x40 MLOAD DUP1 SWAP2 SUB SWAP1 RETURN JUMPDEST PUSH2 0x4F7 PUSH1 0x4 DUP1 CALLDATASIZE SUB DUP2 ADD SWAP1 PUSH2 0x4F2 SWAP2 SWAP1 PUSH2 0x5ED5 JUMP JUMPDEST PUSH2 0xEB2 JUMP JUMPDEST STOP JUMPDEST PUSH2 0x501 PUSH2 0xF4C JUMP JUMPDEST PUSH1 0x40 MLOAD PUSH2 0x50E SWAP2 SWAP1 PUSH2 0x6664 JUMP JUMPDEST PUSH1 0x40 MLOAD DUP1 SWAP2 SUB SWAP1 RETURN JUMPDEST PUSH2 0x51F PUSH2 0xF52 JUMP JUMPDEST PUSH1 0x40 MLOAD PUSH2 0x52C SWAP2 SWAP1 PUSH2 0x6664 JUMP JUMPDEST PUSH1 0x40 MLOAD DUP1 SWAP2 SUB SWAP1 RETURN JUMPDEST PUSH2 0x53D PUSH2 0xF58 JUMP JUMPDEST PUSH1 0x40 MLOAD PUSH2 0x54A SWAP2 SWAP1 PUSH2 0x635D JUMP JUMPDEST PUSH1 0x40 MLOAD DUP1 SWAP2 SUB SWAP1 RETURN JUMPDEST PUSH2 0x55B PUSH2 0xF7E JUMP JUMPDEST PUSH1 0x40 MLOAD PUSH2 0x568 SWAP2 SWAP1 PUSH2 0x6664 JUMP JUMPDEST PUSH1 0x40 MLOAD DUP1 SWAP2 SUB SWAP1 RETURN JUMPDEST PUSH2 0x579 PUSH2 0xF84 JUMP JUMPDEST PUSH1 0x40 MLOAD PUSH2 0x586 SWAP2 SWAP1 PUSH2 0x6664 JUMP JUMPDEST PUSH1 0x40 MLOAD DUP1 SWAP2 SUB SWAP1 RETURN JUMPDEST PUSH2 0x597 PUSH2 0xF8A JUMP JUMPDEST PUSH1 0x40 MLOAD PUSH2 0x5A4 SWAP2 SWAP1 PUSH2 0x6664 JUMP JUMPDEST PUSH1 0x40 MLOAD DUP1 SWAP2 SUB SWAP1 RETURN JUMPDEST PUSH2 0x5B5 PUSH2 0xF90 JUMP JUMPDEST PUSH1 0x40 MLOAD PUSH2 0x5C2 SWAP2 SWAP1 PUSH2 0x6664 JUMP JUMPDEST PUSH1 0x40 MLOAD DUP1 SWAP2 SUB SWAP1 RETURN JUMPDEST PUSH2 0x5E5 PUSH1 0x4 DUP1 CALLDATASIZE SUB DUP2 ADD SWAP1 PUSH2 0x5E0 SWAP2 SWAP1 PUSH2 0x5CE0 JUMP JUMPDEST PUSH2 0xF96 JUMP JUMPDEST PUSH1 0x40 MLOAD PUSH2 0x5F2 SWAP2 SWAP1 PUSH2 0x63E6 JUMP JUMPDEST PUSH1 0x40 MLOAD DUP1 SWAP2 SUB SWAP1 RETURN JUMPDEST PUSH2 0x603 PUSH2 0x1143 JUMP JUMPDEST PUSH1 0x40 MLOAD PUSH2 0x610 SWAP2 SWAP1 PUSH2 0x6664 JUMP JUMPDEST PUSH1 0x40 MLOAD DUP1 SWAP2 SUB SWAP1 RETURN JUMPDEST PUSH2 0x621 PUSH2 0x1149 JUMP JUMPDEST PUSH1 0x40 MLOAD PUSH2 0x62E SWAP2 SWAP1 PUSH2 0x6664 JUMP JUMPDEST PUSH1 0x40 MLOAD DUP1 SWAP2 SUB SWAP1 RETURN JUMPDEST PUSH2 0x63F PUSH2 0x114F JUMP JUMPDEST PUSH1 0x40 MLOAD PUSH2 0x64C SWAP2 SWAP1 PUSH2 0x6664 JUMP JUMPDEST PUSH1 0x40 MLOAD DUP1 SWAP2 SUB SWAP1 RETURN JUMPDEST PUSH2 0x65D PUSH2 0x1155 JUMP JUMPDEST PUSH1 0x40 MLOAD PUSH2 0x66A SWAP2 SWAP1 PUSH2 0x6401 JUMP JUMPDEST PUSH1 0x40 MLOAD DUP1 SWAP2 SUB SWAP1 RETURN JUMPDEST PUSH2 0x67B PUSH2 0x117C JUMP JUMPDEST PUSH1 0x40 MLOAD PUSH2 0x688 SWAP2 SWAP1 PUSH2 0x66A8 JUMP JUMPDEST PUSH1 0x40 MLOAD DUP1 SWAP2 SUB SWAP1 RETURN JUMPDEST PUSH2 0x699 PUSH2 0x1181 JUMP JUMPDEST PUSH1 0x40 MLOAD PUSH2 0x6A6 SWAP2 SWAP1 PUSH2 0x6664 JUMP JUMPDEST PUSH1 0x40 MLOAD DUP1 SWAP2 SUB SWAP1 RETURN JUMPDEST PUSH2 0x6C9 PUSH1 0x4 DUP1 CALLDATASIZE SUB DUP2 ADD SWAP1 PUSH2 0x6C4 SWAP2 SWAP1 PUSH2 0x5ED5 JUMP JUMPDEST PUSH2 0x1187 JUMP JUMPDEST STOP JUMPDEST PUSH2 0x6D3 PUSH2 0x1221 JUMP JUMPDEST PUSH1 0x40 MLOAD PUSH2 0x6E0 SWAP2 SWAP1 PUSH2 0x6401 JUMP JUMPDEST PUSH1 0x40 MLOAD DUP1 SWAP2 SUB SWAP1 RETURN JUMPDEST PUSH2 0x6F1 PUSH2 0x1227 JUMP JUMPDEST PUSH1 0x40 MLOAD PUSH2 0x6FE SWAP2 SWAP1 PUSH2 0x6664 JUMP JUMPDEST PUSH1 0x40 MLOAD DUP1 SWAP2 SUB SWAP1 RETURN JUMPDEST PUSH2 0x70F PUSH2 0x122D JUMP JUMPDEST PUSH1 0x40 MLOAD PUSH2 0x71C SWAP2 SWAP1 PUSH2 0x6664 JUMP JUMPDEST PUSH1 0x40 MLOAD DUP1 SWAP2 SUB SWAP1 RETURN JUMPDEST PUSH2 0x72D PUSH2 0x1233 JUMP JUMPDEST PUSH1 0x40 MLOAD PUSH2 0x73A SWAP2 SWAP1 PUSH2 0x6664 JUMP JUMPDEST PUSH1 0x40 MLOAD DUP1 SWAP2 SUB SWAP1 RETURN JUMPDEST PUSH2 0x75D PUSH1 0x4 DUP1 CALLDATASIZE SUB DUP2 ADD SWAP1 PUSH2 0x758 SWAP2 SWAP1 PUSH2 0x5CA0 JUMP JUMPDEST PUSH2 0x1239 JUMP JUMPDEST STOP JUMPDEST PUSH2 0x779 PUSH1 0x4 DUP1 CALLDATASIZE SUB DUP2 ADD SWAP1 PUSH2 0x774 SWAP2 SWAP1 PUSH2 0x5FC2 JUMP JUMPDEST PUSH2 0x134F JUMP JUMPDEST STOP JUMPDEST PUSH2 0x783 PUSH2 0x1DEA JUMP JUMPDEST PUSH1 0x40 MLOAD PUSH2 0x790 SWAP2 SWAP1 PUSH2 0x6664 JUMP JUMPDEST PUSH1 0x40 MLOAD DUP1 SWAP2 SUB SWAP1 RETURN JUMPDEST PUSH2 0x7A1 PUSH2 0x1DF0 JUMP JUMPDEST PUSH1 0x40 MLOAD PUSH2 0x7AE SWAP2 SWAP1 PUSH2 0x6664 JUMP JUMPDEST PUSH1 0x40 MLOAD DUP1 SWAP2 SUB SWAP1 RETURN JUMPDEST PUSH2 0x7D1 PUSH1 0x4 DUP1 CALLDATASIZE SUB DUP2 ADD SWAP1 PUSH2 0x7CC SWAP2 SWAP1 PUSH2 0x5FC2 JUMP JUMPDEST PUSH2 0x1DF6 JUMP JUMPDEST PUSH1 0x40 MLOAD PUSH2 0x7DE SWAP2 SWAP1 PUSH2 0x6664 JUMP JUMPDEST PUSH1 0x40 MLOAD DUP1 SWAP2 SUB SWAP1 RETURN JUMPDEST PUSH2 0x7EF PUSH2 0x1F1B JUMP JUMPDEST PUSH1 0x40 MLOAD PUSH2 0x7FC SWAP2 SWAP1 PUSH2 0x6664 JUMP JUMPDEST PUSH1 0x40 MLOAD DUP1 SWAP2 SUB SWAP1 RETURN JUMPDEST PUSH2 0x81F PUSH1 0x4 DUP1 CALLDATASIZE SUB DUP2 ADD SWAP1 PUSH2 0x81A SWAP2 SWAP1 PUSH2 0x5F2F JUMP JUMPDEST PUSH2 0x1F21 JUMP JUMPDEST PUSH1 0x40 MLOAD PUSH2 0x82D SWAP3 SWAP2 SWAP1 PUSH2 0x667F JUMP JUMPDEST PUSH1 0x40 MLOAD DUP1 SWAP2 SUB SWAP1 RETURN JUMPDEST PUSH2 0x83E PUSH2 0x20BE JUMP JUMPDEST PUSH1 0x40 MLOAD PUSH2 0x84B SWAP2 SWAP1 PUSH2 0x6664 JUMP JUMPDEST PUSH1 0x40 MLOAD DUP1 SWAP2 SUB SWAP1 RETURN JUMPDEST PUSH2 0x86E PUSH1 0x4 DUP1 CALLDATASIZE SUB DUP2 ADD SWAP1 PUSH2 0x869 SWAP2 SWAP1 PUSH2 0x5C73 JUMP JUMPDEST PUSH2 0x20C4 JUMP JUMPDEST PUSH1 0x40 MLOAD PUSH2 0x87B SWAP2 SWAP1 PUSH2 0x6664 JUMP JUMPDEST PUSH1 0x40 MLOAD DUP1 SWAP2 SUB SWAP1 RETURN JUMPDEST PUSH2 0x88C PUSH2 0x20DC JUMP JUMPDEST PUSH1 0x40 MLOAD PUSH2 0x899 SWAP2 SWAP1 PUSH2 0x6664 JUMP JUMPDEST PUSH1 0x40 MLOAD DUP1 SWAP2 SUB SWAP1 RETURN JUMPDEST PUSH2 0x8BC PUSH1 0x4 DUP1 CALLDATASIZE SUB DUP2 ADD SWAP1 PUSH2 0x8B7 SWAP2 SWAP1 PUSH2 0x5C73 JUMP JUMPDEST PUSH2 0x20E2 JUMP JUMPDEST PUSH1 0x40 MLOAD PUSH2 0x8C9 SWAP2 SWAP1 PUSH2 0x6664 JUMP JUMPDEST PUSH1 0x40 MLOAD DUP1 SWAP2 SUB SWAP1 RETURN JUMPDEST PUSH2 0x8DA PUSH2 0x20FA JUMP JUMPDEST PUSH1 0x40 MLOAD PUSH2 0x8E7 SWAP2 SWAP1 PUSH2 0x6664 JUMP JUMPDEST PUSH1 0x40 MLOAD DUP1 SWAP2 SUB SWAP1 RETURN JUMPDEST PUSH2 0x8F8 PUSH2 0x2100 JUMP JUMPDEST PUSH1 0x40 MLOAD PUSH2 0x905 SWAP2 SWAP1 PUSH2 0x6664 JUMP JUMPDEST PUSH1 0x40 MLOAD DUP1 SWAP2 SUB SWAP1 RETURN JUMPDEST PUSH2 0x928 PUSH1 0x4 DUP1 CALLDATASIZE SUB DUP2 ADD SWAP1 PUSH2 0x923 SWAP2 SWAP1 PUSH2 0x5DD5 JUMP JUMPDEST PUSH2 0x2106 JUMP JUMPDEST PUSH1 0x40 MLOAD PUSH2 0x938 SWAP5 SWAP4 SWAP3 SWAP2 SWAP1 PUSH2 0x6378 JUMP JUMPDEST PUSH1 0x40 MLOAD DUP1 SWAP2 SUB SWAP1 RETURN JUMPDEST PUSH2 0x95B PUSH1 0x4 DUP1 CALLDATASIZE SUB DUP2 ADD SWAP1 PUSH2 0x956 SWAP2 SWAP1 PUSH2 0x5C73 JUMP JUMPDEST PUSH2 0x2170 JUMP JUMPDEST PUSH1 0x40 MLOAD PUSH2 0x968 SWAP2 SWAP1 PUSH2 0x6664 JUMP JUMPDEST PUSH1 0x40 MLOAD DUP1 SWAP2 SUB SWAP1 RETURN JUMPDEST PUSH2 0x979 PUSH2 0x2188 JUMP JUMPDEST PUSH1 0x40 MLOAD PUSH2 0x986 SWAP2 SWAP1 PUSH2 0x6664 JUMP JUMPDEST PUSH1 0x40 MLOAD DUP1 SWAP2 SUB SWAP1 RETURN JUMPDEST PUSH2 0x997 PUSH2 0x218E JUMP JUMPDEST PUSH1 0x40 MLOAD PUSH2 0x9A4 SWAP2 SWAP1 PUSH2 0x6664 JUMP JUMPDEST PUSH1 0x40 MLOAD DUP1 SWAP2 SUB SWAP1 RETURN JUMPDEST PUSH2 0x9B5 PUSH2 0x2194 JUMP JUMPDEST PUSH1 0x40 MLOAD PUSH2 0x9C2 SWAP2 SWAP1 PUSH2 0x6664 JUMP JUMPDEST PUSH1 0x40 MLOAD DUP1 SWAP2 SUB SWAP1 RETURN JUMPDEST PUSH2 0x9D3 PUSH2 0x219A JUMP JUMPDEST PUSH1 0x40 MLOAD PUSH2 0x9E0 SWAP2 SWAP1 PUSH2 0x6664 JUMP JUMPDEST PUSH1 0x40 MLOAD DUP1 SWAP2 SUB SWAP1 RETURN JUMPDEST PUSH2 0x9F1 PUSH2 0x21A0 JUMP JUMPDEST PUSH1 0x40 MLOAD PUSH2 0x9FE SWAP2 SWAP1 PUSH2 0x6664 JUMP JUMPDEST PUSH1 0x40 MLOAD DUP1 SWAP2 SUB SWAP1 RETURN JUMPDEST PUSH2 0xA0F PUSH2 0x21A6 JUMP JUMPDEST PUSH1 0x40 MLOAD PUSH2 0xA1C SWAP2 SWAP1 PUSH2 0x6664 JUMP JUMPDEST PUSH1 0x40 MLOAD DUP1 SWAP2 SUB SWAP1 RETURN JUMPDEST PUSH2 0xA3F PUSH1 0x4 DUP1 CALLDATASIZE SUB DUP2 ADD SWAP1 PUSH2 0xA3A SWAP2 SWAP1 PUSH2 0x6015 JUMP JUMPDEST PUSH2 0x21AC JUMP JUMPDEST STOP JUMPDEST PUSH2 0xA49 PUSH2 0x264A JUMP JUMPDEST PUSH1 0x40 MLOAD PUSH2 0xA56 SWAP2 SWAP1 PUSH2 0x64C2 JUMP JUMPDEST PUSH1 0x40 MLOAD DUP1 SWAP2 SUB SWAP1 RETURN JUMPDEST PUSH2 0xA67 PUSH2 0x2683 JUMP JUMPDEST PUSH1 0x40 MLOAD PUSH2 0xA74 SWAP2 SWAP1 PUSH2 0x6664 JUMP JUMPDEST PUSH1 0x40 MLOAD DUP1 SWAP2 SUB SWAP1 RETURN JUMPDEST PUSH2 0xA97 PUSH1 0x4 DUP1 CALLDATASIZE SUB DUP2 ADD SWAP1 PUSH2 0xA92 SWAP2 SWAP1 PUSH2 0x5E55 JUMP JUMPDEST PUSH2 0x2689 JUMP JUMPDEST STOP JUMPDEST PUSH2 0xAB3 PUSH1 0x4 DUP1 CALLDATASIZE SUB DUP2 ADD SWAP1 PUSH2 0xAAE SWAP2 SWAP1 PUSH2 0x5F6F JUMP JUMPDEST PUSH2 0x2A85 JUMP JUMPDEST STOP JUMPDEST PUSH2 0xABD PUSH2 0x2B3B JUMP JUMPDEST PUSH1 0x40 MLOAD PUSH2 0xACA SWAP2 SWAP1 PUSH2 0x6664 JUMP JUMPDEST PUSH1 0x40 MLOAD DUP1 SWAP2 SUB SWAP1 RETURN JUMPDEST PUSH2 0xAED PUSH1 0x4 DUP1 CALLDATASIZE SUB DUP2 ADD SWAP1 PUSH2 0xAE8 SWAP2 SWAP1 PUSH2 0x5E15 JUMP JUMPDEST PUSH2 0x2B41 JUMP JUMPDEST PUSH1 0x40 MLOAD PUSH2 0xAFA SWAP2 SWAP1 PUSH2 0x63E6 JUMP JUMPDEST PUSH1 0x40 MLOAD DUP1 SWAP2 SUB SWAP1 RETURN JUMPDEST PUSH2 0xB0B PUSH2 0x2B58 JUMP JUMPDEST PUSH1 0x40 MLOAD PUSH2 0xB18 SWAP2 SWAP1 PUSH2 0x6664 JUMP JUMPDEST PUSH1 0x40 MLOAD DUP1 SWAP2 SUB SWAP1 RETURN JUMPDEST PUSH2 0xB29 PUSH2 0x2B5E JUMP JUMPDEST PUSH1 0x40 MLOAD PUSH2 0xB36 SWAP2 SWAP1 PUSH2 0x635D JUMP JUMPDEST PUSH1 0x40 MLOAD DUP1 SWAP2 SUB SWAP1 RETURN JUMPDEST PUSH2 0xB59 PUSH1 0x4 DUP1 CALLDATASIZE SUB DUP2 ADD SWAP1 PUSH2 0xB54 SWAP2 SWAP1 PUSH2 0x5C73 JUMP JUMPDEST PUSH2 0x2B84 JUMP JUMPDEST STOP JUMPDEST PUSH2 0xB75 PUSH1 0x4 DUP1 CALLDATASIZE SUB DUP2 ADD SWAP1 PUSH2 0xB70 SWAP2 SWAP1 PUSH2 0x5CA0 JUMP JUMPDEST PUSH2 0x2DB2 JUMP JUMPDEST STOP JUMPDEST PUSH2 0xB7F PUSH2 0x3133 JUMP JUMPDEST PUSH1 0x40 MLOAD PUSH2 0xB8C SWAP2 SWAP1 PUSH2 0x635D JUMP JUMPDEST PUSH1 0x40 MLOAD DUP1 SWAP2 SUB SWAP1 RETURN JUMPDEST PUSH2 0xB9D PUSH2 0x3159 JUMP JUMPDEST PUSH1 0x40 MLOAD PUSH2 0xBAA SWAP2 SWAP1 PUSH2 0x63E6 JUMP JUMPDEST PUSH1 0x40 MLOAD DUP1 SWAP2 SUB SWAP1 RETURN JUMPDEST PUSH2 0xBBB PUSH2 0x316C JUMP JUMPDEST PUSH1 0x40 MLOAD PUSH2 0xBC8 SWAP2 SWAP1 PUSH2 0x6664 JUMP JUMPDEST PUSH1 0x40 MLOAD DUP1 SWAP2 SUB SWAP1 RETURN JUMPDEST PUSH2 0xBEB PUSH1 0x4 DUP1 CALLDATASIZE SUB DUP2 ADD SWAP1 PUSH2 0xBE6 SWAP2 SWAP1 PUSH2 0x5ED5 JUMP JUMPDEST PUSH2 0x3172 JUMP JUMPDEST STOP JUMPDEST PUSH2 0xBF5 PUSH2 0x320C JUMP JUMPDEST PUSH1 0x40 MLOAD PUSH2 0xC02 SWAP2 SWAP1 PUSH2 0x6664 JUMP JUMPDEST PUSH1 0x40 MLOAD DUP1 SWAP2 SUB SWAP1 RETURN JUMPDEST PUSH2 0xC25 PUSH1 0x4 DUP1 CALLDATASIZE SUB DUP2 ADD SWAP1 PUSH2 0xC20 SWAP2 SWAP1 PUSH2 0x5D33 JUMP JUMPDEST PUSH2 0x3212 JUMP JUMPDEST STOP JUMPDEST PUSH2 0xC41 PUSH1 0x4 DUP1 CALLDATASIZE SUB DUP2 ADD SWAP1 PUSH2 0xC3C SWAP2 SWAP1 PUSH2 0x5ED5 JUMP JUMPDEST PUSH2 0x343A JUMP JUMPDEST PUSH1 0x40 MLOAD PUSH2 0xC4E SWAP2 SWAP1 PUSH2 0x635D JUMP JUMPDEST PUSH1 0x40 MLOAD DUP1 SWAP2 SUB SWAP1 RETURN JUMPDEST PUSH2 0xC71 PUSH1 0x4 DUP1 CALLDATASIZE SUB DUP2 ADD SWAP1 PUSH2 0xC6C SWAP2 SWAP1 PUSH2 0x5CA0 JUMP JUMPDEST PUSH2 0x3479 JUMP JUMPDEST PUSH1 0x40 MLOAD PUSH2 0xC7E SWAP2 SWAP1 PUSH2 0x6664 JUMP JUMPDEST PUSH1 0x40 MLOAD DUP1 SWAP2 SUB SWAP1 RETURN JUMPDEST PUSH2 0xC8F PUSH2 0x349E JUMP JUMPDEST PUSH1 0x40 MLOAD PUSH2 0xC9C SWAP2 SWAP1 PUSH2 0x6664 JUMP JUMPDEST PUSH1 0x40 MLOAD DUP1 SWAP2 SUB SWAP1 RETURN JUMPDEST PUSH2 0xCAD PUSH2 0x34A4 JUMP JUMPDEST PUSH1 0x40 MLOAD PUSH2 0xCBA SWAP2 SWAP1 PUSH2 0x6664 JUMP JUMPDEST PUSH1 0x40 MLOAD DUP1 SWAP2 SUB SWAP1 RETURN JUMPDEST PUSH2 0xCCB PUSH2 0x34AA JUMP JUMPDEST PUSH1 0x40 MLOAD PUSH2 0xCD8 SWAP2 SWAP1 PUSH2 0x6664 JUMP JUMPDEST PUSH1 0x40 MLOAD DUP1 SWAP2 SUB SWAP1 RETURN JUMPDEST PUSH2 0xCE9 PUSH2 0x34B0 JUMP JUMPDEST PUSH1 0x40 MLOAD PUSH2 0xCF6 SWAP2 SWAP1 PUSH2 0x6664 JUMP JUMPDEST PUSH1 0x40 MLOAD DUP1 SWAP2 SUB SWAP1 RETURN JUMPDEST PUSH2 0xD07 PUSH2 0x34B6 JUMP JUMPDEST PUSH1 0x40 MLOAD PUSH2 0xD14 SWAP2 SWAP1 PUSH2 0x6664 JUMP JUMPDEST PUSH1 0x40 MLOAD DUP1 SWAP2 SUB SWAP1 RETURN JUMPDEST PUSH2 0xD37 PUSH1 0x4 DUP1 CALLDATASIZE SUB DUP2 ADD SWAP1 PUSH2 0xD32 SWAP2 SWAP1 PUSH2 0x5E15 JUMP JUMPDEST PUSH2 0x34BC JUMP JUMPDEST PUSH1 0x40 MLOAD PUSH2 0xD44 SWAP2 SWAP1 PUSH2 0x6664 JUMP JUMPDEST PUSH1 0x40 MLOAD DUP1 SWAP2 SUB SWAP1 RETURN JUMPDEST PUSH2 0xD55 PUSH2 0x34ED JUMP JUMPDEST PUSH1 0x40 MLOAD PUSH2 0xD62 SWAP2 SWAP1 PUSH2 0x6664 JUMP JUMPDEST PUSH1 0x40 MLOAD DUP1 SWAP2 SUB SWAP1 RETURN JUMPDEST PUSH2 0xD85 PUSH1 0x4 DUP1 CALLDATASIZE SUB DUP2 ADD SWAP1 PUSH2 0xD80 SWAP2 SWAP1 PUSH2 0x5ED5 JUMP JUMPDEST PUSH2 0x34F3 JUMP JUMPDEST STOP JUMPDEST PUSH1 0xE SLOAD DUP2 JUMP JUMPDEST PUSH1 0x40 MLOAD DUP1 PUSH1 0x40 ADD PUSH1 0x40 MSTORE DUP1 PUSH1 0xA DUP2 MSTORE PUSH1 0x20 ADD PUSH32 0x556E697377617020563200000000000000000000000000000000000000000000 DUP2 MSTORE POP DUP2 JUMP JUMPDEST PUSH1 0x0 PUSH2 0xDD3 CALLER DUP5 DUP5 PUSH2 0x358D JUMP JUMPDEST PUSH1 0x1 SWAP1 POP SWAP3 SWAP2 POP POP JUMP JUMPDEST PUSH1 0x1 PUSH1 0x2F SLOAD EQ PUSH2 0xE22 JUMPI PUSH1 0x40 MLOAD PUSH32 0x8C379A000000000000000000000000000000000000000000000000000000000 DUP2 MSTORE PUSH1 0x4 ADD PUSH2 0xE19 SWAP1 PUSH2 0x6644 JUMP JUMPDEST PUSH1 0x40 MLOAD DUP1 SWAP2 SUB SWAP1 REVERT JUMPDEST PUSH1 0x0 PUSH1 0x2F DUP2 SWAP1 SSTORE POP PUSH1 0x0 DUP3 DUP5 PUSH2 0xE38 SWAP2 SWAP1 PUSH2 0x68F8 JUMP JUMPDEST EQ DUP1 ISZERO PUSH2 0xE50 JUMPI POP PUSH1 0x0 DUP3 DUP5 PUSH2 0xE4E SWAP2 SWAP1 PUSH2 0x6700 JUMP JUMPDEST GT JUMPDEST PUSH2 0xE59 JUMPI PUSH1 0x0 DUP1 REVERT JUMPDEST PUSH1 0x0 DUP4 GT ISZERO PUSH2 0xE82 JUMPI PUSH2 0xE70 DUP4 PUSH1 0x0 PUSH1 0x1 DUP5 PUSH2 0x21AC JUMP JUMPDEST PUSH2 0xE7D DUP4 PUSH1 0x0 DUP1 DUP5 PUSH2 0x21AC JUMP JUMPDEST PUSH2 0xE9F JUMP JUMPDEST PUSH2 0xE90 PUSH1 0x0 DUP4 PUSH1 0x1 DUP5 PUSH2 0x21AC JUMP JUMPDEST PUSH2 0xE9E PUSH1 0x0 DUP4 PUSH1 0x0 DUP5 PUSH2 0x21AC JUMP JUMPDEST JUMPDEST PUSH1 0x1 PUSH1 0x2F DUP2 SWAP1 SSTORE POP POP POP POP JUMP JUMPDEST PUSH1 0x15 SLOAD DUP2 JUMP JUMPDEST PUSH1 0x27 PUSH1 0x0 SWAP1 SLOAD SWAP1 PUSH2 0x100 EXP SWAP1 DIV PUSH20 0xFFFFFFFFFFFFFFFFFFFFFFFFFFFFFFFFFFFFFFFF AND PUSH20 0xFFFFFFFFFFFFFFFFFFFFFFFFFFFFFFFFFFFFFFFF AND CALLER PUSH20 0xFFFFFFFFFFFFFFFFFFFFFFFFFFFFFFFFFFFFFFFF AND EQ PUSH2 0xF42 JUMPI PUSH1 0x40 MLOAD PUSH32 0x8C379A000000000000000000000000000000000000000000000000000000000 DUP2 MSTORE PUSH1 0x4 ADD PUSH2 0xF39 SWAP1 PUSH2 0x6544 JUMP JUMPDEST PUSH1 0x40 MLOAD DUP1 SWAP2 SUB SWAP1 REVERT JUMPDEST DUP1 PUSH1 0x21 DUP2 SWAP1 SSTORE POP POP JUMP JUMPDEST PUSH1 0x7 SLOAD DUP2 JUMP JUMPDEST PUSH1 0x1C SLOAD DUP2 JUMP JUMPDEST PUSH1 0x28 PUSH1 0x0 SWAP1 SLOAD SWAP1 PUSH2 0x100 EXP SWAP1 DIV PUSH20 0xFFFFFFFFFFFFFFFFFFFFFFFFFFFFFFFFFFFFFFFF AND DUP2 JUMP JUMPDEST PUSH1 0x0 SLOAD DUP2 JUMP JUMPDEST PUSH1 0x1D SLOAD DUP2 JUMP JUMPDEST PUSH1 0x19 SLOAD DUP2 JUMP JUMPDEST PUSH1 0x1A SLOAD DUP2 JUMP JUMPDEST PUSH1 0x0 PUSH2 0x101 PUSH1 0x2 PUSH1 0x0 DUP7 PUSH20 0xFFFFFFFFFFFFFFFFFFFFFFFFFFFFFFFFFFFFFFFF AND PUSH20 0xFFFFFFFFFFFFFFFFFFFFFFFFFFFFFFFFFFFFFFFF AND DUP2 MSTORE PUSH1 0x20 ADD SWAP1 DUP2 MSTORE PUSH1 0x20 ADD PUSH1 0x0 KECCAK256 PUSH1 0x0 CALLER PUSH20 0xFFFFFFFFFFFFFFFFFFFFFFFFFFFFFFFFFFFFFFFF AND PUSH20 0xFFFFFFFFFFFFFFFFFFFFFFFFFFFFFFFFFFFFFFFF AND DUP2 MSTORE PUSH1 0x20 ADD SWAP1 DUP2 MSTORE PUSH1 0x20 ADD PUSH1 0x0 KECCAK256 SLOAD EQ PUSH2 0x112D JUMPI PUSH2 0x10AC DUP3 PUSH1 0x2 PUSH1 0x0 DUP8 PUSH20 0xFFFFFFFFFFFFFFFFFFFFFFFFFFFFFFFFFFFFFFFF AND PUSH20 0xFFFFFFFFFFFFFFFFFFFFFFFFFFFFFFFFFFFFFFFF AND DUP2 MSTORE PUSH1 0x20 ADD SWAP1 DUP2 MSTORE PUSH1 0x20 ADD PUSH1 0x0 KECCAK256 PUSH1 0x0 CALLER PUSH20 0xFFFFFFFFFFFFFFFFFFFFFFFFFFFFFFFFFFFFFFFF AND PUSH20 0xFFFFFFFFFFFFFFFFFFFFFFFFFFFFFFFFFFFFFFFF AND DUP2 MSTORE PUSH1 0x20 ADD SWAP1 DUP2 MSTORE PUSH1 0x20 ADD PUSH1 0x0 KECCAK256 SLOAD PUSH2 0x3678 SWAP1 SWAP2 SWAP1 PUSH4 0xFFFFFFFF AND JUMP JUMPDEST PUSH1 0x2 PUSH1 0x0 DUP7 PUSH20 0xFFFFFFFFFFFFFFFFFFFFFFFFFFFFFFFFFFFFFFFF AND PUSH20 0xFFFFFFFFFFFFFFFFFFFFFFFFFFFFFFFFFFFFFFFF AND DUP2 MSTORE PUSH1 0x20 ADD SWAP1 DUP2 MSTORE PUSH1 0x20 ADD PUSH1 0x0 KECCAK256 PUSH1 0x0 CALLER PUSH20 0xFFFFFFFFFFFFFFFFFFFFFFFFFFFFFFFFFFFFFFFF AND PUSH20 0xFFFFFFFFFFFFFFFFFFFFFFFFFFFFFFFFFFFFFFFF AND DUP2 MSTORE PUSH1 0x20 ADD SWAP1 DUP2 MSTORE PUSH1 0x20 ADD PUSH1 0x0 KECCAK256 DUP2 SWAP1 SSTORE POP JUMPDEST PUSH2 0x1138 DUP5 DUP5 DUP5 PUSH2 0x36D1 JUMP JUMPDEST PUSH1 0x1 SWAP1 POP SWAP4 SWAP3 POP POP POP JUMP JUMPDEST PUSH1 0x1E SLOAD DUP2 JUMP JUMPDEST PUSH1 0x25 SLOAD DUP2 JUMP JUMPDEST PUSH1 0x2B SLOAD DUP2 JUMP JUMPDEST PUSH32 0x6E71EDAE12B1B97F4D1F60370FEF10105FA2FAAE0126114A169C64845D6126C9 PUSH1 0x0 SHL DUP2 JUMP JUMPDEST PUSH1 0x12 DUP2 JUMP JUMPDEST PUSH1 0x5 SLOAD DUP2 JUMP JUMPDEST PUSH1 0x27 PUSH1 0x0 SWAP1 SLOAD SWAP1 PUSH2 0x100 EXP SWAP1 DIV PUSH20 0xFFFFFFFFFFFFFFFFFFFFFFFFFFFFFFFFFFFFFFFF AND PUSH20 0xFFFFFFFFFFFFFFFFFFFFFFFFFFFFFFFFFFFFFFFF AND CALLER PUSH20 0xFFFFFFFFFFFFFFFFFFFFFFFFFFFFFFFFFFFFFFFF AND EQ PUSH2 0x1217 JUMPI PUSH1 0x40 MLOAD PUSH32 0x8C379A000000000000000000000000000000000000000000000000000000000 DUP2 MSTORE PUSH1 0x4 ADD PUSH2 0x120E SWAP1 PUSH2 0x6544 JUMP JUMPDEST PUSH1 0x40 MLOAD DUP1 SWAP2 SUB SWAP1 REVERT JUMPDEST DUP1 PUSH1 0x1D DUP2 SWAP1 SSTORE POP POP JUMP JUMPDEST PUSH1 0x3 SLOAD DUP2 JUMP JUMPDEST PUSH1 0xC SLOAD DUP2 JUMP JUMPDEST PUSH1 0x13 SLOAD DUP2 JUMP JUMPDEST PUSH1 0x17 SLOAD DUP2 JUMP JUMPDEST PUSH1 0x27 PUSH1 0x0 SWAP1 SLOAD SWAP1 PUSH2 0x100 EXP SWAP1 DIV PUSH20 0xFFFFFFFFFFFFFFFFFFFFFFFFFFFFFFFFFFFFFFFF AND PUSH20 0xFFFFFFFFFFFFFFFFFFFFFFFFFFFFFFFFFFFFFFFF AND CALLER PUSH20 0xFFFFFFFFFFFFFFFFFFFFFFFFFFFFFFFFFFFFFFFF AND EQ PUSH2 0x12C9 JUMPI PUSH1 0x40 MLOAD PUSH32 0x8C379A000000000000000000000000000000000000000000000000000000000 DUP2 MSTORE PUSH1 0x4 ADD PUSH2 0x12C0 SWAP1 PUSH2 0x65C4 JUMP JUMPDEST PUSH1 0x40 MLOAD DUP1 SWAP2 SUB SWAP1 REVERT JUMPDEST DUP2 PUSH1 0x28 PUSH1 0x0 PUSH2 0x100 EXP DUP2 SLOAD DUP2 PUSH20 0xFFFFFFFFFFFFFFFFFFFFFFFFFFFFFFFFFFFFFFFF MUL NOT AND SWAP1 DUP4 PUSH20 0xFFFFFFFFFFFFFFFFFFFFFFFFFFFFFFFFFFFFFFFF AND MUL OR SWAP1 SSTORE POP DUP1 PUSH1 0x29 PUSH1 0x0 PUSH2 0x100 EXP DUP2 SLOAD DUP2 PUSH20 0xFFFFFFFFFFFFFFFFFFFFFFFFFFFFFFFFFFFFFFFF MUL NOT AND SWAP1 DUP4 PUSH20 0xFFFFFFFFFFFFFFFFFFFFFFFFFFFFFFFFFFFFFFFF AND MUL OR SWAP1 SSTORE POP POP POP JUMP JUMPDEST PUSH1 0x1 PUSH1 0x2F SLOAD EQ PUSH2 0x1394 JUMPI PUSH1 0x40 MLOAD PUSH32 0x8C379A000000000000000000000000000000000000000000000000000000000 DUP2 MSTORE PUSH1 0x4 ADD PUSH2 0x138B SWAP1 PUSH2 0x6644 JUMP JUMPDEST PUSH1 0x40 MLOAD DUP1 SWAP2 SUB SWAP1 REVERT JUMPDEST PUSH1 0x0 PUSH1 0x2F DUP2 SWAP1 SSTORE POP PUSH1 0x0 DUP3 DUP5 PUSH2 0x13AA SWAP2 SWAP1 PUSH2 0x68F8 JUMP JUMPDEST EQ DUP1 ISZERO PUSH2 0x13C2 JUMPI POP PUSH1 0x0 DUP3 DUP5 PUSH2 0x13C0 SWAP2 SWAP1 PUSH2 0x6700 JUMP JUMPDEST GT JUMPDEST PUSH2 0x13CB JUMPI PUSH1 0x0 DUP1 REVERT JUMPDEST PUSH2 0x13D3 PUSH2 0x3865 JUMP JUMPDEST PUSH1 0x31 PUSH1 0x0 DUP3 PUSH20 0xFFFFFFFFFFFFFFFFFFFFFFFFFFFFFFFFFFFFFFFF AND PUSH20 0xFFFFFFFFFFFFFFFFFFFFFFFFFFFFFFFFFFFFFFFF AND DUP2 MSTORE PUSH1 0x20 ADD SWAP1 DUP2 MSTORE PUSH1 0x20 ADD PUSH1 0x0 KECCAK256 PUSH1 0x0 DUP1 ISZERO ISZERO ISZERO ISZERO DUP2 MSTORE PUSH1 0x20 ADD SWAP1 DUP2 MSTORE PUSH1 0x20 ADD PUSH1 0x0 KECCAK256 PUSH1 0x2 ADD SLOAD DUP4 GT ISZERO DUP1 ISZERO PUSH2 0x1492 JUMPI POP PUSH1 0x31 PUSH1 0x0 DUP3 PUSH20 0xFFFFFFFFFFFFFFFFFFFFFFFFFFFFFFFFFFFFFFFF AND PUSH20 0xFFFFFFFFFFFFFFFFFFFFFFFFFFFFFFFFFFFFFFFF AND DUP2 MSTORE PUSH1 0x20 ADD SWAP1 DUP2 MSTORE PUSH1 0x20 ADD PUSH1 0x0 KECCAK256 PUSH1 0x0 PUSH1 0x1 ISZERO ISZERO ISZERO ISZERO DUP2 MSTORE PUSH1 0x20 ADD SWAP1 DUP2 MSTORE PUSH1 0x20 ADD PUSH1 0x0 KECCAK256 PUSH1 0x2 ADD SLOAD DUP3 GT ISZERO JUMPDEST PUSH2 0x14D1 JUMPI PUSH1 0x40 MLOAD PUSH32 0x8C379A000000000000000000000000000000000000000000000000000000000 DUP2 MSTORE PUSH1 0x4 ADD PUSH2 0x14C8 SWAP1 PUSH2 0x65E4 JUMP JUMPDEST PUSH1 0x40 MLOAD DUP1 SWAP2 SUB SWAP1 REVERT JUMPDEST PUSH1 0x0 DUP4 GT ISZERO PUSH2 0x1962 JUMPI PUSH1 0x0 PUSH2 0x14E7 DUP5 PUSH1 0x1 PUSH2 0x39F9 JUMP JUMPDEST SWAP1 POP PUSH1 0x0 PUSH1 0x31 PUSH1 0x0 DUP5 PUSH20 0xFFFFFFFFFFFFFFFFFFFFFFFFFFFFFFFFFFFFFFFF AND PUSH20 0xFFFFFFFFFFFFFFFFFFFFFFFFFFFFFFFFFFFFFFFF AND DUP2 MSTORE PUSH1 0x20 ADD SWAP1 DUP2 MSTORE PUSH1 0x20 ADD PUSH1 0x0 KECCAK256 PUSH1 0x0 DUP1 ISZERO ISZERO ISZERO ISZERO DUP2 MSTORE PUSH1 0x20 ADD SWAP1 DUP2 MSTORE PUSH1 0x20 ADD PUSH1 0x0 KECCAK256 PUSH1 0x2 ADD SLOAD PUSH1 0x1C SLOAD PUSH1 0x1A SLOAD PUSH1 0x31 PUSH1 0x0 DUP8 PUSH20 0xFFFFFFFFFFFFFFFFFFFFFFFFFFFFFFFFFFFFFFFF AND PUSH20 0xFFFFFFFFFFFFFFFFFFFFFFFFFFFFFFFFFFFFFFFF AND DUP2 MSTORE PUSH1 0x20 ADD SWAP1 DUP2 MSTORE PUSH1 0x20 ADD PUSH1 0x0 KECCAK256 PUSH1 0x0 PUSH1 0x1 ISZERO ISZERO ISZERO ISZERO DUP2 MSTORE PUSH1 0x20 ADD SWAP1 DUP2 MSTORE PUSH1 0x20 ADD PUSH1 0x0 KECCAK256 PUSH1 0x1 ADD SLOAD DUP9 PUSH2 0x15AD SWAP2 SWAP1 PUSH2 0x68F8 JUMP JUMPDEST PUSH2 0x15B7 SWAP2 SWAP1 PUSH2 0x68F8 JUMP JUMPDEST PUSH2 0x15C1 SWAP2 SWAP1 PUSH2 0x6756 JUMP JUMPDEST PUSH2 0x15CB SWAP2 SWAP1 PUSH2 0x6756 JUMP JUMPDEST SWAP1 POP DUP5 PUSH1 0x31 PUSH1 0x0 DUP6 PUSH20 0xFFFFFFFFFFFFFFFFFFFFFFFFFFFFFFFFFFFFFFFF AND PUSH20 0xFFFFFFFFFFFFFFFFFFFFFFFFFFFFFFFFFFFFFFFF AND DUP2 MSTORE PUSH1 0x20 ADD SWAP1 DUP2 MSTORE PUSH1 0x20 ADD PUSH1 0x0 KECCAK256 PUSH1 0x0 DUP1 ISZERO ISZERO ISZERO ISZERO DUP2 MSTORE PUSH1 0x20 ADD SWAP1 DUP2 MSTORE PUSH1 0x20 ADD PUSH1 0x0 KECCAK256 PUSH1 0x2 ADD PUSH1 0x0 DUP3 DUP3 SLOAD PUSH2 0x1634 SWAP2 SWAP1 PUSH2 0x6952 JUMP JUMPDEST SWAP3 POP POP DUP2 SWAP1 SSTORE POP DUP1 PUSH1 0x1A PUSH1 0x0 DUP3 DUP3 SLOAD PUSH2 0x164D SWAP2 SWAP1 PUSH2 0x6952 JUMP JUMPDEST SWAP3 POP POP DUP2 SWAP1 SSTORE POP PUSH1 0x31 PUSH1 0x0 DUP5 PUSH20 0xFFFFFFFFFFFFFFFFFFFFFFFFFFFFFFFFFFFFFFFF AND PUSH20 0xFFFFFFFFFFFFFFFFFFFFFFFFFFFFFFFFFFFFFFFF AND DUP2 MSTORE PUSH1 0x20 ADD SWAP1 DUP2 MSTORE PUSH1 0x20 ADD PUSH1 0x0 KECCAK256 PUSH1 0x0 DUP1 ISZERO ISZERO ISZERO ISZERO DUP2 MSTORE PUSH1 0x20 ADD SWAP1 DUP2 MSTORE PUSH1 0x20 ADD PUSH1 0x0 KECCAK256 PUSH1 0x2 ADD SLOAD DUP6 PUSH1 0x31 PUSH1 0x0 DUP7 PUSH20 0xFFFFFFFFFFFFFFFFFFFFFFFFFFFFFFFFFFFFFFFF AND PUSH20 0xFFFFFFFFFFFFFFFFFFFFFFFFFFFFFFFFFFFFFFFF AND DUP2 MSTORE PUSH1 0x20 ADD SWAP1 DUP2 MSTORE PUSH1 0x20 ADD PUSH1 0x0 KECCAK256 PUSH1 0x0 PUSH1 0x1 ISZERO ISZERO ISZERO ISZERO DUP2 MSTORE PUSH1 0x20 ADD SWAP1 DUP2 MSTORE PUSH1 0x20 ADD PUSH1 0x0 KECCAK256 PUSH1 0x1 ADD SLOAD PUSH2 0x1710 SWAP2 SWAP1 PUSH2 0x68F8 JUMP JUMPDEST PUSH2 0x171A SWAP2 SWAP1 PUSH2 0x6756 JUMP JUMPDEST PUSH1 0x1C PUSH1 0x0 DUP3 DUP3 SLOAD PUSH2 0x172B SWAP2 SWAP1 PUSH2 0x6952 JUMP JUMPDEST SWAP3 POP POP DUP2 SWAP1 SSTORE POP PUSH1 0x31 PUSH1 0x0 DUP5 PUSH20 0xFFFFFFFFFFFFFFFFFFFFFFFFFFFFFFFFFFFFFFFF AND PUSH20 0xFFFFFFFFFFFFFFFFFFFFFFFFFFFFFFFFFFFFFFFF AND DUP2 MSTORE PUSH1 0x20 ADD SWAP1 DUP2 MSTORE PUSH1 0x20 ADD PUSH1 0x0 KECCAK256 PUSH1 0x0 DUP1 ISZERO ISZERO ISZERO ISZERO DUP2 MSTORE PUSH1 0x20 ADD SWAP1 DUP2 MSTORE PUSH1 0x20 ADD PUSH1 0x0 KECCAK256 PUSH1 0x2 ADD SLOAD DUP6 PUSH1 0x31 PUSH1 0x0 DUP7 PUSH20 0xFFFFFFFFFFFFFFFFFFFFFFFFFFFFFFFFFFFFFFFF AND PUSH20 0xFFFFFFFFFFFFFFFFFFFFFFFFFFFFFFFFFFFFFFFF AND DUP2 MSTORE PUSH1 0x20 ADD SWAP1 DUP2 MSTORE PUSH1 0x20 ADD PUSH1 0x0 KECCAK256 PUSH1 0x0 PUSH1 0x1 ISZERO ISZERO ISZERO ISZERO DUP2 MSTORE PUSH1 0x20 ADD SWAP1 DUP2 MSTORE PUSH1 0x20 ADD PUSH1 0x0 KECCAK256 PUSH1 0x1 ADD SLOAD PUSH2 0x17EE SWAP2 SWAP1 PUSH2 0x68F8 JUMP JUMPDEST PUSH2 0x17F8 SWAP2 SWAP1 PUSH2 0x6756 JUMP JUMPDEST PUSH1 0x31 PUSH1 0x0 DUP6 PUSH20 0xFFFFFFFFFFFFFFFFFFFFFFFFFFFFFFFFFFFFFFFF AND PUSH20 0xFFFFFFFFFFFFFFFFFFFFFFFFFFFFFFFFFFFFFFFF AND DUP2 MSTORE PUSH1 0x20 ADD SWAP1 DUP2 MSTORE PUSH1 0x20 ADD PUSH1 0x0 KECCAK256 PUSH1 0x0 PUSH1 0x1 ISZERO ISZERO ISZERO ISZERO DUP2 MSTORE PUSH1 0x20 ADD SWAP1 DUP2 MSTORE PUSH1 0x20 ADD PUSH1 0x0 KECCAK256 PUSH1 0x1 ADD PUSH1 0x0 DUP3 DUP3 SLOAD PUSH2 0x185F SWAP2 SWAP1 PUSH2 0x6952 JUMP JUMPDEST SWAP3 POP POP DUP2 SWAP1 SSTORE POP DUP1 DUP3 LT PUSH2 0x195A JUMPI PUSH2 0x1883 DUP2 DUP4 PUSH2 0x187C SWAP2 SWAP1 PUSH2 0x6952 JUMP JUMPDEST PUSH1 0x0 PUSH2 0x3D83 JUMP JUMPDEST PUSH1 0x32 PUSH1 0x0 DUP6 PUSH20 0xFFFFFFFFFFFFFFFFFFFFFFFFFFFFFFFFFFFFFFFF AND PUSH20 0xFFFFFFFFFFFFFFFFFFFFFFFFFFFFFFFFFFFFFFFF AND DUP2 MSTORE PUSH1 0x20 ADD SWAP1 DUP2 MSTORE PUSH1 0x20 ADD PUSH1 0x0 KECCAK256 PUSH1 0x33 PUSH1 0x0 PUSH1 0x28 PUSH1 0x0 SWAP1 SLOAD SWAP1 PUSH2 0x100 EXP SWAP1 DIV PUSH20 0xFFFFFFFFFFFFFFFFFFFFFFFFFFFFFFFFFFFFFFFF AND PUSH20 0xFFFFFFFFFFFFFFFFFFFFFFFFFFFFFFFFFFFFFFFF AND PUSH20 0xFFFFFFFFFFFFFFFFFFFFFFFFFFFFFFFFFFFFFFFF AND DUP2 MSTORE PUSH1 0x20 ADD SWAP1 DUP2 MSTORE PUSH1 0x20 ADD PUSH1 0x0 KECCAK256 SLOAD DUP2 SLOAD DUP2 LT PUSH2 0x1935 JUMPI PUSH2 0x1934 PUSH2 0x6AC9 JUMP JUMPDEST JUMPDEST SWAP1 PUSH1 0x0 MSTORE PUSH1 0x20 PUSH1 0x0 KECCAK256 ADD PUSH1 0x0 DUP3 DUP3 SLOAD PUSH2 0x194E SWAP2 SWAP1 PUSH2 0x6700 JUMP JUMPDEST SWAP3 POP POP DUP2 SWAP1 SSTORE POP PUSH2 0x195B JUMP JUMPDEST JUMPDEST POP POP PUSH2 0x1DDD JUMP JUMPDEST PUSH1 0x0 PUSH2 0x196F DUP4 PUSH1 0x1 PUSH2 0x3D83 JUMP JUMPDEST SWAP1 POP PUSH1 0x0 PUSH1 0x31 PUSH1 0x0 DUP5 PUSH20 0xFFFFFFFFFFFFFFFFFFFFFFFFFFFFFFFFFFFFFFFF AND PUSH20 0xFFFFFFFFFFFFFFFFFFFFFFFFFFFFFFFFFFFFFFFF AND DUP2 MSTORE PUSH1 0x20 ADD SWAP1 DUP2 MSTORE PUSH1 0x20 ADD PUSH1 0x0 KECCAK256 PUSH1 0x0 PUSH1 0x1 ISZERO ISZERO ISZERO ISZERO DUP2 MSTORE PUSH1 0x20 ADD SWAP1 DUP2 MSTORE PUSH1 0x20 ADD PUSH1 0x0 KECCAK256 PUSH1 0x2 ADD SLOAD PUSH1 0x1B SLOAD PUSH1 0x19 SLOAD PUSH1 0x31 PUSH1 0x0 DUP8 PUSH20 0xFFFFFFFFFFFFFFFFFFFFFFFFFFFFFFFFFFFFFFFF AND PUSH20 0xFFFFFFFFFFFFFFFFFFFFFFFFFFFFFFFFFFFFFFFF AND DUP2 MSTORE PUSH1 0x20 ADD SWAP1 DUP2 MSTORE PUSH1 0x20 ADD PUSH1 0x0 KECCAK256 PUSH1 0x0 DUP1 ISZERO ISZERO ISZERO ISZERO DUP2 MSTORE PUSH1 0x20 ADD SWAP1 DUP2 MSTORE PUSH1 0x20 ADD PUSH1 0x0 KECCAK256 PUSH1 0x1 ADD SLOAD DUP8 PUSH2 0x1A35 SWAP2 SWAP1 PUSH2 0x68F8 JUMP JUMPDEST PUSH2 0x1A3F SWAP2 SWAP1 PUSH2 0x68F8 JUMP JUMPDEST PUSH2 0x1A49 SWAP2 SWAP1 PUSH2 0x6756 JUMP JUMPDEST PUSH2 0x1A53 SWAP2 SWAP1 PUSH2 0x6756 JUMP JUMPDEST SWAP1 POP DUP4 PUSH1 0x31 PUSH1 0x0 DUP6 PUSH20 0xFFFFFFFFFFFFFFFFFFFFFFFFFFFFFFFFFFFFFFFF AND PUSH20 0xFFFFFFFFFFFFFFFFFFFFFFFFFFFFFFFFFFFFFFFF AND DUP2 MSTORE PUSH1 0x20 ADD SWAP1 DUP2 MSTORE PUSH1 0x20 ADD PUSH1 0x0 KECCAK256 PUSH1 0x0 PUSH1 0x1 ISZERO ISZERO ISZERO ISZERO DUP2 MSTORE PUSH1 0x20 ADD SWAP1 DUP2 MSTORE PUSH1 0x20 ADD PUSH1 0x0 KECCAK256 PUSH1 0x2 ADD PUSH1 0x0 DUP3 DUP3 SLOAD PUSH2 0x1ABD SWAP2 SWAP1 PUSH2 0x6952 JUMP JUMPDEST SWAP3 POP POP DUP2 SWAP1 SSTORE POP DUP1 PUSH1 0x19 PUSH1 0x0 DUP3 DUP3 SLOAD PUSH2 0x1AD6 SWAP2 SWAP1 PUSH2 0x6952 JUMP JUMPDEST SWAP3 POP POP DUP2 SWAP1 SSTORE POP PUSH1 0x31 PUSH1 0x0 DUP5 PUSH20 0xFFFFFFFFFFFFFFFFFFFFFFFFFFFFFFFFFFFFFFFF AND PUSH20 0xFFFFFFFFFFFFFFFFFFFFFFFFFFFFFFFFFFFFFFFF AND DUP2 MSTORE PUSH1 0x20 ADD SWAP1 DUP2 MSTORE PUSH1 0x20 ADD PUSH1 0x0 KECCAK256 PUSH1 0x0 PUSH1 0x1 ISZERO ISZERO ISZERO ISZERO DUP2 MSTORE PUSH1 0x20 ADD SWAP1 DUP2 MSTORE PUSH1 0x20 ADD PUSH1 0x0 KECCAK256 PUSH1 0x2 ADD SLOAD DUP5 PUSH1 0x31 PUSH1 0x0 DUP7 PUSH20 0xFFFFFFFFFFFFFFFFFFFFFFFFFFFFFFFFFFFFFFFF AND PUSH20 0xFFFFFFFFFFFFFFFFFFFFFFFFFFFFFFFFFFFFFFFF AND DUP2 MSTORE PUSH1 0x20 ADD SWAP1 DUP2 MSTORE PUSH1 0x20 ADD PUSH1 0x0 KECCAK256 PUSH1 0x0 DUP1 ISZERO ISZERO ISZERO ISZERO DUP2 MSTORE PUSH1 0x20 ADD SWAP1 DUP2 MSTORE PUSH1 0x20 ADD PUSH1 0x0 KECCAK256 PUSH1 0x1 ADD SLOAD PUSH2 0x1B99 SWAP2 SWAP1 PUSH2 0x68F8 JUMP JUMPDEST PUSH2 0x1BA3 SWAP2 SWAP1 PUSH2 0x6756 JUMP JUMPDEST PUSH1 0x1B PUSH1 0x0 DUP3 DUP3 SLOAD PUSH2 0x1BB4 SWAP2 SWAP1 PUSH2 0x6952 JUMP JUMPDEST SWAP3 POP POP DUP2 SWAP1 SSTORE POP PUSH1 0x31 PUSH1 0x0 DUP5 PUSH20 0xFFFFFFFFFFFFFFFFFFFFFFFFFFFFFFFFFFFFFFFF AND PUSH20 0xFFFFFFFFFFFFFFFFFFFFFFFFFFFFFFFFFFFFFFFF AND DUP2 MSTORE PUSH1 0x20 ADD SWAP1 DUP2 MSTORE PUSH1 0x20 ADD PUSH1 0x0 KECCAK256 PUSH1 0x0 PUSH1 0x1 ISZERO ISZERO ISZERO ISZERO DUP2 MSTORE PUSH1 0x20 ADD SWAP1 DUP2 MSTORE PUSH1 0x20 ADD PUSH1 0x0 KECCAK256 PUSH1 0x2 ADD SLOAD DUP5 PUSH1 0x31 PUSH1 0x0 DUP7 PUSH20 0xFFFFFFFFFFFFFFFFFFFFFFFFFFFFFFFFFFFFFFFF AND PUSH20 0xFFFFFFFFFFFFFFFFFFFFFFFFFFFFFFFFFFFFFFFF AND DUP2 MSTORE PUSH1 0x20 ADD SWAP1 DUP2 MSTORE PUSH1 0x20 ADD PUSH1 0x0 KECCAK256 PUSH1 0x0 DUP1 ISZERO ISZERO ISZERO ISZERO DUP2 MSTORE PUSH1 0x20 ADD SWAP1 DUP2 MSTORE PUSH1 0x20 ADD PUSH1 0x0 KECCAK256 PUSH1 0x1 ADD SLOAD PUSH2 0x1C77 SWAP2 SWAP1 PUSH2 0x68F8 JUMP JUMPDEST PUSH2 0x1C81 SWAP2 SWAP1 PUSH2 0x6756 JUMP JUMPDEST PUSH1 0x31 PUSH1 0x0 DUP6 PUSH20 0xFFFFFFFFFFFFFFFFFFFFFFFFFFFFFFFFFFFFFFFF AND PUSH20 0xFFFFFFFFFFFFFFFFFFFFFFFFFFFFFFFFFFFFFFFF AND DUP2 MSTORE PUSH1 0x20 ADD SWAP1 DUP2 MSTORE PUSH1 0x20 ADD PUSH1 0x0 KECCAK256 PUSH1 0x0 DUP1 ISZERO ISZERO ISZERO ISZERO DUP2 MSTORE PUSH1 0x20 ADD SWAP1 DUP2 MSTORE PUSH1 0x20 ADD PUSH1 0x0 KECCAK256 PUSH1 0x1 ADD PUSH1 0x0 DUP3 DUP3 SLOAD PUSH2 0x1CE7 SWAP2 SWAP1 PUSH2 0x6952 JUMP JUMPDEST SWAP3 POP POP DUP2 SWAP1 SSTORE POP DUP1 DUP3 GT ISZERO PUSH2 0x1DD9 JUMPI DUP1 DUP3 PUSH2 0x1D02 SWAP2 SWAP1 PUSH2 0x6952 JUMP JUMPDEST PUSH1 0x32 PUSH1 0x0 DUP6 PUSH20 0xFFFFFFFFFFFFFFFFFFFFFFFFFFFFFFFFFFFFFFFF AND PUSH20 0xFFFFFFFFFFFFFFFFFFFFFFFFFFFFFFFFFFFFFFFF AND DUP2 MSTORE PUSH1 0x20 ADD SWAP1 DUP2 MSTORE PUSH1 0x20 ADD PUSH1 0x0 KECCAK256 PUSH1 0x33 PUSH1 0x0 PUSH1 0x28 PUSH1 0x0 SWAP1 SLOAD SWAP1 PUSH2 0x100 EXP SWAP1 DIV PUSH20 0xFFFFFFFFFFFFFFFFFFFFFFFFFFFFFFFFFFFFFFFF AND PUSH20 0xFFFFFFFFFFFFFFFFFFFFFFFFFFFFFFFFFFFFFFFF AND PUSH20 0xFFFFFFFFFFFFFFFFFFFFFFFFFFFFFFFFFFFFFFFF AND DUP2 MSTORE PUSH1 0x20 ADD SWAP1 DUP2 MSTORE PUSH1 0x20 ADD PUSH1 0x0 KECCAK256 SLOAD DUP2 SLOAD DUP2 LT PUSH2 0x1DB4 JUMPI PUSH2 0x1DB3 PUSH2 0x6AC9 JUMP JUMPDEST JUMPDEST SWAP1 PUSH1 0x0 MSTORE PUSH1 0x20 PUSH1 0x0 KECCAK256 ADD PUSH1 0x0 DUP3 DUP3 SLOAD PUSH2 0x1DCD SWAP2 SWAP1 PUSH2 0x6700 JUMP JUMPDEST SWAP3 POP POP DUP2 SWAP1 SSTORE POP PUSH2 0x1DDA JUMP JUMPDEST JUMPDEST POP POP JUMPDEST PUSH1 0x1 PUSH1 0x2F DUP2 SWAP1 SSTORE POP POP POP POP JUMP JUMPDEST PUSH1 0x14 SLOAD DUP2 JUMP JUMPDEST PUSH1 0x1F SLOAD DUP2 JUMP JUMPDEST PUSH1 0x0 PUSH1 0x1 PUSH1 0x2F SLOAD EQ PUSH2 0x1E3D JUMPI PUSH1 0x40 MLOAD PUSH32 0x8C379A000000000000000000000000000000000000000000000000000000000 DUP2 MSTORE PUSH1 0x4 ADD PUSH2 0x1E34 SWAP1 PUSH2 0x6644 JUMP JUMPDEST PUSH1 0x40 MLOAD DUP1 SWAP2 SUB SWAP1 REVERT JUMPDEST PUSH1 0x0 PUSH1 0x2F DUP2 SWAP1 SSTORE POP PUSH1 0x14 SLOAD DUP5 PUSH1 0x14 SLOAD PUSH2 0x1E56 SWAP2 SWAP1 PUSH2 0x6700 JUMP JUMPDEST PUSH1 0xB SLOAD PUSH2 0x1E63 SWAP2 SWAP1 PUSH2 0x68F8 JUMP JUMPDEST PUSH2 0x1E6D SWAP2 SWAP1 PUSH2 0x6756 JUMP JUMPDEST PUSH1 0xB DUP2 SWAP1 SSTORE POP PUSH1 0x13 SLOAD DUP4 PUSH1 0x13 SLOAD PUSH2 0x1E84 SWAP2 SWAP1 PUSH2 0x6700 JUMP JUMPDEST PUSH1 0xC SLOAD PUSH2 0x1E91 SWAP2 SWAP1 PUSH2 0x68F8 JUMP JUMPDEST PUSH2 0x1E9B SWAP2 SWAP1 PUSH2 0x6756 JUMP JUMPDEST PUSH1 0xC DUP2 SWAP1 SSTORE POP PUSH1 0x14 SLOAD DUP5 PUSH1 0x2B SLOAD PUSH2 0x1EB2 SWAP2 SWAP1 PUSH2 0x68F8 JUMP JUMPDEST PUSH2 0x1EBC SWAP2 SWAP1 PUSH2 0x6756 JUMP JUMPDEST SWAP1 POP DUP1 PUSH1 0x2B SLOAD PUSH2 0x1ECC SWAP2 SWAP1 PUSH2 0x6700 JUMP JUMPDEST PUSH1 0x2B DUP2 SWAP1 SSTORE POP DUP4 PUSH1 0x14 SLOAD PUSH2 0x1EE0 SWAP2 SWAP1 PUSH2 0x6700 JUMP JUMPDEST PUSH1 0x14 DUP2 SWAP1 SSTORE POP DUP3 PUSH1 0x13 SLOAD PUSH2 0x1EF4 SWAP2 SWAP1 PUSH2 0x6700 JUMP JUMPDEST PUSH1 0x13 DUP2 SWAP1 SSTORE POP PUSH2 0x1F04 DUP3 DUP3 PUSH2 0x410D JUMP JUMPDEST PUSH2 0x1F0C PUSH2 0x4227 JUMP JUMPDEST PUSH1 0x1 PUSH1 0x2F DUP2 SWAP1 SSTORE POP SWAP4 SWAP3 POP POP POP JUMP JUMPDEST PUSH1 0x16 SLOAD DUP2 JUMP JUMPDEST PUSH1 0x0 DUP1 PUSH1 0x1 PUSH1 0x2F SLOAD EQ PUSH2 0x1F69 JUMPI PUSH1 0x40 MLOAD PUSH32 0x8C379A000000000000000000000000000000000000000000000000000000000 DUP2 MSTORE PUSH1 0x4 ADD PUSH2 0x1F60 SWAP1 PUSH2 0x6644 JUMP JUMPDEST PUSH1 0x40 MLOAD DUP1 SWAP2 SUB SWAP1 REVERT JUMPDEST PUSH1 0x0 PUSH1 0x2F DUP2 SWAP1 SSTORE POP PUSH1 0x2B SLOAD PUSH1 0x14 SLOAD DUP6 PUSH2 0x1F82 SWAP2 SWAP1 PUSH2 0x68F8 JUMP JUMPDEST PUSH2 0x1F8C SWAP2 SWAP1 PUSH2 0x6756 JUMP JUMPDEST SWAP2 POP PUSH1 0x2B SLOAD PUSH1 0x13 SLOAD DUP6 PUSH2 0x1F9F SWAP2 SWAP1 PUSH2 0x68F8 JUMP JUMPDEST PUSH2 0x1FA9 SWAP2 SWAP1 PUSH2 0x6756 JUMP JUMPDEST SWAP1 POP PUSH1 0x14 SLOAD DUP3 PUSH1 0x14 SLOAD PUSH2 0x1FBC SWAP2 SWAP1 PUSH2 0x6952 JUMP JUMPDEST PUSH1 0xB SLOAD PUSH2 0x1FC9 SWAP2 SWAP1 PUSH2 0x68F8 JUMP JUMPDEST PUSH2 0x1FD3 SWAP2 SWAP1 PUSH2 0x6756 JUMP JUMPDEST PUSH1 0xB DUP2 SWAP1 SSTORE POP PUSH1 0x13 SLOAD DUP2 PUSH1 0x13 SLOAD PUSH2 0x1FEA SWAP2 SWAP1 PUSH2 0x6952 JUMP JUMPDEST PUSH1 0xC SLOAD PUSH2 0x1FF7 SWAP2 SWAP1 PUSH2 0x68F8 JUMP JUMPDEST PUSH2 0x2001 SWAP2 SWAP1 PUSH2 0x6756 JUMP JUMPDEST PUSH1 0xC DUP2 SWAP1 SSTORE POP DUP2 PUSH1 0x14 SLOAD PUSH2 0x2015 SWAP2 SWAP1 PUSH2 0x6952 JUMP JUMPDEST PUSH1 0x14 DUP2 SWAP1 SSTORE POP DUP1 PUSH1 0x13 SLOAD PUSH2 0x2029 SWAP2 SWAP1 PUSH2 0x6952 JUMP JUMPDEST PUSH1 0x13 DUP2 SWAP1 SSTORE POP DUP4 PUSH1 0x2B SLOAD PUSH2 0x203D SWAP2 SWAP1 PUSH2 0x6952 JUMP JUMPDEST PUSH1 0x2B DUP2 SWAP1 SSTORE POP PUSH2 0x204D ADDRESS DUP6 PUSH2 0x449A JUMP JUMPDEST PUSH2 0x207A PUSH1 0x28 PUSH1 0x0 SWAP1 SLOAD SWAP1 PUSH2 0x100 EXP SWAP1 DIV PUSH20 0xFFFFFFFFFFFFFFFFFFFFFFFFFFFFFFFFFFFFFFFF AND DUP5 DUP5 PUSH2 0x45B4 JUMP JUMPDEST PUSH2 0x20A7 PUSH1 0x29 PUSH1 0x0 SWAP1 SLOAD SWAP1 PUSH2 0x100 EXP SWAP1 DIV PUSH20 0xFFFFFFFFFFFFFFFFFFFFFFFFFFFFFFFFFFFFFFFF AND DUP5 DUP4 PUSH2 0x45B4 JUMP JUMPDEST PUSH2 0x20AF PUSH2 0x4227 JUMP JUMPDEST PUSH1 0x1 PUSH1 0x2F DUP2 SWAP1 SSTORE POP SWAP3 POP SWAP3 SWAP1 POP JUMP JUMPDEST PUSH1 0x23 SLOAD DUP2 JUMP JUMPDEST PUSH1 0x33 PUSH1 0x20 MSTORE DUP1 PUSH1 0x0 MSTORE PUSH1 0x40 PUSH1 0x0 KECCAK256 PUSH1 0x0 SWAP2 POP SWAP1 POP SLOAD DUP2 JUMP JUMPDEST PUSH1 0x1B SLOAD DUP2 JUMP JUMPDEST PUSH1 0x1 PUSH1 0x20 MSTORE DUP1 PUSH1 0x0 MSTORE PUSH1 0x40 PUSH1 0x0 KECCAK256 PUSH1 0x0 SWAP2 POP SWAP1 POP SLOAD DUP2 JUMP JUMPDEST PUSH1 0x12 SLOAD DUP2 JUMP JUMPDEST PUSH1 0x2E SLOAD DUP2 JUMP JUMPDEST PUSH1 0x31 PUSH1 0x20 MSTORE DUP2 PUSH1 0x0 MSTORE PUSH1 0x40 PUSH1 0x0 KECCAK256 PUSH1 0x20 MSTORE DUP1 PUSH1 0x0 MSTORE PUSH1 0x40 PUSH1 0x0 KECCAK256 PUSH1 0x0 SWAP2 POP SWAP2 POP POP DUP1 PUSH1 0x0 ADD PUSH1 0x0 SWAP1 SLOAD SWAP1 PUSH2 0x100 EXP SWAP1 DIV PUSH20 0xFFFFFFFFFFFFFFFFFFFFFFFFFFFFFFFFFFFFFFFF AND SWAP1 DUP1 PUSH1 0x0 ADD PUSH1 0x14 SWAP1 SLOAD SWAP1 PUSH2 0x100 EXP SWAP1 DIV PUSH1 0xFF AND SWAP1 DUP1 PUSH1 0x1 ADD SLOAD SWAP1 DUP1 PUSH1 0x2 ADD SLOAD SWAP1 POP DUP5 JUMP JUMPDEST PUSH1 0x4 PUSH1 0x20 MSTORE DUP1 PUSH1 0x0 MSTORE PUSH1 0x40 PUSH1 0x0 KECCAK256 PUSH1 0x0 SWAP2 POP SWAP1 POP SLOAD DUP2 JUMP JUMPDEST PUSH1 0x22 SLOAD DUP2 JUMP JUMPDEST PUSH1 0xA SLOAD DUP2 JUMP JUMPDEST PUSH1 0x6 SLOAD DUP2 JUMP JUMPDEST PUSH1 0xB SLOAD DUP2 JUMP JUMPDEST PUSH1 0x2C SLOAD DUP2 JUMP JUMPDEST PUSH1 0x9 SLOAD DUP2 JUMP JUMPDEST PUSH1 0x1 PUSH1 0x2F SLOAD EQ PUSH2 0x21F1 JUMPI PUSH1 0x40 MLOAD PUSH32 0x8C379A000000000000000000000000000000000000000000000000000000000 DUP2 MSTORE PUSH1 0x4 ADD PUSH2 0x21E8 SWAP1 PUSH2 0x6644 JUMP JUMPDEST PUSH1 0x40 MLOAD DUP1 SWAP2 SUB SWAP1 REVERT JUMPDEST PUSH1 0x0 PUSH1 0x2F DUP2 SWAP1 SSTORE POP PUSH1 0x0 DUP4 DUP6 PUSH2 0x2207 SWAP2 SWAP1 PUSH2 0x68F8 JUMP JUMPDEST EQ DUP1 ISZERO PUSH2 0x221F JUMPI POP PUSH1 0x0 DUP4 DUP6 PUSH2 0x221D SWAP2 SWAP1 PUSH2 0x6700 JUMP JUMPDEST GT JUMPDEST PUSH2 0x2228 JUMPI PUSH1 0x0 DUP1 REVERT JUMPDEST PUSH2 0x2230 PUSH2 0x3865 JUMP JUMPDEST PUSH2 0x22CA PUSH2 0x223C DUP3 PUSH2 0x473E JUMP JUMPDEST PUSH2 0x2267 PUSH1 0x28 PUSH1 0x0 SWAP1 SLOAD SWAP1 PUSH2 0x100 EXP SWAP1 DIV PUSH20 0xFFFFFFFFFFFFFFFFFFFFFFFFFFFFFFFFFFFFFFFF AND PUSH2 0x486C JUMP JUMPDEST DUP7 PUSH2 0x2272 SWAP2 SWAP1 PUSH2 0x68F8 JUMP JUMPDEST PUSH2 0x227C SWAP2 SWAP1 PUSH2 0x6700 JUMP JUMPDEST PUSH2 0x2285 DUP4 PUSH2 0x473E JUMP JUMPDEST PUSH2 0x22B0 PUSH1 0x29 PUSH1 0x0 SWAP1 SLOAD SWAP1 PUSH2 0x100 EXP SWAP1 DIV PUSH20 0xFFFFFFFFFFFFFFFFFFFFFFFFFFFFFFFFFFFFFFFF AND PUSH2 0x486C JUMP JUMPDEST DUP7 PUSH2 0x22BB SWAP2 SWAP1 PUSH2 0x68F8 JUMP JUMPDEST PUSH2 0x22C5 SWAP2 SWAP1 PUSH2 0x6700 JUMP JUMPDEST PUSH2 0x4873 JUMP JUMPDEST PUSH1 0x2A SLOAD PUSH2 0x22D6 DUP4 PUSH2 0x488C JUMP JUMPDEST PUSH2 0x22DF DUP5 PUSH2 0x473E JUMP JUMPDEST PUSH2 0x22E8 DUP6 PUSH2 0x4A14 JUMP JUMPDEST PUSH2 0x22F2 SWAP2 SWAP1 PUSH2 0x6700 JUMP JUMPDEST PUSH2 0x22FC SWAP2 SWAP1 PUSH2 0x6952 JUMP JUMPDEST PUSH2 0x2306 SWAP2 SWAP1 PUSH2 0x6756 JUMP JUMPDEST GT PUSH2 0x2346 JUMPI PUSH1 0x40 MLOAD PUSH32 0x8C379A000000000000000000000000000000000000000000000000000000000 DUP2 MSTORE PUSH1 0x4 ADD PUSH2 0x233D SWAP1 PUSH2 0x6624 JUMP JUMPDEST PUSH1 0x40 MLOAD DUP1 SWAP2 SUB SWAP1 REVERT JUMPDEST PUSH1 0x0 DUP1 PUSH1 0x1 ISZERO ISZERO DUP5 ISZERO ISZERO EQ ISZERO PUSH2 0x24CA JUMPI PUSH1 0x0 DUP7 GT ISZERO PUSH2 0x2374 JUMPI PUSH2 0x236A DUP7 PUSH1 0x1 PUSH2 0x39F9 JUMP JUMPDEST SWAP2 POP DUP6 SWAP1 POP PUSH2 0x2387 JUMP JUMPDEST DUP5 SWAP2 POP PUSH2 0x2384 DUP6 PUSH1 0x0 PUSH1 0x1 PUSH2 0x4B3A JUMP JUMPDEST SWAP1 POP JUMPDEST PUSH1 0x19 SLOAD PUSH1 0x1B SLOAD DUP3 PUSH2 0x2398 SWAP2 SWAP1 PUSH2 0x68F8 JUMP JUMPDEST PUSH2 0x23A2 SWAP2 SWAP1 PUSH2 0x6756 JUMP JUMPDEST PUSH1 0x31 PUSH1 0x0 DUP6 PUSH20 0xFFFFFFFFFFFFFFFFFFFFFFFFFFFFFFFFFFFFFFFF AND PUSH20 0xFFFFFFFFFFFFFFFFFFFFFFFFFFFFFFFFFFFFFFFF AND DUP2 MSTORE PUSH1 0x20 ADD SWAP1 DUP2 MSTORE PUSH1 0x20 ADD PUSH1 0x0 KECCAK256 PUSH1 0x0 DUP1 ISZERO ISZERO ISZERO ISZERO DUP2 MSTORE PUSH1 0x20 ADD SWAP1 DUP2 MSTORE PUSH1 0x20 ADD PUSH1 0x0 KECCAK256 PUSH1 0x1 ADD PUSH1 0x0 DUP3 DUP3 SLOAD PUSH2 0x2408 SWAP2 SWAP1 PUSH2 0x6700 JUMP JUMPDEST SWAP3 POP POP DUP2 SWAP1 SSTORE POP DUP2 PUSH1 0x31 PUSH1 0x0 DUP6 PUSH20 0xFFFFFFFFFFFFFFFFFFFFFFFFFFFFFFFFFFFFFFFF AND PUSH20 0xFFFFFFFFFFFFFFFFFFFFFFFFFFFFFFFFFFFFFFFF AND DUP2 MSTORE PUSH1 0x20 ADD SWAP1 DUP2 MSTORE PUSH1 0x20 ADD PUSH1 0x0 KECCAK256 PUSH1 0x0 PUSH1 0x1 ISZERO ISZERO ISZERO ISZERO DUP2 MSTORE PUSH1 0x20 ADD SWAP1 DUP2 MSTORE PUSH1 0x20 ADD PUSH1 0x0 KECCAK256 PUSH1 0x2 ADD PUSH1 0x0 DUP3 DUP3 SLOAD PUSH2 0x2477 SWAP2 SWAP1 PUSH2 0x6700 JUMP JUMPDEST SWAP3 POP POP DUP2 SWAP1 SSTORE POP PUSH1 0x1B SLOAD PUSH1 0x19 SLOAD PUSH1 0x1B SLOAD DUP4 PUSH2 0x2492 SWAP2 SWAP1 PUSH2 0x68F8 JUMP JUMPDEST PUSH2 0x249C SWAP2 SWAP1 PUSH2 0x6756 JUMP JUMPDEST PUSH2 0x24A6 SWAP2 SWAP1 PUSH2 0x6700 JUMP JUMPDEST PUSH1 0x1B DUP2 SWAP1 SSTORE POP DUP1 PUSH1 0x19 PUSH1 0x0 DUP3 DUP3 SLOAD PUSH2 0x24BE SWAP2 SWAP1 PUSH2 0x6700 JUMP JUMPDEST SWAP3 POP POP DUP2 SWAP1 SSTORE POP PUSH2 0x263A JUMP JUMPDEST PUSH1 0x0 DUP7 GT ISZERO PUSH2 0x24EA JUMPI DUP6 SWAP2 POP PUSH2 0x24E3 DUP7 PUSH1 0x0 PUSH1 0x1 PUSH2 0x4ECF JUMP JUMPDEST SWAP1 POP PUSH2 0x24FB JUMP JUMPDEST PUSH2 0x24F5 DUP6 PUSH1 0x1 PUSH2 0x3D83 JUMP JUMPDEST SWAP2 POP DUP5 SWAP1 POP JUMPDEST PUSH1 0x1A SLOAD PUSH1 0x1C SLOAD DUP3 PUSH2 0x250C SWAP2 SWAP1 PUSH2 0x68F8 JUMP JUMPDEST PUSH2 0x2516 SWAP2 SWAP1 PUSH2 0x6756 JUMP JUMPDEST PUSH1 0x31 PUSH1 0x0 DUP6 PUSH20 0xFFFFFFFFFFFFFFFFFFFFFFFFFFFFFFFFFFFFFFFF AND PUSH20 0xFFFFFFFFFFFFFFFFFFFFFFFFFFFFFFFFFFFFFFFF AND DUP2 MSTORE PUSH1 0x20 ADD SWAP1 DUP2 MSTORE PUSH1 0x20 ADD PUSH1 0x0 KECCAK256 PUSH1 0x0 PUSH1 0x1 ISZERO ISZERO ISZERO ISZERO DUP2 MSTORE PUSH1 0x20 ADD SWAP1 DUP2 MSTORE PUSH1 0x20 ADD PUSH1 0x0 KECCAK256 PUSH1 0x1 ADD PUSH1 0x0 DUP3 DUP3 SLOAD PUSH2 0x257D SWAP2 SWAP1 PUSH2 0x6700 JUMP JUMPDEST SWAP3 POP POP DUP2 SWAP1 SSTORE POP DUP2 PUSH1 0x31 PUSH1 0x0 DUP6 PUSH20 0xFFFFFFFFFFFFFFFFFFFFFFFFFFFFFFFFFFFFFFFF AND PUSH20 0xFFFFFFFFFFFFFFFFFFFFFFFFFFFFFFFFFFFFFFFF AND DUP2 MSTORE PUSH1 0x20 ADD SWAP1 DUP2 MSTORE PUSH1 0x20 ADD PUSH1 0x0 KECCAK256 PUSH1 0x0 DUP1 ISZERO ISZERO ISZERO ISZERO DUP2 MSTORE PUSH1 0x20 ADD SWAP1 DUP2 MSTORE PUSH1 0x20 ADD PUSH1 0x0 KECCAK256 PUSH1 0x2 ADD PUSH1 0x0 DUP3 DUP3 SLOAD PUSH2 0x25EB SWAP2 SWAP1 PUSH2 0x6700 JUMP JUMPDEST SWAP3 POP POP DUP2 SWAP1 SSTORE POP PUSH1 0x1C SLOAD PUSH1 0x1A SLOAD PUSH1 0x1C SLOAD DUP4 PUSH2 0x2606 SWAP2 SWAP1 PUSH2 0x68F8 JUMP JUMPDEST PUSH2 0x2610 SWAP2 SWAP1 PUSH2 0x6756 JUMP JUMPDEST PUSH2 0x261A SWAP2 SWAP1 PUSH2 0x6700 JUMP JUMPDEST PUSH1 0x1C DUP2 SWAP1 SSTORE POP DUP1 PUSH1 0x1A PUSH1 0x0 DUP3 DUP3 SLOAD PUSH2 0x2632 SWAP2 SWAP1 PUSH2 0x6700 JUMP JUMPDEST SWAP3 POP POP DUP2 SWAP1 SSTORE POP JUMPDEST POP POP PUSH1 0x1 PUSH1 0x2F DUP2 SWAP1 SSTORE POP POP POP POP POP JUMP JUMPDEST PUSH1 0x40 MLOAD DUP1 PUSH1 0x40 ADD PUSH1 0x40 MSTORE DUP1 PUSH1 0x6 DUP2 MSTORE PUSH1 0x20 ADD PUSH32 0x554E492D56320000000000000000000000000000000000000000000000000000 DUP2 MSTORE POP DUP2 JUMP JUMPDEST PUSH1 0x2A SLOAD DUP2 JUMP JUMPDEST PUSH1 0x1 PUSH1 0x2F SLOAD EQ PUSH2 0x26CE JUMPI PUSH1 0x40 MLOAD PUSH32 0x8C379A000000000000000000000000000000000000000000000000000000000 DUP2 MSTORE PUSH1 0x4 ADD PUSH2 0x26C5 SWAP1 PUSH2 0x6644 JUMP JUMPDEST PUSH1 0x40 MLOAD DUP1 SWAP2 SUB SWAP1 REVERT JUMPDEST PUSH1 0x0 PUSH1 0x2F DUP2 SWAP1 SSTORE POP PUSH1 0x0 DUP3 EQ DUP1 PUSH2 0x26E5 JUMPI POP PUSH1 0x0 DUP2 EQ JUMPDEST PUSH2 0x2724 JUMPI PUSH1 0x40 MLOAD PUSH32 0x8C379A000000000000000000000000000000000000000000000000000000000 DUP2 MSTORE PUSH1 0x4 ADD PUSH2 0x271B SWAP1 PUSH2 0x6524 JUMP JUMPDEST PUSH1 0x40 MLOAD DUP1 SWAP2 SUB SWAP1 REVERT JUMPDEST PUSH1 0x0 PUSH1 0x28 PUSH1 0x0 SWAP1 SLOAD SWAP1 PUSH2 0x100 EXP SWAP1 DIV PUSH20 0xFFFFFFFFFFFFFFFFFFFFFFFFFFFFFFFFFFFFFFFF AND PUSH20 0xFFFFFFFFFFFFFFFFFFFFFFFFFFFFFFFFFFFFFFFF AND PUSH4 0x70A08231 ADDRESS PUSH1 0x40 MLOAD DUP3 PUSH4 0xFFFFFFFF AND PUSH1 0xE0 SHL DUP2 MSTORE PUSH1 0x4 ADD PUSH2 0x2781 SWAP2 SWAP1 PUSH2 0x635D JUMP JUMPDEST PUSH1 0x20 PUSH1 0x40 MLOAD DUP1 DUP4 SUB DUP2 DUP7 DUP1 EXTCODESIZE ISZERO DUP1 ISZERO PUSH2 0x2799 JUMPI PUSH1 0x0 DUP1 REVERT JUMPDEST POP GAS STATICCALL ISZERO DUP1 ISZERO PUSH2 0x27AD JUMPI RETURNDATASIZE PUSH1 0x0 DUP1 RETURNDATACOPY RETURNDATASIZE PUSH1 0x0 REVERT JUMPDEST POP POP POP POP PUSH1 0x40 MLOAD RETURNDATASIZE PUSH1 0x1F NOT PUSH1 0x1F DUP3 ADD AND DUP3 ADD DUP1 PUSH1 0x40 MSTORE POP DUP2 ADD SWAP1 PUSH2 0x27D1 SWAP2 SWAP1 PUSH2 0x5F02 JUMP JUMPDEST SWAP1 POP PUSH1 0x0 PUSH1 0x29 PUSH1 0x0 SWAP1 SLOAD SWAP1 PUSH2 0x100 EXP SWAP1 DIV PUSH20 0xFFFFFFFFFFFFFFFFFFFFFFFFFFFFFFFFFFFFFFFF AND PUSH20 0xFFFFFFFFFFFFFFFFFFFFFFFFFFFFFFFFFFFFFFFF AND PUSH4 0x70A08231 ADDRESS PUSH1 0x40 MLOAD DUP3 PUSH4 0xFFFFFFFF AND PUSH1 0xE0 SHL DUP2 MSTORE PUSH1 0x4 ADD PUSH2 0x2830 SWAP2 SWAP1 PUSH2 0x635D JUMP JUMPDEST PUSH1 0x20 PUSH1 0x40 MLOAD DUP1 DUP4 SUB DUP2 DUP7 DUP1 EXTCODESIZE ISZERO DUP1 ISZERO PUSH2 0x2848 JUMPI PUSH1 0x0 DUP1 REVERT JUMPDEST POP GAS STATICCALL ISZERO DUP1 ISZERO PUSH2 0x285C JUMPI RETURNDATASIZE PUSH1 0x0 DUP1 RETURNDATACOPY RETURNDATASIZE PUSH1 0x0 REVERT JUMPDEST POP POP POP POP PUSH1 0x40 MLOAD RETURNDATASIZE PUSH1 0x1F NOT PUSH1 0x1F DUP3 ADD AND DUP3 ADD DUP1 PUSH1 0x40 MSTORE POP DUP2 ADD SWAP1 PUSH2 0x2880 SWAP2 SWAP1 PUSH2 0x5F02 JUMP JUMPDEST SWAP1 POP PUSH1 0x0 PUSH1 0x14 SLOAD DUP4 PUSH2 0x2892 SWAP2 SWAP1 PUSH2 0x6952 JUMP JUMPDEST SWAP1 POP PUSH1 0x0 PUSH1 0x13 SLOAD DUP4 PUSH2 0x28A4 SWAP2 SWAP1 PUSH2 0x6952 JUMP JUMPDEST SWAP1 POP PUSH1 0x0 DUP3 GT DUP1 PUSH2 0x28B5 JUMPI POP PUSH1 0x0 DUP2 GT JUMPDEST PUSH2 0x28F4 JUMPI PUSH1 0x40 MLOAD PUSH32 0x8C379A000000000000000000000000000000000000000000000000000000000 DUP2 MSTORE PUSH1 0x4 ADD PUSH2 0x28EB SWAP1 PUSH2 0x6504 JUMP JUMPDEST PUSH1 0x40 MLOAD DUP1 SWAP2 SUB SWAP1 REVERT JUMPDEST PUSH1 0x0 DUP7 GT ISZERO PUSH2 0x2972 JUMPI PUSH2 0x2940 PUSH1 0x29 PUSH1 0x0 SWAP1 SLOAD SWAP1 PUSH2 0x100 EXP SWAP1 DIV PUSH20 0xFFFFFFFFFFFFFFFFFFFFFFFFFFFFFFFFFFFFFFFF AND DUP9 PUSH2 0x2930 DUP10 DUP6 PUSH1 0x0 PUSH2 0x4ECF JUMP JUMPDEST DUP5 PUSH2 0x293B SWAP2 SWAP1 PUSH2 0x6952 JUMP JUMPDEST PUSH2 0x45B4 JUMP JUMPDEST PUSH2 0x296D PUSH1 0x28 PUSH1 0x0 SWAP1 SLOAD SWAP1 PUSH2 0x100 EXP SWAP1 DIV PUSH20 0xFFFFFFFFFFFFFFFFFFFFFFFFFFFFFFFFFFFFFFFF AND DUP9 DUP9 PUSH2 0x45B4 JUMP JUMPDEST PUSH2 0x2A74 JUMP JUMPDEST PUSH1 0x0 DUP6 GT ISZERO PUSH2 0x29F0 JUMPI PUSH2 0x29BE PUSH1 0x28 PUSH1 0x0 SWAP1 SLOAD SWAP1 PUSH2 0x100 EXP SWAP1 DIV PUSH20 0xFFFFFFFFFFFFFFFFFFFFFFFFFFFFFFFFFFFFFFFF AND DUP9 PUSH2 0x29AE DUP9 DUP7 PUSH1 0x0 PUSH2 0x4B3A JUMP JUMPDEST DUP6 PUSH2 0x29B9 SWAP2 SWAP1 PUSH2 0x6952 JUMP JUMPDEST PUSH2 0x45B4 JUMP JUMPDEST PUSH2 0x29EB PUSH1 0x29 PUSH1 0x0 SWAP1 SLOAD SWAP1 PUSH2 0x100 EXP SWAP1 DIV PUSH20 0xFFFFFFFFFFFFFFFFFFFFFFFFFFFFFFFFFFFFFFFF AND DUP9 DUP8 PUSH2 0x45B4 JUMP JUMPDEST PUSH2 0x2A73 JUMP JUMPDEST PUSH1 0x0 DUP3 GT ISZERO PUSH2 0x2A31 JUMPI PUSH2 0x2A30 PUSH1 0x29 PUSH1 0x0 SWAP1 SLOAD SWAP1 PUSH2 0x100 EXP SWAP1 DIV PUSH20 0xFFFFFFFFFFFFFFFFFFFFFFFFFFFFFFFFFFFFFFFF AND DUP9 PUSH2 0x2A2B DUP6 PUSH1 0x0 PUSH2 0x39F9 JUMP JUMPDEST PUSH2 0x45B4 JUMP JUMPDEST JUMPDEST PUSH1 0x0 DUP2 GT ISZERO PUSH2 0x2A72 JUMPI PUSH2 0x2A71 PUSH1 0x28 PUSH1 0x0 SWAP1 SLOAD SWAP1 PUSH2 0x100 EXP SWAP1 DIV PUSH20 0xFFFFFFFFFFFFFFFFFFFFFFFFFFFFFFFFFFFFFFFF AND DUP9 PUSH2 0x2A6C DUP5 PUSH1 0x0 PUSH2 0x3D83 JUMP JUMPDEST PUSH2 0x45B4 JUMP JUMPDEST JUMPDEST JUMPDEST JUMPDEST POP POP POP POP PUSH1 0x1 PUSH1 0x2F DUP2 SWAP1 SSTORE POP POP POP POP JUMP JUMPDEST DUP3 PUSH1 0x32 PUSH1 0x0 DUP4 PUSH20 0xFFFFFFFFFFFFFFFFFFFFFFFFFFFFFFFFFFFFFFFF AND PUSH20 0xFFFFFFFFFFFFFFFFFFFFFFFFFFFFFFFFFFFFFFFF AND DUP2 MSTORE PUSH1 0x20 ADD SWAP1 DUP2 MSTORE PUSH1 0x20 ADD PUSH1 0x0 KECCAK256 PUSH1 0x33 PUSH1 0x0 DUP6 PUSH20 0xFFFFFFFFFFFFFFFFFFFFFFFFFFFFFFFFFFFFFFFF AND PUSH20 0xFFFFFFFFFFFFFFFFFFFFFFFFFFFFFFFFFFFFFFFF AND DUP2 MSTORE PUSH1 0x20 ADD SWAP1 DUP2 MSTORE PUSH1 0x20 ADD PUSH1 0x0 KECCAK256 SLOAD DUP2 SLOAD DUP2 LT PUSH2 0x2B16 JUMPI PUSH2 0x2B15 PUSH2 0x6AC9 JUMP JUMPDEST JUMPDEST SWAP1 PUSH1 0x0 MSTORE PUSH1 0x20 PUSH1 0x0 KECCAK256 ADD PUSH1 0x0 DUP3 DUP3 SLOAD PUSH2 0x2B2F SWAP2 SWAP1 PUSH2 0x6700 JUMP JUMPDEST SWAP3 POP POP DUP2 SWAP1 SSTORE POP POP POP POP JUMP JUMPDEST PUSH1 0x10 SLOAD DUP2 JUMP JUMPDEST PUSH1 0x0 PUSH2 0x2B4E CALLER DUP5 DUP5 PUSH2 0x36D1 JUMP JUMPDEST PUSH1 0x1 SWAP1 POP SWAP3 SWAP2 POP POP JUMP JUMPDEST PUSH1 0x26 SLOAD DUP2 JUMP JUMPDEST PUSH1 0x29 PUSH1 0x0 SWAP1 SLOAD SWAP1 PUSH2 0x100 EXP SWAP1 DIV PUSH20 0xFFFFFFFFFFFFFFFFFFFFFFFFFFFFFFFFFFFFFFFF AND DUP2 JUMP JUMPDEST PUSH1 0x1 PUSH1 0x2F SLOAD EQ PUSH2 0x2BC9 JUMPI PUSH1 0x40 MLOAD PUSH32 0x8C379A000000000000000000000000000000000000000000000000000000000 DUP2 MSTORE PUSH1 0x4 ADD PUSH2 0x2BC0 SWAP1 PUSH2 0x6644 JUMP JUMPDEST PUSH1 0x40 MLOAD DUP1 SWAP2 SUB SWAP1 REVERT JUMPDEST PUSH1 0x0 PUSH1 0x2F DUP2 SWAP1 SSTORE POP PUSH2 0x2CBC PUSH1 0x28 PUSH1 0x0 SWAP1 SLOAD SWAP1 PUSH2 0x100 EXP SWAP1 DIV PUSH20 0xFFFFFFFFFFFFFFFFFFFFFFFFFFFFFFFFFFFFFFFF AND DUP3 PUSH2 0x2CB7 PUSH1 0x14 SLOAD PUSH1 0x28 PUSH1 0x0 SWAP1 SLOAD SWAP1 PUSH2 0x100 EXP SWAP1 DIV PUSH20 0xFFFFFFFFFFFFFFFFFFFFFFFFFFFFFFFFFFFFFFFF AND PUSH20 0xFFFFFFFFFFFFFFFFFFFFFFFFFFFFFFFFFFFFFFFF AND PUSH4 0x70A08231 ADDRESS PUSH1 0x40 MLOAD DUP3 PUSH4 0xFFFFFFFF AND PUSH1 0xE0 SHL DUP2 MSTORE PUSH1 0x4 ADD PUSH2 0x2C59 SWAP2 SWAP1 PUSH2 0x635D JUMP JUMPDEST PUSH1 0x20 PUSH1 0x40 MLOAD DUP1 DUP4 SUB DUP2 DUP7 DUP1 EXTCODESIZE ISZERO DUP1 ISZERO PUSH2 0x2C71 JUMPI PUSH1 0x0 DUP1 REVERT JUMPDEST POP GAS STATICCALL ISZERO DUP1 ISZERO PUSH2 0x2C85 JUMPI RETURNDATASIZE PUSH1 0x0 DUP1 RETURNDATACOPY RETURNDATASIZE PUSH1 0x0 REVERT JUMPDEST POP POP POP POP PUSH1 0x40 MLOAD RETURNDATASIZE PUSH1 0x1F NOT PUSH1 0x1F DUP3 ADD AND DUP3 ADD DUP1 PUSH1 0x40 MSTORE POP DUP2 ADD SWAP1 PUSH2 0x2CA9 SWAP2 SWAP1 PUSH2 0x5F02 JUMP JUMPDEST PUSH2 0x3678 SWAP1 SWAP2 SWAP1 PUSH4 0xFFFFFFFF AND JUMP JUMPDEST PUSH2 0x45B4 JUMP JUMPDEST PUSH2 0x2DA7 PUSH1 0x29 PUSH1 0x0 SWAP1 SLOAD SWAP1 PUSH2 0x100 EXP SWAP1 DIV PUSH20 0xFFFFFFFFFFFFFFFFFFFFFFFFFFFFFFFFFFFFFFFF AND DUP3 PUSH2 0x2DA2 PUSH1 0x13 SLOAD PUSH1 0x29 PUSH1 0x0 SWAP1 SLOAD SWAP1 PUSH2 0x100 EXP SWAP1 DIV PUSH20 0xFFFFFFFFFFFFFFFFFFFFFFFFFFFFFFFFFFFFFFFF AND PUSH20 0xFFFFFFFFFFFFFFFFFFFFFFFFFFFFFFFFFFFFFFFF AND PUSH4 0x70A08231 ADDRESS PUSH1 0x40 MLOAD DUP3 PUSH4 0xFFFFFFFF AND PUSH1 0xE0 SHL DUP2 MSTORE PUSH1 0x4 ADD PUSH2 0x2D44 SWAP2 SWAP1 PUSH2 0x635D JUMP JUMPDEST PUSH1 0x20 PUSH1 0x40 MLOAD DUP1 DUP4 SUB DUP2 DUP7 DUP1 EXTCODESIZE ISZERO DUP1 ISZERO PUSH2 0x2D5C JUMPI PUSH1 0x0 DUP1 REVERT JUMPDEST POP GAS STATICCALL ISZERO DUP1 ISZERO PUSH2 0x2D70 JUMPI RETURNDATASIZE PUSH1 0x0 DUP1 RETURNDATACOPY RETURNDATASIZE PUSH1 0x0 REVERT JUMPDEST POP POP POP POP PUSH1 0x40 MLOAD RETURNDATASIZE PUSH1 0x1F NOT PUSH1 0x1F DUP3 ADD AND DUP3 ADD DUP1 PUSH1 0x40 MSTORE POP DUP2 ADD SWAP1 PUSH2 0x2D94 SWAP2 SWAP1 PUSH2 0x5F02 JUMP JUMPDEST PUSH2 0x3678 SWAP1 SWAP2 SWAP1 PUSH4 0xFFFFFFFF AND JUMP JUMPDEST PUSH2 0x45B4 JUMP JUMPDEST PUSH1 0x1 PUSH1 0x2F DUP2 SWAP1 SSTORE POP POP JUMP JUMPDEST PUSH1 0x1 PUSH1 0x2F SLOAD EQ PUSH2 0x2DF7 JUMPI PUSH1 0x40 MLOAD PUSH32 0x8C379A000000000000000000000000000000000000000000000000000000000 DUP2 MSTORE PUSH1 0x4 ADD PUSH2 0x2DEE SWAP1 PUSH2 0x6644 JUMP JUMPDEST PUSH1 0x40 MLOAD DUP1 SWAP2 SUB SWAP1 REVERT JUMPDEST PUSH1 0x0 PUSH1 0x2F DUP2 SWAP1 SSTORE POP PUSH2 0x2E08 DUP3 PUSH2 0x473E JUMP JUMPDEST PUSH2 0x2E11 DUP4 PUSH2 0x488C JUMP JUMPDEST GT DUP1 ISZERO PUSH2 0x2E4D JUMPI POP PUSH2 0x2E22 DUP3 PUSH2 0x4A14 JUMP JUMPDEST PUSH1 0x2C SLOAD PUSH2 0x2E2F SWAP2 SWAP1 PUSH2 0x68F8 JUMP JUMPDEST PUSH2 0x2E38 DUP4 PUSH2 0x473E JUMP JUMPDEST PUSH2 0x2E41 DUP5 PUSH2 0x488C JUMP JUMPDEST PUSH2 0x2E4B SWAP2 SWAP1 PUSH2 0x6952 JUMP JUMPDEST GT JUMPDEST PUSH2 0x2E8C JUMPI PUSH1 0x40 MLOAD PUSH32 0x8C379A000000000000000000000000000000000000000000000000000000000 DUP2 MSTORE PUSH1 0x4 ADD PUSH2 0x2E83 SWAP1 PUSH2 0x6544 JUMP JUMPDEST PUSH1 0x40 MLOAD DUP1 SWAP2 SUB SWAP1 REVERT JUMPDEST PUSH1 0x0 PUSH1 0x30 DUP1 SLOAD SWAP1 POP SWAP1 POP PUSH1 0x0 JUMPDEST DUP2 DUP2 LT ISZERO PUSH2 0x2F65 JUMPI PUSH2 0x2F52 PUSH1 0x30 DUP3 DUP2 SLOAD DUP2 LT PUSH2 0x2EB8 JUMPI PUSH2 0x2EB7 PUSH2 0x6AC9 JUMP JUMPDEST JUMPDEST SWAP1 PUSH1 0x0 MSTORE PUSH1 0x20 PUSH1 0x0 KECCAK256 ADD PUSH1 0x0 SWAP1 SLOAD SWAP1 PUSH2 0x100 EXP SWAP1 DIV PUSH20 0xFFFFFFFFFFFFFFFFFFFFFFFFFFFFFFFFFFFFFFFF AND DUP5 PUSH1 0x2D SLOAD PUSH1 0x32 PUSH1 0x0 DUP10 PUSH20 0xFFFFFFFFFFFFFFFFFFFFFFFFFFFFFFFFFFFFFFFF AND PUSH20 0xFFFFFFFFFFFFFFFFFFFFFFFFFFFFFFFFFFFFFFFF AND DUP2 MSTORE PUSH1 0x20 ADD SWAP1 DUP2 MSTORE PUSH1 0x20 ADD PUSH1 0x0 KECCAK256 DUP6 DUP2 SLOAD DUP2 LT PUSH2 0x2F38 JUMPI PUSH2 0x2F37 PUSH2 0x6AC9 JUMP JUMPDEST JUMPDEST SWAP1 PUSH1 0x0 MSTORE PUSH1 0x20 PUSH1 0x0 KECCAK256 ADD SLOAD PUSH2 0x2F4D SWAP2 SWAP1 PUSH2 0x68F8 JUMP JUMPDEST PUSH2 0x45B4 JUMP JUMPDEST DUP1 DUP1 PUSH2 0x2F5D SWAP1 PUSH2 0x6A18 JUMP JUMPDEST SWAP2 POP POP PUSH2 0x2E99 JUMP JUMPDEST POP PUSH1 0x32 PUSH1 0x0 DUP5 PUSH20 0xFFFFFFFFFFFFFFFFFFFFFFFFFFFFFFFFFFFFFFFF AND PUSH20 0xFFFFFFFFFFFFFFFFFFFFFFFFFFFFFFFFFFFFFFFF AND DUP2 MSTORE PUSH1 0x20 ADD SWAP1 DUP2 MSTORE PUSH1 0x20 ADD PUSH1 0x0 KECCAK256 PUSH1 0x0 PUSH2 0x2FB1 SWAP2 SWAP1 PUSH2 0x5BA2 JUMP JUMPDEST PUSH1 0x0 PUSH1 0x31 PUSH1 0x0 DUP6 PUSH20 0xFFFFFFFFFFFFFFFFFFFFFFFFFFFFFFFFFFFFFFFF AND PUSH20 0xFFFFFFFFFFFFFFFFFFFFFFFFFFFFFFFFFFFFFFFF AND DUP2 MSTORE PUSH1 0x20 ADD SWAP1 DUP2 MSTORE PUSH1 0x20 ADD PUSH1 0x0 KECCAK256 PUSH1 0x0 DUP1 ISZERO ISZERO ISZERO ISZERO DUP2 MSTORE PUSH1 0x20 ADD SWAP1 DUP2 MSTORE PUSH1 0x20 ADD PUSH1 0x0 KECCAK256 PUSH1 0x1 ADD DUP2 SWAP1 SSTORE POP PUSH1 0x0 PUSH1 0x31 PUSH1 0x0 DUP6 PUSH20 0xFFFFFFFFFFFFFFFFFFFFFFFFFFFFFFFFFFFFFFFF AND PUSH20 0xFFFFFFFFFFFFFFFFFFFFFFFFFFFFFFFFFFFFFFFF AND DUP2 MSTORE PUSH1 0x20 ADD SWAP1 DUP2 MSTORE PUSH1 0x20 ADD PUSH1 0x0 KECCAK256 PUSH1 0x0 PUSH1 0x1 ISZERO ISZERO ISZERO ISZERO DUP2 MSTORE PUSH1 0x20 ADD SWAP1 DUP2 MSTORE PUSH1 0x20 ADD PUSH1 0x0 KECCAK256 PUSH1 0x1 ADD DUP2 SWAP1 SSTORE POP PUSH2 0x3126 PUSH1 0x31 PUSH1 0x0 DUP6 PUSH20 0xFFFFFFFFFFFFFFFFFFFFFFFFFFFFFFFFFFFFFFFF AND PUSH20 0xFFFFFFFFFFFFFFFFFFFFFFFFFFFFFFFFFFFFFFFF AND DUP2 MSTORE PUSH1 0x20 ADD SWAP1 DUP2 MSTORE PUSH1 0x20 ADD PUSH1 0x0 KECCAK256 PUSH1 0x0 DUP1 ISZERO ISZERO ISZERO ISZERO DUP2 MSTORE PUSH1 0x20 ADD SWAP1 DUP2 MSTORE PUSH1 0x20 ADD PUSH1 0x0 KECCAK256 PUSH1 0x2 ADD SLOAD PUSH1 0x31 PUSH1 0x0 DUP7 PUSH20 0xFFFFFFFFFFFFFFFFFFFFFFFFFFFFFFFFFFFFFFFF AND PUSH20 0xFFFFFFFFFFFFFFFFFFFFFFFFFFFFFFFFFFFFFFFF AND DUP2 MSTORE PUSH1 0x20 ADD SWAP1 DUP2 MSTORE PUSH1 0x20 ADD PUSH1 0x0 KECCAK256 PUSH1 0x0 PUSH1 0x1 ISZERO ISZERO ISZERO ISZERO DUP2 MSTORE PUSH1 0x20 ADD SWAP1 DUP2 MSTORE PUSH1 0x20 ADD PUSH1 0x0 KECCAK256 PUSH1 0x2 ADD SLOAD DUP6 PUSH2 0x134F JUMP JUMPDEST POP PUSH1 0x1 PUSH1 0x2F DUP2 SWAP1 SSTORE POP POP POP JUMP JUMPDEST PUSH1 0x27 PUSH1 0x0 SWAP1 SLOAD SWAP1 PUSH2 0x100 EXP SWAP1 DIV PUSH20 0xFFFFFFFFFFFFFFFFFFFFFFFFFFFFFFFFFFFFFFFF AND DUP2 JUMP JUMPDEST PUSH1 0x20 PUSH1 0x0 SWAP1 SLOAD SWAP1 PUSH2 0x100 EXP SWAP1 DIV PUSH1 0xFF AND DUP2 JUMP JUMPDEST PUSH1 0x24 SLOAD DUP2 JUMP JUMPDEST PUSH1 0x27 PUSH1 0x0 SWAP1 SLOAD SWAP1 PUSH2 0x100 EXP SWAP1 DIV PUSH20 0xFFFFFFFFFFFFFFFFFFFFFFFFFFFFFFFFFFFFFFFF AND PUSH20 0xFFFFFFFFFFFFFFFFFFFFFFFFFFFFFFFFFFFFFFFF AND CALLER PUSH20 0xFFFFFFFFFFFFFFFFFFFFFFFFFFFFFFFFFFFFFFFF AND EQ PUSH2 0x3202 JUMPI PUSH1 0x40 MLOAD PUSH32 0x8C379A000000000000000000000000000000000000000000000000000000000 DUP2 MSTORE PUSH1 0x4 ADD PUSH2 0x31F9 SWAP1 PUSH2 0x6544 JUMP JUMPDEST PUSH1 0x40 MLOAD DUP1 SWAP2 SUB SWAP1 REVERT JUMPDEST DUP1 PUSH1 0x2A DUP2 SWAP1 SSTORE POP POP JUMP JUMPDEST PUSH1 0x18 SLOAD DUP2 JUMP JUMPDEST TIMESTAMP DUP5 LT ISZERO PUSH2 0x3255 JUMPI PUSH1 0x40 MLOAD PUSH32 0x8C379A000000000000000000000000000000000000000000000000000000000 DUP2 MSTORE PUSH1 0x4 ADD PUSH2 0x324C SWAP1 PUSH2 0x65A4 JUMP JUMPDEST PUSH1 0x40 MLOAD DUP1 SWAP2 SUB SWAP1 REVERT JUMPDEST PUSH1 0x0 PUSH1 0x3 SLOAD PUSH32 0x6E71EDAE12B1B97F4D1F60370FEF10105FA2FAAE0126114A169C64845D6126C9 PUSH1 0x0 SHL DUP10 DUP10 DUP10 PUSH1 0x4 PUSH1 0x0 DUP15 PUSH20 0xFFFFFFFFFFFFFFFFFFFFFFFFFFFFFFFFFFFFFFFF AND PUSH20 0xFFFFFFFFFFFFFFFFFFFFFFFFFFFFFFFFFFFFFFFF AND DUP2 MSTORE PUSH1 0x20 ADD SWAP1 DUP2 MSTORE PUSH1 0x20 ADD PUSH1 0x0 KECCAK256 PUSH1 0x0 DUP2 SLOAD DUP1 SWAP3 SWAP2 SWAP1 PUSH2 0x32D1 SWAP1 PUSH2 0x6A18 JUMP JUMPDEST SWAP2 SWAP1 POP SSTORE DUP11 PUSH1 0x40 MLOAD PUSH1 0x20 ADD PUSH2 0x32EB SWAP7 SWAP6 SWAP5 SWAP4 SWAP3 SWAP2 SWAP1 PUSH2 0x641C JUMP JUMPDEST PUSH1 0x40 MLOAD PUSH1 0x20 DUP2 DUP4 SUB SUB DUP2 MSTORE SWAP1 PUSH1 0x40 MSTORE DUP1 MLOAD SWAP1 PUSH1 0x20 ADD KECCAK256 PUSH1 0x40 MLOAD PUSH1 0x20 ADD PUSH2 0x3312 SWAP3 SWAP2 SWAP1 PUSH2 0x6326 JUMP JUMPDEST PUSH1 0x40 MLOAD PUSH1 0x20 DUP2 DUP4 SUB SUB DUP2 MSTORE SWAP1 PUSH1 0x40 MSTORE DUP1 MLOAD SWAP1 PUSH1 0x20 ADD KECCAK256 SWAP1 POP PUSH1 0x0 PUSH1 0x1 DUP3 DUP7 DUP7 DUP7 PUSH1 0x40 MLOAD PUSH1 0x0 DUP2 MSTORE PUSH1 0x20 ADD PUSH1 0x40 MSTORE PUSH1 0x40 MLOAD PUSH2 0x334F SWAP5 SWAP4 SWAP3 SWAP2 SWAP1 PUSH2 0x647D JUMP JUMPDEST PUSH1 0x20 PUSH1 0x40 MLOAD PUSH1 0x20 DUP2 SUB SWAP1 DUP1 DUP5 SUB SWAP1 DUP6 GAS STATICCALL ISZERO DUP1 ISZERO PUSH2 0x3371 JUMPI RETURNDATASIZE PUSH1 0x0 DUP1 RETURNDATACOPY RETURNDATASIZE PUSH1 0x0 REVERT JUMPDEST POP POP POP PUSH1 0x20 PUSH1 0x40 MLOAD SUB MLOAD SWAP1 POP PUSH1 0x0 PUSH20 0xFFFFFFFFFFFFFFFFFFFFFFFFFFFFFFFFFFFFFFFF AND DUP2 PUSH20 0xFFFFFFFFFFFFFFFFFFFFFFFFFFFFFFFFFFFFFFFF AND EQ ISZERO DUP1 ISZERO PUSH2 0x33E5 JUMPI POP DUP9 PUSH20 0xFFFFFFFFFFFFFFFFFFFFFFFFFFFFFFFFFFFFFFFF AND DUP2 PUSH20 0xFFFFFFFFFFFFFFFFFFFFFFFFFFFFFFFFFFFFFFFF AND EQ JUMPDEST PUSH2 0x3424 JUMPI PUSH1 0x40 MLOAD PUSH32 0x8C379A000000000000000000000000000000000000000000000000000000000 DUP2 MSTORE PUSH1 0x4 ADD PUSH2 0x341B SWAP1 PUSH2 0x6564 JUMP JUMPDEST PUSH1 0x40 MLOAD DUP1 SWAP2 SUB SWAP1 REVERT JUMPDEST PUSH2 0x342F DUP10 DUP10 DUP10 PUSH2 0x358D JUMP JUMPDEST POP POP POP POP POP POP POP POP POP JUMP JUMPDEST PUSH1 0x30 DUP2 DUP2 SLOAD DUP2 LT PUSH2 0x344A JUMPI PUSH1 0x0 DUP1 REVERT JUMPDEST SWAP1 PUSH1 0x0 MSTORE PUSH1 0x20 PUSH1 0x0 KECCAK256 ADD PUSH1 0x0 SWAP2 POP SLOAD SWAP1 PUSH2 0x100 EXP SWAP1 DIV PUSH20 0xFFFFFFFFFFFFFFFFFFFFFFFFFFFFFFFFFFFFFFFF AND DUP2 JUMP JUMPDEST PUSH1 0x2 PUSH1 0x20 MSTORE DUP2 PUSH1 0x0 MSTORE PUSH1 0x40 PUSH1 0x0 KECCAK256 PUSH1 0x20 MSTORE DUP1 PUSH1 0x0 MSTORE PUSH1 0x40 PUSH1 0x0 KECCAK256 PUSH1 0x0 SWAP2 POP SWAP2 POP POP SLOAD DUP2 JUMP JUMPDEST PUSH1 0xF SLOAD DUP2 JUMP JUMPDEST PUSH1 0x21 SLOAD DUP2 JUMP JUMPDEST PUSH1 0x11 SLOAD DUP2 JUMP JUMPDEST PUSH1 0x2D SLOAD DUP2 JUMP JUMPDEST PUSH1 0x8 SLOAD DUP2 JUMP JUMPDEST PUSH1 0x32 PUSH1 0x20 MSTORE DUP2 PUSH1 0x0 MSTORE PUSH1 0x40 PUSH1 0x0 KECCAK256 DUP2 DUP2 SLOAD DUP2 LT PUSH2 0x34D8 JUMPI PUSH1 0x0 DUP1 REVERT JUMPDEST SWAP1 PUSH1 0x0 MSTORE PUSH1 0x20 PUSH1 0x0 KECCAK256 ADD PUSH1 0x0 SWAP2 POP SWAP2 POP POP SLOAD DUP2 JUMP JUMPDEST PUSH1 0xD SLOAD DUP2 JUMP JUMPDEST PUSH1 0x27 PUSH1 0x0 SWAP1 SLOAD SWAP1 PUSH2 0x100 EXP SWAP1 DIV PUSH20 0xFFFFFFFFFFFFFFFFFFFFFFFFFFFFFFFFFFFFFFFF AND PUSH20 0xFFFFFFFFFFFFFFFFFFFFFFFFFFFFFFFFFFFFFFFF AND CALLER PUSH20 0xFFFFFFFFFFFFFFFFFFFFFFFFFFFFFFFFFFFFFFFF AND EQ PUSH2 0x3583 JUMPI PUSH1 0x40 MLOAD PUSH32 0x8C379A000000000000000000000000000000000000000000000000000000000 DUP2 MSTORE PUSH1 0x4 ADD PUSH2 0x357A SWAP1 PUSH2 0x6544 JUMP JUMPDEST PUSH1 0x40 MLOAD DUP1 SWAP2 SUB SWAP1 REVERT JUMPDEST DUP1 PUSH1 0x2C DUP2 SWAP1 SSTORE POP POP JUMP JUMPDEST DUP1 PUSH1 0x2 PUSH1 0x0 DUP6 PUSH20 0xFFFFFFFFFFFFFFFFFFFFFFFFFFFFFFFFFFFFFFFF AND PUSH20 0xFFFFFFFFFFFFFFFFFFFFFFFFFFFFFFFFFFFFFFFF AND DUP2 MSTORE PUSH1 0x20 ADD SWAP1 DUP2 MSTORE PUSH1 0x20 ADD PUSH1 0x0 KECCAK256 PUSH1 0x0 DUP5 PUSH20 0xFFFFFFFFFFFFFFFFFFFFFFFFFFFFFFFFFFFFFFFF AND PUSH20 0xFFFFFFFFFFFFFFFFFFFFFFFFFFFFFFFFFFFFFFFF AND DUP2 MSTORE PUSH1 0x20 ADD SWAP1 DUP2 MSTORE PUSH1 0x20 ADD PUSH1 0x0 KECCAK256 DUP2 SWAP1 SSTORE POP DUP2 PUSH20 0xFFFFFFFFFFFFFFFFFFFFFFFFFFFFFFFFFFFFFFFF AND DUP4 PUSH20 0xFFFFFFFFFFFFFFFFFFFFFFFFFFFFFFFFFFFFFFFF AND PUSH32 0x8C5BE1E5EBEC7D5BD14F71427D1E84F3DD0314C0F7B2291E5B200AC8C7C3B925 DUP4 PUSH1 0x40 MLOAD PUSH2 0x366B SWAP2 SWAP1 PUSH2 0x6664 JUMP JUMPDEST PUSH1 0x40 MLOAD DUP1 SWAP2 SUB SWAP1 LOG3 POP POP POP JUMP JUMPDEST PUSH1 0x0 DUP3 DUP3 DUP5 PUSH2 0x3687 SWAP2 SWAP1 PUSH2 0x6952 JUMP JUMPDEST SWAP2 POP DUP2 GT ISZERO PUSH2 0x36CB JUMPI PUSH1 0x40 MLOAD PUSH32 0x8C379A000000000000000000000000000000000000000000000000000000000 DUP2 MSTORE PUSH1 0x4 ADD PUSH2 0x36C2 SWAP1 PUSH2 0x64E4 JUMP JUMPDEST PUSH1 0x40 MLOAD DUP1 SWAP2 SUB SWAP1 REVERT JUMPDEST SWAP3 SWAP2 POP POP JUMP JUMPDEST PUSH2 0x3723 DUP2 PUSH1 0x1 PUSH1 0x0 DUP7 PUSH20 0xFFFFFFFFFFFFFFFFFFFFFFFFFFFFFFFFFFFFFFFF AND PUSH20 0xFFFFFFFFFFFFFFFFFFFFFFFFFFFFFFFFFFFFFFFF AND DUP2 MSTORE PUSH1 0x20 ADD SWAP1 DUP2 MSTORE PUSH1 0x20 ADD PUSH1 0x0 KECCAK256 SLOAD PUSH2 0x3678 SWAP1 SWAP2 SWAP1 PUSH4 0xFFFFFFFF AND JUMP JUMPDEST PUSH1 0x1 PUSH1 0x0 DUP6 PUSH20 0xFFFFFFFFFFFFFFFFFFFFFFFFFFFFFFFFFFFFFFFF AND PUSH20 0xFFFFFFFFFFFFFFFFFFFFFFFFFFFFFFFFFFFFFFFF AND DUP2 MSTORE PUSH1 0x20 ADD SWAP1 DUP2 MSTORE PUSH1 0x20 ADD PUSH1 0x0 KECCAK256 DUP2 SWAP1 SSTORE POP PUSH2 0x37B8 DUP2 PUSH1 0x1 PUSH1 0x0 DUP6 PUSH20 0xFFFFFFFFFFFFFFFFFFFFFFFFFFFFFFFFFFFFFFFF AND PUSH20 0xFFFFFFFFFFFFFFFFFFFFFFFFFFFFFFFFFFFFFFFF AND DUP2 MSTORE PUSH1 0x20 ADD SWAP1 DUP2 MSTORE PUSH1 0x20 ADD PUSH1 0x0 KECCAK256 SLOAD PUSH2 0x5264 SWAP1 SWAP2 SWAP1 PUSH4 0xFFFFFFFF AND JUMP JUMPDEST PUSH1 0x1 PUSH1 0x0 DUP5 PUSH20 0xFFFFFFFFFFFFFFFFFFFFFFFFFFFFFFFFFFFFFFFF AND PUSH20 0xFFFFFFFFFFFFFFFFFFFFFFFFFFFFFFFFFFFFFFFF AND DUP2 MSTORE PUSH1 0x20 ADD SWAP1 DUP2 MSTORE PUSH1 0x20 ADD PUSH1 0x0 KECCAK256 DUP2 SWAP1 SSTORE POP DUP2 PUSH20 0xFFFFFFFFFFFFFFFFFFFFFFFFFFFFFFFFFFFFFFFF AND DUP4 PUSH20 0xFFFFFFFFFFFFFFFFFFFFFFFFFFFFFFFFFFFFFFFF AND PUSH32 0xDDF252AD1BE2C89B69C2B068FC378DAA952BA7F163C4A11628F55A4DF523B3EF DUP4 PUSH1 0x40 MLOAD PUSH2 0x3858 SWAP2 SWAP1 PUSH2 0x6664 JUMP JUMPDEST PUSH1 0x40 MLOAD DUP1 SWAP2 SUB SWAP1 LOG3 POP POP POP JUMP JUMPDEST PUSH1 0x0 DUP1 PUSH2 0x3870 PUSH2 0x52BD JUMP JUMPDEST SWAP2 POP SWAP2 POP PUSH1 0x0 PUSH1 0x1F SLOAD NUMBER PUSH2 0x3884 SWAP2 SWAP1 PUSH2 0x6952 JUMP JUMPDEST SWAP1 POP NUMBER PUSH1 0x1F DUP2 SWAP1 SSTORE POP PUSH1 0x0 PUSH1 0xE SLOAD PUSH1 0xD SLOAD PUSH1 0x17 SLOAD PUSH2 0x38A2 SWAP2 SWAP1 PUSH2 0x68F8 JUMP JUMPDEST PUSH2 0x38AC SWAP2 SWAP1 PUSH2 0x6756 JUMP JUMPDEST SWAP1 POP PUSH1 0x0 ISZERO ISZERO PUSH1 0x20 PUSH1 0x0 SWAP1 SLOAD SWAP1 PUSH2 0x100 EXP SWAP1 DIV PUSH1 0xFF AND ISZERO ISZERO EQ ISZERO PUSH2 0x395D JUMPI PUSH1 0x2E SLOAD DUP3 PUSH1 0x1E SLOAD PUSH1 0x2E SLOAD PUSH2 0x38DE SWAP2 SWAP1 PUSH2 0x6700 JUMP JUMPDEST PUSH1 0x19 SLOAD PUSH2 0x38EB SWAP2 SWAP1 PUSH2 0x68F8 JUMP JUMPDEST PUSH2 0x38F5 SWAP2 SWAP1 PUSH2 0x68F8 JUMP JUMPDEST PUSH2 0x38FF SWAP2 SWAP1 PUSH2 0x6756 JUMP JUMPDEST PUSH1 0x19 DUP2 SWAP1 SSTORE POP PUSH1 0x2E SLOAD PUSH1 0x2E SLOAD DUP3 DUP5 PUSH1 0x19 SLOAD PUSH1 0x1E SLOAD PUSH2 0x391D SWAP2 SWAP1 PUSH2 0x68F8 JUMP JUMPDEST PUSH2 0x3927 SWAP2 SWAP1 PUSH2 0x68F8 JUMP JUMPDEST PUSH2 0x3931 SWAP2 SWAP1 PUSH2 0x68F8 JUMP JUMPDEST PUSH2 0x393B SWAP2 SWAP1 PUSH2 0x6756 JUMP JUMPDEST PUSH2 0x3945 SWAP2 SWAP1 PUSH2 0x6756 JUMP JUMPDEST PUSH1 0x1A SLOAD PUSH2 0x3952 SWAP2 SWAP1 PUSH2 0x6952 JUMP JUMPDEST PUSH1 0x1A DUP2 SWAP1 SSTORE POP PUSH2 0x39D2 JUMP JUMPDEST PUSH1 0x2E SLOAD DUP3 PUSH1 0x1E SLOAD PUSH1 0x2E SLOAD PUSH2 0x3971 SWAP2 SWAP1 PUSH2 0x6700 JUMP JUMPDEST PUSH1 0x1A SLOAD PUSH2 0x397E SWAP2 SWAP1 PUSH2 0x68F8 JUMP JUMPDEST PUSH2 0x3988 SWAP2 SWAP1 PUSH2 0x68F8 JUMP JUMPDEST PUSH2 0x3992 SWAP2 SWAP1 PUSH2 0x6756 JUMP JUMPDEST PUSH1 0x1A DUP2 SWAP1 SSTORE POP DUP1 DUP3 PUSH1 0x1A SLOAD PUSH1 0x1E SLOAD PUSH2 0x39AA SWAP2 SWAP1 PUSH2 0x68F8 JUMP JUMPDEST PUSH2 0x39B4 SWAP2 SWAP1 PUSH2 0x68F8 JUMP JUMPDEST PUSH2 0x39BE SWAP2 SWAP1 PUSH2 0x6756 JUMP JUMPDEST PUSH1 0x19 SLOAD PUSH2 0x39CB SWAP2 SWAP1 PUSH2 0x6952 JUMP JUMPDEST PUSH1 0x19 DUP2 SWAP1 SSTORE POP JUMPDEST DUP4 PUSH1 0x1E DUP2 SWAP1 SSTORE POP DUP3 PUSH1 0x20 PUSH1 0x0 PUSH2 0x100 EXP DUP2 SLOAD DUP2 PUSH1 0xFF MUL NOT AND SWAP1 DUP4 ISZERO ISZERO MUL OR SWAP1 SSTORE POP POP POP POP POP JUMP JUMPDEST PUSH1 0x0 PUSH1 0x1 PUSH1 0x2F SLOAD EQ PUSH2 0x3A40 JUMPI PUSH1 0x40 MLOAD PUSH32 0x8C379A000000000000000000000000000000000000000000000000000000000 DUP2 MSTORE PUSH1 0x4 ADD PUSH2 0x3A37 SWAP1 PUSH2 0x6644 JUMP JUMPDEST PUSH1 0x40 MLOAD DUP1 SWAP2 SUB SWAP1 REVERT JUMPDEST PUSH1 0x0 PUSH1 0x2F DUP2 SWAP1 SSTORE POP PUSH1 0x0 DUP4 SWAP1 POP PUSH1 0x0 PUSH1 0x1 SWAP1 POP JUMPDEST PUSH1 0x1 ISZERO ISZERO DUP2 ISZERO ISZERO EQ ISZERO PUSH2 0x3D73 JUMPI PUSH1 0x0 PUSH1 0x2E SLOAD PUSH1 0x18 SLOAD PUSH1 0x9 SLOAD PUSH2 0x3A76 SWAP2 SWAP1 PUSH2 0x68F8 JUMP JUMPDEST PUSH2 0x3A80 SWAP2 SWAP1 PUSH2 0x6756 JUMP JUMPDEST SWAP1 POP PUSH1 0x0 PUSH2 0x3A96 PUSH1 0x5 SLOAD PUSH1 0x6 SLOAD PUSH1 0x7 SLOAD DUP6 PUSH2 0x54A3 JUMP JUMPDEST SWAP1 POP PUSH2 0x3AA7 DUP3 PUSH1 0xB SLOAD PUSH1 0xE SLOAD PUSH2 0x55A3 JUMP JUMPDEST DUP5 GT ISZERO PUSH2 0x3C6C JUMPI PUSH1 0x0 PUSH2 0x3AC3 PUSH1 0x5 SLOAD PUSH1 0x6 SLOAD PUSH1 0x7 SLOAD DUP7 DUP7 PUSH2 0x55D8 JUMP JUMPDEST SWAP1 POP PUSH2 0x3AD4 PUSH1 0xC SLOAD DUP4 PUSH1 0xD SLOAD PUSH2 0x55A3 JUMP JUMPDEST DUP7 PUSH2 0x3ADF SWAP2 SWAP1 PUSH2 0x6700 JUMP JUMPDEST SWAP6 POP PUSH2 0x3AF0 DUP4 PUSH1 0xB SLOAD PUSH1 0xE SLOAD PUSH2 0x55A3 JUMP JUMPDEST DUP6 PUSH2 0x3AFB SWAP2 SWAP1 PUSH2 0x6952 JUMP JUMPDEST SWAP5 POP PUSH1 0x1 ISZERO ISZERO DUP8 ISZERO ISZERO EQ ISZERO PUSH2 0x3B36 JUMPI PUSH2 0x3B19 PUSH1 0xC SLOAD DUP4 PUSH1 0xD SLOAD PUSH2 0x55A3 JUMP JUMPDEST PUSH1 0xF PUSH1 0x0 DUP3 DUP3 SLOAD PUSH2 0x3B2A SWAP2 SWAP1 PUSH2 0x6700 JUMP JUMPDEST SWAP3 POP POP DUP2 SWAP1 SSTORE POP PUSH2 0x3B85 JUMP JUMPDEST PUSH2 0x3B45 DUP4 PUSH1 0xB SLOAD PUSH1 0xE SLOAD PUSH2 0x55A3 JUMP JUMPDEST PUSH1 0x14 PUSH1 0x0 DUP3 DUP3 SLOAD PUSH2 0x3B56 SWAP2 SWAP1 PUSH2 0x6700 JUMP JUMPDEST SWAP3 POP POP DUP2 SWAP1 SSTORE POP PUSH2 0x3B6C PUSH1 0xC SLOAD DUP4 PUSH1 0xD SLOAD PUSH2 0x55A3 JUMP JUMPDEST PUSH1 0x13 PUSH1 0x0 DUP3 DUP3 SLOAD PUSH2 0x3B7D SWAP2 SWAP1 PUSH2 0x6952 JUMP JUMPDEST SWAP3 POP POP DUP2 SWAP1 SSTORE POP JUMPDEST DUP2 PUSH1 0xA SLOAD PUSH1 0xD SLOAD PUSH2 0x3B96 SWAP2 SWAP1 PUSH2 0x68F8 JUMP JUMPDEST PUSH2 0x3BA0 SWAP2 SWAP1 PUSH2 0x6756 JUMP JUMPDEST PUSH1 0xD DUP2 SWAP1 SSTORE POP DUP3 PUSH1 0x9 SLOAD PUSH1 0xE SLOAD PUSH2 0x3BB7 SWAP2 SWAP1 PUSH2 0x68F8 JUMP JUMPDEST PUSH2 0x3BC1 SWAP2 SWAP1 PUSH2 0x6756 JUMP JUMPDEST PUSH1 0xE DUP2 SWAP1 SSTORE POP PUSH1 0xA SLOAD DUP4 PUSH1 0x9 SLOAD DUP5 DUP5 PUSH2 0x3BDA SWAP2 SWAP1 PUSH2 0x68F8 JUMP JUMPDEST PUSH2 0x3BE4 SWAP2 SWAP1 PUSH2 0x68F8 JUMP JUMPDEST PUSH2 0x3BEE SWAP2 SWAP1 PUSH2 0x6756 JUMP JUMPDEST PUSH2 0x3BF8 SWAP2 SWAP1 PUSH2 0x6756 JUMP JUMPDEST PUSH1 0x17 DUP2 SWAP1 SSTORE POP PUSH1 0x9 SLOAD PUSH1 0xB DUP2 SWAP1 SSTORE POP PUSH1 0xA SLOAD PUSH1 0xC DUP2 SWAP1 SSTORE POP PUSH2 0x3C24 PUSH1 0xB SLOAD PUSH1 0xC SLOAD PUSH1 0x7 SLOAD PUSH1 0x17 SLOAD PUSH2 0x56CC JUMP JUMPDEST PUSH1 0x5 DUP2 SWAP1 SSTORE POP PUSH1 0x5 SLOAD PUSH1 0x2E SLOAD PUSH1 0x2 PUSH2 0x3C3C SWAP2 SWAP1 PUSH2 0x68F8 JUMP JUMPDEST PUSH2 0x3C46 SWAP2 SWAP1 PUSH2 0x6952 JUMP JUMPDEST PUSH1 0x6 DUP2 SWAP1 SSTORE POP PUSH2 0x3C54 PUSH2 0x4227 JUMP JUMPDEST PUSH1 0x9 SLOAD PUSH1 0xB DUP2 SWAP1 SSTORE POP PUSH1 0xA SLOAD PUSH1 0xC DUP2 SWAP1 SSTORE POP POP PUSH2 0x3D6C JUMP JUMPDEST PUSH1 0xB SLOAD PUSH1 0x15 DUP2 SWAP1 SSTORE POP PUSH1 0xC SLOAD PUSH1 0x16 DUP2 SWAP1 SSTORE POP PUSH1 0x2E SLOAD PUSH1 0xE SLOAD DUP6 PUSH2 0x3C8F SWAP2 SWAP1 PUSH2 0x68F8 JUMP JUMPDEST PUSH2 0x3C99 SWAP2 SWAP1 PUSH2 0x6756 JUMP JUMPDEST PUSH1 0xB PUSH1 0x0 DUP3 DUP3 SLOAD PUSH2 0x3CAA SWAP2 SWAP1 PUSH2 0x6700 JUMP JUMPDEST SWAP3 POP POP DUP2 SWAP1 SSTORE POP PUSH2 0x3CC5 PUSH1 0x5 SLOAD PUSH1 0x6 SLOAD PUSH1 0x7 SLOAD PUSH1 0xB SLOAD PUSH2 0x54A3 JUMP JUMPDEST PUSH1 0xC DUP2 SWAP1 SSTORE POP PUSH2 0x3CDC PUSH1 0x16 SLOAD PUSH1 0xC SLOAD PUSH1 0xD SLOAD PUSH2 0x55A3 JUMP JUMPDEST DUP6 PUSH2 0x3CE7 SWAP2 SWAP1 PUSH2 0x6700 JUMP JUMPDEST SWAP5 POP PUSH1 0x1 ISZERO ISZERO DUP7 ISZERO ISZERO EQ ISZERO PUSH2 0x3D24 JUMPI PUSH2 0x3D07 PUSH1 0x16 SLOAD PUSH1 0xC SLOAD PUSH1 0xD SLOAD PUSH2 0x55A3 JUMP JUMPDEST PUSH1 0xF PUSH1 0x0 DUP3 DUP3 SLOAD PUSH2 0x3D18 SWAP2 SWAP1 PUSH2 0x6700 JUMP JUMPDEST SWAP3 POP POP DUP2 SWAP1 SSTORE POP PUSH2 0x3D67 JUMP JUMPDEST DUP4 PUSH1 0x14 PUSH1 0x0 DUP3 DUP3 SLOAD PUSH2 0x3D36 SWAP2 SWAP1 PUSH2 0x6700 JUMP JUMPDEST SWAP3 POP POP DUP2 SWAP1 SSTORE POP PUSH2 0x3D4E PUSH1 0x16 SLOAD PUSH1 0xC SLOAD PUSH1 0xD SLOAD PUSH2 0x55A3 JUMP JUMPDEST PUSH1 0x13 PUSH1 0x0 DUP3 DUP3 SLOAD PUSH2 0x3D5F SWAP2 SWAP1 PUSH2 0x6952 JUMP JUMPDEST SWAP3 POP POP DUP2 SWAP1 SSTORE POP JUMPDEST PUSH1 0x0 SWAP3 POP JUMPDEST POP POP PUSH2 0x3A54 JUMP JUMPDEST POP POP PUSH1 0x1 PUSH1 0x2F DUP2 SWAP1 SSTORE POP SWAP3 SWAP2 POP POP JUMP JUMPDEST PUSH1 0x0 PUSH1 0x1 PUSH1 0x2F SLOAD EQ PUSH2 0x3DCA JUMPI PUSH1 0x40 MLOAD PUSH32 0x8C379A000000000000000000000000000000000000000000000000000000000 DUP2 MSTORE PUSH1 0x4 ADD PUSH2 0x3DC1 SWAP1 PUSH2 0x6644 JUMP JUMPDEST PUSH1 0x40 MLOAD DUP1 SWAP2 SUB SWAP1 REVERT JUMPDEST PUSH1 0x0 PUSH1 0x2F DUP2 SWAP1 SSTORE POP PUSH1 0x0 DUP4 SWAP1 POP PUSH1 0x0 PUSH1 0x1 SWAP1 POP JUMPDEST PUSH1 0x1 ISZERO ISZERO DUP2 ISZERO ISZERO EQ ISZERO PUSH2 0x40FD JUMPI PUSH1 0x0 PUSH1 0x2E SLOAD PUSH1 0x18 SLOAD PUSH1 0x9 SLOAD PUSH2 0x3E00 SWAP2 SWAP1 PUSH2 0x68F8 JUMP JUMPDEST PUSH2 0x3E0A SWAP2 SWAP1 PUSH2 0x6756 JUMP JUMPDEST SWAP1 POP PUSH1 0x0 PUSH2 0x3E20 PUSH1 0x5 SLOAD PUSH1 0x6 SLOAD PUSH1 0x7 SLOAD DUP6 PUSH2 0x5806 JUMP JUMPDEST SWAP1 POP PUSH2 0x3E31 DUP3 PUSH1 0xC SLOAD PUSH1 0xD SLOAD PUSH2 0x55A3 JUMP JUMPDEST DUP5 GT ISZERO PUSH2 0x3FF6 JUMPI PUSH1 0x0 PUSH2 0x3E4D PUSH1 0x5 SLOAD PUSH1 0x6 SLOAD PUSH1 0x7 SLOAD DUP6 DUP8 PUSH2 0x55D8 JUMP JUMPDEST SWAP1 POP PUSH2 0x3E5E PUSH1 0xB SLOAD DUP4 PUSH1 0xE SLOAD PUSH2 0x55A3 JUMP JUMPDEST DUP7 PUSH2 0x3E69 SWAP2 SWAP1 PUSH2 0x6700 JUMP JUMPDEST SWAP6 POP PUSH2 0x3E7A DUP4 PUSH1 0xC SLOAD PUSH1 0xD SLOAD PUSH2 0x55A3 JUMP JUMPDEST DUP6 PUSH2 0x3E85 SWAP2 SWAP1 PUSH2 0x6952 JUMP JUMPDEST SWAP5 POP PUSH1 0x1 ISZERO ISZERO DUP8 ISZERO ISZERO EQ ISZERO PUSH2 0x3EC0 JUMPI PUSH2 0x3EA3 PUSH1 0xB SLOAD DUP4 PUSH1 0xE SLOAD PUSH2 0x55A3 JUMP JUMPDEST PUSH1 0x10 PUSH1 0x0 DUP3 DUP3 SLOAD PUSH2 0x3EB4 SWAP2 SWAP1 PUSH2 0x6700 JUMP JUMPDEST SWAP3 POP POP DUP2 SWAP1 SSTORE POP PUSH2 0x3F0F JUMP JUMPDEST PUSH2 0x3ECF PUSH1 0xB SLOAD DUP4 PUSH1 0xE SLOAD PUSH2 0x55A3 JUMP JUMPDEST PUSH1 0x14 PUSH1 0x0 DUP3 DUP3 SLOAD PUSH2 0x3EE0 SWAP2 SWAP1 PUSH2 0x6952 JUMP JUMPDEST SWAP3 POP POP DUP2 SWAP1 SSTORE POP PUSH2 0x3EF6 DUP4 PUSH1 0xC SLOAD PUSH1 0xD SLOAD PUSH2 0x55A3 JUMP JUMPDEST PUSH1 0x13 PUSH1 0x0 DUP3 DUP3 SLOAD PUSH2 0x3F07 SWAP2 SWAP1 PUSH2 0x6700 JUMP JUMPDEST SWAP3 POP POP DUP2 SWAP1 SSTORE POP JUMPDEST DUP3 PUSH1 0xA SLOAD PUSH1 0xD SLOAD PUSH2 0x3F20 SWAP2 SWAP1 PUSH2 0x68F8 JUMP JUMPDEST PUSH2 0x3F2A SWAP2 SWAP1 PUSH2 0x6756 JUMP JUMPDEST PUSH1 0xD DUP2 SWAP1 SSTORE POP DUP2 PUSH1 0x9 SLOAD PUSH1 0xE SLOAD PUSH2 0x3F41 SWAP2 SWAP1 PUSH2 0x68F8 JUMP JUMPDEST PUSH2 0x3F4B SWAP2 SWAP1 PUSH2 0x6756 JUMP JUMPDEST PUSH1 0xE DUP2 SWAP1 SSTORE POP PUSH1 0xA SLOAD DUP3 PUSH1 0x9 SLOAD DUP6 DUP5 PUSH2 0x3F64 SWAP2 SWAP1 PUSH2 0x68F8 JUMP JUMPDEST PUSH2 0x3F6E SWAP2 SWAP1 PUSH2 0x68F8 JUMP JUMPDEST PUSH2 0x3F78 SWAP2 SWAP1 PUSH2 0x6756 JUMP JUMPDEST PUSH2 0x3F82 SWAP2 SWAP1 PUSH2 0x6756 JUMP JUMPDEST PUSH1 0x17 DUP2 SWAP1 SSTORE POP PUSH1 0x9 SLOAD PUSH1 0xB DUP2 SWAP1 SSTORE POP PUSH1 0xA SLOAD PUSH1 0xC DUP2 SWAP1 SSTORE POP PUSH2 0x3FAE PUSH1 0xB SLOAD PUSH1 0xC SLOAD PUSH1 0x7 SLOAD PUSH1 0x17 SLOAD PUSH2 0x56CC JUMP JUMPDEST PUSH1 0x5 DUP2 SWAP1 SSTORE POP PUSH1 0x5 SLOAD PUSH1 0x2E SLOAD PUSH1 0x2 PUSH2 0x3FC6 SWAP2 SWAP1 PUSH2 0x68F8 JUMP JUMPDEST PUSH2 0x3FD0 SWAP2 SWAP1 PUSH2 0x6952 JUMP JUMPDEST PUSH1 0x6 DUP2 SWAP1 SSTORE POP PUSH2 0x3FDE PUSH2 0x4227 JUMP JUMPDEST PUSH1 0x9 SLOAD PUSH1 0xB DUP2 SWAP1 SSTORE POP PUSH1 0xA SLOAD PUSH1 0xC DUP2 SWAP1 SSTORE POP POP PUSH2 0x40F6 JUMP JUMPDEST PUSH1 0xB SLOAD PUSH1 0x15 DUP2 SWAP1 SSTORE POP PUSH1 0xC SLOAD PUSH1 0x16 DUP2 SWAP1 SSTORE POP PUSH1 0x2E SLOAD PUSH1 0xD SLOAD DUP6 PUSH2 0x4019 SWAP2 SWAP1 PUSH2 0x68F8 JUMP JUMPDEST PUSH2 0x4023 SWAP2 SWAP1 PUSH2 0x6756 JUMP JUMPDEST PUSH1 0xC PUSH1 0x0 DUP3 DUP3 SLOAD PUSH2 0x4034 SWAP2 SWAP1 PUSH2 0x6700 JUMP JUMPDEST SWAP3 POP POP DUP2 SWAP1 SSTORE POP PUSH2 0x404F PUSH1 0x5 SLOAD PUSH1 0x6 SLOAD PUSH1 0x7 SLOAD PUSH1 0xC SLOAD PUSH2 0x5806 JUMP JUMPDEST PUSH1 0xB DUP2 SWAP1 SSTORE POP PUSH2 0x4066 PUSH1 0x15 SLOAD PUSH1 0xB SLOAD PUSH1 0xE SLOAD PUSH2 0x55A3 JUMP JUMPDEST DUP6 PUSH2 0x4071 SWAP2 SWAP1 PUSH2 0x6700 JUMP JUMPDEST SWAP5 POP PUSH1 0x1 ISZERO ISZERO DUP7 ISZERO ISZERO EQ ISZERO PUSH2 0x40AE JUMPI PUSH2 0x4091 PUSH1 0x15 SLOAD PUSH1 0xB SLOAD PUSH1 0xE SLOAD PUSH2 0x55A3 JUMP JUMPDEST PUSH1 0x10 PUSH1 0x0 DUP3 DUP3 SLOAD PUSH2 0x40A2 SWAP2 SWAP1 PUSH2 0x6700 JUMP JUMPDEST SWAP3 POP POP DUP2 SWAP1 SSTORE POP PUSH2 0x40F1 JUMP JUMPDEST DUP4 PUSH1 0x13 PUSH1 0x0 DUP3 DUP3 SLOAD PUSH2 0x40C0 SWAP2 SWAP1 PUSH2 0x6700 JUMP JUMPDEST SWAP3 POP POP DUP2 SWAP1 SSTORE POP PUSH2 0x40D8 PUSH1 0x15 SLOAD PUSH1 0xB SLOAD PUSH1 0xE SLOAD PUSH2 0x55A3 JUMP JUMPDEST PUSH1 0x14 PUSH1 0x0 DUP3 DUP3 SLOAD PUSH2 0x40E9 SWAP2 SWAP1 PUSH2 0x6952 JUMP JUMPDEST SWAP3 POP POP DUP2 SWAP1 SSTORE POP JUMPDEST PUSH1 0x0 SWAP3 POP JUMPDEST POP POP PUSH2 0x3DDE JUMP JUMPDEST POP POP PUSH1 0x1 PUSH1 0x2F DUP2 SWAP1 SSTORE POP SWAP3 SWAP2 POP POP JUMP JUMPDEST PUSH2 0x4122 DUP2 PUSH1 0x0 SLOAD PUSH2 0x5264 SWAP1 SWAP2 SWAP1 PUSH4 0xFFFFFFFF AND JUMP JUMPDEST PUSH1 0x0 DUP2 SWAP1 SSTORE POP PUSH2 0x417A DUP2 PUSH1 0x1 PUSH1 0x0 DUP6 PUSH20 0xFFFFFFFFFFFFFFFFFFFFFFFFFFFFFFFFFFFFFFFF AND PUSH20 0xFFFFFFFFFFFFFFFFFFFFFFFFFFFFFFFFFFFFFFFF AND DUP2 MSTORE PUSH1 0x20 ADD SWAP1 DUP2 MSTORE PUSH1 0x20 ADD PUSH1 0x0 KECCAK256 SLOAD PUSH2 0x5264 SWAP1 SWAP2 SWAP1 PUSH4 0xFFFFFFFF AND JUMP JUMPDEST PUSH1 0x1 PUSH1 0x0 DUP5 PUSH20 0xFFFFFFFFFFFFFFFFFFFFFFFFFFFFFFFFFFFFFFFF AND PUSH20 0xFFFFFFFFFFFFFFFFFFFFFFFFFFFFFFFFFFFFFFFF AND DUP2 MSTORE PUSH1 0x20 ADD SWAP1 DUP2 MSTORE PUSH1 0x20 ADD PUSH1 0x0 KECCAK256 DUP2 SWAP1 SSTORE POP DUP2 PUSH20 0xFFFFFFFFFFFFFFFFFFFFFFFFFFFFFFFFFFFFFFFF AND PUSH1 0x0 PUSH20 0xFFFFFFFFFFFFFFFFFFFFFFFFFFFFFFFFFFFFFFFF AND PUSH32 0xDDF252AD1BE2C89B69C2B068FC378DAA952BA7F163C4A11628F55A4DF523B3EF DUP4 PUSH1 0x40 MLOAD PUSH2 0x421B SWAP2 SWAP1 PUSH2 0x6664 JUMP JUMPDEST PUSH1 0x40 MLOAD DUP1 SWAP2 SUB SWAP1 LOG3 POP POP JUMP JUMPDEST PUSH2 0x431C PUSH1 0x11 SLOAD PUSH1 0x12 SLOAD PUSH1 0x11 SLOAD PUSH1 0x6 SLOAD PUSH1 0xD SLOAD PUSH2 0x4243 SWAP2 SWAP1 PUSH2 0x68F8 JUMP JUMPDEST PUSH2 0x424D SWAP2 SWAP1 PUSH2 0x68F8 JUMP JUMPDEST PUSH1 0xE SLOAD PUSH1 0x5 SLOAD PUSH1 0x12 SLOAD PUSH2 0x4260 SWAP2 SWAP1 PUSH2 0x68F8 JUMP JUMPDEST PUSH2 0x426A SWAP2 SWAP1 PUSH2 0x68F8 JUMP JUMPDEST PUSH2 0x4274 SWAP2 SWAP1 PUSH2 0x6700 JUMP JUMPDEST PUSH1 0x2E SLOAD PUSH1 0x2E SLOAD PUSH1 0x2E SLOAD PUSH1 0x13 SLOAD PUSH1 0x14 SLOAD PUSH1 0x13 SLOAD PUSH1 0x6 SLOAD PUSH1 0xD SLOAD PUSH2 0x4296 SWAP2 SWAP1 PUSH2 0x68F8 JUMP JUMPDEST PUSH2 0x42A0 SWAP2 SWAP1 PUSH2 0x68F8 JUMP JUMPDEST PUSH1 0xE SLOAD PUSH1 0x5 SLOAD PUSH1 0x14 SLOAD PUSH2 0x42B3 SWAP2 SWAP1 PUSH2 0x68F8 JUMP JUMPDEST PUSH2 0x42BD SWAP2 SWAP1 PUSH2 0x68F8 JUMP JUMPDEST PUSH2 0x42C7 SWAP2 SWAP1 PUSH2 0x6700 JUMP JUMPDEST PUSH2 0x42D1 SWAP2 SWAP1 PUSH2 0x68F8 JUMP JUMPDEST PUSH2 0x42DB SWAP2 SWAP1 PUSH2 0x68F8 JUMP JUMPDEST PUSH2 0x42E5 SWAP2 SWAP1 PUSH2 0x68F8 JUMP JUMPDEST PUSH2 0x42EF SWAP2 SWAP1 PUSH2 0x68F8 JUMP JUMPDEST PUSH2 0x42F9 SWAP2 SWAP1 PUSH2 0x68F8 JUMP JUMPDEST PUSH2 0x4303 SWAP2 SWAP1 PUSH2 0x6756 JUMP JUMPDEST PUSH2 0x430D SWAP2 SWAP1 PUSH2 0x6756 JUMP JUMPDEST PUSH2 0x4317 SWAP2 SWAP1 PUSH2 0x6756 JUMP JUMPDEST PUSH2 0x5906 JUMP JUMPDEST PUSH1 0x24 DUP2 SWAP1 SSTORE POP PUSH1 0x0 PUSH1 0x25 SLOAD PUSH1 0x26 SLOAD PUSH1 0xE SLOAD PUSH1 0x2E SLOAD PUSH1 0x2E SLOAD PUSH1 0x24 SLOAD PUSH1 0xB SLOAD PUSH2 0x4343 SWAP2 SWAP1 PUSH2 0x68F8 JUMP JUMPDEST PUSH2 0x434D SWAP2 SWAP1 PUSH2 0x68F8 JUMP JUMPDEST PUSH2 0x4357 SWAP2 SWAP1 PUSH2 0x68F8 JUMP JUMPDEST PUSH2 0x4361 SWAP2 SWAP1 PUSH2 0x6756 JUMP JUMPDEST PUSH2 0x436B SWAP2 SWAP1 PUSH2 0x6756 JUMP JUMPDEST PUSH2 0x4375 SWAP2 SWAP1 PUSH2 0x6756 JUMP JUMPDEST SWAP1 POP PUSH1 0x0 PUSH1 0x25 SLOAD PUSH1 0x26 SLOAD PUSH1 0xE SLOAD PUSH1 0x2E SLOAD PUSH1 0x2E SLOAD PUSH1 0x24 SLOAD PUSH1 0xC SLOAD PUSH2 0x4398 SWAP2 SWAP1 PUSH2 0x68F8 JUMP JUMPDEST PUSH2 0x43A2 SWAP2 SWAP1 PUSH2 0x68F8 JUMP JUMPDEST PUSH2 0x43AC SWAP2 SWAP1 PUSH2 0x68F8 JUMP JUMPDEST PUSH2 0x43B6 SWAP2 SWAP1 PUSH2 0x6756 JUMP JUMPDEST PUSH2 0x43C0 SWAP2 SWAP1 PUSH2 0x6756 JUMP JUMPDEST PUSH2 0x43CA SWAP2 SWAP1 PUSH2 0x6756 JUMP JUMPDEST SWAP1 POP PUSH2 0x4423 PUSH1 0x1D SLOAD DUP4 PUSH1 0x2E SLOAD PUSH1 0x10 SLOAD DUP7 PUSH2 0x43E4 SWAP2 SWAP1 PUSH2 0x6700 JUMP JUMPDEST PUSH2 0x43EE SWAP2 SWAP1 PUSH2 0x68F8 JUMP JUMPDEST PUSH2 0x43F8 SWAP2 SWAP1 PUSH2 0x6756 JUMP JUMPDEST DUP4 PUSH1 0x2E SLOAD PUSH1 0xF SLOAD DUP7 PUSH2 0x440A SWAP2 SWAP1 PUSH2 0x6700 JUMP JUMPDEST PUSH2 0x4414 SWAP2 SWAP1 PUSH2 0x68F8 JUMP JUMPDEST PUSH2 0x441E SWAP2 SWAP1 PUSH2 0x6756 JUMP JUMPDEST PUSH2 0x5997 JUMP JUMPDEST PUSH1 0x23 DUP2 SWAP1 SSTORE POP PUSH1 0x2E SLOAD PUSH1 0x2E SLOAD PUSH1 0x24 SLOAD PUSH1 0x23 SLOAD PUSH1 0x8 SLOAD PUSH2 0x4442 SWAP2 SWAP1 PUSH2 0x68F8 JUMP JUMPDEST PUSH2 0x444C SWAP2 SWAP1 PUSH2 0x68F8 JUMP JUMPDEST PUSH2 0x4456 SWAP2 SWAP1 PUSH2 0x6756 JUMP JUMPDEST PUSH2 0x4460 SWAP2 SWAP1 PUSH2 0x6756 JUMP JUMPDEST PUSH1 0x7 DUP2 SWAP1 SSTORE POP PUSH1 0x2 PUSH1 0x7 SLOAD PUSH2 0x4475 SWAP2 SWAP1 PUSH2 0x6756 JUMP JUMPDEST PUSH1 0x9 DUP2 SWAP1 SSTORE POP PUSH1 0x9 SLOAD PUSH1 0xA DUP2 SWAP1 SSTORE POP PUSH1 0x24 SLOAD PUSH1 0x26 DUP2 SWAP1 SSTORE POP PUSH1 0x23 SLOAD PUSH1 0x25 DUP2 SWAP1 SSTORE POP POP POP JUMP JUMPDEST PUSH2 0x44EC DUP2 PUSH1 0x1 PUSH1 0x0 DUP6 PUSH20 0xFFFFFFFFFFFFFFFFFFFFFFFFFFFFFFFFFFFFFFFF AND PUSH20 0xFFFFFFFFFFFFFFFFFFFFFFFFFFFFFFFFFFFFFFFF AND DUP2 MSTORE PUSH1 0x20 ADD SWAP1 DUP2 MSTORE PUSH1 0x20 ADD PUSH1 0x0 KECCAK256 SLOAD PUSH2 0x3678 SWAP1 SWAP2 SWAP1 PUSH4 0xFFFFFFFF AND JUMP JUMPDEST PUSH1 0x1 PUSH1 0x0 DUP5 PUSH20 0xFFFFFFFFFFFFFFFFFFFFFFFFFFFFFFFFFFFFFFFF AND PUSH20 0xFFFFFFFFFFFFFFFFFFFFFFFFFFFFFFFFFFFFFFFF AND DUP2 MSTORE PUSH1 0x20 ADD SWAP1 DUP2 MSTORE PUSH1 0x20 ADD PUSH1 0x0 KECCAK256 DUP2 SWAP1 SSTORE POP PUSH2 0x4544 DUP2 PUSH1 0x0 SLOAD PUSH2 0x3678 SWAP1 SWAP2 SWAP1 PUSH4 0xFFFFFFFF AND JUMP JUMPDEST PUSH1 0x0 DUP2 SWAP1 SSTORE POP PUSH1 0x0 PUSH20 0xFFFFFFFFFFFFFFFFFFFFFFFFFFFFFFFFFFFFFFFF AND DUP3 PUSH20 0xFFFFFFFFFFFFFFFFFFFFFFFFFFFFFFFFFFFFFFFF AND PUSH32 0xDDF252AD1BE2C89B69C2B068FC378DAA952BA7F163C4A11628F55A4DF523B3EF DUP4 PUSH1 0x40 MLOAD PUSH2 0x45A8 SWAP2 SWAP1 PUSH2 0x6664 JUMP JUMPDEST PUSH1 0x40 MLOAD DUP1 SWAP2 SUB SWAP1 LOG3 POP POP JUMP JUMPDEST PUSH1 0x0 DUP1 DUP5 PUSH20 0xFFFFFFFFFFFFFFFFFFFFFFFFFFFFFFFFFFFFFFFF AND PUSH1 0x40 MLOAD DUP1 PUSH1 0x40 ADD PUSH1 0x40 MSTORE DUP1 PUSH1 0x19 DUP2 MSTORE PUSH1 0x20 ADD PUSH32 0x7472616E7366657228616464726573732C75696E743235362900000000000000 DUP2 MSTORE POP DUP1 MLOAD SWAP1 PUSH1 0x20 ADD KECCAK256 DUP6 DUP6 PUSH1 0x40 MLOAD PUSH1 0x24 ADD PUSH2 0x461E SWAP3 SWAP2 SWAP1 PUSH2 0x63BD JUMP JUMPDEST PUSH1 0x40 MLOAD PUSH1 0x20 DUP2 DUP4 SUB SUB DUP2 MSTORE SWAP1 PUSH1 0x40 MSTORE SWAP1 PUSH28 0xFFFFFFFFFFFFFFFFFFFFFFFFFFFFFFFFFFFFFFFFFFFFFFFFFFFFFFFF NOT AND PUSH1 0x20 DUP3 ADD DUP1 MLOAD PUSH28 0xFFFFFFFFFFFFFFFFFFFFFFFFFFFFFFFFFFFFFFFFFFFFFFFFFFFFFFFF DUP4 DUP2 DUP4 AND OR DUP4 MSTORE POP POP POP POP PUSH1 0x40 MLOAD PUSH2 0x4688 SWAP2 SWAP1 PUSH2 0x630F JUMP JUMPDEST PUSH1 0x0 PUSH1 0x40 MLOAD DUP1 DUP4 SUB DUP2 PUSH1 0x0 DUP7 GAS CALL SWAP2 POP POP RETURNDATASIZE DUP1 PUSH1 0x0 DUP2 EQ PUSH2 0x46C5 JUMPI PUSH1 0x40 MLOAD SWAP2 POP PUSH1 0x1F NOT PUSH1 0x3F RETURNDATASIZE ADD AND DUP3 ADD PUSH1 0x40 MSTORE RETURNDATASIZE DUP3 MSTORE RETURNDATASIZE PUSH1 0x0 PUSH1 0x20 DUP5 ADD RETURNDATACOPY PUSH2 0x46CA JUMP JUMPDEST PUSH1 0x60 SWAP2 POP JUMPDEST POP SWAP2 POP SWAP2 POP DUP2 DUP1 ISZERO PUSH2 0x46F8 JUMPI POP PUSH1 0x0 DUP2 MLOAD EQ DUP1 PUSH2 0x46F7 JUMPI POP DUP1 DUP1 PUSH1 0x20 ADD SWAP1 MLOAD DUP2 ADD SWAP1 PUSH2 0x46F6 SWAP2 SWAP1 PUSH2 0x5EA8 JUMP JUMPDEST JUMPDEST JUMPDEST PUSH2 0x4737 JUMPI PUSH1 0x40 MLOAD PUSH32 0x8C379A000000000000000000000000000000000000000000000000000000000 DUP2 MSTORE PUSH1 0x4 ADD PUSH2 0x472E SWAP1 PUSH2 0x6604 JUMP JUMPDEST PUSH1 0x40 MLOAD DUP1 SWAP2 SUB SWAP1 REVERT JUMPDEST POP POP POP POP POP JUMP JUMPDEST PUSH1 0x0 PUSH2 0x476B PUSH1 0x29 PUSH1 0x0 SWAP1 SLOAD SWAP1 PUSH2 0x100 EXP SWAP1 DIV PUSH20 0xFFFFFFFFFFFFFFFFFFFFFFFFFFFFFFFFFFFFFFFF AND PUSH2 0x486C JUMP JUMPDEST PUSH1 0x31 PUSH1 0x0 DUP5 PUSH20 0xFFFFFFFFFFFFFFFFFFFFFFFFFFFFFFFFFFFFFFFF AND PUSH20 0xFFFFFFFFFFFFFFFFFFFFFFFFFFFFFFFFFFFFFFFF AND DUP2 MSTORE PUSH1 0x20 ADD SWAP1 DUP2 MSTORE PUSH1 0x20 ADD PUSH1 0x0 KECCAK256 PUSH1 0x0 PUSH1 0x1 ISZERO ISZERO ISZERO ISZERO DUP2 MSTORE PUSH1 0x20 ADD SWAP1 DUP2 MSTORE PUSH1 0x20 ADD PUSH1 0x0 KECCAK256 PUSH1 0x2 ADD SLOAD PUSH2 0x47CE SWAP2 SWAP1 PUSH2 0x68F8 JUMP JUMPDEST PUSH2 0x47F9 PUSH1 0x28 PUSH1 0x0 SWAP1 SLOAD SWAP1 PUSH2 0x100 EXP SWAP1 DIV PUSH20 0xFFFFFFFFFFFFFFFFFFFFFFFFFFFFFFFFFFFFFFFF AND PUSH2 0x486C JUMP JUMPDEST PUSH1 0x31 PUSH1 0x0 DUP6 PUSH20 0xFFFFFFFFFFFFFFFFFFFFFFFFFFFFFFFFFFFFFFFF AND PUSH20 0xFFFFFFFFFFFFFFFFFFFFFFFFFFFFFFFFFFFFFFFF AND DUP2 MSTORE PUSH1 0x20 ADD SWAP1 DUP2 MSTORE PUSH1 0x20 ADD PUSH1 0x0 KECCAK256 PUSH1 0x0 DUP1 ISZERO ISZERO ISZERO ISZERO DUP2 MSTORE PUSH1 0x20 ADD SWAP1 DUP2 MSTORE PUSH1 0x20 ADD PUSH1 0x0 KECCAK256 PUSH1 0x2 ADD SLOAD PUSH2 0x485B SWAP2 SWAP1 PUSH2 0x68F8 JUMP JUMPDEST PUSH2 0x4865 SWAP2 SWAP1 PUSH2 0x6700 JUMP JUMPDEST SWAP1 POP SWAP2 SWAP1 POP JUMP JUMPDEST PUSH1 0x0 SWAP2 SWAP1 POP JUMP JUMPDEST PUSH1 0x0 DUP2 DUP4 GT PUSH2 0x4882 JUMPI DUP2 PUSH2 0x4884 JUMP JUMPDEST DUP3 JUMPDEST SWAP1 POP SWAP3 SWAP2 POP POP JUMP JUMPDEST PUSH1 0x0 PUSH8 0xDE0B6B3A7640000 PUSH2 0x48C2 PUSH1 0x28 PUSH1 0x0 SWAP1 SLOAD SWAP1 PUSH2 0x100 EXP SWAP1 DIV PUSH20 0xFFFFFFFFFFFFFFFFFFFFFFFFFFFFFFFFFFFFFFFF AND PUSH2 0x486C JUMP JUMPDEST PUSH1 0x1B SLOAD PUSH1 0x19 SLOAD PUSH1 0x31 PUSH1 0x0 DUP8 PUSH20 0xFFFFFFFFFFFFFFFFFFFFFFFFFFFFFFFFFFFFFFFF AND PUSH20 0xFFFFFFFFFFFFFFFFFFFFFFFFFFFFFFFFFFFFFFFF AND DUP2 MSTORE PUSH1 0x20 ADD SWAP1 DUP2 MSTORE PUSH1 0x20 ADD PUSH1 0x0 KECCAK256 PUSH1 0x0 DUP1 ISZERO ISZERO ISZERO ISZERO DUP2 MSTORE PUSH1 0x20 ADD SWAP1 DUP2 MSTORE PUSH1 0x20 ADD PUSH1 0x0 KECCAK256 PUSH1 0x1 ADD SLOAD PUSH2 0x492A SWAP2 SWAP1 PUSH2 0x68F8 JUMP JUMPDEST PUSH2 0x4934 SWAP2 SWAP1 PUSH2 0x6756 JUMP JUMPDEST PUSH2 0x493E SWAP2 SWAP1 PUSH2 0x68F8 JUMP JUMPDEST PUSH2 0x4948 SWAP2 SWAP1 PUSH2 0x6756 JUMP JUMPDEST PUSH8 0xDE0B6B3A7640000 PUSH2 0x497C PUSH1 0x29 PUSH1 0x0 SWAP1 SLOAD SWAP1 PUSH2 0x100 EXP SWAP1 DIV PUSH20 0xFFFFFFFFFFFFFFFFFFFFFFFFFFFFFFFFFFFFFFFF AND PUSH2 0x486C JUMP JUMPDEST PUSH1 0x1C SLOAD PUSH1 0x1A SLOAD PUSH1 0x31 PUSH1 0x0 DUP9 PUSH20 0xFFFFFFFFFFFFFFFFFFFFFFFFFFFFFFFFFFFFFFFF AND PUSH20 0xFFFFFFFFFFFFFFFFFFFFFFFFFFFFFFFFFFFFFFFF AND DUP2 MSTORE PUSH1 0x20 ADD SWAP1 DUP2 MSTORE PUSH1 0x20 ADD PUSH1 0x0 KECCAK256 PUSH1 0x0 PUSH1 0x1 ISZERO ISZERO ISZERO ISZERO DUP2 MSTORE PUSH1 0x20 ADD SWAP1 DUP2 MSTORE PUSH1 0x20 ADD PUSH1 0x0 KECCAK256 PUSH1 0x1 ADD SLOAD PUSH2 0x49E5 SWAP2 SWAP1 PUSH2 0x68F8 JUMP JUMPDEST PUSH2 0x49EF SWAP2 SWAP1 PUSH2 0x6756 JUMP JUMPDEST PUSH2 0x49F9 SWAP2 SWAP1 PUSH2 0x68F8 JUMP JUMPDEST PUSH2 0x4A03 SWAP2 SWAP1 PUSH2 0x6756 JUMP JUMPDEST PUSH2 0x4A0D SWAP2 SWAP1 PUSH2 0x6700 JUMP JUMPDEST SWAP1 POP SWAP2 SWAP1 POP JUMP JUMPDEST PUSH1 0x0 DUP1 PUSH1 0x32 PUSH1 0x0 DUP5 PUSH20 0xFFFFFFFFFFFFFFFFFFFFFFFFFFFFFFFFFFFFFFFF AND PUSH20 0xFFFFFFFFFFFFFFFFFFFFFFFFFFFFFFFFFFFFFFFF AND DUP2 MSTORE PUSH1 0x20 ADD SWAP1 DUP2 MSTORE PUSH1 0x20 ADD PUSH1 0x0 KECCAK256 DUP1 SLOAD DUP1 PUSH1 0x20 MUL PUSH1 0x20 ADD PUSH1 0x40 MLOAD SWAP1 DUP2 ADD PUSH1 0x40 MSTORE DUP1 SWAP3 SWAP2 SWAP1 DUP2 DUP2 MSTORE PUSH1 0x20 ADD DUP3 DUP1 SLOAD DUP1 ISZERO PUSH2 0x4AA0 JUMPI PUSH1 0x20 MUL DUP3 ADD SWAP2 SWAP1 PUSH1 0x0 MSTORE PUSH1 0x20 PUSH1 0x0 KECCAK256 SWAP1 JUMPDEST DUP2 SLOAD DUP2 MSTORE PUSH1 0x20 ADD SWAP1 PUSH1 0x1 ADD SWAP1 DUP1 DUP4 GT PUSH2 0x4A8C JUMPI JUMPDEST POP POP POP POP POP SWAP1 POP PUSH1 0x0 PUSH2 0x4AB1 PUSH2 0x59C2 JUMP JUMPDEST SWAP1 POP PUSH1 0x0 DUP3 MLOAD SWAP1 POP PUSH1 0x0 JUMPDEST DUP2 DUP2 LT ISZERO PUSH2 0x4B31 JUMPI PUSH1 0x2E SLOAD DUP4 DUP3 DUP2 MLOAD DUP2 LT PUSH2 0x4ADA JUMPI PUSH2 0x4AD9 PUSH2 0x6AC9 JUMP JUMPDEST JUMPDEST PUSH1 0x20 MUL PUSH1 0x20 ADD ADD MLOAD DUP6 DUP4 DUP2 MLOAD DUP2 LT PUSH2 0x4AF5 JUMPI PUSH2 0x4AF4 PUSH2 0x6AC9 JUMP JUMPDEST JUMPDEST PUSH1 0x20 MUL PUSH1 0x20 ADD ADD MLOAD PUSH2 0x4B07 SWAP2 SWAP1 PUSH2 0x68F8 JUMP JUMPDEST PUSH2 0x4B11 SWAP2 SWAP1 PUSH2 0x6756 JUMP JUMPDEST DUP6 PUSH2 0x4B1C SWAP2 SWAP1 PUSH2 0x6700 JUMP JUMPDEST SWAP5 POP DUP1 DUP1 PUSH2 0x4B29 SWAP1 PUSH2 0x6A18 JUMP JUMPDEST SWAP2 POP POP PUSH2 0x4ABC JUMP JUMPDEST POP POP POP POP SWAP2 SWAP1 POP JUMP JUMPDEST PUSH1 0x0 PUSH1 0x1 PUSH1 0x2F SLOAD EQ PUSH2 0x4B81 JUMPI PUSH1 0x40 MLOAD PUSH32 0x8C379A000000000000000000000000000000000000000000000000000000000 DUP2 MSTORE PUSH1 0x4 ADD PUSH2 0x4B78 SWAP1 PUSH2 0x6644 JUMP JUMPDEST PUSH1 0x40 MLOAD DUP1 SWAP2 SUB SWAP1 REVERT JUMPDEST PUSH1 0x0 PUSH1 0x2F DUP2 SWAP1 SSTORE POP PUSH1 0x0 DUP5 SWAP1 POP PUSH1 0x0 PUSH1 0x1 SWAP1 POP JUMPDEST PUSH1 0x1 ISZERO ISZERO DUP2 ISZERO ISZERO EQ ISZERO PUSH2 0x4EA4 JUMPI PUSH1 0x0 PUSH1 0x2E SLOAD PUSH1 0x18 SLOAD PUSH1 0x9 SLOAD PUSH2 0x4BB7 SWAP2 SWAP1 PUSH2 0x68F8 JUMP JUMPDEST PUSH2 0x4BC1 SWAP2 SWAP1 PUSH2 0x6756 JUMP JUMPDEST SWAP1 POP PUSH1 0x0 PUSH2 0x4BD7 PUSH1 0x5 SLOAD PUSH1 0x6 SLOAD PUSH1 0x7 SLOAD DUP6 PUSH2 0x54A3 JUMP JUMPDEST SWAP1 POP PUSH2 0x4BE8 PUSH1 0xC SLOAD DUP3 PUSH1 0xD SLOAD PUSH2 0x55A3 JUMP JUMPDEST DUP5 GT ISZERO PUSH2 0x4DAD JUMPI PUSH1 0x0 PUSH2 0x4C04 PUSH1 0x5 SLOAD PUSH1 0x6 SLOAD PUSH1 0x7 SLOAD DUP7 DUP7 PUSH2 0x55D8 JUMP JUMPDEST SWAP1 POP PUSH2 0x4C15 DUP4 PUSH1 0xB SLOAD PUSH1 0xE SLOAD PUSH2 0x55A3 JUMP JUMPDEST DUP7 PUSH2 0x4C20 SWAP2 SWAP1 PUSH2 0x6700 JUMP JUMPDEST SWAP6 POP PUSH2 0x4C31 PUSH1 0xC SLOAD DUP4 PUSH1 0xD SLOAD PUSH2 0x55A3 JUMP JUMPDEST DUP6 PUSH2 0x4C3C SWAP2 SWAP1 PUSH2 0x6952 JUMP JUMPDEST SWAP5 POP PUSH1 0x1 ISZERO ISZERO DUP8 ISZERO ISZERO EQ ISZERO PUSH2 0x4C77 JUMPI PUSH2 0x4C5A PUSH1 0xC SLOAD DUP4 PUSH1 0xD SLOAD PUSH2 0x55A3 JUMP JUMPDEST PUSH1 0xF PUSH1 0x0 DUP3 DUP3 SLOAD PUSH2 0x4C6B SWAP2 SWAP1 PUSH2 0x6700 JUMP JUMPDEST SWAP3 POP POP DUP2 SWAP1 SSTORE POP PUSH2 0x4CC6 JUMP JUMPDEST PUSH2 0x4C86 DUP4 PUSH1 0xB SLOAD PUSH1 0xE SLOAD PUSH2 0x55A3 JUMP JUMPDEST PUSH1 0x14 PUSH1 0x0 DUP3 DUP3 SLOAD PUSH2 0x4C97 SWAP2 SWAP1 PUSH2 0x6700 JUMP JUMPDEST SWAP3 POP POP DUP2 SWAP1 SSTORE POP PUSH2 0x4CAD PUSH1 0xC SLOAD DUP4 PUSH1 0xD SLOAD PUSH2 0x55A3 JUMP JUMPDEST PUSH1 0x13 PUSH1 0x0 DUP3 DUP3 SLOAD PUSH2 0x4CBE SWAP2 SWAP1 PUSH2 0x6952 JUMP JUMPDEST SWAP3 POP POP DUP2 SWAP1 SSTORE POP JUMPDEST DUP2 PUSH1 0xA SLOAD PUSH1 0xD SLOAD PUSH2 0x4CD7 SWAP2 SWAP1 PUSH2 0x68F8 JUMP JUMPDEST PUSH2 0x4CE1 SWAP2 SWAP1 PUSH2 0x6756 JUMP JUMPDEST PUSH1 0xD DUP2 SWAP1 SSTORE POP DUP3 PUSH1 0x9 SLOAD PUSH1 0xE SLOAD PUSH2 0x4CF8 SWAP2 SWAP1 PUSH2 0x68F8 JUMP JUMPDEST PUSH2 0x4D02 SWAP2 SWAP1 PUSH2 0x6756 JUMP JUMPDEST PUSH1 0xE DUP2 SWAP1 SSTORE POP PUSH1 0xA SLOAD DUP4 PUSH1 0x9 SLOAD DUP5 DUP5 PUSH2 0x4D1B SWAP2 SWAP1 PUSH2 0x68F8 JUMP JUMPDEST PUSH2 0x4D25 SWAP2 SWAP1 PUSH2 0x68F8 JUMP JUMPDEST PUSH2 0x4D2F SWAP2 SWAP1 PUSH2 0x6756 JUMP JUMPDEST PUSH2 0x4D39 SWAP2 SWAP1 PUSH2 0x6756 JUMP JUMPDEST PUSH1 0x17 DUP2 SWAP1 SSTORE POP PUSH1 0x9 SLOAD PUSH1 0xB DUP2 SWAP1 SSTORE POP PUSH1 0xA SLOAD PUSH1 0xC DUP2 SWAP1 SSTORE POP PUSH2 0x4D65 PUSH1 0xB SLOAD PUSH1 0xC SLOAD PUSH1 0x7 SLOAD PUSH1 0x17 SLOAD PUSH2 0x56CC JUMP JUMPDEST PUSH1 0x5 DUP2 SWAP1 SSTORE POP PUSH1 0x5 SLOAD PUSH1 0x2E SLOAD PUSH1 0x2 PUSH2 0x4D7D SWAP2 SWAP1 PUSH2 0x68F8 JUMP JUMPDEST PUSH2 0x4D87 SWAP2 SWAP1 PUSH2 0x6952 JUMP JUMPDEST PUSH1 0x6 DUP2 SWAP1 SSTORE POP PUSH2 0x4D95 PUSH2 0x4227 JUMP JUMPDEST PUSH1 0x9 SLOAD PUSH1 0xB DUP2 SWAP1 SSTORE POP PUSH1 0xA SLOAD PUSH1 0xC DUP2 SWAP1 SSTORE POP POP PUSH2 0x4E9D JUMP JUMPDEST PUSH1 0xB SLOAD PUSH1 0x15 DUP2 SWAP1 SSTORE POP PUSH1 0xC SLOAD PUSH1 0x16 DUP2 SWAP1 SSTORE POP PUSH1 0x2E SLOAD PUSH1 0xD SLOAD DUP6 PUSH2 0x4DD0 SWAP2 SWAP1 PUSH2 0x68F8 JUMP JUMPDEST PUSH2 0x4DDA SWAP2 SWAP1 PUSH2 0x6756 JUMP JUMPDEST PUSH1 0xC PUSH1 0x0 DUP3 DUP3 SLOAD PUSH2 0x4DEB SWAP2 SWAP1 PUSH2 0x6952 JUMP JUMPDEST SWAP3 POP POP DUP2 SWAP1 SSTORE POP PUSH2 0x4E06 PUSH1 0x5 SLOAD PUSH1 0x6 SLOAD PUSH1 0x7 SLOAD PUSH1 0xC SLOAD PUSH2 0x5806 JUMP JUMPDEST PUSH1 0xB DUP2 SWAP1 SSTORE POP PUSH2 0x4E1D PUSH1 0xB SLOAD PUSH1 0x15 SLOAD PUSH1 0xE SLOAD PUSH2 0x55A3 JUMP JUMPDEST DUP6 PUSH2 0x4E28 SWAP2 SWAP1 PUSH2 0x6700 JUMP JUMPDEST SWAP5 POP PUSH1 0x1 ISZERO ISZERO DUP7 ISZERO ISZERO EQ ISZERO PUSH2 0x4E55 JUMPI DUP4 PUSH1 0xF PUSH1 0x0 DUP3 DUP3 SLOAD PUSH2 0x4E49 SWAP2 SWAP1 PUSH2 0x6700 JUMP JUMPDEST SWAP3 POP POP DUP2 SWAP1 SSTORE POP PUSH2 0x4E98 JUMP JUMPDEST PUSH2 0x4E66 PUSH1 0xB SLOAD PUSH1 0x15 SLOAD PUSH1 0xE SLOAD PUSH2 0x55A3 JUMP JUMPDEST PUSH1 0x14 PUSH1 0x0 DUP3 DUP3 SLOAD PUSH2 0x4E77 SWAP2 SWAP1 PUSH2 0x6700 JUMP JUMPDEST SWAP3 POP POP DUP2 SWAP1 SSTORE POP DUP4 PUSH1 0x13 PUSH1 0x0 DUP3 DUP3 SLOAD PUSH2 0x4E90 SWAP2 SWAP1 PUSH2 0x6952 JUMP JUMPDEST SWAP3 POP POP DUP2 SWAP1 SSTORE POP JUMPDEST PUSH1 0x0 SWAP3 POP JUMPDEST POP POP PUSH2 0x4B95 JUMP JUMPDEST PUSH1 0x0 ISZERO ISZERO DUP5 ISZERO ISZERO EQ ISZERO PUSH2 0x4EBE JUMPI DUP3 DUP6 GT PUSH2 0x4EBD JUMPI PUSH1 0x0 DUP1 REVERT JUMPDEST JUMPDEST POP POP PUSH1 0x1 PUSH1 0x2F DUP2 SWAP1 SSTORE POP SWAP4 SWAP3 POP POP POP JUMP JUMPDEST PUSH1 0x0 PUSH1 0x1 PUSH1 0x2F SLOAD EQ PUSH2 0x4F16 JUMPI PUSH1 0x40 MLOAD PUSH32 0x8C379A000000000000000000000000000000000000000000000000000000000 DUP2 MSTORE PUSH1 0x4 ADD PUSH2 0x4F0D SWAP1 PUSH2 0x6644 JUMP JUMPDEST PUSH1 0x40 MLOAD DUP1 SWAP2 SUB SWAP1 REVERT JUMPDEST PUSH1 0x0 PUSH1 0x2F DUP2 SWAP1 SSTORE POP PUSH1 0x0 DUP5 SWAP1 POP PUSH1 0x0 PUSH1 0x1 SWAP1 POP JUMPDEST PUSH1 0x1 ISZERO ISZERO DUP2 ISZERO ISZERO EQ ISZERO PUSH2 0x5239 JUMPI PUSH1 0x0 PUSH1 0x2E SLOAD PUSH1 0x18 SLOAD PUSH1 0xA SLOAD PUSH2 0x4F4C SWAP2 SWAP1 PUSH2 0x68F8 JUMP JUMPDEST PUSH2 0x4F56 SWAP2 SWAP1 PUSH2 0x6756 JUMP JUMPDEST SWAP1 POP PUSH1 0x0 PUSH2 0x4F6C PUSH1 0x5 SLOAD PUSH1 0x6 SLOAD PUSH1 0x7 SLOAD DUP6 PUSH2 0x5806 JUMP JUMPDEST SWAP1 POP PUSH2 0x4F7D PUSH1 0xB SLOAD DUP3 PUSH1 0xE SLOAD PUSH2 0x55A3 JUMP JUMPDEST DUP5 GT ISZERO PUSH2 0x5142 JUMPI PUSH1 0x0 PUSH2 0x4F99 PUSH1 0x5 SLOAD PUSH1 0x6 SLOAD PUSH1 0x7 SLOAD DUP6 DUP8 PUSH2 0x55D8 JUMP JUMPDEST SWAP1 POP PUSH2 0x4FAA DUP4 PUSH1 0xC SLOAD PUSH1 0xD SLOAD PUSH2 0x55A3 JUMP JUMPDEST DUP7 PUSH2 0x4FB5 SWAP2 SWAP1 PUSH2 0x6700 JUMP JUMPDEST SWAP6 POP PUSH2 0x4FC6 PUSH1 0xB SLOAD DUP4 PUSH1 0xE SLOAD PUSH2 0x55A3 JUMP JUMPDEST DUP6 PUSH2 0x4FD1 SWAP2 SWAP1 PUSH2 0x6952 JUMP JUMPDEST SWAP5 POP PUSH1 0x1 ISZERO ISZERO DUP8 ISZERO ISZERO EQ ISZERO PUSH2 0x500C JUMPI PUSH2 0x4FEF PUSH1 0xB SLOAD DUP4 PUSH1 0xE SLOAD PUSH2 0x55A3 JUMP JUMPDEST PUSH1 0x10 PUSH1 0x0 DUP3 DUP3 SLOAD PUSH2 0x5000 SWAP2 SWAP1 PUSH2 0x6700 JUMP JUMPDEST SWAP3 POP POP DUP2 SWAP1 SSTORE POP PUSH2 0x505B JUMP JUMPDEST PUSH2 0x501B DUP4 PUSH1 0xC SLOAD PUSH1 0xD SLOAD PUSH2 0x55A3 JUMP JUMPDEST PUSH1 0x13 PUSH1 0x0 DUP3 DUP3 SLOAD PUSH2 0x502C SWAP2 SWAP1 PUSH2 0x6700 JUMP JUMPDEST SWAP3 POP POP DUP2 SWAP1 SSTORE POP PUSH2 0x5042 PUSH1 0xB SLOAD DUP4 PUSH1 0xE SLOAD PUSH2 0x55A3 JUMP JUMPDEST PUSH1 0x14 PUSH1 0x0 DUP3 DUP3 SLOAD PUSH2 0x5053 SWAP2 SWAP1 PUSH2 0x6952 JUMP JUMPDEST SWAP3 POP POP DUP2 SWAP1 SSTORE POP JUMPDEST DUP3 PUSH1 0xA SLOAD PUSH1 0xD SLOAD PUSH2 0x506C SWAP2 SWAP1 PUSH2 0x68F8 JUMP JUMPDEST PUSH2 0x5076 SWAP2 SWAP1 PUSH2 0x6756 JUMP JUMPDEST PUSH1 0xD DUP2 SWAP1 SSTORE POP DUP2 PUSH1 0x9 SLOAD PUSH1 0xE SLOAD PUSH2 0x508D SWAP2 SWAP1 PUSH2 0x68F8 JUMP JUMPDEST PUSH2 0x5097 SWAP2 SWAP1 PUSH2 0x6756 JUMP JUMPDEST PUSH1 0xE DUP2 SWAP1 SSTORE POP PUSH1 0xA SLOAD DUP3 PUSH1 0x9 SLOAD DUP6 DUP5 PUSH2 0x50B0 SWAP2 SWAP1 PUSH2 0x68F8 JUMP JUMPDEST PUSH2 0x50BA SWAP2 SWAP1 PUSH2 0x68F8 JUMP JUMPDEST PUSH2 0x50C4 SWAP2 SWAP1 PUSH2 0x6756 JUMP JUMPDEST PUSH2 0x50CE SWAP2 SWAP1 PUSH2 0x6756 JUMP JUMPDEST PUSH1 0x17 DUP2 SWAP1 SSTORE POP PUSH1 0x9 SLOAD PUSH1 0xB DUP2 SWAP1 SSTORE POP PUSH1 0xA SLOAD PUSH1 0xC DUP2 SWAP1 SSTORE POP PUSH2 0x50FA PUSH1 0xB SLOAD PUSH1 0xC SLOAD PUSH1 0x7 SLOAD PUSH1 0x17 SLOAD PUSH2 0x56CC JUMP JUMPDEST PUSH1 0x5 DUP2 SWAP1 SSTORE POP PUSH1 0x5 SLOAD PUSH1 0x2E SLOAD PUSH1 0x2 PUSH2 0x5112 SWAP2 SWAP1 PUSH2 0x68F8 JUMP JUMPDEST PUSH2 0x511C SWAP2 SWAP1 PUSH2 0x6952 JUMP JUMPDEST PUSH1 0x6 DUP2 SWAP1 SSTORE POP PUSH2 0x512A PUSH2 0x4227 JUMP JUMPDEST PUSH1 0x9 SLOAD PUSH1 0xB DUP2 SWAP1 SSTORE POP PUSH1 0xA SLOAD PUSH1 0xC DUP2 SWAP1 SSTORE POP POP PUSH2 0x5232 JUMP JUMPDEST PUSH1 0xB SLOAD PUSH1 0x15 DUP2 SWAP1 SSTORE POP PUSH1 0xC SLOAD PUSH1 0x16 DUP2 SWAP1 SSTORE POP PUSH1 0x2E SLOAD PUSH1 0xE SLOAD DUP6 PUSH2 0x5165 SWAP2 SWAP1 PUSH2 0x68F8 JUMP JUMPDEST PUSH2 0x516F SWAP2 SWAP1 PUSH2 0x6756 JUMP JUMPDEST PUSH1 0xB PUSH1 0x0 DUP3 DUP3 SLOAD PUSH2 0x5180 SWAP2 SWAP1 PUSH2 0x6952 JUMP JUMPDEST SWAP3 POP POP DUP2 SWAP1 SSTORE POP PUSH2 0x519B PUSH1 0x5 SLOAD PUSH1 0x6 SLOAD PUSH1 0x7 SLOAD PUSH1 0xB SLOAD PUSH2 0x54A3 JUMP JUMPDEST PUSH1 0xC DUP2 SWAP1 SSTORE POP PUSH2 0x51B2 PUSH1 0xC SLOAD PUSH1 0x16 SLOAD PUSH1 0xD SLOAD PUSH2 0x55A3 JUMP JUMPDEST DUP6 PUSH2 0x51BD SWAP2 SWAP1 PUSH2 0x6700 JUMP JUMPDEST SWAP5 POP PUSH1 0x1 ISZERO ISZERO DUP7 ISZERO ISZERO EQ ISZERO PUSH2 0x51EA JUMPI DUP4 PUSH1 0x10 PUSH1 0x0 DUP3 DUP3 SLOAD PUSH2 0x51DE SWAP2 SWAP1 PUSH2 0x6700 JUMP JUMPDEST SWAP3 POP POP DUP2 SWAP1 SSTORE POP PUSH2 0x522D JUMP JUMPDEST PUSH2 0x51FB PUSH1 0xC SLOAD PUSH1 0x16 SLOAD PUSH1 0xD SLOAD PUSH2 0x55A3 JUMP JUMPDEST PUSH1 0x13 PUSH1 0x0 DUP3 DUP3 SLOAD PUSH2 0x520C SWAP2 SWAP1 PUSH2 0x6700 JUMP JUMPDEST SWAP3 POP POP DUP2 SWAP1 SSTORE POP DUP4 PUSH1 0x14 PUSH1 0x0 DUP3 DUP3 SLOAD PUSH2 0x5225 SWAP2 SWAP1 PUSH2 0x6952 JUMP JUMPDEST SWAP3 POP POP DUP2 SWAP1 SSTORE POP JUMPDEST PUSH1 0x0 SWAP3 POP JUMPDEST POP POP PUSH2 0x4F2A JUMP JUMPDEST PUSH1 0x0 ISZERO ISZERO DUP5 ISZERO ISZERO EQ ISZERO PUSH2 0x5253 JUMPI DUP3 DUP6 GT PUSH2 0x5252 JUMPI PUSH1 0x0 DUP1 REVERT JUMPDEST JUMPDEST POP POP PUSH1 0x1 PUSH1 0x2F DUP2 SWAP1 SSTORE POP SWAP4 SWAP3 POP POP POP JUMP JUMPDEST PUSH1 0x0 DUP3 DUP3 DUP5 PUSH2 0x5273 SWAP2 SWAP1 PUSH2 0x6700 JUMP JUMPDEST SWAP2 POP DUP2 LT ISZERO PUSH2 0x52B7 JUMPI PUSH1 0x40 MLOAD PUSH32 0x8C379A000000000000000000000000000000000000000000000000000000000 DUP2 MSTORE PUSH1 0x4 ADD PUSH2 0x52AE SWAP1 PUSH2 0x6584 JUMP JUMPDEST PUSH1 0x40 MLOAD DUP1 SWAP2 SUB SWAP1 REVERT JUMPDEST SWAP3 SWAP2 POP POP JUMP JUMPDEST PUSH1 0x0 DUP1 PUSH1 0x0 PUSH1 0x2E SLOAD PUSH1 0xE SLOAD PUSH1 0x14 SLOAD PUSH2 0x52D5 SWAP2 SWAP1 PUSH2 0x68F8 JUMP JUMPDEST PUSH2 0x52DF SWAP2 SWAP1 PUSH2 0x6756 JUMP JUMPDEST SWAP1 POP PUSH1 0x0 PUSH1 0x2E SLOAD PUSH1 0xD SLOAD PUSH1 0x13 SLOAD PUSH2 0x52F6 SWAP2 SWAP1 PUSH2 0x68F8 JUMP JUMPDEST PUSH2 0x5300 SWAP2 SWAP1 PUSH2 0x6756 JUMP JUMPDEST SWAP1 POP PUSH1 0x0 PUSH1 0x23 SLOAD PUSH1 0x2E SLOAD PUSH1 0x7 SLOAD PUSH2 0x5317 SWAP2 SWAP1 PUSH2 0x68F8 JUMP JUMPDEST PUSH2 0x5321 SWAP2 SWAP1 PUSH2 0x6756 JUMP JUMPDEST SWAP1 POP PUSH1 0x0 PUSH2 0x5330 DUP5 DUP5 DUP5 PUSH2 0x5A57 JUMP JUMPDEST SWAP1 POP PUSH1 0x0 DUP2 PUSH1 0x2E SLOAD PUSH1 0x2 PUSH2 0x5344 SWAP2 SWAP1 PUSH2 0x68F8 JUMP JUMPDEST PUSH2 0x534E SWAP2 SWAP1 PUSH2 0x6952 JUMP JUMPDEST SWAP1 POP PUSH1 0x0 PUSH1 0xE SLOAD PUSH1 0xD SLOAD PUSH2 0x5365 DUP6 DUP6 DUP9 DUP12 DUP12 PUSH2 0x55D8 JUMP JUMPDEST PUSH2 0x536F SWAP2 SWAP1 PUSH2 0x68F8 JUMP JUMPDEST PUSH2 0x5379 SWAP2 SWAP1 PUSH2 0x6756 JUMP JUMPDEST SWAP1 POP PUSH1 0x0 PUSH1 0xE SLOAD PUSH1 0xD SLOAD PUSH2 0x539A PUSH1 0x5 SLOAD PUSH1 0x6 SLOAD PUSH1 0x7 SLOAD PUSH1 0xB SLOAD PUSH1 0xC SLOAD PUSH2 0x55D8 JUMP JUMPDEST PUSH2 0x53A4 SWAP2 SWAP1 PUSH2 0x68F8 JUMP JUMPDEST PUSH2 0x53AE SWAP2 SWAP1 PUSH2 0x6756 JUMP JUMPDEST SWAP1 POP DUP2 DUP2 GT ISZERO PUSH2 0x5415 JUMPI PUSH1 0x0 PUSH2 0x53CB PUSH1 0xF SLOAD PUSH1 0x13 SLOAD PUSH1 0x22 SLOAD PUSH2 0x5ADB JUMP JUMPDEST SWAP1 POP DUP1 PUSH2 0x1680 DUP5 PUSH1 0x2E SLOAD DUP7 DUP7 PUSH2 0x53E1 SWAP2 SWAP1 PUSH2 0x6952 JUMP JUMPDEST PUSH2 0x53EB SWAP2 SWAP1 PUSH2 0x68F8 JUMP JUMPDEST PUSH2 0x53F5 SWAP2 SWAP1 PUSH2 0x6756 JUMP JUMPDEST PUSH2 0x53FF SWAP2 SWAP1 PUSH2 0x6756 JUMP JUMPDEST PUSH2 0x5409 SWAP2 SWAP1 PUSH2 0x6700 JUMP JUMPDEST SWAP10 POP PUSH1 0x0 SWAP9 POP POP PUSH2 0x546E JUMP JUMPDEST PUSH1 0x0 PUSH2 0x5428 PUSH1 0x10 SLOAD PUSH1 0x14 SLOAD PUSH1 0x22 SLOAD PUSH2 0x5ADB JUMP JUMPDEST SWAP1 POP DUP1 PUSH2 0x1680 DUP5 PUSH1 0x2E SLOAD DUP6 DUP8 PUSH2 0x543E SWAP2 SWAP1 PUSH2 0x6952 JUMP JUMPDEST PUSH2 0x5448 SWAP2 SWAP1 PUSH2 0x68F8 JUMP JUMPDEST PUSH2 0x5452 SWAP2 SWAP1 PUSH2 0x6756 JUMP JUMPDEST PUSH2 0x545C SWAP2 SWAP1 PUSH2 0x6756 JUMP JUMPDEST PUSH2 0x5466 SWAP2 SWAP1 PUSH2 0x6700 JUMP JUMPDEST SWAP10 POP PUSH1 0x1 SWAP9 POP POP JUMPDEST PUSH1 0x21 SLOAD PUSH2 0x780 DUP11 PUSH2 0x547F SWAP2 SWAP1 PUSH2 0x68F8 JUMP JUMPDEST GT ISZERO PUSH2 0x5498 JUMPI PUSH2 0x780 PUSH1 0x21 SLOAD PUSH2 0x5495 SWAP2 SWAP1 PUSH2 0x6756 JUMP JUMPDEST SWAP9 POP JUMPDEST POP POP POP POP POP POP POP SWAP1 SWAP2 JUMP JUMPDEST PUSH1 0x0 DUP2 DUP5 PUSH1 0x8 PUSH2 0x54B3 SWAP2 SWAP1 PUSH2 0x68F8 JUMP JUMPDEST PUSH2 0x54BD SWAP2 SWAP1 PUSH2 0x68F8 JUMP JUMPDEST PUSH2 0x5556 PUSH8 0xDE0B6B3A7640000 DUP6 DUP7 DUP8 PUSH2 0x54D6 SWAP2 SWAP1 PUSH2 0x68F8 JUMP JUMPDEST PUSH2 0x54E0 SWAP2 SWAP1 PUSH2 0x68F8 JUMP JUMPDEST PUSH1 0x0 PUSH2 0x54EC SWAP2 SWAP1 PUSH2 0x6952 JUMP JUMPDEST DUP6 DUP9 PUSH1 0x10 PUSH2 0x54FA SWAP2 SWAP1 PUSH2 0x68F8 JUMP JUMPDEST PUSH2 0x5504 SWAP2 SWAP1 PUSH2 0x68F8 JUMP JUMPDEST PUSH2 0x550E SWAP2 SWAP1 PUSH2 0x68F8 JUMP JUMPDEST PUSH2 0x5518 SWAP2 SWAP1 PUSH2 0x68F8 JUMP JUMPDEST PUSH1 0x2 DUP6 DUP7 DUP11 PUSH1 0x4 PUSH2 0x5529 SWAP2 SWAP1 PUSH2 0x68F8 JUMP JUMPDEST PUSH2 0x5533 SWAP2 SWAP1 PUSH2 0x68F8 JUMP JUMPDEST PUSH2 0x553D SWAP2 SWAP1 PUSH2 0x68F8 JUMP JUMPDEST PUSH2 0x5547 SWAP2 SWAP1 PUSH2 0x67DA JUMP JUMPDEST PUSH2 0x5551 SWAP2 SWAP1 PUSH2 0x6952 JUMP JUMPDEST PUSH2 0x5B28 JUMP JUMPDEST DUP4 DUP5 DUP9 PUSH1 0x4 PUSH2 0x5565 SWAP2 SWAP1 PUSH2 0x68F8 JUMP JUMPDEST PUSH2 0x556F SWAP2 SWAP1 PUSH2 0x68F8 JUMP JUMPDEST PUSH2 0x5579 SWAP2 SWAP1 PUSH2 0x68F8 JUMP JUMPDEST PUSH1 0x0 PUSH2 0x5585 SWAP2 SWAP1 PUSH2 0x6952 JUMP JUMPDEST PUSH2 0x558F SWAP2 SWAP1 PUSH2 0x6700 JUMP JUMPDEST PUSH2 0x5599 SWAP2 SWAP1 PUSH2 0x6756 JUMP JUMPDEST SWAP1 POP SWAP5 SWAP4 POP POP POP POP JUMP JUMPDEST PUSH1 0x0 DUP2 PUSH8 0xDE0B6B3A7640000 DUP5 DUP7 PUSH2 0x55BB SWAP2 SWAP1 PUSH2 0x6952 JUMP JUMPDEST PUSH2 0x55C5 SWAP2 SWAP1 PUSH2 0x68F8 JUMP JUMPDEST PUSH2 0x55CF SWAP2 SWAP1 PUSH2 0x6756 JUMP JUMPDEST SWAP1 POP SWAP4 SWAP3 POP POP POP JUMP JUMPDEST PUSH1 0x0 DUP2 DUP5 DUP6 DUP7 PUSH2 0x55E8 SWAP2 SWAP1 PUSH2 0x68F8 JUMP JUMPDEST PUSH2 0x55F2 SWAP2 SWAP1 PUSH2 0x68F8 JUMP JUMPDEST PUSH2 0x55FC SWAP2 SWAP1 PUSH2 0x68F8 JUMP JUMPDEST DUP3 DUP4 DUP6 DUP7 DUP11 PUSH1 0x4 PUSH2 0x560D SWAP2 SWAP1 PUSH2 0x68F8 JUMP JUMPDEST PUSH2 0x5617 SWAP2 SWAP1 PUSH2 0x68F8 JUMP JUMPDEST PUSH2 0x5621 SWAP2 SWAP1 PUSH2 0x68F8 JUMP JUMPDEST PUSH2 0x562B SWAP2 SWAP1 PUSH2 0x68F8 JUMP JUMPDEST PUSH2 0x5635 SWAP2 SWAP1 PUSH2 0x68F8 JUMP JUMPDEST PUSH2 0x563F SWAP2 SWAP1 PUSH2 0x6700 JUMP JUMPDEST PUSH8 0xDE0B6B3A7640000 DUP5 DUP7 DUP8 DUP9 PUSH2 0x5656 SWAP2 SWAP1 PUSH2 0x68F8 JUMP JUMPDEST PUSH2 0x5660 SWAP2 SWAP1 PUSH2 0x68F8 JUMP JUMPDEST PUSH2 0x566A SWAP2 SWAP1 PUSH2 0x68F8 JUMP JUMPDEST DUP5 DUP6 DUP8 DUP9 DUP12 PUSH1 0x4 PUSH2 0x567B SWAP2 SWAP1 PUSH2 0x68F8 JUMP JUMPDEST PUSH2 0x5685 SWAP2 SWAP1 PUSH2 0x68F8 JUMP JUMPDEST PUSH2 0x568F SWAP2 SWAP1 PUSH2 0x68F8 JUMP JUMPDEST PUSH2 0x5699 SWAP2 SWAP1 PUSH2 0x68F8 JUMP JUMPDEST PUSH2 0x56A3 SWAP2 SWAP1 PUSH2 0x68F8 JUMP JUMPDEST PUSH2 0x56AD SWAP2 SWAP1 PUSH2 0x6700 JUMP JUMPDEST PUSH2 0x56B7 SWAP2 SWAP1 PUSH2 0x68F8 JUMP JUMPDEST PUSH2 0x56C1 SWAP2 SWAP1 PUSH2 0x6756 JUMP JUMPDEST SWAP1 POP SWAP6 SWAP5 POP POP POP POP POP JUMP JUMPDEST PUSH1 0x0 DUP2 PUSH8 0xDE0B6B3A7640000 PUSH2 0x56E2 SWAP2 SWAP1 PUSH2 0x6700 JUMP JUMPDEST DUP5 DUP6 DUP8 DUP9 PUSH1 0x4 PUSH2 0x56F2 SWAP2 SWAP1 PUSH2 0x68F8 JUMP JUMPDEST PUSH2 0x56FC SWAP2 SWAP1 PUSH2 0x68F8 JUMP JUMPDEST PUSH2 0x5706 SWAP2 SWAP1 PUSH2 0x68F8 JUMP JUMPDEST PUSH2 0x5710 SWAP2 SWAP1 PUSH2 0x68F8 JUMP JUMPDEST PUSH2 0x571A SWAP2 SWAP1 PUSH2 0x68F8 JUMP JUMPDEST PUSH8 0xDE0B6B3A7640000 DUP4 DUP7 DUP7 DUP8 DUP9 PUSH2 0x5732 SWAP2 SWAP1 PUSH2 0x68F8 JUMP JUMPDEST PUSH2 0x573C SWAP2 SWAP1 PUSH2 0x68F8 JUMP JUMPDEST PUSH2 0x5746 SWAP2 SWAP1 PUSH2 0x68F8 JUMP JUMPDEST PUSH2 0x5750 SWAP2 SWAP1 PUSH2 0x68F8 JUMP JUMPDEST PUSH2 0x575A SWAP2 SWAP1 PUSH2 0x68F8 JUMP JUMPDEST PUSH15 0xC097CE7BC90715B34B9F1000000000 DUP8 DUP7 DUP8 DUP9 PUSH2 0x5778 SWAP2 SWAP1 PUSH2 0x68F8 JUMP JUMPDEST PUSH2 0x5782 SWAP2 SWAP1 PUSH2 0x68F8 JUMP JUMPDEST PUSH2 0x578C SWAP2 SWAP1 PUSH2 0x68F8 JUMP JUMPDEST PUSH2 0x5796 SWAP2 SWAP1 PUSH2 0x68F8 JUMP JUMPDEST PUSH15 0xC097CE7BC90715B34B9F1000000000 DUP8 DUP9 DUP11 DUP12 PUSH1 0x8 PUSH2 0x57B6 SWAP2 SWAP1 PUSH2 0x68F8 JUMP JUMPDEST PUSH2 0x57C0 SWAP2 SWAP1 PUSH2 0x68F8 JUMP JUMPDEST PUSH2 0x57CA SWAP2 SWAP1 PUSH2 0x68F8 JUMP JUMPDEST PUSH2 0x57D4 SWAP2 SWAP1 PUSH2 0x68F8 JUMP JUMPDEST PUSH2 0x57DE SWAP2 SWAP1 PUSH2 0x68F8 JUMP JUMPDEST PUSH2 0x57E8 SWAP2 SWAP1 PUSH2 0x6700 JUMP JUMPDEST PUSH2 0x57F2 SWAP2 SWAP1 PUSH2 0x6952 JUMP JUMPDEST PUSH2 0x57FC SWAP2 SWAP1 PUSH2 0x6756 JUMP JUMPDEST SWAP1 POP SWAP5 SWAP4 POP POP POP POP JUMP JUMPDEST PUSH1 0x0 DUP2 DUP6 PUSH1 0x8 PUSH2 0x5816 SWAP2 SWAP1 PUSH2 0x68F8 JUMP JUMPDEST PUSH2 0x5820 SWAP2 SWAP1 PUSH2 0x68F8 JUMP JUMPDEST PUSH2 0x58B9 PUSH8 0xDE0B6B3A7640000 DUP6 DUP7 DUP8 PUSH2 0x5839 SWAP2 SWAP1 PUSH2 0x68F8 JUMP JUMPDEST PUSH2 0x5843 SWAP2 SWAP1 PUSH2 0x68F8 JUMP JUMPDEST PUSH1 0x0 PUSH2 0x584F SWAP2 SWAP1 PUSH2 0x6952 JUMP JUMPDEST DUP6 DUP10 PUSH1 0x10 PUSH2 0x585D SWAP2 SWAP1 PUSH2 0x68F8 JUMP JUMPDEST PUSH2 0x5867 SWAP2 SWAP1 PUSH2 0x68F8 JUMP JUMPDEST PUSH2 0x5871 SWAP2 SWAP1 PUSH2 0x68F8 JUMP JUMPDEST PUSH2 0x587B SWAP2 SWAP1 PUSH2 0x68F8 JUMP JUMPDEST PUSH1 0x2 DUP6 DUP7 DUP10 PUSH1 0x4 PUSH2 0x588C SWAP2 SWAP1 PUSH2 0x68F8 JUMP JUMPDEST PUSH2 0x5896 SWAP2 SWAP1 PUSH2 0x68F8 JUMP JUMPDEST PUSH2 0x58A0 SWAP2 SWAP1 PUSH2 0x68F8 JUMP JUMPDEST PUSH2 0x58AA SWAP2 SWAP1 PUSH2 0x67DA JUMP JUMPDEST PUSH2 0x58B4 SWAP2 SWAP1 PUSH2 0x6952 JUMP JUMPDEST PUSH2 0x5B28 JUMP JUMPDEST DUP4 DUP5 DUP8 PUSH1 0x4 PUSH2 0x58C8 SWAP2 SWAP1 PUSH2 0x68F8 JUMP JUMPDEST PUSH2 0x58D2 SWAP2 SWAP1 PUSH2 0x68F8 JUMP JUMPDEST PUSH2 0x58DC SWAP2 SWAP1 PUSH2 0x68F8 JUMP JUMPDEST PUSH1 0x0 PUSH2 0x58E8 SWAP2 SWAP1 PUSH2 0x6952 JUMP JUMPDEST PUSH2 0x58F2 SWAP2 SWAP1 PUSH2 0x6700 JUMP JUMPDEST PUSH2 0x58FC SWAP2 SWAP1 PUSH2 0x6756 JUMP JUMPDEST SWAP1 POP SWAP5 SWAP4 POP POP POP POP JUMP JUMPDEST PUSH1 0x0 PUSH1 0x8 DUP3 GT ISZERO PUSH2 0x5984 JUMPI DUP2 SWAP1 POP PUSH1 0x0 PUSH1 0x1 PUSH1 0x3 DUP5 PUSH2 0x5925 SWAP2 SWAP1 PUSH2 0x6756 JUMP JUMPDEST PUSH2 0x592F SWAP2 SWAP1 PUSH2 0x6700 JUMP JUMPDEST SWAP1 POP JUMPDEST DUP2 DUP2 LT ISZERO PUSH2 0x597E JUMPI DUP1 SWAP2 POP PUSH1 0x3 DUP2 PUSH1 0x2 PUSH2 0x594C SWAP2 SWAP1 PUSH2 0x68F8 JUMP JUMPDEST DUP3 DUP4 PUSH2 0x5958 SWAP2 SWAP1 PUSH2 0x68F8 JUMP JUMPDEST DUP6 PUSH2 0x5963 SWAP2 SWAP1 PUSH2 0x6756 JUMP JUMPDEST PUSH2 0x596D SWAP2 SWAP1 PUSH2 0x6700 JUMP JUMPDEST PUSH2 0x5977 SWAP2 SWAP1 PUSH2 0x6756 JUMP JUMPDEST SWAP1 POP PUSH2 0x5932 JUMP JUMPDEST POP PUSH2 0x5992 JUMP JUMPDEST PUSH1 0x0 DUP3 EQ PUSH2 0x5991 JUMPI PUSH1 0x1 SWAP1 POP JUMPDEST JUMPDEST SWAP2 SWAP1 POP JUMP JUMPDEST PUSH1 0x0 DUP3 DUP5 LT PUSH2 0x59A6 JUMPI DUP3 PUSH2 0x59A8 JUMP JUMPDEST DUP4 JUMPDEST SWAP4 POP DUP2 DUP5 LT PUSH2 0x59B7 JUMPI DUP2 PUSH2 0x59B9 JUMP JUMPDEST DUP4 JUMPDEST SWAP1 POP SWAP4 SWAP3 POP POP POP JUMP JUMPDEST PUSH1 0x60 PUSH1 0x0 PUSH1 0x30 DUP1 SLOAD SWAP1 POP SWAP1 POP PUSH1 0x0 JUMPDEST DUP2 DUP2 LT ISZERO PUSH2 0x5A52 JUMPI PUSH2 0x5A20 PUSH1 0x30 DUP3 DUP2 SLOAD DUP2 LT PUSH2 0x59F0 JUMPI PUSH2 0x59EF PUSH2 0x6AC9 JUMP JUMPDEST JUMPDEST SWAP1 PUSH1 0x0 MSTORE PUSH1 0x20 PUSH1 0x0 KECCAK256 ADD PUSH1 0x0 SWAP1 SLOAD SWAP1 PUSH2 0x100 EXP SWAP1 DIV PUSH20 0xFFFFFFFFFFFFFFFFFFFFFFFFFFFFFFFFFFFFFFFF AND PUSH2 0x486C JUMP JUMPDEST DUP4 DUP3 DUP2 MLOAD DUP2 LT PUSH2 0x5A33 JUMPI PUSH2 0x5A32 PUSH2 0x6AC9 JUMP JUMPDEST JUMPDEST PUSH1 0x20 MUL PUSH1 0x20 ADD ADD DUP2 DUP2 MSTORE POP POP DUP1 DUP1 PUSH2 0x5A4A SWAP1 PUSH2 0x6A18 JUMP JUMPDEST SWAP2 POP POP PUSH2 0x59D1 JUMP JUMPDEST POP POP SWAP1 JUMP JUMPDEST PUSH1 0x0 DUP3 DUP5 PUSH2 0x5A65 SWAP2 SWAP1 PUSH2 0x6952 JUMP JUMPDEST PUSH8 0xDE0B6B3A7640000 DUP5 PUSH1 0x2 PUSH2 0x5A7B SWAP2 SWAP1 PUSH2 0x68F8 JUMP JUMPDEST DUP6 DUP8 PUSH1 0x4 DUP8 DUP9 DUP10 PUSH2 0x5A8C SWAP2 SWAP1 PUSH2 0x68F8 JUMP JUMPDEST PUSH2 0x5A96 SWAP2 SWAP1 PUSH2 0x68F8 JUMP JUMPDEST PUSH2 0x5AA0 SWAP2 SWAP1 PUSH2 0x6756 JUMP JUMPDEST PUSH2 0x5AAA SWAP2 SWAP1 PUSH2 0x6756 JUMP JUMPDEST PUSH2 0x5AB4 SWAP2 SWAP1 PUSH2 0x6756 JUMP JUMPDEST PUSH2 0x5ABE SWAP2 SWAP1 PUSH2 0x6952 JUMP JUMPDEST PUSH2 0x5AC8 SWAP2 SWAP1 PUSH2 0x68F8 JUMP JUMPDEST PUSH2 0x5AD2 SWAP2 SWAP1 PUSH2 0x6756 JUMP JUMPDEST SWAP1 POP SWAP4 SWAP3 POP POP POP JUMP JUMPDEST PUSH1 0x0 DUP2 PUSH2 0xE100 DUP6 DUP6 PUSH2 0x5AED SWAP2 SWAP1 PUSH2 0x6700 JUMP JUMPDEST PUSH8 0xDE0B6B3A7640000 DUP8 PUSH2 0x5B01 SWAP2 SWAP1 PUSH2 0x68F8 JUMP JUMPDEST PUSH2 0x5B0B SWAP2 SWAP1 PUSH2 0x6756 JUMP JUMPDEST PUSH2 0x5B15 SWAP2 SWAP1 PUSH2 0x6756 JUMP JUMPDEST PUSH2 0x5B1F SWAP2 SWAP1 PUSH2 0x6700 JUMP JUMPDEST SWAP1 POP SWAP4 SWAP3 POP POP POP JUMP JUMPDEST PUSH1 0x0 PUSH1 0x3 DUP3 GT ISZERO PUSH2 0x5B8F JUMPI DUP2 SWAP1 POP PUSH1 0x0 PUSH1 0x1 PUSH1 0x2 DUP5 PUSH2 0x5B47 SWAP2 SWAP1 PUSH2 0x6756 JUMP JUMPDEST PUSH2 0x5B51 SWAP2 SWAP1 PUSH2 0x6700 JUMP JUMPDEST SWAP1 POP JUMPDEST DUP2 DUP2 LT ISZERO PUSH2 0x5B89 JUMPI DUP1 SWAP2 POP PUSH1 0x2 DUP2 DUP3 DUP6 PUSH2 0x5B6E SWAP2 SWAP1 PUSH2 0x6756 JUMP JUMPDEST PUSH2 0x5B78 SWAP2 SWAP1 PUSH2 0x6700 JUMP JUMPDEST PUSH2 0x5B82 SWAP2 SWAP1 PUSH2 0x6756 JUMP JUMPDEST SWAP1 POP PUSH2 0x5B54 JUMP JUMPDEST POP PUSH2 0x5B9D JUMP JUMPDEST PUSH1 0x0 DUP3 EQ PUSH2 0x5B9C JUMPI PUSH1 0x1 SWAP1 POP JUMPDEST JUMPDEST SWAP2 SWAP1 POP JUMP JUMPDEST POP DUP1 SLOAD PUSH1 0x0 DUP3 SSTORE SWAP1 PUSH1 0x0 MSTORE PUSH1 0x20 PUSH1 0x0 KECCAK256 SWAP1 DUP2 ADD SWAP1 PUSH2 0x5BC0 SWAP2 SWAP1 PUSH2 0x5BC3 JUMP JUMPDEST POP JUMP JUMPDEST JUMPDEST DUP1 DUP3 GT ISZERO PUSH2 0x5BDC JUMPI PUSH1 0x0 DUP2 PUSH1 0x0 SWAP1 SSTORE POP PUSH1 0x1 ADD PUSH2 0x5BC4 JUMP JUMPDEST POP SWAP1 JUMP JUMPDEST PUSH1 0x0 DUP2 CALLDATALOAD SWAP1 POP PUSH2 0x5BEF DUP2 PUSH2 0x6D30 JUMP JUMPDEST SWAP3 SWAP2 POP POP JUMP JUMPDEST PUSH1 0x0 DUP2 CALLDATALOAD SWAP1 POP PUSH2 0x5C04 DUP2 PUSH2 0x6D47 JUMP JUMPDEST SWAP3 SWAP2 POP POP JUMP JUMPDEST PUSH1 0x0 DUP2 MLOAD SWAP1 POP PUSH2 0x5C19 DUP2 PUSH2 0x6D47 JUMP JUMPDEST SWAP3 SWAP2 POP POP JUMP JUMPDEST PUSH1 0x0 DUP2 CALLDATALOAD SWAP1 POP PUSH2 0x5C2E DUP2 PUSH2 0x6D5E JUMP JUMPDEST SWAP3 SWAP2 POP POP JUMP JUMPDEST PUSH1 0x0 DUP2 CALLDATALOAD SWAP1 POP PUSH2 0x5C43 DUP2 PUSH2 0x6D75 JUMP JUMPDEST SWAP3 SWAP2 POP POP JUMP JUMPDEST PUSH1 0x0 DUP2 MLOAD SWAP1 POP PUSH2 0x5C58 DUP2 PUSH2 0x6D75 JUMP JUMPDEST SWAP3 SWAP2 POP POP JUMP JUMPDEST PUSH1 0x0 DUP2 CALLDATALOAD SWAP1 POP PUSH2 0x5C6D DUP2 PUSH2 0x6D8C JUMP JUMPDEST SWAP3 SWAP2 POP POP JUMP JUMPDEST PUSH1 0x0 PUSH1 0x20 DUP3 DUP5 SUB SLT ISZERO PUSH2 0x5C89 JUMPI PUSH2 0x5C88 PUSH2 0x6AF8 JUMP JUMPDEST JUMPDEST PUSH1 0x0 PUSH2 0x5C97 DUP5 DUP3 DUP6 ADD PUSH2 0x5BE0 JUMP JUMPDEST SWAP2 POP POP SWAP3 SWAP2 POP POP JUMP JUMPDEST PUSH1 0x0 DUP1 PUSH1 0x40 DUP4 DUP6 SUB SLT ISZERO PUSH2 0x5CB7 JUMPI PUSH2 0x5CB6 PUSH2 0x6AF8 JUMP JUMPDEST JUMPDEST PUSH1 0x0 PUSH2 0x5CC5 DUP6 DUP3 DUP7 ADD PUSH2 0x5BE0 JUMP JUMPDEST SWAP3 POP POP PUSH1 0x20 PUSH2 0x5CD6 DUP6 DUP3 DUP7 ADD PUSH2 0x5BE0 JUMP JUMPDEST SWAP2 POP POP SWAP3 POP SWAP3 SWAP1 POP JUMP JUMPDEST PUSH1 0x0 DUP1 PUSH1 0x0 PUSH1 0x60 DUP5 DUP7 SUB SLT ISZERO PUSH2 0x5CF9 JUMPI PUSH2 0x5CF8 PUSH2 0x6AF8 JUMP JUMPDEST JUMPDEST PUSH1 0x0 PUSH2 0x5D07 DUP7 DUP3 DUP8 ADD PUSH2 0x5BE0 JUMP JUMPDEST SWAP4 POP POP PUSH1 0x20 PUSH2 0x5D18 DUP7 DUP3 DUP8 ADD PUSH2 0x5BE0 JUMP JUMPDEST SWAP3 POP POP PUSH1 0x40 PUSH2 0x5D29 DUP7 DUP3 DUP8 ADD PUSH2 0x5C34 JUMP JUMPDEST SWAP2 POP POP SWAP3 POP SWAP3 POP SWAP3 JUMP JUMPDEST PUSH1 0x0 DUP1 PUSH1 0x0 DUP1 PUSH1 0x0 DUP1 PUSH1 0x0 PUSH1 0xE0 DUP9 DUP11 SUB SLT ISZERO PUSH2 0x5D52 JUMPI PUSH2 0x5D51 PUSH2 0x6AF8 JUMP JUMPDEST JUMPDEST PUSH1 0x0 PUSH2 0x5D60 DUP11 DUP3 DUP12 ADD PUSH2 0x5BE0 JUMP JUMPDEST SWAP8 POP POP PUSH1 0x20 PUSH2 0x5D71 DUP11 DUP3 DUP12 ADD PUSH2 0x5BE0 JUMP JUMPDEST SWAP7 POP POP PUSH1 0x40 PUSH2 0x5D82 DUP11 DUP3 DUP12 ADD PUSH2 0x5C34 JUMP JUMPDEST SWAP6 POP POP PUSH1 0x60 PUSH2 0x5D93 DUP11 DUP3 DUP12 ADD PUSH2 0x5C34 JUMP JUMPDEST SWAP5 POP POP PUSH1 0x80 PUSH2 0x5DA4 DUP11 DUP3 DUP12 ADD PUSH2 0x5C5E JUMP JUMPDEST SWAP4 POP POP PUSH1 0xA0 PUSH2 0x5DB5 DUP11 DUP3 DUP12 ADD PUSH2 0x5C1F JUMP JUMPDEST SWAP3 POP POP PUSH1 0xC0 PUSH2 0x5DC6 DUP11 DUP3 DUP12 ADD PUSH2 0x5C1F JUMP JUMPDEST SWAP2 POP POP SWAP3 SWAP6 SWAP9 SWAP2 SWAP5 SWAP8 POP SWAP3 SWAP6 POP JUMP JUMPDEST PUSH1 0x0 DUP1 PUSH1 0x40 DUP4 DUP6 SUB SLT ISZERO PUSH2 0x5DEC JUMPI PUSH2 0x5DEB PUSH2 0x6AF8 JUMP JUMPDEST JUMPDEST PUSH1 0x0 PUSH2 0x5DFA DUP6 DUP3 DUP7 ADD PUSH2 0x5BE0 JUMP JUMPDEST SWAP3 POP POP PUSH1 0x20 PUSH2 0x5E0B DUP6 DUP3 DUP7 ADD PUSH2 0x5BF5 JUMP JUMPDEST SWAP2 POP POP SWAP3 POP SWAP3 SWAP1 POP JUMP JUMPDEST PUSH1 0x0 DUP1 PUSH1 0x40 DUP4 DUP6 SUB SLT ISZERO PUSH2 0x5E2C JUMPI PUSH2 0x5E2B PUSH2 0x6AF8 JUMP JUMPDEST JUMPDEST PUSH1 0x0 PUSH2 0x5E3A DUP6 DUP3 DUP7 ADD PUSH2 0x5BE0 JUMP JUMPDEST SWAP3 POP POP PUSH1 0x20 PUSH2 0x5E4B DUP6 DUP3 DUP7 ADD PUSH2 0x5C34 JUMP JUMPDEST SWAP2 POP POP SWAP3 POP SWAP3 SWAP1 POP JUMP JUMPDEST PUSH1 0x0 DUP1 PUSH1 0x0 PUSH1 0x60 DUP5 DUP7 SUB SLT ISZERO PUSH2 0x5E6E JUMPI PUSH2 0x5E6D PUSH2 0x6AF8 JUMP JUMPDEST JUMPDEST PUSH1 0x0 PUSH2 0x5E7C DUP7 DUP3 DUP8 ADD PUSH2 0x5BE0 JUMP JUMPDEST SWAP4 POP POP PUSH1 0x20 PUSH2 0x5E8D DUP7 DUP3 DUP8 ADD PUSH2 0x5C34 JUMP JUMPDEST SWAP3 POP POP PUSH1 0x40 PUSH2 0x5E9E DUP7 DUP3 DUP8 ADD PUSH2 0x5C34 JUMP JUMPDEST SWAP2 POP POP SWAP3 POP SWAP3 POP SWAP3 JUMP JUMPDEST PUSH1 0x0 PUSH1 0x20 DUP3 DUP5 SUB SLT ISZERO PUSH2 0x5EBE JUMPI PUSH2 0x5EBD PUSH2 0x6AF8 JUMP JUMPDEST JUMPDEST PUSH1 0x0 PUSH2 0x5ECC DUP5 DUP3 DUP6 ADD PUSH2 0x5C0A JUMP JUMPDEST SWAP2 POP POP SWAP3 SWAP2 POP POP JUMP JUMPDEST PUSH1 0x0 PUSH1 0x20 DUP3 DUP5 SUB SLT ISZERO PUSH2 0x5EEB JUMPI PUSH2 0x5EEA PUSH2 0x6AF8 JUMP JUMPDEST JUMPDEST PUSH1 0x0 PUSH2 0x5EF9 DUP5 DUP3 DUP6 ADD PUSH2 0x5C34 JUMP JUMPDEST SWAP2 POP POP SWAP3 SWAP2 POP POP JUMP JUMPDEST PUSH1 0x0 PUSH1 0x20 DUP3 DUP5 SUB SLT ISZERO PUSH2 0x5F18 JUMPI PUSH2 0x5F17 PUSH2 0x6AF8 JUMP JUMPDEST JUMPDEST PUSH1 0x0 PUSH2 0x5F26 DUP5 DUP3 DUP6 ADD PUSH2 0x5C49 JUMP JUMPDEST SWAP2 POP POP SWAP3 SWAP2 POP POP JUMP JUMPDEST PUSH1 0x0 DUP1 PUSH1 0x40 DUP4 DUP6 SUB SLT ISZERO PUSH2 0x5F46 JUMPI PUSH2 0x5F45 PUSH2 0x6AF8 JUMP JUMPDEST JUMPDEST PUSH1 0x0 PUSH2 0x5F54 DUP6 DUP3 DUP7 ADD PUSH2 0x5C34 JUMP JUMPDEST SWAP3 POP POP PUSH1 0x20 PUSH2 0x5F65 DUP6 DUP3 DUP7 ADD PUSH2 0x5BE0 JUMP JUMPDEST SWAP2 POP POP SWAP3 POP SWAP3 SWAP1 POP JUMP JUMPDEST PUSH1 0x0 DUP1 PUSH1 0x0 PUSH1 0x60 DUP5 DUP7 SUB SLT ISZERO PUSH2 0x5F88 JUMPI PUSH2 0x5F87 PUSH2 0x6AF8 JUMP JUMPDEST JUMPDEST PUSH1 0x0 PUSH2 0x5F96 DUP7 DUP3 DUP8 ADD PUSH2 0x5C34 JUMP JUMPDEST SWAP4 POP POP PUSH1 0x20 PUSH2 0x5FA7 DUP7 DUP3 DUP8 ADD PUSH2 0x5BE0 JUMP JUMPDEST SWAP3 POP POP PUSH1 0x40 PUSH2 0x5FB8 DUP7 DUP3 DUP8 ADD PUSH2 0x5BE0 JUMP JUMPDEST SWAP2 POP POP SWAP3 POP SWAP3 POP SWAP3 JUMP JUMPDEST PUSH1 0x0 DUP1 PUSH1 0x0 PUSH1 0x60 DUP5 DUP7 SUB SLT ISZERO PUSH2 0x5FDB JUMPI PUSH2 0x5FDA PUSH2 0x6AF8 JUMP JUMPDEST JUMPDEST PUSH1 0x0 PUSH2 0x5FE9 DUP7 DUP3 DUP8 ADD PUSH2 0x5C34 JUMP JUMPDEST SWAP4 POP POP PUSH1 0x20 PUSH2 0x5FFA DUP7 DUP3 DUP8 ADD PUSH2 0x5C34 JUMP JUMPDEST SWAP3 POP POP PUSH1 0x40 PUSH2 0x600B DUP7 DUP3 DUP8 ADD PUSH2 0x5BE0 JUMP JUMPDEST SWAP2 POP POP SWAP3 POP SWAP3 POP SWAP3 JUMP JUMPDEST PUSH1 0x0 DUP1 PUSH1 0x0 DUP1 PUSH1 0x80 DUP6 DUP8 SUB SLT ISZERO PUSH2 0x602F JUMPI PUSH2 0x602E PUSH2 0x6AF8 JUMP JUMPDEST JUMPDEST PUSH1 0x0 PUSH2 0x603D DUP8 DUP3 DUP9 ADD PUSH2 0x5C34 JUMP JUMPDEST SWAP5 POP POP PUSH1 0x20 PUSH2 0x604E DUP8 DUP3 DUP9 ADD PUSH2 0x5C34 JUMP JUMPDEST SWAP4 POP POP PUSH1 0x40 PUSH2 0x605F DUP8 DUP3 DUP9 ADD PUSH2 0x5BF5 JUMP JUMPDEST SWAP3 POP POP PUSH1 0x60 PUSH2 0x6070 DUP8 DUP3 DUP9 ADD PUSH2 0x5BE0 JUMP JUMPDEST SWAP2 POP POP SWAP3 SWAP6 SWAP2 SWAP5 POP SWAP3 POP JUMP JUMPDEST PUSH2 0x6085 DUP2 PUSH2 0x6986 JUMP JUMPDEST DUP3 MSTORE POP POP JUMP JUMPDEST PUSH2 0x6094 DUP2 PUSH2 0x6998 JUMP JUMPDEST DUP3 MSTORE POP POP JUMP JUMPDEST PUSH2 0x60A3 DUP2 PUSH2 0x69A4 JUMP JUMPDEST DUP3 MSTORE POP POP JUMP JUMPDEST PUSH2 0x60BA PUSH2 0x60B5 DUP3 PUSH2 0x69A4 JUMP JUMPDEST PUSH2 0x6A61 JUMP JUMPDEST DUP3 MSTORE POP POP JUMP JUMPDEST PUSH1 0x0 PUSH2 0x60CB DUP3 PUSH2 0x66C3 JUMP JUMPDEST PUSH2 0x60D5 DUP2 DUP6 PUSH2 0x66D9 JUMP JUMPDEST SWAP4 POP PUSH2 0x60E5 DUP2 DUP6 PUSH1 0x20 DUP7 ADD PUSH2 0x69E5 JUMP JUMPDEST DUP1 DUP5 ADD SWAP2 POP POP SWAP3 SWAP2 POP POP JUMP JUMPDEST PUSH1 0x0 PUSH2 0x60FC DUP3 PUSH2 0x66CE JUMP JUMPDEST PUSH2 0x6106 DUP2 DUP6 PUSH2 0x66E4 JUMP JUMPDEST SWAP4 POP PUSH2 0x6116 DUP2 DUP6 PUSH1 0x20 DUP7 ADD PUSH2 0x69E5 JUMP JUMPDEST PUSH2 0x611F DUP2 PUSH2 0x6AFD JUMP JUMPDEST DUP5 ADD SWAP2 POP POP SWAP3 SWAP2 POP POP JUMP JUMPDEST PUSH1 0x0 PUSH2 0x6137 PUSH1 0x15 DUP4 PUSH2 0x66E4 JUMP JUMPDEST SWAP2 POP PUSH2 0x6142 DUP3 PUSH2 0x6B1B JUMP JUMPDEST PUSH1 0x20 DUP3 ADD SWAP1 POP SWAP2 SWAP1 POP JUMP JUMPDEST PUSH1 0x0 PUSH2 0x615A PUSH1 0x20 DUP4 PUSH2 0x66E4 JUMP JUMPDEST SWAP2 POP PUSH2 0x6165 DUP3 PUSH2 0x6B44 JUMP JUMPDEST PUSH1 0x20 DUP3 ADD SWAP1 POP SWAP2 SWAP1 POP JUMP JUMPDEST PUSH1 0x0 PUSH2 0x617D PUSH1 0x12 DUP4 PUSH2 0x66E4 JUMP JUMPDEST SWAP2 POP PUSH2 0x6188 DUP3 PUSH2 0x6B6D JUMP JUMPDEST PUSH1 0x20 DUP3 ADD SWAP1 POP SWAP2 SWAP1 POP JUMP JUMPDEST PUSH1 0x0 PUSH2 0x61A0 PUSH1 0x10 DUP4 PUSH2 0x66E4 JUMP JUMPDEST SWAP2 POP PUSH2 0x61AB DUP3 PUSH2 0x6B96 JUMP JUMPDEST PUSH1 0x20 DUP3 ADD SWAP1 POP SWAP2 SWAP1 POP JUMP JUMPDEST PUSH1 0x0 PUSH2 0x61C3 PUSH1 0x1C DUP4 PUSH2 0x66E4 JUMP JUMPDEST SWAP2 POP PUSH2 0x61CE DUP3 PUSH2 0x6BBF JUMP JUMPDEST PUSH1 0x20 DUP3 ADD SWAP1 POP SWAP2 SWAP1 POP JUMP JUMPDEST PUSH1 0x0 PUSH2 0x61E6 PUSH1 0x2 DUP4 PUSH2 0x66F5 JUMP JUMPDEST SWAP2 POP PUSH2 0x61F1 DUP3 PUSH2 0x6BE8 JUMP JUMPDEST PUSH1 0x2 DUP3 ADD SWAP1 POP SWAP2 SWAP1 POP JUMP JUMPDEST PUSH1 0x0 PUSH2 0x6209 PUSH1 0x14 DUP4 PUSH2 0x66E4 JUMP JUMPDEST SWAP2 POP PUSH2 0x6214 DUP3 PUSH2 0x6C11 JUMP JUMPDEST PUSH1 0x20 DUP3 ADD SWAP1 POP SWAP2 SWAP1 POP JUMP JUMPDEST PUSH1 0x0 PUSH2 0x622C PUSH1 0x12 DUP4 PUSH2 0x66E4 JUMP JUMPDEST SWAP2 POP PUSH2 0x6237 DUP3 PUSH2 0x6C3A JUMP JUMPDEST PUSH1 0x20 DUP3 ADD SWAP1 POP SWAP2 SWAP1 POP JUMP JUMPDEST PUSH1 0x0 PUSH2 0x624F PUSH1 0x9 DUP4 PUSH2 0x66E4 JUMP JUMPDEST SWAP2 POP PUSH2 0x625A DUP3 PUSH2 0x6C63 JUMP JUMPDEST PUSH1 0x20 DUP3 ADD SWAP1 POP SWAP2 SWAP1 POP JUMP JUMPDEST PUSH1 0x0 PUSH2 0x6272 PUSH1 0x13 DUP4 PUSH2 0x66E4 JUMP JUMPDEST SWAP2 POP PUSH2 0x627D DUP3 PUSH2 0x6C8C JUMP JUMPDEST PUSH1 0x20 DUP3 ADD SWAP1 POP SWAP2 SWAP1 POP JUMP JUMPDEST PUSH1 0x0 PUSH2 0x6295 PUSH1 0xF DUP4 PUSH2 0x66E4 JUMP JUMPDEST SWAP2 POP PUSH2 0x62A0 DUP3 PUSH2 0x6CB5 JUMP JUMPDEST PUSH1 0x20 DUP3 ADD SWAP1 POP SWAP2 SWAP1 POP JUMP JUMPDEST PUSH1 0x0 PUSH2 0x62B8 PUSH1 0x18 DUP4 PUSH2 0x66E4 JUMP JUMPDEST SWAP2 POP PUSH2 0x62C3 DUP3 PUSH2 0x6CDE JUMP JUMPDEST PUSH1 0x20 DUP3 ADD SWAP1 POP SWAP2 SWAP1 POP JUMP JUMPDEST PUSH1 0x0 PUSH2 0x62DB PUSH1 0x6 DUP4 PUSH2 0x66E4 JUMP JUMPDEST SWAP2 POP PUSH2 0x62E6 DUP3 PUSH2 0x6D07 JUMP JUMPDEST PUSH1 0x20 DUP3 ADD SWAP1 POP SWAP2 SWAP1 POP JUMP JUMPDEST PUSH2 0x62FA DUP2 PUSH2 0x69CE JUMP JUMPDEST DUP3 MSTORE POP POP JUMP JUMPDEST PUSH2 0x6309 DUP2 PUSH2 0x69D8 JUMP JUMPDEST DUP3 MSTORE POP POP JUMP JUMPDEST PUSH1 0x0 PUSH2 0x631B DUP3 DUP5 PUSH2 0x60C0 JUMP JUMPDEST SWAP2 POP DUP2 SWAP1 POP SWAP3 SWAP2 POP POP JUMP JUMPDEST PUSH1 0x0 PUSH2 0x6331 DUP3 PUSH2 0x61D9 JUMP JUMPDEST SWAP2 POP PUSH2 0x633D DUP3 DUP6 PUSH2 0x60A9 JUMP JUMPDEST PUSH1 0x20 DUP3 ADD SWAP2 POP PUSH2 0x634D DUP3 DUP5 PUSH2 0x60A9 JUMP JUMPDEST PUSH1 0x20 DUP3 ADD SWAP2 POP DUP2 SWAP1 POP SWAP4 SWAP3 POP POP POP JUMP JUMPDEST PUSH1 0x0 PUSH1 0x20 DUP3 ADD SWAP1 POP PUSH2 0x6372 PUSH1 0x0 DUP4 ADD DUP5 PUSH2 0x607C JUMP JUMPDEST SWAP3 SWAP2 POP POP JUMP JUMPDEST PUSH1 0x0 PUSH1 0x80 DUP3 ADD SWAP1 POP PUSH2 0x638D PUSH1 0x0 DUP4 ADD DUP8 PUSH2 0x607C JUMP JUMPDEST PUSH2 0x639A PUSH1 0x20 DUP4 ADD DUP7 PUSH2 0x608B JUMP JUMPDEST PUSH2 0x63A7 PUSH1 0x40 DUP4 ADD DUP6 PUSH2 0x62F1 JUMP JUMPDEST PUSH2 0x63B4 PUSH1 0x60 DUP4 ADD DUP5 PUSH2 0x62F1 JUMP JUMPDEST SWAP6 SWAP5 POP POP POP POP POP JUMP JUMPDEST PUSH1 0x0 PUSH1 0x40 DUP3 ADD SWAP1 POP PUSH2 0x63D2 PUSH1 0x0 DUP4 ADD DUP6 PUSH2 0x607C JUMP JUMPDEST PUSH2 0x63DF PUSH1 0x20 DUP4 ADD DUP5 PUSH2 0x62F1 JUMP JUMPDEST SWAP4 SWAP3 POP POP POP JUMP JUMPDEST PUSH1 0x0 PUSH1 0x20 DUP3 ADD SWAP1 POP PUSH2 0x63FB PUSH1 0x0 DUP4 ADD DUP5 PUSH2 0x608B JUMP JUMPDEST SWAP3 SWAP2 POP POP JUMP JUMPDEST PUSH1 0x0 PUSH1 0x20 DUP3 ADD SWAP1 POP PUSH2 0x6416 PUSH1 0x0 DUP4 ADD DUP5 PUSH2 0x609A JUMP JUMPDEST SWAP3 SWAP2 POP POP JUMP JUMPDEST PUSH1 0x0 PUSH1 0xC0 DUP3 ADD SWAP1 POP PUSH2 0x6431 PUSH1 0x0 DUP4 ADD DUP10 PUSH2 0x609A JUMP JUMPDEST PUSH2 0x643E PUSH1 0x20 DUP4 ADD DUP9 PUSH2 0x607C JUMP JUMPDEST PUSH2 0x644B PUSH1 0x40 DUP4 ADD DUP8 PUSH2 0x607C JUMP JUMPDEST PUSH2 0x6458 PUSH1 0x60 DUP4 ADD DUP7 PUSH2 0x62F1 JUMP JUMPDEST PUSH2 0x6465 PUSH1 0x80 DUP4 ADD DUP6 PUSH2 0x62F1 JUMP JUMPDEST PUSH2 0x6472 PUSH1 0xA0 DUP4 ADD DUP5 PUSH2 0x62F1 JUMP JUMPDEST SWAP8 SWAP7 POP POP POP POP POP POP POP JUMP JUMPDEST PUSH1 0x0 PUSH1 0x80 DUP3 ADD SWAP1 POP PUSH2 0x6492 PUSH1 0x0 DUP4 ADD DUP8 PUSH2 0x609A JUMP JUMPDEST PUSH2 0x649F PUSH1 0x20 DUP4 ADD DUP7 PUSH2 0x6300 JUMP JUMPDEST PUSH2 0x64AC PUSH1 0x40 DUP4 ADD DUP6 PUSH2 0x609A JUMP JUMPDEST PUSH2 0x64B9 PUSH1 0x60 DUP4 ADD DUP5 PUSH2 0x609A JUMP JUMPDEST SWAP6 SWAP5 POP POP POP POP POP JUMP JUMPDEST PUSH1 0x0 PUSH1 0x20 DUP3 ADD SWAP1 POP DUP2 DUP2 SUB PUSH1 0x0 DUP4 ADD MSTORE PUSH2 0x64DC DUP2 DUP5 PUSH2 0x60F1 JUMP JUMPDEST SWAP1 POP SWAP3 SWAP2 POP POP JUMP JUMPDEST PUSH1 0x0 PUSH1 0x20 DUP3 ADD SWAP1 POP DUP2 DUP2 SUB PUSH1 0x0 DUP4 ADD MSTORE PUSH2 0x64FD DUP2 PUSH2 0x612A JUMP JUMPDEST SWAP1 POP SWAP2 SWAP1 POP JUMP JUMPDEST PUSH1 0x0 PUSH1 0x20 DUP3 ADD SWAP1 POP DUP2 DUP2 SUB PUSH1 0x0 DUP4 ADD MSTORE PUSH2 0x651D DUP2 PUSH2 0x614D JUMP JUMPDEST SWAP1 POP SWAP2 SWAP1 POP JUMP JUMPDEST PUSH1 0x0 PUSH1 0x20 DUP3 ADD SWAP1 POP DUP2 DUP2 SUB PUSH1 0x0 DUP4 ADD MSTORE PUSH2 0x653D DUP2 PUSH2 0x6170 JUMP JUMPDEST SWAP1 POP SWAP2 SWAP1 POP JUMP JUMPDEST PUSH1 0x0 PUSH1 0x20 DUP3 ADD SWAP1 POP DUP2 DUP2 SUB PUSH1 0x0 DUP4 ADD MSTORE PUSH2 0x655D DUP2 PUSH2 0x6193 JUMP JUMPDEST SWAP1 POP SWAP2 SWAP1 POP JUMP JUMPDEST PUSH1 0x0 PUSH1 0x20 DUP3 ADD SWAP1 POP DUP2 DUP2 SUB PUSH1 0x0 DUP4 ADD MSTORE PUSH2 0x657D DUP2 PUSH2 0x61B6 JUMP JUMPDEST SWAP1 POP SWAP2 SWAP1 POP JUMP JUMPDEST PUSH1 0x0 PUSH1 0x20 DUP3 ADD SWAP1 POP DUP2 DUP2 SUB PUSH1 0x0 DUP4 ADD MSTORE PUSH2 0x659D DUP2 PUSH2 0x61FC JUMP JUMPDEST SWAP1 POP SWAP2 SWAP1 POP JUMP JUMPDEST PUSH1 0x0 PUSH1 0x20 DUP3 ADD SWAP1 POP DUP2 DUP2 SUB PUSH1 0x0 DUP4 ADD MSTORE PUSH2 0x65BD DUP2 PUSH2 0x621F JUMP JUMPDEST SWAP1 POP SWAP2 SWAP1 POP JUMP JUMPDEST PUSH1 0x0 PUSH1 0x20 DUP3 ADD SWAP1 POP DUP2 DUP2 SUB PUSH1 0x0 DUP4 ADD MSTORE PUSH2 0x65DD DUP2 PUSH2 0x6242 JUMP JUMPDEST SWAP1 POP SWAP2 SWAP1 POP JUMP JUMPDEST PUSH1 0x0 PUSH1 0x20 DUP3 ADD SWAP1 POP DUP2 DUP2 SUB PUSH1 0x0 DUP4 ADD MSTORE PUSH2 0x65FD DUP2 PUSH2 0x6265 JUMP JUMPDEST SWAP1 POP SWAP2 SWAP1 POP JUMP JUMPDEST PUSH1 0x0 PUSH1 0x20 DUP3 ADD SWAP1 POP DUP2 DUP2 SUB PUSH1 0x0 DUP4 ADD MSTORE PUSH2 0x661D DUP2 PUSH2 0x6288 JUMP JUMPDEST SWAP1 POP SWAP2 SWAP1 POP JUMP JUMPDEST PUSH1 0x0 PUSH1 0x20 DUP3 ADD SWAP1 POP DUP2 DUP2 SUB PUSH1 0x0 DUP4 ADD MSTORE PUSH2 0x663D DUP2 PUSH2 0x62AB JUMP JUMPDEST SWAP1 POP SWAP2 SWAP1 POP JUMP JUMPDEST PUSH1 0x0 PUSH1 0x20 DUP3 ADD SWAP1 POP DUP2 DUP2 SUB PUSH1 0x0 DUP4 ADD MSTORE PUSH2 0x665D DUP2 PUSH2 0x62CE JUMP JUMPDEST SWAP1 POP SWAP2 SWAP1 POP JUMP JUMPDEST PUSH1 0x0 PUSH1 0x20 DUP3 ADD SWAP1 POP PUSH2 0x6679 PUSH1 0x0 DUP4 ADD DUP5 PUSH2 0x62F1 JUMP JUMPDEST SWAP3 SWAP2 POP POP JUMP JUMPDEST PUSH1 0x0 PUSH1 0x40 DUP3 ADD SWAP1 POP PUSH2 0x6694 PUSH1 0x0 DUP4 ADD DUP6 PUSH2 0x62F1 JUMP JUMPDEST PUSH2 0x66A1 PUSH1 0x20 DUP4 ADD DUP5 PUSH2 0x62F1 JUMP JUMPDEST SWAP4 SWAP3 POP POP POP JUMP JUMPDEST PUSH1 0x0 PUSH1 0x20 DUP3 ADD SWAP1 POP PUSH2 0x66BD PUSH1 0x0 DUP4 ADD DUP5 PUSH2 0x6300 JUMP JUMPDEST SWAP3 SWAP2 POP POP JUMP JUMPDEST PUSH1 0x0 DUP2 MLOAD SWAP1 POP SWAP2 SWAP1 POP JUMP JUMPDEST PUSH1 0x0 DUP2 MLOAD SWAP1 POP SWAP2 SWAP1 POP JUMP JUMPDEST PUSH1 0x0 DUP2 SWAP1 POP SWAP3 SWAP2 POP POP JUMP JUMPDEST PUSH1 0x0 DUP3 DUP3 MSTORE PUSH1 0x20 DUP3 ADD SWAP1 POP SWAP3 SWAP2 POP POP JUMP JUMPDEST PUSH1 0x0 DUP2 SWAP1 POP SWAP3 SWAP2 POP POP JUMP JUMPDEST PUSH1 0x0 PUSH2 0x670B DUP3 PUSH2 0x69CE JUMP JUMPDEST SWAP2 POP PUSH2 0x6716 DUP4 PUSH2 0x69CE JUMP JUMPDEST SWAP3 POP DUP3 PUSH32 0xFFFFFFFFFFFFFFFFFFFFFFFFFFFFFFFFFFFFFFFFFFFFFFFFFFFFFFFFFFFFFFFF SUB DUP3 GT ISZERO PUSH2 0x674B JUMPI PUSH2 0x674A PUSH2 0x6A6B JUMP JUMPDEST JUMPDEST DUP3 DUP3 ADD SWAP1 POP SWAP3 SWAP2 POP POP JUMP JUMPDEST PUSH1 0x0 PUSH2 0x6761 DUP3 PUSH2 0x69CE JUMP JUMPDEST SWAP2 POP PUSH2 0x676C DUP4 PUSH2 0x69CE JUMP JUMPDEST SWAP3 POP DUP3 PUSH2 0x677C JUMPI PUSH2 0x677B PUSH2 0x6A9A JUMP JUMPDEST JUMPDEST DUP3 DUP3 DIV SWAP1 POP SWAP3 SWAP2 POP POP JUMP JUMPDEST PUSH1 0x0 DUP1 DUP3 SWAP2 POP DUP4 SWAP1 POP JUMPDEST PUSH1 0x1 DUP6 GT ISZERO PUSH2 0x67D1 JUMPI DUP1 DUP7 DIV DUP2 GT ISZERO PUSH2 0x67AD JUMPI PUSH2 0x67AC PUSH2 0x6A6B JUMP JUMPDEST JUMPDEST PUSH1 0x1 DUP6 AND ISZERO PUSH2 0x67BC JUMPI DUP1 DUP3 MUL SWAP2 POP JUMPDEST DUP1 DUP2 MUL SWAP1 POP PUSH2 0x67CA DUP6 PUSH2 0x6B0E JUMP JUMPDEST SWAP5 POP PUSH2 0x6791 JUMP JUMPDEST SWAP5 POP SWAP5 SWAP3 POP POP POP JUMP JUMPDEST PUSH1 0x0 PUSH2 0x67E5 DUP3 PUSH2 0x69CE JUMP JUMPDEST SWAP2 POP PUSH2 0x67F0 DUP4 PUSH2 0x69D8 JUMP JUMPDEST SWAP3 POP PUSH2 0x681D PUSH32 0xFFFFFFFFFFFFFFFFFFFFFFFFFFFFFFFFFFFFFFFFFFFFFFFFFFFFFFFFFFFFFFFF DUP5 DUP5 PUSH2 0x6825 JUMP JUMPDEST SWAP1 POP SWAP3 SWAP2 POP POP JUMP JUMPDEST PUSH1 0x0 DUP3 PUSH2 0x6835 JUMPI PUSH1 0x1 SWAP1 POP PUSH2 0x68F1 JUMP JUMPDEST DUP2 PUSH2 0x6843 JUMPI PUSH1 0x0 SWAP1 POP PUSH2 0x68F1 JUMP JUMPDEST DUP2 PUSH1 0x1 DUP2 EQ PUSH2 0x6859 JUMPI PUSH1 0x2 DUP2 EQ PUSH2 0x6863 JUMPI PUSH2 0x6892 JUMP JUMPDEST PUSH1 0x1 SWAP2 POP POP PUSH2 0x68F1 JUMP JUMPDEST PUSH1 0xFF DUP5 GT ISZERO PUSH2 0x6875 JUMPI PUSH2 0x6874 PUSH2 0x6A6B JUMP JUMPDEST JUMPDEST DUP4 PUSH1 0x2 EXP SWAP2 POP DUP5 DUP3 GT ISZERO PUSH2 0x688C JUMPI PUSH2 0x688B PUSH2 0x6A6B JUMP JUMPDEST JUMPDEST POP PUSH2 0x68F1 JUMP JUMPDEST POP PUSH1 0x20 DUP4 LT PUSH2 0x133 DUP4 LT AND PUSH1 0x4E DUP5 LT PUSH1 0xB DUP5 LT AND OR ISZERO PUSH2 0x68C7 JUMPI DUP3 DUP3 EXP SWAP1 POP DUP4 DUP2 GT ISZERO PUSH2 0x68C2 JUMPI PUSH2 0x68C1 PUSH2 0x6A6B JUMP JUMPDEST JUMPDEST PUSH2 0x68F1 JUMP JUMPDEST PUSH2 0x68D4 DUP5 DUP5 DUP5 PUSH1 0x1 PUSH2 0x6787 JUMP JUMPDEST SWAP3 POP SWAP1 POP DUP2 DUP5 DIV DUP2 GT ISZERO PUSH2 0x68EB JUMPI PUSH2 0x68EA PUSH2 0x6A6B JUMP JUMPDEST JUMPDEST DUP2 DUP2 MUL SWAP1 POP JUMPDEST SWAP4 SWAP3 POP POP POP JUMP JUMPDEST PUSH1 0x0 PUSH2 0x6903 DUP3 PUSH2 0x69CE JUMP JUMPDEST SWAP2 POP PUSH2 0x690E DUP4 PUSH2 0x69CE JUMP JUMPDEST SWAP3 POP DUP2 PUSH32 0xFFFFFFFFFFFFFFFFFFFFFFFFFFFFFFFFFFFFFFFFFFFFFFFFFFFFFFFFFFFFFFFF DIV DUP4 GT DUP3 ISZERO ISZERO AND ISZERO PUSH2 0x6947 JUMPI PUSH2 0x6946 PUSH2 0x6A6B JUMP JUMPDEST JUMPDEST DUP3 DUP3 MUL SWAP1 POP SWAP3 SWAP2 POP POP JUMP JUMPDEST PUSH1 0x0 PUSH2 0x695D DUP3 PUSH2 0x69CE JUMP JUMPDEST SWAP2 POP PUSH2 0x6968 DUP4 PUSH2 0x69CE JUMP JUMPDEST SWAP3 POP DUP3 DUP3 LT ISZERO PUSH2 0x697B JUMPI PUSH2 0x697A PUSH2 0x6A6B JUMP JUMPDEST JUMPDEST DUP3 DUP3 SUB SWAP1 POP SWAP3 SWAP2 POP POP JUMP JUMPDEST PUSH1 0x0 PUSH2 0x6991 DUP3 PUSH2 0x69AE JUMP JUMPDEST SWAP1 POP SWAP2 SWAP1 POP JUMP JUMPDEST PUSH1 0x0 DUP2 ISZERO ISZERO SWAP1 POP SWAP2 SWAP1 POP JUMP JUMPDEST PUSH1 0x0 DUP2 SWAP1 POP SWAP2 SWAP1 POP JUMP JUMPDEST PUSH1 0x0 PUSH20 0xFFFFFFFFFFFFFFFFFFFFFFFFFFFFFFFFFFFFFFFF DUP3 AND SWAP1 POP SWAP2 SWAP1 POP JUMP JUMPDEST PUSH1 0x0 DUP2 SWAP1 POP SWAP2 SWAP1 POP JUMP JUMPDEST PUSH1 0x0 PUSH1 0xFF DUP3 AND SWAP1 POP SWAP2 SWAP1 POP JUMP JUMPDEST PUSH1 0x0 JUMPDEST DUP4 DUP2 LT ISZERO PUSH2 0x6A03 JUMPI DUP1 DUP3 ADD MLOAD DUP2 DUP5 ADD MSTORE PUSH1 0x20 DUP2 ADD SWAP1 POP PUSH2 0x69E8 JUMP JUMPDEST DUP4 DUP2 GT ISZERO PUSH2 0x6A12 JUMPI PUSH1 0x0 DUP5 DUP5 ADD MSTORE JUMPDEST POP POP POP POP JUMP JUMPDEST PUSH1 0x0 PUSH2 0x6A23 DUP3 PUSH2 0x69CE JUMP JUMPDEST SWAP2 POP PUSH32 0xFFFFFFFFFFFFFFFFFFFFFFFFFFFFFFFFFFFFFFFFFFFFFFFFFFFFFFFFFFFFFFFF DUP3 EQ ISZERO PUSH2 0x6A56 JUMPI PUSH2 0x6A55 PUSH2 0x6A6B JUMP JUMPDEST JUMPDEST PUSH1 0x1 DUP3 ADD SWAP1 POP SWAP2 SWAP1 POP JUMP JUMPDEST PUSH1 0x0 DUP2 SWAP1 POP SWAP2 SWAP1 POP JUMP JUMPDEST PUSH32 0x4E487B7100000000000000000000000000000000000000000000000000000000 PUSH1 0x0 MSTORE PUSH1 0x11 PUSH1 0x4 MSTORE PUSH1 0x24 PUSH1 0x0 REVERT JUMPDEST PUSH32 0x4E487B7100000000000000000000000000000000000000000000000000000000 PUSH1 0x0 MSTORE PUSH1 0x12 PUSH1 0x4 MSTORE PUSH1 0x24 PUSH1 0x0 REVERT JUMPDEST PUSH32 0x4E487B7100000000000000000000000000000000000000000000000000000000 PUSH1 0x0 MSTORE PUSH1 0x32 PUSH1 0x4 MSTORE PUSH1 0x24 PUSH1 0x0 REVERT JUMPDEST PUSH1 0x0 DUP1 REVERT JUMPDEST PUSH1 0x0 PUSH1 0x1F NOT PUSH1 0x1F DUP4 ADD AND SWAP1 POP SWAP2 SWAP1 POP JUMP JUMPDEST PUSH1 0x0 DUP2 PUSH1 0x1 SHR SWAP1 POP SWAP2 SWAP1 POP JUMP JUMPDEST PUSH32 0x64732D6D6174682D7375622D756E646572666C6F770000000000000000000000 PUSH1 0x0 DUP3 ADD MSTORE POP JUMP JUMPDEST PUSH32 0x51696C696E3A20494E53554646494349454E545F494E5055545F414D4F554E54 PUSH1 0x0 DUP3 ADD MSTORE POP JUMP JUMPDEST PUSH32 0x51496C696E3A20494E56414C49445F4F55540000000000000000000000000000 PUSH1 0x0 DUP3 ADD MSTORE POP JUMP JUMPDEST PUSH32 0x51696C696E3A20464F5242494444454E00000000000000000000000000000000 PUSH1 0x0 DUP3 ADD MSTORE POP JUMP JUMPDEST PUSH32 0x556E697377617056323A20494E56414C49445F5349474E415455524500000000 PUSH1 0x0 DUP3 ADD MSTORE POP JUMP JUMPDEST PUSH32 0x1901000000000000000000000000000000000000000000000000000000000000 PUSH1 0x0 DUP3 ADD MSTORE POP JUMP JUMPDEST PUSH32 0x64732D6D6174682D6164642D6F766572666C6F77000000000000000000000000 PUSH1 0x0 DUP3 ADD MSTORE POP JUMP JUMPDEST PUSH32 0x556E697377617056323A20455850495245440000000000000000000000000000 PUSH1 0x0 DUP3 ADD MSTORE POP JUMP JUMPDEST PUSH32 0x464F5242494444454E0000000000000000000000000000000000000000000000 PUSH1 0x0 DUP3 ADD MSTORE POP JUMP JUMPDEST PUSH32 0x4E4F5420454E4F55474820504F534954494F4E00000000000000000000000000 PUSH1 0x0 DUP3 ADD MSTORE POP JUMP JUMPDEST PUSH32 0x5452414E534645525F4641494C45440000000000000000000000000000000000 PUSH1 0x0 DUP3 ADD MSTORE POP JUMP JUMPDEST PUSH32 0x51696C696E3A204E4F5420454E4F554748204D415247494E0000000000000000 PUSH1 0x0 DUP3 ADD MSTORE POP JUMP JUMPDEST PUSH32 0x4C4F434B45440000000000000000000000000000000000000000000000000000 PUSH1 0x0 DUP3 ADD MSTORE POP JUMP JUMPDEST PUSH2 0x6D39 DUP2 PUSH2 0x6986 JUMP JUMPDEST DUP2 EQ PUSH2 0x6D44 JUMPI PUSH1 0x0 DUP1 REVERT JUMPDEST POP JUMP JUMPDEST PUSH2 0x6D50 DUP2 PUSH2 0x6998 JUMP JUMPDEST DUP2 EQ PUSH2 0x6D5B JUMPI PUSH1 0x0 DUP1 REVERT JUMPDEST POP JUMP JUMPDEST PUSH2 0x6D67 DUP2 PUSH2 0x69A4 JUMP JUMPDEST DUP2 EQ PUSH2 0x6D72 JUMPI PUSH1 0x0 DUP1 REVERT JUMPDEST POP JUMP JUMPDEST PUSH2 0x6D7E DUP2 PUSH2 0x69CE JUMP JUMPDEST DUP2 EQ PUSH2 0x6D89 JUMPI PUSH1 0x0 DUP1 REVERT JUMPDEST POP JUMP JUMPDEST PUSH2 0x6D95 DUP2 PUSH2 0x69D8 JUMP JUMPDEST DUP2 EQ PUSH2 0x6DA0 JUMPI PUSH1 0x0 DUP1 REVERT JUMPDEST POP JUMP INVALID LOG2 PUSH5 0x6970667358 0x22 SLT KECCAK256 POP SWAP11 GASPRICE DELEGATECALL 0x23 SWAP14 PUSH1 0xC4 RETURNDATASIZE 0x5F 0xDB 0xCB SDIV SWAP15 0x2F 0xF7 PUSH31 0x7DD2E22CA1F940E2DAF693F3B8B80F64736F6C634300080700330000000000 "
		},
		"gasEstimates": {
			"creation": {
				"codeDepositCost": "5624200",
				"executionCost": "infinite",
				"totalCost": "infinite"
			},
			"external": {
				"Add_Liquidity(uint256,uint256,address)": "infinite",
				"Add_Margin(uint256,address,address)": "infinite",
				"B()": "2520",
				"Base_rate()": "2497",
				"Burn_Liquidity(uint256,address)": "infinite",
				"C()": "2541",
				"D()": "2542",
				"D0()": "2517",
				"DOMAIN_SEPARATOR()": "2564",
				"Leverage_Margin()": "2563",
				"Leverage_Max()": "2520",
				"Liquidate(address,address)": "infinite",
				"Liquidation_bonus()": "2495",
				"Liquidation_rate()": "2585",
				"M()": "2518",
				"M_Last()": "2541",
				"Margin_tpyes(uint256)": "5023",
				"N()": "2518",
				"N_Last()": "2584",
				"PERMIT_TYPEHASH()": "491",
				"Peqx()": "2499",
				"Peqy()": "2561",
				"Perp_biopen(uint256,uint256,address)": "infinite",
				"Perp_close(uint256,uint256,address)": "infinite",
				"Perp_open(uint256,uint256,bool,address)": "infinite",
				"Price_local()": "2541",
				"Set_LeverageMargin(uint256)": "24801",
				"Set_LeverageMax(uint256)": "24803",
				"Set_Liquidation_rate(uint256)": "24844",
				"Set_fundingrate_upper(uint256)": "24781",
				"Tick_range()": "2562",
				"Total_Liquidity()": "2563",
				"Total_debt_X()": "2542",
				"Total_debt_Y()": "2564",
				"Total_debttoken_X()": "2562",
				"Total_debttoken_Y()": "2564",
				"True_Liquid_X()": "2497",
				"True_Liquid_X0()": "2498",
				"True_Liquid_Y()": "2519",
				"True_Liquid_Y0()": "2584",
				"X_Coord()": "2563",
				"X_Coord_Last()": "2498",
				"Xeq()": "2497",
				"Xgetp()": "2540",
				"Y_Coord()": "2497",
				"Y_Coord_Last()": "2563",
				"Yeq()": "2519",
				"Ygetp()": "2540",
				"allowance(address,address)": "infinite",
				"approve(address,uint256)": "infinite",
				"balanceOf(address)": "2969",
				"const18()": "2520",
				"debt_index(address,bool)": "infinite",
				"decimals()": "404",
				"factory()": "2648",
				"funding_Last()": "2519",
				"funding_x_8h_upper()": "2562",
				"fundingtime_Last()": "2519",
				"initialize(address,address)": "infinite",
				"margin_index(address,uint256)": "infinite",
				"margin_type(address)": "2925",
				"name()": "infinite",
				"nonces(address)": "2949",
				"paying_side_Last()": "2538",
				"permit(address,address,uint256,uint256,uint8,bytes32,bytes32)": "infinite",
				"skim(address)": "infinite",
				"swap(address,uint256,uint256)": "infinite",
				"symbol()": "infinite",
				"tokenX()": "2671",
				"tokenY()": "2582",
				"totalSupply()": "2498",
				"transfer(address,uint256)": "infinite",
				"transferFrom(address,address,uint256)": "infinite"
			},
			"internal": {
				"Clean_debt(address,bool)": "infinite",
				"GetMarginPrice()": "infinite",
				"Getfundingrate()": "infinite",
				"Net_Margin(address)": "infinite",
				"Net_Position(address)": "infinite",
				"Net_debt(address)": "infinite",
				"TradeXToExactY(uint256,uint256,bool)": "infinite",
				"TradeYToExactX(uint256,uint256,bool)": "infinite",
				"Trade_XtoY(uint256,bool)": "infinite",
				"Trade_YtoX(uint256,bool)": "infinite",
				"Virtual_Liquidity_Update()": "infinite",
				"_safeTransfer(address,address,uint256)": "infinite",
				"get_margin_price(address)": "20",
				"refresh_totalbook()": "infinite"
			}
		},
		"methodIdentifiers": {
			"Add_Liquidity(uint256,uint256,address)": "6126deef",
			"Add_Margin(uint256,address,address)": "a54c08f3",
			"B()": "32e7c5bf",
			"Base_rate()": "7ed6281b",
			"Burn_Liquidity(uint256,address)": "6665ff11",
			"C()": "83dfe5fd",
			"D()": "0f529ba2",
			"D0()": "f738c74e",
			"DOMAIN_SEPARATOR()": "3644e515",
			"Leverage_Margin()": "9a36e122",
			"Leverage_Max()": "18db9681",
			"Liquidate(address,address)": "c3d81b21",
			"Liquidation_bonus()": "f70f4394",
			"Liquidation_rate()": "8bc1a32f",
			"M()": "693f917e",
			"M_Last()": "25c513a4",
			"Margin_tpyes(uint256)": "da5604ce",
			"N()": "c9e525df",
			"N_Last()": "acd4a7c2",
			"PERMIT_TYPEHASH()": "30adf81f",
			"Peqx()": "00b52645",
			"Peqy()": "fe18f261",
			"Perp_biopen(uint256,uint256,address)": "09e95861",
			"Perp_close(uint256,uint256,address)": "4c324e6a",
			"Perp_open(uint256,uint256,bool,address)": "9076ae86",
			"Price_local()": "480c4f7e",
			"Set_LeverageMargin(uint256)": "cfe38a5e",
			"Set_LeverageMax(uint256)": "35714521",
			"Set_Liquidation_rate(uint256)": "ff2f169e",
			"Set_fundingrate_upper(uint256)": "0bfa68d8",
			"Tick_range()": "d44022db",
			"Total_Liquidity()": "2dd6c254",
			"Total_debt_X()": "2190219e",
			"Total_debt_Y()": "225c2c50",
			"Total_debttoken_X()": "6b3545aa",
			"Total_debttoken_Y()": "139860ee",
			"True_Liquid_X()": "5595d459",
			"True_Liquid_X0()": "79dbf8ea",
			"True_Liquid_Y()": "3c6fe2f4",
			"True_Liquid_Y0()": "ea1797b0",
			"X_Coord()": "84009686",
			"X_Coord_Last()": "0b197615",
			"Xeq()": "8e361389",
			"Xgetp()": "a5aa65b9",
			"Y_Coord()": "36af2f9b",
			"Y_Coord_Last()": "6607e7e8",
			"Yeq()": "80416c02",
			"Ygetp()": "df0ab2c2",
			"allowance(address,address)": "dd62ed3e",
			"approve(address,uint256)": "095ea7b3",
			"balanceOf(address)": "70a08231",
			"const18()": "7e11939a",
			"debt_index(address,bool)": "7e1431be",
			"decimals()": "313ce567",
			"factory()": "c45a0155",
			"funding_Last()": "23ed16b6",
			"funding_x_8h_upper()": "e19a1474",
			"fundingtime_Last()": "5e287d86",
			"initialize(address,address)": "485cc955",
			"margin_index(address,uint256)": "fc69b80f",
			"margin_type(address)": "699553aa",
			"name()": "06fdde03",
			"nonces(address)": "7ecebe00",
			"paying_side_Last()": "c7d44932",
			"permit(address,address,uint256,uint256,uint8,bytes32,bytes32)": "d505accf",
			"skim(address)": "bc25cf77",
			"swap(address,uint256,uint256)": "9f1d0f59",
			"symbol()": "95d89b41",
			"tokenX()": "16dc165b",
			"tokenY()": "b7d19fc4",
			"totalSupply()": "18160ddd",
			"transfer(address,uint256)": "a9059cbb",
			"transferFrom(address,address,uint256)": "23b872dd"
		}
	},
	"abi": [
		{
			"inputs": [],
			"stateMutability": "nonpayable",
			"type": "constructor"
		},
		{
			"anonymous": false,
			"inputs": [
				{
					"indexed": true,
					"internalType": "address",
					"name": "owner",
					"type": "address"
				},
				{
					"indexed": true,
					"internalType": "address",
					"name": "spender",
					"type": "address"
				},
				{
					"indexed": false,
					"internalType": "uint256",
					"name": "value",
					"type": "uint256"
				}
			],
			"name": "Approval",
			"type": "event"
		},
		{
			"anonymous": false,
			"inputs": [
				{
					"indexed": true,
					"internalType": "address",
					"name": "from",
					"type": "address"
				},
				{
					"indexed": true,
					"internalType": "address",
					"name": "to",
					"type": "address"
				},
				{
					"indexed": false,
					"internalType": "uint256",
					"name": "value",
					"type": "uint256"
				}
			],
			"name": "Transfer",
			"type": "event"
		},
		{
			"inputs": [
				{
					"internalType": "uint256",
					"name": "AddX",
					"type": "uint256"
				},
				{
					"internalType": "uint256",
					"name": "AddY",
					"type": "uint256"
				},
				{
					"internalType": "address",
					"name": "to",
					"type": "address"
				}
			],
			"name": "Add_Liquidity",
			"outputs": [
				{
					"internalType": "uint256",
					"name": "Liquidity",
					"type": "uint256"
				}
			],
			"stateMutability": "nonpayable",
			"type": "function"
		},
		{
			"inputs": [
				{
					"internalType": "uint256",
					"name": "new_margin",
					"type": "uint256"
				},
				{
					"internalType": "address",
					"name": "tokenID",
					"type": "address"
				},
				{
					"internalType": "address",
					"name": "userID",
					"type": "address"
				}
			],
			"name": "Add_Margin",
			"outputs": [],
			"stateMutability": "nonpayable",
			"type": "function"
		},
		{
			"inputs": [],
			"name": "B",
			"outputs": [
				{
					"internalType": "uint256",
					"name": "",
					"type": "uint256"
				}
			],
			"stateMutability": "view",
			"type": "function"
		},
		{
			"inputs": [],
			"name": "Base_rate",
			"outputs": [
				{
					"internalType": "uint256",
					"name": "",
					"type": "uint256"
				}
			],
			"stateMutability": "view",
			"type": "function"
		},
		{
			"inputs": [
				{
					"internalType": "uint256",
					"name": "Liquidity",
					"type": "uint256"
				},
				{
					"internalType": "address",
					"name": "to",
					"type": "address"
				}
			],
			"name": "Burn_Liquidity",
			"outputs": [
				{
					"internalType": "uint256",
					"name": "BurX",
					"type": "uint256"
				},
				{
					"internalType": "uint256",
					"name": "BurY",
					"type": "uint256"
				}
			],
			"stateMutability": "nonpayable",
			"type": "function"
		},
		{
			"inputs": [],
			"name": "C",
			"outputs": [
				{
					"internalType": "uint256",
					"name": "",
					"type": "uint256"
				}
			],
			"stateMutability": "view",
			"type": "function"
		},
		{
			"inputs": [],
			"name": "D",
			"outputs": [
				{
					"internalType": "uint256",
					"name": "",
					"type": "uint256"
				}
			],
			"stateMutability": "view",
			"type": "function"
		},
		{
			"inputs": [],
			"name": "D0",
			"outputs": [
				{
					"internalType": "uint256",
					"name": "",
					"type": "uint256"
				}
			],
			"stateMutability": "view",
			"type": "function"
		},
		{
			"inputs": [],
			"name": "DOMAIN_SEPARATOR",
			"outputs": [
				{
					"internalType": "bytes32",
					"name": "",
					"type": "bytes32"
				}
			],
			"stateMutability": "view",
			"type": "function"
		},
		{
			"inputs": [],
			"name": "Leverage_Margin",
			"outputs": [
				{
					"internalType": "uint256",
					"name": "",
					"type": "uint256"
				}
			],
			"stateMutability": "view",
			"type": "function"
		},
		{
			"inputs": [],
			"name": "Leverage_Max",
			"outputs": [
				{
					"internalType": "uint256",
					"name": "",
					"type": "uint256"
				}
			],
			"stateMutability": "view",
			"type": "function"
		},
		{
			"inputs": [
				{
					"internalType": "address",
					"name": "userID",
					"type": "address"
				},
				{
					"internalType": "address",
					"name": "_to",
					"type": "address"
				}
			],
			"name": "Liquidate",
			"outputs": [],
			"stateMutability": "nonpayable",
			"type": "function"
		},
		{
			"inputs": [],
			"name": "Liquidation_bonus",
			"outputs": [
				{
					"internalType": "uint256",
					"name": "",
					"type": "uint256"
				}
			],
			"stateMutability": "view",
			"type": "function"
		},
		{
			"inputs": [],
			"name": "Liquidation_rate",
			"outputs": [
				{
					"internalType": "uint256",
					"name": "",
					"type": "uint256"
				}
			],
			"stateMutability": "view",
			"type": "function"
		},
		{
			"inputs": [],
			"name": "M",
			"outputs": [
				{
					"internalType": "uint256",
					"name": "",
					"type": "uint256"
				}
			],
			"stateMutability": "view",
			"type": "function"
		},
		{
			"inputs": [],
			"name": "M_Last",
			"outputs": [
				{
					"internalType": "uint256",
					"name": "",
					"type": "uint256"
				}
			],
			"stateMutability": "view",
			"type": "function"
		},
		{
			"inputs": [
				{
					"internalType": "uint256",
					"name": "",
					"type": "uint256"
				}
			],
			"name": "Margin_tpyes",
			"outputs": [
				{
					"internalType": "address",
					"name": "",
					"type": "address"
				}
			],
			"stateMutability": "view",
			"type": "function"
		},
		{
			"inputs": [],
			"name": "N",
			"outputs": [
				{
					"internalType": "uint256",
					"name": "",
					"type": "uint256"
				}
			],
			"stateMutability": "view",
			"type": "function"
		},
		{
			"inputs": [],
			"name": "N_Last",
			"outputs": [
				{
					"internalType": "uint256",
					"name": "",
					"type": "uint256"
				}
			],
			"stateMutability": "view",
			"type": "function"
		},
		{
			"inputs": [],
			"name": "PERMIT_TYPEHASH",
			"outputs": [
				{
					"internalType": "bytes32",
					"name": "",
					"type": "bytes32"
				}
			],
			"stateMutability": "view",
			"type": "function"
		},
		{
			"inputs": [],
			"name": "Peqx",
			"outputs": [
				{
					"internalType": "uint256",
					"name": "",
					"type": "uint256"
				}
			],
			"stateMutability": "view",
			"type": "function"
		},
		{
			"inputs": [],
			"name": "Peqy",
			"outputs": [
				{
					"internalType": "uint256",
					"name": "",
					"type": "uint256"
				}
			],
			"stateMutability": "view",
			"type": "function"
		},
		{
			"inputs": [
				{
					"internalType": "uint256",
					"name": "delta_X",
					"type": "uint256"
				},
				{
					"internalType": "uint256",
					"name": "delta_Y",
					"type": "uint256"
				},
				{
					"internalType": "address",
					"name": "userID",
					"type": "address"
				}
			],
			"name": "Perp_biopen",
			"outputs": [],
			"stateMutability": "nonpayable",
			"type": "function"
		},
		{
			"inputs": [
				{
					"internalType": "uint256",
					"name": "delta_X",
					"type": "uint256"
				},
				{
					"internalType": "uint256",
					"name": "delta_Y",
					"type": "uint256"
				},
				{
					"internalType": "address",
					"name": "userID",
					"type": "address"
				}
			],
			"name": "Perp_close",
			"outputs": [],
			"stateMutability": "nonpayable",
			"type": "function"
		},
		{
			"inputs": [
				{
					"internalType": "uint256",
					"name": "delta_X",
					"type": "uint256"
				},
				{
					"internalType": "uint256",
					"name": "delta_Y",
					"type": "uint256"
				},
				{
					"internalType": "bool",
					"name": "XtoY",
					"type": "bool"
				},
				{
					"internalType": "address",
					"name": "userID",
					"type": "address"
				}
			],
			"name": "Perp_open",
			"outputs": [],
			"stateMutability": "nonpayable",
			"type": "function"
		},
		{
			"inputs": [],
			"name": "Price_local",
			"outputs": [
				{
					"internalType": "uint256",
					"name": "",
					"type": "uint256"
				}
			],
			"stateMutability": "view",
			"type": "function"
		},
		{
			"inputs": [
				{
					"internalType": "uint256",
					"name": "L",
					"type": "uint256"
				}
			],
			"name": "Set_LeverageMargin",
			"outputs": [],
			"stateMutability": "nonpayable",
			"type": "function"
		},
		{
			"inputs": [
				{
					"internalType": "uint256",
					"name": "L",
					"type": "uint256"
				}
			],
			"name": "Set_LeverageMax",
			"outputs": [],
			"stateMutability": "nonpayable",
			"type": "function"
		},
		{
			"inputs": [
				{
					"internalType": "uint256",
					"name": "rate",
					"type": "uint256"
				}
			],
			"name": "Set_Liquidation_rate",
			"outputs": [],
			"stateMutability": "nonpayable",
			"type": "function"
		},
		{
			"inputs": [
				{
					"internalType": "uint256",
					"name": "f",
					"type": "uint256"
				}
			],
			"name": "Set_fundingrate_upper",
			"outputs": [],
			"stateMutability": "nonpayable",
			"type": "function"
		},
		{
			"inputs": [],
			"name": "Tick_range",
			"outputs": [
				{
					"internalType": "uint256",
					"name": "",
					"type": "uint256"
				}
			],
			"stateMutability": "view",
			"type": "function"
		},
		{
			"inputs": [],
			"name": "Total_Liquidity",
			"outputs": [
				{
					"internalType": "uint256",
					"name": "",
					"type": "uint256"
				}
			],
			"stateMutability": "view",
			"type": "function"
		},
		{
			"inputs": [],
			"name": "Total_debt_X",
			"outputs": [
				{
					"internalType": "uint256",
					"name": "",
					"type": "uint256"
				}
			],
			"stateMutability": "view",
			"type": "function"
		},
		{
			"inputs": [],
			"name": "Total_debt_Y",
			"outputs": [
				{
					"internalType": "uint256",
					"name": "",
					"type": "uint256"
				}
			],
			"stateMutability": "view",
			"type": "function"
		},
		{
			"inputs": [],
			"name": "Total_debttoken_X",
			"outputs": [
				{
					"internalType": "uint256",
					"name": "",
					"type": "uint256"
				}
			],
			"stateMutability": "view",
			"type": "function"
		},
		{
			"inputs": [],
			"name": "Total_debttoken_Y",
			"outputs": [
				{
					"internalType": "uint256",
					"name": "",
					"type": "uint256"
				}
			],
			"stateMutability": "view",
			"type": "function"
		},
		{
			"inputs": [],
			"name": "True_Liquid_X",
			"outputs": [
				{
					"internalType": "uint256",
					"name": "",
					"type": "uint256"
				}
			],
			"stateMutability": "view",
			"type": "function"
		},
		{
			"inputs": [],
			"name": "True_Liquid_X0",
			"outputs": [
				{
					"internalType": "uint256",
					"name": "",
					"type": "uint256"
				}
			],
			"stateMutability": "view",
			"type": "function"
		},
		{
			"inputs": [],
			"name": "True_Liquid_Y",
			"outputs": [
				{
					"internalType": "uint256",
					"name": "",
					"type": "uint256"
				}
			],
			"stateMutability": "view",
			"type": "function"
		},
		{
			"inputs": [],
			"name": "True_Liquid_Y0",
			"outputs": [
				{
					"internalType": "uint256",
					"name": "",
					"type": "uint256"
				}
			],
			"stateMutability": "view",
			"type": "function"
		},
		{
			"inputs": [],
			"name": "X_Coord",
			"outputs": [
				{
					"internalType": "uint256",
					"name": "",
					"type": "uint256"
				}
			],
			"stateMutability": "view",
			"type": "function"
		},
		{
			"inputs": [],
			"name": "X_Coord_Last",
			"outputs": [
				{
					"internalType": "uint256",
					"name": "",
					"type": "uint256"
				}
			],
			"stateMutability": "view",
			"type": "function"
		},
		{
			"inputs": [],
			"name": "Xeq",
			"outputs": [
				{
					"internalType": "uint256",
					"name": "",
					"type": "uint256"
				}
			],
			"stateMutability": "view",
			"type": "function"
		},
		{
			"inputs": [],
			"name": "Xgetp",
			"outputs": [
				{
					"internalType": "uint256",
					"name": "",
					"type": "uint256"
				}
			],
			"stateMutability": "view",
			"type": "function"
		},
		{
			"inputs": [],
			"name": "Y_Coord",
			"outputs": [
				{
					"internalType": "uint256",
					"name": "",
					"type": "uint256"
				}
			],
			"stateMutability": "view",
			"type": "function"
		},
		{
			"inputs": [],
			"name": "Y_Coord_Last",
			"outputs": [
				{
					"internalType": "uint256",
					"name": "",
					"type": "uint256"
				}
			],
			"stateMutability": "view",
			"type": "function"
		},
		{
			"inputs": [],
			"name": "Yeq",
			"outputs": [
				{
					"internalType": "uint256",
					"name": "",
					"type": "uint256"
				}
			],
			"stateMutability": "view",
			"type": "function"
		},
		{
			"inputs": [],
			"name": "Ygetp",
			"outputs": [
				{
					"internalType": "uint256",
					"name": "",
					"type": "uint256"
				}
			],
			"stateMutability": "view",
			"type": "function"
		},
		{
			"inputs": [
				{
					"internalType": "address",
					"name": "",
					"type": "address"
				},
				{
					"internalType": "address",
					"name": "",
					"type": "address"
				}
			],
			"name": "allowance",
			"outputs": [
				{
					"internalType": "uint256",
					"name": "",
					"type": "uint256"
				}
			],
			"stateMutability": "view",
			"type": "function"
		},
		{
			"inputs": [
				{
					"internalType": "address",
					"name": "spender",
					"type": "address"
				},
				{
					"internalType": "uint256",
					"name": "value",
					"type": "uint256"
				}
			],
			"name": "approve",
			"outputs": [
				{
					"internalType": "bool",
					"name": "",
					"type": "bool"
				}
			],
			"stateMutability": "nonpayable",
			"type": "function"
		},
		{
			"inputs": [
				{
					"internalType": "address",
					"name": "",
					"type": "address"
				}
			],
			"name": "balanceOf",
			"outputs": [
				{
					"internalType": "uint256",
					"name": "",
					"type": "uint256"
				}
			],
			"stateMutability": "view",
			"type": "function"
		},
		{
			"inputs": [],
			"name": "const18",
			"outputs": [
				{
					"internalType": "uint256",
					"name": "",
					"type": "uint256"
				}
			],
			"stateMutability": "view",
			"type": "function"
		},
		{
			"inputs": [
				{
					"internalType": "address",
					"name": "",
					"type": "address"
				},
				{
					"internalType": "bool",
					"name": "",
					"type": "bool"
				}
			],
			"name": "debt_index",
			"outputs": [
				{
					"internalType": "address",
					"name": "user_ID",
					"type": "address"
				},
				{
					"internalType": "bool",
					"name": "token_ID",
					"type": "bool"
				},
				{
					"internalType": "uint256",
					"name": "debttoken_amount",
					"type": "uint256"
				},
				{
					"internalType": "uint256",
					"name": "position_amount",
					"type": "uint256"
				}
			],
			"stateMutability": "view",
			"type": "function"
		},
		{
			"inputs": [],
			"name": "decimals",
			"outputs": [
				{
					"internalType": "uint8",
					"name": "",
					"type": "uint8"
				}
			],
			"stateMutability": "view",
			"type": "function"
		},
		{
			"inputs": [],
			"name": "factory",
			"outputs": [
				{
					"internalType": "address",
					"name": "",
					"type": "address"
				}
			],
			"stateMutability": "view",
			"type": "function"
		},
		{
			"inputs": [],
			"name": "funding_Last",
			"outputs": [
				{
					"internalType": "uint256",
					"name": "",
					"type": "uint256"
				}
			],
			"stateMutability": "view",
			"type": "function"
		},
		{
			"inputs": [],
			"name": "funding_x_8h_upper",
			"outputs": [
				{
					"internalType": "uint256",
					"name": "",
					"type": "uint256"
				}
			],
			"stateMutability": "view",
			"type": "function"
		},
		{
			"inputs": [],
			"name": "fundingtime_Last",
			"outputs": [
				{
					"internalType": "uint256",
					"name": "",
					"type": "uint256"
				}
			],
			"stateMutability": "view",
			"type": "function"
		},
		{
			"inputs": [
				{
					"internalType": "address",
					"name": "_tokenX",
					"type": "address"
				},
				{
					"internalType": "address",
					"name": "_tokenY",
					"type": "address"
				}
			],
			"name": "initialize",
			"outputs": [],
			"stateMutability": "nonpayable",
			"type": "function"
		},
		{
			"inputs": [
				{
					"internalType": "address",
					"name": "",
					"type": "address"
				},
				{
					"internalType": "uint256",
					"name": "",
					"type": "uint256"
				}
			],
			"name": "margin_index",
			"outputs": [
				{
					"internalType": "uint256",
					"name": "",
					"type": "uint256"
				}
			],
			"stateMutability": "view",
			"type": "function"
		},
		{
			"inputs": [
				{
					"internalType": "address",
					"name": "",
					"type": "address"
				}
			],
			"name": "margin_type",
			"outputs": [
				{
					"internalType": "uint256",
					"name": "",
					"type": "uint256"
				}
			],
			"stateMutability": "view",
			"type": "function"
		},
		{
			"inputs": [],
			"name": "name",
			"outputs": [
				{
					"internalType": "string",
					"name": "",
					"type": "string"
				}
			],
			"stateMutability": "view",
			"type": "function"
		},
		{
			"inputs": [
				{
					"internalType": "address",
					"name": "",
					"type": "address"
				}
			],
			"name": "nonces",
			"outputs": [
				{
					"internalType": "uint256",
					"name": "",
					"type": "uint256"
				}
			],
			"stateMutability": "view",
			"type": "function"
		},
		{
			"inputs": [],
			"name": "paying_side_Last",
			"outputs": [
				{
					"internalType": "bool",
					"name": "",
					"type": "bool"
				}
			],
			"stateMutability": "view",
			"type": "function"
		},
		{
			"inputs": [
				{
					"internalType": "address",
					"name": "owner",
					"type": "address"
				},
				{
					"internalType": "address",
					"name": "spender",
					"type": "address"
				},
				{
					"internalType": "uint256",
					"name": "value",
					"type": "uint256"
				},
				{
					"internalType": "uint256",
					"name": "deadline",
					"type": "uint256"
				},
				{
					"internalType": "uint8",
					"name": "v",
					"type": "uint8"
				},
				{
					"internalType": "bytes32",
					"name": "r",
					"type": "bytes32"
				},
				{
					"internalType": "bytes32",
					"name": "s",
					"type": "bytes32"
				}
			],
			"name": "permit",
			"outputs": [],
			"stateMutability": "nonpayable",
			"type": "function"
		},
		{
			"inputs": [
				{
					"internalType": "address",
					"name": "to",
					"type": "address"
				}
			],
			"name": "skim",
			"outputs": [],
			"stateMutability": "nonpayable",
			"type": "function"
		},
		{
			"inputs": [
				{
					"internalType": "address",
					"name": "to",
					"type": "address"
				},
				{
					"internalType": "uint256",
					"name": "Xout",
					"type": "uint256"
				},
				{
					"internalType": "uint256",
					"name": "Yout",
					"type": "uint256"
				}
			],
			"name": "swap",
			"outputs": [],
			"stateMutability": "nonpayable",
			"type": "function"
		},
		{
			"inputs": [],
			"name": "symbol",
			"outputs": [
				{
					"internalType": "string",
					"name": "",
					"type": "string"
				}
			],
			"stateMutability": "view",
			"type": "function"
		},
		{
			"inputs": [],
			"name": "tokenX",
			"outputs": [
				{
					"internalType": "address",
					"name": "",
					"type": "address"
				}
			],
			"stateMutability": "view",
			"type": "function"
		},
		{
			"inputs": [],
			"name": "tokenY",
			"outputs": [
				{
					"internalType": "address",
					"name": "",
					"type": "address"
				}
			],
			"stateMutability": "view",
			"type": "function"
		},
		{
			"inputs": [],
			"name": "totalSupply",
			"outputs": [
				{
					"internalType": "uint256",
					"name": "",
					"type": "uint256"
				}
			],
			"stateMutability": "view",
			"type": "function"
		},
		{
			"inputs": [
				{
					"internalType": "address",
					"name": "to",
					"type": "address"
				},
				{
					"internalType": "uint256",
					"name": "value",
					"type": "uint256"
				}
			],
			"name": "transfer",
			"outputs": [
				{
					"internalType": "bool",
					"name": "",
					"type": "bool"
				}
			],
			"stateMutability": "nonpayable",
			"type": "function"
		},
		{
			"inputs": [
				{
					"internalType": "address",
					"name": "from",
					"type": "address"
				},
				{
					"internalType": "address",
					"name": "to",
					"type": "address"
				},
				{
					"internalType": "uint256",
					"name": "value",
					"type": "uint256"
				}
			],
			"name": "transferFrom",
			"outputs": [
				{
					"internalType": "bool",
					"name": "",
					"type": "bool"
				}
			],
			"stateMutability": "nonpayable",
			"type": "function"
		}
	]
}