{
	"data": {
		"bytecode": {
			"linkReferences": {},
			"object": "6080604052670de0b6b3a7640000601c5560016024556000602560006101000a81548160ff021916908360ff16021790555034801561003d57600080fd5b50614a6b8061004d6000396000f3fe608060405234801561001057600080fd5b50600436106102745760003560e01c80637e11939a11610151578063be6571aa116100c3578063ef0348fd11610087578063ef0348fd1461071c578063f13c7aed1461073a578063f738c74e14610758578063f8bcf56014610776578063f92e82b014610792578063fcbc49a0146107b057610274565b8063be6571aa14610686578063c45a0155146106a4578063c556c363146106c2578063d873fa7b146106e0578063e159394f146106fe57610274565b8063a01fbbf511610115578063a01fbbf5146105d2578063a37b1918146105f0578063a71e86441461060e578063a79e6f9c1461062c578063b7d19fc41461064a578063b868504b1461066857610274565b80637e11939a1461053e578063803042ac1461055c57806386b9d81f1461057a5780638c4008e9146105965780638ca63e6f146105b457610274565b80635091fadd116101ea5780636bf8be75116101ae5780636bf8be751461048e578063713370fc146104aa578063748f00dc146104c857806377fef068146104e45780637b7c1f4c146105025780637bb624501461052057610274565b80635091fadd146103fa57806354cf2aeb146104185780635784c8c414610436578063617d3b901461045457806362ab1a771461047057610274565b806329baf8d91161023c57806329baf8d9146103215780632c4426ad1461033f57806331fa66b214610370578063321d7fa91461038e57806332e7c5bf146103ac578063367401db146103ca57610274565b80630751a6c8146102795780630e449559146102975780630f529ba2146102c757806315770f92146102e557806316dc165b14610303575b600080fd5b6102816107ce565b60405161028e9190614586565b60405180910390f35b6102b160048036038101906102ac9190614345565b6107d4565b6040516102be9190614586565b60405180910390f35b6102cf6107ef565b6040516102dc9190614586565b60405180910390f35b6102ed6107f5565b6040516102fa9190614586565b60405180910390f35b61030b6107fb565b60405161031891906144e7565b60405180910390f35b610329610821565b6040516103369190614586565b60405180910390f35b61035960048036038101906103549190614298565b610827565b6040516103679291906145a1565b60405180910390f35b610378610858565b604051610385919061452b565b60405180910390f35b61039661086b565b6040516103a39190614586565b60405180910390f35b6103b4610871565b6040516103c19190614586565b60405180910390f35b6103e460048036038101906103df91906142d8565b610877565b6040516103f19190614586565b60405180910390f35b61040261089f565b60405161040f9190614586565b60405180910390f35b6104206108a5565b60405161042d9190614586565b60405180910390f35b61043e6108ab565b60405161044b9190614586565b60405180910390f35b61046e60048036038101906104699190614372565b6108b1565b005b6104786117c8565b60405161048591906144e7565b60405180910390f35b6104a860048036038101906104a39190614231565b6117ee565b005b6104b2611abf565b6040516104bf9190614586565b60405180910390f35b6104e260048036038101906104dd91906143c5565b611ac5565b005b6104ec61254e565b6040516104f99190614586565b60405180910390f35b61050a612554565b6040516105179190614586565b60405180910390f35b61052861255a565b6040516105359190614586565b60405180910390f35b610546612560565b6040516105539190614586565b60405180910390f35b610564612566565b6040516105719190614586565b60405180910390f35b610594600480360381019061058f91906141f1565b61256c565b005b61059e61291d565b6040516105ab9190614586565b60405180910390f35b6105bc612923565b6040516105c99190614586565b60405180910390f35b6105da612929565b6040516105e79190614586565b60405180910390f35b6105f861292f565b6040516106059190614586565b60405180910390f35b610616612935565b6040516106239190614586565b60405180910390f35b61063461293b565b604051610641919061452b565b60405180910390f35b61065261294e565b60405161065f91906144e7565b60405180910390f35b610670612974565b60405161067d9190614586565b60405180910390f35b61068e61297a565b60405161069b9190614586565b60405180910390f35b6106ac612980565b6040516106b991906144e7565b60405180910390f35b6106ca6129a6565b6040516106d79190614586565b60405180910390f35b6106e86129ac565b6040516106f59190614586565b60405180910390f35b6107066129b2565b6040516107139190614586565b60405180910390f35b6107246129b8565b6040516107319190614586565b60405180910390f35b6107426129be565b60405161074f9190614586565b60405180910390f35b6107606129c4565b60405161076d9190614586565b60405180910390f35b610790600480360381019061078b9190614372565b6129ca565b005b61079a612a99565b6040516107a79190614586565b60405180910390f35b6107b8612a9f565b6040516107c59190614586565b60405180910390f35b60115481565b602681600281106107e457600080fd5b016000915090505481565b60015481565b601a5481565b601760009054906101000a900473ffffffffffffffffffffffffffffffffffffffff1681565b600d5481565b6028602052816000526040600020602052806000526040600020600091509150508060000154908060010154905082565b602360009054906101000a900460ff1681565b60135481565b60005481565b6029602052816000526040600020816002811061089357600080fd5b01600091509150505481565b600c5481565b60215481565b60225481565b6001602454146108f6576040517f08c379a00000000000000000000000000000000000000000000000000000000081526004016108ed90614566565b60405180910390fd5b60006024819055506000828461090c91906147e9565b14801561092457506000828461092291906145f1565b115b8015610952575061093481612aa5565b61093d82612b99565b61094683612c71565b61095091906145f1565b115b80156109b55750602860008273ffffffffffffffffffffffffffffffffffffffff1673ffffffffffffffffffffffffffffffffffffffff168152602001908152602001600020600080151515158152602001908152602001600020600101548311155b8015610a195750602860008273ffffffffffffffffffffffffffffffffffffffff1673ffffffffffffffffffffffffffffffffffffffff16815260200190815260200160002060006001151515158152602001908152602001600020600101548211155b610a2257600080fd5b610a2a612d40565b600083111561115f576000610a428460016000612ebe565b90506000610b0685602860008673ffffffffffffffffffffffffffffffffffffffff1673ffffffffffffffffffffffffffffffffffffffff1681526020019081526020016000206000600115151515815260200190815260200160002060000154600f54601154602860008973ffffffffffffffffffffffffffffffffffffffff1673ffffffffffffffffffffffffffffffffffffffff168152602001908152602001600020600080151515158152602001908152602001600020600101546132bb565b905084602860008573ffffffffffffffffffffffffffffffffffffffff1673ffffffffffffffffffffffffffffffffffffffff1681526020019081526020016000206000801515151581526020019081526020016000206001016000828254610b6f9190614843565b9250508190555080600f6000828254610b889190614843565b92505081905550610c49602860008573ffffffffffffffffffffffffffffffffffffffff1673ffffffffffffffffffffffffffffffffffffffff168152602001908152602001600020600060011515151581526020019081526020016000206000015486602860008773ffffffffffffffffffffffffffffffffffffffff1673ffffffffffffffffffffffffffffffffffffffff168152602001908152602001600020600080151515158152602001908152602001600020600101546132f5565b60116000828254610c5a9190614843565b92505081905550610d1b602860008573ffffffffffffffffffffffffffffffffffffffff1673ffffffffffffffffffffffffffffffffffffffff168152602001908152602001600020600060011515151581526020019081526020016000206000015486602860008773ffffffffffffffffffffffffffffffffffffffff1673ffffffffffffffffffffffffffffffffffffffff168152602001908152602001600020600080151515158152602001908152602001600020600101546132f5565b602860008573ffffffffffffffffffffffffffffffffffffffff1673ffffffffffffffffffffffffffffffffffffffff168152602001908152602001600020600060011515151581526020019081526020016000206000016000828254610d829190614843565b925050819055508082118015610dab575060001515602360009054906101000a900460ff161515145b15610e3557610dc78183610dbf9190614843565b600080613317565b602960008573ffffffffffffffffffffffffffffffffffffffff1673ffffffffffffffffffffffffffffffffffffffff168152602001908152602001600020600060028110610e1957610e1861495d565b5b016000828254610e2991906145f1565b92505081905550611158565b8082602960008673ffffffffffffffffffffffffffffffffffffffff1673ffffffffffffffffffffffffffffffffffffffff168152602001908152602001600020600160028110610e8957610e8861495d565b5b0154610e9591906145f1565b118015610eb5575060011515602360009054906101000a900460ff161515145b15610f80578082602960008673ffffffffffffffffffffffffffffffffffffffff1673ffffffffffffffffffffffffffffffffffffffff168152602001908152602001600020600160028110610f0e57610f0d61495d565b5b0154610f1a91906145f1565b610f249190614843565b602960008573ffffffffffffffffffffffffffffffffffffffff1673ffffffffffffffffffffffffffffffffffffffff168152602001908152602001600020600160028110610f7657610f7561495d565b5b0181905550611157565b611048602960008573ffffffffffffffffffffffffffffffffffffffff1673ffffffffffffffffffffffffffffffffffffffff168152602001908152602001600020600060028110610fd557610fd461495d565b5b01546000602960008773ffffffffffffffffffffffffffffffffffffffff1673ffffffffffffffffffffffffffffffffffffffff16815260200190815260200160002060016002811061102b5761102a61495d565b5b015485856110399190614843565b6110439190614843565b612ebe565b602960008573ffffffffffffffffffffffffffffffffffffffff1673ffffffffffffffffffffffffffffffffffffffff16815260200190815260200160002060006002811061109a5761109961495d565b5b01546110a69190614843565b602960008573ffffffffffffffffffffffffffffffffffffffff1673ffffffffffffffffffffffffffffffffffffffff1681526020019081526020016000206000600281106110f8576110f761495d565b5b01819055506000602960008573ffffffffffffffffffffffffffffffffffffffff1673ffffffffffffffffffffffffffffffffffffffff1681526020019081526020016000206001600281106111515761115061495d565b5b01819055505b5b50506117bb565b600061116e8360016000613317565b9050600061123284602860008673ffffffffffffffffffffffffffffffffffffffff1673ffffffffffffffffffffffffffffffffffffffff16815260200190815260200160002060008015151515815260200190815260200160002060000154600e54601054602860008973ffffffffffffffffffffffffffffffffffffffff1673ffffffffffffffffffffffffffffffffffffffff16815260200190815260200160002060006001151515158152602001908152602001600020600101546132bb565b905083602860008573ffffffffffffffffffffffffffffffffffffffff1673ffffffffffffffffffffffffffffffffffffffff16815260200190815260200160002060006001151515158152602001908152602001600020600101600082825461129c9190614843565b9250508190555080600e60008282546112b59190614843565b92505081905550611376602860008573ffffffffffffffffffffffffffffffffffffffff1673ffffffffffffffffffffffffffffffffffffffff1681526020019081526020016000206000801515151581526020019081526020016000206000015485602860008773ffffffffffffffffffffffffffffffffffffffff1673ffffffffffffffffffffffffffffffffffffffff16815260200190815260200160002060006001151515158152602001908152602001600020600101546132f5565b601060008282546113879190614843565b92505081905550611448602860008573ffffffffffffffffffffffffffffffffffffffff1673ffffffffffffffffffffffffffffffffffffffff1681526020019081526020016000206000801515151581526020019081526020016000206000015485602860008773ffffffffffffffffffffffffffffffffffffffff1673ffffffffffffffffffffffffffffffffffffffff16815260200190815260200160002060006001151515158152602001908152602001600020600101546132f5565b602860008573ffffffffffffffffffffffffffffffffffffffff1673ffffffffffffffffffffffffffffffffffffffff16815260200190815260200160002060008015151515815260200190815260200160002060000160008282546114ae9190614843565b925050819055508082602960008673ffffffffffffffffffffffffffffffffffffffff1673ffffffffffffffffffffffffffffffffffffffff1681526020019081526020016000206000600281106115095761150861495d565b5b015461151591906145f1565b11156115e1578082602960008673ffffffffffffffffffffffffffffffffffffffff1673ffffffffffffffffffffffffffffffffffffffff16815260200190815260200160002060006002811061156f5761156e61495d565b5b015461157b91906145f1565b6115859190614843565b602960008573ffffffffffffffffffffffffffffffffffffffff1673ffffffffffffffffffffffffffffffffffffffff1681526020019081526020016000206000600281106115d7576115d661495d565b5b01819055506117b8565b6116a9602960008573ffffffffffffffffffffffffffffffffffffffff1673ffffffffffffffffffffffffffffffffffffffff1681526020019081526020016000206001600281106116365761163561495d565b5b01546000602960008773ffffffffffffffffffffffffffffffffffffffff1673ffffffffffffffffffffffffffffffffffffffff16815260200190815260200160002060006002811061168c5761168b61495d565b5b0154858561169a9190614843565b6116a49190614843565b613317565b602960008573ffffffffffffffffffffffffffffffffffffffff1673ffffffffffffffffffffffffffffffffffffffff1681526020019081526020016000206001600281106116fb576116fa61495d565b5b01546117079190614843565b602960008573ffffffffffffffffffffffffffffffffffffffff1673ffffffffffffffffffffffffffffffffffffffff1681526020019081526020016000206001600281106117595761175861495d565b5b01819055506000602960008573ffffffffffffffffffffffffffffffffffffffff1673ffffffffffffffffffffffffffffffffffffffff1681526020019081526020016000206000600281106117b2576117b161495d565b5b01819055505b50505b6001602481905550505050565b601d60009054906101000a900473ffffffffffffffffffffffffffffffffffffffff1681565b600160245414611833576040517f08c379a000000000000000000000000000000000000000000000000000000000815260040161182a90614566565b60405180910390fd5b6000602481905550601760009054906101000a900473ffffffffffffffffffffffffffffffffffffffff1673ffffffffffffffffffffffffffffffffffffffff168373ffffffffffffffffffffffffffffffffffffffff16141561195f5780602960008673ffffffffffffffffffffffffffffffffffffffff1673ffffffffffffffffffffffffffffffffffffffff1681526020019081526020016000206000600281106118e4576118e361495d565b5b0154116118f057600080fd5b80602960008673ffffffffffffffffffffffffffffffffffffffff1673ffffffffffffffffffffffffffffffffffffffff1681526020019081526020016000206000600281106119435761194261495d565b5b0160008282546119539190614843565b92505081905550611a29565b80602960008673ffffffffffffffffffffffffffffffffffffffff1673ffffffffffffffffffffffffffffffffffffffff1681526020019081526020016000206001600281106119b2576119b161495d565b5b0154116119be57600080fd5b80602960008673ffffffffffffffffffffffffffffffffffffffff1673ffffffffffffffffffffffffffffffffffffffff168152602001908152602001600020600160028110611a1157611a1061495d565b5b016000828254611a219190614843565b925050819055505b611a3284612aa5565b611a3b85612b99565b611a4486612c71565b611a4e91906145f1565b118015611a9d5750601b54611a6285612b99565b611a6c91906147e9565b611a7585612aa5565b611a7e86612b99565b611a8787612c71565b611a9191906145f1565b611a9b9190614843565b115b611aa657600080fd5b611ab1838383613714565b600160248190555050505050565b60095481565b600160245414611b0a576040517f08c379a0000000000000000000000000000000000000000000000000000000008152600401611b0190614566565b60405180910390fd5b600060248190555060008385611b2091906147e9565b148015611b38575060008385611b3691906145f1565b115b611b4157600080fd5b611b49612d40565b611b8d611b5582612b99565b85611b6091906145f1565b611b6983612b99565b611b7e86600d54600654600554601c546132bb565b611b8891906145f1565b61389e565b601954601c54611b9c84612aa5565b611ba585612b99565b611bae86612c71565b611bb891906145f1565b611bc29190614843565b611bcc91906147e9565b611bd69190614647565b11611be057600080fd5b600080600115158415151415612099576000602560009054906101000a900460ff1660ff1611611c0f57600080fd5b6000861115611c2f57611c258660016000612ebe565b9150859050611c69565b849150611c66611c46600d546006546005546132f5565b601c5487611c5491906147e9565b611c5e9190614647565b600187612ebe565b90505b611c7881601054600e546132f5565b602860008573ffffffffffffffffffffffffffffffffffffffff1673ffffffffffffffffffffffffffffffffffffffff1681526020019081526020016000206000801515151581526020019081526020016000206000016000828254611cde91906145f1565b9250508190555081602860008573ffffffffffffffffffffffffffffffffffffffff1673ffffffffffffffffffffffffffffffffffffffff168152602001908152602001600020600060011515151581526020019081526020016000206001016000828254611d4d91906145f1565b92505081905550601054611d6682601054600e546132f5565b611d7091906145f1565b60108190555080600e6000828254611d8891906145f1565b92505081905550670de0b6b3a764000060225482611da691906147e9565b611db09190614647565b602960008573ffffffffffffffffffffffffffffffffffffffff1673ffffffffffffffffffffffffffffffffffffffff168152602001908152602001600020600060028110611e0257611e0161495d565b5b01541115611ed257670de0b6b3a764000060225482611e2191906147e9565b611e2b9190614647565b602960008573ffffffffffffffffffffffffffffffffffffffff1673ffffffffffffffffffffffffffffffffffffffff168152602001908152602001600020600060028110611e7d57611e7c61495d565b5b016000828254611e8d9190614843565b92505081905550670de0b6b3a764000060225482611eab91906147e9565b611eb59190614647565b600b6000828254611ec691906145f1565b92505081905550612094565b6000602960008573ffffffffffffffffffffffffffffffffffffffff1673ffffffffffffffffffffffffffffffffffffffff168152602001908152602001600020600060028110611f2657611f2561495d565b5b0154670de0b6b3a764000060225484611f3f91906147e9565b611f499190614647565b611f539190614843565b90506000602960008673ffffffffffffffffffffffffffffffffffffffff1673ffffffffffffffffffffffffffffffffffffffff168152602001908152602001600020600060028110611fa957611fa861495d565b5b018190555061200d602960008673ffffffffffffffffffffffffffffffffffffffff1673ffffffffffffffffffffffffffffffffffffffff1681526020019081526020016000206001600281106120035761200261495d565b5b0154600083613317565b905080602960008673ffffffffffffffffffffffffffffffffffffffff1673ffffffffffffffffffffffffffffffffffffffff1681526020019081526020016000206001600281106120625761206161495d565b5b0160008282546120729190614843565b9250508190555080600c600082825461208b91906145f1565b92505081905550505b61253e565b6001602560009054906101000a900460ff1660ff16116120b857600080fd5b60008611156120ff578591506120f8601c546120db600d546006546005546132f5565b886120e691906147e9565b6120f09190614647565b600188613317565b9050612112565b61210c8560016000613317565b91508490505b61212181601154600f546132f5565b602860008573ffffffffffffffffffffffffffffffffffffffff1673ffffffffffffffffffffffffffffffffffffffff16815260200190815260200160002060006001151515158152602001908152602001600020600001600082825461218891906145f1565b9250508190555081602860008573ffffffffffffffffffffffffffffffffffffffff1673ffffffffffffffffffffffffffffffffffffffff16815260200190815260200160002060008015151515815260200190815260200160002060010160008282546121f691906145f1565b9250508190555060115461220f82601154600f546132f5565b61221991906145f1565b60118190555080600f600082825461223191906145f1565b92505081905550670de0b6b3a76400006022548261224f91906147e9565b6122599190614647565b602960008573ffffffffffffffffffffffffffffffffffffffff1673ffffffffffffffffffffffffffffffffffffffff1681526020019081526020016000206001600281106122ab576122aa61495d565b5b0154111561237b57670de0b6b3a7640000602254826122ca91906147e9565b6122d49190614647565b602960008573ffffffffffffffffffffffffffffffffffffffff1673ffffffffffffffffffffffffffffffffffffffff1681526020019081526020016000206001600281106123265761232561495d565b5b0160008282546123369190614843565b92505081905550670de0b6b3a76400006022548261235491906147e9565b61235e9190614647565b600c600082825461236f91906145f1565b9250508190555061253d565b6000602960008573ffffffffffffffffffffffffffffffffffffffff1673ffffffffffffffffffffffffffffffffffffffff1681526020019081526020016000206001600281106123cf576123ce61495d565b5b0154670de0b6b3a7640000602254846123e891906147e9565b6123f29190614647565b6123fc9190614843565b90506000602960008673ffffffffffffffffffffffffffffffffffffffff1673ffffffffffffffffffffffffffffffffffffffff1681526020019081526020016000206001600281106124525761245161495d565b5b01819055506124b6602960008673ffffffffffffffffffffffffffffffffffffffff1673ffffffffffffffffffffffffffffffffffffffff1681526020019081526020016000206000600281106124ac576124ab61495d565b5b0154600083612ebe565b905080602960008673ffffffffffffffffffffffffffffffffffffffff1673ffffffffffffffffffffffffffffffffffffffff16815260200190815260200160002060006002811061250b5761250a61495d565b5b01600082825461251b9190614843565b9250508190555080600b600082825461253491906145f1565b92505081905550505b5b5050600160248190555050505050565b60075481565b601e5481565b600e5481565b601c5481565b60105481565b6001602454146125b1576040517f08c379a00000000000000000000000000000000000000000000000000000000081526004016125a890614566565b60405180910390fd5b60006024819055506125c282612aa5565b6125cb83612b99565b6125d484612c71565b6125de91906145f1565b11158061262e5750601b546125f283612b99565b6125fc91906147e9565b61260583612aa5565b61260e84612b99565b61261785612c71565b61262191906145f1565b61262b9190614843565b11155b61263757600080fd5b6126c4601760009054906101000a900473ffffffffffffffffffffffffffffffffffffffff1682601e54602960008773ffffffffffffffffffffffffffffffffffffffff1673ffffffffffffffffffffffffffffffffffffffff1681526020019081526020016000206000600281106126b3576126b261495d565b5b01546126bf91906147e9565b613714565b612751601860009054906101000a900473ffffffffffffffffffffffffffffffffffffffff1682601e54602960008773ffffffffffffffffffffffffffffffffffffffff1673ffffffffffffffffffffffffffffffffffffffff1681526020019081526020016000206001600281106127405761273f61495d565b5b015461274c91906147e9565b613714565b602960008373ffffffffffffffffffffffffffffffffffffffff1673ffffffffffffffffffffffffffffffffffffffff168152602001908152602001600020600061279c919061418f565b612856602860008473ffffffffffffffffffffffffffffffffffffffff1673ffffffffffffffffffffffffffffffffffffffff16815260200190815260200160002060008015151515815260200190815260200160002060010154602860008573ffffffffffffffffffffffffffffffffffffffff1673ffffffffffffffffffffffffffffffffffffffff1681526020019081526020016000206000600115151515815260200190815260200160002060010154846108b1565b6000602860008473ffffffffffffffffffffffffffffffffffffffff1673ffffffffffffffffffffffffffffffffffffffff168152602001908152602001600020600080151515158152602001908152602001600020600001819055506000602860008473ffffffffffffffffffffffffffffffffffffffff1673ffffffffffffffffffffffffffffffffffffffff168152602001908152602001600020600060011515151581526020019081526020016000206000018190555060016024819055505050565b60045481565b60035481565b600f5481565b60065481565b601b5481565b601460009054906101000a900460ff1681565b601860009054906101000a900473ffffffffffffffffffffffffffffffffffffffff1681565b600b5481565b60055481565b601660009054906101000a900473ffffffffffffffffffffffffffffffffffffffff1681565b60155481565b60085481565b600a5481565b60205481565b60195481565b60025481565b600160245414612a0f576040517f08c379a0000000000000000000000000000000000000000000000000000000008152600401612a0690614566565b60405180910390fd5b600060248190555060008284612a2591906147e9565b148015612a3d575060008284612a3b91906145f1565b115b612a4657600080fd5b6000831115612a6f57612a5d836000600184611ac5565b612a6a8360008084611ac5565b612a8c565b612a7d600083600184611ac5565b612a8b600083600084611ac5565b5b6001602481905550505050565b601f5481565b60125481565b6000612b21612b16602860008573ffffffffffffffffffffffffffffffffffffffff1673ffffffffffffffffffffffffffffffffffffffff16815260200190815260200160002060008015151515815260200190815260200160002060000154600e54600d54601054601c546132bb565b6006546005546132f5565b612b88602860008573ffffffffffffffffffffffffffffffffffffffff1673ffffffffffffffffffffffffffffffffffffffff1681526020019081526020016000206000600115151515815260200190815260200160002060000154600f546011546132f5565b612b9291906145f1565b9050919050565b6000612c08602860008473ffffffffffffffffffffffffffffffffffffffff1673ffffffffffffffffffffffffffffffffffffffff1681526020019081526020016000206000600115151515815260200190815260200160002060010154600d54600654600554601c546132bb565b602860008473ffffffffffffffffffffffffffffffffffffffff1673ffffffffffffffffffffffffffffffffffffffff16815260200190815260200160002060008015151515815260200190815260200160002060010154612c6a91906145f1565b9050919050565b6000612cdb602960008473ffffffffffffffffffffffffffffffffffffffff1673ffffffffffffffffffffffffffffffffffffffff168152602001908152602001600020600160028110612cc857612cc761495d565b5b0154600d54600654600554601c546132bb565b602960008473ffffffffffffffffffffffffffffffffffffffff1673ffffffffffffffffffffffffffffffffffffffff168152602001908152602001600020600060028110612d2d57612d2c61495d565b5b0154612d3991906145f1565b9050919050565b600080612d6e600b54600c54600554600654600354600454600054612d666000546138b7565b6001546138d4565b91509150600080612d918484600754600854602054601554600b54600c54613970565b91509150600060135443612da59190614843565b90504360138190555060001515601460009054906101000a900460ff1615151415612e3957612dde600e5460125483601c5460016132bb565b600e54612deb91906145f1565b600e8190555080612e17601254600e54612e0c600d546006546005546132f5565b601c54601c546132bb565b612e2191906147e9565b600f54612e2e9190614843565b600f81905550612e96565b612e4d600f5460125483601c5460016132bb565b600f54612e5a91906145f1565b600f81905550612e82601254600f5483612e7b600d546006546005546132f5565b60016132bb565b600e54612e8f9190614843565b600e819055505b8260128190555081601460006101000a81548160ff0219169083151502179055505050505050565b6000600160245414612f05576040517f08c379a0000000000000000000000000000000000000000000000000000000008152600401612efc90614566565b60405180910390fd5b600060248190555060005b612f3b612f306002600154612f259190614647565b601f54601c546132f5565b600354600554613a1a565b8186612f479190614843565b1115613132576000612f6c6002600154612f619190614647565b601f54601c546132f5565b90506000612f8a600054612f816000546138b7565b60015485613a4f565b9050600085118015612fb4575084612fa760045483600654613a1a565b85612fb291906145f1565b115b15612fc0575050613132565b612fcf60045482600654613a1a565b84612fda91906145f1565b9350612feb82600354600554613a1a565b83612ff691906145f1565b92506000151586151514156130545761301482600354600554613a1a565b600b600082825461302591906145f1565b9250508190555061303b60045482600654613a1a565b600c600082825461304c9190614843565b925050819055505b61306f60065460026001546130699190614647565b836132f5565b600681905550613090600554600260015461308a9190614647565b846132f5565b6005819055506130d96130b46000546130aa6000546138b7565b6001548686613b4f565b8260026001546130c49190614647565b8560026001546130d49190614647565b6132bb565b600d819055506130ed600154600d54613c43565b6000819055506130fb613d9e565b60018190555060026001546131109190614647565b60038190555060026001546131259190614647565b6004819055505050612f10565b600060035490506000600454905060008514156131a25761316383886131589190614843565b600554601c546132f5565b6003600082825461317491906145f1565b9250508190555061319760005461318c6000546138b7565b600154600354613a4f565b6004819055506131f7565b6131bc84866131b19190614843565b600654601c546132f5565b600460008282546131cd9190614843565b925050819055506131f06000546131e56000546138b7565b600154600454613df7565b6003819055505b61320681600454600654613a1a565b8461321191906145f1565b935061322260035483600554613a1a565b8361322d91906145f1565b925060011515861515141561325a57836008600082825461324e91906145f1565b925050819055506132a9565b61326960035483600554613a1a565b600b600082825461327a91906145f1565b9250508190555061329081600454600654613a1a565b600c60008282546132a19190614843565b925050819055505b50505060016024819055509392505050565b600081838587896132cc91906147e9565b6132d691906147e9565b6132e09190614647565b6132ea9190614647565b905095945050505050565b600081838561330491906147e9565b61330e9190614647565b90509392505050565b600060016024541461335e576040517f08c379a000000000000000000000000000000000000000000000000000000000815260040161335590614566565b60405180910390fd5b600060248190555060005b613394613389600260015461337e9190614647565b601f54601c546132f5565b600454600654613a1a565b81866133a09190614843565b111561358b5760006133c560026001546133ba9190614647565b601f54601c546132f5565b905060006133e36000546133da6000546138b7565b60015485613df7565b905060008511801561340d57508461340060035483600554613a1a565b8561340b91906145f1565b115b1561341957505061358b565b61342860035482600554613a1a565b8461343391906145f1565b935061344482600454600654613a1a565b8361344f91906145f1565b92506000151586151514156134ad5761346d60035482600554613a1a565b600b600082825461347e9190614843565b9250508190555061349482600454600654613a1a565b600c60008282546134a591906145f1565b925050819055505b6134c860065460026001546134c29190614647565b846132f5565b6006819055506134e960055460026001546134e39190614647565b836132f5565b60058190555061353261350d6000546135036000546138b7565b6001548587613b4f565b83600260015461351d9190614647565b84600260015461352d9190614647565b6132bb565b600d81905550613546600154600d54613c43565b600081905550613554613d9e565b60018190555060026001546135699190614647565b600381905550600260015461357e9190614647565b6004819055505050613369565b600060035490506000600454905060008514156135fb576135bc83886135b19190614843565b600654601c546132f5565b600460008282546135cd91906145f1565b925050819055506135f06000546135e56000546138b7565b600154600454613df7565b600381905550613650565b613615848661360a9190614843565b600554601c546132f5565b600360008282546136269190614843565b9250508190555061364960005461363e6000546138b7565b600154600354613a4f565b6004819055505b61365f82600354600554613a1a565b8461366a91906145f1565b935061367b60045482600654613a1a565b8361368691906145f1565b92506001151586151514156136b35783600760008282546136a791906145f1565b92505081905550613702565b6136c260045482600654613a1a565b600c60008282546136d391906145f1565b925050819055506136e982600354600554613a1a565b600b60008282546136fa9190614843565b925050819055505b50505060016024819055509392505050565b6000808473ffffffffffffffffffffffffffffffffffffffff166040518060400160405280601981526020017f7472616e7366657228616464726573732c75696e74323536290000000000000081525080519060200120858560405160240161377e929190614502565b604051602081830303815290604052907bffffffffffffffffffffffffffffffffffffffffffffffffffffffff19166020820180517bffffffffffffffffffffffffffffffffffffffffffffffffffffffff83818316178352505050506040516137e891906144d0565b6000604051808303816000865af19150503d8060008114613825576040519150601f19603f3d011682016040523d82523d6000602084013e61382a565b606091505b509150915081801561385857506000815114806138575750808060200190518101906138569190614318565b5b5b613897576040517f08c379a000000000000000000000000000000000000000000000000000000000815260040161388e90614546565b60405180910390fd5b5050505050565b60008183116138ad57816138af565b825b905092915050565b600081671bc16d674ec800006138cd9190614843565b9050919050565b60008060006138ec8c8b670de0b6b3a76400006132f5565b905060006139038c8b670de0b6b3a76400006132f5565b90506000613912838388613ef7565b9050600081671bc16d674ec8000061392a9190614843565b905061394361393c83838a8888613b4f565b8d8f6132f5565b955061395c6139558a8a8a8f8f613b4f565b8d8f6132f5565b945050505050995099975050505050505050565b600080898911156139b357613986878488613f7b565b6116806139948b8d8e613a1a565b61399e9190614647565b6139a891906145f1565b9150600090506139e7565b6139be888588613f7b565b6116806139cc8c8c8e613a1a565b6139d69190614647565b6139e091906145f1565b9150600190505b84610780836139f691906147e9565b1115613a0d5761078085613a0a9190614647565b91505b9850989650505050505050565b600081670de0b6b3a76400008486613a329190614843565b613a3c91906147e9565b613a469190614647565b90509392505050565b600081846008613a5f91906147e9565b613a6991906147e9565b613b02670de0b6b3a7640000858687613a8291906147e9565b613a8c91906147e9565b6000613a989190614843565b85886010613aa691906147e9565b613ab091906147e9565b613aba91906147e9565b613ac491906147e9565b600285868a6004613ad591906147e9565b613adf91906147e9565b613ae991906147e9565b613af391906146cb565b613afd9190614843565b613fc8565b8384886004613b1191906147e9565b613b1b91906147e9565b613b2591906147e9565b6000613b319190614843565b613b3b91906145f1565b613b459190614647565b9050949350505050565b600081848586613b5f91906147e9565b613b6991906147e9565b613b7391906147e9565b828385868a6004613b8491906147e9565b613b8e91906147e9565b613b9891906147e9565b613ba291906147e9565b613bac91906147e9565b613bb691906145f1565b670de0b6b3a764000084868788613bcd91906147e9565b613bd791906147e9565b613be191906147e9565b848587888b6004613bf291906147e9565b613bfc91906147e9565b613c0691906147e9565b613c1091906147e9565b613c1a91906147e9565b613c2491906145f1565b613c2e91906147e9565b613c389190614647565b905095945050505050565b600080600284613c539190614647565b90506000600285613c649190614647565b905083670de0b6b3a7640000613c7a91906145f1565b818284856004613c8a91906147e9565b613c9491906147e9565b613c9e91906147e9565b613ca891906147e9565b613cb291906147e9565b670de0b6b3a7640000858388898a613cca91906147e9565b613cd491906147e9565b613cde91906147e9565b613ce891906147e9565b613cf291906147e9565b6ec097ce7bc90715b34b9f10000000008488898a613d1091906147e9565b613d1a91906147e9565b613d2491906147e9565b613d2e91906147e9565b6ec097ce7bc90715b34b9f1000000000848587886008613d4e91906147e9565b613d5891906147e9565b613d6291906147e9565b613d6c91906147e9565b613d7691906147e9565b613d8091906145f1565b613d8a9190614843565b613d949190614647565b9250505092915050565b600080613dd4600b54600054600554600c54600054671bc16d674ec80000613dc69190614843565b600654600954600a54614042565b9050601c5481600254613de791906147e9565b613df19190614647565b91505090565b600081856008613e0791906147e9565b613e1191906147e9565b613eaa670de0b6b3a7640000858687613e2a91906147e9565b613e3491906147e9565b6000613e409190614843565b85896010613e4e91906147e9565b613e5891906147e9565b613e6291906147e9565b613e6c91906147e9565b60028586896004613e7d91906147e9565b613e8791906147e9565b613e9191906147e9565b613e9b91906146cb565b613ea59190614843565b613fc8565b8384876004613eb991906147e9565b613ec391906147e9565b613ecd91906147e9565b6000613ed99190614843565b613ee391906145f1565b613eed9190614647565b9050949350505050565b60008284613f059190614843565b670de0b6b3a7640000846002613f1b91906147e9565b85876004878889613f2c91906147e9565b613f3691906147e9565b613f409190614647565b613f4a9190614647565b613f549190614647565b613f5e9190614843565b613f6891906147e9565b613f729190614647565b90509392505050565b60008161e1008585613f8d91906145f1565b670de0b6b3a764000087613fa191906147e9565b613fab9190614647565b613fb59190614647565b613fbf91906145f1565b90509392505050565b6000600382111561402f5781905060006001600284613fe79190614647565b613ff191906145f1565b90505b8181101561402957809150600281828561400e9190614647565b61401891906145f1565b6140229190614647565b9050613ff4565b5061403d565b6000821461403c57600190505b5b919050565b6000614094614055848a8a868a8a6140a2565b760a70c3c40a64e6c51999090b65f67d924000000000000061407b8c8c8c8c8c8c6140a2565b61408591906147e9565b61408f9190614647565b6140fe565b905098975050505050505050565b600083878385876140b391906147e9565b6140bd91906147e9565b87898b6140ca91906147e9565b6140d491906147e9565b6140de91906145f1565b6140e891906147e9565b6140f291906147e9565b90509695505050505050565b6000600882111561417c578190506000600160038461411d9190614647565b61412791906145f1565b90505b8181101561417657809150600381600261414491906147e9565b828361415091906147e9565b8561415b9190614647565b61416591906145f1565b61416f9190614647565b905061412a565b5061418a565b6000821461418957600190505b5b919050565b506000815560010160009055565b6000813590506141ac816149f0565b92915050565b6000813590506141c181614a07565b92915050565b6000815190506141d681614a07565b92915050565b6000813590506141eb81614a1e565b92915050565b600080604083850312156142085761420761498c565b5b60006142168582860161419d565b92505060206142278582860161419d565b9150509250929050565b6000806000806080858703121561424b5761424a61498c565b5b60006142598782880161419d565b945050602061426a8782880161419d565b935050604061427b8782880161419d565b925050606061428c878288016141dc565b91505092959194509250565b600080604083850312156142af576142ae61498c565b5b60006142bd8582860161419d565b92505060206142ce858286016141b2565b9150509250929050565b600080604083850312156142ef576142ee61498c565b5b60006142fd8582860161419d565b925050602061430e858286016141dc565b9150509250929050565b60006020828403121561432e5761432d61498c565b5b600061433c848285016141c7565b91505092915050565b60006020828403121561435b5761435a61498c565b5b6000614369848285016141dc565b91505092915050565b60008060006060848603121561438b5761438a61498c565b5b6000614399868287016141dc565b93505060206143aa868287016141dc565b92505060406143bb8682870161419d565b9150509250925092565b600080600080608085870312156143df576143de61498c565b5b60006143ed878288016141dc565b94505060206143fe878288016141dc565b935050604061440f878288016141b2565b92505060606144208782880161419d565b91505092959194509250565b61443581614877565b82525050565b61444481614889565b82525050565b6000614455826145ca565b61445f81856145d5565b935061446f8185602086016148cc565b80840191505092915050565b6000614488600f836145e0565b91506144938261499e565b602082019050919050565b60006144ab6006836145e0565b91506144b6826149c7565b602082019050919050565b6144ca816148b5565b82525050565b60006144dc828461444a565b915081905092915050565b60006020820190506144fc600083018461442c565b92915050565b6000604082019050614517600083018561442c565b61452460208301846144c1565b9392505050565b6000602082019050614540600083018461443b565b92915050565b6000602082019050818103600083015261455f8161447b565b9050919050565b6000602082019050818103600083015261457f8161449e565b9050919050565b600060208201905061459b60008301846144c1565b92915050565b60006040820190506145b660008301856144c1565b6145c360208301846144c1565b9392505050565b600081519050919050565b600081905092915050565b600082825260208201905092915050565b60006145fc826148b5565b9150614607836148b5565b9250827fffffffffffffffffffffffffffffffffffffffffffffffffffffffffffffffff0382111561463c5761463b6148ff565b5b828201905092915050565b6000614652826148b5565b915061465d836148b5565b92508261466d5761466c61492e565b5b828204905092915050565b6000808291508390505b60018511156146c25780860481111561469e5761469d6148ff565b5b60018516156146ad5780820291505b80810290506146bb85614991565b9450614682565b94509492505050565b60006146d6826148b5565b91506146e1836148bf565b925061470e7fffffffffffffffffffffffffffffffffffffffffffffffffffffffffffffffff8484614716565b905092915050565b60008261472657600190506147e2565b8161473457600090506147e2565b816001811461474a576002811461475457614783565b60019150506147e2565b60ff841115614766576147656148ff565b5b8360020a91508482111561477d5761477c6148ff565b5b506147e2565b5060208310610133831016604e8410600b84101617156147b85782820a9050838111156147b3576147b26148ff565b5b6147e2565b6147c58484846001614678565b925090508184048111156147dc576147db6148ff565b5b81810290505b9392505050565b60006147f4826148b5565b91506147ff836148b5565b9250817fffffffffffffffffffffffffffffffffffffffffffffffffffffffffffffffff0483118215151615614838576148376148ff565b5b828202905092915050565b600061484e826148b5565b9150614859836148b5565b92508282101561486c5761486b6148ff565b5b828203905092915050565b600061488282614895565b9050919050565b60008115159050919050565b600073ffffffffffffffffffffffffffffffffffffffff82169050919050565b6000819050919050565b600060ff82169050919050565b60005b838110156148ea5780820151818401526020810190506148cf565b838111156148f9576000848401525b50505050565b7f4e487b7100000000000000000000000000000000000000000000000000000000600052601160045260246000fd5b7f4e487b7100000000000000000000000000000000000000000000000000000000600052601260045260246000fd5b7f4e487b7100000000000000000000000000000000000000000000000000000000600052603260045260246000fd5b600080fd5b60008160011c9050919050565b7f5452414e534645525f4641494c45440000000000000000000000000000000000600082015250565b7f4c4f434b45440000000000000000000000000000000000000000000000000000600082015250565b6149f981614877565b8114614a0457600080fd5b50565b614a1081614889565b8114614a1b57600080fd5b50565b614a27816148b5565b8114614a3257600080fd5b5056fea2646970667358221220b0fae101f94c3b8f71c94d0484b132b3c8a75290a2a74c525f0ab681b3c9ebe964736f6c63430008070033",
			"opcodes": "PUSH1 0x80 PUSH1 0x40 MSTORE PUSH8 0xDE0B6B3A7640000 PUSH1 0x1C SSTORE PUSH1 0x1 PUSH1 0x24 SSTORE PUSH1 0x0 PUSH1 0x25 PUSH1 0x0 PUSH2 0x100 EXP DUP2 SLOAD DUP2 PUSH1 0xFF MUL NOT AND SWAP1 DUP4 PUSH1 0xFF AND MUL OR SWAP1 SSTORE POP CALLVALUE DUP1 ISZERO PUSH2 0x3D JUMPI PUSH1 0x0 DUP1 REVERT JUMPDEST POP PUSH2 0x4A6B DUP1 PUSH2 0x4D PUSH1 0x0 CODECOPY PUSH1 0x0 RETURN INVALID PUSH1 0x80 PUSH1 0x40 MSTORE CALLVALUE DUP1 ISZERO PUSH2 0x10 JUMPI PUSH1 0x0 DUP1 REVERT JUMPDEST POP PUSH1 0x4 CALLDATASIZE LT PUSH2 0x274 JUMPI PUSH1 0x0 CALLDATALOAD PUSH1 0xE0 SHR DUP1 PUSH4 0x7E11939A GT PUSH2 0x151 JUMPI DUP1 PUSH4 0xBE6571AA GT PUSH2 0xC3 JUMPI DUP1 PUSH4 0xEF0348FD GT PUSH2 0x87 JUMPI DUP1 PUSH4 0xEF0348FD EQ PUSH2 0x71C JUMPI DUP1 PUSH4 0xF13C7AED EQ PUSH2 0x73A JUMPI DUP1 PUSH4 0xF738C74E EQ PUSH2 0x758 JUMPI DUP1 PUSH4 0xF8BCF560 EQ PUSH2 0x776 JUMPI DUP1 PUSH4 0xF92E82B0 EQ PUSH2 0x792 JUMPI DUP1 PUSH4 0xFCBC49A0 EQ PUSH2 0x7B0 JUMPI PUSH2 0x274 JUMP JUMPDEST DUP1 PUSH4 0xBE6571AA EQ PUSH2 0x686 JUMPI DUP1 PUSH4 0xC45A0155 EQ PUSH2 0x6A4 JUMPI DUP1 PUSH4 0xC556C363 EQ PUSH2 0x6C2 JUMPI DUP1 PUSH4 0xD873FA7B EQ PUSH2 0x6E0 JUMPI DUP1 PUSH4 0xE159394F EQ PUSH2 0x6FE JUMPI PUSH2 0x274 JUMP JUMPDEST DUP1 PUSH4 0xA01FBBF5 GT PUSH2 0x115 JUMPI DUP1 PUSH4 0xA01FBBF5 EQ PUSH2 0x5D2 JUMPI DUP1 PUSH4 0xA37B1918 EQ PUSH2 0x5F0 JUMPI DUP1 PUSH4 0xA71E8644 EQ PUSH2 0x60E JUMPI DUP1 PUSH4 0xA79E6F9C EQ PUSH2 0x62C JUMPI DUP1 PUSH4 0xB7D19FC4 EQ PUSH2 0x64A JUMPI DUP1 PUSH4 0xB868504B EQ PUSH2 0x668 JUMPI PUSH2 0x274 JUMP JUMPDEST DUP1 PUSH4 0x7E11939A EQ PUSH2 0x53E JUMPI DUP1 PUSH4 0x803042AC EQ PUSH2 0x55C JUMPI DUP1 PUSH4 0x86B9D81F EQ PUSH2 0x57A JUMPI DUP1 PUSH4 0x8C4008E9 EQ PUSH2 0x596 JUMPI DUP1 PUSH4 0x8CA63E6F EQ PUSH2 0x5B4 JUMPI PUSH2 0x274 JUMP JUMPDEST DUP1 PUSH4 0x5091FADD GT PUSH2 0x1EA JUMPI DUP1 PUSH4 0x6BF8BE75 GT PUSH2 0x1AE JUMPI DUP1 PUSH4 0x6BF8BE75 EQ PUSH2 0x48E JUMPI DUP1 PUSH4 0x713370FC EQ PUSH2 0x4AA JUMPI DUP1 PUSH4 0x748F00DC EQ PUSH2 0x4C8 JUMPI DUP1 PUSH4 0x77FEF068 EQ PUSH2 0x4E4 JUMPI DUP1 PUSH4 0x7B7C1F4C EQ PUSH2 0x502 JUMPI DUP1 PUSH4 0x7BB62450 EQ PUSH2 0x520 JUMPI PUSH2 0x274 JUMP JUMPDEST DUP1 PUSH4 0x5091FADD EQ PUSH2 0x3FA JUMPI DUP1 PUSH4 0x54CF2AEB EQ PUSH2 0x418 JUMPI DUP1 PUSH4 0x5784C8C4 EQ PUSH2 0x436 JUMPI DUP1 PUSH4 0x617D3B90 EQ PUSH2 0x454 JUMPI DUP1 PUSH4 0x62AB1A77 EQ PUSH2 0x470 JUMPI PUSH2 0x274 JUMP JUMPDEST DUP1 PUSH4 0x29BAF8D9 GT PUSH2 0x23C JUMPI DUP1 PUSH4 0x29BAF8D9 EQ PUSH2 0x321 JUMPI DUP1 PUSH4 0x2C4426AD EQ PUSH2 0x33F JUMPI DUP1 PUSH4 0x31FA66B2 EQ PUSH2 0x370 JUMPI DUP1 PUSH4 0x321D7FA9 EQ PUSH2 0x38E JUMPI DUP1 PUSH4 0x32E7C5BF EQ PUSH2 0x3AC JUMPI DUP1 PUSH4 0x367401DB EQ PUSH2 0x3CA JUMPI PUSH2 0x274 JUMP JUMPDEST DUP1 PUSH4 0x751A6C8 EQ PUSH2 0x279 JUMPI DUP1 PUSH4 0xE449559 EQ PUSH2 0x297 JUMPI DUP1 PUSH4 0xF529BA2 EQ PUSH2 0x2C7 JUMPI DUP1 PUSH4 0x15770F92 EQ PUSH2 0x2E5 JUMPI DUP1 PUSH4 0x16DC165B EQ PUSH2 0x303 JUMPI JUMPDEST PUSH1 0x0 DUP1 REVERT JUMPDEST PUSH2 0x281 PUSH2 0x7CE JUMP JUMPDEST PUSH1 0x40 MLOAD PUSH2 0x28E SWAP2 SWAP1 PUSH2 0x4586 JUMP JUMPDEST PUSH1 0x40 MLOAD DUP1 SWAP2 SUB SWAP1 RETURN JUMPDEST PUSH2 0x2B1 PUSH1 0x4 DUP1 CALLDATASIZE SUB DUP2 ADD SWAP1 PUSH2 0x2AC SWAP2 SWAP1 PUSH2 0x4345 JUMP JUMPDEST PUSH2 0x7D4 JUMP JUMPDEST PUSH1 0x40 MLOAD PUSH2 0x2BE SWAP2 SWAP1 PUSH2 0x4586 JUMP JUMPDEST PUSH1 0x40 MLOAD DUP1 SWAP2 SUB SWAP1 RETURN JUMPDEST PUSH2 0x2CF PUSH2 0x7EF JUMP JUMPDEST PUSH1 0x40 MLOAD PUSH2 0x2DC SWAP2 SWAP1 PUSH2 0x4586 JUMP JUMPDEST PUSH1 0x40 MLOAD DUP1 SWAP2 SUB SWAP1 RETURN JUMPDEST PUSH2 0x2ED PUSH2 0x7F5 JUMP JUMPDEST PUSH1 0x40 MLOAD PUSH2 0x2FA SWAP2 SWAP1 PUSH2 0x4586 JUMP JUMPDEST PUSH1 0x40 MLOAD DUP1 SWAP2 SUB SWAP1 RETURN JUMPDEST PUSH2 0x30B PUSH2 0x7FB JUMP JUMPDEST PUSH1 0x40 MLOAD PUSH2 0x318 SWAP2 SWAP1 PUSH2 0x44E7 JUMP JUMPDEST PUSH1 0x40 MLOAD DUP1 SWAP2 SUB SWAP1 RETURN JUMPDEST PUSH2 0x329 PUSH2 0x821 JUMP JUMPDEST PUSH1 0x40 MLOAD PUSH2 0x336 SWAP2 SWAP1 PUSH2 0x4586 JUMP JUMPDEST PUSH1 0x40 MLOAD DUP1 SWAP2 SUB SWAP1 RETURN JUMPDEST PUSH2 0x359 PUSH1 0x4 DUP1 CALLDATASIZE SUB DUP2 ADD SWAP1 PUSH2 0x354 SWAP2 SWAP1 PUSH2 0x4298 JUMP JUMPDEST PUSH2 0x827 JUMP JUMPDEST PUSH1 0x40 MLOAD PUSH2 0x367 SWAP3 SWAP2 SWAP1 PUSH2 0x45A1 JUMP JUMPDEST PUSH1 0x40 MLOAD DUP1 SWAP2 SUB SWAP1 RETURN JUMPDEST PUSH2 0x378 PUSH2 0x858 JUMP JUMPDEST PUSH1 0x40 MLOAD PUSH2 0x385 SWAP2 SWAP1 PUSH2 0x452B JUMP JUMPDEST PUSH1 0x40 MLOAD DUP1 SWAP2 SUB SWAP1 RETURN JUMPDEST PUSH2 0x396 PUSH2 0x86B JUMP JUMPDEST PUSH1 0x40 MLOAD PUSH2 0x3A3 SWAP2 SWAP1 PUSH2 0x4586 JUMP JUMPDEST PUSH1 0x40 MLOAD DUP1 SWAP2 SUB SWAP1 RETURN JUMPDEST PUSH2 0x3B4 PUSH2 0x871 JUMP JUMPDEST PUSH1 0x40 MLOAD PUSH2 0x3C1 SWAP2 SWAP1 PUSH2 0x4586 JUMP JUMPDEST PUSH1 0x40 MLOAD DUP1 SWAP2 SUB SWAP1 RETURN JUMPDEST PUSH2 0x3E4 PUSH1 0x4 DUP1 CALLDATASIZE SUB DUP2 ADD SWAP1 PUSH2 0x3DF SWAP2 SWAP1 PUSH2 0x42D8 JUMP JUMPDEST PUSH2 0x877 JUMP JUMPDEST PUSH1 0x40 MLOAD PUSH2 0x3F1 SWAP2 SWAP1 PUSH2 0x4586 JUMP JUMPDEST PUSH1 0x40 MLOAD DUP1 SWAP2 SUB SWAP1 RETURN JUMPDEST PUSH2 0x402 PUSH2 0x89F JUMP JUMPDEST PUSH1 0x40 MLOAD PUSH2 0x40F SWAP2 SWAP1 PUSH2 0x4586 JUMP JUMPDEST PUSH1 0x40 MLOAD DUP1 SWAP2 SUB SWAP1 RETURN JUMPDEST PUSH2 0x420 PUSH2 0x8A5 JUMP JUMPDEST PUSH1 0x40 MLOAD PUSH2 0x42D SWAP2 SWAP1 PUSH2 0x4586 JUMP JUMPDEST PUSH1 0x40 MLOAD DUP1 SWAP2 SUB SWAP1 RETURN JUMPDEST PUSH2 0x43E PUSH2 0x8AB JUMP JUMPDEST PUSH1 0x40 MLOAD PUSH2 0x44B SWAP2 SWAP1 PUSH2 0x4586 JUMP JUMPDEST PUSH1 0x40 MLOAD DUP1 SWAP2 SUB SWAP1 RETURN JUMPDEST PUSH2 0x46E PUSH1 0x4 DUP1 CALLDATASIZE SUB DUP2 ADD SWAP1 PUSH2 0x469 SWAP2 SWAP1 PUSH2 0x4372 JUMP JUMPDEST PUSH2 0x8B1 JUMP JUMPDEST STOP JUMPDEST PUSH2 0x478 PUSH2 0x17C8 JUMP JUMPDEST PUSH1 0x40 MLOAD PUSH2 0x485 SWAP2 SWAP1 PUSH2 0x44E7 JUMP JUMPDEST PUSH1 0x40 MLOAD DUP1 SWAP2 SUB SWAP1 RETURN JUMPDEST PUSH2 0x4A8 PUSH1 0x4 DUP1 CALLDATASIZE SUB DUP2 ADD SWAP1 PUSH2 0x4A3 SWAP2 SWAP1 PUSH2 0x4231 JUMP JUMPDEST PUSH2 0x17EE JUMP JUMPDEST STOP JUMPDEST PUSH2 0x4B2 PUSH2 0x1ABF JUMP JUMPDEST PUSH1 0x40 MLOAD PUSH2 0x4BF SWAP2 SWAP1 PUSH2 0x4586 JUMP JUMPDEST PUSH1 0x40 MLOAD DUP1 SWAP2 SUB SWAP1 RETURN JUMPDEST PUSH2 0x4E2 PUSH1 0x4 DUP1 CALLDATASIZE SUB DUP2 ADD SWAP1 PUSH2 0x4DD SWAP2 SWAP1 PUSH2 0x43C5 JUMP JUMPDEST PUSH2 0x1AC5 JUMP JUMPDEST STOP JUMPDEST PUSH2 0x4EC PUSH2 0x254E JUMP JUMPDEST PUSH1 0x40 MLOAD PUSH2 0x4F9 SWAP2 SWAP1 PUSH2 0x4586 JUMP JUMPDEST PUSH1 0x40 MLOAD DUP1 SWAP2 SUB SWAP1 RETURN JUMPDEST PUSH2 0x50A PUSH2 0x2554 JUMP JUMPDEST PUSH1 0x40 MLOAD PUSH2 0x517 SWAP2 SWAP1 PUSH2 0x4586 JUMP JUMPDEST PUSH1 0x40 MLOAD DUP1 SWAP2 SUB SWAP1 RETURN JUMPDEST PUSH2 0x528 PUSH2 0x255A JUMP JUMPDEST PUSH1 0x40 MLOAD PUSH2 0x535 SWAP2 SWAP1 PUSH2 0x4586 JUMP JUMPDEST PUSH1 0x40 MLOAD DUP1 SWAP2 SUB SWAP1 RETURN JUMPDEST PUSH2 0x546 PUSH2 0x2560 JUMP JUMPDEST PUSH1 0x40 MLOAD PUSH2 0x553 SWAP2 SWAP1 PUSH2 0x4586 JUMP JUMPDEST PUSH1 0x40 MLOAD DUP1 SWAP2 SUB SWAP1 RETURN JUMPDEST PUSH2 0x564 PUSH2 0x2566 JUMP JUMPDEST PUSH1 0x40 MLOAD PUSH2 0x571 SWAP2 SWAP1 PUSH2 0x4586 JUMP JUMPDEST PUSH1 0x40 MLOAD DUP1 SWAP2 SUB SWAP1 RETURN JUMPDEST PUSH2 0x594 PUSH1 0x4 DUP1 CALLDATASIZE SUB DUP2 ADD SWAP1 PUSH2 0x58F SWAP2 SWAP1 PUSH2 0x41F1 JUMP JUMPDEST PUSH2 0x256C JUMP JUMPDEST STOP JUMPDEST PUSH2 0x59E PUSH2 0x291D JUMP JUMPDEST PUSH1 0x40 MLOAD PUSH2 0x5AB SWAP2 SWAP1 PUSH2 0x4586 JUMP JUMPDEST PUSH1 0x40 MLOAD DUP1 SWAP2 SUB SWAP1 RETURN JUMPDEST PUSH2 0x5BC PUSH2 0x2923 JUMP JUMPDEST PUSH1 0x40 MLOAD PUSH2 0x5C9 SWAP2 SWAP1 PUSH2 0x4586 JUMP JUMPDEST PUSH1 0x40 MLOAD DUP1 SWAP2 SUB SWAP1 RETURN JUMPDEST PUSH2 0x5DA PUSH2 0x2929 JUMP JUMPDEST PUSH1 0x40 MLOAD PUSH2 0x5E7 SWAP2 SWAP1 PUSH2 0x4586 JUMP JUMPDEST PUSH1 0x40 MLOAD DUP1 SWAP2 SUB SWAP1 RETURN JUMPDEST PUSH2 0x5F8 PUSH2 0x292F JUMP JUMPDEST PUSH1 0x40 MLOAD PUSH2 0x605 SWAP2 SWAP1 PUSH2 0x4586 JUMP JUMPDEST PUSH1 0x40 MLOAD DUP1 SWAP2 SUB SWAP1 RETURN JUMPDEST PUSH2 0x616 PUSH2 0x2935 JUMP JUMPDEST PUSH1 0x40 MLOAD PUSH2 0x623 SWAP2 SWAP1 PUSH2 0x4586 JUMP JUMPDEST PUSH1 0x40 MLOAD DUP1 SWAP2 SUB SWAP1 RETURN JUMPDEST PUSH2 0x634 PUSH2 0x293B JUMP JUMPDEST PUSH1 0x40 MLOAD PUSH2 0x641 SWAP2 SWAP1 PUSH2 0x452B JUMP JUMPDEST PUSH1 0x40 MLOAD DUP1 SWAP2 SUB SWAP1 RETURN JUMPDEST PUSH2 0x652 PUSH2 0x294E JUMP JUMPDEST PUSH1 0x40 MLOAD PUSH2 0x65F SWAP2 SWAP1 PUSH2 0x44E7 JUMP JUMPDEST PUSH1 0x40 MLOAD DUP1 SWAP2 SUB SWAP1 RETURN JUMPDEST PUSH2 0x670 PUSH2 0x2974 JUMP JUMPDEST PUSH1 0x40 MLOAD PUSH2 0x67D SWAP2 SWAP1 PUSH2 0x4586 JUMP JUMPDEST PUSH1 0x40 MLOAD DUP1 SWAP2 SUB SWAP1 RETURN JUMPDEST PUSH2 0x68E PUSH2 0x297A JUMP JUMPDEST PUSH1 0x40 MLOAD PUSH2 0x69B SWAP2 SWAP1 PUSH2 0x4586 JUMP JUMPDEST PUSH1 0x40 MLOAD DUP1 SWAP2 SUB SWAP1 RETURN JUMPDEST PUSH2 0x6AC PUSH2 0x2980 JUMP JUMPDEST PUSH1 0x40 MLOAD PUSH2 0x6B9 SWAP2 SWAP1 PUSH2 0x44E7 JUMP JUMPDEST PUSH1 0x40 MLOAD DUP1 SWAP2 SUB SWAP1 RETURN JUMPDEST PUSH2 0x6CA PUSH2 0x29A6 JUMP JUMPDEST PUSH1 0x40 MLOAD PUSH2 0x6D7 SWAP2 SWAP1 PUSH2 0x4586 JUMP JUMPDEST PUSH1 0x40 MLOAD DUP1 SWAP2 SUB SWAP1 RETURN JUMPDEST PUSH2 0x6E8 PUSH2 0x29AC JUMP JUMPDEST PUSH1 0x40 MLOAD PUSH2 0x6F5 SWAP2 SWAP1 PUSH2 0x4586 JUMP JUMPDEST PUSH1 0x40 MLOAD DUP1 SWAP2 SUB SWAP1 RETURN JUMPDEST PUSH2 0x706 PUSH2 0x29B2 JUMP JUMPDEST PUSH1 0x40 MLOAD PUSH2 0x713 SWAP2 SWAP1 PUSH2 0x4586 JUMP JUMPDEST PUSH1 0x40 MLOAD DUP1 SWAP2 SUB SWAP1 RETURN JUMPDEST PUSH2 0x724 PUSH2 0x29B8 JUMP JUMPDEST PUSH1 0x40 MLOAD PUSH2 0x731 SWAP2 SWAP1 PUSH2 0x4586 JUMP JUMPDEST PUSH1 0x40 MLOAD DUP1 SWAP2 SUB SWAP1 RETURN JUMPDEST PUSH2 0x742 PUSH2 0x29BE JUMP JUMPDEST PUSH1 0x40 MLOAD PUSH2 0x74F SWAP2 SWAP1 PUSH2 0x4586 JUMP JUMPDEST PUSH1 0x40 MLOAD DUP1 SWAP2 SUB SWAP1 RETURN JUMPDEST PUSH2 0x760 PUSH2 0x29C4 JUMP JUMPDEST PUSH1 0x40 MLOAD PUSH2 0x76D SWAP2 SWAP1 PUSH2 0x4586 JUMP JUMPDEST PUSH1 0x40 MLOAD DUP1 SWAP2 SUB SWAP1 RETURN JUMPDEST PUSH2 0x790 PUSH1 0x4 DUP1 CALLDATASIZE SUB DUP2 ADD SWAP1 PUSH2 0x78B SWAP2 SWAP1 PUSH2 0x4372 JUMP JUMPDEST PUSH2 0x29CA JUMP JUMPDEST STOP JUMPDEST PUSH2 0x79A PUSH2 0x2A99 JUMP JUMPDEST PUSH1 0x40 MLOAD PUSH2 0x7A7 SWAP2 SWAP1 PUSH2 0x4586 JUMP JUMPDEST PUSH1 0x40 MLOAD DUP1 SWAP2 SUB SWAP1 RETURN JUMPDEST PUSH2 0x7B8 PUSH2 0x2A9F JUMP JUMPDEST PUSH1 0x40 MLOAD PUSH2 0x7C5 SWAP2 SWAP1 PUSH2 0x4586 JUMP JUMPDEST PUSH1 0x40 MLOAD DUP1 SWAP2 SUB SWAP1 RETURN JUMPDEST PUSH1 0x11 SLOAD DUP2 JUMP JUMPDEST PUSH1 0x26 DUP2 PUSH1 0x2 DUP2 LT PUSH2 0x7E4 JUMPI PUSH1 0x0 DUP1 REVERT JUMPDEST ADD PUSH1 0x0 SWAP2 POP SWAP1 POP SLOAD DUP2 JUMP JUMPDEST PUSH1 0x1 SLOAD DUP2 JUMP JUMPDEST PUSH1 0x1A SLOAD DUP2 JUMP JUMPDEST PUSH1 0x17 PUSH1 0x0 SWAP1 SLOAD SWAP1 PUSH2 0x100 EXP SWAP1 DIV PUSH20 0xFFFFFFFFFFFFFFFFFFFFFFFFFFFFFFFFFFFFFFFF AND DUP2 JUMP JUMPDEST PUSH1 0xD SLOAD DUP2 JUMP JUMPDEST PUSH1 0x28 PUSH1 0x20 MSTORE DUP2 PUSH1 0x0 MSTORE PUSH1 0x40 PUSH1 0x0 KECCAK256 PUSH1 0x20 MSTORE DUP1 PUSH1 0x0 MSTORE PUSH1 0x40 PUSH1 0x0 KECCAK256 PUSH1 0x0 SWAP2 POP SWAP2 POP POP DUP1 PUSH1 0x0 ADD SLOAD SWAP1 DUP1 PUSH1 0x1 ADD SLOAD SWAP1 POP DUP3 JUMP JUMPDEST PUSH1 0x23 PUSH1 0x0 SWAP1 SLOAD SWAP1 PUSH2 0x100 EXP SWAP1 DIV PUSH1 0xFF AND DUP2 JUMP JUMPDEST PUSH1 0x13 SLOAD DUP2 JUMP JUMPDEST PUSH1 0x0 SLOAD DUP2 JUMP JUMPDEST PUSH1 0x29 PUSH1 0x20 MSTORE DUP2 PUSH1 0x0 MSTORE PUSH1 0x40 PUSH1 0x0 KECCAK256 DUP2 PUSH1 0x2 DUP2 LT PUSH2 0x893 JUMPI PUSH1 0x0 DUP1 REVERT JUMPDEST ADD PUSH1 0x0 SWAP2 POP SWAP2 POP POP SLOAD DUP2 JUMP JUMPDEST PUSH1 0xC SLOAD DUP2 JUMP JUMPDEST PUSH1 0x21 SLOAD DUP2 JUMP JUMPDEST PUSH1 0x22 SLOAD DUP2 JUMP JUMPDEST PUSH1 0x1 PUSH1 0x24 SLOAD EQ PUSH2 0x8F6 JUMPI PUSH1 0x40 MLOAD PUSH32 0x8C379A000000000000000000000000000000000000000000000000000000000 DUP2 MSTORE PUSH1 0x4 ADD PUSH2 0x8ED SWAP1 PUSH2 0x4566 JUMP JUMPDEST PUSH1 0x40 MLOAD DUP1 SWAP2 SUB SWAP1 REVERT JUMPDEST PUSH1 0x0 PUSH1 0x24 DUP2 SWAP1 SSTORE POP PUSH1 0x0 DUP3 DUP5 PUSH2 0x90C SWAP2 SWAP1 PUSH2 0x47E9 JUMP JUMPDEST EQ DUP1 ISZERO PUSH2 0x924 JUMPI POP PUSH1 0x0 DUP3 DUP5 PUSH2 0x922 SWAP2 SWAP1 PUSH2 0x45F1 JUMP JUMPDEST GT JUMPDEST DUP1 ISZERO PUSH2 0x952 JUMPI POP PUSH2 0x934 DUP2 PUSH2 0x2AA5 JUMP JUMPDEST PUSH2 0x93D DUP3 PUSH2 0x2B99 JUMP JUMPDEST PUSH2 0x946 DUP4 PUSH2 0x2C71 JUMP JUMPDEST PUSH2 0x950 SWAP2 SWAP1 PUSH2 0x45F1 JUMP JUMPDEST GT JUMPDEST DUP1 ISZERO PUSH2 0x9B5 JUMPI POP PUSH1 0x28 PUSH1 0x0 DUP3 PUSH20 0xFFFFFFFFFFFFFFFFFFFFFFFFFFFFFFFFFFFFFFFF AND PUSH20 0xFFFFFFFFFFFFFFFFFFFFFFFFFFFFFFFFFFFFFFFF AND DUP2 MSTORE PUSH1 0x20 ADD SWAP1 DUP2 MSTORE PUSH1 0x20 ADD PUSH1 0x0 KECCAK256 PUSH1 0x0 DUP1 ISZERO ISZERO ISZERO ISZERO DUP2 MSTORE PUSH1 0x20 ADD SWAP1 DUP2 MSTORE PUSH1 0x20 ADD PUSH1 0x0 KECCAK256 PUSH1 0x1 ADD SLOAD DUP4 GT ISZERO JUMPDEST DUP1 ISZERO PUSH2 0xA19 JUMPI POP PUSH1 0x28 PUSH1 0x0 DUP3 PUSH20 0xFFFFFFFFFFFFFFFFFFFFFFFFFFFFFFFFFFFFFFFF AND PUSH20 0xFFFFFFFFFFFFFFFFFFFFFFFFFFFFFFFFFFFFFFFF AND DUP2 MSTORE PUSH1 0x20 ADD SWAP1 DUP2 MSTORE PUSH1 0x20 ADD PUSH1 0x0 KECCAK256 PUSH1 0x0 PUSH1 0x1 ISZERO ISZERO ISZERO ISZERO DUP2 MSTORE PUSH1 0x20 ADD SWAP1 DUP2 MSTORE PUSH1 0x20 ADD PUSH1 0x0 KECCAK256 PUSH1 0x1 ADD SLOAD DUP3 GT ISZERO JUMPDEST PUSH2 0xA22 JUMPI PUSH1 0x0 DUP1 REVERT JUMPDEST PUSH2 0xA2A PUSH2 0x2D40 JUMP JUMPDEST PUSH1 0x0 DUP4 GT ISZERO PUSH2 0x115F JUMPI PUSH1 0x0 PUSH2 0xA42 DUP5 PUSH1 0x1 PUSH1 0x0 PUSH2 0x2EBE JUMP JUMPDEST SWAP1 POP PUSH1 0x0 PUSH2 0xB06 DUP6 PUSH1 0x28 PUSH1 0x0 DUP7 PUSH20 0xFFFFFFFFFFFFFFFFFFFFFFFFFFFFFFFFFFFFFFFF AND PUSH20 0xFFFFFFFFFFFFFFFFFFFFFFFFFFFFFFFFFFFFFFFF AND DUP2 MSTORE PUSH1 0x20 ADD SWAP1 DUP2 MSTORE PUSH1 0x20 ADD PUSH1 0x0 KECCAK256 PUSH1 0x0 PUSH1 0x1 ISZERO ISZERO ISZERO ISZERO DUP2 MSTORE PUSH1 0x20 ADD SWAP1 DUP2 MSTORE PUSH1 0x20 ADD PUSH1 0x0 KECCAK256 PUSH1 0x0 ADD SLOAD PUSH1 0xF SLOAD PUSH1 0x11 SLOAD PUSH1 0x28 PUSH1 0x0 DUP10 PUSH20 0xFFFFFFFFFFFFFFFFFFFFFFFFFFFFFFFFFFFFFFFF AND PUSH20 0xFFFFFFFFFFFFFFFFFFFFFFFFFFFFFFFFFFFFFFFF AND DUP2 MSTORE PUSH1 0x20 ADD SWAP1 DUP2 MSTORE PUSH1 0x20 ADD PUSH1 0x0 KECCAK256 PUSH1 0x0 DUP1 ISZERO ISZERO ISZERO ISZERO DUP2 MSTORE PUSH1 0x20 ADD SWAP1 DUP2 MSTORE PUSH1 0x20 ADD PUSH1 0x0 KECCAK256 PUSH1 0x1 ADD SLOAD PUSH2 0x32BB JUMP JUMPDEST SWAP1 POP DUP5 PUSH1 0x28 PUSH1 0x0 DUP6 PUSH20 0xFFFFFFFFFFFFFFFFFFFFFFFFFFFFFFFFFFFFFFFF AND PUSH20 0xFFFFFFFFFFFFFFFFFFFFFFFFFFFFFFFFFFFFFFFF AND DUP2 MSTORE PUSH1 0x20 ADD SWAP1 DUP2 MSTORE PUSH1 0x20 ADD PUSH1 0x0 KECCAK256 PUSH1 0x0 DUP1 ISZERO ISZERO ISZERO ISZERO DUP2 MSTORE PUSH1 0x20 ADD SWAP1 DUP2 MSTORE PUSH1 0x20 ADD PUSH1 0x0 KECCAK256 PUSH1 0x1 ADD PUSH1 0x0 DUP3 DUP3 SLOAD PUSH2 0xB6F SWAP2 SWAP1 PUSH2 0x4843 JUMP JUMPDEST SWAP3 POP POP DUP2 SWAP1 SSTORE POP DUP1 PUSH1 0xF PUSH1 0x0 DUP3 DUP3 SLOAD PUSH2 0xB88 SWAP2 SWAP1 PUSH2 0x4843 JUMP JUMPDEST SWAP3 POP POP DUP2 SWAP1 SSTORE POP PUSH2 0xC49 PUSH1 0x28 PUSH1 0x0 DUP6 PUSH20 0xFFFFFFFFFFFFFFFFFFFFFFFFFFFFFFFFFFFFFFFF AND PUSH20 0xFFFFFFFFFFFFFFFFFFFFFFFFFFFFFFFFFFFFFFFF AND DUP2 MSTORE PUSH1 0x20 ADD SWAP1 DUP2 MSTORE PUSH1 0x20 ADD PUSH1 0x0 KECCAK256 PUSH1 0x0 PUSH1 0x1 ISZERO ISZERO ISZERO ISZERO DUP2 MSTORE PUSH1 0x20 ADD SWAP1 DUP2 MSTORE PUSH1 0x20 ADD PUSH1 0x0 KECCAK256 PUSH1 0x0 ADD SLOAD DUP7 PUSH1 0x28 PUSH1 0x0 DUP8 PUSH20 0xFFFFFFFFFFFFFFFFFFFFFFFFFFFFFFFFFFFFFFFF AND PUSH20 0xFFFFFFFFFFFFFFFFFFFFFFFFFFFFFFFFFFFFFFFF AND DUP2 MSTORE PUSH1 0x20 ADD SWAP1 DUP2 MSTORE PUSH1 0x20 ADD PUSH1 0x0 KECCAK256 PUSH1 0x0 DUP1 ISZERO ISZERO ISZERO ISZERO DUP2 MSTORE PUSH1 0x20 ADD SWAP1 DUP2 MSTORE PUSH1 0x20 ADD PUSH1 0x0 KECCAK256 PUSH1 0x1 ADD SLOAD PUSH2 0x32F5 JUMP JUMPDEST PUSH1 0x11 PUSH1 0x0 DUP3 DUP3 SLOAD PUSH2 0xC5A SWAP2 SWAP1 PUSH2 0x4843 JUMP JUMPDEST SWAP3 POP POP DUP2 SWAP1 SSTORE POP PUSH2 0xD1B PUSH1 0x28 PUSH1 0x0 DUP6 PUSH20 0xFFFFFFFFFFFFFFFFFFFFFFFFFFFFFFFFFFFFFFFF AND PUSH20 0xFFFFFFFFFFFFFFFFFFFFFFFFFFFFFFFFFFFFFFFF AND DUP2 MSTORE PUSH1 0x20 ADD SWAP1 DUP2 MSTORE PUSH1 0x20 ADD PUSH1 0x0 KECCAK256 PUSH1 0x0 PUSH1 0x1 ISZERO ISZERO ISZERO ISZERO DUP2 MSTORE PUSH1 0x20 ADD SWAP1 DUP2 MSTORE PUSH1 0x20 ADD PUSH1 0x0 KECCAK256 PUSH1 0x0 ADD SLOAD DUP7 PUSH1 0x28 PUSH1 0x0 DUP8 PUSH20 0xFFFFFFFFFFFFFFFFFFFFFFFFFFFFFFFFFFFFFFFF AND PUSH20 0xFFFFFFFFFFFFFFFFFFFFFFFFFFFFFFFFFFFFFFFF AND DUP2 MSTORE PUSH1 0x20 ADD SWAP1 DUP2 MSTORE PUSH1 0x20 ADD PUSH1 0x0 KECCAK256 PUSH1 0x0 DUP1 ISZERO ISZERO ISZERO ISZERO DUP2 MSTORE PUSH1 0x20 ADD SWAP1 DUP2 MSTORE PUSH1 0x20 ADD PUSH1 0x0 KECCAK256 PUSH1 0x1 ADD SLOAD PUSH2 0x32F5 JUMP JUMPDEST PUSH1 0x28 PUSH1 0x0 DUP6 PUSH20 0xFFFFFFFFFFFFFFFFFFFFFFFFFFFFFFFFFFFFFFFF AND PUSH20 0xFFFFFFFFFFFFFFFFFFFFFFFFFFFFFFFFFFFFFFFF AND DUP2 MSTORE PUSH1 0x20 ADD SWAP1 DUP2 MSTORE PUSH1 0x20 ADD PUSH1 0x0 KECCAK256 PUSH1 0x0 PUSH1 0x1 ISZERO ISZERO ISZERO ISZERO DUP2 MSTORE PUSH1 0x20 ADD SWAP1 DUP2 MSTORE PUSH1 0x20 ADD PUSH1 0x0 KECCAK256 PUSH1 0x0 ADD PUSH1 0x0 DUP3 DUP3 SLOAD PUSH2 0xD82 SWAP2 SWAP1 PUSH2 0x4843 JUMP JUMPDEST SWAP3 POP POP DUP2 SWAP1 SSTORE POP DUP1 DUP3 GT DUP1 ISZERO PUSH2 0xDAB JUMPI POP PUSH1 0x0 ISZERO ISZERO PUSH1 0x23 PUSH1 0x0 SWAP1 SLOAD SWAP1 PUSH2 0x100 EXP SWAP1 DIV PUSH1 0xFF AND ISZERO ISZERO EQ JUMPDEST ISZERO PUSH2 0xE35 JUMPI PUSH2 0xDC7 DUP2 DUP4 PUSH2 0xDBF SWAP2 SWAP1 PUSH2 0x4843 JUMP JUMPDEST PUSH1 0x0 DUP1 PUSH2 0x3317 JUMP JUMPDEST PUSH1 0x29 PUSH1 0x0 DUP6 PUSH20 0xFFFFFFFFFFFFFFFFFFFFFFFFFFFFFFFFFFFFFFFF AND PUSH20 0xFFFFFFFFFFFFFFFFFFFFFFFFFFFFFFFFFFFFFFFF AND DUP2 MSTORE PUSH1 0x20 ADD SWAP1 DUP2 MSTORE PUSH1 0x20 ADD PUSH1 0x0 KECCAK256 PUSH1 0x0 PUSH1 0x2 DUP2 LT PUSH2 0xE19 JUMPI PUSH2 0xE18 PUSH2 0x495D JUMP JUMPDEST JUMPDEST ADD PUSH1 0x0 DUP3 DUP3 SLOAD PUSH2 0xE29 SWAP2 SWAP1 PUSH2 0x45F1 JUMP JUMPDEST SWAP3 POP POP DUP2 SWAP1 SSTORE POP PUSH2 0x1158 JUMP JUMPDEST DUP1 DUP3 PUSH1 0x29 PUSH1 0x0 DUP7 PUSH20 0xFFFFFFFFFFFFFFFFFFFFFFFFFFFFFFFFFFFFFFFF AND PUSH20 0xFFFFFFFFFFFFFFFFFFFFFFFFFFFFFFFFFFFFFFFF AND DUP2 MSTORE PUSH1 0x20 ADD SWAP1 DUP2 MSTORE PUSH1 0x20 ADD PUSH1 0x0 KECCAK256 PUSH1 0x1 PUSH1 0x2 DUP2 LT PUSH2 0xE89 JUMPI PUSH2 0xE88 PUSH2 0x495D JUMP JUMPDEST JUMPDEST ADD SLOAD PUSH2 0xE95 SWAP2 SWAP1 PUSH2 0x45F1 JUMP JUMPDEST GT DUP1 ISZERO PUSH2 0xEB5 JUMPI POP PUSH1 0x1 ISZERO ISZERO PUSH1 0x23 PUSH1 0x0 SWAP1 SLOAD SWAP1 PUSH2 0x100 EXP SWAP1 DIV PUSH1 0xFF AND ISZERO ISZERO EQ JUMPDEST ISZERO PUSH2 0xF80 JUMPI DUP1 DUP3 PUSH1 0x29 PUSH1 0x0 DUP7 PUSH20 0xFFFFFFFFFFFFFFFFFFFFFFFFFFFFFFFFFFFFFFFF AND PUSH20 0xFFFFFFFFFFFFFFFFFFFFFFFFFFFFFFFFFFFFFFFF AND DUP2 MSTORE PUSH1 0x20 ADD SWAP1 DUP2 MSTORE PUSH1 0x20 ADD PUSH1 0x0 KECCAK256 PUSH1 0x1 PUSH1 0x2 DUP2 LT PUSH2 0xF0E JUMPI PUSH2 0xF0D PUSH2 0x495D JUMP JUMPDEST JUMPDEST ADD SLOAD PUSH2 0xF1A SWAP2 SWAP1 PUSH2 0x45F1 JUMP JUMPDEST PUSH2 0xF24 SWAP2 SWAP1 PUSH2 0x4843 JUMP JUMPDEST PUSH1 0x29 PUSH1 0x0 DUP6 PUSH20 0xFFFFFFFFFFFFFFFFFFFFFFFFFFFFFFFFFFFFFFFF AND PUSH20 0xFFFFFFFFFFFFFFFFFFFFFFFFFFFFFFFFFFFFFFFF AND DUP2 MSTORE PUSH1 0x20 ADD SWAP1 DUP2 MSTORE PUSH1 0x20 ADD PUSH1 0x0 KECCAK256 PUSH1 0x1 PUSH1 0x2 DUP2 LT PUSH2 0xF76 JUMPI PUSH2 0xF75 PUSH2 0x495D JUMP JUMPDEST JUMPDEST ADD DUP2 SWAP1 SSTORE POP PUSH2 0x1157 JUMP JUMPDEST PUSH2 0x1048 PUSH1 0x29 PUSH1 0x0 DUP6 PUSH20 0xFFFFFFFFFFFFFFFFFFFFFFFFFFFFFFFFFFFFFFFF AND PUSH20 0xFFFFFFFFFFFFFFFFFFFFFFFFFFFFFFFFFFFFFFFF AND DUP2 MSTORE PUSH1 0x20 ADD SWAP1 DUP2 MSTORE PUSH1 0x20 ADD PUSH1 0x0 KECCAK256 PUSH1 0x0 PUSH1 0x2 DUP2 LT PUSH2 0xFD5 JUMPI PUSH2 0xFD4 PUSH2 0x495D JUMP JUMPDEST JUMPDEST ADD SLOAD PUSH1 0x0 PUSH1 0x29 PUSH1 0x0 DUP8 PUSH20 0xFFFFFFFFFFFFFFFFFFFFFFFFFFFFFFFFFFFFFFFF AND PUSH20 0xFFFFFFFFFFFFFFFFFFFFFFFFFFFFFFFFFFFFFFFF AND DUP2 MSTORE PUSH1 0x20 ADD SWAP1 DUP2 MSTORE PUSH1 0x20 ADD PUSH1 0x0 KECCAK256 PUSH1 0x1 PUSH1 0x2 DUP2 LT PUSH2 0x102B JUMPI PUSH2 0x102A PUSH2 0x495D JUMP JUMPDEST JUMPDEST ADD SLOAD DUP6 DUP6 PUSH2 0x1039 SWAP2 SWAP1 PUSH2 0x4843 JUMP JUMPDEST PUSH2 0x1043 SWAP2 SWAP1 PUSH2 0x4843 JUMP JUMPDEST PUSH2 0x2EBE JUMP JUMPDEST PUSH1 0x29 PUSH1 0x0 DUP6 PUSH20 0xFFFFFFFFFFFFFFFFFFFFFFFFFFFFFFFFFFFFFFFF AND PUSH20 0xFFFFFFFFFFFFFFFFFFFFFFFFFFFFFFFFFFFFFFFF AND DUP2 MSTORE PUSH1 0x20 ADD SWAP1 DUP2 MSTORE PUSH1 0x20 ADD PUSH1 0x0 KECCAK256 PUSH1 0x0 PUSH1 0x2 DUP2 LT PUSH2 0x109A JUMPI PUSH2 0x1099 PUSH2 0x495D JUMP JUMPDEST JUMPDEST ADD SLOAD PUSH2 0x10A6 SWAP2 SWAP1 PUSH2 0x4843 JUMP JUMPDEST PUSH1 0x29 PUSH1 0x0 DUP6 PUSH20 0xFFFFFFFFFFFFFFFFFFFFFFFFFFFFFFFFFFFFFFFF AND PUSH20 0xFFFFFFFFFFFFFFFFFFFFFFFFFFFFFFFFFFFFFFFF AND DUP2 MSTORE PUSH1 0x20 ADD SWAP1 DUP2 MSTORE PUSH1 0x20 ADD PUSH1 0x0 KECCAK256 PUSH1 0x0 PUSH1 0x2 DUP2 LT PUSH2 0x10F8 JUMPI PUSH2 0x10F7 PUSH2 0x495D JUMP JUMPDEST JUMPDEST ADD DUP2 SWAP1 SSTORE POP PUSH1 0x0 PUSH1 0x29 PUSH1 0x0 DUP6 PUSH20 0xFFFFFFFFFFFFFFFFFFFFFFFFFFFFFFFFFFFFFFFF AND PUSH20 0xFFFFFFFFFFFFFFFFFFFFFFFFFFFFFFFFFFFFFFFF AND DUP2 MSTORE PUSH1 0x20 ADD SWAP1 DUP2 MSTORE PUSH1 0x20 ADD PUSH1 0x0 KECCAK256 PUSH1 0x1 PUSH1 0x2 DUP2 LT PUSH2 0x1151 JUMPI PUSH2 0x1150 PUSH2 0x495D JUMP JUMPDEST JUMPDEST ADD DUP2 SWAP1 SSTORE POP JUMPDEST JUMPDEST POP POP PUSH2 0x17BB JUMP JUMPDEST PUSH1 0x0 PUSH2 0x116E DUP4 PUSH1 0x1 PUSH1 0x0 PUSH2 0x3317 JUMP JUMPDEST SWAP1 POP PUSH1 0x0 PUSH2 0x1232 DUP5 PUSH1 0x28 PUSH1 0x0 DUP7 PUSH20 0xFFFFFFFFFFFFFFFFFFFFFFFFFFFFFFFFFFFFFFFF AND PUSH20 0xFFFFFFFFFFFFFFFFFFFFFFFFFFFFFFFFFFFFFFFF AND DUP2 MSTORE PUSH1 0x20 ADD SWAP1 DUP2 MSTORE PUSH1 0x20 ADD PUSH1 0x0 KECCAK256 PUSH1 0x0 DUP1 ISZERO ISZERO ISZERO ISZERO DUP2 MSTORE PUSH1 0x20 ADD SWAP1 DUP2 MSTORE PUSH1 0x20 ADD PUSH1 0x0 KECCAK256 PUSH1 0x0 ADD SLOAD PUSH1 0xE SLOAD PUSH1 0x10 SLOAD PUSH1 0x28 PUSH1 0x0 DUP10 PUSH20 0xFFFFFFFFFFFFFFFFFFFFFFFFFFFFFFFFFFFFFFFF AND PUSH20 0xFFFFFFFFFFFFFFFFFFFFFFFFFFFFFFFFFFFFFFFF AND DUP2 MSTORE PUSH1 0x20 ADD SWAP1 DUP2 MSTORE PUSH1 0x20 ADD PUSH1 0x0 KECCAK256 PUSH1 0x0 PUSH1 0x1 ISZERO ISZERO ISZERO ISZERO DUP2 MSTORE PUSH1 0x20 ADD SWAP1 DUP2 MSTORE PUSH1 0x20 ADD PUSH1 0x0 KECCAK256 PUSH1 0x1 ADD SLOAD PUSH2 0x32BB JUMP JUMPDEST SWAP1 POP DUP4 PUSH1 0x28 PUSH1 0x0 DUP6 PUSH20 0xFFFFFFFFFFFFFFFFFFFFFFFFFFFFFFFFFFFFFFFF AND PUSH20 0xFFFFFFFFFFFFFFFFFFFFFFFFFFFFFFFFFFFFFFFF AND DUP2 MSTORE PUSH1 0x20 ADD SWAP1 DUP2 MSTORE PUSH1 0x20 ADD PUSH1 0x0 KECCAK256 PUSH1 0x0 PUSH1 0x1 ISZERO ISZERO ISZERO ISZERO DUP2 MSTORE PUSH1 0x20 ADD SWAP1 DUP2 MSTORE PUSH1 0x20 ADD PUSH1 0x0 KECCAK256 PUSH1 0x1 ADD PUSH1 0x0 DUP3 DUP3 SLOAD PUSH2 0x129C SWAP2 SWAP1 PUSH2 0x4843 JUMP JUMPDEST SWAP3 POP POP DUP2 SWAP1 SSTORE POP DUP1 PUSH1 0xE PUSH1 0x0 DUP3 DUP3 SLOAD PUSH2 0x12B5 SWAP2 SWAP1 PUSH2 0x4843 JUMP JUMPDEST SWAP3 POP POP DUP2 SWAP1 SSTORE POP PUSH2 0x1376 PUSH1 0x28 PUSH1 0x0 DUP6 PUSH20 0xFFFFFFFFFFFFFFFFFFFFFFFFFFFFFFFFFFFFFFFF AND PUSH20 0xFFFFFFFFFFFFFFFFFFFFFFFFFFFFFFFFFFFFFFFF AND DUP2 MSTORE PUSH1 0x20 ADD SWAP1 DUP2 MSTORE PUSH1 0x20 ADD PUSH1 0x0 KECCAK256 PUSH1 0x0 DUP1 ISZERO ISZERO ISZERO ISZERO DUP2 MSTORE PUSH1 0x20 ADD SWAP1 DUP2 MSTORE PUSH1 0x20 ADD PUSH1 0x0 KECCAK256 PUSH1 0x0 ADD SLOAD DUP6 PUSH1 0x28 PUSH1 0x0 DUP8 PUSH20 0xFFFFFFFFFFFFFFFFFFFFFFFFFFFFFFFFFFFFFFFF AND PUSH20 0xFFFFFFFFFFFFFFFFFFFFFFFFFFFFFFFFFFFFFFFF AND DUP2 MSTORE PUSH1 0x20 ADD SWAP1 DUP2 MSTORE PUSH1 0x20 ADD PUSH1 0x0 KECCAK256 PUSH1 0x0 PUSH1 0x1 ISZERO ISZERO ISZERO ISZERO DUP2 MSTORE PUSH1 0x20 ADD SWAP1 DUP2 MSTORE PUSH1 0x20 ADD PUSH1 0x0 KECCAK256 PUSH1 0x1 ADD SLOAD PUSH2 0x32F5 JUMP JUMPDEST PUSH1 0x10 PUSH1 0x0 DUP3 DUP3 SLOAD PUSH2 0x1387 SWAP2 SWAP1 PUSH2 0x4843 JUMP JUMPDEST SWAP3 POP POP DUP2 SWAP1 SSTORE POP PUSH2 0x1448 PUSH1 0x28 PUSH1 0x0 DUP6 PUSH20 0xFFFFFFFFFFFFFFFFFFFFFFFFFFFFFFFFFFFFFFFF AND PUSH20 0xFFFFFFFFFFFFFFFFFFFFFFFFFFFFFFFFFFFFFFFF AND DUP2 MSTORE PUSH1 0x20 ADD SWAP1 DUP2 MSTORE PUSH1 0x20 ADD PUSH1 0x0 KECCAK256 PUSH1 0x0 DUP1 ISZERO ISZERO ISZERO ISZERO DUP2 MSTORE PUSH1 0x20 ADD SWAP1 DUP2 MSTORE PUSH1 0x20 ADD PUSH1 0x0 KECCAK256 PUSH1 0x0 ADD SLOAD DUP6 PUSH1 0x28 PUSH1 0x0 DUP8 PUSH20 0xFFFFFFFFFFFFFFFFFFFFFFFFFFFFFFFFFFFFFFFF AND PUSH20 0xFFFFFFFFFFFFFFFFFFFFFFFFFFFFFFFFFFFFFFFF AND DUP2 MSTORE PUSH1 0x20 ADD SWAP1 DUP2 MSTORE PUSH1 0x20 ADD PUSH1 0x0 KECCAK256 PUSH1 0x0 PUSH1 0x1 ISZERO ISZERO ISZERO ISZERO DUP2 MSTORE PUSH1 0x20 ADD SWAP1 DUP2 MSTORE PUSH1 0x20 ADD PUSH1 0x0 KECCAK256 PUSH1 0x1 ADD SLOAD PUSH2 0x32F5 JUMP JUMPDEST PUSH1 0x28 PUSH1 0x0 DUP6 PUSH20 0xFFFFFFFFFFFFFFFFFFFFFFFFFFFFFFFFFFFFFFFF AND PUSH20 0xFFFFFFFFFFFFFFFFFFFFFFFFFFFFFFFFFFFFFFFF AND DUP2 MSTORE PUSH1 0x20 ADD SWAP1 DUP2 MSTORE PUSH1 0x20 ADD PUSH1 0x0 KECCAK256 PUSH1 0x0 DUP1 ISZERO ISZERO ISZERO ISZERO DUP2 MSTORE PUSH1 0x20 ADD SWAP1 DUP2 MSTORE PUSH1 0x20 ADD PUSH1 0x0 KECCAK256 PUSH1 0x0 ADD PUSH1 0x0 DUP3 DUP3 SLOAD PUSH2 0x14AE SWAP2 SWAP1 PUSH2 0x4843 JUMP JUMPDEST SWAP3 POP POP DUP2 SWAP1 SSTORE POP DUP1 DUP3 PUSH1 0x29 PUSH1 0x0 DUP7 PUSH20 0xFFFFFFFFFFFFFFFFFFFFFFFFFFFFFFFFFFFFFFFF AND PUSH20 0xFFFFFFFFFFFFFFFFFFFFFFFFFFFFFFFFFFFFFFFF AND DUP2 MSTORE PUSH1 0x20 ADD SWAP1 DUP2 MSTORE PUSH1 0x20 ADD PUSH1 0x0 KECCAK256 PUSH1 0x0 PUSH1 0x2 DUP2 LT PUSH2 0x1509 JUMPI PUSH2 0x1508 PUSH2 0x495D JUMP JUMPDEST JUMPDEST ADD SLOAD PUSH2 0x1515 SWAP2 SWAP1 PUSH2 0x45F1 JUMP JUMPDEST GT ISZERO PUSH2 0x15E1 JUMPI DUP1 DUP3 PUSH1 0x29 PUSH1 0x0 DUP7 PUSH20 0xFFFFFFFFFFFFFFFFFFFFFFFFFFFFFFFFFFFFFFFF AND PUSH20 0xFFFFFFFFFFFFFFFFFFFFFFFFFFFFFFFFFFFFFFFF AND DUP2 MSTORE PUSH1 0x20 ADD SWAP1 DUP2 MSTORE PUSH1 0x20 ADD PUSH1 0x0 KECCAK256 PUSH1 0x0 PUSH1 0x2 DUP2 LT PUSH2 0x156F JUMPI PUSH2 0x156E PUSH2 0x495D JUMP JUMPDEST JUMPDEST ADD SLOAD PUSH2 0x157B SWAP2 SWAP1 PUSH2 0x45F1 JUMP JUMPDEST PUSH2 0x1585 SWAP2 SWAP1 PUSH2 0x4843 JUMP JUMPDEST PUSH1 0x29 PUSH1 0x0 DUP6 PUSH20 0xFFFFFFFFFFFFFFFFFFFFFFFFFFFFFFFFFFFFFFFF AND PUSH20 0xFFFFFFFFFFFFFFFFFFFFFFFFFFFFFFFFFFFFFFFF AND DUP2 MSTORE PUSH1 0x20 ADD SWAP1 DUP2 MSTORE PUSH1 0x20 ADD PUSH1 0x0 KECCAK256 PUSH1 0x0 PUSH1 0x2 DUP2 LT PUSH2 0x15D7 JUMPI PUSH2 0x15D6 PUSH2 0x495D JUMP JUMPDEST JUMPDEST ADD DUP2 SWAP1 SSTORE POP PUSH2 0x17B8 JUMP JUMPDEST PUSH2 0x16A9 PUSH1 0x29 PUSH1 0x0 DUP6 PUSH20 0xFFFFFFFFFFFFFFFFFFFFFFFFFFFFFFFFFFFFFFFF AND PUSH20 0xFFFFFFFFFFFFFFFFFFFFFFFFFFFFFFFFFFFFFFFF AND DUP2 MSTORE PUSH1 0x20 ADD SWAP1 DUP2 MSTORE PUSH1 0x20 ADD PUSH1 0x0 KECCAK256 PUSH1 0x1 PUSH1 0x2 DUP2 LT PUSH2 0x1636 JUMPI PUSH2 0x1635 PUSH2 0x495D JUMP JUMPDEST JUMPDEST ADD SLOAD PUSH1 0x0 PUSH1 0x29 PUSH1 0x0 DUP8 PUSH20 0xFFFFFFFFFFFFFFFFFFFFFFFFFFFFFFFFFFFFFFFF AND PUSH20 0xFFFFFFFFFFFFFFFFFFFFFFFFFFFFFFFFFFFFFFFF AND DUP2 MSTORE PUSH1 0x20 ADD SWAP1 DUP2 MSTORE PUSH1 0x20 ADD PUSH1 0x0 KECCAK256 PUSH1 0x0 PUSH1 0x2 DUP2 LT PUSH2 0x168C JUMPI PUSH2 0x168B PUSH2 0x495D JUMP JUMPDEST JUMPDEST ADD SLOAD DUP6 DUP6 PUSH2 0x169A SWAP2 SWAP1 PUSH2 0x4843 JUMP JUMPDEST PUSH2 0x16A4 SWAP2 SWAP1 PUSH2 0x4843 JUMP JUMPDEST PUSH2 0x3317 JUMP JUMPDEST PUSH1 0x29 PUSH1 0x0 DUP6 PUSH20 0xFFFFFFFFFFFFFFFFFFFFFFFFFFFFFFFFFFFFFFFF AND PUSH20 0xFFFFFFFFFFFFFFFFFFFFFFFFFFFFFFFFFFFFFFFF AND DUP2 MSTORE PUSH1 0x20 ADD SWAP1 DUP2 MSTORE PUSH1 0x20 ADD PUSH1 0x0 KECCAK256 PUSH1 0x1 PUSH1 0x2 DUP2 LT PUSH2 0x16FB JUMPI PUSH2 0x16FA PUSH2 0x495D JUMP JUMPDEST JUMPDEST ADD SLOAD PUSH2 0x1707 SWAP2 SWAP1 PUSH2 0x4843 JUMP JUMPDEST PUSH1 0x29 PUSH1 0x0 DUP6 PUSH20 0xFFFFFFFFFFFFFFFFFFFFFFFFFFFFFFFFFFFFFFFF AND PUSH20 0xFFFFFFFFFFFFFFFFFFFFFFFFFFFFFFFFFFFFFFFF AND DUP2 MSTORE PUSH1 0x20 ADD SWAP1 DUP2 MSTORE PUSH1 0x20 ADD PUSH1 0x0 KECCAK256 PUSH1 0x1 PUSH1 0x2 DUP2 LT PUSH2 0x1759 JUMPI PUSH2 0x1758 PUSH2 0x495D JUMP JUMPDEST JUMPDEST ADD DUP2 SWAP1 SSTORE POP PUSH1 0x0 PUSH1 0x29 PUSH1 0x0 DUP6 PUSH20 0xFFFFFFFFFFFFFFFFFFFFFFFFFFFFFFFFFFFFFFFF AND PUSH20 0xFFFFFFFFFFFFFFFFFFFFFFFFFFFFFFFFFFFFFFFF AND DUP2 MSTORE PUSH1 0x20 ADD SWAP1 DUP2 MSTORE PUSH1 0x20 ADD PUSH1 0x0 KECCAK256 PUSH1 0x0 PUSH1 0x2 DUP2 LT PUSH2 0x17B2 JUMPI PUSH2 0x17B1 PUSH2 0x495D JUMP JUMPDEST JUMPDEST ADD DUP2 SWAP1 SSTORE POP JUMPDEST POP POP JUMPDEST PUSH1 0x1 PUSH1 0x24 DUP2 SWAP1 SSTORE POP POP POP POP JUMP JUMPDEST PUSH1 0x1D PUSH1 0x0 SWAP1 SLOAD SWAP1 PUSH2 0x100 EXP SWAP1 DIV PUSH20 0xFFFFFFFFFFFFFFFFFFFFFFFFFFFFFFFFFFFFFFFF AND DUP2 JUMP JUMPDEST PUSH1 0x1 PUSH1 0x24 SLOAD EQ PUSH2 0x1833 JUMPI PUSH1 0x40 MLOAD PUSH32 0x8C379A000000000000000000000000000000000000000000000000000000000 DUP2 MSTORE PUSH1 0x4 ADD PUSH2 0x182A SWAP1 PUSH2 0x4566 JUMP JUMPDEST PUSH1 0x40 MLOAD DUP1 SWAP2 SUB SWAP1 REVERT JUMPDEST PUSH1 0x0 PUSH1 0x24 DUP2 SWAP1 SSTORE POP PUSH1 0x17 PUSH1 0x0 SWAP1 SLOAD SWAP1 PUSH2 0x100 EXP SWAP1 DIV PUSH20 0xFFFFFFFFFFFFFFFFFFFFFFFFFFFFFFFFFFFFFFFF AND PUSH20 0xFFFFFFFFFFFFFFFFFFFFFFFFFFFFFFFFFFFFFFFF AND DUP4 PUSH20 0xFFFFFFFFFFFFFFFFFFFFFFFFFFFFFFFFFFFFFFFF AND EQ ISZERO PUSH2 0x195F JUMPI DUP1 PUSH1 0x29 PUSH1 0x0 DUP7 PUSH20 0xFFFFFFFFFFFFFFFFFFFFFFFFFFFFFFFFFFFFFFFF AND PUSH20 0xFFFFFFFFFFFFFFFFFFFFFFFFFFFFFFFFFFFFFFFF AND DUP2 MSTORE PUSH1 0x20 ADD SWAP1 DUP2 MSTORE PUSH1 0x20 ADD PUSH1 0x0 KECCAK256 PUSH1 0x0 PUSH1 0x2 DUP2 LT PUSH2 0x18E4 JUMPI PUSH2 0x18E3 PUSH2 0x495D JUMP JUMPDEST JUMPDEST ADD SLOAD GT PUSH2 0x18F0 JUMPI PUSH1 0x0 DUP1 REVERT JUMPDEST DUP1 PUSH1 0x29 PUSH1 0x0 DUP7 PUSH20 0xFFFFFFFFFFFFFFFFFFFFFFFFFFFFFFFFFFFFFFFF AND PUSH20 0xFFFFFFFFFFFFFFFFFFFFFFFFFFFFFFFFFFFFFFFF AND DUP2 MSTORE PUSH1 0x20 ADD SWAP1 DUP2 MSTORE PUSH1 0x20 ADD PUSH1 0x0 KECCAK256 PUSH1 0x0 PUSH1 0x2 DUP2 LT PUSH2 0x1943 JUMPI PUSH2 0x1942 PUSH2 0x495D JUMP JUMPDEST JUMPDEST ADD PUSH1 0x0 DUP3 DUP3 SLOAD PUSH2 0x1953 SWAP2 SWAP1 PUSH2 0x4843 JUMP JUMPDEST SWAP3 POP POP DUP2 SWAP1 SSTORE POP PUSH2 0x1A29 JUMP JUMPDEST DUP1 PUSH1 0x29 PUSH1 0x0 DUP7 PUSH20 0xFFFFFFFFFFFFFFFFFFFFFFFFFFFFFFFFFFFFFFFF AND PUSH20 0xFFFFFFFFFFFFFFFFFFFFFFFFFFFFFFFFFFFFFFFF AND DUP2 MSTORE PUSH1 0x20 ADD SWAP1 DUP2 MSTORE PUSH1 0x20 ADD PUSH1 0x0 KECCAK256 PUSH1 0x1 PUSH1 0x2 DUP2 LT PUSH2 0x19B2 JUMPI PUSH2 0x19B1 PUSH2 0x495D JUMP JUMPDEST JUMPDEST ADD SLOAD GT PUSH2 0x19BE JUMPI PUSH1 0x0 DUP1 REVERT JUMPDEST DUP1 PUSH1 0x29 PUSH1 0x0 DUP7 PUSH20 0xFFFFFFFFFFFFFFFFFFFFFFFFFFFFFFFFFFFFFFFF AND PUSH20 0xFFFFFFFFFFFFFFFFFFFFFFFFFFFFFFFFFFFFFFFF AND DUP2 MSTORE PUSH1 0x20 ADD SWAP1 DUP2 MSTORE PUSH1 0x20 ADD PUSH1 0x0 KECCAK256 PUSH1 0x1 PUSH1 0x2 DUP2 LT PUSH2 0x1A11 JUMPI PUSH2 0x1A10 PUSH2 0x495D JUMP JUMPDEST JUMPDEST ADD PUSH1 0x0 DUP3 DUP3 SLOAD PUSH2 0x1A21 SWAP2 SWAP1 PUSH2 0x4843 JUMP JUMPDEST SWAP3 POP POP DUP2 SWAP1 SSTORE POP JUMPDEST PUSH2 0x1A32 DUP5 PUSH2 0x2AA5 JUMP JUMPDEST PUSH2 0x1A3B DUP6 PUSH2 0x2B99 JUMP JUMPDEST PUSH2 0x1A44 DUP7 PUSH2 0x2C71 JUMP JUMPDEST PUSH2 0x1A4E SWAP2 SWAP1 PUSH2 0x45F1 JUMP JUMPDEST GT DUP1 ISZERO PUSH2 0x1A9D JUMPI POP PUSH1 0x1B SLOAD PUSH2 0x1A62 DUP6 PUSH2 0x2B99 JUMP JUMPDEST PUSH2 0x1A6C SWAP2 SWAP1 PUSH2 0x47E9 JUMP JUMPDEST PUSH2 0x1A75 DUP6 PUSH2 0x2AA5 JUMP JUMPDEST PUSH2 0x1A7E DUP7 PUSH2 0x2B99 JUMP JUMPDEST PUSH2 0x1A87 DUP8 PUSH2 0x2C71 JUMP JUMPDEST PUSH2 0x1A91 SWAP2 SWAP1 PUSH2 0x45F1 JUMP JUMPDEST PUSH2 0x1A9B SWAP2 SWAP1 PUSH2 0x4843 JUMP JUMPDEST GT JUMPDEST PUSH2 0x1AA6 JUMPI PUSH1 0x0 DUP1 REVERT JUMPDEST PUSH2 0x1AB1 DUP4 DUP4 DUP4 PUSH2 0x3714 JUMP JUMPDEST PUSH1 0x1 PUSH1 0x24 DUP2 SWAP1 SSTORE POP POP POP POP POP JUMP JUMPDEST PUSH1 0x9 SLOAD DUP2 JUMP JUMPDEST PUSH1 0x1 PUSH1 0x24 SLOAD EQ PUSH2 0x1B0A JUMPI PUSH1 0x40 MLOAD PUSH32 0x8C379A000000000000000000000000000000000000000000000000000000000 DUP2 MSTORE PUSH1 0x4 ADD PUSH2 0x1B01 SWAP1 PUSH2 0x4566 JUMP JUMPDEST PUSH1 0x40 MLOAD DUP1 SWAP2 SUB SWAP1 REVERT JUMPDEST PUSH1 0x0 PUSH1 0x24 DUP2 SWAP1 SSTORE POP PUSH1 0x0 DUP4 DUP6 PUSH2 0x1B20 SWAP2 SWAP1 PUSH2 0x47E9 JUMP JUMPDEST EQ DUP1 ISZERO PUSH2 0x1B38 JUMPI POP PUSH1 0x0 DUP4 DUP6 PUSH2 0x1B36 SWAP2 SWAP1 PUSH2 0x45F1 JUMP JUMPDEST GT JUMPDEST PUSH2 0x1B41 JUMPI PUSH1 0x0 DUP1 REVERT JUMPDEST PUSH2 0x1B49 PUSH2 0x2D40 JUMP JUMPDEST PUSH2 0x1B8D PUSH2 0x1B55 DUP3 PUSH2 0x2B99 JUMP JUMPDEST DUP6 PUSH2 0x1B60 SWAP2 SWAP1 PUSH2 0x45F1 JUMP JUMPDEST PUSH2 0x1B69 DUP4 PUSH2 0x2B99 JUMP JUMPDEST PUSH2 0x1B7E DUP7 PUSH1 0xD SLOAD PUSH1 0x6 SLOAD PUSH1 0x5 SLOAD PUSH1 0x1C SLOAD PUSH2 0x32BB JUMP JUMPDEST PUSH2 0x1B88 SWAP2 SWAP1 PUSH2 0x45F1 JUMP JUMPDEST PUSH2 0x389E JUMP JUMPDEST PUSH1 0x19 SLOAD PUSH1 0x1C SLOAD PUSH2 0x1B9C DUP5 PUSH2 0x2AA5 JUMP JUMPDEST PUSH2 0x1BA5 DUP6 PUSH2 0x2B99 JUMP JUMPDEST PUSH2 0x1BAE DUP7 PUSH2 0x2C71 JUMP JUMPDEST PUSH2 0x1BB8 SWAP2 SWAP1 PUSH2 0x45F1 JUMP JUMPDEST PUSH2 0x1BC2 SWAP2 SWAP1 PUSH2 0x4843 JUMP JUMPDEST PUSH2 0x1BCC SWAP2 SWAP1 PUSH2 0x47E9 JUMP JUMPDEST PUSH2 0x1BD6 SWAP2 SWAP1 PUSH2 0x4647 JUMP JUMPDEST GT PUSH2 0x1BE0 JUMPI PUSH1 0x0 DUP1 REVERT JUMPDEST PUSH1 0x0 DUP1 PUSH1 0x1 ISZERO ISZERO DUP5 ISZERO ISZERO EQ ISZERO PUSH2 0x2099 JUMPI PUSH1 0x0 PUSH1 0x25 PUSH1 0x0 SWAP1 SLOAD SWAP1 PUSH2 0x100 EXP SWAP1 DIV PUSH1 0xFF AND PUSH1 0xFF AND GT PUSH2 0x1C0F JUMPI PUSH1 0x0 DUP1 REVERT JUMPDEST PUSH1 0x0 DUP7 GT ISZERO PUSH2 0x1C2F JUMPI PUSH2 0x1C25 DUP7 PUSH1 0x1 PUSH1 0x0 PUSH2 0x2EBE JUMP JUMPDEST SWAP2 POP DUP6 SWAP1 POP PUSH2 0x1C69 JUMP JUMPDEST DUP5 SWAP2 POP PUSH2 0x1C66 PUSH2 0x1C46 PUSH1 0xD SLOAD PUSH1 0x6 SLOAD PUSH1 0x5 SLOAD PUSH2 0x32F5 JUMP JUMPDEST PUSH1 0x1C SLOAD DUP8 PUSH2 0x1C54 SWAP2 SWAP1 PUSH2 0x47E9 JUMP JUMPDEST PUSH2 0x1C5E SWAP2 SWAP1 PUSH2 0x4647 JUMP JUMPDEST PUSH1 0x1 DUP8 PUSH2 0x2EBE JUMP JUMPDEST SWAP1 POP JUMPDEST PUSH2 0x1C78 DUP2 PUSH1 0x10 SLOAD PUSH1 0xE SLOAD PUSH2 0x32F5 JUMP JUMPDEST PUSH1 0x28 PUSH1 0x0 DUP6 PUSH20 0xFFFFFFFFFFFFFFFFFFFFFFFFFFFFFFFFFFFFFFFF AND PUSH20 0xFFFFFFFFFFFFFFFFFFFFFFFFFFFFFFFFFFFFFFFF AND DUP2 MSTORE PUSH1 0x20 ADD SWAP1 DUP2 MSTORE PUSH1 0x20 ADD PUSH1 0x0 KECCAK256 PUSH1 0x0 DUP1 ISZERO ISZERO ISZERO ISZERO DUP2 MSTORE PUSH1 0x20 ADD SWAP1 DUP2 MSTORE PUSH1 0x20 ADD PUSH1 0x0 KECCAK256 PUSH1 0x0 ADD PUSH1 0x0 DUP3 DUP3 SLOAD PUSH2 0x1CDE SWAP2 SWAP1 PUSH2 0x45F1 JUMP JUMPDEST SWAP3 POP POP DUP2 SWAP1 SSTORE POP DUP2 PUSH1 0x28 PUSH1 0x0 DUP6 PUSH20 0xFFFFFFFFFFFFFFFFFFFFFFFFFFFFFFFFFFFFFFFF AND PUSH20 0xFFFFFFFFFFFFFFFFFFFFFFFFFFFFFFFFFFFFFFFF AND DUP2 MSTORE PUSH1 0x20 ADD SWAP1 DUP2 MSTORE PUSH1 0x20 ADD PUSH1 0x0 KECCAK256 PUSH1 0x0 PUSH1 0x1 ISZERO ISZERO ISZERO ISZERO DUP2 MSTORE PUSH1 0x20 ADD SWAP1 DUP2 MSTORE PUSH1 0x20 ADD PUSH1 0x0 KECCAK256 PUSH1 0x1 ADD PUSH1 0x0 DUP3 DUP3 SLOAD PUSH2 0x1D4D SWAP2 SWAP1 PUSH2 0x45F1 JUMP JUMPDEST SWAP3 POP POP DUP2 SWAP1 SSTORE POP PUSH1 0x10 SLOAD PUSH2 0x1D66 DUP3 PUSH1 0x10 SLOAD PUSH1 0xE SLOAD PUSH2 0x32F5 JUMP JUMPDEST PUSH2 0x1D70 SWAP2 SWAP1 PUSH2 0x45F1 JUMP JUMPDEST PUSH1 0x10 DUP2 SWAP1 SSTORE POP DUP1 PUSH1 0xE PUSH1 0x0 DUP3 DUP3 SLOAD PUSH2 0x1D88 SWAP2 SWAP1 PUSH2 0x45F1 JUMP JUMPDEST SWAP3 POP POP DUP2 SWAP1 SSTORE POP PUSH8 0xDE0B6B3A7640000 PUSH1 0x22 SLOAD DUP3 PUSH2 0x1DA6 SWAP2 SWAP1 PUSH2 0x47E9 JUMP JUMPDEST PUSH2 0x1DB0 SWAP2 SWAP1 PUSH2 0x4647 JUMP JUMPDEST PUSH1 0x29 PUSH1 0x0 DUP6 PUSH20 0xFFFFFFFFFFFFFFFFFFFFFFFFFFFFFFFFFFFFFFFF AND PUSH20 0xFFFFFFFFFFFFFFFFFFFFFFFFFFFFFFFFFFFFFFFF AND DUP2 MSTORE PUSH1 0x20 ADD SWAP1 DUP2 MSTORE PUSH1 0x20 ADD PUSH1 0x0 KECCAK256 PUSH1 0x0 PUSH1 0x2 DUP2 LT PUSH2 0x1E02 JUMPI PUSH2 0x1E01 PUSH2 0x495D JUMP JUMPDEST JUMPDEST ADD SLOAD GT ISZERO PUSH2 0x1ED2 JUMPI PUSH8 0xDE0B6B3A7640000 PUSH1 0x22 SLOAD DUP3 PUSH2 0x1E21 SWAP2 SWAP1 PUSH2 0x47E9 JUMP JUMPDEST PUSH2 0x1E2B SWAP2 SWAP1 PUSH2 0x4647 JUMP JUMPDEST PUSH1 0x29 PUSH1 0x0 DUP6 PUSH20 0xFFFFFFFFFFFFFFFFFFFFFFFFFFFFFFFFFFFFFFFF AND PUSH20 0xFFFFFFFFFFFFFFFFFFFFFFFFFFFFFFFFFFFFFFFF AND DUP2 MSTORE PUSH1 0x20 ADD SWAP1 DUP2 MSTORE PUSH1 0x20 ADD PUSH1 0x0 KECCAK256 PUSH1 0x0 PUSH1 0x2 DUP2 LT PUSH2 0x1E7D JUMPI PUSH2 0x1E7C PUSH2 0x495D JUMP JUMPDEST JUMPDEST ADD PUSH1 0x0 DUP3 DUP3 SLOAD PUSH2 0x1E8D SWAP2 SWAP1 PUSH2 0x4843 JUMP JUMPDEST SWAP3 POP POP DUP2 SWAP1 SSTORE POP PUSH8 0xDE0B6B3A7640000 PUSH1 0x22 SLOAD DUP3 PUSH2 0x1EAB SWAP2 SWAP1 PUSH2 0x47E9 JUMP JUMPDEST PUSH2 0x1EB5 SWAP2 SWAP1 PUSH2 0x4647 JUMP JUMPDEST PUSH1 0xB PUSH1 0x0 DUP3 DUP3 SLOAD PUSH2 0x1EC6 SWAP2 SWAP1 PUSH2 0x45F1 JUMP JUMPDEST SWAP3 POP POP DUP2 SWAP1 SSTORE POP PUSH2 0x2094 JUMP JUMPDEST PUSH1 0x0 PUSH1 0x29 PUSH1 0x0 DUP6 PUSH20 0xFFFFFFFFFFFFFFFFFFFFFFFFFFFFFFFFFFFFFFFF AND PUSH20 0xFFFFFFFFFFFFFFFFFFFFFFFFFFFFFFFFFFFFFFFF AND DUP2 MSTORE PUSH1 0x20 ADD SWAP1 DUP2 MSTORE PUSH1 0x20 ADD PUSH1 0x0 KECCAK256 PUSH1 0x0 PUSH1 0x2 DUP2 LT PUSH2 0x1F26 JUMPI PUSH2 0x1F25 PUSH2 0x495D JUMP JUMPDEST JUMPDEST ADD SLOAD PUSH8 0xDE0B6B3A7640000 PUSH1 0x22 SLOAD DUP5 PUSH2 0x1F3F SWAP2 SWAP1 PUSH2 0x47E9 JUMP JUMPDEST PUSH2 0x1F49 SWAP2 SWAP1 PUSH2 0x4647 JUMP JUMPDEST PUSH2 0x1F53 SWAP2 SWAP1 PUSH2 0x4843 JUMP JUMPDEST SWAP1 POP PUSH1 0x0 PUSH1 0x29 PUSH1 0x0 DUP7 PUSH20 0xFFFFFFFFFFFFFFFFFFFFFFFFFFFFFFFFFFFFFFFF AND PUSH20 0xFFFFFFFFFFFFFFFFFFFFFFFFFFFFFFFFFFFFFFFF AND DUP2 MSTORE PUSH1 0x20 ADD SWAP1 DUP2 MSTORE PUSH1 0x20 ADD PUSH1 0x0 KECCAK256 PUSH1 0x0 PUSH1 0x2 DUP2 LT PUSH2 0x1FA9 JUMPI PUSH2 0x1FA8 PUSH2 0x495D JUMP JUMPDEST JUMPDEST ADD DUP2 SWAP1 SSTORE POP PUSH2 0x200D PUSH1 0x29 PUSH1 0x0 DUP7 PUSH20 0xFFFFFFFFFFFFFFFFFFFFFFFFFFFFFFFFFFFFFFFF AND PUSH20 0xFFFFFFFFFFFFFFFFFFFFFFFFFFFFFFFFFFFFFFFF AND DUP2 MSTORE PUSH1 0x20 ADD SWAP1 DUP2 MSTORE PUSH1 0x20 ADD PUSH1 0x0 KECCAK256 PUSH1 0x1 PUSH1 0x2 DUP2 LT PUSH2 0x2003 JUMPI PUSH2 0x2002 PUSH2 0x495D JUMP JUMPDEST JUMPDEST ADD SLOAD PUSH1 0x0 DUP4 PUSH2 0x3317 JUMP JUMPDEST SWAP1 POP DUP1 PUSH1 0x29 PUSH1 0x0 DUP7 PUSH20 0xFFFFFFFFFFFFFFFFFFFFFFFFFFFFFFFFFFFFFFFF AND PUSH20 0xFFFFFFFFFFFFFFFFFFFFFFFFFFFFFFFFFFFFFFFF AND DUP2 MSTORE PUSH1 0x20 ADD SWAP1 DUP2 MSTORE PUSH1 0x20 ADD PUSH1 0x0 KECCAK256 PUSH1 0x1 PUSH1 0x2 DUP2 LT PUSH2 0x2062 JUMPI PUSH2 0x2061 PUSH2 0x495D JUMP JUMPDEST JUMPDEST ADD PUSH1 0x0 DUP3 DUP3 SLOAD PUSH2 0x2072 SWAP2 SWAP1 PUSH2 0x4843 JUMP JUMPDEST SWAP3 POP POP DUP2 SWAP1 SSTORE POP DUP1 PUSH1 0xC PUSH1 0x0 DUP3 DUP3 SLOAD PUSH2 0x208B SWAP2 SWAP1 PUSH2 0x45F1 JUMP JUMPDEST SWAP3 POP POP DUP2 SWAP1 SSTORE POP POP JUMPDEST PUSH2 0x253E JUMP JUMPDEST PUSH1 0x1 PUSH1 0x25 PUSH1 0x0 SWAP1 SLOAD SWAP1 PUSH2 0x100 EXP SWAP1 DIV PUSH1 0xFF AND PUSH1 0xFF AND GT PUSH2 0x20B8 JUMPI PUSH1 0x0 DUP1 REVERT JUMPDEST PUSH1 0x0 DUP7 GT ISZERO PUSH2 0x20FF JUMPI DUP6 SWAP2 POP PUSH2 0x20F8 PUSH1 0x1C SLOAD PUSH2 0x20DB PUSH1 0xD SLOAD PUSH1 0x6 SLOAD PUSH1 0x5 SLOAD PUSH2 0x32F5 JUMP JUMPDEST DUP9 PUSH2 0x20E6 SWAP2 SWAP1 PUSH2 0x47E9 JUMP JUMPDEST PUSH2 0x20F0 SWAP2 SWAP1 PUSH2 0x4647 JUMP JUMPDEST PUSH1 0x1 DUP9 PUSH2 0x3317 JUMP JUMPDEST SWAP1 POP PUSH2 0x2112 JUMP JUMPDEST PUSH2 0x210C DUP6 PUSH1 0x1 PUSH1 0x0 PUSH2 0x3317 JUMP JUMPDEST SWAP2 POP DUP5 SWAP1 POP JUMPDEST PUSH2 0x2121 DUP2 PUSH1 0x11 SLOAD PUSH1 0xF SLOAD PUSH2 0x32F5 JUMP JUMPDEST PUSH1 0x28 PUSH1 0x0 DUP6 PUSH20 0xFFFFFFFFFFFFFFFFFFFFFFFFFFFFFFFFFFFFFFFF AND PUSH20 0xFFFFFFFFFFFFFFFFFFFFFFFFFFFFFFFFFFFFFFFF AND DUP2 MSTORE PUSH1 0x20 ADD SWAP1 DUP2 MSTORE PUSH1 0x20 ADD PUSH1 0x0 KECCAK256 PUSH1 0x0 PUSH1 0x1 ISZERO ISZERO ISZERO ISZERO DUP2 MSTORE PUSH1 0x20 ADD SWAP1 DUP2 MSTORE PUSH1 0x20 ADD PUSH1 0x0 KECCAK256 PUSH1 0x0 ADD PUSH1 0x0 DUP3 DUP3 SLOAD PUSH2 0x2188 SWAP2 SWAP1 PUSH2 0x45F1 JUMP JUMPDEST SWAP3 POP POP DUP2 SWAP1 SSTORE POP DUP2 PUSH1 0x28 PUSH1 0x0 DUP6 PUSH20 0xFFFFFFFFFFFFFFFFFFFFFFFFFFFFFFFFFFFFFFFF AND PUSH20 0xFFFFFFFFFFFFFFFFFFFFFFFFFFFFFFFFFFFFFFFF AND DUP2 MSTORE PUSH1 0x20 ADD SWAP1 DUP2 MSTORE PUSH1 0x20 ADD PUSH1 0x0 KECCAK256 PUSH1 0x0 DUP1 ISZERO ISZERO ISZERO ISZERO DUP2 MSTORE PUSH1 0x20 ADD SWAP1 DUP2 MSTORE PUSH1 0x20 ADD PUSH1 0x0 KECCAK256 PUSH1 0x1 ADD PUSH1 0x0 DUP3 DUP3 SLOAD PUSH2 0x21F6 SWAP2 SWAP1 PUSH2 0x45F1 JUMP JUMPDEST SWAP3 POP POP DUP2 SWAP1 SSTORE POP PUSH1 0x11 SLOAD PUSH2 0x220F DUP3 PUSH1 0x11 SLOAD PUSH1 0xF SLOAD PUSH2 0x32F5 JUMP JUMPDEST PUSH2 0x2219 SWAP2 SWAP1 PUSH2 0x45F1 JUMP JUMPDEST PUSH1 0x11 DUP2 SWAP1 SSTORE POP DUP1 PUSH1 0xF PUSH1 0x0 DUP3 DUP3 SLOAD PUSH2 0x2231 SWAP2 SWAP1 PUSH2 0x45F1 JUMP JUMPDEST SWAP3 POP POP DUP2 SWAP1 SSTORE POP PUSH8 0xDE0B6B3A7640000 PUSH1 0x22 SLOAD DUP3 PUSH2 0x224F SWAP2 SWAP1 PUSH2 0x47E9 JUMP JUMPDEST PUSH2 0x2259 SWAP2 SWAP1 PUSH2 0x4647 JUMP JUMPDEST PUSH1 0x29 PUSH1 0x0 DUP6 PUSH20 0xFFFFFFFFFFFFFFFFFFFFFFFFFFFFFFFFFFFFFFFF AND PUSH20 0xFFFFFFFFFFFFFFFFFFFFFFFFFFFFFFFFFFFFFFFF AND DUP2 MSTORE PUSH1 0x20 ADD SWAP1 DUP2 MSTORE PUSH1 0x20 ADD PUSH1 0x0 KECCAK256 PUSH1 0x1 PUSH1 0x2 DUP2 LT PUSH2 0x22AB JUMPI PUSH2 0x22AA PUSH2 0x495D JUMP JUMPDEST JUMPDEST ADD SLOAD GT ISZERO PUSH2 0x237B JUMPI PUSH8 0xDE0B6B3A7640000 PUSH1 0x22 SLOAD DUP3 PUSH2 0x22CA SWAP2 SWAP1 PUSH2 0x47E9 JUMP JUMPDEST PUSH2 0x22D4 SWAP2 SWAP1 PUSH2 0x4647 JUMP JUMPDEST PUSH1 0x29 PUSH1 0x0 DUP6 PUSH20 0xFFFFFFFFFFFFFFFFFFFFFFFFFFFFFFFFFFFFFFFF AND PUSH20 0xFFFFFFFFFFFFFFFFFFFFFFFFFFFFFFFFFFFFFFFF AND DUP2 MSTORE PUSH1 0x20 ADD SWAP1 DUP2 MSTORE PUSH1 0x20 ADD PUSH1 0x0 KECCAK256 PUSH1 0x1 PUSH1 0x2 DUP2 LT PUSH2 0x2326 JUMPI PUSH2 0x2325 PUSH2 0x495D JUMP JUMPDEST JUMPDEST ADD PUSH1 0x0 DUP3 DUP3 SLOAD PUSH2 0x2336 SWAP2 SWAP1 PUSH2 0x4843 JUMP JUMPDEST SWAP3 POP POP DUP2 SWAP1 SSTORE POP PUSH8 0xDE0B6B3A7640000 PUSH1 0x22 SLOAD DUP3 PUSH2 0x2354 SWAP2 SWAP1 PUSH2 0x47E9 JUMP JUMPDEST PUSH2 0x235E SWAP2 SWAP1 PUSH2 0x4647 JUMP JUMPDEST PUSH1 0xC PUSH1 0x0 DUP3 DUP3 SLOAD PUSH2 0x236F SWAP2 SWAP1 PUSH2 0x45F1 JUMP JUMPDEST SWAP3 POP POP DUP2 SWAP1 SSTORE POP PUSH2 0x253D JUMP JUMPDEST PUSH1 0x0 PUSH1 0x29 PUSH1 0x0 DUP6 PUSH20 0xFFFFFFFFFFFFFFFFFFFFFFFFFFFFFFFFFFFFFFFF AND PUSH20 0xFFFFFFFFFFFFFFFFFFFFFFFFFFFFFFFFFFFFFFFF AND DUP2 MSTORE PUSH1 0x20 ADD SWAP1 DUP2 MSTORE PUSH1 0x20 ADD PUSH1 0x0 KECCAK256 PUSH1 0x1 PUSH1 0x2 DUP2 LT PUSH2 0x23CF JUMPI PUSH2 0x23CE PUSH2 0x495D JUMP JUMPDEST JUMPDEST ADD SLOAD PUSH8 0xDE0B6B3A7640000 PUSH1 0x22 SLOAD DUP5 PUSH2 0x23E8 SWAP2 SWAP1 PUSH2 0x47E9 JUMP JUMPDEST PUSH2 0x23F2 SWAP2 SWAP1 PUSH2 0x4647 JUMP JUMPDEST PUSH2 0x23FC SWAP2 SWAP1 PUSH2 0x4843 JUMP JUMPDEST SWAP1 POP PUSH1 0x0 PUSH1 0x29 PUSH1 0x0 DUP7 PUSH20 0xFFFFFFFFFFFFFFFFFFFFFFFFFFFFFFFFFFFFFFFF AND PUSH20 0xFFFFFFFFFFFFFFFFFFFFFFFFFFFFFFFFFFFFFFFF AND DUP2 MSTORE PUSH1 0x20 ADD SWAP1 DUP2 MSTORE PUSH1 0x20 ADD PUSH1 0x0 KECCAK256 PUSH1 0x1 PUSH1 0x2 DUP2 LT PUSH2 0x2452 JUMPI PUSH2 0x2451 PUSH2 0x495D JUMP JUMPDEST JUMPDEST ADD DUP2 SWAP1 SSTORE POP PUSH2 0x24B6 PUSH1 0x29 PUSH1 0x0 DUP7 PUSH20 0xFFFFFFFFFFFFFFFFFFFFFFFFFFFFFFFFFFFFFFFF AND PUSH20 0xFFFFFFFFFFFFFFFFFFFFFFFFFFFFFFFFFFFFFFFF AND DUP2 MSTORE PUSH1 0x20 ADD SWAP1 DUP2 MSTORE PUSH1 0x20 ADD PUSH1 0x0 KECCAK256 PUSH1 0x0 PUSH1 0x2 DUP2 LT PUSH2 0x24AC JUMPI PUSH2 0x24AB PUSH2 0x495D JUMP JUMPDEST JUMPDEST ADD SLOAD PUSH1 0x0 DUP4 PUSH2 0x2EBE JUMP JUMPDEST SWAP1 POP DUP1 PUSH1 0x29 PUSH1 0x0 DUP7 PUSH20 0xFFFFFFFFFFFFFFFFFFFFFFFFFFFFFFFFFFFFFFFF AND PUSH20 0xFFFFFFFFFFFFFFFFFFFFFFFFFFFFFFFFFFFFFFFF AND DUP2 MSTORE PUSH1 0x20 ADD SWAP1 DUP2 MSTORE PUSH1 0x20 ADD PUSH1 0x0 KECCAK256 PUSH1 0x0 PUSH1 0x2 DUP2 LT PUSH2 0x250B JUMPI PUSH2 0x250A PUSH2 0x495D JUMP JUMPDEST JUMPDEST ADD PUSH1 0x0 DUP3 DUP3 SLOAD PUSH2 0x251B SWAP2 SWAP1 PUSH2 0x4843 JUMP JUMPDEST SWAP3 POP POP DUP2 SWAP1 SSTORE POP DUP1 PUSH1 0xB PUSH1 0x0 DUP3 DUP3 SLOAD PUSH2 0x2534 SWAP2 SWAP1 PUSH2 0x45F1 JUMP JUMPDEST SWAP3 POP POP DUP2 SWAP1 SSTORE POP POP JUMPDEST JUMPDEST POP POP PUSH1 0x1 PUSH1 0x24 DUP2 SWAP1 SSTORE POP POP POP POP POP JUMP JUMPDEST PUSH1 0x7 SLOAD DUP2 JUMP JUMPDEST PUSH1 0x1E SLOAD DUP2 JUMP JUMPDEST PUSH1 0xE SLOAD DUP2 JUMP JUMPDEST PUSH1 0x1C SLOAD DUP2 JUMP JUMPDEST PUSH1 0x10 SLOAD DUP2 JUMP JUMPDEST PUSH1 0x1 PUSH1 0x24 SLOAD EQ PUSH2 0x25B1 JUMPI PUSH1 0x40 MLOAD PUSH32 0x8C379A000000000000000000000000000000000000000000000000000000000 DUP2 MSTORE PUSH1 0x4 ADD PUSH2 0x25A8 SWAP1 PUSH2 0x4566 JUMP JUMPDEST PUSH1 0x40 MLOAD DUP1 SWAP2 SUB SWAP1 REVERT JUMPDEST PUSH1 0x0 PUSH1 0x24 DUP2 SWAP1 SSTORE POP PUSH2 0x25C2 DUP3 PUSH2 0x2AA5 JUMP JUMPDEST PUSH2 0x25CB DUP4 PUSH2 0x2B99 JUMP JUMPDEST PUSH2 0x25D4 DUP5 PUSH2 0x2C71 JUMP JUMPDEST PUSH2 0x25DE SWAP2 SWAP1 PUSH2 0x45F1 JUMP JUMPDEST GT ISZERO DUP1 PUSH2 0x262E JUMPI POP PUSH1 0x1B SLOAD PUSH2 0x25F2 DUP4 PUSH2 0x2B99 JUMP JUMPDEST PUSH2 0x25FC SWAP2 SWAP1 PUSH2 0x47E9 JUMP JUMPDEST PUSH2 0x2605 DUP4 PUSH2 0x2AA5 JUMP JUMPDEST PUSH2 0x260E DUP5 PUSH2 0x2B99 JUMP JUMPDEST PUSH2 0x2617 DUP6 PUSH2 0x2C71 JUMP JUMPDEST PUSH2 0x2621 SWAP2 SWAP1 PUSH2 0x45F1 JUMP JUMPDEST PUSH2 0x262B SWAP2 SWAP1 PUSH2 0x4843 JUMP JUMPDEST GT ISZERO JUMPDEST PUSH2 0x2637 JUMPI PUSH1 0x0 DUP1 REVERT JUMPDEST PUSH2 0x26C4 PUSH1 0x17 PUSH1 0x0 SWAP1 SLOAD SWAP1 PUSH2 0x100 EXP SWAP1 DIV PUSH20 0xFFFFFFFFFFFFFFFFFFFFFFFFFFFFFFFFFFFFFFFF AND DUP3 PUSH1 0x1E SLOAD PUSH1 0x29 PUSH1 0x0 DUP8 PUSH20 0xFFFFFFFFFFFFFFFFFFFFFFFFFFFFFFFFFFFFFFFF AND PUSH20 0xFFFFFFFFFFFFFFFFFFFFFFFFFFFFFFFFFFFFFFFF AND DUP2 MSTORE PUSH1 0x20 ADD SWAP1 DUP2 MSTORE PUSH1 0x20 ADD PUSH1 0x0 KECCAK256 PUSH1 0x0 PUSH1 0x2 DUP2 LT PUSH2 0x26B3 JUMPI PUSH2 0x26B2 PUSH2 0x495D JUMP JUMPDEST JUMPDEST ADD SLOAD PUSH2 0x26BF SWAP2 SWAP1 PUSH2 0x47E9 JUMP JUMPDEST PUSH2 0x3714 JUMP JUMPDEST PUSH2 0x2751 PUSH1 0x18 PUSH1 0x0 SWAP1 SLOAD SWAP1 PUSH2 0x100 EXP SWAP1 DIV PUSH20 0xFFFFFFFFFFFFFFFFFFFFFFFFFFFFFFFFFFFFFFFF AND DUP3 PUSH1 0x1E SLOAD PUSH1 0x29 PUSH1 0x0 DUP8 PUSH20 0xFFFFFFFFFFFFFFFFFFFFFFFFFFFFFFFFFFFFFFFF AND PUSH20 0xFFFFFFFFFFFFFFFFFFFFFFFFFFFFFFFFFFFFFFFF AND DUP2 MSTORE PUSH1 0x20 ADD SWAP1 DUP2 MSTORE PUSH1 0x20 ADD PUSH1 0x0 KECCAK256 PUSH1 0x1 PUSH1 0x2 DUP2 LT PUSH2 0x2740 JUMPI PUSH2 0x273F PUSH2 0x495D JUMP JUMPDEST JUMPDEST ADD SLOAD PUSH2 0x274C SWAP2 SWAP1 PUSH2 0x47E9 JUMP JUMPDEST PUSH2 0x3714 JUMP JUMPDEST PUSH1 0x29 PUSH1 0x0 DUP4 PUSH20 0xFFFFFFFFFFFFFFFFFFFFFFFFFFFFFFFFFFFFFFFF AND PUSH20 0xFFFFFFFFFFFFFFFFFFFFFFFFFFFFFFFFFFFFFFFF AND DUP2 MSTORE PUSH1 0x20 ADD SWAP1 DUP2 MSTORE PUSH1 0x20 ADD PUSH1 0x0 KECCAK256 PUSH1 0x0 PUSH2 0x279C SWAP2 SWAP1 PUSH2 0x418F JUMP JUMPDEST PUSH2 0x2856 PUSH1 0x28 PUSH1 0x0 DUP5 PUSH20 0xFFFFFFFFFFFFFFFFFFFFFFFFFFFFFFFFFFFFFFFF AND PUSH20 0xFFFFFFFFFFFFFFFFFFFFFFFFFFFFFFFFFFFFFFFF AND DUP2 MSTORE PUSH1 0x20 ADD SWAP1 DUP2 MSTORE PUSH1 0x20 ADD PUSH1 0x0 KECCAK256 PUSH1 0x0 DUP1 ISZERO ISZERO ISZERO ISZERO DUP2 MSTORE PUSH1 0x20 ADD SWAP1 DUP2 MSTORE PUSH1 0x20 ADD PUSH1 0x0 KECCAK256 PUSH1 0x1 ADD SLOAD PUSH1 0x28 PUSH1 0x0 DUP6 PUSH20 0xFFFFFFFFFFFFFFFFFFFFFFFFFFFFFFFFFFFFFFFF AND PUSH20 0xFFFFFFFFFFFFFFFFFFFFFFFFFFFFFFFFFFFFFFFF AND DUP2 MSTORE PUSH1 0x20 ADD SWAP1 DUP2 MSTORE PUSH1 0x20 ADD PUSH1 0x0 KECCAK256 PUSH1 0x0 PUSH1 0x1 ISZERO ISZERO ISZERO ISZERO DUP2 MSTORE PUSH1 0x20 ADD SWAP1 DUP2 MSTORE PUSH1 0x20 ADD PUSH1 0x0 KECCAK256 PUSH1 0x1 ADD SLOAD DUP5 PUSH2 0x8B1 JUMP JUMPDEST PUSH1 0x0 PUSH1 0x28 PUSH1 0x0 DUP5 PUSH20 0xFFFFFFFFFFFFFFFFFFFFFFFFFFFFFFFFFFFFFFFF AND PUSH20 0xFFFFFFFFFFFFFFFFFFFFFFFFFFFFFFFFFFFFFFFF AND DUP2 MSTORE PUSH1 0x20 ADD SWAP1 DUP2 MSTORE PUSH1 0x20 ADD PUSH1 0x0 KECCAK256 PUSH1 0x0 DUP1 ISZERO ISZERO ISZERO ISZERO DUP2 MSTORE PUSH1 0x20 ADD SWAP1 DUP2 MSTORE PUSH1 0x20 ADD PUSH1 0x0 KECCAK256 PUSH1 0x0 ADD DUP2 SWAP1 SSTORE POP PUSH1 0x0 PUSH1 0x28 PUSH1 0x0 DUP5 PUSH20 0xFFFFFFFFFFFFFFFFFFFFFFFFFFFFFFFFFFFFFFFF AND PUSH20 0xFFFFFFFFFFFFFFFFFFFFFFFFFFFFFFFFFFFFFFFF AND DUP2 MSTORE PUSH1 0x20 ADD SWAP1 DUP2 MSTORE PUSH1 0x20 ADD PUSH1 0x0 KECCAK256 PUSH1 0x0 PUSH1 0x1 ISZERO ISZERO ISZERO ISZERO DUP2 MSTORE PUSH1 0x20 ADD SWAP1 DUP2 MSTORE PUSH1 0x20 ADD PUSH1 0x0 KECCAK256 PUSH1 0x0 ADD DUP2 SWAP1 SSTORE POP PUSH1 0x1 PUSH1 0x24 DUP2 SWAP1 SSTORE POP POP POP JUMP JUMPDEST PUSH1 0x4 SLOAD DUP2 JUMP JUMPDEST PUSH1 0x3 SLOAD DUP2 JUMP JUMPDEST PUSH1 0xF SLOAD DUP2 JUMP JUMPDEST PUSH1 0x6 SLOAD DUP2 JUMP JUMPDEST PUSH1 0x1B SLOAD DUP2 JUMP JUMPDEST PUSH1 0x14 PUSH1 0x0 SWAP1 SLOAD SWAP1 PUSH2 0x100 EXP SWAP1 DIV PUSH1 0xFF AND DUP2 JUMP JUMPDEST PUSH1 0x18 PUSH1 0x0 SWAP1 SLOAD SWAP1 PUSH2 0x100 EXP SWAP1 DIV PUSH20 0xFFFFFFFFFFFFFFFFFFFFFFFFFFFFFFFFFFFFFFFF AND DUP2 JUMP JUMPDEST PUSH1 0xB SLOAD DUP2 JUMP JUMPDEST PUSH1 0x5 SLOAD DUP2 JUMP JUMPDEST PUSH1 0x16 PUSH1 0x0 SWAP1 SLOAD SWAP1 PUSH2 0x100 EXP SWAP1 DIV PUSH20 0xFFFFFFFFFFFFFFFFFFFFFFFFFFFFFFFFFFFFFFFF AND DUP2 JUMP JUMPDEST PUSH1 0x15 SLOAD DUP2 JUMP JUMPDEST PUSH1 0x8 SLOAD DUP2 JUMP JUMPDEST PUSH1 0xA SLOAD DUP2 JUMP JUMPDEST PUSH1 0x20 SLOAD DUP2 JUMP JUMPDEST PUSH1 0x19 SLOAD DUP2 JUMP JUMPDEST PUSH1 0x2 SLOAD DUP2 JUMP JUMPDEST PUSH1 0x1 PUSH1 0x24 SLOAD EQ PUSH2 0x2A0F JUMPI PUSH1 0x40 MLOAD PUSH32 0x8C379A000000000000000000000000000000000000000000000000000000000 DUP2 MSTORE PUSH1 0x4 ADD PUSH2 0x2A06 SWAP1 PUSH2 0x4566 JUMP JUMPDEST PUSH1 0x40 MLOAD DUP1 SWAP2 SUB SWAP1 REVERT JUMPDEST PUSH1 0x0 PUSH1 0x24 DUP2 SWAP1 SSTORE POP PUSH1 0x0 DUP3 DUP5 PUSH2 0x2A25 SWAP2 SWAP1 PUSH2 0x47E9 JUMP JUMPDEST EQ DUP1 ISZERO PUSH2 0x2A3D JUMPI POP PUSH1 0x0 DUP3 DUP5 PUSH2 0x2A3B SWAP2 SWAP1 PUSH2 0x45F1 JUMP JUMPDEST GT JUMPDEST PUSH2 0x2A46 JUMPI PUSH1 0x0 DUP1 REVERT JUMPDEST PUSH1 0x0 DUP4 GT ISZERO PUSH2 0x2A6F JUMPI PUSH2 0x2A5D DUP4 PUSH1 0x0 PUSH1 0x1 DUP5 PUSH2 0x1AC5 JUMP JUMPDEST PUSH2 0x2A6A DUP4 PUSH1 0x0 DUP1 DUP5 PUSH2 0x1AC5 JUMP JUMPDEST PUSH2 0x2A8C JUMP JUMPDEST PUSH2 0x2A7D PUSH1 0x0 DUP4 PUSH1 0x1 DUP5 PUSH2 0x1AC5 JUMP JUMPDEST PUSH2 0x2A8B PUSH1 0x0 DUP4 PUSH1 0x0 DUP5 PUSH2 0x1AC5 JUMP JUMPDEST JUMPDEST PUSH1 0x1 PUSH1 0x24 DUP2 SWAP1 SSTORE POP POP POP POP JUMP JUMPDEST PUSH1 0x1F SLOAD DUP2 JUMP JUMPDEST PUSH1 0x12 SLOAD DUP2 JUMP JUMPDEST PUSH1 0x0 PUSH2 0x2B21 PUSH2 0x2B16 PUSH1 0x28 PUSH1 0x0 DUP6 PUSH20 0xFFFFFFFFFFFFFFFFFFFFFFFFFFFFFFFFFFFFFFFF AND PUSH20 0xFFFFFFFFFFFFFFFFFFFFFFFFFFFFFFFFFFFFFFFF AND DUP2 MSTORE PUSH1 0x20 ADD SWAP1 DUP2 MSTORE PUSH1 0x20 ADD PUSH1 0x0 KECCAK256 PUSH1 0x0 DUP1 ISZERO ISZERO ISZERO ISZERO DUP2 MSTORE PUSH1 0x20 ADD SWAP1 DUP2 MSTORE PUSH1 0x20 ADD PUSH1 0x0 KECCAK256 PUSH1 0x0 ADD SLOAD PUSH1 0xE SLOAD PUSH1 0xD SLOAD PUSH1 0x10 SLOAD PUSH1 0x1C SLOAD PUSH2 0x32BB JUMP JUMPDEST PUSH1 0x6 SLOAD PUSH1 0x5 SLOAD PUSH2 0x32F5 JUMP JUMPDEST PUSH2 0x2B88 PUSH1 0x28 PUSH1 0x0 DUP6 PUSH20 0xFFFFFFFFFFFFFFFFFFFFFFFFFFFFFFFFFFFFFFFF AND PUSH20 0xFFFFFFFFFFFFFFFFFFFFFFFFFFFFFFFFFFFFFFFF AND DUP2 MSTORE PUSH1 0x20 ADD SWAP1 DUP2 MSTORE PUSH1 0x20 ADD PUSH1 0x0 KECCAK256 PUSH1 0x0 PUSH1 0x1 ISZERO ISZERO ISZERO ISZERO DUP2 MSTORE PUSH1 0x20 ADD SWAP1 DUP2 MSTORE PUSH1 0x20 ADD PUSH1 0x0 KECCAK256 PUSH1 0x0 ADD SLOAD PUSH1 0xF SLOAD PUSH1 0x11 SLOAD PUSH2 0x32F5 JUMP JUMPDEST PUSH2 0x2B92 SWAP2 SWAP1 PUSH2 0x45F1 JUMP JUMPDEST SWAP1 POP SWAP2 SWAP1 POP JUMP JUMPDEST PUSH1 0x0 PUSH2 0x2C08 PUSH1 0x28 PUSH1 0x0 DUP5 PUSH20 0xFFFFFFFFFFFFFFFFFFFFFFFFFFFFFFFFFFFFFFFF AND PUSH20 0xFFFFFFFFFFFFFFFFFFFFFFFFFFFFFFFFFFFFFFFF AND DUP2 MSTORE PUSH1 0x20 ADD SWAP1 DUP2 MSTORE PUSH1 0x20 ADD PUSH1 0x0 KECCAK256 PUSH1 0x0 PUSH1 0x1 ISZERO ISZERO ISZERO ISZERO DUP2 MSTORE PUSH1 0x20 ADD SWAP1 DUP2 MSTORE PUSH1 0x20 ADD PUSH1 0x0 KECCAK256 PUSH1 0x1 ADD SLOAD PUSH1 0xD SLOAD PUSH1 0x6 SLOAD PUSH1 0x5 SLOAD PUSH1 0x1C SLOAD PUSH2 0x32BB JUMP JUMPDEST PUSH1 0x28 PUSH1 0x0 DUP5 PUSH20 0xFFFFFFFFFFFFFFFFFFFFFFFFFFFFFFFFFFFFFFFF AND PUSH20 0xFFFFFFFFFFFFFFFFFFFFFFFFFFFFFFFFFFFFFFFF AND DUP2 MSTORE PUSH1 0x20 ADD SWAP1 DUP2 MSTORE PUSH1 0x20 ADD PUSH1 0x0 KECCAK256 PUSH1 0x0 DUP1 ISZERO ISZERO ISZERO ISZERO DUP2 MSTORE PUSH1 0x20 ADD SWAP1 DUP2 MSTORE PUSH1 0x20 ADD PUSH1 0x0 KECCAK256 PUSH1 0x1 ADD SLOAD PUSH2 0x2C6A SWAP2 SWAP1 PUSH2 0x45F1 JUMP JUMPDEST SWAP1 POP SWAP2 SWAP1 POP JUMP JUMPDEST PUSH1 0x0 PUSH2 0x2CDB PUSH1 0x29 PUSH1 0x0 DUP5 PUSH20 0xFFFFFFFFFFFFFFFFFFFFFFFFFFFFFFFFFFFFFFFF AND PUSH20 0xFFFFFFFFFFFFFFFFFFFFFFFFFFFFFFFFFFFFFFFF AND DUP2 MSTORE PUSH1 0x20 ADD SWAP1 DUP2 MSTORE PUSH1 0x20 ADD PUSH1 0x0 KECCAK256 PUSH1 0x1 PUSH1 0x2 DUP2 LT PUSH2 0x2CC8 JUMPI PUSH2 0x2CC7 PUSH2 0x495D JUMP JUMPDEST JUMPDEST ADD SLOAD PUSH1 0xD SLOAD PUSH1 0x6 SLOAD PUSH1 0x5 SLOAD PUSH1 0x1C SLOAD PUSH2 0x32BB JUMP JUMPDEST PUSH1 0x29 PUSH1 0x0 DUP5 PUSH20 0xFFFFFFFFFFFFFFFFFFFFFFFFFFFFFFFFFFFFFFFF AND PUSH20 0xFFFFFFFFFFFFFFFFFFFFFFFFFFFFFFFFFFFFFFFF AND DUP2 MSTORE PUSH1 0x20 ADD SWAP1 DUP2 MSTORE PUSH1 0x20 ADD PUSH1 0x0 KECCAK256 PUSH1 0x0 PUSH1 0x2 DUP2 LT PUSH2 0x2D2D JUMPI PUSH2 0x2D2C PUSH2 0x495D JUMP JUMPDEST JUMPDEST ADD SLOAD PUSH2 0x2D39 SWAP2 SWAP1 PUSH2 0x45F1 JUMP JUMPDEST SWAP1 POP SWAP2 SWAP1 POP JUMP JUMPDEST PUSH1 0x0 DUP1 PUSH2 0x2D6E PUSH1 0xB SLOAD PUSH1 0xC SLOAD PUSH1 0x5 SLOAD PUSH1 0x6 SLOAD PUSH1 0x3 SLOAD PUSH1 0x4 SLOAD PUSH1 0x0 SLOAD PUSH2 0x2D66 PUSH1 0x0 SLOAD PUSH2 0x38B7 JUMP JUMPDEST PUSH1 0x1 SLOAD PUSH2 0x38D4 JUMP JUMPDEST SWAP2 POP SWAP2 POP PUSH1 0x0 DUP1 PUSH2 0x2D91 DUP5 DUP5 PUSH1 0x7 SLOAD PUSH1 0x8 SLOAD PUSH1 0x20 SLOAD PUSH1 0x15 SLOAD PUSH1 0xB SLOAD PUSH1 0xC SLOAD PUSH2 0x3970 JUMP JUMPDEST SWAP2 POP SWAP2 POP PUSH1 0x0 PUSH1 0x13 SLOAD NUMBER PUSH2 0x2DA5 SWAP2 SWAP1 PUSH2 0x4843 JUMP JUMPDEST SWAP1 POP NUMBER PUSH1 0x13 DUP2 SWAP1 SSTORE POP PUSH1 0x0 ISZERO ISZERO PUSH1 0x14 PUSH1 0x0 SWAP1 SLOAD SWAP1 PUSH2 0x100 EXP SWAP1 DIV PUSH1 0xFF AND ISZERO ISZERO EQ ISZERO PUSH2 0x2E39 JUMPI PUSH2 0x2DDE PUSH1 0xE SLOAD PUSH1 0x12 SLOAD DUP4 PUSH1 0x1C SLOAD PUSH1 0x1 PUSH2 0x32BB JUMP JUMPDEST PUSH1 0xE SLOAD PUSH2 0x2DEB SWAP2 SWAP1 PUSH2 0x45F1 JUMP JUMPDEST PUSH1 0xE DUP2 SWAP1 SSTORE POP DUP1 PUSH2 0x2E17 PUSH1 0x12 SLOAD PUSH1 0xE SLOAD PUSH2 0x2E0C PUSH1 0xD SLOAD PUSH1 0x6 SLOAD PUSH1 0x5 SLOAD PUSH2 0x32F5 JUMP JUMPDEST PUSH1 0x1C SLOAD PUSH1 0x1C SLOAD PUSH2 0x32BB JUMP JUMPDEST PUSH2 0x2E21 SWAP2 SWAP1 PUSH2 0x47E9 JUMP JUMPDEST PUSH1 0xF SLOAD PUSH2 0x2E2E SWAP2 SWAP1 PUSH2 0x4843 JUMP JUMPDEST PUSH1 0xF DUP2 SWAP1 SSTORE POP PUSH2 0x2E96 JUMP JUMPDEST PUSH2 0x2E4D PUSH1 0xF SLOAD PUSH1 0x12 SLOAD DUP4 PUSH1 0x1C SLOAD PUSH1 0x1 PUSH2 0x32BB JUMP JUMPDEST PUSH1 0xF SLOAD PUSH2 0x2E5A SWAP2 SWAP1 PUSH2 0x45F1 JUMP JUMPDEST PUSH1 0xF DUP2 SWAP1 SSTORE POP PUSH2 0x2E82 PUSH1 0x12 SLOAD PUSH1 0xF SLOAD DUP4 PUSH2 0x2E7B PUSH1 0xD SLOAD PUSH1 0x6 SLOAD PUSH1 0x5 SLOAD PUSH2 0x32F5 JUMP JUMPDEST PUSH1 0x1 PUSH2 0x32BB JUMP JUMPDEST PUSH1 0xE SLOAD PUSH2 0x2E8F SWAP2 SWAP1 PUSH2 0x4843 JUMP JUMPDEST PUSH1 0xE DUP2 SWAP1 SSTORE POP JUMPDEST DUP3 PUSH1 0x12 DUP2 SWAP1 SSTORE POP DUP2 PUSH1 0x14 PUSH1 0x0 PUSH2 0x100 EXP DUP2 SLOAD DUP2 PUSH1 0xFF MUL NOT AND SWAP1 DUP4 ISZERO ISZERO MUL OR SWAP1 SSTORE POP POP POP POP POP POP JUMP JUMPDEST PUSH1 0x0 PUSH1 0x1 PUSH1 0x24 SLOAD EQ PUSH2 0x2F05 JUMPI PUSH1 0x40 MLOAD PUSH32 0x8C379A000000000000000000000000000000000000000000000000000000000 DUP2 MSTORE PUSH1 0x4 ADD PUSH2 0x2EFC SWAP1 PUSH2 0x4566 JUMP JUMPDEST PUSH1 0x40 MLOAD DUP1 SWAP2 SUB SWAP1 REVERT JUMPDEST PUSH1 0x0 PUSH1 0x24 DUP2 SWAP1 SSTORE POP PUSH1 0x0 JUMPDEST PUSH2 0x2F3B PUSH2 0x2F30 PUSH1 0x2 PUSH1 0x1 SLOAD PUSH2 0x2F25 SWAP2 SWAP1 PUSH2 0x4647 JUMP JUMPDEST PUSH1 0x1F SLOAD PUSH1 0x1C SLOAD PUSH2 0x32F5 JUMP JUMPDEST PUSH1 0x3 SLOAD PUSH1 0x5 SLOAD PUSH2 0x3A1A JUMP JUMPDEST DUP2 DUP7 PUSH2 0x2F47 SWAP2 SWAP1 PUSH2 0x4843 JUMP JUMPDEST GT ISZERO PUSH2 0x3132 JUMPI PUSH1 0x0 PUSH2 0x2F6C PUSH1 0x2 PUSH1 0x1 SLOAD PUSH2 0x2F61 SWAP2 SWAP1 PUSH2 0x4647 JUMP JUMPDEST PUSH1 0x1F SLOAD PUSH1 0x1C SLOAD PUSH2 0x32F5 JUMP JUMPDEST SWAP1 POP PUSH1 0x0 PUSH2 0x2F8A PUSH1 0x0 SLOAD PUSH2 0x2F81 PUSH1 0x0 SLOAD PUSH2 0x38B7 JUMP JUMPDEST PUSH1 0x1 SLOAD DUP6 PUSH2 0x3A4F JUMP JUMPDEST SWAP1 POP PUSH1 0x0 DUP6 GT DUP1 ISZERO PUSH2 0x2FB4 JUMPI POP DUP5 PUSH2 0x2FA7 PUSH1 0x4 SLOAD DUP4 PUSH1 0x6 SLOAD PUSH2 0x3A1A JUMP JUMPDEST DUP6 PUSH2 0x2FB2 SWAP2 SWAP1 PUSH2 0x45F1 JUMP JUMPDEST GT JUMPDEST ISZERO PUSH2 0x2FC0 JUMPI POP POP PUSH2 0x3132 JUMP JUMPDEST PUSH2 0x2FCF PUSH1 0x4 SLOAD DUP3 PUSH1 0x6 SLOAD PUSH2 0x3A1A JUMP JUMPDEST DUP5 PUSH2 0x2FDA SWAP2 SWAP1 PUSH2 0x45F1 JUMP JUMPDEST SWAP4 POP PUSH2 0x2FEB DUP3 PUSH1 0x3 SLOAD PUSH1 0x5 SLOAD PUSH2 0x3A1A JUMP JUMPDEST DUP4 PUSH2 0x2FF6 SWAP2 SWAP1 PUSH2 0x45F1 JUMP JUMPDEST SWAP3 POP PUSH1 0x0 ISZERO ISZERO DUP7 ISZERO ISZERO EQ ISZERO PUSH2 0x3054 JUMPI PUSH2 0x3014 DUP3 PUSH1 0x3 SLOAD PUSH1 0x5 SLOAD PUSH2 0x3A1A JUMP JUMPDEST PUSH1 0xB PUSH1 0x0 DUP3 DUP3 SLOAD PUSH2 0x3025 SWAP2 SWAP1 PUSH2 0x45F1 JUMP JUMPDEST SWAP3 POP POP DUP2 SWAP1 SSTORE POP PUSH2 0x303B PUSH1 0x4 SLOAD DUP3 PUSH1 0x6 SLOAD PUSH2 0x3A1A JUMP JUMPDEST PUSH1 0xC PUSH1 0x0 DUP3 DUP3 SLOAD PUSH2 0x304C SWAP2 SWAP1 PUSH2 0x4843 JUMP JUMPDEST SWAP3 POP POP DUP2 SWAP1 SSTORE POP JUMPDEST PUSH2 0x306F PUSH1 0x6 SLOAD PUSH1 0x2 PUSH1 0x1 SLOAD PUSH2 0x3069 SWAP2 SWAP1 PUSH2 0x4647 JUMP JUMPDEST DUP4 PUSH2 0x32F5 JUMP JUMPDEST PUSH1 0x6 DUP2 SWAP1 SSTORE POP PUSH2 0x3090 PUSH1 0x5 SLOAD PUSH1 0x2 PUSH1 0x1 SLOAD PUSH2 0x308A SWAP2 SWAP1 PUSH2 0x4647 JUMP JUMPDEST DUP5 PUSH2 0x32F5 JUMP JUMPDEST PUSH1 0x5 DUP2 SWAP1 SSTORE POP PUSH2 0x30D9 PUSH2 0x30B4 PUSH1 0x0 SLOAD PUSH2 0x30AA PUSH1 0x0 SLOAD PUSH2 0x38B7 JUMP JUMPDEST PUSH1 0x1 SLOAD DUP7 DUP7 PUSH2 0x3B4F JUMP JUMPDEST DUP3 PUSH1 0x2 PUSH1 0x1 SLOAD PUSH2 0x30C4 SWAP2 SWAP1 PUSH2 0x4647 JUMP JUMPDEST DUP6 PUSH1 0x2 PUSH1 0x1 SLOAD PUSH2 0x30D4 SWAP2 SWAP1 PUSH2 0x4647 JUMP JUMPDEST PUSH2 0x32BB JUMP JUMPDEST PUSH1 0xD DUP2 SWAP1 SSTORE POP PUSH2 0x30ED PUSH1 0x1 SLOAD PUSH1 0xD SLOAD PUSH2 0x3C43 JUMP JUMPDEST PUSH1 0x0 DUP2 SWAP1 SSTORE POP PUSH2 0x30FB PUSH2 0x3D9E JUMP JUMPDEST PUSH1 0x1 DUP2 SWAP1 SSTORE POP PUSH1 0x2 PUSH1 0x1 SLOAD PUSH2 0x3110 SWAP2 SWAP1 PUSH2 0x4647 JUMP JUMPDEST PUSH1 0x3 DUP2 SWAP1 SSTORE POP PUSH1 0x2 PUSH1 0x1 SLOAD PUSH2 0x3125 SWAP2 SWAP1 PUSH2 0x4647 JUMP JUMPDEST PUSH1 0x4 DUP2 SWAP1 SSTORE POP POP POP PUSH2 0x2F10 JUMP JUMPDEST PUSH1 0x0 PUSH1 0x3 SLOAD SWAP1 POP PUSH1 0x0 PUSH1 0x4 SLOAD SWAP1 POP PUSH1 0x0 DUP6 EQ ISZERO PUSH2 0x31A2 JUMPI PUSH2 0x3163 DUP4 DUP9 PUSH2 0x3158 SWAP2 SWAP1 PUSH2 0x4843 JUMP JUMPDEST PUSH1 0x5 SLOAD PUSH1 0x1C SLOAD PUSH2 0x32F5 JUMP JUMPDEST PUSH1 0x3 PUSH1 0x0 DUP3 DUP3 SLOAD PUSH2 0x3174 SWAP2 SWAP1 PUSH2 0x45F1 JUMP JUMPDEST SWAP3 POP POP DUP2 SWAP1 SSTORE POP PUSH2 0x3197 PUSH1 0x0 SLOAD PUSH2 0x318C PUSH1 0x0 SLOAD PUSH2 0x38B7 JUMP JUMPDEST PUSH1 0x1 SLOAD PUSH1 0x3 SLOAD PUSH2 0x3A4F JUMP JUMPDEST PUSH1 0x4 DUP2 SWAP1 SSTORE POP PUSH2 0x31F7 JUMP JUMPDEST PUSH2 0x31BC DUP5 DUP7 PUSH2 0x31B1 SWAP2 SWAP1 PUSH2 0x4843 JUMP JUMPDEST PUSH1 0x6 SLOAD PUSH1 0x1C SLOAD PUSH2 0x32F5 JUMP JUMPDEST PUSH1 0x4 PUSH1 0x0 DUP3 DUP3 SLOAD PUSH2 0x31CD SWAP2 SWAP1 PUSH2 0x4843 JUMP JUMPDEST SWAP3 POP POP DUP2 SWAP1 SSTORE POP PUSH2 0x31F0 PUSH1 0x0 SLOAD PUSH2 0x31E5 PUSH1 0x0 SLOAD PUSH2 0x38B7 JUMP JUMPDEST PUSH1 0x1 SLOAD PUSH1 0x4 SLOAD PUSH2 0x3DF7 JUMP JUMPDEST PUSH1 0x3 DUP2 SWAP1 SSTORE POP JUMPDEST PUSH2 0x3206 DUP2 PUSH1 0x4 SLOAD PUSH1 0x6 SLOAD PUSH2 0x3A1A JUMP JUMPDEST DUP5 PUSH2 0x3211 SWAP2 SWAP1 PUSH2 0x45F1 JUMP JUMPDEST SWAP4 POP PUSH2 0x3222 PUSH1 0x3 SLOAD DUP4 PUSH1 0x5 SLOAD PUSH2 0x3A1A JUMP JUMPDEST DUP4 PUSH2 0x322D SWAP2 SWAP1 PUSH2 0x45F1 JUMP JUMPDEST SWAP3 POP PUSH1 0x1 ISZERO ISZERO DUP7 ISZERO ISZERO EQ ISZERO PUSH2 0x325A JUMPI DUP4 PUSH1 0x8 PUSH1 0x0 DUP3 DUP3 SLOAD PUSH2 0x324E SWAP2 SWAP1 PUSH2 0x45F1 JUMP JUMPDEST SWAP3 POP POP DUP2 SWAP1 SSTORE POP PUSH2 0x32A9 JUMP JUMPDEST PUSH2 0x3269 PUSH1 0x3 SLOAD DUP4 PUSH1 0x5 SLOAD PUSH2 0x3A1A JUMP JUMPDEST PUSH1 0xB PUSH1 0x0 DUP3 DUP3 SLOAD PUSH2 0x327A SWAP2 SWAP1 PUSH2 0x45F1 JUMP JUMPDEST SWAP3 POP POP DUP2 SWAP1 SSTORE POP PUSH2 0x3290 DUP2 PUSH1 0x4 SLOAD PUSH1 0x6 SLOAD PUSH2 0x3A1A JUMP JUMPDEST PUSH1 0xC PUSH1 0x0 DUP3 DUP3 SLOAD PUSH2 0x32A1 SWAP2 SWAP1 PUSH2 0x4843 JUMP JUMPDEST SWAP3 POP POP DUP2 SWAP1 SSTORE POP JUMPDEST POP POP POP PUSH1 0x1 PUSH1 0x24 DUP2 SWAP1 SSTORE POP SWAP4 SWAP3 POP POP POP JUMP JUMPDEST PUSH1 0x0 DUP2 DUP4 DUP6 DUP8 DUP10 PUSH2 0x32CC SWAP2 SWAP1 PUSH2 0x47E9 JUMP JUMPDEST PUSH2 0x32D6 SWAP2 SWAP1 PUSH2 0x47E9 JUMP JUMPDEST PUSH2 0x32E0 SWAP2 SWAP1 PUSH2 0x4647 JUMP JUMPDEST PUSH2 0x32EA SWAP2 SWAP1 PUSH2 0x4647 JUMP JUMPDEST SWAP1 POP SWAP6 SWAP5 POP POP POP POP POP JUMP JUMPDEST PUSH1 0x0 DUP2 DUP4 DUP6 PUSH2 0x3304 SWAP2 SWAP1 PUSH2 0x47E9 JUMP JUMPDEST PUSH2 0x330E SWAP2 SWAP1 PUSH2 0x4647 JUMP JUMPDEST SWAP1 POP SWAP4 SWAP3 POP POP POP JUMP JUMPDEST PUSH1 0x0 PUSH1 0x1 PUSH1 0x24 SLOAD EQ PUSH2 0x335E JUMPI PUSH1 0x40 MLOAD PUSH32 0x8C379A000000000000000000000000000000000000000000000000000000000 DUP2 MSTORE PUSH1 0x4 ADD PUSH2 0x3355 SWAP1 PUSH2 0x4566 JUMP JUMPDEST PUSH1 0x40 MLOAD DUP1 SWAP2 SUB SWAP1 REVERT JUMPDEST PUSH1 0x0 PUSH1 0x24 DUP2 SWAP1 SSTORE POP PUSH1 0x0 JUMPDEST PUSH2 0x3394 PUSH2 0x3389 PUSH1 0x2 PUSH1 0x1 SLOAD PUSH2 0x337E SWAP2 SWAP1 PUSH2 0x4647 JUMP JUMPDEST PUSH1 0x1F SLOAD PUSH1 0x1C SLOAD PUSH2 0x32F5 JUMP JUMPDEST PUSH1 0x4 SLOAD PUSH1 0x6 SLOAD PUSH2 0x3A1A JUMP JUMPDEST DUP2 DUP7 PUSH2 0x33A0 SWAP2 SWAP1 PUSH2 0x4843 JUMP JUMPDEST GT ISZERO PUSH2 0x358B JUMPI PUSH1 0x0 PUSH2 0x33C5 PUSH1 0x2 PUSH1 0x1 SLOAD PUSH2 0x33BA SWAP2 SWAP1 PUSH2 0x4647 JUMP JUMPDEST PUSH1 0x1F SLOAD PUSH1 0x1C SLOAD PUSH2 0x32F5 JUMP JUMPDEST SWAP1 POP PUSH1 0x0 PUSH2 0x33E3 PUSH1 0x0 SLOAD PUSH2 0x33DA PUSH1 0x0 SLOAD PUSH2 0x38B7 JUMP JUMPDEST PUSH1 0x1 SLOAD DUP6 PUSH2 0x3DF7 JUMP JUMPDEST SWAP1 POP PUSH1 0x0 DUP6 GT DUP1 ISZERO PUSH2 0x340D JUMPI POP DUP5 PUSH2 0x3400 PUSH1 0x3 SLOAD DUP4 PUSH1 0x5 SLOAD PUSH2 0x3A1A JUMP JUMPDEST DUP6 PUSH2 0x340B SWAP2 SWAP1 PUSH2 0x45F1 JUMP JUMPDEST GT JUMPDEST ISZERO PUSH2 0x3419 JUMPI POP POP PUSH2 0x358B JUMP JUMPDEST PUSH2 0x3428 PUSH1 0x3 SLOAD DUP3 PUSH1 0x5 SLOAD PUSH2 0x3A1A JUMP JUMPDEST DUP5 PUSH2 0x3433 SWAP2 SWAP1 PUSH2 0x45F1 JUMP JUMPDEST SWAP4 POP PUSH2 0x3444 DUP3 PUSH1 0x4 SLOAD PUSH1 0x6 SLOAD PUSH2 0x3A1A JUMP JUMPDEST DUP4 PUSH2 0x344F SWAP2 SWAP1 PUSH2 0x45F1 JUMP JUMPDEST SWAP3 POP PUSH1 0x0 ISZERO ISZERO DUP7 ISZERO ISZERO EQ ISZERO PUSH2 0x34AD JUMPI PUSH2 0x346D PUSH1 0x3 SLOAD DUP3 PUSH1 0x5 SLOAD PUSH2 0x3A1A JUMP JUMPDEST PUSH1 0xB PUSH1 0x0 DUP3 DUP3 SLOAD PUSH2 0x347E SWAP2 SWAP1 PUSH2 0x4843 JUMP JUMPDEST SWAP3 POP POP DUP2 SWAP1 SSTORE POP PUSH2 0x3494 DUP3 PUSH1 0x4 SLOAD PUSH1 0x6 SLOAD PUSH2 0x3A1A JUMP JUMPDEST PUSH1 0xC PUSH1 0x0 DUP3 DUP3 SLOAD PUSH2 0x34A5 SWAP2 SWAP1 PUSH2 0x45F1 JUMP JUMPDEST SWAP3 POP POP DUP2 SWAP1 SSTORE POP JUMPDEST PUSH2 0x34C8 PUSH1 0x6 SLOAD PUSH1 0x2 PUSH1 0x1 SLOAD PUSH2 0x34C2 SWAP2 SWAP1 PUSH2 0x4647 JUMP JUMPDEST DUP5 PUSH2 0x32F5 JUMP JUMPDEST PUSH1 0x6 DUP2 SWAP1 SSTORE POP PUSH2 0x34E9 PUSH1 0x5 SLOAD PUSH1 0x2 PUSH1 0x1 SLOAD PUSH2 0x34E3 SWAP2 SWAP1 PUSH2 0x4647 JUMP JUMPDEST DUP4 PUSH2 0x32F5 JUMP JUMPDEST PUSH1 0x5 DUP2 SWAP1 SSTORE POP PUSH2 0x3532 PUSH2 0x350D PUSH1 0x0 SLOAD PUSH2 0x3503 PUSH1 0x0 SLOAD PUSH2 0x38B7 JUMP JUMPDEST PUSH1 0x1 SLOAD DUP6 DUP8 PUSH2 0x3B4F JUMP JUMPDEST DUP4 PUSH1 0x2 PUSH1 0x1 SLOAD PUSH2 0x351D SWAP2 SWAP1 PUSH2 0x4647 JUMP JUMPDEST DUP5 PUSH1 0x2 PUSH1 0x1 SLOAD PUSH2 0x352D SWAP2 SWAP1 PUSH2 0x4647 JUMP JUMPDEST PUSH2 0x32BB JUMP JUMPDEST PUSH1 0xD DUP2 SWAP1 SSTORE POP PUSH2 0x3546 PUSH1 0x1 SLOAD PUSH1 0xD SLOAD PUSH2 0x3C43 JUMP JUMPDEST PUSH1 0x0 DUP2 SWAP1 SSTORE POP PUSH2 0x3554 PUSH2 0x3D9E JUMP JUMPDEST PUSH1 0x1 DUP2 SWAP1 SSTORE POP PUSH1 0x2 PUSH1 0x1 SLOAD PUSH2 0x3569 SWAP2 SWAP1 PUSH2 0x4647 JUMP JUMPDEST PUSH1 0x3 DUP2 SWAP1 SSTORE POP PUSH1 0x2 PUSH1 0x1 SLOAD PUSH2 0x357E SWAP2 SWAP1 PUSH2 0x4647 JUMP JUMPDEST PUSH1 0x4 DUP2 SWAP1 SSTORE POP POP POP PUSH2 0x3369 JUMP JUMPDEST PUSH1 0x0 PUSH1 0x3 SLOAD SWAP1 POP PUSH1 0x0 PUSH1 0x4 SLOAD SWAP1 POP PUSH1 0x0 DUP6 EQ ISZERO PUSH2 0x35FB JUMPI PUSH2 0x35BC DUP4 DUP9 PUSH2 0x35B1 SWAP2 SWAP1 PUSH2 0x4843 JUMP JUMPDEST PUSH1 0x6 SLOAD PUSH1 0x1C SLOAD PUSH2 0x32F5 JUMP JUMPDEST PUSH1 0x4 PUSH1 0x0 DUP3 DUP3 SLOAD PUSH2 0x35CD SWAP2 SWAP1 PUSH2 0x45F1 JUMP JUMPDEST SWAP3 POP POP DUP2 SWAP1 SSTORE POP PUSH2 0x35F0 PUSH1 0x0 SLOAD PUSH2 0x35E5 PUSH1 0x0 SLOAD PUSH2 0x38B7 JUMP JUMPDEST PUSH1 0x1 SLOAD PUSH1 0x4 SLOAD PUSH2 0x3DF7 JUMP JUMPDEST PUSH1 0x3 DUP2 SWAP1 SSTORE POP PUSH2 0x3650 JUMP JUMPDEST PUSH2 0x3615 DUP5 DUP7 PUSH2 0x360A SWAP2 SWAP1 PUSH2 0x4843 JUMP JUMPDEST PUSH1 0x5 SLOAD PUSH1 0x1C SLOAD PUSH2 0x32F5 JUMP JUMPDEST PUSH1 0x3 PUSH1 0x0 DUP3 DUP3 SLOAD PUSH2 0x3626 SWAP2 SWAP1 PUSH2 0x4843 JUMP JUMPDEST SWAP3 POP POP DUP2 SWAP1 SSTORE POP PUSH2 0x3649 PUSH1 0x0 SLOAD PUSH2 0x363E PUSH1 0x0 SLOAD PUSH2 0x38B7 JUMP JUMPDEST PUSH1 0x1 SLOAD PUSH1 0x3 SLOAD PUSH2 0x3A4F JUMP JUMPDEST PUSH1 0x4 DUP2 SWAP1 SSTORE POP JUMPDEST PUSH2 0x365F DUP3 PUSH1 0x3 SLOAD PUSH1 0x5 SLOAD PUSH2 0x3A1A JUMP JUMPDEST DUP5 PUSH2 0x366A SWAP2 SWAP1 PUSH2 0x45F1 JUMP JUMPDEST SWAP4 POP PUSH2 0x367B PUSH1 0x4 SLOAD DUP3 PUSH1 0x6 SLOAD PUSH2 0x3A1A JUMP JUMPDEST DUP4 PUSH2 0x3686 SWAP2 SWAP1 PUSH2 0x45F1 JUMP JUMPDEST SWAP3 POP PUSH1 0x1 ISZERO ISZERO DUP7 ISZERO ISZERO EQ ISZERO PUSH2 0x36B3 JUMPI DUP4 PUSH1 0x7 PUSH1 0x0 DUP3 DUP3 SLOAD PUSH2 0x36A7 SWAP2 SWAP1 PUSH2 0x45F1 JUMP JUMPDEST SWAP3 POP POP DUP2 SWAP1 SSTORE POP PUSH2 0x3702 JUMP JUMPDEST PUSH2 0x36C2 PUSH1 0x4 SLOAD DUP3 PUSH1 0x6 SLOAD PUSH2 0x3A1A JUMP JUMPDEST PUSH1 0xC PUSH1 0x0 DUP3 DUP3 SLOAD PUSH2 0x36D3 SWAP2 SWAP1 PUSH2 0x45F1 JUMP JUMPDEST SWAP3 POP POP DUP2 SWAP1 SSTORE POP PUSH2 0x36E9 DUP3 PUSH1 0x3 SLOAD PUSH1 0x5 SLOAD PUSH2 0x3A1A JUMP JUMPDEST PUSH1 0xB PUSH1 0x0 DUP3 DUP3 SLOAD PUSH2 0x36FA SWAP2 SWAP1 PUSH2 0x4843 JUMP JUMPDEST SWAP3 POP POP DUP2 SWAP1 SSTORE POP JUMPDEST POP POP POP PUSH1 0x1 PUSH1 0x24 DUP2 SWAP1 SSTORE POP SWAP4 SWAP3 POP POP POP JUMP JUMPDEST PUSH1 0x0 DUP1 DUP5 PUSH20 0xFFFFFFFFFFFFFFFFFFFFFFFFFFFFFFFFFFFFFFFF AND PUSH1 0x40 MLOAD DUP1 PUSH1 0x40 ADD PUSH1 0x40 MSTORE DUP1 PUSH1 0x19 DUP2 MSTORE PUSH1 0x20 ADD PUSH32 0x7472616E7366657228616464726573732C75696E743235362900000000000000 DUP2 MSTORE POP DUP1 MLOAD SWAP1 PUSH1 0x20 ADD KECCAK256 DUP6 DUP6 PUSH1 0x40 MLOAD PUSH1 0x24 ADD PUSH2 0x377E SWAP3 SWAP2 SWAP1 PUSH2 0x4502 JUMP JUMPDEST PUSH1 0x40 MLOAD PUSH1 0x20 DUP2 DUP4 SUB SUB DUP2 MSTORE SWAP1 PUSH1 0x40 MSTORE SWAP1 PUSH28 0xFFFFFFFFFFFFFFFFFFFFFFFFFFFFFFFFFFFFFFFFFFFFFFFFFFFFFFFF NOT AND PUSH1 0x20 DUP3 ADD DUP1 MLOAD PUSH28 0xFFFFFFFFFFFFFFFFFFFFFFFFFFFFFFFFFFFFFFFFFFFFFFFFFFFFFFFF DUP4 DUP2 DUP4 AND OR DUP4 MSTORE POP POP POP POP PUSH1 0x40 MLOAD PUSH2 0x37E8 SWAP2 SWAP1 PUSH2 0x44D0 JUMP JUMPDEST PUSH1 0x0 PUSH1 0x40 MLOAD DUP1 DUP4 SUB DUP2 PUSH1 0x0 DUP7 GAS CALL SWAP2 POP POP RETURNDATASIZE DUP1 PUSH1 0x0 DUP2 EQ PUSH2 0x3825 JUMPI PUSH1 0x40 MLOAD SWAP2 POP PUSH1 0x1F NOT PUSH1 0x3F RETURNDATASIZE ADD AND DUP3 ADD PUSH1 0x40 MSTORE RETURNDATASIZE DUP3 MSTORE RETURNDATASIZE PUSH1 0x0 PUSH1 0x20 DUP5 ADD RETURNDATACOPY PUSH2 0x382A JUMP JUMPDEST PUSH1 0x60 SWAP2 POP JUMPDEST POP SWAP2 POP SWAP2 POP DUP2 DUP1 ISZERO PUSH2 0x3858 JUMPI POP PUSH1 0x0 DUP2 MLOAD EQ DUP1 PUSH2 0x3857 JUMPI POP DUP1 DUP1 PUSH1 0x20 ADD SWAP1 MLOAD DUP2 ADD SWAP1 PUSH2 0x3856 SWAP2 SWAP1 PUSH2 0x4318 JUMP JUMPDEST JUMPDEST JUMPDEST PUSH2 0x3897 JUMPI PUSH1 0x40 MLOAD PUSH32 0x8C379A000000000000000000000000000000000000000000000000000000000 DUP2 MSTORE PUSH1 0x4 ADD PUSH2 0x388E SWAP1 PUSH2 0x4546 JUMP JUMPDEST PUSH1 0x40 MLOAD DUP1 SWAP2 SUB SWAP1 REVERT JUMPDEST POP POP POP POP POP JUMP JUMPDEST PUSH1 0x0 DUP2 DUP4 GT PUSH2 0x38AD JUMPI DUP2 PUSH2 0x38AF JUMP JUMPDEST DUP3 JUMPDEST SWAP1 POP SWAP3 SWAP2 POP POP JUMP JUMPDEST PUSH1 0x0 DUP2 PUSH8 0x1BC16D674EC80000 PUSH2 0x38CD SWAP2 SWAP1 PUSH2 0x4843 JUMP JUMPDEST SWAP1 POP SWAP2 SWAP1 POP JUMP JUMPDEST PUSH1 0x0 DUP1 PUSH1 0x0 PUSH2 0x38EC DUP13 DUP12 PUSH8 0xDE0B6B3A7640000 PUSH2 0x32F5 JUMP JUMPDEST SWAP1 POP PUSH1 0x0 PUSH2 0x3903 DUP13 DUP12 PUSH8 0xDE0B6B3A7640000 PUSH2 0x32F5 JUMP JUMPDEST SWAP1 POP PUSH1 0x0 PUSH2 0x3912 DUP4 DUP4 DUP9 PUSH2 0x3EF7 JUMP JUMPDEST SWAP1 POP PUSH1 0x0 DUP2 PUSH8 0x1BC16D674EC80000 PUSH2 0x392A SWAP2 SWAP1 PUSH2 0x4843 JUMP JUMPDEST SWAP1 POP PUSH2 0x3943 PUSH2 0x393C DUP4 DUP4 DUP11 DUP9 DUP9 PUSH2 0x3B4F JUMP JUMPDEST DUP14 DUP16 PUSH2 0x32F5 JUMP JUMPDEST SWAP6 POP PUSH2 0x395C PUSH2 0x3955 DUP11 DUP11 DUP11 DUP16 DUP16 PUSH2 0x3B4F JUMP JUMPDEST DUP14 DUP16 PUSH2 0x32F5 JUMP JUMPDEST SWAP5 POP POP POP POP POP SWAP10 POP SWAP10 SWAP8 POP POP POP POP POP POP POP POP JUMP JUMPDEST PUSH1 0x0 DUP1 DUP10 DUP10 GT ISZERO PUSH2 0x39B3 JUMPI PUSH2 0x3986 DUP8 DUP5 DUP9 PUSH2 0x3F7B JUMP JUMPDEST PUSH2 0x1680 PUSH2 0x3994 DUP12 DUP14 DUP15 PUSH2 0x3A1A JUMP JUMPDEST PUSH2 0x399E SWAP2 SWAP1 PUSH2 0x4647 JUMP JUMPDEST PUSH2 0x39A8 SWAP2 SWAP1 PUSH2 0x45F1 JUMP JUMPDEST SWAP2 POP PUSH1 0x0 SWAP1 POP PUSH2 0x39E7 JUMP JUMPDEST PUSH2 0x39BE DUP9 DUP6 DUP9 PUSH2 0x3F7B JUMP JUMPDEST PUSH2 0x1680 PUSH2 0x39CC DUP13 DUP13 DUP15 PUSH2 0x3A1A JUMP JUMPDEST PUSH2 0x39D6 SWAP2 SWAP1 PUSH2 0x4647 JUMP JUMPDEST PUSH2 0x39E0 SWAP2 SWAP1 PUSH2 0x45F1 JUMP JUMPDEST SWAP2 POP PUSH1 0x1 SWAP1 POP JUMPDEST DUP5 PUSH2 0x780 DUP4 PUSH2 0x39F6 SWAP2 SWAP1 PUSH2 0x47E9 JUMP JUMPDEST GT ISZERO PUSH2 0x3A0D JUMPI PUSH2 0x780 DUP6 PUSH2 0x3A0A SWAP2 SWAP1 PUSH2 0x4647 JUMP JUMPDEST SWAP2 POP JUMPDEST SWAP9 POP SWAP9 SWAP7 POP POP POP POP POP POP POP JUMP JUMPDEST PUSH1 0x0 DUP2 PUSH8 0xDE0B6B3A7640000 DUP5 DUP7 PUSH2 0x3A32 SWAP2 SWAP1 PUSH2 0x4843 JUMP JUMPDEST PUSH2 0x3A3C SWAP2 SWAP1 PUSH2 0x47E9 JUMP JUMPDEST PUSH2 0x3A46 SWAP2 SWAP1 PUSH2 0x4647 JUMP JUMPDEST SWAP1 POP SWAP4 SWAP3 POP POP POP JUMP JUMPDEST PUSH1 0x0 DUP2 DUP5 PUSH1 0x8 PUSH2 0x3A5F SWAP2 SWAP1 PUSH2 0x47E9 JUMP JUMPDEST PUSH2 0x3A69 SWAP2 SWAP1 PUSH2 0x47E9 JUMP JUMPDEST PUSH2 0x3B02 PUSH8 0xDE0B6B3A7640000 DUP6 DUP7 DUP8 PUSH2 0x3A82 SWAP2 SWAP1 PUSH2 0x47E9 JUMP JUMPDEST PUSH2 0x3A8C SWAP2 SWAP1 PUSH2 0x47E9 JUMP JUMPDEST PUSH1 0x0 PUSH2 0x3A98 SWAP2 SWAP1 PUSH2 0x4843 JUMP JUMPDEST DUP6 DUP9 PUSH1 0x10 PUSH2 0x3AA6 SWAP2 SWAP1 PUSH2 0x47E9 JUMP JUMPDEST PUSH2 0x3AB0 SWAP2 SWAP1 PUSH2 0x47E9 JUMP JUMPDEST PUSH2 0x3ABA SWAP2 SWAP1 PUSH2 0x47E9 JUMP JUMPDEST PUSH2 0x3AC4 SWAP2 SWAP1 PUSH2 0x47E9 JUMP JUMPDEST PUSH1 0x2 DUP6 DUP7 DUP11 PUSH1 0x4 PUSH2 0x3AD5 SWAP2 SWAP1 PUSH2 0x47E9 JUMP JUMPDEST PUSH2 0x3ADF SWAP2 SWAP1 PUSH2 0x47E9 JUMP JUMPDEST PUSH2 0x3AE9 SWAP2 SWAP1 PUSH2 0x47E9 JUMP JUMPDEST PUSH2 0x3AF3 SWAP2 SWAP1 PUSH2 0x46CB JUMP JUMPDEST PUSH2 0x3AFD SWAP2 SWAP1 PUSH2 0x4843 JUMP JUMPDEST PUSH2 0x3FC8 JUMP JUMPDEST DUP4 DUP5 DUP9 PUSH1 0x4 PUSH2 0x3B11 SWAP2 SWAP1 PUSH2 0x47E9 JUMP JUMPDEST PUSH2 0x3B1B SWAP2 SWAP1 PUSH2 0x47E9 JUMP JUMPDEST PUSH2 0x3B25 SWAP2 SWAP1 PUSH2 0x47E9 JUMP JUMPDEST PUSH1 0x0 PUSH2 0x3B31 SWAP2 SWAP1 PUSH2 0x4843 JUMP JUMPDEST PUSH2 0x3B3B SWAP2 SWAP1 PUSH2 0x45F1 JUMP JUMPDEST PUSH2 0x3B45 SWAP2 SWAP1 PUSH2 0x4647 JUMP JUMPDEST SWAP1 POP SWAP5 SWAP4 POP POP POP POP JUMP JUMPDEST PUSH1 0x0 DUP2 DUP5 DUP6 DUP7 PUSH2 0x3B5F SWAP2 SWAP1 PUSH2 0x47E9 JUMP JUMPDEST PUSH2 0x3B69 SWAP2 SWAP1 PUSH2 0x47E9 JUMP JUMPDEST PUSH2 0x3B73 SWAP2 SWAP1 PUSH2 0x47E9 JUMP JUMPDEST DUP3 DUP4 DUP6 DUP7 DUP11 PUSH1 0x4 PUSH2 0x3B84 SWAP2 SWAP1 PUSH2 0x47E9 JUMP JUMPDEST PUSH2 0x3B8E SWAP2 SWAP1 PUSH2 0x47E9 JUMP JUMPDEST PUSH2 0x3B98 SWAP2 SWAP1 PUSH2 0x47E9 JUMP JUMPDEST PUSH2 0x3BA2 SWAP2 SWAP1 PUSH2 0x47E9 JUMP JUMPDEST PUSH2 0x3BAC SWAP2 SWAP1 PUSH2 0x47E9 JUMP JUMPDEST PUSH2 0x3BB6 SWAP2 SWAP1 PUSH2 0x45F1 JUMP JUMPDEST PUSH8 0xDE0B6B3A7640000 DUP5 DUP7 DUP8 DUP9 PUSH2 0x3BCD SWAP2 SWAP1 PUSH2 0x47E9 JUMP JUMPDEST PUSH2 0x3BD7 SWAP2 SWAP1 PUSH2 0x47E9 JUMP JUMPDEST PUSH2 0x3BE1 SWAP2 SWAP1 PUSH2 0x47E9 JUMP JUMPDEST DUP5 DUP6 DUP8 DUP9 DUP12 PUSH1 0x4 PUSH2 0x3BF2 SWAP2 SWAP1 PUSH2 0x47E9 JUMP JUMPDEST PUSH2 0x3BFC SWAP2 SWAP1 PUSH2 0x47E9 JUMP JUMPDEST PUSH2 0x3C06 SWAP2 SWAP1 PUSH2 0x47E9 JUMP JUMPDEST PUSH2 0x3C10 SWAP2 SWAP1 PUSH2 0x47E9 JUMP JUMPDEST PUSH2 0x3C1A SWAP2 SWAP1 PUSH2 0x47E9 JUMP JUMPDEST PUSH2 0x3C24 SWAP2 SWAP1 PUSH2 0x45F1 JUMP JUMPDEST PUSH2 0x3C2E SWAP2 SWAP1 PUSH2 0x47E9 JUMP JUMPDEST PUSH2 0x3C38 SWAP2 SWAP1 PUSH2 0x4647 JUMP JUMPDEST SWAP1 POP SWAP6 SWAP5 POP POP POP POP POP JUMP JUMPDEST PUSH1 0x0 DUP1 PUSH1 0x2 DUP5 PUSH2 0x3C53 SWAP2 SWAP1 PUSH2 0x4647 JUMP JUMPDEST SWAP1 POP PUSH1 0x0 PUSH1 0x2 DUP6 PUSH2 0x3C64 SWAP2 SWAP1 PUSH2 0x4647 JUMP JUMPDEST SWAP1 POP DUP4 PUSH8 0xDE0B6B3A7640000 PUSH2 0x3C7A SWAP2 SWAP1 PUSH2 0x45F1 JUMP JUMPDEST DUP2 DUP3 DUP5 DUP6 PUSH1 0x4 PUSH2 0x3C8A SWAP2 SWAP1 PUSH2 0x47E9 JUMP JUMPDEST PUSH2 0x3C94 SWAP2 SWAP1 PUSH2 0x47E9 JUMP JUMPDEST PUSH2 0x3C9E SWAP2 SWAP1 PUSH2 0x47E9 JUMP JUMPDEST PUSH2 0x3CA8 SWAP2 SWAP1 PUSH2 0x47E9 JUMP JUMPDEST PUSH2 0x3CB2 SWAP2 SWAP1 PUSH2 0x47E9 JUMP JUMPDEST PUSH8 0xDE0B6B3A7640000 DUP6 DUP4 DUP9 DUP10 DUP11 PUSH2 0x3CCA SWAP2 SWAP1 PUSH2 0x47E9 JUMP JUMPDEST PUSH2 0x3CD4 SWAP2 SWAP1 PUSH2 0x47E9 JUMP JUMPDEST PUSH2 0x3CDE SWAP2 SWAP1 PUSH2 0x47E9 JUMP JUMPDEST PUSH2 0x3CE8 SWAP2 SWAP1 PUSH2 0x47E9 JUMP JUMPDEST PUSH2 0x3CF2 SWAP2 SWAP1 PUSH2 0x47E9 JUMP JUMPDEST PUSH15 0xC097CE7BC90715B34B9F1000000000 DUP5 DUP9 DUP10 DUP11 PUSH2 0x3D10 SWAP2 SWAP1 PUSH2 0x47E9 JUMP JUMPDEST PUSH2 0x3D1A SWAP2 SWAP1 PUSH2 0x47E9 JUMP JUMPDEST PUSH2 0x3D24 SWAP2 SWAP1 PUSH2 0x47E9 JUMP JUMPDEST PUSH2 0x3D2E SWAP2 SWAP1 PUSH2 0x47E9 JUMP JUMPDEST PUSH15 0xC097CE7BC90715B34B9F1000000000 DUP5 DUP6 DUP8 DUP9 PUSH1 0x8 PUSH2 0x3D4E SWAP2 SWAP1 PUSH2 0x47E9 JUMP JUMPDEST PUSH2 0x3D58 SWAP2 SWAP1 PUSH2 0x47E9 JUMP JUMPDEST PUSH2 0x3D62 SWAP2 SWAP1 PUSH2 0x47E9 JUMP JUMPDEST PUSH2 0x3D6C SWAP2 SWAP1 PUSH2 0x47E9 JUMP JUMPDEST PUSH2 0x3D76 SWAP2 SWAP1 PUSH2 0x47E9 JUMP JUMPDEST PUSH2 0x3D80 SWAP2 SWAP1 PUSH2 0x45F1 JUMP JUMPDEST PUSH2 0x3D8A SWAP2 SWAP1 PUSH2 0x4843 JUMP JUMPDEST PUSH2 0x3D94 SWAP2 SWAP1 PUSH2 0x4647 JUMP JUMPDEST SWAP3 POP POP POP SWAP3 SWAP2 POP POP JUMP JUMPDEST PUSH1 0x0 DUP1 PUSH2 0x3DD4 PUSH1 0xB SLOAD PUSH1 0x0 SLOAD PUSH1 0x5 SLOAD PUSH1 0xC SLOAD PUSH1 0x0 SLOAD PUSH8 0x1BC16D674EC80000 PUSH2 0x3DC6 SWAP2 SWAP1 PUSH2 0x4843 JUMP JUMPDEST PUSH1 0x6 SLOAD PUSH1 0x9 SLOAD PUSH1 0xA SLOAD PUSH2 0x4042 JUMP JUMPDEST SWAP1 POP PUSH1 0x1C SLOAD DUP2 PUSH1 0x2 SLOAD PUSH2 0x3DE7 SWAP2 SWAP1 PUSH2 0x47E9 JUMP JUMPDEST PUSH2 0x3DF1 SWAP2 SWAP1 PUSH2 0x4647 JUMP JUMPDEST SWAP2 POP POP SWAP1 JUMP JUMPDEST PUSH1 0x0 DUP2 DUP6 PUSH1 0x8 PUSH2 0x3E07 SWAP2 SWAP1 PUSH2 0x47E9 JUMP JUMPDEST PUSH2 0x3E11 SWAP2 SWAP1 PUSH2 0x47E9 JUMP JUMPDEST PUSH2 0x3EAA PUSH8 0xDE0B6B3A7640000 DUP6 DUP7 DUP8 PUSH2 0x3E2A SWAP2 SWAP1 PUSH2 0x47E9 JUMP JUMPDEST PUSH2 0x3E34 SWAP2 SWAP1 PUSH2 0x47E9 JUMP JUMPDEST PUSH1 0x0 PUSH2 0x3E40 SWAP2 SWAP1 PUSH2 0x4843 JUMP JUMPDEST DUP6 DUP10 PUSH1 0x10 PUSH2 0x3E4E SWAP2 SWAP1 PUSH2 0x47E9 JUMP JUMPDEST PUSH2 0x3E58 SWAP2 SWAP1 PUSH2 0x47E9 JUMP JUMPDEST PUSH2 0x3E62 SWAP2 SWAP1 PUSH2 0x47E9 JUMP JUMPDEST PUSH2 0x3E6C SWAP2 SWAP1 PUSH2 0x47E9 JUMP JUMPDEST PUSH1 0x2 DUP6 DUP7 DUP10 PUSH1 0x4 PUSH2 0x3E7D SWAP2 SWAP1 PUSH2 0x47E9 JUMP JUMPDEST PUSH2 0x3E87 SWAP2 SWAP1 PUSH2 0x47E9 JUMP JUMPDEST PUSH2 0x3E91 SWAP2 SWAP1 PUSH2 0x47E9 JUMP JUMPDEST PUSH2 0x3E9B SWAP2 SWAP1 PUSH2 0x46CB JUMP JUMPDEST PUSH2 0x3EA5 SWAP2 SWAP1 PUSH2 0x4843 JUMP JUMPDEST PUSH2 0x3FC8 JUMP JUMPDEST DUP4 DUP5 DUP8 PUSH1 0x4 PUSH2 0x3EB9 SWAP2 SWAP1 PUSH2 0x47E9 JUMP JUMPDEST PUSH2 0x3EC3 SWAP2 SWAP1 PUSH2 0x47E9 JUMP JUMPDEST PUSH2 0x3ECD SWAP2 SWAP1 PUSH2 0x47E9 JUMP JUMPDEST PUSH1 0x0 PUSH2 0x3ED9 SWAP2 SWAP1 PUSH2 0x4843 JUMP JUMPDEST PUSH2 0x3EE3 SWAP2 SWAP1 PUSH2 0x45F1 JUMP JUMPDEST PUSH2 0x3EED SWAP2 SWAP1 PUSH2 0x4647 JUMP JUMPDEST SWAP1 POP SWAP5 SWAP4 POP POP POP POP JUMP JUMPDEST PUSH1 0x0 DUP3 DUP5 PUSH2 0x3F05 SWAP2 SWAP1 PUSH2 0x4843 JUMP JUMPDEST PUSH8 0xDE0B6B3A7640000 DUP5 PUSH1 0x2 PUSH2 0x3F1B SWAP2 SWAP1 PUSH2 0x47E9 JUMP JUMPDEST DUP6 DUP8 PUSH1 0x4 DUP8 DUP9 DUP10 PUSH2 0x3F2C SWAP2 SWAP1 PUSH2 0x47E9 JUMP JUMPDEST PUSH2 0x3F36 SWAP2 SWAP1 PUSH2 0x47E9 JUMP JUMPDEST PUSH2 0x3F40 SWAP2 SWAP1 PUSH2 0x4647 JUMP JUMPDEST PUSH2 0x3F4A SWAP2 SWAP1 PUSH2 0x4647 JUMP JUMPDEST PUSH2 0x3F54 SWAP2 SWAP1 PUSH2 0x4647 JUMP JUMPDEST PUSH2 0x3F5E SWAP2 SWAP1 PUSH2 0x4843 JUMP JUMPDEST PUSH2 0x3F68 SWAP2 SWAP1 PUSH2 0x47E9 JUMP JUMPDEST PUSH2 0x3F72 SWAP2 SWAP1 PUSH2 0x4647 JUMP JUMPDEST SWAP1 POP SWAP4 SWAP3 POP POP POP JUMP JUMPDEST PUSH1 0x0 DUP2 PUSH2 0xE100 DUP6 DUP6 PUSH2 0x3F8D SWAP2 SWAP1 PUSH2 0x45F1 JUMP JUMPDEST PUSH8 0xDE0B6B3A7640000 DUP8 PUSH2 0x3FA1 SWAP2 SWAP1 PUSH2 0x47E9 JUMP JUMPDEST PUSH2 0x3FAB SWAP2 SWAP1 PUSH2 0x4647 JUMP JUMPDEST PUSH2 0x3FB5 SWAP2 SWAP1 PUSH2 0x4647 JUMP JUMPDEST PUSH2 0x3FBF SWAP2 SWAP1 PUSH2 0x45F1 JUMP JUMPDEST SWAP1 POP SWAP4 SWAP3 POP POP POP JUMP JUMPDEST PUSH1 0x0 PUSH1 0x3 DUP3 GT ISZERO PUSH2 0x402F JUMPI DUP2 SWAP1 POP PUSH1 0x0 PUSH1 0x1 PUSH1 0x2 DUP5 PUSH2 0x3FE7 SWAP2 SWAP1 PUSH2 0x4647 JUMP JUMPDEST PUSH2 0x3FF1 SWAP2 SWAP1 PUSH2 0x45F1 JUMP JUMPDEST SWAP1 POP JUMPDEST DUP2 DUP2 LT ISZERO PUSH2 0x4029 JUMPI DUP1 SWAP2 POP PUSH1 0x2 DUP2 DUP3 DUP6 PUSH2 0x400E SWAP2 SWAP1 PUSH2 0x4647 JUMP JUMPDEST PUSH2 0x4018 SWAP2 SWAP1 PUSH2 0x45F1 JUMP JUMPDEST PUSH2 0x4022 SWAP2 SWAP1 PUSH2 0x4647 JUMP JUMPDEST SWAP1 POP PUSH2 0x3FF4 JUMP JUMPDEST POP PUSH2 0x403D JUMP JUMPDEST PUSH1 0x0 DUP3 EQ PUSH2 0x403C JUMPI PUSH1 0x1 SWAP1 POP JUMPDEST JUMPDEST SWAP2 SWAP1 POP JUMP JUMPDEST PUSH1 0x0 PUSH2 0x4094 PUSH2 0x4055 DUP5 DUP11 DUP11 DUP7 DUP11 DUP11 PUSH2 0x40A2 JUMP JUMPDEST PUSH23 0xA70C3C40A64E6C51999090B65F67D9240000000000000 PUSH2 0x407B DUP13 DUP13 DUP13 DUP13 DUP13 DUP13 PUSH2 0x40A2 JUMP JUMPDEST PUSH2 0x4085 SWAP2 SWAP1 PUSH2 0x47E9 JUMP JUMPDEST PUSH2 0x408F SWAP2 SWAP1 PUSH2 0x4647 JUMP JUMPDEST PUSH2 0x40FE JUMP JUMPDEST SWAP1 POP SWAP9 SWAP8 POP POP POP POP POP POP POP POP JUMP JUMPDEST PUSH1 0x0 DUP4 DUP8 DUP4 DUP6 DUP8 PUSH2 0x40B3 SWAP2 SWAP1 PUSH2 0x47E9 JUMP JUMPDEST PUSH2 0x40BD SWAP2 SWAP1 PUSH2 0x47E9 JUMP JUMPDEST DUP8 DUP10 DUP12 PUSH2 0x40CA SWAP2 SWAP1 PUSH2 0x47E9 JUMP JUMPDEST PUSH2 0x40D4 SWAP2 SWAP1 PUSH2 0x47E9 JUMP JUMPDEST PUSH2 0x40DE SWAP2 SWAP1 PUSH2 0x45F1 JUMP JUMPDEST PUSH2 0x40E8 SWAP2 SWAP1 PUSH2 0x47E9 JUMP JUMPDEST PUSH2 0x40F2 SWAP2 SWAP1 PUSH2 0x47E9 JUMP JUMPDEST SWAP1 POP SWAP7 SWAP6 POP POP POP POP POP POP JUMP JUMPDEST PUSH1 0x0 PUSH1 0x8 DUP3 GT ISZERO PUSH2 0x417C JUMPI DUP2 SWAP1 POP PUSH1 0x0 PUSH1 0x1 PUSH1 0x3 DUP5 PUSH2 0x411D SWAP2 SWAP1 PUSH2 0x4647 JUMP JUMPDEST PUSH2 0x4127 SWAP2 SWAP1 PUSH2 0x45F1 JUMP JUMPDEST SWAP1 POP JUMPDEST DUP2 DUP2 LT ISZERO PUSH2 0x4176 JUMPI DUP1 SWAP2 POP PUSH1 0x3 DUP2 PUSH1 0x2 PUSH2 0x4144 SWAP2 SWAP1 PUSH2 0x47E9 JUMP JUMPDEST DUP3 DUP4 PUSH2 0x4150 SWAP2 SWAP1 PUSH2 0x47E9 JUMP JUMPDEST DUP6 PUSH2 0x415B SWAP2 SWAP1 PUSH2 0x4647 JUMP JUMPDEST PUSH2 0x4165 SWAP2 SWAP1 PUSH2 0x45F1 JUMP JUMPDEST PUSH2 0x416F SWAP2 SWAP1 PUSH2 0x4647 JUMP JUMPDEST SWAP1 POP PUSH2 0x412A JUMP JUMPDEST POP PUSH2 0x418A JUMP JUMPDEST PUSH1 0x0 DUP3 EQ PUSH2 0x4189 JUMPI PUSH1 0x1 SWAP1 POP JUMPDEST JUMPDEST SWAP2 SWAP1 POP JUMP JUMPDEST POP PUSH1 0x0 DUP2 SSTORE PUSH1 0x1 ADD PUSH1 0x0 SWAP1 SSTORE JUMP JUMPDEST PUSH1 0x0 DUP2 CALLDATALOAD SWAP1 POP PUSH2 0x41AC DUP2 PUSH2 0x49F0 JUMP JUMPDEST SWAP3 SWAP2 POP POP JUMP JUMPDEST PUSH1 0x0 DUP2 CALLDATALOAD SWAP1 POP PUSH2 0x41C1 DUP2 PUSH2 0x4A07 JUMP JUMPDEST SWAP3 SWAP2 POP POP JUMP JUMPDEST PUSH1 0x0 DUP2 MLOAD SWAP1 POP PUSH2 0x41D6 DUP2 PUSH2 0x4A07 JUMP JUMPDEST SWAP3 SWAP2 POP POP JUMP JUMPDEST PUSH1 0x0 DUP2 CALLDATALOAD SWAP1 POP PUSH2 0x41EB DUP2 PUSH2 0x4A1E JUMP JUMPDEST SWAP3 SWAP2 POP POP JUMP JUMPDEST PUSH1 0x0 DUP1 PUSH1 0x40 DUP4 DUP6 SUB SLT ISZERO PUSH2 0x4208 JUMPI PUSH2 0x4207 PUSH2 0x498C JUMP JUMPDEST JUMPDEST PUSH1 0x0 PUSH2 0x4216 DUP6 DUP3 DUP7 ADD PUSH2 0x419D JUMP JUMPDEST SWAP3 POP POP PUSH1 0x20 PUSH2 0x4227 DUP6 DUP3 DUP7 ADD PUSH2 0x419D JUMP JUMPDEST SWAP2 POP POP SWAP3 POP SWAP3 SWAP1 POP JUMP JUMPDEST PUSH1 0x0 DUP1 PUSH1 0x0 DUP1 PUSH1 0x80 DUP6 DUP8 SUB SLT ISZERO PUSH2 0x424B JUMPI PUSH2 0x424A PUSH2 0x498C JUMP JUMPDEST JUMPDEST PUSH1 0x0 PUSH2 0x4259 DUP8 DUP3 DUP9 ADD PUSH2 0x419D JUMP JUMPDEST SWAP5 POP POP PUSH1 0x20 PUSH2 0x426A DUP8 DUP3 DUP9 ADD PUSH2 0x419D JUMP JUMPDEST SWAP4 POP POP PUSH1 0x40 PUSH2 0x427B DUP8 DUP3 DUP9 ADD PUSH2 0x419D JUMP JUMPDEST SWAP3 POP POP PUSH1 0x60 PUSH2 0x428C DUP8 DUP3 DUP9 ADD PUSH2 0x41DC JUMP JUMPDEST SWAP2 POP POP SWAP3 SWAP6 SWAP2 SWAP5 POP SWAP3 POP JUMP JUMPDEST PUSH1 0x0 DUP1 PUSH1 0x40 DUP4 DUP6 SUB SLT ISZERO PUSH2 0x42AF JUMPI PUSH2 0x42AE PUSH2 0x498C JUMP JUMPDEST JUMPDEST PUSH1 0x0 PUSH2 0x42BD DUP6 DUP3 DUP7 ADD PUSH2 0x419D JUMP JUMPDEST SWAP3 POP POP PUSH1 0x20 PUSH2 0x42CE DUP6 DUP3 DUP7 ADD PUSH2 0x41B2 JUMP JUMPDEST SWAP2 POP POP SWAP3 POP SWAP3 SWAP1 POP JUMP JUMPDEST PUSH1 0x0 DUP1 PUSH1 0x40 DUP4 DUP6 SUB SLT ISZERO PUSH2 0x42EF JUMPI PUSH2 0x42EE PUSH2 0x498C JUMP JUMPDEST JUMPDEST PUSH1 0x0 PUSH2 0x42FD DUP6 DUP3 DUP7 ADD PUSH2 0x419D JUMP JUMPDEST SWAP3 POP POP PUSH1 0x20 PUSH2 0x430E DUP6 DUP3 DUP7 ADD PUSH2 0x41DC JUMP JUMPDEST SWAP2 POP POP SWAP3 POP SWAP3 SWAP1 POP JUMP JUMPDEST PUSH1 0x0 PUSH1 0x20 DUP3 DUP5 SUB SLT ISZERO PUSH2 0x432E JUMPI PUSH2 0x432D PUSH2 0x498C JUMP JUMPDEST JUMPDEST PUSH1 0x0 PUSH2 0x433C DUP5 DUP3 DUP6 ADD PUSH2 0x41C7 JUMP JUMPDEST SWAP2 POP POP SWAP3 SWAP2 POP POP JUMP JUMPDEST PUSH1 0x0 PUSH1 0x20 DUP3 DUP5 SUB SLT ISZERO PUSH2 0x435B JUMPI PUSH2 0x435A PUSH2 0x498C JUMP JUMPDEST JUMPDEST PUSH1 0x0 PUSH2 0x4369 DUP5 DUP3 DUP6 ADD PUSH2 0x41DC JUMP JUMPDEST SWAP2 POP POP SWAP3 SWAP2 POP POP JUMP JUMPDEST PUSH1 0x0 DUP1 PUSH1 0x0 PUSH1 0x60 DUP5 DUP7 SUB SLT ISZERO PUSH2 0x438B JUMPI PUSH2 0x438A PUSH2 0x498C JUMP JUMPDEST JUMPDEST PUSH1 0x0 PUSH2 0x4399 DUP7 DUP3 DUP8 ADD PUSH2 0x41DC JUMP JUMPDEST SWAP4 POP POP PUSH1 0x20 PUSH2 0x43AA DUP7 DUP3 DUP8 ADD PUSH2 0x41DC JUMP JUMPDEST SWAP3 POP POP PUSH1 0x40 PUSH2 0x43BB DUP7 DUP3 DUP8 ADD PUSH2 0x419D JUMP JUMPDEST SWAP2 POP POP SWAP3 POP SWAP3 POP SWAP3 JUMP JUMPDEST PUSH1 0x0 DUP1 PUSH1 0x0 DUP1 PUSH1 0x80 DUP6 DUP8 SUB SLT ISZERO PUSH2 0x43DF JUMPI PUSH2 0x43DE PUSH2 0x498C JUMP JUMPDEST JUMPDEST PUSH1 0x0 PUSH2 0x43ED DUP8 DUP3 DUP9 ADD PUSH2 0x41DC JUMP JUMPDEST SWAP5 POP POP PUSH1 0x20 PUSH2 0x43FE DUP8 DUP3 DUP9 ADD PUSH2 0x41DC JUMP JUMPDEST SWAP4 POP POP PUSH1 0x40 PUSH2 0x440F DUP8 DUP3 DUP9 ADD PUSH2 0x41B2 JUMP JUMPDEST SWAP3 POP POP PUSH1 0x60 PUSH2 0x4420 DUP8 DUP3 DUP9 ADD PUSH2 0x419D JUMP JUMPDEST SWAP2 POP POP SWAP3 SWAP6 SWAP2 SWAP5 POP SWAP3 POP JUMP JUMPDEST PUSH2 0x4435 DUP2 PUSH2 0x4877 JUMP JUMPDEST DUP3 MSTORE POP POP JUMP JUMPDEST PUSH2 0x4444 DUP2 PUSH2 0x4889 JUMP JUMPDEST DUP3 MSTORE POP POP JUMP JUMPDEST PUSH1 0x0 PUSH2 0x4455 DUP3 PUSH2 0x45CA JUMP JUMPDEST PUSH2 0x445F DUP2 DUP6 PUSH2 0x45D5 JUMP JUMPDEST SWAP4 POP PUSH2 0x446F DUP2 DUP6 PUSH1 0x20 DUP7 ADD PUSH2 0x48CC JUMP JUMPDEST DUP1 DUP5 ADD SWAP2 POP POP SWAP3 SWAP2 POP POP JUMP JUMPDEST PUSH1 0x0 PUSH2 0x4488 PUSH1 0xF DUP4 PUSH2 0x45E0 JUMP JUMPDEST SWAP2 POP PUSH2 0x4493 DUP3 PUSH2 0x499E JUMP JUMPDEST PUSH1 0x20 DUP3 ADD SWAP1 POP SWAP2 SWAP1 POP JUMP JUMPDEST PUSH1 0x0 PUSH2 0x44AB PUSH1 0x6 DUP4 PUSH2 0x45E0 JUMP JUMPDEST SWAP2 POP PUSH2 0x44B6 DUP3 PUSH2 0x49C7 JUMP JUMPDEST PUSH1 0x20 DUP3 ADD SWAP1 POP SWAP2 SWAP1 POP JUMP JUMPDEST PUSH2 0x44CA DUP2 PUSH2 0x48B5 JUMP JUMPDEST DUP3 MSTORE POP POP JUMP JUMPDEST PUSH1 0x0 PUSH2 0x44DC DUP3 DUP5 PUSH2 0x444A JUMP JUMPDEST SWAP2 POP DUP2 SWAP1 POP SWAP3 SWAP2 POP POP JUMP JUMPDEST PUSH1 0x0 PUSH1 0x20 DUP3 ADD SWAP1 POP PUSH2 0x44FC PUSH1 0x0 DUP4 ADD DUP5 PUSH2 0x442C JUMP JUMPDEST SWAP3 SWAP2 POP POP JUMP JUMPDEST PUSH1 0x0 PUSH1 0x40 DUP3 ADD SWAP1 POP PUSH2 0x4517 PUSH1 0x0 DUP4 ADD DUP6 PUSH2 0x442C JUMP JUMPDEST PUSH2 0x4524 PUSH1 0x20 DUP4 ADD DUP5 PUSH2 0x44C1 JUMP JUMPDEST SWAP4 SWAP3 POP POP POP JUMP JUMPDEST PUSH1 0x0 PUSH1 0x20 DUP3 ADD SWAP1 POP PUSH2 0x4540 PUSH1 0x0 DUP4 ADD DUP5 PUSH2 0x443B JUMP JUMPDEST SWAP3 SWAP2 POP POP JUMP JUMPDEST PUSH1 0x0 PUSH1 0x20 DUP3 ADD SWAP1 POP DUP2 DUP2 SUB PUSH1 0x0 DUP4 ADD MSTORE PUSH2 0x455F DUP2 PUSH2 0x447B JUMP JUMPDEST SWAP1 POP SWAP2 SWAP1 POP JUMP JUMPDEST PUSH1 0x0 PUSH1 0x20 DUP3 ADD SWAP1 POP DUP2 DUP2 SUB PUSH1 0x0 DUP4 ADD MSTORE PUSH2 0x457F DUP2 PUSH2 0x449E JUMP JUMPDEST SWAP1 POP SWAP2 SWAP1 POP JUMP JUMPDEST PUSH1 0x0 PUSH1 0x20 DUP3 ADD SWAP1 POP PUSH2 0x459B PUSH1 0x0 DUP4 ADD DUP5 PUSH2 0x44C1 JUMP JUMPDEST SWAP3 SWAP2 POP POP JUMP JUMPDEST PUSH1 0x0 PUSH1 0x40 DUP3 ADD SWAP1 POP PUSH2 0x45B6 PUSH1 0x0 DUP4 ADD DUP6 PUSH2 0x44C1 JUMP JUMPDEST PUSH2 0x45C3 PUSH1 0x20 DUP4 ADD DUP5 PUSH2 0x44C1 JUMP JUMPDEST SWAP4 SWAP3 POP POP POP JUMP JUMPDEST PUSH1 0x0 DUP2 MLOAD SWAP1 POP SWAP2 SWAP1 POP JUMP JUMPDEST PUSH1 0x0 DUP2 SWAP1 POP SWAP3 SWAP2 POP POP JUMP JUMPDEST PUSH1 0x0 DUP3 DUP3 MSTORE PUSH1 0x20 DUP3 ADD SWAP1 POP SWAP3 SWAP2 POP POP JUMP JUMPDEST PUSH1 0x0 PUSH2 0x45FC DUP3 PUSH2 0x48B5 JUMP JUMPDEST SWAP2 POP PUSH2 0x4607 DUP4 PUSH2 0x48B5 JUMP JUMPDEST SWAP3 POP DUP3 PUSH32 0xFFFFFFFFFFFFFFFFFFFFFFFFFFFFFFFFFFFFFFFFFFFFFFFFFFFFFFFFFFFFFFFF SUB DUP3 GT ISZERO PUSH2 0x463C JUMPI PUSH2 0x463B PUSH2 0x48FF JUMP JUMPDEST JUMPDEST DUP3 DUP3 ADD SWAP1 POP SWAP3 SWAP2 POP POP JUMP JUMPDEST PUSH1 0x0 PUSH2 0x4652 DUP3 PUSH2 0x48B5 JUMP JUMPDEST SWAP2 POP PUSH2 0x465D DUP4 PUSH2 0x48B5 JUMP JUMPDEST SWAP3 POP DUP3 PUSH2 0x466D JUMPI PUSH2 0x466C PUSH2 0x492E JUMP JUMPDEST JUMPDEST DUP3 DUP3 DIV SWAP1 POP SWAP3 SWAP2 POP POP JUMP JUMPDEST PUSH1 0x0 DUP1 DUP3 SWAP2 POP DUP4 SWAP1 POP JUMPDEST PUSH1 0x1 DUP6 GT ISZERO PUSH2 0x46C2 JUMPI DUP1 DUP7 DIV DUP2 GT ISZERO PUSH2 0x469E JUMPI PUSH2 0x469D PUSH2 0x48FF JUMP JUMPDEST JUMPDEST PUSH1 0x1 DUP6 AND ISZERO PUSH2 0x46AD JUMPI DUP1 DUP3 MUL SWAP2 POP JUMPDEST DUP1 DUP2 MUL SWAP1 POP PUSH2 0x46BB DUP6 PUSH2 0x4991 JUMP JUMPDEST SWAP5 POP PUSH2 0x4682 JUMP JUMPDEST SWAP5 POP SWAP5 SWAP3 POP POP POP JUMP JUMPDEST PUSH1 0x0 PUSH2 0x46D6 DUP3 PUSH2 0x48B5 JUMP JUMPDEST SWAP2 POP PUSH2 0x46E1 DUP4 PUSH2 0x48BF JUMP JUMPDEST SWAP3 POP PUSH2 0x470E PUSH32 0xFFFFFFFFFFFFFFFFFFFFFFFFFFFFFFFFFFFFFFFFFFFFFFFFFFFFFFFFFFFFFFFF DUP5 DUP5 PUSH2 0x4716 JUMP JUMPDEST SWAP1 POP SWAP3 SWAP2 POP POP JUMP JUMPDEST PUSH1 0x0 DUP3 PUSH2 0x4726 JUMPI PUSH1 0x1 SWAP1 POP PUSH2 0x47E2 JUMP JUMPDEST DUP2 PUSH2 0x4734 JUMPI PUSH1 0x0 SWAP1 POP PUSH2 0x47E2 JUMP JUMPDEST DUP2 PUSH1 0x1 DUP2 EQ PUSH2 0x474A JUMPI PUSH1 0x2 DUP2 EQ PUSH2 0x4754 JUMPI PUSH2 0x4783 JUMP JUMPDEST PUSH1 0x1 SWAP2 POP POP PUSH2 0x47E2 JUMP JUMPDEST PUSH1 0xFF DUP5 GT ISZERO PUSH2 0x4766 JUMPI PUSH2 0x4765 PUSH2 0x48FF JUMP JUMPDEST JUMPDEST DUP4 PUSH1 0x2 EXP SWAP2 POP DUP5 DUP3 GT ISZERO PUSH2 0x477D JUMPI PUSH2 0x477C PUSH2 0x48FF JUMP JUMPDEST JUMPDEST POP PUSH2 0x47E2 JUMP JUMPDEST POP PUSH1 0x20 DUP4 LT PUSH2 0x133 DUP4 LT AND PUSH1 0x4E DUP5 LT PUSH1 0xB DUP5 LT AND OR ISZERO PUSH2 0x47B8 JUMPI DUP3 DUP3 EXP SWAP1 POP DUP4 DUP2 GT ISZERO PUSH2 0x47B3 JUMPI PUSH2 0x47B2 PUSH2 0x48FF JUMP JUMPDEST JUMPDEST PUSH2 0x47E2 JUMP JUMPDEST PUSH2 0x47C5 DUP5 DUP5 DUP5 PUSH1 0x1 PUSH2 0x4678 JUMP JUMPDEST SWAP3 POP SWAP1 POP DUP2 DUP5 DIV DUP2 GT ISZERO PUSH2 0x47DC JUMPI PUSH2 0x47DB PUSH2 0x48FF JUMP JUMPDEST JUMPDEST DUP2 DUP2 MUL SWAP1 POP JUMPDEST SWAP4 SWAP3 POP POP POP JUMP JUMPDEST PUSH1 0x0 PUSH2 0x47F4 DUP3 PUSH2 0x48B5 JUMP JUMPDEST SWAP2 POP PUSH2 0x47FF DUP4 PUSH2 0x48B5 JUMP JUMPDEST SWAP3 POP DUP2 PUSH32 0xFFFFFFFFFFFFFFFFFFFFFFFFFFFFFFFFFFFFFFFFFFFFFFFFFFFFFFFFFFFFFFFF DIV DUP4 GT DUP3 ISZERO ISZERO AND ISZERO PUSH2 0x4838 JUMPI PUSH2 0x4837 PUSH2 0x48FF JUMP JUMPDEST JUMPDEST DUP3 DUP3 MUL SWAP1 POP SWAP3 SWAP2 POP POP JUMP JUMPDEST PUSH1 0x0 PUSH2 0x484E DUP3 PUSH2 0x48B5 JUMP JUMPDEST SWAP2 POP PUSH2 0x4859 DUP4 PUSH2 0x48B5 JUMP JUMPDEST SWAP3 POP DUP3 DUP3 LT ISZERO PUSH2 0x486C JUMPI PUSH2 0x486B PUSH2 0x48FF JUMP JUMPDEST JUMPDEST DUP3 DUP3 SUB SWAP1 POP SWAP3 SWAP2 POP POP JUMP JUMPDEST PUSH1 0x0 PUSH2 0x4882 DUP3 PUSH2 0x4895 JUMP JUMPDEST SWAP1 POP SWAP2 SWAP1 POP JUMP JUMPDEST PUSH1 0x0 DUP2 ISZERO ISZERO SWAP1 POP SWAP2 SWAP1 POP JUMP JUMPDEST PUSH1 0x0 PUSH20 0xFFFFFFFFFFFFFFFFFFFFFFFFFFFFFFFFFFFFFFFF DUP3 AND SWAP1 POP SWAP2 SWAP1 POP JUMP JUMPDEST PUSH1 0x0 DUP2 SWAP1 POP SWAP2 SWAP1 POP JUMP JUMPDEST PUSH1 0x0 PUSH1 0xFF DUP3 AND SWAP1 POP SWAP2 SWAP1 POP JUMP JUMPDEST PUSH1 0x0 JUMPDEST DUP4 DUP2 LT ISZERO PUSH2 0x48EA JUMPI DUP1 DUP3 ADD MLOAD DUP2 DUP5 ADD MSTORE PUSH1 0x20 DUP2 ADD SWAP1 POP PUSH2 0x48CF JUMP JUMPDEST DUP4 DUP2 GT ISZERO PUSH2 0x48F9 JUMPI PUSH1 0x0 DUP5 DUP5 ADD MSTORE JUMPDEST POP POP POP POP JUMP JUMPDEST PUSH32 0x4E487B7100000000000000000000000000000000000000000000000000000000 PUSH1 0x0 MSTORE PUSH1 0x11 PUSH1 0x4 MSTORE PUSH1 0x24 PUSH1 0x0 REVERT JUMPDEST PUSH32 0x4E487B7100000000000000000000000000000000000000000000000000000000 PUSH1 0x0 MSTORE PUSH1 0x12 PUSH1 0x4 MSTORE PUSH1 0x24 PUSH1 0x0 REVERT JUMPDEST PUSH32 0x4E487B7100000000000000000000000000000000000000000000000000000000 PUSH1 0x0 MSTORE PUSH1 0x32 PUSH1 0x4 MSTORE PUSH1 0x24 PUSH1 0x0 REVERT JUMPDEST PUSH1 0x0 DUP1 REVERT JUMPDEST PUSH1 0x0 DUP2 PUSH1 0x1 SHR SWAP1 POP SWAP2 SWAP1 POP JUMP JUMPDEST PUSH32 0x5452414E534645525F4641494C45440000000000000000000000000000000000 PUSH1 0x0 DUP3 ADD MSTORE POP JUMP JUMPDEST PUSH32 0x4C4F434B45440000000000000000000000000000000000000000000000000000 PUSH1 0x0 DUP3 ADD MSTORE POP JUMP JUMPDEST PUSH2 0x49F9 DUP2 PUSH2 0x4877 JUMP JUMPDEST DUP2 EQ PUSH2 0x4A04 JUMPI PUSH1 0x0 DUP1 REVERT JUMPDEST POP JUMP JUMPDEST PUSH2 0x4A10 DUP2 PUSH2 0x4889 JUMP JUMPDEST DUP2 EQ PUSH2 0x4A1B JUMPI PUSH1 0x0 DUP1 REVERT JUMPDEST POP JUMP JUMPDEST PUSH2 0x4A27 DUP2 PUSH2 0x48B5 JUMP JUMPDEST DUP2 EQ PUSH2 0x4A32 JUMPI PUSH1 0x0 DUP1 REVERT JUMPDEST POP JUMP INVALID LOG2 PUSH5 0x6970667358 0x22 SLT KECCAK256 0xB0 STATICCALL 0xE1 ADD 0xF9 0x4C EXTCODESIZE DUP16 PUSH18 0xC94D0484B132B3C8A75290A2A74C525F0AB6 DUP2 0xB3 0xC9 0xEB 0xE9 PUSH5 0x736F6C6343 STOP ADDMOD SMOD STOP CALLER "
		},
		"gasEstimates": {
			"creation": {
				"codeDepositCost": "3810200",
				"executionCost": "72799",
				"totalCost": "3882999"
			},
			"external": {
				"B()": "2563",
				"D()": "2520",
				"D0()": "2517",
				"_addr()": "2648",
				"baserate()": "2473",
				"const18()": "2475",
				"coordX()": "2563",
				"coordY()": "2541",
				"debtIndex(address,bool)": "infinite",
				"factory()": "2581",
				"getpX()": "2540",
				"getpY()": "2540",
				"lastFunding()": "2583",
				"lastFundingTime()": "2541",
				"lastPayingSide()": "2582",
				"liquidate(address,address)": "infinite",
				"liquidationBonus()": "2562",
				"liquidationRate()": "2518",
				"marginIndex(address,uint256)": "infinite",
				"marginLeverage()": "2495",
				"marginReserve(uint256)": "infinite",
				"peqX()": "2474",
				"peqY()": "2496",
				"perpBiopen(uint256,uint256,address)": "infinite",
				"perpClose(uint256,uint256,address)": "infinite",
				"perpFee()": "2519",
				"perpOpen(uint256,uint256,bool,address)": "infinite",
				"priceLocal()": "2475",
				"swapFee()": "2497",
				"tickrange()": "2561",
				"tokenX()": "2649",
				"tokenY()": "2647",
				"totalDebtX()": "2584",
				"totalDebtY()": "2474",
				"totalDebttokenX()": "2497",
				"totalDebttokenY()": "2476",
				"totalLiquidity()": "2542",
				"trueLiquidX()": "2584",
				"trueLiquidX0()": "2496",
				"trueLiquidY()": "2475",
				"trueLiquidY0()": "2562",
				"twoWhite()": "2561",
				"upperFunding8H()": "2518",
				"withdrawMargin(address,address,address,uint256)": "infinite"
			},
			"internal": {
				"_refreshTotalbook()": "infinite",
				"_safeTransfer(address,address,uint256)": "infinite",
				"_tradeXToY(uint256,bool,uint256)": "infinite",
				"_tradeYToX(uint256,bool,uint256)": "infinite",
				"_virtualLiquidityUpdate()": "infinite",
				"netDebt(address)": "infinite",
				"netMargin(address)": "infinite",
				"netPosition(address)": "infinite"
			}
		},
		"methodIdentifiers": {
			"B()": "32e7c5bf",
			"D()": "0f529ba2",
			"D0()": "f738c74e",
			"_addr()": "62ab1a77",
			"baserate()": "ef0348fd",
			"const18()": "7e11939a",
			"coordX()": "8ca63e6f",
			"coordY()": "8c4008e9",
			"debtIndex(address,bool)": "2c4426ad",
			"factory()": "c45a0155",
			"getpX()": "77fef068",
			"getpY()": "d873fa7b",
			"lastFunding()": "fcbc49a0",
			"lastFundingTime()": "321d7fa9",
			"lastPayingSide()": "a79e6f9c",
			"liquidate(address,address)": "86b9d81f",
			"liquidationBonus()": "7b7c1f4c",
			"liquidationRate()": "a71e8644",
			"marginIndex(address,uint256)": "367401db",
			"marginLeverage()": "f13c7aed",
			"marginReserve(uint256)": "0e449559",
			"peqX()": "be6571aa",
			"peqY()": "a37b1918",
			"perpBiopen(uint256,uint256,address)": "f8bcf560",
			"perpClose(uint256,uint256,address)": "617d3b90",
			"perpFee()": "5784c8c4",
			"perpOpen(uint256,uint256,bool,address)": "748f00dc",
			"priceLocal()": "29baf8d9",
			"swapFee()": "54cf2aeb",
			"tickrange()": "f92e82b0",
			"tokenX()": "16dc165b",
			"tokenY()": "b7d19fc4",
			"totalDebtX()": "7bb62450",
			"totalDebtY()": "a01fbbf5",
			"totalDebttokenX()": "803042ac",
			"totalDebttokenY()": "0751a6c8",
			"totalLiquidity()": "15770f92",
			"trueLiquidX()": "b868504b",
			"trueLiquidX0()": "713370fc",
			"trueLiquidY()": "5091fadd",
			"trueLiquidY0()": "e159394f",
			"twoWhite()": "31fa66b2",
			"upperFunding8H()": "c556c363",
			"withdrawMargin(address,address,address,uint256)": "6bf8be75"
		}
	},
	"abi": [
		{
			"inputs": [],
			"name": "B",
			"outputs": [
				{
					"internalType": "uint256",
					"name": "",
					"type": "uint256"
				}
			],
			"stateMutability": "view",
			"type": "function"
		},
		{
			"inputs": [],
			"name": "D",
			"outputs": [
				{
					"internalType": "uint256",
					"name": "",
					"type": "uint256"
				}
			],
			"stateMutability": "view",
			"type": "function"
		},
		{
			"inputs": [],
			"name": "D0",
			"outputs": [
				{
					"internalType": "uint256",
					"name": "",
					"type": "uint256"
				}
			],
			"stateMutability": "view",
			"type": "function"
		},
		{
			"inputs": [],
			"name": "_addr",
			"outputs": [
				{
					"internalType": "address",
					"name": "",
					"type": "address"
				}
			],
			"stateMutability": "view",
			"type": "function"
		},
		{
			"inputs": [],
			"name": "baserate",
			"outputs": [
				{
					"internalType": "uint256",
					"name": "",
					"type": "uint256"
				}
			],
			"stateMutability": "view",
			"type": "function"
		},
		{
			"inputs": [],
			"name": "const18",
			"outputs": [
				{
					"internalType": "uint256",
					"name": "",
					"type": "uint256"
				}
			],
			"stateMutability": "view",
			"type": "function"
		},
		{
			"inputs": [],
			"name": "coordX",
			"outputs": [
				{
					"internalType": "uint256",
					"name": "",
					"type": "uint256"
				}
			],
			"stateMutability": "view",
			"type": "function"
		},
		{
			"inputs": [],
			"name": "coordY",
			"outputs": [
				{
					"internalType": "uint256",
					"name": "",
					"type": "uint256"
				}
			],
			"stateMutability": "view",
			"type": "function"
		},
		{
			"inputs": [
				{
					"internalType": "address",
					"name": "",
					"type": "address"
				},
				{
					"internalType": "bool",
					"name": "",
					"type": "bool"
				}
			],
			"name": "debtIndex",
			"outputs": [
				{
					"internalType": "uint256",
					"name": "debttokenAmount",
					"type": "uint256"
				},
				{
					"internalType": "uint256",
					"name": "positionAmount",
					"type": "uint256"
				}
			],
			"stateMutability": "view",
			"type": "function"
		},
		{
			"inputs": [],
			"name": "factory",
			"outputs": [
				{
					"internalType": "address",
					"name": "",
					"type": "address"
				}
			],
			"stateMutability": "view",
			"type": "function"
		},
		{
			"inputs": [],
			"name": "getpX",
			"outputs": [
				{
					"internalType": "uint256",
					"name": "",
					"type": "uint256"
				}
			],
			"stateMutability": "view",
			"type": "function"
		},
		{
			"inputs": [],
			"name": "getpY",
			"outputs": [
				{
					"internalType": "uint256",
					"name": "",
					"type": "uint256"
				}
			],
			"stateMutability": "view",
			"type": "function"
		},
		{
			"inputs": [],
			"name": "lastFunding",
			"outputs": [
				{
					"internalType": "uint256",
					"name": "",
					"type": "uint256"
				}
			],
			"stateMutability": "view",
			"type": "function"
		},
		{
			"inputs": [],
			"name": "lastFundingTime",
			"outputs": [
				{
					"internalType": "uint256",
					"name": "",
					"type": "uint256"
				}
			],
			"stateMutability": "view",
			"type": "function"
		},
		{
			"inputs": [],
			"name": "lastPayingSide",
			"outputs": [
				{
					"internalType": "bool",
					"name": "",
					"type": "bool"
				}
			],
			"stateMutability": "view",
			"type": "function"
		},
		{
			"inputs": [
				{
					"internalType": "address",
					"name": "userID",
					"type": "address"
				},
				{
					"internalType": "address",
					"name": "_to",
					"type": "address"
				}
			],
			"name": "liquidate",
			"outputs": [],
			"stateMutability": "nonpayable",
			"type": "function"
		},
		{
			"inputs": [],
			"name": "liquidationBonus",
			"outputs": [
				{
					"internalType": "uint256",
					"name": "",
					"type": "uint256"
				}
			],
			"stateMutability": "view",
			"type": "function"
		},
		{
			"inputs": [],
			"name": "liquidationRate",
			"outputs": [
				{
					"internalType": "uint256",
					"name": "",
					"type": "uint256"
				}
			],
			"stateMutability": "view",
			"type": "function"
		},
		{
			"inputs": [
				{
					"internalType": "address",
					"name": "",
					"type": "address"
				},
				{
					"internalType": "uint256",
					"name": "",
					"type": "uint256"
				}
			],
			"name": "marginIndex",
			"outputs": [
				{
					"internalType": "uint256",
					"name": "",
					"type": "uint256"
				}
			],
			"stateMutability": "view",
			"type": "function"
		},
		{
			"inputs": [],
			"name": "marginLeverage",
			"outputs": [
				{
					"internalType": "uint256",
					"name": "",
					"type": "uint256"
				}
			],
			"stateMutability": "view",
			"type": "function"
		},
		{
			"inputs": [
				{
					"internalType": "uint256",
					"name": "",
					"type": "uint256"
				}
			],
			"name": "marginReserve",
			"outputs": [
				{
					"internalType": "uint256",
					"name": "",
					"type": "uint256"
				}
			],
			"stateMutability": "view",
			"type": "function"
		},
		{
			"inputs": [],
			"name": "peqX",
			"outputs": [
				{
					"internalType": "uint256",
					"name": "",
					"type": "uint256"
				}
			],
			"stateMutability": "view",
			"type": "function"
		},
		{
			"inputs": [],
			"name": "peqY",
			"outputs": [
				{
					"internalType": "uint256",
					"name": "",
					"type": "uint256"
				}
			],
			"stateMutability": "view",
			"type": "function"
		},
		{
			"inputs": [
				{
					"internalType": "uint256",
					"name": "deltaX",
					"type": "uint256"
				},
				{
					"internalType": "uint256",
					"name": "deltaY",
					"type": "uint256"
				},
				{
					"internalType": "address",
					"name": "userID",
					"type": "address"
				}
			],
			"name": "perpBiopen",
			"outputs": [],
			"stateMutability": "nonpayable",
			"type": "function"
		},
		{
			"inputs": [
				{
					"internalType": "uint256",
					"name": "deltaX",
					"type": "uint256"
				},
				{
					"internalType": "uint256",
					"name": "deltaY",
					"type": "uint256"
				},
				{
					"internalType": "address",
					"name": "userID",
					"type": "address"
				}
			],
			"name": "perpClose",
			"outputs": [],
			"stateMutability": "nonpayable",
			"type": "function"
		},
		{
			"inputs": [],
			"name": "perpFee",
			"outputs": [
				{
					"internalType": "uint256",
					"name": "",
					"type": "uint256"
				}
			],
			"stateMutability": "view",
			"type": "function"
		},
		{
			"inputs": [
				{
					"internalType": "uint256",
					"name": "deltaX",
					"type": "uint256"
				},
				{
					"internalType": "uint256",
					"name": "deltaY",
					"type": "uint256"
				},
				{
					"internalType": "bool",
					"name": "XtoY",
					"type": "bool"
				},
				{
					"internalType": "address",
					"name": "userID",
					"type": "address"
				}
			],
			"name": "perpOpen",
			"outputs": [],
			"stateMutability": "nonpayable",
			"type": "function"
		},
		{
			"inputs": [],
			"name": "priceLocal",
			"outputs": [
				{
					"internalType": "uint256",
					"name": "",
					"type": "uint256"
				}
			],
			"stateMutability": "view",
			"type": "function"
		},
		{
			"inputs": [],
			"name": "swapFee",
			"outputs": [
				{
					"internalType": "uint256",
					"name": "",
					"type": "uint256"
				}
			],
			"stateMutability": "view",
			"type": "function"
		},
		{
			"inputs": [],
			"name": "tickrange",
			"outputs": [
				{
					"internalType": "uint256",
					"name": "",
					"type": "uint256"
				}
			],
			"stateMutability": "view",
			"type": "function"
		},
		{
			"inputs": [],
			"name": "tokenX",
			"outputs": [
				{
					"internalType": "address",
					"name": "",
					"type": "address"
				}
			],
			"stateMutability": "view",
			"type": "function"
		},
		{
			"inputs": [],
			"name": "tokenY",
			"outputs": [
				{
					"internalType": "address",
					"name": "",
					"type": "address"
				}
			],
			"stateMutability": "view",
			"type": "function"
		},
		{
			"inputs": [],
			"name": "totalDebtX",
			"outputs": [
				{
					"internalType": "uint256",
					"name": "",
					"type": "uint256"
				}
			],
			"stateMutability": "view",
			"type": "function"
		},
		{
			"inputs": [],
			"name": "totalDebtY",
			"outputs": [
				{
					"internalType": "uint256",
					"name": "",
					"type": "uint256"
				}
			],
			"stateMutability": "view",
			"type": "function"
		},
		{
			"inputs": [],
			"name": "totalDebttokenX",
			"outputs": [
				{
					"internalType": "uint256",
					"name": "",
					"type": "uint256"
				}
			],
			"stateMutability": "view",
			"type": "function"
		},
		{
			"inputs": [],
			"name": "totalDebttokenY",
			"outputs": [
				{
					"internalType": "uint256",
					"name": "",
					"type": "uint256"
				}
			],
			"stateMutability": "view",
			"type": "function"
		},
		{
			"inputs": [],
			"name": "totalLiquidity",
			"outputs": [
				{
					"internalType": "uint256",
					"name": "",
					"type": "uint256"
				}
			],
			"stateMutability": "view",
			"type": "function"
		},
		{
			"inputs": [],
			"name": "trueLiquidX",
			"outputs": [
				{
					"internalType": "uint256",
					"name": "",
					"type": "uint256"
				}
			],
			"stateMutability": "view",
			"type": "function"
		},
		{
			"inputs": [],
			"name": "trueLiquidX0",
			"outputs": [
				{
					"internalType": "uint256",
					"name": "",
					"type": "uint256"
				}
			],
			"stateMutability": "view",
			"type": "function"
		},
		{
			"inputs": [],
			"name": "trueLiquidY",
			"outputs": [
				{
					"internalType": "uint256",
					"name": "",
					"type": "uint256"
				}
			],
			"stateMutability": "view",
			"type": "function"
		},
		{
			"inputs": [],
			"name": "trueLiquidY0",
			"outputs": [
				{
					"internalType": "uint256",
					"name": "",
					"type": "uint256"
				}
			],
			"stateMutability": "view",
			"type": "function"
		},
		{
			"inputs": [],
			"name": "twoWhite",
			"outputs": [
				{
					"internalType": "bool",
					"name": "",
					"type": "bool"
				}
			],
			"stateMutability": "view",
			"type": "function"
		},
		{
			"inputs": [],
			"name": "upperFunding8H",
			"outputs": [
				{
					"internalType": "uint256",
					"name": "",
					"type": "uint256"
				}
			],
			"stateMutability": "view",
			"type": "function"
		},
		{
			"inputs": [
				{
					"internalType": "address",
					"name": "userID",
					"type": "address"
				},
				{
					"internalType": "address",
					"name": "tokenID",
					"type": "address"
				},
				{
					"internalType": "address",
					"name": "to",
					"type": "address"
				},
				{
					"internalType": "uint256",
					"name": "amount",
					"type": "uint256"
				}
			],
			"name": "withdrawMargin",
			"outputs": [],
			"stateMutability": "nonpayable",
			"type": "function"
		}
	]
}