{
	"data": {
		"bytecode": {
			"linkReferences": {},
			"object": "6080604052600160295534801561001557600080fd5b5033602260006101000a81548173ffffffffffffffffffffffffffffffffffffffff021916908373ffffffffffffffffffffffffffffffffffffffff16021790555061675980620000676000396000f3fe608060405234801561001057600080fd5b50600436106103e55760003560e01c806380416c021161020a578063c3d81b2111610125578063e1781049116100b8578063f738c74e11610087578063f738c74e14610ba4578063fc69b80f14610bc2578063fc978e5414610bf2578063fe18f26114610c12578063ff2f169e14610c30576103e5565b8063e178104914610b1a578063e19a147414610b4a578063ea1797b014610b68578063f70f439414610b86576103e5565b8063cfe38a5e116100f4578063cfe38a5e14610a92578063d44022db14610aae578063da5604ce14610acc578063df0ab2c214610afc576103e5565b8063c3d81b2114610a1c578063c45a015514610a38578063c7d4493214610a56578063c9e525df14610a74576103e5565b8063a54c08f31161019d578063b7d19fc41161016c578063b7d19fc414610981578063bc25cf771461099f578063c03d932f146109bb578063c2cbaed0146109eb576103e5565b8063a54c08f31461090b578063a5aa65b914610927578063abd6034014610945578063acd4a7c214610963576103e5565b80638e361389116101d95780638e3613891461089557806398d5fdca146108b35780639a36e122146108d15780639f1d0f59146108ef576103e5565b806380416c021461081d57806383dfe5fd1461083b57806384009686146108595780638bc1a32f14610877576103e5565b806336af2f9b116103055780635e287d8611610298578063699553aa11610267578063699553aa146107605780636b3545aa1461079057806379dbf8ea146107ae5780637e1431be146107cc5780637ed6281b146107ff576103e5565b80635e287d86146106ea5780636607e7e814610708578063693f917e14610726578063696acb5d14610744576103e5565b8063485cc955116102d4578063485cc955146106645780634c324e6a146106805780635115b6cf1461069c5780635595d459146106cc576103e5565b806336af2f9b146105da5780633c6fe2f4146105f8578063432cfd1c14610616578063480c4f7e14610646576103e5565b80632190219e1161037d5780632abc28aa1161034c5780632abc28aa146105525780632dd6c2541461058257806332e7c5bf146105a057806335714521146105be576103e5565b80632190219e146104da578063225c2c50146104f857806323ed16b61461051657806325c513a414610534576103e5565b80630f529ba2116103b95780630f529ba214610462578063139860ee1461048057806316dc165b1461049e57806318db9681146104bc576103e5565b8062b52645146103ea5780630902f1ac146104085780630b197615146104285780630bfa68d814610446575b600080fd5b6103f2610c4c565b6040516103ff9190616065565b60405180910390f35b610410610c52565b60405161041f939291906160e0565b60405180910390f35b610430610c69565b60405161043d9190616065565b60405180910390f35b610460600480360381019061045b9190615b0a565b610c6f565b005b61046a610d09565b6040516104779190616065565b60405180910390f35b610488610d0f565b6040516104959190616065565b60405180910390f35b6104a6610d15565b6040516104b39190615e7f565b60405180910390f35b6104c4610d3b565b6040516104d19190616065565b60405180910390f35b6104e2610d41565b6040516104ef9190616065565b60405180910390f35b610500610d47565b60405161050d9190616065565b60405180910390f35b61051e610d4d565b60405161052b9190616065565b60405180910390f35b61053c610d53565b6040516105499190616065565b60405180910390f35b61056c6004803603810190610567919061599d565b610d59565b6040516105799190616065565b60405180910390f35b61058a610e85565b6040516105979190616065565b60405180910390f35b6105a8610e8b565b6040516105b59190616065565b60405180910390f35b6105d860048036038101906105d39190615b0a565b610e91565b005b6105e2610f2b565b6040516105ef9190616065565b60405180910390f35b610600610f31565b60405161060d9190616065565b60405180910390f35b610630600480360381019061062b9190615bb7565b610f37565b60405161063d9190616065565b60405180910390f35b61064e611051565b60405161065b9190616065565b60405180910390f35b61067e600480360381019061067991906159ca565b611057565b005b61069a60048036038101906106959190615bf7565b61116d565b005b6106b660048036038101906106b1919061599d565b611bd7565b6040516106c39190616065565b60405180910390f35b6106d4611d5f565b6040516106e19190616065565b60405180910390f35b6106f2611d65565b6040516106ff9190616065565b60405180910390f35b610710611d6b565b60405161071d9190616065565b60405180910390f35b61072e611d71565b60405161073b9190616065565b60405180910390f35b61075e60048036038101906107599190615bf7565b611d77565b005b61077a6004803603810190610775919061599d565b612187565b6040516107879190616065565b60405180910390f35b61079861219f565b6040516107a59190616065565b60405180910390f35b6107b66121a5565b6040516107c39190616065565b60405180910390f35b6107e660048036038101906107e19190615a0a565b6121ab565b6040516107f69493929190615e9a565b60405180910390f35b610807612215565b6040516108149190616065565b60405180910390f35b61082561221b565b6040516108329190616065565b60405180910390f35b610843612221565b6040516108509190616065565b60405180910390f35b610861612227565b60405161086e9190616065565b60405180910390f35b61087f61222d565b60405161088c9190616065565b60405180910390f35b61089d612233565b6040516108aa9190616065565b60405180910390f35b6108bb612239565b6040516108c89190616065565b60405180910390f35b6108d961225d565b6040516108e69190616065565b60405180910390f35b61090960048036038101906109049190615a8a565b612263565b005b61092560048036038101906109209190615b64565b61263d565b005b61092f6126f3565b60405161093c9190616065565b60405180910390f35b61094d6126f9565b60405161095a9190615f08565b60405180910390f35b61096b612728565b6040516109789190616065565b60405180910390f35b61098961272e565b6040516109969190615e7f565b60405180910390f35b6109b960048036038101906109b4919061599d565b612754565b005b6109d560048036038101906109d0919061599d565b61294a565b6040516109e29190616065565b60405180910390f35b610a056004803603810190610a009190615b0a565b612a78565b604051610a13929190616080565b60405180910390f35b610a366004803603810190610a3191906159ca565b612baf565b005b610a40612f30565b604051610a4d9190615e7f565b60405180910390f35b610a5e612f56565b604051610a6b9190615f2a565b60405180910390f35b610a7c612f69565b604051610a899190616065565b60405180910390f35b610aac6004803603810190610aa79190615b0a565b612f6f565b005b610ab6613009565b604051610ac39190616065565b60405180910390f35b610ae66004803603810190610ae19190615b0a565b61300f565b604051610af39190615e7f565b60405180910390f35b610b0461304e565b604051610b119190616065565b60405180910390f35b610b346004803603810190610b2f919061599d565b613054565b604051610b419190616065565b60405180910390f35b610b5261305b565b604051610b5f9190616065565b60405180910390f35b610b70613061565b604051610b7d9190616065565b60405180910390f35b610b8e613067565b604051610b9b9190616065565b60405180910390f35b610bac61306d565b604051610bb99190616065565b60405180910390f35b610bdc6004803603810190610bd79190615a4a565b613073565b604051610be99190616065565b60405180910390f35b610bfa6130a4565b604051610c09939291906160a9565b60405180910390f35b610c1a6135a8565b604051610c279190616065565b60405180910390f35b610c4a6004803603810190610c459190615b0a565b6135ae565b005b60095481565b6000806000600f549250600e549150429050909192565b60105481565b602260009054906101000a900473ffffffffffffffffffffffffffffffffffffffff1673ffffffffffffffffffffffffffffffffffffffff163373ffffffffffffffffffffffffffffffffffffffff1614610cff576040517f08c379a0000000000000000000000000000000000000000000000000000000008152600401610cf690615fc5565b60405180910390fd5b80601c8190555050565b60025481565b60175481565b602360009054906101000a900473ffffffffffffffffffffffffffffffffffffffff1681565b60185481565b60145481565b60155481565b60195481565b60205481565b600080602c60008473ffffffffffffffffffffffffffffffffffffffff1673ffffffffffffffffffffffffffffffffffffffff168152602001908152602001600020805480602002602001604051908101604052809291908181526020018280548015610de557602002820191906000526020600020905b815481526020019060010190808311610dd1575b505050505090506000610df66126f9565b905060008251905060005b81811015610e7c57670de0b6b3a7640000838281518110610e2557610e2461652c565b5b6020026020010151858381518110610e4057610e3f61652c565b5b6020026020010151610e52919061636f565b610e5c91906161cd565b85610e679190616177565b94508080610e7490616485565b915050610e01565b50505050919050565b60265481565b60005481565b602260009054906101000a900473ffffffffffffffffffffffffffffffffffffffff1673ffffffffffffffffffffffffffffffffffffffff163373ffffffffffffffffffffffffffffffffffffffff1614610f21576040517f08c379a0000000000000000000000000000000000000000000000000000000008152600401610f1890615fc5565b60405180910390fd5b8060188190555050565b60075481565b600e5481565b6000600160295414610f7e576040517f08c379a0000000000000000000000000000000000000000000000000000000008152600401610f7590616045565b60405180910390fd5b6000602981905550600f5483600f54610f979190616177565b600654610fa4919061636f565b610fae91906161cd565b600681905550600e5482600e54610fc59190616177565b600754610fd2919061636f565b610fdc91906161cd565b600781905550600f5483602654610ff3919061636f565b610ffd91906161cd565b90508060265461100d9190616177565b60268190555082600f546110219190616177565b600f8190555081600e546110359190616177565b600e81905550611043613648565b600160298190555092915050565b60125481565b602260009054906101000a900473ffffffffffffffffffffffffffffffffffffffff1673ffffffffffffffffffffffffffffffffffffffff163373ffffffffffffffffffffffffffffffffffffffff16146110e7576040517f08c379a00000000000000000000000000000000000000000000000000000000081526004016110de90615fc5565b60405180910390fd5b81602360006101000a81548173ffffffffffffffffffffffffffffffffffffffff021916908373ffffffffffffffffffffffffffffffffffffffff16021790555080602460006101000a81548173ffffffffffffffffffffffffffffffffffffffff021916908373ffffffffffffffffffffffffffffffffffffffff1602179055505050565b6001602954146111b2576040517f08c379a00000000000000000000000000000000000000000000000000000000081526004016111a990616045565b60405180910390fd5b6000602981905550600083101580156111cc575060008210155b6111d557600080fd5b6111dd6138c1565b602b60008273ffffffffffffffffffffffffffffffffffffffff1673ffffffffffffffffffffffffffffffffffffffff16815260200190815260200160002060008015151515815260200190815260200160002060020154831115801561129c5750602b60008273ffffffffffffffffffffffffffffffffffffffff1673ffffffffffffffffffffffffffffffffffffffff16815260200190815260200160002060006001151515158152602001908152602001600020600201548211155b6112db576040517f08c379a00000000000000000000000000000000000000000000000000000000081526004016112d290616005565b60405180910390fd5b60008311156117595760006112ef84613a59565b905083602b60008473ffffffffffffffffffffffffffffffffffffffff1673ffffffffffffffffffffffffffffffffffffffff168152602001908152602001600020600080151515158152602001908152602001600020600201600082825461135891906163c9565b92505081905550601754601554602b60008573ffffffffffffffffffffffffffffffffffffffff1673ffffffffffffffffffffffffffffffffffffffff16815260200190815260200160002060006001151515158152602001908152602001600020600101546113c8919061636f565b6113d291906161cd565b8111156116865761145f601754601554602b60008673ffffffffffffffffffffffffffffffffffffffff1673ffffffffffffffffffffffffffffffffffffffff1681526020019081526020016000206000600115151515815260200190815260200160002060010154611445919061636f565b61144f91906161cd565b8261145a91906163c9565b613df8565b602c60008473ffffffffffffffffffffffffffffffffffffffff1673ffffffffffffffffffffffffffffffffffffffff168152602001908152602001600020602d6000602360009054906101000a900473ffffffffffffffffffffffffffffffffffffffff1673ffffffffffffffffffffffffffffffffffffffff1673ffffffffffffffffffffffffffffffffffffffff16815260200190815260200160002054815481106115115761151061652c565b5b90600052602060002001600082825461152a9190616177565b92505081905550601754601554602b60008573ffffffffffffffffffffffffffffffffffffffff1673ffffffffffffffffffffffffffffffffffffffff168152602001908152602001600020600060011515151581526020019081526020016000206001015461159a919061636f565b6115a491906161cd565b6015546115b191906163c9565b601581905550602b60008373ffffffffffffffffffffffffffffffffffffffff1673ffffffffffffffffffffffffffffffffffffffff168152602001908152602001600020600060011515151581526020019081526020016000206001015460175461161d91906163c9565b6017819055506000602b60008473ffffffffffffffffffffffffffffffffffffffff1673ffffffffffffffffffffffffffffffffffffffff1681526020019081526020016000206000600115151515815260200190815260200160002060010181905550611757565b60155460175482611697919061636f565b6116a191906161cd565b602b60008473ffffffffffffffffffffffffffffffffffffffff1673ffffffffffffffffffffffffffffffffffffffff16815260200190815260200160002060006001151515158152602001908152602001600020600101600082825461170891906163c9565b9250508190555060155460175482611720919061636f565b61172a91906161cd565b60175461173791906163c9565b601781905550806015600082825461174f91906163c9565b925050819055505b505b6000821115611bca57600061176d836141f6565b905082602b60008473ffffffffffffffffffffffffffffffffffffffff1673ffffffffffffffffffffffffffffffffffffffff1681526020019081526020016000206000600115151515815260200190815260200160002060020160008282546117d791906163c9565b92505081905550601654601454602b60008573ffffffffffffffffffffffffffffffffffffffff1673ffffffffffffffffffffffffffffffffffffffff16815260200190815260200160002060008015151515815260200190815260200160002060010154611846919061636f565b61185091906161cd565b811115611af857601654601454602b60008573ffffffffffffffffffffffffffffffffffffffff1673ffffffffffffffffffffffffffffffffffffffff168152602001908152602001600020600080151515158152602001908152602001600020600101546118bf919061636f565b6118c991906161cd565b816118d491906163c9565b602c60008473ffffffffffffffffffffffffffffffffffffffff1673ffffffffffffffffffffffffffffffffffffffff168152602001908152602001600020602d6000602360009054906101000a900473ffffffffffffffffffffffffffffffffffffffff1673ffffffffffffffffffffffffffffffffffffffff1673ffffffffffffffffffffffffffffffffffffffff16815260200190815260200160002054815481106119865761198561652c565b5b90600052602060002001600082825461199f9190616177565b92505081905550601654601454602b60008573ffffffffffffffffffffffffffffffffffffffff1673ffffffffffffffffffffffffffffffffffffffff16815260200190815260200160002060008015151515815260200190815260200160002060010154611a0e919061636f565b611a1891906161cd565b601454611a2591906163c9565b601481905550602b60008373ffffffffffffffffffffffffffffffffffffffff1673ffffffffffffffffffffffffffffffffffffffff16815260200190815260200160002060008015151515815260200190815260200160002060010154601654611a9091906163c9565b6016819055506000602b60008473ffffffffffffffffffffffffffffffffffffffff1673ffffffffffffffffffffffffffffffffffffffff16815260200190815260200160002060008015151515815260200190815260200160002060010181905550611bc8565b60145460165482611b09919061636f565b611b1391906161cd565b602b60008473ffffffffffffffffffffffffffffffffffffffff1673ffffffffffffffffffffffffffffffffffffffff1681526020019081526020016000206000801515151581526020019081526020016000206001016000828254611b7991906163c9565b9250508190555060145460165482611b91919061636f565b611b9b91906161cd565b601654611ba891906163c9565b6016819055508060146000828254611bc091906163c9565b925050819055505b505b6001602981905550505050565b6000670de0b6b3a7640000611c0d602360009054906101000a900473ffffffffffffffffffffffffffffffffffffffff16613054565b601654601454602b60008773ffffffffffffffffffffffffffffffffffffffff1673ffffffffffffffffffffffffffffffffffffffff16815260200190815260200160002060008015151515815260200190815260200160002060010154611c75919061636f565b611c7f91906161cd565b611c89919061636f565b611c9391906161cd565b670de0b6b3a7640000611cc7602460009054906101000a900473ffffffffffffffffffffffffffffffffffffffff16613054565b601754601554602b60008873ffffffffffffffffffffffffffffffffffffffff1673ffffffffffffffffffffffffffffffffffffffff1681526020019081526020016000206000600115151515815260200190815260200160002060010154611d30919061636f565b611d3a91906161cd565b611d44919061636f565b611d4e91906161cd565b611d589190616177565b9050919050565b600f5481565b601a5481565b60115481565b601e5481565b600160295414611dbc576040517f08c379a0000000000000000000000000000000000000000000000000000000008152600401611db390616045565b60405180910390fd5b600060298190555060008310158015611dd6575060008210155b611ddf57600080fd5b611de76138c1565b611e81611df38261294a565b611e1e602360009054906101000a900473ffffffffffffffffffffffffffffffffffffffff16613054565b85611e29919061636f565b611e339190616177565b611e3c8361294a565b611e67602460009054906101000a900473ffffffffffffffffffffffffffffffffffffffff16613054565b85611e72919061636f565b611e7c9190616177565b614582565b602554611e8d83610d59565b611e97919061636f565b11611ed7576040517f08c379a0000000000000000000000000000000000000000000000000000000008152600401611ece90615fe5565b60405180910390fd5b60008084111561202657611eea84613a59565b905060145460165485611efd919061636f565b611f0791906161cd565b602b60008473ffffffffffffffffffffffffffffffffffffffff1673ffffffffffffffffffffffffffffffffffffffff1681526020019081526020016000206000801515151581526020019081526020016000206001016000828254611f6d9190616177565b9250508190555080602b60008473ffffffffffffffffffffffffffffffffffffffff1673ffffffffffffffffffffffffffffffffffffffff168152602001908152602001600020600060011515151581526020019081526020016000206002016000828254611fdc9190616177565b9250508190555060165460145460165486611ff7919061636f565b61200191906161cd565b61200b9190616177565b6016819055508360145461201f9190616177565b6014819055505b600083111561217957612038836141f6565b90506015546017548461204b919061636f565b61205591906161cd565b602b60008473ffffffffffffffffffffffffffffffffffffffff1673ffffffffffffffffffffffffffffffffffffffff1681526020019081526020016000206000600115151515815260200190815260200160002060010160008282546120bc9190616177565b9250508190555080602b60008473ffffffffffffffffffffffffffffffffffffffff1673ffffffffffffffffffffffffffffffffffffffff168152602001908152602001600020600080151515158152602001908152602001600020600201600082825461212a9190616177565b9250508190555060175460155460175485612145919061636f565b61214f91906161cd565b6121599190616177565b60178190555082601560008282546121719190616177565b925050819055505b506001602981905550505050565b602d6020528060005260406000206000915090505481565b60165481565b600d5481565b602b602052816000526040600020602052806000526040600020600091509150508060000160009054906101000a900473ffffffffffffffffffffffffffffffffffffffff16908060000160149054906101000a900460ff16908060010154908060020154905084565b601d5481565b60055481565b60015481565b60065481565b60275481565b60045481565b600060095460085460125461224e919061636f565b61225891906161cd565b905090565b60255481565b6001602954146122a8576040517f08c379a000000000000000000000000000000000000000000000000000000000815260040161229f90616045565b60405180910390fd5b60006029819055506000806000602360009054906101000a900473ffffffffffffffffffffffffffffffffffffffff1690506000602460009054906101000a900473ffffffffffffffffffffffffffffffffffffffff16905060008614806123105750600085145b61234f576040517f08c379a000000000000000000000000000000000000000000000000000000000815260040161234690615fa5565b60405180910390fd5b8173ffffffffffffffffffffffffffffffffffffffff168773ffffffffffffffffffffffffffffffffffffffff16141580156123b757508073ffffffffffffffffffffffffffffffffffffffff168773ffffffffffffffffffffffffffffffffffffffff1614155b6123f6576040517f08c379a00000000000000000000000000000000000000000000000000000000081526004016123ed90616025565b60405180910390fd5b8173ffffffffffffffffffffffffffffffffffffffff166370a08231306040518263ffffffff1660e01b815260040161242f9190615e7f565b60206040518083038186803b15801561244757600080fd5b505afa15801561245b573d6000803e3d6000fd5b505050506040513d601f19601f8201168201806040525081019061247f9190615b37565b93508073ffffffffffffffffffffffffffffffffffffffff166370a08231306040518263ffffffff1660e01b81526004016124ba9190615e7f565b60206040518083038186803b1580156124d257600080fd5b505afa1580156124e6573d6000803e3d6000fd5b505050506040513d601f19601f8201168201806040525081019061250a9190615b37565b92506000600f548561251c91906163c9565b90506000600e548561252e91906163c9565b9050600082118061253f5750600081115b61257e576040517f08c379a000000000000000000000000000000000000000000000000000000000815260040161257590615f85565b60405180910390fd5b60008811156125b6576125a6838a6125968b8561459b565b846125a191906163c9565b6149a6565b6125b1848a8a6149a6565b61262a565b60008711156125ee576125de848a6125ce8a86614b30565b856125d991906163c9565b6149a6565b6125e9838a896149a6565b612629565b600082111561260b5761260a838a61260585614f3b565b6149a6565b5b600081111561262857612627848a61262284613df8565b6149a6565b5b5b5b5050505050506001602981905550505050565b82602c60008373ffffffffffffffffffffffffffffffffffffffff1673ffffffffffffffffffffffffffffffffffffffff168152602001908152602001600020602d60008573ffffffffffffffffffffffffffffffffffffffff1673ffffffffffffffffffffffffffffffffffffffff16815260200190815260200160002054815481106126ce576126cd61652c565b5b9060005260206000200160008282546126e79190616177565b92505081905550505050565b600b5481565b60606000602a80549050905060005b8181101561272357808061271b90616485565b915050612708565b505090565b60215481565b602460009054906101000a900473ffffffffffffffffffffffffffffffffffffffff1681565b600160295414612799576040517f08c379a000000000000000000000000000000000000000000000000000000000815260040161279090616045565b60405180910390fd5b60006029819055506000602360009054906101000a900473ffffffffffffffffffffffffffffffffffffffff1690506000602460009054906101000a900473ffffffffffffffffffffffffffffffffffffffff1690506128968284612891600f548673ffffffffffffffffffffffffffffffffffffffff166370a08231306040518263ffffffff1660e01b81526004016128339190615e7f565b60206040518083038186803b15801561284b57600080fd5b505afa15801561285f573d6000803e3d6000fd5b505050506040513d601f19601f820116820180604052508101906128839190615b37565b61533990919063ffffffff16565b6149a6565b61293d8184612938600e548573ffffffffffffffffffffffffffffffffffffffff166370a08231306040518263ffffffff1660e01b81526004016128da9190615e7f565b60206040518083038186803b1580156128f257600080fd5b505afa158015612906573d6000803e3d6000fd5b505050506040513d601f19601f8201168201806040525081019061292a9190615b37565b61533990919063ffffffff16565b6149a6565b5050600160298190555050565b6000612977602460009054906101000a900473ffffffffffffffffffffffffffffffffffffffff16613054565b602b60008473ffffffffffffffffffffffffffffffffffffffff1673ffffffffffffffffffffffffffffffffffffffff16815260200190815260200160002060006001151515158152602001908152602001600020600201546129da919061636f565b612a05602360009054906101000a900473ffffffffffffffffffffffffffffffffffffffff16613054565b602b60008573ffffffffffffffffffffffffffffffffffffffff1673ffffffffffffffffffffffffffffffffffffffff16815260200190815260200160002060008015151515815260200190815260200160002060020154612a67919061636f565b612a719190616177565b9050919050565b600080600160295414612ac0576040517f08c379a0000000000000000000000000000000000000000000000000000000008152600401612ab790616045565b60405180910390fd5b6000602981905550602654600f5484612ad9919061636f565b612ae391906161cd565b9150602654600e5484612af6919061636f565b612b0091906161cd565b9050600f5482600f54612b1391906163c9565b600654612b20919061636f565b612b2a91906161cd565b600681905550600e5481600e54612b4191906163c9565b600754612b4e919061636f565b612b5891906161cd565b60078190555081600f54612b6c91906163c9565b600f8190555080600e54612b8091906163c9565b600e8190555082602654612b9491906163c9565b602681905550612ba2613648565b6001602981905550915091565b600160295414612bf4576040517f08c379a0000000000000000000000000000000000000000000000000000000008152600401612beb90616045565b60405180910390fd5b6000602981905550612c058261294a565b612c0e83611bd7565b118015612c4a5750612c1f82610d59565b602754612c2c919061636f565b612c358361294a565b612c3e84611bd7565b612c4891906163c9565b115b612c89576040517f08c379a0000000000000000000000000000000000000000000000000000000008152600401612c8090615fc5565b60405180910390fd5b6000602a80549050905060005b81811015612d6257612d4f602a8281548110612cb557612cb461652c565b5b9060005260206000200160009054906101000a900473ffffffffffffffffffffffffffffffffffffffff1684602854602c60008973ffffffffffffffffffffffffffffffffffffffff1673ffffffffffffffffffffffffffffffffffffffff1681526020019081526020016000208581548110612d3557612d3461652c565b5b9060005260206000200154612d4a919061636f565b6149a6565b8080612d5a90616485565b915050612c96565b50602c60008473ffffffffffffffffffffffffffffffffffffffff1673ffffffffffffffffffffffffffffffffffffffff1681526020019081526020016000206000612dae91906158f6565b6000602b60008573ffffffffffffffffffffffffffffffffffffffff1673ffffffffffffffffffffffffffffffffffffffff168152602001908152602001600020600080151515158152602001908152602001600020600101819055506000602b60008573ffffffffffffffffffffffffffffffffffffffff1673ffffffffffffffffffffffffffffffffffffffff1681526020019081526020016000206000600115151515815260200190815260200160002060010181905550612f23602b60008573ffffffffffffffffffffffffffffffffffffffff1673ffffffffffffffffffffffffffffffffffffffff16815260200190815260200160002060008015151515815260200190815260200160002060020154602b60008673ffffffffffffffffffffffffffffffffffffffff1673ffffffffffffffffffffffffffffffffffffffff16815260200190815260200160002060006001151515158152602001908152602001600020600201548561116d565b5060016029819055505050565b602260009054906101000a900473ffffffffffffffffffffffffffffffffffffffff1681565b601b60009054906101000a900460ff1681565b601f5481565b602260009054906101000a900473ffffffffffffffffffffffffffffffffffffffff1673ffffffffffffffffffffffffffffffffffffffff163373ffffffffffffffffffffffffffffffffffffffff1614612fff576040517f08c379a0000000000000000000000000000000000000000000000000000000008152600401612ff690615fc5565b60405180910390fd5b8060258190555050565b60135481565b602a818154811061301f57600080fd5b906000526020600020016000915054906101000a900473ffffffffffffffffffffffffffffffffffffffff1681565b600a5481565b6000919050565b601c5481565b600c5481565b60285481565b60035481565b602c602052816000526040600020818154811061308f57600080fd5b90600052602060002001600091509150505481565b600080600080670de0b6b3a7640000600954600f546130c3919061636f565b6130cd91906161cd565b90506000670de0b6b3a7640000600854600e546130ea919061636f565b6130f491906161cd565b90506000601e54670de0b6b3a7640000600254613111919061636f565b61311b91906161cd565b90506000828461312b91906163c9565b670de0b6b3a7640000846002613141919061636f565b85876004878889613152919061636f565b61315c919061636f565b61316691906161cd565b61317091906161cd565b61317a91906161cd565b61318491906163c9565b61318e919061636f565b61319891906161cd565b9050600081671bc16d674ec800006131b091906163c9565b90506000600954670de0b6b3a7640000868687886131ce919061636f565b6131d8919061636f565b6131e2919061636f565b6131ec919061636f565b8687898a8860046131fd919061636f565b613207919061636f565b613211919061636f565b61321b919061636f565b613225919061636f565b61322f9190616177565b670de0b6b3a7640000600854670de0b6b3a76400008a6002546002548b613256919061636f565b613260919061636f565b61326a919061636f565b613274919061636f565b898a8c8d8a6004613285919061636f565b61328f919061636f565b613299919061636f565b6132a3919061636f565b6132ad919061636f565b6132b79190616177565b6132c1919061636f565b6132cb919061636f565b6132d591906161cd565b6132df91906161cd565b90506000600954670de0b6b3a7640000600754600254600254600254613305919061636f565b61330f919061636f565b613319919061636f565b613323919061636f565b600754600754600654600654600054600461333e919061636f565b613348919061636f565b613352919061636f565b61335c919061636f565b613366919061636f565b6133709190616177565b670de0b6b3a7640000600854670de0b6b3a764000060065460025460025460025461339b919061636f565b6133a5919061636f565b6133af919061636f565b6133b9919061636f565b60075460075460065460065460015460046133d4919061636f565b6133de919061636f565b6133e8919061636f565b6133f2919061636f565b6133fc919061636f565b6134069190616177565b613410919061636f565b61341a919061636f565b61342491906161cd565b61342e91906161cd565b9050818111156134d4576000601d5461e100600a54600e546134509190616177565b670de0b6b3a7640000600a54613466919061636f565b61347091906161cd565b61347a91906161cd565b6134849190616177565b90508061168084670de0b6b3a764000086866134a091906163c9565b6134aa919061636f565b6134b491906161cd565b6134be91906161cd565b6134c89190616177565b9a50600098505061356c565b6000601d5461e100600b54600f546134ec9190616177565b670de0b6b3a7640000600b54613502919061636f565b61350c91906161cd565b61351691906161cd565b6135209190616177565b90508061168084670de0b6b3a7640000858761353c91906163c9565b613546919061636f565b61355091906161cd565b61355a91906161cd565b6135649190616177565b9a5060019850505b6107808a61357a919061636f565b9850601c5489111561359c57601c5498506107808961359991906161cd565b99505b50505050505050909192565b60085481565b602260009054906101000a900473ffffffffffffffffffffffffffffffffffffffff1673ffffffffffffffffffffffffffffffffffffffff163373ffffffffffffffffffffffffffffffffffffffff161461363e576040517f08c379a000000000000000000000000000000000000000000000000000000000815260040161363590615fc5565b60405180910390fd5b8060278190555050565b613738600c54600d54600c54600154600854613664919061636f565b61366e919061636f565b600954600054600d54613681919061636f565b61368b919061636f565b6136959190616177565b760a70c3c40a64e6c51999090b65f67d9240000000000000600e54600f54600e546001546008546136c6919061636f565b6136d0919061636f565b600954600054600f546136e3919061636f565b6136ed919061636f565b6136f79190616177565b613701919061636f565b61370b919061636f565b613715919061636f565b61371f91906161cd565b61372991906161cd565b61373391906161cd565b615392565b601f8190555060006020546021546009546ec097ce7bc90715b34b9f1000000000601f54600654613769919061636f565b613773919061636f565b61377d91906161cd565b61378791906161cd565b61379191906161cd565b905060006020546021546009546ec097ce7bc90715b34b9f1000000000601f546007546137be919061636f565b6137c8919061636f565b6137d291906161cd565b6137dc91906161cd565b6137e691906161cd565b905061384b60185483670de0b6b3a7640000600b54866138069190616177565b613810919061636f565b61381a91906161cd565b83670de0b6b3a7640000600a54866138329190616177565b61383c919061636f565b61384691906161cd565b615423565b601e819055506ec097ce7bc90715b34b9f1000000000601f54601e54600354613874919061636f565b61387e919061636f565b61388891906161cd565b6002819055506002805461389c91906161cd565b600481905550600454600581905550601f54602181905550601e546020819055505050565b6000806138cc6130a4565b92505091506000601a54436138e191906163c9565b905043601a8190555060006138f4612239565b905060001515601b60009054906101000a900460ff16151514156139b157670de0b6b3a764000082601954670de0b6b3a76400006139329190616177565b60145461393f919061636f565b613949919061636f565b61395391906161cd565b6014819055506ec097ce7bc90715b34b9f1000000000818360145460195461397b919061636f565b613985919061636f565b61398f919061636f565b61399991906161cd565b6015546139a691906163c9565b601581905550613a32565b670de0b6b3a764000082601954670de0b6b3a76400006139d19190616177565b6015546139de919061636f565b6139e8919061636f565b6139f291906161cd565b6015819055508082601554601954613a0a919061636f565b613a14919061636f565b613a1e91906161cd565b601454613a2b91906163c9565b6014819055505b8360198190555082601b60006101000a81548160ff02191690831515021790555050505050565b6000600160295414613aa0576040517f08c379a0000000000000000000000000000000000000000000000000000000008152600401613a9790616045565b60405180910390fd5b600060298190555060008290506000600190505b600115158115151415613de9576000670de0b6b3a7640000601354600454613adc919061636f565b613ae691906161cd565b90506000613afc6000546001546002548561544e565b9050600954670de0b6b3a764000060065484613b1891906163c9565b613b22919061636f565b613b2c91906161cd565b841115613cf3576000613b48600054600154600254868661554e565b9050600854670de0b6b3a764000083600754613b6491906163c9565b613b6e919061636f565b613b7891906161cd565b86613b839190616177565b9550600854670de0b6b3a764000083600754613b9f91906163c9565b613ba9919061636f565b613bb391906161cd565b600a6000828254613bc49190616177565b92505081905550600954670de0b6b3a764000060065485613be591906163c9565b613bef919061636f565b613bf991906161cd565b85613c0491906163c9565b945060006009549050600060085490508360055482613c23919061636f565b613c2d91906161cd565b6008819055508460045483613c42919061636f565b613c4c91906161cd565b600981905550600854826009548386613c65919061636f565b613c6f919061636f565b613c7991906161cd565b613c8391906161cd565b601281905550600454600681905550600554600781905550613caf600654600754600254601254615642565b600081905550600054671bc16d674ec80000613ccb91906163c9565b600181905550613cd9613648565b600454600681905550600554600781905550505050613de2565b600654601081905550600754601181905550670de0b6b3a764000060095485613d1c919061636f565b613d2691906161cd565b60066000828254613d379190616177565b92505081905550613d5260005460015460025460065461544e565b600781905550600854670de0b6b3a7640000600754601154613d7491906163c9565b613d7e919061636f565b613d8891906161cd565b85613d939190616177565b9450600854670de0b6b3a7640000600754601154613db191906163c9565b613dbb919061636f565b613dc591906161cd565b600a6000828254613dd69190616177565b92505081905550600092505b5050613ab4565b50506001602981905550919050565b6000600160295414613e3f576040517f08c379a0000000000000000000000000000000000000000000000000000000008152600401613e3690616045565b60405180910390fd5b600060298190555060008290506000600190505b6001151581151514156141e7576000670de0b6b3a7640000601354600454613e7b919061636f565b613e8591906161cd565b90506000613e9b6000546001546002548561577c565b9050600854670de0b6b3a764000060075484613eb791906163c9565b613ec1919061636f565b613ecb91906161cd565b8411156140d8576000613ee7600054600154600254858761554e565b905085600954670de0b6b3a764000084600654613f0491906163c9565b613f0e919061636f565b613f1891906161cd565b613f229190616177565b9550600854670de0b6b3a764000060075485613f3e91906163c9565b613f48919061636f565b613f5291906161cd565b85613f5d91906163c9565b9450600954670de0b6b3a764000083600654613f7991906163c9565b613f83919061636f565b613f8d91906161cd565b600f6000828254613f9e91906163c9565b92505081905550600854670de0b6b3a764000060075485613fbf91906163c9565b613fc9919061636f565b613fd391906161cd565b600e6000828254613fe49190616177565b9250508190555060006009549050600060085490508460055482614008919061636f565b61401291906161cd565b6008819055508360045483614027919061636f565b61403191906161cd565b60098190555060085482600954838661404a919061636f565b614054919061636f565b61405e91906161cd565b61406891906161cd565b601281905550600454600681905550600554600781905550614094600654600754600254601254615642565b600081905550600054671bc16d674ec800006140b091906163c9565b6001819055506140be613648565b6004546006819055506005546007819055505050506141e0565b600654601081905550600754601181905550670de0b6b3a764000060085485614101919061636f565b61410b91906161cd565b6007600082825461411c9190616177565b9250508190555061413760005460015460025460075461577c565b600681905550600954670de0b6b3a764000060065460105461415991906163c9565b614163919061636f565b61416d91906161cd565b856141789190616177565b945083600e600082825461418c9190616177565b92505081905550600954670de0b6b3a76400006006546010546141af91906163c9565b6141b9919061636f565b6141c391906161cd565b600f60008282546141d491906163c9565b92505081905550600092505b5050613e53565b50506001602981905550919050565b600060016029541461423d576040517f08c379a000000000000000000000000000000000000000000000000000000000815260040161423490616045565b60405180910390fd5b600060298190555060008290506000600190505b600115158115151415614573576000601354600454614270919061636f565b905060006142866000546001546002548561577c565b9050600854670de0b6b3a7640000600754846142a291906163c9565b6142ac919061636f565b6142b691906161cd565b84111561447d5760006142d2600054600154600254858761554e565b9050600954670de0b6b3a7640000836006546142ee91906163c9565b6142f8919061636f565b61430291906161cd565b8661430d9190616177565b9550600954670de0b6b3a76400008360065461432991906163c9565b614333919061636f565b61433d91906161cd565b600b600082825461434e9190616177565b92505081905550600854670de0b6b3a76400006007548561436f91906163c9565b614379919061636f565b61438391906161cd565b8561438e91906163c9565b9450600060095490506000600854905084600554826143ad919061636f565b6143b791906161cd565b60088190555083600454836143cc919061636f565b6143d691906161cd565b6009819055506008548260095483866143ef919061636f565b6143f9919061636f565b61440391906161cd565b61440d91906161cd565b601281905550600454600681905550600554600781905550614439600654600754600254601254615642565b600081905550600054671bc16d674ec8000061445591906163c9565b600181905550614463613648565b60045460068190555060055460078190555050505061456c565b600654601081905550600754601181905550670de0b6b3a7640000600854856144a6919061636f565b6144b091906161cd565b600760008282546144c19190616177565b925050819055506144dc60005460015460025460075461577c565b600681905550600954670de0b6b3a76400006006546010546144fe91906163c9565b614508919061636f565b61451291906161cd565b8561451d9190616177565b9450600954670de0b6b3a764000060065460105461453b91906163c9565b614545919061636f565b61454f91906161cd565b600b60008282546145609190616177565b92505081905550600092505b5050614251565b50506001602981905550919050565b60008183116145915781614593565b825b905092915050565b60006001602954146145e2576040517f08c379a00000000000000000000000000000000000000000000000000000000081526004016145d990616045565b60405180910390fd5b600060298190555060008390506000600190505b60011515811515141561498a576000670de0b6b3a764000060135460055461461e919061636f565b61462891906161cd565b9050600061463e6000546001546002548561577c565b9050600954670de0b6b3a76400008260065461465a91906163c9565b614664919061636f565b61466e91906161cd565b84111561487b57600061468a600054600154600254858761554e565b9050600854670de0b6b3a7640000600754856146a691906163c9565b6146b0919061636f565b6146ba91906161cd565b866146c59190616177565b9550600954670de0b6b3a7640000836006546146e191906163c9565b6146eb919061636f565b6146f591906161cd565b8561470091906163c9565b9450600854670de0b6b3a76400006007548561471c91906163c9565b614726919061636f565b61473091906161cd565b600e60008282546147419190616177565b92505081905550600954670de0b6b3a76400008360065461476291906163c9565b61476c919061636f565b61477691906161cd565b600f600082825461478791906163c9565b92505081905550600060095490506000600854905084600554826147ab919061636f565b6147b591906161cd565b60088190555083600454836147ca919061636f565b6147d491906161cd565b6009819055506008548260095483866147ed919061636f565b6147f7919061636f565b61480191906161cd565b61480b91906161cd565b601281905550600454600681905550600554600781905550614837600654600754600254601254615642565b600081905550600054671bc16d674ec8000061485391906163c9565b600181905550614861613648565b600454600681905550600554600781905550505050614983565b600654601081905550600754601181905550670de0b6b3a7640000600954856148a4919061636f565b6148ae91906161cd565b600660008282546148bf91906163c9565b925050819055506148da60005460015460025460065461544e565b600781905550600854670de0b6b3a76400006011546007546148fc91906163c9565b614906919061636f565b61491091906161cd565b8561491b9190616177565b9450600854670de0b6b3a764000060115460075461493991906163c9565b614943919061636f565b61494d91906161cd565b600e600082825461495e9190616177565b9250508190555083600f600082825461497791906163c9565b92505081905550600092505b50506145f6565b82841161499657600080fd5b5050600160298190555092915050565b6000808473ffffffffffffffffffffffffffffffffffffffff166040518060400160405280601981526020017f7472616e7366657228616464726573732c75696e743235362900000000000000815250805190602001208585604051602401614a10929190615edf565b604051602081830303815290604052907bffffffffffffffffffffffffffffffffffffffffffffffffffffffff19166020820180517bffffffffffffffffffffffffffffffffffffffffffffffffffffffff8381831617835250505050604051614a7a9190615e68565b6000604051808303816000865af19150503d8060008114614ab7576040519150601f19603f3d011682016040523d82523d6000602084013e614abc565b606091505b5091509150818015614aea5750600081511480614ae9575080806020019051810190614ae89190615add565b5b5b614b29576040517f08c379a0000000000000000000000000000000000000000000000000000000008152600401614b2090615f45565b60405180910390fd5b5050505050565b6000600160295414614b77576040517f08c379a0000000000000000000000000000000000000000000000000000000008152600401614b6e90616045565b60405180910390fd5b600060298190555060008390506000600190505b600115158115151415614f1f576000670de0b6b3a7640000601354600454614bb3919061636f565b614bbd91906161cd565b90506000614bd36000546001546002548561544e565b9050600854670de0b6b3a764000082600754614bef91906163c9565b614bf9919061636f565b614c0391906161cd565b841115614e10576000614c1f600054600154600254868661554e565b9050600954670de0b6b3a764000060065485614c3b91906163c9565b614c45919061636f565b614c4f91906161cd565b86614c5a9190616177565b9550600854670de0b6b3a764000083600754614c7691906163c9565b614c80919061636f565b614c8a91906161cd565b85614c9591906163c9565b9450600954670de0b6b3a764000060065485614cb191906163c9565b614cbb919061636f565b614cc591906161cd565b600f6000828254614cd69190616177565b92505081905550600854670de0b6b3a764000083600754614cf791906163c9565b614d01919061636f565b614d0b91906161cd565b600e6000828254614d1c91906163c9565b9250508190555060006009549050600060085490508360055482614d40919061636f565b614d4a91906161cd565b6008819055508460045483614d5f919061636f565b614d6991906161cd565b600981905550600854826009548386614d82919061636f565b614d8c919061636f565b614d9691906161cd565b614da091906161cd565b601281905550600454600681905550600554600781905550614dcc600654600754600254601254615642565b600081905550600054671bc16d674ec80000614de891906163c9565b600181905550614df6613648565b600454600681905550600554600781905550505050614f18565b600654601081905550600754601181905550670de0b6b3a764000060085485614e39919061636f565b614e4391906161cd565b60076000828254614e5491906163c9565b92505081905550614e6f60005460015460025460075461577c565b600681905550600954670de0b6b3a7640000601054600654614e9191906163c9565b614e9b919061636f565b614ea591906161cd565b85614eb09190616177565b9450600954670de0b6b3a7640000601054600654614ece91906163c9565b614ed8919061636f565b614ee291906161cd565b600f6000828254614ef39190616177565b9250508190555083600e6000828254614f0c91906163c9565b92505081905550600092505b5050614b8b565b828411614f2b57600080fd5b5050600160298190555092915050565b6000600160295414614f82576040517f08c379a0000000000000000000000000000000000000000000000000000000008152600401614f7990616045565b60405180910390fd5b600060298190555060008290506000600190505b60011515811515141561532a576000670de0b6b3a7640000601354600454614fbe919061636f565b614fc891906161cd565b90506000614fde6000546001546002548561544e565b9050600954670de0b6b3a764000060065484614ffa91906163c9565b615004919061636f565b61500e91906161cd565b84111561521b57600061502a600054600154600254868661554e565b9050600854670de0b6b3a76400008360075461504691906163c9565b615050919061636f565b61505a91906161cd565b866150659190616177565b9550600954670de0b6b3a76400006006548561508191906163c9565b61508b919061636f565b61509591906161cd565b856150a091906163c9565b9450600954670de0b6b3a7640000600654856150bc91906163c9565b6150c6919061636f565b6150d091906161cd565b600f60008282546150e19190616177565b92505081905550600854670de0b6b3a76400008360075461510291906163c9565b61510c919061636f565b61511691906161cd565b600e600082825461512791906163c9565b925050819055506000600954905060006008549050836005548261514b919061636f565b61515591906161cd565b600881905550846004548361516a919061636f565b61517491906161cd565b60098190555060085482600954838661518d919061636f565b615197919061636f565b6151a191906161cd565b6151ab91906161cd565b6012819055506004546006819055506005546007819055506151d7600654600754600254601254615642565b600081905550600054671bc16d674ec800006151f391906163c9565b600181905550615201613648565b600454600681905550600554600781905550505050615323565b600654601081905550600754601181905550670de0b6b3a764000060095485615244919061636f565b61524e91906161cd565b6006600082825461525f9190616177565b9250508190555061527a60005460015460025460065461544e565b600781905550600854670de0b6b3a764000060075460115461529c91906163c9565b6152a6919061636f565b6152b091906161cd565b856152bb9190616177565b945083600f60008282546152cf9190616177565b92505081905550600854670de0b6b3a76400006007546011546152f291906163c9565b6152fc919061636f565b61530691906161cd565b600e600082825461531791906163c9565b92505081905550600092505b5050614f96565b50506001602981905550919050565b600082828461534891906163c9565b915081111561538c576040517f08c379a000000000000000000000000000000000000000000000000000000000815260040161538390615f65565b60405180910390fd5b92915050565b6000600882111561541057819050600060016003846153b191906161cd565b6153bb9190616177565b90505b8181101561540a5780915060038160026153d8919061636f565b82836153e4919061636f565b856153ef91906161cd565b6153f99190616177565b61540391906161cd565b90506153be565b5061541e565b6000821461541d57600190505b5b919050565b60008284106154325782615434565b835b93508184106154435781615445565b835b90509392505050565b60008184600861545e919061636f565b615468919061636f565b615501670de0b6b3a7640000858687615481919061636f565b61548b919061636f565b600061549791906163c9565b858860106154a5919061636f565b6154af919061636f565b6154b9919061636f565b6154c3919061636f565b600285868a60046154d4919061636f565b6154de919061636f565b6154e8919061636f565b6154f29190616251565b6154fc91906163c9565b61587c565b8384886004615510919061636f565b61551a919061636f565b615524919061636f565b600061553091906163c9565b61553a9190616177565b61554491906161cd565b9050949350505050565b60008184858661555e919061636f565b615568919061636f565b615572919061636f565b828385868a6004615583919061636f565b61558d919061636f565b615597919061636f565b6155a1919061636f565b6155ab919061636f565b6155b59190616177565b670de0b6b3a7640000848687886155cc919061636f565b6155d6919061636f565b6155e0919061636f565b848587888b60046155f1919061636f565b6155fb919061636f565b615605919061636f565b61560f919061636f565b615619919061636f565b6156239190616177565b61562d919061636f565b61563791906161cd565b905095945050505050565b600081670de0b6b3a76400006156589190616177565b848587886004615668919061636f565b615672919061636f565b61567c919061636f565b615686919061636f565b615690919061636f565b670de0b6b3a764000083868687886156a8919061636f565b6156b2919061636f565b6156bc919061636f565b6156c6919061636f565b6156d0919061636f565b6ec097ce7bc90715b34b9f1000000000878687886156ee919061636f565b6156f8919061636f565b615702919061636f565b61570c919061636f565b6ec097ce7bc90715b34b9f100000000087888a8b600861572c919061636f565b615736919061636f565b615740919061636f565b61574a919061636f565b615754919061636f565b61575e9190616177565b61576891906163c9565b61577291906161cd565b9050949350505050565b60008185600861578c919061636f565b615796919061636f565b61582f670de0b6b3a76400008586876157af919061636f565b6157b9919061636f565b60006157c591906163c9565b858960106157d3919061636f565b6157dd919061636f565b6157e7919061636f565b6157f1919061636f565b60028586896004615802919061636f565b61580c919061636f565b615816919061636f565b6158209190616251565b61582a91906163c9565b61587c565b838487600461583e919061636f565b615848919061636f565b615852919061636f565b600061585e91906163c9565b6158689190616177565b61587291906161cd565b9050949350505050565b600060038211156158e3578190506000600160028461589b91906161cd565b6158a59190616177565b90505b818110156158dd5780915060028182856158c291906161cd565b6158cc9190616177565b6158d691906161cd565b90506158a8565b506158f1565b600082146158f057600190505b5b919050565b50805460008255906000526020600020908101906159149190615917565b50565b5b80821115615930576000816000905550600101615918565b5090565b600081359050615943816166de565b92915050565b600081359050615958816166f5565b92915050565b60008151905061596d816166f5565b92915050565b6000813590506159828161670c565b92915050565b6000815190506159978161670c565b92915050565b6000602082840312156159b3576159b261655b565b5b60006159c184828501615934565b91505092915050565b600080604083850312156159e1576159e061655b565b5b60006159ef85828601615934565b9250506020615a0085828601615934565b9150509250929050565b60008060408385031215615a2157615a2061655b565b5b6000615a2f85828601615934565b9250506020615a4085828601615949565b9150509250929050565b60008060408385031215615a6157615a6061655b565b5b6000615a6f85828601615934565b9250506020615a8085828601615973565b9150509250929050565b600080600060608486031215615aa357615aa261655b565b5b6000615ab186828701615934565b9350506020615ac286828701615973565b9250506040615ad386828701615973565b9150509250925092565b600060208284031215615af357615af261655b565b5b6000615b018482850161595e565b91505092915050565b600060208284031215615b2057615b1f61655b565b5b6000615b2e84828501615973565b91505092915050565b600060208284031215615b4d57615b4c61655b565b5b6000615b5b84828501615988565b91505092915050565b600080600060608486031215615b7d57615b7c61655b565b5b6000615b8b86828701615973565b9350506020615b9c86828701615934565b9250506040615bad86828701615934565b9150509250925092565b60008060408385031215615bce57615bcd61655b565b5b6000615bdc85828601615973565b9250506020615bed85828601615973565b9150509250929050565b600080600060608486031215615c1057615c0f61655b565b5b6000615c1e86828701615973565b9350506020615c2f86828701615973565b9250506040615c4086828701615934565b9150509250925092565b6000615c568383615e4a565b60208301905092915050565b615c6b816163fd565b82525050565b6000615c7c82616127565b615c86818561614a565b9350615c9183616117565b8060005b83811015615cc2578151615ca98882615c4a565b9750615cb48361613d565b925050600181019050615c95565b5085935050505092915050565b615cd88161640f565b82525050565b6000615ce982616132565b615cf3818561615b565b9350615d03818560208601616452565b80840191505092915050565b6000615d1c601683616166565b9150615d278261656d565b602082019050919050565b6000615d3f601583616166565b9150615d4a82616596565b602082019050919050565b6000615d62602083616166565b9150615d6d826165bf565b602082019050919050565b6000615d85601283616166565b9150615d90826165e8565b602082019050919050565b6000615da8601083616166565b9150615db382616611565b602082019050919050565b6000615dcb601883616166565b9150615dd68261663a565b602082019050919050565b6000615dee601a83616166565b9150615df982616663565b602082019050919050565b6000615e11601183616166565b9150615e1c8261668c565b602082019050919050565b6000615e34600d83616166565b9150615e3f826166b5565b602082019050919050565b615e538161643b565b82525050565b615e628161643b565b82525050565b6000615e748284615cde565b915081905092915050565b6000602082019050615e946000830184615c62565b92915050565b6000608082019050615eaf6000830187615c62565b615ebc6020830186615ccf565b615ec96040830185615e59565b615ed66060830184615e59565b95945050505050565b6000604082019050615ef46000830185615c62565b615f016020830184615e59565b9392505050565b60006020820190508181036000830152615f228184615c71565b905092915050565b6000602082019050615f3f6000830184615ccf565b92915050565b60006020820190508181036000830152615f5e81615d0f565b9050919050565b60006020820190508181036000830152615f7e81615d32565b9050919050565b60006020820190508181036000830152615f9e81615d55565b9050919050565b60006020820190508181036000830152615fbe81615d78565b9050919050565b60006020820190508181036000830152615fde81615d9b565b9050919050565b60006020820190508181036000830152615ffe81615dbe565b9050919050565b6000602082019050818103600083015261601e81615de1565b9050919050565b6000602082019050818103600083015261603e81615e04565b9050919050565b6000602082019050818103600083015261605e81615e27565b9050919050565b600060208201905061607a6000830184615e59565b92915050565b60006040820190506160956000830185615e59565b6160a26020830184615e59565b9392505050565b60006060820190506160be6000830186615e59565b6160cb6020830185615e59565b6160d86040830184615ccf565b949350505050565b60006060820190506160f56000830186615e59565b6161026020830185615e59565b61610f6040830184615e59565b949350505050565b6000819050602082019050919050565b600081519050919050565b600081519050919050565b6000602082019050919050565b600082825260208201905092915050565b600081905092915050565b600082825260208201905092915050565b60006161828261643b565b915061618d8361643b565b9250827fffffffffffffffffffffffffffffffffffffffffffffffffffffffffffffffff038211156161c2576161c16164ce565b5b828201905092915050565b60006161d88261643b565b91506161e38361643b565b9250826161f3576161f26164fd565b5b828204905092915050565b6000808291508390505b600185111561624857808604811115616224576162236164ce565b5b60018516156162335780820291505b808102905061624185616560565b9450616208565b94509492505050565b600061625c8261643b565b915061626783616445565b92506162947fffffffffffffffffffffffffffffffffffffffffffffffffffffffffffffffff848461629c565b905092915050565b6000826162ac5760019050616368565b816162ba5760009050616368565b81600181146162d057600281146162da57616309565b6001915050616368565b60ff8411156162ec576162eb6164ce565b5b8360020a915084821115616303576163026164ce565b5b50616368565b5060208310610133831016604e8410600b841016171561633e5782820a905083811115616339576163386164ce565b5b616368565b61634b84848460016161fe565b92509050818404811115616362576163616164ce565b5b81810290505b9392505050565b600061637a8261643b565b91506163858361643b565b9250817fffffffffffffffffffffffffffffffffffffffffffffffffffffffffffffffff04831182151516156163be576163bd6164ce565b5b828202905092915050565b60006163d48261643b565b91506163df8361643b565b9250828210156163f2576163f16164ce565b5b828203905092915050565b60006164088261641b565b9050919050565b60008115159050919050565b600073ffffffffffffffffffffffffffffffffffffffff82169050919050565b6000819050919050565b600060ff82169050919050565b60005b83811015616470578082015181840152602081019050616455565b8381111561647f576000848401525b50505050565b60006164908261643b565b91507fffffffffffffffffffffffffffffffffffffffffffffffffffffffffffffffff8214156164c3576164c26164ce565b5b600182019050919050565b7f4e487b7100000000000000000000000000000000000000000000000000000000600052601160045260246000fd5b7f4e487b7100000000000000000000000000000000000000000000000000000000600052601260045260246000fd5b7f4e487b7100000000000000000000000000000000000000000000000000000000600052603260045260246000fd5b600080fd5b60008160011c9050919050565b7f51696c696e3a205452414e534645525f4641494c454400000000000000000000600082015250565b7f64732d6d6174682d7375622d756e646572666c6f770000000000000000000000600082015250565b7f51696c696e3a20494e53554646494349454e545f494e5055545f414d4f554e54600082015250565b7f51496c696e3a20494e56414c49445f4f55540000000000000000000000000000600082015250565b7f51696c696e3a20464f5242494444454e00000000000000000000000000000000600082015250565b7f51696c696e3a204e4f5420454e4f554748204d415247494e0000000000000000600082015250565b7f51696c696e3a204e4f5420454e4f55474820504f534954494f4e000000000000600082015250565b7f51696c696e3a20494e56414c49445f544f000000000000000000000000000000600082015250565b7f51696c696e3a204c4f434b454400000000000000000000000000000000000000600082015250565b6166e7816163fd565b81146166f257600080fd5b50565b6166fe8161640f565b811461670957600080fd5b50565b6167158161643b565b811461672057600080fd5b5056fea2646970667358221220fa277ec1dd19364e1590f0594bb040df033ba87093fe94dc4cf5893e67195e7d64736f6c63430008070033",
			"opcodes": "PUSH1 0x80 PUSH1 0x40 MSTORE PUSH1 0x1 PUSH1 0x29 SSTORE CALLVALUE DUP1 ISZERO PUSH2 0x15 JUMPI PUSH1 0x0 DUP1 REVERT JUMPDEST POP CALLER PUSH1 0x22 PUSH1 0x0 PUSH2 0x100 EXP DUP2 SLOAD DUP2 PUSH20 0xFFFFFFFFFFFFFFFFFFFFFFFFFFFFFFFFFFFFFFFF MUL NOT AND SWAP1 DUP4 PUSH20 0xFFFFFFFFFFFFFFFFFFFFFFFFFFFFFFFFFFFFFFFF AND MUL OR SWAP1 SSTORE POP PUSH2 0x6759 DUP1 PUSH3 0x67 PUSH1 0x0 CODECOPY PUSH1 0x0 RETURN INVALID PUSH1 0x80 PUSH1 0x40 MSTORE CALLVALUE DUP1 ISZERO PUSH2 0x10 JUMPI PUSH1 0x0 DUP1 REVERT JUMPDEST POP PUSH1 0x4 CALLDATASIZE LT PUSH2 0x3E5 JUMPI PUSH1 0x0 CALLDATALOAD PUSH1 0xE0 SHR DUP1 PUSH4 0x80416C02 GT PUSH2 0x20A JUMPI DUP1 PUSH4 0xC3D81B21 GT PUSH2 0x125 JUMPI DUP1 PUSH4 0xE1781049 GT PUSH2 0xB8 JUMPI DUP1 PUSH4 0xF738C74E GT PUSH2 0x87 JUMPI DUP1 PUSH4 0xF738C74E EQ PUSH2 0xBA4 JUMPI DUP1 PUSH4 0xFC69B80F EQ PUSH2 0xBC2 JUMPI DUP1 PUSH4 0xFC978E54 EQ PUSH2 0xBF2 JUMPI DUP1 PUSH4 0xFE18F261 EQ PUSH2 0xC12 JUMPI DUP1 PUSH4 0xFF2F169E EQ PUSH2 0xC30 JUMPI PUSH2 0x3E5 JUMP JUMPDEST DUP1 PUSH4 0xE1781049 EQ PUSH2 0xB1A JUMPI DUP1 PUSH4 0xE19A1474 EQ PUSH2 0xB4A JUMPI DUP1 PUSH4 0xEA1797B0 EQ PUSH2 0xB68 JUMPI DUP1 PUSH4 0xF70F4394 EQ PUSH2 0xB86 JUMPI PUSH2 0x3E5 JUMP JUMPDEST DUP1 PUSH4 0xCFE38A5E GT PUSH2 0xF4 JUMPI DUP1 PUSH4 0xCFE38A5E EQ PUSH2 0xA92 JUMPI DUP1 PUSH4 0xD44022DB EQ PUSH2 0xAAE JUMPI DUP1 PUSH4 0xDA5604CE EQ PUSH2 0xACC JUMPI DUP1 PUSH4 0xDF0AB2C2 EQ PUSH2 0xAFC JUMPI PUSH2 0x3E5 JUMP JUMPDEST DUP1 PUSH4 0xC3D81B21 EQ PUSH2 0xA1C JUMPI DUP1 PUSH4 0xC45A0155 EQ PUSH2 0xA38 JUMPI DUP1 PUSH4 0xC7D44932 EQ PUSH2 0xA56 JUMPI DUP1 PUSH4 0xC9E525DF EQ PUSH2 0xA74 JUMPI PUSH2 0x3E5 JUMP JUMPDEST DUP1 PUSH4 0xA54C08F3 GT PUSH2 0x19D JUMPI DUP1 PUSH4 0xB7D19FC4 GT PUSH2 0x16C JUMPI DUP1 PUSH4 0xB7D19FC4 EQ PUSH2 0x981 JUMPI DUP1 PUSH4 0xBC25CF77 EQ PUSH2 0x99F JUMPI DUP1 PUSH4 0xC03D932F EQ PUSH2 0x9BB JUMPI DUP1 PUSH4 0xC2CBAED0 EQ PUSH2 0x9EB JUMPI PUSH2 0x3E5 JUMP JUMPDEST DUP1 PUSH4 0xA54C08F3 EQ PUSH2 0x90B JUMPI DUP1 PUSH4 0xA5AA65B9 EQ PUSH2 0x927 JUMPI DUP1 PUSH4 0xABD60340 EQ PUSH2 0x945 JUMPI DUP1 PUSH4 0xACD4A7C2 EQ PUSH2 0x963 JUMPI PUSH2 0x3E5 JUMP JUMPDEST DUP1 PUSH4 0x8E361389 GT PUSH2 0x1D9 JUMPI DUP1 PUSH4 0x8E361389 EQ PUSH2 0x895 JUMPI DUP1 PUSH4 0x98D5FDCA EQ PUSH2 0x8B3 JUMPI DUP1 PUSH4 0x9A36E122 EQ PUSH2 0x8D1 JUMPI DUP1 PUSH4 0x9F1D0F59 EQ PUSH2 0x8EF JUMPI PUSH2 0x3E5 JUMP JUMPDEST DUP1 PUSH4 0x80416C02 EQ PUSH2 0x81D JUMPI DUP1 PUSH4 0x83DFE5FD EQ PUSH2 0x83B JUMPI DUP1 PUSH4 0x84009686 EQ PUSH2 0x859 JUMPI DUP1 PUSH4 0x8BC1A32F EQ PUSH2 0x877 JUMPI PUSH2 0x3E5 JUMP JUMPDEST DUP1 PUSH4 0x36AF2F9B GT PUSH2 0x305 JUMPI DUP1 PUSH4 0x5E287D86 GT PUSH2 0x298 JUMPI DUP1 PUSH4 0x699553AA GT PUSH2 0x267 JUMPI DUP1 PUSH4 0x699553AA EQ PUSH2 0x760 JUMPI DUP1 PUSH4 0x6B3545AA EQ PUSH2 0x790 JUMPI DUP1 PUSH4 0x79DBF8EA EQ PUSH2 0x7AE JUMPI DUP1 PUSH4 0x7E1431BE EQ PUSH2 0x7CC JUMPI DUP1 PUSH4 0x7ED6281B EQ PUSH2 0x7FF JUMPI PUSH2 0x3E5 JUMP JUMPDEST DUP1 PUSH4 0x5E287D86 EQ PUSH2 0x6EA JUMPI DUP1 PUSH4 0x6607E7E8 EQ PUSH2 0x708 JUMPI DUP1 PUSH4 0x693F917E EQ PUSH2 0x726 JUMPI DUP1 PUSH4 0x696ACB5D EQ PUSH2 0x744 JUMPI PUSH2 0x3E5 JUMP JUMPDEST DUP1 PUSH4 0x485CC955 GT PUSH2 0x2D4 JUMPI DUP1 PUSH4 0x485CC955 EQ PUSH2 0x664 JUMPI DUP1 PUSH4 0x4C324E6A EQ PUSH2 0x680 JUMPI DUP1 PUSH4 0x5115B6CF EQ PUSH2 0x69C JUMPI DUP1 PUSH4 0x5595D459 EQ PUSH2 0x6CC JUMPI PUSH2 0x3E5 JUMP JUMPDEST DUP1 PUSH4 0x36AF2F9B EQ PUSH2 0x5DA JUMPI DUP1 PUSH4 0x3C6FE2F4 EQ PUSH2 0x5F8 JUMPI DUP1 PUSH4 0x432CFD1C EQ PUSH2 0x616 JUMPI DUP1 PUSH4 0x480C4F7E EQ PUSH2 0x646 JUMPI PUSH2 0x3E5 JUMP JUMPDEST DUP1 PUSH4 0x2190219E GT PUSH2 0x37D JUMPI DUP1 PUSH4 0x2ABC28AA GT PUSH2 0x34C JUMPI DUP1 PUSH4 0x2ABC28AA EQ PUSH2 0x552 JUMPI DUP1 PUSH4 0x2DD6C254 EQ PUSH2 0x582 JUMPI DUP1 PUSH4 0x32E7C5BF EQ PUSH2 0x5A0 JUMPI DUP1 PUSH4 0x35714521 EQ PUSH2 0x5BE JUMPI PUSH2 0x3E5 JUMP JUMPDEST DUP1 PUSH4 0x2190219E EQ PUSH2 0x4DA JUMPI DUP1 PUSH4 0x225C2C50 EQ PUSH2 0x4F8 JUMPI DUP1 PUSH4 0x23ED16B6 EQ PUSH2 0x516 JUMPI DUP1 PUSH4 0x25C513A4 EQ PUSH2 0x534 JUMPI PUSH2 0x3E5 JUMP JUMPDEST DUP1 PUSH4 0xF529BA2 GT PUSH2 0x3B9 JUMPI DUP1 PUSH4 0xF529BA2 EQ PUSH2 0x462 JUMPI DUP1 PUSH4 0x139860EE EQ PUSH2 0x480 JUMPI DUP1 PUSH4 0x16DC165B EQ PUSH2 0x49E JUMPI DUP1 PUSH4 0x18DB9681 EQ PUSH2 0x4BC JUMPI PUSH2 0x3E5 JUMP JUMPDEST DUP1 PUSH3 0xB52645 EQ PUSH2 0x3EA JUMPI DUP1 PUSH4 0x902F1AC EQ PUSH2 0x408 JUMPI DUP1 PUSH4 0xB197615 EQ PUSH2 0x428 JUMPI DUP1 PUSH4 0xBFA68D8 EQ PUSH2 0x446 JUMPI JUMPDEST PUSH1 0x0 DUP1 REVERT JUMPDEST PUSH2 0x3F2 PUSH2 0xC4C JUMP JUMPDEST PUSH1 0x40 MLOAD PUSH2 0x3FF SWAP2 SWAP1 PUSH2 0x6065 JUMP JUMPDEST PUSH1 0x40 MLOAD DUP1 SWAP2 SUB SWAP1 RETURN JUMPDEST PUSH2 0x410 PUSH2 0xC52 JUMP JUMPDEST PUSH1 0x40 MLOAD PUSH2 0x41F SWAP4 SWAP3 SWAP2 SWAP1 PUSH2 0x60E0 JUMP JUMPDEST PUSH1 0x40 MLOAD DUP1 SWAP2 SUB SWAP1 RETURN JUMPDEST PUSH2 0x430 PUSH2 0xC69 JUMP JUMPDEST PUSH1 0x40 MLOAD PUSH2 0x43D SWAP2 SWAP1 PUSH2 0x6065 JUMP JUMPDEST PUSH1 0x40 MLOAD DUP1 SWAP2 SUB SWAP1 RETURN JUMPDEST PUSH2 0x460 PUSH1 0x4 DUP1 CALLDATASIZE SUB DUP2 ADD SWAP1 PUSH2 0x45B SWAP2 SWAP1 PUSH2 0x5B0A JUMP JUMPDEST PUSH2 0xC6F JUMP JUMPDEST STOP JUMPDEST PUSH2 0x46A PUSH2 0xD09 JUMP JUMPDEST PUSH1 0x40 MLOAD PUSH2 0x477 SWAP2 SWAP1 PUSH2 0x6065 JUMP JUMPDEST PUSH1 0x40 MLOAD DUP1 SWAP2 SUB SWAP1 RETURN JUMPDEST PUSH2 0x488 PUSH2 0xD0F JUMP JUMPDEST PUSH1 0x40 MLOAD PUSH2 0x495 SWAP2 SWAP1 PUSH2 0x6065 JUMP JUMPDEST PUSH1 0x40 MLOAD DUP1 SWAP2 SUB SWAP1 RETURN JUMPDEST PUSH2 0x4A6 PUSH2 0xD15 JUMP JUMPDEST PUSH1 0x40 MLOAD PUSH2 0x4B3 SWAP2 SWAP1 PUSH2 0x5E7F JUMP JUMPDEST PUSH1 0x40 MLOAD DUP1 SWAP2 SUB SWAP1 RETURN JUMPDEST PUSH2 0x4C4 PUSH2 0xD3B JUMP JUMPDEST PUSH1 0x40 MLOAD PUSH2 0x4D1 SWAP2 SWAP1 PUSH2 0x6065 JUMP JUMPDEST PUSH1 0x40 MLOAD DUP1 SWAP2 SUB SWAP1 RETURN JUMPDEST PUSH2 0x4E2 PUSH2 0xD41 JUMP JUMPDEST PUSH1 0x40 MLOAD PUSH2 0x4EF SWAP2 SWAP1 PUSH2 0x6065 JUMP JUMPDEST PUSH1 0x40 MLOAD DUP1 SWAP2 SUB SWAP1 RETURN JUMPDEST PUSH2 0x500 PUSH2 0xD47 JUMP JUMPDEST PUSH1 0x40 MLOAD PUSH2 0x50D SWAP2 SWAP1 PUSH2 0x6065 JUMP JUMPDEST PUSH1 0x40 MLOAD DUP1 SWAP2 SUB SWAP1 RETURN JUMPDEST PUSH2 0x51E PUSH2 0xD4D JUMP JUMPDEST PUSH1 0x40 MLOAD PUSH2 0x52B SWAP2 SWAP1 PUSH2 0x6065 JUMP JUMPDEST PUSH1 0x40 MLOAD DUP1 SWAP2 SUB SWAP1 RETURN JUMPDEST PUSH2 0x53C PUSH2 0xD53 JUMP JUMPDEST PUSH1 0x40 MLOAD PUSH2 0x549 SWAP2 SWAP1 PUSH2 0x6065 JUMP JUMPDEST PUSH1 0x40 MLOAD DUP1 SWAP2 SUB SWAP1 RETURN JUMPDEST PUSH2 0x56C PUSH1 0x4 DUP1 CALLDATASIZE SUB DUP2 ADD SWAP1 PUSH2 0x567 SWAP2 SWAP1 PUSH2 0x599D JUMP JUMPDEST PUSH2 0xD59 JUMP JUMPDEST PUSH1 0x40 MLOAD PUSH2 0x579 SWAP2 SWAP1 PUSH2 0x6065 JUMP JUMPDEST PUSH1 0x40 MLOAD DUP1 SWAP2 SUB SWAP1 RETURN JUMPDEST PUSH2 0x58A PUSH2 0xE85 JUMP JUMPDEST PUSH1 0x40 MLOAD PUSH2 0x597 SWAP2 SWAP1 PUSH2 0x6065 JUMP JUMPDEST PUSH1 0x40 MLOAD DUP1 SWAP2 SUB SWAP1 RETURN JUMPDEST PUSH2 0x5A8 PUSH2 0xE8B JUMP JUMPDEST PUSH1 0x40 MLOAD PUSH2 0x5B5 SWAP2 SWAP1 PUSH2 0x6065 JUMP JUMPDEST PUSH1 0x40 MLOAD DUP1 SWAP2 SUB SWAP1 RETURN JUMPDEST PUSH2 0x5D8 PUSH1 0x4 DUP1 CALLDATASIZE SUB DUP2 ADD SWAP1 PUSH2 0x5D3 SWAP2 SWAP1 PUSH2 0x5B0A JUMP JUMPDEST PUSH2 0xE91 JUMP JUMPDEST STOP JUMPDEST PUSH2 0x5E2 PUSH2 0xF2B JUMP JUMPDEST PUSH1 0x40 MLOAD PUSH2 0x5EF SWAP2 SWAP1 PUSH2 0x6065 JUMP JUMPDEST PUSH1 0x40 MLOAD DUP1 SWAP2 SUB SWAP1 RETURN JUMPDEST PUSH2 0x600 PUSH2 0xF31 JUMP JUMPDEST PUSH1 0x40 MLOAD PUSH2 0x60D SWAP2 SWAP1 PUSH2 0x6065 JUMP JUMPDEST PUSH1 0x40 MLOAD DUP1 SWAP2 SUB SWAP1 RETURN JUMPDEST PUSH2 0x630 PUSH1 0x4 DUP1 CALLDATASIZE SUB DUP2 ADD SWAP1 PUSH2 0x62B SWAP2 SWAP1 PUSH2 0x5BB7 JUMP JUMPDEST PUSH2 0xF37 JUMP JUMPDEST PUSH1 0x40 MLOAD PUSH2 0x63D SWAP2 SWAP1 PUSH2 0x6065 JUMP JUMPDEST PUSH1 0x40 MLOAD DUP1 SWAP2 SUB SWAP1 RETURN JUMPDEST PUSH2 0x64E PUSH2 0x1051 JUMP JUMPDEST PUSH1 0x40 MLOAD PUSH2 0x65B SWAP2 SWAP1 PUSH2 0x6065 JUMP JUMPDEST PUSH1 0x40 MLOAD DUP1 SWAP2 SUB SWAP1 RETURN JUMPDEST PUSH2 0x67E PUSH1 0x4 DUP1 CALLDATASIZE SUB DUP2 ADD SWAP1 PUSH2 0x679 SWAP2 SWAP1 PUSH2 0x59CA JUMP JUMPDEST PUSH2 0x1057 JUMP JUMPDEST STOP JUMPDEST PUSH2 0x69A PUSH1 0x4 DUP1 CALLDATASIZE SUB DUP2 ADD SWAP1 PUSH2 0x695 SWAP2 SWAP1 PUSH2 0x5BF7 JUMP JUMPDEST PUSH2 0x116D JUMP JUMPDEST STOP JUMPDEST PUSH2 0x6B6 PUSH1 0x4 DUP1 CALLDATASIZE SUB DUP2 ADD SWAP1 PUSH2 0x6B1 SWAP2 SWAP1 PUSH2 0x599D JUMP JUMPDEST PUSH2 0x1BD7 JUMP JUMPDEST PUSH1 0x40 MLOAD PUSH2 0x6C3 SWAP2 SWAP1 PUSH2 0x6065 JUMP JUMPDEST PUSH1 0x40 MLOAD DUP1 SWAP2 SUB SWAP1 RETURN JUMPDEST PUSH2 0x6D4 PUSH2 0x1D5F JUMP JUMPDEST PUSH1 0x40 MLOAD PUSH2 0x6E1 SWAP2 SWAP1 PUSH2 0x6065 JUMP JUMPDEST PUSH1 0x40 MLOAD DUP1 SWAP2 SUB SWAP1 RETURN JUMPDEST PUSH2 0x6F2 PUSH2 0x1D65 JUMP JUMPDEST PUSH1 0x40 MLOAD PUSH2 0x6FF SWAP2 SWAP1 PUSH2 0x6065 JUMP JUMPDEST PUSH1 0x40 MLOAD DUP1 SWAP2 SUB SWAP1 RETURN JUMPDEST PUSH2 0x710 PUSH2 0x1D6B JUMP JUMPDEST PUSH1 0x40 MLOAD PUSH2 0x71D SWAP2 SWAP1 PUSH2 0x6065 JUMP JUMPDEST PUSH1 0x40 MLOAD DUP1 SWAP2 SUB SWAP1 RETURN JUMPDEST PUSH2 0x72E PUSH2 0x1D71 JUMP JUMPDEST PUSH1 0x40 MLOAD PUSH2 0x73B SWAP2 SWAP1 PUSH2 0x6065 JUMP JUMPDEST PUSH1 0x40 MLOAD DUP1 SWAP2 SUB SWAP1 RETURN JUMPDEST PUSH2 0x75E PUSH1 0x4 DUP1 CALLDATASIZE SUB DUP2 ADD SWAP1 PUSH2 0x759 SWAP2 SWAP1 PUSH2 0x5BF7 JUMP JUMPDEST PUSH2 0x1D77 JUMP JUMPDEST STOP JUMPDEST PUSH2 0x77A PUSH1 0x4 DUP1 CALLDATASIZE SUB DUP2 ADD SWAP1 PUSH2 0x775 SWAP2 SWAP1 PUSH2 0x599D JUMP JUMPDEST PUSH2 0x2187 JUMP JUMPDEST PUSH1 0x40 MLOAD PUSH2 0x787 SWAP2 SWAP1 PUSH2 0x6065 JUMP JUMPDEST PUSH1 0x40 MLOAD DUP1 SWAP2 SUB SWAP1 RETURN JUMPDEST PUSH2 0x798 PUSH2 0x219F JUMP JUMPDEST PUSH1 0x40 MLOAD PUSH2 0x7A5 SWAP2 SWAP1 PUSH2 0x6065 JUMP JUMPDEST PUSH1 0x40 MLOAD DUP1 SWAP2 SUB SWAP1 RETURN JUMPDEST PUSH2 0x7B6 PUSH2 0x21A5 JUMP JUMPDEST PUSH1 0x40 MLOAD PUSH2 0x7C3 SWAP2 SWAP1 PUSH2 0x6065 JUMP JUMPDEST PUSH1 0x40 MLOAD DUP1 SWAP2 SUB SWAP1 RETURN JUMPDEST PUSH2 0x7E6 PUSH1 0x4 DUP1 CALLDATASIZE SUB DUP2 ADD SWAP1 PUSH2 0x7E1 SWAP2 SWAP1 PUSH2 0x5A0A JUMP JUMPDEST PUSH2 0x21AB JUMP JUMPDEST PUSH1 0x40 MLOAD PUSH2 0x7F6 SWAP5 SWAP4 SWAP3 SWAP2 SWAP1 PUSH2 0x5E9A JUMP JUMPDEST PUSH1 0x40 MLOAD DUP1 SWAP2 SUB SWAP1 RETURN JUMPDEST PUSH2 0x807 PUSH2 0x2215 JUMP JUMPDEST PUSH1 0x40 MLOAD PUSH2 0x814 SWAP2 SWAP1 PUSH2 0x6065 JUMP JUMPDEST PUSH1 0x40 MLOAD DUP1 SWAP2 SUB SWAP1 RETURN JUMPDEST PUSH2 0x825 PUSH2 0x221B JUMP JUMPDEST PUSH1 0x40 MLOAD PUSH2 0x832 SWAP2 SWAP1 PUSH2 0x6065 JUMP JUMPDEST PUSH1 0x40 MLOAD DUP1 SWAP2 SUB SWAP1 RETURN JUMPDEST PUSH2 0x843 PUSH2 0x2221 JUMP JUMPDEST PUSH1 0x40 MLOAD PUSH2 0x850 SWAP2 SWAP1 PUSH2 0x6065 JUMP JUMPDEST PUSH1 0x40 MLOAD DUP1 SWAP2 SUB SWAP1 RETURN JUMPDEST PUSH2 0x861 PUSH2 0x2227 JUMP JUMPDEST PUSH1 0x40 MLOAD PUSH2 0x86E SWAP2 SWAP1 PUSH2 0x6065 JUMP JUMPDEST PUSH1 0x40 MLOAD DUP1 SWAP2 SUB SWAP1 RETURN JUMPDEST PUSH2 0x87F PUSH2 0x222D JUMP JUMPDEST PUSH1 0x40 MLOAD PUSH2 0x88C SWAP2 SWAP1 PUSH2 0x6065 JUMP JUMPDEST PUSH1 0x40 MLOAD DUP1 SWAP2 SUB SWAP1 RETURN JUMPDEST PUSH2 0x89D PUSH2 0x2233 JUMP JUMPDEST PUSH1 0x40 MLOAD PUSH2 0x8AA SWAP2 SWAP1 PUSH2 0x6065 JUMP JUMPDEST PUSH1 0x40 MLOAD DUP1 SWAP2 SUB SWAP1 RETURN JUMPDEST PUSH2 0x8BB PUSH2 0x2239 JUMP JUMPDEST PUSH1 0x40 MLOAD PUSH2 0x8C8 SWAP2 SWAP1 PUSH2 0x6065 JUMP JUMPDEST PUSH1 0x40 MLOAD DUP1 SWAP2 SUB SWAP1 RETURN JUMPDEST PUSH2 0x8D9 PUSH2 0x225D JUMP JUMPDEST PUSH1 0x40 MLOAD PUSH2 0x8E6 SWAP2 SWAP1 PUSH2 0x6065 JUMP JUMPDEST PUSH1 0x40 MLOAD DUP1 SWAP2 SUB SWAP1 RETURN JUMPDEST PUSH2 0x909 PUSH1 0x4 DUP1 CALLDATASIZE SUB DUP2 ADD SWAP1 PUSH2 0x904 SWAP2 SWAP1 PUSH2 0x5A8A JUMP JUMPDEST PUSH2 0x2263 JUMP JUMPDEST STOP JUMPDEST PUSH2 0x925 PUSH1 0x4 DUP1 CALLDATASIZE SUB DUP2 ADD SWAP1 PUSH2 0x920 SWAP2 SWAP1 PUSH2 0x5B64 JUMP JUMPDEST PUSH2 0x263D JUMP JUMPDEST STOP JUMPDEST PUSH2 0x92F PUSH2 0x26F3 JUMP JUMPDEST PUSH1 0x40 MLOAD PUSH2 0x93C SWAP2 SWAP1 PUSH2 0x6065 JUMP JUMPDEST PUSH1 0x40 MLOAD DUP1 SWAP2 SUB SWAP1 RETURN JUMPDEST PUSH2 0x94D PUSH2 0x26F9 JUMP JUMPDEST PUSH1 0x40 MLOAD PUSH2 0x95A SWAP2 SWAP1 PUSH2 0x5F08 JUMP JUMPDEST PUSH1 0x40 MLOAD DUP1 SWAP2 SUB SWAP1 RETURN JUMPDEST PUSH2 0x96B PUSH2 0x2728 JUMP JUMPDEST PUSH1 0x40 MLOAD PUSH2 0x978 SWAP2 SWAP1 PUSH2 0x6065 JUMP JUMPDEST PUSH1 0x40 MLOAD DUP1 SWAP2 SUB SWAP1 RETURN JUMPDEST PUSH2 0x989 PUSH2 0x272E JUMP JUMPDEST PUSH1 0x40 MLOAD PUSH2 0x996 SWAP2 SWAP1 PUSH2 0x5E7F JUMP JUMPDEST PUSH1 0x40 MLOAD DUP1 SWAP2 SUB SWAP1 RETURN JUMPDEST PUSH2 0x9B9 PUSH1 0x4 DUP1 CALLDATASIZE SUB DUP2 ADD SWAP1 PUSH2 0x9B4 SWAP2 SWAP1 PUSH2 0x599D JUMP JUMPDEST PUSH2 0x2754 JUMP JUMPDEST STOP JUMPDEST PUSH2 0x9D5 PUSH1 0x4 DUP1 CALLDATASIZE SUB DUP2 ADD SWAP1 PUSH2 0x9D0 SWAP2 SWAP1 PUSH2 0x599D JUMP JUMPDEST PUSH2 0x294A JUMP JUMPDEST PUSH1 0x40 MLOAD PUSH2 0x9E2 SWAP2 SWAP1 PUSH2 0x6065 JUMP JUMPDEST PUSH1 0x40 MLOAD DUP1 SWAP2 SUB SWAP1 RETURN JUMPDEST PUSH2 0xA05 PUSH1 0x4 DUP1 CALLDATASIZE SUB DUP2 ADD SWAP1 PUSH2 0xA00 SWAP2 SWAP1 PUSH2 0x5B0A JUMP JUMPDEST PUSH2 0x2A78 JUMP JUMPDEST PUSH1 0x40 MLOAD PUSH2 0xA13 SWAP3 SWAP2 SWAP1 PUSH2 0x6080 JUMP JUMPDEST PUSH1 0x40 MLOAD DUP1 SWAP2 SUB SWAP1 RETURN JUMPDEST PUSH2 0xA36 PUSH1 0x4 DUP1 CALLDATASIZE SUB DUP2 ADD SWAP1 PUSH2 0xA31 SWAP2 SWAP1 PUSH2 0x59CA JUMP JUMPDEST PUSH2 0x2BAF JUMP JUMPDEST STOP JUMPDEST PUSH2 0xA40 PUSH2 0x2F30 JUMP JUMPDEST PUSH1 0x40 MLOAD PUSH2 0xA4D SWAP2 SWAP1 PUSH2 0x5E7F JUMP JUMPDEST PUSH1 0x40 MLOAD DUP1 SWAP2 SUB SWAP1 RETURN JUMPDEST PUSH2 0xA5E PUSH2 0x2F56 JUMP JUMPDEST PUSH1 0x40 MLOAD PUSH2 0xA6B SWAP2 SWAP1 PUSH2 0x5F2A JUMP JUMPDEST PUSH1 0x40 MLOAD DUP1 SWAP2 SUB SWAP1 RETURN JUMPDEST PUSH2 0xA7C PUSH2 0x2F69 JUMP JUMPDEST PUSH1 0x40 MLOAD PUSH2 0xA89 SWAP2 SWAP1 PUSH2 0x6065 JUMP JUMPDEST PUSH1 0x40 MLOAD DUP1 SWAP2 SUB SWAP1 RETURN JUMPDEST PUSH2 0xAAC PUSH1 0x4 DUP1 CALLDATASIZE SUB DUP2 ADD SWAP1 PUSH2 0xAA7 SWAP2 SWAP1 PUSH2 0x5B0A JUMP JUMPDEST PUSH2 0x2F6F JUMP JUMPDEST STOP JUMPDEST PUSH2 0xAB6 PUSH2 0x3009 JUMP JUMPDEST PUSH1 0x40 MLOAD PUSH2 0xAC3 SWAP2 SWAP1 PUSH2 0x6065 JUMP JUMPDEST PUSH1 0x40 MLOAD DUP1 SWAP2 SUB SWAP1 RETURN JUMPDEST PUSH2 0xAE6 PUSH1 0x4 DUP1 CALLDATASIZE SUB DUP2 ADD SWAP1 PUSH2 0xAE1 SWAP2 SWAP1 PUSH2 0x5B0A JUMP JUMPDEST PUSH2 0x300F JUMP JUMPDEST PUSH1 0x40 MLOAD PUSH2 0xAF3 SWAP2 SWAP1 PUSH2 0x5E7F JUMP JUMPDEST PUSH1 0x40 MLOAD DUP1 SWAP2 SUB SWAP1 RETURN JUMPDEST PUSH2 0xB04 PUSH2 0x304E JUMP JUMPDEST PUSH1 0x40 MLOAD PUSH2 0xB11 SWAP2 SWAP1 PUSH2 0x6065 JUMP JUMPDEST PUSH1 0x40 MLOAD DUP1 SWAP2 SUB SWAP1 RETURN JUMPDEST PUSH2 0xB34 PUSH1 0x4 DUP1 CALLDATASIZE SUB DUP2 ADD SWAP1 PUSH2 0xB2F SWAP2 SWAP1 PUSH2 0x599D JUMP JUMPDEST PUSH2 0x3054 JUMP JUMPDEST PUSH1 0x40 MLOAD PUSH2 0xB41 SWAP2 SWAP1 PUSH2 0x6065 JUMP JUMPDEST PUSH1 0x40 MLOAD DUP1 SWAP2 SUB SWAP1 RETURN JUMPDEST PUSH2 0xB52 PUSH2 0x305B JUMP JUMPDEST PUSH1 0x40 MLOAD PUSH2 0xB5F SWAP2 SWAP1 PUSH2 0x6065 JUMP JUMPDEST PUSH1 0x40 MLOAD DUP1 SWAP2 SUB SWAP1 RETURN JUMPDEST PUSH2 0xB70 PUSH2 0x3061 JUMP JUMPDEST PUSH1 0x40 MLOAD PUSH2 0xB7D SWAP2 SWAP1 PUSH2 0x6065 JUMP JUMPDEST PUSH1 0x40 MLOAD DUP1 SWAP2 SUB SWAP1 RETURN JUMPDEST PUSH2 0xB8E PUSH2 0x3067 JUMP JUMPDEST PUSH1 0x40 MLOAD PUSH2 0xB9B SWAP2 SWAP1 PUSH2 0x6065 JUMP JUMPDEST PUSH1 0x40 MLOAD DUP1 SWAP2 SUB SWAP1 RETURN JUMPDEST PUSH2 0xBAC PUSH2 0x306D JUMP JUMPDEST PUSH1 0x40 MLOAD PUSH2 0xBB9 SWAP2 SWAP1 PUSH2 0x6065 JUMP JUMPDEST PUSH1 0x40 MLOAD DUP1 SWAP2 SUB SWAP1 RETURN JUMPDEST PUSH2 0xBDC PUSH1 0x4 DUP1 CALLDATASIZE SUB DUP2 ADD SWAP1 PUSH2 0xBD7 SWAP2 SWAP1 PUSH2 0x5A4A JUMP JUMPDEST PUSH2 0x3073 JUMP JUMPDEST PUSH1 0x40 MLOAD PUSH2 0xBE9 SWAP2 SWAP1 PUSH2 0x6065 JUMP JUMPDEST PUSH1 0x40 MLOAD DUP1 SWAP2 SUB SWAP1 RETURN JUMPDEST PUSH2 0xBFA PUSH2 0x30A4 JUMP JUMPDEST PUSH1 0x40 MLOAD PUSH2 0xC09 SWAP4 SWAP3 SWAP2 SWAP1 PUSH2 0x60A9 JUMP JUMPDEST PUSH1 0x40 MLOAD DUP1 SWAP2 SUB SWAP1 RETURN JUMPDEST PUSH2 0xC1A PUSH2 0x35A8 JUMP JUMPDEST PUSH1 0x40 MLOAD PUSH2 0xC27 SWAP2 SWAP1 PUSH2 0x6065 JUMP JUMPDEST PUSH1 0x40 MLOAD DUP1 SWAP2 SUB SWAP1 RETURN JUMPDEST PUSH2 0xC4A PUSH1 0x4 DUP1 CALLDATASIZE SUB DUP2 ADD SWAP1 PUSH2 0xC45 SWAP2 SWAP1 PUSH2 0x5B0A JUMP JUMPDEST PUSH2 0x35AE JUMP JUMPDEST STOP JUMPDEST PUSH1 0x9 SLOAD DUP2 JUMP JUMPDEST PUSH1 0x0 DUP1 PUSH1 0x0 PUSH1 0xF SLOAD SWAP3 POP PUSH1 0xE SLOAD SWAP2 POP TIMESTAMP SWAP1 POP SWAP1 SWAP2 SWAP3 JUMP JUMPDEST PUSH1 0x10 SLOAD DUP2 JUMP JUMPDEST PUSH1 0x22 PUSH1 0x0 SWAP1 SLOAD SWAP1 PUSH2 0x100 EXP SWAP1 DIV PUSH20 0xFFFFFFFFFFFFFFFFFFFFFFFFFFFFFFFFFFFFFFFF AND PUSH20 0xFFFFFFFFFFFFFFFFFFFFFFFFFFFFFFFFFFFFFFFF AND CALLER PUSH20 0xFFFFFFFFFFFFFFFFFFFFFFFFFFFFFFFFFFFFFFFF AND EQ PUSH2 0xCFF JUMPI PUSH1 0x40 MLOAD PUSH32 0x8C379A000000000000000000000000000000000000000000000000000000000 DUP2 MSTORE PUSH1 0x4 ADD PUSH2 0xCF6 SWAP1 PUSH2 0x5FC5 JUMP JUMPDEST PUSH1 0x40 MLOAD DUP1 SWAP2 SUB SWAP1 REVERT JUMPDEST DUP1 PUSH1 0x1C DUP2 SWAP1 SSTORE POP POP JUMP JUMPDEST PUSH1 0x2 SLOAD DUP2 JUMP JUMPDEST PUSH1 0x17 SLOAD DUP2 JUMP JUMPDEST PUSH1 0x23 PUSH1 0x0 SWAP1 SLOAD SWAP1 PUSH2 0x100 EXP SWAP1 DIV PUSH20 0xFFFFFFFFFFFFFFFFFFFFFFFFFFFFFFFFFFFFFFFF AND DUP2 JUMP JUMPDEST PUSH1 0x18 SLOAD DUP2 JUMP JUMPDEST PUSH1 0x14 SLOAD DUP2 JUMP JUMPDEST PUSH1 0x15 SLOAD DUP2 JUMP JUMPDEST PUSH1 0x19 SLOAD DUP2 JUMP JUMPDEST PUSH1 0x20 SLOAD DUP2 JUMP JUMPDEST PUSH1 0x0 DUP1 PUSH1 0x2C PUSH1 0x0 DUP5 PUSH20 0xFFFFFFFFFFFFFFFFFFFFFFFFFFFFFFFFFFFFFFFF AND PUSH20 0xFFFFFFFFFFFFFFFFFFFFFFFFFFFFFFFFFFFFFFFF AND DUP2 MSTORE PUSH1 0x20 ADD SWAP1 DUP2 MSTORE PUSH1 0x20 ADD PUSH1 0x0 KECCAK256 DUP1 SLOAD DUP1 PUSH1 0x20 MUL PUSH1 0x20 ADD PUSH1 0x40 MLOAD SWAP1 DUP2 ADD PUSH1 0x40 MSTORE DUP1 SWAP3 SWAP2 SWAP1 DUP2 DUP2 MSTORE PUSH1 0x20 ADD DUP3 DUP1 SLOAD DUP1 ISZERO PUSH2 0xDE5 JUMPI PUSH1 0x20 MUL DUP3 ADD SWAP2 SWAP1 PUSH1 0x0 MSTORE PUSH1 0x20 PUSH1 0x0 KECCAK256 SWAP1 JUMPDEST DUP2 SLOAD DUP2 MSTORE PUSH1 0x20 ADD SWAP1 PUSH1 0x1 ADD SWAP1 DUP1 DUP4 GT PUSH2 0xDD1 JUMPI JUMPDEST POP POP POP POP POP SWAP1 POP PUSH1 0x0 PUSH2 0xDF6 PUSH2 0x26F9 JUMP JUMPDEST SWAP1 POP PUSH1 0x0 DUP3 MLOAD SWAP1 POP PUSH1 0x0 JUMPDEST DUP2 DUP2 LT ISZERO PUSH2 0xE7C JUMPI PUSH8 0xDE0B6B3A7640000 DUP4 DUP3 DUP2 MLOAD DUP2 LT PUSH2 0xE25 JUMPI PUSH2 0xE24 PUSH2 0x652C JUMP JUMPDEST JUMPDEST PUSH1 0x20 MUL PUSH1 0x20 ADD ADD MLOAD DUP6 DUP4 DUP2 MLOAD DUP2 LT PUSH2 0xE40 JUMPI PUSH2 0xE3F PUSH2 0x652C JUMP JUMPDEST JUMPDEST PUSH1 0x20 MUL PUSH1 0x20 ADD ADD MLOAD PUSH2 0xE52 SWAP2 SWAP1 PUSH2 0x636F JUMP JUMPDEST PUSH2 0xE5C SWAP2 SWAP1 PUSH2 0x61CD JUMP JUMPDEST DUP6 PUSH2 0xE67 SWAP2 SWAP1 PUSH2 0x6177 JUMP JUMPDEST SWAP5 POP DUP1 DUP1 PUSH2 0xE74 SWAP1 PUSH2 0x6485 JUMP JUMPDEST SWAP2 POP POP PUSH2 0xE01 JUMP JUMPDEST POP POP POP POP SWAP2 SWAP1 POP JUMP JUMPDEST PUSH1 0x26 SLOAD DUP2 JUMP JUMPDEST PUSH1 0x0 SLOAD DUP2 JUMP JUMPDEST PUSH1 0x22 PUSH1 0x0 SWAP1 SLOAD SWAP1 PUSH2 0x100 EXP SWAP1 DIV PUSH20 0xFFFFFFFFFFFFFFFFFFFFFFFFFFFFFFFFFFFFFFFF AND PUSH20 0xFFFFFFFFFFFFFFFFFFFFFFFFFFFFFFFFFFFFFFFF AND CALLER PUSH20 0xFFFFFFFFFFFFFFFFFFFFFFFFFFFFFFFFFFFFFFFF AND EQ PUSH2 0xF21 JUMPI PUSH1 0x40 MLOAD PUSH32 0x8C379A000000000000000000000000000000000000000000000000000000000 DUP2 MSTORE PUSH1 0x4 ADD PUSH2 0xF18 SWAP1 PUSH2 0x5FC5 JUMP JUMPDEST PUSH1 0x40 MLOAD DUP1 SWAP2 SUB SWAP1 REVERT JUMPDEST DUP1 PUSH1 0x18 DUP2 SWAP1 SSTORE POP POP JUMP JUMPDEST PUSH1 0x7 SLOAD DUP2 JUMP JUMPDEST PUSH1 0xE SLOAD DUP2 JUMP JUMPDEST PUSH1 0x0 PUSH1 0x1 PUSH1 0x29 SLOAD EQ PUSH2 0xF7E JUMPI PUSH1 0x40 MLOAD PUSH32 0x8C379A000000000000000000000000000000000000000000000000000000000 DUP2 MSTORE PUSH1 0x4 ADD PUSH2 0xF75 SWAP1 PUSH2 0x6045 JUMP JUMPDEST PUSH1 0x40 MLOAD DUP1 SWAP2 SUB SWAP1 REVERT JUMPDEST PUSH1 0x0 PUSH1 0x29 DUP2 SWAP1 SSTORE POP PUSH1 0xF SLOAD DUP4 PUSH1 0xF SLOAD PUSH2 0xF97 SWAP2 SWAP1 PUSH2 0x6177 JUMP JUMPDEST PUSH1 0x6 SLOAD PUSH2 0xFA4 SWAP2 SWAP1 PUSH2 0x636F JUMP JUMPDEST PUSH2 0xFAE SWAP2 SWAP1 PUSH2 0x61CD JUMP JUMPDEST PUSH1 0x6 DUP2 SWAP1 SSTORE POP PUSH1 0xE SLOAD DUP3 PUSH1 0xE SLOAD PUSH2 0xFC5 SWAP2 SWAP1 PUSH2 0x6177 JUMP JUMPDEST PUSH1 0x7 SLOAD PUSH2 0xFD2 SWAP2 SWAP1 PUSH2 0x636F JUMP JUMPDEST PUSH2 0xFDC SWAP2 SWAP1 PUSH2 0x61CD JUMP JUMPDEST PUSH1 0x7 DUP2 SWAP1 SSTORE POP PUSH1 0xF SLOAD DUP4 PUSH1 0x26 SLOAD PUSH2 0xFF3 SWAP2 SWAP1 PUSH2 0x636F JUMP JUMPDEST PUSH2 0xFFD SWAP2 SWAP1 PUSH2 0x61CD JUMP JUMPDEST SWAP1 POP DUP1 PUSH1 0x26 SLOAD PUSH2 0x100D SWAP2 SWAP1 PUSH2 0x6177 JUMP JUMPDEST PUSH1 0x26 DUP2 SWAP1 SSTORE POP DUP3 PUSH1 0xF SLOAD PUSH2 0x1021 SWAP2 SWAP1 PUSH2 0x6177 JUMP JUMPDEST PUSH1 0xF DUP2 SWAP1 SSTORE POP DUP2 PUSH1 0xE SLOAD PUSH2 0x1035 SWAP2 SWAP1 PUSH2 0x6177 JUMP JUMPDEST PUSH1 0xE DUP2 SWAP1 SSTORE POP PUSH2 0x1043 PUSH2 0x3648 JUMP JUMPDEST PUSH1 0x1 PUSH1 0x29 DUP2 SWAP1 SSTORE POP SWAP3 SWAP2 POP POP JUMP JUMPDEST PUSH1 0x12 SLOAD DUP2 JUMP JUMPDEST PUSH1 0x22 PUSH1 0x0 SWAP1 SLOAD SWAP1 PUSH2 0x100 EXP SWAP1 DIV PUSH20 0xFFFFFFFFFFFFFFFFFFFFFFFFFFFFFFFFFFFFFFFF AND PUSH20 0xFFFFFFFFFFFFFFFFFFFFFFFFFFFFFFFFFFFFFFFF AND CALLER PUSH20 0xFFFFFFFFFFFFFFFFFFFFFFFFFFFFFFFFFFFFFFFF AND EQ PUSH2 0x10E7 JUMPI PUSH1 0x40 MLOAD PUSH32 0x8C379A000000000000000000000000000000000000000000000000000000000 DUP2 MSTORE PUSH1 0x4 ADD PUSH2 0x10DE SWAP1 PUSH2 0x5FC5 JUMP JUMPDEST PUSH1 0x40 MLOAD DUP1 SWAP2 SUB SWAP1 REVERT JUMPDEST DUP2 PUSH1 0x23 PUSH1 0x0 PUSH2 0x100 EXP DUP2 SLOAD DUP2 PUSH20 0xFFFFFFFFFFFFFFFFFFFFFFFFFFFFFFFFFFFFFFFF MUL NOT AND SWAP1 DUP4 PUSH20 0xFFFFFFFFFFFFFFFFFFFFFFFFFFFFFFFFFFFFFFFF AND MUL OR SWAP1 SSTORE POP DUP1 PUSH1 0x24 PUSH1 0x0 PUSH2 0x100 EXP DUP2 SLOAD DUP2 PUSH20 0xFFFFFFFFFFFFFFFFFFFFFFFFFFFFFFFFFFFFFFFF MUL NOT AND SWAP1 DUP4 PUSH20 0xFFFFFFFFFFFFFFFFFFFFFFFFFFFFFFFFFFFFFFFF AND MUL OR SWAP1 SSTORE POP POP POP JUMP JUMPDEST PUSH1 0x1 PUSH1 0x29 SLOAD EQ PUSH2 0x11B2 JUMPI PUSH1 0x40 MLOAD PUSH32 0x8C379A000000000000000000000000000000000000000000000000000000000 DUP2 MSTORE PUSH1 0x4 ADD PUSH2 0x11A9 SWAP1 PUSH2 0x6045 JUMP JUMPDEST PUSH1 0x40 MLOAD DUP1 SWAP2 SUB SWAP1 REVERT JUMPDEST PUSH1 0x0 PUSH1 0x29 DUP2 SWAP1 SSTORE POP PUSH1 0x0 DUP4 LT ISZERO DUP1 ISZERO PUSH2 0x11CC JUMPI POP PUSH1 0x0 DUP3 LT ISZERO JUMPDEST PUSH2 0x11D5 JUMPI PUSH1 0x0 DUP1 REVERT JUMPDEST PUSH2 0x11DD PUSH2 0x38C1 JUMP JUMPDEST PUSH1 0x2B PUSH1 0x0 DUP3 PUSH20 0xFFFFFFFFFFFFFFFFFFFFFFFFFFFFFFFFFFFFFFFF AND PUSH20 0xFFFFFFFFFFFFFFFFFFFFFFFFFFFFFFFFFFFFFFFF AND DUP2 MSTORE PUSH1 0x20 ADD SWAP1 DUP2 MSTORE PUSH1 0x20 ADD PUSH1 0x0 KECCAK256 PUSH1 0x0 DUP1 ISZERO ISZERO ISZERO ISZERO DUP2 MSTORE PUSH1 0x20 ADD SWAP1 DUP2 MSTORE PUSH1 0x20 ADD PUSH1 0x0 KECCAK256 PUSH1 0x2 ADD SLOAD DUP4 GT ISZERO DUP1 ISZERO PUSH2 0x129C JUMPI POP PUSH1 0x2B PUSH1 0x0 DUP3 PUSH20 0xFFFFFFFFFFFFFFFFFFFFFFFFFFFFFFFFFFFFFFFF AND PUSH20 0xFFFFFFFFFFFFFFFFFFFFFFFFFFFFFFFFFFFFFFFF AND DUP2 MSTORE PUSH1 0x20 ADD SWAP1 DUP2 MSTORE PUSH1 0x20 ADD PUSH1 0x0 KECCAK256 PUSH1 0x0 PUSH1 0x1 ISZERO ISZERO ISZERO ISZERO DUP2 MSTORE PUSH1 0x20 ADD SWAP1 DUP2 MSTORE PUSH1 0x20 ADD PUSH1 0x0 KECCAK256 PUSH1 0x2 ADD SLOAD DUP3 GT ISZERO JUMPDEST PUSH2 0x12DB JUMPI PUSH1 0x40 MLOAD PUSH32 0x8C379A000000000000000000000000000000000000000000000000000000000 DUP2 MSTORE PUSH1 0x4 ADD PUSH2 0x12D2 SWAP1 PUSH2 0x6005 JUMP JUMPDEST PUSH1 0x40 MLOAD DUP1 SWAP2 SUB SWAP1 REVERT JUMPDEST PUSH1 0x0 DUP4 GT ISZERO PUSH2 0x1759 JUMPI PUSH1 0x0 PUSH2 0x12EF DUP5 PUSH2 0x3A59 JUMP JUMPDEST SWAP1 POP DUP4 PUSH1 0x2B PUSH1 0x0 DUP5 PUSH20 0xFFFFFFFFFFFFFFFFFFFFFFFFFFFFFFFFFFFFFFFF AND PUSH20 0xFFFFFFFFFFFFFFFFFFFFFFFFFFFFFFFFFFFFFFFF AND DUP2 MSTORE PUSH1 0x20 ADD SWAP1 DUP2 MSTORE PUSH1 0x20 ADD PUSH1 0x0 KECCAK256 PUSH1 0x0 DUP1 ISZERO ISZERO ISZERO ISZERO DUP2 MSTORE PUSH1 0x20 ADD SWAP1 DUP2 MSTORE PUSH1 0x20 ADD PUSH1 0x0 KECCAK256 PUSH1 0x2 ADD PUSH1 0x0 DUP3 DUP3 SLOAD PUSH2 0x1358 SWAP2 SWAP1 PUSH2 0x63C9 JUMP JUMPDEST SWAP3 POP POP DUP2 SWAP1 SSTORE POP PUSH1 0x17 SLOAD PUSH1 0x15 SLOAD PUSH1 0x2B PUSH1 0x0 DUP6 PUSH20 0xFFFFFFFFFFFFFFFFFFFFFFFFFFFFFFFFFFFFFFFF AND PUSH20 0xFFFFFFFFFFFFFFFFFFFFFFFFFFFFFFFFFFFFFFFF AND DUP2 MSTORE PUSH1 0x20 ADD SWAP1 DUP2 MSTORE PUSH1 0x20 ADD PUSH1 0x0 KECCAK256 PUSH1 0x0 PUSH1 0x1 ISZERO ISZERO ISZERO ISZERO DUP2 MSTORE PUSH1 0x20 ADD SWAP1 DUP2 MSTORE PUSH1 0x20 ADD PUSH1 0x0 KECCAK256 PUSH1 0x1 ADD SLOAD PUSH2 0x13C8 SWAP2 SWAP1 PUSH2 0x636F JUMP JUMPDEST PUSH2 0x13D2 SWAP2 SWAP1 PUSH2 0x61CD JUMP JUMPDEST DUP2 GT ISZERO PUSH2 0x1686 JUMPI PUSH2 0x145F PUSH1 0x17 SLOAD PUSH1 0x15 SLOAD PUSH1 0x2B PUSH1 0x0 DUP7 PUSH20 0xFFFFFFFFFFFFFFFFFFFFFFFFFFFFFFFFFFFFFFFF AND PUSH20 0xFFFFFFFFFFFFFFFFFFFFFFFFFFFFFFFFFFFFFFFF AND DUP2 MSTORE PUSH1 0x20 ADD SWAP1 DUP2 MSTORE PUSH1 0x20 ADD PUSH1 0x0 KECCAK256 PUSH1 0x0 PUSH1 0x1 ISZERO ISZERO ISZERO ISZERO DUP2 MSTORE PUSH1 0x20 ADD SWAP1 DUP2 MSTORE PUSH1 0x20 ADD PUSH1 0x0 KECCAK256 PUSH1 0x1 ADD SLOAD PUSH2 0x1445 SWAP2 SWAP1 PUSH2 0x636F JUMP JUMPDEST PUSH2 0x144F SWAP2 SWAP1 PUSH2 0x61CD JUMP JUMPDEST DUP3 PUSH2 0x145A SWAP2 SWAP1 PUSH2 0x63C9 JUMP JUMPDEST PUSH2 0x3DF8 JUMP JUMPDEST PUSH1 0x2C PUSH1 0x0 DUP5 PUSH20 0xFFFFFFFFFFFFFFFFFFFFFFFFFFFFFFFFFFFFFFFF AND PUSH20 0xFFFFFFFFFFFFFFFFFFFFFFFFFFFFFFFFFFFFFFFF AND DUP2 MSTORE PUSH1 0x20 ADD SWAP1 DUP2 MSTORE PUSH1 0x20 ADD PUSH1 0x0 KECCAK256 PUSH1 0x2D PUSH1 0x0 PUSH1 0x23 PUSH1 0x0 SWAP1 SLOAD SWAP1 PUSH2 0x100 EXP SWAP1 DIV PUSH20 0xFFFFFFFFFFFFFFFFFFFFFFFFFFFFFFFFFFFFFFFF AND PUSH20 0xFFFFFFFFFFFFFFFFFFFFFFFFFFFFFFFFFFFFFFFF AND PUSH20 0xFFFFFFFFFFFFFFFFFFFFFFFFFFFFFFFFFFFFFFFF AND DUP2 MSTORE PUSH1 0x20 ADD SWAP1 DUP2 MSTORE PUSH1 0x20 ADD PUSH1 0x0 KECCAK256 SLOAD DUP2 SLOAD DUP2 LT PUSH2 0x1511 JUMPI PUSH2 0x1510 PUSH2 0x652C JUMP JUMPDEST JUMPDEST SWAP1 PUSH1 0x0 MSTORE PUSH1 0x20 PUSH1 0x0 KECCAK256 ADD PUSH1 0x0 DUP3 DUP3 SLOAD PUSH2 0x152A SWAP2 SWAP1 PUSH2 0x6177 JUMP JUMPDEST SWAP3 POP POP DUP2 SWAP1 SSTORE POP PUSH1 0x17 SLOAD PUSH1 0x15 SLOAD PUSH1 0x2B PUSH1 0x0 DUP6 PUSH20 0xFFFFFFFFFFFFFFFFFFFFFFFFFFFFFFFFFFFFFFFF AND PUSH20 0xFFFFFFFFFFFFFFFFFFFFFFFFFFFFFFFFFFFFFFFF AND DUP2 MSTORE PUSH1 0x20 ADD SWAP1 DUP2 MSTORE PUSH1 0x20 ADD PUSH1 0x0 KECCAK256 PUSH1 0x0 PUSH1 0x1 ISZERO ISZERO ISZERO ISZERO DUP2 MSTORE PUSH1 0x20 ADD SWAP1 DUP2 MSTORE PUSH1 0x20 ADD PUSH1 0x0 KECCAK256 PUSH1 0x1 ADD SLOAD PUSH2 0x159A SWAP2 SWAP1 PUSH2 0x636F JUMP JUMPDEST PUSH2 0x15A4 SWAP2 SWAP1 PUSH2 0x61CD JUMP JUMPDEST PUSH1 0x15 SLOAD PUSH2 0x15B1 SWAP2 SWAP1 PUSH2 0x63C9 JUMP JUMPDEST PUSH1 0x15 DUP2 SWAP1 SSTORE POP PUSH1 0x2B PUSH1 0x0 DUP4 PUSH20 0xFFFFFFFFFFFFFFFFFFFFFFFFFFFFFFFFFFFFFFFF AND PUSH20 0xFFFFFFFFFFFFFFFFFFFFFFFFFFFFFFFFFFFFFFFF AND DUP2 MSTORE PUSH1 0x20 ADD SWAP1 DUP2 MSTORE PUSH1 0x20 ADD PUSH1 0x0 KECCAK256 PUSH1 0x0 PUSH1 0x1 ISZERO ISZERO ISZERO ISZERO DUP2 MSTORE PUSH1 0x20 ADD SWAP1 DUP2 MSTORE PUSH1 0x20 ADD PUSH1 0x0 KECCAK256 PUSH1 0x1 ADD SLOAD PUSH1 0x17 SLOAD PUSH2 0x161D SWAP2 SWAP1 PUSH2 0x63C9 JUMP JUMPDEST PUSH1 0x17 DUP2 SWAP1 SSTORE POP PUSH1 0x0 PUSH1 0x2B PUSH1 0x0 DUP5 PUSH20 0xFFFFFFFFFFFFFFFFFFFFFFFFFFFFFFFFFFFFFFFF AND PUSH20 0xFFFFFFFFFFFFFFFFFFFFFFFFFFFFFFFFFFFFFFFF AND DUP2 MSTORE PUSH1 0x20 ADD SWAP1 DUP2 MSTORE PUSH1 0x20 ADD PUSH1 0x0 KECCAK256 PUSH1 0x0 PUSH1 0x1 ISZERO ISZERO ISZERO ISZERO DUP2 MSTORE PUSH1 0x20 ADD SWAP1 DUP2 MSTORE PUSH1 0x20 ADD PUSH1 0x0 KECCAK256 PUSH1 0x1 ADD DUP2 SWAP1 SSTORE POP PUSH2 0x1757 JUMP JUMPDEST PUSH1 0x15 SLOAD PUSH1 0x17 SLOAD DUP3 PUSH2 0x1697 SWAP2 SWAP1 PUSH2 0x636F JUMP JUMPDEST PUSH2 0x16A1 SWAP2 SWAP1 PUSH2 0x61CD JUMP JUMPDEST PUSH1 0x2B PUSH1 0x0 DUP5 PUSH20 0xFFFFFFFFFFFFFFFFFFFFFFFFFFFFFFFFFFFFFFFF AND PUSH20 0xFFFFFFFFFFFFFFFFFFFFFFFFFFFFFFFFFFFFFFFF AND DUP2 MSTORE PUSH1 0x20 ADD SWAP1 DUP2 MSTORE PUSH1 0x20 ADD PUSH1 0x0 KECCAK256 PUSH1 0x0 PUSH1 0x1 ISZERO ISZERO ISZERO ISZERO DUP2 MSTORE PUSH1 0x20 ADD SWAP1 DUP2 MSTORE PUSH1 0x20 ADD PUSH1 0x0 KECCAK256 PUSH1 0x1 ADD PUSH1 0x0 DUP3 DUP3 SLOAD PUSH2 0x1708 SWAP2 SWAP1 PUSH2 0x63C9 JUMP JUMPDEST SWAP3 POP POP DUP2 SWAP1 SSTORE POP PUSH1 0x15 SLOAD PUSH1 0x17 SLOAD DUP3 PUSH2 0x1720 SWAP2 SWAP1 PUSH2 0x636F JUMP JUMPDEST PUSH2 0x172A SWAP2 SWAP1 PUSH2 0x61CD JUMP JUMPDEST PUSH1 0x17 SLOAD PUSH2 0x1737 SWAP2 SWAP1 PUSH2 0x63C9 JUMP JUMPDEST PUSH1 0x17 DUP2 SWAP1 SSTORE POP DUP1 PUSH1 0x15 PUSH1 0x0 DUP3 DUP3 SLOAD PUSH2 0x174F SWAP2 SWAP1 PUSH2 0x63C9 JUMP JUMPDEST SWAP3 POP POP DUP2 SWAP1 SSTORE POP JUMPDEST POP JUMPDEST PUSH1 0x0 DUP3 GT ISZERO PUSH2 0x1BCA JUMPI PUSH1 0x0 PUSH2 0x176D DUP4 PUSH2 0x41F6 JUMP JUMPDEST SWAP1 POP DUP3 PUSH1 0x2B PUSH1 0x0 DUP5 PUSH20 0xFFFFFFFFFFFFFFFFFFFFFFFFFFFFFFFFFFFFFFFF AND PUSH20 0xFFFFFFFFFFFFFFFFFFFFFFFFFFFFFFFFFFFFFFFF AND DUP2 MSTORE PUSH1 0x20 ADD SWAP1 DUP2 MSTORE PUSH1 0x20 ADD PUSH1 0x0 KECCAK256 PUSH1 0x0 PUSH1 0x1 ISZERO ISZERO ISZERO ISZERO DUP2 MSTORE PUSH1 0x20 ADD SWAP1 DUP2 MSTORE PUSH1 0x20 ADD PUSH1 0x0 KECCAK256 PUSH1 0x2 ADD PUSH1 0x0 DUP3 DUP3 SLOAD PUSH2 0x17D7 SWAP2 SWAP1 PUSH2 0x63C9 JUMP JUMPDEST SWAP3 POP POP DUP2 SWAP1 SSTORE POP PUSH1 0x16 SLOAD PUSH1 0x14 SLOAD PUSH1 0x2B PUSH1 0x0 DUP6 PUSH20 0xFFFFFFFFFFFFFFFFFFFFFFFFFFFFFFFFFFFFFFFF AND PUSH20 0xFFFFFFFFFFFFFFFFFFFFFFFFFFFFFFFFFFFFFFFF AND DUP2 MSTORE PUSH1 0x20 ADD SWAP1 DUP2 MSTORE PUSH1 0x20 ADD PUSH1 0x0 KECCAK256 PUSH1 0x0 DUP1 ISZERO ISZERO ISZERO ISZERO DUP2 MSTORE PUSH1 0x20 ADD SWAP1 DUP2 MSTORE PUSH1 0x20 ADD PUSH1 0x0 KECCAK256 PUSH1 0x1 ADD SLOAD PUSH2 0x1846 SWAP2 SWAP1 PUSH2 0x636F JUMP JUMPDEST PUSH2 0x1850 SWAP2 SWAP1 PUSH2 0x61CD JUMP JUMPDEST DUP2 GT ISZERO PUSH2 0x1AF8 JUMPI PUSH1 0x16 SLOAD PUSH1 0x14 SLOAD PUSH1 0x2B PUSH1 0x0 DUP6 PUSH20 0xFFFFFFFFFFFFFFFFFFFFFFFFFFFFFFFFFFFFFFFF AND PUSH20 0xFFFFFFFFFFFFFFFFFFFFFFFFFFFFFFFFFFFFFFFF AND DUP2 MSTORE PUSH1 0x20 ADD SWAP1 DUP2 MSTORE PUSH1 0x20 ADD PUSH1 0x0 KECCAK256 PUSH1 0x0 DUP1 ISZERO ISZERO ISZERO ISZERO DUP2 MSTORE PUSH1 0x20 ADD SWAP1 DUP2 MSTORE PUSH1 0x20 ADD PUSH1 0x0 KECCAK256 PUSH1 0x1 ADD SLOAD PUSH2 0x18BF SWAP2 SWAP1 PUSH2 0x636F JUMP JUMPDEST PUSH2 0x18C9 SWAP2 SWAP1 PUSH2 0x61CD JUMP JUMPDEST DUP2 PUSH2 0x18D4 SWAP2 SWAP1 PUSH2 0x63C9 JUMP JUMPDEST PUSH1 0x2C PUSH1 0x0 DUP5 PUSH20 0xFFFFFFFFFFFFFFFFFFFFFFFFFFFFFFFFFFFFFFFF AND PUSH20 0xFFFFFFFFFFFFFFFFFFFFFFFFFFFFFFFFFFFFFFFF AND DUP2 MSTORE PUSH1 0x20 ADD SWAP1 DUP2 MSTORE PUSH1 0x20 ADD PUSH1 0x0 KECCAK256 PUSH1 0x2D PUSH1 0x0 PUSH1 0x23 PUSH1 0x0 SWAP1 SLOAD SWAP1 PUSH2 0x100 EXP SWAP1 DIV PUSH20 0xFFFFFFFFFFFFFFFFFFFFFFFFFFFFFFFFFFFFFFFF AND PUSH20 0xFFFFFFFFFFFFFFFFFFFFFFFFFFFFFFFFFFFFFFFF AND PUSH20 0xFFFFFFFFFFFFFFFFFFFFFFFFFFFFFFFFFFFFFFFF AND DUP2 MSTORE PUSH1 0x20 ADD SWAP1 DUP2 MSTORE PUSH1 0x20 ADD PUSH1 0x0 KECCAK256 SLOAD DUP2 SLOAD DUP2 LT PUSH2 0x1986 JUMPI PUSH2 0x1985 PUSH2 0x652C JUMP JUMPDEST JUMPDEST SWAP1 PUSH1 0x0 MSTORE PUSH1 0x20 PUSH1 0x0 KECCAK256 ADD PUSH1 0x0 DUP3 DUP3 SLOAD PUSH2 0x199F SWAP2 SWAP1 PUSH2 0x6177 JUMP JUMPDEST SWAP3 POP POP DUP2 SWAP1 SSTORE POP PUSH1 0x16 SLOAD PUSH1 0x14 SLOAD PUSH1 0x2B PUSH1 0x0 DUP6 PUSH20 0xFFFFFFFFFFFFFFFFFFFFFFFFFFFFFFFFFFFFFFFF AND PUSH20 0xFFFFFFFFFFFFFFFFFFFFFFFFFFFFFFFFFFFFFFFF AND DUP2 MSTORE PUSH1 0x20 ADD SWAP1 DUP2 MSTORE PUSH1 0x20 ADD PUSH1 0x0 KECCAK256 PUSH1 0x0 DUP1 ISZERO ISZERO ISZERO ISZERO DUP2 MSTORE PUSH1 0x20 ADD SWAP1 DUP2 MSTORE PUSH1 0x20 ADD PUSH1 0x0 KECCAK256 PUSH1 0x1 ADD SLOAD PUSH2 0x1A0E SWAP2 SWAP1 PUSH2 0x636F JUMP JUMPDEST PUSH2 0x1A18 SWAP2 SWAP1 PUSH2 0x61CD JUMP JUMPDEST PUSH1 0x14 SLOAD PUSH2 0x1A25 SWAP2 SWAP1 PUSH2 0x63C9 JUMP JUMPDEST PUSH1 0x14 DUP2 SWAP1 SSTORE POP PUSH1 0x2B PUSH1 0x0 DUP4 PUSH20 0xFFFFFFFFFFFFFFFFFFFFFFFFFFFFFFFFFFFFFFFF AND PUSH20 0xFFFFFFFFFFFFFFFFFFFFFFFFFFFFFFFFFFFFFFFF AND DUP2 MSTORE PUSH1 0x20 ADD SWAP1 DUP2 MSTORE PUSH1 0x20 ADD PUSH1 0x0 KECCAK256 PUSH1 0x0 DUP1 ISZERO ISZERO ISZERO ISZERO DUP2 MSTORE PUSH1 0x20 ADD SWAP1 DUP2 MSTORE PUSH1 0x20 ADD PUSH1 0x0 KECCAK256 PUSH1 0x1 ADD SLOAD PUSH1 0x16 SLOAD PUSH2 0x1A90 SWAP2 SWAP1 PUSH2 0x63C9 JUMP JUMPDEST PUSH1 0x16 DUP2 SWAP1 SSTORE POP PUSH1 0x0 PUSH1 0x2B PUSH1 0x0 DUP5 PUSH20 0xFFFFFFFFFFFFFFFFFFFFFFFFFFFFFFFFFFFFFFFF AND PUSH20 0xFFFFFFFFFFFFFFFFFFFFFFFFFFFFFFFFFFFFFFFF AND DUP2 MSTORE PUSH1 0x20 ADD SWAP1 DUP2 MSTORE PUSH1 0x20 ADD PUSH1 0x0 KECCAK256 PUSH1 0x0 DUP1 ISZERO ISZERO ISZERO ISZERO DUP2 MSTORE PUSH1 0x20 ADD SWAP1 DUP2 MSTORE PUSH1 0x20 ADD PUSH1 0x0 KECCAK256 PUSH1 0x1 ADD DUP2 SWAP1 SSTORE POP PUSH2 0x1BC8 JUMP JUMPDEST PUSH1 0x14 SLOAD PUSH1 0x16 SLOAD DUP3 PUSH2 0x1B09 SWAP2 SWAP1 PUSH2 0x636F JUMP JUMPDEST PUSH2 0x1B13 SWAP2 SWAP1 PUSH2 0x61CD JUMP JUMPDEST PUSH1 0x2B PUSH1 0x0 DUP5 PUSH20 0xFFFFFFFFFFFFFFFFFFFFFFFFFFFFFFFFFFFFFFFF AND PUSH20 0xFFFFFFFFFFFFFFFFFFFFFFFFFFFFFFFFFFFFFFFF AND DUP2 MSTORE PUSH1 0x20 ADD SWAP1 DUP2 MSTORE PUSH1 0x20 ADD PUSH1 0x0 KECCAK256 PUSH1 0x0 DUP1 ISZERO ISZERO ISZERO ISZERO DUP2 MSTORE PUSH1 0x20 ADD SWAP1 DUP2 MSTORE PUSH1 0x20 ADD PUSH1 0x0 KECCAK256 PUSH1 0x1 ADD PUSH1 0x0 DUP3 DUP3 SLOAD PUSH2 0x1B79 SWAP2 SWAP1 PUSH2 0x63C9 JUMP JUMPDEST SWAP3 POP POP DUP2 SWAP1 SSTORE POP PUSH1 0x14 SLOAD PUSH1 0x16 SLOAD DUP3 PUSH2 0x1B91 SWAP2 SWAP1 PUSH2 0x636F JUMP JUMPDEST PUSH2 0x1B9B SWAP2 SWAP1 PUSH2 0x61CD JUMP JUMPDEST PUSH1 0x16 SLOAD PUSH2 0x1BA8 SWAP2 SWAP1 PUSH2 0x63C9 JUMP JUMPDEST PUSH1 0x16 DUP2 SWAP1 SSTORE POP DUP1 PUSH1 0x14 PUSH1 0x0 DUP3 DUP3 SLOAD PUSH2 0x1BC0 SWAP2 SWAP1 PUSH2 0x63C9 JUMP JUMPDEST SWAP3 POP POP DUP2 SWAP1 SSTORE POP JUMPDEST POP JUMPDEST PUSH1 0x1 PUSH1 0x29 DUP2 SWAP1 SSTORE POP POP POP POP JUMP JUMPDEST PUSH1 0x0 PUSH8 0xDE0B6B3A7640000 PUSH2 0x1C0D PUSH1 0x23 PUSH1 0x0 SWAP1 SLOAD SWAP1 PUSH2 0x100 EXP SWAP1 DIV PUSH20 0xFFFFFFFFFFFFFFFFFFFFFFFFFFFFFFFFFFFFFFFF AND PUSH2 0x3054 JUMP JUMPDEST PUSH1 0x16 SLOAD PUSH1 0x14 SLOAD PUSH1 0x2B PUSH1 0x0 DUP8 PUSH20 0xFFFFFFFFFFFFFFFFFFFFFFFFFFFFFFFFFFFFFFFF AND PUSH20 0xFFFFFFFFFFFFFFFFFFFFFFFFFFFFFFFFFFFFFFFF AND DUP2 MSTORE PUSH1 0x20 ADD SWAP1 DUP2 MSTORE PUSH1 0x20 ADD PUSH1 0x0 KECCAK256 PUSH1 0x0 DUP1 ISZERO ISZERO ISZERO ISZERO DUP2 MSTORE PUSH1 0x20 ADD SWAP1 DUP2 MSTORE PUSH1 0x20 ADD PUSH1 0x0 KECCAK256 PUSH1 0x1 ADD SLOAD PUSH2 0x1C75 SWAP2 SWAP1 PUSH2 0x636F JUMP JUMPDEST PUSH2 0x1C7F SWAP2 SWAP1 PUSH2 0x61CD JUMP JUMPDEST PUSH2 0x1C89 SWAP2 SWAP1 PUSH2 0x636F JUMP JUMPDEST PUSH2 0x1C93 SWAP2 SWAP1 PUSH2 0x61CD JUMP JUMPDEST PUSH8 0xDE0B6B3A7640000 PUSH2 0x1CC7 PUSH1 0x24 PUSH1 0x0 SWAP1 SLOAD SWAP1 PUSH2 0x100 EXP SWAP1 DIV PUSH20 0xFFFFFFFFFFFFFFFFFFFFFFFFFFFFFFFFFFFFFFFF AND PUSH2 0x3054 JUMP JUMPDEST PUSH1 0x17 SLOAD PUSH1 0x15 SLOAD PUSH1 0x2B PUSH1 0x0 DUP9 PUSH20 0xFFFFFFFFFFFFFFFFFFFFFFFFFFFFFFFFFFFFFFFF AND PUSH20 0xFFFFFFFFFFFFFFFFFFFFFFFFFFFFFFFFFFFFFFFF AND DUP2 MSTORE PUSH1 0x20 ADD SWAP1 DUP2 MSTORE PUSH1 0x20 ADD PUSH1 0x0 KECCAK256 PUSH1 0x0 PUSH1 0x1 ISZERO ISZERO ISZERO ISZERO DUP2 MSTORE PUSH1 0x20 ADD SWAP1 DUP2 MSTORE PUSH1 0x20 ADD PUSH1 0x0 KECCAK256 PUSH1 0x1 ADD SLOAD PUSH2 0x1D30 SWAP2 SWAP1 PUSH2 0x636F JUMP JUMPDEST PUSH2 0x1D3A SWAP2 SWAP1 PUSH2 0x61CD JUMP JUMPDEST PUSH2 0x1D44 SWAP2 SWAP1 PUSH2 0x636F JUMP JUMPDEST PUSH2 0x1D4E SWAP2 SWAP1 PUSH2 0x61CD JUMP JUMPDEST PUSH2 0x1D58 SWAP2 SWAP1 PUSH2 0x6177 JUMP JUMPDEST SWAP1 POP SWAP2 SWAP1 POP JUMP JUMPDEST PUSH1 0xF SLOAD DUP2 JUMP JUMPDEST PUSH1 0x1A SLOAD DUP2 JUMP JUMPDEST PUSH1 0x11 SLOAD DUP2 JUMP JUMPDEST PUSH1 0x1E SLOAD DUP2 JUMP JUMPDEST PUSH1 0x1 PUSH1 0x29 SLOAD EQ PUSH2 0x1DBC JUMPI PUSH1 0x40 MLOAD PUSH32 0x8C379A000000000000000000000000000000000000000000000000000000000 DUP2 MSTORE PUSH1 0x4 ADD PUSH2 0x1DB3 SWAP1 PUSH2 0x6045 JUMP JUMPDEST PUSH1 0x40 MLOAD DUP1 SWAP2 SUB SWAP1 REVERT JUMPDEST PUSH1 0x0 PUSH1 0x29 DUP2 SWAP1 SSTORE POP PUSH1 0x0 DUP4 LT ISZERO DUP1 ISZERO PUSH2 0x1DD6 JUMPI POP PUSH1 0x0 DUP3 LT ISZERO JUMPDEST PUSH2 0x1DDF JUMPI PUSH1 0x0 DUP1 REVERT JUMPDEST PUSH2 0x1DE7 PUSH2 0x38C1 JUMP JUMPDEST PUSH2 0x1E81 PUSH2 0x1DF3 DUP3 PUSH2 0x294A JUMP JUMPDEST PUSH2 0x1E1E PUSH1 0x23 PUSH1 0x0 SWAP1 SLOAD SWAP1 PUSH2 0x100 EXP SWAP1 DIV PUSH20 0xFFFFFFFFFFFFFFFFFFFFFFFFFFFFFFFFFFFFFFFF AND PUSH2 0x3054 JUMP JUMPDEST DUP6 PUSH2 0x1E29 SWAP2 SWAP1 PUSH2 0x636F JUMP JUMPDEST PUSH2 0x1E33 SWAP2 SWAP1 PUSH2 0x6177 JUMP JUMPDEST PUSH2 0x1E3C DUP4 PUSH2 0x294A JUMP JUMPDEST PUSH2 0x1E67 PUSH1 0x24 PUSH1 0x0 SWAP1 SLOAD SWAP1 PUSH2 0x100 EXP SWAP1 DIV PUSH20 0xFFFFFFFFFFFFFFFFFFFFFFFFFFFFFFFFFFFFFFFF AND PUSH2 0x3054 JUMP JUMPDEST DUP6 PUSH2 0x1E72 SWAP2 SWAP1 PUSH2 0x636F JUMP JUMPDEST PUSH2 0x1E7C SWAP2 SWAP1 PUSH2 0x6177 JUMP JUMPDEST PUSH2 0x4582 JUMP JUMPDEST PUSH1 0x25 SLOAD PUSH2 0x1E8D DUP4 PUSH2 0xD59 JUMP JUMPDEST PUSH2 0x1E97 SWAP2 SWAP1 PUSH2 0x636F JUMP JUMPDEST GT PUSH2 0x1ED7 JUMPI PUSH1 0x40 MLOAD PUSH32 0x8C379A000000000000000000000000000000000000000000000000000000000 DUP2 MSTORE PUSH1 0x4 ADD PUSH2 0x1ECE SWAP1 PUSH2 0x5FE5 JUMP JUMPDEST PUSH1 0x40 MLOAD DUP1 SWAP2 SUB SWAP1 REVERT JUMPDEST PUSH1 0x0 DUP1 DUP5 GT ISZERO PUSH2 0x2026 JUMPI PUSH2 0x1EEA DUP5 PUSH2 0x3A59 JUMP JUMPDEST SWAP1 POP PUSH1 0x14 SLOAD PUSH1 0x16 SLOAD DUP6 PUSH2 0x1EFD SWAP2 SWAP1 PUSH2 0x636F JUMP JUMPDEST PUSH2 0x1F07 SWAP2 SWAP1 PUSH2 0x61CD JUMP JUMPDEST PUSH1 0x2B PUSH1 0x0 DUP5 PUSH20 0xFFFFFFFFFFFFFFFFFFFFFFFFFFFFFFFFFFFFFFFF AND PUSH20 0xFFFFFFFFFFFFFFFFFFFFFFFFFFFFFFFFFFFFFFFF AND DUP2 MSTORE PUSH1 0x20 ADD SWAP1 DUP2 MSTORE PUSH1 0x20 ADD PUSH1 0x0 KECCAK256 PUSH1 0x0 DUP1 ISZERO ISZERO ISZERO ISZERO DUP2 MSTORE PUSH1 0x20 ADD SWAP1 DUP2 MSTORE PUSH1 0x20 ADD PUSH1 0x0 KECCAK256 PUSH1 0x1 ADD PUSH1 0x0 DUP3 DUP3 SLOAD PUSH2 0x1F6D SWAP2 SWAP1 PUSH2 0x6177 JUMP JUMPDEST SWAP3 POP POP DUP2 SWAP1 SSTORE POP DUP1 PUSH1 0x2B PUSH1 0x0 DUP5 PUSH20 0xFFFFFFFFFFFFFFFFFFFFFFFFFFFFFFFFFFFFFFFF AND PUSH20 0xFFFFFFFFFFFFFFFFFFFFFFFFFFFFFFFFFFFFFFFF AND DUP2 MSTORE PUSH1 0x20 ADD SWAP1 DUP2 MSTORE PUSH1 0x20 ADD PUSH1 0x0 KECCAK256 PUSH1 0x0 PUSH1 0x1 ISZERO ISZERO ISZERO ISZERO DUP2 MSTORE PUSH1 0x20 ADD SWAP1 DUP2 MSTORE PUSH1 0x20 ADD PUSH1 0x0 KECCAK256 PUSH1 0x2 ADD PUSH1 0x0 DUP3 DUP3 SLOAD PUSH2 0x1FDC SWAP2 SWAP1 PUSH2 0x6177 JUMP JUMPDEST SWAP3 POP POP DUP2 SWAP1 SSTORE POP PUSH1 0x16 SLOAD PUSH1 0x14 SLOAD PUSH1 0x16 SLOAD DUP7 PUSH2 0x1FF7 SWAP2 SWAP1 PUSH2 0x636F JUMP JUMPDEST PUSH2 0x2001 SWAP2 SWAP1 PUSH2 0x61CD JUMP JUMPDEST PUSH2 0x200B SWAP2 SWAP1 PUSH2 0x6177 JUMP JUMPDEST PUSH1 0x16 DUP2 SWAP1 SSTORE POP DUP4 PUSH1 0x14 SLOAD PUSH2 0x201F SWAP2 SWAP1 PUSH2 0x6177 JUMP JUMPDEST PUSH1 0x14 DUP2 SWAP1 SSTORE POP JUMPDEST PUSH1 0x0 DUP4 GT ISZERO PUSH2 0x2179 JUMPI PUSH2 0x2038 DUP4 PUSH2 0x41F6 JUMP JUMPDEST SWAP1 POP PUSH1 0x15 SLOAD PUSH1 0x17 SLOAD DUP5 PUSH2 0x204B SWAP2 SWAP1 PUSH2 0x636F JUMP JUMPDEST PUSH2 0x2055 SWAP2 SWAP1 PUSH2 0x61CD JUMP JUMPDEST PUSH1 0x2B PUSH1 0x0 DUP5 PUSH20 0xFFFFFFFFFFFFFFFFFFFFFFFFFFFFFFFFFFFFFFFF AND PUSH20 0xFFFFFFFFFFFFFFFFFFFFFFFFFFFFFFFFFFFFFFFF AND DUP2 MSTORE PUSH1 0x20 ADD SWAP1 DUP2 MSTORE PUSH1 0x20 ADD PUSH1 0x0 KECCAK256 PUSH1 0x0 PUSH1 0x1 ISZERO ISZERO ISZERO ISZERO DUP2 MSTORE PUSH1 0x20 ADD SWAP1 DUP2 MSTORE PUSH1 0x20 ADD PUSH1 0x0 KECCAK256 PUSH1 0x1 ADD PUSH1 0x0 DUP3 DUP3 SLOAD PUSH2 0x20BC SWAP2 SWAP1 PUSH2 0x6177 JUMP JUMPDEST SWAP3 POP POP DUP2 SWAP1 SSTORE POP DUP1 PUSH1 0x2B PUSH1 0x0 DUP5 PUSH20 0xFFFFFFFFFFFFFFFFFFFFFFFFFFFFFFFFFFFFFFFF AND PUSH20 0xFFFFFFFFFFFFFFFFFFFFFFFFFFFFFFFFFFFFFFFF AND DUP2 MSTORE PUSH1 0x20 ADD SWAP1 DUP2 MSTORE PUSH1 0x20 ADD PUSH1 0x0 KECCAK256 PUSH1 0x0 DUP1 ISZERO ISZERO ISZERO ISZERO DUP2 MSTORE PUSH1 0x20 ADD SWAP1 DUP2 MSTORE PUSH1 0x20 ADD PUSH1 0x0 KECCAK256 PUSH1 0x2 ADD PUSH1 0x0 DUP3 DUP3 SLOAD PUSH2 0x212A SWAP2 SWAP1 PUSH2 0x6177 JUMP JUMPDEST SWAP3 POP POP DUP2 SWAP1 SSTORE POP PUSH1 0x17 SLOAD PUSH1 0x15 SLOAD PUSH1 0x17 SLOAD DUP6 PUSH2 0x2145 SWAP2 SWAP1 PUSH2 0x636F JUMP JUMPDEST PUSH2 0x214F SWAP2 SWAP1 PUSH2 0x61CD JUMP JUMPDEST PUSH2 0x2159 SWAP2 SWAP1 PUSH2 0x6177 JUMP JUMPDEST PUSH1 0x17 DUP2 SWAP1 SSTORE POP DUP3 PUSH1 0x15 PUSH1 0x0 DUP3 DUP3 SLOAD PUSH2 0x2171 SWAP2 SWAP1 PUSH2 0x6177 JUMP JUMPDEST SWAP3 POP POP DUP2 SWAP1 SSTORE POP JUMPDEST POP PUSH1 0x1 PUSH1 0x29 DUP2 SWAP1 SSTORE POP POP POP POP JUMP JUMPDEST PUSH1 0x2D PUSH1 0x20 MSTORE DUP1 PUSH1 0x0 MSTORE PUSH1 0x40 PUSH1 0x0 KECCAK256 PUSH1 0x0 SWAP2 POP SWAP1 POP SLOAD DUP2 JUMP JUMPDEST PUSH1 0x16 SLOAD DUP2 JUMP JUMPDEST PUSH1 0xD SLOAD DUP2 JUMP JUMPDEST PUSH1 0x2B PUSH1 0x20 MSTORE DUP2 PUSH1 0x0 MSTORE PUSH1 0x40 PUSH1 0x0 KECCAK256 PUSH1 0x20 MSTORE DUP1 PUSH1 0x0 MSTORE PUSH1 0x40 PUSH1 0x0 KECCAK256 PUSH1 0x0 SWAP2 POP SWAP2 POP POP DUP1 PUSH1 0x0 ADD PUSH1 0x0 SWAP1 SLOAD SWAP1 PUSH2 0x100 EXP SWAP1 DIV PUSH20 0xFFFFFFFFFFFFFFFFFFFFFFFFFFFFFFFFFFFFFFFF AND SWAP1 DUP1 PUSH1 0x0 ADD PUSH1 0x14 SWAP1 SLOAD SWAP1 PUSH2 0x100 EXP SWAP1 DIV PUSH1 0xFF AND SWAP1 DUP1 PUSH1 0x1 ADD SLOAD SWAP1 DUP1 PUSH1 0x2 ADD SLOAD SWAP1 POP DUP5 JUMP JUMPDEST PUSH1 0x1D SLOAD DUP2 JUMP JUMPDEST PUSH1 0x5 SLOAD DUP2 JUMP JUMPDEST PUSH1 0x1 SLOAD DUP2 JUMP JUMPDEST PUSH1 0x6 SLOAD DUP2 JUMP JUMPDEST PUSH1 0x27 SLOAD DUP2 JUMP JUMPDEST PUSH1 0x4 SLOAD DUP2 JUMP JUMPDEST PUSH1 0x0 PUSH1 0x9 SLOAD PUSH1 0x8 SLOAD PUSH1 0x12 SLOAD PUSH2 0x224E SWAP2 SWAP1 PUSH2 0x636F JUMP JUMPDEST PUSH2 0x2258 SWAP2 SWAP1 PUSH2 0x61CD JUMP JUMPDEST SWAP1 POP SWAP1 JUMP JUMPDEST PUSH1 0x25 SLOAD DUP2 JUMP JUMPDEST PUSH1 0x1 PUSH1 0x29 SLOAD EQ PUSH2 0x22A8 JUMPI PUSH1 0x40 MLOAD PUSH32 0x8C379A000000000000000000000000000000000000000000000000000000000 DUP2 MSTORE PUSH1 0x4 ADD PUSH2 0x229F SWAP1 PUSH2 0x6045 JUMP JUMPDEST PUSH1 0x40 MLOAD DUP1 SWAP2 SUB SWAP1 REVERT JUMPDEST PUSH1 0x0 PUSH1 0x29 DUP2 SWAP1 SSTORE POP PUSH1 0x0 DUP1 PUSH1 0x0 PUSH1 0x23 PUSH1 0x0 SWAP1 SLOAD SWAP1 PUSH2 0x100 EXP SWAP1 DIV PUSH20 0xFFFFFFFFFFFFFFFFFFFFFFFFFFFFFFFFFFFFFFFF AND SWAP1 POP PUSH1 0x0 PUSH1 0x24 PUSH1 0x0 SWAP1 SLOAD SWAP1 PUSH2 0x100 EXP SWAP1 DIV PUSH20 0xFFFFFFFFFFFFFFFFFFFFFFFFFFFFFFFFFFFFFFFF AND SWAP1 POP PUSH1 0x0 DUP7 EQ DUP1 PUSH2 0x2310 JUMPI POP PUSH1 0x0 DUP6 EQ JUMPDEST PUSH2 0x234F JUMPI PUSH1 0x40 MLOAD PUSH32 0x8C379A000000000000000000000000000000000000000000000000000000000 DUP2 MSTORE PUSH1 0x4 ADD PUSH2 0x2346 SWAP1 PUSH2 0x5FA5 JUMP JUMPDEST PUSH1 0x40 MLOAD DUP1 SWAP2 SUB SWAP1 REVERT JUMPDEST DUP2 PUSH20 0xFFFFFFFFFFFFFFFFFFFFFFFFFFFFFFFFFFFFFFFF AND DUP8 PUSH20 0xFFFFFFFFFFFFFFFFFFFFFFFFFFFFFFFFFFFFFFFF AND EQ ISZERO DUP1 ISZERO PUSH2 0x23B7 JUMPI POP DUP1 PUSH20 0xFFFFFFFFFFFFFFFFFFFFFFFFFFFFFFFFFFFFFFFF AND DUP8 PUSH20 0xFFFFFFFFFFFFFFFFFFFFFFFFFFFFFFFFFFFFFFFF AND EQ ISZERO JUMPDEST PUSH2 0x23F6 JUMPI PUSH1 0x40 MLOAD PUSH32 0x8C379A000000000000000000000000000000000000000000000000000000000 DUP2 MSTORE PUSH1 0x4 ADD PUSH2 0x23ED SWAP1 PUSH2 0x6025 JUMP JUMPDEST PUSH1 0x40 MLOAD DUP1 SWAP2 SUB SWAP1 REVERT JUMPDEST DUP2 PUSH20 0xFFFFFFFFFFFFFFFFFFFFFFFFFFFFFFFFFFFFFFFF AND PUSH4 0x70A08231 ADDRESS PUSH1 0x40 MLOAD DUP3 PUSH4 0xFFFFFFFF AND PUSH1 0xE0 SHL DUP2 MSTORE PUSH1 0x4 ADD PUSH2 0x242F SWAP2 SWAP1 PUSH2 0x5E7F JUMP JUMPDEST PUSH1 0x20 PUSH1 0x40 MLOAD DUP1 DUP4 SUB DUP2 DUP7 DUP1 EXTCODESIZE ISZERO DUP1 ISZERO PUSH2 0x2447 JUMPI PUSH1 0x0 DUP1 REVERT JUMPDEST POP GAS STATICCALL ISZERO DUP1 ISZERO PUSH2 0x245B JUMPI RETURNDATASIZE PUSH1 0x0 DUP1 RETURNDATACOPY RETURNDATASIZE PUSH1 0x0 REVERT JUMPDEST POP POP POP POP PUSH1 0x40 MLOAD RETURNDATASIZE PUSH1 0x1F NOT PUSH1 0x1F DUP3 ADD AND DUP3 ADD DUP1 PUSH1 0x40 MSTORE POP DUP2 ADD SWAP1 PUSH2 0x247F SWAP2 SWAP1 PUSH2 0x5B37 JUMP JUMPDEST SWAP4 POP DUP1 PUSH20 0xFFFFFFFFFFFFFFFFFFFFFFFFFFFFFFFFFFFFFFFF AND PUSH4 0x70A08231 ADDRESS PUSH1 0x40 MLOAD DUP3 PUSH4 0xFFFFFFFF AND PUSH1 0xE0 SHL DUP2 MSTORE PUSH1 0x4 ADD PUSH2 0x24BA SWAP2 SWAP1 PUSH2 0x5E7F JUMP JUMPDEST PUSH1 0x20 PUSH1 0x40 MLOAD DUP1 DUP4 SUB DUP2 DUP7 DUP1 EXTCODESIZE ISZERO DUP1 ISZERO PUSH2 0x24D2 JUMPI PUSH1 0x0 DUP1 REVERT JUMPDEST POP GAS STATICCALL ISZERO DUP1 ISZERO PUSH2 0x24E6 JUMPI RETURNDATASIZE PUSH1 0x0 DUP1 RETURNDATACOPY RETURNDATASIZE PUSH1 0x0 REVERT JUMPDEST POP POP POP POP PUSH1 0x40 MLOAD RETURNDATASIZE PUSH1 0x1F NOT PUSH1 0x1F DUP3 ADD AND DUP3 ADD DUP1 PUSH1 0x40 MSTORE POP DUP2 ADD SWAP1 PUSH2 0x250A SWAP2 SWAP1 PUSH2 0x5B37 JUMP JUMPDEST SWAP3 POP PUSH1 0x0 PUSH1 0xF SLOAD DUP6 PUSH2 0x251C SWAP2 SWAP1 PUSH2 0x63C9 JUMP JUMPDEST SWAP1 POP PUSH1 0x0 PUSH1 0xE SLOAD DUP6 PUSH2 0x252E SWAP2 SWAP1 PUSH2 0x63C9 JUMP JUMPDEST SWAP1 POP PUSH1 0x0 DUP3 GT DUP1 PUSH2 0x253F JUMPI POP PUSH1 0x0 DUP2 GT JUMPDEST PUSH2 0x257E JUMPI PUSH1 0x40 MLOAD PUSH32 0x8C379A000000000000000000000000000000000000000000000000000000000 DUP2 MSTORE PUSH1 0x4 ADD PUSH2 0x2575 SWAP1 PUSH2 0x5F85 JUMP JUMPDEST PUSH1 0x40 MLOAD DUP1 SWAP2 SUB SWAP1 REVERT JUMPDEST PUSH1 0x0 DUP9 GT ISZERO PUSH2 0x25B6 JUMPI PUSH2 0x25A6 DUP4 DUP11 PUSH2 0x2596 DUP12 DUP6 PUSH2 0x459B JUMP JUMPDEST DUP5 PUSH2 0x25A1 SWAP2 SWAP1 PUSH2 0x63C9 JUMP JUMPDEST PUSH2 0x49A6 JUMP JUMPDEST PUSH2 0x25B1 DUP5 DUP11 DUP11 PUSH2 0x49A6 JUMP JUMPDEST PUSH2 0x262A JUMP JUMPDEST PUSH1 0x0 DUP8 GT ISZERO PUSH2 0x25EE JUMPI PUSH2 0x25DE DUP5 DUP11 PUSH2 0x25CE DUP11 DUP7 PUSH2 0x4B30 JUMP JUMPDEST DUP6 PUSH2 0x25D9 SWAP2 SWAP1 PUSH2 0x63C9 JUMP JUMPDEST PUSH2 0x49A6 JUMP JUMPDEST PUSH2 0x25E9 DUP4 DUP11 DUP10 PUSH2 0x49A6 JUMP JUMPDEST PUSH2 0x2629 JUMP JUMPDEST PUSH1 0x0 DUP3 GT ISZERO PUSH2 0x260B JUMPI PUSH2 0x260A DUP4 DUP11 PUSH2 0x2605 DUP6 PUSH2 0x4F3B JUMP JUMPDEST PUSH2 0x49A6 JUMP JUMPDEST JUMPDEST PUSH1 0x0 DUP2 GT ISZERO PUSH2 0x2628 JUMPI PUSH2 0x2627 DUP5 DUP11 PUSH2 0x2622 DUP5 PUSH2 0x3DF8 JUMP JUMPDEST PUSH2 0x49A6 JUMP JUMPDEST JUMPDEST JUMPDEST JUMPDEST POP POP POP POP POP POP PUSH1 0x1 PUSH1 0x29 DUP2 SWAP1 SSTORE POP POP POP POP JUMP JUMPDEST DUP3 PUSH1 0x2C PUSH1 0x0 DUP4 PUSH20 0xFFFFFFFFFFFFFFFFFFFFFFFFFFFFFFFFFFFFFFFF AND PUSH20 0xFFFFFFFFFFFFFFFFFFFFFFFFFFFFFFFFFFFFFFFF AND DUP2 MSTORE PUSH1 0x20 ADD SWAP1 DUP2 MSTORE PUSH1 0x20 ADD PUSH1 0x0 KECCAK256 PUSH1 0x2D PUSH1 0x0 DUP6 PUSH20 0xFFFFFFFFFFFFFFFFFFFFFFFFFFFFFFFFFFFFFFFF AND PUSH20 0xFFFFFFFFFFFFFFFFFFFFFFFFFFFFFFFFFFFFFFFF AND DUP2 MSTORE PUSH1 0x20 ADD SWAP1 DUP2 MSTORE PUSH1 0x20 ADD PUSH1 0x0 KECCAK256 SLOAD DUP2 SLOAD DUP2 LT PUSH2 0x26CE JUMPI PUSH2 0x26CD PUSH2 0x652C JUMP JUMPDEST JUMPDEST SWAP1 PUSH1 0x0 MSTORE PUSH1 0x20 PUSH1 0x0 KECCAK256 ADD PUSH1 0x0 DUP3 DUP3 SLOAD PUSH2 0x26E7 SWAP2 SWAP1 PUSH2 0x6177 JUMP JUMPDEST SWAP3 POP POP DUP2 SWAP1 SSTORE POP POP POP POP JUMP JUMPDEST PUSH1 0xB SLOAD DUP2 JUMP JUMPDEST PUSH1 0x60 PUSH1 0x0 PUSH1 0x2A DUP1 SLOAD SWAP1 POP SWAP1 POP PUSH1 0x0 JUMPDEST DUP2 DUP2 LT ISZERO PUSH2 0x2723 JUMPI DUP1 DUP1 PUSH2 0x271B SWAP1 PUSH2 0x6485 JUMP JUMPDEST SWAP2 POP POP PUSH2 0x2708 JUMP JUMPDEST POP POP SWAP1 JUMP JUMPDEST PUSH1 0x21 SLOAD DUP2 JUMP JUMPDEST PUSH1 0x24 PUSH1 0x0 SWAP1 SLOAD SWAP1 PUSH2 0x100 EXP SWAP1 DIV PUSH20 0xFFFFFFFFFFFFFFFFFFFFFFFFFFFFFFFFFFFFFFFF AND DUP2 JUMP JUMPDEST PUSH1 0x1 PUSH1 0x29 SLOAD EQ PUSH2 0x2799 JUMPI PUSH1 0x40 MLOAD PUSH32 0x8C379A000000000000000000000000000000000000000000000000000000000 DUP2 MSTORE PUSH1 0x4 ADD PUSH2 0x2790 SWAP1 PUSH2 0x6045 JUMP JUMPDEST PUSH1 0x40 MLOAD DUP1 SWAP2 SUB SWAP1 REVERT JUMPDEST PUSH1 0x0 PUSH1 0x29 DUP2 SWAP1 SSTORE POP PUSH1 0x0 PUSH1 0x23 PUSH1 0x0 SWAP1 SLOAD SWAP1 PUSH2 0x100 EXP SWAP1 DIV PUSH20 0xFFFFFFFFFFFFFFFFFFFFFFFFFFFFFFFFFFFFFFFF AND SWAP1 POP PUSH1 0x0 PUSH1 0x24 PUSH1 0x0 SWAP1 SLOAD SWAP1 PUSH2 0x100 EXP SWAP1 DIV PUSH20 0xFFFFFFFFFFFFFFFFFFFFFFFFFFFFFFFFFFFFFFFF AND SWAP1 POP PUSH2 0x2896 DUP3 DUP5 PUSH2 0x2891 PUSH1 0xF SLOAD DUP7 PUSH20 0xFFFFFFFFFFFFFFFFFFFFFFFFFFFFFFFFFFFFFFFF AND PUSH4 0x70A08231 ADDRESS PUSH1 0x40 MLOAD DUP3 PUSH4 0xFFFFFFFF AND PUSH1 0xE0 SHL DUP2 MSTORE PUSH1 0x4 ADD PUSH2 0x2833 SWAP2 SWAP1 PUSH2 0x5E7F JUMP JUMPDEST PUSH1 0x20 PUSH1 0x40 MLOAD DUP1 DUP4 SUB DUP2 DUP7 DUP1 EXTCODESIZE ISZERO DUP1 ISZERO PUSH2 0x284B JUMPI PUSH1 0x0 DUP1 REVERT JUMPDEST POP GAS STATICCALL ISZERO DUP1 ISZERO PUSH2 0x285F JUMPI RETURNDATASIZE PUSH1 0x0 DUP1 RETURNDATACOPY RETURNDATASIZE PUSH1 0x0 REVERT JUMPDEST POP POP POP POP PUSH1 0x40 MLOAD RETURNDATASIZE PUSH1 0x1F NOT PUSH1 0x1F DUP3 ADD AND DUP3 ADD DUP1 PUSH1 0x40 MSTORE POP DUP2 ADD SWAP1 PUSH2 0x2883 SWAP2 SWAP1 PUSH2 0x5B37 JUMP JUMPDEST PUSH2 0x5339 SWAP1 SWAP2 SWAP1 PUSH4 0xFFFFFFFF AND JUMP JUMPDEST PUSH2 0x49A6 JUMP JUMPDEST PUSH2 0x293D DUP2 DUP5 PUSH2 0x2938 PUSH1 0xE SLOAD DUP6 PUSH20 0xFFFFFFFFFFFFFFFFFFFFFFFFFFFFFFFFFFFFFFFF AND PUSH4 0x70A08231 ADDRESS PUSH1 0x40 MLOAD DUP3 PUSH4 0xFFFFFFFF AND PUSH1 0xE0 SHL DUP2 MSTORE PUSH1 0x4 ADD PUSH2 0x28DA SWAP2 SWAP1 PUSH2 0x5E7F JUMP JUMPDEST PUSH1 0x20 PUSH1 0x40 MLOAD DUP1 DUP4 SUB DUP2 DUP7 DUP1 EXTCODESIZE ISZERO DUP1 ISZERO PUSH2 0x28F2 JUMPI PUSH1 0x0 DUP1 REVERT JUMPDEST POP GAS STATICCALL ISZERO DUP1 ISZERO PUSH2 0x2906 JUMPI RETURNDATASIZE PUSH1 0x0 DUP1 RETURNDATACOPY RETURNDATASIZE PUSH1 0x0 REVERT JUMPDEST POP POP POP POP PUSH1 0x40 MLOAD RETURNDATASIZE PUSH1 0x1F NOT PUSH1 0x1F DUP3 ADD AND DUP3 ADD DUP1 PUSH1 0x40 MSTORE POP DUP2 ADD SWAP1 PUSH2 0x292A SWAP2 SWAP1 PUSH2 0x5B37 JUMP JUMPDEST PUSH2 0x5339 SWAP1 SWAP2 SWAP1 PUSH4 0xFFFFFFFF AND JUMP JUMPDEST PUSH2 0x49A6 JUMP JUMPDEST POP POP PUSH1 0x1 PUSH1 0x29 DUP2 SWAP1 SSTORE POP POP JUMP JUMPDEST PUSH1 0x0 PUSH2 0x2977 PUSH1 0x24 PUSH1 0x0 SWAP1 SLOAD SWAP1 PUSH2 0x100 EXP SWAP1 DIV PUSH20 0xFFFFFFFFFFFFFFFFFFFFFFFFFFFFFFFFFFFFFFFF AND PUSH2 0x3054 JUMP JUMPDEST PUSH1 0x2B PUSH1 0x0 DUP5 PUSH20 0xFFFFFFFFFFFFFFFFFFFFFFFFFFFFFFFFFFFFFFFF AND PUSH20 0xFFFFFFFFFFFFFFFFFFFFFFFFFFFFFFFFFFFFFFFF AND DUP2 MSTORE PUSH1 0x20 ADD SWAP1 DUP2 MSTORE PUSH1 0x20 ADD PUSH1 0x0 KECCAK256 PUSH1 0x0 PUSH1 0x1 ISZERO ISZERO ISZERO ISZERO DUP2 MSTORE PUSH1 0x20 ADD SWAP1 DUP2 MSTORE PUSH1 0x20 ADD PUSH1 0x0 KECCAK256 PUSH1 0x2 ADD SLOAD PUSH2 0x29DA SWAP2 SWAP1 PUSH2 0x636F JUMP JUMPDEST PUSH2 0x2A05 PUSH1 0x23 PUSH1 0x0 SWAP1 SLOAD SWAP1 PUSH2 0x100 EXP SWAP1 DIV PUSH20 0xFFFFFFFFFFFFFFFFFFFFFFFFFFFFFFFFFFFFFFFF AND PUSH2 0x3054 JUMP JUMPDEST PUSH1 0x2B PUSH1 0x0 DUP6 PUSH20 0xFFFFFFFFFFFFFFFFFFFFFFFFFFFFFFFFFFFFFFFF AND PUSH20 0xFFFFFFFFFFFFFFFFFFFFFFFFFFFFFFFFFFFFFFFF AND DUP2 MSTORE PUSH1 0x20 ADD SWAP1 DUP2 MSTORE PUSH1 0x20 ADD PUSH1 0x0 KECCAK256 PUSH1 0x0 DUP1 ISZERO ISZERO ISZERO ISZERO DUP2 MSTORE PUSH1 0x20 ADD SWAP1 DUP2 MSTORE PUSH1 0x20 ADD PUSH1 0x0 KECCAK256 PUSH1 0x2 ADD SLOAD PUSH2 0x2A67 SWAP2 SWAP1 PUSH2 0x636F JUMP JUMPDEST PUSH2 0x2A71 SWAP2 SWAP1 PUSH2 0x6177 JUMP JUMPDEST SWAP1 POP SWAP2 SWAP1 POP JUMP JUMPDEST PUSH1 0x0 DUP1 PUSH1 0x1 PUSH1 0x29 SLOAD EQ PUSH2 0x2AC0 JUMPI PUSH1 0x40 MLOAD PUSH32 0x8C379A000000000000000000000000000000000000000000000000000000000 DUP2 MSTORE PUSH1 0x4 ADD PUSH2 0x2AB7 SWAP1 PUSH2 0x6045 JUMP JUMPDEST PUSH1 0x40 MLOAD DUP1 SWAP2 SUB SWAP1 REVERT JUMPDEST PUSH1 0x0 PUSH1 0x29 DUP2 SWAP1 SSTORE POP PUSH1 0x26 SLOAD PUSH1 0xF SLOAD DUP5 PUSH2 0x2AD9 SWAP2 SWAP1 PUSH2 0x636F JUMP JUMPDEST PUSH2 0x2AE3 SWAP2 SWAP1 PUSH2 0x61CD JUMP JUMPDEST SWAP2 POP PUSH1 0x26 SLOAD PUSH1 0xE SLOAD DUP5 PUSH2 0x2AF6 SWAP2 SWAP1 PUSH2 0x636F JUMP JUMPDEST PUSH2 0x2B00 SWAP2 SWAP1 PUSH2 0x61CD JUMP JUMPDEST SWAP1 POP PUSH1 0xF SLOAD DUP3 PUSH1 0xF SLOAD PUSH2 0x2B13 SWAP2 SWAP1 PUSH2 0x63C9 JUMP JUMPDEST PUSH1 0x6 SLOAD PUSH2 0x2B20 SWAP2 SWAP1 PUSH2 0x636F JUMP JUMPDEST PUSH2 0x2B2A SWAP2 SWAP1 PUSH2 0x61CD JUMP JUMPDEST PUSH1 0x6 DUP2 SWAP1 SSTORE POP PUSH1 0xE SLOAD DUP2 PUSH1 0xE SLOAD PUSH2 0x2B41 SWAP2 SWAP1 PUSH2 0x63C9 JUMP JUMPDEST PUSH1 0x7 SLOAD PUSH2 0x2B4E SWAP2 SWAP1 PUSH2 0x636F JUMP JUMPDEST PUSH2 0x2B58 SWAP2 SWAP1 PUSH2 0x61CD JUMP JUMPDEST PUSH1 0x7 DUP2 SWAP1 SSTORE POP DUP2 PUSH1 0xF SLOAD PUSH2 0x2B6C SWAP2 SWAP1 PUSH2 0x63C9 JUMP JUMPDEST PUSH1 0xF DUP2 SWAP1 SSTORE POP DUP1 PUSH1 0xE SLOAD PUSH2 0x2B80 SWAP2 SWAP1 PUSH2 0x63C9 JUMP JUMPDEST PUSH1 0xE DUP2 SWAP1 SSTORE POP DUP3 PUSH1 0x26 SLOAD PUSH2 0x2B94 SWAP2 SWAP1 PUSH2 0x63C9 JUMP JUMPDEST PUSH1 0x26 DUP2 SWAP1 SSTORE POP PUSH2 0x2BA2 PUSH2 0x3648 JUMP JUMPDEST PUSH1 0x1 PUSH1 0x29 DUP2 SWAP1 SSTORE POP SWAP2 POP SWAP2 JUMP JUMPDEST PUSH1 0x1 PUSH1 0x29 SLOAD EQ PUSH2 0x2BF4 JUMPI PUSH1 0x40 MLOAD PUSH32 0x8C379A000000000000000000000000000000000000000000000000000000000 DUP2 MSTORE PUSH1 0x4 ADD PUSH2 0x2BEB SWAP1 PUSH2 0x6045 JUMP JUMPDEST PUSH1 0x40 MLOAD DUP1 SWAP2 SUB SWAP1 REVERT JUMPDEST PUSH1 0x0 PUSH1 0x29 DUP2 SWAP1 SSTORE POP PUSH2 0x2C05 DUP3 PUSH2 0x294A JUMP JUMPDEST PUSH2 0x2C0E DUP4 PUSH2 0x1BD7 JUMP JUMPDEST GT DUP1 ISZERO PUSH2 0x2C4A JUMPI POP PUSH2 0x2C1F DUP3 PUSH2 0xD59 JUMP JUMPDEST PUSH1 0x27 SLOAD PUSH2 0x2C2C SWAP2 SWAP1 PUSH2 0x636F JUMP JUMPDEST PUSH2 0x2C35 DUP4 PUSH2 0x294A JUMP JUMPDEST PUSH2 0x2C3E DUP5 PUSH2 0x1BD7 JUMP JUMPDEST PUSH2 0x2C48 SWAP2 SWAP1 PUSH2 0x63C9 JUMP JUMPDEST GT JUMPDEST PUSH2 0x2C89 JUMPI PUSH1 0x40 MLOAD PUSH32 0x8C379A000000000000000000000000000000000000000000000000000000000 DUP2 MSTORE PUSH1 0x4 ADD PUSH2 0x2C80 SWAP1 PUSH2 0x5FC5 JUMP JUMPDEST PUSH1 0x40 MLOAD DUP1 SWAP2 SUB SWAP1 REVERT JUMPDEST PUSH1 0x0 PUSH1 0x2A DUP1 SLOAD SWAP1 POP SWAP1 POP PUSH1 0x0 JUMPDEST DUP2 DUP2 LT ISZERO PUSH2 0x2D62 JUMPI PUSH2 0x2D4F PUSH1 0x2A DUP3 DUP2 SLOAD DUP2 LT PUSH2 0x2CB5 JUMPI PUSH2 0x2CB4 PUSH2 0x652C JUMP JUMPDEST JUMPDEST SWAP1 PUSH1 0x0 MSTORE PUSH1 0x20 PUSH1 0x0 KECCAK256 ADD PUSH1 0x0 SWAP1 SLOAD SWAP1 PUSH2 0x100 EXP SWAP1 DIV PUSH20 0xFFFFFFFFFFFFFFFFFFFFFFFFFFFFFFFFFFFFFFFF AND DUP5 PUSH1 0x28 SLOAD PUSH1 0x2C PUSH1 0x0 DUP10 PUSH20 0xFFFFFFFFFFFFFFFFFFFFFFFFFFFFFFFFFFFFFFFF AND PUSH20 0xFFFFFFFFFFFFFFFFFFFFFFFFFFFFFFFFFFFFFFFF AND DUP2 MSTORE PUSH1 0x20 ADD SWAP1 DUP2 MSTORE PUSH1 0x20 ADD PUSH1 0x0 KECCAK256 DUP6 DUP2 SLOAD DUP2 LT PUSH2 0x2D35 JUMPI PUSH2 0x2D34 PUSH2 0x652C JUMP JUMPDEST JUMPDEST SWAP1 PUSH1 0x0 MSTORE PUSH1 0x20 PUSH1 0x0 KECCAK256 ADD SLOAD PUSH2 0x2D4A SWAP2 SWAP1 PUSH2 0x636F JUMP JUMPDEST PUSH2 0x49A6 JUMP JUMPDEST DUP1 DUP1 PUSH2 0x2D5A SWAP1 PUSH2 0x6485 JUMP JUMPDEST SWAP2 POP POP PUSH2 0x2C96 JUMP JUMPDEST POP PUSH1 0x2C PUSH1 0x0 DUP5 PUSH20 0xFFFFFFFFFFFFFFFFFFFFFFFFFFFFFFFFFFFFFFFF AND PUSH20 0xFFFFFFFFFFFFFFFFFFFFFFFFFFFFFFFFFFFFFFFF AND DUP2 MSTORE PUSH1 0x20 ADD SWAP1 DUP2 MSTORE PUSH1 0x20 ADD PUSH1 0x0 KECCAK256 PUSH1 0x0 PUSH2 0x2DAE SWAP2 SWAP1 PUSH2 0x58F6 JUMP JUMPDEST PUSH1 0x0 PUSH1 0x2B PUSH1 0x0 DUP6 PUSH20 0xFFFFFFFFFFFFFFFFFFFFFFFFFFFFFFFFFFFFFFFF AND PUSH20 0xFFFFFFFFFFFFFFFFFFFFFFFFFFFFFFFFFFFFFFFF AND DUP2 MSTORE PUSH1 0x20 ADD SWAP1 DUP2 MSTORE PUSH1 0x20 ADD PUSH1 0x0 KECCAK256 PUSH1 0x0 DUP1 ISZERO ISZERO ISZERO ISZERO DUP2 MSTORE PUSH1 0x20 ADD SWAP1 DUP2 MSTORE PUSH1 0x20 ADD PUSH1 0x0 KECCAK256 PUSH1 0x1 ADD DUP2 SWAP1 SSTORE POP PUSH1 0x0 PUSH1 0x2B PUSH1 0x0 DUP6 PUSH20 0xFFFFFFFFFFFFFFFFFFFFFFFFFFFFFFFFFFFFFFFF AND PUSH20 0xFFFFFFFFFFFFFFFFFFFFFFFFFFFFFFFFFFFFFFFF AND DUP2 MSTORE PUSH1 0x20 ADD SWAP1 DUP2 MSTORE PUSH1 0x20 ADD PUSH1 0x0 KECCAK256 PUSH1 0x0 PUSH1 0x1 ISZERO ISZERO ISZERO ISZERO DUP2 MSTORE PUSH1 0x20 ADD SWAP1 DUP2 MSTORE PUSH1 0x20 ADD PUSH1 0x0 KECCAK256 PUSH1 0x1 ADD DUP2 SWAP1 SSTORE POP PUSH2 0x2F23 PUSH1 0x2B PUSH1 0x0 DUP6 PUSH20 0xFFFFFFFFFFFFFFFFFFFFFFFFFFFFFFFFFFFFFFFF AND PUSH20 0xFFFFFFFFFFFFFFFFFFFFFFFFFFFFFFFFFFFFFFFF AND DUP2 MSTORE PUSH1 0x20 ADD SWAP1 DUP2 MSTORE PUSH1 0x20 ADD PUSH1 0x0 KECCAK256 PUSH1 0x0 DUP1 ISZERO ISZERO ISZERO ISZERO DUP2 MSTORE PUSH1 0x20 ADD SWAP1 DUP2 MSTORE PUSH1 0x20 ADD PUSH1 0x0 KECCAK256 PUSH1 0x2 ADD SLOAD PUSH1 0x2B PUSH1 0x0 DUP7 PUSH20 0xFFFFFFFFFFFFFFFFFFFFFFFFFFFFFFFFFFFFFFFF AND PUSH20 0xFFFFFFFFFFFFFFFFFFFFFFFFFFFFFFFFFFFFFFFF AND DUP2 MSTORE PUSH1 0x20 ADD SWAP1 DUP2 MSTORE PUSH1 0x20 ADD PUSH1 0x0 KECCAK256 PUSH1 0x0 PUSH1 0x1 ISZERO ISZERO ISZERO ISZERO DUP2 MSTORE PUSH1 0x20 ADD SWAP1 DUP2 MSTORE PUSH1 0x20 ADD PUSH1 0x0 KECCAK256 PUSH1 0x2 ADD SLOAD DUP6 PUSH2 0x116D JUMP JUMPDEST POP PUSH1 0x1 PUSH1 0x29 DUP2 SWAP1 SSTORE POP POP POP JUMP JUMPDEST PUSH1 0x22 PUSH1 0x0 SWAP1 SLOAD SWAP1 PUSH2 0x100 EXP SWAP1 DIV PUSH20 0xFFFFFFFFFFFFFFFFFFFFFFFFFFFFFFFFFFFFFFFF AND DUP2 JUMP JUMPDEST PUSH1 0x1B PUSH1 0x0 SWAP1 SLOAD SWAP1 PUSH2 0x100 EXP SWAP1 DIV PUSH1 0xFF AND DUP2 JUMP JUMPDEST PUSH1 0x1F SLOAD DUP2 JUMP JUMPDEST PUSH1 0x22 PUSH1 0x0 SWAP1 SLOAD SWAP1 PUSH2 0x100 EXP SWAP1 DIV PUSH20 0xFFFFFFFFFFFFFFFFFFFFFFFFFFFFFFFFFFFFFFFF AND PUSH20 0xFFFFFFFFFFFFFFFFFFFFFFFFFFFFFFFFFFFFFFFF AND CALLER PUSH20 0xFFFFFFFFFFFFFFFFFFFFFFFFFFFFFFFFFFFFFFFF AND EQ PUSH2 0x2FFF JUMPI PUSH1 0x40 MLOAD PUSH32 0x8C379A000000000000000000000000000000000000000000000000000000000 DUP2 MSTORE PUSH1 0x4 ADD PUSH2 0x2FF6 SWAP1 PUSH2 0x5FC5 JUMP JUMPDEST PUSH1 0x40 MLOAD DUP1 SWAP2 SUB SWAP1 REVERT JUMPDEST DUP1 PUSH1 0x25 DUP2 SWAP1 SSTORE POP POP JUMP JUMPDEST PUSH1 0x13 SLOAD DUP2 JUMP JUMPDEST PUSH1 0x2A DUP2 DUP2 SLOAD DUP2 LT PUSH2 0x301F JUMPI PUSH1 0x0 DUP1 REVERT JUMPDEST SWAP1 PUSH1 0x0 MSTORE PUSH1 0x20 PUSH1 0x0 KECCAK256 ADD PUSH1 0x0 SWAP2 POP SLOAD SWAP1 PUSH2 0x100 EXP SWAP1 DIV PUSH20 0xFFFFFFFFFFFFFFFFFFFFFFFFFFFFFFFFFFFFFFFF AND DUP2 JUMP JUMPDEST PUSH1 0xA SLOAD DUP2 JUMP JUMPDEST PUSH1 0x0 SWAP2 SWAP1 POP JUMP JUMPDEST PUSH1 0x1C SLOAD DUP2 JUMP JUMPDEST PUSH1 0xC SLOAD DUP2 JUMP JUMPDEST PUSH1 0x28 SLOAD DUP2 JUMP JUMPDEST PUSH1 0x3 SLOAD DUP2 JUMP JUMPDEST PUSH1 0x2C PUSH1 0x20 MSTORE DUP2 PUSH1 0x0 MSTORE PUSH1 0x40 PUSH1 0x0 KECCAK256 DUP2 DUP2 SLOAD DUP2 LT PUSH2 0x308F JUMPI PUSH1 0x0 DUP1 REVERT JUMPDEST SWAP1 PUSH1 0x0 MSTORE PUSH1 0x20 PUSH1 0x0 KECCAK256 ADD PUSH1 0x0 SWAP2 POP SWAP2 POP POP SLOAD DUP2 JUMP JUMPDEST PUSH1 0x0 DUP1 PUSH1 0x0 DUP1 PUSH8 0xDE0B6B3A7640000 PUSH1 0x9 SLOAD PUSH1 0xF SLOAD PUSH2 0x30C3 SWAP2 SWAP1 PUSH2 0x636F JUMP JUMPDEST PUSH2 0x30CD SWAP2 SWAP1 PUSH2 0x61CD JUMP JUMPDEST SWAP1 POP PUSH1 0x0 PUSH8 0xDE0B6B3A7640000 PUSH1 0x8 SLOAD PUSH1 0xE SLOAD PUSH2 0x30EA SWAP2 SWAP1 PUSH2 0x636F JUMP JUMPDEST PUSH2 0x30F4 SWAP2 SWAP1 PUSH2 0x61CD JUMP JUMPDEST SWAP1 POP PUSH1 0x0 PUSH1 0x1E SLOAD PUSH8 0xDE0B6B3A7640000 PUSH1 0x2 SLOAD PUSH2 0x3111 SWAP2 SWAP1 PUSH2 0x636F JUMP JUMPDEST PUSH2 0x311B SWAP2 SWAP1 PUSH2 0x61CD JUMP JUMPDEST SWAP1 POP PUSH1 0x0 DUP3 DUP5 PUSH2 0x312B SWAP2 SWAP1 PUSH2 0x63C9 JUMP JUMPDEST PUSH8 0xDE0B6B3A7640000 DUP5 PUSH1 0x2 PUSH2 0x3141 SWAP2 SWAP1 PUSH2 0x636F JUMP JUMPDEST DUP6 DUP8 PUSH1 0x4 DUP8 DUP9 DUP10 PUSH2 0x3152 SWAP2 SWAP1 PUSH2 0x636F JUMP JUMPDEST PUSH2 0x315C SWAP2 SWAP1 PUSH2 0x636F JUMP JUMPDEST PUSH2 0x3166 SWAP2 SWAP1 PUSH2 0x61CD JUMP JUMPDEST PUSH2 0x3170 SWAP2 SWAP1 PUSH2 0x61CD JUMP JUMPDEST PUSH2 0x317A SWAP2 SWAP1 PUSH2 0x61CD JUMP JUMPDEST PUSH2 0x3184 SWAP2 SWAP1 PUSH2 0x63C9 JUMP JUMPDEST PUSH2 0x318E SWAP2 SWAP1 PUSH2 0x636F JUMP JUMPDEST PUSH2 0x3198 SWAP2 SWAP1 PUSH2 0x61CD JUMP JUMPDEST SWAP1 POP PUSH1 0x0 DUP2 PUSH8 0x1BC16D674EC80000 PUSH2 0x31B0 SWAP2 SWAP1 PUSH2 0x63C9 JUMP JUMPDEST SWAP1 POP PUSH1 0x0 PUSH1 0x9 SLOAD PUSH8 0xDE0B6B3A7640000 DUP7 DUP7 DUP8 DUP9 PUSH2 0x31CE SWAP2 SWAP1 PUSH2 0x636F JUMP JUMPDEST PUSH2 0x31D8 SWAP2 SWAP1 PUSH2 0x636F JUMP JUMPDEST PUSH2 0x31E2 SWAP2 SWAP1 PUSH2 0x636F JUMP JUMPDEST PUSH2 0x31EC SWAP2 SWAP1 PUSH2 0x636F JUMP JUMPDEST DUP7 DUP8 DUP10 DUP11 DUP9 PUSH1 0x4 PUSH2 0x31FD SWAP2 SWAP1 PUSH2 0x636F JUMP JUMPDEST PUSH2 0x3207 SWAP2 SWAP1 PUSH2 0x636F JUMP JUMPDEST PUSH2 0x3211 SWAP2 SWAP1 PUSH2 0x636F JUMP JUMPDEST PUSH2 0x321B SWAP2 SWAP1 PUSH2 0x636F JUMP JUMPDEST PUSH2 0x3225 SWAP2 SWAP1 PUSH2 0x636F JUMP JUMPDEST PUSH2 0x322F SWAP2 SWAP1 PUSH2 0x6177 JUMP JUMPDEST PUSH8 0xDE0B6B3A7640000 PUSH1 0x8 SLOAD PUSH8 0xDE0B6B3A7640000 DUP11 PUSH1 0x2 SLOAD PUSH1 0x2 SLOAD DUP12 PUSH2 0x3256 SWAP2 SWAP1 PUSH2 0x636F JUMP JUMPDEST PUSH2 0x3260 SWAP2 SWAP1 PUSH2 0x636F JUMP JUMPDEST PUSH2 0x326A SWAP2 SWAP1 PUSH2 0x636F JUMP JUMPDEST PUSH2 0x3274 SWAP2 SWAP1 PUSH2 0x636F JUMP JUMPDEST DUP10 DUP11 DUP13 DUP14 DUP11 PUSH1 0x4 PUSH2 0x3285 SWAP2 SWAP1 PUSH2 0x636F JUMP JUMPDEST PUSH2 0x328F SWAP2 SWAP1 PUSH2 0x636F JUMP JUMPDEST PUSH2 0x3299 SWAP2 SWAP1 PUSH2 0x636F JUMP JUMPDEST PUSH2 0x32A3 SWAP2 SWAP1 PUSH2 0x636F JUMP JUMPDEST PUSH2 0x32AD SWAP2 SWAP1 PUSH2 0x636F JUMP JUMPDEST PUSH2 0x32B7 SWAP2 SWAP1 PUSH2 0x6177 JUMP JUMPDEST PUSH2 0x32C1 SWAP2 SWAP1 PUSH2 0x636F JUMP JUMPDEST PUSH2 0x32CB SWAP2 SWAP1 PUSH2 0x636F JUMP JUMPDEST PUSH2 0x32D5 SWAP2 SWAP1 PUSH2 0x61CD JUMP JUMPDEST PUSH2 0x32DF SWAP2 SWAP1 PUSH2 0x61CD JUMP JUMPDEST SWAP1 POP PUSH1 0x0 PUSH1 0x9 SLOAD PUSH8 0xDE0B6B3A7640000 PUSH1 0x7 SLOAD PUSH1 0x2 SLOAD PUSH1 0x2 SLOAD PUSH1 0x2 SLOAD PUSH2 0x3305 SWAP2 SWAP1 PUSH2 0x636F JUMP JUMPDEST PUSH2 0x330F SWAP2 SWAP1 PUSH2 0x636F JUMP JUMPDEST PUSH2 0x3319 SWAP2 SWAP1 PUSH2 0x636F JUMP JUMPDEST PUSH2 0x3323 SWAP2 SWAP1 PUSH2 0x636F JUMP JUMPDEST PUSH1 0x7 SLOAD PUSH1 0x7 SLOAD PUSH1 0x6 SLOAD PUSH1 0x6 SLOAD PUSH1 0x0 SLOAD PUSH1 0x4 PUSH2 0x333E SWAP2 SWAP1 PUSH2 0x636F JUMP JUMPDEST PUSH2 0x3348 SWAP2 SWAP1 PUSH2 0x636F JUMP JUMPDEST PUSH2 0x3352 SWAP2 SWAP1 PUSH2 0x636F JUMP JUMPDEST PUSH2 0x335C SWAP2 SWAP1 PUSH2 0x636F JUMP JUMPDEST PUSH2 0x3366 SWAP2 SWAP1 PUSH2 0x636F JUMP JUMPDEST PUSH2 0x3370 SWAP2 SWAP1 PUSH2 0x6177 JUMP JUMPDEST PUSH8 0xDE0B6B3A7640000 PUSH1 0x8 SLOAD PUSH8 0xDE0B6B3A7640000 PUSH1 0x6 SLOAD PUSH1 0x2 SLOAD PUSH1 0x2 SLOAD PUSH1 0x2 SLOAD PUSH2 0x339B SWAP2 SWAP1 PUSH2 0x636F JUMP JUMPDEST PUSH2 0x33A5 SWAP2 SWAP1 PUSH2 0x636F JUMP JUMPDEST PUSH2 0x33AF SWAP2 SWAP1 PUSH2 0x636F JUMP JUMPDEST PUSH2 0x33B9 SWAP2 SWAP1 PUSH2 0x636F JUMP JUMPDEST PUSH1 0x7 SLOAD PUSH1 0x7 SLOAD PUSH1 0x6 SLOAD PUSH1 0x6 SLOAD PUSH1 0x1 SLOAD PUSH1 0x4 PUSH2 0x33D4 SWAP2 SWAP1 PUSH2 0x636F JUMP JUMPDEST PUSH2 0x33DE SWAP2 SWAP1 PUSH2 0x636F JUMP JUMPDEST PUSH2 0x33E8 SWAP2 SWAP1 PUSH2 0x636F JUMP JUMPDEST PUSH2 0x33F2 SWAP2 SWAP1 PUSH2 0x636F JUMP JUMPDEST PUSH2 0x33FC SWAP2 SWAP1 PUSH2 0x636F JUMP JUMPDEST PUSH2 0x3406 SWAP2 SWAP1 PUSH2 0x6177 JUMP JUMPDEST PUSH2 0x3410 SWAP2 SWAP1 PUSH2 0x636F JUMP JUMPDEST PUSH2 0x341A SWAP2 SWAP1 PUSH2 0x636F JUMP JUMPDEST PUSH2 0x3424 SWAP2 SWAP1 PUSH2 0x61CD JUMP JUMPDEST PUSH2 0x342E SWAP2 SWAP1 PUSH2 0x61CD JUMP JUMPDEST SWAP1 POP DUP2 DUP2 GT ISZERO PUSH2 0x34D4 JUMPI PUSH1 0x0 PUSH1 0x1D SLOAD PUSH2 0xE100 PUSH1 0xA SLOAD PUSH1 0xE SLOAD PUSH2 0x3450 SWAP2 SWAP1 PUSH2 0x6177 JUMP JUMPDEST PUSH8 0xDE0B6B3A7640000 PUSH1 0xA SLOAD PUSH2 0x3466 SWAP2 SWAP1 PUSH2 0x636F JUMP JUMPDEST PUSH2 0x3470 SWAP2 SWAP1 PUSH2 0x61CD JUMP JUMPDEST PUSH2 0x347A SWAP2 SWAP1 PUSH2 0x61CD JUMP JUMPDEST PUSH2 0x3484 SWAP2 SWAP1 PUSH2 0x6177 JUMP JUMPDEST SWAP1 POP DUP1 PUSH2 0x1680 DUP5 PUSH8 0xDE0B6B3A7640000 DUP7 DUP7 PUSH2 0x34A0 SWAP2 SWAP1 PUSH2 0x63C9 JUMP JUMPDEST PUSH2 0x34AA SWAP2 SWAP1 PUSH2 0x636F JUMP JUMPDEST PUSH2 0x34B4 SWAP2 SWAP1 PUSH2 0x61CD JUMP JUMPDEST PUSH2 0x34BE SWAP2 SWAP1 PUSH2 0x61CD JUMP JUMPDEST PUSH2 0x34C8 SWAP2 SWAP1 PUSH2 0x6177 JUMP JUMPDEST SWAP11 POP PUSH1 0x0 SWAP9 POP POP PUSH2 0x356C JUMP JUMPDEST PUSH1 0x0 PUSH1 0x1D SLOAD PUSH2 0xE100 PUSH1 0xB SLOAD PUSH1 0xF SLOAD PUSH2 0x34EC SWAP2 SWAP1 PUSH2 0x6177 JUMP JUMPDEST PUSH8 0xDE0B6B3A7640000 PUSH1 0xB SLOAD PUSH2 0x3502 SWAP2 SWAP1 PUSH2 0x636F JUMP JUMPDEST PUSH2 0x350C SWAP2 SWAP1 PUSH2 0x61CD JUMP JUMPDEST PUSH2 0x3516 SWAP2 SWAP1 PUSH2 0x61CD JUMP JUMPDEST PUSH2 0x3520 SWAP2 SWAP1 PUSH2 0x6177 JUMP JUMPDEST SWAP1 POP DUP1 PUSH2 0x1680 DUP5 PUSH8 0xDE0B6B3A7640000 DUP6 DUP8 PUSH2 0x353C SWAP2 SWAP1 PUSH2 0x63C9 JUMP JUMPDEST PUSH2 0x3546 SWAP2 SWAP1 PUSH2 0x636F JUMP JUMPDEST PUSH2 0x3550 SWAP2 SWAP1 PUSH2 0x61CD JUMP JUMPDEST PUSH2 0x355A SWAP2 SWAP1 PUSH2 0x61CD JUMP JUMPDEST PUSH2 0x3564 SWAP2 SWAP1 PUSH2 0x6177 JUMP JUMPDEST SWAP11 POP PUSH1 0x1 SWAP9 POP POP JUMPDEST PUSH2 0x780 DUP11 PUSH2 0x357A SWAP2 SWAP1 PUSH2 0x636F JUMP JUMPDEST SWAP9 POP PUSH1 0x1C SLOAD DUP10 GT ISZERO PUSH2 0x359C JUMPI PUSH1 0x1C SLOAD SWAP9 POP PUSH2 0x780 DUP10 PUSH2 0x3599 SWAP2 SWAP1 PUSH2 0x61CD JUMP JUMPDEST SWAP10 POP JUMPDEST POP POP POP POP POP POP POP SWAP1 SWAP2 SWAP3 JUMP JUMPDEST PUSH1 0x8 SLOAD DUP2 JUMP JUMPDEST PUSH1 0x22 PUSH1 0x0 SWAP1 SLOAD SWAP1 PUSH2 0x100 EXP SWAP1 DIV PUSH20 0xFFFFFFFFFFFFFFFFFFFFFFFFFFFFFFFFFFFFFFFF AND PUSH20 0xFFFFFFFFFFFFFFFFFFFFFFFFFFFFFFFFFFFFFFFF AND CALLER PUSH20 0xFFFFFFFFFFFFFFFFFFFFFFFFFFFFFFFFFFFFFFFF AND EQ PUSH2 0x363E JUMPI PUSH1 0x40 MLOAD PUSH32 0x8C379A000000000000000000000000000000000000000000000000000000000 DUP2 MSTORE PUSH1 0x4 ADD PUSH2 0x3635 SWAP1 PUSH2 0x5FC5 JUMP JUMPDEST PUSH1 0x40 MLOAD DUP1 SWAP2 SUB SWAP1 REVERT JUMPDEST DUP1 PUSH1 0x27 DUP2 SWAP1 SSTORE POP POP JUMP JUMPDEST PUSH2 0x3738 PUSH1 0xC SLOAD PUSH1 0xD SLOAD PUSH1 0xC SLOAD PUSH1 0x1 SLOAD PUSH1 0x8 SLOAD PUSH2 0x3664 SWAP2 SWAP1 PUSH2 0x636F JUMP JUMPDEST PUSH2 0x366E SWAP2 SWAP1 PUSH2 0x636F JUMP JUMPDEST PUSH1 0x9 SLOAD PUSH1 0x0 SLOAD PUSH1 0xD SLOAD PUSH2 0x3681 SWAP2 SWAP1 PUSH2 0x636F JUMP JUMPDEST PUSH2 0x368B SWAP2 SWAP1 PUSH2 0x636F JUMP JUMPDEST PUSH2 0x3695 SWAP2 SWAP1 PUSH2 0x6177 JUMP JUMPDEST PUSH23 0xA70C3C40A64E6C51999090B65F67D9240000000000000 PUSH1 0xE SLOAD PUSH1 0xF SLOAD PUSH1 0xE SLOAD PUSH1 0x1 SLOAD PUSH1 0x8 SLOAD PUSH2 0x36C6 SWAP2 SWAP1 PUSH2 0x636F JUMP JUMPDEST PUSH2 0x36D0 SWAP2 SWAP1 PUSH2 0x636F JUMP JUMPDEST PUSH1 0x9 SLOAD PUSH1 0x0 SLOAD PUSH1 0xF SLOAD PUSH2 0x36E3 SWAP2 SWAP1 PUSH2 0x636F JUMP JUMPDEST PUSH2 0x36ED SWAP2 SWAP1 PUSH2 0x636F JUMP JUMPDEST PUSH2 0x36F7 SWAP2 SWAP1 PUSH2 0x6177 JUMP JUMPDEST PUSH2 0x3701 SWAP2 SWAP1 PUSH2 0x636F JUMP JUMPDEST PUSH2 0x370B SWAP2 SWAP1 PUSH2 0x636F JUMP JUMPDEST PUSH2 0x3715 SWAP2 SWAP1 PUSH2 0x636F JUMP JUMPDEST PUSH2 0x371F SWAP2 SWAP1 PUSH2 0x61CD JUMP JUMPDEST PUSH2 0x3729 SWAP2 SWAP1 PUSH2 0x61CD JUMP JUMPDEST PUSH2 0x3733 SWAP2 SWAP1 PUSH2 0x61CD JUMP JUMPDEST PUSH2 0x5392 JUMP JUMPDEST PUSH1 0x1F DUP2 SWAP1 SSTORE POP PUSH1 0x0 PUSH1 0x20 SLOAD PUSH1 0x21 SLOAD PUSH1 0x9 SLOAD PUSH15 0xC097CE7BC90715B34B9F1000000000 PUSH1 0x1F SLOAD PUSH1 0x6 SLOAD PUSH2 0x3769 SWAP2 SWAP1 PUSH2 0x636F JUMP JUMPDEST PUSH2 0x3773 SWAP2 SWAP1 PUSH2 0x636F JUMP JUMPDEST PUSH2 0x377D SWAP2 SWAP1 PUSH2 0x61CD JUMP JUMPDEST PUSH2 0x3787 SWAP2 SWAP1 PUSH2 0x61CD JUMP JUMPDEST PUSH2 0x3791 SWAP2 SWAP1 PUSH2 0x61CD JUMP JUMPDEST SWAP1 POP PUSH1 0x0 PUSH1 0x20 SLOAD PUSH1 0x21 SLOAD PUSH1 0x9 SLOAD PUSH15 0xC097CE7BC90715B34B9F1000000000 PUSH1 0x1F SLOAD PUSH1 0x7 SLOAD PUSH2 0x37BE SWAP2 SWAP1 PUSH2 0x636F JUMP JUMPDEST PUSH2 0x37C8 SWAP2 SWAP1 PUSH2 0x636F JUMP JUMPDEST PUSH2 0x37D2 SWAP2 SWAP1 PUSH2 0x61CD JUMP JUMPDEST PUSH2 0x37DC SWAP2 SWAP1 PUSH2 0x61CD JUMP JUMPDEST PUSH2 0x37E6 SWAP2 SWAP1 PUSH2 0x61CD JUMP JUMPDEST SWAP1 POP PUSH2 0x384B PUSH1 0x18 SLOAD DUP4 PUSH8 0xDE0B6B3A7640000 PUSH1 0xB SLOAD DUP7 PUSH2 0x3806 SWAP2 SWAP1 PUSH2 0x6177 JUMP JUMPDEST PUSH2 0x3810 SWAP2 SWAP1 PUSH2 0x636F JUMP JUMPDEST PUSH2 0x381A SWAP2 SWAP1 PUSH2 0x61CD JUMP JUMPDEST DUP4 PUSH8 0xDE0B6B3A7640000 PUSH1 0xA SLOAD DUP7 PUSH2 0x3832 SWAP2 SWAP1 PUSH2 0x6177 JUMP JUMPDEST PUSH2 0x383C SWAP2 SWAP1 PUSH2 0x636F JUMP JUMPDEST PUSH2 0x3846 SWAP2 SWAP1 PUSH2 0x61CD JUMP JUMPDEST PUSH2 0x5423 JUMP JUMPDEST PUSH1 0x1E DUP2 SWAP1 SSTORE POP PUSH15 0xC097CE7BC90715B34B9F1000000000 PUSH1 0x1F SLOAD PUSH1 0x1E SLOAD PUSH1 0x3 SLOAD PUSH2 0x3874 SWAP2 SWAP1 PUSH2 0x636F JUMP JUMPDEST PUSH2 0x387E SWAP2 SWAP1 PUSH2 0x636F JUMP JUMPDEST PUSH2 0x3888 SWAP2 SWAP1 PUSH2 0x61CD JUMP JUMPDEST PUSH1 0x2 DUP2 SWAP1 SSTORE POP PUSH1 0x2 DUP1 SLOAD PUSH2 0x389C SWAP2 SWAP1 PUSH2 0x61CD JUMP JUMPDEST PUSH1 0x4 DUP2 SWAP1 SSTORE POP PUSH1 0x4 SLOAD PUSH1 0x5 DUP2 SWAP1 SSTORE POP PUSH1 0x1F SLOAD PUSH1 0x21 DUP2 SWAP1 SSTORE POP PUSH1 0x1E SLOAD PUSH1 0x20 DUP2 SWAP1 SSTORE POP POP POP JUMP JUMPDEST PUSH1 0x0 DUP1 PUSH2 0x38CC PUSH2 0x30A4 JUMP JUMPDEST SWAP3 POP POP SWAP2 POP PUSH1 0x0 PUSH1 0x1A SLOAD NUMBER PUSH2 0x38E1 SWAP2 SWAP1 PUSH2 0x63C9 JUMP JUMPDEST SWAP1 POP NUMBER PUSH1 0x1A DUP2 SWAP1 SSTORE POP PUSH1 0x0 PUSH2 0x38F4 PUSH2 0x2239 JUMP JUMPDEST SWAP1 POP PUSH1 0x0 ISZERO ISZERO PUSH1 0x1B PUSH1 0x0 SWAP1 SLOAD SWAP1 PUSH2 0x100 EXP SWAP1 DIV PUSH1 0xFF AND ISZERO ISZERO EQ ISZERO PUSH2 0x39B1 JUMPI PUSH8 0xDE0B6B3A7640000 DUP3 PUSH1 0x19 SLOAD PUSH8 0xDE0B6B3A7640000 PUSH2 0x3932 SWAP2 SWAP1 PUSH2 0x6177 JUMP JUMPDEST PUSH1 0x14 SLOAD PUSH2 0x393F SWAP2 SWAP1 PUSH2 0x636F JUMP JUMPDEST PUSH2 0x3949 SWAP2 SWAP1 PUSH2 0x636F JUMP JUMPDEST PUSH2 0x3953 SWAP2 SWAP1 PUSH2 0x61CD JUMP JUMPDEST PUSH1 0x14 DUP2 SWAP1 SSTORE POP PUSH15 0xC097CE7BC90715B34B9F1000000000 DUP2 DUP4 PUSH1 0x14 SLOAD PUSH1 0x19 SLOAD PUSH2 0x397B SWAP2 SWAP1 PUSH2 0x636F JUMP JUMPDEST PUSH2 0x3985 SWAP2 SWAP1 PUSH2 0x636F JUMP JUMPDEST PUSH2 0x398F SWAP2 SWAP1 PUSH2 0x636F JUMP JUMPDEST PUSH2 0x3999 SWAP2 SWAP1 PUSH2 0x61CD JUMP JUMPDEST PUSH1 0x15 SLOAD PUSH2 0x39A6 SWAP2 SWAP1 PUSH2 0x63C9 JUMP JUMPDEST PUSH1 0x15 DUP2 SWAP1 SSTORE POP PUSH2 0x3A32 JUMP JUMPDEST PUSH8 0xDE0B6B3A7640000 DUP3 PUSH1 0x19 SLOAD PUSH8 0xDE0B6B3A7640000 PUSH2 0x39D1 SWAP2 SWAP1 PUSH2 0x6177 JUMP JUMPDEST PUSH1 0x15 SLOAD PUSH2 0x39DE SWAP2 SWAP1 PUSH2 0x636F JUMP JUMPDEST PUSH2 0x39E8 SWAP2 SWAP1 PUSH2 0x636F JUMP JUMPDEST PUSH2 0x39F2 SWAP2 SWAP1 PUSH2 0x61CD JUMP JUMPDEST PUSH1 0x15 DUP2 SWAP1 SSTORE POP DUP1 DUP3 PUSH1 0x15 SLOAD PUSH1 0x19 SLOAD PUSH2 0x3A0A SWAP2 SWAP1 PUSH2 0x636F JUMP JUMPDEST PUSH2 0x3A14 SWAP2 SWAP1 PUSH2 0x636F JUMP JUMPDEST PUSH2 0x3A1E SWAP2 SWAP1 PUSH2 0x61CD JUMP JUMPDEST PUSH1 0x14 SLOAD PUSH2 0x3A2B SWAP2 SWAP1 PUSH2 0x63C9 JUMP JUMPDEST PUSH1 0x14 DUP2 SWAP1 SSTORE POP JUMPDEST DUP4 PUSH1 0x19 DUP2 SWAP1 SSTORE POP DUP3 PUSH1 0x1B PUSH1 0x0 PUSH2 0x100 EXP DUP2 SLOAD DUP2 PUSH1 0xFF MUL NOT AND SWAP1 DUP4 ISZERO ISZERO MUL OR SWAP1 SSTORE POP POP POP POP POP JUMP JUMPDEST PUSH1 0x0 PUSH1 0x1 PUSH1 0x29 SLOAD EQ PUSH2 0x3AA0 JUMPI PUSH1 0x40 MLOAD PUSH32 0x8C379A000000000000000000000000000000000000000000000000000000000 DUP2 MSTORE PUSH1 0x4 ADD PUSH2 0x3A97 SWAP1 PUSH2 0x6045 JUMP JUMPDEST PUSH1 0x40 MLOAD DUP1 SWAP2 SUB SWAP1 REVERT JUMPDEST PUSH1 0x0 PUSH1 0x29 DUP2 SWAP1 SSTORE POP PUSH1 0x0 DUP3 SWAP1 POP PUSH1 0x0 PUSH1 0x1 SWAP1 POP JUMPDEST PUSH1 0x1 ISZERO ISZERO DUP2 ISZERO ISZERO EQ ISZERO PUSH2 0x3DE9 JUMPI PUSH1 0x0 PUSH8 0xDE0B6B3A7640000 PUSH1 0x13 SLOAD PUSH1 0x4 SLOAD PUSH2 0x3ADC SWAP2 SWAP1 PUSH2 0x636F JUMP JUMPDEST PUSH2 0x3AE6 SWAP2 SWAP1 PUSH2 0x61CD JUMP JUMPDEST SWAP1 POP PUSH1 0x0 PUSH2 0x3AFC PUSH1 0x0 SLOAD PUSH1 0x1 SLOAD PUSH1 0x2 SLOAD DUP6 PUSH2 0x544E JUMP JUMPDEST SWAP1 POP PUSH1 0x9 SLOAD PUSH8 0xDE0B6B3A7640000 PUSH1 0x6 SLOAD DUP5 PUSH2 0x3B18 SWAP2 SWAP1 PUSH2 0x63C9 JUMP JUMPDEST PUSH2 0x3B22 SWAP2 SWAP1 PUSH2 0x636F JUMP JUMPDEST PUSH2 0x3B2C SWAP2 SWAP1 PUSH2 0x61CD JUMP JUMPDEST DUP5 GT ISZERO PUSH2 0x3CF3 JUMPI PUSH1 0x0 PUSH2 0x3B48 PUSH1 0x0 SLOAD PUSH1 0x1 SLOAD PUSH1 0x2 SLOAD DUP7 DUP7 PUSH2 0x554E JUMP JUMPDEST SWAP1 POP PUSH1 0x8 SLOAD PUSH8 0xDE0B6B3A7640000 DUP4 PUSH1 0x7 SLOAD PUSH2 0x3B64 SWAP2 SWAP1 PUSH2 0x63C9 JUMP JUMPDEST PUSH2 0x3B6E SWAP2 SWAP1 PUSH2 0x636F JUMP JUMPDEST PUSH2 0x3B78 SWAP2 SWAP1 PUSH2 0x61CD JUMP JUMPDEST DUP7 PUSH2 0x3B83 SWAP2 SWAP1 PUSH2 0x6177 JUMP JUMPDEST SWAP6 POP PUSH1 0x8 SLOAD PUSH8 0xDE0B6B3A7640000 DUP4 PUSH1 0x7 SLOAD PUSH2 0x3B9F SWAP2 SWAP1 PUSH2 0x63C9 JUMP JUMPDEST PUSH2 0x3BA9 SWAP2 SWAP1 PUSH2 0x636F JUMP JUMPDEST PUSH2 0x3BB3 SWAP2 SWAP1 PUSH2 0x61CD JUMP JUMPDEST PUSH1 0xA PUSH1 0x0 DUP3 DUP3 SLOAD PUSH2 0x3BC4 SWAP2 SWAP1 PUSH2 0x6177 JUMP JUMPDEST SWAP3 POP POP DUP2 SWAP1 SSTORE POP PUSH1 0x9 SLOAD PUSH8 0xDE0B6B3A7640000 PUSH1 0x6 SLOAD DUP6 PUSH2 0x3BE5 SWAP2 SWAP1 PUSH2 0x63C9 JUMP JUMPDEST PUSH2 0x3BEF SWAP2 SWAP1 PUSH2 0x636F JUMP JUMPDEST PUSH2 0x3BF9 SWAP2 SWAP1 PUSH2 0x61CD JUMP JUMPDEST DUP6 PUSH2 0x3C04 SWAP2 SWAP1 PUSH2 0x63C9 JUMP JUMPDEST SWAP5 POP PUSH1 0x0 PUSH1 0x9 SLOAD SWAP1 POP PUSH1 0x0 PUSH1 0x8 SLOAD SWAP1 POP DUP4 PUSH1 0x5 SLOAD DUP3 PUSH2 0x3C23 SWAP2 SWAP1 PUSH2 0x636F JUMP JUMPDEST PUSH2 0x3C2D SWAP2 SWAP1 PUSH2 0x61CD JUMP JUMPDEST PUSH1 0x8 DUP2 SWAP1 SSTORE POP DUP5 PUSH1 0x4 SLOAD DUP4 PUSH2 0x3C42 SWAP2 SWAP1 PUSH2 0x636F JUMP JUMPDEST PUSH2 0x3C4C SWAP2 SWAP1 PUSH2 0x61CD JUMP JUMPDEST PUSH1 0x9 DUP2 SWAP1 SSTORE POP PUSH1 0x8 SLOAD DUP3 PUSH1 0x9 SLOAD DUP4 DUP7 PUSH2 0x3C65 SWAP2 SWAP1 PUSH2 0x636F JUMP JUMPDEST PUSH2 0x3C6F SWAP2 SWAP1 PUSH2 0x636F JUMP JUMPDEST PUSH2 0x3C79 SWAP2 SWAP1 PUSH2 0x61CD JUMP JUMPDEST PUSH2 0x3C83 SWAP2 SWAP1 PUSH2 0x61CD JUMP JUMPDEST PUSH1 0x12 DUP2 SWAP1 SSTORE POP PUSH1 0x4 SLOAD PUSH1 0x6 DUP2 SWAP1 SSTORE POP PUSH1 0x5 SLOAD PUSH1 0x7 DUP2 SWAP1 SSTORE POP PUSH2 0x3CAF PUSH1 0x6 SLOAD PUSH1 0x7 SLOAD PUSH1 0x2 SLOAD PUSH1 0x12 SLOAD PUSH2 0x5642 JUMP JUMPDEST PUSH1 0x0 DUP2 SWAP1 SSTORE POP PUSH1 0x0 SLOAD PUSH8 0x1BC16D674EC80000 PUSH2 0x3CCB SWAP2 SWAP1 PUSH2 0x63C9 JUMP JUMPDEST PUSH1 0x1 DUP2 SWAP1 SSTORE POP PUSH2 0x3CD9 PUSH2 0x3648 JUMP JUMPDEST PUSH1 0x4 SLOAD PUSH1 0x6 DUP2 SWAP1 SSTORE POP PUSH1 0x5 SLOAD PUSH1 0x7 DUP2 SWAP1 SSTORE POP POP POP POP PUSH2 0x3DE2 JUMP JUMPDEST PUSH1 0x6 SLOAD PUSH1 0x10 DUP2 SWAP1 SSTORE POP PUSH1 0x7 SLOAD PUSH1 0x11 DUP2 SWAP1 SSTORE POP PUSH8 0xDE0B6B3A7640000 PUSH1 0x9 SLOAD DUP6 PUSH2 0x3D1C SWAP2 SWAP1 PUSH2 0x636F JUMP JUMPDEST PUSH2 0x3D26 SWAP2 SWAP1 PUSH2 0x61CD JUMP JUMPDEST PUSH1 0x6 PUSH1 0x0 DUP3 DUP3 SLOAD PUSH2 0x3D37 SWAP2 SWAP1 PUSH2 0x6177 JUMP JUMPDEST SWAP3 POP POP DUP2 SWAP1 SSTORE POP PUSH2 0x3D52 PUSH1 0x0 SLOAD PUSH1 0x1 SLOAD PUSH1 0x2 SLOAD PUSH1 0x6 SLOAD PUSH2 0x544E JUMP JUMPDEST PUSH1 0x7 DUP2 SWAP1 SSTORE POP PUSH1 0x8 SLOAD PUSH8 0xDE0B6B3A7640000 PUSH1 0x7 SLOAD PUSH1 0x11 SLOAD PUSH2 0x3D74 SWAP2 SWAP1 PUSH2 0x63C9 JUMP JUMPDEST PUSH2 0x3D7E SWAP2 SWAP1 PUSH2 0x636F JUMP JUMPDEST PUSH2 0x3D88 SWAP2 SWAP1 PUSH2 0x61CD JUMP JUMPDEST DUP6 PUSH2 0x3D93 SWAP2 SWAP1 PUSH2 0x6177 JUMP JUMPDEST SWAP5 POP PUSH1 0x8 SLOAD PUSH8 0xDE0B6B3A7640000 PUSH1 0x7 SLOAD PUSH1 0x11 SLOAD PUSH2 0x3DB1 SWAP2 SWAP1 PUSH2 0x63C9 JUMP JUMPDEST PUSH2 0x3DBB SWAP2 SWAP1 PUSH2 0x636F JUMP JUMPDEST PUSH2 0x3DC5 SWAP2 SWAP1 PUSH2 0x61CD JUMP JUMPDEST PUSH1 0xA PUSH1 0x0 DUP3 DUP3 SLOAD PUSH2 0x3DD6 SWAP2 SWAP1 PUSH2 0x6177 JUMP JUMPDEST SWAP3 POP POP DUP2 SWAP1 SSTORE POP PUSH1 0x0 SWAP3 POP JUMPDEST POP POP PUSH2 0x3AB4 JUMP JUMPDEST POP POP PUSH1 0x1 PUSH1 0x29 DUP2 SWAP1 SSTORE POP SWAP2 SWAP1 POP JUMP JUMPDEST PUSH1 0x0 PUSH1 0x1 PUSH1 0x29 SLOAD EQ PUSH2 0x3E3F JUMPI PUSH1 0x40 MLOAD PUSH32 0x8C379A000000000000000000000000000000000000000000000000000000000 DUP2 MSTORE PUSH1 0x4 ADD PUSH2 0x3E36 SWAP1 PUSH2 0x6045 JUMP JUMPDEST PUSH1 0x40 MLOAD DUP1 SWAP2 SUB SWAP1 REVERT JUMPDEST PUSH1 0x0 PUSH1 0x29 DUP2 SWAP1 SSTORE POP PUSH1 0x0 DUP3 SWAP1 POP PUSH1 0x0 PUSH1 0x1 SWAP1 POP JUMPDEST PUSH1 0x1 ISZERO ISZERO DUP2 ISZERO ISZERO EQ ISZERO PUSH2 0x41E7 JUMPI PUSH1 0x0 PUSH8 0xDE0B6B3A7640000 PUSH1 0x13 SLOAD PUSH1 0x4 SLOAD PUSH2 0x3E7B SWAP2 SWAP1 PUSH2 0x636F JUMP JUMPDEST PUSH2 0x3E85 SWAP2 SWAP1 PUSH2 0x61CD JUMP JUMPDEST SWAP1 POP PUSH1 0x0 PUSH2 0x3E9B PUSH1 0x0 SLOAD PUSH1 0x1 SLOAD PUSH1 0x2 SLOAD DUP6 PUSH2 0x577C JUMP JUMPDEST SWAP1 POP PUSH1 0x8 SLOAD PUSH8 0xDE0B6B3A7640000 PUSH1 0x7 SLOAD DUP5 PUSH2 0x3EB7 SWAP2 SWAP1 PUSH2 0x63C9 JUMP JUMPDEST PUSH2 0x3EC1 SWAP2 SWAP1 PUSH2 0x636F JUMP JUMPDEST PUSH2 0x3ECB SWAP2 SWAP1 PUSH2 0x61CD JUMP JUMPDEST DUP5 GT ISZERO PUSH2 0x40D8 JUMPI PUSH1 0x0 PUSH2 0x3EE7 PUSH1 0x0 SLOAD PUSH1 0x1 SLOAD PUSH1 0x2 SLOAD DUP6 DUP8 PUSH2 0x554E JUMP JUMPDEST SWAP1 POP DUP6 PUSH1 0x9 SLOAD PUSH8 0xDE0B6B3A7640000 DUP5 PUSH1 0x6 SLOAD PUSH2 0x3F04 SWAP2 SWAP1 PUSH2 0x63C9 JUMP JUMPDEST PUSH2 0x3F0E SWAP2 SWAP1 PUSH2 0x636F JUMP JUMPDEST PUSH2 0x3F18 SWAP2 SWAP1 PUSH2 0x61CD JUMP JUMPDEST PUSH2 0x3F22 SWAP2 SWAP1 PUSH2 0x6177 JUMP JUMPDEST SWAP6 POP PUSH1 0x8 SLOAD PUSH8 0xDE0B6B3A7640000 PUSH1 0x7 SLOAD DUP6 PUSH2 0x3F3E SWAP2 SWAP1 PUSH2 0x63C9 JUMP JUMPDEST PUSH2 0x3F48 SWAP2 SWAP1 PUSH2 0x636F JUMP JUMPDEST PUSH2 0x3F52 SWAP2 SWAP1 PUSH2 0x61CD JUMP JUMPDEST DUP6 PUSH2 0x3F5D SWAP2 SWAP1 PUSH2 0x63C9 JUMP JUMPDEST SWAP5 POP PUSH1 0x9 SLOAD PUSH8 0xDE0B6B3A7640000 DUP4 PUSH1 0x6 SLOAD PUSH2 0x3F79 SWAP2 SWAP1 PUSH2 0x63C9 JUMP JUMPDEST PUSH2 0x3F83 SWAP2 SWAP1 PUSH2 0x636F JUMP JUMPDEST PUSH2 0x3F8D SWAP2 SWAP1 PUSH2 0x61CD JUMP JUMPDEST PUSH1 0xF PUSH1 0x0 DUP3 DUP3 SLOAD PUSH2 0x3F9E SWAP2 SWAP1 PUSH2 0x63C9 JUMP JUMPDEST SWAP3 POP POP DUP2 SWAP1 SSTORE POP PUSH1 0x8 SLOAD PUSH8 0xDE0B6B3A7640000 PUSH1 0x7 SLOAD DUP6 PUSH2 0x3FBF SWAP2 SWAP1 PUSH2 0x63C9 JUMP JUMPDEST PUSH2 0x3FC9 SWAP2 SWAP1 PUSH2 0x636F JUMP JUMPDEST PUSH2 0x3FD3 SWAP2 SWAP1 PUSH2 0x61CD JUMP JUMPDEST PUSH1 0xE PUSH1 0x0 DUP3 DUP3 SLOAD PUSH2 0x3FE4 SWAP2 SWAP1 PUSH2 0x6177 JUMP JUMPDEST SWAP3 POP POP DUP2 SWAP1 SSTORE POP PUSH1 0x0 PUSH1 0x9 SLOAD SWAP1 POP PUSH1 0x0 PUSH1 0x8 SLOAD SWAP1 POP DUP5 PUSH1 0x5 SLOAD DUP3 PUSH2 0x4008 SWAP2 SWAP1 PUSH2 0x636F JUMP JUMPDEST PUSH2 0x4012 SWAP2 SWAP1 PUSH2 0x61CD JUMP JUMPDEST PUSH1 0x8 DUP2 SWAP1 SSTORE POP DUP4 PUSH1 0x4 SLOAD DUP4 PUSH2 0x4027 SWAP2 SWAP1 PUSH2 0x636F JUMP JUMPDEST PUSH2 0x4031 SWAP2 SWAP1 PUSH2 0x61CD JUMP JUMPDEST PUSH1 0x9 DUP2 SWAP1 SSTORE POP PUSH1 0x8 SLOAD DUP3 PUSH1 0x9 SLOAD DUP4 DUP7 PUSH2 0x404A SWAP2 SWAP1 PUSH2 0x636F JUMP JUMPDEST PUSH2 0x4054 SWAP2 SWAP1 PUSH2 0x636F JUMP JUMPDEST PUSH2 0x405E SWAP2 SWAP1 PUSH2 0x61CD JUMP JUMPDEST PUSH2 0x4068 SWAP2 SWAP1 PUSH2 0x61CD JUMP JUMPDEST PUSH1 0x12 DUP2 SWAP1 SSTORE POP PUSH1 0x4 SLOAD PUSH1 0x6 DUP2 SWAP1 SSTORE POP PUSH1 0x5 SLOAD PUSH1 0x7 DUP2 SWAP1 SSTORE POP PUSH2 0x4094 PUSH1 0x6 SLOAD PUSH1 0x7 SLOAD PUSH1 0x2 SLOAD PUSH1 0x12 SLOAD PUSH2 0x5642 JUMP JUMPDEST PUSH1 0x0 DUP2 SWAP1 SSTORE POP PUSH1 0x0 SLOAD PUSH8 0x1BC16D674EC80000 PUSH2 0x40B0 SWAP2 SWAP1 PUSH2 0x63C9 JUMP JUMPDEST PUSH1 0x1 DUP2 SWAP1 SSTORE POP PUSH2 0x40BE PUSH2 0x3648 JUMP JUMPDEST PUSH1 0x4 SLOAD PUSH1 0x6 DUP2 SWAP1 SSTORE POP PUSH1 0x5 SLOAD PUSH1 0x7 DUP2 SWAP1 SSTORE POP POP POP POP PUSH2 0x41E0 JUMP JUMPDEST PUSH1 0x6 SLOAD PUSH1 0x10 DUP2 SWAP1 SSTORE POP PUSH1 0x7 SLOAD PUSH1 0x11 DUP2 SWAP1 SSTORE POP PUSH8 0xDE0B6B3A7640000 PUSH1 0x8 SLOAD DUP6 PUSH2 0x4101 SWAP2 SWAP1 PUSH2 0x636F JUMP JUMPDEST PUSH2 0x410B SWAP2 SWAP1 PUSH2 0x61CD JUMP JUMPDEST PUSH1 0x7 PUSH1 0x0 DUP3 DUP3 SLOAD PUSH2 0x411C SWAP2 SWAP1 PUSH2 0x6177 JUMP JUMPDEST SWAP3 POP POP DUP2 SWAP1 SSTORE POP PUSH2 0x4137 PUSH1 0x0 SLOAD PUSH1 0x1 SLOAD PUSH1 0x2 SLOAD PUSH1 0x7 SLOAD PUSH2 0x577C JUMP JUMPDEST PUSH1 0x6 DUP2 SWAP1 SSTORE POP PUSH1 0x9 SLOAD PUSH8 0xDE0B6B3A7640000 PUSH1 0x6 SLOAD PUSH1 0x10 SLOAD PUSH2 0x4159 SWAP2 SWAP1 PUSH2 0x63C9 JUMP JUMPDEST PUSH2 0x4163 SWAP2 SWAP1 PUSH2 0x636F JUMP JUMPDEST PUSH2 0x416D SWAP2 SWAP1 PUSH2 0x61CD JUMP JUMPDEST DUP6 PUSH2 0x4178 SWAP2 SWAP1 PUSH2 0x6177 JUMP JUMPDEST SWAP5 POP DUP4 PUSH1 0xE PUSH1 0x0 DUP3 DUP3 SLOAD PUSH2 0x418C SWAP2 SWAP1 PUSH2 0x6177 JUMP JUMPDEST SWAP3 POP POP DUP2 SWAP1 SSTORE POP PUSH1 0x9 SLOAD PUSH8 0xDE0B6B3A7640000 PUSH1 0x6 SLOAD PUSH1 0x10 SLOAD PUSH2 0x41AF SWAP2 SWAP1 PUSH2 0x63C9 JUMP JUMPDEST PUSH2 0x41B9 SWAP2 SWAP1 PUSH2 0x636F JUMP JUMPDEST PUSH2 0x41C3 SWAP2 SWAP1 PUSH2 0x61CD JUMP JUMPDEST PUSH1 0xF PUSH1 0x0 DUP3 DUP3 SLOAD PUSH2 0x41D4 SWAP2 SWAP1 PUSH2 0x63C9 JUMP JUMPDEST SWAP3 POP POP DUP2 SWAP1 SSTORE POP PUSH1 0x0 SWAP3 POP JUMPDEST POP POP PUSH2 0x3E53 JUMP JUMPDEST POP POP PUSH1 0x1 PUSH1 0x29 DUP2 SWAP1 SSTORE POP SWAP2 SWAP1 POP JUMP JUMPDEST PUSH1 0x0 PUSH1 0x1 PUSH1 0x29 SLOAD EQ PUSH2 0x423D JUMPI PUSH1 0x40 MLOAD PUSH32 0x8C379A000000000000000000000000000000000000000000000000000000000 DUP2 MSTORE PUSH1 0x4 ADD PUSH2 0x4234 SWAP1 PUSH2 0x6045 JUMP JUMPDEST PUSH1 0x40 MLOAD DUP1 SWAP2 SUB SWAP1 REVERT JUMPDEST PUSH1 0x0 PUSH1 0x29 DUP2 SWAP1 SSTORE POP PUSH1 0x0 DUP3 SWAP1 POP PUSH1 0x0 PUSH1 0x1 SWAP1 POP JUMPDEST PUSH1 0x1 ISZERO ISZERO DUP2 ISZERO ISZERO EQ ISZERO PUSH2 0x4573 JUMPI PUSH1 0x0 PUSH1 0x13 SLOAD PUSH1 0x4 SLOAD PUSH2 0x4270 SWAP2 SWAP1 PUSH2 0x636F JUMP JUMPDEST SWAP1 POP PUSH1 0x0 PUSH2 0x4286 PUSH1 0x0 SLOAD PUSH1 0x1 SLOAD PUSH1 0x2 SLOAD DUP6 PUSH2 0x577C JUMP JUMPDEST SWAP1 POP PUSH1 0x8 SLOAD PUSH8 0xDE0B6B3A7640000 PUSH1 0x7 SLOAD DUP5 PUSH2 0x42A2 SWAP2 SWAP1 PUSH2 0x63C9 JUMP JUMPDEST PUSH2 0x42AC SWAP2 SWAP1 PUSH2 0x636F JUMP JUMPDEST PUSH2 0x42B6 SWAP2 SWAP1 PUSH2 0x61CD JUMP JUMPDEST DUP5 GT ISZERO PUSH2 0x447D JUMPI PUSH1 0x0 PUSH2 0x42D2 PUSH1 0x0 SLOAD PUSH1 0x1 SLOAD PUSH1 0x2 SLOAD DUP6 DUP8 PUSH2 0x554E JUMP JUMPDEST SWAP1 POP PUSH1 0x9 SLOAD PUSH8 0xDE0B6B3A7640000 DUP4 PUSH1 0x6 SLOAD PUSH2 0x42EE SWAP2 SWAP1 PUSH2 0x63C9 JUMP JUMPDEST PUSH2 0x42F8 SWAP2 SWAP1 PUSH2 0x636F JUMP JUMPDEST PUSH2 0x4302 SWAP2 SWAP1 PUSH2 0x61CD JUMP JUMPDEST DUP7 PUSH2 0x430D SWAP2 SWAP1 PUSH2 0x6177 JUMP JUMPDEST SWAP6 POP PUSH1 0x9 SLOAD PUSH8 0xDE0B6B3A7640000 DUP4 PUSH1 0x6 SLOAD PUSH2 0x4329 SWAP2 SWAP1 PUSH2 0x63C9 JUMP JUMPDEST PUSH2 0x4333 SWAP2 SWAP1 PUSH2 0x636F JUMP JUMPDEST PUSH2 0x433D SWAP2 SWAP1 PUSH2 0x61CD JUMP JUMPDEST PUSH1 0xB PUSH1 0x0 DUP3 DUP3 SLOAD PUSH2 0x434E SWAP2 SWAP1 PUSH2 0x6177 JUMP JUMPDEST SWAP3 POP POP DUP2 SWAP1 SSTORE POP PUSH1 0x8 SLOAD PUSH8 0xDE0B6B3A7640000 PUSH1 0x7 SLOAD DUP6 PUSH2 0x436F SWAP2 SWAP1 PUSH2 0x63C9 JUMP JUMPDEST PUSH2 0x4379 SWAP2 SWAP1 PUSH2 0x636F JUMP JUMPDEST PUSH2 0x4383 SWAP2 SWAP1 PUSH2 0x61CD JUMP JUMPDEST DUP6 PUSH2 0x438E SWAP2 SWAP1 PUSH2 0x63C9 JUMP JUMPDEST SWAP5 POP PUSH1 0x0 PUSH1 0x9 SLOAD SWAP1 POP PUSH1 0x0 PUSH1 0x8 SLOAD SWAP1 POP DUP5 PUSH1 0x5 SLOAD DUP3 PUSH2 0x43AD SWAP2 SWAP1 PUSH2 0x636F JUMP JUMPDEST PUSH2 0x43B7 SWAP2 SWAP1 PUSH2 0x61CD JUMP JUMPDEST PUSH1 0x8 DUP2 SWAP1 SSTORE POP DUP4 PUSH1 0x4 SLOAD DUP4 PUSH2 0x43CC SWAP2 SWAP1 PUSH2 0x636F JUMP JUMPDEST PUSH2 0x43D6 SWAP2 SWAP1 PUSH2 0x61CD JUMP JUMPDEST PUSH1 0x9 DUP2 SWAP1 SSTORE POP PUSH1 0x8 SLOAD DUP3 PUSH1 0x9 SLOAD DUP4 DUP7 PUSH2 0x43EF SWAP2 SWAP1 PUSH2 0x636F JUMP JUMPDEST PUSH2 0x43F9 SWAP2 SWAP1 PUSH2 0x636F JUMP JUMPDEST PUSH2 0x4403 SWAP2 SWAP1 PUSH2 0x61CD JUMP JUMPDEST PUSH2 0x440D SWAP2 SWAP1 PUSH2 0x61CD JUMP JUMPDEST PUSH1 0x12 DUP2 SWAP1 SSTORE POP PUSH1 0x4 SLOAD PUSH1 0x6 DUP2 SWAP1 SSTORE POP PUSH1 0x5 SLOAD PUSH1 0x7 DUP2 SWAP1 SSTORE POP PUSH2 0x4439 PUSH1 0x6 SLOAD PUSH1 0x7 SLOAD PUSH1 0x2 SLOAD PUSH1 0x12 SLOAD PUSH2 0x5642 JUMP JUMPDEST PUSH1 0x0 DUP2 SWAP1 SSTORE POP PUSH1 0x0 SLOAD PUSH8 0x1BC16D674EC80000 PUSH2 0x4455 SWAP2 SWAP1 PUSH2 0x63C9 JUMP JUMPDEST PUSH1 0x1 DUP2 SWAP1 SSTORE POP PUSH2 0x4463 PUSH2 0x3648 JUMP JUMPDEST PUSH1 0x4 SLOAD PUSH1 0x6 DUP2 SWAP1 SSTORE POP PUSH1 0x5 SLOAD PUSH1 0x7 DUP2 SWAP1 SSTORE POP POP POP POP PUSH2 0x456C JUMP JUMPDEST PUSH1 0x6 SLOAD PUSH1 0x10 DUP2 SWAP1 SSTORE POP PUSH1 0x7 SLOAD PUSH1 0x11 DUP2 SWAP1 SSTORE POP PUSH8 0xDE0B6B3A7640000 PUSH1 0x8 SLOAD DUP6 PUSH2 0x44A6 SWAP2 SWAP1 PUSH2 0x636F JUMP JUMPDEST PUSH2 0x44B0 SWAP2 SWAP1 PUSH2 0x61CD JUMP JUMPDEST PUSH1 0x7 PUSH1 0x0 DUP3 DUP3 SLOAD PUSH2 0x44C1 SWAP2 SWAP1 PUSH2 0x6177 JUMP JUMPDEST SWAP3 POP POP DUP2 SWAP1 SSTORE POP PUSH2 0x44DC PUSH1 0x0 SLOAD PUSH1 0x1 SLOAD PUSH1 0x2 SLOAD PUSH1 0x7 SLOAD PUSH2 0x577C JUMP JUMPDEST PUSH1 0x6 DUP2 SWAP1 SSTORE POP PUSH1 0x9 SLOAD PUSH8 0xDE0B6B3A7640000 PUSH1 0x6 SLOAD PUSH1 0x10 SLOAD PUSH2 0x44FE SWAP2 SWAP1 PUSH2 0x63C9 JUMP JUMPDEST PUSH2 0x4508 SWAP2 SWAP1 PUSH2 0x636F JUMP JUMPDEST PUSH2 0x4512 SWAP2 SWAP1 PUSH2 0x61CD JUMP JUMPDEST DUP6 PUSH2 0x451D SWAP2 SWAP1 PUSH2 0x6177 JUMP JUMPDEST SWAP5 POP PUSH1 0x9 SLOAD PUSH8 0xDE0B6B3A7640000 PUSH1 0x6 SLOAD PUSH1 0x10 SLOAD PUSH2 0x453B SWAP2 SWAP1 PUSH2 0x63C9 JUMP JUMPDEST PUSH2 0x4545 SWAP2 SWAP1 PUSH2 0x636F JUMP JUMPDEST PUSH2 0x454F SWAP2 SWAP1 PUSH2 0x61CD JUMP JUMPDEST PUSH1 0xB PUSH1 0x0 DUP3 DUP3 SLOAD PUSH2 0x4560 SWAP2 SWAP1 PUSH2 0x6177 JUMP JUMPDEST SWAP3 POP POP DUP2 SWAP1 SSTORE POP PUSH1 0x0 SWAP3 POP JUMPDEST POP POP PUSH2 0x4251 JUMP JUMPDEST POP POP PUSH1 0x1 PUSH1 0x29 DUP2 SWAP1 SSTORE POP SWAP2 SWAP1 POP JUMP JUMPDEST PUSH1 0x0 DUP2 DUP4 GT PUSH2 0x4591 JUMPI DUP2 PUSH2 0x4593 JUMP JUMPDEST DUP3 JUMPDEST SWAP1 POP SWAP3 SWAP2 POP POP JUMP JUMPDEST PUSH1 0x0 PUSH1 0x1 PUSH1 0x29 SLOAD EQ PUSH2 0x45E2 JUMPI PUSH1 0x40 MLOAD PUSH32 0x8C379A000000000000000000000000000000000000000000000000000000000 DUP2 MSTORE PUSH1 0x4 ADD PUSH2 0x45D9 SWAP1 PUSH2 0x6045 JUMP JUMPDEST PUSH1 0x40 MLOAD DUP1 SWAP2 SUB SWAP1 REVERT JUMPDEST PUSH1 0x0 PUSH1 0x29 DUP2 SWAP1 SSTORE POP PUSH1 0x0 DUP4 SWAP1 POP PUSH1 0x0 PUSH1 0x1 SWAP1 POP JUMPDEST PUSH1 0x1 ISZERO ISZERO DUP2 ISZERO ISZERO EQ ISZERO PUSH2 0x498A JUMPI PUSH1 0x0 PUSH8 0xDE0B6B3A7640000 PUSH1 0x13 SLOAD PUSH1 0x5 SLOAD PUSH2 0x461E SWAP2 SWAP1 PUSH2 0x636F JUMP JUMPDEST PUSH2 0x4628 SWAP2 SWAP1 PUSH2 0x61CD JUMP JUMPDEST SWAP1 POP PUSH1 0x0 PUSH2 0x463E PUSH1 0x0 SLOAD PUSH1 0x1 SLOAD PUSH1 0x2 SLOAD DUP6 PUSH2 0x577C JUMP JUMPDEST SWAP1 POP PUSH1 0x9 SLOAD PUSH8 0xDE0B6B3A7640000 DUP3 PUSH1 0x6 SLOAD PUSH2 0x465A SWAP2 SWAP1 PUSH2 0x63C9 JUMP JUMPDEST PUSH2 0x4664 SWAP2 SWAP1 PUSH2 0x636F JUMP JUMPDEST PUSH2 0x466E SWAP2 SWAP1 PUSH2 0x61CD JUMP JUMPDEST DUP5 GT ISZERO PUSH2 0x487B JUMPI PUSH1 0x0 PUSH2 0x468A PUSH1 0x0 SLOAD PUSH1 0x1 SLOAD PUSH1 0x2 SLOAD DUP6 DUP8 PUSH2 0x554E JUMP JUMPDEST SWAP1 POP PUSH1 0x8 SLOAD PUSH8 0xDE0B6B3A7640000 PUSH1 0x7 SLOAD DUP6 PUSH2 0x46A6 SWAP2 SWAP1 PUSH2 0x63C9 JUMP JUMPDEST PUSH2 0x46B0 SWAP2 SWAP1 PUSH2 0x636F JUMP JUMPDEST PUSH2 0x46BA SWAP2 SWAP1 PUSH2 0x61CD JUMP JUMPDEST DUP7 PUSH2 0x46C5 SWAP2 SWAP1 PUSH2 0x6177 JUMP JUMPDEST SWAP6 POP PUSH1 0x9 SLOAD PUSH8 0xDE0B6B3A7640000 DUP4 PUSH1 0x6 SLOAD PUSH2 0x46E1 SWAP2 SWAP1 PUSH2 0x63C9 JUMP JUMPDEST PUSH2 0x46EB SWAP2 SWAP1 PUSH2 0x636F JUMP JUMPDEST PUSH2 0x46F5 SWAP2 SWAP1 PUSH2 0x61CD JUMP JUMPDEST DUP6 PUSH2 0x4700 SWAP2 SWAP1 PUSH2 0x63C9 JUMP JUMPDEST SWAP5 POP PUSH1 0x8 SLOAD PUSH8 0xDE0B6B3A7640000 PUSH1 0x7 SLOAD DUP6 PUSH2 0x471C SWAP2 SWAP1 PUSH2 0x63C9 JUMP JUMPDEST PUSH2 0x4726 SWAP2 SWAP1 PUSH2 0x636F JUMP JUMPDEST PUSH2 0x4730 SWAP2 SWAP1 PUSH2 0x61CD JUMP JUMPDEST PUSH1 0xE PUSH1 0x0 DUP3 DUP3 SLOAD PUSH2 0x4741 SWAP2 SWAP1 PUSH2 0x6177 JUMP JUMPDEST SWAP3 POP POP DUP2 SWAP1 SSTORE POP PUSH1 0x9 SLOAD PUSH8 0xDE0B6B3A7640000 DUP4 PUSH1 0x6 SLOAD PUSH2 0x4762 SWAP2 SWAP1 PUSH2 0x63C9 JUMP JUMPDEST PUSH2 0x476C SWAP2 SWAP1 PUSH2 0x636F JUMP JUMPDEST PUSH2 0x4776 SWAP2 SWAP1 PUSH2 0x61CD JUMP JUMPDEST PUSH1 0xF PUSH1 0x0 DUP3 DUP3 SLOAD PUSH2 0x4787 SWAP2 SWAP1 PUSH2 0x63C9 JUMP JUMPDEST SWAP3 POP POP DUP2 SWAP1 SSTORE POP PUSH1 0x0 PUSH1 0x9 SLOAD SWAP1 POP PUSH1 0x0 PUSH1 0x8 SLOAD SWAP1 POP DUP5 PUSH1 0x5 SLOAD DUP3 PUSH2 0x47AB SWAP2 SWAP1 PUSH2 0x636F JUMP JUMPDEST PUSH2 0x47B5 SWAP2 SWAP1 PUSH2 0x61CD JUMP JUMPDEST PUSH1 0x8 DUP2 SWAP1 SSTORE POP DUP4 PUSH1 0x4 SLOAD DUP4 PUSH2 0x47CA SWAP2 SWAP1 PUSH2 0x636F JUMP JUMPDEST PUSH2 0x47D4 SWAP2 SWAP1 PUSH2 0x61CD JUMP JUMPDEST PUSH1 0x9 DUP2 SWAP1 SSTORE POP PUSH1 0x8 SLOAD DUP3 PUSH1 0x9 SLOAD DUP4 DUP7 PUSH2 0x47ED SWAP2 SWAP1 PUSH2 0x636F JUMP JUMPDEST PUSH2 0x47F7 SWAP2 SWAP1 PUSH2 0x636F JUMP JUMPDEST PUSH2 0x4801 SWAP2 SWAP1 PUSH2 0x61CD JUMP JUMPDEST PUSH2 0x480B SWAP2 SWAP1 PUSH2 0x61CD JUMP JUMPDEST PUSH1 0x12 DUP2 SWAP1 SSTORE POP PUSH1 0x4 SLOAD PUSH1 0x6 DUP2 SWAP1 SSTORE POP PUSH1 0x5 SLOAD PUSH1 0x7 DUP2 SWAP1 SSTORE POP PUSH2 0x4837 PUSH1 0x6 SLOAD PUSH1 0x7 SLOAD PUSH1 0x2 SLOAD PUSH1 0x12 SLOAD PUSH2 0x5642 JUMP JUMPDEST PUSH1 0x0 DUP2 SWAP1 SSTORE POP PUSH1 0x0 SLOAD PUSH8 0x1BC16D674EC80000 PUSH2 0x4853 SWAP2 SWAP1 PUSH2 0x63C9 JUMP JUMPDEST PUSH1 0x1 DUP2 SWAP1 SSTORE POP PUSH2 0x4861 PUSH2 0x3648 JUMP JUMPDEST PUSH1 0x4 SLOAD PUSH1 0x6 DUP2 SWAP1 SSTORE POP PUSH1 0x5 SLOAD PUSH1 0x7 DUP2 SWAP1 SSTORE POP POP POP POP PUSH2 0x4983 JUMP JUMPDEST PUSH1 0x6 SLOAD PUSH1 0x10 DUP2 SWAP1 SSTORE POP PUSH1 0x7 SLOAD PUSH1 0x11 DUP2 SWAP1 SSTORE POP PUSH8 0xDE0B6B3A7640000 PUSH1 0x9 SLOAD DUP6 PUSH2 0x48A4 SWAP2 SWAP1 PUSH2 0x636F JUMP JUMPDEST PUSH2 0x48AE SWAP2 SWAP1 PUSH2 0x61CD JUMP JUMPDEST PUSH1 0x6 PUSH1 0x0 DUP3 DUP3 SLOAD PUSH2 0x48BF SWAP2 SWAP1 PUSH2 0x63C9 JUMP JUMPDEST SWAP3 POP POP DUP2 SWAP1 SSTORE POP PUSH2 0x48DA PUSH1 0x0 SLOAD PUSH1 0x1 SLOAD PUSH1 0x2 SLOAD PUSH1 0x6 SLOAD PUSH2 0x544E JUMP JUMPDEST PUSH1 0x7 DUP2 SWAP1 SSTORE POP PUSH1 0x8 SLOAD PUSH8 0xDE0B6B3A7640000 PUSH1 0x11 SLOAD PUSH1 0x7 SLOAD PUSH2 0x48FC SWAP2 SWAP1 PUSH2 0x63C9 JUMP JUMPDEST PUSH2 0x4906 SWAP2 SWAP1 PUSH2 0x636F JUMP JUMPDEST PUSH2 0x4910 SWAP2 SWAP1 PUSH2 0x61CD JUMP JUMPDEST DUP6 PUSH2 0x491B SWAP2 SWAP1 PUSH2 0x6177 JUMP JUMPDEST SWAP5 POP PUSH1 0x8 SLOAD PUSH8 0xDE0B6B3A7640000 PUSH1 0x11 SLOAD PUSH1 0x7 SLOAD PUSH2 0x4939 SWAP2 SWAP1 PUSH2 0x63C9 JUMP JUMPDEST PUSH2 0x4943 SWAP2 SWAP1 PUSH2 0x636F JUMP JUMPDEST PUSH2 0x494D SWAP2 SWAP1 PUSH2 0x61CD JUMP JUMPDEST PUSH1 0xE PUSH1 0x0 DUP3 DUP3 SLOAD PUSH2 0x495E SWAP2 SWAP1 PUSH2 0x6177 JUMP JUMPDEST SWAP3 POP POP DUP2 SWAP1 SSTORE POP DUP4 PUSH1 0xF PUSH1 0x0 DUP3 DUP3 SLOAD PUSH2 0x4977 SWAP2 SWAP1 PUSH2 0x63C9 JUMP JUMPDEST SWAP3 POP POP DUP2 SWAP1 SSTORE POP PUSH1 0x0 SWAP3 POP JUMPDEST POP POP PUSH2 0x45F6 JUMP JUMPDEST DUP3 DUP5 GT PUSH2 0x4996 JUMPI PUSH1 0x0 DUP1 REVERT JUMPDEST POP POP PUSH1 0x1 PUSH1 0x29 DUP2 SWAP1 SSTORE POP SWAP3 SWAP2 POP POP JUMP JUMPDEST PUSH1 0x0 DUP1 DUP5 PUSH20 0xFFFFFFFFFFFFFFFFFFFFFFFFFFFFFFFFFFFFFFFF AND PUSH1 0x40 MLOAD DUP1 PUSH1 0x40 ADD PUSH1 0x40 MSTORE DUP1 PUSH1 0x19 DUP2 MSTORE PUSH1 0x20 ADD PUSH32 0x7472616E7366657228616464726573732C75696E743235362900000000000000 DUP2 MSTORE POP DUP1 MLOAD SWAP1 PUSH1 0x20 ADD KECCAK256 DUP6 DUP6 PUSH1 0x40 MLOAD PUSH1 0x24 ADD PUSH2 0x4A10 SWAP3 SWAP2 SWAP1 PUSH2 0x5EDF JUMP JUMPDEST PUSH1 0x40 MLOAD PUSH1 0x20 DUP2 DUP4 SUB SUB DUP2 MSTORE SWAP1 PUSH1 0x40 MSTORE SWAP1 PUSH28 0xFFFFFFFFFFFFFFFFFFFFFFFFFFFFFFFFFFFFFFFFFFFFFFFFFFFFFFFF NOT AND PUSH1 0x20 DUP3 ADD DUP1 MLOAD PUSH28 0xFFFFFFFFFFFFFFFFFFFFFFFFFFFFFFFFFFFFFFFFFFFFFFFFFFFFFFFF DUP4 DUP2 DUP4 AND OR DUP4 MSTORE POP POP POP POP PUSH1 0x40 MLOAD PUSH2 0x4A7A SWAP2 SWAP1 PUSH2 0x5E68 JUMP JUMPDEST PUSH1 0x0 PUSH1 0x40 MLOAD DUP1 DUP4 SUB DUP2 PUSH1 0x0 DUP7 GAS CALL SWAP2 POP POP RETURNDATASIZE DUP1 PUSH1 0x0 DUP2 EQ PUSH2 0x4AB7 JUMPI PUSH1 0x40 MLOAD SWAP2 POP PUSH1 0x1F NOT PUSH1 0x3F RETURNDATASIZE ADD AND DUP3 ADD PUSH1 0x40 MSTORE RETURNDATASIZE DUP3 MSTORE RETURNDATASIZE PUSH1 0x0 PUSH1 0x20 DUP5 ADD RETURNDATACOPY PUSH2 0x4ABC JUMP JUMPDEST PUSH1 0x60 SWAP2 POP JUMPDEST POP SWAP2 POP SWAP2 POP DUP2 DUP1 ISZERO PUSH2 0x4AEA JUMPI POP PUSH1 0x0 DUP2 MLOAD EQ DUP1 PUSH2 0x4AE9 JUMPI POP DUP1 DUP1 PUSH1 0x20 ADD SWAP1 MLOAD DUP2 ADD SWAP1 PUSH2 0x4AE8 SWAP2 SWAP1 PUSH2 0x5ADD JUMP JUMPDEST JUMPDEST JUMPDEST PUSH2 0x4B29 JUMPI PUSH1 0x40 MLOAD PUSH32 0x8C379A000000000000000000000000000000000000000000000000000000000 DUP2 MSTORE PUSH1 0x4 ADD PUSH2 0x4B20 SWAP1 PUSH2 0x5F45 JUMP JUMPDEST PUSH1 0x40 MLOAD DUP1 SWAP2 SUB SWAP1 REVERT JUMPDEST POP POP POP POP POP JUMP JUMPDEST PUSH1 0x0 PUSH1 0x1 PUSH1 0x29 SLOAD EQ PUSH2 0x4B77 JUMPI PUSH1 0x40 MLOAD PUSH32 0x8C379A000000000000000000000000000000000000000000000000000000000 DUP2 MSTORE PUSH1 0x4 ADD PUSH2 0x4B6E SWAP1 PUSH2 0x6045 JUMP JUMPDEST PUSH1 0x40 MLOAD DUP1 SWAP2 SUB SWAP1 REVERT JUMPDEST PUSH1 0x0 PUSH1 0x29 DUP2 SWAP1 SSTORE POP PUSH1 0x0 DUP4 SWAP1 POP PUSH1 0x0 PUSH1 0x1 SWAP1 POP JUMPDEST PUSH1 0x1 ISZERO ISZERO DUP2 ISZERO ISZERO EQ ISZERO PUSH2 0x4F1F JUMPI PUSH1 0x0 PUSH8 0xDE0B6B3A7640000 PUSH1 0x13 SLOAD PUSH1 0x4 SLOAD PUSH2 0x4BB3 SWAP2 SWAP1 PUSH2 0x636F JUMP JUMPDEST PUSH2 0x4BBD SWAP2 SWAP1 PUSH2 0x61CD JUMP JUMPDEST SWAP1 POP PUSH1 0x0 PUSH2 0x4BD3 PUSH1 0x0 SLOAD PUSH1 0x1 SLOAD PUSH1 0x2 SLOAD DUP6 PUSH2 0x544E JUMP JUMPDEST SWAP1 POP PUSH1 0x8 SLOAD PUSH8 0xDE0B6B3A7640000 DUP3 PUSH1 0x7 SLOAD PUSH2 0x4BEF SWAP2 SWAP1 PUSH2 0x63C9 JUMP JUMPDEST PUSH2 0x4BF9 SWAP2 SWAP1 PUSH2 0x636F JUMP JUMPDEST PUSH2 0x4C03 SWAP2 SWAP1 PUSH2 0x61CD JUMP JUMPDEST DUP5 GT ISZERO PUSH2 0x4E10 JUMPI PUSH1 0x0 PUSH2 0x4C1F PUSH1 0x0 SLOAD PUSH1 0x1 SLOAD PUSH1 0x2 SLOAD DUP7 DUP7 PUSH2 0x554E JUMP JUMPDEST SWAP1 POP PUSH1 0x9 SLOAD PUSH8 0xDE0B6B3A7640000 PUSH1 0x6 SLOAD DUP6 PUSH2 0x4C3B SWAP2 SWAP1 PUSH2 0x63C9 JUMP JUMPDEST PUSH2 0x4C45 SWAP2 SWAP1 PUSH2 0x636F JUMP JUMPDEST PUSH2 0x4C4F SWAP2 SWAP1 PUSH2 0x61CD JUMP JUMPDEST DUP7 PUSH2 0x4C5A SWAP2 SWAP1 PUSH2 0x6177 JUMP JUMPDEST SWAP6 POP PUSH1 0x8 SLOAD PUSH8 0xDE0B6B3A7640000 DUP4 PUSH1 0x7 SLOAD PUSH2 0x4C76 SWAP2 SWAP1 PUSH2 0x63C9 JUMP JUMPDEST PUSH2 0x4C80 SWAP2 SWAP1 PUSH2 0x636F JUMP JUMPDEST PUSH2 0x4C8A SWAP2 SWAP1 PUSH2 0x61CD JUMP JUMPDEST DUP6 PUSH2 0x4C95 SWAP2 SWAP1 PUSH2 0x63C9 JUMP JUMPDEST SWAP5 POP PUSH1 0x9 SLOAD PUSH8 0xDE0B6B3A7640000 PUSH1 0x6 SLOAD DUP6 PUSH2 0x4CB1 SWAP2 SWAP1 PUSH2 0x63C9 JUMP JUMPDEST PUSH2 0x4CBB SWAP2 SWAP1 PUSH2 0x636F JUMP JUMPDEST PUSH2 0x4CC5 SWAP2 SWAP1 PUSH2 0x61CD JUMP JUMPDEST PUSH1 0xF PUSH1 0x0 DUP3 DUP3 SLOAD PUSH2 0x4CD6 SWAP2 SWAP1 PUSH2 0x6177 JUMP JUMPDEST SWAP3 POP POP DUP2 SWAP1 SSTORE POP PUSH1 0x8 SLOAD PUSH8 0xDE0B6B3A7640000 DUP4 PUSH1 0x7 SLOAD PUSH2 0x4CF7 SWAP2 SWAP1 PUSH2 0x63C9 JUMP JUMPDEST PUSH2 0x4D01 SWAP2 SWAP1 PUSH2 0x636F JUMP JUMPDEST PUSH2 0x4D0B SWAP2 SWAP1 PUSH2 0x61CD JUMP JUMPDEST PUSH1 0xE PUSH1 0x0 DUP3 DUP3 SLOAD PUSH2 0x4D1C SWAP2 SWAP1 PUSH2 0x63C9 JUMP JUMPDEST SWAP3 POP POP DUP2 SWAP1 SSTORE POP PUSH1 0x0 PUSH1 0x9 SLOAD SWAP1 POP PUSH1 0x0 PUSH1 0x8 SLOAD SWAP1 POP DUP4 PUSH1 0x5 SLOAD DUP3 PUSH2 0x4D40 SWAP2 SWAP1 PUSH2 0x636F JUMP JUMPDEST PUSH2 0x4D4A SWAP2 SWAP1 PUSH2 0x61CD JUMP JUMPDEST PUSH1 0x8 DUP2 SWAP1 SSTORE POP DUP5 PUSH1 0x4 SLOAD DUP4 PUSH2 0x4D5F SWAP2 SWAP1 PUSH2 0x636F JUMP JUMPDEST PUSH2 0x4D69 SWAP2 SWAP1 PUSH2 0x61CD JUMP JUMPDEST PUSH1 0x9 DUP2 SWAP1 SSTORE POP PUSH1 0x8 SLOAD DUP3 PUSH1 0x9 SLOAD DUP4 DUP7 PUSH2 0x4D82 SWAP2 SWAP1 PUSH2 0x636F JUMP JUMPDEST PUSH2 0x4D8C SWAP2 SWAP1 PUSH2 0x636F JUMP JUMPDEST PUSH2 0x4D96 SWAP2 SWAP1 PUSH2 0x61CD JUMP JUMPDEST PUSH2 0x4DA0 SWAP2 SWAP1 PUSH2 0x61CD JUMP JUMPDEST PUSH1 0x12 DUP2 SWAP1 SSTORE POP PUSH1 0x4 SLOAD PUSH1 0x6 DUP2 SWAP1 SSTORE POP PUSH1 0x5 SLOAD PUSH1 0x7 DUP2 SWAP1 SSTORE POP PUSH2 0x4DCC PUSH1 0x6 SLOAD PUSH1 0x7 SLOAD PUSH1 0x2 SLOAD PUSH1 0x12 SLOAD PUSH2 0x5642 JUMP JUMPDEST PUSH1 0x0 DUP2 SWAP1 SSTORE POP PUSH1 0x0 SLOAD PUSH8 0x1BC16D674EC80000 PUSH2 0x4DE8 SWAP2 SWAP1 PUSH2 0x63C9 JUMP JUMPDEST PUSH1 0x1 DUP2 SWAP1 SSTORE POP PUSH2 0x4DF6 PUSH2 0x3648 JUMP JUMPDEST PUSH1 0x4 SLOAD PUSH1 0x6 DUP2 SWAP1 SSTORE POP PUSH1 0x5 SLOAD PUSH1 0x7 DUP2 SWAP1 SSTORE POP POP POP POP PUSH2 0x4F18 JUMP JUMPDEST PUSH1 0x6 SLOAD PUSH1 0x10 DUP2 SWAP1 SSTORE POP PUSH1 0x7 SLOAD PUSH1 0x11 DUP2 SWAP1 SSTORE POP PUSH8 0xDE0B6B3A7640000 PUSH1 0x8 SLOAD DUP6 PUSH2 0x4E39 SWAP2 SWAP1 PUSH2 0x636F JUMP JUMPDEST PUSH2 0x4E43 SWAP2 SWAP1 PUSH2 0x61CD JUMP JUMPDEST PUSH1 0x7 PUSH1 0x0 DUP3 DUP3 SLOAD PUSH2 0x4E54 SWAP2 SWAP1 PUSH2 0x63C9 JUMP JUMPDEST SWAP3 POP POP DUP2 SWAP1 SSTORE POP PUSH2 0x4E6F PUSH1 0x0 SLOAD PUSH1 0x1 SLOAD PUSH1 0x2 SLOAD PUSH1 0x7 SLOAD PUSH2 0x577C JUMP JUMPDEST PUSH1 0x6 DUP2 SWAP1 SSTORE POP PUSH1 0x9 SLOAD PUSH8 0xDE0B6B3A7640000 PUSH1 0x10 SLOAD PUSH1 0x6 SLOAD PUSH2 0x4E91 SWAP2 SWAP1 PUSH2 0x63C9 JUMP JUMPDEST PUSH2 0x4E9B SWAP2 SWAP1 PUSH2 0x636F JUMP JUMPDEST PUSH2 0x4EA5 SWAP2 SWAP1 PUSH2 0x61CD JUMP JUMPDEST DUP6 PUSH2 0x4EB0 SWAP2 SWAP1 PUSH2 0x6177 JUMP JUMPDEST SWAP5 POP PUSH1 0x9 SLOAD PUSH8 0xDE0B6B3A7640000 PUSH1 0x10 SLOAD PUSH1 0x6 SLOAD PUSH2 0x4ECE SWAP2 SWAP1 PUSH2 0x63C9 JUMP JUMPDEST PUSH2 0x4ED8 SWAP2 SWAP1 PUSH2 0x636F JUMP JUMPDEST PUSH2 0x4EE2 SWAP2 SWAP1 PUSH2 0x61CD JUMP JUMPDEST PUSH1 0xF PUSH1 0x0 DUP3 DUP3 SLOAD PUSH2 0x4EF3 SWAP2 SWAP1 PUSH2 0x6177 JUMP JUMPDEST SWAP3 POP POP DUP2 SWAP1 SSTORE POP DUP4 PUSH1 0xE PUSH1 0x0 DUP3 DUP3 SLOAD PUSH2 0x4F0C SWAP2 SWAP1 PUSH2 0x63C9 JUMP JUMPDEST SWAP3 POP POP DUP2 SWAP1 SSTORE POP PUSH1 0x0 SWAP3 POP JUMPDEST POP POP PUSH2 0x4B8B JUMP JUMPDEST DUP3 DUP5 GT PUSH2 0x4F2B JUMPI PUSH1 0x0 DUP1 REVERT JUMPDEST POP POP PUSH1 0x1 PUSH1 0x29 DUP2 SWAP1 SSTORE POP SWAP3 SWAP2 POP POP JUMP JUMPDEST PUSH1 0x0 PUSH1 0x1 PUSH1 0x29 SLOAD EQ PUSH2 0x4F82 JUMPI PUSH1 0x40 MLOAD PUSH32 0x8C379A000000000000000000000000000000000000000000000000000000000 DUP2 MSTORE PUSH1 0x4 ADD PUSH2 0x4F79 SWAP1 PUSH2 0x6045 JUMP JUMPDEST PUSH1 0x40 MLOAD DUP1 SWAP2 SUB SWAP1 REVERT JUMPDEST PUSH1 0x0 PUSH1 0x29 DUP2 SWAP1 SSTORE POP PUSH1 0x0 DUP3 SWAP1 POP PUSH1 0x0 PUSH1 0x1 SWAP1 POP JUMPDEST PUSH1 0x1 ISZERO ISZERO DUP2 ISZERO ISZERO EQ ISZERO PUSH2 0x532A JUMPI PUSH1 0x0 PUSH8 0xDE0B6B3A7640000 PUSH1 0x13 SLOAD PUSH1 0x4 SLOAD PUSH2 0x4FBE SWAP2 SWAP1 PUSH2 0x636F JUMP JUMPDEST PUSH2 0x4FC8 SWAP2 SWAP1 PUSH2 0x61CD JUMP JUMPDEST SWAP1 POP PUSH1 0x0 PUSH2 0x4FDE PUSH1 0x0 SLOAD PUSH1 0x1 SLOAD PUSH1 0x2 SLOAD DUP6 PUSH2 0x544E JUMP JUMPDEST SWAP1 POP PUSH1 0x9 SLOAD PUSH8 0xDE0B6B3A7640000 PUSH1 0x6 SLOAD DUP5 PUSH2 0x4FFA SWAP2 SWAP1 PUSH2 0x63C9 JUMP JUMPDEST PUSH2 0x5004 SWAP2 SWAP1 PUSH2 0x636F JUMP JUMPDEST PUSH2 0x500E SWAP2 SWAP1 PUSH2 0x61CD JUMP JUMPDEST DUP5 GT ISZERO PUSH2 0x521B JUMPI PUSH1 0x0 PUSH2 0x502A PUSH1 0x0 SLOAD PUSH1 0x1 SLOAD PUSH1 0x2 SLOAD DUP7 DUP7 PUSH2 0x554E JUMP JUMPDEST SWAP1 POP PUSH1 0x8 SLOAD PUSH8 0xDE0B6B3A7640000 DUP4 PUSH1 0x7 SLOAD PUSH2 0x5046 SWAP2 SWAP1 PUSH2 0x63C9 JUMP JUMPDEST PUSH2 0x5050 SWAP2 SWAP1 PUSH2 0x636F JUMP JUMPDEST PUSH2 0x505A SWAP2 SWAP1 PUSH2 0x61CD JUMP JUMPDEST DUP7 PUSH2 0x5065 SWAP2 SWAP1 PUSH2 0x6177 JUMP JUMPDEST SWAP6 POP PUSH1 0x9 SLOAD PUSH8 0xDE0B6B3A7640000 PUSH1 0x6 SLOAD DUP6 PUSH2 0x5081 SWAP2 SWAP1 PUSH2 0x63C9 JUMP JUMPDEST PUSH2 0x508B SWAP2 SWAP1 PUSH2 0x636F JUMP JUMPDEST PUSH2 0x5095 SWAP2 SWAP1 PUSH2 0x61CD JUMP JUMPDEST DUP6 PUSH2 0x50A0 SWAP2 SWAP1 PUSH2 0x63C9 JUMP JUMPDEST SWAP5 POP PUSH1 0x9 SLOAD PUSH8 0xDE0B6B3A7640000 PUSH1 0x6 SLOAD DUP6 PUSH2 0x50BC SWAP2 SWAP1 PUSH2 0x63C9 JUMP JUMPDEST PUSH2 0x50C6 SWAP2 SWAP1 PUSH2 0x636F JUMP JUMPDEST PUSH2 0x50D0 SWAP2 SWAP1 PUSH2 0x61CD JUMP JUMPDEST PUSH1 0xF PUSH1 0x0 DUP3 DUP3 SLOAD PUSH2 0x50E1 SWAP2 SWAP1 PUSH2 0x6177 JUMP JUMPDEST SWAP3 POP POP DUP2 SWAP1 SSTORE POP PUSH1 0x8 SLOAD PUSH8 0xDE0B6B3A7640000 DUP4 PUSH1 0x7 SLOAD PUSH2 0x5102 SWAP2 SWAP1 PUSH2 0x63C9 JUMP JUMPDEST PUSH2 0x510C SWAP2 SWAP1 PUSH2 0x636F JUMP JUMPDEST PUSH2 0x5116 SWAP2 SWAP1 PUSH2 0x61CD JUMP JUMPDEST PUSH1 0xE PUSH1 0x0 DUP3 DUP3 SLOAD PUSH2 0x5127 SWAP2 SWAP1 PUSH2 0x63C9 JUMP JUMPDEST SWAP3 POP POP DUP2 SWAP1 SSTORE POP PUSH1 0x0 PUSH1 0x9 SLOAD SWAP1 POP PUSH1 0x0 PUSH1 0x8 SLOAD SWAP1 POP DUP4 PUSH1 0x5 SLOAD DUP3 PUSH2 0x514B SWAP2 SWAP1 PUSH2 0x636F JUMP JUMPDEST PUSH2 0x5155 SWAP2 SWAP1 PUSH2 0x61CD JUMP JUMPDEST PUSH1 0x8 DUP2 SWAP1 SSTORE POP DUP5 PUSH1 0x4 SLOAD DUP4 PUSH2 0x516A SWAP2 SWAP1 PUSH2 0x636F JUMP JUMPDEST PUSH2 0x5174 SWAP2 SWAP1 PUSH2 0x61CD JUMP JUMPDEST PUSH1 0x9 DUP2 SWAP1 SSTORE POP PUSH1 0x8 SLOAD DUP3 PUSH1 0x9 SLOAD DUP4 DUP7 PUSH2 0x518D SWAP2 SWAP1 PUSH2 0x636F JUMP JUMPDEST PUSH2 0x5197 SWAP2 SWAP1 PUSH2 0x636F JUMP JUMPDEST PUSH2 0x51A1 SWAP2 SWAP1 PUSH2 0x61CD JUMP JUMPDEST PUSH2 0x51AB SWAP2 SWAP1 PUSH2 0x61CD JUMP JUMPDEST PUSH1 0x12 DUP2 SWAP1 SSTORE POP PUSH1 0x4 SLOAD PUSH1 0x6 DUP2 SWAP1 SSTORE POP PUSH1 0x5 SLOAD PUSH1 0x7 DUP2 SWAP1 SSTORE POP PUSH2 0x51D7 PUSH1 0x6 SLOAD PUSH1 0x7 SLOAD PUSH1 0x2 SLOAD PUSH1 0x12 SLOAD PUSH2 0x5642 JUMP JUMPDEST PUSH1 0x0 DUP2 SWAP1 SSTORE POP PUSH1 0x0 SLOAD PUSH8 0x1BC16D674EC80000 PUSH2 0x51F3 SWAP2 SWAP1 PUSH2 0x63C9 JUMP JUMPDEST PUSH1 0x1 DUP2 SWAP1 SSTORE POP PUSH2 0x5201 PUSH2 0x3648 JUMP JUMPDEST PUSH1 0x4 SLOAD PUSH1 0x6 DUP2 SWAP1 SSTORE POP PUSH1 0x5 SLOAD PUSH1 0x7 DUP2 SWAP1 SSTORE POP POP POP POP PUSH2 0x5323 JUMP JUMPDEST PUSH1 0x6 SLOAD PUSH1 0x10 DUP2 SWAP1 SSTORE POP PUSH1 0x7 SLOAD PUSH1 0x11 DUP2 SWAP1 SSTORE POP PUSH8 0xDE0B6B3A7640000 PUSH1 0x9 SLOAD DUP6 PUSH2 0x5244 SWAP2 SWAP1 PUSH2 0x636F JUMP JUMPDEST PUSH2 0x524E SWAP2 SWAP1 PUSH2 0x61CD JUMP JUMPDEST PUSH1 0x6 PUSH1 0x0 DUP3 DUP3 SLOAD PUSH2 0x525F SWAP2 SWAP1 PUSH2 0x6177 JUMP JUMPDEST SWAP3 POP POP DUP2 SWAP1 SSTORE POP PUSH2 0x527A PUSH1 0x0 SLOAD PUSH1 0x1 SLOAD PUSH1 0x2 SLOAD PUSH1 0x6 SLOAD PUSH2 0x544E JUMP JUMPDEST PUSH1 0x7 DUP2 SWAP1 SSTORE POP PUSH1 0x8 SLOAD PUSH8 0xDE0B6B3A7640000 PUSH1 0x7 SLOAD PUSH1 0x11 SLOAD PUSH2 0x529C SWAP2 SWAP1 PUSH2 0x63C9 JUMP JUMPDEST PUSH2 0x52A6 SWAP2 SWAP1 PUSH2 0x636F JUMP JUMPDEST PUSH2 0x52B0 SWAP2 SWAP1 PUSH2 0x61CD JUMP JUMPDEST DUP6 PUSH2 0x52BB SWAP2 SWAP1 PUSH2 0x6177 JUMP JUMPDEST SWAP5 POP DUP4 PUSH1 0xF PUSH1 0x0 DUP3 DUP3 SLOAD PUSH2 0x52CF SWAP2 SWAP1 PUSH2 0x6177 JUMP JUMPDEST SWAP3 POP POP DUP2 SWAP1 SSTORE POP PUSH1 0x8 SLOAD PUSH8 0xDE0B6B3A7640000 PUSH1 0x7 SLOAD PUSH1 0x11 SLOAD PUSH2 0x52F2 SWAP2 SWAP1 PUSH2 0x63C9 JUMP JUMPDEST PUSH2 0x52FC SWAP2 SWAP1 PUSH2 0x636F JUMP JUMPDEST PUSH2 0x5306 SWAP2 SWAP1 PUSH2 0x61CD JUMP JUMPDEST PUSH1 0xE PUSH1 0x0 DUP3 DUP3 SLOAD PUSH2 0x5317 SWAP2 SWAP1 PUSH2 0x63C9 JUMP JUMPDEST SWAP3 POP POP DUP2 SWAP1 SSTORE POP PUSH1 0x0 SWAP3 POP JUMPDEST POP POP PUSH2 0x4F96 JUMP JUMPDEST POP POP PUSH1 0x1 PUSH1 0x29 DUP2 SWAP1 SSTORE POP SWAP2 SWAP1 POP JUMP JUMPDEST PUSH1 0x0 DUP3 DUP3 DUP5 PUSH2 0x5348 SWAP2 SWAP1 PUSH2 0x63C9 JUMP JUMPDEST SWAP2 POP DUP2 GT ISZERO PUSH2 0x538C JUMPI PUSH1 0x40 MLOAD PUSH32 0x8C379A000000000000000000000000000000000000000000000000000000000 DUP2 MSTORE PUSH1 0x4 ADD PUSH2 0x5383 SWAP1 PUSH2 0x5F65 JUMP JUMPDEST PUSH1 0x40 MLOAD DUP1 SWAP2 SUB SWAP1 REVERT JUMPDEST SWAP3 SWAP2 POP POP JUMP JUMPDEST PUSH1 0x0 PUSH1 0x8 DUP3 GT ISZERO PUSH2 0x5410 JUMPI DUP2 SWAP1 POP PUSH1 0x0 PUSH1 0x1 PUSH1 0x3 DUP5 PUSH2 0x53B1 SWAP2 SWAP1 PUSH2 0x61CD JUMP JUMPDEST PUSH2 0x53BB SWAP2 SWAP1 PUSH2 0x6177 JUMP JUMPDEST SWAP1 POP JUMPDEST DUP2 DUP2 LT ISZERO PUSH2 0x540A JUMPI DUP1 SWAP2 POP PUSH1 0x3 DUP2 PUSH1 0x2 PUSH2 0x53D8 SWAP2 SWAP1 PUSH2 0x636F JUMP JUMPDEST DUP3 DUP4 PUSH2 0x53E4 SWAP2 SWAP1 PUSH2 0x636F JUMP JUMPDEST DUP6 PUSH2 0x53EF SWAP2 SWAP1 PUSH2 0x61CD JUMP JUMPDEST PUSH2 0x53F9 SWAP2 SWAP1 PUSH2 0x6177 JUMP JUMPDEST PUSH2 0x5403 SWAP2 SWAP1 PUSH2 0x61CD JUMP JUMPDEST SWAP1 POP PUSH2 0x53BE JUMP JUMPDEST POP PUSH2 0x541E JUMP JUMPDEST PUSH1 0x0 DUP3 EQ PUSH2 0x541D JUMPI PUSH1 0x1 SWAP1 POP JUMPDEST JUMPDEST SWAP2 SWAP1 POP JUMP JUMPDEST PUSH1 0x0 DUP3 DUP5 LT PUSH2 0x5432 JUMPI DUP3 PUSH2 0x5434 JUMP JUMPDEST DUP4 JUMPDEST SWAP4 POP DUP2 DUP5 LT PUSH2 0x5443 JUMPI DUP2 PUSH2 0x5445 JUMP JUMPDEST DUP4 JUMPDEST SWAP1 POP SWAP4 SWAP3 POP POP POP JUMP JUMPDEST PUSH1 0x0 DUP2 DUP5 PUSH1 0x8 PUSH2 0x545E SWAP2 SWAP1 PUSH2 0x636F JUMP JUMPDEST PUSH2 0x5468 SWAP2 SWAP1 PUSH2 0x636F JUMP JUMPDEST PUSH2 0x5501 PUSH8 0xDE0B6B3A7640000 DUP6 DUP7 DUP8 PUSH2 0x5481 SWAP2 SWAP1 PUSH2 0x636F JUMP JUMPDEST PUSH2 0x548B SWAP2 SWAP1 PUSH2 0x636F JUMP JUMPDEST PUSH1 0x0 PUSH2 0x5497 SWAP2 SWAP1 PUSH2 0x63C9 JUMP JUMPDEST DUP6 DUP9 PUSH1 0x10 PUSH2 0x54A5 SWAP2 SWAP1 PUSH2 0x636F JUMP JUMPDEST PUSH2 0x54AF SWAP2 SWAP1 PUSH2 0x636F JUMP JUMPDEST PUSH2 0x54B9 SWAP2 SWAP1 PUSH2 0x636F JUMP JUMPDEST PUSH2 0x54C3 SWAP2 SWAP1 PUSH2 0x636F JUMP JUMPDEST PUSH1 0x2 DUP6 DUP7 DUP11 PUSH1 0x4 PUSH2 0x54D4 SWAP2 SWAP1 PUSH2 0x636F JUMP JUMPDEST PUSH2 0x54DE SWAP2 SWAP1 PUSH2 0x636F JUMP JUMPDEST PUSH2 0x54E8 SWAP2 SWAP1 PUSH2 0x636F JUMP JUMPDEST PUSH2 0x54F2 SWAP2 SWAP1 PUSH2 0x6251 JUMP JUMPDEST PUSH2 0x54FC SWAP2 SWAP1 PUSH2 0x63C9 JUMP JUMPDEST PUSH2 0x587C JUMP JUMPDEST DUP4 DUP5 DUP9 PUSH1 0x4 PUSH2 0x5510 SWAP2 SWAP1 PUSH2 0x636F JUMP JUMPDEST PUSH2 0x551A SWAP2 SWAP1 PUSH2 0x636F JUMP JUMPDEST PUSH2 0x5524 SWAP2 SWAP1 PUSH2 0x636F JUMP JUMPDEST PUSH1 0x0 PUSH2 0x5530 SWAP2 SWAP1 PUSH2 0x63C9 JUMP JUMPDEST PUSH2 0x553A SWAP2 SWAP1 PUSH2 0x6177 JUMP JUMPDEST PUSH2 0x5544 SWAP2 SWAP1 PUSH2 0x61CD JUMP JUMPDEST SWAP1 POP SWAP5 SWAP4 POP POP POP POP JUMP JUMPDEST PUSH1 0x0 DUP2 DUP5 DUP6 DUP7 PUSH2 0x555E SWAP2 SWAP1 PUSH2 0x636F JUMP JUMPDEST PUSH2 0x5568 SWAP2 SWAP1 PUSH2 0x636F JUMP JUMPDEST PUSH2 0x5572 SWAP2 SWAP1 PUSH2 0x636F JUMP JUMPDEST DUP3 DUP4 DUP6 DUP7 DUP11 PUSH1 0x4 PUSH2 0x5583 SWAP2 SWAP1 PUSH2 0x636F JUMP JUMPDEST PUSH2 0x558D SWAP2 SWAP1 PUSH2 0x636F JUMP JUMPDEST PUSH2 0x5597 SWAP2 SWAP1 PUSH2 0x636F JUMP JUMPDEST PUSH2 0x55A1 SWAP2 SWAP1 PUSH2 0x636F JUMP JUMPDEST PUSH2 0x55AB SWAP2 SWAP1 PUSH2 0x636F JUMP JUMPDEST PUSH2 0x55B5 SWAP2 SWAP1 PUSH2 0x6177 JUMP JUMPDEST PUSH8 0xDE0B6B3A7640000 DUP5 DUP7 DUP8 DUP9 PUSH2 0x55CC SWAP2 SWAP1 PUSH2 0x636F JUMP JUMPDEST PUSH2 0x55D6 SWAP2 SWAP1 PUSH2 0x636F JUMP JUMPDEST PUSH2 0x55E0 SWAP2 SWAP1 PUSH2 0x636F JUMP JUMPDEST DUP5 DUP6 DUP8 DUP9 DUP12 PUSH1 0x4 PUSH2 0x55F1 SWAP2 SWAP1 PUSH2 0x636F JUMP JUMPDEST PUSH2 0x55FB SWAP2 SWAP1 PUSH2 0x636F JUMP JUMPDEST PUSH2 0x5605 SWAP2 SWAP1 PUSH2 0x636F JUMP JUMPDEST PUSH2 0x560F SWAP2 SWAP1 PUSH2 0x636F JUMP JUMPDEST PUSH2 0x5619 SWAP2 SWAP1 PUSH2 0x636F JUMP JUMPDEST PUSH2 0x5623 SWAP2 SWAP1 PUSH2 0x6177 JUMP JUMPDEST PUSH2 0x562D SWAP2 SWAP1 PUSH2 0x636F JUMP JUMPDEST PUSH2 0x5637 SWAP2 SWAP1 PUSH2 0x61CD JUMP JUMPDEST SWAP1 POP SWAP6 SWAP5 POP POP POP POP POP JUMP JUMPDEST PUSH1 0x0 DUP2 PUSH8 0xDE0B6B3A7640000 PUSH2 0x5658 SWAP2 SWAP1 PUSH2 0x6177 JUMP JUMPDEST DUP5 DUP6 DUP8 DUP9 PUSH1 0x4 PUSH2 0x5668 SWAP2 SWAP1 PUSH2 0x636F JUMP JUMPDEST PUSH2 0x5672 SWAP2 SWAP1 PUSH2 0x636F JUMP JUMPDEST PUSH2 0x567C SWAP2 SWAP1 PUSH2 0x636F JUMP JUMPDEST PUSH2 0x5686 SWAP2 SWAP1 PUSH2 0x636F JUMP JUMPDEST PUSH2 0x5690 SWAP2 SWAP1 PUSH2 0x636F JUMP JUMPDEST PUSH8 0xDE0B6B3A7640000 DUP4 DUP7 DUP7 DUP8 DUP9 PUSH2 0x56A8 SWAP2 SWAP1 PUSH2 0x636F JUMP JUMPDEST PUSH2 0x56B2 SWAP2 SWAP1 PUSH2 0x636F JUMP JUMPDEST PUSH2 0x56BC SWAP2 SWAP1 PUSH2 0x636F JUMP JUMPDEST PUSH2 0x56C6 SWAP2 SWAP1 PUSH2 0x636F JUMP JUMPDEST PUSH2 0x56D0 SWAP2 SWAP1 PUSH2 0x636F JUMP JUMPDEST PUSH15 0xC097CE7BC90715B34B9F1000000000 DUP8 DUP7 DUP8 DUP9 PUSH2 0x56EE SWAP2 SWAP1 PUSH2 0x636F JUMP JUMPDEST PUSH2 0x56F8 SWAP2 SWAP1 PUSH2 0x636F JUMP JUMPDEST PUSH2 0x5702 SWAP2 SWAP1 PUSH2 0x636F JUMP JUMPDEST PUSH2 0x570C SWAP2 SWAP1 PUSH2 0x636F JUMP JUMPDEST PUSH15 0xC097CE7BC90715B34B9F1000000000 DUP8 DUP9 DUP11 DUP12 PUSH1 0x8 PUSH2 0x572C SWAP2 SWAP1 PUSH2 0x636F JUMP JUMPDEST PUSH2 0x5736 SWAP2 SWAP1 PUSH2 0x636F JUMP JUMPDEST PUSH2 0x5740 SWAP2 SWAP1 PUSH2 0x636F JUMP JUMPDEST PUSH2 0x574A SWAP2 SWAP1 PUSH2 0x636F JUMP JUMPDEST PUSH2 0x5754 SWAP2 SWAP1 PUSH2 0x636F JUMP JUMPDEST PUSH2 0x575E SWAP2 SWAP1 PUSH2 0x6177 JUMP JUMPDEST PUSH2 0x5768 SWAP2 SWAP1 PUSH2 0x63C9 JUMP JUMPDEST PUSH2 0x5772 SWAP2 SWAP1 PUSH2 0x61CD JUMP JUMPDEST SWAP1 POP SWAP5 SWAP4 POP POP POP POP JUMP JUMPDEST PUSH1 0x0 DUP2 DUP6 PUSH1 0x8 PUSH2 0x578C SWAP2 SWAP1 PUSH2 0x636F JUMP JUMPDEST PUSH2 0x5796 SWAP2 SWAP1 PUSH2 0x636F JUMP JUMPDEST PUSH2 0x582F PUSH8 0xDE0B6B3A7640000 DUP6 DUP7 DUP8 PUSH2 0x57AF SWAP2 SWAP1 PUSH2 0x636F JUMP JUMPDEST PUSH2 0x57B9 SWAP2 SWAP1 PUSH2 0x636F JUMP JUMPDEST PUSH1 0x0 PUSH2 0x57C5 SWAP2 SWAP1 PUSH2 0x63C9 JUMP JUMPDEST DUP6 DUP10 PUSH1 0x10 PUSH2 0x57D3 SWAP2 SWAP1 PUSH2 0x636F JUMP JUMPDEST PUSH2 0x57DD SWAP2 SWAP1 PUSH2 0x636F JUMP JUMPDEST PUSH2 0x57E7 SWAP2 SWAP1 PUSH2 0x636F JUMP JUMPDEST PUSH2 0x57F1 SWAP2 SWAP1 PUSH2 0x636F JUMP JUMPDEST PUSH1 0x2 DUP6 DUP7 DUP10 PUSH1 0x4 PUSH2 0x5802 SWAP2 SWAP1 PUSH2 0x636F JUMP JUMPDEST PUSH2 0x580C SWAP2 SWAP1 PUSH2 0x636F JUMP JUMPDEST PUSH2 0x5816 SWAP2 SWAP1 PUSH2 0x636F JUMP JUMPDEST PUSH2 0x5820 SWAP2 SWAP1 PUSH2 0x6251 JUMP JUMPDEST PUSH2 0x582A SWAP2 SWAP1 PUSH2 0x63C9 JUMP JUMPDEST PUSH2 0x587C JUMP JUMPDEST DUP4 DUP5 DUP8 PUSH1 0x4 PUSH2 0x583E SWAP2 SWAP1 PUSH2 0x636F JUMP JUMPDEST PUSH2 0x5848 SWAP2 SWAP1 PUSH2 0x636F JUMP JUMPDEST PUSH2 0x5852 SWAP2 SWAP1 PUSH2 0x636F JUMP JUMPDEST PUSH1 0x0 PUSH2 0x585E SWAP2 SWAP1 PUSH2 0x63C9 JUMP JUMPDEST PUSH2 0x5868 SWAP2 SWAP1 PUSH2 0x6177 JUMP JUMPDEST PUSH2 0x5872 SWAP2 SWAP1 PUSH2 0x61CD JUMP JUMPDEST SWAP1 POP SWAP5 SWAP4 POP POP POP POP JUMP JUMPDEST PUSH1 0x0 PUSH1 0x3 DUP3 GT ISZERO PUSH2 0x58E3 JUMPI DUP2 SWAP1 POP PUSH1 0x0 PUSH1 0x1 PUSH1 0x2 DUP5 PUSH2 0x589B SWAP2 SWAP1 PUSH2 0x61CD JUMP JUMPDEST PUSH2 0x58A5 SWAP2 SWAP1 PUSH2 0x6177 JUMP JUMPDEST SWAP1 POP JUMPDEST DUP2 DUP2 LT ISZERO PUSH2 0x58DD JUMPI DUP1 SWAP2 POP PUSH1 0x2 DUP2 DUP3 DUP6 PUSH2 0x58C2 SWAP2 SWAP1 PUSH2 0x61CD JUMP JUMPDEST PUSH2 0x58CC SWAP2 SWAP1 PUSH2 0x6177 JUMP JUMPDEST PUSH2 0x58D6 SWAP2 SWAP1 PUSH2 0x61CD JUMP JUMPDEST SWAP1 POP PUSH2 0x58A8 JUMP JUMPDEST POP PUSH2 0x58F1 JUMP JUMPDEST PUSH1 0x0 DUP3 EQ PUSH2 0x58F0 JUMPI PUSH1 0x1 SWAP1 POP JUMPDEST JUMPDEST SWAP2 SWAP1 POP JUMP JUMPDEST POP DUP1 SLOAD PUSH1 0x0 DUP3 SSTORE SWAP1 PUSH1 0x0 MSTORE PUSH1 0x20 PUSH1 0x0 KECCAK256 SWAP1 DUP2 ADD SWAP1 PUSH2 0x5914 SWAP2 SWAP1 PUSH2 0x5917 JUMP JUMPDEST POP JUMP JUMPDEST JUMPDEST DUP1 DUP3 GT ISZERO PUSH2 0x5930 JUMPI PUSH1 0x0 DUP2 PUSH1 0x0 SWAP1 SSTORE POP PUSH1 0x1 ADD PUSH2 0x5918 JUMP JUMPDEST POP SWAP1 JUMP JUMPDEST PUSH1 0x0 DUP2 CALLDATALOAD SWAP1 POP PUSH2 0x5943 DUP2 PUSH2 0x66DE JUMP JUMPDEST SWAP3 SWAP2 POP POP JUMP JUMPDEST PUSH1 0x0 DUP2 CALLDATALOAD SWAP1 POP PUSH2 0x5958 DUP2 PUSH2 0x66F5 JUMP JUMPDEST SWAP3 SWAP2 POP POP JUMP JUMPDEST PUSH1 0x0 DUP2 MLOAD SWAP1 POP PUSH2 0x596D DUP2 PUSH2 0x66F5 JUMP JUMPDEST SWAP3 SWAP2 POP POP JUMP JUMPDEST PUSH1 0x0 DUP2 CALLDATALOAD SWAP1 POP PUSH2 0x5982 DUP2 PUSH2 0x670C JUMP JUMPDEST SWAP3 SWAP2 POP POP JUMP JUMPDEST PUSH1 0x0 DUP2 MLOAD SWAP1 POP PUSH2 0x5997 DUP2 PUSH2 0x670C JUMP JUMPDEST SWAP3 SWAP2 POP POP JUMP JUMPDEST PUSH1 0x0 PUSH1 0x20 DUP3 DUP5 SUB SLT ISZERO PUSH2 0x59B3 JUMPI PUSH2 0x59B2 PUSH2 0x655B JUMP JUMPDEST JUMPDEST PUSH1 0x0 PUSH2 0x59C1 DUP5 DUP3 DUP6 ADD PUSH2 0x5934 JUMP JUMPDEST SWAP2 POP POP SWAP3 SWAP2 POP POP JUMP JUMPDEST PUSH1 0x0 DUP1 PUSH1 0x40 DUP4 DUP6 SUB SLT ISZERO PUSH2 0x59E1 JUMPI PUSH2 0x59E0 PUSH2 0x655B JUMP JUMPDEST JUMPDEST PUSH1 0x0 PUSH2 0x59EF DUP6 DUP3 DUP7 ADD PUSH2 0x5934 JUMP JUMPDEST SWAP3 POP POP PUSH1 0x20 PUSH2 0x5A00 DUP6 DUP3 DUP7 ADD PUSH2 0x5934 JUMP JUMPDEST SWAP2 POP POP SWAP3 POP SWAP3 SWAP1 POP JUMP JUMPDEST PUSH1 0x0 DUP1 PUSH1 0x40 DUP4 DUP6 SUB SLT ISZERO PUSH2 0x5A21 JUMPI PUSH2 0x5A20 PUSH2 0x655B JUMP JUMPDEST JUMPDEST PUSH1 0x0 PUSH2 0x5A2F DUP6 DUP3 DUP7 ADD PUSH2 0x5934 JUMP JUMPDEST SWAP3 POP POP PUSH1 0x20 PUSH2 0x5A40 DUP6 DUP3 DUP7 ADD PUSH2 0x5949 JUMP JUMPDEST SWAP2 POP POP SWAP3 POP SWAP3 SWAP1 POP JUMP JUMPDEST PUSH1 0x0 DUP1 PUSH1 0x40 DUP4 DUP6 SUB SLT ISZERO PUSH2 0x5A61 JUMPI PUSH2 0x5A60 PUSH2 0x655B JUMP JUMPDEST JUMPDEST PUSH1 0x0 PUSH2 0x5A6F DUP6 DUP3 DUP7 ADD PUSH2 0x5934 JUMP JUMPDEST SWAP3 POP POP PUSH1 0x20 PUSH2 0x5A80 DUP6 DUP3 DUP7 ADD PUSH2 0x5973 JUMP JUMPDEST SWAP2 POP POP SWAP3 POP SWAP3 SWAP1 POP JUMP JUMPDEST PUSH1 0x0 DUP1 PUSH1 0x0 PUSH1 0x60 DUP5 DUP7 SUB SLT ISZERO PUSH2 0x5AA3 JUMPI PUSH2 0x5AA2 PUSH2 0x655B JUMP JUMPDEST JUMPDEST PUSH1 0x0 PUSH2 0x5AB1 DUP7 DUP3 DUP8 ADD PUSH2 0x5934 JUMP JUMPDEST SWAP4 POP POP PUSH1 0x20 PUSH2 0x5AC2 DUP7 DUP3 DUP8 ADD PUSH2 0x5973 JUMP JUMPDEST SWAP3 POP POP PUSH1 0x40 PUSH2 0x5AD3 DUP7 DUP3 DUP8 ADD PUSH2 0x5973 JUMP JUMPDEST SWAP2 POP POP SWAP3 POP SWAP3 POP SWAP3 JUMP JUMPDEST PUSH1 0x0 PUSH1 0x20 DUP3 DUP5 SUB SLT ISZERO PUSH2 0x5AF3 JUMPI PUSH2 0x5AF2 PUSH2 0x655B JUMP JUMPDEST JUMPDEST PUSH1 0x0 PUSH2 0x5B01 DUP5 DUP3 DUP6 ADD PUSH2 0x595E JUMP JUMPDEST SWAP2 POP POP SWAP3 SWAP2 POP POP JUMP JUMPDEST PUSH1 0x0 PUSH1 0x20 DUP3 DUP5 SUB SLT ISZERO PUSH2 0x5B20 JUMPI PUSH2 0x5B1F PUSH2 0x655B JUMP JUMPDEST JUMPDEST PUSH1 0x0 PUSH2 0x5B2E DUP5 DUP3 DUP6 ADD PUSH2 0x5973 JUMP JUMPDEST SWAP2 POP POP SWAP3 SWAP2 POP POP JUMP JUMPDEST PUSH1 0x0 PUSH1 0x20 DUP3 DUP5 SUB SLT ISZERO PUSH2 0x5B4D JUMPI PUSH2 0x5B4C PUSH2 0x655B JUMP JUMPDEST JUMPDEST PUSH1 0x0 PUSH2 0x5B5B DUP5 DUP3 DUP6 ADD PUSH2 0x5988 JUMP JUMPDEST SWAP2 POP POP SWAP3 SWAP2 POP POP JUMP JUMPDEST PUSH1 0x0 DUP1 PUSH1 0x0 PUSH1 0x60 DUP5 DUP7 SUB SLT ISZERO PUSH2 0x5B7D JUMPI PUSH2 0x5B7C PUSH2 0x655B JUMP JUMPDEST JUMPDEST PUSH1 0x0 PUSH2 0x5B8B DUP7 DUP3 DUP8 ADD PUSH2 0x5973 JUMP JUMPDEST SWAP4 POP POP PUSH1 0x20 PUSH2 0x5B9C DUP7 DUP3 DUP8 ADD PUSH2 0x5934 JUMP JUMPDEST SWAP3 POP POP PUSH1 0x40 PUSH2 0x5BAD DUP7 DUP3 DUP8 ADD PUSH2 0x5934 JUMP JUMPDEST SWAP2 POP POP SWAP3 POP SWAP3 POP SWAP3 JUMP JUMPDEST PUSH1 0x0 DUP1 PUSH1 0x40 DUP4 DUP6 SUB SLT ISZERO PUSH2 0x5BCE JUMPI PUSH2 0x5BCD PUSH2 0x655B JUMP JUMPDEST JUMPDEST PUSH1 0x0 PUSH2 0x5BDC DUP6 DUP3 DUP7 ADD PUSH2 0x5973 JUMP JUMPDEST SWAP3 POP POP PUSH1 0x20 PUSH2 0x5BED DUP6 DUP3 DUP7 ADD PUSH2 0x5973 JUMP JUMPDEST SWAP2 POP POP SWAP3 POP SWAP3 SWAP1 POP JUMP JUMPDEST PUSH1 0x0 DUP1 PUSH1 0x0 PUSH1 0x60 DUP5 DUP7 SUB SLT ISZERO PUSH2 0x5C10 JUMPI PUSH2 0x5C0F PUSH2 0x655B JUMP JUMPDEST JUMPDEST PUSH1 0x0 PUSH2 0x5C1E DUP7 DUP3 DUP8 ADD PUSH2 0x5973 JUMP JUMPDEST SWAP4 POP POP PUSH1 0x20 PUSH2 0x5C2F DUP7 DUP3 DUP8 ADD PUSH2 0x5973 JUMP JUMPDEST SWAP3 POP POP PUSH1 0x40 PUSH2 0x5C40 DUP7 DUP3 DUP8 ADD PUSH2 0x5934 JUMP JUMPDEST SWAP2 POP POP SWAP3 POP SWAP3 POP SWAP3 JUMP JUMPDEST PUSH1 0x0 PUSH2 0x5C56 DUP4 DUP4 PUSH2 0x5E4A JUMP JUMPDEST PUSH1 0x20 DUP4 ADD SWAP1 POP SWAP3 SWAP2 POP POP JUMP JUMPDEST PUSH2 0x5C6B DUP2 PUSH2 0x63FD JUMP JUMPDEST DUP3 MSTORE POP POP JUMP JUMPDEST PUSH1 0x0 PUSH2 0x5C7C DUP3 PUSH2 0x6127 JUMP JUMPDEST PUSH2 0x5C86 DUP2 DUP6 PUSH2 0x614A JUMP JUMPDEST SWAP4 POP PUSH2 0x5C91 DUP4 PUSH2 0x6117 JUMP JUMPDEST DUP1 PUSH1 0x0 JUMPDEST DUP4 DUP2 LT ISZERO PUSH2 0x5CC2 JUMPI DUP2 MLOAD PUSH2 0x5CA9 DUP9 DUP3 PUSH2 0x5C4A JUMP JUMPDEST SWAP8 POP PUSH2 0x5CB4 DUP4 PUSH2 0x613D JUMP JUMPDEST SWAP3 POP POP PUSH1 0x1 DUP2 ADD SWAP1 POP PUSH2 0x5C95 JUMP JUMPDEST POP DUP6 SWAP4 POP POP POP POP SWAP3 SWAP2 POP POP JUMP JUMPDEST PUSH2 0x5CD8 DUP2 PUSH2 0x640F JUMP JUMPDEST DUP3 MSTORE POP POP JUMP JUMPDEST PUSH1 0x0 PUSH2 0x5CE9 DUP3 PUSH2 0x6132 JUMP JUMPDEST PUSH2 0x5CF3 DUP2 DUP6 PUSH2 0x615B JUMP JUMPDEST SWAP4 POP PUSH2 0x5D03 DUP2 DUP6 PUSH1 0x20 DUP7 ADD PUSH2 0x6452 JUMP JUMPDEST DUP1 DUP5 ADD SWAP2 POP POP SWAP3 SWAP2 POP POP JUMP JUMPDEST PUSH1 0x0 PUSH2 0x5D1C PUSH1 0x16 DUP4 PUSH2 0x6166 JUMP JUMPDEST SWAP2 POP PUSH2 0x5D27 DUP3 PUSH2 0x656D JUMP JUMPDEST PUSH1 0x20 DUP3 ADD SWAP1 POP SWAP2 SWAP1 POP JUMP JUMPDEST PUSH1 0x0 PUSH2 0x5D3F PUSH1 0x15 DUP4 PUSH2 0x6166 JUMP JUMPDEST SWAP2 POP PUSH2 0x5D4A DUP3 PUSH2 0x6596 JUMP JUMPDEST PUSH1 0x20 DUP3 ADD SWAP1 POP SWAP2 SWAP1 POP JUMP JUMPDEST PUSH1 0x0 PUSH2 0x5D62 PUSH1 0x20 DUP4 PUSH2 0x6166 JUMP JUMPDEST SWAP2 POP PUSH2 0x5D6D DUP3 PUSH2 0x65BF JUMP JUMPDEST PUSH1 0x20 DUP3 ADD SWAP1 POP SWAP2 SWAP1 POP JUMP JUMPDEST PUSH1 0x0 PUSH2 0x5D85 PUSH1 0x12 DUP4 PUSH2 0x6166 JUMP JUMPDEST SWAP2 POP PUSH2 0x5D90 DUP3 PUSH2 0x65E8 JUMP JUMPDEST PUSH1 0x20 DUP3 ADD SWAP1 POP SWAP2 SWAP1 POP JUMP JUMPDEST PUSH1 0x0 PUSH2 0x5DA8 PUSH1 0x10 DUP4 PUSH2 0x6166 JUMP JUMPDEST SWAP2 POP PUSH2 0x5DB3 DUP3 PUSH2 0x6611 JUMP JUMPDEST PUSH1 0x20 DUP3 ADD SWAP1 POP SWAP2 SWAP1 POP JUMP JUMPDEST PUSH1 0x0 PUSH2 0x5DCB PUSH1 0x18 DUP4 PUSH2 0x6166 JUMP JUMPDEST SWAP2 POP PUSH2 0x5DD6 DUP3 PUSH2 0x663A JUMP JUMPDEST PUSH1 0x20 DUP3 ADD SWAP1 POP SWAP2 SWAP1 POP JUMP JUMPDEST PUSH1 0x0 PUSH2 0x5DEE PUSH1 0x1A DUP4 PUSH2 0x6166 JUMP JUMPDEST SWAP2 POP PUSH2 0x5DF9 DUP3 PUSH2 0x6663 JUMP JUMPDEST PUSH1 0x20 DUP3 ADD SWAP1 POP SWAP2 SWAP1 POP JUMP JUMPDEST PUSH1 0x0 PUSH2 0x5E11 PUSH1 0x11 DUP4 PUSH2 0x6166 JUMP JUMPDEST SWAP2 POP PUSH2 0x5E1C DUP3 PUSH2 0x668C JUMP JUMPDEST PUSH1 0x20 DUP3 ADD SWAP1 POP SWAP2 SWAP1 POP JUMP JUMPDEST PUSH1 0x0 PUSH2 0x5E34 PUSH1 0xD DUP4 PUSH2 0x6166 JUMP JUMPDEST SWAP2 POP PUSH2 0x5E3F DUP3 PUSH2 0x66B5 JUMP JUMPDEST PUSH1 0x20 DUP3 ADD SWAP1 POP SWAP2 SWAP1 POP JUMP JUMPDEST PUSH2 0x5E53 DUP2 PUSH2 0x643B JUMP JUMPDEST DUP3 MSTORE POP POP JUMP JUMPDEST PUSH2 0x5E62 DUP2 PUSH2 0x643B JUMP JUMPDEST DUP3 MSTORE POP POP JUMP JUMPDEST PUSH1 0x0 PUSH2 0x5E74 DUP3 DUP5 PUSH2 0x5CDE JUMP JUMPDEST SWAP2 POP DUP2 SWAP1 POP SWAP3 SWAP2 POP POP JUMP JUMPDEST PUSH1 0x0 PUSH1 0x20 DUP3 ADD SWAP1 POP PUSH2 0x5E94 PUSH1 0x0 DUP4 ADD DUP5 PUSH2 0x5C62 JUMP JUMPDEST SWAP3 SWAP2 POP POP JUMP JUMPDEST PUSH1 0x0 PUSH1 0x80 DUP3 ADD SWAP1 POP PUSH2 0x5EAF PUSH1 0x0 DUP4 ADD DUP8 PUSH2 0x5C62 JUMP JUMPDEST PUSH2 0x5EBC PUSH1 0x20 DUP4 ADD DUP7 PUSH2 0x5CCF JUMP JUMPDEST PUSH2 0x5EC9 PUSH1 0x40 DUP4 ADD DUP6 PUSH2 0x5E59 JUMP JUMPDEST PUSH2 0x5ED6 PUSH1 0x60 DUP4 ADD DUP5 PUSH2 0x5E59 JUMP JUMPDEST SWAP6 SWAP5 POP POP POP POP POP JUMP JUMPDEST PUSH1 0x0 PUSH1 0x40 DUP3 ADD SWAP1 POP PUSH2 0x5EF4 PUSH1 0x0 DUP4 ADD DUP6 PUSH2 0x5C62 JUMP JUMPDEST PUSH2 0x5F01 PUSH1 0x20 DUP4 ADD DUP5 PUSH2 0x5E59 JUMP JUMPDEST SWAP4 SWAP3 POP POP POP JUMP JUMPDEST PUSH1 0x0 PUSH1 0x20 DUP3 ADD SWAP1 POP DUP2 DUP2 SUB PUSH1 0x0 DUP4 ADD MSTORE PUSH2 0x5F22 DUP2 DUP5 PUSH2 0x5C71 JUMP JUMPDEST SWAP1 POP SWAP3 SWAP2 POP POP JUMP JUMPDEST PUSH1 0x0 PUSH1 0x20 DUP3 ADD SWAP1 POP PUSH2 0x5F3F PUSH1 0x0 DUP4 ADD DUP5 PUSH2 0x5CCF JUMP JUMPDEST SWAP3 SWAP2 POP POP JUMP JUMPDEST PUSH1 0x0 PUSH1 0x20 DUP3 ADD SWAP1 POP DUP2 DUP2 SUB PUSH1 0x0 DUP4 ADD MSTORE PUSH2 0x5F5E DUP2 PUSH2 0x5D0F JUMP JUMPDEST SWAP1 POP SWAP2 SWAP1 POP JUMP JUMPDEST PUSH1 0x0 PUSH1 0x20 DUP3 ADD SWAP1 POP DUP2 DUP2 SUB PUSH1 0x0 DUP4 ADD MSTORE PUSH2 0x5F7E DUP2 PUSH2 0x5D32 JUMP JUMPDEST SWAP1 POP SWAP2 SWAP1 POP JUMP JUMPDEST PUSH1 0x0 PUSH1 0x20 DUP3 ADD SWAP1 POP DUP2 DUP2 SUB PUSH1 0x0 DUP4 ADD MSTORE PUSH2 0x5F9E DUP2 PUSH2 0x5D55 JUMP JUMPDEST SWAP1 POP SWAP2 SWAP1 POP JUMP JUMPDEST PUSH1 0x0 PUSH1 0x20 DUP3 ADD SWAP1 POP DUP2 DUP2 SUB PUSH1 0x0 DUP4 ADD MSTORE PUSH2 0x5FBE DUP2 PUSH2 0x5D78 JUMP JUMPDEST SWAP1 POP SWAP2 SWAP1 POP JUMP JUMPDEST PUSH1 0x0 PUSH1 0x20 DUP3 ADD SWAP1 POP DUP2 DUP2 SUB PUSH1 0x0 DUP4 ADD MSTORE PUSH2 0x5FDE DUP2 PUSH2 0x5D9B JUMP JUMPDEST SWAP1 POP SWAP2 SWAP1 POP JUMP JUMPDEST PUSH1 0x0 PUSH1 0x20 DUP3 ADD SWAP1 POP DUP2 DUP2 SUB PUSH1 0x0 DUP4 ADD MSTORE PUSH2 0x5FFE DUP2 PUSH2 0x5DBE JUMP JUMPDEST SWAP1 POP SWAP2 SWAP1 POP JUMP JUMPDEST PUSH1 0x0 PUSH1 0x20 DUP3 ADD SWAP1 POP DUP2 DUP2 SUB PUSH1 0x0 DUP4 ADD MSTORE PUSH2 0x601E DUP2 PUSH2 0x5DE1 JUMP JUMPDEST SWAP1 POP SWAP2 SWAP1 POP JUMP JUMPDEST PUSH1 0x0 PUSH1 0x20 DUP3 ADD SWAP1 POP DUP2 DUP2 SUB PUSH1 0x0 DUP4 ADD MSTORE PUSH2 0x603E DUP2 PUSH2 0x5E04 JUMP JUMPDEST SWAP1 POP SWAP2 SWAP1 POP JUMP JUMPDEST PUSH1 0x0 PUSH1 0x20 DUP3 ADD SWAP1 POP DUP2 DUP2 SUB PUSH1 0x0 DUP4 ADD MSTORE PUSH2 0x605E DUP2 PUSH2 0x5E27 JUMP JUMPDEST SWAP1 POP SWAP2 SWAP1 POP JUMP JUMPDEST PUSH1 0x0 PUSH1 0x20 DUP3 ADD SWAP1 POP PUSH2 0x607A PUSH1 0x0 DUP4 ADD DUP5 PUSH2 0x5E59 JUMP JUMPDEST SWAP3 SWAP2 POP POP JUMP JUMPDEST PUSH1 0x0 PUSH1 0x40 DUP3 ADD SWAP1 POP PUSH2 0x6095 PUSH1 0x0 DUP4 ADD DUP6 PUSH2 0x5E59 JUMP JUMPDEST PUSH2 0x60A2 PUSH1 0x20 DUP4 ADD DUP5 PUSH2 0x5E59 JUMP JUMPDEST SWAP4 SWAP3 POP POP POP JUMP JUMPDEST PUSH1 0x0 PUSH1 0x60 DUP3 ADD SWAP1 POP PUSH2 0x60BE PUSH1 0x0 DUP4 ADD DUP7 PUSH2 0x5E59 JUMP JUMPDEST PUSH2 0x60CB PUSH1 0x20 DUP4 ADD DUP6 PUSH2 0x5E59 JUMP JUMPDEST PUSH2 0x60D8 PUSH1 0x40 DUP4 ADD DUP5 PUSH2 0x5CCF JUMP JUMPDEST SWAP5 SWAP4 POP POP POP POP JUMP JUMPDEST PUSH1 0x0 PUSH1 0x60 DUP3 ADD SWAP1 POP PUSH2 0x60F5 PUSH1 0x0 DUP4 ADD DUP7 PUSH2 0x5E59 JUMP JUMPDEST PUSH2 0x6102 PUSH1 0x20 DUP4 ADD DUP6 PUSH2 0x5E59 JUMP JUMPDEST PUSH2 0x610F PUSH1 0x40 DUP4 ADD DUP5 PUSH2 0x5E59 JUMP JUMPDEST SWAP5 SWAP4 POP POP POP POP JUMP JUMPDEST PUSH1 0x0 DUP2 SWAP1 POP PUSH1 0x20 DUP3 ADD SWAP1 POP SWAP2 SWAP1 POP JUMP JUMPDEST PUSH1 0x0 DUP2 MLOAD SWAP1 POP SWAP2 SWAP1 POP JUMP JUMPDEST PUSH1 0x0 DUP2 MLOAD SWAP1 POP SWAP2 SWAP1 POP JUMP JUMPDEST PUSH1 0x0 PUSH1 0x20 DUP3 ADD SWAP1 POP SWAP2 SWAP1 POP JUMP JUMPDEST PUSH1 0x0 DUP3 DUP3 MSTORE PUSH1 0x20 DUP3 ADD SWAP1 POP SWAP3 SWAP2 POP POP JUMP JUMPDEST PUSH1 0x0 DUP2 SWAP1 POP SWAP3 SWAP2 POP POP JUMP JUMPDEST PUSH1 0x0 DUP3 DUP3 MSTORE PUSH1 0x20 DUP3 ADD SWAP1 POP SWAP3 SWAP2 POP POP JUMP JUMPDEST PUSH1 0x0 PUSH2 0x6182 DUP3 PUSH2 0x643B JUMP JUMPDEST SWAP2 POP PUSH2 0x618D DUP4 PUSH2 0x643B JUMP JUMPDEST SWAP3 POP DUP3 PUSH32 0xFFFFFFFFFFFFFFFFFFFFFFFFFFFFFFFFFFFFFFFFFFFFFFFFFFFFFFFFFFFFFFFF SUB DUP3 GT ISZERO PUSH2 0x61C2 JUMPI PUSH2 0x61C1 PUSH2 0x64CE JUMP JUMPDEST JUMPDEST DUP3 DUP3 ADD SWAP1 POP SWAP3 SWAP2 POP POP JUMP JUMPDEST PUSH1 0x0 PUSH2 0x61D8 DUP3 PUSH2 0x643B JUMP JUMPDEST SWAP2 POP PUSH2 0x61E3 DUP4 PUSH2 0x643B JUMP JUMPDEST SWAP3 POP DUP3 PUSH2 0x61F3 JUMPI PUSH2 0x61F2 PUSH2 0x64FD JUMP JUMPDEST JUMPDEST DUP3 DUP3 DIV SWAP1 POP SWAP3 SWAP2 POP POP JUMP JUMPDEST PUSH1 0x0 DUP1 DUP3 SWAP2 POP DUP4 SWAP1 POP JUMPDEST PUSH1 0x1 DUP6 GT ISZERO PUSH2 0x6248 JUMPI DUP1 DUP7 DIV DUP2 GT ISZERO PUSH2 0x6224 JUMPI PUSH2 0x6223 PUSH2 0x64CE JUMP JUMPDEST JUMPDEST PUSH1 0x1 DUP6 AND ISZERO PUSH2 0x6233 JUMPI DUP1 DUP3 MUL SWAP2 POP JUMPDEST DUP1 DUP2 MUL SWAP1 POP PUSH2 0x6241 DUP6 PUSH2 0x6560 JUMP JUMPDEST SWAP5 POP PUSH2 0x6208 JUMP JUMPDEST SWAP5 POP SWAP5 SWAP3 POP POP POP JUMP JUMPDEST PUSH1 0x0 PUSH2 0x625C DUP3 PUSH2 0x643B JUMP JUMPDEST SWAP2 POP PUSH2 0x6267 DUP4 PUSH2 0x6445 JUMP JUMPDEST SWAP3 POP PUSH2 0x6294 PUSH32 0xFFFFFFFFFFFFFFFFFFFFFFFFFFFFFFFFFFFFFFFFFFFFFFFFFFFFFFFFFFFFFFFF DUP5 DUP5 PUSH2 0x629C JUMP JUMPDEST SWAP1 POP SWAP3 SWAP2 POP POP JUMP JUMPDEST PUSH1 0x0 DUP3 PUSH2 0x62AC JUMPI PUSH1 0x1 SWAP1 POP PUSH2 0x6368 JUMP JUMPDEST DUP2 PUSH2 0x62BA JUMPI PUSH1 0x0 SWAP1 POP PUSH2 0x6368 JUMP JUMPDEST DUP2 PUSH1 0x1 DUP2 EQ PUSH2 0x62D0 JUMPI PUSH1 0x2 DUP2 EQ PUSH2 0x62DA JUMPI PUSH2 0x6309 JUMP JUMPDEST PUSH1 0x1 SWAP2 POP POP PUSH2 0x6368 JUMP JUMPDEST PUSH1 0xFF DUP5 GT ISZERO PUSH2 0x62EC JUMPI PUSH2 0x62EB PUSH2 0x64CE JUMP JUMPDEST JUMPDEST DUP4 PUSH1 0x2 EXP SWAP2 POP DUP5 DUP3 GT ISZERO PUSH2 0x6303 JUMPI PUSH2 0x6302 PUSH2 0x64CE JUMP JUMPDEST JUMPDEST POP PUSH2 0x6368 JUMP JUMPDEST POP PUSH1 0x20 DUP4 LT PUSH2 0x133 DUP4 LT AND PUSH1 0x4E DUP5 LT PUSH1 0xB DUP5 LT AND OR ISZERO PUSH2 0x633E JUMPI DUP3 DUP3 EXP SWAP1 POP DUP4 DUP2 GT ISZERO PUSH2 0x6339 JUMPI PUSH2 0x6338 PUSH2 0x64CE JUMP JUMPDEST JUMPDEST PUSH2 0x6368 JUMP JUMPDEST PUSH2 0x634B DUP5 DUP5 DUP5 PUSH1 0x1 PUSH2 0x61FE JUMP JUMPDEST SWAP3 POP SWAP1 POP DUP2 DUP5 DIV DUP2 GT ISZERO PUSH2 0x6362 JUMPI PUSH2 0x6361 PUSH2 0x64CE JUMP JUMPDEST JUMPDEST DUP2 DUP2 MUL SWAP1 POP JUMPDEST SWAP4 SWAP3 POP POP POP JUMP JUMPDEST PUSH1 0x0 PUSH2 0x637A DUP3 PUSH2 0x643B JUMP JUMPDEST SWAP2 POP PUSH2 0x6385 DUP4 PUSH2 0x643B JUMP JUMPDEST SWAP3 POP DUP2 PUSH32 0xFFFFFFFFFFFFFFFFFFFFFFFFFFFFFFFFFFFFFFFFFFFFFFFFFFFFFFFFFFFFFFFF DIV DUP4 GT DUP3 ISZERO ISZERO AND ISZERO PUSH2 0x63BE JUMPI PUSH2 0x63BD PUSH2 0x64CE JUMP JUMPDEST JUMPDEST DUP3 DUP3 MUL SWAP1 POP SWAP3 SWAP2 POP POP JUMP JUMPDEST PUSH1 0x0 PUSH2 0x63D4 DUP3 PUSH2 0x643B JUMP JUMPDEST SWAP2 POP PUSH2 0x63DF DUP4 PUSH2 0x643B JUMP JUMPDEST SWAP3 POP DUP3 DUP3 LT ISZERO PUSH2 0x63F2 JUMPI PUSH2 0x63F1 PUSH2 0x64CE JUMP JUMPDEST JUMPDEST DUP3 DUP3 SUB SWAP1 POP SWAP3 SWAP2 POP POP JUMP JUMPDEST PUSH1 0x0 PUSH2 0x6408 DUP3 PUSH2 0x641B JUMP JUMPDEST SWAP1 POP SWAP2 SWAP1 POP JUMP JUMPDEST PUSH1 0x0 DUP2 ISZERO ISZERO SWAP1 POP SWAP2 SWAP1 POP JUMP JUMPDEST PUSH1 0x0 PUSH20 0xFFFFFFFFFFFFFFFFFFFFFFFFFFFFFFFFFFFFFFFF DUP3 AND SWAP1 POP SWAP2 SWAP1 POP JUMP JUMPDEST PUSH1 0x0 DUP2 SWAP1 POP SWAP2 SWAP1 POP JUMP JUMPDEST PUSH1 0x0 PUSH1 0xFF DUP3 AND SWAP1 POP SWAP2 SWAP1 POP JUMP JUMPDEST PUSH1 0x0 JUMPDEST DUP4 DUP2 LT ISZERO PUSH2 0x6470 JUMPI DUP1 DUP3 ADD MLOAD DUP2 DUP5 ADD MSTORE PUSH1 0x20 DUP2 ADD SWAP1 POP PUSH2 0x6455 JUMP JUMPDEST DUP4 DUP2 GT ISZERO PUSH2 0x647F JUMPI PUSH1 0x0 DUP5 DUP5 ADD MSTORE JUMPDEST POP POP POP POP JUMP JUMPDEST PUSH1 0x0 PUSH2 0x6490 DUP3 PUSH2 0x643B JUMP JUMPDEST SWAP2 POP PUSH32 0xFFFFFFFFFFFFFFFFFFFFFFFFFFFFFFFFFFFFFFFFFFFFFFFFFFFFFFFFFFFFFFFF DUP3 EQ ISZERO PUSH2 0x64C3 JUMPI PUSH2 0x64C2 PUSH2 0x64CE JUMP JUMPDEST JUMPDEST PUSH1 0x1 DUP3 ADD SWAP1 POP SWAP2 SWAP1 POP JUMP JUMPDEST PUSH32 0x4E487B7100000000000000000000000000000000000000000000000000000000 PUSH1 0x0 MSTORE PUSH1 0x11 PUSH1 0x4 MSTORE PUSH1 0x24 PUSH1 0x0 REVERT JUMPDEST PUSH32 0x4E487B7100000000000000000000000000000000000000000000000000000000 PUSH1 0x0 MSTORE PUSH1 0x12 PUSH1 0x4 MSTORE PUSH1 0x24 PUSH1 0x0 REVERT JUMPDEST PUSH32 0x4E487B7100000000000000000000000000000000000000000000000000000000 PUSH1 0x0 MSTORE PUSH1 0x32 PUSH1 0x4 MSTORE PUSH1 0x24 PUSH1 0x0 REVERT JUMPDEST PUSH1 0x0 DUP1 REVERT JUMPDEST PUSH1 0x0 DUP2 PUSH1 0x1 SHR SWAP1 POP SWAP2 SWAP1 POP JUMP JUMPDEST PUSH32 0x51696C696E3A205452414E534645525F4641494C454400000000000000000000 PUSH1 0x0 DUP3 ADD MSTORE POP JUMP JUMPDEST PUSH32 0x64732D6D6174682D7375622D756E646572666C6F770000000000000000000000 PUSH1 0x0 DUP3 ADD MSTORE POP JUMP JUMPDEST PUSH32 0x51696C696E3A20494E53554646494349454E545F494E5055545F414D4F554E54 PUSH1 0x0 DUP3 ADD MSTORE POP JUMP JUMPDEST PUSH32 0x51496C696E3A20494E56414C49445F4F55540000000000000000000000000000 PUSH1 0x0 DUP3 ADD MSTORE POP JUMP JUMPDEST PUSH32 0x51696C696E3A20464F5242494444454E00000000000000000000000000000000 PUSH1 0x0 DUP3 ADD MSTORE POP JUMP JUMPDEST PUSH32 0x51696C696E3A204E4F5420454E4F554748204D415247494E0000000000000000 PUSH1 0x0 DUP3 ADD MSTORE POP JUMP JUMPDEST PUSH32 0x51696C696E3A204E4F5420454E4F55474820504F534954494F4E000000000000 PUSH1 0x0 DUP3 ADD MSTORE POP JUMP JUMPDEST PUSH32 0x51696C696E3A20494E56414C49445F544F000000000000000000000000000000 PUSH1 0x0 DUP3 ADD MSTORE POP JUMP JUMPDEST PUSH32 0x51696C696E3A204C4F434B454400000000000000000000000000000000000000 PUSH1 0x0 DUP3 ADD MSTORE POP JUMP JUMPDEST PUSH2 0x66E7 DUP2 PUSH2 0x63FD JUMP JUMPDEST DUP2 EQ PUSH2 0x66F2 JUMPI PUSH1 0x0 DUP1 REVERT JUMPDEST POP JUMP JUMPDEST PUSH2 0x66FE DUP2 PUSH2 0x640F JUMP JUMPDEST DUP2 EQ PUSH2 0x6709 JUMPI PUSH1 0x0 DUP1 REVERT JUMPDEST POP JUMP JUMPDEST PUSH2 0x6715 DUP2 PUSH2 0x643B JUMP JUMPDEST DUP2 EQ PUSH2 0x6720 JUMPI PUSH1 0x0 DUP1 REVERT JUMPDEST POP JUMP INVALID LOG2 PUSH5 0x6970667358 0x22 SLT KECCAK256 STATICCALL 0x27 PUSH31 0xC1DD19364E1590F0594BB040DF033BA87093FE94DC4CF5893E67195E7D6473 PUSH16 0x6C634300080700330000000000000000 "
		},
		"gasEstimates": {
			"creation": {
				"codeDepositCost": "5291400",
				"executionCost": "52720",
				"totalCost": "5344120"
			},
			"external": {
				"Add_Liquidity(uint256,uint256)": "infinite",
				"Add_Margin(uint256,address,address)": "infinite",
				"B()": "2541",
				"Base_rate()": "2584",
				"Burn_Liquidity(uint256)": "infinite",
				"C()": "2520",
				"D()": "2498",
				"D0()": "2495",
				"Get_Margin_price()": "infinite",
				"Getfundingrate()": "infinite",
				"Leverage_Margin()": "2541",
				"Leverage_Max()": "2564",
				"Liquidate(address,address)": "infinite",
				"Liquidation_bonus()": "2562",
				"Liquidation_rate()": "2564",
				"M()": "2541",
				"M_Last()": "2564",
				"Margin_tpyes(uint256)": "5067",
				"N()": "2563",
				"N_Last()": "2563",
				"Net_Margin(address)": "infinite",
				"Net_Position(address)": "infinite",
				"Net_debt(address)": "infinite",
				"Peqx()": "2499",
				"Peqy()": "2561",
				"Perp_close(uint256,uint256,address)": "infinite",
				"Perp_open(uint256,uint256,address)": "infinite",
				"Price_local()": "2564",
				"Set_LeverageMargin(uint256)": "24757",
				"Set_LeverageMax(uint256)": "24824",
				"Set_Liquidation_rate(uint256)": "24844",
				"Set_fundingrate_upper(uint256)": "24826",
				"Tick_range()": "2518",
				"Total_Liquidity()": "2519",
				"Total_debt_X()": "2498",
				"Total_debt_Y()": "2520",
				"Total_debttoken_X()": "2518",
				"Total_debttoken_Y()": "2520",
				"True_Liquid_X()": "2563",
				"True_Liquid_X0()": "2540",
				"True_Liquid_Y()": "2520",
				"True_Liquid_Y0()": "2540",
				"X_Coord()": "2542",
				"X_Coord_Last()": "2543",
				"Xeq()": "2497",
				"Xgetp()": "2519",
				"Y_Coord()": "2498",
				"Y_Coord_Last()": "2519",
				"Yeq()": "2498",
				"Ygetp()": "2562",
				"debt_index(address,bool)": "infinite",
				"factory()": "2604",
				"funding_Last()": "2542",
				"funding_x_8h_upper()": "2518",
				"fundingtime_Last()": "2497",
				"getPrice()": "infinite",
				"getReserves()": "infinite",
				"get_margin_price(address)": "710",
				"initialize(address,address)": "infinite",
				"margin_index(address,uint256)": "infinite",
				"margin_type(address)": "2881",
				"paying_side_Last()": "2583",
				"skim(address)": "infinite",
				"swap(address,uint256,uint256)": "infinite",
				"tokenX()": "2627",
				"tokenY()": "2581"
			},
			"internal": {
				"Clean_debt(address,bool)": "infinite",
				"PerpXToExactY(uint256,uint256)": "infinite",
				"PerpYToExactX(uint256,uint256)": "infinite",
				"Perp_XtoY(uint256)": "infinite",
				"Perp_YtoX(uint256)": "infinite",
				"TradeXToExactY(uint256,uint256)": "infinite",
				"TradeYToExactX(uint256,uint256)": "infinite",
				"Trade_XtoY(uint256)": "infinite",
				"Trade_YtoX(uint256)": "infinite",
				"Virtual_Liquidity_Update()": "infinite",
				"_safeTransfer(address,address,uint256)": "infinite",
				"refresh_totalbook()": "infinite"
			}
		},
		"methodIdentifiers": {
			"Add_Liquidity(uint256,uint256)": "432cfd1c",
			"Add_Margin(uint256,address,address)": "a54c08f3",
			"B()": "32e7c5bf",
			"Base_rate()": "7ed6281b",
			"Burn_Liquidity(uint256)": "c2cbaed0",
			"C()": "83dfe5fd",
			"D()": "0f529ba2",
			"D0()": "f738c74e",
			"Get_Margin_price()": "abd60340",
			"Getfundingrate()": "fc978e54",
			"Leverage_Margin()": "9a36e122",
			"Leverage_Max()": "18db9681",
			"Liquidate(address,address)": "c3d81b21",
			"Liquidation_bonus()": "f70f4394",
			"Liquidation_rate()": "8bc1a32f",
			"M()": "693f917e",
			"M_Last()": "25c513a4",
			"Margin_tpyes(uint256)": "da5604ce",
			"N()": "c9e525df",
			"N_Last()": "acd4a7c2",
			"Net_Margin(address)": "2abc28aa",
			"Net_Position(address)": "c03d932f",
			"Net_debt(address)": "5115b6cf",
			"Peqx()": "00b52645",
			"Peqy()": "fe18f261",
			"Perp_close(uint256,uint256,address)": "4c324e6a",
			"Perp_open(uint256,uint256,address)": "696acb5d",
			"Price_local()": "480c4f7e",
			"Set_LeverageMargin(uint256)": "cfe38a5e",
			"Set_LeverageMax(uint256)": "35714521",
			"Set_Liquidation_rate(uint256)": "ff2f169e",
			"Set_fundingrate_upper(uint256)": "0bfa68d8",
			"Tick_range()": "d44022db",
			"Total_Liquidity()": "2dd6c254",
			"Total_debt_X()": "2190219e",
			"Total_debt_Y()": "225c2c50",
			"Total_debttoken_X()": "6b3545aa",
			"Total_debttoken_Y()": "139860ee",
			"True_Liquid_X()": "5595d459",
			"True_Liquid_X0()": "79dbf8ea",
			"True_Liquid_Y()": "3c6fe2f4",
			"True_Liquid_Y0()": "ea1797b0",
			"X_Coord()": "84009686",
			"X_Coord_Last()": "0b197615",
			"Xeq()": "8e361389",
			"Xgetp()": "a5aa65b9",
			"Y_Coord()": "36af2f9b",
			"Y_Coord_Last()": "6607e7e8",
			"Yeq()": "80416c02",
			"Ygetp()": "df0ab2c2",
			"debt_index(address,bool)": "7e1431be",
			"factory()": "c45a0155",
			"funding_Last()": "23ed16b6",
			"funding_x_8h_upper()": "e19a1474",
			"fundingtime_Last()": "5e287d86",
			"getPrice()": "98d5fdca",
			"getReserves()": "0902f1ac",
			"get_margin_price(address)": "e1781049",
			"initialize(address,address)": "485cc955",
			"margin_index(address,uint256)": "fc69b80f",
			"margin_type(address)": "699553aa",
			"paying_side_Last()": "c7d44932",
			"skim(address)": "bc25cf77",
			"swap(address,uint256,uint256)": "9f1d0f59",
			"tokenX()": "16dc165b",
			"tokenY()": "b7d19fc4"
		}
	},
	"abi": [
		{
			"inputs": [],
			"stateMutability": "nonpayable",
			"type": "constructor"
		},
		{
			"inputs": [
				{
					"internalType": "uint256",
					"name": "AddX",
					"type": "uint256"
				},
				{
					"internalType": "uint256",
					"name": "AddY",
					"type": "uint256"
				}
			],
			"name": "Add_Liquidity",
			"outputs": [
				{
					"internalType": "uint256",
					"name": "Liquidity",
					"type": "uint256"
				}
			],
			"stateMutability": "nonpayable",
			"type": "function"
		},
		{
			"inputs": [
				{
					"internalType": "uint256",
					"name": "new_margin",
					"type": "uint256"
				},
				{
					"internalType": "address",
					"name": "tokenID",
					"type": "address"
				},
				{
					"internalType": "address",
					"name": "userID",
					"type": "address"
				}
			],
			"name": "Add_Margin",
			"outputs": [],
			"stateMutability": "nonpayable",
			"type": "function"
		},
		{
			"inputs": [],
			"name": "B",
			"outputs": [
				{
					"internalType": "uint256",
					"name": "",
					"type": "uint256"
				}
			],
			"stateMutability": "view",
			"type": "function"
		},
		{
			"inputs": [],
			"name": "Base_rate",
			"outputs": [
				{
					"internalType": "uint256",
					"name": "",
					"type": "uint256"
				}
			],
			"stateMutability": "view",
			"type": "function"
		},
		{
			"inputs": [
				{
					"internalType": "uint256",
					"name": "Liquidity",
					"type": "uint256"
				}
			],
			"name": "Burn_Liquidity",
			"outputs": [
				{
					"internalType": "uint256",
					"name": "BurX",
					"type": "uint256"
				},
				{
					"internalType": "uint256",
					"name": "BurY",
					"type": "uint256"
				}
			],
			"stateMutability": "nonpayable",
			"type": "function"
		},
		{
			"inputs": [],
			"name": "C",
			"outputs": [
				{
					"internalType": "uint256",
					"name": "",
					"type": "uint256"
				}
			],
			"stateMutability": "view",
			"type": "function"
		},
		{
			"inputs": [],
			"name": "D",
			"outputs": [
				{
					"internalType": "uint256",
					"name": "",
					"type": "uint256"
				}
			],
			"stateMutability": "view",
			"type": "function"
		},
		{
			"inputs": [],
			"name": "D0",
			"outputs": [
				{
					"internalType": "uint256",
					"name": "",
					"type": "uint256"
				}
			],
			"stateMutability": "view",
			"type": "function"
		},
		{
			"inputs": [],
			"name": "Get_Margin_price",
			"outputs": [
				{
					"internalType": "uint256[]",
					"name": "margins",
					"type": "uint256[]"
				}
			],
			"stateMutability": "view",
			"type": "function"
		},
		{
			"inputs": [],
			"name": "Getfundingrate",
			"outputs": [
				{
					"internalType": "uint256",
					"name": "funding_x",
					"type": "uint256"
				},
				{
					"internalType": "uint256",
					"name": "funding_x_8h",
					"type": "uint256"
				},
				{
					"internalType": "bool",
					"name": "paying_side",
					"type": "bool"
				}
			],
			"stateMutability": "view",
			"type": "function"
		},
		{
			"inputs": [],
			"name": "Leverage_Margin",
			"outputs": [
				{
					"internalType": "uint256",
					"name": "",
					"type": "uint256"
				}
			],
			"stateMutability": "view",
			"type": "function"
		},
		{
			"inputs": [],
			"name": "Leverage_Max",
			"outputs": [
				{
					"internalType": "uint256",
					"name": "",
					"type": "uint256"
				}
			],
			"stateMutability": "view",
			"type": "function"
		},
		{
			"inputs": [
				{
					"internalType": "address",
					"name": "userID",
					"type": "address"
				},
				{
					"internalType": "address",
					"name": "_to",
					"type": "address"
				}
			],
			"name": "Liquidate",
			"outputs": [],
			"stateMutability": "nonpayable",
			"type": "function"
		},
		{
			"inputs": [],
			"name": "Liquidation_bonus",
			"outputs": [
				{
					"internalType": "uint256",
					"name": "",
					"type": "uint256"
				}
			],
			"stateMutability": "view",
			"type": "function"
		},
		{
			"inputs": [],
			"name": "Liquidation_rate",
			"outputs": [
				{
					"internalType": "uint256",
					"name": "",
					"type": "uint256"
				}
			],
			"stateMutability": "view",
			"type": "function"
		},
		{
			"inputs": [],
			"name": "M",
			"outputs": [
				{
					"internalType": "uint256",
					"name": "",
					"type": "uint256"
				}
			],
			"stateMutability": "view",
			"type": "function"
		},
		{
			"inputs": [],
			"name": "M_Last",
			"outputs": [
				{
					"internalType": "uint256",
					"name": "",
					"type": "uint256"
				}
			],
			"stateMutability": "view",
			"type": "function"
		},
		{
			"inputs": [
				{
					"internalType": "uint256",
					"name": "",
					"type": "uint256"
				}
			],
			"name": "Margin_tpyes",
			"outputs": [
				{
					"internalType": "address",
					"name": "",
					"type": "address"
				}
			],
			"stateMutability": "view",
			"type": "function"
		},
		{
			"inputs": [],
			"name": "N",
			"outputs": [
				{
					"internalType": "uint256",
					"name": "",
					"type": "uint256"
				}
			],
			"stateMutability": "view",
			"type": "function"
		},
		{
			"inputs": [],
			"name": "N_Last",
			"outputs": [
				{
					"internalType": "uint256",
					"name": "",
					"type": "uint256"
				}
			],
			"stateMutability": "view",
			"type": "function"
		},
		{
			"inputs": [
				{
					"internalType": "address",
					"name": "userID",
					"type": "address"
				}
			],
			"name": "Net_Margin",
			"outputs": [
				{
					"internalType": "uint256",
					"name": "net",
					"type": "uint256"
				}
			],
			"stateMutability": "view",
			"type": "function"
		},
		{
			"inputs": [
				{
					"internalType": "address",
					"name": "userID",
					"type": "address"
				}
			],
			"name": "Net_Position",
			"outputs": [
				{
					"internalType": "uint256",
					"name": "net",
					"type": "uint256"
				}
			],
			"stateMutability": "view",
			"type": "function"
		},
		{
			"inputs": [
				{
					"internalType": "address",
					"name": "userID",
					"type": "address"
				}
			],
			"name": "Net_debt",
			"outputs": [
				{
					"internalType": "uint256",
					"name": "net",
					"type": "uint256"
				}
			],
			"stateMutability": "view",
			"type": "function"
		},
		{
			"inputs": [],
			"name": "Peqx",
			"outputs": [
				{
					"internalType": "uint256",
					"name": "",
					"type": "uint256"
				}
			],
			"stateMutability": "view",
			"type": "function"
		},
		{
			"inputs": [],
			"name": "Peqy",
			"outputs": [
				{
					"internalType": "uint256",
					"name": "",
					"type": "uint256"
				}
			],
			"stateMutability": "view",
			"type": "function"
		},
		{
			"inputs": [
				{
					"internalType": "uint256",
					"name": "delta_X",
					"type": "uint256"
				},
				{
					"internalType": "uint256",
					"name": "delta_Y",
					"type": "uint256"
				},
				{
					"internalType": "address",
					"name": "userID",
					"type": "address"
				}
			],
			"name": "Perp_close",
			"outputs": [],
			"stateMutability": "nonpayable",
			"type": "function"
		},
		{
			"inputs": [
				{
					"internalType": "uint256",
					"name": "delta_X",
					"type": "uint256"
				},
				{
					"internalType": "uint256",
					"name": "delta_Y",
					"type": "uint256"
				},
				{
					"internalType": "address",
					"name": "userID",
					"type": "address"
				}
			],
			"name": "Perp_open",
			"outputs": [],
			"stateMutability": "nonpayable",
			"type": "function"
		},
		{
			"inputs": [],
			"name": "Price_local",
			"outputs": [
				{
					"internalType": "uint256",
					"name": "",
					"type": "uint256"
				}
			],
			"stateMutability": "view",
			"type": "function"
		},
		{
			"inputs": [
				{
					"internalType": "uint256",
					"name": "L",
					"type": "uint256"
				}
			],
			"name": "Set_LeverageMargin",
			"outputs": [],
			"stateMutability": "nonpayable",
			"type": "function"
		},
		{
			"inputs": [
				{
					"internalType": "uint256",
					"name": "L",
					"type": "uint256"
				}
			],
			"name": "Set_LeverageMax",
			"outputs": [],
			"stateMutability": "nonpayable",
			"type": "function"
		},
		{
			"inputs": [
				{
					"internalType": "uint256",
					"name": "rate",
					"type": "uint256"
				}
			],
			"name": "Set_Liquidation_rate",
			"outputs": [],
			"stateMutability": "nonpayable",
			"type": "function"
		},
		{
			"inputs": [
				{
					"internalType": "uint256",
					"name": "f",
					"type": "uint256"
				}
			],
			"name": "Set_fundingrate_upper",
			"outputs": [],
			"stateMutability": "nonpayable",
			"type": "function"
		},
		{
			"inputs": [],
			"name": "Tick_range",
			"outputs": [
				{
					"internalType": "uint256",
					"name": "",
					"type": "uint256"
				}
			],
			"stateMutability": "view",
			"type": "function"
		},
		{
			"inputs": [],
			"name": "Total_Liquidity",
			"outputs": [
				{
					"internalType": "uint256",
					"name": "",
					"type": "uint256"
				}
			],
			"stateMutability": "view",
			"type": "function"
		},
		{
			"inputs": [],
			"name": "Total_debt_X",
			"outputs": [
				{
					"internalType": "uint256",
					"name": "",
					"type": "uint256"
				}
			],
			"stateMutability": "view",
			"type": "function"
		},
		{
			"inputs": [],
			"name": "Total_debt_Y",
			"outputs": [
				{
					"internalType": "uint256",
					"name": "",
					"type": "uint256"
				}
			],
			"stateMutability": "view",
			"type": "function"
		},
		{
			"inputs": [],
			"name": "Total_debttoken_X",
			"outputs": [
				{
					"internalType": "uint256",
					"name": "",
					"type": "uint256"
				}
			],
			"stateMutability": "view",
			"type": "function"
		},
		{
			"inputs": [],
			"name": "Total_debttoken_Y",
			"outputs": [
				{
					"internalType": "uint256",
					"name": "",
					"type": "uint256"
				}
			],
			"stateMutability": "view",
			"type": "function"
		},
		{
			"inputs": [],
			"name": "True_Liquid_X",
			"outputs": [
				{
					"internalType": "uint256",
					"name": "",
					"type": "uint256"
				}
			],
			"stateMutability": "view",
			"type": "function"
		},
		{
			"inputs": [],
			"name": "True_Liquid_X0",
			"outputs": [
				{
					"internalType": "uint256",
					"name": "",
					"type": "uint256"
				}
			],
			"stateMutability": "view",
			"type": "function"
		},
		{
			"inputs": [],
			"name": "True_Liquid_Y",
			"outputs": [
				{
					"internalType": "uint256",
					"name": "",
					"type": "uint256"
				}
			],
			"stateMutability": "view",
			"type": "function"
		},
		{
			"inputs": [],
			"name": "True_Liquid_Y0",
			"outputs": [
				{
					"internalType": "uint256",
					"name": "",
					"type": "uint256"
				}
			],
			"stateMutability": "view",
			"type": "function"
		},
		{
			"inputs": [],
			"name": "X_Coord",
			"outputs": [
				{
					"internalType": "uint256",
					"name": "",
					"type": "uint256"
				}
			],
			"stateMutability": "view",
			"type": "function"
		},
		{
			"inputs": [],
			"name": "X_Coord_Last",
			"outputs": [
				{
					"internalType": "uint256",
					"name": "",
					"type": "uint256"
				}
			],
			"stateMutability": "view",
			"type": "function"
		},
		{
			"inputs": [],
			"name": "Xeq",
			"outputs": [
				{
					"internalType": "uint256",
					"name": "",
					"type": "uint256"
				}
			],
			"stateMutability": "view",
			"type": "function"
		},
		{
			"inputs": [],
			"name": "Xgetp",
			"outputs": [
				{
					"internalType": "uint256",
					"name": "",
					"type": "uint256"
				}
			],
			"stateMutability": "view",
			"type": "function"
		},
		{
			"inputs": [],
			"name": "Y_Coord",
			"outputs": [
				{
					"internalType": "uint256",
					"name": "",
					"type": "uint256"
				}
			],
			"stateMutability": "view",
			"type": "function"
		},
		{
			"inputs": [],
			"name": "Y_Coord_Last",
			"outputs": [
				{
					"internalType": "uint256",
					"name": "",
					"type": "uint256"
				}
			],
			"stateMutability": "view",
			"type": "function"
		},
		{
			"inputs": [],
			"name": "Yeq",
			"outputs": [
				{
					"internalType": "uint256",
					"name": "",
					"type": "uint256"
				}
			],
			"stateMutability": "view",
			"type": "function"
		},
		{
			"inputs": [],
			"name": "Ygetp",
			"outputs": [
				{
					"internalType": "uint256",
					"name": "",
					"type": "uint256"
				}
			],
			"stateMutability": "view",
			"type": "function"
		},
		{
			"inputs": [
				{
					"internalType": "address",
					"name": "",
					"type": "address"
				},
				{
					"internalType": "bool",
					"name": "",
					"type": "bool"
				}
			],
			"name": "debt_index",
			"outputs": [
				{
					"internalType": "address",
					"name": "user_ID",
					"type": "address"
				},
				{
					"internalType": "bool",
					"name": "token_ID",
					"type": "bool"
				},
				{
					"internalType": "uint256",
					"name": "debttoken_amount",
					"type": "uint256"
				},
				{
					"internalType": "uint256",
					"name": "position_amount",
					"type": "uint256"
				}
			],
			"stateMutability": "view",
			"type": "function"
		},
		{
			"inputs": [],
			"name": "factory",
			"outputs": [
				{
					"internalType": "address",
					"name": "",
					"type": "address"
				}
			],
			"stateMutability": "view",
			"type": "function"
		},
		{
			"inputs": [],
			"name": "funding_Last",
			"outputs": [
				{
					"internalType": "uint256",
					"name": "",
					"type": "uint256"
				}
			],
			"stateMutability": "view",
			"type": "function"
		},
		{
			"inputs": [],
			"name": "funding_x_8h_upper",
			"outputs": [
				{
					"internalType": "uint256",
					"name": "",
					"type": "uint256"
				}
			],
			"stateMutability": "view",
			"type": "function"
		},
		{
			"inputs": [],
			"name": "fundingtime_Last",
			"outputs": [
				{
					"internalType": "uint256",
					"name": "",
					"type": "uint256"
				}
			],
			"stateMutability": "view",
			"type": "function"
		},
		{
			"inputs": [],
			"name": "getPrice",
			"outputs": [
				{
					"internalType": "uint256",
					"name": "price",
					"type": "uint256"
				}
			],
			"stateMutability": "view",
			"type": "function"
		},
		{
			"inputs": [],
			"name": "getReserves",
			"outputs": [
				{
					"internalType": "uint256",
					"name": "_reserveX",
					"type": "uint256"
				},
				{
					"internalType": "uint256",
					"name": "_reserveY",
					"type": "uint256"
				},
				{
					"internalType": "uint256",
					"name": "_blockTimestampLast",
					"type": "uint256"
				}
			],
			"stateMutability": "view",
			"type": "function"
		},
		{
			"inputs": [
				{
					"internalType": "address",
					"name": "token",
					"type": "address"
				}
			],
			"name": "get_margin_price",
			"outputs": [
				{
					"internalType": "uint256",
					"name": "price",
					"type": "uint256"
				}
			],
			"stateMutability": "view",
			"type": "function"
		},
		{
			"inputs": [
				{
					"internalType": "address",
					"name": "_tokenX",
					"type": "address"
				},
				{
					"internalType": "address",
					"name": "_tokenY",
					"type": "address"
				}
			],
			"name": "initialize",
			"outputs": [],
			"stateMutability": "nonpayable",
			"type": "function"
		},
		{
			"inputs": [
				{
					"internalType": "address",
					"name": "",
					"type": "address"
				},
				{
					"internalType": "uint256",
					"name": "",
					"type": "uint256"
				}
			],
			"name": "margin_index",
			"outputs": [
				{
					"internalType": "uint256",
					"name": "",
					"type": "uint256"
				}
			],
			"stateMutability": "view",
			"type": "function"
		},
		{
			"inputs": [
				{
					"internalType": "address",
					"name": "",
					"type": "address"
				}
			],
			"name": "margin_type",
			"outputs": [
				{
					"internalType": "uint256",
					"name": "",
					"type": "uint256"
				}
			],
			"stateMutability": "view",
			"type": "function"
		},
		{
			"inputs": [],
			"name": "paying_side_Last",
			"outputs": [
				{
					"internalType": "bool",
					"name": "",
					"type": "bool"
				}
			],
			"stateMutability": "view",
			"type": "function"
		},
		{
			"inputs": [
				{
					"internalType": "address",
					"name": "to",
					"type": "address"
				}
			],
			"name": "skim",
			"outputs": [],
			"stateMutability": "nonpayable",
			"type": "function"
		},
		{
			"inputs": [
				{
					"internalType": "address",
					"name": "to",
					"type": "address"
				},
				{
					"internalType": "uint256",
					"name": "Xout",
					"type": "uint256"
				},
				{
					"internalType": "uint256",
					"name": "Yout",
					"type": "uint256"
				}
			],
			"name": "swap",
			"outputs": [],
			"stateMutability": "nonpayable",
			"type": "function"
		},
		{
			"inputs": [],
			"name": "tokenX",
			"outputs": [
				{
					"internalType": "address",
					"name": "",
					"type": "address"
				}
			],
			"stateMutability": "view",
			"type": "function"
		},
		{
			"inputs": [],
			"name": "tokenY",
			"outputs": [
				{
					"internalType": "address",
					"name": "",
					"type": "address"
				}
			],
			"stateMutability": "view",
			"type": "function"
		}
	]
}